{
    "balance_change": {
        "balanceChanges": [
            {
                "account": "0xd0cf5446f873fdaab71138e7882fd93d72adbd08",
                "assets": [
                    {
                        "address": "0xeeeeeeeeeeeeeeeeeeeeeeeeeeeeeeeeeeeeeeee",
                        "amount": "0.03464571",
                        "iconUrl": "https://assets.blocksec.com/image/1663669189317-3.png",
                        "isERC1155": false,
                        "isERC721": false,
                        "sign": false,
                        "value": "66.61434598830000063"
                    }
                ]
            },
            {
                "account": "0x2a3dd3eb832af982ec71669e178424b10dca2ede",
                "assets": [
                    {
                        "address": "0xeeeeeeeeeeeeeeeeeeeeeeeeeeeeeeeeeeeeeeee",
                        "amount": "0.03464571",
                        "iconUrl": "https://assets.blocksec.com/image/1663669189317-3.png",
                        "isERC1155": false,
                        "isERC721": false,
                        "sign": true,
                        "value": "66.61434598830000063"
                    }
                ]
            }
        ]
    },
    "profile": {
        "basic_info": {
            "baseFee": "14.084202282",
            "blockNumber": 17602044,
            "callData": "0xcd5865790000000000000000000000000000000000000000000000000000000000000001000000000000000000000000d0cf5446f873fdaab71138e7882fd93d72adbd08000000000000000000000000000000000000000000000000007b1616f58a8c000000000000000000000000000000000000000000000000000000000000000000000000000000000000000000000000000000000000000000000000000000000100000000000000000000000000000000000000000000000000000000000000c00000000000000000000000000000000000000000000000000000000000000000",
            "debugEnable": true,
            "errorInfo": "",
            "eventCount": 2,
            "feeRecipient": "0x1f9090aae28b8a3dceadf281b0f12828e676c326",
            "formatValue": "0.03464571",
            "gasLimit": 159561,
            "gasPrice": "16.584202282",
            "gasUsed": 132112,
            "intTxnCount": 3,
            "internalRevert": false,
            "internalRevertMessage": "",
            "isContractCreation": false,
            "isFlashloan": false,
            "maxFee": "30.49001019",
            "nonce": 34,
            "overwritedBlockNumber": -1,
            "priorityFee": "2.5",
            "receiver": "0x2a3dd3eb832af982ec71669e178424b10dca2ede",
            "revertMessage": "",
            "sender": "0xd0cf5446f873fdaab71138e7882fd93d72adbd08",
            "simulationEnable": true,
            "sourceTxnHash": "0x5dba668195fbcd72f8708df57d09bc552850c174fa4d129407641c007267b939",
            "status": true,
            "timestamp": "2023-07-01T22:03:23Z",
            "transactionFee": "0.002190972131879584",
            "txnHash": "0x5dba668195fbcd72f8708df57d09bc552850c174fa4d129407641c007267b939",
            "txnIndex": 35,
            "type": 2,
            "value": "34645710000000000"
        },
        "fund_flow": [
            {
                "amount": "0.03464571",
                "from": "0xd0cf5446f873fdaab71138e7882fd93d72adbd08",
                "id": 1,
                "isERC1155": false,
                "isERC721": false,
                "isReverted": false,
                "order": 1,
                "to": "0x2a3dd3eb832af982ec71669e178424b10dca2ede",
                "token": "0xeeeeeeeeeeeeeeeeeeeeeeeeeeeeeeeeeeeeeeee"
            }
        ],
        "token_infos": [
            {
                "address": "0xc02aaa39b223fe8d0a0e5c4f27ead9083c756cc2",
                "decimals": 18
            },
            {
                "address": "0xeeeeeeeeeeeeeeeeeeeeeeeeeeeeeeeeeeeeeeee",
                "decimals": 18
            }
        ]
    },
    "address_label": {
        "labels": [
            {
                "address": "0xeeeeeeeeeeeeeeeeeeeeeeeeeeeeeeeeeeeeeeee",
                "label": "Ether"
            },
            {
                "address": "0xbc1ea504fc54d078514efcca1f6860b5219b6bc3",
                "label": "PolygonZkEVMGlobalExitRoot"
            },
            {
                "address": "0x5ac4182a1dd41aeef465e40b82fd326bf66ab82c",
                "label": "PolygonZkEVMBridge"
            },
            {
                "address": "0x2a3dd3eb832af982ec71669e178424b10dca2ede",
                "label": "Polygon (Matic): zkEVM Bridge"
            },
            {
                "address": "0x580bda1e7a0cfae92fa7f6c20a3794f169ce3cfb",
                "label": "TransparentUpgradeableProxy_580b_3cfb"
            },
            {
                "address": "0x0000000000000000000000000000000000000000",
                "label": "Null Address"
            },
            {
                "address": "0x0000000000000000000000000000000000000001",
                "label": "Precompiled"
            },
            {
                "address": "0x0000000000000000000000000000000000000002",
                "label": "Precompiled"
            },
            {
                "address": "0x0000000000000000000000000000000000000003",
                "label": "Precompiled"
            },
            {
                "address": "0x0000000000000000000000000000000000000004",
                "label": "Precompiled"
            }
        ]
    },
    "trace": {
        "accountLabels": null,
        "dataMap": {
            "-1": {
                "invocation": {
                    "address": "0xd0cf5446f873fdaab71138e7882fd93d72adbd08",
                    "callData": "",
                    "decodedMethod": null,
                    "errorInfo": "",
                    "fromAddress": "",
                    "gasUsed": 0,
                    "id": -1,
                    "methodDecoded": false,
                    "operation": "",
                    "output": "",
                    "revert": false,
                    "revertMessage": "",
                    "selector": "",
                    "status": false,
                    "value": ""
                },
                "nodeType": 0
            },
            "0": {
                "invocation": {
                    "address": "0x2a3dd3eb832af982ec71669e178424b10dca2ede",
                    "callData": "0x0000000000000000000000000000000000000000000000000000000000000001000000000000000000000000d0cf5446f873fdaab71138e7882fd93d72adbd08000000000000000000000000000000000000000000000000007b1616f58a8c000000000000000000000000000000000000000000000000000000000000000000000000000000000000000000000000000000000000000000000000000000000100000000000000000000000000000000000000000000000000000000000000c00000000000000000000000000000000000000000000000000000000000000000",
                    "decodedMethod": {
                        "callParams": [
                            {
                                "name": "destinationNetwork",
                                "type": "uint32",
                                "value": "1"
                            },
                            {
                                "name": "destinationAddress",
                                "type": "address",
                                "value": "0xd0cf5446f873fdaab71138e7882fd93d72adbd08"
                            },
                            {
                                "name": "amount",
                                "type": "uint256",
                                "value": "34,645,710,000,000,000"
                            },
                            {
                                "name": "token",
                                "type": "address",
                                "value": "0x0000000000000000000000000000000000000000"
                            },
                            {
                                "name": "forceUpdateGlobalExitRoot",
                                "type": "bool",
                                "value": true
                            },
                            {
                                "name": "permitData",
                                "type": "bytes",
                                "value": "0x"
                            }
                        ],
                        "constructorArguments": "",
                        "name": "bridgeAsset",
                        "returnParams": [],
                        "signature": "bridgeAsset(uint32,address,uint256,address,bool,bytes)"
                    },
                    "errorInfo": "",
                    "fromAddress": "0xd0cf5446f873fdaab71138e7882fd93d72adbd08",
                    "gasUsed": 132112,
                    "id": 0,
                    "methodDecoded": true,
                    "operation": "CALL",
                    "output": "",
                    "revert": false,
                    "revertMessage": "",
                    "selector": "0xcd586579",
                    "status": true,
                    "value": "0.03464571"
                },
                "nodeType": 0
            },
            "1": {
                "invocation": {
                    "address": "0x5ac4182a1dd41aeef465e40b82fd326bf66ab82c",
                    "callData": "0x0000000000000000000000000000000000000000000000000000000000000001000000000000000000000000d0cf5446f873fdaab71138e7882fd93d72adbd08000000000000000000000000000000000000000000000000007b1616f58a8c000000000000000000000000000000000000000000000000000000000000000000000000000000000000000000000000000000000000000000000000000000000100000000000000000000000000000000000000000000000000000000000000c00000000000000000000000000000000000000000000000000000000000000000",
                    "decodedMethod": {
                        "callParams": [
                            {
                                "name": "destinationNetwork",
                                "type": "uint32",
                                "value": "1"
                            },
                            {
                                "name": "destinationAddress",
                                "type": "address",
                                "value": "0xd0cf5446f873fdaab71138e7882fd93d72adbd08"
                            },
                            {
                                "name": "amount",
                                "type": "uint256",
                                "value": "34,645,710,000,000,000"
                            },
                            {
                                "name": "token",
                                "type": "address",
                                "value": "0x0000000000000000000000000000000000000000"
                            },
                            {
                                "name": "forceUpdateGlobalExitRoot",
                                "type": "bool",
                                "value": true
                            },
                            {
                                "name": "permitData",
                                "type": "bytes",
                                "value": "0x"
                            }
                        ],
                        "constructorArguments": "",
                        "name": "bridgeAsset",
                        "returnParams": [],
                        "signature": "bridgeAsset(uint32,address,uint256,address,bool,bytes)"
                    },
                    "errorInfo": "",
                    "fromAddress": "0x2a3dd3eb832af982ec71669e178424b10dca2ede",
                    "gasUsed": 105334,
                    "id": 1,
                    "methodDecoded": true,
                    "operation": "DELEGATECALL",
                    "output": "",
                    "revert": false,
                    "revertMessage": "",
                    "selector": "0xcd586579",
                    "status": true,
                    "value": "0.03464571"
                },
                "nodeType": 0
            },
            "2": {
                "event": {
                    "contract": "0x2a3dd3eb832af982ec71669e178424b10dca2ede",
                    "decodedLog": {
                        "name": "BridgeEvent",
                        "params": [
                            {
                                "name": "leafType",
                                "type": "uint8",
                                "value": "0"
                            },
                            {
                                "name": "originNetwork",
                                "type": "uint32",
                                "value": "0"
                            },
                            {
                                "name": "originAddress",
                                "type": "address",
                                "value": "0x0000000000000000000000000000000000000000"
                            },
                            {
                                "name": "destinationNetwork",
                                "type": "uint32",
                                "value": "1"
                            },
                            {
                                "name": "destinationAddress",
                                "type": "address",
                                "value": "0xd0cf5446f873fdaab71138e7882fd93d72adbd08"
                            },
                            {
                                "name": "amount",
                                "type": "uint256",
                                "value": "34,645,710,000,000,000"
                            },
                            {
                                "name": "metadata",
                                "type": "bytes",
                                "value": "0x"
                            },
                            {
                                "name": "depositCount",
                                "type": "uint32",
                                "value": "61,923"
                            }
                        ],
                        "signature": "BridgeEvent(uint8,uint32,address,uint32,address,uint256,bytes,uint32)"
                    },
                    "id": 2,
                    "logData": "0x0000000000000000000000000000000000000000000000000000000000000000000000000000000000000000000000000000000000000000000000000000000000000000000000000000000000000000000000000000000000000000000000000000000000000000000000000000000000000000000000000000000000000001000000000000000000000000d0cf5446f873fdaab71138e7882fd93d72adbd08000000000000000000000000000000000000000000000000007b1616f58a8c000000000000000000000000000000000000000000000000000000000000000100000000000000000000000000000000000000000000000000000000000000f1e30000000000000000000000000000000000000000000000000000000000000000",
                    "logDecoded": true,
                    "operation": "EVENT",
                    "revert": false,
                    "status": true,
                    "topics": [
                        "0x501781209a1f8899323b96b4ef08b168df93e0a90c673d1e4cce39366cb62f9b"
                    ]
                },
                "nodeType": 1
            },
            "3": {
                "invocation": {
                    "address": "0x580bda1e7a0cfae92fa7f6c20a3794f169ce3cfb",
                    "callData": "0x8811b84ac9d87a1d8dc0ac8da41572fdc7f31f9a0a5667b80ca68ccc8e47c8a2",
                    "decodedMethod": {
                        "callParams": [
                            {
                                "name": "newRoot",
                                "type": "bytes32",
                                "value": "0x8811b84ac9d87a1d8dc0ac8da41572fdc7f31f9a0a5667b80ca68ccc8e47c8a2"
                            }
                        ],
                        "constructorArguments": "",
                        "name": "updateExitRoot",
                        "returnParams": [],
                        "signature": "updateExitRoot(bytes32)"
                    },
                    "errorInfo": "",
                    "fromAddress": "0x2a3dd3eb832af982ec71669e178424b10dca2ede",
                    "gasUsed": 38667,
                    "id": 3,
                    "methodDecoded": true,
                    "operation": "CALL",
                    "output": "",
                    "revert": false,
                    "revertMessage": "",
                    "selector": "0x33d6247d",
                    "status": true,
                    "value": "0"
                },
                "nodeType": 0
            },
            "4": {
                "invocation": {
                    "address": "0xbc1ea504fc54d078514efcca1f6860b5219b6bc3",
                    "callData": "0x8811b84ac9d87a1d8dc0ac8da41572fdc7f31f9a0a5667b80ca68ccc8e47c8a2",
                    "decodedMethod": {
                        "callParams": [
                            {
                                "name": "newRoot",
                                "type": "bytes32",
                                "value": "0x8811b84ac9d87a1d8dc0ac8da41572fdc7f31f9a0a5667b80ca68ccc8e47c8a2"
                            }
                        ],
                        "constructorArguments": "",
                        "name": "updateExitRoot",
                        "returnParams": [],
                        "signature": "updateExitRoot(bytes32)"
                    },
                    "errorInfo": "",
                    "fromAddress": "0x580bda1e7a0cfae92fa7f6c20a3794f169ce3cfb",
                    "gasUsed": 31351,
                    "id": 4,
                    "methodDecoded": true,
                    "operation": "DELEGATECALL",
                    "output": "",
                    "revert": false,
                    "revertMessage": "",
                    "selector": "0x33d6247d",
                    "status": true,
                    "value": "0"
                },
                "nodeType": 0
            },
            "5": {
                "event": {
                    "contract": "0x580bda1e7a0cfae92fa7f6c20a3794f169ce3cfb",
                    "decodedLog": {
                        "name": "UpdateGlobalExitRoot",
                        "params": [
                            {
                                "name": "mainnetExitRoot",
                                "type": "bytes32",
                                "value": "0x8811b84ac9d87a1d8dc0ac8da41572fdc7f31f9a0a5667b80ca68ccc8e47c8a2"
                            },
                            {
                                "name": "rollupExitRoot",
                                "type": "bytes32",
                                "value": "0xd9f462622a4d61908deef67d5b1252d43ddc246f2944a8111fddaded8a6dd5c9"
                            }
                        ],
                        "signature": "UpdateGlobalExitRoot(bytes32,bytes32)"
                    },
                    "id": 5,
                    "logData": "0x",
                    "logDecoded": true,
                    "operation": "EVENT",
                    "revert": false,
                    "status": true,
                    "topics": [
                        "0x61014378f82a0d809aefaf87a8ac9505b89c321808287a6e7810f29304c1fce3",
                        "0x8811b84ac9d87a1d8dc0ac8da41572fdc7f31f9a0a5667b80ca68ccc8e47c8a2",
                        "0xd9f462622a4d61908deef67d5b1252d43ddc246f2944a8111fddaded8a6dd5c9"
                    ]
                },
                "nodeType": 1
            }
        },
        "gasFlame": [
            {
                "children": [
                    {
                        "children": [
                            {
                                "children": [],
                                "depth": 0,
                                "name": "Initial Gas",
                                "value": 22308
                            },
                            {
                                "children": [
                                    {
                                        "children": [
                                            {
                                                "children": [
                                                    {
                                                        "children": [],
                                                        "depth": 3,
                                                        "name": "updateExitRoot",
                                                        "value": 31351
                                                    }
                                                ],
                                                "depth": 2,
                                                "name": "updateExitRoot",
                                                "value": 38667
                                            }
                                        ],
                                        "depth": 1,
                                        "name": "bridgeAsset",
                                        "value": 105334
                                    }
                                ],
                                "depth": 0,
                                "name": "Executed Gas",
                                "value": 112604
                            }
                        ],
                        "depth": -1,
                        "name": "Actual Gas Used",
                        "value": 132112
                    },
                    {
                        "children": [],
                        "depth": -1,
                        "name": "Refunded Gas",
                        "value": 2800
                    }
                ],
                "depth": -2,
                "name": "Total Gas",
                "value": 134912
            }
        ],
        "isConfirmed": true,
        "mainTrace": [
            {
                "children": [
                    {
                        "children": [
                            {
                                "children": [
                                    {
                                        "children": [],
                                        "depth": 2,
                                        "id": 2,
                                        "order": 2
                                    },
                                    {
                                        "children": [
                                            {
                                                "children": [
                                                    {
                                                        "children": [],
                                                        "depth": 4,
                                                        "id": 5,
                                                        "order": 5
                                                    }
                                                ],
                                                "depth": 3,
                                                "id": 4,
                                                "order": 4
                                            }
                                        ],
                                        "depth": 2,
                                        "id": 3,
                                        "order": 3
                                    }
                                ],
                                "depth": 1,
                                "id": 1,
                                "order": 1
                            }
                        ],
                        "depth": 0,
                        "id": 0,
                        "order": 0
                    }
                ],
                "depth": -1,
                "id": -1,
                "order": -1
            }
        ],
        "mainTraceNodeCount": 6,
        "parentIdMap": {
            "0": -1,
            "1": 0,
            "2": 1,
            "3": 1,
            "4": 3,
            "5": 4
        },
        "tidyTrace": [
            {
                "children": [
                    {
                        "children": [
                            {
                                "children": [
                                    {
                                        "children": [],
                                        "depth": 2,
                                        "id": 2,
                                        "order": 2
                                    },
                                    {
                                        "children": [
                                            {
                                                "children": [
                                                    {
                                                        "children": [],
                                                        "depth": 4,
                                                        "id": 5,
                                                        "order": 5
                                                    }
                                                ],
                                                "depth": 3,
                                                "id": 4,
                                                "order": 4
                                            }
                                        ],
                                        "depth": 2,
                                        "id": 3,
                                        "order": 3
                                    }
                                ],
                                "depth": 1,
                                "id": 1,
                                "order": 1
                            }
                        ],
                        "depth": 0,
                        "id": 0,
                        "order": 0
                    }
                ],
                "depth": -1,
                "id": -1,
                "order": -1
            }
        ],
        "tidyTraceNodeCount": 6
    },
    "state_change": {
        "stateChanges": [
            {
                "address": "0x2a3dd3eb832af982ec71669e178424b10dca2ede",
                "erc": "",
                "slots": [
                    {
                        "current": "0x000000000000000000000000000000000000000000000000000000000000f1e4",
                        "key": "0x0000000000000000000000000000000000000000000000000000000000000053",
                        "prev": "0x000000000000000000000000000000000000000000000000000000000000f1e3"
                    },
                    {
                        "current": "0x4039b375848ee0989a3d69f3173844aac64323d875c05b77ed91c8bddf824895",
                        "key": "0x0000000000000000000000000000000000000000000000000000000000000035",
                        "prev": "0x386f707970337293fe291f8aafff4c48d32b2a6cbf431fcd62dc4c8ddfe61e92"
                    },
                    {
                        "current": "0x0000000000f1e4580bda1e7a0cfae92fa7f6c20a3794f169ce3cfb0000000000",
                        "key": "0x0000000000000000000000000000000000000000000000000000000000000068",
                        "prev": "0x0000000000f1e3580bda1e7a0cfae92fa7f6c20a3794f169ce3cfb0000000000"
                    }
                ],
                "storageVariables": [
                    {
                        "name": "depositCount",
                        "type": "uint256",
                        "value": {
                            "current": "61924",
                            "prev": "61923",
                            "typeTag": 1
                        }
                    },
                    {
                        "name": "isEmergencyState",
                        "type": "bool",
                        "value": {
                            "current": "false",
                            "prev": "false",
                            "typeTag": 1
                        }
                    },
                    {
                        "name": "networkID",
                        "type": "uint32",
                        "value": {
                            "current": "0",
                            "prev": "0",
                            "typeTag": 1
                        }
                    },
                    {
                        "name": "globalExitRootManager",
                        "type": "contract IBasePolygonZkEVMGlobalExitRoot",
                        "value": {
                            "current": "0x580bda1e7a0cfae92fa7f6c20a3794f169ce3cfb",
                            "prev": "0x580bda1e7a0cfae92fa7f6c20a3794f169ce3cfb",
                            "typeTag": 1
                        }
                    },
                    {
                        "name": "lastUpdatedDepositCount",
                        "type": "uint32",
                        "value": {
                            "current": "61924",
                            "prev": "61923",
                            "typeTag": 1
                        }
                    }
                ]
            },
            {
                "address": "0x580bda1e7a0cfae92fa7f6c20a3794f169ce3cfb",
                "erc": "",
                "slots": [
                    {
                        "current": "0x8811b84ac9d87a1d8dc0ac8da41572fdc7f31f9a0a5667b80ca68ccc8e47c8a2",
                        "key": "0x0000000000000000000000000000000000000000000000000000000000000001",
                        "prev": "0x2a3a969faefccb93f96b1a28d557bf7222fa15a9df7def2c0c0373d2df370a88"
                    },
                    {
                        "current": "0x0000000000000000000000000000000000000000000000000000000064a0a2ab",
                        "key": "0xdbd17571059b1a593646e5d3e8fe3ab3b2cef721d27911a137dc0e89d1556ac3",
                        "prev": "0x0000000000000000000000000000000000000000000000000000000000000000"
                    }
                ],
                "storageVariables": [
                    {
                        "name": "lastMainnetExitRoot",
                        "type": "bytes32",
                        "value": {
                            "current": "0x8811b84ac9d87a1d8dc0ac8da41572fdc7f31f9a0a5667b80ca68ccc8e47c8a2",
                            "prev": "0x2a3a969faefccb93f96b1a28d557bf7222fa15a9df7def2c0c0373d2df370a88",
                            "typeTag": 1
                        }
                    },
                    {
                        "name": "globalExitRootMap",
                        "type": "mapping(bytes32 => uint256)",
                        "value": {
                            "pairs": [
                                {
                                    "key": "0xb2a451a7861a0145afabaa977e70c1baa33690003597a235bfb6d48429d38676",
                                    "value": {
                                        "current": "1688249003",
                                        "prev": "0",
                                        "typeTag": 1
                                    }
                                }
                            ],
                            "typeTag": 4
                        }
                    }
                ]
            }
        ]
    }
}