{
    "balance_change": {
        "balanceChanges": []
    },
    "profile": {
        "basic_info": {
            "baseFee": "",
            "blockNumber": 1923900,
            "callData": "0x90fa337d000000000000000000000000000000000000000000000000000000000000006000000000000000000000000000000000000000000000000000038d7ea4c6800000000000000000000000000001a23fd30aabf5ad53bab3093dcd4948e15cec80000000000000000000000000000000000000000000000000000000000000005000000020cd23ca4bdb9522eaa1fab95d14d679e177fde7234c5133020000000000000000338aa861329e407028e2bf7796f46e6c1b52e2358ab9d67be868f24a4c579dc543cb8f57692605181adedd4c00000000000000000000000000000000",
            "debugEnable": true,
            "errorInfo": "",
            "eventCount": 1,
            "feeRecipient": "0xbcdfc35b86bedf72f0cda046a3c16829a2ef41d1",
            "formatValue": "0",
            "gasLimit": 1200000,
            "gasPrice": "24.414919574",
            "gasUsed": 39724,
            "intTxnCount": 5,
            "internalRevert": false,
            "internalRevertMessage": "",
            "isContractCreation": false,
            "isFlashloan": false,
            "maxFee": "",
            "nonce": 14968,
            "overwritedBlockNumber": -1,
            "priorityFee": "",
            "receiver": "0x41f274c0023f83391de4e0733c609df5a124c3d4",
            "revertMessage": "",
            "sender": "0xac4361f56c82ed59d533d45129f407015d84702a",
            "simulationEnable": true,
            "sourceTxnHash": "0x5da21f6d2112f8933d7b7327f1deaf652682bb3fd1936d0b330e0d8c44991886",
            "status": true,
            "timestamp": "2016-07-21T05:21:19Z",
            "transactionFee": "0.000969858265157576",
            "txnHash": "0x5da21f6d2112f8933d7b7327f1deaf652682bb3fd1936d0b330e0d8c44991886",
            "txnIndex": 7,
            "type": 0,
            "value": "0"
        },
        "fund_flow": [],
        "token_infos": [
            {
                "address": "0xc02aaa39b223fe8d0a0e5c4f27ead9083c756cc2",
                "decimals": 18
            },
            {
                "address": "0xeeeeeeeeeeeeeeeeeeeeeeeeeeeeeeeeeeeeeeee",
                "decimals": 18
            }
        ]
    },
    "address_label": {
        "labels": [
            {
                "address": "0x0000000000000000000000000000000000000003",
                "label": "Precompiled"
            },
            {
                "address": "0xeeeeeeeeeeeeeeeeeeeeeeeeeeeeeeeeeeeeeeee",
                "label": "Ether"
            },
            {
                "address": "0x41f274c0023f83391de4e0733c609df5a124c3d4",
                "label": "BTCRelay"
            },
            {
                "address": "0x0000000000000000000000000000000000000002",
                "label": "Precompiled"
            },
            {
                "address": "0x0000000000000000000000000000000000000004",
                "label": "Precompiled"
            },
            {
                "address": "0x0000000000000000000000000000000000000001",
                "label": "Precompiled"
            }
        ]
    },
    "trace": {
        "accountLabels": null,
        "dataMap": {
            "-1": {
                "invocation": {
                    "address": "0xac4361f56c82ed59d533d45129f407015d84702a",
                    "callData": "",
                    "decodedMethod": null,
                    "errorInfo": "",
                    "fromAddress": "",
                    "gasUsed": 0,
                    "id": -1,
                    "methodDecoded": false,
                    "operation": "",
                    "output": "",
                    "revert": false,
                    "revertMessage": "",
                    "selector": "",
                    "status": false,
                    "value": ""
                },
                "nodeType": 0
            },
            "0": {
                "invocation": {
                    "address": "0x41f274c0023f83391de4e0733c609df5a124c3d4",
                    "callData": "0x000000000000000000000000000000000000000000000000000000000000006000000000000000000000000000000000000000000000000000038d7ea4c6800000000000000000000000000001a23fd30aabf5ad53bab3093dcd4948e15cec80000000000000000000000000000000000000000000000000000000000000005000000020cd23ca4bdb9522eaa1fab95d14d679e177fde7234c5133020000000000000000338aa861329e407028e2bf7796f46e6c1b52e2358ab9d67be868f24a4c579dc543cb8f57692605181adedd4c00000000000000000000000000000000",
                    "decodedMethod": null,
                    "errorInfo": "",
                    "fromAddress": "0xac4361f56c82ed59d533d45129f407015d84702a",
                    "gasUsed": 39724,
                    "id": 0,
                    "methodDecoded": false,
                    "operation": "CALL",
                    "output": "",
                    "revert": false,
                    "revertMessage": "",
                    "selector": "0x90fa337d",
                    "status": true,
                    "value": "0"
                },
                "nodeType": 0
            },
            "1": {
                "invocation": {
                    "address": "0x0000000000000000000000000000000000000004",
                    "callData": "0x0000000000000000000000000000000000000000000000000000000000000020",
                    "decodedMethod": {
                        "callParams": [
                            {
                                "name": "data",
                                "type": "bytes",
                                "value": "0x2b8616290000000000000000000000000000000000000000000000000000000000000020"
                            }
                        ],
                        "constructorArguments": "",
                        "name": "dataCopy()",
                        "returnParams": [
                            {
                                "name": "data",
                                "type": "bytes",
                                "value": "0x2b8616290000000000000000000000000000000000000000000000000000000000000020"
                            }
                        ],
                        "signature": "dataCopy(bytes)"
                    },
                    "errorInfo": "",
                    "fromAddress": "0x41f274c0023f83391de4e0733c609df5a124c3d4",
                    "gasUsed": 21,
                    "id": 1,
                    "methodDecoded": true,
                    "operation": "CALL",
                    "output": "0x2b8616290000000000000000000000000000000000000000000000000000000000000020",
                    "revert": false,
                    "revertMessage": "",
                    "selector": "0x2b861629",
                    "status": true,
                    "value": "0"
                },
                "nodeType": 0
            },
            "2": {
                "invocation": {
                    "address": "0x0000000000000000000000000000000000000004",
                    "callData": "0x0000000000000000000000000000000000000000000000000000005000000020cd23ca4bdb9522eaa1fab95d14d679e177fde7234c5133020000000000000000338aa861329e407028e2bf7796f46e6c1b52e2358ab9d67be868f24a4c579dc543cb8f57692605181adedd4c00000000000000000000000000000000",
                    "decodedMethod": {
                        "callParams": [
                            {
                                "name": "data",
                                "type": "bytes",
                                "value": "0x000000000000000000000000000000000000000000000000000000000000005000000020cd23ca4bdb9522eaa1fab95d14d679e177fde7234c5133020000000000000000338aa861329e407028e2bf7796f46e6c1b52e2358ab9d67be868f24a4c579dc543cb8f57692605181adedd4c00000000000000000000000000000000"
                            }
                        ],
                        "constructorArguments": "",
                        "name": "dataCopy()",
                        "returnParams": [
                            {
                                "name": "data",
                                "type": "bytes",
                                "value": "0x000000000000000000000000000000000000000000000000000000000000005000000020cd23ca4bdb9522eaa1fab95d14d679e177fde7234c5133020000000000000000338aa861329e407028e2bf7796f46e6c1b52e2358ab9d67be868f24a4c579dc543cb8f57692605181adedd4c00000000000000000000000000000000"
                            }
                        ],
                        "signature": "dataCopy(bytes)"
                    },
                    "errorInfo": "",
                    "fromAddress": "0x41f274c0023f83391de4e0733c609df5a124c3d4",
                    "gasUsed": 27,
                    "id": 2,
                    "methodDecoded": true,
                    "operation": "CALL",
                    "output": "0x000000000000000000000000000000000000000000000000000000000000005000000020cd23ca4bdb9522eaa1fab95d14d679e177fde7234c5133020000000000000000338aa861329e407028e2bf7796f46e6c1b52e2358ab9d67be868f24a4c579dc543cb8f57692605181adedd4c00000000000000000000000000000000",
                    "revert": false,
                    "revertMessage": "",
                    "selector": "0x00000000",
                    "status": true,
                    "value": "0"
                },
                "nodeType": 0
            },
            "3": {
                "invocation": {
                    "address": "0x41f274c0023f83391de4e0733c609df5a124c3d4",
                    "callData": "0x0000000000000000000000000000000000000000000000000000000000000020000000000000000000000000000000000000000000000000000000000000005000000020cd23ca4bdb9522eaa1fab95d14d679e177fde7234c5133020000000000000000338aa861329e407028e2bf7796f46e6c1b52e2358ab9d67be868f24a4c579dc543cb8f57692605181adedd4c00000000000000000000000000000000",
                    "decodedMethod": {
                        "callParams": [
                            {
                                "name": "header",
                                "type": "bytes",
                                "value": "0x00000020cd23ca4bdb9522eaa1fab95d14d679e177fde7234c5133020000000000000000338aa861329e407028e2bf7796f46e6c1b52e2358ab9d67be868f24a4c579dc543cb8f57692605181adedd4c"
                            }
                        ],
                        "constructorArguments": "",
                        "name": "storeBlockHeader",
                        "returnParams": [
                            {
                                "name": "",
                                "type": "uint256",
                                "value": "0"
                            }
                        ],
                        "signature": "storeBlockHeader(bytes)"
                    },
                    "errorInfo": "",
                    "fromAddress": "0x41f274c0023f83391de4e0733c609df5a124c3d4",
                    "gasUsed": 8964,
                    "id": 3,
                    "methodDecoded": true,
                    "operation": "CALL",
                    "output": "0x0000000000000000000000000000000000000000000000000000000000000000",
                    "revert": false,
                    "revertMessage": "",
                    "selector": "0x2b861629",
                    "status": true,
                    "value": "0"
                },
                "nodeType": 0
            },
            "4": {
                "invocation": {
                    "address": "0x0000000000000000000000000000000000000002",
                    "callData": "0xcd23ca4bdb9522eaa1fab95d14d679e177fde7234c5133020000000000000000338aa861329e407028e2bf7796f46e6c1b52e2358ab9d67be868f24a4c579dc543cb8f57692605181adedd4c",
                    "decodedMethod": {
                        "callParams": [
                            {
                                "name": "data",
                                "type": "bytes",
                                "value": "0x00000020cd23ca4bdb9522eaa1fab95d14d679e177fde7234c5133020000000000000000338aa861329e407028e2bf7796f46e6c1b52e2358ab9d67be868f24a4c579dc543cb8f57692605181adedd4c"
                            }
                        ],
                        "constructorArguments": "",
                        "name": "sha256hash",
                        "returnParams": [
                            {
                                "name": "hash",
                                "type": "bytes32",
                                "value": "0x3a1730fbe760f703756703e7a95090836674c9a5d74307514e06b55a41537e35"
                            }
                        ],
                        "signature": "sha256hash(bytes)"
                    },
                    "errorInfo": "",
                    "fromAddress": "0x41f274c0023f83391de4e0733c609df5a124c3d4",
                    "gasUsed": 96,
                    "id": 4,
                    "methodDecoded": true,
                    "operation": "CALL",
                    "output": "0x3a1730fbe760f703756703e7a95090836674c9a5d74307514e06b55a41537e35",
                    "revert": false,
                    "revertMessage": "",
                    "selector": "0x00000020",
                    "status": true,
                    "value": "0"
                },
                "nodeType": 0
            },
            "5": {
                "invocation": {
                    "address": "0x0000000000000000000000000000000000000002",
                    "callData": "0xe760f703756703e7a95090836674c9a5d74307514e06b55a41537e35",
                    "decodedMethod": {
                        "callParams": [
                            {
                                "name": "data",
                                "type": "bytes",
                                "value": "0x3a1730fbe760f703756703e7a95090836674c9a5d74307514e06b55a41537e35"
                            }
                        ],
                        "constructorArguments": "",
                        "name": "sha256hash",
                        "returnParams": [
                            {
                                "name": "hash",
                                "type": "bytes32",
                                "value": "0xc74df90d551598f0330f7f7a85b1adf22ecd3c2bb82133020000000000000000"
                            }
                        ],
                        "signature": "sha256hash(bytes)"
                    },
                    "errorInfo": "",
                    "fromAddress": "0x41f274c0023f83391de4e0733c609df5a124c3d4",
                    "gasUsed": 72,
                    "id": 5,
                    "methodDecoded": true,
                    "operation": "CALL",
                    "output": "0xc74df90d551598f0330f7f7a85b1adf22ecd3c2bb82133020000000000000000",
                    "revert": false,
                    "revertMessage": "",
                    "selector": "0x3a1730fb",
                    "status": true,
                    "value": "0"
                },
                "nodeType": 0
            },
            "6": {
                "event": {
                    "contract": "0x41f274c0023f83391de4e0733c609df5a124c3d4",
                    "decodedLog": null,
                    "id": 6,
                    "logData": "0x",
                    "logDecoded": false,
                    "operation": "EVENT",
                    "revert": false,
                    "status": true,
                    "topics": [
                        "0x055e4f8dd3a534789b3feb8e0681afa2aee8713fdd6472f25b2c30dc7bf4e0f4",
                        "0x0000000000000000023321b82b3ccd2ef2adb1857a7f0f33f09815550df94dc7",
                        "0x0000000000000000000000000000000000000000000000000000000000002738"
                    ]
                },
                "nodeType": 1
            }
        },
        "gasFlame": [
            {
                "children": [
                    {
                        "children": [
                            {
                                "children": [],
                                "depth": 0,
                                "name": "Initial Gas",
                                "value": 28376
                            },
                            {
                                "children": [
                                    {
                                        "children": [],
                                        "depth": 1,
                                        "name": "dataCopy()",
                                        "value": 21
                                    },
                                    {
                                        "children": [],
                                        "depth": 1,
                                        "name": "dataCopy()",
                                        "value": 27
                                    },
                                    {
                                        "children": [
                                            {
                                                "children": [],
                                                "depth": 2,
                                                "name": "sha256hash",
                                                "value": 96
                                            },
                                            {
                                                "children": [],
                                                "depth": 2,
                                                "name": "sha256hash",
                                                "value": 72
                                            }
                                        ],
                                        "depth": 1,
                                        "name": "storeBlockHeader",
                                        "value": 8964
                                    }
                                ],
                                "depth": 0,
                                "name": "Executed Gas",
                                "value": 11348
                            }
                        ],
                        "depth": -1,
                        "name": "Actual Gas Used",
                        "value": 39724
                    },
                    {
                        "children": [],
                        "depth": -1,
                        "name": "Refunded Gas",
                        "value": 0
                    }
                ],
                "depth": -2,
                "name": "Total Gas",
                "value": 39724
            }
        ],
        "isConfirmed": true,
        "mainTrace": [
            {
                "children": [
                    {
                        "children": [
                            {
                                "children": [],
                                "depth": 1,
                                "id": 1,
                                "order": 1
                            },
                            {
                                "children": [],
                                "depth": 1,
                                "id": 2,
                                "order": 2
                            },
                            {
                                "children": [
                                    {
                                        "children": [],
                                        "depth": 2,
                                        "id": 4,
                                        "order": 4
                                    },
                                    {
                                        "children": [],
                                        "depth": 2,
                                        "id": 5,
                                        "order": 5
                                    },
                                    {
                                        "children": [],
                                        "depth": 2,
                                        "id": 6,
                                        "order": 6
                                    }
                                ],
                                "depth": 1,
                                "id": 3,
                                "order": 3
                            }
                        ],
                        "depth": 0,
                        "id": 0,
                        "order": 0
                    }
                ],
                "depth": -1,
                "id": -1,
                "order": -1
            }
        ],
        "mainTraceNodeCount": 7,
        "parentIdMap": {
            "0": -1,
            "1": 0,
            "2": 0,
            "3": 0,
            "4": 3,
            "5": 3,
            "6": 3
        },
        "tidyTrace": [
            {
                "children": [
                    {
                        "children": [
                            {
                                "children": [],
                                "depth": 1,
                                "id": 1,
                                "order": 1
                            },
                            {
                                "children": [],
                                "depth": 1,
                                "id": 2,
                                "order": 2
                            },
                            {
                                "children": [
                                    {
                                        "children": [],
                                        "depth": 2,
                                        "id": 4,
                                        "order": 4
                                    },
                                    {
                                        "children": [],
                                        "depth": 2,
                                        "id": 5,
                                        "order": 5
                                    },
                                    {
                                        "children": [],
                                        "depth": 2,
                                        "id": 6,
                                        "order": 6
                                    }
                                ],
                                "depth": 1,
                                "id": 3,
                                "order": 3
                            }
                        ],
                        "depth": 0,
                        "id": 0,
                        "order": 0
                    }
                ],
                "depth": -1,
                "id": -1,
                "order": -1
            }
        ],
        "tidyTraceNodeCount": 7
    },
    "state_change": {
        "stateChanges": []
    }
}