{
    "balance_change": {
        "balanceChanges": [
            {
                "account": "0x2faf487a4414fe77e2327f0bf4ae2a264a776ad2",
                "assets": [
                    {
                        "address": "0x2c537e5624e4af88a7ae4060c022609376c8d0eb",
                        "amount": "97",
                        "iconUrl": "",
                        "isERC1155": false,
                        "isERC721": false,
                        "sign": false,
                        "value": "13.28773875"
                    }
                ]
            },
            {
                "account": "0x784325a37295b0c710bee01060a7a1f8d3f5620e",
                "assets": [
                    {
                        "address": "0x2c537e5624e4af88a7ae4060c022609376c8d0eb",
                        "amount": "97",
                        "iconUrl": "",
                        "isERC1155": false,
                        "isERC721": false,
                        "sign": true,
                        "value": "13.28773875"
                    }
                ]
            }
        ]
    },
    "profile": {
        "basic_info": {
            "baseFee": "",
            "blockNumber": 12002736,
            "callData": "0xa9059cbb000000000000000000000000784325a37295b0c710bee01060a7a1f8d3f5620e0000000000000000000000000000000000000000000000000000000005c81a40",
            "debugEnable": true,
            "errorInfo": "",
            "eventCount": 1,
            "feeRecipient": "0xea674fdde714fd979de3edf0f56aa9716b898ec8",
            "formatValue": "0",
            "gasLimit": 69970,
            "gasPrice": "142.5",
            "gasUsed": 43057,
            "intTxnCount": 1,
            "internalRevert": false,
            "internalRevertMessage": "",
            "isContractCreation": false,
            "isFlashloan": false,
            "maxFee": "",
            "nonce": 958117,
            "overwritedBlockNumber": -1,
            "priorityFee": "",
            "receiver": "0x2c537e5624e4af88a7ae4060c022609376c8d0eb",
            "revertMessage": "",
            "sender": "0x2faf487a4414fe77e2327f0bf4ae2a264a776ad2",
            "simulationEnable": true,
            "sourceTxnHash": "0x5da4c9cd96f61ca2e5d2feb061c7aa9965b2682cf5aea5ff6927b8a8a22dedf7",
            "status": true,
            "timestamp": "2021-03-09T06:32:31Z",
            "transactionFee": "0.0061356225",
            "txnHash": "0x5da4c9cd96f61ca2e5d2feb061c7aa9965b2682cf5aea5ff6927b8a8a22dedf7",
            "txnIndex": 170,
            "type": 0,
            "value": "0"
        },
        "fund_flow": [
            {
                "amount": "97",
                "from": "0x2faf487a4414fe77e2327f0bf4ae2a264a776ad2",
                "id": 1,
                "isERC1155": false,
                "isERC721": false,
                "isReverted": false,
                "order": 1,
                "to": "0x784325a37295b0c710bee01060a7a1f8d3f5620e",
                "token": "0x2c537e5624e4af88a7ae4060c022609376c8d0eb"
            }
        ],
        "token_infos": [
            {
                "address": "0x2c537e5624e4af88a7ae4060c022609376c8d0eb",
                "decimals": 6
            },
            {
                "address": "0xc02aaa39b223fe8d0a0e5c4f27ead9083c756cc2",
                "decimals": 18
            },
            {
                "address": "0xeeeeeeeeeeeeeeeeeeeeeeeeeeeeeeeeeeeeeeee",
                "decimals": 18
            }
        ]
    },
    "address_label": {
        "labels": [
            {
                "address": "0xeeeeeeeeeeeeeeeeeeeeeeeeeeeeeeeeeeeeeeee",
                "label": "Ether"
            },
            {
                "address": "0x2faf487a4414fe77e2327f0bf4ae2a264a776ad2",
                "label": "FTX Exchange"
            },
            {
                "address": "0x190f2386932cf9c8bc593a9a0e05bab1406fecb4",
                "label": "FiatTokenV2"
            },
            {
                "address": "0x2c537e5624e4af88a7ae4060c022609376c8d0eb",
                "label": "BiLira: TRYb Token"
            },
            {
                "address": "0x0000000000000000000000000000000000000001",
                "label": "Precompiled"
            },
            {
                "address": "0x0000000000000000000000000000000000000002",
                "label": "Precompiled"
            },
            {
                "address": "0x0000000000000000000000000000000000000003",
                "label": "Precompiled"
            },
            {
                "address": "0x0000000000000000000000000000000000000004",
                "label": "Precompiled"
            }
        ]
    },
    "trace": {
        "accountLabels": null,
        "dataMap": {
            "-1": {
                "invocation": {
                    "address": "0x2faf487a4414fe77e2327f0bf4ae2a264a776ad2",
                    "callData": "",
                    "decodedMethod": null,
                    "errorInfo": "",
                    "fromAddress": "",
                    "gasUsed": 0,
                    "id": -1,
                    "methodDecoded": false,
                    "operation": "",
                    "output": "",
                    "revert": false,
                    "revertMessage": "",
                    "selector": "",
                    "status": false,
                    "value": ""
                },
                "nodeType": 0
            },
            "0": {
                "invocation": {
                    "address": "0x2c537e5624e4af88a7ae4060c022609376c8d0eb",
                    "callData": "0x000000000000000000000000784325a37295b0c710bee01060a7a1f8d3f5620e0000000000000000000000000000000000000000000000000000000005c81a40",
                    "decodedMethod": {
                        "callParams": [
                            {
                                "name": "_to",
                                "type": "address",
                                "value": "0x784325a37295b0c710bee01060a7a1f8d3f5620e"
                            },
                            {
                                "decimalAvailable": true,
                                "name": "_value",
                                "type": "uint256",
                                "value": "97,000,000"
                            }
                        ],
                        "constructorArguments": "",
                        "name": "transfer",
                        "returnParams": [
                            {
                                "name": "",
                                "type": "bool",
                                "value": true
                            }
                        ],
                        "signature": "transfer(address,uint256)"
                    },
                    "errorInfo": "",
                    "fromAddress": "0x2faf487a4414fe77e2327f0bf4ae2a264a776ad2",
                    "gasUsed": 43057,
                    "id": 0,
                    "methodDecoded": true,
                    "operation": "CALL",
                    "output": "0x0000000000000000000000000000000000000000000000000000000000000001",
                    "revert": false,
                    "revertMessage": "",
                    "selector": "0xa9059cbb",
                    "status": true,
                    "value": "0"
                },
                "nodeType": 0
            },
            "1": {
                "invocation": {
                    "address": "0x190f2386932cf9c8bc593a9a0e05bab1406fecb4",
                    "callData": "0x000000000000000000000000784325a37295b0c710bee01060a7a1f8d3f5620e0000000000000000000000000000000000000000000000000000000005c81a40",
                    "decodedMethod": {
                        "callParams": [
                            {
                                "name": "_to",
                                "type": "address",
                                "value": "0x784325a37295b0c710bee01060a7a1f8d3f5620e"
                            },
                            {
                                "decimalAvailable": true,
                                "name": "_value",
                                "type": "uint256",
                                "value": "97,000,000"
                            }
                        ],
                        "constructorArguments": "",
                        "name": "transfer",
                        "returnParams": [
                            {
                                "name": "",
                                "type": "bool",
                                "value": true
                            }
                        ],
                        "signature": "transfer(address,uint256)"
                    },
                    "errorInfo": "",
                    "fromAddress": "0x2c537e5624e4af88a7ae4060c022609376c8d0eb",
                    "gasUsed": 18660,
                    "id": 1,
                    "methodDecoded": true,
                    "operation": "DELEGATECALL",
                    "output": "0x0000000000000000000000000000000000000000000000000000000000000001",
                    "revert": false,
                    "revertMessage": "",
                    "selector": "0xa9059cbb",
                    "status": true,
                    "value": "0"
                },
                "nodeType": 0
            },
            "2": {
                "event": {
                    "contract": "0x2c537e5624e4af88a7ae4060c022609376c8d0eb",
                    "decodedLog": {
                        "name": "Transfer",
                        "params": [
                            {
                                "name": "from",
                                "type": "address",
                                "value": "0x2faf487a4414fe77e2327f0bf4ae2a264a776ad2"
                            },
                            {
                                "name": "to",
                                "type": "address",
                                "value": "0x784325a37295b0c710bee01060a7a1f8d3f5620e"
                            },
                            {
                                "decimalAvailable": true,
                                "name": "value",
                                "type": "uint256",
                                "value": "97,000,000"
                            }
                        ],
                        "signature": "Transfer(address,address,uint256)"
                    },
                    "id": 2,
                    "logData": "0x0000000000000000000000000000000000000000000000000000000005c81a40",
                    "logDecoded": true,
                    "operation": "EVENT",
                    "revert": false,
                    "status": true,
                    "topics": [
                        "0xddf252ad1be2c89b69c2b068fc378daa952ba7f163c4a11628f55a4df523b3ef",
                        "0x0000000000000000000000002faf487a4414fe77e2327f0bf4ae2a264a776ad2",
                        "0x000000000000000000000000784325a37295b0c710bee01060a7a1f8d3f5620e"
                    ]
                },
                "nodeType": 1
            }
        },
        "gasFlame": [
            {
                "children": [
                    {
                        "children": [
                            {
                                "children": [],
                                "depth": 0,
                                "name": "Initial Gas",
                                "value": 21608
                            },
                            {
                                "children": [
                                    {
                                        "children": [],
                                        "depth": 1,
                                        "name": "transfer",
                                        "value": 18660
                                    }
                                ],
                                "depth": 0,
                                "name": "Executed Gas",
                                "value": 21449
                            }
                        ],
                        "depth": -1,
                        "name": "Actual Gas Used",
                        "value": 43057
                    },
                    {
                        "children": [],
                        "depth": -1,
                        "name": "Refunded Gas",
                        "value": 0
                    }
                ],
                "depth": -2,
                "name": "Total Gas",
                "value": 43057
            }
        ],
        "isConfirmed": true,
        "mainTrace": [
            {
                "children": [
                    {
                        "children": [
                            {
                                "children": [
                                    {
                                        "children": [],
                                        "depth": 2,
                                        "id": 2,
                                        "order": 2
                                    }
                                ],
                                "depth": 1,
                                "id": 1,
                                "order": 1
                            }
                        ],
                        "depth": 0,
                        "id": 0,
                        "order": 0
                    }
                ],
                "depth": -1,
                "id": -1,
                "order": -1
            }
        ],
        "mainTraceNodeCount": 3,
        "parentIdMap": {
            "0": -1,
            "1": 0,
            "2": 1
        },
        "tidyTrace": [
            {
                "children": [
                    {
                        "children": [
                            {
                                "children": [
                                    {
                                        "children": [],
                                        "depth": 2,
                                        "id": 2,
                                        "order": 2
                                    }
                                ],
                                "depth": 1,
                                "id": 1,
                                "order": 1
                            }
                        ],
                        "depth": 0,
                        "id": 0,
                        "order": 0
                    }
                ],
                "depth": -1,
                "id": -1,
                "order": -1
            }
        ],
        "tidyTraceNodeCount": 3
    },
    "state_change": {
        "stateChanges": [
            {
                "address": "0x2c537e5624e4af88a7ae4060c022609376c8d0eb",
                "erc": "ERC-20",
                "slots": [
                    {
                        "current": "0x000000000000000000000000000000000000000000000000000006a42416d951",
                        "key": "0x578b012369b2458cd4c2cefbb968357bbc3b7ee77ee6e684a0e576ebe11cdafc",
                        "prev": "0x000000000000000000000000000000000000000000000000000006a429def391"
                    },
                    {
                        "current": "0x0000000000000000000000000000000000000000000000000000000014628180",
                        "key": "0x5c7824f3d1cc5d11944db4c4c43adc8399e5295a102b6f0df652126f4d80a06e",
                        "prev": "0x000000000000000000000000000000000000000000000000000000000e9a6740"
                    }
                ],
                "storageVariables": [
                    {
                        "name": "balances",
                        "type": "mapping(address => uint256)",
                        "value": {
                            "pairs": [
                                {
                                    "key": "0x2faf487a4414fe77e2327f0bf4ae2a264a776ad2",
                                    "value": {
                                        "current": "7302049880401",
                                        "prev": "7302146880401",
                                        "typeTag": 1
                                    }
                                },
                                {
                                    "key": "0x784325a37295b0c710bee01060a7a1f8d3f5620e",
                                    "value": {
                                        "current": "342000000",
                                        "prev": "245000000",
                                        "typeTag": 1
                                    }
                                }
                            ],
                            "typeTag": 4
                        }
                    }
                ]
            }
        ]
    }
}