{
    "balance_change": {
        "balanceChanges": [
            {
                "account": "0x6cfc57fcfcb8c23b8cf8d72e28966651a8103a2e",
                "assets": [
                    {
                        "address": "0xeeeeeeeeeeeeeeeeeeeeeeeeeeeeeeeeeeeeeeee",
                        "amount": "0.000272",
                        "iconUrl": "https://assets.blocksec.com/image/1663669189317-3.png",
                        "isERC1155": false,
                        "isERC721": false,
                        "sign": false,
                        "value": "0.9411254399999999951"
                    },
                    {
                        "address": "0x6982508145454ce325ddbe47a25d4ec3d2311933",
                        "amount": "25,000,000",
                        "iconUrl": "https://assets.blocksec.com/icon/99f1a626358e559d9a9d6dc4254c663e595a9ebcd362efa2d4cd902a8d75ea2c.png",
                        "isERC1155": false,
                        "isERC721": false,
                        "sign": false,
                        "value": ""
                    }
                ]
            },
            {
                "account": "0x057eff6adfc957b1220abb104485ef3c696c6fbd",
                "assets": [
                    {
                        "address": "0x6982508145454ce325ddbe47a25d4ec3d2311933",
                        "amount": "25,000,000",
                        "iconUrl": "https://assets.blocksec.com/icon/99f1a626358e559d9a9d6dc4254c663e595a9ebcd362efa2d4cd902a8d75ea2c.png",
                        "isERC1155": false,
                        "isERC721": false,
                        "sign": true,
                        "value": ""
                    }
                ]
            },
            {
                "account": "0x5d77b0c9855f44a8fbef34e670e243e988682a82",
                "assets": [
                    {
                        "address": "0xeeeeeeeeeeeeeeeeeeeeeeeeeeeeeeeeeeeeeeee",
                        "amount": "0.000272",
                        "iconUrl": "https://assets.blocksec.com/image/1663669189317-3.png",
                        "isERC1155": false,
                        "isERC721": false,
                        "sign": true,
                        "value": "0.9411254399999999951"
                    }
                ]
            }
        ]
    },
    "profile": {
        "basic_info": {
            "baseFee": "6.992070306",
            "blockNumber": 20211883,
            "callData": "0xaea6af8500000000000000000000000000000000000000000000000000000000000021050000000000000000000000005ca0c41a50fcfec85b91bb4ca5b024b36d9bb12000000000000000000000000000000000000000000014adf4b7320334b90000000000000000000000000000006982508145454ce325ddbe47a25d4ec3d231193300000000000000000000000000000000000000000000000000000000000000c000000000000000000000000000000000000000000000000000000000000000e00000000000000000000000000000000000000000000000000000000000000000000000000000000000000000000000000000000000000000000000000000024000000000000000000000000000000000000000000014adf4b7320334b90000000000000000000000000000006cfc57fcfcb8c23b8cf8d72e28966651a8103a2e0000000000000000000000000000000000000000000000000000000000000060000000000000000000000000000000000000000000000000000000000000000e4e5dddd837c590972552a20a3e4c948cb7c2136fdeeb779744ac04c403239585d4e90d333eb7626dd5aed69b191a65ad0b31c31c2e0a0975bbd2544054cbd37417c8b94820d3618aabb5d24005195a3fbc011efac06c31aa2da5da2063f5d0787edb3e51d71ba0a1d75b58d56a56e7ab7d9d244d0fe4b505171937171dd5dacf8b36e427f248d0019ee1d1c084de91f54fd8becaf7e2ef3387ca0f5f789fcf31e57c693df838e913512d39dce23b4a243e078c5d279a76ad7bd3a1e6bf7524bec3e636225a79caec9df34d0798a58ded0585a0e0f4d3b5854a90d6a9434d7eea85bc6987b09d0a86931917b212d0f779f6766318b6c97779f97439c86fbbc13c5f35f4af058a1a1b4c7130c4c8aa40a73c13289f5af2337fdcfc93ae6d7fbc48da776096f581d80724b2b29034bffb31456a0062d22d18c27b4b4349bbfd62fceac7a32189d53179b3bcd000abc2c9f60d0a215ae69f9e3772310a3adf3e913679e11b2908e601ff8a5b9455e082aa9981fcf1f9ffbcc11988983dc86bffa597b3359cc0cc638394386515804c65bee6ad227d8f6580ebfcbd376c14f820a7feda8cc1e4736da89e5854e066fa45fdce9a94666d440e8d66878d09737d179ef4",
            "debugEnable": true,
            "errorInfo": "",
            "eventCount": 3,
            "feeRecipient": "0x95222290dd7278aa3ddd389cc1e1d165cc4bafe5",
            "formatValue": "0.000272",
            "gasLimit": 276172,
            "gasPrice": "8.196578293",
            "gasUsed": 176604,
            "intTxnCount": 14,
            "internalRevert": false,
            "internalRevertMessage": "",
            "isContractCreation": false,
            "isFlashloan": false,
            "maxFee": "10.994858279",
            "nonce": 8,
            "overwritedBlockNumber": -1,
            "priorityFee": "1.204507987",
            "receiver": "0x057eff6adfc957b1220abb104485ef3c696c6fbd",
            "revertMessage": "",
            "sender": "0x6cfc57fcfcb8c23b8cf8d72e28966651a8103a2e",
            "simulationEnable": true,
            "sourceTxnHash": "0x5d2c683ea265f28f0006024b16dec38e67f4c3c4dc405f472bbcee32635b5bc7",
            "status": true,
            "timestamp": "2024-07-01T13:11:35Z",
            "transactionFee": "0.001447548512856972",
            "txnHash": "0x5d2c683ea265f28f0006024b16dec38e67f4c3c4dc405f472bbcee32635b5bc7",
            "txnIndex": 40,
            "type": 2,
            "value": "272000000000000"
        },
        "fund_flow": [
            {
                "amount": "0.000272",
                "from": "0x6cfc57fcfcb8c23b8cf8d72e28966651a8103a2e",
                "id": 1,
                "isERC1155": false,
                "isERC721": false,
                "isReverted": false,
                "order": 1,
                "to": "0x057eff6adfc957b1220abb104485ef3c696c6fbd",
                "token": "0xeeeeeeeeeeeeeeeeeeeeeeeeeeeeeeeeeeeeeeee"
            },
            {
                "amount": "25,000,000",
                "from": "0x6cfc57fcfcb8c23b8cf8d72e28966651a8103a2e",
                "id": 2,
                "isERC1155": false,
                "isERC721": false,
                "isReverted": false,
                "order": 2,
                "to": "0x057eff6adfc957b1220abb104485ef3c696c6fbd",
                "token": "0x6982508145454ce325ddbe47a25d4ec3d2311933"
            },
            {
                "amount": "0.000272",
                "from": "0x057eff6adfc957b1220abb104485ef3c696c6fbd",
                "id": 3,
                "isERC1155": false,
                "isERC721": false,
                "isReverted": false,
                "order": 3,
                "to": "0x057eff6adfc957b1220abb104485ef3c696c6fbd",
                "token": "0xeeeeeeeeeeeeeeeeeeeeeeeeeeeeeeeeeeeeeeee"
            },
            {
                "amount": "0.000272",
                "from": "0x057eff6adfc957b1220abb104485ef3c696c6fbd",
                "id": 4,
                "isERC1155": false,
                "isERC721": false,
                "isReverted": false,
                "order": 4,
                "to": "0x5d77b0c9855f44a8fbef34e670e243e988682a82",
                "token": "0xeeeeeeeeeeeeeeeeeeeeeeeeeeeeeeeeeeeeeeee"
            }
        ],
        "token_infos": [
            {
                "address": "0x6982508145454ce325ddbe47a25d4ec3d2311933",
                "decimals": 18
            },
            {
                "address": "0xc02aaa39b223fe8d0a0e5c4f27ead9083c756cc2",
                "decimals": 18
            },
            {
                "address": "0xeeeeeeeeeeeeeeeeeeeeeeeeeeeeeeeeeeeeeeee",
                "decimals": 18
            }
        ]
    },
    "address_label": {
        "labels": [
            {
                "address": "0xeeeeeeeeeeeeeeeeeeeeeeeeeeeeeeeeeeeeeeee",
                "label": "Ether"
            },
            {
                "address": "0x6982508145454ce325ddbe47a25d4ec3d2311933",
                "label": "Pepe: PEPE Token"
            },
            {
                "address": "0x0000000000000000000000000000000000000001",
                "label": "Precompiled"
            },
            {
                "address": "0x0000000000000000000000000000000000000002",
                "label": "Precompiled"
            },
            {
                "address": "0x0000000000000000000000000000000000000003",
                "label": "Precompiled"
            },
            {
                "address": "0x0000000000000000000000000000000000000004",
                "label": "Precompiled"
            }
        ]
    },
    "trace": {
        "accountLabels": null,
        "dataMap": {
            "-1": {
                "invocation": {
                    "address": "0x6cfc57fcfcb8c23b8cf8d72e28966651a8103a2e",
                    "callData": "",
                    "decodedMethod": null,
                    "errorInfo": "",
                    "fromAddress": "",
                    "gasUsed": 0,
                    "id": -1,
                    "methodDecoded": false,
                    "operation": "",
                    "output": "",
                    "revert": false,
                    "revertMessage": "",
                    "selector": "",
                    "status": false,
                    "value": ""
                },
                "nodeType": 0
            },
            "0": {
                "invocation": {
                    "address": "0x057eff6adfc957b1220abb104485ef3c696c6fbd",
                    "callData": "0x00000000000000000000000000000000000000000000000000000000000021050000000000000000000000005ca0c41a50fcfec85b91bb4ca5b024b36d9bb12000000000000000000000000000000000000000000014adf4b7320334b90000000000000000000000000000006982508145454ce325ddbe47a25d4ec3d231193300000000000000000000000000000000000000000000000000000000000000c000000000000000000000000000000000000000000000000000000000000000e00000000000000000000000000000000000000000000000000000000000000000000000000000000000000000000000000000000000000000000000000000024000000000000000000000000000000000000000000014adf4b7320334b90000000000000000000000000000006cfc57fcfcb8c23b8cf8d72e28966651a8103a2e0000000000000000000000000000000000000000000000000000000000000060000000000000000000000000000000000000000000000000000000000000000e4e5dddd837c590972552a20a3e4c948cb7c2136fdeeb779744ac04c403239585d4e90d333eb7626dd5aed69b191a65ad0b31c31c2e0a0975bbd2544054cbd37417c8b94820d3618aabb5d24005195a3fbc011efac06c31aa2da5da2063f5d0787edb3e51d71ba0a1d75b58d56a56e7ab7d9d244d0fe4b505171937171dd5dacf8b36e427f248d0019ee1d1c084de91f54fd8becaf7e2ef3387ca0f5f789fcf31e57c693df838e913512d39dce23b4a243e078c5d279a76ad7bd3a1e6bf7524bec3e636225a79caec9df34d0798a58ded0585a0e0f4d3b5854a90d6a9434d7eea85bc6987b09d0a86931917b212d0f779f6766318b6c97779f97439c86fbbc13c5f35f4af058a1a1b4c7130c4c8aa40a73c13289f5af2337fdcfc93ae6d7fbc48da776096f581d80724b2b29034bffb31456a0062d22d18c27b4b4349bbfd62fceac7a32189d53179b3bcd000abc2c9f60d0a215ae69f9e3772310a3adf3e913679e11b2908e601ff8a5b9455e082aa9981fcf1f9ffbcc11988983dc86bffa597b3359cc0cc638394386515804c65bee6ad227d8f6580ebfcbd376c14f820a7feda8cc1e4736da89e5854e066fa45fdce9a94666d440e8d66878d09737d179ef4",
                    "decodedMethod": null,
                    "errorInfo": "",
                    "fromAddress": "0x6cfc57fcfcb8c23b8cf8d72e28966651a8103a2e",
                    "gasUsed": 176604,
                    "id": 0,
                    "methodDecoded": false,
                    "operation": "CALL",
                    "output": "",
                    "revert": false,
                    "revertMessage": "",
                    "selector": "0xaea6af85",
                    "status": true,
                    "value": "0.000272"
                },
                "nodeType": 0
            },
            "1": {
                "invocation": {
                    "address": "0x6982508145454ce325ddbe47a25d4ec3d2311933",
                    "callData": "0x",
                    "decodedMethod": {
                        "callParams": [],
                        "constructorArguments": "",
                        "name": "name",
                        "returnParams": [
                            {
                                "name": "",
                                "type": "string",
                                "value": "Pepe"
                            }
                        ],
                        "signature": "name()"
                    },
                    "errorInfo": "",
                    "fromAddress": "0x057eff6adfc957b1220abb104485ef3c696c6fbd",
                    "gasUsed": 3227,
                    "id": 1,
                    "methodDecoded": true,
                    "operation": "STATICCALL",
                    "output": "0x000000000000000000000000000000000000000000000000000000000000002000000000000000000000000000000000000000000000000000000000000000045065706500000000000000000000000000000000000000000000000000000000",
                    "revert": false,
                    "revertMessage": "",
                    "selector": "0x06fdde03",
                    "status": true,
                    "value": "0"
                },
                "nodeType": 0
            },
            "10": {
                "invocation": {
                    "address": "0x6982508145454ce325ddbe47a25d4ec3d2311933",
                    "callData": "0x0000000000000000000000006cfc57fcfcb8c23b8cf8d72e28966651a8103a2e000000000000000000000000057eff6adfc957b1220abb104485ef3c696c6fbd00000000000000000000000000000000000000000014adf4b7320334b9000000",
                    "decodedMethod": {
                        "callParams": [
                            {
                                "name": "sender",
                                "type": "address",
                                "value": "0x6cfc57fcfcb8c23b8cf8d72e28966651a8103a2e"
                            },
                            {
                                "name": "recipient",
                                "type": "address",
                                "value": "0x057eff6adfc957b1220abb104485ef3c696c6fbd"
                            },
                            {
                                "decimalAvailable": true,
                                "name": "amount",
                                "type": "uint256",
                                "value": "25,000,000,000,000,000,000,000,000"
                            }
                        ],
                        "constructorArguments": "",
                        "name": "transferFrom",
                        "returnParams": [
                            {
                                "name": "",
                                "type": "bool",
                                "value": true
                            }
                        ],
                        "signature": "transferFrom(address,address,uint256)"
                    },
                    "errorInfo": "",
                    "fromAddress": "0x057eff6adfc957b1220abb104485ef3c696c6fbd",
                    "gasUsed": 29145,
                    "id": 10,
                    "methodDecoded": true,
                    "operation": "CALL",
                    "output": "0x0000000000000000000000000000000000000000000000000000000000000001",
                    "revert": false,
                    "revertMessage": "",
                    "selector": "0x23b872dd",
                    "status": true,
                    "value": "0"
                },
                "nodeType": 0
            },
            "11": {
                "event": {
                    "contract": "0x6982508145454ce325ddbe47a25d4ec3d2311933",
                    "decodedLog": {
                        "name": "Transfer",
                        "params": [
                            {
                                "name": "from",
                                "type": "address",
                                "value": "0x6cfc57fcfcb8c23b8cf8d72e28966651a8103a2e"
                            },
                            {
                                "name": "to",
                                "type": "address",
                                "value": "0x057eff6adfc957b1220abb104485ef3c696c6fbd"
                            },
                            {
                                "decimalAvailable": true,
                                "name": "value",
                                "type": "uint256",
                                "value": "25,000,000,000,000,000,000,000,000"
                            }
                        ],
                        "signature": "Transfer(address,address,uint256)"
                    },
                    "id": 11,
                    "logData": "0x00000000000000000000000000000000000000000014adf4b7320334b9000000",
                    "logDecoded": true,
                    "operation": "EVENT",
                    "revert": false,
                    "status": true,
                    "topics": [
                        "0xddf252ad1be2c89b69c2b068fc378daa952ba7f163c4a11628f55a4df523b3ef",
                        "0x0000000000000000000000006cfc57fcfcb8c23b8cf8d72e28966651a8103a2e",
                        "0x000000000000000000000000057eff6adfc957b1220abb104485ef3c696c6fbd"
                    ]
                },
                "nodeType": 1
            },
            "12": {
                "event": {
                    "contract": "0x6982508145454ce325ddbe47a25d4ec3d2311933",
                    "decodedLog": {
                        "name": "Approval",
                        "params": [
                            {
                                "name": "owner",
                                "type": "address",
                                "value": "0x6cfc57fcfcb8c23b8cf8d72e28966651a8103a2e"
                            },
                            {
                                "name": "spender",
                                "type": "address",
                                "value": "0x057eff6adfc957b1220abb104485ef3c696c6fbd"
                            },
                            {
                                "decimalAvailable": true,
                                "name": "value",
                                "type": "uint256",
                                "value": "0"
                            }
                        ],
                        "signature": "Approval(address,address,uint256)"
                    },
                    "id": 12,
                    "logData": "0x0000000000000000000000000000000000000000000000000000000000000000",
                    "logDecoded": true,
                    "operation": "EVENT",
                    "revert": false,
                    "status": true,
                    "topics": [
                        "0x8c5be1e5ebec7d5bd14f71427d1e84f3dd0314c0f7b2291e5b200ac8c7c3b925",
                        "0x0000000000000000000000006cfc57fcfcb8c23b8cf8d72e28966651a8103a2e",
                        "0x000000000000000000000000057eff6adfc957b1220abb104485ef3c696c6fbd"
                    ]
                },
                "nodeType": 1
            },
            "13": {
                "invocation": {
                    "address": "0x057eff6adfc957b1220abb104485ef3c696c6fbd",
                    "callData": "0x0000000000000000000000006cfc57fcfcb8c23b8cf8d72e28966651a8103a2e00000000000000000000000000000000000000000000000000000000000021050000000000000000000000000000000000000000000000000000000000000060000000000000000000000000000000000000000000000000000000000000042c01000000000000000000000000057eff6adfc957b1220abb104485ef3c696c6fbd1e848000000000081b320001000000000000000000000000000000000000000000000000000000000000000000000000000000000000006982508145454ce325ddbe47a25d4ec3d231193300000000000000000000000000000000000000000000000000000000000000010000000000000000000000005ca0c41a50fcfec85b91bb4ca5b024b36d9bb12000000000000000000000000000000000000000000014adf4b7320334b900000000000000000000000000000000000000000000000000000000000000000001200000000000000000000000000000000000000000000000000000000000000160000000000000000000000000000000000000000000000000000000000000001200000000000000000000000000000000000000000000000000000000000001a00000000000000000000000000000000000000000000000000000000000000004506570650000000000000000000000000000000000000000000000000000000000000000000000000000000000000000000000000000000000000000000000045045504500000000000000000000000000000000000000000000000000000000000000000000000000000000000000000000000000000000000000000000024000000000000000000000000000000000000000000014adf4b7320334b90000000000000000000000000000006cfc57fcfcb8c23b8cf8d72e28966651a8103a2e0000000000000000000000000000000000000000000000000000000000000060000000000000000000000000000000000000000000000000000000000000000e4e5dddd837c590972552a20a3e4c948cb7c2136fdeeb779744ac04c403239585d4e90d333eb7626dd5aed69b191a65ad0b31c31c2e0a0975bbd2544054cbd37417c8b94820d3618aabb5d24005195a3fbc011efac06c31aa2da5da2063f5d0787edb3e51d71ba0a1d75b58d56a56e7ab7d9d244d0fe4b505171937171dd5dacf8b36e427f248d0019ee1d1c084de91f54fd8becaf7e2ef3387ca0f5f789fcf31e57c693df838e913512d39dce23b4a243e078c5d279a76ad7bd3a1e6bf7524bec3e636225a79caec9df34d0798a58ded0585a0e0f4d3b5854a90d6a9434d7eea85bc6987b09d0a86931917b212d0f779f6766318b6c97779f97439c86fbbc13c5f35f4af058a1a1b4c7130c4c8aa40a73c13289f5af2337fdcfc93ae6d7fbc48da776096f581d80724b2b29034bffb31456a0062d22d18c27b4b4349bbfd62fceac7a32189d53179b3bcd000abc2c9f60d0a215ae69f9e3772310a3adf3e913679e11b2908e601ff8a5b9455e082aa9981fcf1f9ffbcc11988983dc86bffa597b3359cc0cc638394386515804c65bee6ad227d8f6580ebfcbd376c14f820a7feda8cc1e4736da89e5854e066fa45fdce9a94666d440e8d66878d09737d179ef40000000000000000000000000000000000000000",
                    "decodedMethod": null,
                    "errorInfo": "",
                    "fromAddress": "0x057eff6adfc957b1220abb104485ef3c696c6fbd",
                    "gasUsed": 53866,
                    "id": 13,
                    "methodDecoded": false,
                    "operation": "CALL",
                    "output": "",
                    "revert": false,
                    "revertMessage": "",
                    "selector": "0x2f7af3f9",
                    "status": true,
                    "value": "0.000272"
                },
                "nodeType": 0
            },
            "14": {
                "invocation": {
                    "address": "0x5d77b0c9855f44a8fbef34e670e243e988682a82",
                    "callData": "0x0000000000000000000000000000000000000000000000000000000000000000000000000000000000000000000000000000000000000000000000000000000000000000000000000000000000000000000000000000000000000000000000000000000000000000000000006cfc57fcfcb8c23b8cf8d72e28966651a8103a2e00000000000000000000000000000000000000000000000000000000000000000000000000000000000000000000000000000000000000000000000000002105000000000000000000000000000000000000000000000000000000000000010000000000000000000000000000000000000000000000000000000000000001200000000000000000000000000000000000000000000000000000000000000000000000000000000000000000000000000000000000000000000000000000042c01000000000000000000000000057eff6adfc957b1220abb104485ef3c696c6fbd1e848000000000081b320001000000000000000000000000000000000000000000000000000000000000000000000000000000000000006982508145454ce325ddbe47a25d4ec3d231193300000000000000000000000000000000000000000000000000000000000000010000000000000000000000005ca0c41a50fcfec85b91bb4ca5b024b36d9bb12000000000000000000000000000000000000000000014adf4b7320334b900000000000000000000000000000000000000000000000000000000000000000001200000000000000000000000000000000000000000000000000000000000000160000000000000000000000000000000000000000000000000000000000000001200000000000000000000000000000000000000000000000000000000000001a00000000000000000000000000000000000000000000000000000000000000004506570650000000000000000000000000000000000000000000000000000000000000000000000000000000000000000000000000000000000000000000000045045504500000000000000000000000000000000000000000000000000000000000000000000000000000000000000000000000000000000000000000000024000000000000000000000000000000000000000000014adf4b7320334b90000000000000000000000000000006cfc57fcfcb8c23b8cf8d72e28966651a8103a2e0000000000000000000000000000000000000000000000000000000000000060000000000000000000000000000000000000000000000000000000000000000e4e5dddd837c590972552a20a3e4c948cb7c2136fdeeb779744ac04c403239585d4e90d333eb7626dd5aed69b191a65ad0b31c31c2e0a0975bbd2544054cbd37417c8b94820d3618aabb5d24005195a3fbc011efac06c31aa2da5da2063f5d0787edb3e51d71ba0a1d75b58d56a56e7ab7d9d244d0fe4b505171937171dd5dacf8b36e427f248d0019ee1d1c084de91f54fd8becaf7e2ef3387ca0f5f789fcf31e57c693df838e913512d39dce23b4a243e078c5d279a76ad7bd3a1e6bf7524bec3e636225a79caec9df34d0798a58ded0585a0e0f4d3b5854a90d6a9434d7eea85bc6987b09d0a86931917b212d0f779f6766318b6c97779f97439c86fbbc13c5f35f4af058a1a1b4c7130c4c8aa40a73c13289f5af2337fdcfc93ae6d7fbc48da776096f581d80724b2b29034bffb31456a0062d22d18c27b4b4349bbfd62fceac7a32189d53179b3bcd000abc2c9f60d0a215ae69f9e3772310a3adf3e913679e11b2908e601ff8a5b9455e082aa9981fcf1f9ffbcc11988983dc86bffa597b3359cc0cc638394386515804c65bee6ad227d8f6580ebfcbd376c14f820a7feda8cc1e4736da89e5854e066fa45fdce9a94666d440e8d66878d09737d179ef40000000000000000000000000000000000000000",
                    "decodedMethod": null,
                    "errorInfo": "",
                    "fromAddress": "0x057eff6adfc957b1220abb104485ef3c696c6fbd",
                    "gasUsed": 45123,
                    "id": 14,
                    "methodDecoded": false,
                    "operation": "CALL",
                    "output": "",
                    "revert": false,
                    "revertMessage": "",
                    "selector": "0x209afe56",
                    "status": true,
                    "value": "0.000272"
                },
                "nodeType": 0
            },
            "15": {
                "invocation": {
                    "address": "0xa366ea26eb8f8f95d4e669b091b65f08a375012c",
                    "callData": "0x0000000000000000000000000000000000000000000000000000000000000000000000000000000000000000000000000000000000000000000000000000000000000000000000000000000000000000000000000000000000000000000000000000000000000000000000006cfc57fcfcb8c23b8cf8d72e28966651a8103a2e00000000000000000000000000000000000000000000000000000000000000000000000000000000000000000000000000000000000000000000000000002105000000000000000000000000000000000000000000000000000000000000010000000000000000000000000000000000000000000000000000000000000001200000000000000000000000000000000000000000000000000000000000000000000000000000000000000000000000000000000000000000000000000000042c01000000000000000000000000057eff6adfc957b1220abb104485ef3c696c6fbd1e848000000000081b320001000000000000000000000000000000000000000000000000000000000000000000000000000000000000006982508145454ce325ddbe47a25d4ec3d231193300000000000000000000000000000000000000000000000000000000000000010000000000000000000000005ca0c41a50fcfec85b91bb4ca5b024b36d9bb12000000000000000000000000000000000000000000014adf4b7320334b900000000000000000000000000000000000000000000000000000000000000000001200000000000000000000000000000000000000000000000000000000000000160000000000000000000000000000000000000000000000000000000000000001200000000000000000000000000000000000000000000000000000000000001a00000000000000000000000000000000000000000000000000000000000000004506570650000000000000000000000000000000000000000000000000000000000000000000000000000000000000000000000000000000000000000000000045045504500000000000000000000000000000000000000000000000000000000000000000000000000000000000000000000000000000000000000000000024000000000000000000000000000000000000000000014adf4b7320334b90000000000000000000000000000006cfc57fcfcb8c23b8cf8d72e28966651a8103a2e0000000000000000000000000000000000000000000000000000000000000060000000000000000000000000000000000000000000000000000000000000000e4e5dddd837c590972552a20a3e4c948cb7c2136fdeeb779744ac04c403239585d4e90d333eb7626dd5aed69b191a65ad0b31c31c2e0a0975bbd2544054cbd37417c8b94820d3618aabb5d24005195a3fbc011efac06c31aa2da5da2063f5d0787edb3e51d71ba0a1d75b58d56a56e7ab7d9d244d0fe4b505171937171dd5dacf8b36e427f248d0019ee1d1c084de91f54fd8becaf7e2ef3387ca0f5f789fcf31e57c693df838e913512d39dce23b4a243e078c5d279a76ad7bd3a1e6bf7524bec3e636225a79caec9df34d0798a58ded0585a0e0f4d3b5854a90d6a9434d7eea85bc6987b09d0a86931917b212d0f779f6766318b6c97779f97439c86fbbc13c5f35f4af058a1a1b4c7130c4c8aa40a73c13289f5af2337fdcfc93ae6d7fbc48da776096f581d80724b2b29034bffb31456a0062d22d18c27b4b4349bbfd62fceac7a32189d53179b3bcd000abc2c9f60d0a215ae69f9e3772310a3adf3e913679e11b2908e601ff8a5b9455e082aa9981fcf1f9ffbcc11988983dc86bffa597b3359cc0cc638394386515804c65bee6ad227d8f6580ebfcbd376c14f820a7feda8cc1e4736da89e5854e066fa45fdce9a94666d440e8d66878d09737d179ef40000000000000000000000000000000000000000",
                    "decodedMethod": null,
                    "errorInfo": "",
                    "fromAddress": "0x5d77b0c9855f44a8fbef34e670e243e988682a82",
                    "gasUsed": 44487,
                    "id": 15,
                    "methodDecoded": false,
                    "operation": "DELEGATECALL",
                    "output": "",
                    "revert": false,
                    "revertMessage": "",
                    "selector": "0x209afe56",
                    "status": true,
                    "value": "0.000272"
                },
                "nodeType": 0
            },
            "16": {
                "invocation": {
                    "address": "0x4f8b702bda09f6c1f4e76c42cad35ad06677f8f0",
                    "callData": "0x000000000000000000000000000000000000000000000000000000000000000000000000000000000000000000000000000000000000000000000000000021050000000000000000000000000000000000000000000000000000000000000060000000000000000000000000000000000000000000000000000000000000042c01000000000000000000000000057eff6adfc957b1220abb104485ef3c696c6fbd1e848000000000081b320001000000000000000000000000000000000000000000000000000000000000000000000000000000000000006982508145454ce325ddbe47a25d4ec3d231193300000000000000000000000000000000000000000000000000000000000000010000000000000000000000005ca0c41a50fcfec85b91bb4ca5b024b36d9bb12000000000000000000000000000000000000000000014adf4b7320334b900000000000000000000000000000000000000000000000000000000000000000001200000000000000000000000000000000000000000000000000000000000000160000000000000000000000000000000000000000000000000000000000000001200000000000000000000000000000000000000000000000000000000000001a00000000000000000000000000000000000000000000000000000000000000004506570650000000000000000000000000000000000000000000000000000000000000000000000000000000000000000000000000000000000000000000000045045504500000000000000000000000000000000000000000000000000000000000000000000000000000000000000000000000000000000000000000000024000000000000000000000000000000000000000000014adf4b7320334b90000000000000000000000000000006cfc57fcfcb8c23b8cf8d72e28966651a8103a2e0000000000000000000000000000000000000000000000000000000000000060000000000000000000000000000000000000000000000000000000000000000e4e5dddd837c590972552a20a3e4c948cb7c2136fdeeb779744ac04c403239585d4e90d333eb7626dd5aed69b191a65ad0b31c31c2e0a0975bbd2544054cbd37417c8b94820d3618aabb5d24005195a3fbc011efac06c31aa2da5da2063f5d0787edb3e51d71ba0a1d75b58d56a56e7ab7d9d244d0fe4b505171937171dd5dacf8b36e427f248d0019ee1d1c084de91f54fd8becaf7e2ef3387ca0f5f789fcf31e57c693df838e913512d39dce23b4a243e078c5d279a76ad7bd3a1e6bf7524bec3e636225a79caec9df34d0798a58ded0585a0e0f4d3b5854a90d6a9434d7eea85bc6987b09d0a86931917b212d0f779f6766318b6c97779f97439c86fbbc13c5f35f4af058a1a1b4c7130c4c8aa40a73c13289f5af2337fdcfc93ae6d7fbc48da776096f581d80724b2b29034bffb31456a0062d22d18c27b4b4349bbfd62fceac7a32189d53179b3bcd000abc2c9f60d0a215ae69f9e3772310a3adf3e913679e11b2908e601ff8a5b9455e082aa9981fcf1f9ffbcc11988983dc86bffa597b3359cc0cc638394386515804c65bee6ad227d8f6580ebfcbd376c14f820a7feda8cc1e4736da89e5854e066fa45fdce9a94666d440e8d66878d09737d179ef40000000000000000000000000000000000000000",
                    "decodedMethod": null,
                    "errorInfo": "",
                    "fromAddress": "0x5d77b0c9855f44a8fbef34e670e243e988682a82",
                    "gasUsed": 5926,
                    "id": 16,
                    "methodDecoded": false,
                    "operation": "STATICCALL",
                    "output": "0x0000000000000000000000000000000000000000000000000000f761ef610000",
                    "revert": false,
                    "revertMessage": "",
                    "selector": "0xe01098ba",
                    "status": true,
                    "value": "0"
                },
                "nodeType": 0
            },
            "17": {
                "event": {
                    "contract": "0x5d77b0c9855f44a8fbef34e670e243e988682a82",
                    "decodedLog": null,
                    "id": 17,
                    "logData": "0x0000000000000000000000000000000000000000000000000000000000000000000000000000000000000000000000000000000000000000000000000000000000000000000000000000000000000000000000000000000000000000000000000000000000000000000000006cfc57fcfcb8c23b8cf8d72e28966651a8103a2e000000000000000000000000057eff6adfc957b1220abb104485ef3c696c6fbd00000000000000000000000000000000000000000000000000000000000000000000000000000000000000000000000000000000000000000000000000002105000000000000000000000000000000000000000000000000000000000000012000000000000000000000000000000000000000000000000000000000000001400000000000000000000000000000000000000000000000000000000000000000000000000000000000000000000000000000000000000000000000000000042c01000000000000000000000000057eff6adfc957b1220abb104485ef3c696c6fbd1e848000000000081b320001000000000000000000000000000000000000000000000000000000000000000000000000000000000000006982508145454ce325ddbe47a25d4ec3d231193300000000000000000000000000000000000000000000000000000000000000010000000000000000000000005ca0c41a50fcfec85b91bb4ca5b024b36d9bb12000000000000000000000000000000000000000000014adf4b7320334b900000000000000000000000000000000000000000000000000000000000000000001200000000000000000000000000000000000000000000000000000000000000160000000000000000000000000000000000000000000000000000000000000001200000000000000000000000000000000000000000000000000000000000001a00000000000000000000000000000000000000000000000000000000000000004506570650000000000000000000000000000000000000000000000000000000000000000000000000000000000000000000000000000000000000000000000045045504500000000000000000000000000000000000000000000000000000000000000000000000000000000000000000000000000000000000000000000024000000000000000000000000000000000000000000014adf4b7320334b90000000000000000000000000000006cfc57fcfcb8c23b8cf8d72e28966651a8103a2e0000000000000000000000000000000000000000000000000000000000000060000000000000000000000000000000000000000000000000000000000000000e4e5dddd837c590972552a20a3e4c948cb7c2136fdeeb779744ac04c403239585d4e90d333eb7626dd5aed69b191a65ad0b31c31c2e0a0975bbd2544054cbd37417c8b94820d3618aabb5d24005195a3fbc011efac06c31aa2da5da2063f5d0787edb3e51d71ba0a1d75b58d56a56e7ab7d9d244d0fe4b505171937171dd5dacf8b36e427f248d0019ee1d1c084de91f54fd8becaf7e2ef3387ca0f5f789fcf31e57c693df838e913512d39dce23b4a243e078c5d279a76ad7bd3a1e6bf7524bec3e636225a79caec9df34d0798a58ded0585a0e0f4d3b5854a90d6a9434d7eea85bc6987b09d0a86931917b212d0f779f6766318b6c97779f97439c86fbbc13c5f35f4af058a1a1b4c7130c4c8aa40a73c13289f5af2337fdcfc93ae6d7fbc48da776096f581d80724b2b29034bffb31456a0062d22d18c27b4b4349bbfd62fceac7a32189d53179b3bcd000abc2c9f60d0a215ae69f9e3772310a3adf3e913679e11b2908e601ff8a5b9455e082aa9981fcf1f9ffbcc11988983dc86bffa597b3359cc0cc638394386515804c65bee6ad227d8f6580ebfcbd376c14f820a7feda8cc1e4736da89e5854e066fa45fdce9a94666d440e8d66878d09737d179ef40000000000000000000000000000000000000000",
                    "logDecoded": false,
                    "operation": "EVENT",
                    "revert": false,
                    "status": true,
                    "topics": [
                        "0xef6cc763bf0623d44a08595d2d459bb3b0c6a31123b132d8b33b57a377406546",
                        "0x0000000000000000000000000000000000000000000000000000000000000000"
                    ]
                },
                "nodeType": 1
            },
            "2": {
                "invocation": {
                    "address": "0x6982508145454ce325ddbe47a25d4ec3d2311933",
                    "callData": "0x",
                    "decodedMethod": {
                        "callParams": [],
                        "constructorArguments": "",
                        "name": "symbol",
                        "returnParams": [
                            {
                                "name": "",
                                "type": "string",
                                "value": "PEPE"
                            }
                        ],
                        "signature": "symbol()"
                    },
                    "errorInfo": "",
                    "fromAddress": "0x057eff6adfc957b1220abb104485ef3c696c6fbd",
                    "gasUsed": 3247,
                    "id": 2,
                    "methodDecoded": true,
                    "operation": "STATICCALL",
                    "output": "0x000000000000000000000000000000000000000000000000000000000000002000000000000000000000000000000000000000000000000000000000000000045045504500000000000000000000000000000000000000000000000000000000",
                    "revert": false,
                    "revertMessage": "",
                    "selector": "0x95d89b41",
                    "status": true,
                    "value": "0"
                },
                "nodeType": 0
            },
            "3": {
                "invocation": {
                    "address": "0x6982508145454ce325ddbe47a25d4ec3d2311933",
                    "callData": "0x",
                    "decodedMethod": {
                        "callParams": [],
                        "constructorArguments": "",
                        "name": "decimals",
                        "returnParams": [
                            {
                                "name": "",
                                "type": "uint8",
                                "value": "18"
                            }
                        ],
                        "signature": "decimals()"
                    },
                    "errorInfo": "",
                    "fromAddress": "0x057eff6adfc957b1220abb104485ef3c696c6fbd",
                    "gasUsed": 285,
                    "id": 3,
                    "methodDecoded": true,
                    "operation": "STATICCALL",
                    "output": "0x0000000000000000000000000000000000000000000000000000000000000012",
                    "revert": false,
                    "revertMessage": "",
                    "selector": "0x313ce567",
                    "status": true,
                    "value": "0"
                },
                "nodeType": 0
            },
            "4": {
                "invocation": {
                    "address": "0x5d77b0c9855f44a8fbef34e670e243e988682a82",
                    "callData": "0x",
                    "decodedMethod": null,
                    "errorInfo": "",
                    "fromAddress": "0x057eff6adfc957b1220abb104485ef3c696c6fbd",
                    "gasUsed": 7286,
                    "id": 4,
                    "methodDecoded": false,
                    "operation": "STATICCALL",
                    "output": "0x0000000000000000000000004f8b702bda09f6c1f4e76c42cad35ad06677f8f0",
                    "revert": false,
                    "revertMessage": "",
                    "selector": "0x84bc75a6",
                    "status": true,
                    "value": "0"
                },
                "nodeType": 0
            },
            "5": {
                "invocation": {
                    "address": "0xa366ea26eb8f8f95d4e669b091b65f08a375012c",
                    "callData": "0x",
                    "decodedMethod": null,
                    "errorInfo": "",
                    "fromAddress": "0x5d77b0c9855f44a8fbef34e670e243e988682a82",
                    "gasUsed": 2408,
                    "id": 5,
                    "methodDecoded": false,
                    "operation": "DELEGATECALL",
                    "output": "0x0000000000000000000000004f8b702bda09f6c1f4e76c42cad35ad06677f8f0",
                    "revert": false,
                    "revertMessage": "",
                    "selector": "0x84bc75a6",
                    "status": true,
                    "value": "0"
                },
                "nodeType": 0
            },
            "6": {
                "invocation": {
                    "address": "0x4f8b702bda09f6c1f4e76c42cad35ad06677f8f0",
                    "callData": "0x000000000000000000000000057eff6adfc957b1220abb104485ef3c696c6fbd0000000000000000000000000000000000000000000000000000000000002105",
                    "decodedMethod": null,
                    "errorInfo": "",
                    "fromAddress": "0x057eff6adfc957b1220abb104485ef3c696c6fbd",
                    "gasUsed": 2834,
                    "id": 6,
                    "methodDecoded": false,
                    "operation": "STATICCALL",
                    "output": "0x00000000000000000000000000000000000000000000000000000000081b3200",
                    "revert": false,
                    "revertMessage": "",
                    "selector": "0xabb860fc",
                    "status": true,
                    "value": "0"
                },
                "nodeType": 0
            },
            "7": {
                "invocation": {
                    "address": "0x5d77b0c9855f44a8fbef34e670e243e988682a82",
                    "callData": "0x00000000000000000000000000000000000000000000000000000000000000000000000000000000000000000000000000000000000000000000000000002105000000000000000000000000000000000000000000000000000000000000008000000000000000000000000000000000000000000000000000000000000000a00000000000000000000000000000000000000000000000000000000000000000000000000000000000000000000000000000000000000000000000000000042c01000000000000000000000000057eff6adfc957b1220abb104485ef3c696c6fbd1e848000000000081b320001000000000000000000000000000000000000000000000000000000000000000000000000000000000000006982508145454ce325ddbe47a25d4ec3d231193300000000000000000000000000000000000000000000000000000000000000010000000000000000000000005ca0c41a50fcfec85b91bb4ca5b024b36d9bb12000000000000000000000000000000000000000000014adf4b7320334b900000000000000000000000000000000000000000000000000000000000000000001200000000000000000000000000000000000000000000000000000000000000160000000000000000000000000000000000000000000000000000000000000001200000000000000000000000000000000000000000000000000000000000001a00000000000000000000000000000000000000000000000000000000000000004506570650000000000000000000000000000000000000000000000000000000000000000000000000000000000000000000000000000000000000000000000045045504500000000000000000000000000000000000000000000000000000000000000000000000000000000000000000000000000000000000000000000024000000000000000000000000000000000000000000014adf4b7320334b90000000000000000000000000000006cfc57fcfcb8c23b8cf8d72e28966651a8103a2e0000000000000000000000000000000000000000000000000000000000000060000000000000000000000000000000000000000000000000000000000000000e4e5dddd837c590972552a20a3e4c948cb7c2136fdeeb779744ac04c403239585d4e90d333eb7626dd5aed69b191a65ad0b31c31c2e0a0975bbd2544054cbd37417c8b94820d3618aabb5d24005195a3fbc011efac06c31aa2da5da2063f5d0787edb3e51d71ba0a1d75b58d56a56e7ab7d9d244d0fe4b505171937171dd5dacf8b36e427f248d0019ee1d1c084de91f54fd8becaf7e2ef3387ca0f5f789fcf31e57c693df838e913512d39dce23b4a243e078c5d279a76ad7bd3a1e6bf7524bec3e636225a79caec9df34d0798a58ded0585a0e0f4d3b5854a90d6a9434d7eea85bc6987b09d0a86931917b212d0f779f6766318b6c97779f97439c86fbbc13c5f35f4af058a1a1b4c7130c4c8aa40a73c13289f5af2337fdcfc93ae6d7fbc48da776096f581d80724b2b29034bffb31456a0062d22d18c27b4b4349bbfd62fceac7a32189d53179b3bcd000abc2c9f60d0a215ae69f9e3772310a3adf3e913679e11b2908e601ff8a5b9455e082aa9981fcf1f9ffbcc11988983dc86bffa597b3359cc0cc638394386515804c65bee6ad227d8f6580ebfcbd376c14f820a7feda8cc1e4736da89e5854e066fa45fdce9a94666d440e8d66878d09737d179ef40000000000000000000000000000000000000000",
                    "decodedMethod": null,
                    "errorInfo": "",
                    "fromAddress": "0x057eff6adfc957b1220abb104485ef3c696c6fbd",
                    "gasUsed": 10222,
                    "id": 7,
                    "methodDecoded": false,
                    "operation": "STATICCALL",
                    "output": "0x0000000000000000000000000000000000000000000000000000f761ef610000",
                    "revert": false,
                    "revertMessage": "",
                    "selector": "0x85fdd542",
                    "status": true,
                    "value": "0"
                },
                "nodeType": 0
            },
            "8": {
                "invocation": {
                    "address": "0xa366ea26eb8f8f95d4e669b091b65f08a375012c",
                    "callData": "0x00000000000000000000000000000000000000000000000000000000000000000000000000000000000000000000000000000000000000000000000000002105000000000000000000000000000000000000000000000000000000000000008000000000000000000000000000000000000000000000000000000000000000a00000000000000000000000000000000000000000000000000000000000000000000000000000000000000000000000000000000000000000000000000000042c01000000000000000000000000057eff6adfc957b1220abb104485ef3c696c6fbd1e848000000000081b320001000000000000000000000000000000000000000000000000000000000000000000000000000000000000006982508145454ce325ddbe47a25d4ec3d231193300000000000000000000000000000000000000000000000000000000000000010000000000000000000000005ca0c41a50fcfec85b91bb4ca5b024b36d9bb12000000000000000000000000000000000000000000014adf4b7320334b900000000000000000000000000000000000000000000000000000000000000000001200000000000000000000000000000000000000000000000000000000000000160000000000000000000000000000000000000000000000000000000000000001200000000000000000000000000000000000000000000000000000000000001a00000000000000000000000000000000000000000000000000000000000000004506570650000000000000000000000000000000000000000000000000000000000000000000000000000000000000000000000000000000000000000000000045045504500000000000000000000000000000000000000000000000000000000000000000000000000000000000000000000000000000000000000000000024000000000000000000000000000000000000000000014adf4b7320334b90000000000000000000000000000006cfc57fcfcb8c23b8cf8d72e28966651a8103a2e0000000000000000000000000000000000000000000000000000000000000060000000000000000000000000000000000000000000000000000000000000000e4e5dddd837c590972552a20a3e4c948cb7c2136fdeeb779744ac04c403239585d4e90d333eb7626dd5aed69b191a65ad0b31c31c2e0a0975bbd2544054cbd37417c8b94820d3618aabb5d24005195a3fbc011efac06c31aa2da5da2063f5d0787edb3e51d71ba0a1d75b58d56a56e7ab7d9d244d0fe4b505171937171dd5dacf8b36e427f248d0019ee1d1c084de91f54fd8becaf7e2ef3387ca0f5f789fcf31e57c693df838e913512d39dce23b4a243e078c5d279a76ad7bd3a1e6bf7524bec3e636225a79caec9df34d0798a58ded0585a0e0f4d3b5854a90d6a9434d7eea85bc6987b09d0a86931917b212d0f779f6766318b6c97779f97439c86fbbc13c5f35f4af058a1a1b4c7130c4c8aa40a73c13289f5af2337fdcfc93ae6d7fbc48da776096f581d80724b2b29034bffb31456a0062d22d18c27b4b4349bbfd62fceac7a32189d53179b3bcd000abc2c9f60d0a215ae69f9e3772310a3adf3e913679e11b2908e601ff8a5b9455e082aa9981fcf1f9ffbcc11988983dc86bffa597b3359cc0cc638394386515804c65bee6ad227d8f6580ebfcbd376c14f820a7feda8cc1e4736da89e5854e066fa45fdce9a94666d440e8d66878d09737d179ef40000000000000000000000000000000000000000",
                    "decodedMethod": null,
                    "errorInfo": "",
                    "fromAddress": "0x5d77b0c9855f44a8fbef34e670e243e988682a82",
                    "gasUsed": 9607,
                    "id": 8,
                    "methodDecoded": false,
                    "operation": "DELEGATECALL",
                    "output": "0x0000000000000000000000000000000000000000000000000000f761ef610000",
                    "revert": false,
                    "revertMessage": "",
                    "selector": "0x85fdd542",
                    "status": true,
                    "value": "0"
                },
                "nodeType": 0
            },
            "9": {
                "invocation": {
                    "address": "0x4f8b702bda09f6c1f4e76c42cad35ad06677f8f0",
                    "callData": "0x000000000000000000000000000000000000000000000000000000000000000000000000000000000000000000000000000000000000000000000000000021050000000000000000000000000000000000000000000000000000000000000060000000000000000000000000000000000000000000000000000000000000042c01000000000000000000000000057eff6adfc957b1220abb104485ef3c696c6fbd1e848000000000081b320001000000000000000000000000000000000000000000000000000000000000000000000000000000000000006982508145454ce325ddbe47a25d4ec3d231193300000000000000000000000000000000000000000000000000000000000000010000000000000000000000005ca0c41a50fcfec85b91bb4ca5b024b36d9bb12000000000000000000000000000000000000000000014adf4b7320334b900000000000000000000000000000000000000000000000000000000000000000001200000000000000000000000000000000000000000000000000000000000000160000000000000000000000000000000000000000000000000000000000000001200000000000000000000000000000000000000000000000000000000000001a00000000000000000000000000000000000000000000000000000000000000004506570650000000000000000000000000000000000000000000000000000000000000000000000000000000000000000000000000000000000000000000000045045504500000000000000000000000000000000000000000000000000000000000000000000000000000000000000000000000000000000000000000000024000000000000000000000000000000000000000000014adf4b7320334b90000000000000000000000000000006cfc57fcfcb8c23b8cf8d72e28966651a8103a2e0000000000000000000000000000000000000000000000000000000000000060000000000000000000000000000000000000000000000000000000000000000e4e5dddd837c590972552a20a3e4c948cb7c2136fdeeb779744ac04c403239585d4e90d333eb7626dd5aed69b191a65ad0b31c31c2e0a0975bbd2544054cbd37417c8b94820d3618aabb5d24005195a3fbc011efac06c31aa2da5da2063f5d0787edb3e51d71ba0a1d75b58d56a56e7ab7d9d244d0fe4b505171937171dd5dacf8b36e427f248d0019ee1d1c084de91f54fd8becaf7e2ef3387ca0f5f789fcf31e57c693df838e913512d39dce23b4a243e078c5d279a76ad7bd3a1e6bf7524bec3e636225a79caec9df34d0798a58ded0585a0e0f4d3b5854a90d6a9434d7eea85bc6987b09d0a86931917b212d0f779f6766318b6c97779f97439c86fbbc13c5f35f4af058a1a1b4c7130c4c8aa40a73c13289f5af2337fdcfc93ae6d7fbc48da776096f581d80724b2b29034bffb31456a0062d22d18c27b4b4349bbfd62fceac7a32189d53179b3bcd000abc2c9f60d0a215ae69f9e3772310a3adf3e913679e11b2908e601ff8a5b9455e082aa9981fcf1f9ffbcc11988983dc86bffa597b3359cc0cc638394386515804c65bee6ad227d8f6580ebfcbd376c14f820a7feda8cc1e4736da89e5854e066fa45fdce9a94666d440e8d66878d09737d179ef40000000000000000000000000000000000000000",
                    "decodedMethod": null,
                    "errorInfo": "",
                    "fromAddress": "0x5d77b0c9855f44a8fbef34e670e243e988682a82",
                    "gasUsed": 7711,
                    "id": 9,
                    "methodDecoded": false,
                    "operation": "STATICCALL",
                    "output": "0x0000000000000000000000000000000000000000000000000000f761ef610000",
                    "revert": false,
                    "revertMessage": "",
                    "selector": "0x947d8279",
                    "status": true,
                    "value": "0"
                },
                "nodeType": 0
            }
        },
        "gasFlame": [
            {
                "children": [
                    {
                        "children": [
                            {
                                "children": [],
                                "depth": 0,
                                "name": "Initial Gas",
                                "value": 30752
                            },
                            {
                                "children": [
                                    {
                                        "children": [],
                                        "depth": 1,
                                        "name": "name",
                                        "value": 3227
                                    },
                                    {
                                        "children": [],
                                        "depth": 1,
                                        "name": "symbol",
                                        "value": 3247
                                    },
                                    {
                                        "children": [],
                                        "depth": 1,
                                        "name": "decimals",
                                        "value": 285
                                    },
                                    {
                                        "children": [
                                            {
                                                "children": [],
                                                "depth": 2,
                                                "name": "0x84bc75a6",
                                                "value": 2408
                                            }
                                        ],
                                        "depth": 1,
                                        "name": "0x84bc75a6",
                                        "value": 7286
                                    },
                                    {
                                        "children": [],
                                        "depth": 1,
                                        "name": "0xabb860fc",
                                        "value": 2834
                                    },
                                    {
                                        "children": [
                                            {
                                                "children": [
                                                    {
                                                        "children": [],
                                                        "depth": 3,
                                                        "name": "0x947d8279",
                                                        "value": 7711
                                                    }
                                                ],
                                                "depth": 2,
                                                "name": "0x85fdd542",
                                                "value": 9607
                                            }
                                        ],
                                        "depth": 1,
                                        "name": "0x85fdd542",
                                        "value": 10222
                                    },
                                    {
                                        "children": [],
                                        "depth": 1,
                                        "name": "transferFrom",
                                        "value": 29145
                                    },
                                    {
                                        "children": [
                                            {
                                                "children": [
                                                    {
                                                        "children": [
                                                            {
                                                                "children": [],
                                                                "depth": 4,
                                                                "name": "0xe01098ba",
                                                                "value": 5926
                                                            }
                                                        ],
                                                        "depth": 3,
                                                        "name": "0x209afe56",
                                                        "value": 44487
                                                    }
                                                ],
                                                "depth": 2,
                                                "name": "0x209afe56",
                                                "value": 45123
                                            }
                                        ],
                                        "depth": 1,
                                        "name": "0x2f7af3f9",
                                        "value": 53866
                                    }
                                ],
                                "depth": 0,
                                "name": "Executed Gas",
                                "value": 150652
                            }
                        ],
                        "depth": -1,
                        "name": "Actual Gas Used",
                        "value": 176604
                    },
                    {
                        "children": [],
                        "depth": -1,
                        "name": "Refunded Gas",
                        "value": 4800
                    }
                ],
                "depth": -2,
                "name": "Total Gas",
                "value": 181404
            }
        ],
        "isConfirmed": true,
        "mainTrace": [
            {
                "children": [
                    {
                        "children": [
                            {
                                "children": [],
                                "depth": 1,
                                "id": 1,
                                "order": 1
                            },
                            {
                                "children": [],
                                "depth": 1,
                                "id": 2,
                                "order": 2
                            },
                            {
                                "children": [],
                                "depth": 1,
                                "id": 3,
                                "order": 3
                            },
                            {
                                "children": [
                                    {
                                        "children": [],
                                        "depth": 2,
                                        "id": 5,
                                        "order": 5
                                    }
                                ],
                                "depth": 1,
                                "id": 4,
                                "order": 4
                            },
                            {
                                "children": [],
                                "depth": 1,
                                "id": 6,
                                "order": 6
                            },
                            {
                                "children": [
                                    {
                                        "children": [
                                            {
                                                "children": [],
                                                "depth": 3,
                                                "id": 9,
                                                "order": 9
                                            }
                                        ],
                                        "depth": 2,
                                        "id": 8,
                                        "order": 8
                                    }
                                ],
                                "depth": 1,
                                "id": 7,
                                "order": 7
                            },
                            {
                                "children": [
                                    {
                                        "children": [],
                                        "depth": 2,
                                        "id": 11,
                                        "order": 11
                                    },
                                    {
                                        "children": [],
                                        "depth": 2,
                                        "id": 12,
                                        "order": 12
                                    }
                                ],
                                "depth": 1,
                                "id": 10,
                                "order": 10
                            },
                            {
                                "children": [
                                    {
                                        "children": [
                                            {
                                                "children": [
                                                    {
                                                        "children": [],
                                                        "depth": 4,
                                                        "id": 16,
                                                        "order": 16
                                                    },
                                                    {
                                                        "children": [],
                                                        "depth": 4,
                                                        "id": 17,
                                                        "order": 17
                                                    }
                                                ],
                                                "depth": 3,
                                                "id": 15,
                                                "order": 15
                                            }
                                        ],
                                        "depth": 2,
                                        "id": 14,
                                        "order": 14
                                    }
                                ],
                                "depth": 1,
                                "id": 13,
                                "order": 13
                            }
                        ],
                        "depth": 0,
                        "id": 0,
                        "order": 0
                    }
                ],
                "depth": -1,
                "id": -1,
                "order": -1
            }
        ],
        "mainTraceNodeCount": 18,
        "parentIdMap": {
            "0": -1,
            "1": 0,
            "10": 0,
            "11": 10,
            "12": 10,
            "13": 0,
            "14": 13,
            "15": 14,
            "16": 15,
            "17": 15,
            "2": 0,
            "3": 0,
            "4": 0,
            "5": 4,
            "6": 0,
            "7": 0,
            "8": 7,
            "9": 8
        },
        "tidyTrace": [
            {
                "children": [
                    {
                        "children": [
                            {
                                "children": [
                                    {
                                        "children": [],
                                        "depth": 2,
                                        "id": 11,
                                        "order": 11
                                    },
                                    {
                                        "children": [],
                                        "depth": 2,
                                        "id": 12,
                                        "order": 12
                                    }
                                ],
                                "depth": 1,
                                "id": 10,
                                "order": 10
                            },
                            {
                                "children": [
                                    {
                                        "children": [
                                            {
                                                "children": [
                                                    {
                                                        "children": [],
                                                        "depth": 4,
                                                        "id": 17,
                                                        "order": 17
                                                    }
                                                ],
                                                "depth": 3,
                                                "id": 15,
                                                "order": 15
                                            }
                                        ],
                                        "depth": 2,
                                        "id": 14,
                                        "order": 14
                                    }
                                ],
                                "depth": 1,
                                "id": 13,
                                "order": 13
                            }
                        ],
                        "depth": 0,
                        "id": 0,
                        "order": 0
                    }
                ],
                "depth": -1,
                "id": -1,
                "order": -1
            }
        ],
        "tidyTraceNodeCount": 8
    },
    "state_change": {
        "stateChanges": [
            {
                "address": "0x5d77b0c9855f44a8fbef34e670e243e988682a82",
                "erc": "",
                "slots": [
                    {
                        "current": "0x0000000000000000000000000000000000000000000000000000000000000001",
                        "key": "0xf8c372d0521e251fa96742ac8cb731a003d6a4bc657f12724a6e91fcba1716cf",
                        "prev": "0x0000000000000000000000000000000000000000000000000000000000000000"
                    }
                ],
                "storageVariables": []
            },
            {
                "address": "0x6982508145454ce325ddbe47a25d4ec3d2311933",
                "erc": "ERC-20",
                "slots": [
                    {
                        "current": "0x000000000000000000000000000000000000000015c3ff2f849368c44c1a8c1a",
                        "key": "0x9f1933fef34e53bed6dc0dccaffd9dfb68c5577b2b6ccea7fddabfd64a37e430",
                        "prev": "0x000000000000000000000000000000000000000015af513acd61658f931a8c1a"
                    },
                    {
                        "current": "0x0000000000000000000000000000000000000000000000000000000000000000",
                        "key": "0x59e3a2ccbf95c7279ea517a0b958bdd0080222448670dbb27217cee0344c11c6",
                        "prev": "0x00000000000000000000000000000000000000000014adf4b7320334b9000000"
                    },
                    {
                        "current": "0x0000000000000000000000000000000000000000000139aa7487bec42c561912",
                        "key": "0x544d0f749acb2fbacdb6445b0918dbfc672c1077a2cc9b72e13177e39b3b192a",
                        "prev": "0x00000000000000000000000000000000000000000015e79f2bb9c1f8e5561912"
                    }
                ],
                "storageVariables": [
                    {
                        "name": "_allowances",
                        "type": "mapping(address => mapping(address => uint256))",
                        "value": {
                            "pairs": [
                                {
                                    "key": "0x6cfc57fcfcb8c23b8cf8d72e28966651a8103a2e",
                                    "value": {
                                        "pairs": [
                                            {
                                                "key": "0x057eff6adfc957b1220abb104485ef3c696c6fbd",
                                                "value": {
                                                    "current": "0",
                                                    "prev": "25000000000000000000000000",
                                                    "typeTag": 1
                                                }
                                            }
                                        ],
                                        "typeTag": 4
                                    }
                                }
                            ],
                            "typeTag": 4
                        }
                    },
                    {
                        "name": "_balances",
                        "type": "mapping(address => uint256)",
                        "value": {
                            "pairs": [
                                {
                                    "key": "0x057eff6adfc957b1220abb104485ef3c696c6fbd",
                                    "value": {
                                        "current": "6736130821076296783049165850",
                                        "prev": "6711130821076296783049165850",
                                        "typeTag": 1
                                    }
                                },
                                {
                                    "key": "0x6cfc57fcfcb8c23b8cf8d72e28966651a8103a2e",
                                    "value": {
                                        "current": "1481245052520509597948178",
                                        "prev": "26481245052520509597948178",
                                        "typeTag": 1
                                    }
                                }
                            ],
                            "typeTag": 4
                        }
                    }
                ]
            }
        ]
    }
}