{
    "balance_change": {
        "balanceChanges": [
            {
                "account": "0x86d23ca85b6fd867e00d2902858dd6618587df91",
                "assets": [
                    {
                        "address": "0xb0dd7c86b9fb49a5a2377111d9b5eedef2f99880",
                        "amount": "100",
                        "iconUrl": "",
                        "isERC1155": false,
                        "isERC721": false,
                        "sign": false,
                        "value": ""
                    }
                ]
            },
            {
                "account": "0x207c07392f3fada34519d9cabbc7b87e928800b9",
                "assets": [
                    {
                        "address": "0xb0dd7c86b9fb49a5a2377111d9b5eedef2f99880",
                        "amount": "100",
                        "iconUrl": "",
                        "isERC1155": false,
                        "isERC721": false,
                        "sign": true,
                        "value": ""
                    }
                ]
            }
        ]
    },
    "profile": {
        "basic_info": {
            "baseFee": "",
            "blockNumber": 7958036,
            "callData": "0xa9059cbb000000000000000000000000207c07392f3fada34519d9cabbc7b87e928800b90000000000000000000000000000000000000000000000056bc75e2d63100000",
            "debugEnable": true,
            "errorInfo": "",
            "eventCount": 1,
            "feeRecipient": "0x52bc44d5378309ee2abf1539bf71de1b7d7be3b5",
            "formatValue": "0",
            "gasLimit": 250000,
            "gasPrice": "2",
            "gasUsed": 52106,
            "intTxnCount": 0,
            "internalRevert": false,
            "internalRevertMessage": "",
            "isContractCreation": false,
            "isFlashloan": false,
            "maxFee": "",
            "nonce": 1285,
            "overwritedBlockNumber": -1,
            "priorityFee": "",
            "receiver": "0xb0dd7c86b9fb49a5a2377111d9b5eedef2f99880",
            "revertMessage": "",
            "sender": "0x86d23ca85b6fd867e00d2902858dd6618587df91",
            "simulationEnable": true,
            "sourceTxnHash": "0x5df1bb2f6f897d5eb0b58034494a5ee53f85b241a209cf5a82dd24476fdef4e1",
            "status": true,
            "timestamp": "2019-06-14T17:15:30Z",
            "transactionFee": "0.000104212",
            "txnHash": "0x5df1bb2f6f897d5eb0b58034494a5ee53f85b241a209cf5a82dd24476fdef4e1",
            "txnIndex": 20,
            "type": 0,
            "value": "0"
        },
        "fund_flow": [
            {
                "amount": "100",
                "from": "0x86d23ca85b6fd867e00d2902858dd6618587df91",
                "id": 1,
                "isERC1155": false,
                "isERC721": false,
                "isReverted": false,
                "order": 1,
                "to": "0x207c07392f3fada34519d9cabbc7b87e928800b9",
                "token": "0xb0dd7c86b9fb49a5a2377111d9b5eedef2f99880"
            }
        ],
        "token_infos": [
            {
                "address": "0xb0dd7c86b9fb49a5a2377111d9b5eedef2f99880",
                "decimals": 18
            },
            {
                "address": "0xc02aaa39b223fe8d0a0e5c4f27ead9083c756cc2",
                "decimals": 18
            },
            {
                "address": "0xeeeeeeeeeeeeeeeeeeeeeeeeeeeeeeeeeeeeeeee",
                "decimals": 18
            }
        ]
    },
    "address_label": {
        "labels": [
            {
                "address": "0x0000000000000000000000000000000000000004",
                "label": "Precompiled"
            },
            {
                "address": "0xeeeeeeeeeeeeeeeeeeeeeeeeeeeeeeeeeeeeeeee",
                "label": "Ether"
            },
            {
                "address": "0xb0dd7c86b9fb49a5a2377111d9b5eedef2f99880",
                "label": "NVT Network Token"
            },
            {
                "address": "0x0000000000000000000000000000000000000001",
                "label": "Precompiled"
            },
            {
                "address": "0x0000000000000000000000000000000000000002",
                "label": "Precompiled"
            },
            {
                "address": "0x0000000000000000000000000000000000000003",
                "label": "Precompiled"
            }
        ]
    },
    "trace": {
        "accountLabels": null,
        "dataMap": {
            "-1": {
                "invocation": {
                    "address": "0x86d23ca85b6fd867e00d2902858dd6618587df91",
                    "callData": "",
                    "decodedMethod": null,
                    "errorInfo": "",
                    "fromAddress": "",
                    "gasUsed": 0,
                    "id": -1,
                    "methodDecoded": false,
                    "operation": "",
                    "output": "",
                    "revert": false,
                    "revertMessage": "",
                    "selector": "",
                    "status": false,
                    "value": ""
                },
                "nodeType": 0
            },
            "0": {
                "invocation": {
                    "address": "0xb0dd7c86b9fb49a5a2377111d9b5eedef2f99880",
                    "callData": "0x000000000000000000000000207c07392f3fada34519d9cabbc7b87e928800b90000000000000000000000000000000000000000000000056bc75e2d63100000",
                    "decodedMethod": {
                        "callParams": [
                            {
                                "name": "_to",
                                "type": "address",
                                "value": "0x207c07392f3fada34519d9cabbc7b87e928800b9"
                            },
                            {
                                "decimalAvailable": true,
                                "name": "_amount",
                                "type": "uint256",
                                "value": "100,000,000,000,000,000,000"
                            }
                        ],
                        "constructorArguments": "",
                        "name": "transfer",
                        "returnParams": [
                            {
                                "name": "success",
                                "type": "bool",
                                "value": true
                            }
                        ],
                        "signature": "transfer(address,uint256)"
                    },
                    "errorInfo": "",
                    "fromAddress": "0x86d23ca85b6fd867e00d2902858dd6618587df91",
                    "gasUsed": 52106,
                    "id": 0,
                    "methodDecoded": true,
                    "operation": "CALL",
                    "output": "0x0000000000000000000000000000000000000000000000000000000000000001",
                    "revert": false,
                    "revertMessage": "",
                    "selector": "0xa9059cbb",
                    "status": true,
                    "value": "0"
                },
                "nodeType": 0
            },
            "1": {
                "event": {
                    "contract": "0xb0dd7c86b9fb49a5a2377111d9b5eedef2f99880",
                    "decodedLog": {
                        "name": "Transfer",
                        "params": [
                            {
                                "name": "from",
                                "type": "address",
                                "value": "0x86d23ca85b6fd867e00d2902858dd6618587df91"
                            },
                            {
                                "name": "to",
                                "type": "address",
                                "value": "0x207c07392f3fada34519d9cabbc7b87e928800b9"
                            },
                            {
                                "decimalAvailable": true,
                                "name": "value",
                                "type": "uint256",
                                "value": "100,000,000,000,000,000,000"
                            }
                        ],
                        "signature": "Transfer(address,address,uint256)"
                    },
                    "id": 1,
                    "logData": "0x0000000000000000000000000000000000000000000000056bc75e2d63100000",
                    "logDecoded": true,
                    "operation": "EVENT",
                    "revert": false,
                    "status": true,
                    "topics": [
                        "0xddf252ad1be2c89b69c2b068fc378daa952ba7f163c4a11628f55a4df523b3ef",
                        "0x00000000000000000000000086d23ca85b6fd867e00d2902858dd6618587df91",
                        "0x000000000000000000000000207c07392f3fada34519d9cabbc7b87e928800b9"
                    ]
                },
                "nodeType": 1
            }
        },
        "gasFlame": [
            {
                "children": [
                    {
                        "children": [
                            {
                                "children": [],
                                "depth": 0,
                                "name": "Initial Gas",
                                "value": 23192
                            },
                            {
                                "children": [],
                                "depth": 0,
                                "name": "Executed Gas",
                                "value": 28914
                            }
                        ],
                        "depth": -1,
                        "name": "Actual Gas Used",
                        "value": 52106
                    },
                    {
                        "children": [],
                        "depth": -1,
                        "name": "Refunded Gas",
                        "value": 0
                    }
                ],
                "depth": -2,
                "name": "Total Gas",
                "value": 52106
            }
        ],
        "isConfirmed": true,
        "mainTrace": [
            {
                "children": [
                    {
                        "children": [
                            {
                                "children": [],
                                "depth": 1,
                                "id": 1,
                                "order": 1
                            }
                        ],
                        "depth": 0,
                        "id": 0,
                        "order": 0
                    }
                ],
                "depth": -1,
                "id": -1,
                "order": -1
            }
        ],
        "mainTraceNodeCount": 2,
        "parentIdMap": {
            "0": -1,
            "1": 0
        },
        "tidyTrace": [
            {
                "children": [
                    {
                        "children": [
                            {
                                "children": [],
                                "depth": 1,
                                "id": 1,
                                "order": 1
                            }
                        ],
                        "depth": 0,
                        "id": 0,
                        "order": 0
                    }
                ],
                "depth": -1,
                "id": -1,
                "order": -1
            }
        ],
        "tidyTraceNodeCount": 2
    },
    "state_change": {
        "stateChanges": [
            {
                "address": "0xb0dd7c86b9fb49a5a2377111d9b5eedef2f99880",
                "erc": "",
                "slots": [
                    {
                        "current": "0x0000000000000000000000000000000000000000000000056bc75e2d63100000",
                        "key": "0xf076b016e5b1abc81b3cb1b99126858a9969df75f6962578ae4730c1ac6ce466",
                        "prev": "0x0000000000000000000000000000000000000000000000000000000000000000"
                    },
                    {
                        "current": "0x000000000000000000000000000000000000000000008d7d06b3a09988000000",
                        "key": "0x869a8ccfb7b2af03c3f830c2939115ea1bf104289781e8b4c4c620e51e2263d0",
                        "prev": "0x000000000000000000000000000000000000000000008d82727afec6eb100000"
                    }
                ],
                "storageVariables": [
                    {
                        "name": "balances",
                        "type": "mapping(address => uint256)",
                        "value": {
                            "pairs": [
                                {
                                    "key": "0x207c07392f3fada34519d9cabbc7b87e928800b9",
                                    "value": {
                                        "current": "100000000000000000000",
                                        "prev": "0",
                                        "typeTag": 1
                                    }
                                },
                                {
                                    "key": "0x86d23ca85b6fd867e00d2902858dd6618587df91",
                                    "value": {
                                        "current": "668160000000000000000000",
                                        "prev": "668260000000000000000000",
                                        "typeTag": 1
                                    }
                                }
                            ],
                            "typeTag": 4
                        }
                    }
                ]
            }
        ]
    }
}