{
    "balance_change": {
        "balanceChanges": [
            {
                "account": "0x6f43c64e7855ac78e0d98704ee0907c82f963745",
                "assets": [
                    {
                        "address": "0x8b32631e6260cc0d29986c0821b22be9a26971ae",
                        "amount": "970",
                        "iconUrl": "",
                        "isERC1155": false,
                        "isERC721": false,
                        "sign": false,
                        "value": ""
                    }
                ]
            },
            {
                "account": "0xb287d4604b7fb4f0bfff40491c0f7905e2d1f8fb",
                "assets": [
                    {
                        "address": "0x8b32631e6260cc0d29986c0821b22be9a26971ae",
                        "amount": "970",
                        "iconUrl": "",
                        "isERC1155": false,
                        "isERC721": false,
                        "sign": true,
                        "value": ""
                    }
                ]
            }
        ]
    },
    "profile": {
        "basic_info": {
            "baseFee": "",
            "blockNumber": 7377671,
            "callData": "0xa9059cbb000000000000000000000000b287d4604b7fb4f0bfff40491c0f7905e2d1f8fb000000000000000000000000000000000000000000000034957444b840e80000",
            "debugEnable": true,
            "errorInfo": "",
            "eventCount": 1,
            "feeRecipient": "0x44fd3ab8381cc3d14afa7c4af7fd13cdc65026e1",
            "formatValue": "0",
            "gasLimit": 99000,
            "gasPrice": "6",
            "gasUsed": 51997,
            "intTxnCount": 0,
            "internalRevert": false,
            "internalRevertMessage": "",
            "isContractCreation": false,
            "isFlashloan": false,
            "maxFee": "",
            "nonce": 4527,
            "overwritedBlockNumber": -1,
            "priorityFee": "",
            "receiver": "0x8b32631e6260cc0d29986c0821b22be9a26971ae",
            "revertMessage": "",
            "sender": "0x6f43c64e7855ac78e0d98704ee0907c82f963745",
            "simulationEnable": true,
            "sourceTxnHash": "0x5df034f3462b4eeecf499805f49cb808764b8c3cfcc6b6b40d271154357b14fb",
            "status": true,
            "timestamp": "2019-03-16T03:33:52Z",
            "transactionFee": "0.000311982",
            "txnHash": "0x5df034f3462b4eeecf499805f49cb808764b8c3cfcc6b6b40d271154357b14fb",
            "txnIndex": 38,
            "type": 0,
            "value": "0"
        },
        "fund_flow": [
            {
                "amount": "970",
                "from": "0x6f43c64e7855ac78e0d98704ee0907c82f963745",
                "id": 1,
                "isERC1155": false,
                "isERC721": false,
                "isReverted": false,
                "order": 1,
                "to": "0xb287d4604b7fb4f0bfff40491c0f7905e2d1f8fb",
                "token": "0x8b32631e6260cc0d29986c0821b22be9a26971ae"
            }
        ],
        "token_infos": [
            {
                "address": "0x8b32631e6260cc0d29986c0821b22be9a26971ae",
                "decimals": 18
            },
            {
                "address": "0xc02aaa39b223fe8d0a0e5c4f27ead9083c756cc2",
                "decimals": 18
            },
            {
                "address": "0xeeeeeeeeeeeeeeeeeeeeeeeeeeeeeeeeeeeeeeee",
                "decimals": 18
            }
        ]
    },
    "address_label": {
        "labels": [
            {
                "address": "0xeeeeeeeeeeeeeeeeeeeeeeeeeeeeeeeeeeeeeeee",
                "label": "Ether"
            },
            {
                "address": "0x8b32631e6260cc0d29986c0821b22be9a26971ae",
                "label": "DXDT"
            },
            {
                "address": "0x0000000000000000000000000000000000000001",
                "label": "Precompiled"
            },
            {
                "address": "0x0000000000000000000000000000000000000002",
                "label": "Precompiled"
            },
            {
                "address": "0x0000000000000000000000000000000000000003",
                "label": "Precompiled"
            },
            {
                "address": "0x0000000000000000000000000000000000000004",
                "label": "Precompiled"
            }
        ]
    },
    "trace": {
        "accountLabels": null,
        "dataMap": {
            "-1": {
                "invocation": {
                    "address": "0x6f43c64e7855ac78e0d98704ee0907c82f963745",
                    "callData": "",
                    "decodedMethod": null,
                    "errorInfo": "",
                    "fromAddress": "",
                    "gasUsed": 0,
                    "id": -1,
                    "methodDecoded": false,
                    "operation": "",
                    "output": "",
                    "revert": false,
                    "revertMessage": "",
                    "selector": "",
                    "status": false,
                    "value": ""
                },
                "nodeType": 0
            },
            "0": {
                "invocation": {
                    "address": "0x8b32631e6260cc0d29986c0821b22be9a26971ae",
                    "callData": "0x000000000000000000000000b287d4604b7fb4f0bfff40491c0f7905e2d1f8fb000000000000000000000000000000000000000000000034957444b840e80000",
                    "decodedMethod": {
                        "callParams": [
                            {
                                "name": "_to",
                                "type": "address",
                                "value": "0xb287d4604b7fb4f0bfff40491c0f7905e2d1f8fb"
                            },
                            {
                                "decimalAvailable": true,
                                "name": "_value",
                                "type": "uint256",
                                "value": "970,000,000,000,000,000,000"
                            }
                        ],
                        "constructorArguments": "",
                        "name": "transfer",
                        "returnParams": [
                            {
                                "name": "success",
                                "type": "bool",
                                "value": true
                            }
                        ],
                        "signature": "transfer(address,uint256)"
                    },
                    "errorInfo": "",
                    "fromAddress": "0x6f43c64e7855ac78e0d98704ee0907c82f963745",
                    "gasUsed": 51997,
                    "id": 0,
                    "methodDecoded": true,
                    "operation": "CALL",
                    "output": "0x0000000000000000000000000000000000000000000000000000000000000001",
                    "revert": false,
                    "revertMessage": "",
                    "selector": "0xa9059cbb",
                    "status": true,
                    "value": "0"
                },
                "nodeType": 0
            },
            "1": {
                "event": {
                    "contract": "0x8b32631e6260cc0d29986c0821b22be9a26971ae",
                    "decodedLog": {
                        "name": "Transfer",
                        "params": [
                            {
                                "name": "_from",
                                "type": "address",
                                "value": "0x6f43c64e7855ac78e0d98704ee0907c82f963745"
                            },
                            {
                                "name": "_to",
                                "type": "address",
                                "value": "0xb287d4604b7fb4f0bfff40491c0f7905e2d1f8fb"
                            },
                            {
                                "decimalAvailable": true,
                                "name": "_value",
                                "type": "uint256",
                                "value": "970,000,000,000,000,000,000"
                            }
                        ],
                        "signature": "Transfer(address,address,uint256)"
                    },
                    "id": 1,
                    "logData": "0x000000000000000000000000000000000000000000000034957444b840e80000",
                    "logDecoded": true,
                    "operation": "EVENT",
                    "revert": false,
                    "status": true,
                    "topics": [
                        "0xddf252ad1be2c89b69c2b068fc378daa952ba7f163c4a11628f55a4df523b3ef",
                        "0x0000000000000000000000006f43c64e7855ac78e0d98704ee0907c82f963745",
                        "0x000000000000000000000000b287d4604b7fb4f0bfff40491c0f7905e2d1f8fb"
                    ]
                },
                "nodeType": 1
            }
        },
        "gasFlame": [
            {
                "children": [
                    {
                        "children": [
                            {
                                "children": [],
                                "depth": 0,
                                "name": "Initial Gas",
                                "value": 23256
                            },
                            {
                                "children": [],
                                "depth": 0,
                                "name": "Executed Gas",
                                "value": 28741
                            }
                        ],
                        "depth": -1,
                        "name": "Actual Gas Used",
                        "value": 51997
                    },
                    {
                        "children": [],
                        "depth": -1,
                        "name": "Refunded Gas",
                        "value": 0
                    }
                ],
                "depth": -2,
                "name": "Total Gas",
                "value": 51997
            }
        ],
        "isConfirmed": true,
        "mainTrace": [
            {
                "children": [
                    {
                        "children": [
                            {
                                "children": [],
                                "depth": 1,
                                "id": 1,
                                "order": 1
                            }
                        ],
                        "depth": 0,
                        "id": 0,
                        "order": 0
                    }
                ],
                "depth": -1,
                "id": -1,
                "order": -1
            }
        ],
        "mainTraceNodeCount": 2,
        "parentIdMap": {
            "0": -1,
            "1": 0
        },
        "tidyTrace": [
            {
                "children": [
                    {
                        "children": [
                            {
                                "children": [],
                                "depth": 1,
                                "id": 1,
                                "order": 1
                            }
                        ],
                        "depth": 0,
                        "id": 0,
                        "order": 0
                    }
                ],
                "depth": -1,
                "id": -1,
                "order": -1
            }
        ],
        "tidyTraceNodeCount": 2
    },
    "state_change": {
        "stateChanges": [
            {
                "address": "0x8b32631e6260cc0d29986c0821b22be9a26971ae",
                "erc": "ERC-20",
                "slots": [
                    {
                        "current": "0x000000000000000000000000000000000000000000000034957444b840e80000",
                        "key": "0x27ebf217d293f22b7ba725f3b12b1f47404b5ed944b4db83159d420f1ad61d89",
                        "prev": "0x0000000000000000000000000000000000000000000000000000000000000000"
                    },
                    {
                        "current": "0x00000000000000000000000000000000000000000006ccbeffe278f3b4c40000",
                        "key": "0x43ff031ea19e53b0340a61a1137f2c3365b46c58d1d0e07eb62c3e4685208035",
                        "prev": "0x00000000000000000000000000000000000000000006ccf39556bdabf5ac0000"
                    }
                ],
                "storageVariables": [
                    {
                        "name": "balances",
                        "type": "mapping(address => uint256)",
                        "value": {
                            "pairs": [
                                {
                                    "key": "0x6f43c64e7855ac78e0d98704ee0907c82f963745",
                                    "value": {
                                        "current": "8220441000000000000000000",
                                        "prev": "8221411000000000000000000",
                                        "typeTag": 1
                                    }
                                },
                                {
                                    "key": "0xb287d4604b7fb4f0bfff40491c0f7905e2d1f8fb",
                                    "value": {
                                        "current": "970000000000000000000",
                                        "prev": "0",
                                        "typeTag": 1
                                    }
                                }
                            ],
                            "typeTag": 4
                        }
                    }
                ]
            }
        ]
    }
}