{
    "balance_change": {
        "balanceChanges": [
            {
                "account": "0x9e334837fc1be41ac0b3dbc9c9937436ea1ebdef",
                "assets": [
                    {
                        "address": "0x48bd67ad140c9d10f94099c1cef7ab17d90ac335",
                        "amount": "300",
                        "iconUrl": "",
                        "isERC1155": false,
                        "isERC721": false,
                        "sign": false,
                        "value": ""
                    }
                ]
            },
            {
                "account": "0x877bf18427cc9391455a239d0dc2045ca4ca3cad",
                "assets": [
                    {
                        "address": "0x48bd67ad140c9d10f94099c1cef7ab17d90ac335",
                        "amount": "300",
                        "iconUrl": "",
                        "isERC1155": false,
                        "isERC721": false,
                        "sign": true,
                        "value": ""
                    }
                ]
            }
        ]
    },
    "profile": {
        "basic_info": {
            "baseFee": "",
            "blockNumber": 5822160,
            "callData": "0xa9059cbb000000000000000000000000877bf18427cc9391455a239d0dc2045ca4ca3cad00000000000000000000000000000000000000000000001043561a8829300000",
            "debugEnable": true,
            "errorInfo": "",
            "eventCount": 1,
            "feeRecipient": "0x52bc44d5378309ee2abf1539bf71de1b7d7be3b5",
            "formatValue": "0",
            "gasLimit": 100000,
            "gasPrice": "3",
            "gasUsed": 22589,
            "intTxnCount": 0,
            "internalRevert": false,
            "internalRevertMessage": "",
            "isContractCreation": false,
            "isFlashloan": false,
            "maxFee": "",
            "nonce": 1,
            "overwritedBlockNumber": -1,
            "priorityFee": "",
            "receiver": "0x48bd67ad140c9d10f94099c1cef7ab17d90ac335",
            "revertMessage": "",
            "sender": "0x9e334837fc1be41ac0b3dbc9c9937436ea1ebdef",
            "simulationEnable": true,
            "sourceTxnHash": "0x5d13e329ed5e916656e21e70fad37ccd9b005999ea73b1a2f1f8077c397962b0",
            "status": true,
            "timestamp": "2018-06-20T11:01:38Z",
            "transactionFee": "0.000067767",
            "txnHash": "0x5d13e329ed5e916656e21e70fad37ccd9b005999ea73b1a2f1f8077c397962b0",
            "txnIndex": 120,
            "type": 0,
            "value": "0"
        },
        "fund_flow": [
            {
                "amount": "300",
                "from": "0x9e334837fc1be41ac0b3dbc9c9937436ea1ebdef",
                "id": 1,
                "isERC1155": false,
                "isERC721": false,
                "isReverted": false,
                "order": 1,
                "to": "0x877bf18427cc9391455a239d0dc2045ca4ca3cad",
                "token": "0x48bd67ad140c9d10f94099c1cef7ab17d90ac335"
            }
        ],
        "token_infos": [
            {
                "address": "0xeeeeeeeeeeeeeeeeeeeeeeeeeeeeeeeeeeeeeeee",
                "decimals": 18
            },
            {
                "address": "0x48bd67ad140c9d10f94099c1cef7ab17d90ac335",
                "decimals": 18
            },
            {
                "address": "0xc02aaa39b223fe8d0a0e5c4f27ead9083c756cc2",
                "decimals": 18
            }
        ]
    },
    "address_label": {
        "labels": [
            {
                "address": "0x0000000000000000000000000000000000000001",
                "label": "Precompiled"
            },
            {
                "address": "0x0000000000000000000000000000000000000002",
                "label": "Precompiled"
            },
            {
                "address": "0x0000000000000000000000000000000000000003",
                "label": "Precompiled"
            },
            {
                "address": "0x0000000000000000000000000000000000000004",
                "label": "Precompiled"
            },
            {
                "address": "0xeeeeeeeeeeeeeeeeeeeeeeeeeeeeeeeeeeeeeeee",
                "label": "Ether"
            },
            {
                "address": "0x48bd67ad140c9d10f94099c1cef7ab17d90ac335",
                "label": "Leber Network (LBN)"
            }
        ]
    },
    "trace": {
        "accountLabels": null,
        "dataMap": {
            "-1": {
                "invocation": {
                    "address": "0x9e334837fc1be41ac0b3dbc9c9937436ea1ebdef",
                    "callData": "",
                    "decodedMethod": null,
                    "errorInfo": "",
                    "fromAddress": "",
                    "gasUsed": 0,
                    "id": -1,
                    "methodDecoded": false,
                    "operation": "",
                    "output": "",
                    "revert": false,
                    "revertMessage": "",
                    "selector": "",
                    "status": false,
                    "value": ""
                },
                "nodeType": 0
            },
            "0": {
                "invocation": {
                    "address": "0x48bd67ad140c9d10f94099c1cef7ab17d90ac335",
                    "callData": "0x000000000000000000000000877bf18427cc9391455a239d0dc2045ca4ca3cad00000000000000000000000000000000000000000000001043561a8829300000",
                    "decodedMethod": {
                        "callParams": [
                            {
                                "name": "_to",
                                "type": "address",
                                "value": "0x877bf18427cc9391455a239d0dc2045ca4ca3cad"
                            },
                            {
                                "decimalAvailable": true,
                                "name": "_value",
                                "type": "uint256",
                                "value": "300,000,000,000,000,000,000"
                            }
                        ],
                        "constructorArguments": "",
                        "name": "transfer",
                        "returnParams": [],
                        "signature": "transfer(address,uint256)"
                    },
                    "errorInfo": "",
                    "fromAddress": "0x9e334837fc1be41ac0b3dbc9c9937436ea1ebdef",
                    "gasUsed": 22589,
                    "id": 0,
                    "methodDecoded": true,
                    "operation": "CALL",
                    "output": "",
                    "revert": false,
                    "revertMessage": "",
                    "selector": "0xa9059cbb",
                    "status": true,
                    "value": "0"
                },
                "nodeType": 0
            },
            "1": {
                "event": {
                    "contract": "0x48bd67ad140c9d10f94099c1cef7ab17d90ac335",
                    "decodedLog": {
                        "name": "Transfer",
                        "params": [
                            {
                                "name": "from",
                                "type": "address",
                                "value": "0x9e334837fc1be41ac0b3dbc9c9937436ea1ebdef"
                            },
                            {
                                "name": "to",
                                "type": "address",
                                "value": "0x877bf18427cc9391455a239d0dc2045ca4ca3cad"
                            },
                            {
                                "decimalAvailable": true,
                                "name": "value",
                                "type": "uint256",
                                "value": "300,000,000,000,000,000,000"
                            }
                        ],
                        "signature": "Transfer(address,address,uint256)"
                    },
                    "id": 1,
                    "logData": "0x00000000000000000000000000000000000000000000001043561a8829300000",
                    "logDecoded": true,
                    "operation": "EVENT",
                    "revert": false,
                    "status": true,
                    "topics": [
                        "0xddf252ad1be2c89b69c2b068fc378daa952ba7f163c4a11628f55a4df523b3ef",
                        "0x0000000000000000000000009e334837fc1be41ac0b3dbc9c9937436ea1ebdef",
                        "0x000000000000000000000000877bf18427cc9391455a239d0dc2045ca4ca3cad"
                    ]
                },
                "nodeType": 1
            }
        },
        "gasFlame": [
            {
                "children": [
                    {
                        "children": [
                            {
                                "children": [],
                                "depth": 0,
                                "name": "Initial Gas",
                                "value": 23256
                            },
                            {
                                "children": [],
                                "depth": 0,
                                "name": "Executed Gas",
                                "value": 14333
                            }
                        ],
                        "depth": -1,
                        "name": "Actual Gas Used",
                        "value": 22589
                    },
                    {
                        "children": [],
                        "depth": -1,
                        "name": "Refunded Gas",
                        "value": 15000
                    }
                ],
                "depth": -2,
                "name": "Total Gas",
                "value": 37589
            }
        ],
        "isConfirmed": true,
        "mainTrace": [
            {
                "children": [
                    {
                        "children": [
                            {
                                "children": [],
                                "depth": 1,
                                "id": 1,
                                "order": 1
                            }
                        ],
                        "depth": 0,
                        "id": 0,
                        "order": 0
                    }
                ],
                "depth": -1,
                "id": -1,
                "order": -1
            }
        ],
        "mainTraceNodeCount": 2,
        "parentIdMap": {
            "0": -1,
            "1": 0
        },
        "tidyTrace": [
            {
                "children": [
                    {
                        "children": [
                            {
                                "children": [],
                                "depth": 1,
                                "id": 1,
                                "order": 1
                            }
                        ],
                        "depth": 0,
                        "id": 0,
                        "order": 0
                    }
                ],
                "depth": -1,
                "id": -1,
                "order": -1
            }
        ],
        "tidyTraceNodeCount": 2
    },
    "state_change": {
        "stateChanges": [
            {
                "address": "0x48bd67ad140c9d10f94099c1cef7ab17d90ac335",
                "erc": "",
                "slots": [
                    {
                        "current": "0x0000000000000000000000000000000000000000000000000000000000000000",
                        "key": "0x6e4f646717a03f722da36854956e7895b832147d387bb1e3ec507ebb25d63518",
                        "prev": "0x00000000000000000000000000000000000000000000001043561a8829300000"
                    },
                    {
                        "current": "0x000000000000000000000000000000000000000000001ff44e2e2188ed500000",
                        "key": "0x692cb8eb692bf18645157d136addac3beb0cfb4822ac67f600dd7c14ace155c0",
                        "prev": "0x000000000000000000000000000000000000000000001fe40ad80700c4200000"
                    }
                ],
                "storageVariables": [
                    {
                        "name": "balanceOf",
                        "type": "mapping(address => uint256)",
                        "value": {
                            "pairs": [
                                {
                                    "key": "0x877bf18427cc9391455a239d0dc2045ca4ca3cad",
                                    "value": {
                                        "current": "150900000000000000000000",
                                        "prev": "150600000000000000000000",
                                        "typeTag": 1
                                    }
                                },
                                {
                                    "key": "0x9e334837fc1be41ac0b3dbc9c9937436ea1ebdef",
                                    "value": {
                                        "current": "0",
                                        "prev": "300000000000000000000",
                                        "typeTag": 1
                                    }
                                }
                            ],
                            "typeTag": 4
                        }
                    }
                ]
            }
        ]
    }
}