{
    "balance_change": {
        "balanceChanges": [
            {
                "account": "0xf0d37542f160fa76000f822d5f80b274a644e344",
                "assets": [
                    {
                        "address": "0x4540fcf016bcb67290c3e14238702c64e6a51600",
                        "amount": "717",
                        "iconUrl": "",
                        "isERC1155": false,
                        "isERC721": false,
                        "sign": false,
                        "value": ""
                    }
                ]
            },
            {
                "account": "0x18861bcb91968dc31f413cced885ee20accd32bf",
                "assets": [
                    {
                        "address": "0x4540fcf016bcb67290c3e14238702c64e6a51600",
                        "amount": "717",
                        "iconUrl": "",
                        "isERC1155": false,
                        "isERC721": false,
                        "sign": true,
                        "value": ""
                    }
                ]
            }
        ]
    },
    "profile": {
        "basic_info": {
            "baseFee": "",
            "blockNumber": 5359010,
            "callData": "0xa9059cbb00000000000000000000000018861bcb91968dc31f413cced885ee20accd32bf000000000000000000000000000000000000000000000026de5fb52bd3140000",
            "debugEnable": true,
            "errorInfo": "",
            "eventCount": 1,
            "feeRecipient": "0x2ea1e928e4af14910e141896ece96c812094e3f9",
            "formatValue": "0",
            "gasLimit": 70000,
            "gasPrice": "1",
            "gasUsed": 52439,
            "intTxnCount": 0,
            "internalRevert": false,
            "internalRevertMessage": "",
            "isContractCreation": false,
            "isFlashloan": false,
            "maxFee": "",
            "nonce": 210,
            "overwritedBlockNumber": -1,
            "priorityFee": "",
            "receiver": "0x4540fcf016bcb67290c3e14238702c64e6a51600",
            "revertMessage": "",
            "sender": "0xf0d37542f160fa76000f822d5f80b274a644e344",
            "simulationEnable": true,
            "sourceTxnHash": "0x5d290f728e36165592531816a5e74a922b2d47a90e8ffbf98c158d103751d995",
            "status": true,
            "timestamp": "2018-04-01T04:46:02Z",
            "transactionFee": "0.000052439",
            "txnHash": "0x5d290f728e36165592531816a5e74a922b2d47a90e8ffbf98c158d103751d995",
            "txnIndex": 97,
            "type": 0,
            "value": "0"
        },
        "fund_flow": [
            {
                "amount": "717",
                "from": "0xf0d37542f160fa76000f822d5f80b274a644e344",
                "id": 1,
                "isERC1155": false,
                "isERC721": false,
                "isReverted": false,
                "order": 1,
                "to": "0x18861bcb91968dc31f413cced885ee20accd32bf",
                "token": "0x4540fcf016bcb67290c3e14238702c64e6a51600"
            }
        ],
        "token_infos": [
            {
                "address": "0xeeeeeeeeeeeeeeeeeeeeeeeeeeeeeeeeeeeeeeee",
                "decimals": 18
            },
            {
                "address": "0x4540fcf016bcb67290c3e14238702c64e6a51600",
                "decimals": 18
            },
            {
                "address": "0xc02aaa39b223fe8d0a0e5c4f27ead9083c756cc2",
                "decimals": 18
            }
        ]
    },
    "address_label": {
        "labels": [
            {
                "address": "0xeeeeeeeeeeeeeeeeeeeeeeeeeeeeeeeeeeeeeeee",
                "label": "Ether"
            },
            {
                "address": "0x4540fcf016bcb67290c3e14238702c64e6a51600",
                "label": "MoatToken"
            },
            {
                "address": "0x0000000000000000000000000000000000000001",
                "label": "Precompiled"
            },
            {
                "address": "0x0000000000000000000000000000000000000002",
                "label": "Precompiled"
            },
            {
                "address": "0x0000000000000000000000000000000000000003",
                "label": "Precompiled"
            },
            {
                "address": "0x0000000000000000000000000000000000000004",
                "label": "Precompiled"
            }
        ]
    },
    "trace": {
        "accountLabels": null,
        "dataMap": {
            "-1": {
                "invocation": {
                    "address": "0xf0d37542f160fa76000f822d5f80b274a644e344",
                    "callData": "",
                    "decodedMethod": null,
                    "errorInfo": "",
                    "fromAddress": "",
                    "gasUsed": 0,
                    "id": -1,
                    "methodDecoded": false,
                    "operation": "",
                    "output": "",
                    "revert": false,
                    "revertMessage": "",
                    "selector": "",
                    "status": false,
                    "value": ""
                },
                "nodeType": 0
            },
            "0": {
                "invocation": {
                    "address": "0x4540fcf016bcb67290c3e14238702c64e6a51600",
                    "callData": "0x00000000000000000000000018861bcb91968dc31f413cced885ee20accd32bf000000000000000000000000000000000000000000000026de5fb52bd3140000",
                    "decodedMethod": {
                        "callParams": [
                            {
                                "name": "recipient",
                                "type": "address",
                                "value": "0x18861bcb91968dc31f413cced885ee20accd32bf"
                            },
                            {
                                "decimalAvailable": true,
                                "name": "amount",
                                "type": "uint256",
                                "value": "717,000,000,000,000,000,000"
                            }
                        ],
                        "constructorArguments": "",
                        "name": "transfer",
                        "returnParams": [
                            {
                                "name": "",
                                "type": "bool",
                                "value": true
                            }
                        ],
                        "signature": "transfer(address,uint256)"
                    },
                    "errorInfo": "",
                    "fromAddress": "0xf0d37542f160fa76000f822d5f80b274a644e344",
                    "gasUsed": 52439,
                    "id": 0,
                    "methodDecoded": true,
                    "operation": "CALL",
                    "output": "0x0000000000000000000000000000000000000000000000000000000000000001",
                    "revert": false,
                    "revertMessage": "",
                    "selector": "0xa9059cbb",
                    "status": true,
                    "value": "0"
                },
                "nodeType": 0
            },
            "1": {
                "event": {
                    "contract": "0x4540fcf016bcb67290c3e14238702c64e6a51600",
                    "decodedLog": {
                        "name": "Transfer",
                        "params": [
                            {
                                "name": "from",
                                "type": "address",
                                "value": "0xf0d37542f160fa76000f822d5f80b274a644e344"
                            },
                            {
                                "name": "to",
                                "type": "address",
                                "value": "0x18861bcb91968dc31f413cced885ee20accd32bf"
                            },
                            {
                                "decimalAvailable": true,
                                "name": "value",
                                "type": "uint256",
                                "value": "717,000,000,000,000,000,000"
                            }
                        ],
                        "signature": "Transfer(address,address,uint256)"
                    },
                    "id": 1,
                    "logData": "0x000000000000000000000000000000000000000000000026de5fb52bd3140000",
                    "logDecoded": true,
                    "operation": "EVENT",
                    "revert": false,
                    "status": true,
                    "topics": [
                        "0xddf252ad1be2c89b69c2b068fc378daa952ba7f163c4a11628f55a4df523b3ef",
                        "0x000000000000000000000000f0d37542f160fa76000f822d5f80b274a644e344",
                        "0x00000000000000000000000018861bcb91968dc31f413cced885ee20accd32bf"
                    ]
                },
                "nodeType": 1
            }
        },
        "gasFlame": [
            {
                "children": [
                    {
                        "children": [
                            {
                                "children": [],
                                "depth": 0,
                                "name": "Initial Gas",
                                "value": 23256
                            },
                            {
                                "children": [],
                                "depth": 0,
                                "name": "Executed Gas",
                                "value": 29183
                            }
                        ],
                        "depth": -1,
                        "name": "Actual Gas Used",
                        "value": 52439
                    },
                    {
                        "children": [],
                        "depth": -1,
                        "name": "Refunded Gas",
                        "value": 0
                    }
                ],
                "depth": -2,
                "name": "Total Gas",
                "value": 52439
            }
        ],
        "isConfirmed": true,
        "mainTrace": [
            {
                "children": [
                    {
                        "children": [
                            {
                                "children": [],
                                "depth": 1,
                                "id": 1,
                                "order": 1
                            }
                        ],
                        "depth": 0,
                        "id": 0,
                        "order": 0
                    }
                ],
                "depth": -1,
                "id": -1,
                "order": -1
            }
        ],
        "mainTraceNodeCount": 2,
        "parentIdMap": {
            "0": -1,
            "1": 0
        },
        "tidyTrace": [
            {
                "children": [
                    {
                        "children": [
                            {
                                "children": [],
                                "depth": 1,
                                "id": 1,
                                "order": 1
                            }
                        ],
                        "depth": 0,
                        "id": 0,
                        "order": 0
                    }
                ],
                "depth": -1,
                "id": -1,
                "order": -1
            }
        ],
        "tidyTraceNodeCount": 2
    },
    "state_change": {
        "stateChanges": [
            {
                "address": "0x4540fcf016bcb67290c3e14238702c64e6a51600",
                "erc": "",
                "slots": [
                    {
                        "current": "0x000000000000000000000000000000000000000000000026de5fb52bd3140000",
                        "key": "0xd901472583bbaacd13ea54c4ecbbda1f67720861f606e360b9b195505f56bcff",
                        "prev": "0x0000000000000000000000000000000000000000000000000000000000000000"
                    },
                    {
                        "current": "0x000000000000000000000000000000000000000000000055ec4b2e4f62240000",
                        "key": "0xf89d71ff6c5140fb41e103516c03f109a4d053abfc11f566036c4b3912fe88f8",
                        "prev": "0x00000000000000000000000000000000000000000000007ccaaae37b35380000"
                    }
                ],
                "storageVariables": []
            }
        ]
    }
}