{
    "balance_change": {
        "balanceChanges": [
            {
                "account": "0x1c3d2d14cb40ee63ba3c56128946a1bac98344c5",
                "assets": [
                    {
                        "address": "0x21ab6c9fac80c59d401b37cb43f81ea9dde7fe34",
                        "amount": "226",
                        "iconUrl": "",
                        "isERC1155": false,
                        "isERC721": false,
                        "sign": false,
                        "value": ""
                    }
                ]
            },
            {
                "account": "0x0ab92b3819fc3774bffaa42c0b8b5315fdd76afc",
                "assets": [
                    {
                        "address": "0x21ab6c9fac80c59d401b37cb43f81ea9dde7fe34",
                        "amount": "226",
                        "iconUrl": "",
                        "isERC1155": false,
                        "isERC721": false,
                        "sign": true,
                        "value": ""
                    }
                ]
            }
        ]
    },
    "profile": {
        "basic_info": {
            "baseFee": "",
            "blockNumber": 7392814,
            "callData": "0xa9059cbb0000000000000000000000000ab92b3819fc3774bffaa42c0b8b5315fdd76afc000000000000000000000000000000000000000000000000000000054310a200",
            "debugEnable": true,
            "errorInfo": "",
            "eventCount": 1,
            "feeRecipient": "0xede16675c4aea9b5b92ce1a3750992880d83bb12",
            "formatValue": "0",
            "gasLimit": 55000,
            "gasPrice": "20",
            "gasUsed": 37000,
            "intTxnCount": 0,
            "internalRevert": false,
            "internalRevertMessage": "",
            "isContractCreation": false,
            "isFlashloan": false,
            "maxFee": "",
            "nonce": 209523,
            "overwritedBlockNumber": -1,
            "priorityFee": "",
            "receiver": "0x21ab6c9fac80c59d401b37cb43f81ea9dde7fe34",
            "revertMessage": "",
            "sender": "0x1c3d2d14cb40ee63ba3c56128946a1bac98344c5",
            "simulationEnable": true,
            "sourceTxnHash": "0x5d8c9165d6d6c5c1263d729fde38c6247b4ef40c2c7746e83525b07937565fc9",
            "status": true,
            "timestamp": "2019-03-18T12:12:53Z",
            "transactionFee": "0.00074",
            "txnHash": "0x5d8c9165d6d6c5c1263d729fde38c6247b4ef40c2c7746e83525b07937565fc9",
            "txnIndex": 6,
            "type": 0,
            "value": "0"
        },
        "fund_flow": [
            {
                "amount": "226",
                "from": "0x1c3d2d14cb40ee63ba3c56128946a1bac98344c5",
                "id": 1,
                "isERC1155": false,
                "isERC721": false,
                "isReverted": false,
                "order": 1,
                "to": "0x0ab92b3819fc3774bffaa42c0b8b5315fdd76afc",
                "token": "0x21ab6c9fac80c59d401b37cb43f81ea9dde7fe34"
            }
        ],
        "token_infos": [
            {
                "address": "0x21ab6c9fac80c59d401b37cb43f81ea9dde7fe34",
                "decimals": 8
            },
            {
                "address": "0xc02aaa39b223fe8d0a0e5c4f27ead9083c756cc2",
                "decimals": 18
            },
            {
                "address": "0xeeeeeeeeeeeeeeeeeeeeeeeeeeeeeeeeeeeeeeee",
                "decimals": 18
            }
        ]
    },
    "address_label": {
        "labels": [
            {
                "address": "0x0000000000000000000000000000000000000001",
                "label": "Precompiled"
            },
            {
                "address": "0x0000000000000000000000000000000000000002",
                "label": "Precompiled"
            },
            {
                "address": "0x0000000000000000000000000000000000000003",
                "label": "Precompiled"
            },
            {
                "address": "0x0000000000000000000000000000000000000004",
                "label": "Precompiled"
            },
            {
                "address": "0xeeeeeeeeeeeeeeeeeeeeeeeeeeeeeeeeeeeeeeee",
                "label": "Ether"
            },
            {
                "address": "0x21ab6c9fac80c59d401b37cb43f81ea9dde7fe34",
                "label": "Baer Chain: BRC Token"
            }
        ]
    },
    "trace": {
        "accountLabels": null,
        "dataMap": {
            "-1": {
                "invocation": {
                    "address": "0x1c3d2d14cb40ee63ba3c56128946a1bac98344c5",
                    "callData": "",
                    "decodedMethod": null,
                    "errorInfo": "",
                    "fromAddress": "",
                    "gasUsed": 0,
                    "id": -1,
                    "methodDecoded": false,
                    "operation": "",
                    "output": "",
                    "revert": false,
                    "revertMessage": "",
                    "selector": "",
                    "status": false,
                    "value": ""
                },
                "nodeType": 0
            },
            "0": {
                "invocation": {
                    "address": "0x21ab6c9fac80c59d401b37cb43f81ea9dde7fe34",
                    "callData": "0x0000000000000000000000000ab92b3819fc3774bffaa42c0b8b5315fdd76afc000000000000000000000000000000000000000000000000000000054310a200",
                    "decodedMethod": {
                        "callParams": [
                            {
                                "name": "_to",
                                "type": "address",
                                "value": "0x0ab92b3819fc3774bffaa42c0b8b5315fdd76afc"
                            },
                            {
                                "decimalAvailable": true,
                                "name": "_amount",
                                "type": "uint256",
                                "value": "22,600,000,000"
                            }
                        ],
                        "constructorArguments": "",
                        "name": "transfer",
                        "returnParams": [
                            {
                                "name": "success",
                                "type": "bool",
                                "value": true
                            }
                        ],
                        "signature": "transfer(address,uint256)"
                    },
                    "errorInfo": "",
                    "fromAddress": "0x1c3d2d14cb40ee63ba3c56128946a1bac98344c5",
                    "gasUsed": 37000,
                    "id": 0,
                    "methodDecoded": true,
                    "operation": "CALL",
                    "output": "0x0000000000000000000000000000000000000000000000000000000000000001",
                    "revert": false,
                    "revertMessage": "",
                    "selector": "0xa9059cbb",
                    "status": true,
                    "value": "0"
                },
                "nodeType": 0
            },
            "1": {
                "event": {
                    "contract": "0x21ab6c9fac80c59d401b37cb43f81ea9dde7fe34",
                    "decodedLog": {
                        "name": "Transfer",
                        "params": [
                            {
                                "name": "_from",
                                "type": "address",
                                "value": "0x1c3d2d14cb40ee63ba3c56128946a1bac98344c5"
                            },
                            {
                                "name": "_to",
                                "type": "address",
                                "value": "0x0ab92b3819fc3774bffaa42c0b8b5315fdd76afc"
                            },
                            {
                                "decimalAvailable": true,
                                "name": "_value",
                                "type": "uint256",
                                "value": "22,600,000,000"
                            }
                        ],
                        "signature": "Transfer(address,address,uint256)"
                    },
                    "id": 1,
                    "logData": "0x000000000000000000000000000000000000000000000000000000054310a200",
                    "logDecoded": true,
                    "operation": "EVENT",
                    "revert": false,
                    "status": true,
                    "topics": [
                        "0xddf252ad1be2c89b69c2b068fc378daa952ba7f163c4a11628f55a4df523b3ef",
                        "0x0000000000000000000000001c3d2d14cb40ee63ba3c56128946a1bac98344c5",
                        "0x0000000000000000000000000ab92b3819fc3774bffaa42c0b8b5315fdd76afc"
                    ]
                },
                "nodeType": 1
            }
        },
        "gasFlame": [
            {
                "children": [
                    {
                        "children": [
                            {
                                "children": [],
                                "depth": 0,
                                "name": "Initial Gas",
                                "value": 23064
                            },
                            {
                                "children": [],
                                "depth": 0,
                                "name": "Executed Gas",
                                "value": 13936
                            }
                        ],
                        "depth": -1,
                        "name": "Actual Gas Used",
                        "value": 37000
                    },
                    {
                        "children": [],
                        "depth": -1,
                        "name": "Refunded Gas",
                        "value": 0
                    }
                ],
                "depth": -2,
                "name": "Total Gas",
                "value": 37000
            }
        ],
        "isConfirmed": true,
        "mainTrace": [
            {
                "children": [
                    {
                        "children": [
                            {
                                "children": [],
                                "depth": 1,
                                "id": 1,
                                "order": 1
                            }
                        ],
                        "depth": 0,
                        "id": 0,
                        "order": 0
                    }
                ],
                "depth": -1,
                "id": -1,
                "order": -1
            }
        ],
        "mainTraceNodeCount": 2,
        "parentIdMap": {
            "0": -1,
            "1": 0
        },
        "tidyTrace": [
            {
                "children": [
                    {
                        "children": [
                            {
                                "children": [],
                                "depth": 1,
                                "id": 1,
                                "order": 1
                            }
                        ],
                        "depth": 0,
                        "id": 0,
                        "order": 0
                    }
                ],
                "depth": -1,
                "id": -1,
                "order": -1
            }
        ],
        "tidyTraceNodeCount": 2
    },
    "state_change": {
        "stateChanges": [
            {
                "address": "0x21ab6c9fac80c59d401b37cb43f81ea9dde7fe34",
                "erc": "ERC-20",
                "slots": [
                    {
                        "current": "0x0000000000000000000000000000000000000000000000000001e97c74b54d89",
                        "key": "0x366e59abbe2fdca99005b8b8347bb5dc0ea93d2b4820050ca1d2e7e0cbb33f5e",
                        "prev": "0x0000000000000000000000000000000000000000000000000001e981b7c5ef89"
                    },
                    {
                        "current": "0x0000000000000000000000000000000000000000000000000000000fc931e600",
                        "key": "0xdb837779adeca003668a560e91f278c27d6c7c06bd43d9cf2f241c96fedb47b7",
                        "prev": "0x0000000000000000000000000000000000000000000000000000000a86214400"
                    }
                ],
                "storageVariables": [
                    {
                        "name": "balances",
                        "type": "mapping(address => uint256)",
                        "value": {
                            "pairs": [
                                {
                                    "key": "0x0ab92b3819fc3774bffaa42c0b8b5315fdd76afc",
                                    "value": {
                                        "current": "67800000000",
                                        "prev": "45200000000",
                                        "typeTag": 1
                                    }
                                },
                                {
                                    "key": "0x1c3d2d14cb40ee63ba3c56128946a1bac98344c5",
                                    "value": {
                                        "current": "538195719966089",
                                        "prev": "538218319966089",
                                        "typeTag": 1
                                    }
                                }
                            ],
                            "typeTag": 4
                        }
                    }
                ]
            }
        ]
    }
}