{
    "balance_change": {
        "balanceChanges": [
            {
                "account": "0xd067cb7f9a32d61bbcc3ff65bf421617bc5d10b6",
                "assets": [
                    {
                        "address": "0xeeeeeeeeeeeeeeeeeeeeeeeeeeeeeeeeeeeeeeee",
                        "amount": "0.6223401541080571",
                        "iconUrl": "https://assets.blocksec.com/image/1663669189317-3.png",
                        "isERC1155": false,
                        "isERC721": false,
                        "sign": false,
                        "value": "1152.4432739608389773"
                    }
                ]
            },
            {
                "account": "0xae0ee0a63a2ce6baeeffe56e7714fb4efe48d419",
                "assets": [
                    {
                        "address": "0xeeeeeeeeeeeeeeeeeeeeeeeeeeeeeeeeeeeeeeee",
                        "amount": "0.6217",
                        "iconUrl": "https://assets.blocksec.com/image/1663669189317-3.png",
                        "isERC1155": false,
                        "isERC721": false,
                        "sign": true,
                        "value": "1151.2578429999999774"
                    }
                ]
            },
            {
                "account": "0xc662c410c0ecf747543f5ba90660f6abebd9c8c4",
                "assets": [
                    {
                        "address": "0xeeeeeeeeeeeeeeeeeeeeeeeeeeeeeeeeeeeeeeee",
                        "amount": "0.0006401541080571",
                        "iconUrl": "https://assets.blocksec.com/image/1663669189317-3.png",
                        "isERC1155": false,
                        "isERC721": false,
                        "sign": true,
                        "value": "1.1854309758384989767"
                    }
                ]
            }
        ]
    },
    "profile": {
        "basic_info": {
            "baseFee": "21.389028899",
            "blockNumber": 17767366,
            "callData": "0xe2bbb15800000000000000000000000000000000000000000000000008a0b8db28dc40000485e18ef2202982fa6a79938de6e5b000a1244fc44593371714adb4d6e1fa12",
            "debugEnable": true,
            "errorInfo": "",
            "eventCount": 2,
            "feeRecipient": "0xea0ae7d36fc01ada329a40dc6e9eb438962f86ff",
            "formatValue": "0.6223401541080571",
            "gasLimit": 175845,
            "gasPrice": "21.47051044",
            "gasUsed": 115855,
            "intTxnCount": 3,
            "internalRevert": false,
            "internalRevertMessage": "",
            "isContractCreation": false,
            "isFlashloan": false,
            "maxFee": "21.567003385",
            "nonce": 3,
            "overwritedBlockNumber": -1,
            "priorityFee": "0.081481541",
            "receiver": "0xae0ee0a63a2ce6baeeffe56e7714fb4efe48d419",
            "revertMessage": "",
            "sender": "0xd067cb7f9a32d61bbcc3ff65bf421617bc5d10b6",
            "simulationEnable": true,
            "sourceTxnHash": "0x5d4b64b5d4ea1622ebfabb8ed33fb7588b6b8007aadb25eacbee3256c9b67288",
            "status": true,
            "timestamp": "2023-07-25T03:14:47Z",
            "transactionFee": "0.0024874659870262",
            "txnHash": "0x5d4b64b5d4ea1622ebfabb8ed33fb7588b6b8007aadb25eacbee3256c9b67288",
            "txnIndex": 134,
            "type": 2,
            "value": "622340154108057100"
        },
        "fund_flow": [
            {
                "amount": "0.6223401541080571",
                "from": "0xd067cb7f9a32d61bbcc3ff65bf421617bc5d10b6",
                "id": 1,
                "isERC1155": false,
                "isERC721": false,
                "isReverted": false,
                "order": 1,
                "to": "0xae0ee0a63a2ce6baeeffe56e7714fb4efe48d419",
                "token": "0xeeeeeeeeeeeeeeeeeeeeeeeeeeeeeeeeeeeeeeee"
            },
            {
                "amount": "0.0006401541080571",
                "from": "0xae0ee0a63a2ce6baeeffe56e7714fb4efe48d419",
                "id": 2,
                "isERC1155": false,
                "isERC721": false,
                "isReverted": false,
                "order": 2,
                "to": "0xc662c410c0ecf747543f5ba90660f6abebd9c8c4",
                "token": "0xeeeeeeeeeeeeeeeeeeeeeeeeeeeeeeeeeeeeeeee"
            }
        ],
        "token_infos": [
            {
                "address": "0xc02aaa39b223fe8d0a0e5c4f27ead9083c756cc2",
                "decimals": 18
            },
            {
                "address": "0xeeeeeeeeeeeeeeeeeeeeeeeeeeeeeeeeeeeeeeee",
                "decimals": 18
            }
        ]
    },
    "address_label": {
        "labels": [
            {
                "address": "0x0000000000000000000000000000000000000003",
                "label": "Precompiled"
            },
            {
                "address": "0xeeeeeeeeeeeeeeeeeeeeeeeeeeeeeeeeeeeeeeee",
                "label": "Ether"
            },
            {
                "address": "0xae0ee0a63a2ce6baeeffe56e7714fb4efe48d419",
                "label": "StarkNet: StarkGate ETH Bridge"
            },
            {
                "address": "0x0000000000000000000000000000000000000002",
                "label": "Precompiled"
            },
            {
                "address": "0x0000000000000000000000000000000000000001",
                "label": "Precompiled"
            },
            {
                "address": "0x0000000000000000000000000000000000000004",
                "label": "Precompiled"
            },
            {
                "address": "0xc662c410c0ecf747543f5ba90660f6abebd9c8c4",
                "label": "Starknet: Core Contract"
            },
            {
                "address": "0x16938e4b59297060484fa56a12594d8d6f4177e8",
                "label": "Starknet"
            },
            {
                "address": "0x455603ad9ae671f6c1f0f746f24d7904ca603581",
                "label": "StarknetEthBridge"
            }
        ]
    },
    "trace": {
        "accountLabels": null,
        "dataMap": {
            "-1": {
                "invocation": {
                    "address": "0xd067cb7f9a32d61bbcc3ff65bf421617bc5d10b6",
                    "callData": "",
                    "decodedMethod": null,
                    "errorInfo": "",
                    "fromAddress": "",
                    "gasUsed": 0,
                    "id": -1,
                    "methodDecoded": false,
                    "operation": "",
                    "output": "",
                    "revert": false,
                    "revertMessage": "",
                    "selector": "",
                    "status": false,
                    "value": ""
                },
                "nodeType": 0
            },
            "0": {
                "invocation": {
                    "address": "0xae0ee0a63a2ce6baeeffe56e7714fb4efe48d419",
                    "callData": "0x00000000000000000000000000000000000000000000000008a0b8db28dc40000485e18ef2202982fa6a79938de6e5b000a1244fc44593371714adb4d6e1fa12",
                    "decodedMethod": {
                        "callParams": [
                            {
                                "name": "amount",
                                "type": "uint256",
                                "value": "621,700,000,000,000,000"
                            },
                            {
                                "name": "l2Recipient",
                                "type": "uint256",
                                "value": "2,045,798,800,687,850,608,443,528,352,795,277,857,831,240,929,195,122,110,207,656,887,713,462,876,690"
                            }
                        ],
                        "constructorArguments": "",
                        "name": "deposit",
                        "returnParams": [],
                        "signature": "deposit(uint256,uint256)"
                    },
                    "errorInfo": "",
                    "fromAddress": "0xd067cb7f9a32d61bbcc3ff65bf421617bc5d10b6",
                    "gasUsed": 115855,
                    "id": 0,
                    "methodDecoded": true,
                    "operation": "CALL",
                    "output": "",
                    "revert": false,
                    "revertMessage": "",
                    "selector": "0xe2bbb158",
                    "status": true,
                    "value": "0.6223401541080571"
                },
                "nodeType": 0
            },
            "1": {
                "invocation": {
                    "address": "0x455603ad9ae671f6c1f0f746f24d7904ca603581",
                    "callData": "0x00000000000000000000000000000000000000000000000008a0b8db28dc40000485e18ef2202982fa6a79938de6e5b000a1244fc44593371714adb4d6e1fa12",
                    "decodedMethod": {
                        "callParams": [
                            {
                                "name": "amount",
                                "type": "uint256",
                                "value": "621,700,000,000,000,000"
                            },
                            {
                                "name": "l2Recipient",
                                "type": "uint256",
                                "value": "2,045,798,800,687,850,608,443,528,352,795,277,857,831,240,929,195,122,110,207,656,887,713,462,876,690"
                            }
                        ],
                        "constructorArguments": "",
                        "name": "deposit",
                        "returnParams": [],
                        "signature": "deposit(uint256,uint256)"
                    },
                    "errorInfo": "",
                    "fromAddress": "0xae0ee0a63a2ce6baeeffe56e7714fb4efe48d419",
                    "gasUsed": 89037,
                    "id": 1,
                    "methodDecoded": true,
                    "operation": "DELEGATECALL",
                    "output": "",
                    "revert": false,
                    "revertMessage": "",
                    "selector": "0xe2bbb158",
                    "status": true,
                    "value": "0.6223401541080571"
                },
                "nodeType": 0
            },
            "2": {
                "invocation": {
                    "address": "0xc662c410c0ecf747543f5ba90660f6abebd9c8c4",
                    "callData": "0x073314940630fd6dcda0d772d4c972c4e0a9946bef9dabf4ef84eda8ef542b8202d757788a8d8d6f21d1cd40bce38a8222d70654214e96ff95d8086e684fbee5000000000000000000000000000000000000000000000000000000000000006000000000000000000000000000000000000000000000000000000000000000030485e18ef2202982fa6a79938de6e5b000a1244fc44593371714adb4d6e1fa1200000000000000000000000000000000000000000000000008a0b8db28dc40000000000000000000000000000000000000000000000000000000000000000000",
                    "decodedMethod": {
                        "callParams": [
                            {
                                "name": "toAddress",
                                "type": "uint256",
                                "value": "3,256,441,166,037,631,918,262,930,812,410,838,598,500,200,462,657,642,943,867,372,734,773,841,898,370"
                            },
                            {
                                "name": "selector",
                                "type": "uint256",
                                "value": "1,285,101,517,810,983,806,491,589,552,491,143,496,277,809,242,732,141,897,358,598,292,095,611,420,389"
                            },
                            {
                                "name": "payload",
                                "type": "uint256[]",
                                "value": [
                                    "2,045,798,800,687,850,608,443,528,352,795,277,857,831,240,929,195,122,110,207,656,887,713,462,876,690",
                                    "621,700,000,000,000,000",
                                    "0"
                                ]
                            }
                        ],
                        "constructorArguments": "",
                        "name": "sendMessageToL2",
                        "returnParams": [
                            {
                                "name": "",
                                "type": "bytes32",
                                "value": "0xcf971a02ed6d626b890ea219440577406da2053ca5f610d3c86c58c2984d913c"
                            },
                            {
                                "name": "",
                                "type": "uint256",
                                "value": "798,515"
                            }
                        ],
                        "signature": "sendMessageToL2(uint256,uint256,uint256[])"
                    },
                    "errorInfo": "",
                    "fromAddress": "0xae0ee0a63a2ce6baeeffe56e7714fb4efe48d419",
                    "gasUsed": 39012,
                    "id": 2,
                    "methodDecoded": true,
                    "operation": "CALL",
                    "output": "0xcf971a02ed6d626b890ea219440577406da2053ca5f610d3c86c58c2984d913c00000000000000000000000000000000000000000000000000000000000c2f33",
                    "revert": false,
                    "revertMessage": "",
                    "selector": "0x3e3aa6c5",
                    "status": true,
                    "value": "0.0006401541080571"
                },
                "nodeType": 0
            },
            "3": {
                "invocation": {
                    "address": "0x16938e4b59297060484fa56a12594d8d6f4177e8",
                    "callData": "0x073314940630fd6dcda0d772d4c972c4e0a9946bef9dabf4ef84eda8ef542b8202d757788a8d8d6f21d1cd40bce38a8222d70654214e96ff95d8086e684fbee5000000000000000000000000000000000000000000000000000000000000006000000000000000000000000000000000000000000000000000000000000000030485e18ef2202982fa6a79938de6e5b000a1244fc44593371714adb4d6e1fa1200000000000000000000000000000000000000000000000008a0b8db28dc40000000000000000000000000000000000000000000000000000000000000000000",
                    "decodedMethod": {
                        "callParams": [
                            {
                                "name": "toAddress",
                                "type": "uint256",
                                "value": "3,256,441,166,037,631,918,262,930,812,410,838,598,500,200,462,657,642,943,867,372,734,773,841,898,370"
                            },
                            {
                                "name": "selector",
                                "type": "uint256",
                                "value": "1,285,101,517,810,983,806,491,589,552,491,143,496,277,809,242,732,141,897,358,598,292,095,611,420,389"
                            },
                            {
                                "name": "payload",
                                "type": "uint256[]",
                                "value": [
                                    "2,045,798,800,687,850,608,443,528,352,795,277,857,831,240,929,195,122,110,207,656,887,713,462,876,690",
                                    "621,700,000,000,000,000",
                                    "0"
                                ]
                            }
                        ],
                        "constructorArguments": "",
                        "name": "sendMessageToL2",
                        "returnParams": [
                            {
                                "name": "",
                                "type": "bytes32",
                                "value": "0xcf971a02ed6d626b890ea219440577406da2053ca5f610d3c86c58c2984d913c"
                            },
                            {
                                "name": "",
                                "type": "uint256",
                                "value": "798,515"
                            }
                        ],
                        "signature": "sendMessageToL2(uint256,uint256,uint256[])"
                    },
                    "errorInfo": "",
                    "fromAddress": "0xc662c410c0ecf747543f5ba90660f6abebd9c8c4",
                    "gasUsed": 33954,
                    "id": 3,
                    "methodDecoded": true,
                    "operation": "DELEGATECALL",
                    "output": "0xcf971a02ed6d626b890ea219440577406da2053ca5f610d3c86c58c2984d913c00000000000000000000000000000000000000000000000000000000000c2f33",
                    "revert": false,
                    "revertMessage": "",
                    "selector": "0x3e3aa6c5",
                    "status": true,
                    "value": "0.0006401541080571"
                },
                "nodeType": 0
            },
            "4": {
                "event": {
                    "contract": "0xc662c410c0ecf747543f5ba90660f6abebd9c8c4",
                    "decodedLog": {
                        "name": "LogMessageToL2",
                        "params": [
                            {
                                "name": "fromAddress",
                                "type": "address",
                                "value": "0xae0ee0a63a2ce6baeeffe56e7714fb4efe48d419"
                            },
                            {
                                "name": "toAddress",
                                "type": "uint256",
                                "value": "3,256,441,166,037,631,918,262,930,812,410,838,598,500,200,462,657,642,943,867,372,734,773,841,898,370"
                            },
                            {
                                "name": "selector",
                                "type": "uint256",
                                "value": "1,285,101,517,810,983,806,491,589,552,491,143,496,277,809,242,732,141,897,358,598,292,095,611,420,389"
                            },
                            {
                                "name": "payload",
                                "type": "uint256[]",
                                "value": [
                                    "2,045,798,800,687,850,608,443,528,352,795,277,857,831,240,929,195,122,110,207,656,887,713,462,876,690",
                                    "621,700,000,000,000,000",
                                    "0"
                                ]
                            },
                            {
                                "name": "nonce",
                                "type": "uint256",
                                "value": "798,515"
                            },
                            {
                                "name": "fee",
                                "type": "uint256",
                                "value": "640,154,108,057,100"
                            }
                        ],
                        "signature": "LogMessageToL2(address,uint256,uint256,uint256[],uint256,uint256)"
                    },
                    "id": 4,
                    "logData": "0x000000000000000000000000000000000000000000000000000000000000006000000000000000000000000000000000000000000000000000000000000c2f33000000000000000000000000000000000000000000000000000246377e36560c00000000000000000000000000000000000000000000000000000000000000030485e18ef2202982fa6a79938de6e5b000a1244fc44593371714adb4d6e1fa1200000000000000000000000000000000000000000000000008a0b8db28dc40000000000000000000000000000000000000000000000000000000000000000000",
                    "logDecoded": true,
                    "operation": "EVENT",
                    "revert": false,
                    "status": true,
                    "topics": [
                        "0xdb80dd488acf86d17c747445b0eabb5d57c541d3bd7b6b87af987858e5066b2b",
                        "0x000000000000000000000000ae0ee0a63a2ce6baeeffe56e7714fb4efe48d419",
                        "0x073314940630fd6dcda0d772d4c972c4e0a9946bef9dabf4ef84eda8ef542b82",
                        "0x02d757788a8d8d6f21d1cd40bce38a8222d70654214e96ff95d8086e684fbee5"
                    ]
                },
                "nodeType": 1
            },
            "5": {
                "event": {
                    "contract": "0xae0ee0a63a2ce6baeeffe56e7714fb4efe48d419",
                    "decodedLog": {
                        "name": "LogDeposit",
                        "params": [
                            {
                                "name": "sender",
                                "type": "address",
                                "value": "0xd067cb7f9a32d61bbcc3ff65bf421617bc5d10b6"
                            },
                            {
                                "name": "l2Recipient",
                                "type": "uint256",
                                "value": "2,045,798,800,687,850,608,443,528,352,795,277,857,831,240,929,195,122,110,207,656,887,713,462,876,690"
                            },
                            {
                                "name": "amount",
                                "type": "uint256",
                                "value": "621,700,000,000,000,000"
                            },
                            {
                                "name": "nonce",
                                "type": "uint256",
                                "value": "798,515"
                            },
                            {
                                "name": "fee",
                                "type": "uint256",
                                "value": "640,154,108,057,100"
                            }
                        ],
                        "signature": "LogDeposit(address,uint256,uint256,uint256,uint256)"
                    },
                    "id": 5,
                    "logData": "0x00000000000000000000000000000000000000000000000008a0b8db28dc400000000000000000000000000000000000000000000000000000000000000c2f33000000000000000000000000000000000000000000000000000246377e36560c",
                    "logDecoded": true,
                    "operation": "EVENT",
                    "revert": false,
                    "status": true,
                    "topics": [
                        "0x5b5dbc6c64043a15d3fe6943a6e443a826b78755edc257b2ec890c022225dbcf",
                        "0x000000000000000000000000d067cb7f9a32d61bbcc3ff65bf421617bc5d10b6",
                        "0x0485e18ef2202982fa6a79938de6e5b000a1244fc44593371714adb4d6e1fa12"
                    ]
                },
                "nodeType": 1
            }
        },
        "gasFlame": [
            {
                "children": [
                    {
                        "children": [
                            {
                                "children": [],
                                "depth": 0,
                                "name": "Initial Gas",
                                "value": 21776
                            },
                            {
                                "children": [
                                    {
                                        "children": [
                                            {
                                                "children": [
                                                    {
                                                        "children": [],
                                                        "depth": 3,
                                                        "name": "sendMessageToL2",
                                                        "value": 33954
                                                    }
                                                ],
                                                "depth": 2,
                                                "name": "sendMessageToL2",
                                                "value": 39012
                                            }
                                        ],
                                        "depth": 1,
                                        "name": "deposit",
                                        "value": 89037
                                    }
                                ],
                                "depth": 0,
                                "name": "Executed Gas",
                                "value": 94079
                            }
                        ],
                        "depth": -1,
                        "name": "Actual Gas Used",
                        "value": 115855
                    },
                    {
                        "children": [],
                        "depth": -1,
                        "name": "Refunded Gas",
                        "value": 0
                    }
                ],
                "depth": -2,
                "name": "Total Gas",
                "value": 115855
            }
        ],
        "isConfirmed": true,
        "mainTrace": [
            {
                "children": [
                    {
                        "children": [
                            {
                                "children": [
                                    {
                                        "children": [
                                            {
                                                "children": [
                                                    {
                                                        "children": [],
                                                        "depth": 4,
                                                        "id": 4,
                                                        "order": 4
                                                    }
                                                ],
                                                "depth": 3,
                                                "id": 3,
                                                "order": 3
                                            }
                                        ],
                                        "depth": 2,
                                        "id": 2,
                                        "order": 2
                                    },
                                    {
                                        "children": [],
                                        "depth": 2,
                                        "id": 5,
                                        "order": 5
                                    }
                                ],
                                "depth": 1,
                                "id": 1,
                                "order": 1
                            }
                        ],
                        "depth": 0,
                        "id": 0,
                        "order": 0
                    }
                ],
                "depth": -1,
                "id": -1,
                "order": -1
            }
        ],
        "mainTraceNodeCount": 6,
        "parentIdMap": {
            "0": -1,
            "1": 0,
            "2": 1,
            "3": 2,
            "4": 3,
            "5": 1
        },
        "tidyTrace": [
            {
                "children": [
                    {
                        "children": [
                            {
                                "children": [
                                    {
                                        "children": [
                                            {
                                                "children": [
                                                    {
                                                        "children": [],
                                                        "depth": 4,
                                                        "id": 4,
                                                        "order": 4
                                                    }
                                                ],
                                                "depth": 3,
                                                "id": 3,
                                                "order": 3
                                            }
                                        ],
                                        "depth": 2,
                                        "id": 2,
                                        "order": 2
                                    },
                                    {
                                        "children": [],
                                        "depth": 2,
                                        "id": 5,
                                        "order": 5
                                    }
                                ],
                                "depth": 1,
                                "id": 1,
                                "order": 1
                            }
                        ],
                        "depth": 0,
                        "id": 0,
                        "order": 0
                    }
                ],
                "depth": -1,
                "id": -1,
                "order": -1
            }
        ],
        "tidyTraceNodeCount": 6
    },
    "state_change": {
        "stateChanges": [
            {
                "address": "0xae0ee0a63a2ce6baeeffe56e7714fb4efe48d419",
                "erc": "",
                "slots": [
                    {
                        "current": "0x000000000000000000000000d067cb7f9a32d61bbcc3ff65bf421617bc5d10b6",
                        "key": "0xdb4e577bebc010192ee1f17c849dfeee2664dfd45846f7b4e34be5020bd7698a",
                        "prev": "0x0000000000000000000000000000000000000000000000000000000000000000"
                    }
                ],
                "storageVariables": []
            },
            {
                "address": "0xc662c410c0ecf747543f5ba90660f6abebd9c8c4",
                "erc": "",
                "slots": [
                    {
                        "current": "0x00000000000000000000000000000000000000000000000000000000000c2f34",
                        "key": "0x40af3c5d10641ea6a095e7a9b843218461f4c8d604207c721ffceec9721b1ac5",
                        "prev": "0x00000000000000000000000000000000000000000000000000000000000c2f33"
                    },
                    {
                        "current": "0x000000000000000000000000000000000000000000000000000246377e36560d",
                        "key": "0xe568c2bf6bd19ee76954d7360ec070ebea66d09775228b8ff2a894d1916617f4",
                        "prev": "0x0000000000000000000000000000000000000000000000000000000000000000"
                    }
                ],
                "storageVariables": []
            }
        ]
    }
}