{
    "balance_change": {
        "balanceChanges": [
            {
                "account": "0x03d2dbc90d5457a38290ed979daa9bccdf364bd8",
                "assets": [
                    {
                        "address": "0xac838aee2f650a6b970ecea56d4651653c1f84a1",
                        "amount": "1,000",
                        "iconUrl": "",
                        "isERC1155": false,
                        "isERC721": false,
                        "sign": false,
                        "value": ""
                    }
                ]
            },
            {
                "account": "0xbe3ded9b845a31f9fda0a60b83a8836a71652798",
                "assets": [
                    {
                        "address": "0xac838aee2f650a6b970ecea56d4651653c1f84a1",
                        "amount": "1,000",
                        "iconUrl": "",
                        "isERC1155": false,
                        "isERC721": false,
                        "sign": true,
                        "value": ""
                    }
                ]
            }
        ]
    },
    "profile": {
        "basic_info": {
            "baseFee": "",
            "blockNumber": 4621872,
            "callData": "0xa9059cbb000000000000000000000000be3ded9b845a31f9fda0a60b83a8836a71652798000000000000000000000000000000000000000000000000000000174876e800",
            "debugEnable": true,
            "errorInfo": "",
            "eventCount": 1,
            "feeRecipient": "0x52bc44d5378309ee2abf1539bf71de1b7d7be3b5",
            "formatValue": "0",
            "gasLimit": 100000,
            "gasPrice": "20",
            "gasUsed": 51342,
            "intTxnCount": 0,
            "internalRevert": false,
            "internalRevertMessage": "",
            "isContractCreation": false,
            "isFlashloan": false,
            "maxFee": "",
            "nonce": 179,
            "overwritedBlockNumber": -1,
            "priorityFee": "",
            "receiver": "0xac838aee2f650a6b970ecea56d4651653c1f84a1",
            "revertMessage": "",
            "sender": "0x03d2dbc90d5457a38290ed979daa9bccdf364bd8",
            "simulationEnable": true,
            "sourceTxnHash": "0x5df17c73f55b3be70e074e185415b0db78090fcf767bd10d08bb4dd7913871c4",
            "status": true,
            "timestamp": "2017-11-25T22:20:00Z",
            "transactionFee": "0.00102684",
            "txnHash": "0x5df17c73f55b3be70e074e185415b0db78090fcf767bd10d08bb4dd7913871c4",
            "txnIndex": 1,
            "type": 0,
            "value": "0"
        },
        "fund_flow": [
            {
                "amount": "1,000",
                "from": "0x03d2dbc90d5457a38290ed979daa9bccdf364bd8",
                "id": 1,
                "isERC1155": false,
                "isERC721": false,
                "isReverted": false,
                "order": 1,
                "to": "0xbe3ded9b845a31f9fda0a60b83a8836a71652798",
                "token": "0xac838aee2f650a6b970ecea56d4651653c1f84a1"
            }
        ],
        "token_infos": [
            {
                "address": "0xac838aee2f650a6b970ecea56d4651653c1f84a1",
                "decimals": 8
            },
            {
                "address": "0xc02aaa39b223fe8d0a0e5c4f27ead9083c756cc2",
                "decimals": 18
            },
            {
                "address": "0xeeeeeeeeeeeeeeeeeeeeeeeeeeeeeeeeeeeeeeee",
                "decimals": 18
            }
        ]
    },
    "address_label": {
        "labels": [
            {
                "address": "0xeeeeeeeeeeeeeeeeeeeeeeeeeeeeeeeeeeeeeeee",
                "label": "Ether"
            },
            {
                "address": "0xac838aee2f650a6b970ecea56d4651653c1f84a1",
                "label": "ClearCoin: Old Token"
            },
            {
                "address": "0x0000000000000000000000000000000000000001",
                "label": "Precompiled"
            },
            {
                "address": "0x0000000000000000000000000000000000000002",
                "label": "Precompiled"
            },
            {
                "address": "0x0000000000000000000000000000000000000003",
                "label": "Precompiled"
            },
            {
                "address": "0x0000000000000000000000000000000000000004",
                "label": "Precompiled"
            }
        ]
    },
    "trace": {
        "accountLabels": null,
        "dataMap": {
            "-1": {
                "invocation": {
                    "address": "0x03d2dbc90d5457a38290ed979daa9bccdf364bd8",
                    "callData": "",
                    "decodedMethod": null,
                    "errorInfo": "",
                    "fromAddress": "",
                    "gasUsed": 0,
                    "id": -1,
                    "methodDecoded": false,
                    "operation": "",
                    "output": "",
                    "revert": false,
                    "revertMessage": "",
                    "selector": "",
                    "status": false,
                    "value": ""
                },
                "nodeType": 0
            },
            "0": {
                "invocation": {
                    "address": "0xac838aee2f650a6b970ecea56d4651653c1f84a1",
                    "callData": "0x000000000000000000000000be3ded9b845a31f9fda0a60b83a8836a71652798000000000000000000000000000000000000000000000000000000174876e800",
                    "decodedMethod": {
                        "callParams": [
                            {
                                "name": "_to",
                                "type": "address",
                                "value": "0xbe3ded9b845a31f9fda0a60b83a8836a71652798"
                            },
                            {
                                "decimalAvailable": true,
                                "name": "_value",
                                "type": "uint256",
                                "value": "100,000,000,000"
                            }
                        ],
                        "constructorArguments": "",
                        "name": "transfer",
                        "returnParams": [
                            {
                                "name": "success",
                                "type": "bool",
                                "value": true
                            }
                        ],
                        "signature": "transfer(address,uint256)"
                    },
                    "errorInfo": "",
                    "fromAddress": "0x03d2dbc90d5457a38290ed979daa9bccdf364bd8",
                    "gasUsed": 51342,
                    "id": 0,
                    "methodDecoded": true,
                    "operation": "CALL",
                    "output": "0x0000000000000000000000000000000000000000000000000000000000000001",
                    "revert": false,
                    "revertMessage": "",
                    "selector": "0xa9059cbb",
                    "status": true,
                    "value": "0"
                },
                "nodeType": 0
            },
            "1": {
                "event": {
                    "contract": "0xac838aee2f650a6b970ecea56d4651653c1f84a1",
                    "decodedLog": {
                        "name": "Transfer",
                        "params": [
                            {
                                "name": "_from",
                                "type": "address",
                                "value": "0x03d2dbc90d5457a38290ed979daa9bccdf364bd8"
                            },
                            {
                                "name": "_to",
                                "type": "address",
                                "value": "0xbe3ded9b845a31f9fda0a60b83a8836a71652798"
                            },
                            {
                                "decimalAvailable": true,
                                "name": "_value",
                                "type": "uint256",
                                "value": "100,000,000,000"
                            }
                        ],
                        "signature": "Transfer(address,address,uint256)"
                    },
                    "id": 1,
                    "logData": "0x000000000000000000000000000000000000000000000000000000174876e800",
                    "logDecoded": true,
                    "operation": "EVENT",
                    "revert": false,
                    "status": true,
                    "topics": [
                        "0xddf252ad1be2c89b69c2b068fc378daa952ba7f163c4a11628f55a4df523b3ef",
                        "0x00000000000000000000000003d2dbc90d5457a38290ed979daa9bccdf364bd8",
                        "0x000000000000000000000000be3ded9b845a31f9fda0a60b83a8836a71652798"
                    ]
                },
                "nodeType": 1
            }
        },
        "gasFlame": [
            {
                "children": [
                    {
                        "children": [
                            {
                                "children": [],
                                "depth": 0,
                                "name": "Initial Gas",
                                "value": 23064
                            },
                            {
                                "children": [],
                                "depth": 0,
                                "name": "Executed Gas",
                                "value": 28278
                            }
                        ],
                        "depth": -1,
                        "name": "Actual Gas Used",
                        "value": 51342
                    },
                    {
                        "children": [],
                        "depth": -1,
                        "name": "Refunded Gas",
                        "value": 0
                    }
                ],
                "depth": -2,
                "name": "Total Gas",
                "value": 51342
            }
        ],
        "isConfirmed": true,
        "mainTrace": [
            {
                "children": [
                    {
                        "children": [
                            {
                                "children": [],
                                "depth": 1,
                                "id": 1,
                                "order": 1
                            }
                        ],
                        "depth": 0,
                        "id": 0,
                        "order": 0
                    }
                ],
                "depth": -1,
                "id": -1,
                "order": -1
            }
        ],
        "mainTraceNodeCount": 2,
        "parentIdMap": {
            "0": -1,
            "1": 0
        },
        "tidyTrace": [
            {
                "children": [
                    {
                        "children": [
                            {
                                "children": [],
                                "depth": 1,
                                "id": 1,
                                "order": 1
                            }
                        ],
                        "depth": 0,
                        "id": 0,
                        "order": 0
                    }
                ],
                "depth": -1,
                "id": -1,
                "order": -1
            }
        ],
        "tidyTraceNodeCount": 2
    },
    "state_change": {
        "stateChanges": [
            {
                "address": "0xac838aee2f650a6b970ecea56d4651653c1f84a1",
                "erc": "ERC-20",
                "slots": [
                    {
                        "current": "0x0000000000000000000000000000000000000000000000000011b1e2460c0800",
                        "key": "0x42a91891e3bfd419c72c614ef29d60019a9932342b61d5bd8b8986aa0a12023b",
                        "prev": "0x0000000000000000000000000000000000000000000000000011b1f98e82f000"
                    },
                    {
                        "current": "0x000000000000000000000000000000000000000000000000000000174876e800",
                        "key": "0x8938ff20b2ec89e367c9ca5204db7c746022237026c552eaebf75274071a1d34",
                        "prev": "0x0000000000000000000000000000000000000000000000000000000000000000"
                    }
                ],
                "storageVariables": [
                    {
                        "name": "balances",
                        "type": "mapping(address => uint256)",
                        "value": {
                            "pairs": [
                                {
                                    "key": "0x03d2dbc90d5457a38290ed979daa9bccdf364bd8",
                                    "value": {
                                        "current": "4980660000000000",
                                        "prev": "4980760000000000",
                                        "typeTag": 1
                                    }
                                },
                                {
                                    "key": "0xbe3ded9b845a31f9fda0a60b83a8836a71652798",
                                    "value": {
                                        "current": "100000000000",
                                        "prev": "0",
                                        "typeTag": 1
                                    }
                                }
                            ],
                            "typeTag": 4
                        }
                    }
                ]
            }
        ]
    }
}