{
    "balance_change": {
        "balanceChanges": [
            {
                "account": "0x54156b821e3692108724318f07b55a323b488c68",
                "assets": [
                    {
                        "address": "0x57b9d10157f66d8c00a815b5e289a152dedbe7ed",
                        "amount": "1.68",
                        "iconUrl": "",
                        "isERC1155": false,
                        "isERC721": false,
                        "sign": false,
                        "value": ""
                    }
                ]
            },
            {
                "account": "0x278ad2617a315a184dec06b7d57d9fa84034cadb",
                "assets": [
                    {
                        "address": "0x57b9d10157f66d8c00a815b5e289a152dedbe7ed",
                        "amount": "1.68",
                        "iconUrl": "",
                        "isERC1155": false,
                        "isERC721": false,
                        "sign": true,
                        "value": ""
                    }
                ]
            }
        ]
    },
    "profile": {
        "basic_info": {
            "baseFee": "7.404116585",
            "blockNumber": 18216701,
            "callData": "0xa9059cbb000000000000000000000000278ad2617a315a184dec06b7d57d9fa84034cadb000000000000000000000000000000000000000000000000000000000019a280",
            "debugEnable": true,
            "errorInfo": "",
            "eventCount": 1,
            "feeRecipient": "0x4838b106fce9647bdf1e7877bf73ce8b0bad5f97",
            "formatValue": "0",
            "gasLimit": 60000,
            "gasPrice": "13.872415564",
            "gasUsed": 51779,
            "intTxnCount": 0,
            "internalRevert": false,
            "internalRevertMessage": "",
            "isContractCreation": false,
            "isFlashloan": false,
            "maxFee": "",
            "nonce": 207,
            "overwritedBlockNumber": -1,
            "priorityFee": "",
            "receiver": "0x57b9d10157f66d8c00a815b5e289a152dedbe7ed",
            "revertMessage": "",
            "sender": "0x54156b821e3692108724318f07b55a323b488c68",
            "simulationEnable": true,
            "sourceTxnHash": "0x5d9258636df7138707e5a4497507ea9b137557a1ded7b5011434a98a2fb47751",
            "status": true,
            "timestamp": "2023-09-26T01:33:35Z",
            "transactionFee": "0.000718299805488356",
            "txnHash": "0x5d9258636df7138707e5a4497507ea9b137557a1ded7b5011434a98a2fb47751",
            "txnIndex": 13,
            "type": 0,
            "value": "0"
        },
        "fund_flow": [
            {
                "amount": "1.68",
                "from": "0x54156b821e3692108724318f07b55a323b488c68",
                "id": 1,
                "isERC1155": false,
                "isERC721": false,
                "isReverted": false,
                "order": 1,
                "to": "0x278ad2617a315a184dec06b7d57d9fa84034cadb",
                "token": "0x57b9d10157f66d8c00a815b5e289a152dedbe7ed"
            }
        ],
        "token_infos": [
            {
                "address": "0x57b9d10157f66d8c00a815b5e289a152dedbe7ed",
                "decimals": 6
            },
            {
                "address": "0xc02aaa39b223fe8d0a0e5c4f27ead9083c756cc2",
                "decimals": 18
            },
            {
                "address": "0xeeeeeeeeeeeeeeeeeeeeeeeeeeeeeeeeeeeeeeee",
                "decimals": 18
            }
        ]
    },
    "address_label": {
        "labels": [
            {
                "address": "0xeeeeeeeeeeeeeeeeeeeeeeeeeeeeeeeeeeeeeeee",
                "label": "Ether"
            },
            {
                "address": "0x57b9d10157f66d8c00a815b5e289a152dedbe7ed",
                "label": "\u73af\u7403\u80a1 (HQG)"
            },
            {
                "address": "0x0000000000000000000000000000000000000001",
                "label": "Precompiled"
            },
            {
                "address": "0x0000000000000000000000000000000000000002",
                "label": "Precompiled"
            },
            {
                "address": "0x0000000000000000000000000000000000000003",
                "label": "Precompiled"
            },
            {
                "address": "0x0000000000000000000000000000000000000004",
                "label": "Precompiled"
            }
        ]
    },
    "trace": {
        "accountLabels": null,
        "dataMap": {
            "-1": {
                "invocation": {
                    "address": "0x54156b821e3692108724318f07b55a323b488c68",
                    "callData": "",
                    "decodedMethod": null,
                    "errorInfo": "",
                    "fromAddress": "",
                    "gasUsed": 0,
                    "id": -1,
                    "methodDecoded": false,
                    "operation": "",
                    "output": "",
                    "revert": false,
                    "revertMessage": "",
                    "selector": "",
                    "status": false,
                    "value": ""
                },
                "nodeType": 0
            },
            "0": {
                "invocation": {
                    "address": "0x57b9d10157f66d8c00a815b5e289a152dedbe7ed",
                    "callData": "0x000000000000000000000000278ad2617a315a184dec06b7d57d9fa84034cadb000000000000000000000000000000000000000000000000000000000019a280",
                    "decodedMethod": {
                        "callParams": [
                            {
                                "name": "_to",
                                "type": "address",
                                "value": "0x278ad2617a315a184dec06b7d57d9fa84034cadb"
                            },
                            {
                                "decimalAvailable": true,
                                "name": "_value",
                                "type": "uint256",
                                "value": "1,680,000"
                            }
                        ],
                        "constructorArguments": "",
                        "name": "transfer",
                        "returnParams": [
                            {
                                "name": "",
                                "type": "bool",
                                "value": true
                            }
                        ],
                        "signature": "transfer(address,uint256)"
                    },
                    "errorInfo": "",
                    "fromAddress": "0x54156b821e3692108724318f07b55a323b488c68",
                    "gasUsed": 51779,
                    "id": 0,
                    "methodDecoded": true,
                    "operation": "CALL",
                    "output": "0x0000000000000000000000000000000000000000000000000000000000000001",
                    "revert": false,
                    "revertMessage": "",
                    "selector": "0xa9059cbb",
                    "status": true,
                    "value": "0"
                },
                "nodeType": 0
            },
            "1": {
                "event": {
                    "contract": "0x57b9d10157f66d8c00a815b5e289a152dedbe7ed",
                    "decodedLog": {
                        "name": "Transfer",
                        "params": [
                            {
                                "name": "from",
                                "type": "address",
                                "value": "0x54156b821e3692108724318f07b55a323b488c68"
                            },
                            {
                                "name": "to",
                                "type": "address",
                                "value": "0x278ad2617a315a184dec06b7d57d9fa84034cadb"
                            },
                            {
                                "decimalAvailable": true,
                                "name": "value",
                                "type": "uint256",
                                "value": "1,680,000"
                            }
                        ],
                        "signature": "Transfer(address,address,uint256)"
                    },
                    "id": 1,
                    "logData": "0x000000000000000000000000000000000000000000000000000000000019a280",
                    "logDecoded": true,
                    "operation": "EVENT",
                    "revert": false,
                    "status": true,
                    "topics": [
                        "0xddf252ad1be2c89b69c2b068fc378daa952ba7f163c4a11628f55a4df523b3ef",
                        "0x00000000000000000000000054156b821e3692108724318f07b55a323b488c68",
                        "0x000000000000000000000000278ad2617a315a184dec06b7d57d9fa84034cadb"
                    ]
                },
                "nodeType": 1
            }
        },
        "gasFlame": [
            {
                "children": [
                    {
                        "children": [
                            {
                                "children": [],
                                "depth": 0,
                                "name": "Initial Gas",
                                "value": 21596
                            },
                            {
                                "children": [],
                                "depth": 0,
                                "name": "Executed Gas",
                                "value": 30183
                            }
                        ],
                        "depth": -1,
                        "name": "Actual Gas Used",
                        "value": 51779
                    },
                    {
                        "children": [],
                        "depth": -1,
                        "name": "Refunded Gas",
                        "value": 0
                    }
                ],
                "depth": -2,
                "name": "Total Gas",
                "value": 51779
            }
        ],
        "isConfirmed": true,
        "mainTrace": [
            {
                "children": [
                    {
                        "children": [
                            {
                                "children": [],
                                "depth": 1,
                                "id": 1,
                                "order": 1
                            }
                        ],
                        "depth": 0,
                        "id": 0,
                        "order": 0
                    }
                ],
                "depth": -1,
                "id": -1,
                "order": -1
            }
        ],
        "mainTraceNodeCount": 2,
        "parentIdMap": {
            "0": -1,
            "1": 0
        },
        "tidyTrace": [
            {
                "children": [
                    {
                        "children": [
                            {
                                "children": [],
                                "depth": 1,
                                "id": 1,
                                "order": 1
                            }
                        ],
                        "depth": 0,
                        "id": 0,
                        "order": 0
                    }
                ],
                "depth": -1,
                "id": -1,
                "order": -1
            }
        ],
        "tidyTraceNodeCount": 2
    },
    "state_change": {
        "stateChanges": [
            {
                "address": "0x57b9d10157f66d8c00a815b5e289a152dedbe7ed",
                "erc": "ERC-20",
                "slots": [
                    {
                        "current": "0x000000000000000000000000000000000000000000000000000000000019a280",
                        "key": "0x35b82e12859737f97df131348ba63ced27f1e3960e8c36998e9f6d26d2307527",
                        "prev": "0x0000000000000000000000000000000000000000000000000000000000000000"
                    },
                    {
                        "current": "0x00000000000000000000000000000000000000000000000000000008a8d9c7c1",
                        "key": "0xa324a4c7fa07982e46739fc000382db0452f7c2e251a4cbeb9b2ceb8b89aa26f",
                        "prev": "0x00000000000000000000000000000000000000000000000000000008a8f36a41"
                    }
                ],
                "storageVariables": [
                    {
                        "name": "balances",
                        "type": "mapping(address => uint256)",
                        "value": {
                            "pairs": [
                                {
                                    "key": "0x278ad2617a315a184dec06b7d57d9fa84034cadb",
                                    "value": {
                                        "current": "1680000",
                                        "prev": "0",
                                        "typeTag": 1
                                    }
                                },
                                {
                                    "key": "0x54156b821e3692108724318f07b55a323b488c68",
                                    "value": {
                                        "current": "37192583105",
                                        "prev": "37194263105",
                                        "typeTag": 1
                                    }
                                }
                            ],
                            "typeTag": 4
                        }
                    }
                ]
            }
        ]
    }
}