{
    "balance_change": {
        "balanceChanges": [
            {
                "account": "0x992fa315b7ca2e0512992facbc172b96dda6149f",
                "assets": [
                    {
                        "address": "0x60f80121c31a0d46b5279700f9df786054aa5ee5",
                        "amount": "1",
                        "iconUrl": "",
                        "isERC1155": false,
                        "isERC721": true,
                        "sign": false,
                        "tokenID": "36322",
                        "value": ""
                    }
                ]
            },
            {
                "account": "0x0000000000000000000000000000000000000000",
                "assets": [
                    {
                        "address": "0x60f80121c31a0d46b5279700f9df786054aa5ee5",
                        "amount": "1",
                        "iconUrl": "",
                        "isERC1155": false,
                        "isERC721": true,
                        "sign": true,
                        "tokenID": "36322",
                        "value": ""
                    }
                ]
            }
        ]
    },
    "profile": {
        "basic_info": {
            "baseFee": "",
            "blockNumber": 11373505,
            "callData": "0x42966c680000000000000000000000000000000000000000000000000000000000008de2",
            "debugEnable": true,
            "errorInfo": "",
            "eventCount": 1,
            "feeRecipient": "0x5a0b54d5dc17e0aadc383d2db43b0a0d3e029c4c",
            "formatValue": "0",
            "gasLimit": 128797,
            "gasPrice": "45",
            "gasUsed": 58545,
            "intTxnCount": 0,
            "internalRevert": false,
            "internalRevertMessage": "",
            "isContractCreation": false,
            "isFlashloan": false,
            "maxFee": "",
            "nonce": 722,
            "overwritedBlockNumber": -1,
            "priorityFee": "",
            "receiver": "0x60f80121c31a0d46b5279700f9df786054aa5ee5",
            "revertMessage": "",
            "sender": "0x992fa315b7ca2e0512992facbc172b96dda6149f",
            "simulationEnable": true,
            "sourceTxnHash": "0x5e1250a7978587b39da3dfbe6c9f82c9b58d62af118cce4b4462f17a64b1231b",
            "status": true,
            "timestamp": "2020-12-02T14:03:55Z",
            "transactionFee": "0.002634525",
            "txnHash": "0x5e1250a7978587b39da3dfbe6c9f82c9b58d62af118cce4b4462f17a64b1231b",
            "txnIndex": 157,
            "type": 0,
            "value": "0"
        },
        "fund_flow": [
            {
                "amount": "1",
                "from": "0x992fa315b7ca2e0512992facbc172b96dda6149f",
                "id": 1,
                "isERC1155": false,
                "isERC721": true,
                "isReverted": false,
                "order": 1,
                "to": "0x0000000000000000000000000000000000000000",
                "token": "0x60f80121c31a0d46b5279700f9df786054aa5ee5",
                "tokenID": "36322"
            }
        ],
        "token_infos": [
            {
                "address": "0xc02aaa39b223fe8d0a0e5c4f27ead9083c756cc2",
                "decimals": 18
            },
            {
                "address": "0xeeeeeeeeeeeeeeeeeeeeeeeeeeeeeeeeeeeeeeee",
                "decimals": 18
            }
        ]
    },
    "address_label": {
        "labels": [
            {
                "address": "0x0000000000000000000000000000000000000001",
                "label": "Precompiled"
            },
            {
                "address": "0x0000000000000000000000000000000000000002",
                "label": "Precompiled"
            },
            {
                "address": "0x0000000000000000000000000000000000000003",
                "label": "Precompiled"
            },
            {
                "address": "0x0000000000000000000000000000000000000004",
                "label": "Precompiled"
            },
            {
                "address": "0xeeeeeeeeeeeeeeeeeeeeeeeeeeeeeeeeeeeeeeee",
                "label": "Ether"
            },
            {
                "address": "0x60f80121c31a0d46b5279700f9df786054aa5ee5",
                "label": "Rarible: RARI Token 2"
            }
        ]
    },
    "trace": {
        "accountLabels": null,
        "dataMap": {
            "-1": {
                "invocation": {
                    "address": "0x992fa315b7ca2e0512992facbc172b96dda6149f",
                    "callData": "",
                    "decodedMethod": null,
                    "errorInfo": "",
                    "fromAddress": "",
                    "gasUsed": 0,
                    "id": -1,
                    "methodDecoded": false,
                    "operation": "",
                    "output": "",
                    "revert": false,
                    "revertMessage": "",
                    "selector": "",
                    "status": false,
                    "value": ""
                },
                "nodeType": 0
            },
            "0": {
                "invocation": {
                    "address": "0x60f80121c31a0d46b5279700f9df786054aa5ee5",
                    "callData": "0x0000000000000000000000000000000000000000000000000000000000008de2",
                    "decodedMethod": {
                        "callParams": [
                            {
                                "name": "tokenId",
                                "type": "uint256",
                                "value": "36,322"
                            }
                        ],
                        "constructorArguments": "",
                        "name": "burn",
                        "returnParams": [],
                        "signature": "burn(uint256)"
                    },
                    "errorInfo": "",
                    "fromAddress": "0x992fa315b7ca2e0512992facbc172b96dda6149f",
                    "gasUsed": 58545,
                    "id": 0,
                    "methodDecoded": true,
                    "operation": "CALL",
                    "output": "",
                    "revert": false,
                    "revertMessage": "",
                    "selector": "0x42966c68",
                    "status": true,
                    "value": "0"
                },
                "nodeType": 0
            },
            "1": {
                "event": {
                    "contract": "0x60f80121c31a0d46b5279700f9df786054aa5ee5",
                    "decodedLog": {
                        "name": "Transfer",
                        "params": [
                            {
                                "name": "from",
                                "type": "address",
                                "value": "0x992fa315b7ca2e0512992facbc172b96dda6149f"
                            },
                            {
                                "name": "to",
                                "type": "address",
                                "value": "0x0000000000000000000000000000000000000000"
                            },
                            {
                                "decimalAvailable": true,
                                "name": "tokenId",
                                "type": "uint256",
                                "value": "36,322"
                            }
                        ],
                        "signature": "Transfer(address,address,uint256)"
                    },
                    "id": 1,
                    "logData": "0x",
                    "logDecoded": true,
                    "operation": "EVENT",
                    "revert": false,
                    "status": true,
                    "topics": [
                        "0xddf252ad1be2c89b69c2b068fc378daa952ba7f163c4a11628f55a4df523b3ef",
                        "0x000000000000000000000000992fa315b7ca2e0512992facbc172b96dda6149f",
                        "0x0000000000000000000000000000000000000000000000000000000000000000",
                        "0x0000000000000000000000000000000000000000000000000000000000008de2"
                    ]
                },
                "nodeType": 1
            }
        },
        "gasFlame": [
            {
                "children": [
                    {
                        "children": [
                            {
                                "children": [],
                                "depth": 0,
                                "name": "Initial Gas",
                                "value": 21216
                            },
                            {
                                "children": [],
                                "depth": 0,
                                "name": "Executed Gas",
                                "value": 95873
                            }
                        ],
                        "depth": -1,
                        "name": "Actual Gas Used",
                        "value": 58545
                    },
                    {
                        "children": [],
                        "depth": -1,
                        "name": "Refunded Gas",
                        "value": 58544
                    }
                ],
                "depth": -2,
                "name": "Total Gas",
                "value": 117089
            }
        ],
        "isConfirmed": true,
        "mainTrace": [
            {
                "children": [
                    {
                        "children": [
                            {
                                "children": [],
                                "depth": 1,
                                "id": 1,
                                "order": 1
                            }
                        ],
                        "depth": 0,
                        "id": 0,
                        "order": 0
                    }
                ],
                "depth": -1,
                "id": -1,
                "order": -1
            }
        ],
        "mainTraceNodeCount": 2,
        "parentIdMap": {
            "0": -1,
            "1": 0
        },
        "tidyTrace": [
            {
                "children": [
                    {
                        "children": [
                            {
                                "children": [],
                                "depth": 1,
                                "id": 1,
                                "order": 1
                            }
                        ],
                        "depth": 0,
                        "id": 0,
                        "order": 0
                    }
                ],
                "depth": -1,
                "id": -1,
                "order": -1
            }
        ],
        "tidyTraceNodeCount": 2
    },
    "state_change": {
        "stateChanges": [
            {
                "address": "0x60f80121c31a0d46b5279700f9df786054aa5ee5",
                "erc": "ERC-721",
                "slots": [
                    {
                        "current": "0x0000000000000000000000000000000000000000000000000000000000000000",
                        "key": "0x6e284b3fdd3260c4351f5da080d977e51117d234affe66a7e50ddc8d90a3fef7",
                        "prev": "0x0000000000000000000000000000000000000000000000000000000000000069"
                    },
                    {
                        "current": "0x0000000000000000000000000000000000000000000000000000000000011dee",
                        "key": "0x0175b7a638427703f0dbe7bb9bbf987a2551717b34e79f33b5b1008d1fa049db",
                        "prev": "0x0000000000000000000000000000000000000000000000000000000000008de2"
                    },
                    {
                        "current": "0x0000000000000000000000000000000000000000000000000000000000000000",
                        "key": "0x51986c3db4df34bc087feb63b6aca72e3612b073a79dffdb7bfea9fa50b3b8ba",
                        "prev": "0x000000000000000000000000992fa315b7ca2e0512992facbc172b96dda6149f"
                    },
                    {
                        "current": "0x0000000000000000000000000000000000000000000000000000000000002c22",
                        "key": "0x91c9c97e2aa806a14eb96b9f0bb80491ec5cffc72ad68d32b97a23e603c6b981",
                        "prev": "0x00000000000000000000000000000000000000000000000000000000000062f0"
                    },
                    {
                        "current": "0x0000000000000000000000000000000000000000000000000000000000000000",
                        "key": "0x0175b7a638427703f0dbe7bb9bbf987a2551717b34e79f33b5b1008d1fa080a9",
                        "prev": "0x0000000000000000000000000000000000000000000000000000000000011dee"
                    },
                    {
                        "current": "0x0000000000000000000000000000000000000000000000000000000000008db8",
                        "key": "0x71cac33701502821ee3387ab1e21dedfcb2a48fb656244d45694f3600ad62d48",
                        "prev": "0x0000000000000000000000000000000000000000000000000000000000008de2"
                    },
                    {
                        "current": "0x0000000000000000000000000000000000000000000000000000000000000000",
                        "key": "0x71cac33701502821ee3387ab1e21dedfcb2a48fb656244d45694f3600ad62d49",
                        "prev": "0x0000000000000000000000000000000000000000000000000000000000008db8"
                    },
                    {
                        "current": "0x00000000000000000000000000000000000000000000000000000000000062f0",
                        "key": "0x000000000000000000000000000000000000000000000000000000000000000b",
                        "prev": "0x00000000000000000000000000000000000000000000000000000000000062f1"
                    },
                    {
                        "current": "0x0000000000000000000000000000000000000000000000000000000000000000",
                        "key": "0x8ad436d1bd390f441e22bb81f08fbda687c2e1d4d3fba08acb6d456f2f9944b6",
                        "prev": "0x2f697066732f516d504a353645586657323268733843336a435a595132516a76"
                    },
                    {
                        "current": "0x0000000000000000000000000000000000000000000000000000000000000001",
                        "key": "0xb1a549576e8558a53fdb6ca628506e4a4bcedc951b900c2f04e5d2bf497d4c81",
                        "prev": "0x0000000000000000000000000000000000000000000000000000000000000002"
                    },
                    {
                        "current": "0x0000000000000000000000000000000000000000000000000000000000000000",
                        "key": "0x87301e49494a36deaaea920018a0083c4ec01112915b1d52f308a4b587e558f8",
                        "prev": "0x0000000000000000000000000000000000000000000000000000000000002c22"
                    },
                    {
                        "current": "0x0000000000000000000000000000000000000000000000000000000000000000",
                        "key": "0x055070a651cb6e2c65cbf8cde36725e85d2f08109d07363f76cb0218f44397af",
                        "prev": "0x0000000000000000000000000000000000000000000000000000000000000001"
                    },
                    {
                        "current": "0x0000000000000000000000000000000000000000000000000000000000000000",
                        "key": "0x8ad436d1bd390f441e22bb81f08fbda687c2e1d4d3fba08acb6d456f2f9944b7",
                        "prev": "0x5a61417863775638744c5a4a756f637263375339000000000000000000000000"
                    },
                    {
                        "current": "0x0000000000000000000000000000000000000000000000000000000000000001",
                        "key": "0xaadcbaf367f07938612b52140ae1e642ff006b15d38774e5ed72ae17ec3dce7b",
                        "prev": "0x0000000000000000000000000000000000000000000000000000000000000002"
                    }
                ],
                "storageVariables": [
                    {
                        "name": "_tokenOwner",
                        "type": "mapping(uint256 => address)",
                        "value": {
                            "pairs": [
                                {
                                    "key": "36322",
                                    "value": {
                                        "current": "0x0000000000000000000000000000000000000000",
                                        "prev": "0x992fa315b7ca2e0512992facbc172b96dda6149f",
                                        "typeTag": 1
                                    }
                                }
                            ],
                            "typeTag": 4
                        }
                    },
                    {
                        "name": "_ownedTokensCount",
                        "type": "mapping(address => struct Counters.Counter)",
                        "value": {
                            "pairs": [
                                {
                                    "key": "0x992fa315b7ca2e0512992facbc172b96dda6149f",
                                    "value": {
                                        "fields": [
                                            {
                                                "name": "_value",
                                                "type": "uint256",
                                                "value": {
                                                    "current": "1",
                                                    "prev": "2",
                                                    "typeTag": 1
                                                }
                                            }
                                        ],
                                        "typeTag": 3
                                    }
                                }
                            ],
                            "typeTag": 4
                        }
                    },
                    {
                        "name": "_allTokens",
                        "type": "uint256[]",
                        "value": {
                            "elemType": "uint256",
                            "elems": [
                                {
                                    "index": 11298,
                                    "value": {
                                        "current": "73198",
                                        "prev": "36322",
                                        "typeTag": 1
                                    }
                                }
                            ],
                            "typeTag": 2
                        }
                    },
                    {
                        "name": "_tokenURIs",
                        "type": "mapping(uint256 => string)",
                        "value": {
                            "pairs": [
                                {
                                    "key": "36322",
                                    "value": {
                                        "current": "",
                                        "prev": "\u0000\u0000\u0000\u0000\u0000\u0000\u0000\u0000\u0000\u0000\u0000\u0000\u0000\u0000\u0000\u0000\u0000\u0000\u0000\u0000\u0000\u0000\u0000\u0000\u0000\u0000\u0000\u0000\u0000\u0000\u0000\u0000\u0000\u0000\u0000\u0000\u0000\u0000\u0000\u0000\u0000\u0000\u0000\u0000\u0000\u0000\u0000\u0000\u0000\u0000\u0000\u0000",
                                        "typeTag": 1
                                    }
                                }
                            ],
                            "typeTag": 4
                        }
                    },
                    {
                        "name": "_allTokensIndex",
                        "type": "mapping(uint256 => uint256)",
                        "value": {
                            "pairs": [
                                {
                                    "key": "36322",
                                    "value": {
                                        "current": "0",
                                        "prev": "11298",
                                        "typeTag": 1
                                    }
                                },
                                {
                                    "key": "73198",
                                    "value": {
                                        "current": "11298",
                                        "prev": "25328",
                                        "typeTag": 1
                                    }
                                }
                            ],
                            "typeTag": 4
                        }
                    },
                    {
                        "name": "_ownedTokensIndex",
                        "type": "mapping(uint256 => uint256)",
                        "value": {
                            "pairs": [
                                {
                                    "key": "36280",
                                    "value": {
                                        "current": "0",
                                        "prev": "1",
                                        "typeTag": 1
                                    }
                                }
                            ],
                            "typeTag": 4
                        }
                    },
                    {
                        "name": "_ownedTokens",
                        "type": "mapping(address => uint256[])",
                        "value": {
                            "pairs": [
                                {
                                    "key": "0x992fa315b7ca2e0512992facbc172b96dda6149f",
                                    "value": {
                                        "elemType": "uint256",
                                        "elems": [
                                            {
                                                "index": 0,
                                                "value": {
                                                    "current": "36280",
                                                    "prev": "36322",
                                                    "typeTag": 1
                                                }
                                            }
                                        ],
                                        "typeTag": 2
                                    }
                                }
                            ],
                            "typeTag": 4
                        }
                    }
                ]
            }
        ]
    }
}