{
    "balance_change": {
        "balanceChanges": []
    },
    "profile": {
        "basic_info": {
            "baseFee": "",
            "blockNumber": 4531533,
            "callData": "0x72262699000000000000000000000000f61726edf017ce5bdc0bf262cfb4ae8c4a5faf490000000000000000000000000000000000000000000000002fd288ba9eb7f00000000000000000000000000000000000000000000000000000000000000000e00000000000000000000000000000000000000000000000000000000000000006000000000000000000000000000000000000000000000000000000000000001b71036ad88fbfc6849bd95ba5e87f5505926f2625d7de11ece101148abbd81ca53637451e3a04b6dea4b16bb19eb2dad9c99e30c5bd5a6e5e4b979f83b508fa700000000000000000000000000000000000000000000000000000000000000000",
            "debugEnable": true,
            "errorInfo": "",
            "eventCount": 0,
            "feeRecipient": "0x829bd824b016326a401d083b33d092293333a830",
            "formatValue": "0",
            "gasLimit": 250000,
            "gasPrice": "20.000000001",
            "gasUsed": 55160,
            "intTxnCount": 7,
            "internalRevert": false,
            "internalRevertMessage": "",
            "isContractCreation": false,
            "isFlashloan": false,
            "maxFee": "",
            "nonce": 11788,
            "overwritedBlockNumber": -1,
            "priorityFee": "",
            "receiver": "0x1ac5de26e62defedf0b1c1539cc93d4329384971",
            "revertMessage": "",
            "sender": "0x23d1634bc673173b97a97d3ee546cd4ab7643ed7",
            "simulationEnable": true,
            "sourceTxnHash": "0x5e07a4e05e25b1bbc05f2ab5f1c0b28e652975643dd6ab7b182bd00dd0f78f36",
            "status": true,
            "timestamp": "2017-11-11T09:19:11Z",
            "transactionFee": "0.00110320000005516",
            "txnHash": "0x5e07a4e05e25b1bbc05f2ab5f1c0b28e652975643dd6ab7b182bd00dd0f78f36",
            "txnIndex": 16,
            "type": 0,
            "value": "0"
        },
        "fund_flow": [],
        "token_infos": [
            {
                "address": "0xeeeeeeeeeeeeeeeeeeeeeeeeeeeeeeeeeeeeeeee",
                "decimals": 18
            },
            {
                "address": "0xc02aaa39b223fe8d0a0e5c4f27ead9083c756cc2",
                "decimals": 18
            }
        ]
    },
    "address_label": {
        "labels": [
            {
                "address": "0xeeeeeeeeeeeeeeeeeeeeeeeeeeeeeeeeeeeeeeee",
                "label": "Ether"
            },
            {
                "address": "0x0000000000000000000000000000000000000001",
                "label": "Precompiled"
            },
            {
                "address": "0x0000000000000000000000000000000000000002",
                "label": "Precompiled"
            },
            {
                "address": "0x0000000000000000000000000000000000000003",
                "label": "Precompiled"
            },
            {
                "address": "0x0000000000000000000000000000000000000004",
                "label": "Precompiled"
            }
        ]
    },
    "trace": {
        "accountLabels": null,
        "dataMap": {
            "-1": {
                "invocation": {
                    "address": "0x23d1634bc673173b97a97d3ee546cd4ab7643ed7",
                    "callData": "",
                    "decodedMethod": null,
                    "errorInfo": "",
                    "fromAddress": "",
                    "gasUsed": 0,
                    "id": -1,
                    "methodDecoded": false,
                    "operation": "",
                    "output": "",
                    "revert": false,
                    "revertMessage": "",
                    "selector": "",
                    "status": false,
                    "value": ""
                },
                "nodeType": 0
            },
            "0": {
                "invocation": {
                    "address": "0x1ac5de26e62defedf0b1c1539cc93d4329384971",
                    "callData": "0x000000000000000000000000f61726edf017ce5bdc0bf262cfb4ae8c4a5faf490000000000000000000000000000000000000000000000002fd288ba9eb7f00000000000000000000000000000000000000000000000000000000000000000e00000000000000000000000000000000000000000000000000000000000000006000000000000000000000000000000000000000000000000000000000000001b71036ad88fbfc6849bd95ba5e87f5505926f2625d7de11ece101148abbd81ca53637451e3a04b6dea4b16bb19eb2dad9c99e30c5bd5a6e5e4b979f83b508fa700000000000000000000000000000000000000000000000000000000000000000",
                    "decodedMethod": null,
                    "errorInfo": "",
                    "fromAddress": "0x23d1634bc673173b97a97d3ee546cd4ab7643ed7",
                    "gasUsed": 55160,
                    "id": 0,
                    "methodDecoded": false,
                    "operation": "CALL",
                    "output": "0x0000000000000000000000000000000000000000000000000000000000000000",
                    "revert": false,
                    "revertMessage": "",
                    "selector": "0x72262699",
                    "status": true,
                    "value": "0"
                },
                "nodeType": 0
            },
            "1": {
                "invocation": {
                    "address": "0xc3b2ae46792547a96b9f84405e36d0e07edcd05c",
                    "callData": "0x000000000000000000000000f61726edf017ce5bdc0bf262cfb4ae8c4a5faf490000000000000000000000000000000000000000000000002fd288ba9eb7f00000000000000000000000000000000000000000000000000000000000000000e00000000000000000000000000000000000000000000000000000000000000006000000000000000000000000000000000000000000000000000000000000001b71036ad88fbfc6849bd95ba5e87f5505926f2625d7de11ece101148abbd81ca53637451e3a04b6dea4b16bb19eb2dad9c99e30c5bd5a6e5e4b979f83b508fa700000000000000000000000000000000000000000000000000000000000000000",
                    "decodedMethod": null,
                    "errorInfo": "",
                    "fromAddress": "0x1ac5de26e62defedf0b1c1539cc93d4329384971",
                    "gasUsed": 25951,
                    "id": 1,
                    "methodDecoded": false,
                    "operation": "DELEGATECALL",
                    "output": "0x0000000000000000000000000000000000000000000000000000000000000000",
                    "revert": false,
                    "revertMessage": "",
                    "selector": "0x72262699",
                    "status": true,
                    "value": "0"
                },
                "nodeType": 0
            },
            "2": {
                "invocation": {
                    "address": "0x0000000000000000000000000000000000000001",
                    "callData": "0x48af8ef022bb95796c30c0182c93afa72edb132391bf9813a8b4ed79000000000000000000000000000000000000000000000000000000000000001b71036ad88fbfc6849bd95ba5e87f5505926f2625d7de11ece101148abbd81ca53637451e3a04b6dea4b16bb19eb2dad9c99e30c5bd5a6e5e4b979f83b508fa70",
                    "decodedMethod": {
                        "callParams": [
                            {
                                "name": "hash",
                                "type": "bytes32",
                                "value": "0x1855c3ab48af8ef022bb95796c30c0182c93afa72edb132391bf9813a8b4ed79"
                            },
                            {
                                "name": "v",
                                "type": "uint256",
                                "value": "27"
                            },
                            {
                                "name": "r",
                                "type": "bytes32",
                                "value": "0x71036ad88fbfc6849bd95ba5e87f5505926f2625d7de11ece101148abbd81ca5"
                            },
                            {
                                "name": "s",
                                "type": "bytes32",
                                "value": "0x3637451e3a04b6dea4b16bb19eb2dad9c99e30c5bd5a6e5e4b979f83b508fa70"
                            }
                        ],
                        "constructorArguments": "",
                        "name": "ecrecover",
                        "returnParams": [
                            {
                                "name": "",
                                "type": "address",
                                "value": "0x3788682a36cc20ab05ab6641bd090fa4358d27fd"
                            }
                        ],
                        "signature": "ecrecover(bytes32,uint256,bytes32,bytes32)"
                    },
                    "errorInfo": "",
                    "fromAddress": "0x1ac5de26e62defedf0b1c1539cc93d4329384971",
                    "gasUsed": 3000,
                    "id": 2,
                    "methodDecoded": true,
                    "operation": "CALL",
                    "output": "0x0000000000000000000000003788682a36cc20ab05ab6641bd090fa4358d27fd",
                    "revert": false,
                    "revertMessage": "",
                    "selector": "0x1855c3ab",
                    "status": true,
                    "value": "0"
                },
                "nodeType": 0
            },
            "3": {
                "invocation": {
                    "address": "0x1ac5de26e62defedf0b1c1539cc93d4329384971",
                    "callData": "0x000000000000000000000000f61726edf017ce5bdc0bf262cfb4ae8c4a5faf490000000000000000000000000000000000000000000000002fd288ba9eb7f00000000000000000000000000000000000000000000000000000000000000000600000000000000000000000000000000000000000000000000000000000000000",
                    "decodedMethod": null,
                    "errorInfo": "",
                    "fromAddress": "0x1ac5de26e62defedf0b1c1539cc93d4329384971",
                    "gasUsed": 13506,
                    "id": 3,
                    "methodDecoded": false,
                    "operation": "CALL",
                    "output": "0x0000000000000000000000000000000000000000000000000000000000000000",
                    "revert": false,
                    "revertMessage": "",
                    "selector": "0xd7f31eb9",
                    "status": true,
                    "value": "0"
                },
                "nodeType": 0
            },
            "4": {
                "invocation": {
                    "address": "0xc3b2ae46792547a96b9f84405e36d0e07edcd05c",
                    "callData": "0x000000000000000000000000f61726edf017ce5bdc0bf262cfb4ae8c4a5faf490000000000000000000000000000000000000000000000002fd288ba9eb7f00000000000000000000000000000000000000000000000000000000000000000600000000000000000000000000000000000000000000000000000000000000000",
                    "decodedMethod": null,
                    "errorInfo": "",
                    "fromAddress": "0x1ac5de26e62defedf0b1c1539cc93d4329384971",
                    "gasUsed": 12633,
                    "id": 4,
                    "methodDecoded": false,
                    "operation": "DELEGATECALL",
                    "output": "0x0000000000000000000000000000000000000000000000000000000000000000",
                    "revert": false,
                    "revertMessage": "",
                    "selector": "0xd7f31eb9",
                    "status": true,
                    "value": "0"
                },
                "nodeType": 0
            },
            "5": {
                "invocation": {
                    "address": "0x795ebe510e93d0bcb6545e93d93e5eeb1e88c51c",
                    "callData": "0x000000000000000000000000f61726edf017ce5bdc0bf262cfb4ae8c4a5faf490000000000000000000000000000000000000000000000002fd288ba9eb7f000000000000000000000000000000000000000000000000000000000000000008000000000000000000000000000000000000000000000000000000000000000000000000000000000000000000000000000000000000000000000000000000000",
                    "decodedMethod": null,
                    "errorInfo": "",
                    "fromAddress": "0x1ac5de26e62defedf0b1c1539cc93d4329384971",
                    "gasUsed": 9154,
                    "id": 5,
                    "methodDecoded": false,
                    "operation": "CALL",
                    "output": "0x0000000000000000000000000000000000000000000000000000000000000000",
                    "revert": false,
                    "revertMessage": "",
                    "selector": "0xe04f31e9",
                    "status": true,
                    "value": "0"
                },
                "nodeType": 0
            },
            "6": {
                "invocation": {
                    "address": "0x072461a5e18f444b1cf2e8dde6dfb1af39197316",
                    "callData": "0x000000000000000000000000f61726edf017ce5bdc0bf262cfb4ae8c4a5faf490000000000000000000000000000000000000000000000002fd288ba9eb7f000000000000000000000000000000000000000000000000000000000000000008000000000000000000000000000000000000000000000000000000000000000000000000000000000000000000000000000000000000000000000000000000000",
                    "decodedMethod": null,
                    "errorInfo": "",
                    "fromAddress": "0x795ebe510e93d0bcb6545e93d93e5eeb1e88c51c",
                    "gasUsed": 8275,
                    "id": 6,
                    "methodDecoded": false,
                    "operation": "DELEGATECALL",
                    "output": "0x0000000000000000000000000000000000000000000000000000000000000000",
                    "revert": false,
                    "revertMessage": "",
                    "selector": "0xe04f31e9",
                    "status": true,
                    "value": "0"
                },
                "nodeType": 0
            },
            "7": {
                "invocation": {
                    "address": "0xf61726edf017ce5bdc0bf262cfb4ae8c4a5faf49",
                    "callData": "0x",
                    "decodedMethod": null,
                    "errorInfo": "insufficient balance for transfer",
                    "fromAddress": "0x795ebe510e93d0bcb6545e93d93e5eeb1e88c51c",
                    "gasUsed": 0,
                    "id": 7,
                    "methodDecoded": false,
                    "operation": "CALL",
                    "output": "",
                    "revert": false,
                    "revertMessage": "",
                    "selector": "fallback",
                    "status": false,
                    "value": "3.445967"
                },
                "nodeType": 0
            }
        },
        "gasFlame": [
            {
                "children": [
                    {
                        "children": [
                            {
                                "children": [],
                                "depth": 0,
                                "name": "Initial Gas",
                                "value": 28312
                            },
                            {
                                "children": [
                                    {
                                        "children": [
                                            {
                                                "children": [],
                                                "depth": 2,
                                                "name": "ecrecover",
                                                "value": 3000
                                            },
                                            {
                                                "children": [
                                                    {
                                                        "children": [
                                                            {
                                                                "children": [
                                                                    {
                                                                        "children": [
                                                                            {
                                                                                "children": [],
                                                                                "depth": 6,
                                                                                "name": "fallback",
                                                                                "value": 0
                                                                            }
                                                                        ],
                                                                        "depth": 5,
                                                                        "name": "0xe04f31e9",
                                                                        "value": 8275
                                                                    }
                                                                ],
                                                                "depth": 4,
                                                                "name": "0xe04f31e9",
                                                                "value": 9154
                                                            }
                                                        ],
                                                        "depth": 3,
                                                        "name": "0xd7f31eb9",
                                                        "value": 12633
                                                    }
                                                ],
                                                "depth": 2,
                                                "name": "0xd7f31eb9",
                                                "value": 13506
                                            }
                                        ],
                                        "depth": 1,
                                        "name": "0x72262699",
                                        "value": 25951
                                    }
                                ],
                                "depth": 0,
                                "name": "Executed Gas",
                                "value": 26848
                            }
                        ],
                        "depth": -1,
                        "name": "Actual Gas Used",
                        "value": 55160
                    },
                    {
                        "children": [],
                        "depth": -1,
                        "name": "Refunded Gas",
                        "value": 0
                    }
                ],
                "depth": -2,
                "name": "Total Gas",
                "value": 55160
            }
        ],
        "isConfirmed": true,
        "mainTrace": [
            {
                "children": [
                    {
                        "children": [
                            {
                                "children": [
                                    {
                                        "children": [],
                                        "depth": 2,
                                        "id": 2,
                                        "order": 2
                                    },
                                    {
                                        "children": [
                                            {
                                                "children": [
                                                    {
                                                        "children": [
                                                            {
                                                                "children": [
                                                                    {
                                                                        "children": [],
                                                                        "depth": 6,
                                                                        "id": 7,
                                                                        "order": 7
                                                                    }
                                                                ],
                                                                "depth": 5,
                                                                "id": 6,
                                                                "order": 6
                                                            }
                                                        ],
                                                        "depth": 4,
                                                        "id": 5,
                                                        "order": 5
                                                    }
                                                ],
                                                "depth": 3,
                                                "id": 4,
                                                "order": 4
                                            }
                                        ],
                                        "depth": 2,
                                        "id": 3,
                                        "order": 3
                                    }
                                ],
                                "depth": 1,
                                "id": 1,
                                "order": 1
                            }
                        ],
                        "depth": 0,
                        "id": 0,
                        "order": 0
                    }
                ],
                "depth": -1,
                "id": -1,
                "order": -1
            }
        ],
        "mainTraceNodeCount": 8,
        "parentIdMap": {
            "0": -1,
            "1": 0,
            "2": 1,
            "3": 1,
            "4": 3,
            "5": 4,
            "6": 5,
            "7": 6
        },
        "tidyTrace": [
            {
                "children": [
                    {
                        "children": [
                            {
                                "children": [
                                    {
                                        "children": [],
                                        "depth": 2,
                                        "id": 2,
                                        "order": 2
                                    },
                                    {
                                        "children": [
                                            {
                                                "children": [
                                                    {
                                                        "children": [
                                                            {
                                                                "children": [
                                                                    {
                                                                        "children": [],
                                                                        "depth": 6,
                                                                        "id": 7,
                                                                        "order": 7
                                                                    }
                                                                ],
                                                                "depth": 5,
                                                                "id": 6,
                                                                "order": 6
                                                            }
                                                        ],
                                                        "depth": 4,
                                                        "id": 5,
                                                        "order": 5
                                                    }
                                                ],
                                                "depth": 3,
                                                "id": 4,
                                                "order": 4
                                            }
                                        ],
                                        "depth": 2,
                                        "id": 3,
                                        "order": 3
                                    }
                                ],
                                "depth": 1,
                                "id": 1,
                                "order": 1
                            }
                        ],
                        "depth": 0,
                        "id": 0,
                        "order": 0
                    }
                ],
                "depth": -1,
                "id": -1,
                "order": -1
            }
        ],
        "tidyTraceNodeCount": 8
    },
    "state_change": {
        "stateChanges": [
            {
                "address": "0x1ac5de26e62defedf0b1c1539cc93d4329384971",
                "erc": "",
                "slots": [
                    {
                        "current": "0x0000000000000000000000000000000000000000000000000000000000000006",
                        "key": "0x0000000000000000000000000000000000000000000000000000000000000003",
                        "prev": "0x0000000000000000000000000000000000000000000000000000000000000005"
                    }
                ],
                "storageVariables": []
            }
        ]
    }
}