{
    "balance_change": {
        "balanceChanges": [
            {
                "account": "0xf49270dc1402c6a1c67a02e8b52c573f0e8edc7f",
                "assets": [
                    {
                        "address": "0xc02aaa39b223fe8d0a0e5c4f27ead9083c756cc2",
                        "amount": "0.02",
                        "iconUrl": "https://assets.blocksec.com/icon/f1cb2d02c471d545bbc7722daf3277fd852d98e63d118771af7047bd8256c516.png",
                        "isERC1155": false,
                        "isERC721": false,
                        "sign": false,
                        "value": "76.41583400000000438"
                    },
                    {
                        "address": "0xb031a5cb03172e28ea3f5047490f5806e6de939f",
                        "amount": "13,509,524.862325944136516925",
                        "iconUrl": "",
                        "isERC1155": false,
                        "isERC721": false,
                        "sign": true,
                        "value": "60.46237738"
                    }
                ]
            },
            {
                "account": "0xb031a5cb03172e28ea3f5047490f5806e6de939f",
                "assets": [
                    {
                        "address": "0xb031a5cb03172e28ea3f5047490f5806e6de939f",
                        "amount": "3,377,381.215581486034129231",
                        "iconUrl": "",
                        "isERC1155": false,
                        "isERC721": false,
                        "sign": true,
                        "value": "14.99247848"
                    }
                ]
            },
            {
                "account": "0xbfe8e5ab76750abebacffae8d340702c13a10544",
                "assets": [
                    {
                        "address": "0xc02aaa39b223fe8d0a0e5c4f27ead9083c756cc2",
                        "amount": "0.02",
                        "iconUrl": "https://assets.blocksec.com/icon/f1cb2d02c471d545bbc7722daf3277fd852d98e63d118771af7047bd8256c516.png",
                        "isERC1155": false,
                        "isERC721": false,
                        "sign": true,
                        "value": "76.41583400000000438"
                    },
                    {
                        "address": "0xb031a5cb03172e28ea3f5047490f5806e6de939f",
                        "amount": "16,886,906.077907430170646157",
                        "iconUrl": "",
                        "isERC1155": false,
                        "isERC721": false,
                        "sign": false,
                        "value": "75.20799054"
                    }
                ]
            }
        ]
    },
    "profile": {
        "basic_info": {
            "baseFee": "4.534986824",
            "blockNumber": 20000106,
            "callData": "0x5c11d79500000000000000000000000000000000000000000000000000470de4df82000000000000000000000000000000000000000000000005966067b63d8c0756229e00000000000000000000000000000000000000000000000000000000000000a0000000000000000000000000f49270dc1402c6a1c67a02e8b52c573f0e8edc7f00000000000000000000000000000000000000000000000000000000665ba8420000000000000000000000000000000000000000000000000000000000000002000000000000000000000000c02aaa39b223fe8d0a0e5c4f27ead9083c756cc2000000000000000000000000b031a5cb03172e28ea3f5047490f5806e6de939f",
            "debugEnable": true,
            "errorInfo": "",
            "eventCount": 5,
            "feeRecipient": "0x388c818ca8b9251b393131c08a736a67ccb19297",
            "formatValue": "0",
            "gasLimit": 286260,
            "gasPrice": "6.534986824",
            "gasUsed": 201256,
            "intTxnCount": 9,
            "internalRevert": false,
            "internalRevertMessage": "",
            "isContractCreation": false,
            "isFlashloan": false,
            "maxFee": "13.069973648",
            "nonce": 168,
            "overwritedBlockNumber": -1,
            "priorityFee": "2",
            "receiver": "0x7a250d5630b4cf539739df2c5dacb4c659f2488d",
            "revertMessage": "",
            "sender": "0xf49270dc1402c6a1c67a02e8b52c573f0e8edc7f",
            "simulationEnable": true,
            "sourceTxnHash": "0x5e9d917104b86341e44c806ccaed8c26537b2f63968d486723a08eda27e9a753",
            "status": true,
            "timestamp": "2024-06-01T22:58:11Z",
            "transactionFee": "0.001315205308250944",
            "txnHash": "0x5e9d917104b86341e44c806ccaed8c26537b2f63968d486723a08eda27e9a753",
            "txnIndex": 42,
            "type": 2,
            "value": "0"
        },
        "fund_flow": [
            {
                "amount": "0.02",
                "from": "0xf49270dc1402c6a1c67a02e8b52c573f0e8edc7f",
                "id": 1,
                "isERC1155": false,
                "isERC721": false,
                "isReverted": false,
                "order": 1,
                "to": "0xbfe8e5ab76750abebacffae8d340702c13a10544",
                "token": "0xc02aaa39b223fe8d0a0e5c4f27ead9083c756cc2"
            },
            {
                "amount": "3,377,381.215581486034129231",
                "from": "0xbfe8e5ab76750abebacffae8d340702c13a10544",
                "id": 2,
                "isERC1155": false,
                "isERC721": false,
                "isReverted": false,
                "order": 2,
                "to": "0xb031a5cb03172e28ea3f5047490f5806e6de939f",
                "token": "0xb031a5cb03172e28ea3f5047490f5806e6de939f"
            },
            {
                "amount": "13,509,524.862325944136516925",
                "from": "0xbfe8e5ab76750abebacffae8d340702c13a10544",
                "id": 3,
                "isERC1155": false,
                "isERC721": false,
                "isReverted": false,
                "order": 3,
                "to": "0xf49270dc1402c6a1c67a02e8b52c573f0e8edc7f",
                "token": "0xb031a5cb03172e28ea3f5047490f5806e6de939f"
            }
        ],
        "token_infos": [
            {
                "address": "0xb031a5cb03172e28ea3f5047490f5806e6de939f",
                "decimals": 18
            },
            {
                "address": "0xc02aaa39b223fe8d0a0e5c4f27ead9083c756cc2",
                "decimals": 18
            },
            {
                "address": "0xeeeeeeeeeeeeeeeeeeeeeeeeeeeeeeeeeeeeeeee",
                "decimals": 18
            }
        ]
    },
    "address_label": {
        "labels": [
            {
                "address": "0xbfe8e5ab76750abebacffae8d340702c13a10544",
                "label": "UNI-V2"
            },
            {
                "address": "0x0000000000000000000000000000000000000003",
                "label": "Precompiled"
            },
            {
                "address": "0x0000000000000000000000000000000000000004",
                "label": "Precompiled"
            },
            {
                "address": "0x7a250d5630b4cf539739df2c5dacb4c659f2488d",
                "label": "Uniswap V2: Router 2"
            },
            {
                "address": "0xb031a5cb03172e28ea3f5047490f5806e6de939f",
                "label": "RXC"
            },
            {
                "address": "0x388c818ca8b9251b393131c08a736a67ccb19297",
                "label": "LidoExecutionLayerRewardsVault"
            },
            {
                "address": "0x0000000000000000000000000000000000000001",
                "label": "Precompiled"
            },
            {
                "address": "0x0000000000000000000000000000000000000002",
                "label": "Precompiled"
            },
            {
                "address": "0xeeeeeeeeeeeeeeeeeeeeeeeeeeeeeeeeeeeeeeee",
                "label": "Ether"
            },
            {
                "address": "0xc02aaa39b223fe8d0a0e5c4f27ead9083c756cc2",
                "label": "Wrapped Ether (WETH)"
            }
        ]
    },
    "trace": {
        "accountLabels": null,
        "dataMap": {
            "-1": {
                "invocation": {
                    "address": "0xf49270dc1402c6a1c67a02e8b52c573f0e8edc7f",
                    "callData": "",
                    "decodedMethod": null,
                    "errorInfo": "",
                    "fromAddress": "",
                    "gasUsed": 0,
                    "id": -1,
                    "methodDecoded": false,
                    "operation": "",
                    "output": "",
                    "revert": false,
                    "revertMessage": "",
                    "selector": "",
                    "status": false,
                    "value": ""
                },
                "nodeType": 0
            },
            "0": {
                "invocation": {
                    "address": "0x7a250d5630b4cf539739df2c5dacb4c659f2488d",
                    "callData": "0x00000000000000000000000000000000000000000000000000470de4df82000000000000000000000000000000000000000000000005966067b63d8c0756229e00000000000000000000000000000000000000000000000000000000000000a0000000000000000000000000f49270dc1402c6a1c67a02e8b52c573f0e8edc7f00000000000000000000000000000000000000000000000000000000665ba8420000000000000000000000000000000000000000000000000000000000000002000000000000000000000000c02aaa39b223fe8d0a0e5c4f27ead9083c756cc2000000000000000000000000b031a5cb03172e28ea3f5047490f5806e6de939f",
                    "decodedMethod": {
                        "callParams": [
                            {
                                "name": "amountIn",
                                "type": "uint256",
                                "value": "20,000,000,000,000,000"
                            },
                            {
                                "name": "amountOutMin",
                                "type": "uint256",
                                "value": "6,754,762,431,162,972,068,258,462"
                            },
                            {
                                "name": "path",
                                "type": "address[]",
                                "value": [
                                    "0xc02aaa39b223fe8d0a0e5c4f27ead9083c756cc2",
                                    "0xb031a5cb03172e28ea3f5047490f5806e6de939f"
                                ]
                            },
                            {
                                "name": "to",
                                "type": "address",
                                "value": "0xf49270dc1402c6a1c67a02e8b52c573f0e8edc7f"
                            },
                            {
                                "name": "deadline",
                                "type": "uint256",
                                "value": "1,717,282,882"
                            }
                        ],
                        "constructorArguments": "",
                        "name": "swapExactTokensForTokensSupportingFeeOnTransferTokens",
                        "returnParams": [],
                        "signature": "swapExactTokensForTokensSupportingFeeOnTransferTokens(uint256,uint256,address[],address,uint256)"
                    },
                    "errorInfo": "",
                    "fromAddress": "0xf49270dc1402c6a1c67a02e8b52c573f0e8edc7f",
                    "gasUsed": 201256,
                    "id": 0,
                    "methodDecoded": true,
                    "operation": "CALL",
                    "output": "",
                    "revert": false,
                    "revertMessage": "",
                    "selector": "0x5c11d795",
                    "status": true,
                    "value": "0"
                },
                "nodeType": 0
            },
            "1": {
                "invocation": {
                    "address": "0xc02aaa39b223fe8d0a0e5c4f27ead9083c756cc2",
                    "callData": "0x000000000000000000000000f49270dc1402c6a1c67a02e8b52c573f0e8edc7f000000000000000000000000bfe8e5ab76750abebacffae8d340702c13a1054400000000000000000000000000000000000000000000000000470de4df820000",
                    "decodedMethod": {
                        "callParams": [
                            {
                                "name": "src",
                                "type": "address",
                                "value": "0xf49270dc1402c6a1c67a02e8b52c573f0e8edc7f"
                            },
                            {
                                "name": "dst",
                                "type": "address",
                                "value": "0xbfe8e5ab76750abebacffae8d340702c13a10544"
                            },
                            {
                                "decimalAvailable": true,
                                "name": "wad",
                                "type": "uint256",
                                "value": "20,000,000,000,000,000"
                            }
                        ],
                        "constructorArguments": "",
                        "name": "transferFrom",
                        "returnParams": [
                            {
                                "name": "",
                                "type": "bool",
                                "value": true
                            }
                        ],
                        "signature": "transferFrom(address,address,uint256)"
                    },
                    "errorInfo": "",
                    "fromAddress": "0x7a250d5630b4cf539739df2c5dacb4c659f2488d",
                    "gasUsed": 15025,
                    "id": 1,
                    "methodDecoded": true,
                    "operation": "CALL",
                    "output": "0x0000000000000000000000000000000000000000000000000000000000000001",
                    "revert": false,
                    "revertMessage": "",
                    "selector": "0x23b872dd",
                    "status": true,
                    "value": "0"
                },
                "nodeType": 0
            },
            "10": {
                "invocation": {
                    "address": "0xb031a5cb03172e28ea3f5047490f5806e6de939f",
                    "callData": "0x000000000000000000000000bfe8e5ab76750abebacffae8d340702c13a10544",
                    "decodedMethod": {
                        "callParams": [
                            {
                                "name": "account",
                                "type": "address",
                                "value": "0xbfe8e5ab76750abebacffae8d340702c13a10544"
                            }
                        ],
                        "constructorArguments": "",
                        "name": "balanceOf",
                        "returnParams": [
                            {
                                "decimalAvailable": true,
                                "name": "",
                                "type": "uint256",
                                "value": "6,151,654,312,122,412,575,472,766,856"
                            }
                        ],
                        "signature": "balanceOf(address)"
                    },
                    "errorInfo": "",
                    "fromAddress": "0xbfe8e5ab76750abebacffae8d340702c13a10544",
                    "gasUsed": 963,
                    "id": 10,
                    "methodDecoded": true,
                    "operation": "STATICCALL",
                    "output": "0x000000000000000000000000000000000000000013e087787aa961a0e2b84f88",
                    "revert": false,
                    "revertMessage": "",
                    "selector": "0x70a08231",
                    "status": true,
                    "value": "0"
                },
                "nodeType": 0
            },
            "11": {
                "invocation": {
                    "address": "0xc02aaa39b223fe8d0a0e5c4f27ead9083c756cc2",
                    "callData": "0x000000000000000000000000bfe8e5ab76750abebacffae8d340702c13a10544",
                    "decodedMethod": {
                        "callParams": [
                            {
                                "name": "",
                                "type": "address",
                                "value": "0xbfe8e5ab76750abebacffae8d340702c13a10544"
                            }
                        ],
                        "constructorArguments": "",
                        "name": "balanceOf",
                        "returnParams": [
                            {
                                "decimalAvailable": true,
                                "name": "",
                                "type": "uint256",
                                "value": "7,283,852,029,365,998,840"
                            }
                        ],
                        "signature": "balanceOf(address)"
                    },
                    "errorInfo": "",
                    "fromAddress": "0xbfe8e5ab76750abebacffae8d340702c13a10544",
                    "gasUsed": 534,
                    "id": 11,
                    "methodDecoded": true,
                    "operation": "STATICCALL",
                    "output": "0x000000000000000000000000000000000000000000000000651570d446de54f8",
                    "revert": false,
                    "revertMessage": "",
                    "selector": "0x70a08231",
                    "status": true,
                    "value": "0"
                },
                "nodeType": 0
            },
            "12": {
                "event": {
                    "contract": "0xbfe8e5ab76750abebacffae8d340702c13a10544",
                    "decodedLog": {
                        "name": "Sync",
                        "params": [
                            {
                                "name": "reserve0",
                                "type": "uint112",
                                "value": "6,151,654,312,122,412,575,472,766,856"
                            },
                            {
                                "name": "reserve1",
                                "type": "uint112",
                                "value": "7,283,852,029,365,998,840"
                            }
                        ],
                        "signature": "Sync(uint112,uint112)"
                    },
                    "id": 12,
                    "logData": "0x000000000000000000000000000000000000000013e087787aa961a0e2b84f88000000000000000000000000000000000000000000000000651570d446de54f8",
                    "logDecoded": true,
                    "operation": "EVENT",
                    "revert": false,
                    "status": true,
                    "topics": [
                        "0x1c411e9a96e071241c2f21f7726b17ae89e3cab4c78be50e062b03a9fffbbad1"
                    ]
                },
                "nodeType": 1
            },
            "13": {
                "event": {
                    "contract": "0xbfe8e5ab76750abebacffae8d340702c13a10544",
                    "decodedLog": {
                        "name": "Swap",
                        "params": [
                            {
                                "name": "sender",
                                "type": "address",
                                "value": "0x7a250d5630b4cf539739df2c5dacb4c659f2488d"
                            },
                            {
                                "name": "to",
                                "type": "address",
                                "value": "0xf49270dc1402c6a1c67a02e8b52c573f0e8edc7f"
                            },
                            {
                                "name": "amount0In",
                                "type": "uint256",
                                "value": "0"
                            },
                            {
                                "name": "amount1In",
                                "type": "uint256",
                                "value": "20,000,000,000,000,000"
                            },
                            {
                                "name": "amount0Out",
                                "type": "uint256",
                                "value": "16,886,906,077,907,430,170,646,156"
                            },
                            {
                                "name": "amount1Out",
                                "type": "uint256",
                                "value": "0"
                            }
                        ],
                        "signature": "Swap(address,uint256,uint256,uint256,uint256,address)"
                    },
                    "id": 13,
                    "logData": "0x000000000000000000000000000000000000000000000000000000000000000000000000000000000000000000000000000000000000000000470de4df8200000000000000000000000000000000000000000000000df7f1034799de1257568c0000000000000000000000000000000000000000000000000000000000000000",
                    "logDecoded": true,
                    "operation": "EVENT",
                    "revert": false,
                    "status": true,
                    "topics": [
                        "0xd78ad95fa46c994b6551d0da85fc275fe613ce37657fb8d5e3d130840159d822",
                        "0x0000000000000000000000007a250d5630b4cf539739df2c5dacb4c659f2488d",
                        "0x000000000000000000000000f49270dc1402c6a1c67a02e8b52c573f0e8edc7f"
                    ]
                },
                "nodeType": 1
            },
            "14": {
                "invocation": {
                    "address": "0xb031a5cb03172e28ea3f5047490f5806e6de939f",
                    "callData": "0x000000000000000000000000f49270dc1402c6a1c67a02e8b52c573f0e8edc7f",
                    "decodedMethod": {
                        "callParams": [
                            {
                                "name": "account",
                                "type": "address",
                                "value": "0xf49270dc1402c6a1c67a02e8b52c573f0e8edc7f"
                            }
                        ],
                        "constructorArguments": "",
                        "name": "balanceOf",
                        "returnParams": [
                            {
                                "decimalAvailable": true,
                                "name": "",
                                "type": "uint256",
                                "value": "13,509,524,862,325,944,136,516,925"
                            }
                        ],
                        "signature": "balanceOf(address)"
                    },
                    "errorInfo": "",
                    "fromAddress": "0x7a250d5630b4cf539739df2c5dacb4c659f2488d",
                    "gasUsed": 963,
                    "id": 14,
                    "methodDecoded": true,
                    "operation": "STATICCALL",
                    "output": "0x0000000000000000000000000000000000000000000b2cc0cf6c7b180eac453d",
                    "revert": false,
                    "revertMessage": "",
                    "selector": "0x70a08231",
                    "status": true,
                    "value": "0"
                },
                "nodeType": 0
            },
            "2": {
                "event": {
                    "contract": "0xc02aaa39b223fe8d0a0e5c4f27ead9083c756cc2",
                    "decodedLog": {
                        "name": "Transfer",
                        "params": [
                            {
                                "name": "src",
                                "type": "address",
                                "value": "0xf49270dc1402c6a1c67a02e8b52c573f0e8edc7f"
                            },
                            {
                                "name": "dst",
                                "type": "address",
                                "value": "0xbfe8e5ab76750abebacffae8d340702c13a10544"
                            },
                            {
                                "decimalAvailable": true,
                                "name": "wad",
                                "type": "uint256",
                                "value": "20,000,000,000,000,000"
                            }
                        ],
                        "signature": "Transfer(address,address,uint256)"
                    },
                    "id": 2,
                    "logData": "0x00000000000000000000000000000000000000000000000000470de4df820000",
                    "logDecoded": true,
                    "operation": "EVENT",
                    "revert": false,
                    "status": true,
                    "topics": [
                        "0xddf252ad1be2c89b69c2b068fc378daa952ba7f163c4a11628f55a4df523b3ef",
                        "0x000000000000000000000000f49270dc1402c6a1c67a02e8b52c573f0e8edc7f",
                        "0x000000000000000000000000bfe8e5ab76750abebacffae8d340702c13a10544"
                    ]
                },
                "nodeType": 1
            },
            "3": {
                "invocation": {
                    "address": "0xb031a5cb03172e28ea3f5047490f5806e6de939f",
                    "callData": "0x000000000000000000000000f49270dc1402c6a1c67a02e8b52c573f0e8edc7f",
                    "decodedMethod": {
                        "callParams": [
                            {
                                "name": "account",
                                "type": "address",
                                "value": "0xf49270dc1402c6a1c67a02e8b52c573f0e8edc7f"
                            }
                        ],
                        "constructorArguments": "",
                        "name": "balanceOf",
                        "returnParams": [
                            {
                                "decimalAvailable": true,
                                "name": "",
                                "type": "uint256",
                                "value": "0"
                            }
                        ],
                        "signature": "balanceOf(address)"
                    },
                    "errorInfo": "",
                    "fromAddress": "0x7a250d5630b4cf539739df2c5dacb4c659f2488d",
                    "gasUsed": 2963,
                    "id": 3,
                    "methodDecoded": true,
                    "operation": "STATICCALL",
                    "output": "0x0000000000000000000000000000000000000000000000000000000000000000",
                    "revert": false,
                    "revertMessage": "",
                    "selector": "0x70a08231",
                    "status": true,
                    "value": "0"
                },
                "nodeType": 0
            },
            "4": {
                "invocation": {
                    "address": "0xbfe8e5ab76750abebacffae8d340702c13a10544",
                    "callData": "0x",
                    "decodedMethod": {
                        "callParams": [],
                        "constructorArguments": "",
                        "name": "getReserves",
                        "returnParams": [
                            {
                                "name": "_reserve0",
                                "type": "uint112",
                                "value": "6,168,541,218,200,320,005,643,413,012"
                            },
                            {
                                "name": "_reserve1",
                                "type": "uint112",
                                "value": "7,263,852,029,365,998,840"
                            },
                            {
                                "name": "_blockTimestampLast",
                                "type": "uint32",
                                "value": "1,717,282,679"
                            }
                        ],
                        "signature": "getReserves()"
                    },
                    "errorInfo": "",
                    "fromAddress": "0x7a250d5630b4cf539739df2c5dacb4c659f2488d",
                    "gasUsed": 2504,
                    "id": 4,
                    "methodDecoded": true,
                    "operation": "STATICCALL",
                    "output": "0x000000000000000000000000000000000000000013ee7f697df0fb7ef50fa61400000000000000000000000000000000000000000000000064ce62ef675c54f800000000000000000000000000000000000000000000000000000000665ba777",
                    "revert": false,
                    "revertMessage": "",
                    "selector": "0x0902f1ac",
                    "status": true,
                    "value": "0"
                },
                "nodeType": 0
            },
            "5": {
                "invocation": {
                    "address": "0xc02aaa39b223fe8d0a0e5c4f27ead9083c756cc2",
                    "callData": "0x000000000000000000000000bfe8e5ab76750abebacffae8d340702c13a10544",
                    "decodedMethod": {
                        "callParams": [
                            {
                                "name": "",
                                "type": "address",
                                "value": "0xbfe8e5ab76750abebacffae8d340702c13a10544"
                            }
                        ],
                        "constructorArguments": "",
                        "name": "balanceOf",
                        "returnParams": [
                            {
                                "decimalAvailable": true,
                                "name": "",
                                "type": "uint256",
                                "value": "7,283,852,029,365,998,840"
                            }
                        ],
                        "signature": "balanceOf(address)"
                    },
                    "errorInfo": "",
                    "fromAddress": "0x7a250d5630b4cf539739df2c5dacb4c659f2488d",
                    "gasUsed": 534,
                    "id": 5,
                    "methodDecoded": true,
                    "operation": "STATICCALL",
                    "output": "0x000000000000000000000000000000000000000000000000651570d446de54f8",
                    "revert": false,
                    "revertMessage": "",
                    "selector": "0x70a08231",
                    "status": true,
                    "value": "0"
                },
                "nodeType": 0
            },
            "6": {
                "invocation": {
                    "address": "0xbfe8e5ab76750abebacffae8d340702c13a10544",
                    "callData": "0x0000000000000000000000000000000000000000000df7f1034799de1257568c0000000000000000000000000000000000000000000000000000000000000000000000000000000000000000f49270dc1402c6a1c67a02e8b52c573f0e8edc7f00000000000000000000000000000000000000000000000000000000000000800000000000000000000000000000000000000000000000000000000000000000",
                    "decodedMethod": {
                        "callParams": [
                            {
                                "name": "amount0Out",
                                "type": "uint256",
                                "value": "16,886,906,077,907,430,170,646,156"
                            },
                            {
                                "name": "amount1Out",
                                "type": "uint256",
                                "value": "0"
                            },
                            {
                                "name": "to",
                                "type": "address",
                                "value": "0xf49270dc1402c6a1c67a02e8b52c573f0e8edc7f"
                            },
                            {
                                "name": "data",
                                "type": "bytes",
                                "value": "0x"
                            }
                        ],
                        "constructorArguments": "",
                        "name": "swap",
                        "returnParams": [],
                        "signature": "swap(uint256,uint256,address,bytes)"
                    },
                    "errorInfo": "",
                    "fromAddress": "0x7a250d5630b4cf539739df2c5dacb4c659f2488d",
                    "gasUsed": 144303,
                    "id": 6,
                    "methodDecoded": true,
                    "operation": "CALL",
                    "output": "",
                    "revert": false,
                    "revertMessage": "",
                    "selector": "0x022c0d9f",
                    "status": true,
                    "value": "0"
                },
                "nodeType": 0
            },
            "7": {
                "invocation": {
                    "address": "0xb031a5cb03172e28ea3f5047490f5806e6de939f",
                    "callData": "0x000000000000000000000000f49270dc1402c6a1c67a02e8b52c573f0e8edc7f0000000000000000000000000000000000000000000df7f1034799de1257568c",
                    "decodedMethod": {
                        "callParams": [
                            {
                                "name": "recipient",
                                "type": "address",
                                "value": "0xf49270dc1402c6a1c67a02e8b52c573f0e8edc7f"
                            },
                            {
                                "decimalAvailable": true,
                                "name": "amount",
                                "type": "uint256",
                                "value": "16,886,906,077,907,430,170,646,156"
                            }
                        ],
                        "constructorArguments": "",
                        "name": "transfer",
                        "returnParams": [
                            {
                                "name": "",
                                "type": "bool",
                                "value": true
                            }
                        ],
                        "signature": "transfer(address,uint256)"
                    },
                    "errorInfo": "",
                    "fromAddress": "0xbfe8e5ab76750abebacffae8d340702c13a10544",
                    "gasUsed": 111483,
                    "id": 7,
                    "methodDecoded": true,
                    "operation": "CALL",
                    "output": "0x0000000000000000000000000000000000000000000000000000000000000001",
                    "revert": false,
                    "revertMessage": "",
                    "selector": "0xa9059cbb",
                    "status": true,
                    "value": "0"
                },
                "nodeType": 0
            },
            "8": {
                "event": {
                    "contract": "0xb031a5cb03172e28ea3f5047490f5806e6de939f",
                    "decodedLog": {
                        "name": "Transfer",
                        "params": [
                            {
                                "name": "from",
                                "type": "address",
                                "value": "0xbfe8e5ab76750abebacffae8d340702c13a10544"
                            },
                            {
                                "name": "to",
                                "type": "address",
                                "value": "0xb031a5cb03172e28ea3f5047490f5806e6de939f"
                            },
                            {
                                "decimalAvailable": true,
                                "name": "value",
                                "type": "uint256",
                                "value": "3,377,381,215,581,486,034,129,231"
                            }
                        ],
                        "signature": "Transfer(address,address,uint256)"
                    },
                    "id": 8,
                    "logData": "0x00000000000000000000000000000000000000000002cb3033db1ec603ab114f",
                    "logDecoded": true,
                    "operation": "EVENT",
                    "revert": false,
                    "status": true,
                    "topics": [
                        "0xddf252ad1be2c89b69c2b068fc378daa952ba7f163c4a11628f55a4df523b3ef",
                        "0x000000000000000000000000bfe8e5ab76750abebacffae8d340702c13a10544",
                        "0x000000000000000000000000b031a5cb03172e28ea3f5047490f5806e6de939f"
                    ]
                },
                "nodeType": 1
            },
            "9": {
                "event": {
                    "contract": "0xb031a5cb03172e28ea3f5047490f5806e6de939f",
                    "decodedLog": {
                        "name": "Transfer",
                        "params": [
                            {
                                "name": "from",
                                "type": "address",
                                "value": "0xbfe8e5ab76750abebacffae8d340702c13a10544"
                            },
                            {
                                "name": "to",
                                "type": "address",
                                "value": "0xf49270dc1402c6a1c67a02e8b52c573f0e8edc7f"
                            },
                            {
                                "decimalAvailable": true,
                                "name": "value",
                                "type": "uint256",
                                "value": "13,509,524,862,325,944,136,516,925"
                            }
                        ],
                        "signature": "Transfer(address,address,uint256)"
                    },
                    "id": 9,
                    "logData": "0x0000000000000000000000000000000000000000000b2cc0cf6c7b180eac453d",
                    "logDecoded": true,
                    "operation": "EVENT",
                    "revert": false,
                    "status": true,
                    "topics": [
                        "0xddf252ad1be2c89b69c2b068fc378daa952ba7f163c4a11628f55a4df523b3ef",
                        "0x000000000000000000000000bfe8e5ab76750abebacffae8d340702c13a10544",
                        "0x000000000000000000000000f49270dc1402c6a1c67a02e8b52c573f0e8edc7f"
                    ]
                },
                "nodeType": 1
            }
        },
        "gasFlame": [
            {
                "children": [
                    {
                        "children": [
                            {
                                "children": [],
                                "depth": 0,
                                "name": "Initial Gas",
                                "value": 23072
                            },
                            {
                                "children": [
                                    {
                                        "children": [],
                                        "depth": 1,
                                        "name": "transferFrom",
                                        "value": 15025
                                    },
                                    {
                                        "children": [],
                                        "depth": 1,
                                        "name": "balanceOf",
                                        "value": 2963
                                    },
                                    {
                                        "children": [],
                                        "depth": 1,
                                        "name": "getReserves",
                                        "value": 2504
                                    },
                                    {
                                        "children": [],
                                        "depth": 1,
                                        "name": "balanceOf",
                                        "value": 534
                                    },
                                    {
                                        "children": [
                                            {
                                                "children": [],
                                                "depth": 2,
                                                "name": "transfer",
                                                "value": 111483
                                            },
                                            {
                                                "children": [],
                                                "depth": 2,
                                                "name": "balanceOf",
                                                "value": 963
                                            },
                                            {
                                                "children": [],
                                                "depth": 2,
                                                "name": "balanceOf",
                                                "value": 534
                                            }
                                        ],
                                        "depth": 1,
                                        "name": "swap",
                                        "value": 144303
                                    },
                                    {
                                        "children": [],
                                        "depth": 1,
                                        "name": "balanceOf",
                                        "value": 963
                                    }
                                ],
                                "depth": 0,
                                "name": "Executed Gas",
                                "value": 180984
                            }
                        ],
                        "depth": -1,
                        "name": "Actual Gas Used",
                        "value": 201256
                    },
                    {
                        "children": [],
                        "depth": -1,
                        "name": "Refunded Gas",
                        "value": 2800
                    }
                ],
                "depth": -2,
                "name": "Total Gas",
                "value": 204056
            }
        ],
        "isConfirmed": true,
        "mainTrace": [
            {
                "children": [
                    {
                        "children": [
                            {
                                "children": [
                                    {
                                        "children": [],
                                        "depth": 2,
                                        "id": 2,
                                        "order": 2
                                    }
                                ],
                                "depth": 1,
                                "id": 1,
                                "order": 1
                            },
                            {
                                "children": [],
                                "depth": 1,
                                "id": 3,
                                "order": 3
                            },
                            {
                                "children": [],
                                "depth": 1,
                                "id": 4,
                                "order": 4
                            },
                            {
                                "children": [],
                                "depth": 1,
                                "id": 5,
                                "order": 5
                            },
                            {
                                "children": [
                                    {
                                        "children": [
                                            {
                                                "children": [],
                                                "depth": 3,
                                                "id": 8,
                                                "order": 8
                                            },
                                            {
                                                "children": [],
                                                "depth": 3,
                                                "id": 9,
                                                "order": 9
                                            }
                                        ],
                                        "depth": 2,
                                        "id": 7,
                                        "order": 7
                                    },
                                    {
                                        "children": [],
                                        "depth": 2,
                                        "id": 10,
                                        "order": 10
                                    },
                                    {
                                        "children": [],
                                        "depth": 2,
                                        "id": 11,
                                        "order": 11
                                    },
                                    {
                                        "children": [],
                                        "depth": 2,
                                        "id": 12,
                                        "order": 12
                                    },
                                    {
                                        "children": [],
                                        "depth": 2,
                                        "id": 13,
                                        "order": 13
                                    }
                                ],
                                "depth": 1,
                                "id": 6,
                                "order": 6
                            },
                            {
                                "children": [],
                                "depth": 1,
                                "id": 14,
                                "order": 14
                            }
                        ],
                        "depth": 0,
                        "id": 0,
                        "order": 0
                    }
                ],
                "depth": -1,
                "id": -1,
                "order": -1
            }
        ],
        "mainTraceNodeCount": 15,
        "parentIdMap": {
            "0": -1,
            "1": 0,
            "10": 6,
            "11": 6,
            "12": 6,
            "13": 6,
            "14": 0,
            "2": 1,
            "3": 0,
            "4": 0,
            "5": 0,
            "6": 0,
            "7": 6,
            "8": 7,
            "9": 7
        },
        "tidyTrace": [
            {
                "children": [
                    {
                        "children": [
                            {
                                "children": [
                                    {
                                        "children": [],
                                        "depth": 2,
                                        "id": 2,
                                        "order": 2
                                    }
                                ],
                                "depth": 1,
                                "id": 1,
                                "order": 1
                            },
                            {
                                "children": [
                                    {
                                        "children": [
                                            {
                                                "children": [],
                                                "depth": 3,
                                                "id": 8,
                                                "order": 8
                                            },
                                            {
                                                "children": [],
                                                "depth": 3,
                                                "id": 9,
                                                "order": 9
                                            }
                                        ],
                                        "depth": 2,
                                        "id": 7,
                                        "order": 7
                                    },
                                    {
                                        "children": [],
                                        "depth": 2,
                                        "id": 12,
                                        "order": 12
                                    },
                                    {
                                        "children": [],
                                        "depth": 2,
                                        "id": 13,
                                        "order": 13
                                    }
                                ],
                                "depth": 1,
                                "id": 6,
                                "order": 6
                            }
                        ],
                        "depth": 0,
                        "id": 0,
                        "order": 0
                    }
                ],
                "depth": -1,
                "id": -1,
                "order": -1
            }
        ],
        "tidyTraceNodeCount": 9
    },
    "state_change": {
        "stateChanges": [
            {
                "address": "0xb031a5cb03172e28ea3f5047490f5806e6de939f",
                "erc": "",
                "slots": [
                    {
                        "current": "0x0000000000000000000000000000000000000000000000000000000001312d6a",
                        "key": "0x5687ca7962d5f4c09672567c365bb85afd87cd0894e974860b8aff4fe87864b8",
                        "prev": "0x0000000000000000000000000000000000000000000000000000000000000000"
                    },
                    {
                        "current": "0x000000000000000000000000000000000000000000114e10235e5140ea0b114e",
                        "key": "0x0000000000000000000000000000000000000000000000000000000000000014",
                        "prev": "0x0000000000000000000000000000000000000000000e82dfef83327ae65fffff"
                    },
                    {
                        "current": "0x000000000000000000000000000000000000000013e087787aa961a0e2b84f88",
                        "key": "0x7facf6dd1c998b301dd1e698bfb449b0d826039c1e0a17d8c7e3284102281524",
                        "prev": "0x000000000000000000000000000000000000000013ee7f697df0fb7ef50fa614"
                    },
                    {
                        "current": "0x000000000000000000000000000000000000000000114e10235e5140ea0b114e",
                        "key": "0xd9e4bef79d3660067b1a662cbbbfade59691568107f2cb35b1fe1f3346656740",
                        "prev": "0x0000000000000000000000000000000000000000000e82dfef83327ae65fffff"
                    },
                    {
                        "current": "0x0000000000000000000000000000000000000000000b2cc0cf6c7b180eac453d",
                        "key": "0x6de0e6263e9a9f02bd9e0a15e77392ad3e0cd3e35a7f7cacff44845fb0a4f72f",
                        "prev": "0x0000000000000000000000000000000000000000000000000000000000000000"
                    }
                ],
                "storageVariables": []
            },
            {
                "address": "0xbfe8e5ab76750abebacffae8d340702c13a10544",
                "erc": "ERC-20",
                "slots": [
                    {
                        "current": "0x0000000000000000000000000000000000000000131a83599f0ec2c5479e1300",
                        "key": "0x0000000000000000000000000000000000000000000000000000000000000009",
                        "prev": "0x000000000000000000000000000000000000000012ddd2680cea52668554d7b8"
                    },
                    {
                        "current": "0x00000000000000000000000000d9d8c10ee1a9103cef0a83bb5eb374af352644",
                        "key": "0x000000000000000000000000000000000000000000000000000000000000000a",
                        "prev": "0x00000000000000000000000000d77959ed0cbc4eac4e0ecb7a9533a03b99ebac"
                    },
                    {
                        "current": "0x665ba783000000000000651570d446de54f8000013e087787aa961a0e2b84f88",
                        "key": "0x0000000000000000000000000000000000000000000000000000000000000008",
                        "prev": "0x665ba77700000000000064ce62ef675c54f8000013ee7f697df0fb7ef50fa614"
                    }
                ],
                "storageVariables": [
                    {
                        "name": "price1CumulativeLast",
                        "type": "uint256",
                        "value": {
                            "current": "4858143656120108924003229370218513828538558020",
                            "prev": "4805231404505644818253099367056062267143089068",
                            "typeTag": 1
                        }
                    },
                    {
                        "name": "reserve0",
                        "type": "uint112",
                        "value": {
                            "current": "6151654312122412575472766856",
                            "prev": "6168541218200320005643413012",
                            "typeTag": 1
                        }
                    },
                    {
                        "name": "reserve1",
                        "type": "uint112",
                        "value": {
                            "current": "7283852029365998840",
                            "prev": "7263852029365998840",
                            "typeTag": 1
                        }
                    },
                    {
                        "name": "blockTimestampLast",
                        "type": "uint32",
                        "value": {
                            "current": "1717282691",
                            "prev": "1717282679",
                            "typeTag": 1
                        }
                    },
                    {
                        "name": "price0CumulativeLast",
                        "type": "uint256",
                        "value": {
                            "current": "5912267541146327402256667392",
                            "prev": "5838896399272477449226868664",
                            "typeTag": 1
                        }
                    }
                ]
            },
            {
                "address": "0xc02aaa39b223fe8d0a0e5c4f27ead9083c756cc2",
                "erc": "ERC-20",
                "slots": [
                    {
                        "current": "0x000000000000000000000000000000000000000000000000651570d446de54f8",
                        "key": "0xe73abff93a1721613679ceb4a37a4aff5d87efe9c400eea57cf61830dc5125f4",
                        "prev": "0x00000000000000000000000000000000000000000000000064ce62ef675c54f8"
                    },
                    {
                        "current": "0x0000000000000000000000000000000000000000000000001ff84f43fbb93e92",
                        "key": "0x194bdf6a28a9180248cb5a78d55a13152f05b670fcc20bc33d698413cac7af6a",
                        "prev": "0x000000000000000000000000000000000000000000000000203f5d28db3b3e92"
                    }
                ],
                "storageVariables": [
                    {
                        "name": "balanceOf",
                        "type": "mapping(address => uint256)",
                        "value": {
                            "pairs": [
                                {
                                    "key": "0xbfe8e5ab76750abebacffae8d340702c13a10544",
                                    "value": {
                                        "current": "7283852029365998840",
                                        "prev": "7263852029365998840",
                                        "typeTag": 1
                                    }
                                },
                                {
                                    "key": "0xf49270dc1402c6a1c67a02e8b52c573f0e8edc7f",
                                    "value": {
                                        "current": "2303678362804633234",
                                        "prev": "2323678362804633234",
                                        "typeTag": 1
                                    }
                                }
                            ],
                            "typeTag": 4
                        }
                    }
                ]
            }
        ]
    }
}