{
    "balance_change": {
        "balanceChanges": []
    },
    "profile": {
        "basic_info": {
            "baseFee": "",
            "blockNumber": 8304630,
            "callData": "0xef343588000000000000000000000000000000000000000000000000045de82b8dcfc5a80000000000000000000000000000000000000000000001a5342306de54476477000000000000000000000000000000000000000000000000000000000000271000000000000000000000000000000000000000000000000000000002f2dca352000000000000000000000000000000000000000000000000045de82b8dcfc5a8000000000000000000000000000000000000000000000000000000000008a02000000000000000000000000000000000000000000000000000038d7ea4c680000000000000000000000000000000000000000000000000000007ad751d1c0e0300000000000000000000000000000000000000000000000000000000000000000000000000000000000000000df721639ca2f7ff0e1f618b918a65ffb199ac4e000000000000000000000000000331657a1c8752e10d883b885fef46dec0ef8400000000000000000000000082ff9e428ad69f54f4c0251d13607af7da8bd91e000000000000000000000000000000000000000000000000000000000000001b000000000000000000000000000000000000000000000000000000000000001bf5d6883845a587d1210d16d61d106f83f7d051c1ab1cdc9a5c07254c8c32714706928057283f99dee992ec2668b26b03811c63df94a0bc01e2f2da264576075aabed51343d62e978afddd3281b09262573bfd4d41d021a136d83c612acf5ae8d71da35077f3b133c76c3493964f59d3c29d6a627f57097899a6ee501d99f1621",
            "debugEnable": true,
            "errorInfo": "",
            "eventCount": 0,
            "feeRecipient": "0x52bc44d5378309ee2abf1539bf71de1b7d7be3b5",
            "formatValue": "0",
            "gasLimit": 400000,
            "gasPrice": "5",
            "gasUsed": 143092,
            "intTxnCount": 2,
            "internalRevert": false,
            "internalRevertMessage": "",
            "isContractCreation": false,
            "isFlashloan": false,
            "maxFee": "",
            "nonce": 3930724,
            "overwritedBlockNumber": -1,
            "priorityFee": "",
            "receiver": "0x2a0c0dbecc7e4d658f48e01e3fa353f44050c208",
            "revertMessage": "",
            "sender": "0xa7a7899d944fe658c4b0a1803bab2f490bd3849e",
            "simulationEnable": true,
            "sourceTxnHash": "0x5f5c76670e9ed6497c3eb9d1cf97fe926cdadf523cdf12ef89e9672b73a1a5f1",
            "status": true,
            "timestamp": "2019-08-07T16:34:41Z",
            "transactionFee": "0.00071546",
            "txnHash": "0x5f5c76670e9ed6497c3eb9d1cf97fe926cdadf523cdf12ef89e9672b73a1a5f1",
            "txnIndex": 48,
            "type": 0,
            "value": "0"
        },
        "fund_flow": [],
        "token_infos": [
            {
                "address": "0xc02aaa39b223fe8d0a0e5c4f27ead9083c756cc2",
                "decimals": 18
            },
            {
                "address": "0xeeeeeeeeeeeeeeeeeeeeeeeeeeeeeeeeeeeeeeee",
                "decimals": 18
            }
        ]
    },
    "address_label": {
        "labels": [
            {
                "address": "0xa7a7899d944fe658c4b0a1803bab2f490bd3849e",
                "label": "IDEX 2"
            },
            {
                "address": "0x2a0c0dbecc7e4d658f48e01e3fa353f44050c208",
                "label": "IDEX"
            },
            {
                "address": "0x0000000000000000000000000000000000000002",
                "label": "Precompiled"
            },
            {
                "address": "0x0000000000000000000000000000000000000004",
                "label": "Precompiled"
            },
            {
                "address": "0xeeeeeeeeeeeeeeeeeeeeeeeeeeeeeeeeeeeeeeee",
                "label": "Ether"
            },
            {
                "address": "0x0df721639ca2f7ff0e1f618b918a65ffb199ac4e",
                "label": "Howdoo: Old Token"
            },
            {
                "address": "0x0000000000000000000000000000000000000000",
                "label": "Null Address"
            },
            {
                "address": "0x0000000000000000000000000000000000000001",
                "label": "Precompiled"
            },
            {
                "address": "0x0000000000000000000000000000000000000003",
                "label": "Precompiled"
            }
        ]
    },
    "trace": {
        "accountLabels": null,
        "dataMap": {
            "-1": {
                "invocation": {
                    "address": "0xa7a7899d944fe658c4b0a1803bab2f490bd3849e",
                    "callData": "",
                    "decodedMethod": null,
                    "errorInfo": "",
                    "fromAddress": "",
                    "gasUsed": 0,
                    "id": -1,
                    "methodDecoded": false,
                    "operation": "",
                    "output": "",
                    "revert": false,
                    "revertMessage": "",
                    "selector": "",
                    "status": false,
                    "value": ""
                },
                "nodeType": 0
            },
            "0": {
                "invocation": {
                    "address": "0x2a0c0dbecc7e4d658f48e01e3fa353f44050c208",
                    "callData": "0x000000000000000000000000000000000000000000000000045de82b8dcfc5a80000000000000000000000000000000000000000000001a5342306de54476477000000000000000000000000000000000000000000000000000000000000271000000000000000000000000000000000000000000000000000000002f2dca352000000000000000000000000000000000000000000000000045de82b8dcfc5a8000000000000000000000000000000000000000000000000000000000008a02000000000000000000000000000000000000000000000000000038d7ea4c680000000000000000000000000000000000000000000000000000007ad751d1c0e0300000000000000000000000000000000000000000000000000000000000000000000000000000000000000000df721639ca2f7ff0e1f618b918a65ffb199ac4e000000000000000000000000000331657a1c8752e10d883b885fef46dec0ef8400000000000000000000000082ff9e428ad69f54f4c0251d13607af7da8bd91e000000000000000000000000000000000000000000000000000000000000001b000000000000000000000000000000000000000000000000000000000000001bf5d6883845a587d1210d16d61d106f83f7d051c1ab1cdc9a5c07254c8c32714706928057283f99dee992ec2668b26b03811c63df94a0bc01e2f2da264576075aabed51343d62e978afddd3281b09262573bfd4d41d021a136d83c612acf5ae8d71da35077f3b133c76c3493964f59d3c29d6a627f57097899a6ee501d99f1621",
                    "decodedMethod": {
                        "callParams": [
                            {
                                "name": "tradeValues",
                                "type": "uint256[8]",
                                "value": [
                                    "314,662,822,746,244,520",
                                    "7,769,836,109,097,844,827,255",
                                    "10,000",
                                    "12,664,480,594",
                                    "314,662,822,746,244,520",
                                    "565,280",
                                    "1,000,000,000,000,000",
                                    "2,161,043,348,131,331"
                                ]
                            },
                            {
                                "name": "tradeAddresses",
                                "type": "address[4]",
                                "value": [
                                    "0x0000000000000000000000000000000000000000",
                                    "0x0df721639ca2f7ff0e1f618b918a65ffb199ac4e",
                                    "0x000331657a1c8752e10d883b885fef46dec0ef84",
                                    "0x82ff9e428ad69f54f4c0251d13607af7da8bd91e"
                                ]
                            },
                            {
                                "name": "v",
                                "type": "uint8[2]",
                                "value": [
                                    "27",
                                    "27"
                                ]
                            },
                            {
                                "name": "rs",
                                "type": "bytes32[4]",
                                "value": [
                                    "0xf5d6883845a587d1210d16d61d106f83f7d051c1ab1cdc9a5c07254c8c327147",
                                    "0x06928057283f99dee992ec2668b26b03811c63df94a0bc01e2f2da264576075a",
                                    "0xabed51343d62e978afddd3281b09262573bfd4d41d021a136d83c612acf5ae8d",
                                    "0x71da35077f3b133c76c3493964f59d3c29d6a627f57097899a6ee501d99f1621"
                                ]
                            }
                        ],
                        "constructorArguments": "",
                        "name": "trade",
                        "returnParams": [
                            {
                                "name": "success",
                                "type": "bool",
                                "value": false
                            }
                        ],
                        "signature": "trade(uint256[8],address[4],uint8[2],bytes32[4])"
                    },
                    "errorInfo": "",
                    "fromAddress": "0xa7a7899d944fe658c4b0a1803bab2f490bd3849e",
                    "gasUsed": 143092,
                    "id": 0,
                    "methodDecoded": true,
                    "operation": "CALL",
                    "output": "0x0000000000000000000000000000000000000000000000000000000000000000",
                    "revert": false,
                    "revertMessage": "",
                    "selector": "0xef343588",
                    "status": true,
                    "value": "0"
                },
                "nodeType": 0
            },
            "1": {
                "invocation": {
                    "address": "0x0000000000000000000000000000000000000001",
                    "callData": "0x45f952ad4555cca191787b295334a35b9f1c247ca366b3c01a67fd1e000000000000000000000000000000000000000000000000000000000000001bf5d6883845a587d1210d16d61d106f83f7d051c1ab1cdc9a5c07254c8c32714706928057283f99dee992ec2668b26b03811c63df94a0bc01e2f2da264576075a",
                    "decodedMethod": {
                        "callParams": [
                            {
                                "name": "hash",
                                "type": "bytes32",
                                "value": "0xb3364cdd45f952ad4555cca191787b295334a35b9f1c247ca366b3c01a67fd1e"
                            },
                            {
                                "name": "v",
                                "type": "uint256",
                                "value": "27"
                            },
                            {
                                "name": "r",
                                "type": "bytes32",
                                "value": "0xf5d6883845a587d1210d16d61d106f83f7d051c1ab1cdc9a5c07254c8c327147"
                            },
                            {
                                "name": "s",
                                "type": "bytes32",
                                "value": "0x06928057283f99dee992ec2668b26b03811c63df94a0bc01e2f2da264576075a"
                            }
                        ],
                        "constructorArguments": "",
                        "name": "ecrecover",
                        "returnParams": [
                            {
                                "name": "",
                                "type": "address",
                                "value": "0x000331657a1c8752e10d883b885fef46dec0ef84"
                            }
                        ],
                        "signature": "ecrecover(bytes32,uint256,bytes32,bytes32)"
                    },
                    "errorInfo": "",
                    "fromAddress": "0x2a0c0dbecc7e4d658f48e01e3fa353f44050c208",
                    "gasUsed": 3000,
                    "id": 1,
                    "methodDecoded": true,
                    "operation": "CALL",
                    "output": "0x000000000000000000000000000331657a1c8752e10d883b885fef46dec0ef84",
                    "revert": false,
                    "revertMessage": "",
                    "selector": "0xb3364cdd",
                    "status": true,
                    "value": "0"
                },
                "nodeType": 0
            },
            "2": {
                "invocation": {
                    "address": "0x0000000000000000000000000000000000000001",
                    "callData": "0x713c59d99f319fc98908ddc65d8b9aa4e8647ace9534f57f02a24b4c000000000000000000000000000000000000000000000000000000000000001babed51343d62e978afddd3281b09262573bfd4d41d021a136d83c612acf5ae8d71da35077f3b133c76c3493964f59d3c29d6a627f57097899a6ee501d99f1621",
                    "decodedMethod": {
                        "callParams": [
                            {
                                "name": "hash",
                                "type": "bytes32",
                                "value": "0xbb9e16a2713c59d99f319fc98908ddc65d8b9aa4e8647ace9534f57f02a24b4c"
                            },
                            {
                                "name": "v",
                                "type": "uint256",
                                "value": "27"
                            },
                            {
                                "name": "r",
                                "type": "bytes32",
                                "value": "0xabed51343d62e978afddd3281b09262573bfd4d41d021a136d83c612acf5ae8d"
                            },
                            {
                                "name": "s",
                                "type": "bytes32",
                                "value": "0x71da35077f3b133c76c3493964f59d3c29d6a627f57097899a6ee501d99f1621"
                            }
                        ],
                        "constructorArguments": "",
                        "name": "ecrecover",
                        "returnParams": [
                            {
                                "name": "",
                                "type": "address",
                                "value": "0x82ff9e428ad69f54f4c0251d13607af7da8bd91e"
                            }
                        ],
                        "signature": "ecrecover(bytes32,uint256,bytes32,bytes32)"
                    },
                    "errorInfo": "",
                    "fromAddress": "0x2a0c0dbecc7e4d658f48e01e3fa353f44050c208",
                    "gasUsed": 3000,
                    "id": 2,
                    "methodDecoded": true,
                    "operation": "CALL",
                    "output": "0x00000000000000000000000082ff9e428ad69f54f4c0251d13607af7da8bd91e",
                    "revert": false,
                    "revertMessage": "",
                    "selector": "0xbb9e16a2",
                    "status": true,
                    "value": "0"
                },
                "nodeType": 0
            }
        },
        "gasFlame": [
            {
                "children": [
                    {
                        "children": [
                            {
                                "children": [],
                                "depth": 0,
                                "name": "Initial Gas",
                                "value": 38808
                            },
                            {
                                "children": [
                                    {
                                        "children": [],
                                        "depth": 1,
                                        "name": "ecrecover",
                                        "value": 3000
                                    },
                                    {
                                        "children": [],
                                        "depth": 1,
                                        "name": "ecrecover",
                                        "value": 3000
                                    }
                                ],
                                "depth": 0,
                                "name": "Executed Gas",
                                "value": 104284
                            }
                        ],
                        "depth": -1,
                        "name": "Actual Gas Used",
                        "value": 143092
                    },
                    {
                        "children": [],
                        "depth": -1,
                        "name": "Refunded Gas",
                        "value": 0
                    }
                ],
                "depth": -2,
                "name": "Total Gas",
                "value": 143092
            }
        ],
        "isConfirmed": true,
        "mainTrace": [
            {
                "children": [
                    {
                        "children": [
                            {
                                "children": [],
                                "depth": 1,
                                "id": 1,
                                "order": 1
                            },
                            {
                                "children": [],
                                "depth": 1,
                                "id": 2,
                                "order": 2
                            }
                        ],
                        "depth": 0,
                        "id": 0,
                        "order": 0
                    }
                ],
                "depth": -1,
                "id": -1,
                "order": -1
            }
        ],
        "mainTraceNodeCount": 3,
        "parentIdMap": {
            "0": -1,
            "1": 0,
            "2": 0
        },
        "tidyTrace": [
            {
                "children": [
                    {
                        "children": [
                            {
                                "children": [],
                                "depth": 1,
                                "id": 1,
                                "order": 1
                            },
                            {
                                "children": [],
                                "depth": 1,
                                "id": 2,
                                "order": 2
                            }
                        ],
                        "depth": 0,
                        "id": 0,
                        "order": 0
                    }
                ],
                "depth": -1,
                "id": -1,
                "order": -1
            }
        ],
        "tidyTraceNodeCount": 3
    },
    "state_change": {
        "stateChanges": [
            {
                "address": "0x2a0c0dbecc7e4d658f48e01e3fa353f44050c208",
                "erc": "",
                "slots": [
                    {
                        "current": "0x0000000000000000000000000000000000000000000000000000000000000001",
                        "key": "0x8d4e15d7dc29095c4a19bb13d847167d53714d465b2c2235495ce38d84f5a42d",
                        "prev": "0x0000000000000000000000000000000000000000000000000000000000000000"
                    },
                    {
                        "current": "0x000000000000000000000000000000000000000000000003ce4574933d0a9abc",
                        "key": "0x1328e5333956ecd6f448f3cc3ae05296d6157c8ee53d50e0b41e39fbf209aa70",
                        "prev": "0x000000000000000000000000000000000000000000000003d2a35cbecada6064"
                    },
                    {
                        "current": "0x000000000000000000000000000000000000000000000000045de82b8dcfc5a8",
                        "key": "0x43830218d60bfe68786df5f230ed45e2210290856b73b8b35f9c821535617ff8",
                        "prev": "0x0000000000000000000000000000000000000000000000000000000000000000"
                    },
                    {
                        "current": "0x0000000000000000000000000000000000000000000000015e49ddf255f57f6e",
                        "key": "0x3ccb72d91c5c66cba135a4135963ed23443b8a63817f501517468fcd5097e277",
                        "prev": "0x0000000000000000000000000000000000000000000000015e48bfc3302f66ea"
                    },
                    {
                        "current": "0x0000000000000000000000000000000000000000000000000000000000000001",
                        "key": "0x817be3130154c78d8ae292f511d013f5e7ea14abdaeda79c75bbfc7058abbda6",
                        "prev": "0x0000000000000000000000000000000000000000000001a5342306de54476478"
                    },
                    {
                        "current": "0x00000000000000000000000000000000000000000000000000000000007eb7f6",
                        "key": "0xf3233c92f038a42d6a06e1e0db0d9db52a669dbe54e5d588cea2131935a21470",
                        "prev": "0x00000000000000000000000000000000000000000000000000000000007e9bd1"
                    },
                    {
                        "current": "0x0000000000000000000000000000000000000000000000001abc13ca998d7bd0",
                        "key": "0x3f7257f7876e244628a605d344182ab332dbc1f64380e8c1e333ffd1f31020de",
                        "prev": "0x000000000000000000000000000000000000000000000000165f49ce3183cead"
                    },
                    {
                        "current": "0x0000000000000000000000000000000000000000000006f4b49bab95a09341e8",
                        "key": "0xf9c8287a09b5aa6c595ed9dfe33a80a96a8c95fd92ba4e63e4d6a4613a24f151",
                        "prev": "0x000000000000000000000000000000000000000000000550697e172df23d1a71"
                    },
                    {
                        "current": "0x00000000000000000000000000000000000000000000001165d94bb3d890450f",
                        "key": "0x6ce2f20a6c138b3f9463ac7ddf27ff5bc3baf7e1315deda70b64a977b4feb79c",
                        "prev": "0x0000000000000000000000000000000000000000000000107cd3d93d329f0810"
                    }
                ],
                "storageVariables": [
                    {
                        "name": "orderFills",
                        "type": "mapping(bytes32 => uint256)",
                        "value": {
                            "pairs": [
                                {
                                    "key": "0x0814b320bd8a4a0c0b4426c9fbb1ec1432a81b2a8b99a0d5e93ca571bdd7367b",
                                    "value": {
                                        "current": "314662822746244520",
                                        "prev": "0",
                                        "typeTag": 1
                                    }
                                }
                            ],
                            "typeTag": 4
                        }
                    },
                    {
                        "name": "tokens",
                        "type": "mapping(address => mapping(address => uint256))",
                        "value": {
                            "pairs": [
                                {
                                    "key": "0x0000000000000000000000000000000000000000",
                                    "value": {
                                        "pairs": [
                                            {
                                                "key": "0x000331657a1c8752e10d883b885fef46dec0ef84",
                                                "value": {
                                                    "current": "1926436501488237520",
                                                    "prev": "1612088341564739245",
                                                    "typeTag": 1
                                                }
                                            },
                                            {
                                                "key": "0x034767f3c519f361c5ecf46ebfc08981c629d381",
                                                "value": {
                                                    "current": "25240949619468631918",
                                                    "prev": "25240634956645885674",
                                                    "typeTag": 1
                                                }
                                            },
                                            {
                                                "key": "0x82ff9e428ad69f54f4c0251d13607af7da8bd91e",
                                                "value": {
                                                    "current": "70203646542067964604",
                                                    "prev": "70518309364814209124",
                                                    "typeTag": 1
                                                }
                                            }
                                        ],
                                        "typeTag": 4
                                    }
                                },
                                {
                                    "key": "0x0df721639ca2f7ff0e1f618b918a65ffb199ac4e",
                                    "value": {
                                        "pairs": [
                                            {
                                                "key": "0x000331657a1c8752e10d883b885fef46dec0ef84",
                                                "value": {
                                                    "current": "1",
                                                    "prev": "7769836109097844827256",
                                                    "typeTag": 1
                                                }
                                            },
                                            {
                                                "key": "0x034767f3c519f361c5ecf46ebfc08981c629d381",
                                                "value": {
                                                    "current": "320933629556643874063",
                                                    "prev": "304142676917007353872",
                                                    "typeTag": 1
                                                }
                                            },
                                            {
                                                "key": "0x82ff9e428ad69f54f4c0251d13607af7da8bd91e",
                                                "value": {
                                                    "current": "32848218635410351538664",
                                                    "prev": "25095173478952143231601",
                                                    "typeTag": 1
                                                }
                                            }
                                        ],
                                        "typeTag": 4
                                    }
                                }
                            ],
                            "typeTag": 4
                        }
                    },
                    {
                        "name": "traded",
                        "type": "mapping(bytes32 => bool)",
                        "value": {
                            "pairs": [
                                {
                                    "key": "0x973f580094367572ee3228a5a8d37677a76fecadd9d5d961a464fb7125ca1648",
                                    "value": {
                                        "current": "true",
                                        "prev": "false",
                                        "typeTag": 1
                                    }
                                }
                            ],
                            "typeTag": 4
                        }
                    },
                    {
                        "name": "lastActiveTransaction",
                        "type": "mapping(address => uint256)",
                        "value": {
                            "pairs": [
                                {
                                    "key": "0x000331657a1c8752e10d883b885fef46dec0ef84",
                                    "value": {
                                        "current": "8304630",
                                        "prev": "8297425",
                                        "typeTag": 1
                                    }
                                }
                            ],
                            "typeTag": 4
                        }
                    }
                ]
            }
        ]
    }
}