{
    "balance_change": {
        "balanceChanges": [
            {
                "account": "0x2a0c0dbecc7e4d658f48e01e3fa353f44050c208",
                "assets": [
                    {
                        "address": "0x818fc6c2ec5986bc6e2cbf00939d90556ab12ce5",
                        "amount": "938,225.992338028229545527",
                        "iconUrl": "https://assets.blocksec.com/icon/18c19de04f3f5c2ce79831de9b74b1264795a449aa28f1589d1d090f2945fea1.png",
                        "isERC1155": false,
                        "isERC721": false,
                        "sign": false,
                        "value": ""
                    }
                ]
            },
            {
                "account": "0x1c5448f254d3b41bd93fc4e43272833e4aae34d9",
                "assets": [
                    {
                        "address": "0x818fc6c2ec5986bc6e2cbf00939d90556ab12ce5",
                        "amount": "938,225.992338028229545527",
                        "iconUrl": "https://assets.blocksec.com/icon/18c19de04f3f5c2ce79831de9b74b1264795a449aa28f1589d1d090f2945fea1.png",
                        "isERC1155": false,
                        "isERC721": false,
                        "sign": true,
                        "value": ""
                    }
                ]
            }
        ]
    },
    "profile": {
        "basic_info": {
            "baseFee": "",
            "blockNumber": 5296476,
            "callData": "0x2295115b000000000000000000000000818fc6c2ec5986bc6e2cbf00939d90556ab12ce500000000000000000000000000000000000000000000c715b603cc23110bd5ba0000000000000000000000001c5448f254d3b41bd93fc4e43272833e4aae34d90000000000000000000000000000000000000000000000000000000000000006000000000000000000000000000000000000000000000000000000000000001c8471bd84f73dd6078b4236f24b091b25de850c3ef47f29c2cf0fb715a5eb5be462ea3a994e1e9ab009e9a569ddd9787e2ccf59e5cd544f1d7b7c0764b4dc87b9000000000000000000000000000000000000000000000000000746a6593a9611",
            "debugEnable": true,
            "errorInfo": "",
            "eventCount": 2,
            "feeRecipient": "0xea674fdde714fd979de3edf0f56aa9716b898ec8",
            "formatValue": "0",
            "gasLimit": 260000,
            "gasPrice": "6",
            "gasUsed": 92289,
            "intTxnCount": 2,
            "internalRevert": false,
            "internalRevertMessage": "",
            "isContractCreation": false,
            "isFlashloan": false,
            "maxFee": "",
            "nonce": 711645,
            "overwritedBlockNumber": -1,
            "priorityFee": "",
            "receiver": "0x2a0c0dbecc7e4d658f48e01e3fa353f44050c208",
            "revertMessage": "",
            "sender": "0xceceaa8edc0830c7cec497e33bb3a3c28dd55a32",
            "simulationEnable": true,
            "sourceTxnHash": "0x5ff3374de806e260e0357244431f13ab31fe8900dd322d913b67293c8cea6578",
            "status": true,
            "timestamp": "2018-03-21T18:03:33Z",
            "transactionFee": "0.000553734",
            "txnHash": "0x5ff3374de806e260e0357244431f13ab31fe8900dd322d913b67293c8cea6578",
            "txnIndex": 54,
            "type": 0,
            "value": "0"
        },
        "fund_flow": [
            {
                "amount": "938,225.992338028229545527",
                "from": "0x2a0c0dbecc7e4d658f48e01e3fa353f44050c208",
                "id": 1,
                "isERC1155": false,
                "isERC721": false,
                "isReverted": false,
                "order": 1,
                "to": "0x1c5448f254d3b41bd93fc4e43272833e4aae34d9",
                "token": "0x818fc6c2ec5986bc6e2cbf00939d90556ab12ce5"
            }
        ],
        "token_infos": [
            {
                "address": "0xeeeeeeeeeeeeeeeeeeeeeeeeeeeeeeeeeeeeeeee",
                "decimals": 18
            },
            {
                "address": "0x818fc6c2ec5986bc6e2cbf00939d90556ab12ce5",
                "decimals": 18
            },
            {
                "address": "0xc02aaa39b223fe8d0a0e5c4f27ead9083c756cc2",
                "decimals": 18
            }
        ]
    },
    "address_label": {
        "labels": [
            {
                "address": "0x818fc6c2ec5986bc6e2cbf00939d90556ab12ce5",
                "label": "Kin: Old Token"
            },
            {
                "address": "0x2a0c0dbecc7e4d658f48e01e3fa353f44050c208",
                "label": "IDEX"
            },
            {
                "address": "0x0000000000000000000000000000000000000001",
                "label": "Precompiled"
            },
            {
                "address": "0x0000000000000000000000000000000000000002",
                "label": "Precompiled"
            },
            {
                "address": "0x0000000000000000000000000000000000000003",
                "label": "Precompiled"
            },
            {
                "address": "0x0000000000000000000000000000000000000004",
                "label": "Precompiled"
            },
            {
                "address": "0xeeeeeeeeeeeeeeeeeeeeeeeeeeeeeeeeeeeeeeee",
                "label": "Ether"
            }
        ]
    },
    "trace": {
        "accountLabels": null,
        "dataMap": {
            "-1": {
                "invocation": {
                    "address": "0xceceaa8edc0830c7cec497e33bb3a3c28dd55a32",
                    "callData": "",
                    "decodedMethod": null,
                    "errorInfo": "",
                    "fromAddress": "",
                    "gasUsed": 0,
                    "id": -1,
                    "methodDecoded": false,
                    "operation": "",
                    "output": "",
                    "revert": false,
                    "revertMessage": "",
                    "selector": "",
                    "status": false,
                    "value": ""
                },
                "nodeType": 0
            },
            "0": {
                "invocation": {
                    "address": "0x2a0c0dbecc7e4d658f48e01e3fa353f44050c208",
                    "callData": "0x000000000000000000000000818fc6c2ec5986bc6e2cbf00939d90556ab12ce500000000000000000000000000000000000000000000c715b603cc23110bd5ba0000000000000000000000001c5448f254d3b41bd93fc4e43272833e4aae34d90000000000000000000000000000000000000000000000000000000000000006000000000000000000000000000000000000000000000000000000000000001c8471bd84f73dd6078b4236f24b091b25de850c3ef47f29c2cf0fb715a5eb5be462ea3a994e1e9ab009e9a569ddd9787e2ccf59e5cd544f1d7b7c0764b4dc87b9000000000000000000000000000000000000000000000000000746a6593a9611",
                    "decodedMethod": {
                        "callParams": [
                            {
                                "name": "token",
                                "type": "address",
                                "value": "0x818fc6c2ec5986bc6e2cbf00939d90556ab12ce5"
                            },
                            {
                                "name": "amount",
                                "type": "uint256",
                                "value": "940,151,427,267,598,113,035,706"
                            },
                            {
                                "name": "user",
                                "type": "address",
                                "value": "0x1c5448f254d3b41bd93fc4e43272833e4aae34d9"
                            },
                            {
                                "name": "nonce",
                                "type": "uint256",
                                "value": "6"
                            },
                            {
                                "name": "v",
                                "type": "uint8",
                                "value": "28"
                            },
                            {
                                "name": "r",
                                "type": "bytes32",
                                "value": "0x8471bd84f73dd6078b4236f24b091b25de850c3ef47f29c2cf0fb715a5eb5be4"
                            },
                            {
                                "name": "s",
                                "type": "bytes32",
                                "value": "0x62ea3a994e1e9ab009e9a569ddd9787e2ccf59e5cd544f1d7b7c0764b4dc87b9"
                            },
                            {
                                "name": "feeWithdrawal",
                                "type": "uint256",
                                "value": "2,048,005,112,501,777"
                            }
                        ],
                        "constructorArguments": "",
                        "name": "adminWithdraw",
                        "returnParams": [
                            {
                                "name": "success",
                                "type": "bool",
                                "value": false
                            }
                        ],
                        "signature": "adminWithdraw(address,uint256,address,uint256,uint8,bytes32,bytes32,uint256)"
                    },
                    "errorInfo": "",
                    "fromAddress": "0xceceaa8edc0830c7cec497e33bb3a3c28dd55a32",
                    "gasUsed": 92289,
                    "id": 0,
                    "methodDecoded": true,
                    "operation": "CALL",
                    "output": "0x0000000000000000000000000000000000000000000000000000000000000000",
                    "revert": false,
                    "revertMessage": "",
                    "selector": "0x2295115b",
                    "status": true,
                    "value": "0"
                },
                "nodeType": 0
            },
            "1": {
                "invocation": {
                    "address": "0x0000000000000000000000000000000000000001",
                    "callData": "0x31f9e9f3abfdd1ceedcbb0e1485e868cfc55580659259e30e6625bfe000000000000000000000000000000000000000000000000000000000000001c8471bd84f73dd6078b4236f24b091b25de850c3ef47f29c2cf0fb715a5eb5be462ea3a994e1e9ab009e9a569ddd9787e2ccf59e5cd544f1d7b7c0764b4dc87b9",
                    "decodedMethod": {
                        "callParams": [
                            {
                                "name": "hash",
                                "type": "bytes32",
                                "value": "0x75406c8d31f9e9f3abfdd1ceedcbb0e1485e868cfc55580659259e30e6625bfe"
                            },
                            {
                                "name": "v",
                                "type": "uint256",
                                "value": "28"
                            },
                            {
                                "name": "r",
                                "type": "bytes32",
                                "value": "0x8471bd84f73dd6078b4236f24b091b25de850c3ef47f29c2cf0fb715a5eb5be4"
                            },
                            {
                                "name": "s",
                                "type": "bytes32",
                                "value": "0x62ea3a994e1e9ab009e9a569ddd9787e2ccf59e5cd544f1d7b7c0764b4dc87b9"
                            }
                        ],
                        "constructorArguments": "",
                        "name": "ecrecover",
                        "returnParams": [
                            {
                                "name": "",
                                "type": "address",
                                "value": "0x1c5448f254d3b41bd93fc4e43272833e4aae34d9"
                            }
                        ],
                        "signature": "ecrecover(bytes32,uint256,bytes32,bytes32)"
                    },
                    "errorInfo": "",
                    "fromAddress": "0x2a0c0dbecc7e4d658f48e01e3fa353f44050c208",
                    "gasUsed": 3000,
                    "id": 1,
                    "methodDecoded": true,
                    "operation": "CALL",
                    "output": "0x0000000000000000000000001c5448f254d3b41bd93fc4e43272833e4aae34d9",
                    "revert": false,
                    "revertMessage": "",
                    "selector": "0x75406c8d",
                    "status": true,
                    "value": "0"
                },
                "nodeType": 0
            },
            "2": {
                "invocation": {
                    "address": "0x818fc6c2ec5986bc6e2cbf00939d90556ab12ce5",
                    "callData": "0x0000000000000000000000001c5448f254d3b41bd93fc4e43272833e4aae34d900000000000000000000000000000000000000000000c6ad553cc915aadfce37",
                    "decodedMethod": {
                        "callParams": [
                            {
                                "name": "_to",
                                "type": "address",
                                "value": "0x1c5448f254d3b41bd93fc4e43272833e4aae34d9"
                            },
                            {
                                "decimalAvailable": true,
                                "name": "_value",
                                "type": "uint256",
                                "value": "938,225,992,338,028,229,545,527"
                            }
                        ],
                        "constructorArguments": "",
                        "name": "transfer",
                        "returnParams": [
                            {
                                "name": "",
                                "type": "bool",
                                "value": true
                            }
                        ],
                        "signature": "transfer(address,uint256)"
                    },
                    "errorInfo": "",
                    "fromAddress": "0x2a0c0dbecc7e4d658f48e01e3fa353f44050c208",
                    "gasUsed": 28748,
                    "id": 2,
                    "methodDecoded": true,
                    "operation": "CALL",
                    "output": "0x0000000000000000000000000000000000000000000000000000000000000001",
                    "revert": false,
                    "revertMessage": "",
                    "selector": "0xa9059cbb",
                    "status": true,
                    "value": "0"
                },
                "nodeType": 0
            },
            "3": {
                "event": {
                    "contract": "0x818fc6c2ec5986bc6e2cbf00939d90556ab12ce5",
                    "decodedLog": {
                        "name": "Transfer",
                        "params": [
                            {
                                "name": "from",
                                "type": "address",
                                "value": "0x2a0c0dbecc7e4d658f48e01e3fa353f44050c208"
                            },
                            {
                                "name": "to",
                                "type": "address",
                                "value": "0x1c5448f254d3b41bd93fc4e43272833e4aae34d9"
                            },
                            {
                                "decimalAvailable": true,
                                "name": "value",
                                "type": "uint256",
                                "value": "938,225,992,338,028,229,545,527"
                            }
                        ],
                        "signature": "Transfer(address,address,uint256)"
                    },
                    "id": 3,
                    "logData": "0x00000000000000000000000000000000000000000000c6ad553cc915aadfce37",
                    "logDecoded": true,
                    "operation": "EVENT",
                    "revert": false,
                    "status": true,
                    "topics": [
                        "0xddf252ad1be2c89b69c2b068fc378daa952ba7f163c4a11628f55a4df523b3ef",
                        "0x0000000000000000000000002a0c0dbecc7e4d658f48e01e3fa353f44050c208",
                        "0x0000000000000000000000001c5448f254d3b41bd93fc4e43272833e4aae34d9"
                    ]
                },
                "nodeType": 1
            },
            "4": {
                "event": {
                    "contract": "0x2a0c0dbecc7e4d658f48e01e3fa353f44050c208",
                    "decodedLog": {
                        "name": "Withdraw",
                        "params": [
                            {
                                "name": "token",
                                "type": "address",
                                "value": "0x818fc6c2ec5986bc6e2cbf00939d90556ab12ce5"
                            },
                            {
                                "name": "user",
                                "type": "address",
                                "value": "0x1c5448f254d3b41bd93fc4e43272833e4aae34d9"
                            },
                            {
                                "name": "amount",
                                "type": "uint256",
                                "value": "938,225,992,338,028,229,545,527"
                            },
                            {
                                "name": "balance",
                                "type": "uint256",
                                "value": "0"
                            }
                        ],
                        "signature": "Withdraw(address,address,uint256,uint256)"
                    },
                    "id": 4,
                    "logData": "0x000000000000000000000000818fc6c2ec5986bc6e2cbf00939d90556ab12ce50000000000000000000000001c5448f254d3b41bd93fc4e43272833e4aae34d900000000000000000000000000000000000000000000c6ad553cc915aadfce370000000000000000000000000000000000000000000000000000000000000000",
                    "logDecoded": true,
                    "operation": "EVENT",
                    "revert": false,
                    "status": true,
                    "topics": [
                        "0xf341246adaac6f497bc2a656f546ab9e182111d630394f0c57c710a59a2cb567"
                    ]
                },
                "nodeType": 1
            }
        },
        "gasFlame": [
            {
                "children": [
                    {
                        "children": [
                            {
                                "children": [],
                                "depth": 0,
                                "name": "Initial Gas",
                                "value": 30104
                            },
                            {
                                "children": [
                                    {
                                        "children": [],
                                        "depth": 1,
                                        "name": "ecrecover",
                                        "value": 3000
                                    },
                                    {
                                        "children": [],
                                        "depth": 1,
                                        "name": "transfer",
                                        "value": 28748
                                    }
                                ],
                                "depth": 0,
                                "name": "Executed Gas",
                                "value": 77185
                            }
                        ],
                        "depth": -1,
                        "name": "Actual Gas Used",
                        "value": 92289
                    },
                    {
                        "children": [],
                        "depth": -1,
                        "name": "Refunded Gas",
                        "value": 15000
                    }
                ],
                "depth": -2,
                "name": "Total Gas",
                "value": 107289
            }
        ],
        "isConfirmed": true,
        "mainTrace": [
            {
                "children": [
                    {
                        "children": [
                            {
                                "children": [],
                                "depth": 1,
                                "id": 1,
                                "order": 1
                            },
                            {
                                "children": [
                                    {
                                        "children": [],
                                        "depth": 2,
                                        "id": 3,
                                        "order": 3
                                    }
                                ],
                                "depth": 1,
                                "id": 2,
                                "order": 2
                            },
                            {
                                "children": [],
                                "depth": 1,
                                "id": 4,
                                "order": 4
                            }
                        ],
                        "depth": 0,
                        "id": 0,
                        "order": 0
                    }
                ],
                "depth": -1,
                "id": -1,
                "order": -1
            }
        ],
        "mainTraceNodeCount": 5,
        "parentIdMap": {
            "0": -1,
            "1": 0,
            "2": 0,
            "3": 2,
            "4": 0
        },
        "tidyTrace": [
            {
                "children": [
                    {
                        "children": [
                            {
                                "children": [],
                                "depth": 1,
                                "id": 1,
                                "order": 1
                            },
                            {
                                "children": [
                                    {
                                        "children": [],
                                        "depth": 2,
                                        "id": 3,
                                        "order": 3
                                    }
                                ],
                                "depth": 1,
                                "id": 2,
                                "order": 2
                            },
                            {
                                "children": [],
                                "depth": 1,
                                "id": 4,
                                "order": 4
                            }
                        ],
                        "depth": 0,
                        "id": 0,
                        "order": 0
                    }
                ],
                "depth": -1,
                "id": -1,
                "order": -1
            }
        ],
        "tidyTraceNodeCount": 5
    },
    "state_change": {
        "stateChanges": [
            {
                "address": "0x2a0c0dbecc7e4d658f48e01e3fa353f44050c208",
                "erc": "",
                "slots": [
                    {
                        "current": "0x0000000000000000000000000000000000000000000151c6b1b535630ef194b8",
                        "key": "0x0b16bf8becfa737b7b554fbb462ba13d598d7c8781839ab86c9cbb20a2ba6116",
                        "prev": "0x00000000000000000000000000000000000000000001515e50ee3255a8c58d36"
                    },
                    {
                        "current": "0x000000000000000000000000000000000000000000000000000000000050d15c",
                        "key": "0xe0d07c7cf3783bacc5c04089f379bbb06c173e9424f0ec98920e770b2dfa22ed",
                        "prev": "0x000000000000000000000000000000000000000000000000000000000050d151"
                    },
                    {
                        "current": "0x0000000000000000000000000000000000000000000000000000000000000001",
                        "key": "0x64e16a0ff82fdaf66abc1a03b7dc1d1208a67ff748effa7f3ef2c71251c457a2",
                        "prev": "0x0000000000000000000000000000000000000000000000000000000000000000"
                    },
                    {
                        "current": "0x0000000000000000000000000000000000000000000000000000000000000000",
                        "key": "0x22a1f78f67ed03f2760663ed2a824bc3d8c77bedc7aa48fd668c3cffdf03462d",
                        "prev": "0x00000000000000000000000000000000000000000000c715b603cc23110bd5ba"
                    }
                ],
                "storageVariables": [
                    {
                        "name": "tokens",
                        "type": "mapping(address => mapping(address => uint256))",
                        "value": {
                            "pairs": [
                                {
                                    "key": "0x818fc6c2ec5986bc6e2cbf00939d90556ab12ce5",
                                    "value": {
                                        "pairs": [
                                            {
                                                "key": "0x034767f3c519f361c5ecf46ebfc08981c629d381",
                                                "value": {
                                                    "current": "1595102765253479994856632",
                                                    "prev": "1593177330323910111366454",
                                                    "typeTag": 1
                                                }
                                            },
                                            {
                                                "key": "0x1c5448f254d3b41bd93fc4e43272833e4aae34d9",
                                                "value": {
                                                    "current": "0",
                                                    "prev": "940151427267598113035706",
                                                    "typeTag": 1
                                                }
                                            }
                                        ],
                                        "typeTag": 4
                                    }
                                }
                            ],
                            "typeTag": 4
                        }
                    },
                    {
                        "name": "lastActiveTransaction",
                        "type": "mapping(address => uint256)",
                        "value": {
                            "pairs": [
                                {
                                    "key": "0x1c5448f254d3b41bd93fc4e43272833e4aae34d9",
                                    "value": {
                                        "current": "5296476",
                                        "prev": "5296465",
                                        "typeTag": 1
                                    }
                                }
                            ],
                            "typeTag": 4
                        }
                    },
                    {
                        "name": "withdrawn",
                        "type": "mapping(bytes32 => bool)",
                        "value": {
                            "pairs": [
                                {
                                    "key": "0xcdc1f9bf061c066f93c05b6627af69d5ef84560a4284cdd568b27f078702105b",
                                    "value": {
                                        "current": "true",
                                        "prev": "false",
                                        "typeTag": 1
                                    }
                                }
                            ],
                            "typeTag": 4
                        }
                    }
                ]
            },
            {
                "address": "0x818fc6c2ec5986bc6e2cbf00939d90556ab12ce5",
                "erc": "ERC-20",
                "slots": [
                    {
                        "current": "0x00000000000000000000000000000000000000000000c6ad553cc915aadfce37",
                        "key": "0xbb995e88a077e0bd3319f0a20f30430a745fce1d0a6945568a8123e99fa82c03",
                        "prev": "0x0000000000000000000000000000000000000000000000000000000000000000"
                    },
                    {
                        "current": "0x00000000000000000000000000000000000000000540081145f7b46b166e41b2",
                        "key": "0xe0deb064ec4d7eaf50dd2472e997dd7e08707a189558c58f90b4b01c5c564e25",
                        "prev": "0x00000000000000000000000000000000000000000540cebe9b347d80c14e0fe9"
                    }
                ],
                "storageVariables": [
                    {
                        "name": "balances",
                        "type": "mapping(address => uint256)",
                        "value": {
                            "pairs": [
                                {
                                    "key": "0x1c5448f254d3b41bd93fc4e43272833e4aae34d9",
                                    "value": {
                                        "current": "938225992338028229545527",
                                        "prev": "0",
                                        "typeTag": 1
                                    }
                                },
                                {
                                    "key": "0x2a0c0dbecc7e4d658f48e01e3fa353f44050c208",
                                    "value": {
                                        "current": "1624834399130270500924572082",
                                        "prev": "1625772625122608529154117609",
                                        "typeTag": 1
                                    }
                                }
                            ],
                            "typeTag": 4
                        }
                    }
                ]
            }
        ]
    }
}