{
    "balance_change": {
        "balanceChanges": [
            {
                "account": "0x51fc95e0b13e885be085e89ba811141707da7ea4",
                "assets": [
                    {
                        "address": "0xaf587a3d9de40a5ad63a3e54eb4fd304aaa9a254",
                        "amount": "4,566",
                        "iconUrl": "",
                        "isERC1155": false,
                        "isERC721": false,
                        "sign": false,
                        "value": ""
                    }
                ]
            },
            {
                "account": "0x5e43eec47b043e48ac3fad284fdf992dd7cd421d",
                "assets": [
                    {
                        "address": "0xaf587a3d9de40a5ad63a3e54eb4fd304aaa9a254",
                        "amount": "4,566",
                        "iconUrl": "",
                        "isERC1155": false,
                        "isERC721": false,
                        "sign": true,
                        "value": ""
                    }
                ]
            }
        ]
    },
    "profile": {
        "basic_info": {
            "baseFee": "",
            "blockNumber": 9264496,
            "callData": "0xa9059cbb0000000000000000000000005e43eec47b043e48ac3fad284fdf992dd7cd421d0000000000000000000000000000000000000000000000f785faa84b91980000",
            "debugEnable": true,
            "errorInfo": "",
            "eventCount": 1,
            "feeRecipient": "0x4bb96091ee9d802ed039c4d1a5f6216f90f81b01",
            "formatValue": "0",
            "gasLimit": 60000,
            "gasPrice": "9",
            "gasUsed": 53518,
            "intTxnCount": 0,
            "internalRevert": false,
            "internalRevertMessage": "",
            "isContractCreation": false,
            "isFlashloan": false,
            "maxFee": "",
            "nonce": 182,
            "overwritedBlockNumber": -1,
            "priorityFee": "",
            "receiver": "0xaf587a3d9de40a5ad63a3e54eb4fd304aaa9a254",
            "revertMessage": "",
            "sender": "0x51fc95e0b13e885be085e89ba811141707da7ea4",
            "simulationEnable": true,
            "sourceTxnHash": "0x5f9cc2518a2f403f4ae4d5ce49676c26f85e05065a1097c756d5969f574d2226",
            "status": true,
            "timestamp": "2020-01-12T06:29:25Z",
            "transactionFee": "0.000481662",
            "txnHash": "0x5f9cc2518a2f403f4ae4d5ce49676c26f85e05065a1097c756d5969f574d2226",
            "txnIndex": 59,
            "type": 0,
            "value": "0"
        },
        "fund_flow": [
            {
                "amount": "4,566",
                "from": "0x51fc95e0b13e885be085e89ba811141707da7ea4",
                "id": 1,
                "isERC1155": false,
                "isERC721": false,
                "isReverted": false,
                "order": 1,
                "to": "0x5e43eec47b043e48ac3fad284fdf992dd7cd421d",
                "token": "0xaf587a3d9de40a5ad63a3e54eb4fd304aaa9a254"
            }
        ],
        "token_infos": [
            {
                "address": "0xaf587a3d9de40a5ad63a3e54eb4fd304aaa9a254",
                "decimals": 18
            },
            {
                "address": "0xc02aaa39b223fe8d0a0e5c4f27ead9083c756cc2",
                "decimals": 18
            },
            {
                "address": "0xeeeeeeeeeeeeeeeeeeeeeeeeeeeeeeeeeeeeeeee",
                "decimals": 18
            }
        ]
    },
    "address_label": {
        "labels": [
            {
                "address": "0xeeeeeeeeeeeeeeeeeeeeeeeeeeeeeeeeeeeeeeee",
                "label": "Ether"
            },
            {
                "address": "0xaf587a3d9de40a5ad63a3e54eb4fd304aaa9a254",
                "label": "Biosphere protocol (BSP)"
            },
            {
                "address": "0x0000000000000000000000000000000000000001",
                "label": "Precompiled"
            },
            {
                "address": "0x0000000000000000000000000000000000000002",
                "label": "Precompiled"
            },
            {
                "address": "0x0000000000000000000000000000000000000003",
                "label": "Precompiled"
            },
            {
                "address": "0x0000000000000000000000000000000000000004",
                "label": "Precompiled"
            }
        ]
    },
    "trace": {
        "accountLabels": null,
        "dataMap": {
            "-1": {
                "invocation": {
                    "address": "0x51fc95e0b13e885be085e89ba811141707da7ea4",
                    "callData": "",
                    "decodedMethod": null,
                    "errorInfo": "",
                    "fromAddress": "",
                    "gasUsed": 0,
                    "id": -1,
                    "methodDecoded": false,
                    "operation": "",
                    "output": "",
                    "revert": false,
                    "revertMessage": "",
                    "selector": "",
                    "status": false,
                    "value": ""
                },
                "nodeType": 0
            },
            "0": {
                "invocation": {
                    "address": "0xaf587a3d9de40a5ad63a3e54eb4fd304aaa9a254",
                    "callData": "0x0000000000000000000000005e43eec47b043e48ac3fad284fdf992dd7cd421d0000000000000000000000000000000000000000000000f785faa84b91980000",
                    "decodedMethod": {
                        "callParams": [
                            {
                                "name": "_to",
                                "type": "address",
                                "value": "0x5e43eec47b043e48ac3fad284fdf992dd7cd421d"
                            },
                            {
                                "decimalAvailable": true,
                                "name": "_value",
                                "type": "uint256",
                                "value": "4,566,000,000,000,000,000,000"
                            }
                        ],
                        "constructorArguments": "",
                        "name": "transfer",
                        "returnParams": [
                            {
                                "name": "success",
                                "type": "bool",
                                "value": true
                            }
                        ],
                        "signature": "transfer(address,uint256)"
                    },
                    "errorInfo": "",
                    "fromAddress": "0x51fc95e0b13e885be085e89ba811141707da7ea4",
                    "gasUsed": 53518,
                    "id": 0,
                    "methodDecoded": true,
                    "operation": "CALL",
                    "output": "0x0000000000000000000000000000000000000000000000000000000000000001",
                    "revert": false,
                    "revertMessage": "",
                    "selector": "0xa9059cbb",
                    "status": true,
                    "value": "0"
                },
                "nodeType": 0
            },
            "1": {
                "event": {
                    "contract": "0xaf587a3d9de40a5ad63a3e54eb4fd304aaa9a254",
                    "decodedLog": {
                        "name": "Transfer",
                        "params": [
                            {
                                "name": "_from",
                                "type": "address",
                                "value": "0x51fc95e0b13e885be085e89ba811141707da7ea4"
                            },
                            {
                                "name": "_to",
                                "type": "address",
                                "value": "0x5e43eec47b043e48ac3fad284fdf992dd7cd421d"
                            },
                            {
                                "decimalAvailable": true,
                                "name": "_value",
                                "type": "uint256",
                                "value": "4,566,000,000,000,000,000,000"
                            }
                        ],
                        "signature": "Transfer(address,address,uint256)"
                    },
                    "id": 1,
                    "logData": "0x0000000000000000000000000000000000000000000000f785faa84b91980000",
                    "logDecoded": true,
                    "operation": "EVENT",
                    "revert": false,
                    "status": true,
                    "topics": [
                        "0xddf252ad1be2c89b69c2b068fc378daa952ba7f163c4a11628f55a4df523b3ef",
                        "0x00000000000000000000000051fc95e0b13e885be085e89ba811141707da7ea4",
                        "0x0000000000000000000000005e43eec47b043e48ac3fad284fdf992dd7cd421d"
                    ]
                },
                "nodeType": 1
            }
        },
        "gasFlame": [
            {
                "children": [
                    {
                        "children": [
                            {
                                "children": [],
                                "depth": 0,
                                "name": "Initial Gas",
                                "value": 21644
                            },
                            {
                                "children": [],
                                "depth": 0,
                                "name": "Executed Gas",
                                "value": 31874
                            }
                        ],
                        "depth": -1,
                        "name": "Actual Gas Used",
                        "value": 53518
                    },
                    {
                        "children": [],
                        "depth": -1,
                        "name": "Refunded Gas",
                        "value": 0
                    }
                ],
                "depth": -2,
                "name": "Total Gas",
                "value": 53518
            }
        ],
        "isConfirmed": true,
        "mainTrace": [
            {
                "children": [
                    {
                        "children": [
                            {
                                "children": [],
                                "depth": 1,
                                "id": 1,
                                "order": 1
                            }
                        ],
                        "depth": 0,
                        "id": 0,
                        "order": 0
                    }
                ],
                "depth": -1,
                "id": -1,
                "order": -1
            }
        ],
        "mainTraceNodeCount": 2,
        "parentIdMap": {
            "0": -1,
            "1": 0
        },
        "tidyTrace": [
            {
                "children": [
                    {
                        "children": [
                            {
                                "children": [],
                                "depth": 1,
                                "id": 1,
                                "order": 1
                            }
                        ],
                        "depth": 0,
                        "id": 0,
                        "order": 0
                    }
                ],
                "depth": -1,
                "id": -1,
                "order": -1
            }
        ],
        "tidyTraceNodeCount": 2
    },
    "state_change": {
        "stateChanges": [
            {
                "address": "0xaf587a3d9de40a5ad63a3e54eb4fd304aaa9a254",
                "erc": "ERC-20",
                "slots": [
                    {
                        "current": "0x000000000000000000000000000000000000000000021fdb7f28fb3371d80000",
                        "key": "0x574511b5b4738946025ddbd5a44af74c5e1f732324ba4d0045dad8733f6739b3",
                        "prev": "0x0000000000000000000000000000000000000000000220d30523a37f03700000"
                    },
                    {
                        "current": "0x0000000000000000000000000000000000000000000000f785faa84b91980000",
                        "key": "0x00fba0099eed4f0fcfba88a6050732a1e16227d5e8b9d00c482104589cc7723d",
                        "prev": "0x0000000000000000000000000000000000000000000000000000000000000000"
                    }
                ],
                "storageVariables": [
                    {
                        "name": "balanceOf",
                        "type": "mapping(address => uint256)",
                        "value": {
                            "pairs": [
                                {
                                    "key": "0x51fc95e0b13e885be085e89ba811141707da7ea4",
                                    "value": {
                                        "current": "2568294000000000000000000",
                                        "prev": "2572860000000000000000000",
                                        "typeTag": 1
                                    }
                                },
                                {
                                    "key": "0x5e43eec47b043e48ac3fad284fdf992dd7cd421d",
                                    "value": {
                                        "current": "4566000000000000000000",
                                        "prev": "0",
                                        "typeTag": 1
                                    }
                                }
                            ],
                            "typeTag": 4
                        }
                    }
                ]
            }
        ]
    }
}