{
    "balance_change": {
        "balanceChanges": []
    },
    "profile": {
        "basic_info": {
            "baseFee": "11.223577542",
            "blockNumber": 18192799,
            "callData": "0x5e05b33c000000000000000000000000cbb0fe555f61d23427740984325b4583a4a34c820000000000000000000000004dbd3f2fc7bdffe2657f8916ad05eaca21344d380000000000000000000000005af0d9827e0c53e4799bb226655a1de152a425a50000000000000000000000000000000000000000000000000000000000001daa000000000000000000000000000000000000000000000000120afb074f3b46fc00000000000000000000000000000000000000000000000000000000650c2637000000000000000000000000000000000000000000000000000000000000000000000000000000000000000000000000000000000000000000000000000000000000000000000000000000000000000000000000000000000000000000002328000000000000000000000000000000000000000000000000000000000000b196",
            "debugEnable": true,
            "errorInfo": "",
            "eventCount": 1,
            "feeRecipient": "0x95222290dd7278aa3ddd389cc1e1d165cc4bafe5",
            "formatValue": "0",
            "gasLimit": 46744,
            "gasPrice": "11.323577542",
            "gasUsed": 37708,
            "intTxnCount": 1,
            "internalRevert": false,
            "internalRevertMessage": "",
            "isContractCreation": false,
            "isFlashloan": false,
            "maxFee": "90",
            "nonce": 13033,
            "overwritedBlockNumber": -1,
            "priorityFee": "0.1",
            "receiver": "0x29469395eaf6f95920e59f858042f0e28d98a20b",
            "revertMessage": "",
            "sender": "0xcbb0fe555f61d23427740984325b4583a4a34c82",
            "simulationEnable": true,
            "sourceTxnHash": "0x5fc198a6bc14b767f3a854776034891f578aeaaf77be2ae470f079c0530f85b6",
            "status": true,
            "timestamp": "2023-09-22T17:14:59Z",
            "transactionFee": "0.000426989461953736",
            "txnHash": "0x5fc198a6bc14b767f3a854776034891f578aeaaf77be2ae470f079c0530f85b6",
            "txnIndex": 106,
            "type": 2,
            "value": "0"
        },
        "fund_flow": [],
        "token_infos": [
            {
                "address": "0xeeeeeeeeeeeeeeeeeeeeeeeeeeeeeeeeeeeeeeee",
                "decimals": 18
            },
            {
                "address": "0xc02aaa39b223fe8d0a0e5c4f27ead9083c756cc2",
                "decimals": 18
            }
        ]
    },
    "address_label": {
        "labels": [
            {
                "address": "0x29469395eaf6f95920e59f858042f0e28d98a20b",
                "label": "Blur: Blend"
            },
            {
                "address": "0x5af0d9827e0c53e4799bb226655a1de152a425a5",
                "label": "Milady Maker: MIL Token"
            },
            {
                "address": "0xb258ca5559b11cd702f363796522b04d7722ea56",
                "label": "Blend"
            },
            {
                "address": "0x0000000000000000000000000000000000000001",
                "label": "Precompiled"
            },
            {
                "address": "0x0000000000000000000000000000000000000002",
                "label": "Precompiled"
            },
            {
                "address": "0x0000000000000000000000000000000000000003",
                "label": "Precompiled"
            },
            {
                "address": "0x0000000000000000000000000000000000000004",
                "label": "Precompiled"
            },
            {
                "address": "0xeeeeeeeeeeeeeeeeeeeeeeeeeeeeeeeeeeeeeeee",
                "label": "Ether"
            }
        ]
    },
    "trace": {
        "accountLabels": null,
        "dataMap": {
            "-1": {
                "invocation": {
                    "address": "0xcbb0fe555f61d23427740984325b4583a4a34c82",
                    "callData": "",
                    "decodedMethod": null,
                    "errorInfo": "",
                    "fromAddress": "",
                    "gasUsed": 0,
                    "id": -1,
                    "methodDecoded": false,
                    "operation": "",
                    "output": "",
                    "revert": false,
                    "revertMessage": "",
                    "selector": "",
                    "status": false,
                    "value": ""
                },
                "nodeType": 0
            },
            "0": {
                "invocation": {
                    "address": "0x29469395eaf6f95920e59f858042f0e28d98a20b",
                    "callData": "0x000000000000000000000000cbb0fe555f61d23427740984325b4583a4a34c820000000000000000000000004dbd3f2fc7bdffe2657f8916ad05eaca21344d380000000000000000000000005af0d9827e0c53e4799bb226655a1de152a425a50000000000000000000000000000000000000000000000000000000000001daa000000000000000000000000000000000000000000000000120afb074f3b46fc00000000000000000000000000000000000000000000000000000000650c2637000000000000000000000000000000000000000000000000000000000000000000000000000000000000000000000000000000000000000000000000000000000000000000000000000000000000000000000000000000000000000000002328000000000000000000000000000000000000000000000000000000000000b196",
                    "decodedMethod": {
                        "callParams": [
                            {
                                "name": "lien",
                                "type": "(address,address,address,uint256,uint256,uint256,uint256,uint256,uint256)",
                                "value": [
                                    {
                                        "name": "lender",
                                        "type": "address",
                                        "value": "0xcbb0fe555f61d23427740984325b4583a4a34c82"
                                    },
                                    {
                                        "name": "borrower",
                                        "type": "address",
                                        "value": "0x4dbd3f2fc7bdffe2657f8916ad05eaca21344d38"
                                    },
                                    {
                                        "name": "collection",
                                        "type": "address",
                                        "value": "0x5af0d9827e0c53e4799bb226655a1de152a425a5"
                                    },
                                    {
                                        "name": "tokenId",
                                        "type": "uint256",
                                        "value": "7,594"
                                    },
                                    {
                                        "name": "amount",
                                        "type": "uint256",
                                        "value": "1,300,127,451,262,437,116"
                                    },
                                    {
                                        "name": "startTime",
                                        "type": "uint256",
                                        "value": "1,695,295,031"
                                    },
                                    {
                                        "name": "rate",
                                        "type": "uint256",
                                        "value": "0"
                                    },
                                    {
                                        "name": "auctionStartBlock",
                                        "type": "uint256",
                                        "value": "0"
                                    },
                                    {
                                        "name": "auctionDuration",
                                        "type": "uint256",
                                        "value": "9,000"
                                    }
                                ]
                            },
                            {
                                "name": "lienId",
                                "type": "uint256",
                                "value": "45,462"
                            }
                        ],
                        "constructorArguments": "",
                        "name": "startAuction",
                        "returnParams": [],
                        "signature": "startAuction((address,address,address,uint256,uint256,uint256,uint256,uint256,uint256),uint256)"
                    },
                    "errorInfo": "",
                    "fromAddress": "0xcbb0fe555f61d23427740984325b4583a4a34c82",
                    "gasUsed": 37708,
                    "id": 0,
                    "methodDecoded": true,
                    "operation": "CALL",
                    "output": "",
                    "revert": false,
                    "revertMessage": "",
                    "selector": "0x5e05b33c",
                    "status": true,
                    "value": "0"
                },
                "nodeType": 0
            },
            "1": {
                "invocation": {
                    "address": "0xb258ca5559b11cd702f363796522b04d7722ea56",
                    "callData": "0x000000000000000000000000cbb0fe555f61d23427740984325b4583a4a34c820000000000000000000000004dbd3f2fc7bdffe2657f8916ad05eaca21344d380000000000000000000000005af0d9827e0c53e4799bb226655a1de152a425a50000000000000000000000000000000000000000000000000000000000001daa000000000000000000000000000000000000000000000000120afb074f3b46fc00000000000000000000000000000000000000000000000000000000650c2637000000000000000000000000000000000000000000000000000000000000000000000000000000000000000000000000000000000000000000000000000000000000000000000000000000000000000000000000000000000000000000002328000000000000000000000000000000000000000000000000000000000000b196",
                    "decodedMethod": {
                        "callParams": [
                            {
                                "name": "lien",
                                "type": "(address,address,address,uint256,uint256,uint256,uint256,uint256,uint256)",
                                "value": [
                                    {
                                        "name": "lender",
                                        "type": "address",
                                        "value": "0xcbb0fe555f61d23427740984325b4583a4a34c82"
                                    },
                                    {
                                        "name": "borrower",
                                        "type": "address",
                                        "value": "0x4dbd3f2fc7bdffe2657f8916ad05eaca21344d38"
                                    },
                                    {
                                        "name": "collection",
                                        "type": "address",
                                        "value": "0x5af0d9827e0c53e4799bb226655a1de152a425a5"
                                    },
                                    {
                                        "name": "tokenId",
                                        "type": "uint256",
                                        "value": "7,594"
                                    },
                                    {
                                        "name": "amount",
                                        "type": "uint256",
                                        "value": "1,300,127,451,262,437,116"
                                    },
                                    {
                                        "name": "startTime",
                                        "type": "uint256",
                                        "value": "1,695,295,031"
                                    },
                                    {
                                        "name": "rate",
                                        "type": "uint256",
                                        "value": "0"
                                    },
                                    {
                                        "name": "auctionStartBlock",
                                        "type": "uint256",
                                        "value": "0"
                                    },
                                    {
                                        "name": "auctionDuration",
                                        "type": "uint256",
                                        "value": "9,000"
                                    }
                                ]
                            },
                            {
                                "name": "lienId",
                                "type": "uint256",
                                "value": "45,462"
                            }
                        ],
                        "constructorArguments": "",
                        "name": "startAuction",
                        "returnParams": [],
                        "signature": "startAuction((address,address,address,uint256,uint256,uint256,uint256,uint256,uint256),uint256)"
                    },
                    "errorInfo": "",
                    "fromAddress": "0x29469395eaf6f95920e59f858042f0e28d98a20b",
                    "gasUsed": 9482,
                    "id": 1,
                    "methodDecoded": true,
                    "operation": "DELEGATECALL",
                    "output": "",
                    "revert": false,
                    "revertMessage": "",
                    "selector": "0x5e05b33c",
                    "status": true,
                    "value": "0"
                },
                "nodeType": 0
            },
            "2": {
                "event": {
                    "contract": "0x29469395eaf6f95920e59f858042f0e28d98a20b",
                    "decodedLog": {
                        "name": "StartAuction",
                        "params": [
                            {
                                "name": "loanId",
                                "type": "uint256",
                                "value": "45,462"
                            },
                            {
                                "name": "collateral",
                                "type": "address",
                                "value": "0x5af0d9827e0c53e4799bb226655a1de152a425a5"
                            }
                        ],
                        "signature": "StartAuction(uint256,address)"
                    },
                    "id": 2,
                    "logData": "0x000000000000000000000000000000000000000000000000000000000000b1960000000000000000000000005af0d9827e0c53e4799bb226655a1de152a425a5",
                    "logDecoded": true,
                    "operation": "EVENT",
                    "revert": false,
                    "status": true,
                    "topics": [
                        "0xe5095dc360d1a56740c946cccc76520c1a1a57381c950520062adeda68dbf572"
                    ]
                },
                "nodeType": 1
            }
        },
        "gasFlame": [
            {
                "children": [
                    {
                        "children": [
                            {
                                "children": [],
                                "depth": 0,
                                "name": "Initial Gas",
                                "value": 23280
                            },
                            {
                                "children": [
                                    {
                                        "children": [],
                                        "depth": 1,
                                        "name": "startAuction",
                                        "value": 9482
                                    }
                                ],
                                "depth": 0,
                                "name": "Executed Gas",
                                "value": 14428
                            }
                        ],
                        "depth": -1,
                        "name": "Actual Gas Used",
                        "value": 37708
                    },
                    {
                        "children": [],
                        "depth": -1,
                        "name": "Refunded Gas",
                        "value": 0
                    }
                ],
                "depth": -2,
                "name": "Total Gas",
                "value": 37708
            }
        ],
        "isConfirmed": true,
        "mainTrace": [
            {
                "children": [
                    {
                        "children": [
                            {
                                "children": [
                                    {
                                        "children": [],
                                        "depth": 2,
                                        "id": 2,
                                        "order": 2
                                    }
                                ],
                                "depth": 1,
                                "id": 1,
                                "order": 1
                            }
                        ],
                        "depth": 0,
                        "id": 0,
                        "order": 0
                    }
                ],
                "depth": -1,
                "id": -1,
                "order": -1
            }
        ],
        "mainTraceNodeCount": 3,
        "parentIdMap": {
            "0": -1,
            "1": 0,
            "2": 1
        },
        "tidyTrace": [
            {
                "children": [
                    {
                        "children": [
                            {
                                "children": [
                                    {
                                        "children": [],
                                        "depth": 2,
                                        "id": 2,
                                        "order": 2
                                    }
                                ],
                                "depth": 1,
                                "id": 1,
                                "order": 1
                            }
                        ],
                        "depth": 0,
                        "id": 0,
                        "order": 0
                    }
                ],
                "depth": -1,
                "id": -1,
                "order": -1
            }
        ],
        "tidyTraceNodeCount": 3
    },
    "state_change": {
        "stateChanges": [
            {
                "address": "0x29469395eaf6f95920e59f858042f0e28d98a20b",
                "erc": "",
                "slots": [
                    {
                        "current": "0xe59d86eb680137f645cac58e414e9e8009353f65da543510116ce2486f57c54d",
                        "key": "0xb599afd06126660823a68285346361fc032a10a81cdfcb56bbc7c1831a5721a9",
                        "prev": "0x2f98f4bae76b922417f2800b55c5111f52c741655ec0f2cba6565e7c97b3cb24"
                    }
                ],
                "storageVariables": [
                    {
                        "name": "liens",
                        "type": "mapping(uint256 => bytes32)",
                        "value": {
                            "pairs": [
                                {
                                    "key": "45462",
                                    "value": {
                                        "current": "0xe59d86eb680137f645cac58e414e9e8009353f65da543510116ce2486f57c54d",
                                        "prev": "0x2f98f4bae76b922417f2800b55c5111f52c741655ec0f2cba6565e7c97b3cb24",
                                        "typeTag": 1
                                    }
                                }
                            ],
                            "typeTag": 4
                        }
                    }
                ]
            }
        ]
    }
}