{
    "balance_change": {
        "balanceChanges": [
            {
                "account": "0xcf713d978f478e34323949ddebfe51dc172051b8",
                "assets": [
                    {
                        "address": "0x9f0f1be08591ab7d990faf910b38ed5d60e4d5bf",
                        "amount": "4.4444444444444",
                        "iconUrl": "",
                        "isERC1155": false,
                        "isERC721": false,
                        "sign": false,
                        "value": ""
                    }
                ]
            },
            {
                "account": "0xcca3f20555088bc12960e32b0a177e6cfb4cc0ab",
                "assets": [
                    {
                        "address": "0x9f0f1be08591ab7d990faf910b38ed5d60e4d5bf",
                        "amount": "4.4444444444444",
                        "iconUrl": "",
                        "isERC1155": false,
                        "isERC721": false,
                        "sign": true,
                        "value": ""
                    }
                ]
            }
        ]
    },
    "profile": {
        "basic_info": {
            "baseFee": "",
            "blockNumber": 6963358,
            "callData": "0xa9059cbb000000000000000000000000cca3f20555088bc12960e32b0a177e6cfb4cc0ab0000000000000000000000000000000000000000000000003dadd6acaf111980",
            "debugEnable": true,
            "errorInfo": "",
            "eventCount": 1,
            "feeRecipient": "0xb2930b35844a230f00e51431acae96fe543a0347",
            "formatValue": "0",
            "gasLimit": 70000,
            "gasPrice": "10",
            "gasUsed": 37870,
            "intTxnCount": 0,
            "internalRevert": false,
            "internalRevertMessage": "",
            "isContractCreation": false,
            "isFlashloan": false,
            "maxFee": "",
            "nonce": 15596,
            "overwritedBlockNumber": -1,
            "priorityFee": "",
            "receiver": "0x9f0f1be08591ab7d990faf910b38ed5d60e4d5bf",
            "revertMessage": "",
            "sender": "0xcf713d978f478e34323949ddebfe51dc172051b8",
            "simulationEnable": true,
            "sourceTxnHash": "0x5f18e740a972768471cf3e1710b7b54f6b8facdce8f1836f79e9c13d1f4d263a",
            "status": true,
            "timestamp": "2018-12-27T17:42:52Z",
            "transactionFee": "0.0003787",
            "txnHash": "0x5f18e740a972768471cf3e1710b7b54f6b8facdce8f1836f79e9c13d1f4d263a",
            "txnIndex": 10,
            "type": 0,
            "value": "0"
        },
        "fund_flow": [
            {
                "amount": "4.4444444444444",
                "from": "0xcf713d978f478e34323949ddebfe51dc172051b8",
                "id": 1,
                "isERC1155": false,
                "isERC721": false,
                "isReverted": false,
                "order": 1,
                "to": "0xcca3f20555088bc12960e32b0a177e6cfb4cc0ab",
                "token": "0x9f0f1be08591ab7d990faf910b38ed5d60e4d5bf"
            }
        ],
        "token_infos": [
            {
                "address": "0x9f0f1be08591ab7d990faf910b38ed5d60e4d5bf",
                "decimals": 18
            },
            {
                "address": "0xc02aaa39b223fe8d0a0e5c4f27ead9083c756cc2",
                "decimals": 18
            },
            {
                "address": "0xeeeeeeeeeeeeeeeeeeeeeeeeeeeeeeeeeeeeeeee",
                "decimals": 18
            }
        ]
    },
    "address_label": {
        "labels": [
            {
                "address": "0xeeeeeeeeeeeeeeeeeeeeeeeeeeeeeeeeeeeeeeee",
                "label": "Ether"
            },
            {
                "address": "0x9f0f1be08591ab7d990faf910b38ed5d60e4d5bf",
                "label": "MainCoin (MNC)"
            },
            {
                "address": "0x0000000000000000000000000000000000000001",
                "label": "Precompiled"
            },
            {
                "address": "0x0000000000000000000000000000000000000002",
                "label": "Precompiled"
            },
            {
                "address": "0x0000000000000000000000000000000000000003",
                "label": "Precompiled"
            },
            {
                "address": "0x0000000000000000000000000000000000000004",
                "label": "Precompiled"
            }
        ]
    },
    "trace": {
        "accountLabels": null,
        "dataMap": {
            "-1": {
                "invocation": {
                    "address": "0xcf713d978f478e34323949ddebfe51dc172051b8",
                    "callData": "",
                    "decodedMethod": null,
                    "errorInfo": "",
                    "fromAddress": "",
                    "gasUsed": 0,
                    "id": -1,
                    "methodDecoded": false,
                    "operation": "",
                    "output": "",
                    "revert": false,
                    "revertMessage": "",
                    "selector": "",
                    "status": false,
                    "value": ""
                },
                "nodeType": 0
            },
            "0": {
                "invocation": {
                    "address": "0x9f0f1be08591ab7d990faf910b38ed5d60e4d5bf",
                    "callData": "0x000000000000000000000000cca3f20555088bc12960e32b0a177e6cfb4cc0ab0000000000000000000000000000000000000000000000003dadd6acaf111980",
                    "decodedMethod": {
                        "callParams": [
                            {
                                "name": "_to",
                                "type": "address",
                                "value": "0xcca3f20555088bc12960e32b0a177e6cfb4cc0ab"
                            },
                            {
                                "decimalAvailable": true,
                                "name": "_value",
                                "type": "uint256",
                                "value": "4,444,444,444,444,400,000"
                            }
                        ],
                        "constructorArguments": "",
                        "name": "transfer",
                        "returnParams": [
                            {
                                "name": "",
                                "type": "bool",
                                "value": true
                            }
                        ],
                        "signature": "transfer(address,uint256)"
                    },
                    "errorInfo": "",
                    "fromAddress": "0xcf713d978f478e34323949ddebfe51dc172051b8",
                    "gasUsed": 37870,
                    "id": 0,
                    "methodDecoded": true,
                    "operation": "CALL",
                    "output": "0x0000000000000000000000000000000000000000000000000000000000000001",
                    "revert": false,
                    "revertMessage": "",
                    "selector": "0xa9059cbb",
                    "status": true,
                    "value": "0"
                },
                "nodeType": 0
            },
            "1": {
                "event": {
                    "contract": "0x9f0f1be08591ab7d990faf910b38ed5d60e4d5bf",
                    "decodedLog": {
                        "name": "Transfer",
                        "params": [
                            {
                                "name": "from",
                                "type": "address",
                                "value": "0xcf713d978f478e34323949ddebfe51dc172051b8"
                            },
                            {
                                "name": "to",
                                "type": "address",
                                "value": "0xcca3f20555088bc12960e32b0a177e6cfb4cc0ab"
                            },
                            {
                                "decimalAvailable": true,
                                "name": "value",
                                "type": "uint256",
                                "value": "4,444,444,444,444,400,000"
                            }
                        ],
                        "signature": "Transfer(address,address,uint256)"
                    },
                    "id": 1,
                    "logData": "0x0000000000000000000000000000000000000000000000003dadd6acaf111980",
                    "logDecoded": true,
                    "operation": "EVENT",
                    "revert": false,
                    "status": true,
                    "topics": [
                        "0xddf252ad1be2c89b69c2b068fc378daa952ba7f163c4a11628f55a4df523b3ef",
                        "0x000000000000000000000000cf713d978f478e34323949ddebfe51dc172051b8",
                        "0x000000000000000000000000cca3f20555088bc12960e32b0a177e6cfb4cc0ab"
                    ]
                },
                "nodeType": 1
            }
        },
        "gasFlame": [
            {
                "children": [
                    {
                        "children": [
                            {
                                "children": [],
                                "depth": 0,
                                "name": "Initial Gas",
                                "value": 23320
                            },
                            {
                                "children": [],
                                "depth": 0,
                                "name": "Executed Gas",
                                "value": 14550
                            }
                        ],
                        "depth": -1,
                        "name": "Actual Gas Used",
                        "value": 37870
                    },
                    {
                        "children": [],
                        "depth": -1,
                        "name": "Refunded Gas",
                        "value": 0
                    }
                ],
                "depth": -2,
                "name": "Total Gas",
                "value": 37870
            }
        ],
        "isConfirmed": true,
        "mainTrace": [
            {
                "children": [
                    {
                        "children": [
                            {
                                "children": [],
                                "depth": 1,
                                "id": 1,
                                "order": 1
                            }
                        ],
                        "depth": 0,
                        "id": 0,
                        "order": 0
                    }
                ],
                "depth": -1,
                "id": -1,
                "order": -1
            }
        ],
        "mainTraceNodeCount": 2,
        "parentIdMap": {
            "0": -1,
            "1": 0
        },
        "tidyTrace": [
            {
                "children": [
                    {
                        "children": [
                            {
                                "children": [],
                                "depth": 1,
                                "id": 1,
                                "order": 1
                            }
                        ],
                        "depth": 0,
                        "id": 0,
                        "order": 0
                    }
                ],
                "depth": -1,
                "id": -1,
                "order": -1
            }
        ],
        "tidyTraceNodeCount": 2
    },
    "state_change": {
        "stateChanges": [
            {
                "address": "0x9f0f1be08591ab7d990faf910b38ed5d60e4d5bf",
                "erc": "ERC-20",
                "slots": [
                    {
                        "current": "0x00000000000000000000000000000000000000000002761bed318555d945c600",
                        "key": "0xfc9fd9ddd586111543a4be86e642b60430e5d9d549a52a89482baa298c727675",
                        "prev": "0x00000000000000000000000000000000000000000002761c2adf5c028856df80"
                    },
                    {
                        "current": "0x0000000000000000000000000000000000000000000000140bb291b8e5c158c0",
                        "key": "0xee741b593681af477031eb74df7f9649dac231d79148ce36833bbdcef1981737",
                        "prev": "0x000000000000000000000000000000000000000000000013ce04bb0c36b03f40"
                    }
                ],
                "storageVariables": [
                    {
                        "name": "balances",
                        "type": "mapping(address => uint256)",
                        "value": {
                            "pairs": [
                                {
                                    "key": "0xcca3f20555088bc12960e32b0a177e6cfb4cc0ab",
                                    "value": {
                                        "current": "369777777777777400000",
                                        "prev": "365333333333333000000",
                                        "typeTag": 1
                                    }
                                },
                                {
                                    "key": "0xcf713d978f478e34323949ddebfe51dc172051b8",
                                    "value": {
                                        "current": "2975606037886531254208000",
                                        "prev": "2975610482330975698608000",
                                        "typeTag": 1
                                    }
                                }
                            ],
                            "typeTag": 4
                        }
                    }
                ]
            }
        ]
    }
}