{
    "balance_change": {
        "balanceChanges": [
            {
                "account": "0x98c3d3183c4b8a650614ad179a1a98be0a8d6b8e",
                "assets": [
                    {
                        "address": "0xbbc2ae13b23d715c30720f079fcd9b4a74093505",
                        "amount": "2,665.232023966903860509",
                        "iconUrl": "",
                        "isERC1155": false,
                        "isERC721": false,
                        "sign": false,
                        "value": "5008.575946"
                    },
                    {
                        "address": "0xc02aaa39b223fe8d0a0e5c4f27ead9083c756cc2",
                        "amount": "4.131152722342432537",
                        "iconUrl": "https://assets.blocksec.com/icon/f1cb2d02c471d545bbc7722daf3277fd852d98e63d118771af7047bd8256c516.png",
                        "isERC1155": false,
                        "isERC721": false,
                        "sign": true,
                        "value": "4988.20166570612015"
                    }
                ]
            },
            {
                "account": "0x570febdf89c07f256c75686caca215289bb11cfc",
                "assets": [
                    {
                        "address": "0xc02aaa39b223fe8d0a0e5c4f27ead9083c756cc2",
                        "amount": "4.131152722342432537",
                        "iconUrl": "https://assets.blocksec.com/icon/f1cb2d02c471d545bbc7722daf3277fd852d98e63d118771af7047bd8256c516.png",
                        "isERC1155": false,
                        "isERC721": false,
                        "sign": false,
                        "value": "4988.20166570612015"
                    },
                    {
                        "address": "0xbbc2ae13b23d715c30720f079fcd9b4a74093505",
                        "amount": "2,665.232023966903860509",
                        "iconUrl": "",
                        "isERC1155": false,
                        "isERC721": false,
                        "sign": true,
                        "value": "5008.575946"
                    }
                ]
            }
        ]
    },
    "profile": {
        "basic_info": {
            "baseFee": "23.03301832",
            "blockNumber": 15932771,
            "callData": "0xce2e62ff0000000000000000000000000000000000000000000000907b8644cb1eb27d1d000000000000000000000000000000000000000000000000393a7d7b307aee00000000000000000000000000570febdf89c07f256c75686caca215289bb11cfc000000000000000000000000bbc2ae13b23d715c30720f079fcd9b4a74093505000000000000000000000000000000000000000000000000000000000000000100000000000000000000000000000000000000000000000000000000636bab58",
            "debugEnable": true,
            "errorInfo": "",
            "eventCount": 4,
            "feeRecipient": "0x690b9a9e9aa1c9db991c7721a92d351db4fac990",
            "formatValue": "0",
            "gasLimit": 300014,
            "gasPrice": "27.03301832",
            "gasUsed": 96954,
            "intTxnCount": 6,
            "internalRevert": false,
            "internalRevertMessage": "",
            "isContractCreation": false,
            "isFlashloan": false,
            "maxFee": "33.251933266",
            "nonce": 301649,
            "overwritedBlockNumber": -1,
            "priorityFee": "4",
            "receiver": "0x98c3d3183c4b8a650614ad179a1a98be0a8d6b8e",
            "revertMessage": "",
            "sender": "0x91aae0aafd9d2d730111b395c6871f248d7bd728",
            "simulationEnable": true,
            "sourceTxnHash": "0x5f08957c332e2e088e4a9c7e3f67e8d832a751354aad8d09ab5e6fedb6983a2e",
            "status": true,
            "timestamp": "2022-11-09T13:28:47Z",
            "transactionFee": "0.00262095925819728",
            "txnHash": "0x5f08957c332e2e088e4a9c7e3f67e8d832a751354aad8d09ab5e6fedb6983a2e",
            "txnIndex": 27,
            "type": 2,
            "value": "0"
        },
        "fund_flow": [
            {
                "amount": "2,665.232023966903860509",
                "from": "0x98c3d3183c4b8a650614ad179a1a98be0a8d6b8e",
                "id": 1,
                "isERC1155": false,
                "isERC721": false,
                "isReverted": false,
                "order": 1,
                "to": "0x570febdf89c07f256c75686caca215289bb11cfc",
                "token": "0xbbc2ae13b23d715c30720f079fcd9b4a74093505"
            },
            {
                "amount": "4.131152722342432537",
                "from": "0x570febdf89c07f256c75686caca215289bb11cfc",
                "id": 2,
                "isERC1155": false,
                "isERC721": false,
                "isReverted": false,
                "order": 2,
                "to": "0x98c3d3183c4b8a650614ad179a1a98be0a8d6b8e",
                "token": "0xc02aaa39b223fe8d0a0e5c4f27ead9083c756cc2"
            }
        ],
        "token_infos": [
            {
                "address": "0xbbc2ae13b23d715c30720f079fcd9b4a74093505",
                "decimals": 18
            },
            {
                "address": "0xc02aaa39b223fe8d0a0e5c4f27ead9083c756cc2",
                "decimals": 18
            },
            {
                "address": "0xeeeeeeeeeeeeeeeeeeeeeeeeeeeeeeeeeeeeeeee",
                "decimals": 18
            }
        ]
    },
    "address_label": {
        "labels": [
            {
                "address": "0x98c3d3183c4b8a650614ad179a1a98be0a8d6b8e",
                "label": "MEV Bot: 0x98c...b8e"
            },
            {
                "address": "0xc02aaa39b223fe8d0a0e5c4f27ead9083c756cc2",
                "label": "Wrapped Ether (WETH)"
            },
            {
                "address": "0x570febdf89c07f256c75686caca215289bb11cfc",
                "label": "Uniswap V2: ERN 9"
            },
            {
                "address": "0xbbc2ae13b23d715c30720f079fcd9b4a74093505",
                "label": "Ethernity Chain: ERN Token"
            },
            {
                "address": "0x0000000000000000000000000000000000000001",
                "label": "Precompiled"
            },
            {
                "address": "0x0000000000000000000000000000000000000002",
                "label": "Precompiled"
            },
            {
                "address": "0x0000000000000000000000000000000000000003",
                "label": "Precompiled"
            },
            {
                "address": "0x0000000000000000000000000000000000000004",
                "label": "Precompiled"
            },
            {
                "address": "0xeeeeeeeeeeeeeeeeeeeeeeeeeeeeeeeeeeeeeeee",
                "label": "Ether"
            }
        ]
    },
    "trace": {
        "accountLabels": null,
        "dataMap": {
            "-1": {
                "invocation": {
                    "address": "0x91aae0aafd9d2d730111b395c6871f248d7bd728",
                    "callData": "",
                    "decodedMethod": null,
                    "errorInfo": "",
                    "fromAddress": "",
                    "gasUsed": 0,
                    "id": -1,
                    "methodDecoded": false,
                    "operation": "",
                    "output": "",
                    "revert": false,
                    "revertMessage": "",
                    "selector": "",
                    "status": false,
                    "value": ""
                },
                "nodeType": 0
            },
            "0": {
                "invocation": {
                    "address": "0x98c3d3183c4b8a650614ad179a1a98be0a8d6b8e",
                    "callData": "0x0000000000000000000000000000000000000000000000907b8644cb1eb27d1d000000000000000000000000000000000000000000000000393a7d7b307aee00000000000000000000000000570febdf89c07f256c75686caca215289bb11cfc000000000000000000000000bbc2ae13b23d715c30720f079fcd9b4a74093505000000000000000000000000000000000000000000000000000000000000000100000000000000000000000000000000000000000000000000000000636bab58",
                    "decodedMethod": null,
                    "errorInfo": "",
                    "fromAddress": "0x91aae0aafd9d2d730111b395c6871f248d7bd728",
                    "gasUsed": 96954,
                    "id": 0,
                    "methodDecoded": false,
                    "operation": "CALL",
                    "output": "",
                    "revert": false,
                    "revertMessage": "",
                    "selector": "0xce2e62ff",
                    "status": true,
                    "value": "0"
                },
                "nodeType": 0
            },
            "1": {
                "invocation": {
                    "address": "0x570febdf89c07f256c75686caca215289bb11cfc",
                    "callData": "0x",
                    "decodedMethod": {
                        "callParams": [],
                        "constructorArguments": "",
                        "name": "getReserves",
                        "returnParams": [
                            {
                                "name": "_reserve0",
                                "type": "uint112",
                                "value": "788,503,920,131,183,697,571,201"
                            },
                            {
                                "name": "_reserve1",
                                "type": "uint112",
                                "value": "1,230,002,589,911,399,321,089"
                            },
                            {
                                "name": "_blockTimestampLast",
                                "type": "uint32",
                                "value": "1,668,000,515"
                            }
                        ],
                        "signature": "getReserves()"
                    },
                    "errorInfo": "",
                    "fromAddress": "0x98c3d3183c4b8a650614ad179a1a98be0a8d6b8e",
                    "gasUsed": 2504,
                    "id": 1,
                    "methodDecoded": true,
                    "operation": "STATICCALL",
                    "output": "0x00000000000000000000000000000000000000000000a6f8e216d67ee909ad81000000000000000000000000000000000000000000000042adb706b0ff6cce0100000000000000000000000000000000000000000000000000000000636bab03",
                    "revert": false,
                    "revertMessage": "",
                    "selector": "0x0902f1ac",
                    "status": true,
                    "value": "0"
                },
                "nodeType": 0
            },
            "10": {
                "event": {
                    "contract": "0x570febdf89c07f256c75686caca215289bb11cfc",
                    "decodedLog": {
                        "name": "Swap",
                        "params": [
                            {
                                "name": "sender",
                                "type": "address",
                                "value": "0x98c3d3183c4b8a650614ad179a1a98be0a8d6b8e"
                            },
                            {
                                "name": "to",
                                "type": "address",
                                "value": "0x98c3d3183c4b8a650614ad179a1a98be0a8d6b8e"
                            },
                            {
                                "name": "amount0In",
                                "type": "uint256",
                                "value": "2,665,232,023,966,903,860,509"
                            },
                            {
                                "name": "amount1In",
                                "type": "uint256",
                                "value": "0"
                            },
                            {
                                "name": "amount0Out",
                                "type": "uint256",
                                "value": "0"
                            },
                            {
                                "name": "amount1Out",
                                "type": "uint256",
                                "value": "4,131,152,722,342,432,537"
                            }
                        ],
                        "signature": "Swap(address,uint256,uint256,uint256,uint256,address)"
                    },
                    "id": 10,
                    "logData": "0x0000000000000000000000000000000000000000000000907b8644cb1eb27d1d000000000000000000000000000000000000000000000000000000000000000000000000000000000000000000000000000000000000000000000000000000000000000000000000000000000000000000000000000000003954cd83601bcf19",
                    "logDecoded": true,
                    "operation": "EVENT",
                    "revert": false,
                    "status": true,
                    "topics": [
                        "0xd78ad95fa46c994b6551d0da85fc275fe613ce37657fb8d5e3d130840159d822",
                        "0x00000000000000000000000098c3d3183c4b8a650614ad179a1a98be0a8d6b8e",
                        "0x00000000000000000000000098c3d3183c4b8a650614ad179a1a98be0a8d6b8e"
                    ]
                },
                "nodeType": 1
            },
            "2": {
                "invocation": {
                    "address": "0xbbc2ae13b23d715c30720f079fcd9b4a74093505",
                    "callData": "0x000000000000000000000000570febdf89c07f256c75686caca215289bb11cfc0000000000000000000000000000000000000000000000907b8644cb1eb27d1d",
                    "decodedMethod": {
                        "callParams": [
                            {
                                "name": "recipient",
                                "type": "address",
                                "value": "0x570febdf89c07f256c75686caca215289bb11cfc"
                            },
                            {
                                "decimalAvailable": true,
                                "name": "amount",
                                "type": "uint256",
                                "value": "2,665,232,023,966,903,860,509"
                            }
                        ],
                        "constructorArguments": "",
                        "name": "transfer",
                        "returnParams": [
                            {
                                "name": "",
                                "type": "bool",
                                "value": true
                            }
                        ],
                        "signature": "transfer(address,uint256)"
                    },
                    "errorInfo": "",
                    "fromAddress": "0x98c3d3183c4b8a650614ad179a1a98be0a8d6b8e",
                    "gasUsed": 13135,
                    "id": 2,
                    "methodDecoded": true,
                    "operation": "CALL",
                    "output": "0x0000000000000000000000000000000000000000000000000000000000000001",
                    "revert": false,
                    "revertMessage": "",
                    "selector": "0xa9059cbb",
                    "status": true,
                    "value": "0"
                },
                "nodeType": 0
            },
            "3": {
                "event": {
                    "contract": "0xbbc2ae13b23d715c30720f079fcd9b4a74093505",
                    "decodedLog": {
                        "name": "Transfer",
                        "params": [
                            {
                                "name": "from",
                                "type": "address",
                                "value": "0x98c3d3183c4b8a650614ad179a1a98be0a8d6b8e"
                            },
                            {
                                "name": "to",
                                "type": "address",
                                "value": "0x570febdf89c07f256c75686caca215289bb11cfc"
                            },
                            {
                                "decimalAvailable": true,
                                "name": "value",
                                "type": "uint256",
                                "value": "2,665,232,023,966,903,860,509"
                            }
                        ],
                        "signature": "Transfer(address,address,uint256)"
                    },
                    "id": 3,
                    "logData": "0x0000000000000000000000000000000000000000000000907b8644cb1eb27d1d",
                    "logDecoded": true,
                    "operation": "EVENT",
                    "revert": false,
                    "status": true,
                    "topics": [
                        "0xddf252ad1be2c89b69c2b068fc378daa952ba7f163c4a11628f55a4df523b3ef",
                        "0x00000000000000000000000098c3d3183c4b8a650614ad179a1a98be0a8d6b8e",
                        "0x000000000000000000000000570febdf89c07f256c75686caca215289bb11cfc"
                    ]
                },
                "nodeType": 1
            },
            "4": {
                "invocation": {
                    "address": "0x570febdf89c07f256c75686caca215289bb11cfc",
                    "callData": "0x00000000000000000000000000000000000000000000000000000000000000000000000000000000000000000000000000000000000000003954cd83601bcf1900000000000000000000000098c3d3183c4b8a650614ad179a1a98be0a8d6b8e00000000000000000000000000000000000000000000000000000000000000800000000000000000000000000000000000000000000000000000000000000000",
                    "decodedMethod": {
                        "callParams": [
                            {
                                "name": "amount0Out",
                                "type": "uint256",
                                "value": "0"
                            },
                            {
                                "name": "amount1Out",
                                "type": "uint256",
                                "value": "4,131,152,722,342,432,537"
                            },
                            {
                                "name": "to",
                                "type": "address",
                                "value": "0x98c3d3183c4b8a650614ad179a1a98be0a8d6b8e"
                            },
                            {
                                "name": "data",
                                "type": "bytes",
                                "value": "0x"
                            }
                        ],
                        "constructorArguments": "",
                        "name": "swap",
                        "returnParams": [],
                        "signature": "swap(uint256,uint256,address,bytes)"
                    },
                    "errorInfo": "",
                    "fromAddress": "0x98c3d3183c4b8a650614ad179a1a98be0a8d6b8e",
                    "gasUsed": 47737,
                    "id": 4,
                    "methodDecoded": true,
                    "operation": "CALL",
                    "output": "",
                    "revert": false,
                    "revertMessage": "",
                    "selector": "0x022c0d9f",
                    "status": true,
                    "value": "0"
                },
                "nodeType": 0
            },
            "5": {
                "invocation": {
                    "address": "0xc02aaa39b223fe8d0a0e5c4f27ead9083c756cc2",
                    "callData": "0x00000000000000000000000098c3d3183c4b8a650614ad179a1a98be0a8d6b8e0000000000000000000000000000000000000000000000003954cd83601bcf19",
                    "decodedMethod": {
                        "callParams": [
                            {
                                "name": "dst",
                                "type": "address",
                                "value": "0x98c3d3183c4b8a650614ad179a1a98be0a8d6b8e"
                            },
                            {
                                "decimalAvailable": true,
                                "name": "wad",
                                "type": "uint256",
                                "value": "4,131,152,722,342,432,537"
                            }
                        ],
                        "constructorArguments": "",
                        "name": "transfer",
                        "returnParams": [
                            {
                                "name": "",
                                "type": "bool",
                                "value": true
                            }
                        ],
                        "signature": "transfer(address,uint256)"
                    },
                    "errorInfo": "",
                    "fromAddress": "0x570febdf89c07f256c75686caca215289bb11cfc",
                    "gasUsed": 12862,
                    "id": 5,
                    "methodDecoded": true,
                    "operation": "CALL",
                    "output": "0x0000000000000000000000000000000000000000000000000000000000000001",
                    "revert": false,
                    "revertMessage": "",
                    "selector": "0xa9059cbb",
                    "status": true,
                    "value": "0"
                },
                "nodeType": 0
            },
            "6": {
                "event": {
                    "contract": "0xc02aaa39b223fe8d0a0e5c4f27ead9083c756cc2",
                    "decodedLog": {
                        "name": "Transfer",
                        "params": [
                            {
                                "name": "src",
                                "type": "address",
                                "value": "0x570febdf89c07f256c75686caca215289bb11cfc"
                            },
                            {
                                "name": "dst",
                                "type": "address",
                                "value": "0x98c3d3183c4b8a650614ad179a1a98be0a8d6b8e"
                            },
                            {
                                "decimalAvailable": true,
                                "name": "wad",
                                "type": "uint256",
                                "value": "4,131,152,722,342,432,537"
                            }
                        ],
                        "signature": "Transfer(address,address,uint256)"
                    },
                    "id": 6,
                    "logData": "0x0000000000000000000000000000000000000000000000003954cd83601bcf19",
                    "logDecoded": true,
                    "operation": "EVENT",
                    "revert": false,
                    "status": true,
                    "topics": [
                        "0xddf252ad1be2c89b69c2b068fc378daa952ba7f163c4a11628f55a4df523b3ef",
                        "0x000000000000000000000000570febdf89c07f256c75686caca215289bb11cfc",
                        "0x00000000000000000000000098c3d3183c4b8a650614ad179a1a98be0a8d6b8e"
                    ]
                },
                "nodeType": 1
            },
            "7": {
                "invocation": {
                    "address": "0xbbc2ae13b23d715c30720f079fcd9b4a74093505",
                    "callData": "0x000000000000000000000000570febdf89c07f256c75686caca215289bb11cfc",
                    "decodedMethod": {
                        "callParams": [
                            {
                                "name": "account",
                                "type": "address",
                                "value": "0x570febdf89c07f256c75686caca215289bb11cfc"
                            }
                        ],
                        "constructorArguments": "",
                        "name": "balanceOf",
                        "returnParams": [
                            {
                                "decimalAvailable": true,
                                "name": "",
                                "type": "uint256",
                                "value": "791,169,152,155,150,601,431,710"
                            }
                        ],
                        "signature": "balanceOf(address)"
                    },
                    "errorInfo": "",
                    "fromAddress": "0x570febdf89c07f256c75686caca215289bb11cfc",
                    "gasUsed": 518,
                    "id": 7,
                    "methodDecoded": true,
                    "operation": "STATICCALL",
                    "output": "0x00000000000000000000000000000000000000000000a7895d9d1b4a07bc2a9e",
                    "revert": false,
                    "revertMessage": "",
                    "selector": "0x70a08231",
                    "status": true,
                    "value": "0"
                },
                "nodeType": 0
            },
            "8": {
                "invocation": {
                    "address": "0xc02aaa39b223fe8d0a0e5c4f27ead9083c756cc2",
                    "callData": "0x000000000000000000000000570febdf89c07f256c75686caca215289bb11cfc",
                    "decodedMethod": {
                        "callParams": [
                            {
                                "name": "",
                                "type": "address",
                                "value": "0x570febdf89c07f256c75686caca215289bb11cfc"
                            }
                        ],
                        "constructorArguments": "",
                        "name": "balanceOf",
                        "returnParams": [
                            {
                                "decimalAvailable": true,
                                "name": "",
                                "type": "uint256",
                                "value": "1,225,871,437,189,056,888,552"
                            }
                        ],
                        "signature": "balanceOf(address)"
                    },
                    "errorInfo": "",
                    "fromAddress": "0x570febdf89c07f256c75686caca215289bb11cfc",
                    "gasUsed": 534,
                    "id": 8,
                    "methodDecoded": true,
                    "operation": "STATICCALL",
                    "output": "0x0000000000000000000000000000000000000000000000427462392d9f50fee8",
                    "revert": false,
                    "revertMessage": "",
                    "selector": "0x70a08231",
                    "status": true,
                    "value": "0"
                },
                "nodeType": 0
            },
            "9": {
                "event": {
                    "contract": "0x570febdf89c07f256c75686caca215289bb11cfc",
                    "decodedLog": {
                        "name": "Sync",
                        "params": [
                            {
                                "name": "reserve0",
                                "type": "uint112",
                                "value": "791,169,152,155,150,601,431,710"
                            },
                            {
                                "name": "reserve1",
                                "type": "uint112",
                                "value": "1,225,871,437,189,056,888,552"
                            }
                        ],
                        "signature": "Sync(uint112,uint112)"
                    },
                    "id": 9,
                    "logData": "0x00000000000000000000000000000000000000000000a7895d9d1b4a07bc2a9e0000000000000000000000000000000000000000000000427462392d9f50fee8",
                    "logDecoded": true,
                    "operation": "EVENT",
                    "revert": false,
                    "status": true,
                    "topics": [
                        "0x1c411e9a96e071241c2f21f7726b17ae89e3cab4c78be50e062b03a9fffbbad1"
                    ]
                },
                "nodeType": 1
            }
        },
        "gasFlame": [
            {
                "children": [
                    {
                        "children": [
                            {
                                "children": [],
                                "depth": 0,
                                "name": "Initial Gas",
                                "value": 22564
                            },
                            {
                                "children": [
                                    {
                                        "children": [],
                                        "depth": 1,
                                        "name": "getReserves",
                                        "value": 2504
                                    },
                                    {
                                        "children": [],
                                        "depth": 1,
                                        "name": "transfer",
                                        "value": 13135
                                    },
                                    {
                                        "children": [
                                            {
                                                "children": [],
                                                "depth": 2,
                                                "name": "transfer",
                                                "value": 12862
                                            },
                                            {
                                                "children": [],
                                                "depth": 2,
                                                "name": "balanceOf",
                                                "value": 518
                                            },
                                            {
                                                "children": [],
                                                "depth": 2,
                                                "name": "balanceOf",
                                                "value": 534
                                            }
                                        ],
                                        "depth": 1,
                                        "name": "swap",
                                        "value": 47737
                                    }
                                ],
                                "depth": 0,
                                "name": "Executed Gas",
                                "value": 77190
                            }
                        ],
                        "depth": -1,
                        "name": "Actual Gas Used",
                        "value": 96954
                    },
                    {
                        "children": [],
                        "depth": -1,
                        "name": "Refunded Gas",
                        "value": 2800
                    }
                ],
                "depth": -2,
                "name": "Total Gas",
                "value": 99754
            }
        ],
        "isConfirmed": true,
        "mainTrace": [
            {
                "children": [
                    {
                        "children": [
                            {
                                "children": [],
                                "depth": 1,
                                "id": 1,
                                "order": 1
                            },
                            {
                                "children": [
                                    {
                                        "children": [],
                                        "depth": 2,
                                        "id": 3,
                                        "order": 3
                                    }
                                ],
                                "depth": 1,
                                "id": 2,
                                "order": 2
                            },
                            {
                                "children": [
                                    {
                                        "children": [
                                            {
                                                "children": [],
                                                "depth": 3,
                                                "id": 6,
                                                "order": 6
                                            }
                                        ],
                                        "depth": 2,
                                        "id": 5,
                                        "order": 5
                                    },
                                    {
                                        "children": [],
                                        "depth": 2,
                                        "id": 7,
                                        "order": 7
                                    },
                                    {
                                        "children": [],
                                        "depth": 2,
                                        "id": 8,
                                        "order": 8
                                    },
                                    {
                                        "children": [],
                                        "depth": 2,
                                        "id": 9,
                                        "order": 9
                                    },
                                    {
                                        "children": [],
                                        "depth": 2,
                                        "id": 10,
                                        "order": 10
                                    }
                                ],
                                "depth": 1,
                                "id": 4,
                                "order": 4
                            }
                        ],
                        "depth": 0,
                        "id": 0,
                        "order": 0
                    }
                ],
                "depth": -1,
                "id": -1,
                "order": -1
            }
        ],
        "mainTraceNodeCount": 11,
        "parentIdMap": {
            "0": -1,
            "1": 0,
            "10": 4,
            "2": 0,
            "3": 2,
            "4": 0,
            "5": 4,
            "6": 5,
            "7": 4,
            "8": 4,
            "9": 4
        },
        "tidyTrace": [
            {
                "children": [
                    {
                        "children": [
                            {
                                "children": [
                                    {
                                        "children": [],
                                        "depth": 2,
                                        "id": 3,
                                        "order": 3
                                    }
                                ],
                                "depth": 1,
                                "id": 2,
                                "order": 2
                            },
                            {
                                "children": [
                                    {
                                        "children": [
                                            {
                                                "children": [],
                                                "depth": 3,
                                                "id": 6,
                                                "order": 6
                                            }
                                        ],
                                        "depth": 2,
                                        "id": 5,
                                        "order": 5
                                    },
                                    {
                                        "children": [],
                                        "depth": 2,
                                        "id": 9,
                                        "order": 9
                                    },
                                    {
                                        "children": [],
                                        "depth": 2,
                                        "id": 10,
                                        "order": 10
                                    }
                                ],
                                "depth": 1,
                                "id": 4,
                                "order": 4
                            }
                        ],
                        "depth": 0,
                        "id": 0,
                        "order": 0
                    }
                ],
                "depth": -1,
                "id": -1,
                "order": -1
            }
        ],
        "tidyTraceNodeCount": 8
    },
    "state_change": {
        "stateChanges": [
            {
                "address": "0x570febdf89c07f256c75686caca215289bb11cfc",
                "erc": "ERC-20",
                "slots": [
                    {
                        "current": "0x0000000000000000000000000005f2a69b29e90397b4fb58519322fbbad2616b",
                        "key": "0x000000000000000000000000000000000000000000000000000000000000000a",
                        "prev": "0x0000000000000000000000000005f2a67d1d348a68dcdc254a40b999fe6dd4bf"
                    },
                    {
                        "current": "0x636bab0f0000000000427462392d9f50fee800000000a7895d9d1b4a07bc2a9e",
                        "key": "0x0000000000000000000000000000000000000000000000000000000000000008",
                        "prev": "0x636bab03000000000042adb706b0ff6cce0100000000a6f8e216d67ee909ad81"
                    },
                    {
                        "current": "0x00000000000000000000000000000002edcfcf6bb4aa828d8f00d5a93aca4ef0",
                        "key": "0x0000000000000000000000000000000000000000000000000000000000000009",
                        "prev": "0x00000000000000000000000000000002edcfcaa0ef66feff880d3776ae419958"
                    }
                ],
                "storageVariables": [
                    {
                        "name": "price1CumulativeLast",
                        "type": "uint256",
                        "value": {
                            "current": "132641592308997575116153183821823367915397483",
                            "prev": "132641552366189704432351775012936523390506175",
                            "typeTag": 1
                        }
                    },
                    {
                        "name": "reserve0",
                        "type": "uint112",
                        "value": {
                            "current": "791169152155150601431710",
                            "prev": "788503920131183697571201",
                            "typeTag": 1
                        }
                    },
                    {
                        "name": "reserve1",
                        "type": "uint112",
                        "value": {
                            "current": "1225871437189056888552",
                            "prev": "1230002589911399321089",
                            "typeTag": 1
                        }
                    },
                    {
                        "name": "blockTimestampLast",
                        "type": "uint32",
                        "value": {
                            "current": "1668000527",
                            "prev": "1668000515",
                            "typeTag": 1
                        }
                    },
                    {
                        "name": "price0CumulativeLast",
                        "type": "uint256",
                        "value": {
                            "current": "996670781284733478722233938127666958064",
                            "prev": "996670684089956070019489057435505760600",
                            "typeTag": 1
                        }
                    }
                ]
            },
            {
                "address": "0xbbc2ae13b23d715c30720f079fcd9b4a74093505",
                "erc": "ERC-20",
                "slots": [
                    {
                        "current": "0x00000000000000000000000000000000000000000000a7895d9d1b4a07bc2a9e",
                        "key": "0x1ff4d4c56a1758dc9e7cbd8eeea73a44d03cd53ce6cc324cfc3034d4cf1a61d9",
                        "prev": "0x00000000000000000000000000000000000000000000a6f8e216d67ee909ad81"
                    },
                    {
                        "current": "0x00000000000000000000000000000000000000000000009655fec90ebdfd4972",
                        "key": "0xf4e54bb51e10c9ff52102ae731b015539d4e9d60e64768267b59846a24141fd7",
                        "prev": "0x000000000000000000000000000000000000000000000126d1850dd9dcafc68f"
                    }
                ],
                "storageVariables": [
                    {
                        "name": "_balances",
                        "type": "mapping(address => uint256)",
                        "value": {
                            "pairs": [
                                {
                                    "key": "0x570febdf89c07f256c75686caca215289bb11cfc",
                                    "value": {
                                        "current": "791169152155150601431710",
                                        "prev": "788503920131183697571201",
                                        "typeTag": 1
                                    }
                                },
                                {
                                    "key": "0x98c3d3183c4b8a650614ad179a1a98be0a8d6b8e",
                                    "value": {
                                        "current": "2773208222258895341938",
                                        "prev": "5438440246225799202447",
                                        "typeTag": 1
                                    }
                                }
                            ],
                            "typeTag": 4
                        }
                    }
                ]
            },
            {
                "address": "0xc02aaa39b223fe8d0a0e5c4f27ead9083c756cc2",
                "erc": "ERC-20",
                "slots": [
                    {
                        "current": "0x0000000000000000000000000000000000000000000000a4fb6dbe1e8049bf7f",
                        "key": "0x993460b7a842a34c6de2dc08dde1c527f4354825432b190bba2e4f8a7b04c6c8",
                        "prev": "0x0000000000000000000000000000000000000000000000a4c218f09b202df066"
                    },
                    {
                        "current": "0x0000000000000000000000000000000000000000000000427462392d9f50fee8",
                        "key": "0x7b2222137926690f5a18eb878ed99731920bd1d3cb0c6f265a506f85f0c0abe1",
                        "prev": "0x000000000000000000000000000000000000000000000042adb706b0ff6cce01"
                    }
                ],
                "storageVariables": [
                    {
                        "name": "balanceOf",
                        "type": "mapping(address => uint256)",
                        "value": {
                            "pairs": [
                                {
                                    "key": "0x570febdf89c07f256c75686caca215289bb11cfc",
                                    "value": {
                                        "current": "1225871437189056888552",
                                        "prev": "1230002589911399321089",
                                        "typeTag": 1
                                    }
                                },
                                {
                                    "key": "0x98c3d3183c4b8a650614ad179a1a98be0a8d6b8e",
                                    "value": {
                                        "current": "3043383374002558451583",
                                        "prev": "3039252221280216019046",
                                        "typeTag": 1
                                    }
                                }
                            ],
                            "typeTag": 4
                        }
                    }
                ]
            }
        ]
    }
}