{
    "balance_change": {
        "balanceChanges": []
    },
    "profile": {
        "basic_info": {
            "baseFee": "",
            "blockNumber": 10000196,
            "callData": "0x1166073a00000000000000000000000000000000000000000000000000000000000000000000000000000000000000000000000000000000000000000000000000000040000000000000000000000000000000000000000000000000000000000000002468747470733a2f2f7374616767736e2d72656c61792e636c6f736563726f73732e636f6d00000000000000000000000000000000000000000000000000000000",
            "debugEnable": true,
            "errorInfo": "",
            "eventCount": 1,
            "feeRecipient": "0xea674fdde714fd979de3edf0f56aa9716b898ec8",
            "formatValue": "0",
            "gasLimit": 55751,
            "gasPrice": "10",
            "gasUsed": 35623,
            "intTxnCount": 1,
            "internalRevert": false,
            "internalRevertMessage": "",
            "isContractCreation": false,
            "isFlashloan": false,
            "maxFee": "",
            "nonce": 592,
            "overwritedBlockNumber": -1,
            "priorityFee": "",
            "receiver": "0x6caa6598c964ccb9db5adca0ab41e2e2d4758652",
            "revertMessage": "",
            "sender": "0x78173916490bf82d6581794ef33b38678cac6878",
            "simulationEnable": true,
            "sourceTxnHash": "0x5f8336cda752e5153f60440db3c7c42abc2c380fb68dd245d0314657067ec3e3",
            "status": true,
            "timestamp": "2020-05-04T14:05:41Z",
            "transactionFee": "0.00035623",
            "txnHash": "0x5f8336cda752e5153f60440db3c7c42abc2c380fb68dd245d0314657067ec3e3",
            "txnIndex": 93,
            "type": 0,
            "value": "0"
        },
        "fund_flow": [],
        "token_infos": [
            {
                "address": "0xc02aaa39b223fe8d0a0e5c4f27ead9083c756cc2",
                "decimals": 18
            },
            {
                "address": "0xeeeeeeeeeeeeeeeeeeeeeeeeeeeeeeeeeeeeeeee",
                "decimals": 18
            }
        ]
    },
    "address_label": {
        "labels": [
            {
                "address": "0xeeeeeeeeeeeeeeeeeeeeeeeeeeeeeeeeeeeeeeee",
                "label": "Ether"
            },
            {
                "address": "0x6caa6598c964ccb9db5adca0ab41e2e2d4758652",
                "label": "InitializableAdminUpgradeabilityProxy"
            },
            {
                "address": "0x0000000000000000000000000000000000000001",
                "label": "Precompiled"
            },
            {
                "address": "0x0000000000000000000000000000000000000002",
                "label": "Precompiled"
            },
            {
                "address": "0x0000000000000000000000000000000000000003",
                "label": "Precompiled"
            },
            {
                "address": "0x0000000000000000000000000000000000000004",
                "label": "Precompiled"
            }
        ]
    },
    "trace": {
        "accountLabels": null,
        "dataMap": {
            "-1": {
                "invocation": {
                    "address": "0x78173916490bf82d6581794ef33b38678cac6878",
                    "callData": "",
                    "decodedMethod": null,
                    "errorInfo": "",
                    "fromAddress": "",
                    "gasUsed": 0,
                    "id": -1,
                    "methodDecoded": false,
                    "operation": "",
                    "output": "",
                    "revert": false,
                    "revertMessage": "",
                    "selector": "",
                    "status": false,
                    "value": ""
                },
                "nodeType": 0
            },
            "0": {
                "invocation": {
                    "address": "0x6caa6598c964ccb9db5adca0ab41e2e2d4758652",
                    "callData": "0x00000000000000000000000000000000000000000000000000000000000000000000000000000000000000000000000000000000000000000000000000000040000000000000000000000000000000000000000000000000000000000000002468747470733a2f2f7374616767736e2d72656c61792e636c6f736563726f73732e636f6d00000000000000000000000000000000000000000000000000000000",
                    "decodedMethod": {
                        "callParams": [
                            {
                                "name": "transactionFee",
                                "type": "uint256",
                                "value": "0"
                            },
                            {
                                "name": "url",
                                "type": "string",
                                "value": "https://staggsn-relay.closecross.com"
                            }
                        ],
                        "constructorArguments": "",
                        "name": "registerRelay",
                        "returnParams": [],
                        "signature": "registerRelay(uint256,string)"
                    },
                    "errorInfo": "",
                    "fromAddress": "0x78173916490bf82d6581794ef33b38678cac6878",
                    "gasUsed": 35623,
                    "id": 0,
                    "methodDecoded": true,
                    "operation": "CALL",
                    "output": "",
                    "revert": false,
                    "revertMessage": "",
                    "selector": "0x1166073a",
                    "status": true,
                    "value": "0"
                },
                "nodeType": 0
            },
            "1": {
                "invocation": {
                    "address": "0xac09a2deed3a36d4f323d69bddef50d3a13c8cbf",
                    "callData": "0x00000000000000000000000000000000000000000000000000000000000000000000000000000000000000000000000000000000000000000000000000000040000000000000000000000000000000000000000000000000000000000000002468747470733a2f2f7374616767736e2d72656c61792e636c6f736563726f73732e636f6d00000000000000000000000000000000000000000000000000000000",
                    "decodedMethod": {
                        "callParams": [
                            {
                                "name": "transactionFee",
                                "type": "uint256",
                                "value": "0"
                            },
                            {
                                "name": "url",
                                "type": "string",
                                "value": "https://staggsn-relay.closecross.com"
                            }
                        ],
                        "constructorArguments": "",
                        "name": "registerRelay",
                        "returnParams": [],
                        "signature": "registerRelay(uint256,string)"
                    },
                    "errorInfo": "",
                    "fromAddress": "0x6caa6598c964ccb9db5adca0ab41e2e2d4758652",
                    "gasUsed": 10686,
                    "id": 1,
                    "methodDecoded": true,
                    "operation": "DELEGATECALL",
                    "output": "",
                    "revert": false,
                    "revertMessage": "",
                    "selector": "0x1166073a",
                    "status": true,
                    "value": "0"
                },
                "nodeType": 0
            },
            "2": {
                "event": {
                    "contract": "0x6caa6598c964ccb9db5adca0ab41e2e2d4758652",
                    "decodedLog": {
                        "name": "RelayAdded",
                        "params": [
                            {
                                "name": "relay",
                                "type": "address",
                                "value": "0x78173916490bf82d6581794ef33b38678cac6878"
                            },
                            {
                                "name": "owner",
                                "type": "address",
                                "value": "0xd4832e0fe07413c39a289db1cdefadabbd01d94b"
                            },
                            {
                                "name": "transactionFee",
                                "type": "uint256",
                                "value": "0"
                            },
                            {
                                "name": "stake",
                                "type": "uint256",
                                "value": "10,000,000,000,000,000"
                            },
                            {
                                "name": "unstakeDelay",
                                "type": "uint256",
                                "value": "604,800"
                            },
                            {
                                "name": "url",
                                "type": "string",
                                "value": "https://staggsn-relay.closecross.com"
                            }
                        ],
                        "signature": "RelayAdded(address,address,uint256,uint256,uint256,string)"
                    },
                    "id": 2,
                    "logData": "0x0000000000000000000000000000000000000000000000000000000000000000000000000000000000000000000000000000000000000000002386f26fc100000000000000000000000000000000000000000000000000000000000000093a800000000000000000000000000000000000000000000000000000000000000080000000000000000000000000000000000000000000000000000000000000002468747470733a2f2f7374616767736e2d72656c61792e636c6f736563726f73732e636f6d00000000000000000000000000000000000000000000000000000000",
                    "logDecoded": true,
                    "operation": "EVENT",
                    "revert": false,
                    "status": true,
                    "topics": [
                        "0x85b3ae3aae9d3fcb31142fbd8c3b4722d57825b8edd6e1366e69204afa5a0dfa",
                        "0x00000000000000000000000078173916490bf82d6581794ef33b38678cac6878",
                        "0x000000000000000000000000d4832e0fe07413c39a289db1cdefadabbd01d94b"
                    ]
                },
                "nodeType": 1
            }
        },
        "gasFlame": [
            {
                "children": [
                    {
                        "children": [
                            {
                                "children": [],
                                "depth": 0,
                                "name": "Initial Gas",
                                "value": 22160
                            },
                            {
                                "children": [
                                    {
                                        "children": [],
                                        "depth": 1,
                                        "name": "registerRelay",
                                        "value": 10686
                                    }
                                ],
                                "depth": 0,
                                "name": "Executed Gas",
                                "value": 13463
                            }
                        ],
                        "depth": -1,
                        "name": "Actual Gas Used",
                        "value": 35623
                    },
                    {
                        "children": [],
                        "depth": -1,
                        "name": "Refunded Gas",
                        "value": 0
                    }
                ],
                "depth": -2,
                "name": "Total Gas",
                "value": 35623
            }
        ],
        "isConfirmed": true,
        "mainTrace": [
            {
                "children": [
                    {
                        "children": [
                            {
                                "children": [
                                    {
                                        "children": [],
                                        "depth": 2,
                                        "id": 2,
                                        "order": 2
                                    }
                                ],
                                "depth": 1,
                                "id": 1,
                                "order": 1
                            }
                        ],
                        "depth": 0,
                        "id": 0,
                        "order": 0
                    }
                ],
                "depth": -1,
                "id": -1,
                "order": -1
            }
        ],
        "mainTraceNodeCount": 3,
        "parentIdMap": {
            "0": -1,
            "1": 0,
            "2": 1
        },
        "tidyTrace": [
            {
                "children": [
                    {
                        "children": [
                            {
                                "children": [
                                    {
                                        "children": [],
                                        "depth": 2,
                                        "id": 2,
                                        "order": 2
                                    }
                                ],
                                "depth": 1,
                                "id": 1,
                                "order": 1
                            }
                        ],
                        "depth": 0,
                        "id": 0,
                        "order": 0
                    }
                ],
                "depth": -1,
                "id": -1,
                "order": -1
            }
        ],
        "tidyTraceNodeCount": 3
    },
    "state_change": {
        "stateChanges": []
    }
}