{
    "balance_change": {
        "balanceChanges": [
            {
                "account": "0xc3fd80a91cc9fd8821aa24ee0457e5de6ea951e9",
                "assets": [
                    {
                        "address": "0x5e2effd98b24a7fd12156c6ecf2f77cf4588b572",
                        "amount": "30,098,700,000,000,000,000,000",
                        "iconUrl": "",
                        "isERC1155": false,
                        "isERC721": false,
                        "sign": false,
                        "value": ""
                    }
                ]
            },
            {
                "account": "0xd4fc606a4dfb36ed2ac01d39a25ad236d2f3d276",
                "assets": [
                    {
                        "address": "0x5e2effd98b24a7fd12156c6ecf2f77cf4588b572",
                        "amount": "30,098,700,000,000,000,000,000",
                        "iconUrl": "",
                        "isERC1155": false,
                        "isERC721": false,
                        "sign": true,
                        "value": ""
                    }
                ]
            }
        ]
    },
    "profile": {
        "basic_info": {
            "baseFee": "",
            "blockNumber": 8288754,
            "callData": "0xa9059cbb000000000000000000000000d4fc606a4dfb36ed2ac01d39a25ad236d2f3d27600000000000000000000000000000000000000000000065fa75f3440b9ce0000",
            "debugEnable": true,
            "errorInfo": "",
            "eventCount": 1,
            "feeRecipient": "0xea674fdde714fd979de3edf0f56aa9716b898ec8",
            "formatValue": "0",
            "gasLimit": 60000,
            "gasPrice": "11",
            "gasUsed": 38009,
            "intTxnCount": 0,
            "internalRevert": false,
            "internalRevertMessage": "",
            "isContractCreation": false,
            "isFlashloan": false,
            "maxFee": "",
            "nonce": 13809,
            "overwritedBlockNumber": -1,
            "priorityFee": "",
            "receiver": "0x5e2effd98b24a7fd12156c6ecf2f77cf4588b572",
            "revertMessage": "",
            "sender": "0xc3fd80a91cc9fd8821aa24ee0457e5de6ea951e9",
            "simulationEnable": true,
            "sourceTxnHash": "0x5fdd22ab397f78f6566b095e69eda0cca6fb9cf9a3a6ff52c915d416c470c16b",
            "status": true,
            "timestamp": "2019-08-05T05:24:55Z",
            "transactionFee": "0.000418099",
            "txnHash": "0x5fdd22ab397f78f6566b095e69eda0cca6fb9cf9a3a6ff52c915d416c470c16b",
            "txnIndex": 88,
            "type": 0,
            "value": "0"
        },
        "fund_flow": [
            {
                "amount": "30,098,700,000,000,000,000,000",
                "from": "0xc3fd80a91cc9fd8821aa24ee0457e5de6ea951e9",
                "id": 1,
                "isERC1155": false,
                "isERC721": false,
                "isReverted": false,
                "order": 1,
                "to": "0xd4fc606a4dfb36ed2ac01d39a25ad236d2f3d276",
                "token": "0x5e2effd98b24a7fd12156c6ecf2f77cf4588b572"
            }
        ],
        "token_infos": [
            {
                "address": "0xc02aaa39b223fe8d0a0e5c4f27ead9083c756cc2",
                "decimals": 18
            },
            {
                "address": "0xeeeeeeeeeeeeeeeeeeeeeeeeeeeeeeeeeeeeeeee",
                "decimals": 18
            }
        ]
    },
    "address_label": {
        "labels": [
            {
                "address": "0x0000000000000000000000000000000000000001",
                "label": "Precompiled"
            },
            {
                "address": "0x0000000000000000000000000000000000000002",
                "label": "Precompiled"
            },
            {
                "address": "0x0000000000000000000000000000000000000003",
                "label": "Precompiled"
            },
            {
                "address": "0x0000000000000000000000000000000000000004",
                "label": "Precompiled"
            },
            {
                "address": "0xeeeeeeeeeeeeeeeeeeeeeeeeeeeeeeeeeeeeeeee",
                "label": "Ether"
            },
            {
                "address": "0x5e2effd98b24a7fd12156c6ecf2f77cf4588b572",
                "label": "WinbitToken"
            }
        ]
    },
    "trace": {
        "accountLabels": null,
        "dataMap": {
            "-1": {
                "invocation": {
                    "address": "0xc3fd80a91cc9fd8821aa24ee0457e5de6ea951e9",
                    "callData": "",
                    "decodedMethod": null,
                    "errorInfo": "",
                    "fromAddress": "",
                    "gasUsed": 0,
                    "id": -1,
                    "methodDecoded": false,
                    "operation": "",
                    "output": "",
                    "revert": false,
                    "revertMessage": "",
                    "selector": "",
                    "status": false,
                    "value": ""
                },
                "nodeType": 0
            },
            "0": {
                "invocation": {
                    "address": "0x5e2effd98b24a7fd12156c6ecf2f77cf4588b572",
                    "callData": "0x000000000000000000000000d4fc606a4dfb36ed2ac01d39a25ad236d2f3d27600000000000000000000000000000000000000000000065fa75f3440b9ce0000",
                    "decodedMethod": {
                        "callParams": [
                            {
                                "name": "_to",
                                "type": "address",
                                "value": "0xd4fc606a4dfb36ed2ac01d39a25ad236d2f3d276"
                            },
                            {
                                "decimalAvailable": true,
                                "name": "_value",
                                "type": "uint256",
                                "value": "30,098,700,000,000,000,000,000"
                            }
                        ],
                        "constructorArguments": "",
                        "name": "transfer",
                        "returnParams": [
                            {
                                "name": "success",
                                "type": "bool",
                                "value": true
                            }
                        ],
                        "signature": "transfer(address,uint256)"
                    },
                    "errorInfo": "",
                    "fromAddress": "0xc3fd80a91cc9fd8821aa24ee0457e5de6ea951e9",
                    "gasUsed": 38009,
                    "id": 0,
                    "methodDecoded": true,
                    "operation": "CALL",
                    "output": "0x0000000000000000000000000000000000000000000000000000000000000001",
                    "revert": false,
                    "revertMessage": "",
                    "selector": "0xa9059cbb",
                    "status": true,
                    "value": "0"
                },
                "nodeType": 0
            },
            "1": {
                "event": {
                    "contract": "0x5e2effd98b24a7fd12156c6ecf2f77cf4588b572",
                    "decodedLog": {
                        "name": "Transfer",
                        "params": [
                            {
                                "name": "from",
                                "type": "address",
                                "value": "0xc3fd80a91cc9fd8821aa24ee0457e5de6ea951e9"
                            },
                            {
                                "name": "to",
                                "type": "address",
                                "value": "0xd4fc606a4dfb36ed2ac01d39a25ad236d2f3d276"
                            },
                            {
                                "decimalAvailable": true,
                                "name": "value",
                                "type": "uint256",
                                "value": "30,098,700,000,000,000,000,000"
                            }
                        ],
                        "signature": "Transfer(address,address,uint256)"
                    },
                    "id": 1,
                    "logData": "0x00000000000000000000000000000000000000000000065fa75f3440b9ce0000",
                    "logDecoded": true,
                    "operation": "EVENT",
                    "revert": false,
                    "status": true,
                    "topics": [
                        "0xddf252ad1be2c89b69c2b068fc378daa952ba7f163c4a11628f55a4df523b3ef",
                        "0x000000000000000000000000c3fd80a91cc9fd8821aa24ee0457e5de6ea951e9",
                        "0x000000000000000000000000d4fc606a4dfb36ed2ac01d39a25ad236d2f3d276"
                    ]
                },
                "nodeType": 1
            }
        },
        "gasFlame": [
            {
                "children": [
                    {
                        "children": [
                            {
                                "children": [],
                                "depth": 0,
                                "name": "Initial Gas",
                                "value": 23320
                            },
                            {
                                "children": [],
                                "depth": 0,
                                "name": "Executed Gas",
                                "value": 14689
                            }
                        ],
                        "depth": -1,
                        "name": "Actual Gas Used",
                        "value": 38009
                    },
                    {
                        "children": [],
                        "depth": -1,
                        "name": "Refunded Gas",
                        "value": 0
                    }
                ],
                "depth": -2,
                "name": "Total Gas",
                "value": 38009
            }
        ],
        "isConfirmed": true,
        "mainTrace": [
            {
                "children": [
                    {
                        "children": [
                            {
                                "children": [],
                                "depth": 1,
                                "id": 1,
                                "order": 1
                            }
                        ],
                        "depth": 0,
                        "id": 0,
                        "order": 0
                    }
                ],
                "depth": -1,
                "id": -1,
                "order": -1
            }
        ],
        "mainTraceNodeCount": 2,
        "parentIdMap": {
            "0": -1,
            "1": 0
        },
        "tidyTrace": [
            {
                "children": [
                    {
                        "children": [
                            {
                                "children": [],
                                "depth": 1,
                                "id": 1,
                                "order": 1
                            }
                        ],
                        "depth": 0,
                        "id": 0,
                        "order": 0
                    }
                ],
                "depth": -1,
                "id": -1,
                "order": -1
            }
        ],
        "tidyTraceNodeCount": 2
    },
    "state_change": {
        "stateChanges": [
            {
                "address": "0x5e2effd98b24a7fd12156c6ecf2f77cf4588b572",
                "erc": "ERC-20",
                "slots": [
                    {
                        "current": "0x000000000000000000000000000000000000000000000ceab976cb27d5f60000",
                        "key": "0xdc2ad58d87c2aee9e38508e45ec6d5c9b43f912388f1f38d059f256549f63274",
                        "prev": "0x00000000000000000000000000000000000000000000068b121796e71c280000"
                    },
                    {
                        "current": "0x0000000000000000000000000000000000000000018bcc51327e5b72df5d8000",
                        "key": "0x5f04a52b2b58f1caffc6ec52b6ecc6219eff857194827afc54a1bd7d9559a4bd",
                        "prev": "0x0000000000000000000000000000000000000000018bd2b0d9dd8fb3992b8000"
                    }
                ],
                "storageVariables": [
                    {
                        "name": "balanceOf",
                        "type": "mapping(address => uint256)",
                        "value": {
                            "pairs": [
                                {
                                    "key": "0xc3fd80a91cc9fd8821aa24ee0457e5de6ea951e9",
                                    "value": {
                                        "current": "478490559335000000000000000",
                                        "prev": "478520658035000000000000000",
                                        "typeTag": 1
                                    }
                                },
                                {
                                    "key": "0xd4fc606a4dfb36ed2ac01d39a25ad236d2f3d276",
                                    "value": {
                                        "current": "60998300000000000000000",
                                        "prev": "30899600000000000000000",
                                        "typeTag": 1
                                    }
                                }
                            ],
                            "typeTag": 4
                        }
                    }
                ]
            }
        ]
    }
}