{
    "balance_change": {
        "balanceChanges": []
    },
    "profile": {
        "basic_info": {
            "baseFee": "",
            "blockNumber": 4138880,
            "callData": "0x0a19b14a00000000000000000000000000000000000000000000000000000000000000000000000000000000000000000000000000000000000000012671ed16677680000000000000000000000000008f3470a7388c05ee4e7af3d01d8c722b0ff52374000000000000000000000000000000000000000000000002a802f8630a24000000000000000000000000000000000000000000000000000000000000003f4e7e000000000000000000000000000000000000000000000000000000005208a1a10000000000000000000000003cb319e3dc7432c795b70ffaa05e90ba46107305000000000000000000000000000000000000000000000000000000000000001cad7d2aaad65ac8852b1379e57d1233154f692bf058c474b3cc95db508e02668452d2af56e77df3d6e77bd3a0bd1d21b801465cb58c222a275c947ddc6128695b0000000000000000000000000000000000000000000000003d10757959db2000",
            "debugEnable": true,
            "errorInfo": "",
            "eventCount": 1,
            "feeRecipient": "0xbf23b68ff20c411be5658595612f873d785f12d7",
            "formatValue": "0",
            "gasLimit": 250000,
            "gasPrice": "4",
            "gasUsed": 93242,
            "intTxnCount": 2,
            "internalRevert": false,
            "internalRevertMessage": "",
            "isContractCreation": false,
            "isFlashloan": false,
            "maxFee": "",
            "nonce": 9,
            "overwritedBlockNumber": -1,
            "priorityFee": "",
            "receiver": "0x8d12a197cb00d4747a1fe03395095ce2a5cc6819",
            "revertMessage": "",
            "sender": "0x95a72d6e9c09575f5c6697726ce214993de5c753",
            "simulationEnable": true,
            "sourceTxnHash": "0x604848ae097cd5be7be0b0460f98f6be0aec26ec18a94dd5d12659a5dad9a5d9",
            "status": true,
            "timestamp": "2017-08-10T04:01:32Z",
            "transactionFee": "0.000372968",
            "txnHash": "0x604848ae097cd5be7be0b0460f98f6be0aec26ec18a94dd5d12659a5dad9a5d9",
            "txnIndex": 45,
            "type": 0,
            "value": "0"
        },
        "fund_flow": [],
        "token_infos": [
            {
                "address": "0xc02aaa39b223fe8d0a0e5c4f27ead9083c756cc2",
                "decimals": 18
            },
            {
                "address": "0xeeeeeeeeeeeeeeeeeeeeeeeeeeeeeeeeeeeeeeee",
                "decimals": 18
            }
        ]
    },
    "address_label": {
        "labels": [
            {
                "address": "0x0000000000000000000000000000000000000000",
                "label": "Null Address"
            },
            {
                "address": "0x0000000000000000000000000000000000000001",
                "label": "Precompiled"
            },
            {
                "address": "0x0000000000000000000000000000000000000003",
                "label": "Precompiled"
            },
            {
                "address": "0x0000000000000000000000000000000000000004",
                "label": "Precompiled"
            },
            {
                "address": "0xeeeeeeeeeeeeeeeeeeeeeeeeeeeeeeeeeeeeeeee",
                "label": "Ether"
            },
            {
                "address": "0x8d12a197cb00d4747a1fe03395095ce2a5cc6819",
                "label": "EtherDelta"
            },
            {
                "address": "0x0000000000000000000000000000000000000002",
                "label": "Precompiled"
            },
            {
                "address": "0x8f3470a7388c05ee4e7af3d01d8c722b0ff52374",
                "label": "Veritaseum Token"
            }
        ]
    },
    "trace": {
        "accountLabels": null,
        "dataMap": {
            "-1": {
                "invocation": {
                    "address": "0x95a72d6e9c09575f5c6697726ce214993de5c753",
                    "callData": "",
                    "decodedMethod": null,
                    "errorInfo": "",
                    "fromAddress": "",
                    "gasUsed": 0,
                    "id": -1,
                    "methodDecoded": false,
                    "operation": "",
                    "output": "",
                    "revert": false,
                    "revertMessage": "",
                    "selector": "",
                    "status": false,
                    "value": ""
                },
                "nodeType": 0
            },
            "0": {
                "invocation": {
                    "address": "0x8d12a197cb00d4747a1fe03395095ce2a5cc6819",
                    "callData": "0x00000000000000000000000000000000000000000000000000000000000000000000000000000000000000000000000000000000000000012671ed16677680000000000000000000000000008f3470a7388c05ee4e7af3d01d8c722b0ff52374000000000000000000000000000000000000000000000002a802f8630a24000000000000000000000000000000000000000000000000000000000000003f4e7e000000000000000000000000000000000000000000000000000000005208a1a10000000000000000000000003cb319e3dc7432c795b70ffaa05e90ba46107305000000000000000000000000000000000000000000000000000000000000001cad7d2aaad65ac8852b1379e57d1233154f692bf058c474b3cc95db508e02668452d2af56e77df3d6e77bd3a0bd1d21b801465cb58c222a275c947ddc6128695b0000000000000000000000000000000000000000000000003d10757959db2000",
                    "decodedMethod": {
                        "callParams": [
                            {
                                "name": "tokenGet",
                                "type": "address",
                                "value": "0x0000000000000000000000000000000000000000"
                            },
                            {
                                "name": "amountGet",
                                "type": "uint256",
                                "value": "21,217,000,000,000,000,000"
                            },
                            {
                                "name": "tokenGive",
                                "type": "address",
                                "value": "0x8f3470a7388c05ee4e7af3d01d8c722b0ff52374"
                            },
                            {
                                "name": "amountGive",
                                "type": "uint256",
                                "value": "49,000,000,000,000,000,000"
                            },
                            {
                                "name": "expires",
                                "type": "uint256",
                                "value": "4,148,862"
                            },
                            {
                                "name": "nonce",
                                "type": "uint256",
                                "value": "1,376,297,377"
                            },
                            {
                                "name": "user",
                                "type": "address",
                                "value": "0x3cb319e3dc7432c795b70ffaa05e90ba46107305"
                            },
                            {
                                "name": "v",
                                "type": "uint8",
                                "value": "28"
                            },
                            {
                                "name": "r",
                                "type": "bytes32",
                                "value": "0xad7d2aaad65ac8852b1379e57d1233154f692bf058c474b3cc95db508e026684"
                            },
                            {
                                "name": "s",
                                "type": "bytes32",
                                "value": "0x52d2af56e77df3d6e77bd3a0bd1d21b801465cb58c222a275c947ddc6128695b"
                            },
                            {
                                "name": "amount",
                                "type": "uint256",
                                "value": "4,400,146,000,000,000,000"
                            }
                        ],
                        "constructorArguments": "",
                        "name": "trade",
                        "returnParams": [],
                        "signature": "trade(address,uint256,address,uint256,uint256,uint256,address,uint8,bytes32,bytes32,uint256)"
                    },
                    "errorInfo": "",
                    "fromAddress": "0x95a72d6e9c09575f5c6697726ce214993de5c753",
                    "gasUsed": 93242,
                    "id": 0,
                    "methodDecoded": true,
                    "operation": "CALL",
                    "output": "",
                    "revert": false,
                    "revertMessage": "",
                    "selector": "0x0a19b14a",
                    "status": true,
                    "value": "0"
                },
                "nodeType": 0
            },
            "1": {
                "invocation": {
                    "address": "0x0000000000000000000000000000000000000002",
                    "callData": "0xcb00d4747a1fe03395095ce2a5cc681900000000000000000000000000000000000000000000000000000000000000000000000000000000000000012671ed16677680008f3470a7388c05ee4e7af3d01d8c722b0ff52374000000000000000000000000000000000000000000000002a802f8630a24000000000000000000000000000000000000000000000000000000000000003f4e7e000000000000000000000000000000000000000000000000000000005208a1a1",
                    "decodedMethod": {
                        "callParams": [
                            {
                                "name": "data",
                                "type": "bytes",
                                "value": "0x8d12a197cb00d4747a1fe03395095ce2a5cc681900000000000000000000000000000000000000000000000000000000000000000000000000000000000000012671ed16677680008f3470a7388c05ee4e7af3d01d8c722b0ff52374000000000000000000000000000000000000000000000002a802f8630a24000000000000000000000000000000000000000000000000000000000000003f4e7e000000000000000000000000000000000000000000000000000000005208a1a1"
                            }
                        ],
                        "constructorArguments": "",
                        "name": "sha256hash",
                        "returnParams": [
                            {
                                "name": "hash",
                                "type": "bytes32",
                                "value": "0xeb1f85ddcf28d98b750f38a57da95d1bca7e84ec1f58d17f9acdfebcea39b6e5"
                            }
                        ],
                        "signature": "sha256hash(bytes)"
                    },
                    "errorInfo": "",
                    "fromAddress": "0x8d12a197cb00d4747a1fe03395095ce2a5cc6819",
                    "gasUsed": 132,
                    "id": 1,
                    "methodDecoded": true,
                    "operation": "CALL",
                    "output": "0xeb1f85ddcf28d98b750f38a57da95d1bca7e84ec1f58d17f9acdfebcea39b6e5",
                    "revert": false,
                    "revertMessage": "",
                    "selector": "0x8d12a197",
                    "status": true,
                    "value": "0"
                },
                "nodeType": 0
            },
            "2": {
                "invocation": {
                    "address": "0x0000000000000000000000000000000000000001",
                    "callData": "0x7716a6d5c764120c31deba6db4e5944fa0ebb8b551aa9a2277983291000000000000000000000000000000000000000000000000000000000000001cad7d2aaad65ac8852b1379e57d1233154f692bf058c474b3cc95db508e02668452d2af56e77df3d6e77bd3a0bd1d21b801465cb58c222a275c947ddc6128695b",
                    "decodedMethod": {
                        "callParams": [
                            {
                                "name": "hash",
                                "type": "bytes32",
                                "value": "0x424e4e837716a6d5c764120c31deba6db4e5944fa0ebb8b551aa9a2277983291"
                            },
                            {
                                "name": "v",
                                "type": "uint256",
                                "value": "28"
                            },
                            {
                                "name": "r",
                                "type": "bytes32",
                                "value": "0xad7d2aaad65ac8852b1379e57d1233154f692bf058c474b3cc95db508e026684"
                            },
                            {
                                "name": "s",
                                "type": "bytes32",
                                "value": "0x52d2af56e77df3d6e77bd3a0bd1d21b801465cb58c222a275c947ddc6128695b"
                            }
                        ],
                        "constructorArguments": "",
                        "name": "ecrecover",
                        "returnParams": [
                            {
                                "name": "",
                                "type": "address",
                                "value": "0x3cb319e3dc7432c795b70ffaa05e90ba46107305"
                            }
                        ],
                        "signature": "ecrecover(bytes32,uint256,bytes32,bytes32)"
                    },
                    "errorInfo": "",
                    "fromAddress": "0x8d12a197cb00d4747a1fe03395095ce2a5cc6819",
                    "gasUsed": 3000,
                    "id": 2,
                    "methodDecoded": true,
                    "operation": "CALL",
                    "output": "0x0000000000000000000000003cb319e3dc7432c795b70ffaa05e90ba46107305",
                    "revert": false,
                    "revertMessage": "",
                    "selector": "0x424e4e83",
                    "status": true,
                    "value": "0"
                },
                "nodeType": 0
            },
            "3": {
                "event": {
                    "contract": "0x8d12a197cb00d4747a1fe03395095ce2a5cc6819",
                    "decodedLog": {
                        "name": "Trade",
                        "params": [
                            {
                                "name": "tokenGet",
                                "type": "address",
                                "value": "0x0000000000000000000000000000000000000000"
                            },
                            {
                                "name": "amountGet",
                                "type": "uint256",
                                "value": "4,400,146,000,000,000,000"
                            },
                            {
                                "name": "tokenGive",
                                "type": "address",
                                "value": "0x8f3470a7388c05ee4e7af3d01d8c722b0ff52374"
                            },
                            {
                                "name": "amountGive",
                                "type": "uint256",
                                "value": "10,162,000,000,000,000,000"
                            },
                            {
                                "name": "get",
                                "type": "address",
                                "value": "0x3cb319e3dc7432c795b70ffaa05e90ba46107305"
                            },
                            {
                                "name": "give",
                                "type": "address",
                                "value": "0x95a72d6e9c09575f5c6697726ce214993de5c753"
                            }
                        ],
                        "signature": "Trade(address,uint256,address,uint256,address,address)"
                    },
                    "id": 3,
                    "logData": "0x00000000000000000000000000000000000000000000000000000000000000000000000000000000000000000000000000000000000000003d10757959db20000000000000000000000000008f3470a7388c05ee4e7af3d01d8c722b0ff523740000000000000000000000000000000000000000000000008d06ad28cf8500000000000000000000000000003cb319e3dc7432c795b70ffaa05e90ba4610730500000000000000000000000095a72d6e9c09575f5c6697726ce214993de5c753",
                    "logDecoded": true,
                    "operation": "EVENT",
                    "revert": false,
                    "status": true,
                    "topics": [
                        "0x6effdda786735d5033bfad5f53e5131abcced9e52be6c507b62d639685fbed6d"
                    ]
                },
                "nodeType": 1
            }
        },
        "gasFlame": [
            {
                "children": [
                    {
                        "children": [
                            {
                                "children": [],
                                "depth": 0,
                                "name": "Initial Gas",
                                "value": 31256
                            },
                            {
                                "children": [
                                    {
                                        "children": [],
                                        "depth": 1,
                                        "name": "sha256hash",
                                        "value": 132
                                    },
                                    {
                                        "children": [],
                                        "depth": 1,
                                        "name": "ecrecover",
                                        "value": 3000
                                    }
                                ],
                                "depth": 0,
                                "name": "Executed Gas",
                                "value": 61986
                            }
                        ],
                        "depth": -1,
                        "name": "Actual Gas Used",
                        "value": 93242
                    },
                    {
                        "children": [],
                        "depth": -1,
                        "name": "Refunded Gas",
                        "value": 0
                    }
                ],
                "depth": -2,
                "name": "Total Gas",
                "value": 93242
            }
        ],
        "isConfirmed": true,
        "mainTrace": [
            {
                "children": [
                    {
                        "children": [
                            {
                                "children": [],
                                "depth": 1,
                                "id": 1,
                                "order": 1
                            },
                            {
                                "children": [],
                                "depth": 1,
                                "id": 2,
                                "order": 2
                            },
                            {
                                "children": [],
                                "depth": 1,
                                "id": 3,
                                "order": 3
                            }
                        ],
                        "depth": 0,
                        "id": 0,
                        "order": 0
                    }
                ],
                "depth": -1,
                "id": -1,
                "order": -1
            }
        ],
        "mainTraceNodeCount": 4,
        "parentIdMap": {
            "0": -1,
            "1": 0,
            "2": 0,
            "3": 0
        },
        "tidyTrace": [
            {
                "children": [
                    {
                        "children": [
                            {
                                "children": [],
                                "depth": 1,
                                "id": 1,
                                "order": 1
                            },
                            {
                                "children": [],
                                "depth": 1,
                                "id": 2,
                                "order": 2
                            },
                            {
                                "children": [],
                                "depth": 1,
                                "id": 3,
                                "order": 3
                            }
                        ],
                        "depth": 0,
                        "id": 0,
                        "order": 0
                    }
                ],
                "depth": -1,
                "id": -1,
                "order": -1
            }
        ],
        "tidyTraceNodeCount": 4
    },
    "state_change": {
        "stateChanges": [
            {
                "address": "0x8d12a197cb00d4747a1fe03395095ce2a5cc6819",
                "erc": "",
                "slots": [
                    {
                        "current": "0x000000000000000000000000000000000000000000000000e01e74354ac38bae",
                        "key": "0xe047a6d614bfcddba8591c629d53fb8355524a4d00fe7a418221a1add8a801fe",
                        "prev": "0x000000000000000000000000000000000000000000000000a30dfebbf0e86bae"
                    },
                    {
                        "current": "0x00000000000000000000000000000000000000000000000001352f250e12c800",
                        "key": "0x5c18280006fd868e53420e63a872298bb385ab5e98305600f41d53bf63eefc54",
                        "prev": "0x0000000000000000000000000000000000000000000000003e748a58e1cc8400"
                    },
                    {
                        "current": "0x000000000000000000000000000000000000000000000000e1524fb5bd28db0e",
                        "key": "0x85e0197c6cb6b1664826259a55ed06ce4aa5c796920c6ff471795813f104d469",
                        "prev": "0x000000000000000000000000000000000000000000000000a441da3c634dbb0e"
                    },
                    {
                        "current": "0x0000000000000000000000000000000000000000000000006c59f0545e2096f2",
                        "key": "0x9db71ea29ae27159ae6b0bc7608a91ca5e83d8e7e559f64559591e0344fb950e",
                        "prev": "0x0000000000000000000000000000000000000000000000006c2b0a99e441faf2"
                    },
                    {
                        "current": "0x000000000000000000000000000000000000000000000000a39a1fee5f386311",
                        "key": "0x8c335e55f09661e18f6ddf1e738874dad66f3bdefcaba056a863e81857adc475",
                        "prev": "0x00000000000000000000000000000000000000000000000130a0cd172ebd6311"
                    },
                    {
                        "current": "0x0000000000000000000000000000000000000000000000008d06ad28cf850000",
                        "key": "0x6d4a23b268fb0d33780789a063ae62987061bca5f722b63c0f2f55adb2a4f254",
                        "prev": "0x0000000000000000000000000000000000000000000000000000000000000000"
                    }
                ],
                "storageVariables": []
            }
        ]
    }
}