{
    "balance_change": {
        "balanceChanges": []
    },
    "profile": {
        "basic_info": {
            "baseFee": "",
            "blockNumber": 4393396,
            "callData": "0xef34358800000000000000000000000000000000000000000000000000000014def3e21a0000000000000000000000000000000000000000000000000d63cab8bddd944f000000000000000000000000000000000000000000000000000000000002e630000000000000000000000000000000000000000000000000000000000000092200000000000000000000000000000000000000000000000000000014def3e21a000000000000000000000000000000000000000000000000000000000000092300000000000000000000000000000000000000000000000000038d7ea4c680000000000000000000000000000000000000000000000000000007bb3cfca039d400000000000000000000000041e5560054824ea6b0732e656e3ad64e20e94e450000000000000000000000000000000000000000000000000000000000000000000000000000000000000000e7545f76ecbc8435d348c79db53ea6e6693578ff000000000000000000000000e7545f76ecbc8435d348c79db53ea6e6693578ff000000000000000000000000000000000000000000000000000000000000001c000000000000000000000000000000000000000000000000000000000000001c9b2b4895b476b6899fa9b60737fc551750a2c64623d579d23459dc5b64d34b696813c4308639cb7a302f5d85b7d132ddb095699f36821d8938a16cbcba748c5e2256e4b6f02c87aea6eebc0a2167799940f7007b686527b71073cba29e43cdf2513ea67cf5b20e22d1bbcbe36111996172d8961c80ae1ccdc28633f3fce16d2d",
            "debugEnable": true,
            "errorInfo": "",
            "eventCount": 0,
            "feeRecipient": "0x52bc44d5378309ee2abf1539bf71de1b7d7be3b5",
            "formatValue": "0",
            "gasLimit": 290000,
            "gasPrice": "1",
            "gasUsed": 142324,
            "intTxnCount": 2,
            "internalRevert": false,
            "internalRevertMessage": "",
            "isContractCreation": false,
            "isFlashloan": false,
            "maxFee": "",
            "nonce": 94,
            "overwritedBlockNumber": -1,
            "priorityFee": "",
            "receiver": "0x2a0c0dbecc7e4d658f48e01e3fa353f44050c208",
            "revertMessage": "",
            "sender": "0x9c536b0e7afb8a545b5a506244c95a92d9f8c3d9",
            "simulationEnable": true,
            "sourceTxnHash": "0x60ecb3433081f22367ed177df344eeedef501b84b821bbb75c743a72f92ba661",
            "status": true,
            "timestamp": "2017-10-20T03:52:55Z",
            "transactionFee": "0.000142324",
            "txnHash": "0x60ecb3433081f22367ed177df344eeedef501b84b821bbb75c743a72f92ba661",
            "txnIndex": 32,
            "type": 0,
            "value": "0"
        },
        "fund_flow": [],
        "token_infos": [
            {
                "address": "0xc02aaa39b223fe8d0a0e5c4f27ead9083c756cc2",
                "decimals": 18
            },
            {
                "address": "0xeeeeeeeeeeeeeeeeeeeeeeeeeeeeeeeeeeeeeeee",
                "decimals": 18
            }
        ]
    },
    "address_label": {
        "labels": [
            {
                "address": "0x0000000000000000000000000000000000000003",
                "label": "Precompiled"
            },
            {
                "address": "0x0000000000000000000000000000000000000004",
                "label": "Precompiled"
            },
            {
                "address": "0xeeeeeeeeeeeeeeeeeeeeeeeeeeeeeeeeeeeeeeee",
                "label": "Ether"
            },
            {
                "address": "0x41e5560054824ea6b0732e656e3ad64e20e94e45",
                "label": "Civic: CVC Token"
            },
            {
                "address": "0x0000000000000000000000000000000000000000",
                "label": "Null Address"
            },
            {
                "address": "0x2a0c0dbecc7e4d658f48e01e3fa353f44050c208",
                "label": "IDEX"
            },
            {
                "address": "0x0000000000000000000000000000000000000001",
                "label": "Precompiled"
            },
            {
                "address": "0x0000000000000000000000000000000000000002",
                "label": "Precompiled"
            }
        ]
    },
    "trace": {
        "accountLabels": null,
        "dataMap": {
            "-1": {
                "invocation": {
                    "address": "0x9c536b0e7afb8a545b5a506244c95a92d9f8c3d9",
                    "callData": "",
                    "decodedMethod": null,
                    "errorInfo": "",
                    "fromAddress": "",
                    "gasUsed": 0,
                    "id": -1,
                    "methodDecoded": false,
                    "operation": "",
                    "output": "",
                    "revert": false,
                    "revertMessage": "",
                    "selector": "",
                    "status": false,
                    "value": ""
                },
                "nodeType": 0
            },
            "0": {
                "invocation": {
                    "address": "0x2a0c0dbecc7e4d658f48e01e3fa353f44050c208",
                    "callData": "0x00000000000000000000000000000000000000000000000000000014def3e21a0000000000000000000000000000000000000000000000000d63cab8bddd944f000000000000000000000000000000000000000000000000000000000002e630000000000000000000000000000000000000000000000000000000000000092200000000000000000000000000000000000000000000000000000014def3e21a000000000000000000000000000000000000000000000000000000000000092300000000000000000000000000000000000000000000000000038d7ea4c680000000000000000000000000000000000000000000000000000007bb3cfca039d400000000000000000000000041e5560054824ea6b0732e656e3ad64e20e94e450000000000000000000000000000000000000000000000000000000000000000000000000000000000000000e7545f76ecbc8435d348c79db53ea6e6693578ff000000000000000000000000e7545f76ecbc8435d348c79db53ea6e6693578ff000000000000000000000000000000000000000000000000000000000000001c000000000000000000000000000000000000000000000000000000000000001c9b2b4895b476b6899fa9b60737fc551750a2c64623d579d23459dc5b64d34b696813c4308639cb7a302f5d85b7d132ddb095699f36821d8938a16cbcba748c5e2256e4b6f02c87aea6eebc0a2167799940f7007b686527b71073cba29e43cdf2513ea67cf5b20e22d1bbcbe36111996172d8961c80ae1ccdc28633f3fce16d2d",
                    "decodedMethod": {
                        "callParams": [
                            {
                                "name": "tradeValues",
                                "type": "uint256[8]",
                                "value": [
                                    "89,639,871,002",
                                    "964,837,639,995,626,575",
                                    "190,000",
                                    "2,338",
                                    "89,639,871,002",
                                    "2,339",
                                    "1,000,000,000,000,000",
                                    "2,176,195,447,765,460"
                                ]
                            },
                            {
                                "name": "tradeAddresses",
                                "type": "address[4]",
                                "value": [
                                    "0x41e5560054824ea6b0732e656e3ad64e20e94e45",
                                    "0x0000000000000000000000000000000000000000",
                                    "0xe7545f76ecbc8435d348c79db53ea6e6693578ff",
                                    "0xe7545f76ecbc8435d348c79db53ea6e6693578ff"
                                ]
                            },
                            {
                                "name": "v",
                                "type": "uint8[2]",
                                "value": [
                                    "28",
                                    "28"
                                ]
                            },
                            {
                                "name": "rs",
                                "type": "bytes32[4]",
                                "value": [
                                    "0x9b2b4895b476b6899fa9b60737fc551750a2c64623d579d23459dc5b64d34b69",
                                    "0x6813c4308639cb7a302f5d85b7d132ddb095699f36821d8938a16cbcba748c5e",
                                    "0x2256e4b6f02c87aea6eebc0a2167799940f7007b686527b71073cba29e43cdf2",
                                    "0x513ea67cf5b20e22d1bbcbe36111996172d8961c80ae1ccdc28633f3fce16d2d"
                                ]
                            }
                        ],
                        "constructorArguments": "",
                        "name": "trade",
                        "returnParams": [
                            {
                                "name": "success",
                                "type": "bool",
                                "value": false
                            }
                        ],
                        "signature": "trade(uint256[8],address[4],uint8[2],bytes32[4])"
                    },
                    "errorInfo": "",
                    "fromAddress": "0x9c536b0e7afb8a545b5a506244c95a92d9f8c3d9",
                    "gasUsed": 142324,
                    "id": 0,
                    "methodDecoded": true,
                    "operation": "CALL",
                    "output": "0x0000000000000000000000000000000000000000000000000000000000000000",
                    "revert": false,
                    "revertMessage": "",
                    "selector": "0xef343588",
                    "status": true,
                    "value": "0"
                },
                "nodeType": 0
            },
            "1": {
                "invocation": {
                    "address": "0x0000000000000000000000000000000000000001",
                    "callData": "0x0444e3170ac48182d2f620d90072a5a0f6eae07bcfb7ee53fb878153000000000000000000000000000000000000000000000000000000000000001c9b2b4895b476b6899fa9b60737fc551750a2c64623d579d23459dc5b64d34b696813c4308639cb7a302f5d85b7d132ddb095699f36821d8938a16cbcba748c5e",
                    "decodedMethod": {
                        "callParams": [
                            {
                                "name": "hash",
                                "type": "bytes32",
                                "value": "0x3ac57cba0444e3170ac48182d2f620d90072a5a0f6eae07bcfb7ee53fb878153"
                            },
                            {
                                "name": "v",
                                "type": "uint256",
                                "value": "28"
                            },
                            {
                                "name": "r",
                                "type": "bytes32",
                                "value": "0x9b2b4895b476b6899fa9b60737fc551750a2c64623d579d23459dc5b64d34b69"
                            },
                            {
                                "name": "s",
                                "type": "bytes32",
                                "value": "0x6813c4308639cb7a302f5d85b7d132ddb095699f36821d8938a16cbcba748c5e"
                            }
                        ],
                        "constructorArguments": "",
                        "name": "ecrecover",
                        "returnParams": [
                            {
                                "name": "",
                                "type": "address",
                                "value": "0xe7545f76ecbc8435d348c79db53ea6e6693578ff"
                            }
                        ],
                        "signature": "ecrecover(bytes32,uint256,bytes32,bytes32)"
                    },
                    "errorInfo": "",
                    "fromAddress": "0x2a0c0dbecc7e4d658f48e01e3fa353f44050c208",
                    "gasUsed": 3000,
                    "id": 1,
                    "methodDecoded": true,
                    "operation": "CALL",
                    "output": "0x000000000000000000000000e7545f76ecbc8435d348c79db53ea6e6693578ff",
                    "revert": false,
                    "revertMessage": "",
                    "selector": "0x3ac57cba",
                    "status": true,
                    "value": "0"
                },
                "nodeType": 0
            },
            "2": {
                "invocation": {
                    "address": "0x0000000000000000000000000000000000000001",
                    "callData": "0x4255c4bafb6da6877778c5392094149a224433d88e69cd6f62758cb3000000000000000000000000000000000000000000000000000000000000001c2256e4b6f02c87aea6eebc0a2167799940f7007b686527b71073cba29e43cdf2513ea67cf5b20e22d1bbcbe36111996172d8961c80ae1ccdc28633f3fce16d2d",
                    "decodedMethod": {
                        "callParams": [
                            {
                                "name": "hash",
                                "type": "bytes32",
                                "value": "0xa35f311d4255c4bafb6da6877778c5392094149a224433d88e69cd6f62758cb3"
                            },
                            {
                                "name": "v",
                                "type": "uint256",
                                "value": "28"
                            },
                            {
                                "name": "r",
                                "type": "bytes32",
                                "value": "0x2256e4b6f02c87aea6eebc0a2167799940f7007b686527b71073cba29e43cdf2"
                            },
                            {
                                "name": "s",
                                "type": "bytes32",
                                "value": "0x513ea67cf5b20e22d1bbcbe36111996172d8961c80ae1ccdc28633f3fce16d2d"
                            }
                        ],
                        "constructorArguments": "",
                        "name": "ecrecover",
                        "returnParams": [
                            {
                                "name": "",
                                "type": "address",
                                "value": "0xe7545f76ecbc8435d348c79db53ea6e6693578ff"
                            }
                        ],
                        "signature": "ecrecover(bytes32,uint256,bytes32,bytes32)"
                    },
                    "errorInfo": "",
                    "fromAddress": "0x2a0c0dbecc7e4d658f48e01e3fa353f44050c208",
                    "gasUsed": 3000,
                    "id": 2,
                    "methodDecoded": true,
                    "operation": "CALL",
                    "output": "0x000000000000000000000000e7545f76ecbc8435d348c79db53ea6e6693578ff",
                    "revert": false,
                    "revertMessage": "",
                    "selector": "0xa35f311d",
                    "status": true,
                    "value": "0"
                },
                "nodeType": 0
            }
        },
        "gasFlame": [
            {
                "children": [
                    {
                        "children": [
                            {
                                "children": [],
                                "depth": 0,
                                "name": "Initial Gas",
                                "value": 38040
                            },
                            {
                                "children": [
                                    {
                                        "children": [],
                                        "depth": 1,
                                        "name": "ecrecover",
                                        "value": 3000
                                    },
                                    {
                                        "children": [],
                                        "depth": 1,
                                        "name": "ecrecover",
                                        "value": 3000
                                    }
                                ],
                                "depth": 0,
                                "name": "Executed Gas",
                                "value": 104284
                            }
                        ],
                        "depth": -1,
                        "name": "Actual Gas Used",
                        "value": 142324
                    },
                    {
                        "children": [],
                        "depth": -1,
                        "name": "Refunded Gas",
                        "value": 0
                    }
                ],
                "depth": -2,
                "name": "Total Gas",
                "value": 142324
            }
        ],
        "isConfirmed": true,
        "mainTrace": [
            {
                "children": [
                    {
                        "children": [
                            {
                                "children": [],
                                "depth": 1,
                                "id": 1,
                                "order": 1
                            },
                            {
                                "children": [],
                                "depth": 1,
                                "id": 2,
                                "order": 2
                            }
                        ],
                        "depth": 0,
                        "id": 0,
                        "order": 0
                    }
                ],
                "depth": -1,
                "id": -1,
                "order": -1
            }
        ],
        "mainTraceNodeCount": 3,
        "parentIdMap": {
            "0": -1,
            "1": 0,
            "2": 0
        },
        "tidyTrace": [
            {
                "children": [
                    {
                        "children": [
                            {
                                "children": [],
                                "depth": 1,
                                "id": 1,
                                "order": 1
                            },
                            {
                                "children": [],
                                "depth": 1,
                                "id": 2,
                                "order": 2
                            }
                        ],
                        "depth": 0,
                        "id": 0,
                        "order": 0
                    }
                ],
                "depth": -1,
                "id": -1,
                "order": -1
            }
        ],
        "tidyTraceNodeCount": 3
    },
    "state_change": {
        "stateChanges": [
            {
                "address": "0x2a0c0dbecc7e4d658f48e01e3fa353f44050c208",
                "erc": "",
                "slots": [
                    {
                        "current": "0x0000000000000000000000000000000000000000000000073efcd3acafde92ef",
                        "key": "0x3ccb72d91c5c66cba135a4135963ed23443b8a63817f501517468fcd5097e277",
                        "prev": "0x0000000000000000000000000000000000000000000000073ef55e07f0a9711b"
                    },
                    {
                        "current": "0x00000000000000000000000000000000000000000000000000000014def3e21a",
                        "key": "0x99d270609aa01a5d401d96a5749486a1f0b239bea1ad2f1f8ecfc02de31abfc6",
                        "prev": "0x0000000000000000000000000000000000000000000000000000000000000000"
                    },
                    {
                        "current": "0x00000000000000000000000000000000000000000000000000000000004309b4",
                        "key": "0x4fab38621de1d9eff3f8331fdc4e2c141295b35029270077a2c4c72a1c919b31",
                        "prev": "0x00000000000000000000000000000000000000000000000000000000004309ae"
                    },
                    {
                        "current": "0x0000000000000000000000000000000000000000000000000000000000000001",
                        "key": "0x7e216d494c70bcd88853ea6303a5ae3a849a41411184778bf733f78e0bb5249e",
                        "prev": "0x0000000000000000000000000000000000000000000000000000000000000000"
                    },
                    {
                        "current": "0x00000000000000000000000000000000000000000000000000000019d284cf4f",
                        "key": "0xb3d6839159c286e9e5a30e4ccab6fffba77c86aa1a8bcb89a6a878f8f9722061",
                        "prev": "0x00000000000000000000000000000000000000000000000000000019d7dc9b0f"
                    },
                    {
                        "current": "0x000000000000000000000000000000000000000000000000000000047215c474",
                        "key": "0x266d517a85575b3d03029be918a18c0f8ac6e4457c8f68eff36bb5685b470b62",
                        "prev": "0x000000000000000000000000000000000000000000000000000000046cbdf8b5"
                    },
                    {
                        "current": "0x00000000000000000000000000000000000000000000000052ef5b427d7b2f3a",
                        "key": "0x73c67d066be40591e6be4ac683fee617e03ad6cf4f749e34126ef8aac87368a3",
                        "prev": "0x00000000000000000000000000000000000000000000000052f6d0e73cb0510f"
                    }
                ],
                "storageVariables": [
                    {
                        "name": "tokens",
                        "type": "mapping(address => mapping(address => uint256))",
                        "value": {
                            "pairs": [
                                {
                                    "key": "0x0000000000000000000000000000000000000000",
                                    "value": {
                                        "pairs": [
                                            {
                                                "key": "0x034767f3c519f361c5ecf46ebfc08981c629d381",
                                                "value": {
                                                    "current": "133665943779087913711",
                                                    "prev": "133663844103807922459",
                                                    "typeTag": 1
                                                }
                                            },
                                            {
                                                "key": "0xe7545f76ecbc8435d348c79db53ea6e6693578ff",
                                                "value": {
                                                    "current": "5976095571675131706",
                                                    "prev": "5978195246955122959",
                                                    "typeTag": 1
                                                }
                                            }
                                        ],
                                        "typeTag": 4
                                    }
                                },
                                {
                                    "key": "0x41e5560054824ea6b0732e656e3ad64e20e94e45",
                                    "value": {
                                        "pairs": [
                                            {
                                                "key": "0x034767f3c519f361c5ecf46ebfc08981c629d381",
                                                "value": {
                                                    "current": "19093898356",
                                                    "prev": "19004258485",
                                                    "typeTag": 1
                                                }
                                            },
                                            {
                                                "key": "0xe7545f76ecbc8435d348c79db53ea6e6693578ff",
                                                "value": {
                                                    "current": "110906101583",
                                                    "prev": "110995741455",
                                                    "typeTag": 1
                                                }
                                            }
                                        ],
                                        "typeTag": 4
                                    }
                                }
                            ],
                            "typeTag": 4
                        }
                    },
                    {
                        "name": "orderFills",
                        "type": "mapping(bytes32 => uint256)",
                        "value": {
                            "pairs": [
                                {
                                    "key": "0xd36d27e6edc6751f7d79e823ab81cc3ad5c2d34685867a836b0a4d2e48c42898",
                                    "value": {
                                        "current": "89639871002",
                                        "prev": "0",
                                        "typeTag": 1
                                    }
                                }
                            ],
                            "typeTag": 4
                        }
                    },
                    {
                        "name": "lastActiveTransaction",
                        "type": "mapping(address => uint256)",
                        "value": {
                            "pairs": [
                                {
                                    "key": "0xe7545f76ecbc8435d348c79db53ea6e6693578ff",
                                    "value": {
                                        "current": "4393396",
                                        "prev": "4393390",
                                        "typeTag": 1
                                    }
                                }
                            ],
                            "typeTag": 4
                        }
                    },
                    {
                        "name": "traded",
                        "type": "mapping(bytes32 => bool)",
                        "value": {
                            "pairs": [
                                {
                                    "key": "0x290019a8a4b32307b6fa14d7104f6f609627043dac3eac4e27015ed4d8eeb38d",
                                    "value": {
                                        "current": "true",
                                        "prev": "false",
                                        "typeTag": 1
                                    }
                                }
                            ],
                            "typeTag": 4
                        }
                    }
                ]
            }
        ]
    }
}