{
    "balance_change": {
        "balanceChanges": [
            {
                "account": "0x21b252fe41113193b027d26dd3b812d9ba28dfdf",
                "assets": [
                    {
                        "address": "0x115ec79f1de567ec68b7ae7eda501b406626478e",
                        "amount": "84.16",
                        "iconUrl": "https://assets.blocksec.com/icon/8707a139087614c4b6a947051d4a0acd1cabfe4b2277036ac3a8873360e90a0b.png",
                        "isERC1155": false,
                        "isERC721": false,
                        "sign": false,
                        "value": ""
                    }
                ]
            },
            {
                "account": "0x29b055b2c4c5209f17f67f9c76b9389c932d201f",
                "assets": [
                    {
                        "address": "0x115ec79f1de567ec68b7ae7eda501b406626478e",
                        "amount": "84.16",
                        "iconUrl": "https://assets.blocksec.com/icon/8707a139087614c4b6a947051d4a0acd1cabfe4b2277036ac3a8873360e90a0b.png",
                        "isERC1155": false,
                        "isERC721": false,
                        "sign": true,
                        "value": ""
                    }
                ]
            }
        ]
    },
    "profile": {
        "basic_info": {
            "baseFee": "",
            "blockNumber": 9345427,
            "callData": "0xa9059cbb00000000000000000000000029b055b2c4c5209f17f67f9c76b9389c932d201f0000000000000000000000000000000000000000000000048ff46219e8e00000",
            "debugEnable": true,
            "errorInfo": "",
            "eventCount": 1,
            "feeRecipient": "0x1ca43b645886c98d7eb7d27ec16ea59f509cbe1a",
            "formatValue": "0",
            "gasLimit": 100000,
            "gasPrice": "3",
            "gasUsed": 38306,
            "intTxnCount": 0,
            "internalRevert": false,
            "internalRevertMessage": "",
            "isContractCreation": false,
            "isFlashloan": false,
            "maxFee": "",
            "nonce": 6648,
            "overwritedBlockNumber": -1,
            "priorityFee": "",
            "receiver": "0x115ec79f1de567ec68b7ae7eda501b406626478e",
            "revertMessage": "",
            "sender": "0x21b252fe41113193b027d26dd3b812d9ba28dfdf",
            "simulationEnable": true,
            "sourceTxnHash": "0x60cffe515cc68121e8c416a148e0f2f5b5814ef8f5a67aa17383d32cfabfe353",
            "status": true,
            "timestamp": "2020-01-24T15:56:34Z",
            "transactionFee": "0.000114918",
            "txnHash": "0x60cffe515cc68121e8c416a148e0f2f5b5814ef8f5a67aa17383d32cfabfe353",
            "txnIndex": 73,
            "type": 0,
            "value": "0"
        },
        "fund_flow": [
            {
                "amount": "84.16",
                "from": "0x21b252fe41113193b027d26dd3b812d9ba28dfdf",
                "id": 1,
                "isERC1155": false,
                "isERC721": false,
                "isReverted": false,
                "order": 1,
                "to": "0x29b055b2c4c5209f17f67f9c76b9389c932d201f",
                "token": "0x115ec79f1de567ec68b7ae7eda501b406626478e"
            }
        ],
        "token_infos": [
            {
                "address": "0x115ec79f1de567ec68b7ae7eda501b406626478e",
                "decimals": 18
            },
            {
                "address": "0xc02aaa39b223fe8d0a0e5c4f27ead9083c756cc2",
                "decimals": 18
            },
            {
                "address": "0xeeeeeeeeeeeeeeeeeeeeeeeeeeeeeeeeeeeeeeee",
                "decimals": 18
            }
        ]
    },
    "address_label": {
        "labels": [
            {
                "address": "0xeeeeeeeeeeeeeeeeeeeeeeeeeeeeeeeeeeeeeeee",
                "label": "Ether"
            },
            {
                "address": "0x115ec79f1de567ec68b7ae7eda501b406626478e",
                "label": "Carry Protocol: CRE Token"
            },
            {
                "address": "0x0000000000000000000000000000000000000001",
                "label": "Precompiled"
            },
            {
                "address": "0x0000000000000000000000000000000000000002",
                "label": "Precompiled"
            },
            {
                "address": "0x0000000000000000000000000000000000000003",
                "label": "Precompiled"
            },
            {
                "address": "0x0000000000000000000000000000000000000004",
                "label": "Precompiled"
            }
        ]
    },
    "trace": {
        "accountLabels": null,
        "dataMap": {
            "-1": {
                "invocation": {
                    "address": "0x21b252fe41113193b027d26dd3b812d9ba28dfdf",
                    "callData": "",
                    "decodedMethod": null,
                    "errorInfo": "",
                    "fromAddress": "",
                    "gasUsed": 0,
                    "id": -1,
                    "methodDecoded": false,
                    "operation": "",
                    "output": "",
                    "revert": false,
                    "revertMessage": "",
                    "selector": "",
                    "status": false,
                    "value": ""
                },
                "nodeType": 0
            },
            "0": {
                "invocation": {
                    "address": "0x115ec79f1de567ec68b7ae7eda501b406626478e",
                    "callData": "0x00000000000000000000000029b055b2c4c5209f17f67f9c76b9389c932d201f0000000000000000000000000000000000000000000000048ff46219e8e00000",
                    "decodedMethod": {
                        "callParams": [
                            {
                                "name": "_to",
                                "type": "address",
                                "value": "0x29b055b2c4c5209f17f67f9c76b9389c932d201f"
                            },
                            {
                                "decimalAvailable": true,
                                "name": "_value",
                                "type": "uint256",
                                "value": "84,160,000,000,000,000,000"
                            }
                        ],
                        "constructorArguments": "",
                        "name": "transfer",
                        "returnParams": [
                            {
                                "name": "",
                                "type": "bool",
                                "value": true
                            }
                        ],
                        "signature": "transfer(address,uint256)"
                    },
                    "errorInfo": "",
                    "fromAddress": "0x21b252fe41113193b027d26dd3b812d9ba28dfdf",
                    "gasUsed": 38306,
                    "id": 0,
                    "methodDecoded": true,
                    "operation": "CALL",
                    "output": "0x0000000000000000000000000000000000000000000000000000000000000001",
                    "revert": false,
                    "revertMessage": "",
                    "selector": "0xa9059cbb",
                    "status": true,
                    "value": "0"
                },
                "nodeType": 0
            },
            "1": {
                "event": {
                    "contract": "0x115ec79f1de567ec68b7ae7eda501b406626478e",
                    "decodedLog": {
                        "name": "Transfer",
                        "params": [
                            {
                                "name": "from",
                                "type": "address",
                                "value": "0x21b252fe41113193b027d26dd3b812d9ba28dfdf"
                            },
                            {
                                "name": "to",
                                "type": "address",
                                "value": "0x29b055b2c4c5209f17f67f9c76b9389c932d201f"
                            },
                            {
                                "decimalAvailable": true,
                                "name": "value",
                                "type": "uint256",
                                "value": "84,160,000,000,000,000,000"
                            }
                        ],
                        "signature": "Transfer(address,address,uint256)"
                    },
                    "id": 1,
                    "logData": "0x0000000000000000000000000000000000000000000000048ff46219e8e00000",
                    "logDecoded": true,
                    "operation": "EVENT",
                    "revert": false,
                    "status": true,
                    "topics": [
                        "0xddf252ad1be2c89b69c2b068fc378daa952ba7f163c4a11628f55a4df523b3ef",
                        "0x00000000000000000000000021b252fe41113193b027d26dd3b812d9ba28dfdf",
                        "0x00000000000000000000000029b055b2c4c5209f17f67f9c76b9389c932d201f"
                    ]
                },
                "nodeType": 1
            }
        },
        "gasFlame": [
            {
                "children": [
                    {
                        "children": [
                            {
                                "children": [],
                                "depth": 0,
                                "name": "Initial Gas",
                                "value": 21644
                            },
                            {
                                "children": [],
                                "depth": 0,
                                "name": "Executed Gas",
                                "value": 16662
                            }
                        ],
                        "depth": -1,
                        "name": "Actual Gas Used",
                        "value": 38306
                    },
                    {
                        "children": [],
                        "depth": -1,
                        "name": "Refunded Gas",
                        "value": 0
                    }
                ],
                "depth": -2,
                "name": "Total Gas",
                "value": 38306
            }
        ],
        "isConfirmed": true,
        "mainTrace": [
            {
                "children": [
                    {
                        "children": [
                            {
                                "children": [],
                                "depth": 1,
                                "id": 1,
                                "order": 1
                            }
                        ],
                        "depth": 0,
                        "id": 0,
                        "order": 0
                    }
                ],
                "depth": -1,
                "id": -1,
                "order": -1
            }
        ],
        "mainTraceNodeCount": 2,
        "parentIdMap": {
            "0": -1,
            "1": 0
        },
        "tidyTrace": [
            {
                "children": [
                    {
                        "children": [
                            {
                                "children": [],
                                "depth": 1,
                                "id": 1,
                                "order": 1
                            }
                        ],
                        "depth": 0,
                        "id": 0,
                        "order": 0
                    }
                ],
                "depth": -1,
                "id": -1,
                "order": -1
            }
        ],
        "tidyTraceNodeCount": 2
    },
    "state_change": {
        "stateChanges": [
            {
                "address": "0x115ec79f1de567ec68b7ae7eda501b406626478e",
                "erc": "ERC-20",
                "slots": [
                    {
                        "current": "0x0000000000000000000000000000000000000000000090ab7e9c397fed9464b2",
                        "key": "0x757245578be33ce6d1f0755ef29d1bf96a8af884053cf3ed9373949cfad909ba",
                        "prev": "0x0000000000000000000000000000000000000000000090b00e909b99d67464b2"
                    },
                    {
                        "current": "0x00000000000000000000000000000000000000000000001fefd235a7cde10000",
                        "key": "0x1a17348970c01e0560dbf20fc98b1130f9a85433a51e045febf756b033fd1970",
                        "prev": "0x00000000000000000000000000000000000000000000001b5fddd38de5010000"
                    }
                ],
                "storageVariables": [
                    {
                        "name": "balances",
                        "type": "mapping(address => uint256)",
                        "value": {
                            "pairs": [
                                {
                                    "key": "0x21b252fe41113193b027d26dd3b812d9ba28dfdf",
                                    "value": {
                                        "current": "683184289999999999435954",
                                        "prev": "683268449999999999435954",
                                        "typeTag": 1
                                    }
                                },
                                {
                                    "key": "0x29b055b2c4c5209f17f67f9c76b9389c932d201f",
                                    "value": {
                                        "current": "589130000000000000000",
                                        "prev": "504970000000000000000",
                                        "typeTag": 1
                                    }
                                }
                            ],
                            "typeTag": 4
                        }
                    }
                ]
            }
        ]
    }
}