{
    "balance_change": {
        "balanceChanges": [
            {
                "account": "0x74e02554076d954770e8686f213a21edf1b73433",
                "assets": [
                    {
                        "address": "0xe530441f4f73bdb6dc2fa5af7c3fc5fd551ec838",
                        "amount": "200",
                        "iconUrl": "https://assets.blocksec.com/icon/f962fdaabc2a2beafaad1960afcd305031c665fb5b04f8cadda8adc1c1fba949.png",
                        "isERC1155": false,
                        "isERC721": false,
                        "sign": false,
                        "value": ""
                    }
                ]
            },
            {
                "account": "0x06e43f97ca614cdffa85e320260e94ca919d71df",
                "assets": [
                    {
                        "address": "0xe530441f4f73bdb6dc2fa5af7c3fc5fd551ec838",
                        "amount": "200",
                        "iconUrl": "https://assets.blocksec.com/icon/f962fdaabc2a2beafaad1960afcd305031c665fb5b04f8cadda8adc1c1fba949.png",
                        "isERC1155": false,
                        "isERC721": false,
                        "sign": true,
                        "value": ""
                    }
                ]
            }
        ]
    },
    "profile": {
        "basic_info": {
            "baseFee": "",
            "blockNumber": 5816957,
            "callData": "0xa9059cbb00000000000000000000000006e43f97ca614cdffa85e320260e94ca919d71df00000000000000000000000000000000000000000000000000000000001e8480",
            "debugEnable": true,
            "errorInfo": "",
            "eventCount": 1,
            "feeRecipient": "0xea674fdde714fd979de3edf0f56aa9716b898ec8",
            "formatValue": "0",
            "gasLimit": 37686,
            "gasPrice": "2",
            "gasUsed": 22686,
            "intTxnCount": 0,
            "internalRevert": false,
            "internalRevertMessage": "",
            "isContractCreation": false,
            "isFlashloan": false,
            "maxFee": "",
            "nonce": 8,
            "overwritedBlockNumber": -1,
            "priorityFee": "",
            "receiver": "0xe530441f4f73bdb6dc2fa5af7c3fc5fd551ec838",
            "revertMessage": "",
            "sender": "0x74e02554076d954770e8686f213a21edf1b73433",
            "simulationEnable": true,
            "sourceTxnHash": "0x603f03efd730170bb3e50e17189a75f8930486dd3c36a54ed124d2a3373ab94a",
            "status": true,
            "timestamp": "2018-06-19T13:25:53Z",
            "transactionFee": "0.000045372",
            "txnHash": "0x603f03efd730170bb3e50e17189a75f8930486dd3c36a54ed124d2a3373ab94a",
            "txnIndex": 89,
            "type": 0,
            "value": "0"
        },
        "fund_flow": [
            {
                "amount": "200",
                "from": "0x74e02554076d954770e8686f213a21edf1b73433",
                "id": 1,
                "isERC1155": false,
                "isERC721": false,
                "isReverted": false,
                "order": 1,
                "to": "0x06e43f97ca614cdffa85e320260e94ca919d71df",
                "token": "0xe530441f4f73bdb6dc2fa5af7c3fc5fd551ec838"
            }
        ],
        "token_infos": [
            {
                "address": "0xc02aaa39b223fe8d0a0e5c4f27ead9083c756cc2",
                "decimals": 18
            },
            {
                "address": "0xe530441f4f73bdb6dc2fa5af7c3fc5fd551ec838",
                "decimals": 4
            },
            {
                "address": "0xeeeeeeeeeeeeeeeeeeeeeeeeeeeeeeeeeeeeeeee",
                "decimals": 18
            }
        ]
    },
    "address_label": {
        "labels": [
            {
                "address": "0x0000000000000000000000000000000000000003",
                "label": "Precompiled"
            },
            {
                "address": "0x0000000000000000000000000000000000000004",
                "label": "Precompiled"
            },
            {
                "address": "0xeeeeeeeeeeeeeeeeeeeeeeeeeeeeeeeeeeeeeeee",
                "label": "Ether"
            },
            {
                "address": "0xe530441f4f73bdb6dc2fa5af7c3fc5fd551ec838",
                "label": "GSENetwork Token"
            },
            {
                "address": "0x0000000000000000000000000000000000000001",
                "label": "Precompiled"
            },
            {
                "address": "0x0000000000000000000000000000000000000002",
                "label": "Precompiled"
            }
        ]
    },
    "trace": {
        "accountLabels": null,
        "dataMap": {
            "-1": {
                "invocation": {
                    "address": "0x74e02554076d954770e8686f213a21edf1b73433",
                    "callData": "",
                    "decodedMethod": null,
                    "errorInfo": "",
                    "fromAddress": "",
                    "gasUsed": 0,
                    "id": -1,
                    "methodDecoded": false,
                    "operation": "",
                    "output": "",
                    "revert": false,
                    "revertMessage": "",
                    "selector": "",
                    "status": false,
                    "value": ""
                },
                "nodeType": 0
            },
            "0": {
                "invocation": {
                    "address": "0xe530441f4f73bdb6dc2fa5af7c3fc5fd551ec838",
                    "callData": "0x00000000000000000000000006e43f97ca614cdffa85e320260e94ca919d71df00000000000000000000000000000000000000000000000000000000001e8480",
                    "decodedMethod": {
                        "callParams": [
                            {
                                "name": "_to",
                                "type": "address",
                                "value": "0x06e43f97ca614cdffa85e320260e94ca919d71df"
                            },
                            {
                                "decimalAvailable": true,
                                "name": "_value",
                                "type": "uint256",
                                "value": "2,000,000"
                            }
                        ],
                        "constructorArguments": "",
                        "name": "transfer",
                        "returnParams": [
                            {
                                "name": "",
                                "type": "bool",
                                "value": true
                            }
                        ],
                        "signature": "transfer(address,uint256)"
                    },
                    "errorInfo": "",
                    "fromAddress": "0x74e02554076d954770e8686f213a21edf1b73433",
                    "gasUsed": 22686,
                    "id": 0,
                    "methodDecoded": true,
                    "operation": "CALL",
                    "output": "0x0000000000000000000000000000000000000000000000000000000000000001",
                    "revert": false,
                    "revertMessage": "",
                    "selector": "0xa9059cbb",
                    "status": true,
                    "value": "0"
                },
                "nodeType": 0
            },
            "1": {
                "event": {
                    "contract": "0xe530441f4f73bdb6dc2fa5af7c3fc5fd551ec838",
                    "decodedLog": {
                        "name": "Transfer",
                        "params": [
                            {
                                "name": "from",
                                "type": "address",
                                "value": "0x74e02554076d954770e8686f213a21edf1b73433"
                            },
                            {
                                "name": "to",
                                "type": "address",
                                "value": "0x06e43f97ca614cdffa85e320260e94ca919d71df"
                            },
                            {
                                "decimalAvailable": true,
                                "name": "value",
                                "type": "uint256",
                                "value": "2,000,000"
                            }
                        ],
                        "signature": "Transfer(address,address,uint256)"
                    },
                    "id": 1,
                    "logData": "0x00000000000000000000000000000000000000000000000000000000001e8480",
                    "logDecoded": true,
                    "operation": "EVENT",
                    "revert": false,
                    "status": true,
                    "topics": [
                        "0xddf252ad1be2c89b69c2b068fc378daa952ba7f163c4a11628f55a4df523b3ef",
                        "0x00000000000000000000000074e02554076d954770e8686f213a21edf1b73433",
                        "0x00000000000000000000000006e43f97ca614cdffa85e320260e94ca919d71df"
                    ]
                },
                "nodeType": 1
            }
        },
        "gasFlame": [
            {
                "children": [
                    {
                        "children": [
                            {
                                "children": [],
                                "depth": 0,
                                "name": "Initial Gas",
                                "value": 23000
                            },
                            {
                                "children": [],
                                "depth": 0,
                                "name": "Executed Gas",
                                "value": 14686
                            }
                        ],
                        "depth": -1,
                        "name": "Actual Gas Used",
                        "value": 22686
                    },
                    {
                        "children": [],
                        "depth": -1,
                        "name": "Refunded Gas",
                        "value": 15000
                    }
                ],
                "depth": -2,
                "name": "Total Gas",
                "value": 37686
            }
        ],
        "isConfirmed": true,
        "mainTrace": [
            {
                "children": [
                    {
                        "children": [
                            {
                                "children": [],
                                "depth": 1,
                                "id": 1,
                                "order": 1
                            }
                        ],
                        "depth": 0,
                        "id": 0,
                        "order": 0
                    }
                ],
                "depth": -1,
                "id": -1,
                "order": -1
            }
        ],
        "mainTraceNodeCount": 2,
        "parentIdMap": {
            "0": -1,
            "1": 0
        },
        "tidyTrace": [
            {
                "children": [
                    {
                        "children": [
                            {
                                "children": [],
                                "depth": 1,
                                "id": 1,
                                "order": 1
                            }
                        ],
                        "depth": 0,
                        "id": 0,
                        "order": 0
                    }
                ],
                "depth": -1,
                "id": -1,
                "order": -1
            }
        ],
        "tidyTraceNodeCount": 2
    },
    "state_change": {
        "stateChanges": [
            {
                "address": "0xe530441f4f73bdb6dc2fa5af7c3fc5fd551ec838",
                "erc": "ERC-20",
                "slots": [
                    {
                        "current": "0x0000000000000000000000000000000000000000000000000000000000000000",
                        "key": "0x67e5aad57b43ca614f1f42fd3f77f18cf552bf04c0000bd7ec8b158c49e3c837",
                        "prev": "0x00000000000000000000000000000000000000000000000000000000001e8480"
                    },
                    {
                        "current": "0x0000000000000000000000000000000000000000000000000000000004e33880",
                        "key": "0x9c8da807c200199cf212afe6ab003ab8bb9d373cc593e95a07ed44e2b43076df",
                        "prev": "0x0000000000000000000000000000000000000000000000000000000004c4b400"
                    }
                ],
                "storageVariables": [
                    {
                        "name": "balances",
                        "type": "mapping(address => uint256)",
                        "value": {
                            "pairs": [
                                {
                                    "key": "0x06e43f97ca614cdffa85e320260e94ca919d71df",
                                    "value": {
                                        "current": "82000000",
                                        "prev": "80000000",
                                        "typeTag": 1
                                    }
                                },
                                {
                                    "key": "0x74e02554076d954770e8686f213a21edf1b73433",
                                    "value": {
                                        "current": "0",
                                        "prev": "2000000",
                                        "typeTag": 1
                                    }
                                }
                            ],
                            "typeTag": 4
                        }
                    }
                ]
            }
        ]
    }
}