{
    "balance_change": {
        "balanceChanges": [
            {
                "account": "0x5a8aad505a44165813ecdfa213d0615293e33671",
                "assets": [
                    {
                        "address": "0xcd3673af09e76c74d889aabab68ca0645566a3a1",
                        "amount": "25",
                        "iconUrl": "",
                        "isERC1155": false,
                        "isERC721": false,
                        "sign": false,
                        "value": ""
                    }
                ]
            },
            {
                "account": "0xee4a26f16934526722795872c6004b48b6009af7",
                "assets": [
                    {
                        "address": "0xcd3673af09e76c74d889aabab68ca0645566a3a1",
                        "amount": "25",
                        "iconUrl": "",
                        "isERC1155": false,
                        "isERC721": false,
                        "sign": true,
                        "value": ""
                    }
                ]
            }
        ]
    },
    "profile": {
        "basic_info": {
            "baseFee": "",
            "blockNumber": 5350075,
            "callData": "0xa9059cbb000000000000000000000000ee4a26f16934526722795872c6004b48b6009af70000000000000000000000000000000000000000000000015af1d78b58c40000",
            "debugEnable": true,
            "errorInfo": "",
            "eventCount": 1,
            "feeRecipient": "0x5a0b54d5dc17e0aadc383d2db43b0a0d3e029c4c",
            "formatValue": "0",
            "gasLimit": 500000,
            "gasPrice": "2",
            "gasUsed": 53813,
            "intTxnCount": 0,
            "internalRevert": false,
            "internalRevertMessage": "",
            "isContractCreation": false,
            "isFlashloan": false,
            "maxFee": "",
            "nonce": 3761,
            "overwritedBlockNumber": -1,
            "priorityFee": "",
            "receiver": "0xcd3673af09e76c74d889aabab68ca0645566a3a1",
            "revertMessage": "",
            "sender": "0x5a8aad505a44165813ecdfa213d0615293e33671",
            "simulationEnable": true,
            "sourceTxnHash": "0x60aa29c522b2f15a68036faae07c7d5457182cd5f0a372a74dd43e4ff0e921d1",
            "status": true,
            "timestamp": "2018-03-30T17:13:36Z",
            "transactionFee": "0.000107626",
            "txnHash": "0x60aa29c522b2f15a68036faae07c7d5457182cd5f0a372a74dd43e4ff0e921d1",
            "txnIndex": 24,
            "type": 0,
            "value": "0"
        },
        "fund_flow": [
            {
                "amount": "25",
                "from": "0x5a8aad505a44165813ecdfa213d0615293e33671",
                "id": 1,
                "isERC1155": false,
                "isERC721": false,
                "isReverted": false,
                "order": 1,
                "to": "0xee4a26f16934526722795872c6004b48b6009af7",
                "token": "0xcd3673af09e76c74d889aabab68ca0645566a3a1"
            }
        ],
        "token_infos": [
            {
                "address": "0xc02aaa39b223fe8d0a0e5c4f27ead9083c756cc2",
                "decimals": 18
            },
            {
                "address": "0xcd3673af09e76c74d889aabab68ca0645566a3a1",
                "decimals": 18
            },
            {
                "address": "0xeeeeeeeeeeeeeeeeeeeeeeeeeeeeeeeeeeeeeeee",
                "decimals": 18
            }
        ]
    },
    "address_label": {
        "labels": [
            {
                "address": "0xcd3673af09e76c74d889aabab68ca0645566a3a1",
                "label": "Unicorn Candy: Candy Token"
            },
            {
                "address": "0x0000000000000000000000000000000000000001",
                "label": "Precompiled"
            },
            {
                "address": "0x0000000000000000000000000000000000000002",
                "label": "Precompiled"
            },
            {
                "address": "0x0000000000000000000000000000000000000003",
                "label": "Precompiled"
            },
            {
                "address": "0x0000000000000000000000000000000000000004",
                "label": "Precompiled"
            },
            {
                "address": "0xeeeeeeeeeeeeeeeeeeeeeeeeeeeeeeeeeeeeeeee",
                "label": "Ether"
            }
        ]
    },
    "trace": {
        "accountLabels": null,
        "dataMap": {
            "-1": {
                "invocation": {
                    "address": "0x5a8aad505a44165813ecdfa213d0615293e33671",
                    "callData": "",
                    "decodedMethod": null,
                    "errorInfo": "",
                    "fromAddress": "",
                    "gasUsed": 0,
                    "id": -1,
                    "methodDecoded": false,
                    "operation": "",
                    "output": "",
                    "revert": false,
                    "revertMessage": "",
                    "selector": "",
                    "status": false,
                    "value": ""
                },
                "nodeType": 0
            },
            "0": {
                "invocation": {
                    "address": "0xcd3673af09e76c74d889aabab68ca0645566a3a1",
                    "callData": "0x000000000000000000000000ee4a26f16934526722795872c6004b48b6009af70000000000000000000000000000000000000000000000015af1d78b58c40000",
                    "decodedMethod": {
                        "callParams": [
                            {
                                "name": "_to",
                                "type": "address",
                                "value": "0xee4a26f16934526722795872c6004b48b6009af7"
                            },
                            {
                                "decimalAvailable": true,
                                "name": "_value",
                                "type": "uint256",
                                "value": "25,000,000,000,000,000,000"
                            }
                        ],
                        "constructorArguments": "",
                        "name": "transfer",
                        "returnParams": [],
                        "signature": "transfer(address,uint256)"
                    },
                    "errorInfo": "",
                    "fromAddress": "0x5a8aad505a44165813ecdfa213d0615293e33671",
                    "gasUsed": 53813,
                    "id": 0,
                    "methodDecoded": true,
                    "operation": "CALL",
                    "output": "",
                    "revert": false,
                    "revertMessage": "",
                    "selector": "0xa9059cbb",
                    "status": true,
                    "value": "0"
                },
                "nodeType": 0
            },
            "1": {
                "event": {
                    "contract": "0xcd3673af09e76c74d889aabab68ca0645566a3a1",
                    "decodedLog": {
                        "name": "Transfer",
                        "params": [
                            {
                                "name": "from",
                                "type": "address",
                                "value": "0x5a8aad505a44165813ecdfa213d0615293e33671"
                            },
                            {
                                "name": "to",
                                "type": "address",
                                "value": "0xee4a26f16934526722795872c6004b48b6009af7"
                            },
                            {
                                "decimalAvailable": true,
                                "name": "value",
                                "type": "uint256",
                                "value": "25,000,000,000,000,000,000"
                            }
                        ],
                        "signature": "Transfer(address,address,uint256)"
                    },
                    "id": 1,
                    "logData": "0x0000000000000000000000000000000000000000000000015af1d78b58c40000",
                    "logDecoded": true,
                    "operation": "EVENT",
                    "revert": false,
                    "status": true,
                    "topics": [
                        "0xddf252ad1be2c89b69c2b068fc378daa952ba7f163c4a11628f55a4df523b3ef",
                        "0x0000000000000000000000005a8aad505a44165813ecdfa213d0615293e33671",
                        "0x000000000000000000000000ee4a26f16934526722795872c6004b48b6009af7"
                    ]
                },
                "nodeType": 1
            }
        },
        "gasFlame": [
            {
                "children": [
                    {
                        "children": [
                            {
                                "children": [],
                                "depth": 0,
                                "name": "Initial Gas",
                                "value": 23128
                            },
                            {
                                "children": [],
                                "depth": 0,
                                "name": "Executed Gas",
                                "value": 30685
                            }
                        ],
                        "depth": -1,
                        "name": "Actual Gas Used",
                        "value": 53813
                    },
                    {
                        "children": [],
                        "depth": -1,
                        "name": "Refunded Gas",
                        "value": 0
                    }
                ],
                "depth": -2,
                "name": "Total Gas",
                "value": 53813
            }
        ],
        "isConfirmed": true,
        "mainTrace": [
            {
                "children": [
                    {
                        "children": [
                            {
                                "children": [],
                                "depth": 1,
                                "id": 1,
                                "order": 1
                            }
                        ],
                        "depth": 0,
                        "id": 0,
                        "order": 0
                    }
                ],
                "depth": -1,
                "id": -1,
                "order": -1
            }
        ],
        "mainTraceNodeCount": 2,
        "parentIdMap": {
            "0": -1,
            "1": 0
        },
        "tidyTrace": [
            {
                "children": [
                    {
                        "children": [
                            {
                                "children": [],
                                "depth": 1,
                                "id": 1,
                                "order": 1
                            }
                        ],
                        "depth": 0,
                        "id": 0,
                        "order": 0
                    }
                ],
                "depth": -1,
                "id": -1,
                "order": -1
            }
        ],
        "tidyTraceNodeCount": 2
    },
    "state_change": {
        "stateChanges": [
            {
                "address": "0xcd3673af09e76c74d889aabab68ca0645566a3a1",
                "erc": "",
                "slots": [
                    {
                        "current": "0x00000000000000000000000000000000000000000000560425685429d7e00000",
                        "key": "0xcbddab62a21a87835ba2bd5a40e7a32c4388bfa904654667f51097e3ac64c185",
                        "prev": "0x000000000000000000000000000000000000000000005605805a2bb530a40000"
                    },
                    {
                        "current": "0x0000000000000000000000000000000000000000000000015af1d78b58c40000",
                        "key": "0xfeafb91342c63a961f7aa3f24653c65962124c0a6dd2a4106ef838b657b5945a",
                        "prev": "0x0000000000000000000000000000000000000000000000000000000000000000"
                    }
                ],
                "storageVariables": []
            }
        ]
    }
}