{
    "balance_change": {
        "balanceChanges": [
            {
                "account": "0xd058a859eefba4690b32895521154f3d7d916c7d",
                "assets": [
                    {
                        "address": "0xfd62247943f94c3910a4922af2c62c2d3fac2a8f",
                        "amount": "500",
                        "iconUrl": "",
                        "isERC1155": false,
                        "isERC721": false,
                        "sign": false,
                        "value": ""
                    }
                ]
            },
            {
                "account": "0x242e4b6ce3c0c1d1e06a9f6a8bde1c0ed6c68daa",
                "assets": [
                    {
                        "address": "0xfd62247943f94c3910a4922af2c62c2d3fac2a8f",
                        "amount": "500",
                        "iconUrl": "",
                        "isERC1155": false,
                        "isERC721": false,
                        "sign": true,
                        "value": ""
                    }
                ]
            }
        ]
    },
    "profile": {
        "basic_info": {
            "baseFee": "",
            "blockNumber": 11201844,
            "callData": "0xa9059cbb000000000000000000000000242e4b6ce3c0c1d1e06a9f6a8bde1c0ed6c68daa00000000000000000000000000000000000000000000001b1ae4d6e2ef500000",
            "debugEnable": true,
            "errorInfo": "",
            "eventCount": 1,
            "feeRecipient": "0x35f61dfb08ada13eba64bf156b80df3d5b3a738d",
            "formatValue": "0",
            "gasLimit": 60000,
            "gasPrice": "59.000001561",
            "gasUsed": 42450,
            "intTxnCount": 0,
            "internalRevert": false,
            "internalRevertMessage": "",
            "isContractCreation": false,
            "isFlashloan": false,
            "maxFee": "",
            "nonce": 77568,
            "overwritedBlockNumber": -1,
            "priorityFee": "",
            "receiver": "0xfd62247943f94c3910a4922af2c62c2d3fac2a8f",
            "revertMessage": "",
            "sender": "0xd058a859eefba4690b32895521154f3d7d916c7d",
            "simulationEnable": true,
            "sourceTxnHash": "0x602a65f5abb408aff83339f76710273923630c604475378d4d6d41680d08d63b",
            "status": true,
            "timestamp": "2020-11-06T05:19:16Z",
            "transactionFee": "0.00250455006626445",
            "txnHash": "0x602a65f5abb408aff83339f76710273923630c604475378d4d6d41680d08d63b",
            "txnIndex": 24,
            "type": 0,
            "value": "0"
        },
        "fund_flow": [
            {
                "amount": "500",
                "from": "0xd058a859eefba4690b32895521154f3d7d916c7d",
                "id": 1,
                "isERC1155": false,
                "isERC721": false,
                "isReverted": false,
                "order": 1,
                "to": "0x242e4b6ce3c0c1d1e06a9f6a8bde1c0ed6c68daa",
                "token": "0xfd62247943f94c3910a4922af2c62c2d3fac2a8f"
            }
        ],
        "token_infos": [
            {
                "address": "0xc02aaa39b223fe8d0a0e5c4f27ead9083c756cc2",
                "decimals": 18
            },
            {
                "address": "0xfd62247943f94c3910a4922af2c62c2d3fac2a8f",
                "decimals": 18
            },
            {
                "address": "0xeeeeeeeeeeeeeeeeeeeeeeeeeeeeeeeeeeeeeeee",
                "decimals": 18
            }
        ]
    },
    "address_label": {
        "labels": [
            {
                "address": "0xfd62247943f94c3910a4922af2c62c2d3fac2a8f",
                "label": "BTEcoin (BTE)"
            },
            {
                "address": "0x0000000000000000000000000000000000000001",
                "label": "Precompiled"
            },
            {
                "address": "0x0000000000000000000000000000000000000002",
                "label": "Precompiled"
            },
            {
                "address": "0x0000000000000000000000000000000000000003",
                "label": "Precompiled"
            },
            {
                "address": "0x0000000000000000000000000000000000000004",
                "label": "Precompiled"
            },
            {
                "address": "0xeeeeeeeeeeeeeeeeeeeeeeeeeeeeeeeeeeeeeeee",
                "label": "Ether"
            }
        ]
    },
    "trace": {
        "accountLabels": null,
        "dataMap": {
            "-1": {
                "invocation": {
                    "address": "0xd058a859eefba4690b32895521154f3d7d916c7d",
                    "callData": "",
                    "decodedMethod": null,
                    "errorInfo": "",
                    "fromAddress": "",
                    "gasUsed": 0,
                    "id": -1,
                    "methodDecoded": false,
                    "operation": "",
                    "output": "",
                    "revert": false,
                    "revertMessage": "",
                    "selector": "",
                    "status": false,
                    "value": ""
                },
                "nodeType": 0
            },
            "0": {
                "invocation": {
                    "address": "0xfd62247943f94c3910a4922af2c62c2d3fac2a8f",
                    "callData": "0x000000000000000000000000242e4b6ce3c0c1d1e06a9f6a8bde1c0ed6c68daa00000000000000000000000000000000000000000000001b1ae4d6e2ef500000",
                    "decodedMethod": {
                        "callParams": [
                            {
                                "name": "_to",
                                "type": "address",
                                "value": "0x242e4b6ce3c0c1d1e06a9f6a8bde1c0ed6c68daa"
                            },
                            {
                                "decimalAvailable": true,
                                "name": "_value",
                                "type": "uint256",
                                "value": "500,000,000,000,000,000,000"
                            }
                        ],
                        "constructorArguments": "",
                        "name": "transfer",
                        "returnParams": [
                            {
                                "name": "",
                                "type": "bool",
                                "value": true
                            }
                        ],
                        "signature": "transfer(address,uint256)"
                    },
                    "errorInfo": "",
                    "fromAddress": "0xd058a859eefba4690b32895521154f3d7d916c7d",
                    "gasUsed": 42450,
                    "id": 0,
                    "methodDecoded": true,
                    "operation": "CALL",
                    "output": "0x0000000000000000000000000000000000000000000000000000000000000001",
                    "revert": false,
                    "revertMessage": "",
                    "selector": "0xa9059cbb",
                    "status": true,
                    "value": "0"
                },
                "nodeType": 0
            },
            "1": {
                "event": {
                    "contract": "0xfd62247943f94c3910a4922af2c62c2d3fac2a8f",
                    "decodedLog": {
                        "name": "Transfer",
                        "params": [
                            {
                                "name": "from",
                                "type": "address",
                                "value": "0xd058a859eefba4690b32895521154f3d7d916c7d"
                            },
                            {
                                "name": "to",
                                "type": "address",
                                "value": "0x242e4b6ce3c0c1d1e06a9f6a8bde1c0ed6c68daa"
                            },
                            {
                                "decimalAvailable": true,
                                "name": "value",
                                "type": "uint256",
                                "value": "500,000,000,000,000,000,000"
                            }
                        ],
                        "signature": "Transfer(address,address,uint256)"
                    },
                    "id": 1,
                    "logData": "0x00000000000000000000000000000000000000000000001b1ae4d6e2ef500000",
                    "logDecoded": true,
                    "operation": "EVENT",
                    "revert": false,
                    "status": true,
                    "topics": [
                        "0xddf252ad1be2c89b69c2b068fc378daa952ba7f163c4a11628f55a4df523b3ef",
                        "0x000000000000000000000000d058a859eefba4690b32895521154f3d7d916c7d",
                        "0x000000000000000000000000242e4b6ce3c0c1d1e06a9f6a8bde1c0ed6c68daa"
                    ]
                },
                "nodeType": 1
            }
        },
        "gasFlame": [
            {
                "children": [
                    {
                        "children": [
                            {
                                "children": [],
                                "depth": 0,
                                "name": "Initial Gas",
                                "value": 21644
                            },
                            {
                                "children": [],
                                "depth": 0,
                                "name": "Executed Gas",
                                "value": 20806
                            }
                        ],
                        "depth": -1,
                        "name": "Actual Gas Used",
                        "value": 42450
                    },
                    {
                        "children": [],
                        "depth": -1,
                        "name": "Refunded Gas",
                        "value": 0
                    }
                ],
                "depth": -2,
                "name": "Total Gas",
                "value": 42450
            }
        ],
        "isConfirmed": true,
        "mainTrace": [
            {
                "children": [
                    {
                        "children": [
                            {
                                "children": [],
                                "depth": 1,
                                "id": 1,
                                "order": 1
                            }
                        ],
                        "depth": 0,
                        "id": 0,
                        "order": 0
                    }
                ],
                "depth": -1,
                "id": -1,
                "order": -1
            }
        ],
        "mainTraceNodeCount": 2,
        "parentIdMap": {
            "0": -1,
            "1": 0
        },
        "tidyTrace": [
            {
                "children": [
                    {
                        "children": [
                            {
                                "children": [],
                                "depth": 1,
                                "id": 1,
                                "order": 1
                            }
                        ],
                        "depth": 0,
                        "id": 0,
                        "order": 0
                    }
                ],
                "depth": -1,
                "id": -1,
                "order": -1
            }
        ],
        "tidyTraceNodeCount": 2
    },
    "state_change": {
        "stateChanges": [
            {
                "address": "0xfd62247943f94c3910a4922af2c62c2d3fac2a8f",
                "erc": "ERC-20",
                "slots": [
                    {
                        "current": "0x00000000000000000000000000000000000000000000048ce6eccb40b9c10000",
                        "key": "0x7e5d5cdfa3d4b2eb8688aca133bed3c46432998a47d638e330a4c5e890f303ae",
                        "prev": "0x0000000000000000000000000000000000000000000004a801d1a223a9110000"
                    },
                    {
                        "current": "0x000000000000000000000000000000000000000000000053728b84e9e004b000",
                        "key": "0x6d3c522a9a1381ba5be1a8ecbfde4432c42ce2b6a7dc20b95771a705c75a330b",
                        "prev": "0x00000000000000000000000000000000000000000000003857a6ae06f0b4b000"
                    }
                ],
                "storageVariables": [
                    {
                        "name": "balanceOf",
                        "type": "mapping(address => uint256)",
                        "value": {
                            "pairs": [
                                {
                                    "key": "0x242e4b6ce3c0c1d1e06a9f6a8bde1c0ed6c68daa",
                                    "value": {
                                        "current": "1539333595000000000000",
                                        "prev": "1039333595000000000000",
                                        "typeTag": 1
                                    }
                                },
                                {
                                    "key": "0xd058a859eefba4690b32895521154f3d7d916c7d",
                                    "value": {
                                        "current": "21488650000000000000000",
                                        "prev": "21988650000000000000000",
                                        "typeTag": 1
                                    }
                                }
                            ],
                            "typeTag": 4
                        }
                    }
                ]
            }
        ]
    }
}