{
    "balance_change": {
        "balanceChanges": [
            {
                "account": "0x50fd64b464f85162b8e559f5765d8b6f4956fe2d",
                "assets": [
                    {
                        "address": "0x9f63e96e1cca746e3bf5fabb6a8b4f72dcb658bb",
                        "amount": "30",
                        "iconUrl": "",
                        "isERC1155": false,
                        "isERC721": false,
                        "sign": false,
                        "value": ""
                    }
                ]
            },
            {
                "account": "0xf3a823bf459b00702904c9ba90bfa19e04787261",
                "assets": [
                    {
                        "address": "0x9f63e96e1cca746e3bf5fabb6a8b4f72dcb658bb",
                        "amount": "30",
                        "iconUrl": "",
                        "isERC1155": false,
                        "isERC721": false,
                        "sign": true,
                        "value": ""
                    }
                ]
            }
        ]
    },
    "profile": {
        "basic_info": {
            "baseFee": "29.177588834",
            "blockNumber": 15668749,
            "callData": "0xa9059cbb000000000000000000000000f3a823bf459b00702904c9ba90bfa19e04787261000000000000000000000000000000000000000000000001a055690d9db80000",
            "debugEnable": true,
            "errorInfo": "",
            "eventCount": 1,
            "feeRecipient": "0x4675c7e5baafbffbca748158becba61ef3b0a263",
            "formatValue": "0",
            "gasLimit": 34482,
            "gasPrice": "30.677588834",
            "gasUsed": 34482,
            "intTxnCount": 0,
            "internalRevert": false,
            "internalRevertMessage": "",
            "isContractCreation": false,
            "isFlashloan": false,
            "maxFee": "39.533458736",
            "nonce": 875,
            "overwritedBlockNumber": -1,
            "priorityFee": "1.5",
            "receiver": "0x9f63e96e1cca746e3bf5fabb6a8b4f72dcb658bb",
            "revertMessage": "",
            "sender": "0x50fd64b464f85162b8e559f5765d8b6f4956fe2d",
            "simulationEnable": true,
            "sourceTxnHash": "0x6007cf4840da550e7b01f318f83822eedf2180c11eb518c5fc4d89290942510e",
            "status": true,
            "timestamp": "2022-10-03T16:14:11Z",
            "transactionFee": "0.001057824618173988",
            "txnHash": "0x6007cf4840da550e7b01f318f83822eedf2180c11eb518c5fc4d89290942510e",
            "txnIndex": 37,
            "type": 2,
            "value": "0"
        },
        "fund_flow": [
            {
                "amount": "30",
                "from": "0x50fd64b464f85162b8e559f5765d8b6f4956fe2d",
                "id": 1,
                "isERC1155": false,
                "isERC721": false,
                "isReverted": false,
                "order": 1,
                "to": "0xf3a823bf459b00702904c9ba90bfa19e04787261",
                "token": "0x9f63e96e1cca746e3bf5fabb6a8b4f72dcb658bb"
            }
        ],
        "token_infos": [
            {
                "address": "0xc02aaa39b223fe8d0a0e5c4f27ead9083c756cc2",
                "decimals": 18
            },
            {
                "address": "0xeeeeeeeeeeeeeeeeeeeeeeeeeeeeeeeeeeeeeeee",
                "decimals": 18
            },
            {
                "address": "0x9f63e96e1cca746e3bf5fabb6a8b4f72dcb658bb",
                "decimals": 18
            }
        ]
    },
    "address_label": {
        "labels": [
            {
                "address": "0x9f63e96e1cca746e3bf5fabb6a8b4f72dcb658bb",
                "label": "Nanobits (NANOB)"
            },
            {
                "address": "0x0000000000000000000000000000000000000001",
                "label": "Precompiled"
            },
            {
                "address": "0x0000000000000000000000000000000000000002",
                "label": "Precompiled"
            },
            {
                "address": "0x0000000000000000000000000000000000000003",
                "label": "Precompiled"
            },
            {
                "address": "0x0000000000000000000000000000000000000004",
                "label": "Precompiled"
            },
            {
                "address": "0xeeeeeeeeeeeeeeeeeeeeeeeeeeeeeeeeeeeeeeee",
                "label": "Ether"
            }
        ]
    },
    "trace": {
        "accountLabels": null,
        "dataMap": {
            "-1": {
                "invocation": {
                    "address": "0x50fd64b464f85162b8e559f5765d8b6f4956fe2d",
                    "callData": "",
                    "decodedMethod": null,
                    "errorInfo": "",
                    "fromAddress": "",
                    "gasUsed": 0,
                    "id": -1,
                    "methodDecoded": false,
                    "operation": "",
                    "output": "",
                    "revert": false,
                    "revertMessage": "",
                    "selector": "",
                    "status": false,
                    "value": ""
                },
                "nodeType": 0
            },
            "0": {
                "invocation": {
                    "address": "0x9f63e96e1cca746e3bf5fabb6a8b4f72dcb658bb",
                    "callData": "0x000000000000000000000000f3a823bf459b00702904c9ba90bfa19e04787261000000000000000000000000000000000000000000000001a055690d9db80000",
                    "decodedMethod": {
                        "callParams": [
                            {
                                "name": "recipient",
                                "type": "address",
                                "value": "0xf3a823bf459b00702904c9ba90bfa19e04787261"
                            },
                            {
                                "decimalAvailable": true,
                                "name": "amount",
                                "type": "uint256",
                                "value": "30,000,000,000,000,000,000"
                            }
                        ],
                        "constructorArguments": "",
                        "name": "transfer",
                        "returnParams": [
                            {
                                "name": "",
                                "type": "bool",
                                "value": true
                            }
                        ],
                        "signature": "transfer(address,uint256)"
                    },
                    "errorInfo": "",
                    "fromAddress": "0x50fd64b464f85162b8e559f5765d8b6f4956fe2d",
                    "gasUsed": 34482,
                    "id": 0,
                    "methodDecoded": true,
                    "operation": "CALL",
                    "output": "0x0000000000000000000000000000000000000000000000000000000000000001",
                    "revert": false,
                    "revertMessage": "",
                    "selector": "0xa9059cbb",
                    "status": true,
                    "value": "0"
                },
                "nodeType": 0
            },
            "1": {
                "event": {
                    "contract": "0x9f63e96e1cca746e3bf5fabb6a8b4f72dcb658bb",
                    "decodedLog": {
                        "name": "Transfer",
                        "params": [
                            {
                                "name": "from",
                                "type": "address",
                                "value": "0x50fd64b464f85162b8e559f5765d8b6f4956fe2d"
                            },
                            {
                                "name": "to",
                                "type": "address",
                                "value": "0xf3a823bf459b00702904c9ba90bfa19e04787261"
                            },
                            {
                                "decimalAvailable": true,
                                "name": "value",
                                "type": "uint256",
                                "value": "30,000,000,000,000,000,000"
                            }
                        ],
                        "signature": "Transfer(address,address,uint256)"
                    },
                    "id": 1,
                    "logData": "0x000000000000000000000000000000000000000000000001a055690d9db80000",
                    "logDecoded": true,
                    "operation": "EVENT",
                    "revert": false,
                    "status": true,
                    "topics": [
                        "0xddf252ad1be2c89b69c2b068fc378daa952ba7f163c4a11628f55a4df523b3ef",
                        "0x00000000000000000000000050fd64b464f85162b8e559f5765d8b6f4956fe2d",
                        "0x000000000000000000000000f3a823bf459b00702904c9ba90bfa19e04787261"
                    ]
                },
                "nodeType": 1
            }
        },
        "gasFlame": [
            {
                "children": [
                    {
                        "children": [
                            {
                                "children": [],
                                "depth": 0,
                                "name": "Initial Gas",
                                "value": 21632
                            },
                            {
                                "children": [],
                                "depth": 0,
                                "name": "Executed Gas",
                                "value": 12850
                            }
                        ],
                        "depth": -1,
                        "name": "Actual Gas Used",
                        "value": 34482
                    },
                    {
                        "children": [],
                        "depth": -1,
                        "name": "Refunded Gas",
                        "value": 0
                    }
                ],
                "depth": -2,
                "name": "Total Gas",
                "value": 34482
            }
        ],
        "isConfirmed": true,
        "mainTrace": [
            {
                "children": [
                    {
                        "children": [
                            {
                                "children": [],
                                "depth": 1,
                                "id": 1,
                                "order": 1
                            }
                        ],
                        "depth": 0,
                        "id": 0,
                        "order": 0
                    }
                ],
                "depth": -1,
                "id": -1,
                "order": -1
            }
        ],
        "mainTraceNodeCount": 2,
        "parentIdMap": {
            "0": -1,
            "1": 0
        },
        "tidyTrace": [
            {
                "children": [
                    {
                        "children": [
                            {
                                "children": [],
                                "depth": 1,
                                "id": 1,
                                "order": 1
                            }
                        ],
                        "depth": 0,
                        "id": 0,
                        "order": 0
                    }
                ],
                "depth": -1,
                "id": -1,
                "order": -1
            }
        ],
        "tidyTraceNodeCount": 2
    },
    "state_change": {
        "stateChanges": [
            {
                "address": "0x9f63e96e1cca746e3bf5fabb6a8b4f72dcb658bb",
                "erc": "ERC-20",
                "slots": [
                    {
                        "current": "0x00000000000000000000000000000000000000000000003ba6bfff0137e64dcf",
                        "key": "0xc03be2d4765c4ebba276445bd4dd5e0fca29b4b978983dc511bd51e577738613",
                        "prev": "0x00000000000000000000000000000000000000000000003d4715680ed59e4dcf"
                    },
                    {
                        "current": "0x0000000000000000000000000000000000000000002a32e97f213f7bd1780000",
                        "key": "0xbe1c6ff917e06abddae7e35af2faedc6c53b606ecc785199c6cd101729bc3e2e",
                        "prev": "0x0000000000000000000000000000000000000000002a32e7decbd66e33c00000"
                    }
                ],
                "storageVariables": [
                    {
                        "name": "_balances",
                        "type": "mapping(address => uint256)",
                        "value": {
                            "pairs": [
                                {
                                    "key": "0x50fd64b464f85162b8e559f5765d8b6f4956fe2d",
                                    "value": {
                                        "current": "1100373503060409208271",
                                        "prev": "1130373503060409208271",
                                        "typeTag": 1
                                    }
                                },
                                {
                                    "key": "0xf3a823bf459b00702904c9ba90bfa19e04787261",
                                    "value": {
                                        "current": "51015310000000000000000000",
                                        "prev": "51015280000000000000000000",
                                        "typeTag": 1
                                    }
                                }
                            ],
                            "typeTag": 4
                        }
                    }
                ]
            }
        ]
    }
}