{
    "balance_change": {
        "balanceChanges": [
            {
                "account": "0x29d5527caa78f1946a409fa6acaf14a0a4a0274b",
                "assets": [
                    {
                        "address": "0x0000000000085d4780b73119b644ae5ecd22b376",
                        "amount": "49.13",
                        "iconUrl": "https://assets.blocksec.com/icon/67253da83e8ec0bc4adc998fae95ccd612ecf76a66cb8dd38ca9b97c929a1250.png",
                        "isERC1155": false,
                        "isERC721": false,
                        "sign": false,
                        "value": ""
                    }
                ]
            },
            {
                "account": "0xdc71d2a63596a0f56d36d39d5ddbdd919ba03d1f",
                "assets": [
                    {
                        "address": "0x0000000000085d4780b73119b644ae5ecd22b376",
                        "amount": "49.13",
                        "iconUrl": "https://assets.blocksec.com/icon/67253da83e8ec0bc4adc998fae95ccd612ecf76a66cb8dd38ca9b97c929a1250.png",
                        "isERC1155": false,
                        "isERC721": false,
                        "sign": true,
                        "value": ""
                    }
                ]
            }
        ]
    },
    "profile": {
        "basic_info": {
            "baseFee": "",
            "blockNumber": 8969595,
            "callData": "0xa9059cbb000000000000000000000000dc71d2a63596a0f56d36d39d5ddbdd919ba03d1f000000000000000000000000000000000000000000000002a9d0d2b2b6f10000",
            "debugEnable": true,
            "errorInfo": "",
            "eventCount": 1,
            "feeRecipient": "0x04668ec2f57cc15c381b461b9fedab5d451c8f7f",
            "formatValue": "0",
            "gasLimit": 125000,
            "gasPrice": "5",
            "gasUsed": 27690,
            "intTxnCount": 1,
            "internalRevert": false,
            "internalRevertMessage": "",
            "isContractCreation": false,
            "isFlashloan": false,
            "maxFee": "",
            "nonce": 151839,
            "overwritedBlockNumber": -1,
            "priorityFee": "",
            "receiver": "0x0000000000085d4780b73119b644ae5ecd22b376",
            "revertMessage": "",
            "sender": "0x29d5527caa78f1946a409fa6acaf14a0a4a0274b",
            "simulationEnable": true,
            "sourceTxnHash": "0x608a2f89755061d5f1741d853acd0c66ce9f28f4b4af34e332d9918415a3cea5",
            "status": true,
            "timestamp": "2019-11-20T17:19:27Z",
            "transactionFee": "0.00013845",
            "txnHash": "0x608a2f89755061d5f1741d853acd0c66ce9f28f4b4af34e332d9918415a3cea5",
            "txnIndex": 17,
            "type": 0,
            "value": "0"
        },
        "fund_flow": [
            {
                "amount": "49.13",
                "from": "0x29d5527caa78f1946a409fa6acaf14a0a4a0274b",
                "id": 1,
                "isERC1155": false,
                "isERC721": false,
                "isReverted": false,
                "order": 1,
                "to": "0xdc71d2a63596a0f56d36d39d5ddbdd919ba03d1f",
                "token": "0x0000000000085d4780b73119b644ae5ecd22b376"
            }
        ],
        "token_infos": [
            {
                "address": "0x0000000000085d4780b73119b644ae5ecd22b376",
                "decimals": 18
            },
            {
                "address": "0xc02aaa39b223fe8d0a0e5c4f27ead9083c756cc2",
                "decimals": 18
            },
            {
                "address": "0xeeeeeeeeeeeeeeeeeeeeeeeeeeeeeeeeeeeeeeee",
                "decimals": 18
            }
        ]
    },
    "address_label": {
        "labels": [
            {
                "address": "0x29d5527caa78f1946a409fa6acaf14a0a4a0274b",
                "label": "Bitso 2"
            },
            {
                "address": "0x0000000000000000000000000000000000000001",
                "label": "Precompiled"
            },
            {
                "address": "0x0000000000000000000000000000000000000002",
                "label": "Precompiled"
            },
            {
                "address": "0x0000000000000000000000000000000000000003",
                "label": "Precompiled"
            },
            {
                "address": "0x0000000000000000000000000000000000000004",
                "label": "Precompiled"
            },
            {
                "address": "0xeeeeeeeeeeeeeeeeeeeeeeeeeeeeeeeeeeeeeeee",
                "label": "Ether"
            },
            {
                "address": "0x0000000000085d4780b73119b644ae5ecd22b376",
                "label": "TrueUSD: TUSD Token"
            },
            {
                "address": "0xcb9a11afdc6bdb92e4a6235959455f28758b34ba",
                "label": "TrueUSD (TUSD)"
            }
        ]
    },
    "trace": {
        "accountLabels": null,
        "dataMap": {
            "-1": {
                "invocation": {
                    "address": "0x29d5527caa78f1946a409fa6acaf14a0a4a0274b",
                    "callData": "",
                    "decodedMethod": null,
                    "errorInfo": "",
                    "fromAddress": "",
                    "gasUsed": 0,
                    "id": -1,
                    "methodDecoded": false,
                    "operation": "",
                    "output": "",
                    "revert": false,
                    "revertMessage": "",
                    "selector": "",
                    "status": false,
                    "value": ""
                },
                "nodeType": 0
            },
            "0": {
                "invocation": {
                    "address": "0x0000000000085d4780b73119b644ae5ecd22b376",
                    "callData": "0x000000000000000000000000dc71d2a63596a0f56d36d39d5ddbdd919ba03d1f000000000000000000000000000000000000000000000002a9d0d2b2b6f10000",
                    "decodedMethod": {
                        "callParams": [
                            {
                                "name": "_to",
                                "type": "address",
                                "value": "0xdc71d2a63596a0f56d36d39d5ddbdd919ba03d1f"
                            },
                            {
                                "decimalAvailable": true,
                                "name": "_value",
                                "type": "uint256",
                                "value": "49,130,000,000,000,000,000"
                            }
                        ],
                        "constructorArguments": "",
                        "name": "transfer",
                        "returnParams": [
                            {
                                "name": "",
                                "type": "bool",
                                "value": true
                            }
                        ],
                        "signature": "transfer(address,uint256)"
                    },
                    "errorInfo": "",
                    "fromAddress": "0x29d5527caa78f1946a409fa6acaf14a0a4a0274b",
                    "gasUsed": 27690,
                    "id": 0,
                    "methodDecoded": true,
                    "operation": "CALL",
                    "output": "0x0000000000000000000000000000000000000000000000000000000000000001",
                    "revert": false,
                    "revertMessage": "",
                    "selector": "0xa9059cbb",
                    "status": true,
                    "value": "0"
                },
                "nodeType": 0
            },
            "1": {
                "invocation": {
                    "address": "0xcb9a11afdc6bdb92e4a6235959455f28758b34ba",
                    "callData": "0x000000000000000000000000dc71d2a63596a0f56d36d39d5ddbdd919ba03d1f000000000000000000000000000000000000000000000002a9d0d2b2b6f10000",
                    "decodedMethod": {
                        "callParams": [
                            {
                                "name": "_to",
                                "type": "address",
                                "value": "0xdc71d2a63596a0f56d36d39d5ddbdd919ba03d1f"
                            },
                            {
                                "decimalAvailable": true,
                                "name": "_value",
                                "type": "uint256",
                                "value": "49,130,000,000,000,000,000"
                            }
                        ],
                        "constructorArguments": "",
                        "name": "transfer",
                        "returnParams": [
                            {
                                "name": "",
                                "type": "bool",
                                "value": true
                            }
                        ],
                        "signature": "transfer(address,uint256)"
                    },
                    "errorInfo": "",
                    "fromAddress": "0x0000000000085d4780b73119b644ae5ecd22b376",
                    "gasUsed": 30719,
                    "id": 1,
                    "methodDecoded": true,
                    "operation": "DELEGATECALL",
                    "output": "0x0000000000000000000000000000000000000000000000000000000000000001",
                    "revert": false,
                    "revertMessage": "",
                    "selector": "0xa9059cbb",
                    "status": true,
                    "value": "0"
                },
                "nodeType": 0
            },
            "2": {
                "event": {
                    "contract": "0x0000000000085d4780b73119b644ae5ecd22b376",
                    "decodedLog": {
                        "name": "Transfer",
                        "params": [
                            {
                                "name": "from",
                                "type": "address",
                                "value": "0x29d5527caa78f1946a409fa6acaf14a0a4a0274b"
                            },
                            {
                                "name": "to",
                                "type": "address",
                                "value": "0xdc71d2a63596a0f56d36d39d5ddbdd919ba03d1f"
                            },
                            {
                                "decimalAvailable": true,
                                "name": "value",
                                "type": "uint256",
                                "value": "49,130,000,000,000,000,000"
                            }
                        ],
                        "signature": "Transfer(address,address,uint256)"
                    },
                    "id": 2,
                    "logData": "0x000000000000000000000000000000000000000000000002a9d0d2b2b6f10000",
                    "logDecoded": true,
                    "operation": "EVENT",
                    "revert": false,
                    "status": true,
                    "topics": [
                        "0xddf252ad1be2c89b69c2b068fc378daa952ba7f163c4a11628f55a4df523b3ef",
                        "0x00000000000000000000000029d5527caa78f1946a409fa6acaf14a0a4a0274b",
                        "0x000000000000000000000000dc71d2a63596a0f56d36d39d5ddbdd919ba03d1f"
                    ]
                },
                "nodeType": 1
            }
        },
        "gasFlame": [
            {
                "children": [
                    {
                        "children": [
                            {
                                "children": [],
                                "depth": 0,
                                "name": "Initial Gas",
                                "value": 23256
                            },
                            {
                                "children": [
                                    {
                                        "children": [],
                                        "depth": 1,
                                        "name": "transfer",
                                        "value": 30719
                                    }
                                ],
                                "depth": 0,
                                "name": "Executed Gas",
                                "value": 32124
                            }
                        ],
                        "depth": -1,
                        "name": "Actual Gas Used",
                        "value": 27690
                    },
                    {
                        "children": [],
                        "depth": -1,
                        "name": "Refunded Gas",
                        "value": 27690
                    }
                ],
                "depth": -2,
                "name": "Total Gas",
                "value": 55380
            }
        ],
        "isConfirmed": true,
        "mainTrace": [
            {
                "children": [
                    {
                        "children": [
                            {
                                "children": [
                                    {
                                        "children": [],
                                        "depth": 2,
                                        "id": 2,
                                        "order": 2
                                    }
                                ],
                                "depth": 1,
                                "id": 1,
                                "order": 1
                            }
                        ],
                        "depth": 0,
                        "id": 0,
                        "order": 0
                    }
                ],
                "depth": -1,
                "id": -1,
                "order": -1
            }
        ],
        "mainTraceNodeCount": 3,
        "parentIdMap": {
            "0": -1,
            "1": 0,
            "2": 1
        },
        "tidyTrace": [
            {
                "children": [
                    {
                        "children": [
                            {
                                "children": [
                                    {
                                        "children": [],
                                        "depth": 2,
                                        "id": 2,
                                        "order": 2
                                    }
                                ],
                                "depth": 1,
                                "id": 1,
                                "order": 1
                            }
                        ],
                        "depth": 0,
                        "id": 0,
                        "order": 0
                    }
                ],
                "depth": -1,
                "id": -1,
                "order": -1
            }
        ],
        "tidyTraceNodeCount": 3
    },
    "state_change": {
        "stateChanges": [
            {
                "address": "0x0000000000085d4780b73119b644ae5ecd22b376",
                "erc": "ERC-20",
                "slots": [
                    {
                        "current": "0x0000000000000000000000000000000000000000000000000000000000032bf6",
                        "key": "0x00000000000000000000000000000000000000000000000000000000000fffff",
                        "prev": "0x0000000000000000000000000000000000000000000000000000000000032bf8"
                    },
                    {
                        "current": "0x000000000000000000000000000000000000000000000b00ae3b4d89ce8ac604",
                        "key": "0x260aeeb226537c81cbf6c9c291262635ae6a5d8dd4e79ca963924f5afa6dc4d9",
                        "prev": "0x000000000000000000000000000000000000000000000b03580c203c857bc604"
                    },
                    {
                        "current": "0x00000000000000000000000000000000000000000000000d8d4ee47f07e70000",
                        "key": "0x816d3b7d5ea0e97d23fc7f1c950a99a87ede3a83cf7992745cb9c8c64306c59a",
                        "prev": "0x00000000000000000000000000000000000000000000000ae37e11cc50f60000"
                    },
                    {
                        "current": "0x0000000000000000000000000000000000000000000000000000000000000000",
                        "key": "0x0000000000000000000000000000000000000000000000000000000000132bf7",
                        "prev": "0x0000000000000000000000000000000000000000000000000000000000000001"
                    },
                    {
                        "current": "0x0000000000000000000000000000000000000000000000000000000000000000",
                        "key": "0x0000000000000000000000000000000000000000000000000000000000132bf6",
                        "prev": "0x0000000000000000000000000000000000000000000000000000000000000001"
                    }
                ],
                "storageVariables": [
                    {
                        "name": "_balanceOf",
                        "type": "mapping(address => uint256)",
                        "value": {
                            "pairs": [
                                {
                                    "key": "0x29d5527caa78f1946a409fa6acaf14a0a4a0274b",
                                    "value": {
                                        "current": "51958586025206593799684",
                                        "prev": "52007716025206593799684",
                                        "typeTag": 1
                                    }
                                },
                                {
                                    "key": "0xdc71d2a63596a0f56d36d39d5ddbdd919ba03d1f",
                                    "value": {
                                        "current": "249990000000000000000",
                                        "prev": "200860000000000000000",
                                        "typeTag": 1
                                    }
                                }
                            ],
                            "typeTag": 4
                        }
                    }
                ]
            }
        ]
    }
}