{
    "balance_change": {
        "balanceChanges": [
            {
                "account": "0x94de3d2b316c837b4deb2e598767426558895e4a",
                "assets": [
                    {
                        "address": "0x7d29a64504629172a429e64183d6673b9dacbfce",
                        "amount": "19,535",
                        "iconUrl": "",
                        "isERC1155": false,
                        "isERC721": false,
                        "sign": false,
                        "value": "11631.139000000000788"
                    }
                ]
            },
            {
                "account": "0xe7bd2b06a6d0601561fcf5a77abe7f77f65c5c73",
                "assets": [
                    {
                        "address": "0x7d29a64504629172a429e64183d6673b9dacbfce",
                        "amount": "19,535",
                        "iconUrl": "",
                        "isERC1155": false,
                        "isERC721": false,
                        "sign": true,
                        "value": "11631.139000000000788"
                    }
                ]
            }
        ]
    },
    "profile": {
        "basic_info": {
            "baseFee": "41.819487341",
            "blockNumber": 18836495,
            "callData": "0xa9059cbb000000000000000000000000e7bd2b06a6d0601561fcf5a77abe7f77f65c5c73000000000000000000000000000000000000000000000422fe95b72257dc0000",
            "debugEnable": true,
            "errorInfo": "",
            "eventCount": 1,
            "feeRecipient": "0x0376f7ec14a08556b1df2491138faab33d065dd1",
            "formatValue": "0",
            "gasLimit": 52029,
            "gasPrice": "41.919487341",
            "gasUsed": 52029,
            "intTxnCount": 0,
            "internalRevert": false,
            "internalRevertMessage": "",
            "isContractCreation": false,
            "isFlashloan": false,
            "maxFee": "54.902371261",
            "nonce": 40,
            "overwritedBlockNumber": -1,
            "priorityFee": "0.1",
            "receiver": "0x7d29a64504629172a429e64183d6673b9dacbfce",
            "revertMessage": "",
            "sender": "0x94de3d2b316c837b4deb2e598767426558895e4a",
            "simulationEnable": true,
            "sourceTxnHash": "0x6181dfb5b79074b6dcb1f4f54815860806e6a24f585c9569c43c30cc6e7438ea",
            "status": true,
            "timestamp": "2023-12-21T20:02:23Z",
            "transactionFee": "0.002181029006864889",
            "txnHash": "0x6181dfb5b79074b6dcb1f4f54815860806e6a24f585c9569c43c30cc6e7438ea",
            "txnIndex": 79,
            "type": 2,
            "value": "0"
        },
        "fund_flow": [
            {
                "amount": "19,535",
                "from": "0x94de3d2b316c837b4deb2e598767426558895e4a",
                "id": 1,
                "isERC1155": false,
                "isERC721": false,
                "isReverted": false,
                "order": 1,
                "to": "0xe7bd2b06a6d0601561fcf5a77abe7f77f65c5c73",
                "token": "0x7d29a64504629172a429e64183d6673b9dacbfce"
            }
        ],
        "token_infos": [
            {
                "address": "0x7d29a64504629172a429e64183d6673b9dacbfce",
                "decimals": 18
            },
            {
                "address": "0xc02aaa39b223fe8d0a0e5c4f27ead9083c756cc2",
                "decimals": 18
            },
            {
                "address": "0xeeeeeeeeeeeeeeeeeeeeeeeeeeeeeeeeeeeeeeee",
                "decimals": 18
            }
        ]
    },
    "address_label": {
        "labels": [
            {
                "address": "0xeeeeeeeeeeeeeeeeeeeeeeeeeeeeeeeeeeeeeeee",
                "label": "Ether"
            },
            {
                "address": "0x7d29a64504629172a429e64183d6673b9dacbfce",
                "label": "VectorspaceAI Token"
            },
            {
                "address": "0x0000000000000000000000000000000000000001",
                "label": "Precompiled"
            },
            {
                "address": "0x0000000000000000000000000000000000000002",
                "label": "Precompiled"
            },
            {
                "address": "0x0000000000000000000000000000000000000003",
                "label": "Precompiled"
            },
            {
                "address": "0x0000000000000000000000000000000000000004",
                "label": "Precompiled"
            }
        ]
    },
    "trace": {
        "accountLabels": null,
        "dataMap": {
            "-1": {
                "invocation": {
                    "address": "0x94de3d2b316c837b4deb2e598767426558895e4a",
                    "callData": "",
                    "decodedMethod": null,
                    "errorInfo": "",
                    "fromAddress": "",
                    "gasUsed": 0,
                    "id": -1,
                    "methodDecoded": false,
                    "operation": "",
                    "output": "",
                    "revert": false,
                    "revertMessage": "",
                    "selector": "",
                    "status": false,
                    "value": ""
                },
                "nodeType": 0
            },
            "0": {
                "invocation": {
                    "address": "0x7d29a64504629172a429e64183d6673b9dacbfce",
                    "callData": "0x000000000000000000000000e7bd2b06a6d0601561fcf5a77abe7f77f65c5c73000000000000000000000000000000000000000000000422fe95b72257dc0000",
                    "decodedMethod": {
                        "callParams": [
                            {
                                "name": "to",
                                "type": "address",
                                "value": "0xe7bd2b06a6d0601561fcf5a77abe7f77f65c5c73"
                            },
                            {
                                "decimalAvailable": true,
                                "name": "tokens",
                                "type": "uint256",
                                "value": "19,535,000,000,000,000,000,000"
                            }
                        ],
                        "constructorArguments": "",
                        "name": "transfer",
                        "returnParams": [
                            {
                                "name": "success",
                                "type": "bool",
                                "value": true
                            }
                        ],
                        "signature": "transfer(address,uint256)"
                    },
                    "errorInfo": "",
                    "fromAddress": "0x94de3d2b316c837b4deb2e598767426558895e4a",
                    "gasUsed": 52029,
                    "id": 0,
                    "methodDecoded": true,
                    "operation": "CALL",
                    "output": "0x0000000000000000000000000000000000000000000000000000000000000001",
                    "revert": false,
                    "revertMessage": "",
                    "selector": "0xa9059cbb",
                    "status": true,
                    "value": "0"
                },
                "nodeType": 0
            },
            "1": {
                "event": {
                    "contract": "0x7d29a64504629172a429e64183d6673b9dacbfce",
                    "decodedLog": {
                        "name": "Transfer",
                        "params": [
                            {
                                "name": "from",
                                "type": "address",
                                "value": "0x94de3d2b316c837b4deb2e598767426558895e4a"
                            },
                            {
                                "name": "to",
                                "type": "address",
                                "value": "0xe7bd2b06a6d0601561fcf5a77abe7f77f65c5c73"
                            },
                            {
                                "decimalAvailable": true,
                                "name": "tokens",
                                "type": "uint256",
                                "value": "19,535,000,000,000,000,000,000"
                            }
                        ],
                        "signature": "Transfer(address,address,uint256)"
                    },
                    "id": 1,
                    "logData": "0x000000000000000000000000000000000000000000000422fe95b72257dc0000",
                    "logDecoded": true,
                    "operation": "EVENT",
                    "revert": false,
                    "status": true,
                    "topics": [
                        "0xddf252ad1be2c89b69c2b068fc378daa952ba7f163c4a11628f55a4df523b3ef",
                        "0x00000000000000000000000094de3d2b316c837b4deb2e598767426558895e4a",
                        "0x000000000000000000000000e7bd2b06a6d0601561fcf5a77abe7f77f65c5c73"
                    ]
                },
                "nodeType": 1
            }
        },
        "gasFlame": [
            {
                "children": [
                    {
                        "children": [
                            {
                                "children": [],
                                "depth": 0,
                                "name": "Initial Gas",
                                "value": 21656
                            },
                            {
                                "children": [],
                                "depth": 0,
                                "name": "Executed Gas",
                                "value": 30373
                            }
                        ],
                        "depth": -1,
                        "name": "Actual Gas Used",
                        "value": 52029
                    },
                    {
                        "children": [],
                        "depth": -1,
                        "name": "Refunded Gas",
                        "value": 0
                    }
                ],
                "depth": -2,
                "name": "Total Gas",
                "value": 52029
            }
        ],
        "isConfirmed": true,
        "mainTrace": [
            {
                "children": [
                    {
                        "children": [
                            {
                                "children": [],
                                "depth": 1,
                                "id": 1,
                                "order": 1
                            }
                        ],
                        "depth": 0,
                        "id": 0,
                        "order": 0
                    }
                ],
                "depth": -1,
                "id": -1,
                "order": -1
            }
        ],
        "mainTraceNodeCount": 2,
        "parentIdMap": {
            "0": -1,
            "1": 0
        },
        "tidyTrace": [
            {
                "children": [
                    {
                        "children": [
                            {
                                "children": [],
                                "depth": 1,
                                "id": 1,
                                "order": 1
                            }
                        ],
                        "depth": 0,
                        "id": 0,
                        "order": 0
                    }
                ],
                "depth": -1,
                "id": -1,
                "order": -1
            }
        ],
        "tidyTraceNodeCount": 2
    },
    "state_change": {
        "stateChanges": [
            {
                "address": "0x7d29a64504629172a429e64183d6673b9dacbfce",
                "erc": "ERC-20",
                "slots": [
                    {
                        "current": "0x000000000000000000000000000000000000000000000000010e89c17862ea7b",
                        "key": "0x77f081eaa5be0dd139f2db809802ee043f28d3069bffb8ed9477bcc624cc1fdf",
                        "prev": "0x000000000000000000000000000000000000000000000422ffa440e3d03eea7b"
                    },
                    {
                        "current": "0x000000000000000000000000000000000000000000000422fe95b72257dc0000",
                        "key": "0x35a4b253f19084adb79bded233fcc654ff1bdfcfdc3fdd2002110823d4e4f75b",
                        "prev": "0x0000000000000000000000000000000000000000000000000000000000000000"
                    }
                ],
                "storageVariables": [
                    {
                        "name": "balances",
                        "type": "mapping(address => uint256)",
                        "value": {
                            "pairs": [
                                {
                                    "key": "0x94de3d2b316c837b4deb2e598767426558895e4a",
                                    "value": {
                                        "current": "76149707753319035",
                                        "prev": "19535076149707753319035",
                                        "typeTag": 1
                                    }
                                },
                                {
                                    "key": "0xe7bd2b06a6d0601561fcf5a77abe7f77f65c5c73",
                                    "value": {
                                        "current": "19535000000000000000000",
                                        "prev": "0",
                                        "typeTag": 1
                                    }
                                }
                            ],
                            "typeTag": 4
                        }
                    }
                ]
            }
        ]
    }
}