{
    "balance_change": {
        "balanceChanges": [
            {
                "account": "0x02d648a1d2f9c44b8b7a821818f16c2f56b00bb6",
                "assets": [
                    {
                        "address": "0xeeeeeeeeeeeeeeeeeeeeeeeeeeeeeeeeeeeeeeee",
                        "amount": "0.005",
                        "iconUrl": "https://assets.blocksec.com/image/1663669189317-3.png",
                        "isERC1155": false,
                        "isERC721": false,
                        "sign": false,
                        "value": "13.980891229999999723"
                    }
                ]
            },
            {
                "account": "0xb1690c08e213a35ed9bab7b318de14420fb57d8c",
                "assets": [
                    {
                        "address": "0xeeeeeeeeeeeeeeeeeeeeeeeeeeeeeeeeeeeeeeee",
                        "amount": "0.0001875",
                        "iconUrl": "https://assets.blocksec.com/image/1663669189317-3.png",
                        "isERC1155": false,
                        "isERC721": false,
                        "sign": true,
                        "value": "0.5242834211249999896"
                    }
                ]
            },
            {
                "account": "0xfd4e40a16bfc0cf3d0fefd862f5e5afee94f3b70",
                "assets": [
                    {
                        "address": "0xeeeeeeeeeeeeeeeeeeeeeeeeeeeeeeeeeeeeeeee",
                        "amount": "0.0048125",
                        "iconUrl": "https://assets.blocksec.com/image/1663669189317-3.png",
                        "isERC1155": false,
                        "isERC721": false,
                        "sign": true,
                        "value": "13.456607808874999733"
                    }
                ]
            }
        ]
    },
    "profile": {
        "basic_info": {
            "baseFee": "55.459402272",
            "blockNumber": 14148658,
            "callData": "0x454a2ab30000000000000000000000000000000000000000000000000000000000081925",
            "debugEnable": true,
            "errorInfo": "",
            "eventCount": 2,
            "feeRecipient": "0xea674fdde714fd979de3edf0f56aa9716b898ec8",
            "formatValue": "0.005",
            "gasLimit": 158316,
            "gasPrice": "56.999136085",
            "gasUsed": 90179,
            "intTxnCount": 3,
            "internalRevert": false,
            "internalRevertMessage": "",
            "isContractCreation": false,
            "isFlashloan": false,
            "maxFee": "56.999136085",
            "nonce": 3,
            "overwritedBlockNumber": -1,
            "priorityFee": "56.999136085",
            "receiver": "0xb1690c08e213a35ed9bab7b318de14420fb57d8c",
            "revertMessage": "",
            "sender": "0x02d648a1d2f9c44b8b7a821818f16c2f56b00bb6",
            "simulationEnable": true,
            "sourceTxnHash": "0x6174eb0651775c94adc3d3363fdf7d678f453c45aa7f053e7074a69fbc6cf909",
            "status": true,
            "timestamp": "2022-02-05T22:22:45Z",
            "transactionFee": "0.005140125093009215",
            "txnHash": "0x6174eb0651775c94adc3d3363fdf7d678f453c45aa7f053e7074a69fbc6cf909",
            "txnIndex": 55,
            "type": 2,
            "value": "5000000000000000"
        },
        "fund_flow": [
            {
                "amount": "0.005",
                "from": "0x02d648a1d2f9c44b8b7a821818f16c2f56b00bb6",
                "id": 1,
                "isERC1155": false,
                "isERC721": false,
                "isReverted": false,
                "order": 1,
                "to": "0xb1690c08e213a35ed9bab7b318de14420fb57d8c",
                "token": "0xeeeeeeeeeeeeeeeeeeeeeeeeeeeeeeeeeeeeeeee"
            },
            {
                "amount": "0.0048125",
                "from": "0xb1690c08e213a35ed9bab7b318de14420fb57d8c",
                "id": 2,
                "isERC1155": false,
                "isERC721": false,
                "isReverted": false,
                "order": 2,
                "to": "0xfd4e40a16bfc0cf3d0fefd862f5e5afee94f3b70",
                "token": "0xeeeeeeeeeeeeeeeeeeeeeeeeeeeeeeeeeeeeeeee"
            }
        ],
        "token_infos": [
            {
                "address": "0xeeeeeeeeeeeeeeeeeeeeeeeeeeeeeeeeeeeeeeee",
                "decimals": 18
            },
            {
                "address": "0xc02aaa39b223fe8d0a0e5c4f27ead9083c756cc2",
                "decimals": 18
            }
        ]
    },
    "address_label": {
        "labels": [
            {
                "address": "0x06012c8cf97bead5deae237070f9587f8e7a266d",
                "label": "CryptoKitties: Core"
            },
            {
                "address": "0xb1690c08e213a35ed9bab7b318de14420fb57d8c",
                "label": "SaleClockAuction"
            },
            {
                "address": "0x0000000000000000000000000000000000000001",
                "label": "Precompiled"
            },
            {
                "address": "0x0000000000000000000000000000000000000002",
                "label": "Precompiled"
            },
            {
                "address": "0x0000000000000000000000000000000000000003",
                "label": "Precompiled"
            },
            {
                "address": "0x0000000000000000000000000000000000000004",
                "label": "Precompiled"
            },
            {
                "address": "0xeeeeeeeeeeeeeeeeeeeeeeeeeeeeeeeeeeeeeeee",
                "label": "Ether"
            }
        ]
    },
    "trace": {
        "accountLabels": null,
        "dataMap": {
            "-1": {
                "invocation": {
                    "address": "0x02d648a1d2f9c44b8b7a821818f16c2f56b00bb6",
                    "callData": "",
                    "decodedMethod": null,
                    "errorInfo": "",
                    "fromAddress": "",
                    "gasUsed": 0,
                    "id": -1,
                    "methodDecoded": false,
                    "operation": "",
                    "output": "",
                    "revert": false,
                    "revertMessage": "",
                    "selector": "",
                    "status": false,
                    "value": ""
                },
                "nodeType": 0
            },
            "0": {
                "invocation": {
                    "address": "0xb1690c08e213a35ed9bab7b318de14420fb57d8c",
                    "callData": "0x0000000000000000000000000000000000000000000000000000000000081925",
                    "decodedMethod": {
                        "callParams": [
                            {
                                "name": "_tokenId",
                                "type": "uint256",
                                "value": "530,725"
                            }
                        ],
                        "constructorArguments": "",
                        "name": "bid",
                        "returnParams": [],
                        "signature": "bid(uint256)"
                    },
                    "errorInfo": "",
                    "fromAddress": "0x02d648a1d2f9c44b8b7a821818f16c2f56b00bb6",
                    "gasUsed": 90179,
                    "id": 0,
                    "methodDecoded": true,
                    "operation": "CALL",
                    "output": "",
                    "revert": false,
                    "revertMessage": "",
                    "selector": "0x454a2ab3",
                    "status": true,
                    "value": "0.005"
                },
                "nodeType": 0
            },
            "1": {
                "invocation": {
                    "address": "0xfd4e40a16bfc0cf3d0fefd862f5e5afee94f3b70",
                    "callData": "0x",
                    "decodedMethod": null,
                    "errorInfo": "",
                    "fromAddress": "0xb1690c08e213a35ed9bab7b318de14420fb57d8c",
                    "gasUsed": 0,
                    "id": 1,
                    "methodDecoded": false,
                    "operation": "CALL",
                    "output": "",
                    "revert": false,
                    "revertMessage": "",
                    "selector": "fallback",
                    "status": true,
                    "value": "0.0048125"
                },
                "nodeType": 0
            },
            "2": {
                "invocation": {
                    "address": "0x02d648a1d2f9c44b8b7a821818f16c2f56b00bb6",
                    "callData": "0x",
                    "decodedMethod": null,
                    "errorInfo": "",
                    "fromAddress": "0xb1690c08e213a35ed9bab7b318de14420fb57d8c",
                    "gasUsed": 0,
                    "id": 2,
                    "methodDecoded": false,
                    "operation": "CALL",
                    "output": "",
                    "revert": false,
                    "revertMessage": "",
                    "selector": "fallback",
                    "status": true,
                    "value": "0"
                },
                "nodeType": 0
            },
            "3": {
                "event": {
                    "contract": "0xb1690c08e213a35ed9bab7b318de14420fb57d8c",
                    "decodedLog": {
                        "name": "AuctionSuccessful",
                        "params": [
                            {
                                "name": "tokenId",
                                "type": "uint256",
                                "value": "530,725"
                            },
                            {
                                "name": "totalPrice",
                                "type": "uint256",
                                "value": "5,000,000,000,000,000"
                            },
                            {
                                "name": "winner",
                                "type": "address",
                                "value": "0x02d648a1d2f9c44b8b7a821818f16c2f56b00bb6"
                            }
                        ],
                        "signature": "AuctionSuccessful(uint256,uint256,address)"
                    },
                    "id": 3,
                    "logData": "0x00000000000000000000000000000000000000000000000000000000000819250000000000000000000000000000000000000000000000000011c37937e0800000000000000000000000000002d648a1d2f9c44b8b7a821818f16c2f56b00bb6",
                    "logDecoded": true,
                    "operation": "EVENT",
                    "revert": false,
                    "status": true,
                    "topics": [
                        "0x4fcc30d90a842164dd58501ab874a101a3749c3d4747139cefe7c876f4ccebd2"
                    ]
                },
                "nodeType": 1
            },
            "4": {
                "invocation": {
                    "address": "0x06012c8cf97bead5deae237070f9587f8e7a266d",
                    "callData": "0x00000000000000000000000002d648a1d2f9c44b8b7a821818f16c2f56b00bb60000000000000000000000000000000000000000000000000000000000081925",
                    "decodedMethod": {
                        "callParams": [
                            {
                                "name": "_to",
                                "type": "address",
                                "value": "0x02d648a1d2f9c44b8b7a821818f16c2f56b00bb6"
                            },
                            {
                                "decimalAvailable": true,
                                "name": "_tokenId",
                                "type": "uint256",
                                "value": "530,725"
                            }
                        ],
                        "constructorArguments": "",
                        "name": "transfer",
                        "returnParams": [],
                        "signature": "transfer(address,uint256)"
                    },
                    "errorInfo": "",
                    "fromAddress": "0xb1690c08e213a35ed9bab7b318de14420fb57d8c",
                    "gasUsed": 47479,
                    "id": 4,
                    "methodDecoded": true,
                    "operation": "CALL",
                    "output": "",
                    "revert": false,
                    "revertMessage": "",
                    "selector": "0xa9059cbb",
                    "status": true,
                    "value": "0"
                },
                "nodeType": 0
            },
            "5": {
                "event": {
                    "contract": "0x06012c8cf97bead5deae237070f9587f8e7a266d",
                    "decodedLog": {
                        "name": "Transfer",
                        "params": [
                            {
                                "name": "from",
                                "type": "address",
                                "value": "0xb1690c08e213a35ed9bab7b318de14420fb57d8c"
                            },
                            {
                                "name": "to",
                                "type": "address",
                                "value": "0x02d648a1d2f9c44b8b7a821818f16c2f56b00bb6"
                            },
                            {
                                "decimalAvailable": true,
                                "name": "tokenId",
                                "type": "uint256",
                                "value": "530,725"
                            }
                        ],
                        "signature": "Transfer(address,address,uint256)"
                    },
                    "id": 5,
                    "logData": "0x000000000000000000000000b1690c08e213a35ed9bab7b318de14420fb57d8c00000000000000000000000002d648a1d2f9c44b8b7a821818f16c2f56b00bb60000000000000000000000000000000000000000000000000000000000081925",
                    "logDecoded": true,
                    "operation": "EVENT",
                    "revert": false,
                    "status": true,
                    "topics": [
                        "0xddf252ad1be2c89b69c2b068fc378daa952ba7f163c4a11628f55a4df523b3ef"
                    ]
                },
                "nodeType": 1
            }
        },
        "gasFlame": [
            {
                "children": [
                    {
                        "children": [
                            {
                                "children": [],
                                "depth": 0,
                                "name": "Initial Gas",
                                "value": 21228
                            },
                            {
                                "children": [
                                    {
                                        "children": [],
                                        "depth": 1,
                                        "name": "fallback",
                                        "value": 0
                                    },
                                    {
                                        "children": [],
                                        "depth": 1,
                                        "name": "fallback",
                                        "value": 0
                                    },
                                    {
                                        "children": [],
                                        "depth": 1,
                                        "name": "transfer",
                                        "value": 47479
                                    }
                                ],
                                "depth": 0,
                                "name": "Executed Gas",
                                "value": 83351
                            }
                        ],
                        "depth": -1,
                        "name": "Actual Gas Used",
                        "value": 90179
                    },
                    {
                        "children": [],
                        "depth": -1,
                        "name": "Refunded Gas",
                        "value": 14400
                    }
                ],
                "depth": -2,
                "name": "Total Gas",
                "value": 104579
            }
        ],
        "isConfirmed": true,
        "mainTrace": [
            {
                "children": [
                    {
                        "children": [
                            {
                                "children": [],
                                "depth": 1,
                                "id": 1,
                                "order": 1
                            },
                            {
                                "children": [],
                                "depth": 1,
                                "id": 2,
                                "order": 2
                            },
                            {
                                "children": [],
                                "depth": 1,
                                "id": 3,
                                "order": 3
                            },
                            {
                                "children": [
                                    {
                                        "children": [],
                                        "depth": 2,
                                        "id": 5,
                                        "order": 5
                                    }
                                ],
                                "depth": 1,
                                "id": 4,
                                "order": 4
                            }
                        ],
                        "depth": 0,
                        "id": 0,
                        "order": 0
                    }
                ],
                "depth": -1,
                "id": -1,
                "order": -1
            }
        ],
        "mainTraceNodeCount": 6,
        "parentIdMap": {
            "0": -1,
            "1": 0,
            "2": 0,
            "3": 0,
            "4": 0,
            "5": 4
        },
        "tidyTrace": [
            {
                "children": [
                    {
                        "children": [
                            {
                                "children": [],
                                "depth": 1,
                                "id": 1,
                                "order": 1
                            },
                            {
                                "children": [],
                                "depth": 1,
                                "id": 2,
                                "order": 2
                            },
                            {
                                "children": [],
                                "depth": 1,
                                "id": 3,
                                "order": 3
                            },
                            {
                                "children": [
                                    {
                                        "children": [],
                                        "depth": 2,
                                        "id": 5,
                                        "order": 5
                                    }
                                ],
                                "depth": 1,
                                "id": 4,
                                "order": 4
                            }
                        ],
                        "depth": 0,
                        "id": 0,
                        "order": 0
                    }
                ],
                "depth": -1,
                "id": -1,
                "order": -1
            }
        ],
        "tidyTraceNodeCount": 6
    },
    "state_change": {
        "stateChanges": [
            {
                "address": "0x06012c8cf97bead5deae237070f9587f8e7a266d",
                "erc": "",
                "slots": [
                    {
                        "current": "0x00000000000000000000000002d648a1d2f9c44b8b7a821818f16c2f56b00bb6",
                        "key": "0x7bcbe04c7e728726843a9074f1e80793110dc7b455cd3c300858808bac6ac44f",
                        "prev": "0x000000000000000000000000b1690c08e213a35ed9bab7b318de14420fb57d8c"
                    },
                    {
                        "current": "0x0000000000000000000000000000000000000000000000000000000000029841",
                        "key": "0xc56c286245a85e4048e082d091c57ede29ec05df707b458fe836e199193ff182",
                        "prev": "0x0000000000000000000000000000000000000000000000000000000000029842"
                    },
                    {
                        "current": "0x0000000000000000000000000000000000000000000000000000000000000001",
                        "key": "0xdb4184baf521b29883a9f6e49168717a229da100888986b2df24a54a2ac209fa",
                        "prev": "0x0000000000000000000000000000000000000000000000000000000000000000"
                    }
                ],
                "storageVariables": [
                    {
                        "name": "kittyIndexToOwner",
                        "type": "mapping(uint256 => address)",
                        "value": {
                            "pairs": [
                                {
                                    "key": "530725",
                                    "value": {
                                        "current": "0x02d648a1d2f9c44b8b7a821818f16c2f56b00bb6",
                                        "prev": "0xb1690c08e213a35ed9bab7b318de14420fb57d8c",
                                        "typeTag": 1
                                    }
                                }
                            ],
                            "typeTag": 4
                        }
                    },
                    {
                        "name": "ownershipTokenCount",
                        "type": "mapping(address => uint256)",
                        "value": {
                            "pairs": [
                                {
                                    "key": "0x02d648a1d2f9c44b8b7a821818f16c2f56b00bb6",
                                    "value": {
                                        "current": "1",
                                        "prev": "0",
                                        "typeTag": 1
                                    }
                                },
                                {
                                    "key": "0xb1690c08e213a35ed9bab7b318de14420fb57d8c",
                                    "value": {
                                        "current": "170049",
                                        "prev": "170050",
                                        "typeTag": 1
                                    }
                                }
                            ],
                            "typeTag": 4
                        }
                    }
                ]
            },
            {
                "address": "0xb1690c08e213a35ed9bab7b318de14420fb57d8c",
                "erc": "",
                "slots": [
                    {
                        "current": "0x0000000000000000000000000000000000000000000000000000000000000000",
                        "key": "0xe7e35aaa3741b7963817ac5c978f5fcba03c26fd9b42bfddc4c442c6b2f160bf",
                        "prev": "0x00000000000000000011c37937e080000000000000000000001c6bf526340000"
                    },
                    {
                        "current": "0x0000000000000000000000000000000000000000000000000000000000000000",
                        "key": "0xe7e35aaa3741b7963817ac5c978f5fcba03c26fd9b42bfddc4c442c6b2f160c0",
                        "prev": "0x00000000000000000000000000000000000000005a8c233e000000000002a300"
                    },
                    {
                        "current": "0x0000000000000000000000000000000000000000000000000000000000000000",
                        "key": "0xe7e35aaa3741b7963817ac5c978f5fcba03c26fd9b42bfddc4c442c6b2f160be",
                        "prev": "0x000000000000000000000000fd4e40a16bfc0cf3d0fefd862f5e5afee94f3b70"
                    }
                ],
                "storageVariables": [
                    {
                        "name": "tokenIdToAuction",
                        "type": "mapping(uint256 => struct ClockAuctionBase.Auction)",
                        "value": {
                            "pairs": [
                                {
                                    "key": "530725",
                                    "value": {
                                        "fields": [
                                            {
                                                "name": "seller",
                                                "type": "address",
                                                "value": {
                                                    "current": "0x0000000000000000000000000000000000000000",
                                                    "prev": "0xfd4e40a16bfc0cf3d0fefd862f5e5afee94f3b70",
                                                    "typeTag": 1
                                                }
                                            },
                                            {
                                                "name": "startingPrice",
                                                "type": "uint128",
                                                "value": {
                                                    "current": "0",
                                                    "prev": "8000000000000000",
                                                    "typeTag": 1
                                                }
                                            },
                                            {
                                                "name": "endingPrice",
                                                "type": "uint128",
                                                "value": {
                                                    "current": "0",
                                                    "prev": "5000000000000000",
                                                    "typeTag": 1
                                                }
                                            },
                                            {
                                                "name": "duration",
                                                "type": "uint64",
                                                "value": {
                                                    "current": "0",
                                                    "prev": "172800",
                                                    "typeTag": 1
                                                }
                                            },
                                            {
                                                "name": "startedAt",
                                                "type": "uint64",
                                                "value": {
                                                    "current": "0",
                                                    "prev": "1519133502",
                                                    "typeTag": 1
                                                }
                                            }
                                        ],
                                        "typeTag": 3
                                    }
                                }
                            ],
                            "typeTag": 4
                        }
                    }
                ]
            }
        ]
    }
}