{
    "balance_change": {
        "balanceChanges": [
            {
                "account": "0x12a3f394a47be7093617442d8f2637ced38798d1",
                "assets": [
                    {
                        "address": "0xeeeeeeeeeeeeeeeeeeeeeeeeeeeeeeeeeeeeeeee",
                        "amount": "0.2",
                        "iconUrl": "https://assets.blocksec.com/image/1663669189317-3.png",
                        "isERC1155": false,
                        "isERC721": false,
                        "sign": false,
                        "value": "559.23564919999998896"
                    },
                    {
                        "address": "0xd2f668a8461d6761115daf8aeb3cdf5f40c532c6",
                        "amount": "1",
                        "iconUrl": "",
                        "isERC1155": false,
                        "isERC721": true,
                        "sign": true,
                        "tokenID": "2934",
                        "value": ""
                    }
                ]
            },
            {
                "account": "0xd2f668a8461d6761115daf8aeb3cdf5f40c532c6",
                "assets": [
                    {
                        "address": "0xeeeeeeeeeeeeeeeeeeeeeeeeeeeeeeeeeeeeeeee",
                        "amount": "0.2",
                        "iconUrl": "https://assets.blocksec.com/image/1663669189317-3.png",
                        "isERC1155": false,
                        "isERC721": false,
                        "sign": true,
                        "value": "559.23564919999998896"
                    }
                ]
            },
            {
                "account": "0x0000000000000000000000000000000000000000",
                "assets": [
                    {
                        "address": "0xd2f668a8461d6761115daf8aeb3cdf5f40c532c6",
                        "amount": "1",
                        "iconUrl": "",
                        "isERC1155": false,
                        "isERC721": true,
                        "sign": false,
                        "tokenID": "2934",
                        "value": ""
                    }
                ]
            }
        ]
    },
    "profile": {
        "basic_info": {
            "baseFee": "129.013901734",
            "blockNumber": 14140608,
            "callData": "0x76f69d1c0000000000000000000000000000000000000000000000000000000000000001000000000000000000000000000000000000000000000000000000000000000100000000000000000000000000000000000000000000000000000000000000cb00000000000000000000000000000000000000000000000000000000000000800000000000000000000000000000000000000000000000000000000000000041fd84bb8e794e5d6138275623912e7184cddd8788817996a508438919ceeaf69c6abe57ca88b5efcd85f64ad455bde9fef1c4d9546da63dba39a6ce237d055dac1b00000000000000000000000000000000000000000000000000000000000000",
            "debugEnable": true,
            "errorInfo": "",
            "eventCount": 1,
            "feeRecipient": "0x1ad91ee08f21be3de0ba2ba6918e714da6b45836",
            "formatValue": "0.2",
            "gasLimit": 189308,
            "gasPrice": "130.513901734",
            "gasUsed": 189308,
            "intTxnCount": 1,
            "internalRevert": false,
            "internalRevertMessage": "",
            "isContractCreation": false,
            "isFlashloan": false,
            "maxFee": "161.005255074",
            "nonce": 0,
            "overwritedBlockNumber": -1,
            "priorityFee": "1.5",
            "receiver": "0xd2f668a8461d6761115daf8aeb3cdf5f40c532c6",
            "revertMessage": "",
            "sender": "0x12a3f394a47be7093617442d8f2637ced38798d1",
            "simulationEnable": true,
            "sourceTxnHash": "0x6132b2e8845fffff1188fcf0b75dd79a7ff630e45496f2414be97c6fe4926919",
            "status": true,
            "timestamp": "2022-02-04T16:29:43Z",
            "transactionFee": "0.024707325709460072",
            "txnHash": "0x6132b2e8845fffff1188fcf0b75dd79a7ff630e45496f2414be97c6fe4926919",
            "txnIndex": 23,
            "type": 2,
            "value": "200000000000000000"
        },
        "fund_flow": [
            {
                "amount": "0.2",
                "from": "0x12a3f394a47be7093617442d8f2637ced38798d1",
                "id": 1,
                "isERC1155": false,
                "isERC721": false,
                "isReverted": false,
                "order": 1,
                "to": "0xd2f668a8461d6761115daf8aeb3cdf5f40c532c6",
                "token": "0xeeeeeeeeeeeeeeeeeeeeeeeeeeeeeeeeeeeeeeee"
            },
            {
                "amount": "1",
                "from": "0x0000000000000000000000000000000000000000",
                "id": 2,
                "isERC1155": false,
                "isERC721": true,
                "isReverted": false,
                "order": 2,
                "to": "0x12a3f394a47be7093617442d8f2637ced38798d1",
                "token": "0xd2f668a8461d6761115daf8aeb3cdf5f40c532c6",
                "tokenID": "2934"
            }
        ],
        "token_infos": [
            {
                "address": "0xc02aaa39b223fe8d0a0e5c4f27ead9083c756cc2",
                "decimals": 18
            },
            {
                "address": "0xeeeeeeeeeeeeeeeeeeeeeeeeeeeeeeeeeeeeeeee",
                "decimals": 18
            }
        ]
    },
    "address_label": {
        "labels": [
            {
                "address": "0x0000000000000000000000000000000000000004",
                "label": "Precompiled"
            },
            {
                "address": "0xeeeeeeeeeeeeeeeeeeeeeeeeeeeeeeeeeeeeeeee",
                "label": "Ether"
            },
            {
                "address": "0xd2f668a8461d6761115daf8aeb3cdf5f40c532c6",
                "label": "Karafuru: KARAFURU Token"
            },
            {
                "address": "0x0000000000000000000000000000000000000001",
                "label": "Precompiled"
            },
            {
                "address": "0x0000000000000000000000000000000000000002",
                "label": "Precompiled"
            },
            {
                "address": "0x0000000000000000000000000000000000000003",
                "label": "Precompiled"
            }
        ]
    },
    "trace": {
        "accountLabels": null,
        "dataMap": {
            "-1": {
                "invocation": {
                    "address": "0x12a3f394a47be7093617442d8f2637ced38798d1",
                    "callData": "",
                    "decodedMethod": null,
                    "errorInfo": "",
                    "fromAddress": "",
                    "gasUsed": 0,
                    "id": -1,
                    "methodDecoded": false,
                    "operation": "",
                    "output": "",
                    "revert": false,
                    "revertMessage": "",
                    "selector": "",
                    "status": false,
                    "value": ""
                },
                "nodeType": 0
            },
            "0": {
                "invocation": {
                    "address": "0xd2f668a8461d6761115daf8aeb3cdf5f40c532c6",
                    "callData": "0x0000000000000000000000000000000000000000000000000000000000000001000000000000000000000000000000000000000000000000000000000000000100000000000000000000000000000000000000000000000000000000000000cb00000000000000000000000000000000000000000000000000000000000000800000000000000000000000000000000000000000000000000000000000000041fd84bb8e794e5d6138275623912e7184cddd8788817996a508438919ceeaf69c6abe57ca88b5efcd85f64ad455bde9fef1c4d9546da63dba39a6ce237d055dac1b00000000000000000000000000000000000000000000000000000000000000",
                    "decodedMethod": {
                        "callParams": [
                            {
                                "name": "_mintQty",
                                "type": "uint256",
                                "value": "1"
                            },
                            {
                                "name": "_signedQty",
                                "type": "uint256",
                                "value": "1"
                            },
                            {
                                "name": "_nonce",
                                "type": "uint256",
                                "value": "203"
                            },
                            {
                                "name": "_signature",
                                "type": "bytes",
                                "value": "0xfd84bb8e794e5d6138275623912e7184cddd8788817996a508438919ceeaf69c6abe57ca88b5efcd85f64ad455bde9fef1c4d9546da63dba39a6ce237d055dac1b"
                            }
                        ],
                        "constructorArguments": "",
                        "name": "preSalesMint",
                        "returnParams": [],
                        "signature": "preSalesMint(uint256,uint256,uint256,bytes)"
                    },
                    "errorInfo": "",
                    "fromAddress": "0x12a3f394a47be7093617442d8f2637ced38798d1",
                    "gasUsed": 189308,
                    "id": 0,
                    "methodDecoded": true,
                    "operation": "CALL",
                    "output": "",
                    "revert": false,
                    "revertMessage": "",
                    "selector": "0x76f69d1c",
                    "status": true,
                    "value": "0.2"
                },
                "nodeType": 0
            },
            "1": {
                "invocation": {
                    "address": "0x0000000000000000000000000000000000000001",
                    "callData": "0xbe16a94b0e7c82b755cb17ea54d1545f3cb202dd07097487a9be4bd8000000000000000000000000000000000000000000000000000000000000001bfd84bb8e794e5d6138275623912e7184cddd8788817996a508438919ceeaf69c6abe57ca88b5efcd85f64ad455bde9fef1c4d9546da63dba39a6ce237d055dac",
                    "decodedMethod": {
                        "callParams": [
                            {
                                "name": "hash",
                                "type": "bytes32",
                                "value": "0xda45b3f1be16a94b0e7c82b755cb17ea54d1545f3cb202dd07097487a9be4bd8"
                            },
                            {
                                "name": "v",
                                "type": "uint256",
                                "value": "27"
                            },
                            {
                                "name": "r",
                                "type": "bytes32",
                                "value": "0xfd84bb8e794e5d6138275623912e7184cddd8788817996a508438919ceeaf69c"
                            },
                            {
                                "name": "s",
                                "type": "bytes32",
                                "value": "0x6abe57ca88b5efcd85f64ad455bde9fef1c4d9546da63dba39a6ce237d055dac"
                            }
                        ],
                        "constructorArguments": "",
                        "name": "ecrecover",
                        "returnParams": [
                            {
                                "name": "",
                                "type": "address",
                                "value": "0xbf1a34b0642bc878926d5a6a6bf4cdd9bfd44875"
                            }
                        ],
                        "signature": "ecrecover(bytes32,uint256,bytes32,bytes32)"
                    },
                    "errorInfo": "",
                    "fromAddress": "0xd2f668a8461d6761115daf8aeb3cdf5f40c532c6",
                    "gasUsed": 3000,
                    "id": 1,
                    "methodDecoded": true,
                    "operation": "STATICCALL",
                    "output": "0x000000000000000000000000bf1a34b0642bc878926d5a6a6bf4cdd9bfd44875",
                    "revert": false,
                    "revertMessage": "",
                    "selector": "0xda45b3f1",
                    "status": true,
                    "value": "0"
                },
                "nodeType": 0
            },
            "2": {
                "event": {
                    "contract": "0xd2f668a8461d6761115daf8aeb3cdf5f40c532c6",
                    "decodedLog": {
                        "name": "Transfer",
                        "params": [
                            {
                                "name": "from",
                                "type": "address",
                                "value": "0x0000000000000000000000000000000000000000"
                            },
                            {
                                "name": "to",
                                "type": "address",
                                "value": "0x12a3f394a47be7093617442d8f2637ced38798d1"
                            },
                            {
                                "decimalAvailable": true,
                                "name": "tokenId",
                                "type": "uint256",
                                "value": "2,934"
                            }
                        ],
                        "signature": "Transfer(address,address,uint256)"
                    },
                    "id": 2,
                    "logData": "0x",
                    "logDecoded": true,
                    "operation": "EVENT",
                    "revert": false,
                    "status": true,
                    "topics": [
                        "0xddf252ad1be2c89b69c2b068fc378daa952ba7f163c4a11628f55a4df523b3ef",
                        "0x0000000000000000000000000000000000000000000000000000000000000000",
                        "0x00000000000000000000000012a3f394a47be7093617442d8f2637ced38798d1",
                        "0x0000000000000000000000000000000000000000000000000000000000000b76"
                    ]
                },
                "nodeType": 1
            }
        },
        "gasFlame": [
            {
                "children": [
                    {
                        "children": [
                            {
                                "children": [],
                                "depth": 0,
                                "name": "Initial Gas",
                                "value": 22928
                            },
                            {
                                "children": [
                                    {
                                        "children": [],
                                        "depth": 1,
                                        "name": "ecrecover",
                                        "value": 3000
                                    }
                                ],
                                "depth": 0,
                                "name": "Executed Gas",
                                "value": 166380
                            }
                        ],
                        "depth": -1,
                        "name": "Actual Gas Used",
                        "value": 189308
                    },
                    {
                        "children": [],
                        "depth": -1,
                        "name": "Refunded Gas",
                        "value": 0
                    }
                ],
                "depth": -2,
                "name": "Total Gas",
                "value": 189308
            }
        ],
        "isConfirmed": true,
        "mainTrace": [
            {
                "children": [
                    {
                        "children": [
                            {
                                "children": [],
                                "depth": 1,
                                "id": 1,
                                "order": 1
                            },
                            {
                                "children": [],
                                "depth": 1,
                                "id": 2,
                                "order": 2
                            }
                        ],
                        "depth": 0,
                        "id": 0,
                        "order": 0
                    }
                ],
                "depth": -1,
                "id": -1,
                "order": -1
            }
        ],
        "mainTraceNodeCount": 3,
        "parentIdMap": {
            "0": -1,
            "1": 0,
            "2": 0
        },
        "tidyTrace": [
            {
                "children": [
                    {
                        "children": [
                            {
                                "children": [],
                                "depth": 1,
                                "id": 2,
                                "order": 2
                            }
                        ],
                        "depth": 0,
                        "id": 0,
                        "order": 0
                    }
                ],
                "depth": -1,
                "id": -1,
                "order": -1
            }
        ],
        "tidyTraceNodeCount": 2
    },
    "state_change": {
        "stateChanges": [
            {
                "address": "0xd2f668a8461d6761115daf8aeb3cdf5f40c532c6",
                "erc": "ERC-721",
                "slots": [
                    {
                        "current": "0x0000000000000000000000000000000000000000000000000000000000000b76",
                        "key": "0x000000000000000000000000000000000000000000000000000000000000000d",
                        "prev": "0x0000000000000000000000000000000000000000000000000000000000000b75"
                    },
                    {
                        "current": "0x0000000000000000000000000000000000000000000000000000000000000b76",
                        "key": "0xd7b6990105719101dabeb77144f2a3385c8033acd3af97e9423a695e81ad2a2a",
                        "prev": "0x0000000000000000000000000000000000000000000000000000000000000000"
                    },
                    {
                        "current": "0x0000000000000000000000000000000000000000000000000000000000000b76",
                        "key": "0x6a6c1f4a15b36f93f48d02df9217a7a69be3dbbab8692cf994c854f7897f0037",
                        "prev": "0x0000000000000000000000000000000000000000000000000000000000000000"
                    },
                    {
                        "current": "0x0000000000000000000000000000000000000000000000000000000000000001",
                        "key": "0x7bf7e8a7263ef95e5ecb41e05c0fbfef3b0503c2e4e54ba6a941ca98bba3cd16",
                        "prev": "0x0000000000000000000000000000000000000000000000000000000000000000"
                    },
                    {
                        "current": "0x00000000000000000000000012a3f394a47be7093617442d8f2637ced38798d1",
                        "key": "0xf8528c0685a40f6a510aa455b6d0bc6658622459d707313cab9947e286e8822e",
                        "prev": "0x0000000000000000000000000000000000000000000000000000000000000000"
                    },
                    {
                        "current": "0x0000000000000000000000000000000000000000000000000000000000000001",
                        "key": "0xc04cd517fcb4ef2d52736d370352a4eba90f6d668af94e8c71c93465b7aa2505",
                        "prev": "0x0000000000000000000000000000000000000000000000000000000000000000"
                    },
                    {
                        "current": "0x0000000000000000000000000000000000000000000000000000000000000b75",
                        "key": "0x0000000000000000000000000000000000000000000000000000000000000014",
                        "prev": "0x0000000000000000000000000000000000000000000000000000000000000b74"
                    },
                    {
                        "current": "0x0000000000000000000000000000000000000000000000000000000000000b75",
                        "key": "0x73722d427cc3c7ec43262f480e9fac327ec83b7297b7727ad87e5fc660b86e53",
                        "prev": "0x0000000000000000000000000000000000000000000000000000000000000000"
                    }
                ],
                "storageVariables": [
                    {
                        "name": "_balances",
                        "type": "mapping(address => uint256)",
                        "value": {
                            "pairs": [
                                {
                                    "key": "0x12a3f394a47be7093617442d8f2637ced38798d1",
                                    "value": {
                                        "current": "1",
                                        "prev": "0",
                                        "typeTag": 1
                                    }
                                }
                            ],
                            "typeTag": 4
                        }
                    },
                    {
                        "name": "_owners",
                        "type": "mapping(uint256 => address)",
                        "value": {
                            "pairs": [
                                {
                                    "key": "2934",
                                    "value": {
                                        "current": "0x12a3f394a47be7093617442d8f2637ced38798d1",
                                        "prev": "0x0000000000000000000000000000000000000000",
                                        "typeTag": 1
                                    }
                                }
                            ],
                            "typeTag": 4
                        }
                    },
                    {
                        "name": "preSalesMinterToTokenQty",
                        "type": "mapping(address => uint256)",
                        "value": {
                            "pairs": [
                                {
                                    "key": "0x12a3f394a47be7093617442d8f2637ced38798d1",
                                    "value": {
                                        "current": "1",
                                        "prev": "0",
                                        "typeTag": 1
                                    }
                                }
                            ],
                            "typeTag": 4
                        }
                    },
                    {
                        "name": "preSalesMintedQty",
                        "type": "uint256",
                        "value": {
                            "current": "2933",
                            "prev": "2932",
                            "typeTag": 1
                        }
                    },
                    {
                        "name": "_allTokensIndex",
                        "type": "mapping(uint256 => uint256)",
                        "value": {
                            "pairs": [
                                {
                                    "key": "2934",
                                    "value": {
                                        "current": "2933",
                                        "prev": "0",
                                        "typeTag": 1
                                    }
                                }
                            ],
                            "typeTag": 4
                        }
                    },
                    {
                        "name": "_allTokens",
                        "type": "uint256[]",
                        "value": {
                            "elemType": "uint256",
                            "elems": [
                                {
                                    "index": 2933,
                                    "value": {
                                        "current": "2934",
                                        "prev": "0",
                                        "typeTag": 1
                                    }
                                }
                            ],
                            "typeTag": 2
                        }
                    },
                    {
                        "name": "_ownedTokens",
                        "type": "mapping(address => mapping(uint256 => uint256))",
                        "value": {
                            "pairs": [
                                {
                                    "key": "0x12a3f394a47be7093617442d8f2637ced38798d1",
                                    "value": {
                                        "pairs": [
                                            {
                                                "key": "0",
                                                "value": {
                                                    "current": "2934",
                                                    "prev": "0",
                                                    "typeTag": 1
                                                }
                                            }
                                        ],
                                        "typeTag": 4
                                    }
                                }
                            ],
                            "typeTag": 4
                        }
                    }
                ]
            }
        ]
    }
}