{
    "balance_change": {
        "balanceChanges": [
            {
                "account": "0xaf35a7cb5b141a2c53317e54eb4f20a7f52e0a23",
                "assets": [
                    {
                        "address": "0xba7435a4b4c747e0101780073eeda872a69bdcd4",
                        "amount": "1,674.432646428689574321",
                        "iconUrl": "",
                        "isERC1155": false,
                        "isERC721": false,
                        "sign": false,
                        "value": ""
                    }
                ]
            },
            {
                "account": "0x416e4335fb034d62bac5bd5a0017fa6867a526a8",
                "assets": [
                    {
                        "address": "0xba7435a4b4c747e0101780073eeda872a69bdcd4",
                        "amount": "1,674.432646428689574321",
                        "iconUrl": "",
                        "isERC1155": false,
                        "isERC721": false,
                        "sign": true,
                        "value": ""
                    }
                ]
            }
        ]
    },
    "profile": {
        "basic_info": {
            "baseFee": "",
            "blockNumber": 6592822,
            "callData": "0xa9059cbb000000000000000000000000416e4335fb034d62bac5bd5a0017fa6867a526a800000000000000000000000000000000000000000000005ac56bc4670b4a29b1",
            "debugEnable": true,
            "errorInfo": "",
            "eventCount": 1,
            "feeRecipient": "0xcc16e3c00dbbe76603fa833ec20a48f786dfe610",
            "formatValue": "0",
            "gasLimit": 140009,
            "gasPrice": "0.21",
            "gasUsed": 114099,
            "intTxnCount": 0,
            "internalRevert": false,
            "internalRevertMessage": "",
            "isContractCreation": false,
            "isFlashloan": false,
            "maxFee": "",
            "nonce": 13,
            "overwritedBlockNumber": -1,
            "priorityFee": "",
            "receiver": "0xba7435a4b4c747e0101780073eeda872a69bdcd4",
            "revertMessage": "",
            "sender": "0xaf35a7cb5b141a2c53317e54eb4f20a7f52e0a23",
            "simulationEnable": true,
            "sourceTxnHash": "0x617346dc85e6b6f7711f1641faf364afdc57e4358737caf3cca587ab5d2a70c9",
            "status": true,
            "timestamp": "2018-10-27T11:21:28Z",
            "transactionFee": "0.00002396079",
            "txnHash": "0x617346dc85e6b6f7711f1641faf364afdc57e4358737caf3cca587ab5d2a70c9",
            "txnIndex": 60,
            "type": 0,
            "value": "0"
        },
        "fund_flow": [
            {
                "amount": "1,674.432646428689574321",
                "from": "0xaf35a7cb5b141a2c53317e54eb4f20a7f52e0a23",
                "id": 1,
                "isERC1155": false,
                "isERC721": false,
                "isReverted": false,
                "order": 1,
                "to": "0x416e4335fb034d62bac5bd5a0017fa6867a526a8",
                "token": "0xba7435a4b4c747e0101780073eeda872a69bdcd4"
            }
        ],
        "token_infos": [
            {
                "address": "0xba7435a4b4c747e0101780073eeda872a69bdcd4",
                "decimals": 18
            },
            {
                "address": "0xc02aaa39b223fe8d0a0e5c4f27ead9083c756cc2",
                "decimals": 18
            },
            {
                "address": "0xeeeeeeeeeeeeeeeeeeeeeeeeeeeeeeeeeeeeeeee",
                "decimals": 18
            }
        ]
    },
    "address_label": {
        "labels": [
            {
                "address": "0xeeeeeeeeeeeeeeeeeeeeeeeeeeeeeeeeeeeeeeee",
                "label": "Ether"
            },
            {
                "address": "0xba7435a4b4c747e0101780073eeda872a69bdcd4",
                "label": "Fake_Phishing391767"
            },
            {
                "address": "0x0000000000000000000000000000000000000001",
                "label": "Precompiled"
            },
            {
                "address": "0x0000000000000000000000000000000000000002",
                "label": "Precompiled"
            },
            {
                "address": "0x0000000000000000000000000000000000000003",
                "label": "Precompiled"
            },
            {
                "address": "0x0000000000000000000000000000000000000004",
                "label": "Precompiled"
            }
        ]
    },
    "trace": {
        "accountLabels": null,
        "dataMap": {
            "-1": {
                "invocation": {
                    "address": "0xaf35a7cb5b141a2c53317e54eb4f20a7f52e0a23",
                    "callData": "",
                    "decodedMethod": null,
                    "errorInfo": "",
                    "fromAddress": "",
                    "gasUsed": 0,
                    "id": -1,
                    "methodDecoded": false,
                    "operation": "",
                    "output": "",
                    "revert": false,
                    "revertMessage": "",
                    "selector": "",
                    "status": false,
                    "value": ""
                },
                "nodeType": 0
            },
            "0": {
                "invocation": {
                    "address": "0xba7435a4b4c747e0101780073eeda872a69bdcd4",
                    "callData": "0x000000000000000000000000416e4335fb034d62bac5bd5a0017fa6867a526a800000000000000000000000000000000000000000000005ac56bc4670b4a29b1",
                    "decodedMethod": {
                        "callParams": [
                            {
                                "name": "recipient",
                                "type": "address",
                                "value": "0x416e4335fb034d62bac5bd5a0017fa6867a526a8"
                            },
                            {
                                "decimalAvailable": true,
                                "name": "amount",
                                "type": "uint256",
                                "value": "1,674,432,646,428,689,574,321"
                            }
                        ],
                        "constructorArguments": "",
                        "name": "transfer",
                        "returnParams": [
                            {
                                "name": "",
                                "type": "bool",
                                "value": true
                            }
                        ],
                        "signature": "transfer(address,uint256)"
                    },
                    "errorInfo": "",
                    "fromAddress": "0xaf35a7cb5b141a2c53317e54eb4f20a7f52e0a23",
                    "gasUsed": 114099,
                    "id": 0,
                    "methodDecoded": true,
                    "operation": "CALL",
                    "output": "0x0000000000000000000000000000000000000000000000000000000000000001",
                    "revert": false,
                    "revertMessage": "",
                    "selector": "0xa9059cbb",
                    "status": true,
                    "value": "0"
                },
                "nodeType": 0
            },
            "1": {
                "event": {
                    "contract": "0xba7435a4b4c747e0101780073eeda872a69bdcd4",
                    "decodedLog": {
                        "name": "Transfer",
                        "params": [
                            {
                                "name": "from",
                                "type": "address",
                                "value": "0xaf35a7cb5b141a2c53317e54eb4f20a7f52e0a23"
                            },
                            {
                                "name": "to",
                                "type": "address",
                                "value": "0x416e4335fb034d62bac5bd5a0017fa6867a526a8"
                            },
                            {
                                "decimalAvailable": true,
                                "name": "value",
                                "type": "uint256",
                                "value": "1,674,432,646,428,689,574,321"
                            }
                        ],
                        "signature": "Transfer(address,address,uint256)"
                    },
                    "id": 1,
                    "logData": "0x00000000000000000000000000000000000000000000005ac56bc4670b4a29b1",
                    "logDecoded": true,
                    "operation": "EVENT",
                    "revert": false,
                    "status": true,
                    "topics": [
                        "0xddf252ad1be2c89b69c2b068fc378daa952ba7f163c4a11628f55a4df523b3ef",
                        "0x000000000000000000000000af35a7cb5b141a2c53317e54eb4f20a7f52e0a23",
                        "0x000000000000000000000000416e4335fb034d62bac5bd5a0017fa6867a526a8"
                    ]
                },
                "nodeType": 1
            }
        },
        "gasFlame": [
            {
                "children": [
                    {
                        "children": [
                            {
                                "children": [],
                                "depth": 0,
                                "name": "Initial Gas",
                                "value": 23320
                            },
                            {
                                "children": [],
                                "depth": 0,
                                "name": "Executed Gas",
                                "value": 90779
                            }
                        ],
                        "depth": -1,
                        "name": "Actual Gas Used",
                        "value": 114099
                    },
                    {
                        "children": [],
                        "depth": -1,
                        "name": "Refunded Gas",
                        "value": 0
                    }
                ],
                "depth": -2,
                "name": "Total Gas",
                "value": 114099
            }
        ],
        "isConfirmed": true,
        "mainTrace": [
            {
                "children": [
                    {
                        "children": [
                            {
                                "children": [],
                                "depth": 1,
                                "id": 1,
                                "order": 1
                            }
                        ],
                        "depth": 0,
                        "id": 0,
                        "order": 0
                    }
                ],
                "depth": -1,
                "id": -1,
                "order": -1
            }
        ],
        "mainTraceNodeCount": 2,
        "parentIdMap": {
            "0": -1,
            "1": 0
        },
        "tidyTrace": [
            {
                "children": [
                    {
                        "children": [
                            {
                                "children": [],
                                "depth": 1,
                                "id": 1,
                                "order": 1
                            }
                        ],
                        "depth": 0,
                        "id": 0,
                        "order": 0
                    }
                ],
                "depth": -1,
                "id": -1,
                "order": -1
            }
        ],
        "tidyTraceNodeCount": 2
    },
    "state_change": {
        "stateChanges": [
            {
                "address": "0xba7435a4b4c747e0101780073eeda872a69bdcd4",
                "erc": "",
                "slots": [
                    {
                        "current": "0x0000000000000000000000000000000000000000e90cabd3ec258c95364add2e",
                        "key": "0x0000000000000000000000000000000000000000000000000000000000000004",
                        "prev": "0x0000000000000000000000000000000000000000e90ca9d954bf25b9dd4d5408"
                    },
                    {
                        "current": "0x0000000000000000000000000000000000000000000000000000000000000001",
                        "key": "0x39a6b26917a8a2fefd994be9e3ae22ae8416094409a75320666d18e6939cf6f4",
                        "prev": "0x0000000000000000000000000000000000000000000000000000000000000000"
                    },
                    {
                        "current": "0x000000000000000000000000000000000000000000015a561c0f70b20c7f10e8",
                        "key": "0x040a0cd7641f758a04efe2f611d90e8b2cc67d9e5802d6ab517fce7bfed20194",
                        "prev": "0x0000000000000000000000000000000000000000000158b613e999a7c974e737"
                    },
                    {
                        "current": "0x00000000000000000000000000000000000000000000005a8f428dc4b6771034",
                        "key": "0xf18eeeb02c3daeded0ea8c07241fdb4234371167dedd8d2d61930b31e1f2909c",
                        "prev": "0x0000000000000000000000000000000000000000000000000000000000000000"
                    },
                    {
                        "current": "0x00000000000000000000000000000000000000000000005aaa562a1c109ec493",
                        "key": "0x0000000000000000000000000000000000000000000000000000000000000005",
                        "prev": "0x00000000000000000000000000000000000000000000005aaa58280fb1227552"
                    }
                ],
                "storageVariables": []
            }
        ]
    }
}