{
    "balance_change": {
        "balanceChanges": []
    },
    "profile": {
        "basic_info": {
            "baseFee": "",
            "blockNumber": 9021552,
            "callData": "0xa9059cbb000000000000000000000000711d4882bc7ee63650dee7473b3ecbcbea59330f000000000000000000000000000000000000000000000003db679407f90b0000",
            "debugEnable": true,
            "errorInfo": "execution reverted",
            "eventCount": 0,
            "feeRecipient": "0x005e288d713a5fb3d7c9cf1b43810a98688c7223",
            "formatValue": "0",
            "gasLimit": 90000,
            "gasPrice": "5",
            "gasUsed": 24181,
            "intTxnCount": 0,
            "internalRevert": false,
            "internalRevertMessage": "",
            "isContractCreation": false,
            "isFlashloan": false,
            "maxFee": "",
            "nonce": 375,
            "overwritedBlockNumber": -1,
            "priorityFee": "",
            "receiver": "0xbbe5f5aa4d39d6c3cc1e4f03a1d96adc8940cf3a",
            "revertMessage": "Error",
            "sender": "0x5136ffc6ae0d36a862170facd8bedd05ba2371fe",
            "simulationEnable": true,
            "sourceTxnHash": "0x61a520d3b03904ecaa187a2d9b070f2cfcfee47c18f42f3569919a1558ed98d0",
            "status": false,
            "timestamp": "2019-11-29T14:26:09Z",
            "transactionFee": "0.000120905",
            "txnHash": "0x61a520d3b03904ecaa187a2d9b070f2cfcfee47c18f42f3569919a1558ed98d0",
            "txnIndex": 57,
            "type": 0,
            "value": "0"
        },
        "fund_flow": [],
        "token_infos": [
            {
                "address": "0xc02aaa39b223fe8d0a0e5c4f27ead9083c756cc2",
                "decimals": 18
            },
            {
                "address": "0xeeeeeeeeeeeeeeeeeeeeeeeeeeeeeeeeeeeeeeee",
                "decimals": 18
            }
        ]
    },
    "address_label": {
        "labels": [
            {
                "address": "0x0000000000000000000000000000000000000003",
                "label": "Precompiled"
            },
            {
                "address": "0x0000000000000000000000000000000000000004",
                "label": "Precompiled"
            },
            {
                "address": "0xeeeeeeeeeeeeeeeeeeeeeeeeeeeeeeeeeeeeeeee",
                "label": "Ether"
            },
            {
                "address": "0xbbe5f5aa4d39d6c3cc1e4f03a1d96adc8940cf3a",
                "label": "BICHIP: BICHIP Token"
            },
            {
                "address": "0x0000000000000000000000000000000000000001",
                "label": "Precompiled"
            },
            {
                "address": "0x0000000000000000000000000000000000000002",
                "label": "Precompiled"
            }
        ]
    },
    "trace": {
        "accountLabels": null,
        "dataMap": {
            "-1": {
                "invocation": {
                    "address": "0x5136ffc6ae0d36a862170facd8bedd05ba2371fe",
                    "callData": "",
                    "decodedMethod": null,
                    "errorInfo": "",
                    "fromAddress": "",
                    "gasUsed": 0,
                    "id": -1,
                    "methodDecoded": false,
                    "operation": "",
                    "output": "",
                    "revert": false,
                    "revertMessage": "",
                    "selector": "",
                    "status": false,
                    "value": ""
                },
                "nodeType": 0
            },
            "0": {
                "invocation": {
                    "address": "0xbbe5f5aa4d39d6c3cc1e4f03a1d96adc8940cf3a",
                    "callData": "0x000000000000000000000000711d4882bc7ee63650dee7473b3ecbcbea59330f000000000000000000000000000000000000000000000003db679407f90b0000",
                    "decodedMethod": {
                        "callParams": [
                            {
                                "name": "to",
                                "type": "address",
                                "value": "0x711d4882bc7ee63650dee7473b3ecbcbea59330f"
                            },
                            {
                                "decimalAvailable": true,
                                "name": "tokens",
                                "type": "uint256",
                                "value": "71,150,000,000,000,000,000"
                            }
                        ],
                        "constructorArguments": "",
                        "name": "transfer",
                        "returnParams": [],
                        "signature": "transfer(address,uint256)"
                    },
                    "errorInfo": "execution reverted",
                    "fromAddress": "0x5136ffc6ae0d36a862170facd8bedd05ba2371fe",
                    "gasUsed": 24181,
                    "id": 0,
                    "methodDecoded": true,
                    "operation": "CALL",
                    "output": "0x08c379a0000000000000000000000000000000000000000000000000000000000000002000000000000000000000000000000000000000000000000000000000000000054572726f72000000000000000000000000000000000000000000000000000000",
                    "revert": true,
                    "revertMessage": "Error",
                    "selector": "0xa9059cbb",
                    "status": false,
                    "value": "0"
                },
                "nodeType": 0
            }
        },
        "gasFlame": [
            {
                "children": [
                    {
                        "children": [
                            {
                                "children": [],
                                "depth": 0,
                                "name": "Initial Gas",
                                "value": 23256
                            },
                            {
                                "children": [],
                                "depth": 0,
                                "name": "Executed Gas",
                                "value": 925
                            }
                        ],
                        "depth": -1,
                        "name": "Actual Gas Used",
                        "value": 24181
                    },
                    {
                        "children": [],
                        "depth": -1,
                        "name": "Refunded Gas",
                        "value": 0
                    }
                ],
                "depth": -2,
                "name": "Total Gas",
                "value": 24181
            }
        ],
        "isConfirmed": true,
        "mainTrace": [
            {
                "children": [
                    {
                        "children": [],
                        "depth": 0,
                        "id": 0,
                        "order": 0
                    }
                ],
                "depth": -1,
                "id": -1,
                "order": -1
            }
        ],
        "mainTraceNodeCount": 1,
        "parentIdMap": {
            "0": -1
        },
        "tidyTrace": [
            {
                "children": [
                    {
                        "children": [],
                        "depth": 0,
                        "id": 0,
                        "order": 0
                    }
                ],
                "depth": -1,
                "id": -1,
                "order": -1
            }
        ],
        "tidyTraceNodeCount": 1
    },
    "state_change": {
        "stateChanges": []
    }
}