{
    "balance_change": {
        "balanceChanges": [
            {
                "account": "0x94751b53207fdd18862746450212f1102574a1eb",
                "assets": [
                    {
                        "address": "0x26244ac420e63d44d9470d3e27670fe1895a9580",
                        "amount": "36,239.950331091790831754",
                        "iconUrl": "",
                        "isERC1155": false,
                        "isERC721": false,
                        "sign": false,
                        "value": "2496.151227"
                    },
                    {
                        "address": "0x6b782a7dc11753ccfae344cea7b2b3ea9aa7797c",
                        "amount": "921,195,374.910416564417657279",
                        "iconUrl": "",
                        "isERC1155": false,
                        "isERC721": false,
                        "sign": true,
                        "value": "1232.994058"
                    },
                    {
                        "address": "0xc02aaa39b223fe8d0a0e5c4f27ead9083c756cc2",
                        "amount": "1.440876969923949671",
                        "iconUrl": "https://assets.blocksec.com/icon/f1cb2d02c471d545bbc7722daf3277fd852d98e63d118771af7047bd8256c516.png",
                        "isERC1155": false,
                        "isERC721": false,
                        "sign": true,
                        "value": "2367.161568252771367"
                    }
                ]
            },
            {
                "account": "0x0000000000000000000000000000000000000000",
                "assets": [
                    {
                        "address": "0x26244ac420e63d44d9470d3e27670fe1895a9580",
                        "amount": "36,239.950331091790831754",
                        "iconUrl": "",
                        "isERC1155": false,
                        "isERC721": false,
                        "sign": true,
                        "value": "2496.151227"
                    }
                ]
            },
            {
                "account": "0x26244ac420e63d44d9470d3e27670fe1895a9580",
                "assets": [
                    {
                        "address": "0x6b782a7dc11753ccfae344cea7b2b3ea9aa7797c",
                        "amount": "921,195,374.910416564417657279",
                        "iconUrl": "",
                        "isERC1155": false,
                        "isERC721": false,
                        "sign": false,
                        "value": "1232.994058"
                    },
                    {
                        "address": "0xc02aaa39b223fe8d0a0e5c4f27ead9083c756cc2",
                        "amount": "1.440876969923949671",
                        "iconUrl": "https://assets.blocksec.com/icon/f1cb2d02c471d545bbc7722daf3277fd852d98e63d118771af7047bd8256c516.png",
                        "isERC1155": false,
                        "isERC721": false,
                        "sign": false,
                        "value": "2367.161568252771367"
                    }
                ]
            }
        ]
    },
    "profile": {
        "basic_info": {
            "baseFee": "27.612400364",
            "blockNumber": 16639193,
            "callData": "0x2195995c0000000000000000000000006b782a7dc11753ccfae344cea7b2b3ea9aa7797c000000000000000000000000c02aaa39b223fe8d0a0e5c4f27ead9083c756cc20000000000000000000000000000000000000000000007ac925742a45e0fa08a000000000000000000000000000000000000000001849e0faeb2ea915b7c099c0000000000000000000000000000000000000000000000000a32b3af4a40b07c00000000000000000000000094751b53207fdd18862746450212f1102574a1eb0000000000000000000000000000000000000000000000000000000063edc9ef0000000000000000000000000000000000000000000000000000000000000000000000000000000000000000000000000000000000000000000000000000001c73973ba00c278a1b3009ccc3b8f4082feb6f805e63b6a8a14bec8e37b549c37d2d0aac5cec4a304427ffb0657aa1ca7187742a989c4d07bbc2b63127a4b2ec58",
            "debugEnable": true,
            "errorInfo": "",
            "eventCount": 7,
            "feeRecipient": "0x690b9a9e9aa1c9db991c7721a92d351db4fac990",
            "formatValue": "0",
            "gasLimit": 304707,
            "gasPrice": "28.612400364",
            "gasUsed": 202760,
            "intTxnCount": 11,
            "internalRevert": false,
            "internalRevertMessage": "",
            "isContractCreation": false,
            "isFlashloan": false,
            "maxFee": "37.550334559",
            "nonce": 37,
            "overwritedBlockNumber": -1,
            "priorityFee": "1",
            "receiver": "0x7a250d5630b4cf539739df2c5dacb4c659f2488d",
            "revertMessage": "",
            "sender": "0x94751b53207fdd18862746450212f1102574a1eb",
            "simulationEnable": true,
            "sourceTxnHash": "0x6173cbcf8ee7cce54cda1ae60101e0c5e19ccca34c388c1504bd5585471f342d",
            "status": true,
            "timestamp": "2023-02-16T05:25:47Z",
            "transactionFee": "0.00580145029780464",
            "txnHash": "0x6173cbcf8ee7cce54cda1ae60101e0c5e19ccca34c388c1504bd5585471f342d",
            "txnIndex": 152,
            "type": 2,
            "value": "0"
        },
        "fund_flow": [
            {
                "amount": "36,239.950331091790831754",
                "from": "0x94751b53207fdd18862746450212f1102574a1eb",
                "id": 1,
                "isERC1155": false,
                "isERC721": false,
                "isReverted": false,
                "order": 1,
                "to": "0x26244ac420e63d44d9470d3e27670fe1895a9580",
                "token": "0x26244ac420e63d44d9470d3e27670fe1895a9580"
            },
            {
                "amount": "36,239.950331091790831754",
                "from": "0x26244ac420e63d44d9470d3e27670fe1895a9580",
                "id": 2,
                "isERC1155": false,
                "isERC721": false,
                "isReverted": false,
                "order": 2,
                "to": "0x0000000000000000000000000000000000000000",
                "token": "0x26244ac420e63d44d9470d3e27670fe1895a9580"
            },
            {
                "amount": "921,195,374.910416564417657279",
                "from": "0x26244ac420e63d44d9470d3e27670fe1895a9580",
                "id": 3,
                "isERC1155": false,
                "isERC721": false,
                "isReverted": false,
                "order": 3,
                "to": "0x94751b53207fdd18862746450212f1102574a1eb",
                "token": "0x6b782a7dc11753ccfae344cea7b2b3ea9aa7797c"
            },
            {
                "amount": "1.440876969923949671",
                "from": "0x26244ac420e63d44d9470d3e27670fe1895a9580",
                "id": 4,
                "isERC1155": false,
                "isERC721": false,
                "isReverted": false,
                "order": 4,
                "to": "0x94751b53207fdd18862746450212f1102574a1eb",
                "token": "0xc02aaa39b223fe8d0a0e5c4f27ead9083c756cc2"
            }
        ],
        "token_infos": [
            {
                "address": "0xc02aaa39b223fe8d0a0e5c4f27ead9083c756cc2",
                "decimals": 18
            },
            {
                "address": "0xeeeeeeeeeeeeeeeeeeeeeeeeeeeeeeeeeeeeeeee",
                "decimals": 18
            },
            {
                "address": "0x26244ac420e63d44d9470d3e27670fe1895a9580",
                "decimals": 18
            },
            {
                "address": "0x6b782a7dc11753ccfae344cea7b2b3ea9aa7797c",
                "decimals": 18
            }
        ]
    },
    "address_label": {
        "labels": [
            {
                "address": "0x0000000000000000000000000000000000000001",
                "label": "Precompiled"
            },
            {
                "address": "0x0000000000000000000000000000000000000002",
                "label": "Precompiled"
            },
            {
                "address": "0x0000000000000000000000000000000000000003",
                "label": "Precompiled"
            },
            {
                "address": "0xeeeeeeeeeeeeeeeeeeeeeeeeeeeeeeeeeeeeeeee",
                "label": "Ether"
            },
            {
                "address": "0x26244ac420e63d44d9470d3e27670fe1895a9580",
                "label": "Uniswap V2: $SquiDab"
            },
            {
                "address": "0x5c69bee701ef814a2b6a3edd4b1652cb9cc5aa6f",
                "label": "Uniswap V2: Factory Contract"
            },
            {
                "address": "0x6b782a7dc11753ccfae344cea7b2b3ea9aa7797c",
                "label": "$SquiDab"
            },
            {
                "address": "0x0000000000000000000000000000000000000004",
                "label": "Precompiled"
            },
            {
                "address": "0x7a250d5630b4cf539739df2c5dacb4c659f2488d",
                "label": "Uniswap V2: Router 2"
            },
            {
                "address": "0xc02aaa39b223fe8d0a0e5c4f27ead9083c756cc2",
                "label": "Wrapped Ether (WETH)"
            },
            {
                "address": "0x0000000000000000000000000000000000000000",
                "label": "Null Address"
            }
        ]
    },
    "trace": {
        "accountLabels": null,
        "dataMap": {
            "-1": {
                "invocation": {
                    "address": "0x94751b53207fdd18862746450212f1102574a1eb",
                    "callData": "",
                    "decodedMethod": null,
                    "errorInfo": "",
                    "fromAddress": "",
                    "gasUsed": 0,
                    "id": -1,
                    "methodDecoded": false,
                    "operation": "",
                    "output": "",
                    "revert": false,
                    "revertMessage": "",
                    "selector": "",
                    "status": false,
                    "value": ""
                },
                "nodeType": 0
            },
            "0": {
                "invocation": {
                    "address": "0x7a250d5630b4cf539739df2c5dacb4c659f2488d",
                    "callData": "0x0000000000000000000000006b782a7dc11753ccfae344cea7b2b3ea9aa7797c000000000000000000000000c02aaa39b223fe8d0a0e5c4f27ead9083c756cc20000000000000000000000000000000000000000000007ac925742a45e0fa08a000000000000000000000000000000000000000001849e0faeb2ea915b7c099c0000000000000000000000000000000000000000000000000a32b3af4a40b07c00000000000000000000000094751b53207fdd18862746450212f1102574a1eb0000000000000000000000000000000000000000000000000000000063edc9ef0000000000000000000000000000000000000000000000000000000000000000000000000000000000000000000000000000000000000000000000000000001c73973ba00c278a1b3009ccc3b8f4082feb6f805e63b6a8a14bec8e37b549c37d2d0aac5cec4a304427ffb0657aa1ca7187742a989c4d07bbc2b63127a4b2ec58",
                    "decodedMethod": {
                        "callParams": [
                            {
                                "name": "tokenA",
                                "type": "address",
                                "value": "0x6b782a7dc11753ccfae344cea7b2b3ea9aa7797c"
                            },
                            {
                                "name": "tokenB",
                                "type": "address",
                                "value": "0xc02aaa39b223fe8d0a0e5c4f27ead9083c756cc2"
                            },
                            {
                                "name": "liquidity",
                                "type": "uint256",
                                "value": "36,239,950,331,091,790,831,754"
                            },
                            {
                                "name": "amountAMin",
                                "type": "uint256",
                                "value": "469,809,641,204,312,447,853,005,212"
                            },
                            {
                                "name": "amountBMin",
                                "type": "uint256",
                                "value": "734,847,254,661,214,332"
                            },
                            {
                                "name": "to",
                                "type": "address",
                                "value": "0x94751b53207fdd18862746450212f1102574a1eb"
                            },
                            {
                                "name": "deadline",
                                "type": "uint256",
                                "value": "1,676,528,111"
                            },
                            {
                                "name": "approveMax",
                                "type": "bool",
                                "value": false
                            },
                            {
                                "name": "v",
                                "type": "uint8",
                                "value": "28"
                            },
                            {
                                "name": "r",
                                "type": "bytes32",
                                "value": "0x73973ba00c278a1b3009ccc3b8f4082feb6f805e63b6a8a14bec8e37b549c37d"
                            },
                            {
                                "name": "s",
                                "type": "bytes32",
                                "value": "0x2d0aac5cec4a304427ffb0657aa1ca7187742a989c4d07bbc2b63127a4b2ec58"
                            }
                        ],
                        "constructorArguments": "",
                        "name": "removeLiquidityWithPermit",
                        "returnParams": [
                            {
                                "name": "amountA",
                                "type": "uint256",
                                "value": "921,195,374,910,416,564,417,657,279"
                            },
                            {
                                "name": "amountB",
                                "type": "uint256",
                                "value": "1,440,876,969,923,949,671"
                            }
                        ],
                        "signature": "removeLiquidityWithPermit(address,address,uint256,uint256,uint256,address,uint256,bool,uint8,bytes32,bytes32)"
                    },
                    "errorInfo": "",
                    "fromAddress": "0x94751b53207fdd18862746450212f1102574a1eb",
                    "gasUsed": 202760,
                    "id": 0,
                    "methodDecoded": true,
                    "operation": "CALL",
                    "output": "0x000000000000000000000000000000000000000002f9feb5568bfe2208b6f9bf00000000000000000000000000000000000000000000000013ff05f8555bb467",
                    "revert": false,
                    "revertMessage": "",
                    "selector": "0x2195995c",
                    "status": true,
                    "value": "0"
                },
                "nodeType": 0
            },
            "1": {
                "invocation": {
                    "address": "0x26244ac420e63d44d9470d3e27670fe1895a9580",
                    "callData": "0x00000000000000000000000094751b53207fdd18862746450212f1102574a1eb0000000000000000000000007a250d5630b4cf539739df2c5dacb4c659f2488d0000000000000000000000000000000000000000000007ac925742a45e0fa08a0000000000000000000000000000000000000000000000000000000063edc9ef000000000000000000000000000000000000000000000000000000000000001c73973ba00c278a1b3009ccc3b8f4082feb6f805e63b6a8a14bec8e37b549c37d2d0aac5cec4a304427ffb0657aa1ca7187742a989c4d07bbc2b63127a4b2ec58",
                    "decodedMethod": {
                        "callParams": [
                            {
                                "name": "owner",
                                "type": "address",
                                "value": "0x94751b53207fdd18862746450212f1102574a1eb"
                            },
                            {
                                "name": "spender",
                                "type": "address",
                                "value": "0x7a250d5630b4cf539739df2c5dacb4c659f2488d"
                            },
                            {
                                "name": "value",
                                "type": "uint256",
                                "value": "36,239,950,331,091,790,831,754"
                            },
                            {
                                "name": "deadline",
                                "type": "uint256",
                                "value": "1,676,528,111"
                            },
                            {
                                "name": "v",
                                "type": "uint8",
                                "value": "28"
                            },
                            {
                                "name": "r",
                                "type": "bytes32",
                                "value": "0x73973ba00c278a1b3009ccc3b8f4082feb6f805e63b6a8a14bec8e37b549c37d"
                            },
                            {
                                "name": "s",
                                "type": "bytes32",
                                "value": "0x2d0aac5cec4a304427ffb0657aa1ca7187742a989c4d07bbc2b63127a4b2ec58"
                            }
                        ],
                        "constructorArguments": "",
                        "name": "permit",
                        "returnParams": [],
                        "signature": "permit(address,address,uint256,uint256,uint8,bytes32,bytes32)"
                    },
                    "errorInfo": "",
                    "fromAddress": "0x7a250d5630b4cf539739df2c5dacb4c659f2488d",
                    "gasUsed": 52702,
                    "id": 1,
                    "methodDecoded": true,
                    "operation": "CALL",
                    "output": "",
                    "revert": false,
                    "revertMessage": "",
                    "selector": "0xd505accf",
                    "status": true,
                    "value": "0"
                },
                "nodeType": 0
            },
            "10": {
                "event": {
                    "contract": "0x26244ac420e63d44d9470d3e27670fe1895a9580",
                    "decodedLog": {
                        "name": "Transfer",
                        "params": [
                            {
                                "name": "from",
                                "type": "address",
                                "value": "0x26244ac420e63d44d9470d3e27670fe1895a9580"
                            },
                            {
                                "name": "to",
                                "type": "address",
                                "value": "0x0000000000000000000000000000000000000000"
                            },
                            {
                                "decimalAvailable": true,
                                "name": "value",
                                "type": "uint256",
                                "value": "36,239,950,331,091,790,831,754"
                            }
                        ],
                        "signature": "Transfer(address,address,uint256)"
                    },
                    "id": 10,
                    "logData": "0x0000000000000000000000000000000000000000000007ac925742a45e0fa08a",
                    "logDecoded": true,
                    "operation": "EVENT",
                    "revert": false,
                    "status": true,
                    "topics": [
                        "0xddf252ad1be2c89b69c2b068fc378daa952ba7f163c4a11628f55a4df523b3ef",
                        "0x00000000000000000000000026244ac420e63d44d9470d3e27670fe1895a9580",
                        "0x0000000000000000000000000000000000000000000000000000000000000000"
                    ]
                },
                "nodeType": 1
            },
            "11": {
                "invocation": {
                    "address": "0x6b782a7dc11753ccfae344cea7b2b3ea9aa7797c",
                    "callData": "0x00000000000000000000000094751b53207fdd18862746450212f1102574a1eb000000000000000000000000000000000000000002f9feb5568bfe2208b6f9bf",
                    "decodedMethod": {
                        "callParams": [
                            {
                                "name": "recipient",
                                "type": "address",
                                "value": "0x94751b53207fdd18862746450212f1102574a1eb"
                            },
                            {
                                "decimalAvailable": true,
                                "name": "amount",
                                "type": "uint256",
                                "value": "921,195,374,910,416,564,417,657,279"
                            }
                        ],
                        "constructorArguments": "",
                        "name": "transfer",
                        "returnParams": [
                            {
                                "name": "",
                                "type": "bool",
                                "value": true
                            }
                        ],
                        "signature": "transfer(address,uint256)"
                    },
                    "errorInfo": "",
                    "fromAddress": "0x26244ac420e63d44d9470d3e27670fe1895a9580",
                    "gasUsed": 46374,
                    "id": 11,
                    "methodDecoded": true,
                    "operation": "CALL",
                    "output": "0x0000000000000000000000000000000000000000000000000000000000000001",
                    "revert": false,
                    "revertMessage": "",
                    "selector": "0xa9059cbb",
                    "status": true,
                    "value": "0"
                },
                "nodeType": 0
            },
            "12": {
                "event": {
                    "contract": "0x6b782a7dc11753ccfae344cea7b2b3ea9aa7797c",
                    "decodedLog": {
                        "name": "Transfer",
                        "params": [
                            {
                                "name": "from",
                                "type": "address",
                                "value": "0x26244ac420e63d44d9470d3e27670fe1895a9580"
                            },
                            {
                                "name": "to",
                                "type": "address",
                                "value": "0x94751b53207fdd18862746450212f1102574a1eb"
                            },
                            {
                                "decimalAvailable": true,
                                "name": "value",
                                "type": "uint256",
                                "value": "921,195,374,910,416,564,417,657,279"
                            }
                        ],
                        "signature": "Transfer(address,address,uint256)"
                    },
                    "id": 12,
                    "logData": "0x000000000000000000000000000000000000000002f9feb5568bfe2208b6f9bf",
                    "logDecoded": true,
                    "operation": "EVENT",
                    "revert": false,
                    "status": true,
                    "topics": [
                        "0xddf252ad1be2c89b69c2b068fc378daa952ba7f163c4a11628f55a4df523b3ef",
                        "0x00000000000000000000000026244ac420e63d44d9470d3e27670fe1895a9580",
                        "0x00000000000000000000000094751b53207fdd18862746450212f1102574a1eb"
                    ]
                },
                "nodeType": 1
            },
            "13": {
                "invocation": {
                    "address": "0xc02aaa39b223fe8d0a0e5c4f27ead9083c756cc2",
                    "callData": "0x00000000000000000000000094751b53207fdd18862746450212f1102574a1eb00000000000000000000000000000000000000000000000013ff05f8555bb467",
                    "decodedMethod": {
                        "callParams": [
                            {
                                "name": "dst",
                                "type": "address",
                                "value": "0x94751b53207fdd18862746450212f1102574a1eb"
                            },
                            {
                                "decimalAvailable": true,
                                "name": "wad",
                                "type": "uint256",
                                "value": "1,440,876,969,923,949,671"
                            }
                        ],
                        "constructorArguments": "",
                        "name": "transfer",
                        "returnParams": [
                            {
                                "name": "",
                                "type": "bool",
                                "value": true
                            }
                        ],
                        "signature": "transfer(address,uint256)"
                    },
                    "errorInfo": "",
                    "fromAddress": "0x26244ac420e63d44d9470d3e27670fe1895a9580",
                    "gasUsed": 27962,
                    "id": 13,
                    "methodDecoded": true,
                    "operation": "CALL",
                    "output": "0x0000000000000000000000000000000000000000000000000000000000000001",
                    "revert": false,
                    "revertMessage": "",
                    "selector": "0xa9059cbb",
                    "status": true,
                    "value": "0"
                },
                "nodeType": 0
            },
            "14": {
                "event": {
                    "contract": "0xc02aaa39b223fe8d0a0e5c4f27ead9083c756cc2",
                    "decodedLog": {
                        "name": "Transfer",
                        "params": [
                            {
                                "name": "src",
                                "type": "address",
                                "value": "0x26244ac420e63d44d9470d3e27670fe1895a9580"
                            },
                            {
                                "name": "dst",
                                "type": "address",
                                "value": "0x94751b53207fdd18862746450212f1102574a1eb"
                            },
                            {
                                "decimalAvailable": true,
                                "name": "wad",
                                "type": "uint256",
                                "value": "1,440,876,969,923,949,671"
                            }
                        ],
                        "signature": "Transfer(address,address,uint256)"
                    },
                    "id": 14,
                    "logData": "0x00000000000000000000000000000000000000000000000013ff05f8555bb467",
                    "logDecoded": true,
                    "operation": "EVENT",
                    "revert": false,
                    "status": true,
                    "topics": [
                        "0xddf252ad1be2c89b69c2b068fc378daa952ba7f163c4a11628f55a4df523b3ef",
                        "0x00000000000000000000000026244ac420e63d44d9470d3e27670fe1895a9580",
                        "0x00000000000000000000000094751b53207fdd18862746450212f1102574a1eb"
                    ]
                },
                "nodeType": 1
            },
            "15": {
                "invocation": {
                    "address": "0x6b782a7dc11753ccfae344cea7b2b3ea9aa7797c",
                    "callData": "0x00000000000000000000000026244ac420e63d44d9470d3e27670fe1895a9580",
                    "decodedMethod": {
                        "callParams": [
                            {
                                "name": "account",
                                "type": "address",
                                "value": "0x26244ac420e63d44d9470d3e27670fe1895a9580"
                            }
                        ],
                        "constructorArguments": "",
                        "name": "balanceOf",
                        "returnParams": [
                            {
                                "decimalAvailable": true,
                                "name": "",
                                "type": "uint256",
                                "value": "20,596,618,007,085,805,777,370,163"
                            }
                        ],
                        "signature": "balanceOf(address)"
                    },
                    "errorInfo": "",
                    "fromAddress": "0x26244ac420e63d44d9470d3e27670fe1895a9580",
                    "gasUsed": 668,
                    "id": 15,
                    "methodDecoded": true,
                    "operation": "STATICCALL",
                    "output": "0x000000000000000000000000000000000000000000110980e642cd6db036bc33",
                    "revert": false,
                    "revertMessage": "",
                    "selector": "0x70a08231",
                    "status": true,
                    "value": "0"
                },
                "nodeType": 0
            },
            "16": {
                "invocation": {
                    "address": "0xc02aaa39b223fe8d0a0e5c4f27ead9083c756cc2",
                    "callData": "0x00000000000000000000000026244ac420e63d44d9470d3e27670fe1895a9580",
                    "decodedMethod": {
                        "callParams": [
                            {
                                "name": "",
                                "type": "address",
                                "value": "0x26244ac420e63d44d9470d3e27670fe1895a9580"
                            }
                        ],
                        "constructorArguments": "",
                        "name": "balanceOf",
                        "returnParams": [
                            {
                                "decimalAvailable": true,
                                "name": "",
                                "type": "uint256",
                                "value": "32,215,959,125,518,701"
                            }
                        ],
                        "signature": "balanceOf(address)"
                    },
                    "errorInfo": "",
                    "fromAddress": "0x26244ac420e63d44d9470d3e27670fe1895a9580",
                    "gasUsed": 534,
                    "id": 16,
                    "methodDecoded": true,
                    "operation": "STATICCALL",
                    "output": "0x0000000000000000000000000000000000000000000000000072743e7fc6696d",
                    "revert": false,
                    "revertMessage": "",
                    "selector": "0x70a08231",
                    "status": true,
                    "value": "0"
                },
                "nodeType": 0
            },
            "17": {
                "event": {
                    "contract": "0x26244ac420e63d44d9470d3e27670fe1895a9580",
                    "decodedLog": {
                        "name": "Sync",
                        "params": [
                            {
                                "name": "reserve0",
                                "type": "uint112",
                                "value": "20,596,618,007,085,805,777,370,163"
                            },
                            {
                                "name": "reserve1",
                                "type": "uint112",
                                "value": "32,215,959,125,518,701"
                            }
                        ],
                        "signature": "Sync(uint112,uint112)"
                    },
                    "id": 17,
                    "logData": "0x000000000000000000000000000000000000000000110980e642cd6db036bc330000000000000000000000000000000000000000000000000072743e7fc6696d",
                    "logDecoded": true,
                    "operation": "EVENT",
                    "revert": false,
                    "status": true,
                    "topics": [
                        "0x1c411e9a96e071241c2f21f7726b17ae89e3cab4c78be50e062b03a9fffbbad1"
                    ]
                },
                "nodeType": 1
            },
            "18": {
                "event": {
                    "contract": "0x26244ac420e63d44d9470d3e27670fe1895a9580",
                    "decodedLog": {
                        "name": "Burn",
                        "params": [
                            {
                                "name": "sender",
                                "type": "address",
                                "value": "0x7a250d5630b4cf539739df2c5dacb4c659f2488d"
                            },
                            {
                                "name": "to",
                                "type": "address",
                                "value": "0x94751b53207fdd18862746450212f1102574a1eb"
                            },
                            {
                                "name": "amount0",
                                "type": "uint256",
                                "value": "921,195,374,910,416,564,417,657,279"
                            },
                            {
                                "name": "amount1",
                                "type": "uint256",
                                "value": "1,440,876,969,923,949,671"
                            }
                        ],
                        "signature": "Burn(address,uint256,uint256,address)"
                    },
                    "id": 18,
                    "logData": "0x000000000000000000000000000000000000000002f9feb5568bfe2208b6f9bf00000000000000000000000000000000000000000000000013ff05f8555bb467",
                    "logDecoded": true,
                    "operation": "EVENT",
                    "revert": false,
                    "status": true,
                    "topics": [
                        "0xdccd412f0b1252819cb1fd330b93224ca42612892bb3f4f789976e6d81936496",
                        "0x0000000000000000000000007a250d5630b4cf539739df2c5dacb4c659f2488d",
                        "0x00000000000000000000000094751b53207fdd18862746450212f1102574a1eb"
                    ]
                },
                "nodeType": 1
            },
            "2": {
                "invocation": {
                    "address": "0x0000000000000000000000000000000000000001",
                    "callData": "0x29e890c33b2aa64f75d0f75974aec2428f91c8cea3cf86db2896afdb000000000000000000000000000000000000000000000000000000000000001c73973ba00c278a1b3009ccc3b8f4082feb6f805e63b6a8a14bec8e37b549c37d2d0aac5cec4a304427ffb0657aa1ca7187742a989c4d07bbc2b63127a4b2ec58",
                    "decodedMethod": {
                        "callParams": [
                            {
                                "name": "hash",
                                "type": "bytes32",
                                "value": "0xbe38b80629e890c33b2aa64f75d0f75974aec2428f91c8cea3cf86db2896afdb"
                            },
                            {
                                "name": "v",
                                "type": "uint256",
                                "value": "28"
                            },
                            {
                                "name": "r",
                                "type": "bytes32",
                                "value": "0x73973ba00c278a1b3009ccc3b8f4082feb6f805e63b6a8a14bec8e37b549c37d"
                            },
                            {
                                "name": "s",
                                "type": "bytes32",
                                "value": "0x2d0aac5cec4a304427ffb0657aa1ca7187742a989c4d07bbc2b63127a4b2ec58"
                            }
                        ],
                        "constructorArguments": "",
                        "name": "ecrecover",
                        "returnParams": [
                            {
                                "name": "",
                                "type": "address",
                                "value": "0x94751b53207fdd18862746450212f1102574a1eb"
                            }
                        ],
                        "signature": "ecrecover(bytes32,uint256,bytes32,bytes32)"
                    },
                    "errorInfo": "",
                    "fromAddress": "0x26244ac420e63d44d9470d3e27670fe1895a9580",
                    "gasUsed": 3000,
                    "id": 2,
                    "methodDecoded": true,
                    "operation": "STATICCALL",
                    "output": "0x00000000000000000000000094751b53207fdd18862746450212f1102574a1eb",
                    "revert": false,
                    "revertMessage": "",
                    "selector": "0xbe38b806",
                    "status": true,
                    "value": "0"
                },
                "nodeType": 0
            },
            "3": {
                "event": {
                    "contract": "0x26244ac420e63d44d9470d3e27670fe1895a9580",
                    "decodedLog": {
                        "name": "Approval",
                        "params": [
                            {
                                "name": "owner",
                                "type": "address",
                                "value": "0x94751b53207fdd18862746450212f1102574a1eb"
                            },
                            {
                                "name": "spender",
                                "type": "address",
                                "value": "0x7a250d5630b4cf539739df2c5dacb4c659f2488d"
                            },
                            {
                                "decimalAvailable": true,
                                "name": "value",
                                "type": "uint256",
                                "value": "36,239,950,331,091,790,831,754"
                            }
                        ],
                        "signature": "Approval(address,address,uint256)"
                    },
                    "id": 3,
                    "logData": "0x0000000000000000000000000000000000000000000007ac925742a45e0fa08a",
                    "logDecoded": true,
                    "operation": "EVENT",
                    "revert": false,
                    "status": true,
                    "topics": [
                        "0x8c5be1e5ebec7d5bd14f71427d1e84f3dd0314c0f7b2291e5b200ac8c7c3b925",
                        "0x00000000000000000000000094751b53207fdd18862746450212f1102574a1eb",
                        "0x0000000000000000000000007a250d5630b4cf539739df2c5dacb4c659f2488d"
                    ]
                },
                "nodeType": 1
            },
            "4": {
                "invocation": {
                    "address": "0x26244ac420e63d44d9470d3e27670fe1895a9580",
                    "callData": "0x00000000000000000000000094751b53207fdd18862746450212f1102574a1eb00000000000000000000000026244ac420e63d44d9470d3e27670fe1895a95800000000000000000000000000000000000000000000007ac925742a45e0fa08a",
                    "decodedMethod": {
                        "callParams": [
                            {
                                "name": "from",
                                "type": "address",
                                "value": "0x94751b53207fdd18862746450212f1102574a1eb"
                            },
                            {
                                "name": "to",
                                "type": "address",
                                "value": "0x26244ac420e63d44d9470d3e27670fe1895a9580"
                            },
                            {
                                "decimalAvailable": true,
                                "name": "value",
                                "type": "uint256",
                                "value": "36,239,950,331,091,790,831,754"
                            }
                        ],
                        "constructorArguments": "",
                        "name": "transferFrom",
                        "returnParams": [
                            {
                                "name": "",
                                "type": "bool",
                                "value": true
                            }
                        ],
                        "signature": "transferFrom(address,address,uint256)"
                    },
                    "errorInfo": "",
                    "fromAddress": "0x7a250d5630b4cf539739df2c5dacb4c659f2488d",
                    "gasUsed": 30649,
                    "id": 4,
                    "methodDecoded": true,
                    "operation": "CALL",
                    "output": "0x0000000000000000000000000000000000000000000000000000000000000001",
                    "revert": false,
                    "revertMessage": "",
                    "selector": "0x23b872dd",
                    "status": true,
                    "value": "0"
                },
                "nodeType": 0
            },
            "5": {
                "event": {
                    "contract": "0x26244ac420e63d44d9470d3e27670fe1895a9580",
                    "decodedLog": {
                        "name": "Transfer",
                        "params": [
                            {
                                "name": "from",
                                "type": "address",
                                "value": "0x94751b53207fdd18862746450212f1102574a1eb"
                            },
                            {
                                "name": "to",
                                "type": "address",
                                "value": "0x26244ac420e63d44d9470d3e27670fe1895a9580"
                            },
                            {
                                "decimalAvailable": true,
                                "name": "value",
                                "type": "uint256",
                                "value": "36,239,950,331,091,790,831,754"
                            }
                        ],
                        "signature": "Transfer(address,address,uint256)"
                    },
                    "id": 5,
                    "logData": "0x0000000000000000000000000000000000000000000007ac925742a45e0fa08a",
                    "logDecoded": true,
                    "operation": "EVENT",
                    "revert": false,
                    "status": true,
                    "topics": [
                        "0xddf252ad1be2c89b69c2b068fc378daa952ba7f163c4a11628f55a4df523b3ef",
                        "0x00000000000000000000000094751b53207fdd18862746450212f1102574a1eb",
                        "0x00000000000000000000000026244ac420e63d44d9470d3e27670fe1895a9580"
                    ]
                },
                "nodeType": 1
            },
            "6": {
                "invocation": {
                    "address": "0x26244ac420e63d44d9470d3e27670fe1895a9580",
                    "callData": "0x00000000000000000000000094751b53207fdd18862746450212f1102574a1eb",
                    "decodedMethod": {
                        "callParams": [
                            {
                                "name": "to",
                                "type": "address",
                                "value": "0x94751b53207fdd18862746450212f1102574a1eb"
                            }
                        ],
                        "constructorArguments": "",
                        "name": "burn",
                        "returnParams": [
                            {
                                "name": "amount0",
                                "type": "uint256",
                                "value": "921,195,374,910,416,564,417,657,279"
                            },
                            {
                                "name": "amount1",
                                "type": "uint256",
                                "value": "1,440,876,969,923,949,671"
                            }
                        ],
                        "signature": "burn(address)"
                    },
                    "errorInfo": "",
                    "fromAddress": "0x7a250d5630b4cf539739df2c5dacb4c659f2488d",
                    "gasUsed": 136256,
                    "id": 6,
                    "methodDecoded": true,
                    "operation": "CALL",
                    "output": "0x000000000000000000000000000000000000000002f9feb5568bfe2208b6f9bf00000000000000000000000000000000000000000000000013ff05f8555bb467",
                    "revert": false,
                    "revertMessage": "",
                    "selector": "0x89afcb44",
                    "status": true,
                    "value": "0"
                },
                "nodeType": 0
            },
            "7": {
                "invocation": {
                    "address": "0x6b782a7dc11753ccfae344cea7b2b3ea9aa7797c",
                    "callData": "0x00000000000000000000000026244ac420e63d44d9470d3e27670fe1895a9580",
                    "decodedMethod": {
                        "callParams": [
                            {
                                "name": "account",
                                "type": "address",
                                "value": "0x26244ac420e63d44d9470d3e27670fe1895a9580"
                            }
                        ],
                        "constructorArguments": "",
                        "name": "balanceOf",
                        "returnParams": [
                            {
                                "decimalAvailable": true,
                                "name": "",
                                "type": "uint256",
                                "value": "941,791,992,917,502,370,195,027,442"
                            }
                        ],
                        "signature": "balanceOf(address)"
                    },
                    "errorInfo": "",
                    "fromAddress": "0x26244ac420e63d44d9470d3e27670fe1895a9580",
                    "gasUsed": 2668,
                    "id": 7,
                    "methodDecoded": true,
                    "operation": "STATICCALL",
                    "output": "0x0000000000000000000000000000000000000000030b08363ccecb8fb8edb5f2",
                    "revert": false,
                    "revertMessage": "",
                    "selector": "0x70a08231",
                    "status": true,
                    "value": "0"
                },
                "nodeType": 0
            },
            "8": {
                "invocation": {
                    "address": "0xc02aaa39b223fe8d0a0e5c4f27ead9083c756cc2",
                    "callData": "0x00000000000000000000000026244ac420e63d44d9470d3e27670fe1895a9580",
                    "decodedMethod": {
                        "callParams": [
                            {
                                "name": "",
                                "type": "address",
                                "value": "0x26244ac420e63d44d9470d3e27670fe1895a9580"
                            }
                        ],
                        "constructorArguments": "",
                        "name": "balanceOf",
                        "returnParams": [
                            {
                                "decimalAvailable": true,
                                "name": "",
                                "type": "uint256",
                                "value": "1,473,092,929,049,468,372"
                            }
                        ],
                        "signature": "balanceOf(address)"
                    },
                    "errorInfo": "",
                    "fromAddress": "0x26244ac420e63d44d9470d3e27670fe1895a9580",
                    "gasUsed": 2534,
                    "id": 8,
                    "methodDecoded": true,
                    "operation": "STATICCALL",
                    "output": "0x00000000000000000000000000000000000000000000000014717a36d5221dd4",
                    "revert": false,
                    "revertMessage": "",
                    "selector": "0x70a08231",
                    "status": true,
                    "value": "0"
                },
                "nodeType": 0
            },
            "9": {
                "invocation": {
                    "address": "0x5c69bee701ef814a2b6a3edd4b1652cb9cc5aa6f",
                    "callData": "0x",
                    "decodedMethod": {
                        "callParams": [],
                        "constructorArguments": "",
                        "name": "feeTo",
                        "returnParams": [
                            {
                                "name": "",
                                "type": "address",
                                "value": "0x0000000000000000000000000000000000000000"
                            }
                        ],
                        "signature": "feeTo()"
                    },
                    "errorInfo": "",
                    "fromAddress": "0x26244ac420e63d44d9470d3e27670fe1895a9580",
                    "gasUsed": 2314,
                    "id": 9,
                    "methodDecoded": true,
                    "operation": "STATICCALL",
                    "output": "0x0000000000000000000000000000000000000000000000000000000000000000",
                    "revert": false,
                    "revertMessage": "",
                    "selector": "0x017e7e58",
                    "status": true,
                    "value": "0"
                },
                "nodeType": 0
            }
        },
        "gasFlame": [
            {
                "children": [
                    {
                        "children": [
                            {
                                "children": [],
                                "depth": 0,
                                "name": "Initial Gas",
                                "value": 24380
                            },
                            {
                                "children": [
                                    {
                                        "children": [
                                            {
                                                "children": [],
                                                "depth": 2,
                                                "name": "ecrecover",
                                                "value": 3000
                                            }
                                        ],
                                        "depth": 1,
                                        "name": "permit",
                                        "value": 52702
                                    },
                                    {
                                        "children": [],
                                        "depth": 1,
                                        "name": "transferFrom",
                                        "value": 30649
                                    },
                                    {
                                        "children": [
                                            {
                                                "children": [],
                                                "depth": 2,
                                                "name": "balanceOf",
                                                "value": 2668
                                            },
                                            {
                                                "children": [],
                                                "depth": 2,
                                                "name": "balanceOf",
                                                "value": 2534
                                            },
                                            {
                                                "children": [],
                                                "depth": 2,
                                                "name": "feeTo",
                                                "value": 2314
                                            },
                                            {
                                                "children": [],
                                                "depth": 2,
                                                "name": "transfer",
                                                "value": 46374
                                            },
                                            {
                                                "children": [],
                                                "depth": 2,
                                                "name": "transfer",
                                                "value": 27962
                                            },
                                            {
                                                "children": [],
                                                "depth": 2,
                                                "name": "balanceOf",
                                                "value": 668
                                            },
                                            {
                                                "children": [],
                                                "depth": 2,
                                                "name": "balanceOf",
                                                "value": 534
                                            }
                                        ],
                                        "depth": 1,
                                        "name": "burn",
                                        "value": 136256
                                    }
                                ],
                                "depth": 0,
                                "name": "Executed Gas",
                                "value": 225780
                            }
                        ],
                        "depth": -1,
                        "name": "Actual Gas Used",
                        "value": 202760
                    },
                    {
                        "children": [],
                        "depth": -1,
                        "name": "Refunded Gas",
                        "value": 47400
                    }
                ],
                "depth": -2,
                "name": "Total Gas",
                "value": 250160
            }
        ],
        "isConfirmed": true,
        "mainTrace": [
            {
                "children": [
                    {
                        "children": [
                            {
                                "children": [
                                    {
                                        "children": [],
                                        "depth": 2,
                                        "id": 2,
                                        "order": 2
                                    },
                                    {
                                        "children": [],
                                        "depth": 2,
                                        "id": 3,
                                        "order": 3
                                    }
                                ],
                                "depth": 1,
                                "id": 1,
                                "order": 1
                            },
                            {
                                "children": [
                                    {
                                        "children": [],
                                        "depth": 2,
                                        "id": 5,
                                        "order": 5
                                    }
                                ],
                                "depth": 1,
                                "id": 4,
                                "order": 4
                            },
                            {
                                "children": [
                                    {
                                        "children": [],
                                        "depth": 2,
                                        "id": 7,
                                        "order": 7
                                    },
                                    {
                                        "children": [],
                                        "depth": 2,
                                        "id": 8,
                                        "order": 8
                                    },
                                    {
                                        "children": [],
                                        "depth": 2,
                                        "id": 9,
                                        "order": 9
                                    },
                                    {
                                        "children": [],
                                        "depth": 2,
                                        "id": 10,
                                        "order": 10
                                    },
                                    {
                                        "children": [
                                            {
                                                "children": [],
                                                "depth": 3,
                                                "id": 12,
                                                "order": 12
                                            }
                                        ],
                                        "depth": 2,
                                        "id": 11,
                                        "order": 11
                                    },
                                    {
                                        "children": [
                                            {
                                                "children": [],
                                                "depth": 3,
                                                "id": 14,
                                                "order": 14
                                            }
                                        ],
                                        "depth": 2,
                                        "id": 13,
                                        "order": 13
                                    },
                                    {
                                        "children": [],
                                        "depth": 2,
                                        "id": 15,
                                        "order": 15
                                    },
                                    {
                                        "children": [],
                                        "depth": 2,
                                        "id": 16,
                                        "order": 16
                                    },
                                    {
                                        "children": [],
                                        "depth": 2,
                                        "id": 17,
                                        "order": 17
                                    },
                                    {
                                        "children": [],
                                        "depth": 2,
                                        "id": 18,
                                        "order": 18
                                    }
                                ],
                                "depth": 1,
                                "id": 6,
                                "order": 6
                            }
                        ],
                        "depth": 0,
                        "id": 0,
                        "order": 0
                    }
                ],
                "depth": -1,
                "id": -1,
                "order": -1
            }
        ],
        "mainTraceNodeCount": 19,
        "parentIdMap": {
            "0": -1,
            "1": 0,
            "10": 6,
            "11": 6,
            "12": 11,
            "13": 6,
            "14": 13,
            "15": 6,
            "16": 6,
            "17": 6,
            "18": 6,
            "2": 1,
            "3": 1,
            "4": 0,
            "5": 4,
            "6": 0,
            "7": 6,
            "8": 6,
            "9": 6
        },
        "tidyTrace": [
            {
                "children": [
                    {
                        "children": [
                            {
                                "children": [
                                    {
                                        "children": [],
                                        "depth": 2,
                                        "id": 3,
                                        "order": 3
                                    }
                                ],
                                "depth": 1,
                                "id": 1,
                                "order": 1
                            },
                            {
                                "children": [
                                    {
                                        "children": [],
                                        "depth": 2,
                                        "id": 5,
                                        "order": 5
                                    }
                                ],
                                "depth": 1,
                                "id": 4,
                                "order": 4
                            },
                            {
                                "children": [
                                    {
                                        "children": [],
                                        "depth": 2,
                                        "id": 10,
                                        "order": 10
                                    },
                                    {
                                        "children": [
                                            {
                                                "children": [],
                                                "depth": 3,
                                                "id": 12,
                                                "order": 12
                                            }
                                        ],
                                        "depth": 2,
                                        "id": 11,
                                        "order": 11
                                    },
                                    {
                                        "children": [
                                            {
                                                "children": [],
                                                "depth": 3,
                                                "id": 14,
                                                "order": 14
                                            }
                                        ],
                                        "depth": 2,
                                        "id": 13,
                                        "order": 13
                                    },
                                    {
                                        "children": [],
                                        "depth": 2,
                                        "id": 17,
                                        "order": 17
                                    },
                                    {
                                        "children": [],
                                        "depth": 2,
                                        "id": 18,
                                        "order": 18
                                    }
                                ],
                                "depth": 1,
                                "id": 6,
                                "order": 6
                            }
                        ],
                        "depth": 0,
                        "id": 0,
                        "order": 0
                    }
                ],
                "depth": -1,
                "id": -1,
                "order": -1
            }
        ],
        "tidyTraceNodeCount": 13
    },
    "state_change": {
        "stateChanges": [
            {
                "address": "0x26244ac420e63d44d9470d3e27670fe1895a9580",
                "erc": "ERC-20",
                "slots": [
                    {
                        "current": "0x0000000000000000000000000000000000000000000000000000000000000001",
                        "key": "0x2df031b8cb9cb5b552130b3df97982618417fdd75950622327cd9cfdbc3c2a8b",
                        "prev": "0x0000000000000000000000000000000000000000000000000000000000000000"
                    },
                    {
                        "current": "0x00000000000000000000000000000000000000000000002becce917c257415a2",
                        "key": "0x0000000000000000000000000000000000000000000000000000000000000000",
                        "prev": "0x0000000000000000000000000000000000000000000007d87f25d4208383b62c"
                    },
                    {
                        "current": "0x000000000000000000000005dcc20317aae107906c63eed5e4374c1f92a3712c",
                        "key": "0x000000000000000000000000000000000000000000000000000000000000000a",
                        "prev": "0x0000000000000000000000020fb07140b1301afd09fea64e2bd4f163cb12002c"
                    },
                    {
                        "current": "0x0000000000000000000000000000000000000000000000000000000000000000",
                        "key": "0x0458f219d9169203f1158a528ffdc5cdbd6eae291b51340da41a8c20f2dd5612",
                        "prev": "0x0000000000000000000000000000000000000000000007ac925742a45e0fa08a"
                    },
                    {
                        "current": "0x000000000000000000000000000000000000011938093b893ab9960e84a402e8",
                        "key": "0x0000000000000000000000000000000000000000000000000000000000000009",
                        "prev": "0x000000000000000000000000000000000000006dacf96f9880d8cf0d19ecbee8"
                    },
                    {
                        "current": "0x63edbe5b0000000000000072743e7fc6696d000000110980e642cd6db036bc33",
                        "key": "0x0000000000000000000000000000000000000000000000000000000000000008",
                        "prev": "0x63d4355b00000000000014717a36d5221dd40000030b08363ccecb8fb8edb5f2"
                    }
                ],
                "storageVariables": [
                    {
                        "name": "balanceOf",
                        "type": "mapping(address => uint256)",
                        "value": {
                            "pairs": [
                                {
                                    "key": "0x94751b53207fdd18862746450212f1102574a1eb",
                                    "value": {
                                        "current": "0",
                                        "prev": "36239950331091790831754",
                                        "typeTag": 1
                                    }
                                }
                            ],
                            "typeTag": 4
                        }
                    },
                    {
                        "name": "price0CumulativeLast",
                        "type": "uint256",
                        "value": {
                            "current": "22280455988541708725018276659944",
                            "prev": "8689402685269037288202926079720",
                            "typeTag": 1
                        }
                    },
                    {
                        "name": "reserve0",
                        "type": "uint112",
                        "value": {
                            "current": "20596618007085805777370163",
                            "prev": "941791992917502370195027442",
                            "typeTag": 1
                        }
                    },
                    {
                        "name": "reserve1",
                        "type": "uint112",
                        "value": {
                            "current": "32215959125518701",
                            "prev": "1473092929049468372",
                            "typeTag": 1
                        }
                    },
                    {
                        "name": "blockTimestampLast",
                        "type": "uint32",
                        "value": {
                            "current": "1676525147",
                            "prev": "1674851675",
                            "typeTag": 1
                        }
                    },
                    {
                        "name": "nonces",
                        "type": "mapping(address => uint256)",
                        "value": {
                            "pairs": [
                                {
                                    "key": "0x94751b53207fdd18862746450212f1102574a1eb",
                                    "value": {
                                        "current": "1",
                                        "prev": "0",
                                        "typeTag": 1
                                    }
                                }
                            ],
                            "typeTag": 4
                        }
                    },
                    {
                        "name": "totalSupply",
                        "type": "uint256",
                        "value": {
                            "current": "810273731170054444450",
                            "prev": "37050224062261845276204",
                            "typeTag": 1
                        }
                    },
                    {
                        "name": "price1CumulativeLast",
                        "type": "uint256",
                        "value": {
                            "current": "8567812770194763641197372200382674444629238313260",
                            "prev": "3012572933081009723685317650056007098421398863916",
                            "typeTag": 1
                        }
                    }
                ]
            },
            {
                "address": "0x6b782a7dc11753ccfae344cea7b2b3ea9aa7797c",
                "erc": "ERC-20",
                "slots": [
                    {
                        "current": "0x000000000000000000000000000000000000000000110980e642cd6db036bc33",
                        "key": "0x59ad613aeaa3ee97499e2084f74bbaf3cece7de93eb8d90a3f7d26e134cd3e21",
                        "prev": "0x0000000000000000000000000000000000000000030b08363ccecb8fb8edb5f2"
                    },
                    {
                        "current": "0x000000000000000000000000000000000000000002f9feb5568bfe2208b6f9bf",
                        "key": "0x85096d5190f09d33740e41cd7d7e98d580ef1c718af8a0117e667ec3a1b83afe",
                        "prev": "0x0000000000000000000000000000000000000000000000000000000000000000"
                    }
                ],
                "storageVariables": [
                    {
                        "name": "_balances",
                        "type": "mapping(address => uint256)",
                        "value": {
                            "pairs": [
                                {
                                    "key": "0x26244ac420e63d44d9470d3e27670fe1895a9580",
                                    "value": {
                                        "current": "20596618007085805777370163",
                                        "prev": "941791992917502370195027442",
                                        "typeTag": 1
                                    }
                                },
                                {
                                    "key": "0x94751b53207fdd18862746450212f1102574a1eb",
                                    "value": {
                                        "current": "921195374910416564417657279",
                                        "prev": "0",
                                        "typeTag": 1
                                    }
                                }
                            ],
                            "typeTag": 4
                        }
                    }
                ]
            },
            {
                "address": "0xc02aaa39b223fe8d0a0e5c4f27ead9083c756cc2",
                "erc": "ERC-20",
                "slots": [
                    {
                        "current": "0x0000000000000000000000000000000000000000000000000072743e7fc6696d",
                        "key": "0x1eb38e3169bdb2eb3575fd3a11861b85509af3cb155c27d8363d522858710895",
                        "prev": "0x00000000000000000000000000000000000000000000000014717a36d5221dd4"
                    },
                    {
                        "current": "0x00000000000000000000000000000000000000000000000013ff05f8555bb467",
                        "key": "0xa05d504d2216efdc1b66bbc2a183fc374cfb7a41ad3769e94bf2f6167cc501d8",
                        "prev": "0x0000000000000000000000000000000000000000000000000000000000000000"
                    }
                ],
                "storageVariables": [
                    {
                        "name": "balanceOf",
                        "type": "mapping(address => uint256)",
                        "value": {
                            "pairs": [
                                {
                                    "key": "0x26244ac420e63d44d9470d3e27670fe1895a9580",
                                    "value": {
                                        "current": "32215959125518701",
                                        "prev": "1473092929049468372",
                                        "typeTag": 1
                                    }
                                },
                                {
                                    "key": "0x94751b53207fdd18862746450212f1102574a1eb",
                                    "value": {
                                        "current": "1440876969923949671",
                                        "prev": "0",
                                        "typeTag": 1
                                    }
                                }
                            ],
                            "typeTag": 4
                        }
                    }
                ]
            }
        ]
    }
}