{
    "balance_change": {
        "balanceChanges": []
    },
    "profile": {
        "basic_info": {
            "baseFee": "",
            "blockNumber": 12130063,
            "callData": "0x64887334000000000000000000000000000000000000000000000000000000000000008000000000000000000000000000000000000000000000000000000000000001000000000000000000000000000000000000000000000000000000000000b9170f00000000000000000000000000000000000000000000000000000000000001800000000000000000000000000000000000000000000000000000000000000003005339f12a00000000000000000000000000000000000000000000000000000010fc0ae0eed4c3f6c80fe2fbd9cb000000000000000000000000000000000000f40a2de12c00633b13295f47da1d000000000000000000000000000000000000000000000000000000000000000000000000000000000000000000000000000300f31a1df7000000000000000000000000000000000000000000000000000000030af6210b3b550c3cf81f43293d0000000000000000000000000000000000000bfce821f9002c44ea20d4bf26e90000000000000000000000000000000000000000000000000000000000000000000000000000000000000000000000000003000000000000000000000000000000000000000000000000000000000000000200000000000000000000000000000000000000000000000000000000000000000000000000000000000000000000000000000000000000000000000000000001",
            "debugEnable": true,
            "errorInfo": "",
            "eventCount": 0,
            "feeRecipient": "0xeea5b82b61424df8020f5fedd81767f2d0d25bfb",
            "formatValue": "0",
            "gasLimit": 97234,
            "gasPrice": "136.4",
            "gasUsed": 47234,
            "intTxnCount": 0,
            "internalRevert": false,
            "internalRevertMessage": "",
            "isContractCreation": false,
            "isFlashloan": false,
            "maxFee": "",
            "nonce": 110756,
            "overwritedBlockNumber": -1,
            "priorityFee": "",
            "receiver": "0x15a91a091648162a042bced9c9c407835fd779e9",
            "revertMessage": "",
            "sender": "0x894ac7c600ff7ae588d2e75cf196c50dee08c898",
            "simulationEnable": true,
            "sourceTxnHash": "0x626b01195056e102b5170b96c4f64280996afadabb96c7945efe9a2f128df9d6",
            "status": true,
            "timestamp": "2021-03-28T21:26:04Z",
            "transactionFee": "0.0064427176",
            "txnHash": "0x626b01195056e102b5170b96c4f64280996afadabb96c7945efe9a2f128df9d6",
            "txnIndex": 142,
            "type": 0,
            "value": "0"
        },
        "fund_flow": [],
        "token_infos": [
            {
                "address": "0xeeeeeeeeeeeeeeeeeeeeeeeeeeeeeeeeeeeeeeee",
                "decimals": 18
            },
            {
                "address": "0xc02aaa39b223fe8d0a0e5c4f27ead9083c756cc2",
                "decimals": 18
            }
        ]
    },
    "address_label": {
        "labels": [
            {
                "address": "0xeeeeeeeeeeeeeeeeeeeeeeeeeeeeeeeeeeeeeeee",
                "label": "Ether"
            },
            {
                "address": "0x15a91a091648162a042bced9c9c407835fd779e9",
                "label": "ConversionRateEnhancedSteps"
            },
            {
                "address": "0x0000000000000000000000000000000000000001",
                "label": "Precompiled"
            },
            {
                "address": "0x0000000000000000000000000000000000000002",
                "label": "Precompiled"
            },
            {
                "address": "0x0000000000000000000000000000000000000003",
                "label": "Precompiled"
            },
            {
                "address": "0x0000000000000000000000000000000000000004",
                "label": "Precompiled"
            }
        ]
    },
    "trace": {
        "accountLabels": null,
        "dataMap": {
            "-1": {
                "invocation": {
                    "address": "0x894ac7c600ff7ae588d2e75cf196c50dee08c898",
                    "callData": "",
                    "decodedMethod": null,
                    "errorInfo": "",
                    "fromAddress": "",
                    "gasUsed": 0,
                    "id": -1,
                    "methodDecoded": false,
                    "operation": "",
                    "output": "",
                    "revert": false,
                    "revertMessage": "",
                    "selector": "",
                    "status": false,
                    "value": ""
                },
                "nodeType": 0
            },
            "0": {
                "invocation": {
                    "address": "0x15a91a091648162a042bced9c9c407835fd779e9",
                    "callData": "0x000000000000000000000000000000000000000000000000000000000000008000000000000000000000000000000000000000000000000000000000000001000000000000000000000000000000000000000000000000000000000000b9170f00000000000000000000000000000000000000000000000000000000000001800000000000000000000000000000000000000000000000000000000000000003005339f12a00000000000000000000000000000000000000000000000000000010fc0ae0eed4c3f6c80fe2fbd9cb000000000000000000000000000000000000f40a2de12c00633b13295f47da1d000000000000000000000000000000000000000000000000000000000000000000000000000000000000000000000000000300f31a1df7000000000000000000000000000000000000000000000000000000030af6210b3b550c3cf81f43293d0000000000000000000000000000000000000bfce821f9002c44ea20d4bf26e90000000000000000000000000000000000000000000000000000000000000000000000000000000000000000000000000003000000000000000000000000000000000000000000000000000000000000000200000000000000000000000000000000000000000000000000000000000000000000000000000000000000000000000000000000000000000000000000000001",
                    "decodedMethod": {
                        "callParams": [
                            {
                                "name": "buy",
                                "type": "bytes14[]",
                                "value": [
                                    "0x005339f12a000000000000000000",
                                    "0x10fc0ae0eed4c3f6c80fe2fbd9cb",
                                    "0xf40a2de12c00633b13295f47da1d"
                                ]
                            },
                            {
                                "name": "sell",
                                "type": "bytes14[]",
                                "value": [
                                    "0x00f31a1df7000000000000000000",
                                    "0x030af6210b3b550c3cf81f43293d",
                                    "0x0bfce821f9002c44ea20d4bf26e9"
                                ]
                            },
                            {
                                "name": "blockNumber",
                                "type": "uint256",
                                "value": "12,130,063"
                            },
                            {
                                "name": "indices",
                                "type": "uint256[]",
                                "value": [
                                    "2",
                                    "0",
                                    "1"
                                ]
                            }
                        ],
                        "constructorArguments": "",
                        "name": "setCompactData",
                        "returnParams": [],
                        "signature": "setCompactData(bytes14[],bytes14[],uint256,uint256[])"
                    },
                    "errorInfo": "",
                    "fromAddress": "0x894ac7c600ff7ae588d2e75cf196c50dee08c898",
                    "gasUsed": 47234,
                    "id": 0,
                    "methodDecoded": true,
                    "operation": "CALL",
                    "output": "",
                    "revert": false,
                    "revertMessage": "",
                    "selector": "0x64887334",
                    "status": true,
                    "value": "0"
                },
                "nodeType": 0
            }
        },
        "gasFlame": [
            {
                "children": [
                    {
                        "children": [
                            {
                                "children": [],
                                "depth": 0,
                                "name": "Initial Gas",
                                "value": 24000
                            },
                            {
                                "children": [],
                                "depth": 0,
                                "name": "Executed Gas",
                                "value": 23234
                            }
                        ],
                        "depth": -1,
                        "name": "Actual Gas Used",
                        "value": 47234
                    },
                    {
                        "children": [],
                        "depth": -1,
                        "name": "Refunded Gas",
                        "value": 0
                    }
                ],
                "depth": -2,
                "name": "Total Gas",
                "value": 47234
            }
        ],
        "isConfirmed": true,
        "mainTrace": [
            {
                "children": [
                    {
                        "children": [],
                        "depth": 0,
                        "id": 0,
                        "order": 0
                    }
                ],
                "depth": -1,
                "id": -1,
                "order": -1
            }
        ],
        "mainTraceNodeCount": 1,
        "parentIdMap": {
            "0": -1
        },
        "tidyTrace": [
            {
                "children": [
                    {
                        "children": [],
                        "depth": 0,
                        "id": 0,
                        "order": 0
                    }
                ],
                "depth": -1,
                "id": -1,
                "order": -1
            }
        ],
        "tidyTraceNodeCount": 1
    },
    "state_change": {
        "stateChanges": [
            {
                "address": "0x15a91a091648162a042bced9c9c407835fd779e9",
                "erc": "",
                "slots": [
                    {
                        "current": "0x00b9170f00f31a1df7000000000000000000005339f12a000000000000000000",
                        "key": "0xdf6966c971051c3d54ec59162606531493a51404a002842f56009d7e5cf4a8c9",
                        "prev": "0x00b9170800f21a1df800000000000000000000533af028000000000000000000"
                    },
                    {
                        "current": "0x00b9170f030af6210b3b550c3cf81f43293d10fc0ae0eed4c3f6c80fe2fbd9cb",
                        "key": "0xdf6966c971051c3d54ec59162606531493a51404a002842f56009d7e5cf4a8c7",
                        "prev": "0x00b917080309f6210c39570b3dfa1f432a3c0ffd0be0ede0c1f7c60de3fbd8cb"
                    },
                    {
                        "current": "0x00b9170f0bfce821f9002c44ea20d4bf26e9f40a2de12c00633b13295f47da1d",
                        "key": "0xdf6966c971051c3d54ec59162606531493a51404a002842f56009d7e5cf4a8c8",
                        "prev": "0x00b917080bfee821f8003543ed20d4bf27eaf4082de22d00593b10296048d91c"
                    }
                ],
                "storageVariables": [
                    {
                        "name": "tokenRatesCompactData",
                        "type": "bytes32[]",
                        "value": {
                            "elemType": "bytes32",
                            "elems": [
                                {
                                    "index": 0,
                                    "value": {
                                        "current": "0x00b9170f030af6210b3b550c3cf81f43293d10fc0ae0eed4c3f6c80fe2fbd9cb",
                                        "prev": "0x00b917080309f6210c39570b3dfa1f432a3c0ffd0be0ede0c1f7c60de3fbd8cb",
                                        "typeTag": 1
                                    }
                                },
                                {
                                    "index": 1,
                                    "value": {
                                        "current": "0x00b9170f0bfce821f9002c44ea20d4bf26e9f40a2de12c00633b13295f47da1d",
                                        "prev": "0x00b917080bfee821f8003543ed20d4bf27eaf4082de22d00593b10296048d91c",
                                        "typeTag": 1
                                    }
                                },
                                {
                                    "index": 2,
                                    "value": {
                                        "current": "0x00b9170f00f31a1df7000000000000000000005339f12a000000000000000000",
                                        "prev": "0x00b9170800f21a1df800000000000000000000533af028000000000000000000",
                                        "typeTag": 1
                                    }
                                }
                            ],
                            "typeTag": 2
                        }
                    }
                ]
            }
        ]
    }
}