{
    "balance_change": {
        "balanceChanges": [
            {
                "account": "0x19ab0d93f876284d0d93104f2e286781b105a14f",
                "assets": [
                    {
                        "address": "0x8f2798d8a77f5d51bd9cccc17a6f0bb537da2506",
                        "amount": "20",
                        "iconUrl": "",
                        "isERC1155": false,
                        "isERC721": false,
                        "sign": false,
                        "value": ""
                    }
                ]
            },
            {
                "account": "0x1a9e089855f0463fe493698f23d5caeac56c6147",
                "assets": [
                    {
                        "address": "0x8f2798d8a77f5d51bd9cccc17a6f0bb537da2506",
                        "amount": "20",
                        "iconUrl": "",
                        "isERC1155": false,
                        "isERC721": false,
                        "sign": true,
                        "value": ""
                    }
                ]
            }
        ]
    },
    "profile": {
        "basic_info": {
            "baseFee": "",
            "blockNumber": 9161755,
            "callData": "0xa9059cbb0000000000000000000000001a9e089855f0463fe493698f23d5caeac56c6147000000000000000000000000000000000000000000000001158e460913d00000",
            "debugEnable": true,
            "errorInfo": "",
            "eventCount": 1,
            "feeRecipient": "0xb2930b35844a230f00e51431acae96fe543a0347",
            "formatValue": "0",
            "gasLimit": 122904,
            "gasPrice": "3",
            "gasUsed": 51947,
            "intTxnCount": 0,
            "internalRevert": false,
            "internalRevertMessage": "",
            "isContractCreation": false,
            "isFlashloan": false,
            "maxFee": "",
            "nonce": 2743,
            "overwritedBlockNumber": -1,
            "priorityFee": "",
            "receiver": "0x8f2798d8a77f5d51bd9cccc17a6f0bb537da2506",
            "revertMessage": "",
            "sender": "0x19ab0d93f876284d0d93104f2e286781b105a14f",
            "simulationEnable": true,
            "sourceTxnHash": "0x621acfd5361e611aae9376b7f58f521589893daf46a1406c02551fb77f1505d4",
            "status": true,
            "timestamp": "2019-12-25T17:25:29Z",
            "transactionFee": "0.000155841",
            "txnHash": "0x621acfd5361e611aae9376b7f58f521589893daf46a1406c02551fb77f1505d4",
            "txnIndex": 37,
            "type": 0,
            "value": "0"
        },
        "fund_flow": [
            {
                "amount": "20",
                "from": "0x19ab0d93f876284d0d93104f2e286781b105a14f",
                "id": 1,
                "isERC1155": false,
                "isERC721": false,
                "isReverted": false,
                "order": 1,
                "to": "0x1a9e089855f0463fe493698f23d5caeac56c6147",
                "token": "0x8f2798d8a77f5d51bd9cccc17a6f0bb537da2506"
            }
        ],
        "token_infos": [
            {
                "address": "0x8f2798d8a77f5d51bd9cccc17a6f0bb537da2506",
                "decimals": 18
            },
            {
                "address": "0xc02aaa39b223fe8d0a0e5c4f27ead9083c756cc2",
                "decimals": 18
            },
            {
                "address": "0xeeeeeeeeeeeeeeeeeeeeeeeeeeeeeeeeeeeeeeee",
                "decimals": 18
            }
        ]
    },
    "address_label": {
        "labels": [
            {
                "address": "0xeeeeeeeeeeeeeeeeeeeeeeeeeeeeeeeeeeeeeeee",
                "label": "Ether"
            },
            {
                "address": "0x8f2798d8a77f5d51bd9cccc17a6f0bb537da2506",
                "label": "BTY"
            },
            {
                "address": "0x0000000000000000000000000000000000000001",
                "label": "Precompiled"
            },
            {
                "address": "0x0000000000000000000000000000000000000002",
                "label": "Precompiled"
            },
            {
                "address": "0x0000000000000000000000000000000000000003",
                "label": "Precompiled"
            },
            {
                "address": "0x0000000000000000000000000000000000000004",
                "label": "Precompiled"
            }
        ]
    },
    "trace": {
        "accountLabels": null,
        "dataMap": {
            "-1": {
                "invocation": {
                    "address": "0x19ab0d93f876284d0d93104f2e286781b105a14f",
                    "callData": "",
                    "decodedMethod": null,
                    "errorInfo": "",
                    "fromAddress": "",
                    "gasUsed": 0,
                    "id": -1,
                    "methodDecoded": false,
                    "operation": "",
                    "output": "",
                    "revert": false,
                    "revertMessage": "",
                    "selector": "",
                    "status": false,
                    "value": ""
                },
                "nodeType": 0
            },
            "0": {
                "invocation": {
                    "address": "0x8f2798d8a77f5d51bd9cccc17a6f0bb537da2506",
                    "callData": "0x0000000000000000000000001a9e089855f0463fe493698f23d5caeac56c6147000000000000000000000000000000000000000000000001158e460913d00000",
                    "decodedMethod": {
                        "callParams": [
                            {
                                "name": "to",
                                "type": "address",
                                "value": "0x1a9e089855f0463fe493698f23d5caeac56c6147"
                            },
                            {
                                "decimalAvailable": true,
                                "name": "value",
                                "type": "uint256",
                                "value": "20,000,000,000,000,000,000"
                            }
                        ],
                        "constructorArguments": "",
                        "name": "transfer",
                        "returnParams": [
                            {
                                "name": "",
                                "type": "bool",
                                "value": true
                            }
                        ],
                        "signature": "transfer(address,uint256)"
                    },
                    "errorInfo": "",
                    "fromAddress": "0x19ab0d93f876284d0d93104f2e286781b105a14f",
                    "gasUsed": 51947,
                    "id": 0,
                    "methodDecoded": true,
                    "operation": "CALL",
                    "output": "0x0000000000000000000000000000000000000000000000000000000000000001",
                    "revert": false,
                    "revertMessage": "",
                    "selector": "0xa9059cbb",
                    "status": true,
                    "value": "0"
                },
                "nodeType": 0
            },
            "1": {
                "event": {
                    "contract": "0x8f2798d8a77f5d51bd9cccc17a6f0bb537da2506",
                    "decodedLog": {
                        "name": "Transfer",
                        "params": [
                            {
                                "name": "from",
                                "type": "address",
                                "value": "0x19ab0d93f876284d0d93104f2e286781b105a14f"
                            },
                            {
                                "name": "to",
                                "type": "address",
                                "value": "0x1a9e089855f0463fe493698f23d5caeac56c6147"
                            },
                            {
                                "decimalAvailable": true,
                                "name": "value",
                                "type": "uint256",
                                "value": "20,000,000,000,000,000,000"
                            }
                        ],
                        "signature": "Transfer(address,address,uint256)"
                    },
                    "id": 1,
                    "logData": "0x000000000000000000000000000000000000000000000001158e460913d00000",
                    "logDecoded": true,
                    "operation": "EVENT",
                    "revert": false,
                    "status": true,
                    "topics": [
                        "0xddf252ad1be2c89b69c2b068fc378daa952ba7f163c4a11628f55a4df523b3ef",
                        "0x00000000000000000000000019ab0d93f876284d0d93104f2e286781b105a14f",
                        "0x0000000000000000000000001a9e089855f0463fe493698f23d5caeac56c6147"
                    ]
                },
                "nodeType": 1
            }
        },
        "gasFlame": [
            {
                "children": [
                    {
                        "children": [
                            {
                                "children": [],
                                "depth": 0,
                                "name": "Initial Gas",
                                "value": 21644
                            },
                            {
                                "children": [],
                                "depth": 0,
                                "name": "Executed Gas",
                                "value": 30303
                            }
                        ],
                        "depth": -1,
                        "name": "Actual Gas Used",
                        "value": 51947
                    },
                    {
                        "children": [],
                        "depth": -1,
                        "name": "Refunded Gas",
                        "value": 0
                    }
                ],
                "depth": -2,
                "name": "Total Gas",
                "value": 51947
            }
        ],
        "isConfirmed": true,
        "mainTrace": [
            {
                "children": [
                    {
                        "children": [
                            {
                                "children": [],
                                "depth": 1,
                                "id": 1,
                                "order": 1
                            }
                        ],
                        "depth": 0,
                        "id": 0,
                        "order": 0
                    }
                ],
                "depth": -1,
                "id": -1,
                "order": -1
            }
        ],
        "mainTraceNodeCount": 2,
        "parentIdMap": {
            "0": -1,
            "1": 0
        },
        "tidyTrace": [
            {
                "children": [
                    {
                        "children": [
                            {
                                "children": [],
                                "depth": 1,
                                "id": 1,
                                "order": 1
                            }
                        ],
                        "depth": 0,
                        "id": 0,
                        "order": 0
                    }
                ],
                "depth": -1,
                "id": -1,
                "order": -1
            }
        ],
        "tidyTraceNodeCount": 2
    },
    "state_change": {
        "stateChanges": [
            {
                "address": "0x8f2798d8a77f5d51bd9cccc17a6f0bb537da2506",
                "erc": "ERC-20",
                "slots": [
                    {
                        "current": "0x000000000000000000000000000000000000000000000001158e460913d00000",
                        "key": "0xd3a24102b10bf8926db0a83cd05683f5039b1b7ca33dbfa70f35a854886f2209",
                        "prev": "0x0000000000000000000000000000000000000000000000000000000000000000"
                    },
                    {
                        "current": "0x00000000000000000000000000000000000000000000c8230ed01ba143800000",
                        "key": "0x2c479aa2e4c094b339f5706f895e9583b817ab6443cda5e0e8f7d6a160b76cba",
                        "prev": "0x00000000000000000000000000000000000000000000c824245e61aa57500000"
                    }
                ],
                "storageVariables": [
                    {
                        "name": "_balances",
                        "type": "mapping(address => uint256)",
                        "value": {
                            "pairs": [
                                {
                                    "key": "0x19ab0d93f876284d0d93104f2e286781b105a14f",
                                    "value": {
                                        "current": "945120000000000000000000",
                                        "prev": "945140000000000000000000",
                                        "typeTag": 1
                                    }
                                },
                                {
                                    "key": "0x1a9e089855f0463fe493698f23d5caeac56c6147",
                                    "value": {
                                        "current": "20000000000000000000",
                                        "prev": "0",
                                        "typeTag": 1
                                    }
                                }
                            ],
                            "typeTag": 4
                        }
                    }
                ]
            }
        ]
    }
}