{
    "balance_change": {
        "balanceChanges": [
            {
                "account": "0x98c3d3183c4b8a650614ad179a1a98be0a8d6b8e",
                "assets": [
                    {
                        "address": "0xc02aaa39b223fe8d0a0e5c4f27ead9083c756cc2",
                        "amount": "0.565244603131686195",
                        "iconUrl": "https://assets.blocksec.com/icon/f1cb2d02c471d545bbc7722daf3277fd852d98e63d118771af7047bd8256c516.png",
                        "isERC1155": false,
                        "isERC721": false,
                        "sign": true,
                        "value": "857.0690867884679846"
                    },
                    {
                        "address": "0x8f693ca8d21b157107184d29d398a8d082b38b76",
                        "amount": "21,064.549877763188687364",
                        "iconUrl": "https://assets.blocksec.com/icon/b0179aaf8b31d46524d2ac51ed67a927097a68dd8b3ccd3425ff5da91ccea8fb.png",
                        "isERC1155": false,
                        "isERC721": false,
                        "sign": false,
                        "value": "912.09500980399996234"
                    }
                ]
            },
            {
                "account": "0x7c3b1297ac649b36547b913de50919acb45a250c",
                "assets": [
                    {
                        "address": "0xc02aaa39b223fe8d0a0e5c4f27ead9083c756cc2",
                        "amount": "0.565244603131686195",
                        "iconUrl": "https://assets.blocksec.com/icon/f1cb2d02c471d545bbc7722daf3277fd852d98e63d118771af7047bd8256c516.png",
                        "isERC1155": false,
                        "isERC721": false,
                        "sign": false,
                        "value": "857.0690867884679846"
                    },
                    {
                        "address": "0x8f693ca8d21b157107184d29d398a8d082b38b76",
                        "amount": "21,064.549877763188687364",
                        "iconUrl": "https://assets.blocksec.com/icon/b0179aaf8b31d46524d2ac51ed67a927097a68dd8b3ccd3425ff5da91ccea8fb.png",
                        "isERC1155": false,
                        "isERC721": false,
                        "sign": true,
                        "value": "912.09500980399996234"
                    }
                ]
            }
        ]
    },
    "profile": {
        "basic_info": {
            "baseFee": "14.239271739",
            "blockNumber": 16440806,
            "callData": "0x49c36c070000000000000000000000007c3b1297ac649b36547b913de50919acb45a250c000000000000000000000000000000000000000000000475e95a7d0ea4df820400000000000000000000000000000000000000000154a154e6d86d9000000000000000000000000000000000000000000000000001535c9257c369f0000000000000000000000000000000000000000000000000000000000000000000000001",
            "debugEnable": true,
            "errorInfo": "",
            "eventCount": 3,
            "feeRecipient": "0xdafea492d9c6733ae3d56b7ed1adb60692c98bc5",
            "formatValue": "0",
            "gasLimit": 300014,
            "gasPrice": "16.054271743",
            "gasUsed": 110891,
            "intTxnCount": 7,
            "internalRevert": false,
            "internalRevertMessage": "",
            "isContractCreation": false,
            "isFlashloan": false,
            "maxFee": "22.737204085",
            "nonce": 427399,
            "overwritedBlockNumber": -1,
            "priorityFee": "1.815000004",
            "receiver": "0x98c3d3183c4b8a650614ad179a1a98be0a8d6b8e",
            "revertMessage": "",
            "sender": "0x91aae0aafd9d2d730111b395c6871f248d7bd728",
            "simulationEnable": true,
            "sourceTxnHash": "0x62dd4b6d4ece60e8408e7548ca0f7937611fd53135d8e5a5717ace7372eec933",
            "status": true,
            "timestamp": "2023-01-19T12:19:11Z",
            "transactionFee": "0.001780274247853013",
            "txnHash": "0x62dd4b6d4ece60e8408e7548ca0f7937611fd53135d8e5a5717ace7372eec933",
            "txnIndex": 39,
            "type": 2,
            "value": "0"
        },
        "fund_flow": [
            {
                "amount": "0.565244603131686195",
                "from": "0x7c3b1297ac649b36547b913de50919acb45a250c",
                "id": 1,
                "isERC1155": false,
                "isERC721": false,
                "isReverted": false,
                "order": 1,
                "to": "0x98c3d3183c4b8a650614ad179a1a98be0a8d6b8e",
                "token": "0xc02aaa39b223fe8d0a0e5c4f27ead9083c756cc2"
            },
            {
                "amount": "21,064.549877763188687364",
                "from": "0x98c3d3183c4b8a650614ad179a1a98be0a8d6b8e",
                "id": 2,
                "isERC1155": false,
                "isERC721": false,
                "isReverted": false,
                "order": 2,
                "to": "0x7c3b1297ac649b36547b913de50919acb45a250c",
                "token": "0x8f693ca8d21b157107184d29d398a8d082b38b76"
            }
        ],
        "token_infos": [
            {
                "address": "0xc02aaa39b223fe8d0a0e5c4f27ead9083c756cc2",
                "decimals": 18
            },
            {
                "address": "0xeeeeeeeeeeeeeeeeeeeeeeeeeeeeeeeeeeeeeeee",
                "decimals": 18
            },
            {
                "address": "0x8f693ca8d21b157107184d29d398a8d082b38b76",
                "decimals": 18
            }
        ]
    },
    "address_label": {
        "labels": [
            {
                "address": "0x8f693ca8d21b157107184d29d398a8d082b38b76",
                "label": "Streamr: DATA Token"
            },
            {
                "address": "0x7c3b1297ac649b36547b913de50919acb45a250c",
                "label": "Uniswap V3: DATA 2"
            },
            {
                "address": "0x0000000000000000000000000000000000000001",
                "label": "Precompiled"
            },
            {
                "address": "0x0000000000000000000000000000000000000003",
                "label": "Precompiled"
            },
            {
                "address": "0xeeeeeeeeeeeeeeeeeeeeeeeeeeeeeeeeeeeeeeee",
                "label": "Ether"
            },
            {
                "address": "0x98c3d3183c4b8a650614ad179a1a98be0a8d6b8e",
                "label": "MEV Bot: 0x98c...b8e"
            },
            {
                "address": "0x0000000000000000000000000000000000000002",
                "label": "Precompiled"
            },
            {
                "address": "0x0000000000000000000000000000000000000004",
                "label": "Precompiled"
            },
            {
                "address": "0xc02aaa39b223fe8d0a0e5c4f27ead9083c756cc2",
                "label": "Wrapped Ether (WETH)"
            }
        ]
    },
    "trace": {
        "accountLabels": null,
        "dataMap": {
            "-1": {
                "invocation": {
                    "address": "0x91aae0aafd9d2d730111b395c6871f248d7bd728",
                    "callData": "",
                    "decodedMethod": null,
                    "errorInfo": "",
                    "fromAddress": "",
                    "gasUsed": 0,
                    "id": -1,
                    "methodDecoded": false,
                    "operation": "",
                    "output": "",
                    "revert": false,
                    "revertMessage": "",
                    "selector": "",
                    "status": false,
                    "value": ""
                },
                "nodeType": 0
            },
            "0": {
                "invocation": {
                    "address": "0x98c3d3183c4b8a650614ad179a1a98be0a8d6b8e",
                    "callData": "0x0000000000000000000000007c3b1297ac649b36547b913de50919acb45a250c000000000000000000000000000000000000000000000475e95a7d0ea4df820400000000000000000000000000000000000000000154a154e6d86d9000000000000000000000000000000000000000000000000001535c9257c369f0000000000000000000000000000000000000000000000000000000000000000000000001",
                    "decodedMethod": null,
                    "errorInfo": "",
                    "fromAddress": "0x91aae0aafd9d2d730111b395c6871f248d7bd728",
                    "gasUsed": 110891,
                    "id": 0,
                    "methodDecoded": false,
                    "operation": "CALL",
                    "output": "",
                    "revert": false,
                    "revertMessage": "",
                    "selector": "0x49c36c07",
                    "status": true,
                    "value": "0"
                },
                "nodeType": 0
            },
            "1": {
                "invocation": {
                    "address": "0x7c3b1297ac649b36547b913de50919acb45a250c",
                    "callData": "0x",
                    "decodedMethod": {
                        "callParams": [],
                        "constructorArguments": "",
                        "name": "slot0",
                        "returnParams": [
                            {
                                "name": "sqrtPriceX96",
                                "type": "uint160",
                                "value": "411,798,110,382,915,990,721,787,862"
                            },
                            {
                                "name": "tick",
                                "type": "int24",
                                "value": "-105,197"
                            },
                            {
                                "name": "observationIndex",
                                "type": "uint16",
                                "value": "1"
                            },
                            {
                                "name": "observationCardinality",
                                "type": "uint16",
                                "value": "2"
                            },
                            {
                                "name": "observationCardinalityNext",
                                "type": "uint16",
                                "value": "2"
                            },
                            {
                                "name": "feeProtocol",
                                "type": "uint8",
                                "value": "0"
                            },
                            {
                                "name": "unlocked",
                                "type": "bool",
                                "value": true
                            }
                        ],
                        "signature": "slot0()"
                    },
                    "errorInfo": "",
                    "fromAddress": "0x98c3d3183c4b8a650614ad179a1a98be0a8d6b8e",
                    "gasUsed": 2696,
                    "id": 1,
                    "methodDecoded": true,
                    "operation": "STATICCALL",
                    "output": "0x00000000000000000000000000000000000000000154a1a44b8d958ff481f7d6fffffffffffffffffffffffffffffffffffffffffffffffffffffffffffe651300000000000000000000000000000000000000000000000000000000000000010000000000000000000000000000000000000000000000000000000000000002000000000000000000000000000000000000000000000000000000000000000200000000000000000000000000000000000000000000000000000000000000000000000000000000000000000000000000000000000000000000000000000001",
                    "revert": false,
                    "revertMessage": "",
                    "selector": "0x3850c7bd",
                    "status": true,
                    "value": "0"
                },
                "nodeType": 0
            },
            "10": {
                "event": {
                    "contract": "0x7c3b1297ac649b36547b913de50919acb45a250c",
                    "decodedLog": {
                        "name": "Swap",
                        "params": [
                            {
                                "name": "sender",
                                "type": "address",
                                "value": "0x98c3d3183c4b8a650614ad179a1a98be0a8d6b8e"
                            },
                            {
                                "name": "recipient",
                                "type": "address",
                                "value": "0x98c3d3183c4b8a650614ad179a1a98be0a8d6b8e"
                            },
                            {
                                "name": "amount0",
                                "type": "int256",
                                "value": "21,064,549,877,763,188,687,364"
                            },
                            {
                                "name": "amount1",
                                "type": "int256",
                                "value": "-565,244,603,131,686,195"
                            },
                            {
                                "name": "sqrtPriceX96",
                                "type": "uint160",
                                "value": "410,264,463,775,547,368,352,573,930"
                            },
                            {
                                "name": "liquidity",
                                "type": "uint128",
                                "value": "29,200,528,376,002,930,566,982"
                            },
                            {
                                "name": "tick",
                                "type": "int24",
                                "value": "-105,271"
                            }
                        ],
                        "signature": "Swap(address,address,int256,int256,uint160,uint128,int24)"
                    },
                    "id": 10,
                    "logData": "0x000000000000000000000000000000000000000000000475e95a7d0ea4df8204fffffffffffffffffffffffffffffffffffffffffffffffff827d9073b2112cd000000000000000000000000000000000000000001535ce1255d23c62200e9ea00000000000000000000000000000000000000000000062ef6bc96f1d8c46746fffffffffffffffffffffffffffffffffffffffffffffffffffffffffffe64c9",
                    "logDecoded": true,
                    "operation": "EVENT",
                    "revert": false,
                    "status": true,
                    "topics": [
                        "0xc42079f94a6350d7e6235f29174924f928cc2ac818eb64fed8004e115fbcca67",
                        "0x00000000000000000000000098c3d3183c4b8a650614ad179a1a98be0a8d6b8e",
                        "0x00000000000000000000000098c3d3183c4b8a650614ad179a1a98be0a8d6b8e"
                    ]
                },
                "nodeType": 1
            },
            "2": {
                "invocation": {
                    "address": "0x7c3b1297ac649b36547b913de50919acb45a250c",
                    "callData": "0x00000000000000000000000098c3d3183c4b8a650614ad179a1a98be0a8d6b8e0000000000000000000000000000000000000000000000000000000000000001000000000000000000000000000000000000000000000475e95a7d0ea4df8204000000000000000000000000000000000000000001535c9257c369f00000000000000000000000000000000000000000000000000000000000000000000000a00000000000000000000000000000000000000000000000000000000000000000",
                    "decodedMethod": {
                        "callParams": [
                            {
                                "name": "recipient",
                                "type": "address",
                                "value": "0x98c3d3183c4b8a650614ad179a1a98be0a8d6b8e"
                            },
                            {
                                "name": "zeroForOne",
                                "type": "bool",
                                "value": true
                            },
                            {
                                "name": "amountSpecified",
                                "type": "int256",
                                "value": "21,064,549,877,763,188,687,364"
                            },
                            {
                                "name": "sqrtPriceLimitX96",
                                "type": "uint160",
                                "value": "410,263,010,114,432,840,450,965,504"
                            },
                            {
                                "name": "data",
                                "type": "bytes",
                                "value": "0x"
                            }
                        ],
                        "constructorArguments": "",
                        "name": "swap",
                        "returnParams": [
                            {
                                "name": "amount0",
                                "type": "int256",
                                "value": "21,064,549,877,763,188,687,364"
                            },
                            {
                                "name": "amount1",
                                "type": "int256",
                                "value": "-565,244,603,131,686,195"
                            }
                        ],
                        "signature": "swap(address,bool,int256,uint160,bytes)"
                    },
                    "errorInfo": "",
                    "fromAddress": "0x98c3d3183c4b8a650614ad179a1a98be0a8d6b8e",
                    "gasUsed": 75155,
                    "id": 2,
                    "methodDecoded": true,
                    "operation": "CALL",
                    "output": "0x000000000000000000000000000000000000000000000475e95a7d0ea4df8204fffffffffffffffffffffffffffffffffffffffffffffffff827d9073b2112cd",
                    "revert": false,
                    "revertMessage": "",
                    "selector": "0x128acb08",
                    "status": true,
                    "value": "0"
                },
                "nodeType": 0
            },
            "3": {
                "invocation": {
                    "address": "0xc02aaa39b223fe8d0a0e5c4f27ead9083c756cc2",
                    "callData": "0x00000000000000000000000098c3d3183c4b8a650614ad179a1a98be0a8d6b8e00000000000000000000000000000000000000000000000007d826f8c4deed33",
                    "decodedMethod": {
                        "callParams": [
                            {
                                "name": "dst",
                                "type": "address",
                                "value": "0x98c3d3183c4b8a650614ad179a1a98be0a8d6b8e"
                            },
                            {
                                "decimalAvailable": true,
                                "name": "wad",
                                "type": "uint256",
                                "value": "565,244,603,131,686,195"
                            }
                        ],
                        "constructorArguments": "",
                        "name": "transfer",
                        "returnParams": [
                            {
                                "name": "",
                                "type": "bool",
                                "value": true
                            }
                        ],
                        "signature": "transfer(address,uint256)"
                    },
                    "errorInfo": "",
                    "fromAddress": "0x7c3b1297ac649b36547b913de50919acb45a250c",
                    "gasUsed": 12862,
                    "id": 3,
                    "methodDecoded": true,
                    "operation": "CALL",
                    "output": "0x0000000000000000000000000000000000000000000000000000000000000001",
                    "revert": false,
                    "revertMessage": "",
                    "selector": "0xa9059cbb",
                    "status": true,
                    "value": "0"
                },
                "nodeType": 0
            },
            "4": {
                "event": {
                    "contract": "0xc02aaa39b223fe8d0a0e5c4f27ead9083c756cc2",
                    "decodedLog": {
                        "name": "Transfer",
                        "params": [
                            {
                                "name": "src",
                                "type": "address",
                                "value": "0x7c3b1297ac649b36547b913de50919acb45a250c"
                            },
                            {
                                "name": "dst",
                                "type": "address",
                                "value": "0x98c3d3183c4b8a650614ad179a1a98be0a8d6b8e"
                            },
                            {
                                "decimalAvailable": true,
                                "name": "wad",
                                "type": "uint256",
                                "value": "565,244,603,131,686,195"
                            }
                        ],
                        "signature": "Transfer(address,address,uint256)"
                    },
                    "id": 4,
                    "logData": "0x00000000000000000000000000000000000000000000000007d826f8c4deed33",
                    "logDecoded": true,
                    "operation": "EVENT",
                    "revert": false,
                    "status": true,
                    "topics": [
                        "0xddf252ad1be2c89b69c2b068fc378daa952ba7f163c4a11628f55a4df523b3ef",
                        "0x0000000000000000000000007c3b1297ac649b36547b913de50919acb45a250c",
                        "0x00000000000000000000000098c3d3183c4b8a650614ad179a1a98be0a8d6b8e"
                    ]
                },
                "nodeType": 1
            },
            "5": {
                "invocation": {
                    "address": "0x8f693ca8d21b157107184d29d398a8d082b38b76",
                    "callData": "0x0000000000000000000000007c3b1297ac649b36547b913de50919acb45a250c",
                    "decodedMethod": {
                        "callParams": [
                            {
                                "name": "account",
                                "type": "address",
                                "value": "0x7c3b1297ac649b36547b913de50919acb45a250c"
                            }
                        ],
                        "constructorArguments": "",
                        "name": "balanceOf",
                        "returnParams": [
                            {
                                "decimalAvailable": true,
                                "name": "",
                                "type": "uint256",
                                "value": "3,290,542,297,859,390,358,106,765"
                            }
                        ],
                        "signature": "balanceOf(address)"
                    },
                    "errorInfo": "",
                    "fromAddress": "0x7c3b1297ac649b36547b913de50919acb45a250c",
                    "gasUsed": 2909,
                    "id": 5,
                    "methodDecoded": true,
                    "operation": "STATICCALL",
                    "output": "0x00000000000000000000000000000000000000000002b8cca7c846d50d47328d",
                    "revert": false,
                    "revertMessage": "",
                    "selector": "0x70a08231",
                    "status": true,
                    "value": "0"
                },
                "nodeType": 0
            },
            "6": {
                "invocation": {
                    "address": "0x98c3d3183c4b8a650614ad179a1a98be0a8d6b8e",
                    "callData": "0x000000000000000000000000000000000000000000000475e95a7d0ea4df8204fffffffffffffffffffffffffffffffffffffffffffffffff827d9073b2112cd00000000000000000000000000000000000000000000000000000000000000600000000000000000000000000000000000000000000000000000000000000000",
                    "decodedMethod": {
                        "callParams": [
                            {
                                "name": "amount0Delta",
                                "type": "int256",
                                "value": "21,064,549,877,763,188,687,364"
                            },
                            {
                                "name": "amount1Delta",
                                "type": "int256",
                                "value": "-565,244,603,131,686,195"
                            },
                            {
                                "name": "data",
                                "type": "bytes",
                                "value": "0x"
                            }
                        ],
                        "constructorArguments": "",
                        "name": "uniswapV3SwapCallback",
                        "returnParams": [],
                        "signature": "uniswapV3SwapCallback(int256,int256,bytes)"
                    },
                    "errorInfo": "",
                    "fromAddress": "0x7c3b1297ac649b36547b913de50919acb45a250c",
                    "gasUsed": 14269,
                    "id": 6,
                    "methodDecoded": true,
                    "operation": "CALL",
                    "output": "",
                    "revert": false,
                    "revertMessage": "",
                    "selector": "0xfa461e33",
                    "status": true,
                    "value": "0"
                },
                "nodeType": 0
            },
            "7": {
                "invocation": {
                    "address": "0x8f693ca8d21b157107184d29d398a8d082b38b76",
                    "callData": "0x0000000000000000000000007c3b1297ac649b36547b913de50919acb45a250c000000000000000000000000000000000000000000000475e95a7d0ea4df8204",
                    "decodedMethod": {
                        "callParams": [
                            {
                                "name": "recipient",
                                "type": "address",
                                "value": "0x7c3b1297ac649b36547b913de50919acb45a250c"
                            },
                            {
                                "decimalAvailable": true,
                                "name": "amount",
                                "type": "uint256",
                                "value": "21,064,549,877,763,188,687,364"
                            }
                        ],
                        "constructorArguments": "",
                        "name": "transfer",
                        "returnParams": [
                            {
                                "name": "",
                                "type": "bool",
                                "value": true
                            }
                        ],
                        "signature": "transfer(address,uint256)"
                    },
                    "errorInfo": "",
                    "fromAddress": "0x98c3d3183c4b8a650614ad179a1a98be0a8d6b8e",
                    "gasUsed": 11770,
                    "id": 7,
                    "methodDecoded": true,
                    "operation": "CALL",
                    "output": "0x0000000000000000000000000000000000000000000000000000000000000001",
                    "revert": false,
                    "revertMessage": "",
                    "selector": "0xa9059cbb",
                    "status": true,
                    "value": "0"
                },
                "nodeType": 0
            },
            "8": {
                "event": {
                    "contract": "0x8f693ca8d21b157107184d29d398a8d082b38b76",
                    "decodedLog": {
                        "name": "Transfer",
                        "params": [
                            {
                                "name": "from",
                                "type": "address",
                                "value": "0x98c3d3183c4b8a650614ad179a1a98be0a8d6b8e"
                            },
                            {
                                "name": "to",
                                "type": "address",
                                "value": "0x7c3b1297ac649b36547b913de50919acb45a250c"
                            },
                            {
                                "decimalAvailable": true,
                                "name": "value",
                                "type": "uint256",
                                "value": "21,064,549,877,763,188,687,364"
                            }
                        ],
                        "signature": "Transfer(address,address,uint256)"
                    },
                    "id": 8,
                    "logData": "0x000000000000000000000000000000000000000000000475e95a7d0ea4df8204",
                    "logDecoded": true,
                    "operation": "EVENT",
                    "revert": false,
                    "status": true,
                    "topics": [
                        "0xddf252ad1be2c89b69c2b068fc378daa952ba7f163c4a11628f55a4df523b3ef",
                        "0x00000000000000000000000098c3d3183c4b8a650614ad179a1a98be0a8d6b8e",
                        "0x0000000000000000000000007c3b1297ac649b36547b913de50919acb45a250c"
                    ]
                },
                "nodeType": 1
            },
            "9": {
                "invocation": {
                    "address": "0x8f693ca8d21b157107184d29d398a8d082b38b76",
                    "callData": "0x0000000000000000000000007c3b1297ac649b36547b913de50919acb45a250c",
                    "decodedMethod": {
                        "callParams": [
                            {
                                "name": "account",
                                "type": "address",
                                "value": "0x7c3b1297ac649b36547b913de50919acb45a250c"
                            }
                        ],
                        "constructorArguments": "",
                        "name": "balanceOf",
                        "returnParams": [
                            {
                                "decimalAvailable": true,
                                "name": "",
                                "type": "uint256",
                                "value": "3,311,606,847,737,153,546,794,129"
                            }
                        ],
                        "signature": "balanceOf(address)"
                    },
                    "errorInfo": "",
                    "fromAddress": "0x7c3b1297ac649b36547b913de50919acb45a250c",
                    "gasUsed": 909,
                    "id": 9,
                    "methodDecoded": true,
                    "operation": "STATICCALL",
                    "output": "0x00000000000000000000000000000000000000000002bd429122c3e3b226b491",
                    "revert": false,
                    "revertMessage": "",
                    "selector": "0x70a08231",
                    "status": true,
                    "value": "0"
                },
                "nodeType": 0
            }
        },
        "gasFlame": [
            {
                "children": [
                    {
                        "children": [
                            {
                                "children": [],
                                "depth": 0,
                                "name": "Initial Gas",
                                "value": 22268
                            },
                            {
                                "children": [
                                    {
                                        "children": [],
                                        "depth": 1,
                                        "name": "slot0",
                                        "value": 2696
                                    },
                                    {
                                        "children": [
                                            {
                                                "children": [],
                                                "depth": 2,
                                                "name": "transfer",
                                                "value": 12862
                                            },
                                            {
                                                "children": [],
                                                "depth": 2,
                                                "name": "balanceOf",
                                                "value": 2909
                                            },
                                            {
                                                "children": [
                                                    {
                                                        "children": [],
                                                        "depth": 3,
                                                        "name": "transfer",
                                                        "value": 11770
                                                    }
                                                ],
                                                "depth": 2,
                                                "name": "uniswapV3SwapCallback",
                                                "value": 14269
                                            },
                                            {
                                                "children": [],
                                                "depth": 2,
                                                "name": "balanceOf",
                                                "value": 909
                                            }
                                        ],
                                        "depth": 1,
                                        "name": "swap",
                                        "value": 75155
                                    }
                                ],
                                "depth": 0,
                                "name": "Executed Gas",
                                "value": 88623
                            }
                        ],
                        "depth": -1,
                        "name": "Actual Gas Used",
                        "value": 110891
                    },
                    {
                        "children": [],
                        "depth": -1,
                        "name": "Refunded Gas",
                        "value": 0
                    }
                ],
                "depth": -2,
                "name": "Total Gas",
                "value": 110891
            }
        ],
        "isConfirmed": true,
        "mainTrace": [
            {
                "children": [
                    {
                        "children": [
                            {
                                "children": [],
                                "depth": 1,
                                "id": 1,
                                "order": 1
                            },
                            {
                                "children": [
                                    {
                                        "children": [
                                            {
                                                "children": [],
                                                "depth": 3,
                                                "id": 4,
                                                "order": 4
                                            }
                                        ],
                                        "depth": 2,
                                        "id": 3,
                                        "order": 3
                                    },
                                    {
                                        "children": [],
                                        "depth": 2,
                                        "id": 5,
                                        "order": 5
                                    },
                                    {
                                        "children": [
                                            {
                                                "children": [
                                                    {
                                                        "children": [],
                                                        "depth": 4,
                                                        "id": 8,
                                                        "order": 8
                                                    }
                                                ],
                                                "depth": 3,
                                                "id": 7,
                                                "order": 7
                                            }
                                        ],
                                        "depth": 2,
                                        "id": 6,
                                        "order": 6
                                    },
                                    {
                                        "children": [],
                                        "depth": 2,
                                        "id": 9,
                                        "order": 9
                                    },
                                    {
                                        "children": [],
                                        "depth": 2,
                                        "id": 10,
                                        "order": 10
                                    }
                                ],
                                "depth": 1,
                                "id": 2,
                                "order": 2
                            }
                        ],
                        "depth": 0,
                        "id": 0,
                        "order": 0
                    }
                ],
                "depth": -1,
                "id": -1,
                "order": -1
            }
        ],
        "mainTraceNodeCount": 11,
        "parentIdMap": {
            "0": -1,
            "1": 0,
            "10": 2,
            "2": 0,
            "3": 2,
            "4": 3,
            "5": 2,
            "6": 2,
            "7": 6,
            "8": 7,
            "9": 2
        },
        "tidyTrace": [
            {
                "children": [
                    {
                        "children": [
                            {
                                "children": [
                                    {
                                        "children": [
                                            {
                                                "children": [],
                                                "depth": 3,
                                                "id": 4,
                                                "order": 4
                                            }
                                        ],
                                        "depth": 2,
                                        "id": 3,
                                        "order": 3
                                    },
                                    {
                                        "children": [
                                            {
                                                "children": [
                                                    {
                                                        "children": [],
                                                        "depth": 4,
                                                        "id": 8,
                                                        "order": 8
                                                    }
                                                ],
                                                "depth": 3,
                                                "id": 7,
                                                "order": 7
                                            }
                                        ],
                                        "depth": 2,
                                        "id": 6,
                                        "order": 6
                                    },
                                    {
                                        "children": [],
                                        "depth": 2,
                                        "id": 10,
                                        "order": 10
                                    }
                                ],
                                "depth": 1,
                                "id": 2,
                                "order": 2
                            }
                        ],
                        "depth": 0,
                        "id": 0,
                        "order": 0
                    }
                ],
                "depth": -1,
                "id": -1,
                "order": -1
            }
        ],
        "tidyTraceNodeCount": 8
    },
    "state_change": {
        "stateChanges": [
            {
                "address": "0x7c3b1297ac649b36547b913de50919acb45a250c",
                "erc": "",
                "slots": [
                    {
                        "current": "0x000100000200020000fe64c9000000000000000001535ce1255d23c62200e9ea",
                        "key": "0x0000000000000000000000000000000000000000000000000000000000000000",
                        "prev": "0x000100000200020001fe651300000000000000000154a1a44b8d958ff481f7d6"
                    },
                    {
                        "current": "0x010000000000000000000096e0fa28378beb1b4927fffbad2128a1ad63c9353f",
                        "key": "0x0000000000000000000000000000000000000000000000000000000000000008",
                        "prev": "0x010000000000000000000096e0b82caeb29d46b0a3fffbad23b7bffd63c933a7"
                    },
                    {
                        "current": "0x0000000000000000000000000000000e1173fa939097caa842775e62c142bdbb",
                        "key": "0x0000000000000000000000000000000000000000000000000000000000000001",
                        "prev": "0x0000000000000000000000000000000e10e6268d346f21968dd2414cf605b812"
                    }
                ],
                "storageVariables": []
            },
            {
                "address": "0x8f693ca8d21b157107184d29d398a8d082b38b76",
                "erc": "ERC-20",
                "slots": [
                    {
                        "current": "0x00000000000000000000000000000000000000000000153b72136ee5789beb67",
                        "key": "0xf4e54bb51e10c9ff52102ae731b015539d4e9d60e64768267b59846a24141fd7",
                        "prev": "0x0000000000000000000000000000000000000000000019b15b6debf41d7b6d6b"
                    },
                    {
                        "current": "0x00000000000000000000000000000000000000000002bd429122c3e3b226b491",
                        "key": "0x103d2335be6c24ba7cd18e4ade3c83e68b39831464739c81572212ed9713d170",
                        "prev": "0x00000000000000000000000000000000000000000002b8cca7c846d50d47328d"
                    }
                ],
                "storageVariables": [
                    {
                        "name": "_balances",
                        "type": "mapping(address => uint256)",
                        "value": {
                            "pairs": [
                                {
                                    "key": "0x7c3b1297ac649b36547b913de50919acb45a250c",
                                    "value": {
                                        "current": "3311606847737153546794129",
                                        "prev": "3290542297859390358106765",
                                        "typeTag": 1
                                    }
                                },
                                {
                                    "key": "0x98c3d3183c4b8a650614ad179a1a98be0a8d6b8e",
                                    "value": {
                                        "current": "100266274076288144370535",
                                        "prev": "121330823954051333057899",
                                        "typeTag": 1
                                    }
                                }
                            ],
                            "typeTag": 4
                        }
                    }
                ]
            },
            {
                "address": "0xc02aaa39b223fe8d0a0e5c4f27ead9083c756cc2",
                "erc": "ERC-20",
                "slots": [
                    {
                        "current": "0x0000000000000000000000000000000000000000000000023518a460245a78ad",
                        "key": "0xda84f19334d8fabc319a318ca0d26c48746f8f2cf4b046c745ca0c523a023bff",
                        "prev": "0x0000000000000000000000000000000000000000000000023cf0cb58e93965e0"
                    },
                    {
                        "current": "0x0000000000000000000000000000000000000000000000824ee208a94bdf2294",
                        "key": "0x993460b7a842a34c6de2dc08dde1c527f4354825432b190bba2e4f8a7b04c6c8",
                        "prev": "0x0000000000000000000000000000000000000000000000824709e1b087003561"
                    }
                ],
                "storageVariables": [
                    {
                        "name": "balanceOf",
                        "type": "mapping(address => uint256)",
                        "value": {
                            "pairs": [
                                {
                                    "key": "0x7c3b1297ac649b36547b913de50919acb45a250c",
                                    "value": {
                                        "current": "40719476763704064173",
                                        "prev": "41284721366835750368",
                                        "typeTag": 1
                                    }
                                },
                                {
                                    "key": "0x98c3d3183c4b8a650614ad179a1a98be0a8d6b8e",
                                    "value": {
                                        "current": "2403760844785152107156",
                                        "prev": "2403195600182020420961",
                                        "typeTag": 1
                                    }
                                }
                            ],
                            "typeTag": 4
                        }
                    }
                ]
            }
        ]
    }
}