{
    "balance_change": {
        "balanceChanges": [
            {
                "account": "0x7ece946a162c2942072b3f31cc5e67c7c777313f",
                "assets": [
                    {
                        "address": "0x457476bc97adef10aba63fcadaefe503553fa0d2",
                        "amount": "0.000001",
                        "iconUrl": "",
                        "isERC1155": false,
                        "isERC721": false,
                        "sign": false,
                        "value": ""
                    }
                ]
            },
            {
                "account": "0x813ff90687b68894a3a145082b8f31f1956414b3",
                "assets": [
                    {
                        "address": "0x457476bc97adef10aba63fcadaefe503553fa0d2",
                        "amount": "0.000001",
                        "iconUrl": "",
                        "isERC1155": false,
                        "isERC721": false,
                        "sign": true,
                        "value": ""
                    }
                ]
            }
        ]
    },
    "profile": {
        "basic_info": {
            "baseFee": "",
            "blockNumber": 8947761,
            "callData": "0xa9059cbb000000000000000000000000813ff90687b68894a3a145082b8f31f1956414b3000000000000000000000000000000000000000000000000000000e8d4a51000",
            "debugEnable": true,
            "errorInfo": "",
            "eventCount": 1,
            "feeRecipient": "0x06b8c5883ec71bc3f4b332081519f23834c8706e",
            "formatValue": "0",
            "gasLimit": 470000,
            "gasPrice": "1.5",
            "gasUsed": 52290,
            "intTxnCount": 0,
            "internalRevert": false,
            "internalRevertMessage": "",
            "isContractCreation": false,
            "isFlashloan": false,
            "maxFee": "",
            "nonce": 40381,
            "overwritedBlockNumber": -1,
            "priorityFee": "",
            "receiver": "0x457476bc97adef10aba63fcadaefe503553fa0d2",
            "revertMessage": "",
            "sender": "0x7ece946a162c2942072b3f31cc5e67c7c777313f",
            "simulationEnable": true,
            "sourceTxnHash": "0x6244dfdfc2c01475c48e4aee3035c28b4e898f11973f764f24c77753417da599",
            "status": true,
            "timestamp": "2019-11-17T01:38:48Z",
            "transactionFee": "0.000078435",
            "txnHash": "0x6244dfdfc2c01475c48e4aee3035c28b4e898f11973f764f24c77753417da599",
            "txnIndex": 24,
            "type": 0,
            "value": "0"
        },
        "fund_flow": [
            {
                "amount": "0.000001",
                "from": "0x7ece946a162c2942072b3f31cc5e67c7c777313f",
                "id": 1,
                "isERC1155": false,
                "isERC721": false,
                "isReverted": false,
                "order": 1,
                "to": "0x813ff90687b68894a3a145082b8f31f1956414b3",
                "token": "0x457476bc97adef10aba63fcadaefe503553fa0d2"
            }
        ],
        "token_infos": [
            {
                "address": "0x457476bc97adef10aba63fcadaefe503553fa0d2",
                "decimals": 18
            },
            {
                "address": "0xc02aaa39b223fe8d0a0e5c4f27ead9083c756cc2",
                "decimals": 18
            },
            {
                "address": "0xeeeeeeeeeeeeeeeeeeeeeeeeeeeeeeeeeeeeeeee",
                "decimals": 18
            }
        ]
    },
    "address_label": {
        "labels": [
            {
                "address": "0xeeeeeeeeeeeeeeeeeeeeeeeeeeeeeeeeeeeeeeee",
                "label": "Ether"
            },
            {
                "address": "0x457476bc97adef10aba63fcadaefe503553fa0d2",
                "label": "UBNK (UBNK)"
            },
            {
                "address": "0x0000000000000000000000000000000000000001",
                "label": "Precompiled"
            },
            {
                "address": "0x0000000000000000000000000000000000000002",
                "label": "Precompiled"
            },
            {
                "address": "0x0000000000000000000000000000000000000003",
                "label": "Precompiled"
            },
            {
                "address": "0x0000000000000000000000000000000000000004",
                "label": "Precompiled"
            }
        ]
    },
    "trace": {
        "accountLabels": null,
        "dataMap": {
            "-1": {
                "invocation": {
                    "address": "0x7ece946a162c2942072b3f31cc5e67c7c777313f",
                    "callData": "",
                    "decodedMethod": null,
                    "errorInfo": "",
                    "fromAddress": "",
                    "gasUsed": 0,
                    "id": -1,
                    "methodDecoded": false,
                    "operation": "",
                    "output": "",
                    "revert": false,
                    "revertMessage": "",
                    "selector": "",
                    "status": false,
                    "value": ""
                },
                "nodeType": 0
            },
            "0": {
                "invocation": {
                    "address": "0x457476bc97adef10aba63fcadaefe503553fa0d2",
                    "callData": "0x000000000000000000000000813ff90687b68894a3a145082b8f31f1956414b3000000000000000000000000000000000000000000000000000000e8d4a51000",
                    "decodedMethod": {
                        "callParams": [
                            {
                                "name": "_to",
                                "type": "address",
                                "value": "0x813ff90687b68894a3a145082b8f31f1956414b3"
                            },
                            {
                                "decimalAvailable": true,
                                "name": "_value",
                                "type": "uint256",
                                "value": "1,000,000,000,000"
                            }
                        ],
                        "constructorArguments": "",
                        "name": "transfer",
                        "returnParams": [
                            {
                                "name": "_success",
                                "type": "bool",
                                "value": true
                            }
                        ],
                        "signature": "transfer(address,uint256)"
                    },
                    "errorInfo": "",
                    "fromAddress": "0x7ece946a162c2942072b3f31cc5e67c7c777313f",
                    "gasUsed": 52290,
                    "id": 0,
                    "methodDecoded": true,
                    "operation": "CALL",
                    "output": "0x0000000000000000000000000000000000000000000000000000000000000001",
                    "revert": false,
                    "revertMessage": "",
                    "selector": "0xa9059cbb",
                    "status": true,
                    "value": "0"
                },
                "nodeType": 0
            },
            "1": {
                "event": {
                    "contract": "0x457476bc97adef10aba63fcadaefe503553fa0d2",
                    "decodedLog": {
                        "name": "Transfer",
                        "params": [
                            {
                                "name": "_from",
                                "type": "address",
                                "value": "0x7ece946a162c2942072b3f31cc5e67c7c777313f"
                            },
                            {
                                "name": "_to",
                                "type": "address",
                                "value": "0x813ff90687b68894a3a145082b8f31f1956414b3"
                            },
                            {
                                "decimalAvailable": true,
                                "name": "_value",
                                "type": "uint256",
                                "value": "1,000,000,000,000"
                            }
                        ],
                        "signature": "Transfer(address,address,uint256)"
                    },
                    "id": 1,
                    "logData": "0x000000000000000000000000000000000000000000000000000000e8d4a51000",
                    "logDecoded": true,
                    "operation": "EVENT",
                    "revert": false,
                    "status": true,
                    "topics": [
                        "0xddf252ad1be2c89b69c2b068fc378daa952ba7f163c4a11628f55a4df523b3ef",
                        "0x0000000000000000000000007ece946a162c2942072b3f31cc5e67c7c777313f",
                        "0x000000000000000000000000813ff90687b68894a3a145082b8f31f1956414b3"
                    ]
                },
                "nodeType": 1
            }
        },
        "gasFlame": [
            {
                "children": [
                    {
                        "children": [
                            {
                                "children": [],
                                "depth": 0,
                                "name": "Initial Gas",
                                "value": 23064
                            },
                            {
                                "children": [],
                                "depth": 0,
                                "name": "Executed Gas",
                                "value": 29226
                            }
                        ],
                        "depth": -1,
                        "name": "Actual Gas Used",
                        "value": 52290
                    },
                    {
                        "children": [],
                        "depth": -1,
                        "name": "Refunded Gas",
                        "value": 0
                    }
                ],
                "depth": -2,
                "name": "Total Gas",
                "value": 52290
            }
        ],
        "isConfirmed": true,
        "mainTrace": [
            {
                "children": [
                    {
                        "children": [
                            {
                                "children": [],
                                "depth": 1,
                                "id": 1,
                                "order": 1
                            }
                        ],
                        "depth": 0,
                        "id": 0,
                        "order": 0
                    }
                ],
                "depth": -1,
                "id": -1,
                "order": -1
            }
        ],
        "mainTraceNodeCount": 2,
        "parentIdMap": {
            "0": -1,
            "1": 0
        },
        "tidyTrace": [
            {
                "children": [
                    {
                        "children": [
                            {
                                "children": [],
                                "depth": 1,
                                "id": 1,
                                "order": 1
                            }
                        ],
                        "depth": 0,
                        "id": 0,
                        "order": 0
                    }
                ],
                "depth": -1,
                "id": -1,
                "order": -1
            }
        ],
        "tidyTraceNodeCount": 2
    },
    "state_change": {
        "stateChanges": [
            {
                "address": "0x457476bc97adef10aba63fcadaefe503553fa0d2",
                "erc": "ERC-20",
                "slots": [
                    {
                        "current": "0x0000000000000000000000000000000000000000000000000822ceba0da8f12c",
                        "key": "0x7ad358aaa285a7dcb83bef9981d1ce3e165b36b9f57ac3cdc10cd716bd5c7434",
                        "prev": "0x0000000000000000000000000000000000000000000000000822cfa2e24e012c"
                    },
                    {
                        "current": "0x000000000000000000000000000000000000000000000000000000e8d4a51000",
                        "key": "0xb7e56480b262d6bb88817ce0b6689f936428918e46b1145d5cee7211f330c557",
                        "prev": "0x0000000000000000000000000000000000000000000000000000000000000000"
                    }
                ],
                "storageVariables": [
                    {
                        "name": "balanceP",
                        "type": "mapping(address => uint256)",
                        "value": {
                            "pairs": [
                                {
                                    "key": "0x7ece946a162c2942072b3f31cc5e67c7c777313f",
                                    "value": {
                                        "current": "586258200000000300",
                                        "prev": "586259200000000300",
                                        "typeTag": 1
                                    }
                                },
                                {
                                    "key": "0x813ff90687b68894a3a145082b8f31f1956414b3",
                                    "value": {
                                        "current": "1000000000000",
                                        "prev": "0",
                                        "typeTag": 1
                                    }
                                }
                            ],
                            "typeTag": 4
                        }
                    }
                ]
            }
        ]
    }
}