{
    "balance_change": {
        "balanceChanges": [
            {
                "account": "0x0087bb802d9c0e343f00510000729031ce00bf27",
                "assets": [
                    {
                        "address": "0x5283d291dbcf85356a21ba090e6db59121208b44",
                        "amount": "5,811.207676534573392456",
                        "iconUrl": "",
                        "isERC1155": false,
                        "isERC721": false,
                        "sign": true,
                        "value": "7612.6820568700003093"
                    },
                    {
                        "address": "0xc02aaa39b223fe8d0a0e5c4f27ead9083c756cc2",
                        "amount": "4.5218853008",
                        "iconUrl": "https://assets.blocksec.com/icon/f1cb2d02c471d545bbc7722daf3277fd852d98e63d118771af7047bd8256c516.png",
                        "isERC1155": false,
                        "isERC721": false,
                        "sign": false,
                        "value": "7663.83534"
                    }
                ]
            },
            {
                "account": "0x824a30f2984f9013f2c8d0a29c0a3cc5fd5c0673",
                "assets": [
                    {
                        "address": "0x5283d291dbcf85356a21ba090e6db59121208b44",
                        "amount": "5,811.207676534573392456",
                        "iconUrl": "",
                        "isERC1155": false,
                        "isERC721": false,
                        "sign": false,
                        "value": "7612.6820568700003093"
                    },
                    {
                        "address": "0xc02aaa39b223fe8d0a0e5c4f27ead9083c756cc2",
                        "amount": "4.5218853008",
                        "iconUrl": "https://assets.blocksec.com/icon/f1cb2d02c471d545bbc7722daf3277fd852d98e63d118771af7047bd8256c516.png",
                        "isERC1155": false,
                        "isERC721": false,
                        "sign": true,
                        "value": "7663.83534"
                    }
                ]
            }
        ]
    },
    "profile": {
        "basic_info": {
            "baseFee": "18.561248202",
            "blockNumber": 16661260,
            "callData": "0x1e1326a3000000000000000000000000824a30f2984f9013f2c8d0a29c0a3cc5fd5c06730000000000000000000000000000000000000000000000003ec0f6b91d3e900000000000000000000000000000000000000000000000013b06a06a80c4d000000000000000000000000000000000000000000000000000000000000000000000",
            "debugEnable": true,
            "errorInfo": "",
            "eventCount": 3,
            "feeRecipient": "0xdafea492d9c6733ae3d56b7ed1adb60692c98bc5",
            "formatValue": "0",
            "gasLimit": 133050,
            "gasPrice": "40.563136319",
            "gasUsed": 110875,
            "intTxnCount": 7,
            "internalRevert": false,
            "internalRevertMessage": "",
            "isContractCreation": false,
            "isFlashloan": false,
            "maxFee": "40.563136319",
            "nonce": 3963,
            "overwritedBlockNumber": -1,
            "priorityFee": "40.563136319",
            "receiver": "0x0087bb802d9c0e343f00510000729031ce00bf27",
            "revertMessage": "",
            "sender": "0x09508fabe568914bbec35301a633ed39870666cb",
            "simulationEnable": true,
            "sourceTxnHash": "0x6249575c11357c3168e2aec520bf612e6993863557a5b70ce7cdeda9b696d44b",
            "status": true,
            "timestamp": "2023-02-19T07:49:35Z",
            "transactionFee": "0.004497437739369125",
            "txnHash": "0x6249575c11357c3168e2aec520bf612e6993863557a5b70ce7cdeda9b696d44b",
            "txnIndex": 2,
            "type": 2,
            "value": "0"
        },
        "fund_flow": [
            {
                "amount": "5,811.207676534573392456",
                "from": "0x824a30f2984f9013f2c8d0a29c0a3cc5fd5c0673",
                "id": 1,
                "isERC1155": false,
                "isERC721": false,
                "isReverted": false,
                "order": 1,
                "to": "0x0087bb802d9c0e343f00510000729031ce00bf27",
                "token": "0x5283d291dbcf85356a21ba090e6db59121208b44"
            },
            {
                "amount": "4.5218853008",
                "from": "0x0087bb802d9c0e343f00510000729031ce00bf27",
                "id": 2,
                "isERC1155": false,
                "isERC721": false,
                "isReverted": false,
                "order": 2,
                "to": "0x824a30f2984f9013f2c8d0a29c0a3cc5fd5c0673",
                "token": "0xc02aaa39b223fe8d0a0e5c4f27ead9083c756cc2"
            }
        ],
        "token_infos": [
            {
                "address": "0xc02aaa39b223fe8d0a0e5c4f27ead9083c756cc2",
                "decimals": 18
            },
            {
                "address": "0xeeeeeeeeeeeeeeeeeeeeeeeeeeeeeeeeeeeeeeee",
                "decimals": 18
            },
            {
                "address": "0x5283d291dbcf85356a21ba090e6db59121208b44",
                "decimals": 18
            }
        ]
    },
    "address_label": {
        "labels": [
            {
                "address": "0xeeeeeeeeeeeeeeeeeeeeeeeeeeeeeeeeeeeeeeee",
                "label": "Ether"
            },
            {
                "address": "0x5283d291dbcf85356a21ba090e6db59121208b44",
                "label": "Blur: BLUR Token"
            },
            {
                "address": "0xc02aaa39b223fe8d0a0e5c4f27ead9083c756cc2",
                "label": "Wrapped Ether (WETH)"
            },
            {
                "address": "0x824a30f2984f9013f2c8d0a29c0a3cc5fd5c0673",
                "label": "Uniswap V3: BLUR 7"
            },
            {
                "address": "0x0000000000000000000000000000000000000001",
                "label": "Precompiled"
            },
            {
                "address": "0x0000000000000000000000000000000000000002",
                "label": "Precompiled"
            },
            {
                "address": "0x0000000000000000000000000000000000000003",
                "label": "Precompiled"
            },
            {
                "address": "0x0000000000000000000000000000000000000004",
                "label": "Precompiled"
            }
        ]
    },
    "trace": {
        "accountLabels": null,
        "dataMap": {
            "-1": {
                "invocation": {
                    "address": "0x09508fabe568914bbec35301a633ed39870666cb",
                    "callData": "",
                    "decodedMethod": null,
                    "errorInfo": "",
                    "fromAddress": "",
                    "gasUsed": 0,
                    "id": -1,
                    "methodDecoded": false,
                    "operation": "",
                    "output": "",
                    "revert": false,
                    "revertMessage": "",
                    "selector": "",
                    "status": false,
                    "value": ""
                },
                "nodeType": 0
            },
            "0": {
                "invocation": {
                    "address": "0x0087bb802d9c0e343f00510000729031ce00bf27",
                    "callData": "0x000000000000000000000000824a30f2984f9013f2c8d0a29c0a3cc5fd5c06730000000000000000000000000000000000000000000000003ec0f6b91d3e900000000000000000000000000000000000000000000000013b06a06a80c4d000000000000000000000000000000000000000000000000000000000000000000000",
                    "decodedMethod": null,
                    "errorInfo": "",
                    "fromAddress": "0x09508fabe568914bbec35301a633ed39870666cb",
                    "gasUsed": 110875,
                    "id": 0,
                    "methodDecoded": false,
                    "operation": "CALL",
                    "output": "",
                    "revert": false,
                    "revertMessage": "",
                    "selector": "0x1e1326a3",
                    "status": true,
                    "value": "0"
                },
                "nodeType": 0
            },
            "1": {
                "invocation": {
                    "address": "0x824a30f2984f9013f2c8d0a29c0a3cc5fd5c0673",
                    "callData": "0x0000000000000000000000000087bb802d9c0e343f00510000729031ce00bf2700000000000000000000000000000000000000000000000000000000000000000000000000000000000000000000000000000000000000003ec0f6b91d3e9000000000000000000000000000fffd8963efd1fc6a506488495d951d5263988d2500000000000000000000000000000000000000000000000000000000000000a00000000000000000000000000000000000000000000000000000000000000000",
                    "decodedMethod": {
                        "callParams": [
                            {
                                "name": "recipient",
                                "type": "address",
                                "value": "0x0087bb802d9c0e343f00510000729031ce00bf27"
                            },
                            {
                                "name": "zeroForOne",
                                "type": "bool",
                                "value": false
                            },
                            {
                                "name": "amountSpecified",
                                "type": "int256",
                                "value": "4,521,885,300,800,000,000"
                            },
                            {
                                "name": "sqrtPriceLimitX96",
                                "type": "uint160",
                                "value": "1,461,446,703,485,210,103,287,273,052,203,988,822,378,723,970,341"
                            },
                            {
                                "name": "data",
                                "type": "bytes",
                                "value": "0x"
                            }
                        ],
                        "constructorArguments": "",
                        "name": "swap",
                        "returnParams": [
                            {
                                "name": "amount0",
                                "type": "int256",
                                "value": "-5,811,207,676,534,573,392,456"
                            },
                            {
                                "name": "amount1",
                                "type": "int256",
                                "value": "4,521,885,300,800,000,000"
                            }
                        ],
                        "signature": "swap(address,bool,int256,uint160,bytes)"
                    },
                    "errorInfo": "",
                    "fromAddress": "0x0087bb802d9c0e343f00510000729031ce00bf27",
                    "gasUsed": 78331,
                    "id": 1,
                    "methodDecoded": true,
                    "operation": "CALL",
                    "output": "0xfffffffffffffffffffffffffffffffffffffffffffffec4f94aff4a25a59db80000000000000000000000000000000000000000000000003ec0f6b91d3e9000",
                    "revert": false,
                    "revertMessage": "",
                    "selector": "0x128acb08",
                    "status": true,
                    "value": "0"
                },
                "nodeType": 0
            },
            "10": {
                "event": {
                    "contract": "0x824a30f2984f9013f2c8d0a29c0a3cc5fd5c0673",
                    "decodedLog": {
                        "name": "Swap",
                        "params": [
                            {
                                "name": "sender",
                                "type": "address",
                                "value": "0x0087bb802d9c0e343f00510000729031ce00bf27"
                            },
                            {
                                "name": "recipient",
                                "type": "address",
                                "value": "0x0087bb802d9c0e343f00510000729031ce00bf27"
                            },
                            {
                                "name": "amount0",
                                "type": "int256",
                                "value": "-5,811,207,676,534,573,392,456"
                            },
                            {
                                "name": "amount1",
                                "type": "int256",
                                "value": "4,521,885,300,800,000,000"
                            },
                            {
                                "name": "sqrtPriceX96",
                                "type": "uint160",
                                "value": "2,206,916,128,884,109,867,178,085,919"
                            },
                            {
                                "name": "liquidity",
                                "type": "uint128",
                                "value": "1,095,184,561,677,020,191,181,345"
                            },
                            {
                                "name": "tick",
                                "type": "int24",
                                "value": "-71,619"
                            }
                        ],
                        "signature": "Swap(address,address,int256,int256,uint160,uint128,int24)"
                    },
                    "id": 10,
                    "logData": "0xfffffffffffffffffffffffffffffffffffffffffffffec4f94aff4a25a59db80000000000000000000000000000000000000000000000003ec0f6b91d3e90000000000000000000000000000000000000000000072184ab124c06c314114e1f00000000000000000000000000000000000000000000e7ea12f514c1b13eca21fffffffffffffffffffffffffffffffffffffffffffffffffffffffffffee83d",
                    "logDecoded": true,
                    "operation": "EVENT",
                    "revert": false,
                    "status": true,
                    "topics": [
                        "0xc42079f94a6350d7e6235f29174924f928cc2ac818eb64fed8004e115fbcca67",
                        "0x0000000000000000000000000087bb802d9c0e343f00510000729031ce00bf27",
                        "0x0000000000000000000000000087bb802d9c0e343f00510000729031ce00bf27"
                    ]
                },
                "nodeType": 1
            },
            "2": {
                "invocation": {
                    "address": "0x5283d291dbcf85356a21ba090e6db59121208b44",
                    "callData": "0x0000000000000000000000000087bb802d9c0e343f00510000729031ce00bf2700000000000000000000000000000000000000000000013b06b500b5da5a6248",
                    "decodedMethod": {
                        "callParams": [
                            {
                                "name": "to",
                                "type": "address",
                                "value": "0x0087bb802d9c0e343f00510000729031ce00bf27"
                            },
                            {
                                "decimalAvailable": true,
                                "name": "amount",
                                "type": "uint256",
                                "value": "5,811,207,676,534,573,392,456"
                            }
                        ],
                        "constructorArguments": "",
                        "name": "transfer",
                        "returnParams": [
                            {
                                "name": "",
                                "type": "bool",
                                "value": true
                            }
                        ],
                        "signature": "transfer(address,uint256)"
                    },
                    "errorInfo": "",
                    "fromAddress": "0x824a30f2984f9013f2c8d0a29c0a3cc5fd5c0673",
                    "gasUsed": 17219,
                    "id": 2,
                    "methodDecoded": true,
                    "operation": "CALL",
                    "output": "0x0000000000000000000000000000000000000000000000000000000000000001",
                    "revert": false,
                    "revertMessage": "",
                    "selector": "0xa9059cbb",
                    "status": true,
                    "value": "0"
                },
                "nodeType": 0
            },
            "3": {
                "event": {
                    "contract": "0x5283d291dbcf85356a21ba090e6db59121208b44",
                    "decodedLog": {
                        "name": "Transfer",
                        "params": [
                            {
                                "name": "from",
                                "type": "address",
                                "value": "0x824a30f2984f9013f2c8d0a29c0a3cc5fd5c0673"
                            },
                            {
                                "name": "to",
                                "type": "address",
                                "value": "0x0087bb802d9c0e343f00510000729031ce00bf27"
                            },
                            {
                                "decimalAvailable": true,
                                "name": "value",
                                "type": "uint256",
                                "value": "5,811,207,676,534,573,392,456"
                            }
                        ],
                        "signature": "Transfer(address,address,uint256)"
                    },
                    "id": 3,
                    "logData": "0x00000000000000000000000000000000000000000000013b06b500b5da5a6248",
                    "logDecoded": true,
                    "operation": "EVENT",
                    "revert": false,
                    "status": true,
                    "topics": [
                        "0xddf252ad1be2c89b69c2b068fc378daa952ba7f163c4a11628f55a4df523b3ef",
                        "0x000000000000000000000000824a30f2984f9013f2c8d0a29c0a3cc5fd5c0673",
                        "0x0000000000000000000000000087bb802d9c0e343f00510000729031ce00bf27"
                    ]
                },
                "nodeType": 1
            },
            "4": {
                "invocation": {
                    "address": "0xc02aaa39b223fe8d0a0e5c4f27ead9083c756cc2",
                    "callData": "0x000000000000000000000000824a30f2984f9013f2c8d0a29c0a3cc5fd5c0673",
                    "decodedMethod": {
                        "callParams": [
                            {
                                "name": "",
                                "type": "address",
                                "value": "0x824a30f2984f9013f2c8d0a29c0a3cc5fd5c0673"
                            }
                        ],
                        "constructorArguments": "",
                        "name": "balanceOf",
                        "returnParams": [
                            {
                                "decimalAvailable": true,
                                "name": "",
                                "type": "uint256",
                                "value": "4,145,585,290,638,028,184,787"
                            }
                        ],
                        "signature": "balanceOf(address)"
                    },
                    "errorInfo": "",
                    "fromAddress": "0x824a30f2984f9013f2c8d0a29c0a3cc5fd5c0673",
                    "gasUsed": 2534,
                    "id": 4,
                    "methodDecoded": true,
                    "operation": "STATICCALL",
                    "output": "0x0000000000000000000000000000000000000000000000e0bb8d9195442c1cd3",
                    "revert": false,
                    "revertMessage": "",
                    "selector": "0x70a08231",
                    "status": true,
                    "value": "0"
                },
                "nodeType": 0
            },
            "5": {
                "invocation": {
                    "address": "0x0087bb802d9c0e343f00510000729031ce00bf27",
                    "callData": "0xfffffffffffffffffffffffffffffffffffffffffffffec4f94aff4a25a59db80000000000000000000000000000000000000000000000003ec0f6b91d3e900000000000000000000000000000000000000000000000000000000000000000600000000000000000000000000000000000000000000000000000000000000000",
                    "decodedMethod": {
                        "callParams": [
                            {
                                "name": "amount0Delta",
                                "type": "int256",
                                "value": "-5,811,207,676,534,573,392,456"
                            },
                            {
                                "name": "amount1Delta",
                                "type": "int256",
                                "value": "4,521,885,300,800,000,000"
                            },
                            {
                                "name": "data",
                                "type": "bytes",
                                "value": "0x"
                            }
                        ],
                        "constructorArguments": "",
                        "name": "uniswapV3SwapCallback",
                        "returnParams": [],
                        "signature": "uniswapV3SwapCallback(int256,int256,bytes)"
                    },
                    "errorInfo": "",
                    "fromAddress": "0x824a30f2984f9013f2c8d0a29c0a3cc5fd5c0673",
                    "gasUsed": 13291,
                    "id": 5,
                    "methodDecoded": true,
                    "operation": "CALL",
                    "output": "",
                    "revert": false,
                    "revertMessage": "",
                    "selector": "0xfa461e33",
                    "status": true,
                    "value": "0"
                },
                "nodeType": 0
            },
            "6": {
                "invocation": {
                    "address": "0x824a30f2984f9013f2c8d0a29c0a3cc5fd5c0673",
                    "callData": "0x",
                    "decodedMethod": {
                        "callParams": [],
                        "constructorArguments": "",
                        "name": "token1",
                        "returnParams": [
                            {
                                "name": "",
                                "type": "address",
                                "value": "0xc02aaa39b223fe8d0a0e5c4f27ead9083c756cc2"
                            }
                        ],
                        "signature": "token1()"
                    },
                    "errorInfo": "",
                    "fromAddress": "0x0087bb802d9c0e343f00510000729031ce00bf27",
                    "gasUsed": 308,
                    "id": 6,
                    "methodDecoded": true,
                    "operation": "STATICCALL",
                    "output": "0x000000000000000000000000c02aaa39b223fe8d0a0e5c4f27ead9083c756cc2",
                    "revert": false,
                    "revertMessage": "",
                    "selector": "0xd21220a7",
                    "status": true,
                    "value": "0"
                },
                "nodeType": 0
            },
            "7": {
                "invocation": {
                    "address": "0xc02aaa39b223fe8d0a0e5c4f27ead9083c756cc2",
                    "callData": "0x000000000000000000000000824a30f2984f9013f2c8d0a29c0a3cc5fd5c06730000000000000000000000000000000000000000000000003ec0f6b91d3e9000",
                    "decodedMethod": {
                        "callParams": [
                            {
                                "name": "dst",
                                "type": "address",
                                "value": "0x824a30f2984f9013f2c8d0a29c0a3cc5fd5c0673"
                            },
                            {
                                "decimalAvailable": true,
                                "name": "wad",
                                "type": "uint256",
                                "value": "4,521,885,300,800,000,000"
                            }
                        ],
                        "constructorArguments": "",
                        "name": "transfer",
                        "returnParams": [
                            {
                                "name": "",
                                "type": "bool",
                                "value": true
                            }
                        ],
                        "signature": "transfer(address,uint256)"
                    },
                    "errorInfo": "",
                    "fromAddress": "0x0087bb802d9c0e343f00510000729031ce00bf27",
                    "gasUsed": 10862,
                    "id": 7,
                    "methodDecoded": true,
                    "operation": "CALL",
                    "output": "0x0000000000000000000000000000000000000000000000000000000000000001",
                    "revert": false,
                    "revertMessage": "",
                    "selector": "0xa9059cbb",
                    "status": true,
                    "value": "0"
                },
                "nodeType": 0
            },
            "8": {
                "event": {
                    "contract": "0xc02aaa39b223fe8d0a0e5c4f27ead9083c756cc2",
                    "decodedLog": {
                        "name": "Transfer",
                        "params": [
                            {
                                "name": "src",
                                "type": "address",
                                "value": "0x0087bb802d9c0e343f00510000729031ce00bf27"
                            },
                            {
                                "name": "dst",
                                "type": "address",
                                "value": "0x824a30f2984f9013f2c8d0a29c0a3cc5fd5c0673"
                            },
                            {
                                "decimalAvailable": true,
                                "name": "wad",
                                "type": "uint256",
                                "value": "4,521,885,300,800,000,000"
                            }
                        ],
                        "signature": "Transfer(address,address,uint256)"
                    },
                    "id": 8,
                    "logData": "0x0000000000000000000000000000000000000000000000003ec0f6b91d3e9000",
                    "logDecoded": true,
                    "operation": "EVENT",
                    "revert": false,
                    "status": true,
                    "topics": [
                        "0xddf252ad1be2c89b69c2b068fc378daa952ba7f163c4a11628f55a4df523b3ef",
                        "0x0000000000000000000000000087bb802d9c0e343f00510000729031ce00bf27",
                        "0x000000000000000000000000824a30f2984f9013f2c8d0a29c0a3cc5fd5c0673"
                    ]
                },
                "nodeType": 1
            },
            "9": {
                "invocation": {
                    "address": "0xc02aaa39b223fe8d0a0e5c4f27ead9083c756cc2",
                    "callData": "0x000000000000000000000000824a30f2984f9013f2c8d0a29c0a3cc5fd5c0673",
                    "decodedMethod": {
                        "callParams": [
                            {
                                "name": "",
                                "type": "address",
                                "value": "0x824a30f2984f9013f2c8d0a29c0a3cc5fd5c0673"
                            }
                        ],
                        "constructorArguments": "",
                        "name": "balanceOf",
                        "returnParams": [
                            {
                                "decimalAvailable": true,
                                "name": "",
                                "type": "uint256",
                                "value": "4,150,107,175,938,828,184,787"
                            }
                        ],
                        "signature": "balanceOf(address)"
                    },
                    "errorInfo": "",
                    "fromAddress": "0x824a30f2984f9013f2c8d0a29c0a3cc5fd5c0673",
                    "gasUsed": 534,
                    "id": 9,
                    "methodDecoded": true,
                    "operation": "STATICCALL",
                    "output": "0x0000000000000000000000000000000000000000000000e0fa4e884e616aacd3",
                    "revert": false,
                    "revertMessage": "",
                    "selector": "0x70a08231",
                    "status": true,
                    "value": "0"
                },
                "nodeType": 0
            }
        },
        "gasFlame": [
            {
                "children": [
                    {
                        "children": [
                            {
                                "children": [],
                                "depth": 0,
                                "name": "Initial Gas",
                                "value": 21996
                            },
                            {
                                "children": [
                                    {
                                        "children": [
                                            {
                                                "children": [],
                                                "depth": 2,
                                                "name": "transfer",
                                                "value": 17219
                                            },
                                            {
                                                "children": [],
                                                "depth": 2,
                                                "name": "balanceOf",
                                                "value": 2534
                                            },
                                            {
                                                "children": [
                                                    {
                                                        "children": [],
                                                        "depth": 3,
                                                        "name": "token1",
                                                        "value": 308
                                                    },
                                                    {
                                                        "children": [],
                                                        "depth": 3,
                                                        "name": "transfer",
                                                        "value": 10862
                                                    }
                                                ],
                                                "depth": 2,
                                                "name": "uniswapV3SwapCallback",
                                                "value": 13291
                                            },
                                            {
                                                "children": [],
                                                "depth": 2,
                                                "name": "balanceOf",
                                                "value": 534
                                            }
                                        ],
                                        "depth": 1,
                                        "name": "swap",
                                        "value": 78331
                                    }
                                ],
                                "depth": 0,
                                "name": "Executed Gas",
                                "value": 91679
                            }
                        ],
                        "depth": -1,
                        "name": "Actual Gas Used",
                        "value": 110875
                    },
                    {
                        "children": [],
                        "depth": -1,
                        "name": "Refunded Gas",
                        "value": 2800
                    }
                ],
                "depth": -2,
                "name": "Total Gas",
                "value": 113675
            }
        ],
        "isConfirmed": true,
        "mainTrace": [
            {
                "children": [
                    {
                        "children": [
                            {
                                "children": [
                                    {
                                        "children": [
                                            {
                                                "children": [],
                                                "depth": 3,
                                                "id": 3,
                                                "order": 3
                                            }
                                        ],
                                        "depth": 2,
                                        "id": 2,
                                        "order": 2
                                    },
                                    {
                                        "children": [],
                                        "depth": 2,
                                        "id": 4,
                                        "order": 4
                                    },
                                    {
                                        "children": [
                                            {
                                                "children": [],
                                                "depth": 3,
                                                "id": 6,
                                                "order": 6
                                            },
                                            {
                                                "children": [
                                                    {
                                                        "children": [],
                                                        "depth": 4,
                                                        "id": 8,
                                                        "order": 8
                                                    }
                                                ],
                                                "depth": 3,
                                                "id": 7,
                                                "order": 7
                                            }
                                        ],
                                        "depth": 2,
                                        "id": 5,
                                        "order": 5
                                    },
                                    {
                                        "children": [],
                                        "depth": 2,
                                        "id": 9,
                                        "order": 9
                                    },
                                    {
                                        "children": [],
                                        "depth": 2,
                                        "id": 10,
                                        "order": 10
                                    }
                                ],
                                "depth": 1,
                                "id": 1,
                                "order": 1
                            }
                        ],
                        "depth": 0,
                        "id": 0,
                        "order": 0
                    }
                ],
                "depth": -1,
                "id": -1,
                "order": -1
            }
        ],
        "mainTraceNodeCount": 11,
        "parentIdMap": {
            "0": -1,
            "1": 0,
            "10": 1,
            "2": 1,
            "3": 2,
            "4": 1,
            "5": 1,
            "6": 5,
            "7": 5,
            "8": 7,
            "9": 1
        },
        "tidyTrace": [
            {
                "children": [
                    {
                        "children": [
                            {
                                "children": [
                                    {
                                        "children": [
                                            {
                                                "children": [],
                                                "depth": 3,
                                                "id": 3,
                                                "order": 3
                                            }
                                        ],
                                        "depth": 2,
                                        "id": 2,
                                        "order": 2
                                    },
                                    {
                                        "children": [
                                            {
                                                "children": [
                                                    {
                                                        "children": [],
                                                        "depth": 4,
                                                        "id": 8,
                                                        "order": 8
                                                    }
                                                ],
                                                "depth": 3,
                                                "id": 7,
                                                "order": 7
                                            }
                                        ],
                                        "depth": 2,
                                        "id": 5,
                                        "order": 5
                                    },
                                    {
                                        "children": [],
                                        "depth": 2,
                                        "id": 10,
                                        "order": 10
                                    }
                                ],
                                "depth": 1,
                                "id": 1,
                                "order": 1
                            }
                        ],
                        "depth": 0,
                        "id": 0,
                        "order": 0
                    }
                ],
                "depth": -1,
                "id": -1,
                "order": -1
            }
        ],
        "tidyTraceNodeCount": 8
    },
    "state_change": {
        "stateChanges": [
            {
                "address": "0x5283d291dbcf85356a21ba090e6db59121208b44",
                "erc": "ERC-20",
                "slots": [
                    {
                        "current": "0x000000000000000000000000000000000000000000006fcce1d46c76b0e49f26",
                        "key": "0x70b401b15010d04a023ce5a74c40ec39ef28b2c0d584fd414e4b8897b4287b79",
                        "prev": "0x000000000000000000000000000000000000000000006e91db1f6bc0d68a3cde"
                    },
                    {
                        "current": "0x000000000000000000000000000000000000000000034ae46cb02a471b4c40cc",
                        "key": "0x93f43525c51af63746dfc4f102ff216511035a8749871c48800952f5144d43e9",
                        "prev": "0x000000000000000000000000000000000000000000034c1f73652afcf5a6a314"
                    }
                ],
                "storageVariables": [
                    {
                        "name": "_balances",
                        "type": "mapping(address => uint256)",
                        "value": {
                            "pairs": [
                                {
                                    "key": "0x0087bb802d9c0e343f00510000729031ce00bf27",
                                    "value": {
                                        "current": "527962088140177993408294",
                                        "prev": "522150880463643420015838",
                                        "typeTag": 1
                                    }
                                },
                                {
                                    "key": "0x824a30f2984f9013f2c8d0a29c0a3cc5fd5c0673",
                                    "value": {
                                        "current": "3980446268031283934019788",
                                        "prev": "3986257475707818507412244",
                                        "typeTag": 1
                                    }
                                }
                            ],
                            "typeTag": 4
                        }
                    }
                ]
            },
            {
                "address": "0x824a30f2984f9013f2c8d0a29c0a3cc5fd5c0673",
                "erc": "",
                "slots": [
                    {
                        "current": "0x000100009100910058fee83d0000000000000000072184ab124c06c314114e1f",
                        "key": "0x0000000000000000000000000000000000000000000000000000000000000000",
                        "prev": "0x000100009100910057fee83a000000000000000007213f9ade5084ad70d8ff3f"
                    },
                    {
                        "current": "0x0100000b4000000000000000bb686b9aec649e4b2cfffff9eb8bac0463f1d48f",
                        "key": "0x0000000000000000000000000000000000000000000000000000000000000060",
                        "prev": "0x0100000b4000000000000000bb5478b21b213059b3fffffa00daebc063f1c103"
                    },
                    {
                        "current": "0x00000000000000000000000000000000005790af05fe81e3a19c76975d4b1152",
                        "key": "0x0000000000000000000000000000000000000000000000000000000000000002",
                        "prev": "0x0000000000000000000000000000000000579079d2bd8ed98d5946d9f643be68"
                    }
                ],
                "storageVariables": []
            },
            {
                "address": "0xc02aaa39b223fe8d0a0e5c4f27ead9083c756cc2",
                "erc": "ERC-20",
                "slots": [
                    {
                        "current": "0x0000000000000000000000000000000000000000000000bcebae962008879710",
                        "key": "0xbe0584b4a5b28d250136aa4f640672f80c572f878f19c4f082e4e3dde902bc14",
                        "prev": "0x0000000000000000000000000000000000000000000000bd2a6f8cd925c62710"
                    },
                    {
                        "current": "0x0000000000000000000000000000000000000000000000e0fa4e884e616aacd3",
                        "key": "0xfa9f85d32e748867cf154040053015d93f47676a8316e0b8ac4576856d8f1f5b",
                        "prev": "0x0000000000000000000000000000000000000000000000e0bb8d9195442c1cd3"
                    }
                ],
                "storageVariables": [
                    {
                        "name": "balanceOf",
                        "type": "mapping(address => uint256)",
                        "value": {
                            "pairs": [
                                {
                                    "key": "0x0087bb802d9c0e343f00510000729031ce00bf27",
                                    "value": {
                                        "current": "3484970562166582646544",
                                        "prev": "3489492447467382646544",
                                        "typeTag": 1
                                    }
                                },
                                {
                                    "key": "0x824a30f2984f9013f2c8d0a29c0a3cc5fd5c0673",
                                    "value": {
                                        "current": "4150107175938828184787",
                                        "prev": "4145585290638028184787",
                                        "typeTag": 1
                                    }
                                }
                            ],
                            "typeTag": 4
                        }
                    }
                ]
            }
        ]
    }
}