{
    "balance_change": {
        "balanceChanges": [
            {
                "account": "0x95f2825bf7904b27a4bc61d67f9537cba407af78",
                "assets": [
                    {
                        "address": "0xedbaf3c5100302dcdda53269322f3730b1f0416d",
                        "amount": "1,000",
                        "iconUrl": "",
                        "isERC1155": false,
                        "isERC721": false,
                        "sign": false,
                        "value": ""
                    }
                ]
            },
            {
                "account": "0x91accf5fecbb71b6203a8b064d4510de0c6cdb40",
                "assets": [
                    {
                        "address": "0xedbaf3c5100302dcdda53269322f3730b1f0416d",
                        "amount": "1,000",
                        "iconUrl": "",
                        "isERC1155": false,
                        "isERC721": false,
                        "sign": true,
                        "value": ""
                    }
                ]
            }
        ]
    },
    "profile": {
        "basic_info": {
            "baseFee": "",
            "blockNumber": 4010661,
            "callData": "0xa9059cbb00000000000000000000000091accf5fecbb71b6203a8b064d4510de0c6cdb400000000000000000000000000000000000000000000000000000000005f5e100",
            "debugEnable": true,
            "errorInfo": "",
            "eventCount": 1,
            "feeRecipient": "0x829bd824b016326a401d083b33d092293333a830",
            "formatValue": "0",
            "gasLimit": 90000,
            "gasPrice": "20",
            "gasUsed": 42840,
            "intTxnCount": 0,
            "internalRevert": false,
            "internalRevertMessage": "",
            "isContractCreation": false,
            "isFlashloan": false,
            "maxFee": "",
            "nonce": 249571,
            "overwritedBlockNumber": -1,
            "priorityFee": "",
            "receiver": "0xedbaf3c5100302dcdda53269322f3730b1f0416d",
            "revertMessage": "",
            "sender": "0x95f2825bf7904b27a4bc61d67f9537cba407af78",
            "simulationEnable": true,
            "sourceTxnHash": "0x621a7d0c5aa8b5469c5150de335d57c82e400e8740ec0bd073572f1d1fbd5608",
            "status": true,
            "timestamp": "2017-07-12T05:00:38Z",
            "transactionFee": "0.0008568",
            "txnHash": "0x621a7d0c5aa8b5469c5150de335d57c82e400e8740ec0bd073572f1d1fbd5608",
            "txnIndex": 5,
            "type": 0,
            "value": "0"
        },
        "fund_flow": [
            {
                "amount": "1,000",
                "from": "0x95f2825bf7904b27a4bc61d67f9537cba407af78",
                "id": 1,
                "isERC1155": false,
                "isERC721": false,
                "isReverted": false,
                "order": 1,
                "to": "0x91accf5fecbb71b6203a8b064d4510de0c6cdb40",
                "token": "0xedbaf3c5100302dcdda53269322f3730b1f0416d"
            }
        ],
        "token_infos": [
            {
                "address": "0xc02aaa39b223fe8d0a0e5c4f27ead9083c756cc2",
                "decimals": 18
            },
            {
                "address": "0xedbaf3c5100302dcdda53269322f3730b1f0416d",
                "decimals": 5
            },
            {
                "address": "0xeeeeeeeeeeeeeeeeeeeeeeeeeeeeeeeeeeeeeeee",
                "decimals": 18
            }
        ]
    },
    "address_label": {
        "labels": [
            {
                "address": "0xeeeeeeeeeeeeeeeeeeeeeeeeeeeeeeeeeeeeeeee",
                "label": "Ether"
            },
            {
                "address": "0xedbaf3c5100302dcdda53269322f3730b1f0416d",
                "label": "Veros (Veros)"
            },
            {
                "address": "0x0000000000000000000000000000000000000001",
                "label": "Precompiled"
            },
            {
                "address": "0x0000000000000000000000000000000000000002",
                "label": "Precompiled"
            },
            {
                "address": "0x0000000000000000000000000000000000000003",
                "label": "Precompiled"
            },
            {
                "address": "0x0000000000000000000000000000000000000004",
                "label": "Precompiled"
            }
        ]
    },
    "trace": {
        "accountLabels": null,
        "dataMap": {
            "-1": {
                "invocation": {
                    "address": "0x95f2825bf7904b27a4bc61d67f9537cba407af78",
                    "callData": "",
                    "decodedMethod": null,
                    "errorInfo": "",
                    "fromAddress": "",
                    "gasUsed": 0,
                    "id": -1,
                    "methodDecoded": false,
                    "operation": "",
                    "output": "",
                    "revert": false,
                    "revertMessage": "",
                    "selector": "",
                    "status": false,
                    "value": ""
                },
                "nodeType": 0
            },
            "0": {
                "invocation": {
                    "address": "0xedbaf3c5100302dcdda53269322f3730b1f0416d",
                    "callData": "0x00000000000000000000000091accf5fecbb71b6203a8b064d4510de0c6cdb400000000000000000000000000000000000000000000000000000000005f5e100",
                    "decodedMethod": {
                        "callParams": [
                            {
                                "name": "recipient",
                                "type": "address",
                                "value": "0x91accf5fecbb71b6203a8b064d4510de0c6cdb40"
                            },
                            {
                                "decimalAvailable": true,
                                "name": "amount",
                                "type": "uint256",
                                "value": "100,000,000"
                            }
                        ],
                        "constructorArguments": "",
                        "name": "transfer",
                        "returnParams": [
                            {
                                "name": "",
                                "type": "bool",
                                "value": true
                            }
                        ],
                        "signature": "transfer(address,uint256)"
                    },
                    "errorInfo": "",
                    "fromAddress": "0x95f2825bf7904b27a4bc61d67f9537cba407af78",
                    "gasUsed": 42840,
                    "id": 0,
                    "methodDecoded": true,
                    "operation": "CALL",
                    "output": "0x0000000000000000000000000000000000000000000000000000000000000001",
                    "revert": false,
                    "revertMessage": "",
                    "selector": "0xa9059cbb",
                    "status": true,
                    "value": "0"
                },
                "nodeType": 0
            },
            "1": {
                "event": {
                    "contract": "0xedbaf3c5100302dcdda53269322f3730b1f0416d",
                    "decodedLog": {
                        "name": "Transfer",
                        "params": [
                            {
                                "name": "from",
                                "type": "address",
                                "value": "0x95f2825bf7904b27a4bc61d67f9537cba407af78"
                            },
                            {
                                "name": "to",
                                "type": "address",
                                "value": "0x91accf5fecbb71b6203a8b064d4510de0c6cdb40"
                            },
                            {
                                "decimalAvailable": true,
                                "name": "value",
                                "type": "uint256",
                                "value": "100,000,000"
                            }
                        ],
                        "signature": "Transfer(address,address,uint256)"
                    },
                    "id": 1,
                    "logData": "0x0000000000000000000000000000000000000000000000000000000005f5e100",
                    "logDecoded": true,
                    "operation": "EVENT",
                    "revert": false,
                    "status": true,
                    "topics": [
                        "0xddf252ad1be2c89b69c2b068fc378daa952ba7f163c4a11628f55a4df523b3ef",
                        "0x00000000000000000000000095f2825bf7904b27a4bc61d67f9537cba407af78",
                        "0x00000000000000000000000091accf5fecbb71b6203a8b064d4510de0c6cdb40"
                    ]
                },
                "nodeType": 1
            }
        },
        "gasFlame": [
            {
                "children": [
                    {
                        "children": [
                            {
                                "children": [],
                                "depth": 0,
                                "name": "Initial Gas",
                                "value": 23000
                            },
                            {
                                "children": [],
                                "depth": 0,
                                "name": "Executed Gas",
                                "value": 19840
                            }
                        ],
                        "depth": -1,
                        "name": "Actual Gas Used",
                        "value": 42840
                    },
                    {
                        "children": [],
                        "depth": -1,
                        "name": "Refunded Gas",
                        "value": 0
                    }
                ],
                "depth": -2,
                "name": "Total Gas",
                "value": 42840
            }
        ],
        "isConfirmed": true,
        "mainTrace": [
            {
                "children": [
                    {
                        "children": [
                            {
                                "children": [],
                                "depth": 1,
                                "id": 1,
                                "order": 1
                            }
                        ],
                        "depth": 0,
                        "id": 0,
                        "order": 0
                    }
                ],
                "depth": -1,
                "id": -1,
                "order": -1
            }
        ],
        "mainTraceNodeCount": 2,
        "parentIdMap": {
            "0": -1,
            "1": 0
        },
        "tidyTrace": [
            {
                "children": [
                    {
                        "children": [
                            {
                                "children": [],
                                "depth": 1,
                                "id": 1,
                                "order": 1
                            }
                        ],
                        "depth": 0,
                        "id": 0,
                        "order": 0
                    }
                ],
                "depth": -1,
                "id": -1,
                "order": -1
            }
        ],
        "tidyTraceNodeCount": 2
    },
    "state_change": {
        "stateChanges": [
            {
                "address": "0xedbaf3c5100302dcdda53269322f3730b1f0416d",
                "erc": "",
                "slots": [
                    {
                        "current": "0x00000000000000000000000000000000000000000000000000000002c00fab78",
                        "key": "0x6d5257204ebe7d88fd91ae87941cb2dd9d8062b64ae5a2bd2d28ec40b9fbf6df",
                        "prev": "0x00000000000000000000000000000000000000000000000000000002c00f9fc0"
                    },
                    {
                        "current": "0x000000000000000000000000000000000000000000000000000008d32311d71a",
                        "key": "0x136e0d271fc40b81076b1f96ceaeed4e01bd8fd129be21167acc3f9998ea76f2",
                        "prev": "0x000000000000000000000000000000000000000000000000000008d32907c3d2"
                    },
                    {
                        "current": "0x0000000000000000000000000000000000000000000000000000000007fe1cb0",
                        "key": "0x53b7e285b337e4288e14fcb9ef1ce711772c68b4a50f3bcf364feeee6831a438",
                        "prev": "0x0000000000000000000000000000000000000000000000000000000002083bb0"
                    }
                ],
                "storageVariables": []
            }
        ]
    }
}