{
    "balance_change": {
        "balanceChanges": [
            {
                "account": "0x10bde02988cfe40520e5837714eb2529ea7d67b3",
                "assets": [
                    {
                        "address": "0x05767d9ef41dc40689678ffca0608878fb3de906",
                        "amount": "19.725940630822755911",
                        "iconUrl": "",
                        "isERC1155": false,
                        "isERC721": false,
                        "sign": false,
                        "value": ""
                    }
                ]
            },
            {
                "account": "0xef0881ec094552b2e128cf945ef17a6752b4ec5d",
                "assets": [
                    {
                        "address": "0x05767d9ef41dc40689678ffca0608878fb3de906",
                        "amount": "19.725940630822755911",
                        "iconUrl": "",
                        "isERC1155": false,
                        "isERC721": false,
                        "sign": true,
                        "value": ""
                    }
                ]
            }
        ]
    },
    "profile": {
        "basic_info": {
            "baseFee": "51.732505391",
            "blockNumber": 13118970,
            "callData": "0x8dbdbe6d000000000000000000000000000000000000000000000000000000000000000100000000000000000000000000000000000000000000000111c09e7dc0a29e4700000000000000000000000010bde02988cfe40520e5837714eb2529ea7d67b3",
            "debugEnable": true,
            "errorInfo": "",
            "eventCount": 3,
            "feeRecipient": "0x5a0b54d5dc17e0aadc383d2db43b0a0d3e029c4c",
            "formatValue": "0",
            "gasLimit": 238714,
            "gasPrice": "62",
            "gasUsed": 154343,
            "intTxnCount": 5,
            "internalRevert": false,
            "internalRevertMessage": "",
            "isContractCreation": false,
            "isFlashloan": false,
            "maxFee": "",
            "nonce": 1200,
            "overwritedBlockNumber": -1,
            "priorityFee": "",
            "receiver": "0xef0881ec094552b2e128cf945ef17a6752b4ec5d",
            "revertMessage": "",
            "sender": "0x10bde02988cfe40520e5837714eb2529ea7d67b3",
            "simulationEnable": true,
            "sourceTxnHash": "0x63ceb58aabd9d93542e6885af301d08a39fad04f6fad05131742450f2db6ed3f",
            "status": true,
            "timestamp": "2021-08-29T07:14:57Z",
            "transactionFee": "0.009569266",
            "txnHash": "0x63ceb58aabd9d93542e6885af301d08a39fad04f6fad05131742450f2db6ed3f",
            "txnIndex": 13,
            "type": 0,
            "value": "0"
        },
        "fund_flow": [
            {
                "amount": "19.725940630822755911",
                "from": "0x10bde02988cfe40520e5837714eb2529ea7d67b3",
                "id": 1,
                "isERC1155": false,
                "isERC721": false,
                "isReverted": false,
                "order": 1,
                "to": "0xef0881ec094552b2e128cf945ef17a6752b4ec5d",
                "token": "0x05767d9ef41dc40689678ffca0608878fb3de906"
            }
        ],
        "token_infos": [
            {
                "address": "0x05767d9ef41dc40689678ffca0608878fb3de906",
                "decimals": 18
            },
            {
                "address": "0xc02aaa39b223fe8d0a0e5c4f27ead9083c756cc2",
                "decimals": 18
            },
            {
                "address": "0xeeeeeeeeeeeeeeeeeeeeeeeeeeeeeeeeeeeeeeee",
                "decimals": 18
            }
        ]
    },
    "address_label": {
        "labels": [
            {
                "address": "0xeeeeeeeeeeeeeeeeeeeeeeeeeeeeeeeeeeeeeeee",
                "label": "Ether"
            },
            {
                "address": "0x9e01aac4b3e8781a85b21d9d9f848e72af77b362",
                "label": "ConvexRewarder"
            },
            {
                "address": "0xc2edad668740f1aa35e4d8f227fb8e17dca888cd",
                "label": "SushiSwap: MasterChef LP Staking Pool"
            },
            {
                "address": "0x0000000000000000000000000000000000000003",
                "label": "Precompiled"
            },
            {
                "address": "0xa5e3142b7a5d59f778483a7e0fd3fe4e263388e9",
                "label": "MASTERCHEFDUMMY (MASTERCHE...)"
            },
            {
                "address": "0x05767d9ef41dc40689678ffca0608878fb3de906",
                "label": "SushiSwap: CVX"
            },
            {
                "address": "0xef0881ec094552b2e128cf945ef17a6752b4ec5d",
                "label": "SushiSwap: MasterChef V2"
            },
            {
                "address": "0x0000000000000000000000000000000000000001",
                "label": "Precompiled"
            },
            {
                "address": "0x0000000000000000000000000000000000000002",
                "label": "Precompiled"
            },
            {
                "address": "0x0000000000000000000000000000000000000004",
                "label": "Precompiled"
            }
        ]
    },
    "trace": {
        "accountLabels": null,
        "dataMap": {
            "-1": {
                "invocation": {
                    "address": "0x10bde02988cfe40520e5837714eb2529ea7d67b3",
                    "callData": "",
                    "decodedMethod": null,
                    "errorInfo": "",
                    "fromAddress": "",
                    "gasUsed": 0,
                    "id": -1,
                    "methodDecoded": false,
                    "operation": "",
                    "output": "",
                    "revert": false,
                    "revertMessage": "",
                    "selector": "",
                    "status": false,
                    "value": ""
                },
                "nodeType": 0
            },
            "0": {
                "invocation": {
                    "address": "0xef0881ec094552b2e128cf945ef17a6752b4ec5d",
                    "callData": "0x000000000000000000000000000000000000000000000000000000000000000100000000000000000000000000000000000000000000000111c09e7dc0a29e4700000000000000000000000010bde02988cfe40520e5837714eb2529ea7d67b3",
                    "decodedMethod": {
                        "callParams": [
                            {
                                "name": "pid",
                                "type": "uint256",
                                "value": "1"
                            },
                            {
                                "name": "amount",
                                "type": "uint256",
                                "value": "19,725,940,630,822,755,911"
                            },
                            {
                                "name": "to",
                                "type": "address",
                                "value": "0x10bde02988cfe40520e5837714eb2529ea7d67b3"
                            }
                        ],
                        "constructorArguments": "",
                        "name": "deposit",
                        "returnParams": [],
                        "signature": "deposit(uint256,uint256,address)"
                    },
                    "errorInfo": "",
                    "fromAddress": "0x10bde02988cfe40520e5837714eb2529ea7d67b3",
                    "gasUsed": 154343,
                    "id": 0,
                    "methodDecoded": true,
                    "operation": "CALL",
                    "output": "",
                    "revert": false,
                    "revertMessage": "",
                    "selector": "0x8dbdbe6d",
                    "status": true,
                    "value": "0"
                },
                "nodeType": 0
            },
            "1": {
                "invocation": {
                    "address": "0x05767d9ef41dc40689678ffca0608878fb3de906",
                    "callData": "0x000000000000000000000000ef0881ec094552b2e128cf945ef17a6752b4ec5d",
                    "decodedMethod": {
                        "callParams": [
                            {
                                "name": "",
                                "type": "address",
                                "value": "0xef0881ec094552b2e128cf945ef17a6752b4ec5d"
                            }
                        ],
                        "constructorArguments": "",
                        "name": "balanceOf",
                        "returnParams": [
                            {
                                "decimalAvailable": true,
                                "name": "",
                                "type": "uint256",
                                "value": "133,376,845,552,137,697,826,110"
                            }
                        ],
                        "signature": "balanceOf(address)"
                    },
                    "errorInfo": "",
                    "fromAddress": "0xef0881ec094552b2e128cf945ef17a6752b4ec5d",
                    "gasUsed": 2492,
                    "id": 1,
                    "methodDecoded": true,
                    "operation": "STATICCALL",
                    "output": "0x000000000000000000000000000000000000000000001c3e5f8fa0dafa8d153e",
                    "revert": false,
                    "revertMessage": "",
                    "selector": "0x70a08231",
                    "status": true,
                    "value": "0"
                },
                "nodeType": 0
            },
            "2": {
                "invocation": {
                    "address": "0xc2edad668740f1aa35e4d8f227fb8e17dca888cd",
                    "callData": "0x",
                    "decodedMethod": {
                        "callParams": [],
                        "constructorArguments": "",
                        "name": "totalAllocPoint",
                        "returnParams": [
                            {
                                "name": "",
                                "type": "uint256",
                                "value": "205,154"
                            }
                        ],
                        "signature": "totalAllocPoint()"
                    },
                    "errorInfo": "",
                    "fromAddress": "0xef0881ec094552b2e128cf945ef17a6752b4ec5d",
                    "gasUsed": 2388,
                    "id": 2,
                    "methodDecoded": true,
                    "operation": "STATICCALL",
                    "output": "0x0000000000000000000000000000000000000000000000000000000000032162",
                    "revert": false,
                    "revertMessage": "",
                    "selector": "0x17caf6f1",
                    "status": true,
                    "value": "0"
                },
                "nodeType": 0
            },
            "3": {
                "invocation": {
                    "address": "0xc2edad668740f1aa35e4d8f227fb8e17dca888cd",
                    "callData": "0x00000000000000000000000000000000000000000000000000000000000000fa",
                    "decodedMethod": {
                        "callParams": [
                            {
                                "name": "",
                                "type": "uint256",
                                "value": "250"
                            }
                        ],
                        "constructorArguments": "",
                        "name": "poolInfo",
                        "returnParams": [
                            {
                                "name": "lpToken",
                                "type": "address",
                                "value": "0xa5e3142b7a5d59f778483a7e0fd3fe4e263388e9"
                            },
                            {
                                "name": "allocPoint",
                                "type": "uint256",
                                "value": "500"
                            },
                            {
                                "name": "lastRewardBlock",
                                "type": "uint256",
                                "value": "13,105,858"
                            },
                            {
                                "name": "accSushiPerShare",
                                "type": "uint256",
                                "value": "102,870,964,789,187,735"
                            }
                        ],
                        "signature": "poolInfo(uint256)"
                    },
                    "errorInfo": "",
                    "fromAddress": "0xef0881ec094552b2e128cf945ef17a6752b4ec5d",
                    "gasUsed": 11060,
                    "id": 3,
                    "methodDecoded": true,
                    "operation": "STATICCALL",
                    "output": "0x000000000000000000000000a5e3142b7a5d59f778483a7e0fd3fe4e263388e900000000000000000000000000000000000000000000000000000000000001f40000000000000000000000000000000000000000000000000000000000c7fac2000000000000000000000000000000000000000000000000016d7898f1f61497",
                    "revert": false,
                    "revertMessage": "",
                    "selector": "0x1526fe27",
                    "status": true,
                    "value": "0"
                },
                "nodeType": 0
            },
            "4": {
                "event": {
                    "contract": "0xef0881ec094552b2e128cf945ef17a6752b4ec5d",
                    "decodedLog": {
                        "name": "LogUpdatePool",
                        "params": [
                            {
                                "name": "pid",
                                "type": "uint256",
                                "value": "1"
                            },
                            {
                                "name": "lastRewardBlock",
                                "type": "uint64",
                                "value": "13,118,970"
                            },
                            {
                                "name": "lpSupply",
                                "type": "uint256",
                                "value": "133,376,845,552,137,697,826,110"
                            },
                            {
                                "name": "accSushiPerShare",
                                "type": "uint256",
                                "value": "664,223,549,279"
                            }
                        ],
                        "signature": "LogUpdatePool(uint256,uint64,uint256,uint256)"
                    },
                    "id": 4,
                    "logData": "0x0000000000000000000000000000000000000000000000000000000000c82dfa000000000000000000000000000000000000000000001c3e5f8fa0dafa8d153e0000000000000000000000000000000000000000000000000000009aa6cf075f",
                    "logDecoded": true,
                    "operation": "EVENT",
                    "revert": false,
                    "status": true,
                    "topics": [
                        "0x0fc9545022a542541ad085d091fb09a2ab36fee366a4576ab63714ea907ad353",
                        "0x0000000000000000000000000000000000000000000000000000000000000001"
                    ]
                },
                "nodeType": 1
            },
            "5": {
                "invocation": {
                    "address": "0x9e01aac4b3e8781a85b21d9d9f848e72af77b362",
                    "callData": "0x000000000000000000000000000000000000000000000000000000000000000100000000000000000000000010bde02988cfe40520e5837714eb2529ea7d67b300000000000000000000000010bde02988cfe40520e5837714eb2529ea7d67b3000000000000000000000000000000000000000000000000000000000000000000000000000000000000000000000000000000000000001bb0aca23eada8224c",
                    "decodedMethod": {
                        "callParams": [
                            {
                                "name": "pid",
                                "type": "uint256",
                                "value": "1"
                            },
                            {
                                "name": "user",
                                "type": "address",
                                "value": "0x10bde02988cfe40520e5837714eb2529ea7d67b3"
                            },
                            {
                                "name": "recipient",
                                "type": "address",
                                "value": "0x10bde02988cfe40520e5837714eb2529ea7d67b3"
                            },
                            {
                                "name": "sushiAmount",
                                "type": "uint256",
                                "value": "0"
                            },
                            {
                                "name": "newLpAmount",
                                "type": "uint256",
                                "value": "510,792,818,626,912,592,460"
                            }
                        ],
                        "constructorArguments": "",
                        "name": "onSushiReward",
                        "returnParams": [],
                        "signature": "onSushiReward(uint256,address,address,uint256,uint256)"
                    },
                    "errorInfo": "",
                    "fromAddress": "0xef0881ec094552b2e128cf945ef17a6752b4ec5d",
                    "gasUsed": 61862,
                    "id": 5,
                    "methodDecoded": true,
                    "operation": "CALL",
                    "output": "",
                    "revert": false,
                    "revertMessage": "",
                    "selector": "0x8bf63742",
                    "status": true,
                    "value": "0"
                },
                "nodeType": 0
            },
            "6": {
                "invocation": {
                    "address": "0x05767d9ef41dc40689678ffca0608878fb3de906",
                    "callData": "0x00000000000000000000000010bde02988cfe40520e5837714eb2529ea7d67b3000000000000000000000000ef0881ec094552b2e128cf945ef17a6752b4ec5d00000000000000000000000000000000000000000000000111c09e7dc0a29e47",
                    "decodedMethod": {
                        "callParams": [
                            {
                                "name": "from",
                                "type": "address",
                                "value": "0x10bde02988cfe40520e5837714eb2529ea7d67b3"
                            },
                            {
                                "name": "to",
                                "type": "address",
                                "value": "0xef0881ec094552b2e128cf945ef17a6752b4ec5d"
                            },
                            {
                                "decimalAvailable": true,
                                "name": "value",
                                "type": "uint256",
                                "value": "19,725,940,630,822,755,911"
                            }
                        ],
                        "constructorArguments": "",
                        "name": "transferFrom",
                        "returnParams": [
                            {
                                "name": "",
                                "type": "bool",
                                "value": true
                            }
                        ],
                        "signature": "transferFrom(address,address,uint256)"
                    },
                    "errorInfo": "",
                    "fromAddress": "0xef0881ec094552b2e128cf945ef17a6752b4ec5d",
                    "gasUsed": 13021,
                    "id": 6,
                    "methodDecoded": true,
                    "operation": "CALL",
                    "output": "0x0000000000000000000000000000000000000000000000000000000000000001",
                    "revert": false,
                    "revertMessage": "",
                    "selector": "0x23b872dd",
                    "status": true,
                    "value": "0"
                },
                "nodeType": 0
            },
            "7": {
                "event": {
                    "contract": "0x05767d9ef41dc40689678ffca0608878fb3de906",
                    "decodedLog": {
                        "name": "Transfer",
                        "params": [
                            {
                                "name": "from",
                                "type": "address",
                                "value": "0x10bde02988cfe40520e5837714eb2529ea7d67b3"
                            },
                            {
                                "name": "to",
                                "type": "address",
                                "value": "0xef0881ec094552b2e128cf945ef17a6752b4ec5d"
                            },
                            {
                                "decimalAvailable": true,
                                "name": "value",
                                "type": "uint256",
                                "value": "19,725,940,630,822,755,911"
                            }
                        ],
                        "signature": "Transfer(address,address,uint256)"
                    },
                    "id": 7,
                    "logData": "0x00000000000000000000000000000000000000000000000111c09e7dc0a29e47",
                    "logDecoded": true,
                    "operation": "EVENT",
                    "revert": false,
                    "status": true,
                    "topics": [
                        "0xddf252ad1be2c89b69c2b068fc378daa952ba7f163c4a11628f55a4df523b3ef",
                        "0x00000000000000000000000010bde02988cfe40520e5837714eb2529ea7d67b3",
                        "0x000000000000000000000000ef0881ec094552b2e128cf945ef17a6752b4ec5d"
                    ]
                },
                "nodeType": 1
            },
            "8": {
                "event": {
                    "contract": "0xef0881ec094552b2e128cf945ef17a6752b4ec5d",
                    "decodedLog": {
                        "name": "Deposit",
                        "params": [
                            {
                                "name": "user",
                                "type": "address",
                                "value": "0x10bde02988cfe40520e5837714eb2529ea7d67b3"
                            },
                            {
                                "name": "pid",
                                "type": "uint256",
                                "value": "1"
                            },
                            {
                                "name": "to",
                                "type": "address",
                                "value": "0x10bde02988cfe40520e5837714eb2529ea7d67b3"
                            },
                            {
                                "name": "amount",
                                "type": "uint256",
                                "value": "19,725,940,630,822,755,911"
                            }
                        ],
                        "signature": "Deposit(address,uint256,uint256,address)"
                    },
                    "id": 8,
                    "logData": "0x00000000000000000000000000000000000000000000000111c09e7dc0a29e47",
                    "logDecoded": true,
                    "operation": "EVENT",
                    "revert": false,
                    "status": true,
                    "topics": [
                        "0x02d7e648dd130fc184d383e55bb126ac4c9c60e8f94bf05acdf557ba2d540b47",
                        "0x00000000000000000000000010bde02988cfe40520e5837714eb2529ea7d67b3",
                        "0x0000000000000000000000000000000000000000000000000000000000000001",
                        "0x00000000000000000000000010bde02988cfe40520e5837714eb2529ea7d67b3"
                    ]
                },
                "nodeType": 1
            }
        },
        "gasFlame": [
            {
                "children": [
                    {
                        "children": [
                            {
                                "children": [],
                                "depth": 0,
                                "name": "Initial Gas",
                                "value": 21808
                            },
                            {
                                "children": [
                                    {
                                        "children": [],
                                        "depth": 1,
                                        "name": "balanceOf",
                                        "value": 2492
                                    },
                                    {
                                        "children": [],
                                        "depth": 1,
                                        "name": "totalAllocPoint",
                                        "value": 2388
                                    },
                                    {
                                        "children": [],
                                        "depth": 1,
                                        "name": "poolInfo",
                                        "value": 11060
                                    },
                                    {
                                        "children": [],
                                        "depth": 1,
                                        "name": "onSushiReward",
                                        "value": 61862
                                    },
                                    {
                                        "children": [],
                                        "depth": 1,
                                        "name": "transferFrom",
                                        "value": 13021
                                    }
                                ],
                                "depth": 0,
                                "name": "Executed Gas",
                                "value": 137335
                            }
                        ],
                        "depth": -1,
                        "name": "Actual Gas Used",
                        "value": 154343
                    },
                    {
                        "children": [],
                        "depth": -1,
                        "name": "Refunded Gas",
                        "value": 4800
                    }
                ],
                "depth": -2,
                "name": "Total Gas",
                "value": 159143
            }
        ],
        "isConfirmed": true,
        "mainTrace": [
            {
                "children": [
                    {
                        "children": [
                            {
                                "children": [],
                                "depth": 1,
                                "id": 1,
                                "order": 1
                            },
                            {
                                "children": [],
                                "depth": 1,
                                "id": 2,
                                "order": 2
                            },
                            {
                                "children": [],
                                "depth": 1,
                                "id": 3,
                                "order": 3
                            },
                            {
                                "children": [],
                                "depth": 1,
                                "id": 4,
                                "order": 4
                            },
                            {
                                "children": [],
                                "depth": 1,
                                "id": 5,
                                "order": 5
                            },
                            {
                                "children": [
                                    {
                                        "children": [],
                                        "depth": 2,
                                        "id": 7,
                                        "order": 7
                                    }
                                ],
                                "depth": 1,
                                "id": 6,
                                "order": 6
                            },
                            {
                                "children": [],
                                "depth": 1,
                                "id": 8,
                                "order": 8
                            }
                        ],
                        "depth": 0,
                        "id": 0,
                        "order": 0
                    }
                ],
                "depth": -1,
                "id": -1,
                "order": -1
            }
        ],
        "mainTraceNodeCount": 9,
        "parentIdMap": {
            "0": -1,
            "1": 0,
            "2": 0,
            "3": 0,
            "4": 0,
            "5": 0,
            "6": 0,
            "7": 6,
            "8": 0
        },
        "tidyTrace": [
            {
                "children": [
                    {
                        "children": [
                            {
                                "children": [],
                                "depth": 1,
                                "id": 4,
                                "order": 4
                            },
                            {
                                "children": [],
                                "depth": 1,
                                "id": 5,
                                "order": 5
                            },
                            {
                                "children": [
                                    {
                                        "children": [],
                                        "depth": 2,
                                        "id": 7,
                                        "order": 7
                                    }
                                ],
                                "depth": 1,
                                "id": 6,
                                "order": 6
                            },
                            {
                                "children": [],
                                "depth": 1,
                                "id": 8,
                                "order": 8
                            }
                        ],
                        "depth": 0,
                        "id": 0,
                        "order": 0
                    }
                ],
                "depth": -1,
                "id": -1,
                "order": -1
            }
        ],
        "tidyTraceNodeCount": 6
    },
    "state_change": {
        "stateChanges": [
            {
                "address": "0x05767d9ef41dc40689678ffca0608878fb3de906",
                "erc": "ERC-20",
                "slots": [
                    {
                        "current": "0x000000000000000000000000000000000000000000001c3f71503f58bb2fb385",
                        "key": "0x5f8ef58ac71f0211939f038aede4894ca58d00163138156e33793bb040f8c91f",
                        "prev": "0x000000000000000000000000000000000000000000001c3e5f8fa0dafa8d153e"
                    },
                    {
                        "current": "0x0000000000000000000000000000000000000000000000000000000000000000",
                        "key": "0x57e0a785e011b0813df030a08c68e8b099e4b5f652af7832f16aa4918847ee9d",
                        "prev": "0x00000000000000000000000000000000000000000000000111c09e7dc0a29e47"
                    }
                ],
                "storageVariables": [
                    {
                        "name": "balanceOf",
                        "type": "mapping(address => uint256)",
                        "value": {
                            "pairs": [
                                {
                                    "key": "0x10bde02988cfe40520e5837714eb2529ea7d67b3",
                                    "value": {
                                        "current": "0",
                                        "prev": "19725940630822755911",
                                        "typeTag": 1
                                    }
                                },
                                {
                                    "key": "0xef0881ec094552b2e128cf945ef17a6752b4ec5d",
                                    "value": {
                                        "current": "133396571492768520582021",
                                        "prev": "133376845552137697826110",
                                        "typeTag": 1
                                    }
                                }
                            ],
                            "typeTag": 4
                        }
                    }
                ]
            },
            {
                "address": "0x9e01aac4b3e8781a85b21d9d9f848e72af77b362",
                "erc": "",
                "slots": [
                    {
                        "current": "0x00000000000000000000000000000000000000000000000000000000612b33f1",
                        "key": "0x0000000000000000000000000000000000000000000000000000000000000002",
                        "prev": "0x00000000000000000000000000000000000000000000000000000000612b3303"
                    },
                    {
                        "current": "0x0000000000000000000000000000000000000000000000000109cad75a74247d",
                        "key": "0xcd8713695bf6dfe4cf350d2c33cc3b21e2e38a019e7d130242806993b039ba69",
                        "prev": "0x0000000000000000000000000000000000000000000000000000000000000000"
                    },
                    {
                        "current": "0x000000000000000000000000000000000000000000000000628b9a989e1b8795",
                        "key": "0x3515a4f49be4b4a040ff47a29a8afad20170a8a420acd3eb9ceb1ed8618aad38",
                        "prev": "0x000000000000000000000000000000000000000000000000628b1008efec9068"
                    },
                    {
                        "current": "0x000000000000000000000000000000000000000000001c3f71503f58bb2fb385",
                        "key": "0x0000000000000000000000000000000000000000000000000000000000000005",
                        "prev": "0x000000000000000000000000000000000000000000001c3e5f8fa0dafa8d153e"
                    },
                    {
                        "current": "0x00000000000000000000000000000000000000000000001bb0aca23eada8224c",
                        "key": "0x5742d63fd254ae72dbbb3290a60bc67499e159b5778a633548ec66491a0dce71",
                        "prev": "0x00000000000000000000000000000000000000000000001a9eec03c0ed058405"
                    },
                    {
                        "current": "0x000000000000000000000000000000000000000000000000628b9a989e1b8795",
                        "key": "0x0000000000000000000000000000000000000000000000000000000000000003",
                        "prev": "0x000000000000000000000000000000000000000000000000628b1008efec9068"
                    }
                ],
                "storageVariables": [
                    {
                        "name": "_sushiBalances",
                        "type": "mapping(address => uint256)",
                        "value": {
                            "pairs": [
                                {
                                    "key": "0x10bde02988cfe40520e5837714eb2529ea7d67b3",
                                    "value": {
                                        "current": "510792818626912592460",
                                        "prev": "491066877996089836549",
                                        "typeTag": 1
                                    }
                                }
                            ],
                            "typeTag": 4
                        }
                    },
                    {
                        "name": "rewardPerTokenStored",
                        "type": "uint256",
                        "value": {
                            "current": "7100939217758029717",
                            "prev": "7100786868050759784",
                            "typeTag": 1
                        }
                    },
                    {
                        "name": "lastUpdateTime",
                        "type": "uint256",
                        "value": {
                            "current": "1630221297",
                            "prev": "1630221059",
                            "typeTag": 1
                        }
                    },
                    {
                        "name": "rewards",
                        "type": "mapping(address => uint256)",
                        "value": {
                            "pairs": [
                                {
                                    "key": "0x10bde02988cfe40520e5837714eb2529ea7d67b3",
                                    "value": {
                                        "current": "74813895112664189",
                                        "prev": "0",
                                        "typeTag": 1
                                    }
                                }
                            ],
                            "typeTag": 4
                        }
                    },
                    {
                        "name": "userRewardPerTokenPaid",
                        "type": "mapping(address => uint256)",
                        "value": {
                            "pairs": [
                                {
                                    "key": "0x10bde02988cfe40520e5837714eb2529ea7d67b3",
                                    "value": {
                                        "current": "7100939217758029717",
                                        "prev": "7100786868050759784",
                                        "typeTag": 1
                                    }
                                }
                            ],
                            "typeTag": 4
                        }
                    },
                    {
                        "name": "_totalSupply",
                        "type": "uint256",
                        "value": {
                            "current": "133396571492768520582021",
                            "prev": "133376845552137697826110",
                            "typeTag": 1
                        }
                    }
                ]
            },
            {
                "address": "0xef0881ec094552b2e128cf945ef17a6752b4ec5d",
                "erc": "",
                "slots": [
                    {
                        "current": "0x00000000000000000000000000000000000000000000001264720cd7e390bb59",
                        "key": "0xa7d0ea62f0db566fbfd95fe7d1d5c5f982f61c01f1dd9a5b21a2fd930b5d56be",
                        "prev": "0x000000000000000000000000000000000000000000000011ae9cda44b254abe4"
                    },
                    {
                        "current": "0x00000000000000280000000000c82dfa00000000000000000000009aa6cf075f",
                        "key": "0xc2575a0e9e593c00f959f8c92f12db2869c3395a3b0502d05e2516446f71f85c",
                        "prev": "0x00000000000000280000000000c82de700000000000000000000009aa6a4a5c9"
                    },
                    {
                        "current": "0x00000000000000000000000000000000000000000000001bb0aca23eada8224c",
                        "key": "0xa7d0ea62f0db566fbfd95fe7d1d5c5f982f61c01f1dd9a5b21a2fd930b5d56bd",
                        "prev": "0x00000000000000000000000000000000000000000000001a9eec03c0ed058405"
                    }
                ],
                "storageVariables": [
                    {
                        "name": "userInfo",
                        "type": "mapping(uint256 => mapping(address => struct MasterChefV2.UserInfo))",
                        "value": {
                            "pairs": [
                                {
                                    "key": "1",
                                    "value": {
                                        "pairs": [
                                            {
                                                "key": "0x10bde02988cfe40520e5837714eb2529ea7d67b3",
                                                "value": {
                                                    "fields": [
                                                        {
                                                            "name": "amount",
                                                            "type": "uint256",
                                                            "value": {
                                                                "current": "510792818626912592460",
                                                                "prev": "491066877996089836549",
                                                                "typeTag": 1
                                                            }
                                                        },
                                                        {
                                                            "name": "rewardDebt",
                                                            "type": "int256",
                                                            "value": {
                                                                "current": "339279254999285152601",
                                                                "prev": "326176820700613225444",
                                                                "typeTag": 1
                                                            }
                                                        }
                                                    ],
                                                    "typeTag": 3
                                                }
                                            }
                                        ],
                                        "typeTag": 4
                                    }
                                }
                            ],
                            "typeTag": 4
                        }
                    },
                    {
                        "name": "poolInfo",
                        "type": "struct MasterChefV2.PoolInfo[]",
                        "value": {
                            "elemType": "struct MasterChefV2.PoolInfo",
                            "elems": [
                                {
                                    "index": 1,
                                    "value": {
                                        "fields": [
                                            {
                                                "name": "accSushiPerShare",
                                                "type": "uint128",
                                                "value": {
                                                    "current": "664223549279",
                                                    "prev": "664220771785",
                                                    "typeTag": 1
                                                }
                                            },
                                            {
                                                "name": "lastRewardBlock",
                                                "type": "uint64",
                                                "value": {
                                                    "current": "13118970",
                                                    "prev": "13118951",
                                                    "typeTag": 1
                                                }
                                            },
                                            {
                                                "name": "allocPoint",
                                                "type": "uint64",
                                                "value": {
                                                    "current": "40",
                                                    "prev": "40",
                                                    "typeTag": 1
                                                }
                                            }
                                        ],
                                        "typeTag": 3
                                    }
                                }
                            ],
                            "typeTag": 2
                        }
                    }
                ]
            }
        ]
    }
}