{
    "balance_change": {
        "balanceChanges": []
    },
    "profile": {
        "basic_info": {
            "baseFee": "",
            "blockNumber": 6411423,
            "callData": "0x722ded2400000000000000000000000000000000000000005bad510d000000000003f78b0000000000000000000000000000000000000000000000000000000000000040000000000000000000000000000000000000000000000000000000000000000800000001661d049b199a5b59816f8f9e95a3bde6cea721deec1e64539c1bde030000000000005bad5112000003617a62b40000000000000006110000000000894538421dd2bb3d32b4689276d374306d03818320ba37c435483921dcfb3e15b846e78f9c3545dc9263983b3299162ff9667a5683922cef2bf6c8b9dcdd7aee82000000000001661d049b2bce40c836435d71f7df84adb65d045916e550b7d51c0000000000005bad510e000003617a62b40000000000000006110001000000895e67b6faa7f72237ef059472c850fa61238b2ce054a57392dd6d70ed204f963965def8df112b7fa679c16af29de858212cadacf64b24d09c86a4f7ea094fd57e",
            "debugEnable": true,
            "errorInfo": "",
            "eventCount": 1,
            "feeRecipient": "0xb2930b35844a230f00e51431acae96fe543a0347",
            "formatValue": "0",
            "gasLimit": 181000,
            "gasPrice": "12.512",
            "gasUsed": 136489,
            "intTxnCount": 2,
            "internalRevert": false,
            "internalRevertMessage": "",
            "isContractCreation": false,
            "isFlashloan": false,
            "maxFee": "",
            "nonce": 149771,
            "overwritedBlockNumber": -1,
            "priorityFee": "",
            "receiver": "0x7600977eb9effa627d6bd0da2e5be35e11566341",
            "revertMessage": "",
            "sender": "0xfd2d91100c786fcb1f3e8103ca1880a869828b1f",
            "simulationEnable": true,
            "sourceTxnHash": "0x63f227c6240cbd902060210ae0fb4424ccead9da441557d81bbf544a0b5f0679",
            "status": true,
            "timestamp": "2018-09-27T21:52:28Z",
            "transactionFee": "0.001707750368",
            "txnHash": "0x63f227c6240cbd902060210ae0fb4424ccead9da441557d81bbf544a0b5f0679",
            "txnIndex": 15,
            "type": 0,
            "value": "0"
        },
        "fund_flow": [],
        "token_infos": [
            {
                "address": "0xc02aaa39b223fe8d0a0e5c4f27ead9083c756cc2",
                "decimals": 18
            },
            {
                "address": "0xeeeeeeeeeeeeeeeeeeeeeeeeeeeeeeeeeeeeeeee",
                "decimals": 18
            }
        ]
    },
    "address_label": {
        "labels": [
            {
                "address": "0x7600977eb9effa627d6bd0da2e5be35e11566341",
                "label": "DEx.top"
            },
            {
                "address": "0x0000000000000000000000000000000000000001",
                "label": "Precompiled"
            },
            {
                "address": "0x0000000000000000000000000000000000000002",
                "label": "Precompiled"
            },
            {
                "address": "0x0000000000000000000000000000000000000003",
                "label": "Precompiled"
            },
            {
                "address": "0x0000000000000000000000000000000000000004",
                "label": "Precompiled"
            },
            {
                "address": "0xeeeeeeeeeeeeeeeeeeeeeeeeeeeeeeeeeeeeeeee",
                "label": "Ether"
            }
        ]
    },
    "trace": {
        "accountLabels": null,
        "dataMap": {
            "-1": {
                "invocation": {
                    "address": "0xfd2d91100c786fcb1f3e8103ca1880a869828b1f",
                    "callData": "",
                    "decodedMethod": null,
                    "errorInfo": "",
                    "fromAddress": "",
                    "gasUsed": 0,
                    "id": -1,
                    "methodDecoded": false,
                    "operation": "",
                    "output": "",
                    "revert": false,
                    "revertMessage": "",
                    "selector": "",
                    "status": false,
                    "value": ""
                },
                "nodeType": 0
            },
            "0": {
                "invocation": {
                    "address": "0x7600977eb9effa627d6bd0da2e5be35e11566341",
                    "callData": "0x00000000000000000000000000000000000000005bad510d000000000003f78b0000000000000000000000000000000000000000000000000000000000000040000000000000000000000000000000000000000000000000000000000000000800000001661d049b199a5b59816f8f9e95a3bde6cea721deec1e64539c1bde030000000000005bad5112000003617a62b40000000000000006110000000000894538421dd2bb3d32b4689276d374306d03818320ba37c435483921dcfb3e15b846e78f9c3545dc9263983b3299162ff9667a5683922cef2bf6c8b9dcdd7aee82000000000001661d049b2bce40c836435d71f7df84adb65d045916e550b7d51c0000000000005bad510e000003617a62b40000000000000006110001000000895e67b6faa7f72237ef059472c850fa61238b2ce054a57392dd6d70ed204f963965def8df112b7fa679c16af29de858212cadacf64b24d09c86a4f7ea094fd57e",
                    "decodedMethod": {
                        "callParams": [
                            {
                                "name": "header",
                                "type": "uint256",
                                "value": "28,372,662,812,028,517,500,665,984,907"
                            },
                            {
                                "name": "body",
                                "type": "uint256[]",
                                "value": [
                                    "37,713,737,726,714,780,266,438,824,409,666,785,197,770,607,835,110,738,756,419,842,727,427",
                                    "147,319,288,466,068,475,813,353,422,589,809,576,237,866,936,797,181,778,419,777,673",
                                    "31,308,986,307,162,918,774,745,721,786,628,207,214,142,023,239,154,232,060,780,857,142,592,722,048,440",
                                    "32,071,032,233,882,015,949,703,809,910,499,788,999,577,192,055,235,338,140,489,477,739,387,480,108,674",
                                    "575,465,968,737,199,549,142,673,021,557,555,471,431,806,571,433,920,788,075,894,044",
                                    "147,319,288,082,944,590,596,881,208,000,222,819,450,289,640,892,497,002,168,844,425",
                                    "42,700,655,890,009,814,365,367,344,790,623,513,811,928,276,410,905,987,557,283,067,232,796,617,446,969",
                                    "46,077,555,402,261,020,639,757,811,467,815,186,639,371,705,412,789,983,972,892,120,859,693,628,249,470"
                                ]
                            }
                        ],
                        "constructorArguments": "",
                        "name": "exeSequence",
                        "returnParams": [],
                        "signature": "exeSequence(uint256,uint256[])"
                    },
                    "errorInfo": "",
                    "fromAddress": "0xfd2d91100c786fcb1f3e8103ca1880a869828b1f",
                    "gasUsed": 136489,
                    "id": 0,
                    "methodDecoded": true,
                    "operation": "CALL",
                    "output": "",
                    "revert": false,
                    "revertMessage": "",
                    "selector": "0x722ded24",
                    "status": true,
                    "value": "0"
                },
                "nodeType": 0
            },
            "1": {
                "invocation": {
                    "address": "0x0000000000000000000000000000000000000001",
                    "callData": "0x0e06fe71ca4e38006bac6282bf90fdf4d176ccfa93fe01ff31bca3ad000000000000000000000000000000000000000000000000000000000000001b4538421dd2bb3d32b4689276d374306d03818320ba37c435483921dcfb3e15b846e78f9c3545dc9263983b3299162ff9667a5683922cef2bf6c8b9dcdd7aee82",
                    "decodedMethod": {
                        "callParams": [
                            {
                                "name": "hash",
                                "type": "bytes32",
                                "value": "0x7975ed850e06fe71ca4e38006bac6282bf90fdf4d176ccfa93fe01ff31bca3ad"
                            },
                            {
                                "name": "v",
                                "type": "uint256",
                                "value": "27"
                            },
                            {
                                "name": "r",
                                "type": "bytes32",
                                "value": "0x4538421dd2bb3d32b4689276d374306d03818320ba37c435483921dcfb3e15b8"
                            },
                            {
                                "name": "s",
                                "type": "bytes32",
                                "value": "0x46e78f9c3545dc9263983b3299162ff9667a5683922cef2bf6c8b9dcdd7aee82"
                            }
                        ],
                        "constructorArguments": "",
                        "name": "ecrecover",
                        "returnParams": [
                            {
                                "name": "",
                                "type": "address",
                                "value": "0x9a5b59816f8f9e95a3bde6cea721deec1e64539c"
                            }
                        ],
                        "signature": "ecrecover(bytes32,uint256,bytes32,bytes32)"
                    },
                    "errorInfo": "",
                    "fromAddress": "0x7600977eb9effa627d6bd0da2e5be35e11566341",
                    "gasUsed": 3000,
                    "id": 1,
                    "methodDecoded": true,
                    "operation": "STATICCALL",
                    "output": "0x0000000000000000000000009a5b59816f8f9e95a3bde6cea721deec1e64539c",
                    "revert": false,
                    "revertMessage": "",
                    "selector": "0x7975ed85",
                    "status": true,
                    "value": "0"
                },
                "nodeType": 0
            },
            "2": {
                "invocation": {
                    "address": "0x0000000000000000000000000000000000000001",
                    "callData": "0xd80e73f912d55f033c6872ff3ee2f4c27b42dfa5f4fd252bc96db4e4000000000000000000000000000000000000000000000000000000000000001c5e67b6faa7f72237ef059472c850fa61238b2ce054a57392dd6d70ed204f963965def8df112b7fa679c16af29de858212cadacf64b24d09c86a4f7ea094fd57e",
                    "decodedMethod": {
                        "callParams": [
                            {
                                "name": "hash",
                                "type": "bytes32",
                                "value": "0x016c1495d80e73f912d55f033c6872ff3ee2f4c27b42dfa5f4fd252bc96db4e4"
                            },
                            {
                                "name": "v",
                                "type": "uint256",
                                "value": "28"
                            },
                            {
                                "name": "r",
                                "type": "bytes32",
                                "value": "0x5e67b6faa7f72237ef059472c850fa61238b2ce054a57392dd6d70ed204f9639"
                            },
                            {
                                "name": "s",
                                "type": "bytes32",
                                "value": "0x65def8df112b7fa679c16af29de858212cadacf64b24d09c86a4f7ea094fd57e"
                            }
                        ],
                        "constructorArguments": "",
                        "name": "ecrecover",
                        "returnParams": [
                            {
                                "name": "",
                                "type": "address",
                                "value": "0xce40c836435d71f7df84adb65d045916e550b7d5"
                            }
                        ],
                        "signature": "ecrecover(bytes32,uint256,bytes32,bytes32)"
                    },
                    "errorInfo": "",
                    "fromAddress": "0x7600977eb9effa627d6bd0da2e5be35e11566341",
                    "gasUsed": 3000,
                    "id": 2,
                    "methodDecoded": true,
                    "operation": "STATICCALL",
                    "output": "0x000000000000000000000000ce40c836435d71f7df84adb65d045916e550b7d5",
                    "revert": false,
                    "revertMessage": "",
                    "selector": "0x016c1495",
                    "status": true,
                    "value": "0"
                },
                "nodeType": 0
            },
            "3": {
                "event": {
                    "contract": "0x7600977eb9effa627d6bd0da2e5be35e11566341",
                    "decodedLog": {
                        "name": "MatchOrdersEvent",
                        "params": [
                            {
                                "name": "trader1",
                                "type": "address",
                                "value": "0x9a5b59816f8f9e95a3bde6cea721deec1e64539c"
                            },
                            {
                                "name": "nonce1",
                                "type": "uint64",
                                "value": "1,538,085,133,081"
                            },
                            {
                                "name": "trader2",
                                "type": "address",
                                "value": "0xce40c836435d71f7df84adb65d045916e550b7d5"
                            },
                            {
                                "name": "nonce2",
                                "type": "uint64",
                                "value": "1,538,085,133,099"
                            }
                        ],
                        "signature": "MatchOrdersEvent(address,uint64,address,uint64)"
                    },
                    "id": 3,
                    "logData": "0x0000000000000000000000009a5b59816f8f9e95a3bde6cea721deec1e64539c000000000000000000000000000000000000000000000000000001661d049b19000000000000000000000000ce40c836435d71f7df84adb65d045916e550b7d5000000000000000000000000000000000000000000000000000001661d049b2b",
                    "logDecoded": true,
                    "operation": "EVENT",
                    "revert": false,
                    "status": true,
                    "topics": [
                        "0xf9f438e06428b6123b3c14646c5933b422676f1822e7b82e19f6d1333ebf640c"
                    ]
                },
                "nodeType": 1
            }
        },
        "gasFlame": [
            {
                "children": [
                    {
                        "children": [
                            {
                                "children": [],
                                "depth": 0,
                                "name": "Initial Gas",
                                "value": 36632
                            },
                            {
                                "children": [
                                    {
                                        "children": [],
                                        "depth": 1,
                                        "name": "ecrecover",
                                        "value": 3000
                                    },
                                    {
                                        "children": [],
                                        "depth": 1,
                                        "name": "ecrecover",
                                        "value": 3000
                                    }
                                ],
                                "depth": 0,
                                "name": "Executed Gas",
                                "value": 99857
                            }
                        ],
                        "depth": -1,
                        "name": "Actual Gas Used",
                        "value": 136489
                    },
                    {
                        "children": [],
                        "depth": -1,
                        "name": "Refunded Gas",
                        "value": 0
                    }
                ],
                "depth": -2,
                "name": "Total Gas",
                "value": 136489
            }
        ],
        "isConfirmed": true,
        "mainTrace": [
            {
                "children": [
                    {
                        "children": [
                            {
                                "children": [],
                                "depth": 1,
                                "id": 1,
                                "order": 1
                            },
                            {
                                "children": [],
                                "depth": 1,
                                "id": 2,
                                "order": 2
                            },
                            {
                                "children": [],
                                "depth": 1,
                                "id": 3,
                                "order": 3
                            }
                        ],
                        "depth": 0,
                        "id": 0,
                        "order": 0
                    }
                ],
                "depth": -1,
                "id": -1,
                "order": -1
            }
        ],
        "mainTraceNodeCount": 4,
        "parentIdMap": {
            "0": -1,
            "1": 0,
            "2": 0,
            "3": 0
        },
        "tidyTrace": [
            {
                "children": [
                    {
                        "children": [
                            {
                                "children": [],
                                "depth": 1,
                                "id": 3,
                                "order": 3
                            }
                        ],
                        "depth": 0,
                        "id": 0,
                        "order": 0
                    }
                ],
                "depth": -1,
                "id": -1,
                "order": -1
            }
        ],
        "tidyTraceNodeCount": 2
    },
    "state_change": {
        "stateChanges": [
            {
                "address": "0x7600977eb9effa627d6bd0da2e5be35e11566341",
                "erc": "",
                "slots": [
                    {
                        "current": "0x000000000000000000000000000000000000000000000000000036cc23c10e50",
                        "key": "0x4a92045ed74eb42ef38934c5c6439d5941c7eb6eeaf4044fd6b5d8bb24724231",
                        "prev": "0x0000000000000000000000000000000000000000000000000000336b86ee52d0"
                    },
                    {
                        "current": "0x000000000000000000000000000000000000000000000000000006280a4eb55b",
                        "key": "0xaa01aa611f7579a09c3587aa020a6afaaccca5b8270bc8a010778b78c801a467",
                        "prev": "0x0000000000000000000000000000000000000000000000000000098984b1695b"
                    },
                    {
                        "current": "0x0000000000000000000000000000000000000e449bf5323f0000000000000000",
                        "key": "0xe4c35ef68dac73fbf496e92c77b92c2e4fb2d146a76322e0095940f506343859",
                        "prev": "0x0000000000000000000000000000000000000e43be6539bf0000000000000000"
                    },
                    {
                        "current": "0x0000000000005bad511200000000000000000000000000000611000000000089",
                        "key": "0xc77bf2108520931d50b449e235e618daf7635ae4def424afae071484d001a5a7",
                        "prev": "0x0000000000000000000000000000000000000000000000000000000000000000"
                    },
                    {
                        "current": "0x0000000000005bad510e00000000000000000000000000000611000100000089",
                        "key": "0x07766e602b61e4a5ad758a8c6b8e9313ea33f3daf3adb00b59d925c9eaa0a607",
                        "prev": "0x0000000000000000000000000000000000000000000000000000000000000000"
                    },
                    {
                        "current": "0x0000000000000000000000000000000000000002e8f883b30000000000000000",
                        "key": "0x05b8ccbb9d4d8fb16ea74ce3c29a41f1b461fbdaff4714a0d9a8eb05499746bc",
                        "prev": "0x0000000000000000000000000000000000000002e8f6c0b30000000000000000"
                    },
                    {
                        "current": "0x0000000000000000000000000000000000000000000000000000000015b1028d",
                        "key": "0xf4a12dc27b2720a685b67648cda59fc287ca12c773f495a66b69d30c151e5dcb",
                        "prev": "0x000000000000000000000000000000000000000000000000000000001241e919"
                    },
                    {
                        "current": "0x00000000000000000000000000000000000000000003f78b000000005bad510d",
                        "key": "0x0000000000000000000000000000000000000000000000000000000000000003",
                        "prev": "0x00000000000000000000000000000000000000000003f78a000000005bad50c0"
                    },
                    {
                        "current": "0x00000000000000000000000000000000000000000000000000000002b16b6b75",
                        "key": "0x917f13b4875a3c7a09b2f9cba819c037a18eeb2bf2591ffa6d315de3ca256f7a",
                        "prev": "0x00000000000000000000000000000000000000000000000000000002b4dc47e9"
                    }
                ],
                "storageVariables": [
                    {
                        "name": "accounts",
                        "type": "mapping(uint176 => struct Dex2.TokenAccount)",
                        "value": {
                            "pairs": [
                                {
                                    "key": "0",
                                    "value": {
                                        "fields": [
                                            {
                                                "name": "balanceE8",
                                                "type": "uint64",
                                                "value": {
                                                    "current": "0",
                                                    "prev": "0",
                                                    "typeTag": 1
                                                }
                                            },
                                            {
                                                "name": "pendingWithdrawE8",
                                                "type": "uint64",
                                                "value": {
                                                    "current": "12498535347",
                                                    "prev": "12498419891",
                                                    "typeTag": 1
                                                }
                                            }
                                        ],
                                        "typeTag": 3
                                    }
                                },
                                {
                                    "key": "1177496787404394538529342288445781115546580858837",
                                    "value": {
                                        "fields": [
                                            {
                                                "name": "balanceE8",
                                                "type": "uint64",
                                                "value": {
                                                    "current": "363922061",
                                                    "prev": "306309401",
                                                    "typeTag": 1
                                                }
                                            },
                                            {
                                                "name": "pendingWithdrawE8",
                                                "type": "uint64",
                                                "value": {
                                                    "current": "0",
                                                    "prev": "0",
                                                    "typeTag": 1
                                                }
                                            }
                                        ],
                                        "typeTag": 3
                                    }
                                },
                                {
                                    "key": "200225724314333699793904822082130773692862758387712",
                                    "value": {
                                        "fields": [
                                            {
                                                "name": "balanceE8",
                                                "type": "uint64",
                                                "value": {
                                                    "current": "0",
                                                    "prev": "0",
                                                    "typeTag": 1
                                                }
                                            },
                                            {
                                                "name": "pendingWithdrawE8",
                                                "type": "uint64",
                                                "value": {
                                                    "current": "15687837102655",
                                                    "prev": "15684119902655",
                                                    "typeTag": 1
                                                }
                                            }
                                        ],
                                        "typeTag": 3
                                    }
                                },
                                {
                                    "key": "201106946057891800649264904693346519413949546648476",
                                    "value": {
                                        "fields": [
                                            {
                                                "name": "balanceE8",
                                                "type": "uint64",
                                                "value": {
                                                    "current": "60250401082960",
                                                    "prev": "56536918282960",
                                                    "typeTag": 1
                                                }
                                            },
                                            {
                                                "name": "pendingWithdrawE8",
                                                "type": "uint64",
                                                "value": {
                                                    "current": "0",
                                                    "prev": "0",
                                                    "typeTag": 1
                                                }
                                            }
                                        ],
                                        "typeTag": 3
                                    }
                                },
                                {
                                    "key": "201403221101738094332434164370576554808409339246549",
                                    "value": {
                                        "fields": [
                                            {
                                                "name": "balanceE8",
                                                "type": "uint64",
                                                "value": {
                                                    "current": "6769041388891",
                                                    "prev": "10486241388891",
                                                    "typeTag": 1
                                                }
                                            },
                                            {
                                                "name": "pendingWithdrawE8",
                                                "type": "uint64",
                                                "value": {
                                                    "current": "0",
                                                    "prev": "0",
                                                    "typeTag": 1
                                                }
                                            }
                                        ],
                                        "typeTag": 3
                                    }
                                },
                                {
                                    "key": "881221743558100855360082611215745721086788260764",
                                    "value": {
                                        "fields": [
                                            {
                                                "name": "balanceE8",
                                                "type": "uint64",
                                                "value": {
                                                    "current": "11566541685",
                                                    "prev": "11624269801",
                                                    "typeTag": 1
                                                }
                                            },
                                            {
                                                "name": "pendingWithdrawE8",
                                                "type": "uint64",
                                                "value": {
                                                    "current": "0",
                                                    "prev": "0",
                                                    "typeTag": 1
                                                }
                                            }
                                        ],
                                        "typeTag": 3
                                    }
                                }
                            ],
                            "typeTag": 4
                        }
                    },
                    {
                        "name": "orders",
                        "type": "mapping(uint224 => struct Dex2.Order)",
                        "value": {
                            "pairs": [
                                {
                                    "key": "2247913940353082434322763944248365473614371289915486500049820",
                                    "value": {
                                        "fields": [
                                            {
                                                "name": "pairId",
                                                "type": "uint32",
                                                "value": {
                                                    "current": "137",
                                                    "prev": "0",
                                                    "typeTag": 1
                                                }
                                            },
                                            {
                                                "name": "action",
                                                "type": "uint8",
                                                "value": {
                                                    "current": "0",
                                                    "prev": "0",
                                                    "typeTag": 1
                                                }
                                            },
                                            {
                                                "name": "ioc",
                                                "type": "uint8",
                                                "value": {
                                                    "current": "0",
                                                    "prev": "0",
                                                    "typeTag": 1
                                                }
                                            },
                                            {
                                                "name": "priceE8",
                                                "type": "uint64",
                                                "value": {
                                                    "current": "1553",
                                                    "prev": "0",
                                                    "typeTag": 1
                                                }
                                            },
                                            {
                                                "name": "amountE8",
                                                "type": "uint64",
                                                "value": {
                                                    "current": "0",
                                                    "prev": "0",
                                                    "typeTag": 1
                                                }
                                            },
                                            {
                                                "name": "expireTimeSec",
                                                "type": "uint64",
                                                "value": {
                                                    "current": "1538085138",
                                                    "prev": "0",
                                                    "typeTag": 1
                                                }
                                            }
                                        ],
                                        "typeTag": 3
                                    }
                                },
                                {
                                    "key": "2247913940379685738838566490459201060280494419663753078421461",
                                    "value": {
                                        "fields": [
                                            {
                                                "name": "pairId",
                                                "type": "uint32",
                                                "value": {
                                                    "current": "137",
                                                    "prev": "0",
                                                    "typeTag": 1
                                                }
                                            },
                                            {
                                                "name": "action",
                                                "type": "uint8",
                                                "value": {
                                                    "current": "1",
                                                    "prev": "0",
                                                    "typeTag": 1
                                                }
                                            },
                                            {
                                                "name": "ioc",
                                                "type": "uint8",
                                                "value": {
                                                    "current": "0",
                                                    "prev": "0",
                                                    "typeTag": 1
                                                }
                                            },
                                            {
                                                "name": "priceE8",
                                                "type": "uint64",
                                                "value": {
                                                    "current": "1553",
                                                    "prev": "0",
                                                    "typeTag": 1
                                                }
                                            },
                                            {
                                                "name": "amountE8",
                                                "type": "uint64",
                                                "value": {
                                                    "current": "0",
                                                    "prev": "0",
                                                    "typeTag": 1
                                                }
                                            },
                                            {
                                                "name": "expireTimeSec",
                                                "type": "uint64",
                                                "value": {
                                                    "current": "1538085134",
                                                    "prev": "0",
                                                    "typeTag": 1
                                                }
                                            }
                                        ],
                                        "typeTag": 3
                                    }
                                }
                            ],
                            "typeTag": 4
                        }
                    },
                    {
                        "name": "exeStatus",
                        "type": "struct Dex2.ExeStatus",
                        "value": {
                            "fields": [
                                {
                                    "name": "logicTimeSec",
                                    "type": "uint64",
                                    "value": {
                                        "current": "1538085133",
                                        "prev": "1538085056",
                                        "typeTag": 1
                                    }
                                },
                                {
                                    "name": "lastOperationIndex",
                                    "type": "uint64",
                                    "value": {
                                        "current": "259979",
                                        "prev": "259978",
                                        "typeTag": 1
                                    }
                                }
                            ],
                            "typeTag": 3
                        }
                    }
                ]
            }
        ]
    }
}