{
    "balance_change": {
        "balanceChanges": []
    },
    "profile": {
        "basic_info": {
            "baseFee": "",
            "blockNumber": 6162273,
            "callData": "0x722ded2400000000000000000000000000000000000000005b766e620000000000022bc8000000000000000000000000000000000000000000000000000000000000004000000000000000000000000000000000000000000000000000000000000000080000000165469f315a38a87b7d221d09686dc8c759307cce12d16255c21cde030000000000005b767c72000001064aa23f9f00000000000026720000000000820b2251ddddf2a81d810586bb63d6609dcc12fd776bc20d20390c428845efb9a65f0a465d3bdcfdfaaf70df8b0e9d146fdefb17565544323c188b3e397cc76de000000000000165469f3166a7cd39153cafe9d4b83311726271d78fa01a27c31c0000000000005b767c72000001064aa23f9f0000000000002672000100000082ca5dc57dfc28500abf4e77c766bf9eaaa61fd1a91c27012114c3a72e3da45b945471dbf53f93290fe800a9b3b2c1b19cf397ae50530d8eddae8baeec462c674e",
            "debugEnable": true,
            "errorInfo": "",
            "eventCount": 1,
            "feeRecipient": "0xb2930b35844a230f00e51431acae96fe543a0347",
            "formatValue": "0",
            "gasLimit": 181000,
            "gasPrice": "61.561",
            "gasUsed": 136553,
            "intTxnCount": 2,
            "internalRevert": false,
            "internalRevertMessage": "",
            "isContractCreation": false,
            "isFlashloan": false,
            "maxFee": "",
            "nonce": 80642,
            "overwritedBlockNumber": -1,
            "priorityFee": "",
            "receiver": "0x7600977eb9effa627d6bd0da2e5be35e11566341",
            "revertMessage": "",
            "sender": "0xfd2d91100c786fcb1f3e8103ca1880a869828b1f",
            "simulationEnable": true,
            "sourceTxnHash": "0x6314ed27b4e660c38fb6461d74484a7f1301b99588c8fe1d934f97df0a9f29db",
            "status": true,
            "timestamp": "2018-08-17T06:42:53Z",
            "transactionFee": "0.008406339233",
            "txnHash": "0x6314ed27b4e660c38fb6461d74484a7f1301b99588c8fe1d934f97df0a9f29db",
            "txnIndex": 72,
            "type": 0,
            "value": "0"
        },
        "fund_flow": [],
        "token_infos": [
            {
                "address": "0xc02aaa39b223fe8d0a0e5c4f27ead9083c756cc2",
                "decimals": 18
            },
            {
                "address": "0xeeeeeeeeeeeeeeeeeeeeeeeeeeeeeeeeeeeeeeee",
                "decimals": 18
            }
        ]
    },
    "address_label": {
        "labels": [
            {
                "address": "0x0000000000000000000000000000000000000003",
                "label": "Precompiled"
            },
            {
                "address": "0x0000000000000000000000000000000000000004",
                "label": "Precompiled"
            },
            {
                "address": "0xeeeeeeeeeeeeeeeeeeeeeeeeeeeeeeeeeeeeeeee",
                "label": "Ether"
            },
            {
                "address": "0x7600977eb9effa627d6bd0da2e5be35e11566341",
                "label": "DEx.top"
            },
            {
                "address": "0x0000000000000000000000000000000000000001",
                "label": "Precompiled"
            },
            {
                "address": "0x0000000000000000000000000000000000000002",
                "label": "Precompiled"
            }
        ]
    },
    "trace": {
        "accountLabels": null,
        "dataMap": {
            "-1": {
                "invocation": {
                    "address": "0xfd2d91100c786fcb1f3e8103ca1880a869828b1f",
                    "callData": "",
                    "decodedMethod": null,
                    "errorInfo": "",
                    "fromAddress": "",
                    "gasUsed": 0,
                    "id": -1,
                    "methodDecoded": false,
                    "operation": "",
                    "output": "",
                    "revert": false,
                    "revertMessage": "",
                    "selector": "",
                    "status": false,
                    "value": ""
                },
                "nodeType": 0
            },
            "0": {
                "invocation": {
                    "address": "0x7600977eb9effa627d6bd0da2e5be35e11566341",
                    "callData": "0x00000000000000000000000000000000000000005b766e620000000000022bc8000000000000000000000000000000000000000000000000000000000000004000000000000000000000000000000000000000000000000000000000000000080000000165469f315a38a87b7d221d09686dc8c759307cce12d16255c21cde030000000000005b767c72000001064aa23f9f00000000000026720000000000820b2251ddddf2a81d810586bb63d6609dcc12fd776bc20d20390c428845efb9a65f0a465d3bdcfdfaaf70df8b0e9d146fdefb17565544323c188b3e397cc76de000000000000165469f3166a7cd39153cafe9d4b83311726271d78fa01a27c31c0000000000005b767c72000001064aa23f9f0000000000002672000100000082ca5dc57dfc28500abf4e77c766bf9eaaa61fd1a91c27012114c3a72e3da45b945471dbf53f93290fe800a9b3b2c1b19cf397ae50530d8eddae8baeec462c674e",
                    "decodedMethod": {
                        "callParams": [
                            {
                                "name": "header",
                                "type": "uint256",
                                "value": "28,306,310,408,550,962,381,080,112,072"
                            },
                            {
                                "name": "body",
                                "type": "uint256[]",
                                "value": [
                                    "37,625,540,268,367,279,320,277,031,331,052,873,979,780,887,071,256,558,034,265,250,258,435",
                                    "146,975,111,422,527,555,846,701,033,803,062,384,448,020,794,568,548,074,718,756,994",
                                    "5,036,079,157,594,538,450,530,631,886,549,448,631,365,153,202,092,880,202,755,438,123,165,504,485,798",
                                    "42,987,874,721,881,742,211,236,219,869,371,738,417,518,272,264,505,798,046,488,033,772,877,784,772,064",
                                    "574,120,182,322,268,125,888,508,566,349,118,163,873,904,410,499,822,655,604,507,420",
                                    "146,975,111,422,527,555,846,701,033,803,062,384,448,020,794,568,548,079,013,724,290",
                                    "91,532,875,231,423,132,497,513,829,290,913,565,186,917,308,297,660,108,977,323,895,621,460,492,049,300",
                                    "38,195,451,093,646,427,289,884,024,652,662,073,966,493,237,105,232,359,198,768,108,432,009,816,991,566"
                                ]
                            }
                        ],
                        "constructorArguments": "",
                        "name": "exeSequence",
                        "returnParams": [],
                        "signature": "exeSequence(uint256,uint256[])"
                    },
                    "errorInfo": "",
                    "fromAddress": "0xfd2d91100c786fcb1f3e8103ca1880a869828b1f",
                    "gasUsed": 136553,
                    "id": 0,
                    "methodDecoded": true,
                    "operation": "CALL",
                    "output": "",
                    "revert": false,
                    "revertMessage": "",
                    "selector": "0x722ded24",
                    "status": true,
                    "value": "0"
                },
                "nodeType": 0
            },
            "1": {
                "invocation": {
                    "address": "0x0000000000000000000000000000000000000001",
                    "callData": "0x9b9d3e1eb3c1c21f88e5bec09f9e2526307a972d0ee5f9cd455901d2000000000000000000000000000000000000000000000000000000000000001c0b2251ddddf2a81d810586bb63d6609dcc12fd776bc20d20390c428845efb9a65f0a465d3bdcfdfaaf70df8b0e9d146fdefb17565544323c188b3e397cc76de0",
                    "decodedMethod": {
                        "callParams": [
                            {
                                "name": "hash",
                                "type": "bytes32",
                                "value": "0x5831daed9b9d3e1eb3c1c21f88e5bec09f9e2526307a972d0ee5f9cd455901d2"
                            },
                            {
                                "name": "v",
                                "type": "uint256",
                                "value": "28"
                            },
                            {
                                "name": "r",
                                "type": "bytes32",
                                "value": "0x0b2251ddddf2a81d810586bb63d6609dcc12fd776bc20d20390c428845efb9a6"
                            },
                            {
                                "name": "s",
                                "type": "bytes32",
                                "value": "0x5f0a465d3bdcfdfaaf70df8b0e9d146fdefb17565544323c188b3e397cc76de0"
                            }
                        ],
                        "constructorArguments": "",
                        "name": "ecrecover",
                        "returnParams": [
                            {
                                "name": "",
                                "type": "address",
                                "value": "0x38a87b7d221d09686dc8c759307cce12d16255c2"
                            }
                        ],
                        "signature": "ecrecover(bytes32,uint256,bytes32,bytes32)"
                    },
                    "errorInfo": "",
                    "fromAddress": "0x7600977eb9effa627d6bd0da2e5be35e11566341",
                    "gasUsed": 3000,
                    "id": 1,
                    "methodDecoded": true,
                    "operation": "STATICCALL",
                    "output": "0x00000000000000000000000038a87b7d221d09686dc8c759307cce12d16255c2",
                    "revert": false,
                    "revertMessage": "",
                    "selector": "0x5831daed",
                    "status": true,
                    "value": "0"
                },
                "nodeType": 0
            },
            "2": {
                "invocation": {
                    "address": "0x0000000000000000000000000000000000000001",
                    "callData": "0x171a014b5a89794a4dc003fb525ef88fe469b8655847fc9bab7444fc000000000000000000000000000000000000000000000000000000000000001cca5dc57dfc28500abf4e77c766bf9eaaa61fd1a91c27012114c3a72e3da45b945471dbf53f93290fe800a9b3b2c1b19cf397ae50530d8eddae8baeec462c674e",
                    "decodedMethod": {
                        "callParams": [
                            {
                                "name": "hash",
                                "type": "bytes32",
                                "value": "0xd3c281f4171a014b5a89794a4dc003fb525ef88fe469b8655847fc9bab7444fc"
                            },
                            {
                                "name": "v",
                                "type": "uint256",
                                "value": "28"
                            },
                            {
                                "name": "r",
                                "type": "bytes32",
                                "value": "0xca5dc57dfc28500abf4e77c766bf9eaaa61fd1a91c27012114c3a72e3da45b94"
                            },
                            {
                                "name": "s",
                                "type": "bytes32",
                                "value": "0x5471dbf53f93290fe800a9b3b2c1b19cf397ae50530d8eddae8baeec462c674e"
                            }
                        ],
                        "constructorArguments": "",
                        "name": "ecrecover",
                        "returnParams": [
                            {
                                "name": "",
                                "type": "address",
                                "value": "0xa7cd39153cafe9d4b83311726271d78fa01a27c3"
                            }
                        ],
                        "signature": "ecrecover(bytes32,uint256,bytes32,bytes32)"
                    },
                    "errorInfo": "",
                    "fromAddress": "0x7600977eb9effa627d6bd0da2e5be35e11566341",
                    "gasUsed": 3000,
                    "id": 2,
                    "methodDecoded": true,
                    "operation": "STATICCALL",
                    "output": "0x000000000000000000000000a7cd39153cafe9d4b83311726271d78fa01a27c3",
                    "revert": false,
                    "revertMessage": "",
                    "selector": "0xd3c281f4",
                    "status": true,
                    "value": "0"
                },
                "nodeType": 0
            },
            "3": {
                "event": {
                    "contract": "0x7600977eb9effa627d6bd0da2e5be35e11566341",
                    "decodedLog": {
                        "name": "MatchOrdersEvent",
                        "params": [
                            {
                                "name": "trader1",
                                "type": "address",
                                "value": "0x38a87b7d221d09686dc8c759307cce12d16255c2"
                            },
                            {
                                "name": "nonce1",
                                "type": "uint64",
                                "value": "1,534,488,162,650"
                            },
                            {
                                "name": "trader2",
                                "type": "address",
                                "value": "0xa7cd39153cafe9d4b83311726271d78fa01a27c3"
                            },
                            {
                                "name": "nonce2",
                                "type": "uint64",
                                "value": "1,534,488,162,662"
                            }
                        ],
                        "signature": "MatchOrdersEvent(address,uint64,address,uint64)"
                    },
                    "id": 3,
                    "logData": "0x00000000000000000000000038a87b7d221d09686dc8c759307cce12d16255c200000000000000000000000000000000000000000000000000000165469f315a000000000000000000000000a7cd39153cafe9d4b83311726271d78fa01a27c300000000000000000000000000000000000000000000000000000165469f3166",
                    "logDecoded": true,
                    "operation": "EVENT",
                    "revert": false,
                    "status": true,
                    "topics": [
                        "0xf9f438e06428b6123b3c14646c5933b422676f1822e7b82e19f6d1333ebf640c"
                    ]
                },
                "nodeType": 1
            }
        },
        "gasFlame": [
            {
                "children": [
                    {
                        "children": [
                            {
                                "children": [],
                                "depth": 0,
                                "name": "Initial Gas",
                                "value": 36696
                            },
                            {
                                "children": [
                                    {
                                        "children": [],
                                        "depth": 1,
                                        "name": "ecrecover",
                                        "value": 3000
                                    },
                                    {
                                        "children": [],
                                        "depth": 1,
                                        "name": "ecrecover",
                                        "value": 3000
                                    }
                                ],
                                "depth": 0,
                                "name": "Executed Gas",
                                "value": 99857
                            }
                        ],
                        "depth": -1,
                        "name": "Actual Gas Used",
                        "value": 136553
                    },
                    {
                        "children": [],
                        "depth": -1,
                        "name": "Refunded Gas",
                        "value": 0
                    }
                ],
                "depth": -2,
                "name": "Total Gas",
                "value": 136553
            }
        ],
        "isConfirmed": true,
        "mainTrace": [
            {
                "children": [
                    {
                        "children": [
                            {
                                "children": [],
                                "depth": 1,
                                "id": 1,
                                "order": 1
                            },
                            {
                                "children": [],
                                "depth": 1,
                                "id": 2,
                                "order": 2
                            },
                            {
                                "children": [],
                                "depth": 1,
                                "id": 3,
                                "order": 3
                            }
                        ],
                        "depth": 0,
                        "id": 0,
                        "order": 0
                    }
                ],
                "depth": -1,
                "id": -1,
                "order": -1
            }
        ],
        "mainTraceNodeCount": 4,
        "parentIdMap": {
            "0": -1,
            "1": 0,
            "2": 0,
            "3": 0
        },
        "tidyTrace": [
            {
                "children": [
                    {
                        "children": [
                            {
                                "children": [],
                                "depth": 1,
                                "id": 3,
                                "order": 3
                            }
                        ],
                        "depth": 0,
                        "id": 0,
                        "order": 0
                    }
                ],
                "depth": -1,
                "id": -1,
                "order": -1
            }
        ],
        "tidyTraceNodeCount": 2
    },
    "state_change": {
        "stateChanges": [
            {
                "address": "0x7600977eb9effa627d6bd0da2e5be35e11566341",
                "erc": "",
                "slots": [
                    {
                        "current": "0x0000000000000000000000000000000000000000000000000000000028da0465",
                        "key": "0x13a530721aad096f6dbdbe576253d0b473c5a157b11013cd9bb295e9d5efe147",
                        "prev": "0x000000000000000000000000000000000000000000000000000000002f75cfbf"
                    },
                    {
                        "current": "0x0000000000000000000000000000000000000000912b47ce0000000000000000",
                        "key": "0x05b8ccbb9d4d8fb16ea74ce3c29a41f1b461fbdaff4714a0d9a8eb05499746bc",
                        "prev": "0x00000000000000000000000000000000000000009127e59c0000000000000000"
                    },
                    {
                        "current": "0x0000000000005b767c7200000000000000000000000000002672000100000082",
                        "key": "0x2f3bc1fc2825c1b24671790790473f3c264560fbfb2dbad1cf91fb7ea659dc2d",
                        "prev": "0x0000000000000000000000000000000000000000000000000000000000000000"
                    },
                    {
                        "current": "0x000000000000000000000000000000000000000000000000000004d9ac7d7fed",
                        "key": "0x9dd4a2f4ff7fce6e14ad5a5efc25b1ae70fe28a063ac7b4eee067d9094d56ce4",
                        "prev": "0x000000000000000000000000000000000000000000000000000005dff71fbf8c"
                    },
                    {
                        "current": "0x0000000000005b767c7200000000000000000000000000002672000000000082",
                        "key": "0xf4c74fafdb7d08ccd531f5f93f6531d5ecbf0745a2483c17bad580f4814436c1",
                        "prev": "0x0000000000000000000000000000000000000000000000000000000000000000"
                    },
                    {
                        "current": "0x000000000000000000000000000000000000019b203839d90000000000000000",
                        "key": "0x4f2bc8eaa62ca5e2d85e7d96d20d21e03c878df28956cb62754b2fb327927580",
                        "prev": "0x000000000000000000000000000000000000019add12b00f0000000000000000"
                    },
                    {
                        "current": "0x000000000000000000000000000000000000000000000000000000002b698cd5",
                        "key": "0x97af065869770a90db6ae5494fa9cc04682807cf5652f51aeca13883625a6b4e",
                        "prev": "0x0000000000000000000000000000000000000000000000000000000024d123ad"
                    },
                    {
                        "current": "0x000000000000000000000000000000000000000000022bc8000000005b766e62",
                        "key": "0x0000000000000000000000000000000000000000000000000000000000000003",
                        "prev": "0x000000000000000000000000000000000000000000022bc7000000005b766e3d"
                    },
                    {
                        "current": "0x00000000000000000000000000000000000000000000000000000418eaf48739",
                        "key": "0x699f38d8937dd886666904202f239b097a5b8513c3abec2af27598190456b02f",
                        "prev": "0x00000000000000000000000000000000000000000000000000000312e377d164"
                    }
                ],
                "storageVariables": [
                    {
                        "name": "exeStatus",
                        "type": "struct Dex2.ExeStatus",
                        "value": {
                            "fields": [
                                {
                                    "name": "logicTimeSec",
                                    "type": "uint64",
                                    "value": {
                                        "current": "1534488162",
                                        "prev": "1534488125",
                                        "typeTag": 1
                                    }
                                },
                                {
                                    "name": "lastOperationIndex",
                                    "type": "uint64",
                                    "value": {
                                        "current": "142280",
                                        "prev": "142279",
                                        "typeTag": 1
                                    }
                                }
                            ],
                            "typeTag": 3
                        }
                    },
                    {
                        "name": "accounts",
                        "type": "mapping(uint176 => struct Dex2.TokenAccount)",
                        "value": {
                            "pairs": [
                                {
                                    "key": "0",
                                    "value": {
                                        "fields": [
                                            {
                                                "name": "balanceE8",
                                                "type": "uint64",
                                                "value": {
                                                    "current": "0",
                                                    "prev": "0",
                                                    "typeTag": 1
                                                }
                                            },
                                            {
                                                "name": "pendingWithdrawE8",
                                                "type": "uint64",
                                                "value": {
                                                    "current": "2435532750",
                                                    "prev": "2435311004",
                                                    "typeTag": 1
                                                }
                                            }
                                        ],
                                        "typeTag": 3
                                    }
                                },
                                {
                                    "key": "189995212853017379366479028253116792555271230586880",
                                    "value": {
                                        "fields": [
                                            {
                                                "name": "balanceE8",
                                                "type": "uint64",
                                                "value": {
                                                    "current": "0",
                                                    "prev": "0",
                                                    "typeTag": 1
                                                }
                                            },
                                            {
                                                "name": "pendingWithdrawE8",
                                                "type": "uint64",
                                                "value": {
                                                    "current": "1765772114393",
                                                    "prev": "1764645580815",
                                                    "typeTag": 1
                                                }
                                            }
                                        ],
                                        "typeTag": 3
                                    }
                                },
                                {
                                    "key": "190318673618768677515432484355263864626675991074242",
                                    "value": {
                                        "fields": [
                                            {
                                                "name": "balanceE8",
                                                "type": "uint64",
                                                "value": {
                                                    "current": "4505067620153",
                                                    "prev": "3379660575076",
                                                    "typeTag": 1
                                                }
                                            },
                                            {
                                                "name": "pendingWithdrawE8",
                                                "type": "uint64",
                                                "value": {
                                                    "current": "0",
                                                    "prev": "0",
                                                    "typeTag": 1
                                                }
                                            }
                                        ],
                                        "typeTag": 3
                                    }
                                },
                                {
                                    "key": "190953190937137554234795898323734736790747885479875",
                                    "value": {
                                        "fields": [
                                            {
                                                "name": "balanceE8",
                                                "type": "uint64",
                                                "value": {
                                                    "current": "5332948320237",
                                                    "prev": "6459481898892",
                                                    "typeTag": 1
                                                }
                                            },
                                            {
                                                "name": "pendingWithdrawE8",
                                                "type": "uint64",
                                                "value": {
                                                    "current": "0",
                                                    "prev": "0",
                                                    "typeTag": 1
                                                }
                                            }
                                        ],
                                        "typeTag": 3
                                    }
                                },
                                {
                                    "key": "323460765751298148953456102147072071404760487362",
                                    "value": {
                                        "fields": [
                                            {
                                                "name": "balanceE8",
                                                "type": "uint64",
                                                "value": {
                                                    "current": "685376613",
                                                    "prev": "796250047",
                                                    "typeTag": 1
                                                }
                                            },
                                            {
                                                "name": "pendingWithdrawE8",
                                                "type": "uint64",
                                                "value": {
                                                    "current": "0",
                                                    "prev": "0",
                                                    "typeTag": 1
                                                }
                                            }
                                        ],
                                        "typeTag": 3
                                    }
                                },
                                {
                                    "key": "957978084120174868316870070617944235476654892995",
                                    "value": {
                                        "fields": [
                                            {
                                                "name": "balanceE8",
                                                "type": "uint64",
                                                "value": {
                                                    "current": "728337621",
                                                    "prev": "617685933",
                                                    "typeTag": 1
                                                }
                                            },
                                            {
                                                "name": "pendingWithdrawE8",
                                                "type": "uint64",
                                                "value": {
                                                    "current": "0",
                                                    "prev": "0",
                                                    "typeTag": 1
                                                }
                                            }
                                        ],
                                        "typeTag": 3
                                    }
                                }
                            ],
                            "typeTag": 4
                        }
                    },
                    {
                        "name": "orders",
                        "type": "mapping(uint224 => struct Dex2.Order)",
                        "value": {
                            "pairs": [
                                {
                                    "key": "2242656962178187329785646875563435195671372835114989163533762",
                                    "value": {
                                        "fields": [
                                            {
                                                "name": "pairId",
                                                "type": "uint32",
                                                "value": {
                                                    "current": "130",
                                                    "prev": "0",
                                                    "typeTag": 1
                                                }
                                            },
                                            {
                                                "name": "action",
                                                "type": "uint8",
                                                "value": {
                                                    "current": "0",
                                                    "prev": "0",
                                                    "typeTag": 1
                                                }
                                            },
                                            {
                                                "name": "ioc",
                                                "type": "uint8",
                                                "value": {
                                                    "current": "0",
                                                    "prev": "0",
                                                    "typeTag": 1
                                                }
                                            },
                                            {
                                                "name": "priceE8",
                                                "type": "uint64",
                                                "value": {
                                                    "current": "9842",
                                                    "prev": "0",
                                                    "typeTag": 1
                                                }
                                            },
                                            {
                                                "name": "amountE8",
                                                "type": "uint64",
                                                "value": {
                                                    "current": "0",
                                                    "prev": "0",
                                                    "typeTag": 1
                                                }
                                            },
                                            {
                                                "name": "expireTimeSec",
                                                "type": "uint64",
                                                "value": {
                                                    "current": "1534491762",
                                                    "prev": "0",
                                                    "typeTag": 1
                                                }
                                            }
                                        ],
                                        "typeTag": 3
                                    }
                                },
                                {
                                    "key": "2242656962196359866751986587301242827632439103514932248455107",
                                    "value": {
                                        "fields": [
                                            {
                                                "name": "pairId",
                                                "type": "uint32",
                                                "value": {
                                                    "current": "130",
                                                    "prev": "0",
                                                    "typeTag": 1
                                                }
                                            },
                                            {
                                                "name": "action",
                                                "type": "uint8",
                                                "value": {
                                                    "current": "1",
                                                    "prev": "0",
                                                    "typeTag": 1
                                                }
                                            },
                                            {
                                                "name": "ioc",
                                                "type": "uint8",
                                                "value": {
                                                    "current": "0",
                                                    "prev": "0",
                                                    "typeTag": 1
                                                }
                                            },
                                            {
                                                "name": "priceE8",
                                                "type": "uint64",
                                                "value": {
                                                    "current": "9842",
                                                    "prev": "0",
                                                    "typeTag": 1
                                                }
                                            },
                                            {
                                                "name": "amountE8",
                                                "type": "uint64",
                                                "value": {
                                                    "current": "0",
                                                    "prev": "0",
                                                    "typeTag": 1
                                                }
                                            },
                                            {
                                                "name": "expireTimeSec",
                                                "type": "uint64",
                                                "value": {
                                                    "current": "1534491762",
                                                    "prev": "0",
                                                    "typeTag": 1
                                                }
                                            }
                                        ],
                                        "typeTag": 3
                                    }
                                }
                            ],
                            "typeTag": 4
                        }
                    }
                ]
            }
        ]
    }
}