{
    "balance_change": {
        "balanceChanges": [
            {
                "account": "0x90c0b17d84a9d99e4144889c5a594434400695fd",
                "assets": [
                    {
                        "address": "0x744d70fdbe2ba4cf95131626614a1763df805b9e",
                        "amount": "467.3936",
                        "iconUrl": "https://assets.blocksec.com/icon/122cbce3f18317d2e72ada02bb0ad90b741b42246dc91c7b27b8eb5443557bd4.png",
                        "isERC1155": false,
                        "isERC721": false,
                        "sign": false,
                        "value": ""
                    }
                ]
            },
            {
                "account": "0x7e778843767d326e7ee97a0427a625565e213859",
                "assets": [
                    {
                        "address": "0x744d70fdbe2ba4cf95131626614a1763df805b9e",
                        "amount": "467.3936",
                        "iconUrl": "https://assets.blocksec.com/icon/122cbce3f18317d2e72ada02bb0ad90b741b42246dc91c7b27b8eb5443557bd4.png",
                        "isERC1155": false,
                        "isERC721": false,
                        "sign": true,
                        "value": ""
                    }
                ]
            }
        ]
    },
    "profile": {
        "basic_info": {
            "baseFee": "",
            "blockNumber": 4271545,
            "callData": "0xa9059cbb0000000000000000000000007e778843767d326e7ee97a0427a625565e2138590000000000000000000000000000000000000000000000195663a2d7b3040000",
            "debugEnable": true,
            "errorInfo": "",
            "eventCount": 1,
            "feeRecipient": "0xb2930b35844a230f00e51431acae96fe543a0347",
            "formatValue": "0",
            "gasLimit": 150000,
            "gasPrice": "21",
            "gasUsed": 103499,
            "intTxnCount": 1,
            "internalRevert": false,
            "internalRevertMessage": "",
            "isContractCreation": false,
            "isFlashloan": false,
            "maxFee": "",
            "nonce": 16477,
            "overwritedBlockNumber": -1,
            "priorityFee": "",
            "receiver": "0x744d70fdbe2ba4cf95131626614a1763df805b9e",
            "revertMessage": "",
            "sender": "0x90c0b17d84a9d99e4144889c5a594434400695fd",
            "simulationEnable": true,
            "sourceTxnHash": "0x6326e75bd87eac36e8923036b0f608a89d2505bf6eba8ee12590184b5216bdf9",
            "status": true,
            "timestamp": "2017-09-14T02:21:01Z",
            "transactionFee": "0.002173479",
            "txnHash": "0x6326e75bd87eac36e8923036b0f608a89d2505bf6eba8ee12590184b5216bdf9",
            "txnIndex": 70,
            "type": 0,
            "value": "0"
        },
        "fund_flow": [
            {
                "amount": "467.3936",
                "from": "0x90c0b17d84a9d99e4144889c5a594434400695fd",
                "id": 1,
                "isERC1155": false,
                "isERC721": false,
                "isReverted": false,
                "order": 1,
                "to": "0x7e778843767d326e7ee97a0427a625565e213859",
                "token": "0x744d70fdbe2ba4cf95131626614a1763df805b9e"
            }
        ],
        "token_infos": [
            {
                "address": "0x744d70fdbe2ba4cf95131626614a1763df805b9e",
                "decimals": 18
            },
            {
                "address": "0xc02aaa39b223fe8d0a0e5c4f27ead9083c756cc2",
                "decimals": 18
            },
            {
                "address": "0xeeeeeeeeeeeeeeeeeeeeeeeeeeeeeeeeeeeeeeee",
                "decimals": 18
            }
        ]
    },
    "address_label": {
        "labels": [
            {
                "address": "0x0000000000000000000000000000000000000001",
                "label": "Precompiled"
            },
            {
                "address": "0x0000000000000000000000000000000000000002",
                "label": "Precompiled"
            },
            {
                "address": "0x0000000000000000000000000000000000000003",
                "label": "Precompiled"
            },
            {
                "address": "0x0000000000000000000000000000000000000004",
                "label": "Precompiled"
            },
            {
                "address": "0xeeeeeeeeeeeeeeeeeeeeeeeeeeeeeeeeeeeeeeee",
                "label": "Ether"
            },
            {
                "address": "0x52ae2b53c847327f95a5084a7c38c0adb12fd302",
                "label": "SNTPlaceHolder"
            },
            {
                "address": "0x744d70fdbe2ba4cf95131626614a1763df805b9e",
                "label": "Status Network: SNT Token"
            }
        ]
    },
    "trace": {
        "accountLabels": null,
        "dataMap": {
            "-1": {
                "invocation": {
                    "address": "0x90c0b17d84a9d99e4144889c5a594434400695fd",
                    "callData": "",
                    "decodedMethod": null,
                    "errorInfo": "",
                    "fromAddress": "",
                    "gasUsed": 0,
                    "id": -1,
                    "methodDecoded": false,
                    "operation": "",
                    "output": "",
                    "revert": false,
                    "revertMessage": "",
                    "selector": "",
                    "status": false,
                    "value": ""
                },
                "nodeType": 0
            },
            "0": {
                "invocation": {
                    "address": "0x744d70fdbe2ba4cf95131626614a1763df805b9e",
                    "callData": "0x0000000000000000000000007e778843767d326e7ee97a0427a625565e2138590000000000000000000000000000000000000000000000195663a2d7b3040000",
                    "decodedMethod": {
                        "callParams": [
                            {
                                "name": "_to",
                                "type": "address",
                                "value": "0x7e778843767d326e7ee97a0427a625565e213859"
                            },
                            {
                                "decimalAvailable": true,
                                "name": "_amount",
                                "type": "uint256",
                                "value": "467,393,600,000,000,000,000"
                            }
                        ],
                        "constructorArguments": "",
                        "name": "transfer",
                        "returnParams": [
                            {
                                "name": "success",
                                "type": "bool",
                                "value": true
                            }
                        ],
                        "signature": "transfer(address,uint256)"
                    },
                    "errorInfo": "",
                    "fromAddress": "0x90c0b17d84a9d99e4144889c5a594434400695fd",
                    "gasUsed": 103499,
                    "id": 0,
                    "methodDecoded": true,
                    "operation": "CALL",
                    "output": "0x0000000000000000000000000000000000000000000000000000000000000001",
                    "revert": false,
                    "revertMessage": "",
                    "selector": "0xa9059cbb",
                    "status": true,
                    "value": "0"
                },
                "nodeType": 0
            },
            "1": {
                "invocation": {
                    "address": "0x52ae2b53c847327f95a5084a7c38c0adb12fd302",
                    "callData": "0x00000000000000000000000090c0b17d84a9d99e4144889c5a594434400695fd0000000000000000000000007e778843767d326e7ee97a0427a625565e2138590000000000000000000000000000000000000000000000195663a2d7b3040000",
                    "decodedMethod": {
                        "callParams": [
                            {
                                "name": "_from",
                                "type": "address",
                                "value": "0x90c0b17d84a9d99e4144889c5a594434400695fd"
                            },
                            {
                                "name": "",
                                "type": "address",
                                "value": "0x7e778843767d326e7ee97a0427a625565e213859"
                            },
                            {
                                "name": "",
                                "type": "uint256",
                                "value": "467,393,600,000,000,000,000"
                            }
                        ],
                        "constructorArguments": "",
                        "name": "onTransfer",
                        "returnParams": [
                            {
                                "name": "",
                                "type": "bool",
                                "value": true
                            }
                        ],
                        "signature": "onTransfer(address,address,uint256)"
                    },
                    "errorInfo": "",
                    "fromAddress": "0x744d70fdbe2ba4cf95131626614a1763df805b9e",
                    "gasUsed": 869,
                    "id": 1,
                    "methodDecoded": true,
                    "operation": "CALL",
                    "output": "0x0000000000000000000000000000000000000000000000000000000000000001",
                    "revert": false,
                    "revertMessage": "",
                    "selector": "0x4a393149",
                    "status": true,
                    "value": "0"
                },
                "nodeType": 0
            },
            "2": {
                "event": {
                    "contract": "0x744d70fdbe2ba4cf95131626614a1763df805b9e",
                    "decodedLog": {
                        "name": "Transfer",
                        "params": [
                            {
                                "name": "_from",
                                "type": "address",
                                "value": "0x90c0b17d84a9d99e4144889c5a594434400695fd"
                            },
                            {
                                "name": "_to",
                                "type": "address",
                                "value": "0x7e778843767d326e7ee97a0427a625565e213859"
                            },
                            {
                                "decimalAvailable": true,
                                "name": "_amount",
                                "type": "uint256",
                                "value": "467,393,600,000,000,000,000"
                            }
                        ],
                        "signature": "Transfer(address,address,uint256)"
                    },
                    "id": 2,
                    "logData": "0x0000000000000000000000000000000000000000000000195663a2d7b3040000",
                    "logDecoded": true,
                    "operation": "EVENT",
                    "revert": false,
                    "status": true,
                    "topics": [
                        "0xddf252ad1be2c89b69c2b068fc378daa952ba7f163c4a11628f55a4df523b3ef",
                        "0x00000000000000000000000090c0b17d84a9d99e4144889c5a594434400695fd",
                        "0x0000000000000000000000007e778843767d326e7ee97a0427a625565e213859"
                    ]
                },
                "nodeType": 1
            }
        },
        "gasFlame": [
            {
                "children": [
                    {
                        "children": [
                            {
                                "children": [],
                                "depth": 0,
                                "name": "Initial Gas",
                                "value": 23256
                            },
                            {
                                "children": [
                                    {
                                        "children": [],
                                        "depth": 1,
                                        "name": "onTransfer",
                                        "value": 869
                                    }
                                ],
                                "depth": 0,
                                "name": "Executed Gas",
                                "value": 80243
                            }
                        ],
                        "depth": -1,
                        "name": "Actual Gas Used",
                        "value": 103499
                    },
                    {
                        "children": [],
                        "depth": -1,
                        "name": "Refunded Gas",
                        "value": 0
                    }
                ],
                "depth": -2,
                "name": "Total Gas",
                "value": 103499
            }
        ],
        "isConfirmed": true,
        "mainTrace": [
            {
                "children": [
                    {
                        "children": [
                            {
                                "children": [],
                                "depth": 1,
                                "id": 1,
                                "order": 1
                            },
                            {
                                "children": [],
                                "depth": 1,
                                "id": 2,
                                "order": 2
                            }
                        ],
                        "depth": 0,
                        "id": 0,
                        "order": 0
                    }
                ],
                "depth": -1,
                "id": -1,
                "order": -1
            }
        ],
        "mainTraceNodeCount": 3,
        "parentIdMap": {
            "0": -1,
            "1": 0,
            "2": 0
        },
        "tidyTrace": [
            {
                "children": [
                    {
                        "children": [
                            {
                                "children": [],
                                "depth": 1,
                                "id": 1,
                                "order": 1
                            },
                            {
                                "children": [],
                                "depth": 1,
                                "id": 2,
                                "order": 2
                            }
                        ],
                        "depth": 0,
                        "id": 0,
                        "order": 0
                    }
                ],
                "depth": -1,
                "id": -1,
                "order": -1
            }
        ],
        "tidyTraceNodeCount": 3
    },
    "state_change": {
        "stateChanges": [
            {
                "address": "0x744d70fdbe2ba4cf95131626614a1763df805b9e",
                "erc": "ERC-20",
                "slots": [
                    {
                        "current": "0x00000000002ed0257cc071fa1ee5ec0000000000000000000000000000412db9",
                        "key": "0x2dd77aa3135d32493b36c14d745c86c5342737b79d35cf2941afdd61adb8e620",
                        "prev": "0x0000000000000000000000000000000000000000000000000000000000000000"
                    },
                    {
                        "current": "0x0000000000000000000000000000000000000000000000000000000000000001",
                        "key": "0x60bb412c4734c30c7e39bbfaab4ef921baaacf4b7cfcfce29ae4ff7d146e46cb",
                        "prev": "0x0000000000000000000000000000000000000000000000000000000000000000"
                    },
                    {
                        "current": "0x00000000000000195663a2d7b304000000000000000000000000000000412db9",
                        "key": "0xfdb77c4397da5a98680a6145c54a280845b920018572d72fc5ff174e53d805db",
                        "prev": "0x0000000000000000000000000000000000000000000000000000000000000000"
                    },
                    {
                        "current": "0x0000000000000000000000000000000000000000000000000000000000001ef6",
                        "key": "0xd703913e0065c770a4412955698a357d502d539797dfef05c7304f09999ff615",
                        "prev": "0x0000000000000000000000000000000000000000000000000000000000001ef5"
                    }
                ],
                "storageVariables": []
            }
        ]
    }
}