{
    "balance_change": {
        "balanceChanges": [
            {
                "account": "0xc6dc8b3408dbe563c4f498612d0b51f2458e969a",
                "assets": [
                    {
                        "address": "0x948a1910758a4f07930fbb772ca55170898f8593",
                        "amount": "1",
                        "iconUrl": "",
                        "isERC1155": false,
                        "isERC721": true,
                        "sign": false,
                        "tokenID": "2",
                        "value": ""
                    }
                ]
            },
            {
                "account": "0xcda72070e455bb31c7690a170224ce43623d0b6f",
                "assets": [
                    {
                        "address": "0x948a1910758a4f07930fbb772ca55170898f8593",
                        "amount": "1",
                        "iconUrl": "",
                        "isERC1155": false,
                        "isERC721": true,
                        "sign": true,
                        "tokenID": "2",
                        "value": ""
                    }
                ]
            }
        ]
    },
    "profile": {
        "basic_info": {
            "baseFee": "9.443075537",
            "blockNumber": 15630125,
            "callData": "0x4ce6931a000000000000000000000000948a1910758a4f07930fbb772ca55170898f8593000000000000000000000000000000000000000000000000000000000000000200000000000000000000000000000000000000000000000000b1a2bc2ec50000",
            "debugEnable": true,
            "errorInfo": "",
            "eventCount": 3,
            "feeRecipient": "0xdafea492d9c6733ae3d56b7ed1adb60692c98bc5",
            "formatValue": "0",
            "gasLimit": 211380,
            "gasPrice": "10.443075537",
            "gasUsed": 179872,
            "intTxnCount": 3,
            "internalRevert": false,
            "internalRevertMessage": "",
            "isContractCreation": false,
            "isFlashloan": false,
            "maxFee": "11.153287576",
            "nonce": 15,
            "overwritedBlockNumber": -1,
            "priorityFee": "1",
            "receiver": "0xcda72070e455bb31c7690a170224ce43623d0b6f",
            "revertMessage": "",
            "sender": "0xc6dc8b3408dbe563c4f498612d0b51f2458e969a",
            "simulationEnable": true,
            "sourceTxnHash": "0x636bca0d95dea1fd4d700f5928d255adb71a37c189e0aade2216504a104c20d1",
            "status": true,
            "timestamp": "2022-09-28T06:44:47Z",
            "transactionFee": "0.001878416882991264",
            "txnHash": "0x636bca0d95dea1fd4d700f5928d255adb71a37c189e0aade2216504a104c20d1",
            "txnIndex": 109,
            "type": 2,
            "value": "0"
        },
        "fund_flow": [
            {
                "amount": "1",
                "from": "0xc6dc8b3408dbe563c4f498612d0b51f2458e969a",
                "id": 1,
                "isERC1155": false,
                "isERC721": true,
                "isReverted": false,
                "order": 1,
                "to": "0xcda72070e455bb31c7690a170224ce43623d0b6f",
                "token": "0x948a1910758a4f07930fbb772ca55170898f8593",
                "tokenID": "2"
            }
        ],
        "token_infos": [
            {
                "address": "0xc02aaa39b223fe8d0a0e5c4f27ead9083c756cc2",
                "decimals": 18
            },
            {
                "address": "0xeeeeeeeeeeeeeeeeeeeeeeeeeeeeeeeeeeeeeeee",
                "decimals": 18
            }
        ]
    },
    "address_label": {
        "labels": [
            {
                "address": "0xf61f4f2c896219a90670e19e188ebb93fcc002e8",
                "label": "NFT Collection Implementation v3 (NFTv3)"
            },
            {
                "address": "0x0000000000000000000000000000000000000002",
                "label": "Precompiled"
            },
            {
                "address": "0x0000000000000000000000000000000000000004",
                "label": "Precompiled"
            },
            {
                "address": "0x9b5d1e314a8c8af17150fe4e327e8523ee15d25f",
                "label": "FNDNFTMarket"
            },
            {
                "address": "0x0000000000000000000000000000000000000001",
                "label": "Precompiled"
            },
            {
                "address": "0x0000000000000000000000000000000000000003",
                "label": "Precompiled"
            },
            {
                "address": "0xeeeeeeeeeeeeeeeeeeeeeeeeeeeeeeeeeeeeeeee",
                "label": "Ether"
            },
            {
                "address": "0xc6dc8b3408dbe563c4f498612d0b51f2458e969a",
                "label": "Dodoartstudio"
            },
            {
                "address": "0xcda72070e455bb31c7690a170224ce43623d0b6f",
                "label": "Foundation: Market"
            }
        ]
    },
    "trace": {
        "accountLabels": null,
        "dataMap": {
            "-1": {
                "invocation": {
                    "address": "0xc6dc8b3408dbe563c4f498612d0b51f2458e969a",
                    "callData": "",
                    "decodedMethod": null,
                    "errorInfo": "",
                    "fromAddress": "",
                    "gasUsed": 0,
                    "id": -1,
                    "methodDecoded": false,
                    "operation": "",
                    "output": "",
                    "revert": false,
                    "revertMessage": "",
                    "selector": "",
                    "status": false,
                    "value": ""
                },
                "nodeType": 0
            },
            "0": {
                "invocation": {
                    "address": "0xcda72070e455bb31c7690a170224ce43623d0b6f",
                    "callData": "0x000000000000000000000000948a1910758a4f07930fbb772ca55170898f8593000000000000000000000000000000000000000000000000000000000000000200000000000000000000000000000000000000000000000000b1a2bc2ec50000",
                    "decodedMethod": {
                        "callParams": [
                            {
                                "name": "nftContract",
                                "type": "address",
                                "value": "0x948a1910758a4f07930fbb772ca55170898f8593"
                            },
                            {
                                "name": "tokenId",
                                "type": "uint256",
                                "value": "2"
                            },
                            {
                                "name": "reservePrice",
                                "type": "uint256",
                                "value": "50,000,000,000,000,000"
                            }
                        ],
                        "constructorArguments": "",
                        "name": "createReserveAuction",
                        "returnParams": [],
                        "signature": "createReserveAuction(address,uint256,uint256)"
                    },
                    "errorInfo": "",
                    "fromAddress": "0xc6dc8b3408dbe563c4f498612d0b51f2458e969a",
                    "gasUsed": 179872,
                    "id": 0,
                    "methodDecoded": true,
                    "operation": "CALL",
                    "output": "",
                    "revert": false,
                    "revertMessage": "",
                    "selector": "0x4ce6931a",
                    "status": true,
                    "value": "0"
                },
                "nodeType": 0
            },
            "1": {
                "invocation": {
                    "address": "0x9b5d1e314a8c8af17150fe4e327e8523ee15d25f",
                    "callData": "0x000000000000000000000000948a1910758a4f07930fbb772ca55170898f8593000000000000000000000000000000000000000000000000000000000000000200000000000000000000000000000000000000000000000000b1a2bc2ec50000",
                    "decodedMethod": {
                        "callParams": [
                            {
                                "name": "nftContract",
                                "type": "address",
                                "value": "0x948a1910758a4f07930fbb772ca55170898f8593"
                            },
                            {
                                "name": "tokenId",
                                "type": "uint256",
                                "value": "2"
                            },
                            {
                                "name": "reservePrice",
                                "type": "uint256",
                                "value": "50,000,000,000,000,000"
                            }
                        ],
                        "constructorArguments": "",
                        "name": "createReserveAuction",
                        "returnParams": [],
                        "signature": "createReserveAuction(address,uint256,uint256)"
                    },
                    "errorInfo": "",
                    "fromAddress": "0xcda72070e455bb31c7690a170224ce43623d0b6f",
                    "gasUsed": 158430,
                    "id": 1,
                    "methodDecoded": true,
                    "operation": "DELEGATECALL",
                    "output": "",
                    "revert": false,
                    "revertMessage": "",
                    "selector": "0x4ce6931a",
                    "status": true,
                    "value": "0"
                },
                "nodeType": 0
            },
            "2": {
                "invocation": {
                    "address": "0x948a1910758a4f07930fbb772ca55170898f8593",
                    "callData": "0x000000000000000000000000c6dc8b3408dbe563c4f498612d0b51f2458e969a000000000000000000000000cda72070e455bb31c7690a170224ce43623d0b6f0000000000000000000000000000000000000000000000000000000000000002",
                    "decodedMethod": {
                        "callParams": [
                            {
                                "name": "from",
                                "type": "address",
                                "value": "0xc6dc8b3408dbe563c4f498612d0b51f2458e969a"
                            },
                            {
                                "name": "to",
                                "type": "address",
                                "value": "0xcda72070e455bb31c7690a170224ce43623d0b6f"
                            },
                            {
                                "decimalAvailable": true,
                                "name": "tokenId",
                                "type": "uint256",
                                "value": "2"
                            }
                        ],
                        "constructorArguments": "",
                        "name": "transferFrom",
                        "returnParams": [],
                        "signature": "transferFrom(address,address,uint256)"
                    },
                    "errorInfo": "",
                    "fromAddress": "0xcda72070e455bb31c7690a170224ce43623d0b6f",
                    "gasUsed": 28133,
                    "id": 2,
                    "methodDecoded": true,
                    "operation": "CALL",
                    "output": "",
                    "revert": false,
                    "revertMessage": "",
                    "selector": "0x23b872dd",
                    "status": true,
                    "value": "0"
                },
                "nodeType": 0
            },
            "3": {
                "invocation": {
                    "address": "0xf61f4f2c896219a90670e19e188ebb93fcc002e8",
                    "callData": "0x000000000000000000000000c6dc8b3408dbe563c4f498612d0b51f2458e969a000000000000000000000000cda72070e455bb31c7690a170224ce43623d0b6f0000000000000000000000000000000000000000000000000000000000000002",
                    "decodedMethod": {
                        "callParams": [
                            {
                                "name": "from",
                                "type": "address",
                                "value": "0xc6dc8b3408dbe563c4f498612d0b51f2458e969a"
                            },
                            {
                                "name": "to",
                                "type": "address",
                                "value": "0xcda72070e455bb31c7690a170224ce43623d0b6f"
                            },
                            {
                                "decimalAvailable": true,
                                "name": "tokenId",
                                "type": "uint256",
                                "value": "2"
                            }
                        ],
                        "constructorArguments": "",
                        "name": "transferFrom",
                        "returnParams": [],
                        "signature": "transferFrom(address,address,uint256)"
                    },
                    "errorInfo": "",
                    "fromAddress": "0x948a1910758a4f07930fbb772ca55170898f8593",
                    "gasUsed": 25452,
                    "id": 3,
                    "methodDecoded": true,
                    "operation": "DELEGATECALL",
                    "output": "",
                    "revert": false,
                    "revertMessage": "",
                    "selector": "0x23b872dd",
                    "status": true,
                    "value": "0"
                },
                "nodeType": 0
            },
            "4": {
                "event": {
                    "contract": "0x948a1910758a4f07930fbb772ca55170898f8593",
                    "decodedLog": {
                        "name": "Approval",
                        "params": [
                            {
                                "name": "owner",
                                "type": "address",
                                "value": "0xc6dc8b3408dbe563c4f498612d0b51f2458e969a"
                            },
                            {
                                "name": "approved",
                                "type": "address",
                                "value": "0x0000000000000000000000000000000000000000"
                            },
                            {
                                "decimalAvailable": true,
                                "name": "tokenId",
                                "type": "uint256",
                                "value": "2"
                            }
                        ],
                        "signature": "Approval(address,address,uint256)"
                    },
                    "id": 4,
                    "logData": "0x",
                    "logDecoded": true,
                    "operation": "EVENT",
                    "revert": false,
                    "status": true,
                    "topics": [
                        "0x8c5be1e5ebec7d5bd14f71427d1e84f3dd0314c0f7b2291e5b200ac8c7c3b925",
                        "0x000000000000000000000000c6dc8b3408dbe563c4f498612d0b51f2458e969a",
                        "0x0000000000000000000000000000000000000000000000000000000000000000",
                        "0x0000000000000000000000000000000000000000000000000000000000000002"
                    ]
                },
                "nodeType": 1
            },
            "5": {
                "event": {
                    "contract": "0x948a1910758a4f07930fbb772ca55170898f8593",
                    "decodedLog": {
                        "name": "Transfer",
                        "params": [
                            {
                                "name": "from",
                                "type": "address",
                                "value": "0xc6dc8b3408dbe563c4f498612d0b51f2458e969a"
                            },
                            {
                                "name": "to",
                                "type": "address",
                                "value": "0xcda72070e455bb31c7690a170224ce43623d0b6f"
                            },
                            {
                                "decimalAvailable": true,
                                "name": "tokenId",
                                "type": "uint256",
                                "value": "2"
                            }
                        ],
                        "signature": "Transfer(address,address,uint256)"
                    },
                    "id": 5,
                    "logData": "0x",
                    "logDecoded": true,
                    "operation": "EVENT",
                    "revert": false,
                    "status": true,
                    "topics": [
                        "0xddf252ad1be2c89b69c2b068fc378daa952ba7f163c4a11628f55a4df523b3ef",
                        "0x000000000000000000000000c6dc8b3408dbe563c4f498612d0b51f2458e969a",
                        "0x000000000000000000000000cda72070e455bb31c7690a170224ce43623d0b6f",
                        "0x0000000000000000000000000000000000000000000000000000000000000002"
                    ]
                },
                "nodeType": 1
            },
            "6": {
                "event": {
                    "contract": "0xcda72070e455bb31c7690a170224ce43623d0b6f",
                    "decodedLog": {
                        "name": "ReserveAuctionCreated",
                        "params": [
                            {
                                "name": "seller",
                                "type": "address",
                                "value": "0xc6dc8b3408dbe563c4f498612d0b51f2458e969a"
                            },
                            {
                                "name": "nftContract",
                                "type": "address",
                                "value": "0x948a1910758a4f07930fbb772ca55170898f8593"
                            },
                            {
                                "name": "tokenId",
                                "type": "uint256",
                                "value": "2"
                            },
                            {
                                "name": "duration",
                                "type": "uint256",
                                "value": "86,400"
                            },
                            {
                                "name": "extensionDuration",
                                "type": "uint256",
                                "value": "900"
                            },
                            {
                                "name": "reservePrice",
                                "type": "uint256",
                                "value": "50,000,000,000,000,000"
                            },
                            {
                                "name": "auctionId",
                                "type": "uint256",
                                "value": "259,961"
                            }
                        ],
                        "signature": "ReserveAuctionCreated(address,address,uint256,uint256,uint256,uint256,uint256)"
                    },
                    "id": 6,
                    "logData": "0x0000000000000000000000000000000000000000000000000000000000015180000000000000000000000000000000000000000000000000000000000000038400000000000000000000000000000000000000000000000000b1a2bc2ec50000000000000000000000000000000000000000000000000000000000000003f779",
                    "logDecoded": true,
                    "operation": "EVENT",
                    "revert": false,
                    "status": true,
                    "topics": [
                        "0x1062dd3b35f12b4064331244d00f40c1d4831965e4285654157a2409c6217cff",
                        "0x000000000000000000000000c6dc8b3408dbe563c4f498612d0b51f2458e969a",
                        "0x000000000000000000000000948a1910758a4f07930fbb772ca55170898f8593",
                        "0x0000000000000000000000000000000000000000000000000000000000000002"
                    ]
                },
                "nodeType": 1
            }
        },
        "gasFlame": [
            {
                "children": [
                    {
                        "children": [
                            {
                                "children": [],
                                "depth": 0,
                                "name": "Initial Gas",
                                "value": 21760
                            },
                            {
                                "children": [
                                    {
                                        "children": [
                                            {
                                                "children": [
                                                    {
                                                        "children": [],
                                                        "depth": 3,
                                                        "name": "transferFrom",
                                                        "value": 25452
                                                    }
                                                ],
                                                "depth": 2,
                                                "name": "transferFrom",
                                                "value": 28133
                                            }
                                        ],
                                        "depth": 1,
                                        "name": "createReserveAuction",
                                        "value": 158430
                                    }
                                ],
                                "depth": 0,
                                "name": "Executed Gas",
                                "value": 165712
                            }
                        ],
                        "depth": -1,
                        "name": "Actual Gas Used",
                        "value": 179872
                    },
                    {
                        "children": [],
                        "depth": -1,
                        "name": "Refunded Gas",
                        "value": 7600
                    }
                ],
                "depth": -2,
                "name": "Total Gas",
                "value": 187472
            }
        ],
        "isConfirmed": true,
        "mainTrace": [
            {
                "children": [
                    {
                        "children": [
                            {
                                "children": [
                                    {
                                        "children": [
                                            {
                                                "children": [
                                                    {
                                                        "children": [],
                                                        "depth": 4,
                                                        "id": 4,
                                                        "order": 4
                                                    },
                                                    {
                                                        "children": [],
                                                        "depth": 4,
                                                        "id": 5,
                                                        "order": 5
                                                    }
                                                ],
                                                "depth": 3,
                                                "id": 3,
                                                "order": 3
                                            }
                                        ],
                                        "depth": 2,
                                        "id": 2,
                                        "order": 2
                                    },
                                    {
                                        "children": [],
                                        "depth": 2,
                                        "id": 6,
                                        "order": 6
                                    }
                                ],
                                "depth": 1,
                                "id": 1,
                                "order": 1
                            }
                        ],
                        "depth": 0,
                        "id": 0,
                        "order": 0
                    }
                ],
                "depth": -1,
                "id": -1,
                "order": -1
            }
        ],
        "mainTraceNodeCount": 7,
        "parentIdMap": {
            "0": -1,
            "1": 0,
            "2": 1,
            "3": 2,
            "4": 3,
            "5": 3,
            "6": 1
        },
        "tidyTrace": [
            {
                "children": [
                    {
                        "children": [
                            {
                                "children": [
                                    {
                                        "children": [
                                            {
                                                "children": [
                                                    {
                                                        "children": [],
                                                        "depth": 4,
                                                        "id": 4,
                                                        "order": 4
                                                    },
                                                    {
                                                        "children": [],
                                                        "depth": 4,
                                                        "id": 5,
                                                        "order": 5
                                                    }
                                                ],
                                                "depth": 3,
                                                "id": 3,
                                                "order": 3
                                            }
                                        ],
                                        "depth": 2,
                                        "id": 2,
                                        "order": 2
                                    },
                                    {
                                        "children": [],
                                        "depth": 2,
                                        "id": 6,
                                        "order": 6
                                    }
                                ],
                                "depth": 1,
                                "id": 1,
                                "order": 1
                            }
                        ],
                        "depth": 0,
                        "id": 0,
                        "order": 0
                    }
                ],
                "depth": -1,
                "id": -1,
                "order": -1
            }
        ],
        "tidyTraceNodeCount": 7
    },
    "state_change": {
        "stateChanges": [
            {
                "address": "0x948a1910758a4f07930fbb772ca55170898f8593",
                "erc": "ERC-721",
                "slots": [
                    {
                        "current": "0x0000000000000000000000000000000000000000000000000000000000000002",
                        "key": "0xeb40862b1d6c4ab7ecfc5aea55b22c875e4ab0a78d1a611b68c7ad49f7631166",
                        "prev": "0x0000000000000000000000000000000000000000000000000000000000000001"
                    },
                    {
                        "current": "0x000000000000000000000000cda72070e455bb31c7690a170224ce43623d0b6f",
                        "key": "0x34a128ff2438bccb68124de780ea45be60aca78c6fb6ce114324ee2dd88c546d",
                        "prev": "0x000000000000000000000000c6dc8b3408dbe563c4f498612d0b51f2458e969a"
                    },
                    {
                        "current": "0x0000000000000000000000000000000000000000000000000000000000000000",
                        "key": "0xcce32cd761ae3e1cd211451804b8f8628a39ebd93356c110e3350f6ed92e577e",
                        "prev": "0x0000000000000000000000000000000000000000000000000000000000000001"
                    }
                ],
                "storageVariables": [
                    {
                        "name": "_owners",
                        "type": "mapping(uint256 => address)",
                        "value": {
                            "pairs": [
                                {
                                    "key": "2",
                                    "value": {
                                        "current": "0xcda72070e455bb31c7690a170224ce43623d0b6f",
                                        "prev": "0xc6dc8b3408dbe563c4f498612d0b51f2458e969a",
                                        "typeTag": 1
                                    }
                                }
                            ],
                            "typeTag": 4
                        }
                    },
                    {
                        "name": "_balances",
                        "type": "mapping(address => uint256)",
                        "value": {
                            "pairs": [
                                {
                                    "key": "0xc6dc8b3408dbe563c4f498612d0b51f2458e969a",
                                    "value": {
                                        "current": "0",
                                        "prev": "1",
                                        "typeTag": 1
                                    }
                                },
                                {
                                    "key": "0xcda72070e455bb31c7690a170224ce43623d0b6f",
                                    "value": {
                                        "current": "2",
                                        "prev": "1",
                                        "typeTag": 1
                                    }
                                }
                            ],
                            "typeTag": 4
                        }
                    }
                ]
            },
            {
                "address": "0xcda72070e455bb31c7690a170224ce43623d0b6f",
                "erc": "",
                "slots": [
                    {
                        "current": "0x000000000000000000000000948a1910758a4f07930fbb772ca55170898f8593",
                        "key": "0xc4de1d68a394ded06d1e4667048ecbcc19aa23de50b79dcfe48265440591cc96",
                        "prev": "0x0000000000000000000000000000000000000000000000000000000000000000"
                    },
                    {
                        "current": "0x000000000000000000000000000000000000000000000000000000000003f77a",
                        "key": "0x000000000000000000000000000000000000000000000000000000000000138d",
                        "prev": "0x000000000000000000000000000000000000000000000000000000000003f779"
                    },
                    {
                        "current": "0x0000000000000000000000000000000000000000000000000000000000000002",
                        "key": "0xc4de1d68a394ded06d1e4667048ecbcc19aa23de50b79dcfe48265440591cc97",
                        "prev": "0x0000000000000000000000000000000000000000000000000000000000000000"
                    },
                    {
                        "current": "0x000000000000000000000000c6dc8b3408dbe563c4f498612d0b51f2458e969a",
                        "key": "0xc4de1d68a394ded06d1e4667048ecbcc19aa23de50b79dcfe48265440591cc98",
                        "prev": "0x0000000000000000000000000000000000000000000000000000000000000000"
                    },
                    {
                        "current": "0x00000000000000000000000000000000000000000000000000b1a2bc2ec50000",
                        "key": "0xc4de1d68a394ded06d1e4667048ecbcc19aa23de50b79dcfe48265440591cc9d",
                        "prev": "0x0000000000000000000000000000000000000000000000000000000000000000"
                    },
                    {
                        "current": "0x000000000000000000000000000000000000000000000000000000000003f779",
                        "key": "0x2b38c27f119cb94b6e0a0d6cfc79107e57d3de03bc613a969ac464890475b1c0",
                        "prev": "0x0000000000000000000000000000000000000000000000000000000000000000"
                    }
                ],
                "storageVariables": [
                    {
                        "name": "auctionIdToAuction",
                        "type": "mapping(uint256 => struct NFTMarketReserveAuction.ReserveAuctionStorage)",
                        "value": {
                            "pairs": [
                                {
                                    "key": "259961",
                                    "value": {
                                        "fields": [
                                            {
                                                "name": "nftContract",
                                                "type": "address",
                                                "value": {
                                                    "current": "0x948a1910758a4f07930fbb772ca55170898f8593",
                                                    "prev": "0x0000000000000000000000000000000000000000",
                                                    "typeTag": 1
                                                }
                                            },
                                            {
                                                "name": "tokenId",
                                                "type": "uint256",
                                                "value": {
                                                    "current": "2",
                                                    "prev": "0",
                                                    "typeTag": 1
                                                }
                                            },
                                            {
                                                "name": "seller",
                                                "type": "address payable",
                                                "value": {
                                                    "current": "0xc6dc8b3408dbe563c4f498612d0b51f2458e969a",
                                                    "prev": "0x0000000000000000000000000000000000000000",
                                                    "typeTag": 1
                                                }
                                            },
                                            {
                                                "name": "bidReferrerAddressSlot0",
                                                "type": "uint96",
                                                "value": {
                                                    "current": "0",
                                                    "prev": "0",
                                                    "typeTag": 1
                                                }
                                            },
                                            {
                                                "name": "amount",
                                                "type": "uint256",
                                                "value": {
                                                    "current": "50000000000000000",
                                                    "prev": "0",
                                                    "typeTag": 1
                                                }
                                            }
                                        ],
                                        "typeTag": 3
                                    }
                                }
                            ],
                            "typeTag": 4
                        }
                    },
                    {
                        "name": "nftContractToTokenIdToAuctionId",
                        "type": "mapping(address => mapping(uint256 => uint256))",
                        "value": {
                            "pairs": [
                                {
                                    "key": "0x948a1910758a4f07930fbb772ca55170898f8593",
                                    "value": {
                                        "pairs": [
                                            {
                                                "key": "2",
                                                "value": {
                                                    "current": "259961",
                                                    "prev": "0",
                                                    "typeTag": 1
                                                }
                                            }
                                        ],
                                        "typeTag": 4
                                    }
                                }
                            ],
                            "typeTag": 4
                        }
                    },
                    {
                        "name": "nextAuctionId",
                        "type": "uint256",
                        "value": {
                            "current": "259962",
                            "prev": "259961",
                            "typeTag": 1
                        }
                    }
                ]
            }
        ]
    }
}