{
    "balance_change": {
        "balanceChanges": [
            {
                "account": "0x15bb906d674f056099b41da766ac6b1c139f8ad4",
                "assets": [
                    {
                        "address": "0xc02aaa39b223fe8d0a0e5c4f27ead9083c756cc2",
                        "amount": "3.5",
                        "iconUrl": "https://assets.blocksec.com/icon/f1cb2d02c471d545bbc7722daf3277fd852d98e63d118771af7047bd8256c516.png",
                        "isERC1155": false,
                        "isERC721": false,
                        "sign": true,
                        "value": "10358.565000000000509"
                    }
                ]
            },
            {
                "account": "0x794f6b13fbd7eb7ef10d1ed205c9a416910207ff",
                "assets": [
                    {
                        "address": "0xc02aaa39b223fe8d0a0e5c4f27ead9083c756cc2",
                        "amount": "3.5",
                        "iconUrl": "https://assets.blocksec.com/icon/f1cb2d02c471d545bbc7722daf3277fd852d98e63d118771af7047bd8256c516.png",
                        "isERC1155": false,
                        "isERC721": false,
                        "sign": false,
                        "value": "10358.565000000000509"
                    }
                ]
            }
        ]
    },
    "profile": {
        "basic_info": {
            "baseFee": "4.700635287",
            "blockNumber": 20444675,
            "callData": "0xd41ddc9600000000000000000000000000000000000000000000000030927f74c9de000000000000000000000000000015bb906d674f056099b41da766ac6b1c139f8ad4",
            "debugEnable": true,
            "errorInfo": "",
            "eventCount": 5,
            "feeRecipient": "0x4838b106fce9647bdf1e7877bf73ce8b0bad5f97",
            "formatValue": "0",
            "gasLimit": 172180,
            "gasPrice": "4.701635287",
            "gasUsed": 132285,
            "intTxnCount": 4,
            "internalRevert": false,
            "internalRevertMessage": "",
            "isContractCreation": false,
            "isFlashloan": false,
            "maxFee": "4.996101347",
            "nonce": 730,
            "overwritedBlockNumber": -1,
            "priorityFee": "0.001",
            "receiver": "0x794f6b13fbd7eb7ef10d1ed205c9a416910207ff",
            "revertMessage": "",
            "sender": "0x15bb906d674f056099b41da766ac6b1c139f8ad4",
            "simulationEnable": true,
            "sourceTxnHash": "0x63014c69b4006cd07bf369067b9feaddec133ce3c4523276f1bb4360844260cb",
            "status": true,
            "timestamp": "2024-08-03T01:16:23Z",
            "transactionFee": "0.000621955823940795",
            "txnHash": "0x63014c69b4006cd07bf369067b9feaddec133ce3c4523276f1bb4360844260cb",
            "txnIndex": 143,
            "type": 2,
            "value": "0"
        },
        "fund_flow": [
            {
                "amount": "3.5",
                "from": "0x794f6b13fbd7eb7ef10d1ed205c9a416910207ff",
                "id": 1,
                "isERC1155": false,
                "isERC721": false,
                "isReverted": false,
                "order": 1,
                "to": "0x15bb906d674f056099b41da766ac6b1c139f8ad4",
                "token": "0xc02aaa39b223fe8d0a0e5c4f27ead9083c756cc2"
            }
        ],
        "token_infos": [
            {
                "address": "0xc02aaa39b223fe8d0a0e5c4f27ead9083c756cc2",
                "decimals": 18
            },
            {
                "address": "0xeeeeeeeeeeeeeeeeeeeeeeeeeeeeeeeeeeeeeeee",
                "decimals": 18
            }
        ]
    },
    "address_label": {
        "labels": [
            {
                "address": "0xeeeeeeeeeeeeeeeeeeeeeeeeeeeeeeeeeeeeeeee",
                "label": "Ether"
            },
            {
                "address": "0x794f6b13fbd7eb7ef10d1ed205c9a416910207ff",
                "label": "FraxlendV1 - Wrapped Ether/Frax - ... (FraxlendV...)"
            },
            {
                "address": "0x0000000000000000000000000000000000000003",
                "label": "Precompiled"
            },
            {
                "address": "0x0000000000000000000000000000000000000004",
                "label": "Precompiled"
            },
            {
                "address": "0x3da1bf0be175b7caa38d67a6e78371947d2f51f7",
                "label": "Variable Time-Weighted Interest Ra..."
            },
            {
                "address": "0xc02aaa39b223fe8d0a0e5c4f27ead9083c756cc2",
                "label": "Wrapped Ether (WETH)"
            },
            {
                "address": "0xe62b71cf983019bff55bc83b48601ce8419650cc",
                "label": "AccessControlledOffchainAggregator"
            },
            {
                "address": "0x5f4ec3df9cbd43714fe2740f5e3616155c5b8419",
                "label": "EACAggregatorProxy"
            },
            {
                "address": "0x0000000000000000000000000000000000000001",
                "label": "Precompiled"
            },
            {
                "address": "0x0000000000000000000000000000000000000002",
                "label": "Precompiled"
            }
        ]
    },
    "trace": {
        "accountLabels": null,
        "dataMap": {
            "-1": {
                "invocation": {
                    "address": "0x15bb906d674f056099b41da766ac6b1c139f8ad4",
                    "callData": "",
                    "decodedMethod": null,
                    "errorInfo": "",
                    "fromAddress": "",
                    "gasUsed": 0,
                    "id": -1,
                    "methodDecoded": false,
                    "operation": "",
                    "output": "",
                    "revert": false,
                    "revertMessage": "",
                    "selector": "",
                    "status": false,
                    "value": ""
                },
                "nodeType": 0
            },
            "0": {
                "invocation": {
                    "address": "0x794f6b13fbd7eb7ef10d1ed205c9a416910207ff",
                    "callData": "0x00000000000000000000000000000000000000000000000030927f74c9de000000000000000000000000000015bb906d674f056099b41da766ac6b1c139f8ad4",
                    "decodedMethod": {
                        "callParams": [
                            {
                                "name": "_collateralAmount",
                                "type": "uint256",
                                "value": "3,500,000,000,000,000,000"
                            },
                            {
                                "name": "_receiver",
                                "type": "address",
                                "value": "0x15bb906d674f056099b41da766ac6b1c139f8ad4"
                            }
                        ],
                        "constructorArguments": "",
                        "name": "removeCollateral",
                        "returnParams": [],
                        "signature": "removeCollateral(uint256,address)"
                    },
                    "errorInfo": "",
                    "fromAddress": "0x15bb906d674f056099b41da766ac6b1c139f8ad4",
                    "gasUsed": 132285,
                    "id": 0,
                    "methodDecoded": true,
                    "operation": "CALL",
                    "output": "",
                    "revert": false,
                    "revertMessage": "",
                    "selector": "0xd41ddc96",
                    "status": true,
                    "value": "0"
                },
                "nodeType": 0
            },
            "1": {
                "invocation": {
                    "address": "0x3da1bf0be175b7caa38d67a6e78371947d2f51f7",
                    "callData": "0x000000000000000000000000000000000000000000000000000000000000004000000000000000000000000000000000000000000000000000000000000000e000000000000000000000000000000000000000000000000000000000000000800000000000000000000000000000000000000000000000000000000033066355000000000000000000000000000000000000000000000000000000000000004800000000000000000000000000000000000000000000000000000000000156a500000000000000000000000000000000000000000000000000000000000000060000000000000000000000000000000000000000000000000000000000000000",
                    "decodedMethod": {
                        "callParams": [
                            {
                                "name": "_data",
                                "type": "bytes",
                                "value": "0x0000000000000000000000000000000000000000000000000000000033066355000000000000000000000000000000000000000000000000000000000000004800000000000000000000000000000000000000000000000000000000000156a50000000000000000000000000000000000000000000000000000000000000006"
                            },
                            {
                                "name": "_initData",
                                "type": "bytes",
                                "value": "0x"
                            }
                        ],
                        "constructorArguments": "",
                        "name": "getNewRate",
                        "returnParams": [
                            {
                                "name": "_newRatePerSec",
                                "type": "uint64",
                                "value": "856,103,472"
                            }
                        ],
                        "signature": "getNewRate(bytes,bytes)"
                    },
                    "errorInfo": "",
                    "fromAddress": "0x794f6b13fbd7eb7ef10d1ed205c9a416910207ff",
                    "gasUsed": 1212,
                    "id": 1,
                    "methodDecoded": true,
                    "operation": "STATICCALL",
                    "output": "0x0000000000000000000000000000000000000000000000000000000033071a30",
                    "revert": false,
                    "revertMessage": "",
                    "selector": "0x1b54c1a3",
                    "status": true,
                    "value": "0"
                },
                "nodeType": 0
            },
            "2": {
                "event": {
                    "contract": "0x794f6b13fbd7eb7ef10d1ed205c9a416910207ff",
                    "decodedLog": {
                        "name": "UpdateRate",
                        "params": [
                            {
                                "name": "_ratePerSec",
                                "type": "uint256",
                                "value": "856,056,661"
                            },
                            {
                                "name": "_deltaTime",
                                "type": "uint256",
                                "value": "72"
                            },
                            {
                                "name": "_utilizationRate",
                                "type": "uint256",
                                "value": "87,717"
                            },
                            {
                                "name": "_newRatePerSec",
                                "type": "uint256",
                                "value": "856,103,472"
                            }
                        ],
                        "signature": "UpdateRate(uint256,uint256,uint256,uint256)"
                    },
                    "id": 2,
                    "logData": "0x0000000000000000000000000000000000000000000000000000000033066355000000000000000000000000000000000000000000000000000000000000004800000000000000000000000000000000000000000000000000000000000156a50000000000000000000000000000000000000000000000000000000033071a30",
                    "logDecoded": true,
                    "operation": "EVENT",
                    "revert": false,
                    "status": true,
                    "topics": [
                        "0xc63977c8e2362a31182dc8e89a52252f9836922738e0abcfc0de6924972eafe5"
                    ]
                },
                "nodeType": 1
            },
            "3": {
                "event": {
                    "contract": "0x794f6b13fbd7eb7ef10d1ed205c9a416910207ff",
                    "decodedLog": {
                        "name": "AddInterest",
                        "params": [
                            {
                                "name": "_interestEarned",
                                "type": "uint256",
                                "value": "113,837,920,648,388,373"
                            },
                            {
                                "name": "_rate",
                                "type": "uint256",
                                "value": "856,103,472"
                            },
                            {
                                "name": "_deltaTime",
                                "type": "uint256",
                                "value": "72"
                            },
                            {
                                "name": "_feesAmount",
                                "type": "uint256",
                                "value": "0"
                            },
                            {
                                "name": "_feesShare",
                                "type": "uint256",
                                "value": "0"
                            }
                        ],
                        "signature": "AddInterest(uint256,uint256,uint256,uint256,uint256)"
                    },
                    "id": 3,
                    "logData": "0x00000000000000000000000000000000000000000000000001946efc56375f150000000000000000000000000000000000000000000000000000000033071a30000000000000000000000000000000000000000000000000000000000000004800000000000000000000000000000000000000000000000000000000000000000000000000000000000000000000000000000000000000000000000000000000",
                    "logDecoded": true,
                    "operation": "EVENT",
                    "revert": false,
                    "status": true,
                    "topics": [
                        "0x50225349cc7e3814c4fa5fe6baef7a3c4cac55e92c64b1f4a5d1ba55e65dcc82"
                    ]
                },
                "nodeType": 1
            },
            "4": {
                "invocation": {
                    "address": "0x5f4ec3df9cbd43714fe2740f5e3616155c5b8419",
                    "callData": "0x",
                    "decodedMethod": {
                        "callParams": [],
                        "constructorArguments": "",
                        "name": "latestRoundData",
                        "returnParams": [
                            {
                                "name": "roundId",
                                "type": "uint80",
                                "value": "110,680,464,442,257,330,211"
                            },
                            {
                                "name": "answer",
                                "type": "int256",
                                "value": "292,161,056,000"
                            },
                            {
                                "name": "startedAt",
                                "type": "uint256",
                                "value": "1,722,647,471"
                            },
                            {
                                "name": "updatedAt",
                                "type": "uint256",
                                "value": "1,722,647,471"
                            },
                            {
                                "name": "answeredInRound",
                                "type": "uint80",
                                "value": "110,680,464,442,257,330,211"
                            }
                        ],
                        "signature": "latestRoundData()"
                    },
                    "errorInfo": "",
                    "fromAddress": "0x794f6b13fbd7eb7ef10d1ed205c9a416910207ff",
                    "gasUsed": 15735,
                    "id": 4,
                    "methodDecoded": true,
                    "operation": "STATICCALL",
                    "output": "0x0000000000000000000000000000000000000000000000060000000000005023000000000000000000000000000000000000000000000000000000440627ed000000000000000000000000000000000000000000000000000000000066ad83af0000000000000000000000000000000000000000000000000000000066ad83af0000000000000000000000000000000000000000000000060000000000005023",
                    "revert": false,
                    "revertMessage": "",
                    "selector": "0xfeaf968c",
                    "status": true,
                    "value": "0"
                },
                "nodeType": 0
            },
            "5": {
                "invocation": {
                    "address": "0xe62b71cf983019bff55bc83b48601ce8419650cc",
                    "callData": "0x",
                    "decodedMethod": {
                        "callParams": [],
                        "constructorArguments": "",
                        "name": "latestRoundData",
                        "returnParams": [
                            {
                                "name": "roundId",
                                "type": "uint80",
                                "value": "20,515"
                            },
                            {
                                "name": "answer",
                                "type": "int256",
                                "value": "292,161,056,000"
                            },
                            {
                                "name": "startedAt",
                                "type": "uint256",
                                "value": "1,722,647,471"
                            },
                            {
                                "name": "updatedAt",
                                "type": "uint256",
                                "value": "1,722,647,471"
                            },
                            {
                                "name": "answeredInRound",
                                "type": "uint80",
                                "value": "20,515"
                            }
                        ],
                        "signature": "latestRoundData()"
                    },
                    "errorInfo": "",
                    "fromAddress": "0x5f4ec3df9cbd43714fe2740f5e3616155c5b8419",
                    "gasUsed": 7502,
                    "id": 5,
                    "methodDecoded": true,
                    "operation": "STATICCALL",
                    "output": "0x0000000000000000000000000000000000000000000000000000000000005023000000000000000000000000000000000000000000000000000000440627ed000000000000000000000000000000000000000000000000000000000066ad83af0000000000000000000000000000000000000000000000000000000066ad83af0000000000000000000000000000000000000000000000000000000000005023",
                    "revert": false,
                    "revertMessage": "",
                    "selector": "0xfeaf968c",
                    "status": true,
                    "value": "0"
                },
                "nodeType": 0
            },
            "6": {
                "event": {
                    "contract": "0x794f6b13fbd7eb7ef10d1ed205c9a416910207ff",
                    "decodedLog": {
                        "name": "UpdateExchangeRate",
                        "params": [
                            {
                                "name": "_rate",
                                "type": "uint256",
                                "value": "342,276,966,578,324"
                            }
                        ],
                        "signature": "UpdateExchangeRate(uint256)"
                    },
                    "id": 6,
                    "logData": "0x0000000000000000000000000000000000000000000000000001374c9101f894",
                    "logDecoded": true,
                    "operation": "EVENT",
                    "revert": false,
                    "status": true,
                    "topics": [
                        "0x4fc1b45960547ee95894b08a284c3c066cf5aca706a7420639c42c3ec2e118a4"
                    ]
                },
                "nodeType": 1
            },
            "7": {
                "invocation": {
                    "address": "0xc02aaa39b223fe8d0a0e5c4f27ead9083c756cc2",
                    "callData": "0x00000000000000000000000015bb906d674f056099b41da766ac6b1c139f8ad400000000000000000000000000000000000000000000000030927f74c9de0000",
                    "decodedMethod": {
                        "callParams": [
                            {
                                "name": "dst",
                                "type": "address",
                                "value": "0x15bb906d674f056099b41da766ac6b1c139f8ad4"
                            },
                            {
                                "decimalAvailable": true,
                                "name": "wad",
                                "type": "uint256",
                                "value": "3,500,000,000,000,000,000"
                            }
                        ],
                        "constructorArguments": "",
                        "name": "transfer",
                        "returnParams": [
                            {
                                "name": "",
                                "type": "bool",
                                "value": true
                            }
                        ],
                        "signature": "transfer(address,uint256)"
                    },
                    "errorInfo": "",
                    "fromAddress": "0x794f6b13fbd7eb7ef10d1ed205c9a416910207ff",
                    "gasUsed": 29962,
                    "id": 7,
                    "methodDecoded": true,
                    "operation": "CALL",
                    "output": "0x0000000000000000000000000000000000000000000000000000000000000001",
                    "revert": false,
                    "revertMessage": "",
                    "selector": "0xa9059cbb",
                    "status": true,
                    "value": "0"
                },
                "nodeType": 0
            },
            "8": {
                "event": {
                    "contract": "0xc02aaa39b223fe8d0a0e5c4f27ead9083c756cc2",
                    "decodedLog": {
                        "name": "Transfer",
                        "params": [
                            {
                                "name": "src",
                                "type": "address",
                                "value": "0x794f6b13fbd7eb7ef10d1ed205c9a416910207ff"
                            },
                            {
                                "name": "dst",
                                "type": "address",
                                "value": "0x15bb906d674f056099b41da766ac6b1c139f8ad4"
                            },
                            {
                                "decimalAvailable": true,
                                "name": "wad",
                                "type": "uint256",
                                "value": "3,500,000,000,000,000,000"
                            }
                        ],
                        "signature": "Transfer(address,address,uint256)"
                    },
                    "id": 8,
                    "logData": "0x00000000000000000000000000000000000000000000000030927f74c9de0000",
                    "logDecoded": true,
                    "operation": "EVENT",
                    "revert": false,
                    "status": true,
                    "topics": [
                        "0xddf252ad1be2c89b69c2b068fc378daa952ba7f163c4a11628f55a4df523b3ef",
                        "0x000000000000000000000000794f6b13fbd7eb7ef10d1ed205c9a416910207ff",
                        "0x00000000000000000000000015bb906d674f056099b41da766ac6b1c139f8ad4"
                    ]
                },
                "nodeType": 1
            },
            "9": {
                "event": {
                    "contract": "0x794f6b13fbd7eb7ef10d1ed205c9a416910207ff",
                    "decodedLog": {
                        "name": "RemoveCollateral",
                        "params": [
                            {
                                "name": "_sender",
                                "type": "address",
                                "value": "0x15bb906d674f056099b41da766ac6b1c139f8ad4"
                            },
                            {
                                "name": "_receiver",
                                "type": "address",
                                "value": "0x15bb906d674f056099b41da766ac6b1c139f8ad4"
                            },
                            {
                                "name": "_borrower",
                                "type": "address",
                                "value": "0x15bb906d674f056099b41da766ac6b1c139f8ad4"
                            },
                            {
                                "name": "_collateralAmount",
                                "type": "uint256",
                                "value": "3,500,000,000,000,000,000"
                            }
                        ],
                        "signature": "RemoveCollateral(address,uint256,address,address)"
                    },
                    "id": 9,
                    "logData": "0x00000000000000000000000000000000000000000000000030927f74c9de0000",
                    "logDecoded": true,
                    "operation": "EVENT",
                    "revert": false,
                    "status": true,
                    "topics": [
                        "0xbc290bb45104f73cf92115c9603987c3f8fd30c182a13603d8cffa49b5f59952",
                        "0x00000000000000000000000015bb906d674f056099b41da766ac6b1c139f8ad4",
                        "0x00000000000000000000000015bb906d674f056099b41da766ac6b1c139f8ad4",
                        "0x00000000000000000000000015bb906d674f056099b41da766ac6b1c139f8ad4"
                    ]
                },
                "nodeType": 1
            }
        },
        "gasFlame": [
            {
                "children": [
                    {
                        "children": [
                            {
                                "children": [],
                                "depth": 0,
                                "name": "Initial Gas",
                                "value": 21632
                            },
                            {
                                "children": [
                                    {
                                        "children": [],
                                        "depth": 1,
                                        "name": "getNewRate",
                                        "value": 1212
                                    },
                                    {
                                        "children": [
                                            {
                                                "children": [],
                                                "depth": 2,
                                                "name": "latestRoundData",
                                                "value": 7502
                                            }
                                        ],
                                        "depth": 1,
                                        "name": "latestRoundData",
                                        "value": 15735
                                    },
                                    {
                                        "children": [],
                                        "depth": 1,
                                        "name": "transfer",
                                        "value": 29962
                                    }
                                ],
                                "depth": 0,
                                "name": "Executed Gas",
                                "value": 113453
                            }
                        ],
                        "depth": -1,
                        "name": "Actual Gas Used",
                        "value": 132285
                    },
                    {
                        "children": [],
                        "depth": -1,
                        "name": "Refunded Gas",
                        "value": 2800
                    }
                ],
                "depth": -2,
                "name": "Total Gas",
                "value": 135085
            }
        ],
        "isConfirmed": true,
        "mainTrace": [
            {
                "children": [
                    {
                        "children": [
                            {
                                "children": [],
                                "depth": 1,
                                "id": 1,
                                "order": 1
                            },
                            {
                                "children": [],
                                "depth": 1,
                                "id": 2,
                                "order": 2
                            },
                            {
                                "children": [],
                                "depth": 1,
                                "id": 3,
                                "order": 3
                            },
                            {
                                "children": [
                                    {
                                        "children": [],
                                        "depth": 2,
                                        "id": 5,
                                        "order": 5
                                    }
                                ],
                                "depth": 1,
                                "id": 4,
                                "order": 4
                            },
                            {
                                "children": [],
                                "depth": 1,
                                "id": 6,
                                "order": 6
                            },
                            {
                                "children": [
                                    {
                                        "children": [],
                                        "depth": 2,
                                        "id": 8,
                                        "order": 8
                                    }
                                ],
                                "depth": 1,
                                "id": 7,
                                "order": 7
                            },
                            {
                                "children": [],
                                "depth": 1,
                                "id": 9,
                                "order": 9
                            }
                        ],
                        "depth": 0,
                        "id": 0,
                        "order": 0
                    }
                ],
                "depth": -1,
                "id": -1,
                "order": -1
            }
        ],
        "mainTraceNodeCount": 10,
        "parentIdMap": {
            "0": -1,
            "1": 0,
            "2": 0,
            "3": 0,
            "4": 0,
            "5": 4,
            "6": 0,
            "7": 0,
            "8": 7,
            "9": 0
        },
        "tidyTrace": [
            {
                "children": [
                    {
                        "children": [
                            {
                                "children": [],
                                "depth": 1,
                                "id": 2,
                                "order": 2
                            },
                            {
                                "children": [],
                                "depth": 1,
                                "id": 3,
                                "order": 3
                            },
                            {
                                "children": [],
                                "depth": 1,
                                "id": 6,
                                "order": 6
                            },
                            {
                                "children": [
                                    {
                                        "children": [],
                                        "depth": 2,
                                        "id": 8,
                                        "order": 8
                                    }
                                ],
                                "depth": 1,
                                "id": 7,
                                "order": 7
                            },
                            {
                                "children": [],
                                "depth": 1,
                                "id": 9,
                                "order": 9
                            }
                        ],
                        "depth": 0,
                        "id": 0,
                        "order": 0
                    }
                ],
                "depth": -1,
                "id": -1,
                "order": -1
            }
        ],
        "tidyTraceNodeCount": 7
    },
    "state_change": {
        "stateChanges": [
            {
                "address": "0x794f6b13fbd7eb7ef10d1ed205c9a416910207ff",
                "erc": "ERC-20",
                "slots": [
                    {
                        "current": "0x000000000000000000000000000000000000000000000070aa3ad8644c8c4707",
                        "key": "0x0000000000000000000000000000000000000000000000000000000000000010",
                        "prev": "0x000000000000000000000000000000000000000000000070dacd57d9166a4707"
                    },
                    {
                        "current": "0x000000000001a4c94424f65906e8a03d000000000001bdd78d0614b29d922961",
                        "key": "0x000000000000000000000000000000000000000000000000000000000000000e",
                        "prev": "0x000000000001a4c94424f65906e8a03d000000000001bdd78b71a5b6475aca4c"
                    },
                    {
                        "current": "0x0000000033071a300000000066ad84e70000000000000000000000000137f603",
                        "key": "0x000000000000000000000000000000000000000000000000000000000000000c",
                        "prev": "0x00000000330663550000000066ad849f0000000000000000000000000137f5fd"
                    },
                    {
                        "current": "0x0000000000016957af4b66381ce41900000000000001871527e9c3859c2c92ee",
                        "key": "0x000000000000000000000000000000000000000000000000000000000000000f",
                        "prev": "0x0000000000016957af4b66381ce4190000000000000187152655548945f533d9"
                    },
                    {
                        "current": "0x00000000000000000000000000000000000000000001374c9101f89466ad84e7",
                        "key": "0x000000000000000000000000000000000000000000000000000000000000000d",
                        "prev": "0x00000000000000000000000000000000000000000001374c9101f89466ad846f"
                    },
                    {
                        "current": "0x0000000000000000000000000000000000000000000000032095c2abe0d05044",
                        "key": "0x1bd7d638bb76848adc3fff630dddd5fad9118f2a020afa086a61fee4f3917e6b",
                        "prev": "0x00000000000000000000000000000000000000000000000351284220aaae5044"
                    }
                ],
                "storageVariables": [
                    {
                        "name": "totalAsset",
                        "type": "struct VaultAccount",
                        "value": {
                            "fields": [
                                {
                                    "name": "amount",
                                    "type": "uint128",
                                    "value": {
                                        "current": "2105429296685206262131041",
                                        "prev": "2105429182847285613742668",
                                        "typeTag": 1
                                    }
                                },
                                {
                                    "name": "shares",
                                    "type": "uint128",
                                    "value": {
                                        "current": "1987106628684422578741309",
                                        "prev": "1987106628684422578741309",
                                        "typeTag": 1
                                    }
                                }
                            ],
                            "typeTag": 3
                        }
                    },
                    {
                        "name": "currentRateInfo",
                        "type": "struct FraxlendPairCore.CurrentRateInfo",
                        "value": {
                            "fields": [
                                {
                                    "name": "lastBlock",
                                    "type": "uint64",
                                    "value": {
                                        "current": "20444675",
                                        "prev": "20444669",
                                        "typeTag": 1
                                    }
                                },
                                {
                                    "name": "feeToProtocolRate",
                                    "type": "uint64",
                                    "value": {
                                        "current": "0",
                                        "prev": "0",
                                        "typeTag": 1
                                    }
                                },
                                {
                                    "name": "lastTimestamp",
                                    "type": "uint64",
                                    "value": {
                                        "current": "1722647783",
                                        "prev": "1722647711",
                                        "typeTag": 1
                                    }
                                },
                                {
                                    "name": "ratePerSec",
                                    "type": "uint64",
                                    "value": {
                                        "current": "856103472",
                                        "prev": "856056661",
                                        "typeTag": 1
                                    }
                                }
                            ],
                            "typeTag": 3
                        }
                    },
                    {
                        "name": "totalBorrow",
                        "type": "struct VaultAccount",
                        "value": {
                            "fields": [
                                {
                                    "name": "amount",
                                    "type": "uint128",
                                    "value": {
                                        "current": "1846835552472394850145006",
                                        "prev": "1846835438634474201756633",
                                        "typeTag": 1
                                    }
                                },
                                {
                                    "name": "shares",
                                    "type": "uint128",
                                    "value": {
                                        "current": "1706391798352325732735232",
                                        "prev": "1706391798352325732735232",
                                        "typeTag": 1
                                    }
                                }
                            ],
                            "typeTag": 3
                        }
                    },
                    {
                        "name": "exchangeRateInfo",
                        "type": "struct FraxlendPairCore.ExchangeRateInfo",
                        "value": {
                            "fields": [
                                {
                                    "name": "lastTimestamp",
                                    "type": "uint32",
                                    "value": {
                                        "current": "1722647783",
                                        "prev": "1722647663",
                                        "typeTag": 1
                                    }
                                },
                                {
                                    "name": "exchangeRate",
                                    "type": "uint224",
                                    "value": {
                                        "current": "342276966578324",
                                        "prev": "342276966578324",
                                        "typeTag": 1
                                    }
                                }
                            ],
                            "typeTag": 3
                        }
                    },
                    {
                        "name": "userCollateralBalance",
                        "type": "mapping(address => uint256)",
                        "value": {
                            "pairs": [
                                {
                                    "key": "0x15bb906d674f056099b41da766ac6b1c139f8ad4",
                                    "value": {
                                        "current": "57688229045339181124",
                                        "prev": "61188229045339181124",
                                        "typeTag": 1
                                    }
                                }
                            ],
                            "typeTag": 4
                        }
                    },
                    {
                        "name": "totalCollateral",
                        "type": "uint256",
                        "value": {
                            "current": "2078301690715859339015",
                            "prev": "2081801690715859339015",
                            "typeTag": 1
                        }
                    }
                ]
            },
            {
                "address": "0xc02aaa39b223fe8d0a0e5c4f27ead9083c756cc2",
                "erc": "ERC-20",
                "slots": [
                    {
                        "current": "0x000000000000000000000000000000000000000000000070aa3ad8644c8c4707",
                        "key": "0x06eaa0ca22a8aaf324b1d0395cfb6308bb1a79089057c1ddddcfbf0ebdfd82be",
                        "prev": "0x000000000000000000000000000000000000000000000070dacd57d9166a4707"
                    },
                    {
                        "current": "0x00000000000000000000000000000000000000000000000030927f74c9de0000",
                        "key": "0x37572a7bbe8e3418aadca4e20cb4d7f6e96b0257fd0461346f3b076e7237193f",
                        "prev": "0x0000000000000000000000000000000000000000000000000000000000000000"
                    }
                ],
                "storageVariables": [
                    {
                        "name": "balanceOf",
                        "type": "mapping(address => uint256)",
                        "value": {
                            "pairs": [
                                {
                                    "key": "0x15bb906d674f056099b41da766ac6b1c139f8ad4",
                                    "value": {
                                        "current": "3500000000000000000",
                                        "prev": "0",
                                        "typeTag": 1
                                    }
                                },
                                {
                                    "key": "0x794f6b13fbd7eb7ef10d1ed205c9a416910207ff",
                                    "value": {
                                        "current": "2078301690715859339015",
                                        "prev": "2081801690715859339015",
                                        "typeTag": 1
                                    }
                                }
                            ],
                            "typeTag": 4
                        }
                    }
                ]
            }
        ]
    }
}