{
    "balance_change": {
        "balanceChanges": []
    },
    "profile": {
        "basic_info": {
            "baseFee": "",
            "blockNumber": 12208965,
            "callData": "0xd52f7a760000000000000000000000001c9922314ed1415c95b9fd453c3818fd41867d0b000000000000000000000000000000000000000000000000001b1e08bb8fd799000000000000000000000000000000000000000000000000c673ce3c401600000000000000000000000000000000000000000000000078734d90c47a1d4e23670000000000000000000000000000000000000000000000384e4f7ccee352d783000000000000000000000000000000000000000000000000c249fdd32778000000000000000000000000000000000000000000000000000000000000000000000000000000000000000000004e9e73c0170f09e709573127c4ab02e57b86817800000000000000000000000049430023f9f1139c0c6844130bb3cfce8b0b457e00000000000000000000000000000000000000000001e103575fff0f9dd8f8780000000000000000000000000000000000000000000000000000000000000000e02c5f2f0001f7a7e017cbcb4018fdbb60070d774029fa93c01bb2dc40332712c0171709600dcc9580275400c016aae5a00577362001b58e801ed4af2026bcbc0000000000000000000000000000000000000000000000000000000000c65d41",
            "debugEnable": true,
            "errorInfo": "execution reverted",
            "eventCount": 0,
            "feeRecipient": "0x5a0b54d5dc17e0aadc383d2db43b0a0d3e029c4c",
            "formatValue": "0",
            "gasLimit": 205678,
            "gasPrice": "97.094331693",
            "gasUsed": 30085,
            "intTxnCount": 1,
            "internalRevert": true,
            "internalRevertMessage": "",
            "isContractCreation": false,
            "isFlashloan": false,
            "maxFee": "",
            "nonce": 7780,
            "overwritedBlockNumber": -1,
            "priorityFee": "",
            "receiver": "0xda1faeb056a2f568b138ca0ad9ad8a51915ba336",
            "revertMessage": "v?",
            "sender": "0xd2e0f41e091f0e98a0672f441fb4ff995277686d",
            "simulationEnable": true,
            "sourceTxnHash": "0x64f27e2a0ba9e3602814d09919d5b3ed2b72c5f9b31fd9e8ad49ccc014ef5a11",
            "status": false,
            "timestamp": "2021-04-10T00:42:14Z",
            "transactionFee": "0.002921082968983905",
            "txnHash": "0x64f27e2a0ba9e3602814d09919d5b3ed2b72c5f9b31fd9e8ad49ccc014ef5a11",
            "txnIndex": 45,
            "type": 0,
            "value": "0"
        },
        "fund_flow": [],
        "token_infos": [
            {
                "address": "0xc02aaa39b223fe8d0a0e5c4f27ead9083c756cc2",
                "decimals": 18
            },
            {
                "address": "0xeeeeeeeeeeeeeeeeeeeeeeeeeeeeeeeeeeeeeeee",
                "decimals": 18
            }
        ]
    },
    "address_label": {
        "labels": [
            {
                "address": "0xeeeeeeeeeeeeeeeeeeeeeeeeeeeeeeeeeeeeeeee",
                "label": "Ether"
            },
            {
                "address": "0x1c9922314ed1415c95b9fd453c3818fd41867d0b",
                "label": "Tower: TOWER Token"
            },
            {
                "address": "0x0000000000000000000000000000000000000001",
                "label": "Precompiled"
            },
            {
                "address": "0x0000000000000000000000000000000000000002",
                "label": "Precompiled"
            },
            {
                "address": "0x0000000000000000000000000000000000000003",
                "label": "Precompiled"
            },
            {
                "address": "0x0000000000000000000000000000000000000004",
                "label": "Precompiled"
            }
        ]
    },
    "trace": {
        "accountLabels": null,
        "dataMap": {
            "-1": {
                "invocation": {
                    "address": "0xd2e0f41e091f0e98a0672f441fb4ff995277686d",
                    "callData": "",
                    "decodedMethod": null,
                    "errorInfo": "",
                    "fromAddress": "",
                    "gasUsed": 0,
                    "id": -1,
                    "methodDecoded": false,
                    "operation": "",
                    "output": "",
                    "revert": false,
                    "revertMessage": "",
                    "selector": "",
                    "status": false,
                    "value": ""
                },
                "nodeType": 0
            },
            "0": {
                "invocation": {
                    "address": "0xda1faeb056a2f568b138ca0ad9ad8a51915ba336",
                    "callData": "0x0000000000000000000000001c9922314ed1415c95b9fd453c3818fd41867d0b000000000000000000000000000000000000000000000000001b1e08bb8fd799000000000000000000000000000000000000000000000000c673ce3c401600000000000000000000000000000000000000000000000078734d90c47a1d4e23670000000000000000000000000000000000000000000000384e4f7ccee352d783000000000000000000000000000000000000000000000000c249fdd32778000000000000000000000000000000000000000000000000000000000000000000000000000000000000000000004e9e73c0170f09e709573127c4ab02e57b86817800000000000000000000000049430023f9f1139c0c6844130bb3cfce8b0b457e00000000000000000000000000000000000000000001e103575fff0f9dd8f8780000000000000000000000000000000000000000000000000000000000000000e02c5f2f0001f7a7e017cbcb4018fdbb60070d774029fa93c01bb2dc40332712c0171709600dcc9580275400c016aae5a00577362001b58e801ed4af2026bcbc0000000000000000000000000000000000000000000000000000000000c65d41",
                    "decodedMethod": null,
                    "errorInfo": "execution reverted",
                    "fromAddress": "0xd2e0f41e091f0e98a0672f441fb4ff995277686d",
                    "gasUsed": 30085,
                    "id": 0,
                    "methodDecoded": false,
                    "operation": "CALL",
                    "output": "0x08c379a000000000000000000000000000000000000000000000000000000000000000200000000000000000000000000000000000000000000000000000000000000002763f000000000000000000000000000000000000000000000000000000000000",
                    "revert": true,
                    "revertMessage": "v?",
                    "selector": "0xd52f7a76",
                    "status": false,
                    "value": "0"
                },
                "nodeType": 0
            },
            "1": {
                "invocation": {
                    "address": "0x1c9922314ed1415c95b9fd453c3818fd41867d0b",
                    "callData": "0x00000000000000000000000049430023f9f1139c0c6844130bb3cfce8b0b457e",
                    "decodedMethod": {
                        "callParams": [
                            {
                                "name": "account",
                                "type": "address",
                                "value": "0x49430023f9f1139c0c6844130bb3cfce8b0b457e"
                            }
                        ],
                        "constructorArguments": "",
                        "name": "balanceOf",
                        "returnParams": [
                            {
                                "decimalAvailable": true,
                                "name": "",
                                "type": "uint256",
                                "value": "2,843,174,911,933,247,450,837,128"
                            }
                        ],
                        "signature": "balanceOf(address)"
                    },
                    "errorInfo": "",
                    "fromAddress": "0xda1faeb056a2f568b138ca0ad9ad8a51915ba336",
                    "gasUsed": 1187,
                    "id": 1,
                    "methodDecoded": true,
                    "operation": "STATICCALL",
                    "output": "0x000000000000000000000000000000000000000000025a10d220d9001a04f088",
                    "revert": true,
                    "revertMessage": "",
                    "selector": "0x70a08231",
                    "status": true,
                    "value": "0"
                },
                "nodeType": 0
            }
        },
        "gasFlame": [
            {
                "children": [
                    {
                        "children": [
                            {
                                "children": [],
                                "depth": 0,
                                "name": "Initial Gas",
                                "value": 24932
                            },
                            {
                                "children": [
                                    {
                                        "children": [],
                                        "depth": 1,
                                        "name": "balanceOf",
                                        "value": 1187
                                    }
                                ],
                                "depth": 0,
                                "name": "Executed Gas",
                                "value": 5153
                            }
                        ],
                        "depth": -1,
                        "name": "Actual Gas Used",
                        "value": 30085
                    },
                    {
                        "children": [],
                        "depth": -1,
                        "name": "Refunded Gas",
                        "value": 0
                    }
                ],
                "depth": -2,
                "name": "Total Gas",
                "value": 30085
            }
        ],
        "isConfirmed": true,
        "mainTrace": [
            {
                "children": [
                    {
                        "children": [
                            {
                                "children": [],
                                "depth": 1,
                                "id": 1,
                                "order": 1
                            }
                        ],
                        "depth": 0,
                        "id": 0,
                        "order": 0
                    }
                ],
                "depth": -1,
                "id": -1,
                "order": -1
            }
        ],
        "mainTraceNodeCount": 2,
        "parentIdMap": {
            "0": -1,
            "1": 0
        },
        "tidyTrace": [
            {
                "children": [
                    {
                        "children": [],
                        "depth": 0,
                        "id": 0,
                        "order": 0
                    }
                ],
                "depth": -1,
                "id": -1,
                "order": -1
            }
        ],
        "tidyTraceNodeCount": 1
    },
    "state_change": {
        "stateChanges": []
    }
}