{
    "balance_change": {
        "balanceChanges": [
            {
                "account": "0xe4e669b85b762ee0bf129d73279c0c028b526745",
                "assets": [
                    {
                        "address": "0x3bff697e966b77cb4f0e32815dd020b09750b22d",
                        "amount": "1,161.6",
                        "iconUrl": "",
                        "isERC1155": false,
                        "isERC721": false,
                        "sign": false,
                        "value": ""
                    }
                ]
            },
            {
                "account": "0x193a4a5288ba4fadb7450125849c44804dced363",
                "assets": [
                    {
                        "address": "0x3bff697e966b77cb4f0e32815dd020b09750b22d",
                        "amount": "1,161.6",
                        "iconUrl": "",
                        "isERC1155": false,
                        "isERC721": false,
                        "sign": true,
                        "value": ""
                    }
                ]
            }
        ]
    },
    "profile": {
        "basic_info": {
            "baseFee": "",
            "blockNumber": 7978978,
            "callData": "0xa9059cbb000000000000000000000000193a4a5288ba4fadb7450125849c44804dced36300000000000000000000000000000000000000000000003ef870359455c00000",
            "debugEnable": true,
            "errorInfo": "",
            "eventCount": 1,
            "feeRecipient": "0x5a0b54d5dc17e0aadc383d2db43b0a0d3e029c4c",
            "formatValue": "0",
            "gasLimit": 2100000,
            "gasPrice": "10",
            "gasUsed": 38800,
            "intTxnCount": 0,
            "internalRevert": false,
            "internalRevertMessage": "",
            "isContractCreation": false,
            "isFlashloan": false,
            "maxFee": "",
            "nonce": 26453,
            "overwritedBlockNumber": -1,
            "priorityFee": "",
            "receiver": "0x3bff697e966b77cb4f0e32815dd020b09750b22d",
            "revertMessage": "",
            "sender": "0xe4e669b85b762ee0bf129d73279c0c028b526745",
            "simulationEnable": true,
            "sourceTxnHash": "0x65bdea70ea68fbc72b8dcf55b12d0efd3ce31702c07df23809ecf4d010c340b5",
            "status": true,
            "timestamp": "2019-06-17T23:52:46Z",
            "transactionFee": "0.000388",
            "txnHash": "0x65bdea70ea68fbc72b8dcf55b12d0efd3ce31702c07df23809ecf4d010c340b5",
            "txnIndex": 130,
            "type": 0,
            "value": "0"
        },
        "fund_flow": [
            {
                "amount": "1,161.6",
                "from": "0xe4e669b85b762ee0bf129d73279c0c028b526745",
                "id": 1,
                "isERC1155": false,
                "isERC721": false,
                "isReverted": false,
                "order": 1,
                "to": "0x193a4a5288ba4fadb7450125849c44804dced363",
                "token": "0x3bff697e966b77cb4f0e32815dd020b09750b22d"
            }
        ],
        "token_infos": [
            {
                "address": "0x3bff697e966b77cb4f0e32815dd020b09750b22d",
                "decimals": 18
            },
            {
                "address": "0xc02aaa39b223fe8d0a0e5c4f27ead9083c756cc2",
                "decimals": 18
            },
            {
                "address": "0xeeeeeeeeeeeeeeeeeeeeeeeeeeeeeeeeeeeeeeee",
                "decimals": 18
            }
        ]
    },
    "address_label": {
        "labels": [
            {
                "address": "0x0000000000000000000000000000000000000001",
                "label": "Precompiled"
            },
            {
                "address": "0x0000000000000000000000000000000000000002",
                "label": "Precompiled"
            },
            {
                "address": "0x0000000000000000000000000000000000000003",
                "label": "Precompiled"
            },
            {
                "address": "0x0000000000000000000000000000000000000004",
                "label": "Precompiled"
            },
            {
                "address": "0xeeeeeeeeeeeeeeeeeeeeeeeeeeeeeeeeeeeeeeee",
                "label": "Ether"
            },
            {
                "address": "0x3bff697e966b77cb4f0e32815dd020b09750b22d",
                "label": "KeslaChain (KEC)"
            }
        ]
    },
    "trace": {
        "accountLabels": null,
        "dataMap": {
            "-1": {
                "invocation": {
                    "address": "0xe4e669b85b762ee0bf129d73279c0c028b526745",
                    "callData": "",
                    "decodedMethod": null,
                    "errorInfo": "",
                    "fromAddress": "",
                    "gasUsed": 0,
                    "id": -1,
                    "methodDecoded": false,
                    "operation": "",
                    "output": "",
                    "revert": false,
                    "revertMessage": "",
                    "selector": "",
                    "status": false,
                    "value": ""
                },
                "nodeType": 0
            },
            "0": {
                "invocation": {
                    "address": "0x3bff697e966b77cb4f0e32815dd020b09750b22d",
                    "callData": "0x000000000000000000000000193a4a5288ba4fadb7450125849c44804dced36300000000000000000000000000000000000000000000003ef870359455c00000",
                    "decodedMethod": {
                        "callParams": [
                            {
                                "name": "_to",
                                "type": "address",
                                "value": "0x193a4a5288ba4fadb7450125849c44804dced363"
                            },
                            {
                                "decimalAvailable": true,
                                "name": "_value",
                                "type": "uint256",
                                "value": "1,161,600,000,000,000,000,000"
                            }
                        ],
                        "constructorArguments": "",
                        "name": "transfer",
                        "returnParams": [
                            {
                                "name": "success",
                                "type": "bool",
                                "value": true
                            }
                        ],
                        "signature": "transfer(address,uint256)"
                    },
                    "errorInfo": "",
                    "fromAddress": "0xe4e669b85b762ee0bf129d73279c0c028b526745",
                    "gasUsed": 38800,
                    "id": 0,
                    "methodDecoded": true,
                    "operation": "CALL",
                    "output": "0x0000000000000000000000000000000000000000000000000000000000000001",
                    "revert": false,
                    "revertMessage": "",
                    "selector": "0xa9059cbb",
                    "status": true,
                    "value": "0"
                },
                "nodeType": 0
            },
            "1": {
                "event": {
                    "contract": "0x3bff697e966b77cb4f0e32815dd020b09750b22d",
                    "decodedLog": {
                        "name": "Transfer",
                        "params": [
                            {
                                "name": "_from",
                                "type": "address",
                                "value": "0xe4e669b85b762ee0bf129d73279c0c028b526745"
                            },
                            {
                                "name": "_to",
                                "type": "address",
                                "value": "0x193a4a5288ba4fadb7450125849c44804dced363"
                            },
                            {
                                "decimalAvailable": true,
                                "name": "_value",
                                "type": "uint256",
                                "value": "1,161,600,000,000,000,000,000"
                            }
                        ],
                        "signature": "Transfer(address,address,uint256)"
                    },
                    "id": 1,
                    "logData": "0x00000000000000000000000000000000000000000000003ef870359455c00000",
                    "logDecoded": true,
                    "operation": "EVENT",
                    "revert": false,
                    "status": true,
                    "topics": [
                        "0xddf252ad1be2c89b69c2b068fc378daa952ba7f163c4a11628f55a4df523b3ef",
                        "0x000000000000000000000000e4e669b85b762ee0bf129d73279c0c028b526745",
                        "0x000000000000000000000000193a4a5288ba4fadb7450125849c44804dced363"
                    ]
                },
                "nodeType": 1
            }
        },
        "gasFlame": [
            {
                "children": [
                    {
                        "children": [
                            {
                                "children": [],
                                "depth": 0,
                                "name": "Initial Gas",
                                "value": 23256
                            },
                            {
                                "children": [],
                                "depth": 0,
                                "name": "Executed Gas",
                                "value": 15544
                            }
                        ],
                        "depth": -1,
                        "name": "Actual Gas Used",
                        "value": 38800
                    },
                    {
                        "children": [],
                        "depth": -1,
                        "name": "Refunded Gas",
                        "value": 0
                    }
                ],
                "depth": -2,
                "name": "Total Gas",
                "value": 38800
            }
        ],
        "isConfirmed": true,
        "mainTrace": [
            {
                "children": [
                    {
                        "children": [
                            {
                                "children": [],
                                "depth": 1,
                                "id": 1,
                                "order": 1
                            }
                        ],
                        "depth": 0,
                        "id": 0,
                        "order": 0
                    }
                ],
                "depth": -1,
                "id": -1,
                "order": -1
            }
        ],
        "mainTraceNodeCount": 2,
        "parentIdMap": {
            "0": -1,
            "1": 0
        },
        "tidyTrace": [
            {
                "children": [
                    {
                        "children": [
                            {
                                "children": [],
                                "depth": 1,
                                "id": 1,
                                "order": 1
                            }
                        ],
                        "depth": 0,
                        "id": 0,
                        "order": 0
                    }
                ],
                "depth": -1,
                "id": -1,
                "order": -1
            }
        ],
        "tidyTraceNodeCount": 2
    },
    "state_change": {
        "stateChanges": [
            {
                "address": "0x3bff697e966b77cb4f0e32815dd020b09750b22d",
                "erc": "ERC-20",
                "slots": [
                    {
                        "current": "0x0000000000000000000000000000000000000000000a4f9db450024827240000",
                        "key": "0x2ac2bc0ced62bfc8426efa4a07a7f51d1e0eff22df4d70d41e9479aa94ea5ac5",
                        "prev": "0x0000000000000000000000000000000000000000000a4fdcacc037dc7ce40000"
                    },
                    {
                        "current": "0x00000000000000000000000000000000000000000000018ea41de3cc67c30000",
                        "key": "0x7528c8841746eb58f0db927d76c02601a9f01602566cabc5465233c6074d7aca",
                        "prev": "0x00000000000000000000000000000000000000000000014fabadae3812030000"
                    }
                ],
                "storageVariables": [
                    {
                        "name": "balances",
                        "type": "mapping(address => uint256)",
                        "value": {
                            "pairs": [
                                {
                                    "key": "0x193a4a5288ba4fadb7450125849c44804dced363",
                                    "value": {
                                        "current": "7353630000000000000000",
                                        "prev": "6192030000000000000000",
                                        "typeTag": 1
                                    }
                                },
                                {
                                    "key": "0xe4e669b85b762ee0bf129d73279c0c028b526745",
                                    "value": {
                                        "current": "12465234280000000000000000",
                                        "prev": "12466395880000000000000000",
                                        "typeTag": 1
                                    }
                                }
                            ],
                            "typeTag": 4
                        }
                    }
                ]
            }
        ]
    }
}