{
    "balance_change": {
        "balanceChanges": [
            {
                "account": "0x4e0be171d791a421c1fc3a103102036afbb324d4",
                "assets": [
                    {
                        "address": "0xeeeeeeeeeeeeeeeeeeeeeeeeeeeeeeeeeeeeeeee",
                        "amount": "0.20483094631319516",
                        "iconUrl": "https://assets.blocksec.com/image/1663669189317-3.png",
                        "isERC1155": false,
                        "isERC721": false,
                        "sign": false,
                        "value": ""
                    }
                ]
            },
            {
                "account": "0x167a9333bf582556f35bd4d16a7e80e191aa6476",
                "assets": [
                    {
                        "address": "0xeeeeeeeeeeeeeeeeeeeeeeeeeeeeeeeeeeeeeeee",
                        "amount": "0.20483094631319516",
                        "iconUrl": "https://assets.blocksec.com/image/1663669189317-3.png",
                        "isERC1155": false,
                        "isERC721": false,
                        "sign": true,
                        "value": ""
                    }
                ]
            }
        ]
    },
    "profile": {
        "basic_info": {
            "baseFee": "",
            "blockNumber": 3555187,
            "callData": "0x0f2c9329000000000000000000000000167a9333bf582556f35bd4d16a7e80e191aa6476000000000000000000000000571b7b69829ce2568b9bc3d32eaf7405dab76b21",
            "debugEnable": true,
            "errorInfo": "",
            "eventCount": 0,
            "feeRecipient": "0x61c808d82a3ac53231750dadc13c777b59310bd9",
            "formatValue": "0.20483094631319516",
            "gasLimit": 100000,
            "gasPrice": "100",
            "gasUsed": 33571,
            "intTxnCount": 2,
            "internalRevert": false,
            "internalRevertMessage": "",
            "isContractCreation": false,
            "isFlashloan": false,
            "maxFee": "",
            "nonce": 327,
            "overwritedBlockNumber": -1,
            "priorityFee": "",
            "receiver": "0xabbb6bebfa05aa13e908eaa492bd7a8343760477",
            "revertMessage": "",
            "sender": "0x4e0be171d791a421c1fc3a103102036afbb324d4",
            "simulationEnable": true,
            "sourceTxnHash": "0x651fc21fe92d5d70b10cc1ac197814f9a19b0569b07e84f95fa00023a885b28b",
            "status": true,
            "timestamp": "2017-04-18T03:57:42Z",
            "transactionFee": "0.0033571",
            "txnHash": "0x651fc21fe92d5d70b10cc1ac197814f9a19b0569b07e84f95fa00023a885b28b",
            "txnIndex": 0,
            "type": 0,
            "value": "204830946313195160"
        },
        "fund_flow": [
            {
                "amount": "0.20483094631319516",
                "from": "0x4e0be171d791a421c1fc3a103102036afbb324d4",
                "id": 1,
                "isERC1155": false,
                "isERC721": false,
                "isReverted": false,
                "order": 1,
                "to": "0xabbb6bebfa05aa13e908eaa492bd7a8343760477",
                "token": "0xeeeeeeeeeeeeeeeeeeeeeeeeeeeeeeeeeeeeeeee"
            },
            {
                "amount": "0.20483094631319516",
                "from": "0xabbb6bebfa05aa13e908eaa492bd7a8343760477",
                "id": 2,
                "isERC1155": false,
                "isERC721": false,
                "isReverted": false,
                "order": 2,
                "to": "0x167a9333bf582556f35bd4d16a7e80e191aa6476",
                "token": "0xeeeeeeeeeeeeeeeeeeeeeeeeeeeeeeeeeeeeeeee"
            }
        ],
        "token_infos": [
            {
                "address": "0xc02aaa39b223fe8d0a0e5c4f27ead9083c756cc2",
                "decimals": 18
            },
            {
                "address": "0xeeeeeeeeeeeeeeeeeeeeeeeeeeeeeeeeeeeeeeee",
                "decimals": 18
            }
        ]
    },
    "address_label": {
        "labels": [
            {
                "address": "0x2bd2326c993dfaef84f696526064ff22eba5b362",
                "label": "AmIOnTheFork"
            },
            {
                "address": "0x571b7b69829ce2568b9bc3d32eaf7405dab76b21",
                "label": "COINONE"
            },
            {
                "address": "0x167a9333bf582556f35bd4d16a7e80e191aa6476",
                "label": "Coinone"
            },
            {
                "address": "0x0000000000000000000000000000000000000002",
                "label": "Precompiled"
            },
            {
                "address": "0x0000000000000000000000000000000000000003",
                "label": "Precompiled"
            },
            {
                "address": "0x0000000000000000000000000000000000000004",
                "label": "Precompiled"
            },
            {
                "address": "0xeeeeeeeeeeeeeeeeeeeeeeeeeeeeeeeeeeeeeeee",
                "label": "Ether"
            },
            {
                "address": "0xabbb6bebfa05aa13e908eaa492bd7a8343760477",
                "label": "ReplaySafeSplit v2"
            },
            {
                "address": "0x0000000000000000000000000000000000000001",
                "label": "Precompiled"
            }
        ]
    },
    "trace": {
        "accountLabels": null,
        "dataMap": {
            "-1": {
                "invocation": {
                    "address": "0x4e0be171d791a421c1fc3a103102036afbb324d4",
                    "callData": "",
                    "decodedMethod": null,
                    "errorInfo": "",
                    "fromAddress": "",
                    "gasUsed": 0,
                    "id": -1,
                    "methodDecoded": false,
                    "operation": "",
                    "output": "",
                    "revert": false,
                    "revertMessage": "",
                    "selector": "",
                    "status": false,
                    "value": ""
                },
                "nodeType": 0
            },
            "0": {
                "invocation": {
                    "address": "0xabbb6bebfa05aa13e908eaa492bd7a8343760477",
                    "callData": "0x000000000000000000000000167a9333bf582556f35bd4d16a7e80e191aa6476000000000000000000000000571b7b69829ce2568b9bc3d32eaf7405dab76b21",
                    "decodedMethod": {
                        "callParams": [
                            {
                                "name": "targetFork",
                                "type": "address",
                                "value": "0x167a9333bf582556f35bd4d16a7e80e191aa6476"
                            },
                            {
                                "name": "targetNoFork",
                                "type": "address",
                                "value": "0x571b7b69829ce2568b9bc3d32eaf7405dab76b21"
                            }
                        ],
                        "constructorArguments": "",
                        "name": "split",
                        "returnParams": [
                            {
                                "name": "",
                                "type": "bool",
                                "value": true
                            }
                        ],
                        "signature": "split(address,address)"
                    },
                    "errorInfo": "",
                    "fromAddress": "0x4e0be171d791a421c1fc3a103102036afbb324d4",
                    "gasUsed": 33571,
                    "id": 0,
                    "methodDecoded": true,
                    "operation": "CALL",
                    "output": "0x0000000000000000000000000000000000000000000000000000000000000001",
                    "revert": false,
                    "revertMessage": "",
                    "selector": "0x0f2c9329",
                    "status": true,
                    "value": "0.20483094631319516"
                },
                "nodeType": 0
            },
            "1": {
                "invocation": {
                    "address": "0x2bd2326c993dfaef84f696526064ff22eba5b362",
                    "callData": "0x",
                    "decodedMethod": {
                        "callParams": [],
                        "constructorArguments": "",
                        "name": "forked",
                        "returnParams": [
                            {
                                "name": "",
                                "type": "bool",
                                "value": true
                            }
                        ],
                        "signature": "forked()"
                    },
                    "errorInfo": "",
                    "fromAddress": "0xabbb6bebfa05aa13e908eaa492bd7a8343760477",
                    "gasUsed": 387,
                    "id": 1,
                    "methodDecoded": true,
                    "operation": "CALL",
                    "output": "0x0000000000000000000000000000000000000000000000000000000000000001",
                    "revert": false,
                    "revertMessage": "",
                    "selector": "0x16c72721",
                    "status": true,
                    "value": "0"
                },
                "nodeType": 0
            },
            "2": {
                "invocation": {
                    "address": "0x167a9333bf582556f35bd4d16a7e80e191aa6476",
                    "callData": "0x",
                    "decodedMethod": null,
                    "errorInfo": "",
                    "fromAddress": "0xabbb6bebfa05aa13e908eaa492bd7a8343760477",
                    "gasUsed": 0,
                    "id": 2,
                    "methodDecoded": false,
                    "operation": "CALL",
                    "output": "",
                    "revert": false,
                    "revertMessage": "",
                    "selector": "fallback",
                    "status": true,
                    "value": "0.20483094631319516"
                },
                "nodeType": 0
            }
        },
        "gasFlame": [
            {
                "children": [
                    {
                        "children": [
                            {
                                "children": [],
                                "depth": 0,
                                "name": "Initial Gas",
                                "value": 24088
                            },
                            {
                                "children": [
                                    {
                                        "children": [],
                                        "depth": 1,
                                        "name": "forked",
                                        "value": 387
                                    },
                                    {
                                        "children": [],
                                        "depth": 1,
                                        "name": "fallback",
                                        "value": 0
                                    }
                                ],
                                "depth": 0,
                                "name": "Executed Gas",
                                "value": 9483
                            }
                        ],
                        "depth": -1,
                        "name": "Actual Gas Used",
                        "value": 33571
                    },
                    {
                        "children": [],
                        "depth": -1,
                        "name": "Refunded Gas",
                        "value": 0
                    }
                ],
                "depth": -2,
                "name": "Total Gas",
                "value": 33571
            }
        ],
        "isConfirmed": true,
        "mainTrace": [
            {
                "children": [
                    {
                        "children": [
                            {
                                "children": [],
                                "depth": 1,
                                "id": 1,
                                "order": 1
                            },
                            {
                                "children": [],
                                "depth": 1,
                                "id": 2,
                                "order": 2
                            }
                        ],
                        "depth": 0,
                        "id": 0,
                        "order": 0
                    }
                ],
                "depth": -1,
                "id": -1,
                "order": -1
            }
        ],
        "mainTraceNodeCount": 3,
        "parentIdMap": {
            "0": -1,
            "1": 0,
            "2": 0
        },
        "tidyTrace": [
            {
                "children": [
                    {
                        "children": [
                            {
                                "children": [],
                                "depth": 1,
                                "id": 1,
                                "order": 1
                            },
                            {
                                "children": [],
                                "depth": 1,
                                "id": 2,
                                "order": 2
                            }
                        ],
                        "depth": 0,
                        "id": 0,
                        "order": 0
                    }
                ],
                "depth": -1,
                "id": -1,
                "order": -1
            }
        ],
        "tidyTraceNodeCount": 3
    },
    "state_change": {
        "stateChanges": []
    }
}