{
    "balance_change": {
        "balanceChanges": [
            {
                "account": "0xd6c9f246defcab4b844533379cb0df03178bec02",
                "assets": [
                    {
                        "address": "0xd7df7e085214743530aff339afc420c7c720bfa7",
                        "amount": "0.006716539870048451",
                        "iconUrl": "",
                        "isERC1155": false,
                        "isERC721": false,
                        "sign": true,
                        "value": "20.55045889"
                    }
                ]
            },
            {
                "account": "0x7c2d26182adeef96976035986cf56474fec03bda",
                "assets": [
                    {
                        "address": "0xd7df7e085214743530aff339afc420c7c720bfa7",
                        "amount": "0.006924267907266444",
                        "iconUrl": "",
                        "isERC1155": false,
                        "isERC721": false,
                        "sign": false,
                        "value": "21.18587709"
                    }
                ]
            },
            {
                "account": "0x8270400d528c34e1596ef367eedec99080a1b592",
                "assets": [
                    {
                        "address": "0xd7df7e085214743530aff339afc420c7c720bfa7",
                        "amount": "0.000207728037217993",
                        "iconUrl": "",
                        "isERC1155": false,
                        "isERC721": false,
                        "sign": true,
                        "value": "0.63557375"
                    }
                ]
            }
        ]
    },
    "profile": {
        "basic_info": {
            "baseFee": "3.301986769",
            "blockNumber": 19886920,
            "callData": "0xf7e375e8000000000000000000000000d6c9f246defcab4b844533379cb0df03178bec02000000000000000000000000000000000000000000000000000000000000008000000000000000000000000000000000000000000000000000000000000000a000000000000000000000000000000000000000000000000000000000000000e0000000000000000000000000000000000000000000000000000000000000000000000000000000000000000000000000000000000000000000000000000000010000000000000000000000007c2d26182adeef96976035986cf56474fec03bda0000000000000000000000000000000000000000000000000000000000000000",
            "debugEnable": true,
            "errorInfo": "",
            "eventCount": 6,
            "feeRecipient": "0x95222290dd7278aa3ddd389cc1e1d165cc4bafe5",
            "formatValue": "0",
            "gasLimit": 273782,
            "gasPrice": "4.1",
            "gasUsed": 159041,
            "intTxnCount": 24,
            "internalRevert": false,
            "internalRevertMessage": "",
            "isContractCreation": false,
            "isFlashloan": false,
            "maxFee": "",
            "nonce": 7,
            "overwritedBlockNumber": -1,
            "priorityFee": "",
            "receiver": "0x888888888889758f76e7103c6cbf23abbf58f946",
            "revertMessage": "",
            "sender": "0xd6c9f246defcab4b844533379cb0df03178bec02",
            "simulationEnable": true,
            "sourceTxnHash": "0x65347b7457dcef493252f907935c317f6b32fff93cc31892a915a0eb539ba26c",
            "status": true,
            "timestamp": "2024-05-17T03:09:23Z",
            "transactionFee": "0.0006520681",
            "txnHash": "0x65347b7457dcef493252f907935c317f6b32fff93cc31892a915a0eb539ba26c",
            "txnIndex": 106,
            "type": 0,
            "value": "0"
        },
        "fund_flow": [
            {
                "amount": "0.000207728037217993",
                "from": "0x7c2d26182adeef96976035986cf56474fec03bda",
                "id": 1,
                "isERC1155": false,
                "isERC721": false,
                "isReverted": false,
                "order": 1,
                "to": "0x8270400d528c34e1596ef367eedec99080a1b592",
                "token": "0xd7df7e085214743530aff339afc420c7c720bfa7"
            },
            {
                "amount": "0.006716539870048451",
                "from": "0x7c2d26182adeef96976035986cf56474fec03bda",
                "id": 2,
                "isERC1155": false,
                "isERC721": false,
                "isReverted": false,
                "order": 2,
                "to": "0xd6c9f246defcab4b844533379cb0df03178bec02",
                "token": "0xd7df7e085214743530aff339afc420c7c720bfa7"
            }
        ],
        "token_infos": [
            {
                "address": "0xc02aaa39b223fe8d0a0e5c4f27ead9083c756cc2",
                "decimals": 18
            },
            {
                "address": "0xd7df7e085214743530aff339afc420c7c720bfa7",
                "decimals": 18
            },
            {
                "address": "0xeeeeeeeeeeeeeeeeeeeeeeeeeeeeeeeeeeeeeeee",
                "decimals": 18
            }
        ]
    },
    "address_label": {
        "labels": [
            {
                "address": "0x308861a430be4cce5502d0a12724771fc6daf216",
                "label": "UUPSProxy"
            },
            {
                "address": "0xe2713ea76ffcbf09ab161c5769ae55dfc286cc70",
                "label": "PendleZtakeWeETHSY"
            },
            {
                "address": "0x242063e8002d6a2839951c02b96e089b3e048437",
                "label": "ActionMiscV3"
            },
            {
                "address": "0x0000000000000000000000000000000000000003",
                "label": "Precompiled"
            },
            {
                "address": "0xd7df7e085214743530aff339afc420c7c720bfa7",
                "label": "Pendle: SY Zircuit Ether.fi weETH"
            },
            {
                "address": "0x35fa164735182de50811e8e2e824cfb9b6118ac2",
                "label": "ether.fi: eETH Token"
            },
            {
                "address": "0x605f17e88027e25e18c95be0d8011ac969426399",
                "label": "LiquidityPool"
            },
            {
                "address": "0x888888888889758f76e7103c6cbf23abbf58f946",
                "label": "Pendle: RouterV4"
            },
            {
                "address": "0x8270400d528c34e1596ef367eedec99080a1b592",
                "label": "Proxy_8270_b592"
            },
            {
                "address": "0xdf3601014686674e53d1fa52f7602525483f9122",
                "label": "Pendle: Yield Contract Factory V3"
            },
            {
                "address": "0x1b47a665364bc15c28b05f449b53354d0ceff72f",
                "label": "EETH"
            },
            {
                "address": "0x0000000000000000000000000000000000000002",
                "label": "Precompiled"
            },
            {
                "address": "0xeeeeeeeeeeeeeeeeeeeeeeeeeeeeeeeeeeeeeeee",
                "label": "Ether"
            },
            {
                "address": "0x7c2d26182adeef96976035986cf56474fec03bda",
                "label": "Pendle:YT-zs-weETH-27JUN2024 Token"
            },
            {
                "address": "0x0000000000000000000000000000000000000001",
                "label": "Precompiled"
            },
            {
                "address": "0x0000000000000000000000000000000000000004",
                "label": "Precompiled"
            }
        ]
    },
    "trace": {
        "accountLabels": null,
        "dataMap": {
            "-1": {
                "invocation": {
                    "address": "0xd6c9f246defcab4b844533379cb0df03178bec02",
                    "callData": "",
                    "decodedMethod": null,
                    "errorInfo": "",
                    "fromAddress": "",
                    "gasUsed": 0,
                    "id": -1,
                    "methodDecoded": false,
                    "operation": "",
                    "output": "",
                    "revert": false,
                    "revertMessage": "",
                    "selector": "",
                    "status": false,
                    "value": ""
                },
                "nodeType": 0
            },
            "0": {
                "invocation": {
                    "address": "0x888888888889758f76e7103c6cbf23abbf58f946",
                    "callData": "0x000000000000000000000000d6c9f246defcab4b844533379cb0df03178bec02000000000000000000000000000000000000000000000000000000000000008000000000000000000000000000000000000000000000000000000000000000a000000000000000000000000000000000000000000000000000000000000000e0000000000000000000000000000000000000000000000000000000000000000000000000000000000000000000000000000000000000000000000000000000010000000000000000000000007c2d26182adeef96976035986cf56474fec03bda0000000000000000000000000000000000000000000000000000000000000000",
                    "decodedMethod": {
                        "callParams": [
                            {
                                "name": "user",
                                "type": "address",
                                "value": "0xd6c9f246defcab4b844533379cb0df03178bec02"
                            },
                            {
                                "name": "sys",
                                "type": "address[]",
                                "value": []
                            },
                            {
                                "name": "yts",
                                "type": "address[]",
                                "value": [
                                    "0x7c2d26182adeef96976035986cf56474fec03bda"
                                ]
                            },
                            {
                                "name": "markets",
                                "type": "address[]",
                                "value": []
                            }
                        ],
                        "constructorArguments": "",
                        "name": "redeemDueInterestAndRewards",
                        "returnParams": [],
                        "signature": "redeemDueInterestAndRewards(address,address[],address[],address[])"
                    },
                    "errorInfo": "",
                    "fromAddress": "0xd6c9f246defcab4b844533379cb0df03178bec02",
                    "gasUsed": 159041,
                    "id": 0,
                    "methodDecoded": true,
                    "operation": "CALL",
                    "output": "",
                    "revert": false,
                    "revertMessage": "",
                    "selector": "0xf7e375e8",
                    "status": true,
                    "value": "0"
                },
                "nodeType": 0
            },
            "1": {
                "invocation": {
                    "address": "0x242063e8002d6a2839951c02b96e089b3e048437",
                    "callData": "0x000000000000000000000000d6c9f246defcab4b844533379cb0df03178bec02000000000000000000000000000000000000000000000000000000000000008000000000000000000000000000000000000000000000000000000000000000a000000000000000000000000000000000000000000000000000000000000000e0000000000000000000000000000000000000000000000000000000000000000000000000000000000000000000000000000000000000000000000000000000010000000000000000000000007c2d26182adeef96976035986cf56474fec03bda0000000000000000000000000000000000000000000000000000000000000000",
                    "decodedMethod": {
                        "callParams": [
                            {
                                "name": "user",
                                "type": "address",
                                "value": "0xd6c9f246defcab4b844533379cb0df03178bec02"
                            },
                            {
                                "name": "sys",
                                "type": "address[]",
                                "value": []
                            },
                            {
                                "name": "yts",
                                "type": "address[]",
                                "value": [
                                    "0x7c2d26182adeef96976035986cf56474fec03bda"
                                ]
                            },
                            {
                                "name": "markets",
                                "type": "address[]",
                                "value": []
                            }
                        ],
                        "constructorArguments": "",
                        "name": "redeemDueInterestAndRewards",
                        "returnParams": [],
                        "signature": "redeemDueInterestAndRewards(address,address[],address[],address[])"
                    },
                    "errorInfo": "",
                    "fromAddress": "0x888888888889758f76e7103c6cbf23abbf58f946",
                    "gasUsed": 139888,
                    "id": 1,
                    "methodDecoded": true,
                    "operation": "DELEGATECALL",
                    "output": "",
                    "revert": false,
                    "revertMessage": "",
                    "selector": "0xf7e375e8",
                    "status": true,
                    "value": "0"
                },
                "nodeType": 0
            },
            "10": {
                "invocation": {
                    "address": "0xdf3601014686674e53d1fa52f7602525483f9122",
                    "callData": "0x",
                    "decodedMethod": {
                        "callParams": [],
                        "constructorArguments": "",
                        "name": "rewardFeeRate",
                        "returnParams": [
                            {
                                "name": "",
                                "type": "uint128",
                                "value": "30,000,000,000,000,000"
                            }
                        ],
                        "signature": "rewardFeeRate()"
                    },
                    "errorInfo": "",
                    "fromAddress": "0x7c2d26182adeef96976035986cf56474fec03bda",
                    "gasUsed": 2768,
                    "id": 10,
                    "methodDecoded": true,
                    "operation": "STATICCALL",
                    "output": "0x000000000000000000000000000000000000000000000000006a94d74f430000",
                    "revert": false,
                    "revertMessage": "",
                    "selector": "0xf5de2d1f",
                    "status": true,
                    "value": "0"
                },
                "nodeType": 0
            },
            "11": {
                "event": {
                    "contract": "0x7c2d26182adeef96976035986cf56474fec03bda",
                    "decodedLog": {
                        "name": "RedeemRewards",
                        "params": [
                            {
                                "name": "user",
                                "type": "address",
                                "value": "0xd6c9f246defcab4b844533379cb0df03178bec02"
                            },
                            {
                                "name": "amountRewardsOut",
                                "type": "uint256[]",
                                "value": []
                            }
                        ],
                        "signature": "RedeemRewards(address,uint256[])"
                    },
                    "id": 11,
                    "logData": "0x00000000000000000000000000000000000000000000000000000000000000200000000000000000000000000000000000000000000000000000000000000000",
                    "logDecoded": true,
                    "operation": "EVENT",
                    "revert": false,
                    "status": true,
                    "topics": [
                        "0x78d61a0c27b13f43911095f9f356f14daa3cd8b125eea1aa22421245e90e813d",
                        "0x000000000000000000000000d6c9f246defcab4b844533379cb0df03178bec02"
                    ]
                },
                "nodeType": 1
            },
            "12": {
                "invocation": {
                    "address": "0xd7df7e085214743530aff339afc420c7c720bfa7",
                    "callData": "0x",
                    "decodedMethod": {
                        "callParams": [],
                        "constructorArguments": "",
                        "name": "exchangeRate",
                        "returnParams": [
                            {
                                "name": "",
                                "type": "uint256",
                                "value": "1,038,554,269,139,834,399"
                            }
                        ],
                        "signature": "exchangeRate()"
                    },
                    "errorInfo": "",
                    "fromAddress": "0x7c2d26182adeef96976035986cf56474fec03bda",
                    "gasUsed": 24156,
                    "id": 12,
                    "methodDecoded": true,
                    "operation": "STATICCALL",
                    "output": "0x0000000000000000000000000000000000000000000000000e69af9af40b961f",
                    "revert": false,
                    "revertMessage": "",
                    "selector": "0x3ba0b9a9",
                    "status": true,
                    "value": "0"
                },
                "nodeType": 0
            },
            "13": {
                "invocation": {
                    "address": "0xe2713ea76ffcbf09ab161c5769ae55dfc286cc70",
                    "callData": "0x",
                    "decodedMethod": {
                        "callParams": [],
                        "constructorArguments": "",
                        "name": "exchangeRate",
                        "returnParams": [
                            {
                                "name": "",
                                "type": "uint256",
                                "value": "1,038,554,269,139,834,399"
                            }
                        ],
                        "signature": "exchangeRate()"
                    },
                    "errorInfo": "",
                    "fromAddress": "0xd7df7e085214743530aff339afc420c7c720bfa7",
                    "gasUsed": 23355,
                    "id": 13,
                    "methodDecoded": true,
                    "operation": "DELEGATECALL",
                    "output": "0x0000000000000000000000000000000000000000000000000e69af9af40b961f",
                    "revert": false,
                    "revertMessage": "",
                    "selector": "0x3ba0b9a9",
                    "status": true,
                    "value": "0"
                },
                "nodeType": 0
            },
            "14": {
                "invocation": {
                    "address": "0x308861a430be4cce5502d0a12724771fc6daf216",
                    "callData": "0x0000000000000000000000000000000000000000000000000de0b6b3a7640000",
                    "decodedMethod": {
                        "callParams": [
                            {
                                "name": "_share",
                                "type": "uint256",
                                "value": "1,000,000,000,000,000,000"
                            }
                        ],
                        "constructorArguments": "",
                        "name": "amountForShare",
                        "returnParams": [
                            {
                                "name": "",
                                "type": "uint256",
                                "value": "1,038,554,269,139,834,399"
                            }
                        ],
                        "signature": "amountForShare(uint256)"
                    },
                    "errorInfo": "",
                    "fromAddress": "0xd7df7e085214743530aff339afc420c7c720bfa7",
                    "gasUsed": 20034,
                    "id": 14,
                    "methodDecoded": true,
                    "operation": "STATICCALL",
                    "output": "0x0000000000000000000000000000000000000000000000000e69af9af40b961f",
                    "revert": false,
                    "revertMessage": "",
                    "selector": "0x561bddf8",
                    "status": true,
                    "value": "0"
                },
                "nodeType": 0
            },
            "15": {
                "invocation": {
                    "address": "0x605f17e88027e25e18c95be0d8011ac969426399",
                    "callData": "0x0000000000000000000000000000000000000000000000000de0b6b3a7640000",
                    "decodedMethod": {
                        "callParams": [
                            {
                                "name": "_share",
                                "type": "uint256",
                                "value": "1,000,000,000,000,000,000"
                            }
                        ],
                        "constructorArguments": "",
                        "name": "amountForShare",
                        "returnParams": [
                            {
                                "name": "",
                                "type": "uint256",
                                "value": "1,038,554,269,139,834,399"
                            }
                        ],
                        "signature": "amountForShare(uint256)"
                    },
                    "errorInfo": "",
                    "fromAddress": "0x308861a430be4cce5502d0a12724771fc6daf216",
                    "gasUsed": 15148,
                    "id": 15,
                    "methodDecoded": true,
                    "operation": "DELEGATECALL",
                    "output": "0x0000000000000000000000000000000000000000000000000e69af9af40b961f",
                    "revert": false,
                    "revertMessage": "",
                    "selector": "0x561bddf8",
                    "status": true,
                    "value": "0"
                },
                "nodeType": 0
            },
            "16": {
                "invocation": {
                    "address": "0x35fa164735182de50811e8e2e824cfb9b6118ac2",
                    "callData": "0x",
                    "decodedMethod": {
                        "callParams": [],
                        "constructorArguments": "",
                        "name": "totalShares",
                        "returnParams": [
                            {
                                "name": "",
                                "type": "uint256",
                                "value": "1,372,352,320,106,470,708,258,775"
                            }
                        ],
                        "signature": "totalShares()"
                    },
                    "errorInfo": "",
                    "fromAddress": "0x308861a430be4cce5502d0a12724771fc6daf216",
                    "gasUsed": 7246,
                    "id": 16,
                    "methodDecoded": true,
                    "operation": "STATICCALL",
                    "output": "0x00000000000000000000000000000000000000000001229b5e4bc69ee7dea7d7",
                    "revert": false,
                    "revertMessage": "",
                    "selector": "0x3a98ef39",
                    "status": true,
                    "value": "0"
                },
                "nodeType": 0
            },
            "17": {
                "invocation": {
                    "address": "0x1b47a665364bc15c28b05f449b53354d0ceff72f",
                    "callData": "0x",
                    "decodedMethod": {
                        "callParams": [],
                        "constructorArguments": "",
                        "name": "totalShares",
                        "returnParams": [
                            {
                                "name": "",
                                "type": "uint256",
                                "value": "1,372,352,320,106,470,708,258,775"
                            }
                        ],
                        "signature": "totalShares()"
                    },
                    "errorInfo": "",
                    "fromAddress": "0x35fa164735182de50811e8e2e824cfb9b6118ac2",
                    "gasUsed": 2363,
                    "id": 17,
                    "methodDecoded": true,
                    "operation": "DELEGATECALL",
                    "output": "0x00000000000000000000000000000000000000000001229b5e4bc69ee7dea7d7",
                    "revert": false,
                    "revertMessage": "",
                    "selector": "0x3a98ef39",
                    "status": true,
                    "value": "0"
                },
                "nodeType": 0
            },
            "18": {
                "event": {
                    "contract": "0x7c2d26182adeef96976035986cf56474fec03bda",
                    "decodedLog": {
                        "name": "NewInterestIndex",
                        "params": [
                            {
                                "name": "newIndex",
                                "type": "uint256",
                                "value": "1,038,554,269,139,834,399"
                            }
                        ],
                        "signature": "NewInterestIndex(uint256)"
                    },
                    "id": 18,
                    "logData": "0x",
                    "logDecoded": true,
                    "operation": "EVENT",
                    "revert": false,
                    "status": true,
                    "topics": [
                        "0x71475f2f645813fdbebf53a58968008bff11ee21a58f01c5a9cc263d0bc4703d",
                        "0x0000000000000000000000000000000000000000000000000e69af9af40b961f"
                    ]
                },
                "nodeType": 1
            },
            "19": {
                "invocation": {
                    "address": "0xdf3601014686674e53d1fa52f7602525483f9122",
                    "callData": "0x",
                    "decodedMethod": {
                        "callParams": [],
                        "constructorArguments": "",
                        "name": "treasury",
                        "returnParams": [
                            {
                                "name": "",
                                "type": "address",
                                "value": "0x8270400d528c34e1596ef367eedec99080a1b592"
                            }
                        ],
                        "signature": "treasury()"
                    },
                    "errorInfo": "",
                    "fromAddress": "0x7c2d26182adeef96976035986cf56474fec03bda",
                    "gasUsed": 419,
                    "id": 19,
                    "methodDecoded": true,
                    "operation": "STATICCALL",
                    "output": "0x0000000000000000000000008270400d528c34e1596ef367eedec99080a1b592",
                    "revert": false,
                    "revertMessage": "",
                    "selector": "0x61d027b3",
                    "status": true,
                    "value": "0"
                },
                "nodeType": 0
            },
            "2": {
                "invocation": {
                    "address": "0x7c2d26182adeef96976035986cf56474fec03bda",
                    "callData": "0x000000000000000000000000d6c9f246defcab4b844533379cb0df03178bec0200000000000000000000000000000000000000000000000000000000000000010000000000000000000000000000000000000000000000000000000000000001",
                    "decodedMethod": {
                        "callParams": [
                            {
                                "name": "user",
                                "type": "address",
                                "value": "0xd6c9f246defcab4b844533379cb0df03178bec02"
                            },
                            {
                                "name": "redeemInterest",
                                "type": "bool",
                                "value": true
                            },
                            {
                                "name": "redeemRewards",
                                "type": "bool",
                                "value": true
                            }
                        ],
                        "constructorArguments": "",
                        "name": "redeemDueInterestAndRewards",
                        "returnParams": [
                            {
                                "name": "interestOut",
                                "type": "uint256",
                                "value": "6,716,539,870,048,451"
                            },
                            {
                                "name": "rewardsOut",
                                "type": "uint256[]",
                                "value": []
                            }
                        ],
                        "signature": "redeemDueInterestAndRewards(address,bool,bool)"
                    },
                    "errorInfo": "",
                    "fromAddress": "0x888888888889758f76e7103c6cbf23abbf58f946",
                    "gasUsed": 135180,
                    "id": 2,
                    "methodDecoded": true,
                    "operation": "CALL",
                    "output": "0x0000000000000000000000000000000000000000000000000017dca84d12f0c300000000000000000000000000000000000000000000000000000000000000400000000000000000000000000000000000000000000000000000000000000000",
                    "revert": false,
                    "revertMessage": "",
                    "selector": "0x7d24da4d",
                    "status": true,
                    "value": "0"
                },
                "nodeType": 0
            },
            "20": {
                "invocation": {
                    "address": "0xdf3601014686674e53d1fa52f7602525483f9122",
                    "callData": "0x",
                    "decodedMethod": {
                        "callParams": [],
                        "constructorArguments": "",
                        "name": "interestFeeRate",
                        "returnParams": [
                            {
                                "name": "",
                                "type": "uint128",
                                "value": "30,000,000,000,000,000"
                            }
                        ],
                        "signature": "interestFeeRate()"
                    },
                    "errorInfo": "",
                    "fromAddress": "0x7c2d26182adeef96976035986cf56474fec03bda",
                    "gasUsed": 617,
                    "id": 20,
                    "methodDecoded": true,
                    "operation": "STATICCALL",
                    "output": "0x000000000000000000000000000000000000000000000000006a94d74f430000",
                    "revert": false,
                    "revertMessage": "",
                    "selector": "0xdd86fea1",
                    "status": true,
                    "value": "0"
                },
                "nodeType": 0
            },
            "21": {
                "invocation": {
                    "address": "0xd7df7e085214743530aff339afc420c7c720bfa7",
                    "callData": "0x0000000000000000000000008270400d528c34e1596ef367eedec99080a1b5920000000000000000000000000000000000000000000000000000bced73de46c9",
                    "decodedMethod": {
                        "callParams": [
                            {
                                "name": "to",
                                "type": "address",
                                "value": "0x8270400d528c34e1596ef367eedec99080a1b592"
                            },
                            {
                                "decimalAvailable": true,
                                "name": "amount",
                                "type": "uint256",
                                "value": "207,728,037,217,993"
                            }
                        ],
                        "constructorArguments": "",
                        "name": "transfer",
                        "returnParams": [
                            {
                                "name": "",
                                "type": "bool",
                                "value": true
                            }
                        ],
                        "signature": "transfer(address,uint256)"
                    },
                    "errorInfo": "",
                    "fromAddress": "0x7c2d26182adeef96976035986cf56474fec03bda",
                    "gasUsed": 21287,
                    "id": 21,
                    "methodDecoded": true,
                    "operation": "CALL",
                    "output": "0x0000000000000000000000000000000000000000000000000000000000000001",
                    "revert": false,
                    "revertMessage": "",
                    "selector": "0xa9059cbb",
                    "status": true,
                    "value": "0"
                },
                "nodeType": 0
            },
            "22": {
                "invocation": {
                    "address": "0xe2713ea76ffcbf09ab161c5769ae55dfc286cc70",
                    "callData": "0x0000000000000000000000008270400d528c34e1596ef367eedec99080a1b5920000000000000000000000000000000000000000000000000000bced73de46c9",
                    "decodedMethod": {
                        "callParams": [
                            {
                                "name": "to",
                                "type": "address",
                                "value": "0x8270400d528c34e1596ef367eedec99080a1b592"
                            },
                            {
                                "decimalAvailable": true,
                                "name": "amount",
                                "type": "uint256",
                                "value": "207,728,037,217,993"
                            }
                        ],
                        "constructorArguments": "",
                        "name": "transfer",
                        "returnParams": [
                            {
                                "name": "",
                                "type": "bool",
                                "value": true
                            }
                        ],
                        "signature": "transfer(address,uint256)"
                    },
                    "errorInfo": "",
                    "fromAddress": "0xd7df7e085214743530aff339afc420c7c720bfa7",
                    "gasUsed": 20480,
                    "id": 22,
                    "methodDecoded": true,
                    "operation": "DELEGATECALL",
                    "output": "0x0000000000000000000000000000000000000000000000000000000000000001",
                    "revert": false,
                    "revertMessage": "",
                    "selector": "0xa9059cbb",
                    "status": true,
                    "value": "0"
                },
                "nodeType": 0
            },
            "23": {
                "event": {
                    "contract": "0xd7df7e085214743530aff339afc420c7c720bfa7",
                    "decodedLog": {
                        "name": "Transfer",
                        "params": [
                            {
                                "name": "from",
                                "type": "address",
                                "value": "0x7c2d26182adeef96976035986cf56474fec03bda"
                            },
                            {
                                "name": "to",
                                "type": "address",
                                "value": "0x8270400d528c34e1596ef367eedec99080a1b592"
                            },
                            {
                                "decimalAvailable": true,
                                "name": "value",
                                "type": "uint256",
                                "value": "207,728,037,217,993"
                            }
                        ],
                        "signature": "Transfer(address,address,uint256)"
                    },
                    "id": 23,
                    "logData": "0x0000000000000000000000000000000000000000000000000000bced73de46c9",
                    "logDecoded": true,
                    "operation": "EVENT",
                    "revert": false,
                    "status": true,
                    "topics": [
                        "0xddf252ad1be2c89b69c2b068fc378daa952ba7f163c4a11628f55a4df523b3ef",
                        "0x0000000000000000000000007c2d26182adeef96976035986cf56474fec03bda",
                        "0x0000000000000000000000008270400d528c34e1596ef367eedec99080a1b592"
                    ]
                },
                "nodeType": 1
            },
            "24": {
                "invocation": {
                    "address": "0xd7df7e085214743530aff339afc420c7c720bfa7",
                    "callData": "0x000000000000000000000000d6c9f246defcab4b844533379cb0df03178bec020000000000000000000000000000000000000000000000000017dca84d12f0c3",
                    "decodedMethod": {
                        "callParams": [
                            {
                                "name": "to",
                                "type": "address",
                                "value": "0xd6c9f246defcab4b844533379cb0df03178bec02"
                            },
                            {
                                "decimalAvailable": true,
                                "name": "amount",
                                "type": "uint256",
                                "value": "6,716,539,870,048,451"
                            }
                        ],
                        "constructorArguments": "",
                        "name": "transfer",
                        "returnParams": [
                            {
                                "name": "",
                                "type": "bool",
                                "value": true
                            }
                        ],
                        "signature": "transfer(address,uint256)"
                    },
                    "errorInfo": "",
                    "fromAddress": "0x7c2d26182adeef96976035986cf56474fec03bda",
                    "gasUsed": 29587,
                    "id": 24,
                    "methodDecoded": true,
                    "operation": "CALL",
                    "output": "0x0000000000000000000000000000000000000000000000000000000000000001",
                    "revert": false,
                    "revertMessage": "",
                    "selector": "0xa9059cbb",
                    "status": true,
                    "value": "0"
                },
                "nodeType": 0
            },
            "25": {
                "invocation": {
                    "address": "0xe2713ea76ffcbf09ab161c5769ae55dfc286cc70",
                    "callData": "0x000000000000000000000000d6c9f246defcab4b844533379cb0df03178bec020000000000000000000000000000000000000000000000000017dca84d12f0c3",
                    "decodedMethod": {
                        "callParams": [
                            {
                                "name": "to",
                                "type": "address",
                                "value": "0xd6c9f246defcab4b844533379cb0df03178bec02"
                            },
                            {
                                "decimalAvailable": true,
                                "name": "amount",
                                "type": "uint256",
                                "value": "6,716,539,870,048,451"
                            }
                        ],
                        "constructorArguments": "",
                        "name": "transfer",
                        "returnParams": [
                            {
                                "name": "",
                                "type": "bool",
                                "value": true
                            }
                        ],
                        "signature": "transfer(address,uint256)"
                    },
                    "errorInfo": "",
                    "fromAddress": "0xd7df7e085214743530aff339afc420c7c720bfa7",
                    "gasUsed": 28780,
                    "id": 25,
                    "methodDecoded": true,
                    "operation": "DELEGATECALL",
                    "output": "0x0000000000000000000000000000000000000000000000000000000000000001",
                    "revert": false,
                    "revertMessage": "",
                    "selector": "0xa9059cbb",
                    "status": true,
                    "value": "0"
                },
                "nodeType": 0
            },
            "26": {
                "event": {
                    "contract": "0xd7df7e085214743530aff339afc420c7c720bfa7",
                    "decodedLog": {
                        "name": "Transfer",
                        "params": [
                            {
                                "name": "from",
                                "type": "address",
                                "value": "0x7c2d26182adeef96976035986cf56474fec03bda"
                            },
                            {
                                "name": "to",
                                "type": "address",
                                "value": "0xd6c9f246defcab4b844533379cb0df03178bec02"
                            },
                            {
                                "decimalAvailable": true,
                                "name": "value",
                                "type": "uint256",
                                "value": "6,716,539,870,048,451"
                            }
                        ],
                        "signature": "Transfer(address,address,uint256)"
                    },
                    "id": 26,
                    "logData": "0x0000000000000000000000000000000000000000000000000017dca84d12f0c3",
                    "logDecoded": true,
                    "operation": "EVENT",
                    "revert": false,
                    "status": true,
                    "topics": [
                        "0xddf252ad1be2c89b69c2b068fc378daa952ba7f163c4a11628f55a4df523b3ef",
                        "0x0000000000000000000000007c2d26182adeef96976035986cf56474fec03bda",
                        "0x000000000000000000000000d6c9f246defcab4b844533379cb0df03178bec02"
                    ]
                },
                "nodeType": 1
            },
            "27": {
                "event": {
                    "contract": "0x7c2d26182adeef96976035986cf56474fec03bda",
                    "decodedLog": {
                        "name": "CollectInterestFee",
                        "params": [
                            {
                                "name": "amountInterestFee",
                                "type": "uint256",
                                "value": "207,728,037,217,993"
                            }
                        ],
                        "signature": "CollectInterestFee(uint256)"
                    },
                    "id": 27,
                    "logData": "0x0000000000000000000000000000000000000000000000000000bced73de46c9",
                    "logDecoded": true,
                    "operation": "EVENT",
                    "revert": false,
                    "status": true,
                    "topics": [
                        "0x004e8d79e4b41c5fad7561dc7c07786ee4e52292da7a3f5dc7ab90e32cc30423"
                    ]
                },
                "nodeType": 1
            },
            "28": {
                "event": {
                    "contract": "0x7c2d26182adeef96976035986cf56474fec03bda",
                    "decodedLog": {
                        "name": "RedeemInterest",
                        "params": [
                            {
                                "name": "user",
                                "type": "address",
                                "value": "0xd6c9f246defcab4b844533379cb0df03178bec02"
                            },
                            {
                                "name": "interestOut",
                                "type": "uint256",
                                "value": "6,716,539,870,048,451"
                            }
                        ],
                        "signature": "RedeemInterest(address,uint256)"
                    },
                    "id": 28,
                    "logData": "0x0000000000000000000000000000000000000000000000000017dca84d12f0c3",
                    "logDecoded": true,
                    "operation": "EVENT",
                    "revert": false,
                    "status": true,
                    "topics": [
                        "0x83a945bd12c713615b59a6e48a3467c05d1a7442350600d6f7fce6af9f7190e9",
                        "0x000000000000000000000000d6c9f246defcab4b844533379cb0df03178bec02"
                    ]
                },
                "nodeType": 1
            },
            "29": {
                "invocation": {
                    "address": "0xd7df7e085214743530aff339afc420c7c720bfa7",
                    "callData": "0x0000000000000000000000007c2d26182adeef96976035986cf56474fec03bda",
                    "decodedMethod": {
                        "callParams": [
                            {
                                "name": "account",
                                "type": "address",
                                "value": "0x7c2d26182adeef96976035986cf56474fec03bda"
                            }
                        ],
                        "constructorArguments": "",
                        "name": "balanceOf",
                        "returnParams": [
                            {
                                "decimalAvailable": true,
                                "name": "",
                                "type": "uint256",
                                "value": "72,285,833,804,535,749,793,011"
                            }
                        ],
                        "signature": "balanceOf(address)"
                    },
                    "errorInfo": "",
                    "fromAddress": "0x7c2d26182adeef96976035986cf56474fec03bda",
                    "gasUsed": 1588,
                    "id": 29,
                    "methodDecoded": true,
                    "operation": "STATICCALL",
                    "output": "0x000000000000000000000000000000000000000000000f4e9f768a76b4cdd4f3",
                    "revert": false,
                    "revertMessage": "",
                    "selector": "0x70a08231",
                    "status": true,
                    "value": "0"
                },
                "nodeType": 0
            },
            "3": {
                "invocation": {
                    "address": "0xd7df7e085214743530aff339afc420c7c720bfa7",
                    "callData": "0x",
                    "decodedMethod": {
                        "callParams": [],
                        "constructorArguments": "",
                        "name": "getRewardTokens",
                        "returnParams": [
                            {
                                "name": "rewardTokens",
                                "type": "address[]",
                                "value": []
                            }
                        ],
                        "signature": "getRewardTokens()"
                    },
                    "errorInfo": "",
                    "fromAddress": "0x7c2d26182adeef96976035986cf56474fec03bda",
                    "gasUsed": 8366,
                    "id": 3,
                    "methodDecoded": true,
                    "operation": "STATICCALL",
                    "output": "0x00000000000000000000000000000000000000000000000000000000000000200000000000000000000000000000000000000000000000000000000000000000",
                    "revert": false,
                    "revertMessage": "",
                    "selector": "0xc4f59f9b",
                    "status": true,
                    "value": "0"
                },
                "nodeType": 0
            },
            "30": {
                "invocation": {
                    "address": "0xe2713ea76ffcbf09ab161c5769ae55dfc286cc70",
                    "callData": "0x0000000000000000000000007c2d26182adeef96976035986cf56474fec03bda",
                    "decodedMethod": {
                        "callParams": [
                            {
                                "name": "account",
                                "type": "address",
                                "value": "0x7c2d26182adeef96976035986cf56474fec03bda"
                            }
                        ],
                        "constructorArguments": "",
                        "name": "balanceOf",
                        "returnParams": [
                            {
                                "decimalAvailable": true,
                                "name": "",
                                "type": "uint256",
                                "value": "72,285,833,804,535,749,793,011"
                            }
                        ],
                        "signature": "balanceOf(address)"
                    },
                    "errorInfo": "",
                    "fromAddress": "0xd7df7e085214743530aff339afc420c7c720bfa7",
                    "gasUsed": 784,
                    "id": 30,
                    "methodDecoded": true,
                    "operation": "DELEGATECALL",
                    "output": "0x000000000000000000000000000000000000000000000f4e9f768a76b4cdd4f3",
                    "revert": false,
                    "revertMessage": "",
                    "selector": "0x70a08231",
                    "status": true,
                    "value": "0"
                },
                "nodeType": 0
            },
            "4": {
                "invocation": {
                    "address": "0xe2713ea76ffcbf09ab161c5769ae55dfc286cc70",
                    "callData": "0x",
                    "decodedMethod": {
                        "callParams": [],
                        "constructorArguments": "",
                        "name": "getRewardTokens",
                        "returnParams": [
                            {
                                "name": "rewardTokens",
                                "type": "address[]",
                                "value": []
                            }
                        ],
                        "signature": "getRewardTokens()"
                    },
                    "errorInfo": "",
                    "fromAddress": "0xd7df7e085214743530aff339afc420c7c720bfa7",
                    "gasUsed": 1062,
                    "id": 4,
                    "methodDecoded": true,
                    "operation": "DELEGATECALL",
                    "output": "0x00000000000000000000000000000000000000000000000000000000000000200000000000000000000000000000000000000000000000000000000000000000",
                    "revert": false,
                    "revertMessage": "",
                    "selector": "0xc4f59f9b",
                    "status": true,
                    "value": "0"
                },
                "nodeType": 0
            },
            "5": {
                "invocation": {
                    "address": "0xd7df7e085214743530aff339afc420c7c720bfa7",
                    "callData": "0x",
                    "decodedMethod": {
                        "callParams": [],
                        "constructorArguments": "",
                        "name": "rewardIndexesCurrent",
                        "returnParams": [
                            {
                                "name": "indexes",
                                "type": "uint256[]",
                                "value": []
                            }
                        ],
                        "signature": "rewardIndexesCurrent()"
                    },
                    "errorInfo": "",
                    "fromAddress": "0x7c2d26182adeef96976035986cf56474fec03bda",
                    "gasUsed": 2073,
                    "id": 5,
                    "methodDecoded": true,
                    "operation": "CALL",
                    "output": "0x00000000000000000000000000000000000000000000000000000000000000200000000000000000000000000000000000000000000000000000000000000000",
                    "revert": false,
                    "revertMessage": "",
                    "selector": "0xf8b2f991",
                    "status": true,
                    "value": "0"
                },
                "nodeType": 0
            },
            "6": {
                "invocation": {
                    "address": "0xe2713ea76ffcbf09ab161c5769ae55dfc286cc70",
                    "callData": "0x",
                    "decodedMethod": {
                        "callParams": [],
                        "constructorArguments": "",
                        "name": "rewardIndexesCurrent",
                        "returnParams": [
                            {
                                "name": "indexes",
                                "type": "uint256[]",
                                "value": []
                            }
                        ],
                        "signature": "rewardIndexesCurrent()"
                    },
                    "errorInfo": "",
                    "fromAddress": "0xd7df7e085214743530aff339afc420c7c720bfa7",
                    "gasUsed": 1269,
                    "id": 6,
                    "methodDecoded": true,
                    "operation": "DELEGATECALL",
                    "output": "0x00000000000000000000000000000000000000000000000000000000000000200000000000000000000000000000000000000000000000000000000000000000",
                    "revert": false,
                    "revertMessage": "",
                    "selector": "0xf8b2f991",
                    "status": true,
                    "value": "0"
                },
                "nodeType": 0
            },
            "7": {
                "invocation": {
                    "address": "0xd7df7e085214743530aff339afc420c7c720bfa7",
                    "callData": "0x",
                    "decodedMethod": {
                        "callParams": [],
                        "constructorArguments": "",
                        "name": "getRewardTokens",
                        "returnParams": [
                            {
                                "name": "rewardTokens",
                                "type": "address[]",
                                "value": []
                            }
                        ],
                        "signature": "getRewardTokens()"
                    },
                    "errorInfo": "",
                    "fromAddress": "0x7c2d26182adeef96976035986cf56474fec03bda",
                    "gasUsed": 1866,
                    "id": 7,
                    "methodDecoded": true,
                    "operation": "STATICCALL",
                    "output": "0x00000000000000000000000000000000000000000000000000000000000000200000000000000000000000000000000000000000000000000000000000000000",
                    "revert": false,
                    "revertMessage": "",
                    "selector": "0xc4f59f9b",
                    "status": true,
                    "value": "0"
                },
                "nodeType": 0
            },
            "8": {
                "invocation": {
                    "address": "0xe2713ea76ffcbf09ab161c5769ae55dfc286cc70",
                    "callData": "0x",
                    "decodedMethod": {
                        "callParams": [],
                        "constructorArguments": "",
                        "name": "getRewardTokens",
                        "returnParams": [
                            {
                                "name": "rewardTokens",
                                "type": "address[]",
                                "value": []
                            }
                        ],
                        "signature": "getRewardTokens()"
                    },
                    "errorInfo": "",
                    "fromAddress": "0xd7df7e085214743530aff339afc420c7c720bfa7",
                    "gasUsed": 1062,
                    "id": 8,
                    "methodDecoded": true,
                    "operation": "DELEGATECALL",
                    "output": "0x00000000000000000000000000000000000000000000000000000000000000200000000000000000000000000000000000000000000000000000000000000000",
                    "revert": false,
                    "revertMessage": "",
                    "selector": "0xc4f59f9b",
                    "status": true,
                    "value": "0"
                },
                "nodeType": 0
            },
            "9": {
                "invocation": {
                    "address": "0xdf3601014686674e53d1fa52f7602525483f9122",
                    "callData": "0x",
                    "decodedMethod": {
                        "callParams": [],
                        "constructorArguments": "",
                        "name": "treasury",
                        "returnParams": [
                            {
                                "name": "",
                                "type": "address",
                                "value": "0x8270400d528c34e1596ef367eedec99080a1b592"
                            }
                        ],
                        "signature": "treasury()"
                    },
                    "errorInfo": "",
                    "fromAddress": "0x7c2d26182adeef96976035986cf56474fec03bda",
                    "gasUsed": 2419,
                    "id": 9,
                    "methodDecoded": true,
                    "operation": "STATICCALL",
                    "output": "0x0000000000000000000000008270400d528c34e1596ef367eedec99080a1b592",
                    "revert": false,
                    "revertMessage": "",
                    "selector": "0x61d027b3",
                    "status": true,
                    "value": "0"
                },
                "nodeType": 0
            }
        },
        "gasFlame": [
            {
                "children": [
                    {
                        "children": [
                            {
                                "children": [],
                                "depth": 0,
                                "name": "Initial Gas",
                                "value": 22616
                            },
                            {
                                "children": [
                                    {
                                        "children": [
                                            {
                                                "children": [
                                                    {
                                                        "children": [
                                                            {
                                                                "children": [],
                                                                "depth": 4,
                                                                "name": "getRewardTokens",
                                                                "value": 1062
                                                            }
                                                        ],
                                                        "depth": 3,
                                                        "name": "getRewardTokens",
                                                        "value": 8366
                                                    },
                                                    {
                                                        "children": [
                                                            {
                                                                "children": [],
                                                                "depth": 4,
                                                                "name": "rewardIndexesCurrent",
                                                                "value": 1269
                                                            }
                                                        ],
                                                        "depth": 3,
                                                        "name": "rewardIndexesCurrent",
                                                        "value": 2073
                                                    },
                                                    {
                                                        "children": [
                                                            {
                                                                "children": [],
                                                                "depth": 4,
                                                                "name": "getRewardTokens",
                                                                "value": 1062
                                                            }
                                                        ],
                                                        "depth": 3,
                                                        "name": "getRewardTokens",
                                                        "value": 1866
                                                    },
                                                    {
                                                        "children": [],
                                                        "depth": 3,
                                                        "name": "treasury",
                                                        "value": 2419
                                                    },
                                                    {
                                                        "children": [],
                                                        "depth": 3,
                                                        "name": "rewardFeeRate",
                                                        "value": 2768
                                                    },
                                                    {
                                                        "children": [
                                                            {
                                                                "children": [
                                                                    {
                                                                        "children": [
                                                                            {
                                                                                "children": [
                                                                                    {
                                                                                        "children": [
                                                                                            {
                                                                                                "children": [],
                                                                                                "depth": 8,
                                                                                                "name": "totalShares",
                                                                                                "value": 2363
                                                                                            }
                                                                                        ],
                                                                                        "depth": 7,
                                                                                        "name": "totalShares",
                                                                                        "value": 7246
                                                                                    }
                                                                                ],
                                                                                "depth": 6,
                                                                                "name": "amountForShare",
                                                                                "value": 15148
                                                                            }
                                                                        ],
                                                                        "depth": 5,
                                                                        "name": "amountForShare",
                                                                        "value": 20034
                                                                    }
                                                                ],
                                                                "depth": 4,
                                                                "name": "exchangeRate",
                                                                "value": 23355
                                                            }
                                                        ],
                                                        "depth": 3,
                                                        "name": "exchangeRate",
                                                        "value": 24156
                                                    },
                                                    {
                                                        "children": [],
                                                        "depth": 3,
                                                        "name": "treasury",
                                                        "value": 419
                                                    },
                                                    {
                                                        "children": [],
                                                        "depth": 3,
                                                        "name": "interestFeeRate",
                                                        "value": 617
                                                    },
                                                    {
                                                        "children": [
                                                            {
                                                                "children": [],
                                                                "depth": 4,
                                                                "name": "transfer",
                                                                "value": 20480
                                                            }
                                                        ],
                                                        "depth": 3,
                                                        "name": "transfer",
                                                        "value": 21287
                                                    },
                                                    {
                                                        "children": [
                                                            {
                                                                "children": [],
                                                                "depth": 4,
                                                                "name": "transfer",
                                                                "value": 28780
                                                            }
                                                        ],
                                                        "depth": 3,
                                                        "name": "transfer",
                                                        "value": 29587
                                                    },
                                                    {
                                                        "children": [
                                                            {
                                                                "children": [],
                                                                "depth": 4,
                                                                "name": "balanceOf",
                                                                "value": 784
                                                            }
                                                        ],
                                                        "depth": 3,
                                                        "name": "balanceOf",
                                                        "value": 1588
                                                    }
                                                ],
                                                "depth": 2,
                                                "name": "redeemDueInterestAndRewards",
                                                "value": 135180
                                            }
                                        ],
                                        "depth": 1,
                                        "name": "redeemDueInterestAndRewards",
                                        "value": 139888
                                    }
                                ],
                                "depth": 0,
                                "name": "Executed Gas",
                                "value": 144825
                            }
                        ],
                        "depth": -1,
                        "name": "Actual Gas Used",
                        "value": 159041
                    },
                    {
                        "children": [],
                        "depth": -1,
                        "name": "Refunded Gas",
                        "value": 8400
                    }
                ],
                "depth": -2,
                "name": "Total Gas",
                "value": 167441
            }
        ],
        "isConfirmed": true,
        "mainTrace": [
            {
                "children": [
                    {
                        "children": [
                            {
                                "children": [
                                    {
                                        "children": [
                                            {
                                                "children": [
                                                    {
                                                        "children": [],
                                                        "depth": 4,
                                                        "id": 4,
                                                        "order": 4
                                                    }
                                                ],
                                                "depth": 3,
                                                "id": 3,
                                                "order": 3
                                            },
                                            {
                                                "children": [
                                                    {
                                                        "children": [],
                                                        "depth": 4,
                                                        "id": 6,
                                                        "order": 6
                                                    }
                                                ],
                                                "depth": 3,
                                                "id": 5,
                                                "order": 5
                                            },
                                            {
                                                "children": [
                                                    {
                                                        "children": [],
                                                        "depth": 4,
                                                        "id": 8,
                                                        "order": 8
                                                    }
                                                ],
                                                "depth": 3,
                                                "id": 7,
                                                "order": 7
                                            },
                                            {
                                                "children": [],
                                                "depth": 3,
                                                "id": 9,
                                                "order": 9
                                            },
                                            {
                                                "children": [],
                                                "depth": 3,
                                                "id": 10,
                                                "order": 10
                                            },
                                            {
                                                "children": [],
                                                "depth": 3,
                                                "id": 11,
                                                "order": 11
                                            },
                                            {
                                                "children": [
                                                    {
                                                        "children": [
                                                            {
                                                                "children": [
                                                                    {
                                                                        "children": [
                                                                            {
                                                                                "children": [
                                                                                    {
                                                                                        "children": [],
                                                                                        "depth": 8,
                                                                                        "id": 17,
                                                                                        "order": 17
                                                                                    }
                                                                                ],
                                                                                "depth": 7,
                                                                                "id": 16,
                                                                                "order": 16
                                                                            }
                                                                        ],
                                                                        "depth": 6,
                                                                        "id": 15,
                                                                        "order": 15
                                                                    }
                                                                ],
                                                                "depth": 5,
                                                                "id": 14,
                                                                "order": 14
                                                            }
                                                        ],
                                                        "depth": 4,
                                                        "id": 13,
                                                        "order": 13
                                                    }
                                                ],
                                                "depth": 3,
                                                "id": 12,
                                                "order": 12
                                            },
                                            {
                                                "children": [],
                                                "depth": 3,
                                                "id": 18,
                                                "order": 18
                                            },
                                            {
                                                "children": [],
                                                "depth": 3,
                                                "id": 19,
                                                "order": 19
                                            },
                                            {
                                                "children": [],
                                                "depth": 3,
                                                "id": 20,
                                                "order": 20
                                            },
                                            {
                                                "children": [
                                                    {
                                                        "children": [
                                                            {
                                                                "children": [],
                                                                "depth": 5,
                                                                "id": 23,
                                                                "order": 23
                                                            }
                                                        ],
                                                        "depth": 4,
                                                        "id": 22,
                                                        "order": 22
                                                    }
                                                ],
                                                "depth": 3,
                                                "id": 21,
                                                "order": 21
                                            },
                                            {
                                                "children": [
                                                    {
                                                        "children": [
                                                            {
                                                                "children": [],
                                                                "depth": 5,
                                                                "id": 26,
                                                                "order": 26
                                                            }
                                                        ],
                                                        "depth": 4,
                                                        "id": 25,
                                                        "order": 25
                                                    }
                                                ],
                                                "depth": 3,
                                                "id": 24,
                                                "order": 24
                                            },
                                            {
                                                "children": [],
                                                "depth": 3,
                                                "id": 27,
                                                "order": 27
                                            },
                                            {
                                                "children": [],
                                                "depth": 3,
                                                "id": 28,
                                                "order": 28
                                            },
                                            {
                                                "children": [
                                                    {
                                                        "children": [],
                                                        "depth": 4,
                                                        "id": 30,
                                                        "order": 30
                                                    }
                                                ],
                                                "depth": 3,
                                                "id": 29,
                                                "order": 29
                                            }
                                        ],
                                        "depth": 2,
                                        "id": 2,
                                        "order": 2
                                    }
                                ],
                                "depth": 1,
                                "id": 1,
                                "order": 1
                            }
                        ],
                        "depth": 0,
                        "id": 0,
                        "order": 0
                    }
                ],
                "depth": -1,
                "id": -1,
                "order": -1
            }
        ],
        "mainTraceNodeCount": 31,
        "parentIdMap": {
            "0": -1,
            "1": 0,
            "10": 2,
            "11": 2,
            "12": 2,
            "13": 12,
            "14": 13,
            "15": 14,
            "16": 15,
            "17": 16,
            "18": 2,
            "19": 2,
            "2": 1,
            "20": 2,
            "21": 2,
            "22": 21,
            "23": 22,
            "24": 2,
            "25": 24,
            "26": 25,
            "27": 2,
            "28": 2,
            "29": 2,
            "3": 2,
            "30": 29,
            "4": 3,
            "5": 2,
            "6": 5,
            "7": 2,
            "8": 7,
            "9": 2
        },
        "tidyTrace": [
            {
                "children": [
                    {
                        "children": [
                            {
                                "children": [
                                    {
                                        "children": [
                                            {
                                                "children": [
                                                    {
                                                        "children": [],
                                                        "depth": 4,
                                                        "id": 6,
                                                        "order": 6
                                                    }
                                                ],
                                                "depth": 3,
                                                "id": 5,
                                                "order": 5
                                            },
                                            {
                                                "children": [],
                                                "depth": 3,
                                                "id": 11,
                                                "order": 11
                                            },
                                            {
                                                "children": [],
                                                "depth": 3,
                                                "id": 18,
                                                "order": 18
                                            },
                                            {
                                                "children": [
                                                    {
                                                        "children": [
                                                            {
                                                                "children": [],
                                                                "depth": 5,
                                                                "id": 23,
                                                                "order": 23
                                                            }
                                                        ],
                                                        "depth": 4,
                                                        "id": 22,
                                                        "order": 22
                                                    }
                                                ],
                                                "depth": 3,
                                                "id": 21,
                                                "order": 21
                                            },
                                            {
                                                "children": [
                                                    {
                                                        "children": [
                                                            {
                                                                "children": [],
                                                                "depth": 5,
                                                                "id": 26,
                                                                "order": 26
                                                            }
                                                        ],
                                                        "depth": 4,
                                                        "id": 25,
                                                        "order": 25
                                                    }
                                                ],
                                                "depth": 3,
                                                "id": 24,
                                                "order": 24
                                            },
                                            {
                                                "children": [],
                                                "depth": 3,
                                                "id": 27,
                                                "order": 27
                                            },
                                            {
                                                "children": [],
                                                "depth": 3,
                                                "id": 28,
                                                "order": 28
                                            }
                                        ],
                                        "depth": 2,
                                        "id": 2,
                                        "order": 2
                                    }
                                ],
                                "depth": 1,
                                "id": 1,
                                "order": 1
                            }
                        ],
                        "depth": 0,
                        "id": 0,
                        "order": 0
                    }
                ],
                "depth": -1,
                "id": -1,
                "order": -1
            }
        ],
        "tidyTraceNodeCount": 15
    },
    "state_change": {
        "stateChanges": [
            {
                "address": "0x7c2d26182adeef96976035986cf56474fec03bda",
                "erc": "",
                "slots": [
                    {
                        "current": "0x0000000000000000000000000000000000000000000000000e69af9af40b961f",
                        "key": "0xe4ba6643126923f8232322e8b0853c28a2b067087f591b5e06fa41e021a9e644",
                        "prev": "0x000000000000000000189995c0f1378c00000000000000000e69af9af40b961f"
                    },
                    {
                        "current": "0x000000000000000000000000000000000000000000000f4e9f768a76b4cdd4f3",
                        "key": "0x000000000000000000000000000000000000000000000000000000000000000a",
                        "prev": "0x000000000000000000000000000000000000000000000f4e9f8f240c75bf0c7f"
                    },
                    {
                        "current": "0x00000000000000000e69af9af40b961f000000000000000000000000012f7348",
                        "key": "0x000000000000000000000000000000000000000000000000000000000000000b",
                        "prev": "0x00000000000000000e69af9af40b961f000000000000000000000000012f7320"
                    }
                ],
                "storageVariables": []
            },
            {
                "address": "0xd7df7e085214743530aff339afc420c7c720bfa7",
                "erc": "ERC-20",
                "slots": [
                    {
                        "current": "0x0000000000000000000000000000000000000000000000000017dca84d12f0c3",
                        "key": "0xcfc3a25d7522c261947f7f014d2093c474932001500f84609089f82ef2e72898",
                        "prev": "0x0000000000000000000000000000000000000000000000000000000000000000"
                    },
                    {
                        "current": "0x000000000000000000000000000000000000000000000f4e9f768a76b4cdd4f3",
                        "key": "0x4861f9260cec36597dbe4a272c8f688a3f071e89acd801333da4a8d0bb5ebb02",
                        "prev": "0x000000000000000000000000000000000000000000000f4e9f8f240c75bf0c7f"
                    },
                    {
                        "current": "0x00000000000000000000000000000000000000000000000145d2bcc8caa901ef",
                        "key": "0xd0bd6dfe568025f02bc66ddb7b745134c5639e51ae86ef0ae377a8a9aed0a86e",
                        "prev": "0x00000000000000000000000000000000000000000000000145d1ffdb56cabb26"
                    }
                ],
                "storageVariables": [
                    {
                        "name": "_balances",
                        "type": "mapping(address => uint256)",
                        "value": {
                            "pairs": [
                                {
                                    "key": "0x7c2d26182adeef96976035986cf56474fec03bda",
                                    "value": {
                                        "current": "72285833804535749793011",
                                        "prev": "72285840728803657059455",
                                        "typeTag": 1
                                    }
                                },
                                {
                                    "key": "0x8270400d528c34e1596ef367eedec99080a1b592",
                                    "value": {
                                        "current": "23478035378015371759",
                                        "prev": "23477827649978153766",
                                        "typeTag": 1
                                    }
                                },
                                {
                                    "key": "0xd6c9f246defcab4b844533379cb0df03178bec02",
                                    "value": {
                                        "current": "6716539870048451",
                                        "prev": "0",
                                        "typeTag": 1
                                    }
                                }
                            ],
                            "typeTag": 4
                        }
                    }
                ]
            }
        ]
    }
}