{
    "balance_change": {
        "balanceChanges": [
            {
                "account": "0xb70e1aa092e55cb92ff6a22eb5e6b8ef6b104829",
                "assets": [
                    {
                        "address": "0x8e766f57f7d16ca50b4a0b90b88f6468a09b0439",
                        "amount": "2,425.6147",
                        "iconUrl": "",
                        "isERC1155": false,
                        "isERC721": false,
                        "sign": false,
                        "value": ""
                    }
                ]
            },
            {
                "account": "0xea0591fb4ab8b6eb4dbf093cacbade62e4927229",
                "assets": [
                    {
                        "address": "0x8e766f57f7d16ca50b4a0b90b88f6468a09b0439",
                        "amount": "2,425.6147",
                        "iconUrl": "",
                        "isERC1155": false,
                        "isERC721": false,
                        "sign": true,
                        "value": ""
                    }
                ]
            }
        ]
    },
    "profile": {
        "basic_info": {
            "baseFee": "",
            "blockNumber": 8375984,
            "callData": "0xa9059cbb000000000000000000000000ea0591fb4ab8b6eb4dbf093cacbade62e49272290000000000000000000000000000000000000000000000837e2a863149b2c000",
            "debugEnable": true,
            "errorInfo": "",
            "eventCount": 1,
            "feeRecipient": "0xea674fdde714fd979de3edf0f56aa9716b898ec8",
            "formatValue": "0",
            "gasLimit": 90000,
            "gasPrice": "33.333333333",
            "gasUsed": 38360,
            "intTxnCount": 0,
            "internalRevert": false,
            "internalRevertMessage": "",
            "isContractCreation": false,
            "isFlashloan": false,
            "maxFee": "",
            "nonce": 257477,
            "overwritedBlockNumber": -1,
            "priorityFee": "",
            "receiver": "0x8e766f57f7d16ca50b4a0b90b88f6468a09b0439",
            "revertMessage": "",
            "sender": "0xb70e1aa092e55cb92ff6a22eb5e6b8ef6b104829",
            "simulationEnable": true,
            "sourceTxnHash": "0x65edef20b142087fe1500eee4ec61bc3e253d1fc6c16ee08492abff69824207f",
            "status": true,
            "timestamp": "2019-08-18T18:26:37Z",
            "transactionFee": "0.00127866666665388",
            "txnHash": "0x65edef20b142087fe1500eee4ec61bc3e253d1fc6c16ee08492abff69824207f",
            "txnIndex": 68,
            "type": 0,
            "value": "0"
        },
        "fund_flow": [
            {
                "amount": "2,425.6147",
                "from": "0xb70e1aa092e55cb92ff6a22eb5e6b8ef6b104829",
                "id": 1,
                "isERC1155": false,
                "isERC721": false,
                "isReverted": false,
                "order": 1,
                "to": "0xea0591fb4ab8b6eb4dbf093cacbade62e4927229",
                "token": "0x8e766f57f7d16ca50b4a0b90b88f6468a09b0439"
            }
        ],
        "token_infos": [
            {
                "address": "0x8e766f57f7d16ca50b4a0b90b88f6468a09b0439",
                "decimals": 18
            },
            {
                "address": "0xc02aaa39b223fe8d0a0e5c4f27ead9083c756cc2",
                "decimals": 18
            },
            {
                "address": "0xeeeeeeeeeeeeeeeeeeeeeeeeeeeeeeeeeeeeeeee",
                "decimals": 18
            }
        ]
    },
    "address_label": {
        "labels": [
            {
                "address": "0xeeeeeeeeeeeeeeeeeeeeeeeeeeeeeeeeeeeeeeee",
                "label": "Ether"
            },
            {
                "address": "0x8e766f57f7d16ca50b4a0b90b88f6468a09b0439",
                "label": "MaxiMine Coin"
            },
            {
                "address": "0x0000000000000000000000000000000000000001",
                "label": "Precompiled"
            },
            {
                "address": "0x0000000000000000000000000000000000000002",
                "label": "Precompiled"
            },
            {
                "address": "0x0000000000000000000000000000000000000003",
                "label": "Precompiled"
            },
            {
                "address": "0x0000000000000000000000000000000000000004",
                "label": "Precompiled"
            }
        ]
    },
    "trace": {
        "accountLabels": null,
        "dataMap": {
            "-1": {
                "invocation": {
                    "address": "0xb70e1aa092e55cb92ff6a22eb5e6b8ef6b104829",
                    "callData": "",
                    "decodedMethod": null,
                    "errorInfo": "",
                    "fromAddress": "",
                    "gasUsed": 0,
                    "id": -1,
                    "methodDecoded": false,
                    "operation": "",
                    "output": "",
                    "revert": false,
                    "revertMessage": "",
                    "selector": "",
                    "status": false,
                    "value": ""
                },
                "nodeType": 0
            },
            "0": {
                "invocation": {
                    "address": "0x8e766f57f7d16ca50b4a0b90b88f6468a09b0439",
                    "callData": "0x000000000000000000000000ea0591fb4ab8b6eb4dbf093cacbade62e49272290000000000000000000000000000000000000000000000837e2a863149b2c000",
                    "decodedMethod": {
                        "callParams": [
                            {
                                "name": "_to",
                                "type": "address",
                                "value": "0xea0591fb4ab8b6eb4dbf093cacbade62e4927229"
                            },
                            {
                                "decimalAvailable": true,
                                "name": "_value",
                                "type": "uint256",
                                "value": "2,425,614,700,000,000,000,000"
                            }
                        ],
                        "constructorArguments": "",
                        "name": "transfer",
                        "returnParams": [],
                        "signature": "transfer(address,uint256)"
                    },
                    "errorInfo": "",
                    "fromAddress": "0xb70e1aa092e55cb92ff6a22eb5e6b8ef6b104829",
                    "gasUsed": 38360,
                    "id": 0,
                    "methodDecoded": true,
                    "operation": "CALL",
                    "output": "",
                    "revert": false,
                    "revertMessage": "",
                    "selector": "0xa9059cbb",
                    "status": true,
                    "value": "0"
                },
                "nodeType": 0
            },
            "1": {
                "event": {
                    "contract": "0x8e766f57f7d16ca50b4a0b90b88f6468a09b0439",
                    "decodedLog": {
                        "name": "Transfer",
                        "params": [
                            {
                                "name": "from",
                                "type": "address",
                                "value": "0xb70e1aa092e55cb92ff6a22eb5e6b8ef6b104829"
                            },
                            {
                                "name": "to",
                                "type": "address",
                                "value": "0xea0591fb4ab8b6eb4dbf093cacbade62e4927229"
                            },
                            {
                                "decimalAvailable": true,
                                "name": "value",
                                "type": "uint256",
                                "value": "2,425,614,700,000,000,000,000"
                            }
                        ],
                        "signature": "Transfer(address,address,uint256)"
                    },
                    "id": 1,
                    "logData": "0x0000000000000000000000000000000000000000000000837e2a863149b2c000",
                    "logDecoded": true,
                    "operation": "EVENT",
                    "revert": false,
                    "status": true,
                    "topics": [
                        "0xddf252ad1be2c89b69c2b068fc378daa952ba7f163c4a11628f55a4df523b3ef",
                        "0x000000000000000000000000b70e1aa092e55cb92ff6a22eb5e6b8ef6b104829",
                        "0x000000000000000000000000ea0591fb4ab8b6eb4dbf093cacbade62e4927229"
                    ]
                },
                "nodeType": 1
            }
        },
        "gasFlame": [
            {
                "children": [
                    {
                        "children": [
                            {
                                "children": [],
                                "depth": 0,
                                "name": "Initial Gas",
                                "value": 23320
                            },
                            {
                                "children": [],
                                "depth": 0,
                                "name": "Executed Gas",
                                "value": 15040
                            }
                        ],
                        "depth": -1,
                        "name": "Actual Gas Used",
                        "value": 38360
                    },
                    {
                        "children": [],
                        "depth": -1,
                        "name": "Refunded Gas",
                        "value": 0
                    }
                ],
                "depth": -2,
                "name": "Total Gas",
                "value": 38360
            }
        ],
        "isConfirmed": true,
        "mainTrace": [
            {
                "children": [
                    {
                        "children": [
                            {
                                "children": [],
                                "depth": 1,
                                "id": 1,
                                "order": 1
                            }
                        ],
                        "depth": 0,
                        "id": 0,
                        "order": 0
                    }
                ],
                "depth": -1,
                "id": -1,
                "order": -1
            }
        ],
        "mainTraceNodeCount": 2,
        "parentIdMap": {
            "0": -1,
            "1": 0
        },
        "tidyTrace": [
            {
                "children": [
                    {
                        "children": [
                            {
                                "children": [],
                                "depth": 1,
                                "id": 1,
                                "order": 1
                            }
                        ],
                        "depth": 0,
                        "id": 0,
                        "order": 0
                    }
                ],
                "depth": -1,
                "id": -1,
                "order": -1
            }
        ],
        "tidyTraceNodeCount": 2
    },
    "state_change": {
        "stateChanges": [
            {
                "address": "0x8e766f57f7d16ca50b4a0b90b88f6468a09b0439",
                "erc": "",
                "slots": [
                    {
                        "current": "0x000000000000000000000000000000000000000000282354a5894e4b6717c400",
                        "key": "0x579cb1481c7f7b8217b408d8cd538769e69165f8270281bd23ebd81ce70bed8f",
                        "prev": "0x0000000000000000000000000000000000000000002823d823b3d47cb0ca8400"
                    },
                    {
                        "current": "0x000000000000000000000000000000000000000000000703d05b5568cbdc4000",
                        "key": "0x1de8d3da9f1ec69875a79641e4751b088e17c74993fc652938ff007aafaa12c0",
                        "prev": "0x0000000000000000000000000000000000000000000006805230cf3782298000"
                    }
                ],
                "storageVariables": [
                    {
                        "name": "balanceOf",
                        "type": "mapping(address => uint256)",
                        "value": {
                            "pairs": [
                                {
                                    "key": "0xb70e1aa092e55cb92ff6a22eb5e6b8ef6b104829",
                                    "value": {
                                        "current": "48523877066138969999655936",
                                        "prev": "48526302680838969999655936",
                                        "typeTag": 1
                                    }
                                },
                                {
                                    "key": "0xea0591fb4ab8b6eb4dbf093cacbade62e4927229",
                                    "value": {
                                        "current": "33126919300000000000000",
                                        "prev": "30701304600000000000000",
                                        "typeTag": 1
                                    }
                                }
                            ],
                            "typeTag": 4
                        }
                    }
                ]
            }
        ]
    }
}