{
    "balance_change": {
        "balanceChanges": [
            {
                "account": "0x285b50214d61fbf79044fcdda04a2b5b8ddd433b",
                "assets": [
                    {
                        "address": "0xeeeeeeeeeeeeeeeeeeeeeeeeeeeeeeeeeeeeeeee",
                        "amount": "0.01",
                        "iconUrl": "https://assets.blocksec.com/image/1663669189317-3.png",
                        "isERC1155": false,
                        "isERC721": false,
                        "sign": false,
                        "value": ""
                    }
                ]
            },
            {
                "account": "0xd1ceeeeee83f8bcf3bedad437202b6154e9f5405",
                "assets": [
                    {
                        "address": "0xeeeeeeeeeeeeeeeeeeeeeeeeeeeeeeeeeeeeeeee",
                        "amount": "0.01",
                        "iconUrl": "https://assets.blocksec.com/image/1663669189317-3.png",
                        "isERC1155": false,
                        "isERC721": false,
                        "sign": true,
                        "value": ""
                    }
                ]
            }
        ]
    },
    "profile": {
        "basic_info": {
            "baseFee": "",
            "blockNumber": 6731993,
            "callData": "0x5e83b46300000000000000000000000000000000000000000000000000000001cf7bce300000000000000000000000000000000000000000000000000000000000000024000000000000000000000000000000000000000000000000000000000066b99d86d906f11e6e64033761849d8e943985987ecdb7bd75897605c5c3f41e2807bd1ea12fcf2b08224068ad8f42e176ebe0e9b9d45fb4ea7cdd9b3700fcf6b29b666bbc06ff362faf25455a3b3dc72787f18137154bbdbf35f6653d1419b12a41b2",
            "debugEnable": true,
            "errorInfo": "",
            "eventCount": 1,
            "feeRecipient": "0xb6cf40aee9990c25d7d6193952af222e120b31c2",
            "formatValue": "0.01",
            "gasLimit": 150000,
            "gasPrice": "14",
            "gasUsed": 82339,
            "intTxnCount": 1,
            "internalRevert": false,
            "internalRevertMessage": "",
            "isContractCreation": false,
            "isFlashloan": false,
            "maxFee": "",
            "nonce": 1066,
            "overwritedBlockNumber": -1,
            "priorityFee": "",
            "receiver": "0xd1ceeeeee83f8bcf3bedad437202b6154e9f5405",
            "revertMessage": "",
            "sender": "0x285b50214d61fbf79044fcdda04a2b5b8ddd433b",
            "simulationEnable": true,
            "sourceTxnHash": "0x65fa714ba6a9dbc4cd609952236e37f91a808ded8f5130a80bab30071c834f3a",
            "status": true,
            "timestamp": "2018-11-19T06:24:23Z",
            "transactionFee": "0.001152746",
            "txnHash": "0x65fa714ba6a9dbc4cd609952236e37f91a808ded8f5130a80bab30071c834f3a",
            "txnIndex": 51,
            "type": 0,
            "value": "10000000000000000"
        },
        "fund_flow": [
            {
                "amount": "0.01",
                "from": "0x285b50214d61fbf79044fcdda04a2b5b8ddd433b",
                "id": 1,
                "isERC1155": false,
                "isERC721": false,
                "isReverted": false,
                "order": 1,
                "to": "0xd1ceeeeee83f8bcf3bedad437202b6154e9f5405",
                "token": "0xeeeeeeeeeeeeeeeeeeeeeeeeeeeeeeeeeeeeeeee"
            }
        ],
        "token_infos": [
            {
                "address": "0xc02aaa39b223fe8d0a0e5c4f27ead9083c756cc2",
                "decimals": 18
            },
            {
                "address": "0xeeeeeeeeeeeeeeeeeeeeeeeeeeeeeeeeeeeeeeee",
                "decimals": 18
            }
        ]
    },
    "address_label": {
        "labels": [
            {
                "address": "0xd1ceeeeee83f8bcf3bedad437202b6154e9f5405",
                "label": "Dice2Win"
            },
            {
                "address": "0x0000000000000000000000000000000000000001",
                "label": "Precompiled"
            },
            {
                "address": "0x0000000000000000000000000000000000000002",
                "label": "Precompiled"
            },
            {
                "address": "0x0000000000000000000000000000000000000003",
                "label": "Precompiled"
            },
            {
                "address": "0x0000000000000000000000000000000000000004",
                "label": "Precompiled"
            },
            {
                "address": "0xeeeeeeeeeeeeeeeeeeeeeeeeeeeeeeeeeeeeeeee",
                "label": "Ether"
            }
        ]
    },
    "trace": {
        "accountLabels": null,
        "dataMap": {
            "-1": {
                "invocation": {
                    "address": "0x285b50214d61fbf79044fcdda04a2b5b8ddd433b",
                    "callData": "",
                    "decodedMethod": null,
                    "errorInfo": "",
                    "fromAddress": "",
                    "gasUsed": 0,
                    "id": -1,
                    "methodDecoded": false,
                    "operation": "",
                    "output": "",
                    "revert": false,
                    "revertMessage": "",
                    "selector": "",
                    "status": false,
                    "value": ""
                },
                "nodeType": 0
            },
            "0": {
                "invocation": {
                    "address": "0xd1ceeeeee83f8bcf3bedad437202b6154e9f5405",
                    "callData": "0x00000000000000000000000000000000000000000000000000000001cf7bce300000000000000000000000000000000000000000000000000000000000000024000000000000000000000000000000000000000000000000000000000066b99d86d906f11e6e64033761849d8e943985987ecdb7bd75897605c5c3f41e2807bd1ea12fcf2b08224068ad8f42e176ebe0e9b9d45fb4ea7cdd9b3700fcf6b29b666bbc06ff362faf25455a3b3dc72787f18137154bbdbf35f6653d1419b12a41b2",
                    "decodedMethod": {
                        "callParams": [
                            {
                                "name": "betMask",
                                "type": "uint256",
                                "value": "7,775,964,720"
                            },
                            {
                                "name": "modulo",
                                "type": "uint256",
                                "value": "36"
                            },
                            {
                                "name": "commitLastBlock",
                                "type": "uint256",
                                "value": "6,732,189"
                            },
                            {
                                "name": "commit",
                                "type": "uint256",
                                "value": "60,993,375,434,244,613,807,608,644,466,228,048,293,500,555,823,926,535,256,070,134,194,884,441,540,541"
                            },
                            {
                                "name": "r",
                                "type": "bytes32",
                                "value": "0x1ea12fcf2b08224068ad8f42e176ebe0e9b9d45fb4ea7cdd9b3700fcf6b29b66"
                            },
                            {
                                "name": "s",
                                "type": "bytes32",
                                "value": "0x6bbc06ff362faf25455a3b3dc72787f18137154bbdbf35f6653d1419b12a41b2"
                            }
                        ],
                        "constructorArguments": "",
                        "name": "placeBet",
                        "returnParams": [],
                        "signature": "placeBet(uint256,uint256,uint256,uint256,bytes32,bytes32)"
                    },
                    "errorInfo": "",
                    "fromAddress": "0x285b50214d61fbf79044fcdda04a2b5b8ddd433b",
                    "gasUsed": 82339,
                    "id": 0,
                    "methodDecoded": true,
                    "operation": "CALL",
                    "output": "",
                    "revert": false,
                    "revertMessage": "",
                    "selector": "0x5e83b463",
                    "status": true,
                    "value": "0.01"
                },
                "nodeType": 0
            },
            "1": {
                "invocation": {
                    "address": "0x0000000000000000000000000000000000000001",
                    "callData": "0x5149f08d21189040356b15235c5aa5eb5b8d98d6f1247fe99918830d000000000000000000000000000000000000000000000000000000000000001b1ea12fcf2b08224068ad8f42e176ebe0e9b9d45fb4ea7cdd9b3700fcf6b29b666bbc06ff362faf25455a3b3dc72787f18137154bbdbf35f6653d1419b12a41b2",
                    "decodedMethod": {
                        "callParams": [
                            {
                                "name": "hash",
                                "type": "bytes32",
                                "value": "0x51cac8d55149f08d21189040356b15235c5aa5eb5b8d98d6f1247fe99918830d"
                            },
                            {
                                "name": "v",
                                "type": "uint256",
                                "value": "27"
                            },
                            {
                                "name": "r",
                                "type": "bytes32",
                                "value": "0x1ea12fcf2b08224068ad8f42e176ebe0e9b9d45fb4ea7cdd9b3700fcf6b29b66"
                            },
                            {
                                "name": "s",
                                "type": "bytes32",
                                "value": "0x6bbc06ff362faf25455a3b3dc72787f18137154bbdbf35f6653d1419b12a41b2"
                            }
                        ],
                        "constructorArguments": "",
                        "name": "ecrecover",
                        "returnParams": [
                            {
                                "name": "",
                                "type": "address",
                                "value": "0xb00b5ca7ec0502f2f269e99b91ebbccbce9cccec"
                            }
                        ],
                        "signature": "ecrecover(bytes32,uint256,bytes32,bytes32)"
                    },
                    "errorInfo": "",
                    "fromAddress": "0xd1ceeeeee83f8bcf3bedad437202b6154e9f5405",
                    "gasUsed": 3000,
                    "id": 1,
                    "methodDecoded": true,
                    "operation": "CALL",
                    "output": "0x000000000000000000000000b00b5ca7ec0502f2f269e99b91ebbccbce9cccec",
                    "revert": false,
                    "revertMessage": "",
                    "selector": "0x51cac8d5",
                    "status": true,
                    "value": "0"
                },
                "nodeType": 0
            },
            "2": {
                "event": {
                    "contract": "0xd1ceeeeee83f8bcf3bedad437202b6154e9f5405",
                    "decodedLog": {
                        "name": "Commit",
                        "params": [
                            {
                                "name": "commit",
                                "type": "uint256",
                                "value": "60,993,375,434,244,613,807,608,644,466,228,048,293,500,555,823,926,535,256,070,134,194,884,441,540,541"
                            }
                        ],
                        "signature": "Commit(uint256)"
                    },
                    "id": 2,
                    "logData": "0x86d906f11e6e64033761849d8e943985987ecdb7bd75897605c5c3f41e2807bd",
                    "logDecoded": true,
                    "operation": "EVENT",
                    "revert": false,
                    "status": true,
                    "topics": [
                        "0x5bdd2fc99022530157777690475b670d3872f32262eb1d47d9ba8000dad58f87"
                    ]
                },
                "nodeType": 1
            }
        },
        "gasFlame": [
            {
                "children": [
                    {
                        "children": [
                            {
                                "children": [],
                                "depth": 0,
                                "name": "Initial Gas",
                                "value": 28696
                            },
                            {
                                "children": [
                                    {
                                        "children": [],
                                        "depth": 1,
                                        "name": "ecrecover",
                                        "value": 3000
                                    }
                                ],
                                "depth": 0,
                                "name": "Executed Gas",
                                "value": 53643
                            }
                        ],
                        "depth": -1,
                        "name": "Actual Gas Used",
                        "value": 82339
                    },
                    {
                        "children": [],
                        "depth": -1,
                        "name": "Refunded Gas",
                        "value": 0
                    }
                ],
                "depth": -2,
                "name": "Total Gas",
                "value": 82339
            }
        ],
        "isConfirmed": true,
        "mainTrace": [
            {
                "children": [
                    {
                        "children": [
                            {
                                "children": [],
                                "depth": 1,
                                "id": 1,
                                "order": 1
                            },
                            {
                                "children": [],
                                "depth": 1,
                                "id": 2,
                                "order": 2
                            }
                        ],
                        "depth": 0,
                        "id": 0,
                        "order": 0
                    }
                ],
                "depth": -1,
                "id": -1,
                "order": -1
            }
        ],
        "mainTraceNodeCount": 3,
        "parentIdMap": {
            "0": -1,
            "1": 0,
            "2": 0
        },
        "tidyTrace": [
            {
                "children": [
                    {
                        "children": [
                            {
                                "children": [],
                                "depth": 1,
                                "id": 1,
                                "order": 1
                            },
                            {
                                "children": [],
                                "depth": 1,
                                "id": 2,
                                "order": 2
                            }
                        ],
                        "depth": 0,
                        "id": 0,
                        "order": 0
                    }
                ],
                "depth": -1,
                "id": -1,
                "order": -1
            }
        ],
        "tidyTraceNodeCount": 3
    },
    "state_change": {
        "stateChanges": [
            {
                "address": "0xd1ceeeeee83f8bcf3bedad437202b6154e9f5405",
                "erc": "",
                "slots": [
                    {
                        "current": "0x0000000000000000018ce8bf824e800000000000000000000cc0f1a184958000",
                        "key": "0x0000000000000000000000000000000000000000000000000000000000000004",
                        "prev": "0x0000000000000000014ee0f87887400000000000000000000cc0f1a184958000"
                    },
                    {
                        "current": "0x000000000000000000000000000000000000000000000000002386f26fc10000",
                        "key": "0x1d85bc64e42f3bec6979ade0b5fc5877334b0411d03c8b77f54399bfa1918a71",
                        "prev": "0x0000000000000000000000000000000000000000000000000000000000000000"
                    },
                    {
                        "current": "0x285b50214d61fbf79044fcdda04a2b5b8ddd433b01cf7bce30000066b8d91424",
                        "key": "0x1d85bc64e42f3bec6979ade0b5fc5877334b0411d03c8b77f54399bfa1918a72",
                        "prev": "0x0000000000000000000000000000000000000000000000000000000000000000"
                    }
                ],
                "storageVariables": [
                    {
                        "name": "jackpotSize",
                        "type": "uint128",
                        "value": {
                            "current": "919000000000000000",
                            "prev": "919000000000000000",
                            "typeTag": 1
                        }
                    },
                    {
                        "name": "lockedInBets",
                        "type": "uint128",
                        "value": {
                            "current": "111720000000000000",
                            "prev": "94260000000000000",
                            "typeTag": 1
                        }
                    },
                    {
                        "name": "bets",
                        "type": "mapping(uint256 => struct Dice2Win.Bet)",
                        "value": {
                            "pairs": [
                                {
                                    "key": "60993375434244613807608644466228048293500555823926535256070134194884441540541",
                                    "value": {
                                        "fields": [
                                            {
                                                "name": "amount",
                                                "type": "uint256",
                                                "value": {
                                                    "current": "10000000000000000",
                                                    "prev": "0",
                                                    "typeTag": 1
                                                }
                                            },
                                            {
                                                "name": "modulo",
                                                "type": "uint8",
                                                "value": {
                                                    "current": "36",
                                                    "prev": "0",
                                                    "typeTag": 1
                                                }
                                            },
                                            {
                                                "name": "rollUnder",
                                                "type": "uint8",
                                                "value": {
                                                    "current": "20",
                                                    "prev": "0",
                                                    "typeTag": 1
                                                }
                                            },
                                            {
                                                "name": "placeBlockNumber",
                                                "type": "uint40",
                                                "value": {
                                                    "current": "6731993",
                                                    "prev": "0",
                                                    "typeTag": 1
                                                }
                                            },
                                            {
                                                "name": "mask",
                                                "type": "uint40",
                                                "value": {
                                                    "current": "7775964720",
                                                    "prev": "0",
                                                    "typeTag": 1
                                                }
                                            },
                                            {
                                                "name": "gambler",
                                                "type": "address",
                                                "value": {
                                                    "current": "0x285b50214d61fbf79044fcdda04a2b5b8ddd433b",
                                                    "prev": "0x0000000000000000000000000000000000000000",
                                                    "typeTag": 1
                                                }
                                            }
                                        ],
                                        "typeTag": 3
                                    }
                                }
                            ],
                            "typeTag": 4
                        }
                    }
                ]
            }
        ]
    }
}