{
    "balance_change": {
        "balanceChanges": [
            {
                "account": "0xe95e4c20b70aeeff43469933d46acc2aa3e6acf4",
                "assets": [
                    {
                        "address": "0x2feeced99b3b7dea3d63f39371627ea8b55cbdbc",
                        "amount": "1",
                        "iconUrl": "",
                        "isERC1155": true,
                        "isERC721": false,
                        "sign": true,
                        "tokenID": "11",
                        "value": ""
                    },
                    {
                        "address": "0xeeeeeeeeeeeeeeeeeeeeeeeeeeeeeeeeeeeeeeee",
                        "amount": "0.0505",
                        "iconUrl": "https://assets.blocksec.com/image/1663669189317-3.png",
                        "isERC1155": false,
                        "isERC721": false,
                        "sign": false,
                        "value": "92.73466499999999633"
                    }
                ]
            },
            {
                "account": "0xdb8d79c775452a3929b86ac5deab3e9d38e1c006",
                "assets": [
                    {
                        "address": "0xeeeeeeeeeeeeeeeeeeeeeeeeeeeeeeeeeeeeeeee",
                        "amount": "0.0005",
                        "iconUrl": "https://assets.blocksec.com/image/1663669189317-3.png",
                        "isERC1155": false,
                        "isERC721": false,
                        "sign": true,
                        "value": "0.9181649999999999636"
                    }
                ]
            },
            {
                "account": "0x0000000000000000000000000000000000000000",
                "assets": [
                    {
                        "address": "0x2feeced99b3b7dea3d63f39371627ea8b55cbdbc",
                        "amount": "1",
                        "iconUrl": "",
                        "isERC1155": true,
                        "isERC721": false,
                        "sign": false,
                        "tokenID": "11",
                        "value": ""
                    }
                ]
            },
            {
                "account": "0x72eb30d3ca53f5e839325e2eacf535e70a9e6987",
                "assets": [
                    {
                        "address": "0xeeeeeeeeeeeeeeeeeeeeeeeeeeeeeeeeeeeeeeee",
                        "amount": "0.05",
                        "iconUrl": "https://assets.blocksec.com/image/1663669189317-3.png",
                        "isERC1155": false,
                        "isERC721": false,
                        "sign": true,
                        "value": "91.81649999999999636"
                    }
                ]
            }
        ]
    },
    "profile": {
        "basic_info": {
            "baseFee": "20.666594782",
            "blockNumber": 18498847,
            "callData": "0xfa2b068f0000000000000000000000002feeced99b3b7dea3d63f39371627ea8b55cbdbc00000000000000000000000000000000000000000000000000000000032b30f0000000000000000000000000000000000000000000000000000000000000000000000000000000000000000000000000000000000000000000000000000000a0000000000000000000000000e95e4c20b70aeeff43469933d46acc2aa3e6acf40000000000000000000000000000000000000000000000000000000000000000",
            "debugEnable": true,
            "errorInfo": "",
            "eventCount": 2,
            "feeRecipient": "0x95222290dd7278aa3ddd389cc1e1d165cc4bafe5",
            "formatValue": "0.0505",
            "gasLimit": 143756,
            "gasPrice": "20.766594782",
            "gasUsed": 109936,
            "intTxnCount": 3,
            "internalRevert": false,
            "internalRevertMessage": "",
            "isContractCreation": false,
            "isFlashloan": false,
            "maxFee": "30.29232058",
            "nonce": 224,
            "overwritedBlockNumber": -1,
            "priorityFee": "0.1",
            "receiver": "0xdb8d79c775452a3929b86ac5deab3e9d38e1c006",
            "revertMessage": "",
            "sender": "0xe95e4c20b70aeeff43469933d46acc2aa3e6acf4",
            "simulationEnable": true,
            "sourceTxnHash": "0x65634a1ddaf61689a7e0666347f20a72bd6fb77db85b9adf6c0e7d897368f79d",
            "status": true,
            "timestamp": "2023-11-04T13:04:11Z",
            "transactionFee": "0.002282996363953952",
            "txnHash": "0x65634a1ddaf61689a7e0666347f20a72bd6fb77db85b9adf6c0e7d897368f79d",
            "txnIndex": 147,
            "type": 2,
            "value": "50500000000000000"
        },
        "fund_flow": [
            {
                "amount": "0.0505",
                "from": "0xe95e4c20b70aeeff43469933d46acc2aa3e6acf4",
                "id": 1,
                "isERC1155": false,
                "isERC721": false,
                "isReverted": false,
                "order": 1,
                "to": "0xdb8d79c775452a3929b86ac5deab3e9d38e1c006",
                "token": "0xeeeeeeeeeeeeeeeeeeeeeeeeeeeeeeeeeeeeeeee"
            },
            {
                "amount": "0.05",
                "from": "0xdb8d79c775452a3929b86ac5deab3e9d38e1c006",
                "id": 2,
                "isERC1155": false,
                "isERC721": false,
                "isReverted": false,
                "order": 2,
                "to": "0x72eb30d3ca53f5e839325e2eacf535e70a9e6987",
                "token": "0xeeeeeeeeeeeeeeeeeeeeeeeeeeeeeeeeeeeeeeee"
            },
            {
                "amount": "1",
                "from": "0x0000000000000000000000000000000000000000",
                "id": 3,
                "isERC1155": true,
                "isERC721": false,
                "isReverted": false,
                "order": 3,
                "to": "0xe95e4c20b70aeeff43469933d46acc2aa3e6acf4",
                "token": "0x2feeced99b3b7dea3d63f39371627ea8b55cbdbc",
                "tokenID": "11"
            }
        ],
        "token_infos": [
            {
                "address": "0xc02aaa39b223fe8d0a0e5c4f27ead9083c756cc2",
                "decimals": 18
            },
            {
                "address": "0xeeeeeeeeeeeeeeeeeeeeeeeeeeeeeeeeeeeeeeee",
                "decimals": 18
            }
        ]
    },
    "address_label": {
        "labels": [
            {
                "address": "0x2feeced99b3b7dea3d63f39371627ea8b55cbdbc",
                "label": "ELF"
            },
            {
                "address": "0x0000000000000000000000000000000000000001",
                "label": "Precompiled"
            },
            {
                "address": "0x0000000000000000000000000000000000000002",
                "label": "Precompiled"
            },
            {
                "address": "0x0000000000000000000000000000000000000003",
                "label": "Precompiled"
            },
            {
                "address": "0x0000000000000000000000000000000000000004",
                "label": "Precompiled"
            },
            {
                "address": "0xeeeeeeeeeeeeeeeeeeeeeeeeeeeeeeeeeeeeeeee",
                "label": "Ether"
            },
            {
                "address": "0xdb8d79c775452a3929b86ac5deab3e9d38e1c006",
                "label": "Manifold: Lazy Claim 3"
            },
            {
                "address": "0x6bf5ed59de0e19999d264746843ff931c0133090",
                "label": "Manifold ERC1155 Creator (M1155)"
            }
        ]
    },
    "trace": {
        "accountLabels": null,
        "dataMap": {
            "-1": {
                "invocation": {
                    "address": "0xe95e4c20b70aeeff43469933d46acc2aa3e6acf4",
                    "callData": "",
                    "decodedMethod": null,
                    "errorInfo": "",
                    "fromAddress": "",
                    "gasUsed": 0,
                    "id": -1,
                    "methodDecoded": false,
                    "operation": "",
                    "output": "",
                    "revert": false,
                    "revertMessage": "",
                    "selector": "",
                    "status": false,
                    "value": ""
                },
                "nodeType": 0
            },
            "0": {
                "invocation": {
                    "address": "0xdb8d79c775452a3929b86ac5deab3e9d38e1c006",
                    "callData": "0x0000000000000000000000002feeced99b3b7dea3d63f39371627ea8b55cbdbc00000000000000000000000000000000000000000000000000000000032b30f0000000000000000000000000000000000000000000000000000000000000000000000000000000000000000000000000000000000000000000000000000000a0000000000000000000000000e95e4c20b70aeeff43469933d46acc2aa3e6acf40000000000000000000000000000000000000000000000000000000000000000",
                    "decodedMethod": {
                        "callParams": [
                            {
                                "name": "creatorContractAddress",
                                "type": "address",
                                "value": "0x2feeced99b3b7dea3d63f39371627ea8b55cbdbc"
                            },
                            {
                                "name": "instanceId",
                                "type": "uint256",
                                "value": "53,162,224"
                            },
                            {
                                "name": "mintIndex",
                                "type": "uint32",
                                "value": "0"
                            },
                            {
                                "name": "merkleProof",
                                "type": "bytes32[]",
                                "value": []
                            },
                            {
                                "name": "mintFor",
                                "type": "address",
                                "value": "0xe95e4c20b70aeeff43469933d46acc2aa3e6acf4"
                            }
                        ],
                        "constructorArguments": "",
                        "name": "mint",
                        "returnParams": [],
                        "signature": "mint(address,uint256,uint32,bytes32[],address)"
                    },
                    "errorInfo": "",
                    "fromAddress": "0xe95e4c20b70aeeff43469933d46acc2aa3e6acf4",
                    "gasUsed": 109936,
                    "id": 0,
                    "methodDecoded": true,
                    "operation": "CALL",
                    "output": "",
                    "revert": false,
                    "revertMessage": "",
                    "selector": "0xfa2b068f",
                    "status": true,
                    "value": "0.0505"
                },
                "nodeType": 0
            },
            "1": {
                "invocation": {
                    "address": "0x72eb30d3ca53f5e839325e2eacf535e70a9e6987",
                    "callData": "0x",
                    "decodedMethod": null,
                    "errorInfo": "",
                    "fromAddress": "0xdb8d79c775452a3929b86ac5deab3e9d38e1c006",
                    "gasUsed": 0,
                    "id": 1,
                    "methodDecoded": false,
                    "operation": "CALL",
                    "output": "",
                    "revert": false,
                    "revertMessage": "",
                    "selector": "fallback",
                    "status": true,
                    "value": "0.05"
                },
                "nodeType": 0
            },
            "2": {
                "invocation": {
                    "address": "0x2feeced99b3b7dea3d63f39371627ea8b55cbdbc",
                    "callData": "0x000000000000000000000000000000000000000000000000000000000000006000000000000000000000000000000000000000000000000000000000000000a000000000000000000000000000000000000000000000000000000000000000e00000000000000000000000000000000000000000000000000000000000000001000000000000000000000000e95e4c20b70aeeff43469933d46acc2aa3e6acf40000000000000000000000000000000000000000000000000000000000000001000000000000000000000000000000000000000000000000000000000000000b00000000000000000000000000000000000000000000000000000000000000010000000000000000000000000000000000000000000000000000000000000001",
                    "decodedMethod": {
                        "callParams": [
                            {
                                "name": "to",
                                "type": "address[]",
                                "value": [
                                    "0xe95e4c20b70aeeff43469933d46acc2aa3e6acf4"
                                ]
                            },
                            {
                                "name": "tokenIds",
                                "type": "uint256[]",
                                "value": [
                                    "11"
                                ]
                            },
                            {
                                "name": "amounts",
                                "type": "uint256[]",
                                "value": [
                                    "1"
                                ]
                            }
                        ],
                        "constructorArguments": "",
                        "name": "mintExtensionExisting",
                        "returnParams": [],
                        "signature": "mintExtensionExisting(address[],uint256[],uint256[])"
                    },
                    "errorInfo": "",
                    "fromAddress": "0xdb8d79c775452a3929b86ac5deab3e9d38e1c006",
                    "gasUsed": 54988,
                    "id": 2,
                    "methodDecoded": true,
                    "operation": "CALL",
                    "output": "",
                    "revert": false,
                    "revertMessage": "",
                    "selector": "0xe6c884dc",
                    "status": true,
                    "value": "0"
                },
                "nodeType": 0
            },
            "3": {
                "invocation": {
                    "address": "0x6bf5ed59de0e19999d264746843ff931c0133090",
                    "callData": "0x000000000000000000000000000000000000000000000000000000000000006000000000000000000000000000000000000000000000000000000000000000a000000000000000000000000000000000000000000000000000000000000000e00000000000000000000000000000000000000000000000000000000000000001000000000000000000000000e95e4c20b70aeeff43469933d46acc2aa3e6acf40000000000000000000000000000000000000000000000000000000000000001000000000000000000000000000000000000000000000000000000000000000b00000000000000000000000000000000000000000000000000000000000000010000000000000000000000000000000000000000000000000000000000000001",
                    "decodedMethod": {
                        "callParams": [
                            {
                                "name": "to",
                                "type": "address[]",
                                "value": [
                                    "0xe95e4c20b70aeeff43469933d46acc2aa3e6acf4"
                                ]
                            },
                            {
                                "name": "tokenIds",
                                "type": "uint256[]",
                                "value": [
                                    "11"
                                ]
                            },
                            {
                                "name": "amounts",
                                "type": "uint256[]",
                                "value": [
                                    "1"
                                ]
                            }
                        ],
                        "constructorArguments": "",
                        "name": "mintExtensionExisting",
                        "returnParams": [],
                        "signature": "mintExtensionExisting(address[],uint256[],uint256[])"
                    },
                    "errorInfo": "",
                    "fromAddress": "0x2feeced99b3b7dea3d63f39371627ea8b55cbdbc",
                    "gasUsed": 50021,
                    "id": 3,
                    "methodDecoded": true,
                    "operation": "DELEGATECALL",
                    "output": "",
                    "revert": false,
                    "revertMessage": "",
                    "selector": "0xe6c884dc",
                    "status": true,
                    "value": "0"
                },
                "nodeType": 0
            },
            "4": {
                "event": {
                    "contract": "0x2feeced99b3b7dea3d63f39371627ea8b55cbdbc",
                    "decodedLog": {
                        "name": "TransferSingle",
                        "params": [
                            {
                                "name": "operator",
                                "type": "address",
                                "value": "0xdb8d79c775452a3929b86ac5deab3e9d38e1c006"
                            },
                            {
                                "name": "from",
                                "type": "address",
                                "value": "0x0000000000000000000000000000000000000000"
                            },
                            {
                                "name": "to",
                                "type": "address",
                                "value": "0xe95e4c20b70aeeff43469933d46acc2aa3e6acf4"
                            },
                            {
                                "name": "id",
                                "type": "uint256",
                                "value": "11"
                            },
                            {
                                "name": "value",
                                "type": "uint256",
                                "value": "1"
                            }
                        ],
                        "signature": "TransferSingle(address,address,address,uint256,uint256)"
                    },
                    "id": 4,
                    "logData": "0x000000000000000000000000000000000000000000000000000000000000000b0000000000000000000000000000000000000000000000000000000000000001",
                    "logDecoded": true,
                    "operation": "EVENT",
                    "revert": false,
                    "status": true,
                    "topics": [
                        "0xc3d58168c5ae7397731d063d5bbf3d657854427343f4c083240f7aacaa2d0f62",
                        "0x000000000000000000000000db8d79c775452a3929b86ac5deab3e9d38e1c006",
                        "0x0000000000000000000000000000000000000000000000000000000000000000",
                        "0x000000000000000000000000e95e4c20b70aeeff43469933d46acc2aa3e6acf4"
                    ]
                },
                "nodeType": 1
            },
            "5": {
                "event": {
                    "contract": "0xdb8d79c775452a3929b86ac5deab3e9d38e1c006",
                    "decodedLog": {
                        "name": "ClaimMint",
                        "params": [
                            {
                                "name": "creatorContract",
                                "type": "address",
                                "value": "0x2feeced99b3b7dea3d63f39371627ea8b55cbdbc"
                            },
                            {
                                "name": "instanceId",
                                "type": "uint256",
                                "value": "53,162,224"
                            }
                        ],
                        "signature": "ClaimMint(address,uint256)"
                    },
                    "id": 5,
                    "logData": "0x",
                    "logDecoded": true,
                    "operation": "EVENT",
                    "revert": false,
                    "status": true,
                    "topics": [
                        "0x5d404f369772cfab2b65717fca9bc2077efeab89a0dbec036bf0c13783154eb1",
                        "0x0000000000000000000000002feeced99b3b7dea3d63f39371627ea8b55cbdbc",
                        "0x00000000000000000000000000000000000000000000000000000000032b30f0"
                    ]
                },
                "nodeType": 1
            }
        },
        "gasFlame": [
            {
                "children": [
                    {
                        "children": [
                            {
                                "children": [],
                                "depth": 0,
                                "name": "Initial Gas",
                                "value": 22372
                            },
                            {
                                "children": [
                                    {
                                        "children": [],
                                        "depth": 1,
                                        "name": "fallback",
                                        "value": 0
                                    },
                                    {
                                        "children": [
                                            {
                                                "children": [],
                                                "depth": 2,
                                                "name": "mintExtensionExisting",
                                                "value": 50021
                                            }
                                        ],
                                        "depth": 1,
                                        "name": "mintExtensionExisting",
                                        "value": 54988
                                    }
                                ],
                                "depth": 0,
                                "name": "Executed Gas",
                                "value": 90364
                            }
                        ],
                        "depth": -1,
                        "name": "Actual Gas Used",
                        "value": 109936
                    },
                    {
                        "children": [],
                        "depth": -1,
                        "name": "Refunded Gas",
                        "value": 2800
                    }
                ],
                "depth": -2,
                "name": "Total Gas",
                "value": 112736
            }
        ],
        "isConfirmed": true,
        "mainTrace": [
            {
                "children": [
                    {
                        "children": [
                            {
                                "children": [],
                                "depth": 1,
                                "id": 1,
                                "order": 1
                            },
                            {
                                "children": [
                                    {
                                        "children": [
                                            {
                                                "children": [],
                                                "depth": 3,
                                                "id": 4,
                                                "order": 4
                                            }
                                        ],
                                        "depth": 2,
                                        "id": 3,
                                        "order": 3
                                    }
                                ],
                                "depth": 1,
                                "id": 2,
                                "order": 2
                            },
                            {
                                "children": [],
                                "depth": 1,
                                "id": 5,
                                "order": 5
                            }
                        ],
                        "depth": 0,
                        "id": 0,
                        "order": 0
                    }
                ],
                "depth": -1,
                "id": -1,
                "order": -1
            }
        ],
        "mainTraceNodeCount": 6,
        "parentIdMap": {
            "0": -1,
            "1": 0,
            "2": 0,
            "3": 2,
            "4": 3,
            "5": 0
        },
        "tidyTrace": [
            {
                "children": [
                    {
                        "children": [
                            {
                                "children": [],
                                "depth": 1,
                                "id": 1,
                                "order": 1
                            },
                            {
                                "children": [
                                    {
                                        "children": [
                                            {
                                                "children": [],
                                                "depth": 3,
                                                "id": 4,
                                                "order": 4
                                            }
                                        ],
                                        "depth": 2,
                                        "id": 3,
                                        "order": 3
                                    }
                                ],
                                "depth": 1,
                                "id": 2,
                                "order": 2
                            },
                            {
                                "children": [],
                                "depth": 1,
                                "id": 5,
                                "order": 5
                            }
                        ],
                        "depth": 0,
                        "id": 0,
                        "order": 0
                    }
                ],
                "depth": -1,
                "id": -1,
                "order": -1
            }
        ],
        "tidyTraceNodeCount": 6
    },
    "state_change": {
        "stateChanges": [
            {
                "address": "0x2feeced99b3b7dea3d63f39371627ea8b55cbdbc",
                "erc": "ERC-1155",
                "slots": [
                    {
                        "current": "0x0000000000000000000000000000000000000000000000000000000000000001",
                        "key": "0x81822189c4dadaf6ed5be83f14c28453f05c074538776c4c87c83844a56cc01e",
                        "prev": "0x0000000000000000000000000000000000000000000000000000000000000000"
                    },
                    {
                        "current": "0x0000000000000000000000000000000000000000000000000000000000000002",
                        "key": "0x1cb52ffc2fdf7ca7fcd69aaf3cebca4f92ed13d5253180644b37fbc98dd1bdc6",
                        "prev": "0x0000000000000000000000000000000000000000000000000000000000000001"
                    }
                ],
                "storageVariables": [
                    {
                        "name": "_balances",
                        "type": "mapping(uint256 => mapping(address => uint256))",
                        "value": {
                            "pairs": [
                                {
                                    "key": "11",
                                    "value": {
                                        "pairs": [
                                            {
                                                "key": "0xe95e4c20b70aeeff43469933d46acc2aa3e6acf4",
                                                "value": {
                                                    "current": "1",
                                                    "prev": "0",
                                                    "typeTag": 1
                                                }
                                            }
                                        ],
                                        "typeTag": 4
                                    }
                                }
                            ],
                            "typeTag": 4
                        }
                    },
                    {
                        "name": "_totalSupply",
                        "type": "mapping(uint256 => uint256)",
                        "value": {
                            "pairs": [
                                {
                                    "key": "11",
                                    "value": {
                                        "current": "2",
                                        "prev": "1",
                                        "typeTag": 1
                                    }
                                }
                            ],
                            "typeTag": 4
                        }
                    }
                ]
            },
            {
                "address": "0xdb8d79c775452a3929b86ac5deab3e9d38e1c006",
                "erc": "",
                "slots": [
                    {
                        "current": "0x0000000000000002000000000000000000000000000000000000000500000002",
                        "key": "0x270b60d4edc649ca266b1859394be8d185ca3353f1b33295346f7f8233c3c3a2",
                        "prev": "0x0000000000000002000000000000000000000000000000000000000500000001"
                    }
                ],
                "storageVariables": [
                    {
                        "name": "_claims",
                        "type": "mapping(address => mapping(uint256 => struct IERC1155LazyPayableClaim.Claim))",
                        "value": {
                            "pairs": [
                                {
                                    "key": "0x2feeced99b3b7dea3d63f39371627ea8b55cbdbc",
                                    "value": {
                                        "pairs": [
                                            {
                                                "key": "53162224",
                                                "value": {
                                                    "fields": [
                                                        {
                                                            "name": "total",
                                                            "type": "uint32",
                                                            "value": {
                                                                "current": "2",
                                                                "prev": "1",
                                                                "typeTag": 1
                                                            }
                                                        },
                                                        {
                                                            "name": "totalMax",
                                                            "type": "uint32",
                                                            "value": {
                                                                "current": "5",
                                                                "prev": "5",
                                                                "typeTag": 1
                                                            }
                                                        },
                                                        {
                                                            "name": "walletMax",
                                                            "type": "uint32",
                                                            "value": {
                                                                "current": "0",
                                                                "prev": "0",
                                                                "typeTag": 1
                                                            }
                                                        },
                                                        {
                                                            "name": "startDate",
                                                            "type": "uint48",
                                                            "value": {
                                                                "current": "0",
                                                                "prev": "0",
                                                                "typeTag": 1
                                                            }
                                                        },
                                                        {
                                                            "name": "endDate",
                                                            "type": "uint48",
                                                            "value": {
                                                                "current": "0",
                                                                "prev": "0",
                                                                "typeTag": 1
                                                            }
                                                        },
                                                        {
                                                            "name": "storageProtocol",
                                                            "type": "enum ILazyPayableClaim.StorageProtocol",
                                                            "value": {
                                                                "current": "2",
                                                                "prev": "2",
                                                                "typeTag": 1
                                                            }
                                                        },
                                                        {
                                                            "name": "location",
                                                            "type": "string",
                                                            "value": {
                                                                "current": "FrW-cUZVXpP8hIUZuOqmAqpoSXxQQkWnY6T4f1b5RY8",
                                                                "prev": "FrW-cUZVXpP8hIUZuOqmAqpoSXxQQkWnY6T4f1b5RY8",
                                                                "typeTag": 1
                                                            }
                                                        }
                                                    ],
                                                    "typeTag": 3
                                                }
                                            }
                                        ],
                                        "typeTag": 4
                                    }
                                }
                            ],
                            "typeTag": 4
                        }
                    }
                ]
            }
        ]
    }
}