{
    "balance_change": {
        "balanceChanges": [
            {
                "account": "0xb836d345fb83688dd6868ff8c75ecc67cfc9cee0",
                "assets": [
                    {
                        "address": "0xe8a3bf796ca5a13283ec6b1c5b645b91d7cfef5d",
                        "amount": "3,000",
                        "iconUrl": "",
                        "isERC1155": false,
                        "isERC721": false,
                        "sign": false,
                        "value": "524.5060321"
                    }
                ]
            },
            {
                "account": "0x2ddbac948bdb462ece61be80d13f484016cc1312",
                "assets": [
                    {
                        "address": "0xe8a3bf796ca5a13283ec6b1c5b645b91d7cfef5d",
                        "amount": "3,000",
                        "iconUrl": "",
                        "isERC1155": false,
                        "isERC721": false,
                        "sign": true,
                        "value": "524.5060321"
                    }
                ]
            }
        ]
    },
    "profile": {
        "basic_info": {
            "baseFee": "24.135261437",
            "blockNumber": 17023880,
            "callData": "0x5d913c88000000000000000000000000000000000000000000000000000000000000009f000000000000000000000000000000000000000000000000000000000000000400000000000000000000000000000000000000000000000000000000000000000000000000000000000000000000000000000000000000a2a15d09519be00000",
            "debugEnable": true,
            "errorInfo": "",
            "eventCount": 3,
            "feeRecipient": "0x4675c7e5baafbffbca748158becba61ef3b0a263",
            "formatValue": "0",
            "gasLimit": 315169,
            "gasPrice": "26.635261437",
            "gasUsed": 205321,
            "intTxnCount": 27,
            "internalRevert": false,
            "internalRevertMessage": "",
            "isContractCreation": false,
            "isFlashloan": false,
            "maxFee": "52.705381806",
            "nonce": 38,
            "overwritedBlockNumber": -1,
            "priorityFee": "2.5",
            "receiver": "0xdab5d619ee0a7c7b803ae8601f6df265fb94e5ef",
            "revertMessage": "",
            "sender": "0xb836d345fb83688dd6868ff8c75ecc67cfc9cee0",
            "simulationEnable": true,
            "sourceTxnHash": "0x667c65b39bfa610a0dcab2973ebb2705890f174b769d027237a94db3252cc707",
            "status": true,
            "timestamp": "2023-04-11T09:09:59Z",
            "transactionFee": "0.005468778513506277",
            "txnHash": "0x667c65b39bfa610a0dcab2973ebb2705890f174b769d027237a94db3252cc707",
            "txnIndex": 43,
            "type": 2,
            "value": "0"
        },
        "fund_flow": [
            {
                "amount": "3,000",
                "from": "0xb836d345fb83688dd6868ff8c75ecc67cfc9cee0",
                "id": 1,
                "isERC1155": false,
                "isERC721": false,
                "isReverted": false,
                "order": 1,
                "to": "0x2ddbac948bdb462ece61be80d13f484016cc1312",
                "token": "0xe8a3bf796ca5a13283ec6b1c5b645b91d7cfef5d"
            }
        ],
        "token_infos": [
            {
                "address": "0xc02aaa39b223fe8d0a0e5c4f27ead9083c756cc2",
                "decimals": 18
            },
            {
                "address": "0xe8a3bf796ca5a13283ec6b1c5b645b91d7cfef5d",
                "decimals": 18
            },
            {
                "address": "0xeeeeeeeeeeeeeeeeeeeeeeeeeeeeeeeeeeeeeeee",
                "decimals": 18
            }
        ]
    },
    "address_label": {
        "labels": [
            {
                "address": "0xeeeeeeeeeeeeeeeeeeeeeeeeeeeeeeeeeeeeeeee",
                "label": "Ether"
            },
            {
                "address": "0x85afc9021403571ffc292f28cbe9c12b6a76d69e",
                "label": "Virus World (VRWD)"
            },
            {
                "address": "0xe8a3bf796ca5a13283ec6b1c5b645b91d7cfef5d",
                "label": "Virus World: ZVT Token"
            },
            {
                "address": "0x0000000000000000000000000000000000000001",
                "label": "Precompiled"
            },
            {
                "address": "0x0000000000000000000000000000000000000002",
                "label": "Precompiled"
            },
            {
                "address": "0x34c8d54ca5a417d5afd93f230e3f146f91e5db7a",
                "label": "TransparentUpgradeableProxy_34c8_db7a"
            },
            {
                "address": "0xdab5d619ee0a7c7b803ae8601f6df265fb94e5ef",
                "label": "TransparentUpgradeableProxy_dab5_e5ef"
            },
            {
                "address": "0x0000000000000000000000000000000000000003",
                "label": "Precompiled"
            },
            {
                "address": "0x0000000000000000000000000000000000000004",
                "label": "Precompiled"
            }
        ]
    },
    "trace": {
        "accountLabels": null,
        "dataMap": {
            "-1": {
                "invocation": {
                    "address": "0xb836d345fb83688dd6868ff8c75ecc67cfc9cee0",
                    "callData": "",
                    "decodedMethod": null,
                    "errorInfo": "",
                    "fromAddress": "",
                    "gasUsed": 0,
                    "id": -1,
                    "methodDecoded": false,
                    "operation": "",
                    "output": "",
                    "revert": false,
                    "revertMessage": "",
                    "selector": "",
                    "status": false,
                    "value": ""
                },
                "nodeType": 0
            },
            "0": {
                "invocation": {
                    "address": "0xdab5d619ee0a7c7b803ae8601f6df265fb94e5ef",
                    "callData": "0x000000000000000000000000000000000000000000000000000000000000009f000000000000000000000000000000000000000000000000000000000000000400000000000000000000000000000000000000000000000000000000000000000000000000000000000000000000000000000000000000a2a15d09519be00000",
                    "decodedMethod": null,
                    "errorInfo": "",
                    "fromAddress": "0xb836d345fb83688dd6868ff8c75ecc67cfc9cee0",
                    "gasUsed": 205321,
                    "id": 0,
                    "methodDecoded": false,
                    "operation": "CALL",
                    "output": "",
                    "revert": false,
                    "revertMessage": "",
                    "selector": "0x5d913c88",
                    "status": true,
                    "value": "0"
                },
                "nodeType": 0
            },
            "1": {
                "invocation": {
                    "address": "0xbe55b6860559ba463a7004ed8b60e3b3370d9f6c",
                    "callData": "0x000000000000000000000000000000000000000000000000000000000000009f000000000000000000000000000000000000000000000000000000000000000400000000000000000000000000000000000000000000000000000000000000000000000000000000000000000000000000000000000000a2a15d09519be00000",
                    "decodedMethod": null,
                    "errorInfo": "",
                    "fromAddress": "0xdab5d619ee0a7c7b803ae8601f6df265fb94e5ef",
                    "gasUsed": 176306,
                    "id": 1,
                    "methodDecoded": false,
                    "operation": "DELEGATECALL",
                    "output": "",
                    "revert": false,
                    "revertMessage": "",
                    "selector": "0x5d913c88",
                    "status": true,
                    "value": "0"
                },
                "nodeType": 0
            },
            "10": {
                "invocation": {
                    "address": "0x62a9e7423b450c8802c0f3d1f0bc0909cfcca269",
                    "callData": "0x0000000000000000000000000000000000000000000000000000000000000004",
                    "decodedMethod": {
                        "callParams": [
                            {
                                "name": "tokenId",
                                "type": "uint256",
                                "value": "4"
                            }
                        ],
                        "constructorArguments": "",
                        "name": "getItem",
                        "returnParams": [
                            {
                                "name": "",
                                "type": "uint256",
                                "value": "1,000,000,000,000,000,000,000"
                            }
                        ],
                        "signature": "getItem(uint256)"
                    },
                    "errorInfo": "",
                    "fromAddress": "0x34c8d54ca5a417d5afd93f230e3f146f91e5db7a",
                    "gasUsed": 4875,
                    "id": 10,
                    "methodDecoded": true,
                    "operation": "DELEGATECALL",
                    "output": "0x00000000000000000000000000000000000000000000003635c9adc5dea0000000000000000000000000000000000000000000000000021cb7e6164b49c1e76e",
                    "revert": false,
                    "revertMessage": "",
                    "selector": "0x3129e773",
                    "status": true,
                    "value": "0"
                },
                "nodeType": 0
            },
            "11": {
                "invocation": {
                    "address": "0x34c8d54ca5a417d5afd93f230e3f146f91e5db7a",
                    "callData": "0x0000000000000000000000000000000000000000000000000000000000000004",
                    "decodedMethod": null,
                    "errorInfo": "",
                    "fromAddress": "0xdab5d619ee0a7c7b803ae8601f6df265fb94e5ef",
                    "gasUsed": 1303,
                    "id": 11,
                    "methodDecoded": false,
                    "operation": "STATICCALL",
                    "output": "0x0000000000000000000000000000000000000000000000000000000000000001",
                    "revert": false,
                    "revertMessage": "",
                    "selector": "0x42e3da64",
                    "status": true,
                    "value": "0"
                },
                "nodeType": 0
            },
            "12": {
                "invocation": {
                    "address": "0x62a9e7423b450c8802c0f3d1f0bc0909cfcca269",
                    "callData": "0x0000000000000000000000000000000000000000000000000000000000000004",
                    "decodedMethod": null,
                    "errorInfo": "",
                    "fromAddress": "0x34c8d54ca5a417d5afd93f230e3f146f91e5db7a",
                    "gasUsed": 484,
                    "id": 12,
                    "methodDecoded": false,
                    "operation": "DELEGATECALL",
                    "output": "0x0000000000000000000000000000000000000000000000000000000000000001",
                    "revert": false,
                    "revertMessage": "",
                    "selector": "0x42e3da64",
                    "status": true,
                    "value": "0"
                },
                "nodeType": 0
            },
            "13": {
                "invocation": {
                    "address": "0x34c8d54ca5a417d5afd93f230e3f146f91e5db7a",
                    "callData": "0x00000000000000000000000000000000000000000000000000000000000000040000000000000000000000000000000000000000000000000000000000000000",
                    "decodedMethod": null,
                    "errorInfo": "",
                    "fromAddress": "0xdab5d619ee0a7c7b803ae8601f6df265fb94e5ef",
                    "gasUsed": 14949,
                    "id": 13,
                    "methodDecoded": false,
                    "operation": "CALL",
                    "output": "",
                    "revert": false,
                    "revertMessage": "",
                    "selector": "0xb87c9f89",
                    "status": true,
                    "value": "0"
                },
                "nodeType": 0
            },
            "14": {
                "invocation": {
                    "address": "0x62a9e7423b450c8802c0f3d1f0bc0909cfcca269",
                    "callData": "0x00000000000000000000000000000000000000000000000000000000000000040000000000000000000000000000000000000000000000000000000000000000",
                    "decodedMethod": null,
                    "errorInfo": "",
                    "fromAddress": "0x34c8d54ca5a417d5afd93f230e3f146f91e5db7a",
                    "gasUsed": 14130,
                    "id": 14,
                    "methodDecoded": false,
                    "operation": "DELEGATECALL",
                    "output": "",
                    "revert": false,
                    "revertMessage": "",
                    "selector": "0xb87c9f89",
                    "status": true,
                    "value": "0"
                },
                "nodeType": 0
            },
            "15": {
                "invocation": {
                    "address": "0x34c8d54ca5a417d5afd93f230e3f146f91e5db7a",
                    "callData": "0x0000000000000000000000000000000000000000000000000000000000000004",
                    "decodedMethod": {
                        "callParams": [
                            {
                                "name": "tokenId",
                                "type": "uint256",
                                "value": "4"
                            }
                        ],
                        "constructorArguments": "",
                        "name": "getItem",
                        "returnParams": [
                            {
                                "name": "",
                                "type": "uint256",
                                "value": "1,000,000,000,000,000,000,000"
                            }
                        ],
                        "signature": "getItem(uint256)"
                    },
                    "errorInfo": "",
                    "fromAddress": "0xdab5d619ee0a7c7b803ae8601f6df265fb94e5ef",
                    "gasUsed": 1697,
                    "id": 15,
                    "methodDecoded": true,
                    "operation": "STATICCALL",
                    "output": "0x00000000000000000000000000000000000000000000003635c9adc5dea00000000000000000000000000000000000000000000000000034baf79089ea8e3910",
                    "revert": false,
                    "revertMessage": "",
                    "selector": "0x3129e773",
                    "status": true,
                    "value": "0"
                },
                "nodeType": 0
            },
            "16": {
                "invocation": {
                    "address": "0x62a9e7423b450c8802c0f3d1f0bc0909cfcca269",
                    "callData": "0x0000000000000000000000000000000000000000000000000000000000000004",
                    "decodedMethod": {
                        "callParams": [
                            {
                                "name": "tokenId",
                                "type": "uint256",
                                "value": "4"
                            }
                        ],
                        "constructorArguments": "",
                        "name": "getItem",
                        "returnParams": [
                            {
                                "name": "",
                                "type": "uint256",
                                "value": "1,000,000,000,000,000,000,000"
                            }
                        ],
                        "signature": "getItem(uint256)"
                    },
                    "errorInfo": "",
                    "fromAddress": "0x34c8d54ca5a417d5afd93f230e3f146f91e5db7a",
                    "gasUsed": 875,
                    "id": 16,
                    "methodDecoded": true,
                    "operation": "DELEGATECALL",
                    "output": "0x00000000000000000000000000000000000000000000003635c9adc5dea00000000000000000000000000000000000000000000000000034baf79089ea8e3910",
                    "revert": false,
                    "revertMessage": "",
                    "selector": "0x3129e773",
                    "status": true,
                    "value": "0"
                },
                "nodeType": 0
            },
            "17": {
                "invocation": {
                    "address": "0x34c8d54ca5a417d5afd93f230e3f146f91e5db7a",
                    "callData": "0x00000000000000000000000000000000000000000000000000000000000000040000000000000000000000000000000000000000000000000000000000000000",
                    "decodedMethod": null,
                    "errorInfo": "",
                    "fromAddress": "0xdab5d619ee0a7c7b803ae8601f6df265fb94e5ef",
                    "gasUsed": 19514,
                    "id": 17,
                    "methodDecoded": false,
                    "operation": "CALL",
                    "output": "",
                    "revert": false,
                    "revertMessage": "",
                    "selector": "0xb87c9f89",
                    "status": true,
                    "value": "0"
                },
                "nodeType": 0
            },
            "18": {
                "invocation": {
                    "address": "0x62a9e7423b450c8802c0f3d1f0bc0909cfcca269",
                    "callData": "0x00000000000000000000000000000000000000000000000000000000000000040000000000000000000000000000000000000000000000000000000000000000",
                    "decodedMethod": null,
                    "errorInfo": "",
                    "fromAddress": "0x34c8d54ca5a417d5afd93f230e3f146f91e5db7a",
                    "gasUsed": 18695,
                    "id": 18,
                    "methodDecoded": false,
                    "operation": "DELEGATECALL",
                    "output": "",
                    "revert": false,
                    "revertMessage": "",
                    "selector": "0xb87c9f89",
                    "status": true,
                    "value": "0"
                },
                "nodeType": 0
            },
            "19": {
                "invocation": {
                    "address": "0x34c8d54ca5a417d5afd93f230e3f146f91e5db7a",
                    "callData": "0x0000000000000000000000000000000000000000000000000000000000000004",
                    "decodedMethod": {
                        "callParams": [
                            {
                                "name": "tokenId",
                                "type": "uint256",
                                "value": "4"
                            }
                        ],
                        "constructorArguments": "",
                        "name": "getItem",
                        "returnParams": [
                            {
                                "name": "",
                                "type": "uint256",
                                "value": "1,000,000,000,000,000,000,000"
                            }
                        ],
                        "signature": "getItem(uint256)"
                    },
                    "errorInfo": "",
                    "fromAddress": "0xdab5d619ee0a7c7b803ae8601f6df265fb94e5ef",
                    "gasUsed": 1697,
                    "id": 19,
                    "methodDecoded": true,
                    "operation": "STATICCALL",
                    "output": "0x00000000000000000000000000000000000000000000003635c9adc5dea000000000000000000000000000000000000000000000000001466f68de6e4a92e6b5",
                    "revert": false,
                    "revertMessage": "",
                    "selector": "0x3129e773",
                    "status": true,
                    "value": "0"
                },
                "nodeType": 0
            },
            "2": {
                "invocation": {
                    "address": "0x34c8d54ca5a417d5afd93f230e3f146f91e5db7a",
                    "callData": "0x",
                    "decodedMethod": {
                        "callParams": [],
                        "constructorArguments": "",
                        "name": "getTokens",
                        "returnParams": [],
                        "signature": "getTokens()"
                    },
                    "errorInfo": "",
                    "fromAddress": "0xdab5d619ee0a7c7b803ae8601f6df265fb94e5ef",
                    "gasUsed": 16070,
                    "id": 2,
                    "methodDecoded": true,
                    "operation": "STATICCALL",
                    "output": "0x00000000000000000000000085afc9021403571ffc292f28cbe9c12b6a76d69e000000000000000000000000a6287cb4b347c60792db0704a1854f8d9f5da2b7000000000000000000000000e8a3bf796ca5a13283ec6b1c5b645b91d7cfef5d000000000000000000000000e8a3bf796ca5a13283ec6b1c5b645b91d7cfef5d",
                    "revert": false,
                    "revertMessage": "",
                    "selector": "0xaa6ca808",
                    "status": true,
                    "value": "0"
                },
                "nodeType": 0
            },
            "20": {
                "invocation": {
                    "address": "0x62a9e7423b450c8802c0f3d1f0bc0909cfcca269",
                    "callData": "0x0000000000000000000000000000000000000000000000000000000000000004",
                    "decodedMethod": {
                        "callParams": [
                            {
                                "name": "tokenId",
                                "type": "uint256",
                                "value": "4"
                            }
                        ],
                        "constructorArguments": "",
                        "name": "getItem",
                        "returnParams": [
                            {
                                "name": "",
                                "type": "uint256",
                                "value": "1,000,000,000,000,000,000,000"
                            }
                        ],
                        "signature": "getItem(uint256)"
                    },
                    "errorInfo": "",
                    "fromAddress": "0x34c8d54ca5a417d5afd93f230e3f146f91e5db7a",
                    "gasUsed": 875,
                    "id": 20,
                    "methodDecoded": true,
                    "operation": "DELEGATECALL",
                    "output": "0x00000000000000000000000000000000000000000000003635c9adc5dea000000000000000000000000000000000000000000000000001466f68de6e4a92e6b5",
                    "revert": false,
                    "revertMessage": "",
                    "selector": "0x3129e773",
                    "status": true,
                    "value": "0"
                },
                "nodeType": 0
            },
            "21": {
                "invocation": {
                    "address": "0x34c8d54ca5a417d5afd93f230e3f146f91e5db7a",
                    "callData": "0x00000000000000000000000000000000000000000000000000000000000000040000000000000000000000000000000000000000000000000000000000000000",
                    "decodedMethod": null,
                    "errorInfo": "",
                    "fromAddress": "0xdab5d619ee0a7c7b803ae8601f6df265fb94e5ef",
                    "gasUsed": 7514,
                    "id": 21,
                    "methodDecoded": false,
                    "operation": "CALL",
                    "output": "",
                    "revert": false,
                    "revertMessage": "",
                    "selector": "0xb87c9f89",
                    "status": true,
                    "value": "0"
                },
                "nodeType": 0
            },
            "22": {
                "invocation": {
                    "address": "0x62a9e7423b450c8802c0f3d1f0bc0909cfcca269",
                    "callData": "0x00000000000000000000000000000000000000000000000000000000000000040000000000000000000000000000000000000000000000000000000000000000",
                    "decodedMethod": null,
                    "errorInfo": "",
                    "fromAddress": "0x34c8d54ca5a417d5afd93f230e3f146f91e5db7a",
                    "gasUsed": 6695,
                    "id": 22,
                    "methodDecoded": false,
                    "operation": "DELEGATECALL",
                    "output": "",
                    "revert": false,
                    "revertMessage": "",
                    "selector": "0xb87c9f89",
                    "status": true,
                    "value": "0"
                },
                "nodeType": 0
            },
            "23": {
                "invocation": {
                    "address": "0x34c8d54ca5a417d5afd93f230e3f146f91e5db7a",
                    "callData": "0x0000000000000000000000000000000000000000000000000000000000000004",
                    "decodedMethod": {
                        "callParams": [
                            {
                                "name": "tokenId",
                                "type": "uint256",
                                "value": "4"
                            }
                        ],
                        "constructorArguments": "",
                        "name": "getItem",
                        "returnParams": [
                            {
                                "name": "",
                                "type": "uint256",
                                "value": "1,000,000,000,000,000,000,000"
                            }
                        ],
                        "signature": "getItem(uint256)"
                    },
                    "errorInfo": "",
                    "fromAddress": "0xdab5d619ee0a7c7b803ae8601f6df265fb94e5ef",
                    "gasUsed": 1697,
                    "id": 23,
                    "methodDecoded": true,
                    "operation": "STATICCALL",
                    "output": "0x00000000000000000000000000000000000000000000003635c9adc5dea00000000000000000000000000000000000000000000000000144381cee0a81538e45",
                    "revert": false,
                    "revertMessage": "",
                    "selector": "0x3129e773",
                    "status": true,
                    "value": "0"
                },
                "nodeType": 0
            },
            "24": {
                "invocation": {
                    "address": "0x62a9e7423b450c8802c0f3d1f0bc0909cfcca269",
                    "callData": "0x0000000000000000000000000000000000000000000000000000000000000004",
                    "decodedMethod": {
                        "callParams": [
                            {
                                "name": "tokenId",
                                "type": "uint256",
                                "value": "4"
                            }
                        ],
                        "constructorArguments": "",
                        "name": "getItem",
                        "returnParams": [
                            {
                                "name": "",
                                "type": "uint256",
                                "value": "1,000,000,000,000,000,000,000"
                            }
                        ],
                        "signature": "getItem(uint256)"
                    },
                    "errorInfo": "",
                    "fromAddress": "0x34c8d54ca5a417d5afd93f230e3f146f91e5db7a",
                    "gasUsed": 875,
                    "id": 24,
                    "methodDecoded": true,
                    "operation": "DELEGATECALL",
                    "output": "0x00000000000000000000000000000000000000000000003635c9adc5dea00000000000000000000000000000000000000000000000000144381cee0a81538e45",
                    "revert": false,
                    "revertMessage": "",
                    "selector": "0x3129e773",
                    "status": true,
                    "value": "0"
                },
                "nodeType": 0
            },
            "25": {
                "invocation": {
                    "address": "0xe8a3bf796ca5a13283ec6b1c5b645b91d7cfef5d",
                    "callData": "0x000000000000000000000000b836d345fb83688dd6868ff8c75ecc67cfc9cee00000000000000000000000002ddbac948bdb462ece61be80d13f484016cc13120000000000000000000000000000000000000000000000a2a15d09519be00000",
                    "decodedMethod": {
                        "callParams": [
                            {
                                "name": "from",
                                "type": "address",
                                "value": "0xb836d345fb83688dd6868ff8c75ecc67cfc9cee0"
                            },
                            {
                                "name": "to",
                                "type": "address",
                                "value": "0x2ddbac948bdb462ece61be80d13f484016cc1312"
                            },
                            {
                                "decimalAvailable": true,
                                "name": "amount",
                                "type": "uint256",
                                "value": "3,000,000,000,000,000,000,000"
                            }
                        ],
                        "constructorArguments": "",
                        "name": "transferFrom",
                        "returnParams": [
                            {
                                "name": "",
                                "type": "bool",
                                "value": true
                            }
                        ],
                        "signature": "transferFrom(address,address,uint256)"
                    },
                    "errorInfo": "",
                    "fromAddress": "0xdab5d619ee0a7c7b803ae8601f6df265fb94e5ef",
                    "gasUsed": 15527,
                    "id": 25,
                    "methodDecoded": true,
                    "operation": "CALL",
                    "output": "0x0000000000000000000000000000000000000000000000000000000000000001",
                    "revert": false,
                    "revertMessage": "",
                    "selector": "0x23b872dd",
                    "status": true,
                    "value": "0"
                },
                "nodeType": 0
            },
            "26": {
                "event": {
                    "contract": "0xe8a3bf796ca5a13283ec6b1c5b645b91d7cfef5d",
                    "decodedLog": {
                        "name": "Transfer",
                        "params": [
                            {
                                "name": "from",
                                "type": "address",
                                "value": "0xb836d345fb83688dd6868ff8c75ecc67cfc9cee0"
                            },
                            {
                                "name": "to",
                                "type": "address",
                                "value": "0x2ddbac948bdb462ece61be80d13f484016cc1312"
                            },
                            {
                                "decimalAvailable": true,
                                "name": "value",
                                "type": "uint256",
                                "value": "3,000,000,000,000,000,000,000"
                            }
                        ],
                        "signature": "Transfer(address,address,uint256)"
                    },
                    "id": 26,
                    "logData": "0x0000000000000000000000000000000000000000000000a2a15d09519be00000",
                    "logDecoded": true,
                    "operation": "EVENT",
                    "revert": false,
                    "status": true,
                    "topics": [
                        "0xddf252ad1be2c89b69c2b068fc378daa952ba7f163c4a11628f55a4df523b3ef",
                        "0x000000000000000000000000b836d345fb83688dd6868ff8c75ecc67cfc9cee0",
                        "0x0000000000000000000000002ddbac948bdb462ece61be80d13f484016cc1312"
                    ]
                },
                "nodeType": 1
            },
            "27": {
                "invocation": {
                    "address": "0x34c8d54ca5a417d5afd93f230e3f146f91e5db7a",
                    "callData": "0x000000000000000000000000000000000000000000000000000000000000000c0000000000000000000000000000000000000000000bd69d3d73861598e6e10d00000000000000000000000000000000000000000000000000000000643523b7000000000000000000000000000000000000000000000000000000000000009f000000000000000000000000b836d345fb83688dd6868ff8c75ecc67cfc9cee0",
                    "decodedMethod": null,
                    "errorInfo": "",
                    "fromAddress": "0xdab5d619ee0a7c7b803ae8601f6df265fb94e5ef",
                    "gasUsed": 20767,
                    "id": 27,
                    "methodDecoded": false,
                    "operation": "CALL",
                    "output": "",
                    "revert": false,
                    "revertMessage": "",
                    "selector": "0x84a95e89",
                    "status": true,
                    "value": "0"
                },
                "nodeType": 0
            },
            "28": {
                "invocation": {
                    "address": "0x62a9e7423b450c8802c0f3d1f0bc0909cfcca269",
                    "callData": "0x000000000000000000000000000000000000000000000000000000000000000c0000000000000000000000000000000000000000000bd69d3d73861598e6e10d00000000000000000000000000000000000000000000000000000000643523b7000000000000000000000000000000000000000000000000000000000000009f000000000000000000000000b836d345fb83688dd6868ff8c75ecc67cfc9cee0",
                    "decodedMethod": null,
                    "errorInfo": "",
                    "fromAddress": "0x34c8d54ca5a417d5afd93f230e3f146f91e5db7a",
                    "gasUsed": 19930,
                    "id": 28,
                    "methodDecoded": false,
                    "operation": "DELEGATECALL",
                    "output": "",
                    "revert": false,
                    "revertMessage": "",
                    "selector": "0x84a95e89",
                    "status": true,
                    "value": "0"
                },
                "nodeType": 0
            },
            "29": {
                "event": {
                    "contract": "0x34c8d54ca5a417d5afd93f230e3f146f91e5db7a",
                    "decodedLog": null,
                    "id": 29,
                    "logData": "0x0000000000000000000000000000000000000000000bd69d3d73861598e6e10d00000000000000000000000000000000000000000000000000000000643523b7",
                    "logDecoded": false,
                    "operation": "EVENT",
                    "revert": false,
                    "status": true,
                    "topics": [
                        "0xc8d4c13547eb0b1fd67278b537e42026c6bd42690f374edd41ef02c12b2b5cb1",
                        "0x000000000000000000000000000000000000000000000000000000000000009f",
                        "0x000000000000000000000000000000000000000000000000000000000000000c",
                        "0x000000000000000000000000b836d345fb83688dd6868ff8c75ecc67cfc9cee0"
                    ]
                },
                "nodeType": 1
            },
            "3": {
                "invocation": {
                    "address": "0x62a9e7423b450c8802c0f3d1f0bc0909cfcca269",
                    "callData": "0x",
                    "decodedMethod": {
                        "callParams": [],
                        "constructorArguments": "",
                        "name": "getTokens",
                        "returnParams": [],
                        "signature": "getTokens()"
                    },
                    "errorInfo": "",
                    "fromAddress": "0x34c8d54ca5a417d5afd93f230e3f146f91e5db7a",
                    "gasUsed": 8742,
                    "id": 3,
                    "methodDecoded": true,
                    "operation": "DELEGATECALL",
                    "output": "0x00000000000000000000000085afc9021403571ffc292f28cbe9c12b6a76d69e000000000000000000000000a6287cb4b347c60792db0704a1854f8d9f5da2b7000000000000000000000000e8a3bf796ca5a13283ec6b1c5b645b91d7cfef5d000000000000000000000000e8a3bf796ca5a13283ec6b1c5b645b91d7cfef5d",
                    "revert": false,
                    "revertMessage": "",
                    "selector": "0xaa6ca808",
                    "status": true,
                    "value": "0"
                },
                "nodeType": 0
            },
            "30": {
                "event": {
                    "contract": "0xdab5d619ee0a7c7b803ae8601f6df265fb94e5ef",
                    "decodedLog": null,
                    "id": 30,
                    "logData": "0x000000000000000000000000000000000000000000000000000000000000009f000000000000000000000000b836d345fb83688dd6868ff8c75ecc67cfc9cee00000000000000000000000000000000000000000000000a2a15d09519be000000000000000000000000000000000000000000000000112c278f8550f4593fbe800000000000000000000000000000000000000000000000000000000000000a0000000000000000000000000000000000000000000000000000000000000000300000000000000000000000000000000000000000000149908b475df9f8e4a40000000000000000000000000000000000000000000007f8384f6e31521621eb4000000000000000000000000000000000000000000007ea5eb4cfc1a84a392f4",
                    "logDecoded": false,
                    "operation": "EVENT",
                    "revert": false,
                    "status": true,
                    "topics": [
                        "0xd14f7fd5e79a1b5a86cdae057713ce5b1b591013280e8a4825e9ace976dfc4ac"
                    ]
                },
                "nodeType": 1
            },
            "4": {
                "invocation": {
                    "address": "0x85afc9021403571ffc292f28cbe9c12b6a76d69e",
                    "callData": "0x000000000000000000000000000000000000000000000000000000000000009f",
                    "decodedMethod": {
                        "callParams": [
                            {
                                "name": "tokenId",
                                "type": "uint256",
                                "value": "159"
                            }
                        ],
                        "constructorArguments": "",
                        "name": "ownerOf",
                        "returnParams": [
                            {
                                "name": "",
                                "type": "address",
                                "value": "0xb836d345fb83688dd6868ff8c75ecc67cfc9cee0"
                            }
                        ],
                        "signature": "ownerOf(uint256)"
                    },
                    "errorInfo": "",
                    "fromAddress": "0xdab5d619ee0a7c7b803ae8601f6df265fb94e5ef",
                    "gasUsed": 2646,
                    "id": 4,
                    "methodDecoded": true,
                    "operation": "STATICCALL",
                    "output": "0x000000000000000000000000b836d345fb83688dd6868ff8c75ecc67cfc9cee0",
                    "revert": false,
                    "revertMessage": "",
                    "selector": "0x6352211e",
                    "status": true,
                    "value": "0"
                },
                "nodeType": 0
            },
            "5": {
                "invocation": {
                    "address": "0xa6287cb4b347c60792db0704a1854f8d9f5da2b7",
                    "callData": "0x000000000000000000000000b836d345fb83688dd6868ff8c75ecc67cfc9cee00000000000000000000000000000000000000000000000000000000000000004",
                    "decodedMethod": {
                        "callParams": [
                            {
                                "name": "account",
                                "type": "address",
                                "value": "0xb836d345fb83688dd6868ff8c75ecc67cfc9cee0"
                            },
                            {
                                "name": "id",
                                "type": "uint256",
                                "value": "4"
                            }
                        ],
                        "constructorArguments": "",
                        "name": "balanceOf",
                        "returnParams": [
                            {
                                "name": "",
                                "type": "uint256",
                                "value": "0"
                            }
                        ],
                        "signature": "balanceOf(address,uint256)"
                    },
                    "errorInfo": "",
                    "fromAddress": "0xdab5d619ee0a7c7b803ae8601f6df265fb94e5ef",
                    "gasUsed": 2726,
                    "id": 5,
                    "methodDecoded": true,
                    "operation": "STATICCALL",
                    "output": "0x0000000000000000000000000000000000000000000000000000000000000000",
                    "revert": false,
                    "revertMessage": "",
                    "selector": "0x00fdd58e",
                    "status": true,
                    "value": "0"
                },
                "nodeType": 0
            },
            "6": {
                "invocation": {
                    "address": "0xe8a3bf796ca5a13283ec6b1c5b645b91d7cfef5d",
                    "callData": "0x000000000000000000000000b836d345fb83688dd6868ff8c75ecc67cfc9cee0",
                    "decodedMethod": {
                        "callParams": [
                            {
                                "name": "account",
                                "type": "address",
                                "value": "0xb836d345fb83688dd6868ff8c75ecc67cfc9cee0"
                            }
                        ],
                        "constructorArguments": "",
                        "name": "balanceOf",
                        "returnParams": [
                            {
                                "decimalAvailable": true,
                                "name": "",
                                "type": "uint256",
                                "value": "3,807,760,314,564,588,629,376"
                            }
                        ],
                        "signature": "balanceOf(address)"
                    },
                    "errorInfo": "",
                    "fromAddress": "0xdab5d619ee0a7c7b803ae8601f6df265fb94e5ef",
                    "gasUsed": 2648,
                    "id": 6,
                    "methodDecoded": true,
                    "operation": "STATICCALL",
                    "output": "0x0000000000000000000000000000000000000000000000ce6b4a27b7bbf86d80",
                    "revert": false,
                    "revertMessage": "",
                    "selector": "0x70a08231",
                    "status": true,
                    "value": "0"
                },
                "nodeType": 0
            },
            "7": {
                "invocation": {
                    "address": "0x34c8d54ca5a417d5afd93f230e3f146f91e5db7a",
                    "callData": "0x000000000000000000000000000000000000000000000000000000000000009f",
                    "decodedMethod": {
                        "callParams": [
                            {
                                "name": "roleId",
                                "type": "uint256",
                                "value": "159"
                            }
                        ],
                        "constructorArguments": "",
                        "name": "getMember",
                        "returnParams": [
                            {
                                "name": "",
                                "type": "address",
                                "value": "0x00000000000000000016f547e4e322c62407b088"
                            }
                        ],
                        "signature": "getMember(uint256)"
                    },
                    "errorInfo": "",
                    "fromAddress": "0xdab5d619ee0a7c7b803ae8601f6df265fb94e5ef",
                    "gasUsed": 28996,
                    "id": 7,
                    "methodDecoded": true,
                    "operation": "STATICCALL",
                    "output": "0x00000000000000000000000000000000000000000016f547e4e322c62407b088000000000000000000000000000000000000000000000000000000000000000c0000000000000000000000000000000000000000000ac3dac47b31065352e52500000000000000000000000000000000000000000000000000000000643523b7",
                    "revert": false,
                    "revertMessage": "",
                    "selector": "0xab3545e5",
                    "status": true,
                    "value": "0"
                },
                "nodeType": 0
            },
            "8": {
                "invocation": {
                    "address": "0x62a9e7423b450c8802c0f3d1f0bc0909cfcca269",
                    "callData": "0x000000000000000000000000000000000000000000000000000000000000009f",
                    "decodedMethod": {
                        "callParams": [
                            {
                                "name": "roleId",
                                "type": "uint256",
                                "value": "159"
                            }
                        ],
                        "constructorArguments": "",
                        "name": "getMember",
                        "returnParams": [
                            {
                                "name": "",
                                "type": "address",
                                "value": "0x00000000000000000016f547e4e322c62407b088"
                            }
                        ],
                        "signature": "getMember(uint256)"
                    },
                    "errorInfo": "",
                    "fromAddress": "0x34c8d54ca5a417d5afd93f230e3f146f91e5db7a",
                    "gasUsed": 28165,
                    "id": 8,
                    "methodDecoded": true,
                    "operation": "DELEGATECALL",
                    "output": "0x00000000000000000000000000000000000000000016f547e4e322c62407b088000000000000000000000000000000000000000000000000000000000000000c0000000000000000000000000000000000000000000ac3dac47b31065352e52500000000000000000000000000000000000000000000000000000000643523b7",
                    "revert": false,
                    "revertMessage": "",
                    "selector": "0xab3545e5",
                    "status": true,
                    "value": "0"
                },
                "nodeType": 0
            },
            "9": {
                "invocation": {
                    "address": "0x34c8d54ca5a417d5afd93f230e3f146f91e5db7a",
                    "callData": "0x0000000000000000000000000000000000000000000000000000000000000004",
                    "decodedMethod": {
                        "callParams": [
                            {
                                "name": "tokenId",
                                "type": "uint256",
                                "value": "4"
                            }
                        ],
                        "constructorArguments": "",
                        "name": "getItem",
                        "returnParams": [
                            {
                                "name": "",
                                "type": "uint256",
                                "value": "1,000,000,000,000,000,000,000"
                            }
                        ],
                        "signature": "getItem(uint256)"
                    },
                    "errorInfo": "",
                    "fromAddress": "0xdab5d619ee0a7c7b803ae8601f6df265fb94e5ef",
                    "gasUsed": 5697,
                    "id": 9,
                    "methodDecoded": true,
                    "operation": "STATICCALL",
                    "output": "0x00000000000000000000000000000000000000000000003635c9adc5dea0000000000000000000000000000000000000000000000000021cb7e6164b49c1e76e",
                    "revert": false,
                    "revertMessage": "",
                    "selector": "0x3129e773",
                    "status": true,
                    "value": "0"
                },
                "nodeType": 0
            }
        },
        "gasFlame": [
            {
                "children": [
                    {
                        "children": [
                            {
                                "children": [],
                                "depth": 0,
                                "name": "Initial Gas",
                                "value": 21684
                            },
                            {
                                "children": [
                                    {
                                        "children": [
                                            {
                                                "children": [
                                                    {
                                                        "children": [],
                                                        "depth": 3,
                                                        "name": "getTokens",
                                                        "value": 8742
                                                    }
                                                ],
                                                "depth": 2,
                                                "name": "getTokens",
                                                "value": 16070
                                            },
                                            {
                                                "children": [],
                                                "depth": 2,
                                                "name": "ownerOf",
                                                "value": 2646
                                            },
                                            {
                                                "children": [],
                                                "depth": 2,
                                                "name": "balanceOf",
                                                "value": 2726
                                            },
                                            {
                                                "children": [],
                                                "depth": 2,
                                                "name": "balanceOf",
                                                "value": 2648
                                            },
                                            {
                                                "children": [
                                                    {
                                                        "children": [],
                                                        "depth": 3,
                                                        "name": "getMember",
                                                        "value": 28165
                                                    }
                                                ],
                                                "depth": 2,
                                                "name": "getMember",
                                                "value": 28996
                                            },
                                            {
                                                "children": [
                                                    {
                                                        "children": [],
                                                        "depth": 3,
                                                        "name": "getItem",
                                                        "value": 4875
                                                    }
                                                ],
                                                "depth": 2,
                                                "name": "getItem",
                                                "value": 5697
                                            },
                                            {
                                                "children": [
                                                    {
                                                        "children": [],
                                                        "depth": 3,
                                                        "name": "0x42e3da64",
                                                        "value": 484
                                                    }
                                                ],
                                                "depth": 2,
                                                "name": "0x42e3da64",
                                                "value": 1303
                                            },
                                            {
                                                "children": [
                                                    {
                                                        "children": [],
                                                        "depth": 3,
                                                        "name": "0xb87c9f89",
                                                        "value": 14130
                                                    }
                                                ],
                                                "depth": 2,
                                                "name": "0xb87c9f89",
                                                "value": 14949
                                            },
                                            {
                                                "children": [
                                                    {
                                                        "children": [],
                                                        "depth": 3,
                                                        "name": "getItem",
                                                        "value": 875
                                                    }
                                                ],
                                                "depth": 2,
                                                "name": "getItem",
                                                "value": 1697
                                            },
                                            {
                                                "children": [
                                                    {
                                                        "children": [],
                                                        "depth": 3,
                                                        "name": "0xb87c9f89",
                                                        "value": 18695
                                                    }
                                                ],
                                                "depth": 2,
                                                "name": "0xb87c9f89",
                                                "value": 19514
                                            },
                                            {
                                                "children": [
                                                    {
                                                        "children": [],
                                                        "depth": 3,
                                                        "name": "getItem",
                                                        "value": 875
                                                    }
                                                ],
                                                "depth": 2,
                                                "name": "getItem",
                                                "value": 1697
                                            },
                                            {
                                                "children": [
                                                    {
                                                        "children": [],
                                                        "depth": 3,
                                                        "name": "0xb87c9f89",
                                                        "value": 6695
                                                    }
                                                ],
                                                "depth": 2,
                                                "name": "0xb87c9f89",
                                                "value": 7514
                                            },
                                            {
                                                "children": [
                                                    {
                                                        "children": [],
                                                        "depth": 3,
                                                        "name": "getItem",
                                                        "value": 875
                                                    }
                                                ],
                                                "depth": 2,
                                                "name": "getItem",
                                                "value": 1697
                                            },
                                            {
                                                "children": [],
                                                "depth": 2,
                                                "name": "transferFrom",
                                                "value": 15527
                                            },
                                            {
                                                "children": [
                                                    {
                                                        "children": [],
                                                        "depth": 3,
                                                        "name": "0x84a95e89",
                                                        "value": 19930
                                                    }
                                                ],
                                                "depth": 2,
                                                "name": "0x84a95e89",
                                                "value": 20767
                                            }
                                        ],
                                        "depth": 1,
                                        "name": "0x5d913c88",
                                        "value": 176306
                                    }
                                ],
                                "depth": 0,
                                "name": "Executed Gas",
                                "value": 183637
                            }
                        ],
                        "depth": -1,
                        "name": "Actual Gas Used",
                        "value": 205321
                    },
                    {
                        "children": [],
                        "depth": -1,
                        "name": "Refunded Gas",
                        "value": 0
                    }
                ],
                "depth": -2,
                "name": "Total Gas",
                "value": 205321
            }
        ],
        "isConfirmed": true,
        "mainTrace": [
            {
                "children": [
                    {
                        "children": [
                            {
                                "children": [
                                    {
                                        "children": [
                                            {
                                                "children": [],
                                                "depth": 3,
                                                "id": 3,
                                                "order": 3
                                            }
                                        ],
                                        "depth": 2,
                                        "id": 2,
                                        "order": 2
                                    },
                                    {
                                        "children": [],
                                        "depth": 2,
                                        "id": 4,
                                        "order": 4
                                    },
                                    {
                                        "children": [],
                                        "depth": 2,
                                        "id": 5,
                                        "order": 5
                                    },
                                    {
                                        "children": [],
                                        "depth": 2,
                                        "id": 6,
                                        "order": 6
                                    },
                                    {
                                        "children": [
                                            {
                                                "children": [],
                                                "depth": 3,
                                                "id": 8,
                                                "order": 8
                                            }
                                        ],
                                        "depth": 2,
                                        "id": 7,
                                        "order": 7
                                    },
                                    {
                                        "children": [
                                            {
                                                "children": [],
                                                "depth": 3,
                                                "id": 10,
                                                "order": 10
                                            }
                                        ],
                                        "depth": 2,
                                        "id": 9,
                                        "order": 9
                                    },
                                    {
                                        "children": [
                                            {
                                                "children": [],
                                                "depth": 3,
                                                "id": 12,
                                                "order": 12
                                            }
                                        ],
                                        "depth": 2,
                                        "id": 11,
                                        "order": 11
                                    },
                                    {
                                        "children": [
                                            {
                                                "children": [],
                                                "depth": 3,
                                                "id": 14,
                                                "order": 14
                                            }
                                        ],
                                        "depth": 2,
                                        "id": 13,
                                        "order": 13
                                    },
                                    {
                                        "children": [
                                            {
                                                "children": [],
                                                "depth": 3,
                                                "id": 16,
                                                "order": 16
                                            }
                                        ],
                                        "depth": 2,
                                        "id": 15,
                                        "order": 15
                                    },
                                    {
                                        "children": [
                                            {
                                                "children": [],
                                                "depth": 3,
                                                "id": 18,
                                                "order": 18
                                            }
                                        ],
                                        "depth": 2,
                                        "id": 17,
                                        "order": 17
                                    },
                                    {
                                        "children": [
                                            {
                                                "children": [],
                                                "depth": 3,
                                                "id": 20,
                                                "order": 20
                                            }
                                        ],
                                        "depth": 2,
                                        "id": 19,
                                        "order": 19
                                    },
                                    {
                                        "children": [
                                            {
                                                "children": [],
                                                "depth": 3,
                                                "id": 22,
                                                "order": 22
                                            }
                                        ],
                                        "depth": 2,
                                        "id": 21,
                                        "order": 21
                                    },
                                    {
                                        "children": [
                                            {
                                                "children": [],
                                                "depth": 3,
                                                "id": 24,
                                                "order": 24
                                            }
                                        ],
                                        "depth": 2,
                                        "id": 23,
                                        "order": 23
                                    },
                                    {
                                        "children": [
                                            {
                                                "children": [],
                                                "depth": 3,
                                                "id": 26,
                                                "order": 26
                                            }
                                        ],
                                        "depth": 2,
                                        "id": 25,
                                        "order": 25
                                    },
                                    {
                                        "children": [
                                            {
                                                "children": [
                                                    {
                                                        "children": [],
                                                        "depth": 4,
                                                        "id": 29,
                                                        "order": 29
                                                    }
                                                ],
                                                "depth": 3,
                                                "id": 28,
                                                "order": 28
                                            }
                                        ],
                                        "depth": 2,
                                        "id": 27,
                                        "order": 27
                                    },
                                    {
                                        "children": [],
                                        "depth": 2,
                                        "id": 30,
                                        "order": 30
                                    }
                                ],
                                "depth": 1,
                                "id": 1,
                                "order": 1
                            }
                        ],
                        "depth": 0,
                        "id": 0,
                        "order": 0
                    }
                ],
                "depth": -1,
                "id": -1,
                "order": -1
            }
        ],
        "mainTraceNodeCount": 31,
        "parentIdMap": {
            "0": -1,
            "1": 0,
            "10": 9,
            "11": 1,
            "12": 11,
            "13": 1,
            "14": 13,
            "15": 1,
            "16": 15,
            "17": 1,
            "18": 17,
            "19": 1,
            "2": 1,
            "20": 19,
            "21": 1,
            "22": 21,
            "23": 1,
            "24": 23,
            "25": 1,
            "26": 25,
            "27": 1,
            "28": 27,
            "29": 28,
            "3": 2,
            "30": 1,
            "4": 1,
            "5": 1,
            "6": 1,
            "7": 1,
            "8": 7,
            "9": 1
        },
        "tidyTrace": [
            {
                "children": [
                    {
                        "children": [
                            {
                                "children": [
                                    {
                                        "children": [
                                            {
                                                "children": [],
                                                "depth": 3,
                                                "id": 14,
                                                "order": 14
                                            }
                                        ],
                                        "depth": 2,
                                        "id": 13,
                                        "order": 13
                                    },
                                    {
                                        "children": [
                                            {
                                                "children": [],
                                                "depth": 3,
                                                "id": 18,
                                                "order": 18
                                            }
                                        ],
                                        "depth": 2,
                                        "id": 17,
                                        "order": 17
                                    },
                                    {
                                        "children": [
                                            {
                                                "children": [],
                                                "depth": 3,
                                                "id": 22,
                                                "order": 22
                                            }
                                        ],
                                        "depth": 2,
                                        "id": 21,
                                        "order": 21
                                    },
                                    {
                                        "children": [
                                            {
                                                "children": [],
                                                "depth": 3,
                                                "id": 26,
                                                "order": 26
                                            }
                                        ],
                                        "depth": 2,
                                        "id": 25,
                                        "order": 25
                                    },
                                    {
                                        "children": [
                                            {
                                                "children": [
                                                    {
                                                        "children": [],
                                                        "depth": 4,
                                                        "id": 29,
                                                        "order": 29
                                                    }
                                                ],
                                                "depth": 3,
                                                "id": 28,
                                                "order": 28
                                            }
                                        ],
                                        "depth": 2,
                                        "id": 27,
                                        "order": 27
                                    },
                                    {
                                        "children": [],
                                        "depth": 2,
                                        "id": 30,
                                        "order": 30
                                    }
                                ],
                                "depth": 1,
                                "id": 1,
                                "order": 1
                            }
                        ],
                        "depth": 0,
                        "id": 0,
                        "order": 0
                    }
                ],
                "depth": -1,
                "id": -1,
                "order": -1
            }
        ],
        "tidyTraceNodeCount": 14
    },
    "state_change": {
        "stateChanges": [
            {
                "address": "0x34c8d54ca5a417d5afd93f230e3f146f91e5db7a",
                "erc": "",
                "slots": [
                    {
                        "current": "0x0000000000000000000000000000000000000000000bd69d3d73861598e6e10d",
                        "key": "0x8ed0b498c92bb8ae0df3a8a336458c1abdca53a1ee055d7d11cbd8dcc2386977",
                        "prev": "0x0000000000000000000000000000000000000000000ac3dac47b31065352e525"
                    },
                    {
                        "current": "0x00000000000000000000000000000000000000000012a1e81c103a9b74c6ddc0",
                        "key": "0x000000000000000000000000000000000000000000000000000000000000009b",
                        "prev": "0x00000000000000000000000000000000000000000012a18538aa5c1f85b66680"
                    },
                    {
                        "current": "0x00000000000000000000000000000000000000000000000000000000643523e7",
                        "key": "0x000000000000000000000000000000000000000000000000000000000000009d",
                        "prev": "0x00000000000000000000000000000000000000000000000000000000643523b7"
                    },
                    {
                        "current": "0x000000000000000000000000000000000000000000000144381cee0a81538e45",
                        "key": "0x05044ec828900e2dd4926afa36ccf95636a99a34522d399aecfc948208108899",
                        "prev": "0x00000000000000000000000000000000000000000000021cb7e6164b49c1e76e"
                    }
                ],
                "storageVariables": []
            },
            {
                "address": "0xe8a3bf796ca5a13283ec6b1c5b645b91d7cfef5d",
                "erc": "ERC-20",
                "slots": [
                    {
                        "current": "0x00000000000000000000000000000000000000000000002bc9ed1e6620186d80",
                        "key": "0x6e419b909161081aed4889f77553ee766b5cfdf97e22bc5123299d4216f72fd4",
                        "prev": "0x0000000000000000000000000000000000000000000000ce6b4a27b7bbf86d80"
                    },
                    {
                        "current": "0x00000000000000000000000000000000000000000006625d5e17c868e9d456ca",
                        "key": "0xb5f321f137f6c12052c5e07ec101cb814faa654be4f8af66cb6fbeb09bcc9d29",
                        "prev": "0x0000000000000000000000000000000000000000000661babcbabf174df456ca"
                    }
                ],
                "storageVariables": [
                    {
                        "name": "_balances",
                        "type": "mapping(address => uint256)",
                        "value": {
                            "pairs": [
                                {
                                    "key": "0x2ddbac948bdb462ece61be80d13f484016cc1312",
                                    "value": {
                                        "current": "7718069160315972222211786",
                                        "prev": "7715069160315972222211786",
                                        "typeTag": 1
                                    }
                                },
                                {
                                    "key": "0xb836d345fb83688dd6868ff8c75ecc67cfc9cee0",
                                    "value": {
                                        "current": "807760314564588629376",
                                        "prev": "3807760314564588629376",
                                        "typeTag": 1
                                    }
                                }
                            ],
                            "typeTag": 4
                        }
                    }
                ]
            }
        ]
    }
}