{
    "balance_change": {
        "balanceChanges": []
    },
    "profile": {
        "basic_info": {
            "baseFee": "",
            "blockNumber": 11473487,
            "callData": "0x38ed1739000000000000000000000000000000000000000000000000120a871cc0020000000000000000000000000000000000000000000000000008e779052ebfd402f400000000000000000000000000000000000000000000000000000000000000a00000000000000000000000000127da512c57600b54c05ca120ae2820e2051779000000000000000000000000000000000000000000000000000000005fdbe61200000000000000000000000000000000000000000000000000000000000000030000000000000000000000007fc66500c84a76ad7e9c93437bfc5ac33e2ddae9000000000000000000000000c02aaa39b223fe8d0a0e5c4f27ead9083c756cc2000000000000000000000000d533a949740bb3306d119cc777fa900ba034cd52",
            "debugEnable": true,
            "errorInfo": "execution reverted",
            "eventCount": 10,
            "feeRecipient": "0x5a0b54d5dc17e0aadc383d2db43b0a0d3e029c4c",
            "formatValue": "0",
            "gasLimit": 295678,
            "gasPrice": "55",
            "gasUsed": 295202,
            "intTxnCount": 13,
            "internalRevert": true,
            "internalRevertMessage": "",
            "isContractCreation": false,
            "isFlashloan": false,
            "maxFee": "",
            "nonce": 682,
            "overwritedBlockNumber": -1,
            "priorityFee": "",
            "receiver": "0x7a250d5630b4cf539739df2c5dacb4c659f2488d",
            "revertMessage": "",
            "sender": "0x0127da512c57600b54c05ca120ae2820e2051779",
            "simulationEnable": true,
            "sourceTxnHash": "0x6625e31fd0084b5fa29887abb0116ecdc7ba1daee5f88a2b321a640e22e22231",
            "status": false,
            "timestamp": "2020-12-17T22:54:21Z",
            "transactionFee": "0.01623611",
            "txnHash": "0x6625e31fd0084b5fa29887abb0116ecdc7ba1daee5f88a2b321a640e22e22231",
            "txnIndex": 57,
            "type": 0,
            "value": "0"
        },
        "fund_flow": [],
        "token_infos": [
            {
                "address": "0x7fc66500c84a76ad7e9c93437bfc5ac33e2ddae9",
                "decimals": 18
            },
            {
                "address": "0xc02aaa39b223fe8d0a0e5c4f27ead9083c756cc2",
                "decimals": 18
            },
            {
                "address": "0xd533a949740bb3306d119cc777fa900ba034cd52",
                "decimals": 18
            },
            {
                "address": "0xeeeeeeeeeeeeeeeeeeeeeeeeeeeeeeeeeeeeeeee",
                "decimals": 18
            }
        ]
    },
    "address_label": {
        "labels": [
            {
                "address": "0xeeeeeeeeeeeeeeeeeeeeeeeeeeeeeeeeeeeeeeee",
                "label": "Ether"
            },
            {
                "address": "0xc13eac3b4f9eed480045113b7af00f7b5655ece8",
                "label": "Aave Token (AAVE)"
            },
            {
                "address": "0x7a250d5630b4cf539739df2c5dacb4c659f2488d",
                "label": "Uniswap V2: Router 2"
            },
            {
                "address": "0xc02aaa39b223fe8d0a0e5c4f27ead9083c756cc2",
                "label": "Wrapped Ether (WETH)"
            },
            {
                "address": "0xd533a949740bb3306d119cc777fa900ba034cd52",
                "label": "Curve.fi: CRV Token"
            },
            {
                "address": "0x3da1313ae46132a397d90d95b1424a9a7e3e0fce",
                "label": "Uniswap V2: CRV 6"
            },
            {
                "address": "0xdfc14d2af169b0d36c4eff567ada9b2e0cae044f",
                "label": "Aave: UNI-V2 Token"
            },
            {
                "address": "0x7fc66500c84a76ad7e9c93437bfc5ac33e2ddae9",
                "label": "Aave: AAVE Token"
            },
            {
                "address": "0x0000000000000000000000000000000000000001",
                "label": "Precompiled"
            },
            {
                "address": "0x0000000000000000000000000000000000000002",
                "label": "Precompiled"
            },
            {
                "address": "0x0000000000000000000000000000000000000003",
                "label": "Precompiled"
            },
            {
                "address": "0x0000000000000000000000000000000000000004",
                "label": "Precompiled"
            }
        ]
    },
    "trace": {
        "accountLabels": null,
        "dataMap": {
            "-1": {
                "invocation": {
                    "address": "0x0127da512c57600b54c05ca120ae2820e2051779",
                    "callData": "",
                    "decodedMethod": null,
                    "errorInfo": "",
                    "fromAddress": "",
                    "gasUsed": 0,
                    "id": -1,
                    "methodDecoded": false,
                    "operation": "",
                    "output": "",
                    "revert": false,
                    "revertMessage": "",
                    "selector": "",
                    "status": false,
                    "value": ""
                },
                "nodeType": 0
            },
            "0": {
                "invocation": {
                    "address": "0x7a250d5630b4cf539739df2c5dacb4c659f2488d",
                    "callData": "0x000000000000000000000000000000000000000000000000120a871cc0020000000000000000000000000000000000000000000000000008e779052ebfd402f400000000000000000000000000000000000000000000000000000000000000a00000000000000000000000000127da512c57600b54c05ca120ae2820e2051779000000000000000000000000000000000000000000000000000000005fdbe61200000000000000000000000000000000000000000000000000000000000000030000000000000000000000007fc66500c84a76ad7e9c93437bfc5ac33e2ddae9000000000000000000000000c02aaa39b223fe8d0a0e5c4f27ead9083c756cc2000000000000000000000000d533a949740bb3306d119cc777fa900ba034cd52",
                    "decodedMethod": {
                        "callParams": [
                            {
                                "name": "amountIn",
                                "type": "uint256",
                                "value": "1,300,000,000,000,000,000"
                            },
                            {
                                "name": "amountOutMin",
                                "type": "uint256",
                                "value": "164,253,320,982,964,732,660"
                            },
                            {
                                "name": "path",
                                "type": "address[]",
                                "value": [
                                    "0x7fc66500c84a76ad7e9c93437bfc5ac33e2ddae9",
                                    "0xc02aaa39b223fe8d0a0e5c4f27ead9083c756cc2",
                                    "0xd533a949740bb3306d119cc777fa900ba034cd52"
                                ]
                            },
                            {
                                "name": "to",
                                "type": "address",
                                "value": "0x0127da512c57600b54c05ca120ae2820e2051779"
                            },
                            {
                                "name": "deadline",
                                "type": "uint256",
                                "value": "1,608,246,802"
                            }
                        ],
                        "constructorArguments": "",
                        "name": "swapExactTokensForTokens",
                        "returnParams": [],
                        "signature": "swapExactTokensForTokens(uint256,uint256,address[],address,uint256)"
                    },
                    "errorInfo": "execution reverted",
                    "fromAddress": "0x0127da512c57600b54c05ca120ae2820e2051779",
                    "gasUsed": 295202,
                    "id": 0,
                    "methodDecoded": true,
                    "operation": "CALL",
                    "output": "",
                    "revert": true,
                    "revertMessage": "",
                    "selector": "0x38ed1739",
                    "status": false,
                    "value": "0"
                },
                "nodeType": 0
            },
            "1": {
                "invocation": {
                    "address": "0xdfc14d2af169b0d36c4eff567ada9b2e0cae044f",
                    "callData": "0x",
                    "decodedMethod": {
                        "callParams": [],
                        "constructorArguments": "",
                        "name": "getReserves",
                        "returnParams": [
                            {
                                "name": "_reserve0",
                                "type": "uint112",
                                "value": "100,976,735,781,752,539,298,178"
                            },
                            {
                                "name": "_reserve1",
                                "type": "uint112",
                                "value": "13,291,280,474,186,399,604,141"
                            },
                            {
                                "name": "_blockTimestampLast",
                                "type": "uint32",
                                "value": "1,608,245,602"
                            }
                        ],
                        "signature": "getReserves()"
                    },
                    "errorInfo": "",
                    "fromAddress": "0x7a250d5630b4cf539739df2c5dacb4c659f2488d",
                    "gasUsed": 1204,
                    "id": 1,
                    "methodDecoded": true,
                    "operation": "STATICCALL",
                    "output": "0x000000000000000000000000000000000000000000001561f5b673d42c11b9820000000000000000000000000000000000000000000002d08591f30cedcfddad000000000000000000000000000000000000000000000000000000005fdbe162",
                    "revert": true,
                    "revertMessage": "",
                    "selector": "0x0902f1ac",
                    "status": true,
                    "value": "0"
                },
                "nodeType": 0
            },
            "10": {
                "event": {
                    "contract": "0x7fc66500c84a76ad7e9c93437bfc5ac33e2ddae9",
                    "decodedLog": {
                        "name": "Approval",
                        "params": [
                            {
                                "name": "owner",
                                "type": "address",
                                "value": "0x0127da512c57600b54c05ca120ae2820e2051779"
                            },
                            {
                                "name": "spender",
                                "type": "address",
                                "value": "0x7a250d5630b4cf539739df2c5dacb4c659f2488d"
                            },
                            {
                                "decimalAvailable": true,
                                "name": "value",
                                "type": "uint256",
                                "value": "115,792,089,237,316,195,423,570,985,008,687,907,853,269,984,665,640,564,039,438,019,007,913,129,639,935"
                            }
                        ],
                        "signature": "Approval(address,address,uint256)"
                    },
                    "id": 10,
                    "logData": "0xfffffffffffffffffffffffffffffffffffffffffffffffef07b2828e97b7fff",
                    "logDecoded": true,
                    "operation": "EVENT",
                    "revert": true,
                    "status": false,
                    "topics": [
                        "0x8c5be1e5ebec7d5bd14f71427d1e84f3dd0314c0f7b2291e5b200ac8c7c3b925",
                        "0x0000000000000000000000000127da512c57600b54c05ca120ae2820e2051779",
                        "0x0000000000000000000000007a250d5630b4cf539739df2c5dacb4c659f2488d"
                    ]
                },
                "nodeType": 1
            },
            "11": {
                "invocation": {
                    "address": "0xdfc14d2af169b0d36c4eff567ada9b2e0cae044f",
                    "callData": "0x0000000000000000000000000000000000000000000000000000000000000000000000000000000000000000000000000000000000000000025e17955a8778d00000000000000000000000003da1313ae46132a397d90d95b1424a9a7e3e0fce00000000000000000000000000000000000000000000000000000000000000800000000000000000000000000000000000000000000000000000000000000000",
                    "decodedMethod": {
                        "callParams": [
                            {
                                "name": "amount0Out",
                                "type": "uint256",
                                "value": "0"
                            },
                            {
                                "name": "amount1Out",
                                "type": "uint256",
                                "value": "170,599,766,123,051,216"
                            },
                            {
                                "name": "to",
                                "type": "address",
                                "value": "0x3da1313ae46132a397d90d95b1424a9a7e3e0fce"
                            },
                            {
                                "name": "data",
                                "type": "bytes",
                                "value": "0x"
                            }
                        ],
                        "constructorArguments": "",
                        "name": "swap",
                        "returnParams": [],
                        "signature": "swap(uint256,uint256,address,bytes)"
                    },
                    "errorInfo": "",
                    "fromAddress": "0x7a250d5630b4cf539739df2c5dacb4c659f2488d",
                    "gasUsed": 59503,
                    "id": 11,
                    "methodDecoded": true,
                    "operation": "CALL",
                    "output": "",
                    "revert": true,
                    "revertMessage": "",
                    "selector": "0x022c0d9f",
                    "status": true,
                    "value": "0"
                },
                "nodeType": 0
            },
            "12": {
                "invocation": {
                    "address": "0xc02aaa39b223fe8d0a0e5c4f27ead9083c756cc2",
                    "callData": "0x0000000000000000000000003da1313ae46132a397d90d95b1424a9a7e3e0fce000000000000000000000000000000000000000000000000025e17955a8778d0",
                    "decodedMethod": {
                        "callParams": [
                            {
                                "name": "dst",
                                "type": "address",
                                "value": "0x3da1313ae46132a397d90d95b1424a9a7e3e0fce"
                            },
                            {
                                "decimalAvailable": true,
                                "name": "wad",
                                "type": "uint256",
                                "value": "170,599,766,123,051,216"
                            }
                        ],
                        "constructorArguments": "",
                        "name": "transfer",
                        "returnParams": [
                            {
                                "name": "",
                                "type": "bool",
                                "value": true
                            }
                        ],
                        "signature": "transfer(address,uint256)"
                    },
                    "errorInfo": "",
                    "fromAddress": "0xdfc14d2af169b0d36c4eff567ada9b2e0cae044f",
                    "gasUsed": 15162,
                    "id": 12,
                    "methodDecoded": true,
                    "operation": "CALL",
                    "output": "0x0000000000000000000000000000000000000000000000000000000000000001",
                    "revert": true,
                    "revertMessage": "",
                    "selector": "0xa9059cbb",
                    "status": true,
                    "value": "0"
                },
                "nodeType": 0
            },
            "13": {
                "event": {
                    "contract": "0xc02aaa39b223fe8d0a0e5c4f27ead9083c756cc2",
                    "decodedLog": {
                        "name": "Transfer",
                        "params": [
                            {
                                "name": "src",
                                "type": "address",
                                "value": "0xdfc14d2af169b0d36c4eff567ada9b2e0cae044f"
                            },
                            {
                                "name": "dst",
                                "type": "address",
                                "value": "0x3da1313ae46132a397d90d95b1424a9a7e3e0fce"
                            },
                            {
                                "decimalAvailable": true,
                                "name": "wad",
                                "type": "uint256",
                                "value": "170,599,766,123,051,216"
                            }
                        ],
                        "signature": "Transfer(address,address,uint256)"
                    },
                    "id": 13,
                    "logData": "0x000000000000000000000000000000000000000000000000025e17955a8778d0",
                    "logDecoded": true,
                    "operation": "EVENT",
                    "revert": true,
                    "status": false,
                    "topics": [
                        "0xddf252ad1be2c89b69c2b068fc378daa952ba7f163c4a11628f55a4df523b3ef",
                        "0x000000000000000000000000dfc14d2af169b0d36c4eff567ada9b2e0cae044f",
                        "0x0000000000000000000000003da1313ae46132a397d90d95b1424a9a7e3e0fce"
                    ]
                },
                "nodeType": 1
            },
            "14": {
                "invocation": {
                    "address": "0x7fc66500c84a76ad7e9c93437bfc5ac33e2ddae9",
                    "callData": "0x000000000000000000000000dfc14d2af169b0d36c4eff567ada9b2e0cae044f",
                    "decodedMethod": {
                        "callParams": [
                            {
                                "name": "account",
                                "type": "address",
                                "value": "0xdfc14d2af169b0d36c4eff567ada9b2e0cae044f"
                            }
                        ],
                        "constructorArguments": "",
                        "name": "balanceOf",
                        "returnParams": [
                            {
                                "decimalAvailable": true,
                                "name": "",
                                "type": "uint256",
                                "value": "100,978,035,781,752,539,298,178"
                            }
                        ],
                        "signature": "balanceOf(address)"
                    },
                    "errorInfo": "",
                    "fromAddress": "0xdfc14d2af169b0d36c4eff567ada9b2e0cae044f",
                    "gasUsed": 4084,
                    "id": 14,
                    "methodDecoded": true,
                    "operation": "STATICCALL",
                    "output": "0x00000000000000000000000000000000000000000000156207c0faf0ec13b982",
                    "revert": true,
                    "revertMessage": "",
                    "selector": "0x70a08231",
                    "status": true,
                    "value": "0"
                },
                "nodeType": 0
            },
            "15": {
                "invocation": {
                    "address": "0xc13eac3b4f9eed480045113b7af00f7b5655ece8",
                    "callData": "0x000000000000000000000000dfc14d2af169b0d36c4eff567ada9b2e0cae044f",
                    "decodedMethod": {
                        "callParams": [
                            {
                                "name": "account",
                                "type": "address",
                                "value": "0xdfc14d2af169b0d36c4eff567ada9b2e0cae044f"
                            }
                        ],
                        "constructorArguments": "",
                        "name": "balanceOf",
                        "returnParams": [
                            {
                                "decimalAvailable": true,
                                "name": "",
                                "type": "uint256",
                                "value": "100,978,035,781,752,539,298,178"
                            }
                        ],
                        "signature": "balanceOf(address)"
                    },
                    "errorInfo": "",
                    "fromAddress": "0x7fc66500c84a76ad7e9c93437bfc5ac33e2ddae9",
                    "gasUsed": 1349,
                    "id": 15,
                    "methodDecoded": true,
                    "operation": "DELEGATECALL",
                    "output": "0x00000000000000000000000000000000000000000000156207c0faf0ec13b982",
                    "revert": true,
                    "revertMessage": "",
                    "selector": "0x70a08231",
                    "status": true,
                    "value": "0"
                },
                "nodeType": 0
            },
            "16": {
                "invocation": {
                    "address": "0xc02aaa39b223fe8d0a0e5c4f27ead9083c756cc2",
                    "callData": "0x000000000000000000000000dfc14d2af169b0d36c4eff567ada9b2e0cae044f",
                    "decodedMethod": {
                        "callParams": [
                            {
                                "name": "",
                                "type": "address",
                                "value": "0xdfc14d2af169b0d36c4eff567ada9b2e0cae044f"
                            }
                        ],
                        "constructorArguments": "",
                        "name": "balanceOf",
                        "returnParams": [
                            {
                                "decimalAvailable": true,
                                "name": "",
                                "type": "uint256",
                                "value": "13,291,109,874,420,276,552,925"
                            }
                        ],
                        "signature": "balanceOf(address)"
                    },
                    "errorInfo": "",
                    "fromAddress": "0xdfc14d2af169b0d36c4eff567ada9b2e0cae044f",
                    "gasUsed": 1234,
                    "id": 16,
                    "methodDecoded": true,
                    "operation": "STATICCALL",
                    "output": "0x0000000000000000000000000000000000000000000002d08333db77934864dd",
                    "revert": true,
                    "revertMessage": "",
                    "selector": "0x70a08231",
                    "status": true,
                    "value": "0"
                },
                "nodeType": 0
            },
            "17": {
                "event": {
                    "contract": "0xdfc14d2af169b0d36c4eff567ada9b2e0cae044f",
                    "decodedLog": {
                        "name": "Sync",
                        "params": [
                            {
                                "name": "reserve0",
                                "type": "uint112",
                                "value": "100,978,035,781,752,539,298,178"
                            },
                            {
                                "name": "reserve1",
                                "type": "uint112",
                                "value": "13,291,109,874,420,276,552,925"
                            }
                        ],
                        "signature": "Sync(uint112,uint112)"
                    },
                    "id": 17,
                    "logData": "0x00000000000000000000000000000000000000000000156207c0faf0ec13b9820000000000000000000000000000000000000000000002d08333db77934864dd",
                    "logDecoded": true,
                    "operation": "EVENT",
                    "revert": true,
                    "status": false,
                    "topics": [
                        "0x1c411e9a96e071241c2f21f7726b17ae89e3cab4c78be50e062b03a9fffbbad1"
                    ]
                },
                "nodeType": 1
            },
            "18": {
                "event": {
                    "contract": "0xdfc14d2af169b0d36c4eff567ada9b2e0cae044f",
                    "decodedLog": {
                        "name": "Swap",
                        "params": [
                            {
                                "name": "sender",
                                "type": "address",
                                "value": "0x7a250d5630b4cf539739df2c5dacb4c659f2488d"
                            },
                            {
                                "name": "to",
                                "type": "address",
                                "value": "0x3da1313ae46132a397d90d95b1424a9a7e3e0fce"
                            },
                            {
                                "name": "amount0In",
                                "type": "uint256",
                                "value": "1,300,000,000,000,000,000"
                            },
                            {
                                "name": "amount1In",
                                "type": "uint256",
                                "value": "0"
                            },
                            {
                                "name": "amount0Out",
                                "type": "uint256",
                                "value": "0"
                            },
                            {
                                "name": "amount1Out",
                                "type": "uint256",
                                "value": "170,599,766,123,051,216"
                            }
                        ],
                        "signature": "Swap(address,uint256,uint256,uint256,uint256,address)"
                    },
                    "id": 18,
                    "logData": "0x000000000000000000000000000000000000000000000000120a871cc002000000000000000000000000000000000000000000000000000000000000000000000000000000000000000000000000000000000000000000000000000000000000000000000000000000000000000000000000000000000000025e17955a8778d0",
                    "logDecoded": true,
                    "operation": "EVENT",
                    "revert": true,
                    "status": false,
                    "topics": [
                        "0xd78ad95fa46c994b6551d0da85fc275fe613ce37657fb8d5e3d130840159d822",
                        "0x0000000000000000000000007a250d5630b4cf539739df2c5dacb4c659f2488d",
                        "0x0000000000000000000000003da1313ae46132a397d90d95b1424a9a7e3e0fce"
                    ]
                },
                "nodeType": 1
            },
            "19": {
                "invocation": {
                    "address": "0x3da1313ae46132a397d90d95b1424a9a7e3e0fce",
                    "callData": "0x0000000000000000000000000000000000000000000000000000000000000000000000000000000000000000000000000000000000000008f2debecefbaad4e40000000000000000000000000127da512c57600b54c05ca120ae2820e205177900000000000000000000000000000000000000000000000000000000000000800000000000000000000000000000000000000000000000000000000000000000",
                    "decodedMethod": {
                        "callParams": [
                            {
                                "name": "amount0Out",
                                "type": "uint256",
                                "value": "0"
                            },
                            {
                                "name": "amount1Out",
                                "type": "uint256",
                                "value": "165,074,587,587,879,556,324"
                            },
                            {
                                "name": "to",
                                "type": "address",
                                "value": "0x0127da512c57600b54c05ca120ae2820e2051779"
                            },
                            {
                                "name": "data",
                                "type": "bytes",
                                "value": "0x"
                            }
                        ],
                        "constructorArguments": "",
                        "name": "swap",
                        "returnParams": [],
                        "signature": "swap(uint256,uint256,address,bytes)"
                    },
                    "errorInfo": "out of gas",
                    "fromAddress": "0x7a250d5630b4cf539739df2c5dacb4c659f2488d",
                    "gasUsed": 32400,
                    "id": 19,
                    "methodDecoded": true,
                    "operation": "CALL",
                    "output": "",
                    "revert": true,
                    "revertMessage": "",
                    "selector": "0x022c0d9f",
                    "status": false,
                    "value": "0"
                },
                "nodeType": 0
            },
            "2": {
                "invocation": {
                    "address": "0x3da1313ae46132a397d90d95b1424a9a7e3e0fce",
                    "callData": "0x",
                    "decodedMethod": {
                        "callParams": [],
                        "constructorArguments": "",
                        "name": "getReserves",
                        "returnParams": [
                            {
                                "name": "_reserve0",
                                "type": "uint112",
                                "value": "1,182,301,287,793,826,908,784"
                            },
                            {
                                "name": "_reserve1",
                                "type": "uint112",
                                "value": "1,147,617,778,801,248,780,553,790"
                            },
                            {
                                "name": "_blockTimestampLast",
                                "type": "uint32",
                                "value": "1,608,245,268"
                            }
                        ],
                        "signature": "getReserves()"
                    },
                    "errorInfo": "",
                    "fromAddress": "0x7a250d5630b4cf539739df2c5dacb4c659f2488d",
                    "gasUsed": 1204,
                    "id": 2,
                    "methodDecoded": true,
                    "operation": "STATICCALL",
                    "output": "0x00000000000000000000000000000000000000000000004017b9f525d5eeca7000000000000000000000000000000000000000000000f3047c04c826ef160e3e000000000000000000000000000000000000000000000000000000005fdbe014",
                    "revert": true,
                    "revertMessage": "",
                    "selector": "0x0902f1ac",
                    "status": true,
                    "value": "0"
                },
                "nodeType": 0
            },
            "20": {
                "invocation": {
                    "address": "0xd533a949740bb3306d119cc777fa900ba034cd52",
                    "callData": "0x0000000000000000000000000127da512c57600b54c05ca120ae2820e2051779000000000000000000000000000000000000000000000008f2debecefbaad4e4",
                    "decodedMethod": {
                        "callParams": [
                            {
                                "name": "recipient",
                                "type": "address",
                                "value": "0x0127da512c57600b54c05ca120ae2820e2051779"
                            },
                            {
                                "decimalAvailable": true,
                                "name": "amount",
                                "type": "uint256",
                                "value": "165,074,587,587,879,556,324"
                            }
                        ],
                        "constructorArguments": "",
                        "name": "transfer",
                        "returnParams": [
                            {
                                "name": "",
                                "type": "bool",
                                "value": true
                            }
                        ],
                        "signature": "transfer(address,uint256)"
                    },
                    "errorInfo": "",
                    "fromAddress": "0x3da1313ae46132a397d90d95b1424a9a7e3e0fce",
                    "gasUsed": 14181,
                    "id": 20,
                    "methodDecoded": true,
                    "operation": "CALL",
                    "output": "0x0000000000000000000000000000000000000000000000000000000000000001",
                    "revert": true,
                    "revertMessage": "",
                    "selector": "0xa9059cbb",
                    "status": true,
                    "value": "0"
                },
                "nodeType": 0
            },
            "21": {
                "event": {
                    "contract": "0xd533a949740bb3306d119cc777fa900ba034cd52",
                    "decodedLog": {
                        "name": "Transfer",
                        "params": [
                            {
                                "name": "from",
                                "type": "address",
                                "value": "0x3da1313ae46132a397d90d95b1424a9a7e3e0fce"
                            },
                            {
                                "name": "to",
                                "type": "address",
                                "value": "0x0127da512c57600b54c05ca120ae2820e2051779"
                            },
                            {
                                "decimalAvailable": true,
                                "name": "value",
                                "type": "uint256",
                                "value": "165,074,587,587,879,556,324"
                            }
                        ],
                        "signature": "Transfer(address,address,uint256)"
                    },
                    "id": 21,
                    "logData": "0x000000000000000000000000000000000000000000000008f2debecefbaad4e4",
                    "logDecoded": true,
                    "operation": "EVENT",
                    "revert": true,
                    "status": false,
                    "topics": [
                        "0xddf252ad1be2c89b69c2b068fc378daa952ba7f163c4a11628f55a4df523b3ef",
                        "0x0000000000000000000000003da1313ae46132a397d90d95b1424a9a7e3e0fce",
                        "0x0000000000000000000000000127da512c57600b54c05ca120ae2820e2051779"
                    ]
                },
                "nodeType": 1
            },
            "22": {
                "invocation": {
                    "address": "0xc02aaa39b223fe8d0a0e5c4f27ead9083c756cc2",
                    "callData": "0x0000000000000000000000003da1313ae46132a397d90d95b1424a9a7e3e0fce",
                    "decodedMethod": {
                        "callParams": [
                            {
                                "name": "",
                                "type": "address",
                                "value": "0x3da1313ae46132a397d90d95b1424a9a7e3e0fce"
                            }
                        ],
                        "constructorArguments": "",
                        "name": "balanceOf",
                        "returnParams": [
                            {
                                "decimalAvailable": true,
                                "name": "",
                                "type": "uint256",
                                "value": "1,182,471,887,559,949,960,000"
                            }
                        ],
                        "signature": "balanceOf(address)"
                    },
                    "errorInfo": "",
                    "fromAddress": "0x3da1313ae46132a397d90d95b1424a9a7e3e0fce",
                    "gasUsed": 1234,
                    "id": 22,
                    "methodDecoded": true,
                    "operation": "STATICCALL",
                    "output": "0x0000000000000000000000000000000000000000000000401a180cbb30764340",
                    "revert": true,
                    "revertMessage": "",
                    "selector": "0x70a08231",
                    "status": true,
                    "value": "0"
                },
                "nodeType": 0
            },
            "23": {
                "invocation": {
                    "address": "0xd533a949740bb3306d119cc777fa900ba034cd52",
                    "callData": "0x0000000000000000000000003da1313ae46132a397d90d95b1424a9a7e3e0fce",
                    "decodedMethod": {
                        "callParams": [
                            {
                                "name": "account",
                                "type": "address",
                                "value": "0x3da1313ae46132a397d90d95b1424a9a7e3e0fce"
                            }
                        ],
                        "constructorArguments": "",
                        "name": "balanceOf",
                        "returnParams": [
                            {
                                "decimalAvailable": true,
                                "name": "",
                                "type": "uint256",
                                "value": "1,147,452,704,213,660,900,997,466"
                            }
                        ],
                        "signature": "balanceOf(address)"
                    },
                    "errorInfo": "",
                    "fromAddress": "0x3da1313ae46132a397d90d95b1424a9a7e3e0fce",
                    "gasUsed": 1630,
                    "id": 23,
                    "methodDecoded": true,
                    "operation": "STATICCALL",
                    "output": "0x00000000000000000000000000000000000000000000f2fb89260957f36b395a",
                    "revert": true,
                    "revertMessage": "",
                    "selector": "0x70a08231",
                    "status": true,
                    "value": "0"
                },
                "nodeType": 0
            },
            "3": {
                "invocation": {
                    "address": "0x7fc66500c84a76ad7e9c93437bfc5ac33e2ddae9",
                    "callData": "0x0000000000000000000000000127da512c57600b54c05ca120ae2820e2051779000000000000000000000000dfc14d2af169b0d36c4eff567ada9b2e0cae044f000000000000000000000000000000000000000000000000120a871cc0020000",
                    "decodedMethod": {
                        "callParams": [
                            {
                                "name": "sender",
                                "type": "address",
                                "value": "0x0127da512c57600b54c05ca120ae2820e2051779"
                            },
                            {
                                "name": "recipient",
                                "type": "address",
                                "value": "0xdfc14d2af169b0d36c4eff567ada9b2e0cae044f"
                            },
                            {
                                "decimalAvailable": true,
                                "name": "amount",
                                "type": "uint256",
                                "value": "1,300,000,000,000,000,000"
                            }
                        ],
                        "constructorArguments": "",
                        "name": "transferFrom",
                        "returnParams": [
                            {
                                "name": "",
                                "type": "bool",
                                "value": true
                            }
                        ],
                        "signature": "transferFrom(address,address,uint256)"
                    },
                    "errorInfo": "",
                    "fromAddress": "0x7a250d5630b4cf539739df2c5dacb4c659f2488d",
                    "gasUsed": 159884,
                    "id": 3,
                    "methodDecoded": true,
                    "operation": "CALL",
                    "output": "0x0000000000000000000000000000000000000000000000000000000000000001",
                    "revert": true,
                    "revertMessage": "",
                    "selector": "0x23b872dd",
                    "status": true,
                    "value": "0"
                },
                "nodeType": 0
            },
            "4": {
                "invocation": {
                    "address": "0xc13eac3b4f9eed480045113b7af00f7b5655ece8",
                    "callData": "0x0000000000000000000000000127da512c57600b54c05ca120ae2820e2051779000000000000000000000000dfc14d2af169b0d36c4eff567ada9b2e0cae044f000000000000000000000000000000000000000000000000120a871cc0020000",
                    "decodedMethod": {
                        "callParams": [
                            {
                                "name": "sender",
                                "type": "address",
                                "value": "0x0127da512c57600b54c05ca120ae2820e2051779"
                            },
                            {
                                "name": "recipient",
                                "type": "address",
                                "value": "0xdfc14d2af169b0d36c4eff567ada9b2e0cae044f"
                            },
                            {
                                "decimalAvailable": true,
                                "name": "amount",
                                "type": "uint256",
                                "value": "1,300,000,000,000,000,000"
                            }
                        ],
                        "constructorArguments": "",
                        "name": "transferFrom",
                        "returnParams": [
                            {
                                "name": "",
                                "type": "bool",
                                "value": true
                            }
                        ],
                        "signature": "transferFrom(address,address,uint256)"
                    },
                    "errorInfo": "",
                    "fromAddress": "0x7fc66500c84a76ad7e9c93437bfc5ac33e2ddae9",
                    "gasUsed": 157140,
                    "id": 4,
                    "methodDecoded": true,
                    "operation": "DELEGATECALL",
                    "output": "0x0000000000000000000000000000000000000000000000000000000000000001",
                    "revert": true,
                    "revertMessage": "",
                    "selector": "0x23b872dd",
                    "status": true,
                    "value": "0"
                },
                "nodeType": 0
            },
            "5": {
                "event": {
                    "contract": "0x7fc66500c84a76ad7e9c93437bfc5ac33e2ddae9",
                    "decodedLog": {
                        "name": "DelegatedPowerChanged",
                        "params": [
                            {
                                "name": "user",
                                "type": "address",
                                "value": "0x0127da512c57600b54c05ca120ae2820e2051779"
                            },
                            {
                                "name": "amount",
                                "type": "uint256",
                                "value": "208,261,792,412,880,974"
                            },
                            {
                                "name": "delegationType",
                                "type": "uint8",
                                "value": "0"
                            }
                        ],
                        "signature": "DelegatedPowerChanged(address,uint256,uint8)"
                    },
                    "id": 5,
                    "logData": "0x00000000000000000000000000000000000000000000000002e3e4ff2d0e504e0000000000000000000000000000000000000000000000000000000000000000",
                    "logDecoded": true,
                    "operation": "EVENT",
                    "revert": true,
                    "status": false,
                    "topics": [
                        "0xa0a19463ee116110c9b282012d9b65cc5522dc38a9520340cbaf3142e550127f",
                        "0x0000000000000000000000000127da512c57600b54c05ca120ae2820e2051779"
                    ]
                },
                "nodeType": 1
            },
            "6": {
                "event": {
                    "contract": "0x7fc66500c84a76ad7e9c93437bfc5ac33e2ddae9",
                    "decodedLog": {
                        "name": "DelegatedPowerChanged",
                        "params": [
                            {
                                "name": "user",
                                "type": "address",
                                "value": "0xdfc14d2af169b0d36c4eff567ada9b2e0cae044f"
                            },
                            {
                                "name": "amount",
                                "type": "uint256",
                                "value": "100,978,035,781,752,539,298,178"
                            },
                            {
                                "name": "delegationType",
                                "type": "uint8",
                                "value": "0"
                            }
                        ],
                        "signature": "DelegatedPowerChanged(address,uint256,uint8)"
                    },
                    "id": 6,
                    "logData": "0x00000000000000000000000000000000000000000000156207c0faf0ec13b9820000000000000000000000000000000000000000000000000000000000000000",
                    "logDecoded": true,
                    "operation": "EVENT",
                    "revert": true,
                    "status": false,
                    "topics": [
                        "0xa0a19463ee116110c9b282012d9b65cc5522dc38a9520340cbaf3142e550127f",
                        "0x000000000000000000000000dfc14d2af169b0d36c4eff567ada9b2e0cae044f"
                    ]
                },
                "nodeType": 1
            },
            "7": {
                "event": {
                    "contract": "0x7fc66500c84a76ad7e9c93437bfc5ac33e2ddae9",
                    "decodedLog": {
                        "name": "DelegatedPowerChanged",
                        "params": [
                            {
                                "name": "user",
                                "type": "address",
                                "value": "0x0127da512c57600b54c05ca120ae2820e2051779"
                            },
                            {
                                "name": "amount",
                                "type": "uint256",
                                "value": "208,261,792,412,880,974"
                            },
                            {
                                "name": "delegationType",
                                "type": "uint8",
                                "value": "1"
                            }
                        ],
                        "signature": "DelegatedPowerChanged(address,uint256,uint8)"
                    },
                    "id": 7,
                    "logData": "0x00000000000000000000000000000000000000000000000002e3e4ff2d0e504e0000000000000000000000000000000000000000000000000000000000000001",
                    "logDecoded": true,
                    "operation": "EVENT",
                    "revert": true,
                    "status": false,
                    "topics": [
                        "0xa0a19463ee116110c9b282012d9b65cc5522dc38a9520340cbaf3142e550127f",
                        "0x0000000000000000000000000127da512c57600b54c05ca120ae2820e2051779"
                    ]
                },
                "nodeType": 1
            },
            "8": {
                "event": {
                    "contract": "0x7fc66500c84a76ad7e9c93437bfc5ac33e2ddae9",
                    "decodedLog": {
                        "name": "DelegatedPowerChanged",
                        "params": [
                            {
                                "name": "user",
                                "type": "address",
                                "value": "0xdfc14d2af169b0d36c4eff567ada9b2e0cae044f"
                            },
                            {
                                "name": "amount",
                                "type": "uint256",
                                "value": "100,978,035,781,752,539,298,178"
                            },
                            {
                                "name": "delegationType",
                                "type": "uint8",
                                "value": "1"
                            }
                        ],
                        "signature": "DelegatedPowerChanged(address,uint256,uint8)"
                    },
                    "id": 8,
                    "logData": "0x00000000000000000000000000000000000000000000156207c0faf0ec13b9820000000000000000000000000000000000000000000000000000000000000001",
                    "logDecoded": true,
                    "operation": "EVENT",
                    "revert": true,
                    "status": false,
                    "topics": [
                        "0xa0a19463ee116110c9b282012d9b65cc5522dc38a9520340cbaf3142e550127f",
                        "0x000000000000000000000000dfc14d2af169b0d36c4eff567ada9b2e0cae044f"
                    ]
                },
                "nodeType": 1
            },
            "9": {
                "event": {
                    "contract": "0x7fc66500c84a76ad7e9c93437bfc5ac33e2ddae9",
                    "decodedLog": {
                        "name": "Transfer",
                        "params": [
                            {
                                "name": "from",
                                "type": "address",
                                "value": "0x0127da512c57600b54c05ca120ae2820e2051779"
                            },
                            {
                                "name": "to",
                                "type": "address",
                                "value": "0xdfc14d2af169b0d36c4eff567ada9b2e0cae044f"
                            },
                            {
                                "decimalAvailable": true,
                                "name": "value",
                                "type": "uint256",
                                "value": "1,300,000,000,000,000,000"
                            }
                        ],
                        "signature": "Transfer(address,address,uint256)"
                    },
                    "id": 9,
                    "logData": "0x000000000000000000000000000000000000000000000000120a871cc0020000",
                    "logDecoded": true,
                    "operation": "EVENT",
                    "revert": true,
                    "status": false,
                    "topics": [
                        "0xddf252ad1be2c89b69c2b068fc378daa952ba7f163c4a11628f55a4df523b3ef",
                        "0x0000000000000000000000000127da512c57600b54c05ca120ae2820e2051779",
                        "0x000000000000000000000000dfc14d2af169b0d36c4eff567ada9b2e0cae044f"
                    ]
                },
                "nodeType": 1
            }
        },
        "gasFlame": [
            {
                "children": [
                    {
                        "children": [
                            {
                                "children": [],
                                "depth": 0,
                                "name": "Initial Gas",
                                "value": 23416
                            },
                            {
                                "children": [
                                    {
                                        "children": [],
                                        "depth": 1,
                                        "name": "getReserves",
                                        "value": 1204
                                    },
                                    {
                                        "children": [],
                                        "depth": 1,
                                        "name": "getReserves",
                                        "value": 1204
                                    },
                                    {
                                        "children": [
                                            {
                                                "children": [],
                                                "depth": 2,
                                                "name": "transferFrom",
                                                "value": 157140
                                            }
                                        ],
                                        "depth": 1,
                                        "name": "transferFrom",
                                        "value": 159884
                                    },
                                    {
                                        "children": [
                                            {
                                                "children": [],
                                                "depth": 2,
                                                "name": "transfer",
                                                "value": 15162
                                            },
                                            {
                                                "children": [
                                                    {
                                                        "children": [],
                                                        "depth": 3,
                                                        "name": "balanceOf",
                                                        "value": 1349
                                                    }
                                                ],
                                                "depth": 2,
                                                "name": "balanceOf",
                                                "value": 4084
                                            },
                                            {
                                                "children": [],
                                                "depth": 2,
                                                "name": "balanceOf",
                                                "value": 1234
                                            }
                                        ],
                                        "depth": 1,
                                        "name": "swap",
                                        "value": 59503
                                    },
                                    {
                                        "children": [
                                            {
                                                "children": [],
                                                "depth": 2,
                                                "name": "transfer",
                                                "value": 14181
                                            },
                                            {
                                                "children": [],
                                                "depth": 2,
                                                "name": "balanceOf",
                                                "value": 1234
                                            },
                                            {
                                                "children": [],
                                                "depth": 2,
                                                "name": "balanceOf",
                                                "value": 1630
                                            }
                                        ],
                                        "depth": 1,
                                        "name": "swap",
                                        "value": 32400
                                    }
                                ],
                                "depth": 0,
                                "name": "Executed Gas",
                                "value": 271786
                            }
                        ],
                        "depth": -1,
                        "name": "Actual Gas Used",
                        "value": 295202
                    },
                    {
                        "children": [],
                        "depth": -1,
                        "name": "Refunded Gas",
                        "value": 0
                    }
                ],
                "depth": -2,
                "name": "Total Gas",
                "value": 295202
            }
        ],
        "isConfirmed": true,
        "mainTrace": [
            {
                "children": [
                    {
                        "children": [
                            {
                                "children": [],
                                "depth": 1,
                                "id": 1,
                                "order": 1
                            },
                            {
                                "children": [],
                                "depth": 1,
                                "id": 2,
                                "order": 2
                            },
                            {
                                "children": [
                                    {
                                        "children": [
                                            {
                                                "children": [],
                                                "depth": 3,
                                                "id": 5,
                                                "order": 5
                                            },
                                            {
                                                "children": [],
                                                "depth": 3,
                                                "id": 6,
                                                "order": 6
                                            },
                                            {
                                                "children": [],
                                                "depth": 3,
                                                "id": 7,
                                                "order": 7
                                            },
                                            {
                                                "children": [],
                                                "depth": 3,
                                                "id": 8,
                                                "order": 8
                                            },
                                            {
                                                "children": [],
                                                "depth": 3,
                                                "id": 9,
                                                "order": 9
                                            },
                                            {
                                                "children": [],
                                                "depth": 3,
                                                "id": 10,
                                                "order": 10
                                            }
                                        ],
                                        "depth": 2,
                                        "id": 4,
                                        "order": 4
                                    }
                                ],
                                "depth": 1,
                                "id": 3,
                                "order": 3
                            },
                            {
                                "children": [
                                    {
                                        "children": [
                                            {
                                                "children": [],
                                                "depth": 3,
                                                "id": 13,
                                                "order": 13
                                            }
                                        ],
                                        "depth": 2,
                                        "id": 12,
                                        "order": 12
                                    },
                                    {
                                        "children": [
                                            {
                                                "children": [],
                                                "depth": 3,
                                                "id": 15,
                                                "order": 15
                                            }
                                        ],
                                        "depth": 2,
                                        "id": 14,
                                        "order": 14
                                    },
                                    {
                                        "children": [],
                                        "depth": 2,
                                        "id": 16,
                                        "order": 16
                                    },
                                    {
                                        "children": [],
                                        "depth": 2,
                                        "id": 17,
                                        "order": 17
                                    },
                                    {
                                        "children": [],
                                        "depth": 2,
                                        "id": 18,
                                        "order": 18
                                    }
                                ],
                                "depth": 1,
                                "id": 11,
                                "order": 11
                            },
                            {
                                "children": [
                                    {
                                        "children": [
                                            {
                                                "children": [],
                                                "depth": 3,
                                                "id": 21,
                                                "order": 21
                                            }
                                        ],
                                        "depth": 2,
                                        "id": 20,
                                        "order": 20
                                    },
                                    {
                                        "children": [],
                                        "depth": 2,
                                        "id": 22,
                                        "order": 22
                                    },
                                    {
                                        "children": [],
                                        "depth": 2,
                                        "id": 23,
                                        "order": 23
                                    }
                                ],
                                "depth": 1,
                                "id": 19,
                                "order": 19
                            }
                        ],
                        "depth": 0,
                        "id": 0,
                        "order": 0
                    }
                ],
                "depth": -1,
                "id": -1,
                "order": -1
            }
        ],
        "mainTraceNodeCount": 24,
        "parentIdMap": {
            "0": -1,
            "1": 0,
            "10": 4,
            "11": 0,
            "12": 11,
            "13": 12,
            "14": 11,
            "15": 14,
            "16": 11,
            "17": 11,
            "18": 11,
            "19": 0,
            "2": 0,
            "20": 19,
            "21": 20,
            "22": 19,
            "23": 19,
            "3": 0,
            "4": 3,
            "5": 4,
            "6": 4,
            "7": 4,
            "8": 4,
            "9": 4
        },
        "tidyTrace": [
            {
                "children": [
                    {
                        "children": [
                            {
                                "children": [
                                    {
                                        "children": [
                                            {
                                                "children": [],
                                                "depth": 3,
                                                "id": 5,
                                                "order": 5
                                            },
                                            {
                                                "children": [],
                                                "depth": 3,
                                                "id": 6,
                                                "order": 6
                                            },
                                            {
                                                "children": [],
                                                "depth": 3,
                                                "id": 7,
                                                "order": 7
                                            },
                                            {
                                                "children": [],
                                                "depth": 3,
                                                "id": 8,
                                                "order": 8
                                            },
                                            {
                                                "children": [],
                                                "depth": 3,
                                                "id": 9,
                                                "order": 9
                                            },
                                            {
                                                "children": [],
                                                "depth": 3,
                                                "id": 10,
                                                "order": 10
                                            }
                                        ],
                                        "depth": 2,
                                        "id": 4,
                                        "order": 4
                                    }
                                ],
                                "depth": 1,
                                "id": 3,
                                "order": 3
                            },
                            {
                                "children": [
                                    {
                                        "children": [
                                            {
                                                "children": [],
                                                "depth": 3,
                                                "id": 13,
                                                "order": 13
                                            }
                                        ],
                                        "depth": 2,
                                        "id": 12,
                                        "order": 12
                                    },
                                    {
                                        "children": [],
                                        "depth": 2,
                                        "id": 17,
                                        "order": 17
                                    },
                                    {
                                        "children": [],
                                        "depth": 2,
                                        "id": 18,
                                        "order": 18
                                    }
                                ],
                                "depth": 1,
                                "id": 11,
                                "order": 11
                            },
                            {
                                "children": [
                                    {
                                        "children": [
                                            {
                                                "children": [],
                                                "depth": 3,
                                                "id": 21,
                                                "order": 21
                                            }
                                        ],
                                        "depth": 2,
                                        "id": 20,
                                        "order": 20
                                    }
                                ],
                                "depth": 1,
                                "id": 19,
                                "order": 19
                            }
                        ],
                        "depth": 0,
                        "id": 0,
                        "order": 0
                    }
                ],
                "depth": -1,
                "id": -1,
                "order": -1
            }
        ],
        "tidyTraceNodeCount": 17
    },
    "state_change": {
        "stateChanges": []
    }
}