{
    "balance_change": {
        "balanceChanges": []
    },
    "profile": {
        "basic_info": {
            "baseFee": "17.13785402",
            "blockNumber": 15063448,
            "callData": "0x21561935000000000000000000000000b4dfabdd3368dccb2376afe72706ba8e32c570f40000000000000000000000000000000000000000000000000000000000000011",
            "debugEnable": true,
            "errorInfo": "",
            "eventCount": 1,
            "feeRecipient": "0xc730b028da66ebb14f20e67c68dd809fbc49890d",
            "formatValue": "0",
            "gasLimit": 51033,
            "gasPrice": "18.63785402",
            "gasUsed": 36371,
            "intTxnCount": 1,
            "internalRevert": false,
            "internalRevertMessage": "",
            "isContractCreation": false,
            "isFlashloan": false,
            "maxFee": "25.19713836",
            "nonce": 137,
            "overwritedBlockNumber": -1,
            "priorityFee": "1.5",
            "receiver": "0xcda72070e455bb31c7690a170224ce43623d0b6f",
            "revertMessage": "",
            "sender": "0x757dbdb8cae6ad41c5f365d01dedeef1507bb947",
            "simulationEnable": true,
            "sourceTxnHash": "0x667f5017dc41d3aaa31d54f2d3f2275a6d6f192dc36c5e15898f7664b66872a2",
            "status": true,
            "timestamp": "2022-07-02T13:47:37Z",
            "transactionFee": "0.00067787738856142",
            "txnHash": "0x667f5017dc41d3aaa31d54f2d3f2275a6d6f192dc36c5e15898f7664b66872a2",
            "txnIndex": 353,
            "type": 2,
            "value": "0"
        },
        "fund_flow": [],
        "token_infos": [
            {
                "address": "0xc02aaa39b223fe8d0a0e5c4f27ead9083c756cc2",
                "decimals": 18
            },
            {
                "address": "0xeeeeeeeeeeeeeeeeeeeeeeeeeeeeeeeeeeeeeeee",
                "decimals": 18
            }
        ]
    },
    "address_label": {
        "labels": [
            {
                "address": "0xcda72070e455bb31c7690a170224ce43623d0b6f",
                "label": "Foundation: Market"
            },
            {
                "address": "0x9b5d1e314a8c8af17150fe4e327e8523ee15d25f",
                "label": "FNDNFTMarket"
            },
            {
                "address": "0x0000000000000000000000000000000000000001",
                "label": "Precompiled"
            },
            {
                "address": "0x0000000000000000000000000000000000000002",
                "label": "Precompiled"
            },
            {
                "address": "0x0000000000000000000000000000000000000003",
                "label": "Precompiled"
            },
            {
                "address": "0x0000000000000000000000000000000000000004",
                "label": "Precompiled"
            },
            {
                "address": "0xeeeeeeeeeeeeeeeeeeeeeeeeeeeeeeeeeeeeeeee",
                "label": "Ether"
            },
            {
                "address": "0xb4dfabdd3368dccb2376afe72706ba8e32c570f4",
                "label": "Alexander D&#233;boir (ADEB)"
            }
        ]
    },
    "trace": {
        "accountLabels": null,
        "dataMap": {
            "-1": {
                "invocation": {
                    "address": "0x757dbdb8cae6ad41c5f365d01dedeef1507bb947",
                    "callData": "",
                    "decodedMethod": null,
                    "errorInfo": "",
                    "fromAddress": "",
                    "gasUsed": 0,
                    "id": -1,
                    "methodDecoded": false,
                    "operation": "",
                    "output": "",
                    "revert": false,
                    "revertMessage": "",
                    "selector": "",
                    "status": false,
                    "value": ""
                },
                "nodeType": 0
            },
            "0": {
                "invocation": {
                    "address": "0xcda72070e455bb31c7690a170224ce43623d0b6f",
                    "callData": "0x000000000000000000000000b4dfabdd3368dccb2376afe72706ba8e32c570f40000000000000000000000000000000000000000000000000000000000000011",
                    "decodedMethod": {
                        "callParams": [
                            {
                                "name": "nftContract",
                                "type": "address",
                                "value": "0xb4dfabdd3368dccb2376afe72706ba8e32c570f4"
                            },
                            {
                                "name": "tokenId",
                                "type": "uint256",
                                "value": "17"
                            }
                        ],
                        "constructorArguments": "",
                        "name": "cancelBuyPrice",
                        "returnParams": [],
                        "signature": "cancelBuyPrice(address,uint256)"
                    },
                    "errorInfo": "",
                    "fromAddress": "0x757dbdb8cae6ad41c5f365d01dedeef1507bb947",
                    "gasUsed": 36371,
                    "id": 0,
                    "methodDecoded": true,
                    "operation": "CALL",
                    "output": "",
                    "revert": false,
                    "revertMessage": "",
                    "selector": "0x21561935",
                    "status": true,
                    "value": "0"
                },
                "nodeType": 0
            },
            "1": {
                "invocation": {
                    "address": "0x9b5d1e314a8c8af17150fe4e327e8523ee15d25f",
                    "callData": "0x000000000000000000000000b4dfabdd3368dccb2376afe72706ba8e32c570f40000000000000000000000000000000000000000000000000000000000000011",
                    "decodedMethod": {
                        "callParams": [
                            {
                                "name": "nftContract",
                                "type": "address",
                                "value": "0xb4dfabdd3368dccb2376afe72706ba8e32c570f4"
                            },
                            {
                                "name": "tokenId",
                                "type": "uint256",
                                "value": "17"
                            }
                        ],
                        "constructorArguments": "",
                        "name": "cancelBuyPrice",
                        "returnParams": [],
                        "signature": "cancelBuyPrice(address,uint256)"
                    },
                    "errorInfo": "",
                    "fromAddress": "0xcda72070e455bb31c7690a170224ce43623d0b6f",
                    "gasUsed": 15123,
                    "id": 1,
                    "methodDecoded": true,
                    "operation": "DELEGATECALL",
                    "output": "",
                    "revert": false,
                    "revertMessage": "",
                    "selector": "0x21561935",
                    "status": true,
                    "value": "0"
                },
                "nodeType": 0
            },
            "2": {
                "event": {
                    "contract": "0xcda72070e455bb31c7690a170224ce43623d0b6f",
                    "decodedLog": {
                        "name": "BuyPriceCanceled",
                        "params": [
                            {
                                "name": "nftContract",
                                "type": "address",
                                "value": "0xb4dfabdd3368dccb2376afe72706ba8e32c570f4"
                            },
                            {
                                "name": "tokenId",
                                "type": "uint256",
                                "value": "17"
                            }
                        ],
                        "signature": "BuyPriceCanceled(address,uint256)"
                    },
                    "id": 2,
                    "logData": "0x",
                    "logDecoded": true,
                    "operation": "EVENT",
                    "revert": false,
                    "status": true,
                    "topics": [
                        "0x70c7877531c04c7d9caa8a7eca127384f04e8a6ee58b63f778ce5401d8bcae41",
                        "0x000000000000000000000000b4dfabdd3368dccb2376afe72706ba8e32c570f4",
                        "0x0000000000000000000000000000000000000000000000000000000000000011"
                    ]
                },
                "nodeType": 1
            }
        },
        "gasFlame": [
            {
                "children": [
                    {
                        "children": [
                            {
                                "children": [],
                                "depth": 0,
                                "name": "Initial Gas",
                                "value": 21572
                            },
                            {
                                "children": [
                                    {
                                        "children": [],
                                        "depth": 1,
                                        "name": "cancelBuyPrice",
                                        "value": 15123
                                    }
                                ],
                                "depth": 0,
                                "name": "Executed Gas",
                                "value": 22399
                            }
                        ],
                        "depth": -1,
                        "name": "Actual Gas Used",
                        "value": 36371
                    },
                    {
                        "children": [],
                        "depth": -1,
                        "name": "Refunded Gas",
                        "value": 7600
                    }
                ],
                "depth": -2,
                "name": "Total Gas",
                "value": 43971
            }
        ],
        "isConfirmed": true,
        "mainTrace": [
            {
                "children": [
                    {
                        "children": [
                            {
                                "children": [
                                    {
                                        "children": [],
                                        "depth": 2,
                                        "id": 2,
                                        "order": 2
                                    }
                                ],
                                "depth": 1,
                                "id": 1,
                                "order": 1
                            }
                        ],
                        "depth": 0,
                        "id": 0,
                        "order": 0
                    }
                ],
                "depth": -1,
                "id": -1,
                "order": -1
            }
        ],
        "mainTraceNodeCount": 3,
        "parentIdMap": {
            "0": -1,
            "1": 0,
            "2": 1
        },
        "tidyTrace": [
            {
                "children": [
                    {
                        "children": [
                            {
                                "children": [
                                    {
                                        "children": [],
                                        "depth": 2,
                                        "id": 2,
                                        "order": 2
                                    }
                                ],
                                "depth": 1,
                                "id": 1,
                                "order": 1
                            }
                        ],
                        "depth": 0,
                        "id": 0,
                        "order": 0
                    }
                ],
                "depth": -1,
                "id": -1,
                "order": -1
            }
        ],
        "tidyTraceNodeCount": 3
    },
    "state_change": {
        "stateChanges": [
            {
                "address": "0xcda72070e455bb31c7690a170224ce43623d0b6f",
                "erc": "",
                "slots": [
                    {
                        "current": "0x0000000000000000000000000000000000000000000000000000000000000000",
                        "key": "0xbd2cdaffbe7ad2da77a82f8cab2cf868fceef9aeada9c5dec036987ae7d84980",
                        "prev": "0x0000000014d1120d7b160000757dbdb8cae6ad41c5f365d01dedeef1507bb947"
                    }
                ],
                "storageVariables": [
                    {
                        "name": "nftContractToTokenIdToBuyPrice",
                        "type": "mapping(address => mapping(uint256 => struct NFTMarketBuyPrice.BuyPrice))",
                        "value": {
                            "pairs": [
                                {
                                    "key": "0xb4dfabdd3368dccb2376afe72706ba8e32c570f4",
                                    "value": {
                                        "pairs": [
                                            {
                                                "key": "17",
                                                "value": {
                                                    "fields": [
                                                        {
                                                            "name": "seller",
                                                            "type": "address payable",
                                                            "value": {
                                                                "current": "0x0000000000000000000000000000000000000000",
                                                                "prev": "0x757dbdb8cae6ad41c5f365d01dedeef1507bb947",
                                                                "typeTag": 1
                                                            }
                                                        },
                                                        {
                                                            "name": "price",
                                                            "type": "uint96",
                                                            "value": {
                                                                "current": "0",
                                                                "prev": "1500000000000000000",
                                                                "typeTag": 1
                                                            }
                                                        }
                                                    ],
                                                    "typeTag": 3
                                                }
                                            }
                                        ],
                                        "typeTag": 4
                                    }
                                }
                            ],
                            "typeTag": 4
                        }
                    }
                ]
            }
        ]
    }
}