{
    "balance_change": {
        "balanceChanges": [
            {
                "account": "0xe1a483235829f9927a98ce64669a828b5281beb1",
                "assets": [
                    {
                        "address": "0x6651f86473b4de2850ed5b48a143a1e8a8671607",
                        "amount": "50,000,000,000,000,000,000",
                        "iconUrl": "",
                        "isERC1155": false,
                        "isERC721": false,
                        "sign": false,
                        "value": ""
                    }
                ]
            },
            {
                "account": "0xf205d4889fb4a6036e7d1507219013a45d117a76",
                "assets": [
                    {
                        "address": "0x6651f86473b4de2850ed5b48a143a1e8a8671607",
                        "amount": "50,000,000,000,000,000,000",
                        "iconUrl": "",
                        "isERC1155": false,
                        "isERC721": false,
                        "sign": true,
                        "value": ""
                    }
                ]
            }
        ]
    },
    "profile": {
        "basic_info": {
            "baseFee": "",
            "blockNumber": 5581996,
            "callData": "0xa9059cbb000000000000000000000000f205d4889fb4a6036e7d1507219013a45d117a76000000000000000000000000000000000000000000000002b5e3af16b1880000",
            "debugEnable": true,
            "errorInfo": "",
            "eventCount": 1,
            "feeRecipient": "0x5a0b54d5dc17e0aadc383d2db43b0a0d3e029c4c",
            "formatValue": "0",
            "gasLimit": 60000,
            "gasPrice": "11.15625",
            "gasUsed": 53355,
            "intTxnCount": 0,
            "internalRevert": false,
            "internalRevertMessage": "",
            "isContractCreation": false,
            "isFlashloan": false,
            "maxFee": "",
            "nonce": 981,
            "overwritedBlockNumber": -1,
            "priorityFee": "",
            "receiver": "0x6651f86473b4de2850ed5b48a143a1e8a8671607",
            "revertMessage": "",
            "sender": "0xe1a483235829f9927a98ce64669a828b5281beb1",
            "simulationEnable": true,
            "sourceTxnHash": "0x66b717aed4726573b756641476fa4d63a222170614c3c4ba9a92a5047744bd4d",
            "status": true,
            "timestamp": "2018-05-09T05:52:19Z",
            "transactionFee": "0.00059524171875",
            "txnHash": "0x66b717aed4726573b756641476fa4d63a222170614c3c4ba9a92a5047744bd4d",
            "txnIndex": 37,
            "type": 0,
            "value": "0"
        },
        "fund_flow": [
            {
                "amount": "50,000,000,000,000,000,000",
                "from": "0xe1a483235829f9927a98ce64669a828b5281beb1",
                "id": 1,
                "isERC1155": false,
                "isERC721": false,
                "isReverted": false,
                "order": 1,
                "to": "0xf205d4889fb4a6036e7d1507219013a45d117a76",
                "token": "0x6651f86473b4de2850ed5b48a143a1e8a8671607"
            }
        ],
        "token_infos": [
            {
                "address": "0xc02aaa39b223fe8d0a0e5c4f27ead9083c756cc2",
                "decimals": 18
            },
            {
                "address": "0xeeeeeeeeeeeeeeeeeeeeeeeeeeeeeeeeeeeeeeee",
                "decimals": 18
            }
        ]
    },
    "address_label": {
        "labels": [
            {
                "address": "0x0000000000000000000000000000000000000001",
                "label": "Precompiled"
            },
            {
                "address": "0x0000000000000000000000000000000000000002",
                "label": "Precompiled"
            },
            {
                "address": "0x0000000000000000000000000000000000000003",
                "label": "Precompiled"
            },
            {
                "address": "0x0000000000000000000000000000000000000004",
                "label": "Precompiled"
            },
            {
                "address": "0xeeeeeeeeeeeeeeeeeeeeeeeeeeeeeeeeeeeeeeee",
                "label": "Ether"
            }
        ]
    },
    "trace": {
        "accountLabels": null,
        "dataMap": {
            "-1": {
                "invocation": {
                    "address": "0xe1a483235829f9927a98ce64669a828b5281beb1",
                    "callData": "",
                    "decodedMethod": null,
                    "errorInfo": "",
                    "fromAddress": "",
                    "gasUsed": 0,
                    "id": -1,
                    "methodDecoded": false,
                    "operation": "",
                    "output": "",
                    "revert": false,
                    "revertMessage": "",
                    "selector": "",
                    "status": false,
                    "value": ""
                },
                "nodeType": 0
            },
            "0": {
                "invocation": {
                    "address": "0x6651f86473b4de2850ed5b48a143a1e8a8671607",
                    "callData": "0x000000000000000000000000f205d4889fb4a6036e7d1507219013a45d117a76000000000000000000000000000000000000000000000002b5e3af16b1880000",
                    "decodedMethod": {
                        "callParams": [
                            {
                                "name": "_to",
                                "type": "address",
                                "value": "0xf205d4889fb4a6036e7d1507219013a45d117a76"
                            },
                            {
                                "decimalAvailable": true,
                                "name": "_value",
                                "type": "uint256",
                                "value": "50,000,000,000,000,000,000"
                            }
                        ],
                        "constructorArguments": "",
                        "name": "transfer",
                        "returnParams": [],
                        "signature": "transfer(address,uint256)"
                    },
                    "errorInfo": "",
                    "fromAddress": "0xe1a483235829f9927a98ce64669a828b5281beb1",
                    "gasUsed": 53355,
                    "id": 0,
                    "methodDecoded": true,
                    "operation": "CALL",
                    "output": "",
                    "revert": false,
                    "revertMessage": "",
                    "selector": "0xa9059cbb",
                    "status": true,
                    "value": "0"
                },
                "nodeType": 0
            },
            "1": {
                "event": {
                    "contract": "0x6651f86473b4de2850ed5b48a143a1e8a8671607",
                    "decodedLog": {
                        "name": "Transfer",
                        "params": [
                            {
                                "name": "from",
                                "type": "address",
                                "value": "0xe1a483235829f9927a98ce64669a828b5281beb1"
                            },
                            {
                                "name": "to",
                                "type": "address",
                                "value": "0xf205d4889fb4a6036e7d1507219013a45d117a76"
                            },
                            {
                                "decimalAvailable": true,
                                "name": "value",
                                "type": "uint256",
                                "value": "50,000,000,000,000,000,000"
                            }
                        ],
                        "signature": "Transfer(address,address,uint256)"
                    },
                    "id": 1,
                    "logData": "0x000000000000000000000000000000000000000000000002b5e3af16b1880000",
                    "logDecoded": true,
                    "operation": "EVENT",
                    "revert": false,
                    "status": true,
                    "topics": [
                        "0xddf252ad1be2c89b69c2b068fc378daa952ba7f163c4a11628f55a4df523b3ef",
                        "0x000000000000000000000000e1a483235829f9927a98ce64669a828b5281beb1",
                        "0x000000000000000000000000f205d4889fb4a6036e7d1507219013a45d117a76"
                    ]
                },
                "nodeType": 1
            }
        },
        "gasFlame": [
            {
                "children": [
                    {
                        "children": [
                            {
                                "children": [],
                                "depth": 0,
                                "name": "Initial Gas",
                                "value": 23256
                            },
                            {
                                "children": [],
                                "depth": 0,
                                "name": "Executed Gas",
                                "value": 30099
                            }
                        ],
                        "depth": -1,
                        "name": "Actual Gas Used",
                        "value": 53355
                    },
                    {
                        "children": [],
                        "depth": -1,
                        "name": "Refunded Gas",
                        "value": 0
                    }
                ],
                "depth": -2,
                "name": "Total Gas",
                "value": 53355
            }
        ],
        "isConfirmed": true,
        "mainTrace": [
            {
                "children": [
                    {
                        "children": [
                            {
                                "children": [],
                                "depth": 1,
                                "id": 1,
                                "order": 1
                            }
                        ],
                        "depth": 0,
                        "id": 0,
                        "order": 0
                    }
                ],
                "depth": -1,
                "id": -1,
                "order": -1
            }
        ],
        "mainTraceNodeCount": 2,
        "parentIdMap": {
            "0": -1,
            "1": 0
        },
        "tidyTrace": [
            {
                "children": [
                    {
                        "children": [
                            {
                                "children": [],
                                "depth": 1,
                                "id": 1,
                                "order": 1
                            }
                        ],
                        "depth": 0,
                        "id": 0,
                        "order": 0
                    }
                ],
                "depth": -1,
                "id": -1,
                "order": -1
            }
        ],
        "tidyTraceNodeCount": 2
    },
    "state_change": {
        "stateChanges": [
            {
                "address": "0x6651f86473b4de2850ed5b48a143a1e8a8671607",
                "erc": "",
                "slots": [
                    {
                        "current": "0x00000000000000000000000000000000000000000000081d3912be88f9f80000",
                        "key": "0x01ccbfa0072dda12b12be120c92896a9116fafd9d1c87817e164f8af7f0506eb",
                        "prev": "0x00000000000000000000000000000000000000000000081feef66d9fab800000"
                    },
                    {
                        "current": "0x000000000000000000000000000000000000000000000002b5e3af16b1880000",
                        "key": "0xec1fbf4b519bf57e354d0bd1b63a0288ba8d39e9b7acd4b05d9d37fe95028215",
                        "prev": "0x0000000000000000000000000000000000000000000000000000000000000000"
                    }
                ],
                "storageVariables": []
            }
        ]
    }
}