{
    "balance_change": {
        "balanceChanges": [
            {
                "account": "0x0000000000000000000000000000000000000000",
                "assets": [
                    {
                        "address": "0x1a100cf89d3218e1f673dd9ad163a45a9218dbe9",
                        "amount": "1",
                        "iconUrl": "",
                        "isERC1155": false,
                        "isERC721": true,
                        "sign": false,
                        "tokenID": "3045",
                        "value": ""
                    },
                    {
                        "address": "0x1a100cf89d3218e1f673dd9ad163a45a9218dbe9",
                        "amount": "1",
                        "iconUrl": "",
                        "isERC1155": false,
                        "isERC721": true,
                        "sign": false,
                        "tokenID": "3046",
                        "value": ""
                    },
                    {
                        "address": "0x1a100cf89d3218e1f673dd9ad163a45a9218dbe9",
                        "amount": "1",
                        "iconUrl": "",
                        "isERC1155": false,
                        "isERC721": true,
                        "sign": false,
                        "tokenID": "3047",
                        "value": ""
                    },
                    {
                        "address": "0x1a100cf89d3218e1f673dd9ad163a45a9218dbe9",
                        "amount": "1",
                        "iconUrl": "",
                        "isERC1155": false,
                        "isERC721": true,
                        "sign": false,
                        "tokenID": "3048",
                        "value": ""
                    },
                    {
                        "address": "0x1a100cf89d3218e1f673dd9ad163a45a9218dbe9",
                        "amount": "1",
                        "iconUrl": "",
                        "isERC1155": false,
                        "isERC721": true,
                        "sign": false,
                        "tokenID": "3049",
                        "value": ""
                    }
                ]
            },
            {
                "account": "0xf4b8d69cdd67a6dffd3bbffbf5ebe7af22ac6f7d",
                "assets": [
                    {
                        "address": "0x1a100cf89d3218e1f673dd9ad163a45a9218dbe9",
                        "amount": "1",
                        "iconUrl": "",
                        "isERC1155": false,
                        "isERC721": true,
                        "sign": true,
                        "tokenID": "3045",
                        "value": ""
                    },
                    {
                        "address": "0x1a100cf89d3218e1f673dd9ad163a45a9218dbe9",
                        "amount": "1",
                        "iconUrl": "",
                        "isERC1155": false,
                        "isERC721": true,
                        "sign": true,
                        "tokenID": "3046",
                        "value": ""
                    },
                    {
                        "address": "0x1a100cf89d3218e1f673dd9ad163a45a9218dbe9",
                        "amount": "1",
                        "iconUrl": "",
                        "isERC1155": false,
                        "isERC721": true,
                        "sign": true,
                        "tokenID": "3047",
                        "value": ""
                    },
                    {
                        "address": "0x1a100cf89d3218e1f673dd9ad163a45a9218dbe9",
                        "amount": "1",
                        "iconUrl": "",
                        "isERC1155": false,
                        "isERC721": true,
                        "sign": true,
                        "tokenID": "3048",
                        "value": ""
                    },
                    {
                        "address": "0x1a100cf89d3218e1f673dd9ad163a45a9218dbe9",
                        "amount": "1",
                        "iconUrl": "",
                        "isERC1155": false,
                        "isERC721": true,
                        "sign": true,
                        "tokenID": "3049",
                        "value": ""
                    }
                ]
            }
        ]
    },
    "profile": {
        "basic_info": {
            "baseFee": "12.042009627",
            "blockNumber": 14999404,
            "callData": "0xa0712d680000000000000000000000000000000000000000000000000000000000000005",
            "debugEnable": true,
            "errorInfo": "",
            "eventCount": 5,
            "feeRecipient": "0xc730b028da66ebb14f20e67c68dd809fbc49890d",
            "formatValue": "0",
            "gasLimit": 181786,
            "gasPrice": "17.042009627",
            "gasUsed": 181786,
            "intTxnCount": 0,
            "internalRevert": false,
            "internalRevertMessage": "",
            "isContractCreation": false,
            "isFlashloan": false,
            "maxFee": "105",
            "nonce": 4,
            "overwritedBlockNumber": -1,
            "priorityFee": "5",
            "receiver": "0x1a100cf89d3218e1f673dd9ad163a45a9218dbe9",
            "revertMessage": "",
            "sender": "0xf4b8d69cdd67a6dffd3bbffbf5ebe7af22ac6f7d",
            "simulationEnable": true,
            "sourceTxnHash": "0x662a9f9a7ab6b5b6be0ade886ba9fb4b63debe85b23720000032da5b62a2a367",
            "status": true,
            "timestamp": "2022-06-21T00:01:57Z",
            "transactionFee": "0.003097998762053822",
            "txnHash": "0x662a9f9a7ab6b5b6be0ade886ba9fb4b63debe85b23720000032da5b62a2a367",
            "txnIndex": 22,
            "type": 2,
            "value": "0"
        },
        "fund_flow": [
            {
                "amount": "1",
                "from": "0x0000000000000000000000000000000000000000",
                "id": 1,
                "isERC1155": false,
                "isERC721": true,
                "isReverted": false,
                "order": 1,
                "to": "0xf4b8d69cdd67a6dffd3bbffbf5ebe7af22ac6f7d",
                "token": "0x1a100cf89d3218e1f673dd9ad163a45a9218dbe9",
                "tokenID": "3045"
            },
            {
                "amount": "1",
                "from": "0x0000000000000000000000000000000000000000",
                "id": 2,
                "isERC1155": false,
                "isERC721": true,
                "isReverted": false,
                "order": 2,
                "to": "0xf4b8d69cdd67a6dffd3bbffbf5ebe7af22ac6f7d",
                "token": "0x1a100cf89d3218e1f673dd9ad163a45a9218dbe9",
                "tokenID": "3046"
            },
            {
                "amount": "1",
                "from": "0x0000000000000000000000000000000000000000",
                "id": 3,
                "isERC1155": false,
                "isERC721": true,
                "isReverted": false,
                "order": 3,
                "to": "0xf4b8d69cdd67a6dffd3bbffbf5ebe7af22ac6f7d",
                "token": "0x1a100cf89d3218e1f673dd9ad163a45a9218dbe9",
                "tokenID": "3047"
            },
            {
                "amount": "1",
                "from": "0x0000000000000000000000000000000000000000",
                "id": 4,
                "isERC1155": false,
                "isERC721": true,
                "isReverted": false,
                "order": 4,
                "to": "0xf4b8d69cdd67a6dffd3bbffbf5ebe7af22ac6f7d",
                "token": "0x1a100cf89d3218e1f673dd9ad163a45a9218dbe9",
                "tokenID": "3048"
            },
            {
                "amount": "1",
                "from": "0x0000000000000000000000000000000000000000",
                "id": 5,
                "isERC1155": false,
                "isERC721": true,
                "isReverted": false,
                "order": 5,
                "to": "0xf4b8d69cdd67a6dffd3bbffbf5ebe7af22ac6f7d",
                "token": "0x1a100cf89d3218e1f673dd9ad163a45a9218dbe9",
                "tokenID": "3049"
            }
        ],
        "token_infos": [
            {
                "address": "0xc02aaa39b223fe8d0a0e5c4f27ead9083c756cc2",
                "decimals": 18
            },
            {
                "address": "0xeeeeeeeeeeeeeeeeeeeeeeeeeeeeeeeeeeeeeeee",
                "decimals": 18
            }
        ]
    },
    "address_label": {
        "labels": [
            {
                "address": "0xeeeeeeeeeeeeeeeeeeeeeeeeeeeeeeeeeeeeeeee",
                "label": "Ether"
            },
            {
                "address": "0x1a100cf89d3218e1f673dd9ad163a45a9218dbe9",
                "label": "Cumming"
            },
            {
                "address": "0x0000000000000000000000000000000000000001",
                "label": "Precompiled"
            },
            {
                "address": "0x0000000000000000000000000000000000000002",
                "label": "Precompiled"
            },
            {
                "address": "0x0000000000000000000000000000000000000003",
                "label": "Precompiled"
            },
            {
                "address": "0x0000000000000000000000000000000000000004",
                "label": "Precompiled"
            }
        ]
    },
    "trace": {
        "accountLabels": null,
        "dataMap": {
            "-1": {
                "invocation": {
                    "address": "0xf4b8d69cdd67a6dffd3bbffbf5ebe7af22ac6f7d",
                    "callData": "",
                    "decodedMethod": null,
                    "errorInfo": "",
                    "fromAddress": "",
                    "gasUsed": 0,
                    "id": -1,
                    "methodDecoded": false,
                    "operation": "",
                    "output": "",
                    "revert": false,
                    "revertMessage": "",
                    "selector": "",
                    "status": false,
                    "value": ""
                },
                "nodeType": 0
            },
            "0": {
                "invocation": {
                    "address": "0x1a100cf89d3218e1f673dd9ad163a45a9218dbe9",
                    "callData": "0x0000000000000000000000000000000000000000000000000000000000000005",
                    "decodedMethod": {
                        "callParams": [
                            {
                                "name": "amount",
                                "type": "uint256",
                                "value": "5"
                            }
                        ],
                        "constructorArguments": "",
                        "name": "mint",
                        "returnParams": [],
                        "signature": "mint(uint256)"
                    },
                    "errorInfo": "",
                    "fromAddress": "0xf4b8d69cdd67a6dffd3bbffbf5ebe7af22ac6f7d",
                    "gasUsed": 181786,
                    "id": 0,
                    "methodDecoded": true,
                    "operation": "CALL",
                    "output": "",
                    "revert": false,
                    "revertMessage": "",
                    "selector": "0xa0712d68",
                    "status": true,
                    "value": "0"
                },
                "nodeType": 0
            },
            "1": {
                "event": {
                    "contract": "0x1a100cf89d3218e1f673dd9ad163a45a9218dbe9",
                    "decodedLog": {
                        "name": "Transfer",
                        "params": [
                            {
                                "name": "from",
                                "type": "address",
                                "value": "0x0000000000000000000000000000000000000000"
                            },
                            {
                                "name": "to",
                                "type": "address",
                                "value": "0xf4b8d69cdd67a6dffd3bbffbf5ebe7af22ac6f7d"
                            },
                            {
                                "decimalAvailable": true,
                                "name": "tokenId",
                                "type": "uint256",
                                "value": "3,045"
                            }
                        ],
                        "signature": "Transfer(address,address,uint256)"
                    },
                    "id": 1,
                    "logData": "0x",
                    "logDecoded": true,
                    "operation": "EVENT",
                    "revert": false,
                    "status": true,
                    "topics": [
                        "0xddf252ad1be2c89b69c2b068fc378daa952ba7f163c4a11628f55a4df523b3ef",
                        "0x0000000000000000000000000000000000000000000000000000000000000000",
                        "0x000000000000000000000000f4b8d69cdd67a6dffd3bbffbf5ebe7af22ac6f7d",
                        "0x0000000000000000000000000000000000000000000000000000000000000be5"
                    ]
                },
                "nodeType": 1
            },
            "2": {
                "event": {
                    "contract": "0x1a100cf89d3218e1f673dd9ad163a45a9218dbe9",
                    "decodedLog": {
                        "name": "Transfer",
                        "params": [
                            {
                                "name": "from",
                                "type": "address",
                                "value": "0x0000000000000000000000000000000000000000"
                            },
                            {
                                "name": "to",
                                "type": "address",
                                "value": "0xf4b8d69cdd67a6dffd3bbffbf5ebe7af22ac6f7d"
                            },
                            {
                                "decimalAvailable": true,
                                "name": "tokenId",
                                "type": "uint256",
                                "value": "3,046"
                            }
                        ],
                        "signature": "Transfer(address,address,uint256)"
                    },
                    "id": 2,
                    "logData": "0x",
                    "logDecoded": true,
                    "operation": "EVENT",
                    "revert": false,
                    "status": true,
                    "topics": [
                        "0xddf252ad1be2c89b69c2b068fc378daa952ba7f163c4a11628f55a4df523b3ef",
                        "0x0000000000000000000000000000000000000000000000000000000000000000",
                        "0x000000000000000000000000f4b8d69cdd67a6dffd3bbffbf5ebe7af22ac6f7d",
                        "0x0000000000000000000000000000000000000000000000000000000000000be6"
                    ]
                },
                "nodeType": 1
            },
            "3": {
                "event": {
                    "contract": "0x1a100cf89d3218e1f673dd9ad163a45a9218dbe9",
                    "decodedLog": {
                        "name": "Transfer",
                        "params": [
                            {
                                "name": "from",
                                "type": "address",
                                "value": "0x0000000000000000000000000000000000000000"
                            },
                            {
                                "name": "to",
                                "type": "address",
                                "value": "0xf4b8d69cdd67a6dffd3bbffbf5ebe7af22ac6f7d"
                            },
                            {
                                "decimalAvailable": true,
                                "name": "tokenId",
                                "type": "uint256",
                                "value": "3,047"
                            }
                        ],
                        "signature": "Transfer(address,address,uint256)"
                    },
                    "id": 3,
                    "logData": "0x",
                    "logDecoded": true,
                    "operation": "EVENT",
                    "revert": false,
                    "status": true,
                    "topics": [
                        "0xddf252ad1be2c89b69c2b068fc378daa952ba7f163c4a11628f55a4df523b3ef",
                        "0x0000000000000000000000000000000000000000000000000000000000000000",
                        "0x000000000000000000000000f4b8d69cdd67a6dffd3bbffbf5ebe7af22ac6f7d",
                        "0x0000000000000000000000000000000000000000000000000000000000000be7"
                    ]
                },
                "nodeType": 1
            },
            "4": {
                "event": {
                    "contract": "0x1a100cf89d3218e1f673dd9ad163a45a9218dbe9",
                    "decodedLog": {
                        "name": "Transfer",
                        "params": [
                            {
                                "name": "from",
                                "type": "address",
                                "value": "0x0000000000000000000000000000000000000000"
                            },
                            {
                                "name": "to",
                                "type": "address",
                                "value": "0xf4b8d69cdd67a6dffd3bbffbf5ebe7af22ac6f7d"
                            },
                            {
                                "decimalAvailable": true,
                                "name": "tokenId",
                                "type": "uint256",
                                "value": "3,048"
                            }
                        ],
                        "signature": "Transfer(address,address,uint256)"
                    },
                    "id": 4,
                    "logData": "0x",
                    "logDecoded": true,
                    "operation": "EVENT",
                    "revert": false,
                    "status": true,
                    "topics": [
                        "0xddf252ad1be2c89b69c2b068fc378daa952ba7f163c4a11628f55a4df523b3ef",
                        "0x0000000000000000000000000000000000000000000000000000000000000000",
                        "0x000000000000000000000000f4b8d69cdd67a6dffd3bbffbf5ebe7af22ac6f7d",
                        "0x0000000000000000000000000000000000000000000000000000000000000be8"
                    ]
                },
                "nodeType": 1
            },
            "5": {
                "event": {
                    "contract": "0x1a100cf89d3218e1f673dd9ad163a45a9218dbe9",
                    "decodedLog": {
                        "name": "Transfer",
                        "params": [
                            {
                                "name": "from",
                                "type": "address",
                                "value": "0x0000000000000000000000000000000000000000"
                            },
                            {
                                "name": "to",
                                "type": "address",
                                "value": "0xf4b8d69cdd67a6dffd3bbffbf5ebe7af22ac6f7d"
                            },
                            {
                                "decimalAvailable": true,
                                "name": "tokenId",
                                "type": "uint256",
                                "value": "3,049"
                            }
                        ],
                        "signature": "Transfer(address,address,uint256)"
                    },
                    "id": 5,
                    "logData": "0x",
                    "logDecoded": true,
                    "operation": "EVENT",
                    "revert": false,
                    "status": true,
                    "topics": [
                        "0xddf252ad1be2c89b69c2b068fc378daa952ba7f163c4a11628f55a4df523b3ef",
                        "0x0000000000000000000000000000000000000000000000000000000000000000",
                        "0x000000000000000000000000f4b8d69cdd67a6dffd3bbffbf5ebe7af22ac6f7d",
                        "0x0000000000000000000000000000000000000000000000000000000000000be9"
                    ]
                },
                "nodeType": 1
            }
        },
        "gasFlame": [
            {
                "children": [
                    {
                        "children": [
                            {
                                "children": [],
                                "depth": 0,
                                "name": "Initial Gas",
                                "value": 21204
                            },
                            {
                                "children": [],
                                "depth": 0,
                                "name": "Executed Gas",
                                "value": 160582
                            }
                        ],
                        "depth": -1,
                        "name": "Actual Gas Used",
                        "value": 181786
                    },
                    {
                        "children": [],
                        "depth": -1,
                        "name": "Refunded Gas",
                        "value": 0
                    }
                ],
                "depth": -2,
                "name": "Total Gas",
                "value": 181786
            }
        ],
        "isConfirmed": true,
        "mainTrace": [
            {
                "children": [
                    {
                        "children": [
                            {
                                "children": [],
                                "depth": 1,
                                "id": 1,
                                "order": 1
                            },
                            {
                                "children": [],
                                "depth": 1,
                                "id": 2,
                                "order": 2
                            },
                            {
                                "children": [],
                                "depth": 1,
                                "id": 3,
                                "order": 3
                            },
                            {
                                "children": [],
                                "depth": 1,
                                "id": 4,
                                "order": 4
                            },
                            {
                                "children": [],
                                "depth": 1,
                                "id": 5,
                                "order": 5
                            }
                        ],
                        "depth": 0,
                        "id": 0,
                        "order": 0
                    }
                ],
                "depth": -1,
                "id": -1,
                "order": -1
            }
        ],
        "mainTraceNodeCount": 6,
        "parentIdMap": {
            "0": -1,
            "1": 0,
            "2": 0,
            "3": 0,
            "4": 0,
            "5": 0
        },
        "tidyTrace": [
            {
                "children": [
                    {
                        "children": [
                            {
                                "children": [],
                                "depth": 1,
                                "id": 1,
                                "order": 1
                            },
                            {
                                "children": [],
                                "depth": 1,
                                "id": 2,
                                "order": 2
                            },
                            {
                                "children": [],
                                "depth": 1,
                                "id": 3,
                                "order": 3
                            },
                            {
                                "children": [],
                                "depth": 1,
                                "id": 4,
                                "order": 4
                            },
                            {
                                "children": [],
                                "depth": 1,
                                "id": 5,
                                "order": 5
                            }
                        ],
                        "depth": 0,
                        "id": 0,
                        "order": 0
                    }
                ],
                "depth": -1,
                "id": -1,
                "order": -1
            }
        ],
        "tidyTraceNodeCount": 6
    },
    "state_change": {
        "stateChanges": [
            {
                "address": "0x1a100cf89d3218e1f673dd9ad163a45a9218dbe9",
                "erc": "ERC-721",
                "slots": [
                    {
                        "current": "0x0000000000000000000000000000000000000000000000000000000000000be9",
                        "key": "0x0000000000000000000000000000000000000000000000000000000000000008",
                        "prev": "0x0000000000000000000000000000000000000000000000000000000000000be4"
                    },
                    {
                        "current": "0x0000000000000000000000000000000000000000000000000000000000000005",
                        "key": "0x4058d91e21e37a7e42dd981b6623add08ac147c966e4fbea8b06185390bdcdc3",
                        "prev": "0x0000000000000000000000000000000000000000000000000000000000000000"
                    },
                    {
                        "current": "0x000000000000000000000000f4b8d69cdd67a6dffd3bbffbf5ebe7af22ac6f7d",
                        "key": "0x3b6a7e53a13ba2f988e9cb0f110d8f67ebda37f8a5749ba30ae162d30bc8669d",
                        "prev": "0x0000000000000000000000000000000000000000000000000000000000000000"
                    },
                    {
                        "current": "0x000000000000000000000000f4b8d69cdd67a6dffd3bbffbf5ebe7af22ac6f7d",
                        "key": "0x5674ae2685c875091126cf8284b2b242ea7fc7e50fe2ef38832f0b2231e693cc",
                        "prev": "0x0000000000000000000000000000000000000000000000000000000000000000"
                    },
                    {
                        "current": "0x000000000000000000000000f4b8d69cdd67a6dffd3bbffbf5ebe7af22ac6f7d",
                        "key": "0x8142a4e3ff2d85f0772e1197a359232378ee202d8acfe330c103a65c12d1f85a",
                        "prev": "0x0000000000000000000000000000000000000000000000000000000000000000"
                    },
                    {
                        "current": "0x000000000000000000000000f4b8d69cdd67a6dffd3bbffbf5ebe7af22ac6f7d",
                        "key": "0xf10e402de3c57b86014b71fcf245387a3de3646116c7a901812288003c11c7fb",
                        "prev": "0x0000000000000000000000000000000000000000000000000000000000000000"
                    },
                    {
                        "current": "0x000000000000000000000000f4b8d69cdd67a6dffd3bbffbf5ebe7af22ac6f7d",
                        "key": "0xd9f090e7beaeca8f4fed3e1bc0a5686e61d4171d9cc468d4e9eadf42c0afb054",
                        "prev": "0x0000000000000000000000000000000000000000000000000000000000000000"
                    }
                ],
                "storageVariables": [
                    {
                        "name": "_balances",
                        "type": "mapping(address => uint256)",
                        "value": {
                            "pairs": [
                                {
                                    "key": "0xf4b8d69cdd67a6dffd3bbffbf5ebe7af22ac6f7d",
                                    "value": {
                                        "current": "5",
                                        "prev": "0",
                                        "typeTag": 1
                                    }
                                }
                            ],
                            "typeTag": 4
                        }
                    },
                    {
                        "name": "_owners",
                        "type": "mapping(uint256 => address)",
                        "value": {
                            "pairs": [
                                {
                                    "key": "3045",
                                    "value": {
                                        "current": "0xf4b8d69cdd67a6dffd3bbffbf5ebe7af22ac6f7d",
                                        "prev": "0x0000000000000000000000000000000000000000",
                                        "typeTag": 1
                                    }
                                },
                                {
                                    "key": "3046",
                                    "value": {
                                        "current": "0xf4b8d69cdd67a6dffd3bbffbf5ebe7af22ac6f7d",
                                        "prev": "0x0000000000000000000000000000000000000000",
                                        "typeTag": 1
                                    }
                                },
                                {
                                    "key": "3047",
                                    "value": {
                                        "current": "0xf4b8d69cdd67a6dffd3bbffbf5ebe7af22ac6f7d",
                                        "prev": "0x0000000000000000000000000000000000000000",
                                        "typeTag": 1
                                    }
                                },
                                {
                                    "key": "3048",
                                    "value": {
                                        "current": "0xf4b8d69cdd67a6dffd3bbffbf5ebe7af22ac6f7d",
                                        "prev": "0x0000000000000000000000000000000000000000",
                                        "typeTag": 1
                                    }
                                },
                                {
                                    "key": "3049",
                                    "value": {
                                        "current": "0xf4b8d69cdd67a6dffd3bbffbf5ebe7af22ac6f7d",
                                        "prev": "0x0000000000000000000000000000000000000000",
                                        "typeTag": 1
                                    }
                                }
                            ],
                            "typeTag": 4
                        }
                    },
                    {
                        "name": "_tokenIds",
                        "type": "struct Counters.Counter",
                        "value": {
                            "fields": [
                                {
                                    "name": "_value",
                                    "type": "uint256",
                                    "value": {
                                        "current": "3049",
                                        "prev": "3044",
                                        "typeTag": 1
                                    }
                                }
                            ],
                            "typeTag": 3
                        }
                    }
                ]
            }
        ]
    }
}