{
    "balance_change": {
        "balanceChanges": []
    },
    "profile": {
        "basic_info": {
            "baseFee": "",
            "blockNumber": 10425970,
            "callData": "0x202ee0ed000000000000000000000000000000000000000000000000000000000000016c000000000000000000000000000000000000000000000000000000059cb70e17",
            "debugEnable": true,
            "errorInfo": "",
            "eventCount": 4,
            "feeRecipient": "0xea674fdde714fd979de3edf0f56aa9716b898ec8",
            "formatValue": "0",
            "gasLimit": 500000,
            "gasPrice": "74.4",
            "gasUsed": 188191,
            "intTxnCount": 0,
            "internalRevert": false,
            "internalRevertMessage": "",
            "isContractCreation": false,
            "isFlashloan": false,
            "maxFee": "",
            "nonce": 111327,
            "overwritedBlockNumber": -1,
            "priorityFee": "",
            "receiver": "0xefcbc7ddbdb7204db12cccb13b7866d96836a81f",
            "revertMessage": "",
            "sender": "0xd45727e3d7405c6ab3b2b3a57474012e1f998483",
            "simulationEnable": true,
            "sourceTxnHash": "0x666270c18b0491b057b3c5df36c09b47fb206e0c589c095bbf524cbbe046230b",
            "status": true,
            "timestamp": "2020-07-09T15:02:11Z",
            "transactionFee": "0.0140014104",
            "txnHash": "0x666270c18b0491b057b3c5df36c09b47fb206e0c589c095bbf524cbbe046230b",
            "txnIndex": 26,
            "type": 0,
            "value": "0"
        },
        "fund_flow": [],
        "token_infos": [
            {
                "address": "0xc02aaa39b223fe8d0a0e5c4f27ead9083c756cc2",
                "decimals": 18
            },
            {
                "address": "0xeeeeeeeeeeeeeeeeeeeeeeeeeeeeeeeeeeeeeeee",
                "decimals": 18
            }
        ]
    },
    "address_label": {
        "labels": [
            {
                "address": "0x0000000000000000000000000000000000000003",
                "label": "Precompiled"
            },
            {
                "address": "0x0000000000000000000000000000000000000004",
                "label": "Precompiled"
            },
            {
                "address": "0xeeeeeeeeeeeeeeeeeeeeeeeeeeeeeeeeeeeeeeee",
                "label": "Ether"
            },
            {
                "address": "0xefcbc7ddbdb7204db12cccb13b7866d96836a81f",
                "label": "AccessControlledAggregator"
            },
            {
                "address": "0x0000000000000000000000000000000000000001",
                "label": "Precompiled"
            },
            {
                "address": "0x0000000000000000000000000000000000000002",
                "label": "Precompiled"
            }
        ]
    },
    "trace": {
        "accountLabels": null,
        "dataMap": {
            "-1": {
                "invocation": {
                    "address": "0xd45727e3d7405c6ab3b2b3a57474012e1f998483",
                    "callData": "",
                    "decodedMethod": null,
                    "errorInfo": "",
                    "fromAddress": "",
                    "gasUsed": 0,
                    "id": -1,
                    "methodDecoded": false,
                    "operation": "",
                    "output": "",
                    "revert": false,
                    "revertMessage": "",
                    "selector": "",
                    "status": false,
                    "value": ""
                },
                "nodeType": 0
            },
            "0": {
                "invocation": {
                    "address": "0xefcbc7ddbdb7204db12cccb13b7866d96836a81f",
                    "callData": "0x000000000000000000000000000000000000000000000000000000000000016c000000000000000000000000000000000000000000000000000000059cb70e17",
                    "decodedMethod": {
                        "callParams": [
                            {
                                "name": "_roundId",
                                "type": "uint256",
                                "value": "364"
                            },
                            {
                                "name": "_submission",
                                "type": "int256",
                                "value": "24,104,078,871"
                            }
                        ],
                        "constructorArguments": "",
                        "name": "submit",
                        "returnParams": [],
                        "signature": "submit(uint256,int256)"
                    },
                    "errorInfo": "",
                    "fromAddress": "0xd45727e3d7405c6ab3b2b3a57474012e1f998483",
                    "gasUsed": 188191,
                    "id": 0,
                    "methodDecoded": true,
                    "operation": "CALL",
                    "output": "",
                    "revert": false,
                    "revertMessage": "",
                    "selector": "0x202ee0ed",
                    "status": true,
                    "value": "0"
                },
                "nodeType": 0
            },
            "1": {
                "event": {
                    "contract": "0xefcbc7ddbdb7204db12cccb13b7866d96836a81f",
                    "decodedLog": {
                        "name": "NewRound",
                        "params": [
                            {
                                "name": "roundId",
                                "type": "uint256",
                                "value": "364"
                            },
                            {
                                "name": "startedBy",
                                "type": "address",
                                "value": "0xd45727e3d7405c6ab3b2b3a57474012e1f998483"
                            },
                            {
                                "name": "startedAt",
                                "type": "uint256",
                                "value": "1,594,306,931"
                            }
                        ],
                        "signature": "NewRound(uint256,address,uint256)"
                    },
                    "id": 1,
                    "logData": "0x000000000000000000000000000000000000000000000000000000005f073173",
                    "logDecoded": true,
                    "operation": "EVENT",
                    "revert": false,
                    "status": true,
                    "topics": [
                        "0x0109fc6f55cf40689f02fbaad7af7fe7bbac8a3d2186600afc7d3e10cac60271",
                        "0x000000000000000000000000000000000000000000000000000000000000016c",
                        "0x000000000000000000000000d45727e3d7405c6ab3b2b3a57474012e1f998483"
                    ]
                },
                "nodeType": 1
            },
            "2": {
                "event": {
                    "contract": "0xefcbc7ddbdb7204db12cccb13b7866d96836a81f",
                    "decodedLog": {
                        "name": "SubmissionReceived",
                        "params": [
                            {
                                "name": "submission",
                                "type": "int256",
                                "value": "24,104,078,871"
                            },
                            {
                                "name": "round",
                                "type": "uint32",
                                "value": "364"
                            },
                            {
                                "name": "oracle",
                                "type": "address",
                                "value": "0xd45727e3d7405c6ab3b2b3a57474012e1f998483"
                            }
                        ],
                        "signature": "SubmissionReceived(int256,uint32,address)"
                    },
                    "id": 2,
                    "logData": "0x",
                    "logDecoded": true,
                    "operation": "EVENT",
                    "revert": false,
                    "status": true,
                    "topics": [
                        "0x92e98423f8adac6e64d0608e519fd1cefb861498385c6dee70d58fc926ddc68c",
                        "0x000000000000000000000000000000000000000000000000000000059cb70e17",
                        "0x000000000000000000000000000000000000000000000000000000000000016c",
                        "0x000000000000000000000000d45727e3d7405c6ab3b2b3a57474012e1f998483"
                    ]
                },
                "nodeType": 1
            },
            "3": {
                "event": {
                    "contract": "0xefcbc7ddbdb7204db12cccb13b7866d96836a81f",
                    "decodedLog": {
                        "name": "AnswerUpdated",
                        "params": [
                            {
                                "name": "current",
                                "type": "int256",
                                "value": "24,104,078,871"
                            },
                            {
                                "name": "roundId",
                                "type": "uint256",
                                "value": "364"
                            },
                            {
                                "name": "timestamp",
                                "type": "uint256",
                                "value": "1,594,306,931"
                            }
                        ],
                        "signature": "AnswerUpdated(int256,uint256,uint256)"
                    },
                    "id": 3,
                    "logData": "0x000000000000000000000000000000000000000000000000000000005f073173",
                    "logDecoded": true,
                    "operation": "EVENT",
                    "revert": false,
                    "status": true,
                    "topics": [
                        "0x0559884fd3a460db3073b7fc896cc77986f16e378210ded43186175bf646fc5f",
                        "0x000000000000000000000000000000000000000000000000000000059cb70e17",
                        "0x000000000000000000000000000000000000000000000000000000000000016c"
                    ]
                },
                "nodeType": 1
            },
            "4": {
                "event": {
                    "contract": "0xefcbc7ddbdb7204db12cccb13b7866d96836a81f",
                    "decodedLog": {
                        "name": "AvailableFundsUpdated",
                        "params": [
                            {
                                "name": "amount",
                                "type": "uint256",
                                "value": "1,043,500,000,000,000,000,000"
                            }
                        ],
                        "signature": "AvailableFundsUpdated(uint256)"
                    },
                    "id": 4,
                    "logData": "0x",
                    "logDecoded": true,
                    "operation": "EVENT",
                    "revert": false,
                    "status": true,
                    "topics": [
                        "0xfe25c73e3b9089fac37d55c4c7efcba6f04af04cebd2fc4d6d7dbb07e1e5234f",
                        "0x0000000000000000000000000000000000000000000000389178b94cd01e0000"
                    ]
                },
                "nodeType": 1
            }
        },
        "gasFlame": [
            {
                "children": [
                    {
                        "children": [
                            {
                                "children": [],
                                "depth": 0,
                                "name": "Initial Gas",
                                "value": 21404
                            },
                            {
                                "children": [],
                                "depth": 0,
                                "name": "Executed Gas",
                                "value": 166787
                            }
                        ],
                        "depth": -1,
                        "name": "Actual Gas Used",
                        "value": 188191
                    },
                    {
                        "children": [],
                        "depth": -1,
                        "name": "Refunded Gas",
                        "value": 0
                    }
                ],
                "depth": -2,
                "name": "Total Gas",
                "value": 188191
            }
        ],
        "isConfirmed": true,
        "mainTrace": [
            {
                "children": [
                    {
                        "children": [
                            {
                                "children": [],
                                "depth": 1,
                                "id": 1,
                                "order": 1
                            },
                            {
                                "children": [],
                                "depth": 1,
                                "id": 2,
                                "order": 2
                            },
                            {
                                "children": [],
                                "depth": 1,
                                "id": 3,
                                "order": 3
                            },
                            {
                                "children": [],
                                "depth": 1,
                                "id": 4,
                                "order": 4
                            }
                        ],
                        "depth": 0,
                        "id": 0,
                        "order": 0
                    }
                ],
                "depth": -1,
                "id": -1,
                "order": -1
            }
        ],
        "mainTraceNodeCount": 5,
        "parentIdMap": {
            "0": -1,
            "1": 0,
            "2": 0,
            "3": 0,
            "4": 0
        },
        "tidyTrace": [
            {
                "children": [
                    {
                        "children": [
                            {
                                "children": [],
                                "depth": 1,
                                "id": 1,
                                "order": 1
                            },
                            {
                                "children": [],
                                "depth": 1,
                                "id": 2,
                                "order": 2
                            },
                            {
                                "children": [],
                                "depth": 1,
                                "id": 3,
                                "order": 3
                            },
                            {
                                "children": [],
                                "depth": 1,
                                "id": 4,
                                "order": 4
                            }
                        ],
                        "depth": 0,
                        "id": 0,
                        "order": 0
                    }
                ],
                "depth": -1,
                "id": -1,
                "order": -1
            }
        ],
        "tidyTraceNodeCount": 5
    },
    "state_change": {
        "stateChanges": [
            {
                "address": "0xefcbc7ddbdb7204db12cccb13b7866d96836a81f",
                "erc": "",
                "slots": [
                    {
                        "current": "0x0000016c0000016cffffffff00000001000000000000000649d2c967d9500000",
                        "key": "0xc7c530f0271b632bcd13e8a9e09ec70376c6d24b64674ade904e5f9a27561b94",
                        "prev": "0x000001680000016bffffffff00000001000000000000000642e26e0e059e0000"
                    },
                    {
                        "current": "0x0000000000000000000000000000016c000000005f073173000000005f073173",
                        "key": "0x6e48fdccbf2eed2f4ddd54df2e076f4db5fe3909a287b4c1838aa91be6179f8b",
                        "prev": "0x0000000000000000000000000000000000000000000000000000000000000000"
                    },
                    {
                        "current": "0x000000000000000000000000000000000000000000000000000000059cb70e17",
                        "key": "0xc7c530f0271b632bcd13e8a9e09ec70376c6d24b64674ade904e5f9a27561b95",
                        "prev": "0x00000000000000000000000000000000000000000000000000000005a6c25021"
                    },
                    {
                        "current": "0x0000000000000000000000000000000000000000000000000000000000000001",
                        "key": "0x6e48fdccbf2eed2f4ddd54df2e076f4db5fe3909a287b4c1838aa91be6179f8c",
                        "prev": "0x0000000000000000000000000000000000000000000000000000000000000000"
                    },
                    {
                        "current": "0x00000000000000389178b94cd01e0000000000000000004b1baccd4e6fb60000",
                        "key": "0x0000000000000000000000000000000000000000000000000000000000000003",
                        "prev": "0x0000000000000038986914a6a3d00000000000000000004b14bc71f49c040000"
                    },
                    {
                        "current": "0x00000000000000000000000006f05b59d3b2000000000e100000000100000015",
                        "key": "0x6e48fdccbf2eed2f4ddd54df2e076f4db5fe3909a287b4c1838aa91be6179f8d",
                        "prev": "0x0000000000000000000000000000000000000000000000000000000000000000"
                    },
                    {
                        "current": "0x000000000000000000000000000000000000000000000000000000059cb70e17",
                        "key": "0x554d65c97fb0c6742f265bd34a193765e19d211297067b0d8ee9440a025d40ac",
                        "prev": "0x0000000000000000000000000000000000000000000000000000000000000000"
                    },
                    {
                        "current": "0x000000000000000000000000000000000000000000000000000000059cb70e17",
                        "key": "0x6e48fdccbf2eed2f4ddd54df2e076f4db5fe3909a287b4c1838aa91be6179f8a",
                        "prev": "0x0000000000000000000000000000000000000000000000000000000000000000"
                    },
                    {
                        "current": "0x0000000000000000000000000000000000000000000000000000016c0000016c",
                        "key": "0x0000000000000000000000000000000000000000000000000000000000000007",
                        "prev": "0x0000000000000000000000000000000000000000000000000000016b0000016b"
                    }
                ],
                "storageVariables": [
                    {
                        "name": "oracles",
                        "type": "mapping(address => struct FluxAggregator.OracleStatus)",
                        "value": {
                            "pairs": [
                                {
                                    "key": "0xd45727e3d7405c6ab3b2b3a57474012e1f998483",
                                    "value": {
                                        "fields": [
                                            {
                                                "name": "withdrawable",
                                                "type": "uint128",
                                                "value": {
                                                    "current": "116000000000000000000",
                                                    "prev": "115500000000000000000",
                                                    "typeTag": 1
                                                }
                                            },
                                            {
                                                "name": "startingRound",
                                                "type": "uint32",
                                                "value": {
                                                    "current": "1",
                                                    "prev": "1",
                                                    "typeTag": 1
                                                }
                                            },
                                            {
                                                "name": "endingRound",
                                                "type": "uint32",
                                                "value": {
                                                    "current": "4294967295",
                                                    "prev": "4294967295",
                                                    "typeTag": 1
                                                }
                                            },
                                            {
                                                "name": "lastReportedRound",
                                                "type": "uint32",
                                                "value": {
                                                    "current": "364",
                                                    "prev": "363",
                                                    "typeTag": 1
                                                }
                                            },
                                            {
                                                "name": "lastStartedRound",
                                                "type": "uint32",
                                                "value": {
                                                    "current": "364",
                                                    "prev": "360",
                                                    "typeTag": 1
                                                }
                                            },
                                            {
                                                "name": "latestSubmission",
                                                "type": "int256",
                                                "value": {
                                                    "current": "24104078871",
                                                    "prev": "24272588833",
                                                    "typeTag": 1
                                                }
                                            }
                                        ],
                                        "typeTag": 3
                                    }
                                }
                            ],
                            "typeTag": 4
                        }
                    },
                    {
                        "name": "allocatedFunds",
                        "type": "uint128",
                        "value": {
                            "current": "1385500000000000000000",
                            "prev": "1385000000000000000000",
                            "typeTag": 1
                        }
                    },
                    {
                        "name": "availableFunds",
                        "type": "uint128",
                        "value": {
                            "current": "1043500000000000000000",
                            "prev": "1044000000000000000000",
                            "typeTag": 1
                        }
                    },
                    {
                        "name": "rounds",
                        "type": "mapping(uint32 => struct FluxAggregator.Round)",
                        "value": {
                            "pairs": [
                                {
                                    "key": "364",
                                    "value": {
                                        "fields": [
                                            {
                                                "name": "answer",
                                                "type": "int256",
                                                "value": {
                                                    "current": "24104078871",
                                                    "prev": "0",
                                                    "typeTag": 1
                                                }
                                            },
                                            {
                                                "name": "startedAt",
                                                "type": "uint64",
                                                "value": {
                                                    "current": "1594306931",
                                                    "prev": "0",
                                                    "typeTag": 1
                                                }
                                            },
                                            {
                                                "name": "updatedAt",
                                                "type": "uint64",
                                                "value": {
                                                    "current": "1594306931",
                                                    "prev": "0",
                                                    "typeTag": 1
                                                }
                                            },
                                            {
                                                "name": "answeredInRound",
                                                "type": "uint32",
                                                "value": {
                                                    "current": "364",
                                                    "prev": "0",
                                                    "typeTag": 1
                                                }
                                            },
                                            {
                                                "name": "details",
                                                "type": "struct FluxAggregator.RoundDetails",
                                                "value": {
                                                    "fields": [
                                                        {
                                                            "name": "submissions",
                                                            "type": "int256[]",
                                                            "value": {
                                                                "elemType": "int256",
                                                                "elems": [
                                                                    {
                                                                        "index": 0,
                                                                        "value": {
                                                                            "current": "24104078871",
                                                                            "prev": "0",
                                                                            "typeTag": 1
                                                                        }
                                                                    }
                                                                ],
                                                                "typeTag": 2
                                                            }
                                                        },
                                                        {
                                                            "name": "maxSubmissions",
                                                            "type": "uint32",
                                                            "value": {
                                                                "current": "21",
                                                                "prev": "0",
                                                                "typeTag": 1
                                                            }
                                                        },
                                                        {
                                                            "name": "minSubmissions",
                                                            "type": "uint32",
                                                            "value": {
                                                                "current": "1",
                                                                "prev": "0",
                                                                "typeTag": 1
                                                            }
                                                        },
                                                        {
                                                            "name": "timeout",
                                                            "type": "uint32",
                                                            "value": {
                                                                "current": "3600",
                                                                "prev": "0",
                                                                "typeTag": 1
                                                            }
                                                        },
                                                        {
                                                            "name": "paymentAmount",
                                                            "type": "uint128",
                                                            "value": {
                                                                "current": "500000000000000000",
                                                                "prev": "0",
                                                                "typeTag": 1
                                                            }
                                                        }
                                                    ],
                                                    "typeTag": 3
                                                }
                                            }
                                        ],
                                        "typeTag": 3
                                    }
                                }
                            ],
                            "typeTag": 4
                        }
                    },
                    {
                        "name": "reportingRoundId",
                        "type": "uint32",
                        "value": {
                            "current": "364",
                            "prev": "363",
                            "typeTag": 1
                        }
                    },
                    {
                        "name": "latestRoundId",
                        "type": "uint32",
                        "value": {
                            "current": "364",
                            "prev": "363",
                            "typeTag": 1
                        }
                    }
                ]
            }
        ]
    }
}