{
    "balance_change": {
        "balanceChanges": [
            {
                "account": "0x8da51f4d4c7dd8db0b56d8da7bce1bbea1304d1f",
                "assets": [
                    {
                        "address": "0xeeeeeeeeeeeeeeeeeeeeeeeeeeeeeeeeeeeeeeee",
                        "amount": "0.21",
                        "iconUrl": "https://assets.blocksec.com/image/1663669189317-3.png",
                        "isERC1155": false,
                        "isERC721": false,
                        "sign": false,
                        "value": "753.8782379099999616"
                    },
                    {
                        "address": "0x518ba36f1ca6dfe3bb1b098b8dd0444030e79d9f",
                        "amount": "1",
                        "iconUrl": "",
                        "isERC1155": false,
                        "isERC721": true,
                        "sign": true,
                        "tokenID": "8590",
                        "value": ""
                    },
                    {
                        "address": "0x518ba36f1ca6dfe3bb1b098b8dd0444030e79d9f",
                        "amount": "1",
                        "iconUrl": "",
                        "isERC1155": false,
                        "isERC721": true,
                        "sign": true,
                        "tokenID": "8591",
                        "value": ""
                    },
                    {
                        "address": "0x518ba36f1ca6dfe3bb1b098b8dd0444030e79d9f",
                        "amount": "1",
                        "iconUrl": "",
                        "isERC1155": false,
                        "isERC721": true,
                        "sign": true,
                        "tokenID": "8592",
                        "value": ""
                    },
                    {
                        "address": "0x518ba36f1ca6dfe3bb1b098b8dd0444030e79d9f",
                        "amount": "1",
                        "iconUrl": "",
                        "isERC1155": false,
                        "isERC721": true,
                        "sign": true,
                        "tokenID": "8593",
                        "value": ""
                    }
                ]
            },
            {
                "account": "0x518ba36f1ca6dfe3bb1b098b8dd0444030e79d9f",
                "assets": [
                    {
                        "address": "0xeeeeeeeeeeeeeeeeeeeeeeeeeeeeeeeeeeeeeeee",
                        "amount": "0.21",
                        "iconUrl": "https://assets.blocksec.com/image/1663669189317-3.png",
                        "isERC1155": false,
                        "isERC721": false,
                        "sign": true,
                        "value": "753.8782379099999616"
                    }
                ]
            },
            {
                "account": "0x0000000000000000000000000000000000000000",
                "assets": [
                    {
                        "address": "0x518ba36f1ca6dfe3bb1b098b8dd0444030e79d9f",
                        "amount": "1",
                        "iconUrl": "",
                        "isERC1155": false,
                        "isERC721": true,
                        "sign": false,
                        "tokenID": "8592",
                        "value": ""
                    },
                    {
                        "address": "0x518ba36f1ca6dfe3bb1b098b8dd0444030e79d9f",
                        "amount": "1",
                        "iconUrl": "",
                        "isERC1155": false,
                        "isERC721": true,
                        "sign": false,
                        "tokenID": "8593",
                        "value": ""
                    },
                    {
                        "address": "0x518ba36f1ca6dfe3bb1b098b8dd0444030e79d9f",
                        "amount": "1",
                        "iconUrl": "",
                        "isERC1155": false,
                        "isERC721": true,
                        "sign": false,
                        "tokenID": "8590",
                        "value": ""
                    },
                    {
                        "address": "0x518ba36f1ca6dfe3bb1b098b8dd0444030e79d9f",
                        "amount": "1",
                        "iconUrl": "",
                        "isERC1155": false,
                        "isERC721": true,
                        "sign": false,
                        "tokenID": "8591",
                        "value": ""
                    }
                ]
            }
        ]
    },
    "profile": {
        "basic_info": {
            "baseFee": "112.783126593",
            "blockNumber": 13450742,
            "callData": "0xb90665ec0000000000000000000000000000000000000000000000000000000000000004",
            "debugEnable": true,
            "errorInfo": "",
            "eventCount": 4,
            "feeRecipient": "0x829bd824b016326a401d083b33d092293333a830",
            "formatValue": "0.21",
            "gasLimit": 501500,
            "gasPrice": "114.283126593",
            "gasUsed": 501500,
            "intTxnCount": 0,
            "internalRevert": false,
            "internalRevertMessage": "",
            "isContractCreation": false,
            "isFlashloan": false,
            "maxFee": "124.425733335",
            "nonce": 10,
            "overwritedBlockNumber": -1,
            "priorityFee": "1.5",
            "receiver": "0x518ba36f1ca6dfe3bb1b098b8dd0444030e79d9f",
            "revertMessage": "",
            "sender": "0x8da51f4d4c7dd8db0b56d8da7bce1bbea1304d1f",
            "simulationEnable": true,
            "sourceTxnHash": "0x66c3dde46b4380a642c2a000109d6d6628c1fb15c0775b594ec37f2ff2c6d9f0",
            "status": true,
            "timestamp": "2021-10-19T22:01:12Z",
            "transactionFee": "0.0573129879863895",
            "txnHash": "0x66c3dde46b4380a642c2a000109d6d6628c1fb15c0775b594ec37f2ff2c6d9f0",
            "txnIndex": 116,
            "type": 2,
            "value": "210000000000000000"
        },
        "fund_flow": [
            {
                "amount": "0.21",
                "from": "0x8da51f4d4c7dd8db0b56d8da7bce1bbea1304d1f",
                "id": 1,
                "isERC1155": false,
                "isERC721": false,
                "isReverted": false,
                "order": 1,
                "to": "0x518ba36f1ca6dfe3bb1b098b8dd0444030e79d9f",
                "token": "0xeeeeeeeeeeeeeeeeeeeeeeeeeeeeeeeeeeeeeeee"
            },
            {
                "amount": "1",
                "from": "0x0000000000000000000000000000000000000000",
                "id": 2,
                "isERC1155": false,
                "isERC721": true,
                "isReverted": false,
                "order": 2,
                "to": "0x8da51f4d4c7dd8db0b56d8da7bce1bbea1304d1f",
                "token": "0x518ba36f1ca6dfe3bb1b098b8dd0444030e79d9f",
                "tokenID": "8590"
            },
            {
                "amount": "1",
                "from": "0x0000000000000000000000000000000000000000",
                "id": 3,
                "isERC1155": false,
                "isERC721": true,
                "isReverted": false,
                "order": 3,
                "to": "0x8da51f4d4c7dd8db0b56d8da7bce1bbea1304d1f",
                "token": "0x518ba36f1ca6dfe3bb1b098b8dd0444030e79d9f",
                "tokenID": "8591"
            },
            {
                "amount": "1",
                "from": "0x0000000000000000000000000000000000000000",
                "id": 4,
                "isERC1155": false,
                "isERC721": true,
                "isReverted": false,
                "order": 4,
                "to": "0x8da51f4d4c7dd8db0b56d8da7bce1bbea1304d1f",
                "token": "0x518ba36f1ca6dfe3bb1b098b8dd0444030e79d9f",
                "tokenID": "8592"
            },
            {
                "amount": "1",
                "from": "0x0000000000000000000000000000000000000000",
                "id": 5,
                "isERC1155": false,
                "isERC721": true,
                "isReverted": false,
                "order": 5,
                "to": "0x8da51f4d4c7dd8db0b56d8da7bce1bbea1304d1f",
                "token": "0x518ba36f1ca6dfe3bb1b098b8dd0444030e79d9f",
                "tokenID": "8593"
            }
        ],
        "token_infos": [
            {
                "address": "0xc02aaa39b223fe8d0a0e5c4f27ead9083c756cc2",
                "decimals": 18
            },
            {
                "address": "0xeeeeeeeeeeeeeeeeeeeeeeeeeeeeeeeeeeeeeeee",
                "decimals": 18
            }
        ]
    },
    "address_label": {
        "labels": [
            {
                "address": "0xeeeeeeeeeeeeeeeeeeeeeeeeeeeeeeeeeeeeeeee",
                "label": "Ether"
            },
            {
                "address": "0x518ba36f1ca6dfe3bb1b098b8dd0444030e79d9f",
                "label": "Wonky Stonk: WSTK Token"
            },
            {
                "address": "0x0000000000000000000000000000000000000001",
                "label": "Precompiled"
            },
            {
                "address": "0x0000000000000000000000000000000000000002",
                "label": "Precompiled"
            },
            {
                "address": "0x0000000000000000000000000000000000000003",
                "label": "Precompiled"
            },
            {
                "address": "0x0000000000000000000000000000000000000004",
                "label": "Precompiled"
            }
        ]
    },
    "trace": {
        "accountLabels": null,
        "dataMap": {
            "-1": {
                "invocation": {
                    "address": "0x8da51f4d4c7dd8db0b56d8da7bce1bbea1304d1f",
                    "callData": "",
                    "decodedMethod": null,
                    "errorInfo": "",
                    "fromAddress": "",
                    "gasUsed": 0,
                    "id": -1,
                    "methodDecoded": false,
                    "operation": "",
                    "output": "",
                    "revert": false,
                    "revertMessage": "",
                    "selector": "",
                    "status": false,
                    "value": ""
                },
                "nodeType": 0
            },
            "0": {
                "invocation": {
                    "address": "0x518ba36f1ca6dfe3bb1b098b8dd0444030e79d9f",
                    "callData": "0x0000000000000000000000000000000000000000000000000000000000000004",
                    "decodedMethod": {
                        "callParams": [
                            {
                                "name": "_quantityToMint",
                                "type": "uint64",
                                "value": "4"
                            }
                        ],
                        "constructorArguments": "",
                        "name": "mintQuantity",
                        "returnParams": [],
                        "signature": "mintQuantity(uint64)"
                    },
                    "errorInfo": "",
                    "fromAddress": "0x8da51f4d4c7dd8db0b56d8da7bce1bbea1304d1f",
                    "gasUsed": 501500,
                    "id": 0,
                    "methodDecoded": true,
                    "operation": "CALL",
                    "output": "",
                    "revert": false,
                    "revertMessage": "",
                    "selector": "0xb90665ec",
                    "status": true,
                    "value": "0.21"
                },
                "nodeType": 0
            },
            "1": {
                "event": {
                    "contract": "0x518ba36f1ca6dfe3bb1b098b8dd0444030e79d9f",
                    "decodedLog": {
                        "name": "Transfer",
                        "params": [
                            {
                                "name": "from",
                                "type": "address",
                                "value": "0x0000000000000000000000000000000000000000"
                            },
                            {
                                "name": "to",
                                "type": "address",
                                "value": "0x8da51f4d4c7dd8db0b56d8da7bce1bbea1304d1f"
                            },
                            {
                                "decimalAvailable": true,
                                "name": "tokenId",
                                "type": "uint256",
                                "value": "8,590"
                            }
                        ],
                        "signature": "Transfer(address,address,uint256)"
                    },
                    "id": 1,
                    "logData": "0x",
                    "logDecoded": true,
                    "operation": "EVENT",
                    "revert": false,
                    "status": true,
                    "topics": [
                        "0xddf252ad1be2c89b69c2b068fc378daa952ba7f163c4a11628f55a4df523b3ef",
                        "0x0000000000000000000000000000000000000000000000000000000000000000",
                        "0x0000000000000000000000008da51f4d4c7dd8db0b56d8da7bce1bbea1304d1f",
                        "0x000000000000000000000000000000000000000000000000000000000000218e"
                    ]
                },
                "nodeType": 1
            },
            "2": {
                "event": {
                    "contract": "0x518ba36f1ca6dfe3bb1b098b8dd0444030e79d9f",
                    "decodedLog": {
                        "name": "Transfer",
                        "params": [
                            {
                                "name": "from",
                                "type": "address",
                                "value": "0x0000000000000000000000000000000000000000"
                            },
                            {
                                "name": "to",
                                "type": "address",
                                "value": "0x8da51f4d4c7dd8db0b56d8da7bce1bbea1304d1f"
                            },
                            {
                                "decimalAvailable": true,
                                "name": "tokenId",
                                "type": "uint256",
                                "value": "8,591"
                            }
                        ],
                        "signature": "Transfer(address,address,uint256)"
                    },
                    "id": 2,
                    "logData": "0x",
                    "logDecoded": true,
                    "operation": "EVENT",
                    "revert": false,
                    "status": true,
                    "topics": [
                        "0xddf252ad1be2c89b69c2b068fc378daa952ba7f163c4a11628f55a4df523b3ef",
                        "0x0000000000000000000000000000000000000000000000000000000000000000",
                        "0x0000000000000000000000008da51f4d4c7dd8db0b56d8da7bce1bbea1304d1f",
                        "0x000000000000000000000000000000000000000000000000000000000000218f"
                    ]
                },
                "nodeType": 1
            },
            "3": {
                "event": {
                    "contract": "0x518ba36f1ca6dfe3bb1b098b8dd0444030e79d9f",
                    "decodedLog": {
                        "name": "Transfer",
                        "params": [
                            {
                                "name": "from",
                                "type": "address",
                                "value": "0x0000000000000000000000000000000000000000"
                            },
                            {
                                "name": "to",
                                "type": "address",
                                "value": "0x8da51f4d4c7dd8db0b56d8da7bce1bbea1304d1f"
                            },
                            {
                                "decimalAvailable": true,
                                "name": "tokenId",
                                "type": "uint256",
                                "value": "8,592"
                            }
                        ],
                        "signature": "Transfer(address,address,uint256)"
                    },
                    "id": 3,
                    "logData": "0x",
                    "logDecoded": true,
                    "operation": "EVENT",
                    "revert": false,
                    "status": true,
                    "topics": [
                        "0xddf252ad1be2c89b69c2b068fc378daa952ba7f163c4a11628f55a4df523b3ef",
                        "0x0000000000000000000000000000000000000000000000000000000000000000",
                        "0x0000000000000000000000008da51f4d4c7dd8db0b56d8da7bce1bbea1304d1f",
                        "0x0000000000000000000000000000000000000000000000000000000000002190"
                    ]
                },
                "nodeType": 1
            },
            "4": {
                "event": {
                    "contract": "0x518ba36f1ca6dfe3bb1b098b8dd0444030e79d9f",
                    "decodedLog": {
                        "name": "Transfer",
                        "params": [
                            {
                                "name": "from",
                                "type": "address",
                                "value": "0x0000000000000000000000000000000000000000"
                            },
                            {
                                "name": "to",
                                "type": "address",
                                "value": "0x8da51f4d4c7dd8db0b56d8da7bce1bbea1304d1f"
                            },
                            {
                                "decimalAvailable": true,
                                "name": "tokenId",
                                "type": "uint256",
                                "value": "8,593"
                            }
                        ],
                        "signature": "Transfer(address,address,uint256)"
                    },
                    "id": 4,
                    "logData": "0x",
                    "logDecoded": true,
                    "operation": "EVENT",
                    "revert": false,
                    "status": true,
                    "topics": [
                        "0xddf252ad1be2c89b69c2b068fc378daa952ba7f163c4a11628f55a4df523b3ef",
                        "0x0000000000000000000000000000000000000000000000000000000000000000",
                        "0x0000000000000000000000008da51f4d4c7dd8db0b56d8da7bce1bbea1304d1f",
                        "0x0000000000000000000000000000000000000000000000000000000000002191"
                    ]
                },
                "nodeType": 1
            }
        },
        "gasFlame": [
            {
                "children": [
                    {
                        "children": [
                            {
                                "children": [],
                                "depth": 0,
                                "name": "Initial Gas",
                                "value": 21204
                            },
                            {
                                "children": [],
                                "depth": 0,
                                "name": "Executed Gas",
                                "value": 480296
                            }
                        ],
                        "depth": -1,
                        "name": "Actual Gas Used",
                        "value": 501500
                    },
                    {
                        "children": [],
                        "depth": -1,
                        "name": "Refunded Gas",
                        "value": 0
                    }
                ],
                "depth": -2,
                "name": "Total Gas",
                "value": 501500
            }
        ],
        "isConfirmed": true,
        "mainTrace": [
            {
                "children": [
                    {
                        "children": [
                            {
                                "children": [],
                                "depth": 1,
                                "id": 1,
                                "order": 1
                            },
                            {
                                "children": [],
                                "depth": 1,
                                "id": 2,
                                "order": 2
                            },
                            {
                                "children": [],
                                "depth": 1,
                                "id": 3,
                                "order": 3
                            },
                            {
                                "children": [],
                                "depth": 1,
                                "id": 4,
                                "order": 4
                            }
                        ],
                        "depth": 0,
                        "id": 0,
                        "order": 0
                    }
                ],
                "depth": -1,
                "id": -1,
                "order": -1
            }
        ],
        "mainTraceNodeCount": 5,
        "parentIdMap": {
            "0": -1,
            "1": 0,
            "2": 0,
            "3": 0,
            "4": 0
        },
        "tidyTrace": [
            {
                "children": [
                    {
                        "children": [
                            {
                                "children": [],
                                "depth": 1,
                                "id": 1,
                                "order": 1
                            },
                            {
                                "children": [],
                                "depth": 1,
                                "id": 2,
                                "order": 2
                            },
                            {
                                "children": [],
                                "depth": 1,
                                "id": 3,
                                "order": 3
                            },
                            {
                                "children": [],
                                "depth": 1,
                                "id": 4,
                                "order": 4
                            }
                        ],
                        "depth": 0,
                        "id": 0,
                        "order": 0
                    }
                ],
                "depth": -1,
                "id": -1,
                "order": -1
            }
        ],
        "tidyTraceNodeCount": 5
    },
    "state_change": {
        "stateChanges": [
            {
                "address": "0x518ba36f1ca6dfe3bb1b098b8dd0444030e79d9f",
                "erc": "ERC-721",
                "slots": [
                    {
                        "current": "0x000000000000000000000000000000000000000000000000000000000000218e",
                        "key": "0xf3f7a9fe364faab93b216da50a3214154f22a0a2b415b23a84c8169e8b639070",
                        "prev": "0x0000000000000000000000000000000000000000000000000000000000000000"
                    },
                    {
                        "current": "0x0000000000000000000000000000000000000000000000000000000000002190",
                        "key": "0xce44f7a56441ab581183f5ea50dcdb80899463de277d5002aceb7c257617162d",
                        "prev": "0x0000000000000000000000000000000000000000000000000000000000000000"
                    },
                    {
                        "current": "0x0000000000000000000000000000000000000000000000000000000000002191",
                        "key": "0xf3f7a9fe364faab93b216da50a3214154f22a0a2b415b23a84c8169e8b639073",
                        "prev": "0x0000000000000000000000000000000000000000000000000000000000000000"
                    },
                    {
                        "current": "0x0000000000000000000000000000000000000000000000000000000000002190",
                        "key": "0xb8c2f19f1947af7f031d09c2f0dc4c58ffa9b25ace5d1409317cbe60f7037dda",
                        "prev": "0x0000000000000000000000000000000000000000000000000000000000000000"
                    },
                    {
                        "current": "0x000000000000000000000000000000000000000000000000000000000000218e",
                        "key": "0x1b6098838ffaed560a511448fc949a3c30d78b08f113d44dc780e99a63029dea",
                        "prev": "0x0000000000000000000000000000000000000000000000000000000000000000"
                    },
                    {
                        "current": "0x0000000000000000000000000000000000000000000000000000000000000004",
                        "key": "0xa33181cb284217c1da6bb312b8fa36faa36a8514f188aff7f5c738825b193fbb",
                        "prev": "0x0000000000000000000000000000000000000000000000000000000000000000"
                    },
                    {
                        "current": "0x0000000000000000000000008da51f4d4c7dd8db0b56d8da7bce1bbea1304d1f",
                        "key": "0xf15439e9c6760db2ab92c55da8a610c6a01d5112e7611631da03617509d6d33c",
                        "prev": "0x0000000000000000000000000000000000000000000000000000000000000000"
                    },
                    {
                        "current": "0x000000000000000000000000000000000000000000000000000000000000218e",
                        "key": "0xe43703aef2cb6401d9500173df7b29d2451185f7573eec2f9dbf8a41168fd3fb",
                        "prev": "0x0000000000000000000000000000000000000000000000000000000000000000"
                    },
                    {
                        "current": "0x000000000000000000000000000000000000000000000000000000000000218f",
                        "key": "0xc239429072d471dec5482d143b3bf6513d970a6d9e07f6dc3f8f5308e78938e9",
                        "prev": "0x0000000000000000000000000000000000000000000000000000000000000000"
                    },
                    {
                        "current": "0x0000000000000000000000000000000000000000000000000000000000000002",
                        "key": "0xd21828e706899ef97bfba36221a5a5ada77d296b4a94a3b0730457cf4454028f",
                        "prev": "0x0000000000000000000000000000000000000000000000000000000000000000"
                    },
                    {
                        "current": "0x0000000000000000000000000000000000000000000000000000000000002191",
                        "key": "0x2c7102435f1a3bebae294a24cc397cd039ed9a088951053b70df0dcf373c4682",
                        "prev": "0x0000000000000000000000000000000000000000000000000000000000000000"
                    },
                    {
                        "current": "0x0000000000000000000000000000000000000000000000000000000000000003",
                        "key": "0x5fbc4b43c16fcd961cef4bc944643747040f78e639cf52bdfd0b9dada4c5a39e",
                        "prev": "0x0000000000000000000000000000000000000000000000000000000000000000"
                    },
                    {
                        "current": "0x0000000000000000000000008da51f4d4c7dd8db0b56d8da7bce1bbea1304d1f",
                        "key": "0xca845d71abd5803ce084b428590c230878e6d7d3235ac94e4ead3479462535d7",
                        "prev": "0x0000000000000000000000000000000000000000000000000000000000000000"
                    },
                    {
                        "current": "0x0000000000000000000000000000000000000000000000000000000000002191",
                        "key": "0x0000000000000000000000000000000000000000000000000000000000000008",
                        "prev": "0x000000000000000000000000000000000000000000000000000000000000218d"
                    },
                    {
                        "current": "0x0000000000000000000000000000000000000000000000000000000000000001",
                        "key": "0xa0bdf7323fe78b98ca53adf76055991395b9f0c48692a1803754ed21fdad70c2",
                        "prev": "0x0000000000000000000000000000000000000000000000000000000000000000"
                    },
                    {
                        "current": "0x0000000000000000000000000000000000000000000000000000000000002191",
                        "key": "0x000000000000000000000000000000000000000000000000000000000000000c",
                        "prev": "0x000000000000000000000000000000000000000000000000000000000000218d"
                    },
                    {
                        "current": "0x0000000000000000000000008da51f4d4c7dd8db0b56d8da7bce1bbea1304d1f",
                        "key": "0x92576bcb7c734715b32ae582b11262d6d6e7ad49400bc8e3f30ef1a65bdf303d",
                        "prev": "0x0000000000000000000000000000000000000000000000000000000000000000"
                    },
                    {
                        "current": "0x0000000000000000000000000000000000000000000000000000000000002190",
                        "key": "0xf3f7a9fe364faab93b216da50a3214154f22a0a2b415b23a84c8169e8b639072",
                        "prev": "0x0000000000000000000000000000000000000000000000000000000000000000"
                    },
                    {
                        "current": "0x000000000000000000000000000000000000000000000000000000000000218f",
                        "key": "0xcba8d439da47c5772bc8215519fede93db96c6e4760f36b01244d464f1c17447",
                        "prev": "0x0000000000000000000000000000000000000000000000000000000000000000"
                    },
                    {
                        "current": "0x000000000000000000000000000000000000000000000000000000000000218d",
                        "key": "0x72e6eaad5b5ce0476f4bc1e96865e357ceb792264dc933a9dc06f797d519a482",
                        "prev": "0x0000000000000000000000000000000000000000000000000000000000000000"
                    },
                    {
                        "current": "0x000000000000000000000000000000000000000000000000000000000000218f",
                        "key": "0xf3f7a9fe364faab93b216da50a3214154f22a0a2b415b23a84c8169e8b639071",
                        "prev": "0x0000000000000000000000000000000000000000000000000000000000000000"
                    },
                    {
                        "current": "0x0000000000000000000000008da51f4d4c7dd8db0b56d8da7bce1bbea1304d1f",
                        "key": "0xd2eea8c13aee21e073bad723ae373a41fb331dd6d9acff661aed86dc21b6bd1a",
                        "prev": "0x0000000000000000000000000000000000000000000000000000000000000000"
                    }
                ],
                "storageVariables": [
                    {
                        "name": "_ownedTokensIndex",
                        "type": "mapping(uint256 => uint256)",
                        "value": {
                            "pairs": [
                                {
                                    "key": "8591",
                                    "value": {
                                        "current": "1",
                                        "prev": "0",
                                        "typeTag": 1
                                    }
                                },
                                {
                                    "key": "8592",
                                    "value": {
                                        "current": "2",
                                        "prev": "0",
                                        "typeTag": 1
                                    }
                                },
                                {
                                    "key": "8593",
                                    "value": {
                                        "current": "3",
                                        "prev": "0",
                                        "typeTag": 1
                                    }
                                }
                            ],
                            "typeTag": 4
                        }
                    },
                    {
                        "name": "_owners",
                        "type": "mapping(uint256 => address)",
                        "value": {
                            "pairs": [
                                {
                                    "key": "8590",
                                    "value": {
                                        "current": "0x8da51f4d4c7dd8db0b56d8da7bce1bbea1304d1f",
                                        "prev": "0x0000000000000000000000000000000000000000",
                                        "typeTag": 1
                                    }
                                },
                                {
                                    "key": "8591",
                                    "value": {
                                        "current": "0x8da51f4d4c7dd8db0b56d8da7bce1bbea1304d1f",
                                        "prev": "0x0000000000000000000000000000000000000000",
                                        "typeTag": 1
                                    }
                                },
                                {
                                    "key": "8592",
                                    "value": {
                                        "current": "0x8da51f4d4c7dd8db0b56d8da7bce1bbea1304d1f",
                                        "prev": "0x0000000000000000000000000000000000000000",
                                        "typeTag": 1
                                    }
                                },
                                {
                                    "key": "8593",
                                    "value": {
                                        "current": "0x8da51f4d4c7dd8db0b56d8da7bce1bbea1304d1f",
                                        "prev": "0x0000000000000000000000000000000000000000",
                                        "typeTag": 1
                                    }
                                }
                            ],
                            "typeTag": 4
                        }
                    },
                    {
                        "name": "_allTokens",
                        "type": "uint256[]",
                        "value": {
                            "elemType": "uint256",
                            "elems": [
                                {
                                    "index": 8589,
                                    "value": {
                                        "current": "8590",
                                        "prev": "0",
                                        "typeTag": 1
                                    }
                                },
                                {
                                    "index": 8590,
                                    "value": {
                                        "current": "8591",
                                        "prev": "0",
                                        "typeTag": 1
                                    }
                                },
                                {
                                    "index": 8591,
                                    "value": {
                                        "current": "8592",
                                        "prev": "0",
                                        "typeTag": 1
                                    }
                                },
                                {
                                    "index": 8592,
                                    "value": {
                                        "current": "8593",
                                        "prev": "0",
                                        "typeTag": 1
                                    }
                                }
                            ],
                            "typeTag": 2
                        }
                    },
                    {
                        "name": "_ownedTokens",
                        "type": "mapping(address => mapping(uint256 => uint256))",
                        "value": {
                            "pairs": [
                                {
                                    "key": "0x8da51f4d4c7dd8db0b56d8da7bce1bbea1304d1f",
                                    "value": {
                                        "pairs": [
                                            {
                                                "key": "0",
                                                "value": {
                                                    "current": "8590",
                                                    "prev": "0",
                                                    "typeTag": 1
                                                }
                                            },
                                            {
                                                "key": "1",
                                                "value": {
                                                    "current": "8591",
                                                    "prev": "0",
                                                    "typeTag": 1
                                                }
                                            },
                                            {
                                                "key": "2",
                                                "value": {
                                                    "current": "8592",
                                                    "prev": "0",
                                                    "typeTag": 1
                                                }
                                            },
                                            {
                                                "key": "3",
                                                "value": {
                                                    "current": "8593",
                                                    "prev": "0",
                                                    "typeTag": 1
                                                }
                                            }
                                        ],
                                        "typeTag": 4
                                    }
                                }
                            ],
                            "typeTag": 4
                        }
                    },
                    {
                        "name": "_allTokensIndex",
                        "type": "mapping(uint256 => uint256)",
                        "value": {
                            "pairs": [
                                {
                                    "key": "8590",
                                    "value": {
                                        "current": "8589",
                                        "prev": "0",
                                        "typeTag": 1
                                    }
                                },
                                {
                                    "key": "8591",
                                    "value": {
                                        "current": "8590",
                                        "prev": "0",
                                        "typeTag": 1
                                    }
                                },
                                {
                                    "key": "8592",
                                    "value": {
                                        "current": "8591",
                                        "prev": "0",
                                        "typeTag": 1
                                    }
                                },
                                {
                                    "key": "8593",
                                    "value": {
                                        "current": "8592",
                                        "prev": "0",
                                        "typeTag": 1
                                    }
                                }
                            ],
                            "typeTag": 4
                        }
                    },
                    {
                        "name": "_tokenIds",
                        "type": "struct Counters.Counter",
                        "value": {
                            "fields": [
                                {
                                    "name": "_value",
                                    "type": "uint256",
                                    "value": {
                                        "current": "8593",
                                        "prev": "8589",
                                        "typeTag": 1
                                    }
                                }
                            ],
                            "typeTag": 3
                        }
                    },
                    {
                        "name": "_balances",
                        "type": "mapping(address => uint256)",
                        "value": {
                            "pairs": [
                                {
                                    "key": "0x8da51f4d4c7dd8db0b56d8da7bce1bbea1304d1f",
                                    "value": {
                                        "current": "4",
                                        "prev": "0",
                                        "typeTag": 1
                                    }
                                }
                            ],
                            "typeTag": 4
                        }
                    }
                ]
            }
        ]
    }
}