{
    "balance_change": {
        "balanceChanges": []
    },
    "profile": {
        "basic_info": {
            "baseFee": "",
            "blockNumber": 5701332,
            "callData": "0xf2c298be00000000000000000000000000000000000000000000000000000000000000200000000000000000000000000000000000000000000000000000000000000035454f5336676e526978757044794e624e435448707071436b46427961695833703868396f666437793354363770744c6667384e4a310000000000000000000000",
            "debugEnable": true,
            "errorInfo": "",
            "eventCount": 1,
            "feeRecipient": "0x2a5994b501e6a560e727b6c2de5d856396aadd38",
            "formatValue": "0",
            "gasLimit": 101651,
            "gasPrice": "21",
            "gasUsed": 90558,
            "intTxnCount": 0,
            "internalRevert": false,
            "internalRevertMessage": "",
            "isContractCreation": false,
            "isFlashloan": false,
            "maxFee": "",
            "nonce": 0,
            "overwritedBlockNumber": -1,
            "priorityFee": "",
            "receiver": "0xd0a6e6c54dbc68db5db3a091b171a77407ff7ccf",
            "revertMessage": "",
            "sender": "0xfa32bbb5ac8684f3a3b65b57fc206510ff39b4b9",
            "simulationEnable": true,
            "sourceTxnHash": "0x66be6daadea3b20477bcce4d85c7310384e61bdc57bc2f5b15f7d28bf6a3751d",
            "status": true,
            "timestamp": "2018-05-30T06:54:04Z",
            "transactionFee": "0.001901718",
            "txnHash": "0x66be6daadea3b20477bcce4d85c7310384e61bdc57bc2f5b15f7d28bf6a3751d",
            "txnIndex": 143,
            "type": 0,
            "value": "0"
        },
        "fund_flow": [],
        "token_infos": [
            {
                "address": "0xeeeeeeeeeeeeeeeeeeeeeeeeeeeeeeeeeeeeeeee",
                "decimals": 18
            },
            {
                "address": "0xc02aaa39b223fe8d0a0e5c4f27ead9083c756cc2",
                "decimals": 18
            }
        ]
    },
    "address_label": {
        "labels": [
            {
                "address": "0xeeeeeeeeeeeeeeeeeeeeeeeeeeeeeeeeeeeeeeee",
                "label": "Ether"
            },
            {
                "address": "0xd0a6e6c54dbc68db5db3a091b171a77407ff7ccf",
                "label": "EOS: Token Sale"
            },
            {
                "address": "0x0000000000000000000000000000000000000001",
                "label": "Precompiled"
            },
            {
                "address": "0x0000000000000000000000000000000000000002",
                "label": "Precompiled"
            },
            {
                "address": "0x0000000000000000000000000000000000000003",
                "label": "Precompiled"
            },
            {
                "address": "0x0000000000000000000000000000000000000004",
                "label": "Precompiled"
            }
        ]
    },
    "trace": {
        "accountLabels": null,
        "dataMap": {
            "-1": {
                "invocation": {
                    "address": "0xfa32bbb5ac8684f3a3b65b57fc206510ff39b4b9",
                    "callData": "",
                    "decodedMethod": null,
                    "errorInfo": "",
                    "fromAddress": "",
                    "gasUsed": 0,
                    "id": -1,
                    "methodDecoded": false,
                    "operation": "",
                    "output": "",
                    "revert": false,
                    "revertMessage": "",
                    "selector": "",
                    "status": false,
                    "value": ""
                },
                "nodeType": 0
            },
            "0": {
                "invocation": {
                    "address": "0xd0a6e6c54dbc68db5db3a091b171a77407ff7ccf",
                    "callData": "0x00000000000000000000000000000000000000000000000000000000000000200000000000000000000000000000000000000000000000000000000000000035454f5336676e526978757044794e624e435448707071436b46427961695833703868396f666437793354363770744c6667384e4a310000000000000000000000",
                    "decodedMethod": {
                        "callParams": [
                            {
                                "name": "key",
                                "type": "string",
                                "value": "EOS6gnRixupDyNbNCTHppqCkFByaiX3p8h9ofd7y3T67ptLfg8NJ1"
                            }
                        ],
                        "constructorArguments": "",
                        "name": "register",
                        "returnParams": [],
                        "signature": "register(string)"
                    },
                    "errorInfo": "",
                    "fromAddress": "0xfa32bbb5ac8684f3a3b65b57fc206510ff39b4b9",
                    "gasUsed": 90558,
                    "id": 0,
                    "methodDecoded": true,
                    "operation": "CALL",
                    "output": "",
                    "revert": false,
                    "revertMessage": "",
                    "selector": "0xf2c298be",
                    "status": true,
                    "value": "0"
                },
                "nodeType": 0
            },
            "1": {
                "event": {
                    "contract": "0xd0a6e6c54dbc68db5db3a091b171a77407ff7ccf",
                    "decodedLog": {
                        "name": "LogRegister",
                        "params": [
                            {
                                "name": "user",
                                "type": "address",
                                "value": "0xfa32bbb5ac8684f3a3b65b57fc206510ff39b4b9"
                            },
                            {
                                "name": "key",
                                "type": "string",
                                "value": "EOS6gnRixupDyNbNCTHppqCkFByaiX3p8h9ofd7y3T67ptLfg8NJ1"
                            }
                        ],
                        "signature": "LogRegister(address,string)"
                    },
                    "id": 1,
                    "logData": "0x000000000000000000000000fa32bbb5ac8684f3a3b65b57fc206510ff39b4b900000000000000000000000000000000000000000000000000000000000000400000000000000000000000000000000000000000000000000000000000000035454f5336676e526978757044794e624e435448707071436b46427961695833703868396f666437793354363770744c6667384e4a310000000000000000000000",
                    "logDecoded": true,
                    "operation": "EVENT",
                    "revert": false,
                    "status": true,
                    "topics": [
                        "0xd80364ba2cbb1e827ab8adac9651cdfc27fb7b61c0a95663cb80b82d7636ad22"
                    ]
                },
                "nodeType": 1
            }
        },
        "gasFlame": [
            {
                "children": [
                    {
                        "children": [
                            {
                                "children": [],
                                "depth": 0,
                                "name": "Initial Gas",
                                "value": 25304
                            },
                            {
                                "children": [],
                                "depth": 0,
                                "name": "Executed Gas",
                                "value": 65254
                            }
                        ],
                        "depth": -1,
                        "name": "Actual Gas Used",
                        "value": 90558
                    },
                    {
                        "children": [],
                        "depth": -1,
                        "name": "Refunded Gas",
                        "value": 0
                    }
                ],
                "depth": -2,
                "name": "Total Gas",
                "value": 90558
            }
        ],
        "isConfirmed": true,
        "mainTrace": [
            {
                "children": [
                    {
                        "children": [
                            {
                                "children": [],
                                "depth": 1,
                                "id": 1,
                                "order": 1
                            }
                        ],
                        "depth": 0,
                        "id": 0,
                        "order": 0
                    }
                ],
                "depth": -1,
                "id": -1,
                "order": -1
            }
        ],
        "mainTraceNodeCount": 2,
        "parentIdMap": {
            "0": -1,
            "1": 0
        },
        "tidyTrace": [
            {
                "children": [
                    {
                        "children": [
                            {
                                "children": [],
                                "depth": 1,
                                "id": 1,
                                "order": 1
                            }
                        ],
                        "depth": 0,
                        "id": 0,
                        "order": 0
                    }
                ],
                "depth": -1,
                "id": -1,
                "order": -1
            }
        ],
        "tidyTraceNodeCount": 2
    },
    "state_change": {
        "stateChanges": [
            {
                "address": "0xd0a6e6c54dbc68db5db3a091b171a77407ff7ccf",
                "erc": "",
                "slots": [
                    {
                        "current": "0x3868396f666437793354363770744c6667384e4a310000000000000000000000",
                        "key": "0x2ed94519201b79c9e14e26b9f1696167117734001522dc68c0e4246eb960d924",
                        "prev": "0x0000000000000000000000000000000000000000000000000000000000000000"
                    },
                    {
                        "current": "0x000000000000000000000000000000000000000000000000000000000000006b",
                        "key": "0xbd7fb940d03deac7c55ad0f59a2b02152c6d0d239331000a92ceff35721be243",
                        "prev": "0x0000000000000000000000000000000000000000000000000000000000000000"
                    },
                    {
                        "current": "0x454f5336676e526978757044794e624e435448707071436b4642796169583370",
                        "key": "0x2ed94519201b79c9e14e26b9f1696167117734001522dc68c0e4246eb960d923",
                        "prev": "0x0000000000000000000000000000000000000000000000000000000000000000"
                    }
                ],
                "storageVariables": []
            }
        ]
    }
}