{
    "balance_change": {
        "balanceChanges": [
            {
                "account": "0xa9b183383774391e2205e9e1234ef1a45a9a26f1",
                "assets": [
                    {
                        "address": "0x6b175474e89094c44da98b954eedeac495271d0f",
                        "amount": "23,007.42172182",
                        "iconUrl": "https://assets.blocksec.com/icon/39aead569b9c011cb6f69734d9abbc9ab6a80049fe93bbd12bb473a3e0e859a3.png",
                        "isERC1155": false,
                        "isERC721": false,
                        "sign": false,
                        "value": "22998.218751312001014"
                    }
                ]
            },
            {
                "account": "0x9c1e325d9bcc7d18674bd1f05c5ac5b1a217e61e",
                "assets": [
                    {
                        "address": "0x6b175474e89094c44da98b954eedeac495271d0f",
                        "amount": "23,007.42172182",
                        "iconUrl": "https://assets.blocksec.com/icon/39aead569b9c011cb6f69734d9abbc9ab6a80049fe93bbd12bb473a3e0e859a3.png",
                        "isERC1155": false,
                        "isERC721": false,
                        "sign": true,
                        "value": "22998.218751312001014"
                    }
                ]
            }
        ]
    },
    "profile": {
        "basic_info": {
            "baseFee": "31.703009601",
            "blockNumber": 17135830,
            "callData": "0xa9059cbb0000000000000000000000009c1e325d9bcc7d18674bd1f05c5ac5b1a217e61e0000000000000000000000000000000000000000000004df3c1ddd735f3d9800",
            "debugEnable": true,
            "errorInfo": "",
            "eventCount": 1,
            "feeRecipient": "0x2b78035514401ed1592eb691b8673a93edf97470",
            "formatValue": "0",
            "gasLimit": 77763,
            "gasPrice": "40.175421515",
            "gasUsed": 47042,
            "intTxnCount": 0,
            "internalRevert": false,
            "internalRevertMessage": "",
            "isContractCreation": false,
            "isFlashloan": false,
            "maxFee": "40.175421515",
            "nonce": 59,
            "overwritedBlockNumber": -1,
            "priorityFee": "40.175421515",
            "receiver": "0x6b175474e89094c44da98b954eedeac495271d0f",
            "revertMessage": "",
            "sender": "0xa9b183383774391e2205e9e1234ef1a45a9a26f1",
            "simulationEnable": true,
            "sourceTxnHash": "0x670231b1489f3c2ace81e37f49e067c43ec0992ecc9a7e7762978110bc3d3e61",
            "status": true,
            "timestamp": "2023-04-27T06:46:47Z",
            "transactionFee": "0.00188993217890863",
            "txnHash": "0x670231b1489f3c2ace81e37f49e067c43ec0992ecc9a7e7762978110bc3d3e61",
            "txnIndex": 1,
            "type": 2,
            "value": "0"
        },
        "fund_flow": [
            {
                "amount": "23,007.42172182",
                "from": "0xa9b183383774391e2205e9e1234ef1a45a9a26f1",
                "id": 1,
                "isERC1155": false,
                "isERC721": false,
                "isReverted": false,
                "order": 1,
                "to": "0x9c1e325d9bcc7d18674bd1f05c5ac5b1a217e61e",
                "token": "0x6b175474e89094c44da98b954eedeac495271d0f"
            }
        ],
        "token_infos": [
            {
                "address": "0xc02aaa39b223fe8d0a0e5c4f27ead9083c756cc2",
                "decimals": 18
            },
            {
                "address": "0xeeeeeeeeeeeeeeeeeeeeeeeeeeeeeeeeeeeeeeee",
                "decimals": 18
            },
            {
                "address": "0x6b175474e89094c44da98b954eedeac495271d0f",
                "decimals": 18
            }
        ]
    },
    "address_label": {
        "labels": [
            {
                "address": "0xeeeeeeeeeeeeeeeeeeeeeeeeeeeeeeeeeeeeeeee",
                "label": "Ether"
            },
            {
                "address": "0x6b175474e89094c44da98b954eedeac495271d0f",
                "label": "Sky: Dai Stablecoin"
            },
            {
                "address": "0x9c1e325d9bcc7d18674bd1f05c5ac5b1a217e61e",
                "label": "KUCOIN"
            },
            {
                "address": "0x0000000000000000000000000000000000000001",
                "label": "Precompiled"
            },
            {
                "address": "0x0000000000000000000000000000000000000002",
                "label": "Precompiled"
            },
            {
                "address": "0x0000000000000000000000000000000000000003",
                "label": "Precompiled"
            },
            {
                "address": "0x0000000000000000000000000000000000000004",
                "label": "Precompiled"
            }
        ]
    },
    "trace": {
        "accountLabels": null,
        "dataMap": {
            "-1": {
                "invocation": {
                    "address": "0xa9b183383774391e2205e9e1234ef1a45a9a26f1",
                    "callData": "",
                    "decodedMethod": null,
                    "errorInfo": "",
                    "fromAddress": "",
                    "gasUsed": 0,
                    "id": -1,
                    "methodDecoded": false,
                    "operation": "",
                    "output": "",
                    "revert": false,
                    "revertMessage": "",
                    "selector": "",
                    "status": false,
                    "value": ""
                },
                "nodeType": 0
            },
            "0": {
                "invocation": {
                    "address": "0x6b175474e89094c44da98b954eedeac495271d0f",
                    "callData": "0x0000000000000000000000009c1e325d9bcc7d18674bd1f05c5ac5b1a217e61e0000000000000000000000000000000000000000000004df3c1ddd735f3d9800",
                    "decodedMethod": {
                        "callParams": [
                            {
                                "name": "dst",
                                "type": "address",
                                "value": "0x9c1e325d9bcc7d18674bd1f05c5ac5b1a217e61e"
                            },
                            {
                                "decimalAvailable": true,
                                "name": "wad",
                                "type": "uint256",
                                "value": "23,007,421,721,820,000,000,000"
                            }
                        ],
                        "constructorArguments": "",
                        "name": "transfer",
                        "returnParams": [
                            {
                                "name": "",
                                "type": "bool",
                                "value": true
                            }
                        ],
                        "signature": "transfer(address,uint256)"
                    },
                    "errorInfo": "",
                    "fromAddress": "0xa9b183383774391e2205e9e1234ef1a45a9a26f1",
                    "gasUsed": 47042,
                    "id": 0,
                    "methodDecoded": true,
                    "operation": "CALL",
                    "output": "0x0000000000000000000000000000000000000000000000000000000000000001",
                    "revert": false,
                    "revertMessage": "",
                    "selector": "0xa9059cbb",
                    "status": true,
                    "value": "0"
                },
                "nodeType": 0
            },
            "1": {
                "event": {
                    "contract": "0x6b175474e89094c44da98b954eedeac495271d0f",
                    "decodedLog": {
                        "name": "Transfer",
                        "params": [
                            {
                                "name": "src",
                                "type": "address",
                                "value": "0xa9b183383774391e2205e9e1234ef1a45a9a26f1"
                            },
                            {
                                "name": "dst",
                                "type": "address",
                                "value": "0x9c1e325d9bcc7d18674bd1f05c5ac5b1a217e61e"
                            },
                            {
                                "decimalAvailable": true,
                                "name": "wad",
                                "type": "uint256",
                                "value": "23,007,421,721,820,000,000,000"
                            }
                        ],
                        "signature": "Transfer(address,address,uint256)"
                    },
                    "id": 1,
                    "logData": "0x0000000000000000000000000000000000000000000004df3c1ddd735f3d9800",
                    "logDecoded": true,
                    "operation": "EVENT",
                    "revert": false,
                    "status": true,
                    "topics": [
                        "0xddf252ad1be2c89b69c2b068fc378daa952ba7f163c4a11628f55a4df523b3ef",
                        "0x000000000000000000000000a9b183383774391e2205e9e1234ef1a45a9a26f1",
                        "0x0000000000000000000000009c1e325d9bcc7d18674bd1f05c5ac5b1a217e61e"
                    ]
                },
                "nodeType": 1
            }
        },
        "gasFlame": [
            {
                "children": [
                    {
                        "children": [
                            {
                                "children": [],
                                "depth": 0,
                                "name": "Initial Gas",
                                "value": 21668
                            },
                            {
                                "children": [],
                                "depth": 0,
                                "name": "Executed Gas",
                                "value": 30174
                            }
                        ],
                        "depth": -1,
                        "name": "Actual Gas Used",
                        "value": 47042
                    },
                    {
                        "children": [],
                        "depth": -1,
                        "name": "Refunded Gas",
                        "value": 4800
                    }
                ],
                "depth": -2,
                "name": "Total Gas",
                "value": 51842
            }
        ],
        "isConfirmed": true,
        "mainTrace": [
            {
                "children": [
                    {
                        "children": [
                            {
                                "children": [],
                                "depth": 1,
                                "id": 1,
                                "order": 1
                            }
                        ],
                        "depth": 0,
                        "id": 0,
                        "order": 0
                    }
                ],
                "depth": -1,
                "id": -1,
                "order": -1
            }
        ],
        "mainTraceNodeCount": 2,
        "parentIdMap": {
            "0": -1,
            "1": 0
        },
        "tidyTrace": [
            {
                "children": [
                    {
                        "children": [
                            {
                                "children": [],
                                "depth": 1,
                                "id": 1,
                                "order": 1
                            }
                        ],
                        "depth": 0,
                        "id": 0,
                        "order": 0
                    }
                ],
                "depth": -1,
                "id": -1,
                "order": -1
            }
        ],
        "tidyTraceNodeCount": 2
    },
    "state_change": {
        "stateChanges": [
            {
                "address": "0x6b175474e89094c44da98b954eedeac495271d0f",
                "erc": "ERC-20",
                "slots": [
                    {
                        "current": "0x0000000000000000000000000000000000000000000000000000000000000000",
                        "key": "0x6965496c9c455089f45fafbbeff7a1d843a8347ba08eb9b11fb3738d88de9ac4",
                        "prev": "0x0000000000000000000000000000000000000000000004df3c1ddd735f3d9800"
                    },
                    {
                        "current": "0x0000000000000000000000000000000000000000000004df3c1ddd735f3d9800",
                        "key": "0x75db4ece1f816adbe037876194a44dcc038426c07d49401fc37a15f7ee76ecb9",
                        "prev": "0x0000000000000000000000000000000000000000000000000000000000000000"
                    }
                ],
                "storageVariables": [
                    {
                        "name": "balanceOf",
                        "type": "mapping(address => uint256)",
                        "value": {
                            "pairs": [
                                {
                                    "key": "0x9c1e325d9bcc7d18674bd1f05c5ac5b1a217e61e",
                                    "value": {
                                        "current": "23007421721820000000000",
                                        "prev": "0",
                                        "typeTag": 1
                                    }
                                },
                                {
                                    "key": "0xa9b183383774391e2205e9e1234ef1a45a9a26f1",
                                    "value": {
                                        "current": "0",
                                        "prev": "23007421721820000000000",
                                        "typeTag": 1
                                    }
                                }
                            ],
                            "typeTag": 4
                        }
                    }
                ]
            }
        ]
    }
}