{
    "balance_change": {
        "balanceChanges": [
            {
                "account": "0x47a732b7ae701f0c9ce6f0de49f5ab7d1906861c",
                "assets": [
                    {
                        "address": "0x0391d2021f89dc339f60fff84546ea23e337750f",
                        "amount": "621.440081499597616765",
                        "iconUrl": "https://assets.blocksec.com/icon/c04c088302f7a8dd4f5090edabce20425b1b654e42d89a37c86837d2d48bf55d.png",
                        "isERC1155": false,
                        "isERC721": false,
                        "sign": false,
                        "value": "8004.613075"
                    }
                ]
            },
            {
                "account": "0xcba1a1147edfb754cf61d8038e9fe63bf193f707",
                "assets": [
                    {
                        "address": "0x0391d2021f89dc339f60fff84546ea23e337750f",
                        "amount": "621.440081499597616765",
                        "iconUrl": "https://assets.blocksec.com/icon/c04c088302f7a8dd4f5090edabce20425b1b654e42d89a37c86837d2d48bf55d.png",
                        "isERC1155": false,
                        "isERC721": false,
                        "sign": true,
                        "value": "8004.613075"
                    }
                ]
            }
        ]
    },
    "profile": {
        "basic_info": {
            "baseFee": "12.225267908",
            "blockNumber": 15184199,
            "callData": "0xa9059cbb000000000000000000000000cba1a1147edfb754cf61d8038e9fe63bf193f707000000000000000000000000000000000000000000000021b036ad97dd50b67d",
            "debugEnable": true,
            "errorInfo": "",
            "eventCount": 1,
            "feeRecipient": "0x28846f1ec065eea239152213373bb58b1c9fc93b",
            "formatValue": "0",
            "gasLimit": 51919,
            "gasPrice": "13.725267908",
            "gasUsed": 29813,
            "intTxnCount": 0,
            "internalRevert": false,
            "internalRevertMessage": "",
            "isContractCreation": false,
            "isFlashloan": false,
            "maxFee": "14.565321626",
            "nonce": 32,
            "overwritedBlockNumber": -1,
            "priorityFee": "1.5",
            "receiver": "0x0391d2021f89dc339f60fff84546ea23e337750f",
            "revertMessage": "",
            "sender": "0x47a732b7ae701f0c9ce6f0de49f5ab7d1906861c",
            "simulationEnable": true,
            "sourceTxnHash": "0x670e42111cf09ed090522fa35196338bdd048582d218c6e64f226e769351f8d0",
            "status": true,
            "timestamp": "2022-07-21T06:03:28Z",
            "transactionFee": "0.000409191412141204",
            "txnHash": "0x670e42111cf09ed090522fa35196338bdd048582d218c6e64f226e769351f8d0",
            "txnIndex": 87,
            "type": 2,
            "value": "0"
        },
        "fund_flow": [
            {
                "amount": "621.440081499597616765",
                "from": "0x47a732b7ae701f0c9ce6f0de49f5ab7d1906861c",
                "id": 1,
                "isERC1155": false,
                "isERC721": false,
                "isReverted": false,
                "order": 1,
                "to": "0xcba1a1147edfb754cf61d8038e9fe63bf193f707",
                "token": "0x0391d2021f89dc339f60fff84546ea23e337750f"
            }
        ],
        "token_infos": [
            {
                "address": "0x0391d2021f89dc339f60fff84546ea23e337750f",
                "decimals": 18
            },
            {
                "address": "0xc02aaa39b223fe8d0a0e5c4f27ead9083c756cc2",
                "decimals": 18
            },
            {
                "address": "0xeeeeeeeeeeeeeeeeeeeeeeeeeeeeeeeeeeeeeeee",
                "decimals": 18
            }
        ]
    },
    "address_label": {
        "labels": [
            {
                "address": "0xeeeeeeeeeeeeeeeeeeeeeeeeeeeeeeeeeeeeeeee",
                "label": "Ether"
            },
            {
                "address": "0xcba1a1147edfb754cf61d8038e9fe63bf193f707",
                "label": "BINANCE"
            },
            {
                "address": "0x0391d2021f89dc339f60fff84546ea23e337750f",
                "label": "BarnBridge: BOND Token"
            },
            {
                "address": "0x0000000000000000000000000000000000000001",
                "label": "Precompiled"
            },
            {
                "address": "0x0000000000000000000000000000000000000002",
                "label": "Precompiled"
            },
            {
                "address": "0x0000000000000000000000000000000000000003",
                "label": "Precompiled"
            },
            {
                "address": "0x0000000000000000000000000000000000000004",
                "label": "Precompiled"
            }
        ]
    },
    "trace": {
        "accountLabels": null,
        "dataMap": {
            "-1": {
                "invocation": {
                    "address": "0x47a732b7ae701f0c9ce6f0de49f5ab7d1906861c",
                    "callData": "",
                    "decodedMethod": null,
                    "errorInfo": "",
                    "fromAddress": "",
                    "gasUsed": 0,
                    "id": -1,
                    "methodDecoded": false,
                    "operation": "",
                    "output": "",
                    "revert": false,
                    "revertMessage": "",
                    "selector": "",
                    "status": false,
                    "value": ""
                },
                "nodeType": 0
            },
            "0": {
                "invocation": {
                    "address": "0x0391d2021f89dc339f60fff84546ea23e337750f",
                    "callData": "0x000000000000000000000000cba1a1147edfb754cf61d8038e9fe63bf193f707000000000000000000000000000000000000000000000021b036ad97dd50b67d",
                    "decodedMethod": {
                        "callParams": [
                            {
                                "name": "recipient",
                                "type": "address",
                                "value": "0xcba1a1147edfb754cf61d8038e9fe63bf193f707"
                            },
                            {
                                "decimalAvailable": true,
                                "name": "amount",
                                "type": "uint256",
                                "value": "621,440,081,499,597,616,765"
                            }
                        ],
                        "constructorArguments": "",
                        "name": "transfer",
                        "returnParams": [
                            {
                                "name": "",
                                "type": "bool",
                                "value": true
                            }
                        ],
                        "signature": "transfer(address,uint256)"
                    },
                    "errorInfo": "",
                    "fromAddress": "0x47a732b7ae701f0c9ce6f0de49f5ab7d1906861c",
                    "gasUsed": 29813,
                    "id": 0,
                    "methodDecoded": true,
                    "operation": "CALL",
                    "output": "0x0000000000000000000000000000000000000000000000000000000000000001",
                    "revert": false,
                    "revertMessage": "",
                    "selector": "0xa9059cbb",
                    "status": true,
                    "value": "0"
                },
                "nodeType": 0
            },
            "1": {
                "event": {
                    "contract": "0x0391d2021f89dc339f60fff84546ea23e337750f",
                    "decodedLog": {
                        "name": "Transfer",
                        "params": [
                            {
                                "name": "from",
                                "type": "address",
                                "value": "0x47a732b7ae701f0c9ce6f0de49f5ab7d1906861c"
                            },
                            {
                                "name": "to",
                                "type": "address",
                                "value": "0xcba1a1147edfb754cf61d8038e9fe63bf193f707"
                            },
                            {
                                "decimalAvailable": true,
                                "name": "value",
                                "type": "uint256",
                                "value": "621,440,081,499,597,616,765"
                            }
                        ],
                        "signature": "Transfer(address,address,uint256)"
                    },
                    "id": 1,
                    "logData": "0x000000000000000000000000000000000000000000000021b036ad97dd50b67d",
                    "logDecoded": true,
                    "operation": "EVENT",
                    "revert": false,
                    "status": true,
                    "topics": [
                        "0xddf252ad1be2c89b69c2b068fc378daa952ba7f163c4a11628f55a4df523b3ef",
                        "0x00000000000000000000000047a732b7ae701f0c9ce6f0de49f5ab7d1906861c",
                        "0x000000000000000000000000cba1a1147edfb754cf61d8038e9fe63bf193f707"
                    ]
                },
                "nodeType": 1
            }
        },
        "gasFlame": [
            {
                "children": [
                    {
                        "children": [
                            {
                                "children": [],
                                "depth": 0,
                                "name": "Initial Gas",
                                "value": 21668
                            },
                            {
                                "children": [],
                                "depth": 0,
                                "name": "Executed Gas",
                                "value": 12945
                            }
                        ],
                        "depth": -1,
                        "name": "Actual Gas Used",
                        "value": 29813
                    },
                    {
                        "children": [],
                        "depth": -1,
                        "name": "Refunded Gas",
                        "value": 4800
                    }
                ],
                "depth": -2,
                "name": "Total Gas",
                "value": 34613
            }
        ],
        "isConfirmed": true,
        "mainTrace": [
            {
                "children": [
                    {
                        "children": [
                            {
                                "children": [],
                                "depth": 1,
                                "id": 1,
                                "order": 1
                            }
                        ],
                        "depth": 0,
                        "id": 0,
                        "order": 0
                    }
                ],
                "depth": -1,
                "id": -1,
                "order": -1
            }
        ],
        "mainTraceNodeCount": 2,
        "parentIdMap": {
            "0": -1,
            "1": 0
        },
        "tidyTrace": [
            {
                "children": [
                    {
                        "children": [
                            {
                                "children": [],
                                "depth": 1,
                                "id": 1,
                                "order": 1
                            }
                        ],
                        "depth": 0,
                        "id": 0,
                        "order": 0
                    }
                ],
                "depth": -1,
                "id": -1,
                "order": -1
            }
        ],
        "tidyTraceNodeCount": 2
    },
    "state_change": {
        "stateChanges": [
            {
                "address": "0x0391d2021f89dc339f60fff84546ea23e337750f",
                "erc": "ERC-20",
                "slots": [
                    {
                        "current": "0x0000000000000000000000000000000000000000000000000000000000000000",
                        "key": "0x50430e89b8b75651541f07068549fb1f66ed6934f893726609aad6b602b23a8e",
                        "prev": "0x000000000000000000000000000000000000000000000021b036ad97dd50b67d"
                    },
                    {
                        "current": "0x000000000000000000000000000000000000000000000021b036adaa107cec5d",
                        "key": "0x57b771ebf8963a119523982403bf786b8040af1db93da2942065e5282cdd1967",
                        "prev": "0x00000000000000000000000000000000000000000000000000000012332c35e0"
                    }
                ],
                "storageVariables": [
                    {
                        "name": "_balances",
                        "type": "mapping(address => uint256)",
                        "value": {
                            "pairs": [
                                {
                                    "key": "0x47a732b7ae701f0c9ce6f0de49f5ab7d1906861c",
                                    "value": {
                                        "current": "0",
                                        "prev": "621440081499597616765",
                                        "typeTag": 1
                                    }
                                },
                                {
                                    "key": "0xcba1a1147edfb754cf61d8038e9fe63bf193f707",
                                    "value": {
                                        "current": "621440081577765563485",
                                        "prev": "78167946720",
                                        "typeTag": 1
                                    }
                                }
                            ],
                            "typeTag": 4
                        }
                    }
                ]
            }
        ]
    }
}