{
    "balance_change": {
        "balanceChanges": []
    },
    "profile": {
        "basic_info": {
            "baseFee": "34.601875193",
            "blockNumber": 12979627,
            "callData": "0x095ea7b3000000000000000000000000d6a32053a58a33b05bad9b388c82bccf203ee714000000000000000000000000000000000000000000000000000014300dce8ce8",
            "debugEnable": true,
            "errorInfo": "",
            "eventCount": 1,
            "feeRecipient": "0x829bd824b016326a401d083b33d092293333a830",
            "formatValue": "0",
            "gasLimit": 46060,
            "gasPrice": "40",
            "gasUsed": 46060,
            "intTxnCount": 0,
            "internalRevert": false,
            "internalRevertMessage": "",
            "isContractCreation": false,
            "isFlashloan": false,
            "maxFee": "",
            "nonce": 13,
            "overwritedBlockNumber": -1,
            "priorityFee": "",
            "receiver": "0x0a50c93c762fdd6e56d86215c24aaad43ab629aa",
            "revertMessage": "",
            "sender": "0x62989eb79a48f3ad7ad0c8918084fe1aa18bc92b",
            "simulationEnable": true,
            "sourceTxnHash": "0x6870c9db811421a92c059dd4a0b6f02e1564a717300c149c75b27694e3ed1e6a",
            "status": true,
            "timestamp": "2021-08-07T18:37:03Z",
            "transactionFee": "0.0018424",
            "txnHash": "0x6870c9db811421a92c059dd4a0b6f02e1564a717300c149c75b27694e3ed1e6a",
            "txnIndex": 246,
            "type": 0,
            "value": "0"
        },
        "fund_flow": [],
        "token_infos": [
            {
                "address": "0xc02aaa39b223fe8d0a0e5c4f27ead9083c756cc2",
                "decimals": 18
            },
            {
                "address": "0xeeeeeeeeeeeeeeeeeeeeeeeeeeeeeeeeeeeeeeee",
                "decimals": 18
            }
        ]
    },
    "address_label": {
        "labels": [
            {
                "address": "0x0000000000000000000000000000000000000001",
                "label": "Precompiled"
            },
            {
                "address": "0x0000000000000000000000000000000000000002",
                "label": "Precompiled"
            },
            {
                "address": "0x0000000000000000000000000000000000000003",
                "label": "Precompiled"
            },
            {
                "address": "0x0000000000000000000000000000000000000004",
                "label": "Precompiled"
            },
            {
                "address": "0xeeeeeeeeeeeeeeeeeeeeeeeeeeeeeeeeeeeeeeee",
                "label": "Ether"
            },
            {
                "address": "0xd6a32053a58a33b05bad9b388c82bccf203ee714",
                "label": "TokenSwap"
            },
            {
                "address": "0x0a50c93c762fdd6e56d86215c24aaad43ab629aa",
                "label": "LGO Exchange: LGO Token"
            }
        ]
    },
    "trace": {
        "accountLabels": null,
        "dataMap": {
            "-1": {
                "invocation": {
                    "address": "0x62989eb79a48f3ad7ad0c8918084fe1aa18bc92b",
                    "callData": "",
                    "decodedMethod": null,
                    "errorInfo": "",
                    "fromAddress": "",
                    "gasUsed": 0,
                    "id": -1,
                    "methodDecoded": false,
                    "operation": "",
                    "output": "",
                    "revert": false,
                    "revertMessage": "",
                    "selector": "",
                    "status": false,
                    "value": ""
                },
                "nodeType": 0
            },
            "0": {
                "invocation": {
                    "address": "0x0a50c93c762fdd6e56d86215c24aaad43ab629aa",
                    "callData": "0x000000000000000000000000d6a32053a58a33b05bad9b388c82bccf203ee714000000000000000000000000000000000000000000000000000014300dce8ce8",
                    "decodedMethod": {
                        "callParams": [
                            {
                                "name": "spender",
                                "type": "address",
                                "value": "0xd6a32053a58a33b05bad9b388c82bccf203ee714"
                            },
                            {
                                "decimalAvailable": true,
                                "name": "value",
                                "type": "uint256",
                                "value": "22,196,622,626,024"
                            }
                        ],
                        "constructorArguments": "",
                        "name": "approve",
                        "returnParams": [
                            {
                                "name": "",
                                "type": "bool",
                                "value": true
                            }
                        ],
                        "signature": "approve(address,uint256)"
                    },
                    "errorInfo": "",
                    "fromAddress": "0x62989eb79a48f3ad7ad0c8918084fe1aa18bc92b",
                    "gasUsed": 46060,
                    "id": 0,
                    "methodDecoded": true,
                    "operation": "CALL",
                    "output": "0x0000000000000000000000000000000000000000000000000000000000000001",
                    "revert": false,
                    "revertMessage": "",
                    "selector": "0x095ea7b3",
                    "status": true,
                    "value": "0"
                },
                "nodeType": 0
            },
            "1": {
                "event": {
                    "contract": "0x0a50c93c762fdd6e56d86215c24aaad43ab629aa",
                    "decodedLog": {
                        "name": "Approval",
                        "params": [
                            {
                                "name": "owner",
                                "type": "address",
                                "value": "0x62989eb79a48f3ad7ad0c8918084fe1aa18bc92b"
                            },
                            {
                                "name": "spender",
                                "type": "address",
                                "value": "0xd6a32053a58a33b05bad9b388c82bccf203ee714"
                            },
                            {
                                "decimalAvailable": true,
                                "name": "value",
                                "type": "uint256",
                                "value": "22,196,622,626,024"
                            }
                        ],
                        "signature": "Approval(address,address,uint256)"
                    },
                    "id": 1,
                    "logData": "0x000000000000000000000000000000000000000000000000000014300dce8ce8",
                    "logDecoded": true,
                    "operation": "EVENT",
                    "revert": false,
                    "status": true,
                    "topics": [
                        "0x8c5be1e5ebec7d5bd14f71427d1e84f3dd0314c0f7b2291e5b200ac8c7c3b925",
                        "0x00000000000000000000000062989eb79a48f3ad7ad0c8918084fe1aa18bc92b",
                        "0x000000000000000000000000d6a32053a58a33b05bad9b388c82bccf203ee714"
                    ]
                },
                "nodeType": 1
            }
        },
        "gasFlame": [
            {
                "children": [
                    {
                        "children": [
                            {
                                "children": [],
                                "depth": 0,
                                "name": "Initial Gas",
                                "value": 21632
                            },
                            {
                                "children": [],
                                "depth": 0,
                                "name": "Executed Gas",
                                "value": 24428
                            }
                        ],
                        "depth": -1,
                        "name": "Actual Gas Used",
                        "value": 46060
                    },
                    {
                        "children": [],
                        "depth": -1,
                        "name": "Refunded Gas",
                        "value": 0
                    }
                ],
                "depth": -2,
                "name": "Total Gas",
                "value": 46060
            }
        ],
        "isConfirmed": true,
        "mainTrace": [
            {
                "children": [
                    {
                        "children": [
                            {
                                "children": [],
                                "depth": 1,
                                "id": 1,
                                "order": 1
                            }
                        ],
                        "depth": 0,
                        "id": 0,
                        "order": 0
                    }
                ],
                "depth": -1,
                "id": -1,
                "order": -1
            }
        ],
        "mainTraceNodeCount": 2,
        "parentIdMap": {
            "0": -1,
            "1": 0
        },
        "tidyTrace": [
            {
                "children": [
                    {
                        "children": [
                            {
                                "children": [],
                                "depth": 1,
                                "id": 1,
                                "order": 1
                            }
                        ],
                        "depth": 0,
                        "id": 0,
                        "order": 0
                    }
                ],
                "depth": -1,
                "id": -1,
                "order": -1
            }
        ],
        "tidyTraceNodeCount": 2
    },
    "state_change": {
        "stateChanges": [
            {
                "address": "0x0a50c93c762fdd6e56d86215c24aaad43ab629aa",
                "erc": "ERC-20",
                "slots": [
                    {
                        "current": "0x000000000000000000000000000000000000000000000000000014300dce8ce8",
                        "key": "0xd2c1fea582de8c25564cd7f2a439559ca4944caca9ee41dd07372b241634340c",
                        "prev": "0x0000000000000000000000000000000000000000000000000000000000000000"
                    }
                ],
                "storageVariables": [
                    {
                        "name": "_allowed",
                        "type": "mapping(address => mapping(address => uint256))",
                        "value": {
                            "pairs": [
                                {
                                    "key": "0x62989eb79a48f3ad7ad0c8918084fe1aa18bc92b",
                                    "value": {
                                        "pairs": [
                                            {
                                                "key": "0xd6a32053a58a33b05bad9b388c82bccf203ee714",
                                                "value": {
                                                    "current": "22196622626024",
                                                    "prev": "0",
                                                    "typeTag": 1
                                                }
                                            }
                                        ],
                                        "typeTag": 4
                                    }
                                }
                            ],
                            "typeTag": 4
                        }
                    }
                ]
            }
        ]
    }
}