{
    "balance_change": {
        "balanceChanges": [
            {
                "account": "0x048717ea892f23fb0126f00640e2b18072efd9d2",
                "assets": [
                    {
                        "address": "0xeeeeeeeeeeeeeeeeeeeeeeeeeeeeeeeeeeeeeeee",
                        "amount": "2.475",
                        "iconUrl": "https://assets.blocksec.com/image/1663669189317-3.png",
                        "isERC1155": false,
                        "isERC721": false,
                        "sign": false,
                        "value": ""
                    }
                ]
            },
            {
                "account": "0x7c377b7bce53a5cef88458b2cbbe11c3babe16da",
                "assets": [
                    {
                        "address": "0xeeeeeeeeeeeeeeeeeeeeeeeeeeeeeeeeeeeeeeee",
                        "amount": "2.475",
                        "iconUrl": "https://assets.blocksec.com/image/1663669189317-3.png",
                        "isERC1155": false,
                        "isERC721": false,
                        "sign": true,
                        "value": ""
                    }
                ]
            }
        ]
    },
    "profile": {
        "basic_info": {
            "baseFee": "",
            "blockNumber": 5688707,
            "callData": "0x38bbfa50d404e8601d959321190fcb98b33e3583cf74645d7fb1fd241a9be84afb4f5f9e000000000000000000000000000000000000000000000000000000000000006000000000000000000000000000000000000000000000000000000000000000a0000000000000000000000000000000000000000000000000000000000000000e5b3332393532382c205b34345d5d00000000000000000000000000000000000000000000000000000000000000000000000000000000000000000000000000221220952c8f84a6fa2f714a01639cec3c58cc5986f1c0170efb72110853ed6b518442000000000000000000000000000000000000000000000000000000000000",
            "debugEnable": true,
            "errorInfo": "",
            "eventCount": 1,
            "feeRecipient": "0xf3b9d2c81f2b24b0fa0acaaa865b7d9ced5fc2fb",
            "formatValue": "0",
            "gasLimit": 235000,
            "gasPrice": "16",
            "gasUsed": 154834,
            "intTxnCount": 3,
            "internalRevert": false,
            "internalRevertMessage": "",
            "isContractCreation": false,
            "isFlashloan": false,
            "maxFee": "",
            "nonce": 537181,
            "overwritedBlockNumber": -1,
            "priorityFee": "",
            "receiver": "0x048717ea892f23fb0126f00640e2b18072efd9d2",
            "revertMessage": "",
            "sender": "0x26588a9301b0428d95e6fc3a5024fce8bec12d51",
            "simulationEnable": true,
            "sourceTxnHash": "0x682c78997e85db24c1ce3fd0b98b36b4aabb2ce6d2fad3e594788ce06b9f410d",
            "status": true,
            "timestamp": "2018-05-28T01:20:45Z",
            "transactionFee": "0.002477344",
            "txnHash": "0x682c78997e85db24c1ce3fd0b98b36b4aabb2ce6d2fad3e594788ce06b9f410d",
            "txnIndex": 7,
            "type": 0,
            "value": "0"
        },
        "fund_flow": [
            {
                "amount": "2.475",
                "from": "0x048717ea892f23fb0126f00640e2b18072efd9d2",
                "id": 1,
                "isERC1155": false,
                "isERC721": false,
                "isReverted": false,
                "order": 1,
                "to": "0x7c377b7bce53a5cef88458b2cbbe11c3babe16da",
                "token": "0xeeeeeeeeeeeeeeeeeeeeeeeeeeeeeeeeeeeeeeee"
            }
        ],
        "token_infos": [
            {
                "address": "0xc02aaa39b223fe8d0a0e5c4f27ead9083c756cc2",
                "decimals": 18
            },
            {
                "address": "0xeeeeeeeeeeeeeeeeeeeeeeeeeeeeeeeeeeeeeeee",
                "decimals": 18
            }
        ]
    },
    "address_label": {
        "labels": [
            {
                "address": "0x1d3b2638a7cc9f2cb3d298a3da7a90b67e5506ed",
                "label": "OraclizeAddrResolver"
            },
            {
                "address": "0x0000000000000000000000000000000000000001",
                "label": "Precompiled"
            },
            {
                "address": "0x0000000000000000000000000000000000000003",
                "label": "Precompiled"
            },
            {
                "address": "0x0000000000000000000000000000000000000004",
                "label": "Precompiled"
            },
            {
                "address": "0xeeeeeeeeeeeeeeeeeeeeeeeeeeeeeeeeeeeeeeee",
                "label": "Ether"
            },
            {
                "address": "0x26588a9301b0428d95e6fc3a5024fce8bec12d51",
                "label": "0x2658_Oraclize"
            },
            {
                "address": "0x048717ea892f23fb0126f00640e2b18072efd9d2",
                "label": "Etheroll"
            },
            {
                "address": "0x3dbdc81a6edc94c720b0b88fb65dbd7e395fdcf6",
                "label": "0x3dbd_Oraclize"
            },
            {
                "address": "0x0000000000000000000000000000000000000002",
                "label": "Precompiled"
            }
        ]
    },
    "trace": {
        "accountLabels": null,
        "dataMap": {
            "-1": {
                "invocation": {
                    "address": "0x26588a9301b0428d95e6fc3a5024fce8bec12d51",
                    "callData": "",
                    "decodedMethod": null,
                    "errorInfo": "",
                    "fromAddress": "",
                    "gasUsed": 0,
                    "id": -1,
                    "methodDecoded": false,
                    "operation": "",
                    "output": "",
                    "revert": false,
                    "revertMessage": "",
                    "selector": "",
                    "status": false,
                    "value": ""
                },
                "nodeType": 0
            },
            "0": {
                "invocation": {
                    "address": "0x048717ea892f23fb0126f00640e2b18072efd9d2",
                    "callData": "0xd404e8601d959321190fcb98b33e3583cf74645d7fb1fd241a9be84afb4f5f9e000000000000000000000000000000000000000000000000000000000000006000000000000000000000000000000000000000000000000000000000000000a0000000000000000000000000000000000000000000000000000000000000000e5b3332393532382c205b34345d5d00000000000000000000000000000000000000000000000000000000000000000000000000000000000000000000000000221220952c8f84a6fa2f714a01639cec3c58cc5986f1c0170efb72110853ed6b518442000000000000000000000000000000000000000000000000000000000000",
                    "decodedMethod": {
                        "callParams": [
                            {
                                "name": "myid",
                                "type": "bytes32",
                                "value": "0xd404e8601d959321190fcb98b33e3583cf74645d7fb1fd241a9be84afb4f5f9e"
                            },
                            {
                                "name": "result",
                                "type": "string",
                                "value": "[329528, [44]]"
                            },
                            {
                                "name": "proof",
                                "type": "bytes",
                                "value": "0x1220952c8f84a6fa2f714a01639cec3c58cc5986f1c0170efb72110853ed6b518442"
                            }
                        ],
                        "constructorArguments": "",
                        "name": "__callback",
                        "returnParams": [],
                        "signature": "__callback(bytes32,string,bytes)"
                    },
                    "errorInfo": "",
                    "fromAddress": "0x26588a9301b0428d95e6fc3a5024fce8bec12d51",
                    "gasUsed": 154834,
                    "id": 0,
                    "methodDecoded": true,
                    "operation": "CALL",
                    "output": "",
                    "revert": false,
                    "revertMessage": "",
                    "selector": "0x38bbfa50",
                    "status": true,
                    "value": "0"
                },
                "nodeType": 0
            },
            "1": {
                "invocation": {
                    "address": "0x1d3b2638a7cc9f2cb3d298a3da7a90b67e5506ed",
                    "callData": "0x",
                    "decodedMethod": {
                        "callParams": [],
                        "constructorArguments": "",
                        "name": "getAddress",
                        "returnParams": [
                            {
                                "name": "oaddr",
                                "type": "address",
                                "value": "0x3dbdc81a6edc94c720b0b88fb65dbd7e395fdcf6"
                            }
                        ],
                        "signature": "getAddress()"
                    },
                    "errorInfo": "",
                    "fromAddress": "0x048717ea892f23fb0126f00640e2b18072efd9d2",
                    "gasUsed": 418,
                    "id": 1,
                    "methodDecoded": true,
                    "operation": "CALL",
                    "output": "0x0000000000000000000000003dbdc81a6edc94c720b0b88fb65dbd7e395fdcf6",
                    "revert": false,
                    "revertMessage": "",
                    "selector": "0x38cc4831",
                    "status": true,
                    "value": "0"
                },
                "nodeType": 0
            },
            "2": {
                "invocation": {
                    "address": "0x3dbdc81a6edc94c720b0b88fb65dbd7e395fdcf6",
                    "callData": "0x",
                    "decodedMethod": {
                        "callParams": [],
                        "constructorArguments": "",
                        "name": "cbAddress",
                        "returnParams": [
                            {
                                "name": "_cbAddress",
                                "type": "address",
                                "value": "0x26588a9301b0428d95e6fc3a5024fce8bec12d51"
                            }
                        ],
                        "signature": "cbAddress()"
                    },
                    "errorInfo": "",
                    "fromAddress": "0x048717ea892f23fb0126f00640e2b18072efd9d2",
                    "gasUsed": 1444,
                    "id": 2,
                    "methodDecoded": true,
                    "operation": "CALL",
                    "output": "0x00000000000000000000000026588a9301b0428d95e6fc3a5024fce8bec12d51",
                    "revert": false,
                    "revertMessage": "",
                    "selector": "0xc281d19e",
                    "status": true,
                    "value": "0"
                },
                "nodeType": 0
            },
            "3": {
                "event": {
                    "contract": "0x048717ea892f23fb0126f00640e2b18072efd9d2",
                    "decodedLog": {
                        "name": "LogResult",
                        "params": [
                            {
                                "name": "ResultSerialNumber",
                                "type": "uint256",
                                "value": "329,528"
                            },
                            {
                                "name": "BetID",
                                "type": "bytes32",
                                "value": "0xd404e8601d959321190fcb98b33e3583cf74645d7fb1fd241a9be84afb4f5f9e"
                            },
                            {
                                "name": "PlayerAddress",
                                "type": "address",
                                "value": "0x7c377b7bce53a5cef88458b2cbbe11c3babe16da"
                            },
                            {
                                "name": "PlayerNumber",
                                "type": "uint256",
                                "value": "81"
                            },
                            {
                                "name": "DiceResult",
                                "type": "uint256",
                                "value": "44"
                            },
                            {
                                "name": "Value",
                                "type": "uint256",
                                "value": "2,475,000,000,000,000,000"
                            },
                            {
                                "name": "Status",
                                "type": "int256",
                                "value": "1"
                            },
                            {
                                "name": "Proof",
                                "type": "bytes",
                                "value": "0x1220952c8f84a6fa2f714a01639cec3c58cc5986f1c0170efb72110853ed6b518442"
                            }
                        ],
                        "signature": "LogResult(uint256,bytes32,address,uint256,uint256,uint256,int256,bytes)"
                    },
                    "id": 3,
                    "logData": "0x0000000000000000000000000000000000000000000000000000000000000051000000000000000000000000000000000000000000000000000000000000002c0000000000000000000000000000000000000000000000002258f7630b178000000000000000000000000000000000000000000000000000000000000000000100000000000000000000000000000000000000000000000000000000000000a000000000000000000000000000000000000000000000000000000000000000221220952c8f84a6fa2f714a01639cec3c58cc5986f1c0170efb72110853ed6b518442000000000000000000000000000000000000000000000000000000000000",
                    "logDecoded": true,
                    "operation": "EVENT",
                    "revert": false,
                    "status": true,
                    "topics": [
                        "0x8dd0b145385d04711e29558ceab40b456976a2b9a7d648cc1bcd416161bf97b9",
                        "0x0000000000000000000000000000000000000000000000000000000000050738",
                        "0xd404e8601d959321190fcb98b33e3583cf74645d7fb1fd241a9be84afb4f5f9e",
                        "0x0000000000000000000000007c377b7bce53a5cef88458b2cbbe11c3babe16da"
                    ]
                },
                "nodeType": 1
            },
            "4": {
                "invocation": {
                    "address": "0x7c377b7bce53a5cef88458b2cbbe11c3babe16da",
                    "callData": "0x",
                    "decodedMethod": null,
                    "errorInfo": "",
                    "fromAddress": "0x048717ea892f23fb0126f00640e2b18072efd9d2",
                    "gasUsed": 0,
                    "id": 4,
                    "methodDecoded": false,
                    "operation": "CALL",
                    "output": "",
                    "revert": false,
                    "revertMessage": "",
                    "selector": "fallback",
                    "status": true,
                    "value": "2.475"
                },
                "nodeType": 0
            }
        },
        "gasFlame": [
            {
                "children": [
                    {
                        "children": [
                            {
                                "children": [],
                                "depth": 0,
                                "name": "Initial Gas",
                                "value": 27672
                            },
                            {
                                "children": [
                                    {
                                        "children": [],
                                        "depth": 1,
                                        "name": "getAddress",
                                        "value": 418
                                    },
                                    {
                                        "children": [],
                                        "depth": 1,
                                        "name": "cbAddress",
                                        "value": 1444
                                    },
                                    {
                                        "children": [],
                                        "depth": 1,
                                        "name": "fallback",
                                        "value": 0
                                    }
                                ],
                                "depth": 0,
                                "name": "Executed Gas",
                                "value": 172162
                            }
                        ],
                        "depth": -1,
                        "name": "Actual Gas Used",
                        "value": 154834
                    },
                    {
                        "children": [],
                        "depth": -1,
                        "name": "Refunded Gas",
                        "value": 45000
                    }
                ],
                "depth": -2,
                "name": "Total Gas",
                "value": 199834
            }
        ],
        "isConfirmed": true,
        "mainTrace": [
            {
                "children": [
                    {
                        "children": [
                            {
                                "children": [],
                                "depth": 1,
                                "id": 1,
                                "order": 1
                            },
                            {
                                "children": [],
                                "depth": 1,
                                "id": 2,
                                "order": 2
                            },
                            {
                                "children": [],
                                "depth": 1,
                                "id": 3,
                                "order": 3
                            },
                            {
                                "children": [],
                                "depth": 1,
                                "id": 4,
                                "order": 4
                            }
                        ],
                        "depth": 0,
                        "id": 0,
                        "order": 0
                    }
                ],
                "depth": -1,
                "id": -1,
                "order": -1
            }
        ],
        "mainTraceNodeCount": 5,
        "parentIdMap": {
            "0": -1,
            "1": 0,
            "2": 0,
            "3": 0,
            "4": 0
        },
        "tidyTrace": [
            {
                "children": [
                    {
                        "children": [
                            {
                                "children": [],
                                "depth": 1,
                                "id": 1,
                                "order": 1
                            },
                            {
                                "children": [],
                                "depth": 1,
                                "id": 2,
                                "order": 2
                            },
                            {
                                "children": [],
                                "depth": 1,
                                "id": 3,
                                "order": 3
                            },
                            {
                                "children": [],
                                "depth": 1,
                                "id": 4,
                                "order": 4
                            }
                        ],
                        "depth": 0,
                        "id": 0,
                        "order": 0
                    }
                ],
                "depth": -1,
                "id": -1,
                "order": -1
            }
        ],
        "tidyTraceNodeCount": 5
    },
    "state_change": {
        "stateChanges": [
            {
                "address": "0x048717ea892f23fb0126f00640e2b18072efd9d2",
                "erc": "",
                "slots": [
                    {
                        "current": "0x000000000000000000000000000000000000000000004e7cd67b2bc1273b5d11",
                        "key": "0x000000000000000000000000000000000000000000000000000000000000000f",
                        "prev": "0x000000000000000000000000000000000000000000004e7cbab9be59d8735d11"
                    },
                    {
                        "current": "0x0000000000000000000000007c377b7bce53a5cef88458b2cbbe11c3babe16da",
                        "key": "0x3cbc6b93c7608b9fcf31ec409c32e4e4facb4112f12f1ff745f09df30515b264",
                        "prev": "0x0000000000000000000000000000000000000000000000000000000000000000"
                    },
                    {
                        "current": "0x0000000000000000000000000000000000000000000000000000000000000000",
                        "key": "0x1e2fac2928e844fea279e90594bf3463199d0c7b9d68e19f89d1f2206643c755",
                        "prev": "0x0000000000000000000000007c377b7bce53a5cef88458b2cbbe11c3babe16da"
                    },
                    {
                        "current": "0x0000000000000000000000000000000000000000000000002258f7630b178000",
                        "key": "0xf98e35b62e169f0a1d0d6754cc6cfe16402b428e0b3e1fa58cba4d89401ac6d7",
                        "prev": "0x0000000000000000000000000000000000000000000000000000000000000000"
                    },
                    {
                        "current": "0x000000000000000000000000000000000000000000000002d59ccd19e9233c77",
                        "key": "0x0000000000000000000000000000000000000000000000000000000000000009",
                        "prev": "0x000000000000000000000000000000000000000000000002d5adad3377d21c77"
                    },
                    {
                        "current": "0x000000000000000000000000000000000000000000000000000000000000002c",
                        "key": "0xfc7d7b401da47eb60430a417e892dc322c2058c136fa3531cc32a2b493bd160f",
                        "prev": "0x0000000000000000000000000000000000000000000000000000000000000000"
                    },
                    {
                        "current": "0x0000000000000000000000000000000000000000000000000000000000000000",
                        "key": "0x40d2796b6129b6159e4a8e1286e62d9c4282d27a9b1deea375776e10b368b98e",
                        "prev": "0x000000000000000000000000000000000000000000000000069789fbbc4f8000"
                    },
                    {
                        "current": "0x0000000000000000000000000000000000000000000000001bc16d674ec80000",
                        "key": "0xcdc3714a360126f33f3388c85e4e2b0c673d09e1ca6037a9ac3f5789123bc911",
                        "prev": "0x0000000000000000000000000000000000000000000000000000000000000000"
                    },
                    {
                        "current": "0x000000000000000000000000000000000000000000001d82ce69ffdf6e8a070b",
                        "key": "0x000000000000000000000000000000000000000000000000000000000000000e",
                        "prev": "0x000000000000000000000000000000000000000000001d82c7d275e3b23a870b"
                    },
                    {
                        "current": "0x00000000000000000000000000000000000000000000011b71401e1f11c39ec9",
                        "key": "0x0000000000000000000000000000000000000000000000000000000000000007",
                        "prev": "0x00000000000000000000000000000000000000000000011b77d7a81ace131ec9"
                    },
                    {
                        "current": "0x000000000000000000000000000000000000000000000000a28c5956d74a899c",
                        "key": "0x000000000000000000000000000000000000000000000000000000000000000d",
                        "prev": "0x000000000000000000000000000000000000000000000000a923e352939a099c"
                    },
                    {
                        "current": "0x0000000000000000000000000000000000000000000000000000000000000000",
                        "key": "0xafa8ce1e40a1dd6554413204f0642c514fa4518f78068a2be5ea1dce644b468a",
                        "prev": "0x0000000000000000000000000000000000000000000000001bc16d674ec80000"
                    },
                    {
                        "current": "0x000000000000000000000000000000000000000000000000000000000004e959",
                        "key": "0x000000000000000000000000000000000000000000000000000000000000000c",
                        "prev": "0x000000000000000000000000000000000000000000000000000000000004e958"
                    }
                ],
                "storageVariables": [
                    {
                        "name": "totalBets",
                        "type": "uint256",
                        "value": {
                            "current": "321881",
                            "prev": "321880",
                            "typeTag": 1
                        }
                    },
                    {
                        "name": "maxProfit",
                        "type": "uint256",
                        "value": {
                            "current": "52285891285033892983",
                            "prev": "52290641285033892983",
                            "typeTag": 1
                        }
                    },
                    {
                        "name": "playerDieResult",
                        "type": "mapping(bytes32 => uint256)",
                        "value": {
                            "pairs": [
                                {
                                    "key": "0xd404e8601d959321190fcb98b33e3583cf74645d7fb1fd241a9be84afb4f5f9e",
                                    "value": {
                                        "current": "44",
                                        "prev": "0",
                                        "typeTag": 1
                                    }
                                }
                            ],
                            "typeTag": 4
                        }
                    },
                    {
                        "name": "playerBetValue",
                        "type": "mapping(bytes32 => uint256)",
                        "value": {
                            "pairs": [
                                {
                                    "key": "0xd404e8601d959321190fcb98b33e3583cf74645d7fb1fd241a9be84afb4f5f9e",
                                    "value": {
                                        "current": "0",
                                        "prev": "2000000000000000000",
                                        "typeTag": 1
                                    }
                                }
                            ],
                            "typeTag": 4
                        }
                    },
                    {
                        "name": "playerAddress",
                        "type": "mapping(bytes32 => address)",
                        "value": {
                            "pairs": [
                                {
                                    "key": "0xd404e8601d959321190fcb98b33e3583cf74645d7fb1fd241a9be84afb4f5f9e",
                                    "value": {
                                        "current": "0x0000000000000000000000000000000000000000",
                                        "prev": "0x7c377b7bce53a5cef88458b2cbbe11c3babe16da",
                                        "typeTag": 1
                                    }
                                }
                            ],
                            "typeTag": 4
                        }
                    },
                    {
                        "name": "contractBalance",
                        "type": "uint256",
                        "value": {
                            "current": "5228589128503389298377",
                            "prev": "5229064128503389298377",
                            "typeTag": 1
                        }
                    },
                    {
                        "name": "playerTempAddress",
                        "type": "mapping(bytes32 => address)",
                        "value": {
                            "pairs": [
                                {
                                    "key": "0xd404e8601d959321190fcb98b33e3583cf74645d7fb1fd241a9be84afb4f5f9e",
                                    "value": {
                                        "current": "0x7c377b7bce53a5cef88458b2cbbe11c3babe16da",
                                        "prev": "0x0000000000000000000000000000000000000000",
                                        "typeTag": 1
                                    }
                                }
                            ],
                            "typeTag": 4
                        }
                    },
                    {
                        "name": "totalWeiWon",
                        "type": "uint256",
                        "value": {
                            "current": "139361578433381418010379",
                            "prev": "139361103433381418010379",
                            "typeTag": 1
                        }
                    },
                    {
                        "name": "maxPendingPayouts",
                        "type": "uint256",
                        "value": {
                            "current": "11712834960397863324",
                            "prev": "12187834960397863324",
                            "typeTag": 1
                        }
                    },
                    {
                        "name": "playerTempReward",
                        "type": "mapping(bytes32 => uint256)",
                        "value": {
                            "pairs": [
                                {
                                    "key": "0xd404e8601d959321190fcb98b33e3583cf74645d7fb1fd241a9be84afb4f5f9e",
                                    "value": {
                                        "current": "2475000000000000000",
                                        "prev": "0",
                                        "typeTag": 1
                                    }
                                }
                            ],
                            "typeTag": 4
                        }
                    },
                    {
                        "name": "totalWeiWagered",
                        "type": "uint256",
                        "value": {
                            "current": "370647436923627149942033",
                            "prev": "370645436923627149942033",
                            "typeTag": 1
                        }
                    },
                    {
                        "name": "playerProfit",
                        "type": "mapping(bytes32 => uint256)",
                        "value": {
                            "pairs": [
                                {
                                    "key": "0xd404e8601d959321190fcb98b33e3583cf74645d7fb1fd241a9be84afb4f5f9e",
                                    "value": {
                                        "current": "0",
                                        "prev": "475000000000000000",
                                        "typeTag": 1
                                    }
                                }
                            ],
                            "typeTag": 4
                        }
                    },
                    {
                        "name": "playerTempBetValue",
                        "type": "mapping(bytes32 => uint256)",
                        "value": {
                            "pairs": [
                                {
                                    "key": "0xd404e8601d959321190fcb98b33e3583cf74645d7fb1fd241a9be84afb4f5f9e",
                                    "value": {
                                        "current": "2000000000000000000",
                                        "prev": "0",
                                        "typeTag": 1
                                    }
                                }
                            ],
                            "typeTag": 4
                        }
                    }
                ]
            }
        ]
    }
}