{
    "balance_change": {
        "balanceChanges": [
            {
                "account": "0xecfe1930ffe9f5828a9aba39276a44d18b2e9aa3",
                "assets": [
                    {
                        "address": "0x1c040c4ab9acce984d0d4c135576598013950e52",
                        "amount": "13",
                        "iconUrl": "",
                        "isERC1155": false,
                        "isERC721": false,
                        "sign": false,
                        "value": ""
                    }
                ]
            },
            {
                "account": "0x7d769e85cd5458638cd743c0461b88778db79605",
                "assets": [
                    {
                        "address": "0x1c040c4ab9acce984d0d4c135576598013950e52",
                        "amount": "13",
                        "iconUrl": "",
                        "isERC1155": false,
                        "isERC721": false,
                        "sign": true,
                        "value": ""
                    }
                ]
            }
        ]
    },
    "profile": {
        "basic_info": {
            "baseFee": "",
            "blockNumber": 8977656,
            "callData": "0xa9059cbb0000000000000000000000007d769e85cd5458638cd743c0461b88778db79605000000000000000000000000000000000000000000000000b469471f80140000",
            "debugEnable": true,
            "errorInfo": "",
            "eventCount": 1,
            "feeRecipient": "0xea674fdde714fd979de3edf0f56aa9716b898ec8",
            "formatValue": "0",
            "gasLimit": 38291,
            "gasPrice": "10",
            "gasUsed": 38291,
            "intTxnCount": 0,
            "internalRevert": false,
            "internalRevertMessage": "",
            "isContractCreation": false,
            "isFlashloan": false,
            "maxFee": "",
            "nonce": 34231,
            "overwritedBlockNumber": -1,
            "priorityFee": "",
            "receiver": "0x1c040c4ab9acce984d0d4c135576598013950e52",
            "revertMessage": "",
            "sender": "0xecfe1930ffe9f5828a9aba39276a44d18b2e9aa3",
            "simulationEnable": true,
            "sourceTxnHash": "0x6825e5a9bee73b890bd0a09006b697b352db02e33b030eec7b55432ef739f26c",
            "status": true,
            "timestamp": "2019-11-22T01:19:09Z",
            "transactionFee": "0.00038291",
            "txnHash": "0x6825e5a9bee73b890bd0a09006b697b352db02e33b030eec7b55432ef739f26c",
            "txnIndex": 107,
            "type": 0,
            "value": "0"
        },
        "fund_flow": [
            {
                "amount": "13",
                "from": "0xecfe1930ffe9f5828a9aba39276a44d18b2e9aa3",
                "id": 1,
                "isERC1155": false,
                "isERC721": false,
                "isReverted": false,
                "order": 1,
                "to": "0x7d769e85cd5458638cd743c0461b88778db79605",
                "token": "0x1c040c4ab9acce984d0d4c135576598013950e52"
            }
        ],
        "token_infos": [
            {
                "address": "0x1c040c4ab9acce984d0d4c135576598013950e52",
                "decimals": 18
            },
            {
                "address": "0xc02aaa39b223fe8d0a0e5c4f27ead9083c756cc2",
                "decimals": 18
            },
            {
                "address": "0xeeeeeeeeeeeeeeeeeeeeeeeeeeeeeeeeeeeeeeee",
                "decimals": 18
            }
        ]
    },
    "address_label": {
        "labels": [
            {
                "address": "0xeeeeeeeeeeeeeeeeeeeeeeeeeeeeeeeeeeeeeeee",
                "label": "Ether"
            },
            {
                "address": "0x1c040c4ab9acce984d0d4c135576598013950e52",
                "label": "Hurricane Network (HNW)"
            },
            {
                "address": "0x0000000000000000000000000000000000000001",
                "label": "Precompiled"
            },
            {
                "address": "0x0000000000000000000000000000000000000002",
                "label": "Precompiled"
            },
            {
                "address": "0x0000000000000000000000000000000000000003",
                "label": "Precompiled"
            },
            {
                "address": "0x0000000000000000000000000000000000000004",
                "label": "Precompiled"
            }
        ]
    },
    "trace": {
        "accountLabels": null,
        "dataMap": {
            "-1": {
                "invocation": {
                    "address": "0xecfe1930ffe9f5828a9aba39276a44d18b2e9aa3",
                    "callData": "",
                    "decodedMethod": null,
                    "errorInfo": "",
                    "fromAddress": "",
                    "gasUsed": 0,
                    "id": -1,
                    "methodDecoded": false,
                    "operation": "",
                    "output": "",
                    "revert": false,
                    "revertMessage": "",
                    "selector": "",
                    "status": false,
                    "value": ""
                },
                "nodeType": 0
            },
            "0": {
                "invocation": {
                    "address": "0x1c040c4ab9acce984d0d4c135576598013950e52",
                    "callData": "0x0000000000000000000000007d769e85cd5458638cd743c0461b88778db79605000000000000000000000000000000000000000000000000b469471f80140000",
                    "decodedMethod": {
                        "callParams": [
                            {
                                "name": "_to",
                                "type": "address",
                                "value": "0x7d769e85cd5458638cd743c0461b88778db79605"
                            },
                            {
                                "decimalAvailable": true,
                                "name": "_value",
                                "type": "uint256",
                                "value": "13,000,000,000,000,000,000"
                            }
                        ],
                        "constructorArguments": "",
                        "name": "transfer",
                        "returnParams": [],
                        "signature": "transfer(address,uint256)"
                    },
                    "errorInfo": "",
                    "fromAddress": "0xecfe1930ffe9f5828a9aba39276a44d18b2e9aa3",
                    "gasUsed": 38291,
                    "id": 0,
                    "methodDecoded": true,
                    "operation": "CALL",
                    "output": "",
                    "revert": false,
                    "revertMessage": "",
                    "selector": "0xa9059cbb",
                    "status": true,
                    "value": "0"
                },
                "nodeType": 0
            },
            "1": {
                "event": {
                    "contract": "0x1c040c4ab9acce984d0d4c135576598013950e52",
                    "decodedLog": {
                        "name": "Transfer",
                        "params": [
                            {
                                "name": "from",
                                "type": "address",
                                "value": "0xecfe1930ffe9f5828a9aba39276a44d18b2e9aa3"
                            },
                            {
                                "name": "to",
                                "type": "address",
                                "value": "0x7d769e85cd5458638cd743c0461b88778db79605"
                            },
                            {
                                "decimalAvailable": true,
                                "name": "value",
                                "type": "uint256",
                                "value": "13,000,000,000,000,000,000"
                            }
                        ],
                        "signature": "Transfer(address,address,uint256)"
                    },
                    "id": 1,
                    "logData": "0x000000000000000000000000000000000000000000000000b469471f80140000",
                    "logDecoded": true,
                    "operation": "EVENT",
                    "revert": false,
                    "status": true,
                    "topics": [
                        "0xddf252ad1be2c89b69c2b068fc378daa952ba7f163c4a11628f55a4df523b3ef",
                        "0x000000000000000000000000ecfe1930ffe9f5828a9aba39276a44d18b2e9aa3",
                        "0x0000000000000000000000007d769e85cd5458638cd743c0461b88778db79605"
                    ]
                },
                "nodeType": 1
            }
        },
        "gasFlame": [
            {
                "children": [
                    {
                        "children": [
                            {
                                "children": [],
                                "depth": 0,
                                "name": "Initial Gas",
                                "value": 23192
                            },
                            {
                                "children": [],
                                "depth": 0,
                                "name": "Executed Gas",
                                "value": 15099
                            }
                        ],
                        "depth": -1,
                        "name": "Actual Gas Used",
                        "value": 38291
                    },
                    {
                        "children": [],
                        "depth": -1,
                        "name": "Refunded Gas",
                        "value": 0
                    }
                ],
                "depth": -2,
                "name": "Total Gas",
                "value": 38291
            }
        ],
        "isConfirmed": true,
        "mainTrace": [
            {
                "children": [
                    {
                        "children": [
                            {
                                "children": [],
                                "depth": 1,
                                "id": 1,
                                "order": 1
                            }
                        ],
                        "depth": 0,
                        "id": 0,
                        "order": 0
                    }
                ],
                "depth": -1,
                "id": -1,
                "order": -1
            }
        ],
        "mainTraceNodeCount": 2,
        "parentIdMap": {
            "0": -1,
            "1": 0
        },
        "tidyTrace": [
            {
                "children": [
                    {
                        "children": [
                            {
                                "children": [],
                                "depth": 1,
                                "id": 1,
                                "order": 1
                            }
                        ],
                        "depth": 0,
                        "id": 0,
                        "order": 0
                    }
                ],
                "depth": -1,
                "id": -1,
                "order": -1
            }
        ],
        "tidyTraceNodeCount": 2
    },
    "state_change": {
        "stateChanges": [
            {
                "address": "0x1c040c4ab9acce984d0d4c135576598013950e52",
                "erc": "",
                "slots": [
                    {
                        "current": "0x000000000000000000000000000000000000000000000abd7e9202a72e8f3800",
                        "key": "0x00e0061f9ce7fd657cc8d30177d1e1d2874ad2cb807649c1901076ebd2a72aaa",
                        "prev": "0x000000000000000000000000000000000000000000000abe32fb49c6aea33800"
                    },
                    {
                        "current": "0x00000000000000000000000000000000000000000000001c229266385bbc0000",
                        "key": "0xabf7b39d53ae4696b0e69dcc17cac825005c31953a4ebade865943255fb72b7b",
                        "prev": "0x00000000000000000000000000000000000000000000001b6e291f18dba80000"
                    }
                ],
                "storageVariables": [
                    {
                        "name": "balanceOf",
                        "type": "mapping(address => uint256)",
                        "value": {
                            "pairs": [
                                {
                                    "key": "0x7d769e85cd5458638cd743c0461b88778db79605",
                                    "value": {
                                        "current": "519000000000000000000",
                                        "prev": "506000000000000000000",
                                        "typeTag": 1
                                    }
                                },
                                {
                                    "key": "0xecfe1930ffe9f5828a9aba39276a44d18b2e9aa3",
                                    "value": {
                                        "current": "50719219813740000000000",
                                        "prev": "50732219813740000000000",
                                        "typeTag": 1
                                    }
                                }
                            ],
                            "typeTag": 4
                        }
                    }
                ]
            }
        ]
    }
}