{
    "balance_change": {
        "balanceChanges": []
    },
    "profile": {
        "basic_info": {
            "baseFee": "",
            "blockNumber": 7661526,
            "callData": "0x095ea7b3000000000000000000000000c02d4bd00f642d2821e4279c810dd7b6e49264f800000000000000000000000000000000000000000001b7b2ce8995080e144000",
            "debugEnable": true,
            "errorInfo": "",
            "eventCount": 1,
            "feeRecipient": "0x5a0b54d5dc17e0aadc383d2db43b0a0d3e029c4c",
            "formatValue": "0",
            "gasLimit": 60000,
            "gasPrice": "5",
            "gasUsed": 45825,
            "intTxnCount": 0,
            "internalRevert": false,
            "internalRevertMessage": "",
            "isContractCreation": false,
            "isFlashloan": false,
            "maxFee": "",
            "nonce": 899,
            "overwritedBlockNumber": -1,
            "priorityFee": "",
            "receiver": "0x9a0242b7a33dacbe40edb927834f96eb39f8fbcb",
            "revertMessage": "",
            "sender": "0xc4c45bb600861f3f9a87cc95fb4e7d8e4347a983",
            "simulationEnable": true,
            "sourceTxnHash": "0x68c81547ab7746ae5c527ab30cce66b3f66aec2127f97cd65ed9d4e2dddc4779",
            "status": true,
            "timestamp": "2019-04-29T09:21:29Z",
            "transactionFee": "0.000229125",
            "txnHash": "0x68c81547ab7746ae5c527ab30cce66b3f66aec2127f97cd65ed9d4e2dddc4779",
            "txnIndex": 92,
            "type": 0,
            "value": "0"
        },
        "fund_flow": [],
        "token_infos": [
            {
                "address": "0xc02aaa39b223fe8d0a0e5c4f27ead9083c756cc2",
                "decimals": 18
            },
            {
                "address": "0xeeeeeeeeeeeeeeeeeeeeeeeeeeeeeeeeeeeeeeee",
                "decimals": 18
            }
        ]
    },
    "address_label": {
        "labels": [
            {
                "address": "0x0000000000000000000000000000000000000002",
                "label": "Precompiled"
            },
            {
                "address": "0x0000000000000000000000000000000000000003",
                "label": "Precompiled"
            },
            {
                "address": "0x0000000000000000000000000000000000000004",
                "label": "Precompiled"
            },
            {
                "address": "0xeeeeeeeeeeeeeeeeeeeeeeeeeeeeeeeeeeeeeeee",
                "label": "Ether"
            },
            {
                "address": "0x9a0242b7a33dacbe40edb927834f96eb39f8fbcb",
                "label": "BABB Platform: Old BAX Token"
            },
            {
                "address": "0xc02d4bd00f642d2821e4279c810dd7b6e49264f8",
                "label": "Bancor: Converter #112"
            },
            {
                "address": "0x0000000000000000000000000000000000000001",
                "label": "Precompiled"
            }
        ]
    },
    "trace": {
        "accountLabels": null,
        "dataMap": {
            "-1": {
                "invocation": {
                    "address": "0xc4c45bb600861f3f9a87cc95fb4e7d8e4347a983",
                    "callData": "",
                    "decodedMethod": null,
                    "errorInfo": "",
                    "fromAddress": "",
                    "gasUsed": 0,
                    "id": -1,
                    "methodDecoded": false,
                    "operation": "",
                    "output": "",
                    "revert": false,
                    "revertMessage": "",
                    "selector": "",
                    "status": false,
                    "value": ""
                },
                "nodeType": 0
            },
            "0": {
                "invocation": {
                    "address": "0x9a0242b7a33dacbe40edb927834f96eb39f8fbcb",
                    "callData": "0x000000000000000000000000c02d4bd00f642d2821e4279c810dd7b6e49264f800000000000000000000000000000000000000000001b7b2ce8995080e144000",
                    "decodedMethod": {
                        "callParams": [
                            {
                                "name": "_spender",
                                "type": "address",
                                "value": "0xc02d4bd00f642d2821e4279c810dd7b6e49264f8"
                            },
                            {
                                "decimalAvailable": true,
                                "name": "_value",
                                "type": "uint256",
                                "value": "2,076,417,289,015,200,000,000,000"
                            }
                        ],
                        "constructorArguments": "",
                        "name": "approve",
                        "returnParams": [
                            {
                                "name": "",
                                "type": "bool",
                                "value": true
                            }
                        ],
                        "signature": "approve(address,uint256)"
                    },
                    "errorInfo": "",
                    "fromAddress": "0xc4c45bb600861f3f9a87cc95fb4e7d8e4347a983",
                    "gasUsed": 45825,
                    "id": 0,
                    "methodDecoded": true,
                    "operation": "CALL",
                    "output": "0x0000000000000000000000000000000000000000000000000000000000000001",
                    "revert": false,
                    "revertMessage": "",
                    "selector": "0x095ea7b3",
                    "status": true,
                    "value": "0"
                },
                "nodeType": 0
            },
            "1": {
                "event": {
                    "contract": "0x9a0242b7a33dacbe40edb927834f96eb39f8fbcb",
                    "decodedLog": {
                        "name": "Approval",
                        "params": [
                            {
                                "name": "owner",
                                "type": "address",
                                "value": "0xc4c45bb600861f3f9a87cc95fb4e7d8e4347a983"
                            },
                            {
                                "name": "spender",
                                "type": "address",
                                "value": "0xc02d4bd00f642d2821e4279c810dd7b6e49264f8"
                            },
                            {
                                "decimalAvailable": true,
                                "name": "value",
                                "type": "uint256",
                                "value": "2,076,417,289,015,200,000,000,000"
                            }
                        ],
                        "signature": "Approval(address,address,uint256)"
                    },
                    "id": 1,
                    "logData": "0x00000000000000000000000000000000000000000001b7b2ce8995080e144000",
                    "logDecoded": true,
                    "operation": "EVENT",
                    "revert": false,
                    "status": true,
                    "topics": [
                        "0x8c5be1e5ebec7d5bd14f71427d1e84f3dd0314c0f7b2291e5b200ac8c7c3b925",
                        "0x000000000000000000000000c4c45bb600861f3f9a87cc95fb4e7d8e4347a983",
                        "0x000000000000000000000000c02d4bd00f642d2821e4279c810dd7b6e49264f8"
                    ]
                },
                "nodeType": 1
            }
        },
        "gasFlame": [
            {
                "children": [
                    {
                        "children": [
                            {
                                "children": [],
                                "depth": 0,
                                "name": "Initial Gas",
                                "value": 23448
                            },
                            {
                                "children": [],
                                "depth": 0,
                                "name": "Executed Gas",
                                "value": 22377
                            }
                        ],
                        "depth": -1,
                        "name": "Actual Gas Used",
                        "value": 45825
                    },
                    {
                        "children": [],
                        "depth": -1,
                        "name": "Refunded Gas",
                        "value": 0
                    }
                ],
                "depth": -2,
                "name": "Total Gas",
                "value": 45825
            }
        ],
        "isConfirmed": true,
        "mainTrace": [
            {
                "children": [
                    {
                        "children": [
                            {
                                "children": [],
                                "depth": 1,
                                "id": 1,
                                "order": 1
                            }
                        ],
                        "depth": 0,
                        "id": 0,
                        "order": 0
                    }
                ],
                "depth": -1,
                "id": -1,
                "order": -1
            }
        ],
        "mainTraceNodeCount": 2,
        "parentIdMap": {
            "0": -1,
            "1": 0
        },
        "tidyTrace": [
            {
                "children": [
                    {
                        "children": [
                            {
                                "children": [],
                                "depth": 1,
                                "id": 1,
                                "order": 1
                            }
                        ],
                        "depth": 0,
                        "id": 0,
                        "order": 0
                    }
                ],
                "depth": -1,
                "id": -1,
                "order": -1
            }
        ],
        "tidyTraceNodeCount": 2
    },
    "state_change": {
        "stateChanges": [
            {
                "address": "0x9a0242b7a33dacbe40edb927834f96eb39f8fbcb",
                "erc": "ERC-20",
                "slots": [
                    {
                        "current": "0x00000000000000000000000000000000000000000001b7b2ce8995080e144000",
                        "key": "0x5cf24db8873a9ead106c3b03810c9b2ac93942386e80fc7e05f18ab6a97943e2",
                        "prev": "0x0000000000000000000000000000000000000000000000000000000000000000"
                    }
                ],
                "storageVariables": [
                    {
                        "name": "allowed",
                        "type": "mapping(address => mapping(address => uint256))",
                        "value": {
                            "pairs": [
                                {
                                    "key": "0xc4c45bb600861f3f9a87cc95fb4e7d8e4347a983",
                                    "value": {
                                        "pairs": [
                                            {
                                                "key": "0xc02d4bd00f642d2821e4279c810dd7b6e49264f8",
                                                "value": {
                                                    "current": "2076417289015200000000000",
                                                    "prev": "0",
                                                    "typeTag": 1
                                                }
                                            }
                                        ],
                                        "typeTag": 4
                                    }
                                }
                            ],
                            "typeTag": 4
                        }
                    }
                ]
            }
        ]
    }
}