{
    "balance_change": {
        "balanceChanges": [
            {
                "account": "0x1c44b5a22f046f33ab1a59595cfec3337ac4d9b0",
                "assets": [
                    {
                        "address": "0x647f24fc14b75335adf97eb9792ce004471bf35a",
                        "amount": "5",
                        "iconUrl": "",
                        "isERC1155": false,
                        "isERC721": false,
                        "sign": false,
                        "value": ""
                    }
                ]
            },
            {
                "account": "0x7e395610d8975e024f95dcb1e0a61a681321fcf6",
                "assets": [
                    {
                        "address": "0x647f24fc14b75335adf97eb9792ce004471bf35a",
                        "amount": "5",
                        "iconUrl": "",
                        "isERC1155": false,
                        "isERC721": false,
                        "sign": true,
                        "value": ""
                    }
                ]
            }
        ]
    },
    "profile": {
        "basic_info": {
            "baseFee": "",
            "blockNumber": 6414192,
            "callData": "0xa9059cbb0000000000000000000000007e395610d8975e024f95dcb1e0a61a681321fcf60000000000000000000000000000000000000000000000004563918244f40000",
            "debugEnable": true,
            "errorInfo": "",
            "eventCount": 1,
            "feeRecipient": "0xa855c20a1351acd2690c716e2709c7dff3978d12",
            "formatValue": "0",
            "gasLimit": 1000000,
            "gasPrice": "10.259",
            "gasUsed": 51756,
            "intTxnCount": 0,
            "internalRevert": false,
            "internalRevertMessage": "",
            "isContractCreation": false,
            "isFlashloan": false,
            "maxFee": "",
            "nonce": 2,
            "overwritedBlockNumber": -1,
            "priorityFee": "",
            "receiver": "0x647f24fc14b75335adf97eb9792ce004471bf35a",
            "revertMessage": "",
            "sender": "0x1c44b5a22f046f33ab1a59595cfec3337ac4d9b0",
            "simulationEnable": true,
            "sourceTxnHash": "0x680e41a61310e9f168809056fd5238ce930cd7ed6f75bf5731784ad63b704655",
            "status": true,
            "timestamp": "2018-09-28T08:48:44Z",
            "transactionFee": "0.000530964804",
            "txnHash": "0x680e41a61310e9f168809056fd5238ce930cd7ed6f75bf5731784ad63b704655",
            "txnIndex": 73,
            "type": 0,
            "value": "0"
        },
        "fund_flow": [
            {
                "amount": "5",
                "from": "0x1c44b5a22f046f33ab1a59595cfec3337ac4d9b0",
                "id": 1,
                "isERC1155": false,
                "isERC721": false,
                "isReverted": false,
                "order": 1,
                "to": "0x7e395610d8975e024f95dcb1e0a61a681321fcf6",
                "token": "0x647f24fc14b75335adf97eb9792ce004471bf35a"
            }
        ],
        "token_infos": [
            {
                "address": "0x647f24fc14b75335adf97eb9792ce004471bf35a",
                "decimals": 18
            },
            {
                "address": "0xc02aaa39b223fe8d0a0e5c4f27ead9083c756cc2",
                "decimals": 18
            },
            {
                "address": "0xeeeeeeeeeeeeeeeeeeeeeeeeeeeeeeeeeeeeeeee",
                "decimals": 18
            }
        ]
    },
    "address_label": {
        "labels": [
            {
                "address": "0x0000000000000000000000000000000000000002",
                "label": "Precompiled"
            },
            {
                "address": "0x0000000000000000000000000000000000000003",
                "label": "Precompiled"
            },
            {
                "address": "0x0000000000000000000000000000000000000004",
                "label": "Precompiled"
            },
            {
                "address": "0xeeeeeeeeeeeeeeeeeeeeeeeeeeeeeeeeeeeeeeee",
                "label": "Ether"
            },
            {
                "address": "0x647f24fc14b75335adf97eb9792ce004471bf35a",
                "label": "MITC"
            },
            {
                "address": "0x0000000000000000000000000000000000000001",
                "label": "Precompiled"
            }
        ]
    },
    "trace": {
        "accountLabels": null,
        "dataMap": {
            "-1": {
                "invocation": {
                    "address": "0x1c44b5a22f046f33ab1a59595cfec3337ac4d9b0",
                    "callData": "",
                    "decodedMethod": null,
                    "errorInfo": "",
                    "fromAddress": "",
                    "gasUsed": 0,
                    "id": -1,
                    "methodDecoded": false,
                    "operation": "",
                    "output": "",
                    "revert": false,
                    "revertMessage": "",
                    "selector": "",
                    "status": false,
                    "value": ""
                },
                "nodeType": 0
            },
            "0": {
                "invocation": {
                    "address": "0x647f24fc14b75335adf97eb9792ce004471bf35a",
                    "callData": "0x0000000000000000000000007e395610d8975e024f95dcb1e0a61a681321fcf60000000000000000000000000000000000000000000000004563918244f40000",
                    "decodedMethod": {
                        "callParams": [
                            {
                                "name": "_to",
                                "type": "address",
                                "value": "0x7e395610d8975e024f95dcb1e0a61a681321fcf6"
                            },
                            {
                                "decimalAvailable": true,
                                "name": "_value",
                                "type": "uint256",
                                "value": "5,000,000,000,000,000,000"
                            }
                        ],
                        "constructorArguments": "",
                        "name": "transfer",
                        "returnParams": [
                            {
                                "name": "",
                                "type": "bool",
                                "value": true
                            }
                        ],
                        "signature": "transfer(address,uint256)"
                    },
                    "errorInfo": "",
                    "fromAddress": "0x1c44b5a22f046f33ab1a59595cfec3337ac4d9b0",
                    "gasUsed": 51756,
                    "id": 0,
                    "methodDecoded": true,
                    "operation": "CALL",
                    "output": "0x0000000000000000000000000000000000000000000000000000000000000001",
                    "revert": false,
                    "revertMessage": "",
                    "selector": "0xa9059cbb",
                    "status": true,
                    "value": "0"
                },
                "nodeType": 0
            },
            "1": {
                "event": {
                    "contract": "0x647f24fc14b75335adf97eb9792ce004471bf35a",
                    "decodedLog": {
                        "name": "Transfer",
                        "params": [
                            {
                                "name": "from",
                                "type": "address",
                                "value": "0x1c44b5a22f046f33ab1a59595cfec3337ac4d9b0"
                            },
                            {
                                "name": "to",
                                "type": "address",
                                "value": "0x7e395610d8975e024f95dcb1e0a61a681321fcf6"
                            },
                            {
                                "decimalAvailable": true,
                                "name": "value",
                                "type": "uint256",
                                "value": "5,000,000,000,000,000,000"
                            }
                        ],
                        "signature": "Transfer(address,address,uint256)"
                    },
                    "id": 1,
                    "logData": "0x0000000000000000000000000000000000000000000000004563918244f40000",
                    "logDecoded": true,
                    "operation": "EVENT",
                    "revert": false,
                    "status": true,
                    "topics": [
                        "0xddf252ad1be2c89b69c2b068fc378daa952ba7f163c4a11628f55a4df523b3ef",
                        "0x0000000000000000000000001c44b5a22f046f33ab1a59595cfec3337ac4d9b0",
                        "0x0000000000000000000000007e395610d8975e024f95dcb1e0a61a681321fcf6"
                    ]
                },
                "nodeType": 1
            }
        },
        "gasFlame": [
            {
                "children": [
                    {
                        "children": [
                            {
                                "children": [],
                                "depth": 0,
                                "name": "Initial Gas",
                                "value": 23192
                            },
                            {
                                "children": [],
                                "depth": 0,
                                "name": "Executed Gas",
                                "value": 28564
                            }
                        ],
                        "depth": -1,
                        "name": "Actual Gas Used",
                        "value": 51756
                    },
                    {
                        "children": [],
                        "depth": -1,
                        "name": "Refunded Gas",
                        "value": 0
                    }
                ],
                "depth": -2,
                "name": "Total Gas",
                "value": 51756
            }
        ],
        "isConfirmed": true,
        "mainTrace": [
            {
                "children": [
                    {
                        "children": [
                            {
                                "children": [],
                                "depth": 1,
                                "id": 1,
                                "order": 1
                            }
                        ],
                        "depth": 0,
                        "id": 0,
                        "order": 0
                    }
                ],
                "depth": -1,
                "id": -1,
                "order": -1
            }
        ],
        "mainTraceNodeCount": 2,
        "parentIdMap": {
            "0": -1,
            "1": 0
        },
        "tidyTrace": [
            {
                "children": [
                    {
                        "children": [
                            {
                                "children": [],
                                "depth": 1,
                                "id": 1,
                                "order": 1
                            }
                        ],
                        "depth": 0,
                        "id": 0,
                        "order": 0
                    }
                ],
                "depth": -1,
                "id": -1,
                "order": -1
            }
        ],
        "tidyTraceNodeCount": 2
    },
    "state_change": {
        "stateChanges": [
            {
                "address": "0x647f24fc14b75335adf97eb9792ce004471bf35a",
                "erc": "ERC-20",
                "slots": [
                    {
                        "current": "0x0000000000000000000000000000000000000000000000004563918244f40000",
                        "key": "0x20fd4a8e59d915884105ec2ca96c7ff836ee8daf9de010175861cc7146fe9bd2",
                        "prev": "0x0000000000000000000000000000000000000000000000000000000000000000"
                    },
                    {
                        "current": "0x0000000000000000000000000000000000000000000000002bb79a3601cbdb80",
                        "key": "0xc07a13f2585d0b4abc0ae871ddde6f0e6fcc9b0f6c6349ce8acc82d06f1e0438",
                        "prev": "0x000000000000000000000000000000000000000000000000711b2bb846bfdb80"
                    }
                ],
                "storageVariables": [
                    {
                        "name": "balances",
                        "type": "mapping(address => uint256)",
                        "value": {
                            "pairs": [
                                {
                                    "key": "0x1c44b5a22f046f33ab1a59595cfec3337ac4d9b0",
                                    "value": {
                                        "current": "3150156021118000000",
                                        "prev": "8150156021118000000",
                                        "typeTag": 1
                                    }
                                },
                                {
                                    "key": "0x7e395610d8975e024f95dcb1e0a61a681321fcf6",
                                    "value": {
                                        "current": "5000000000000000000",
                                        "prev": "0",
                                        "typeTag": 1
                                    }
                                }
                            ],
                            "typeTag": 4
                        }
                    }
                ]
            }
        ]
    }
}