{
    "balance_change": {
        "balanceChanges": []
    },
    "profile": {
        "basic_info": {
            "baseFee": "",
            "blockNumber": 4611164,
            "callData": "0x278b8c0e000000000000000000000000000000000000000000000000000000000000000000000000000000000000000000000000000000000000000046c6d6faa27e000000000000000000000000000024692791bc444c5cd0b81e3cbcaba4b04acd1f3b0000000000000000000000000000000000000000000001ccc9324511e4500000000000000000000000000000000000000000000000000000000000000046834f0000000000000000000000000000000000000000000000000000000019694762000000000000000000000000000000000000000000000000000000000000001ce3a1701db899be8579a25cc30f1d908c403b7f55845988e8858f96493923039974fc6d775eef024217bf02c05d02dde366f2b46a2fc37581c88999bc7944e4db",
            "debugEnable": true,
            "errorInfo": "",
            "eventCount": 1,
            "feeRecipient": "0xb2930b35844a230f00e51431acae96fe543a0347",
            "formatValue": "0",
            "gasLimit": 250000,
            "gasPrice": "4",
            "gasUsed": 59354,
            "intTxnCount": 2,
            "internalRevert": false,
            "internalRevertMessage": "",
            "isContractCreation": false,
            "isFlashloan": false,
            "maxFee": "",
            "nonce": 95,
            "overwritedBlockNumber": -1,
            "priorityFee": "",
            "receiver": "0x8d12a197cb00d4747a1fe03395095ce2a5cc6819",
            "revertMessage": "",
            "sender": "0x84b15462b89010866c87bd8412c104e033a7f6de",
            "simulationEnable": true,
            "sourceTxnHash": "0x6853ec5ce102a376dcd2eb407b1f9b28ea2e75b36fce9986118e88f1dfd6663d",
            "status": true,
            "timestamp": "2017-11-24T04:44:01Z",
            "transactionFee": "0.000237416",
            "txnHash": "0x6853ec5ce102a376dcd2eb407b1f9b28ea2e75b36fce9986118e88f1dfd6663d",
            "txnIndex": 49,
            "type": 0,
            "value": "0"
        },
        "fund_flow": [],
        "token_infos": [
            {
                "address": "0xc02aaa39b223fe8d0a0e5c4f27ead9083c756cc2",
                "decimals": 18
            },
            {
                "address": "0xeeeeeeeeeeeeeeeeeeeeeeeeeeeeeeeeeeeeeeee",
                "decimals": 18
            }
        ]
    },
    "address_label": {
        "labels": [
            {
                "address": "0x8d12a197cb00d4747a1fe03395095ce2a5cc6819",
                "label": "EtherDelta"
            },
            {
                "address": "0x24692791bc444c5cd0b81e3cbcaba4b04acd1f3b",
                "label": "UnikoinGold Token"
            },
            {
                "address": "0x0000000000000000000000000000000000000002",
                "label": "Precompiled"
            },
            {
                "address": "0x0000000000000000000000000000000000000000",
                "label": "Null Address"
            },
            {
                "address": "0x0000000000000000000000000000000000000001",
                "label": "Precompiled"
            },
            {
                "address": "0x0000000000000000000000000000000000000003",
                "label": "Precompiled"
            },
            {
                "address": "0x0000000000000000000000000000000000000004",
                "label": "Precompiled"
            },
            {
                "address": "0xeeeeeeeeeeeeeeeeeeeeeeeeeeeeeeeeeeeeeeee",
                "label": "Ether"
            }
        ]
    },
    "trace": {
        "accountLabels": null,
        "dataMap": {
            "-1": {
                "invocation": {
                    "address": "0x84b15462b89010866c87bd8412c104e033a7f6de",
                    "callData": "",
                    "decodedMethod": null,
                    "errorInfo": "",
                    "fromAddress": "",
                    "gasUsed": 0,
                    "id": -1,
                    "methodDecoded": false,
                    "operation": "",
                    "output": "",
                    "revert": false,
                    "revertMessage": "",
                    "selector": "",
                    "status": false,
                    "value": ""
                },
                "nodeType": 0
            },
            "0": {
                "invocation": {
                    "address": "0x8d12a197cb00d4747a1fe03395095ce2a5cc6819",
                    "callData": "0x000000000000000000000000000000000000000000000000000000000000000000000000000000000000000000000000000000000000000046c6d6faa27e000000000000000000000000000024692791bc444c5cd0b81e3cbcaba4b04acd1f3b0000000000000000000000000000000000000000000001ccc9324511e4500000000000000000000000000000000000000000000000000000000000000046834f0000000000000000000000000000000000000000000000000000000019694762000000000000000000000000000000000000000000000000000000000000001ce3a1701db899be8579a25cc30f1d908c403b7f55845988e8858f96493923039974fc6d775eef024217bf02c05d02dde366f2b46a2fc37581c88999bc7944e4db",
                    "decodedMethod": {
                        "callParams": [
                            {
                                "name": "tokenGet",
                                "type": "address",
                                "value": "0x0000000000000000000000000000000000000000"
                            },
                            {
                                "name": "amountGet",
                                "type": "uint256",
                                "value": "5,100,000,000,000,000,000"
                            },
                            {
                                "name": "tokenGive",
                                "type": "address",
                                "value": "0x24692791bc444c5cd0b81e3cbcaba4b04acd1f3b"
                            },
                            {
                                "name": "amountGive",
                                "type": "uint256",
                                "value": "8,500,000,000,000,000,000,000"
                            },
                            {
                                "name": "expires",
                                "type": "uint256",
                                "value": "4,621,135"
                            },
                            {
                                "name": "nonce",
                                "type": "uint256",
                                "value": "426,329,954"
                            },
                            {
                                "name": "v",
                                "type": "uint8",
                                "value": "28"
                            },
                            {
                                "name": "r",
                                "type": "bytes32",
                                "value": "0xe3a1701db899be8579a25cc30f1d908c403b7f55845988e8858f964939230399"
                            },
                            {
                                "name": "s",
                                "type": "bytes32",
                                "value": "0x74fc6d775eef024217bf02c05d02dde366f2b46a2fc37581c88999bc7944e4db"
                            }
                        ],
                        "constructorArguments": "",
                        "name": "cancelOrder",
                        "returnParams": [],
                        "signature": "cancelOrder(address,uint256,address,uint256,uint256,uint256,uint8,bytes32,bytes32)"
                    },
                    "errorInfo": "",
                    "fromAddress": "0x84b15462b89010866c87bd8412c104e033a7f6de",
                    "gasUsed": 59354,
                    "id": 0,
                    "methodDecoded": true,
                    "operation": "CALL",
                    "output": "",
                    "revert": false,
                    "revertMessage": "",
                    "selector": "0x278b8c0e",
                    "status": true,
                    "value": "0"
                },
                "nodeType": 0
            },
            "1": {
                "invocation": {
                    "address": "0x0000000000000000000000000000000000000002",
                    "callData": "0xcb00d4747a1fe03395095ce2a5cc6819000000000000000000000000000000000000000000000000000000000000000000000000000000000000000046c6d6faa27e000024692791bc444c5cd0b81e3cbcaba4b04acd1f3b0000000000000000000000000000000000000000000001ccc9324511e4500000000000000000000000000000000000000000000000000000000000000046834f0000000000000000000000000000000000000000000000000000000019694762",
                    "decodedMethod": {
                        "callParams": [
                            {
                                "name": "data",
                                "type": "bytes",
                                "value": "0x8d12a197cb00d4747a1fe03395095ce2a5cc6819000000000000000000000000000000000000000000000000000000000000000000000000000000000000000046c6d6faa27e000024692791bc444c5cd0b81e3cbcaba4b04acd1f3b0000000000000000000000000000000000000000000001ccc9324511e4500000000000000000000000000000000000000000000000000000000000000046834f0000000000000000000000000000000000000000000000000000000019694762"
                            }
                        ],
                        "constructorArguments": "",
                        "name": "sha256hash",
                        "returnParams": [
                            {
                                "name": "hash",
                                "type": "bytes32",
                                "value": "0xb0b226a55e24d7e5059037ed344898c4488cb54cf3fc9bd4869885492f5226ba"
                            }
                        ],
                        "signature": "sha256hash(bytes)"
                    },
                    "errorInfo": "",
                    "fromAddress": "0x8d12a197cb00d4747a1fe03395095ce2a5cc6819",
                    "gasUsed": 132,
                    "id": 1,
                    "methodDecoded": true,
                    "operation": "CALL",
                    "output": "0xb0b226a55e24d7e5059037ed344898c4488cb54cf3fc9bd4869885492f5226ba",
                    "revert": false,
                    "revertMessage": "",
                    "selector": "0x8d12a197",
                    "status": true,
                    "value": "0"
                },
                "nodeType": 0
            },
            "2": {
                "invocation": {
                    "address": "0x0000000000000000000000000000000000000001",
                    "callData": "0xfb9c634fdfc5c2509bd5d81576633d07f1722e678bba3511aee34cc2000000000000000000000000000000000000000000000000000000000000001ce3a1701db899be8579a25cc30f1d908c403b7f55845988e8858f96493923039974fc6d775eef024217bf02c05d02dde366f2b46a2fc37581c88999bc7944e4db",
                    "decodedMethod": {
                        "callParams": [
                            {
                                "name": "hash",
                                "type": "bytes32",
                                "value": "0x3d9364ddfb9c634fdfc5c2509bd5d81576633d07f1722e678bba3511aee34cc2"
                            },
                            {
                                "name": "v",
                                "type": "uint256",
                                "value": "28"
                            },
                            {
                                "name": "r",
                                "type": "bytes32",
                                "value": "0xe3a1701db899be8579a25cc30f1d908c403b7f55845988e8858f964939230399"
                            },
                            {
                                "name": "s",
                                "type": "bytes32",
                                "value": "0x74fc6d775eef024217bf02c05d02dde366f2b46a2fc37581c88999bc7944e4db"
                            }
                        ],
                        "constructorArguments": "",
                        "name": "ecrecover",
                        "returnParams": [
                            {
                                "name": "",
                                "type": "address",
                                "value": "0x84b15462b89010866c87bd8412c104e033a7f6de"
                            }
                        ],
                        "signature": "ecrecover(bytes32,uint256,bytes32,bytes32)"
                    },
                    "errorInfo": "",
                    "fromAddress": "0x8d12a197cb00d4747a1fe03395095ce2a5cc6819",
                    "gasUsed": 3000,
                    "id": 2,
                    "methodDecoded": true,
                    "operation": "CALL",
                    "output": "0x00000000000000000000000084b15462b89010866c87bd8412c104e033a7f6de",
                    "revert": false,
                    "revertMessage": "",
                    "selector": "0x3d9364dd",
                    "status": true,
                    "value": "0"
                },
                "nodeType": 0
            },
            "3": {
                "event": {
                    "contract": "0x8d12a197cb00d4747a1fe03395095ce2a5cc6819",
                    "decodedLog": {
                        "name": "Cancel",
                        "params": [
                            {
                                "name": "tokenGet",
                                "type": "address",
                                "value": "0x0000000000000000000000000000000000000000"
                            },
                            {
                                "name": "amountGet",
                                "type": "uint256",
                                "value": "5,100,000,000,000,000,000"
                            },
                            {
                                "name": "tokenGive",
                                "type": "address",
                                "value": "0x24692791bc444c5cd0b81e3cbcaba4b04acd1f3b"
                            },
                            {
                                "name": "amountGive",
                                "type": "uint256",
                                "value": "8,500,000,000,000,000,000,000"
                            },
                            {
                                "name": "expires",
                                "type": "uint256",
                                "value": "4,621,135"
                            },
                            {
                                "name": "nonce",
                                "type": "uint256",
                                "value": "426,329,954"
                            },
                            {
                                "name": "user",
                                "type": "address",
                                "value": "0x84b15462b89010866c87bd8412c104e033a7f6de"
                            },
                            {
                                "name": "v",
                                "type": "uint8",
                                "value": "28"
                            },
                            {
                                "name": "r",
                                "type": "bytes32",
                                "value": "0xe3a1701db899be8579a25cc30f1d908c403b7f55845988e8858f964939230399"
                            },
                            {
                                "name": "s",
                                "type": "bytes32",
                                "value": "0x74fc6d775eef024217bf02c05d02dde366f2b46a2fc37581c88999bc7944e4db"
                            }
                        ],
                        "signature": "Cancel(address,uint256,address,uint256,uint256,uint256,address,uint8,bytes32,bytes32)"
                    },
                    "id": 3,
                    "logData": "0x000000000000000000000000000000000000000000000000000000000000000000000000000000000000000000000000000000000000000046c6d6faa27e000000000000000000000000000024692791bc444c5cd0b81e3cbcaba4b04acd1f3b0000000000000000000000000000000000000000000001ccc9324511e4500000000000000000000000000000000000000000000000000000000000000046834f000000000000000000000000000000000000000000000000000000001969476200000000000000000000000084b15462b89010866c87bd8412c104e033a7f6de000000000000000000000000000000000000000000000000000000000000001ce3a1701db899be8579a25cc30f1d908c403b7f55845988e8858f96493923039974fc6d775eef024217bf02c05d02dde366f2b46a2fc37581c88999bc7944e4db",
                    "logDecoded": true,
                    "operation": "EVENT",
                    "revert": false,
                    "status": true,
                    "topics": [
                        "0x1e0b760c386003e9cb9bcf4fcf3997886042859d9b6ed6320e804597fcdb28b0"
                    ]
                },
                "nodeType": 1
            }
        },
        "gasFlame": [
            {
                "children": [
                    {
                        "children": [
                            {
                                "children": [],
                                "depth": 0,
                                "name": "Initial Gas",
                                "value": 29208
                            },
                            {
                                "children": [
                                    {
                                        "children": [],
                                        "depth": 1,
                                        "name": "sha256hash",
                                        "value": 132
                                    },
                                    {
                                        "children": [],
                                        "depth": 1,
                                        "name": "ecrecover",
                                        "value": 3000
                                    }
                                ],
                                "depth": 0,
                                "name": "Executed Gas",
                                "value": 30146
                            }
                        ],
                        "depth": -1,
                        "name": "Actual Gas Used",
                        "value": 59354
                    },
                    {
                        "children": [],
                        "depth": -1,
                        "name": "Refunded Gas",
                        "value": 0
                    }
                ],
                "depth": -2,
                "name": "Total Gas",
                "value": 59354
            }
        ],
        "isConfirmed": true,
        "mainTrace": [
            {
                "children": [
                    {
                        "children": [
                            {
                                "children": [],
                                "depth": 1,
                                "id": 1,
                                "order": 1
                            },
                            {
                                "children": [],
                                "depth": 1,
                                "id": 2,
                                "order": 2
                            },
                            {
                                "children": [],
                                "depth": 1,
                                "id": 3,
                                "order": 3
                            }
                        ],
                        "depth": 0,
                        "id": 0,
                        "order": 0
                    }
                ],
                "depth": -1,
                "id": -1,
                "order": -1
            }
        ],
        "mainTraceNodeCount": 4,
        "parentIdMap": {
            "0": -1,
            "1": 0,
            "2": 0,
            "3": 0
        },
        "tidyTrace": [
            {
                "children": [
                    {
                        "children": [
                            {
                                "children": [],
                                "depth": 1,
                                "id": 1,
                                "order": 1
                            },
                            {
                                "children": [],
                                "depth": 1,
                                "id": 2,
                                "order": 2
                            },
                            {
                                "children": [],
                                "depth": 1,
                                "id": 3,
                                "order": 3
                            }
                        ],
                        "depth": 0,
                        "id": 0,
                        "order": 0
                    }
                ],
                "depth": -1,
                "id": -1,
                "order": -1
            }
        ],
        "tidyTraceNodeCount": 4
    },
    "state_change": {
        "stateChanges": [
            {
                "address": "0x8d12a197cb00d4747a1fe03395095ce2a5cc6819",
                "erc": "",
                "slots": [
                    {
                        "current": "0x00000000000000000000000000000000000000000000000046c6d6faa27e0000",
                        "key": "0x7565c03294772c0d50c482afac481415d84ec63467b90b9e36c462e7d928bf0d",
                        "prev": "0x0000000000000000000000000000000000000000000000000000000000000000"
                    }
                ],
                "storageVariables": []
            }
        ]
    }
}