{
    "balance_change": {
        "balanceChanges": [
            {
                "account": "0x4e90e3c50ebb43dae8f7a39957a2d947e448337b",
                "assets": [
                    {
                        "address": "0x93065b5c7eb63333b8e57a73012d25f687895785",
                        "amount": "375",
                        "iconUrl": "",
                        "isERC1155": false,
                        "isERC721": false,
                        "sign": false,
                        "value": ""
                    }
                ]
            },
            {
                "account": "0x9a2cd9ceab61f0287b88f1a87d6b1477f12598ac",
                "assets": [
                    {
                        "address": "0x93065b5c7eb63333b8e57a73012d25f687895785",
                        "amount": "375",
                        "iconUrl": "",
                        "isERC1155": false,
                        "isERC721": false,
                        "sign": true,
                        "value": ""
                    }
                ]
            }
        ]
    },
    "profile": {
        "basic_info": {
            "baseFee": "",
            "blockNumber": 8596419,
            "callData": "0xa9059cbb0000000000000000000000009a2cd9ceab61f0287b88f1a87d6b1477f12598ac000000000000000000000000000000000000000000000014542ba12a337c0000",
            "debugEnable": true,
            "errorInfo": "",
            "eventCount": 1,
            "feeRecipient": "0x52bc44d5378309ee2abf1539bf71de1b7d7be3b5",
            "formatValue": "0",
            "gasLimit": 100000,
            "gasPrice": "5",
            "gasUsed": 21616,
            "intTxnCount": 0,
            "internalRevert": false,
            "internalRevertMessage": "",
            "isContractCreation": false,
            "isFlashloan": false,
            "maxFee": "",
            "nonce": 0,
            "overwritedBlockNumber": -1,
            "priorityFee": "",
            "receiver": "0x93065b5c7eb63333b8e57a73012d25f687895785",
            "revertMessage": "",
            "sender": "0x4e90e3c50ebb43dae8f7a39957a2d947e448337b",
            "simulationEnable": true,
            "sourceTxnHash": "0x6892ad35530004f675feae7d4cf7bb7a450701302bcfb91bdbdd8f761586678e",
            "status": true,
            "timestamp": "2019-09-22T02:47:37Z",
            "transactionFee": "0.00010808",
            "txnHash": "0x6892ad35530004f675feae7d4cf7bb7a450701302bcfb91bdbdd8f761586678e",
            "txnIndex": 55,
            "type": 0,
            "value": "0"
        },
        "fund_flow": [
            {
                "amount": "375",
                "from": "0x4e90e3c50ebb43dae8f7a39957a2d947e448337b",
                "id": 1,
                "isERC1155": false,
                "isERC721": false,
                "isReverted": false,
                "order": 1,
                "to": "0x9a2cd9ceab61f0287b88f1a87d6b1477f12598ac",
                "token": "0x93065b5c7eb63333b8e57a73012d25f687895785"
            }
        ],
        "token_infos": [
            {
                "address": "0x93065b5c7eb63333b8e57a73012d25f687895785",
                "decimals": 18
            },
            {
                "address": "0xc02aaa39b223fe8d0a0e5c4f27ead9083c756cc2",
                "decimals": 18
            },
            {
                "address": "0xeeeeeeeeeeeeeeeeeeeeeeeeeeeeeeeeeeeeeeee",
                "decimals": 18
            }
        ]
    },
    "address_label": {
        "labels": [
            {
                "address": "0x0000000000000000000000000000000000000004",
                "label": "Precompiled"
            },
            {
                "address": "0xeeeeeeeeeeeeeeeeeeeeeeeeeeeeeeeeeeeeeeee",
                "label": "Ether"
            },
            {
                "address": "0x93065b5c7eb63333b8e57a73012d25f687895785",
                "label": "ColletrixToken (CIPX)"
            },
            {
                "address": "0x0000000000000000000000000000000000000001",
                "label": "Precompiled"
            },
            {
                "address": "0x0000000000000000000000000000000000000002",
                "label": "Precompiled"
            },
            {
                "address": "0x0000000000000000000000000000000000000003",
                "label": "Precompiled"
            }
        ]
    },
    "trace": {
        "accountLabels": null,
        "dataMap": {
            "-1": {
                "invocation": {
                    "address": "0x4e90e3c50ebb43dae8f7a39957a2d947e448337b",
                    "callData": "",
                    "decodedMethod": null,
                    "errorInfo": "",
                    "fromAddress": "",
                    "gasUsed": 0,
                    "id": -1,
                    "methodDecoded": false,
                    "operation": "",
                    "output": "",
                    "revert": false,
                    "revertMessage": "",
                    "selector": "",
                    "status": false,
                    "value": ""
                },
                "nodeType": 0
            },
            "0": {
                "invocation": {
                    "address": "0x93065b5c7eb63333b8e57a73012d25f687895785",
                    "callData": "0x0000000000000000000000009a2cd9ceab61f0287b88f1a87d6b1477f12598ac000000000000000000000000000000000000000000000014542ba12a337c0000",
                    "decodedMethod": {
                        "callParams": [
                            {
                                "name": "recipient",
                                "type": "address",
                                "value": "0x9a2cd9ceab61f0287b88f1a87d6b1477f12598ac"
                            },
                            {
                                "decimalAvailable": true,
                                "name": "amount",
                                "type": "uint256",
                                "value": "375,000,000,000,000,000,000"
                            }
                        ],
                        "constructorArguments": "",
                        "name": "transfer",
                        "returnParams": [
                            {
                                "name": "",
                                "type": "bool",
                                "value": true
                            }
                        ],
                        "signature": "transfer(address,uint256)"
                    },
                    "errorInfo": "",
                    "fromAddress": "0x4e90e3c50ebb43dae8f7a39957a2d947e448337b",
                    "gasUsed": 21616,
                    "id": 0,
                    "methodDecoded": true,
                    "operation": "CALL",
                    "output": "0x0000000000000000000000000000000000000000000000000000000000000001",
                    "revert": false,
                    "revertMessage": "",
                    "selector": "0xa9059cbb",
                    "status": true,
                    "value": "0"
                },
                "nodeType": 0
            },
            "1": {
                "event": {
                    "contract": "0x93065b5c7eb63333b8e57a73012d25f687895785",
                    "decodedLog": {
                        "name": "Transfer",
                        "params": [
                            {
                                "name": "from",
                                "type": "address",
                                "value": "0x4e90e3c50ebb43dae8f7a39957a2d947e448337b"
                            },
                            {
                                "name": "to",
                                "type": "address",
                                "value": "0x9a2cd9ceab61f0287b88f1a87d6b1477f12598ac"
                            },
                            {
                                "decimalAvailable": true,
                                "name": "value",
                                "type": "uint256",
                                "value": "375,000,000,000,000,000,000"
                            }
                        ],
                        "signature": "Transfer(address,address,uint256)"
                    },
                    "id": 1,
                    "logData": "0x000000000000000000000000000000000000000000000014542ba12a337c0000",
                    "logDecoded": true,
                    "operation": "EVENT",
                    "revert": false,
                    "status": true,
                    "topics": [
                        "0xddf252ad1be2c89b69c2b068fc378daa952ba7f163c4a11628f55a4df523b3ef",
                        "0x0000000000000000000000004e90e3c50ebb43dae8f7a39957a2d947e448337b",
                        "0x0000000000000000000000009a2cd9ceab61f0287b88f1a87d6b1477f12598ac"
                    ]
                },
                "nodeType": 1
            }
        },
        "gasFlame": [
            {
                "children": [
                    {
                        "children": [
                            {
                                "children": [],
                                "depth": 0,
                                "name": "Initial Gas",
                                "value": 23256
                            },
                            {
                                "children": [],
                                "depth": 0,
                                "name": "Executed Gas",
                                "value": 13360
                            }
                        ],
                        "depth": -1,
                        "name": "Actual Gas Used",
                        "value": 21616
                    },
                    {
                        "children": [],
                        "depth": -1,
                        "name": "Refunded Gas",
                        "value": 15000
                    }
                ],
                "depth": -2,
                "name": "Total Gas",
                "value": 36616
            }
        ],
        "isConfirmed": true,
        "mainTrace": [
            {
                "children": [
                    {
                        "children": [
                            {
                                "children": [],
                                "depth": 1,
                                "id": 1,
                                "order": 1
                            }
                        ],
                        "depth": 0,
                        "id": 0,
                        "order": 0
                    }
                ],
                "depth": -1,
                "id": -1,
                "order": -1
            }
        ],
        "mainTraceNodeCount": 2,
        "parentIdMap": {
            "0": -1,
            "1": 0
        },
        "tidyTrace": [
            {
                "children": [
                    {
                        "children": [
                            {
                                "children": [],
                                "depth": 1,
                                "id": 1,
                                "order": 1
                            }
                        ],
                        "depth": 0,
                        "id": 0,
                        "order": 0
                    }
                ],
                "depth": -1,
                "id": -1,
                "order": -1
            }
        ],
        "tidyTraceNodeCount": 2
    },
    "state_change": {
        "stateChanges": [
            {
                "address": "0x93065b5c7eb63333b8e57a73012d25f687895785",
                "erc": "ERC-20",
                "slots": [
                    {
                        "current": "0x0000000000000000000000000000000000000000000000000000000000000000",
                        "key": "0x5eccbad38a9020dd1d072018d1adbe1ea53ff44fb505ea0be73f0a6e0e1fbc94",
                        "prev": "0x000000000000000000000000000000000000000000000014542ba12a337c0000"
                    },
                    {
                        "current": "0x0000000000000000000000000000000000000000000020880726e7ddb8c40000",
                        "key": "0x1a33d206234c967e191b8e74092d849b01271bd8aa54ebe42608eb6512d351fa",
                        "prev": "0x000000000000000000000000000000000000000000002073b2fb46b385480000"
                    }
                ],
                "storageVariables": [
                    {
                        "name": "_balances",
                        "type": "mapping(address => uint256)",
                        "value": {
                            "pairs": [
                                {
                                    "key": "0x4e90e3c50ebb43dae8f7a39957a2d947e448337b",
                                    "value": {
                                        "current": "0",
                                        "prev": "375000000000000000000",
                                        "typeTag": 1
                                    }
                                },
                                {
                                    "key": "0x9a2cd9ceab61f0287b88f1a87d6b1477f12598ac",
                                    "value": {
                                        "current": "153625000000000000000000",
                                        "prev": "153250000000000000000000",
                                        "typeTag": 1
                                    }
                                }
                            ],
                            "typeTag": 4
                        }
                    }
                ]
            }
        ]
    }
}