{
    "balance_change": {
        "balanceChanges": [
            {
                "account": "0x380e1e52eb35d4d12d9832afe406dfb010158cfd",
                "assets": [
                    {
                        "address": "0xea4ddaafbc142fd18180af0430c8a59dda009664",
                        "amount": "35,000,000,000,000,000,000",
                        "iconUrl": "",
                        "isERC1155": false,
                        "isERC721": false,
                        "sign": false,
                        "value": ""
                    }
                ]
            },
            {
                "account": "0x1c30c3ee93576520eedb568f9312525b2138f0cf",
                "assets": [
                    {
                        "address": "0xea4ddaafbc142fd18180af0430c8a59dda009664",
                        "amount": "35,000,000,000,000,000,000",
                        "iconUrl": "",
                        "isERC1155": false,
                        "isERC721": false,
                        "sign": true,
                        "value": ""
                    }
                ]
            }
        ]
    },
    "profile": {
        "basic_info": {
            "baseFee": "",
            "blockNumber": 6839486,
            "callData": "0xa9059cbb0000000000000000000000001c30c3ee93576520eedb568f9312525b2138f0cf000000000000000000000000000000000000000000000001e5b8fa8fe2ac0000",
            "debugEnable": true,
            "errorInfo": "",
            "eventCount": 1,
            "feeRecipient": "0xea674fdde714fd979de3edf0f56aa9716b898ec8",
            "formatValue": "0",
            "gasLimit": 60000,
            "gasPrice": "6",
            "gasUsed": 53422,
            "intTxnCount": 0,
            "internalRevert": false,
            "internalRevertMessage": "",
            "isContractCreation": false,
            "isFlashloan": false,
            "maxFee": "",
            "nonce": 7986,
            "overwritedBlockNumber": -1,
            "priorityFee": "",
            "receiver": "0xea4ddaafbc142fd18180af0430c8a59dda009664",
            "revertMessage": "",
            "sender": "0x380e1e52eb35d4d12d9832afe406dfb010158cfd",
            "simulationEnable": true,
            "sourceTxnHash": "0x68fe0c7c3029e3a9396101b39d1a5b37443e3b3209be82a888bd533285d2495e",
            "status": true,
            "timestamp": "2018-12-06T23:55:06Z",
            "transactionFee": "0.000320532",
            "txnHash": "0x68fe0c7c3029e3a9396101b39d1a5b37443e3b3209be82a888bd533285d2495e",
            "txnIndex": 135,
            "type": 0,
            "value": "0"
        },
        "fund_flow": [
            {
                "amount": "35,000,000,000,000,000,000",
                "from": "0x380e1e52eb35d4d12d9832afe406dfb010158cfd",
                "id": 1,
                "isERC1155": false,
                "isERC721": false,
                "isReverted": false,
                "order": 1,
                "to": "0x1c30c3ee93576520eedb568f9312525b2138f0cf",
                "token": "0xea4ddaafbc142fd18180af0430c8a59dda009664"
            }
        ],
        "token_infos": [
            {
                "address": "0xc02aaa39b223fe8d0a0e5c4f27ead9083c756cc2",
                "decimals": 18
            },
            {
                "address": "0xeeeeeeeeeeeeeeeeeeeeeeeeeeeeeeeeeeeeeeee",
                "decimals": 18
            }
        ]
    },
    "address_label": {
        "labels": [
            {
                "address": "0x0000000000000000000000000000000000000004",
                "label": "Precompiled"
            },
            {
                "address": "0xeeeeeeeeeeeeeeeeeeeeeeeeeeeeeeeeeeeeeeee",
                "label": "Ether"
            },
            {
                "address": "0xea4ddaafbc142fd18180af0430c8a59dda009664",
                "label": "CustomToken"
            },
            {
                "address": "0x0000000000000000000000000000000000000001",
                "label": "Precompiled"
            },
            {
                "address": "0x0000000000000000000000000000000000000002",
                "label": "Precompiled"
            },
            {
                "address": "0x0000000000000000000000000000000000000003",
                "label": "Precompiled"
            }
        ]
    },
    "trace": {
        "accountLabels": null,
        "dataMap": {
            "-1": {
                "invocation": {
                    "address": "0x380e1e52eb35d4d12d9832afe406dfb010158cfd",
                    "callData": "",
                    "decodedMethod": null,
                    "errorInfo": "",
                    "fromAddress": "",
                    "gasUsed": 0,
                    "id": -1,
                    "methodDecoded": false,
                    "operation": "",
                    "output": "",
                    "revert": false,
                    "revertMessage": "",
                    "selector": "",
                    "status": false,
                    "value": ""
                },
                "nodeType": 0
            },
            "0": {
                "invocation": {
                    "address": "0xea4ddaafbc142fd18180af0430c8a59dda009664",
                    "callData": "0x0000000000000000000000001c30c3ee93576520eedb568f9312525b2138f0cf000000000000000000000000000000000000000000000001e5b8fa8fe2ac0000",
                    "decodedMethod": {
                        "callParams": [
                            {
                                "name": "_to",
                                "type": "address",
                                "value": "0x1c30c3ee93576520eedb568f9312525b2138f0cf"
                            },
                            {
                                "decimalAvailable": true,
                                "name": "_value",
                                "type": "uint256",
                                "value": "35,000,000,000,000,000,000"
                            }
                        ],
                        "constructorArguments": "",
                        "name": "transfer",
                        "returnParams": [
                            {
                                "name": "success",
                                "type": "bool",
                                "value": true
                            }
                        ],
                        "signature": "transfer(address,uint256)"
                    },
                    "errorInfo": "",
                    "fromAddress": "0x380e1e52eb35d4d12d9832afe406dfb010158cfd",
                    "gasUsed": 53422,
                    "id": 0,
                    "methodDecoded": true,
                    "operation": "CALL",
                    "output": "0x0000000000000000000000000000000000000000000000000000000000000001",
                    "revert": false,
                    "revertMessage": "",
                    "selector": "0xa9059cbb",
                    "status": true,
                    "value": "0"
                },
                "nodeType": 0
            },
            "1": {
                "event": {
                    "contract": "0xea4ddaafbc142fd18180af0430c8a59dda009664",
                    "decodedLog": {
                        "name": "Transfer",
                        "params": [
                            {
                                "name": "from",
                                "type": "address",
                                "value": "0x380e1e52eb35d4d12d9832afe406dfb010158cfd"
                            },
                            {
                                "name": "to",
                                "type": "address",
                                "value": "0x1c30c3ee93576520eedb568f9312525b2138f0cf"
                            },
                            {
                                "decimalAvailable": true,
                                "name": "value",
                                "type": "uint256",
                                "value": "35,000,000,000,000,000,000"
                            }
                        ],
                        "signature": "Transfer(address,address,uint256)"
                    },
                    "id": 1,
                    "logData": "0x000000000000000000000000000000000000000000000001e5b8fa8fe2ac0000",
                    "logDecoded": true,
                    "operation": "EVENT",
                    "revert": false,
                    "status": true,
                    "topics": [
                        "0xddf252ad1be2c89b69c2b068fc378daa952ba7f163c4a11628f55a4df523b3ef",
                        "0x000000000000000000000000380e1e52eb35d4d12d9832afe406dfb010158cfd",
                        "0x0000000000000000000000001c30c3ee93576520eedb568f9312525b2138f0cf"
                    ]
                },
                "nodeType": 1
            }
        },
        "gasFlame": [
            {
                "children": [
                    {
                        "children": [
                            {
                                "children": [],
                                "depth": 0,
                                "name": "Initial Gas",
                                "value": 23256
                            },
                            {
                                "children": [],
                                "depth": 0,
                                "name": "Executed Gas",
                                "value": 30166
                            }
                        ],
                        "depth": -1,
                        "name": "Actual Gas Used",
                        "value": 53422
                    },
                    {
                        "children": [],
                        "depth": -1,
                        "name": "Refunded Gas",
                        "value": 0
                    }
                ],
                "depth": -2,
                "name": "Total Gas",
                "value": 53422
            }
        ],
        "isConfirmed": true,
        "mainTrace": [
            {
                "children": [
                    {
                        "children": [
                            {
                                "children": [],
                                "depth": 1,
                                "id": 1,
                                "order": 1
                            }
                        ],
                        "depth": 0,
                        "id": 0,
                        "order": 0
                    }
                ],
                "depth": -1,
                "id": -1,
                "order": -1
            }
        ],
        "mainTraceNodeCount": 2,
        "parentIdMap": {
            "0": -1,
            "1": 0
        },
        "tidyTrace": [
            {
                "children": [
                    {
                        "children": [
                            {
                                "children": [],
                                "depth": 1,
                                "id": 1,
                                "order": 1
                            }
                        ],
                        "depth": 0,
                        "id": 0,
                        "order": 0
                    }
                ],
                "depth": -1,
                "id": -1,
                "order": -1
            }
        ],
        "tidyTraceNodeCount": 2
    },
    "state_change": {
        "stateChanges": [
            {
                "address": "0xea4ddaafbc142fd18180af0430c8a59dda009664",
                "erc": "ERC-20",
                "slots": [
                    {
                        "current": "0x0000000000000000000000000000000000000000000165c850b96d810c300000",
                        "key": "0x23e4184e80532a3485242aeb30b22d958924366950f933e71a39213e0452d944",
                        "prev": "0x0000000000000000000000000000000000000000000165ca36726810eedc0000"
                    },
                    {
                        "current": "0x000000000000000000000000000000000000000000000001e5b8fa8fe2ac0000",
                        "key": "0x79ef91d05b8fd3bbabe08a886c20735cdeea31b82e82fe648ed56600bc3d9423",
                        "prev": "0x0000000000000000000000000000000000000000000000000000000000000000"
                    }
                ],
                "storageVariables": [
                    {
                        "name": "balanceOf",
                        "type": "mapping(address => uint256)",
                        "value": {
                            "pairs": [
                                {
                                    "key": "0x1c30c3ee93576520eedb568f9312525b2138f0cf",
                                    "value": {
                                        "current": "35000000000000000000",
                                        "prev": "0",
                                        "typeTag": 1
                                    }
                                },
                                {
                                    "key": "0x380e1e52eb35d4d12d9832afe406dfb010158cfd",
                                    "value": {
                                        "current": "1689580000000000000000000",
                                        "prev": "1689615000000000000000000",
                                        "typeTag": 1
                                    }
                                }
                            ],
                            "typeTag": 4
                        }
                    }
                ]
            }
        ]
    }
}