{
    "balance_change": {
        "balanceChanges": []
    },
    "profile": {
        "basic_info": {
            "baseFee": "",
            "blockNumber": 6450082,
            "callData": "0xef343588000000000000000000000000000000000000000000000000021511a48a60ca140000000000000000000000000000000000000000000000249f8232a561d87911000000000000000000000000000000000000000000000000000000000002e6300000000000000000000000000000000000000000000000000000000000000558000000000000000000000000000000000000000000000000021511a48a60ca14000000000000000000000000000000000000000000000000000000000000063300000000000000000000000000000000000000000000000000038d7ea4c680000000000000000000000000000000000000000000000000000037685c8aaecd150000000000000000000000000000000000000000000000000000000000000000000000000000000000000000af1250fa68d7decd34fd75de8742bc03b29bd58e0000000000000000000000004edd694877fa6cdefeac25e3909889923f9249b800000000000000000000000046188f0bb4928e3d851ec8e70cfed58f17c7d2c8000000000000000000000000000000000000000000000000000000000000001b000000000000000000000000000000000000000000000000000000000000001c7a8956e0b2819ac7796163918ba107dfa95c285698280142063eab2c6bd5d7e63e2cd4fabdbb9d79e6896e1eae7c8b39ca72a23a87aea7e0e20c2e30a3ab65714b1ef4373ea28c3374db56d8515a736d01cfc478f5cc917b96ae703718805ccd752ee13755f5c8e5ef75c205b1f4a6bebb8e97d609c511417e89b84f1a793294",
            "debugEnable": true,
            "errorInfo": "",
            "eventCount": 0,
            "feeRecipient": "0xea674fdde714fd979de3edf0f56aa9716b898ec8",
            "formatValue": "0",
            "gasLimit": 210000,
            "gasPrice": "12",
            "gasUsed": 127900,
            "intTxnCount": 2,
            "internalRevert": false,
            "internalRevertMessage": "",
            "isContractCreation": false,
            "isFlashloan": false,
            "maxFee": "",
            "nonce": 1589336,
            "overwritedBlockNumber": -1,
            "priorityFee": "",
            "receiver": "0x2a0c0dbecc7e4d658f48e01e3fa353f44050c208",
            "revertMessage": "",
            "sender": "0xa7a7899d944fe658c4b0a1803bab2f490bd3849e",
            "simulationEnable": true,
            "sourceTxnHash": "0x68a9ae03e69faa083cfdec07830a4eb90779d18a47923e2b569a12dbb039f80d",
            "status": true,
            "timestamp": "2018-10-04T05:51:13Z",
            "transactionFee": "0.0015348",
            "txnHash": "0x68a9ae03e69faa083cfdec07830a4eb90779d18a47923e2b569a12dbb039f80d",
            "txnIndex": 34,
            "type": 0,
            "value": "0"
        },
        "fund_flow": [],
        "token_infos": [
            {
                "address": "0xc02aaa39b223fe8d0a0e5c4f27ead9083c756cc2",
                "decimals": 18
            },
            {
                "address": "0xeeeeeeeeeeeeeeeeeeeeeeeeeeeeeeeeeeeeeeee",
                "decimals": 18
            }
        ]
    },
    "address_label": {
        "labels": [
            {
                "address": "0xeeeeeeeeeeeeeeeeeeeeeeeeeeeeeeeeeeeeeeee",
                "label": "Ether"
            },
            {
                "address": "0xa7a7899d944fe658c4b0a1803bab2f490bd3849e",
                "label": "IDEX 2"
            },
            {
                "address": "0x0000000000000000000000000000000000000000",
                "label": "Null Address"
            },
            {
                "address": "0x0000000000000000000000000000000000000003",
                "label": "Precompiled"
            },
            {
                "address": "0x0000000000000000000000000000000000000004",
                "label": "Precompiled"
            },
            {
                "address": "0x2a0c0dbecc7e4d658f48e01e3fa353f44050c208",
                "label": "IDEX"
            },
            {
                "address": "0xaf1250fa68d7decd34fd75de8742bc03b29bd58e",
                "label": "Invictus Hyperion (IHF)"
            },
            {
                "address": "0x0000000000000000000000000000000000000001",
                "label": "Precompiled"
            },
            {
                "address": "0x0000000000000000000000000000000000000002",
                "label": "Precompiled"
            }
        ]
    },
    "trace": {
        "accountLabels": null,
        "dataMap": {
            "-1": {
                "invocation": {
                    "address": "0xa7a7899d944fe658c4b0a1803bab2f490bd3849e",
                    "callData": "",
                    "decodedMethod": null,
                    "errorInfo": "",
                    "fromAddress": "",
                    "gasUsed": 0,
                    "id": -1,
                    "methodDecoded": false,
                    "operation": "",
                    "output": "",
                    "revert": false,
                    "revertMessage": "",
                    "selector": "",
                    "status": false,
                    "value": ""
                },
                "nodeType": 0
            },
            "0": {
                "invocation": {
                    "address": "0x2a0c0dbecc7e4d658f48e01e3fa353f44050c208",
                    "callData": "0x000000000000000000000000000000000000000000000000021511a48a60ca140000000000000000000000000000000000000000000000249f8232a561d87911000000000000000000000000000000000000000000000000000000000002e6300000000000000000000000000000000000000000000000000000000000000558000000000000000000000000000000000000000000000000021511a48a60ca14000000000000000000000000000000000000000000000000000000000000063300000000000000000000000000000000000000000000000000038d7ea4c680000000000000000000000000000000000000000000000000000037685c8aaecd150000000000000000000000000000000000000000000000000000000000000000000000000000000000000000af1250fa68d7decd34fd75de8742bc03b29bd58e0000000000000000000000004edd694877fa6cdefeac25e3909889923f9249b800000000000000000000000046188f0bb4928e3d851ec8e70cfed58f17c7d2c8000000000000000000000000000000000000000000000000000000000000001b000000000000000000000000000000000000000000000000000000000000001c7a8956e0b2819ac7796163918ba107dfa95c285698280142063eab2c6bd5d7e63e2cd4fabdbb9d79e6896e1eae7c8b39ca72a23a87aea7e0e20c2e30a3ab65714b1ef4373ea28c3374db56d8515a736d01cfc478f5cc917b96ae703718805ccd752ee13755f5c8e5ef75c205b1f4a6bebb8e97d609c511417e89b84f1a793294",
                    "decodedMethod": {
                        "callParams": [
                            {
                                "name": "tradeValues",
                                "type": "uint256[8]",
                                "value": [
                                    "150,045,560,980,687,380",
                                    "675,576,591,538,439,354,641",
                                    "190,000",
                                    "1,368",
                                    "150,045,560,980,687,380",
                                    "1,587",
                                    "1,000,000,000,000,000",
                                    "15,595,870,392,077,589"
                                ]
                            },
                            {
                                "name": "tradeAddresses",
                                "type": "address[4]",
                                "value": [
                                    "0x0000000000000000000000000000000000000000",
                                    "0xaf1250fa68d7decd34fd75de8742bc03b29bd58e",
                                    "0x4edd694877fa6cdefeac25e3909889923f9249b8",
                                    "0x46188f0bb4928e3d851ec8e70cfed58f17c7d2c8"
                                ]
                            },
                            {
                                "name": "v",
                                "type": "uint8[2]",
                                "value": [
                                    "27",
                                    "28"
                                ]
                            },
                            {
                                "name": "rs",
                                "type": "bytes32[4]",
                                "value": [
                                    "0x7a8956e0b2819ac7796163918ba107dfa95c285698280142063eab2c6bd5d7e6",
                                    "0x3e2cd4fabdbb9d79e6896e1eae7c8b39ca72a23a87aea7e0e20c2e30a3ab6571",
                                    "0x4b1ef4373ea28c3374db56d8515a736d01cfc478f5cc917b96ae703718805ccd",
                                    "0x752ee13755f5c8e5ef75c205b1f4a6bebb8e97d609c511417e89b84f1a793294"
                                ]
                            }
                        ],
                        "constructorArguments": "",
                        "name": "trade",
                        "returnParams": [
                            {
                                "name": "success",
                                "type": "bool",
                                "value": false
                            }
                        ],
                        "signature": "trade(uint256[8],address[4],uint8[2],bytes32[4])"
                    },
                    "errorInfo": "",
                    "fromAddress": "0xa7a7899d944fe658c4b0a1803bab2f490bd3849e",
                    "gasUsed": 127900,
                    "id": 0,
                    "methodDecoded": true,
                    "operation": "CALL",
                    "output": "0x0000000000000000000000000000000000000000000000000000000000000000",
                    "revert": false,
                    "revertMessage": "",
                    "selector": "0xef343588",
                    "status": true,
                    "value": "0"
                },
                "nodeType": 0
            },
            "1": {
                "invocation": {
                    "address": "0x0000000000000000000000000000000000000001",
                    "callData": "0x6a73da51da2f616259e5a5f0f4cf07d71c319394e84009acb8717ce2000000000000000000000000000000000000000000000000000000000000001b7a8956e0b2819ac7796163918ba107dfa95c285698280142063eab2c6bd5d7e63e2cd4fabdbb9d79e6896e1eae7c8b39ca72a23a87aea7e0e20c2e30a3ab6571",
                    "decodedMethod": {
                        "callParams": [
                            {
                                "name": "hash",
                                "type": "bytes32",
                                "value": "0xab5abea66a73da51da2f616259e5a5f0f4cf07d71c319394e84009acb8717ce2"
                            },
                            {
                                "name": "v",
                                "type": "uint256",
                                "value": "27"
                            },
                            {
                                "name": "r",
                                "type": "bytes32",
                                "value": "0x7a8956e0b2819ac7796163918ba107dfa95c285698280142063eab2c6bd5d7e6"
                            },
                            {
                                "name": "s",
                                "type": "bytes32",
                                "value": "0x3e2cd4fabdbb9d79e6896e1eae7c8b39ca72a23a87aea7e0e20c2e30a3ab6571"
                            }
                        ],
                        "constructorArguments": "",
                        "name": "ecrecover",
                        "returnParams": [
                            {
                                "name": "",
                                "type": "address",
                                "value": "0x4edd694877fa6cdefeac25e3909889923f9249b8"
                            }
                        ],
                        "signature": "ecrecover(bytes32,uint256,bytes32,bytes32)"
                    },
                    "errorInfo": "",
                    "fromAddress": "0x2a0c0dbecc7e4d658f48e01e3fa353f44050c208",
                    "gasUsed": 3000,
                    "id": 1,
                    "methodDecoded": true,
                    "operation": "CALL",
                    "output": "0x0000000000000000000000004edd694877fa6cdefeac25e3909889923f9249b8",
                    "revert": false,
                    "revertMessage": "",
                    "selector": "0xab5abea6",
                    "status": true,
                    "value": "0"
                },
                "nodeType": 0
            },
            "2": {
                "invocation": {
                    "address": "0x0000000000000000000000000000000000000001",
                    "callData": "0x6ea1fef58d99cc325cc144bfb103b093f27c40c0ff727c1692159b83000000000000000000000000000000000000000000000000000000000000001c4b1ef4373ea28c3374db56d8515a736d01cfc478f5cc917b96ae703718805ccd752ee13755f5c8e5ef75c205b1f4a6bebb8e97d609c511417e89b84f1a793294",
                    "decodedMethod": {
                        "callParams": [
                            {
                                "name": "hash",
                                "type": "bytes32",
                                "value": "0x69015fa96ea1fef58d99cc325cc144bfb103b093f27c40c0ff727c1692159b83"
                            },
                            {
                                "name": "v",
                                "type": "uint256",
                                "value": "28"
                            },
                            {
                                "name": "r",
                                "type": "bytes32",
                                "value": "0x4b1ef4373ea28c3374db56d8515a736d01cfc478f5cc917b96ae703718805ccd"
                            },
                            {
                                "name": "s",
                                "type": "bytes32",
                                "value": "0x752ee13755f5c8e5ef75c205b1f4a6bebb8e97d609c511417e89b84f1a793294"
                            }
                        ],
                        "constructorArguments": "",
                        "name": "ecrecover",
                        "returnParams": [
                            {
                                "name": "",
                                "type": "address",
                                "value": "0x46188f0bb4928e3d851ec8e70cfed58f17c7d2c8"
                            }
                        ],
                        "signature": "ecrecover(bytes32,uint256,bytes32,bytes32)"
                    },
                    "errorInfo": "",
                    "fromAddress": "0x2a0c0dbecc7e4d658f48e01e3fa353f44050c208",
                    "gasUsed": 3000,
                    "id": 2,
                    "methodDecoded": true,
                    "operation": "CALL",
                    "output": "0x00000000000000000000000046188f0bb4928e3d851ec8e70cfed58f17c7d2c8",
                    "revert": false,
                    "revertMessage": "",
                    "selector": "0x69015fa9",
                    "status": true,
                    "value": "0"
                },
                "nodeType": 0
            }
        },
        "gasFlame": [
            {
                "children": [
                    {
                        "children": [
                            {
                                "children": [],
                                "depth": 0,
                                "name": "Initial Gas",
                                "value": 38616
                            },
                            {
                                "children": [
                                    {
                                        "children": [],
                                        "depth": 1,
                                        "name": "ecrecover",
                                        "value": 3000
                                    },
                                    {
                                        "children": [],
                                        "depth": 1,
                                        "name": "ecrecover",
                                        "value": 3000
                                    }
                                ],
                                "depth": 0,
                                "name": "Executed Gas",
                                "value": 104284
                            }
                        ],
                        "depth": -1,
                        "name": "Actual Gas Used",
                        "value": 127900
                    },
                    {
                        "children": [],
                        "depth": -1,
                        "name": "Refunded Gas",
                        "value": 15000
                    }
                ],
                "depth": -2,
                "name": "Total Gas",
                "value": 142900
            }
        ],
        "isConfirmed": true,
        "mainTrace": [
            {
                "children": [
                    {
                        "children": [
                            {
                                "children": [],
                                "depth": 1,
                                "id": 1,
                                "order": 1
                            },
                            {
                                "children": [],
                                "depth": 1,
                                "id": 2,
                                "order": 2
                            }
                        ],
                        "depth": 0,
                        "id": 0,
                        "order": 0
                    }
                ],
                "depth": -1,
                "id": -1,
                "order": -1
            }
        ],
        "mainTraceNodeCount": 3,
        "parentIdMap": {
            "0": -1,
            "1": 0,
            "2": 0
        },
        "tidyTrace": [
            {
                "children": [
                    {
                        "children": [
                            {
                                "children": [],
                                "depth": 1,
                                "id": 1,
                                "order": 1
                            },
                            {
                                "children": [],
                                "depth": 1,
                                "id": 2,
                                "order": 2
                            }
                        ],
                        "depth": 0,
                        "id": 0,
                        "order": 0
                    }
                ],
                "depth": -1,
                "id": -1,
                "order": -1
            }
        ],
        "tidyTraceNodeCount": 3
    },
    "state_change": {
        "stateChanges": [
            {
                "address": "0x2a0c0dbecc7e4d658f48e01e3fa353f44050c208",
                "erc": "",
                "slots": [
                    {
                        "current": "0x0000000000000000000000000000000000000000000000000000000000000001",
                        "key": "0x46fcecb22cdfb58f2683c82287d7612de2d0837ae18f5e5befd5e7fe50441576",
                        "prev": "0x0000000000000000000000000000000000000000000000000000000000000000"
                    },
                    {
                        "current": "0x00000000000000000000000000000000000000000000000016d1d228851dc43d",
                        "key": "0x3ccb72d91c5c66cba135a4135963ed23443b8a63817f501517468fcd5097e277",
                        "prev": "0x00000000000000000000000000000000000000000000000016d149b150c0ff6e"
                    },
                    {
                        "current": "0x00000000000000000000000000000000000000000000006ddf71e0035a2a79ff",
                        "key": "0x025e9c0abaa4c303c6e89f65d2e89c3f64a8c4aae403197f9abd90933ae147c5",
                        "prev": "0x00000000000000000000000000000000000000000000006d4d39c16c7bf82da2"
                    },
                    {
                        "current": "0x000000000000000000000000000000000000000000000000021511a48a60ca14",
                        "key": "0xa677ff36a4e6e27aba32ce0f9a3262a4146423754295f3f0c9923cc37cd17a37",
                        "prev": "0x0000000000000000000000000000000000000000000000000000000000000000"
                    },
                    {
                        "current": "0x0000000000000000000000000000000000000000000000000000000000626ba2",
                        "key": "0x22be3b9c7eff15fa45c24844655878be65ac1fffb200a38e633cb10735f20748",
                        "prev": "0x00000000000000000000000000000000000000000000000000000000006260e7"
                    },
                    {
                        "current": "0x000000000000000000000000000000000000000000000000052b8ccde0311ab5",
                        "key": "0x778b901e40611a67493274124715dc3d21c63cfec724fe8177274dd1bdef934c",
                        "prev": "0x000000000000000000000000000000000000000000000000031703a08a2d1571"
                    },
                    {
                        "current": "0x0000000000000000000000000000000000000000000002c15ce9bef1b4a29b9f",
                        "key": "0xffdaef7e2dc0de3949a58dc6c14f3656a5cd9cda391a1cbd3570432c96edca62",
                        "prev": "0x00000000000000000000000000000000000000000000029d4f9faae330fc6eec"
                    },
                    {
                        "current": "0x0000000000000000000000000000000000000000000000004c6607ea1291ea0c",
                        "key": "0x045f4b408c086c7bcc74789a1f6a5ef57973924f45326a3ac1ffff50b8098c61",
                        "prev": "0x0000000000000000000000000000000000000000000000004e7b198e9cf2b420"
                    },
                    {
                        "current": "0x0000000000000000000000000000000000000000000000000000000000000000",
                        "key": "0x0ed5a2aff9dd2261ab8eabd2b54ce4401da4f8410c5ebdac4e65235ef34e94de",
                        "prev": "0x0000000000000000000000000000000000000000000000249f8232a561d87911"
                    }
                ],
                "storageVariables": [
                    {
                        "name": "tokens",
                        "type": "mapping(address => mapping(address => uint256))",
                        "value": {
                            "pairs": [
                                {
                                    "key": "0x0000000000000000000000000000000000000000",
                                    "value": {
                                        "pairs": [
                                            {
                                                "key": "0x034767f3c519f361c5ecf46ebfc08981c629d381",
                                                "value": {
                                                    "current": "1644326410440787005",
                                                    "prev": "1644176364879806318",
                                                    "typeTag": 1
                                                }
                                            },
                                            {
                                                "key": "0x46188f0bb4928e3d851ec8e70cfed58f17c7d2c8",
                                                "value": {
                                                    "current": "5505096296422304268",
                                                    "prev": "5655141857402991648",
                                                    "typeTag": 1
                                                }
                                            },
                                            {
                                                "key": "0x4edd694877fa6cdefeac25e3909889923f9249b8",
                                                "value": {
                                                    "current": "372546210045696693",
                                                    "prev": "222650694625990001",
                                                    "typeTag": 1
                                                }
                                            }
                                        ],
                                        "typeTag": 4
                                    }
                                },
                                {
                                    "key": "0xaf1250fa68d7decd34fd75de8742bc03b29bd58e",
                                    "value": {
                                        "pairs": [
                                            {
                                                "key": "0x034767f3c519f361c5ecf46ebfc08981c629d381",
                                                "value": {
                                                    "current": "2026796000482169616895",
                                                    "prev": "2016259795520614575522",
                                                    "typeTag": 1
                                                }
                                            },
                                            {
                                                "key": "0x46188f0bb4928e3d851ec8e70cfed58f17c7d2c8",
                                                "value": {
                                                    "current": "13011649664231623793567",
                                                    "prev": "12346609277654739480300",
                                                    "typeTag": 1
                                                }
                                            },
                                            {
                                                "key": "0x4edd694877fa6cdefeac25e3909889923f9249b8",
                                                "value": {
                                                    "current": "0",
                                                    "prev": "675576591538439354641",
                                                    "typeTag": 1
                                                }
                                            }
                                        ],
                                        "typeTag": 4
                                    }
                                }
                            ],
                            "typeTag": 4
                        }
                    },
                    {
                        "name": "traded",
                        "type": "mapping(bytes32 => bool)",
                        "value": {
                            "pairs": [
                                {
                                    "key": "0x42c44f809fadbb8287627b63cee6c944d857bc5fded6567be9fc98cd3bba5580",
                                    "value": {
                                        "current": "true",
                                        "prev": "false",
                                        "typeTag": 1
                                    }
                                }
                            ],
                            "typeTag": 4
                        }
                    },
                    {
                        "name": "orderFills",
                        "type": "mapping(bytes32 => uint256)",
                        "value": {
                            "pairs": [
                                {
                                    "key": "0x35f483d917abfe8e5ad1bd9b40e9d667788276772fa2476d132201c37b83cdee",
                                    "value": {
                                        "current": "150045560980687380",
                                        "prev": "0",
                                        "typeTag": 1
                                    }
                                }
                            ],
                            "typeTag": 4
                        }
                    },
                    {
                        "name": "lastActiveTransaction",
                        "type": "mapping(address => uint256)",
                        "value": {
                            "pairs": [
                                {
                                    "key": "0x4edd694877fa6cdefeac25e3909889923f9249b8",
                                    "value": {
                                        "current": "6450082",
                                        "prev": "6447335",
                                        "typeTag": 1
                                    }
                                }
                            ],
                            "typeTag": 4
                        }
                    }
                ]
            }
        ]
    }
}