{
    "balance_change": {
        "balanceChanges": [
            {
                "account": "0x28c6c06298d514db089934071355e5743bf21d60",
                "assets": [
                    {
                        "address": "0x4a220e6096b25eadb88358cb44068a3248254675",
                        "amount": "104.04",
                        "iconUrl": "https://assets.blocksec.com/icon/2517ae4798f8af07582abbcc7e22fbabe148d0b4c36e1004952431a198138ad8.png",
                        "isERC1155": false,
                        "isERC721": false,
                        "sign": false,
                        "value": "12242.41497"
                    }
                ]
            },
            {
                "account": "0xfa103c21ea2df71dfb92b0652f8b1d795e51cdef",
                "assets": [
                    {
                        "address": "0x4a220e6096b25eadb88358cb44068a3248254675",
                        "amount": "104.04",
                        "iconUrl": "https://assets.blocksec.com/icon/2517ae4798f8af07582abbcc7e22fbabe148d0b4c36e1004952431a198138ad8.png",
                        "isERC1155": false,
                        "isERC721": false,
                        "sign": true,
                        "value": "12242.41497"
                    }
                ]
            }
        ]
    },
    "profile": {
        "basic_info": {
            "baseFee": "31.3531437",
            "blockNumber": 14312511,
            "callData": "0xa9059cbb000000000000000000000000fa103c21ea2df71dfb92b0652f8b1d795e51cdef000000000000000000000000000000000000000000000005a3d854c5bfa40000",
            "debugEnable": true,
            "errorInfo": "",
            "eventCount": 1,
            "feeRecipient": "0x1ad91ee08f21be3de0ba2ba6918e714da6b45836",
            "formatValue": "0",
            "gasLimit": 207128,
            "gasPrice": "33.3531437",
            "gasUsed": 51957,
            "intTxnCount": 0,
            "internalRevert": false,
            "internalRevertMessage": "",
            "isContractCreation": false,
            "isFlashloan": false,
            "maxFee": "120",
            "nonce": 3486899,
            "overwritedBlockNumber": -1,
            "priorityFee": "2",
            "receiver": "0x4a220e6096b25eadb88358cb44068a3248254675",
            "revertMessage": "",
            "sender": "0x28c6c06298d514db089934071355e5743bf21d60",
            "simulationEnable": true,
            "sourceTxnHash": "0x6929a598140a561be1280325c0f0c57ad69a487be4ec27e718a7f655d7a1732e",
            "status": true,
            "timestamp": "2022-03-03T06:55:24Z",
            "transactionFee": "0.0017329292872209",
            "txnHash": "0x6929a598140a561be1280325c0f0c57ad69a487be4ec27e718a7f655d7a1732e",
            "txnIndex": 70,
            "type": 2,
            "value": "0"
        },
        "fund_flow": [
            {
                "amount": "104.04",
                "from": "0x28c6c06298d514db089934071355e5743bf21d60",
                "id": 1,
                "isERC1155": false,
                "isERC721": false,
                "isReverted": false,
                "order": 1,
                "to": "0xfa103c21ea2df71dfb92b0652f8b1d795e51cdef",
                "token": "0x4a220e6096b25eadb88358cb44068a3248254675"
            }
        ],
        "token_infos": [
            {
                "address": "0x4a220e6096b25eadb88358cb44068a3248254675",
                "decimals": 18
            },
            {
                "address": "0xc02aaa39b223fe8d0a0e5c4f27ead9083c756cc2",
                "decimals": 18
            },
            {
                "address": "0xeeeeeeeeeeeeeeeeeeeeeeeeeeeeeeeeeeeeeeee",
                "decimals": 18
            }
        ]
    },
    "address_label": {
        "labels": [
            {
                "address": "0x0000000000000000000000000000000000000002",
                "label": "Precompiled"
            },
            {
                "address": "0x0000000000000000000000000000000000000003",
                "label": "Precompiled"
            },
            {
                "address": "0x0000000000000000000000000000000000000004",
                "label": "Precompiled"
            },
            {
                "address": "0xeeeeeeeeeeeeeeeeeeeeeeeeeeeeeeeeeeeeeeee",
                "label": "Ether"
            },
            {
                "address": "0x4a220e6096b25eadb88358cb44068a3248254675",
                "label": "Quant: QNT Token"
            },
            {
                "address": "0x28c6c06298d514db089934071355e5743bf21d60",
                "label": "Binance 14"
            },
            {
                "address": "0x0000000000000000000000000000000000000001",
                "label": "Precompiled"
            }
        ]
    },
    "trace": {
        "accountLabels": null,
        "dataMap": {
            "-1": {
                "invocation": {
                    "address": "0x28c6c06298d514db089934071355e5743bf21d60",
                    "callData": "",
                    "decodedMethod": null,
                    "errorInfo": "",
                    "fromAddress": "",
                    "gasUsed": 0,
                    "id": -1,
                    "methodDecoded": false,
                    "operation": "",
                    "output": "",
                    "revert": false,
                    "revertMessage": "",
                    "selector": "",
                    "status": false,
                    "value": ""
                },
                "nodeType": 0
            },
            "0": {
                "invocation": {
                    "address": "0x4a220e6096b25eadb88358cb44068a3248254675",
                    "callData": "0x000000000000000000000000fa103c21ea2df71dfb92b0652f8b1d795e51cdef000000000000000000000000000000000000000000000005a3d854c5bfa40000",
                    "decodedMethod": {
                        "callParams": [
                            {
                                "name": "_to",
                                "type": "address",
                                "value": "0xfa103c21ea2df71dfb92b0652f8b1d795e51cdef"
                            },
                            {
                                "decimalAvailable": true,
                                "name": "_value",
                                "type": "uint256",
                                "value": "104,040,000,000,000,000,000"
                            }
                        ],
                        "constructorArguments": "",
                        "name": "transfer",
                        "returnParams": [
                            {
                                "name": "",
                                "type": "bool",
                                "value": true
                            }
                        ],
                        "signature": "transfer(address,uint256)"
                    },
                    "errorInfo": "",
                    "fromAddress": "0x28c6c06298d514db089934071355e5743bf21d60",
                    "gasUsed": 51957,
                    "id": 0,
                    "methodDecoded": true,
                    "operation": "CALL",
                    "output": "0x0000000000000000000000000000000000000000000000000000000000000001",
                    "revert": false,
                    "revertMessage": "",
                    "selector": "0xa9059cbb",
                    "status": true,
                    "value": "0"
                },
                "nodeType": 0
            },
            "1": {
                "event": {
                    "contract": "0x4a220e6096b25eadb88358cb44068a3248254675",
                    "decodedLog": {
                        "name": "Transfer",
                        "params": [
                            {
                                "name": "from",
                                "type": "address",
                                "value": "0x28c6c06298d514db089934071355e5743bf21d60"
                            },
                            {
                                "name": "to",
                                "type": "address",
                                "value": "0xfa103c21ea2df71dfb92b0652f8b1d795e51cdef"
                            },
                            {
                                "decimalAvailable": true,
                                "name": "value",
                                "type": "uint256",
                                "value": "104,040,000,000,000,000,000"
                            }
                        ],
                        "signature": "Transfer(address,address,uint256)"
                    },
                    "id": 1,
                    "logData": "0x000000000000000000000000000000000000000000000005a3d854c5bfa40000",
                    "logDecoded": true,
                    "operation": "EVENT",
                    "revert": false,
                    "status": true,
                    "topics": [
                        "0xddf252ad1be2c89b69c2b068fc378daa952ba7f163c4a11628f55a4df523b3ef",
                        "0x00000000000000000000000028c6c06298d514db089934071355e5743bf21d60",
                        "0x000000000000000000000000fa103c21ea2df71dfb92b0652f8b1d795e51cdef"
                    ]
                },
                "nodeType": 1
            }
        },
        "gasFlame": [
            {
                "children": [
                    {
                        "children": [
                            {
                                "children": [],
                                "depth": 0,
                                "name": "Initial Gas",
                                "value": 21644
                            },
                            {
                                "children": [],
                                "depth": 0,
                                "name": "Executed Gas",
                                "value": 30313
                            }
                        ],
                        "depth": -1,
                        "name": "Actual Gas Used",
                        "value": 51957
                    },
                    {
                        "children": [],
                        "depth": -1,
                        "name": "Refunded Gas",
                        "value": 0
                    }
                ],
                "depth": -2,
                "name": "Total Gas",
                "value": 51957
            }
        ],
        "isConfirmed": true,
        "mainTrace": [
            {
                "children": [
                    {
                        "children": [
                            {
                                "children": [],
                                "depth": 1,
                                "id": 1,
                                "order": 1
                            }
                        ],
                        "depth": 0,
                        "id": 0,
                        "order": 0
                    }
                ],
                "depth": -1,
                "id": -1,
                "order": -1
            }
        ],
        "mainTraceNodeCount": 2,
        "parentIdMap": {
            "0": -1,
            "1": 0
        },
        "tidyTrace": [
            {
                "children": [
                    {
                        "children": [
                            {
                                "children": [],
                                "depth": 1,
                                "id": 1,
                                "order": 1
                            }
                        ],
                        "depth": 0,
                        "id": 0,
                        "order": 0
                    }
                ],
                "depth": -1,
                "id": -1,
                "order": -1
            }
        ],
        "tidyTraceNodeCount": 2
    },
    "state_change": {
        "stateChanges": [
            {
                "address": "0x4a220e6096b25eadb88358cb44068a3248254675",
                "erc": "ERC-20",
                "slots": [
                    {
                        "current": "0x0000000000000000000000000000000000000000000005da7574235ea28ae159",
                        "key": "0xc0ec8fbf02d70b2873f5a76f503e97bd1b0ca8048ab517fad231214a74ebe459",
                        "prev": "0x0000000000000000000000000000000000000000000005e0194c7824622ee159"
                    },
                    {
                        "current": "0x000000000000000000000000000000000000000000000005a3d854c5bfa40000",
                        "key": "0x136a785ed65f4d6b646f2c7a77e33b6217657f5e647e97dee5783ec534858d29",
                        "prev": "0x0000000000000000000000000000000000000000000000000000000000000000"
                    }
                ],
                "storageVariables": [
                    {
                        "name": "balances",
                        "type": "mapping(address => uint256)",
                        "value": {
                            "pairs": [
                                {
                                    "key": "0x28c6c06298d514db089934071355e5743bf21d60",
                                    "value": {
                                        "current": "27641686050906005234009",
                                        "prev": "27745726050906005234009",
                                        "typeTag": 1
                                    }
                                },
                                {
                                    "key": "0xfa103c21ea2df71dfb92b0652f8b1d795e51cdef",
                                    "value": {
                                        "current": "104040000000000000000",
                                        "prev": "0",
                                        "typeTag": 1
                                    }
                                }
                            ],
                            "typeTag": 4
                        }
                    }
                ]
            }
        ]
    }
}