{
    "balance_change": {
        "balanceChanges": [
            {
                "account": "0x5219eaa8aa3d06c63185f60e5ec64b3df7ade37b",
                "assets": [
                    {
                        "address": "0x902c2c0327f1ecb519caa6f677516472ab08e025",
                        "amount": "14,786,794,500,000,000,000",
                        "iconUrl": "",
                        "isERC1155": false,
                        "isERC721": false,
                        "sign": false,
                        "value": ""
                    }
                ]
            },
            {
                "account": "0x6ccba36e12a936b3fda36df24884936e0ca50a22",
                "assets": [
                    {
                        "address": "0x902c2c0327f1ecb519caa6f677516472ab08e025",
                        "amount": "14,786,794,500,000,000,000",
                        "iconUrl": "",
                        "isERC1155": false,
                        "isERC721": false,
                        "sign": true,
                        "value": ""
                    }
                ]
            }
        ]
    },
    "profile": {
        "basic_info": {
            "baseFee": "",
            "blockNumber": 6554061,
            "callData": "0xa9059cbb0000000000000000000000006ccba36e12a936b3fda36df24884936e0ca50a22000000000000000000000000000000000000000000000000cd353f4103332800",
            "debugEnable": true,
            "errorInfo": "",
            "eventCount": 1,
            "feeRecipient": "0xea674fdde714fd979de3edf0f56aa9716b898ec8",
            "formatValue": "0",
            "gasLimit": 80000,
            "gasPrice": "3.4",
            "gasUsed": 36582,
            "intTxnCount": 0,
            "internalRevert": false,
            "internalRevertMessage": "",
            "isContractCreation": false,
            "isFlashloan": false,
            "maxFee": "",
            "nonce": 755,
            "overwritedBlockNumber": -1,
            "priorityFee": "",
            "receiver": "0x902c2c0327f1ecb519caa6f677516472ab08e025",
            "revertMessage": "",
            "sender": "0x5219eaa8aa3d06c63185f60e5ec64b3df7ade37b",
            "simulationEnable": true,
            "sourceTxnHash": "0x692bd47890026270960e8fa64731669c80b3e350a0f375c6d7fdb949b26dff67",
            "status": true,
            "timestamp": "2018-10-21T03:22:56Z",
            "transactionFee": "0.0001243788",
            "txnHash": "0x692bd47890026270960e8fa64731669c80b3e350a0f375c6d7fdb949b26dff67",
            "txnIndex": 43,
            "type": 0,
            "value": "0"
        },
        "fund_flow": [
            {
                "amount": "14,786,794,500,000,000,000",
                "from": "0x5219eaa8aa3d06c63185f60e5ec64b3df7ade37b",
                "id": 1,
                "isERC1155": false,
                "isERC721": false,
                "isReverted": false,
                "order": 1,
                "to": "0x6ccba36e12a936b3fda36df24884936e0ca50a22",
                "token": "0x902c2c0327f1ecb519caa6f677516472ab08e025"
            }
        ],
        "token_infos": [
            {
                "address": "0xeeeeeeeeeeeeeeeeeeeeeeeeeeeeeeeeeeeeeeee",
                "decimals": 18
            },
            {
                "address": "0xc02aaa39b223fe8d0a0e5c4f27ead9083c756cc2",
                "decimals": 18
            }
        ]
    },
    "address_label": {
        "labels": [
            {
                "address": "0xeeeeeeeeeeeeeeeeeeeeeeeeeeeeeeeeeeeeeeee",
                "label": "Ether"
            },
            {
                "address": "0x0000000000000000000000000000000000000001",
                "label": "Precompiled"
            },
            {
                "address": "0x0000000000000000000000000000000000000002",
                "label": "Precompiled"
            },
            {
                "address": "0x0000000000000000000000000000000000000003",
                "label": "Precompiled"
            },
            {
                "address": "0x0000000000000000000000000000000000000004",
                "label": "Precompiled"
            }
        ]
    },
    "trace": {
        "accountLabels": null,
        "dataMap": {
            "-1": {
                "invocation": {
                    "address": "0x5219eaa8aa3d06c63185f60e5ec64b3df7ade37b",
                    "callData": "",
                    "decodedMethod": null,
                    "errorInfo": "",
                    "fromAddress": "",
                    "gasUsed": 0,
                    "id": -1,
                    "methodDecoded": false,
                    "operation": "",
                    "output": "",
                    "revert": false,
                    "revertMessage": "",
                    "selector": "",
                    "status": false,
                    "value": ""
                },
                "nodeType": 0
            },
            "0": {
                "invocation": {
                    "address": "0x902c2c0327f1ecb519caa6f677516472ab08e025",
                    "callData": "0x0000000000000000000000006ccba36e12a936b3fda36df24884936e0ca50a22000000000000000000000000000000000000000000000000cd353f4103332800",
                    "decodedMethod": {
                        "callParams": [
                            {
                                "name": "recipient",
                                "type": "address",
                                "value": "0x6ccba36e12a936b3fda36df24884936e0ca50a22"
                            },
                            {
                                "decimalAvailable": true,
                                "name": "amount",
                                "type": "uint256",
                                "value": "14,786,794,500,000,000,000"
                            }
                        ],
                        "constructorArguments": "",
                        "name": "transfer",
                        "returnParams": [
                            {
                                "name": "",
                                "type": "bool",
                                "value": true
                            }
                        ],
                        "signature": "transfer(address,uint256)"
                    },
                    "errorInfo": "",
                    "fromAddress": "0x5219eaa8aa3d06c63185f60e5ec64b3df7ade37b",
                    "gasUsed": 36582,
                    "id": 0,
                    "methodDecoded": true,
                    "operation": "CALL",
                    "output": "0x0000000000000000000000000000000000000000000000000000000000000001",
                    "revert": false,
                    "revertMessage": "",
                    "selector": "0xa9059cbb",
                    "status": true,
                    "value": "0"
                },
                "nodeType": 0
            },
            "1": {
                "event": {
                    "contract": "0x902c2c0327f1ecb519caa6f677516472ab08e025",
                    "decodedLog": {
                        "name": "Transfer",
                        "params": [
                            {
                                "name": "from",
                                "type": "address",
                                "value": "0x5219eaa8aa3d06c63185f60e5ec64b3df7ade37b"
                            },
                            {
                                "name": "to",
                                "type": "address",
                                "value": "0x6ccba36e12a936b3fda36df24884936e0ca50a22"
                            },
                            {
                                "decimalAvailable": true,
                                "name": "value",
                                "type": "uint256",
                                "value": "14,786,794,500,000,000,000"
                            }
                        ],
                        "signature": "Transfer(address,address,uint256)"
                    },
                    "id": 1,
                    "logData": "0x000000000000000000000000000000000000000000000000cd353f4103332800",
                    "logDecoded": true,
                    "operation": "EVENT",
                    "revert": false,
                    "status": true,
                    "topics": [
                        "0xddf252ad1be2c89b69c2b068fc378daa952ba7f163c4a11628f55a4df523b3ef",
                        "0x0000000000000000000000005219eaa8aa3d06c63185f60e5ec64b3df7ade37b",
                        "0x0000000000000000000000006ccba36e12a936b3fda36df24884936e0ca50a22"
                    ]
                },
                "nodeType": 1
            }
        },
        "gasFlame": [
            {
                "children": [
                    {
                        "children": [
                            {
                                "children": [],
                                "depth": 0,
                                "name": "Initial Gas",
                                "value": 23256
                            },
                            {
                                "children": [],
                                "depth": 0,
                                "name": "Executed Gas",
                                "value": 13326
                            }
                        ],
                        "depth": -1,
                        "name": "Actual Gas Used",
                        "value": 36582
                    },
                    {
                        "children": [],
                        "depth": -1,
                        "name": "Refunded Gas",
                        "value": 0
                    }
                ],
                "depth": -2,
                "name": "Total Gas",
                "value": 36582
            }
        ],
        "isConfirmed": true,
        "mainTrace": [
            {
                "children": [
                    {
                        "children": [
                            {
                                "children": [],
                                "depth": 1,
                                "id": 1,
                                "order": 1
                            }
                        ],
                        "depth": 0,
                        "id": 0,
                        "order": 0
                    }
                ],
                "depth": -1,
                "id": -1,
                "order": -1
            }
        ],
        "mainTraceNodeCount": 2,
        "parentIdMap": {
            "0": -1,
            "1": 0
        },
        "tidyTrace": [
            {
                "children": [
                    {
                        "children": [
                            {
                                "children": [],
                                "depth": 1,
                                "id": 1,
                                "order": 1
                            }
                        ],
                        "depth": 0,
                        "id": 0,
                        "order": 0
                    }
                ],
                "depth": -1,
                "id": -1,
                "order": -1
            }
        ],
        "tidyTraceNodeCount": 2
    },
    "state_change": {
        "stateChanges": [
            {
                "address": "0x902c2c0327f1ecb519caa6f677516472ab08e025",
                "erc": "",
                "slots": [
                    {
                        "current": "0x0000000000000000000000000000000000000000000000cae69c8bd938feda80",
                        "key": "0xfef5b8dab4dca4d1052b71c802144d561ca658b64b0ac668d0b5095be3b94578",
                        "prev": "0x0000000000000000000000000000000000000000000000cbb3d1cb1a3c320280"
                    },
                    {
                        "current": "0x00000000000000000000000000000000000000000000000626969a6028f74800",
                        "key": "0x956c6ef54137e3a6e83e438441f73816046235a6371f5353a77bb521674d5eda",
                        "prev": "0x00000000000000000000000000000000000000000000000559615b1f25c42000"
                    }
                ],
                "storageVariables": []
            }
        ]
    }
}