{
    "balance_change": {
        "balanceChanges": [
            {
                "account": "0x45c7251e1fbc96126a330c942cccfdd246bdebe4",
                "assets": [
                    {
                        "address": "0xa0b86991c6218b36c1d19d4a2e9eb0ce3606eb48",
                        "amount": "100",
                        "iconUrl": "https://assets.blocksec.com/icon/0347a86cc07dbd03fdc5db01a4e5ac7e1217f90e0b6e4bb0f75cbcca09160989.png",
                        "isERC1155": false,
                        "isERC721": false,
                        "sign": false,
                        "value": "99.85000000000000542"
                    }
                ]
            },
            {
                "account": "0x790d8848bbad7fb92831a9a2092ed3e91b7ffe11",
                "assets": [
                    {
                        "address": "0xa0b86991c6218b36c1d19d4a2e9eb0ce3606eb48",
                        "amount": "100",
                        "iconUrl": "https://assets.blocksec.com/icon/0347a86cc07dbd03fdc5db01a4e5ac7e1217f90e0b6e4bb0f75cbcca09160989.png",
                        "isERC1155": false,
                        "isERC721": false,
                        "sign": true,
                        "value": "99.85000000000000542"
                    }
                ]
            }
        ]
    },
    "profile": {
        "basic_info": {
            "baseFee": "9.51954985",
            "blockNumber": 19072991,
            "callData": "0x02327c0a0000000000000000000000000000000000000000000000000000000005f5e100000000000000000000000000000000000000000000000024c39dbca3438b433000000000000000000000000045c7251e1fbc96126a330c942cccfdd246bdebe4",
            "debugEnable": true,
            "errorInfo": "",
            "eventCount": 2,
            "feeRecipient": "0x388c818ca8b9251b393131c08a736a67ccb19297",
            "formatValue": "0",
            "gasLimit": 159265,
            "gasPrice": "9.61954985",
            "gasUsed": 99943,
            "intTxnCount": 12,
            "internalRevert": false,
            "internalRevertMessage": "",
            "isContractCreation": false,
            "isFlashloan": false,
            "maxFee": "13.543314355",
            "nonce": 216,
            "overwritedBlockNumber": -1,
            "priorityFee": "0.1",
            "receiver": "0x790d8848bbad7fb92831a9a2092ed3e91b7ffe11",
            "revertMessage": "",
            "sender": "0x45c7251e1fbc96126a330c942cccfdd246bdebe4",
            "simulationEnable": true,
            "sourceTxnHash": "0x6954e0b766cb21d7177f0edfc61594b73c85cfcb6b57842ab406cea73ca16b88",
            "status": true,
            "timestamp": "2024-01-24T00:41:23Z",
            "transactionFee": "0.00096140667065855",
            "txnHash": "0x6954e0b766cb21d7177f0edfc61594b73c85cfcb6b57842ab406cea73ca16b88",
            "txnIndex": 79,
            "type": 2,
            "value": "0"
        },
        "fund_flow": [
            {
                "amount": "100",
                "from": "0x45c7251e1fbc96126a330c942cccfdd246bdebe4",
                "id": 1,
                "isERC1155": false,
                "isERC721": false,
                "isReverted": false,
                "order": 1,
                "to": "0x790d8848bbad7fb92831a9a2092ed3e91b7ffe11",
                "token": "0xa0b86991c6218b36c1d19d4a2e9eb0ce3606eb48"
            }
        ],
        "token_infos": [
            {
                "address": "0xc02aaa39b223fe8d0a0e5c4f27ead9083c756cc2",
                "decimals": 18
            },
            {
                "address": "0xeeeeeeeeeeeeeeeeeeeeeeeeeeeeeeeeeeeeeeee",
                "decimals": 18
            },
            {
                "address": "0xa0b86991c6218b36c1d19d4a2e9eb0ce3606eb48",
                "decimals": 6
            }
        ]
    },
    "address_label": {
        "labels": [
            {
                "address": "0x912529007bc0d2a5464a6a211ebfe217dfb75dff",
                "label": "Cadence Protocol: CAD Token"
            },
            {
                "address": "0x388c818ca8b9251b393131c08a736a67ccb19297",
                "label": "LidoExecutionLayerRewardsVault"
            },
            {
                "address": "0x43506849d7c04f9138d1a2050bbf3a0c054402dd",
                "label": "FiatTokenV2_2"
            },
            {
                "address": "0x0000000000000000000000000000000000000001",
                "label": "Precompiled"
            },
            {
                "address": "0x0000000000000000000000000000000000000002",
                "label": "Precompiled"
            },
            {
                "address": "0x0000000000000000000000000000000000000003",
                "label": "Precompiled"
            },
            {
                "address": "0xeeeeeeeeeeeeeeeeeeeeeeeeeeeeeeeeeeeeeeee",
                "label": "Ether"
            },
            {
                "address": "0x81a89a3c934b688f93368b07d1210c7d669e27bc",
                "label": "LiquidityBootstrapPool"
            },
            {
                "address": "0x0000000000000000000000000000000000000004",
                "label": "Precompiled"
            },
            {
                "address": "0xa0b86991c6218b36c1d19d4a2e9eb0ce3606eb48",
                "label": "Circle: USDC Token"
            }
        ]
    },
    "trace": {
        "accountLabels": null,
        "dataMap": {
            "-1": {
                "invocation": {
                    "address": "0x45c7251e1fbc96126a330c942cccfdd246bdebe4",
                    "callData": "",
                    "decodedMethod": null,
                    "errorInfo": "",
                    "fromAddress": "",
                    "gasUsed": 0,
                    "id": -1,
                    "methodDecoded": false,
                    "operation": "",
                    "output": "",
                    "revert": false,
                    "revertMessage": "",
                    "selector": "",
                    "status": false,
                    "value": ""
                },
                "nodeType": 0
            },
            "0": {
                "invocation": {
                    "address": "0x790d8848bbad7fb92831a9a2092ed3e91b7ffe11",
                    "callData": "0x0000000000000000000000000000000000000000000000000000000005f5e100000000000000000000000000000000000000000000000024c39dbca3438b433000000000000000000000000045c7251e1fbc96126a330c942cccfdd246bdebe4",
                    "decodedMethod": {
                        "callParams": [
                            {
                                "name": "assetsIn",
                                "type": "uint256",
                                "value": "100,000,000"
                            },
                            {
                                "name": "minSharesOut",
                                "type": "uint256",
                                "value": "678,178,416,471,682,270,000"
                            },
                            {
                                "name": "recipient",
                                "type": "address",
                                "value": "0x45c7251e1fbc96126a330c942cccfdd246bdebe4"
                            }
                        ],
                        "constructorArguments": "",
                        "name": "swapExactAssetsForShares",
                        "returnParams": [
                            {
                                "name": "sharesOut",
                                "type": "uint256",
                                "value": "681,698,122,762,236,680,855"
                            }
                        ],
                        "signature": "swapExactAssetsForShares(uint256,uint256,address)"
                    },
                    "errorInfo": "",
                    "fromAddress": "0x45c7251e1fbc96126a330c942cccfdd246bdebe4",
                    "gasUsed": 99943,
                    "id": 0,
                    "methodDecoded": true,
                    "operation": "CALL",
                    "output": "0x000000000000000000000000000000000000000000000024f4763edc5dbf5a97",
                    "revert": false,
                    "revertMessage": "",
                    "selector": "0x02327c0a",
                    "status": true,
                    "value": "0"
                },
                "nodeType": 0
            },
            "1": {
                "invocation": {
                    "address": "0x81a89a3c934b688f93368b07d1210c7d669e27bc",
                    "callData": "0x0000000000000000000000000000000000000000000000000000000005f5e100000000000000000000000000000000000000000000000024c39dbca3438b433000000000000000000000000045c7251e1fbc96126a330c942cccfdd246bdebe4a0b86991c6218b36c1d19d4a2e9eb0ce3606eb48912529007bc0d2a5464a6a211ebfe217dfb75dffa5033a6bdb31e52ce6ba9c67bff7331ac2686e721beceb3cb1ac11a3391cd8d92e79c373a5b5489100000000000000000000000000000000000000000000ffffffffffffffffffffffffffffffffffffffffffffffffffffffffffffffffff006a94d74f430000000000000000000000470de4df8200000d2f13f7789f00000065aebb300065b2afb00000000000000000000000470de4df82000001000000000000000000000000000000000000000000000000000000000000000000e6",
                    "decodedMethod": {
                        "callParams": [
                            {
                                "name": "assetsIn",
                                "type": "uint256",
                                "value": "100,000,000"
                            },
                            {
                                "name": "minSharesOut",
                                "type": "uint256",
                                "value": "678,178,416,471,682,270,000"
                            },
                            {
                                "name": "recipient",
                                "type": "address",
                                "value": "0x45c7251e1fbc96126a330c942cccfdd246bdebe4"
                            }
                        ],
                        "constructorArguments": "",
                        "name": "swapExactAssetsForShares",
                        "returnParams": [
                            {
                                "name": "sharesOut",
                                "type": "uint256",
                                "value": "681,698,122,762,236,680,855"
                            }
                        ],
                        "signature": "swapExactAssetsForShares(uint256,uint256,address)"
                    },
                    "errorInfo": "",
                    "fromAddress": "0x790d8848bbad7fb92831a9a2092ed3e91b7ffe11",
                    "gasUsed": 78153,
                    "id": 1,
                    "methodDecoded": true,
                    "operation": "DELEGATECALL",
                    "output": "0x000000000000000000000000000000000000000000000024f4763edc5dbf5a97",
                    "revert": false,
                    "revertMessage": "",
                    "selector": "0x02327c0a",
                    "status": true,
                    "value": "0"
                },
                "nodeType": 0
            },
            "10": {
                "invocation": {
                    "address": "0x912529007bc0d2a5464a6a211ebfe217dfb75dff",
                    "callData": "0x",
                    "decodedMethod": {
                        "callParams": [],
                        "constructorArguments": "",
                        "name": "decimals",
                        "returnParams": [
                            {
                                "name": "",
                                "type": "uint8",
                                "value": "18"
                            }
                        ],
                        "signature": "decimals()"
                    },
                    "errorInfo": "",
                    "fromAddress": "0x790d8848bbad7fb92831a9a2092ed3e91b7ffe11",
                    "gasUsed": 302,
                    "id": 10,
                    "methodDecoded": true,
                    "operation": "STATICCALL",
                    "output": "0x0000000000000000000000000000000000000000000000000000000000000012",
                    "revert": false,
                    "revertMessage": "",
                    "selector": "0x313ce567",
                    "status": true,
                    "value": "0"
                },
                "nodeType": 0
            },
            "11": {
                "invocation": {
                    "address": "0xa0b86991c6218b36c1d19d4a2e9eb0ce3606eb48",
                    "callData": "0x00000000000000000000000045c7251e1fbc96126a330c942cccfdd246bdebe4000000000000000000000000790d8848bbad7fb92831a9a2092ed3e91b7ffe110000000000000000000000000000000000000000000000000000000005f5e100",
                    "decodedMethod": {
                        "callParams": [
                            {
                                "name": "from",
                                "type": "address",
                                "value": "0x45c7251e1fbc96126a330c942cccfdd246bdebe4"
                            },
                            {
                                "name": "to",
                                "type": "address",
                                "value": "0x790d8848bbad7fb92831a9a2092ed3e91b7ffe11"
                            },
                            {
                                "decimalAvailable": true,
                                "name": "value",
                                "type": "uint256",
                                "value": "100,000,000"
                            }
                        ],
                        "constructorArguments": "",
                        "name": "transferFrom",
                        "returnParams": [
                            {
                                "name": "",
                                "type": "bool",
                                "value": true
                            }
                        ],
                        "signature": "transferFrom(address,address,uint256)"
                    },
                    "errorInfo": "",
                    "fromAddress": "0x790d8848bbad7fb92831a9a2092ed3e91b7ffe11",
                    "gasUsed": 20949,
                    "id": 11,
                    "methodDecoded": true,
                    "operation": "CALL",
                    "output": "0x0000000000000000000000000000000000000000000000000000000000000001",
                    "revert": false,
                    "revertMessage": "",
                    "selector": "0x23b872dd",
                    "status": true,
                    "value": "0"
                },
                "nodeType": 0
            },
            "12": {
                "invocation": {
                    "address": "0x43506849d7c04f9138d1a2050bbf3a0c054402dd",
                    "callData": "0x00000000000000000000000045c7251e1fbc96126a330c942cccfdd246bdebe4000000000000000000000000790d8848bbad7fb92831a9a2092ed3e91b7ffe110000000000000000000000000000000000000000000000000000000005f5e100",
                    "decodedMethod": {
                        "callParams": [
                            {
                                "name": "from",
                                "type": "address",
                                "value": "0x45c7251e1fbc96126a330c942cccfdd246bdebe4"
                            },
                            {
                                "name": "to",
                                "type": "address",
                                "value": "0x790d8848bbad7fb92831a9a2092ed3e91b7ffe11"
                            },
                            {
                                "decimalAvailable": true,
                                "name": "value",
                                "type": "uint256",
                                "value": "100,000,000"
                            }
                        ],
                        "constructorArguments": "",
                        "name": "transferFrom",
                        "returnParams": [
                            {
                                "name": "",
                                "type": "bool",
                                "value": true
                            }
                        ],
                        "signature": "transferFrom(address,address,uint256)"
                    },
                    "errorInfo": "",
                    "fromAddress": "0xa0b86991c6218b36c1d19d4a2e9eb0ce3606eb48",
                    "gasUsed": 20154,
                    "id": 12,
                    "methodDecoded": true,
                    "operation": "DELEGATECALL",
                    "output": "0x0000000000000000000000000000000000000000000000000000000000000001",
                    "revert": false,
                    "revertMessage": "",
                    "selector": "0x23b872dd",
                    "status": true,
                    "value": "0"
                },
                "nodeType": 0
            },
            "13": {
                "event": {
                    "contract": "0xa0b86991c6218b36c1d19d4a2e9eb0ce3606eb48",
                    "decodedLog": {
                        "name": "Transfer",
                        "params": [
                            {
                                "name": "from",
                                "type": "address",
                                "value": "0x45c7251e1fbc96126a330c942cccfdd246bdebe4"
                            },
                            {
                                "name": "to",
                                "type": "address",
                                "value": "0x790d8848bbad7fb92831a9a2092ed3e91b7ffe11"
                            },
                            {
                                "decimalAvailable": true,
                                "name": "value",
                                "type": "uint256",
                                "value": "100,000,000"
                            }
                        ],
                        "signature": "Transfer(address,address,uint256)"
                    },
                    "id": 13,
                    "logData": "0x0000000000000000000000000000000000000000000000000000000005f5e100",
                    "logDecoded": true,
                    "operation": "EVENT",
                    "revert": false,
                    "status": true,
                    "topics": [
                        "0xddf252ad1be2c89b69c2b068fc378daa952ba7f163c4a11628f55a4df523b3ef",
                        "0x00000000000000000000000045c7251e1fbc96126a330c942cccfdd246bdebe4",
                        "0x000000000000000000000000790d8848bbad7fb92831a9a2092ed3e91b7ffe11"
                    ]
                },
                "nodeType": 1
            },
            "14": {
                "event": {
                    "contract": "0x790d8848bbad7fb92831a9a2092ed3e91b7ffe11",
                    "decodedLog": {
                        "name": "Buy",
                        "params": [
                            {
                                "name": "caller",
                                "type": "address",
                                "value": "0x45c7251e1fbc96126a330c942cccfdd246bdebe4"
                            },
                            {
                                "name": "assets",
                                "type": "uint256",
                                "value": "100,000,000"
                            },
                            {
                                "name": "shares",
                                "type": "uint256",
                                "value": "681,698,122,762,236,680,855"
                            },
                            {
                                "name": "swapFee",
                                "type": "uint256",
                                "value": "2,000,000"
                            }
                        ],
                        "signature": "Buy(address,uint256,uint256,uint256)"
                    },
                    "id": 14,
                    "logData": "0x0000000000000000000000000000000000000000000000000000000005f5e100000000000000000000000000000000000000000000000024f4763edc5dbf5a9700000000000000000000000000000000000000000000000000000000001e8480",
                    "logDecoded": true,
                    "operation": "EVENT",
                    "revert": false,
                    "status": true,
                    "topics": [
                        "0xbeae048c6d270d9469f86cf6e8fedda3c60ad770f16c24c9fc131c8e9a09101d",
                        "0x00000000000000000000000045c7251e1fbc96126a330c942cccfdd246bdebe4"
                    ]
                },
                "nodeType": 1
            },
            "2": {
                "invocation": {
                    "address": "0xa0b86991c6218b36c1d19d4a2e9eb0ce3606eb48",
                    "callData": "0x000000000000000000000000790d8848bbad7fb92831a9a2092ed3e91b7ffe11",
                    "decodedMethod": {
                        "callParams": [
                            {
                                "name": "account",
                                "type": "address",
                                "value": "0x790d8848bbad7fb92831a9a2092ed3e91b7ffe11"
                            }
                        ],
                        "constructorArguments": "",
                        "name": "balanceOf",
                        "returnParams": [
                            {
                                "decimalAvailable": true,
                                "name": "",
                                "type": "uint256",
                                "value": "1,605,261,074,660"
                            }
                        ],
                        "signature": "balanceOf(address)"
                    },
                    "errorInfo": "",
                    "fromAddress": "0x790d8848bbad7fb92831a9a2092ed3e91b7ffe11",
                    "gasUsed": 9839,
                    "id": 2,
                    "methodDecoded": true,
                    "operation": "STATICCALL",
                    "output": "0x00000000000000000000000000000000000000000000000000000175c10420e4",
                    "revert": false,
                    "revertMessage": "",
                    "selector": "0x70a08231",
                    "status": true,
                    "value": "0"
                },
                "nodeType": 0
            },
            "3": {
                "invocation": {
                    "address": "0x43506849d7c04f9138d1a2050bbf3a0c054402dd",
                    "callData": "0x000000000000000000000000790d8848bbad7fb92831a9a2092ed3e91b7ffe11",
                    "decodedMethod": {
                        "callParams": [
                            {
                                "name": "account",
                                "type": "address",
                                "value": "0x790d8848bbad7fb92831a9a2092ed3e91b7ffe11"
                            }
                        ],
                        "constructorArguments": "",
                        "name": "balanceOf",
                        "returnParams": [
                            {
                                "decimalAvailable": true,
                                "name": "",
                                "type": "uint256",
                                "value": "1,605,261,074,660"
                            }
                        ],
                        "signature": "balanceOf(address)"
                    },
                    "errorInfo": "",
                    "fromAddress": "0xa0b86991c6218b36c1d19d4a2e9eb0ce3606eb48",
                    "gasUsed": 2553,
                    "id": 3,
                    "methodDecoded": true,
                    "operation": "DELEGATECALL",
                    "output": "0x00000000000000000000000000000000000000000000000000000175c10420e4",
                    "revert": false,
                    "revertMessage": "",
                    "selector": "0x70a08231",
                    "status": true,
                    "value": "0"
                },
                "nodeType": 0
            },
            "4": {
                "invocation": {
                    "address": "0x912529007bc0d2a5464a6a211ebfe217dfb75dff",
                    "callData": "0x000000000000000000000000790d8848bbad7fb92831a9a2092ed3e91b7ffe11",
                    "decodedMethod": {
                        "callParams": [
                            {
                                "name": "account",
                                "type": "address",
                                "value": "0x790d8848bbad7fb92831a9a2092ed3e91b7ffe11"
                            }
                        ],
                        "constructorArguments": "",
                        "name": "balanceOf",
                        "returnParams": [
                            {
                                "decimalAvailable": true,
                                "name": "",
                                "type": "uint256",
                                "value": "25,000,000,000,000,000,000,000,000"
                            }
                        ],
                        "signature": "balanceOf(address)"
                    },
                    "errorInfo": "",
                    "fromAddress": "0x790d8848bbad7fb92831a9a2092ed3e91b7ffe11",
                    "gasUsed": 2620,
                    "id": 4,
                    "methodDecoded": true,
                    "operation": "STATICCALL",
                    "output": "0x00000000000000000000000000000000000000000014adf4b7320334b9000000",
                    "revert": false,
                    "revertMessage": "",
                    "selector": "0x70a08231",
                    "status": true,
                    "value": "0"
                },
                "nodeType": 0
            },
            "5": {
                "invocation": {
                    "address": "0xa0b86991c6218b36c1d19d4a2e9eb0ce3606eb48",
                    "callData": "0x",
                    "decodedMethod": {
                        "callParams": [],
                        "constructorArguments": "",
                        "name": "decimals",
                        "returnParams": [
                            {
                                "name": "",
                                "type": "uint8",
                                "value": "6"
                            }
                        ],
                        "signature": "decimals()"
                    },
                    "errorInfo": "",
                    "fromAddress": "0x790d8848bbad7fb92831a9a2092ed3e91b7ffe11",
                    "gasUsed": 3164,
                    "id": 5,
                    "methodDecoded": true,
                    "operation": "STATICCALL",
                    "output": "0x0000000000000000000000000000000000000000000000000000000000000006",
                    "revert": false,
                    "revertMessage": "",
                    "selector": "0x313ce567",
                    "status": true,
                    "value": "0"
                },
                "nodeType": 0
            },
            "6": {
                "invocation": {
                    "address": "0x43506849d7c04f9138d1a2050bbf3a0c054402dd",
                    "callData": "0x",
                    "decodedMethod": {
                        "callParams": [],
                        "constructorArguments": "",
                        "name": "decimals",
                        "returnParams": [
                            {
                                "name": "",
                                "type": "uint8",
                                "value": "6"
                            }
                        ],
                        "signature": "decimals()"
                    },
                    "errorInfo": "",
                    "fromAddress": "0xa0b86991c6218b36c1d19d4a2e9eb0ce3606eb48",
                    "gasUsed": 2381,
                    "id": 6,
                    "methodDecoded": true,
                    "operation": "DELEGATECALL",
                    "output": "0x0000000000000000000000000000000000000000000000000000000000000006",
                    "revert": false,
                    "revertMessage": "",
                    "selector": "0x313ce567",
                    "status": true,
                    "value": "0"
                },
                "nodeType": 0
            },
            "7": {
                "invocation": {
                    "address": "0x912529007bc0d2a5464a6a211ebfe217dfb75dff",
                    "callData": "0x",
                    "decodedMethod": {
                        "callParams": [],
                        "constructorArguments": "",
                        "name": "decimals",
                        "returnParams": [
                            {
                                "name": "",
                                "type": "uint8",
                                "value": "18"
                            }
                        ],
                        "signature": "decimals()"
                    },
                    "errorInfo": "",
                    "fromAddress": "0x790d8848bbad7fb92831a9a2092ed3e91b7ffe11",
                    "gasUsed": 302,
                    "id": 7,
                    "methodDecoded": true,
                    "operation": "STATICCALL",
                    "output": "0x0000000000000000000000000000000000000000000000000000000000000012",
                    "revert": false,
                    "revertMessage": "",
                    "selector": "0x313ce567",
                    "status": true,
                    "value": "0"
                },
                "nodeType": 0
            },
            "8": {
                "invocation": {
                    "address": "0xa0b86991c6218b36c1d19d4a2e9eb0ce3606eb48",
                    "callData": "0x",
                    "decodedMethod": {
                        "callParams": [],
                        "constructorArguments": "",
                        "name": "decimals",
                        "returnParams": [
                            {
                                "name": "",
                                "type": "uint8",
                                "value": "6"
                            }
                        ],
                        "signature": "decimals()"
                    },
                    "errorInfo": "",
                    "fromAddress": "0x790d8848bbad7fb92831a9a2092ed3e91b7ffe11",
                    "gasUsed": 1164,
                    "id": 8,
                    "methodDecoded": true,
                    "operation": "STATICCALL",
                    "output": "0x0000000000000000000000000000000000000000000000000000000000000006",
                    "revert": false,
                    "revertMessage": "",
                    "selector": "0x313ce567",
                    "status": true,
                    "value": "0"
                },
                "nodeType": 0
            },
            "9": {
                "invocation": {
                    "address": "0x43506849d7c04f9138d1a2050bbf3a0c054402dd",
                    "callData": "0x",
                    "decodedMethod": {
                        "callParams": [],
                        "constructorArguments": "",
                        "name": "decimals",
                        "returnParams": [
                            {
                                "name": "",
                                "type": "uint8",
                                "value": "6"
                            }
                        ],
                        "signature": "decimals()"
                    },
                    "errorInfo": "",
                    "fromAddress": "0xa0b86991c6218b36c1d19d4a2e9eb0ce3606eb48",
                    "gasUsed": 381,
                    "id": 9,
                    "methodDecoded": true,
                    "operation": "DELEGATECALL",
                    "output": "0x0000000000000000000000000000000000000000000000000000000000000006",
                    "revert": false,
                    "revertMessage": "",
                    "selector": "0x313ce567",
                    "status": true,
                    "value": "0"
                },
                "nodeType": 0
            }
        },
        "gasFlame": [
            {
                "children": [
                    {
                        "children": [
                            {
                                "children": [],
                                "depth": 0,
                                "name": "Initial Gas",
                                "value": 21832
                            },
                            {
                                "children": [
                                    {
                                        "children": [
                                            {
                                                "children": [
                                                    {
                                                        "children": [],
                                                        "depth": 3,
                                                        "name": "balanceOf",
                                                        "value": 2553
                                                    }
                                                ],
                                                "depth": 2,
                                                "name": "balanceOf",
                                                "value": 9839
                                            },
                                            {
                                                "children": [],
                                                "depth": 2,
                                                "name": "balanceOf",
                                                "value": 2620
                                            },
                                            {
                                                "children": [
                                                    {
                                                        "children": [],
                                                        "depth": 3,
                                                        "name": "decimals",
                                                        "value": 2381
                                                    }
                                                ],
                                                "depth": 2,
                                                "name": "decimals",
                                                "value": 3164
                                            },
                                            {
                                                "children": [],
                                                "depth": 2,
                                                "name": "decimals",
                                                "value": 302
                                            },
                                            {
                                                "children": [
                                                    {
                                                        "children": [],
                                                        "depth": 3,
                                                        "name": "decimals",
                                                        "value": 381
                                                    }
                                                ],
                                                "depth": 2,
                                                "name": "decimals",
                                                "value": 1164
                                            },
                                            {
                                                "children": [],
                                                "depth": 2,
                                                "name": "decimals",
                                                "value": 302
                                            },
                                            {
                                                "children": [
                                                    {
                                                        "children": [],
                                                        "depth": 3,
                                                        "name": "transferFrom",
                                                        "value": 20154
                                                    }
                                                ],
                                                "depth": 2,
                                                "name": "transferFrom",
                                                "value": 20949
                                            }
                                        ],
                                        "depth": 1,
                                        "name": "swapExactAssetsForShares",
                                        "value": 78153
                                    }
                                ],
                                "depth": 0,
                                "name": "Executed Gas",
                                "value": 80911
                            }
                        ],
                        "depth": -1,
                        "name": "Actual Gas Used",
                        "value": 99943
                    },
                    {
                        "children": [],
                        "depth": -1,
                        "name": "Refunded Gas",
                        "value": 2800
                    }
                ],
                "depth": -2,
                "name": "Total Gas",
                "value": 102743
            }
        ],
        "isConfirmed": true,
        "mainTrace": [
            {
                "children": [
                    {
                        "children": [
                            {
                                "children": [
                                    {
                                        "children": [
                                            {
                                                "children": [],
                                                "depth": 3,
                                                "id": 3,
                                                "order": 3
                                            }
                                        ],
                                        "depth": 2,
                                        "id": 2,
                                        "order": 2
                                    },
                                    {
                                        "children": [],
                                        "depth": 2,
                                        "id": 4,
                                        "order": 4
                                    },
                                    {
                                        "children": [
                                            {
                                                "children": [],
                                                "depth": 3,
                                                "id": 6,
                                                "order": 6
                                            }
                                        ],
                                        "depth": 2,
                                        "id": 5,
                                        "order": 5
                                    },
                                    {
                                        "children": [],
                                        "depth": 2,
                                        "id": 7,
                                        "order": 7
                                    },
                                    {
                                        "children": [
                                            {
                                                "children": [],
                                                "depth": 3,
                                                "id": 9,
                                                "order": 9
                                            }
                                        ],
                                        "depth": 2,
                                        "id": 8,
                                        "order": 8
                                    },
                                    {
                                        "children": [],
                                        "depth": 2,
                                        "id": 10,
                                        "order": 10
                                    },
                                    {
                                        "children": [
                                            {
                                                "children": [
                                                    {
                                                        "children": [],
                                                        "depth": 4,
                                                        "id": 13,
                                                        "order": 13
                                                    }
                                                ],
                                                "depth": 3,
                                                "id": 12,
                                                "order": 12
                                            }
                                        ],
                                        "depth": 2,
                                        "id": 11,
                                        "order": 11
                                    },
                                    {
                                        "children": [],
                                        "depth": 2,
                                        "id": 14,
                                        "order": 14
                                    }
                                ],
                                "depth": 1,
                                "id": 1,
                                "order": 1
                            }
                        ],
                        "depth": 0,
                        "id": 0,
                        "order": 0
                    }
                ],
                "depth": -1,
                "id": -1,
                "order": -1
            }
        ],
        "mainTraceNodeCount": 15,
        "parentIdMap": {
            "0": -1,
            "1": 0,
            "10": 1,
            "11": 1,
            "12": 11,
            "13": 12,
            "14": 1,
            "2": 1,
            "3": 2,
            "4": 1,
            "5": 1,
            "6": 5,
            "7": 1,
            "8": 1,
            "9": 8
        },
        "tidyTrace": [
            {
                "children": [
                    {
                        "children": [
                            {
                                "children": [
                                    {
                                        "children": [
                                            {
                                                "children": [
                                                    {
                                                        "children": [],
                                                        "depth": 4,
                                                        "id": 13,
                                                        "order": 13
                                                    }
                                                ],
                                                "depth": 3,
                                                "id": 12,
                                                "order": 12
                                            }
                                        ],
                                        "depth": 2,
                                        "id": 11,
                                        "order": 11
                                    },
                                    {
                                        "children": [],
                                        "depth": 2,
                                        "id": 14,
                                        "order": 14
                                    }
                                ],
                                "depth": 1,
                                "id": 1,
                                "order": 1
                            }
                        ],
                        "depth": 0,
                        "id": 0,
                        "order": 0
                    }
                ],
                "depth": -1,
                "id": -1,
                "order": -1
            }
        ],
        "tidyTraceNodeCount": 6
    },
    "state_change": {
        "stateChanges": [
            {
                "address": "0x790d8848bbad7fb92831a9a2092ed3e91b7ffe11",
                "erc": "",
                "slots": [
                    {
                        "current": "0x00000000000000000000000000000000000000000000000000000007f5fcad54",
                        "key": "0x0000000000000000000000000000000000000000000000000000000000000007",
                        "prev": "0x00000000000000000000000000000000000000000000000000000007f5de28d4"
                    },
                    {
                        "current": "0x000000000000000000000000000000000000000000074a298f268ff70792d31d",
                        "key": "0x0000000000000000000000000000000000000000000000000000000000000005",
                        "prev": "0x000000000000000000000000000000000000000000074a049ab0511aa9d37886"
                    },
                    {
                        "current": "0x000000000000000000000000000000000000000000000049c9dedffbf3390536",
                        "key": "0x4ca9ae4de87eb1ba590e6990f96651be84471160a3680ad13cf4bbf1cf03bb70",
                        "prev": "0x000000000000000000000000000000000000000000000024d568a11f9579aa9f"
                    }
                ],
                "storageVariables": [
                    {
                        "name": "totalSwapFeesAsset",
                        "type": "uint256",
                        "value": {
                            "current": "34191748436",
                            "prev": "34189748436",
                            "typeTag": 1
                        }
                    },
                    {
                        "name": "totalPurchased",
                        "type": "uint256",
                        "value": {
                            "current": "8812702488632067745829661",
                            "prev": "8812020790509305509148806",
                            "typeTag": 1
                        }
                    },
                    {
                        "name": "purchasedShares",
                        "type": "mapping(address => uint256)",
                        "value": {
                            "pairs": [
                                {
                                    "key": "0x45c7251e1fbc96126a330c942cccfdd246bdebe4",
                                    "value": {
                                        "current": "1361158627500460934454",
                                        "prev": "679460504738224253599",
                                        "typeTag": 1
                                    }
                                }
                            ],
                            "typeTag": 4
                        }
                    }
                ]
            },
            {
                "address": "0xa0b86991c6218b36c1d19d4a2e9eb0ce3606eb48",
                "erc": "ERC-20",
                "slots": [
                    {
                        "current": "0x000000000000000000000000000000000000000000000000000000000764172a",
                        "key": "0x6077437b89d69f072a1197cb539e88a4ed228f9b3ea660b4f316bf061db113ab",
                        "prev": "0x000000000000000000000000000000000000000000000000000000000d59f82a"
                    },
                    {
                        "current": "0x00000000000000000000000000000000000000000000000000000175c6fa01e4",
                        "key": "0xc13e7d8ce41aa5c786982063ff91f99737f35020d6f296bce64fb07b0a054a35",
                        "prev": "0x00000000000000000000000000000000000000000000000000000175c10420e4"
                    },
                    {
                        "current": "0x000000000000000000000000000000000000000000000000000000000764172a",
                        "key": "0x06b17d1aa95d6c3182cf3798922c5b72b32cd32cfae2d57305f7c72c498e5240",
                        "prev": "0x000000000000000000000000000000000000000000000000000000000d59f82a"
                    }
                ],
                "storageVariables": [
                    {
                        "name": "balanceAndBlacklistStates",
                        "type": "mapping(address => uint256)",
                        "value": {
                            "pairs": [
                                {
                                    "key": "0x45c7251e1fbc96126a330c942cccfdd246bdebe4",
                                    "value": {
                                        "current": "124000042",
                                        "prev": "224000042",
                                        "typeTag": 1
                                    }
                                },
                                {
                                    "key": "0x790d8848bbad7fb92831a9a2092ed3e91b7ffe11",
                                    "value": {
                                        "current": "1605361074660",
                                        "prev": "1605261074660",
                                        "typeTag": 1
                                    }
                                }
                            ],
                            "typeTag": 4
                        }
                    },
                    {
                        "name": "allowed",
                        "type": "mapping(address => mapping(address => uint256))",
                        "value": {
                            "pairs": [
                                {
                                    "key": "0x45c7251e1fbc96126a330c942cccfdd246bdebe4",
                                    "value": {
                                        "pairs": [
                                            {
                                                "key": "0x790d8848bbad7fb92831a9a2092ed3e91b7ffe11",
                                                "value": {
                                                    "current": "124000042",
                                                    "prev": "224000042",
                                                    "typeTag": 1
                                                }
                                            }
                                        ],
                                        "typeTag": 4
                                    }
                                }
                            ],
                            "typeTag": 4
                        }
                    }
                ]
            }
        ]
    }
}