{
    "balance_change": {
        "balanceChanges": [
            {
                "account": "0xbbad96336943a36e3e292d973b3382dd0ba4d1ef",
                "assets": [
                    {
                        "address": "0xeeeeeeeeeeeeeeeeeeeeeeeeeeeeeeeeeeeeeeee",
                        "amount": "0.000000000013209858",
                        "iconUrl": "https://assets.blocksec.com/image/1663669189317-3.png",
                        "isERC1155": false,
                        "isERC721": false,
                        "sign": false,
                        "value": "0.000000033385189580308799596"
                    }
                ]
            },
            {
                "account": "0xa69babef1ca67a37ffaf7a485dfff3382056e78c",
                "assets": [
                    {
                        "address": "0xeeeeeeeeeeeeeeeeeeeeeeeeeeeeeeeeeeeeeeee",
                        "amount": "0.000000000013209858",
                        "iconUrl": "https://assets.blocksec.com/image/1663669189317-3.png",
                        "isERC1155": false,
                        "isERC721": false,
                        "sign": true,
                        "value": "0.000000033385189580308799596"
                    },
                    {
                        "address": "0xa0b86991c6218b36c1d19d4a2e9eb0ce3606eb48",
                        "amount": "3,441.621936",
                        "iconUrl": "https://assets.blocksec.com/icon/0347a86cc07dbd03fdc5db01a4e5ac7e1217f90e0b6e4bb0f75cbcca09160989.png",
                        "isERC1155": false,
                        "isERC721": false,
                        "sign": true,
                        "value": "3441.621936"
                    },
                    {
                        "address": "0xc02aaa39b223fe8d0a0e5c4f27ead9083c756cc2",
                        "amount": "1.363504368717976153",
                        "iconUrl": "https://assets.blocksec.com/icon/f1cb2d02c471d545bbc7722daf3277fd852d98e63d118771af7047bd8256c516.png",
                        "isERC1155": false,
                        "isERC721": false,
                        "sign": false,
                        "value": "3445.9758653457383584"
                    }
                ]
            },
            {
                "account": "0xe0554a476a092703abdb3ef35c80e0d76d32939f",
                "assets": [
                    {
                        "address": "0xa0b86991c6218b36c1d19d4a2e9eb0ce3606eb48",
                        "amount": "3,441.621936",
                        "iconUrl": "https://assets.blocksec.com/icon/0347a86cc07dbd03fdc5db01a4e5ac7e1217f90e0b6e4bb0f75cbcca09160989.png",
                        "isERC1155": false,
                        "isERC721": false,
                        "sign": false,
                        "value": "3441.621936"
                    },
                    {
                        "address": "0xc02aaa39b223fe8d0a0e5c4f27ead9083c756cc2",
                        "amount": "1.363504368717976153",
                        "iconUrl": "https://assets.blocksec.com/icon/f1cb2d02c471d545bbc7722daf3277fd852d98e63d118771af7047bd8256c516.png",
                        "isERC1155": false,
                        "isERC721": false,
                        "sign": true,
                        "value": "3445.9758653457383584"
                    }
                ]
            }
        ]
    },
    "profile": {
        "basic_info": {
            "baseFee": "0.880751086",
            "blockNumber": 20644881,
            "callData": "0x78e111f6000000000000000000000000bfe698cdd477ad2000086d348e02dec67f1653c1000000000000000000000000000000000000000000000000000000000000004000000000000000000000000000000000000000000000000000000000000000c42f1c6b5000000000000000000000000000000000000000000000000012ec23ffcb20d2590000000000000000000000000000000000000000000000002305cac432ee6a000000000000000000000000000000000000004dc11600e5c08d96a02c20e677bf0000000000000000000000000000000000000000000000000de0b6b3a76400000000000000000000000000000000000000000000000000000000000066d25f57ff00000000000000000000000000000000000000000000000000000000011d0300000000000000000000000000000000000000000000000000000000",
            "debugEnable": true,
            "errorInfo": "",
            "eventCount": 3,
            "feeRecipient": "0x95222290dd7278aa3ddd389cc1e1d165cc4bafe5",
            "formatValue": "0.000000000013209858",
            "gasLimit": 226670,
            "gasPrice": "1.880751087",
            "gasUsed": 113350,
            "intTxnCount": 8,
            "internalRevert": false,
            "internalRevertMessage": "",
            "isContractCreation": false,
            "isFlashloan": false,
            "maxFee": "2.320215726",
            "nonce": 204066,
            "overwritedBlockNumber": -1,
            "priorityFee": "1.000000001",
            "receiver": "0xa69babef1ca67a37ffaf7a485dfff3382056e78c",
            "revertMessage": "",
            "sender": "0xbbad96336943a36e3e292d973b3382dd0ba4d1ef",
            "simulationEnable": true,
            "sourceTxnHash": "0x693aa03bd102c64c23140e663434ff56d27654131e786cb4d99e4e70402d3d0b",
            "status": true,
            "timestamp": "2024-08-31T00:09:59Z",
            "transactionFee": "0.00021318313571145",
            "txnHash": "0x693aa03bd102c64c23140e663434ff56d27654131e786cb4d99e4e70402d3d0b",
            "txnIndex": 66,
            "type": 2,
            "value": "13209858"
        },
        "fund_flow": [
            {
                "amount": "0.000000000013209858",
                "from": "0xbbad96336943a36e3e292d973b3382dd0ba4d1ef",
                "id": 1,
                "isERC1155": false,
                "isERC721": false,
                "isReverted": false,
                "order": 1,
                "to": "0xa69babef1ca67a37ffaf7a485dfff3382056e78c",
                "token": "0xeeeeeeeeeeeeeeeeeeeeeeeeeeeeeeeeeeeeeeee"
            },
            {
                "amount": "3,441.621936",
                "from": "0xe0554a476a092703abdb3ef35c80e0d76d32939f",
                "id": 2,
                "isERC1155": false,
                "isERC721": false,
                "isReverted": false,
                "order": 2,
                "to": "0xa69babef1ca67a37ffaf7a485dfff3382056e78c",
                "token": "0xa0b86991c6218b36c1d19d4a2e9eb0ce3606eb48"
            },
            {
                "amount": "1.363504368717976153",
                "from": "0xa69babef1ca67a37ffaf7a485dfff3382056e78c",
                "id": 3,
                "isERC1155": false,
                "isERC721": false,
                "isReverted": false,
                "order": 3,
                "to": "0xe0554a476a092703abdb3ef35c80e0d76d32939f",
                "token": "0xc02aaa39b223fe8d0a0e5c4f27ead9083c756cc2"
            }
        ],
        "token_infos": [
            {
                "address": "0xa0b86991c6218b36c1d19d4a2e9eb0ce3606eb48",
                "decimals": 6
            },
            {
                "address": "0xc02aaa39b223fe8d0a0e5c4f27ead9083c756cc2",
                "decimals": 18
            },
            {
                "address": "0xeeeeeeeeeeeeeeeeeeeeeeeeeeeeeeeeeeeeeeee",
                "decimals": 18
            }
        ]
    },
    "address_label": {
        "labels": [
            {
                "address": "0xe0554a476a092703abdb3ef35c80e0d76d32939f",
                "label": "Uniswap V3: USDC 4"
            },
            {
                "address": "0xa0b86991c6218b36c1d19d4a2e9eb0ce3606eb48",
                "label": "Circle: USDC Token"
            },
            {
                "address": "0x0000000000000000000000000000000000000001",
                "label": "Precompiled"
            },
            {
                "address": "0x0000000000000000000000000000000000000003",
                "label": "Precompiled"
            },
            {
                "address": "0xeeeeeeeeeeeeeeeeeeeeeeeeeeeeeeeeeeeeeeee",
                "label": "Ether"
            },
            {
                "address": "0xa69babef1ca67a37ffaf7a485dfff3382056e78c",
                "label": "MEV Bot: 0xA69...78C"
            },
            {
                "address": "0xc02aaa39b223fe8d0a0e5c4f27ead9083c756cc2",
                "label": "Wrapped Ether (WETH)"
            },
            {
                "address": "0x43506849d7c04f9138d1a2050bbf3a0c054402dd",
                "label": "FiatTokenV2_2"
            },
            {
                "address": "0x0000000000000000000000000000000000000002",
                "label": "Precompiled"
            },
            {
                "address": "0x0000000000000000000000000000000000000004",
                "label": "Precompiled"
            }
        ]
    },
    "trace": {
        "accountLabels": null,
        "dataMap": {
            "-1": {
                "invocation": {
                    "address": "0xbbad96336943a36e3e292d973b3382dd0ba4d1ef",
                    "callData": "",
                    "decodedMethod": null,
                    "errorInfo": "",
                    "fromAddress": "",
                    "gasUsed": 0,
                    "id": -1,
                    "methodDecoded": false,
                    "operation": "",
                    "output": "",
                    "revert": false,
                    "revertMessage": "",
                    "selector": "",
                    "status": false,
                    "value": ""
                },
                "nodeType": 0
            },
            "0": {
                "invocation": {
                    "address": "0xa69babef1ca67a37ffaf7a485dfff3382056e78c",
                    "callData": "0x000000000000000000000000bfe698cdd477ad2000086d348e02dec67f1653c1000000000000000000000000000000000000000000000000000000000000004000000000000000000000000000000000000000000000000000000000000000c42f1c6b5000000000000000000000000000000000000000000000000012ec23ffcb20d2590000000000000000000000000000000000000000000000002305cac432ee6a000000000000000000000000000000000000004dc11600e5c08d96a02c20e677bf0000000000000000000000000000000000000000000000000de0b6b3a76400000000000000000000000000000000000000000000000000000000000066d25f57ff00000000000000000000000000000000000000000000000000000000011d0300000000000000000000000000000000000000000000000000000000",
                    "decodedMethod": {
                        "callParams": [
                            {
                                "name": "_address",
                                "type": "address",
                                "value": "0xbfe698cdd477ad2000086d348e02dec67f1653c1"
                            },
                            {
                                "name": "_bytes",
                                "type": "bytes",
                                "value": "0x2f1c6b5000000000000000000000000000000000000000000000000012ec23ffcb20d2590000000000000000000000000000000000000000000000002305cac432ee6a000000000000000000000000000000000000004dc11600e5c08d96a02c20e677bf0000000000000000000000000000000000000000000000000de0b6b3a76400000000000000000000000000000000000000000000000000000000000066d25f57ff00000000000000000000000000000000000000000000000000000000011d03"
                            }
                        ],
                        "constructorArguments": "",
                        "name": "executeFFsYo",
                        "returnParams": [],
                        "signature": "executeFFsYo(address,bytes)"
                    },
                    "errorInfo": "",
                    "fromAddress": "0xbbad96336943a36e3e292d973b3382dd0ba4d1ef",
                    "gasUsed": 113350,
                    "id": 0,
                    "methodDecoded": true,
                    "operation": "CALL",
                    "output": "0x0000000000000000000000000000000000000000000000000000000000000020000000000000000000000000000000000000000000000000000000000000004000000000000000000000000000000000000000000000000012ec23ffcb20d2590000000000000000000000000000000000000000000000000000df3d4407bbd0",
                    "revert": false,
                    "revertMessage": "",
                    "selector": "0x78e111f6",
                    "status": true,
                    "value": "0.000000000013209858"
                },
                "nodeType": 0
            },
            "1": {
                "invocation": {
                    "address": "0xbfe698cdd477ad2000086d348e02dec67f1653c1",
                    "callData": "0x00000000000000000000000000000000000000000000000012ec23ffcb20d2590000000000000000000000000000000000000000000000002305cac432ee6a000000000000000000000000000000000000004dc11600e5c08d96a02c20e677bf0000000000000000000000000000000000000000000000000de0b6b3a76400000000000000000000000000000000000000000000000000000000000066d25f57ff00000000000000000000000000000000000000000000000000000000011d03",
                    "decodedMethod": null,
                    "errorInfo": "",
                    "fromAddress": "0xa69babef1ca67a37ffaf7a485dfff3382056e78c",
                    "gasUsed": 51644,
                    "id": 1,
                    "methodDecoded": false,
                    "operation": "DELEGATECALL",
                    "output": "0x00000000000000000000000000000000000000000000000012ec23ffcb20d2590000000000000000000000000000000000000000000000000000df3d4407bbd0",
                    "revert": false,
                    "revertMessage": "",
                    "selector": "0x2f1c6b50",
                    "status": true,
                    "value": "0.000000000013209858"
                },
                "nodeType": 0
            },
            "10": {
                "invocation": {
                    "address": "0xc02aaa39b223fe8d0a0e5c4f27ead9083c756cc2",
                    "callData": "0x000000000000000000000000e0554a476a092703abdb3ef35c80e0d76d32939f",
                    "decodedMethod": {
                        "callParams": [
                            {
                                "name": "",
                                "type": "address",
                                "value": "0xe0554a476a092703abdb3ef35c80e0d76d32939f"
                            }
                        ],
                        "constructorArguments": "",
                        "name": "balanceOf",
                        "returnParams": [
                            {
                                "decimalAvailable": true,
                                "name": "",
                                "type": "uint256",
                                "value": "381,126,517,327,419,348,070"
                            }
                        ],
                        "signature": "balanceOf(address)"
                    },
                    "errorInfo": "",
                    "fromAddress": "0xe0554a476a092703abdb3ef35c80e0d76d32939f",
                    "gasUsed": 534,
                    "id": 10,
                    "methodDecoded": true,
                    "operation": "STATICCALL",
                    "output": "0x000000000000000000000000000000000000000000000014a9316436e6971466",
                    "revert": false,
                    "revertMessage": "",
                    "selector": "0x70a08231",
                    "status": true,
                    "value": "0"
                },
                "nodeType": 0
            },
            "11": {
                "event": {
                    "contract": "0xe0554a476a092703abdb3ef35c80e0d76d32939f",
                    "decodedLog": {
                        "name": "Swap",
                        "params": [
                            {
                                "name": "sender",
                                "type": "address",
                                "value": "0xa69babef1ca67a37ffaf7a485dfff3382056e78c"
                            },
                            {
                                "name": "recipient",
                                "type": "address",
                                "value": "0xa69babef1ca67a37ffaf7a485dfff3382056e78c"
                            },
                            {
                                "name": "amount0",
                                "type": "int256",
                                "value": "-3,441,621,936"
                            },
                            {
                                "name": "amount1",
                                "type": "int256",
                                "value": "1,363,504,368,717,976,153"
                            },
                            {
                                "name": "sqrtPriceX96",
                                "type": "uint160",
                                "value": "1,577,013,484,309,456,716,287,039,278,001,267"
                            },
                            {
                                "name": "liquidity",
                                "type": "uint128",
                                "value": "482,115,849,440,450,706"
                            },
                            {
                                "name": "tick",
                                "type": "int24",
                                "value": "197,984"
                            }
                        ],
                        "signature": "Swap(address,address,int256,int256,uint160,uint128,int24)"
                    },
                    "id": 11,
                    "logData": "0xffffffffffffffffffffffffffffffffffffffffffffffffffffffff32dd045000000000000000000000000000000000000000000000000012ec23ffcb20d2590000000000000000000000000000000000004dc0b563f49a65847f7cb2a1ac7300000000000000000000000000000000000000000000000006b0d1cf8a7bd8920000000000000000000000000000000000000000000000000000000000030560",
                    "logDecoded": true,
                    "operation": "EVENT",
                    "revert": false,
                    "status": true,
                    "topics": [
                        "0xc42079f94a6350d7e6235f29174924f928cc2ac818eb64fed8004e115fbcca67",
                        "0x000000000000000000000000a69babef1ca67a37ffaf7a485dfff3382056e78c",
                        "0x000000000000000000000000a69babef1ca67a37ffaf7a485dfff3382056e78c"
                    ]
                },
                "nodeType": 1
            },
            "2": {
                "invocation": {
                    "address": "0xe0554a476a092703abdb3ef35c80e0d76d32939f",
                    "callData": "0x000000000000000000000000a69babef1ca67a37ffaf7a485dfff3382056e78c000000000000000000000000000000000000000000000000000000000000000000000000000000000000000000000000000000000000000012ec23ffcb20d2590000000000000000000000000000000000004dc11600e5c08d96a02c20e677bf00000000000000000000000000000000000000000000000000000000000000a0000000000000000000000000000000000000000000000000000000000000006088679ba7b1896ec1cd31228fdd1bba06a88dacb242fa04ea8ad5cf2ed2f43cea000000000000000000000000a69babef1ca67a37ffaf7a485dfff3382056e78c000000000000000000000000c02aaa39b223fe8d0a0e5c4f27ead9083c756cc2",
                    "decodedMethod": {
                        "callParams": [
                            {
                                "name": "recipient",
                                "type": "address",
                                "value": "0xa69babef1ca67a37ffaf7a485dfff3382056e78c"
                            },
                            {
                                "name": "zeroForOne",
                                "type": "bool",
                                "value": false
                            },
                            {
                                "name": "amountSpecified",
                                "type": "int256",
                                "value": "1,363,504,368,717,976,153"
                            },
                            {
                                "name": "sqrtPriceLimitX96",
                                "type": "uint160",
                                "value": "1,577,043,384,601,621,611,348,422,509,885,375"
                            },
                            {
                                "name": "data",
                                "type": "bytes",
                                "value": "0x88679ba7b1896ec1cd31228fdd1bba06a88dacb242fa04ea8ad5cf2ed2f43cea000000000000000000000000a69babef1ca67a37ffaf7a485dfff3382056e78c000000000000000000000000c02aaa39b223fe8d0a0e5c4f27ead9083c756cc2"
                            }
                        ],
                        "constructorArguments": "",
                        "name": "swap",
                        "returnParams": [
                            {
                                "name": "amount0",
                                "type": "int256",
                                "value": "-3,441,621,936"
                            },
                            {
                                "name": "amount1",
                                "type": "int256",
                                "value": "1,363,504,368,717,976,153"
                            }
                        ],
                        "signature": "swap(address,bool,int256,uint160,bytes)"
                    },
                    "errorInfo": "",
                    "fromAddress": "0xa69babef1ca67a37ffaf7a485dfff3382056e78c",
                    "gasUsed": 50256,
                    "id": 2,
                    "methodDecoded": true,
                    "operation": "CALL",
                    "output": "0xffffffffffffffffffffffffffffffffffffffffffffffffffffffff32dd045000000000000000000000000000000000000000000000000012ec23ffcb20d259",
                    "revert": false,
                    "revertMessage": "",
                    "selector": "0x128acb08",
                    "status": true,
                    "value": "0"
                },
                "nodeType": 0
            },
            "3": {
                "invocation": {
                    "address": "0xa0b86991c6218b36c1d19d4a2e9eb0ce3606eb48",
                    "callData": "0x000000000000000000000000a69babef1ca67a37ffaf7a485dfff3382056e78c00000000000000000000000000000000000000000000000000000000cd22fbb0",
                    "decodedMethod": {
                        "callParams": [
                            {
                                "name": "to",
                                "type": "address",
                                "value": "0xa69babef1ca67a37ffaf7a485dfff3382056e78c"
                            },
                            {
                                "decimalAvailable": true,
                                "name": "value",
                                "type": "uint256",
                                "value": "3,441,621,936"
                            }
                        ],
                        "constructorArguments": "",
                        "name": "transfer",
                        "returnParams": [
                            {
                                "name": "",
                                "type": "bool",
                                "value": true
                            }
                        ],
                        "signature": "transfer(address,uint256)"
                    },
                    "errorInfo": "",
                    "fromAddress": "0xe0554a476a092703abdb3ef35c80e0d76d32939f",
                    "gasUsed": 11052,
                    "id": 3,
                    "methodDecoded": true,
                    "operation": "CALL",
                    "output": "0x0000000000000000000000000000000000000000000000000000000000000001",
                    "revert": false,
                    "revertMessage": "",
                    "selector": "0xa9059cbb",
                    "status": true,
                    "value": "0"
                },
                "nodeType": 0
            },
            "4": {
                "invocation": {
                    "address": "0x43506849d7c04f9138d1a2050bbf3a0c054402dd",
                    "callData": "0x000000000000000000000000a69babef1ca67a37ffaf7a485dfff3382056e78c00000000000000000000000000000000000000000000000000000000cd22fbb0",
                    "decodedMethod": {
                        "callParams": [
                            {
                                "name": "to",
                                "type": "address",
                                "value": "0xa69babef1ca67a37ffaf7a485dfff3382056e78c"
                            },
                            {
                                "decimalAvailable": true,
                                "name": "value",
                                "type": "uint256",
                                "value": "3,441,621,936"
                            }
                        ],
                        "constructorArguments": "",
                        "name": "transfer",
                        "returnParams": [
                            {
                                "name": "",
                                "type": "bool",
                                "value": true
                            }
                        ],
                        "signature": "transfer(address,uint256)"
                    },
                    "errorInfo": "",
                    "fromAddress": "0xa0b86991c6218b36c1d19d4a2e9eb0ce3606eb48",
                    "gasUsed": 10263,
                    "id": 4,
                    "methodDecoded": true,
                    "operation": "DELEGATECALL",
                    "output": "0x0000000000000000000000000000000000000000000000000000000000000001",
                    "revert": false,
                    "revertMessage": "",
                    "selector": "0xa9059cbb",
                    "status": true,
                    "value": "0"
                },
                "nodeType": 0
            },
            "5": {
                "event": {
                    "contract": "0xa0b86991c6218b36c1d19d4a2e9eb0ce3606eb48",
                    "decodedLog": {
                        "name": "Transfer",
                        "params": [
                            {
                                "name": "from",
                                "type": "address",
                                "value": "0xe0554a476a092703abdb3ef35c80e0d76d32939f"
                            },
                            {
                                "name": "to",
                                "type": "address",
                                "value": "0xa69babef1ca67a37ffaf7a485dfff3382056e78c"
                            },
                            {
                                "decimalAvailable": true,
                                "name": "value",
                                "type": "uint256",
                                "value": "3,441,621,936"
                            }
                        ],
                        "signature": "Transfer(address,address,uint256)"
                    },
                    "id": 5,
                    "logData": "0x00000000000000000000000000000000000000000000000000000000cd22fbb0",
                    "logDecoded": true,
                    "operation": "EVENT",
                    "revert": false,
                    "status": true,
                    "topics": [
                        "0xddf252ad1be2c89b69c2b068fc378daa952ba7f163c4a11628f55a4df523b3ef",
                        "0x000000000000000000000000e0554a476a092703abdb3ef35c80e0d76d32939f",
                        "0x000000000000000000000000a69babef1ca67a37ffaf7a485dfff3382056e78c"
                    ]
                },
                "nodeType": 1
            },
            "6": {
                "invocation": {
                    "address": "0xc02aaa39b223fe8d0a0e5c4f27ead9083c756cc2",
                    "callData": "0x000000000000000000000000e0554a476a092703abdb3ef35c80e0d76d32939f",
                    "decodedMethod": {
                        "callParams": [
                            {
                                "name": "",
                                "type": "address",
                                "value": "0xe0554a476a092703abdb3ef35c80e0d76d32939f"
                            }
                        ],
                        "constructorArguments": "",
                        "name": "balanceOf",
                        "returnParams": [
                            {
                                "decimalAvailable": true,
                                "name": "",
                                "type": "uint256",
                                "value": "379,763,012,958,701,371,917"
                            }
                        ],
                        "signature": "balanceOf(address)"
                    },
                    "errorInfo": "",
                    "fromAddress": "0xe0554a476a092703abdb3ef35c80e0d76d32939f",
                    "gasUsed": 534,
                    "id": 6,
                    "methodDecoded": true,
                    "operation": "STATICCALL",
                    "output": "0x000000000000000000000000000000000000000000000014964540371b76420d",
                    "revert": false,
                    "revertMessage": "",
                    "selector": "0x70a08231",
                    "status": true,
                    "value": "0"
                },
                "nodeType": 0
            },
            "7": {
                "invocation": {
                    "address": "0xa69babef1ca67a37ffaf7a485dfff3382056e78c",
                    "callData": "0xffffffffffffffffffffffffffffffffffffffffffffffffffffffff32dd045000000000000000000000000000000000000000000000000012ec23ffcb20d2590000000000000000000000000000000000000000000000000000000000000060000000000000000000000000000000000000000000000000000000000000006088679ba7b1896ec1cd31228fdd1bba06a88dacb242fa04ea8ad5cf2ed2f43cea000000000000000000000000a69babef1ca67a37ffaf7a485dfff3382056e78c000000000000000000000000c02aaa39b223fe8d0a0e5c4f27ead9083c756cc2",
                    "decodedMethod": {
                        "callParams": [
                            {
                                "name": "amount0Delta",
                                "type": "int256",
                                "value": "-3,441,621,936"
                            },
                            {
                                "name": "amount1Delta",
                                "type": "int256",
                                "value": "1,363,504,368,717,976,153"
                            },
                            {
                                "name": "data",
                                "type": "bytes",
                                "value": "0x88679ba7b1896ec1cd31228fdd1bba06a88dacb242fa04ea8ad5cf2ed2f43cea000000000000000000000000a69babef1ca67a37ffaf7a485dfff3382056e78c000000000000000000000000c02aaa39b223fe8d0a0e5c4f27ead9083c756cc2"
                            }
                        ],
                        "constructorArguments": "",
                        "name": "uniswapV3SwapCallback",
                        "returnParams": [],
                        "signature": "uniswapV3SwapCallback(int256,int256,bytes)"
                    },
                    "errorInfo": "",
                    "fromAddress": "0xe0554a476a092703abdb3ef35c80e0d76d32939f",
                    "gasUsed": 9482,
                    "id": 7,
                    "methodDecoded": true,
                    "operation": "CALL",
                    "output": "",
                    "revert": false,
                    "revertMessage": "",
                    "selector": "0xfa461e33",
                    "status": true,
                    "value": "0"
                },
                "nodeType": 0
            },
            "8": {
                "invocation": {
                    "address": "0xc02aaa39b223fe8d0a0e5c4f27ead9083c756cc2",
                    "callData": "0x000000000000000000000000e0554a476a092703abdb3ef35c80e0d76d32939f00000000000000000000000000000000000000000000000012ec23ffcb20d259",
                    "decodedMethod": {
                        "callParams": [
                            {
                                "name": "dst",
                                "type": "address",
                                "value": "0xe0554a476a092703abdb3ef35c80e0d76d32939f"
                            },
                            {
                                "decimalAvailable": true,
                                "name": "wad",
                                "type": "uint256",
                                "value": "1,363,504,368,717,976,153"
                            }
                        ],
                        "constructorArguments": "",
                        "name": "transfer",
                        "returnParams": [
                            {
                                "name": "",
                                "type": "bool",
                                "value": true
                            }
                        ],
                        "signature": "transfer(address,uint256)"
                    },
                    "errorInfo": "",
                    "fromAddress": "0xa69babef1ca67a37ffaf7a485dfff3382056e78c",
                    "gasUsed": 8862,
                    "id": 8,
                    "methodDecoded": true,
                    "operation": "CALL",
                    "output": "0x0000000000000000000000000000000000000000000000000000000000000001",
                    "revert": false,
                    "revertMessage": "",
                    "selector": "0xa9059cbb",
                    "status": true,
                    "value": "0"
                },
                "nodeType": 0
            },
            "9": {
                "event": {
                    "contract": "0xc02aaa39b223fe8d0a0e5c4f27ead9083c756cc2",
                    "decodedLog": {
                        "name": "Transfer",
                        "params": [
                            {
                                "name": "src",
                                "type": "address",
                                "value": "0xa69babef1ca67a37ffaf7a485dfff3382056e78c"
                            },
                            {
                                "name": "dst",
                                "type": "address",
                                "value": "0xe0554a476a092703abdb3ef35c80e0d76d32939f"
                            },
                            {
                                "decimalAvailable": true,
                                "name": "wad",
                                "type": "uint256",
                                "value": "1,363,504,368,717,976,153"
                            }
                        ],
                        "signature": "Transfer(address,address,uint256)"
                    },
                    "id": 9,
                    "logData": "0x00000000000000000000000000000000000000000000000012ec23ffcb20d259",
                    "logDecoded": true,
                    "operation": "EVENT",
                    "revert": false,
                    "status": true,
                    "topics": [
                        "0xddf252ad1be2c89b69c2b068fc378daa952ba7f163c4a11628f55a4df523b3ef",
                        "0x000000000000000000000000a69babef1ca67a37ffaf7a485dfff3382056e78c",
                        "0x000000000000000000000000e0554a476a092703abdb3ef35c80e0d76d32939f"
                    ]
                },
                "nodeType": 1
            }
        },
        "gasFlame": [
            {
                "children": [
                    {
                        "children": [
                            {
                                "children": [],
                                "depth": 0,
                                "name": "Initial Gas",
                                "value": 59848
                            },
                            {
                                "children": [
                                    {
                                        "children": [
                                            {
                                                "children": [
                                                    {
                                                        "children": [
                                                            {
                                                                "children": [],
                                                                "depth": 4,
                                                                "name": "transfer",
                                                                "value": 10263
                                                            }
                                                        ],
                                                        "depth": 3,
                                                        "name": "transfer",
                                                        "value": 11052
                                                    },
                                                    {
                                                        "children": [],
                                                        "depth": 3,
                                                        "name": "balanceOf",
                                                        "value": 534
                                                    },
                                                    {
                                                        "children": [
                                                            {
                                                                "children": [],
                                                                "depth": 4,
                                                                "name": "transfer",
                                                                "value": 8862
                                                            }
                                                        ],
                                                        "depth": 3,
                                                        "name": "uniswapV3SwapCallback",
                                                        "value": 9482
                                                    },
                                                    {
                                                        "children": [],
                                                        "depth": 3,
                                                        "name": "balanceOf",
                                                        "value": 534
                                                    }
                                                ],
                                                "depth": 2,
                                                "name": "swap",
                                                "value": 50256
                                            }
                                        ],
                                        "depth": 1,
                                        "name": "0x2f1c6b50",
                                        "value": 51644
                                    }
                                ],
                                "depth": 0,
                                "name": "Executed Gas",
                                "value": 53502
                            }
                        ],
                        "depth": -1,
                        "name": "Actual Gas Used",
                        "value": 113350
                    },
                    {
                        "children": [],
                        "depth": -1,
                        "name": "Refunded Gas",
                        "value": 0
                    }
                ],
                "depth": -2,
                "name": "Total Gas",
                "value": 113350
            }
        ],
        "isConfirmed": true,
        "mainTrace": [
            {
                "children": [
                    {
                        "children": [
                            {
                                "children": [
                                    {
                                        "children": [
                                            {
                                                "children": [
                                                    {
                                                        "children": [
                                                            {
                                                                "children": [],
                                                                "depth": 5,
                                                                "id": 5,
                                                                "order": 5
                                                            }
                                                        ],
                                                        "depth": 4,
                                                        "id": 4,
                                                        "order": 4
                                                    }
                                                ],
                                                "depth": 3,
                                                "id": 3,
                                                "order": 3
                                            },
                                            {
                                                "children": [],
                                                "depth": 3,
                                                "id": 6,
                                                "order": 6
                                            },
                                            {
                                                "children": [
                                                    {
                                                        "children": [
                                                            {
                                                                "children": [],
                                                                "depth": 5,
                                                                "id": 9,
                                                                "order": 9
                                                            }
                                                        ],
                                                        "depth": 4,
                                                        "id": 8,
                                                        "order": 8
                                                    }
                                                ],
                                                "depth": 3,
                                                "id": 7,
                                                "order": 7
                                            },
                                            {
                                                "children": [],
                                                "depth": 3,
                                                "id": 10,
                                                "order": 10
                                            },
                                            {
                                                "children": [],
                                                "depth": 3,
                                                "id": 11,
                                                "order": 11
                                            }
                                        ],
                                        "depth": 2,
                                        "id": 2,
                                        "order": 2
                                    }
                                ],
                                "depth": 1,
                                "id": 1,
                                "order": 1
                            }
                        ],
                        "depth": 0,
                        "id": 0,
                        "order": 0
                    }
                ],
                "depth": -1,
                "id": -1,
                "order": -1
            }
        ],
        "mainTraceNodeCount": 12,
        "parentIdMap": {
            "0": -1,
            "1": 0,
            "10": 2,
            "11": 2,
            "2": 1,
            "3": 2,
            "4": 3,
            "5": 4,
            "6": 2,
            "7": 2,
            "8": 7,
            "9": 8
        },
        "tidyTrace": [
            {
                "children": [
                    {
                        "children": [
                            {
                                "children": [
                                    {
                                        "children": [
                                            {
                                                "children": [
                                                    {
                                                        "children": [
                                                            {
                                                                "children": [],
                                                                "depth": 5,
                                                                "id": 5,
                                                                "order": 5
                                                            }
                                                        ],
                                                        "depth": 4,
                                                        "id": 4,
                                                        "order": 4
                                                    }
                                                ],
                                                "depth": 3,
                                                "id": 3,
                                                "order": 3
                                            },
                                            {
                                                "children": [
                                                    {
                                                        "children": [
                                                            {
                                                                "children": [],
                                                                "depth": 5,
                                                                "id": 9,
                                                                "order": 9
                                                            }
                                                        ],
                                                        "depth": 4,
                                                        "id": 8,
                                                        "order": 8
                                                    }
                                                ],
                                                "depth": 3,
                                                "id": 7,
                                                "order": 7
                                            },
                                            {
                                                "children": [],
                                                "depth": 3,
                                                "id": 11,
                                                "order": 11
                                            }
                                        ],
                                        "depth": 2,
                                        "id": 2,
                                        "order": 2
                                    }
                                ],
                                "depth": 1,
                                "id": 1,
                                "order": 1
                            }
                        ],
                        "depth": 0,
                        "id": 0,
                        "order": 0
                    }
                ],
                "depth": -1,
                "id": -1,
                "order": -1
            }
        ],
        "tidyTraceNodeCount": 10
    },
    "state_change": {
        "stateChanges": [
            {
                "address": "0xa0b86991c6218b36c1d19d4a2e9eb0ce3606eb48",
                "erc": "ERC-20",
                "slots": [
                    {
                        "current": "0x0000000000000000000000000000000000000000000000000000007d3639af02",
                        "key": "0xb9f6591fc52eba3e15c8a35522a85e6d320e9084debe30399ae4770e63f89389",
                        "prev": "0x0000000000000000000000000000000000000000000000000000007e035caab2"
                    },
                    {
                        "current": "0x00000000000000000000000000000000000000000000000000001231a51de738",
                        "key": "0xf56408d23e6790fec5453738cf042a4a3ef7ec36e9ceae8978e4ffce8e903bc3",
                        "prev": "0x00000000000000000000000000000000000000000000000000001230d7faeb88"
                    }
                ],
                "storageVariables": [
                    {
                        "name": "balanceAndBlacklistStates",
                        "type": "mapping(address => uint256)",
                        "value": {
                            "pairs": [
                                {
                                    "key": "0xa69babef1ca67a37ffaf7a485dfff3382056e78c",
                                    "value": {
                                        "current": "20004432897848",
                                        "prev": "20000991275912",
                                        "typeTag": 1
                                    }
                                },
                                {
                                    "key": "0xe0554a476a092703abdb3ef35c80e0d76d32939f",
                                    "value": {
                                        "current": "537780662018",
                                        "prev": "541222283954",
                                        "typeTag": 1
                                    }
                                }
                            ],
                            "typeTag": 4
                        }
                    }
                ]
            },
            {
                "address": "0xc02aaa39b223fe8d0a0e5c4f27ead9083c756cc2",
                "erc": "ERC-20",
                "slots": [
                    {
                        "current": "0x00000000000000000000000000000000000000000000025ba8dc5979019bd452",
                        "key": "0x75245230289a9f0bf73a6c59aef6651b98b3833a62a3c0bd9ab6b0dec8ed4d8f",
                        "prev": "0x00000000000000000000000000000000000000000000025bbbc87d78ccbca6ab"
                    },
                    {
                        "current": "0x000000000000000000000000000000000000000000000014a9316436e6971466",
                        "key": "0x19b801df7d999cea8e6d7d7f7b2b0bb8ff07cb169b5922c61a5601805d4e5aa6",
                        "prev": "0x000000000000000000000000000000000000000000000014964540371b76420d"
                    }
                ],
                "storageVariables": [
                    {
                        "name": "balanceOf",
                        "type": "mapping(address => uint256)",
                        "value": {
                            "pairs": [
                                {
                                    "key": "0xa69babef1ca67a37ffaf7a485dfff3382056e78c",
                                    "value": {
                                        "current": "11135554375116360766546",
                                        "prev": "11136917879485078742699",
                                        "typeTag": 1
                                    }
                                },
                                {
                                    "key": "0xe0554a476a092703abdb3ef35c80e0d76d32939f",
                                    "value": {
                                        "current": "381126517327419348070",
                                        "prev": "379763012958701371917",
                                        "typeTag": 1
                                    }
                                }
                            ],
                            "typeTag": 4
                        }
                    }
                ]
            },
            {
                "address": "0xe0554a476a092703abdb3ef35c80e0d76d32939f",
                "erc": "",
                "slots": [
                    {
                        "current": "0x01002a700a00003386e541a6ee599b85ed3618f39600100140c200c466d25f57",
                        "key": "0x0000000000000000000000000000000000000000000000000000000000000008",
                        "prev": "0x01002a700a00003386e54194fee7380a2ee887df510010013f577c5466d25edf"
                    },
                    {
                        "current": "0x0000000000000000000000000000042e86cdf566a272247c0100b9ef1d822e88",
                        "key": "0x0000000000000000000000000000000000000000000000000000000000000002",
                        "prev": "0x0000000000000000000000000000042e86bb6c85f317fe58a66a12dc37f3a334"
                    },
                    {
                        "current": "0x0001000005000500000305600000000000004dc0b563f49a65847f7cb2a1ac73",
                        "key": "0x0000000000000000000000000000000000000000000000000000000000000000",
                        "prev": "0x00010000050005000403055d0000000000004dbde173b4b9636f1f9792649c1d"
                    }
                ],
                "storageVariables": []
            }
        ]
    }
}