{
    "balance_change": {
        "balanceChanges": []
    },
    "profile": {
        "basic_info": {
            "baseFee": "",
            "blockNumber": 4337032,
            "callData": "0x0a19b14a0000000000000000000000000000000000000000000000000000000000000000000000000000000000000000000000000000000000000000001d5cf94511900000000000000000000000000065292eeadf1426cd2df1c4793a3d7519f253913b0000000000000000000000000000000000000000000000019274b259f654000000000000000000000000000000000000000000000000000000000000004253aa00000000000000000000000000000000000000000000000000000000b6d750cd000000000000000000000000acadb04c26e202f4ccad5851233f274239f3ce43000000000000000000000000000000000000000000000000000000000000001c143a42b804a30ee154d8db90af22c48ab4f7d9bcd22349e8317a2dcea5529b7f78f7ef3e9b22eeb1bd3b0de8ff742c7e61602e800dc32b71bc0a96211e27114c0000000000000000000000000000000000000000000000000019502656065000",
            "debugEnable": true,
            "errorInfo": "invalid jump destination",
            "eventCount": 0,
            "feeRecipient": "0x2a65aca4d5fc5b5c859090a6c34d164135398226",
            "formatValue": "0",
            "gasLimit": 250000,
            "gasPrice": "8",
            "gasUsed": 250000,
            "intTxnCount": 2,
            "internalRevert": true,
            "internalRevertMessage": "",
            "isContractCreation": false,
            "isFlashloan": false,
            "maxFee": "",
            "nonce": 3,
            "overwritedBlockNumber": -1,
            "priorityFee": "",
            "receiver": "0x8d12a197cb00d4747a1fe03395095ce2a5cc6819",
            "revertMessage": "",
            "sender": "0x93046344f08b6f483cfb0e9e08bcb2982079fe7b",
            "simulationEnable": true,
            "sourceTxnHash": "0x69f01f9f03ec59ffd317dc13b38e91b2f97f26edf2042afc3a1f3dd833b6af99",
            "status": false,
            "timestamp": "2017-10-04T19:56:41Z",
            "transactionFee": "0.002",
            "txnHash": "0x69f01f9f03ec59ffd317dc13b38e91b2f97f26edf2042afc3a1f3dd833b6af99",
            "txnIndex": 40,
            "type": 0,
            "value": "0"
        },
        "fund_flow": [],
        "token_infos": [
            {
                "address": "0xeeeeeeeeeeeeeeeeeeeeeeeeeeeeeeeeeeeeeeee",
                "decimals": 18
            },
            {
                "address": "0xc02aaa39b223fe8d0a0e5c4f27ead9083c756cc2",
                "decimals": 18
            }
        ]
    },
    "address_label": {
        "labels": [
            {
                "address": "0x65292eeadf1426cd2df1c4793a3d7519f253913b",
                "label": "COSS.io: Old Token 1"
            },
            {
                "address": "0x0000000000000000000000000000000000000001",
                "label": "Precompiled"
            },
            {
                "address": "0x0000000000000000000000000000000000000003",
                "label": "Precompiled"
            },
            {
                "address": "0x0000000000000000000000000000000000000004",
                "label": "Precompiled"
            },
            {
                "address": "0xeeeeeeeeeeeeeeeeeeeeeeeeeeeeeeeeeeeeeeee",
                "label": "Ether"
            },
            {
                "address": "0x8d12a197cb00d4747a1fe03395095ce2a5cc6819",
                "label": "EtherDelta"
            },
            {
                "address": "0x0000000000000000000000000000000000000002",
                "label": "Precompiled"
            },
            {
                "address": "0x0000000000000000000000000000000000000000",
                "label": "Null Address"
            }
        ]
    },
    "trace": {
        "accountLabels": null,
        "dataMap": {
            "-1": {
                "invocation": {
                    "address": "0x93046344f08b6f483cfb0e9e08bcb2982079fe7b",
                    "callData": "",
                    "decodedMethod": null,
                    "errorInfo": "",
                    "fromAddress": "",
                    "gasUsed": 0,
                    "id": -1,
                    "methodDecoded": false,
                    "operation": "",
                    "output": "",
                    "revert": false,
                    "revertMessage": "",
                    "selector": "",
                    "status": false,
                    "value": ""
                },
                "nodeType": 0
            },
            "0": {
                "invocation": {
                    "address": "0x8d12a197cb00d4747a1fe03395095ce2a5cc6819",
                    "callData": "0x0000000000000000000000000000000000000000000000000000000000000000000000000000000000000000000000000000000000000000001d5cf94511900000000000000000000000000065292eeadf1426cd2df1c4793a3d7519f253913b0000000000000000000000000000000000000000000000019274b259f654000000000000000000000000000000000000000000000000000000000000004253aa00000000000000000000000000000000000000000000000000000000b6d750cd000000000000000000000000acadb04c26e202f4ccad5851233f274239f3ce43000000000000000000000000000000000000000000000000000000000000001c143a42b804a30ee154d8db90af22c48ab4f7d9bcd22349e8317a2dcea5529b7f78f7ef3e9b22eeb1bd3b0de8ff742c7e61602e800dc32b71bc0a96211e27114c0000000000000000000000000000000000000000000000000019502656065000",
                    "decodedMethod": {
                        "callParams": [
                            {
                                "name": "tokenGet",
                                "type": "address",
                                "value": "0x0000000000000000000000000000000000000000"
                            },
                            {
                                "name": "amountGet",
                                "type": "uint256",
                                "value": "8,265,000,000,000,000"
                            },
                            {
                                "name": "tokenGive",
                                "type": "address",
                                "value": "0x65292eeadf1426cd2df1c4793a3d7519f253913b"
                            },
                            {
                                "name": "amountGive",
                                "type": "uint256",
                                "value": "29,000,000,000,000,000,000"
                            },
                            {
                                "name": "expires",
                                "type": "uint256",
                                "value": "4,346,794"
                            },
                            {
                                "name": "nonce",
                                "type": "uint256",
                                "value": "3,067,564,237"
                            },
                            {
                                "name": "user",
                                "type": "address",
                                "value": "0xacadb04c26e202f4ccad5851233f274239f3ce43"
                            },
                            {
                                "name": "v",
                                "type": "uint8",
                                "value": "28"
                            },
                            {
                                "name": "r",
                                "type": "bytes32",
                                "value": "0x143a42b804a30ee154d8db90af22c48ab4f7d9bcd22349e8317a2dcea5529b7f"
                            },
                            {
                                "name": "s",
                                "type": "bytes32",
                                "value": "0x78f7ef3e9b22eeb1bd3b0de8ff742c7e61602e800dc32b71bc0a96211e27114c"
                            },
                            {
                                "name": "amount",
                                "type": "uint256",
                                "value": "7,125,000,000,000,000"
                            }
                        ],
                        "constructorArguments": "",
                        "name": "trade",
                        "returnParams": [],
                        "signature": "trade(address,uint256,address,uint256,uint256,uint256,address,uint8,bytes32,bytes32,uint256)"
                    },
                    "errorInfo": "invalid jump destination",
                    "fromAddress": "0x93046344f08b6f483cfb0e9e08bcb2982079fe7b",
                    "gasUsed": 250000,
                    "id": 0,
                    "methodDecoded": true,
                    "operation": "CALL",
                    "output": "",
                    "revert": true,
                    "revertMessage": "",
                    "selector": "0x0a19b14a",
                    "status": false,
                    "value": "0"
                },
                "nodeType": 0
            },
            "1": {
                "invocation": {
                    "address": "0x0000000000000000000000000000000000000002",
                    "callData": "0xcb00d4747a1fe03395095ce2a5cc68190000000000000000000000000000000000000000000000000000000000000000000000000000000000000000001d5cf94511900065292eeadf1426cd2df1c4793a3d7519f253913b0000000000000000000000000000000000000000000000019274b259f654000000000000000000000000000000000000000000000000000000000000004253aa00000000000000000000000000000000000000000000000000000000b6d750cd",
                    "decodedMethod": {
                        "callParams": [
                            {
                                "name": "data",
                                "type": "bytes",
                                "value": "0x8d12a197cb00d4747a1fe03395095ce2a5cc68190000000000000000000000000000000000000000000000000000000000000000000000000000000000000000001d5cf94511900065292eeadf1426cd2df1c4793a3d7519f253913b0000000000000000000000000000000000000000000000019274b259f654000000000000000000000000000000000000000000000000000000000000004253aa00000000000000000000000000000000000000000000000000000000b6d750cd"
                            }
                        ],
                        "constructorArguments": "",
                        "name": "sha256hash",
                        "returnParams": [
                            {
                                "name": "hash",
                                "type": "bytes32",
                                "value": "0xec06c49df888519911a85b41f2a5df8f459ba17634695abeab9cda74b40db3c9"
                            }
                        ],
                        "signature": "sha256hash(bytes)"
                    },
                    "errorInfo": "",
                    "fromAddress": "0x8d12a197cb00d4747a1fe03395095ce2a5cc6819",
                    "gasUsed": 132,
                    "id": 1,
                    "methodDecoded": true,
                    "operation": "CALL",
                    "output": "0xec06c49df888519911a85b41f2a5df8f459ba17634695abeab9cda74b40db3c9",
                    "revert": true,
                    "revertMessage": "",
                    "selector": "0x8d12a197",
                    "status": true,
                    "value": "0"
                },
                "nodeType": 0
            },
            "2": {
                "invocation": {
                    "address": "0x0000000000000000000000000000000000000001",
                    "callData": "0xea0f2c1ecf74cb2671da3d5d919a9cc862404fa5233adb2a4e26228b000000000000000000000000000000000000000000000000000000000000001c143a42b804a30ee154d8db90af22c48ab4f7d9bcd22349e8317a2dcea5529b7f78f7ef3e9b22eeb1bd3b0de8ff742c7e61602e800dc32b71bc0a96211e27114c",
                    "decodedMethod": {
                        "callParams": [
                            {
                                "name": "hash",
                                "type": "bytes32",
                                "value": "0x0f0303b7ea0f2c1ecf74cb2671da3d5d919a9cc862404fa5233adb2a4e26228b"
                            },
                            {
                                "name": "v",
                                "type": "uint256",
                                "value": "28"
                            },
                            {
                                "name": "r",
                                "type": "bytes32",
                                "value": "0x143a42b804a30ee154d8db90af22c48ab4f7d9bcd22349e8317a2dcea5529b7f"
                            },
                            {
                                "name": "s",
                                "type": "bytes32",
                                "value": "0x78f7ef3e9b22eeb1bd3b0de8ff742c7e61602e800dc32b71bc0a96211e27114c"
                            }
                        ],
                        "constructorArguments": "",
                        "name": "ecrecover",
                        "returnParams": [
                            {
                                "name": "",
                                "type": "address",
                                "value": "0xacadb04c26e202f4ccad5851233f274239f3ce43"
                            }
                        ],
                        "signature": "ecrecover(bytes32,uint256,bytes32,bytes32)"
                    },
                    "errorInfo": "",
                    "fromAddress": "0x8d12a197cb00d4747a1fe03395095ce2a5cc6819",
                    "gasUsed": 3000,
                    "id": 2,
                    "methodDecoded": true,
                    "operation": "CALL",
                    "output": "0x000000000000000000000000acadb04c26e202f4ccad5851233f274239f3ce43",
                    "revert": true,
                    "revertMessage": "",
                    "selector": "0x0f0303b7",
                    "status": true,
                    "value": "0"
                },
                "nodeType": 0
            }
        },
        "gasFlame": [
            {
                "children": [
                    {
                        "children": [
                            {
                                "children": [],
                                "depth": 0,
                                "name": "Initial Gas",
                                "value": 31064
                            },
                            {
                                "children": [
                                    {
                                        "children": [],
                                        "depth": 1,
                                        "name": "sha256hash",
                                        "value": 132
                                    },
                                    {
                                        "children": [],
                                        "depth": 1,
                                        "name": "ecrecover",
                                        "value": 3000
                                    }
                                ],
                                "depth": 0,
                                "name": "Executed Gas",
                                "value": 218936
                            }
                        ],
                        "depth": -1,
                        "name": "Actual Gas Used",
                        "value": 250000
                    },
                    {
                        "children": [],
                        "depth": -1,
                        "name": "Refunded Gas",
                        "value": 0
                    }
                ],
                "depth": -2,
                "name": "Total Gas",
                "value": 250000
            }
        ],
        "isConfirmed": true,
        "mainTrace": [
            {
                "children": [
                    {
                        "children": [
                            {
                                "children": [],
                                "depth": 1,
                                "id": 1,
                                "order": 1
                            },
                            {
                                "children": [],
                                "depth": 1,
                                "id": 2,
                                "order": 2
                            }
                        ],
                        "depth": 0,
                        "id": 0,
                        "order": 0
                    }
                ],
                "depth": -1,
                "id": -1,
                "order": -1
            }
        ],
        "mainTraceNodeCount": 3,
        "parentIdMap": {
            "0": -1,
            "1": 0,
            "2": 0
        },
        "tidyTrace": [
            {
                "children": [
                    {
                        "children": [
                            {
                                "children": [],
                                "depth": 1,
                                "id": 1,
                                "order": 1
                            },
                            {
                                "children": [],
                                "depth": 1,
                                "id": 2,
                                "order": 2
                            }
                        ],
                        "depth": 0,
                        "id": 0,
                        "order": 0
                    }
                ],
                "depth": -1,
                "id": -1,
                "order": -1
            }
        ],
        "tidyTraceNodeCount": 3
    },
    "state_change": {
        "stateChanges": []
    }
}