{
    "balance_change": {
        "balanceChanges": [
            {
                "account": "0x9696f59e4d72e237be84ffd425dcad154bf96976",
                "assets": [
                    {
                        "address": "0xdac17f958d2ee523a2206206994597c13d831ec7",
                        "amount": "109,985",
                        "iconUrl": "https://assets.blocksec.com/icon/fcea71f3193ce895be44bfdf941f7e4c9381dd587f273c2d1a27f1263d84e4ea.png",
                        "isERC1155": false,
                        "isERC721": false,
                        "sign": false,
                        "value": "110008.5016"
                    }
                ]
            },
            {
                "account": "0xcb48e236d25b099c4e80544c03d6e3f948eca4f8",
                "assets": [
                    {
                        "address": "0xdac17f958d2ee523a2206206994597c13d831ec7",
                        "amount": "109,985",
                        "iconUrl": "https://assets.blocksec.com/icon/fcea71f3193ce895be44bfdf941f7e4c9381dd587f273c2d1a27f1263d84e4ea.png",
                        "isERC1155": false,
                        "isERC721": false,
                        "sign": true,
                        "value": "110008.5016"
                    }
                ]
            }
        ]
    },
    "profile": {
        "basic_info": {
            "baseFee": "171.755422785",
            "blockNumber": 13102049,
            "callData": "0xa9059cbb000000000000000000000000cb48e236d25b099c4e80544c03d6e3f948eca4f8000000000000000000000000000000000000000000000000000000199b9dea40",
            "debugEnable": true,
            "errorInfo": "",
            "eventCount": 1,
            "feeRecipient": "0x99c85bb64564d9ef9a99621301f22c9993cb89e3",
            "formatValue": "0",
            "gasLimit": 207128,
            "gasPrice": "251",
            "gasUsed": 46121,
            "intTxnCount": 0,
            "internalRevert": false,
            "internalRevertMessage": "",
            "isContractCreation": false,
            "isFlashloan": false,
            "maxFee": "",
            "nonce": 967914,
            "overwritedBlockNumber": -1,
            "priorityFee": "",
            "receiver": "0xdac17f958d2ee523a2206206994597c13d831ec7",
            "revertMessage": "",
            "sender": "0x9696f59e4d72e237be84ffd425dcad154bf96976",
            "simulationEnable": true,
            "sourceTxnHash": "0x6984bf3b1c117c9494149665fd3d2d4546362fd1e51742706dd437c67354830f",
            "status": true,
            "timestamp": "2021-08-26T16:20:33Z",
            "transactionFee": "0.011576371",
            "txnHash": "0x6984bf3b1c117c9494149665fd3d2d4546362fd1e51742706dd437c67354830f",
            "txnIndex": 36,
            "type": 0,
            "value": "0"
        },
        "fund_flow": [
            {
                "amount": "109,985",
                "from": "0x9696f59e4d72e237be84ffd425dcad154bf96976",
                "id": 1,
                "isERC1155": false,
                "isERC721": false,
                "isReverted": false,
                "order": 1,
                "to": "0xcb48e236d25b099c4e80544c03d6e3f948eca4f8",
                "token": "0xdac17f958d2ee523a2206206994597c13d831ec7"
            }
        ],
        "token_infos": [
            {
                "address": "0xc02aaa39b223fe8d0a0e5c4f27ead9083c756cc2",
                "decimals": 18
            },
            {
                "address": "0xdac17f958d2ee523a2206206994597c13d831ec7",
                "decimals": 6
            },
            {
                "address": "0xeeeeeeeeeeeeeeeeeeeeeeeeeeeeeeeeeeeeeeee",
                "decimals": 18
            }
        ]
    },
    "address_label": {
        "labels": [
            {
                "address": "0x0000000000000000000000000000000000000004",
                "label": "Precompiled"
            },
            {
                "address": "0xeeeeeeeeeeeeeeeeeeeeeeeeeeeeeeeeeeeeeeee",
                "label": "Ether"
            },
            {
                "address": "0xdac17f958d2ee523a2206206994597c13d831ec7",
                "label": "Tether: USDT Stablecoin"
            },
            {
                "address": "0x9696f59e4d72e237be84ffd425dcad154bf96976",
                "label": "Binance 18"
            },
            {
                "address": "0x0000000000000000000000000000000000000001",
                "label": "Precompiled"
            },
            {
                "address": "0x0000000000000000000000000000000000000002",
                "label": "Precompiled"
            },
            {
                "address": "0x0000000000000000000000000000000000000003",
                "label": "Precompiled"
            }
        ]
    },
    "trace": {
        "accountLabels": null,
        "dataMap": {
            "-1": {
                "invocation": {
                    "address": "0x9696f59e4d72e237be84ffd425dcad154bf96976",
                    "callData": "",
                    "decodedMethod": null,
                    "errorInfo": "",
                    "fromAddress": "",
                    "gasUsed": 0,
                    "id": -1,
                    "methodDecoded": false,
                    "operation": "",
                    "output": "",
                    "revert": false,
                    "revertMessage": "",
                    "selector": "",
                    "status": false,
                    "value": ""
                },
                "nodeType": 0
            },
            "0": {
                "invocation": {
                    "address": "0xdac17f958d2ee523a2206206994597c13d831ec7",
                    "callData": "0x000000000000000000000000cb48e236d25b099c4e80544c03d6e3f948eca4f8000000000000000000000000000000000000000000000000000000199b9dea40",
                    "decodedMethod": {
                        "callParams": [
                            {
                                "name": "_to",
                                "type": "address",
                                "value": "0xcb48e236d25b099c4e80544c03d6e3f948eca4f8"
                            },
                            {
                                "decimalAvailable": true,
                                "name": "_value",
                                "type": "uint256",
                                "value": "109,985,000,000"
                            }
                        ],
                        "constructorArguments": "",
                        "name": "transfer",
                        "returnParams": [],
                        "signature": "transfer(address,uint256)"
                    },
                    "errorInfo": "",
                    "fromAddress": "0x9696f59e4d72e237be84ffd425dcad154bf96976",
                    "gasUsed": 46121,
                    "id": 0,
                    "methodDecoded": true,
                    "operation": "CALL",
                    "output": "",
                    "revert": false,
                    "revertMessage": "",
                    "selector": "0xa9059cbb",
                    "status": true,
                    "value": "0"
                },
                "nodeType": 0
            },
            "1": {
                "event": {
                    "contract": "0xdac17f958d2ee523a2206206994597c13d831ec7",
                    "decodedLog": {
                        "name": "Transfer",
                        "params": [
                            {
                                "name": "from",
                                "type": "address",
                                "value": "0x9696f59e4d72e237be84ffd425dcad154bf96976"
                            },
                            {
                                "name": "to",
                                "type": "address",
                                "value": "0xcb48e236d25b099c4e80544c03d6e3f948eca4f8"
                            },
                            {
                                "decimalAvailable": true,
                                "name": "value",
                                "type": "uint256",
                                "value": "109,985,000,000"
                            }
                        ],
                        "signature": "Transfer(address,address,uint256)"
                    },
                    "id": 1,
                    "logData": "0x000000000000000000000000000000000000000000000000000000199b9dea40",
                    "logDecoded": true,
                    "operation": "EVENT",
                    "revert": false,
                    "status": true,
                    "topics": [
                        "0xddf252ad1be2c89b69c2b068fc378daa952ba7f163c4a11628f55a4df523b3ef",
                        "0x0000000000000000000000009696f59e4d72e237be84ffd425dcad154bf96976",
                        "0x000000000000000000000000cb48e236d25b099c4e80544c03d6e3f948eca4f8"
                    ]
                },
                "nodeType": 1
            }
        },
        "gasFlame": [
            {
                "children": [
                    {
                        "children": [
                            {
                                "children": [],
                                "depth": 0,
                                "name": "Initial Gas",
                                "value": 21620
                            },
                            {
                                "children": [],
                                "depth": 0,
                                "name": "Executed Gas",
                                "value": 24501
                            }
                        ],
                        "depth": -1,
                        "name": "Actual Gas Used",
                        "value": 46121
                    },
                    {
                        "children": [],
                        "depth": -1,
                        "name": "Refunded Gas",
                        "value": 0
                    }
                ],
                "depth": -2,
                "name": "Total Gas",
                "value": 46121
            }
        ],
        "isConfirmed": true,
        "mainTrace": [
            {
                "children": [
                    {
                        "children": [
                            {
                                "children": [],
                                "depth": 1,
                                "id": 1,
                                "order": 1
                            }
                        ],
                        "depth": 0,
                        "id": 0,
                        "order": 0
                    }
                ],
                "depth": -1,
                "id": -1,
                "order": -1
            }
        ],
        "mainTraceNodeCount": 2,
        "parentIdMap": {
            "0": -1,
            "1": 0
        },
        "tidyTrace": [
            {
                "children": [
                    {
                        "children": [
                            {
                                "children": [],
                                "depth": 1,
                                "id": 1,
                                "order": 1
                            }
                        ],
                        "depth": 0,
                        "id": 0,
                        "order": 0
                    }
                ],
                "depth": -1,
                "id": -1,
                "order": -1
            }
        ],
        "tidyTraceNodeCount": 2
    },
    "state_change": {
        "stateChanges": [
            {
                "address": "0xdac17f958d2ee523a2206206994597c13d831ec7",
                "erc": "ERC-20",
                "slots": [
                    {
                        "current": "0x0000000000000000000000000000000000000000000000000000606ef452f3fc",
                        "key": "0xff2acf1040b8375aae9ffa186abdb003c9aec45e162f5b564ab4bc02ff148678",
                        "prev": "0x000000000000000000000000000000000000000000000000000060888ff0de3c"
                    },
                    {
                        "current": "0x00000000000000000000000000000000000000000000000000000045d79af480",
                        "key": "0x574b866ad4160fb620d8e91dfc818530f2482bd1ddff0e38b9ee7d9ddb4f92a2",
                        "prev": "0x0000000000000000000000000000000000000000000000000000002c3bfd0a40"
                    }
                ],
                "storageVariables": [
                    {
                        "name": "balances",
                        "type": "mapping(address => uint256)",
                        "value": {
                            "pairs": [
                                {
                                    "key": "0x9696f59e4d72e237be84ffd425dcad154bf96976",
                                    "value": {
                                        "current": "106029661746172",
                                        "prev": "106139646746172",
                                        "typeTag": 1
                                    }
                                },
                                {
                                    "key": "0xcb48e236d25b099c4e80544c03d6e3f948eca4f8",
                                    "value": {
                                        "current": "299970000000",
                                        "prev": "189985000000",
                                        "typeTag": 1
                                    }
                                }
                            ],
                            "typeTag": 4
                        }
                    }
                ]
            }
        ]
    }
}