{
    "balance_change": {
        "balanceChanges": [
            {
                "account": "0xa6a688f107851131f0e1dce493ebbebfaf99203e",
                "assets": [
                    {
                        "address": "0xa0b86991c6218b36c1d19d4a2e9eb0ce3606eb48",
                        "amount": "6.836123",
                        "iconUrl": "https://assets.blocksec.com/icon/0347a86cc07dbd03fdc5db01a4e5ac7e1217f90e0b6e4bb0f75cbcca09160989.png",
                        "isERC1155": false,
                        "isERC721": false,
                        "sign": true,
                        "value": "6.836123"
                    }
                ]
            },
            {
                "account": "0x3666f603cc164936c1b87e207f36beba4ac5f18a",
                "assets": [
                    {
                        "address": "0xa0b86991c6218b36c1d19d4a2e9eb0ce3606eb48",
                        "amount": "3,855.876063",
                        "iconUrl": "https://assets.blocksec.com/icon/0347a86cc07dbd03fdc5db01a4e5ac7e1217f90e0b6e4bb0f75cbcca09160989.png",
                        "isERC1155": false,
                        "isERC721": false,
                        "sign": false,
                        "value": "3855.876063"
                    }
                ]
            },
            {
                "account": "0x41374b389772d5aed41240a57f5ffb087c6bfa93",
                "assets": [
                    {
                        "address": "0xa0b86991c6218b36c1d19d4a2e9eb0ce3606eb48",
                        "amount": "3,849.03994",
                        "iconUrl": "https://assets.blocksec.com/icon/0347a86cc07dbd03fdc5db01a4e5ac7e1217f90e0b6e4bb0f75cbcca09160989.png",
                        "isERC1155": false,
                        "isERC721": false,
                        "sign": true,
                        "value": "3849.03994"
                    }
                ]
            }
        ]
    },
    "profile": {
        "basic_info": {
            "baseFee": "5.515003828",
            "blockNumber": 15664065,
            "callData": "0x23c452cd00000000000000000000000041374b389772d5aed41240a57f5ffb087c6bfa9300000000000000000000000000000000000000000000000000000000e5d3ffdf026a389d6ae5c9a22ee74a46e86da524eeda8c1fa0cc05393673d9102219ca0f0000000000000000000000000000000000000000000000000000000000684f9b",
            "debugEnable": true,
            "errorInfo": "",
            "eventCount": 3,
            "feeRecipient": "0xdafea492d9c6733ae3d56b7ed1adb60692c98bc5",
            "formatValue": "0",
            "gasLimit": 500000,
            "gasPrice": "9.515003828",
            "gasUsed": 142896,
            "intTxnCount": 4,
            "internalRevert": false,
            "internalRevertMessage": "",
            "isContractCreation": false,
            "isFlashloan": false,
            "maxFee": "16.818525742",
            "nonce": 34834,
            "overwritedBlockNumber": -1,
            "priorityFee": "4",
            "receiver": "0x3666f603cc164936c1b87e207f36beba4ac5f18a",
            "revertMessage": "",
            "sender": "0xa6a688f107851131f0e1dce493ebbebfaf99203e",
            "simulationEnable": true,
            "sourceTxnHash": "0x6991287270d1c9f898953d039109c4c39504526a92afa576d0f0f18d4de40473",
            "status": true,
            "timestamp": "2022-10-03T00:31:59Z",
            "transactionFee": "0.001359655987005888",
            "txnHash": "0x6991287270d1c9f898953d039109c4c39504526a92afa576d0f0f18d4de40473",
            "txnIndex": 10,
            "type": 2,
            "value": "0"
        },
        "fund_flow": [
            {
                "amount": "3,849.03994",
                "from": "0x3666f603cc164936c1b87e207f36beba4ac5f18a",
                "id": 1,
                "isERC1155": false,
                "isERC721": false,
                "isReverted": false,
                "order": 1,
                "to": "0x41374b389772d5aed41240a57f5ffb087c6bfa93",
                "token": "0xa0b86991c6218b36c1d19d4a2e9eb0ce3606eb48"
            },
            {
                "amount": "6.836123",
                "from": "0x3666f603cc164936c1b87e207f36beba4ac5f18a",
                "id": 2,
                "isERC1155": false,
                "isERC721": false,
                "isReverted": false,
                "order": 2,
                "to": "0xa6a688f107851131f0e1dce493ebbebfaf99203e",
                "token": "0xa0b86991c6218b36c1d19d4a2e9eb0ce3606eb48"
            }
        ],
        "token_infos": [
            {
                "address": "0xa0b86991c6218b36c1d19d4a2e9eb0ce3606eb48",
                "decimals": 6
            },
            {
                "address": "0xc02aaa39b223fe8d0a0e5c4f27ead9083c756cc2",
                "decimals": 18
            },
            {
                "address": "0xeeeeeeeeeeeeeeeeeeeeeeeeeeeeeeeeeeeeeeee",
                "decimals": 18
            }
        ]
    },
    "address_label": {
        "labels": [
            {
                "address": "0xeeeeeeeeeeeeeeeeeeeeeeeeeeeeeeeeeeeeeeee",
                "label": "Ether"
            },
            {
                "address": "0xa2327a938febf5fec13bacfb16ae10ecbc4cbdcf",
                "label": "FiatTokenV2_1"
            },
            {
                "address": "0xa6a688f107851131f0e1dce493ebbebfaf99203e",
                "label": "Hop Protocol: USDC Bonder"
            },
            {
                "address": "0xa0b86991c6218b36c1d19d4a2e9eb0ce3606eb48",
                "label": "Circle: USDC Token"
            },
            {
                "address": "0x0000000000000000000000000000000000000001",
                "label": "Precompiled"
            },
            {
                "address": "0x0000000000000000000000000000000000000002",
                "label": "Precompiled"
            },
            {
                "address": "0x3666f603cc164936c1b87e207f36beba4ac5f18a",
                "label": "Hop Protocol: USDC Bridge"
            },
            {
                "address": "0x0000000000000000000000000000000000000003",
                "label": "Precompiled"
            },
            {
                "address": "0x0000000000000000000000000000000000000004",
                "label": "Precompiled"
            }
        ]
    },
    "trace": {
        "accountLabels": null,
        "dataMap": {
            "-1": {
                "invocation": {
                    "address": "0xa6a688f107851131f0e1dce493ebbebfaf99203e",
                    "callData": "",
                    "decodedMethod": null,
                    "errorInfo": "",
                    "fromAddress": "",
                    "gasUsed": 0,
                    "id": -1,
                    "methodDecoded": false,
                    "operation": "",
                    "output": "",
                    "revert": false,
                    "revertMessage": "",
                    "selector": "",
                    "status": false,
                    "value": ""
                },
                "nodeType": 0
            },
            "0": {
                "invocation": {
                    "address": "0x3666f603cc164936c1b87e207f36beba4ac5f18a",
                    "callData": "0x00000000000000000000000041374b389772d5aed41240a57f5ffb087c6bfa9300000000000000000000000000000000000000000000000000000000e5d3ffdf026a389d6ae5c9a22ee74a46e86da524eeda8c1fa0cc05393673d9102219ca0f0000000000000000000000000000000000000000000000000000000000684f9b",
                    "decodedMethod": {
                        "callParams": [
                            {
                                "name": "recipient",
                                "type": "address",
                                "value": "0x41374b389772d5aed41240a57f5ffb087c6bfa93"
                            },
                            {
                                "name": "amount",
                                "type": "uint256",
                                "value": "3,855,876,063"
                            },
                            {
                                "name": "transferNonce",
                                "type": "bytes32",
                                "value": "0x026a389d6ae5c9a22ee74a46e86da524eeda8c1fa0cc05393673d9102219ca0f"
                            },
                            {
                                "name": "bonderFee",
                                "type": "uint256",
                                "value": "6,836,123"
                            }
                        ],
                        "constructorArguments": "",
                        "name": "bondWithdrawal",
                        "returnParams": [],
                        "signature": "bondWithdrawal(address,uint256,bytes32,uint256)"
                    },
                    "errorInfo": "",
                    "fromAddress": "0xa6a688f107851131f0e1dce493ebbebfaf99203e",
                    "gasUsed": 142896,
                    "id": 0,
                    "methodDecoded": true,
                    "operation": "CALL",
                    "output": "",
                    "revert": false,
                    "revertMessage": "",
                    "selector": "0x23c452cd",
                    "status": true,
                    "value": "0"
                },
                "nodeType": 0
            },
            "1": {
                "event": {
                    "contract": "0x3666f603cc164936c1b87e207f36beba4ac5f18a",
                    "decodedLog": {
                        "name": "WithdrawalBonded",
                        "params": [
                            {
                                "name": "transferId",
                                "type": "bytes32",
                                "value": "0x1f703ad6ba5b860e4fb8843b6ef400aae5d452b5a61777a630478abf89060789"
                            },
                            {
                                "name": "amount",
                                "type": "uint256",
                                "value": "3,855,876,063"
                            }
                        ],
                        "signature": "WithdrawalBonded(bytes32,uint256)"
                    },
                    "id": 1,
                    "logData": "0x00000000000000000000000000000000000000000000000000000000e5d3ffdf",
                    "logDecoded": true,
                    "operation": "EVENT",
                    "revert": false,
                    "status": true,
                    "topics": [
                        "0x0c3d250c7831051e78aa6a56679e590374c7c424415ffe4aa474491def2fe705",
                        "0x1f703ad6ba5b860e4fb8843b6ef400aae5d452b5a61777a630478abf89060789"
                    ]
                },
                "nodeType": 1
            },
            "2": {
                "invocation": {
                    "address": "0xa0b86991c6218b36c1d19d4a2e9eb0ce3606eb48",
                    "callData": "0x00000000000000000000000041374b389772d5aed41240a57f5ffb087c6bfa9300000000000000000000000000000000000000000000000000000000e56bb044",
                    "decodedMethod": {
                        "callParams": [
                            {
                                "name": "to",
                                "type": "address",
                                "value": "0x41374b389772d5aed41240a57f5ffb087c6bfa93"
                            },
                            {
                                "decimalAvailable": true,
                                "name": "value",
                                "type": "uint256",
                                "value": "3,849,039,940"
                            }
                        ],
                        "constructorArguments": "",
                        "name": "transfer",
                        "returnParams": [
                            {
                                "name": "",
                                "type": "bool",
                                "value": true
                            }
                        ],
                        "signature": "transfer(address,uint256)"
                    },
                    "errorInfo": "",
                    "fromAddress": "0x3666f603cc164936c1b87e207f36beba4ac5f18a",
                    "gasUsed": 26917,
                    "id": 2,
                    "methodDecoded": true,
                    "operation": "CALL",
                    "output": "0x0000000000000000000000000000000000000000000000000000000000000001",
                    "revert": false,
                    "revertMessage": "",
                    "selector": "0xa9059cbb",
                    "status": true,
                    "value": "0"
                },
                "nodeType": 0
            },
            "3": {
                "invocation": {
                    "address": "0xa2327a938febf5fec13bacfb16ae10ecbc4cbdcf",
                    "callData": "0x00000000000000000000000041374b389772d5aed41240a57f5ffb087c6bfa9300000000000000000000000000000000000000000000000000000000e56bb044",
                    "decodedMethod": {
                        "callParams": [
                            {
                                "name": "to",
                                "type": "address",
                                "value": "0x41374b389772d5aed41240a57f5ffb087c6bfa93"
                            },
                            {
                                "decimalAvailable": true,
                                "name": "value",
                                "type": "uint256",
                                "value": "3,849,039,940"
                            }
                        ],
                        "constructorArguments": "",
                        "name": "transfer",
                        "returnParams": [
                            {
                                "name": "",
                                "type": "bool",
                                "value": true
                            }
                        ],
                        "signature": "transfer(address,uint256)"
                    },
                    "errorInfo": "",
                    "fromAddress": "0xa0b86991c6218b36c1d19d4a2e9eb0ce3606eb48",
                    "gasUsed": 19628,
                    "id": 3,
                    "methodDecoded": true,
                    "operation": "DELEGATECALL",
                    "output": "0x0000000000000000000000000000000000000000000000000000000000000001",
                    "revert": false,
                    "revertMessage": "",
                    "selector": "0xa9059cbb",
                    "status": true,
                    "value": "0"
                },
                "nodeType": 0
            },
            "4": {
                "event": {
                    "contract": "0xa0b86991c6218b36c1d19d4a2e9eb0ce3606eb48",
                    "decodedLog": {
                        "name": "Transfer",
                        "params": [
                            {
                                "name": "from",
                                "type": "address",
                                "value": "0x3666f603cc164936c1b87e207f36beba4ac5f18a"
                            },
                            {
                                "name": "to",
                                "type": "address",
                                "value": "0x41374b389772d5aed41240a57f5ffb087c6bfa93"
                            },
                            {
                                "decimalAvailable": true,
                                "name": "value",
                                "type": "uint256",
                                "value": "3,849,039,940"
                            }
                        ],
                        "signature": "Transfer(address,address,uint256)"
                    },
                    "id": 4,
                    "logData": "0x00000000000000000000000000000000000000000000000000000000e56bb044",
                    "logDecoded": true,
                    "operation": "EVENT",
                    "revert": false,
                    "status": true,
                    "topics": [
                        "0xddf252ad1be2c89b69c2b068fc378daa952ba7f163c4a11628f55a4df523b3ef",
                        "0x0000000000000000000000003666f603cc164936c1b87e207f36beba4ac5f18a",
                        "0x00000000000000000000000041374b389772d5aed41240a57f5ffb087c6bfa93"
                    ]
                },
                "nodeType": 1
            },
            "5": {
                "invocation": {
                    "address": "0xa0b86991c6218b36c1d19d4a2e9eb0ce3606eb48",
                    "callData": "0x000000000000000000000000a6a688f107851131f0e1dce493ebbebfaf99203e0000000000000000000000000000000000000000000000000000000000684f9b",
                    "decodedMethod": {
                        "callParams": [
                            {
                                "name": "to",
                                "type": "address",
                                "value": "0xa6a688f107851131f0e1dce493ebbebfaf99203e"
                            },
                            {
                                "decimalAvailable": true,
                                "name": "value",
                                "type": "uint256",
                                "value": "6,836,123"
                            }
                        ],
                        "constructorArguments": "",
                        "name": "transfer",
                        "returnParams": [
                            {
                                "name": "",
                                "type": "bool",
                                "value": true
                            }
                        ],
                        "signature": "transfer(address,uint256)"
                    },
                    "errorInfo": "",
                    "fromAddress": "0x3666f603cc164936c1b87e207f36beba4ac5f18a",
                    "gasUsed": 11617,
                    "id": 5,
                    "methodDecoded": true,
                    "operation": "CALL",
                    "output": "0x0000000000000000000000000000000000000000000000000000000000000001",
                    "revert": false,
                    "revertMessage": "",
                    "selector": "0xa9059cbb",
                    "status": true,
                    "value": "0"
                },
                "nodeType": 0
            },
            "6": {
                "invocation": {
                    "address": "0xa2327a938febf5fec13bacfb16ae10ecbc4cbdcf",
                    "callData": "0x000000000000000000000000a6a688f107851131f0e1dce493ebbebfaf99203e0000000000000000000000000000000000000000000000000000000000684f9b",
                    "decodedMethod": {
                        "callParams": [
                            {
                                "name": "to",
                                "type": "address",
                                "value": "0xa6a688f107851131f0e1dce493ebbebfaf99203e"
                            },
                            {
                                "decimalAvailable": true,
                                "name": "value",
                                "type": "uint256",
                                "value": "6,836,123"
                            }
                        ],
                        "constructorArguments": "",
                        "name": "transfer",
                        "returnParams": [
                            {
                                "name": "",
                                "type": "bool",
                                "value": true
                            }
                        ],
                        "signature": "transfer(address,uint256)"
                    },
                    "errorInfo": "",
                    "fromAddress": "0xa0b86991c6218b36c1d19d4a2e9eb0ce3606eb48",
                    "gasUsed": 10828,
                    "id": 6,
                    "methodDecoded": true,
                    "operation": "DELEGATECALL",
                    "output": "0x0000000000000000000000000000000000000000000000000000000000000001",
                    "revert": false,
                    "revertMessage": "",
                    "selector": "0xa9059cbb",
                    "status": true,
                    "value": "0"
                },
                "nodeType": 0
            },
            "7": {
                "event": {
                    "contract": "0xa0b86991c6218b36c1d19d4a2e9eb0ce3606eb48",
                    "decodedLog": {
                        "name": "Transfer",
                        "params": [
                            {
                                "name": "from",
                                "type": "address",
                                "value": "0x3666f603cc164936c1b87e207f36beba4ac5f18a"
                            },
                            {
                                "name": "to",
                                "type": "address",
                                "value": "0xa6a688f107851131f0e1dce493ebbebfaf99203e"
                            },
                            {
                                "decimalAvailable": true,
                                "name": "value",
                                "type": "uint256",
                                "value": "6,836,123"
                            }
                        ],
                        "signature": "Transfer(address,address,uint256)"
                    },
                    "id": 7,
                    "logData": "0x0000000000000000000000000000000000000000000000000000000000684f9b",
                    "logDecoded": true,
                    "operation": "EVENT",
                    "revert": false,
                    "status": true,
                    "topics": [
                        "0xddf252ad1be2c89b69c2b068fc378daa952ba7f163c4a11628f55a4df523b3ef",
                        "0x0000000000000000000000003666f603cc164936c1b87e207f36beba4ac5f18a",
                        "0x000000000000000000000000a6a688f107851131f0e1dce493ebbebfaf99203e"
                    ]
                },
                "nodeType": 1
            }
        },
        "gasFlame": [
            {
                "children": [
                    {
                        "children": [
                            {
                                "children": [],
                                "depth": 0,
                                "name": "Initial Gas",
                                "value": 22284
                            },
                            {
                                "children": [
                                    {
                                        "children": [
                                            {
                                                "children": [],
                                                "depth": 2,
                                                "name": "transfer",
                                                "value": 19628
                                            }
                                        ],
                                        "depth": 1,
                                        "name": "transfer",
                                        "value": 26917
                                    },
                                    {
                                        "children": [
                                            {
                                                "children": [],
                                                "depth": 2,
                                                "name": "transfer",
                                                "value": 10828
                                            }
                                        ],
                                        "depth": 1,
                                        "name": "transfer",
                                        "value": 11617
                                    }
                                ],
                                "depth": 0,
                                "name": "Executed Gas",
                                "value": 123412
                            }
                        ],
                        "depth": -1,
                        "name": "Actual Gas Used",
                        "value": 142896
                    },
                    {
                        "children": [],
                        "depth": -1,
                        "name": "Refunded Gas",
                        "value": 2800
                    }
                ],
                "depth": -2,
                "name": "Total Gas",
                "value": 145696
            }
        ],
        "isConfirmed": true,
        "mainTrace": [
            {
                "children": [
                    {
                        "children": [
                            {
                                "children": [],
                                "depth": 1,
                                "id": 1,
                                "order": 1
                            },
                            {
                                "children": [
                                    {
                                        "children": [
                                            {
                                                "children": [],
                                                "depth": 3,
                                                "id": 4,
                                                "order": 4
                                            }
                                        ],
                                        "depth": 2,
                                        "id": 3,
                                        "order": 3
                                    }
                                ],
                                "depth": 1,
                                "id": 2,
                                "order": 2
                            },
                            {
                                "children": [
                                    {
                                        "children": [
                                            {
                                                "children": [],
                                                "depth": 3,
                                                "id": 7,
                                                "order": 7
                                            }
                                        ],
                                        "depth": 2,
                                        "id": 6,
                                        "order": 6
                                    }
                                ],
                                "depth": 1,
                                "id": 5,
                                "order": 5
                            }
                        ],
                        "depth": 0,
                        "id": 0,
                        "order": 0
                    }
                ],
                "depth": -1,
                "id": -1,
                "order": -1
            }
        ],
        "mainTraceNodeCount": 8,
        "parentIdMap": {
            "0": -1,
            "1": 0,
            "2": 0,
            "3": 2,
            "4": 3,
            "5": 0,
            "6": 5,
            "7": 6
        },
        "tidyTrace": [
            {
                "children": [
                    {
                        "children": [
                            {
                                "children": [],
                                "depth": 1,
                                "id": 1,
                                "order": 1
                            },
                            {
                                "children": [
                                    {
                                        "children": [
                                            {
                                                "children": [],
                                                "depth": 3,
                                                "id": 4,
                                                "order": 4
                                            }
                                        ],
                                        "depth": 2,
                                        "id": 3,
                                        "order": 3
                                    }
                                ],
                                "depth": 1,
                                "id": 2,
                                "order": 2
                            },
                            {
                                "children": [
                                    {
                                        "children": [
                                            {
                                                "children": [],
                                                "depth": 3,
                                                "id": 7,
                                                "order": 7
                                            }
                                        ],
                                        "depth": 2,
                                        "id": 6,
                                        "order": 6
                                    }
                                ],
                                "depth": 1,
                                "id": 5,
                                "order": 5
                            }
                        ],
                        "depth": 0,
                        "id": 0,
                        "order": 0
                    }
                ],
                "depth": -1,
                "id": -1,
                "order": -1
            }
        ],
        "tidyTraceNodeCount": 8
    },
    "state_change": {
        "stateChanges": [
            {
                "address": "0x3666f603cc164936c1b87e207f36beba4ac5f18a",
                "erc": "",
                "slots": [
                    {
                        "current": "0x00000000000000000000000000000000000000000000000000013a21b71aa9f0",
                        "key": "0x0488d1259f5b0eeca572b7c475e145f66e062e98b11b7292dc1aab644b219e33",
                        "prev": "0x00000000000000000000000000000000000000000000000000013a20d146aa11"
                    },
                    {
                        "current": "0x00000000000000000000000000000000000000000000000000000000e5d3ffdf",
                        "key": "0x8d21d1c71661267839d4bfd4756d44a3c79f55ec05d758da9aac68912e6d1430",
                        "prev": "0x0000000000000000000000000000000000000000000000000000000000000000"
                    },
                    {
                        "current": "0x0000000000000000000000000000000000000000000000000000000000000001",
                        "key": "0xef5cd0279ef3f002ef5d27f00af4c02dbaede5920634d72053282f59c896e766",
                        "prev": "0x0000000000000000000000000000000000000000000000000000000000000000"
                    }
                ],
                "storageVariables": [
                    {
                        "name": "_debit",
                        "type": "mapping(address => uint256)",
                        "value": {
                            "pairs": [
                                {
                                    "key": "0xa6a688f107851131f0e1dce493ebbebfaf99203e",
                                    "value": {
                                        "current": "345391457020400",
                                        "prev": "345387601144337",
                                        "typeTag": 1
                                    }
                                }
                            ],
                            "typeTag": 4
                        }
                    },
                    {
                        "name": "_bondedWithdrawalAmounts",
                        "type": "mapping(address => mapping(bytes32 => uint256))",
                        "value": {
                            "pairs": [
                                {
                                    "key": "0xa6a688f107851131f0e1dce493ebbebfaf99203e",
                                    "value": {
                                        "pairs": [
                                            {
                                                "key": "0x1f703ad6ba5b860e4fb8843b6ef400aae5d452b5a61777a630478abf89060789",
                                                "value": {
                                                    "current": "3855876063",
                                                    "prev": "0",
                                                    "typeTag": 1
                                                }
                                            }
                                        ],
                                        "typeTag": 4
                                    }
                                }
                            ],
                            "typeTag": 4
                        }
                    },
                    {
                        "name": "_spentTransferIds",
                        "type": "mapping(bytes32 => bool)",
                        "value": {
                            "pairs": [
                                {
                                    "key": "0x1f703ad6ba5b860e4fb8843b6ef400aae5d452b5a61777a630478abf89060789",
                                    "value": {
                                        "current": "true",
                                        "prev": "false",
                                        "typeTag": 1
                                    }
                                }
                            ],
                            "typeTag": 4
                        }
                    }
                ]
            },
            {
                "address": "0xa0b86991c6218b36c1d19d4a2e9eb0ce3606eb48",
                "erc": "ERC-20",
                "slots": [
                    {
                        "current": "0x000000000000000000000000000000000000000000000000000000024a53f6e6",
                        "key": "0xb2452dbb69de635958e34f68a44b0201d877f4a104541f4711c80d781552f927",
                        "prev": "0x0000000000000000000000000000000000000000000000000000000164e846a2"
                    },
                    {
                        "current": "0x000000000000000000000000000000000000000000000000000009155394260c",
                        "key": "0xad9296a827070c6254b370f3267a18383a5197b1c3560d6e953867f403068ad9",
                        "prev": "0x00000000000000000000000000000000000000000000000000000916396825eb"
                    },
                    {
                        "current": "0x00000000000000000000000000000000000000000000000000000029fe624819",
                        "key": "0xd593e63dd5423acf9482de8662944a660bfe2ab2f165cd00696369b35d4e4355",
                        "prev": "0x00000000000000000000000000000000000000000000000000000029fdf9f87e"
                    }
                ],
                "storageVariables": [
                    {
                        "name": "balances",
                        "type": "mapping(address => uint256)",
                        "value": {
                            "pairs": [
                                {
                                    "key": "0x3666f603cc164936c1b87e207f36beba4ac5f18a",
                                    "value": {
                                        "current": "9987201181196",
                                        "prev": "9991057057259",
                                        "typeTag": 1
                                    }
                                },
                                {
                                    "key": "0x41374b389772d5aed41240a57f5ffb087c6bfa93",
                                    "value": {
                                        "current": "9836951270",
                                        "prev": "5987911330",
                                        "typeTag": 1
                                    }
                                },
                                {
                                    "key": "0xa6a688f107851131f0e1dce493ebbebfaf99203e",
                                    "value": {
                                        "current": "180361512985",
                                        "prev": "180354676862",
                                        "typeTag": 1
                                    }
                                }
                            ],
                            "typeTag": 4
                        }
                    }
                ]
            }
        ]
    }
}