{
    "balance_change": {
        "balanceChanges": [
            {
                "account": "0x1090d3436a7e4498d9b04c5f37585bc6dbd715c9",
                "assets": [
                    {
                        "address": "0x744d70fdbe2ba4cf95131626614a1763df805b9e",
                        "amount": "2,971.739478781837705603",
                        "iconUrl": "https://assets.blocksec.com/icon/122cbce3f18317d2e72ada02bb0ad90b741b42246dc91c7b27b8eb5443557bd4.png",
                        "isERC1155": false,
                        "isERC721": false,
                        "sign": false,
                        "value": ""
                    }
                ]
            },
            {
                "account": "0x20aa2176720743c386b4c0e54ff02d8b12324a60",
                "assets": [
                    {
                        "address": "0x744d70fdbe2ba4cf95131626614a1763df805b9e",
                        "amount": "2,971.739478781837705603",
                        "iconUrl": "https://assets.blocksec.com/icon/122cbce3f18317d2e72ada02bb0ad90b741b42246dc91c7b27b8eb5443557bd4.png",
                        "isERC1155": false,
                        "isERC721": false,
                        "sign": true,
                        "value": ""
                    }
                ]
            }
        ]
    },
    "profile": {
        "basic_info": {
            "baseFee": "",
            "blockNumber": 5708793,
            "callData": "0xa9059cbb00000000000000000000000020aa2176720743c386b4c0e54ff02d8b12324a600000000000000000000000000000000000000000000000a1192b7f0063ec0183",
            "debugEnable": true,
            "errorInfo": "",
            "eventCount": 1,
            "feeRecipient": "0x5a0b54d5dc17e0aadc383d2db43b0a0d3e029c4c",
            "formatValue": "0",
            "gasLimit": 103563,
            "gasPrice": "41",
            "gasUsed": 103563,
            "intTxnCount": 1,
            "internalRevert": false,
            "internalRevertMessage": "",
            "isContractCreation": false,
            "isFlashloan": false,
            "maxFee": "",
            "nonce": 30,
            "overwritedBlockNumber": -1,
            "priorityFee": "",
            "receiver": "0x744d70fdbe2ba4cf95131626614a1763df805b9e",
            "revertMessage": "",
            "sender": "0x1090d3436a7e4498d9b04c5f37585bc6dbd715c9",
            "simulationEnable": true,
            "sourceTxnHash": "0x697ae8fc3a6036e2374b43584fa5921826c920a82bbffe30a23fbfe75ad2714e",
            "status": true,
            "timestamp": "2018-05-31T14:47:11Z",
            "transactionFee": "0.004246083",
            "txnHash": "0x697ae8fc3a6036e2374b43584fa5921826c920a82bbffe30a23fbfe75ad2714e",
            "txnIndex": 16,
            "type": 0,
            "value": "0"
        },
        "fund_flow": [
            {
                "amount": "2,971.739478781837705603",
                "from": "0x1090d3436a7e4498d9b04c5f37585bc6dbd715c9",
                "id": 1,
                "isERC1155": false,
                "isERC721": false,
                "isReverted": false,
                "order": 1,
                "to": "0x20aa2176720743c386b4c0e54ff02d8b12324a60",
                "token": "0x744d70fdbe2ba4cf95131626614a1763df805b9e"
            }
        ],
        "token_infos": [
            {
                "address": "0xeeeeeeeeeeeeeeeeeeeeeeeeeeeeeeeeeeeeeeee",
                "decimals": 18
            },
            {
                "address": "0x744d70fdbe2ba4cf95131626614a1763df805b9e",
                "decimals": 18
            },
            {
                "address": "0xc02aaa39b223fe8d0a0e5c4f27ead9083c756cc2",
                "decimals": 18
            }
        ]
    },
    "address_label": {
        "labels": [
            {
                "address": "0xeeeeeeeeeeeeeeeeeeeeeeeeeeeeeeeeeeeeeeee",
                "label": "Ether"
            },
            {
                "address": "0x52ae2b53c847327f95a5084a7c38c0adb12fd302",
                "label": "SNTPlaceHolder"
            },
            {
                "address": "0x744d70fdbe2ba4cf95131626614a1763df805b9e",
                "label": "Status Network: SNT Token"
            },
            {
                "address": "0x20aa2176720743c386b4c0e54ff02d8b12324a60",
                "label": "BINANCE"
            },
            {
                "address": "0x0000000000000000000000000000000000000001",
                "label": "Precompiled"
            },
            {
                "address": "0x0000000000000000000000000000000000000002",
                "label": "Precompiled"
            },
            {
                "address": "0x0000000000000000000000000000000000000003",
                "label": "Precompiled"
            },
            {
                "address": "0x0000000000000000000000000000000000000004",
                "label": "Precompiled"
            }
        ]
    },
    "trace": {
        "accountLabels": null,
        "dataMap": {
            "-1": {
                "invocation": {
                    "address": "0x1090d3436a7e4498d9b04c5f37585bc6dbd715c9",
                    "callData": "",
                    "decodedMethod": null,
                    "errorInfo": "",
                    "fromAddress": "",
                    "gasUsed": 0,
                    "id": -1,
                    "methodDecoded": false,
                    "operation": "",
                    "output": "",
                    "revert": false,
                    "revertMessage": "",
                    "selector": "",
                    "status": false,
                    "value": ""
                },
                "nodeType": 0
            },
            "0": {
                "invocation": {
                    "address": "0x744d70fdbe2ba4cf95131626614a1763df805b9e",
                    "callData": "0x00000000000000000000000020aa2176720743c386b4c0e54ff02d8b12324a600000000000000000000000000000000000000000000000a1192b7f0063ec0183",
                    "decodedMethod": {
                        "callParams": [
                            {
                                "name": "_to",
                                "type": "address",
                                "value": "0x20aa2176720743c386b4c0e54ff02d8b12324a60"
                            },
                            {
                                "decimalAvailable": true,
                                "name": "_amount",
                                "type": "uint256",
                                "value": "2,971,739,478,781,837,705,603"
                            }
                        ],
                        "constructorArguments": "",
                        "name": "transfer",
                        "returnParams": [
                            {
                                "name": "success",
                                "type": "bool",
                                "value": true
                            }
                        ],
                        "signature": "transfer(address,uint256)"
                    },
                    "errorInfo": "",
                    "fromAddress": "0x1090d3436a7e4498d9b04c5f37585bc6dbd715c9",
                    "gasUsed": 103563,
                    "id": 0,
                    "methodDecoded": true,
                    "operation": "CALL",
                    "output": "0x0000000000000000000000000000000000000000000000000000000000000001",
                    "revert": false,
                    "revertMessage": "",
                    "selector": "0xa9059cbb",
                    "status": true,
                    "value": "0"
                },
                "nodeType": 0
            },
            "1": {
                "invocation": {
                    "address": "0x52ae2b53c847327f95a5084a7c38c0adb12fd302",
                    "callData": "0x0000000000000000000000001090d3436a7e4498d9b04c5f37585bc6dbd715c900000000000000000000000020aa2176720743c386b4c0e54ff02d8b12324a600000000000000000000000000000000000000000000000a1192b7f0063ec0183",
                    "decodedMethod": {
                        "callParams": [
                            {
                                "name": "_from",
                                "type": "address",
                                "value": "0x1090d3436a7e4498d9b04c5f37585bc6dbd715c9"
                            },
                            {
                                "name": "",
                                "type": "address",
                                "value": "0x20aa2176720743c386b4c0e54ff02d8b12324a60"
                            },
                            {
                                "name": "",
                                "type": "uint256",
                                "value": "2,971,739,478,781,837,705,603"
                            }
                        ],
                        "constructorArguments": "",
                        "name": "onTransfer",
                        "returnParams": [
                            {
                                "name": "",
                                "type": "bool",
                                "value": true
                            }
                        ],
                        "signature": "onTransfer(address,address,uint256)"
                    },
                    "errorInfo": "",
                    "fromAddress": "0x744d70fdbe2ba4cf95131626614a1763df805b9e",
                    "gasUsed": 869,
                    "id": 1,
                    "methodDecoded": true,
                    "operation": "CALL",
                    "output": "0x0000000000000000000000000000000000000000000000000000000000000001",
                    "revert": false,
                    "revertMessage": "",
                    "selector": "0x4a393149",
                    "status": true,
                    "value": "0"
                },
                "nodeType": 0
            },
            "2": {
                "event": {
                    "contract": "0x744d70fdbe2ba4cf95131626614a1763df805b9e",
                    "decodedLog": {
                        "name": "Transfer",
                        "params": [
                            {
                                "name": "_from",
                                "type": "address",
                                "value": "0x1090d3436a7e4498d9b04c5f37585bc6dbd715c9"
                            },
                            {
                                "name": "_to",
                                "type": "address",
                                "value": "0x20aa2176720743c386b4c0e54ff02d8b12324a60"
                            },
                            {
                                "decimalAvailable": true,
                                "name": "_amount",
                                "type": "uint256",
                                "value": "2,971,739,478,781,837,705,603"
                            }
                        ],
                        "signature": "Transfer(address,address,uint256)"
                    },
                    "id": 2,
                    "logData": "0x0000000000000000000000000000000000000000000000a1192b7f0063ec0183",
                    "logDecoded": true,
                    "operation": "EVENT",
                    "revert": false,
                    "status": true,
                    "topics": [
                        "0xddf252ad1be2c89b69c2b068fc378daa952ba7f163c4a11628f55a4df523b3ef",
                        "0x0000000000000000000000001090d3436a7e4498d9b04c5f37585bc6dbd715c9",
                        "0x00000000000000000000000020aa2176720743c386b4c0e54ff02d8b12324a60"
                    ]
                },
                "nodeType": 1
            }
        },
        "gasFlame": [
            {
                "children": [
                    {
                        "children": [
                            {
                                "children": [],
                                "depth": 0,
                                "name": "Initial Gas",
                                "value": 23320
                            },
                            {
                                "children": [
                                    {
                                        "children": [],
                                        "depth": 1,
                                        "name": "onTransfer",
                                        "value": 869
                                    }
                                ],
                                "depth": 0,
                                "name": "Executed Gas",
                                "value": 80243
                            }
                        ],
                        "depth": -1,
                        "name": "Actual Gas Used",
                        "value": 103563
                    },
                    {
                        "children": [],
                        "depth": -1,
                        "name": "Refunded Gas",
                        "value": 0
                    }
                ],
                "depth": -2,
                "name": "Total Gas",
                "value": 103563
            }
        ],
        "isConfirmed": true,
        "mainTrace": [
            {
                "children": [
                    {
                        "children": [
                            {
                                "children": [],
                                "depth": 1,
                                "id": 1,
                                "order": 1
                            },
                            {
                                "children": [],
                                "depth": 1,
                                "id": 2,
                                "order": 2
                            }
                        ],
                        "depth": 0,
                        "id": 0,
                        "order": 0
                    }
                ],
                "depth": -1,
                "id": -1,
                "order": -1
            }
        ],
        "mainTraceNodeCount": 3,
        "parentIdMap": {
            "0": -1,
            "1": 0,
            "2": 0
        },
        "tidyTrace": [
            {
                "children": [
                    {
                        "children": [
                            {
                                "children": [],
                                "depth": 1,
                                "id": 1,
                                "order": 1
                            },
                            {
                                "children": [],
                                "depth": 1,
                                "id": 2,
                                "order": 2
                            }
                        ],
                        "depth": 0,
                        "id": 0,
                        "order": 0
                    }
                ],
                "depth": -1,
                "id": -1,
                "order": -1
            }
        ],
        "tidyTraceNodeCount": 3
    },
    "state_change": {
        "stateChanges": [
            {
                "address": "0x744d70fdbe2ba4cf95131626614a1763df805b9e",
                "erc": "ERC-20",
                "slots": [
                    {
                        "current": "0x0000000000000000000000000000000000000000000000000000000000571bf9",
                        "key": "0xfc4235efecae747ac600da96e42891d6349b39c829ce95eb3c6f65c1f4f2d799",
                        "prev": "0x0000000000000000000000000000000000000000000000000000000000000000"
                    },
                    {
                        "current": "0x0000000000000000000000000000000000000000000000000000000000000001",
                        "key": "0x5c80594410cdb31b203ce49f4e7edc359bf7fca2734a40ddae6bb0366183daee",
                        "prev": "0x0000000000000000000000000000000000000000000000000000000000000000"
                    },
                    {
                        "current": "0x00000000000000a1192b7f0063ec018300000000000000000000000000571bf9",
                        "key": "0xbeeef018df1a8587188ac8060e4a664eec310a3ca179acd24e37a6a890db690f",
                        "prev": "0x0000000000000000000000000000000000000000000000000000000000000000"
                    },
                    {
                        "current": "0x0000000000000000000000000000000000000000000000000000000000000003",
                        "key": "0x5a7d80fd32f79fe2f034c8b9f41bb723574d575cc287677265b62b69fac88714",
                        "prev": "0x0000000000000000000000000000000000000000000000000000000000000002"
                    }
                ],
                "storageVariables": []
            }
        ]
    }
}