{
    "balance_change": {
        "balanceChanges": [
            {
                "account": "0x4875819928201d0903a2c535e1bee29a2fa8a402",
                "assets": [
                    {
                        "address": "0x761d38e5ddf6ccf6cf7c55759d5210750b5d60f3",
                        "amount": "22,555,941,672.685894316393694036",
                        "iconUrl": "https://assets.blocksec.com/icon/e661c8e13a6b9a258a0c32a2cad80431048d2a7336799e313d684c2e3986e59c.png",
                        "isERC1155": false,
                        "isERC721": false,
                        "sign": false,
                        "value": "2242.977752"
                    }
                ]
            },
            {
                "account": "0xa1d8d972560c2f8144af871db508f0b0b10a3fbf",
                "assets": [
                    {
                        "address": "0x761d38e5ddf6ccf6cf7c55759d5210750b5d60f3",
                        "amount": "22,555,941,672.685894316393694036",
                        "iconUrl": "https://assets.blocksec.com/icon/e661c8e13a6b9a258a0c32a2cad80431048d2a7336799e313d684c2e3986e59c.png",
                        "isERC1155": false,
                        "isERC721": false,
                        "sign": true,
                        "value": "2242.977752"
                    }
                ]
            }
        ]
    },
    "profile": {
        "basic_info": {
            "baseFee": "",
            "blockNumber": 12938716,
            "callData": "0xa9059cbb000000000000000000000000a1d8d972560c2f8144af871db508f0b0b10a3fbf000000000000000000000000000000000000000048e1d67032f96d91ddbb0354",
            "debugEnable": true,
            "errorInfo": "",
            "eventCount": 1,
            "feeRecipient": "0x5a0b54d5dc17e0aadc383d2db43b0a0d3e029c4c",
            "formatValue": "0",
            "gasLimit": 102006,
            "gasPrice": "31",
            "gasUsed": 19671,
            "intTxnCount": 0,
            "internalRevert": false,
            "internalRevertMessage": "",
            "isContractCreation": false,
            "isFlashloan": false,
            "maxFee": "",
            "nonce": 0,
            "overwritedBlockNumber": -1,
            "priorityFee": "",
            "receiver": "0x761d38e5ddf6ccf6cf7c55759d5210750b5d60f3",
            "revertMessage": "",
            "sender": "0x4875819928201d0903a2c535e1bee29a2fa8a402",
            "simulationEnable": true,
            "sourceTxnHash": "0x6aedda28f12bace47b39a09fe0d554e7cf1c99d3c68450ad08b4b8efed7d0029",
            "status": true,
            "timestamp": "2021-08-01T09:02:49Z",
            "transactionFee": "0.000609801",
            "txnHash": "0x6aedda28f12bace47b39a09fe0d554e7cf1c99d3c68450ad08b4b8efed7d0029",
            "txnIndex": 91,
            "type": 0,
            "value": "0"
        },
        "fund_flow": [
            {
                "amount": "22,555,941,672.685894316393694036",
                "from": "0x4875819928201d0903a2c535e1bee29a2fa8a402",
                "id": 1,
                "isERC1155": false,
                "isERC721": false,
                "isReverted": false,
                "order": 1,
                "to": "0xa1d8d972560c2f8144af871db508f0b0b10a3fbf",
                "token": "0x761d38e5ddf6ccf6cf7c55759d5210750b5d60f3"
            }
        ],
        "token_infos": [
            {
                "address": "0x761d38e5ddf6ccf6cf7c55759d5210750b5d60f3",
                "decimals": 18
            },
            {
                "address": "0xc02aaa39b223fe8d0a0e5c4f27ead9083c756cc2",
                "decimals": 18
            },
            {
                "address": "0xeeeeeeeeeeeeeeeeeeeeeeeeeeeeeeeeeeeeeeee",
                "decimals": 18
            }
        ]
    },
    "address_label": {
        "labels": [
            {
                "address": "0x0000000000000000000000000000000000000003",
                "label": "Precompiled"
            },
            {
                "address": "0x0000000000000000000000000000000000000004",
                "label": "Precompiled"
            },
            {
                "address": "0xeeeeeeeeeeeeeeeeeeeeeeeeeeeeeeeeeeeeeeee",
                "label": "Ether"
            },
            {
                "address": "0x4875819928201d0903a2c535e1bee29a2fa8a402",
                "label": "KUCOIN"
            },
            {
                "address": "0xa1d8d972560c2f8144af871db508f0b0b10a3fbf",
                "label": "KuCoin 3"
            },
            {
                "address": "0x761d38e5ddf6ccf6cf7c55759d5210750b5d60f3",
                "label": "Dogelon: ELON Token"
            },
            {
                "address": "0x0000000000000000000000000000000000000001",
                "label": "Precompiled"
            },
            {
                "address": "0x0000000000000000000000000000000000000002",
                "label": "Precompiled"
            }
        ]
    },
    "trace": {
        "accountLabels": null,
        "dataMap": {
            "-1": {
                "invocation": {
                    "address": "0x4875819928201d0903a2c535e1bee29a2fa8a402",
                    "callData": "",
                    "decodedMethod": null,
                    "errorInfo": "",
                    "fromAddress": "",
                    "gasUsed": 0,
                    "id": -1,
                    "methodDecoded": false,
                    "operation": "",
                    "output": "",
                    "revert": false,
                    "revertMessage": "",
                    "selector": "",
                    "status": false,
                    "value": ""
                },
                "nodeType": 0
            },
            "0": {
                "invocation": {
                    "address": "0x761d38e5ddf6ccf6cf7c55759d5210750b5d60f3",
                    "callData": "0x000000000000000000000000a1d8d972560c2f8144af871db508f0b0b10a3fbf000000000000000000000000000000000000000048e1d67032f96d91ddbb0354",
                    "decodedMethod": {
                        "callParams": [
                            {
                                "name": "recipient",
                                "type": "address",
                                "value": "0xa1d8d972560c2f8144af871db508f0b0b10a3fbf"
                            },
                            {
                                "decimalAvailable": true,
                                "name": "amount",
                                "type": "uint256",
                                "value": "22,555,941,672,685,894,316,393,694,036"
                            }
                        ],
                        "constructorArguments": "",
                        "name": "transfer",
                        "returnParams": [
                            {
                                "name": "",
                                "type": "bool",
                                "value": true
                            }
                        ],
                        "signature": "transfer(address,uint256)"
                    },
                    "errorInfo": "",
                    "fromAddress": "0x4875819928201d0903a2c535e1bee29a2fa8a402",
                    "gasUsed": 19671,
                    "id": 0,
                    "methodDecoded": true,
                    "operation": "CALL",
                    "output": "0x0000000000000000000000000000000000000000000000000000000000000001",
                    "revert": false,
                    "revertMessage": "",
                    "selector": "0xa9059cbb",
                    "status": true,
                    "value": "0"
                },
                "nodeType": 0
            },
            "1": {
                "event": {
                    "contract": "0x761d38e5ddf6ccf6cf7c55759d5210750b5d60f3",
                    "decodedLog": {
                        "name": "Transfer",
                        "params": [
                            {
                                "name": "from",
                                "type": "address",
                                "value": "0x4875819928201d0903a2c535e1bee29a2fa8a402"
                            },
                            {
                                "name": "to",
                                "type": "address",
                                "value": "0xa1d8d972560c2f8144af871db508f0b0b10a3fbf"
                            },
                            {
                                "decimalAvailable": true,
                                "name": "value",
                                "type": "uint256",
                                "value": "22,555,941,672,685,894,316,393,694,036"
                            }
                        ],
                        "signature": "Transfer(address,address,uint256)"
                    },
                    "id": 1,
                    "logData": "0x000000000000000000000000000000000000000048e1d67032f96d91ddbb0354",
                    "logDecoded": true,
                    "operation": "EVENT",
                    "revert": false,
                    "status": true,
                    "topics": [
                        "0xddf252ad1be2c89b69c2b068fc378daa952ba7f163c4a11628f55a4df523b3ef",
                        "0x0000000000000000000000004875819928201d0903a2c535e1bee29a2fa8a402",
                        "0x000000000000000000000000a1d8d972560c2f8144af871db508f0b0b10a3fbf"
                    ]
                },
                "nodeType": 1
            }
        },
        "gasFlame": [
            {
                "children": [
                    {
                        "children": [
                            {
                                "children": [],
                                "depth": 0,
                                "name": "Initial Gas",
                                "value": 21704
                            },
                            {
                                "children": [],
                                "depth": 0,
                                "name": "Executed Gas",
                                "value": 12967
                            }
                        ],
                        "depth": -1,
                        "name": "Actual Gas Used",
                        "value": 19671
                    },
                    {
                        "children": [],
                        "depth": -1,
                        "name": "Refunded Gas",
                        "value": 15000
                    }
                ],
                "depth": -2,
                "name": "Total Gas",
                "value": 34671
            }
        ],
        "isConfirmed": true,
        "mainTrace": [
            {
                "children": [
                    {
                        "children": [
                            {
                                "children": [],
                                "depth": 1,
                                "id": 1,
                                "order": 1
                            }
                        ],
                        "depth": 0,
                        "id": 0,
                        "order": 0
                    }
                ],
                "depth": -1,
                "id": -1,
                "order": -1
            }
        ],
        "mainTraceNodeCount": 2,
        "parentIdMap": {
            "0": -1,
            "1": 0
        },
        "tidyTrace": [
            {
                "children": [
                    {
                        "children": [
                            {
                                "children": [],
                                "depth": 1,
                                "id": 1,
                                "order": 1
                            }
                        ],
                        "depth": 0,
                        "id": 0,
                        "order": 0
                    }
                ],
                "depth": -1,
                "id": -1,
                "order": -1
            }
        ],
        "tidyTraceNodeCount": 2
    },
    "state_change": {
        "stateChanges": [
            {
                "address": "0x761d38e5ddf6ccf6cf7c55759d5210750b5d60f3",
                "erc": "ERC-20",
                "slots": [
                    {
                        "current": "0x0000000000000000000000000000000000000000000000000000000000000000",
                        "key": "0xc8a2295de5a6426029d738045d7c845fb2154a8d7ffe17b8339b504e82fabb13",
                        "prev": "0x000000000000000000000000000000000000000048e1d67032f96d91ddbb0354"
                    },
                    {
                        "current": "0x00000000000000000000000000000000000000e18de82c2eaad02400838a9bbb",
                        "key": "0xafc5f481f14d1eb83fe7f19a09740d72f8952faf1081bc7638153606ddef18cd",
                        "prev": "0x00000000000000000000000000000000000000e1450655be77d6b66ea5cf9867"
                    }
                ],
                "storageVariables": [
                    {
                        "name": "_balances",
                        "type": "mapping(address => uint256)",
                        "value": {
                            "pairs": [
                                {
                                    "key": "0x4875819928201d0903a2c535e1bee29a2fa8a402",
                                    "value": {
                                        "current": "0",
                                        "prev": "22555941672685894316393694036",
                                        "typeTag": 1
                                    }
                                },
                                {
                                    "key": "0xa1d8d972560c2f8144af871db508f0b0b10a3fbf",
                                    "value": {
                                        "current": "17870254631529420058227372628923",
                                        "prev": "17847698689856734163910978934887",
                                        "typeTag": 1
                                    }
                                }
                            ],
                            "typeTag": 4
                        }
                    }
                ]
            }
        ]
    }
}