{
    "balance_change": {
        "balanceChanges": [
            {
                "account": "0x2deb0bfc0a507a3c13911e86b7d183832fc75363",
                "assets": [
                    {
                        "address": "0xa0b86991c6218b36c1d19d4a2e9eb0ce3606eb48",
                        "amount": "23.925401",
                        "iconUrl": "https://assets.blocksec.com/icon/0347a86cc07dbd03fdc5db01a4e5ac7e1217f90e0b6e4bb0f75cbcca09160989.png",
                        "isERC1155": false,
                        "isERC721": false,
                        "sign": false,
                        "value": "23.951120806074998494"
                    }
                ]
            },
            {
                "account": "0xf16e9b0d03470827a95cdfd0cb8a8a3b46969b91",
                "assets": [
                    {
                        "address": "0xa0b86991c6218b36c1d19d4a2e9eb0ce3606eb48",
                        "amount": "23.925401",
                        "iconUrl": "https://assets.blocksec.com/icon/0347a86cc07dbd03fdc5db01a4e5ac7e1217f90e0b6e4bb0f75cbcca09160989.png",
                        "isERC1155": false,
                        "isERC721": false,
                        "sign": true,
                        "value": "23.951120806074998494"
                    }
                ]
            }
        ]
    },
    "profile": {
        "basic_info": {
            "baseFee": "10.256487472",
            "blockNumber": 15234854,
            "callData": "0x23b872dd0000000000000000000000002deb0bfc0a507a3c13911e86b7d183832fc75363000000000000000000000000f16e9b0d03470827a95cdfd0cb8a8a3b46969b9100000000000000000000000000000000000000000000000000000000016d1299",
            "debugEnable": true,
            "errorInfo": "",
            "eventCount": 1,
            "feeRecipient": "0x52bc44d5378309ee2abf1539bf71de1b7d7be3b5",
            "formatValue": "0",
            "gasLimit": 100000,
            "gasPrice": "11.256487472",
            "gasUsed": 52068,
            "intTxnCount": 1,
            "internalRevert": false,
            "internalRevertMessage": "",
            "isContractCreation": false,
            "isFlashloan": false,
            "maxFee": "16.544382726",
            "nonce": 596229,
            "overwritedBlockNumber": -1,
            "priorityFee": "1",
            "receiver": "0xa0b86991c6218b36c1d19d4a2e9eb0ce3606eb48",
            "revertMessage": "",
            "sender": "0xa152f8bb749c55e9943a3a0a3111d18ee2b3f94e",
            "simulationEnable": true,
            "sourceTxnHash": "0x6aa5c7fddd3d794774a3c0879680f01af8ef8ceebea5ec6fd73d537cca9f3809",
            "status": true,
            "timestamp": "2022-07-29T02:58:30Z",
            "transactionFee": "0.000586102789692096",
            "txnHash": "0x6aa5c7fddd3d794774a3c0879680f01af8ef8ceebea5ec6fd73d537cca9f3809",
            "txnIndex": 62,
            "type": 2,
            "value": "0"
        },
        "fund_flow": [
            {
                "amount": "23.925401",
                "from": "0x2deb0bfc0a507a3c13911e86b7d183832fc75363",
                "id": 1,
                "isERC1155": false,
                "isERC721": false,
                "isReverted": false,
                "order": 1,
                "to": "0xf16e9b0d03470827a95cdfd0cb8a8a3b46969b91",
                "token": "0xa0b86991c6218b36c1d19d4a2e9eb0ce3606eb48"
            }
        ],
        "token_infos": [
            {
                "address": "0xa0b86991c6218b36c1d19d4a2e9eb0ce3606eb48",
                "decimals": 6
            },
            {
                "address": "0xc02aaa39b223fe8d0a0e5c4f27ead9083c756cc2",
                "decimals": 18
            },
            {
                "address": "0xeeeeeeeeeeeeeeeeeeeeeeeeeeeeeeeeeeeeeeee",
                "decimals": 18
            }
        ]
    },
    "address_label": {
        "labels": [
            {
                "address": "0xf16e9b0d03470827a95cdfd0cb8a8a3b46969b91",
                "label": "KuCoin 9"
            },
            {
                "address": "0x0000000000000000000000000000000000000002",
                "label": "Precompiled"
            },
            {
                "address": "0x0000000000000000000000000000000000000004",
                "label": "Precompiled"
            },
            {
                "address": "0x2deb0bfc0a507a3c13911e86b7d183832fc75363",
                "label": "KUCOIN"
            },
            {
                "address": "0xa152f8bb749c55e9943a3a0a3111d18ee2b3f94e",
                "label": "KuCoin 22"
            },
            {
                "address": "0xa0b86991c6218b36c1d19d4a2e9eb0ce3606eb48",
                "label": "Circle: USDC Token"
            },
            {
                "address": "0x0000000000000000000000000000000000000001",
                "label": "Precompiled"
            },
            {
                "address": "0x0000000000000000000000000000000000000003",
                "label": "Precompiled"
            },
            {
                "address": "0xeeeeeeeeeeeeeeeeeeeeeeeeeeeeeeeeeeeeeeee",
                "label": "Ether"
            },
            {
                "address": "0xa2327a938febf5fec13bacfb16ae10ecbc4cbdcf",
                "label": "FiatTokenV2_1"
            }
        ]
    },
    "trace": {
        "accountLabels": null,
        "dataMap": {
            "-1": {
                "invocation": {
                    "address": "0xa152f8bb749c55e9943a3a0a3111d18ee2b3f94e",
                    "callData": "",
                    "decodedMethod": null,
                    "errorInfo": "",
                    "fromAddress": "",
                    "gasUsed": 0,
                    "id": -1,
                    "methodDecoded": false,
                    "operation": "",
                    "output": "",
                    "revert": false,
                    "revertMessage": "",
                    "selector": "",
                    "status": false,
                    "value": ""
                },
                "nodeType": 0
            },
            "0": {
                "invocation": {
                    "address": "0xa0b86991c6218b36c1d19d4a2e9eb0ce3606eb48",
                    "callData": "0x0000000000000000000000002deb0bfc0a507a3c13911e86b7d183832fc75363000000000000000000000000f16e9b0d03470827a95cdfd0cb8a8a3b46969b9100000000000000000000000000000000000000000000000000000000016d1299",
                    "decodedMethod": {
                        "callParams": [
                            {
                                "name": "from",
                                "type": "address",
                                "value": "0x2deb0bfc0a507a3c13911e86b7d183832fc75363"
                            },
                            {
                                "name": "to",
                                "type": "address",
                                "value": "0xf16e9b0d03470827a95cdfd0cb8a8a3b46969b91"
                            },
                            {
                                "decimalAvailable": true,
                                "name": "value",
                                "type": "uint256",
                                "value": "23,925,401"
                            }
                        ],
                        "constructorArguments": "",
                        "name": "transferFrom",
                        "returnParams": [
                            {
                                "name": "",
                                "type": "bool",
                                "value": true
                            }
                        ],
                        "signature": "transferFrom(address,address,uint256)"
                    },
                    "errorInfo": "",
                    "fromAddress": "0xa152f8bb749c55e9943a3a0a3111d18ee2b3f94e",
                    "gasUsed": 52068,
                    "id": 0,
                    "methodDecoded": true,
                    "operation": "CALL",
                    "output": "0x0000000000000000000000000000000000000000000000000000000000000001",
                    "revert": false,
                    "revertMessage": "",
                    "selector": "0x23b872dd",
                    "status": true,
                    "value": "0"
                },
                "nodeType": 0
            },
            "1": {
                "invocation": {
                    "address": "0xa2327a938febf5fec13bacfb16ae10ecbc4cbdcf",
                    "callData": "0x0000000000000000000000002deb0bfc0a507a3c13911e86b7d183832fc75363000000000000000000000000f16e9b0d03470827a95cdfd0cb8a8a3b46969b9100000000000000000000000000000000000000000000000000000000016d1299",
                    "decodedMethod": {
                        "callParams": [
                            {
                                "name": "from",
                                "type": "address",
                                "value": "0x2deb0bfc0a507a3c13911e86b7d183832fc75363"
                            },
                            {
                                "name": "to",
                                "type": "address",
                                "value": "0xf16e9b0d03470827a95cdfd0cb8a8a3b46969b91"
                            },
                            {
                                "decimalAvailable": true,
                                "name": "value",
                                "type": "uint256",
                                "value": "23,925,401"
                            }
                        ],
                        "constructorArguments": "",
                        "name": "transferFrom",
                        "returnParams": [
                            {
                                "name": "",
                                "type": "bool",
                                "value": true
                            }
                        ],
                        "signature": "transferFrom(address,address,uint256)"
                    },
                    "errorInfo": "",
                    "fromAddress": "0xa0b86991c6218b36c1d19d4a2e9eb0ce3606eb48",
                    "gasUsed": 27597,
                    "id": 1,
                    "methodDecoded": true,
                    "operation": "DELEGATECALL",
                    "output": "0x0000000000000000000000000000000000000000000000000000000000000001",
                    "revert": false,
                    "revertMessage": "",
                    "selector": "0x23b872dd",
                    "status": true,
                    "value": "0"
                },
                "nodeType": 0
            },
            "2": {
                "event": {
                    "contract": "0xa0b86991c6218b36c1d19d4a2e9eb0ce3606eb48",
                    "decodedLog": {
                        "name": "Transfer",
                        "params": [
                            {
                                "name": "from",
                                "type": "address",
                                "value": "0x2deb0bfc0a507a3c13911e86b7d183832fc75363"
                            },
                            {
                                "name": "to",
                                "type": "address",
                                "value": "0xf16e9b0d03470827a95cdfd0cb8a8a3b46969b91"
                            },
                            {
                                "decimalAvailable": true,
                                "name": "value",
                                "type": "uint256",
                                "value": "23,925,401"
                            }
                        ],
                        "signature": "Transfer(address,address,uint256)"
                    },
                    "id": 2,
                    "logData": "0x00000000000000000000000000000000000000000000000000000000016d1299",
                    "logDecoded": true,
                    "operation": "EVENT",
                    "revert": false,
                    "status": true,
                    "topics": [
                        "0xddf252ad1be2c89b69c2b068fc378daa952ba7f163c4a11628f55a4df523b3ef",
                        "0x0000000000000000000000002deb0bfc0a507a3c13911e86b7d183832fc75363",
                        "0x000000000000000000000000f16e9b0d03470827a95cdfd0cb8a8a3b46969b91"
                    ]
                },
                "nodeType": 1
            }
        },
        "gasFlame": [
            {
                "children": [
                    {
                        "children": [
                            {
                                "children": [],
                                "depth": 0,
                                "name": "Initial Gas",
                                "value": 21976
                            },
                            {
                                "children": [
                                    {
                                        "children": [],
                                        "depth": 1,
                                        "name": "transferFrom",
                                        "value": 27597
                                    }
                                ],
                                "depth": 0,
                                "name": "Executed Gas",
                                "value": 34892
                            }
                        ],
                        "depth": -1,
                        "name": "Actual Gas Used",
                        "value": 52068
                    },
                    {
                        "children": [],
                        "depth": -1,
                        "name": "Refunded Gas",
                        "value": 4800
                    }
                ],
                "depth": -2,
                "name": "Total Gas",
                "value": 56868
            }
        ],
        "isConfirmed": true,
        "mainTrace": [
            {
                "children": [
                    {
                        "children": [
                            {
                                "children": [
                                    {
                                        "children": [],
                                        "depth": 2,
                                        "id": 2,
                                        "order": 2
                                    }
                                ],
                                "depth": 1,
                                "id": 1,
                                "order": 1
                            }
                        ],
                        "depth": 0,
                        "id": 0,
                        "order": 0
                    }
                ],
                "depth": -1,
                "id": -1,
                "order": -1
            }
        ],
        "mainTraceNodeCount": 3,
        "parentIdMap": {
            "0": -1,
            "1": 0,
            "2": 1
        },
        "tidyTrace": [
            {
                "children": [
                    {
                        "children": [
                            {
                                "children": [
                                    {
                                        "children": [],
                                        "depth": 2,
                                        "id": 2,
                                        "order": 2
                                    }
                                ],
                                "depth": 1,
                                "id": 1,
                                "order": 1
                            }
                        ],
                        "depth": 0,
                        "id": 0,
                        "order": 0
                    }
                ],
                "depth": -1,
                "id": -1,
                "order": -1
            }
        ],
        "tidyTraceNodeCount": 3
    },
    "state_change": {
        "stateChanges": [
            {
                "address": "0xa0b86991c6218b36c1d19d4a2e9eb0ce3606eb48",
                "erc": "ERC-20",
                "slots": [
                    {
                        "current": "0x000000000000000000000000000000000000000000000000000007e9b9a50ec3",
                        "key": "0xaad400adfd2516d7f0b7662797e7349eb95c50d932606e6a40515f82fb773180",
                        "prev": "0x000000000000000000000000000000000000000000000000000007e9b837fc2a"
                    },
                    {
                        "current": "0xfffffffffffffffffffffffffffffffffffffffffffffffffffffffff4735261",
                        "key": "0xa361457c40c58eb85cd1264e0854f2c97b11d6142ea77f63499243453915f252",
                        "prev": "0xfffffffffffffffffffffffffffffffffffffffffffffffffffffffff5e064fa"
                    },
                    {
                        "current": "0x0000000000000000000000000000000000000000000000000000000000000000",
                        "key": "0x7b8253b4259ffd3b300020d201d3a3c82b71b855f0a14d1e9787de2ee7b3117f",
                        "prev": "0x00000000000000000000000000000000000000000000000000000000016d1299"
                    }
                ],
                "storageVariables": [
                    {
                        "name": "balances",
                        "type": "mapping(address => uint256)",
                        "value": {
                            "pairs": [
                                {
                                    "key": "0x2deb0bfc0a507a3c13911e86b7d183832fc75363",
                                    "value": {
                                        "current": "0",
                                        "prev": "23925401",
                                        "typeTag": 1
                                    }
                                },
                                {
                                    "key": "0xf16e9b0d03470827a95cdfd0cb8a8a3b46969b91",
                                    "value": {
                                        "current": "8700423376579",
                                        "prev": "8700399451178",
                                        "typeTag": 1
                                    }
                                }
                            ],
                            "typeTag": 4
                        }
                    },
                    {
                        "name": "allowed",
                        "type": "mapping(address => mapping(address => uint256))",
                        "value": {
                            "pairs": [
                                {
                                    "key": "0x2deb0bfc0a507a3c13911e86b7d183832fc75363",
                                    "value": {
                                        "pairs": [
                                            {
                                                "key": "0xa152f8bb749c55e9943a3a0a3111d18ee2b3f94e",
                                                "value": {
                                                    "current": "115792089237316195423570985008687907853269984665640564039457584007912935871073",
                                                    "prev": "115792089237316195423570985008687907853269984665640564039457584007912959796474",
                                                    "typeTag": 1
                                                }
                                            }
                                        ],
                                        "typeTag": 4
                                    }
                                }
                            ],
                            "typeTag": 4
                        }
                    }
                ]
            }
        ]
    }
}