{
    "balance_change": {
        "balanceChanges": [
            {
                "account": "0xe4e7d12ab0833843119fcee3f26b733af7d98c12",
                "assets": [
                    {
                        "address": "0x5026f006b85729a8b14553fae6af249ad16c9aab",
                        "amount": "146,577",
                        "iconUrl": "",
                        "isERC1155": false,
                        "isERC721": false,
                        "sign": false,
                        "value": "117.26160000000000562"
                    }
                ]
            },
            {
                "account": "0xe46b93e161afd7f3a73df008a11ab6cbc49ca81e",
                "assets": [
                    {
                        "address": "0x5026f006b85729a8b14553fae6af249ad16c9aab",
                        "amount": "146,577",
                        "iconUrl": "",
                        "isERC1155": false,
                        "isERC721": false,
                        "sign": true,
                        "value": "117.26160000000000562"
                    }
                ]
            }
        ]
    },
    "profile": {
        "basic_info": {
            "baseFee": "96.662632364",
            "blockNumber": 17189580,
            "callData": "0xa9059cbb000000000000000000000000e46b93e161afd7f3a73df008a11ab6cbc49ca81e000000000000000000000000000000000000000000001f09f480e5c53fa40000",
            "debugEnable": true,
            "errorInfo": "",
            "eventCount": 1,
            "feeRecipient": "0x388c818ca8b9251b393131c08a736a67ccb19297",
            "formatValue": "0",
            "gasLimit": 78334,
            "gasPrice": "96.762632364",
            "gasUsed": 52223,
            "intTxnCount": 0,
            "internalRevert": false,
            "internalRevertMessage": "",
            "isContractCreation": false,
            "isFlashloan": false,
            "maxFee": "111.162616902",
            "nonce": 15,
            "overwritedBlockNumber": -1,
            "priorityFee": "0.1",
            "receiver": "0x5026f006b85729a8b14553fae6af249ad16c9aab",
            "revertMessage": "",
            "sender": "0xe4e7d12ab0833843119fcee3f26b733af7d98c12",
            "simulationEnable": true,
            "sourceTxnHash": "0x6a9a98a656a2f96b20f58227b8626b2f195e6bdbc6fcb51a7938bc704bc5b269",
            "status": true,
            "timestamp": "2023-05-04T20:08:35Z",
            "transactionFee": "0.005053234949945172",
            "txnHash": "0x6a9a98a656a2f96b20f58227b8626b2f195e6bdbc6fcb51a7938bc704bc5b269",
            "txnIndex": 118,
            "type": 2,
            "value": "0"
        },
        "fund_flow": [
            {
                "amount": "146,577",
                "from": "0xe4e7d12ab0833843119fcee3f26b733af7d98c12",
                "id": 1,
                "isERC1155": false,
                "isERC721": false,
                "isReverted": false,
                "order": 1,
                "to": "0xe46b93e161afd7f3a73df008a11ab6cbc49ca81e",
                "token": "0x5026f006b85729a8b14553fae6af249ad16c9aab"
            }
        ],
        "token_infos": [
            {
                "address": "0x5026f006b85729a8b14553fae6af249ad16c9aab",
                "decimals": 18
            },
            {
                "address": "0xc02aaa39b223fe8d0a0e5c4f27ead9083c756cc2",
                "decimals": 18
            },
            {
                "address": "0xeeeeeeeeeeeeeeeeeeeeeeeeeeeeeeeeeeeeeeee",
                "decimals": 18
            }
        ]
    },
    "address_label": {
        "labels": [
            {
                "address": "0xeeeeeeeeeeeeeeeeeeeeeeeeeeeeeeeeeeeeeeee",
                "label": "Ether"
            },
            {
                "address": "0x5026f006b85729a8b14553fae6af249ad16c9aab",
                "label": "Wojak: WOJAK Token"
            },
            {
                "address": "0xe46b93e161afd7f3a73df008a11ab6cbc49ca81e",
                "label": "BITGET"
            },
            {
                "address": "0x388c818ca8b9251b393131c08a736a67ccb19297",
                "label": "LidoExecutionLayerRewardsVault"
            },
            {
                "address": "0x0000000000000000000000000000000000000001",
                "label": "Precompiled"
            },
            {
                "address": "0x0000000000000000000000000000000000000002",
                "label": "Precompiled"
            },
            {
                "address": "0x0000000000000000000000000000000000000003",
                "label": "Precompiled"
            },
            {
                "address": "0x0000000000000000000000000000000000000004",
                "label": "Precompiled"
            }
        ]
    },
    "trace": {
        "accountLabels": null,
        "dataMap": {
            "-1": {
                "invocation": {
                    "address": "0xe4e7d12ab0833843119fcee3f26b733af7d98c12",
                    "callData": "",
                    "decodedMethod": null,
                    "errorInfo": "",
                    "fromAddress": "",
                    "gasUsed": 0,
                    "id": -1,
                    "methodDecoded": false,
                    "operation": "",
                    "output": "",
                    "revert": false,
                    "revertMessage": "",
                    "selector": "",
                    "status": false,
                    "value": ""
                },
                "nodeType": 0
            },
            "0": {
                "invocation": {
                    "address": "0x5026f006b85729a8b14553fae6af249ad16c9aab",
                    "callData": "0x000000000000000000000000e46b93e161afd7f3a73df008a11ab6cbc49ca81e000000000000000000000000000000000000000000001f09f480e5c53fa40000",
                    "decodedMethod": {
                        "callParams": [
                            {
                                "name": "to",
                                "type": "address",
                                "value": "0xe46b93e161afd7f3a73df008a11ab6cbc49ca81e"
                            },
                            {
                                "decimalAvailable": true,
                                "name": "amount",
                                "type": "uint256",
                                "value": "146,577,000,000,000,000,000,000"
                            }
                        ],
                        "constructorArguments": "",
                        "name": "transfer",
                        "returnParams": [
                            {
                                "name": "",
                                "type": "bool",
                                "value": true
                            }
                        ],
                        "signature": "transfer(address,uint256)"
                    },
                    "errorInfo": "",
                    "fromAddress": "0xe4e7d12ab0833843119fcee3f26b733af7d98c12",
                    "gasUsed": 52223,
                    "id": 0,
                    "methodDecoded": true,
                    "operation": "CALL",
                    "output": "0x0000000000000000000000000000000000000000000000000000000000000001",
                    "revert": false,
                    "revertMessage": "",
                    "selector": "0xa9059cbb",
                    "status": true,
                    "value": "0"
                },
                "nodeType": 0
            },
            "1": {
                "event": {
                    "contract": "0x5026f006b85729a8b14553fae6af249ad16c9aab",
                    "decodedLog": {
                        "name": "Transfer",
                        "params": [
                            {
                                "name": "from",
                                "type": "address",
                                "value": "0xe4e7d12ab0833843119fcee3f26b733af7d98c12"
                            },
                            {
                                "name": "to",
                                "type": "address",
                                "value": "0xe46b93e161afd7f3a73df008a11ab6cbc49ca81e"
                            },
                            {
                                "decimalAvailable": true,
                                "name": "value",
                                "type": "uint256",
                                "value": "146,577,000,000,000,000,000,000"
                            }
                        ],
                        "signature": "Transfer(address,address,uint256)"
                    },
                    "id": 1,
                    "logData": "0x000000000000000000000000000000000000000000001f09f480e5c53fa40000",
                    "logDecoded": true,
                    "operation": "EVENT",
                    "revert": false,
                    "status": true,
                    "topics": [
                        "0xddf252ad1be2c89b69c2b068fc378daa952ba7f163c4a11628f55a4df523b3ef",
                        "0x000000000000000000000000e4e7d12ab0833843119fcee3f26b733af7d98c12",
                        "0x000000000000000000000000e46b93e161afd7f3a73df008a11ab6cbc49ca81e"
                    ]
                },
                "nodeType": 1
            }
        },
        "gasFlame": [
            {
                "children": [
                    {
                        "children": [
                            {
                                "children": [],
                                "depth": 0,
                                "name": "Initial Gas",
                                "value": 21656
                            },
                            {
                                "children": [],
                                "depth": 0,
                                "name": "Executed Gas",
                                "value": 30567
                            }
                        ],
                        "depth": -1,
                        "name": "Actual Gas Used",
                        "value": 52223
                    },
                    {
                        "children": [],
                        "depth": -1,
                        "name": "Refunded Gas",
                        "value": 0
                    }
                ],
                "depth": -2,
                "name": "Total Gas",
                "value": 52223
            }
        ],
        "isConfirmed": true,
        "mainTrace": [
            {
                "children": [
                    {
                        "children": [
                            {
                                "children": [],
                                "depth": 1,
                                "id": 1,
                                "order": 1
                            }
                        ],
                        "depth": 0,
                        "id": 0,
                        "order": 0
                    }
                ],
                "depth": -1,
                "id": -1,
                "order": -1
            }
        ],
        "mainTraceNodeCount": 2,
        "parentIdMap": {
            "0": -1,
            "1": 0
        },
        "tidyTrace": [
            {
                "children": [
                    {
                        "children": [
                            {
                                "children": [],
                                "depth": 1,
                                "id": 1,
                                "order": 1
                            }
                        ],
                        "depth": 0,
                        "id": 0,
                        "order": 0
                    }
                ],
                "depth": -1,
                "id": -1,
                "order": -1
            }
        ],
        "tidyTraceNodeCount": 2
    },
    "state_change": {
        "stateChanges": [
            {
                "address": "0x5026f006b85729a8b14553fae6af249ad16c9aab",
                "erc": "ERC-20",
                "slots": [
                    {
                        "current": "0x000000000000000000000000000000000000000000031978ca5d224b711fb9f6",
                        "key": "0x7926821b0d75e0167b34001a59877d1b798bd39ada323e9ce8b374ae211541cd",
                        "prev": "0x000000000000000000000000000000000000000000033882bede0810b0c3b9f6"
                    },
                    {
                        "current": "0x000000000000000000000000000000000000000000001f09f480e5c53fa40000",
                        "key": "0x181c4700b9d415f2d14481ee255d94faac51d4af3cf29d03d63dc1e48954ea7d",
                        "prev": "0x0000000000000000000000000000000000000000000000000000000000000000"
                    }
                ],
                "storageVariables": [
                    {
                        "name": "_balances",
                        "type": "mapping(address => uint256)",
                        "value": {
                            "pairs": [
                                {
                                    "key": "0xe46b93e161afd7f3a73df008a11ab6cbc49ca81e",
                                    "value": {
                                        "current": "146577000000000000000000",
                                        "prev": "0",
                                        "typeTag": 1
                                    }
                                },
                                {
                                    "key": "0xe4e7d12ab0833843119fcee3f26b733af7d98c12",
                                    "value": {
                                        "current": "3747064812053349711985142",
                                        "prev": "3893641812053349711985142",
                                        "typeTag": 1
                                    }
                                }
                            ],
                            "typeTag": 4
                        }
                    }
                ]
            }
        ]
    }
}