{
    "balance_change": {
        "balanceChanges": [
            {
                "account": "0x5957ccdd926568be8346eb604bd99bebaca36017",
                "assets": [
                    {
                        "address": "0xeeeeeeeeeeeeeeeeeeeeeeeeeeeeeeeeeeeeeeee",
                        "amount": "3.066056415788834722",
                        "iconUrl": "https://assets.blocksec.com/image/1663669189317-3.png",
                        "isERC1155": false,
                        "isERC721": false,
                        "sign": true,
                        "value": "5797.9740037843199443"
                    },
                    {
                        "address": "0x889edc2edab5f40e902b864ad4d7ade8e412f9b1",
                        "amount": "1",
                        "iconUrl": "",
                        "isERC1155": false,
                        "isERC721": true,
                        "sign": false,
                        "tokenID": "2973",
                        "value": ""
                    }
                ]
            },
            {
                "account": "0x889edc2edab5f40e902b864ad4d7ade8e412f9b1",
                "assets": [
                    {
                        "address": "0xeeeeeeeeeeeeeeeeeeeeeeeeeeeeeeeeeeeeeeee",
                        "amount": "3.066056415788834722",
                        "iconUrl": "https://assets.blocksec.com/image/1663669189317-3.png",
                        "isERC1155": false,
                        "isERC721": false,
                        "sign": false,
                        "value": "5797.9740037843199443"
                    }
                ]
            },
            {
                "account": "0x0000000000000000000000000000000000000000",
                "assets": [
                    {
                        "address": "0x889edc2edab5f40e902b864ad4d7ade8e412f9b1",
                        "amount": "1",
                        "iconUrl": "",
                        "isERC1155": false,
                        "isERC721": true,
                        "sign": true,
                        "tokenID": "2973",
                        "value": ""
                    }
                ]
            }
        ]
    },
    "profile": {
        "basic_info": {
            "baseFee": "14.080661632",
            "blockNumber": 17564006,
            "callData": "0xe3afe0a30000000000000000000000000000000000000000000000000000000000000040000000000000000000000000000000000000000000000000000000000000008000000000000000000000000000000000000000000000000000000000000000010000000000000000000000000000000000000000000000000000000000000b9d00000000000000000000000000000000000000000000000000000000000000010000000000000000000000000000000000000000000000000000000000000028",
            "debugEnable": true,
            "errorInfo": "",
            "eventCount": 2,
            "feeRecipient": "0x690b9a9e9aa1c9db991c7721a92d351db4fac990",
            "formatValue": "0",
            "gasLimit": 89842,
            "gasPrice": "15.580661632",
            "gasUsed": 74498,
            "intTxnCount": 2,
            "internalRevert": false,
            "internalRevertMessage": "",
            "isContractCreation": false,
            "isFlashloan": false,
            "maxFee": "26.08852752",
            "nonce": 6,
            "overwritedBlockNumber": -1,
            "priorityFee": "1.5",
            "receiver": "0x889edc2edab5f40e902b864ad4d7ade8e412f9b1",
            "revertMessage": "",
            "sender": "0x5957ccdd926568be8346eb604bd99bebaca36017",
            "simulationEnable": true,
            "sourceTxnHash": "0x6ab8b51b431b62a6c3d28aa5a9184de2b3be44a18aaf913b76cd2fcd95127dc0",
            "status": true,
            "timestamp": "2023-06-26T13:50:47Z",
            "transactionFee": "0.001160728130260736",
            "txnHash": "0x6ab8b51b431b62a6c3d28aa5a9184de2b3be44a18aaf913b76cd2fcd95127dc0",
            "txnIndex": 53,
            "type": 2,
            "value": "0"
        },
        "fund_flow": [
            {
                "amount": "3.066056415788834722",
                "from": "0x889edc2edab5f40e902b864ad4d7ade8e412f9b1",
                "id": 1,
                "isERC1155": false,
                "isERC721": false,
                "isReverted": false,
                "order": 1,
                "to": "0x5957ccdd926568be8346eb604bd99bebaca36017",
                "token": "0xeeeeeeeeeeeeeeeeeeeeeeeeeeeeeeeeeeeeeeee"
            },
            {
                "amount": "1",
                "from": "0x5957ccdd926568be8346eb604bd99bebaca36017",
                "id": 2,
                "isERC1155": false,
                "isERC721": true,
                "isReverted": false,
                "order": 2,
                "to": "0x0000000000000000000000000000000000000000",
                "token": "0x889edc2edab5f40e902b864ad4d7ade8e412f9b1",
                "tokenID": "2973"
            }
        ],
        "token_infos": [
            {
                "address": "0xc02aaa39b223fe8d0a0e5c4f27ead9083c756cc2",
                "decimals": 18
            },
            {
                "address": "0xeeeeeeeeeeeeeeeeeeeeeeeeeeeeeeeeeeeeeeee",
                "decimals": 18
            }
        ]
    },
    "address_label": {
        "labels": [
            {
                "address": "0xeeeeeeeeeeeeeeeeeeeeeeeeeeeeeeeeeeeeeeee",
                "label": "Ether"
            },
            {
                "address": "0xe42c659dc09109566720ea8b2de186c2be7d94d9",
                "label": "Lido: Withdrawal Queue Impl 1.0.0"
            },
            {
                "address": "0x889edc2edab5f40e902b864ad4d7ade8e412f9b1",
                "label": "Lido: Withdrawal Queue"
            },
            {
                "address": "0x0000000000000000000000000000000000000001",
                "label": "Precompiled"
            },
            {
                "address": "0x0000000000000000000000000000000000000002",
                "label": "Precompiled"
            },
            {
                "address": "0x0000000000000000000000000000000000000003",
                "label": "Precompiled"
            },
            {
                "address": "0x0000000000000000000000000000000000000004",
                "label": "Precompiled"
            }
        ]
    },
    "trace": {
        "accountLabels": null,
        "dataMap": {
            "-1": {
                "invocation": {
                    "address": "0x5957ccdd926568be8346eb604bd99bebaca36017",
                    "callData": "",
                    "decodedMethod": null,
                    "errorInfo": "",
                    "fromAddress": "",
                    "gasUsed": 0,
                    "id": -1,
                    "methodDecoded": false,
                    "operation": "",
                    "output": "",
                    "revert": false,
                    "revertMessage": "",
                    "selector": "",
                    "status": false,
                    "value": ""
                },
                "nodeType": 0
            },
            "0": {
                "invocation": {
                    "address": "0x889edc2edab5f40e902b864ad4d7ade8e412f9b1",
                    "callData": "0x0000000000000000000000000000000000000000000000000000000000000040000000000000000000000000000000000000000000000000000000000000008000000000000000000000000000000000000000000000000000000000000000010000000000000000000000000000000000000000000000000000000000000b9d00000000000000000000000000000000000000000000000000000000000000010000000000000000000000000000000000000000000000000000000000000028",
                    "decodedMethod": {
                        "callParams": [
                            {
                                "name": "_requestIds",
                                "type": "uint256[]",
                                "value": [
                                    "2,973"
                                ]
                            },
                            {
                                "name": "_hints",
                                "type": "uint256[]",
                                "value": [
                                    "40"
                                ]
                            }
                        ],
                        "constructorArguments": "",
                        "name": "claimWithdrawals",
                        "returnParams": [],
                        "signature": "claimWithdrawals(uint256[],uint256[])"
                    },
                    "errorInfo": "",
                    "fromAddress": "0x5957ccdd926568be8346eb604bd99bebaca36017",
                    "gasUsed": 74498,
                    "id": 0,
                    "methodDecoded": true,
                    "operation": "CALL",
                    "output": "",
                    "revert": false,
                    "revertMessage": "",
                    "selector": "0xe3afe0a3",
                    "status": true,
                    "value": "0"
                },
                "nodeType": 0
            },
            "1": {
                "invocation": {
                    "address": "0xe42c659dc09109566720ea8b2de186c2be7d94d9",
                    "callData": "0x0000000000000000000000000000000000000000000000000000000000000040000000000000000000000000000000000000000000000000000000000000008000000000000000000000000000000000000000000000000000000000000000010000000000000000000000000000000000000000000000000000000000000b9d00000000000000000000000000000000000000000000000000000000000000010000000000000000000000000000000000000000000000000000000000000028",
                    "decodedMethod": {
                        "callParams": [
                            {
                                "name": "_requestIds",
                                "type": "uint256[]",
                                "value": [
                                    "2,973"
                                ]
                            },
                            {
                                "name": "_hints",
                                "type": "uint256[]",
                                "value": [
                                    "40"
                                ]
                            }
                        ],
                        "constructorArguments": "",
                        "name": "claimWithdrawals",
                        "returnParams": [],
                        "signature": "claimWithdrawals(uint256[],uint256[])"
                    },
                    "errorInfo": "",
                    "fromAddress": "0x889edc2edab5f40e902b864ad4d7ade8e412f9b1",
                    "gasUsed": 61878,
                    "id": 1,
                    "methodDecoded": true,
                    "operation": "DELEGATECALL",
                    "output": "",
                    "revert": false,
                    "revertMessage": "",
                    "selector": "0xe3afe0a3",
                    "status": true,
                    "value": "0"
                },
                "nodeType": 0
            },
            "2": {
                "invocation": {
                    "address": "0x5957ccdd926568be8346eb604bd99bebaca36017",
                    "callData": "0x",
                    "decodedMethod": null,
                    "errorInfo": "",
                    "fromAddress": "0x889edc2edab5f40e902b864ad4d7ade8e412f9b1",
                    "gasUsed": 0,
                    "id": 2,
                    "methodDecoded": false,
                    "operation": "CALL",
                    "output": "",
                    "revert": false,
                    "revertMessage": "",
                    "selector": "fallback",
                    "status": true,
                    "value": "3.066056415788834722"
                },
                "nodeType": 0
            },
            "3": {
                "event": {
                    "contract": "0x889edc2edab5f40e902b864ad4d7ade8e412f9b1",
                    "decodedLog": {
                        "name": "WithdrawalClaimed",
                        "params": [
                            {
                                "name": "requestId",
                                "type": "uint256",
                                "value": "2,973"
                            },
                            {
                                "name": "owner",
                                "type": "address",
                                "value": "0x5957ccdd926568be8346eb604bd99bebaca36017"
                            },
                            {
                                "name": "receiver",
                                "type": "address",
                                "value": "0x5957ccdd926568be8346eb604bd99bebaca36017"
                            },
                            {
                                "name": "amountOfETH",
                                "type": "uint256",
                                "value": "3,066,056,415,788,834,722"
                            }
                        ],
                        "signature": "WithdrawalClaimed(uint256,address,address,uint256)"
                    },
                    "id": 3,
                    "logData": "0x0000000000000000000000000000000000000000000000002a8cd210c4669fa2",
                    "logDecoded": true,
                    "operation": "EVENT",
                    "revert": false,
                    "status": true,
                    "topics": [
                        "0x6ad26c5e238e7d002799f9a5db07e81ef14e37386ae03496d7a7ef04713e145b",
                        "0x0000000000000000000000000000000000000000000000000000000000000b9d",
                        "0x0000000000000000000000005957ccdd926568be8346eb604bd99bebaca36017",
                        "0x0000000000000000000000005957ccdd926568be8346eb604bd99bebaca36017"
                    ]
                },
                "nodeType": 1
            },
            "4": {
                "event": {
                    "contract": "0x889edc2edab5f40e902b864ad4d7ade8e412f9b1",
                    "decodedLog": {
                        "name": "Transfer",
                        "params": [
                            {
                                "name": "from",
                                "type": "address",
                                "value": "0x5957ccdd926568be8346eb604bd99bebaca36017"
                            },
                            {
                                "name": "to",
                                "type": "address",
                                "value": "0x0000000000000000000000000000000000000000"
                            },
                            {
                                "decimalAvailable": true,
                                "name": "tokenId",
                                "type": "uint256",
                                "value": "2,973"
                            }
                        ],
                        "signature": "Transfer(address,address,uint256)"
                    },
                    "id": 4,
                    "logData": "0x",
                    "logDecoded": true,
                    "operation": "EVENT",
                    "revert": false,
                    "status": true,
                    "topics": [
                        "0xddf252ad1be2c89b69c2b068fc378daa952ba7f163c4a11628f55a4df523b3ef",
                        "0x0000000000000000000000005957ccdd926568be8346eb604bd99bebaca36017",
                        "0x0000000000000000000000000000000000000000000000000000000000000000",
                        "0x0000000000000000000000000000000000000000000000000000000000000b9d"
                    ]
                },
                "nodeType": 1
            }
        },
        "gasFlame": [
            {
                "children": [
                    {
                        "children": [
                            {
                                "children": [],
                                "depth": 0,
                                "name": "Initial Gas",
                                "value": 21916
                            },
                            {
                                "children": [
                                    {
                                        "children": [
                                            {
                                                "children": [],
                                                "depth": 2,
                                                "name": "fallback",
                                                "value": 0
                                            }
                                        ],
                                        "depth": 1,
                                        "name": "claimWithdrawals",
                                        "value": 61878
                                    }
                                ],
                                "depth": 0,
                                "name": "Executed Gas",
                                "value": 66982
                            }
                        ],
                        "depth": -1,
                        "name": "Actual Gas Used",
                        "value": 74498
                    },
                    {
                        "children": [],
                        "depth": -1,
                        "name": "Refunded Gas",
                        "value": 14400
                    }
                ],
                "depth": -2,
                "name": "Total Gas",
                "value": 88898
            }
        ],
        "isConfirmed": true,
        "mainTrace": [
            {
                "children": [
                    {
                        "children": [
                            {
                                "children": [
                                    {
                                        "children": [],
                                        "depth": 2,
                                        "id": 2,
                                        "order": 2
                                    },
                                    {
                                        "children": [],
                                        "depth": 2,
                                        "id": 3,
                                        "order": 3
                                    },
                                    {
                                        "children": [],
                                        "depth": 2,
                                        "id": 4,
                                        "order": 4
                                    }
                                ],
                                "depth": 1,
                                "id": 1,
                                "order": 1
                            }
                        ],
                        "depth": 0,
                        "id": 0,
                        "order": 0
                    }
                ],
                "depth": -1,
                "id": -1,
                "order": -1
            }
        ],
        "mainTraceNodeCount": 5,
        "parentIdMap": {
            "0": -1,
            "1": 0,
            "2": 1,
            "3": 1,
            "4": 1
        },
        "tidyTrace": [
            {
                "children": [
                    {
                        "children": [
                            {
                                "children": [
                                    {
                                        "children": [],
                                        "depth": 2,
                                        "id": 2,
                                        "order": 2
                                    },
                                    {
                                        "children": [],
                                        "depth": 2,
                                        "id": 3,
                                        "order": 3
                                    },
                                    {
                                        "children": [],
                                        "depth": 2,
                                        "id": 4,
                                        "order": 4
                                    }
                                ],
                                "depth": 1,
                                "id": 1,
                                "order": 1
                            }
                        ],
                        "depth": 0,
                        "id": 0,
                        "order": 0
                    }
                ],
                "depth": -1,
                "id": -1,
                "order": -1
            }
        ],
        "tidyTraceNodeCount": 5
    },
    "state_change": {
        "stateChanges": [
            {
                "address": "0x889edc2edab5f40e902b864ad4d7ade8e412f9b1",
                "erc": "ERC-721",
                "slots": [
                    {
                        "current": "0x00006495894b01006495c2f35957ccdd926568be8346eb604bd99bebaca36017",
                        "key": "0xdd30b0322bf2985455d1e95fb2acce102215d377e20032507d2522f51e096687",
                        "prev": "0x00006495894b00006495c2f35957ccdd926568be8346eb604bd99bebaca36017"
                    },
                    {
                        "current": "0x0000000000000000000000000000000000000000000000000000000000000000",
                        "key": "0xb83d131d622559c0313de3946af5c6d80f79d0d6a5f6a9dc8cf2973262d7b302",
                        "prev": "0x0000000000000000000000000000000000000000000000000000000000000b9d"
                    },
                    {
                        "current": "0x0000000000000000000000000000000000000000000000000000000000000000",
                        "key": "0x75d6876adbcf11f463c28a679457571059d047ed71fd9aae368c445eaf6390ed",
                        "prev": "0x0000000000000000000000000000000000000000000000000000000000000001"
                    },
                    {
                        "current": "0x0000000000000000000000000000000000000000000000000000000000000000",
                        "key": "0xda0dc321b6a27a490c5a3a60b6537917e03703a70d4d031f808fa4e1b8e6bb47",
                        "prev": "0x0000000000000000000000000000000000000000000000000000000000000001"
                    },
                    {
                        "current": "0x0000000000000000000000000000000000000000000003b189aed293bcd7cf52",
                        "key": "0x0e27eaa2e71c8572ab988fef0b54cd45bbd1740de1e22343fb6cda7536edc12f",
                        "prev": "0x0000000000000000000000000000000000000000000003b1b43ba4a4813e6ef4"
                    }
                ],
                "storageVariables": []
            }
        ]
    }
}