{
    "balance_change": {
        "balanceChanges": [
            {
                "account": "0xf778e8b6e53538408960fd4d94d7ba6966a5536f",
                "assets": [
                    {
                        "address": "0xeeeeeeeeeeeeeeeeeeeeeeeeeeeeeeeeeeeeeeee",
                        "amount": "0.001",
                        "iconUrl": "https://assets.blocksec.com/image/1663669189317-3.png",
                        "isERC1155": false,
                        "isERC721": false,
                        "sign": false,
                        "value": ""
                    }
                ]
            },
            {
                "account": "0xabea9132b05a70803a4e85094fd0e1800777fbef",
                "assets": [
                    {
                        "address": "0xeeeeeeeeeeeeeeeeeeeeeeeeeeeeeeeeeeeeeeee",
                        "amount": "0.001",
                        "iconUrl": "https://assets.blocksec.com/image/1663669189317-3.png",
                        "isERC1155": false,
                        "isERC721": false,
                        "sign": true,
                        "value": ""
                    }
                ]
            }
        ]
    },
    "profile": {
        "basic_info": {
            "baseFee": "79.711462163",
            "blockNumber": 13410507,
            "callData": "0x2d2da806000000000000000000000000f778e8b6e53538408960fd4d94d7ba6966a5536f",
            "debugEnable": true,
            "errorInfo": "",
            "eventCount": 2,
            "feeRecipient": "0x2a20380dca5bc24d052acfbf79ba23e988ad0050",
            "formatValue": "0.001",
            "gasLimit": 90000,
            "gasPrice": "87.000095009",
            "gasUsed": 62599,
            "intTxnCount": 1,
            "internalRevert": false,
            "internalRevertMessage": "",
            "isContractCreation": false,
            "isFlashloan": false,
            "maxFee": "87.000095009",
            "nonce": 0,
            "overwritedBlockNumber": -1,
            "priorityFee": "87.000095009",
            "receiver": "0xabea9132b05a70803a4e85094fd0e1800777fbef",
            "revertMessage": "",
            "sender": "0xf778e8b6e53538408960fd4d94d7ba6966a5536f",
            "simulationEnable": true,
            "sourceTxnHash": "0x6bfd892ac63202f7f7b707a65d77082cd8d21e86f95f2af4d79e430607487d11",
            "status": true,
            "timestamp": "2021-10-13T14:26:05Z",
            "transactionFee": "0.005446118947468391",
            "txnHash": "0x6bfd892ac63202f7f7b707a65d77082cd8d21e86f95f2af4d79e430607487d11",
            "txnIndex": 113,
            "type": 2,
            "value": "1000000000000000"
        },
        "fund_flow": [
            {
                "amount": "0.001",
                "from": "0xf778e8b6e53538408960fd4d94d7ba6966a5536f",
                "id": 1,
                "isERC1155": false,
                "isERC721": false,
                "isReverted": false,
                "order": 1,
                "to": "0xabea9132b05a70803a4e85094fd0e1800777fbef",
                "token": "0xeeeeeeeeeeeeeeeeeeeeeeeeeeeeeeeeeeeeeeee"
            }
        ],
        "token_infos": [
            {
                "address": "0xc02aaa39b223fe8d0a0e5c4f27ead9083c756cc2",
                "decimals": 18
            },
            {
                "address": "0xeeeeeeeeeeeeeeeeeeeeeeeeeeeeeeeeeeeeeeee",
                "decimals": 18
            }
        ]
    },
    "address_label": {
        "labels": [
            {
                "address": "0xabea9132b05a70803a4e85094fd0e1800777fbef",
                "label": "zkSync"
            },
            {
                "address": "0xd61dff4b146e8e6bdcdad5c48e72d0ba85d94dbc",
                "label": "ZkSync"
            },
            {
                "address": "0x0000000000000000000000000000000000000001",
                "label": "Precompiled"
            },
            {
                "address": "0x0000000000000000000000000000000000000002",
                "label": "Precompiled"
            },
            {
                "address": "0x0000000000000000000000000000000000000003",
                "label": "Precompiled"
            },
            {
                "address": "0x0000000000000000000000000000000000000004",
                "label": "Precompiled"
            },
            {
                "address": "0xeeeeeeeeeeeeeeeeeeeeeeeeeeeeeeeeeeeeeeee",
                "label": "Ether"
            }
        ]
    },
    "trace": {
        "accountLabels": null,
        "dataMap": {
            "-1": {
                "invocation": {
                    "address": "0xf778e8b6e53538408960fd4d94d7ba6966a5536f",
                    "callData": "",
                    "decodedMethod": null,
                    "errorInfo": "",
                    "fromAddress": "",
                    "gasUsed": 0,
                    "id": -1,
                    "methodDecoded": false,
                    "operation": "",
                    "output": "",
                    "revert": false,
                    "revertMessage": "",
                    "selector": "",
                    "status": false,
                    "value": ""
                },
                "nodeType": 0
            },
            "0": {
                "invocation": {
                    "address": "0xabea9132b05a70803a4e85094fd0e1800777fbef",
                    "callData": "0x000000000000000000000000f778e8b6e53538408960fd4d94d7ba6966a5536f",
                    "decodedMethod": {
                        "callParams": [
                            {
                                "name": "_zkSyncAddress",
                                "type": "address",
                                "value": "0xf778e8b6e53538408960fd4d94d7ba6966a5536f"
                            }
                        ],
                        "constructorArguments": "",
                        "name": "depositETH",
                        "returnParams": [],
                        "signature": "depositETH(address)"
                    },
                    "errorInfo": "",
                    "fromAddress": "0xf778e8b6e53538408960fd4d94d7ba6966a5536f",
                    "gasUsed": 62599,
                    "id": 0,
                    "methodDecoded": true,
                    "operation": "CALL",
                    "output": "",
                    "revert": false,
                    "revertMessage": "",
                    "selector": "0x2d2da806",
                    "status": true,
                    "value": "0.001"
                },
                "nodeType": 0
            },
            "1": {
                "invocation": {
                    "address": "0xd61dff4b146e8e6bdcdad5c48e72d0ba85d94dbc",
                    "callData": "0x000000000000000000000000f778e8b6e53538408960fd4d94d7ba6966a5536f",
                    "decodedMethod": {
                        "callParams": [
                            {
                                "name": "_zkSyncAddress",
                                "type": "address",
                                "value": "0xf778e8b6e53538408960fd4d94d7ba6966a5536f"
                            }
                        ],
                        "constructorArguments": "",
                        "name": "depositETH",
                        "returnParams": [],
                        "signature": "depositETH(address)"
                    },
                    "errorInfo": "",
                    "fromAddress": "0xabea9132b05a70803a4e85094fd0e1800777fbef",
                    "gasUsed": 36132,
                    "id": 1,
                    "methodDecoded": true,
                    "operation": "DELEGATECALL",
                    "output": "",
                    "revert": false,
                    "revertMessage": "",
                    "selector": "0x2d2da806",
                    "status": true,
                    "value": "0.001"
                },
                "nodeType": 0
            },
            "2": {
                "event": {
                    "contract": "0xabea9132b05a70803a4e85094fd0e1800777fbef",
                    "decodedLog": {
                        "name": "NewPriorityRequest",
                        "params": [
                            {
                                "name": "sender",
                                "type": "address",
                                "value": "0xf778e8b6e53538408960fd4d94d7ba6966a5536f"
                            },
                            {
                                "name": "serialId",
                                "type": "uint64",
                                "value": "92,939"
                            },
                            {
                                "name": "opType",
                                "type": "uint8",
                                "value": "1"
                            },
                            {
                                "name": "pubData",
                                "type": "bytes",
                                "value": "0x010000000000000000000000000000000000038d7ea4c68000f778e8b6e53538408960fd4d94d7ba6966a5536f"
                            },
                            {
                                "name": "expirationBlock",
                                "type": "uint256",
                                "value": "13,427,787"
                            }
                        ],
                        "signature": "NewPriorityRequest(address,uint64,uint8,bytes,uint256)"
                    },
                    "id": 2,
                    "logData": "0x000000000000000000000000f778e8b6e53538408960fd4d94d7ba6966a5536f0000000000000000000000000000000000000000000000000000000000016b0b000000000000000000000000000000000000000000000000000000000000000100000000000000000000000000000000000000000000000000000000000000a00000000000000000000000000000000000000000000000000000000000cce44b000000000000000000000000000000000000000000000000000000000000002d010000000000000000000000000000000000038d7ea4c68000f778e8b6e53538408960fd4d94d7ba6966a5536f00000000000000000000000000000000000000",
                    "logDecoded": true,
                    "operation": "EVENT",
                    "revert": false,
                    "status": true,
                    "topics": [
                        "0xd0943372c08b438a88d4b39d77216901079eda9ca59d45349841c099083b6830"
                    ]
                },
                "nodeType": 1
            },
            "3": {
                "event": {
                    "contract": "0xabea9132b05a70803a4e85094fd0e1800777fbef",
                    "decodedLog": {
                        "name": "Deposit",
                        "params": [
                            {
                                "name": "tokenId",
                                "type": "uint16",
                                "value": "0"
                            },
                            {
                                "name": "amount",
                                "type": "uint128",
                                "value": "1,000,000,000,000,000"
                            }
                        ],
                        "signature": "Deposit(uint16,uint128)"
                    },
                    "id": 3,
                    "logData": "0x00000000000000000000000000000000000000000000000000038d7ea4c68000",
                    "logDecoded": true,
                    "operation": "EVENT",
                    "revert": false,
                    "status": true,
                    "topics": [
                        "0x8f5f51448394699ad6a3b80cdadf4ec68c5d724c8c3fea09bea55b3c2d0e2dd0",
                        "0x0000000000000000000000000000000000000000000000000000000000000000"
                    ]
                },
                "nodeType": 1
            }
        },
        "gasFlame": [
            {
                "children": [
                    {
                        "children": [
                            {
                                "children": [],
                                "depth": 0,
                                "name": "Initial Gas",
                                "value": 21432
                            },
                            {
                                "children": [
                                    {
                                        "children": [],
                                        "depth": 1,
                                        "name": "depositETH",
                                        "value": 36132
                                    }
                                ],
                                "depth": 0,
                                "name": "Executed Gas",
                                "value": 41167
                            }
                        ],
                        "depth": -1,
                        "name": "Actual Gas Used",
                        "value": 62599
                    },
                    {
                        "children": [],
                        "depth": -1,
                        "name": "Refunded Gas",
                        "value": 0
                    }
                ],
                "depth": -2,
                "name": "Total Gas",
                "value": 62599
            }
        ],
        "isConfirmed": true,
        "mainTrace": [
            {
                "children": [
                    {
                        "children": [
                            {
                                "children": [
                                    {
                                        "children": [],
                                        "depth": 2,
                                        "id": 2,
                                        "order": 2
                                    },
                                    {
                                        "children": [],
                                        "depth": 2,
                                        "id": 3,
                                        "order": 3
                                    }
                                ],
                                "depth": 1,
                                "id": 1,
                                "order": 1
                            }
                        ],
                        "depth": 0,
                        "id": 0,
                        "order": 0
                    }
                ],
                "depth": -1,
                "id": -1,
                "order": -1
            }
        ],
        "mainTraceNodeCount": 4,
        "parentIdMap": {
            "0": -1,
            "1": 0,
            "2": 1,
            "3": 1
        },
        "tidyTrace": [
            {
                "children": [
                    {
                        "children": [
                            {
                                "children": [
                                    {
                                        "children": [],
                                        "depth": 2,
                                        "id": 2,
                                        "order": 2
                                    },
                                    {
                                        "children": [],
                                        "depth": 2,
                                        "id": 3,
                                        "order": 3
                                    }
                                ],
                                "depth": 1,
                                "id": 1,
                                "order": 1
                            }
                        ],
                        "depth": 0,
                        "id": 0,
                        "order": 0
                    }
                ],
                "depth": -1,
                "id": -1,
                "order": -1
            }
        ],
        "tidyTraceNodeCount": 4
    },
    "state_change": {
        "stateChanges": [
            {
                "address": "0xabea9132b05a70803a4e85094fd0e1800777fbef",
                "erc": "",
                "slots": [
                    {
                        "current": "0x000000010000000000cce44b0b6f66cb33e562f7486236b1550a428f80f1c129",
                        "key": "0x0ea8d2dd1ba9ea282bfd122a035d103a2910c7daa223f109dab56f5f3e8442ff",
                        "prev": "0x0000000000000000000000000000000000000000000000000000000000000000"
                    },
                    {
                        "current": "0x0000000000000000000000000000002200000000000000300000000000016adc",
                        "key": "0x000000000000000000000000000000000000000000000000000000000000000c",
                        "prev": "0x00000000000000000000000000000022000000000000002f0000000000016adc"
                    }
                ],
                "storageVariables": [
                    {
                        "name": "priorityRequests",
                        "type": "mapping(uint64 => struct Storage.PriorityOperation)",
                        "value": {
                            "pairs": [
                                {
                                    "key": "92939",
                                    "value": {
                                        "fields": [
                                            {
                                                "name": "hashedPubData",
                                                "type": "bytes20",
                                                "value": {
                                                    "current": "0x0b6f66cb33e562f7486236b1550a428f80f1c129",
                                                    "prev": "0x0000000000000000000000000000000000000000",
                                                    "typeTag": 1
                                                }
                                            },
                                            {
                                                "name": "expirationBlock",
                                                "type": "uint64",
                                                "value": {
                                                    "current": "13427787",
                                                    "prev": "0",
                                                    "typeTag": 1
                                                }
                                            },
                                            {
                                                "name": "opType",
                                                "type": "enum Operations.OpType",
                                                "value": {
                                                    "current": "1",
                                                    "prev": "0",
                                                    "typeTag": 1
                                                }
                                            }
                                        ],
                                        "typeTag": 3
                                    }
                                }
                            ],
                            "typeTag": 4
                        }
                    },
                    {
                        "name": "firstPriorityRequestId",
                        "type": "uint64",
                        "value": {
                            "current": "92892",
                            "prev": "92892",
                            "typeTag": 1
                        }
                    },
                    {
                        "name": "totalOpenPriorityRequests",
                        "type": "uint64",
                        "value": {
                            "current": "48",
                            "prev": "47",
                            "typeTag": 1
                        }
                    },
                    {
                        "name": "totalCommittedPriorityRequests",
                        "type": "uint64",
                        "value": {
                            "current": "34",
                            "prev": "34",
                            "typeTag": 1
                        }
                    }
                ]
            }
        ]
    }
}