{
    "balance_change": {
        "balanceChanges": [
            {
                "account": "0xf5bffe8f43da122a70d546cf76a07bc7b5e25fab",
                "assets": [
                    {
                        "address": "0x614fd8f06ce4d93aa2361b342c86554eb5cb39f1",
                        "amount": "18.46",
                        "iconUrl": "",
                        "isERC1155": false,
                        "isERC721": false,
                        "sign": false,
                        "value": ""
                    }
                ]
            },
            {
                "account": "0x74755495fb15d0a99e2431c46d299a18ed47bb36",
                "assets": [
                    {
                        "address": "0x614fd8f06ce4d93aa2361b342c86554eb5cb39f1",
                        "amount": "18.46",
                        "iconUrl": "",
                        "isERC1155": false,
                        "isERC721": false,
                        "sign": true,
                        "value": ""
                    }
                ]
            }
        ]
    },
    "profile": {
        "basic_info": {
            "baseFee": "",
            "blockNumber": 6867718,
            "callData": "0xa9059cbb00000000000000000000000074755495fb15d0a99e2431c46d299a18ed47bb36000000000000000000000000000000000000000000000000000000000119ad60",
            "debugEnable": true,
            "errorInfo": "",
            "eventCount": 1,
            "feeRecipient": "0xa3c084ae80a3f03963017669bc696e961d3ae5d5",
            "formatValue": "0",
            "gasLimit": 60000,
            "gasPrice": "5",
            "gasUsed": 54497,
            "intTxnCount": 1,
            "internalRevert": false,
            "internalRevertMessage": "",
            "isContractCreation": false,
            "isFlashloan": false,
            "maxFee": "",
            "nonce": 1302,
            "overwritedBlockNumber": -1,
            "priorityFee": "",
            "receiver": "0x614fd8f06ce4d93aa2361b342c86554eb5cb39f1",
            "revertMessage": "",
            "sender": "0xf5bffe8f43da122a70d546cf76a07bc7b5e25fab",
            "simulationEnable": true,
            "sourceTxnHash": "0x6b097bb74b54f08441fcf4303715d91e621742241bc311300b614593b229cbaa",
            "status": true,
            "timestamp": "2018-12-11T15:53:46Z",
            "transactionFee": "0.000272485",
            "txnHash": "0x6b097bb74b54f08441fcf4303715d91e621742241bc311300b614593b229cbaa",
            "txnIndex": 51,
            "type": 0,
            "value": "0"
        },
        "fund_flow": [
            {
                "amount": "18.46",
                "from": "0xf5bffe8f43da122a70d546cf76a07bc7b5e25fab",
                "id": 1,
                "isERC1155": false,
                "isERC721": false,
                "isReverted": false,
                "order": 1,
                "to": "0x74755495fb15d0a99e2431c46d299a18ed47bb36",
                "token": "0x614fd8f06ce4d93aa2361b342c86554eb5cb39f1"
            }
        ],
        "token_infos": [
            {
                "address": "0x614fd8f06ce4d93aa2361b342c86554eb5cb39f1",
                "decimals": 6
            },
            {
                "address": "0xc02aaa39b223fe8d0a0e5c4f27ead9083c756cc2",
                "decimals": 18
            },
            {
                "address": "0xeeeeeeeeeeeeeeeeeeeeeeeeeeeeeeeeeeeeeeee",
                "decimals": 18
            }
        ]
    },
    "address_label": {
        "labels": [
            {
                "address": "0x0000000000000000000000000000000000000004",
                "label": "Precompiled"
            },
            {
                "address": "0xeeeeeeeeeeeeeeeeeeeeeeeeeeeeeeeeeeeeeeee",
                "label": "Ether"
            },
            {
                "address": "0x614fd8f06ce4d93aa2361b342c86554eb5cb39f1",
                "label": "TYT (TYT)"
            },
            {
                "address": "0x0000000000000000000000000000000000000001",
                "label": "Precompiled"
            },
            {
                "address": "0x0000000000000000000000000000000000000002",
                "label": "Precompiled"
            },
            {
                "address": "0x0000000000000000000000000000000000000003",
                "label": "Precompiled"
            }
        ]
    },
    "trace": {
        "accountLabels": null,
        "dataMap": {
            "-1": {
                "invocation": {
                    "address": "0xf5bffe8f43da122a70d546cf76a07bc7b5e25fab",
                    "callData": "",
                    "decodedMethod": null,
                    "errorInfo": "",
                    "fromAddress": "",
                    "gasUsed": 0,
                    "id": -1,
                    "methodDecoded": false,
                    "operation": "",
                    "output": "",
                    "revert": false,
                    "revertMessage": "",
                    "selector": "",
                    "status": false,
                    "value": ""
                },
                "nodeType": 0
            },
            "0": {
                "invocation": {
                    "address": "0x614fd8f06ce4d93aa2361b342c86554eb5cb39f1",
                    "callData": "0x00000000000000000000000074755495fb15d0a99e2431c46d299a18ed47bb36000000000000000000000000000000000000000000000000000000000119ad60",
                    "decodedMethod": {
                        "callParams": [
                            {
                                "name": "recipient",
                                "type": "address",
                                "value": "0x74755495fb15d0a99e2431c46d299a18ed47bb36"
                            },
                            {
                                "decimalAvailable": true,
                                "name": "amount",
                                "type": "uint256",
                                "value": "18,460,000"
                            }
                        ],
                        "constructorArguments": "",
                        "name": "transfer",
                        "returnParams": [
                            {
                                "name": "",
                                "type": "bool",
                                "value": true
                            }
                        ],
                        "signature": "transfer(address,uint256)"
                    },
                    "errorInfo": "",
                    "fromAddress": "0xf5bffe8f43da122a70d546cf76a07bc7b5e25fab",
                    "gasUsed": 54497,
                    "id": 0,
                    "methodDecoded": true,
                    "operation": "CALL",
                    "output": "0x0000000000000000000000000000000000000000000000000000000000000001",
                    "revert": false,
                    "revertMessage": "",
                    "selector": "0xa9059cbb",
                    "status": true,
                    "value": "0"
                },
                "nodeType": 0
            },
            "1": {
                "invocation": {
                    "address": "0x93e69ad4156781ba369b060338576fb23a4b1089",
                    "callData": "0x00000000000000000000000074755495fb15d0a99e2431c46d299a18ed47bb36000000000000000000000000000000000000000000000000000000000119ad60",
                    "decodedMethod": {
                        "callParams": [
                            {
                                "name": "recipient",
                                "type": "address",
                                "value": "0x74755495fb15d0a99e2431c46d299a18ed47bb36"
                            },
                            {
                                "decimalAvailable": true,
                                "name": "amount",
                                "type": "uint256",
                                "value": "18,460,000"
                            }
                        ],
                        "constructorArguments": "",
                        "name": "transfer",
                        "returnParams": [
                            {
                                "name": "",
                                "type": "bool",
                                "value": true
                            }
                        ],
                        "signature": "transfer(address,uint256)"
                    },
                    "errorInfo": "",
                    "fromAddress": "0x614fd8f06ce4d93aa2361b342c86554eb5cb39f1",
                    "gasUsed": 28900,
                    "id": 1,
                    "methodDecoded": true,
                    "operation": "DELEGATECALL",
                    "output": "0x0000000000000000000000000000000000000000000000000000000000000001",
                    "revert": false,
                    "revertMessage": "",
                    "selector": "0xa9059cbb",
                    "status": true,
                    "value": "0"
                },
                "nodeType": 0
            },
            "2": {
                "event": {
                    "contract": "0x614fd8f06ce4d93aa2361b342c86554eb5cb39f1",
                    "decodedLog": {
                        "name": "Transfer",
                        "params": [
                            {
                                "name": "from",
                                "type": "address",
                                "value": "0xf5bffe8f43da122a70d546cf76a07bc7b5e25fab"
                            },
                            {
                                "name": "to",
                                "type": "address",
                                "value": "0x74755495fb15d0a99e2431c46d299a18ed47bb36"
                            },
                            {
                                "decimalAvailable": true,
                                "name": "value",
                                "type": "uint256",
                                "value": "18,460,000"
                            }
                        ],
                        "signature": "Transfer(address,address,uint256)"
                    },
                    "id": 2,
                    "logData": "0x000000000000000000000000000000000000000000000000000000000119ad60",
                    "logDecoded": true,
                    "operation": "EVENT",
                    "revert": false,
                    "status": true,
                    "topics": [
                        "0xddf252ad1be2c89b69c2b068fc378daa952ba7f163c4a11628f55a4df523b3ef",
                        "0x000000000000000000000000f5bffe8f43da122a70d546cf76a07bc7b5e25fab",
                        "0x00000000000000000000000074755495fb15d0a99e2431c46d299a18ed47bb36"
                    ]
                },
                "nodeType": 1
            }
        },
        "gasFlame": [
            {
                "children": [
                    {
                        "children": [
                            {
                                "children": [],
                                "depth": 0,
                                "name": "Initial Gas",
                                "value": 23064
                            },
                            {
                                "children": [
                                    {
                                        "children": [],
                                        "depth": 1,
                                        "name": "transfer",
                                        "value": 28900
                                    }
                                ],
                                "depth": 0,
                                "name": "Executed Gas",
                                "value": 31433
                            }
                        ],
                        "depth": -1,
                        "name": "Actual Gas Used",
                        "value": 54497
                    },
                    {
                        "children": [],
                        "depth": -1,
                        "name": "Refunded Gas",
                        "value": 0
                    }
                ],
                "depth": -2,
                "name": "Total Gas",
                "value": 54497
            }
        ],
        "isConfirmed": true,
        "mainTrace": [
            {
                "children": [
                    {
                        "children": [
                            {
                                "children": [
                                    {
                                        "children": [],
                                        "depth": 2,
                                        "id": 2,
                                        "order": 2
                                    }
                                ],
                                "depth": 1,
                                "id": 1,
                                "order": 1
                            }
                        ],
                        "depth": 0,
                        "id": 0,
                        "order": 0
                    }
                ],
                "depth": -1,
                "id": -1,
                "order": -1
            }
        ],
        "mainTraceNodeCount": 3,
        "parentIdMap": {
            "0": -1,
            "1": 0,
            "2": 1
        },
        "tidyTrace": [
            {
                "children": [
                    {
                        "children": [
                            {
                                "children": [
                                    {
                                        "children": [],
                                        "depth": 2,
                                        "id": 2,
                                        "order": 2
                                    }
                                ],
                                "depth": 1,
                                "id": 1,
                                "order": 1
                            }
                        ],
                        "depth": 0,
                        "id": 0,
                        "order": 0
                    }
                ],
                "depth": -1,
                "id": -1,
                "order": -1
            }
        ],
        "tidyTraceNodeCount": 3
    },
    "state_change": {
        "stateChanges": [
            {
                "address": "0x614fd8f06ce4d93aa2361b342c86554eb5cb39f1",
                "erc": "",
                "slots": [
                    {
                        "current": "0x0000000000000000000000000000000000000000000000000000010eace07a20",
                        "key": "0x5ab3c21fdb287c66add982c900dd0bb38fe1f875f6ca119614ad361537a55467",
                        "prev": "0x0000000000000000000000000000000000000000000000000000010eadfa2780"
                    },
                    {
                        "current": "0x000000000000000000000000000000000000000000000000000000000119ad60",
                        "key": "0x73586e514629151ab6072400f642de4a66ac40a2b4a19a48c88edc8603536a72",
                        "prev": "0x0000000000000000000000000000000000000000000000000000000000000000"
                    }
                ],
                "storageVariables": []
            }
        ]
    }
}