{
    "balance_change": {
        "balanceChanges": []
    },
    "profile": {
        "basic_info": {
            "baseFee": "",
            "blockNumber": 3771345,
            "callData": "0xe1fa8e8441adf312260c7bf5d656470df7a6fefeb0fcc537f82a3dba5bc638007ab00d00",
            "debugEnable": true,
            "errorInfo": "",
            "eventCount": 1,
            "feeRecipient": "0x2a65aca4d5fc5b5c859090a6c34d164135398226",
            "formatValue": "0",
            "gasLimit": 940000,
            "gasPrice": "21",
            "gasUsed": 65736,
            "intTxnCount": 0,
            "internalRevert": false,
            "internalRevertMessage": "",
            "isContractCreation": false,
            "isFlashloan": false,
            "maxFee": "",
            "nonce": 392421,
            "overwritedBlockNumber": -1,
            "priorityFee": "",
            "receiver": "0xcd111aa492a9c77a367c36e6d6af8e6f212e0c8e",
            "revertMessage": "",
            "sender": "0x00472c1e4275230354dbe5007a5976053f12610a",
            "simulationEnable": true,
            "sourceTxnHash": "0x6bd41f9c678bb073855ab5b5e104afb0a044e0897af5d71302d66cb378f55a7e",
            "status": true,
            "timestamp": "2017-05-26T15:41:32Z",
            "transactionFee": "0.001380456",
            "txnHash": "0x6bd41f9c678bb073855ab5b5e104afb0a044e0897af5d71302d66cb378f55a7e",
            "txnIndex": 1,
            "type": 0,
            "value": "0"
        },
        "fund_flow": [],
        "token_infos": [
            {
                "address": "0xeeeeeeeeeeeeeeeeeeeeeeeeeeeeeeeeeeeeeeee",
                "decimals": 18
            },
            {
                "address": "0xc02aaa39b223fe8d0a0e5c4f27ead9083c756cc2",
                "decimals": 18
            }
        ]
    },
    "address_label": {
        "labels": [
            {
                "address": "0x00472c1e4275230354dbe5007a5976053f12610a",
                "label": "Acronis"
            },
            {
                "address": "0xcd111aa492a9c77a367c36e6d6af8e6f212e0c8e",
                "label": "Acronis: Contract"
            },
            {
                "address": "0x0000000000000000000000000000000000000001",
                "label": "Precompiled"
            },
            {
                "address": "0x0000000000000000000000000000000000000002",
                "label": "Precompiled"
            },
            {
                "address": "0x0000000000000000000000000000000000000003",
                "label": "Precompiled"
            },
            {
                "address": "0x0000000000000000000000000000000000000004",
                "label": "Precompiled"
            },
            {
                "address": "0xeeeeeeeeeeeeeeeeeeeeeeeeeeeeeeeeeeeeeeee",
                "label": "Ether"
            }
        ]
    },
    "trace": {
        "accountLabels": null,
        "dataMap": {
            "-1": {
                "invocation": {
                    "address": "0x00472c1e4275230354dbe5007a5976053f12610a",
                    "callData": "",
                    "decodedMethod": null,
                    "errorInfo": "",
                    "fromAddress": "",
                    "gasUsed": 0,
                    "id": -1,
                    "methodDecoded": false,
                    "operation": "",
                    "output": "",
                    "revert": false,
                    "revertMessage": "",
                    "selector": "",
                    "status": false,
                    "value": ""
                },
                "nodeType": 0
            },
            "0": {
                "invocation": {
                    "address": "0xcd111aa492a9c77a367c36e6d6af8e6f212e0c8e",
                    "callData": "0x41adf312260c7bf5d656470df7a6fefeb0fcc537f82a3dba5bc638007ab00d00",
                    "decodedMethod": {
                        "callParams": [
                            {
                                "name": "id",
                                "type": "bytes32",
                                "value": "0x41adf312260c7bf5d656470df7a6fefeb0fcc537f82a3dba5bc638007ab00d00"
                            }
                        ],
                        "constructorArguments": "",
                        "name": "register",
                        "returnParams": [],
                        "signature": "register(bytes32)"
                    },
                    "errorInfo": "",
                    "fromAddress": "0x00472c1e4275230354dbe5007a5976053f12610a",
                    "gasUsed": 65736,
                    "id": 0,
                    "methodDecoded": true,
                    "operation": "CALL",
                    "output": "",
                    "revert": false,
                    "revertMessage": "",
                    "selector": "0xe1fa8e84",
                    "status": true,
                    "value": "0"
                },
                "nodeType": 0
            },
            "1": {
                "event": {
                    "contract": "0xcd111aa492a9c77a367c36e6d6af8e6f212e0c8e",
                    "decodedLog": null,
                    "id": 1,
                    "logData": "0x41adf312260c7bf5d656470df7a6fefeb0fcc537f82a3dba5bc638007ab00d00",
                    "logDecoded": false,
                    "operation": "EVENT",
                    "revert": false,
                    "status": true,
                    "topics": [
                        "0x78e4fc71ff7e525b3b4660a76336a2046232fd9bba9c65abb22fa3d07d6e7066"
                    ]
                },
                "nodeType": 1
            }
        },
        "gasFlame": [
            {
                "children": [
                    {
                        "children": [
                            {
                                "children": [],
                                "depth": 0,
                                "name": "Initial Gas",
                                "value": 23320
                            },
                            {
                                "children": [],
                                "depth": 0,
                                "name": "Executed Gas",
                                "value": 42416
                            }
                        ],
                        "depth": -1,
                        "name": "Actual Gas Used",
                        "value": 65736
                    },
                    {
                        "children": [],
                        "depth": -1,
                        "name": "Refunded Gas",
                        "value": 0
                    }
                ],
                "depth": -2,
                "name": "Total Gas",
                "value": 65736
            }
        ],
        "isConfirmed": true,
        "mainTrace": [
            {
                "children": [
                    {
                        "children": [
                            {
                                "children": [],
                                "depth": 1,
                                "id": 1,
                                "order": 1
                            }
                        ],
                        "depth": 0,
                        "id": 0,
                        "order": 0
                    }
                ],
                "depth": -1,
                "id": -1,
                "order": -1
            }
        ],
        "mainTraceNodeCount": 2,
        "parentIdMap": {
            "0": -1,
            "1": 0
        },
        "tidyTrace": [
            {
                "children": [
                    {
                        "children": [
                            {
                                "children": [],
                                "depth": 1,
                                "id": 1,
                                "order": 1
                            }
                        ],
                        "depth": 0,
                        "id": 0,
                        "order": 0
                    }
                ],
                "depth": -1,
                "id": -1,
                "order": -1
            }
        ],
        "tidyTraceNodeCount": 2
    },
    "state_change": {
        "stateChanges": [
            {
                "address": "0xcd111aa492a9c77a367c36e6d6af8e6f212e0c8e",
                "erc": "",
                "slots": [
                    {
                        "current": "0x0000000000000000000000000000000000000000000000000000000059284cac",
                        "key": "0x34335c964346f8065c746f55385bf0140d809f2b5e7a7aff96216b1a5d916eac",
                        "prev": "0x0000000000000000000000000000000000000000000000000000000000000000"
                    },
                    {
                        "current": "0x00000000000000000000000000472c1e4275230354dbe5007a5976053f12610a",
                        "key": "0x34335c964346f8065c746f55385bf0140d809f2b5e7a7aff96216b1a5d916eab",
                        "prev": "0x0000000000000000000000000000000000000000000000000000000000000000"
                    }
                ],
                "storageVariables": []
            }
        ]
    }
}