{
    "balance_change": {
        "balanceChanges": [
            {
                "account": "0x7445bcce9a8af35708122ef3c56bef2d90e19885",
                "assets": [
                    {
                        "address": "0x1b80eeeadcc590f305945bcc258cfa770bbe1890",
                        "amount": "242,271.953347207769684356",
                        "iconUrl": "",
                        "isERC1155": false,
                        "isERC721": false,
                        "sign": false,
                        "value": ""
                    }
                ]
            },
            {
                "account": "0x2a0c0dbecc7e4d658f48e01e3fa353f44050c208",
                "assets": [
                    {
                        "address": "0x1b80eeeadcc590f305945bcc258cfa770bbe1890",
                        "amount": "242,271.953347207769684356",
                        "iconUrl": "",
                        "isERC1155": false,
                        "isERC721": false,
                        "sign": true,
                        "value": ""
                    }
                ]
            }
        ]
    },
    "profile": {
        "basic_info": {
            "baseFee": "",
            "blockNumber": 7940197,
            "callData": "0x338b5dea0000000000000000000000001b80eeeadcc590f305945bcc258cfa770bbe189000000000000000000000000000000000000000000000334d96c2a576a8d4f984",
            "debugEnable": true,
            "errorInfo": "",
            "eventCount": 2,
            "feeRecipient": "0x4c549990a7ef3fea8784406c1eecc98bf4211fa5",
            "formatValue": "0",
            "gasLimit": 250000,
            "gasPrice": "4",
            "gasUsed": 44350,
            "intTxnCount": 1,
            "internalRevert": false,
            "internalRevertMessage": "",
            "isContractCreation": false,
            "isFlashloan": false,
            "maxFee": "",
            "nonce": 681,
            "overwritedBlockNumber": -1,
            "priorityFee": "",
            "receiver": "0x2a0c0dbecc7e4d658f48e01e3fa353f44050c208",
            "revertMessage": "",
            "sender": "0x7445bcce9a8af35708122ef3c56bef2d90e19885",
            "simulationEnable": true,
            "sourceTxnHash": "0x6bf3f17ba99cb03d980489d6df447396b7344277368b35435c6b33eed7b500fa",
            "status": true,
            "timestamp": "2019-06-11T22:19:22Z",
            "transactionFee": "0.0001774",
            "txnHash": "0x6bf3f17ba99cb03d980489d6df447396b7344277368b35435c6b33eed7b500fa",
            "txnIndex": 6,
            "type": 0,
            "value": "0"
        },
        "fund_flow": [
            {
                "amount": "242,271.953347207769684356",
                "from": "0x7445bcce9a8af35708122ef3c56bef2d90e19885",
                "id": 1,
                "isERC1155": false,
                "isERC721": false,
                "isReverted": false,
                "order": 1,
                "to": "0x2a0c0dbecc7e4d658f48e01e3fa353f44050c208",
                "token": "0x1b80eeeadcc590f305945bcc258cfa770bbe1890"
            }
        ],
        "token_infos": [
            {
                "address": "0x1b80eeeadcc590f305945bcc258cfa770bbe1890",
                "decimals": 18
            },
            {
                "address": "0xc02aaa39b223fe8d0a0e5c4f27ead9083c756cc2",
                "decimals": 18
            },
            {
                "address": "0xeeeeeeeeeeeeeeeeeeeeeeeeeeeeeeeeeeeeeeee",
                "decimals": 18
            }
        ]
    },
    "address_label": {
        "labels": [
            {
                "address": "0xeeeeeeeeeeeeeeeeeeeeeeeeeeeeeeeeeeeeeeee",
                "label": "Ether"
            },
            {
                "address": "0x1b80eeeadcc590f305945bcc258cfa770bbe1890",
                "label": "Bitsdaq: BQQQ Token"
            },
            {
                "address": "0x2a0c0dbecc7e4d658f48e01e3fa353f44050c208",
                "label": "IDEX"
            },
            {
                "address": "0x0000000000000000000000000000000000000001",
                "label": "Precompiled"
            },
            {
                "address": "0x0000000000000000000000000000000000000002",
                "label": "Precompiled"
            },
            {
                "address": "0x0000000000000000000000000000000000000003",
                "label": "Precompiled"
            },
            {
                "address": "0x0000000000000000000000000000000000000004",
                "label": "Precompiled"
            }
        ]
    },
    "trace": {
        "accountLabels": null,
        "dataMap": {
            "-1": {
                "invocation": {
                    "address": "0x7445bcce9a8af35708122ef3c56bef2d90e19885",
                    "callData": "",
                    "decodedMethod": null,
                    "errorInfo": "",
                    "fromAddress": "",
                    "gasUsed": 0,
                    "id": -1,
                    "methodDecoded": false,
                    "operation": "",
                    "output": "",
                    "revert": false,
                    "revertMessage": "",
                    "selector": "",
                    "status": false,
                    "value": ""
                },
                "nodeType": 0
            },
            "0": {
                "invocation": {
                    "address": "0x2a0c0dbecc7e4d658f48e01e3fa353f44050c208",
                    "callData": "0x0000000000000000000000001b80eeeadcc590f305945bcc258cfa770bbe189000000000000000000000000000000000000000000000334d96c2a576a8d4f984",
                    "decodedMethod": {
                        "callParams": [
                            {
                                "name": "token",
                                "type": "address",
                                "value": "0x1b80eeeadcc590f305945bcc258cfa770bbe1890"
                            },
                            {
                                "name": "amount",
                                "type": "uint256",
                                "value": "242,271,953,347,207,769,684,356"
                            }
                        ],
                        "constructorArguments": "",
                        "name": "depositToken",
                        "returnParams": [],
                        "signature": "depositToken(address,uint256)"
                    },
                    "errorInfo": "",
                    "fromAddress": "0x7445bcce9a8af35708122ef3c56bef2d90e19885",
                    "gasUsed": 44350,
                    "id": 0,
                    "methodDecoded": true,
                    "operation": "CALL",
                    "output": "",
                    "revert": false,
                    "revertMessage": "",
                    "selector": "0x338b5dea",
                    "status": true,
                    "value": "0"
                },
                "nodeType": 0
            },
            "1": {
                "invocation": {
                    "address": "0x1b80eeeadcc590f305945bcc258cfa770bbe1890",
                    "callData": "0x0000000000000000000000007445bcce9a8af35708122ef3c56bef2d90e198850000000000000000000000002a0c0dbecc7e4d658f48e01e3fa353f44050c20800000000000000000000000000000000000000000000334d96c2a576a8d4f984",
                    "decodedMethod": {
                        "callParams": [
                            {
                                "name": "from",
                                "type": "address",
                                "value": "0x7445bcce9a8af35708122ef3c56bef2d90e19885"
                            },
                            {
                                "name": "to",
                                "type": "address",
                                "value": "0x2a0c0dbecc7e4d658f48e01e3fa353f44050c208"
                            },
                            {
                                "decimalAvailable": true,
                                "name": "value",
                                "type": "uint256",
                                "value": "242,271,953,347,207,769,684,356"
                            }
                        ],
                        "constructorArguments": "",
                        "name": "transferFrom",
                        "returnParams": [
                            {
                                "name": "",
                                "type": "bool",
                                "value": true
                            }
                        ],
                        "signature": "transferFrom(address,address,uint256)"
                    },
                    "errorInfo": "",
                    "fromAddress": "0x2a0c0dbecc7e4d658f48e01e3fa353f44050c208",
                    "gasUsed": 20423,
                    "id": 1,
                    "methodDecoded": true,
                    "operation": "CALL",
                    "output": "0x0000000000000000000000000000000000000000000000000000000000000001",
                    "revert": false,
                    "revertMessage": "",
                    "selector": "0x23b872dd",
                    "status": true,
                    "value": "0"
                },
                "nodeType": 0
            },
            "2": {
                "event": {
                    "contract": "0x1b80eeeadcc590f305945bcc258cfa770bbe1890",
                    "decodedLog": {
                        "name": "Transfer",
                        "params": [
                            {
                                "name": "from",
                                "type": "address",
                                "value": "0x7445bcce9a8af35708122ef3c56bef2d90e19885"
                            },
                            {
                                "name": "to",
                                "type": "address",
                                "value": "0x2a0c0dbecc7e4d658f48e01e3fa353f44050c208"
                            },
                            {
                                "decimalAvailable": true,
                                "name": "value",
                                "type": "uint256",
                                "value": "242,271,953,347,207,769,684,356"
                            }
                        ],
                        "signature": "Transfer(address,address,uint256)"
                    },
                    "id": 2,
                    "logData": "0x00000000000000000000000000000000000000000000334d96c2a576a8d4f984",
                    "logDecoded": true,
                    "operation": "EVENT",
                    "revert": false,
                    "status": true,
                    "topics": [
                        "0xddf252ad1be2c89b69c2b068fc378daa952ba7f163c4a11628f55a4df523b3ef",
                        "0x0000000000000000000000007445bcce9a8af35708122ef3c56bef2d90e19885",
                        "0x0000000000000000000000002a0c0dbecc7e4d658f48e01e3fa353f44050c208"
                    ]
                },
                "nodeType": 1
            },
            "3": {
                "event": {
                    "contract": "0x2a0c0dbecc7e4d658f48e01e3fa353f44050c208",
                    "decodedLog": {
                        "name": "Deposit",
                        "params": [
                            {
                                "name": "token",
                                "type": "address",
                                "value": "0x1b80eeeadcc590f305945bcc258cfa770bbe1890"
                            },
                            {
                                "name": "user",
                                "type": "address",
                                "value": "0x7445bcce9a8af35708122ef3c56bef2d90e19885"
                            },
                            {
                                "name": "amount",
                                "type": "uint256",
                                "value": "242,271,953,347,207,769,684,356"
                            },
                            {
                                "name": "balance",
                                "type": "uint256",
                                "value": "242,271,953,347,207,769,684,356"
                            }
                        ],
                        "signature": "Deposit(address,address,uint256,uint256)"
                    },
                    "id": 3,
                    "logData": "0x0000000000000000000000001b80eeeadcc590f305945bcc258cfa770bbe18900000000000000000000000007445bcce9a8af35708122ef3c56bef2d90e1988500000000000000000000000000000000000000000000334d96c2a576a8d4f98400000000000000000000000000000000000000000000334d96c2a576a8d4f984",
                    "logDecoded": true,
                    "operation": "EVENT",
                    "revert": false,
                    "status": true,
                    "topics": [
                        "0xdcbc1c05240f31ff3ad067ef1ee35ce4997762752e3a095284754544f4c709d7"
                    ]
                },
                "nodeType": 1
            }
        },
        "gasFlame": [
            {
                "children": [
                    {
                        "children": [
                            {
                                "children": [],
                                "depth": 0,
                                "name": "Initial Gas",
                                "value": 23448
                            },
                            {
                                "children": [
                                    {
                                        "children": [],
                                        "depth": 1,
                                        "name": "transferFrom",
                                        "value": 20423
                                    }
                                ],
                                "depth": 0,
                                "name": "Executed Gas",
                                "value": 50902
                            }
                        ],
                        "depth": -1,
                        "name": "Actual Gas Used",
                        "value": 44350
                    },
                    {
                        "children": [],
                        "depth": -1,
                        "name": "Refunded Gas",
                        "value": 30000
                    }
                ],
                "depth": -2,
                "name": "Total Gas",
                "value": 74350
            }
        ],
        "isConfirmed": true,
        "mainTrace": [
            {
                "children": [
                    {
                        "children": [
                            {
                                "children": [
                                    {
                                        "children": [],
                                        "depth": 2,
                                        "id": 2,
                                        "order": 2
                                    }
                                ],
                                "depth": 1,
                                "id": 1,
                                "order": 1
                            },
                            {
                                "children": [],
                                "depth": 1,
                                "id": 3,
                                "order": 3
                            }
                        ],
                        "depth": 0,
                        "id": 0,
                        "order": 0
                    }
                ],
                "depth": -1,
                "id": -1,
                "order": -1
            }
        ],
        "mainTraceNodeCount": 4,
        "parentIdMap": {
            "0": -1,
            "1": 0,
            "2": 1,
            "3": 0
        },
        "tidyTrace": [
            {
                "children": [
                    {
                        "children": [
                            {
                                "children": [
                                    {
                                        "children": [],
                                        "depth": 2,
                                        "id": 2,
                                        "order": 2
                                    }
                                ],
                                "depth": 1,
                                "id": 1,
                                "order": 1
                            },
                            {
                                "children": [],
                                "depth": 1,
                                "id": 3,
                                "order": 3
                            }
                        ],
                        "depth": 0,
                        "id": 0,
                        "order": 0
                    }
                ],
                "depth": -1,
                "id": -1,
                "order": -1
            }
        ],
        "tidyTraceNodeCount": 4
    },
    "state_change": {
        "stateChanges": [
            {
                "address": "0x1b80eeeadcc590f305945bcc258cfa770bbe1890",
                "erc": "ERC-20",
                "slots": [
                    {
                        "current": "0x0000000000000000000000000000000000000000000000000000000000000000",
                        "key": "0xbccee3a4fe612bc148a9d863b7d80817ae6fa72fd0918a48e804f572a99f02ad",
                        "prev": "0x00000000000000000000000000000000000000000000334d96c2a576a8d4f984"
                    },
                    {
                        "current": "0x0000000000000000000000000000000000000000000a3df38b474ecb282cd474",
                        "key": "0xf1422a95130756a1ec090bcbf2c53d7e9ed83b89b668d3788cf61dc65d32590b",
                        "prev": "0x0000000000000000000000000000000000000000000a0aa5f484a9547f57daf0"
                    },
                    {
                        "current": "0x0000000000000000000000000000000000000000000000000000000000000000",
                        "key": "0xcf7d1e4d2a6394c84a3253ac9073ee2ee07ad5c05a9752925111e71a33e6f8e6",
                        "prev": "0x00000000000000000000000000000000000000000000334d96c2a576a8d4f984"
                    }
                ],
                "storageVariables": [
                    {
                        "name": "balances",
                        "type": "mapping(address => uint256)",
                        "value": {
                            "pairs": [
                                {
                                    "key": "0x2a0c0dbecc7e4d658f48e01e3fa353f44050c208",
                                    "value": {
                                        "current": "12381815146488180603933812",
                                        "prev": "12139543193140972834249456",
                                        "typeTag": 1
                                    }
                                },
                                {
                                    "key": "0x7445bcce9a8af35708122ef3c56bef2d90e19885",
                                    "value": {
                                        "current": "0",
                                        "prev": "242271953347207769684356",
                                        "typeTag": 1
                                    }
                                }
                            ],
                            "typeTag": 4
                        }
                    },
                    {
                        "name": "allowed",
                        "type": "mapping(address => mapping(address => uint256))",
                        "value": {
                            "pairs": [
                                {
                                    "key": "0x7445bcce9a8af35708122ef3c56bef2d90e19885",
                                    "value": {
                                        "pairs": [
                                            {
                                                "key": "0x2a0c0dbecc7e4d658f48e01e3fa353f44050c208",
                                                "value": {
                                                    "current": "0",
                                                    "prev": "242271953347207769684356",
                                                    "typeTag": 1
                                                }
                                            }
                                        ],
                                        "typeTag": 4
                                    }
                                }
                            ],
                            "typeTag": 4
                        }
                    }
                ]
            },
            {
                "address": "0x2a0c0dbecc7e4d658f48e01e3fa353f44050c208",
                "erc": "",
                "slots": [
                    {
                        "current": "0x00000000000000000000000000000000000000000000334d96c2a576a8d4f984",
                        "key": "0x565150794cefb73570ea04725c2d03af5ed020296d98451b64d937f95076810b",
                        "prev": "0x0000000000000000000000000000000000000000000000000000000000000000"
                    },
                    {
                        "current": "0x0000000000000000000000000000000000000000000000000000000000792865",
                        "key": "0xf4e93169c372d2782c8831b8f8e7dff7909132037e05ca425d57e93c092a42c4",
                        "prev": "0x000000000000000000000000000000000000000000000000000000000076affc"
                    }
                ],
                "storageVariables": [
                    {
                        "name": "lastActiveTransaction",
                        "type": "mapping(address => uint256)",
                        "value": {
                            "pairs": [
                                {
                                    "key": "0x7445bcce9a8af35708122ef3c56bef2d90e19885",
                                    "value": {
                                        "current": "7940197",
                                        "prev": "7778300",
                                        "typeTag": 1
                                    }
                                }
                            ],
                            "typeTag": 4
                        }
                    },
                    {
                        "name": "tokens",
                        "type": "mapping(address => mapping(address => uint256))",
                        "value": {
                            "pairs": [
                                {
                                    "key": "0x1b80eeeadcc590f305945bcc258cfa770bbe1890",
                                    "value": {
                                        "pairs": [
                                            {
                                                "key": "0x7445bcce9a8af35708122ef3c56bef2d90e19885",
                                                "value": {
                                                    "current": "242271953347207769684356",
                                                    "prev": "0",
                                                    "typeTag": 1
                                                }
                                            }
                                        ],
                                        "typeTag": 4
                                    }
                                }
                            ],
                            "typeTag": 4
                        }
                    }
                ]
            }
        ]
    }
}