{
    "balance_change": {
        "balanceChanges": []
    },
    "profile": {
        "basic_info": {
            "baseFee": "",
            "blockNumber": 3214461,
            "callData": "0x1bbfb029000000000000000000000000a5eeab9d011bc4ec2dc1ec6f98c92ad48c624fef000000000000000000000000277cb0dda6746b5b87f8c817758344b3987850f6000000000000000000000000000000000000000000000000000000000000002d000000000000000000000000000000000000000000000000000000000000008000000000000000000000000000000000000000000000000000000000000000043632344600000000000000000000000000000000000000000000000000000000",
            "debugEnable": true,
            "errorInfo": "",
            "eventCount": 2,
            "feeRecipient": "0x1e9939daaad6924ad004c2560e90804164900341",
            "formatValue": "0",
            "gasLimit": 300000,
            "gasPrice": "93.316236546",
            "gasUsed": 45234,
            "intTxnCount": 1,
            "internalRevert": false,
            "internalRevertMessage": "",
            "isContractCreation": false,
            "isFlashloan": false,
            "maxFee": "",
            "nonce": 1750,
            "overwritedBlockNumber": -1,
            "priorityFee": "",
            "receiver": "0x3ec225d0cd929148a1473c546c06dd1ee9f558b1",
            "revertMessage": "",
            "sender": "0xd87064f2ca9bb2ec333d4a0b02011afdf39c4fb0",
            "simulationEnable": true,
            "sourceTxnHash": "0x6cb71e0f5d38bce5553acab1eb212ae5ba4b71cff2c6638d7da0a8864f89b07d",
            "status": true,
            "timestamp": "2017-02-19T22:17:47Z",
            "transactionFee": "0.004221066643921764",
            "txnHash": "0x6cb71e0f5d38bce5553acab1eb212ae5ba4b71cff2c6638d7da0a8864f89b07d",
            "txnIndex": 0,
            "type": 0,
            "value": "0"
        },
        "fund_flow": [],
        "token_infos": [
            {
                "address": "0xc02aaa39b223fe8d0a0e5c4f27ead9083c756cc2",
                "decimals": 18
            },
            {
                "address": "0xeeeeeeeeeeeeeeeeeeeeeeeeeeeeeeeeeeeeeeee",
                "decimals": 18
            }
        ]
    },
    "address_label": {
        "labels": [
            {
                "address": "0x0000000000000000000000000000000000000004",
                "label": "Precompiled"
            },
            {
                "address": "0xeeeeeeeeeeeeeeeeeeeeeeeeeeeeeeeeeeeeeeee",
                "label": "Ether"
            },
            {
                "address": "0xc3ef562cc403c8f9edf7c3826655fbf50f4ddde8",
                "label": "StableBalancer"
            },
            {
                "address": "0x0000000000000000000000000000000000000001",
                "label": "Precompiled"
            },
            {
                "address": "0x0000000000000000000000000000000000000002",
                "label": "Precompiled"
            },
            {
                "address": "0x0000000000000000000000000000000000000003",
                "label": "Precompiled"
            }
        ]
    },
    "trace": {
        "accountLabels": null,
        "dataMap": {
            "-1": {
                "invocation": {
                    "address": "0xd87064f2ca9bb2ec333d4a0b02011afdf39c4fb0",
                    "callData": "",
                    "decodedMethod": null,
                    "errorInfo": "",
                    "fromAddress": "",
                    "gasUsed": 0,
                    "id": -1,
                    "methodDecoded": false,
                    "operation": "",
                    "output": "",
                    "revert": false,
                    "revertMessage": "",
                    "selector": "",
                    "status": false,
                    "value": ""
                },
                "nodeType": 0
            },
            "0": {
                "invocation": {
                    "address": "0x3ec225d0cd929148a1473c546c06dd1ee9f558b1",
                    "callData": "0x000000000000000000000000a5eeab9d011bc4ec2dc1ec6f98c92ad48c624fef000000000000000000000000277cb0dda6746b5b87f8c817758344b3987850f6000000000000000000000000000000000000000000000000000000000000002d000000000000000000000000000000000000000000000000000000000000008000000000000000000000000000000000000000000000000000000000000000043632344600000000000000000000000000000000000000000000000000000000",
                    "decodedMethod": {
                        "callParams": [
                            {
                                "name": "_from",
                                "type": "address",
                                "value": "0xa5eeab9d011bc4ec2dc1ec6f98c92ad48c624fef"
                            },
                            {
                                "name": "_to",
                                "type": "address",
                                "value": "0x277cb0dda6746b5b87f8c817758344b3987850f6"
                            },
                            {
                                "name": "_value",
                                "type": "uint256",
                                "value": "45"
                            },
                            {
                                "name": "_txt",
                                "type": "string",
                                "value": "624F"
                            }
                        ],
                        "constructorArguments": "",
                        "name": "addTx",
                        "returnParams": [],
                        "signature": "addTx(address,address,uint256,string)"
                    },
                    "errorInfo": "",
                    "fromAddress": "0xd87064f2ca9bb2ec333d4a0b02011afdf39c4fb0",
                    "gasUsed": 45234,
                    "id": 0,
                    "methodDecoded": true,
                    "operation": "CALL",
                    "output": "",
                    "revert": false,
                    "revertMessage": "",
                    "selector": "0x1bbfb029",
                    "status": true,
                    "value": "0"
                },
                "nodeType": 0
            },
            "1": {
                "invocation": {
                    "address": "0xc3ef562cc403c8f9edf7c3826655fbf50f4ddde8",
                    "callData": "0x000000000000000000000000a5eeab9d011bc4ec2dc1ec6f98c92ad48c624fef000000000000000000000000277cb0dda6746b5b87f8c817758344b3987850f6000000000000000000000000000000000000000000000000000000000000002d000000000000000000000000000000000000000000000000000000000000008000000000000000000000000000000000000000000000000000000000000000043632344600000000000000000000000000000000000000000000000000000000",
                    "decodedMethod": {
                        "callParams": [
                            {
                                "name": "_from",
                                "type": "address",
                                "value": "0xa5eeab9d011bc4ec2dc1ec6f98c92ad48c624fef"
                            },
                            {
                                "name": "_to",
                                "type": "address",
                                "value": "0x277cb0dda6746b5b87f8c817758344b3987850f6"
                            },
                            {
                                "name": "_value",
                                "type": "uint256",
                                "value": "45"
                            },
                            {
                                "name": "_txt",
                                "type": "string",
                                "value": "624F"
                            }
                        ],
                        "constructorArguments": "",
                        "name": "addTx",
                        "returnParams": [],
                        "signature": "addTx(address,address,uint256,string)"
                    },
                    "errorInfo": "",
                    "fromAddress": "0x3ec225d0cd929148a1473c546c06dd1ee9f558b1",
                    "gasUsed": 14069,
                    "id": 1,
                    "methodDecoded": true,
                    "operation": "CALL",
                    "output": "",
                    "revert": false,
                    "revertMessage": "",
                    "selector": "0x1bbfb029",
                    "status": true,
                    "value": "0"
                },
                "nodeType": 0
            },
            "2": {
                "event": {
                    "contract": "0xc3ef562cc403c8f9edf7c3826655fbf50f4ddde8",
                    "decodedLog": {
                        "name": "Tx",
                        "params": [
                            {
                                "name": "_from",
                                "type": "address",
                                "value": "0xa5eeab9d011bc4ec2dc1ec6f98c92ad48c624fef"
                            },
                            {
                                "name": "_to",
                                "type": "address",
                                "value": "0x277cb0dda6746b5b87f8c817758344b3987850f6"
                            },
                            {
                                "name": "_value",
                                "type": "uint256",
                                "value": "45"
                            },
                            {
                                "name": "_txt",
                                "type": "string",
                                "value": "624F"
                            }
                        ],
                        "signature": "Tx(address,address,uint256,string)"
                    },
                    "id": 2,
                    "logData": "0x000000000000000000000000a5eeab9d011bc4ec2dc1ec6f98c92ad48c624fef000000000000000000000000277cb0dda6746b5b87f8c817758344b3987850f6000000000000000000000000000000000000000000000000000000000000002d000000000000000000000000000000000000000000000000000000000000008000000000000000000000000000000000000000000000000000000000000000043632344600000000000000000000000000000000000000000000000000000000",
                    "logDecoded": true,
                    "operation": "EVENT",
                    "revert": false,
                    "status": true,
                    "topics": [
                        "0xe4c14a344e557cc7c4b7e0d1f6dff174b9a6ad4e51273606bd0c0d4bd6339303"
                    ]
                },
                "nodeType": 1
            },
            "3": {
                "event": {
                    "contract": "0x3ec225d0cd929148a1473c546c06dd1ee9f558b1",
                    "decodedLog": {
                        "name": "Tx",
                        "params": [
                            {
                                "name": "_from",
                                "type": "address",
                                "value": "0xa5eeab9d011bc4ec2dc1ec6f98c92ad48c624fef"
                            },
                            {
                                "name": "_to",
                                "type": "address",
                                "value": "0x277cb0dda6746b5b87f8c817758344b3987850f6"
                            },
                            {
                                "name": "_value",
                                "type": "uint256",
                                "value": "45"
                            },
                            {
                                "name": "_txt",
                                "type": "string",
                                "value": "624F"
                            }
                        ],
                        "signature": "Tx(address,address,uint256,string)"
                    },
                    "id": 3,
                    "logData": "0x000000000000000000000000a5eeab9d011bc4ec2dc1ec6f98c92ad48c624fef000000000000000000000000277cb0dda6746b5b87f8c817758344b3987850f6000000000000000000000000000000000000000000000000000000000000002d000000000000000000000000000000000000000000000000000000000000008000000000000000000000000000000000000000000000000000000000000000043632344600000000000000000000000000000000000000000000000000000000",
                    "logDecoded": true,
                    "operation": "EVENT",
                    "revert": false,
                    "status": true,
                    "topics": [
                        "0xe4c14a344e557cc7c4b7e0d1f6dff174b9a6ad4e51273606bd0c0d4bd6339303"
                    ]
                },
                "nodeType": 1
            }
        },
        "gasFlame": [
            {
                "children": [
                    {
                        "children": [
                            {
                                "children": [],
                                "depth": 0,
                                "name": "Initial Gas",
                                "value": 25048
                            },
                            {
                                "children": [
                                    {
                                        "children": [],
                                        "depth": 1,
                                        "name": "addTx",
                                        "value": 14069
                                    }
                                ],
                                "depth": 0,
                                "name": "Executed Gas",
                                "value": 20186
                            }
                        ],
                        "depth": -1,
                        "name": "Actual Gas Used",
                        "value": 45234
                    },
                    {
                        "children": [],
                        "depth": -1,
                        "name": "Refunded Gas",
                        "value": 0
                    }
                ],
                "depth": -2,
                "name": "Total Gas",
                "value": 45234
            }
        ],
        "isConfirmed": true,
        "mainTrace": [
            {
                "children": [
                    {
                        "children": [
                            {
                                "children": [
                                    {
                                        "children": [],
                                        "depth": 2,
                                        "id": 2,
                                        "order": 2
                                    }
                                ],
                                "depth": 1,
                                "id": 1,
                                "order": 1
                            },
                            {
                                "children": [],
                                "depth": 1,
                                "id": 3,
                                "order": 3
                            }
                        ],
                        "depth": 0,
                        "id": 0,
                        "order": 0
                    }
                ],
                "depth": -1,
                "id": -1,
                "order": -1
            }
        ],
        "mainTraceNodeCount": 4,
        "parentIdMap": {
            "0": -1,
            "1": 0,
            "2": 1,
            "3": 0
        },
        "tidyTrace": [
            {
                "children": [
                    {
                        "children": [
                            {
                                "children": [
                                    {
                                        "children": [],
                                        "depth": 2,
                                        "id": 2,
                                        "order": 2
                                    }
                                ],
                                "depth": 1,
                                "id": 1,
                                "order": 1
                            },
                            {
                                "children": [],
                                "depth": 1,
                                "id": 3,
                                "order": 3
                            }
                        ],
                        "depth": 0,
                        "id": 0,
                        "order": 0
                    }
                ],
                "depth": -1,
                "id": -1,
                "order": -1
            }
        ],
        "tidyTraceNodeCount": 4
    },
    "state_change": {
        "stateChanges": [
            {
                "address": "0xc3ef562cc403c8f9edf7c3826655fbf50f4ddde8",
                "erc": "",
                "slots": [
                    {
                        "current": "0x000000000000000000000000000000000000000000000000000000000004ee93",
                        "key": "0xd84b82662abc7330f2599b33c3a4625d497014f4875bc282259a4f7d2c168a77",
                        "prev": "0x000000000000000000000000000000000000000000000000000000000004ee66"
                    },
                    {
                        "current": "0x0000000000000000000000000000000000000000000000000000000000001a1e",
                        "key": "0x432171b154635b691cbef057e73f82d1c4bbefe46ca05fc6a970fc8d17944f35",
                        "prev": "0x00000000000000000000000000000000000000000000000000000000000019f1"
                    }
                ],
                "storageVariables": []
            }
        ]
    }
}