{
    "balance_change": {
        "balanceChanges": [
            {
                "account": "0x9d67b95cfabd472779ce799478c801b065e6b870",
                "assets": [
                    {
                        "address": "0x608f006b6813f97097372d0d31fb0f11d1ca3e4e",
                        "amount": "10",
                        "iconUrl": "",
                        "isERC1155": false,
                        "isERC721": false,
                        "sign": false,
                        "value": ""
                    }
                ]
            },
            {
                "account": "0x406b7af60b20d18dad58e9f028ee32a90794f584",
                "assets": [
                    {
                        "address": "0x608f006b6813f97097372d0d31fb0f11d1ca3e4e",
                        "amount": "10",
                        "iconUrl": "",
                        "isERC1155": false,
                        "isERC721": false,
                        "sign": true,
                        "value": ""
                    }
                ]
            }
        ]
    },
    "profile": {
        "basic_info": {
            "baseFee": "",
            "blockNumber": 9947517,
            "callData": "0xa9059cbb000000000000000000000000406b7af60b20d18dad58e9f028ee32a90794f5840000000000000000000000000000000000000000000000008ac7230489e80000",
            "debugEnable": true,
            "errorInfo": "",
            "eventCount": 1,
            "feeRecipient": "0x829bd824b016326a401d083b33d092293333a830",
            "formatValue": "0",
            "gasLimit": 200000,
            "gasPrice": "8.800000233",
            "gasUsed": 36959,
            "intTxnCount": 0,
            "internalRevert": false,
            "internalRevertMessage": "",
            "isContractCreation": false,
            "isFlashloan": false,
            "maxFee": "",
            "nonce": 76587,
            "overwritedBlockNumber": -1,
            "priorityFee": "",
            "receiver": "0x608f006b6813f97097372d0d31fb0f11d1ca3e4e",
            "revertMessage": "",
            "sender": "0x9d67b95cfabd472779ce799478c801b065e6b870",
            "simulationEnable": true,
            "sourceTxnHash": "0x6c3df8668d9e78b1d6c0d19611c96f48c8fe29664ffc99d5854cae3941a83ed3",
            "status": true,
            "timestamp": "2020-04-26T10:14:24Z",
            "transactionFee": "0.000325239208611447",
            "txnHash": "0x6c3df8668d9e78b1d6c0d19611c96f48c8fe29664ffc99d5854cae3941a83ed3",
            "txnIndex": 125,
            "type": 0,
            "value": "0"
        },
        "fund_flow": [
            {
                "amount": "10",
                "from": "0x9d67b95cfabd472779ce799478c801b065e6b870",
                "id": 1,
                "isERC1155": false,
                "isERC721": false,
                "isReverted": false,
                "order": 1,
                "to": "0x406b7af60b20d18dad58e9f028ee32a90794f584",
                "token": "0x608f006b6813f97097372d0d31fb0f11d1ca3e4e"
            }
        ],
        "token_infos": [
            {
                "address": "0xc02aaa39b223fe8d0a0e5c4f27ead9083c756cc2",
                "decimals": 18
            },
            {
                "address": "0xeeeeeeeeeeeeeeeeeeeeeeeeeeeeeeeeeeeeeeee",
                "decimals": 18
            },
            {
                "address": "0x608f006b6813f97097372d0d31fb0f11d1ca3e4e",
                "decimals": 18
            }
        ]
    },
    "address_label": {
        "labels": [
            {
                "address": "0x0000000000000000000000000000000000000003",
                "label": "Precompiled"
            },
            {
                "address": "0x0000000000000000000000000000000000000004",
                "label": "Precompiled"
            },
            {
                "address": "0xeeeeeeeeeeeeeeeeeeeeeeeeeeeeeeeeeeeeeeee",
                "label": "Ether"
            },
            {
                "address": "0x608f006b6813f97097372d0d31fb0f11d1ca3e4e",
                "label": "CryptoAds: Crad Cash"
            },
            {
                "address": "0x0000000000000000000000000000000000000001",
                "label": "Precompiled"
            },
            {
                "address": "0x0000000000000000000000000000000000000002",
                "label": "Precompiled"
            }
        ]
    },
    "trace": {
        "accountLabels": null,
        "dataMap": {
            "-1": {
                "invocation": {
                    "address": "0x9d67b95cfabd472779ce799478c801b065e6b870",
                    "callData": "",
                    "decodedMethod": null,
                    "errorInfo": "",
                    "fromAddress": "",
                    "gasUsed": 0,
                    "id": -1,
                    "methodDecoded": false,
                    "operation": "",
                    "output": "",
                    "revert": false,
                    "revertMessage": "",
                    "selector": "",
                    "status": false,
                    "value": ""
                },
                "nodeType": 0
            },
            "0": {
                "invocation": {
                    "address": "0x608f006b6813f97097372d0d31fb0f11d1ca3e4e",
                    "callData": "0x000000000000000000000000406b7af60b20d18dad58e9f028ee32a90794f5840000000000000000000000000000000000000000000000008ac7230489e80000",
                    "decodedMethod": {
                        "callParams": [
                            {
                                "name": "_to",
                                "type": "address",
                                "value": "0x406b7af60b20d18dad58e9f028ee32a90794f584"
                            },
                            {
                                "decimalAvailable": true,
                                "name": "_value",
                                "type": "uint256",
                                "value": "10,000,000,000,000,000,000"
                            }
                        ],
                        "constructorArguments": "",
                        "name": "transfer",
                        "returnParams": [
                            {
                                "name": "",
                                "type": "bool",
                                "value": true
                            }
                        ],
                        "signature": "transfer(address,uint256)"
                    },
                    "errorInfo": "",
                    "fromAddress": "0x9d67b95cfabd472779ce799478c801b065e6b870",
                    "gasUsed": 36959,
                    "id": 0,
                    "methodDecoded": true,
                    "operation": "CALL",
                    "output": "0x0000000000000000000000000000000000000000000000000000000000000001",
                    "revert": false,
                    "revertMessage": "",
                    "selector": "0xa9059cbb",
                    "status": true,
                    "value": "0"
                },
                "nodeType": 0
            },
            "1": {
                "event": {
                    "contract": "0x608f006b6813f97097372d0d31fb0f11d1ca3e4e",
                    "decodedLog": {
                        "name": "Transfer",
                        "params": [
                            {
                                "name": "from",
                                "type": "address",
                                "value": "0x9d67b95cfabd472779ce799478c801b065e6b870"
                            },
                            {
                                "name": "to",
                                "type": "address",
                                "value": "0x406b7af60b20d18dad58e9f028ee32a90794f584"
                            },
                            {
                                "decimalAvailable": true,
                                "name": "value",
                                "type": "uint256",
                                "value": "10,000,000,000,000,000,000"
                            }
                        ],
                        "signature": "Transfer(address,address,uint256)"
                    },
                    "id": 1,
                    "logData": "0x0000000000000000000000000000000000000000000000008ac7230489e80000",
                    "logDecoded": true,
                    "operation": "EVENT",
                    "revert": false,
                    "status": true,
                    "topics": [
                        "0xddf252ad1be2c89b69c2b068fc378daa952ba7f163c4a11628f55a4df523b3ef",
                        "0x0000000000000000000000009d67b95cfabd472779ce799478c801b065e6b870",
                        "0x000000000000000000000000406b7af60b20d18dad58e9f028ee32a90794f584"
                    ]
                },
                "nodeType": 1
            }
        },
        "gasFlame": [
            {
                "children": [
                    {
                        "children": [
                            {
                                "children": [],
                                "depth": 0,
                                "name": "Initial Gas",
                                "value": 21632
                            },
                            {
                                "children": [],
                                "depth": 0,
                                "name": "Executed Gas",
                                "value": 15327
                            }
                        ],
                        "depth": -1,
                        "name": "Actual Gas Used",
                        "value": 36959
                    },
                    {
                        "children": [],
                        "depth": -1,
                        "name": "Refunded Gas",
                        "value": 0
                    }
                ],
                "depth": -2,
                "name": "Total Gas",
                "value": 36959
            }
        ],
        "isConfirmed": true,
        "mainTrace": [
            {
                "children": [
                    {
                        "children": [
                            {
                                "children": [],
                                "depth": 1,
                                "id": 1,
                                "order": 1
                            }
                        ],
                        "depth": 0,
                        "id": 0,
                        "order": 0
                    }
                ],
                "depth": -1,
                "id": -1,
                "order": -1
            }
        ],
        "mainTraceNodeCount": 2,
        "parentIdMap": {
            "0": -1,
            "1": 0
        },
        "tidyTrace": [
            {
                "children": [
                    {
                        "children": [
                            {
                                "children": [],
                                "depth": 1,
                                "id": 1,
                                "order": 1
                            }
                        ],
                        "depth": 0,
                        "id": 0,
                        "order": 0
                    }
                ],
                "depth": -1,
                "id": -1,
                "order": -1
            }
        ],
        "tidyTraceNodeCount": 2
    },
    "state_change": {
        "stateChanges": [
            {
                "address": "0x608f006b6813f97097372d0d31fb0f11d1ca3e4e",
                "erc": "ERC-20",
                "slots": [
                    {
                        "current": "0x00000000000000000000000000000000000000000000002dcbf4840eca000000",
                        "key": "0x8628bf2413808cce2aa76ba966c4ab5baf43bd6e679f52ff4dffed043836b6d5",
                        "prev": "0x00000000000000000000000000000000000000000000002d412d610a40180000"
                    },
                    {
                        "current": "0x00000000000000000000000000000000000000000000070d903d17fbb67722bd",
                        "key": "0x6a4745196625b3492941bee06b02abfa42ee291398292b79dd82b6800b347a73",
                        "prev": "0x00000000000000000000000000000000000000000000070e1b043b00405f22bd"
                    }
                ],
                "storageVariables": []
            }
        ]
    }
}