{
    "balance_change": {
        "balanceChanges": [
            {
                "account": "0xfe6fd1c97eb421e4a29e4ca8aae078111d948105",
                "assets": [
                    {
                        "address": "0xbc4162d53f945266684f4e5e48d545f206bc1ca5",
                        "amount": "100",
                        "iconUrl": "",
                        "isERC1155": false,
                        "isERC721": false,
                        "sign": false,
                        "value": ""
                    }
                ]
            },
            {
                "account": "0xfa5484c29bf831fb3f6848638dcf1946be65b654",
                "assets": [
                    {
                        "address": "0xbc4162d53f945266684f4e5e48d545f206bc1ca5",
                        "amount": "100",
                        "iconUrl": "",
                        "isERC1155": false,
                        "isERC721": false,
                        "sign": true,
                        "value": ""
                    }
                ]
            }
        ]
    },
    "profile": {
        "basic_info": {
            "baseFee": "",
            "blockNumber": 8835383,
            "callData": "0xa9059cbb000000000000000000000000fa5484c29bf831fb3f6848638dcf1946be65b6540000000000000000000000000000000000000000000000056bc75e2d63100000",
            "debugEnable": true,
            "errorInfo": "",
            "eventCount": 1,
            "feeRecipient": "0x5a0b54d5dc17e0aadc383d2db43b0a0d3e029c4c",
            "formatValue": "0",
            "gasLimit": 100000,
            "gasPrice": "22",
            "gasUsed": 37134,
            "intTxnCount": 0,
            "internalRevert": false,
            "internalRevertMessage": "",
            "isContractCreation": false,
            "isFlashloan": false,
            "maxFee": "",
            "nonce": 152425,
            "overwritedBlockNumber": -1,
            "priorityFee": "",
            "receiver": "0xbc4162d53f945266684f4e5e48d545f206bc1ca5",
            "revertMessage": "",
            "sender": "0xfe6fd1c97eb421e4a29e4ca8aae078111d948105",
            "simulationEnable": true,
            "sourceTxnHash": "0x6cd9a2514d2fc37e626049e12e148d33624986d8602db105582788e342cc4f87",
            "status": true,
            "timestamp": "2019-10-29T17:44:35Z",
            "transactionFee": "0.000816948",
            "txnHash": "0x6cd9a2514d2fc37e626049e12e148d33624986d8602db105582788e342cc4f87",
            "txnIndex": 58,
            "type": 0,
            "value": "0"
        },
        "fund_flow": [
            {
                "amount": "100",
                "from": "0xfe6fd1c97eb421e4a29e4ca8aae078111d948105",
                "id": 1,
                "isERC1155": false,
                "isERC721": false,
                "isReverted": false,
                "order": 1,
                "to": "0xfa5484c29bf831fb3f6848638dcf1946be65b654",
                "token": "0xbc4162d53f945266684f4e5e48d545f206bc1ca5"
            }
        ],
        "token_infos": [
            {
                "address": "0xbc4162d53f945266684f4e5e48d545f206bc1ca5",
                "decimals": 18
            },
            {
                "address": "0xc02aaa39b223fe8d0a0e5c4f27ead9083c756cc2",
                "decimals": 18
            },
            {
                "address": "0xeeeeeeeeeeeeeeeeeeeeeeeeeeeeeeeeeeeeeeee",
                "decimals": 18
            }
        ]
    },
    "address_label": {
        "labels": [
            {
                "address": "0xeeeeeeeeeeeeeeeeeeeeeeeeeeeeeeeeeeeeeeee",
                "label": "Ether"
            },
            {
                "address": "0xbc4162d53f945266684f4e5e48d545f206bc1ca5",
                "label": "ATB Banknote (ATB)"
            },
            {
                "address": "0x0000000000000000000000000000000000000001",
                "label": "Precompiled"
            },
            {
                "address": "0x0000000000000000000000000000000000000002",
                "label": "Precompiled"
            },
            {
                "address": "0x0000000000000000000000000000000000000003",
                "label": "Precompiled"
            },
            {
                "address": "0x0000000000000000000000000000000000000004",
                "label": "Precompiled"
            }
        ]
    },
    "trace": {
        "accountLabels": null,
        "dataMap": {
            "-1": {
                "invocation": {
                    "address": "0xfe6fd1c97eb421e4a29e4ca8aae078111d948105",
                    "callData": "",
                    "decodedMethod": null,
                    "errorInfo": "",
                    "fromAddress": "",
                    "gasUsed": 0,
                    "id": -1,
                    "methodDecoded": false,
                    "operation": "",
                    "output": "",
                    "revert": false,
                    "revertMessage": "",
                    "selector": "",
                    "status": false,
                    "value": ""
                },
                "nodeType": 0
            },
            "0": {
                "invocation": {
                    "address": "0xbc4162d53f945266684f4e5e48d545f206bc1ca5",
                    "callData": "0x000000000000000000000000fa5484c29bf831fb3f6848638dcf1946be65b6540000000000000000000000000000000000000000000000056bc75e2d63100000",
                    "decodedMethod": {
                        "callParams": [
                            {
                                "name": "recipient",
                                "type": "address",
                                "value": "0xfa5484c29bf831fb3f6848638dcf1946be65b654"
                            },
                            {
                                "decimalAvailable": true,
                                "name": "amount",
                                "type": "uint256",
                                "value": "100,000,000,000,000,000,000"
                            }
                        ],
                        "constructorArguments": "",
                        "name": "transfer",
                        "returnParams": [
                            {
                                "name": "",
                                "type": "bool",
                                "value": true
                            }
                        ],
                        "signature": "transfer(address,uint256)"
                    },
                    "errorInfo": "",
                    "fromAddress": "0xfe6fd1c97eb421e4a29e4ca8aae078111d948105",
                    "gasUsed": 37134,
                    "id": 0,
                    "methodDecoded": true,
                    "operation": "CALL",
                    "output": "0x0000000000000000000000000000000000000000000000000000000000000001",
                    "revert": false,
                    "revertMessage": "",
                    "selector": "0xa9059cbb",
                    "status": true,
                    "value": "0"
                },
                "nodeType": 0
            },
            "1": {
                "event": {
                    "contract": "0xbc4162d53f945266684f4e5e48d545f206bc1ca5",
                    "decodedLog": {
                        "name": "Transfer",
                        "params": [
                            {
                                "name": "from",
                                "type": "address",
                                "value": "0xfe6fd1c97eb421e4a29e4ca8aae078111d948105"
                            },
                            {
                                "name": "to",
                                "type": "address",
                                "value": "0xfa5484c29bf831fb3f6848638dcf1946be65b654"
                            },
                            {
                                "decimalAvailable": true,
                                "name": "value",
                                "type": "uint256",
                                "value": "100,000,000,000,000,000,000"
                            }
                        ],
                        "signature": "Transfer(address,address,uint256)"
                    },
                    "id": 1,
                    "logData": "0x0000000000000000000000000000000000000000000000056bc75e2d63100000",
                    "logDecoded": true,
                    "operation": "EVENT",
                    "revert": false,
                    "status": true,
                    "topics": [
                        "0xddf252ad1be2c89b69c2b068fc378daa952ba7f163c4a11628f55a4df523b3ef",
                        "0x000000000000000000000000fe6fd1c97eb421e4a29e4ca8aae078111d948105",
                        "0x000000000000000000000000fa5484c29bf831fb3f6848638dcf1946be65b654"
                    ]
                },
                "nodeType": 1
            }
        },
        "gasFlame": [
            {
                "children": [
                    {
                        "children": [
                            {
                                "children": [],
                                "depth": 0,
                                "name": "Initial Gas",
                                "value": 23256
                            },
                            {
                                "children": [],
                                "depth": 0,
                                "name": "Executed Gas",
                                "value": 13878
                            }
                        ],
                        "depth": -1,
                        "name": "Actual Gas Used",
                        "value": 37134
                    },
                    {
                        "children": [],
                        "depth": -1,
                        "name": "Refunded Gas",
                        "value": 0
                    }
                ],
                "depth": -2,
                "name": "Total Gas",
                "value": 37134
            }
        ],
        "isConfirmed": true,
        "mainTrace": [
            {
                "children": [
                    {
                        "children": [
                            {
                                "children": [],
                                "depth": 1,
                                "id": 1,
                                "order": 1
                            }
                        ],
                        "depth": 0,
                        "id": 0,
                        "order": 0
                    }
                ],
                "depth": -1,
                "id": -1,
                "order": -1
            }
        ],
        "mainTraceNodeCount": 2,
        "parentIdMap": {
            "0": -1,
            "1": 0
        },
        "tidyTrace": [
            {
                "children": [
                    {
                        "children": [
                            {
                                "children": [],
                                "depth": 1,
                                "id": 1,
                                "order": 1
                            }
                        ],
                        "depth": 0,
                        "id": 0,
                        "order": 0
                    }
                ],
                "depth": -1,
                "id": -1,
                "order": -1
            }
        ],
        "tidyTraceNodeCount": 2
    },
    "state_change": {
        "stateChanges": [
            {
                "address": "0xbc4162d53f945266684f4e5e48d545f206bc1ca5",
                "erc": "",
                "slots": [
                    {
                        "current": "0x0000000000000000000000000000000000000000000ade075a6acfa7eaae8000",
                        "key": "0xec7cc7809244e42f034971416bd18cdfc337c1ce01468607b1a0c5774380f7d7",
                        "prev": "0x0000000000000000000000000000000000000000000ade0cc6322dd54dbe8000"
                    },
                    {
                        "current": "0x00000000000000000000000000000000000000000000000575c5525cd1580000",
                        "key": "0x219e52063273d3d1b686c97b4d1366d3d2f4bb75378d566aacdbb8fc7ea855f8",
                        "prev": "0x00000000000000000000000000000000000000000000000009fdf42f6e480000"
                    }
                ],
                "storageVariables": []
            }
        ]
    }
}