{
    "balance_change": {
        "balanceChanges": [
            {
                "account": "0x58eb857d0f7e698b836e410b2ec7075be18f5896",
                "assets": [
                    {
                        "address": "0x6982508145454ce325ddbe47a25d4ec3d2311933",
                        "amount": "225,894,600.9516",
                        "iconUrl": "https://assets.blocksec.com/icon/99f1a626358e559d9a9d6dc4254c663e595a9ebcd362efa2d4cd902a8d75ea2c.png",
                        "isERC1155": false,
                        "isERC721": false,
                        "sign": false,
                        "value": ""
                    }
                ]
            },
            {
                "account": "0xda43c54ce5083885f561e05fd6220b7096be246c",
                "assets": [
                    {
                        "address": "0x6982508145454ce325ddbe47a25d4ec3d2311933",
                        "amount": "225,894,600.9516",
                        "iconUrl": "https://assets.blocksec.com/icon/99f1a626358e559d9a9d6dc4254c663e595a9ebcd362efa2d4cd902a8d75ea2c.png",
                        "isERC1155": false,
                        "isERC721": false,
                        "sign": true,
                        "value": ""
                    }
                ]
            }
        ]
    },
    "profile": {
        "basic_info": {
            "baseFee": "25.26250368",
            "blockNumber": 17591808,
            "callData": "0xa9059cbb000000000000000000000000da43c54ce5083885f561e05fd6220b7096be246c000000000000000000000000000000000000000000badb0adaefee12c6630000",
            "debugEnable": true,
            "errorInfo": "",
            "eventCount": 1,
            "feeRecipient": "0x1f9090aae28b8a3dceadf281b0f12828e676c326",
            "formatValue": "0",
            "gasLimit": 90000,
            "gasPrice": "28",
            "gasUsed": 38574,
            "intTxnCount": 0,
            "internalRevert": false,
            "internalRevertMessage": "",
            "isContractCreation": false,
            "isFlashloan": false,
            "maxFee": "",
            "nonce": 0,
            "overwritedBlockNumber": -1,
            "priorityFee": "",
            "receiver": "0x6982508145454ce325ddbe47a25d4ec3d2311933",
            "revertMessage": "",
            "sender": "0x58eb857d0f7e698b836e410b2ec7075be18f5896",
            "simulationEnable": true,
            "sourceTxnHash": "0x6c6e54a18790fba52db1cba11ec20be0e86b4ad24efa46c73804af80cb45fe5a",
            "status": true,
            "timestamp": "2023-06-30T11:30:59Z",
            "transactionFee": "0.001080072",
            "txnHash": "0x6c6e54a18790fba52db1cba11ec20be0e86b4ad24efa46c73804af80cb45fe5a",
            "txnIndex": 97,
            "type": 0,
            "value": "0"
        },
        "fund_flow": [
            {
                "amount": "225,894,600.9516",
                "from": "0x58eb857d0f7e698b836e410b2ec7075be18f5896",
                "id": 1,
                "isERC1155": false,
                "isERC721": false,
                "isReverted": false,
                "order": 1,
                "to": "0xda43c54ce5083885f561e05fd6220b7096be246c",
                "token": "0x6982508145454ce325ddbe47a25d4ec3d2311933"
            }
        ],
        "token_infos": [
            {
                "address": "0xc02aaa39b223fe8d0a0e5c4f27ead9083c756cc2",
                "decimals": 18
            },
            {
                "address": "0xeeeeeeeeeeeeeeeeeeeeeeeeeeeeeeeeeeeeeeee",
                "decimals": 18
            },
            {
                "address": "0x6982508145454ce325ddbe47a25d4ec3d2311933",
                "decimals": 18
            }
        ]
    },
    "address_label": {
        "labels": [
            {
                "address": "0xda43c54ce5083885f561e05fd6220b7096be246c",
                "label": "BingX 2"
            },
            {
                "address": "0x6982508145454ce325ddbe47a25d4ec3d2311933",
                "label": "Pepe: PEPE Token"
            },
            {
                "address": "0x0000000000000000000000000000000000000001",
                "label": "Precompiled"
            },
            {
                "address": "0x0000000000000000000000000000000000000002",
                "label": "Precompiled"
            },
            {
                "address": "0x0000000000000000000000000000000000000003",
                "label": "Precompiled"
            },
            {
                "address": "0x0000000000000000000000000000000000000004",
                "label": "Precompiled"
            },
            {
                "address": "0xeeeeeeeeeeeeeeeeeeeeeeeeeeeeeeeeeeeeeeee",
                "label": "Ether"
            }
        ]
    },
    "trace": {
        "accountLabels": null,
        "dataMap": {
            "-1": {
                "invocation": {
                    "address": "0x58eb857d0f7e698b836e410b2ec7075be18f5896",
                    "callData": "",
                    "decodedMethod": null,
                    "errorInfo": "",
                    "fromAddress": "",
                    "gasUsed": 0,
                    "id": -1,
                    "methodDecoded": false,
                    "operation": "",
                    "output": "",
                    "revert": false,
                    "revertMessage": "",
                    "selector": "",
                    "status": false,
                    "value": ""
                },
                "nodeType": 0
            },
            "0": {
                "invocation": {
                    "address": "0x6982508145454ce325ddbe47a25d4ec3d2311933",
                    "callData": "0x000000000000000000000000da43c54ce5083885f561e05fd6220b7096be246c000000000000000000000000000000000000000000badb0adaefee12c6630000",
                    "decodedMethod": {
                        "callParams": [
                            {
                                "name": "recipient",
                                "type": "address",
                                "value": "0xda43c54ce5083885f561e05fd6220b7096be246c"
                            },
                            {
                                "decimalAvailable": true,
                                "name": "amount",
                                "type": "uint256",
                                "value": "225,894,600,951,600,000,000,000,000"
                            }
                        ],
                        "constructorArguments": "",
                        "name": "transfer",
                        "returnParams": [
                            {
                                "name": "",
                                "type": "bool",
                                "value": true
                            }
                        ],
                        "signature": "transfer(address,uint256)"
                    },
                    "errorInfo": "",
                    "fromAddress": "0x58eb857d0f7e698b836e410b2ec7075be18f5896",
                    "gasUsed": 38574,
                    "id": 0,
                    "methodDecoded": true,
                    "operation": "CALL",
                    "output": "0x0000000000000000000000000000000000000000000000000000000000000001",
                    "revert": false,
                    "revertMessage": "",
                    "selector": "0xa9059cbb",
                    "status": true,
                    "value": "0"
                },
                "nodeType": 0
            },
            "1": {
                "event": {
                    "contract": "0x6982508145454ce325ddbe47a25d4ec3d2311933",
                    "decodedLog": {
                        "name": "Transfer",
                        "params": [
                            {
                                "name": "from",
                                "type": "address",
                                "value": "0x58eb857d0f7e698b836e410b2ec7075be18f5896"
                            },
                            {
                                "name": "to",
                                "type": "address",
                                "value": "0xda43c54ce5083885f561e05fd6220b7096be246c"
                            },
                            {
                                "decimalAvailable": true,
                                "name": "value",
                                "type": "uint256",
                                "value": "225,894,600,951,600,000,000,000,000"
                            }
                        ],
                        "signature": "Transfer(address,address,uint256)"
                    },
                    "id": 1,
                    "logData": "0x000000000000000000000000000000000000000000badb0adaefee12c6630000",
                    "logDecoded": true,
                    "operation": "EVENT",
                    "revert": false,
                    "status": true,
                    "topics": [
                        "0xddf252ad1be2c89b69c2b068fc378daa952ba7f163c4a11628f55a4df523b3ef",
                        "0x00000000000000000000000058eb857d0f7e698b836e410b2ec7075be18f5896",
                        "0x000000000000000000000000da43c54ce5083885f561e05fd6220b7096be246c"
                    ]
                },
                "nodeType": 1
            }
        },
        "gasFlame": [
            {
                "children": [
                    {
                        "children": [
                            {
                                "children": [],
                                "depth": 0,
                                "name": "Initial Gas",
                                "value": 21668
                            },
                            {
                                "children": [],
                                "depth": 0,
                                "name": "Executed Gas",
                                "value": 21706
                            }
                        ],
                        "depth": -1,
                        "name": "Actual Gas Used",
                        "value": 38574
                    },
                    {
                        "children": [],
                        "depth": -1,
                        "name": "Refunded Gas",
                        "value": 4800
                    }
                ],
                "depth": -2,
                "name": "Total Gas",
                "value": 43374
            }
        ],
        "isConfirmed": true,
        "mainTrace": [
            {
                "children": [
                    {
                        "children": [
                            {
                                "children": [],
                                "depth": 1,
                                "id": 1,
                                "order": 1
                            }
                        ],
                        "depth": 0,
                        "id": 0,
                        "order": 0
                    }
                ],
                "depth": -1,
                "id": -1,
                "order": -1
            }
        ],
        "mainTraceNodeCount": 2,
        "parentIdMap": {
            "0": -1,
            "1": 0
        },
        "tidyTrace": [
            {
                "children": [
                    {
                        "children": [
                            {
                                "children": [],
                                "depth": 1,
                                "id": 1,
                                "order": 1
                            }
                        ],
                        "depth": 0,
                        "id": 0,
                        "order": 0
                    }
                ],
                "depth": -1,
                "id": -1,
                "order": -1
            }
        ],
        "tidyTraceNodeCount": 2
    },
    "state_change": {
        "stateChanges": [
            {
                "address": "0x6982508145454ce325ddbe47a25d4ec3d2311933",
                "erc": "ERC-20",
                "slots": [
                    {
                        "current": "0x0000000000000000000000000000000000000000000000000000000000000000",
                        "key": "0xe8bc9c309db931fa82d8e9f597c2fa72566e335f06dd204c11e5ef8789bfad90",
                        "prev": "0x000000000000000000000000000000000000000000badb0adaefee12c6630000"
                    },
                    {
                        "current": "0x00000000000000000000000000000000000000003625b73d3a7396ce00b69000",
                        "key": "0x96a90b0acad35d3e28f1a59ca70f45658d53a066441908a5090b0c79383d127a",
                        "prev": "0x0000000000000000000000000000000000000000356adc325f83a8bb3a539000"
                    }
                ],
                "storageVariables": [
                    {
                        "name": "_balances",
                        "type": "mapping(address => uint256)",
                        "value": {
                            "pairs": [
                                {
                                    "key": "0x58eb857d0f7e698b836e410b2ec7075be18f5896",
                                    "value": {
                                        "current": "0",
                                        "prev": "225894600951600000000000000",
                                        "typeTag": 1
                                    }
                                },
                                {
                                    "key": "0xda43c54ce5083885f561e05fd6220b7096be246c",
                                    "value": {
                                        "current": "16757786108208004520000000000",
                                        "prev": "16531891507256404520000000000",
                                        "typeTag": 1
                                    }
                                }
                            ],
                            "typeTag": 4
                        }
                    }
                ]
            }
        ]
    }
}