{
    "balance_change": {
        "balanceChanges": [
            {
                "account": "0x61e29379b06491ea5a0be90fae954c56c91fd9c4",
                "assets": [
                    {
                        "address": "0x95392f142af1c12f6e39897ff9b09c599666b50c",
                        "amount": "4,116.967314990707787245",
                        "iconUrl": "",
                        "isERC1155": false,
                        "isERC721": false,
                        "sign": true,
                        "value": "1458.011652"
                    },
                    {
                        "address": "0xeeeeeeeeeeeeeeeeeeeeeeeeeeeeeeeeeeeeeeee",
                        "amount": "0.5",
                        "iconUrl": "https://assets.blocksec.com/image/1663669189317-3.png",
                        "isERC1155": false,
                        "isERC721": false,
                        "sign": false,
                        "value": "1496.155424"
                    }
                ]
            },
            {
                "account": "0x700f4dc28170f9903faa6da32d6663ff1ac94f27",
                "assets": [
                    {
                        "address": "0x95392f142af1c12f6e39897ff9b09c599666b50c",
                        "amount": "4,116.967314990707787245",
                        "iconUrl": "",
                        "isERC1155": false,
                        "isERC721": false,
                        "sign": false,
                        "value": "1458.011652"
                    },
                    {
                        "address": "0xc02aaa39b223fe8d0a0e5c4f27ead9083c756cc2",
                        "amount": "0.5",
                        "iconUrl": "https://assets.blocksec.com/icon/f1cb2d02c471d545bbc7722daf3277fd852d98e63d118771af7047bd8256c516.png",
                        "isERC1155": false,
                        "isERC721": false,
                        "sign": true,
                        "value": "1496.155424"
                    }
                ]
            },
            {
                "account": "0xc02aaa39b223fe8d0a0e5c4f27ead9083c756cc2",
                "assets": [
                    {
                        "address": "0xeeeeeeeeeeeeeeeeeeeeeeeeeeeeeeeeeeeeeeee",
                        "amount": "0.5",
                        "iconUrl": "https://assets.blocksec.com/image/1663669189317-3.png",
                        "isERC1155": false,
                        "isERC721": false,
                        "sign": true,
                        "value": "1496.155424"
                    },
                    {
                        "address": "0xc02aaa39b223fe8d0a0e5c4f27ead9083c756cc2",
                        "amount": "0.5",
                        "iconUrl": "https://assets.blocksec.com/icon/f1cb2d02c471d545bbc7722daf3277fd852d98e63d118771af7047bd8256c516.png",
                        "isERC1155": false,
                        "isERC721": false,
                        "sign": false,
                        "value": "1496.155424"
                    }
                ]
            }
        ]
    },
    "profile": {
        "basic_info": {
            "baseFee": "87.779245518",
            "blockNumber": 14585337,
            "callData": "0x5ae401dc00000000000000000000000000000000000000000000000000000000625878cc00000000000000000000000000000000000000000000000000000000000000400000000000000000000000000000000000000000000000000000000000000001000000000000000000000000000000000000000000000000000000000000002000000000000000000000000000000000000000000000000000000000000000e404e45aaf000000000000000000000000c02aaa39b223fe8d0a0e5c4f27ead9083c756cc200000000000000000000000095392f142af1c12f6e39897ff9b09c599666b50c000000000000000000000000000000000000000000000000000000000000271000000000000000000000000061e29379b06491ea5a0be90fae954c56c91fd9c400000000000000000000000000000000000000000000000006f05b59d3b200000000000000000000000000000000000000000000000000bf07de24ae0b08ba5b000000000000000000000000000000000000000000000000000000000000000000000000000000000000000000000000000000000000000000000000",
            "debugEnable": true,
            "errorInfo": "",
            "eventCount": 4,
            "feeRecipient": "0x829bd824b016326a401d083b33d092293333a830",
            "formatValue": "0.5",
            "gasLimit": 187306,
            "gasPrice": "100",
            "gasUsed": 135264,
            "intTxnCount": 8,
            "internalRevert": false,
            "internalRevertMessage": "",
            "isContractCreation": false,
            "isFlashloan": false,
            "maxFee": "",
            "nonce": 2548,
            "overwritedBlockNumber": -1,
            "priorityFee": "",
            "receiver": "0x68b3465833fb72a70ecdf485e0e4c7bd8665fc45",
            "revertMessage": "",
            "sender": "0x61e29379b06491ea5a0be90fae954c56c91fd9c4",
            "simulationEnable": true,
            "sourceTxnHash": "0x6c46d5a53b99534b8f6ca66bb8d38f24c40d2dd443ad3dc511f1aec0fe3fd7a7",
            "status": true,
            "timestamp": "2022-04-14T19:11:29Z",
            "transactionFee": "0.0135264",
            "txnHash": "0x6c46d5a53b99534b8f6ca66bb8d38f24c40d2dd443ad3dc511f1aec0fe3fd7a7",
            "txnIndex": 2,
            "type": 0,
            "value": "500000000000000000"
        },
        "fund_flow": [
            {
                "amount": "0.5",
                "from": "0x61e29379b06491ea5a0be90fae954c56c91fd9c4",
                "id": 1,
                "isERC1155": false,
                "isERC721": false,
                "isReverted": false,
                "order": 1,
                "to": "0x68b3465833fb72a70ecdf485e0e4c7bd8665fc45",
                "token": "0xeeeeeeeeeeeeeeeeeeeeeeeeeeeeeeeeeeeeeeee"
            },
            {
                "amount": "4,116.967314990707787245",
                "from": "0x700f4dc28170f9903faa6da32d6663ff1ac94f27",
                "id": 2,
                "isERC1155": false,
                "isERC721": false,
                "isReverted": false,
                "order": 2,
                "to": "0x61e29379b06491ea5a0be90fae954c56c91fd9c4",
                "token": "0x95392f142af1c12f6e39897ff9b09c599666b50c"
            },
            {
                "amount": "0.5",
                "from": "0x68b3465833fb72a70ecdf485e0e4c7bd8665fc45",
                "id": 3,
                "isERC1155": false,
                "isERC721": false,
                "isReverted": false,
                "order": 3,
                "to": "0xc02aaa39b223fe8d0a0e5c4f27ead9083c756cc2",
                "token": "0xeeeeeeeeeeeeeeeeeeeeeeeeeeeeeeeeeeeeeeee"
            },
            {
                "amount": "0.5",
                "from": "0xc02aaa39b223fe8d0a0e5c4f27ead9083c756cc2",
                "id": 4,
                "isERC1155": false,
                "isERC721": false,
                "isReverted": false,
                "order": 4,
                "to": "0x68b3465833fb72a70ecdf485e0e4c7bd8665fc45",
                "token": "0xc02aaa39b223fe8d0a0e5c4f27ead9083c756cc2"
            },
            {
                "amount": "0.5",
                "from": "0x68b3465833fb72a70ecdf485e0e4c7bd8665fc45",
                "id": 5,
                "isERC1155": false,
                "isERC721": false,
                "isReverted": false,
                "order": 5,
                "to": "0x700f4dc28170f9903faa6da32d6663ff1ac94f27",
                "token": "0xc02aaa39b223fe8d0a0e5c4f27ead9083c756cc2"
            }
        ],
        "token_infos": [
            {
                "address": "0x95392f142af1c12f6e39897ff9b09c599666b50c",
                "decimals": 18
            },
            {
                "address": "0xc02aaa39b223fe8d0a0e5c4f27ead9083c756cc2",
                "decimals": 18
            },
            {
                "address": "0xeeeeeeeeeeeeeeeeeeeeeeeeeeeeeeeeeeeeeeee",
                "decimals": 18
            }
        ]
    },
    "address_label": {
        "labels": [
            {
                "address": "0x95392f142af1c12f6e39897ff9b09c599666b50c",
                "label": "Blood (BLOOD)"
            },
            {
                "address": "0xc02aaa39b223fe8d0a0e5c4f27ead9083c756cc2",
                "label": "Wrapped Ether (WETH)"
            },
            {
                "address": "0x0000000000000000000000000000000000000001",
                "label": "Precompiled"
            },
            {
                "address": "0x0000000000000000000000000000000000000002",
                "label": "Precompiled"
            },
            {
                "address": "0x0000000000000000000000000000000000000003",
                "label": "Precompiled"
            },
            {
                "address": "0xeeeeeeeeeeeeeeeeeeeeeeeeeeeeeeeeeeeeeeee",
                "label": "Ether"
            },
            {
                "address": "0x700f4dc28170f9903faa6da32d6663ff1ac94f27",
                "label": "Uniswap V3: BLOOD 2"
            },
            {
                "address": "0x68b3465833fb72a70ecdf485e0e4c7bd8665fc45",
                "label": "Uniswap V3: Router 2"
            },
            {
                "address": "0x0000000000000000000000000000000000000004",
                "label": "Precompiled"
            }
        ]
    },
    "trace": {
        "accountLabels": null,
        "dataMap": {
            "-1": {
                "invocation": {
                    "address": "0x61e29379b06491ea5a0be90fae954c56c91fd9c4",
                    "callData": "",
                    "decodedMethod": null,
                    "errorInfo": "",
                    "fromAddress": "",
                    "gasUsed": 0,
                    "id": -1,
                    "methodDecoded": false,
                    "operation": "",
                    "output": "",
                    "revert": false,
                    "revertMessage": "",
                    "selector": "",
                    "status": false,
                    "value": ""
                },
                "nodeType": 0
            },
            "0": {
                "invocation": {
                    "address": "0x68b3465833fb72a70ecdf485e0e4c7bd8665fc45",
                    "callData": "0x00000000000000000000000000000000000000000000000000000000625878cc00000000000000000000000000000000000000000000000000000000000000400000000000000000000000000000000000000000000000000000000000000001000000000000000000000000000000000000000000000000000000000000002000000000000000000000000000000000000000000000000000000000000000e404e45aaf000000000000000000000000c02aaa39b223fe8d0a0e5c4f27ead9083c756cc200000000000000000000000095392f142af1c12f6e39897ff9b09c599666b50c000000000000000000000000000000000000000000000000000000000000271000000000000000000000000061e29379b06491ea5a0be90fae954c56c91fd9c400000000000000000000000000000000000000000000000006f05b59d3b200000000000000000000000000000000000000000000000000bf07de24ae0b08ba5b000000000000000000000000000000000000000000000000000000000000000000000000000000000000000000000000000000000000000000000000",
                    "decodedMethod": {
                        "callParams": [
                            {
                                "name": "deadline",
                                "type": "uint256",
                                "value": "1,649,965,260"
                            },
                            {
                                "name": "data",
                                "type": "bytes[]",
                                "value": [
                                    "0x04e45aaf000000000000000000000000c02aaa39b223fe8d0a0e5c4f27ead9083c756cc200000000000000000000000095392f142af1c12f6e39897ff9b09c599666b50c000000000000000000000000000000000000000000000000000000000000271000000000000000000000000061e29379b06491ea5a0be90fae954c56c91fd9c400000000000000000000000000000000000000000000000006f05b59d3b200000000000000000000000000000000000000000000000000bf07de24ae0b08ba5b0000000000000000000000000000000000000000000000000000000000000000"
                                ]
                            }
                        ],
                        "constructorArguments": "",
                        "name": "multicall",
                        "returnParams": [
                            {
                                "name": "",
                                "type": "bytes[]",
                                "value": [
                                    "0x0000000000000000000000000000000000000000000000df2e66185b3adc45ed"
                                ]
                            }
                        ],
                        "signature": "multicall(uint256,bytes[])"
                    },
                    "errorInfo": "",
                    "fromAddress": "0x61e29379b06491ea5a0be90fae954c56c91fd9c4",
                    "gasUsed": 135264,
                    "id": 0,
                    "methodDecoded": true,
                    "operation": "CALL",
                    "output": "0x00000000000000000000000000000000000000000000000000000000000000200000000000000000000000000000000000000000000000000000000000000001000000000000000000000000000000000000000000000000000000000000002000000000000000000000000000000000000000000000000000000000000000200000000000000000000000000000000000000000000000df2e66185b3adc45ed",
                    "revert": false,
                    "revertMessage": "",
                    "selector": "0x5ae401dc",
                    "status": true,
                    "value": "0.5"
                },
                "nodeType": 0
            },
            "1": {
                "invocation": {
                    "address": "0x68b3465833fb72a70ecdf485e0e4c7bd8665fc45",
                    "callData": "0x000000000000000000000000c02aaa39b223fe8d0a0e5c4f27ead9083c756cc200000000000000000000000095392f142af1c12f6e39897ff9b09c599666b50c000000000000000000000000000000000000000000000000000000000000271000000000000000000000000061e29379b06491ea5a0be90fae954c56c91fd9c400000000000000000000000000000000000000000000000006f05b59d3b200000000000000000000000000000000000000000000000000bf07de24ae0b08ba5b0000000000000000000000000000000000000000000000000000000000000000",
                    "decodedMethod": {
                        "callParams": [
                            {
                                "name": "params",
                                "type": "(address,address,uint24,address,uint256,uint256,uint160)",
                                "value": [
                                    {
                                        "name": "tokenIn",
                                        "type": "address",
                                        "value": "0xc02aaa39b223fe8d0a0e5c4f27ead9083c756cc2"
                                    },
                                    {
                                        "name": "tokenOut",
                                        "type": "address",
                                        "value": "0x95392f142af1c12f6e39897ff9b09c599666b50c"
                                    },
                                    {
                                        "name": "fee",
                                        "type": "uint24",
                                        "value": "10,000"
                                    },
                                    {
                                        "name": "recipient",
                                        "type": "address",
                                        "value": "0x61e29379b06491ea5a0be90fae954c56c91fd9c4"
                                    },
                                    {
                                        "name": "amountIn",
                                        "type": "uint256",
                                        "value": "500,000,000,000,000,000"
                                    },
                                    {
                                        "name": "amountOutMinimum",
                                        "type": "uint256",
                                        "value": "3,523,895,049,011,547,650,651"
                                    },
                                    {
                                        "name": "sqrtPriceLimitX96",
                                        "type": "uint160",
                                        "value": "0"
                                    }
                                ]
                            }
                        ],
                        "constructorArguments": "",
                        "name": "exactInputSingle",
                        "returnParams": [
                            {
                                "name": "amountOut",
                                "type": "uint256",
                                "value": "4,116,967,314,990,707,787,245"
                            }
                        ],
                        "signature": "exactInputSingle((address,address,uint24,address,uint256,uint256,uint160))"
                    },
                    "errorInfo": "",
                    "fromAddress": "0x68b3465833fb72a70ecdf485e0e4c7bd8665fc45",
                    "gasUsed": 129190,
                    "id": 1,
                    "methodDecoded": true,
                    "operation": "DELEGATECALL",
                    "output": "0x0000000000000000000000000000000000000000000000df2e66185b3adc45ed",
                    "revert": false,
                    "revertMessage": "",
                    "selector": "0x04e45aaf",
                    "status": true,
                    "value": "0.5"
                },
                "nodeType": 0
            },
            "10": {
                "event": {
                    "contract": "0xc02aaa39b223fe8d0a0e5c4f27ead9083c756cc2",
                    "decodedLog": {
                        "name": "Transfer",
                        "params": [
                            {
                                "name": "src",
                                "type": "address",
                                "value": "0x68b3465833fb72a70ecdf485e0e4c7bd8665fc45"
                            },
                            {
                                "name": "dst",
                                "type": "address",
                                "value": "0x700f4dc28170f9903faa6da32d6663ff1ac94f27"
                            },
                            {
                                "decimalAvailable": true,
                                "name": "wad",
                                "type": "uint256",
                                "value": "500,000,000,000,000,000"
                            }
                        ],
                        "signature": "Transfer(address,address,uint256)"
                    },
                    "id": 10,
                    "logData": "0x00000000000000000000000000000000000000000000000006f05b59d3b20000",
                    "logDecoded": true,
                    "operation": "EVENT",
                    "revert": false,
                    "status": true,
                    "topics": [
                        "0xddf252ad1be2c89b69c2b068fc378daa952ba7f163c4a11628f55a4df523b3ef",
                        "0x00000000000000000000000068b3465833fb72a70ecdf485e0e4c7bd8665fc45",
                        "0x000000000000000000000000700f4dc28170f9903faa6da32d6663ff1ac94f27"
                    ]
                },
                "nodeType": 1
            },
            "11": {
                "invocation": {
                    "address": "0xc02aaa39b223fe8d0a0e5c4f27ead9083c756cc2",
                    "callData": "0x000000000000000000000000700f4dc28170f9903faa6da32d6663ff1ac94f27",
                    "decodedMethod": {
                        "callParams": [
                            {
                                "name": "",
                                "type": "address",
                                "value": "0x700f4dc28170f9903faa6da32d6663ff1ac94f27"
                            }
                        ],
                        "constructorArguments": "",
                        "name": "balanceOf",
                        "returnParams": [
                            {
                                "decimalAvailable": true,
                                "name": "",
                                "type": "uint256",
                                "value": "137,740,352,384,683,912,066"
                            }
                        ],
                        "signature": "balanceOf(address)"
                    },
                    "errorInfo": "",
                    "fromAddress": "0x700f4dc28170f9903faa6da32d6663ff1ac94f27",
                    "gasUsed": 534,
                    "id": 11,
                    "methodDecoded": true,
                    "operation": "STATICCALL",
                    "output": "0x000000000000000000000000000000000000000000000007778808b6d636ab82",
                    "revert": false,
                    "revertMessage": "",
                    "selector": "0x70a08231",
                    "status": true,
                    "value": "0"
                },
                "nodeType": 0
            },
            "12": {
                "event": {
                    "contract": "0x700f4dc28170f9903faa6da32d6663ff1ac94f27",
                    "decodedLog": {
                        "name": "Swap",
                        "params": [
                            {
                                "name": "sender",
                                "type": "address",
                                "value": "0x68b3465833fb72a70ecdf485e0e4c7bd8665fc45"
                            },
                            {
                                "name": "recipient",
                                "type": "address",
                                "value": "0x61e29379b06491ea5a0be90fae954c56c91fd9c4"
                            },
                            {
                                "name": "amount0",
                                "type": "int256",
                                "value": "-4,116,967,314,990,707,787,245"
                            },
                            {
                                "name": "amount1",
                                "type": "int256",
                                "value": "500,000,000,000,000,000"
                            },
                            {
                                "name": "sqrtPriceX96",
                                "type": "uint160",
                                "value": "870,104,000,643,782,782,940,377,700"
                            },
                            {
                                "name": "liquidity",
                                "type": "uint128",
                                "value": "14,464,825,217,558,282,240,519"
                            },
                            {
                                "name": "tick",
                                "type": "int24",
                                "value": "-90,234"
                            }
                        ],
                        "signature": "Swap(address,address,int256,int256,uint160,uint128,int24)"
                    },
                    "id": 12,
                    "logData": "0xffffffffffffffffffffffffffffffffffffffffffffff20d199e7a4c523ba1300000000000000000000000000000000000000000000000006f05b59d3b20000000000000000000000000000000000000000000002cfbbb063aa34fb50ac726400000000000000000000000000000000000000000000031023c66970d1d40207fffffffffffffffffffffffffffffffffffffffffffffffffffffffffffe9f86",
                    "logDecoded": true,
                    "operation": "EVENT",
                    "revert": false,
                    "status": true,
                    "topics": [
                        "0xc42079f94a6350d7e6235f29174924f928cc2ac818eb64fed8004e115fbcca67",
                        "0x00000000000000000000000068b3465833fb72a70ecdf485e0e4c7bd8665fc45",
                        "0x00000000000000000000000061e29379b06491ea5a0be90fae954c56c91fd9c4"
                    ]
                },
                "nodeType": 1
            },
            "2": {
                "invocation": {
                    "address": "0x700f4dc28170f9903faa6da32d6663ff1ac94f27",
                    "callData": "0x00000000000000000000000061e29379b06491ea5a0be90fae954c56c91fd9c4000000000000000000000000000000000000000000000000000000000000000000000000000000000000000000000000000000000000000006f05b59d3b20000000000000000000000000000fffd8963efd1fc6a506488495d951d5263988d2500000000000000000000000000000000000000000000000000000000000000a000000000000000000000000000000000000000000000000000000000000000c00000000000000000000000000000000000000000000000000000000000000020000000000000000000000000000000000000000000000000000000000000004000000000000000000000000061e29379b06491ea5a0be90fae954c56c91fd9c4000000000000000000000000000000000000000000000000000000000000002bc02aaa39b223fe8d0a0e5c4f27ead9083c756cc200271095392f142af1c12f6e39897ff9b09c599666b50c000000000000000000000000000000000000000000",
                    "decodedMethod": {
                        "callParams": [
                            {
                                "name": "recipient",
                                "type": "address",
                                "value": "0x61e29379b06491ea5a0be90fae954c56c91fd9c4"
                            },
                            {
                                "name": "zeroForOne",
                                "type": "bool",
                                "value": false
                            },
                            {
                                "name": "amountSpecified",
                                "type": "int256",
                                "value": "500,000,000,000,000,000"
                            },
                            {
                                "name": "sqrtPriceLimitX96",
                                "type": "uint160",
                                "value": "1,461,446,703,485,210,103,287,273,052,203,988,822,378,723,970,341"
                            },
                            {
                                "name": "data",
                                "type": "bytes",
                                "value": "0x0000000000000000000000000000000000000000000000000000000000000020000000000000000000000000000000000000000000000000000000000000004000000000000000000000000061e29379b06491ea5a0be90fae954c56c91fd9c4000000000000000000000000000000000000000000000000000000000000002bc02aaa39b223fe8d0a0e5c4f27ead9083c756cc200271095392f142af1c12f6e39897ff9b09c599666b50c000000000000000000000000000000000000000000"
                            }
                        ],
                        "constructorArguments": "",
                        "name": "swap",
                        "returnParams": [
                            {
                                "name": "amount0",
                                "type": "int256",
                                "value": "-4,116,967,314,990,707,787,245"
                            },
                            {
                                "name": "amount1",
                                "type": "int256",
                                "value": "500,000,000,000,000,000"
                            }
                        ],
                        "signature": "swap(address,bool,int256,uint160,bytes)"
                    },
                    "errorInfo": "",
                    "fromAddress": "0x68b3465833fb72a70ecdf485e0e4c7bd8665fc45",
                    "gasUsed": 121765,
                    "id": 2,
                    "methodDecoded": true,
                    "operation": "CALL",
                    "output": "0xffffffffffffffffffffffffffffffffffffffffffffff20d199e7a4c523ba1300000000000000000000000000000000000000000000000006f05b59d3b20000",
                    "revert": false,
                    "revertMessage": "",
                    "selector": "0x128acb08",
                    "status": true,
                    "value": "0"
                },
                "nodeType": 0
            },
            "3": {
                "invocation": {
                    "address": "0x95392f142af1c12f6e39897ff9b09c599666b50c",
                    "callData": "0x00000000000000000000000061e29379b06491ea5a0be90fae954c56c91fd9c40000000000000000000000000000000000000000000000df2e66185b3adc45ed",
                    "decodedMethod": {
                        "callParams": [
                            {
                                "name": "recipient",
                                "type": "address",
                                "value": "0x61e29379b06491ea5a0be90fae954c56c91fd9c4"
                            },
                            {
                                "decimalAvailable": true,
                                "name": "amount",
                                "type": "uint256",
                                "value": "4,116,967,314,990,707,787,245"
                            }
                        ],
                        "constructorArguments": "",
                        "name": "transfer",
                        "returnParams": [
                            {
                                "name": "",
                                "type": "bool",
                                "value": true
                            }
                        ],
                        "signature": "transfer(address,uint256)"
                    },
                    "errorInfo": "",
                    "fromAddress": "0x700f4dc28170f9903faa6da32d6663ff1ac94f27",
                    "gasUsed": 34432,
                    "id": 3,
                    "methodDecoded": true,
                    "operation": "CALL",
                    "output": "0x0000000000000000000000000000000000000000000000000000000000000001",
                    "revert": false,
                    "revertMessage": "",
                    "selector": "0xa9059cbb",
                    "status": true,
                    "value": "0"
                },
                "nodeType": 0
            },
            "4": {
                "event": {
                    "contract": "0x95392f142af1c12f6e39897ff9b09c599666b50c",
                    "decodedLog": {
                        "name": "Transfer",
                        "params": [
                            {
                                "name": "from",
                                "type": "address",
                                "value": "0x700f4dc28170f9903faa6da32d6663ff1ac94f27"
                            },
                            {
                                "name": "to",
                                "type": "address",
                                "value": "0x61e29379b06491ea5a0be90fae954c56c91fd9c4"
                            },
                            {
                                "decimalAvailable": true,
                                "name": "value",
                                "type": "uint256",
                                "value": "4,116,967,314,990,707,787,245"
                            }
                        ],
                        "signature": "Transfer(address,address,uint256)"
                    },
                    "id": 4,
                    "logData": "0x0000000000000000000000000000000000000000000000df2e66185b3adc45ed",
                    "logDecoded": true,
                    "operation": "EVENT",
                    "revert": false,
                    "status": true,
                    "topics": [
                        "0xddf252ad1be2c89b69c2b068fc378daa952ba7f163c4a11628f55a4df523b3ef",
                        "0x000000000000000000000000700f4dc28170f9903faa6da32d6663ff1ac94f27",
                        "0x00000000000000000000000061e29379b06491ea5a0be90fae954c56c91fd9c4"
                    ]
                },
                "nodeType": 1
            },
            "5": {
                "invocation": {
                    "address": "0xc02aaa39b223fe8d0a0e5c4f27ead9083c756cc2",
                    "callData": "0x000000000000000000000000700f4dc28170f9903faa6da32d6663ff1ac94f27",
                    "decodedMethod": {
                        "callParams": [
                            {
                                "name": "",
                                "type": "address",
                                "value": "0x700f4dc28170f9903faa6da32d6663ff1ac94f27"
                            }
                        ],
                        "constructorArguments": "",
                        "name": "balanceOf",
                        "returnParams": [
                            {
                                "decimalAvailable": true,
                                "name": "",
                                "type": "uint256",
                                "value": "137,240,352,384,683,912,066"
                            }
                        ],
                        "signature": "balanceOf(address)"
                    },
                    "errorInfo": "",
                    "fromAddress": "0x700f4dc28170f9903faa6da32d6663ff1ac94f27",
                    "gasUsed": 2534,
                    "id": 5,
                    "methodDecoded": true,
                    "operation": "STATICCALL",
                    "output": "0x0000000000000000000000000000000000000000000000077097ad5d0284ab82",
                    "revert": false,
                    "revertMessage": "",
                    "selector": "0x70a08231",
                    "status": true,
                    "value": "0"
                },
                "nodeType": 0
            },
            "6": {
                "invocation": {
                    "address": "0x68b3465833fb72a70ecdf485e0e4c7bd8665fc45",
                    "callData": "0xffffffffffffffffffffffffffffffffffffffffffffff20d199e7a4c523ba1300000000000000000000000000000000000000000000000006f05b59d3b20000000000000000000000000000000000000000000000000000000000000000006000000000000000000000000000000000000000000000000000000000000000c00000000000000000000000000000000000000000000000000000000000000020000000000000000000000000000000000000000000000000000000000000004000000000000000000000000061e29379b06491ea5a0be90fae954c56c91fd9c4000000000000000000000000000000000000000000000000000000000000002bc02aaa39b223fe8d0a0e5c4f27ead9083c756cc200271095392f142af1c12f6e39897ff9b09c599666b50c000000000000000000000000000000000000000000",
                    "decodedMethod": {
                        "callParams": [
                            {
                                "name": "amount0Delta",
                                "type": "int256",
                                "value": "-4,116,967,314,990,707,787,245"
                            },
                            {
                                "name": "amount1Delta",
                                "type": "int256",
                                "value": "500,000,000,000,000,000"
                            },
                            {
                                "name": "_data",
                                "type": "bytes",
                                "value": "0x0000000000000000000000000000000000000000000000000000000000000020000000000000000000000000000000000000000000000000000000000000004000000000000000000000000061e29379b06491ea5a0be90fae954c56c91fd9c4000000000000000000000000000000000000000000000000000000000000002bc02aaa39b223fe8d0a0e5c4f27ead9083c756cc200271095392f142af1c12f6e39897ff9b09c599666b50c000000000000000000000000000000000000000000"
                            }
                        ],
                        "constructorArguments": "",
                        "name": "uniswapV3SwapCallback",
                        "returnParams": [],
                        "signature": "uniswapV3SwapCallback(int256,int256,bytes)"
                    },
                    "errorInfo": "",
                    "fromAddress": "0x700f4dc28170f9903faa6da32d6663ff1ac94f27",
                    "gasUsed": 40545,
                    "id": 6,
                    "methodDecoded": true,
                    "operation": "CALL",
                    "output": "",
                    "revert": false,
                    "revertMessage": "",
                    "selector": "0xfa461e33",
                    "status": true,
                    "value": "0"
                },
                "nodeType": 0
            },
            "7": {
                "invocation": {
                    "address": "0xc02aaa39b223fe8d0a0e5c4f27ead9083c756cc2",
                    "callData": "0x",
                    "decodedMethod": {
                        "callParams": [],
                        "constructorArguments": "",
                        "name": "deposit",
                        "returnParams": [],
                        "signature": "deposit()"
                    },
                    "errorInfo": "",
                    "fromAddress": "0x68b3465833fb72a70ecdf485e0e4c7bd8665fc45",
                    "gasUsed": 23974,
                    "id": 7,
                    "methodDecoded": true,
                    "operation": "CALL",
                    "output": "",
                    "revert": false,
                    "revertMessage": "",
                    "selector": "0xd0e30db0",
                    "status": true,
                    "value": "0.5"
                },
                "nodeType": 0
            },
            "8": {
                "event": {
                    "contract": "0xc02aaa39b223fe8d0a0e5c4f27ead9083c756cc2",
                    "decodedLog": {
                        "name": "Deposit",
                        "params": [
                            {
                                "name": "dst",
                                "type": "address",
                                "value": "0x68b3465833fb72a70ecdf485e0e4c7bd8665fc45"
                            },
                            {
                                "name": "wad",
                                "type": "uint256",
                                "value": "500,000,000,000,000,000"
                            }
                        ],
                        "signature": "Deposit(address,uint256)"
                    },
                    "id": 8,
                    "logData": "0x00000000000000000000000000000000000000000000000006f05b59d3b20000",
                    "logDecoded": true,
                    "operation": "EVENT",
                    "revert": false,
                    "status": true,
                    "topics": [
                        "0xe1fffcc4923d04b559f4d29a8bfc6cda04eb5b0d3c460751c2402c5c5cc9109c",
                        "0x00000000000000000000000068b3465833fb72a70ecdf485e0e4c7bd8665fc45"
                    ]
                },
                "nodeType": 1
            },
            "9": {
                "invocation": {
                    "address": "0xc02aaa39b223fe8d0a0e5c4f27ead9083c756cc2",
                    "callData": "0x000000000000000000000000700f4dc28170f9903faa6da32d6663ff1ac94f2700000000000000000000000000000000000000000000000006f05b59d3b20000",
                    "decodedMethod": {
                        "callParams": [
                            {
                                "name": "dst",
                                "type": "address",
                                "value": "0x700f4dc28170f9903faa6da32d6663ff1ac94f27"
                            },
                            {
                                "decimalAvailable": true,
                                "name": "wad",
                                "type": "uint256",
                                "value": "500,000,000,000,000,000"
                            }
                        ],
                        "constructorArguments": "",
                        "name": "transfer",
                        "returnParams": [
                            {
                                "name": "",
                                "type": "bool",
                                "value": true
                            }
                        ],
                        "signature": "transfer(address,uint256)"
                    },
                    "errorInfo": "",
                    "fromAddress": "0x68b3465833fb72a70ecdf485e0e4c7bd8665fc45",
                    "gasUsed": 6062,
                    "id": 9,
                    "methodDecoded": true,
                    "operation": "CALL",
                    "output": "0x0000000000000000000000000000000000000000000000000000000000000001",
                    "revert": false,
                    "revertMessage": "",
                    "selector": "0xa9059cbb",
                    "status": true,
                    "value": "0"
                },
                "nodeType": 0
            }
        },
        "gasFlame": [
            {
                "children": [
                    {
                        "children": [
                            {
                                "children": [],
                                "depth": 0,
                                "name": "Initial Gas",
                                "value": 23796
                            },
                            {
                                "children": [
                                    {
                                        "children": [
                                            {
                                                "children": [
                                                    {
                                                        "children": [],
                                                        "depth": 3,
                                                        "name": "transfer",
                                                        "value": 34432
                                                    },
                                                    {
                                                        "children": [],
                                                        "depth": 3,
                                                        "name": "balanceOf",
                                                        "value": 2534
                                                    },
                                                    {
                                                        "children": [
                                                            {
                                                                "children": [],
                                                                "depth": 4,
                                                                "name": "deposit",
                                                                "value": 23974
                                                            },
                                                            {
                                                                "children": [],
                                                                "depth": 4,
                                                                "name": "transfer",
                                                                "value": 6062
                                                            }
                                                        ],
                                                        "depth": 3,
                                                        "name": "uniswapV3SwapCallback",
                                                        "value": 40545
                                                    },
                                                    {
                                                        "children": [],
                                                        "depth": 3,
                                                        "name": "balanceOf",
                                                        "value": 534
                                                    }
                                                ],
                                                "depth": 2,
                                                "name": "swap",
                                                "value": 121765
                                            }
                                        ],
                                        "depth": 1,
                                        "name": "exactInputSingle",
                                        "value": 129190
                                    }
                                ],
                                "depth": 0,
                                "name": "Executed Gas",
                                "value": 131368
                            }
                        ],
                        "depth": -1,
                        "name": "Actual Gas Used",
                        "value": 135264
                    },
                    {
                        "children": [],
                        "depth": -1,
                        "name": "Refunded Gas",
                        "value": 19900
                    }
                ],
                "depth": -2,
                "name": "Total Gas",
                "value": 155164
            }
        ],
        "isConfirmed": true,
        "mainTrace": [
            {
                "children": [
                    {
                        "children": [
                            {
                                "children": [
                                    {
                                        "children": [
                                            {
                                                "children": [
                                                    {
                                                        "children": [],
                                                        "depth": 4,
                                                        "id": 4,
                                                        "order": 4
                                                    }
                                                ],
                                                "depth": 3,
                                                "id": 3,
                                                "order": 3
                                            },
                                            {
                                                "children": [],
                                                "depth": 3,
                                                "id": 5,
                                                "order": 5
                                            },
                                            {
                                                "children": [
                                                    {
                                                        "children": [
                                                            {
                                                                "children": [],
                                                                "depth": 5,
                                                                "id": 8,
                                                                "order": 8
                                                            }
                                                        ],
                                                        "depth": 4,
                                                        "id": 7,
                                                        "order": 7
                                                    },
                                                    {
                                                        "children": [
                                                            {
                                                                "children": [],
                                                                "depth": 5,
                                                                "id": 10,
                                                                "order": 10
                                                            }
                                                        ],
                                                        "depth": 4,
                                                        "id": 9,
                                                        "order": 9
                                                    }
                                                ],
                                                "depth": 3,
                                                "id": 6,
                                                "order": 6
                                            },
                                            {
                                                "children": [],
                                                "depth": 3,
                                                "id": 11,
                                                "order": 11
                                            },
                                            {
                                                "children": [],
                                                "depth": 3,
                                                "id": 12,
                                                "order": 12
                                            }
                                        ],
                                        "depth": 2,
                                        "id": 2,
                                        "order": 2
                                    }
                                ],
                                "depth": 1,
                                "id": 1,
                                "order": 1
                            }
                        ],
                        "depth": 0,
                        "id": 0,
                        "order": 0
                    }
                ],
                "depth": -1,
                "id": -1,
                "order": -1
            }
        ],
        "mainTraceNodeCount": 13,
        "parentIdMap": {
            "0": -1,
            "1": 0,
            "10": 9,
            "11": 2,
            "12": 2,
            "2": 1,
            "3": 2,
            "4": 3,
            "5": 2,
            "6": 2,
            "7": 6,
            "8": 7,
            "9": 6
        },
        "tidyTrace": [
            {
                "children": [
                    {
                        "children": [
                            {
                                "children": [
                                    {
                                        "children": [
                                            {
                                                "children": [
                                                    {
                                                        "children": [],
                                                        "depth": 4,
                                                        "id": 4,
                                                        "order": 4
                                                    }
                                                ],
                                                "depth": 3,
                                                "id": 3,
                                                "order": 3
                                            },
                                            {
                                                "children": [
                                                    {
                                                        "children": [
                                                            {
                                                                "children": [],
                                                                "depth": 5,
                                                                "id": 8,
                                                                "order": 8
                                                            }
                                                        ],
                                                        "depth": 4,
                                                        "id": 7,
                                                        "order": 7
                                                    },
                                                    {
                                                        "children": [
                                                            {
                                                                "children": [],
                                                                "depth": 5,
                                                                "id": 10,
                                                                "order": 10
                                                            }
                                                        ],
                                                        "depth": 4,
                                                        "id": 9,
                                                        "order": 9
                                                    }
                                                ],
                                                "depth": 3,
                                                "id": 6,
                                                "order": 6
                                            },
                                            {
                                                "children": [],
                                                "depth": 3,
                                                "id": 12,
                                                "order": 12
                                            }
                                        ],
                                        "depth": 2,
                                        "id": 2,
                                        "order": 2
                                    }
                                ],
                                "depth": 1,
                                "id": 1,
                                "order": 1
                            }
                        ],
                        "depth": 0,
                        "id": 0,
                        "order": 0
                    }
                ],
                "depth": -1,
                "id": -1,
                "order": -1
            }
        ],
        "tidyTraceNodeCount": 11
    },
    "state_change": {
        "stateChanges": [
            {
                "address": "0x700f4dc28170f9903faa6da32d6663ff1ac94f27",
                "erc": "",
                "slots": [
                    {
                        "current": "0x000100000100010000fe9f86000000000000000002cfbbb063aa34fb50ac7264",
                        "key": "0x0000000000000000000000000000000000000000000000000000000000000000",
                        "prev": "0x000100000100010000fe9f47000000000000000002cd7d8e8bd3c970b08b67f4"
                    },
                    {
                        "current": "0x010000000000000000000000011f4bb4e45ec2d073fffffffaee6bee625871e1",
                        "key": "0x0000000000000000000000000000000000000000000000000000000000000008",
                        "prev": "0x010000000000000000000000011bb45c3b1d93943ffffffffafd93e1625871d6"
                    },
                    {
                        "current": "0x000000000000000000000000000000000007f1915393fe690d02ac8a2cba964f",
                        "key": "0x0000000000000000000000000000000000000000000000000000000000000002",
                        "prev": "0x000000000000000000000000000000000007ebc4b3a919c4bdd1357c1c9c0d2b"
                    }
                ],
                "storageVariables": []
            },
            {
                "address": "0x95392f142af1c12f6e39897ff9b09c599666b50c",
                "erc": "ERC-20",
                "slots": [
                    {
                        "current": "0x0000000000000000000000000000000000000000000058c55b346e55e45c37bf",
                        "key": "0x3c36b6ec7c5b83b56dc759cc14b62de38a7582366796fa230b89c77a9553cebc",
                        "prev": "0x0000000000000000000000000000000000000000000059a4899a86b11f387dac"
                    },
                    {
                        "current": "0x0000000000000000000000000000000000000000000000df2e66185b3adc45ed",
                        "key": "0x7f66f1e23b59feda3c95d6e76fa4ef82bbcb4814e8bcd5f967c06f1e242fa168",
                        "prev": "0x0000000000000000000000000000000000000000000000000000000000000000"
                    }
                ],
                "storageVariables": [
                    {
                        "name": "_balances",
                        "type": "mapping(address => uint256)",
                        "value": {
                            "pairs": [
                                {
                                    "key": "0x61e29379b06491ea5a0be90fae954c56c91fd9c4",
                                    "value": {
                                        "current": "4116967314990707787245",
                                        "prev": "0",
                                        "typeTag": 1
                                    }
                                },
                                {
                                    "key": "0x700f4dc28170f9903faa6da32d6663ff1ac94f27",
                                    "value": {
                                        "current": "419208831074120983394239",
                                        "prev": "423325798389111691181484",
                                        "typeTag": 1
                                    }
                                }
                            ],
                            "typeTag": 4
                        }
                    }
                ]
            },
            {
                "address": "0xc02aaa39b223fe8d0a0e5c4f27ead9083c756cc2",
                "erc": "ERC-20",
                "slots": [
                    {
                        "current": "0x000000000000000000000000000000000000000000000007778808b6d636ab82",
                        "key": "0xa22b12f9e3d755db968b615ef308c663d95051298012a6034344a0f6c3c784e2",
                        "prev": "0x0000000000000000000000000000000000000000000000077097ad5d0284ab82"
                    }
                ],
                "storageVariables": [
                    {
                        "name": "balanceOf",
                        "type": "mapping(address => uint256)",
                        "value": {
                            "pairs": [
                                {
                                    "key": "0x700f4dc28170f9903faa6da32d6663ff1ac94f27",
                                    "value": {
                                        "current": "137740352384683912066",
                                        "prev": "137240352384683912066",
                                        "typeTag": 1
                                    }
                                }
                            ],
                            "typeTag": 4
                        }
                    }
                ]
            }
        ]
    }
}