{
    "balance_change": {
        "balanceChanges": []
    },
    "profile": {
        "basic_info": {
            "baseFee": "",
            "blockNumber": 1618394,
            "callData": "0x90fa337d000000000000000000000000000000000000000000000000000000000000006000000000000000000000000000000000000000000000000000038d7ea4c6800000000000000000000000000001a23fd30aabf5ad53bab3093dcd4948e15cec80000000000000000000000000000000000000000000000000000000000000005001000020b817aa6e10c5039997c3e1df43e2435f18a78136b5d94105000000000000000066fbcf1d3974e768a61ed1bdf78c36c00dac592df58e6415af5ab719e3aa43d58d904d57368405183242101200000000000000000000000000000000",
            "debugEnable": true,
            "errorInfo": "",
            "eventCount": 1,
            "feeRecipient": "0x2a65aca4d5fc5b5c859090a6c34d164135398226",
            "formatValue": "0",
            "gasLimit": 1200000,
            "gasPrice": "20",
            "gasUsed": 221278,
            "intTxnCount": 7,
            "internalRevert": false,
            "internalRevertMessage": "",
            "isContractCreation": false,
            "isFlashloan": false,
            "maxFee": "",
            "nonce": 5991,
            "overwritedBlockNumber": -1,
            "priorityFee": "",
            "receiver": "0x41f274c0023f83391de4e0733c609df5a124c3d4",
            "revertMessage": "",
            "sender": "0xac4361f56c82ed59d533d45129f407015d84702a",
            "simulationEnable": true,
            "sourceTxnHash": "0x6c92b6275951c46cfe10c4c05330cc2e4c8506bbd550718f9f291bd2e420ef24",
            "status": true,
            "timestamp": "2016-05-31T13:26:00Z",
            "transactionFee": "0.00442556",
            "txnHash": "0x6c92b6275951c46cfe10c4c05330cc2e4c8506bbd550718f9f291bd2e420ef24",
            "txnIndex": 1,
            "type": 0,
            "value": "0"
        },
        "fund_flow": [],
        "token_infos": [
            {
                "address": "0xc02aaa39b223fe8d0a0e5c4f27ead9083c756cc2",
                "decimals": 18
            },
            {
                "address": "0xeeeeeeeeeeeeeeeeeeeeeeeeeeeeeeeeeeeeeeee",
                "decimals": 18
            }
        ]
    },
    "address_label": {
        "labels": [
            {
                "address": "0x41f274c0023f83391de4e0733c609df5a124c3d4",
                "label": "BTCRelay"
            },
            {
                "address": "0x0000000000000000000000000000000000000002",
                "label": "Precompiled"
            },
            {
                "address": "0x0000000000000000000000000000000000000004",
                "label": "Precompiled"
            },
            {
                "address": "0x0000000000000000000000000000000000000001",
                "label": "Precompiled"
            },
            {
                "address": "0x0000000000000000000000000000000000000003",
                "label": "Precompiled"
            },
            {
                "address": "0xeeeeeeeeeeeeeeeeeeeeeeeeeeeeeeeeeeeeeeee",
                "label": "Ether"
            }
        ]
    },
    "trace": {
        "accountLabels": null,
        "dataMap": {
            "-1": {
                "invocation": {
                    "address": "0xac4361f56c82ed59d533d45129f407015d84702a",
                    "callData": "",
                    "decodedMethod": null,
                    "errorInfo": "",
                    "fromAddress": "",
                    "gasUsed": 0,
                    "id": -1,
                    "methodDecoded": false,
                    "operation": "",
                    "output": "",
                    "revert": false,
                    "revertMessage": "",
                    "selector": "",
                    "status": false,
                    "value": ""
                },
                "nodeType": 0
            },
            "0": {
                "invocation": {
                    "address": "0x41f274c0023f83391de4e0733c609df5a124c3d4",
                    "callData": "0x000000000000000000000000000000000000000000000000000000000000006000000000000000000000000000000000000000000000000000038d7ea4c6800000000000000000000000000001a23fd30aabf5ad53bab3093dcd4948e15cec80000000000000000000000000000000000000000000000000000000000000005001000020b817aa6e10c5039997c3e1df43e2435f18a78136b5d94105000000000000000066fbcf1d3974e768a61ed1bdf78c36c00dac592df58e6415af5ab719e3aa43d58d904d57368405183242101200000000000000000000000000000000",
                    "decodedMethod": null,
                    "errorInfo": "",
                    "fromAddress": "0xac4361f56c82ed59d533d45129f407015d84702a",
                    "gasUsed": 221278,
                    "id": 0,
                    "methodDecoded": false,
                    "operation": "CALL",
                    "output": "0x00000000000000000000000000000000000000000000000000000000000651fc",
                    "revert": false,
                    "revertMessage": "",
                    "selector": "0x90fa337d",
                    "status": true,
                    "value": "0"
                },
                "nodeType": 0
            },
            "1": {
                "invocation": {
                    "address": "0x0000000000000000000000000000000000000004",
                    "callData": "0x0000000000000000000000000000000000000000000000000000000000000020",
                    "decodedMethod": {
                        "callParams": [
                            {
                                "name": "data",
                                "type": "bytes",
                                "value": "0x2b8616290000000000000000000000000000000000000000000000000000000000000020"
                            }
                        ],
                        "constructorArguments": "",
                        "name": "dataCopy()",
                        "returnParams": [
                            {
                                "name": "data",
                                "type": "bytes",
                                "value": "0x2b8616290000000000000000000000000000000000000000000000000000000000000020"
                            }
                        ],
                        "signature": "dataCopy(bytes)"
                    },
                    "errorInfo": "",
                    "fromAddress": "0x41f274c0023f83391de4e0733c609df5a124c3d4",
                    "gasUsed": 21,
                    "id": 1,
                    "methodDecoded": true,
                    "operation": "CALL",
                    "output": "0x2b8616290000000000000000000000000000000000000000000000000000000000000020",
                    "revert": false,
                    "revertMessage": "",
                    "selector": "0x2b861629",
                    "status": true,
                    "value": "0"
                },
                "nodeType": 0
            },
            "2": {
                "invocation": {
                    "address": "0x0000000000000000000000000000000000000004",
                    "callData": "0x0000000000000000000000000000000000000000000000000000005001000020b817aa6e10c5039997c3e1df43e2435f18a78136b5d94105000000000000000066fbcf1d3974e768a61ed1bdf78c36c00dac592df58e6415af5ab719e3aa43d58d904d57368405183242101200000000000000000000000000000000",
                    "decodedMethod": {
                        "callParams": [
                            {
                                "name": "data",
                                "type": "bytes",
                                "value": "0x000000000000000000000000000000000000000000000000000000000000005001000020b817aa6e10c5039997c3e1df43e2435f18a78136b5d94105000000000000000066fbcf1d3974e768a61ed1bdf78c36c00dac592df58e6415af5ab719e3aa43d58d904d57368405183242101200000000000000000000000000000000"
                            }
                        ],
                        "constructorArguments": "",
                        "name": "dataCopy()",
                        "returnParams": [
                            {
                                "name": "data",
                                "type": "bytes",
                                "value": "0x000000000000000000000000000000000000000000000000000000000000005001000020b817aa6e10c5039997c3e1df43e2435f18a78136b5d94105000000000000000066fbcf1d3974e768a61ed1bdf78c36c00dac592df58e6415af5ab719e3aa43d58d904d57368405183242101200000000000000000000000000000000"
                            }
                        ],
                        "signature": "dataCopy(bytes)"
                    },
                    "errorInfo": "",
                    "fromAddress": "0x41f274c0023f83391de4e0733c609df5a124c3d4",
                    "gasUsed": 27,
                    "id": 2,
                    "methodDecoded": true,
                    "operation": "CALL",
                    "output": "0x000000000000000000000000000000000000000000000000000000000000005001000020b817aa6e10c5039997c3e1df43e2435f18a78136b5d94105000000000000000066fbcf1d3974e768a61ed1bdf78c36c00dac592df58e6415af5ab719e3aa43d58d904d57368405183242101200000000000000000000000000000000",
                    "revert": false,
                    "revertMessage": "",
                    "selector": "0x00000000",
                    "status": true,
                    "value": "0"
                },
                "nodeType": 0
            },
            "3": {
                "invocation": {
                    "address": "0x41f274c0023f83391de4e0733c609df5a124c3d4",
                    "callData": "0x0000000000000000000000000000000000000000000000000000000000000020000000000000000000000000000000000000000000000000000000000000005001000020b817aa6e10c5039997c3e1df43e2435f18a78136b5d94105000000000000000066fbcf1d3974e768a61ed1bdf78c36c00dac592df58e6415af5ab719e3aa43d58d904d57368405183242101200000000000000000000000000000000",
                    "decodedMethod": {
                        "callParams": [
                            {
                                "name": "header",
                                "type": "bytes",
                                "value": "0x01000020b817aa6e10c5039997c3e1df43e2435f18a78136b5d94105000000000000000066fbcf1d3974e768a61ed1bdf78c36c00dac592df58e6415af5ab719e3aa43d58d904d573684051832421012"
                            }
                        ],
                        "constructorArguments": "",
                        "name": "storeBlockHeader",
                        "returnParams": [
                            {
                                "name": "",
                                "type": "uint256",
                                "value": "414,204"
                            }
                        ],
                        "signature": "storeBlockHeader(bytes)"
                    },
                    "errorInfo": "",
                    "fromAddress": "0x41f274c0023f83391de4e0733c609df5a124c3d4",
                    "gasUsed": 162521,
                    "id": 3,
                    "methodDecoded": true,
                    "operation": "CALL",
                    "output": "0x00000000000000000000000000000000000000000000000000000000000651fc",
                    "revert": false,
                    "revertMessage": "",
                    "selector": "0x2b861629",
                    "status": true,
                    "value": "0"
                },
                "nodeType": 0
            },
            "4": {
                "invocation": {
                    "address": "0x0000000000000000000000000000000000000002",
                    "callData": "0xb817aa6e10c5039997c3e1df43e2435f18a78136b5d94105000000000000000066fbcf1d3974e768a61ed1bdf78c36c00dac592df58e6415af5ab719e3aa43d58d904d573684051832421012",
                    "decodedMethod": {
                        "callParams": [
                            {
                                "name": "data",
                                "type": "bytes",
                                "value": "0x01000020b817aa6e10c5039997c3e1df43e2435f18a78136b5d94105000000000000000066fbcf1d3974e768a61ed1bdf78c36c00dac592df58e6415af5ab719e3aa43d58d904d573684051832421012"
                            }
                        ],
                        "constructorArguments": "",
                        "name": "sha256hash",
                        "returnParams": [
                            {
                                "name": "hash",
                                "type": "bytes32",
                                "value": "0xbbf211bfbb6000ceb3cb9e48891ace35913ba2b66ec2c9ea340e57039c25ab4c"
                            }
                        ],
                        "signature": "sha256hash(bytes)"
                    },
                    "errorInfo": "",
                    "fromAddress": "0x41f274c0023f83391de4e0733c609df5a124c3d4",
                    "gasUsed": 96,
                    "id": 4,
                    "methodDecoded": true,
                    "operation": "CALL",
                    "output": "0xbbf211bfbb6000ceb3cb9e48891ace35913ba2b66ec2c9ea340e57039c25ab4c",
                    "revert": false,
                    "revertMessage": "",
                    "selector": "0x01000020",
                    "status": true,
                    "value": "0"
                },
                "nodeType": 0
            },
            "5": {
                "invocation": {
                    "address": "0x0000000000000000000000000000000000000002",
                    "callData": "0xbb6000ceb3cb9e48891ace35913ba2b66ec2c9ea340e57039c25ab4c",
                    "decodedMethod": {
                        "callParams": [
                            {
                                "name": "data",
                                "type": "bytes",
                                "value": "0xbbf211bfbb6000ceb3cb9e48891ace35913ba2b66ec2c9ea340e57039c25ab4c"
                            }
                        ],
                        "constructorArguments": "",
                        "name": "sha256hash",
                        "returnParams": [
                            {
                                "name": "hash",
                                "type": "bytes32",
                                "value": "0xe2d72edc4f3104c25720318856980f34ddee0734a5d446020000000000000000"
                            }
                        ],
                        "signature": "sha256hash(bytes)"
                    },
                    "errorInfo": "",
                    "fromAddress": "0x41f274c0023f83391de4e0733c609df5a124c3d4",
                    "gasUsed": 72,
                    "id": 5,
                    "methodDecoded": true,
                    "operation": "CALL",
                    "output": "0xe2d72edc4f3104c25720318856980f34ddee0734a5d446020000000000000000",
                    "revert": false,
                    "revertMessage": "",
                    "selector": "0xbbf211bf",
                    "status": true,
                    "value": "0"
                },
                "nodeType": 0
            },
            "6": {
                "event": {
                    "contract": "0x41f274c0023f83391de4e0733c609df5a124c3d4",
                    "decodedLog": null,
                    "id": 6,
                    "logData": "0x",
                    "logDecoded": false,
                    "operation": "EVENT",
                    "revert": false,
                    "status": true,
                    "topics": [
                        "0x055e4f8dd3a534789b3feb8e0681afa2aee8713fdd6472f25b2c30dc7bf4e0f4",
                        "0x00000000000000000246d4a53407eedd340f985688312057c204314fdc2ed7e2",
                        "0x00000000000000000000000000000000000000000000000000000000000651fc"
                    ]
                },
                "nodeType": 1
            },
            "7": {
                "invocation": {
                    "address": "0x0000000000000000000000000000000000000002",
                    "callData": "0xb817aa6e10c5039997c3e1df43e2435f18a78136b5d94105000000000000000066fbcf1d3974e768a61ed1bdf78c36c00dac592df58e6415af5ab719e3aa43d58d904d573684051832421012",
                    "decodedMethod": {
                        "callParams": [
                            {
                                "name": "data",
                                "type": "bytes",
                                "value": "0x01000020b817aa6e10c5039997c3e1df43e2435f18a78136b5d94105000000000000000066fbcf1d3974e768a61ed1bdf78c36c00dac592df58e6415af5ab719e3aa43d58d904d573684051832421012"
                            }
                        ],
                        "constructorArguments": "",
                        "name": "sha256hash",
                        "returnParams": [
                            {
                                "name": "hash",
                                "type": "bytes32",
                                "value": "0xbbf211bfbb6000ceb3cb9e48891ace35913ba2b66ec2c9ea340e57039c25ab4c"
                            }
                        ],
                        "signature": "sha256hash(bytes)"
                    },
                    "errorInfo": "",
                    "fromAddress": "0x41f274c0023f83391de4e0733c609df5a124c3d4",
                    "gasUsed": 96,
                    "id": 7,
                    "methodDecoded": true,
                    "operation": "CALL",
                    "output": "0xbbf211bfbb6000ceb3cb9e48891ace35913ba2b66ec2c9ea340e57039c25ab4c",
                    "revert": false,
                    "revertMessage": "",
                    "selector": "0x01000020",
                    "status": true,
                    "value": "0"
                },
                "nodeType": 0
            },
            "8": {
                "invocation": {
                    "address": "0x0000000000000000000000000000000000000002",
                    "callData": "0xbb6000ceb3cb9e48891ace35913ba2b66ec2c9ea340e57039c25ab4c",
                    "decodedMethod": {
                        "callParams": [
                            {
                                "name": "data",
                                "type": "bytes",
                                "value": "0xbbf211bfbb6000ceb3cb9e48891ace35913ba2b66ec2c9ea340e57039c25ab4c"
                            }
                        ],
                        "constructorArguments": "",
                        "name": "sha256hash",
                        "returnParams": [
                            {
                                "name": "hash",
                                "type": "bytes32",
                                "value": "0xe2d72edc4f3104c25720318856980f34ddee0734a5d446020000000000000000"
                            }
                        ],
                        "signature": "sha256hash(bytes)"
                    },
                    "errorInfo": "",
                    "fromAddress": "0x41f274c0023f83391de4e0733c609df5a124c3d4",
                    "gasUsed": 72,
                    "id": 8,
                    "methodDecoded": true,
                    "operation": "CALL",
                    "output": "0xe2d72edc4f3104c25720318856980f34ddee0734a5d446020000000000000000",
                    "revert": false,
                    "revertMessage": "",
                    "selector": "0xbbf211bf",
                    "status": true,
                    "value": "0"
                },
                "nodeType": 0
            }
        },
        "gasFlame": [
            {
                "children": [
                    {
                        "children": [
                            {
                                "children": [],
                                "depth": 0,
                                "name": "Initial Gas",
                                "value": 28440
                            },
                            {
                                "children": [
                                    {
                                        "children": [],
                                        "depth": 1,
                                        "name": "dataCopy()",
                                        "value": 21
                                    },
                                    {
                                        "children": [],
                                        "depth": 1,
                                        "name": "dataCopy()",
                                        "value": 27
                                    },
                                    {
                                        "children": [
                                            {
                                                "children": [],
                                                "depth": 2,
                                                "name": "sha256hash",
                                                "value": 96
                                            },
                                            {
                                                "children": [],
                                                "depth": 2,
                                                "name": "sha256hash",
                                                "value": 72
                                            }
                                        ],
                                        "depth": 1,
                                        "name": "storeBlockHeader",
                                        "value": 162521
                                    },
                                    {
                                        "children": [],
                                        "depth": 1,
                                        "name": "sha256hash",
                                        "value": 96
                                    },
                                    {
                                        "children": [],
                                        "depth": 1,
                                        "name": "sha256hash",
                                        "value": 72
                                    }
                                ],
                                "depth": 0,
                                "name": "Executed Gas",
                                "value": 192838
                            }
                        ],
                        "depth": -1,
                        "name": "Actual Gas Used",
                        "value": 221278
                    },
                    {
                        "children": [],
                        "depth": -1,
                        "name": "Refunded Gas",
                        "value": 0
                    }
                ],
                "depth": -2,
                "name": "Total Gas",
                "value": 221278
            }
        ],
        "isConfirmed": true,
        "mainTrace": [
            {
                "children": [
                    {
                        "children": [
                            {
                                "children": [],
                                "depth": 1,
                                "id": 1,
                                "order": 1
                            },
                            {
                                "children": [],
                                "depth": 1,
                                "id": 2,
                                "order": 2
                            },
                            {
                                "children": [
                                    {
                                        "children": [],
                                        "depth": 2,
                                        "id": 4,
                                        "order": 4
                                    },
                                    {
                                        "children": [],
                                        "depth": 2,
                                        "id": 5,
                                        "order": 5
                                    },
                                    {
                                        "children": [],
                                        "depth": 2,
                                        "id": 6,
                                        "order": 6
                                    }
                                ],
                                "depth": 1,
                                "id": 3,
                                "order": 3
                            },
                            {
                                "children": [],
                                "depth": 1,
                                "id": 7,
                                "order": 7
                            },
                            {
                                "children": [],
                                "depth": 1,
                                "id": 8,
                                "order": 8
                            }
                        ],
                        "depth": 0,
                        "id": 0,
                        "order": 0
                    }
                ],
                "depth": -1,
                "id": -1,
                "order": -1
            }
        ],
        "mainTraceNodeCount": 9,
        "parentIdMap": {
            "0": -1,
            "1": 0,
            "2": 0,
            "3": 0,
            "4": 3,
            "5": 3,
            "6": 3,
            "7": 0,
            "8": 0
        },
        "tidyTrace": [
            {
                "children": [
                    {
                        "children": [
                            {
                                "children": [],
                                "depth": 1,
                                "id": 1,
                                "order": 1
                            },
                            {
                                "children": [],
                                "depth": 1,
                                "id": 2,
                                "order": 2
                            },
                            {
                                "children": [
                                    {
                                        "children": [],
                                        "depth": 2,
                                        "id": 4,
                                        "order": 4
                                    },
                                    {
                                        "children": [],
                                        "depth": 2,
                                        "id": 5,
                                        "order": 5
                                    },
                                    {
                                        "children": [],
                                        "depth": 2,
                                        "id": 6,
                                        "order": 6
                                    }
                                ],
                                "depth": 1,
                                "id": 3,
                                "order": 3
                            },
                            {
                                "children": [],
                                "depth": 1,
                                "id": 7,
                                "order": 7
                            },
                            {
                                "children": [],
                                "depth": 1,
                                "id": 8,
                                "order": 8
                            }
                        ],
                        "depth": 0,
                        "id": 0,
                        "order": 0
                    }
                ],
                "depth": -1,
                "id": -1,
                "order": -1
            }
        ],
        "tidyTraceNodeCount": 9
    },
    "state_change": {
        "stateChanges": [
            {
                "address": "0x41f274c0023f83391de4e0733c609df5a124c3d4",
                "erc": "",
                "slots": [
                    {
                        "current": "0x01a23fd30aabf5ad53bab3093dcd4948e15cec800000000000038d7ea4c68000",
                        "key": "0xe62ada98f5773684033a338c77fe93a07a128d560280f3406429a3e6dc49ef90",
                        "prev": "0x0000000000000000000000000000000000000000000000000000000000000000"
                    },
                    {
                        "current": "0x00001b3f00001b3c00001b3c00001af10000197a000014970000000000000000",
                        "key": "0x596cd1453578d8b1cfb1b919bcc499c4b06eb136c122b322bc155ed9d83f7293",
                        "prev": "0x0000000000000000000000000000000000000000000000000000000000000000"
                    },
                    {
                        "current": "0x0000000066fbcf1d3974e768a61ed1bdf78c36c00dac592df58e6415af5ab719",
                        "key": "0xe0581bf3207bd3900549984ddd77e9012ca3817e577d2949e7c6ca9b5cfa3f10",
                        "prev": "0x0000000000000000000000000000000000000000000000000000000000000000"
                    },
                    {
                        "current": "0xe3aa43d58d904d57368405183242101200000000000000000000000000000000",
                        "key": "0xe0581bf3207bd3900549984ddd77e9012ca3817e577d2949e7c6ca9b5cfa3f11",
                        "prev": "0x0000000000000000000000000000000000000000000000000000000000000000"
                    },
                    {
                        "current": "0x00000000000000000246d4a53407eedd340f985688312057c204314fdc2ed7e2",
                        "key": "0x0000000000000000000000000000000000000000000000000000000000001b40",
                        "prev": "0x0000000000000000000000000000000000000000000000000000000000000000"
                    },
                    {
                        "current": "0x01000020b817aa6e10c5039997c3e1df43e2435f18a78136b5d9410500000000",
                        "key": "0xe0581bf3207bd3900549984ddd77e9012ca3817e577d2949e7c6ca9b5cfa3f0f",
                        "prev": "0x0000000000000000000000000000000000000000000000000000000000000000"
                    },
                    {
                        "current": "0x00000000000000000246d4a53407eedd340f985688312057c204314fdc2ed7e2",
                        "key": "0x0000000000000000000000000000000000000000000000000004000000000002",
                        "prev": "0x00000000000000000541d9b53681a7185f43e243dfe1c3979903c5106eaa17b8"
                    },
                    {
                        "current": "0x000000000000000000000000000000000000000000165dec4bfd2564ca96e17f",
                        "key": "0x0000000000000000000000000000000000000000000000000004000000000003",
                        "prev": "0x000000000000000000000000000000000000000000165dec4bfd253662aa15b4"
                    },
                    {
                        "current": "0x0000000000000000000000000000000000000000000000000000000000001b41",
                        "key": "0x0000000000000000000000000000000000000000000000000004000000000000",
                        "prev": "0x0000000000000000000000000000000000000000000000000000000000001b40"
                    },
                    {
                        "current": "0x00000000000651fc0000000000001b400000000000165dec4bfd2564ca96e17f",
                        "key": "0xbcf08ed45f27b39ad7fc041c906b000c14683da8c44103a041f697835078b9a9",
                        "prev": "0x0000000000000000000000000000000000000000000000000000000000000000"
                    }
                ],
                "storageVariables": []
            }
        ]
    }
}