{
    "balance_change": {
        "balanceChanges": [
            {
                "account": "0x92e929d8b2c8430bcaf4cd87654789578bb2b786",
                "assets": [
                    {
                        "address": "0xeeeeeeeeeeeeeeeeeeeeeeeeeeeeeeeeeeeeeeee",
                        "amount": "0.084216",
                        "iconUrl": "https://assets.blocksec.com/image/1663669189317-3.png",
                        "isERC1155": false,
                        "isERC721": false,
                        "sign": false,
                        "value": "192.17922768000000153"
                    }
                ]
            },
            {
                "account": "0x2e9e4cbfe47efcb047fffd1f91aa7385da77497d",
                "assets": [
                    {
                        "address": "0xeeeeeeeeeeeeeeeeeeeeeeeeeeeeeeeeeeeeeeee",
                        "amount": "0.084216",
                        "iconUrl": "https://assets.blocksec.com/image/1663669189317-3.png",
                        "isERC1155": false,
                        "isERC721": false,
                        "sign": true,
                        "value": "192.17922768000000153"
                    }
                ]
            }
        ]
    },
    "profile": {
        "basic_info": {
            "baseFee": "33.026576311",
            "blockNumber": 18788920,
            "callData": "0x4782f7790000000000000000000000002e9e4cbfe47efcb047fffd1f91aa7385da77497d000000000000000000000000000000000000000000000000012b32017c678000",
            "debugEnable": true,
            "errorInfo": "",
            "eventCount": 1,
            "feeRecipient": "0x1f9090aae28b8a3dceadf281b0f12828e676c326",
            "formatValue": "0",
            "gasLimit": 300000,
            "gasPrice": "35.710662551",
            "gasUsed": 35083,
            "intTxnCount": 1,
            "internalRevert": false,
            "internalRevertMessage": "",
            "isContractCreation": false,
            "isFlashloan": false,
            "maxFee": "",
            "nonce": 48133,
            "overwritedBlockNumber": -1,
            "priorityFee": "",
            "receiver": "0x92e929d8b2c8430bcaf4cd87654789578bb2b786",
            "revertMessage": "",
            "sender": "0xa377aa6822603cc52e4e9ed6eaa045c46ef6b3e2",
            "simulationEnable": true,
            "sourceTxnHash": "0x6d3cacfb268db663d173b334f76d14770705d28ad31c1825ae2c8a299f3e7955",
            "status": true,
            "timestamp": "2023-12-15T03:45:11Z",
            "transactionFee": "0.001252837174276733",
            "txnHash": "0x6d3cacfb268db663d173b334f76d14770705d28ad31c1825ae2c8a299f3e7955",
            "txnIndex": 40,
            "type": 0,
            "value": "0"
        },
        "fund_flow": [
            {
                "amount": "0.084216",
                "from": "0x92e929d8b2c8430bcaf4cd87654789578bb2b786",
                "id": 1,
                "isERC1155": false,
                "isERC721": false,
                "isReverted": false,
                "order": 1,
                "to": "0x2e9e4cbfe47efcb047fffd1f91aa7385da77497d",
                "token": "0xeeeeeeeeeeeeeeeeeeeeeeeeeeeeeeeeeeeeeeee"
            }
        ],
        "token_infos": [
            {
                "address": "0xc02aaa39b223fe8d0a0e5c4f27ead9083c756cc2",
                "decimals": 18
            },
            {
                "address": "0xeeeeeeeeeeeeeeeeeeeeeeeeeeeeeeeeeeeeeeee",
                "decimals": 18
            }
        ]
    },
    "address_label": {
        "labels": [
            {
                "address": "0xeeeeeeeeeeeeeeeeeeeeeeeeeeeeeeeeeeeeeeee",
                "label": "Ether"
            },
            {
                "address": "0x92e929d8b2c8430bcaf4cd87654789578bb2b786",
                "label": "SWFT Swap"
            },
            {
                "address": "0x0000000000000000000000000000000000000001",
                "label": "Precompiled"
            },
            {
                "address": "0x0000000000000000000000000000000000000002",
                "label": "Precompiled"
            },
            {
                "address": "0x0000000000000000000000000000000000000003",
                "label": "Precompiled"
            },
            {
                "address": "0x0000000000000000000000000000000000000004",
                "label": "Precompiled"
            }
        ]
    },
    "trace": {
        "accountLabels": null,
        "dataMap": {
            "-1": {
                "invocation": {
                    "address": "0xa377aa6822603cc52e4e9ed6eaa045c46ef6b3e2",
                    "callData": "",
                    "decodedMethod": null,
                    "errorInfo": "",
                    "fromAddress": "",
                    "gasUsed": 0,
                    "id": -1,
                    "methodDecoded": false,
                    "operation": "",
                    "output": "",
                    "revert": false,
                    "revertMessage": "",
                    "selector": "",
                    "status": false,
                    "value": ""
                },
                "nodeType": 0
            },
            "0": {
                "invocation": {
                    "address": "0x92e929d8b2c8430bcaf4cd87654789578bb2b786",
                    "callData": "0x0000000000000000000000002e9e4cbfe47efcb047fffd1f91aa7385da77497d000000000000000000000000000000000000000000000000012b32017c678000",
                    "decodedMethod": {
                        "callParams": [
                            {
                                "name": "destination",
                                "type": "address",
                                "value": "0x2e9e4cbfe47efcb047fffd1f91aa7385da77497d"
                            },
                            {
                                "name": "amount",
                                "type": "uint256",
                                "value": "84,216,000,000,000,000"
                            }
                        ],
                        "constructorArguments": "",
                        "name": "withdrawETH",
                        "returnParams": [],
                        "signature": "withdrawETH(address,uint256)"
                    },
                    "errorInfo": "",
                    "fromAddress": "0xa377aa6822603cc52e4e9ed6eaa045c46ef6b3e2",
                    "gasUsed": 35083,
                    "id": 0,
                    "methodDecoded": true,
                    "operation": "CALL",
                    "output": "",
                    "revert": false,
                    "revertMessage": "",
                    "selector": "0x4782f779",
                    "status": true,
                    "value": "0"
                },
                "nodeType": 0
            },
            "1": {
                "invocation": {
                    "address": "0x2e9e4cbfe47efcb047fffd1f91aa7385da77497d",
                    "callData": "0x",
                    "decodedMethod": null,
                    "errorInfo": "",
                    "fromAddress": "0x92e929d8b2c8430bcaf4cd87654789578bb2b786",
                    "gasUsed": 0,
                    "id": 1,
                    "methodDecoded": false,
                    "operation": "CALL",
                    "output": "",
                    "revert": false,
                    "revertMessage": "",
                    "selector": "fallback",
                    "status": true,
                    "value": "0.084216"
                },
                "nodeType": 0
            },
            "2": {
                "event": {
                    "contract": "0x92e929d8b2c8430bcaf4cd87654789578bb2b786",
                    "decodedLog": {
                        "name": "WithdrawETH",
                        "params": [
                            {
                                "name": "amount",
                                "type": "uint256",
                                "value": "84,216,000,000,000,000"
                            }
                        ],
                        "signature": "WithdrawETH(uint256)"
                    },
                    "id": 2,
                    "logData": "0x000000000000000000000000000000000000000000000000012b32017c678000",
                    "logDecoded": true,
                    "operation": "EVENT",
                    "revert": false,
                    "status": true,
                    "topics": [
                        "0x94effa14ea3a1ef396fa2fd829336d1597f1d76b548c26bfa2332869706638af"
                    ]
                },
                "nodeType": 1
            }
        },
        "gasFlame": [
            {
                "children": [
                    {
                        "children": [
                            {
                                "children": [],
                                "depth": 0,
                                "name": "Initial Gas",
                                "value": 21644
                            },
                            {
                                "children": [
                                    {
                                        "children": [],
                                        "depth": 1,
                                        "name": "fallback",
                                        "value": 0
                                    }
                                ],
                                "depth": 0,
                                "name": "Executed Gas",
                                "value": 13439
                            }
                        ],
                        "depth": -1,
                        "name": "Actual Gas Used",
                        "value": 35083
                    },
                    {
                        "children": [],
                        "depth": -1,
                        "name": "Refunded Gas",
                        "value": 0
                    }
                ],
                "depth": -2,
                "name": "Total Gas",
                "value": 35083
            }
        ],
        "isConfirmed": true,
        "mainTrace": [
            {
                "children": [
                    {
                        "children": [
                            {
                                "children": [],
                                "depth": 1,
                                "id": 1,
                                "order": 1
                            },
                            {
                                "children": [],
                                "depth": 1,
                                "id": 2,
                                "order": 2
                            }
                        ],
                        "depth": 0,
                        "id": 0,
                        "order": 0
                    }
                ],
                "depth": -1,
                "id": -1,
                "order": -1
            }
        ],
        "mainTraceNodeCount": 3,
        "parentIdMap": {
            "0": -1,
            "1": 0,
            "2": 0
        },
        "tidyTrace": [
            {
                "children": [
                    {
                        "children": [
                            {
                                "children": [],
                                "depth": 1,
                                "id": 1,
                                "order": 1
                            },
                            {
                                "children": [],
                                "depth": 1,
                                "id": 2,
                                "order": 2
                            }
                        ],
                        "depth": 0,
                        "id": 0,
                        "order": 0
                    }
                ],
                "depth": -1,
                "id": -1,
                "order": -1
            }
        ],
        "tidyTraceNodeCount": 3
    },
    "state_change": {
        "stateChanges": []
    }
}