{
    "balance_change": {
        "balanceChanges": []
    },
    "profile": {
        "basic_info": {
            "baseFee": "",
            "blockNumber": 5167622,
            "callData": "0x6a40dbd6000000000000000000000000b821f06502ec9d7de74e08d5f845c56a7b997916000000000000000000000000000000000000000000000000000000037e11d600",
            "debugEnable": true,
            "errorInfo": "",
            "eventCount": 0,
            "feeRecipient": "0x829bd824b016326a401d083b33d092293333a830",
            "formatValue": "0",
            "gasLimit": 115000,
            "gasPrice": "50",
            "gasUsed": 68714,
            "intTxnCount": 1,
            "internalRevert": false,
            "internalRevertMessage": "",
            "isContractCreation": false,
            "isFlashloan": false,
            "maxFee": "",
            "nonce": 1178,
            "overwritedBlockNumber": -1,
            "priorityFee": "",
            "receiver": "0xd413eb0ebe5f3c82f1b6cb642c31fabb5a38c1ec",
            "revertMessage": "",
            "sender": "0x0f79bc1a801bcc8dfdc009a44f1149382e8291a8",
            "simulationEnable": true,
            "sourceTxnHash": "0x6d1cb0cd86cda9f7b2709905e963eeee2b24d72132bcae7fdc1453162748ddcc",
            "status": true,
            "timestamp": "2018-02-27T21:36:38Z",
            "transactionFee": "0.0034357",
            "txnHash": "0x6d1cb0cd86cda9f7b2709905e963eeee2b24d72132bcae7fdc1453162748ddcc",
            "txnIndex": 12,
            "type": 0,
            "value": "0"
        },
        "fund_flow": [],
        "token_infos": [
            {
                "address": "0xc02aaa39b223fe8d0a0e5c4f27ead9083c756cc2",
                "decimals": 18
            },
            {
                "address": "0xeeeeeeeeeeeeeeeeeeeeeeeeeeeeeeeeeeeeeeee",
                "decimals": 18
            }
        ]
    },
    "address_label": {
        "labels": [
            {
                "address": "0x0000000000000000000000000000000000000003",
                "label": "Precompiled"
            },
            {
                "address": "0x0000000000000000000000000000000000000004",
                "label": "Precompiled"
            },
            {
                "address": "0xeeeeeeeeeeeeeeeeeeeeeeeeeeeeeeeeeeeeeeee",
                "label": "Ether"
            },
            {
                "address": "0x0f79bc1a801bcc8dfdc009a44f1149382e8291a8",
                "label": "Atfslab.io: Deployer"
            },
            {
                "address": "0xd413eb0ebe5f3c82f1b6cb642c31fabb5a38c1ec",
                "label": "ATFS: Token Sale"
            },
            {
                "address": "0x369eb6821c94a78428f7c86c768590f53950068f",
                "label": "Atfslab.io: ATFS Token"
            },
            {
                "address": "0x0000000000000000000000000000000000000001",
                "label": "Precompiled"
            },
            {
                "address": "0x0000000000000000000000000000000000000002",
                "label": "Precompiled"
            }
        ]
    },
    "trace": {
        "accountLabels": null,
        "dataMap": {
            "-1": {
                "invocation": {
                    "address": "0x0f79bc1a801bcc8dfdc009a44f1149382e8291a8",
                    "callData": "",
                    "decodedMethod": null,
                    "errorInfo": "",
                    "fromAddress": "",
                    "gasUsed": 0,
                    "id": -1,
                    "methodDecoded": false,
                    "operation": "",
                    "output": "",
                    "revert": false,
                    "revertMessage": "",
                    "selector": "",
                    "status": false,
                    "value": ""
                },
                "nodeType": 0
            },
            "0": {
                "invocation": {
                    "address": "0xd413eb0ebe5f3c82f1b6cb642c31fabb5a38c1ec",
                    "callData": "0x000000000000000000000000b821f06502ec9d7de74e08d5f845c56a7b997916000000000000000000000000000000000000000000000000000000037e11d600",
                    "decodedMethod": {
                        "callParams": [
                            {
                                "name": "_to",
                                "type": "address",
                                "value": "0xb821f06502ec9d7de74e08d5f845c56a7b997916"
                            },
                            {
                                "name": "_amount",
                                "type": "uint256",
                                "value": "15,000,000,000"
                            }
                        ],
                        "constructorArguments": "",
                        "name": "mintInvestor",
                        "returnParams": [],
                        "signature": "mintInvestor(address,uint256)"
                    },
                    "errorInfo": "",
                    "fromAddress": "0x0f79bc1a801bcc8dfdc009a44f1149382e8291a8",
                    "gasUsed": 68714,
                    "id": 0,
                    "methodDecoded": true,
                    "operation": "CALL",
                    "output": "",
                    "revert": false,
                    "revertMessage": "",
                    "selector": "0x6a40dbd6",
                    "status": true,
                    "value": "0"
                },
                "nodeType": 0
            },
            "1": {
                "invocation": {
                    "address": "0x369eb6821c94a78428f7c86c768590f53950068f",
                    "callData": "0x000000000000000000000000b821f06502ec9d7de74e08d5f845c56a7b997916000000000000000000000000000000000000000000000000000000037e11d600",
                    "decodedMethod": {
                        "callParams": [
                            {
                                "name": "_to",
                                "type": "address",
                                "value": "0xb821f06502ec9d7de74e08d5f845c56a7b997916"
                            },
                            {
                                "name": "_amount",
                                "type": "uint256",
                                "value": "15,000,000,000"
                            }
                        ],
                        "constructorArguments": "",
                        "name": "mint",
                        "returnParams": [
                            {
                                "name": "",
                                "type": "bool",
                                "value": true
                            }
                        ],
                        "signature": "mint(address,uint256)"
                    },
                    "errorInfo": "",
                    "fromAddress": "0xd413eb0ebe5f3c82f1b6cb642c31fabb5a38c1ec",
                    "gasUsed": 26811,
                    "id": 1,
                    "methodDecoded": true,
                    "operation": "CALL",
                    "output": "0x0000000000000000000000000000000000000000000000000000000000000001",
                    "revert": false,
                    "revertMessage": "",
                    "selector": "0x40c10f19",
                    "status": true,
                    "value": "0"
                },
                "nodeType": 0
            }
        },
        "gasFlame": [
            {
                "children": [
                    {
                        "children": [
                            {
                                "children": [],
                                "depth": 0,
                                "name": "Initial Gas",
                                "value": 23064
                            },
                            {
                                "children": [
                                    {
                                        "children": [],
                                        "depth": 1,
                                        "name": "mint",
                                        "value": 26811
                                    }
                                ],
                                "depth": 0,
                                "name": "Executed Gas",
                                "value": 60650
                            }
                        ],
                        "depth": -1,
                        "name": "Actual Gas Used",
                        "value": 68714
                    },
                    {
                        "children": [],
                        "depth": -1,
                        "name": "Refunded Gas",
                        "value": 15000
                    }
                ],
                "depth": -2,
                "name": "Total Gas",
                "value": 83714
            }
        ],
        "isConfirmed": true,
        "mainTrace": [
            {
                "children": [
                    {
                        "children": [
                            {
                                "children": [],
                                "depth": 1,
                                "id": 1,
                                "order": 1
                            }
                        ],
                        "depth": 0,
                        "id": 0,
                        "order": 0
                    }
                ],
                "depth": -1,
                "id": -1,
                "order": -1
            }
        ],
        "mainTraceNodeCount": 2,
        "parentIdMap": {
            "0": -1,
            "1": 0
        },
        "tidyTrace": [
            {
                "children": [
                    {
                        "children": [
                            {
                                "children": [],
                                "depth": 1,
                                "id": 1,
                                "order": 1
                            }
                        ],
                        "depth": 0,
                        "id": 0,
                        "order": 0
                    }
                ],
                "depth": -1,
                "id": -1,
                "order": -1
            }
        ],
        "tidyTraceNodeCount": 2
    },
    "state_change": {
        "stateChanges": [
            {
                "address": "0x369eb6821c94a78428f7c86c768590f53950068f",
                "erc": "ERC-20",
                "slots": [
                    {
                        "current": "0x000000000000000000000000000000000000000000000000000b023cae8ea5c9",
                        "key": "0x0000000000000000000000000000000000000000000000000000000000000005",
                        "prev": "0x000000000000000000000000000000000000000000000000000b0239307ccfc9"
                    },
                    {
                        "current": "0x000000000000000000000000000000000000000000000000000000037e11d600",
                        "key": "0xdeed46d121f916fb1d5e081bc0649c149cc52f3dda2d028b41573de80066b803",
                        "prev": "0x0000000000000000000000000000000000000000000000000000000000000000"
                    }
                ],
                "storageVariables": [
                    {
                        "name": "totalSupply",
                        "type": "uint256",
                        "value": {
                            "current": "3098684393694665",
                            "prev": "3098669393694665",
                            "typeTag": 1
                        }
                    },
                    {
                        "name": "balances",
                        "type": "mapping(address => uint256)",
                        "value": {
                            "pairs": [
                                {
                                    "key": "0xb821f06502ec9d7de74e08d5f845c56a7b997916",
                                    "value": {
                                        "current": "15000000000",
                                        "prev": "0",
                                        "typeTag": 1
                                    }
                                }
                            ],
                            "typeTag": 4
                        }
                    }
                ]
            },
            {
                "address": "0xd413eb0ebe5f3c82f1b6cb642c31fabb5a38c1ec",
                "erc": "",
                "slots": [
                    {
                        "current": "0x000000000000000000000000000000000000000000000000000b023cae8ea5c9",
                        "key": "0x0000000000000000000000000000000000000000000000000000000000000004",
                        "prev": "0x000000000000000000000000000000000000000000000000000b0239307ccfc9"
                    }
                ],
                "storageVariables": [
                    {
                        "name": "totalSaleSupply",
                        "type": "uint256",
                        "value": {
                            "current": "3098684393694665",
                            "prev": "3098669393694665",
                            "typeTag": 1
                        }
                    }
                ]
            }
        ]
    }
}