{
    "balance_change": {
        "balanceChanges": []
    },
    "profile": {
        "basic_info": {
            "baseFee": "",
            "blockNumber": 7790711,
            "callData": "0xa9059cbb00000000000000000000000011817afb29279703c5679959417015328ca6a0d1000000000000000000000000000000000000000000000216ac346ebece78ffff",
            "debugEnable": true,
            "errorInfo": "",
            "eventCount": 0,
            "feeRecipient": "0x5a0b54d5dc17e0aadc383d2db43b0a0d3e029c4c",
            "formatValue": "0",
            "gasLimit": 168000,
            "gasPrice": "50",
            "gasUsed": 24366,
            "intTxnCount": 0,
            "internalRevert": false,
            "internalRevertMessage": "",
            "isContractCreation": false,
            "isFlashloan": false,
            "maxFee": "",
            "nonce": 1478,
            "overwritedBlockNumber": -1,
            "priorityFee": "",
            "receiver": "0x9041fe5b3fdea0f5e4afdc17e75180738d877a01",
            "revertMessage": "",
            "sender": "0xecc246a7a9a09eaa8e421aba691bb70b9ae1a48f",
            "simulationEnable": true,
            "sourceTxnHash": "0x6d1fd210e2f70fd066b74d5d10c35ed1f46bb389583d6809a4015b3c81273fad",
            "status": true,
            "timestamp": "2019-05-19T13:16:10Z",
            "transactionFee": "0.0012183",
            "txnHash": "0x6d1fd210e2f70fd066b74d5d10c35ed1f46bb389583d6809a4015b3c81273fad",
            "txnIndex": 9,
            "type": 0,
            "value": "0"
        },
        "fund_flow": [],
        "token_infos": [
            {
                "address": "0xc02aaa39b223fe8d0a0e5c4f27ead9083c756cc2",
                "decimals": 18
            },
            {
                "address": "0xeeeeeeeeeeeeeeeeeeeeeeeeeeeeeeeeeeeeeeee",
                "decimals": 18
            }
        ]
    },
    "address_label": {
        "labels": [
            {
                "address": "0x0000000000000000000000000000000000000004",
                "label": "Precompiled"
            },
            {
                "address": "0xeeeeeeeeeeeeeeeeeeeeeeeeeeeeeeeeeeeeeeee",
                "label": "Ether"
            },
            {
                "address": "0xecc246a7a9a09eaa8e421aba691bb70b9ae1a48f",
                "label": "OKEX"
            },
            {
                "address": "0x9041fe5b3fdea0f5e4afdc17e75180738d877a01",
                "label": "ProChain Token"
            },
            {
                "address": "0x11817afb29279703c5679959417015328ca6a0d1",
                "label": "OKX 39"
            },
            {
                "address": "0x0000000000000000000000000000000000000001",
                "label": "Precompiled"
            },
            {
                "address": "0x0000000000000000000000000000000000000002",
                "label": "Precompiled"
            },
            {
                "address": "0x0000000000000000000000000000000000000003",
                "label": "Precompiled"
            }
        ]
    },
    "trace": {
        "accountLabels": null,
        "dataMap": {
            "-1": {
                "invocation": {
                    "address": "0xecc246a7a9a09eaa8e421aba691bb70b9ae1a48f",
                    "callData": "",
                    "decodedMethod": null,
                    "errorInfo": "",
                    "fromAddress": "",
                    "gasUsed": 0,
                    "id": -1,
                    "methodDecoded": false,
                    "operation": "",
                    "output": "",
                    "revert": false,
                    "revertMessage": "",
                    "selector": "",
                    "status": false,
                    "value": ""
                },
                "nodeType": 0
            },
            "0": {
                "invocation": {
                    "address": "0x9041fe5b3fdea0f5e4afdc17e75180738d877a01",
                    "callData": "0x00000000000000000000000011817afb29279703c5679959417015328ca6a0d1000000000000000000000000000000000000000000000216ac346ebece78ffff",
                    "decodedMethod": {
                        "callParams": [
                            {
                                "name": "_to",
                                "type": "address",
                                "value": "0x11817afb29279703c5679959417015328ca6a0d1"
                            },
                            {
                                "decimalAvailable": true,
                                "name": "_value",
                                "type": "uint256",
                                "value": "9,862,969,999,999,999,999,999"
                            }
                        ],
                        "constructorArguments": "",
                        "name": "transfer",
                        "returnParams": [
                            {
                                "name": "success",
                                "type": "bool",
                                "value": false
                            }
                        ],
                        "signature": "transfer(address,uint256)"
                    },
                    "errorInfo": "",
                    "fromAddress": "0xecc246a7a9a09eaa8e421aba691bb70b9ae1a48f",
                    "gasUsed": 24366,
                    "id": 0,
                    "methodDecoded": true,
                    "operation": "CALL",
                    "output": "0x0000000000000000000000000000000000000000000000000000000000000000",
                    "revert": false,
                    "revertMessage": "",
                    "selector": "0xa9059cbb",
                    "status": true,
                    "value": "0"
                },
                "nodeType": 0
            }
        },
        "gasFlame": [
            {
                "children": [
                    {
                        "children": [
                            {
                                "children": [],
                                "depth": 0,
                                "name": "Initial Gas",
                                "value": 23448
                            },
                            {
                                "children": [],
                                "depth": 0,
                                "name": "Executed Gas",
                                "value": 918
                            }
                        ],
                        "depth": -1,
                        "name": "Actual Gas Used",
                        "value": 24366
                    },
                    {
                        "children": [],
                        "depth": -1,
                        "name": "Refunded Gas",
                        "value": 0
                    }
                ],
                "depth": -2,
                "name": "Total Gas",
                "value": 24366
            }
        ],
        "isConfirmed": true,
        "mainTrace": [
            {
                "children": [
                    {
                        "children": [],
                        "depth": 0,
                        "id": 0,
                        "order": 0
                    }
                ],
                "depth": -1,
                "id": -1,
                "order": -1
            }
        ],
        "mainTraceNodeCount": 1,
        "parentIdMap": {
            "0": -1
        },
        "tidyTrace": [
            {
                "children": [
                    {
                        "children": [],
                        "depth": 0,
                        "id": 0,
                        "order": 0
                    }
                ],
                "depth": -1,
                "id": -1,
                "order": -1
            }
        ],
        "tidyTraceNodeCount": 1
    },
    "state_change": {
        "stateChanges": []
    }
}