{
    "balance_change": {
        "balanceChanges": [
            {
                "account": "0x5dd4c3c107cdda758d91a8b38d47787e5c559c65",
                "assets": [
                    {
                        "address": "0xeeeeeeeeeeeeeeeeeeeeeeeeeeeeeeeeeeeeeeee",
                        "amount": "0.504439813387323139",
                        "iconUrl": "https://assets.blocksec.com/image/1663669189317-3.png",
                        "isERC1155": false,
                        "isERC721": false,
                        "sign": true,
                        "value": "966.7639467792339954"
                    },
                    {
                        "address": "0xf5081b106abbe443fc62384b3724620fc9599c46",
                        "amount": "24,984,038.192441040685484779",
                        "iconUrl": "",
                        "isERC1155": false,
                        "isERC721": false,
                        "sign": false,
                        "value": "967.7063865"
                    }
                ]
            },
            {
                "account": "0x43a372e4dad9d28e476c5a591810981895511f8a",
                "assets": [
                    {
                        "address": "0xf5081b106abbe443fc62384b3724620fc9599c46",
                        "amount": "24,984,038.192441040685484779",
                        "iconUrl": "",
                        "isERC1155": false,
                        "isERC721": false,
                        "sign": true,
                        "value": "967.7063865"
                    },
                    {
                        "address": "0xc02aaa39b223fe8d0a0e5c4f27ead9083c756cc2",
                        "amount": "0.504439813387323139",
                        "iconUrl": "https://assets.blocksec.com/icon/f1cb2d02c471d545bbc7722daf3277fd852d98e63d118771af7047bd8256c516.png",
                        "isERC1155": false,
                        "isERC721": false,
                        "sign": false,
                        "value": "966.7639467792339954"
                    }
                ]
            },
            {
                "account": "0xc02aaa39b223fe8d0a0e5c4f27ead9083c756cc2",
                "assets": [
                    {
                        "address": "0xeeeeeeeeeeeeeeeeeeeeeeeeeeeeeeeeeeeeeeee",
                        "amount": "0.504439813387323139",
                        "iconUrl": "https://assets.blocksec.com/image/1663669189317-3.png",
                        "isERC1155": false,
                        "isERC721": false,
                        "sign": false,
                        "value": "966.7639467792339954"
                    },
                    {
                        "address": "0xc02aaa39b223fe8d0a0e5c4f27ead9083c756cc2",
                        "amount": "0.504439813387323139",
                        "iconUrl": "https://assets.blocksec.com/icon/f1cb2d02c471d545bbc7722daf3277fd852d98e63d118771af7047bd8256c516.png",
                        "isERC1155": false,
                        "isERC721": false,
                        "sign": true,
                        "value": "966.7639467792339954"
                    }
                ]
            }
        ]
    },
    "profile": {
        "basic_info": {
            "baseFee": "31.350703828",
            "blockNumber": 17361292,
            "callData": "0x7822d813000000000000000000000000000000000000000000000000000000000000002000000000000000000000000000000000000000000014aa936c9df59d061bcaeb00000000000000000000000000000000000000000000000006ee357bf8a3fcb400000000000000000000000000000000000000000000000000000000000000a000000000000000000000000000000000000000000000000000000000000001000000000000000000000000005dd4c3c107cdda758d91a8b38d47787e5c559c650000000000000000000000000000000000000000000000000000000000000002000000000000000000000000f5081b106abbe443fc62384b3724620fc9599c46000000000000000000000000c02aaa39b223fe8d0a0e5c4f27ead9083c756cc20000000000000000000000000000000000000000000000000000000000000001000000000000000000000000d2a52f45c74b358abe1428bc43f0ce9ddf130780",
            "debugEnable": true,
            "errorInfo": "",
            "eventCount": 7,
            "feeRecipient": "0x690b9a9e9aa1c9db991c7721a92d351db4fac990",
            "formatValue": "0",
            "gasLimit": 193270,
            "gasPrice": "31.450703828",
            "gasUsed": 143747,
            "intTxnCount": 18,
            "internalRevert": false,
            "internalRevertMessage": "",
            "isContractCreation": false,
            "isFlashloan": false,
            "maxFee": "42.53732051",
            "nonce": 1098,
            "overwritedBlockNumber": -1,
            "priorityFee": "0.1",
            "receiver": "0xb517850510997a34b4ddc8c3797b4f83fad510c4",
            "revertMessage": "",
            "sender": "0x5dd4c3c107cdda758d91a8b38d47787e5c559c65",
            "simulationEnable": true,
            "sourceTxnHash": "0x6d9bc70b6149ebce3eb166c65fdd7de95d06c94a3a929953c0c875985ae382f8",
            "status": true,
            "timestamp": "2023-05-29T01:09:47Z",
            "transactionFee": "0.004520944323163516",
            "txnHash": "0x6d9bc70b6149ebce3eb166c65fdd7de95d06c94a3a929953c0c875985ae382f8",
            "txnIndex": 0,
            "type": 2,
            "value": "0"
        },
        "fund_flow": [
            {
                "amount": "24,984,038.192441040685484779",
                "from": "0x5dd4c3c107cdda758d91a8b38d47787e5c559c65",
                "id": 1,
                "isERC1155": false,
                "isERC721": false,
                "isReverted": false,
                "order": 1,
                "to": "0x43a372e4dad9d28e476c5a591810981895511f8a",
                "token": "0xf5081b106abbe443fc62384b3724620fc9599c46"
            },
            {
                "amount": "0.504439813387323139",
                "from": "0x43a372e4dad9d28e476c5a591810981895511f8a",
                "id": 2,
                "isERC1155": false,
                "isERC721": false,
                "isReverted": false,
                "order": 2,
                "to": "0xb517850510997a34b4ddc8c3797b4f83fad510c4",
                "token": "0xc02aaa39b223fe8d0a0e5c4f27ead9083c756cc2"
            },
            {
                "amount": "0.504439813387323139",
                "from": "0xc02aaa39b223fe8d0a0e5c4f27ead9083c756cc2",
                "id": 3,
                "isERC1155": false,
                "isERC721": false,
                "isReverted": false,
                "order": 3,
                "to": "0xb517850510997a34b4ddc8c3797b4f83fad510c4",
                "token": "0xeeeeeeeeeeeeeeeeeeeeeeeeeeeeeeeeeeeeeeee"
            },
            {
                "amount": "0.504439813387323139",
                "from": "0xb517850510997a34b4ddc8c3797b4f83fad510c4",
                "id": 4,
                "isERC1155": false,
                "isERC721": false,
                "isReverted": false,
                "order": 4,
                "to": "0xc02aaa39b223fe8d0a0e5c4f27ead9083c756cc2",
                "token": "0xc02aaa39b223fe8d0a0e5c4f27ead9083c756cc2"
            },
            {
                "amount": "0.504439813387323139",
                "from": "0xb517850510997a34b4ddc8c3797b4f83fad510c4",
                "id": 5,
                "isERC1155": false,
                "isERC721": false,
                "isReverted": false,
                "order": 5,
                "to": "0x5dd4c3c107cdda758d91a8b38d47787e5c559c65",
                "token": "0xeeeeeeeeeeeeeeeeeeeeeeeeeeeeeeeeeeeeeeee"
            }
        ],
        "token_infos": [
            {
                "address": "0xc02aaa39b223fe8d0a0e5c4f27ead9083c756cc2",
                "decimals": 18
            },
            {
                "address": "0xf5081b106abbe443fc62384b3724620fc9599c46",
                "decimals": 18
            },
            {
                "address": "0xeeeeeeeeeeeeeeeeeeeeeeeeeeeeeeeeeeeeeeee",
                "decimals": 18
            }
        ]
    },
    "address_label": {
        "labels": [
            {
                "address": "0xd2a52f45c74b358abe1428bc43f0ce9ddf130780",
                "label": "Uniswap V2"
            },
            {
                "address": "0x43a372e4dad9d28e476c5a591810981895511f8a",
                "label": "Uniswap V2: KERMIT 22"
            },
            {
                "address": "0x0000000000000000000000000000000000000004",
                "label": "Precompiled"
            },
            {
                "address": "0x0000000000000000000000000000000000000001",
                "label": "Precompiled"
            },
            {
                "address": "0x0000000000000000000000000000000000000002",
                "label": "Precompiled"
            },
            {
                "address": "0x0000000000000000000000000000000000000003",
                "label": "Precompiled"
            },
            {
                "address": "0xeeeeeeeeeeeeeeeeeeeeeeeeeeeeeeeeeeeeeeee",
                "label": "Ether"
            },
            {
                "address": "0xc02aaa39b223fe8d0a0e5c4f27ead9083c756cc2",
                "label": "Wrapped Ether (WETH)"
            },
            {
                "address": "0xf5081b106abbe443fc62384b3724620fc9599c46",
                "label": "Kermit: KERMIT Token"
            },
            {
                "address": "0xb517850510997a34b4ddc8c3797b4f83fad510c4",
                "label": "ERC1967Proxy"
            }
        ]
    },
    "trace": {
        "accountLabels": null,
        "dataMap": {
            "-1": {
                "invocation": {
                    "address": "0x5dd4c3c107cdda758d91a8b38d47787e5c559c65",
                    "callData": "",
                    "decodedMethod": null,
                    "errorInfo": "",
                    "fromAddress": "",
                    "gasUsed": 0,
                    "id": -1,
                    "methodDecoded": false,
                    "operation": "",
                    "output": "",
                    "revert": false,
                    "revertMessage": "",
                    "selector": "",
                    "status": false,
                    "value": ""
                },
                "nodeType": 0
            },
            "0": {
                "invocation": {
                    "address": "0xb517850510997a34b4ddc8c3797b4f83fad510c4",
                    "callData": "0x000000000000000000000000000000000000000000000000000000000000002000000000000000000000000000000000000000000014aa936c9df59d061bcaeb00000000000000000000000000000000000000000000000006ee357bf8a3fcb400000000000000000000000000000000000000000000000000000000000000a000000000000000000000000000000000000000000000000000000000000001000000000000000000000000005dd4c3c107cdda758d91a8b38d47787e5c559c650000000000000000000000000000000000000000000000000000000000000002000000000000000000000000f5081b106abbe443fc62384b3724620fc9599c46000000000000000000000000c02aaa39b223fe8d0a0e5c4f27ead9083c756cc20000000000000000000000000000000000000000000000000000000000000001000000000000000000000000d2a52f45c74b358abe1428bc43f0ce9ddf130780",
                    "decodedMethod": null,
                    "errorInfo": "",
                    "fromAddress": "0x5dd4c3c107cdda758d91a8b38d47787e5c559c65",
                    "gasUsed": 143747,
                    "id": 0,
                    "methodDecoded": false,
                    "operation": "CALL",
                    "output": "",
                    "revert": false,
                    "revertMessage": "",
                    "selector": "0x7822d813",
                    "status": true,
                    "value": "0"
                },
                "nodeType": 0
            },
            "1": {
                "invocation": {
                    "address": "0x21a8f7ff1700fb57a6376fec4d724c8d70f0c0e8",
                    "callData": "0x000000000000000000000000000000000000000000000000000000000000002000000000000000000000000000000000000000000014aa936c9df59d061bcaeb00000000000000000000000000000000000000000000000006ee357bf8a3fcb400000000000000000000000000000000000000000000000000000000000000a000000000000000000000000000000000000000000000000000000000000001000000000000000000000000005dd4c3c107cdda758d91a8b38d47787e5c559c650000000000000000000000000000000000000000000000000000000000000002000000000000000000000000f5081b106abbe443fc62384b3724620fc9599c46000000000000000000000000c02aaa39b223fe8d0a0e5c4f27ead9083c756cc20000000000000000000000000000000000000000000000000000000000000001000000000000000000000000d2a52f45c74b358abe1428bc43f0ce9ddf130780",
                    "decodedMethod": null,
                    "errorInfo": "",
                    "fromAddress": "0xb517850510997a34b4ddc8c3797b4f83fad510c4",
                    "gasUsed": 142575,
                    "id": 1,
                    "methodDecoded": false,
                    "operation": "DELEGATECALL",
                    "output": "",
                    "revert": false,
                    "revertMessage": "",
                    "selector": "0x7822d813",
                    "status": true,
                    "value": "0"
                },
                "nodeType": 0
            },
            "10": {
                "invocation": {
                    "address": "0xc02aaa39b223fe8d0a0e5c4f27ead9083c756cc2",
                    "callData": "0x000000000000000000000000b517850510997a34b4ddc8c3797b4f83fad510c4",
                    "decodedMethod": {
                        "callParams": [
                            {
                                "name": "",
                                "type": "address",
                                "value": "0xb517850510997a34b4ddc8c3797b4f83fad510c4"
                            }
                        ],
                        "constructorArguments": "",
                        "name": "balanceOf",
                        "returnParams": [
                            {
                                "decimalAvailable": true,
                                "name": "",
                                "type": "uint256",
                                "value": "0"
                            }
                        ],
                        "signature": "balanceOf(address)"
                    },
                    "errorInfo": "",
                    "fromAddress": "0xd2a52f45c74b358abe1428bc43f0ce9ddf130780",
                    "gasUsed": 534,
                    "id": 10,
                    "methodDecoded": true,
                    "operation": "STATICCALL",
                    "output": "0x0000000000000000000000000000000000000000000000000000000000000000",
                    "revert": false,
                    "revertMessage": "",
                    "selector": "0x70a08231",
                    "status": true,
                    "value": "0"
                },
                "nodeType": 0
            },
            "11": {
                "invocation": {
                    "address": "0x43a372e4dad9d28e476c5a591810981895511f8a",
                    "callData": "0x000000000000000000000000000000000000000000000000070021566f8407030000000000000000000000000000000000000000000000000000000000000000000000000000000000000000b517850510997a34b4ddc8c3797b4f83fad510c400000000000000000000000000000000000000000000000000000000000000800000000000000000000000000000000000000000000000000000000000000000",
                    "decodedMethod": {
                        "callParams": [
                            {
                                "name": "amount0Out",
                                "type": "uint256",
                                "value": "504,439,813,387,323,139"
                            },
                            {
                                "name": "amount1Out",
                                "type": "uint256",
                                "value": "0"
                            },
                            {
                                "name": "to",
                                "type": "address",
                                "value": "0xb517850510997a34b4ddc8c3797b4f83fad510c4"
                            },
                            {
                                "name": "data",
                                "type": "bytes",
                                "value": "0x"
                            }
                        ],
                        "constructorArguments": "",
                        "name": "swap",
                        "returnParams": [],
                        "signature": "swap(uint256,uint256,address,bytes)"
                    },
                    "errorInfo": "",
                    "fromAddress": "0xd2a52f45c74b358abe1428bc43f0ce9ddf130780",
                    "gasUsed": 60448,
                    "id": 11,
                    "methodDecoded": true,
                    "operation": "CALL",
                    "output": "",
                    "revert": false,
                    "revertMessage": "",
                    "selector": "0x022c0d9f",
                    "status": true,
                    "value": "0"
                },
                "nodeType": 0
            },
            "12": {
                "invocation": {
                    "address": "0xc02aaa39b223fe8d0a0e5c4f27ead9083c756cc2",
                    "callData": "0x000000000000000000000000b517850510997a34b4ddc8c3797b4f83fad510c4000000000000000000000000000000000000000000000000070021566f840703",
                    "decodedMethod": {
                        "callParams": [
                            {
                                "name": "dst",
                                "type": "address",
                                "value": "0xb517850510997a34b4ddc8c3797b4f83fad510c4"
                            },
                            {
                                "decimalAvailable": true,
                                "name": "wad",
                                "type": "uint256",
                                "value": "504,439,813,387,323,139"
                            }
                        ],
                        "constructorArguments": "",
                        "name": "transfer",
                        "returnParams": [
                            {
                                "name": "",
                                "type": "bool",
                                "value": true
                            }
                        ],
                        "signature": "transfer(address,uint256)"
                    },
                    "errorInfo": "",
                    "fromAddress": "0x43a372e4dad9d28e476c5a591810981895511f8a",
                    "gasUsed": 27962,
                    "id": 12,
                    "methodDecoded": true,
                    "operation": "CALL",
                    "output": "0x0000000000000000000000000000000000000000000000000000000000000001",
                    "revert": false,
                    "revertMessage": "",
                    "selector": "0xa9059cbb",
                    "status": true,
                    "value": "0"
                },
                "nodeType": 0
            },
            "13": {
                "event": {
                    "contract": "0xc02aaa39b223fe8d0a0e5c4f27ead9083c756cc2",
                    "decodedLog": {
                        "name": "Transfer",
                        "params": [
                            {
                                "name": "src",
                                "type": "address",
                                "value": "0x43a372e4dad9d28e476c5a591810981895511f8a"
                            },
                            {
                                "name": "dst",
                                "type": "address",
                                "value": "0xb517850510997a34b4ddc8c3797b4f83fad510c4"
                            },
                            {
                                "decimalAvailable": true,
                                "name": "wad",
                                "type": "uint256",
                                "value": "504,439,813,387,323,139"
                            }
                        ],
                        "signature": "Transfer(address,address,uint256)"
                    },
                    "id": 13,
                    "logData": "0x000000000000000000000000000000000000000000000000070021566f840703",
                    "logDecoded": true,
                    "operation": "EVENT",
                    "revert": false,
                    "status": true,
                    "topics": [
                        "0xddf252ad1be2c89b69c2b068fc378daa952ba7f163c4a11628f55a4df523b3ef",
                        "0x00000000000000000000000043a372e4dad9d28e476c5a591810981895511f8a",
                        "0x000000000000000000000000b517850510997a34b4ddc8c3797b4f83fad510c4"
                    ]
                },
                "nodeType": 1
            },
            "14": {
                "invocation": {
                    "address": "0xc02aaa39b223fe8d0a0e5c4f27ead9083c756cc2",
                    "callData": "0x00000000000000000000000043a372e4dad9d28e476c5a591810981895511f8a",
                    "decodedMethod": {
                        "callParams": [
                            {
                                "name": "",
                                "type": "address",
                                "value": "0x43a372e4dad9d28e476c5a591810981895511f8a"
                            }
                        ],
                        "constructorArguments": "",
                        "name": "balanceOf",
                        "returnParams": [
                            {
                                "decimalAvailable": true,
                                "name": "",
                                "type": "uint256",
                                "value": "156,445,245,668,680,848,601"
                            }
                        ],
                        "signature": "balanceOf(address)"
                    },
                    "errorInfo": "",
                    "fromAddress": "0x43a372e4dad9d28e476c5a591810981895511f8a",
                    "gasUsed": 534,
                    "id": 14,
                    "methodDecoded": true,
                    "operation": "STATICCALL",
                    "output": "0x0000000000000000000000000000000000000000000000087b1d2a0da070d4d9",
                    "revert": false,
                    "revertMessage": "",
                    "selector": "0x70a08231",
                    "status": true,
                    "value": "0"
                },
                "nodeType": 0
            },
            "15": {
                "invocation": {
                    "address": "0xf5081b106abbe443fc62384b3724620fc9599c46",
                    "callData": "0x00000000000000000000000043a372e4dad9d28e476c5a591810981895511f8a",
                    "decodedMethod": {
                        "callParams": [
                            {
                                "name": "account",
                                "type": "address",
                                "value": "0x43a372e4dad9d28e476c5a591810981895511f8a"
                            }
                        ],
                        "constructorArguments": "",
                        "name": "balanceOf",
                        "returnParams": [
                            {
                                "decimalAvailable": true,
                                "name": "",
                                "type": "uint256",
                                "value": "7,750,203,157,329,556,139,225,048,171"
                            }
                        ],
                        "signature": "balanceOf(address)"
                    },
                    "errorInfo": "",
                    "fromAddress": "0x43a372e4dad9d28e476c5a591810981895511f8a",
                    "gasUsed": 629,
                    "id": 15,
                    "methodDecoded": true,
                    "operation": "STATICCALL",
                    "output": "0x0000000000000000000000000000000000000000190ad15b04df8b7d3b42e46b",
                    "revert": false,
                    "revertMessage": "",
                    "selector": "0x70a08231",
                    "status": true,
                    "value": "0"
                },
                "nodeType": 0
            },
            "16": {
                "event": {
                    "contract": "0x43a372e4dad9d28e476c5a591810981895511f8a",
                    "decodedLog": {
                        "name": "Sync",
                        "params": [
                            {
                                "name": "reserve0",
                                "type": "uint112",
                                "value": "156,445,245,668,680,848,601"
                            },
                            {
                                "name": "reserve1",
                                "type": "uint112",
                                "value": "7,750,203,157,329,556,139,225,048,171"
                            }
                        ],
                        "signature": "Sync(uint112,uint112)"
                    },
                    "id": 16,
                    "logData": "0x0000000000000000000000000000000000000000000000087b1d2a0da070d4d90000000000000000000000000000000000000000190ad15b04df8b7d3b42e46b",
                    "logDecoded": true,
                    "operation": "EVENT",
                    "revert": false,
                    "status": true,
                    "topics": [
                        "0x1c411e9a96e071241c2f21f7726b17ae89e3cab4c78be50e062b03a9fffbbad1"
                    ]
                },
                "nodeType": 1
            },
            "17": {
                "event": {
                    "contract": "0x43a372e4dad9d28e476c5a591810981895511f8a",
                    "decodedLog": {
                        "name": "Swap",
                        "params": [
                            {
                                "name": "sender",
                                "type": "address",
                                "value": "0xd2a52f45c74b358abe1428bc43f0ce9ddf130780"
                            },
                            {
                                "name": "to",
                                "type": "address",
                                "value": "0xb517850510997a34b4ddc8c3797b4f83fad510c4"
                            },
                            {
                                "name": "amount0In",
                                "type": "uint256",
                                "value": "0"
                            },
                            {
                                "name": "amount1In",
                                "type": "uint256",
                                "value": "24,984,038,192,441,040,685,484,779"
                            },
                            {
                                "name": "amount0Out",
                                "type": "uint256",
                                "value": "504,439,813,387,323,139"
                            },
                            {
                                "name": "amount1Out",
                                "type": "uint256",
                                "value": "0"
                            }
                        ],
                        "signature": "Swap(address,uint256,uint256,uint256,uint256,address)"
                    },
                    "id": 17,
                    "logData": "0x000000000000000000000000000000000000000000000000000000000000000000000000000000000000000000000000000000000014aa936c9df59d061bcaeb000000000000000000000000000000000000000000000000070021566f8407030000000000000000000000000000000000000000000000000000000000000000",
                    "logDecoded": true,
                    "operation": "EVENT",
                    "revert": false,
                    "status": true,
                    "topics": [
                        "0xd78ad95fa46c994b6551d0da85fc275fe613ce37657fb8d5e3d130840159d822",
                        "0x000000000000000000000000d2a52f45c74b358abe1428bc43f0ce9ddf130780",
                        "0x000000000000000000000000b517850510997a34b4ddc8c3797b4f83fad510c4"
                    ]
                },
                "nodeType": 1
            },
            "18": {
                "invocation": {
                    "address": "0xc02aaa39b223fe8d0a0e5c4f27ead9083c756cc2",
                    "callData": "0x000000000000000000000000b517850510997a34b4ddc8c3797b4f83fad510c4",
                    "decodedMethod": {
                        "callParams": [
                            {
                                "name": "",
                                "type": "address",
                                "value": "0xb517850510997a34b4ddc8c3797b4f83fad510c4"
                            }
                        ],
                        "constructorArguments": "",
                        "name": "balanceOf",
                        "returnParams": [
                            {
                                "decimalAvailable": true,
                                "name": "",
                                "type": "uint256",
                                "value": "504,439,813,387,323,139"
                            }
                        ],
                        "signature": "balanceOf(address)"
                    },
                    "errorInfo": "",
                    "fromAddress": "0xd2a52f45c74b358abe1428bc43f0ce9ddf130780",
                    "gasUsed": 534,
                    "id": 18,
                    "methodDecoded": true,
                    "operation": "STATICCALL",
                    "output": "0x000000000000000000000000000000000000000000000000070021566f840703",
                    "revert": false,
                    "revertMessage": "",
                    "selector": "0x70a08231",
                    "status": true,
                    "value": "0"
                },
                "nodeType": 0
            },
            "19": {
                "invocation": {
                    "address": "0xc02aaa39b223fe8d0a0e5c4f27ead9083c756cc2",
                    "callData": "0x000000000000000000000000b517850510997a34b4ddc8c3797b4f83fad510c4",
                    "decodedMethod": {
                        "callParams": [
                            {
                                "name": "",
                                "type": "address",
                                "value": "0xb517850510997a34b4ddc8c3797b4f83fad510c4"
                            }
                        ],
                        "constructorArguments": "",
                        "name": "balanceOf",
                        "returnParams": [
                            {
                                "decimalAvailable": true,
                                "name": "",
                                "type": "uint256",
                                "value": "504,439,813,387,323,139"
                            }
                        ],
                        "signature": "balanceOf(address)"
                    },
                    "errorInfo": "",
                    "fromAddress": "0xb517850510997a34b4ddc8c3797b4f83fad510c4",
                    "gasUsed": 534,
                    "id": 19,
                    "methodDecoded": true,
                    "operation": "STATICCALL",
                    "output": "0x000000000000000000000000000000000000000000000000070021566f840703",
                    "revert": false,
                    "revertMessage": "",
                    "selector": "0x70a08231",
                    "status": true,
                    "value": "0"
                },
                "nodeType": 0
            },
            "2": {
                "invocation": {
                    "address": "0xc02aaa39b223fe8d0a0e5c4f27ead9083c756cc2",
                    "callData": "0x000000000000000000000000b517850510997a34b4ddc8c3797b4f83fad510c4",
                    "decodedMethod": {
                        "callParams": [
                            {
                                "name": "",
                                "type": "address",
                                "value": "0xb517850510997a34b4ddc8c3797b4f83fad510c4"
                            }
                        ],
                        "constructorArguments": "",
                        "name": "balanceOf",
                        "returnParams": [
                            {
                                "decimalAvailable": true,
                                "name": "",
                                "type": "uint256",
                                "value": "0"
                            }
                        ],
                        "signature": "balanceOf(address)"
                    },
                    "errorInfo": "",
                    "fromAddress": "0xb517850510997a34b4ddc8c3797b4f83fad510c4",
                    "gasUsed": 2534,
                    "id": 2,
                    "methodDecoded": true,
                    "operation": "STATICCALL",
                    "output": "0x0000000000000000000000000000000000000000000000000000000000000000",
                    "revert": false,
                    "revertMessage": "",
                    "selector": "0x70a08231",
                    "status": true,
                    "value": "0"
                },
                "nodeType": 0
            },
            "20": {
                "event": {
                    "contract": "0xb517850510997a34b4ddc8c3797b4f83fad510c4",
                    "decodedLog": null,
                    "id": 20,
                    "logData": "0x000000000000000000000000f5081b106abbe443fc62384b3724620fc9599c46000000000000000000000000c02aaa39b223fe8d0a0e5c4f27ead9083c756cc200000000000000000000000000000000000000000014aa936c9df59d061bcaeb000000000000000000000000000000000000000000000000070021566f840703",
                    "logDecoded": false,
                    "operation": "EVENT",
                    "revert": false,
                    "status": true,
                    "topics": [
                        "0x42352fcb13ab7775dee73e828de21384d4697140c76bfc3f431a20817c15898c"
                    ]
                },
                "nodeType": 1
            },
            "21": {
                "invocation": {
                    "address": "0xc02aaa39b223fe8d0a0e5c4f27ead9083c756cc2",
                    "callData": "0x000000000000000000000000000000000000000000000000070021566f840703",
                    "decodedMethod": {
                        "callParams": [
                            {
                                "name": "wad",
                                "type": "uint256",
                                "value": "504,439,813,387,323,139"
                            }
                        ],
                        "constructorArguments": "",
                        "name": "withdraw",
                        "returnParams": [],
                        "signature": "withdraw(uint256)"
                    },
                    "errorInfo": "",
                    "fromAddress": "0xb517850510997a34b4ddc8c3797b4f83fad510c4",
                    "gasUsed": 9594,
                    "id": 21,
                    "methodDecoded": true,
                    "operation": "CALL",
                    "output": "",
                    "revert": false,
                    "revertMessage": "",
                    "selector": "0x2e1a7d4d",
                    "status": true,
                    "value": "0"
                },
                "nodeType": 0
            },
            "22": {
                "invocation": {
                    "address": "0xb517850510997a34b4ddc8c3797b4f83fad510c4",
                    "callData": "0x",
                    "decodedMethod": null,
                    "errorInfo": "",
                    "fromAddress": "0xc02aaa39b223fe8d0a0e5c4f27ead9083c756cc2",
                    "gasUsed": 454,
                    "id": 22,
                    "methodDecoded": false,
                    "operation": "CALL",
                    "output": "",
                    "revert": false,
                    "revertMessage": "",
                    "selector": "fallback",
                    "status": true,
                    "value": "0.504439813387323139"
                },
                "nodeType": 0
            },
            "23": {
                "invocation": {
                    "address": "0x21a8f7ff1700fb57a6376fec4d724c8d70f0c0e8",
                    "callData": "0x",
                    "decodedMethod": null,
                    "errorInfo": "",
                    "fromAddress": "0xb517850510997a34b4ddc8c3797b4f83fad510c4",
                    "gasUsed": 55,
                    "id": 23,
                    "methodDecoded": false,
                    "operation": "DELEGATECALL",
                    "output": "",
                    "revert": false,
                    "revertMessage": "",
                    "selector": "fallback",
                    "status": true,
                    "value": "0.504439813387323139"
                },
                "nodeType": 0
            },
            "24": {
                "event": {
                    "contract": "0xc02aaa39b223fe8d0a0e5c4f27ead9083c756cc2",
                    "decodedLog": {
                        "name": "Withdrawal",
                        "params": [
                            {
                                "name": "src",
                                "type": "address",
                                "value": "0xb517850510997a34b4ddc8c3797b4f83fad510c4"
                            },
                            {
                                "name": "wad",
                                "type": "uint256",
                                "value": "504,439,813,387,323,139"
                            }
                        ],
                        "signature": "Withdrawal(address,uint256)"
                    },
                    "id": 24,
                    "logData": "0x000000000000000000000000000000000000000000000000070021566f840703",
                    "logDecoded": true,
                    "operation": "EVENT",
                    "revert": false,
                    "status": true,
                    "topics": [
                        "0x7fcf532c15f0a6db0bd6d0e038bea71d30d808c7d98cb3bf7268a95bf5081b65",
                        "0x000000000000000000000000b517850510997a34b4ddc8c3797b4f83fad510c4"
                    ]
                },
                "nodeType": 1
            },
            "25": {
                "invocation": {
                    "address": "0x5dd4c3c107cdda758d91a8b38d47787e5c559c65",
                    "callData": "0x",
                    "decodedMethod": null,
                    "errorInfo": "",
                    "fromAddress": "0xb517850510997a34b4ddc8c3797b4f83fad510c4",
                    "gasUsed": 0,
                    "id": 25,
                    "methodDecoded": false,
                    "operation": "CALL",
                    "output": "",
                    "revert": false,
                    "revertMessage": "",
                    "selector": "fallback",
                    "status": true,
                    "value": "0.504439813387323139"
                },
                "nodeType": 0
            },
            "3": {
                "invocation": {
                    "address": "0xd2a52f45c74b358abe1428bc43f0ce9ddf130780",
                    "callData": "0x000000000000000000000000f5081b106abbe443fc62384b3724620fc9599c46000000000000000000000000c02aaa39b223fe8d0a0e5c4f27ead9083c756cc2",
                    "decodedMethod": null,
                    "errorInfo": "",
                    "fromAddress": "0xb517850510997a34b4ddc8c3797b4f83fad510c4",
                    "gasUsed": 5477,
                    "id": 3,
                    "methodDecoded": false,
                    "operation": "STATICCALL",
                    "output": "0x00000000000000000000000043a372e4dad9d28e476c5a591810981895511f8a",
                    "revert": false,
                    "revertMessage": "",
                    "selector": "0xe98a5b85",
                    "status": true,
                    "value": "0"
                },
                "nodeType": 0
            },
            "4": {
                "invocation": {
                    "address": "0xf5081b106abbe443fc62384b3724620fc9599c46",
                    "callData": "0x0000000000000000000000005dd4c3c107cdda758d91a8b38d47787e5c559c6500000000000000000000000043a372e4dad9d28e476c5a591810981895511f8a00000000000000000000000000000000000000000014aa936c9df59d061bcaeb",
                    "decodedMethod": {
                        "callParams": [
                            {
                                "name": "sender",
                                "type": "address",
                                "value": "0x5dd4c3c107cdda758d91a8b38d47787e5c559c65"
                            },
                            {
                                "name": "recipient",
                                "type": "address",
                                "value": "0x43a372e4dad9d28e476c5a591810981895511f8a"
                            },
                            {
                                "decimalAvailable": true,
                                "name": "amount",
                                "type": "uint256",
                                "value": "24,984,038,192,441,040,685,484,779"
                            }
                        ],
                        "constructorArguments": "",
                        "name": "transferFrom",
                        "returnParams": [
                            {
                                "name": "",
                                "type": "bool",
                                "value": true
                            }
                        ],
                        "signature": "transferFrom(address,address,uint256)"
                    },
                    "errorInfo": "",
                    "fromAddress": "0xb517850510997a34b4ddc8c3797b4f83fad510c4",
                    "gasUsed": 20322,
                    "id": 4,
                    "methodDecoded": true,
                    "operation": "CALL",
                    "output": "0x0000000000000000000000000000000000000000000000000000000000000001",
                    "revert": false,
                    "revertMessage": "",
                    "selector": "0x23b872dd",
                    "status": true,
                    "value": "0"
                },
                "nodeType": 0
            },
            "5": {
                "event": {
                    "contract": "0xf5081b106abbe443fc62384b3724620fc9599c46",
                    "decodedLog": {
                        "name": "Transfer",
                        "params": [
                            {
                                "name": "from",
                                "type": "address",
                                "value": "0x5dd4c3c107cdda758d91a8b38d47787e5c559c65"
                            },
                            {
                                "name": "to",
                                "type": "address",
                                "value": "0x43a372e4dad9d28e476c5a591810981895511f8a"
                            },
                            {
                                "decimalAvailable": true,
                                "name": "value",
                                "type": "uint256",
                                "value": "24,984,038,192,441,040,685,484,779"
                            }
                        ],
                        "signature": "Transfer(address,address,uint256)"
                    },
                    "id": 5,
                    "logData": "0x00000000000000000000000000000000000000000014aa936c9df59d061bcaeb",
                    "logDecoded": true,
                    "operation": "EVENT",
                    "revert": false,
                    "status": true,
                    "topics": [
                        "0xddf252ad1be2c89b69c2b068fc378daa952ba7f163c4a11628f55a4df523b3ef",
                        "0x0000000000000000000000005dd4c3c107cdda758d91a8b38d47787e5c559c65",
                        "0x00000000000000000000000043a372e4dad9d28e476c5a591810981895511f8a"
                    ]
                },
                "nodeType": 1
            },
            "6": {
                "event": {
                    "contract": "0xf5081b106abbe443fc62384b3724620fc9599c46",
                    "decodedLog": {
                        "name": "Approval",
                        "params": [
                            {
                                "name": "owner",
                                "type": "address",
                                "value": "0x5dd4c3c107cdda758d91a8b38d47787e5c559c65"
                            },
                            {
                                "name": "spender",
                                "type": "address",
                                "value": "0xb517850510997a34b4ddc8c3797b4f83fad510c4"
                            },
                            {
                                "decimalAvailable": true,
                                "name": "value",
                                "type": "uint256",
                                "value": "111,111,031,941,978,949,539,329,226,095,813"
                            }
                        ],
                        "signature": "Approval(address,address,uint256)"
                    },
                    "id": 6,
                    "logData": "0x000000000000000000000000000000000000057a6b1b7691fe20bf66d7f0bcc5",
                    "logDecoded": true,
                    "operation": "EVENT",
                    "revert": false,
                    "status": true,
                    "topics": [
                        "0x8c5be1e5ebec7d5bd14f71427d1e84f3dd0314c0f7b2291e5b200ac8c7c3b925",
                        "0x0000000000000000000000005dd4c3c107cdda758d91a8b38d47787e5c559c65",
                        "0x000000000000000000000000b517850510997a34b4ddc8c3797b4f83fad510c4"
                    ]
                },
                "nodeType": 1
            },
            "7": {
                "invocation": {
                    "address": "0xd2a52f45c74b358abe1428bc43f0ce9ddf130780",
                    "callData": "0x00000000000000000000000000000000000000000014aa936c9df59d061bcaeb000000000000000000000000f5081b106abbe443fc62384b3724620fc9599c46000000000000000000000000c02aaa39b223fe8d0a0e5c4f27ead9083c756cc2000000000000000000000000b517850510997a34b4ddc8c3797b4f83fad510c4",
                    "decodedMethod": {
                        "callParams": [
                            {
                                "name": "amountA",
                                "type": "uint256",
                                "value": "24,984,038,192,441,040,685,484,779"
                            },
                            {
                                "name": "tokenA",
                                "type": "address",
                                "value": "0xf5081b106abbe443fc62384b3724620fc9599c46"
                            },
                            {
                                "name": "tokenB",
                                "type": "address",
                                "value": "0xc02aaa39b223fe8d0a0e5c4f27ead9083c756cc2"
                            },
                            {
                                "name": "to",
                                "type": "address",
                                "value": "0xb517850510997a34b4ddc8c3797b4f83fad510c4"
                            }
                        ],
                        "constructorArguments": "",
                        "name": "swap",
                        "returnParams": [
                            {
                                "name": "amountReceived",
                                "type": "uint256",
                                "value": "504,439,813,387,323,139"
                            }
                        ],
                        "signature": "swap(uint256,address,address,address)"
                    },
                    "errorInfo": "",
                    "fromAddress": "0xb517850510997a34b4ddc8c3797b4f83fad510c4",
                    "gasUsed": 74044,
                    "id": 7,
                    "methodDecoded": true,
                    "operation": "CALL",
                    "output": "0x000000000000000000000000000000000000000000000000070021566f840703",
                    "revert": false,
                    "revertMessage": "",
                    "selector": "0x88156e65",
                    "status": true,
                    "value": "0"
                },
                "nodeType": 0
            },
            "8": {
                "invocation": {
                    "address": "0x43a372e4dad9d28e476c5a591810981895511f8a",
                    "callData": "0x",
                    "decodedMethod": {
                        "callParams": [],
                        "constructorArguments": "",
                        "name": "getReserves",
                        "returnParams": [
                            {
                                "name": "_reserve0",
                                "type": "uint112",
                                "value": "156,949,685,482,068,171,740"
                            },
                            {
                                "name": "_reserve1",
                                "type": "uint112",
                                "value": "7,725,219,119,137,115,098,539,563,392"
                            },
                            {
                                "name": "_blockTimestampLast",
                                "type": "uint32",
                                "value": "1,685,322,551"
                            }
                        ],
                        "signature": "getReserves()"
                    },
                    "errorInfo": "",
                    "fromAddress": "0xd2a52f45c74b358abe1428bc43f0ce9ddf130780",
                    "gasUsed": 2504,
                    "id": 8,
                    "methodDecoded": true,
                    "operation": "STATICCALL",
                    "output": "0x000000000000000000000000000000000000000000000008821d4b640ff4dbdc000000000000000000000000000000000000000018f626c7984195e035271980000000000000000000000000000000000000000000000000000000006473fb37",
                    "revert": false,
                    "revertMessage": "",
                    "selector": "0x0902f1ac",
                    "status": true,
                    "value": "0"
                },
                "nodeType": 0
            },
            "9": {
                "invocation": {
                    "address": "0xf5081b106abbe443fc62384b3724620fc9599c46",
                    "callData": "0x00000000000000000000000043a372e4dad9d28e476c5a591810981895511f8a",
                    "decodedMethod": {
                        "callParams": [
                            {
                                "name": "account",
                                "type": "address",
                                "value": "0x43a372e4dad9d28e476c5a591810981895511f8a"
                            }
                        ],
                        "constructorArguments": "",
                        "name": "balanceOf",
                        "returnParams": [
                            {
                                "decimalAvailable": true,
                                "name": "",
                                "type": "uint256",
                                "value": "7,750,203,157,329,556,139,225,048,171"
                            }
                        ],
                        "signature": "balanceOf(address)"
                    },
                    "errorInfo": "",
                    "fromAddress": "0xd2a52f45c74b358abe1428bc43f0ce9ddf130780",
                    "gasUsed": 629,
                    "id": 9,
                    "methodDecoded": true,
                    "operation": "STATICCALL",
                    "output": "0x0000000000000000000000000000000000000000190ad15b04df8b7d3b42e46b",
                    "revert": false,
                    "revertMessage": "",
                    "selector": "0x70a08231",
                    "status": true,
                    "value": "0"
                },
                "nodeType": 0
            }
        },
        "gasFlame": [
            {
                "children": [
                    {
                        "children": [
                            {
                                "children": [],
                                "depth": 0,
                                "name": "Initial Gas",
                                "value": 23720
                            },
                            {
                                "children": [
                                    {
                                        "children": [
                                            {
                                                "children": [],
                                                "depth": 2,
                                                "name": "balanceOf",
                                                "value": 2534
                                            },
                                            {
                                                "children": [],
                                                "depth": 2,
                                                "name": "0xe98a5b85",
                                                "value": 5477
                                            },
                                            {
                                                "children": [],
                                                "depth": 2,
                                                "name": "transferFrom",
                                                "value": 20322
                                            },
                                            {
                                                "children": [
                                                    {
                                                        "children": [],
                                                        "depth": 3,
                                                        "name": "getReserves",
                                                        "value": 2504
                                                    },
                                                    {
                                                        "children": [],
                                                        "depth": 3,
                                                        "name": "balanceOf",
                                                        "value": 629
                                                    },
                                                    {
                                                        "children": [],
                                                        "depth": 3,
                                                        "name": "balanceOf",
                                                        "value": 534
                                                    },
                                                    {
                                                        "children": [
                                                            {
                                                                "children": [],
                                                                "depth": 4,
                                                                "name": "transfer",
                                                                "value": 27962
                                                            },
                                                            {
                                                                "children": [],
                                                                "depth": 4,
                                                                "name": "balanceOf",
                                                                "value": 534
                                                            },
                                                            {
                                                                "children": [],
                                                                "depth": 4,
                                                                "name": "balanceOf",
                                                                "value": 629
                                                            }
                                                        ],
                                                        "depth": 3,
                                                        "name": "swap",
                                                        "value": 60448
                                                    },
                                                    {
                                                        "children": [],
                                                        "depth": 3,
                                                        "name": "balanceOf",
                                                        "value": 534
                                                    }
                                                ],
                                                "depth": 2,
                                                "name": "swap",
                                                "value": 74044
                                            },
                                            {
                                                "children": [],
                                                "depth": 2,
                                                "name": "balanceOf",
                                                "value": 534
                                            },
                                            {
                                                "children": [
                                                    {
                                                        "children": [
                                                            {
                                                                "children": [],
                                                                "depth": 4,
                                                                "name": "fallback",
                                                                "value": 55
                                                            }
                                                        ],
                                                        "depth": 3,
                                                        "name": "fallback",
                                                        "value": 454
                                                    }
                                                ],
                                                "depth": 2,
                                                "name": "withdraw",
                                                "value": 9594
                                            },
                                            {
                                                "children": [],
                                                "depth": 2,
                                                "name": "fallback",
                                                "value": 0
                                            }
                                        ],
                                        "depth": 1,
                                        "name": "0x7822d813",
                                        "value": 142575
                                    }
                                ],
                                "depth": 0,
                                "name": "Executed Gas",
                                "value": 147527
                            }
                        ],
                        "depth": -1,
                        "name": "Actual Gas Used",
                        "value": 143747
                    },
                    {
                        "children": [],
                        "depth": -1,
                        "name": "Refunded Gas",
                        "value": 27500
                    }
                ],
                "depth": -2,
                "name": "Total Gas",
                "value": 171247
            }
        ],
        "isConfirmed": true,
        "mainTrace": [
            {
                "children": [
                    {
                        "children": [
                            {
                                "children": [
                                    {
                                        "children": [],
                                        "depth": 2,
                                        "id": 2,
                                        "order": 2
                                    },
                                    {
                                        "children": [],
                                        "depth": 2,
                                        "id": 3,
                                        "order": 3
                                    },
                                    {
                                        "children": [
                                            {
                                                "children": [],
                                                "depth": 3,
                                                "id": 5,
                                                "order": 5
                                            },
                                            {
                                                "children": [],
                                                "depth": 3,
                                                "id": 6,
                                                "order": 6
                                            }
                                        ],
                                        "depth": 2,
                                        "id": 4,
                                        "order": 4
                                    },
                                    {
                                        "children": [
                                            {
                                                "children": [],
                                                "depth": 3,
                                                "id": 8,
                                                "order": 8
                                            },
                                            {
                                                "children": [],
                                                "depth": 3,
                                                "id": 9,
                                                "order": 9
                                            },
                                            {
                                                "children": [],
                                                "depth": 3,
                                                "id": 10,
                                                "order": 10
                                            },
                                            {
                                                "children": [
                                                    {
                                                        "children": [
                                                            {
                                                                "children": [],
                                                                "depth": 5,
                                                                "id": 13,
                                                                "order": 13
                                                            }
                                                        ],
                                                        "depth": 4,
                                                        "id": 12,
                                                        "order": 12
                                                    },
                                                    {
                                                        "children": [],
                                                        "depth": 4,
                                                        "id": 14,
                                                        "order": 14
                                                    },
                                                    {
                                                        "children": [],
                                                        "depth": 4,
                                                        "id": 15,
                                                        "order": 15
                                                    },
                                                    {
                                                        "children": [],
                                                        "depth": 4,
                                                        "id": 16,
                                                        "order": 16
                                                    },
                                                    {
                                                        "children": [],
                                                        "depth": 4,
                                                        "id": 17,
                                                        "order": 17
                                                    }
                                                ],
                                                "depth": 3,
                                                "id": 11,
                                                "order": 11
                                            },
                                            {
                                                "children": [],
                                                "depth": 3,
                                                "id": 18,
                                                "order": 18
                                            }
                                        ],
                                        "depth": 2,
                                        "id": 7,
                                        "order": 7
                                    },
                                    {
                                        "children": [],
                                        "depth": 2,
                                        "id": 19,
                                        "order": 19
                                    },
                                    {
                                        "children": [],
                                        "depth": 2,
                                        "id": 20,
                                        "order": 20
                                    },
                                    {
                                        "children": [
                                            {
                                                "children": [
                                                    {
                                                        "children": [],
                                                        "depth": 4,
                                                        "id": 23,
                                                        "order": 23
                                                    }
                                                ],
                                                "depth": 3,
                                                "id": 22,
                                                "order": 22
                                            },
                                            {
                                                "children": [],
                                                "depth": 3,
                                                "id": 24,
                                                "order": 24
                                            }
                                        ],
                                        "depth": 2,
                                        "id": 21,
                                        "order": 21
                                    },
                                    {
                                        "children": [],
                                        "depth": 2,
                                        "id": 25,
                                        "order": 25
                                    }
                                ],
                                "depth": 1,
                                "id": 1,
                                "order": 1
                            }
                        ],
                        "depth": 0,
                        "id": 0,
                        "order": 0
                    }
                ],
                "depth": -1,
                "id": -1,
                "order": -1
            }
        ],
        "mainTraceNodeCount": 26,
        "parentIdMap": {
            "0": -1,
            "1": 0,
            "10": 7,
            "11": 7,
            "12": 11,
            "13": 12,
            "14": 11,
            "15": 11,
            "16": 11,
            "17": 11,
            "18": 7,
            "19": 1,
            "2": 1,
            "20": 1,
            "21": 1,
            "22": 21,
            "23": 22,
            "24": 21,
            "25": 1,
            "3": 1,
            "4": 1,
            "5": 4,
            "6": 4,
            "7": 1,
            "8": 7,
            "9": 7
        },
        "tidyTrace": [
            {
                "children": [
                    {
                        "children": [
                            {
                                "children": [
                                    {
                                        "children": [
                                            {
                                                "children": [],
                                                "depth": 3,
                                                "id": 5,
                                                "order": 5
                                            },
                                            {
                                                "children": [],
                                                "depth": 3,
                                                "id": 6,
                                                "order": 6
                                            }
                                        ],
                                        "depth": 2,
                                        "id": 4,
                                        "order": 4
                                    },
                                    {
                                        "children": [
                                            {
                                                "children": [
                                                    {
                                                        "children": [
                                                            {
                                                                "children": [],
                                                                "depth": 5,
                                                                "id": 13,
                                                                "order": 13
                                                            }
                                                        ],
                                                        "depth": 4,
                                                        "id": 12,
                                                        "order": 12
                                                    },
                                                    {
                                                        "children": [],
                                                        "depth": 4,
                                                        "id": 16,
                                                        "order": 16
                                                    },
                                                    {
                                                        "children": [],
                                                        "depth": 4,
                                                        "id": 17,
                                                        "order": 17
                                                    }
                                                ],
                                                "depth": 3,
                                                "id": 11,
                                                "order": 11
                                            }
                                        ],
                                        "depth": 2,
                                        "id": 7,
                                        "order": 7
                                    },
                                    {
                                        "children": [],
                                        "depth": 2,
                                        "id": 20,
                                        "order": 20
                                    },
                                    {
                                        "children": [
                                            {
                                                "children": [
                                                    {
                                                        "children": [],
                                                        "depth": 4,
                                                        "id": 23,
                                                        "order": 23
                                                    }
                                                ],
                                                "depth": 3,
                                                "id": 22,
                                                "order": 22
                                            },
                                            {
                                                "children": [],
                                                "depth": 3,
                                                "id": 24,
                                                "order": 24
                                            }
                                        ],
                                        "depth": 2,
                                        "id": 21,
                                        "order": 21
                                    },
                                    {
                                        "children": [],
                                        "depth": 2,
                                        "id": 25,
                                        "order": 25
                                    }
                                ],
                                "depth": 1,
                                "id": 1,
                                "order": 1
                            }
                        ],
                        "depth": 0,
                        "id": 0,
                        "order": 0
                    }
                ],
                "depth": -1,
                "id": -1,
                "order": -1
            }
        ],
        "tidyTraceNodeCount": 17
    },
    "state_change": {
        "stateChanges": [
            {
                "address": "0x43a372e4dad9d28e476c5a591810981895511f8a",
                "erc": "ERC-20",
                "slots": [
                    {
                        "current": "0x00000000000000000000000003067ae9b47048ff9aed58e682cc9034dcf1afa0",
                        "key": "0x0000000000000000000000000000000000000000000000000000000000000009",
                        "prev": "0x0000000000000000000000000306114bce85eed6ec1cda937771f340928e049c"
                    },
                    {
                        "current": "0x0000000000000000000000000000000000000017481f9f9c0a2f93ea1904f514",
                        "key": "0x000000000000000000000000000000000000000000000000000000000000000a",
                        "prev": "0x00000000000000000000000000000000000000173bda4e03213aaf5277fb9cd4"
                    },
                    {
                        "current": "0x6473fb5b0000190ad15b04df8b7d3b42e46b0000000000087b1d2a0da070d4d9",
                        "key": "0x0000000000000000000000000000000000000000000000000000000000000008",
                        "prev": "0x6473fb37000018f626c7984195e035271980000000000008821d4b640ff4dbdc"
                    }
                ],
                "storageVariables": [
                    {
                        "name": "price0CumulativeLast",
                        "type": "uint256",
                        "value": {
                            "current": "17271484008181926714362809651972473244433362848",
                            "prev": "17262283488217448161389991782283105212694398108",
                            "typeTag": 1
                        }
                    },
                    {
                        "name": "price1CumulativeLast",
                        "type": "uint256",
                        "value": {
                            "current": "1844568888970321482774326080788",
                            "prev": "1840771267638535427840450206932",
                            "typeTag": 1
                        }
                    },
                    {
                        "name": "reserve0",
                        "type": "uint112",
                        "value": {
                            "current": "156445245668680848601",
                            "prev": "156949685482068171740",
                            "typeTag": 1
                        }
                    },
                    {
                        "name": "reserve1",
                        "type": "uint112",
                        "value": {
                            "current": "7750203157329556139225048171",
                            "prev": "7725219119137115098539563392",
                            "typeTag": 1
                        }
                    },
                    {
                        "name": "blockTimestampLast",
                        "type": "uint32",
                        "value": {
                            "current": "1685322587",
                            "prev": "1685322551",
                            "typeTag": 1
                        }
                    }
                ]
            },
            {
                "address": "0xc02aaa39b223fe8d0a0e5c4f27ead9083c756cc2",
                "erc": "ERC-20",
                "slots": [
                    {
                        "current": "0x0000000000000000000000000000000000000000000000087b1d2a0da070d4d9",
                        "key": "0x91b9ddc6b1856befb9693f3b45594828b12c562cb6408decfea949b8b5e0166c",
                        "prev": "0x000000000000000000000000000000000000000000000008821d4b640ff4dbdc"
                    }
                ],
                "storageVariables": [
                    {
                        "name": "balanceOf",
                        "type": "mapping(address => uint256)",
                        "value": {
                            "pairs": [
                                {
                                    "key": "0x43a372e4dad9d28e476c5a591810981895511f8a",
                                    "value": {
                                        "current": "156445245668680848601",
                                        "prev": "156949685482068171740",
                                        "typeTag": 1
                                    }
                                }
                            ],
                            "typeTag": 4
                        }
                    }
                ]
            },
            {
                "address": "0xf5081b106abbe443fc62384b3724620fc9599c46",
                "erc": "ERC-20",
                "slots": [
                    {
                        "current": "0x0000000000000000000000000000000000000000000000000000000000000000",
                        "key": "0x72e63757e451438d8d96901b1e22be16694c0a47ada386b6e4c9c275ca66f506",
                        "prev": "0x00000000000000000000000000000000000000000014aa936c9df59d061bcaeb"
                    },
                    {
                        "current": "0x0000000000000000000000000000000000000000190ad15b04df8b7d3b42e46b",
                        "key": "0x8b529084c901104ee292febb96ee1514cfcde62d47dcef36dd2eced4fdb3649d",
                        "prev": "0x000000000000000000000000000000000000000018f626c7984195e035271980"
                    },
                    {
                        "current": "0x000000000000000000000000000000000000057a6b1b7691fe20bf66d7f0bcc5",
                        "key": "0x64a72c5d238b51c1029db057b21a06e924ee45aaa8e1dce430d6cbc5634c6954",
                        "prev": "0x000000000000000000000000000000000000057a6b3021256abeb503de0c87b0"
                    }
                ],
                "storageVariables": [
                    {
                        "name": "_balances",
                        "type": "mapping(address => uint256)",
                        "value": {
                            "pairs": [
                                {
                                    "key": "0x43a372e4dad9d28e476c5a591810981895511f8a",
                                    "value": {
                                        "current": "7750203157329556139225048171",
                                        "prev": "7725219119137115098539563392",
                                        "typeTag": 1
                                    }
                                },
                                {
                                    "key": "0x5dd4c3c107cdda758d91a8b38d47787e5c559c65",
                                    "value": {
                                        "current": "0",
                                        "prev": "24984038192441040685484779",
                                        "typeTag": 1
                                    }
                                }
                            ],
                            "typeTag": 4
                        }
                    },
                    {
                        "name": "_allowances",
                        "type": "mapping(address => mapping(address => uint256))",
                        "value": {
                            "pairs": [
                                {
                                    "key": "0x5dd4c3c107cdda758d91a8b38d47787e5c559c65",
                                    "value": {
                                        "pairs": [
                                            {
                                                "key": "0xb517850510997a34b4ddc8c3797b4f83fad510c4",
                                                "value": {
                                                    "current": "111111031941978949539329226095813",
                                                    "prev": "111111056926017141980369911580592",
                                                    "typeTag": 1
                                                }
                                            }
                                        ],
                                        "typeTag": 4
                                    }
                                }
                            ],
                            "typeTag": 4
                        }
                    }
                ]
            }
        ]
    }
}