{
    "balance_change": {
        "balanceChanges": []
    },
    "profile": {
        "basic_info": {
            "baseFee": "7.927831852",
            "blockNumber": 15207187,
            "callData": "0x2e1a7d4d0000000000000000000000000000000000000000000000000000000000001aa3",
            "debugEnable": true,
            "errorInfo": "execution reverted",
            "eventCount": 0,
            "feeRecipient": "0x7f101fe45e6649a6fb8f3f8b43ed03d353f2b90c",
            "formatValue": "0",
            "gasLimit": 127123,
            "gasPrice": "9.427831852",
            "gasUsed": 126800,
            "intTxnCount": 1,
            "internalRevert": true,
            "internalRevertMessage": "",
            "isContractCreation": false,
            "isFlashloan": false,
            "maxFee": "11.017408456",
            "nonce": 717,
            "overwritedBlockNumber": -1,
            "priorityFee": "1.5",
            "receiver": "0xcd34bd199dd4cc11311ce62123081a83db6b44e2",
            "revertMessage": "",
            "sender": "0x86c28db1118c55ba85c562d5b0875f94d78b0c03",
            "simulationEnable": true,
            "sourceTxnHash": "0x6d86a51daad2920a49c9f69bfce4b778290c23b9a64403126caccfe04b2839e8",
            "status": false,
            "timestamp": "2022-07-24T19:30:16Z",
            "transactionFee": "0.0011954490788336",
            "txnHash": "0x6d86a51daad2920a49c9f69bfce4b778290c23b9a64403126caccfe04b2839e8",
            "txnIndex": 283,
            "type": 2,
            "value": "0"
        },
        "fund_flow": [],
        "token_infos": [
            {
                "address": "0xc02aaa39b223fe8d0a0e5c4f27ead9083c756cc2",
                "decimals": 18
            },
            {
                "address": "0xeeeeeeeeeeeeeeeeeeeeeeeeeeeeeeeeeeeeeeee",
                "decimals": 18
            }
        ]
    },
    "address_label": {
        "labels": [
            {
                "address": "0x0000000000000000000000000000000000000002",
                "label": "Precompiled"
            },
            {
                "address": "0x0000000000000000000000000000000000000003",
                "label": "Precompiled"
            },
            {
                "address": "0x0000000000000000000000000000000000000004",
                "label": "Precompiled"
            },
            {
                "address": "0xeeeeeeeeeeeeeeeeeeeeeeeeeeeeeeeeeeeeeeee",
                "label": "Ether"
            },
            {
                "address": "0xc86664e7d2608f881f796ee8e24fa9d4d7598406",
                "label": "WAGMI ARMY: WAGMI Token"
            },
            {
                "address": "0xcd34bd199dd4cc11311ce62123081a83db6b44e2",
                "label": "WagmiStaking"
            },
            {
                "address": "0x0000000000000000000000000000000000000001",
                "label": "Precompiled"
            }
        ]
    },
    "trace": {
        "accountLabels": null,
        "dataMap": {
            "-1": {
                "invocation": {
                    "address": "0x86c28db1118c55ba85c562d5b0875f94d78b0c03",
                    "callData": "",
                    "decodedMethod": null,
                    "errorInfo": "",
                    "fromAddress": "",
                    "gasUsed": 0,
                    "id": -1,
                    "methodDecoded": false,
                    "operation": "",
                    "output": "",
                    "revert": false,
                    "revertMessage": "",
                    "selector": "",
                    "status": false,
                    "value": ""
                },
                "nodeType": 0
            },
            "0": {
                "invocation": {
                    "address": "0xcd34bd199dd4cc11311ce62123081a83db6b44e2",
                    "callData": "0x0000000000000000000000000000000000000000000000000000000000001aa3",
                    "decodedMethod": {
                        "callParams": [
                            {
                                "name": "_tokenId",
                                "type": "uint256",
                                "value": "6,819"
                            }
                        ],
                        "constructorArguments": "",
                        "name": "withdraw",
                        "returnParams": [],
                        "signature": "withdraw(uint256)"
                    },
                    "errorInfo": "execution reverted",
                    "fromAddress": "0x86c28db1118c55ba85c562d5b0875f94d78b0c03",
                    "gasUsed": 126800,
                    "id": 0,
                    "methodDecoded": true,
                    "operation": "CALL",
                    "output": "",
                    "revert": true,
                    "revertMessage": "",
                    "selector": "0x2e1a7d4d",
                    "status": false,
                    "value": "0"
                },
                "nodeType": 0
            },
            "1": {
                "invocation": {
                    "address": "0xc86664e7d2608f881f796ee8e24fa9d4d7598406",
                    "callData": "0x000000000000000000000000cd34bd199dd4cc11311ce62123081a83db6b44e200000000000000000000000086c28db1118c55ba85c562d5b0875f94d78b0c030000000000000000000000000000000000000000000000000000000000001aa3",
                    "decodedMethod": {
                        "callParams": [
                            {
                                "name": "from",
                                "type": "address",
                                "value": "0xcd34bd199dd4cc11311ce62123081a83db6b44e2"
                            },
                            {
                                "name": "to",
                                "type": "address",
                                "value": "0x86c28db1118c55ba85c562d5b0875f94d78b0c03"
                            },
                            {
                                "decimalAvailable": true,
                                "name": "tokenId",
                                "type": "uint256",
                                "value": "6,819"
                            }
                        ],
                        "constructorArguments": "",
                        "name": "transferFrom",
                        "returnParams": [],
                        "signature": "transferFrom(address,address,uint256)"
                    },
                    "errorInfo": "out of gas",
                    "fromAddress": "0xcd34bd199dd4cc11311ce62123081a83db6b44e2",
                    "gasUsed": 22805,
                    "id": 1,
                    "methodDecoded": true,
                    "operation": "CALL",
                    "output": "",
                    "revert": true,
                    "revertMessage": "",
                    "selector": "0x23b872dd",
                    "status": false,
                    "value": "0"
                },
                "nodeType": 0
            }
        },
        "gasFlame": [
            {
                "children": [
                    {
                        "children": [
                            {
                                "children": [],
                                "depth": 0,
                                "name": "Initial Gas",
                                "value": 21216
                            },
                            {
                                "children": [
                                    {
                                        "children": [],
                                        "depth": 1,
                                        "name": "transferFrom",
                                        "value": 22805
                                    }
                                ],
                                "depth": 0,
                                "name": "Executed Gas",
                                "value": 105584
                            }
                        ],
                        "depth": -1,
                        "name": "Actual Gas Used",
                        "value": 126800
                    },
                    {
                        "children": [],
                        "depth": -1,
                        "name": "Refunded Gas",
                        "value": 0
                    }
                ],
                "depth": -2,
                "name": "Total Gas",
                "value": 126800
            }
        ],
        "isConfirmed": true,
        "mainTrace": [
            {
                "children": [
                    {
                        "children": [
                            {
                                "children": [],
                                "depth": 1,
                                "id": 1,
                                "order": 1
                            }
                        ],
                        "depth": 0,
                        "id": 0,
                        "order": 0
                    }
                ],
                "depth": -1,
                "id": -1,
                "order": -1
            }
        ],
        "mainTraceNodeCount": 2,
        "parentIdMap": {
            "0": -1,
            "1": 0
        },
        "tidyTrace": [
            {
                "children": [
                    {
                        "children": [
                            {
                                "children": [],
                                "depth": 1,
                                "id": 1,
                                "order": 1
                            }
                        ],
                        "depth": 0,
                        "id": 0,
                        "order": 0
                    }
                ],
                "depth": -1,
                "id": -1,
                "order": -1
            }
        ],
        "tidyTraceNodeCount": 2
    },
    "state_change": {
        "stateChanges": []
    }
}