{
    "balance_change": {
        "balanceChanges": []
    },
    "profile": {
        "basic_info": {
            "baseFee": "",
            "blockNumber": 8248219,
            "callData": "0x07519f620000000000000000000000000000000000000000000000002238934bdb836c000000000000000000000000008421dee033e0af07cb96be0769cc8aaff29fbc91000000000000000000000000000000000000000000000000000000000000006000000000000000000000000000000000000000000000000000000000000000257b226f726465724964223a31303331392c226f726465724e756d626572223a31303331397d000000000000000000000000000000000000000000000000000000",
            "debugEnable": true,
            "errorInfo": "",
            "eventCount": 1,
            "feeRecipient": "0x5a0b54d5dc17e0aadc383d2db43b0a0d3e029c4c",
            "formatValue": "0",
            "gasLimit": 135797,
            "gasPrice": "1",
            "gasUsed": 135797,
            "intTxnCount": 0,
            "internalRevert": false,
            "internalRevertMessage": "",
            "isContractCreation": false,
            "isFlashloan": false,
            "maxFee": "",
            "nonce": 4345,
            "overwritedBlockNumber": -1,
            "priorityFee": "",
            "receiver": "0x8445771826732efcd20c6282e9b1d9c1b2acb4f8",
            "revertMessage": "",
            "sender": "0x6129831f3dc2607f6361eb22c5491f93a332651f",
            "simulationEnable": true,
            "sourceTxnHash": "0x6dc5f360482f85a0ac3f2f85797b0fd853542f6b7485bcf272343a8ab882a310",
            "status": true,
            "timestamp": "2019-07-29T22:34:00Z",
            "transactionFee": "0.000135797",
            "txnHash": "0x6dc5f360482f85a0ac3f2f85797b0fd853542f6b7485bcf272343a8ab882a310",
            "txnIndex": 19,
            "type": 0,
            "value": "0"
        },
        "fund_flow": [],
        "token_infos": [
            {
                "address": "0xc02aaa39b223fe8d0a0e5c4f27ead9083c756cc2",
                "decimals": 18
            },
            {
                "address": "0xeeeeeeeeeeeeeeeeeeeeeeeeeeeeeeeeeeeeeeee",
                "decimals": 18
            }
        ]
    },
    "address_label": {
        "labels": [
            {
                "address": "0xeeeeeeeeeeeeeeeeeeeeeeeeeeeeeeeeeeeeeeee",
                "label": "Ether"
            },
            {
                "address": "0x0000000000000000000000000000000000000001",
                "label": "Precompiled"
            },
            {
                "address": "0x0000000000000000000000000000000000000002",
                "label": "Precompiled"
            },
            {
                "address": "0x0000000000000000000000000000000000000003",
                "label": "Precompiled"
            },
            {
                "address": "0x0000000000000000000000000000000000000004",
                "label": "Precompiled"
            }
        ]
    },
    "trace": {
        "accountLabels": null,
        "dataMap": {
            "-1": {
                "invocation": {
                    "address": "0x6129831f3dc2607f6361eb22c5491f93a332651f",
                    "callData": "",
                    "decodedMethod": null,
                    "errorInfo": "",
                    "fromAddress": "",
                    "gasUsed": 0,
                    "id": -1,
                    "methodDecoded": false,
                    "operation": "",
                    "output": "",
                    "revert": false,
                    "revertMessage": "",
                    "selector": "",
                    "status": false,
                    "value": ""
                },
                "nodeType": 0
            },
            "0": {
                "invocation": {
                    "address": "0x8445771826732efcd20c6282e9b1d9c1b2acb4f8",
                    "callData": "0x0000000000000000000000000000000000000000000000002238934bdb836c000000000000000000000000008421dee033e0af07cb96be0769cc8aaff29fbc91000000000000000000000000000000000000000000000000000000000000006000000000000000000000000000000000000000000000000000000000000000257b226f726465724964223a31303331392c226f726465724e756d626572223a31303331397d000000000000000000000000000000000000000000000000000000",
                    "decodedMethod": {
                        "callParams": [
                            {
                                "name": "_amount",
                                "type": "uint256",
                                "value": "2,465,882,750,000,000,000"
                            },
                            {
                                "name": "_account",
                                "type": "address",
                                "value": "0x8421dee033e0af07cb96be0769cc8aaff29fbc91"
                            },
                            {
                                "name": "_metadata",
                                "type": "string",
                                "value": "{\"orderId\":10319,\"orderNumber\":10319}"
                            }
                        ],
                        "constructorArguments": "",
                        "name": "placeOrder",
                        "returnParams": [
                            {
                                "name": "",
                                "type": "bool",
                                "value": true
                            }
                        ],
                        "signature": "placeOrder(uint256,address,string)"
                    },
                    "errorInfo": "",
                    "fromAddress": "0x6129831f3dc2607f6361eb22c5491f93a332651f",
                    "gasUsed": 135797,
                    "id": 0,
                    "methodDecoded": true,
                    "operation": "CALL",
                    "output": "0x0000000000000000000000000000000000000000000000000000000000000001",
                    "revert": false,
                    "revertMessage": "",
                    "selector": "0x07519f62",
                    "status": true,
                    "value": "0"
                },
                "nodeType": 0
            },
            "1": {
                "event": {
                    "contract": "0x8445771826732efcd20c6282e9b1d9c1b2acb4f8",
                    "decodedLog": {
                        "name": "OrderPlaced",
                        "params": [
                            {
                                "name": "orderIndex",
                                "type": "uint256",
                                "value": "322"
                            }
                        ],
                        "signature": "OrderPlaced(uint256)"
                    },
                    "id": 1,
                    "logData": "0x",
                    "logDecoded": true,
                    "operation": "EVENT",
                    "revert": false,
                    "status": true,
                    "topics": [
                        "0xffa896d8919f0556f53ace1395617969a3b53ab5271a085e28ac0c4a3724e63d",
                        "0x0000000000000000000000000000000000000000000000000000000000000142"
                    ]
                },
                "nodeType": 1
            }
        },
        "gasFlame": [
            {
                "children": [
                    {
                        "children": [
                            {
                                "children": [],
                                "depth": 0,
                                "name": "Initial Gas",
                                "value": 26264
                            },
                            {
                                "children": [],
                                "depth": 0,
                                "name": "Executed Gas",
                                "value": 109533
                            }
                        ],
                        "depth": -1,
                        "name": "Actual Gas Used",
                        "value": 135797
                    },
                    {
                        "children": [],
                        "depth": -1,
                        "name": "Refunded Gas",
                        "value": 0
                    }
                ],
                "depth": -2,
                "name": "Total Gas",
                "value": 135797
            }
        ],
        "isConfirmed": true,
        "mainTrace": [
            {
                "children": [
                    {
                        "children": [
                            {
                                "children": [],
                                "depth": 1,
                                "id": 1,
                                "order": 1
                            }
                        ],
                        "depth": 0,
                        "id": 0,
                        "order": 0
                    }
                ],
                "depth": -1,
                "id": -1,
                "order": -1
            }
        ],
        "mainTraceNodeCount": 2,
        "parentIdMap": {
            "0": -1,
            "1": 0
        },
        "tidyTrace": [
            {
                "children": [
                    {
                        "children": [
                            {
                                "children": [],
                                "depth": 1,
                                "id": 1,
                                "order": 1
                            }
                        ],
                        "depth": 0,
                        "id": 0,
                        "order": 0
                    }
                ],
                "depth": -1,
                "id": -1,
                "order": -1
            }
        ],
        "tidyTraceNodeCount": 2
    },
    "state_change": {
        "stateChanges": [
            {
                "address": "0x8445771826732efcd20c6282e9b1d9c1b2acb4f8",
                "erc": "",
                "slots": [
                    {
                        "current": "0x0000000000000000000000000000000000000000000000000000000000000143",
                        "key": "0x0000000000000000000000000000000000000000000000000000000000000002",
                        "prev": "0x0000000000000000000000000000000000000000000000000000000000000142"
                    },
                    {
                        "current": "0x0000000000000000000000000000000000000000000000002238934bdb836c00",
                        "key": "0x405787fa12a823e0f2b7631cc41b3ba8828b3321ca811111fa75cd3aa3bb5e94",
                        "prev": "0x0000000000000000000000000000000000000000000000000000000000000000"
                    },
                    {
                        "current": "0x0000000000000000000000008421dee033e0af07cb96be0769cc8aaff29fbc91",
                        "key": "0x405787fa12a823e0f2b7631cc41b3ba8828b3321ca811111fa75cd3aa3bb5e95",
                        "prev": "0x0000000000000000000000000000000000000000000000000000000000000000"
                    },
                    {
                        "current": "0x000000000000000000000000000000000000000000000000000000000000004b",
                        "key": "0x405787fa12a823e0f2b7631cc41b3ba8828b3321ca811111fa75cd3aa3bb5e96",
                        "prev": "0x0000000000000000000000000000000000000000000000000000000000000000"
                    },
                    {
                        "current": "0x7b226f726465724964223a31303331392c226f726465724e756d626572223a31",
                        "key": "0x1dcfe3aa4b7fe56810abbb98b7306ac1caca66ce501f60f31f8f96ab6a5f990c",
                        "prev": "0x0000000000000000000000000000000000000000000000000000000000000000"
                    },
                    {
                        "current": "0x303331397d000000000000000000000000000000000000000000000000000000",
                        "key": "0x1dcfe3aa4b7fe56810abbb98b7306ac1caca66ce501f60f31f8f96ab6a5f990d",
                        "prev": "0x0000000000000000000000000000000000000000000000000000000000000000"
                    }
                ],
                "storageVariables": []
            }
        ]
    }
}