{
    "balance_change": {
        "balanceChanges": [
            {
                "account": "0x032c324862480c46999beacd89758538afa89333",
                "assets": [
                    {
                        "address": "0xa5fd1a791c4dfcaacc963d4f73c6ae5824149ea7",
                        "amount": "15,199.9999999",
                        "iconUrl": "",
                        "isERC1155": false,
                        "isERC721": false,
                        "sign": false,
                        "value": ""
                    }
                ]
            },
            {
                "account": "0x05ee546c1a62f90d7acbffd6d846c9c54c7cf94c",
                "assets": [
                    {
                        "address": "0xa5fd1a791c4dfcaacc963d4f73c6ae5824149ea7",
                        "amount": "15,199.9999999",
                        "iconUrl": "",
                        "isERC1155": false,
                        "isERC721": false,
                        "sign": true,
                        "value": ""
                    }
                ]
            }
        ]
    },
    "profile": {
        "basic_info": {
            "baseFee": "",
            "blockNumber": 5440801,
            "callData": "0xa9059cbb00000000000000000000000005ee546c1a62f90d7acbffd6d846c9c54c7cf94c000000000000000000000000000000000000000000000337fe5feadb89091800",
            "debugEnable": true,
            "errorInfo": "",
            "eventCount": 4,
            "feeRecipient": "0xea674fdde714fd979de3edf0f56aa9716b898ec8",
            "formatValue": "0",
            "gasLimit": 210000,
            "gasPrice": "2.002",
            "gasUsed": 67331,
            "intTxnCount": 3,
            "internalRevert": false,
            "internalRevertMessage": "",
            "isContractCreation": false,
            "isFlashloan": false,
            "maxFee": "",
            "nonce": 8,
            "overwritedBlockNumber": -1,
            "priorityFee": "",
            "receiver": "0xa5fd1a791c4dfcaacc963d4f73c6ae5824149ea7",
            "revertMessage": "",
            "sender": "0x032c324862480c46999beacd89758538afa89333",
            "simulationEnable": true,
            "sourceTxnHash": "0x6ec0565a45078e11ae2af88ea7801e517e48b8b6a650e7d277040a11e224a984",
            "status": true,
            "timestamp": "2018-04-14T19:33:05Z",
            "transactionFee": "0.000134796662",
            "txnHash": "0x6ec0565a45078e11ae2af88ea7801e517e48b8b6a650e7d277040a11e224a984",
            "txnIndex": 33,
            "type": 0,
            "value": "0"
        },
        "fund_flow": [
            {
                "amount": "15,199.9999999",
                "from": "0x032c324862480c46999beacd89758538afa89333",
                "id": 1,
                "isERC1155": false,
                "isERC721": false,
                "isReverted": false,
                "order": 1,
                "to": "0x05ee546c1a62f90d7acbffd6d846c9c54c7cf94c",
                "token": "0xa5fd1a791c4dfcaacc963d4f73c6ae5824149ea7"
            }
        ],
        "token_infos": [
            {
                "address": "0xa5fd1a791c4dfcaacc963d4f73c6ae5824149ea7",
                "decimals": 18
            },
            {
                "address": "0xc02aaa39b223fe8d0a0e5c4f27ead9083c756cc2",
                "decimals": 18
            },
            {
                "address": "0xeeeeeeeeeeeeeeeeeeeeeeeeeeeeeeeeeeeeeeee",
                "decimals": 18
            }
        ]
    },
    "address_label": {
        "labels": [
            {
                "address": "0xa5fd1a791c4dfcaacc963d4f73c6ae5824149ea7",
                "label": "Jibrel Network: Old JNT Token"
            },
            {
                "address": "0xda25e5b939643a51375eee932aed11b92a9bc003",
                "label": "JNTController"
            },
            {
                "address": "0x0000000000000000000000000000000000000002",
                "label": "Precompiled"
            },
            {
                "address": "0xeeeeeeeeeeeeeeeeeeeeeeeeeeeeeeeeeeeeeeee",
                "label": "Ether"
            },
            {
                "address": "0x032c324862480c46999beacd89758538afa89333",
                "label": "GATE.IO"
            },
            {
                "address": "0xd7f21117ea7f137e12d89b16adbf683f71d72c9c",
                "label": "JNTStorage"
            },
            {
                "address": "0x0000000000000000000000000000000000000001",
                "label": "Precompiled"
            },
            {
                "address": "0x0000000000000000000000000000000000000003",
                "label": "Precompiled"
            },
            {
                "address": "0x0000000000000000000000000000000000000004",
                "label": "Precompiled"
            },
            {
                "address": "0x05ee546c1a62f90d7acbffd6d846c9c54c7cf94c",
                "label": "Gate.io 6"
            }
        ]
    },
    "trace": {
        "accountLabels": null,
        "dataMap": {
            "-1": {
                "invocation": {
                    "address": "0x032c324862480c46999beacd89758538afa89333",
                    "callData": "",
                    "decodedMethod": null,
                    "errorInfo": "",
                    "fromAddress": "",
                    "gasUsed": 0,
                    "id": -1,
                    "methodDecoded": false,
                    "operation": "",
                    "output": "",
                    "revert": false,
                    "revertMessage": "",
                    "selector": "",
                    "status": false,
                    "value": ""
                },
                "nodeType": 0
            },
            "0": {
                "invocation": {
                    "address": "0xa5fd1a791c4dfcaacc963d4f73c6ae5824149ea7",
                    "callData": "0x00000000000000000000000005ee546c1a62f90d7acbffd6d846c9c54c7cf94c000000000000000000000000000000000000000000000337fe5feadb89091800",
                    "decodedMethod": {
                        "callParams": [
                            {
                                "name": "_to",
                                "type": "address",
                                "value": "0x05ee546c1a62f90d7acbffd6d846c9c54c7cf94c"
                            },
                            {
                                "decimalAvailable": true,
                                "name": "_value",
                                "type": "uint256",
                                "value": "15,199,999,999,900,000,000,000"
                            }
                        ],
                        "constructorArguments": "",
                        "name": "transfer",
                        "returnParams": [
                            {
                                "name": "",
                                "type": "bool",
                                "value": true
                            }
                        ],
                        "signature": "transfer(address,uint256)"
                    },
                    "errorInfo": "",
                    "fromAddress": "0x032c324862480c46999beacd89758538afa89333",
                    "gasUsed": 67331,
                    "id": 0,
                    "methodDecoded": true,
                    "operation": "CALL",
                    "output": "0x0000000000000000000000000000000000000000000000000000000000000001",
                    "revert": false,
                    "revertMessage": "",
                    "selector": "0xa9059cbb",
                    "status": true,
                    "value": "0"
                },
                "nodeType": 0
            },
            "1": {
                "invocation": {
                    "address": "0xda25e5b939643a51375eee932aed11b92a9bc003",
                    "callData": "0x000000000000000000000000032c324862480c46999beacd89758538afa8933300000000000000000000000005ee546c1a62f90d7acbffd6d846c9c54c7cf94c000000000000000000000000000000000000000000000337fe5feadb89091800",
                    "decodedMethod": {
                        "callParams": [
                            {
                                "name": "_msgsender",
                                "type": "address",
                                "value": "0x032c324862480c46999beacd89758538afa89333"
                            },
                            {
                                "name": "_to",
                                "type": "address",
                                "value": "0x05ee546c1a62f90d7acbffd6d846c9c54c7cf94c"
                            },
                            {
                                "name": "_value",
                                "type": "uint256",
                                "value": "15,199,999,999,900,000,000,000"
                            }
                        ],
                        "constructorArguments": "",
                        "name": "transfer",
                        "returnParams": [],
                        "signature": "transfer(address,address,uint256)"
                    },
                    "errorInfo": "",
                    "fromAddress": "0xa5fd1a791c4dfcaacc963d4f73c6ae5824149ea7",
                    "gasUsed": 40743,
                    "id": 1,
                    "methodDecoded": true,
                    "operation": "CALL",
                    "output": "",
                    "revert": false,
                    "revertMessage": "",
                    "selector": "0xbeabacc8",
                    "status": true,
                    "value": "0"
                },
                "nodeType": 0
            },
            "2": {
                "invocation": {
                    "address": "0xd7f21117ea7f137e12d89b16adbf683f71d72c9c",
                    "callData": "0x000000000000000000000000032c324862480c46999beacd89758538afa8933300000000000000000000000005ee546c1a62f90d7acbffd6d846c9c54c7cf94c000000000000000000000000000000000000000000000337fe5feadb89091800",
                    "decodedMethod": {
                        "callParams": [
                            {
                                "name": "_msgsender",
                                "type": "address",
                                "value": "0x032c324862480c46999beacd89758538afa89333"
                            },
                            {
                                "name": "_to",
                                "type": "address",
                                "value": "0x05ee546c1a62f90d7acbffd6d846c9c54c7cf94c"
                            },
                            {
                                "name": "_value",
                                "type": "uint256",
                                "value": "15,199,999,999,900,000,000,000"
                            }
                        ],
                        "constructorArguments": "",
                        "name": "transfer",
                        "returnParams": [],
                        "signature": "transfer(address,address,uint256)"
                    },
                    "errorInfo": "",
                    "fromAddress": "0xda25e5b939643a51375eee932aed11b92a9bc003",
                    "gasUsed": 30641,
                    "id": 2,
                    "methodDecoded": true,
                    "operation": "CALL",
                    "output": "",
                    "revert": false,
                    "revertMessage": "",
                    "selector": "0xbeabacc8",
                    "status": true,
                    "value": "0"
                },
                "nodeType": 0
            },
            "3": {
                "event": {
                    "contract": "0xd7f21117ea7f137e12d89b16adbf683f71d72c9c",
                    "decodedLog": {
                        "name": "AccountBalanceDecreasedEvent",
                        "params": [
                            {
                                "name": "account",
                                "type": "address",
                                "value": "0x032c324862480c46999beacd89758538afa89333"
                            },
                            {
                                "name": "value",
                                "type": "uint256",
                                "value": "15,199,999,999,900,000,000,000"
                            }
                        ],
                        "signature": "AccountBalanceDecreasedEvent(address,uint256)"
                    },
                    "id": 3,
                    "logData": "0x000000000000000000000000000000000000000000000337fe5feadb89091800",
                    "logDecoded": true,
                    "operation": "EVENT",
                    "revert": false,
                    "status": true,
                    "topics": [
                        "0x276bbd423424ce251a4cee26b903235278ab7970a230885c80d3a75b05807256",
                        "0x000000000000000000000000032c324862480c46999beacd89758538afa89333"
                    ]
                },
                "nodeType": 1
            },
            "4": {
                "event": {
                    "contract": "0xd7f21117ea7f137e12d89b16adbf683f71d72c9c",
                    "decodedLog": {
                        "name": "AccountBalanceIncreasedEvent",
                        "params": [
                            {
                                "name": "account",
                                "type": "address",
                                "value": "0x05ee546c1a62f90d7acbffd6d846c9c54c7cf94c"
                            },
                            {
                                "name": "value",
                                "type": "uint256",
                                "value": "15,199,999,999,900,000,000,000"
                            }
                        ],
                        "signature": "AccountBalanceIncreasedEvent(address,uint256)"
                    },
                    "id": 4,
                    "logData": "0x000000000000000000000000000000000000000000000337fe5feadb89091800",
                    "logDecoded": true,
                    "operation": "EVENT",
                    "revert": false,
                    "status": true,
                    "topics": [
                        "0x83c6d1dfd5f048a40d7fadd573780e453d8ff8fd61ea222d7e643a3d1c779c2d",
                        "0x00000000000000000000000005ee546c1a62f90d7acbffd6d846c9c54c7cf94c"
                    ]
                },
                "nodeType": 1
            },
            "5": {
                "event": {
                    "contract": "0xd7f21117ea7f137e12d89b16adbf683f71d72c9c",
                    "decodedLog": {
                        "name": "CrydrTransferredEvent",
                        "params": [
                            {
                                "name": "from",
                                "type": "address",
                                "value": "0x032c324862480c46999beacd89758538afa89333"
                            },
                            {
                                "name": "to",
                                "type": "address",
                                "value": "0x05ee546c1a62f90d7acbffd6d846c9c54c7cf94c"
                            },
                            {
                                "name": "value",
                                "type": "uint256",
                                "value": "15,199,999,999,900,000,000,000"
                            }
                        ],
                        "signature": "CrydrTransferredEvent(address,address,uint256)"
                    },
                    "id": 5,
                    "logData": "0x000000000000000000000000000000000000000000000337fe5feadb89091800",
                    "logDecoded": true,
                    "operation": "EVENT",
                    "revert": false,
                    "status": true,
                    "topics": [
                        "0x785f57e51f803d3d6a09af16f87ff848450fc54f2d0b531a2a08117e18a5ff21",
                        "0x000000000000000000000000032c324862480c46999beacd89758538afa89333",
                        "0x00000000000000000000000005ee546c1a62f90d7acbffd6d846c9c54c7cf94c"
                    ]
                },
                "nodeType": 1
            },
            "6": {
                "invocation": {
                    "address": "0xa5fd1a791c4dfcaacc963d4f73c6ae5824149ea7",
                    "callData": "0x000000000000000000000000032c324862480c46999beacd89758538afa8933300000000000000000000000005ee546c1a62f90d7acbffd6d846c9c54c7cf94c000000000000000000000000000000000000000000000337fe5feadb89091800",
                    "decodedMethod": {
                        "callParams": [
                            {
                                "name": "_from",
                                "type": "address",
                                "value": "0x032c324862480c46999beacd89758538afa89333"
                            },
                            {
                                "name": "_to",
                                "type": "address",
                                "value": "0x05ee546c1a62f90d7acbffd6d846c9c54c7cf94c"
                            },
                            {
                                "name": "_value",
                                "type": "uint256",
                                "value": "15,199,999,999,900,000,000,000"
                            }
                        ],
                        "constructorArguments": "",
                        "name": "emitTransferEvent",
                        "returnParams": [],
                        "signature": "emitTransferEvent(address,address,uint256)"
                    },
                    "errorInfo": "",
                    "fromAddress": "0xda25e5b939643a51375eee932aed11b92a9bc003",
                    "gasUsed": 2993,
                    "id": 6,
                    "methodDecoded": true,
                    "operation": "CALL",
                    "output": "",
                    "revert": false,
                    "revertMessage": "",
                    "selector": "0xa6d49dca",
                    "status": true,
                    "value": "0"
                },
                "nodeType": 0
            },
            "7": {
                "event": {
                    "contract": "0xa5fd1a791c4dfcaacc963d4f73c6ae5824149ea7",
                    "decodedLog": {
                        "name": "Transfer",
                        "params": [
                            {
                                "name": "from",
                                "type": "address",
                                "value": "0x032c324862480c46999beacd89758538afa89333"
                            },
                            {
                                "name": "to",
                                "type": "address",
                                "value": "0x05ee546c1a62f90d7acbffd6d846c9c54c7cf94c"
                            },
                            {
                                "decimalAvailable": true,
                                "name": "value",
                                "type": "uint256",
                                "value": "15,199,999,999,900,000,000,000"
                            }
                        ],
                        "signature": "Transfer(address,address,uint256)"
                    },
                    "id": 7,
                    "logData": "0x000000000000000000000000000000000000000000000337fe5feadb89091800",
                    "logDecoded": true,
                    "operation": "EVENT",
                    "revert": false,
                    "status": true,
                    "topics": [
                        "0xddf252ad1be2c89b69c2b068fc378daa952ba7f163c4a11628f55a4df523b3ef",
                        "0x000000000000000000000000032c324862480c46999beacd89758538afa89333",
                        "0x00000000000000000000000005ee546c1a62f90d7acbffd6d846c9c54c7cf94c"
                    ]
                },
                "nodeType": 1
            }
        },
        "gasFlame": [
            {
                "children": [
                    {
                        "children": [
                            {
                                "children": [],
                                "depth": 0,
                                "name": "Initial Gas",
                                "value": 23384
                            },
                            {
                                "children": [
                                    {
                                        "children": [
                                            {
                                                "children": [],
                                                "depth": 2,
                                                "name": "transfer",
                                                "value": 30641
                                            },
                                            {
                                                "children": [],
                                                "depth": 2,
                                                "name": "emitTransferEvent",
                                                "value": 2993
                                            }
                                        ],
                                        "depth": 1,
                                        "name": "transfer",
                                        "value": 40743
                                    }
                                ],
                                "depth": 0,
                                "name": "Executed Gas",
                                "value": 43947
                            }
                        ],
                        "depth": -1,
                        "name": "Actual Gas Used",
                        "value": 67331
                    },
                    {
                        "children": [],
                        "depth": -1,
                        "name": "Refunded Gas",
                        "value": 0
                    }
                ],
                "depth": -2,
                "name": "Total Gas",
                "value": 67331
            }
        ],
        "isConfirmed": true,
        "mainTrace": [
            {
                "children": [
                    {
                        "children": [
                            {
                                "children": [
                                    {
                                        "children": [
                                            {
                                                "children": [],
                                                "depth": 3,
                                                "id": 3,
                                                "order": 3
                                            },
                                            {
                                                "children": [],
                                                "depth": 3,
                                                "id": 4,
                                                "order": 4
                                            },
                                            {
                                                "children": [],
                                                "depth": 3,
                                                "id": 5,
                                                "order": 5
                                            }
                                        ],
                                        "depth": 2,
                                        "id": 2,
                                        "order": 2
                                    },
                                    {
                                        "children": [
                                            {
                                                "children": [],
                                                "depth": 3,
                                                "id": 7,
                                                "order": 7
                                            }
                                        ],
                                        "depth": 2,
                                        "id": 6,
                                        "order": 6
                                    }
                                ],
                                "depth": 1,
                                "id": 1,
                                "order": 1
                            }
                        ],
                        "depth": 0,
                        "id": 0,
                        "order": 0
                    }
                ],
                "depth": -1,
                "id": -1,
                "order": -1
            }
        ],
        "mainTraceNodeCount": 8,
        "parentIdMap": {
            "0": -1,
            "1": 0,
            "2": 1,
            "3": 2,
            "4": 2,
            "5": 2,
            "6": 1,
            "7": 6
        },
        "tidyTrace": [
            {
                "children": [
                    {
                        "children": [
                            {
                                "children": [
                                    {
                                        "children": [
                                            {
                                                "children": [],
                                                "depth": 3,
                                                "id": 3,
                                                "order": 3
                                            },
                                            {
                                                "children": [],
                                                "depth": 3,
                                                "id": 4,
                                                "order": 4
                                            },
                                            {
                                                "children": [],
                                                "depth": 3,
                                                "id": 5,
                                                "order": 5
                                            }
                                        ],
                                        "depth": 2,
                                        "id": 2,
                                        "order": 2
                                    },
                                    {
                                        "children": [
                                            {
                                                "children": [],
                                                "depth": 3,
                                                "id": 7,
                                                "order": 7
                                            }
                                        ],
                                        "depth": 2,
                                        "id": 6,
                                        "order": 6
                                    }
                                ],
                                "depth": 1,
                                "id": 1,
                                "order": 1
                            }
                        ],
                        "depth": 0,
                        "id": 0,
                        "order": 0
                    }
                ],
                "depth": -1,
                "id": -1,
                "order": -1
            }
        ],
        "tidyTraceNodeCount": 8
    },
    "state_change": {
        "stateChanges": [
            {
                "address": "0xd7f21117ea7f137e12d89b16adbf683f71d72c9c",
                "erc": "",
                "slots": [
                    {
                        "current": "0x000000000000000000000000000000000000000000000000000000174876e800",
                        "key": "0xd24022deb2fed82b97e3c7118c4663e0a3706108bdd4c39718248654ca57508b",
                        "prev": "0x000000000000000000000000000000000000000000000337fe5feaf2d1800000"
                    },
                    {
                        "current": "0x0000000000000000000000000000000000000000000ec2cd956eb725ffe91e00",
                        "key": "0xcaf7410b440570ae9c36634d2b14799592d1f1d50e2f81a49c179b476bcbdda5",
                        "prev": "0x0000000000000000000000000000000000000000000ebf95970ecc4a76e00600"
                    }
                ],
                "storageVariables": [
                    {
                        "name": "balances",
                        "type": "mapping(address => uint256)",
                        "value": {
                            "pairs": [
                                {
                                    "key": "0x032c324862480c46999beacd89758538afa89333",
                                    "value": {
                                        "current": "100000000000",
                                        "prev": "15200000000000000000000",
                                        "typeTag": 1
                                    }
                                },
                                {
                                    "key": "0x05ee546c1a62f90d7acbffd6d846c9c54c7cf94c",
                                    "value": {
                                        "current": "17844892922561763000000000",
                                        "prev": "17829692922561863000000000",
                                        "typeTag": 1
                                    }
                                }
                            ],
                            "typeTag": 4
                        }
                    }
                ]
            }
        ]
    }
}