{
    "balance_change": {
        "balanceChanges": [
            {
                "account": "0x0f5354a17cdeb92c9168723fca090a1265e43b12",
                "assets": [
                    {
                        "address": "0x2fb5d7dda4f1f20f974a0fdd547c38674e8d940c",
                        "amount": "1",
                        "iconUrl": "",
                        "isERC1155": false,
                        "isERC721": true,
                        "sign": false,
                        "tokenID": "30275",
                        "value": ""
                    }
                ]
            },
            {
                "account": "0x0000000000000000000000000000000000000000",
                "assets": [
                    {
                        "address": "0x2fb5d7dda4f1f20f974a0fdd547c38674e8d940c",
                        "amount": "1",
                        "iconUrl": "",
                        "isERC1155": false,
                        "isERC721": true,
                        "sign": true,
                        "tokenID": "30275",
                        "value": ""
                    }
                ]
            }
        ]
    },
    "profile": {
        "basic_info": {
            "baseFee": "",
            "blockNumber": 9653005,
            "callData": "0x42966c680000000000000000000000000000000000000000000000000000000000007643",
            "debugEnable": true,
            "errorInfo": "",
            "eventCount": 1,
            "feeRecipient": "0xea674fdde714fd979de3edf0f56aa9716b898ec8",
            "formatValue": "0",
            "gasLimit": 136665,
            "gasPrice": "5",
            "gasUsed": 46134,
            "intTxnCount": 0,
            "internalRevert": false,
            "internalRevertMessage": "",
            "isContractCreation": false,
            "isFlashloan": false,
            "maxFee": "",
            "nonce": 513,
            "overwritedBlockNumber": -1,
            "priorityFee": "",
            "receiver": "0x2fb5d7dda4f1f20f974a0fdd547c38674e8d940c",
            "revertMessage": "",
            "sender": "0x0f5354a17cdeb92c9168723fca090a1265e43b12",
            "simulationEnable": true,
            "sourceTxnHash": "0x6ecf9fbd90c6ce2db14be1a646ccbf0ae0e469ad684d0d7943fa66e6ac50c9f3",
            "status": true,
            "timestamp": "2020-03-11T22:40:35Z",
            "transactionFee": "0.00023067",
            "txnHash": "0x6ecf9fbd90c6ce2db14be1a646ccbf0ae0e469ad684d0d7943fa66e6ac50c9f3",
            "txnIndex": 11,
            "type": 0,
            "value": "0"
        },
        "fund_flow": [
            {
                "amount": "1",
                "from": "0x0f5354a17cdeb92c9168723fca090a1265e43b12",
                "id": 1,
                "isERC1155": false,
                "isERC721": true,
                "isReverted": false,
                "order": 1,
                "to": "0x0000000000000000000000000000000000000000",
                "token": "0x2fb5d7dda4f1f20f974a0fdd547c38674e8d940c",
                "tokenID": "30275"
            }
        ],
        "token_infos": [
            {
                "address": "0xc02aaa39b223fe8d0a0e5c4f27ead9083c756cc2",
                "decimals": 18
            },
            {
                "address": "0xeeeeeeeeeeeeeeeeeeeeeeeeeeeeeeeeeeeeeeee",
                "decimals": 18
            }
        ]
    },
    "address_label": {
        "labels": [
            {
                "address": "0x0000000000000000000000000000000000000004",
                "label": "Precompiled"
            },
            {
                "address": "0xeeeeeeeeeeeeeeeeeeeeeeeeeeeeeeeeeeeeeeee",
                "label": "Ether"
            },
            {
                "address": "0x2fb5d7dda4f1f20f974a0fdd547c38674e8d940c",
                "label": "KnightStory: MyKI Token"
            },
            {
                "address": "0x0000000000000000000000000000000000000001",
                "label": "Precompiled"
            },
            {
                "address": "0x0000000000000000000000000000000000000002",
                "label": "Precompiled"
            },
            {
                "address": "0x0000000000000000000000000000000000000003",
                "label": "Precompiled"
            }
        ]
    },
    "trace": {
        "accountLabels": null,
        "dataMap": {
            "-1": {
                "invocation": {
                    "address": "0x0f5354a17cdeb92c9168723fca090a1265e43b12",
                    "callData": "",
                    "decodedMethod": null,
                    "errorInfo": "",
                    "fromAddress": "",
                    "gasUsed": 0,
                    "id": -1,
                    "methodDecoded": false,
                    "operation": "",
                    "output": "",
                    "revert": false,
                    "revertMessage": "",
                    "selector": "",
                    "status": false,
                    "value": ""
                },
                "nodeType": 0
            },
            "0": {
                "invocation": {
                    "address": "0x2fb5d7dda4f1f20f974a0fdd547c38674e8d940c",
                    "callData": "0x0000000000000000000000000000000000000000000000000000000000007643",
                    "decodedMethod": {
                        "callParams": [
                            {
                                "name": "amount",
                                "type": "uint256",
                                "value": "30,275"
                            }
                        ],
                        "constructorArguments": "",
                        "name": "burn",
                        "returnParams": [],
                        "signature": "burn(uint256)"
                    },
                    "errorInfo": "",
                    "fromAddress": "0x0f5354a17cdeb92c9168723fca090a1265e43b12",
                    "gasUsed": 46134,
                    "id": 0,
                    "methodDecoded": true,
                    "operation": "CALL",
                    "output": "",
                    "revert": false,
                    "revertMessage": "",
                    "selector": "0x42966c68",
                    "status": true,
                    "value": "0"
                },
                "nodeType": 0
            },
            "1": {
                "event": {
                    "contract": "0x2fb5d7dda4f1f20f974a0fdd547c38674e8d940c",
                    "decodedLog": {
                        "name": "Transfer",
                        "params": [
                            {
                                "name": "from",
                                "type": "address",
                                "value": "0x0f5354a17cdeb92c9168723fca090a1265e43b12"
                            },
                            {
                                "name": "to",
                                "type": "address",
                                "value": "0x0000000000000000000000000000000000000000"
                            },
                            {
                                "decimalAvailable": true,
                                "name": "tokenId",
                                "type": "uint256",
                                "value": "30,275"
                            }
                        ],
                        "signature": "Transfer(address,address,uint256)"
                    },
                    "id": 1,
                    "logData": "0x",
                    "logDecoded": true,
                    "operation": "EVENT",
                    "revert": false,
                    "status": true,
                    "topics": [
                        "0xddf252ad1be2c89b69c2b068fc378daa952ba7f163c4a11628f55a4df523b3ef",
                        "0x0000000000000000000000000f5354a17cdeb92c9168723fca090a1265e43b12",
                        "0x0000000000000000000000000000000000000000000000000000000000000000",
                        "0x0000000000000000000000000000000000000000000000000000000000007643"
                    ]
                },
                "nodeType": 1
            }
        },
        "gasFlame": [
            {
                "children": [
                    {
                        "children": [
                            {
                                "children": [],
                                "depth": 0,
                                "name": "Initial Gas",
                                "value": 21216
                            },
                            {
                                "children": [],
                                "depth": 0,
                                "name": "Executed Gas",
                                "value": 71052
                            }
                        ],
                        "depth": -1,
                        "name": "Actual Gas Used",
                        "value": 46134
                    },
                    {
                        "children": [],
                        "depth": -1,
                        "name": "Refunded Gas",
                        "value": 46134
                    }
                ],
                "depth": -2,
                "name": "Total Gas",
                "value": 92268
            }
        ],
        "isConfirmed": true,
        "mainTrace": [
            {
                "children": [
                    {
                        "children": [
                            {
                                "children": [],
                                "depth": 1,
                                "id": 1,
                                "order": 1
                            }
                        ],
                        "depth": 0,
                        "id": 0,
                        "order": 0
                    }
                ],
                "depth": -1,
                "id": -1,
                "order": -1
            }
        ],
        "mainTraceNodeCount": 2,
        "parentIdMap": {
            "0": -1,
            "1": 0
        },
        "tidyTrace": [
            {
                "children": [
                    {
                        "children": [
                            {
                                "children": [],
                                "depth": 1,
                                "id": 1,
                                "order": 1
                            }
                        ],
                        "depth": 0,
                        "id": 0,
                        "order": 0
                    }
                ],
                "depth": -1,
                "id": -1,
                "order": -1
            }
        ],
        "tidyTraceNodeCount": 2
    },
    "state_change": {
        "stateChanges": [
            {
                "address": "0x2fb5d7dda4f1f20f974a0fdd547c38674e8d940c",
                "erc": "",
                "slots": [
                    {
                        "current": "0x0000000000000000000000000000000000000000000000000000000000000000",
                        "key": "0x3abfe468c0ce89bbffc8f5dcb2c4f3c23dba148bb6618c9106d5c69c92e6d391",
                        "prev": "0x0000000000000000000000000000000000000000000000000000000000001886"
                    },
                    {
                        "current": "0x0000000000000000000000000000000000000000000000000000000000000000",
                        "key": "0x4dfba4f8fe897941a28f4a73336a171fc3aefcea88e5c92784478a020a4b1336",
                        "prev": "0x0000000000000000000000000f5354a17cdeb92c9168723fca090a1265e43b12"
                    },
                    {
                        "current": "0x0000000000000000000000000000000000000000000000000000000000000000",
                        "key": "0xcec5c15ebbc69f3e610442970aa5061d5bcb111f5a9a89572555167d4ab88fa4",
                        "prev": "0x0000000000000000000000000000000000000000000000000000000000000006"
                    },
                    {
                        "current": "0x0000000000000000000000000000000000000000000000000000000000000000",
                        "key": "0xa66cc928b5edb82af9bd49922954155ab7b0942694bea4ce44661d9a8736f1a9",
                        "prev": "0x000000000000000000000000000000000000000000000000000000000000789d"
                    },
                    {
                        "current": "0x0000000000000000000000000000000000000000000000000000000000001886",
                        "key": "0xee131b86a082f4ac70a4805a5fd4ac49fff4a64bcd5ea64f5df4bfca562309d4",
                        "prev": "0x0000000000000000000000000000000000000000000000000000000000002b21"
                    },
                    {
                        "current": "0x0000000000000000000000000000000000000000000000000000000000002b21",
                        "key": "0x0000000000000000000000000000000000000000000000000000000000000007",
                        "prev": "0x0000000000000000000000000000000000000000000000000000000000002b22"
                    },
                    {
                        "current": "0x0000000000000000000000000000000000000000000000000000000000000006",
                        "key": "0xf49321b9eb8ecc626f5794c938e5ce7baebbcd737da313fdf8afe6ae787f444c",
                        "prev": "0x0000000000000000000000000000000000000000000000000000000000000007"
                    },
                    {
                        "current": "0x000000000000000000000000000000000000000000000000000000000000789d",
                        "key": "0xa66cc928b5edb82af9bd49922954155ab7b0942694bea4ce44661d9a8736df0e",
                        "prev": "0x0000000000000000000000000000000000000000000000000000000000007643"
                    },
                    {
                        "current": "0x0000000000000000000000000000000000000000000000000000000000000006",
                        "key": "0x01d733ae39fff4e39a18cade0f6b11831e5d072a2196da24bb0a4b84ef3533c5",
                        "prev": "0x0000000000000000000000000000000000000000000000000000000000000007"
                    },
                    {
                        "current": "0x0000000000000000000000000000000000000000000000000000000000000000",
                        "key": "0xbeb5bff5794ad909f041d06cc7e97d311d1723d36cebaf31c83eb2d4e6de7f04",
                        "prev": "0x0000000000000000000000000000000000000000000000000000000000007643"
                    }
                ],
                "storageVariables": []
            }
        ]
    }
}