{
    "balance_change": {
        "balanceChanges": [
            {
                "account": "0x671a1fe7ef28acfb722ccedf6881df4254d44877",
                "assets": [
                    {
                        "address": "0x68df6bc1df2bdfa09bb49528718106e547efe39a",
                        "amount": "1",
                        "iconUrl": "",
                        "isERC1155": true,
                        "isERC721": false,
                        "sign": true,
                        "tokenID": "1",
                        "value": ""
                    },
                    {
                        "address": "0x68df6bc1df2bdfa09bb49528718106e547efe39a",
                        "amount": "1",
                        "iconUrl": "",
                        "isERC1155": true,
                        "isERC721": false,
                        "sign": true,
                        "tokenID": "2",
                        "value": ""
                    },
                    {
                        "address": "0x4d648c35212273d638a5e602ab1177bb75ad7946",
                        "amount": "600",
                        "iconUrl": "",
                        "isERC1155": false,
                        "isERC721": false,
                        "sign": false,
                        "value": ""
                    }
                ]
            },
            {
                "account": "0x0000000000000000000000000000000000000000",
                "assets": [
                    {
                        "address": "0x68df6bc1df2bdfa09bb49528718106e547efe39a",
                        "amount": "1",
                        "iconUrl": "",
                        "isERC1155": true,
                        "isERC721": false,
                        "sign": false,
                        "tokenID": "2",
                        "value": ""
                    },
                    {
                        "address": "0x68df6bc1df2bdfa09bb49528718106e547efe39a",
                        "amount": "1",
                        "iconUrl": "",
                        "isERC1155": true,
                        "isERC721": false,
                        "sign": false,
                        "tokenID": "1",
                        "value": ""
                    }
                ]
            },
            {
                "account": "0x8e5f332a0662c8c06bdd1eed105ba1c4800d4c2f",
                "assets": [
                    {
                        "address": "0x4d648c35212273d638a5e602ab1177bb75ad7946",
                        "amount": "600",
                        "iconUrl": "",
                        "isERC1155": false,
                        "isERC721": false,
                        "sign": true,
                        "value": ""
                    }
                ]
            }
        ]
    },
    "profile": {
        "basic_info": {
            "baseFee": "67.413729382",
            "blockNumber": 14854958,
            "callData": "0x8295c0a90000000000000000000000000000000000000000000000000000000000000080ddcf369c9b607243c32e791d9ecb886440562d1666dd88890ea342899e2137e900000000000000000000000000000000000000000000002086ac351052600000000000000000000000000000000000000000000000000000000000000000010000000000000000000000000000000000000000000000000000000000000000416d0100e589db00173852f70133fbb0137b918c915aff55921dcd922c57e2b42e280699f23c7378ca9a3c541fccd29e5ef2921581ee148153e7010e0ab5cb0adf1b00000000000000000000000000000000000000000000000000000000000000000000000000000000000000000000000000000000000000000000000000000200000000000000000000000000000000000000000000000000000000000003200000000000000000000000000000000000000000000000000000000000000f0b",
            "debugEnable": true,
            "errorInfo": "",
            "eventCount": 3,
            "feeRecipient": "0x5b310960a7922092fdcb9295ece336012f9cf87e",
            "formatValue": "0",
            "gasLimit": 205215,
            "gasPrice": "68.913729382",
            "gasUsed": 193586,
            "intTxnCount": 6,
            "internalRevert": false,
            "internalRevertMessage": "",
            "isContractCreation": false,
            "isFlashloan": false,
            "maxFee": "82.403517146",
            "nonce": 170,
            "overwritedBlockNumber": -1,
            "priorityFee": "1.5",
            "receiver": "0x68df6bc1df2bdfa09bb49528718106e547efe39a",
            "revertMessage": "",
            "sender": "0x671a1fe7ef28acfb722ccedf6881df4254d44877",
            "simulationEnable": true,
            "sourceTxnHash": "0x6e614cabc29d6db85e475425ab485cb72556e8fbd68a89ca35b24af0d3150b5b",
            "status": true,
            "timestamp": "2022-05-27T15:41:47Z",
            "transactionFee": "0.013340733216143852",
            "txnHash": "0x6e614cabc29d6db85e475425ab485cb72556e8fbd68a89ca35b24af0d3150b5b",
            "txnIndex": 238,
            "type": 2,
            "value": "0"
        },
        "fund_flow": [
            {
                "amount": "600",
                "from": "0x671a1fe7ef28acfb722ccedf6881df4254d44877",
                "id": 1,
                "isERC1155": false,
                "isERC721": false,
                "isReverted": false,
                "order": 1,
                "to": "0x8e5f332a0662c8c06bdd1eed105ba1c4800d4c2f",
                "token": "0x4d648c35212273d638a5e602ab1177bb75ad7946"
            },
            {
                "amount": "1",
                "from": "0x0000000000000000000000000000000000000000",
                "id": 2,
                "isERC1155": true,
                "isERC721": false,
                "isReverted": false,
                "order": 2,
                "to": "0x671a1fe7ef28acfb722ccedf6881df4254d44877",
                "token": "0x68df6bc1df2bdfa09bb49528718106e547efe39a",
                "tokenID": "1"
            },
            {
                "amount": "1",
                "from": "0x0000000000000000000000000000000000000000",
                "id": 3,
                "isERC1155": true,
                "isERC721": false,
                "isReverted": false,
                "order": 3,
                "to": "0x671a1fe7ef28acfb722ccedf6881df4254d44877",
                "token": "0x68df6bc1df2bdfa09bb49528718106e547efe39a",
                "tokenID": "2"
            }
        ],
        "token_infos": [
            {
                "address": "0xc02aaa39b223fe8d0a0e5c4f27ead9083c756cc2",
                "decimals": 18
            },
            {
                "address": "0xeeeeeeeeeeeeeeeeeeeeeeeeeeeeeeeeeeeeeeee",
                "decimals": 18
            },
            {
                "address": "0x4d648c35212273d638a5e602ab1177bb75ad7946",
                "decimals": 18
            }
        ]
    },
    "address_label": {
        "labels": [
            {
                "address": "0x4d648c35212273d638a5e602ab1177bb75ad7946",
                "label": "Jungle (JUNGLE)"
            },
            {
                "address": "0x0000000000000000000000000000000000000000",
                "label": "Null Address"
            },
            {
                "address": "0x0000000000000000000000000000000000000001",
                "label": "Precompiled"
            },
            {
                "address": "0x0000000000000000000000000000000000000002",
                "label": "Precompiled"
            },
            {
                "address": "0x0000000000000000000000000000000000000004",
                "label": "Precompiled"
            },
            {
                "address": "0xeeeeeeeeeeeeeeeeeeeeeeeeeeeeeeeeeeeeeeee",
                "label": "Ether"
            },
            {
                "address": "0x8e5f332a0662c8c06bdd1eed105ba1c4800d4c2f",
                "label": "Jungle Freaks: Deployer"
            },
            {
                "address": "0x68df6bc1df2bdfa09bb49528718106e547efe39a",
                "label": "Fallout Crystal: FCR Token"
            },
            {
                "address": "0x7e6bc952d4b4bd814853301bee48e99891424de0",
                "label": "Jungle Freaks: JFRK Token"
            },
            {
                "address": "0x0000000000000000000000000000000000000003",
                "label": "Precompiled"
            }
        ]
    },
    "trace": {
        "accountLabels": null,
        "dataMap": {
            "-1": {
                "invocation": {
                    "address": "0x671a1fe7ef28acfb722ccedf6881df4254d44877",
                    "callData": "",
                    "decodedMethod": null,
                    "errorInfo": "",
                    "fromAddress": "",
                    "gasUsed": 0,
                    "id": -1,
                    "methodDecoded": false,
                    "operation": "",
                    "output": "",
                    "revert": false,
                    "revertMessage": "",
                    "selector": "",
                    "status": false,
                    "value": ""
                },
                "nodeType": 0
            },
            "0": {
                "invocation": {
                    "address": "0x68df6bc1df2bdfa09bb49528718106e547efe39a",
                    "callData": "0x0000000000000000000000000000000000000000000000000000000000000080ddcf369c9b607243c32e791d9ecb886440562d1666dd88890ea342899e2137e900000000000000000000000000000000000000000000002086ac351052600000000000000000000000000000000000000000000000000000000000000000010000000000000000000000000000000000000000000000000000000000000000416d0100e589db00173852f70133fbb0137b918c915aff55921dcd922c57e2b42e280699f23c7378ca9a3c541fccd29e5ef2921581ee148153e7010e0ab5cb0adf1b00000000000000000000000000000000000000000000000000000000000000000000000000000000000000000000000000000000000000000000000000000200000000000000000000000000000000000000000000000000000000000003200000000000000000000000000000000000000000000000000000000000000f0b",
                    "decodedMethod": {
                        "callParams": [
                            {
                                "name": "signature_",
                                "type": "bytes",
                                "value": "0x6d0100e589db00173852f70133fbb0137b918c915aff55921dcd922c57e2b42e280699f23c7378ca9a3c541fccd29e5ef2921581ee148153e7010e0ab5cb0adf1b"
                            },
                            {
                                "name": "salt_",
                                "type": "bytes32",
                                "value": "0xddcf369c9b607243c32e791d9ecb886440562d1666dd88890ea342899e2137e9"
                            },
                            {
                                "name": "jungle_",
                                "type": "uint256",
                                "value": "600,000,000,000,000,000,000"
                            },
                            {
                                "name": "jfgIds_",
                                "type": "uint256[]",
                                "value": [
                                    "800",
                                    "3,851"
                                ]
                            }
                        ],
                        "constructorArguments": "",
                        "name": "phase1Mint",
                        "returnParams": [],
                        "signature": "phase1Mint(bytes,bytes32,uint256,uint256[])"
                    },
                    "errorInfo": "",
                    "fromAddress": "0x671a1fe7ef28acfb722ccedf6881df4254d44877",
                    "gasUsed": 193586,
                    "id": 0,
                    "methodDecoded": true,
                    "operation": "CALL",
                    "output": "",
                    "revert": false,
                    "revertMessage": "",
                    "selector": "0x8295c0a9",
                    "status": true,
                    "value": "0"
                },
                "nodeType": 0
            },
            "1": {
                "invocation": {
                    "address": "0x0000000000000000000000000000000000000001",
                    "callData": "0xb1ea4d6bf361c4dbdfe570c4a2e40794c3e6cbab0247ef873178def3000000000000000000000000000000000000000000000000000000000000001b6d0100e589db00173852f70133fbb0137b918c915aff55921dcd922c57e2b42e280699f23c7378ca9a3c541fccd29e5ef2921581ee148153e7010e0ab5cb0adf",
                    "decodedMethod": {
                        "callParams": [
                            {
                                "name": "hash",
                                "type": "bytes32",
                                "value": "0xb011894eb1ea4d6bf361c4dbdfe570c4a2e40794c3e6cbab0247ef873178def3"
                            },
                            {
                                "name": "v",
                                "type": "uint256",
                                "value": "27"
                            },
                            {
                                "name": "r",
                                "type": "bytes32",
                                "value": "0x6d0100e589db00173852f70133fbb0137b918c915aff55921dcd922c57e2b42e"
                            },
                            {
                                "name": "s",
                                "type": "bytes32",
                                "value": "0x280699f23c7378ca9a3c541fccd29e5ef2921581ee148153e7010e0ab5cb0adf"
                            }
                        ],
                        "constructorArguments": "",
                        "name": "ecrecover",
                        "returnParams": [
                            {
                                "name": "",
                                "type": "address",
                                "value": "0xd497c27c285e9d32ca316e8d9b4ccd735dee4c15"
                            }
                        ],
                        "signature": "ecrecover(bytes32,uint256,bytes32,bytes32)"
                    },
                    "errorInfo": "",
                    "fromAddress": "0x68df6bc1df2bdfa09bb49528718106e547efe39a",
                    "gasUsed": 3000,
                    "id": 1,
                    "methodDecoded": true,
                    "operation": "STATICCALL",
                    "output": "0x000000000000000000000000d497c27c285e9d32ca316e8d9b4ccd735dee4c15",
                    "revert": false,
                    "revertMessage": "",
                    "selector": "0xb011894e",
                    "status": true,
                    "value": "0"
                },
                "nodeType": 0
            },
            "2": {
                "invocation": {
                    "address": "0x4d648c35212273d638a5e602ab1177bb75ad7946",
                    "callData": "0x0000000000000000000000000000000000000000000000000000000000000320",
                    "decodedMethod": {
                        "callParams": [
                            {
                                "name": "tokenId",
                                "type": "uint256",
                                "value": "800"
                            }
                        ],
                        "constructorArguments": "",
                        "name": "getStaker",
                        "returnParams": [
                            {
                                "name": "",
                                "type": "address",
                                "value": "0x671a1fe7ef28acfb722ccedf6881df4254d44877"
                            }
                        ],
                        "signature": "getStaker(uint256)"
                    },
                    "errorInfo": "",
                    "fromAddress": "0x68df6bc1df2bdfa09bb49528718106e547efe39a",
                    "gasUsed": 2953,
                    "id": 2,
                    "methodDecoded": true,
                    "operation": "STATICCALL",
                    "output": "0x000000000000000000000000671a1fe7ef28acfb722ccedf6881df4254d44877",
                    "revert": false,
                    "revertMessage": "",
                    "selector": "0xe3c998fe",
                    "status": true,
                    "value": "0"
                },
                "nodeType": 0
            },
            "3": {
                "invocation": {
                    "address": "0x7e6bc952d4b4bd814853301bee48e99891424de0",
                    "callData": "0x0000000000000000000000000000000000000000000000000000000000000320",
                    "decodedMethod": {
                        "callParams": [
                            {
                                "name": "tokenId",
                                "type": "uint256",
                                "value": "800"
                            }
                        ],
                        "constructorArguments": "",
                        "name": "ownerOf",
                        "returnParams": [
                            {
                                "name": "",
                                "type": "address",
                                "value": "0x4d648c35212273d638a5e602ab1177bb75ad7946"
                            }
                        ],
                        "signature": "ownerOf(uint256)"
                    },
                    "errorInfo": "",
                    "fromAddress": "0x68df6bc1df2bdfa09bb49528718106e547efe39a",
                    "gasUsed": 2602,
                    "id": 3,
                    "methodDecoded": true,
                    "operation": "STATICCALL",
                    "output": "0x0000000000000000000000004d648c35212273d638a5e602ab1177bb75ad7946",
                    "revert": false,
                    "revertMessage": "",
                    "selector": "0x6352211e",
                    "status": true,
                    "value": "0"
                },
                "nodeType": 0
            },
            "4": {
                "invocation": {
                    "address": "0x4d648c35212273d638a5e602ab1177bb75ad7946",
                    "callData": "0x0000000000000000000000000000000000000000000000000000000000000f0b",
                    "decodedMethod": {
                        "callParams": [
                            {
                                "name": "tokenId",
                                "type": "uint256",
                                "value": "3,851"
                            }
                        ],
                        "constructorArguments": "",
                        "name": "getStaker",
                        "returnParams": [
                            {
                                "name": "",
                                "type": "address",
                                "value": "0x0000000000000000000000000000000000000000"
                            }
                        ],
                        "signature": "getStaker(uint256)"
                    },
                    "errorInfo": "",
                    "fromAddress": "0x68df6bc1df2bdfa09bb49528718106e547efe39a",
                    "gasUsed": 2953,
                    "id": 4,
                    "methodDecoded": true,
                    "operation": "STATICCALL",
                    "output": "0x0000000000000000000000000000000000000000000000000000000000000000",
                    "revert": false,
                    "revertMessage": "",
                    "selector": "0xe3c998fe",
                    "status": true,
                    "value": "0"
                },
                "nodeType": 0
            },
            "5": {
                "invocation": {
                    "address": "0x7e6bc952d4b4bd814853301bee48e99891424de0",
                    "callData": "0x0000000000000000000000000000000000000000000000000000000000000f0b",
                    "decodedMethod": {
                        "callParams": [
                            {
                                "name": "tokenId",
                                "type": "uint256",
                                "value": "3,851"
                            }
                        ],
                        "constructorArguments": "",
                        "name": "ownerOf",
                        "returnParams": [
                            {
                                "name": "",
                                "type": "address",
                                "value": "0x671a1fe7ef28acfb722ccedf6881df4254d44877"
                            }
                        ],
                        "signature": "ownerOf(uint256)"
                    },
                    "errorInfo": "",
                    "fromAddress": "0x68df6bc1df2bdfa09bb49528718106e547efe39a",
                    "gasUsed": 2602,
                    "id": 5,
                    "methodDecoded": true,
                    "operation": "STATICCALL",
                    "output": "0x000000000000000000000000671a1fe7ef28acfb722ccedf6881df4254d44877",
                    "revert": false,
                    "revertMessage": "",
                    "selector": "0x6352211e",
                    "status": true,
                    "value": "0"
                },
                "nodeType": 0
            },
            "6": {
                "invocation": {
                    "address": "0x4d648c35212273d638a5e602ab1177bb75ad7946",
                    "callData": "0x000000000000000000000000671a1fe7ef28acfb722ccedf6881df4254d448770000000000000000000000008e5f332a0662c8c06bdd1eed105ba1c4800d4c2f00000000000000000000000000000000000000000000002086ac351052600000",
                    "decodedMethod": {
                        "callParams": [
                            {
                                "name": "sender",
                                "type": "address",
                                "value": "0x671a1fe7ef28acfb722ccedf6881df4254d44877"
                            },
                            {
                                "name": "recipient",
                                "type": "address",
                                "value": "0x8e5f332a0662c8c06bdd1eed105ba1c4800d4c2f"
                            },
                            {
                                "decimalAvailable": true,
                                "name": "amount",
                                "type": "uint256",
                                "value": "600,000,000,000,000,000,000"
                            }
                        ],
                        "constructorArguments": "",
                        "name": "transferFrom",
                        "returnParams": [
                            {
                                "name": "",
                                "type": "bool",
                                "value": true
                            }
                        ],
                        "signature": "transferFrom(address,address,uint256)"
                    },
                    "errorInfo": "",
                    "fromAddress": "0x68df6bc1df2bdfa09bb49528718106e547efe39a",
                    "gasUsed": 16143,
                    "id": 6,
                    "methodDecoded": true,
                    "operation": "CALL",
                    "output": "0x0000000000000000000000000000000000000000000000000000000000000001",
                    "revert": false,
                    "revertMessage": "",
                    "selector": "0x23b872dd",
                    "status": true,
                    "value": "0"
                },
                "nodeType": 0
            },
            "7": {
                "event": {
                    "contract": "0x4d648c35212273d638a5e602ab1177bb75ad7946",
                    "decodedLog": {
                        "name": "Transfer",
                        "params": [
                            {
                                "name": "from",
                                "type": "address",
                                "value": "0x671a1fe7ef28acfb722ccedf6881df4254d44877"
                            },
                            {
                                "name": "to",
                                "type": "address",
                                "value": "0x8e5f332a0662c8c06bdd1eed105ba1c4800d4c2f"
                            },
                            {
                                "decimalAvailable": true,
                                "name": "value",
                                "type": "uint256",
                                "value": "600,000,000,000,000,000,000"
                            }
                        ],
                        "signature": "Transfer(address,address,uint256)"
                    },
                    "id": 7,
                    "logData": "0x00000000000000000000000000000000000000000000002086ac351052600000",
                    "logDecoded": true,
                    "operation": "EVENT",
                    "revert": false,
                    "status": true,
                    "topics": [
                        "0xddf252ad1be2c89b69c2b068fc378daa952ba7f163c4a11628f55a4df523b3ef",
                        "0x000000000000000000000000671a1fe7ef28acfb722ccedf6881df4254d44877",
                        "0x0000000000000000000000008e5f332a0662c8c06bdd1eed105ba1c4800d4c2f"
                    ]
                },
                "nodeType": 1
            },
            "8": {
                "event": {
                    "contract": "0x68df6bc1df2bdfa09bb49528718106e547efe39a",
                    "decodedLog": {
                        "name": "TransferSingle",
                        "params": [
                            {
                                "name": "operator",
                                "type": "address",
                                "value": "0x671a1fe7ef28acfb722ccedf6881df4254d44877"
                            },
                            {
                                "name": "from",
                                "type": "address",
                                "value": "0x0000000000000000000000000000000000000000"
                            },
                            {
                                "name": "to",
                                "type": "address",
                                "value": "0x671a1fe7ef28acfb722ccedf6881df4254d44877"
                            },
                            {
                                "name": "id",
                                "type": "uint256",
                                "value": "1"
                            },
                            {
                                "name": "value",
                                "type": "uint256",
                                "value": "1"
                            }
                        ],
                        "signature": "TransferSingle(address,address,address,uint256,uint256)"
                    },
                    "id": 8,
                    "logData": "0x00000000000000000000000000000000000000000000000000000000000000010000000000000000000000000000000000000000000000000000000000000001",
                    "logDecoded": true,
                    "operation": "EVENT",
                    "revert": false,
                    "status": true,
                    "topics": [
                        "0xc3d58168c5ae7397731d063d5bbf3d657854427343f4c083240f7aacaa2d0f62",
                        "0x000000000000000000000000671a1fe7ef28acfb722ccedf6881df4254d44877",
                        "0x0000000000000000000000000000000000000000000000000000000000000000",
                        "0x000000000000000000000000671a1fe7ef28acfb722ccedf6881df4254d44877"
                    ]
                },
                "nodeType": 1
            },
            "9": {
                "event": {
                    "contract": "0x68df6bc1df2bdfa09bb49528718106e547efe39a",
                    "decodedLog": {
                        "name": "TransferSingle",
                        "params": [
                            {
                                "name": "operator",
                                "type": "address",
                                "value": "0x671a1fe7ef28acfb722ccedf6881df4254d44877"
                            },
                            {
                                "name": "from",
                                "type": "address",
                                "value": "0x0000000000000000000000000000000000000000"
                            },
                            {
                                "name": "to",
                                "type": "address",
                                "value": "0x671a1fe7ef28acfb722ccedf6881df4254d44877"
                            },
                            {
                                "name": "id",
                                "type": "uint256",
                                "value": "2"
                            },
                            {
                                "name": "value",
                                "type": "uint256",
                                "value": "1"
                            }
                        ],
                        "signature": "TransferSingle(address,address,address,uint256,uint256)"
                    },
                    "id": 9,
                    "logData": "0x00000000000000000000000000000000000000000000000000000000000000020000000000000000000000000000000000000000000000000000000000000001",
                    "logDecoded": true,
                    "operation": "EVENT",
                    "revert": false,
                    "status": true,
                    "topics": [
                        "0xc3d58168c5ae7397731d063d5bbf3d657854427343f4c083240f7aacaa2d0f62",
                        "0x000000000000000000000000671a1fe7ef28acfb722ccedf6881df4254d44877",
                        "0x0000000000000000000000000000000000000000000000000000000000000000",
                        "0x000000000000000000000000671a1fe7ef28acfb722ccedf6881df4254d44877"
                    ]
                },
                "nodeType": 1
            }
        },
        "gasFlame": [
            {
                "children": [
                    {
                        "children": [
                            {
                                "children": [],
                                "depth": 0,
                                "name": "Initial Gas",
                                "value": 23792
                            },
                            {
                                "children": [
                                    {
                                        "children": [],
                                        "depth": 1,
                                        "name": "ecrecover",
                                        "value": 3000
                                    },
                                    {
                                        "children": [],
                                        "depth": 1,
                                        "name": "getStaker",
                                        "value": 2953
                                    },
                                    {
                                        "children": [],
                                        "depth": 1,
                                        "name": "ownerOf",
                                        "value": 2602
                                    },
                                    {
                                        "children": [],
                                        "depth": 1,
                                        "name": "getStaker",
                                        "value": 2953
                                    },
                                    {
                                        "children": [],
                                        "depth": 1,
                                        "name": "ownerOf",
                                        "value": 2602
                                    },
                                    {
                                        "children": [],
                                        "depth": 1,
                                        "name": "transferFrom",
                                        "value": 16143
                                    }
                                ],
                                "depth": 0,
                                "name": "Executed Gas",
                                "value": 169794
                            }
                        ],
                        "depth": -1,
                        "name": "Actual Gas Used",
                        "value": 193586
                    },
                    {
                        "children": [],
                        "depth": -1,
                        "name": "Refunded Gas",
                        "value": 0
                    }
                ],
                "depth": -2,
                "name": "Total Gas",
                "value": 193586
            }
        ],
        "isConfirmed": true,
        "mainTrace": [
            {
                "children": [
                    {
                        "children": [
                            {
                                "children": [],
                                "depth": 1,
                                "id": 1,
                                "order": 1
                            },
                            {
                                "children": [],
                                "depth": 1,
                                "id": 2,
                                "order": 2
                            },
                            {
                                "children": [],
                                "depth": 1,
                                "id": 3,
                                "order": 3
                            },
                            {
                                "children": [],
                                "depth": 1,
                                "id": 4,
                                "order": 4
                            },
                            {
                                "children": [],
                                "depth": 1,
                                "id": 5,
                                "order": 5
                            },
                            {
                                "children": [
                                    {
                                        "children": [],
                                        "depth": 2,
                                        "id": 7,
                                        "order": 7
                                    }
                                ],
                                "depth": 1,
                                "id": 6,
                                "order": 6
                            },
                            {
                                "children": [],
                                "depth": 1,
                                "id": 8,
                                "order": 8
                            },
                            {
                                "children": [],
                                "depth": 1,
                                "id": 9,
                                "order": 9
                            }
                        ],
                        "depth": 0,
                        "id": 0,
                        "order": 0
                    }
                ],
                "depth": -1,
                "id": -1,
                "order": -1
            }
        ],
        "mainTraceNodeCount": 10,
        "parentIdMap": {
            "0": -1,
            "1": 0,
            "2": 0,
            "3": 0,
            "4": 0,
            "5": 0,
            "6": 0,
            "7": 6,
            "8": 0,
            "9": 0
        },
        "tidyTrace": [
            {
                "children": [
                    {
                        "children": [
                            {
                                "children": [
                                    {
                                        "children": [],
                                        "depth": 2,
                                        "id": 7,
                                        "order": 7
                                    }
                                ],
                                "depth": 1,
                                "id": 6,
                                "order": 6
                            },
                            {
                                "children": [],
                                "depth": 1,
                                "id": 8,
                                "order": 8
                            },
                            {
                                "children": [],
                                "depth": 1,
                                "id": 9,
                                "order": 9
                            }
                        ],
                        "depth": 0,
                        "id": 0,
                        "order": 0
                    }
                ],
                "depth": -1,
                "id": -1,
                "order": -1
            }
        ],
        "tidyTraceNodeCount": 5
    },
    "state_change": {
        "stateChanges": [
            {
                "address": "0x4d648c35212273d638a5e602ab1177bb75ad7946",
                "erc": "ERC-20",
                "slots": [
                    {
                        "current": "0x00000000000000000000000000000000000000000000000a87bdb2a1dec631c6",
                        "key": "0xd95518cfb7b0e4a87b68adb27aeb9e0f3d224384784dc206dd35e3bc9d3db313",
                        "prev": "0x00000000000000000000000000000000000000000000002b0e69e7b2312631c6"
                    },
                    {
                        "current": "0x0000000000000000000000000000000000000000005ca5dbecae699d60fa5cf7",
                        "key": "0xc715d514c70aecdc47887635798ffcaf613d68146e201d46d522262b52173b25",
                        "prev": "0x0000000000000000000000000000000000000000005ca5bb6602348d0e9a5cf7"
                    }
                ],
                "storageVariables": [
                    {
                        "name": "_balances",
                        "type": "mapping(address => uint256)",
                        "value": {
                            "pairs": [
                                {
                                    "key": "0x671a1fe7ef28acfb722ccedf6881df4254d44877",
                                    "value": {
                                        "current": "194248611111111111110",
                                        "prev": "794248611111111111110",
                                        "typeTag": 1
                                    }
                                },
                                {
                                    "key": "0x8e5f332a0662c8c06bdd1eed105ba1c4800d4c2f",
                                    "value": {
                                        "current": "112004422765856481481481463",
                                        "prev": "112003822765856481481481463",
                                        "typeTag": 1
                                    }
                                }
                            ],
                            "typeTag": 4
                        }
                    }
                ]
            },
            {
                "address": "0x68df6bc1df2bdfa09bb49528718106e547efe39a",
                "erc": "ERC-1155",
                "slots": [
                    {
                        "current": "0x0000000000000000000000000000000000000000000000000000000000000c43",
                        "key": "0x92e85d02570a8092d09a6e3a57665bc3815a2699a4074001bf1ccabf660f5a36",
                        "prev": "0x0000000000000000000000000000000000000000000000000000000000000c42"
                    },
                    {
                        "current": "0x0000000000000000000000000000000000000000000000000000000000000001",
                        "key": "0xd995b69934fb57dd557d648fe047d5ce8e81ce293447e638fef1640b5bf690eb",
                        "prev": "0x0000000000000000000000000000000000000000000000000000000000000000"
                    },
                    {
                        "current": "0x0000000000000000000000000000000000000000000000000000000000000552",
                        "key": "0x6cde3cea4b3a3fb2488b2808bae7556f4a405e50f65e1794383bc026131b13c3",
                        "prev": "0x0000000000000000000000000000000000000000000000000000000000000551"
                    },
                    {
                        "current": "0x0000000000000000000000000000000000000000000000000000000000000001",
                        "key": "0x0abe4c5214ec7cda473f9576af9e4d027b12870fabb216182bd556894073e2d6",
                        "prev": "0x0000000000000000000000000000000000000000000000000000000000000000"
                    },
                    {
                        "current": "0x0000000000000000000000000000000000000000000000000000000000000001",
                        "key": "0x9e74f5548a143cca1f15dd7a08cfedf8bd407823af5432032dca527a7aa1377a",
                        "prev": "0x0000000000000000000000000000000000000000000000000000000000000000"
                    },
                    {
                        "current": "0x4144444004010554051441110405005014011440504454551545044451440454",
                        "key": "0x069400f22b28c6c362558d92f66163cec5671cba50b61abd2eecfcd0eaeac518",
                        "prev": "0x4144444004010554051441110405005014011440504454541545044451440454"
                    },
                    {
                        "current": "0x1005010115544445440004111150550511551441141500011441514555440401",
                        "key": "0x3fb1f8b5b572f385df2ff517fa4200d6781fd017f742a2f073e874e0dca7758b",
                        "prev": "0x1005010115544445440004111150550511551441141500011441514555040401"
                    }
                ],
                "storageVariables": [
                    {
                        "name": "_balances",
                        "type": "mapping(uint256 => mapping(address => uint256))",
                        "value": {
                            "pairs": [
                                {
                                    "key": "1",
                                    "value": {
                                        "pairs": [
                                            {
                                                "key": "0x671a1fe7ef28acfb722ccedf6881df4254d44877",
                                                "value": {
                                                    "current": "1",
                                                    "prev": "0",
                                                    "typeTag": 1
                                                }
                                            }
                                        ],
                                        "typeTag": 4
                                    }
                                },
                                {
                                    "key": "2",
                                    "value": {
                                        "pairs": [
                                            {
                                                "key": "0x671a1fe7ef28acfb722ccedf6881df4254d44877",
                                                "value": {
                                                    "current": "1",
                                                    "prev": "0",
                                                    "typeTag": 1
                                                }
                                            }
                                        ],
                                        "typeTag": 4
                                    }
                                }
                            ],
                            "typeTag": 4
                        }
                    },
                    {
                        "name": "_isHashUsed",
                        "type": "mapping(bytes32 => bool)",
                        "value": {
                            "pairs": [
                                {
                                    "key": "0x794851f26040fa447f6be7dfb062072c8084a9e126f25e4c14683a32be97113c",
                                    "value": {
                                        "current": "true",
                                        "prev": "false",
                                        "typeTag": 1
                                    }
                                }
                            ],
                            "typeTag": 4
                        }
                    },
                    {
                        "name": "_DataStore",
                        "type": "mapping(uint256 => uint256)",
                        "value": {
                            "pairs": [
                                {
                                    "key": "30",
                                    "value": {
                                        "current": "7245846743608671020653362550514964538088589229050366205107219328433540826113",
                                        "prev": "7245846743608671020653362550514964538088589229050366205107219328433536631809",
                                        "typeTag": 1
                                    }
                                },
                                {
                                    "key": "6",
                                    "value": {
                                        "current": "29520951802927082939561092787186129679129816801922141050049184663649223181396",
                                        "prev": "29520951802927082939561092787186129679129816801922141050030737919575513629780",
                                        "typeTag": 1
                                    }
                                }
                            ],
                            "typeTag": 4
                        }
                    },
                    {
                        "name": "_totalSupply",
                        "type": "mapping(uint256 => uint256)",
                        "value": {
                            "pairs": [
                                {
                                    "key": "1",
                                    "value": {
                                        "current": "3139",
                                        "prev": "3138",
                                        "typeTag": 1
                                    }
                                },
                                {
                                    "key": "2",
                                    "value": {
                                        "current": "1362",
                                        "prev": "1361",
                                        "typeTag": 1
                                    }
                                }
                            ],
                            "typeTag": 4
                        }
                    }
                ]
            }
        ]
    }
}