{
    "balance_change": {
        "balanceChanges": []
    },
    "profile": {
        "basic_info": {
            "baseFee": "",
            "blockNumber": 7431709,
            "callData": "0x8f76ccf7000000000000000000000000000000000000000000000000000000000000008000000000000000000000000000000000000000000000000000000000000000c000000000000000000000000000000000000000000000000000000000000001000000000000000000000000000000000000000000000000000000000000000140000000000000000000000000000000000000000000000000000000000000000100000000000000000000000010d8bec072631d50282bab213dc9da219a3797a700000000000000000000000000000000000000000000000000000000000000010000000000000000000000005c74528347f3b4dca1d57e1f9d0cfbb3c0c94b1e000000000000000000000000000000000000000000000000000000000000000140000000000002ba00000000000000000000000000000000000000000000000000000000000000000000000000000000000000000000000000000000000000010000000000000000000000000000000000000000000000000000000000000001",
            "debugEnable": true,
            "errorInfo": "",
            "eventCount": 3,
            "feeRecipient": "0xea674fdde714fd979de3edf0f56aa9716b898ec8",
            "formatValue": "0",
            "gasLimit": 158192,
            "gasPrice": "6",
            "gasUsed": 121791,
            "intTxnCount": 12,
            "internalRevert": false,
            "internalRevertMessage": "",
            "isContractCreation": false,
            "isFlashloan": false,
            "maxFee": "",
            "nonce": 94431,
            "overwritedBlockNumber": -1,
            "priorityFee": "",
            "receiver": "0x8562c38485b1e8ccd82e44f89823da76c98eb0ab",
            "revertMessage": "",
            "sender": "0x323d1c3462776f07a316ebdfb46a1e280181d964",
            "simulationEnable": true,
            "sourceTxnHash": "0x6e8fd7e6203ae42b261df52ba44f3118b2508b20d5713078701bbd61211f8d6b",
            "status": true,
            "timestamp": "2019-03-24T13:39:14Z",
            "transactionFee": "0.000730746",
            "txnHash": "0x6e8fd7e6203ae42b261df52ba44f3118b2508b20d5713078701bbd61211f8d6b",
            "txnIndex": 66,
            "type": 0,
            "value": "0"
        },
        "fund_flow": [
            {
                "amount": "0",
                "from": "0x10d8bec072631d50282bab213dc9da219a3797a7",
                "id": 1,
                "isERC1155": false,
                "isERC721": false,
                "isReverted": false,
                "order": 1,
                "to": "0x8d0035249a9c06d548550c0902b3496201caf7e4",
                "token": "0xf629cbd94d3791c9250152bd8dfbdf380e2a3b9c"
            }
        ],
        "token_infos": [
            {
                "address": "0xc02aaa39b223fe8d0a0e5c4f27ead9083c756cc2",
                "decimals": 18
            },
            {
                "address": "0xf629cbd94d3791c9250152bd8dfbdf380e2a3b9c",
                "decimals": 18
            },
            {
                "address": "0xeeeeeeeeeeeeeeeeeeeeeeeeeeeeeeeeeeeeeeee",
                "decimals": 18
            }
        ]
    },
    "address_label": {
        "labels": [
            {
                "address": "0x0000000000000000000000000000000000000004",
                "label": "Precompiled"
            },
            {
                "address": "0xeeeeeeeeeeeeeeeeeeeeeeeeeeeeeeeeeeeeeeee",
                "label": "Ether"
            },
            {
                "address": "0xf629cbd94d3791c9250152bd8dfbdf380e2a3b9c",
                "label": "Enjin: ENJ Token"
            },
            {
                "address": "0x0000000000000000000000000000000000000001",
                "label": "Precompiled"
            },
            {
                "address": "0x0000000000000000000000000000000000000002",
                "label": "Precompiled"
            },
            {
                "address": "0x0000000000000000000000000000000000000003",
                "label": "Precompiled"
            }
        ]
    },
    "trace": {
        "accountLabels": null,
        "dataMap": {
            "-1": {
                "invocation": {
                    "address": "0x323d1c3462776f07a316ebdfb46a1e280181d964",
                    "callData": "",
                    "decodedMethod": null,
                    "errorInfo": "",
                    "fromAddress": "",
                    "gasUsed": 0,
                    "id": -1,
                    "methodDecoded": false,
                    "operation": "",
                    "output": "",
                    "revert": false,
                    "revertMessage": "",
                    "selector": "",
                    "status": false,
                    "value": ""
                },
                "nodeType": 0
            },
            "0": {
                "invocation": {
                    "address": "0x8562c38485b1e8ccd82e44f89823da76c98eb0ab",
                    "callData": "0x000000000000000000000000000000000000000000000000000000000000008000000000000000000000000000000000000000000000000000000000000000c000000000000000000000000000000000000000000000000000000000000001000000000000000000000000000000000000000000000000000000000000000140000000000000000000000000000000000000000000000000000000000000000100000000000000000000000010d8bec072631d50282bab213dc9da219a3797a700000000000000000000000000000000000000000000000000000000000000010000000000000000000000005c74528347f3b4dca1d57e1f9d0cfbb3c0c94b1e000000000000000000000000000000000000000000000000000000000000000140000000000002ba00000000000000000000000000000000000000000000000000000000000000000000000000000000000000000000000000000000000000010000000000000000000000000000000000000000000000000000000000000001",
                    "decodedMethod": null,
                    "errorInfo": "",
                    "fromAddress": "0x323d1c3462776f07a316ebdfb46a1e280181d964",
                    "gasUsed": 121791,
                    "id": 0,
                    "methodDecoded": false,
                    "operation": "CALL",
                    "output": "",
                    "revert": false,
                    "revertMessage": "",
                    "selector": "0x8f76ccf7",
                    "status": true,
                    "value": "0"
                },
                "nodeType": 0
            },
            "1": {
                "invocation": {
                    "address": "0x3c4e07e512564ef756426c826bb0e2e821665161",
                    "callData": "0x0000000000000000000000004e643a25a64952895f553f20252861258727174e00000000000000000000000000000000000000000000000000000000000000a000000000000000000000000000000000000000000000000000000000000000e000000000000000000000000000000000000000000000000000000000000001200000000000000000000000000000000000000000000000000000000000000160000000000000000000000000000000000000000000000000000000000000000100000000000000000000000010d8bec072631d50282bab213dc9da219a3797a700000000000000000000000000000000000000000000000000000000000000010000000000000000000000005c74528347f3b4dca1d57e1f9d0cfbb3c0c94b1e000000000000000000000000000000000000000000000000000000000000000140000000000002ba00000000000000000000000000000000000000000000000000000000000000000000000000000000000000000000000000000000000000010000000000000000000000000000000000000000000000000000000000000001",
                    "decodedMethod": null,
                    "errorInfo": "",
                    "fromAddress": "0x8562c38485b1e8ccd82e44f89823da76c98eb0ab",
                    "gasUsed": 91984,
                    "id": 1,
                    "methodDecoded": false,
                    "operation": "DELEGATECALL",
                    "output": "",
                    "revert": false,
                    "revertMessage": "",
                    "selector": "0xa6428de6",
                    "status": true,
                    "value": "0"
                },
                "nodeType": 0
            },
            "10": {
                "invocation": {
                    "address": "0x4e643a25a64952895f553f20252861258727174e",
                    "callData": "0x",
                    "decodedMethod": null,
                    "errorInfo": "",
                    "fromAddress": "0x8562c38485b1e8ccd82e44f89823da76c98eb0ab",
                    "gasUsed": 3397,
                    "id": 10,
                    "methodDecoded": false,
                    "operation": "CALL",
                    "output": "0x000000000000000000000000f629cbd94d3791c9250152bd8dfbdf380e2a3b9c",
                    "revert": false,
                    "revertMessage": "",
                    "selector": "0xfed57875",
                    "status": true,
                    "value": "0"
                },
                "nodeType": 0
            },
            "11": {
                "invocation": {
                    "address": "0xf629cbd94d3791c9250152bd8dfbdf380e2a3b9c",
                    "callData": "0x00000000000000000000000010d8bec072631d50282bab213dc9da219a3797a70000000000000000000000008d0035249a9c06d548550c0902b3496201caf7e40000000000000000000000000000000000000000000000000000000000000000",
                    "decodedMethod": {
                        "callParams": [
                            {
                                "name": "_from",
                                "type": "address",
                                "value": "0x10d8bec072631d50282bab213dc9da219a3797a7"
                            },
                            {
                                "name": "_to",
                                "type": "address",
                                "value": "0x8d0035249a9c06d548550c0902b3496201caf7e4"
                            },
                            {
                                "decimalAvailable": true,
                                "name": "_value",
                                "type": "uint256",
                                "value": "0"
                            }
                        ],
                        "constructorArguments": "",
                        "name": "transferFrom",
                        "returnParams": [
                            {
                                "name": "success",
                                "type": "bool",
                                "value": true
                            }
                        ],
                        "signature": "transferFrom(address,address,uint256)"
                    },
                    "errorInfo": "",
                    "fromAddress": "0x8562c38485b1e8ccd82e44f89823da76c98eb0ab",
                    "gasUsed": 19237,
                    "id": 11,
                    "methodDecoded": true,
                    "operation": "CALL",
                    "output": "0x0000000000000000000000000000000000000000000000000000000000000001",
                    "revert": false,
                    "revertMessage": "",
                    "selector": "0x23b872dd",
                    "status": true,
                    "value": "0"
                },
                "nodeType": 0
            },
            "12": {
                "event": {
                    "contract": "0xf629cbd94d3791c9250152bd8dfbdf380e2a3b9c",
                    "decodedLog": {
                        "name": "Transfer",
                        "params": [
                            {
                                "name": "_from",
                                "type": "address",
                                "value": "0x10d8bec072631d50282bab213dc9da219a3797a7"
                            },
                            {
                                "name": "_to",
                                "type": "address",
                                "value": "0x8d0035249a9c06d548550c0902b3496201caf7e4"
                            },
                            {
                                "decimalAvailable": true,
                                "name": "_value",
                                "type": "uint256",
                                "value": "0"
                            }
                        ],
                        "signature": "Transfer(address,address,uint256)"
                    },
                    "id": 12,
                    "logData": "0x0000000000000000000000000000000000000000000000000000000000000000",
                    "logDecoded": true,
                    "operation": "EVENT",
                    "revert": false,
                    "status": true,
                    "topics": [
                        "0xddf252ad1be2c89b69c2b068fc378daa952ba7f163c4a11628f55a4df523b3ef",
                        "0x00000000000000000000000010d8bec072631d50282bab213dc9da219a3797a7",
                        "0x0000000000000000000000008d0035249a9c06d548550c0902b3496201caf7e4"
                    ]
                },
                "nodeType": 1
            },
            "13": {
                "event": {
                    "contract": "0x8562c38485b1e8ccd82e44f89823da76c98eb0ab",
                    "decodedLog": null,
                    "id": 13,
                    "logData": "0x0000000000000000000000000000000000000000000000000000000000000000",
                    "logDecoded": false,
                    "operation": "EVENT",
                    "revert": false,
                    "status": true,
                    "topics": [
                        "0x298f4be3ff40398fb58555008f42eb86e257a96bba5c0f3c32814fa869535fc2",
                        "0x40000000000002ba000000000000000000000000000000000000000000000000",
                        "0x00000000000000000000000010d8bec072631d50282bab213dc9da219a3797a7",
                        "0x0000000000000000000000000000000000000000000000000000000000000000"
                    ]
                },
                "nodeType": 1
            },
            "14": {
                "invocation": {
                    "address": "0x4e643a25a64952895f553f20252861258727174e",
                    "callData": "0x40000000000002ba00000000000000000000000000000000000000000000000000000000000000000000000010d8bec072631d50282bab213dc9da219a3797a70000000000000000000000005c74528347f3b4dca1d57e1f9d0cfbb3c0c94b1e0000000000000000000000000000000000000000000000000000000000000001",
                    "decodedMethod": null,
                    "errorInfo": "",
                    "fromAddress": "0x8562c38485b1e8ccd82e44f89823da76c98eb0ab",
                    "gasUsed": 29720,
                    "id": 14,
                    "methodDecoded": false,
                    "operation": "CALL",
                    "output": "",
                    "revert": false,
                    "revertMessage": "",
                    "selector": "0xffaf6633",
                    "status": true,
                    "value": "0"
                },
                "nodeType": 0
            },
            "15": {
                "event": {
                    "contract": "0x8562c38485b1e8ccd82e44f89823da76c98eb0ab",
                    "decodedLog": {
                        "name": "Transfer",
                        "params": [
                            {
                                "name": "tranche",
                                "type": "uint256",
                                "value": "28,948,022,309,329,053,237,309,757,552,075,150,120,698,513,565,361,299,449,308,496,237,874,372,411,392"
                            },
                            {
                                "name": "from",
                                "type": "address",
                                "value": "0x10d8bec072631d50282bab213dc9da219a3797a7"
                            },
                            {
                                "name": "to",
                                "type": "address",
                                "value": "0x5c74528347f3b4dca1d57e1f9d0cfbb3c0c94b1e"
                            },
                            {
                                "name": "amount",
                                "type": "uint256",
                                "value": "1"
                            }
                        ],
                        "signature": "Transfer(uint256,address,address,uint256)"
                    },
                    "id": 15,
                    "logData": "0x0000000000000000000000000000000000000000000000000000000000000001",
                    "logDecoded": true,
                    "operation": "EVENT",
                    "revert": false,
                    "status": true,
                    "topics": [
                        "0xf2dbd98d79f00f7aff338b824931d607bfcc63d47307162470f25a055102d3b0",
                        "0x40000000000002ba000000000000000000000000000000000000000000000000",
                        "0x00000000000000000000000010d8bec072631d50282bab213dc9da219a3797a7",
                        "0x0000000000000000000000005c74528347f3b4dca1d57e1f9d0cfbb3c0c94b1e"
                    ]
                },
                "nodeType": 1
            },
            "2": {
                "invocation": {
                    "address": "0xe23e75c8ca2a1e6c24fbb509a9379b68c5a267a8",
                    "callData": "0x0000000000000000000000004e643a25a64952895f553f20252861258727174e00000000000000000000000010d8bec072631d50282bab213dc9da219a3797a70000000000000000000000005c74528347f3b4dca1d57e1f9d0cfbb3c0c94b1e40000000000002ba0000000000000000000000000000000000000000000000000000000000000000000000000000000000000000000000000000000000000001",
                    "decodedMethod": null,
                    "errorInfo": "",
                    "fromAddress": "0x8562c38485b1e8ccd82e44f89823da76c98eb0ab",
                    "gasUsed": 88517,
                    "id": 2,
                    "methodDecoded": false,
                    "operation": "DELEGATECALL",
                    "output": "",
                    "revert": false,
                    "revertMessage": "",
                    "selector": "0xeac57a03",
                    "status": true,
                    "value": "0"
                },
                "nodeType": 0
            },
            "3": {
                "invocation": {
                    "address": "0x4e643a25a64952895f553f20252861258727174e",
                    "callData": "0x40000000000002ba00000000000000000000000000000000000000000000000000000000000000000000000010d8bec072631d50282bab213dc9da219a3797a70000000000000000000000005c74528347f3b4dca1d57e1f9d0cfbb3c0c94b1e",
                    "decodedMethod": null,
                    "errorInfo": "",
                    "fromAddress": "0x8562c38485b1e8ccd82e44f89823da76c98eb0ab",
                    "gasUsed": 1019,
                    "id": 3,
                    "methodDecoded": false,
                    "operation": "CALL",
                    "output": "0x0000000000000000000000000000000000000000000000000000000000000001",
                    "revert": false,
                    "revertMessage": "",
                    "selector": "0x270c373e",
                    "status": true,
                    "value": "0"
                },
                "nodeType": 0
            },
            "4": {
                "invocation": {
                    "address": "0x4e643a25a64952895f553f20252861258727174e",
                    "callData": "0x000000000000000000000000000000000000000000000000000000000000000000000000000000000000000010d8bec072631d50282bab213dc9da219a3797a7000000000000000000000000323d1c3462776f07a316ebdfb46a1e280181d964",
                    "decodedMethod": null,
                    "errorInfo": "",
                    "fromAddress": "0x8562c38485b1e8ccd82e44f89823da76c98eb0ab",
                    "gasUsed": 3530,
                    "id": 4,
                    "methodDecoded": false,
                    "operation": "CALL",
                    "output": "0x0000000000000000000000000000000000000000000000000000000000000001",
                    "revert": false,
                    "revertMessage": "",
                    "selector": "0xf7250826",
                    "status": true,
                    "value": "0"
                },
                "nodeType": 0
            },
            "5": {
                "invocation": {
                    "address": "0x4e643a25a64952895f553f20252861258727174e",
                    "callData": "0x40000000000002ba000000000000000000000000000000000000000000000000",
                    "decodedMethod": null,
                    "errorInfo": "",
                    "fromAddress": "0x8562c38485b1e8ccd82e44f89823da76c98eb0ab",
                    "gasUsed": 1582,
                    "id": 5,
                    "methodDecoded": false,
                    "operation": "CALL",
                    "output": "0x0000000000000000000000000000000000000000000000000000000000000002",
                    "revert": false,
                    "revertMessage": "",
                    "selector": "0x73007500",
                    "status": true,
                    "value": "0"
                },
                "nodeType": 0
            },
            "6": {
                "invocation": {
                    "address": "0x4e643a25a64952895f553f20252861258727174e",
                    "callData": "0x40000000000002ba000000000000000000000000000000000000000000000000",
                    "decodedMethod": {
                        "callParams": [
                            {
                                "name": "tokenId",
                                "type": "uint256",
                                "value": "28,948,022,309,329,053,237,309,757,552,075,150,120,698,513,565,361,299,449,308,496,237,874,372,411,392"
                            }
                        ],
                        "constructorArguments": "",
                        "name": "getCreator",
                        "returnParams": [
                            {
                                "name": "",
                                "type": "address",
                                "value": "0x8d0035249a9c06d548550c0902b3496201caf7e4"
                            }
                        ],
                        "signature": "getCreator(uint256)"
                    },
                    "errorInfo": "",
                    "fromAddress": "0x8562c38485b1e8ccd82e44f89823da76c98eb0ab",
                    "gasUsed": 2897,
                    "id": 6,
                    "methodDecoded": true,
                    "operation": "CALL",
                    "output": "0x0000000000000000000000008d0035249a9c06d548550c0902b3496201caf7e4",
                    "revert": false,
                    "revertMessage": "",
                    "selector": "0xd48e638a",
                    "status": true,
                    "value": "0"
                },
                "nodeType": 0
            },
            "7": {
                "invocation": {
                    "address": "0x4e643a25a64952895f553f20252861258727174e",
                    "callData": "0x40000000000002ba00000000000000000000000000000000000000000000000000000000000000000000000010d8bec072631d50282bab213dc9da219a3797a70000000000000000000000000000000000000000000000000000000000000004",
                    "decodedMethod": null,
                    "errorInfo": "",
                    "fromAddress": "0x8562c38485b1e8ccd82e44f89823da76c98eb0ab",
                    "gasUsed": 1550,
                    "id": 7,
                    "methodDecoded": false,
                    "operation": "CALL",
                    "output": "0x0000000000000000000000000000000000000000000000000000000000000000",
                    "revert": false,
                    "revertMessage": "",
                    "selector": "0x5dbc33e7",
                    "status": true,
                    "value": "0"
                },
                "nodeType": 0
            },
            "8": {
                "invocation": {
                    "address": "0x4e643a25a64952895f553f20252861258727174e",
                    "callData": "0x40000000000002ba000000000000000000000000000000000000000000000000",
                    "decodedMethod": null,
                    "errorInfo": "",
                    "fromAddress": "0x8562c38485b1e8ccd82e44f89823da76c98eb0ab",
                    "gasUsed": 720,
                    "id": 8,
                    "methodDecoded": false,
                    "operation": "CALL",
                    "output": "0x0000000000000000000000000000000000000000000000000000000000000000",
                    "revert": false,
                    "revertMessage": "",
                    "selector": "0x20ec4a86",
                    "status": true,
                    "value": "0"
                },
                "nodeType": 0
            },
            "9": {
                "invocation": {
                    "address": "0x4e643a25a64952895f553f20252861258727174e",
                    "callData": "0x40000000000002ba000000000000000000000000000000000000000000000000",
                    "decodedMethod": null,
                    "errorInfo": "",
                    "fromAddress": "0x8562c38485b1e8ccd82e44f89823da76c98eb0ab",
                    "gasUsed": 495,
                    "id": 9,
                    "methodDecoded": false,
                    "operation": "CALL",
                    "output": "0x0000000000000000000000000000000000000000000000000000000000000000",
                    "revert": false,
                    "revertMessage": "",
                    "selector": "0x0a432df0",
                    "status": true,
                    "value": "0"
                },
                "nodeType": 0
            }
        },
        "gasFlame": [
            {
                "children": [
                    {
                        "children": [
                            {
                                "children": [],
                                "depth": 0,
                                "name": "Initial Gas",
                                "value": 26200
                            },
                            {
                                "children": [
                                    {
                                        "children": [
                                            {
                                                "children": [
                                                    {
                                                        "children": [],
                                                        "depth": 3,
                                                        "name": "0x270c373e",
                                                        "value": 1019
                                                    },
                                                    {
                                                        "children": [],
                                                        "depth": 3,
                                                        "name": "0xf7250826",
                                                        "value": 3530
                                                    },
                                                    {
                                                        "children": [],
                                                        "depth": 3,
                                                        "name": "0x73007500",
                                                        "value": 1582
                                                    },
                                                    {
                                                        "children": [],
                                                        "depth": 3,
                                                        "name": "getCreator",
                                                        "value": 2897
                                                    },
                                                    {
                                                        "children": [],
                                                        "depth": 3,
                                                        "name": "0x5dbc33e7",
                                                        "value": 1550
                                                    },
                                                    {
                                                        "children": [],
                                                        "depth": 3,
                                                        "name": "0x20ec4a86",
                                                        "value": 720
                                                    },
                                                    {
                                                        "children": [],
                                                        "depth": 3,
                                                        "name": "0x0a432df0",
                                                        "value": 495
                                                    },
                                                    {
                                                        "children": [],
                                                        "depth": 3,
                                                        "name": "0xfed57875",
                                                        "value": 3397
                                                    },
                                                    {
                                                        "children": [],
                                                        "depth": 3,
                                                        "name": "transferFrom",
                                                        "value": 19237
                                                    },
                                                    {
                                                        "children": [],
                                                        "depth": 3,
                                                        "name": "0xffaf6633",
                                                        "value": 29720
                                                    }
                                                ],
                                                "depth": 2,
                                                "name": "0xeac57a03",
                                                "value": 88517
                                            }
                                        ],
                                        "depth": 1,
                                        "name": "0xa6428de6",
                                        "value": 91984
                                    }
                                ],
                                "depth": 0,
                                "name": "Executed Gas",
                                "value": 95591
                            }
                        ],
                        "depth": -1,
                        "name": "Actual Gas Used",
                        "value": 121791
                    },
                    {
                        "children": [],
                        "depth": -1,
                        "name": "Refunded Gas",
                        "value": 0
                    }
                ],
                "depth": -2,
                "name": "Total Gas",
                "value": 121791
            }
        ],
        "isConfirmed": true,
        "mainTrace": [
            {
                "children": [
                    {
                        "children": [
                            {
                                "children": [
                                    {
                                        "children": [
                                            {
                                                "children": [],
                                                "depth": 3,
                                                "id": 3,
                                                "order": 3
                                            },
                                            {
                                                "children": [],
                                                "depth": 3,
                                                "id": 4,
                                                "order": 4
                                            },
                                            {
                                                "children": [],
                                                "depth": 3,
                                                "id": 5,
                                                "order": 5
                                            },
                                            {
                                                "children": [],
                                                "depth": 3,
                                                "id": 6,
                                                "order": 6
                                            },
                                            {
                                                "children": [],
                                                "depth": 3,
                                                "id": 7,
                                                "order": 7
                                            },
                                            {
                                                "children": [],
                                                "depth": 3,
                                                "id": 8,
                                                "order": 8
                                            },
                                            {
                                                "children": [],
                                                "depth": 3,
                                                "id": 9,
                                                "order": 9
                                            },
                                            {
                                                "children": [],
                                                "depth": 3,
                                                "id": 10,
                                                "order": 10
                                            },
                                            {
                                                "children": [
                                                    {
                                                        "children": [],
                                                        "depth": 4,
                                                        "id": 12,
                                                        "order": 12
                                                    }
                                                ],
                                                "depth": 3,
                                                "id": 11,
                                                "order": 11
                                            },
                                            {
                                                "children": [],
                                                "depth": 3,
                                                "id": 13,
                                                "order": 13
                                            },
                                            {
                                                "children": [],
                                                "depth": 3,
                                                "id": 14,
                                                "order": 14
                                            },
                                            {
                                                "children": [],
                                                "depth": 3,
                                                "id": 15,
                                                "order": 15
                                            }
                                        ],
                                        "depth": 2,
                                        "id": 2,
                                        "order": 2
                                    }
                                ],
                                "depth": 1,
                                "id": 1,
                                "order": 1
                            }
                        ],
                        "depth": 0,
                        "id": 0,
                        "order": 0
                    }
                ],
                "depth": -1,
                "id": -1,
                "order": -1
            }
        ],
        "mainTraceNodeCount": 16,
        "parentIdMap": {
            "0": -1,
            "1": 0,
            "10": 2,
            "11": 2,
            "12": 11,
            "13": 2,
            "14": 2,
            "15": 2,
            "2": 1,
            "3": 2,
            "4": 2,
            "5": 2,
            "6": 2,
            "7": 2,
            "8": 2,
            "9": 2
        },
        "tidyTrace": [
            {
                "children": [
                    {
                        "children": [
                            {
                                "children": [
                                    {
                                        "children": [
                                            {
                                                "children": [],
                                                "depth": 3,
                                                "id": 3,
                                                "order": 3
                                            },
                                            {
                                                "children": [],
                                                "depth": 3,
                                                "id": 4,
                                                "order": 4
                                            },
                                            {
                                                "children": [],
                                                "depth": 3,
                                                "id": 5,
                                                "order": 5
                                            },
                                            {
                                                "children": [],
                                                "depth": 3,
                                                "id": 6,
                                                "order": 6
                                            },
                                            {
                                                "children": [],
                                                "depth": 3,
                                                "id": 7,
                                                "order": 7
                                            },
                                            {
                                                "children": [],
                                                "depth": 3,
                                                "id": 8,
                                                "order": 8
                                            },
                                            {
                                                "children": [],
                                                "depth": 3,
                                                "id": 9,
                                                "order": 9
                                            },
                                            {
                                                "children": [],
                                                "depth": 3,
                                                "id": 10,
                                                "order": 10
                                            },
                                            {
                                                "children": [
                                                    {
                                                        "children": [],
                                                        "depth": 4,
                                                        "id": 12,
                                                        "order": 12
                                                    }
                                                ],
                                                "depth": 3,
                                                "id": 11,
                                                "order": 11
                                            },
                                            {
                                                "children": [],
                                                "depth": 3,
                                                "id": 13,
                                                "order": 13
                                            },
                                            {
                                                "children": [],
                                                "depth": 3,
                                                "id": 14,
                                                "order": 14
                                            },
                                            {
                                                "children": [],
                                                "depth": 3,
                                                "id": 15,
                                                "order": 15
                                            }
                                        ],
                                        "depth": 2,
                                        "id": 2,
                                        "order": 2
                                    }
                                ],
                                "depth": 1,
                                "id": 1,
                                "order": 1
                            }
                        ],
                        "depth": 0,
                        "id": 0,
                        "order": 0
                    }
                ],
                "depth": -1,
                "id": -1,
                "order": -1
            }
        ],
        "tidyTraceNodeCount": 16
    },
    "state_change": {
        "stateChanges": [
            {
                "address": "0x4e643a25a64952895f553f20252861258727174e",
                "erc": "",
                "slots": [
                    {
                        "current": "0x00000000000000000000000000000000000000000000000000000000000010c8",
                        "key": "0x48600bbc4e3e0a0e89c84c5e1ca610a693247323febf6fb5366b59b44c150d22",
                        "prev": "0x00000000000000000000000000000000000000000000000000000000000010c9"
                    },
                    {
                        "current": "0x0000000000000000000000000000000000000000000000000000000000000001",
                        "key": "0x2ce8e17a8585ec0e44b8fe70dbd5e29c9d7ac25df4dc94a0d29851ece5424eae",
                        "prev": "0x0000000000000000000000000000000000000000000000000000000000000000"
                    }
                ],
                "storageVariables": []
            }
        ]
    }
}