{
    "balance_change": {
        "balanceChanges": [
            {
                "account": "0x0000006daea1723962647b7e189d311d757fb793",
                "assets": [
                    {
                        "address": "0x1f573d6fb3f13d689ff844b4ce37794d79a7ff1c",
                        "amount": "13,502.493937183399870464",
                        "iconUrl": "https://assets.blocksec.com/icon/2134050168d6c4780030be02f0a6ca44fe9e3462a2cefed4fac3abde8839c5b0.png",
                        "isERC1155": false,
                        "isERC721": false,
                        "sign": false,
                        "value": "87005.25435"
                    },
                    {
                        "address": "0x514910771af9ca656af840dff83e8264ecf986ca",
                        "amount": "3,785.941164895767634482",
                        "iconUrl": "https://assets.blocksec.com/icon/f97453a18956674db69f16b525216d646fc76f3c7f90f0cd6147f8534d5af3e9.png",
                        "isERC1155": false,
                        "isERC721": false,
                        "sign": true,
                        "value": "101010.8723"
                    }
                ]
            },
            {
                "account": "0xda1117e28f79606637b88fd976150907d7af1aaf",
                "assets": [
                    {
                        "address": "0x1f573d6fb3f13d689ff844b4ce37794d79a7ff1c",
                        "amount": "13,502.493937183399870464",
                        "iconUrl": "https://assets.blocksec.com/icon/2134050168d6c4780030be02f0a6ca44fe9e3462a2cefed4fac3abde8839c5b0.png",
                        "isERC1155": false,
                        "isERC721": false,
                        "sign": true,
                        "value": "87005.25435"
                    },
                    {
                        "address": "0x514910771af9ca656af840dff83e8264ecf986ca",
                        "amount": "3,785.941164895767634482",
                        "iconUrl": "https://assets.blocksec.com/icon/f97453a18956674db69f16b525216d646fc76f3c7f90f0cd6147f8534d5af3e9.png",
                        "isERC1155": false,
                        "isERC721": false,
                        "sign": false,
                        "value": "101010.8723"
                    }
                ]
            }
        ]
    },
    "profile": {
        "basic_info": {
            "baseFee": "",
            "blockNumber": 11985114,
            "callData": "0x178979ae000000000000000000000000000000370531eee8149ed162d387aad537899ac7000000000000000000000000000000000000000000000000000000000000000000000000000000000000000000000000000000000000000000000000000000600000000000000000000000000000000000000000000000000000000000000104b9d25b9100000000000000000000000000000000000000000000000000000000000000800000000000000000000000000000000000000000000002dbf8bee896e22000000000000000000000000000000000000000000000000000cbbc99f7be6298000000000000000000000000000000000000000000000000000000000000604382eb00000000000000000000000000000000000000000000000000000000000000030000000000000000000000001f573d6fb3f13d689ff844b4ce37794d79a7ff1c00000000000000000000000004d0231162b4784b706908c787ce32bd075db9b7000000000000000000000000514910771af9ca656af840dff83e8264ecf986ca00000000000000000000000000000000000000000000000000000000",
            "debugEnable": true,
            "errorInfo": "",
            "eventCount": 8,
            "feeRecipient": "0x52bc44d5378309ee2abf1539bf71de1b7d7be3b5",
            "formatValue": "0",
            "gasLimit": 400000,
            "gasPrice": "96.863254171",
            "gasUsed": 162676,
            "intTxnCount": 14,
            "internalRevert": false,
            "internalRevertMessage": "",
            "isContractCreation": false,
            "isFlashloan": false,
            "maxFee": "",
            "nonce": 5712,
            "overwritedBlockNumber": -1,
            "priorityFee": "",
            "receiver": "0x0000006daea1723962647b7e189d311d757fb793",
            "revertMessage": "",
            "sender": "0x0000495194ec698fcf89ccf8abb445daf01db497",
            "simulationEnable": true,
            "sourceTxnHash": "0x6e3424f979e3ab2e927998683d4f4e100499f80fc429ca6ed09bb1aae7ecc63b",
            "status": true,
            "timestamp": "2021-03-06T13:24:05Z",
            "transactionFee": "0.015757326735521596",
            "txnHash": "0x6e3424f979e3ab2e927998683d4f4e100499f80fc429ca6ed09bb1aae7ecc63b",
            "txnIndex": 54,
            "type": 0,
            "value": "0"
        },
        "fund_flow": [
            {
                "amount": "13,502.493937183399870464",
                "from": "0x0000006daea1723962647b7e189d311d757fb793",
                "id": 1,
                "isERC1155": false,
                "isERC721": false,
                "isReverted": false,
                "order": 1,
                "to": "0x000000370531eee8149ed162d387aad537899ac7",
                "token": "0x1f573d6fb3f13d689ff844b4ce37794d79a7ff1c"
            },
            {
                "amount": "13,502.493937183399870464",
                "from": "0x000000370531eee8149ed162d387aad537899ac7",
                "id": 2,
                "isERC1155": false,
                "isERC721": false,
                "isReverted": false,
                "order": 2,
                "to": "0xda1117e28f79606637b88fd976150907d7af1aaf",
                "token": "0x1f573d6fb3f13d689ff844b4ce37794d79a7ff1c"
            },
            {
                "amount": "3,785.941164895767634482",
                "from": "0xda1117e28f79606637b88fd976150907d7af1aaf",
                "id": 3,
                "isERC1155": false,
                "isERC721": false,
                "isReverted": false,
                "order": 3,
                "to": "0x0000006daea1723962647b7e189d311d757fb793",
                "token": "0x514910771af9ca656af840dff83e8264ecf986ca"
            }
        ],
        "token_infos": [
            {
                "address": "0x514910771af9ca656af840dff83e8264ecf986ca",
                "decimals": 18
            },
            {
                "address": "0xc02aaa39b223fe8d0a0e5c4f27ead9083c756cc2",
                "decimals": 18
            },
            {
                "address": "0xeeeeeeeeeeeeeeeeeeeeeeeeeeeeeeeeeeeeeeee",
                "decimals": 18
            },
            {
                "address": "0x1f573d6fb3f13d689ff844b4ce37794d79a7ff1c",
                "decimals": 18
            }
        ]
    },
    "address_label": {
        "labels": [
            {
                "address": "0x0000000000000000000000000000000000000002",
                "label": "Precompiled"
            },
            {
                "address": "0x0000000000000000000000000000000000000004",
                "label": "Precompiled"
            },
            {
                "address": "0x52ae12abe5d8bd778bd5397f99ca900624cfadd4",
                "label": "Bancor: Contract Registry"
            },
            {
                "address": "0xeeeeeeeeeeeeeeeeeeeeeeeeeeeeeeeeeeeeeeee",
                "label": "Ether"
            },
            {
                "address": "0x514910771af9ca656af840dff83e8264ecf986ca",
                "label": "Chainlink: LINK Token"
            },
            {
                "address": "0xda1117e28f79606637b88fd976150907d7af1aaf",
                "label": "Bancor: Converter 440"
            },
            {
                "address": "0x2f9ec37d6ccfff1cab21733bdadede11c823ccb0",
                "label": "Bancor: Swaps"
            },
            {
                "address": "0x1f573d6fb3f13d689ff844b4ce37794d79a7ff1c",
                "label": "Bancor: BNT Token"
            },
            {
                "address": "0x04d0231162b4784b706908c787ce32bd075db9b7",
                "label": "LINK / BNT Liquidity Pool (LINKBNT)"
            },
            {
                "address": "0x0000000000000000000000000000000000000001",
                "label": "Precompiled"
            },
            {
                "address": "0x0000000000000000000000000000000000000003",
                "label": "Precompiled"
            },
            {
                "address": "0x0000006daea1723962647b7e189d311d757fb793",
                "label": "Wintermute 1"
            },
            {
                "address": "0x0000000000000000000000000000000000000000",
                "label": "Null Address"
            }
        ]
    },
    "trace": {
        "accountLabels": null,
        "dataMap": {
            "-1": {
                "invocation": {
                    "address": "0x0000495194ec698fcf89ccf8abb445daf01db497",
                    "callData": "",
                    "decodedMethod": null,
                    "errorInfo": "",
                    "fromAddress": "",
                    "gasUsed": 0,
                    "id": -1,
                    "methodDecoded": false,
                    "operation": "",
                    "output": "",
                    "revert": false,
                    "revertMessage": "",
                    "selector": "",
                    "status": false,
                    "value": ""
                },
                "nodeType": 0
            },
            "0": {
                "invocation": {
                    "address": "0x0000006daea1723962647b7e189d311d757fb793",
                    "callData": "0x000000000000000000000000000000370531eee8149ed162d387aad537899ac7000000000000000000000000000000000000000000000000000000000000000000000000000000000000000000000000000000000000000000000000000000600000000000000000000000000000000000000000000000000000000000000104b9d25b9100000000000000000000000000000000000000000000000000000000000000800000000000000000000000000000000000000000000002dbf8bee896e22000000000000000000000000000000000000000000000000000cbbc99f7be6298000000000000000000000000000000000000000000000000000000000000604382eb00000000000000000000000000000000000000000000000000000000000000030000000000000000000000001f573d6fb3f13d689ff844b4ce37794d79a7ff1c00000000000000000000000004d0231162b4784b706908c787ce32bd075db9b7000000000000000000000000514910771af9ca656af840dff83e8264ecf986ca00000000000000000000000000000000000000000000000000000000",
                    "decodedMethod": null,
                    "errorInfo": "",
                    "fromAddress": "0x0000495194ec698fcf89ccf8abb445daf01db497",
                    "gasUsed": 162676,
                    "id": 0,
                    "methodDecoded": false,
                    "operation": "CALL",
                    "output": "",
                    "revert": false,
                    "revertMessage": "",
                    "selector": "0x178979ae",
                    "status": true,
                    "value": "0"
                },
                "nodeType": 0
            },
            "1": {
                "invocation": {
                    "address": "0x000000370531eee8149ed162d387aad537899ac7",
                    "callData": "0x00000000000000000000000000000000000000000000000000000000000000800000000000000000000000000000000000000000000002dbf8bee896e22000000000000000000000000000000000000000000000000000cbbc99f7be6298000000000000000000000000000000000000000000000000000000000000604382eb00000000000000000000000000000000000000000000000000000000000000030000000000000000000000001f573d6fb3f13d689ff844b4ce37794d79a7ff1c00000000000000000000000004d0231162b4784b706908c787ce32bd075db9b7000000000000000000000000514910771af9ca656af840dff83e8264ecf986ca",
                    "decodedMethod": null,
                    "errorInfo": "",
                    "fromAddress": "0x0000006daea1723962647b7e189d311d757fb793",
                    "gasUsed": 159487,
                    "id": 1,
                    "methodDecoded": false,
                    "operation": "CALL",
                    "output": "0x0000000000000000000000000000000000000000000000cd3c7cf6b25cd02232",
                    "revert": false,
                    "revertMessage": "",
                    "selector": "0xb9d25b91",
                    "status": true,
                    "value": "0"
                },
                "nodeType": 0
            },
            "10": {
                "invocation": {
                    "address": "0x04d0231162b4784b706908c787ce32bd075db9b7",
                    "callData": "0x",
                    "decodedMethod": {
                        "callParams": [],
                        "constructorArguments": "",
                        "name": "owner",
                        "returnParams": [
                            {
                                "name": "",
                                "type": "address",
                                "value": "0xda1117e28f79606637b88fd976150907d7af1aaf"
                            }
                        ],
                        "signature": "owner()"
                    },
                    "errorInfo": "",
                    "fromAddress": "0x2f9ec37d6ccfff1cab21733bdadede11c823ccb0",
                    "gasUsed": 1082,
                    "id": 10,
                    "methodDecoded": true,
                    "operation": "CALL",
                    "output": "0x000000000000000000000000da1117e28f79606637b88fd976150907d7af1aaf",
                    "revert": false,
                    "revertMessage": "",
                    "selector": "0x8da5cb5b",
                    "status": true,
                    "value": "0"
                },
                "nodeType": 0
            },
            "11": {
                "invocation": {
                    "address": "0xda1117e28f79606637b88fd976150907d7af1aaf",
                    "callData": "0x",
                    "decodedMethod": {
                        "callParams": [],
                        "constructorArguments": "",
                        "name": "isV28OrHigher",
                        "returnParams": [
                            {
                                "name": "",
                                "type": "bool",
                                "value": true
                            }
                        ],
                        "signature": "isV28OrHigher()"
                    },
                    "errorInfo": "",
                    "fromAddress": "0x2f9ec37d6ccfff1cab21733bdadede11c823ccb0",
                    "gasUsed": 271,
                    "id": 11,
                    "methodDecoded": true,
                    "operation": "STATICCALL",
                    "output": "0x0000000000000000000000000000000000000000000000000000000000000001",
                    "revert": false,
                    "revertMessage": "",
                    "selector": "0xd260529c",
                    "status": true,
                    "value": "0"
                },
                "nodeType": 0
            },
            "12": {
                "invocation": {
                    "address": "0xda1117e28f79606637b88fd976150907d7af1aaf",
                    "callData": "0x0000000000000000000000001f573d6fb3f13d689ff844b4ce37794d79a7ff1c000000000000000000000000514910771af9ca656af840dff83e8264ecf986ca0000000000000000000000000000000000000000000002dbf8bee896e2200000000000000000000000000000000000370531eee8149ed162d387aad537899ac70000000000000000000000000000006daea1723962647b7e189d311d757fb793",
                    "decodedMethod": {
                        "callParams": [
                            {
                                "name": "_sourceToken",
                                "type": "address",
                                "value": "0x1f573d6fb3f13d689ff844b4ce37794d79a7ff1c"
                            },
                            {
                                "name": "_targetToken",
                                "type": "address",
                                "value": "0x514910771af9ca656af840dff83e8264ecf986ca"
                            },
                            {
                                "name": "_amount",
                                "type": "uint256",
                                "value": "13,502,493,937,183,399,870,464"
                            },
                            {
                                "name": "_trader",
                                "type": "address",
                                "value": "0x000000370531eee8149ed162d387aad537899ac7"
                            },
                            {
                                "name": "_beneficiary",
                                "type": "address",
                                "value": "0x0000006daea1723962647b7e189d311d757fb793"
                            }
                        ],
                        "constructorArguments": "",
                        "name": "convert",
                        "returnParams": [
                            {
                                "name": "",
                                "type": "uint256",
                                "value": "3,785,941,164,895,767,634,482"
                            }
                        ],
                        "signature": "convert(address,address,uint256,address,address)"
                    },
                    "errorInfo": "",
                    "fromAddress": "0x2f9ec37d6ccfff1cab21733bdadede11c823ccb0",
                    "gasUsed": 61856,
                    "id": 12,
                    "methodDecoded": true,
                    "operation": "CALL",
                    "output": "0x0000000000000000000000000000000000000000000000cd3c7cf6b25cd02232",
                    "revert": false,
                    "revertMessage": "",
                    "selector": "0xe8dc12ff",
                    "status": true,
                    "value": "0"
                },
                "nodeType": 0
            },
            "13": {
                "invocation": {
                    "address": "0x52ae12abe5d8bd778bd5397f99ca900624cfadd4",
                    "callData": "0x42616e636f724e6574776f726b00000000000000000000000000000000000000",
                    "decodedMethod": {
                        "callParams": [
                            {
                                "name": "_contractName",
                                "type": "bytes32",
                                "value": "0x42616e636f724e6574776f726b00000000000000000000000000000000000000"
                            }
                        ],
                        "constructorArguments": "",
                        "name": "addressOf",
                        "returnParams": [
                            {
                                "name": "",
                                "type": "address",
                                "value": "0x2f9ec37d6ccfff1cab21733bdadede11c823ccb0"
                            }
                        ],
                        "signature": "addressOf(bytes32)"
                    },
                    "errorInfo": "",
                    "fromAddress": "0xda1117e28f79606637b88fd976150907d7af1aaf",
                    "gasUsed": 1561,
                    "id": 13,
                    "methodDecoded": true,
                    "operation": "STATICCALL",
                    "output": "0x0000000000000000000000002f9ec37d6ccfff1cab21733bdadede11c823ccb0",
                    "revert": false,
                    "revertMessage": "",
                    "selector": "0xbb34534c",
                    "status": true,
                    "value": "0"
                },
                "nodeType": 0
            },
            "14": {
                "invocation": {
                    "address": "0x1f573d6fb3f13d689ff844b4ce37794d79a7ff1c",
                    "callData": "0x000000000000000000000000da1117e28f79606637b88fd976150907d7af1aaf",
                    "decodedMethod": {
                        "callParams": [
                            {
                                "name": "",
                                "type": "address",
                                "value": "0xda1117e28f79606637b88fd976150907d7af1aaf"
                            }
                        ],
                        "constructorArguments": "",
                        "name": "balanceOf",
                        "returnParams": [
                            {
                                "decimalAvailable": true,
                                "name": "",
                                "type": "uint256",
                                "value": "19,586,102,020,572,721,044,627,232"
                            }
                        ],
                        "signature": "balanceOf(address)"
                    },
                    "errorInfo": "",
                    "fromAddress": "0xda1117e28f79606637b88fd976150907d7af1aaf",
                    "gasUsed": 1318,
                    "id": 14,
                    "methodDecoded": true,
                    "operation": "STATICCALL",
                    "output": "0x000000000000000000000000000000000000000000103384b7d2deef21059f20",
                    "revert": false,
                    "revertMessage": "",
                    "selector": "0x70a08231",
                    "status": true,
                    "value": "0"
                },
                "nodeType": 0
            },
            "15": {
                "invocation": {
                    "address": "0x514910771af9ca656af840dff83e8264ecf986ca",
                    "callData": "0x0000000000000000000000000000006daea1723962647b7e189d311d757fb7930000000000000000000000000000000000000000000000cd3c7cf6b25cd02232",
                    "decodedMethod": {
                        "callParams": [
                            {
                                "name": "_to",
                                "type": "address",
                                "value": "0x0000006daea1723962647b7e189d311d757fb793"
                            },
                            {
                                "decimalAvailable": true,
                                "name": "_value",
                                "type": "uint256",
                                "value": "3,785,941,164,895,767,634,482"
                            }
                        ],
                        "constructorArguments": "",
                        "name": "transfer",
                        "returnParams": [
                            {
                                "name": "success",
                                "type": "bool",
                                "value": true
                            }
                        ],
                        "signature": "transfer(address,uint256)"
                    },
                    "errorInfo": "",
                    "fromAddress": "0xda1117e28f79606637b88fd976150907d7af1aaf",
                    "gasUsed": 14945,
                    "id": 15,
                    "methodDecoded": true,
                    "operation": "CALL",
                    "output": "0x0000000000000000000000000000000000000000000000000000000000000001",
                    "revert": false,
                    "revertMessage": "",
                    "selector": "0xa9059cbb",
                    "status": true,
                    "value": "0"
                },
                "nodeType": 0
            },
            "16": {
                "event": {
                    "contract": "0x514910771af9ca656af840dff83e8264ecf986ca",
                    "decodedLog": {
                        "name": "Transfer",
                        "params": [
                            {
                                "name": "from",
                                "type": "address",
                                "value": "0xda1117e28f79606637b88fd976150907d7af1aaf"
                            },
                            {
                                "name": "to",
                                "type": "address",
                                "value": "0x0000006daea1723962647b7e189d311d757fb793"
                            },
                            {
                                "decimalAvailable": true,
                                "name": "value",
                                "type": "uint256",
                                "value": "3,785,941,164,895,767,634,482"
                            }
                        ],
                        "signature": "Transfer(address,address,uint256)"
                    },
                    "id": 16,
                    "logData": "0x0000000000000000000000000000000000000000000000cd3c7cf6b25cd02232",
                    "logDecoded": true,
                    "operation": "EVENT",
                    "revert": false,
                    "status": true,
                    "topics": [
                        "0xddf252ad1be2c89b69c2b068fc378daa952ba7f163c4a11628f55a4df523b3ef",
                        "0x000000000000000000000000da1117e28f79606637b88fd976150907d7af1aaf",
                        "0x0000000000000000000000000000006daea1723962647b7e189d311d757fb793"
                    ]
                },
                "nodeType": 1
            },
            "17": {
                "event": {
                    "contract": "0xda1117e28f79606637b88fd976150907d7af1aaf",
                    "decodedLog": {
                        "name": "Conversion",
                        "params": [
                            {
                                "name": "_fromToken",
                                "type": "address",
                                "value": "0x1f573d6fb3f13d689ff844b4ce37794d79a7ff1c"
                            },
                            {
                                "name": "_toToken",
                                "type": "address",
                                "value": "0x514910771af9ca656af840dff83e8264ecf986ca"
                            },
                            {
                                "name": "_trader",
                                "type": "address",
                                "value": "0x000000370531eee8149ed162d387aad537899ac7"
                            },
                            {
                                "name": "_amount",
                                "type": "uint256",
                                "value": "13,502,493,937,183,399,870,464"
                            },
                            {
                                "name": "_return",
                                "type": "uint256",
                                "value": "3,785,941,164,895,767,634,482"
                            },
                            {
                                "name": "_conversionFee",
                                "type": "int256",
                                "value": "7,587,056,442,676,889,047"
                            }
                        ],
                        "signature": "Conversion(address,address,address,uint256,uint256,int256)"
                    },
                    "id": 17,
                    "logData": "0x0000000000000000000000000000000000000000000002dbf8bee896e22000000000000000000000000000000000000000000000000000cd3c7cf6b25cd02232000000000000000000000000000000000000000000000000694aa3a2fc9845d7",
                    "logDecoded": true,
                    "operation": "EVENT",
                    "revert": false,
                    "status": true,
                    "topics": [
                        "0x276856b36cbc45526a0ba64f44611557a2a8b68662c5388e9fe6d72e86e1c8cb",
                        "0x0000000000000000000000001f573d6fb3f13d689ff844b4ce37794d79a7ff1c",
                        "0x000000000000000000000000514910771af9ca656af840dff83e8264ecf986ca",
                        "0x000000000000000000000000000000370531eee8149ed162d387aad537899ac7"
                    ]
                },
                "nodeType": 1
            },
            "18": {
                "invocation": {
                    "address": "0x04d0231162b4784b706908c787ce32bd075db9b7",
                    "callData": "0x",
                    "decodedMethod": {
                        "callParams": [],
                        "constructorArguments": "",
                        "name": "totalSupply",
                        "returnParams": [
                            {
                                "name": "",
                                "type": "uint256",
                                "value": "20,248,171,736,163,187,759,259,912"
                            }
                        ],
                        "signature": "totalSupply()"
                    },
                    "errorInfo": "",
                    "fromAddress": "0xda1117e28f79606637b88fd976150907d7af1aaf",
                    "gasUsed": 1066,
                    "id": 18,
                    "methodDecoded": true,
                    "operation": "STATICCALL",
                    "output": "0x00000000000000000000000000000000000000000010bfb796d9c4c5e5e82108",
                    "revert": false,
                    "revertMessage": "",
                    "selector": "0x18160ddd",
                    "status": true,
                    "value": "0"
                },
                "nodeType": 0
            },
            "19": {
                "event": {
                    "contract": "0xda1117e28f79606637b88fd976150907d7af1aaf",
                    "decodedLog": {
                        "name": "TokenRateUpdate",
                        "params": [
                            {
                                "name": "_token1",
                                "type": "address",
                                "value": "0x1f573d6fb3f13d689ff844b4ce37794d79a7ff1c"
                            },
                            {
                                "name": "_token2",
                                "type": "address",
                                "value": "0x514910771af9ca656af840dff83e8264ecf986ca"
                            },
                            {
                                "name": "_rateN",
                                "type": "uint256",
                                "value": "5,498,933,119,974,376,112,098,888"
                            },
                            {
                                "name": "_rateD",
                                "type": "uint256",
                                "value": "19,586,102,020,572,721,044,627,232"
                            }
                        ],
                        "signature": "TokenRateUpdate(address,address,uint256,uint256)"
                    },
                    "id": 19,
                    "logData": "0x000000000000000000000000000000000000000000048c71c302245f7e038e48000000000000000000000000000000000000000000103384b7d2deef21059f20",
                    "logDecoded": true,
                    "operation": "EVENT",
                    "revert": false,
                    "status": true,
                    "topics": [
                        "0x77f29993cf2c084e726f7e802da0719d6a0ade3e204badc7a3ffd57ecb768c24",
                        "0x0000000000000000000000001f573d6fb3f13d689ff844b4ce37794d79a7ff1c",
                        "0x000000000000000000000000514910771af9ca656af840dff83e8264ecf986ca"
                    ]
                },
                "nodeType": 1
            },
            "2": {
                "invocation": {
                    "address": "0x1f573d6fb3f13d689ff844b4ce37794d79a7ff1c",
                    "callData": "0x0000000000000000000000000000006daea1723962647b7e189d311d757fb793000000000000000000000000000000370531eee8149ed162d387aad537899ac70000000000000000000000000000000000000000000002dbf8bee896e2200000",
                    "decodedMethod": {
                        "callParams": [
                            {
                                "name": "_from",
                                "type": "address",
                                "value": "0x0000006daea1723962647b7e189d311d757fb793"
                            },
                            {
                                "name": "_to",
                                "type": "address",
                                "value": "0x000000370531eee8149ed162d387aad537899ac7"
                            },
                            {
                                "decimalAvailable": true,
                                "name": "_value",
                                "type": "uint256",
                                "value": "13,502,493,937,183,399,870,464"
                            }
                        ],
                        "constructorArguments": "",
                        "name": "transferFrom",
                        "returnParams": [
                            {
                                "name": "success",
                                "type": "bool",
                                "value": true
                            }
                        ],
                        "signature": "transferFrom(address,address,uint256)"
                    },
                    "errorInfo": "",
                    "fromAddress": "0x000000370531eee8149ed162d387aad537899ac7",
                    "gasUsed": 37105,
                    "id": 2,
                    "methodDecoded": true,
                    "operation": "CALL",
                    "output": "0x0000000000000000000000000000000000000000000000000000000000000001",
                    "revert": false,
                    "revertMessage": "",
                    "selector": "0x23b872dd",
                    "status": true,
                    "value": "0"
                },
                "nodeType": 0
            },
            "20": {
                "event": {
                    "contract": "0xda1117e28f79606637b88fd976150907d7af1aaf",
                    "decodedLog": {
                        "name": "TokenRateUpdate",
                        "params": [
                            {
                                "name": "_token1",
                                "type": "address",
                                "value": "0x04d0231162b4784b706908c787ce32bd075db9b7"
                            },
                            {
                                "name": "_token2",
                                "type": "address",
                                "value": "0x1f573d6fb3f13d689ff844b4ce37794d79a7ff1c"
                            },
                            {
                                "name": "_rateN",
                                "type": "uint256",
                                "value": "19,586,102,020,572,721,044,627,232"
                            },
                            {
                                "name": "_rateD",
                                "type": "uint256",
                                "value": "20,248,171,736,163,187,759,259,912"
                            }
                        ],
                        "signature": "TokenRateUpdate(address,address,uint256,uint256)"
                    },
                    "id": 20,
                    "logData": "0x000000000000000000000000000000000000000000103384b7d2deef21059f2000000000000000000000000000000000000000000010bfb796d9c4c5e5e82108",
                    "logDecoded": true,
                    "operation": "EVENT",
                    "revert": false,
                    "status": true,
                    "topics": [
                        "0x77f29993cf2c084e726f7e802da0719d6a0ade3e204badc7a3ffd57ecb768c24",
                        "0x00000000000000000000000004d0231162b4784b706908c787ce32bd075db9b7",
                        "0x0000000000000000000000001f573d6fb3f13d689ff844b4ce37794d79a7ff1c"
                    ]
                },
                "nodeType": 1
            },
            "21": {
                "event": {
                    "contract": "0xda1117e28f79606637b88fd976150907d7af1aaf",
                    "decodedLog": {
                        "name": "TokenRateUpdate",
                        "params": [
                            {
                                "name": "_token1",
                                "type": "address",
                                "value": "0x04d0231162b4784b706908c787ce32bd075db9b7"
                            },
                            {
                                "name": "_token2",
                                "type": "address",
                                "value": "0x514910771af9ca656af840dff83e8264ecf986ca"
                            },
                            {
                                "name": "_rateN",
                                "type": "uint256",
                                "value": "5,498,933,119,974,376,112,098,888"
                            },
                            {
                                "name": "_rateD",
                                "type": "uint256",
                                "value": "20,248,171,736,163,187,759,259,912"
                            }
                        ],
                        "signature": "TokenRateUpdate(address,address,uint256,uint256)"
                    },
                    "id": 21,
                    "logData": "0x000000000000000000000000000000000000000000048c71c302245f7e038e4800000000000000000000000000000000000000000010bfb796d9c4c5e5e82108",
                    "logDecoded": true,
                    "operation": "EVENT",
                    "revert": false,
                    "status": true,
                    "topics": [
                        "0x77f29993cf2c084e726f7e802da0719d6a0ade3e204badc7a3ffd57ecb768c24",
                        "0x00000000000000000000000004d0231162b4784b706908c787ce32bd075db9b7",
                        "0x000000000000000000000000514910771af9ca656af840dff83e8264ecf986ca"
                    ]
                },
                "nodeType": 1
            },
            "22": {
                "event": {
                    "contract": "0x2f9ec37d6ccfff1cab21733bdadede11c823ccb0",
                    "decodedLog": {
                        "name": "Conversion",
                        "params": [
                            {
                                "name": "_smartToken",
                                "type": "address",
                                "value": "0x04d0231162b4784b706908c787ce32bd075db9b7"
                            },
                            {
                                "name": "_fromToken",
                                "type": "address",
                                "value": "0x1f573d6fb3f13d689ff844b4ce37794d79a7ff1c"
                            },
                            {
                                "name": "_toToken",
                                "type": "address",
                                "value": "0x514910771af9ca656af840dff83e8264ecf986ca"
                            },
                            {
                                "name": "_fromAmount",
                                "type": "uint256",
                                "value": "13,502,493,937,183,399,870,464"
                            },
                            {
                                "name": "_toAmount",
                                "type": "uint256",
                                "value": "3,785,941,164,895,767,634,482"
                            },
                            {
                                "name": "_trader",
                                "type": "address",
                                "value": "0x000000370531eee8149ed162d387aad537899ac7"
                            }
                        ],
                        "signature": "Conversion(address,address,address,uint256,uint256,address)"
                    },
                    "id": 22,
                    "logData": "0x0000000000000000000000000000000000000000000002dbf8bee896e22000000000000000000000000000000000000000000000000000cd3c7cf6b25cd02232000000000000000000000000000000370531eee8149ed162d387aad537899ac7",
                    "logDecoded": true,
                    "operation": "EVENT",
                    "revert": false,
                    "status": true,
                    "topics": [
                        "0x7154b38b5dd31bb3122436a96d4e09aba5b323ae1fd580025fab55074334c095",
                        "0x00000000000000000000000004d0231162b4784b706908c787ce32bd075db9b7",
                        "0x0000000000000000000000001f573d6fb3f13d689ff844b4ce37794d79a7ff1c",
                        "0x000000000000000000000000514910771af9ca656af840dff83e8264ecf986ca"
                    ]
                },
                "nodeType": 1
            },
            "3": {
                "event": {
                    "contract": "0x1f573d6fb3f13d689ff844b4ce37794d79a7ff1c",
                    "decodedLog": {
                        "name": "Transfer",
                        "params": [
                            {
                                "name": "_from",
                                "type": "address",
                                "value": "0x0000006daea1723962647b7e189d311d757fb793"
                            },
                            {
                                "name": "_to",
                                "type": "address",
                                "value": "0x000000370531eee8149ed162d387aad537899ac7"
                            },
                            {
                                "decimalAvailable": true,
                                "name": "_value",
                                "type": "uint256",
                                "value": "13,502,493,937,183,399,870,464"
                            }
                        ],
                        "signature": "Transfer(address,address,uint256)"
                    },
                    "id": 3,
                    "logData": "0x0000000000000000000000000000000000000000000002dbf8bee896e2200000",
                    "logDecoded": true,
                    "operation": "EVENT",
                    "revert": false,
                    "status": true,
                    "topics": [
                        "0xddf252ad1be2c89b69c2b068fc378daa952ba7f163c4a11628f55a4df523b3ef",
                        "0x0000000000000000000000000000006daea1723962647b7e189d311d757fb793",
                        "0x000000000000000000000000000000370531eee8149ed162d387aad537899ac7"
                    ]
                },
                "nodeType": 1
            },
            "4": {
                "invocation": {
                    "address": "0x2f9ec37d6ccfff1cab21733bdadede11c823ccb0",
                    "callData": "0x00000000000000000000000000000000000000000000000000000000000000c00000000000000000000000000000000000000000000002dbf8bee896e22000000000000000000000000000000000000000000000000000cbbc99f7be629800000000000000000000000000000000006daea1723962647b7e189d311d757fb7930000000000000000000000000000000000000000000000000000000000000000000000000000000000000000000000000000000000000000000000000000000000000000000000000000000000000000000000000000000000000000000000030000000000000000000000001f573d6fb3f13d689ff844b4ce37794d79a7ff1c00000000000000000000000004d0231162b4784b706908c787ce32bd075db9b7000000000000000000000000514910771af9ca656af840dff83e8264ecf986ca",
                    "decodedMethod": {
                        "callParams": [
                            {
                                "name": "_path",
                                "type": "address[]",
                                "value": [
                                    "0x1f573d6fb3f13d689ff844b4ce37794d79a7ff1c",
                                    "0x04d0231162b4784b706908c787ce32bd075db9b7",
                                    "0x514910771af9ca656af840dff83e8264ecf986ca"
                                ]
                            },
                            {
                                "name": "_amount",
                                "type": "uint256",
                                "value": "13,502,493,937,183,399,870,464"
                            },
                            {
                                "name": "_minReturn",
                                "type": "uint256",
                                "value": "3,758,279,212,710,676,135,936"
                            },
                            {
                                "name": "_beneficiary",
                                "type": "address",
                                "value": "0x0000006daea1723962647b7e189d311d757fb793"
                            },
                            {
                                "name": "_affiliateAccount",
                                "type": "address",
                                "value": "0x0000000000000000000000000000000000000000"
                            },
                            {
                                "name": "_affiliateFee",
                                "type": "uint256",
                                "value": "0"
                            }
                        ],
                        "constructorArguments": "",
                        "name": "convertByPath",
                        "returnParams": [
                            {
                                "name": "",
                                "type": "uint256",
                                "value": "3,785,941,164,895,767,634,482"
                            }
                        ],
                        "signature": "convertByPath(address[],uint256,uint256,address,address,uint256)"
                    },
                    "errorInfo": "",
                    "fromAddress": "0x000000370531eee8149ed162d387aad537899ac7",
                    "gasUsed": 116023,
                    "id": 4,
                    "methodDecoded": true,
                    "operation": "CALL",
                    "output": "0x0000000000000000000000000000000000000000000000cd3c7cf6b25cd02232",
                    "revert": false,
                    "revertMessage": "",
                    "selector": "0xb77d239b",
                    "status": true,
                    "value": "0"
                },
                "nodeType": 0
            },
            "5": {
                "invocation": {
                    "address": "0x04d0231162b4784b706908c787ce32bd075db9b7",
                    "callData": "0x",
                    "decodedMethod": {
                        "callParams": [],
                        "constructorArguments": "",
                        "name": "owner",
                        "returnParams": [
                            {
                                "name": "",
                                "type": "address",
                                "value": "0xda1117e28f79606637b88fd976150907d7af1aaf"
                            }
                        ],
                        "signature": "owner()"
                    },
                    "errorInfo": "",
                    "fromAddress": "0x2f9ec37d6ccfff1cab21733bdadede11c823ccb0",
                    "gasUsed": 1082,
                    "id": 5,
                    "methodDecoded": true,
                    "operation": "CALL",
                    "output": "0x000000000000000000000000da1117e28f79606637b88fd976150907d7af1aaf",
                    "revert": false,
                    "revertMessage": "",
                    "selector": "0x8da5cb5b",
                    "status": true,
                    "value": "0"
                },
                "nodeType": 0
            },
            "6": {
                "invocation": {
                    "address": "0xda1117e28f79606637b88fd976150907d7af1aaf",
                    "callData": "0x",
                    "decodedMethod": {
                        "callParams": [],
                        "constructorArguments": "",
                        "name": "isV28OrHigher",
                        "returnParams": [
                            {
                                "name": "",
                                "type": "bool",
                                "value": true
                            }
                        ],
                        "signature": "isV28OrHigher()"
                    },
                    "errorInfo": "",
                    "fromAddress": "0x2f9ec37d6ccfff1cab21733bdadede11c823ccb0",
                    "gasUsed": 271,
                    "id": 6,
                    "methodDecoded": true,
                    "operation": "STATICCALL",
                    "output": "0x0000000000000000000000000000000000000000000000000000000000000001",
                    "revert": false,
                    "revertMessage": "",
                    "selector": "0xd260529c",
                    "status": true,
                    "value": "0"
                },
                "nodeType": 0
            },
            "7": {
                "invocation": {
                    "address": "0x1f573d6fb3f13d689ff844b4ce37794d79a7ff1c",
                    "callData": "0x000000000000000000000000000000370531eee8149ed162d387aad537899ac7000000000000000000000000da1117e28f79606637b88fd976150907d7af1aaf0000000000000000000000000000000000000000000002dbf8bee896e2200000",
                    "decodedMethod": {
                        "callParams": [
                            {
                                "name": "_from",
                                "type": "address",
                                "value": "0x000000370531eee8149ed162d387aad537899ac7"
                            },
                            {
                                "name": "_to",
                                "type": "address",
                                "value": "0xda1117e28f79606637b88fd976150907d7af1aaf"
                            },
                            {
                                "decimalAvailable": true,
                                "name": "_value",
                                "type": "uint256",
                                "value": "13,502,493,937,183,399,870,464"
                            }
                        ],
                        "constructorArguments": "",
                        "name": "transferFrom",
                        "returnParams": [
                            {
                                "name": "success",
                                "type": "bool",
                                "value": true
                            }
                        ],
                        "signature": "transferFrom(address,address,uint256)"
                    },
                    "errorInfo": "",
                    "fromAddress": "0x2f9ec37d6ccfff1cab21733bdadede11c823ccb0",
                    "gasUsed": 17905,
                    "id": 7,
                    "methodDecoded": true,
                    "operation": "CALL",
                    "output": "0x0000000000000000000000000000000000000000000000000000000000000001",
                    "revert": false,
                    "revertMessage": "",
                    "selector": "0x23b872dd",
                    "status": true,
                    "value": "0"
                },
                "nodeType": 0
            },
            "8": {
                "event": {
                    "contract": "0x1f573d6fb3f13d689ff844b4ce37794d79a7ff1c",
                    "decodedLog": {
                        "name": "Transfer",
                        "params": [
                            {
                                "name": "_from",
                                "type": "address",
                                "value": "0x000000370531eee8149ed162d387aad537899ac7"
                            },
                            {
                                "name": "_to",
                                "type": "address",
                                "value": "0xda1117e28f79606637b88fd976150907d7af1aaf"
                            },
                            {
                                "decimalAvailable": true,
                                "name": "_value",
                                "type": "uint256",
                                "value": "13,502,493,937,183,399,870,464"
                            }
                        ],
                        "signature": "Transfer(address,address,uint256)"
                    },
                    "id": 8,
                    "logData": "0x0000000000000000000000000000000000000000000002dbf8bee896e2200000",
                    "logDecoded": true,
                    "operation": "EVENT",
                    "revert": false,
                    "status": true,
                    "topics": [
                        "0xddf252ad1be2c89b69c2b068fc378daa952ba7f163c4a11628f55a4df523b3ef",
                        "0x000000000000000000000000000000370531eee8149ed162d387aad537899ac7",
                        "0x000000000000000000000000da1117e28f79606637b88fd976150907d7af1aaf"
                    ]
                },
                "nodeType": 1
            },
            "9": {
                "invocation": {
                    "address": "0x52ae12abe5d8bd778bd5397f99ca900624cfadd4",
                    "callData": "0x424e54546f6b656e000000000000000000000000000000000000000000000000",
                    "decodedMethod": {
                        "callParams": [
                            {
                                "name": "_contractName",
                                "type": "bytes32",
                                "value": "0x424e54546f6b656e000000000000000000000000000000000000000000000000"
                            }
                        ],
                        "constructorArguments": "",
                        "name": "addressOf",
                        "returnParams": [
                            {
                                "name": "",
                                "type": "address",
                                "value": "0x1f573d6fb3f13d689ff844b4ce37794d79a7ff1c"
                            }
                        ],
                        "signature": "addressOf(bytes32)"
                    },
                    "errorInfo": "",
                    "fromAddress": "0x2f9ec37d6ccfff1cab21733bdadede11c823ccb0",
                    "gasUsed": 1561,
                    "id": 9,
                    "methodDecoded": true,
                    "operation": "CALL",
                    "output": "0x0000000000000000000000001f573d6fb3f13d689ff844b4ce37794d79a7ff1c",
                    "revert": false,
                    "revertMessage": "",
                    "selector": "0xbb34534c",
                    "status": true,
                    "value": "0"
                },
                "nodeType": 0
            }
        },
        "gasFlame": [
            {
                "children": [
                    {
                        "children": [
                            {
                                "children": [],
                                "depth": 0,
                                "name": "Initial Gas",
                                "value": 23988
                            },
                            {
                                "children": [
                                    {
                                        "children": [
                                            {
                                                "children": [],
                                                "depth": 2,
                                                "name": "transferFrom",
                                                "value": 37105
                                            },
                                            {
                                                "children": [
                                                    {
                                                        "children": [],
                                                        "depth": 3,
                                                        "name": "owner",
                                                        "value": 1082
                                                    },
                                                    {
                                                        "children": [],
                                                        "depth": 3,
                                                        "name": "isV28OrHigher",
                                                        "value": 271
                                                    },
                                                    {
                                                        "children": [],
                                                        "depth": 3,
                                                        "name": "transferFrom",
                                                        "value": 17905
                                                    },
                                                    {
                                                        "children": [],
                                                        "depth": 3,
                                                        "name": "addressOf",
                                                        "value": 1561
                                                    },
                                                    {
                                                        "children": [],
                                                        "depth": 3,
                                                        "name": "owner",
                                                        "value": 1082
                                                    },
                                                    {
                                                        "children": [],
                                                        "depth": 3,
                                                        "name": "isV28OrHigher",
                                                        "value": 271
                                                    },
                                                    {
                                                        "children": [
                                                            {
                                                                "children": [],
                                                                "depth": 4,
                                                                "name": "addressOf",
                                                                "value": 1561
                                                            },
                                                            {
                                                                "children": [],
                                                                "depth": 4,
                                                                "name": "balanceOf",
                                                                "value": 1318
                                                            },
                                                            {
                                                                "children": [],
                                                                "depth": 4,
                                                                "name": "transfer",
                                                                "value": 14945
                                                            },
                                                            {
                                                                "children": [],
                                                                "depth": 4,
                                                                "name": "totalSupply",
                                                                "value": 1066
                                                            }
                                                        ],
                                                        "depth": 3,
                                                        "name": "convert",
                                                        "value": 61856
                                                    }
                                                ],
                                                "depth": 2,
                                                "name": "convertByPath",
                                                "value": 116023
                                            }
                                        ],
                                        "depth": 1,
                                        "name": "0xb9d25b91",
                                        "value": 159487
                                    }
                                ],
                                "depth": 0,
                                "name": "Executed Gas",
                                "value": 170488
                            }
                        ],
                        "depth": -1,
                        "name": "Actual Gas Used",
                        "value": 162676
                    },
                    {
                        "children": [],
                        "depth": -1,
                        "name": "Refunded Gas",
                        "value": 31800
                    }
                ],
                "depth": -2,
                "name": "Total Gas",
                "value": 194476
            }
        ],
        "isConfirmed": true,
        "mainTrace": [
            {
                "children": [
                    {
                        "children": [
                            {
                                "children": [
                                    {
                                        "children": [
                                            {
                                                "children": [],
                                                "depth": 3,
                                                "id": 3,
                                                "order": 3
                                            }
                                        ],
                                        "depth": 2,
                                        "id": 2,
                                        "order": 2
                                    },
                                    {
                                        "children": [
                                            {
                                                "children": [],
                                                "depth": 3,
                                                "id": 5,
                                                "order": 5
                                            },
                                            {
                                                "children": [],
                                                "depth": 3,
                                                "id": 6,
                                                "order": 6
                                            },
                                            {
                                                "children": [
                                                    {
                                                        "children": [],
                                                        "depth": 4,
                                                        "id": 8,
                                                        "order": 8
                                                    }
                                                ],
                                                "depth": 3,
                                                "id": 7,
                                                "order": 7
                                            },
                                            {
                                                "children": [],
                                                "depth": 3,
                                                "id": 9,
                                                "order": 9
                                            },
                                            {
                                                "children": [],
                                                "depth": 3,
                                                "id": 10,
                                                "order": 10
                                            },
                                            {
                                                "children": [],
                                                "depth": 3,
                                                "id": 11,
                                                "order": 11
                                            },
                                            {
                                                "children": [
                                                    {
                                                        "children": [],
                                                        "depth": 4,
                                                        "id": 13,
                                                        "order": 13
                                                    },
                                                    {
                                                        "children": [],
                                                        "depth": 4,
                                                        "id": 14,
                                                        "order": 14
                                                    },
                                                    {
                                                        "children": [
                                                            {
                                                                "children": [],
                                                                "depth": 5,
                                                                "id": 16,
                                                                "order": 16
                                                            }
                                                        ],
                                                        "depth": 4,
                                                        "id": 15,
                                                        "order": 15
                                                    },
                                                    {
                                                        "children": [],
                                                        "depth": 4,
                                                        "id": 17,
                                                        "order": 17
                                                    },
                                                    {
                                                        "children": [],
                                                        "depth": 4,
                                                        "id": 18,
                                                        "order": 18
                                                    },
                                                    {
                                                        "children": [],
                                                        "depth": 4,
                                                        "id": 19,
                                                        "order": 19
                                                    },
                                                    {
                                                        "children": [],
                                                        "depth": 4,
                                                        "id": 20,
                                                        "order": 20
                                                    },
                                                    {
                                                        "children": [],
                                                        "depth": 4,
                                                        "id": 21,
                                                        "order": 21
                                                    }
                                                ],
                                                "depth": 3,
                                                "id": 12,
                                                "order": 12
                                            },
                                            {
                                                "children": [],
                                                "depth": 3,
                                                "id": 22,
                                                "order": 22
                                            }
                                        ],
                                        "depth": 2,
                                        "id": 4,
                                        "order": 4
                                    }
                                ],
                                "depth": 1,
                                "id": 1,
                                "order": 1
                            }
                        ],
                        "depth": 0,
                        "id": 0,
                        "order": 0
                    }
                ],
                "depth": -1,
                "id": -1,
                "order": -1
            }
        ],
        "mainTraceNodeCount": 23,
        "parentIdMap": {
            "0": -1,
            "1": 0,
            "10": 4,
            "11": 4,
            "12": 4,
            "13": 12,
            "14": 12,
            "15": 12,
            "16": 15,
            "17": 12,
            "18": 12,
            "19": 12,
            "2": 1,
            "20": 12,
            "21": 12,
            "22": 4,
            "3": 2,
            "4": 1,
            "5": 4,
            "6": 4,
            "7": 4,
            "8": 7,
            "9": 4
        },
        "tidyTrace": [
            {
                "children": [
                    {
                        "children": [
                            {
                                "children": [
                                    {
                                        "children": [
                                            {
                                                "children": [],
                                                "depth": 3,
                                                "id": 3,
                                                "order": 3
                                            }
                                        ],
                                        "depth": 2,
                                        "id": 2,
                                        "order": 2
                                    },
                                    {
                                        "children": [
                                            {
                                                "children": [],
                                                "depth": 3,
                                                "id": 5,
                                                "order": 5
                                            },
                                            {
                                                "children": [
                                                    {
                                                        "children": [],
                                                        "depth": 4,
                                                        "id": 8,
                                                        "order": 8
                                                    }
                                                ],
                                                "depth": 3,
                                                "id": 7,
                                                "order": 7
                                            },
                                            {
                                                "children": [],
                                                "depth": 3,
                                                "id": 9,
                                                "order": 9
                                            },
                                            {
                                                "children": [],
                                                "depth": 3,
                                                "id": 10,
                                                "order": 10
                                            },
                                            {
                                                "children": [
                                                    {
                                                        "children": [
                                                            {
                                                                "children": [],
                                                                "depth": 5,
                                                                "id": 16,
                                                                "order": 16
                                                            }
                                                        ],
                                                        "depth": 4,
                                                        "id": 15,
                                                        "order": 15
                                                    },
                                                    {
                                                        "children": [],
                                                        "depth": 4,
                                                        "id": 17,
                                                        "order": 17
                                                    },
                                                    {
                                                        "children": [],
                                                        "depth": 4,
                                                        "id": 19,
                                                        "order": 19
                                                    },
                                                    {
                                                        "children": [],
                                                        "depth": 4,
                                                        "id": 20,
                                                        "order": 20
                                                    },
                                                    {
                                                        "children": [],
                                                        "depth": 4,
                                                        "id": 21,
                                                        "order": 21
                                                    }
                                                ],
                                                "depth": 3,
                                                "id": 12,
                                                "order": 12
                                            },
                                            {
                                                "children": [],
                                                "depth": 3,
                                                "id": 22,
                                                "order": 22
                                            }
                                        ],
                                        "depth": 2,
                                        "id": 4,
                                        "order": 4
                                    }
                                ],
                                "depth": 1,
                                "id": 1,
                                "order": 1
                            }
                        ],
                        "depth": 0,
                        "id": 0,
                        "order": 0
                    }
                ],
                "depth": -1,
                "id": -1,
                "order": -1
            }
        ],
        "tidyTraceNodeCount": 18
    },
    "state_change": {
        "stateChanges": [
            {
                "address": "0x1f573d6fb3f13d689ff844b4ce37794d79a7ff1c",
                "erc": "ERC-20",
                "slots": [
                    {
                        "current": "0xffffffffffffffffffffffffffffffffffffffffffd73681cda6d5720699ffff",
                        "key": "0x3a28132d30e96956e343ea2aaeb91f0b437fd9ce0fe5cbf8a04e716f41b73f13",
                        "prev": "0xffffffffffffffffffffffffffffffffffffffffffd7395dc665be08e8b9ffff"
                    },
                    {
                        "current": "0x000000000000000000000000000000000000000000000b94c1e5c8f504ec5b03",
                        "key": "0x2b597f00b5b2aa581481e1e4638466adf86c9138ef6e61613886ed9beb4062b1",
                        "prev": "0x000000000000000000000000000000000000000000000e70baa4b18be70c5b03"
                    },
                    {
                        "current": "0x000000000000000000000000000000000000000000103384b7d2deef21059f20",
                        "key": "0xce1c5788f1ebf6c7c0ed28ff3742c7238f3bc56244000d0476bd6057ad012d46",
                        "prev": "0x0000000000000000000000000000000000000000001030a8bf13f6583ee59f20"
                    },
                    {
                        "current": "0xffffffffffffffffffffffffffffffffffffffffffa0e9aaa62ecc77cc81ffff",
                        "key": "0xc3528755ff31abbf14744706aa7ac42df4219ff44691da3a6a0a4fbe22bb45aa",
                        "prev": "0xffffffffffffffffffffffffffffffffffffffffffa0ec869eedb50eaea1ffff"
                    }
                ],
                "storageVariables": []
            },
            {
                "address": "0x514910771af9ca656af840dff83e8264ecf986ca",
                "erc": "",
                "slots": [
                    {
                        "current": "0x000000000000000000000000000000000000000000048c71c302245f7e038e48",
                        "key": "0x7a4eae32f49baa83f207987a6c9794fac50b348940fb382ece82a2f83ecbe073",
                        "prev": "0x000000000000000000000000000000000000000000048d3eff7f1b11dad3b07a"
                    },
                    {
                        "current": "0x000000000000000000000000000000000000000000000395f6738caee9b8500f",
                        "key": "0xdb9cc499110f3e1296ed3f4087c697a4f6caad6729009e2e2a60d02b32258848",
                        "prev": "0x0000000000000000000000000000000000000000000002c8b9f695fc8ce82ddd"
                    }
                ],
                "storageVariables": [
                    {
                        "name": "balances",
                        "type": "mapping(address => uint256)",
                        "value": {
                            "pairs": [
                                {
                                    "key": "0x0000006daea1723962647b7e189d311d757fb793",
                                    "value": {
                                        "current": "16933423008030184198159",
                                        "prev": "13147481843134416563677",
                                        "typeTag": 1
                                    }
                                },
                                {
                                    "key": "0xda1117e28f79606637b88fd976150907d7af1aaf",
                                    "value": {
                                        "current": "5498933119974376112098888",
                                        "prev": "5502719061139271879733370",
                                        "typeTag": 1
                                    }
                                }
                            ],
                            "typeTag": 4
                        }
                    }
                ]
            },
            {
                "address": "0xda1117e28f79606637b88fd976150907d7af1aaf",
                "erc": "",
                "slots": [
                    {
                        "current": "0x0000000000103384b7d2deef21059f200000000000048c71c302245f7e038e48",
                        "key": "0x0000000000000000000000000000000000000000000000000000000000000005",
                        "prev": "0x00000000001030a8bf13f6583ee59f200000000000048d3eff7f1b11dad3b07a"
                    },
                    {
                        "current": "0x604382750000001030a8bf13f6583ee59f20000000048d3eff7f1b11dad3b07a",
                        "key": "0x0000000000000000000000000000000000000000000000000000000000000009",
                        "prev": "0x60437f20c7c5c2cf77f509183aad4911e595383a3d30880af6e7c552b6ee1a6a"
                    }
                ],
                "storageVariables": [
                    {
                        "name": "__reserveBalances",
                        "type": "uint256",
                        "value": {
                            "current": "6664805154315460892186884526459116213822119504839710294984068680",
                            "prev": "6660210493719180503483605731367980510305938023696903687390867578",
                            "typeTag": 1
                        }
                    },
                    {
                        "name": "averageRateInfo",
                        "type": "uint256",
                        "value": {
                            "current": "43541312598672567965465169840620558593161179412278217248494404990362459549818",
                            "prev": "43541289622876560974115614224253884823056887108080787688143300758393991338602",
                            "typeTag": 1
                        }
                    }
                ]
            }
        ]
    }
}