{
    "balance_change": {
        "balanceChanges": [
            {
                "account": "0x2289d68dfb7dff5d12683b3ebbe279563542aefe",
                "assets": [
                    {
                        "address": "0x201b5b64438843553e3c3671810ae671c93c685c",
                        "amount": "56.569545528744821527",
                        "iconUrl": "",
                        "isERC1155": false,
                        "isERC721": false,
                        "sign": false,
                        "value": "192.1956733"
                    },
                    {
                        "address": "0xeeeeeeeeeeeeeeeeeeeeeeeeeeeeeeeeeeeeeeee",
                        "amount": "0.087834208782430071",
                        "iconUrl": "https://assets.blocksec.com/image/1663669189317-3.png",
                        "isERC1155": false,
                        "isERC721": false,
                        "sign": true,
                        "value": "181.28313512325529894"
                    }
                ]
            },
            {
                "account": "0x000000000000000000000000000000000000dead",
                "assets": [
                    {
                        "address": "0x201b5b64438843553e3c3671810ae671c93c685c",
                        "amount": "0.565695455287448215",
                        "iconUrl": "",
                        "isERC1155": false,
                        "isERC721": false,
                        "sign": true,
                        "value": "1.96931853"
                    }
                ]
            },
            {
                "account": "0x14f05052f87e634f162f3d7620d9447049eea582",
                "assets": [
                    {
                        "address": "0xeeeeeeeeeeeeeeeeeeeeeeeeeeeeeeeeeeeeeeee",
                        "amount": "0.078610015237060427",
                        "iconUrl": "https://assets.blocksec.com/image/1663669189317-3.png",
                        "isERC1155": false,
                        "isERC721": false,
                        "sign": true,
                        "value": "162.2451003172124018"
                    }
                ]
            },
            {
                "account": "0x201b5b64438843553e3c3671810ae671c93c685c",
                "assets": [
                    {
                        "address": "0x201b5b64438843553e3c3671810ae671c93c685c",
                        "amount": "43.358288668275310709",
                        "iconUrl": "",
                        "isERC1155": false,
                        "isERC721": false,
                        "sign": false,
                        "value": "150.4683331"
                    }
                ]
            },
            {
                "account": "0xc02aaa39b223fe8d0a0e5c4f27ead9083c756cc2",
                "assets": [
                    {
                        "address": "0xeeeeeeeeeeeeeeeeeeeeeeeeeeeeeeeeeeeeeeee",
                        "amount": "0.166444224019490498",
                        "iconUrl": "https://assets.blocksec.com/image/1663669189317-3.png",
                        "isERC1155": false,
                        "isERC721": false,
                        "sign": false,
                        "value": "343.52823539918921988"
                    },
                    {
                        "address": "0xc02aaa39b223fe8d0a0e5c4f27ead9083c756cc2",
                        "amount": "0.166444224019490498",
                        "iconUrl": "https://assets.blocksec.com/icon/f1cb2d02c471d545bbc7722daf3277fd852d98e63d118771af7047bd8256c516.png",
                        "isERC1155": false,
                        "isERC721": false,
                        "sign": true,
                        "value": "343.52823539918921988"
                    }
                ]
            },
            {
                "account": "0xec2895df12b25970640a179a680dd74094b39aba",
                "assets": [
                    {
                        "address": "0x201b5b64438843553e3c3671810ae671c93c685c",
                        "amount": "99.362138741732684021",
                        "iconUrl": "",
                        "isERC1155": false,
                        "isERC721": false,
                        "sign": true,
                        "value": "341.3388786"
                    },
                    {
                        "address": "0xc02aaa39b223fe8d0a0e5c4f27ead9083c756cc2",
                        "amount": "0.166444224019490498",
                        "iconUrl": "https://assets.blocksec.com/icon/f1cb2d02c471d545bbc7722daf3277fd852d98e63d118771af7047bd8256c516.png",
                        "isERC1155": false,
                        "isERC721": false,
                        "sign": false,
                        "value": "343.52823539918921988"
                    }
                ]
            }
        ]
    },
    "profile": {
        "basic_info": {
            "baseFee": "39.418810066",
            "blockNumber": 18631805,
            "callData": "0x3593564c000000000000000000000000000000000000000000000000000000000000006000000000000000000000000000000000000000000000000000000000000000a000000000000000000000000000000000000000000000000000000000655eca730000000000000000000000000000000000000000000000000000000000000002080c00000000000000000000000000000000000000000000000000000000000000000000000000000000000000000000000000000000000000000000000000020000000000000000000000000000000000000000000000000000000000000040000000000000000000000000000000000000000000000000000000000000016000000000000000000000000000000000000000000000000000000000000001000000000000000000000000000000000000000000000000000000000000000002000000000000000000000000000000000000000000000003110f65f0aa1f4317000000000000000000000000000000000000000000000000013038b616316f1600000000000000000000000000000000000000000000000000000000000000a000000000000000000000000000000000000000000000000000000000000000010000000000000000000000000000000000000000000000000000000000000002000000000000000000000000201b5b64438843553e3c3671810ae671c93c685c000000000000000000000000c02aaa39b223fe8d0a0e5c4f27ead9083c756cc200000000000000000000000000000000000000000000000000000000000000400000000000000000000000000000000000000000000000000000000000000001000000000000000000000000000000000000000000000000011e2cab48f1c172",
            "debugEnable": true,
            "errorInfo": "",
            "eventCount": 12,
            "feeRecipient": "0x4838b106fce9647bdf1e7877bf73ce8b0bad5f97",
            "formatValue": "0",
            "gasLimit": 340486,
            "gasPrice": "39.518810066",
            "gasUsed": 225741,
            "intTxnCount": 28,
            "internalRevert": false,
            "internalRevertMessage": "",
            "isContractCreation": false,
            "isFlashloan": false,
            "maxFee": "55.288332315",
            "nonce": 228,
            "overwritedBlockNumber": -1,
            "priorityFee": "0.1",
            "receiver": "0x3fc91a3afd70395cd496c647d5a6cc9d4b2b7fad",
            "revertMessage": "",
            "sender": "0x2289d68dfb7dff5d12683b3ebbe279563542aefe",
            "simulationEnable": true,
            "sourceTxnHash": "0x6e7b2fe269efa506b620519bfc2667dc6b69f1b451fa2bfbea0e6fc3a8059fac",
            "status": true,
            "timestamp": "2023-11-23T03:39:11Z",
            "transactionFee": "0.008921015703108906",
            "txnHash": "0x6e7b2fe269efa506b620519bfc2667dc6b69f1b451fa2bfbea0e6fc3a8059fac",
            "txnIndex": 66,
            "type": 2,
            "value": "0"
        },
        "fund_flow": [
            {
                "amount": "46.7524614",
                "from": "0x201b5b64438843553e3c3671810ae671c93c685c",
                "id": 1,
                "isERC1155": false,
                "isERC721": false,
                "isReverted": false,
                "order": 1,
                "to": "0xec2895df12b25970640a179a680dd74094b39aba",
                "token": "0x201b5b64438843553e3c3671810ae671c93c685c"
            },
            {
                "amount": "0.078610015237060427",
                "from": "0xec2895df12b25970640a179a680dd74094b39aba",
                "id": 2,
                "isERC1155": false,
                "isERC721": false,
                "isReverted": false,
                "order": 2,
                "to": "0x7a250d5630b4cf539739df2c5dacb4c659f2488d",
                "token": "0xc02aaa39b223fe8d0a0e5c4f27ead9083c756cc2"
            },
            {
                "amount": "0.078610015237060427",
                "from": "0xc02aaa39b223fe8d0a0e5c4f27ead9083c756cc2",
                "id": 3,
                "isERC1155": false,
                "isERC721": false,
                "isReverted": false,
                "order": 3,
                "to": "0x7a250d5630b4cf539739df2c5dacb4c659f2488d",
                "token": "0xeeeeeeeeeeeeeeeeeeeeeeeeeeeeeeeeeeeeeeee"
            },
            {
                "amount": "0.078610015237060427",
                "from": "0x7a250d5630b4cf539739df2c5dacb4c659f2488d",
                "id": 4,
                "isERC1155": false,
                "isERC721": false,
                "isReverted": false,
                "order": 4,
                "to": "0xc02aaa39b223fe8d0a0e5c4f27ead9083c756cc2",
                "token": "0xc02aaa39b223fe8d0a0e5c4f27ead9083c756cc2"
            },
            {
                "amount": "0.078610015237060427",
                "from": "0x7a250d5630b4cf539739df2c5dacb4c659f2488d",
                "id": 5,
                "isERC1155": false,
                "isERC721": false,
                "isReverted": false,
                "order": 5,
                "to": "0x201b5b64438843553e3c3671810ae671c93c685c",
                "token": "0xeeeeeeeeeeeeeeeeeeeeeeeeeeeeeeeeeeeeeeee"
            },
            {
                "amount": "0.078610015237060427",
                "from": "0x201b5b64438843553e3c3671810ae671c93c685c",
                "id": 6,
                "isERC1155": false,
                "isERC721": false,
                "isReverted": false,
                "order": 6,
                "to": "0x14f05052f87e634f162f3d7620d9447049eea582",
                "token": "0xeeeeeeeeeeeeeeeeeeeeeeeeeeeeeeeeeeeeeeee"
            },
            {
                "amount": "3.959868187012137506",
                "from": "0x2289d68dfb7dff5d12683b3ebbe279563542aefe",
                "id": 7,
                "isERC1155": false,
                "isERC721": false,
                "isReverted": false,
                "order": 7,
                "to": "0x201b5b64438843553e3c3671810ae671c93c685c",
                "token": "0x201b5b64438843553e3c3671810ae671c93c685c"
            },
            {
                "amount": "0.565695455287448215",
                "from": "0x201b5b64438843553e3c3671810ae671c93c685c",
                "id": 8,
                "isERC1155": false,
                "isERC721": false,
                "isReverted": false,
                "order": 8,
                "to": "0x000000000000000000000000000000000000dead",
                "token": "0x201b5b64438843553e3c3671810ae671c93c685c"
            },
            {
                "amount": "52.609677341732684021",
                "from": "0x2289d68dfb7dff5d12683b3ebbe279563542aefe",
                "id": 9,
                "isERC1155": false,
                "isERC721": false,
                "isReverted": false,
                "order": 9,
                "to": "0xec2895df12b25970640a179a680dd74094b39aba",
                "token": "0x201b5b64438843553e3c3671810ae671c93c685c"
            },
            {
                "amount": "0.087834208782430071",
                "from": "0xec2895df12b25970640a179a680dd74094b39aba",
                "id": 10,
                "isERC1155": false,
                "isERC721": false,
                "isReverted": false,
                "order": 10,
                "to": "0x3fc91a3afd70395cd496c647d5a6cc9d4b2b7fad",
                "token": "0xc02aaa39b223fe8d0a0e5c4f27ead9083c756cc2"
            },
            {
                "amount": "0.087834208782430071",
                "from": "0xc02aaa39b223fe8d0a0e5c4f27ead9083c756cc2",
                "id": 11,
                "isERC1155": false,
                "isERC721": false,
                "isReverted": false,
                "order": 11,
                "to": "0x3fc91a3afd70395cd496c647d5a6cc9d4b2b7fad",
                "token": "0xeeeeeeeeeeeeeeeeeeeeeeeeeeeeeeeeeeeeeeee"
            },
            {
                "amount": "0.087834208782430071",
                "from": "0x3fc91a3afd70395cd496c647d5a6cc9d4b2b7fad",
                "id": 12,
                "isERC1155": false,
                "isERC721": false,
                "isReverted": false,
                "order": 12,
                "to": "0xc02aaa39b223fe8d0a0e5c4f27ead9083c756cc2",
                "token": "0xc02aaa39b223fe8d0a0e5c4f27ead9083c756cc2"
            },
            {
                "amount": "0.087834208782430071",
                "from": "0x3fc91a3afd70395cd496c647d5a6cc9d4b2b7fad",
                "id": 13,
                "isERC1155": false,
                "isERC721": false,
                "isReverted": false,
                "order": 13,
                "to": "0x2289d68dfb7dff5d12683b3ebbe279563542aefe",
                "token": "0xeeeeeeeeeeeeeeeeeeeeeeeeeeeeeeeeeeeeeeee"
            }
        ],
        "token_infos": [
            {
                "address": "0x201b5b64438843553e3c3671810ae671c93c685c",
                "decimals": 18
            },
            {
                "address": "0xc02aaa39b223fe8d0a0e5c4f27ead9083c756cc2",
                "decimals": 18
            },
            {
                "address": "0xeeeeeeeeeeeeeeeeeeeeeeeeeeeeeeeeeeeeeeee",
                "decimals": 18
            }
        ]
    },
    "address_label": {
        "labels": [
            {
                "address": "0xc02aaa39b223fe8d0a0e5c4f27ead9083c756cc2",
                "label": "Wrapped Ether (WETH)"
            },
            {
                "address": "0xec2895df12b25970640a179a680dd74094b39aba",
                "label": "Uniswap V2: Megabot 3"
            },
            {
                "address": "0x0000000000000000000000000000000000000002",
                "label": "Precompiled"
            },
            {
                "address": "0x000000000022d473030f116ddee9f6b43ac78ba3",
                "label": "Permit2"
            },
            {
                "address": "0x201b5b64438843553e3c3671810ae671c93c685c",
                "label": "Megabot: Megabot Token"
            },
            {
                "address": "0x3fc91a3afd70395cd496c647d5a6cc9d4b2b7fad",
                "label": "Uniswap: Universal Router"
            },
            {
                "address": "0x7a250d5630b4cf539739df2c5dacb4c659f2488d",
                "label": "Uniswap V2: Router 2"
            },
            {
                "address": "0x0000000000000000000000000000000000000001",
                "label": "Precompiled"
            },
            {
                "address": "0x0000000000000000000000000000000000000003",
                "label": "Precompiled"
            },
            {
                "address": "0x0000000000000000000000000000000000000004",
                "label": "Precompiled"
            },
            {
                "address": "0xeeeeeeeeeeeeeeeeeeeeeeeeeeeeeeeeeeeeeeee",
                "label": "Ether"
            }
        ]
    },
    "trace": {
        "accountLabels": null,
        "dataMap": {
            "-1": {
                "invocation": {
                    "address": "0x2289d68dfb7dff5d12683b3ebbe279563542aefe",
                    "callData": "",
                    "decodedMethod": null,
                    "errorInfo": "",
                    "fromAddress": "",
                    "gasUsed": 0,
                    "id": -1,
                    "methodDecoded": false,
                    "operation": "",
                    "output": "",
                    "revert": false,
                    "revertMessage": "",
                    "selector": "",
                    "status": false,
                    "value": ""
                },
                "nodeType": 0
            },
            "0": {
                "invocation": {
                    "address": "0x3fc91a3afd70395cd496c647d5a6cc9d4b2b7fad",
                    "callData": "0x000000000000000000000000000000000000000000000000000000000000006000000000000000000000000000000000000000000000000000000000000000a000000000000000000000000000000000000000000000000000000000655eca730000000000000000000000000000000000000000000000000000000000000002080c00000000000000000000000000000000000000000000000000000000000000000000000000000000000000000000000000000000000000000000000000020000000000000000000000000000000000000000000000000000000000000040000000000000000000000000000000000000000000000000000000000000016000000000000000000000000000000000000000000000000000000000000001000000000000000000000000000000000000000000000000000000000000000002000000000000000000000000000000000000000000000003110f65f0aa1f4317000000000000000000000000000000000000000000000000013038b616316f1600000000000000000000000000000000000000000000000000000000000000a000000000000000000000000000000000000000000000000000000000000000010000000000000000000000000000000000000000000000000000000000000002000000000000000000000000201b5b64438843553e3c3671810ae671c93c685c000000000000000000000000c02aaa39b223fe8d0a0e5c4f27ead9083c756cc200000000000000000000000000000000000000000000000000000000000000400000000000000000000000000000000000000000000000000000000000000001000000000000000000000000000000000000000000000000011e2cab48f1c172",
                    "decodedMethod": {
                        "callParams": [
                            {
                                "name": "commands",
                                "type": "bytes",
                                "value": "0x080c"
                            },
                            {
                                "name": "inputs",
                                "type": "bytes[]",
                                "value": [
                                    "0x0000000000000000000000000000000000000000000000000000000000000002000000000000000000000000000000000000000000000003110f65f0aa1f4317000000000000000000000000000000000000000000000000013038b616316f1600000000000000000000000000000000000000000000000000000000000000a000000000000000000000000000000000000000000000000000000000000000010000000000000000000000000000000000000000000000000000000000000002000000000000000000000000201b5b64438843553e3c3671810ae671c93c685c000000000000000000000000c02aaa39b223fe8d0a0e5c4f27ead9083c756cc2",
                                    "0x0000000000000000000000000000000000000000000000000000000000000001000000000000000000000000000000000000000000000000011e2cab48f1c172"
                                ]
                            },
                            {
                                "name": "deadline",
                                "type": "uint256",
                                "value": "1,700,711,027"
                            }
                        ],
                        "constructorArguments": "",
                        "name": "execute",
                        "returnParams": [],
                        "signature": "execute(bytes,bytes[],uint256)"
                    },
                    "errorInfo": "",
                    "fromAddress": "0x2289d68dfb7dff5d12683b3ebbe279563542aefe",
                    "gasUsed": 225741,
                    "id": 0,
                    "methodDecoded": true,
                    "operation": "CALL",
                    "output": "",
                    "revert": false,
                    "revertMessage": "",
                    "selector": "0x3593564c",
                    "status": true,
                    "value": "0"
                },
                "nodeType": 0
            },
            "1": {
                "invocation": {
                    "address": "0x000000000022d473030f116ddee9f6b43ac78ba3",
                    "callData": "0x0000000000000000000000002289d68dfb7dff5d12683b3ebbe279563542aefe000000000000000000000000ec2895df12b25970640a179a680dd74094b39aba000000000000000000000000000000000000000000000003110f65f0aa1f4317000000000000000000000000201b5b64438843553e3c3671810ae671c93c685c",
                    "decodedMethod": {
                        "callParams": [
                            {
                                "name": "from",
                                "type": "address",
                                "value": "0x2289d68dfb7dff5d12683b3ebbe279563542aefe"
                            },
                            {
                                "name": "to",
                                "type": "address",
                                "value": "0xec2895df12b25970640a179a680dd74094b39aba"
                            },
                            {
                                "name": "amount",
                                "type": "uint160",
                                "value": "56,569,545,528,744,821,527"
                            },
                            {
                                "name": "token",
                                "type": "address",
                                "value": "0x201b5b64438843553e3c3671810ae671c93c685c"
                            }
                        ],
                        "constructorArguments": "",
                        "name": "transferFrom",
                        "returnParams": [],
                        "signature": "transferFrom(address,address,uint160,address)"
                    },
                    "errorInfo": "",
                    "fromAddress": "0x3fc91a3afd70395cd496c647d5a6cc9d4b2b7fad",
                    "gasUsed": 182394,
                    "id": 1,
                    "methodDecoded": true,
                    "operation": "CALL",
                    "output": "",
                    "revert": false,
                    "revertMessage": "",
                    "selector": "0x36c78516",
                    "status": true,
                    "value": "0"
                },
                "nodeType": 0
            },
            "10": {
                "invocation": {
                    "address": "0xc02aaa39b223fe8d0a0e5c4f27ead9083c756cc2",
                    "callData": "0x0000000000000000000000007a250d5630b4cf539739df2c5dacb4c659f2488d0000000000000000000000000000000000000000000000000117476471fe374b",
                    "decodedMethod": {
                        "callParams": [
                            {
                                "name": "dst",
                                "type": "address",
                                "value": "0x7a250d5630b4cf539739df2c5dacb4c659f2488d"
                            },
                            {
                                "decimalAvailable": true,
                                "name": "wad",
                                "type": "uint256",
                                "value": "78,610,015,237,060,427"
                            }
                        ],
                        "constructorArguments": "",
                        "name": "transfer",
                        "returnParams": [
                            {
                                "name": "",
                                "type": "bool",
                                "value": true
                            }
                        ],
                        "signature": "transfer(address,uint256)"
                    },
                    "errorInfo": "",
                    "fromAddress": "0xec2895df12b25970640a179a680dd74094b39aba",
                    "gasUsed": 29962,
                    "id": 10,
                    "methodDecoded": true,
                    "operation": "CALL",
                    "output": "0x0000000000000000000000000000000000000000000000000000000000000001",
                    "revert": false,
                    "revertMessage": "",
                    "selector": "0xa9059cbb",
                    "status": true,
                    "value": "0"
                },
                "nodeType": 0
            },
            "11": {
                "event": {
                    "contract": "0xc02aaa39b223fe8d0a0e5c4f27ead9083c756cc2",
                    "decodedLog": {
                        "name": "Transfer",
                        "params": [
                            {
                                "name": "src",
                                "type": "address",
                                "value": "0xec2895df12b25970640a179a680dd74094b39aba"
                            },
                            {
                                "name": "dst",
                                "type": "address",
                                "value": "0x7a250d5630b4cf539739df2c5dacb4c659f2488d"
                            },
                            {
                                "decimalAvailable": true,
                                "name": "wad",
                                "type": "uint256",
                                "value": "78,610,015,237,060,427"
                            }
                        ],
                        "signature": "Transfer(address,address,uint256)"
                    },
                    "id": 11,
                    "logData": "0x0000000000000000000000000000000000000000000000000117476471fe374b",
                    "logDecoded": true,
                    "operation": "EVENT",
                    "revert": false,
                    "status": true,
                    "topics": [
                        "0xddf252ad1be2c89b69c2b068fc378daa952ba7f163c4a11628f55a4df523b3ef",
                        "0x000000000000000000000000ec2895df12b25970640a179a680dd74094b39aba",
                        "0x0000000000000000000000007a250d5630b4cf539739df2c5dacb4c659f2488d"
                    ]
                },
                "nodeType": 1
            },
            "12": {
                "invocation": {
                    "address": "0x201b5b64438843553e3c3671810ae671c93c685c",
                    "callData": "0x000000000000000000000000ec2895df12b25970640a179a680dd74094b39aba",
                    "decodedMethod": {
                        "callParams": [
                            {
                                "name": "account",
                                "type": "address",
                                "value": "0xec2895df12b25970640a179a680dd74094b39aba"
                            }
                        ],
                        "constructorArguments": "",
                        "name": "balanceOf",
                        "returnParams": [
                            {
                                "decimalAvailable": true,
                                "name": "",
                                "type": "uint256",
                                "value": "14,006,656,842,614,902,738,541"
                            }
                        ],
                        "signature": "balanceOf(address)"
                    },
                    "errorInfo": "",
                    "fromAddress": "0xec2895df12b25970640a179a680dd74094b39aba",
                    "gasUsed": 864,
                    "id": 12,
                    "methodDecoded": true,
                    "operation": "STATICCALL",
                    "output": "0x0000000000000000000000000000000000000000000002f74d695be8e7b5ce6d",
                    "revert": false,
                    "revertMessage": "",
                    "selector": "0x70a08231",
                    "status": true,
                    "value": "0"
                },
                "nodeType": 0
            },
            "13": {
                "invocation": {
                    "address": "0xc02aaa39b223fe8d0a0e5c4f27ead9083c756cc2",
                    "callData": "0x000000000000000000000000ec2895df12b25970640a179a680dd74094b39aba",
                    "decodedMethod": {
                        "callParams": [
                            {
                                "name": "",
                                "type": "address",
                                "value": "0xec2895df12b25970640a179a680dd74094b39aba"
                            }
                        ],
                        "constructorArguments": "",
                        "name": "balanceOf",
                        "returnParams": [
                            {
                                "decimalAvailable": true,
                                "name": "",
                                "type": "uint256",
                                "value": "23,542,939,435,844,562,831"
                            }
                        ],
                        "signature": "balanceOf(address)"
                    },
                    "errorInfo": "",
                    "fromAddress": "0xec2895df12b25970640a179a680dd74094b39aba",
                    "gasUsed": 534,
                    "id": 13,
                    "methodDecoded": true,
                    "operation": "STATICCALL",
                    "output": "0x00000000000000000000000000000000000000000000000146b952ae5a0cef8f",
                    "revert": false,
                    "revertMessage": "",
                    "selector": "0x70a08231",
                    "status": true,
                    "value": "0"
                },
                "nodeType": 0
            },
            "14": {
                "event": {
                    "contract": "0xec2895df12b25970640a179a680dd74094b39aba",
                    "decodedLog": {
                        "name": "Sync",
                        "params": [
                            {
                                "name": "reserve0",
                                "type": "uint112",
                                "value": "14,006,656,842,614,902,738,541"
                            },
                            {
                                "name": "reserve1",
                                "type": "uint112",
                                "value": "23,542,939,435,844,562,831"
                            }
                        ],
                        "signature": "Sync(uint112,uint112)"
                    },
                    "id": 14,
                    "logData": "0x0000000000000000000000000000000000000000000002f74d695be8e7b5ce6d00000000000000000000000000000000000000000000000146b952ae5a0cef8f",
                    "logDecoded": true,
                    "operation": "EVENT",
                    "revert": false,
                    "status": true,
                    "topics": [
                        "0x1c411e9a96e071241c2f21f7726b17ae89e3cab4c78be50e062b03a9fffbbad1"
                    ]
                },
                "nodeType": 1
            },
            "15": {
                "event": {
                    "contract": "0xec2895df12b25970640a179a680dd74094b39aba",
                    "decodedLog": {
                        "name": "Swap",
                        "params": [
                            {
                                "name": "sender",
                                "type": "address",
                                "value": "0x7a250d5630b4cf539739df2c5dacb4c659f2488d"
                            },
                            {
                                "name": "to",
                                "type": "address",
                                "value": "0x7a250d5630b4cf539739df2c5dacb4c659f2488d"
                            },
                            {
                                "name": "amount0In",
                                "type": "uint256",
                                "value": "46,752,461,400,000,000,000"
                            },
                            {
                                "name": "amount1In",
                                "type": "uint256",
                                "value": "0"
                            },
                            {
                                "name": "amount0Out",
                                "type": "uint256",
                                "value": "0"
                            },
                            {
                                "name": "amount1Out",
                                "type": "uint256",
                                "value": "78,610,015,237,060,427"
                            }
                        ],
                        "signature": "Swap(address,uint256,uint256,uint256,uint256,address)"
                    },
                    "id": 15,
                    "logData": "0x00000000000000000000000000000000000000000000000288d21bf02a297000000000000000000000000000000000000000000000000000000000000000000000000000000000000000000000000000000000000000000000000000000000000000000000000000000000000000000000000000000000000117476471fe374b",
                    "logDecoded": true,
                    "operation": "EVENT",
                    "revert": false,
                    "status": true,
                    "topics": [
                        "0xd78ad95fa46c994b6551d0da85fc275fe613ce37657fb8d5e3d130840159d822",
                        "0x0000000000000000000000007a250d5630b4cf539739df2c5dacb4c659f2488d",
                        "0x0000000000000000000000007a250d5630b4cf539739df2c5dacb4c659f2488d"
                    ]
                },
                "nodeType": 1
            },
            "16": {
                "invocation": {
                    "address": "0xc02aaa39b223fe8d0a0e5c4f27ead9083c756cc2",
                    "callData": "0x0000000000000000000000007a250d5630b4cf539739df2c5dacb4c659f2488d",
                    "decodedMethod": {
                        "callParams": [
                            {
                                "name": "",
                                "type": "address",
                                "value": "0x7a250d5630b4cf539739df2c5dacb4c659f2488d"
                            }
                        ],
                        "constructorArguments": "",
                        "name": "balanceOf",
                        "returnParams": [
                            {
                                "decimalAvailable": true,
                                "name": "",
                                "type": "uint256",
                                "value": "78,610,015,237,060,427"
                            }
                        ],
                        "signature": "balanceOf(address)"
                    },
                    "errorInfo": "",
                    "fromAddress": "0x7a250d5630b4cf539739df2c5dacb4c659f2488d",
                    "gasUsed": 534,
                    "id": 16,
                    "methodDecoded": true,
                    "operation": "STATICCALL",
                    "output": "0x0000000000000000000000000000000000000000000000000117476471fe374b",
                    "revert": false,
                    "revertMessage": "",
                    "selector": "0x70a08231",
                    "status": true,
                    "value": "0"
                },
                "nodeType": 0
            },
            "17": {
                "invocation": {
                    "address": "0xc02aaa39b223fe8d0a0e5c4f27ead9083c756cc2",
                    "callData": "0x0000000000000000000000000000000000000000000000000117476471fe374b",
                    "decodedMethod": {
                        "callParams": [
                            {
                                "name": "wad",
                                "type": "uint256",
                                "value": "78,610,015,237,060,427"
                            }
                        ],
                        "constructorArguments": "",
                        "name": "withdraw",
                        "returnParams": [],
                        "signature": "withdraw(uint256)"
                    },
                    "errorInfo": "",
                    "fromAddress": "0x7a250d5630b4cf539739df2c5dacb4c659f2488d",
                    "gasUsed": 9223,
                    "id": 17,
                    "methodDecoded": true,
                    "operation": "CALL",
                    "output": "",
                    "revert": false,
                    "revertMessage": "",
                    "selector": "0x2e1a7d4d",
                    "status": true,
                    "value": "0"
                },
                "nodeType": 0
            },
            "18": {
                "invocation": {
                    "address": "0x7a250d5630b4cf539739df2c5dacb4c659f2488d",
                    "callData": "0x",
                    "decodedMethod": null,
                    "errorInfo": "",
                    "fromAddress": "0xc02aaa39b223fe8d0a0e5c4f27ead9083c756cc2",
                    "gasUsed": 83,
                    "id": 18,
                    "methodDecoded": false,
                    "operation": "CALL",
                    "output": "",
                    "revert": false,
                    "revertMessage": "",
                    "selector": "fallback",
                    "status": true,
                    "value": "0.078610015237060427"
                },
                "nodeType": 0
            },
            "19": {
                "event": {
                    "contract": "0xc02aaa39b223fe8d0a0e5c4f27ead9083c756cc2",
                    "decodedLog": {
                        "name": "Withdrawal",
                        "params": [
                            {
                                "name": "src",
                                "type": "address",
                                "value": "0x7a250d5630b4cf539739df2c5dacb4c659f2488d"
                            },
                            {
                                "name": "wad",
                                "type": "uint256",
                                "value": "78,610,015,237,060,427"
                            }
                        ],
                        "signature": "Withdrawal(address,uint256)"
                    },
                    "id": 19,
                    "logData": "0x0000000000000000000000000000000000000000000000000117476471fe374b",
                    "logDecoded": true,
                    "operation": "EVENT",
                    "revert": false,
                    "status": true,
                    "topics": [
                        "0x7fcf532c15f0a6db0bd6d0e038bea71d30d808c7d98cb3bf7268a95bf5081b65",
                        "0x0000000000000000000000007a250d5630b4cf539739df2c5dacb4c659f2488d"
                    ]
                },
                "nodeType": 1
            },
            "2": {
                "invocation": {
                    "address": "0x201b5b64438843553e3c3671810ae671c93c685c",
                    "callData": "0x0000000000000000000000002289d68dfb7dff5d12683b3ebbe279563542aefe000000000000000000000000ec2895df12b25970640a179a680dd74094b39aba000000000000000000000000000000000000000000000003110f65f0aa1f4317",
                    "decodedMethod": {
                        "callParams": [
                            {
                                "name": "sender",
                                "type": "address",
                                "value": "0x2289d68dfb7dff5d12683b3ebbe279563542aefe"
                            },
                            {
                                "name": "recipient",
                                "type": "address",
                                "value": "0xec2895df12b25970640a179a680dd74094b39aba"
                            },
                            {
                                "decimalAvailable": true,
                                "name": "amount",
                                "type": "uint256",
                                "value": "56,569,545,528,744,821,527"
                            }
                        ],
                        "constructorArguments": "",
                        "name": "transferFrom",
                        "returnParams": [
                            {
                                "name": "",
                                "type": "bool",
                                "value": true
                            }
                        ],
                        "signature": "transferFrom(address,address,uint256)"
                    },
                    "errorInfo": "",
                    "fromAddress": "0x000000000022d473030f116ddee9f6b43ac78ba3",
                    "gasUsed": 176687,
                    "id": 2,
                    "methodDecoded": true,
                    "operation": "CALL",
                    "output": "0x0000000000000000000000000000000000000000000000000000000000000001",
                    "revert": false,
                    "revertMessage": "",
                    "selector": "0x23b872dd",
                    "status": true,
                    "value": "0"
                },
                "nodeType": 0
            },
            "20": {
                "invocation": {
                    "address": "0x201b5b64438843553e3c3671810ae671c93c685c",
                    "callData": "0x",
                    "decodedMethod": null,
                    "errorInfo": "",
                    "fromAddress": "0x7a250d5630b4cf539739df2c5dacb4c659f2488d",
                    "gasUsed": 55,
                    "id": 20,
                    "methodDecoded": false,
                    "operation": "CALL",
                    "output": "",
                    "revert": false,
                    "revertMessage": "",
                    "selector": "fallback",
                    "status": true,
                    "value": "0.078610015237060427"
                },
                "nodeType": 0
            },
            "21": {
                "invocation": {
                    "address": "0x14f05052f87e634f162f3d7620d9447049eea582",
                    "callData": "0x",
                    "decodedMethod": null,
                    "errorInfo": "",
                    "fromAddress": "0x201b5b64438843553e3c3671810ae671c93c685c",
                    "gasUsed": 0,
                    "id": 21,
                    "methodDecoded": false,
                    "operation": "CALL",
                    "output": "",
                    "revert": false,
                    "revertMessage": "",
                    "selector": "fallback",
                    "status": true,
                    "value": "0.078610015237060427"
                },
                "nodeType": 0
            },
            "22": {
                "event": {
                    "contract": "0x201b5b64438843553e3c3671810ae671c93c685c",
                    "decodedLog": {
                        "name": "Transfer",
                        "params": [
                            {
                                "name": "from",
                                "type": "address",
                                "value": "0x2289d68dfb7dff5d12683b3ebbe279563542aefe"
                            },
                            {
                                "name": "to",
                                "type": "address",
                                "value": "0x201b5b64438843553e3c3671810ae671c93c685c"
                            },
                            {
                                "decimalAvailable": true,
                                "name": "value",
                                "type": "uint256",
                                "value": "3,959,868,187,012,137,506"
                            }
                        ],
                        "signature": "Transfer(address,address,uint256)"
                    },
                    "id": 22,
                    "logData": "0x00000000000000000000000000000000000000000000000036f44722c43a8222",
                    "logDecoded": true,
                    "operation": "EVENT",
                    "revert": false,
                    "status": true,
                    "topics": [
                        "0xddf252ad1be2c89b69c2b068fc378daa952ba7f163c4a11628f55a4df523b3ef",
                        "0x0000000000000000000000002289d68dfb7dff5d12683b3ebbe279563542aefe",
                        "0x000000000000000000000000201b5b64438843553e3c3671810ae671c93c685c"
                    ]
                },
                "nodeType": 1
            },
            "23": {
                "event": {
                    "contract": "0x201b5b64438843553e3c3671810ae671c93c685c",
                    "decodedLog": {
                        "name": "Transfer",
                        "params": [
                            {
                                "name": "from",
                                "type": "address",
                                "value": "0x201b5b64438843553e3c3671810ae671c93c685c"
                            },
                            {
                                "name": "to",
                                "type": "address",
                                "value": "0x000000000000000000000000000000000000dead"
                            },
                            {
                                "decimalAvailable": true,
                                "name": "value",
                                "type": "uint256",
                                "value": "565,695,455,287,448,215"
                            }
                        ],
                        "signature": "Transfer(address,address,uint256)"
                    },
                    "id": 23,
                    "logData": "0x00000000000000000000000000000000000000000000000007d9c104f7761297",
                    "logDecoded": true,
                    "operation": "EVENT",
                    "revert": false,
                    "status": true,
                    "topics": [
                        "0xddf252ad1be2c89b69c2b068fc378daa952ba7f163c4a11628f55a4df523b3ef",
                        "0x000000000000000000000000201b5b64438843553e3c3671810ae671c93c685c",
                        "0x000000000000000000000000000000000000000000000000000000000000dead"
                    ]
                },
                "nodeType": 1
            },
            "24": {
                "event": {
                    "contract": "0x201b5b64438843553e3c3671810ae671c93c685c",
                    "decodedLog": {
                        "name": "Transfer",
                        "params": [
                            {
                                "name": "from",
                                "type": "address",
                                "value": "0x2289d68dfb7dff5d12683b3ebbe279563542aefe"
                            },
                            {
                                "name": "to",
                                "type": "address",
                                "value": "0xec2895df12b25970640a179a680dd74094b39aba"
                            },
                            {
                                "decimalAvailable": true,
                                "name": "value",
                                "type": "uint256",
                                "value": "52,609,677,341,732,684,021"
                            }
                        ],
                        "signature": "Transfer(address,address,uint256)"
                    },
                    "id": 24,
                    "logData": "0x000000000000000000000000000000000000000000000002da1b1ecde5e4c0f5",
                    "logDecoded": true,
                    "operation": "EVENT",
                    "revert": false,
                    "status": true,
                    "topics": [
                        "0xddf252ad1be2c89b69c2b068fc378daa952ba7f163c4a11628f55a4df523b3ef",
                        "0x0000000000000000000000002289d68dfb7dff5d12683b3ebbe279563542aefe",
                        "0x000000000000000000000000ec2895df12b25970640a179a680dd74094b39aba"
                    ]
                },
                "nodeType": 1
            },
            "25": {
                "invocation": {
                    "address": "0xc02aaa39b223fe8d0a0e5c4f27ead9083c756cc2",
                    "callData": "0x0000000000000000000000003fc91a3afd70395cd496c647d5a6cc9d4b2b7fad",
                    "decodedMethod": {
                        "callParams": [
                            {
                                "name": "",
                                "type": "address",
                                "value": "0x3fc91a3afd70395cd496c647d5a6cc9d4b2b7fad"
                            }
                        ],
                        "constructorArguments": "",
                        "name": "balanceOf",
                        "returnParams": [
                            {
                                "decimalAvailable": true,
                                "name": "",
                                "type": "uint256",
                                "value": "0"
                            }
                        ],
                        "signature": "balanceOf(address)"
                    },
                    "errorInfo": "",
                    "fromAddress": "0x3fc91a3afd70395cd496c647d5a6cc9d4b2b7fad",
                    "gasUsed": 2534,
                    "id": 25,
                    "methodDecoded": true,
                    "operation": "STATICCALL",
                    "output": "0x0000000000000000000000000000000000000000000000000000000000000000",
                    "revert": false,
                    "revertMessage": "",
                    "selector": "0x70a08231",
                    "status": true,
                    "value": "0"
                },
                "nodeType": 0
            },
            "26": {
                "invocation": {
                    "address": "0xec2895df12b25970640a179a680dd74094b39aba",
                    "callData": "0x",
                    "decodedMethod": {
                        "callParams": [],
                        "constructorArguments": "",
                        "name": "getReserves",
                        "returnParams": [
                            {
                                "name": "_reserve0",
                                "type": "uint112",
                                "value": "14,006,656,842,614,902,738,541"
                            },
                            {
                                "name": "_reserve1",
                                "type": "uint112",
                                "value": "23,542,939,435,844,562,831"
                            },
                            {
                                "name": "_blockTimestampLast",
                                "type": "uint32",
                                "value": "1,700,710,751"
                            }
                        ],
                        "signature": "getReserves()"
                    },
                    "errorInfo": "",
                    "fromAddress": "0x3fc91a3afd70395cd496c647d5a6cc9d4b2b7fad",
                    "gasUsed": 504,
                    "id": 26,
                    "methodDecoded": true,
                    "operation": "STATICCALL",
                    "output": "0x0000000000000000000000000000000000000000000002f74d695be8e7b5ce6d00000000000000000000000000000000000000000000000146b952ae5a0cef8f00000000000000000000000000000000000000000000000000000000655ec95f",
                    "revert": false,
                    "revertMessage": "",
                    "selector": "0x0902f1ac",
                    "status": true,
                    "value": "0"
                },
                "nodeType": 0
            },
            "27": {
                "invocation": {
                    "address": "0x201b5b64438843553e3c3671810ae671c93c685c",
                    "callData": "0x000000000000000000000000ec2895df12b25970640a179a680dd74094b39aba",
                    "decodedMethod": {
                        "callParams": [
                            {
                                "name": "account",
                                "type": "address",
                                "value": "0xec2895df12b25970640a179a680dd74094b39aba"
                            }
                        ],
                        "constructorArguments": "",
                        "name": "balanceOf",
                        "returnParams": [
                            {
                                "decimalAvailable": true,
                                "name": "",
                                "type": "uint256",
                                "value": "14,059,266,519,956,635,422,562"
                            }
                        ],
                        "signature": "balanceOf(address)"
                    },
                    "errorInfo": "",
                    "fromAddress": "0x3fc91a3afd70395cd496c647d5a6cc9d4b2b7fad",
                    "gasUsed": 864,
                    "id": 27,
                    "methodDecoded": true,
                    "operation": "STATICCALL",
                    "output": "0x0000000000000000000000000000000000000000000002fa27847ab6cd9a8f62",
                    "revert": false,
                    "revertMessage": "",
                    "selector": "0x70a08231",
                    "status": true,
                    "value": "0"
                },
                "nodeType": 0
            },
            "28": {
                "invocation": {
                    "address": "0xec2895df12b25970640a179a680dd74094b39aba",
                    "callData": "0x000000000000000000000000000000000000000000000000000000000000000000000000000000000000000000000000000000000000000001380cbf5d9aaf770000000000000000000000003fc91a3afd70395cd496c647d5a6cc9d4b2b7fad00000000000000000000000000000000000000000000000000000000000000800000000000000000000000000000000000000000000000000000000000000000",
                    "decodedMethod": {
                        "callParams": [
                            {
                                "name": "amount0Out",
                                "type": "uint256",
                                "value": "0"
                            },
                            {
                                "name": "amount1Out",
                                "type": "uint256",
                                "value": "87,834,208,782,430,071"
                            },
                            {
                                "name": "to",
                                "type": "address",
                                "value": "0x3fc91a3afd70395cd496c647d5a6cc9d4b2b7fad"
                            },
                            {
                                "name": "data",
                                "type": "bytes",
                                "value": "0x"
                            }
                        ],
                        "constructorArguments": "",
                        "name": "swap",
                        "returnParams": [],
                        "signature": "swap(uint256,uint256,address,bytes)"
                    },
                    "errorInfo": "",
                    "fromAddress": "0x3fc91a3afd70395cd496c647d5a6cc9d4b2b7fad",
                    "gasUsed": 36667,
                    "id": 28,
                    "methodDecoded": true,
                    "operation": "CALL",
                    "output": "",
                    "revert": false,
                    "revertMessage": "",
                    "selector": "0x022c0d9f",
                    "status": true,
                    "value": "0"
                },
                "nodeType": 0
            },
            "29": {
                "invocation": {
                    "address": "0xc02aaa39b223fe8d0a0e5c4f27ead9083c756cc2",
                    "callData": "0x0000000000000000000000003fc91a3afd70395cd496c647d5a6cc9d4b2b7fad00000000000000000000000000000000000000000000000001380cbf5d9aaf77",
                    "decodedMethod": {
                        "callParams": [
                            {
                                "name": "dst",
                                "type": "address",
                                "value": "0x3fc91a3afd70395cd496c647d5a6cc9d4b2b7fad"
                            },
                            {
                                "decimalAvailable": true,
                                "name": "wad",
                                "type": "uint256",
                                "value": "87,834,208,782,430,071"
                            }
                        ],
                        "constructorArguments": "",
                        "name": "transfer",
                        "returnParams": [
                            {
                                "name": "",
                                "type": "bool",
                                "value": true
                            }
                        ],
                        "signature": "transfer(address,uint256)"
                    },
                    "errorInfo": "",
                    "fromAddress": "0xec2895df12b25970640a179a680dd74094b39aba",
                    "gasUsed": 23162,
                    "id": 29,
                    "methodDecoded": true,
                    "operation": "CALL",
                    "output": "0x0000000000000000000000000000000000000000000000000000000000000001",
                    "revert": false,
                    "revertMessage": "",
                    "selector": "0xa9059cbb",
                    "status": true,
                    "value": "0"
                },
                "nodeType": 0
            },
            "3": {
                "invocation": {
                    "address": "0x7a250d5630b4cf539739df2c5dacb4c659f2488d",
                    "callData": "0x",
                    "decodedMethod": {
                        "callParams": [],
                        "constructorArguments": "",
                        "name": "WETH",
                        "returnParams": [
                            {
                                "name": "",
                                "type": "address",
                                "value": "0xc02aaa39b223fe8d0a0e5c4f27ead9083c756cc2"
                            }
                        ],
                        "signature": "WETH()"
                    },
                    "errorInfo": "",
                    "fromAddress": "0x201b5b64438843553e3c3671810ae671c93c685c",
                    "gasUsed": 275,
                    "id": 3,
                    "methodDecoded": true,
                    "operation": "STATICCALL",
                    "output": "0x000000000000000000000000c02aaa39b223fe8d0a0e5c4f27ead9083c756cc2",
                    "revert": false,
                    "revertMessage": "",
                    "selector": "0xad5c4648",
                    "status": true,
                    "value": "0"
                },
                "nodeType": 0
            },
            "30": {
                "event": {
                    "contract": "0xc02aaa39b223fe8d0a0e5c4f27ead9083c756cc2",
                    "decodedLog": {
                        "name": "Transfer",
                        "params": [
                            {
                                "name": "src",
                                "type": "address",
                                "value": "0xec2895df12b25970640a179a680dd74094b39aba"
                            },
                            {
                                "name": "dst",
                                "type": "address",
                                "value": "0x3fc91a3afd70395cd496c647d5a6cc9d4b2b7fad"
                            },
                            {
                                "decimalAvailable": true,
                                "name": "wad",
                                "type": "uint256",
                                "value": "87,834,208,782,430,071"
                            }
                        ],
                        "signature": "Transfer(address,address,uint256)"
                    },
                    "id": 30,
                    "logData": "0x00000000000000000000000000000000000000000000000001380cbf5d9aaf77",
                    "logDecoded": true,
                    "operation": "EVENT",
                    "revert": false,
                    "status": true,
                    "topics": [
                        "0xddf252ad1be2c89b69c2b068fc378daa952ba7f163c4a11628f55a4df523b3ef",
                        "0x000000000000000000000000ec2895df12b25970640a179a680dd74094b39aba",
                        "0x0000000000000000000000003fc91a3afd70395cd496c647d5a6cc9d4b2b7fad"
                    ]
                },
                "nodeType": 1
            },
            "31": {
                "invocation": {
                    "address": "0x201b5b64438843553e3c3671810ae671c93c685c",
                    "callData": "0x000000000000000000000000ec2895df12b25970640a179a680dd74094b39aba",
                    "decodedMethod": {
                        "callParams": [
                            {
                                "name": "account",
                                "type": "address",
                                "value": "0xec2895df12b25970640a179a680dd74094b39aba"
                            }
                        ],
                        "constructorArguments": "",
                        "name": "balanceOf",
                        "returnParams": [
                            {
                                "decimalAvailable": true,
                                "name": "",
                                "type": "uint256",
                                "value": "14,059,266,519,956,635,422,562"
                            }
                        ],
                        "signature": "balanceOf(address)"
                    },
                    "errorInfo": "",
                    "fromAddress": "0xec2895df12b25970640a179a680dd74094b39aba",
                    "gasUsed": 864,
                    "id": 31,
                    "methodDecoded": true,
                    "operation": "STATICCALL",
                    "output": "0x0000000000000000000000000000000000000000000002fa27847ab6cd9a8f62",
                    "revert": false,
                    "revertMessage": "",
                    "selector": "0x70a08231",
                    "status": true,
                    "value": "0"
                },
                "nodeType": 0
            },
            "32": {
                "invocation": {
                    "address": "0xc02aaa39b223fe8d0a0e5c4f27ead9083c756cc2",
                    "callData": "0x000000000000000000000000ec2895df12b25970640a179a680dd74094b39aba",
                    "decodedMethod": {
                        "callParams": [
                            {
                                "name": "",
                                "type": "address",
                                "value": "0xec2895df12b25970640a179a680dd74094b39aba"
                            }
                        ],
                        "constructorArguments": "",
                        "name": "balanceOf",
                        "returnParams": [
                            {
                                "decimalAvailable": true,
                                "name": "",
                                "type": "uint256",
                                "value": "23,455,105,227,062,132,760"
                            }
                        ],
                        "signature": "balanceOf(address)"
                    },
                    "errorInfo": "",
                    "fromAddress": "0xec2895df12b25970640a179a680dd74094b39aba",
                    "gasUsed": 534,
                    "id": 32,
                    "methodDecoded": true,
                    "operation": "STATICCALL",
                    "output": "0x000000000000000000000000000000000000000000000001458145eefc724018",
                    "revert": false,
                    "revertMessage": "",
                    "selector": "0x70a08231",
                    "status": true,
                    "value": "0"
                },
                "nodeType": 0
            },
            "33": {
                "event": {
                    "contract": "0xec2895df12b25970640a179a680dd74094b39aba",
                    "decodedLog": {
                        "name": "Sync",
                        "params": [
                            {
                                "name": "reserve0",
                                "type": "uint112",
                                "value": "14,059,266,519,956,635,422,562"
                            },
                            {
                                "name": "reserve1",
                                "type": "uint112",
                                "value": "23,455,105,227,062,132,760"
                            }
                        ],
                        "signature": "Sync(uint112,uint112)"
                    },
                    "id": 33,
                    "logData": "0x0000000000000000000000000000000000000000000002fa27847ab6cd9a8f62000000000000000000000000000000000000000000000001458145eefc724018",
                    "logDecoded": true,
                    "operation": "EVENT",
                    "revert": false,
                    "status": true,
                    "topics": [
                        "0x1c411e9a96e071241c2f21f7726b17ae89e3cab4c78be50e062b03a9fffbbad1"
                    ]
                },
                "nodeType": 1
            },
            "34": {
                "event": {
                    "contract": "0xec2895df12b25970640a179a680dd74094b39aba",
                    "decodedLog": {
                        "name": "Swap",
                        "params": [
                            {
                                "name": "sender",
                                "type": "address",
                                "value": "0x3fc91a3afd70395cd496c647d5a6cc9d4b2b7fad"
                            },
                            {
                                "name": "to",
                                "type": "address",
                                "value": "0x3fc91a3afd70395cd496c647d5a6cc9d4b2b7fad"
                            },
                            {
                                "name": "amount0In",
                                "type": "uint256",
                                "value": "52,609,677,341,732,684,021"
                            },
                            {
                                "name": "amount1In",
                                "type": "uint256",
                                "value": "0"
                            },
                            {
                                "name": "amount0Out",
                                "type": "uint256",
                                "value": "0"
                            },
                            {
                                "name": "amount1Out",
                                "type": "uint256",
                                "value": "87,834,208,782,430,071"
                            }
                        ],
                        "signature": "Swap(address,uint256,uint256,uint256,uint256,address)"
                    },
                    "id": 34,
                    "logData": "0x000000000000000000000000000000000000000000000002da1b1ecde5e4c0f50000000000000000000000000000000000000000000000000000000000000000000000000000000000000000000000000000000000000000000000000000000000000000000000000000000000000000000000000000000001380cbf5d9aaf77",
                    "logDecoded": true,
                    "operation": "EVENT",
                    "revert": false,
                    "status": true,
                    "topics": [
                        "0xd78ad95fa46c994b6551d0da85fc275fe613ce37657fb8d5e3d130840159d822",
                        "0x0000000000000000000000003fc91a3afd70395cd496c647d5a6cc9d4b2b7fad",
                        "0x0000000000000000000000003fc91a3afd70395cd496c647d5a6cc9d4b2b7fad"
                    ]
                },
                "nodeType": 1
            },
            "35": {
                "invocation": {
                    "address": "0xc02aaa39b223fe8d0a0e5c4f27ead9083c756cc2",
                    "callData": "0x0000000000000000000000003fc91a3afd70395cd496c647d5a6cc9d4b2b7fad",
                    "decodedMethod": {
                        "callParams": [
                            {
                                "name": "",
                                "type": "address",
                                "value": "0x3fc91a3afd70395cd496c647d5a6cc9d4b2b7fad"
                            }
                        ],
                        "constructorArguments": "",
                        "name": "balanceOf",
                        "returnParams": [
                            {
                                "decimalAvailable": true,
                                "name": "",
                                "type": "uint256",
                                "value": "87,834,208,782,430,071"
                            }
                        ],
                        "signature": "balanceOf(address)"
                    },
                    "errorInfo": "",
                    "fromAddress": "0x3fc91a3afd70395cd496c647d5a6cc9d4b2b7fad",
                    "gasUsed": 534,
                    "id": 35,
                    "methodDecoded": true,
                    "operation": "STATICCALL",
                    "output": "0x00000000000000000000000000000000000000000000000001380cbf5d9aaf77",
                    "revert": false,
                    "revertMessage": "",
                    "selector": "0x70a08231",
                    "status": true,
                    "value": "0"
                },
                "nodeType": 0
            },
            "36": {
                "invocation": {
                    "address": "0xc02aaa39b223fe8d0a0e5c4f27ead9083c756cc2",
                    "callData": "0x0000000000000000000000003fc91a3afd70395cd496c647d5a6cc9d4b2b7fad",
                    "decodedMethod": {
                        "callParams": [
                            {
                                "name": "",
                                "type": "address",
                                "value": "0x3fc91a3afd70395cd496c647d5a6cc9d4b2b7fad"
                            }
                        ],
                        "constructorArguments": "",
                        "name": "balanceOf",
                        "returnParams": [
                            {
                                "decimalAvailable": true,
                                "name": "",
                                "type": "uint256",
                                "value": "87,834,208,782,430,071"
                            }
                        ],
                        "signature": "balanceOf(address)"
                    },
                    "errorInfo": "",
                    "fromAddress": "0x3fc91a3afd70395cd496c647d5a6cc9d4b2b7fad",
                    "gasUsed": 534,
                    "id": 36,
                    "methodDecoded": true,
                    "operation": "STATICCALL",
                    "output": "0x00000000000000000000000000000000000000000000000001380cbf5d9aaf77",
                    "revert": false,
                    "revertMessage": "",
                    "selector": "0x70a08231",
                    "status": true,
                    "value": "0"
                },
                "nodeType": 0
            },
            "37": {
                "invocation": {
                    "address": "0xc02aaa39b223fe8d0a0e5c4f27ead9083c756cc2",
                    "callData": "0x00000000000000000000000000000000000000000000000001380cbf5d9aaf77",
                    "decodedMethod": {
                        "callParams": [
                            {
                                "name": "wad",
                                "type": "uint256",
                                "value": "87,834,208,782,430,071"
                            }
                        ],
                        "constructorArguments": "",
                        "name": "withdraw",
                        "returnParams": [],
                        "signature": "withdraw(uint256)"
                    },
                    "errorInfo": "",
                    "fromAddress": "0x3fc91a3afd70395cd496c647d5a6cc9d4b2b7fad",
                    "gasUsed": 9220,
                    "id": 37,
                    "methodDecoded": true,
                    "operation": "CALL",
                    "output": "",
                    "revert": false,
                    "revertMessage": "",
                    "selector": "0x2e1a7d4d",
                    "status": true,
                    "value": "0"
                },
                "nodeType": 0
            },
            "38": {
                "invocation": {
                    "address": "0x3fc91a3afd70395cd496c647d5a6cc9d4b2b7fad",
                    "callData": "0x",
                    "decodedMethod": null,
                    "errorInfo": "",
                    "fromAddress": "0xc02aaa39b223fe8d0a0e5c4f27ead9083c756cc2",
                    "gasUsed": 80,
                    "id": 38,
                    "methodDecoded": false,
                    "operation": "CALL",
                    "output": "",
                    "revert": false,
                    "revertMessage": "",
                    "selector": "fallback",
                    "status": true,
                    "value": "0.087834208782430071"
                },
                "nodeType": 0
            },
            "39": {
                "event": {
                    "contract": "0xc02aaa39b223fe8d0a0e5c4f27ead9083c756cc2",
                    "decodedLog": {
                        "name": "Withdrawal",
                        "params": [
                            {
                                "name": "src",
                                "type": "address",
                                "value": "0x3fc91a3afd70395cd496c647d5a6cc9d4b2b7fad"
                            },
                            {
                                "name": "wad",
                                "type": "uint256",
                                "value": "87,834,208,782,430,071"
                            }
                        ],
                        "signature": "Withdrawal(address,uint256)"
                    },
                    "id": 39,
                    "logData": "0x00000000000000000000000000000000000000000000000001380cbf5d9aaf77",
                    "logDecoded": true,
                    "operation": "EVENT",
                    "revert": false,
                    "status": true,
                    "topics": [
                        "0x7fcf532c15f0a6db0bd6d0e038bea71d30d808c7d98cb3bf7268a95bf5081b65",
                        "0x0000000000000000000000003fc91a3afd70395cd496c647d5a6cc9d4b2b7fad"
                    ]
                },
                "nodeType": 1
            },
            "4": {
                "invocation": {
                    "address": "0x7a250d5630b4cf539739df2c5dacb4c659f2488d",
                    "callData": "0x00000000000000000000000000000000000000000000000288d21bf02a297000000000000000000000000000000000000000000000000000000000000000000000000000000000000000000000000000000000000000000000000000000000a0000000000000000000000000201b5b64438843553e3c3671810ae671c93c685c00000000000000000000000000000000000000000000000000000000655ec95f0000000000000000000000000000000000000000000000000000000000000002000000000000000000000000201b5b64438843553e3c3671810ae671c93c685c000000000000000000000000c02aaa39b223fe8d0a0e5c4f27ead9083c756cc2",
                    "decodedMethod": {
                        "callParams": [
                            {
                                "name": "amountIn",
                                "type": "uint256",
                                "value": "46,752,461,400,000,000,000"
                            },
                            {
                                "name": "amountOutMin",
                                "type": "uint256",
                                "value": "0"
                            },
                            {
                                "name": "path",
                                "type": "address[]",
                                "value": [
                                    "0x201b5b64438843553e3c3671810ae671c93c685c",
                                    "0xc02aaa39b223fe8d0a0e5c4f27ead9083c756cc2"
                                ]
                            },
                            {
                                "name": "to",
                                "type": "address",
                                "value": "0x201b5b64438843553e3c3671810ae671c93c685c"
                            },
                            {
                                "name": "deadline",
                                "type": "uint256",
                                "value": "1,700,710,751"
                            }
                        ],
                        "constructorArguments": "",
                        "name": "swapExactTokensForETHSupportingFeeOnTransferTokens",
                        "returnParams": [],
                        "signature": "swapExactTokensForETHSupportingFeeOnTransferTokens(uint256,uint256,address[],address,uint256)"
                    },
                    "errorInfo": "",
                    "fromAddress": "0x201b5b64438843553e3c3671810ae671c93c685c",
                    "gasUsed": 112183,
                    "id": 4,
                    "methodDecoded": true,
                    "operation": "CALL",
                    "output": "",
                    "revert": false,
                    "revertMessage": "",
                    "selector": "0x791ac947",
                    "status": true,
                    "value": "0"
                },
                "nodeType": 0
            },
            "40": {
                "invocation": {
                    "address": "0x2289d68dfb7dff5d12683b3ebbe279563542aefe",
                    "callData": "0x",
                    "decodedMethod": null,
                    "errorInfo": "",
                    "fromAddress": "0x3fc91a3afd70395cd496c647d5a6cc9d4b2b7fad",
                    "gasUsed": 0,
                    "id": 40,
                    "methodDecoded": false,
                    "operation": "CALL",
                    "output": "",
                    "revert": false,
                    "revertMessage": "",
                    "selector": "fallback",
                    "status": true,
                    "value": "0.087834208782430071"
                },
                "nodeType": 0
            },
            "5": {
                "invocation": {
                    "address": "0x201b5b64438843553e3c3671810ae671c93c685c",
                    "callData": "0x000000000000000000000000201b5b64438843553e3c3671810ae671c93c685c000000000000000000000000ec2895df12b25970640a179a680dd74094b39aba00000000000000000000000000000000000000000000000288d21bf02a297000",
                    "decodedMethod": {
                        "callParams": [
                            {
                                "name": "sender",
                                "type": "address",
                                "value": "0x201b5b64438843553e3c3671810ae671c93c685c"
                            },
                            {
                                "name": "recipient",
                                "type": "address",
                                "value": "0xec2895df12b25970640a179a680dd74094b39aba"
                            },
                            {
                                "decimalAvailable": true,
                                "name": "amount",
                                "type": "uint256",
                                "value": "46,752,461,400,000,000,000"
                            }
                        ],
                        "constructorArguments": "",
                        "name": "transferFrom",
                        "returnParams": [
                            {
                                "name": "",
                                "type": "bool",
                                "value": true
                            }
                        ],
                        "signature": "transferFrom(address,address,uint256)"
                    },
                    "errorInfo": "",
                    "fromAddress": "0x7a250d5630b4cf539739df2c5dacb4c659f2488d",
                    "gasUsed": 17183,
                    "id": 5,
                    "methodDecoded": true,
                    "operation": "CALL",
                    "output": "0x0000000000000000000000000000000000000000000000000000000000000001",
                    "revert": false,
                    "revertMessage": "",
                    "selector": "0x23b872dd",
                    "status": true,
                    "value": "0"
                },
                "nodeType": 0
            },
            "6": {
                "event": {
                    "contract": "0x201b5b64438843553e3c3671810ae671c93c685c",
                    "decodedLog": {
                        "name": "Transfer",
                        "params": [
                            {
                                "name": "from",
                                "type": "address",
                                "value": "0x201b5b64438843553e3c3671810ae671c93c685c"
                            },
                            {
                                "name": "to",
                                "type": "address",
                                "value": "0xec2895df12b25970640a179a680dd74094b39aba"
                            },
                            {
                                "decimalAvailable": true,
                                "name": "value",
                                "type": "uint256",
                                "value": "46,752,461,400,000,000,000"
                            }
                        ],
                        "signature": "Transfer(address,address,uint256)"
                    },
                    "id": 6,
                    "logData": "0x00000000000000000000000000000000000000000000000288d21bf02a297000",
                    "logDecoded": true,
                    "operation": "EVENT",
                    "revert": false,
                    "status": true,
                    "topics": [
                        "0xddf252ad1be2c89b69c2b068fc378daa952ba7f163c4a11628f55a4df523b3ef",
                        "0x000000000000000000000000201b5b64438843553e3c3671810ae671c93c685c",
                        "0x000000000000000000000000ec2895df12b25970640a179a680dd74094b39aba"
                    ]
                },
                "nodeType": 1
            },
            "7": {
                "invocation": {
                    "address": "0xec2895df12b25970640a179a680dd74094b39aba",
                    "callData": "0x",
                    "decodedMethod": {
                        "callParams": [],
                        "constructorArguments": "",
                        "name": "getReserves",
                        "returnParams": [
                            {
                                "name": "_reserve0",
                                "type": "uint112",
                                "value": "13,959,904,381,214,902,738,541"
                            },
                            {
                                "name": "_reserve1",
                                "type": "uint112",
                                "value": "23,621,549,451,081,623,258"
                            },
                            {
                                "name": "_blockTimestampLast",
                                "type": "uint32",
                                "value": "1,700,710,691"
                            }
                        ],
                        "signature": "getReserves()"
                    },
                    "errorInfo": "",
                    "fromAddress": "0x7a250d5630b4cf539739df2c5dacb4c659f2488d",
                    "gasUsed": 2504,
                    "id": 7,
                    "methodDecoded": true,
                    "operation": "STATICCALL",
                    "output": "0x0000000000000000000000000000000000000000000002f4c4973ff8bd8c5e6d00000000000000000000000000000000000000000000000147d09a12cc0b26da00000000000000000000000000000000000000000000000000000000655ec923",
                    "revert": false,
                    "revertMessage": "",
                    "selector": "0x0902f1ac",
                    "status": true,
                    "value": "0"
                },
                "nodeType": 0
            },
            "8": {
                "invocation": {
                    "address": "0x201b5b64438843553e3c3671810ae671c93c685c",
                    "callData": "0x000000000000000000000000ec2895df12b25970640a179a680dd74094b39aba",
                    "decodedMethod": {
                        "callParams": [
                            {
                                "name": "account",
                                "type": "address",
                                "value": "0xec2895df12b25970640a179a680dd74094b39aba"
                            }
                        ],
                        "constructorArguments": "",
                        "name": "balanceOf",
                        "returnParams": [
                            {
                                "decimalAvailable": true,
                                "name": "",
                                "type": "uint256",
                                "value": "14,006,656,842,614,902,738,541"
                            }
                        ],
                        "signature": "balanceOf(address)"
                    },
                    "errorInfo": "",
                    "fromAddress": "0x7a250d5630b4cf539739df2c5dacb4c659f2488d",
                    "gasUsed": 864,
                    "id": 8,
                    "methodDecoded": true,
                    "operation": "STATICCALL",
                    "output": "0x0000000000000000000000000000000000000000000002f74d695be8e7b5ce6d",
                    "revert": false,
                    "revertMessage": "",
                    "selector": "0x70a08231",
                    "status": true,
                    "value": "0"
                },
                "nodeType": 0
            },
            "9": {
                "invocation": {
                    "address": "0xec2895df12b25970640a179a680dd74094b39aba",
                    "callData": "0x00000000000000000000000000000000000000000000000000000000000000000000000000000000000000000000000000000000000000000117476471fe374b0000000000000000000000007a250d5630b4cf539739df2c5dacb4c659f2488d00000000000000000000000000000000000000000000000000000000000000800000000000000000000000000000000000000000000000000000000000000000",
                    "decodedMethod": {
                        "callParams": [
                            {
                                "name": "amount0Out",
                                "type": "uint256",
                                "value": "0"
                            },
                            {
                                "name": "amount1Out",
                                "type": "uint256",
                                "value": "78,610,015,237,060,427"
                            },
                            {
                                "name": "to",
                                "type": "address",
                                "value": "0x7a250d5630b4cf539739df2c5dacb4c659f2488d"
                            },
                            {
                                "name": "data",
                                "type": "bytes",
                                "value": "0x"
                            }
                        ],
                        "constructorArguments": "",
                        "name": "swap",
                        "returnParams": [],
                        "signature": "swap(uint256,uint256,address,bytes)"
                    },
                    "errorInfo": "",
                    "fromAddress": "0x7a250d5630b4cf539739df2c5dacb4c659f2488d",
                    "gasUsed": 65183,
                    "id": 9,
                    "methodDecoded": true,
                    "operation": "CALL",
                    "output": "",
                    "revert": false,
                    "revertMessage": "",
                    "selector": "0x022c0d9f",
                    "status": true,
                    "value": "0"
                },
                "nodeType": 0
            }
        },
        "gasFlame": [
            {
                "children": [
                    {
                        "children": [
                            {
                                "children": [],
                                "depth": 0,
                                "name": "Initial Gas",
                                "value": 24644
                            },
                            {
                                "children": [
                                    {
                                        "children": [
                                            {
                                                "children": [
                                                    {
                                                        "children": [],
                                                        "depth": 3,
                                                        "name": "WETH",
                                                        "value": 275
                                                    },
                                                    {
                                                        "children": [
                                                            {
                                                                "children": [],
                                                                "depth": 4,
                                                                "name": "transferFrom",
                                                                "value": 17183
                                                            },
                                                            {
                                                                "children": [],
                                                                "depth": 4,
                                                                "name": "getReserves",
                                                                "value": 2504
                                                            },
                                                            {
                                                                "children": [],
                                                                "depth": 4,
                                                                "name": "balanceOf",
                                                                "value": 864
                                                            },
                                                            {
                                                                "children": [
                                                                    {
                                                                        "children": [],
                                                                        "depth": 5,
                                                                        "name": "transfer",
                                                                        "value": 29962
                                                                    },
                                                                    {
                                                                        "children": [],
                                                                        "depth": 5,
                                                                        "name": "balanceOf",
                                                                        "value": 864
                                                                    },
                                                                    {
                                                                        "children": [],
                                                                        "depth": 5,
                                                                        "name": "balanceOf",
                                                                        "value": 534
                                                                    }
                                                                ],
                                                                "depth": 4,
                                                                "name": "swap",
                                                                "value": 65183
                                                            },
                                                            {
                                                                "children": [],
                                                                "depth": 4,
                                                                "name": "balanceOf",
                                                                "value": 534
                                                            },
                                                            {
                                                                "children": [
                                                                    {
                                                                        "children": [],
                                                                        "depth": 5,
                                                                        "name": "fallback",
                                                                        "value": 83
                                                                    }
                                                                ],
                                                                "depth": 4,
                                                                "name": "withdraw",
                                                                "value": 9223
                                                            },
                                                            {
                                                                "children": [],
                                                                "depth": 4,
                                                                "name": "fallback",
                                                                "value": 55
                                                            }
                                                        ],
                                                        "depth": 3,
                                                        "name": "swapExactTokensForETHSupportingFeeOnTransferTokens",
                                                        "value": 112183
                                                    },
                                                    {
                                                        "children": [],
                                                        "depth": 3,
                                                        "name": "fallback",
                                                        "value": 0
                                                    }
                                                ],
                                                "depth": 2,
                                                "name": "transferFrom",
                                                "value": 176687
                                            }
                                        ],
                                        "depth": 1,
                                        "name": "transferFrom",
                                        "value": 182394
                                    },
                                    {
                                        "children": [],
                                        "depth": 1,
                                        "name": "balanceOf",
                                        "value": 2534
                                    },
                                    {
                                        "children": [],
                                        "depth": 1,
                                        "name": "getReserves",
                                        "value": 504
                                    },
                                    {
                                        "children": [],
                                        "depth": 1,
                                        "name": "balanceOf",
                                        "value": 864
                                    },
                                    {
                                        "children": [
                                            {
                                                "children": [],
                                                "depth": 2,
                                                "name": "transfer",
                                                "value": 23162
                                            },
                                            {
                                                "children": [],
                                                "depth": 2,
                                                "name": "balanceOf",
                                                "value": 864
                                            },
                                            {
                                                "children": [],
                                                "depth": 2,
                                                "name": "balanceOf",
                                                "value": 534
                                            }
                                        ],
                                        "depth": 1,
                                        "name": "swap",
                                        "value": 36667
                                    },
                                    {
                                        "children": [],
                                        "depth": 1,
                                        "name": "balanceOf",
                                        "value": 534
                                    },
                                    {
                                        "children": [],
                                        "depth": 1,
                                        "name": "balanceOf",
                                        "value": 534
                                    },
                                    {
                                        "children": [
                                            {
                                                "children": [],
                                                "depth": 2,
                                                "name": "fallback",
                                                "value": 80
                                            }
                                        ],
                                        "depth": 1,
                                        "name": "withdraw",
                                        "value": 9220
                                    },
                                    {
                                        "children": [],
                                        "depth": 1,
                                        "name": "fallback",
                                        "value": 0
                                    }
                                ],
                                "depth": 0,
                                "name": "Executed Gas",
                                "value": 256897
                            }
                        ],
                        "depth": -1,
                        "name": "Actual Gas Used",
                        "value": 225741
                    },
                    {
                        "children": [],
                        "depth": -1,
                        "name": "Refunded Gas",
                        "value": 55800
                    }
                ],
                "depth": -2,
                "name": "Total Gas",
                "value": 281541
            }
        ],
        "isConfirmed": true,
        "mainTrace": [
            {
                "children": [
                    {
                        "children": [
                            {
                                "children": [
                                    {
                                        "children": [
                                            {
                                                "children": [],
                                                "depth": 3,
                                                "id": 3,
                                                "order": 3
                                            },
                                            {
                                                "children": [
                                                    {
                                                        "children": [
                                                            {
                                                                "children": [],
                                                                "depth": 5,
                                                                "id": 6,
                                                                "order": 6
                                                            }
                                                        ],
                                                        "depth": 4,
                                                        "id": 5,
                                                        "order": 5
                                                    },
                                                    {
                                                        "children": [],
                                                        "depth": 4,
                                                        "id": 7,
                                                        "order": 7
                                                    },
                                                    {
                                                        "children": [],
                                                        "depth": 4,
                                                        "id": 8,
                                                        "order": 8
                                                    },
                                                    {
                                                        "children": [
                                                            {
                                                                "children": [
                                                                    {
                                                                        "children": [],
                                                                        "depth": 6,
                                                                        "id": 11,
                                                                        "order": 11
                                                                    }
                                                                ],
                                                                "depth": 5,
                                                                "id": 10,
                                                                "order": 10
                                                            },
                                                            {
                                                                "children": [],
                                                                "depth": 5,
                                                                "id": 12,
                                                                "order": 12
                                                            },
                                                            {
                                                                "children": [],
                                                                "depth": 5,
                                                                "id": 13,
                                                                "order": 13
                                                            },
                                                            {
                                                                "children": [],
                                                                "depth": 5,
                                                                "id": 14,
                                                                "order": 14
                                                            },
                                                            {
                                                                "children": [],
                                                                "depth": 5,
                                                                "id": 15,
                                                                "order": 15
                                                            }
                                                        ],
                                                        "depth": 4,
                                                        "id": 9,
                                                        "order": 9
                                                    },
                                                    {
                                                        "children": [],
                                                        "depth": 4,
                                                        "id": 16,
                                                        "order": 16
                                                    },
                                                    {
                                                        "children": [
                                                            {
                                                                "children": [],
                                                                "depth": 5,
                                                                "id": 18,
                                                                "order": 18
                                                            },
                                                            {
                                                                "children": [],
                                                                "depth": 5,
                                                                "id": 19,
                                                                "order": 19
                                                            }
                                                        ],
                                                        "depth": 4,
                                                        "id": 17,
                                                        "order": 17
                                                    },
                                                    {
                                                        "children": [],
                                                        "depth": 4,
                                                        "id": 20,
                                                        "order": 20
                                                    }
                                                ],
                                                "depth": 3,
                                                "id": 4,
                                                "order": 4
                                            },
                                            {
                                                "children": [],
                                                "depth": 3,
                                                "id": 21,
                                                "order": 21
                                            },
                                            {
                                                "children": [],
                                                "depth": 3,
                                                "id": 22,
                                                "order": 22
                                            },
                                            {
                                                "children": [],
                                                "depth": 3,
                                                "id": 23,
                                                "order": 23
                                            },
                                            {
                                                "children": [],
                                                "depth": 3,
                                                "id": 24,
                                                "order": 24
                                            }
                                        ],
                                        "depth": 2,
                                        "id": 2,
                                        "order": 2
                                    }
                                ],
                                "depth": 1,
                                "id": 1,
                                "order": 1
                            },
                            {
                                "children": [],
                                "depth": 1,
                                "id": 25,
                                "order": 25
                            },
                            {
                                "children": [],
                                "depth": 1,
                                "id": 26,
                                "order": 26
                            },
                            {
                                "children": [],
                                "depth": 1,
                                "id": 27,
                                "order": 27
                            },
                            {
                                "children": [
                                    {
                                        "children": [
                                            {
                                                "children": [],
                                                "depth": 3,
                                                "id": 30,
                                                "order": 30
                                            }
                                        ],
                                        "depth": 2,
                                        "id": 29,
                                        "order": 29
                                    },
                                    {
                                        "children": [],
                                        "depth": 2,
                                        "id": 31,
                                        "order": 31
                                    },
                                    {
                                        "children": [],
                                        "depth": 2,
                                        "id": 32,
                                        "order": 32
                                    },
                                    {
                                        "children": [],
                                        "depth": 2,
                                        "id": 33,
                                        "order": 33
                                    },
                                    {
                                        "children": [],
                                        "depth": 2,
                                        "id": 34,
                                        "order": 34
                                    }
                                ],
                                "depth": 1,
                                "id": 28,
                                "order": 28
                            },
                            {
                                "children": [],
                                "depth": 1,
                                "id": 35,
                                "order": 35
                            },
                            {
                                "children": [],
                                "depth": 1,
                                "id": 36,
                                "order": 36
                            },
                            {
                                "children": [
                                    {
                                        "children": [],
                                        "depth": 2,
                                        "id": 38,
                                        "order": 38
                                    },
                                    {
                                        "children": [],
                                        "depth": 2,
                                        "id": 39,
                                        "order": 39
                                    }
                                ],
                                "depth": 1,
                                "id": 37,
                                "order": 37
                            },
                            {
                                "children": [],
                                "depth": 1,
                                "id": 40,
                                "order": 40
                            }
                        ],
                        "depth": 0,
                        "id": 0,
                        "order": 0
                    }
                ],
                "depth": -1,
                "id": -1,
                "order": -1
            }
        ],
        "mainTraceNodeCount": 41,
        "parentIdMap": {
            "0": -1,
            "1": 0,
            "10": 9,
            "11": 10,
            "12": 9,
            "13": 9,
            "14": 9,
            "15": 9,
            "16": 4,
            "17": 4,
            "18": 17,
            "19": 17,
            "2": 1,
            "20": 4,
            "21": 2,
            "22": 2,
            "23": 2,
            "24": 2,
            "25": 0,
            "26": 0,
            "27": 0,
            "28": 0,
            "29": 28,
            "3": 2,
            "30": 29,
            "31": 28,
            "32": 28,
            "33": 28,
            "34": 28,
            "35": 0,
            "36": 0,
            "37": 0,
            "38": 37,
            "39": 37,
            "4": 2,
            "40": 0,
            "5": 4,
            "6": 5,
            "7": 4,
            "8": 4,
            "9": 4
        },
        "tidyTrace": [
            {
                "children": [
                    {
                        "children": [
                            {
                                "children": [
                                    {
                                        "children": [
                                            {
                                                "children": [
                                                    {
                                                        "children": [
                                                            {
                                                                "children": [],
                                                                "depth": 5,
                                                                "id": 6,
                                                                "order": 6
                                                            }
                                                        ],
                                                        "depth": 4,
                                                        "id": 5,
                                                        "order": 5
                                                    },
                                                    {
                                                        "children": [
                                                            {
                                                                "children": [
                                                                    {
                                                                        "children": [],
                                                                        "depth": 6,
                                                                        "id": 11,
                                                                        "order": 11
                                                                    }
                                                                ],
                                                                "depth": 5,
                                                                "id": 10,
                                                                "order": 10
                                                            },
                                                            {
                                                                "children": [],
                                                                "depth": 5,
                                                                "id": 14,
                                                                "order": 14
                                                            },
                                                            {
                                                                "children": [],
                                                                "depth": 5,
                                                                "id": 15,
                                                                "order": 15
                                                            }
                                                        ],
                                                        "depth": 4,
                                                        "id": 9,
                                                        "order": 9
                                                    },
                                                    {
                                                        "children": [
                                                            {
                                                                "children": [],
                                                                "depth": 5,
                                                                "id": 18,
                                                                "order": 18
                                                            },
                                                            {
                                                                "children": [],
                                                                "depth": 5,
                                                                "id": 19,
                                                                "order": 19
                                                            }
                                                        ],
                                                        "depth": 4,
                                                        "id": 17,
                                                        "order": 17
                                                    },
                                                    {
                                                        "children": [],
                                                        "depth": 4,
                                                        "id": 20,
                                                        "order": 20
                                                    }
                                                ],
                                                "depth": 3,
                                                "id": 4,
                                                "order": 4
                                            },
                                            {
                                                "children": [],
                                                "depth": 3,
                                                "id": 21,
                                                "order": 21
                                            },
                                            {
                                                "children": [],
                                                "depth": 3,
                                                "id": 22,
                                                "order": 22
                                            },
                                            {
                                                "children": [],
                                                "depth": 3,
                                                "id": 23,
                                                "order": 23
                                            },
                                            {
                                                "children": [],
                                                "depth": 3,
                                                "id": 24,
                                                "order": 24
                                            }
                                        ],
                                        "depth": 2,
                                        "id": 2,
                                        "order": 2
                                    }
                                ],
                                "depth": 1,
                                "id": 1,
                                "order": 1
                            },
                            {
                                "children": [
                                    {
                                        "children": [
                                            {
                                                "children": [],
                                                "depth": 3,
                                                "id": 30,
                                                "order": 30
                                            }
                                        ],
                                        "depth": 2,
                                        "id": 29,
                                        "order": 29
                                    },
                                    {
                                        "children": [],
                                        "depth": 2,
                                        "id": 33,
                                        "order": 33
                                    },
                                    {
                                        "children": [],
                                        "depth": 2,
                                        "id": 34,
                                        "order": 34
                                    }
                                ],
                                "depth": 1,
                                "id": 28,
                                "order": 28
                            },
                            {
                                "children": [
                                    {
                                        "children": [],
                                        "depth": 2,
                                        "id": 38,
                                        "order": 38
                                    },
                                    {
                                        "children": [],
                                        "depth": 2,
                                        "id": 39,
                                        "order": 39
                                    }
                                ],
                                "depth": 1,
                                "id": 37,
                                "order": 37
                            },
                            {
                                "children": [],
                                "depth": 1,
                                "id": 40,
                                "order": 40
                            }
                        ],
                        "depth": 0,
                        "id": 0,
                        "order": 0
                    }
                ],
                "depth": -1,
                "id": -1,
                "order": -1
            }
        ],
        "tidyTraceNodeCount": 28
    },
    "state_change": {
        "stateChanges": [
            {
                "address": "0x201b5b64438843553e3c3671810ae671c93c685c",
                "erc": "ERC-20",
                "slots": [
                    {
                        "current": "0x0000000000000000000000000000000000000000000000002f1a861dccc46f8b",
                        "key": "0xfbd0ccb6276fb1b6efc6390ab6303889d6a9fe865b9f4b7cbb5ceab4758418d7",
                        "prev": "0x00000000000000000000000000000000000000000000000288d21bf02a297000"
                    },
                    {
                        "current": "0x0000000000000000000000000000000000000000000002fa27847ab6cd9a8f62",
                        "key": "0x96d979c6120225eeb1425ae8e7a20c249c5d5814813eefacd274a7dfa7a9601f",
                        "prev": "0x0000000000000000000000000000000000000000000002f4c4973ff8bd8c5e6d"
                    },
                    {
                        "current": "0x0000000000000000000000000000000000000000000005654a253647415368c4",
                        "key": "0x42c63635470f1fb1d6d4b6441c413cb435b1ebb6fedd1896dd5e25d1399147dd",
                        "prev": "0x000000000000000000000000000000000000000000000565424b754249dd562d"
                    },
                    {
                        "current": "0x0000000000000000000000000000000000000000000000000000000000000000",
                        "key": "0x09a77fc0ca327be0168b81bd33915fa1ed7393a515bc9443c2371192d490bd36",
                        "prev": "0x000000000000000000000000000000000000000000000003110f65f0aa1f4317"
                    }
                ],
                "storageVariables": [
                    {
                        "name": "balance",
                        "type": "mapping(address => uint256)",
                        "value": {
                            "pairs": [
                                {
                                    "key": "0x000000000000000000000000000000000000dead",
                                    "value": {
                                        "current": "25480296302005502306500",
                                        "prev": "25479730606550214858285",
                                        "typeTag": 1
                                    }
                                },
                                {
                                    "key": "0x201b5b64438843553e3c3671810ae671c93c685c",
                                    "value": {
                                        "current": "3394172731724689291",
                                        "prev": "46752461400000000000",
                                        "typeTag": 1
                                    }
                                },
                                {
                                    "key": "0x2289d68dfb7dff5d12683b3ebbe279563542aefe",
                                    "value": {
                                        "current": "0",
                                        "prev": "56569545528744821527",
                                        "typeTag": 1
                                    }
                                },
                                {
                                    "key": "0xec2895df12b25970640a179a680dd74094b39aba",
                                    "value": {
                                        "current": "14059266519956635422562",
                                        "prev": "13959904381214902738541",
                                        "typeTag": 1
                                    }
                                }
                            ],
                            "typeTag": 4
                        }
                    }
                ]
            },
            {
                "address": "0xc02aaa39b223fe8d0a0e5c4f27ead9083c756cc2",
                "erc": "ERC-20",
                "slots": [
                    {
                        "current": "0x000000000000000000000000000000000000000000000001458145eefc724018",
                        "key": "0x36b660760e80ad3110bc697e56d000efe2b18d991fe5987ae77acb19eb3b6ed3",
                        "prev": "0x00000000000000000000000000000000000000000000000147d09a12cc0b26da"
                    }
                ],
                "storageVariables": [
                    {
                        "name": "balanceOf",
                        "type": "mapping(address => uint256)",
                        "value": {
                            "pairs": [
                                {
                                    "key": "0xec2895df12b25970640a179a680dd74094b39aba",
                                    "value": {
                                        "current": "23455105227062132760",
                                        "prev": "23621549451081623258",
                                        "typeTag": 1
                                    }
                                }
                            ],
                            "typeTag": 4
                        }
                    }
                ]
            },
            {
                "address": "0xec2895df12b25970640a179a680dd74094b39aba",
                "erc": "ERC-20",
                "slots": [
                    {
                        "current": "0x00000000000000000000000000000000121280fc63c29c3687842061a0b28958",
                        "key": "0x0000000000000000000000000000000000000000000000000000000000000009",
                        "prev": "0x00000000000000000000000000000000121266fec878a50a4dd699ec37588190"
                    },
                    {
                        "current": "0x00000000000000000000000000007daa78e6f2cf740ec7e7714e8ebcc457c944",
                        "key": "0x000000000000000000000000000000000000000000000000000000000000000a",
                        "prev": "0x00000000000000000000000000007da9ee640b4b2c13aebd4ccd30f435cd875c"
                    },
                    {
                        "current": "0x655ec95f000000000001458145eefc7240180000000002fa27847ab6cd9a8f62",
                        "key": "0x0000000000000000000000000000000000000000000000000000000000000008",
                        "prev": "0x655ec92300000000000147d09a12cc0b26da0000000002f4c4973ff8bd8c5e6d"
                    }
                ],
                "storageVariables": [
                    {
                        "name": "reserve0",
                        "type": "uint112",
                        "value": {
                            "current": "14059266519956635422562",
                            "prev": "13959904381214902738541",
                            "typeTag": 1
                        }
                    },
                    {
                        "name": "reserve1",
                        "type": "uint112",
                        "value": {
                            "current": "23455105227062132760",
                            "prev": "23621549451081623258",
                            "typeTag": 1
                        }
                    },
                    {
                        "name": "blockTimestampLast",
                        "type": "uint32",
                        "value": {
                            "current": "1700710751",
                            "prev": "1700710691",
                            "typeTag": 1
                        }
                    },
                    {
                        "name": "price0CumulativeLast",
                        "type": "uint256",
                        "value": {
                            "current": "24022181412382618894388287844553754968",
                            "prev": "24021654259357816146275790498999861648",
                            "typeTag": 1
                        }
                    },
                    {
                        "name": "price1CumulativeLast",
                        "type": "uint256",
                        "value": {
                            "current": "10947044450359141294386142143643453826255172",
                            "prev": "10946860337201414353577756354229036922013532",
                            "typeTag": 1
                        }
                    }
                ]
            }
        ]
    }
}