{
    "balance_change": {
        "balanceChanges": []
    },
    "profile": {
        "basic_info": {
            "baseFee": "",
            "blockNumber": 10523906,
            "callData": "0x7ff36ab5000000000000000000000000000000000000000000000131d0126d8dae54d7600000000000000000000000000000000000000000000000000000000000000080000000000000000000000000fc76301f7c92d3602d730d7f1d898706afb5dee2000000000000000000000000000000000000000000000000000000005f1b2ca50000000000000000000000000000000000000000000000000000000000000002000000000000000000000000c02aaa39b223fe8d0a0e5c4f27ead9083c756cc2000000000000000000000000e74d6339890d6640ef12e6fbcaf7116f331d6d5d",
            "debugEnable": true,
            "errorInfo": "execution reverted",
            "eventCount": 0,
            "feeRecipient": "0xea674fdde714fd979de3edf0f56aa9716b898ec8",
            "formatValue": "1",
            "gasLimit": 165096,
            "gasPrice": "74.8",
            "gasUsed": 23435,
            "intTxnCount": 0,
            "internalRevert": false,
            "internalRevertMessage": "",
            "isContractCreation": false,
            "isFlashloan": false,
            "maxFee": "",
            "nonce": 14,
            "overwritedBlockNumber": -1,
            "priorityFee": "",
            "receiver": "0x7a250d5630b4cf539739df2c5dacb4c659f2488d",
            "revertMessage": "UniswapV2Router: EXPIRED",
            "sender": "0xfc76301f7c92d3602d730d7f1d898706afb5dee2",
            "simulationEnable": true,
            "sourceTxnHash": "0x6e2a26f54f9cf617118b4a666fa2fdb82e77d046b81dfdb1eac1588ed6a63c50",
            "status": false,
            "timestamp": "2020-07-24T18:47:03Z",
            "transactionFee": "0.001752938",
            "txnHash": "0x6e2a26f54f9cf617118b4a666fa2fdb82e77d046b81dfdb1eac1588ed6a63c50",
            "txnIndex": 267,
            "type": 0,
            "value": "1000000000000000000"
        },
        "fund_flow": [],
        "token_infos": [
            {
                "address": "0xc02aaa39b223fe8d0a0e5c4f27ead9083c756cc2",
                "decimals": 18
            },
            {
                "address": "0xeeeeeeeeeeeeeeeeeeeeeeeeeeeeeeeeeeeeeeee",
                "decimals": 18
            }
        ]
    },
    "address_label": {
        "labels": [
            {
                "address": "0xe74d6339890d6640ef12e6fbcaf7116f331d6d5d",
                "label": "Triatics (TRA)"
            },
            {
                "address": "0x7a250d5630b4cf539739df2c5dacb4c659f2488d",
                "label": "Uniswap V2: Router 2"
            },
            {
                "address": "0xc02aaa39b223fe8d0a0e5c4f27ead9083c756cc2",
                "label": "Wrapped Ether (WETH)"
            },
            {
                "address": "0x0000000000000000000000000000000000000001",
                "label": "Precompiled"
            },
            {
                "address": "0x0000000000000000000000000000000000000002",
                "label": "Precompiled"
            },
            {
                "address": "0x0000000000000000000000000000000000000003",
                "label": "Precompiled"
            },
            {
                "address": "0x0000000000000000000000000000000000000004",
                "label": "Precompiled"
            },
            {
                "address": "0xeeeeeeeeeeeeeeeeeeeeeeeeeeeeeeeeeeeeeeee",
                "label": "Ether"
            }
        ]
    },
    "trace": {
        "accountLabels": null,
        "dataMap": {
            "-1": {
                "invocation": {
                    "address": "0xfc76301f7c92d3602d730d7f1d898706afb5dee2",
                    "callData": "",
                    "decodedMethod": null,
                    "errorInfo": "",
                    "fromAddress": "",
                    "gasUsed": 0,
                    "id": -1,
                    "methodDecoded": false,
                    "operation": "",
                    "output": "",
                    "revert": false,
                    "revertMessage": "",
                    "selector": "",
                    "status": false,
                    "value": ""
                },
                "nodeType": 0
            },
            "0": {
                "invocation": {
                    "address": "0x7a250d5630b4cf539739df2c5dacb4c659f2488d",
                    "callData": "0x000000000000000000000000000000000000000000000131d0126d8dae54d7600000000000000000000000000000000000000000000000000000000000000080000000000000000000000000fc76301f7c92d3602d730d7f1d898706afb5dee2000000000000000000000000000000000000000000000000000000005f1b2ca50000000000000000000000000000000000000000000000000000000000000002000000000000000000000000c02aaa39b223fe8d0a0e5c4f27ead9083c756cc2000000000000000000000000e74d6339890d6640ef12e6fbcaf7116f331d6d5d",
                    "decodedMethod": {
                        "callParams": [
                            {
                                "name": "amountOutMin",
                                "type": "uint256",
                                "value": "5,641,250,109,046,165,657,440"
                            },
                            {
                                "name": "path",
                                "type": "address[]",
                                "value": [
                                    "0xc02aaa39b223fe8d0a0e5c4f27ead9083c756cc2",
                                    "0xe74d6339890d6640ef12e6fbcaf7116f331d6d5d"
                                ]
                            },
                            {
                                "name": "to",
                                "type": "address",
                                "value": "0xfc76301f7c92d3602d730d7f1d898706afb5dee2"
                            },
                            {
                                "name": "deadline",
                                "type": "uint256",
                                "value": "1,595,616,421"
                            }
                        ],
                        "constructorArguments": "",
                        "name": "swapExactETHForTokens",
                        "returnParams": [],
                        "signature": "swapExactETHForTokens(uint256,address[],address,uint256)"
                    },
                    "errorInfo": "execution reverted",
                    "fromAddress": "0xfc76301f7c92d3602d730d7f1d898706afb5dee2",
                    "gasUsed": 23435,
                    "id": 0,
                    "methodDecoded": true,
                    "operation": "CALL",
                    "output": "0x08c379a000000000000000000000000000000000000000000000000000000000000000200000000000000000000000000000000000000000000000000000000000000018556e69737761705632526f757465723a20455850495245440000000000000000",
                    "revert": true,
                    "revertMessage": "UniswapV2Router: EXPIRED",
                    "selector": "0x7ff36ab5",
                    "status": false,
                    "value": "1"
                },
                "nodeType": 0
            }
        },
        "gasFlame": [
            {
                "children": [
                    {
                        "children": [
                            {
                                "children": [],
                                "depth": 0,
                                "name": "Initial Gas",
                                "value": 22872
                            },
                            {
                                "children": [],
                                "depth": 0,
                                "name": "Executed Gas",
                                "value": 563
                            }
                        ],
                        "depth": -1,
                        "name": "Actual Gas Used",
                        "value": 23435
                    },
                    {
                        "children": [],
                        "depth": -1,
                        "name": "Refunded Gas",
                        "value": 0
                    }
                ],
                "depth": -2,
                "name": "Total Gas",
                "value": 23435
            }
        ],
        "isConfirmed": true,
        "mainTrace": [
            {
                "children": [
                    {
                        "children": [],
                        "depth": 0,
                        "id": 0,
                        "order": 0
                    }
                ],
                "depth": -1,
                "id": -1,
                "order": -1
            }
        ],
        "mainTraceNodeCount": 1,
        "parentIdMap": {
            "0": -1
        },
        "tidyTrace": [
            {
                "children": [
                    {
                        "children": [],
                        "depth": 0,
                        "id": 0,
                        "order": 0
                    }
                ],
                "depth": -1,
                "id": -1,
                "order": -1
            }
        ],
        "tidyTraceNodeCount": 1
    },
    "state_change": {
        "stateChanges": []
    }
}