{
    "balance_change": {
        "balanceChanges": [
            {
                "account": "0xeed86b90448c371eab47b7f16e294297c27e4f51",
                "assets": [
                    {
                        "address": "0x00c83aecc790e8a4453e5dd3b0b4b3680501a7a7",
                        "amount": "58,328.81948047999762432",
                        "iconUrl": "https://assets.blocksec.com/icon/1c4d4a06af354be51b1e27acc8d55ce751179c09f3ac384e498f06a95cbc7c8a.png",
                        "isERC1155": false,
                        "isERC721": false,
                        "sign": false,
                        "value": "3027.2657310120000984"
                    }
                ]
            },
            {
                "account": "0x4cdbef82b40e128aa5524bb1971590557dbffc47",
                "assets": [
                    {
                        "address": "0x00c83aecc790e8a4453e5dd3b0b4b3680501a7a7",
                        "amount": "58,328.81948047999762432",
                        "iconUrl": "https://assets.blocksec.com/icon/1c4d4a06af354be51b1e27acc8d55ce751179c09f3ac384e498f06a95cbc7c8a.png",
                        "isERC1155": false,
                        "isERC721": false,
                        "sign": true,
                        "value": "3027.2657310120000984"
                    }
                ]
            }
        ]
    },
    "profile": {
        "basic_info": {
            "baseFee": "2.812808454",
            "blockNumber": 20398145,
            "callData": "0xa9059cbb0000000000000000000000004cdbef82b40e128aa5524bb1971590557dbffc47000000000000000000000000000000000000000000000c5a02fad62a87000000",
            "debugEnable": true,
            "errorInfo": "",
            "eventCount": 2,
            "feeRecipient": "0x4838b106fce9647bdf1e7877bf73ce8b0bad5f97",
            "formatValue": "0",
            "gasLimit": 300000,
            "gasPrice": "4.813808454",
            "gasUsed": 109286,
            "intTxnCount": 8,
            "internalRevert": false,
            "internalRevertMessage": "",
            "isContractCreation": false,
            "isFlashloan": false,
            "maxFee": "999",
            "nonce": 22531,
            "overwritedBlockNumber": -1,
            "priorityFee": "2.001",
            "receiver": "0x00c83aecc790e8a4453e5dd3b0b4b3680501a7a7",
            "revertMessage": "",
            "sender": "0xeed86b90448c371eab47b7f16e294297c27e4f51",
            "simulationEnable": true,
            "sourceTxnHash": "0x6e15b729ccddbc22372d43e8a807c2a429eb731794e6b9aad088b6c636a0300a",
            "status": true,
            "timestamp": "2024-07-27T13:20:23Z",
            "transactionFee": "0.000526081870703844",
            "txnHash": "0x6e15b729ccddbc22372d43e8a807c2a429eb731794e6b9aad088b6c636a0300a",
            "txnIndex": 39,
            "type": 2,
            "value": "0"
        },
        "fund_flow": [
            {
                "amount": "58,328.81948047999762432",
                "from": "0xeed86b90448c371eab47b7f16e294297c27e4f51",
                "id": 1,
                "isERC1155": false,
                "isERC721": false,
                "isReverted": false,
                "order": 1,
                "to": "0x4cdbef82b40e128aa5524bb1971590557dbffc47",
                "token": "0x00c83aecc790e8a4453e5dd3b0b4b3680501a7a7"
            }
        ],
        "token_infos": [
            {
                "address": "0x00c83aecc790e8a4453e5dd3b0b4b3680501a7a7",
                "decimals": 18
            },
            {
                "address": "0xc02aaa39b223fe8d0a0e5c4f27ead9083c756cc2",
                "decimals": 18
            },
            {
                "address": "0xeeeeeeeeeeeeeeeeeeeeeeeeeeeeeeeeeeeeeeee",
                "decimals": 18
            }
        ]
    },
    "address_label": {
        "labels": [
            {
                "address": "0x1d085cd2f8b5b64923fbee60ee399d5069b6e735",
                "label": "DelegationController"
            },
            {
                "address": "0x538d2b8cc2335c9495a6bfc9a57eb8e9c389d5f1",
                "label": "ContractManager"
            },
            {
                "address": "0xc04a10fd5e6513242558f47331568abd6185a310",
                "label": "AdminUpgradeabilityProxy_c04a_a310"
            },
            {
                "address": "0x4ee5f270572285776814e32952446e9b7ee15c86",
                "label": "AdminUpgradeabilityProxy_4ee5_5c86"
            },
            {
                "address": "0x4cdbef82b40e128aa5524bb1971590557dbffc47",
                "label": "BINANCE"
            },
            {
                "address": "0x06dd71dab27c1a3e0b172d53735f00bf1a66eb79",
                "label": "AdminUpgradeabilityProxy_06dd_eb79"
            },
            {
                "address": "0x1820a4b7618bde71dce8cdc73aab6c95905fad24",
                "label": "ERC1820Registry"
            },
            {
                "address": "0x2db9ccb342003421544faba8cdf670ab922de5d3",
                "label": "TokenState"
            },
            {
                "address": "0xeeeeeeeeeeeeeeeeeeeeeeeeeeeeeeeeeeeeeeee",
                "label": "Ether"
            },
            {
                "address": "0x0000000000000000000000000000000000000001",
                "label": "Precompiled"
            },
            {
                "address": "0x0000000000000000000000000000000000000002",
                "label": "Precompiled"
            },
            {
                "address": "0x0000000000000000000000000000000000000004",
                "label": "Precompiled"
            },
            {
                "address": "0x0000000000000000000000000000000000000000",
                "label": "Null Address"
            },
            {
                "address": "0x00c83aecc790e8a4453e5dd3b0b4b3680501a7a7",
                "label": "Skale Network: SKL Token"
            },
            {
                "address": "0x0000000000000000000000000000000000000003",
                "label": "Precompiled"
            }
        ]
    },
    "trace": {
        "accountLabels": null,
        "dataMap": {
            "-1": {
                "invocation": {
                    "address": "0xeed86b90448c371eab47b7f16e294297c27e4f51",
                    "callData": "",
                    "decodedMethod": null,
                    "errorInfo": "",
                    "fromAddress": "",
                    "gasUsed": 0,
                    "id": -1,
                    "methodDecoded": false,
                    "operation": "",
                    "output": "",
                    "revert": false,
                    "revertMessage": "",
                    "selector": "",
                    "status": false,
                    "value": ""
                },
                "nodeType": 0
            },
            "0": {
                "invocation": {
                    "address": "0x00c83aecc790e8a4453e5dd3b0b4b3680501a7a7",
                    "callData": "0x0000000000000000000000004cdbef82b40e128aa5524bb1971590557dbffc47000000000000000000000000000000000000000000000c5a02fad62a87000000",
                    "decodedMethod": {
                        "callParams": [
                            {
                                "name": "recipient",
                                "type": "address",
                                "value": "0x4cdbef82b40e128aa5524bb1971590557dbffc47"
                            },
                            {
                                "decimalAvailable": true,
                                "name": "amount",
                                "type": "uint256",
                                "value": "58,328,819,480,479,997,624,320"
                            }
                        ],
                        "constructorArguments": "",
                        "name": "transfer",
                        "returnParams": [
                            {
                                "name": "",
                                "type": "bool",
                                "value": true
                            }
                        ],
                        "signature": "transfer(address,uint256)"
                    },
                    "errorInfo": "",
                    "fromAddress": "0xeed86b90448c371eab47b7f16e294297c27e4f51",
                    "gasUsed": 109286,
                    "id": 0,
                    "methodDecoded": true,
                    "operation": "CALL",
                    "output": "0x0000000000000000000000000000000000000000000000000000000000000001",
                    "revert": false,
                    "revertMessage": "",
                    "selector": "0xa9059cbb",
                    "status": true,
                    "value": "0"
                },
                "nodeType": 0
            },
            "1": {
                "invocation": {
                    "address": "0x1820a4b7618bde71dce8cdc73aab6c95905fad24",
                    "callData": "0x000000000000000000000000eed86b90448c371eab47b7f16e294297c27e4f5129ddb589b1fb5fc7cf394961c1adf5f8c6454761adf795e67fe149f658abe895",
                    "decodedMethod": {
                        "callParams": [
                            {
                                "name": "_addr",
                                "type": "address",
                                "value": "0xeed86b90448c371eab47b7f16e294297c27e4f51"
                            },
                            {
                                "name": "_interfaceHash",
                                "type": "bytes32",
                                "value": "0x29ddb589b1fb5fc7cf394961c1adf5f8c6454761adf795e67fe149f658abe895"
                            }
                        ],
                        "constructorArguments": "",
                        "name": "getInterfaceImplementer",
                        "returnParams": [
                            {
                                "name": "",
                                "type": "address",
                                "value": "0x0000000000000000000000000000000000000000"
                            }
                        ],
                        "signature": "getInterfaceImplementer(address,bytes32)"
                    },
                    "errorInfo": "",
                    "fromAddress": "0x00c83aecc790e8a4453e5dd3b0b4b3680501a7a7",
                    "gasUsed": 2942,
                    "id": 1,
                    "methodDecoded": true,
                    "operation": "STATICCALL",
                    "output": "0x0000000000000000000000000000000000000000000000000000000000000000",
                    "revert": false,
                    "revertMessage": "",
                    "selector": "0xaabbb8ca",
                    "status": true,
                    "value": "0"
                },
                "nodeType": 0
            },
            "10": {
                "invocation": {
                    "address": "0x1820a4b7618bde71dce8cdc73aab6c95905fad24",
                    "callData": "0x0000000000000000000000004cdbef82b40e128aa5524bb1971590557dbffc47b281fc8c12954d22544db45de3159a39272895b169a852b314f9cc762e44c53b",
                    "decodedMethod": {
                        "callParams": [
                            {
                                "name": "_addr",
                                "type": "address",
                                "value": "0x4cdbef82b40e128aa5524bb1971590557dbffc47"
                            },
                            {
                                "name": "_interfaceHash",
                                "type": "bytes32",
                                "value": "0xb281fc8c12954d22544db45de3159a39272895b169a852b314f9cc762e44c53b"
                            }
                        ],
                        "constructorArguments": "",
                        "name": "getInterfaceImplementer",
                        "returnParams": [
                            {
                                "name": "",
                                "type": "address",
                                "value": "0x0000000000000000000000000000000000000000"
                            }
                        ],
                        "signature": "getInterfaceImplementer(address,bytes32)"
                    },
                    "errorInfo": "",
                    "fromAddress": "0x00c83aecc790e8a4453e5dd3b0b4b3680501a7a7",
                    "gasUsed": 2942,
                    "id": 10,
                    "methodDecoded": true,
                    "operation": "STATICCALL",
                    "output": "0x0000000000000000000000000000000000000000000000000000000000000000",
                    "revert": false,
                    "revertMessage": "",
                    "selector": "0xaabbb8ca",
                    "status": true,
                    "value": "0"
                },
                "nodeType": 0
            },
            "2": {
                "invocation": {
                    "address": "0xc04a10fd5e6513242558f47331568abd6185a310",
                    "callData": "0x0000000000000000000000000000000000000000000000000000000000000020000000000000000000000000000000000000000000000000000000000000000a546f6b656e537461746500000000000000000000000000000000000000000000",
                    "decodedMethod": {
                        "callParams": [
                            {
                                "name": "name",
                                "type": "string",
                                "value": "TokenState"
                            }
                        ],
                        "constructorArguments": "",
                        "name": "getContract",
                        "returnParams": [
                            {
                                "name": "contractAddress",
                                "type": "address",
                                "value": "0x4ee5f270572285776814e32952446e9b7ee15c86"
                            }
                        ],
                        "signature": "getContract(string)"
                    },
                    "errorInfo": "",
                    "fromAddress": "0x00c83aecc790e8a4453e5dd3b0b4b3680501a7a7",
                    "gasUsed": 10551,
                    "id": 2,
                    "methodDecoded": true,
                    "operation": "STATICCALL",
                    "output": "0x0000000000000000000000004ee5f270572285776814e32952446e9b7ee15c86",
                    "revert": false,
                    "revertMessage": "",
                    "selector": "0x35817773",
                    "status": true,
                    "value": "0"
                },
                "nodeType": 0
            },
            "3": {
                "invocation": {
                    "address": "0x538d2b8cc2335c9495a6bfc9a57eb8e9c389d5f1",
                    "callData": "0x0000000000000000000000000000000000000000000000000000000000000020000000000000000000000000000000000000000000000000000000000000000a546f6b656e537461746500000000000000000000000000000000000000000000",
                    "decodedMethod": {
                        "callParams": [
                            {
                                "name": "name",
                                "type": "string",
                                "value": "TokenState"
                            }
                        ],
                        "constructorArguments": "",
                        "name": "getContract",
                        "returnParams": [
                            {
                                "name": "contractAddress",
                                "type": "address",
                                "value": "0x4ee5f270572285776814e32952446e9b7ee15c86"
                            }
                        ],
                        "signature": "getContract(string)"
                    },
                    "errorInfo": "",
                    "fromAddress": "0xc04a10fd5e6513242558f47331568abd6185a310",
                    "gasUsed": 3271,
                    "id": 3,
                    "methodDecoded": true,
                    "operation": "DELEGATECALL",
                    "output": "0x0000000000000000000000004ee5f270572285776814e32952446e9b7ee15c86",
                    "revert": false,
                    "revertMessage": "",
                    "selector": "0x35817773",
                    "status": true,
                    "value": "0"
                },
                "nodeType": 0
            },
            "4": {
                "invocation": {
                    "address": "0x4ee5f270572285776814e32952446e9b7ee15c86",
                    "callData": "0x000000000000000000000000eed86b90448c371eab47b7f16e294297c27e4f51",
                    "decodedMethod": {
                        "callParams": [
                            {
                                "name": "holder",
                                "type": "address",
                                "value": "0xeed86b90448c371eab47b7f16e294297c27e4f51"
                            }
                        ],
                        "constructorArguments": "",
                        "name": "getAndUpdateLockedAmount",
                        "returnParams": [
                            {
                                "name": "",
                                "type": "uint256",
                                "value": "0"
                            }
                        ],
                        "signature": "getAndUpdateLockedAmount(address)"
                    },
                    "errorInfo": "",
                    "fromAddress": "0x00c83aecc790e8a4453e5dd3b0b4b3680501a7a7",
                    "gasUsed": 22734,
                    "id": 4,
                    "methodDecoded": true,
                    "operation": "CALL",
                    "output": "0x0000000000000000000000000000000000000000000000000000000000000000",
                    "revert": false,
                    "revertMessage": "",
                    "selector": "0xfa8dacba",
                    "status": true,
                    "value": "0"
                },
                "nodeType": 0
            },
            "5": {
                "invocation": {
                    "address": "0x2db9ccb342003421544faba8cdf670ab922de5d3",
                    "callData": "0x000000000000000000000000eed86b90448c371eab47b7f16e294297c27e4f51",
                    "decodedMethod": {
                        "callParams": [
                            {
                                "name": "holder",
                                "type": "address",
                                "value": "0xeed86b90448c371eab47b7f16e294297c27e4f51"
                            }
                        ],
                        "constructorArguments": "",
                        "name": "getAndUpdateLockedAmount",
                        "returnParams": [
                            {
                                "name": "",
                                "type": "uint256",
                                "value": "0"
                            }
                        ],
                        "signature": "getAndUpdateLockedAmount(address)"
                    },
                    "errorInfo": "",
                    "fromAddress": "0x4ee5f270572285776814e32952446e9b7ee15c86",
                    "gasUsed": 15463,
                    "id": 5,
                    "methodDecoded": true,
                    "operation": "DELEGATECALL",
                    "output": "0x0000000000000000000000000000000000000000000000000000000000000000",
                    "revert": false,
                    "revertMessage": "",
                    "selector": "0xfa8dacba",
                    "status": true,
                    "value": "0"
                },
                "nodeType": 0
            },
            "6": {
                "invocation": {
                    "address": "0x06dd71dab27c1a3e0b172d53735f00bf1a66eb79",
                    "callData": "0x000000000000000000000000eed86b90448c371eab47b7f16e294297c27e4f51",
                    "decodedMethod": {
                        "callParams": [
                            {
                                "name": "holder",
                                "type": "address",
                                "value": "0xeed86b90448c371eab47b7f16e294297c27e4f51"
                            }
                        ],
                        "constructorArguments": "",
                        "name": "getDelegationsByHolderLength",
                        "returnParams": [
                            {
                                "name": "length",
                                "type": "uint256",
                                "value": "0"
                            }
                        ],
                        "signature": "getDelegationsByHolderLength(address)"
                    },
                    "errorInfo": "",
                    "fromAddress": "0x4ee5f270572285776814e32952446e9b7ee15c86",
                    "gasUsed": 9879,
                    "id": 6,
                    "methodDecoded": true,
                    "operation": "STATICCALL",
                    "output": "0x0000000000000000000000000000000000000000000000000000000000000000",
                    "revert": false,
                    "revertMessage": "",
                    "selector": "0xdda641ae",
                    "status": true,
                    "value": "0"
                },
                "nodeType": 0
            },
            "7": {
                "invocation": {
                    "address": "0x1d085cd2f8b5b64923fbee60ee399d5069b6e735",
                    "callData": "0x000000000000000000000000eed86b90448c371eab47b7f16e294297c27e4f51",
                    "decodedMethod": {
                        "callParams": [
                            {
                                "name": "holder",
                                "type": "address",
                                "value": "0xeed86b90448c371eab47b7f16e294297c27e4f51"
                            }
                        ],
                        "constructorArguments": "",
                        "name": "getDelegationsByHolderLength",
                        "returnParams": [
                            {
                                "name": "length",
                                "type": "uint256",
                                "value": "0"
                            }
                        ],
                        "signature": "getDelegationsByHolderLength(address)"
                    },
                    "errorInfo": "",
                    "fromAddress": "0x06dd71dab27c1a3e0b172d53735f00bf1a66eb79",
                    "gasUsed": 2608,
                    "id": 7,
                    "methodDecoded": true,
                    "operation": "DELEGATECALL",
                    "output": "0x0000000000000000000000000000000000000000000000000000000000000000",
                    "revert": false,
                    "revertMessage": "",
                    "selector": "0xdda641ae",
                    "status": true,
                    "value": "0"
                },
                "nodeType": 0
            },
            "8": {
                "event": {
                    "contract": "0x00c83aecc790e8a4453e5dd3b0b4b3680501a7a7",
                    "decodedLog": {
                        "name": "Sent",
                        "params": [
                            {
                                "name": "operator",
                                "type": "address",
                                "value": "0xeed86b90448c371eab47b7f16e294297c27e4f51"
                            },
                            {
                                "name": "from",
                                "type": "address",
                                "value": "0xeed86b90448c371eab47b7f16e294297c27e4f51"
                            },
                            {
                                "name": "to",
                                "type": "address",
                                "value": "0x4cdbef82b40e128aa5524bb1971590557dbffc47"
                            },
                            {
                                "name": "amount",
                                "type": "uint256",
                                "value": "58,328,819,480,479,997,624,320"
                            },
                            {
                                "name": "data",
                                "type": "bytes",
                                "value": "0x"
                            },
                            {
                                "name": "operatorData",
                                "type": "bytes",
                                "value": "0x"
                            }
                        ],
                        "signature": "Sent(address,address,address,uint256,bytes,bytes)"
                    },
                    "id": 8,
                    "logData": "0x000000000000000000000000000000000000000000000c5a02fad62a870000000000000000000000000000000000000000000000000000000000000000000060000000000000000000000000000000000000000000000000000000000000008000000000000000000000000000000000000000000000000000000000000000000000000000000000000000000000000000000000000000000000000000000000",
                    "logDecoded": true,
                    "operation": "EVENT",
                    "revert": false,
                    "status": true,
                    "topics": [
                        "0x06b541ddaa720db2b10a4d0cdac39b8d360425fc073085fac19bc82614677987",
                        "0x000000000000000000000000eed86b90448c371eab47b7f16e294297c27e4f51",
                        "0x000000000000000000000000eed86b90448c371eab47b7f16e294297c27e4f51",
                        "0x0000000000000000000000004cdbef82b40e128aa5524bb1971590557dbffc47"
                    ]
                },
                "nodeType": 1
            },
            "9": {
                "event": {
                    "contract": "0x00c83aecc790e8a4453e5dd3b0b4b3680501a7a7",
                    "decodedLog": {
                        "name": "Transfer",
                        "params": [
                            {
                                "name": "from",
                                "type": "address",
                                "value": "0xeed86b90448c371eab47b7f16e294297c27e4f51"
                            },
                            {
                                "name": "to",
                                "type": "address",
                                "value": "0x4cdbef82b40e128aa5524bb1971590557dbffc47"
                            },
                            {
                                "decimalAvailable": true,
                                "name": "value",
                                "type": "uint256",
                                "value": "58,328,819,480,479,997,624,320"
                            }
                        ],
                        "signature": "Transfer(address,address,uint256)"
                    },
                    "id": 9,
                    "logData": "0x000000000000000000000000000000000000000000000c5a02fad62a87000000",
                    "logDecoded": true,
                    "operation": "EVENT",
                    "revert": false,
                    "status": true,
                    "topics": [
                        "0xddf252ad1be2c89b69c2b068fc378daa952ba7f163c4a11628f55a4df523b3ef",
                        "0x000000000000000000000000eed86b90448c371eab47b7f16e294297c27e4f51",
                        "0x0000000000000000000000004cdbef82b40e128aa5524bb1971590557dbffc47"
                    ]
                },
                "nodeType": 1
            }
        },
        "gasFlame": [
            {
                "children": [
                    {
                        "children": [
                            {
                                "children": [],
                                "depth": 0,
                                "name": "Initial Gas",
                                "value": 21644
                            },
                            {
                                "children": [
                                    {
                                        "children": [],
                                        "depth": 1,
                                        "name": "getInterfaceImplementer",
                                        "value": 2942
                                    },
                                    {
                                        "children": [
                                            {
                                                "children": [],
                                                "depth": 2,
                                                "name": "getContract",
                                                "value": 3271
                                            }
                                        ],
                                        "depth": 1,
                                        "name": "getContract",
                                        "value": 10551
                                    },
                                    {
                                        "children": [
                                            {
                                                "children": [
                                                    {
                                                        "children": [
                                                            {
                                                                "children": [],
                                                                "depth": 4,
                                                                "name": "getDelegationsByHolderLength",
                                                                "value": 2608
                                                            }
                                                        ],
                                                        "depth": 3,
                                                        "name": "getDelegationsByHolderLength",
                                                        "value": 9879
                                                    }
                                                ],
                                                "depth": 2,
                                                "name": "getAndUpdateLockedAmount",
                                                "value": 15463
                                            }
                                        ],
                                        "depth": 1,
                                        "name": "getAndUpdateLockedAmount",
                                        "value": 22734
                                    },
                                    {
                                        "children": [],
                                        "depth": 1,
                                        "name": "getInterfaceImplementer",
                                        "value": 2942
                                    }
                                ],
                                "depth": 0,
                                "name": "Executed Gas",
                                "value": 93242
                            }
                        ],
                        "depth": -1,
                        "name": "Actual Gas Used",
                        "value": 109286
                    },
                    {
                        "children": [],
                        "depth": -1,
                        "name": "Refunded Gas",
                        "value": 5600
                    }
                ],
                "depth": -2,
                "name": "Total Gas",
                "value": 114886
            }
        ],
        "isConfirmed": true,
        "mainTrace": [
            {
                "children": [
                    {
                        "children": [
                            {
                                "children": [],
                                "depth": 1,
                                "id": 1,
                                "order": 1
                            },
                            {
                                "children": [
                                    {
                                        "children": [],
                                        "depth": 2,
                                        "id": 3,
                                        "order": 3
                                    }
                                ],
                                "depth": 1,
                                "id": 2,
                                "order": 2
                            },
                            {
                                "children": [
                                    {
                                        "children": [
                                            {
                                                "children": [
                                                    {
                                                        "children": [],
                                                        "depth": 4,
                                                        "id": 7,
                                                        "order": 7
                                                    }
                                                ],
                                                "depth": 3,
                                                "id": 6,
                                                "order": 6
                                            }
                                        ],
                                        "depth": 2,
                                        "id": 5,
                                        "order": 5
                                    }
                                ],
                                "depth": 1,
                                "id": 4,
                                "order": 4
                            },
                            {
                                "children": [],
                                "depth": 1,
                                "id": 8,
                                "order": 8
                            },
                            {
                                "children": [],
                                "depth": 1,
                                "id": 9,
                                "order": 9
                            },
                            {
                                "children": [],
                                "depth": 1,
                                "id": 10,
                                "order": 10
                            }
                        ],
                        "depth": 0,
                        "id": 0,
                        "order": 0
                    }
                ],
                "depth": -1,
                "id": -1,
                "order": -1
            }
        ],
        "mainTraceNodeCount": 11,
        "parentIdMap": {
            "0": -1,
            "1": 0,
            "10": 0,
            "2": 0,
            "3": 2,
            "4": 0,
            "5": 4,
            "6": 5,
            "7": 6,
            "8": 0,
            "9": 0
        },
        "tidyTrace": [
            {
                "children": [
                    {
                        "children": [
                            {
                                "children": [
                                    {
                                        "children": [],
                                        "depth": 2,
                                        "id": 5,
                                        "order": 5
                                    }
                                ],
                                "depth": 1,
                                "id": 4,
                                "order": 4
                            },
                            {
                                "children": [],
                                "depth": 1,
                                "id": 8,
                                "order": 8
                            },
                            {
                                "children": [],
                                "depth": 1,
                                "id": 9,
                                "order": 9
                            }
                        ],
                        "depth": 0,
                        "id": 0,
                        "order": 0
                    }
                ],
                "depth": -1,
                "id": -1,
                "order": -1
            }
        ],
        "tidyTraceNodeCount": 5
    },
    "state_change": {
        "stateChanges": [
            {
                "address": "0x00c83aecc790e8a4453e5dd3b0b4b3680501a7a7",
                "erc": "ERC-20",
                "slots": [
                    {
                        "current": "0x000000000000000000000000000000000000000000054c40b4f36e3dcde33f2a",
                        "key": "0x3bb71cf4f5e62734daf702327a2bff299d2d1eec70b88db6f2376278fe916e51",
                        "prev": "0x00000000000000000000000000000000000000000005589ab7ee446854e33f2a"
                    },
                    {
                        "current": "0x000000000000000000000000000000000000000000000c5a02fad62a87000000",
                        "key": "0x967f5f98e36af96343b83638ccec99a0c2dfbe4e52b7b98b9777acb88a9b2e54",
                        "prev": "0x0000000000000000000000000000000000000000000000000000000000000000"
                    }
                ],
                "storageVariables": [
                    {
                        "name": "_balances",
                        "type": "mapping(address => uint256)",
                        "value": {
                            "pairs": [
                                {
                                    "key": "0x4cdbef82b40e128aa5524bb1971590557dbffc47",
                                    "value": {
                                        "current": "58328819480479997624320",
                                        "prev": "0",
                                        "typeTag": 1
                                    }
                                },
                                {
                                    "key": "0xeed86b90448c371eab47b7f16e294297c27e4f51",
                                    "value": {
                                        "current": "6404722581278514215075626",
                                        "prev": "6463051400758994212699946",
                                        "typeTag": 1
                                    }
                                }
                            ],
                            "typeTag": 4
                        }
                    }
                ]
            }
        ]
    }
}