{
    "balance_change": {
        "balanceChanges": [
            {
                "account": "0x99e5f46f5b0b730fcdac137f7824933d66b6c830",
                "assets": [
                    {
                        "address": "0xb58e0637cd110b67dda6db5137dafeaca0c2d845",
                        "amount": "30",
                        "iconUrl": "",
                        "isERC1155": false,
                        "isERC721": false,
                        "sign": false,
                        "value": ""
                    }
                ]
            },
            {
                "account": "0xb776370a05c0dc9eb6444d65669367b77bd3b4cb",
                "assets": [
                    {
                        "address": "0xb58e0637cd110b67dda6db5137dafeaca0c2d845",
                        "amount": "30",
                        "iconUrl": "",
                        "isERC1155": false,
                        "isERC721": false,
                        "sign": true,
                        "value": ""
                    }
                ]
            }
        ]
    },
    "profile": {
        "basic_info": {
            "baseFee": "",
            "blockNumber": 8118922,
            "callData": "0xa9059cbb000000000000000000000000b776370a05c0dc9eb6444d65669367b77bd3b4cb00000000000000000000000000000000000000000000000000000045d964b800",
            "debugEnable": true,
            "errorInfo": "",
            "eventCount": 1,
            "feeRecipient": "0x5a0b54d5dc17e0aadc383d2db43b0a0d3e029c4c",
            "formatValue": "0",
            "gasLimit": 81072,
            "gasPrice": "3",
            "gasUsed": 39048,
            "intTxnCount": 0,
            "internalRevert": false,
            "internalRevertMessage": "",
            "isContractCreation": false,
            "isFlashloan": false,
            "maxFee": "",
            "nonce": 1275,
            "overwritedBlockNumber": -1,
            "priorityFee": "",
            "receiver": "0xb58e0637cd110b67dda6db5137dafeaca0c2d845",
            "revertMessage": "",
            "sender": "0x99e5f46f5b0b730fcdac137f7824933d66b6c830",
            "simulationEnable": true,
            "sourceTxnHash": "0x6e2b63915396e92783a6b3dc8a19a42e577228c363a3d689da8779f8151c1d8b",
            "status": true,
            "timestamp": "2019-07-09T19:26:41Z",
            "transactionFee": "0.000117144",
            "txnHash": "0x6e2b63915396e92783a6b3dc8a19a42e577228c363a3d689da8779f8151c1d8b",
            "txnIndex": 63,
            "type": 0,
            "value": "0"
        },
        "fund_flow": [
            {
                "amount": "30",
                "from": "0x99e5f46f5b0b730fcdac137f7824933d66b6c830",
                "id": 1,
                "isERC1155": false,
                "isERC721": false,
                "isReverted": false,
                "order": 1,
                "to": "0xb776370a05c0dc9eb6444d65669367b77bd3b4cb",
                "token": "0xb58e0637cd110b67dda6db5137dafeaca0c2d845"
            }
        ],
        "token_infos": [
            {
                "address": "0xb58e0637cd110b67dda6db5137dafeaca0c2d845",
                "decimals": 10
            },
            {
                "address": "0xc02aaa39b223fe8d0a0e5c4f27ead9083c756cc2",
                "decimals": 18
            },
            {
                "address": "0xeeeeeeeeeeeeeeeeeeeeeeeeeeeeeeeeeeeeeeee",
                "decimals": 18
            }
        ]
    },
    "address_label": {
        "labels": [
            {
                "address": "0x0000000000000000000000000000000000000003",
                "label": "Precompiled"
            },
            {
                "address": "0x0000000000000000000000000000000000000004",
                "label": "Precompiled"
            },
            {
                "address": "0xeeeeeeeeeeeeeeeeeeeeeeeeeeeeeeeeeeeeeeee",
                "label": "Ether"
            },
            {
                "address": "0xb58e0637cd110b67dda6db5137dafeaca0c2d845",
                "label": "FAN"
            },
            {
                "address": "0x0000000000000000000000000000000000000001",
                "label": "Precompiled"
            },
            {
                "address": "0x0000000000000000000000000000000000000002",
                "label": "Precompiled"
            }
        ]
    },
    "trace": {
        "accountLabels": null,
        "dataMap": {
            "-1": {
                "invocation": {
                    "address": "0x99e5f46f5b0b730fcdac137f7824933d66b6c830",
                    "callData": "",
                    "decodedMethod": null,
                    "errorInfo": "",
                    "fromAddress": "",
                    "gasUsed": 0,
                    "id": -1,
                    "methodDecoded": false,
                    "operation": "",
                    "output": "",
                    "revert": false,
                    "revertMessage": "",
                    "selector": "",
                    "status": false,
                    "value": ""
                },
                "nodeType": 0
            },
            "0": {
                "invocation": {
                    "address": "0xb58e0637cd110b67dda6db5137dafeaca0c2d845",
                    "callData": "0x000000000000000000000000b776370a05c0dc9eb6444d65669367b77bd3b4cb00000000000000000000000000000000000000000000000000000045d964b800",
                    "decodedMethod": {
                        "callParams": [
                            {
                                "name": "_to",
                                "type": "address",
                                "value": "0xb776370a05c0dc9eb6444d65669367b77bd3b4cb"
                            },
                            {
                                "decimalAvailable": true,
                                "name": "_value",
                                "type": "uint256",
                                "value": "300,000,000,000"
                            }
                        ],
                        "constructorArguments": "",
                        "name": "transfer",
                        "returnParams": [],
                        "signature": "transfer(address,uint256)"
                    },
                    "errorInfo": "",
                    "fromAddress": "0x99e5f46f5b0b730fcdac137f7824933d66b6c830",
                    "gasUsed": 39048,
                    "id": 0,
                    "methodDecoded": true,
                    "operation": "CALL",
                    "output": "",
                    "revert": false,
                    "revertMessage": "",
                    "selector": "0xa9059cbb",
                    "status": true,
                    "value": "0"
                },
                "nodeType": 0
            },
            "1": {
                "event": {
                    "contract": "0xb58e0637cd110b67dda6db5137dafeaca0c2d845",
                    "decodedLog": {
                        "name": "Transfer",
                        "params": [
                            {
                                "name": "from",
                                "type": "address",
                                "value": "0x99e5f46f5b0b730fcdac137f7824933d66b6c830"
                            },
                            {
                                "name": "to",
                                "type": "address",
                                "value": "0xb776370a05c0dc9eb6444d65669367b77bd3b4cb"
                            },
                            {
                                "decimalAvailable": true,
                                "name": "value",
                                "type": "uint256",
                                "value": "300,000,000,000"
                            }
                        ],
                        "signature": "Transfer(address,address,uint256)"
                    },
                    "id": 1,
                    "logData": "0x00000000000000000000000000000000000000000000000000000045d964b800",
                    "logDecoded": true,
                    "operation": "EVENT",
                    "revert": false,
                    "status": true,
                    "topics": [
                        "0xddf252ad1be2c89b69c2b068fc378daa952ba7f163c4a11628f55a4df523b3ef",
                        "0x00000000000000000000000099e5f46f5b0b730fcdac137f7824933d66b6c830",
                        "0x000000000000000000000000b776370a05c0dc9eb6444d65669367b77bd3b4cb"
                    ]
                },
                "nodeType": 1
            }
        },
        "gasFlame": [
            {
                "children": [
                    {
                        "children": [
                            {
                                "children": [],
                                "depth": 0,
                                "name": "Initial Gas",
                                "value": 23064
                            },
                            {
                                "children": [],
                                "depth": 0,
                                "name": "Executed Gas",
                                "value": 15984
                            }
                        ],
                        "depth": -1,
                        "name": "Actual Gas Used",
                        "value": 39048
                    },
                    {
                        "children": [],
                        "depth": -1,
                        "name": "Refunded Gas",
                        "value": 0
                    }
                ],
                "depth": -2,
                "name": "Total Gas",
                "value": 39048
            }
        ],
        "isConfirmed": true,
        "mainTrace": [
            {
                "children": [
                    {
                        "children": [
                            {
                                "children": [],
                                "depth": 1,
                                "id": 1,
                                "order": 1
                            }
                        ],
                        "depth": 0,
                        "id": 0,
                        "order": 0
                    }
                ],
                "depth": -1,
                "id": -1,
                "order": -1
            }
        ],
        "mainTraceNodeCount": 2,
        "parentIdMap": {
            "0": -1,
            "1": 0
        },
        "tidyTrace": [
            {
                "children": [
                    {
                        "children": [
                            {
                                "children": [],
                                "depth": 1,
                                "id": 1,
                                "order": 1
                            }
                        ],
                        "depth": 0,
                        "id": 0,
                        "order": 0
                    }
                ],
                "depth": -1,
                "id": -1,
                "order": -1
            }
        ],
        "tidyTraceNodeCount": 2
    },
    "state_change": {
        "stateChanges": [
            {
                "address": "0xb58e0637cd110b67dda6db5137dafeaca0c2d845",
                "erc": "",
                "slots": [
                    {
                        "current": "0x000000000000000000000000000000000000000000000000776fbf1e59832818",
                        "key": "0x185776a48a1646bc5e7c661bd5acef5e3612521b9b9a5f86e7722fe09509c7d8",
                        "prev": "0x000000000000000000000000000000000000000000000000776fbf6432e7e018"
                    },
                    {
                        "current": "0x0000000000000000000000000000000000000000000000000000008bb2c97000",
                        "key": "0x6d9775f989e4dd910b13742deb4f4670e1f6f5b338e00f8bc8c495b3c52679a5",
                        "prev": "0x00000000000000000000000000000000000000000000000000000045d964b800"
                    }
                ],
                "storageVariables": []
            }
        ]
    }
}