{
    "balance_change": {
        "balanceChanges": [
            {
                "account": "0x0000000000000000000000000000000000000000",
                "assets": [
                    {
                        "address": "0xa151ce846dd791f96b67bb6bbb77bab7325f196e",
                        "amount": "1",
                        "iconUrl": "",
                        "isERC1155": false,
                        "isERC721": true,
                        "sign": false,
                        "tokenID": "1",
                        "value": ""
                    }
                ]
            },
            {
                "account": "0xe4edf30746e710384935535f8a7caaf56ec8fded",
                "assets": [
                    {
                        "address": "0xa151ce846dd791f96b67bb6bbb77bab7325f196e",
                        "amount": "1",
                        "iconUrl": "",
                        "isERC1155": false,
                        "isERC721": true,
                        "sign": true,
                        "tokenID": "1",
                        "value": ""
                    }
                ]
            }
        ]
    },
    "profile": {
        "basic_info": {
            "baseFee": "14.926026075",
            "blockNumber": 17710809,
            "callData": "0x6933e79a0000000000000000000000000000000000000000000000000000000000000040000000000000000000000000cda72070e455bb31c7690a170224ce43623d0b6f000000000000000000000000000000000000000000000000000000000000003c516d64656d774b4e35754871593733784a33524d7862334e36556559447341746f556941693958415248703141502f6d657461646174612e6a736f6e00000000",
            "debugEnable": true,
            "errorInfo": "",
            "eventCount": 3,
            "feeRecipient": "0x95222290dd7278aa3ddd389cc1e1d165cc4bafe5",
            "formatValue": "0",
            "gasLimit": 218231,
            "gasPrice": "15.026026075",
            "gasUsed": 195725,
            "intTxnCount": 1,
            "internalRevert": false,
            "internalRevertMessage": "",
            "isContractCreation": false,
            "isFlashloan": false,
            "maxFee": "19.556106178",
            "nonce": 1,
            "overwritedBlockNumber": -1,
            "priorityFee": "0.1",
            "receiver": "0xa151ce846dd791f96b67bb6bbb77bab7325f196e",
            "revertMessage": "",
            "sender": "0xe4edf30746e710384935535f8a7caaf56ec8fded",
            "simulationEnable": true,
            "sourceTxnHash": "0x6ef90a08f6c7821d2bc6f36f03d77bbe436b93afdb7445168bdead7f41e3ac85",
            "status": true,
            "timestamp": "2023-07-17T05:09:47Z",
            "transactionFee": "0.002940968953529375",
            "txnHash": "0x6ef90a08f6c7821d2bc6f36f03d77bbe436b93afdb7445168bdead7f41e3ac85",
            "txnIndex": 118,
            "type": 2,
            "value": "0"
        },
        "fund_flow": [
            {
                "amount": "1",
                "from": "0x0000000000000000000000000000000000000000",
                "id": 1,
                "isERC1155": false,
                "isERC721": true,
                "isReverted": false,
                "order": 1,
                "to": "0xe4edf30746e710384935535f8a7caaf56ec8fded",
                "token": "0xa151ce846dd791f96b67bb6bbb77bab7325f196e",
                "tokenID": "1"
            }
        ],
        "token_infos": [
            {
                "address": "0xc02aaa39b223fe8d0a0e5c4f27ead9083c756cc2",
                "decimals": 18
            },
            {
                "address": "0xeeeeeeeeeeeeeeeeeeeeeeeeeeeeeeeeeeeeeeee",
                "decimals": 18
            }
        ]
    },
    "address_label": {
        "labels": [
            {
                "address": "0x0000000000000000000000000000000000000002",
                "label": "Precompiled"
            },
            {
                "address": "0x0000000000000000000000000000000000000003",
                "label": "Precompiled"
            },
            {
                "address": "0x0000000000000000000000000000000000000004",
                "label": "Precompiled"
            },
            {
                "address": "0xeeeeeeeeeeeeeeeeeeeeeeeeeeeeeeeeeeeeeeee",
                "label": "Ether"
            },
            {
                "address": "0xc47eff3555dad3b7cb76fcb77d832b8c075f3bde",
                "label": "NFTCollection"
            },
            {
                "address": "0xcda72070e455bb31c7690a170224ce43623d0b6f",
                "label": "Foundation: Market"
            },
            {
                "address": "0x0000000000000000000000000000000000000001",
                "label": "Precompiled"
            }
        ]
    },
    "trace": {
        "accountLabels": null,
        "dataMap": {
            "-1": {
                "invocation": {
                    "address": "0xe4edf30746e710384935535f8a7caaf56ec8fded",
                    "callData": "",
                    "decodedMethod": null,
                    "errorInfo": "",
                    "fromAddress": "",
                    "gasUsed": 0,
                    "id": -1,
                    "methodDecoded": false,
                    "operation": "",
                    "output": "",
                    "revert": false,
                    "revertMessage": "",
                    "selector": "",
                    "status": false,
                    "value": ""
                },
                "nodeType": 0
            },
            "0": {
                "invocation": {
                    "address": "0xa151ce846dd791f96b67bb6bbb77bab7325f196e",
                    "callData": "0x0000000000000000000000000000000000000000000000000000000000000040000000000000000000000000cda72070e455bb31c7690a170224ce43623d0b6f000000000000000000000000000000000000000000000000000000000000003c516d64656d774b4e35754871593733784a33524d7862334e36556559447341746f556941693958415248703141502f6d657461646174612e6a736f6e00000000",
                    "decodedMethod": {
                        "callParams": [
                            {
                                "name": "tokenCID",
                                "type": "string",
                                "value": "QmdemwKN5uHqY73xJ3RMxb3N6UeYDsAtoUiAi9XARHp1AP/metadata.json"
                            },
                            {
                                "name": "operator",
                                "type": "address",
                                "value": "0xcda72070e455bb31c7690a170224ce43623d0b6f"
                            }
                        ],
                        "constructorArguments": "",
                        "name": "mintAndApprove",
                        "returnParams": [
                            {
                                "name": "tokenId",
                                "type": "uint256",
                                "value": "1"
                            }
                        ],
                        "signature": "mintAndApprove(string,address)"
                    },
                    "errorInfo": "",
                    "fromAddress": "0xe4edf30746e710384935535f8a7caaf56ec8fded",
                    "gasUsed": 195725,
                    "id": 0,
                    "methodDecoded": true,
                    "operation": "CALL",
                    "output": "0x0000000000000000000000000000000000000000000000000000000000000001",
                    "revert": false,
                    "revertMessage": "",
                    "selector": "0x6933e79a",
                    "status": true,
                    "value": "0"
                },
                "nodeType": 0
            },
            "1": {
                "invocation": {
                    "address": "0xc47eff3555dad3b7cb76fcb77d832b8c075f3bde",
                    "callData": "0x0000000000000000000000000000000000000000000000000000000000000040000000000000000000000000cda72070e455bb31c7690a170224ce43623d0b6f000000000000000000000000000000000000000000000000000000000000003c516d64656d774b4e35754871593733784a33524d7862334e36556559447341746f556941693958415248703141502f6d657461646174612e6a736f6e00000000",
                    "decodedMethod": {
                        "callParams": [
                            {
                                "name": "tokenCID",
                                "type": "string",
                                "value": "QmdemwKN5uHqY73xJ3RMxb3N6UeYDsAtoUiAi9XARHp1AP/metadata.json"
                            },
                            {
                                "name": "operator",
                                "type": "address",
                                "value": "0xcda72070e455bb31c7690a170224ce43623d0b6f"
                            }
                        ],
                        "constructorArguments": "",
                        "name": "mintAndApprove",
                        "returnParams": [
                            {
                                "name": "tokenId",
                                "type": "uint256",
                                "value": "1"
                            }
                        ],
                        "signature": "mintAndApprove(string,address)"
                    },
                    "errorInfo": "",
                    "fromAddress": "0xa151ce846dd791f96b67bb6bbb77bab7325f196e",
                    "gasUsed": 170341,
                    "id": 1,
                    "methodDecoded": true,
                    "operation": "DELEGATECALL",
                    "output": "0x0000000000000000000000000000000000000000000000000000000000000001",
                    "revert": false,
                    "revertMessage": "",
                    "selector": "0x6933e79a",
                    "status": true,
                    "value": "0"
                },
                "nodeType": 0
            },
            "2": {
                "event": {
                    "contract": "0xa151ce846dd791f96b67bb6bbb77bab7325f196e",
                    "decodedLog": {
                        "name": "Transfer",
                        "params": [
                            {
                                "name": "from",
                                "type": "address",
                                "value": "0x0000000000000000000000000000000000000000"
                            },
                            {
                                "name": "to",
                                "type": "address",
                                "value": "0xe4edf30746e710384935535f8a7caaf56ec8fded"
                            },
                            {
                                "decimalAvailable": true,
                                "name": "tokenId",
                                "type": "uint256",
                                "value": "1"
                            }
                        ],
                        "signature": "Transfer(address,address,uint256)"
                    },
                    "id": 2,
                    "logData": "0x",
                    "logDecoded": true,
                    "operation": "EVENT",
                    "revert": false,
                    "status": true,
                    "topics": [
                        "0xddf252ad1be2c89b69c2b068fc378daa952ba7f163c4a11628f55a4df523b3ef",
                        "0x0000000000000000000000000000000000000000000000000000000000000000",
                        "0x000000000000000000000000e4edf30746e710384935535f8a7caaf56ec8fded",
                        "0x0000000000000000000000000000000000000000000000000000000000000001"
                    ]
                },
                "nodeType": 1
            },
            "3": {
                "event": {
                    "contract": "0xa151ce846dd791f96b67bb6bbb77bab7325f196e",
                    "decodedLog": {
                        "name": "Minted",
                        "params": [
                            {
                                "name": "creator",
                                "type": "address",
                                "value": "0xe4edf30746e710384935535f8a7caaf56ec8fded"
                            },
                            {
                                "name": "tokenId",
                                "type": "uint256",
                                "value": "1"
                            },
                            {
                                "name": "indexedTokenCID",
                                "type": "string",
                                "value": "0x5c5ffe778d825eaca571c53f964330c3507c9d36c6f7f29bdcb483e3afa4e58e"
                            },
                            {
                                "name": "tokenCID",
                                "type": "string",
                                "value": "QmdemwKN5uHqY73xJ3RMxb3N6UeYDsAtoUiAi9XARHp1AP/metadata.json"
                            }
                        ],
                        "signature": "Minted(address,uint256,string,string)"
                    },
                    "id": 3,
                    "logData": "0x0000000000000000000000000000000000000000000000000000000000000020000000000000000000000000000000000000000000000000000000000000003c516d64656d774b4e35754871593733784a33524d7862334e36556559447341746f556941693958415248703141502f6d657461646174612e6a736f6e00000000",
                    "logDecoded": true,
                    "operation": "EVENT",
                    "revert": false,
                    "status": true,
                    "topics": [
                        "0xe2406cfd356cfbe4e42d452bde96d27f48c423e5f02b5d78695893308399519d",
                        "0x000000000000000000000000e4edf30746e710384935535f8a7caaf56ec8fded",
                        "0x0000000000000000000000000000000000000000000000000000000000000001",
                        "0x5c5ffe778d825eaca571c53f964330c3507c9d36c6f7f29bdcb483e3afa4e58e"
                    ]
                },
                "nodeType": 1
            },
            "4": {
                "event": {
                    "contract": "0xa151ce846dd791f96b67bb6bbb77bab7325f196e",
                    "decodedLog": {
                        "name": "ApprovalForAll",
                        "params": [
                            {
                                "name": "owner",
                                "type": "address",
                                "value": "0xe4edf30746e710384935535f8a7caaf56ec8fded"
                            },
                            {
                                "name": "operator",
                                "type": "address",
                                "value": "0xcda72070e455bb31c7690a170224ce43623d0b6f"
                            },
                            {
                                "name": "approved",
                                "type": "bool",
                                "value": true
                            }
                        ],
                        "signature": "ApprovalForAll(address,address,bool)"
                    },
                    "id": 4,
                    "logData": "0x0000000000000000000000000000000000000000000000000000000000000001",
                    "logDecoded": true,
                    "operation": "EVENT",
                    "revert": false,
                    "status": true,
                    "topics": [
                        "0x17307eab39ab6107e8899845ad3d59bd9653f200f220920489ca2b5937696c31",
                        "0x000000000000000000000000e4edf30746e710384935535f8a7caaf56ec8fded",
                        "0x000000000000000000000000cda72070e455bb31c7690a170224ce43623d0b6f"
                    ]
                },
                "nodeType": 1
            }
        },
        "gasFlame": [
            {
                "children": [
                    {
                        "children": [
                            {
                                "children": [],
                                "depth": 0,
                                "name": "Initial Gas",
                                "value": 22688
                            },
                            {
                                "children": [
                                    {
                                        "children": [],
                                        "depth": 1,
                                        "name": "mintAndApprove",
                                        "value": 170341
                                    }
                                ],
                                "depth": 0,
                                "name": "Executed Gas",
                                "value": 173037
                            }
                        ],
                        "depth": -1,
                        "name": "Actual Gas Used",
                        "value": 195725
                    },
                    {
                        "children": [],
                        "depth": -1,
                        "name": "Refunded Gas",
                        "value": 0
                    }
                ],
                "depth": -2,
                "name": "Total Gas",
                "value": 195725
            }
        ],
        "isConfirmed": true,
        "mainTrace": [
            {
                "children": [
                    {
                        "children": [
                            {
                                "children": [
                                    {
                                        "children": [],
                                        "depth": 2,
                                        "id": 2,
                                        "order": 2
                                    },
                                    {
                                        "children": [],
                                        "depth": 2,
                                        "id": 3,
                                        "order": 3
                                    },
                                    {
                                        "children": [],
                                        "depth": 2,
                                        "id": 4,
                                        "order": 4
                                    }
                                ],
                                "depth": 1,
                                "id": 1,
                                "order": 1
                            }
                        ],
                        "depth": 0,
                        "id": 0,
                        "order": 0
                    }
                ],
                "depth": -1,
                "id": -1,
                "order": -1
            }
        ],
        "mainTraceNodeCount": 5,
        "parentIdMap": {
            "0": -1,
            "1": 0,
            "2": 1,
            "3": 1,
            "4": 1
        },
        "tidyTrace": [
            {
                "children": [
                    {
                        "children": [
                            {
                                "children": [
                                    {
                                        "children": [],
                                        "depth": 2,
                                        "id": 2,
                                        "order": 2
                                    },
                                    {
                                        "children": [],
                                        "depth": 2,
                                        "id": 3,
                                        "order": 3
                                    },
                                    {
                                        "children": [],
                                        "depth": 2,
                                        "id": 4,
                                        "order": 4
                                    }
                                ],
                                "depth": 1,
                                "id": 1,
                                "order": 1
                            }
                        ],
                        "depth": 0,
                        "id": 0,
                        "order": 0
                    }
                ],
                "depth": -1,
                "id": -1,
                "order": -1
            }
        ],
        "tidyTraceNodeCount": 5
    },
    "state_change": {
        "stateChanges": [
            {
                "address": "0xa151ce846dd791f96b67bb6bbb77bab7325f196e",
                "erc": "ERC-721",
                "slots": [
                    {
                        "current": "0x516d64656d774b4e35754871593733784a33524d7862334e3655655944734174",
                        "key": "0x39689232eb532208b550966160284de5eed75229baa49dc3e930407c5d1bce1a",
                        "prev": "0x0000000000000000000000000000000000000000000000000000000000000000"
                    },
                    {
                        "current": "0x6f556941693958415248703141502f6d657461646174612e6a736f6e00000000",
                        "key": "0x39689232eb532208b550966160284de5eed75229baa49dc3e930407c5d1bce1b",
                        "prev": "0x0000000000000000000000000000000000000000000000000000000000000000"
                    },
                    {
                        "current": "0x0000000000000000000000000000000000000000000000000000000000000079",
                        "key": "0x64c45f359ea2f8a06c7d9522781502fc36217a93bbdf992266ddda137e19fb19",
                        "prev": "0x0000000000000000000000000000000000000000000000000000000000000000"
                    },
                    {
                        "current": "0x0000000000000000000000000000000000000000000000000000000000000001",
                        "key": "0xdba4b991e177a279aeb6faf39b1ce5737f6680c14290dcf49ac31de0ef29e6b2",
                        "prev": "0x0000000000000000000000000000000000000000000000000000000000000000"
                    },
                    {
                        "current": "0x000000000000000000000000e4edf30746e710384935535f8a7caaf56ec8fded",
                        "key": "0x6bee784efeb983674392298ab585b22866bedf00ebb0eea949d1e66f3f50e71d",
                        "prev": "0x0000000000000000000000000000000000000000000000000000000000000000"
                    },
                    {
                        "current": "0x0000000000000000000000000000000000000000000000000000000000000001",
                        "key": "0x38a8d81699448e0532ec80f7e7b49b77c29e4394c5b308171607921610062771",
                        "prev": "0x0000000000000000000000000000000000000000000000000000000000000000"
                    },
                    {
                        "current": "0x000000000000000000000001e4edf30746e710384935535f8a7caaf56ec8fded",
                        "key": "0x00000000000000000000000000000000000000000000000000000000000000c9",
                        "prev": "0x000000000000000000000000e4edf30746e710384935535f8a7caaf56ec8fded"
                    },
                    {
                        "current": "0x0000000000000000000000000000000000000000000000000000000000000001",
                        "key": "0x0064c941c2784fce2b534fca7bb0e7ab4fa277e4265e589088e5f7f7b289f137",
                        "prev": "0x0000000000000000000000000000000000000000000000000000000000000000"
                    }
                ],
                "storageVariables": [
                    {
                        "name": "_operatorApprovals",
                        "type": "mapping(address => mapping(address => bool))",
                        "value": {
                            "pairs": [
                                {
                                    "key": "0xe4edf30746e710384935535f8a7caaf56ec8fded",
                                    "value": {
                                        "pairs": [
                                            {
                                                "key": "0xcda72070e455bb31c7690a170224ce43623d0b6f",
                                                "value": {
                                                    "current": "true",
                                                    "prev": "false",
                                                    "typeTag": 1
                                                }
                                            }
                                        ],
                                        "typeTag": 4
                                    }
                                }
                            ],
                            "typeTag": 4
                        }
                    },
                    {
                        "name": "owner",
                        "type": "address payable",
                        "value": {
                            "current": "0xe4edf30746e710384935535f8a7caaf56ec8fded",
                            "prev": "0xe4edf30746e710384935535f8a7caaf56ec8fded",
                            "typeTag": 1
                        }
                    },
                    {
                        "name": "latestTokenId",
                        "type": "uint32",
                        "value": {
                            "current": "1",
                            "prev": "0",
                            "typeTag": 1
                        }
                    },
                    {
                        "name": "burnCounter",
                        "type": "uint32",
                        "value": {
                            "current": "0",
                            "prev": "0",
                            "typeTag": 1
                        }
                    },
                    {
                        "name": "maxTokenId",
                        "type": "uint32",
                        "value": {
                            "current": "0",
                            "prev": "0",
                            "typeTag": 1
                        }
                    },
                    {
                        "name": "cidToMinted",
                        "type": "mapping(string => uint256)",
                        "value": {
                            "pairs": [
                                {
                                    "key": "QmdemwKN5uHqY73xJ3RMxb3N6UeYDsAtoUiAi9XARHp1AP/metadata.json",
                                    "value": {
                                        "current": "1",
                                        "prev": "0",
                                        "typeTag": 1
                                    }
                                }
                            ],
                            "typeTag": 4
                        }
                    },
                    {
                        "name": "_tokenCIDs",
                        "type": "mapping(uint256 => string)",
                        "value": {
                            "pairs": [
                                {
                                    "key": "1",
                                    "value": {
                                        "current": "QmdemwKN5uHqY73xJ3RMxb3N6UeYDsAtoUiAi9XARHp1AP/metadata.json",
                                        "prev": "",
                                        "typeTag": 1
                                    }
                                }
                            ],
                            "typeTag": 4
                        }
                    },
                    {
                        "name": "_balances",
                        "type": "mapping(address => uint256)",
                        "value": {
                            "pairs": [
                                {
                                    "key": "0xe4edf30746e710384935535f8a7caaf56ec8fded",
                                    "value": {
                                        "current": "1",
                                        "prev": "0",
                                        "typeTag": 1
                                    }
                                }
                            ],
                            "typeTag": 4
                        }
                    },
                    {
                        "name": "_owners",
                        "type": "mapping(uint256 => address)",
                        "value": {
                            "pairs": [
                                {
                                    "key": "1",
                                    "value": {
                                        "current": "0xe4edf30746e710384935535f8a7caaf56ec8fded",
                                        "prev": "0x0000000000000000000000000000000000000000",
                                        "typeTag": 1
                                    }
                                }
                            ],
                            "typeTag": 4
                        }
                    }
                ]
            }
        ]
    }
}