{
    "balance_change": {
        "balanceChanges": [
            {
                "account": "0x601e450918aa542aa5ce7ab97a7a0270a4f2e5bc",
                "assets": [
                    {
                        "address": "0xeeeeeeeeeeeeeeeeeeeeeeeeeeeeeeeeeeeeeeee",
                        "amount": "0.013",
                        "iconUrl": "https://assets.blocksec.com/image/1663669189317-3.png",
                        "isERC1155": false,
                        "isERC721": false,
                        "sign": false,
                        "value": "37.98317521"
                    },
                    {
                        "address": "0xe283dddc1d93e40e3748de182ff0219cd154372e",
                        "amount": "1",
                        "iconUrl": "",
                        "isERC1155": false,
                        "isERC721": true,
                        "sign": true,
                        "tokenID": "4227",
                        "value": ""
                    }
                ]
            },
            {
                "account": "0x5b3256965e7c3cf26e11fcaf296dfc8807c01073",
                "assets": [
                    {
                        "address": "0xeeeeeeeeeeeeeeeeeeeeeeeeeeeeeeeeeeeeeeee",
                        "amount": "0.001625",
                        "iconUrl": "https://assets.blocksec.com/image/1663669189317-3.png",
                        "isERC1155": false,
                        "isERC721": false,
                        "sign": true,
                        "value": "4.7478969"
                    }
                ]
            },
            {
                "account": "0xa04f381ce78a109b222c1401b2029509c762769a",
                "assets": [
                    {
                        "address": "0xeeeeeeeeeeeeeeeeeeeeeeeeeeeeeeeeeeeeeeee",
                        "amount": "0.011375",
                        "iconUrl": "https://assets.blocksec.com/image/1663669189317-3.png",
                        "isERC1155": false,
                        "isERC721": false,
                        "sign": true,
                        "value": "33.23527831"
                    },
                    {
                        "address": "0xe283dddc1d93e40e3748de182ff0219cd154372e",
                        "amount": "1",
                        "iconUrl": "",
                        "isERC1155": false,
                        "isERC721": true,
                        "sign": false,
                        "tokenID": "4227",
                        "value": ""
                    }
                ]
            }
        ]
    },
    "profile": {
        "basic_info": {
            "baseFee": "28.618057115",
            "blockNumber": 14677385,
            "callData": "0xab834bab0000000000000000000000007f268357a8c2552623316e2562d90e642bb538e5000000000000000000000000601e450918aa542aa5ce7ab97a7a0270a4f2e5bc000000000000000000000000a04f381ce78a109b222c1401b2029509c762769a0000000000000000000000000000000000000000000000000000000000000000000000000000000000000000baf2127b49fc93cbca6269fade0f7f31df4c88a7000000000000000000000000000000000000000000000000000000000000000000000000000000000000000000000000000000000000000000000000000000000000000000000000000000007f268357a8c2552623316e2562d90e642bb538e5000000000000000000000000a04f381ce78a109b222c1401b2029509c762769a00000000000000000000000000000000000000000000000000000000000000000000000000000000000000005b3256965e7c3cf26e11fcaf296dfc8807c01073000000000000000000000000baf2127b49fc93cbca6269fade0f7f31df4c88a70000000000000000000000000000000000000000000000000000000000000000000000000000000000000000000000000000000000000000000000000000000000000000000000000000000000000000000000000000000000000000000004e2000000000000000000000000000000000000000000000000000000000000000000000000000000000000000000000000000000000000000000000000000000000000000000000000000000000000000000000000000000000000000000000000000000000000000000000000000000000000000000000000002e2f6e5e148000000000000000000000000000000000000000000000000000000000000000000000000000000000000000000000000000000000000000000000000000626b784b0000000000000000000000000000000000000000000000000000000000000000019d7c345af9a3405faed021b0fc180aa7f00b680d2ad5c332de3d82d72d68e700000000000000000000000000000000000000000000000000000000000004e2000000000000000000000000000000000000000000000000000000000000000000000000000000000000000000000000000000000000000000000000000000000000000000000000000000000000000000000000000000000000000000000000000000000000000000000000000000000000000000000000002e2f6e5e148000000000000000000000000000000000000000000000000000000000000000000000000000000000000000000000000000000000000000000000000000626b77de00000000000000000000000000000000000000000000000000000000626cc9b18bbb5ffa6766b0e03c21b230c185fca40ae69cb2d876315e41dee1afae9d33c60000000000000000000000000000000000000000000000000000000000000001000000000000000000000000000000000000000000000000000000000000000000000000000000000000000000000000000000000000000000000000000000000000000000000000000000000000000000000000000000000000000000000001000000000000000000000000000000000000000000000000000000000000000100000000000000000000000000000000000000000000000000000000000000010000000000000000000000000000000000000000000000000000000000000000000000000000000000000000000000000000000000000000000000000000000100000000000000000000000000000000000000000000000000000000000006a000000000000000000000000000000000000000000000000000000000000007c000000000000000000000000000000000000000000000000000000000000008e00000000000000000000000000000000000000000000000000000000000000a000000000000000000000000000000000000000000000000000000000000000b200000000000000000000000000000000000000000000000000000000000000b20000000000000000000000000000000000000000000000000000000000000001c000000000000000000000000000000000000000000000000000000000000001c1ccf6c8e71d6b24253e787a6014e8228704f307995f28f17b39240dd1ff31aeb108dd1f501c6a1e411113b4018c1d108cad1d7399e8e73bd2944b10e4c37ffb61ccf6c8e71d6b24253e787a6014e8228704f307995f28f17b39240dd1ff31aeb108dd1f501c6a1e411113b4018c1d108cad1d7399e8e73bd2944b10e4c37ffb6000000000000000000000000000000000000000000000000000000000000000000000000000000000000000000000000000000000000000000000000000000e4fb16a5950000000000000000000000000000000000000000000000000000000000000000000000000000000000000000601e450918aa542aa5ce7ab97a7a0270a4f2e5bc000000000000000000000000e283dddc1d93e40e3748de182ff0219cd154372e0000000000000000000000000000000000000000000000000000000000001083000000000000000000000000000000000000000000000000000000000000000000000000000000000000000000000000000000000000000000000000000000c000000000000000000000000000000000000000000000000000000000000000000000000000000000000000000000000000000000000000000000000000000000000000000000000000000000000000000000000000000000000000e4fb16a595000000000000000000000000a04f381ce78a109b222c1401b2029509c762769a0000000000000000000000000000000000000000000000000000000000000000000000000000000000000000e283dddc1d93e40e3748de182ff0219cd154372e0000000000000000000000000000000000000000000000000000000000001083000000000000000000000000000000000000000000000000000000000000000000000000000000000000000000000000000000000000000000000000000000c000000000000000000000000000000000000000000000000000000000000000000000000000000000000000000000000000000000000000000000000000000000000000000000000000000000000000000000000000000000000000e400000000ffffffffffffffffffffffffffffffffffffffffffffffffffffffffffffffff0000000000000000000000000000000000000000000000000000000000000000000000000000000000000000000000000000000000000000000000000000000000000000000000000000000000000000000000000000000000000000000000000000000000000000000000000000000000000000000000000000000000000000000000000000000000000000000000000000000000000000000000000000000000000000000000000000000000000000000000000000000000000000000000000000000000000000000000000000000000000000000000000000000000000000000000000000000000000000000000000000000000000000000000e4000000000000000000000000000000000000000000000000000000000000000000000000ffffffffffffffffffffffffffffffffffffffffffffffffffffffffffffffff00000000000000000000000000000000000000000000000000000000000000000000000000000000000000000000000000000000000000000000000000000000000000000000000000000000000000000000000000000000000000000000000000000000000000000000000000000000000000000000000000000000000000000000000000000000000000000000000000000000000000000000000000000000000000000000000000000000000000000000000000000000000000000000000000000000000000000000000000000000000000000000000000000000",
            "debugEnable": true,
            "errorInfo": "",
            "eventCount": 3,
            "feeRecipient": "0xc365c3315cf926351ccaf13fa7d19c8c4058c8e1",
            "formatValue": "0.013",
            "gasLimit": 258282,
            "gasPrice": "30.118057115",
            "gasUsed": 193737,
            "intTxnCount": 11,
            "internalRevert": false,
            "internalRevertMessage": "",
            "isContractCreation": false,
            "isFlashloan": false,
            "maxFee": "33.220281157",
            "nonce": 321,
            "overwritedBlockNumber": -1,
            "priorityFee": "1.5",
            "receiver": "0x7f268357a8c2552623316e2562d90e642bb538e5",
            "revertMessage": "",
            "sender": "0x601e450918aa542aa5ce7ab97a7a0270a4f2e5bc",
            "simulationEnable": true,
            "sourceTxnHash": "0x6fbca2e72512fb30fd086caafbf30949f25bb80014c12db158a2a9d28addcf81",
            "status": true,
            "timestamp": "2022-04-29T05:33:41Z",
            "transactionFee": "0.005834982031288755",
            "txnHash": "0x6fbca2e72512fb30fd086caafbf30949f25bb80014c12db158a2a9d28addcf81",
            "txnIndex": 68,
            "type": 2,
            "value": "13000000000000000"
        },
        "fund_flow": [
            {
                "amount": "0.013",
                "from": "0x601e450918aa542aa5ce7ab97a7a0270a4f2e5bc",
                "id": 1,
                "isERC1155": false,
                "isERC721": false,
                "isReverted": false,
                "order": 1,
                "to": "0x7f268357a8c2552623316e2562d90e642bb538e5",
                "token": "0xeeeeeeeeeeeeeeeeeeeeeeeeeeeeeeeeeeeeeeee"
            },
            {
                "amount": "0.001625",
                "from": "0x7f268357a8c2552623316e2562d90e642bb538e5",
                "id": 2,
                "isERC1155": false,
                "isERC721": false,
                "isReverted": false,
                "order": 2,
                "to": "0x5b3256965e7c3cf26e11fcaf296dfc8807c01073",
                "token": "0xeeeeeeeeeeeeeeeeeeeeeeeeeeeeeeeeeeeeeeee"
            },
            {
                "amount": "0.011375",
                "from": "0x7f268357a8c2552623316e2562d90e642bb538e5",
                "id": 3,
                "isERC1155": false,
                "isERC721": false,
                "isReverted": false,
                "order": 3,
                "to": "0xa04f381ce78a109b222c1401b2029509c762769a",
                "token": "0xeeeeeeeeeeeeeeeeeeeeeeeeeeeeeeeeeeeeeeee"
            },
            {
                "amount": "1",
                "from": "0xa04f381ce78a109b222c1401b2029509c762769a",
                "id": 4,
                "isERC1155": false,
                "isERC721": true,
                "isReverted": false,
                "order": 4,
                "to": "0x601e450918aa542aa5ce7ab97a7a0270a4f2e5bc",
                "token": "0xe283dddc1d93e40e3748de182ff0219cd154372e",
                "tokenID": "4227"
            }
        ],
        "token_infos": [
            {
                "address": "0xc02aaa39b223fe8d0a0e5c4f27ead9083c756cc2",
                "decimals": 18
            },
            {
                "address": "0xeeeeeeeeeeeeeeeeeeeeeeeeeeeeeeeeeeeeeeee",
                "decimals": 18
            }
        ]
    },
    "address_label": {
        "labels": [
            {
                "address": "0x0000000000000000000000000000000000000004",
                "label": "Precompiled"
            },
            {
                "address": "0xe283dddc1d93e40e3748de182ff0219cd154372e",
                "label": "Sneaky Goblins: SG Token"
            },
            {
                "address": "0x0000000000000000000000000000000000000003",
                "label": "Precompiled"
            },
            {
                "address": "0x7f268357a8c2552623316e2562d90e642bb538e5",
                "label": "OpenSea: Wyvern Exchange v2"
            },
            {
                "address": "0x0000000000000000000000000000000000000000",
                "label": "Null Address"
            },
            {
                "address": "0x16fe98ee34902d5a85cc1275c819ca7fc237a9ba",
                "label": "OwnableDelegateProxy"
            },
            {
                "address": "0x0000000000000000000000000000000000000002",
                "label": "Precompiled"
            },
            {
                "address": "0xeeeeeeeeeeeeeeeeeeeeeeeeeeeeeeeeeeeeeeee",
                "label": "Ether"
            },
            {
                "address": "0xa5409ec958c83c3f309868babaca7c86dcb077c1",
                "label": "OpenSea: Registry"
            },
            {
                "address": "0xf9e266af4bca5890e2781812cc6a6e89495a79f2",
                "label": "AuthenticatedProxy"
            },
            {
                "address": "0xbaf2127b49fc93cbca6269fade0f7f31df4c88a7",
                "label": "MerkleValidator"
            },
            {
                "address": "0x5b3256965e7c3cf26e11fcaf296dfc8807c01073",
                "label": "OpenSea: Wallet"
            },
            {
                "address": "0x0000000000000000000000000000000000000001",
                "label": "Precompiled"
            }
        ]
    },
    "trace": {
        "accountLabels": null,
        "dataMap": {
            "-1": {
                "invocation": {
                    "address": "0x601e450918aa542aa5ce7ab97a7a0270a4f2e5bc",
                    "callData": "",
                    "decodedMethod": null,
                    "errorInfo": "",
                    "fromAddress": "",
                    "gasUsed": 0,
                    "id": -1,
                    "methodDecoded": false,
                    "operation": "",
                    "output": "",
                    "revert": false,
                    "revertMessage": "",
                    "selector": "",
                    "status": false,
                    "value": ""
                },
                "nodeType": 0
            },
            "0": {
                "invocation": {
                    "address": "0x7f268357a8c2552623316e2562d90e642bb538e5",
                    "callData": "0x0000000000000000000000007f268357a8c2552623316e2562d90e642bb538e5000000000000000000000000601e450918aa542aa5ce7ab97a7a0270a4f2e5bc000000000000000000000000a04f381ce78a109b222c1401b2029509c762769a0000000000000000000000000000000000000000000000000000000000000000000000000000000000000000baf2127b49fc93cbca6269fade0f7f31df4c88a7000000000000000000000000000000000000000000000000000000000000000000000000000000000000000000000000000000000000000000000000000000000000000000000000000000007f268357a8c2552623316e2562d90e642bb538e5000000000000000000000000a04f381ce78a109b222c1401b2029509c762769a00000000000000000000000000000000000000000000000000000000000000000000000000000000000000005b3256965e7c3cf26e11fcaf296dfc8807c01073000000000000000000000000baf2127b49fc93cbca6269fade0f7f31df4c88a70000000000000000000000000000000000000000000000000000000000000000000000000000000000000000000000000000000000000000000000000000000000000000000000000000000000000000000000000000000000000000000004e2000000000000000000000000000000000000000000000000000000000000000000000000000000000000000000000000000000000000000000000000000000000000000000000000000000000000000000000000000000000000000000000000000000000000000000000000000000000000000000000000002e2f6e5e148000000000000000000000000000000000000000000000000000000000000000000000000000000000000000000000000000000000000000000000000000626b784b0000000000000000000000000000000000000000000000000000000000000000019d7c345af9a3405faed021b0fc180aa7f00b680d2ad5c332de3d82d72d68e700000000000000000000000000000000000000000000000000000000000004e2000000000000000000000000000000000000000000000000000000000000000000000000000000000000000000000000000000000000000000000000000000000000000000000000000000000000000000000000000000000000000000000000000000000000000000000000000000000000000000000000002e2f6e5e148000000000000000000000000000000000000000000000000000000000000000000000000000000000000000000000000000000000000000000000000000626b77de00000000000000000000000000000000000000000000000000000000626cc9b18bbb5ffa6766b0e03c21b230c185fca40ae69cb2d876315e41dee1afae9d33c60000000000000000000000000000000000000000000000000000000000000001000000000000000000000000000000000000000000000000000000000000000000000000000000000000000000000000000000000000000000000000000000000000000000000000000000000000000000000000000000000000000000000001000000000000000000000000000000000000000000000000000000000000000100000000000000000000000000000000000000000000000000000000000000010000000000000000000000000000000000000000000000000000000000000000000000000000000000000000000000000000000000000000000000000000000100000000000000000000000000000000000000000000000000000000000006a000000000000000000000000000000000000000000000000000000000000007c000000000000000000000000000000000000000000000000000000000000008e00000000000000000000000000000000000000000000000000000000000000a000000000000000000000000000000000000000000000000000000000000000b200000000000000000000000000000000000000000000000000000000000000b20000000000000000000000000000000000000000000000000000000000000001c000000000000000000000000000000000000000000000000000000000000001c1ccf6c8e71d6b24253e787a6014e8228704f307995f28f17b39240dd1ff31aeb108dd1f501c6a1e411113b4018c1d108cad1d7399e8e73bd2944b10e4c37ffb61ccf6c8e71d6b24253e787a6014e8228704f307995f28f17b39240dd1ff31aeb108dd1f501c6a1e411113b4018c1d108cad1d7399e8e73bd2944b10e4c37ffb6000000000000000000000000000000000000000000000000000000000000000000000000000000000000000000000000000000000000000000000000000000e4fb16a5950000000000000000000000000000000000000000000000000000000000000000000000000000000000000000601e450918aa542aa5ce7ab97a7a0270a4f2e5bc000000000000000000000000e283dddc1d93e40e3748de182ff0219cd154372e0000000000000000000000000000000000000000000000000000000000001083000000000000000000000000000000000000000000000000000000000000000000000000000000000000000000000000000000000000000000000000000000c000000000000000000000000000000000000000000000000000000000000000000000000000000000000000000000000000000000000000000000000000000000000000000000000000000000000000000000000000000000000000e4fb16a595000000000000000000000000a04f381ce78a109b222c1401b2029509c762769a0000000000000000000000000000000000000000000000000000000000000000000000000000000000000000e283dddc1d93e40e3748de182ff0219cd154372e0000000000000000000000000000000000000000000000000000000000001083000000000000000000000000000000000000000000000000000000000000000000000000000000000000000000000000000000000000000000000000000000c000000000000000000000000000000000000000000000000000000000000000000000000000000000000000000000000000000000000000000000000000000000000000000000000000000000000000000000000000000000000000e400000000ffffffffffffffffffffffffffffffffffffffffffffffffffffffffffffffff0000000000000000000000000000000000000000000000000000000000000000000000000000000000000000000000000000000000000000000000000000000000000000000000000000000000000000000000000000000000000000000000000000000000000000000000000000000000000000000000000000000000000000000000000000000000000000000000000000000000000000000000000000000000000000000000000000000000000000000000000000000000000000000000000000000000000000000000000000000000000000000000000000000000000000000000000000000000000000000000000000000000000000000000e4000000000000000000000000000000000000000000000000000000000000000000000000ffffffffffffffffffffffffffffffffffffffffffffffffffffffffffffffff00000000000000000000000000000000000000000000000000000000000000000000000000000000000000000000000000000000000000000000000000000000000000000000000000000000000000000000000000000000000000000000000000000000000000000000000000000000000000000000000000000000000000000000000000000000000000000000000000000000000000000000000000000000000000000000000000000000000000000000000000000000000000000000000000000000000000000000000000000000000000000000000000000000",
                    "decodedMethod": {
                        "callParams": [
                            {
                                "name": "addrs",
                                "type": "address[14]",
                                "value": [
                                    "0x7f268357a8c2552623316e2562d90e642bb538e5",
                                    "0x601e450918aa542aa5ce7ab97a7a0270a4f2e5bc",
                                    "0xa04f381ce78a109b222c1401b2029509c762769a",
                                    "0x0000000000000000000000000000000000000000",
                                    "0xbaf2127b49fc93cbca6269fade0f7f31df4c88a7",
                                    "0x0000000000000000000000000000000000000000",
                                    "0x0000000000000000000000000000000000000000",
                                    "0x7f268357a8c2552623316e2562d90e642bb538e5",
                                    "0xa04f381ce78a109b222c1401b2029509c762769a",
                                    "0x0000000000000000000000000000000000000000",
                                    "0x5b3256965e7c3cf26e11fcaf296dfc8807c01073",
                                    "0xbaf2127b49fc93cbca6269fade0f7f31df4c88a7",
                                    "0x0000000000000000000000000000000000000000",
                                    "0x0000000000000000000000000000000000000000"
                                ]
                            },
                            {
                                "name": "uints",
                                "type": "uint256[18]",
                                "value": [
                                    "1,250",
                                    "0",
                                    "0",
                                    "0",
                                    "13,000,000,000,000,000",
                                    "0",
                                    "1,651,210,315",
                                    "0",
                                    "730,565,065,798,502,693,706,067,241,719,994,263,323,416,766,849,030,318,457,663,123,505,925,679,335",
                                    "1,250",
                                    "0",
                                    "0",
                                    "0",
                                    "13,000,000,000,000,000",
                                    "0",
                                    "1,651,210,206",
                                    "1,651,296,689",
                                    "63,202,548,770,966,608,381,457,972,320,748,922,264,368,079,831,861,625,684,197,448,241,508,540,822,470"
                                ]
                            },
                            {
                                "name": "feeMethodsSidesKindsHowToCalls",
                                "type": "uint8[8]",
                                "value": [
                                    "1",
                                    "0",
                                    "0",
                                    "1",
                                    "1",
                                    "1",
                                    "0",
                                    "1"
                                ]
                            },
                            {
                                "name": "calldataBuy",
                                "type": "bytes",
                                "value": "0xfb16a5950000000000000000000000000000000000000000000000000000000000000000000000000000000000000000601e450918aa542aa5ce7ab97a7a0270a4f2e5bc000000000000000000000000e283dddc1d93e40e3748de182ff0219cd154372e0000000000000000000000000000000000000000000000000000000000001083000000000000000000000000000000000000000000000000000000000000000000000000000000000000000000000000000000000000000000000000000000c00000000000000000000000000000000000000000000000000000000000000000"
                            },
                            {
                                "name": "calldataSell",
                                "type": "bytes",
                                "value": "0xfb16a595000000000000000000000000a04f381ce78a109b222c1401b2029509c762769a0000000000000000000000000000000000000000000000000000000000000000000000000000000000000000e283dddc1d93e40e3748de182ff0219cd154372e0000000000000000000000000000000000000000000000000000000000001083000000000000000000000000000000000000000000000000000000000000000000000000000000000000000000000000000000000000000000000000000000c00000000000000000000000000000000000000000000000000000000000000000"
                            },
                            {
                                "name": "replacementPatternBuy",
                                "type": "bytes",
                                "value": "0x00000000ffffffffffffffffffffffffffffffffffffffffffffffffffffffffffffffff000000000000000000000000000000000000000000000000000000000000000000000000000000000000000000000000000000000000000000000000000000000000000000000000000000000000000000000000000000000000000000000000000000000000000000000000000000000000000000000000000000000000000000000000000000000000000000000000000000000000000000000000000000000000000000000000000000000000000000000000000000000000000000000000"
                            },
                            {
                                "name": "replacementPatternSell",
                                "type": "bytes",
                                "value": "0x000000000000000000000000000000000000000000000000000000000000000000000000ffffffffffffffffffffffffffffffffffffffffffffffffffffffffffffffff00000000000000000000000000000000000000000000000000000000000000000000000000000000000000000000000000000000000000000000000000000000000000000000000000000000000000000000000000000000000000000000000000000000000000000000000000000000000000000000000000000000000000000000000000000000000000000000000000000000000000000000000000000000"
                            },
                            {
                                "name": "staticExtradataBuy",
                                "type": "bytes",
                                "value": "0x"
                            },
                            {
                                "name": "staticExtradataSell",
                                "type": "bytes",
                                "value": "0x"
                            },
                            {
                                "name": "vs",
                                "type": "uint8[2]",
                                "value": [
                                    "28",
                                    "28"
                                ]
                            },
                            {
                                "name": "rssMetadata",
                                "type": "bytes32[5]",
                                "value": [
                                    "0x1ccf6c8e71d6b24253e787a6014e8228704f307995f28f17b39240dd1ff31aeb",
                                    "0x108dd1f501c6a1e411113b4018c1d108cad1d7399e8e73bd2944b10e4c37ffb6",
                                    "0x1ccf6c8e71d6b24253e787a6014e8228704f307995f28f17b39240dd1ff31aeb",
                                    "0x108dd1f501c6a1e411113b4018c1d108cad1d7399e8e73bd2944b10e4c37ffb6",
                                    "0x0000000000000000000000000000000000000000000000000000000000000000"
                                ]
                            }
                        ],
                        "constructorArguments": "",
                        "name": "atomicMatch_",
                        "returnParams": [],
                        "signature": "atomicMatch_(address[14],uint256[18],uint8[8],bytes,bytes,bytes,bytes,bytes,bytes,uint8[2],bytes32[5])"
                    },
                    "errorInfo": "",
                    "fromAddress": "0x601e450918aa542aa5ce7ab97a7a0270a4f2e5bc",
                    "gasUsed": 193737,
                    "id": 0,
                    "methodDecoded": true,
                    "operation": "CALL",
                    "output": "",
                    "revert": false,
                    "revertMessage": "",
                    "selector": "0xab834bab",
                    "status": true,
                    "value": "0.013"
                },
                "nodeType": 0
            },
            "1": {
                "invocation": {
                    "address": "0x0000000000000000000000000000000000000001",
                    "callData": "0xe184b7ebade1e29b9a908288199776efc28c12f026944a43b0ab285e000000000000000000000000000000000000000000000000000000000000001c1ccf6c8e71d6b24253e787a6014e8228704f307995f28f17b39240dd1ff31aeb108dd1f501c6a1e411113b4018c1d108cad1d7399e8e73bd2944b10e4c37ffb6",
                    "decodedMethod": {
                        "callParams": [
                            {
                                "name": "hash",
                                "type": "bytes32",
                                "value": "0x998532b9e184b7ebade1e29b9a908288199776efc28c12f026944a43b0ab285e"
                            },
                            {
                                "name": "v",
                                "type": "uint256",
                                "value": "28"
                            },
                            {
                                "name": "r",
                                "type": "bytes32",
                                "value": "0x1ccf6c8e71d6b24253e787a6014e8228704f307995f28f17b39240dd1ff31aeb"
                            },
                            {
                                "name": "s",
                                "type": "bytes32",
                                "value": "0x108dd1f501c6a1e411113b4018c1d108cad1d7399e8e73bd2944b10e4c37ffb6"
                            }
                        ],
                        "constructorArguments": "",
                        "name": "ecrecover",
                        "returnParams": [
                            {
                                "name": "",
                                "type": "address",
                                "value": "0xa04f381ce78a109b222c1401b2029509c762769a"
                            }
                        ],
                        "signature": "ecrecover(bytes32,uint256,bytes32,bytes32)"
                    },
                    "errorInfo": "",
                    "fromAddress": "0x7f268357a8c2552623316e2562d90e642bb538e5",
                    "gasUsed": 3000,
                    "id": 1,
                    "methodDecoded": true,
                    "operation": "CALL",
                    "output": "0x000000000000000000000000a04f381ce78a109b222c1401b2029509c762769a",
                    "revert": false,
                    "revertMessage": "",
                    "selector": "0x998532b9",
                    "status": true,
                    "value": "0"
                },
                "nodeType": 0
            },
            "10": {
                "invocation": {
                    "address": "0xbaf2127b49fc93cbca6269fade0f7f31df4c88a7",
                    "callData": "0x000000000000000000000000a04f381ce78a109b222c1401b2029509c762769a000000000000000000000000601e450918aa542aa5ce7ab97a7a0270a4f2e5bc000000000000000000000000e283dddc1d93e40e3748de182ff0219cd154372e0000000000000000000000000000000000000000000000000000000000001083000000000000000000000000000000000000000000000000000000000000000000000000000000000000000000000000000000000000000000000000000000c0000000000000000000000000000000000000000000000000000000000000000000000000000000000000000000000000000000000000000000000000",
                    "decodedMethod": {
                        "callParams": [
                            {
                                "name": "from",
                                "type": "address",
                                "value": "0xa04f381ce78a109b222c1401b2029509c762769a"
                            },
                            {
                                "name": "to",
                                "type": "address",
                                "value": "0x601e450918aa542aa5ce7ab97a7a0270a4f2e5bc"
                            },
                            {
                                "name": "token",
                                "type": "address",
                                "value": "0xe283dddc1d93e40e3748de182ff0219cd154372e"
                            },
                            {
                                "name": "tokenId",
                                "type": "uint256",
                                "value": "4,227"
                            },
                            {
                                "name": "root",
                                "type": "bytes32",
                                "value": "0x0000000000000000000000000000000000000000000000000000000000000000"
                            },
                            {
                                "name": "proof",
                                "type": "bytes32[]",
                                "value": []
                            }
                        ],
                        "constructorArguments": "",
                        "name": "matchERC721UsingCriteria",
                        "returnParams": [
                            {
                                "name": "",
                                "type": "bool",
                                "value": true
                            }
                        ],
                        "signature": "matchERC721UsingCriteria(address,address,address,uint256,bytes32,bytes32[])"
                    },
                    "errorInfo": "",
                    "fromAddress": "0x16fe98ee34902d5a85cc1275c819ca7fc237a9ba",
                    "gasUsed": 33461,
                    "id": 10,
                    "methodDecoded": true,
                    "operation": "DELEGATECALL",
                    "output": "0x0000000000000000000000000000000000000000000000000000000000000001",
                    "revert": false,
                    "revertMessage": "",
                    "selector": "0xfb16a595",
                    "status": true,
                    "value": "0"
                },
                "nodeType": 0
            },
            "11": {
                "invocation": {
                    "address": "0xe283dddc1d93e40e3748de182ff0219cd154372e",
                    "callData": "0x000000000000000000000000a04f381ce78a109b222c1401b2029509c762769a000000000000000000000000601e450918aa542aa5ce7ab97a7a0270a4f2e5bc0000000000000000000000000000000000000000000000000000000000001083",
                    "decodedMethod": {
                        "callParams": [
                            {
                                "name": "from",
                                "type": "address",
                                "value": "0xa04f381ce78a109b222c1401b2029509c762769a"
                            },
                            {
                                "name": "to",
                                "type": "address",
                                "value": "0x601e450918aa542aa5ce7ab97a7a0270a4f2e5bc"
                            },
                            {
                                "decimalAvailable": true,
                                "name": "tokenId",
                                "type": "uint256",
                                "value": "4,227"
                            }
                        ],
                        "constructorArguments": "",
                        "name": "transferFrom",
                        "returnParams": [],
                        "signature": "transferFrom(address,address,uint256)"
                    },
                    "errorInfo": "",
                    "fromAddress": "0x16fe98ee34902d5a85cc1275c819ca7fc237a9ba",
                    "gasUsed": 29619,
                    "id": 11,
                    "methodDecoded": true,
                    "operation": "CALL",
                    "output": "",
                    "revert": false,
                    "revertMessage": "",
                    "selector": "0x23b872dd",
                    "status": true,
                    "value": "0"
                },
                "nodeType": 0
            },
            "12": {
                "event": {
                    "contract": "0xe283dddc1d93e40e3748de182ff0219cd154372e",
                    "decodedLog": {
                        "name": "Approval",
                        "params": [
                            {
                                "name": "owner",
                                "type": "address",
                                "value": "0xa04f381ce78a109b222c1401b2029509c762769a"
                            },
                            {
                                "name": "approved",
                                "type": "address",
                                "value": "0x0000000000000000000000000000000000000000"
                            },
                            {
                                "decimalAvailable": true,
                                "name": "tokenId",
                                "type": "uint256",
                                "value": "4,227"
                            }
                        ],
                        "signature": "Approval(address,address,uint256)"
                    },
                    "id": 12,
                    "logData": "0x",
                    "logDecoded": true,
                    "operation": "EVENT",
                    "revert": false,
                    "status": true,
                    "topics": [
                        "0x8c5be1e5ebec7d5bd14f71427d1e84f3dd0314c0f7b2291e5b200ac8c7c3b925",
                        "0x000000000000000000000000a04f381ce78a109b222c1401b2029509c762769a",
                        "0x0000000000000000000000000000000000000000000000000000000000000000",
                        "0x0000000000000000000000000000000000000000000000000000000000001083"
                    ]
                },
                "nodeType": 1
            },
            "13": {
                "event": {
                    "contract": "0xe283dddc1d93e40e3748de182ff0219cd154372e",
                    "decodedLog": {
                        "name": "Transfer",
                        "params": [
                            {
                                "name": "from",
                                "type": "address",
                                "value": "0xa04f381ce78a109b222c1401b2029509c762769a"
                            },
                            {
                                "name": "to",
                                "type": "address",
                                "value": "0x601e450918aa542aa5ce7ab97a7a0270a4f2e5bc"
                            },
                            {
                                "decimalAvailable": true,
                                "name": "tokenId",
                                "type": "uint256",
                                "value": "4,227"
                            }
                        ],
                        "signature": "Transfer(address,address,uint256)"
                    },
                    "id": 13,
                    "logData": "0x",
                    "logDecoded": true,
                    "operation": "EVENT",
                    "revert": false,
                    "status": true,
                    "topics": [
                        "0xddf252ad1be2c89b69c2b068fc378daa952ba7f163c4a11628f55a4df523b3ef",
                        "0x000000000000000000000000a04f381ce78a109b222c1401b2029509c762769a",
                        "0x000000000000000000000000601e450918aa542aa5ce7ab97a7a0270a4f2e5bc",
                        "0x0000000000000000000000000000000000000000000000000000000000001083"
                    ]
                },
                "nodeType": 1
            },
            "14": {
                "event": {
                    "contract": "0x7f268357a8c2552623316e2562d90e642bb538e5",
                    "decodedLog": {
                        "name": "OrdersMatched",
                        "params": [
                            {
                                "name": "maker",
                                "type": "address",
                                "value": "0xa04f381ce78a109b222c1401b2029509c762769a"
                            },
                            {
                                "name": "taker",
                                "type": "address",
                                "value": "0x601e450918aa542aa5ce7ab97a7a0270a4f2e5bc"
                            },
                            {
                                "name": "metadata",
                                "type": "bytes32",
                                "value": "0x0000000000000000000000000000000000000000000000000000000000000000"
                            },
                            {
                                "name": "buyHash",
                                "type": "bytes32",
                                "value": "0x0000000000000000000000000000000000000000000000000000000000000000"
                            },
                            {
                                "name": "sellHash",
                                "type": "bytes32",
                                "value": "0x998532b9e184b7ebade1e29b9a908288199776efc28c12f026944a43b0ab285e"
                            },
                            {
                                "name": "price",
                                "type": "uint256",
                                "value": "13,000,000,000,000,000"
                            }
                        ],
                        "signature": "OrdersMatched(bytes32,bytes32,address,address,uint256,bytes32)"
                    },
                    "id": 14,
                    "logData": "0x0000000000000000000000000000000000000000000000000000000000000000998532b9e184b7ebade1e29b9a908288199776efc28c12f026944a43b0ab285e000000000000000000000000000000000000000000000000002e2f6e5e148000",
                    "logDecoded": true,
                    "operation": "EVENT",
                    "revert": false,
                    "status": true,
                    "topics": [
                        "0xc4109843e0b7d514e4c093114b863f8e7d8d9a458c372cd51bfe526b588006c9",
                        "0x000000000000000000000000a04f381ce78a109b222c1401b2029509c762769a",
                        "0x000000000000000000000000601e450918aa542aa5ce7ab97a7a0270a4f2e5bc",
                        "0x0000000000000000000000000000000000000000000000000000000000000000"
                    ]
                },
                "nodeType": 1
            },
            "2": {
                "invocation": {
                    "address": "0xa5409ec958c83c3f309868babaca7c86dcb077c1",
                    "callData": "0x000000000000000000000000a04f381ce78a109b222c1401b2029509c762769a",
                    "decodedMethod": {
                        "callParams": [
                            {
                                "name": "",
                                "type": "address",
                                "value": "0xa04f381ce78a109b222c1401b2029509c762769a"
                            }
                        ],
                        "constructorArguments": "",
                        "name": "proxies",
                        "returnParams": [
                            {
                                "name": "",
                                "type": "address",
                                "value": "0x16fe98ee34902d5a85cc1275c819ca7fc237a9ba"
                            }
                        ],
                        "signature": "proxies(address)"
                    },
                    "errorInfo": "",
                    "fromAddress": "0x7f268357a8c2552623316e2562d90e642bb538e5",
                    "gasUsed": 2782,
                    "id": 2,
                    "methodDecoded": true,
                    "operation": "CALL",
                    "output": "0x00000000000000000000000016fe98ee34902d5a85cc1275c819ca7fc237a9ba",
                    "revert": false,
                    "revertMessage": "",
                    "selector": "0xc4552791",
                    "status": true,
                    "value": "0"
                },
                "nodeType": 0
            },
            "3": {
                "invocation": {
                    "address": "0x5b3256965e7c3cf26e11fcaf296dfc8807c01073",
                    "callData": "0x",
                    "decodedMethod": null,
                    "errorInfo": "",
                    "fromAddress": "0x7f268357a8c2552623316e2562d90e642bb538e5",
                    "gasUsed": 0,
                    "id": 3,
                    "methodDecoded": false,
                    "operation": "CALL",
                    "output": "",
                    "revert": false,
                    "revertMessage": "",
                    "selector": "fallback",
                    "status": true,
                    "value": "0.001625"
                },
                "nodeType": 0
            },
            "4": {
                "invocation": {
                    "address": "0xa04f381ce78a109b222c1401b2029509c762769a",
                    "callData": "0x",
                    "decodedMethod": null,
                    "errorInfo": "",
                    "fromAddress": "0x7f268357a8c2552623316e2562d90e642bb538e5",
                    "gasUsed": 0,
                    "id": 4,
                    "methodDecoded": false,
                    "operation": "CALL",
                    "output": "",
                    "revert": false,
                    "revertMessage": "",
                    "selector": "fallback",
                    "status": true,
                    "value": "0.011375"
                },
                "nodeType": 0
            },
            "5": {
                "invocation": {
                    "address": "0xa5409ec958c83c3f309868babaca7c86dcb077c1",
                    "callData": "0x",
                    "decodedMethod": {
                        "callParams": [],
                        "constructorArguments": "",
                        "name": "delegateProxyImplementation",
                        "returnParams": [
                            {
                                "name": "",
                                "type": "address",
                                "value": "0xf9e266af4bca5890e2781812cc6a6e89495a79f2"
                            }
                        ],
                        "signature": "delegateProxyImplementation()"
                    },
                    "errorInfo": "",
                    "fromAddress": "0x7f268357a8c2552623316e2562d90e642bb538e5",
                    "gasUsed": 2613,
                    "id": 5,
                    "methodDecoded": true,
                    "operation": "CALL",
                    "output": "0x000000000000000000000000f9e266af4bca5890e2781812cc6a6e89495a79f2",
                    "revert": false,
                    "revertMessage": "",
                    "selector": "0x97204d8e",
                    "status": true,
                    "value": "0"
                },
                "nodeType": 0
            },
            "6": {
                "invocation": {
                    "address": "0x16fe98ee34902d5a85cc1275c819ca7fc237a9ba",
                    "callData": "0x",
                    "decodedMethod": {
                        "callParams": [],
                        "constructorArguments": "",
                        "name": "implementation",
                        "returnParams": [
                            {
                                "name": "",
                                "type": "address",
                                "value": "0xf9e266af4bca5890e2781812cc6a6e89495a79f2"
                            }
                        ],
                        "signature": "implementation()"
                    },
                    "errorInfo": "",
                    "fromAddress": "0x7f268357a8c2552623316e2562d90e642bb538e5",
                    "gasUsed": 2525,
                    "id": 6,
                    "methodDecoded": true,
                    "operation": "CALL",
                    "output": "0x000000000000000000000000f9e266af4bca5890e2781812cc6a6e89495a79f2",
                    "revert": false,
                    "revertMessage": "",
                    "selector": "0x5c60da1b",
                    "status": true,
                    "value": "0"
                },
                "nodeType": 0
            },
            "7": {
                "invocation": {
                    "address": "0x16fe98ee34902d5a85cc1275c819ca7fc237a9ba",
                    "callData": "0x000000000000000000000000baf2127b49fc93cbca6269fade0f7f31df4c88a70000000000000000000000000000000000000000000000000000000000000001000000000000000000000000000000000000000000000000000000000000006000000000000000000000000000000000000000000000000000000000000000e4fb16a595000000000000000000000000a04f381ce78a109b222c1401b2029509c762769a000000000000000000000000601e450918aa542aa5ce7ab97a7a0270a4f2e5bc000000000000000000000000e283dddc1d93e40e3748de182ff0219cd154372e0000000000000000000000000000000000000000000000000000000000001083000000000000000000000000000000000000000000000000000000000000000000000000000000000000000000000000000000000000000000000000000000c0000000000000000000000000000000000000000000000000000000000000000000000000000000000000000000000000000000000000000000000000",
                    "decodedMethod": {
                        "callParams": [
                            {
                                "name": "dest",
                                "type": "address",
                                "value": "0xbaf2127b49fc93cbca6269fade0f7f31df4c88a7"
                            },
                            {
                                "name": "howToCall",
                                "type": "uint8",
                                "value": "1"
                            },
                            {
                                "name": "calldata",
                                "type": "bytes",
                                "value": "0xfb16a595000000000000000000000000a04f381ce78a109b222c1401b2029509c762769a000000000000000000000000601e450918aa542aa5ce7ab97a7a0270a4f2e5bc000000000000000000000000e283dddc1d93e40e3748de182ff0219cd154372e0000000000000000000000000000000000000000000000000000000000001083000000000000000000000000000000000000000000000000000000000000000000000000000000000000000000000000000000000000000000000000000000c00000000000000000000000000000000000000000000000000000000000000000"
                            }
                        ],
                        "constructorArguments": "",
                        "name": "proxy",
                        "returnParams": [
                            {
                                "name": "result",
                                "type": "bool",
                                "value": true
                            }
                        ],
                        "signature": "proxy(address,uint8,bytes)"
                    },
                    "errorInfo": "",
                    "fromAddress": "0x7f268357a8c2552623316e2562d90e642bb538e5",
                    "gasUsed": 45981,
                    "id": 7,
                    "methodDecoded": true,
                    "operation": "CALL",
                    "output": "0x0000000000000000000000000000000000000000000000000000000000000001",
                    "revert": false,
                    "revertMessage": "",
                    "selector": "0x1b0f7ba9",
                    "status": true,
                    "value": "0"
                },
                "nodeType": 0
            },
            "8": {
                "invocation": {
                    "address": "0xf9e266af4bca5890e2781812cc6a6e89495a79f2",
                    "callData": "0x000000000000000000000000baf2127b49fc93cbca6269fade0f7f31df4c88a70000000000000000000000000000000000000000000000000000000000000001000000000000000000000000000000000000000000000000000000000000006000000000000000000000000000000000000000000000000000000000000000e4fb16a595000000000000000000000000a04f381ce78a109b222c1401b2029509c762769a000000000000000000000000601e450918aa542aa5ce7ab97a7a0270a4f2e5bc000000000000000000000000e283dddc1d93e40e3748de182ff0219cd154372e0000000000000000000000000000000000000000000000000000000000001083000000000000000000000000000000000000000000000000000000000000000000000000000000000000000000000000000000000000000000000000000000c0000000000000000000000000000000000000000000000000000000000000000000000000000000000000000000000000000000000000000000000000",
                    "decodedMethod": {
                        "callParams": [
                            {
                                "name": "dest",
                                "type": "address",
                                "value": "0xbaf2127b49fc93cbca6269fade0f7f31df4c88a7"
                            },
                            {
                                "name": "howToCall",
                                "type": "uint8",
                                "value": "1"
                            },
                            {
                                "name": "calldata",
                                "type": "bytes",
                                "value": "0xfb16a595000000000000000000000000a04f381ce78a109b222c1401b2029509c762769a000000000000000000000000601e450918aa542aa5ce7ab97a7a0270a4f2e5bc000000000000000000000000e283dddc1d93e40e3748de182ff0219cd154372e0000000000000000000000000000000000000000000000000000000000001083000000000000000000000000000000000000000000000000000000000000000000000000000000000000000000000000000000000000000000000000000000c00000000000000000000000000000000000000000000000000000000000000000"
                            }
                        ],
                        "constructorArguments": "",
                        "name": "proxy",
                        "returnParams": [
                            {
                                "name": "result",
                                "type": "bool",
                                "value": true
                            }
                        ],
                        "signature": "proxy(address,uint8,bytes)"
                    },
                    "errorInfo": "",
                    "fromAddress": "0x16fe98ee34902d5a85cc1275c819ca7fc237a9ba",
                    "gasUsed": 42697,
                    "id": 8,
                    "methodDecoded": true,
                    "operation": "DELEGATECALL",
                    "output": "0x0000000000000000000000000000000000000000000000000000000000000001",
                    "revert": false,
                    "revertMessage": "",
                    "selector": "0x1b0f7ba9",
                    "status": true,
                    "value": "0"
                },
                "nodeType": 0
            },
            "9": {
                "invocation": {
                    "address": "0xa5409ec958c83c3f309868babaca7c86dcb077c1",
                    "callData": "0x0000000000000000000000007f268357a8c2552623316e2562d90e642bb538e5",
                    "decodedMethod": {
                        "callParams": [
                            {
                                "name": "",
                                "type": "address",
                                "value": "0x7f268357a8c2552623316e2562d90e642bb538e5"
                            }
                        ],
                        "constructorArguments": "",
                        "name": "contracts",
                        "returnParams": [
                            {
                                "name": "",
                                "type": "bool",
                                "value": true
                            }
                        ],
                        "signature": "contracts(address)"
                    },
                    "errorInfo": "",
                    "fromAddress": "0x16fe98ee34902d5a85cc1275c819ca7fc237a9ba",
                    "gasUsed": 2553,
                    "id": 9,
                    "methodDecoded": true,
                    "operation": "CALL",
                    "output": "0x0000000000000000000000000000000000000000000000000000000000000001",
                    "revert": false,
                    "revertMessage": "",
                    "selector": "0x69dc9ff3",
                    "status": true,
                    "value": "0"
                },
                "nodeType": 0
            }
        },
        "gasFlame": [
            {
                "children": [
                    {
                        "children": [
                            {
                                "children": [],
                                "depth": 0,
                                "name": "Initial Gas",
                                "value": 39304
                            },
                            {
                                "children": [
                                    {
                                        "children": [],
                                        "depth": 1,
                                        "name": "ecrecover",
                                        "value": 3000
                                    },
                                    {
                                        "children": [],
                                        "depth": 1,
                                        "name": "proxies",
                                        "value": 2782
                                    },
                                    {
                                        "children": [],
                                        "depth": 1,
                                        "name": "fallback",
                                        "value": 0
                                    },
                                    {
                                        "children": [],
                                        "depth": 1,
                                        "name": "fallback",
                                        "value": 0
                                    },
                                    {
                                        "children": [],
                                        "depth": 1,
                                        "name": "delegateProxyImplementation",
                                        "value": 2613
                                    },
                                    {
                                        "children": [],
                                        "depth": 1,
                                        "name": "implementation",
                                        "value": 2525
                                    },
                                    {
                                        "children": [
                                            {
                                                "children": [
                                                    {
                                                        "children": [],
                                                        "depth": 3,
                                                        "name": "contracts",
                                                        "value": 2553
                                                    },
                                                    {
                                                        "children": [
                                                            {
                                                                "children": [],
                                                                "depth": 4,
                                                                "name": "transferFrom",
                                                                "value": 29619
                                                            }
                                                        ],
                                                        "depth": 3,
                                                        "name": "matchERC721UsingCriteria",
                                                        "value": 33461
                                                    }
                                                ],
                                                "depth": 2,
                                                "name": "proxy",
                                                "value": 42697
                                            }
                                        ],
                                        "depth": 1,
                                        "name": "proxy",
                                        "value": 45981
                                    }
                                ],
                                "depth": 0,
                                "name": "Executed Gas",
                                "value": 157233
                            }
                        ],
                        "depth": -1,
                        "name": "Actual Gas Used",
                        "value": 193737
                    },
                    {
                        "children": [],
                        "depth": -1,
                        "name": "Refunded Gas",
                        "value": 2800
                    }
                ],
                "depth": -2,
                "name": "Total Gas",
                "value": 196537
            }
        ],
        "isConfirmed": true,
        "mainTrace": [
            {
                "children": [
                    {
                        "children": [
                            {
                                "children": [],
                                "depth": 1,
                                "id": 1,
                                "order": 1
                            },
                            {
                                "children": [],
                                "depth": 1,
                                "id": 2,
                                "order": 2
                            },
                            {
                                "children": [],
                                "depth": 1,
                                "id": 3,
                                "order": 3
                            },
                            {
                                "children": [],
                                "depth": 1,
                                "id": 4,
                                "order": 4
                            },
                            {
                                "children": [],
                                "depth": 1,
                                "id": 5,
                                "order": 5
                            },
                            {
                                "children": [],
                                "depth": 1,
                                "id": 6,
                                "order": 6
                            },
                            {
                                "children": [
                                    {
                                        "children": [
                                            {
                                                "children": [],
                                                "depth": 3,
                                                "id": 9,
                                                "order": 9
                                            },
                                            {
                                                "children": [
                                                    {
                                                        "children": [
                                                            {
                                                                "children": [],
                                                                "depth": 5,
                                                                "id": 12,
                                                                "order": 12
                                                            },
                                                            {
                                                                "children": [],
                                                                "depth": 5,
                                                                "id": 13,
                                                                "order": 13
                                                            }
                                                        ],
                                                        "depth": 4,
                                                        "id": 11,
                                                        "order": 11
                                                    }
                                                ],
                                                "depth": 3,
                                                "id": 10,
                                                "order": 10
                                            }
                                        ],
                                        "depth": 2,
                                        "id": 8,
                                        "order": 8
                                    }
                                ],
                                "depth": 1,
                                "id": 7,
                                "order": 7
                            },
                            {
                                "children": [],
                                "depth": 1,
                                "id": 14,
                                "order": 14
                            }
                        ],
                        "depth": 0,
                        "id": 0,
                        "order": 0
                    }
                ],
                "depth": -1,
                "id": -1,
                "order": -1
            }
        ],
        "mainTraceNodeCount": 15,
        "parentIdMap": {
            "0": -1,
            "1": 0,
            "10": 8,
            "11": 10,
            "12": 11,
            "13": 11,
            "14": 0,
            "2": 0,
            "3": 0,
            "4": 0,
            "5": 0,
            "6": 0,
            "7": 0,
            "8": 7,
            "9": 8
        },
        "tidyTrace": [
            {
                "children": [
                    {
                        "children": [
                            {
                                "children": [],
                                "depth": 1,
                                "id": 1,
                                "order": 1
                            },
                            {
                                "children": [],
                                "depth": 1,
                                "id": 2,
                                "order": 2
                            },
                            {
                                "children": [],
                                "depth": 1,
                                "id": 3,
                                "order": 3
                            },
                            {
                                "children": [],
                                "depth": 1,
                                "id": 4,
                                "order": 4
                            },
                            {
                                "children": [],
                                "depth": 1,
                                "id": 5,
                                "order": 5
                            },
                            {
                                "children": [],
                                "depth": 1,
                                "id": 6,
                                "order": 6
                            },
                            {
                                "children": [
                                    {
                                        "children": [
                                            {
                                                "children": [],
                                                "depth": 3,
                                                "id": 9,
                                                "order": 9
                                            },
                                            {
                                                "children": [
                                                    {
                                                        "children": [
                                                            {
                                                                "children": [],
                                                                "depth": 5,
                                                                "id": 12,
                                                                "order": 12
                                                            },
                                                            {
                                                                "children": [],
                                                                "depth": 5,
                                                                "id": 13,
                                                                "order": 13
                                                            }
                                                        ],
                                                        "depth": 4,
                                                        "id": 11,
                                                        "order": 11
                                                    }
                                                ],
                                                "depth": 3,
                                                "id": 10,
                                                "order": 10
                                            }
                                        ],
                                        "depth": 2,
                                        "id": 8,
                                        "order": 8
                                    }
                                ],
                                "depth": 1,
                                "id": 7,
                                "order": 7
                            },
                            {
                                "children": [],
                                "depth": 1,
                                "id": 14,
                                "order": 14
                            }
                        ],
                        "depth": 0,
                        "id": 0,
                        "order": 0
                    }
                ],
                "depth": -1,
                "id": -1,
                "order": -1
            }
        ],
        "tidyTraceNodeCount": 15
    },
    "state_change": {
        "stateChanges": [
            {
                "address": "0x7f268357a8c2552623316e2562d90e642bb538e5",
                "erc": "",
                "slots": [
                    {
                        "current": "0x0000000000000000000000000000000000000000000000000000000000000001",
                        "key": "0x18ca2ae33dd995fb1478ca6ca823420b542b4840b87e9cced60feefa2a6e7b4a",
                        "prev": "0x0000000000000000000000000000000000000000000000000000000000000000"
                    }
                ],
                "storageVariables": [
                    {
                        "name": "cancelledOrFinalized",
                        "type": "mapping(bytes32 => bool)",
                        "value": {
                            "pairs": [
                                {
                                    "key": "0x998532b9e184b7ebade1e29b9a908288199776efc28c12f026944a43b0ab285e",
                                    "value": {
                                        "current": "true",
                                        "prev": "false",
                                        "typeTag": 1
                                    }
                                }
                            ],
                            "typeTag": 4
                        }
                    }
                ]
            },
            {
                "address": "0xe283dddc1d93e40e3748de182ff0219cd154372e",
                "erc": "ERC-721",
                "slots": [
                    {
                        "current": "0x0000000000000000000000000000000000000000000000010000000000000000",
                        "key": "0xd0b7c2996bd07f9f165111eb7d3e75ea2b5d01111689d75831f8db70c34a22ec",
                        "prev": "0x0000000000000000000000000000000000000000000000010000000000000001"
                    },
                    {
                        "current": "0x0000000000000000000000000000000000000000000000010000000000000004",
                        "key": "0x0e2150eec7e7f54b4603ab944980b17df2fcce970d2990b014942f8e93e4390f",
                        "prev": "0x0000000000000000000000000000000000000000000000010000000000000003"
                    },
                    {
                        "current": "0x0000000000000000626b78b5601e450918aa542aa5ce7ab97a7a0270a4f2e5bc",
                        "key": "0xe25b915be44cb8792e03f73136cad6bfe2a259d5aa30bd7c498d41c1c23fc2af",
                        "prev": "0x0000000000000000626b6b58a04f381ce78a109b222c1401b2029509c762769a"
                    }
                ],
                "storageVariables": [
                    {
                        "name": "_addressData",
                        "type": "mapping(address => struct ERC721A.AddressData)",
                        "value": {
                            "pairs": [
                                {
                                    "key": "0x601e450918aa542aa5ce7ab97a7a0270a4f2e5bc",
                                    "value": {
                                        "fields": [
                                            {
                                                "name": "balance",
                                                "type": "uint64",
                                                "value": {
                                                    "current": "4",
                                                    "prev": "3",
                                                    "typeTag": 1
                                                }
                                            },
                                            {
                                                "name": "numberMinted",
                                                "type": "uint64",
                                                "value": {
                                                    "current": "1",
                                                    "prev": "1",
                                                    "typeTag": 1
                                                }
                                            },
                                            {
                                                "name": "numberBurned",
                                                "type": "uint64",
                                                "value": {
                                                    "current": "0",
                                                    "prev": "0",
                                                    "typeTag": 1
                                                }
                                            },
                                            {
                                                "name": "aux",
                                                "type": "uint64",
                                                "value": {
                                                    "current": "0",
                                                    "prev": "0",
                                                    "typeTag": 1
                                                }
                                            }
                                        ],
                                        "typeTag": 3
                                    }
                                },
                                {
                                    "key": "0xa04f381ce78a109b222c1401b2029509c762769a",
                                    "value": {
                                        "fields": [
                                            {
                                                "name": "balance",
                                                "type": "uint64",
                                                "value": {
                                                    "current": "0",
                                                    "prev": "1",
                                                    "typeTag": 1
                                                }
                                            },
                                            {
                                                "name": "numberMinted",
                                                "type": "uint64",
                                                "value": {
                                                    "current": "1",
                                                    "prev": "1",
                                                    "typeTag": 1
                                                }
                                            },
                                            {
                                                "name": "numberBurned",
                                                "type": "uint64",
                                                "value": {
                                                    "current": "0",
                                                    "prev": "0",
                                                    "typeTag": 1
                                                }
                                            },
                                            {
                                                "name": "aux",
                                                "type": "uint64",
                                                "value": {
                                                    "current": "0",
                                                    "prev": "0",
                                                    "typeTag": 1
                                                }
                                            }
                                        ],
                                        "typeTag": 3
                                    }
                                }
                            ],
                            "typeTag": 4
                        }
                    },
                    {
                        "name": "_ownerships",
                        "type": "mapping(uint256 => struct ERC721A.TokenOwnership)",
                        "value": {
                            "pairs": [
                                {
                                    "key": "4227",
                                    "value": {
                                        "fields": [
                                            {
                                                "name": "addr",
                                                "type": "address",
                                                "value": {
                                                    "current": "0x601e450918aa542aa5ce7ab97a7a0270a4f2e5bc",
                                                    "prev": "0xa04f381ce78a109b222c1401b2029509c762769a",
                                                    "typeTag": 1
                                                }
                                            },
                                            {
                                                "name": "startTimestamp",
                                                "type": "uint64",
                                                "value": {
                                                    "current": "1651210421",
                                                    "prev": "1651207000",
                                                    "typeTag": 1
                                                }
                                            },
                                            {
                                                "name": "burned",
                                                "type": "bool",
                                                "value": {
                                                    "current": "false",
                                                    "prev": "false",
                                                    "typeTag": 1
                                                }
                                            }
                                        ],
                                        "typeTag": 3
                                    }
                                }
                            ],
                            "typeTag": 4
                        }
                    }
                ]
            }
        ]
    }
}