{
    "balance_change": {
        "balanceChanges": [
            {
                "account": "0xf78b5685a5ddec95ce36ec165f3cfe8835e5e5b8",
                "assets": [
                    {
                        "address": "0xf0f8b0b8dbb1124261fc8d778e2287e3fd2cf4f5",
                        "amount": "420",
                        "iconUrl": "",
                        "isERC1155": false,
                        "isERC721": false,
                        "sign": false,
                        "value": ""
                    }
                ]
            },
            {
                "account": "0x7ce779efde5c1d589a129b54bd8247e60f35656e",
                "assets": [
                    {
                        "address": "0xf0f8b0b8dbb1124261fc8d778e2287e3fd2cf4f5",
                        "amount": "420",
                        "iconUrl": "",
                        "isERC1155": false,
                        "isERC721": false,
                        "sign": true,
                        "value": ""
                    }
                ]
            }
        ]
    },
    "profile": {
        "basic_info": {
            "baseFee": "",
            "blockNumber": 4411278,
            "callData": "0xa9059cbb0000000000000000000000007ce779efde5c1d589a129b54bd8247e60f35656e00000000000000000000000000000000000000000000000000000000000668a0",
            "debugEnable": true,
            "errorInfo": "",
            "eventCount": 1,
            "feeRecipient": "0x73b8865eda227d6fffabc83c78124dea8c347fea",
            "formatValue": "0",
            "gasLimit": 90000,
            "gasPrice": "12",
            "gasUsed": 37472,
            "intTxnCount": 0,
            "internalRevert": false,
            "internalRevertMessage": "",
            "isContractCreation": false,
            "isFlashloan": false,
            "maxFee": "",
            "nonce": 0,
            "overwritedBlockNumber": -1,
            "priorityFee": "",
            "receiver": "0xf0f8b0b8dbb1124261fc8d778e2287e3fd2cf4f5",
            "revertMessage": "",
            "sender": "0xf78b5685a5ddec95ce36ec165f3cfe8835e5e5b8",
            "simulationEnable": true,
            "sourceTxnHash": "0x6f578f9b00604f94504792d4844dad65672770833fb2f1dd59557143b443a104",
            "status": true,
            "timestamp": "2017-10-23T00:24:55Z",
            "transactionFee": "0.000449664",
            "txnHash": "0x6f578f9b00604f94504792d4844dad65672770833fb2f1dd59557143b443a104",
            "txnIndex": 10,
            "type": 0,
            "value": "0"
        },
        "fund_flow": [
            {
                "amount": "420",
                "from": "0xf78b5685a5ddec95ce36ec165f3cfe8835e5e5b8",
                "id": 1,
                "isERC1155": false,
                "isERC721": false,
                "isReverted": false,
                "order": 1,
                "to": "0x7ce779efde5c1d589a129b54bd8247e60f35656e",
                "token": "0xf0f8b0b8dbb1124261fc8d778e2287e3fd2cf4f5"
            }
        ],
        "token_infos": [
            {
                "address": "0xc02aaa39b223fe8d0a0e5c4f27ead9083c756cc2",
                "decimals": 18
            },
            {
                "address": "0xf0f8b0b8dbb1124261fc8d778e2287e3fd2cf4f5",
                "decimals": 3
            },
            {
                "address": "0xeeeeeeeeeeeeeeeeeeeeeeeeeeeeeeeeeeeeeeee",
                "decimals": 18
            }
        ]
    },
    "address_label": {
        "labels": [
            {
                "address": "0x0000000000000000000000000000000000000004",
                "label": "Precompiled"
            },
            {
                "address": "0xeeeeeeeeeeeeeeeeeeeeeeeeeeeeeeeeeeeeeeee",
                "label": "Ether"
            },
            {
                "address": "0xf0f8b0b8dbb1124261fc8d778e2287e3fd2cf4f5",
                "label": "BitqyToken"
            },
            {
                "address": "0x0000000000000000000000000000000000000001",
                "label": "Precompiled"
            },
            {
                "address": "0x0000000000000000000000000000000000000002",
                "label": "Precompiled"
            },
            {
                "address": "0x0000000000000000000000000000000000000003",
                "label": "Precompiled"
            }
        ]
    },
    "trace": {
        "accountLabels": null,
        "dataMap": {
            "-1": {
                "invocation": {
                    "address": "0xf78b5685a5ddec95ce36ec165f3cfe8835e5e5b8",
                    "callData": "",
                    "decodedMethod": null,
                    "errorInfo": "",
                    "fromAddress": "",
                    "gasUsed": 0,
                    "id": -1,
                    "methodDecoded": false,
                    "operation": "",
                    "output": "",
                    "revert": false,
                    "revertMessage": "",
                    "selector": "",
                    "status": false,
                    "value": ""
                },
                "nodeType": 0
            },
            "0": {
                "invocation": {
                    "address": "0xf0f8b0b8dbb1124261fc8d778e2287e3fd2cf4f5",
                    "callData": "0x0000000000000000000000007ce779efde5c1d589a129b54bd8247e60f35656e00000000000000000000000000000000000000000000000000000000000668a0",
                    "decodedMethod": {
                        "callParams": [
                            {
                                "name": "_to",
                                "type": "address",
                                "value": "0x7ce779efde5c1d589a129b54bd8247e60f35656e"
                            },
                            {
                                "decimalAvailable": true,
                                "name": "_value",
                                "type": "uint256",
                                "value": "420,000"
                            }
                        ],
                        "constructorArguments": "",
                        "name": "transfer",
                        "returnParams": [
                            {
                                "name": "success",
                                "type": "bool",
                                "value": true
                            }
                        ],
                        "signature": "transfer(address,uint256)"
                    },
                    "errorInfo": "",
                    "fromAddress": "0xf78b5685a5ddec95ce36ec165f3cfe8835e5e5b8",
                    "gasUsed": 37472,
                    "id": 0,
                    "methodDecoded": true,
                    "operation": "CALL",
                    "output": "0x0000000000000000000000000000000000000000000000000000000000000001",
                    "revert": false,
                    "revertMessage": "",
                    "selector": "0xa9059cbb",
                    "status": true,
                    "value": "0"
                },
                "nodeType": 0
            },
            "1": {
                "event": {
                    "contract": "0xf0f8b0b8dbb1124261fc8d778e2287e3fd2cf4f5",
                    "decodedLog": {
                        "name": "Transfer",
                        "params": [
                            {
                                "name": "from",
                                "type": "address",
                                "value": "0xf78b5685a5ddec95ce36ec165f3cfe8835e5e5b8"
                            },
                            {
                                "name": "to",
                                "type": "address",
                                "value": "0x7ce779efde5c1d589a129b54bd8247e60f35656e"
                            },
                            {
                                "decimalAvailable": true,
                                "name": "value",
                                "type": "uint256",
                                "value": "420,000"
                            }
                        ],
                        "signature": "Transfer(address,address,uint256)"
                    },
                    "id": 1,
                    "logData": "0x00000000000000000000000000000000000000000000000000000000000668a0",
                    "logDecoded": true,
                    "operation": "EVENT",
                    "revert": false,
                    "status": true,
                    "topics": [
                        "0xddf252ad1be2c89b69c2b068fc378daa952ba7f163c4a11628f55a4df523b3ef",
                        "0x000000000000000000000000f78b5685a5ddec95ce36ec165f3cfe8835e5e5b8",
                        "0x0000000000000000000000007ce779efde5c1d589a129b54bd8247e60f35656e"
                    ]
                },
                "nodeType": 1
            }
        },
        "gasFlame": [
            {
                "children": [
                    {
                        "children": [
                            {
                                "children": [],
                                "depth": 0,
                                "name": "Initial Gas",
                                "value": 23000
                            },
                            {
                                "children": [],
                                "depth": 0,
                                "name": "Executed Gas",
                                "value": 29472
                            }
                        ],
                        "depth": -1,
                        "name": "Actual Gas Used",
                        "value": 37472
                    },
                    {
                        "children": [],
                        "depth": -1,
                        "name": "Refunded Gas",
                        "value": 15000
                    }
                ],
                "depth": -2,
                "name": "Total Gas",
                "value": 52472
            }
        ],
        "isConfirmed": true,
        "mainTrace": [
            {
                "children": [
                    {
                        "children": [
                            {
                                "children": [],
                                "depth": 1,
                                "id": 1,
                                "order": 1
                            }
                        ],
                        "depth": 0,
                        "id": 0,
                        "order": 0
                    }
                ],
                "depth": -1,
                "id": -1,
                "order": -1
            }
        ],
        "mainTraceNodeCount": 2,
        "parentIdMap": {
            "0": -1,
            "1": 0
        },
        "tidyTrace": [
            {
                "children": [
                    {
                        "children": [
                            {
                                "children": [],
                                "depth": 1,
                                "id": 1,
                                "order": 1
                            }
                        ],
                        "depth": 0,
                        "id": 0,
                        "order": 0
                    }
                ],
                "depth": -1,
                "id": -1,
                "order": -1
            }
        ],
        "tidyTraceNodeCount": 2
    },
    "state_change": {
        "stateChanges": [
            {
                "address": "0xf0f8b0b8dbb1124261fc8d778e2287e3fd2cf4f5",
                "erc": "",
                "slots": [
                    {
                        "current": "0x0000000000000000000000000000000000000000000000000000000000000000",
                        "key": "0xeb7f81bf3b6578f83468d8dbf54c0c5d72f6c7654ddbaa60076682dfe74fbda8",
                        "prev": "0x00000000000000000000000000000000000000000000000000000000000668a0"
                    },
                    {
                        "current": "0x00000000000000000000000000000000000000000000000000000000000668a0",
                        "key": "0xa6fdd3069449bc6356922d428f9fceceac0322bde6543a08005a809ea60adf09",
                        "prev": "0x0000000000000000000000000000000000000000000000000000000000000000"
                    }
                ],
                "storageVariables": []
            }
        ]
    }
}