{
    "balance_change": {
        "balanceChanges": []
    },
    "profile": {
        "basic_info": {
            "baseFee": "",
            "blockNumber": 4661372,
            "callData": "0x69ea1771000000000000000000000000000000000000000000000000000fb75f0e18a4af",
            "debugEnable": true,
            "errorInfo": "",
            "eventCount": 0,
            "feeRecipient": "0x180ba8f73897c0cb26d76265fc7868cfd936e617",
            "formatValue": "0",
            "gasLimit": 200000,
            "gasPrice": "0.5",
            "gasUsed": 32669,
            "intTxnCount": 0,
            "internalRevert": false,
            "internalRevertMessage": "",
            "isContractCreation": false,
            "isFlashloan": false,
            "maxFee": "",
            "nonce": 4766,
            "overwritedBlockNumber": -1,
            "priorityFee": "",
            "receiver": "0x61245b6a6678f3158a37ab2c5e52369b9f452318",
            "revertMessage": "",
            "sender": "0xdd54f8de0b573a07c6daf662ef258b6046fa5a25",
            "simulationEnable": true,
            "sourceTxnHash": "0x6f8a6bccd90beb25b88d373cbe9675a49827349a9976a61423e4628ec0591f35",
            "status": true,
            "timestamp": "2017-12-02T09:07:30Z",
            "transactionFee": "0.0000163345",
            "txnHash": "0x6f8a6bccd90beb25b88d373cbe9675a49827349a9976a61423e4628ec0591f35",
            "txnIndex": 17,
            "type": 0,
            "value": "0"
        },
        "fund_flow": [],
        "token_infos": [
            {
                "address": "0xc02aaa39b223fe8d0a0e5c4f27ead9083c756cc2",
                "decimals": 18
            },
            {
                "address": "0xeeeeeeeeeeeeeeeeeeeeeeeeeeeeeeeeeeeeeeee",
                "decimals": 18
            }
        ]
    },
    "address_label": {
        "labels": [
            {
                "address": "0xeeeeeeeeeeeeeeeeeeeeeeeeeeeeeeeeeeeeeeee",
                "label": "Ether"
            },
            {
                "address": "0x61245b6a6678f3158a37ab2c5e52369b9f452318",
                "label": "LightOracle"
            },
            {
                "address": "0x0000000000000000000000000000000000000001",
                "label": "Precompiled"
            },
            {
                "address": "0x0000000000000000000000000000000000000002",
                "label": "Precompiled"
            },
            {
                "address": "0x0000000000000000000000000000000000000003",
                "label": "Precompiled"
            },
            {
                "address": "0x0000000000000000000000000000000000000004",
                "label": "Precompiled"
            }
        ]
    },
    "trace": {
        "accountLabels": null,
        "dataMap": {
            "-1": {
                "invocation": {
                    "address": "0xdd54f8de0b573a07c6daf662ef258b6046fa5a25",
                    "callData": "",
                    "decodedMethod": null,
                    "errorInfo": "",
                    "fromAddress": "",
                    "gasUsed": 0,
                    "id": -1,
                    "methodDecoded": false,
                    "operation": "",
                    "output": "",
                    "revert": false,
                    "revertMessage": "",
                    "selector": "",
                    "status": false,
                    "value": ""
                },
                "nodeType": 0
            },
            "0": {
                "invocation": {
                    "address": "0x61245b6a6678f3158a37ab2c5e52369b9f452318",
                    "callData": "0x000000000000000000000000000000000000000000000000000fb75f0e18a4af",
                    "decodedMethod": {
                        "callParams": [
                            {
                                "name": "_rate",
                                "type": "uint256",
                                "value": "4,423,743,536,932,015"
                            }
                        ],
                        "constructorArguments": "",
                        "name": "updateRate",
                        "returnParams": [],
                        "signature": "updateRate(uint256)"
                    },
                    "errorInfo": "",
                    "fromAddress": "0xdd54f8de0b573a07c6daf662ef258b6046fa5a25",
                    "gasUsed": 32669,
                    "id": 0,
                    "methodDecoded": true,
                    "operation": "CALL",
                    "output": "",
                    "revert": false,
                    "revertMessage": "",
                    "selector": "0x69ea1771",
                    "status": true,
                    "value": "0"
                },
                "nodeType": 0
            }
        },
        "gasFlame": [
            {
                "children": [
                    {
                        "children": [
                            {
                                "children": [],
                                "depth": 0,
                                "name": "Initial Gas",
                                "value": 21848
                            },
                            {
                                "children": [],
                                "depth": 0,
                                "name": "Executed Gas",
                                "value": 10821
                            }
                        ],
                        "depth": -1,
                        "name": "Actual Gas Used",
                        "value": 32669
                    },
                    {
                        "children": [],
                        "depth": -1,
                        "name": "Refunded Gas",
                        "value": 0
                    }
                ],
                "depth": -2,
                "name": "Total Gas",
                "value": 32669
            }
        ],
        "isConfirmed": true,
        "mainTrace": [
            {
                "children": [
                    {
                        "children": [],
                        "depth": 0,
                        "id": 0,
                        "order": 0
                    }
                ],
                "depth": -1,
                "id": -1,
                "order": -1
            }
        ],
        "mainTraceNodeCount": 1,
        "parentIdMap": {
            "0": -1
        },
        "tidyTrace": [
            {
                "children": [
                    {
                        "children": [],
                        "depth": 0,
                        "id": 0,
                        "order": 0
                    }
                ],
                "depth": -1,
                "id": -1,
                "order": -1
            }
        ],
        "tidyTraceNodeCount": 1
    },
    "state_change": {
        "stateChanges": [
            {
                "address": "0x61245b6a6678f3158a37ab2c5e52369b9f452318",
                "erc": "",
                "slots": [
                    {
                        "current": "0x000000000000000000000000000000000000000000000000000fb75f0e18a4af",
                        "key": "0x0000000000000000000000000000000000000000000000000000000000000007",
                        "prev": "0x000000000000000000000000000000000000000000000000000fd1a45e39c1fd"
                    },
                    {
                        "current": "0x000000000000000000000000000000000000000000000000000000005a226d52",
                        "key": "0x0000000000000000000000000000000000000000000000000000000000000009",
                        "prev": "0x000000000000000000000000000000000000000000000000000000005a226c15"
                    }
                ],
                "storageVariables": [
                    {
                        "name": "updateTimestamp",
                        "type": "uint256",
                        "value": {
                            "current": "1512205650",
                            "prev": "1512205333",
                            "typeTag": 1
                        }
                    },
                    {
                        "name": "rate",
                        "type": "uint256",
                        "value": {
                            "current": "4423743536932015",
                            "prev": "4452628536345085",
                            "typeTag": 1
                        }
                    }
                ]
            }
        ]
    }
}