{
    "balance_change": {
        "balanceChanges": [
            {
                "account": "0x18a672e11d637fffadccc99b152f4895da069601",
                "assets": [
                    {
                        "address": "0xeeeeeeeeeeeeeeeeeeeeeeeeeeeeeeeeeeeeeeee",
                        "amount": "0.000000000000000001",
                        "iconUrl": "https://assets.blocksec.com/image/1663669189317-3.png",
                        "isERC1155": false,
                        "isERC721": false,
                        "sign": false,
                        "value": ""
                    }
                ]
            },
            {
                "account": "0x07a17261c9115acaf9bd0d87d8da8a7e2036cb79",
                "assets": [
                    {
                        "address": "0xeeeeeeeeeeeeeeeeeeeeeeeeeeeeeeeeeeeeeeee",
                        "amount": "0.000000000000000001",
                        "iconUrl": "https://assets.blocksec.com/image/1663669189317-3.png",
                        "isERC1155": false,
                        "isERC721": false,
                        "sign": true,
                        "value": ""
                    }
                ]
            }
        ]
    },
    "profile": {
        "basic_info": {
            "baseFee": "",
            "blockNumber": 2622205,
            "callData": "0xe56c855200000000000000000000000007a17261c9115acaf9bd0d87d8da8a7e2036cb79",
            "debugEnable": true,
            "errorInfo": "",
            "eventCount": 1,
            "feeRecipient": "0x61c808d82a3ac53231750dadc13c777b59310bd9",
            "formatValue": "0",
            "gasLimit": 150000,
            "gasPrice": "50.45130791",
            "gasUsed": 73103,
            "intTxnCount": 1,
            "internalRevert": false,
            "internalRevertMessage": "",
            "isContractCreation": false,
            "isFlashloan": false,
            "maxFee": "",
            "nonce": 4180,
            "overwritedBlockNumber": -1,
            "priorityFee": "",
            "receiver": "0x18a672e11d637fffadccc99b152f4895da069601",
            "revertMessage": "",
            "sender": "0x09820a2fae3bd73b5009e89ccb7bb236ff59b744",
            "simulationEnable": true,
            "sourceTxnHash": "0x7009a6c7d30db1d4a5963eb1e8cea5462e10ff8ffecb27d130990e31a2994fbd",
            "status": true,
            "timestamp": "2016-11-13T23:44:29Z",
            "transactionFee": "0.00368814196214473",
            "txnHash": "0x7009a6c7d30db1d4a5963eb1e8cea5462e10ff8ffecb27d130990e31a2994fbd",
            "txnIndex": 0,
            "type": 0,
            "value": "0"
        },
        "fund_flow": [
            {
                "amount": "0.000000000000000001",
                "from": "0x18a672e11d637fffadccc99b152f4895da069601",
                "id": 1,
                "isERC1155": false,
                "isERC721": false,
                "isReverted": false,
                "order": 1,
                "to": "0x07a17261c9115acaf9bd0d87d8da8a7e2036cb79",
                "token": "0xeeeeeeeeeeeeeeeeeeeeeeeeeeeeeeeeeeeeeeee"
            }
        ],
        "token_infos": [
            {
                "address": "0xc02aaa39b223fe8d0a0e5c4f27ead9083c756cc2",
                "decimals": 18
            },
            {
                "address": "0xeeeeeeeeeeeeeeeeeeeeeeeeeeeeeeeeeeeeeeee",
                "decimals": 18
            }
        ]
    },
    "address_label": {
        "labels": [
            {
                "address": "0x0000000000000000000000000000000000000002",
                "label": "Precompiled"
            },
            {
                "address": "0x0000000000000000000000000000000000000003",
                "label": "Precompiled"
            },
            {
                "address": "0x0000000000000000000000000000000000000004",
                "label": "Precompiled"
            },
            {
                "address": "0xeeeeeeeeeeeeeeeeeeeeeeeeeeeeeeeeeeeeeeee",
                "label": "Ether"
            },
            {
                "address": "0x18a672e11d637fffadccc99b152f4895da069601",
                "label": "Rouleth"
            },
            {
                "address": "0x0000000000000000000000000000000000000001",
                "label": "Precompiled"
            }
        ]
    },
    "trace": {
        "accountLabels": null,
        "dataMap": {
            "-1": {
                "invocation": {
                    "address": "0x09820a2fae3bd73b5009e89ccb7bb236ff59b744",
                    "callData": "",
                    "decodedMethod": null,
                    "errorInfo": "",
                    "fromAddress": "",
                    "gasUsed": 0,
                    "id": -1,
                    "methodDecoded": false,
                    "operation": "",
                    "output": "",
                    "revert": false,
                    "revertMessage": "",
                    "selector": "",
                    "status": false,
                    "value": ""
                },
                "nodeType": 0
            },
            "0": {
                "invocation": {
                    "address": "0x18a672e11d637fffadccc99b152f4895da069601",
                    "callData": "0x00000000000000000000000007a17261c9115acaf9bd0d87d8da8a7e2036cb79",
                    "decodedMethod": {
                        "callParams": [
                            {
                                "name": "spin_for_player",
                                "type": "address",
                                "value": "0x07a17261c9115acaf9bd0d87d8da8a7e2036cb79"
                            }
                        ],
                        "constructorArguments": "",
                        "name": "spinTheWheel",
                        "returnParams": [],
                        "signature": "spinTheWheel(address)"
                    },
                    "errorInfo": "",
                    "fromAddress": "0x09820a2fae3bd73b5009e89ccb7bb236ff59b744",
                    "gasUsed": 73103,
                    "id": 0,
                    "methodDecoded": true,
                    "operation": "CALL",
                    "output": "",
                    "revert": false,
                    "revertMessage": "",
                    "selector": "0xe56c8552",
                    "status": true,
                    "value": "0"
                },
                "nodeType": 0
            },
            "1": {
                "event": {
                    "contract": "0x18a672e11d637fffadccc99b152f4895da069601",
                    "decodedLog": {
                        "name": "Loss",
                        "params": [
                            {
                                "name": "player",
                                "type": "address",
                                "value": "0x07a17261c9115acaf9bd0d87d8da8a7e2036cb79"
                            },
                            {
                                "name": "result",
                                "type": "uint8",
                                "value": "20"
                            },
                            {
                                "name": "value_loss",
                                "type": "uint256",
                                "value": "49,999,999,999,999,999"
                            },
                            {
                                "name": "bHash",
                                "type": "bytes32",
                                "value": "0x4546867dc837bb6fccd9be939afd758a841ab9b337b0b413080af574cba32e45"
                            },
                            {
                                "name": "sha3Player",
                                "type": "bytes32",
                                "value": "0xec1cca0c4d36ce4ca6ed81e116094b30629032928390e91e6fbdbfce5cbd4159"
                            },
                            {
                                "name": "gambleId",
                                "type": "uint256",
                                "value": "5,823"
                            }
                        ],
                        "signature": "Loss(address,uint8,uint256,bytes32,bytes32,uint256)"
                    },
                    "id": 1,
                    "logData": "0x00000000000000000000000007a17261c9115acaf9bd0d87d8da8a7e2036cb79000000000000000000000000000000000000000000000000000000000000001400000000000000000000000000000000000000000000000000b1a2bc2ec4ffff4546867dc837bb6fccd9be939afd758a841ab9b337b0b413080af574cba32e45ec1cca0c4d36ce4ca6ed81e116094b30629032928390e91e6fbdbfce5cbd415900000000000000000000000000000000000000000000000000000000000016bf",
                    "logDecoded": true,
                    "operation": "EVENT",
                    "revert": false,
                    "status": true,
                    "topics": [
                        "0x48156d9ccd5f1a9d70cfcbc377888e2b2b5d40f87ce4e3d83708a065a50743d9"
                    ]
                },
                "nodeType": 1
            },
            "2": {
                "invocation": {
                    "address": "0x07a17261c9115acaf9bd0d87d8da8a7e2036cb79",
                    "callData": "0x",
                    "decodedMethod": null,
                    "errorInfo": "",
                    "fromAddress": "0x18a672e11d637fffadccc99b152f4895da069601",
                    "gasUsed": 0,
                    "id": 2,
                    "methodDecoded": false,
                    "operation": "CALL",
                    "output": "",
                    "revert": false,
                    "revertMessage": "",
                    "selector": "fallback",
                    "status": true,
                    "value": "0.000000000000000001"
                },
                "nodeType": 0
            }
        },
        "gasFlame": [
            {
                "children": [
                    {
                        "children": [
                            {
                                "children": [],
                                "depth": 0,
                                "name": "Initial Gas",
                                "value": 22680
                            },
                            {
                                "children": [
                                    {
                                        "children": [],
                                        "depth": 1,
                                        "name": "fallback",
                                        "value": 0
                                    }
                                ],
                                "depth": 0,
                                "name": "Executed Gas",
                                "value": 65423
                            }
                        ],
                        "depth": -1,
                        "name": "Actual Gas Used",
                        "value": 73103
                    },
                    {
                        "children": [],
                        "depth": -1,
                        "name": "Refunded Gas",
                        "value": 15000
                    }
                ],
                "depth": -2,
                "name": "Total Gas",
                "value": 88103
            }
        ],
        "isConfirmed": true,
        "mainTrace": [
            {
                "children": [
                    {
                        "children": [
                            {
                                "children": [],
                                "depth": 1,
                                "id": 1,
                                "order": 1
                            },
                            {
                                "children": [],
                                "depth": 1,
                                "id": 2,
                                "order": 2
                            }
                        ],
                        "depth": 0,
                        "id": 0,
                        "order": 0
                    }
                ],
                "depth": -1,
                "id": -1,
                "order": -1
            }
        ],
        "mainTraceNodeCount": 3,
        "parentIdMap": {
            "0": -1,
            "1": 0,
            "2": 0
        },
        "tidyTrace": [
            {
                "children": [
                    {
                        "children": [
                            {
                                "children": [],
                                "depth": 1,
                                "id": 1,
                                "order": 1
                            },
                            {
                                "children": [],
                                "depth": 1,
                                "id": 2,
                                "order": 2
                            }
                        ],
                        "depth": 0,
                        "id": 0,
                        "order": 0
                    }
                ],
                "depth": -1,
                "id": -1,
                "order": -1
            }
        ],
        "tidyTraceNodeCount": 3
    },
    "state_change": {
        "stateChanges": [
            {
                "address": "0x18a672e11d637fffadccc99b152f4895da069601",
                "erc": "",
                "slots": [
                    {
                        "current": "0x00000000000000002400000107a17261c9115acaf9bd0d87d8da8a7e2036cb79",
                        "key": "0xa66cc928b5edb82af9bd49922954155ab7b0942694bea4ce44661d9a87373843",
                        "prev": "0x00000000000000002400000007a17261c9115acaf9bd0d87d8da8a7e2036cb79"
                    },
                    {
                        "current": "0x00000000000000000000000000000000000000000000000000000000002802fd",
                        "key": "0xa66cc928b5edb82af9bd49922954155ab7b0942694bea4ce44661d9a87373846",
                        "prev": "0x0000000000000000000000000000000000000000000000000000000000000000"
                    },
                    {
                        "current": "0x0000000000000000000000000000000000000000000000031c02eb5f9b100e6a",
                        "key": "0x0000000000000000000000000000000000000000000000000000000000000020",
                        "prev": "0x0000000000000000000000000000000000000000000000031b5148a36c4b0e6b"
                    },
                    {
                        "current": "0x0000000000000000000000000000000000000000000000000000000000000000",
                        "key": "0x88be787a6224ad7d518a144b75967c96ab46238d5508356fdbe7b9d8eb65a058",
                        "prev": "0x0000000000000000000000000000000000000000000000000000000000000001"
                    },
                    {
                        "current": "0x0000000000000000000000000000000000000000000000000000000000000014",
                        "key": "0xa66cc928b5edb82af9bd49922954155ab7b0942694bea4ce44661d9a87373847",
                        "prev": "0x0000000000000000000000000000000000000000000000000000000000000025"
                    }
                ],
                "storageVariables": []
            }
        ]
    }
}