{
    "balance_change": {
        "balanceChanges": [
            {
                "account": "0xcfa7929d910b8d778e143766b4013de29bad01b8",
                "assets": [
                    {
                        "address": "0xe1d11161a48d1630201f5fd292bf44f0174187fa",
                        "amount": "827,405.850632993520998721",
                        "iconUrl": "",
                        "isERC1155": false,
                        "isERC721": false,
                        "sign": false,
                        "value": "127.4382604"
                    },
                    {
                        "address": "0xeeeeeeeeeeeeeeeeeeeeeeeeeeeeeeeeeeeeeeee",
                        "amount": "0.098680008682399716",
                        "iconUrl": "https://assets.blocksec.com/image/1663669189317-3.png",
                        "isERC1155": false,
                        "isERC721": false,
                        "sign": true,
                        "value": "132.6718991"
                    }
                ]
            },
            {
                "account": "0x0000000000000000000000000000000000000000",
                "assets": [
                    {
                        "address": "0xbf03e30905ce1e3ab8c1352fa3b4502b280ef177",
                        "amount": "3.97668963713896589",
                        "iconUrl": "",
                        "isERC1155": false,
                        "isERC721": false,
                        "sign": false,
                        "value": ""
                    }
                ]
            },
            {
                "account": "0x50d87140e8a04051591e62ff0135704d56d820cc",
                "assets": [
                    {
                        "address": "0xbf03e30905ce1e3ab8c1352fa3b4502b280ef177",
                        "amount": "3.97668963713896589",
                        "iconUrl": "",
                        "isERC1155": false,
                        "isERC721": false,
                        "sign": true,
                        "value": ""
                    },
                    {
                        "address": "0xeeeeeeeeeeeeeeeeeeeeeeeeeeeeeeeeeeeeeeee",
                        "amount": "0.017661414944404707",
                        "iconUrl": "https://assets.blocksec.com/image/1663669189317-3.png",
                        "isERC1155": false,
                        "isERC721": false,
                        "sign": true,
                        "value": "23.74516877"
                    }
                ]
            },
            {
                "account": "0xbf03e30905ce1e3ab8c1352fa3b4502b280ef177",
                "assets": [
                    {
                        "address": "0xe1d11161a48d1630201f5fd292bf44f0174187fa",
                        "amount": "987,309.240668054799991648",
                        "iconUrl": "",
                        "isERC1155": false,
                        "isERC721": false,
                        "sign": true,
                        "value": "165.5575255"
                    },
                    {
                        "address": "0xc02aaa39b223fe8d0a0e5c4f27ead9083c756cc2",
                        "amount": "0.122228561941605992",
                        "iconUrl": "https://assets.blocksec.com/icon/f1cb2d02c471d545bbc7722daf3277fd852d98e63d118771af7047bd8256c516.png",
                        "isERC1155": false,
                        "isERC721": false,
                        "sign": false,
                        "value": "164.3321241"
                    }
                ]
            },
            {
                "account": "0xc02aaa39b223fe8d0a0e5c4f27ead9083c756cc2",
                "assets": [
                    {
                        "address": "0xeeeeeeeeeeeeeeeeeeeeeeeeeeeeeeeeeeeeeeee",
                        "amount": "0.122228561941605992",
                        "iconUrl": "https://assets.blocksec.com/image/1663669189317-3.png",
                        "isERC1155": false,
                        "isERC721": false,
                        "sign": false,
                        "value": "164.3321241"
                    },
                    {
                        "address": "0xc02aaa39b223fe8d0a0e5c4f27ead9083c756cc2",
                        "amount": "0.122228561941605992",
                        "iconUrl": "https://assets.blocksec.com/icon/f1cb2d02c471d545bbc7722daf3277fd852d98e63d118771af7047bd8256c516.png",
                        "isERC1155": false,
                        "isERC721": false,
                        "sign": true,
                        "value": "164.3321241"
                    }
                ]
            },
            {
                "account": "0xe1d11161a48d1630201f5fd292bf44f0174187fa",
                "assets": [
                    {
                        "address": "0xe1d11161a48d1630201f5fd292bf44f0174187fa",
                        "amount": "159,903.390035061278992927",
                        "iconUrl": "",
                        "isERC1155": false,
                        "isERC721": false,
                        "sign": false,
                        "value": "28.32731211"
                    }
                ]
            },
            {
                "account": "0xf610e9b4da81351fb46fa65bd4a1fb27451adf3f",
                "assets": [
                    {
                        "address": "0xeeeeeeeeeeeeeeeeeeeeeeeeeeeeeeeeeeeeeeee",
                        "amount": "0.005887138314801569",
                        "iconUrl": "https://assets.blocksec.com/image/1663669189317-3.png",
                        "isERC1155": false,
                        "isERC721": false,
                        "sign": true,
                        "value": "7.91505626"
                    }
                ]
            }
        ]
    },
    "profile": {
        "basic_info": {
            "baseFee": "10.422529219",
            "blockNumber": 15621132,
            "callData": "0x5ae401dc0000000000000000000000000000000000000000000000000000000063324aa3000000000000000000000000000000000000000000000000000000000000004000000000000000000000000000000000000000000000000000000000000000020000000000000000000000000000000000000000000000000000000000000040000000000000000000000000000000000000000000000000000000000000016000000000000000000000000000000000000000000000000000000000000000e4472b43f300000000000000000000000000000000000000000000af35c2d376a1651fd94100000000000000000000000000000000000000000000000001462db49a5bcd23000000000000000000000000000000000000000000000000000000000000008000000000000000000000000000000000000000000000000000000000000000020000000000000000000000000000000000000000000000000000000000000002000000000000000000000000e1d11161a48d1630201f5fd292bf44f0174187fa000000000000000000000000c02aaa39b223fe8d0a0e5c4f27ead9083c756cc200000000000000000000000000000000000000000000000000000000000000000000000000000000000000000000000000000000000000000000004449404b7c00000000000000000000000000000000000000000000000001462db49a5bcd23000000000000000000000000cfa7929d910b8d778e143766b4013de29bad01b800000000000000000000000000000000000000000000000000000000",
            "debugEnable": true,
            "errorInfo": "",
            "eventCount": 17,
            "feeRecipient": "0xf2f5c73fa04406b1995e397b55c24ab1f3ea726c",
            "formatValue": "0",
            "gasLimit": 491920,
            "gasPrice": "11.922529219",
            "gasUsed": 332806,
            "intTxnCount": 41,
            "internalRevert": false,
            "internalRevertMessage": "",
            "isContractCreation": false,
            "isFlashloan": false,
            "maxFee": "32",
            "nonce": 765,
            "overwritedBlockNumber": -1,
            "priorityFee": "1.5",
            "receiver": "0x68b3465833fb72a70ecdf485e0e4c7bd8665fc45",
            "revertMessage": "",
            "sender": "0xcfa7929d910b8d778e143766b4013de29bad01b8",
            "simulationEnable": true,
            "sourceTxnHash": "0x7119130898be2dc548718181083162b36c5d0ee7cd4faa2dc4e0da7bd38c0d02",
            "status": true,
            "timestamp": "2022-09-27T00:31:23Z",
            "transactionFee": "0.003967889259258514",
            "txnHash": "0x7119130898be2dc548718181083162b36c5d0ee7cd4faa2dc4e0da7bd38c0d02",
            "txnIndex": 171,
            "type": 2,
            "value": "0"
        },
        "fund_flow": [
            {
                "amount": "201,273.682566710955042863",
                "from": "0xe1d11161a48d1630201f5fd292bf44f0174187fa",
                "id": 1,
                "isERC1155": false,
                "isERC721": false,
                "isReverted": false,
                "order": 1,
                "to": "0xbf03e30905ce1e3ab8c1352fa3b4502b280ef177",
                "token": "0xe1d11161a48d1630201f5fd292bf44f0174187fa"
            },
            {
                "amount": "0.025010472899918509",
                "from": "0xbf03e30905ce1e3ab8c1352fa3b4502b280ef177",
                "id": 2,
                "isERC1155": false,
                "isERC721": false,
                "isReverted": false,
                "order": 2,
                "to": "0x7a250d5630b4cf539739df2c5dacb4c659f2488d",
                "token": "0xc02aaa39b223fe8d0a0e5c4f27ead9083c756cc2"
            },
            {
                "amount": "0.025010472899918509",
                "from": "0xc02aaa39b223fe8d0a0e5c4f27ead9083c756cc2",
                "id": 3,
                "isERC1155": false,
                "isERC721": false,
                "isReverted": false,
                "order": 3,
                "to": "0x7a250d5630b4cf539739df2c5dacb4c659f2488d",
                "token": "0xeeeeeeeeeeeeeeeeeeeeeeeeeeeeeeeeeeeeeeee"
            },
            {
                "amount": "0.025010472899918509",
                "from": "0x7a250d5630b4cf539739df2c5dacb4c659f2488d",
                "id": 4,
                "isERC1155": false,
                "isERC721": false,
                "isReverted": false,
                "order": 4,
                "to": "0xc02aaa39b223fe8d0a0e5c4f27ead9083c756cc2",
                "token": "0xc02aaa39b223fe8d0a0e5c4f27ead9083c756cc2"
            },
            {
                "amount": "0.025019757547436776",
                "from": "0x7a250d5630b4cf539739df2c5dacb4c659f2488d",
                "id": 5,
                "isERC1155": false,
                "isERC721": false,
                "isReverted": false,
                "order": 5,
                "to": "0xe1d11161a48d1630201f5fd292bf44f0174187fa",
                "token": "0xeeeeeeeeeeeeeeeeeeeeeeeeeeeeeeeeeeeeeeee"
            },
            {
                "amount": "0.0014712042882305",
                "from": "0xe1d11161a48d1630201f5fd292bf44f0174187fa",
                "id": 6,
                "isERC1155": false,
                "isERC721": false,
                "isReverted": false,
                "order": 6,
                "to": "0x7a250d5630b4cf539739df2c5dacb4c659f2488d",
                "token": "0xeeeeeeeeeeeeeeeeeeeeeeeeeeeeeeeeeeeeeeee"
            },
            {
                "amount": "0.001461919640712233",
                "from": "0x7a250d5630b4cf539739df2c5dacb4c659f2488d",
                "id": 7,
                "isERC1155": false,
                "isERC721": false,
                "isReverted": false,
                "order": 7,
                "to": "0xc02aaa39b223fe8d0a0e5c4f27ead9083c756cc2",
                "token": "0xeeeeeeeeeeeeeeeeeeeeeeeeeeeeeeeeeeeeeeee"
            },
            {
                "amount": "0.001461919640712233",
                "from": "0xc02aaa39b223fe8d0a0e5c4f27ead9083c756cc2",
                "id": 8,
                "isERC1155": false,
                "isERC721": false,
                "isReverted": false,
                "order": 8,
                "to": "0x7a250d5630b4cf539739df2c5dacb4c659f2488d",
                "token": "0xc02aaa39b223fe8d0a0e5c4f27ead9083c756cc2"
            },
            {
                "amount": "0.001461919640712233",
                "from": "0x7a250d5630b4cf539739df2c5dacb4c659f2488d",
                "id": 9,
                "isERC1155": false,
                "isERC721": false,
                "isReverted": false,
                "order": 9,
                "to": "0xbf03e30905ce1e3ab8c1352fa3b4502b280ef177",
                "token": "0xc02aaa39b223fe8d0a0e5c4f27ead9083c756cc2"
            },
            {
                "amount": "3.97668963713896589",
                "from": "0x0000000000000000000000000000000000000000",
                "id": 10,
                "isERC1155": false,
                "isERC721": false,
                "isReverted": false,
                "order": 10,
                "to": "0x50d87140e8a04051591e62ff0135704d56d820cc",
                "token": "0xbf03e30905ce1e3ab8c1352fa3b4502b280ef177"
            },
            {
                "amount": "0.017661414944404707",
                "from": "0xe1d11161a48d1630201f5fd292bf44f0174187fa",
                "id": 11,
                "isERC1155": false,
                "isERC721": false,
                "isReverted": false,
                "order": 11,
                "to": "0x50d87140e8a04051591e62ff0135704d56d820cc",
                "token": "0xeeeeeeeeeeeeeeeeeeeeeeeeeeeeeeeeeeeeeeee"
            },
            {
                "amount": "0.005887138314801569",
                "from": "0xe1d11161a48d1630201f5fd292bf44f0174187fa",
                "id": 12,
                "isERC1155": false,
                "isERC721": false,
                "isReverted": false,
                "order": 12,
                "to": "0xf610e9b4da81351fb46fa65bd4a1fb27451adf3f",
                "token": "0xeeeeeeeeeeeeeeeeeeeeeeeeeeeeeeeeeeeeeeee"
            },
            {
                "amount": "786,035.558101343844948785",
                "from": "0xcfa7929d910b8d778e143766b4013de29bad01b8",
                "id": 13,
                "isERC1155": false,
                "isERC721": false,
                "isReverted": false,
                "order": 13,
                "to": "0xbf03e30905ce1e3ab8c1352fa3b4502b280ef177",
                "token": "0xe1d11161a48d1630201f5fd292bf44f0174187fa"
            },
            {
                "amount": "41,370.292531649676049936",
                "from": "0xcfa7929d910b8d778e143766b4013de29bad01b8",
                "id": 14,
                "isERC1155": false,
                "isERC721": false,
                "isReverted": false,
                "order": 14,
                "to": "0xe1d11161a48d1630201f5fd292bf44f0174187fa",
                "token": "0xe1d11161a48d1630201f5fd292bf44f0174187fa"
            },
            {
                "amount": "0.098680008682399716",
                "from": "0xbf03e30905ce1e3ab8c1352fa3b4502b280ef177",
                "id": 15,
                "isERC1155": false,
                "isERC721": false,
                "isReverted": false,
                "order": 15,
                "to": "0x68b3465833fb72a70ecdf485e0e4c7bd8665fc45",
                "token": "0xc02aaa39b223fe8d0a0e5c4f27ead9083c756cc2"
            },
            {
                "amount": "0.098680008682399716",
                "from": "0xc02aaa39b223fe8d0a0e5c4f27ead9083c756cc2",
                "id": 16,
                "isERC1155": false,
                "isERC721": false,
                "isReverted": false,
                "order": 16,
                "to": "0x68b3465833fb72a70ecdf485e0e4c7bd8665fc45",
                "token": "0xeeeeeeeeeeeeeeeeeeeeeeeeeeeeeeeeeeeeeeee"
            },
            {
                "amount": "0.098680008682399716",
                "from": "0x68b3465833fb72a70ecdf485e0e4c7bd8665fc45",
                "id": 17,
                "isERC1155": false,
                "isERC721": false,
                "isReverted": false,
                "order": 17,
                "to": "0xc02aaa39b223fe8d0a0e5c4f27ead9083c756cc2",
                "token": "0xc02aaa39b223fe8d0a0e5c4f27ead9083c756cc2"
            },
            {
                "amount": "0.098680008682399716",
                "from": "0x68b3465833fb72a70ecdf485e0e4c7bd8665fc45",
                "id": 18,
                "isERC1155": false,
                "isERC721": false,
                "isReverted": false,
                "order": 18,
                "to": "0xcfa7929d910b8d778e143766b4013de29bad01b8",
                "token": "0xeeeeeeeeeeeeeeeeeeeeeeeeeeeeeeeeeeeeeeee"
            }
        ],
        "token_infos": [
            {
                "address": "0xc02aaa39b223fe8d0a0e5c4f27ead9083c756cc2",
                "decimals": 18
            },
            {
                "address": "0xe1d11161a48d1630201f5fd292bf44f0174187fa",
                "decimals": 18
            },
            {
                "address": "0xeeeeeeeeeeeeeeeeeeeeeeeeeeeeeeeeeeeeeeee",
                "decimals": 18
            },
            {
                "address": "0xbf03e30905ce1e3ab8c1352fa3b4502b280ef177",
                "decimals": 18
            }
        ]
    },
    "address_label": {
        "labels": [
            {
                "address": "0xeeeeeeeeeeeeeeeeeeeeeeeeeeeeeeeeeeeeeeee",
                "label": "Ether"
            },
            {
                "address": "0x7a250d5630b4cf539739df2c5dacb4c659f2488d",
                "label": "Uniswap V2: Router 2"
            },
            {
                "address": "0xc02aaa39b223fe8d0a0e5c4f27ead9083c756cc2",
                "label": "Wrapped Ether (WETH)"
            },
            {
                "address": "0x0000000000000000000000000000000000000002",
                "label": "Precompiled"
            },
            {
                "address": "0x5c69bee701ef814a2b6a3edd4b1652cb9cc5aa6f",
                "label": "Uniswap V2: Factory Contract"
            },
            {
                "address": "0x0000000000000000000000000000000000000000",
                "label": "Null Address"
            },
            {
                "address": "0x68b3465833fb72a70ecdf485e0e4c7bd8665fc45",
                "label": "Uniswap V3: Router 2"
            },
            {
                "address": "0xe1d11161a48d1630201f5fd292bf44f0174187fa",
                "label": "IAN"
            },
            {
                "address": "0x0000000000000000000000000000000000000004",
                "label": "Precompiled"
            },
            {
                "address": "0xbf03e30905ce1e3ab8c1352fa3b4502b280ef177",
                "label": "Uniswap V2: IAN 3"
            },
            {
                "address": "0x0000000000000000000000000000000000000001",
                "label": "Precompiled"
            },
            {
                "address": "0x0000000000000000000000000000000000000003",
                "label": "Precompiled"
            }
        ]
    },
    "trace": {
        "accountLabels": null,
        "dataMap": {
            "-1": {
                "invocation": {
                    "address": "0xcfa7929d910b8d778e143766b4013de29bad01b8",
                    "callData": "",
                    "decodedMethod": null,
                    "errorInfo": "",
                    "fromAddress": "",
                    "gasUsed": 0,
                    "id": -1,
                    "methodDecoded": false,
                    "operation": "",
                    "output": "",
                    "revert": false,
                    "revertMessage": "",
                    "selector": "",
                    "status": false,
                    "value": ""
                },
                "nodeType": 0
            },
            "0": {
                "invocation": {
                    "address": "0x68b3465833fb72a70ecdf485e0e4c7bd8665fc45",
                    "callData": "0x0000000000000000000000000000000000000000000000000000000063324aa3000000000000000000000000000000000000000000000000000000000000004000000000000000000000000000000000000000000000000000000000000000020000000000000000000000000000000000000000000000000000000000000040000000000000000000000000000000000000000000000000000000000000016000000000000000000000000000000000000000000000000000000000000000e4472b43f300000000000000000000000000000000000000000000af35c2d376a1651fd94100000000000000000000000000000000000000000000000001462db49a5bcd23000000000000000000000000000000000000000000000000000000000000008000000000000000000000000000000000000000000000000000000000000000020000000000000000000000000000000000000000000000000000000000000002000000000000000000000000e1d11161a48d1630201f5fd292bf44f0174187fa000000000000000000000000c02aaa39b223fe8d0a0e5c4f27ead9083c756cc200000000000000000000000000000000000000000000000000000000000000000000000000000000000000000000000000000000000000000000004449404b7c00000000000000000000000000000000000000000000000001462db49a5bcd23000000000000000000000000cfa7929d910b8d778e143766b4013de29bad01b800000000000000000000000000000000000000000000000000000000",
                    "decodedMethod": {
                        "callParams": [
                            {
                                "name": "deadline",
                                "type": "uint256",
                                "value": "1,664,240,291"
                            },
                            {
                                "name": "data",
                                "type": "bytes[]",
                                "value": [
                                    "0x472b43f300000000000000000000000000000000000000000000af35c2d376a1651fd94100000000000000000000000000000000000000000000000001462db49a5bcd23000000000000000000000000000000000000000000000000000000000000008000000000000000000000000000000000000000000000000000000000000000020000000000000000000000000000000000000000000000000000000000000002000000000000000000000000e1d11161a48d1630201f5fd292bf44f0174187fa000000000000000000000000c02aaa39b223fe8d0a0e5c4f27ead9083c756cc2",
                                    "0x49404b7c00000000000000000000000000000000000000000000000001462db49a5bcd23000000000000000000000000cfa7929d910b8d778e143766b4013de29bad01b8"
                                ]
                            }
                        ],
                        "constructorArguments": "",
                        "name": "multicall",
                        "returnParams": [
                            {
                                "name": "",
                                "type": "bytes[]",
                                "value": [
                                    "0x000000000000000000000000000000000000000000000000015e94f1eff267e4",
                                    "0x"
                                ]
                            }
                        ],
                        "signature": "multicall(uint256,bytes[])"
                    },
                    "errorInfo": "",
                    "fromAddress": "0xcfa7929d910b8d778e143766b4013de29bad01b8",
                    "gasUsed": 332806,
                    "id": 0,
                    "methodDecoded": true,
                    "operation": "CALL",
                    "output": "0x00000000000000000000000000000000000000000000000000000000000000200000000000000000000000000000000000000000000000000000000000000002000000000000000000000000000000000000000000000000000000000000004000000000000000000000000000000000000000000000000000000000000000800000000000000000000000000000000000000000000000000000000000000020000000000000000000000000000000000000000000000000015e94f1eff267e40000000000000000000000000000000000000000000000000000000000000000",
                    "revert": false,
                    "revertMessage": "",
                    "selector": "0x5ae401dc",
                    "status": true,
                    "value": "0"
                },
                "nodeType": 0
            },
            "1": {
                "invocation": {
                    "address": "0x68b3465833fb72a70ecdf485e0e4c7bd8665fc45",
                    "callData": "0x00000000000000000000000000000000000000000000af35c2d376a1651fd94100000000000000000000000000000000000000000000000001462db49a5bcd23000000000000000000000000000000000000000000000000000000000000008000000000000000000000000000000000000000000000000000000000000000020000000000000000000000000000000000000000000000000000000000000002000000000000000000000000e1d11161a48d1630201f5fd292bf44f0174187fa000000000000000000000000c02aaa39b223fe8d0a0e5c4f27ead9083c756cc2",
                    "decodedMethod": {
                        "callParams": [
                            {
                                "name": "amountIn",
                                "type": "uint256",
                                "value": "827,405,850,632,993,520,998,721"
                            },
                            {
                                "name": "amountOutMin",
                                "type": "uint256",
                                "value": "91,811,096,114,744,611"
                            },
                            {
                                "name": "path",
                                "type": "address[]",
                                "value": [
                                    "0xe1d11161a48d1630201f5fd292bf44f0174187fa",
                                    "0xc02aaa39b223fe8d0a0e5c4f27ead9083c756cc2"
                                ]
                            },
                            {
                                "name": "to",
                                "type": "address",
                                "value": "0x0000000000000000000000000000000000000002"
                            }
                        ],
                        "constructorArguments": "",
                        "name": "swapExactTokensForTokens",
                        "returnParams": [
                            {
                                "name": "amountOut",
                                "type": "uint256",
                                "value": "98,680,008,682,399,716"
                            }
                        ],
                        "signature": "swapExactTokensForTokens(uint256,uint256,address[],address)"
                    },
                    "errorInfo": "",
                    "fromAddress": "0x68b3465833fb72a70ecdf485e0e4c7bd8665fc45",
                    "gasUsed": 362509,
                    "id": 1,
                    "methodDecoded": true,
                    "operation": "DELEGATECALL",
                    "output": "0x000000000000000000000000000000000000000000000000015e94f1eff267e4",
                    "revert": false,
                    "revertMessage": "",
                    "selector": "0x472b43f3",
                    "status": true,
                    "value": "0"
                },
                "nodeType": 0
            },
            "10": {
                "invocation": {
                    "address": "0xc02aaa39b223fe8d0a0e5c4f27ead9083c756cc2",
                    "callData": "0x0000000000000000000000007a250d5630b4cf539739df2c5dacb4c659f2488d0000000000000000000000000000000000000000000000000058dae480dd3aad",
                    "decodedMethod": {
                        "callParams": [
                            {
                                "name": "dst",
                                "type": "address",
                                "value": "0x7a250d5630b4cf539739df2c5dacb4c659f2488d"
                            },
                            {
                                "decimalAvailable": true,
                                "name": "wad",
                                "type": "uint256",
                                "value": "25,010,472,899,918,509"
                            }
                        ],
                        "constructorArguments": "",
                        "name": "transfer",
                        "returnParams": [
                            {
                                "name": "",
                                "type": "bool",
                                "value": true
                            }
                        ],
                        "signature": "transfer(address,uint256)"
                    },
                    "errorInfo": "",
                    "fromAddress": "0xbf03e30905ce1e3ab8c1352fa3b4502b280ef177",
                    "gasUsed": 29962,
                    "id": 10,
                    "methodDecoded": true,
                    "operation": "CALL",
                    "output": "0x0000000000000000000000000000000000000000000000000000000000000001",
                    "revert": false,
                    "revertMessage": "",
                    "selector": "0xa9059cbb",
                    "status": true,
                    "value": "0"
                },
                "nodeType": 0
            },
            "11": {
                "event": {
                    "contract": "0xc02aaa39b223fe8d0a0e5c4f27ead9083c756cc2",
                    "decodedLog": {
                        "name": "Transfer",
                        "params": [
                            {
                                "name": "src",
                                "type": "address",
                                "value": "0xbf03e30905ce1e3ab8c1352fa3b4502b280ef177"
                            },
                            {
                                "name": "dst",
                                "type": "address",
                                "value": "0x7a250d5630b4cf539739df2c5dacb4c659f2488d"
                            },
                            {
                                "decimalAvailable": true,
                                "name": "wad",
                                "type": "uint256",
                                "value": "25,010,472,899,918,509"
                            }
                        ],
                        "signature": "Transfer(address,address,uint256)"
                    },
                    "id": 11,
                    "logData": "0x0000000000000000000000000000000000000000000000000058dae480dd3aad",
                    "logDecoded": true,
                    "operation": "EVENT",
                    "revert": false,
                    "status": true,
                    "topics": [
                        "0xddf252ad1be2c89b69c2b068fc378daa952ba7f163c4a11628f55a4df523b3ef",
                        "0x000000000000000000000000bf03e30905ce1e3ab8c1352fa3b4502b280ef177",
                        "0x0000000000000000000000007a250d5630b4cf539739df2c5dacb4c659f2488d"
                    ]
                },
                "nodeType": 1
            },
            "12": {
                "invocation": {
                    "address": "0xc02aaa39b223fe8d0a0e5c4f27ead9083c756cc2",
                    "callData": "0x000000000000000000000000bf03e30905ce1e3ab8c1352fa3b4502b280ef177",
                    "decodedMethod": {
                        "callParams": [
                            {
                                "name": "",
                                "type": "address",
                                "value": "0xbf03e30905ce1e3ab8c1352fa3b4502b280ef177"
                            }
                        ],
                        "constructorArguments": "",
                        "name": "balanceOf",
                        "returnParams": [
                            {
                                "decimalAvailable": true,
                                "name": "",
                                "type": "uint256",
                                "value": "2,674,631,636,980,863,267"
                            }
                        ],
                        "signature": "balanceOf(address)"
                    },
                    "errorInfo": "",
                    "fromAddress": "0xbf03e30905ce1e3ab8c1352fa3b4502b280ef177",
                    "gasUsed": 534,
                    "id": 12,
                    "methodDecoded": true,
                    "operation": "STATICCALL",
                    "output": "0x000000000000000000000000000000000000000000000000251e334d93441123",
                    "revert": false,
                    "revertMessage": "",
                    "selector": "0x70a08231",
                    "status": true,
                    "value": "0"
                },
                "nodeType": 0
            },
            "13": {
                "invocation": {
                    "address": "0xe1d11161a48d1630201f5fd292bf44f0174187fa",
                    "callData": "0x000000000000000000000000bf03e30905ce1e3ab8c1352fa3b4502b280ef177",
                    "decodedMethod": {
                        "callParams": [
                            {
                                "name": "account",
                                "type": "address",
                                "value": "0xbf03e30905ce1e3ab8c1352fa3b4502b280ef177"
                            }
                        ],
                        "constructorArguments": "",
                        "name": "balanceOf",
                        "returnParams": [
                            {
                                "decimalAvailable": true,
                                "name": "",
                                "type": "uint256",
                                "value": "20,457,613,252,421,170,171,406,804"
                            }
                        ],
                        "signature": "balanceOf(address)"
                    },
                    "errorInfo": "",
                    "fromAddress": "0xbf03e30905ce1e3ab8c1352fa3b4502b280ef177",
                    "gasUsed": 909,
                    "id": 13,
                    "methodDecoded": true,
                    "operation": "STATICCALL",
                    "output": "0x00000000000000000000000000000000000000000010ec116fc57cb257eee9d4",
                    "revert": false,
                    "revertMessage": "",
                    "selector": "0x70a08231",
                    "status": true,
                    "value": "0"
                },
                "nodeType": 0
            },
            "14": {
                "event": {
                    "contract": "0xbf03e30905ce1e3ab8c1352fa3b4502b280ef177",
                    "decodedLog": {
                        "name": "Sync",
                        "params": [
                            {
                                "name": "reserve0",
                                "type": "uint112",
                                "value": "2,674,631,636,980,863,267"
                            },
                            {
                                "name": "reserve1",
                                "type": "uint112",
                                "value": "20,457,613,252,421,170,171,406,804"
                            }
                        ],
                        "signature": "Sync(uint112,uint112)"
                    },
                    "id": 14,
                    "logData": "0x000000000000000000000000000000000000000000000000251e334d9344112300000000000000000000000000000000000000000010ec116fc57cb257eee9d4",
                    "logDecoded": true,
                    "operation": "EVENT",
                    "revert": false,
                    "status": true,
                    "topics": [
                        "0x1c411e9a96e071241c2f21f7726b17ae89e3cab4c78be50e062b03a9fffbbad1"
                    ]
                },
                "nodeType": 1
            },
            "15": {
                "event": {
                    "contract": "0xbf03e30905ce1e3ab8c1352fa3b4502b280ef177",
                    "decodedLog": {
                        "name": "Swap",
                        "params": [
                            {
                                "name": "sender",
                                "type": "address",
                                "value": "0x7a250d5630b4cf539739df2c5dacb4c659f2488d"
                            },
                            {
                                "name": "to",
                                "type": "address",
                                "value": "0x7a250d5630b4cf539739df2c5dacb4c659f2488d"
                            },
                            {
                                "name": "amount0In",
                                "type": "uint256",
                                "value": "0"
                            },
                            {
                                "name": "amount1In",
                                "type": "uint256",
                                "value": "190,091,811,313,004,790,873,816"
                            },
                            {
                                "name": "amount0Out",
                                "type": "uint256",
                                "value": "25,010,472,899,918,509"
                            },
                            {
                                "name": "amount1Out",
                                "type": "uint256",
                                "value": "0"
                            }
                        ],
                        "signature": "Swap(address,uint256,uint256,uint256,uint256,address)"
                    },
                    "id": 15,
                    "logData": "0x0000000000000000000000000000000000000000000000000000000000000000000000000000000000000000000000000000000000002840e5d24798d782fed80000000000000000000000000000000000000000000000000058dae480dd3aad0000000000000000000000000000000000000000000000000000000000000000",
                    "logDecoded": true,
                    "operation": "EVENT",
                    "revert": false,
                    "status": true,
                    "topics": [
                        "0xd78ad95fa46c994b6551d0da85fc275fe613ce37657fb8d5e3d130840159d822",
                        "0x0000000000000000000000007a250d5630b4cf539739df2c5dacb4c659f2488d",
                        "0x0000000000000000000000007a250d5630b4cf539739df2c5dacb4c659f2488d"
                    ]
                },
                "nodeType": 1
            },
            "16": {
                "invocation": {
                    "address": "0xc02aaa39b223fe8d0a0e5c4f27ead9083c756cc2",
                    "callData": "0x0000000000000000000000007a250d5630b4cf539739df2c5dacb4c659f2488d",
                    "decodedMethod": {
                        "callParams": [
                            {
                                "name": "",
                                "type": "address",
                                "value": "0x7a250d5630b4cf539739df2c5dacb4c659f2488d"
                            }
                        ],
                        "constructorArguments": "",
                        "name": "balanceOf",
                        "returnParams": [
                            {
                                "decimalAvailable": true,
                                "name": "",
                                "type": "uint256",
                                "value": "25,010,472,899,918,509"
                            }
                        ],
                        "signature": "balanceOf(address)"
                    },
                    "errorInfo": "",
                    "fromAddress": "0x7a250d5630b4cf539739df2c5dacb4c659f2488d",
                    "gasUsed": 534,
                    "id": 16,
                    "methodDecoded": true,
                    "operation": "STATICCALL",
                    "output": "0x0000000000000000000000000000000000000000000000000058dae480dd3aad",
                    "revert": false,
                    "revertMessage": "",
                    "selector": "0x70a08231",
                    "status": true,
                    "value": "0"
                },
                "nodeType": 0
            },
            "17": {
                "invocation": {
                    "address": "0xc02aaa39b223fe8d0a0e5c4f27ead9083c756cc2",
                    "callData": "0x0000000000000000000000000000000000000000000000000058dae480dd3aad",
                    "decodedMethod": {
                        "callParams": [
                            {
                                "name": "wad",
                                "type": "uint256",
                                "value": "25,010,472,899,918,509"
                            }
                        ],
                        "constructorArguments": "",
                        "name": "withdraw",
                        "returnParams": [],
                        "signature": "withdraw(uint256)"
                    },
                    "errorInfo": "",
                    "fromAddress": "0x7a250d5630b4cf539739df2c5dacb4c659f2488d",
                    "gasUsed": 9223,
                    "id": 17,
                    "methodDecoded": true,
                    "operation": "CALL",
                    "output": "",
                    "revert": false,
                    "revertMessage": "",
                    "selector": "0x2e1a7d4d",
                    "status": true,
                    "value": "0"
                },
                "nodeType": 0
            },
            "18": {
                "invocation": {
                    "address": "0x7a250d5630b4cf539739df2c5dacb4c659f2488d",
                    "callData": "0x",
                    "decodedMethod": null,
                    "errorInfo": "",
                    "fromAddress": "0xc02aaa39b223fe8d0a0e5c4f27ead9083c756cc2",
                    "gasUsed": 83,
                    "id": 18,
                    "methodDecoded": false,
                    "operation": "CALL",
                    "output": "",
                    "revert": false,
                    "revertMessage": "",
                    "selector": "fallback",
                    "status": true,
                    "value": "0.025010472899918509"
                },
                "nodeType": 0
            },
            "19": {
                "event": {
                    "contract": "0xc02aaa39b223fe8d0a0e5c4f27ead9083c756cc2",
                    "decodedLog": {
                        "name": "Withdrawal",
                        "params": [
                            {
                                "name": "src",
                                "type": "address",
                                "value": "0x7a250d5630b4cf539739df2c5dacb4c659f2488d"
                            },
                            {
                                "name": "wad",
                                "type": "uint256",
                                "value": "25,010,472,899,918,509"
                            }
                        ],
                        "signature": "Withdrawal(address,uint256)"
                    },
                    "id": 19,
                    "logData": "0x0000000000000000000000000000000000000000000000000058dae480dd3aad",
                    "logDecoded": true,
                    "operation": "EVENT",
                    "revert": false,
                    "status": true,
                    "topics": [
                        "0x7fcf532c15f0a6db0bd6d0e038bea71d30d808c7d98cb3bf7268a95bf5081b65",
                        "0x0000000000000000000000007a250d5630b4cf539739df2c5dacb4c659f2488d"
                    ]
                },
                "nodeType": 1
            },
            "2": {
                "invocation": {
                    "address": "0xe1d11161a48d1630201f5fd292bf44f0174187fa",
                    "callData": "0x000000000000000000000000cfa7929d910b8d778e143766b4013de29bad01b8000000000000000000000000bf03e30905ce1e3ab8c1352fa3b4502b280ef17700000000000000000000000000000000000000000000af35c2d376a1651fd941",
                    "decodedMethod": {
                        "callParams": [
                            {
                                "name": "sender",
                                "type": "address",
                                "value": "0xcfa7929d910b8d778e143766b4013de29bad01b8"
                            },
                            {
                                "name": "recipient",
                                "type": "address",
                                "value": "0xbf03e30905ce1e3ab8c1352fa3b4502b280ef177"
                            },
                            {
                                "decimalAvailable": true,
                                "name": "amount",
                                "type": "uint256",
                                "value": "827,405,850,632,993,520,998,721"
                            }
                        ],
                        "constructorArguments": "",
                        "name": "transferFrom",
                        "returnParams": [
                            {
                                "name": "",
                                "type": "bool",
                                "value": true
                            }
                        ],
                        "signature": "transferFrom(address,address,uint256)"
                    },
                    "errorInfo": "",
                    "fromAddress": "0x68b3465833fb72a70ecdf485e0e4c7bd8665fc45",
                    "gasUsed": 309775,
                    "id": 2,
                    "methodDecoded": true,
                    "operation": "CALL",
                    "output": "0x0000000000000000000000000000000000000000000000000000000000000001",
                    "revert": false,
                    "revertMessage": "",
                    "selector": "0x23b872dd",
                    "status": true,
                    "value": "0"
                },
                "nodeType": 0
            },
            "20": {
                "invocation": {
                    "address": "0xe1d11161a48d1630201f5fd292bf44f0174187fa",
                    "callData": "0x",
                    "decodedMethod": null,
                    "errorInfo": "",
                    "fromAddress": "0x7a250d5630b4cf539739df2c5dacb4c659f2488d",
                    "gasUsed": 55,
                    "id": 20,
                    "methodDecoded": false,
                    "operation": "CALL",
                    "output": "",
                    "revert": false,
                    "revertMessage": "",
                    "selector": "fallback",
                    "status": true,
                    "value": "0.025010472899918509"
                },
                "nodeType": 0
            },
            "21": {
                "invocation": {
                    "address": "0x7a250d5630b4cf539739df2c5dacb4c659f2488d",
                    "callData": "0x000000000000000000000000e1d11161a48d1630201f5fd292bf44f0174187fa00000000000000000000000000000000000000000000025e2ba2f5271bbc69570000000000000000000000000000000000000000000000000000000000000000000000000000000000000000000000000000000000000000000000000000000000000000000000000000000050d87140e8a04051591e62ff0135704d56d820cc000000000000000000000000000000000000000000000000000000006332445b",
                    "decodedMethod": {
                        "callParams": [
                            {
                                "name": "token",
                                "type": "address",
                                "value": "0xe1d11161a48d1630201f5fd292bf44f0174187fa"
                            },
                            {
                                "name": "amountTokenDesired",
                                "type": "uint256",
                                "value": "11,181,871,253,706,164,169,047"
                            },
                            {
                                "name": "amountTokenMin",
                                "type": "uint256",
                                "value": "0"
                            },
                            {
                                "name": "amountETHMin",
                                "type": "uint256",
                                "value": "0"
                            },
                            {
                                "name": "to",
                                "type": "address",
                                "value": "0x50d87140e8a04051591e62ff0135704d56d820cc"
                            },
                            {
                                "name": "deadline",
                                "type": "uint256",
                                "value": "1,664,238,683"
                            }
                        ],
                        "constructorArguments": "",
                        "name": "addLiquidityETH",
                        "returnParams": [
                            {
                                "name": "amountToken",
                                "type": "uint256",
                                "value": "11,181,871,253,706,164,169,047"
                            },
                            {
                                "name": "amountETH",
                                "type": "uint256",
                                "value": "1,461,919,640,712,233"
                            },
                            {
                                "name": "liquidity",
                                "type": "uint256",
                                "value": "3,976,689,637,138,965,890"
                            }
                        ],
                        "signature": "addLiquidityETH(address,uint256,uint256,uint256,address,uint256)"
                    },
                    "errorInfo": "",
                    "fromAddress": "0xe1d11161a48d1630201f5fd292bf44f0174187fa",
                    "gasUsed": 86282,
                    "id": 21,
                    "methodDecoded": true,
                    "operation": "CALL",
                    "output": "0x00000000000000000000000000000000000000000000025e2ba2f5271bbc69570000000000000000000000000000000000000000000000000005319bb0dff42900000000000000000000000000000000000000000000000037300a27d3a52582",
                    "revert": false,
                    "revertMessage": "",
                    "selector": "0xf305d719",
                    "status": true,
                    "value": "0.0014712042882305"
                },
                "nodeType": 0
            },
            "22": {
                "invocation": {
                    "address": "0x5c69bee701ef814a2b6a3edd4b1652cb9cc5aa6f",
                    "callData": "0x000000000000000000000000e1d11161a48d1630201f5fd292bf44f0174187fa000000000000000000000000c02aaa39b223fe8d0a0e5c4f27ead9083c756cc2",
                    "decodedMethod": {
                        "callParams": [
                            {
                                "name": "",
                                "type": "address",
                                "value": "0xe1d11161a48d1630201f5fd292bf44f0174187fa"
                            },
                            {
                                "name": "",
                                "type": "address",
                                "value": "0xc02aaa39b223fe8d0a0e5c4f27ead9083c756cc2"
                            }
                        ],
                        "constructorArguments": "",
                        "name": "getPair",
                        "returnParams": [
                            {
                                "name": "",
                                "type": "address",
                                "value": "0xbf03e30905ce1e3ab8c1352fa3b4502b280ef177"
                            }
                        ],
                        "signature": "getPair(address,address)"
                    },
                    "errorInfo": "",
                    "fromAddress": "0x7a250d5630b4cf539739df2c5dacb4c659f2488d",
                    "gasUsed": 2564,
                    "id": 22,
                    "methodDecoded": true,
                    "operation": "STATICCALL",
                    "output": "0x000000000000000000000000bf03e30905ce1e3ab8c1352fa3b4502b280ef177",
                    "revert": false,
                    "revertMessage": "",
                    "selector": "0xe6a43905",
                    "status": true,
                    "value": "0"
                },
                "nodeType": 0
            },
            "23": {
                "invocation": {
                    "address": "0xbf03e30905ce1e3ab8c1352fa3b4502b280ef177",
                    "callData": "0x",
                    "decodedMethod": {
                        "callParams": [],
                        "constructorArguments": "",
                        "name": "getReserves",
                        "returnParams": [
                            {
                                "name": "_reserve0",
                                "type": "uint112",
                                "value": "2,674,631,636,980,863,267"
                            },
                            {
                                "name": "_reserve1",
                                "type": "uint112",
                                "value": "20,457,613,252,421,170,171,406,804"
                            },
                            {
                                "name": "_blockTimestampLast",
                                "type": "uint32",
                                "value": "1,664,238,683"
                            }
                        ],
                        "signature": "getReserves()"
                    },
                    "errorInfo": "",
                    "fromAddress": "0x7a250d5630b4cf539739df2c5dacb4c659f2488d",
                    "gasUsed": 504,
                    "id": 23,
                    "methodDecoded": true,
                    "operation": "STATICCALL",
                    "output": "0x000000000000000000000000000000000000000000000000251e334d9344112300000000000000000000000000000000000000000010ec116fc57cb257eee9d4000000000000000000000000000000000000000000000000000000006332445b",
                    "revert": false,
                    "revertMessage": "",
                    "selector": "0x0902f1ac",
                    "status": true,
                    "value": "0"
                },
                "nodeType": 0
            },
            "24": {
                "invocation": {
                    "address": "0xe1d11161a48d1630201f5fd292bf44f0174187fa",
                    "callData": "0x000000000000000000000000e1d11161a48d1630201f5fd292bf44f0174187fa000000000000000000000000bf03e30905ce1e3ab8c1352fa3b4502b280ef17700000000000000000000000000000000000000000000025e2ba2f5271bbc6957",
                    "decodedMethod": {
                        "callParams": [
                            {
                                "name": "sender",
                                "type": "address",
                                "value": "0xe1d11161a48d1630201f5fd292bf44f0174187fa"
                            },
                            {
                                "name": "recipient",
                                "type": "address",
                                "value": "0xbf03e30905ce1e3ab8c1352fa3b4502b280ef177"
                            },
                            {
                                "decimalAvailable": true,
                                "name": "amount",
                                "type": "uint256",
                                "value": "11,181,871,253,706,164,169,047"
                            }
                        ],
                        "constructorArguments": "",
                        "name": "transferFrom",
                        "returnParams": [
                            {
                                "name": "",
                                "type": "bool",
                                "value": true
                            }
                        ],
                        "signature": "transferFrom(address,address,uint256)"
                    },
                    "errorInfo": "",
                    "fromAddress": "0x7a250d5630b4cf539739df2c5dacb4c659f2488d",
                    "gasUsed": 5894,
                    "id": 24,
                    "methodDecoded": true,
                    "operation": "CALL",
                    "output": "0x0000000000000000000000000000000000000000000000000000000000000001",
                    "revert": false,
                    "revertMessage": "",
                    "selector": "0x23b872dd",
                    "status": true,
                    "value": "0"
                },
                "nodeType": 0
            },
            "25": {
                "event": {
                    "contract": "0xe1d11161a48d1630201f5fd292bf44f0174187fa",
                    "decodedLog": {
                        "name": "Transfer",
                        "params": [
                            {
                                "name": "from",
                                "type": "address",
                                "value": "0xe1d11161a48d1630201f5fd292bf44f0174187fa"
                            },
                            {
                                "name": "to",
                                "type": "address",
                                "value": "0xbf03e30905ce1e3ab8c1352fa3b4502b280ef177"
                            },
                            {
                                "decimalAvailable": true,
                                "name": "value",
                                "type": "uint256",
                                "value": "11,181,871,253,706,164,169,047"
                            }
                        ],
                        "signature": "Transfer(address,address,uint256)"
                    },
                    "id": 25,
                    "logData": "0x00000000000000000000000000000000000000000000025e2ba2f5271bbc6957",
                    "logDecoded": true,
                    "operation": "EVENT",
                    "revert": false,
                    "status": true,
                    "topics": [
                        "0xddf252ad1be2c89b69c2b068fc378daa952ba7f163c4a11628f55a4df523b3ef",
                        "0x000000000000000000000000e1d11161a48d1630201f5fd292bf44f0174187fa",
                        "0x000000000000000000000000bf03e30905ce1e3ab8c1352fa3b4502b280ef177"
                    ]
                },
                "nodeType": 1
            },
            "26": {
                "invocation": {
                    "address": "0xc02aaa39b223fe8d0a0e5c4f27ead9083c756cc2",
                    "callData": "0x",
                    "decodedMethod": {
                        "callParams": [],
                        "constructorArguments": "",
                        "name": "deposit",
                        "returnParams": [],
                        "signature": "deposit()"
                    },
                    "errorInfo": "",
                    "fromAddress": "0x7a250d5630b4cf539739df2c5dacb4c659f2488d",
                    "gasUsed": 21974,
                    "id": 26,
                    "methodDecoded": true,
                    "operation": "CALL",
                    "output": "",
                    "revert": false,
                    "revertMessage": "",
                    "selector": "0xd0e30db0",
                    "status": true,
                    "value": "0.001461919640712233"
                },
                "nodeType": 0
            },
            "27": {
                "event": {
                    "contract": "0xc02aaa39b223fe8d0a0e5c4f27ead9083c756cc2",
                    "decodedLog": {
                        "name": "Deposit",
                        "params": [
                            {
                                "name": "dst",
                                "type": "address",
                                "value": "0x7a250d5630b4cf539739df2c5dacb4c659f2488d"
                            },
                            {
                                "name": "wad",
                                "type": "uint256",
                                "value": "1,461,919,640,712,233"
                            }
                        ],
                        "signature": "Deposit(address,uint256)"
                    },
                    "id": 27,
                    "logData": "0x0000000000000000000000000000000000000000000000000005319bb0dff429",
                    "logDecoded": true,
                    "operation": "EVENT",
                    "revert": false,
                    "status": true,
                    "topics": [
                        "0xe1fffcc4923d04b559f4d29a8bfc6cda04eb5b0d3c460751c2402c5c5cc9109c",
                        "0x0000000000000000000000007a250d5630b4cf539739df2c5dacb4c659f2488d"
                    ]
                },
                "nodeType": 1
            },
            "28": {
                "invocation": {
                    "address": "0xc02aaa39b223fe8d0a0e5c4f27ead9083c756cc2",
                    "callData": "0x000000000000000000000000bf03e30905ce1e3ab8c1352fa3b4502b280ef1770000000000000000000000000000000000000000000000000005319bb0dff429",
                    "decodedMethod": {
                        "callParams": [
                            {
                                "name": "dst",
                                "type": "address",
                                "value": "0xbf03e30905ce1e3ab8c1352fa3b4502b280ef177"
                            },
                            {
                                "decimalAvailable": true,
                                "name": "wad",
                                "type": "uint256",
                                "value": "1,461,919,640,712,233"
                            }
                        ],
                        "constructorArguments": "",
                        "name": "transfer",
                        "returnParams": [
                            {
                                "name": "",
                                "type": "bool",
                                "value": true
                            }
                        ],
                        "signature": "transfer(address,uint256)"
                    },
                    "errorInfo": "",
                    "fromAddress": "0x7a250d5630b4cf539739df2c5dacb4c659f2488d",
                    "gasUsed": 3262,
                    "id": 28,
                    "methodDecoded": true,
                    "operation": "CALL",
                    "output": "0x0000000000000000000000000000000000000000000000000000000000000001",
                    "revert": false,
                    "revertMessage": "",
                    "selector": "0xa9059cbb",
                    "status": true,
                    "value": "0"
                },
                "nodeType": 0
            },
            "29": {
                "event": {
                    "contract": "0xc02aaa39b223fe8d0a0e5c4f27ead9083c756cc2",
                    "decodedLog": {
                        "name": "Transfer",
                        "params": [
                            {
                                "name": "src",
                                "type": "address",
                                "value": "0x7a250d5630b4cf539739df2c5dacb4c659f2488d"
                            },
                            {
                                "name": "dst",
                                "type": "address",
                                "value": "0xbf03e30905ce1e3ab8c1352fa3b4502b280ef177"
                            },
                            {
                                "decimalAvailable": true,
                                "name": "wad",
                                "type": "uint256",
                                "value": "1,461,919,640,712,233"
                            }
                        ],
                        "signature": "Transfer(address,address,uint256)"
                    },
                    "id": 29,
                    "logData": "0x0000000000000000000000000000000000000000000000000005319bb0dff429",
                    "logDecoded": true,
                    "operation": "EVENT",
                    "revert": false,
                    "status": true,
                    "topics": [
                        "0xddf252ad1be2c89b69c2b068fc378daa952ba7f163c4a11628f55a4df523b3ef",
                        "0x0000000000000000000000007a250d5630b4cf539739df2c5dacb4c659f2488d",
                        "0x000000000000000000000000bf03e30905ce1e3ab8c1352fa3b4502b280ef177"
                    ]
                },
                "nodeType": 1
            },
            "3": {
                "invocation": {
                    "address": "0x7a250d5630b4cf539739df2c5dacb4c659f2488d",
                    "callData": "0x",
                    "decodedMethod": {
                        "callParams": [],
                        "constructorArguments": "",
                        "name": "WETH",
                        "returnParams": [
                            {
                                "name": "",
                                "type": "address",
                                "value": "0xc02aaa39b223fe8d0a0e5c4f27ead9083c756cc2"
                            }
                        ],
                        "signature": "WETH()"
                    },
                    "errorInfo": "",
                    "fromAddress": "0xe1d11161a48d1630201f5fd292bf44f0174187fa",
                    "gasUsed": 275,
                    "id": 3,
                    "methodDecoded": true,
                    "operation": "STATICCALL",
                    "output": "0x000000000000000000000000c02aaa39b223fe8d0a0e5c4f27ead9083c756cc2",
                    "revert": false,
                    "revertMessage": "",
                    "selector": "0xad5c4648",
                    "status": true,
                    "value": "0"
                },
                "nodeType": 0
            },
            "30": {
                "invocation": {
                    "address": "0xbf03e30905ce1e3ab8c1352fa3b4502b280ef177",
                    "callData": "0x00000000000000000000000050d87140e8a04051591e62ff0135704d56d820cc",
                    "decodedMethod": {
                        "callParams": [
                            {
                                "name": "to",
                                "type": "address",
                                "value": "0x50d87140e8a04051591e62ff0135704d56d820cc"
                            }
                        ],
                        "constructorArguments": "",
                        "name": "mint",
                        "returnParams": [
                            {
                                "name": "liquidity",
                                "type": "uint256",
                                "value": "3,976,689,637,138,965,890"
                            }
                        ],
                        "signature": "mint(address)"
                    },
                    "errorInfo": "",
                    "fromAddress": "0x7a250d5630b4cf539739df2c5dacb4c659f2488d",
                    "gasUsed": 29842,
                    "id": 30,
                    "methodDecoded": true,
                    "operation": "CALL",
                    "output": "0x00000000000000000000000000000000000000000000000037300a27d3a52582",
                    "revert": false,
                    "revertMessage": "",
                    "selector": "0x6a627842",
                    "status": true,
                    "value": "0"
                },
                "nodeType": 0
            },
            "31": {
                "invocation": {
                    "address": "0xc02aaa39b223fe8d0a0e5c4f27ead9083c756cc2",
                    "callData": "0x000000000000000000000000bf03e30905ce1e3ab8c1352fa3b4502b280ef177",
                    "decodedMethod": {
                        "callParams": [
                            {
                                "name": "",
                                "type": "address",
                                "value": "0xbf03e30905ce1e3ab8c1352fa3b4502b280ef177"
                            }
                        ],
                        "constructorArguments": "",
                        "name": "balanceOf",
                        "returnParams": [
                            {
                                "decimalAvailable": true,
                                "name": "",
                                "type": "uint256",
                                "value": "2,676,093,556,621,575,500"
                            }
                        ],
                        "signature": "balanceOf(address)"
                    },
                    "errorInfo": "",
                    "fromAddress": "0xbf03e30905ce1e3ab8c1352fa3b4502b280ef177",
                    "gasUsed": 534,
                    "id": 31,
                    "methodDecoded": true,
                    "operation": "STATICCALL",
                    "output": "0x000000000000000000000000000000000000000000000000252364e94424054c",
                    "revert": false,
                    "revertMessage": "",
                    "selector": "0x70a08231",
                    "status": true,
                    "value": "0"
                },
                "nodeType": 0
            },
            "32": {
                "invocation": {
                    "address": "0xe1d11161a48d1630201f5fd292bf44f0174187fa",
                    "callData": "0x000000000000000000000000bf03e30905ce1e3ab8c1352fa3b4502b280ef177",
                    "decodedMethod": {
                        "callParams": [
                            {
                                "name": "account",
                                "type": "address",
                                "value": "0xbf03e30905ce1e3ab8c1352fa3b4502b280ef177"
                            }
                        ],
                        "constructorArguments": "",
                        "name": "balanceOf",
                        "returnParams": [
                            {
                                "decimalAvailable": true,
                                "name": "",
                                "type": "uint256",
                                "value": "20,468,795,123,674,876,335,575,851"
                            }
                        ],
                        "signature": "balanceOf(address)"
                    },
                    "errorInfo": "",
                    "fromAddress": "0xbf03e30905ce1e3ab8c1352fa3b4502b280ef177",
                    "gasUsed": 909,
                    "id": 32,
                    "methodDecoded": true,
                    "operation": "STATICCALL",
                    "output": "0x00000000000000000000000000000000000000000010ee6f9b6871d973ab532b",
                    "revert": false,
                    "revertMessage": "",
                    "selector": "0x70a08231",
                    "status": true,
                    "value": "0"
                },
                "nodeType": 0
            },
            "33": {
                "invocation": {
                    "address": "0x5c69bee701ef814a2b6a3edd4b1652cb9cc5aa6f",
                    "callData": "0x",
                    "decodedMethod": {
                        "callParams": [],
                        "constructorArguments": "",
                        "name": "feeTo",
                        "returnParams": [
                            {
                                "name": "",
                                "type": "address",
                                "value": "0x0000000000000000000000000000000000000000"
                            }
                        ],
                        "signature": "feeTo()"
                    },
                    "errorInfo": "",
                    "fromAddress": "0xbf03e30905ce1e3ab8c1352fa3b4502b280ef177",
                    "gasUsed": 2314,
                    "id": 33,
                    "methodDecoded": true,
                    "operation": "STATICCALL",
                    "output": "0x0000000000000000000000000000000000000000000000000000000000000000",
                    "revert": false,
                    "revertMessage": "",
                    "selector": "0x017e7e58",
                    "status": true,
                    "value": "0"
                },
                "nodeType": 0
            },
            "34": {
                "event": {
                    "contract": "0xbf03e30905ce1e3ab8c1352fa3b4502b280ef177",
                    "decodedLog": {
                        "name": "Transfer",
                        "params": [
                            {
                                "name": "from",
                                "type": "address",
                                "value": "0x0000000000000000000000000000000000000000"
                            },
                            {
                                "name": "to",
                                "type": "address",
                                "value": "0x50d87140e8a04051591e62ff0135704d56d820cc"
                            },
                            {
                                "decimalAvailable": true,
                                "name": "value",
                                "type": "uint256",
                                "value": "3,976,689,637,138,965,890"
                            }
                        ],
                        "signature": "Transfer(address,address,uint256)"
                    },
                    "id": 34,
                    "logData": "0x00000000000000000000000000000000000000000000000037300a27d3a52582",
                    "logDecoded": true,
                    "operation": "EVENT",
                    "revert": false,
                    "status": true,
                    "topics": [
                        "0xddf252ad1be2c89b69c2b068fc378daa952ba7f163c4a11628f55a4df523b3ef",
                        "0x0000000000000000000000000000000000000000000000000000000000000000",
                        "0x00000000000000000000000050d87140e8a04051591e62ff0135704d56d820cc"
                    ]
                },
                "nodeType": 1
            },
            "35": {
                "event": {
                    "contract": "0xbf03e30905ce1e3ab8c1352fa3b4502b280ef177",
                    "decodedLog": {
                        "name": "Sync",
                        "params": [
                            {
                                "name": "reserve0",
                                "type": "uint112",
                                "value": "2,676,093,556,621,575,500"
                            },
                            {
                                "name": "reserve1",
                                "type": "uint112",
                                "value": "20,468,795,123,674,876,335,575,851"
                            }
                        ],
                        "signature": "Sync(uint112,uint112)"
                    },
                    "id": 35,
                    "logData": "0x000000000000000000000000000000000000000000000000252364e94424054c00000000000000000000000000000000000000000010ee6f9b6871d973ab532b",
                    "logDecoded": true,
                    "operation": "EVENT",
                    "revert": false,
                    "status": true,
                    "topics": [
                        "0x1c411e9a96e071241c2f21f7726b17ae89e3cab4c78be50e062b03a9fffbbad1"
                    ]
                },
                "nodeType": 1
            },
            "36": {
                "event": {
                    "contract": "0xbf03e30905ce1e3ab8c1352fa3b4502b280ef177",
                    "decodedLog": {
                        "name": "Mint",
                        "params": [
                            {
                                "name": "sender",
                                "type": "address",
                                "value": "0x7a250d5630b4cf539739df2c5dacb4c659f2488d"
                            },
                            {
                                "name": "amount0",
                                "type": "uint256",
                                "value": "1,461,919,640,712,233"
                            },
                            {
                                "name": "amount1",
                                "type": "uint256",
                                "value": "11,181,871,253,706,164,169,047"
                            }
                        ],
                        "signature": "Mint(address,uint256,uint256)"
                    },
                    "id": 36,
                    "logData": "0x0000000000000000000000000000000000000000000000000005319bb0dff42900000000000000000000000000000000000000000000025e2ba2f5271bbc6957",
                    "logDecoded": true,
                    "operation": "EVENT",
                    "revert": false,
                    "status": true,
                    "topics": [
                        "0x4c209b5fc8ad50758f13e2e1088ba56a560dff690a1c6fef26394f4c03821c4f",
                        "0x0000000000000000000000007a250d5630b4cf539739df2c5dacb4c659f2488d"
                    ]
                },
                "nodeType": 1
            },
            "37": {
                "invocation": {
                    "address": "0xe1d11161a48d1630201f5fd292bf44f0174187fa",
                    "callData": "0x",
                    "decodedMethod": null,
                    "errorInfo": "",
                    "fromAddress": "0x7a250d5630b4cf539739df2c5dacb4c659f2488d",
                    "gasUsed": 55,
                    "id": 37,
                    "methodDecoded": false,
                    "operation": "CALL",
                    "output": "",
                    "revert": false,
                    "revertMessage": "",
                    "selector": "fallback",
                    "status": true,
                    "value": "0.000009284647518267"
                },
                "nodeType": 0
            },
            "38": {
                "invocation": {
                    "address": "0x50d87140e8a04051591e62ff0135704d56d820cc",
                    "callData": "0x",
                    "decodedMethod": null,
                    "errorInfo": "",
                    "fromAddress": "0xe1d11161a48d1630201f5fd292bf44f0174187fa",
                    "gasUsed": 0,
                    "id": 38,
                    "methodDecoded": false,
                    "operation": "CALL",
                    "output": "",
                    "revert": false,
                    "revertMessage": "",
                    "selector": "fallback",
                    "status": true,
                    "value": "0.017661414944404707"
                },
                "nodeType": 0
            },
            "39": {
                "invocation": {
                    "address": "0xf610e9b4da81351fb46fa65bd4a1fb27451adf3f",
                    "callData": "0x",
                    "decodedMethod": null,
                    "errorInfo": "",
                    "fromAddress": "0xe1d11161a48d1630201f5fd292bf44f0174187fa",
                    "gasUsed": 0,
                    "id": 39,
                    "methodDecoded": false,
                    "operation": "CALL",
                    "output": "",
                    "revert": false,
                    "revertMessage": "",
                    "selector": "fallback",
                    "status": true,
                    "value": "0.005887138314801569"
                },
                "nodeType": 0
            },
            "4": {
                "invocation": {
                    "address": "0x7a250d5630b4cf539739df2c5dacb4c659f2488d",
                    "callData": "0x000000000000000000000000000000000000000000002840e5d24798d782fed8000000000000000000000000000000000000000000000000000000000000000000000000000000000000000000000000000000000000000000000000000000a0000000000000000000000000e1d11161a48d1630201f5fd292bf44f0174187fa000000000000000000000000000000000000000000000000000000006332445b0000000000000000000000000000000000000000000000000000000000000002000000000000000000000000e1d11161a48d1630201f5fd292bf44f0174187fa000000000000000000000000c02aaa39b223fe8d0a0e5c4f27ead9083c756cc2",
                    "decodedMethod": {
                        "callParams": [
                            {
                                "name": "amountIn",
                                "type": "uint256",
                                "value": "190,091,811,313,004,790,873,816"
                            },
                            {
                                "name": "amountOutMin",
                                "type": "uint256",
                                "value": "0"
                            },
                            {
                                "name": "path",
                                "type": "address[]",
                                "value": [
                                    "0xe1d11161a48d1630201f5fd292bf44f0174187fa",
                                    "0xc02aaa39b223fe8d0a0e5c4f27ead9083c756cc2"
                                ]
                            },
                            {
                                "name": "to",
                                "type": "address",
                                "value": "0xe1d11161a48d1630201f5fd292bf44f0174187fa"
                            },
                            {
                                "name": "deadline",
                                "type": "uint256",
                                "value": "1,664,238,683"
                            }
                        ],
                        "constructorArguments": "",
                        "name": "swapExactTokensForETHSupportingFeeOnTransferTokens",
                        "returnParams": [],
                        "signature": "swapExactTokensForETHSupportingFeeOnTransferTokens(uint256,uint256,address[],address,uint256)"
                    },
                    "errorInfo": "",
                    "fromAddress": "0xe1d11161a48d1630201f5fd292bf44f0174187fa",
                    "gasUsed": 114634,
                    "id": 4,
                    "methodDecoded": true,
                    "operation": "CALL",
                    "output": "",
                    "revert": false,
                    "revertMessage": "",
                    "selector": "0x791ac947",
                    "status": true,
                    "value": "0"
                },
                "nodeType": 0
            },
            "40": {
                "event": {
                    "contract": "0xe1d11161a48d1630201f5fd292bf44f0174187fa",
                    "decodedLog": {
                        "name": "Transfer",
                        "params": [
                            {
                                "name": "from",
                                "type": "address",
                                "value": "0xcfa7929d910b8d778e143766b4013de29bad01b8"
                            },
                            {
                                "name": "to",
                                "type": "address",
                                "value": "0xbf03e30905ce1e3ab8c1352fa3b4502b280ef177"
                            },
                            {
                                "decimalAvailable": true,
                                "name": "value",
                                "type": "uint256",
                                "value": "786,035,558,101,343,844,948,785"
                            }
                        ],
                        "signature": "Transfer(address,address,uint256)"
                    },
                    "id": 40,
                    "logData": "0x00000000000000000000000000000000000000000000a67312af4a4c8677db31",
                    "logDecoded": true,
                    "operation": "EVENT",
                    "revert": false,
                    "status": true,
                    "topics": [
                        "0xddf252ad1be2c89b69c2b068fc378daa952ba7f163c4a11628f55a4df523b3ef",
                        "0x000000000000000000000000cfa7929d910b8d778e143766b4013de29bad01b8",
                        "0x000000000000000000000000bf03e30905ce1e3ab8c1352fa3b4502b280ef177"
                    ]
                },
                "nodeType": 1
            },
            "41": {
                "event": {
                    "contract": "0xe1d11161a48d1630201f5fd292bf44f0174187fa",
                    "decodedLog": {
                        "name": "Transfer",
                        "params": [
                            {
                                "name": "from",
                                "type": "address",
                                "value": "0xcfa7929d910b8d778e143766b4013de29bad01b8"
                            },
                            {
                                "name": "to",
                                "type": "address",
                                "value": "0xe1d11161a48d1630201f5fd292bf44f0174187fa"
                            },
                            {
                                "decimalAvailable": true,
                                "name": "value",
                                "type": "uint256",
                                "value": "41,370,292,531,649,676,049,936"
                            }
                        ],
                        "signature": "Transfer(address,address,uint256)"
                    },
                    "id": 41,
                    "logData": "0x0000000000000000000000000000000000000000000008c2b0242c54dea7fe10",
                    "logDecoded": true,
                    "operation": "EVENT",
                    "revert": false,
                    "status": true,
                    "topics": [
                        "0xddf252ad1be2c89b69c2b068fc378daa952ba7f163c4a11628f55a4df523b3ef",
                        "0x000000000000000000000000cfa7929d910b8d778e143766b4013de29bad01b8",
                        "0x000000000000000000000000e1d11161a48d1630201f5fd292bf44f0174187fa"
                    ]
                },
                "nodeType": 1
            },
            "42": {
                "invocation": {
                    "address": "0xc02aaa39b223fe8d0a0e5c4f27ead9083c756cc2",
                    "callData": "0x00000000000000000000000068b3465833fb72a70ecdf485e0e4c7bd8665fc45",
                    "decodedMethod": {
                        "callParams": [
                            {
                                "name": "",
                                "type": "address",
                                "value": "0x68b3465833fb72a70ecdf485e0e4c7bd8665fc45"
                            }
                        ],
                        "constructorArguments": "",
                        "name": "balanceOf",
                        "returnParams": [
                            {
                                "decimalAvailable": true,
                                "name": "",
                                "type": "uint256",
                                "value": "0"
                            }
                        ],
                        "signature": "balanceOf(address)"
                    },
                    "errorInfo": "",
                    "fromAddress": "0x68b3465833fb72a70ecdf485e0e4c7bd8665fc45",
                    "gasUsed": 2534,
                    "id": 42,
                    "methodDecoded": true,
                    "operation": "STATICCALL",
                    "output": "0x0000000000000000000000000000000000000000000000000000000000000000",
                    "revert": false,
                    "revertMessage": "",
                    "selector": "0x70a08231",
                    "status": true,
                    "value": "0"
                },
                "nodeType": 0
            },
            "43": {
                "invocation": {
                    "address": "0xbf03e30905ce1e3ab8c1352fa3b4502b280ef177",
                    "callData": "0x",
                    "decodedMethod": {
                        "callParams": [],
                        "constructorArguments": "",
                        "name": "getReserves",
                        "returnParams": [
                            {
                                "name": "_reserve0",
                                "type": "uint112",
                                "value": "2,676,093,556,621,575,500"
                            },
                            {
                                "name": "_reserve1",
                                "type": "uint112",
                                "value": "20,468,795,123,674,876,335,575,851"
                            },
                            {
                                "name": "_blockTimestampLast",
                                "type": "uint32",
                                "value": "1,664,238,683"
                            }
                        ],
                        "signature": "getReserves()"
                    },
                    "errorInfo": "",
                    "fromAddress": "0x68b3465833fb72a70ecdf485e0e4c7bd8665fc45",
                    "gasUsed": 504,
                    "id": 43,
                    "methodDecoded": true,
                    "operation": "STATICCALL",
                    "output": "0x000000000000000000000000000000000000000000000000252364e94424054c00000000000000000000000000000000000000000010ee6f9b6871d973ab532b000000000000000000000000000000000000000000000000000000006332445b",
                    "revert": false,
                    "revertMessage": "",
                    "selector": "0x0902f1ac",
                    "status": true,
                    "value": "0"
                },
                "nodeType": 0
            },
            "44": {
                "invocation": {
                    "address": "0xe1d11161a48d1630201f5fd292bf44f0174187fa",
                    "callData": "0x000000000000000000000000bf03e30905ce1e3ab8c1352fa3b4502b280ef177",
                    "decodedMethod": {
                        "callParams": [
                            {
                                "name": "account",
                                "type": "address",
                                "value": "0xbf03e30905ce1e3ab8c1352fa3b4502b280ef177"
                            }
                        ],
                        "constructorArguments": "",
                        "name": "balanceOf",
                        "returnParams": [
                            {
                                "decimalAvailable": true,
                                "name": "",
                                "type": "uint256",
                                "value": "21,254,830,681,776,220,180,524,636"
                            }
                        ],
                        "signature": "balanceOf(address)"
                    },
                    "errorInfo": "",
                    "fromAddress": "0x68b3465833fb72a70ecdf485e0e4c7bd8665fc45",
                    "gasUsed": 909,
                    "id": 44,
                    "methodDecoded": true,
                    "operation": "STATICCALL",
                    "output": "0x0000000000000000000000000000000000000000001194e2ae17bc25fa232e5c",
                    "revert": false,
                    "revertMessage": "",
                    "selector": "0x70a08231",
                    "status": true,
                    "value": "0"
                },
                "nodeType": 0
            },
            "45": {
                "invocation": {
                    "address": "0xbf03e30905ce1e3ab8c1352fa3b4502b280ef177",
                    "callData": "0x000000000000000000000000000000000000000000000000015e94f1eff267e4000000000000000000000000000000000000000000000000000000000000000000000000000000000000000068b3465833fb72a70ecdf485e0e4c7bd8665fc4500000000000000000000000000000000000000000000000000000000000000800000000000000000000000000000000000000000000000000000000000000000",
                    "decodedMethod": {
                        "callParams": [
                            {
                                "name": "amount0Out",
                                "type": "uint256",
                                "value": "98,680,008,682,399,716"
                            },
                            {
                                "name": "amount1Out",
                                "type": "uint256",
                                "value": "0"
                            },
                            {
                                "name": "to",
                                "type": "address",
                                "value": "0x68b3465833fb72a70ecdf485e0e4c7bd8665fc45"
                            },
                            {
                                "name": "data",
                                "type": "bytes",
                                "value": "0x"
                            }
                        ],
                        "constructorArguments": "",
                        "name": "swap",
                        "returnParams": [],
                        "signature": "swap(uint256,uint256,address,bytes)"
                    },
                    "errorInfo": "",
                    "fromAddress": "0x68b3465833fb72a70ecdf485e0e4c7bd8665fc45",
                    "gasUsed": 36712,
                    "id": 45,
                    "methodDecoded": true,
                    "operation": "CALL",
                    "output": "",
                    "revert": false,
                    "revertMessage": "",
                    "selector": "0x022c0d9f",
                    "status": true,
                    "value": "0"
                },
                "nodeType": 0
            },
            "46": {
                "invocation": {
                    "address": "0xc02aaa39b223fe8d0a0e5c4f27ead9083c756cc2",
                    "callData": "0x00000000000000000000000068b3465833fb72a70ecdf485e0e4c7bd8665fc45000000000000000000000000000000000000000000000000015e94f1eff267e4",
                    "decodedMethod": {
                        "callParams": [
                            {
                                "name": "dst",
                                "type": "address",
                                "value": "0x68b3465833fb72a70ecdf485e0e4c7bd8665fc45"
                            },
                            {
                                "decimalAvailable": true,
                                "name": "wad",
                                "type": "uint256",
                                "value": "98,680,008,682,399,716"
                            }
                        ],
                        "constructorArguments": "",
                        "name": "transfer",
                        "returnParams": [
                            {
                                "name": "",
                                "type": "bool",
                                "value": true
                            }
                        ],
                        "signature": "transfer(address,uint256)"
                    },
                    "errorInfo": "",
                    "fromAddress": "0xbf03e30905ce1e3ab8c1352fa3b4502b280ef177",
                    "gasUsed": 23162,
                    "id": 46,
                    "methodDecoded": true,
                    "operation": "CALL",
                    "output": "0x0000000000000000000000000000000000000000000000000000000000000001",
                    "revert": false,
                    "revertMessage": "",
                    "selector": "0xa9059cbb",
                    "status": true,
                    "value": "0"
                },
                "nodeType": 0
            },
            "47": {
                "event": {
                    "contract": "0xc02aaa39b223fe8d0a0e5c4f27ead9083c756cc2",
                    "decodedLog": {
                        "name": "Transfer",
                        "params": [
                            {
                                "name": "src",
                                "type": "address",
                                "value": "0xbf03e30905ce1e3ab8c1352fa3b4502b280ef177"
                            },
                            {
                                "name": "dst",
                                "type": "address",
                                "value": "0x68b3465833fb72a70ecdf485e0e4c7bd8665fc45"
                            },
                            {
                                "decimalAvailable": true,
                                "name": "wad",
                                "type": "uint256",
                                "value": "98,680,008,682,399,716"
                            }
                        ],
                        "signature": "Transfer(address,address,uint256)"
                    },
                    "id": 47,
                    "logData": "0x000000000000000000000000000000000000000000000000015e94f1eff267e4",
                    "logDecoded": true,
                    "operation": "EVENT",
                    "revert": false,
                    "status": true,
                    "topics": [
                        "0xddf252ad1be2c89b69c2b068fc378daa952ba7f163c4a11628f55a4df523b3ef",
                        "0x000000000000000000000000bf03e30905ce1e3ab8c1352fa3b4502b280ef177",
                        "0x00000000000000000000000068b3465833fb72a70ecdf485e0e4c7bd8665fc45"
                    ]
                },
                "nodeType": 1
            },
            "48": {
                "invocation": {
                    "address": "0xc02aaa39b223fe8d0a0e5c4f27ead9083c756cc2",
                    "callData": "0x000000000000000000000000bf03e30905ce1e3ab8c1352fa3b4502b280ef177",
                    "decodedMethod": {
                        "callParams": [
                            {
                                "name": "",
                                "type": "address",
                                "value": "0xbf03e30905ce1e3ab8c1352fa3b4502b280ef177"
                            }
                        ],
                        "constructorArguments": "",
                        "name": "balanceOf",
                        "returnParams": [
                            {
                                "decimalAvailable": true,
                                "name": "",
                                "type": "uint256",
                                "value": "2,577,413,547,939,175,784"
                            }
                        ],
                        "signature": "balanceOf(address)"
                    },
                    "errorInfo": "",
                    "fromAddress": "0xbf03e30905ce1e3ab8c1352fa3b4502b280ef177",
                    "gasUsed": 534,
                    "id": 48,
                    "methodDecoded": true,
                    "operation": "STATICCALL",
                    "output": "0x00000000000000000000000000000000000000000000000023c4cff754319d68",
                    "revert": false,
                    "revertMessage": "",
                    "selector": "0x70a08231",
                    "status": true,
                    "value": "0"
                },
                "nodeType": 0
            },
            "49": {
                "invocation": {
                    "address": "0xe1d11161a48d1630201f5fd292bf44f0174187fa",
                    "callData": "0x000000000000000000000000bf03e30905ce1e3ab8c1352fa3b4502b280ef177",
                    "decodedMethod": {
                        "callParams": [
                            {
                                "name": "account",
                                "type": "address",
                                "value": "0xbf03e30905ce1e3ab8c1352fa3b4502b280ef177"
                            }
                        ],
                        "constructorArguments": "",
                        "name": "balanceOf",
                        "returnParams": [
                            {
                                "decimalAvailable": true,
                                "name": "",
                                "type": "uint256",
                                "value": "21,254,830,681,776,220,180,524,636"
                            }
                        ],
                        "signature": "balanceOf(address)"
                    },
                    "errorInfo": "",
                    "fromAddress": "0xbf03e30905ce1e3ab8c1352fa3b4502b280ef177",
                    "gasUsed": 909,
                    "id": 49,
                    "methodDecoded": true,
                    "operation": "STATICCALL",
                    "output": "0x0000000000000000000000000000000000000000001194e2ae17bc25fa232e5c",
                    "revert": false,
                    "revertMessage": "",
                    "selector": "0x70a08231",
                    "status": true,
                    "value": "0"
                },
                "nodeType": 0
            },
            "5": {
                "invocation": {
                    "address": "0xe1d11161a48d1630201f5fd292bf44f0174187fa",
                    "callData": "0x000000000000000000000000e1d11161a48d1630201f5fd292bf44f0174187fa000000000000000000000000bf03e30905ce1e3ab8c1352fa3b4502b280ef177000000000000000000000000000000000000000000002840e5d24798d782fed8",
                    "decodedMethod": {
                        "callParams": [
                            {
                                "name": "sender",
                                "type": "address",
                                "value": "0xe1d11161a48d1630201f5fd292bf44f0174187fa"
                            },
                            {
                                "name": "recipient",
                                "type": "address",
                                "value": "0xbf03e30905ce1e3ab8c1352fa3b4502b280ef177"
                            },
                            {
                                "decimalAvailable": true,
                                "name": "amount",
                                "type": "uint256",
                                "value": "190,091,811,313,004,790,873,816"
                            }
                        ],
                        "constructorArguments": "",
                        "name": "transferFrom",
                        "returnParams": [
                            {
                                "name": "",
                                "type": "bool",
                                "value": true
                            }
                        ],
                        "signature": "transferFrom(address,address,uint256)"
                    },
                    "errorInfo": "",
                    "fromAddress": "0x7a250d5630b4cf539739df2c5dacb4c659f2488d",
                    "gasUsed": 19494,
                    "id": 5,
                    "methodDecoded": true,
                    "operation": "CALL",
                    "output": "0x0000000000000000000000000000000000000000000000000000000000000001",
                    "revert": false,
                    "revertMessage": "",
                    "selector": "0x23b872dd",
                    "status": true,
                    "value": "0"
                },
                "nodeType": 0
            },
            "50": {
                "event": {
                    "contract": "0xbf03e30905ce1e3ab8c1352fa3b4502b280ef177",
                    "decodedLog": {
                        "name": "Sync",
                        "params": [
                            {
                                "name": "reserve0",
                                "type": "uint112",
                                "value": "2,577,413,547,939,175,784"
                            },
                            {
                                "name": "reserve1",
                                "type": "uint112",
                                "value": "21,254,830,681,776,220,180,524,636"
                            }
                        ],
                        "signature": "Sync(uint112,uint112)"
                    },
                    "id": 50,
                    "logData": "0x00000000000000000000000000000000000000000000000023c4cff754319d680000000000000000000000000000000000000000001194e2ae17bc25fa232e5c",
                    "logDecoded": true,
                    "operation": "EVENT",
                    "revert": false,
                    "status": true,
                    "topics": [
                        "0x1c411e9a96e071241c2f21f7726b17ae89e3cab4c78be50e062b03a9fffbbad1"
                    ]
                },
                "nodeType": 1
            },
            "51": {
                "event": {
                    "contract": "0xbf03e30905ce1e3ab8c1352fa3b4502b280ef177",
                    "decodedLog": {
                        "name": "Swap",
                        "params": [
                            {
                                "name": "sender",
                                "type": "address",
                                "value": "0x68b3465833fb72a70ecdf485e0e4c7bd8665fc45"
                            },
                            {
                                "name": "to",
                                "type": "address",
                                "value": "0x68b3465833fb72a70ecdf485e0e4c7bd8665fc45"
                            },
                            {
                                "name": "amount0In",
                                "type": "uint256",
                                "value": "0"
                            },
                            {
                                "name": "amount1In",
                                "type": "uint256",
                                "value": "786,035,558,101,343,844,948,785"
                            },
                            {
                                "name": "amount0Out",
                                "type": "uint256",
                                "value": "98,680,008,682,399,716"
                            },
                            {
                                "name": "amount1Out",
                                "type": "uint256",
                                "value": "0"
                            }
                        ],
                        "signature": "Swap(address,uint256,uint256,uint256,uint256,address)"
                    },
                    "id": 51,
                    "logData": "0x000000000000000000000000000000000000000000000000000000000000000000000000000000000000000000000000000000000000a67312af4a4c8677db31000000000000000000000000000000000000000000000000015e94f1eff267e40000000000000000000000000000000000000000000000000000000000000000",
                    "logDecoded": true,
                    "operation": "EVENT",
                    "revert": false,
                    "status": true,
                    "topics": [
                        "0xd78ad95fa46c994b6551d0da85fc275fe613ce37657fb8d5e3d130840159d822",
                        "0x00000000000000000000000068b3465833fb72a70ecdf485e0e4c7bd8665fc45",
                        "0x00000000000000000000000068b3465833fb72a70ecdf485e0e4c7bd8665fc45"
                    ]
                },
                "nodeType": 1
            },
            "52": {
                "invocation": {
                    "address": "0xc02aaa39b223fe8d0a0e5c4f27ead9083c756cc2",
                    "callData": "0x00000000000000000000000068b3465833fb72a70ecdf485e0e4c7bd8665fc45",
                    "decodedMethod": {
                        "callParams": [
                            {
                                "name": "",
                                "type": "address",
                                "value": "0x68b3465833fb72a70ecdf485e0e4c7bd8665fc45"
                            }
                        ],
                        "constructorArguments": "",
                        "name": "balanceOf",
                        "returnParams": [
                            {
                                "decimalAvailable": true,
                                "name": "",
                                "type": "uint256",
                                "value": "98,680,008,682,399,716"
                            }
                        ],
                        "signature": "balanceOf(address)"
                    },
                    "errorInfo": "",
                    "fromAddress": "0x68b3465833fb72a70ecdf485e0e4c7bd8665fc45",
                    "gasUsed": 534,
                    "id": 52,
                    "methodDecoded": true,
                    "operation": "STATICCALL",
                    "output": "0x000000000000000000000000000000000000000000000000015e94f1eff267e4",
                    "revert": false,
                    "revertMessage": "",
                    "selector": "0x70a08231",
                    "status": true,
                    "value": "0"
                },
                "nodeType": 0
            },
            "53": {
                "invocation": {
                    "address": "0x68b3465833fb72a70ecdf485e0e4c7bd8665fc45",
                    "callData": "0x00000000000000000000000000000000000000000000000001462db49a5bcd23000000000000000000000000cfa7929d910b8d778e143766b4013de29bad01b8",
                    "decodedMethod": {
                        "callParams": [
                            {
                                "name": "amountMinimum",
                                "type": "uint256",
                                "value": "91,811,096,114,744,611"
                            },
                            {
                                "name": "recipient",
                                "type": "address",
                                "value": "0xcfa7929d910b8d778e143766b4013de29bad01b8"
                            }
                        ],
                        "constructorArguments": "",
                        "name": "unwrapWETH9",
                        "returnParams": [],
                        "signature": "unwrapWETH9(uint256,address)"
                    },
                    "errorInfo": "",
                    "fromAddress": "0x68b3465833fb72a70ecdf485e0e4c7bd8665fc45",
                    "gasUsed": 18174,
                    "id": 53,
                    "methodDecoded": true,
                    "operation": "DELEGATECALL",
                    "output": "",
                    "revert": false,
                    "revertMessage": "",
                    "selector": "0x49404b7c",
                    "status": true,
                    "value": "0"
                },
                "nodeType": 0
            },
            "54": {
                "invocation": {
                    "address": "0xc02aaa39b223fe8d0a0e5c4f27ead9083c756cc2",
                    "callData": "0x00000000000000000000000068b3465833fb72a70ecdf485e0e4c7bd8665fc45",
                    "decodedMethod": {
                        "callParams": [
                            {
                                "name": "",
                                "type": "address",
                                "value": "0x68b3465833fb72a70ecdf485e0e4c7bd8665fc45"
                            }
                        ],
                        "constructorArguments": "",
                        "name": "balanceOf",
                        "returnParams": [
                            {
                                "decimalAvailable": true,
                                "name": "",
                                "type": "uint256",
                                "value": "98,680,008,682,399,716"
                            }
                        ],
                        "signature": "balanceOf(address)"
                    },
                    "errorInfo": "",
                    "fromAddress": "0x68b3465833fb72a70ecdf485e0e4c7bd8665fc45",
                    "gasUsed": 534,
                    "id": 54,
                    "methodDecoded": true,
                    "operation": "STATICCALL",
                    "output": "0x000000000000000000000000000000000000000000000000015e94f1eff267e4",
                    "revert": false,
                    "revertMessage": "",
                    "selector": "0x70a08231",
                    "status": true,
                    "value": "0"
                },
                "nodeType": 0
            },
            "55": {
                "invocation": {
                    "address": "0xc02aaa39b223fe8d0a0e5c4f27ead9083c756cc2",
                    "callData": "0x000000000000000000000000000000000000000000000000015e94f1eff267e4",
                    "decodedMethod": {
                        "callParams": [
                            {
                                "name": "wad",
                                "type": "uint256",
                                "value": "98,680,008,682,399,716"
                            }
                        ],
                        "constructorArguments": "",
                        "name": "withdraw",
                        "returnParams": [],
                        "signature": "withdraw(uint256)"
                    },
                    "errorInfo": "",
                    "fromAddress": "0x68b3465833fb72a70ecdf485e0e4c7bd8665fc45",
                    "gasUsed": 9223,
                    "id": 55,
                    "methodDecoded": true,
                    "operation": "CALL",
                    "output": "",
                    "revert": false,
                    "revertMessage": "",
                    "selector": "0x2e1a7d4d",
                    "status": true,
                    "value": "0"
                },
                "nodeType": 0
            },
            "56": {
                "invocation": {
                    "address": "0x68b3465833fb72a70ecdf485e0e4c7bd8665fc45",
                    "callData": "0x",
                    "decodedMethod": null,
                    "errorInfo": "",
                    "fromAddress": "0xc02aaa39b223fe8d0a0e5c4f27ead9083c756cc2",
                    "gasUsed": 83,
                    "id": 56,
                    "methodDecoded": false,
                    "operation": "CALL",
                    "output": "",
                    "revert": false,
                    "revertMessage": "",
                    "selector": "fallback",
                    "status": true,
                    "value": "0.098680008682399716"
                },
                "nodeType": 0
            },
            "57": {
                "event": {
                    "contract": "0xc02aaa39b223fe8d0a0e5c4f27ead9083c756cc2",
                    "decodedLog": {
                        "name": "Withdrawal",
                        "params": [
                            {
                                "name": "src",
                                "type": "address",
                                "value": "0x68b3465833fb72a70ecdf485e0e4c7bd8665fc45"
                            },
                            {
                                "name": "wad",
                                "type": "uint256",
                                "value": "98,680,008,682,399,716"
                            }
                        ],
                        "signature": "Withdrawal(address,uint256)"
                    },
                    "id": 57,
                    "logData": "0x000000000000000000000000000000000000000000000000015e94f1eff267e4",
                    "logDecoded": true,
                    "operation": "EVENT",
                    "revert": false,
                    "status": true,
                    "topics": [
                        "0x7fcf532c15f0a6db0bd6d0e038bea71d30d808c7d98cb3bf7268a95bf5081b65",
                        "0x00000000000000000000000068b3465833fb72a70ecdf485e0e4c7bd8665fc45"
                    ]
                },
                "nodeType": 1
            },
            "58": {
                "invocation": {
                    "address": "0xcfa7929d910b8d778e143766b4013de29bad01b8",
                    "callData": "0x",
                    "decodedMethod": null,
                    "errorInfo": "",
                    "fromAddress": "0x68b3465833fb72a70ecdf485e0e4c7bd8665fc45",
                    "gasUsed": 0,
                    "id": 58,
                    "methodDecoded": false,
                    "operation": "CALL",
                    "output": "",
                    "revert": false,
                    "revertMessage": "",
                    "selector": "fallback",
                    "status": true,
                    "value": "0.098680008682399716"
                },
                "nodeType": 0
            },
            "6": {
                "event": {
                    "contract": "0xe1d11161a48d1630201f5fd292bf44f0174187fa",
                    "decodedLog": {
                        "name": "Transfer",
                        "params": [
                            {
                                "name": "from",
                                "type": "address",
                                "value": "0xe1d11161a48d1630201f5fd292bf44f0174187fa"
                            },
                            {
                                "name": "to",
                                "type": "address",
                                "value": "0xbf03e30905ce1e3ab8c1352fa3b4502b280ef177"
                            },
                            {
                                "decimalAvailable": true,
                                "name": "value",
                                "type": "uint256",
                                "value": "190,091,811,313,004,790,873,816"
                            }
                        ],
                        "signature": "Transfer(address,address,uint256)"
                    },
                    "id": 6,
                    "logData": "0x000000000000000000000000000000000000000000002840e5d24798d782fed8",
                    "logDecoded": true,
                    "operation": "EVENT",
                    "revert": false,
                    "status": true,
                    "topics": [
                        "0xddf252ad1be2c89b69c2b068fc378daa952ba7f163c4a11628f55a4df523b3ef",
                        "0x000000000000000000000000e1d11161a48d1630201f5fd292bf44f0174187fa",
                        "0x000000000000000000000000bf03e30905ce1e3ab8c1352fa3b4502b280ef177"
                    ]
                },
                "nodeType": 1
            },
            "7": {
                "invocation": {
                    "address": "0xbf03e30905ce1e3ab8c1352fa3b4502b280ef177",
                    "callData": "0x",
                    "decodedMethod": {
                        "callParams": [],
                        "constructorArguments": "",
                        "name": "getReserves",
                        "returnParams": [
                            {
                                "name": "_reserve0",
                                "type": "uint112",
                                "value": "2,699,642,109,880,781,776"
                            },
                            {
                                "name": "_reserve1",
                                "type": "uint112",
                                "value": "20,267,521,441,108,165,380,532,988"
                            },
                            {
                                "name": "_blockTimestampLast",
                                "type": "uint32",
                                "value": "1,664,238,287"
                            }
                        ],
                        "signature": "getReserves()"
                    },
                    "errorInfo": "",
                    "fromAddress": "0x7a250d5630b4cf539739df2c5dacb4c659f2488d",
                    "gasUsed": 2504,
                    "id": 7,
                    "methodDecoded": true,
                    "operation": "STATICCALL",
                    "output": "0x00000000000000000000000000000000000000000000000025770e3214214bd000000000000000000000000000000000000000000010c3d089f33519806beafc00000000000000000000000000000000000000000000000000000000633242cf",
                    "revert": false,
                    "revertMessage": "",
                    "selector": "0x0902f1ac",
                    "status": true,
                    "value": "0"
                },
                "nodeType": 0
            },
            "8": {
                "invocation": {
                    "address": "0xe1d11161a48d1630201f5fd292bf44f0174187fa",
                    "callData": "0x000000000000000000000000bf03e30905ce1e3ab8c1352fa3b4502b280ef177",
                    "decodedMethod": {
                        "callParams": [
                            {
                                "name": "account",
                                "type": "address",
                                "value": "0xbf03e30905ce1e3ab8c1352fa3b4502b280ef177"
                            }
                        ],
                        "constructorArguments": "",
                        "name": "balanceOf",
                        "returnParams": [
                            {
                                "decimalAvailable": true,
                                "name": "",
                                "type": "uint256",
                                "value": "20,457,613,252,421,170,171,406,804"
                            }
                        ],
                        "signature": "balanceOf(address)"
                    },
                    "errorInfo": "",
                    "fromAddress": "0x7a250d5630b4cf539739df2c5dacb4c659f2488d",
                    "gasUsed": 909,
                    "id": 8,
                    "methodDecoded": true,
                    "operation": "STATICCALL",
                    "output": "0x00000000000000000000000000000000000000000010ec116fc57cb257eee9d4",
                    "revert": false,
                    "revertMessage": "",
                    "selector": "0x70a08231",
                    "status": true,
                    "value": "0"
                },
                "nodeType": 0
            },
            "9": {
                "invocation": {
                    "address": "0xbf03e30905ce1e3ab8c1352fa3b4502b280ef177",
                    "callData": "0x0000000000000000000000000000000000000000000000000058dae480dd3aad00000000000000000000000000000000000000000000000000000000000000000000000000000000000000007a250d5630b4cf539739df2c5dacb4c659f2488d00000000000000000000000000000000000000000000000000000000000000800000000000000000000000000000000000000000000000000000000000000000",
                    "decodedMethod": {
                        "callParams": [
                            {
                                "name": "amount0Out",
                                "type": "uint256",
                                "value": "25,010,472,899,918,509"
                            },
                            {
                                "name": "amount1Out",
                                "type": "uint256",
                                "value": "0"
                            },
                            {
                                "name": "to",
                                "type": "address",
                                "value": "0x7a250d5630b4cf539739df2c5dacb4c659f2488d"
                            },
                            {
                                "name": "data",
                                "type": "bytes",
                                "value": "0x"
                            }
                        ],
                        "constructorArguments": "",
                        "name": "swap",
                        "returnParams": [],
                        "signature": "swap(uint256,uint256,address,bytes)"
                    },
                    "errorInfo": "",
                    "fromAddress": "0x7a250d5630b4cf539739df2c5dacb4c659f2488d",
                    "gasUsed": 65228,
                    "id": 9,
                    "methodDecoded": true,
                    "operation": "CALL",
                    "output": "",
                    "revert": false,
                    "revertMessage": "",
                    "selector": "0x022c0d9f",
                    "status": true,
                    "value": "0"
                },
                "nodeType": 0
            }
        },
        "gasFlame": [
            {
                "children": [
                    {
                        "children": [
                            {
                                "children": [],
                                "depth": 0,
                                "name": "Initial Gas",
                                "value": 24664
                            },
                            {
                                "children": [
                                    {
                                        "children": [
                                            {
                                                "children": [
                                                    {
                                                        "children": [],
                                                        "depth": 3,
                                                        "name": "WETH",
                                                        "value": 275
                                                    },
                                                    {
                                                        "children": [
                                                            {
                                                                "children": [],
                                                                "depth": 4,
                                                                "name": "transferFrom",
                                                                "value": 19494
                                                            },
                                                            {
                                                                "children": [],
                                                                "depth": 4,
                                                                "name": "getReserves",
                                                                "value": 2504
                                                            },
                                                            {
                                                                "children": [],
                                                                "depth": 4,
                                                                "name": "balanceOf",
                                                                "value": 909
                                                            },
                                                            {
                                                                "children": [
                                                                    {
                                                                        "children": [],
                                                                        "depth": 5,
                                                                        "name": "transfer",
                                                                        "value": 29962
                                                                    },
                                                                    {
                                                                        "children": [],
                                                                        "depth": 5,
                                                                        "name": "balanceOf",
                                                                        "value": 534
                                                                    },
                                                                    {
                                                                        "children": [],
                                                                        "depth": 5,
                                                                        "name": "balanceOf",
                                                                        "value": 909
                                                                    }
                                                                ],
                                                                "depth": 4,
                                                                "name": "swap",
                                                                "value": 65228
                                                            },
                                                            {
                                                                "children": [],
                                                                "depth": 4,
                                                                "name": "balanceOf",
                                                                "value": 534
                                                            },
                                                            {
                                                                "children": [
                                                                    {
                                                                        "children": [],
                                                                        "depth": 5,
                                                                        "name": "fallback",
                                                                        "value": 83
                                                                    }
                                                                ],
                                                                "depth": 4,
                                                                "name": "withdraw",
                                                                "value": 9223
                                                            },
                                                            {
                                                                "children": [],
                                                                "depth": 4,
                                                                "name": "fallback",
                                                                "value": 55
                                                            }
                                                        ],
                                                        "depth": 3,
                                                        "name": "swapExactTokensForETHSupportingFeeOnTransferTokens",
                                                        "value": 114634
                                                    },
                                                    {
                                                        "children": [
                                                            {
                                                                "children": [],
                                                                "depth": 4,
                                                                "name": "getPair",
                                                                "value": 2564
                                                            },
                                                            {
                                                                "children": [],
                                                                "depth": 4,
                                                                "name": "getReserves",
                                                                "value": 504
                                                            },
                                                            {
                                                                "children": [],
                                                                "depth": 4,
                                                                "name": "transferFrom",
                                                                "value": 5894
                                                            },
                                                            {
                                                                "children": [],
                                                                "depth": 4,
                                                                "name": "deposit",
                                                                "value": 21974
                                                            },
                                                            {
                                                                "children": [],
                                                                "depth": 4,
                                                                "name": "transfer",
                                                                "value": 3262
                                                            },
                                                            {
                                                                "children": [
                                                                    {
                                                                        "children": [],
                                                                        "depth": 5,
                                                                        "name": "balanceOf",
                                                                        "value": 534
                                                                    },
                                                                    {
                                                                        "children": [],
                                                                        "depth": 5,
                                                                        "name": "balanceOf",
                                                                        "value": 909
                                                                    },
                                                                    {
                                                                        "children": [],
                                                                        "depth": 5,
                                                                        "name": "feeTo",
                                                                        "value": 2314
                                                                    }
                                                                ],
                                                                "depth": 4,
                                                                "name": "mint",
                                                                "value": 29842
                                                            },
                                                            {
                                                                "children": [],
                                                                "depth": 4,
                                                                "name": "fallback",
                                                                "value": 55
                                                            }
                                                        ],
                                                        "depth": 3,
                                                        "name": "addLiquidityETH",
                                                        "value": 86282
                                                    },
                                                    {
                                                        "children": [],
                                                        "depth": 3,
                                                        "name": "fallback",
                                                        "value": 0
                                                    },
                                                    {
                                                        "children": [],
                                                        "depth": 3,
                                                        "name": "fallback",
                                                        "value": 0
                                                    }
                                                ],
                                                "depth": 2,
                                                "name": "transferFrom",
                                                "value": 309775
                                            },
                                            {
                                                "children": [],
                                                "depth": 2,
                                                "name": "balanceOf",
                                                "value": 2534
                                            },
                                            {
                                                "children": [],
                                                "depth": 2,
                                                "name": "getReserves",
                                                "value": 504
                                            },
                                            {
                                                "children": [],
                                                "depth": 2,
                                                "name": "balanceOf",
                                                "value": 909
                                            },
                                            {
                                                "children": [
                                                    {
                                                        "children": [],
                                                        "depth": 3,
                                                        "name": "transfer",
                                                        "value": 23162
                                                    },
                                                    {
                                                        "children": [],
                                                        "depth": 3,
                                                        "name": "balanceOf",
                                                        "value": 534
                                                    },
                                                    {
                                                        "children": [],
                                                        "depth": 3,
                                                        "name": "balanceOf",
                                                        "value": 909
                                                    }
                                                ],
                                                "depth": 2,
                                                "name": "swap",
                                                "value": 36712
                                            },
                                            {
                                                "children": [],
                                                "depth": 2,
                                                "name": "balanceOf",
                                                "value": 534
                                            }
                                        ],
                                        "depth": 1,
                                        "name": "swapExactTokensForTokens",
                                        "value": 362509
                                    },
                                    {
                                        "children": [
                                            {
                                                "children": [],
                                                "depth": 2,
                                                "name": "balanceOf",
                                                "value": 534
                                            },
                                            {
                                                "children": [
                                                    {
                                                        "children": [],
                                                        "depth": 3,
                                                        "name": "fallback",
                                                        "value": 83
                                                    }
                                                ],
                                                "depth": 2,
                                                "name": "withdraw",
                                                "value": 9223
                                            },
                                            {
                                                "children": [],
                                                "depth": 2,
                                                "name": "fallback",
                                                "value": 0
                                            }
                                        ],
                                        "depth": 1,
                                        "name": "unwrapWETH9",
                                        "value": 18174
                                    }
                                ],
                                "depth": 0,
                                "name": "Executed Gas",
                                "value": 383842
                            }
                        ],
                        "depth": -1,
                        "name": "Actual Gas Used",
                        "value": 332806
                    },
                    {
                        "children": [],
                        "depth": -1,
                        "name": "Refunded Gas",
                        "value": 75700
                    }
                ],
                "depth": -2,
                "name": "Total Gas",
                "value": 408506
            }
        ],
        "isConfirmed": true,
        "mainTrace": [
            {
                "children": [
                    {
                        "children": [
                            {
                                "children": [
                                    {
                                        "children": [
                                            {
                                                "children": [],
                                                "depth": 3,
                                                "id": 3,
                                                "order": 3
                                            },
                                            {
                                                "children": [
                                                    {
                                                        "children": [
                                                            {
                                                                "children": [],
                                                                "depth": 5,
                                                                "id": 6,
                                                                "order": 6
                                                            }
                                                        ],
                                                        "depth": 4,
                                                        "id": 5,
                                                        "order": 5
                                                    },
                                                    {
                                                        "children": [],
                                                        "depth": 4,
                                                        "id": 7,
                                                        "order": 7
                                                    },
                                                    {
                                                        "children": [],
                                                        "depth": 4,
                                                        "id": 8,
                                                        "order": 8
                                                    },
                                                    {
                                                        "children": [
                                                            {
                                                                "children": [
                                                                    {
                                                                        "children": [],
                                                                        "depth": 6,
                                                                        "id": 11,
                                                                        "order": 11
                                                                    }
                                                                ],
                                                                "depth": 5,
                                                                "id": 10,
                                                                "order": 10
                                                            },
                                                            {
                                                                "children": [],
                                                                "depth": 5,
                                                                "id": 12,
                                                                "order": 12
                                                            },
                                                            {
                                                                "children": [],
                                                                "depth": 5,
                                                                "id": 13,
                                                                "order": 13
                                                            },
                                                            {
                                                                "children": [],
                                                                "depth": 5,
                                                                "id": 14,
                                                                "order": 14
                                                            },
                                                            {
                                                                "children": [],
                                                                "depth": 5,
                                                                "id": 15,
                                                                "order": 15
                                                            }
                                                        ],
                                                        "depth": 4,
                                                        "id": 9,
                                                        "order": 9
                                                    },
                                                    {
                                                        "children": [],
                                                        "depth": 4,
                                                        "id": 16,
                                                        "order": 16
                                                    },
                                                    {
                                                        "children": [
                                                            {
                                                                "children": [],
                                                                "depth": 5,
                                                                "id": 18,
                                                                "order": 18
                                                            },
                                                            {
                                                                "children": [],
                                                                "depth": 5,
                                                                "id": 19,
                                                                "order": 19
                                                            }
                                                        ],
                                                        "depth": 4,
                                                        "id": 17,
                                                        "order": 17
                                                    },
                                                    {
                                                        "children": [],
                                                        "depth": 4,
                                                        "id": 20,
                                                        "order": 20
                                                    }
                                                ],
                                                "depth": 3,
                                                "id": 4,
                                                "order": 4
                                            },
                                            {
                                                "children": [
                                                    {
                                                        "children": [],
                                                        "depth": 4,
                                                        "id": 22,
                                                        "order": 22
                                                    },
                                                    {
                                                        "children": [],
                                                        "depth": 4,
                                                        "id": 23,
                                                        "order": 23
                                                    },
                                                    {
                                                        "children": [
                                                            {
                                                                "children": [],
                                                                "depth": 5,
                                                                "id": 25,
                                                                "order": 25
                                                            }
                                                        ],
                                                        "depth": 4,
                                                        "id": 24,
                                                        "order": 24
                                                    },
                                                    {
                                                        "children": [
                                                            {
                                                                "children": [],
                                                                "depth": 5,
                                                                "id": 27,
                                                                "order": 27
                                                            }
                                                        ],
                                                        "depth": 4,
                                                        "id": 26,
                                                        "order": 26
                                                    },
                                                    {
                                                        "children": [
                                                            {
                                                                "children": [],
                                                                "depth": 5,
                                                                "id": 29,
                                                                "order": 29
                                                            }
                                                        ],
                                                        "depth": 4,
                                                        "id": 28,
                                                        "order": 28
                                                    },
                                                    {
                                                        "children": [
                                                            {
                                                                "children": [],
                                                                "depth": 5,
                                                                "id": 31,
                                                                "order": 31
                                                            },
                                                            {
                                                                "children": [],
                                                                "depth": 5,
                                                                "id": 32,
                                                                "order": 32
                                                            },
                                                            {
                                                                "children": [],
                                                                "depth": 5,
                                                                "id": 33,
                                                                "order": 33
                                                            },
                                                            {
                                                                "children": [],
                                                                "depth": 5,
                                                                "id": 34,
                                                                "order": 34
                                                            },
                                                            {
                                                                "children": [],
                                                                "depth": 5,
                                                                "id": 35,
                                                                "order": 35
                                                            },
                                                            {
                                                                "children": [],
                                                                "depth": 5,
                                                                "id": 36,
                                                                "order": 36
                                                            }
                                                        ],
                                                        "depth": 4,
                                                        "id": 30,
                                                        "order": 30
                                                    },
                                                    {
                                                        "children": [],
                                                        "depth": 4,
                                                        "id": 37,
                                                        "order": 37
                                                    }
                                                ],
                                                "depth": 3,
                                                "id": 21,
                                                "order": 21
                                            },
                                            {
                                                "children": [],
                                                "depth": 3,
                                                "id": 38,
                                                "order": 38
                                            },
                                            {
                                                "children": [],
                                                "depth": 3,
                                                "id": 39,
                                                "order": 39
                                            },
                                            {
                                                "children": [],
                                                "depth": 3,
                                                "id": 40,
                                                "order": 40
                                            },
                                            {
                                                "children": [],
                                                "depth": 3,
                                                "id": 41,
                                                "order": 41
                                            }
                                        ],
                                        "depth": 2,
                                        "id": 2,
                                        "order": 2
                                    },
                                    {
                                        "children": [],
                                        "depth": 2,
                                        "id": 42,
                                        "order": 42
                                    },
                                    {
                                        "children": [],
                                        "depth": 2,
                                        "id": 43,
                                        "order": 43
                                    },
                                    {
                                        "children": [],
                                        "depth": 2,
                                        "id": 44,
                                        "order": 44
                                    },
                                    {
                                        "children": [
                                            {
                                                "children": [
                                                    {
                                                        "children": [],
                                                        "depth": 4,
                                                        "id": 47,
                                                        "order": 47
                                                    }
                                                ],
                                                "depth": 3,
                                                "id": 46,
                                                "order": 46
                                            },
                                            {
                                                "children": [],
                                                "depth": 3,
                                                "id": 48,
                                                "order": 48
                                            },
                                            {
                                                "children": [],
                                                "depth": 3,
                                                "id": 49,
                                                "order": 49
                                            },
                                            {
                                                "children": [],
                                                "depth": 3,
                                                "id": 50,
                                                "order": 50
                                            },
                                            {
                                                "children": [],
                                                "depth": 3,
                                                "id": 51,
                                                "order": 51
                                            }
                                        ],
                                        "depth": 2,
                                        "id": 45,
                                        "order": 45
                                    },
                                    {
                                        "children": [],
                                        "depth": 2,
                                        "id": 52,
                                        "order": 52
                                    }
                                ],
                                "depth": 1,
                                "id": 1,
                                "order": 1
                            },
                            {
                                "children": [
                                    {
                                        "children": [],
                                        "depth": 2,
                                        "id": 54,
                                        "order": 54
                                    },
                                    {
                                        "children": [
                                            {
                                                "children": [],
                                                "depth": 3,
                                                "id": 56,
                                                "order": 56
                                            },
                                            {
                                                "children": [],
                                                "depth": 3,
                                                "id": 57,
                                                "order": 57
                                            }
                                        ],
                                        "depth": 2,
                                        "id": 55,
                                        "order": 55
                                    },
                                    {
                                        "children": [],
                                        "depth": 2,
                                        "id": 58,
                                        "order": 58
                                    }
                                ],
                                "depth": 1,
                                "id": 53,
                                "order": 53
                            }
                        ],
                        "depth": 0,
                        "id": 0,
                        "order": 0
                    }
                ],
                "depth": -1,
                "id": -1,
                "order": -1
            }
        ],
        "mainTraceNodeCount": 59,
        "parentIdMap": {
            "0": -1,
            "1": 0,
            "10": 9,
            "11": 10,
            "12": 9,
            "13": 9,
            "14": 9,
            "15": 9,
            "16": 4,
            "17": 4,
            "18": 17,
            "19": 17,
            "2": 1,
            "20": 4,
            "21": 2,
            "22": 21,
            "23": 21,
            "24": 21,
            "25": 24,
            "26": 21,
            "27": 26,
            "28": 21,
            "29": 28,
            "3": 2,
            "30": 21,
            "31": 30,
            "32": 30,
            "33": 30,
            "34": 30,
            "35": 30,
            "36": 30,
            "37": 21,
            "38": 2,
            "39": 2,
            "4": 2,
            "40": 2,
            "41": 2,
            "42": 1,
            "43": 1,
            "44": 1,
            "45": 1,
            "46": 45,
            "47": 46,
            "48": 45,
            "49": 45,
            "5": 4,
            "50": 45,
            "51": 45,
            "52": 1,
            "53": 0,
            "54": 53,
            "55": 53,
            "56": 55,
            "57": 55,
            "58": 53,
            "6": 5,
            "7": 4,
            "8": 4,
            "9": 4
        },
        "tidyTrace": [
            {
                "children": [
                    {
                        "children": [
                            {
                                "children": [
                                    {
                                        "children": [
                                            {
                                                "children": [
                                                    {
                                                        "children": [
                                                            {
                                                                "children": [],
                                                                "depth": 5,
                                                                "id": 6,
                                                                "order": 6
                                                            }
                                                        ],
                                                        "depth": 4,
                                                        "id": 5,
                                                        "order": 5
                                                    },
                                                    {
                                                        "children": [
                                                            {
                                                                "children": [
                                                                    {
                                                                        "children": [],
                                                                        "depth": 6,
                                                                        "id": 11,
                                                                        "order": 11
                                                                    }
                                                                ],
                                                                "depth": 5,
                                                                "id": 10,
                                                                "order": 10
                                                            },
                                                            {
                                                                "children": [],
                                                                "depth": 5,
                                                                "id": 14,
                                                                "order": 14
                                                            },
                                                            {
                                                                "children": [],
                                                                "depth": 5,
                                                                "id": 15,
                                                                "order": 15
                                                            }
                                                        ],
                                                        "depth": 4,
                                                        "id": 9,
                                                        "order": 9
                                                    },
                                                    {
                                                        "children": [
                                                            {
                                                                "children": [],
                                                                "depth": 5,
                                                                "id": 18,
                                                                "order": 18
                                                            },
                                                            {
                                                                "children": [],
                                                                "depth": 5,
                                                                "id": 19,
                                                                "order": 19
                                                            }
                                                        ],
                                                        "depth": 4,
                                                        "id": 17,
                                                        "order": 17
                                                    },
                                                    {
                                                        "children": [],
                                                        "depth": 4,
                                                        "id": 20,
                                                        "order": 20
                                                    }
                                                ],
                                                "depth": 3,
                                                "id": 4,
                                                "order": 4
                                            },
                                            {
                                                "children": [
                                                    {
                                                        "children": [
                                                            {
                                                                "children": [],
                                                                "depth": 5,
                                                                "id": 25,
                                                                "order": 25
                                                            }
                                                        ],
                                                        "depth": 4,
                                                        "id": 24,
                                                        "order": 24
                                                    },
                                                    {
                                                        "children": [
                                                            {
                                                                "children": [],
                                                                "depth": 5,
                                                                "id": 27,
                                                                "order": 27
                                                            }
                                                        ],
                                                        "depth": 4,
                                                        "id": 26,
                                                        "order": 26
                                                    },
                                                    {
                                                        "children": [
                                                            {
                                                                "children": [],
                                                                "depth": 5,
                                                                "id": 29,
                                                                "order": 29
                                                            }
                                                        ],
                                                        "depth": 4,
                                                        "id": 28,
                                                        "order": 28
                                                    },
                                                    {
                                                        "children": [
                                                            {
                                                                "children": [],
                                                                "depth": 5,
                                                                "id": 34,
                                                                "order": 34
                                                            },
                                                            {
                                                                "children": [],
                                                                "depth": 5,
                                                                "id": 35,
                                                                "order": 35
                                                            },
                                                            {
                                                                "children": [],
                                                                "depth": 5,
                                                                "id": 36,
                                                                "order": 36
                                                            }
                                                        ],
                                                        "depth": 4,
                                                        "id": 30,
                                                        "order": 30
                                                    },
                                                    {
                                                        "children": [],
                                                        "depth": 4,
                                                        "id": 37,
                                                        "order": 37
                                                    }
                                                ],
                                                "depth": 3,
                                                "id": 21,
                                                "order": 21
                                            },
                                            {
                                                "children": [],
                                                "depth": 3,
                                                "id": 38,
                                                "order": 38
                                            },
                                            {
                                                "children": [],
                                                "depth": 3,
                                                "id": 39,
                                                "order": 39
                                            },
                                            {
                                                "children": [],
                                                "depth": 3,
                                                "id": 40,
                                                "order": 40
                                            },
                                            {
                                                "children": [],
                                                "depth": 3,
                                                "id": 41,
                                                "order": 41
                                            }
                                        ],
                                        "depth": 2,
                                        "id": 2,
                                        "order": 2
                                    },
                                    {
                                        "children": [
                                            {
                                                "children": [
                                                    {
                                                        "children": [],
                                                        "depth": 4,
                                                        "id": 47,
                                                        "order": 47
                                                    }
                                                ],
                                                "depth": 3,
                                                "id": 46,
                                                "order": 46
                                            },
                                            {
                                                "children": [],
                                                "depth": 3,
                                                "id": 50,
                                                "order": 50
                                            },
                                            {
                                                "children": [],
                                                "depth": 3,
                                                "id": 51,
                                                "order": 51
                                            }
                                        ],
                                        "depth": 2,
                                        "id": 45,
                                        "order": 45
                                    }
                                ],
                                "depth": 1,
                                "id": 1,
                                "order": 1
                            },
                            {
                                "children": [
                                    {
                                        "children": [
                                            {
                                                "children": [],
                                                "depth": 3,
                                                "id": 56,
                                                "order": 56
                                            },
                                            {
                                                "children": [],
                                                "depth": 3,
                                                "id": 57,
                                                "order": 57
                                            }
                                        ],
                                        "depth": 2,
                                        "id": 55,
                                        "order": 55
                                    },
                                    {
                                        "children": [],
                                        "depth": 2,
                                        "id": 58,
                                        "order": 58
                                    }
                                ],
                                "depth": 1,
                                "id": 53,
                                "order": 53
                            }
                        ],
                        "depth": 0,
                        "id": 0,
                        "order": 0
                    }
                ],
                "depth": -1,
                "id": -1,
                "order": -1
            }
        ],
        "tidyTraceNodeCount": 41
    },
    "state_change": {
        "stateChanges": [
            {
                "address": "0xbf03e30905ce1e3ab8c1352fa3b4502b280ef177",
                "erc": "ERC-20",
                "slots": [
                    {
                        "current": "0x00000000000000000000000000540898f1278580199ec6c9bbd674ac117d7528",
                        "key": "0x0000000000000000000000000000000000000000000000000000000000000009",
                        "prev": "0x000000000000000000000000005357651cfc28d2179d5e69c113ae2119ae23e4"
                    },
                    {
                        "current": "0x000000000000000000000000000000000000005767834008d7791095d8dd1090",
                        "key": "0x000000000000000000000000000000000000000000000000000000000000000a",
                        "prev": "0x0000000000000000000000000000000000000053f28f0efbaa1e9d59937bbc88"
                    },
                    {
                        "current": "0x6332445b0000001194e2ae17bc25fa232e5c00000000000023c4cff754319d68",
                        "key": "0x0000000000000000000000000000000000000000000000000000000000000008",
                        "prev": "0x633242cf00000010c3d089f33519806beafc00000000000025770e3214214bd0"
                    },
                    {
                        "current": "0x00000000000000000000000000000000000000000000018a9ee07a227f3a5b68",
                        "key": "0x0000000000000000000000000000000000000000000000000000000000000000",
                        "prev": "0x00000000000000000000000000000000000000000000018a67b06ffaab9535e6"
                    },
                    {
                        "current": "0x00000000000000000000000000000000000000000000000b4c19235db2e8fb80",
                        "key": "0xe440bdf7cac3cfebbe072993d7665091f206ed5b04b7e8954115acdc7118c3a2",
                        "prev": "0x00000000000000000000000000000000000000000000000b14e91935df43d5fe"
                    }
                ],
                "storageVariables": [
                    {
                        "name": "balanceOf",
                        "type": "mapping(address => uint256)",
                        "value": {
                            "pairs": [
                                {
                                    "key": "0x50d87140e8a04051591e62ff0135704d56d820cc",
                                    "value": {
                                        "current": "208397637717445901184",
                                        "prev": "204420948080306935294",
                                        "typeTag": 1
                                    }
                                }
                            ],
                            "typeTag": 4
                        }
                    },
                    {
                        "name": "price0CumulativeLast",
                        "type": "uint256",
                        "value": {
                            "current": "1874011538432952679767365179297639244597392680",
                            "prev": "1858575027400834508925628195586626230602834916",
                            "typeTag": 1
                        }
                    },
                    {
                        "name": "price1CumulativeLast",
                        "type": "uint256",
                        "value": {
                            "current": "6924885766429520744811943760016",
                            "prev": "6651005808208432349787459402888",
                            "typeTag": 1
                        }
                    },
                    {
                        "name": "reserve0",
                        "type": "uint112",
                        "value": {
                            "current": "2577413547939175784",
                            "prev": "2699642109880781776",
                            "typeTag": 1
                        }
                    },
                    {
                        "name": "reserve1",
                        "type": "uint112",
                        "value": {
                            "current": "21254830681776220180524636",
                            "prev": "20267521441108165380532988",
                            "typeTag": 1
                        }
                    },
                    {
                        "name": "blockTimestampLast",
                        "type": "uint32",
                        "value": {
                            "current": "1664238683",
                            "prev": "1664238287",
                            "typeTag": 1
                        }
                    },
                    {
                        "name": "totalSupply",
                        "type": "uint256",
                        "value": {
                            "current": "7279465449582921145192",
                            "prev": "7275488759945782179302",
                            "typeTag": 1
                        }
                    }
                ]
            },
            {
                "address": "0xc02aaa39b223fe8d0a0e5c4f27ead9083c756cc2",
                "erc": "ERC-20",
                "slots": [
                    {
                        "current": "0x00000000000000000000000000000000000000000000000023c4cff754319d68",
                        "key": "0xa7bf1d4dc2345e184c3f5b02e9868d54be5bf3a57bb4f01cb3531595b734d198",
                        "prev": "0x00000000000000000000000000000000000000000000000025770e3214214bd0"
                    }
                ],
                "storageVariables": [
                    {
                        "name": "balanceOf",
                        "type": "mapping(address => uint256)",
                        "value": {
                            "pairs": [
                                {
                                    "key": "0xbf03e30905ce1e3ab8c1352fa3b4502b280ef177",
                                    "value": {
                                        "current": "2577413547939175784",
                                        "prev": "2699642109880781776",
                                        "typeTag": 1
                                    }
                                }
                            ],
                            "typeTag": 4
                        }
                    }
                ]
            },
            {
                "address": "0xe1d11161a48d1630201f5fd292bf44f0174187fa",
                "erc": "ERC-20",
                "slots": [
                    {
                        "current": "0x0000000000000000000000000000000000000000000008c2b0242c54dea7fe10",
                        "key": "0x64f44fde7cf8c4847dc006892f9fd757de366d0a560c0f811003f08808a41257",
                        "prev": "0x000000000000000000000000000000000000000000002a9f11753cbff33f682f"
                    },
                    {
                        "current": "0x0000000000000000000000000000000000000000001194e2ae17bc25fa232e5c",
                        "key": "0x009a7d682eb83d676808b23252f57e3a398885987bfab451c6d97354543370f7",
                        "prev": "0x00000000000000000000000000000000000000000010c3d089f33519806beafc"
                    },
                    {
                        "current": "0x0000000000000000000000000000000000000000000008c2b0242c54dea7fe10",
                        "key": "0x0000000000000000000000000000000000000000000000000000000000000010",
                        "prev": "0x00000000000000000000000000000000000000000000069579c9e5dc7a5695f8"
                    },
                    {
                        "current": "0x0000000000000000000000000000000000000000000000000000000000000000",
                        "key": "0xabfe88cdc993bfd92023aea1015a8098fd45dfc5feabc4091b7e586a710d3a93",
                        "prev": "0x00000000000000000000000000000000000000000000af35c2d376a1651fd941"
                    }
                ],
                "storageVariables": [
                    {
                        "name": "_balances",
                        "type": "mapping(address => uint256)",
                        "value": {
                            "pairs": [
                                {
                                    "key": "0xbf03e30905ce1e3ab8c1352fa3b4502b280ef177",
                                    "value": {
                                        "current": "21254830681776220180524636",
                                        "prev": "20267521441108165380532988",
                                        "typeTag": 1
                                    }
                                },
                                {
                                    "key": "0xcfa7929d910b8d778e143766b4013de29bad01b8",
                                    "value": {
                                        "current": "0",
                                        "prev": "827405850632993520998721",
                                        "typeTag": 1
                                    }
                                },
                                {
                                    "key": "0xe1d11161a48d1630201f5fd292bf44f0174187fa",
                                    "value": {
                                        "current": "41370292531649676049936",
                                        "prev": "201273682566710955042863",
                                        "typeTag": 1
                                    }
                                }
                            ],
                            "typeTag": 4
                        }
                    },
                    {
                        "name": "tokenTax",
                        "type": "uint256",
                        "value": {
                            "current": "41370292531649676049936",
                            "prev": "31091539562284610655736",
                            "typeTag": 1
                        }
                    }
                ]
            }
        ]
    }
}