{
    "balance_change": {
        "balanceChanges": [
            {
                "account": "0xf056867bebeab7c8cbd45e1ad815bb53a1f1fcdd",
                "assets": [
                    {
                        "address": "0xeeeeeeeeeeeeeeeeeeeeeeeeeeeeeeeeeeeeeeee",
                        "amount": "0.375",
                        "iconUrl": "https://assets.blocksec.com/image/1663669189317-3.png",
                        "isERC1155": false,
                        "isERC721": false,
                        "sign": false,
                        "value": "1322.6813666249999528"
                    }
                ]
            },
            {
                "account": "0x3ee18b2214aff97000d974cf647e7c347e8fa585",
                "assets": [
                    {
                        "address": "0xc02aaa39b223fe8d0a0e5c4f27ead9083c756cc2",
                        "amount": "0.375",
                        "iconUrl": "https://assets.blocksec.com/icon/f1cb2d02c471d545bbc7722daf3277fd852d98e63d118771af7047bd8256c516.png",
                        "isERC1155": false,
                        "isERC721": false,
                        "sign": true,
                        "value": "1322.6813666249999528"
                    }
                ]
            },
            {
                "account": "0xc02aaa39b223fe8d0a0e5c4f27ead9083c756cc2",
                "assets": [
                    {
                        "address": "0xeeeeeeeeeeeeeeeeeeeeeeeeeeeeeeeeeeeeeeee",
                        "amount": "0.375",
                        "iconUrl": "https://assets.blocksec.com/image/1663669189317-3.png",
                        "isERC1155": false,
                        "isERC721": false,
                        "sign": true,
                        "value": "1322.6813666249999528"
                    },
                    {
                        "address": "0xc02aaa39b223fe8d0a0e5c4f27ead9083c756cc2",
                        "amount": "0.375",
                        "iconUrl": "https://assets.blocksec.com/icon/f1cb2d02c471d545bbc7722daf3277fd852d98e63d118771af7047bd8256c516.png",
                        "isERC1155": false,
                        "isERC721": false,
                        "sign": false,
                        "value": "1322.6813666249999528"
                    }
                ]
            }
        ]
    },
    "profile": {
        "basic_info": {
            "baseFee": "22.714779582",
            "blockNumber": 14643549,
            "callData": "0x9981509f0000000000000000000000000000000000000000000000000000000000000001973e2702482d70153428d1c82eae80c5b8b0a3b9bd07e0aa4023c0ded9b37eb4000000000000000000000000000000000000000000000000000000000000000000000000000000000000000000000000000000000000000000000000c4950000",
            "debugEnable": true,
            "errorInfo": "",
            "eventCount": 2,
            "feeRecipient": "0x2daa35962a6d43eb54c48367b33d0b379c930e5e",
            "formatValue": "0.375",
            "gasLimit": 82659,
            "gasPrice": "24.214779582",
            "gasUsed": 81829,
            "intTxnCount": 6,
            "internalRevert": false,
            "internalRevertMessage": "",
            "isContractCreation": false,
            "isFlashloan": false,
            "maxFee": "26.89030618",
            "nonce": 3,
            "overwritedBlockNumber": -1,
            "priorityFee": "1.5",
            "receiver": "0x3ee18b2214aff97000d974cf647e7c347e8fa585",
            "revertMessage": "",
            "sender": "0xf056867bebeab7c8cbd45e1ad815bb53a1f1fcdd",
            "simulationEnable": true,
            "sourceTxnHash": "0x71493bee2da5e25bf7aa983e1c19470f08b6fc0b8e41545740e6ec8539f584a3",
            "status": true,
            "timestamp": "2022-04-23T21:40:36Z",
            "transactionFee": "0.001981471198415478",
            "txnHash": "0x71493bee2da5e25bf7aa983e1c19470f08b6fc0b8e41545740e6ec8539f584a3",
            "txnIndex": 226,
            "type": 2,
            "value": "375000000000000000"
        },
        "fund_flow": [
            {
                "amount": "0.375",
                "from": "0xf056867bebeab7c8cbd45e1ad815bb53a1f1fcdd",
                "id": 1,
                "isERC1155": false,
                "isERC721": false,
                "isReverted": false,
                "order": 1,
                "to": "0x3ee18b2214aff97000d974cf647e7c347e8fa585",
                "token": "0xeeeeeeeeeeeeeeeeeeeeeeeeeeeeeeeeeeeeeeee"
            },
            {
                "amount": "0.375",
                "from": "0x3ee18b2214aff97000d974cf647e7c347e8fa585",
                "id": 2,
                "isERC1155": false,
                "isERC721": false,
                "isReverted": false,
                "order": 2,
                "to": "0xc02aaa39b223fe8d0a0e5c4f27ead9083c756cc2",
                "token": "0xeeeeeeeeeeeeeeeeeeeeeeeeeeeeeeeeeeeeeeee"
            },
            {
                "amount": "0.375",
                "from": "0xc02aaa39b223fe8d0a0e5c4f27ead9083c756cc2",
                "id": 3,
                "isERC1155": false,
                "isERC721": false,
                "isReverted": false,
                "order": 3,
                "to": "0x3ee18b2214aff97000d974cf647e7c347e8fa585",
                "token": "0xc02aaa39b223fe8d0a0e5c4f27ead9083c756cc2"
            }
        ],
        "token_infos": [
            {
                "address": "0xc02aaa39b223fe8d0a0e5c4f27ead9083c756cc2",
                "decimals": 18
            },
            {
                "address": "0xeeeeeeeeeeeeeeeeeeeeeeeeeeeeeeeeeeeeeeee",
                "decimals": 18
            }
        ]
    },
    "address_label": {
        "labels": [
            {
                "address": "0xc02aaa39b223fe8d0a0e5c4f27ead9083c756cc2",
                "label": "Wrapped Ether (WETH)"
            },
            {
                "address": "0x736d2a394f7810c17b3c6fed017d5bc7d60c077d",
                "label": "Implementation"
            },
            {
                "address": "0x91175aee6dac41b9c1f749ded077568ad93b84ca",
                "label": "BridgeImplementation"
            },
            {
                "address": "0x98f3c9e6e3face36baad05fe09d375ef1464288b",
                "label": "Wormhole: Ethereum Core Bridge"
            },
            {
                "address": "0x3ee18b2214aff97000d974cf647e7c347e8fa585",
                "label": "Wormhole: Portal Token Bridge"
            },
            {
                "address": "0x0000000000000000000000000000000000000001",
                "label": "Precompiled"
            },
            {
                "address": "0x0000000000000000000000000000000000000002",
                "label": "Precompiled"
            },
            {
                "address": "0xeeeeeeeeeeeeeeeeeeeeeeeeeeeeeeeeeeeeeeee",
                "label": "Ether"
            },
            {
                "address": "0x0000000000000000000000000000000000000004",
                "label": "Precompiled"
            },
            {
                "address": "0x0000000000000000000000000000000000000003",
                "label": "Precompiled"
            }
        ]
    },
    "trace": {
        "accountLabels": null,
        "dataMap": {
            "-1": {
                "invocation": {
                    "address": "0xf056867bebeab7c8cbd45e1ad815bb53a1f1fcdd",
                    "callData": "",
                    "decodedMethod": null,
                    "errorInfo": "",
                    "fromAddress": "",
                    "gasUsed": 0,
                    "id": -1,
                    "methodDecoded": false,
                    "operation": "",
                    "output": "",
                    "revert": false,
                    "revertMessage": "",
                    "selector": "",
                    "status": false,
                    "value": ""
                },
                "nodeType": 0
            },
            "0": {
                "invocation": {
                    "address": "0x3ee18b2214aff97000d974cf647e7c347e8fa585",
                    "callData": "0x0000000000000000000000000000000000000000000000000000000000000001973e2702482d70153428d1c82eae80c5b8b0a3b9bd07e0aa4023c0ded9b37eb4000000000000000000000000000000000000000000000000000000000000000000000000000000000000000000000000000000000000000000000000c4950000",
                    "decodedMethod": {
                        "callParams": [
                            {
                                "name": "recipientChain",
                                "type": "uint16",
                                "value": "1"
                            },
                            {
                                "name": "recipient",
                                "type": "bytes32",
                                "value": "0x973e2702482d70153428d1c82eae80c5b8b0a3b9bd07e0aa4023c0ded9b37eb4"
                            },
                            {
                                "name": "arbiterFee",
                                "type": "uint256",
                                "value": "0"
                            },
                            {
                                "name": "nonce",
                                "type": "uint32",
                                "value": "3,298,099,200"
                            }
                        ],
                        "constructorArguments": "",
                        "name": "wrapAndTransferETH",
                        "returnParams": [
                            {
                                "name": "sequence",
                                "type": "uint64",
                                "value": "42,496"
                            }
                        ],
                        "signature": "wrapAndTransferETH(uint16,bytes32,uint256,uint32)"
                    },
                    "errorInfo": "",
                    "fromAddress": "0xf056867bebeab7c8cbd45e1ad815bb53a1f1fcdd",
                    "gasUsed": 81829,
                    "id": 0,
                    "methodDecoded": true,
                    "operation": "CALL",
                    "output": "0x000000000000000000000000000000000000000000000000000000000000a600",
                    "revert": false,
                    "revertMessage": "",
                    "selector": "0x9981509f",
                    "status": true,
                    "value": "0.375"
                },
                "nodeType": 0
            },
            "1": {
                "invocation": {
                    "address": "0x91175aee6dac41b9c1f749ded077568ad93b84ca",
                    "callData": "0x0000000000000000000000000000000000000000000000000000000000000001973e2702482d70153428d1c82eae80c5b8b0a3b9bd07e0aa4023c0ded9b37eb4000000000000000000000000000000000000000000000000000000000000000000000000000000000000000000000000000000000000000000000000c4950000",
                    "decodedMethod": {
                        "callParams": [
                            {
                                "name": "recipientChain",
                                "type": "uint16",
                                "value": "1"
                            },
                            {
                                "name": "recipient",
                                "type": "bytes32",
                                "value": "0x973e2702482d70153428d1c82eae80c5b8b0a3b9bd07e0aa4023c0ded9b37eb4"
                            },
                            {
                                "name": "arbiterFee",
                                "type": "uint256",
                                "value": "0"
                            },
                            {
                                "name": "nonce",
                                "type": "uint32",
                                "value": "3,298,099,200"
                            }
                        ],
                        "constructorArguments": "",
                        "name": "wrapAndTransferETH",
                        "returnParams": [
                            {
                                "name": "sequence",
                                "type": "uint64",
                                "value": "42,496"
                            }
                        ],
                        "signature": "wrapAndTransferETH(uint16,bytes32,uint256,uint32)"
                    },
                    "errorInfo": "",
                    "fromAddress": "0x3ee18b2214aff97000d974cf647e7c347e8fa585",
                    "gasUsed": 54920,
                    "id": 1,
                    "methodDecoded": true,
                    "operation": "DELEGATECALL",
                    "output": "0x000000000000000000000000000000000000000000000000000000000000a600",
                    "revert": false,
                    "revertMessage": "",
                    "selector": "0x9981509f",
                    "status": true,
                    "value": "0.375"
                },
                "nodeType": 0
            },
            "2": {
                "invocation": {
                    "address": "0x98f3c9e6e3face36baad05fe09d375ef1464288b",
                    "callData": "0x",
                    "decodedMethod": {
                        "callParams": [],
                        "constructorArguments": "",
                        "name": "messageFee",
                        "returnParams": [
                            {
                                "name": "",
                                "type": "uint256",
                                "value": "0"
                            }
                        ],
                        "signature": "messageFee()"
                    },
                    "errorInfo": "",
                    "fromAddress": "0x3ee18b2214aff97000d974cf647e7c347e8fa585",
                    "gasUsed": 7244,
                    "id": 2,
                    "methodDecoded": true,
                    "operation": "STATICCALL",
                    "output": "0x0000000000000000000000000000000000000000000000000000000000000000",
                    "revert": false,
                    "revertMessage": "",
                    "selector": "0x1a90a219",
                    "status": true,
                    "value": "0"
                },
                "nodeType": 0
            },
            "3": {
                "invocation": {
                    "address": "0x736d2a394f7810c17b3c6fed017d5bc7d60c077d",
                    "callData": "0x",
                    "decodedMethod": {
                        "callParams": [],
                        "constructorArguments": "",
                        "name": "messageFee",
                        "returnParams": [
                            {
                                "name": "",
                                "type": "uint256",
                                "value": "0"
                            }
                        ],
                        "signature": "messageFee()"
                    },
                    "errorInfo": "",
                    "fromAddress": "0x98f3c9e6e3face36baad05fe09d375ef1464288b",
                    "gasUsed": 2349,
                    "id": 3,
                    "methodDecoded": true,
                    "operation": "DELEGATECALL",
                    "output": "0x0000000000000000000000000000000000000000000000000000000000000000",
                    "revert": false,
                    "revertMessage": "",
                    "selector": "0x1a90a219",
                    "status": true,
                    "value": "0"
                },
                "nodeType": 0
            },
            "4": {
                "invocation": {
                    "address": "0xc02aaa39b223fe8d0a0e5c4f27ead9083c756cc2",
                    "callData": "0x",
                    "decodedMethod": {
                        "callParams": [],
                        "constructorArguments": "",
                        "name": "deposit",
                        "returnParams": [],
                        "signature": "deposit()"
                    },
                    "errorInfo": "",
                    "fromAddress": "0x3ee18b2214aff97000d974cf647e7c347e8fa585",
                    "gasUsed": 6874,
                    "id": 4,
                    "methodDecoded": true,
                    "operation": "CALL",
                    "output": "",
                    "revert": false,
                    "revertMessage": "",
                    "selector": "0xd0e30db0",
                    "status": true,
                    "value": "0.375"
                },
                "nodeType": 0
            },
            "5": {
                "event": {
                    "contract": "0xc02aaa39b223fe8d0a0e5c4f27ead9083c756cc2",
                    "decodedLog": {
                        "name": "Deposit",
                        "params": [
                            {
                                "name": "dst",
                                "type": "address",
                                "value": "0x3ee18b2214aff97000d974cf647e7c347e8fa585"
                            },
                            {
                                "name": "wad",
                                "type": "uint256",
                                "value": "375,000,000,000,000,000"
                            }
                        ],
                        "signature": "Deposit(address,uint256)"
                    },
                    "id": 5,
                    "logData": "0x000000000000000000000000000000000000000000000000053444835ec58000",
                    "logDecoded": true,
                    "operation": "EVENT",
                    "revert": false,
                    "status": true,
                    "topics": [
                        "0xe1fffcc4923d04b559f4d29a8bfc6cda04eb5b0d3c460751c2402c5c5cc9109c",
                        "0x0000000000000000000000003ee18b2214aff97000d974cf647e7c347e8fa585"
                    ]
                },
                "nodeType": 1
            },
            "6": {
                "invocation": {
                    "address": "0x98f3c9e6e3face36baad05fe09d375ef1464288b",
                    "callData": "0x00000000000000000000000000000000000000000000000000000000c49500000000000000000000000000000000000000000000000000000000000000000060000000000000000000000000000000000000000000000000000000000000000f00000000000000000000000000000000000000000000000000000000000000850100000000000000000000000000000000000000000000000000000000023c3460000000000000000000000000c02aaa39b223fe8d0a0e5c4f27ead9083c756cc20002973e2702482d70153428d1c82eae80c5b8b0a3b9bd07e0aa4023c0ded9b37eb400010000000000000000000000000000000000000000000000000000000000000000000000000000000000000000000000000000000000000000000000",
                    "decodedMethod": {
                        "callParams": [
                            {
                                "name": "nonce",
                                "type": "uint32",
                                "value": "3,298,099,200"
                            },
                            {
                                "name": "payload",
                                "type": "bytes",
                                "value": "0x0100000000000000000000000000000000000000000000000000000000023c3460000000000000000000000000c02aaa39b223fe8d0a0e5c4f27ead9083c756cc20002973e2702482d70153428d1c82eae80c5b8b0a3b9bd07e0aa4023c0ded9b37eb400010000000000000000000000000000000000000000000000000000000000000000"
                            },
                            {
                                "name": "consistencyLevel",
                                "type": "uint8",
                                "value": "15"
                            }
                        ],
                        "constructorArguments": "",
                        "name": "publishMessage",
                        "returnParams": [
                            {
                                "name": "sequence",
                                "type": "uint64",
                                "value": "42,496"
                            }
                        ],
                        "signature": "publishMessage(uint32,bytes,uint8)"
                    },
                    "errorInfo": "",
                    "fromAddress": "0x3ee18b2214aff97000d974cf647e7c347e8fa585",
                    "gasUsed": 11596,
                    "id": 6,
                    "methodDecoded": true,
                    "operation": "CALL",
                    "output": "0x000000000000000000000000000000000000000000000000000000000000a600",
                    "revert": false,
                    "revertMessage": "",
                    "selector": "0xb19a437e",
                    "status": true,
                    "value": "0"
                },
                "nodeType": 0
            },
            "7": {
                "invocation": {
                    "address": "0x736d2a394f7810c17b3c6fed017d5bc7d60c077d",
                    "callData": "0x00000000000000000000000000000000000000000000000000000000c49500000000000000000000000000000000000000000000000000000000000000000060000000000000000000000000000000000000000000000000000000000000000f00000000000000000000000000000000000000000000000000000000000000850100000000000000000000000000000000000000000000000000000000023c3460000000000000000000000000c02aaa39b223fe8d0a0e5c4f27ead9083c756cc20002973e2702482d70153428d1c82eae80c5b8b0a3b9bd07e0aa4023c0ded9b37eb400010000000000000000000000000000000000000000000000000000000000000000000000000000000000000000000000000000000000000000000000",
                    "decodedMethod": {
                        "callParams": [
                            {
                                "name": "nonce",
                                "type": "uint32",
                                "value": "3,298,099,200"
                            },
                            {
                                "name": "payload",
                                "type": "bytes",
                                "value": "0x0100000000000000000000000000000000000000000000000000000000023c3460000000000000000000000000c02aaa39b223fe8d0a0e5c4f27ead9083c756cc20002973e2702482d70153428d1c82eae80c5b8b0a3b9bd07e0aa4023c0ded9b37eb400010000000000000000000000000000000000000000000000000000000000000000"
                            },
                            {
                                "name": "consistencyLevel",
                                "type": "uint8",
                                "value": "15"
                            }
                        ],
                        "constructorArguments": "",
                        "name": "publishMessage",
                        "returnParams": [
                            {
                                "name": "sequence",
                                "type": "uint64",
                                "value": "42,496"
                            }
                        ],
                        "signature": "publishMessage(uint32,bytes,uint8)"
                    },
                    "errorInfo": "",
                    "fromAddress": "0x98f3c9e6e3face36baad05fe09d375ef1464288b",
                    "gasUsed": 11153,
                    "id": 7,
                    "methodDecoded": true,
                    "operation": "DELEGATECALL",
                    "output": "0x000000000000000000000000000000000000000000000000000000000000a600",
                    "revert": false,
                    "revertMessage": "",
                    "selector": "0xb19a437e",
                    "status": true,
                    "value": "0"
                },
                "nodeType": 0
            },
            "8": {
                "event": {
                    "contract": "0x98f3c9e6e3face36baad05fe09d375ef1464288b",
                    "decodedLog": {
                        "name": "LogMessagePublished",
                        "params": [
                            {
                                "name": "sender",
                                "type": "address",
                                "value": "0x3ee18b2214aff97000d974cf647e7c347e8fa585"
                            },
                            {
                                "name": "sequence",
                                "type": "uint64",
                                "value": "42,496"
                            },
                            {
                                "name": "nonce",
                                "type": "uint32",
                                "value": "3,298,099,200"
                            },
                            {
                                "name": "payload",
                                "type": "bytes",
                                "value": "0x0100000000000000000000000000000000000000000000000000000000023c3460000000000000000000000000c02aaa39b223fe8d0a0e5c4f27ead9083c756cc20002973e2702482d70153428d1c82eae80c5b8b0a3b9bd07e0aa4023c0ded9b37eb400010000000000000000000000000000000000000000000000000000000000000000"
                            },
                            {
                                "name": "consistencyLevel",
                                "type": "uint8",
                                "value": "15"
                            }
                        ],
                        "signature": "LogMessagePublished(address,uint64,uint32,bytes,uint8)"
                    },
                    "id": 8,
                    "logData": "0x000000000000000000000000000000000000000000000000000000000000a60000000000000000000000000000000000000000000000000000000000c49500000000000000000000000000000000000000000000000000000000000000000080000000000000000000000000000000000000000000000000000000000000000f00000000000000000000000000000000000000000000000000000000000000850100000000000000000000000000000000000000000000000000000000023c3460000000000000000000000000c02aaa39b223fe8d0a0e5c4f27ead9083c756cc20002973e2702482d70153428d1c82eae80c5b8b0a3b9bd07e0aa4023c0ded9b37eb400010000000000000000000000000000000000000000000000000000000000000000000000000000000000000000000000000000000000000000000000",
                    "logDecoded": true,
                    "operation": "EVENT",
                    "revert": false,
                    "status": true,
                    "topics": [
                        "0x6eb224fb001ed210e379b335e35efe88672a8ce935d981a6896b27ffdf52a3b2",
                        "0x0000000000000000000000003ee18b2214aff97000d974cf647e7c347e8fa585"
                    ]
                },
                "nodeType": 1
            }
        },
        "gasFlame": [
            {
                "children": [
                    {
                        "children": [
                            {
                                "children": [],
                                "depth": 0,
                                "name": "Initial Gas",
                                "value": 21996
                            },
                            {
                                "children": [
                                    {
                                        "children": [
                                            {
                                                "children": [
                                                    {
                                                        "children": [],
                                                        "depth": 3,
                                                        "name": "messageFee",
                                                        "value": 2349
                                                    }
                                                ],
                                                "depth": 2,
                                                "name": "messageFee",
                                                "value": 7244
                                            },
                                            {
                                                "children": [],
                                                "depth": 2,
                                                "name": "deposit",
                                                "value": 6874
                                            },
                                            {
                                                "children": [
                                                    {
                                                        "children": [],
                                                        "depth": 3,
                                                        "name": "publishMessage",
                                                        "value": 11153
                                                    }
                                                ],
                                                "depth": 2,
                                                "name": "publishMessage",
                                                "value": 11596
                                            }
                                        ],
                                        "depth": 1,
                                        "name": "wrapAndTransferETH",
                                        "value": 54920
                                    }
                                ],
                                "depth": 0,
                                "name": "Executed Gas",
                                "value": 59833
                            }
                        ],
                        "depth": -1,
                        "name": "Actual Gas Used",
                        "value": 81829
                    },
                    {
                        "children": [],
                        "depth": -1,
                        "name": "Refunded Gas",
                        "value": 0
                    }
                ],
                "depth": -2,
                "name": "Total Gas",
                "value": 81829
            }
        ],
        "isConfirmed": true,
        "mainTrace": [
            {
                "children": [
                    {
                        "children": [
                            {
                                "children": [
                                    {
                                        "children": [
                                            {
                                                "children": [],
                                                "depth": 3,
                                                "id": 3,
                                                "order": 3
                                            }
                                        ],
                                        "depth": 2,
                                        "id": 2,
                                        "order": 2
                                    },
                                    {
                                        "children": [
                                            {
                                                "children": [],
                                                "depth": 3,
                                                "id": 5,
                                                "order": 5
                                            }
                                        ],
                                        "depth": 2,
                                        "id": 4,
                                        "order": 4
                                    },
                                    {
                                        "children": [
                                            {
                                                "children": [
                                                    {
                                                        "children": [],
                                                        "depth": 4,
                                                        "id": 8,
                                                        "order": 8
                                                    }
                                                ],
                                                "depth": 3,
                                                "id": 7,
                                                "order": 7
                                            }
                                        ],
                                        "depth": 2,
                                        "id": 6,
                                        "order": 6
                                    }
                                ],
                                "depth": 1,
                                "id": 1,
                                "order": 1
                            }
                        ],
                        "depth": 0,
                        "id": 0,
                        "order": 0
                    }
                ],
                "depth": -1,
                "id": -1,
                "order": -1
            }
        ],
        "mainTraceNodeCount": 9,
        "parentIdMap": {
            "0": -1,
            "1": 0,
            "2": 1,
            "3": 2,
            "4": 1,
            "5": 4,
            "6": 1,
            "7": 6,
            "8": 7
        },
        "tidyTrace": [
            {
                "children": [
                    {
                        "children": [
                            {
                                "children": [
                                    {
                                        "children": [
                                            {
                                                "children": [],
                                                "depth": 3,
                                                "id": 5,
                                                "order": 5
                                            }
                                        ],
                                        "depth": 2,
                                        "id": 4,
                                        "order": 4
                                    },
                                    {
                                        "children": [
                                            {
                                                "children": [
                                                    {
                                                        "children": [],
                                                        "depth": 4,
                                                        "id": 8,
                                                        "order": 8
                                                    }
                                                ],
                                                "depth": 3,
                                                "id": 7,
                                                "order": 7
                                            }
                                        ],
                                        "depth": 2,
                                        "id": 6,
                                        "order": 6
                                    }
                                ],
                                "depth": 1,
                                "id": 1,
                                "order": 1
                            }
                        ],
                        "depth": 0,
                        "id": 0,
                        "order": 0
                    }
                ],
                "depth": -1,
                "id": -1,
                "order": -1
            }
        ],
        "tidyTraceNodeCount": 7
    },
    "state_change": {
        "stateChanges": [
            {
                "address": "0x3ee18b2214aff97000d974cf647e7c347e8fa585",
                "erc": "",
                "slots": [
                    {
                        "current": "0x0000000000000000000000000000000000000000000000000000099269b2483d",
                        "key": "0xd0bcf4df132c65dad73803c5e5e1c826f151a3342680034a8a4c8e5f8eb0c13c",
                        "prev": "0x00000000000000000000000000000000000000000000000000000992677613dd"
                    }
                ],
                "storageVariables": [
                    {
                        "name": "_state",
                        "type": "struct BridgeStorage.State",
                        "value": {
                            "fields": [
                                {
                                    "name": "outstandingBridged",
                                    "type": "mapping(address => uint256)",
                                    "value": {
                                        "pairs": [
                                            {
                                                "key": "0xc02aaa39b223fe8d0a0e5c4f27ead9083c756cc2",
                                                "value": {
                                                    "current": "10524443166781",
                                                    "prev": "10524405666781",
                                                    "typeTag": 1
                                                }
                                            }
                                        ],
                                        "typeTag": 4
                                    }
                                }
                            ],
                            "typeTag": 3
                        }
                    }
                ]
            },
            {
                "address": "0x98f3c9e6e3face36baad05fe09d375ef1464288b",
                "erc": "",
                "slots": [
                    {
                        "current": "0x000000000000000000000000000000000000000000000000000000000000a601",
                        "key": "0x9ccbe70f0ebf9580c8c443085390e3dfb5be5ce94c31506ca135827ebc1b9f32",
                        "prev": "0x000000000000000000000000000000000000000000000000000000000000a600"
                    }
                ],
                "storageVariables": [
                    {
                        "name": "_state",
                        "type": "struct Storage.WormholeState",
                        "value": {
                            "fields": [
                                {
                                    "name": "sequences",
                                    "type": "mapping(address => uint64)",
                                    "value": {
                                        "pairs": [
                                            {
                                                "key": "0x3ee18b2214aff97000d974cf647e7c347e8fa585",
                                                "value": {
                                                    "current": "42497",
                                                    "prev": "42496",
                                                    "typeTag": 1
                                                }
                                            }
                                        ],
                                        "typeTag": 4
                                    }
                                }
                            ],
                            "typeTag": 3
                        }
                    }
                ]
            },
            {
                "address": "0xc02aaa39b223fe8d0a0e5c4f27ead9083c756cc2",
                "erc": "ERC-20",
                "slots": [
                    {
                        "current": "0x0000000000000000000000000000000000000000000016494fe400f9e6f55400",
                        "key": "0x43d1034aa65af501aae7495505331473a30972dd0c8f51ea4f813cf4480b2404",
                        "prev": "0x0000000000000000000000000000000000000000000016494aafbc76882fd400"
                    }
                ],
                "storageVariables": [
                    {
                        "name": "balanceOf",
                        "type": "mapping(address => uint256)",
                        "value": {
                            "pairs": [
                                {
                                    "key": "0x3ee18b2214aff97000d974cf647e7c347e8fa585",
                                    "value": {
                                        "current": "105244431667810000000000",
                                        "prev": "105244056667810000000000",
                                        "typeTag": 1
                                    }
                                }
                            ],
                            "typeTag": 4
                        }
                    }
                ]
            }
        ]
    }
}