{
    "balance_change": {
        "balanceChanges": [
            {
                "account": "0xf3db642663231887e2ff3501da6e3247d8634a6d",
                "assets": [
                    {
                        "address": "0xeeeeeeeeeeeeeeeeeeeeeeeeeeeeeeeeeeeeeeee",
                        "amount": "0.0057",
                        "iconUrl": "https://assets.blocksec.com/image/1663669189317-3.png",
                        "isERC1155": false,
                        "isERC721": false,
                        "sign": false,
                        "value": "10.4236470000000002074"
                    }
                ]
            },
            {
                "account": "0x3c95775ba56bfcd337998cc84f0388251d6aec7b",
                "assets": [
                    {
                        "address": "0xeeeeeeeeeeeeeeeeeeeeeeeeeeeeeeeeeeeeeeee",
                        "amount": "0.0007",
                        "iconUrl": "https://assets.blocksec.com/image/1663669189317-3.png",
                        "isERC1155": false,
                        "isERC721": false,
                        "sign": true,
                        "value": "1.2800970000000000254"
                    }
                ]
            },
            {
                "account": "0x0000000000000000000000000000000000000000",
                "assets": [
                    {
                        "address": "0xbc274d2f4be62139bf15169f65c358ae48e4215c",
                        "amount": "1",
                        "iconUrl": "",
                        "isERC1155": false,
                        "isERC721": true,
                        "sign": false,
                        "tokenID": "30",
                        "value": ""
                    }
                ]
            },
            {
                "account": "0x6842d3cf5eb8951cba4004e55c6bd3e5d09dd628",
                "assets": [
                    {
                        "address": "0xbc274d2f4be62139bf15169f65c358ae48e4215c",
                        "amount": "1",
                        "iconUrl": "",
                        "isERC1155": false,
                        "isERC721": true,
                        "sign": true,
                        "tokenID": "30",
                        "value": ""
                    }
                ]
            },
            {
                "account": "0xbc274d2f4be62139bf15169f65c358ae48e4215c",
                "assets": [
                    {
                        "address": "0xeeeeeeeeeeeeeeeeeeeeeeeeeeeeeeeeeeeeeeee",
                        "amount": "0.005",
                        "iconUrl": "https://assets.blocksec.com/image/1663669189317-3.png",
                        "isERC1155": false,
                        "isERC721": false,
                        "sign": true,
                        "value": "9.143550000000000182"
                    }
                ]
            }
        ]
    },
    "profile": {
        "basic_info": {
            "baseFee": "17.825623935",
            "blockNumber": 17819780,
            "callData": "0xc90974d0000000000000000000000000bc274d2f4be62139bf15169f65c358ae48e4215c00000000000000000000000000000000000000000000000000000000000000590000000000000000000000006842d3cf5eb8951cba4004e55c6bd3e5d09dd6280000000000000000000000000000000000000000000000000000000000000001000000000000000000000000000000000000000000000000000000000000000000000000000000000000000000000000000000000000000000000000000000e0ee379eaf70249ff9c90885a220f4d0ea01b3eea2c5ea97da78fb65539489d8170000000000000000000000000000000000000000000000000000000000000000",
            "debugEnable": true,
            "errorInfo": "",
            "eventCount": 3,
            "feeRecipient": "0x5124fcc2b3f99f571ad67d075643c743f38f1c34",
            "formatValue": "0.0057",
            "gasLimit": 1500000,
            "gasPrice": "17.915623935",
            "gasUsed": 127571,
            "intTxnCount": 4,
            "internalRevert": false,
            "internalRevertMessage": "",
            "isContractCreation": false,
            "isFlashloan": false,
            "maxFee": "19.41",
            "nonce": 3482,
            "overwritedBlockNumber": -1,
            "priorityFee": "0.09",
            "receiver": "0x3c95775ba56bfcd337998cc84f0388251d6aec7b",
            "revertMessage": "",
            "sender": "0xf3db642663231887e2ff3501da6e3247d8634a6d",
            "simulationEnable": true,
            "sourceTxnHash": "0x71b678c0c0861b2e097d0277563e977ac22649ad4decc59e2b154953da5aa32f",
            "status": true,
            "timestamp": "2023-08-01T11:13:47Z",
            "transactionFee": "0.002285514061011885",
            "txnHash": "0x71b678c0c0861b2e097d0277563e977ac22649ad4decc59e2b154953da5aa32f",
            "txnIndex": 152,
            "type": 2,
            "value": "5700000000000000"
        },
        "fund_flow": [
            {
                "amount": "0.0057",
                "from": "0xf3db642663231887e2ff3501da6e3247d8634a6d",
                "id": 1,
                "isERC1155": false,
                "isERC721": false,
                "isReverted": false,
                "order": 1,
                "to": "0x3c95775ba56bfcd337998cc84f0388251d6aec7b",
                "token": "0xeeeeeeeeeeeeeeeeeeeeeeeeeeeeeeeeeeeeeeee"
            },
            {
                "amount": "0.005",
                "from": "0x3c95775ba56bfcd337998cc84f0388251d6aec7b",
                "id": 2,
                "isERC1155": false,
                "isERC721": false,
                "isReverted": false,
                "order": 2,
                "to": "0xbc274d2f4be62139bf15169f65c358ae48e4215c",
                "token": "0xeeeeeeeeeeeeeeeeeeeeeeeeeeeeeeeeeeeeeeee"
            },
            {
                "amount": "1",
                "from": "0x0000000000000000000000000000000000000000",
                "id": 3,
                "isERC1155": false,
                "isERC721": true,
                "isReverted": false,
                "order": 3,
                "to": "0x6842d3cf5eb8951cba4004e55c6bd3e5d09dd628",
                "token": "0xbc274d2f4be62139bf15169f65c358ae48e4215c",
                "tokenID": "30"
            }
        ],
        "token_infos": [
            {
                "address": "0xeeeeeeeeeeeeeeeeeeeeeeeeeeeeeeeeeeeeeeee",
                "decimals": 18
            },
            {
                "address": "0xc02aaa39b223fe8d0a0e5c4f27ead9083c756cc2",
                "decimals": 18
            }
        ]
    },
    "address_label": {
        "labels": [
            {
                "address": "0xa86462143fc13a89e632c66dfcc3038a0c793dab",
                "label": "SoundEditionV1_2"
            },
            {
                "address": "0x3c95775ba56bfcd337998cc84f0388251d6aec7b",
                "label": "RangeEditionMinterV2_1"
            },
            {
                "address": "0xf3db642663231887e2ff3501da6e3247d8634a6d",
                "label": "paperxyz-1.wallet"
            },
            {
                "address": "0x0000000000000000000000000000000000000000",
                "label": "Null Address"
            },
            {
                "address": "0x0000000000000000000000000000000000000003",
                "label": "Precompiled"
            },
            {
                "address": "0x0000000000000000000000000000000000000004",
                "label": "Precompiled"
            },
            {
                "address": "0xeeeeeeeeeeeeeeeeeeeeeeeeeeeeeeeeeeeeeeee",
                "label": "Ether"
            },
            {
                "address": "0x0000000000000000000000000000000000000001",
                "label": "Precompiled"
            },
            {
                "address": "0x0000000000000000000000000000000000000002",
                "label": "Precompiled"
            }
        ]
    },
    "trace": {
        "accountLabels": null,
        "dataMap": {
            "-1": {
                "invocation": {
                    "address": "0xf3db642663231887e2ff3501da6e3247d8634a6d",
                    "callData": "",
                    "decodedMethod": null,
                    "errorInfo": "",
                    "fromAddress": "",
                    "gasUsed": 0,
                    "id": -1,
                    "methodDecoded": false,
                    "operation": "",
                    "output": "",
                    "revert": false,
                    "revertMessage": "",
                    "selector": "",
                    "status": false,
                    "value": ""
                },
                "nodeType": 0
            },
            "0": {
                "invocation": {
                    "address": "0x3c95775ba56bfcd337998cc84f0388251d6aec7b",
                    "callData": "0x000000000000000000000000bc274d2f4be62139bf15169f65c358ae48e4215c00000000000000000000000000000000000000000000000000000000000000590000000000000000000000006842d3cf5eb8951cba4004e55c6bd3e5d09dd6280000000000000000000000000000000000000000000000000000000000000001000000000000000000000000000000000000000000000000000000000000000000000000000000000000000000000000000000000000000000000000000000e0ee379eaf70249ff9c90885a220f4d0ea01b3eea2c5ea97da78fb65539489d8170000000000000000000000000000000000000000000000000000000000000000",
                    "decodedMethod": {
                        "callParams": [
                            {
                                "name": "edition",
                                "type": "address",
                                "value": "0xbc274d2f4be62139bf15169f65c358ae48e4215c"
                            },
                            {
                                "name": "mintId",
                                "type": "uint128",
                                "value": "89"
                            },
                            {
                                "name": "to",
                                "type": "address",
                                "value": "0x6842d3cf5eb8951cba4004e55c6bd3e5d09dd628"
                            },
                            {
                                "name": "quantity",
                                "type": "uint32",
                                "value": "1"
                            },
                            {
                                "name": "affiliate",
                                "type": "address",
                                "value": "0x0000000000000000000000000000000000000000"
                            },
                            {
                                "name": "affiliateProof",
                                "type": "bytes32[]",
                                "value": []
                            },
                            {
                                "name": "attributionId",
                                "type": "uint256",
                                "value": "107,748,729,757,103,714,510,389,597,206,597,106,928,039,729,295,290,739,516,031,959,671,260,410,664,983"
                            }
                        ],
                        "constructorArguments": "",
                        "name": "mintTo",
                        "returnParams": [],
                        "signature": "mintTo(address,uint128,address,uint32,address,bytes32[],uint256)"
                    },
                    "errorInfo": "",
                    "fromAddress": "0xf3db642663231887e2ff3501da6e3247d8634a6d",
                    "gasUsed": 127571,
                    "id": 0,
                    "methodDecoded": true,
                    "operation": "CALL",
                    "output": "",
                    "revert": false,
                    "revertMessage": "",
                    "selector": "0xc90974d0",
                    "status": true,
                    "value": "0.0057"
                },
                "nodeType": 0
            },
            "1": {
                "invocation": {
                    "address": "0xbc274d2f4be62139bf15169f65c358ae48e4215c",
                    "callData": "0x0000000000000000000000006842d3cf5eb8951cba4004e55c6bd3e5d09dd628",
                    "decodedMethod": {
                        "callParams": [
                            {
                                "name": "owner",
                                "type": "address",
                                "value": "0x6842d3cf5eb8951cba4004e55c6bd3e5d09dd628"
                            }
                        ],
                        "constructorArguments": "",
                        "name": "numberMinted",
                        "returnParams": [
                            {
                                "name": "",
                                "type": "uint256",
                                "value": "0"
                            }
                        ],
                        "signature": "numberMinted(address)"
                    },
                    "errorInfo": "",
                    "fromAddress": "0x3c95775ba56bfcd337998cc84f0388251d6aec7b",
                    "gasUsed": 5460,
                    "id": 1,
                    "methodDecoded": true,
                    "operation": "STATICCALL",
                    "output": "0x0000000000000000000000000000000000000000000000000000000000000000",
                    "revert": false,
                    "revertMessage": "",
                    "selector": "0xdc33e681",
                    "status": true,
                    "value": "0"
                },
                "nodeType": 0
            },
            "2": {
                "invocation": {
                    "address": "0xa86462143fc13a89e632c66dfcc3038a0c793dab",
                    "callData": "0x0000000000000000000000006842d3cf5eb8951cba4004e55c6bd3e5d09dd628",
                    "decodedMethod": {
                        "callParams": [
                            {
                                "name": "owner",
                                "type": "address",
                                "value": "0x6842d3cf5eb8951cba4004e55c6bd3e5d09dd628"
                            }
                        ],
                        "constructorArguments": "",
                        "name": "numberMinted",
                        "returnParams": [
                            {
                                "name": "",
                                "type": "uint256",
                                "value": "0"
                            }
                        ],
                        "signature": "numberMinted(address)"
                    },
                    "errorInfo": "",
                    "fromAddress": "0xbc274d2f4be62139bf15169f65c358ae48e4215c",
                    "gasUsed": 2788,
                    "id": 2,
                    "methodDecoded": true,
                    "operation": "DELEGATECALL",
                    "output": "0x0000000000000000000000000000000000000000000000000000000000000000",
                    "revert": false,
                    "revertMessage": "",
                    "selector": "0xdc33e681",
                    "status": true,
                    "value": "0"
                },
                "nodeType": 0
            },
            "3": {
                "invocation": {
                    "address": "0xbc274d2f4be62139bf15169f65c358ae48e4215c",
                    "callData": "0x0000000000000000000000006842d3cf5eb8951cba4004e55c6bd3e5d09dd6280000000000000000000000000000000000000000000000000000000000000001",
                    "decodedMethod": {
                        "callParams": [
                            {
                                "name": "to",
                                "type": "address",
                                "value": "0x6842d3cf5eb8951cba4004e55c6bd3e5d09dd628"
                            },
                            {
                                "name": "quantity",
                                "type": "uint256",
                                "value": "1"
                            }
                        ],
                        "constructorArguments": "",
                        "name": "mint",
                        "returnParams": [
                            {
                                "name": "fromTokenId",
                                "type": "uint256",
                                "value": "30"
                            }
                        ],
                        "signature": "mint(address,uint256)"
                    },
                    "errorInfo": "",
                    "fromAddress": "0x3c95775ba56bfcd337998cc84f0388251d6aec7b",
                    "gasUsed": 63654,
                    "id": 3,
                    "methodDecoded": true,
                    "operation": "CALL",
                    "output": "0x000000000000000000000000000000000000000000000000000000000000001e",
                    "revert": false,
                    "revertMessage": "",
                    "selector": "0x40c10f19",
                    "status": true,
                    "value": "0.005"
                },
                "nodeType": 0
            },
            "4": {
                "invocation": {
                    "address": "0xa86462143fc13a89e632c66dfcc3038a0c793dab",
                    "callData": "0x0000000000000000000000006842d3cf5eb8951cba4004e55c6bd3e5d09dd6280000000000000000000000000000000000000000000000000000000000000001",
                    "decodedMethod": {
                        "callParams": [
                            {
                                "name": "to",
                                "type": "address",
                                "value": "0x6842d3cf5eb8951cba4004e55c6bd3e5d09dd628"
                            },
                            {
                                "name": "quantity",
                                "type": "uint256",
                                "value": "1"
                            }
                        ],
                        "constructorArguments": "",
                        "name": "mint",
                        "returnParams": [
                            {
                                "name": "fromTokenId",
                                "type": "uint256",
                                "value": "30"
                            }
                        ],
                        "signature": "mint(address,uint256)"
                    },
                    "errorInfo": "",
                    "fromAddress": "0xbc274d2f4be62139bf15169f65c358ae48e4215c",
                    "gasUsed": 63476,
                    "id": 4,
                    "methodDecoded": true,
                    "operation": "DELEGATECALL",
                    "output": "0x000000000000000000000000000000000000000000000000000000000000001e",
                    "revert": false,
                    "revertMessage": "",
                    "selector": "0x40c10f19",
                    "status": true,
                    "value": "0.005"
                },
                "nodeType": 0
            },
            "5": {
                "event": {
                    "contract": "0xbc274d2f4be62139bf15169f65c358ae48e4215c",
                    "decodedLog": {
                        "name": "Transfer",
                        "params": [
                            {
                                "name": "from",
                                "type": "address",
                                "value": "0x0000000000000000000000000000000000000000"
                            },
                            {
                                "name": "to",
                                "type": "address",
                                "value": "0x6842d3cf5eb8951cba4004e55c6bd3e5d09dd628"
                            },
                            {
                                "decimalAvailable": true,
                                "name": "tokenId",
                                "type": "uint256",
                                "value": "30"
                            }
                        ],
                        "signature": "Transfer(address,address,uint256)"
                    },
                    "id": 5,
                    "logData": "0x",
                    "logDecoded": true,
                    "operation": "EVENT",
                    "revert": false,
                    "status": true,
                    "topics": [
                        "0xddf252ad1be2c89b69c2b068fc378daa952ba7f163c4a11628f55a4df523b3ef",
                        "0x0000000000000000000000000000000000000000000000000000000000000000",
                        "0x0000000000000000000000006842d3cf5eb8951cba4004e55c6bd3e5d09dd628",
                        "0x000000000000000000000000000000000000000000000000000000000000001e"
                    ]
                },
                "nodeType": 1
            },
            "6": {
                "event": {
                    "contract": "0xbc274d2f4be62139bf15169f65c358ae48e4215c",
                    "decodedLog": {
                        "name": "Minted",
                        "params": [
                            {
                                "name": "to",
                                "type": "address",
                                "value": "0x6842d3cf5eb8951cba4004e55c6bd3e5d09dd628"
                            },
                            {
                                "name": "quantity",
                                "type": "uint256",
                                "value": "1"
                            },
                            {
                                "name": "fromTokenId",
                                "type": "uint256",
                                "value": "30"
                            }
                        ],
                        "signature": "Minted(address,uint256,uint256)"
                    },
                    "id": 6,
                    "logData": "0x0000000000000000000000006842d3cf5eb8951cba4004e55c6bd3e5d09dd6280000000000000000000000000000000000000000000000000000000000000001000000000000000000000000000000000000000000000000000000000000001e",
                    "logDecoded": true,
                    "operation": "EVENT",
                    "revert": false,
                    "status": true,
                    "topics": [
                        "0x25b428dfde728ccfaddad7e29e4ac23c24ed7fd1a6e3e3f91894a9a073f5dfff"
                    ]
                },
                "nodeType": 1
            },
            "7": {
                "event": {
                    "contract": "0x3c95775ba56bfcd337998cc84f0388251d6aec7b",
                    "decodedLog": {
                        "name": "Minted",
                        "params": [
                            {
                                "name": "edition",
                                "type": "address",
                                "value": "0xbc274d2f4be62139bf15169f65c358ae48e4215c"
                            },
                            {
                                "name": "buyer",
                                "type": "address",
                                "value": "0x6842d3cf5eb8951cba4004e55c6bd3e5d09dd628"
                            },
                            {
                                "name": "attributionId",
                                "type": "uint256",
                                "value": "107,748,729,757,103,714,510,389,597,206,597,106,928,039,729,295,290,739,516,031,959,671,260,410,664,983"
                            },
                            {
                                "name": "mintId",
                                "type": "uint128",
                                "value": "89"
                            },
                            {
                                "name": "fromTokenId",
                                "type": "uint32",
                                "value": "30"
                            },
                            {
                                "name": "quantity",
                                "type": "uint32",
                                "value": "1"
                            },
                            {
                                "name": "requiredEtherValue",
                                "type": "uint128",
                                "value": "5,700,000,000,000,000"
                            },
                            {
                                "name": "platformFee",
                                "type": "uint128",
                                "value": "700,000,000,000,000"
                            },
                            {
                                "name": "affiliateFee",
                                "type": "uint128",
                                "value": "0"
                            },
                            {
                                "name": "affiliate",
                                "type": "address",
                                "value": "0x0000000000000000000000000000000000000000"
                            },
                            {
                                "name": "affiliated",
                                "type": "bool",
                                "value": false
                            }
                        ],
                        "signature": "Minted(address,uint128,address,uint32,uint32,uint128,uint128,uint128,address,bool,uint256)"
                    },
                    "id": 7,
                    "logData": "0x0000000000000000000000000000000000000000000000000000000000000059000000000000000000000000000000000000000000000000000000000000001e00000000000000000000000000000000000000000000000000000000000000010000000000000000000000000000000000000000000000000014401eab38400000000000000000000000000000000000000000000000000000027ca57357c000000000000000000000000000000000000000000000000000000000000000000000000000000000000000000000000000000000000000000000000000000000000000000000000000000000000000000000000000000000000000000000000000",
                    "logDecoded": true,
                    "operation": "EVENT",
                    "revert": false,
                    "status": true,
                    "topics": [
                        "0x1c9d0475cac0f75d579d1156e780903d43532d6212c6890ce4f6f278770dc915",
                        "0x000000000000000000000000bc274d2f4be62139bf15169f65c358ae48e4215c",
                        "0x0000000000000000000000006842d3cf5eb8951cba4004e55c6bd3e5d09dd628",
                        "0xee379eaf70249ff9c90885a220f4d0ea01b3eea2c5ea97da78fb65539489d817"
                    ]
                },
                "nodeType": 1
            }
        },
        "gasFlame": [
            {
                "children": [
                    {
                        "children": [
                            {
                                "children": [],
                                "depth": 0,
                                "name": "Initial Gas",
                                "value": 22988
                            },
                            {
                                "children": [
                                    {
                                        "children": [
                                            {
                                                "children": [],
                                                "depth": 2,
                                                "name": "numberMinted",
                                                "value": 2788
                                            }
                                        ],
                                        "depth": 1,
                                        "name": "numberMinted",
                                        "value": 5460
                                    },
                                    {
                                        "children": [
                                            {
                                                "children": [],
                                                "depth": 2,
                                                "name": "mint",
                                                "value": 63476
                                            }
                                        ],
                                        "depth": 1,
                                        "name": "mint",
                                        "value": 63654
                                    }
                                ],
                                "depth": 0,
                                "name": "Executed Gas",
                                "value": 104583
                            }
                        ],
                        "depth": -1,
                        "name": "Actual Gas Used",
                        "value": 127571
                    },
                    {
                        "children": [],
                        "depth": -1,
                        "name": "Refunded Gas",
                        "value": 0
                    }
                ],
                "depth": -2,
                "name": "Total Gas",
                "value": 127571
            }
        ],
        "isConfirmed": true,
        "mainTrace": [
            {
                "children": [
                    {
                        "children": [
                            {
                                "children": [
                                    {
                                        "children": [],
                                        "depth": 2,
                                        "id": 2,
                                        "order": 2
                                    }
                                ],
                                "depth": 1,
                                "id": 1,
                                "order": 1
                            },
                            {
                                "children": [
                                    {
                                        "children": [
                                            {
                                                "children": [],
                                                "depth": 3,
                                                "id": 5,
                                                "order": 5
                                            },
                                            {
                                                "children": [],
                                                "depth": 3,
                                                "id": 6,
                                                "order": 6
                                            }
                                        ],
                                        "depth": 2,
                                        "id": 4,
                                        "order": 4
                                    }
                                ],
                                "depth": 1,
                                "id": 3,
                                "order": 3
                            },
                            {
                                "children": [],
                                "depth": 1,
                                "id": 7,
                                "order": 7
                            }
                        ],
                        "depth": 0,
                        "id": 0,
                        "order": 0
                    }
                ],
                "depth": -1,
                "id": -1,
                "order": -1
            }
        ],
        "mainTraceNodeCount": 8,
        "parentIdMap": {
            "0": -1,
            "1": 0,
            "2": 1,
            "3": 0,
            "4": 3,
            "5": 4,
            "6": 4,
            "7": 0
        },
        "tidyTrace": [
            {
                "children": [
                    {
                        "children": [
                            {
                                "children": [
                                    {
                                        "children": [
                                            {
                                                "children": [],
                                                "depth": 3,
                                                "id": 5,
                                                "order": 5
                                            },
                                            {
                                                "children": [],
                                                "depth": 3,
                                                "id": 6,
                                                "order": 6
                                            }
                                        ],
                                        "depth": 2,
                                        "id": 4,
                                        "order": 4
                                    }
                                ],
                                "depth": 1,
                                "id": 3,
                                "order": 3
                            },
                            {
                                "children": [],
                                "depth": 1,
                                "id": 7,
                                "order": 7
                            }
                        ],
                        "depth": 0,
                        "id": 0,
                        "order": 0
                    }
                ],
                "depth": -1,
                "id": -1,
                "order": -1
            }
        ],
        "tidyTraceNodeCount": 6
    },
    "state_change": {
        "stateChanges": [
            {
                "address": "0x3c95775ba56bfcd337998cc84f0388251d6aec7b",
                "erc": "",
                "slots": [
                    {
                        "current": "0x000000000000000000000000000000007fffffff000000010000001e64daa3e0",
                        "key": "0x31d4b1d9db21381f1a2b36d5a3c6f80d130a9ac9978cd2494bdee5f1d9ea2d01",
                        "prev": "0x000000000000000000000000000000007fffffff000000010000001d64daa3e0"
                    },
                    {
                        "current": "0x0000000000000000000000000000000000000000000000000a560fa764b60000",
                        "key": "0x0000000000000000000000000000000000000000000000000000000000000001",
                        "prev": "0x0000000000000000000000000000000000000000000000000a539301f15e4000"
                    }
                ],
                "storageVariables": [
                    {
                        "name": "_editionMintData",
                        "type": "mapping(bytes32 => struct EditionMintData)",
                        "value": {
                            "pairs": [
                                {
                                    "key": "0x394bffd24a72c4d64c66a3b6cdc477d1835c4e872c0ca0de5d04c3d92a2686f7",
                                    "value": {
                                        "fields": [
                                            {
                                                "name": "cutoffTime",
                                                "type": "uint32",
                                                "value": {
                                                    "current": "1692050400",
                                                    "prev": "1692050400",
                                                    "typeTag": 1
                                                }
                                            },
                                            {
                                                "name": "totalMinted",
                                                "type": "uint32",
                                                "value": {
                                                    "current": "30",
                                                    "prev": "29",
                                                    "typeTag": 1
                                                }
                                            },
                                            {
                                                "name": "maxMintableLower",
                                                "type": "uint32",
                                                "value": {
                                                    "current": "1",
                                                    "prev": "1",
                                                    "typeTag": 1
                                                }
                                            },
                                            {
                                                "name": "maxMintableUpper",
                                                "type": "uint32",
                                                "value": {
                                                    "current": "2147483647",
                                                    "prev": "2147483647",
                                                    "typeTag": 1
                                                }
                                            }
                                        ],
                                        "typeTag": 3
                                    }
                                }
                            ],
                            "typeTag": 4
                        }
                    },
                    {
                        "name": "platformFeesAccrued",
                        "type": "uint128",
                        "value": {
                            "current": "744800000000000000",
                            "prev": "744100000000000000",
                            "typeTag": 1
                        }
                    },
                    {
                        "name": "platformFlatFee",
                        "type": "uint96",
                        "value": {
                            "current": "0",
                            "prev": "0",
                            "typeTag": 1
                        }
                    },
                    {
                        "name": "platformFeeBPS",
                        "type": "uint16",
                        "value": {
                            "current": "0",
                            "prev": "0",
                            "typeTag": 1
                        }
                    }
                ]
            },
            {
                "address": "0xbc274d2f4be62139bf15169f65c358ae48e4215c",
                "erc": "ERC-721",
                "slots": [
                    {
                        "current": "0x0000000000000000000000000000000000000000000000010000000000000001",
                        "key": "0x7f575d3475f8aea6c3b4bb0dbcd13ac6047637d8fd2447a4c65d9a13a3fb0fa6",
                        "prev": "0x0000000000000000000000000000000000000000000000000000000000000000"
                    },
                    {
                        "current": "0x000000000000000000000000000000000000000000000000000000000000001f",
                        "key": "0x2569078dfb4b0305704d3008e7403993ae9601b85f7ae5e742de3de8f8011c40",
                        "prev": "0x000000000000000000000000000000000000000000000000000000000000001e"
                    },
                    {
                        "current": "0x0603e87255fb1e08d46dadb2e311e941d49dbf1747e8531209f4d3f4c49f5ea0",
                        "key": "0x0000000000000000000000000000000000000000000000000000000000000006",
                        "prev": "0x0603e83a7f85a79447f7063ae311e941d49dbf1747e8531209f4d3f4c49f5ea0"
                    },
                    {
                        "current": "0x000000020000000064c8e8eb6842d3cf5eb8951cba4004e55c6bd3e5d09dd628",
                        "key": "0x3dcd3c8dbc33cf596d36b0a23c45bf633f3866f892cffd92d686f69df4e0a855",
                        "prev": "0x0000000000000000000000000000000000000000000000000000000000000000"
                    }
                ],
                "storageVariables": [
                    {
                        "name": "metadataModule",
                        "type": "address",
                        "value": {
                            "current": "0xe311e941d49dbf1747e8531209f4d3f4c49f5ea0",
                            "prev": "0xe311e941d49dbf1747e8531209f4d3f4c49f5ea0",
                            "typeTag": 1
                        }
                    },
                    {
                        "name": "_mintRandomness",
                        "type": "uint72",
                        "value": {
                            "current": "2109124403138539662770",
                            "prev": "1079100091145177728570",
                            "typeTag": 1
                        }
                    },
                    {
                        "name": "royaltyBPS",
                        "type": "uint16",
                        "value": {
                            "current": "1000",
                            "prev": "1000",
                            "typeTag": 1
                        }
                    },
                    {
                        "name": "_flags",
                        "type": "uint8",
                        "value": {
                            "current": "6",
                            "prev": "6",
                            "typeTag": 1
                        }
                    }
                ]
            }
        ]
    }
}