{
    "balance_change": {
        "balanceChanges": [
            {
                "account": "0x087e32616aa1314ecd24ac424b6692ba2a75f9fa",
                "assets": [
                    {
                        "address": "0xd26114cd6ee289accf82350c8d8487fedb8a0c07",
                        "amount": "1.5",
                        "iconUrl": "https://assets.blocksec.com/icon/33337523e3649cd91abcb0cac0df074ff9512695abafe3958d0a610195d87716.png",
                        "isERC1155": false,
                        "isERC721": false,
                        "sign": false,
                        "value": ""
                    }
                ]
            },
            {
                "account": "0x5e44c3e467a49c9ca0296a9f130fc433041aaa28",
                "assets": [
                    {
                        "address": "0xd26114cd6ee289accf82350c8d8487fedb8a0c07",
                        "amount": "1.5",
                        "iconUrl": "https://assets.blocksec.com/icon/33337523e3649cd91abcb0cac0df074ff9512695abafe3958d0a610195d87716.png",
                        "isERC1155": false,
                        "isERC721": false,
                        "sign": true,
                        "value": ""
                    }
                ]
            }
        ]
    },
    "profile": {
        "basic_info": {
            "baseFee": "",
            "blockNumber": 4276409,
            "callData": "0xa9059cbb0000000000000000000000005e44c3e467a49c9ca0296a9f130fc433041aaa2800000000000000000000000000000000000000000000000014d1120d7b160000",
            "debugEnable": true,
            "errorInfo": "",
            "eventCount": 1,
            "feeRecipient": "0x2a65aca4d5fc5b5c859090a6c34d164135398226",
            "formatValue": "0",
            "gasLimit": 92872,
            "gasPrice": "10",
            "gasUsed": 22094,
            "intTxnCount": 0,
            "internalRevert": false,
            "internalRevertMessage": "",
            "isContractCreation": false,
            "isFlashloan": false,
            "maxFee": "",
            "nonce": 0,
            "overwritedBlockNumber": -1,
            "priorityFee": "",
            "receiver": "0xd26114cd6ee289accf82350c8d8487fedb8a0c07",
            "revertMessage": "",
            "sender": "0x087e32616aa1314ecd24ac424b6692ba2a75f9fa",
            "simulationEnable": true,
            "sourceTxnHash": "0x715c56e612f5971c35ebae33c487b1039d84f3b6604038e93f6843f4ded8a9ba",
            "status": true,
            "timestamp": "2017-09-15T10:46:30Z",
            "transactionFee": "0.00022094",
            "txnHash": "0x715c56e612f5971c35ebae33c487b1039d84f3b6604038e93f6843f4ded8a9ba",
            "txnIndex": 143,
            "type": 0,
            "value": "0"
        },
        "fund_flow": [
            {
                "amount": "1.5",
                "from": "0x087e32616aa1314ecd24ac424b6692ba2a75f9fa",
                "id": 1,
                "isERC1155": false,
                "isERC721": false,
                "isReverted": false,
                "order": 1,
                "to": "0x5e44c3e467a49c9ca0296a9f130fc433041aaa28",
                "token": "0xd26114cd6ee289accf82350c8d8487fedb8a0c07"
            }
        ],
        "token_infos": [
            {
                "address": "0xc02aaa39b223fe8d0a0e5c4f27ead9083c756cc2",
                "decimals": 18
            },
            {
                "address": "0xd26114cd6ee289accf82350c8d8487fedb8a0c07",
                "decimals": 18
            },
            {
                "address": "0xeeeeeeeeeeeeeeeeeeeeeeeeeeeeeeeeeeeeeeee",
                "decimals": 18
            }
        ]
    },
    "address_label": {
        "labels": [
            {
                "address": "0x0000000000000000000000000000000000000003",
                "label": "Precompiled"
            },
            {
                "address": "0x0000000000000000000000000000000000000004",
                "label": "Precompiled"
            },
            {
                "address": "0xeeeeeeeeeeeeeeeeeeeeeeeeeeeeeeeeeeeeeeee",
                "label": "Ether"
            },
            {
                "address": "0xd26114cd6ee289accf82350c8d8487fedb8a0c07",
                "label": "OMG Network: OMG Token"
            },
            {
                "address": "0x0000000000000000000000000000000000000001",
                "label": "Precompiled"
            },
            {
                "address": "0x0000000000000000000000000000000000000002",
                "label": "Precompiled"
            }
        ]
    },
    "trace": {
        "accountLabels": null,
        "dataMap": {
            "-1": {
                "invocation": {
                    "address": "0x087e32616aa1314ecd24ac424b6692ba2a75f9fa",
                    "callData": "",
                    "decodedMethod": null,
                    "errorInfo": "",
                    "fromAddress": "",
                    "gasUsed": 0,
                    "id": -1,
                    "methodDecoded": false,
                    "operation": "",
                    "output": "",
                    "revert": false,
                    "revertMessage": "",
                    "selector": "",
                    "status": false,
                    "value": ""
                },
                "nodeType": 0
            },
            "0": {
                "invocation": {
                    "address": "0xd26114cd6ee289accf82350c8d8487fedb8a0c07",
                    "callData": "0x0000000000000000000000005e44c3e467a49c9ca0296a9f130fc433041aaa2800000000000000000000000000000000000000000000000014d1120d7b160000",
                    "decodedMethod": {
                        "callParams": [
                            {
                                "name": "_to",
                                "type": "address",
                                "value": "0x5e44c3e467a49c9ca0296a9f130fc433041aaa28"
                            },
                            {
                                "decimalAvailable": true,
                                "name": "_value",
                                "type": "uint256",
                                "value": "1,500,000,000,000,000,000"
                            }
                        ],
                        "constructorArguments": "",
                        "name": "transfer",
                        "returnParams": [],
                        "signature": "transfer(address,uint256)"
                    },
                    "errorInfo": "",
                    "fromAddress": "0x087e32616aa1314ecd24ac424b6692ba2a75f9fa",
                    "gasUsed": 22094,
                    "id": 0,
                    "methodDecoded": true,
                    "operation": "CALL",
                    "output": "",
                    "revert": false,
                    "revertMessage": "",
                    "selector": "0xa9059cbb",
                    "status": true,
                    "value": "0"
                },
                "nodeType": 0
            },
            "1": {
                "event": {
                    "contract": "0xd26114cd6ee289accf82350c8d8487fedb8a0c07",
                    "decodedLog": {
                        "name": "Transfer",
                        "params": [
                            {
                                "name": "from",
                                "type": "address",
                                "value": "0x087e32616aa1314ecd24ac424b6692ba2a75f9fa"
                            },
                            {
                                "name": "to",
                                "type": "address",
                                "value": "0x5e44c3e467a49c9ca0296a9f130fc433041aaa28"
                            },
                            {
                                "decimalAvailable": true,
                                "name": "value",
                                "type": "uint256",
                                "value": "1,500,000,000,000,000,000"
                            }
                        ],
                        "signature": "Transfer(address,address,uint256)"
                    },
                    "id": 1,
                    "logData": "0x00000000000000000000000000000000000000000000000014d1120d7b160000",
                    "logDecoded": true,
                    "operation": "EVENT",
                    "revert": false,
                    "status": true,
                    "topics": [
                        "0xddf252ad1be2c89b69c2b068fc378daa952ba7f163c4a11628f55a4df523b3ef",
                        "0x000000000000000000000000087e32616aa1314ecd24ac424b6692ba2a75f9fa",
                        "0x0000000000000000000000005e44c3e467a49c9ca0296a9f130fc433041aaa28"
                    ]
                },
                "nodeType": 1
            }
        },
        "gasFlame": [
            {
                "children": [
                    {
                        "children": [
                            {
                                "children": [],
                                "depth": 0,
                                "name": "Initial Gas",
                                "value": 23192
                            },
                            {
                                "children": [],
                                "depth": 0,
                                "name": "Executed Gas",
                                "value": 13902
                            }
                        ],
                        "depth": -1,
                        "name": "Actual Gas Used",
                        "value": 22094
                    },
                    {
                        "children": [],
                        "depth": -1,
                        "name": "Refunded Gas",
                        "value": 15000
                    }
                ],
                "depth": -2,
                "name": "Total Gas",
                "value": 37094
            }
        ],
        "isConfirmed": true,
        "mainTrace": [
            {
                "children": [
                    {
                        "children": [
                            {
                                "children": [],
                                "depth": 1,
                                "id": 1,
                                "order": 1
                            }
                        ],
                        "depth": 0,
                        "id": 0,
                        "order": 0
                    }
                ],
                "depth": -1,
                "id": -1,
                "order": -1
            }
        ],
        "mainTraceNodeCount": 2,
        "parentIdMap": {
            "0": -1,
            "1": 0
        },
        "tidyTrace": [
            {
                "children": [
                    {
                        "children": [
                            {
                                "children": [],
                                "depth": 1,
                                "id": 1,
                                "order": 1
                            }
                        ],
                        "depth": 0,
                        "id": 0,
                        "order": 0
                    }
                ],
                "depth": -1,
                "id": -1,
                "order": -1
            }
        ],
        "tidyTraceNodeCount": 2
    },
    "state_change": {
        "stateChanges": [
            {
                "address": "0xd26114cd6ee289accf82350c8d8487fedb8a0c07",
                "erc": "ERC-20",
                "slots": [
                    {
                        "current": "0x0000000000000000000000000000000000000000000000000000000000000000",
                        "key": "0x907b9af11d2e7db000c746087d767025cd137da2f6bb0df833ab8560ec5a3b1c",
                        "prev": "0x00000000000000000000000000000000000000000000000014d1120d7b160000"
                    },
                    {
                        "current": "0x000000000000000000000000000000000000000000000542b87c8843ddfba9d1",
                        "key": "0xb5b4752e4c0390edf1e2e5401e683d54b71bc7df4ca569ce44051fd5ff0d3230",
                        "prev": "0x000000000000000000000000000000000000000000000542a3ab763662e5a9d1"
                    }
                ],
                "storageVariables": []
            }
        ]
    }
}