{
    "balance_change": {
        "balanceChanges": [
            {
                "account": "0x0d0707963952f2fba59dd06f2b425ace40b492fe",
                "assets": [
                    {
                        "address": "0x7c8155909cd385f120a56ef90728dd50f9ccbe52",
                        "amount": "1,070,488.116887",
                        "iconUrl": "",
                        "isERC1155": false,
                        "isERC721": false,
                        "sign": false,
                        "value": "2142.915742"
                    }
                ]
            },
            {
                "account": "0x445947140f5e1b742439f6ee24a7690d077bbb89",
                "assets": [
                    {
                        "address": "0x7c8155909cd385f120a56ef90728dd50f9ccbe52",
                        "amount": "1,070,488.116887",
                        "iconUrl": "",
                        "isERC1155": false,
                        "isERC721": false,
                        "sign": true,
                        "value": "2142.915742"
                    }
                ]
            }
        ]
    },
    "profile": {
        "basic_info": {
            "baseFee": "5.82725609",
            "blockNumber": 18373437,
            "callData": "0xa9059cbb000000000000000000000000445947140f5e1b742439f6ee24a7690d077bbb8900000000000000000000000000000000000000000000003a0801c69e9e792600",
            "debugEnable": true,
            "errorInfo": "",
            "eventCount": 1,
            "feeRecipient": "0x690b9a9e9aa1c9db991c7721a92d351db4fac990",
            "formatValue": "0",
            "gasLimit": 1000000,
            "gasPrice": "15.82725609",
            "gasUsed": 152145,
            "intTxnCount": 0,
            "internalRevert": false,
            "internalRevertMessage": "",
            "isContractCreation": false,
            "isFlashloan": false,
            "maxFee": "20.36072571",
            "nonce": 4963791,
            "overwritedBlockNumber": -1,
            "priorityFee": "10",
            "receiver": "0x7c8155909cd385f120a56ef90728dd50f9ccbe52",
            "revertMessage": "",
            "sender": "0x0d0707963952f2fba59dd06f2b425ace40b492fe",
            "simulationEnable": true,
            "sourceTxnHash": "0x710ad903655759e04075a460ffa72440143f1538da2d92441535e91e50620107",
            "status": true,
            "timestamp": "2023-10-17T23:41:35Z",
            "transactionFee": "0.00240803787781305",
            "txnHash": "0x710ad903655759e04075a460ffa72440143f1538da2d92441535e91e50620107",
            "txnIndex": 23,
            "type": 2,
            "value": "0"
        },
        "fund_flow": [
            {
                "amount": "1,070,488.116887",
                "from": "0x0d0707963952f2fba59dd06f2b425ace40b492fe",
                "id": 1,
                "isERC1155": false,
                "isERC721": false,
                "isReverted": false,
                "order": 1,
                "to": "0x445947140f5e1b742439f6ee24a7690d077bbb89",
                "token": "0x7c8155909cd385f120a56ef90728dd50f9ccbe52"
            }
        ],
        "token_infos": [
            {
                "address": "0x7c8155909cd385f120a56ef90728dd50f9ccbe52",
                "decimals": 15
            },
            {
                "address": "0xc02aaa39b223fe8d0a0e5c4f27ead9083c756cc2",
                "decimals": 18
            },
            {
                "address": "0xeeeeeeeeeeeeeeeeeeeeeeeeeeeeeeeeeeeeeeee",
                "decimals": 18
            }
        ]
    },
    "address_label": {
        "labels": [
            {
                "address": "0x0000000000000000000000000000000000000001",
                "label": "Precompiled"
            },
            {
                "address": "0x0000000000000000000000000000000000000002",
                "label": "Precompiled"
            },
            {
                "address": "0x0000000000000000000000000000000000000003",
                "label": "Precompiled"
            },
            {
                "address": "0x0000000000000000000000000000000000000004",
                "label": "Precompiled"
            },
            {
                "address": "0xeeeeeeeeeeeeeeeeeeeeeeeeeeeeeeeeeeeeeeee",
                "label": "Ether"
            },
            {
                "address": "0x0d0707963952f2fba59dd06f2b425ace40b492fe",
                "label": "Gate.io"
            },
            {
                "address": "0x445947140f5e1b742439f6ee24a7690d077bbb89",
                "label": "MEV Bot: 0x445...B89"
            },
            {
                "address": "0x7c8155909cd385f120a56ef90728dd50f9ccbe52",
                "label": "nahmii: NII Token"
            }
        ]
    },
    "trace": {
        "accountLabels": null,
        "dataMap": {
            "-1": {
                "invocation": {
                    "address": "0x0d0707963952f2fba59dd06f2b425ace40b492fe",
                    "callData": "",
                    "decodedMethod": null,
                    "errorInfo": "",
                    "fromAddress": "",
                    "gasUsed": 0,
                    "id": -1,
                    "methodDecoded": false,
                    "operation": "",
                    "output": "",
                    "revert": false,
                    "revertMessage": "",
                    "selector": "",
                    "status": false,
                    "value": ""
                },
                "nodeType": 0
            },
            "0": {
                "invocation": {
                    "address": "0x7c8155909cd385f120a56ef90728dd50f9ccbe52",
                    "callData": "0x000000000000000000000000445947140f5e1b742439f6ee24a7690d077bbb8900000000000000000000000000000000000000000000003a0801c69e9e792600",
                    "decodedMethod": {
                        "callParams": [
                            {
                                "name": "to",
                                "type": "address",
                                "value": "0x445947140f5e1b742439f6ee24a7690d077bbb89"
                            },
                            {
                                "decimalAvailable": true,
                                "name": "value",
                                "type": "uint256",
                                "value": "1,070,488,116,887,000,000,000"
                            }
                        ],
                        "constructorArguments": "",
                        "name": "transfer",
                        "returnParams": [
                            {
                                "name": "",
                                "type": "bool",
                                "value": true
                            }
                        ],
                        "signature": "transfer(address,uint256)"
                    },
                    "errorInfo": "",
                    "fromAddress": "0x0d0707963952f2fba59dd06f2b425ace40b492fe",
                    "gasUsed": 152145,
                    "id": 0,
                    "methodDecoded": true,
                    "operation": "CALL",
                    "output": "0x0000000000000000000000000000000000000000000000000000000000000001",
                    "revert": false,
                    "revertMessage": "",
                    "selector": "0xa9059cbb",
                    "status": true,
                    "value": "0"
                },
                "nodeType": 0
            },
            "1": {
                "event": {
                    "contract": "0x7c8155909cd385f120a56ef90728dd50f9ccbe52",
                    "decodedLog": {
                        "name": "Transfer",
                        "params": [
                            {
                                "name": "from",
                                "type": "address",
                                "value": "0x0d0707963952f2fba59dd06f2b425ace40b492fe"
                            },
                            {
                                "name": "to",
                                "type": "address",
                                "value": "0x445947140f5e1b742439f6ee24a7690d077bbb89"
                            },
                            {
                                "decimalAvailable": true,
                                "name": "value",
                                "type": "uint256",
                                "value": "1,070,488,116,887,000,000,000"
                            }
                        ],
                        "signature": "Transfer(address,address,uint256)"
                    },
                    "id": 1,
                    "logData": "0x00000000000000000000000000000000000000000000003a0801c69e9e792600",
                    "logDecoded": true,
                    "operation": "EVENT",
                    "revert": false,
                    "status": true,
                    "topics": [
                        "0xddf252ad1be2c89b69c2b068fc378daa952ba7f163c4a11628f55a4df523b3ef",
                        "0x0000000000000000000000000d0707963952f2fba59dd06f2b425ace40b492fe",
                        "0x000000000000000000000000445947140f5e1b742439f6ee24a7690d077bbb89"
                    ]
                },
                "nodeType": 1
            }
        },
        "gasFlame": [
            {
                "children": [
                    {
                        "children": [
                            {
                                "children": [],
                                "depth": 0,
                                "name": "Initial Gas",
                                "value": 21656
                            },
                            {
                                "children": [],
                                "depth": 0,
                                "name": "Executed Gas",
                                "value": 130489
                            }
                        ],
                        "depth": -1,
                        "name": "Actual Gas Used",
                        "value": 152145
                    },
                    {
                        "children": [],
                        "depth": -1,
                        "name": "Refunded Gas",
                        "value": 0
                    }
                ],
                "depth": -2,
                "name": "Total Gas",
                "value": 152145
            }
        ],
        "isConfirmed": true,
        "mainTrace": [
            {
                "children": [
                    {
                        "children": [
                            {
                                "children": [],
                                "depth": 1,
                                "id": 1,
                                "order": 1
                            }
                        ],
                        "depth": 0,
                        "id": 0,
                        "order": 0
                    }
                ],
                "depth": -1,
                "id": -1,
                "order": -1
            }
        ],
        "mainTraceNodeCount": 2,
        "parentIdMap": {
            "0": -1,
            "1": 0
        },
        "tidyTrace": [
            {
                "children": [
                    {
                        "children": [
                            {
                                "children": [],
                                "depth": 1,
                                "id": 1,
                                "order": 1
                            }
                        ],
                        "depth": 0,
                        "id": 0,
                        "order": 0
                    }
                ],
                "depth": -1,
                "id": -1,
                "order": -1
            }
        ],
        "tidyTraceNodeCount": 2
    },
    "state_change": {
        "stateChanges": [
            {
                "address": "0x7c8155909cd385f120a56ef90728dd50f9ccbe52",
                "erc": "ERC-20",
                "slots": [
                    {
                        "current": "0x0000000000000000000000000000000000000000000000000000000001185b3d",
                        "key": "0xe936acda431bf8402d8c1545a8e2bb5a8f3ffac85f19e98569cd56495acb0ead",
                        "prev": "0x0000000000000000000000000000000000000000000000000000000000000000"
                    },
                    {
                        "current": "0x0000000000000000000000000000000000000000000034c154c6b741e8974934",
                        "key": "0xe936acda431bf8402d8c1545a8e2bb5a8f3ffac85f19e98569cd56495acb0eae",
                        "prev": "0x0000000000000000000000000000000000000000000000000000000000000000"
                    },
                    {
                        "current": "0x0000000000000000000000000000000000000000000000000000000000000011",
                        "key": "0x1d16cb2774b5b87392ec7dea4271b76a2dc10eb0d83814bafda2c0a0e73aef16",
                        "prev": "0x0000000000000000000000000000000000000000000000000000000000000010"
                    },
                    {
                        "current": "0x0000000000000000000000000000000000000000000000000000000001185b3d",
                        "key": "0xdb53d3a5ba7afd7751d9190a456b889a3464286646a8967f586fbaa63ab404a8",
                        "prev": "0x0000000000000000000000000000000000000000000000000000000000000000"
                    },
                    {
                        "current": "0x00000000000000000000000000000000000000000000003a0801c69e9e792600",
                        "key": "0xdb53d3a5ba7afd7751d9190a456b889a3464286646a8967f586fbaa63ab404a9",
                        "prev": "0x0000000000000000000000000000000000000000000000000000000000000000"
                    },
                    {
                        "current": "0x0000000000000000000000000000000000000000000034c154c6b741e8974934",
                        "key": "0x5b55c21b899d40d6c00cc95facd1d867524bcacab0555e9145e418f6ce188620",
                        "prev": "0x0000000000000000000000000000000000000000000034fb5cc87de087106f34"
                    },
                    {
                        "current": "0x00000000000000000000000000000000000000000000003a0801c69e9e792600",
                        "key": "0x5f2def927ea6b692d4fcc0b69590f8c27d18ca8f998f4d7e3dcb1c3191ce60f9",
                        "prev": "0x0000000000000000000000000000000000000000000000000000000000000000"
                    },
                    {
                        "current": "0x0000000000000000000000000000000000000000000000000000000000000352",
                        "key": "0x18e628415eff51973d0ba69c74fa4708cdc197541b6289341e0e73666fb95f02",
                        "prev": "0x0000000000000000000000000000000000000000000000000000000000000351"
                    }
                ],
                "storageVariables": [
                    {
                        "name": "balanceRecords",
                        "type": "mapping(address => struct RevenueToken.BalanceRecord[])",
                        "value": {
                            "pairs": [
                                {
                                    "key": "0x0d0707963952f2fba59dd06f2b425ace40b492fe",
                                    "value": {
                                        "elemType": "struct RevenueToken.BalanceRecord",
                                        "elems": [
                                            {
                                                "index": 849,
                                                "value": {
                                                    "fields": [
                                                        {
                                                            "name": "blockNumber",
                                                            "type": "uint256",
                                                            "value": {
                                                                "current": "18373437",
                                                                "prev": "0",
                                                                "typeTag": 1
                                                            }
                                                        },
                                                        {
                                                            "name": "balance",
                                                            "type": "uint256",
                                                            "value": {
                                                                "current": "249129387486885772216628",
                                                                "prev": "0",
                                                                "typeTag": 1
                                                            }
                                                        }
                                                    ],
                                                    "typeTag": 3
                                                }
                                            }
                                        ],
                                        "typeTag": 2
                                    }
                                },
                                {
                                    "key": "0x445947140f5e1b742439f6ee24a7690d077bbb89",
                                    "value": {
                                        "elemType": "struct RevenueToken.BalanceRecord",
                                        "elems": [
                                            {
                                                "index": 16,
                                                "value": {
                                                    "fields": [
                                                        {
                                                            "name": "blockNumber",
                                                            "type": "uint256",
                                                            "value": {
                                                                "current": "18373437",
                                                                "prev": "0",
                                                                "typeTag": 1
                                                            }
                                                        },
                                                        {
                                                            "name": "balance",
                                                            "type": "uint256",
                                                            "value": {
                                                                "current": "1070488116887000000000",
                                                                "prev": "0",
                                                                "typeTag": 1
                                                            }
                                                        }
                                                    ],
                                                    "typeTag": 3
                                                }
                                            }
                                        ],
                                        "typeTag": 2
                                    }
                                }
                            ],
                            "typeTag": 4
                        }
                    },
                    {
                        "name": "_balances",
                        "type": "mapping(address => uint256)",
                        "value": {
                            "pairs": [
                                {
                                    "key": "0x0d0707963952f2fba59dd06f2b425ace40b492fe",
                                    "value": {
                                        "current": "249129387486885772216628",
                                        "prev": "250199875603772772216628",
                                        "typeTag": 1
                                    }
                                },
                                {
                                    "key": "0x445947140f5e1b742439f6ee24a7690d077bbb89",
                                    "value": {
                                        "current": "1070488116887000000000",
                                        "prev": "0",
                                        "typeTag": 1
                                    }
                                }
                            ],
                            "typeTag": 4
                        }
                    }
                ]
            }
        ]
    }
}