{
    "balance_change": {
        "balanceChanges": [
            {
                "account": "0xcad8daf1e928ef0867374e8dd21b15df54f122ab",
                "assets": [
                    {
                        "address": "0xeeeeeeeeeeeeeeeeeeeeeeeeeeeeeeeeeeeeeeee",
                        "amount": "1.924821972642955264",
                        "iconUrl": "https://assets.blocksec.com/image/1663669189317-3.png",
                        "isERC1155": false,
                        "isERC721": false,
                        "sign": true,
                        "value": ""
                    },
                    {
                        "address": "0xef0fda1d4bd73ddc2f93a4e46e2e5adbc2d668f4",
                        "amount": "1.136298137114",
                        "iconUrl": "",
                        "isERC1155": false,
                        "isERC721": false,
                        "sign": false,
                        "value": ""
                    }
                ]
            },
            {
                "account": "0x0000000000000000000000000000000000000000",
                "assets": [
                    {
                        "address": "0xef0fda1d4bd73ddc2f93a4e46e2e5adbc2d668f4",
                        "amount": "1.136298137114",
                        "iconUrl": "",
                        "isERC1155": false,
                        "isERC721": false,
                        "sign": true,
                        "value": ""
                    },
                    {
                        "address": "0x1637d548a2b13e2c91a6f1497ae875f314bd644e",
                        "amount": "0.458913319741",
                        "iconUrl": "",
                        "isERC1155": false,
                        "isERC721": false,
                        "sign": true,
                        "value": ""
                    }
                ]
            },
            {
                "account": "0x5b67871c3a857de81a1ca0f9f7945e5670d986dc",
                "assets": [
                    {
                        "address": "0x1637d548a2b13e2c91a6f1497ae875f314bd644e",
                        "amount": "0.458913319741",
                        "iconUrl": "",
                        "isERC1155": false,
                        "isERC721": false,
                        "sign": false,
                        "value": ""
                    },
                    {
                        "address": "0xc02aaa39b223fe8d0a0e5c4f27ead9083c756cc2",
                        "amount": "1.924821972642955264",
                        "iconUrl": "https://assets.blocksec.com/icon/f1cb2d02c471d545bbc7722daf3277fd852d98e63d118771af7047bd8256c516.png",
                        "isERC1155": false,
                        "isERC721": false,
                        "sign": false,
                        "value": ""
                    }
                ]
            },
            {
                "account": "0xc02aaa39b223fe8d0a0e5c4f27ead9083c756cc2",
                "assets": [
                    {
                        "address": "0xc02aaa39b223fe8d0a0e5c4f27ead9083c756cc2",
                        "amount": "1.924821972642955264",
                        "iconUrl": "https://assets.blocksec.com/icon/f1cb2d02c471d545bbc7722daf3277fd852d98e63d118771af7047bd8256c516.png",
                        "isERC1155": false,
                        "isERC721": false,
                        "sign": true,
                        "value": ""
                    },
                    {
                        "address": "0xeeeeeeeeeeeeeeeeeeeeeeeeeeeeeeeeeeeeeeee",
                        "amount": "1.924821972642955264",
                        "iconUrl": "https://assets.blocksec.com/image/1663669189317-3.png",
                        "isERC1155": false,
                        "isERC721": false,
                        "sign": false,
                        "value": ""
                    }
                ]
            }
        ]
    },
    "profile": {
        "basic_info": {
            "baseFee": "",
            "blockNumber": 10263603,
            "callData": "0xf7b00c9e000000000000000000000000ef0fda1d4bd73ddc2f93a4e46e2e5adbc2d668f40000000000000000000000000000000000000000000000000fc4f122a59e3a800000000000000000000000000000000000000000000000000000000000000001",
            "debugEnable": true,
            "errorInfo": "",
            "eventCount": 7,
            "feeRecipient": "0xea674fdde714fd979de3edf0f56aa9716b898ec8",
            "formatValue": "0",
            "gasLimit": 575000,
            "gasPrice": "16.995724321",
            "gasUsed": 328830,
            "intTxnCount": 52,
            "internalRevert": false,
            "internalRevertMessage": "",
            "isContractCreation": false,
            "isFlashloan": false,
            "maxFee": "",
            "nonce": 19,
            "overwritedBlockNumber": -1,
            "priorityFee": "",
            "receiver": "0xda6786379ff88729264d31d472fa917f5e561443",
            "revertMessage": "",
            "sender": "0xcad8daf1e928ef0867374e8dd21b15df54f122ab",
            "simulationEnable": true,
            "sourceTxnHash": "0x71cc2910611a6f505fa7b24fbe52820f893b8d81b471ef79c1f4f753d2d4d013",
            "status": true,
            "timestamp": "2020-06-14T11:28:36Z",
            "transactionFee": "0.00558870402847443",
            "txnHash": "0x71cc2910611a6f505fa7b24fbe52820f893b8d81b471ef79c1f4f753d2d4d013",
            "txnIndex": 41,
            "type": 0,
            "value": "0"
        },
        "fund_flow": [
            {
                "amount": "1.136298137114",
                "from": "0xcad8daf1e928ef0867374e8dd21b15df54f122ab",
                "id": 1,
                "isERC1155": false,
                "isERC721": false,
                "isReverted": false,
                "order": 1,
                "to": "0x0000000000000000000000000000000000000000",
                "token": "0xef0fda1d4bd73ddc2f93a4e46e2e5adbc2d668f4"
            },
            {
                "amount": "0.458913319741",
                "from": "0x5b67871c3a857de81a1ca0f9f7945e5670d986dc",
                "id": 2,
                "isERC1155": false,
                "isERC721": false,
                "isReverted": false,
                "order": 2,
                "to": "0x0000000000000000000000000000000000000000",
                "token": "0x1637d548a2b13e2c91a6f1497ae875f314bd644e"
            },
            {
                "amount": "1.924821972642955264",
                "from": "0x5b67871c3a857de81a1ca0f9f7945e5670d986dc",
                "id": 3,
                "isERC1155": false,
                "isERC721": false,
                "isReverted": false,
                "order": 3,
                "to": "0xda6786379ff88729264d31d472fa917f5e561443",
                "token": "0xc02aaa39b223fe8d0a0e5c4f27ead9083c756cc2"
            },
            {
                "amount": "1.924821972642955264",
                "from": "0xc02aaa39b223fe8d0a0e5c4f27ead9083c756cc2",
                "id": 4,
                "isERC1155": false,
                "isERC721": false,
                "isReverted": false,
                "order": 4,
                "to": "0xda6786379ff88729264d31d472fa917f5e561443",
                "token": "0xeeeeeeeeeeeeeeeeeeeeeeeeeeeeeeeeeeeeeeee"
            },
            {
                "amount": "1.924821972642955264",
                "from": "0xda6786379ff88729264d31d472fa917f5e561443",
                "id": 5,
                "isERC1155": false,
                "isERC721": false,
                "isReverted": false,
                "order": 5,
                "to": "0xc02aaa39b223fe8d0a0e5c4f27ead9083c756cc2",
                "token": "0xc02aaa39b223fe8d0a0e5c4f27ead9083c756cc2"
            },
            {
                "amount": "1.924821972642955264",
                "from": "0xda6786379ff88729264d31d472fa917f5e561443",
                "id": 6,
                "isERC1155": false,
                "isERC721": false,
                "isReverted": false,
                "order": 6,
                "to": "0xcad8daf1e928ef0867374e8dd21b15df54f122ab",
                "token": "0xeeeeeeeeeeeeeeeeeeeeeeeeeeeeeeeeeeeeeeee"
            }
        ],
        "token_infos": [
            {
                "address": "0xc02aaa39b223fe8d0a0e5c4f27ead9083c756cc2",
                "decimals": 18
            },
            {
                "address": "0xef0fda1d4bd73ddc2f93a4e46e2e5adbc2d668f4",
                "decimals": 18
            },
            {
                "address": "0xeeeeeeeeeeeeeeeeeeeeeeeeeeeeeeeeeeeeeeee",
                "decimals": 18
            },
            {
                "address": "0x1637d548a2b13e2c91a6f1497ae875f314bd644e",
                "decimals": 18
            }
        ]
    },
    "address_label": {
        "labels": [
            {
                "address": "0x5b67871c3a857de81a1ca0f9f7945e5670d986dc",
                "label": "Set: Vault"
            },
            {
                "address": "0xef0fda1d4bd73ddc2f93a4e46e2e5adbc2d668f4",
                "label": "Set: Old ETH 20 Day MA Crossover Yield Set"
            },
            {
                "address": "0x0000000000000000000000000000000000000000",
                "label": "Null Address"
            },
            {
                "address": "0x0000000000000000000000000000000000000001",
                "label": "Precompiled"
            },
            {
                "address": "0x0000000000000000000000000000000000000004",
                "label": "Precompiled"
            },
            {
                "address": "0xc02aaa39b223fe8d0a0e5c4f27ead9083c756cc2",
                "label": "Wrapped Ether (WETH)"
            },
            {
                "address": "0x5ba020a8835ed40936941562bdf42d66f65fc00f",
                "label": "AddressToAddressWhiteList"
            },
            {
                "address": "0x0000000000000000000000000000000000000003",
                "label": "Precompiled"
            },
            {
                "address": "0x0000000000000000000000000000000000000002",
                "label": "Precompiled"
            },
            {
                "address": "0xeadada7c6943c223c0d4bea475a6dacc7368f8d6",
                "label": "ERC20Wrapper"
            },
            {
                "address": "0xf55186cc537e7067ea616f2aae007b4427a120c8",
                "label": "Set: Core"
            },
            {
                "address": "0xda6786379ff88729264d31d472fa917f5e561443",
                "label": "Set: Rebalancing Set Issuance Module V2"
            },
            {
                "address": "0x1637d548a2b13e2c91a6f1497ae875f314bd644e",
                "label": "BaseAssetCollateral (BACOL)"
            },
            {
                "address": "0xc269e9396556b6afb0c38eef4a590321ff9e8d3a",
                "label": "CommonValidationsLibrary"
            },
            {
                "address": "0x5f3f534d0c5ea126150ec8078d404464339503ca",
                "label": "CoreIssuanceLibrary"
            },
            {
                "address": "0xeeeeeeeeeeeeeeeeeeeeeeeeeeeeeeeeeeeeeeee",
                "label": "Ether"
            },
            {
                "address": "0xe1cd722575801fe92eeef2ca23396557f7e3b967",
                "label": "Set: Set Token Factory"
            }
        ]
    },
    "trace": {
        "accountLabels": null,
        "dataMap": {
            "-1": {
                "invocation": {
                    "address": "0xcad8daf1e928ef0867374e8dd21b15df54f122ab",
                    "callData": "",
                    "decodedMethod": null,
                    "errorInfo": "",
                    "fromAddress": "",
                    "gasUsed": 0,
                    "id": -1,
                    "methodDecoded": false,
                    "operation": "",
                    "output": "",
                    "revert": false,
                    "revertMessage": "",
                    "selector": "",
                    "status": false,
                    "value": ""
                },
                "nodeType": 0
            },
            "0": {
                "invocation": {
                    "address": "0xda6786379ff88729264d31d472fa917f5e561443",
                    "callData": "0x000000000000000000000000ef0fda1d4bd73ddc2f93a4e46e2e5adbc2d668f40000000000000000000000000000000000000000000000000fc4f122a59e3a800000000000000000000000000000000000000000000000000000000000000001",
                    "decodedMethod": {
                        "callParams": [
                            {
                                "name": "_rebalancingSetAddress",
                                "type": "address",
                                "value": "0xef0fda1d4bd73ddc2f93a4e46e2e5adbc2d668f4"
                            },
                            {
                                "name": "_rebalancingSetQuantity",
                                "type": "uint256",
                                "value": "1,136,298,137,114,000,000"
                            },
                            {
                                "name": "_keepChangeInVault",
                                "type": "bool",
                                "value": true
                            }
                        ],
                        "constructorArguments": "",
                        "name": "redeemRebalancingSetUnwrappingEther",
                        "returnParams": [],
                        "signature": "redeemRebalancingSetUnwrappingEther(address,uint256,bool)"
                    },
                    "errorInfo": "",
                    "fromAddress": "0xcad8daf1e928ef0867374e8dd21b15df54f122ab",
                    "gasUsed": 328830,
                    "id": 0,
                    "methodDecoded": true,
                    "operation": "CALL",
                    "output": "",
                    "revert": false,
                    "revertMessage": "",
                    "selector": "0xf7b00c9e",
                    "status": true,
                    "value": "0"
                },
                "nodeType": 0
            },
            "1": {
                "invocation": {
                    "address": "0xef0fda1d4bd73ddc2f93a4e46e2e5adbc2d668f4",
                    "callData": "0x",
                    "decodedMethod": {
                        "callParams": [],
                        "constructorArguments": "",
                        "name": "currentSet",
                        "returnParams": [
                            {
                                "name": "",
                                "type": "address",
                                "value": "0x1637d548a2b13e2c91a6f1497ae875f314bd644e"
                            }
                        ],
                        "signature": "currentSet()"
                    },
                    "errorInfo": "",
                    "fromAddress": "0xda6786379ff88729264d31d472fa917f5e561443",
                    "gasUsed": 1491,
                    "id": 1,
                    "methodDecoded": true,
                    "operation": "STATICCALL",
                    "output": "0x0000000000000000000000001637d548a2b13e2c91a6f1497ae875f314bd644e",
                    "revert": false,
                    "revertMessage": "",
                    "selector": "0x30b86627",
                    "status": true,
                    "value": "0"
                },
                "nodeType": 0
            },
            "10": {
                "invocation": {
                    "address": "0xef0fda1d4bd73ddc2f93a4e46e2e5adbc2d668f4",
                    "callData": "0x",
                    "decodedMethod": {
                        "callParams": [],
                        "constructorArguments": "",
                        "name": "naturalUnit",
                        "returnParams": [
                            {
                                "name": "",
                                "type": "uint256",
                                "value": "1,000,000"
                            }
                        ],
                        "signature": "naturalUnit()"
                    },
                    "errorInfo": "",
                    "fromAddress": "0xf55186cc537e7067ea616f2aae007b4427a120c8",
                    "gasUsed": 1257,
                    "id": 10,
                    "methodDecoded": true,
                    "operation": "STATICCALL",
                    "output": "0x00000000000000000000000000000000000000000000000000000000000f4240",
                    "revert": false,
                    "revertMessage": "",
                    "selector": "0x42a7cfd5",
                    "status": true,
                    "value": "0"
                },
                "nodeType": 0
            },
            "11": {
                "invocation": {
                    "address": "0xef0fda1d4bd73ddc2f93a4e46e2e5adbc2d668f4",
                    "callData": "0x",
                    "decodedMethod": {
                        "callParams": [],
                        "constructorArguments": "",
                        "name": "getComponents",
                        "returnParams": [
                            {
                                "name": "",
                                "type": "address[]",
                                "value": [
                                    "0x1637d548a2b13e2c91a6f1497ae875f314bd644e"
                                ]
                            }
                        ],
                        "signature": "getComponents()"
                    },
                    "errorInfo": "",
                    "fromAddress": "0xf55186cc537e7067ea616f2aae007b4427a120c8",
                    "gasUsed": 2090,
                    "id": 11,
                    "methodDecoded": true,
                    "operation": "STATICCALL",
                    "output": "0x000000000000000000000000000000000000000000000000000000000000002000000000000000000000000000000000000000000000000000000000000000010000000000000000000000001637d548a2b13e2c91a6f1497ae875f314bd644e",
                    "revert": false,
                    "revertMessage": "",
                    "selector": "0x99d50d5d",
                    "status": true,
                    "value": "0"
                },
                "nodeType": 0
            },
            "12": {
                "invocation": {
                    "address": "0xef0fda1d4bd73ddc2f93a4e46e2e5adbc2d668f4",
                    "callData": "0x",
                    "decodedMethod": {
                        "callParams": [],
                        "constructorArguments": "",
                        "name": "getUnits",
                        "returnParams": [
                            {
                                "name": "",
                                "type": "uint256[]",
                                "value": [
                                    "403,867"
                                ]
                            }
                        ],
                        "signature": "getUnits()"
                    },
                    "errorInfo": "",
                    "fromAddress": "0xf55186cc537e7067ea616f2aae007b4427a120c8",
                    "gasUsed": 1769,
                    "id": 12,
                    "methodDecoded": true,
                    "operation": "STATICCALL",
                    "output": "0x00000000000000000000000000000000000000000000000000000000000000200000000000000000000000000000000000000000000000000000000000000001000000000000000000000000000000000000000000000000000000000006299b",
                    "revert": false,
                    "revertMessage": "",
                    "selector": "0x027aa9f5",
                    "status": true,
                    "value": "0"
                },
                "nodeType": 0
            },
            "13": {
                "invocation": {
                    "address": "0x5f3f534d0c5ea126150ec8078d404464339503ca",
                    "callData": "0x000000000000000000000000000000000000000000000000000000000000006000000000000000000000000000000000000000000000000000000000000f42400000000000000000000000000000000000000000000000000fc4f122a59e3a800000000000000000000000000000000000000000000000000000000000000001000000000000000000000000000000000000000000000000000000000006299b",
                    "decodedMethod": {
                        "callParams": [
                            {
                                "name": "_componentUnits",
                                "type": "uint256[]",
                                "value": [
                                    "403,867"
                                ]
                            },
                            {
                                "name": "_naturalUnit",
                                "type": "uint256",
                                "value": "1,000,000"
                            },
                            {
                                "name": "_quantity",
                                "type": "uint256",
                                "value": "1,136,298,137,114,000,000"
                            }
                        ],
                        "constructorArguments": "",
                        "name": "calculateRequiredComponentQuantities",
                        "returnParams": [
                            {
                                "name": "",
                                "type": "uint256[]",
                                "value": [
                                    "458,913,319,741,819,838"
                                ]
                            }
                        ],
                        "signature": "calculateRequiredComponentQuantities(uint256[],uint256,uint256)"
                    },
                    "errorInfo": "",
                    "fromAddress": "0xf55186cc537e7067ea616f2aae007b4427a120c8",
                    "gasUsed": 1830,
                    "id": 13,
                    "methodDecoded": true,
                    "operation": "DELEGATECALL",
                    "output": "0x00000000000000000000000000000000000000000000000000000000000000200000000000000000000000000000000000000000000000000000000000000001000000000000000000000000000000000000000000000000065e633b9de80bbe",
                    "revert": false,
                    "revertMessage": "",
                    "selector": "0x6cc34bcc",
                    "status": true,
                    "value": "0"
                },
                "nodeType": 0
            },
            "14": {
                "invocation": {
                    "address": "0x5b67871c3a857de81a1ca0f9f7945e5670d986dc",
                    "callData": "0x0000000000000000000000000000000000000000000000000000000000000060000000000000000000000000ef0fda1d4bd73ddc2f93a4e46e2e5adbc2d668f400000000000000000000000000000000000000000000000000000000000000a000000000000000000000000000000000000000000000000000000000000000010000000000000000000000001637d548a2b13e2c91a6f1497ae875f314bd644e0000000000000000000000000000000000000000000000000000000000000001000000000000000000000000000000000000000000000000065e633b9de80bbe",
                    "decodedMethod": {
                        "callParams": [
                            {
                                "name": "_tokens",
                                "type": "address[]",
                                "value": [
                                    "0x1637d548a2b13e2c91a6f1497ae875f314bd644e"
                                ]
                            },
                            {
                                "name": "_owner",
                                "type": "address",
                                "value": "0xef0fda1d4bd73ddc2f93a4e46e2e5adbc2d668f4"
                            },
                            {
                                "name": "_quantities",
                                "type": "uint256[]",
                                "value": [
                                    "458,913,319,741,819,838"
                                ]
                            }
                        ],
                        "constructorArguments": "",
                        "name": "batchDecrementTokenOwner",
                        "returnParams": [],
                        "signature": "batchDecrementTokenOwner(address[],address,uint256[])"
                    },
                    "errorInfo": "",
                    "fromAddress": "0xf55186cc537e7067ea616f2aae007b4427a120c8",
                    "gasUsed": 10149,
                    "id": 14,
                    "methodDecoded": true,
                    "operation": "CALL",
                    "output": "",
                    "revert": false,
                    "revertMessage": "",
                    "selector": "0x3911477c",
                    "status": true,
                    "value": "0"
                },
                "nodeType": 0
            },
            "15": {
                "event": {
                    "contract": "0xf55186cc537e7067ea616f2aae007b4427a120c8",
                    "decodedLog": {
                        "name": "SetRedeemed",
                        "params": [
                            {
                                "name": "_setAddress",
                                "type": "address",
                                "value": "0xef0fda1d4bd73ddc2f93a4e46e2e5adbc2d668f4"
                            },
                            {
                                "name": "_quantity",
                                "type": "uint256",
                                "value": "1,136,298,137,114,000,000"
                            }
                        ],
                        "signature": "SetRedeemed(address,uint256)"
                    },
                    "id": 15,
                    "logData": "0x000000000000000000000000ef0fda1d4bd73ddc2f93a4e46e2e5adbc2d668f40000000000000000000000000000000000000000000000000fc4f122a59e3a80",
                    "logDecoded": true,
                    "operation": "EVENT",
                    "revert": false,
                    "status": true,
                    "topics": [
                        "0x91890c0c52be4f9408213391452e5480eaff0e6ab6e4cbf17cde754f911de535"
                    ]
                },
                "nodeType": 1
            },
            "16": {
                "invocation": {
                    "address": "0xef0fda1d4bd73ddc2f93a4e46e2e5adbc2d668f4",
                    "callData": "0x",
                    "decodedMethod": {
                        "callParams": [],
                        "constructorArguments": "",
                        "name": "getComponents",
                        "returnParams": [
                            {
                                "name": "",
                                "type": "address[]",
                                "value": [
                                    "0x1637d548a2b13e2c91a6f1497ae875f314bd644e"
                                ]
                            }
                        ],
                        "signature": "getComponents()"
                    },
                    "errorInfo": "",
                    "fromAddress": "0xf55186cc537e7067ea616f2aae007b4427a120c8",
                    "gasUsed": 2090,
                    "id": 16,
                    "methodDecoded": true,
                    "operation": "STATICCALL",
                    "output": "0x000000000000000000000000000000000000000000000000000000000000002000000000000000000000000000000000000000000000000000000000000000010000000000000000000000001637d548a2b13e2c91a6f1497ae875f314bd644e",
                    "revert": false,
                    "revertMessage": "",
                    "selector": "0x99d50d5d",
                    "status": true,
                    "value": "0"
                },
                "nodeType": 0
            },
            "17": {
                "invocation": {
                    "address": "0x5b67871c3a857de81a1ca0f9f7945e5670d986dc",
                    "callData": "0x0000000000000000000000000000000000000000000000000000000000000060000000000000000000000000da6786379ff88729264d31d472fa917f5e56144300000000000000000000000000000000000000000000000000000000000000a000000000000000000000000000000000000000000000000000000000000000010000000000000000000000001637d548a2b13e2c91a6f1497ae875f314bd644e0000000000000000000000000000000000000000000000000000000000000001000000000000000000000000000000000000000000000000065e633b9de80bbe",
                    "decodedMethod": {
                        "callParams": [
                            {
                                "name": "_tokens",
                                "type": "address[]",
                                "value": [
                                    "0x1637d548a2b13e2c91a6f1497ae875f314bd644e"
                                ]
                            },
                            {
                                "name": "_owner",
                                "type": "address",
                                "value": "0xda6786379ff88729264d31d472fa917f5e561443"
                            },
                            {
                                "name": "_quantities",
                                "type": "uint256[]",
                                "value": [
                                    "458,913,319,741,819,838"
                                ]
                            }
                        ],
                        "constructorArguments": "",
                        "name": "batchIncrementTokenOwner",
                        "returnParams": [],
                        "signature": "batchIncrementTokenOwner(address[],address,uint256[])"
                    },
                    "errorInfo": "",
                    "fromAddress": "0xf55186cc537e7067ea616f2aae007b4427a120c8",
                    "gasUsed": 24112,
                    "id": 17,
                    "methodDecoded": true,
                    "operation": "CALL",
                    "output": "",
                    "revert": false,
                    "revertMessage": "",
                    "selector": "0x12a3bbe3",
                    "status": true,
                    "value": "0"
                },
                "nodeType": 0
            },
            "18": {
                "invocation": {
                    "address": "0x1637d548a2b13e2c91a6f1497ae875f314bd644e",
                    "callData": "0x",
                    "decodedMethod": {
                        "callParams": [],
                        "constructorArguments": "",
                        "name": "naturalUnit",
                        "returnParams": [
                            {
                                "name": "",
                                "type": "uint256",
                                "value": "1,000,000"
                            }
                        ],
                        "signature": "naturalUnit()"
                    },
                    "errorInfo": "",
                    "fromAddress": "0xda6786379ff88729264d31d472fa917f5e561443",
                    "gasUsed": 1177,
                    "id": 18,
                    "methodDecoded": true,
                    "operation": "STATICCALL",
                    "output": "0x00000000000000000000000000000000000000000000000000000000000f4240",
                    "revert": false,
                    "revertMessage": "",
                    "selector": "0x42a7cfd5",
                    "status": true,
                    "value": "0"
                },
                "nodeType": 0
            },
            "19": {
                "invocation": {
                    "address": "0x5b67871c3a857de81a1ca0f9f7945e5670d986dc",
                    "callData": "0x0000000000000000000000001637d548a2b13e2c91a6f1497ae875f314bd644e000000000000000000000000da6786379ff88729264d31d472fa917f5e561443",
                    "decodedMethod": {
                        "callParams": [
                            {
                                "name": "_token",
                                "type": "address",
                                "value": "0x1637d548a2b13e2c91a6f1497ae875f314bd644e"
                            },
                            {
                                "name": "_owner",
                                "type": "address",
                                "value": "0xda6786379ff88729264d31d472fa917f5e561443"
                            }
                        ],
                        "constructorArguments": "",
                        "name": "getOwnerBalance",
                        "returnParams": [
                            {
                                "name": "",
                                "type": "uint256",
                                "value": "458,913,319,741,819,838"
                            }
                        ],
                        "signature": "getOwnerBalance(address,address)"
                    },
                    "errorInfo": "",
                    "fromAddress": "0xda6786379ff88729264d31d472fa917f5e561443",
                    "gasUsed": 1439,
                    "id": 19,
                    "methodDecoded": true,
                    "operation": "STATICCALL",
                    "output": "0x000000000000000000000000000000000000000000000000065e633b9de80bbe",
                    "revert": false,
                    "revertMessage": "",
                    "selector": "0x1f98ade3",
                    "status": true,
                    "value": "0"
                },
                "nodeType": 0
            },
            "2": {
                "invocation": {
                    "address": "0x1637d548a2b13e2c91a6f1497ae875f314bd644e",
                    "callData": "0x000000000000000000000000c02aaa39b223fe8d0a0e5c4f27ead9083c756cc2",
                    "decodedMethod": {
                        "callParams": [
                            {
                                "name": "_tokenAddress",
                                "type": "address",
                                "value": "0xc02aaa39b223fe8d0a0e5c4f27ead9083c756cc2"
                            }
                        ],
                        "constructorArguments": "",
                        "name": "tokenIsComponent",
                        "returnParams": [
                            {
                                "name": "",
                                "type": "bool",
                                "value": true
                            }
                        ],
                        "signature": "tokenIsComponent(address)"
                    },
                    "errorInfo": "",
                    "fromAddress": "0xda6786379ff88729264d31d472fa917f5e561443",
                    "gasUsed": 1448,
                    "id": 2,
                    "methodDecoded": true,
                    "operation": "STATICCALL",
                    "output": "0x0000000000000000000000000000000000000000000000000000000000000001",
                    "revert": false,
                    "revertMessage": "",
                    "selector": "0x18c53aca",
                    "status": true,
                    "value": "0"
                },
                "nodeType": 0
            },
            "20": {
                "invocation": {
                    "address": "0xf55186cc537e7067ea616f2aae007b4427a120c8",
                    "callData": "0x0000000000000000000000001637d548a2b13e2c91a6f1497ae875f314bd644e000000000000000000000000000000000000000000000000065e633b9ddb8940",
                    "decodedMethod": {
                        "callParams": [
                            {
                                "name": "_set",
                                "type": "address",
                                "value": "0x1637d548a2b13e2c91a6f1497ae875f314bd644e"
                            },
                            {
                                "name": "_quantity",
                                "type": "uint256",
                                "value": "458,913,319,741,000,000"
                            }
                        ],
                        "constructorArguments": "",
                        "name": "redeemInVault",
                        "returnParams": [],
                        "signature": "redeemInVault(address,uint256)"
                    },
                    "errorInfo": "",
                    "fromAddress": "0xda6786379ff88729264d31d472fa917f5e561443",
                    "gasUsed": 105293,
                    "id": 20,
                    "methodDecoded": true,
                    "operation": "CALL",
                    "output": "",
                    "revert": false,
                    "revertMessage": "",
                    "selector": "0xa782132c",
                    "status": true,
                    "value": "0"
                },
                "nodeType": 0
            },
            "21": {
                "invocation": {
                    "address": "0x5b67871c3a857de81a1ca0f9f7945e5670d986dc",
                    "callData": "0x0000000000000000000000001637d548a2b13e2c91a6f1497ae875f314bd644e000000000000000000000000da6786379ff88729264d31d472fa917f5e561443000000000000000000000000000000000000000000000000065e633b9ddb8940",
                    "decodedMethod": {
                        "callParams": [
                            {
                                "name": "_token",
                                "type": "address",
                                "value": "0x1637d548a2b13e2c91a6f1497ae875f314bd644e"
                            },
                            {
                                "name": "_owner",
                                "type": "address",
                                "value": "0xda6786379ff88729264d31d472fa917f5e561443"
                            },
                            {
                                "name": "_quantity",
                                "type": "uint256",
                                "value": "458,913,319,741,000,000"
                            }
                        ],
                        "constructorArguments": "",
                        "name": "decrementTokenOwner",
                        "returnParams": [],
                        "signature": "decrementTokenOwner(address,address,uint256)"
                    },
                    "errorInfo": "",
                    "fromAddress": "0xf55186cc537e7067ea616f2aae007b4427a120c8",
                    "gasUsed": 4422,
                    "id": 21,
                    "methodDecoded": true,
                    "operation": "CALL",
                    "output": "",
                    "revert": false,
                    "revertMessage": "",
                    "selector": "0x80ddda30",
                    "status": true,
                    "value": "0"
                },
                "nodeType": 0
            },
            "22": {
                "invocation": {
                    "address": "0xdc733ec262f32882f7c05525cc2d09f2c04d86ac",
                    "callData": "0x0000000000000000000000001637d548a2b13e2c91a6f1497ae875f314bd644e000000000000000000000000000000000000000000000000065e633b9ddb8940",
                    "decodedMethod": null,
                    "errorInfo": "",
                    "fromAddress": "0xf55186cc537e7067ea616f2aae007b4427a120c8",
                    "gasUsed": 3597,
                    "id": 22,
                    "methodDecoded": false,
                    "operation": "DELEGATECALL",
                    "output": "",
                    "revert": false,
                    "revertMessage": "",
                    "selector": "0x49468457",
                    "status": true,
                    "value": "0"
                },
                "nodeType": 0
            },
            "23": {
                "invocation": {
                    "address": "0x1637d548a2b13e2c91a6f1497ae875f314bd644e",
                    "callData": "0x",
                    "decodedMethod": {
                        "callParams": [],
                        "constructorArguments": "",
                        "name": "naturalUnit",
                        "returnParams": [
                            {
                                "name": "",
                                "type": "uint256",
                                "value": "1,000,000"
                            }
                        ],
                        "signature": "naturalUnit()"
                    },
                    "errorInfo": "",
                    "fromAddress": "0xf55186cc537e7067ea616f2aae007b4427a120c8",
                    "gasUsed": 1177,
                    "id": 23,
                    "methodDecoded": true,
                    "operation": "STATICCALL",
                    "output": "0x00000000000000000000000000000000000000000000000000000000000f4240",
                    "revert": false,
                    "revertMessage": "",
                    "selector": "0x42a7cfd5",
                    "status": true,
                    "value": "0"
                },
                "nodeType": 0
            },
            "24": {
                "invocation": {
                    "address": "0x1637d548a2b13e2c91a6f1497ae875f314bd644e",
                    "callData": "0x0000000000000000000000005b67871c3a857de81a1ca0f9f7945e5670d986dc000000000000000000000000000000000000000000000000065e633b9ddb8940",
                    "decodedMethod": {
                        "callParams": [
                            {
                                "name": "_from",
                                "type": "address",
                                "value": "0x5b67871c3a857de81a1ca0f9f7945e5670d986dc"
                            },
                            {
                                "name": "_quantity",
                                "type": "uint256",
                                "value": "458,913,319,741,000,000"
                            }
                        ],
                        "constructorArguments": "",
                        "name": "burn",
                        "returnParams": [],
                        "signature": "burn(address,uint256)"
                    },
                    "errorInfo": "",
                    "fromAddress": "0xf55186cc537e7067ea616f2aae007b4427a120c8",
                    "gasUsed": 18172,
                    "id": 24,
                    "methodDecoded": true,
                    "operation": "CALL",
                    "output": "",
                    "revert": false,
                    "revertMessage": "",
                    "selector": "0x9dc29fac",
                    "status": true,
                    "value": "0"
                },
                "nodeType": 0
            },
            "25": {
                "invocation": {
                    "address": "0xe1cd722575801fe92eeef2ca23396557f7e3b967",
                    "callData": "0x",
                    "decodedMethod": {
                        "callParams": [],
                        "constructorArguments": "",
                        "name": "core",
                        "returnParams": [
                            {
                                "name": "",
                                "type": "address",
                                "value": "0xf55186cc537e7067ea616f2aae007b4427a120c8"
                            }
                        ],
                        "signature": "core()"
                    },
                    "errorInfo": "",
                    "fromAddress": "0x1637d548a2b13e2c91a6f1497ae875f314bd644e",
                    "gasUsed": 1015,
                    "id": 25,
                    "methodDecoded": true,
                    "operation": "CALL",
                    "output": "0x000000000000000000000000f55186cc537e7067ea616f2aae007b4427a120c8",
                    "revert": false,
                    "revertMessage": "",
                    "selector": "0xf2f4eb26",
                    "status": true,
                    "value": "0"
                },
                "nodeType": 0
            },
            "26": {
                "event": {
                    "contract": "0x1637d548a2b13e2c91a6f1497ae875f314bd644e",
                    "decodedLog": {
                        "name": "Transfer",
                        "params": [
                            {
                                "name": "from",
                                "type": "address",
                                "value": "0x5b67871c3a857de81a1ca0f9f7945e5670d986dc"
                            },
                            {
                                "name": "to",
                                "type": "address",
                                "value": "0x0000000000000000000000000000000000000000"
                            },
                            {
                                "decimalAvailable": true,
                                "name": "value",
                                "type": "uint256",
                                "value": "458,913,319,741,000,000"
                            }
                        ],
                        "signature": "Transfer(address,address,uint256)"
                    },
                    "id": 26,
                    "logData": "0x000000000000000000000000000000000000000000000000065e633b9ddb8940",
                    "logDecoded": true,
                    "operation": "EVENT",
                    "revert": false,
                    "status": true,
                    "topics": [
                        "0xddf252ad1be2c89b69c2b068fc378daa952ba7f163c4a11628f55a4df523b3ef",
                        "0x0000000000000000000000005b67871c3a857de81a1ca0f9f7945e5670d986dc",
                        "0x0000000000000000000000000000000000000000000000000000000000000000"
                    ]
                },
                "nodeType": 1
            },
            "27": {
                "invocation": {
                    "address": "0x1637d548a2b13e2c91a6f1497ae875f314bd644e",
                    "callData": "0x",
                    "decodedMethod": {
                        "callParams": [],
                        "constructorArguments": "",
                        "name": "naturalUnit",
                        "returnParams": [
                            {
                                "name": "",
                                "type": "uint256",
                                "value": "1,000,000"
                            }
                        ],
                        "signature": "naturalUnit()"
                    },
                    "errorInfo": "",
                    "fromAddress": "0xf55186cc537e7067ea616f2aae007b4427a120c8",
                    "gasUsed": 1177,
                    "id": 27,
                    "methodDecoded": true,
                    "operation": "STATICCALL",
                    "output": "0x00000000000000000000000000000000000000000000000000000000000f4240",
                    "revert": false,
                    "revertMessage": "",
                    "selector": "0x42a7cfd5",
                    "status": true,
                    "value": "0"
                },
                "nodeType": 0
            },
            "28": {
                "invocation": {
                    "address": "0x1637d548a2b13e2c91a6f1497ae875f314bd644e",
                    "callData": "0x",
                    "decodedMethod": {
                        "callParams": [],
                        "constructorArguments": "",
                        "name": "getComponents",
                        "returnParams": [
                            {
                                "name": "",
                                "type": "address[]",
                                "value": [
                                    "0xc02aaa39b223fe8d0a0e5c4f27ead9083c756cc2"
                                ]
                            }
                        ],
                        "signature": "getComponents()"
                    },
                    "errorInfo": "",
                    "fromAddress": "0xf55186cc537e7067ea616f2aae007b4427a120c8",
                    "gasUsed": 3248,
                    "id": 28,
                    "methodDecoded": true,
                    "operation": "STATICCALL",
                    "output": "0x00000000000000000000000000000000000000000000000000000000000000200000000000000000000000000000000000000000000000000000000000000001000000000000000000000000c02aaa39b223fe8d0a0e5c4f27ead9083c756cc2",
                    "revert": false,
                    "revertMessage": "",
                    "selector": "0x99d50d5d",
                    "status": true,
                    "value": "0"
                },
                "nodeType": 0
            },
            "29": {
                "invocation": {
                    "address": "0x1637d548a2b13e2c91a6f1497ae875f314bd644e",
                    "callData": "0x",
                    "decodedMethod": {
                        "callParams": [],
                        "constructorArguments": "",
                        "name": "getUnits",
                        "returnParams": [
                            {
                                "name": "",
                                "type": "uint256[]",
                                "value": [
                                    "4,194,304"
                                ]
                            }
                        ],
                        "signature": "getUnits()"
                    },
                    "errorInfo": "",
                    "fromAddress": "0xf55186cc537e7067ea616f2aae007b4427a120c8",
                    "gasUsed": 3128,
                    "id": 29,
                    "methodDecoded": true,
                    "operation": "STATICCALL",
                    "output": "0x000000000000000000000000000000000000000000000000000000000000002000000000000000000000000000000000000000000000000000000000000000010000000000000000000000000000000000000000000000000000000000400000",
                    "revert": false,
                    "revertMessage": "",
                    "selector": "0x027aa9f5",
                    "status": true,
                    "value": "0"
                },
                "nodeType": 0
            },
            "3": {
                "invocation": {
                    "address": "0xf55186cc537e7067ea616f2aae007b4427a120c8",
                    "callData": "0x000000000000000000000000ef0fda1d4bd73ddc2f93a4e46e2e5adbc2d668f4",
                    "decodedMethod": {
                        "callParams": [
                            {
                                "name": "_set",
                                "type": "address",
                                "value": "0xef0fda1d4bd73ddc2f93a4e46e2e5adbc2d668f4"
                            }
                        ],
                        "constructorArguments": "",
                        "name": "validSets",
                        "returnParams": [
                            {
                                "name": "",
                                "type": "bool",
                                "value": true
                            }
                        ],
                        "signature": "validSets(address)"
                    },
                    "errorInfo": "",
                    "fromAddress": "0xda6786379ff88729264d31d472fa917f5e561443",
                    "gasUsed": 1468,
                    "id": 3,
                    "methodDecoded": true,
                    "operation": "STATICCALL",
                    "output": "0x0000000000000000000000000000000000000000000000000000000000000001",
                    "revert": false,
                    "revertMessage": "",
                    "selector": "0xfef3ee73",
                    "status": true,
                    "value": "0"
                },
                "nodeType": 0
            },
            "30": {
                "invocation": {
                    "address": "0x5f3f534d0c5ea126150ec8078d404464339503ca",
                    "callData": "0x000000000000000000000000000000000000000000000000000000000000006000000000000000000000000000000000000000000000000000000000000f4240000000000000000000000000000000000000000000000000065e633b9ddb894000000000000000000000000000000000000000000000000000000000000000010000000000000000000000000000000000000000000000000000000000400000",
                    "decodedMethod": {
                        "callParams": [
                            {
                                "name": "_componentUnits",
                                "type": "uint256[]",
                                "value": [
                                    "4,194,304"
                                ]
                            },
                            {
                                "name": "_naturalUnit",
                                "type": "uint256",
                                "value": "1,000,000"
                            },
                            {
                                "name": "_quantity",
                                "type": "uint256",
                                "value": "458,913,319,741,000,000"
                            }
                        ],
                        "constructorArguments": "",
                        "name": "calculateRequiredComponentQuantities",
                        "returnParams": [
                            {
                                "name": "",
                                "type": "uint256[]",
                                "value": [
                                    "1,924,821,972,642,955,264"
                                ]
                            }
                        ],
                        "signature": "calculateRequiredComponentQuantities(uint256[],uint256,uint256)"
                    },
                    "errorInfo": "",
                    "fromAddress": "0xf55186cc537e7067ea616f2aae007b4427a120c8",
                    "gasUsed": 1830,
                    "id": 30,
                    "methodDecoded": true,
                    "operation": "DELEGATECALL",
                    "output": "0x000000000000000000000000000000000000000000000000000000000000002000000000000000000000000000000000000000000000000000000000000000010000000000000000000000000000000000000000000000001ab65762cf400000",
                    "revert": false,
                    "revertMessage": "",
                    "selector": "0x6cc34bcc",
                    "status": true,
                    "value": "0"
                },
                "nodeType": 0
            },
            "31": {
                "invocation": {
                    "address": "0x5b67871c3a857de81a1ca0f9f7945e5670d986dc",
                    "callData": "0x00000000000000000000000000000000000000000000000000000000000000600000000000000000000000001637d548a2b13e2c91a6f1497ae875f314bd644e00000000000000000000000000000000000000000000000000000000000000a00000000000000000000000000000000000000000000000000000000000000001000000000000000000000000c02aaa39b223fe8d0a0e5c4f27ead9083c756cc200000000000000000000000000000000000000000000000000000000000000010000000000000000000000000000000000000000000000001ab65762cf400000",
                    "decodedMethod": {
                        "callParams": [
                            {
                                "name": "_tokens",
                                "type": "address[]",
                                "value": [
                                    "0xc02aaa39b223fe8d0a0e5c4f27ead9083c756cc2"
                                ]
                            },
                            {
                                "name": "_owner",
                                "type": "address",
                                "value": "0x1637d548a2b13e2c91a6f1497ae875f314bd644e"
                            },
                            {
                                "name": "_quantities",
                                "type": "uint256[]",
                                "value": [
                                    "1,924,821,972,642,955,264"
                                ]
                            }
                        ],
                        "constructorArguments": "",
                        "name": "batchDecrementTokenOwner",
                        "returnParams": [],
                        "signature": "batchDecrementTokenOwner(address[],address,uint256[])"
                    },
                    "errorInfo": "",
                    "fromAddress": "0xf55186cc537e7067ea616f2aae007b4427a120c8",
                    "gasUsed": 10149,
                    "id": 31,
                    "methodDecoded": true,
                    "operation": "CALL",
                    "output": "",
                    "revert": false,
                    "revertMessage": "",
                    "selector": "0x3911477c",
                    "status": true,
                    "value": "0"
                },
                "nodeType": 0
            },
            "32": {
                "event": {
                    "contract": "0xf55186cc537e7067ea616f2aae007b4427a120c8",
                    "decodedLog": {
                        "name": "SetRedeemed",
                        "params": [
                            {
                                "name": "_setAddress",
                                "type": "address",
                                "value": "0x1637d548a2b13e2c91a6f1497ae875f314bd644e"
                            },
                            {
                                "name": "_quantity",
                                "type": "uint256",
                                "value": "458,913,319,741,000,000"
                            }
                        ],
                        "signature": "SetRedeemed(address,uint256)"
                    },
                    "id": 32,
                    "logData": "0x0000000000000000000000001637d548a2b13e2c91a6f1497ae875f314bd644e000000000000000000000000000000000000000000000000065e633b9ddb8940",
                    "logDecoded": true,
                    "operation": "EVENT",
                    "revert": false,
                    "status": true,
                    "topics": [
                        "0x91890c0c52be4f9408213391452e5480eaff0e6ab6e4cbf17cde754f911de535"
                    ]
                },
                "nodeType": 1
            },
            "33": {
                "invocation": {
                    "address": "0x1637d548a2b13e2c91a6f1497ae875f314bd644e",
                    "callData": "0x",
                    "decodedMethod": {
                        "callParams": [],
                        "constructorArguments": "",
                        "name": "getComponents",
                        "returnParams": [
                            {
                                "name": "",
                                "type": "address[]",
                                "value": [
                                    "0xc02aaa39b223fe8d0a0e5c4f27ead9083c756cc2"
                                ]
                            }
                        ],
                        "signature": "getComponents()"
                    },
                    "errorInfo": "",
                    "fromAddress": "0xf55186cc537e7067ea616f2aae007b4427a120c8",
                    "gasUsed": 3248,
                    "id": 33,
                    "methodDecoded": true,
                    "operation": "STATICCALL",
                    "output": "0x00000000000000000000000000000000000000000000000000000000000000200000000000000000000000000000000000000000000000000000000000000001000000000000000000000000c02aaa39b223fe8d0a0e5c4f27ead9083c756cc2",
                    "revert": false,
                    "revertMessage": "",
                    "selector": "0x99d50d5d",
                    "status": true,
                    "value": "0"
                },
                "nodeType": 0
            },
            "34": {
                "invocation": {
                    "address": "0x5b67871c3a857de81a1ca0f9f7945e5670d986dc",
                    "callData": "0x0000000000000000000000000000000000000000000000000000000000000060000000000000000000000000da6786379ff88729264d31d472fa917f5e56144300000000000000000000000000000000000000000000000000000000000000a00000000000000000000000000000000000000000000000000000000000000001000000000000000000000000c02aaa39b223fe8d0a0e5c4f27ead9083c756cc200000000000000000000000000000000000000000000000000000000000000010000000000000000000000000000000000000000000000001ab65762cf400000",
                    "decodedMethod": {
                        "callParams": [
                            {
                                "name": "_tokens",
                                "type": "address[]",
                                "value": [
                                    "0xc02aaa39b223fe8d0a0e5c4f27ead9083c756cc2"
                                ]
                            },
                            {
                                "name": "_owner",
                                "type": "address",
                                "value": "0xda6786379ff88729264d31d472fa917f5e561443"
                            },
                            {
                                "name": "_quantities",
                                "type": "uint256[]",
                                "value": [
                                    "1,924,821,972,642,955,264"
                                ]
                            }
                        ],
                        "constructorArguments": "",
                        "name": "batchIncrementTokenOwner",
                        "returnParams": [],
                        "signature": "batchIncrementTokenOwner(address[],address,uint256[])"
                    },
                    "errorInfo": "",
                    "fromAddress": "0xf55186cc537e7067ea616f2aae007b4427a120c8",
                    "gasUsed": 24112,
                    "id": 34,
                    "methodDecoded": true,
                    "operation": "CALL",
                    "output": "",
                    "revert": false,
                    "revertMessage": "",
                    "selector": "0x12a3bbe3",
                    "status": true,
                    "value": "0"
                },
                "nodeType": 0
            },
            "35": {
                "invocation": {
                    "address": "0x1637d548a2b13e2c91a6f1497ae875f314bd644e",
                    "callData": "0x",
                    "decodedMethod": {
                        "callParams": [],
                        "constructorArguments": "",
                        "name": "getComponents",
                        "returnParams": [
                            {
                                "name": "",
                                "type": "address[]",
                                "value": [
                                    "0xc02aaa39b223fe8d0a0e5c4f27ead9083c756cc2"
                                ]
                            }
                        ],
                        "signature": "getComponents()"
                    },
                    "errorInfo": "",
                    "fromAddress": "0xda6786379ff88729264d31d472fa917f5e561443",
                    "gasUsed": 3248,
                    "id": 35,
                    "methodDecoded": true,
                    "operation": "STATICCALL",
                    "output": "0x00000000000000000000000000000000000000000000000000000000000000200000000000000000000000000000000000000000000000000000000000000001000000000000000000000000c02aaa39b223fe8d0a0e5c4f27ead9083c756cc2",
                    "revert": false,
                    "revertMessage": "",
                    "selector": "0x99d50d5d",
                    "status": true,
                    "value": "0"
                },
                "nodeType": 0
            },
            "36": {
                "invocation": {
                    "address": "0x5b67871c3a857de81a1ca0f9f7945e5670d986dc",
                    "callData": "0x000000000000000000000000c02aaa39b223fe8d0a0e5c4f27ead9083c756cc2000000000000000000000000da6786379ff88729264d31d472fa917f5e561443",
                    "decodedMethod": {
                        "callParams": [
                            {
                                "name": "_token",
                                "type": "address",
                                "value": "0xc02aaa39b223fe8d0a0e5c4f27ead9083c756cc2"
                            },
                            {
                                "name": "_owner",
                                "type": "address",
                                "value": "0xda6786379ff88729264d31d472fa917f5e561443"
                            }
                        ],
                        "constructorArguments": "",
                        "name": "getOwnerBalance",
                        "returnParams": [
                            {
                                "name": "",
                                "type": "uint256",
                                "value": "1,924,821,972,642,955,264"
                            }
                        ],
                        "signature": "getOwnerBalance(address,address)"
                    },
                    "errorInfo": "",
                    "fromAddress": "0xda6786379ff88729264d31d472fa917f5e561443",
                    "gasUsed": 1439,
                    "id": 36,
                    "methodDecoded": true,
                    "operation": "STATICCALL",
                    "output": "0x0000000000000000000000000000000000000000000000001ab65762cf400000",
                    "revert": false,
                    "revertMessage": "",
                    "selector": "0x1f98ade3",
                    "status": true,
                    "value": "0"
                },
                "nodeType": 0
            },
            "37": {
                "invocation": {
                    "address": "0x5ba020a8835ed40936941562bdf42d66f65fc00f",
                    "callData": "0x000000000000000000000000c02aaa39b223fe8d0a0e5c4f27ead9083c756cc2",
                    "decodedMethod": {
                        "callParams": [
                            {
                                "name": "",
                                "type": "address",
                                "value": "0xc02aaa39b223fe8d0a0e5c4f27ead9083c756cc2"
                            }
                        ],
                        "constructorArguments": "",
                        "name": "whitelist",
                        "returnParams": [
                            {
                                "name": "",
                                "type": "address",
                                "value": "0x0000000000000000000000000000000000000000"
                            }
                        ],
                        "signature": "whitelist(address)"
                    },
                    "errorInfo": "",
                    "fromAddress": "0xda6786379ff88729264d31d472fa917f5e561443",
                    "gasUsed": 1428,
                    "id": 37,
                    "methodDecoded": true,
                    "operation": "STATICCALL",
                    "output": "0x0000000000000000000000000000000000000000000000000000000000000000",
                    "revert": false,
                    "revertMessage": "",
                    "selector": "0x9b19251a",
                    "status": true,
                    "value": "0"
                },
                "nodeType": 0
            },
            "38": {
                "invocation": {
                    "address": "0xf55186cc537e7067ea616f2aae007b4427a120c8",
                    "callData": "0x000000000000000000000000da6786379ff88729264d31d472fa917f5e561443000000000000000000000000da6786379ff88729264d31d472fa917f5e561443000000000000000000000000c02aaa39b223fe8d0a0e5c4f27ead9083c756cc20000000000000000000000000000000000000000000000001ab65762cf400000",
                    "decodedMethod": {
                        "callParams": [
                            {
                                "name": "_from",
                                "type": "address",
                                "value": "0xda6786379ff88729264d31d472fa917f5e561443"
                            },
                            {
                                "name": "_to",
                                "type": "address",
                                "value": "0xda6786379ff88729264d31d472fa917f5e561443"
                            },
                            {
                                "name": "_token",
                                "type": "address",
                                "value": "0xc02aaa39b223fe8d0a0e5c4f27ead9083c756cc2"
                            },
                            {
                                "name": "_quantity",
                                "type": "uint256",
                                "value": "1,924,821,972,642,955,264"
                            }
                        ],
                        "constructorArguments": "",
                        "name": "withdrawModule",
                        "returnParams": [],
                        "signature": "withdrawModule(address,address,address,uint256)"
                    },
                    "errorInfo": "",
                    "fromAddress": "0xda6786379ff88729264d31d472fa917f5e561443",
                    "gasUsed": 65822,
                    "id": 38,
                    "methodDecoded": true,
                    "operation": "CALL",
                    "output": "",
                    "revert": false,
                    "revertMessage": "",
                    "selector": "0x0e1fd334",
                    "status": true,
                    "value": "0"
                },
                "nodeType": 0
            },
            "39": {
                "invocation": {
                    "address": "0xc269e9396556b6afb0c38eef4a590321ff9e8d3a",
                    "callData": "0x00000000000000000000000000000000000000000000000000000000000000200000000000000000000000000000000000000000000000000000000000000001000000000000000000000000c02aaa39b223fe8d0a0e5c4f27ead9083c756cc2",
                    "decodedMethod": {
                        "callParams": [
                            {
                                "name": "_addressArray",
                                "type": "address[]",
                                "value": [
                                    "0xc02aaa39b223fe8d0a0e5c4f27ead9083c756cc2"
                                ]
                            }
                        ],
                        "constructorArguments": "",
                        "name": "validateNonEmpty",
                        "returnParams": [],
                        "signature": "validateNonEmpty(address[])"
                    },
                    "errorInfo": "",
                    "fromAddress": "0xf55186cc537e7067ea616f2aae007b4427a120c8",
                    "gasUsed": 361,
                    "id": 39,
                    "methodDecoded": true,
                    "operation": "DELEGATECALL",
                    "output": "",
                    "revert": false,
                    "revertMessage": "",
                    "selector": "0x64cf166f",
                    "status": true,
                    "value": "0"
                },
                "nodeType": 0
            },
            "4": {
                "invocation": {
                    "address": "0xef0fda1d4bd73ddc2f93a4e46e2e5adbc2d668f4",
                    "callData": "0x",
                    "decodedMethod": {
                        "callParams": [],
                        "constructorArguments": "",
                        "name": "naturalUnit",
                        "returnParams": [
                            {
                                "name": "",
                                "type": "uint256",
                                "value": "1,000,000"
                            }
                        ],
                        "signature": "naturalUnit()"
                    },
                    "errorInfo": "",
                    "fromAddress": "0xda6786379ff88729264d31d472fa917f5e561443",
                    "gasUsed": 1257,
                    "id": 4,
                    "methodDecoded": true,
                    "operation": "STATICCALL",
                    "output": "0x00000000000000000000000000000000000000000000000000000000000f4240",
                    "revert": false,
                    "revertMessage": "",
                    "selector": "0x42a7cfd5",
                    "status": true,
                    "value": "0"
                },
                "nodeType": 0
            },
            "40": {
                "invocation": {
                    "address": "0xc269e9396556b6afb0c38eef4a590321ff9e8d3a",
                    "callData": "0x000000000000000000000000000000000000000000000000000000000000004000000000000000000000000000000000000000000000000000000000000000800000000000000000000000000000000000000000000000000000000000000001000000000000000000000000c02aaa39b223fe8d0a0e5c4f27ead9083c756cc200000000000000000000000000000000000000000000000000000000000000010000000000000000000000000000000000000000000000001ab65762cf400000",
                    "decodedMethod": {
                        "callParams": [
                            {
                                "name": "_addressArray",
                                "type": "address[]",
                                "value": [
                                    "0xc02aaa39b223fe8d0a0e5c4f27ead9083c756cc2"
                                ]
                            },
                            {
                                "name": "_uint256Array",
                                "type": "uint256[]",
                                "value": [
                                    "1,924,821,972,642,955,264"
                                ]
                            }
                        ],
                        "constructorArguments": "",
                        "name": "validateEqualLength",
                        "returnParams": [],
                        "signature": "validateEqualLength(address[],uint256[])"
                    },
                    "errorInfo": "",
                    "fromAddress": "0xf55186cc537e7067ea616f2aae007b4427a120c8",
                    "gasUsed": 516,
                    "id": 40,
                    "methodDecoded": true,
                    "operation": "DELEGATECALL",
                    "output": "",
                    "revert": false,
                    "revertMessage": "",
                    "selector": "0x2c183f43",
                    "status": true,
                    "value": "0"
                },
                "nodeType": 0
            },
            "41": {
                "invocation": {
                    "address": "0x5b67871c3a857de81a1ca0f9f7945e5670d986dc",
                    "callData": "0x0000000000000000000000000000000000000000000000000000000000000060000000000000000000000000da6786379ff88729264d31d472fa917f5e56144300000000000000000000000000000000000000000000000000000000000000a00000000000000000000000000000000000000000000000000000000000000001000000000000000000000000c02aaa39b223fe8d0a0e5c4f27ead9083c756cc200000000000000000000000000000000000000000000000000000000000000010000000000000000000000000000000000000000000000001ab65762cf400000",
                    "decodedMethod": {
                        "callParams": [
                            {
                                "name": "_tokens",
                                "type": "address[]",
                                "value": [
                                    "0xc02aaa39b223fe8d0a0e5c4f27ead9083c756cc2"
                                ]
                            },
                            {
                                "name": "_owner",
                                "type": "address",
                                "value": "0xda6786379ff88729264d31d472fa917f5e561443"
                            },
                            {
                                "name": "_quantities",
                                "type": "uint256[]",
                                "value": [
                                    "1,924,821,972,642,955,264"
                                ]
                            }
                        ],
                        "constructorArguments": "",
                        "name": "batchDecrementTokenOwner",
                        "returnParams": [],
                        "signature": "batchDecrementTokenOwner(address[],address,uint256[])"
                    },
                    "errorInfo": "",
                    "fromAddress": "0xf55186cc537e7067ea616f2aae007b4427a120c8",
                    "gasUsed": 5949,
                    "id": 41,
                    "methodDecoded": true,
                    "operation": "CALL",
                    "output": "",
                    "revert": false,
                    "revertMessage": "",
                    "selector": "0x3911477c",
                    "status": true,
                    "value": "0"
                },
                "nodeType": 0
            },
            "42": {
                "invocation": {
                    "address": "0x5b67871c3a857de81a1ca0f9f7945e5670d986dc",
                    "callData": "0x0000000000000000000000000000000000000000000000000000000000000060000000000000000000000000da6786379ff88729264d31d472fa917f5e56144300000000000000000000000000000000000000000000000000000000000000a00000000000000000000000000000000000000000000000000000000000000001000000000000000000000000c02aaa39b223fe8d0a0e5c4f27ead9083c756cc200000000000000000000000000000000000000000000000000000000000000010000000000000000000000000000000000000000000000001ab65762cf400000",
                    "decodedMethod": {
                        "callParams": [
                            {
                                "name": "_tokens",
                                "type": "address[]",
                                "value": [
                                    "0xc02aaa39b223fe8d0a0e5c4f27ead9083c756cc2"
                                ]
                            },
                            {
                                "name": "_to",
                                "type": "address",
                                "value": "0xda6786379ff88729264d31d472fa917f5e561443"
                            },
                            {
                                "name": "_quantities",
                                "type": "uint256[]",
                                "value": [
                                    "1,924,821,972,642,955,264"
                                ]
                            }
                        ],
                        "constructorArguments": "",
                        "name": "batchWithdrawTo",
                        "returnParams": [],
                        "signature": "batchWithdrawTo(address[],address,uint256[])"
                    },
                    "errorInfo": "",
                    "fromAddress": "0xf55186cc537e7067ea616f2aae007b4427a120c8",
                    "gasUsed": 47674,
                    "id": 42,
                    "methodDecoded": true,
                    "operation": "CALL",
                    "output": "",
                    "revert": false,
                    "revertMessage": "",
                    "selector": "0x2321af6a",
                    "status": true,
                    "value": "0"
                },
                "nodeType": 0
            },
            "43": {
                "invocation": {
                    "address": "0xeadada7c6943c223c0d4bea475a6dacc7368f8d6",
                    "callData": "0x000000000000000000000000c02aaa39b223fe8d0a0e5c4f27ead9083c756cc20000000000000000000000005b67871c3a857de81a1ca0f9f7945e5670d986dc",
                    "decodedMethod": {
                        "callParams": [
                            {
                                "name": "_token",
                                "type": "address",
                                "value": "0xc02aaa39b223fe8d0a0e5c4f27ead9083c756cc2"
                            },
                            {
                                "name": "_owner",
                                "type": "address",
                                "value": "0x5b67871c3a857de81a1ca0f9f7945e5670d986dc"
                            }
                        ],
                        "constructorArguments": "",
                        "name": "balanceOf",
                        "returnParams": [
                            {
                                "name": "",
                                "type": "uint256",
                                "value": "57,872,662,472,695,723,845,071"
                            }
                        ],
                        "signature": "balanceOf(address,address)"
                    },
                    "errorInfo": "",
                    "fromAddress": "0x5b67871c3a857de81a1ca0f9f7945e5670d986dc",
                    "gasUsed": 3534,
                    "id": 43,
                    "methodDecoded": true,
                    "operation": "DELEGATECALL",
                    "output": "0x000000000000000000000000000000000000000000000c4148879868e443e5cf",
                    "revert": false,
                    "revertMessage": "",
                    "selector": "0xf7888aec",
                    "status": true,
                    "value": "0"
                },
                "nodeType": 0
            },
            "44": {
                "invocation": {
                    "address": "0xc02aaa39b223fe8d0a0e5c4f27ead9083c756cc2",
                    "callData": "0x0000000000000000000000005b67871c3a857de81a1ca0f9f7945e5670d986dc",
                    "decodedMethod": {
                        "callParams": [
                            {
                                "name": "",
                                "type": "address",
                                "value": "0x5b67871c3a857de81a1ca0f9f7945e5670d986dc"
                            }
                        ],
                        "constructorArguments": "",
                        "name": "balanceOf",
                        "returnParams": [
                            {
                                "decimalAvailable": true,
                                "name": "",
                                "type": "uint256",
                                "value": "57,872,662,472,695,723,845,071"
                            }
                        ],
                        "signature": "balanceOf(address)"
                    },
                    "errorInfo": "",
                    "fromAddress": "0x5b67871c3a857de81a1ca0f9f7945e5670d986dc",
                    "gasUsed": 1234,
                    "id": 44,
                    "methodDecoded": true,
                    "operation": "STATICCALL",
                    "output": "0x000000000000000000000000000000000000000000000c4148879868e443e5cf",
                    "revert": false,
                    "revertMessage": "",
                    "selector": "0x70a08231",
                    "status": true,
                    "value": "0"
                },
                "nodeType": 0
            },
            "45": {
                "invocation": {
                    "address": "0xeadada7c6943c223c0d4bea475a6dacc7368f8d6",
                    "callData": "0x000000000000000000000000c02aaa39b223fe8d0a0e5c4f27ead9083c756cc2000000000000000000000000da6786379ff88729264d31d472fa917f5e5614430000000000000000000000000000000000000000000000001ab65762cf400000",
                    "decodedMethod": {
                        "callParams": [
                            {
                                "name": "_from",
                                "type": "address",
                                "value": "0xc02aaa39b223fe8d0a0e5c4f27ead9083c756cc2"
                            },
                            {
                                "name": "_to",
                                "type": "address",
                                "value": "0xda6786379ff88729264d31d472fa917f5e561443"
                            },
                            {
                                "name": "_wad",
                                "type": "uint256",
                                "value": "1,924,821,972,642,955,264"
                            }
                        ],
                        "constructorArguments": "",
                        "name": "transfer",
                        "returnParams": [],
                        "signature": "transfer(address,address,uint256)"
                    },
                    "errorInfo": "",
                    "fromAddress": "0x5b67871c3a857de81a1ca0f9f7945e5670d986dc",
                    "gasUsed": 32553,
                    "id": 45,
                    "methodDecoded": true,
                    "operation": "DELEGATECALL",
                    "output": "",
                    "revert": false,
                    "revertMessage": "",
                    "selector": "0xbeabacc8",
                    "status": true,
                    "value": "0"
                },
                "nodeType": 0
            },
            "46": {
                "invocation": {
                    "address": "0xc02aaa39b223fe8d0a0e5c4f27ead9083c756cc2",
                    "callData": "0x000000000000000000000000da6786379ff88729264d31d472fa917f5e5614430000000000000000000000000000000000000000000000001ab65762cf400000",
                    "decodedMethod": {
                        "callParams": [
                            {
                                "name": "dst",
                                "type": "address",
                                "value": "0xda6786379ff88729264d31d472fa917f5e561443"
                            },
                            {
                                "decimalAvailable": true,
                                "name": "wad",
                                "type": "uint256",
                                "value": "1,924,821,972,642,955,264"
                            }
                        ],
                        "constructorArguments": "",
                        "name": "transfer",
                        "returnParams": [
                            {
                                "name": "",
                                "type": "bool",
                                "value": true
                            }
                        ],
                        "signature": "transfer(address,uint256)"
                    },
                    "errorInfo": "",
                    "fromAddress": "0x5b67871c3a857de81a1ca0f9f7945e5670d986dc",
                    "gasUsed": 30162,
                    "id": 46,
                    "methodDecoded": true,
                    "operation": "CALL",
                    "output": "0x0000000000000000000000000000000000000000000000000000000000000001",
                    "revert": false,
                    "revertMessage": "",
                    "selector": "0xa9059cbb",
                    "status": true,
                    "value": "0"
                },
                "nodeType": 0
            },
            "47": {
                "event": {
                    "contract": "0xc02aaa39b223fe8d0a0e5c4f27ead9083c756cc2",
                    "decodedLog": {
                        "name": "Transfer",
                        "params": [
                            {
                                "name": "src",
                                "type": "address",
                                "value": "0x5b67871c3a857de81a1ca0f9f7945e5670d986dc"
                            },
                            {
                                "name": "dst",
                                "type": "address",
                                "value": "0xda6786379ff88729264d31d472fa917f5e561443"
                            },
                            {
                                "decimalAvailable": true,
                                "name": "wad",
                                "type": "uint256",
                                "value": "1,924,821,972,642,955,264"
                            }
                        ],
                        "signature": "Transfer(address,address,uint256)"
                    },
                    "id": 47,
                    "logData": "0x0000000000000000000000000000000000000000000000001ab65762cf400000",
                    "logDecoded": true,
                    "operation": "EVENT",
                    "revert": false,
                    "status": true,
                    "topics": [
                        "0xddf252ad1be2c89b69c2b068fc378daa952ba7f163c4a11628f55a4df523b3ef",
                        "0x0000000000000000000000005b67871c3a857de81a1ca0f9f7945e5670d986dc",
                        "0x000000000000000000000000da6786379ff88729264d31d472fa917f5e561443"
                    ]
                },
                "nodeType": 1
            },
            "48": {
                "invocation": {
                    "address": "0xeadada7c6943c223c0d4bea475a6dacc7368f8d6",
                    "callData": "0x000000000000000000000000c02aaa39b223fe8d0a0e5c4f27ead9083c756cc20000000000000000000000005b67871c3a857de81a1ca0f9f7945e5670d986dc",
                    "decodedMethod": {
                        "callParams": [
                            {
                                "name": "_token",
                                "type": "address",
                                "value": "0xc02aaa39b223fe8d0a0e5c4f27ead9083c756cc2"
                            },
                            {
                                "name": "_owner",
                                "type": "address",
                                "value": "0x5b67871c3a857de81a1ca0f9f7945e5670d986dc"
                            }
                        ],
                        "constructorArguments": "",
                        "name": "balanceOf",
                        "returnParams": [
                            {
                                "name": "",
                                "type": "uint256",
                                "value": "57,870,737,650,723,080,889,807"
                            }
                        ],
                        "signature": "balanceOf(address,address)"
                    },
                    "errorInfo": "",
                    "fromAddress": "0x5b67871c3a857de81a1ca0f9f7945e5670d986dc",
                    "gasUsed": 3534,
                    "id": 48,
                    "methodDecoded": true,
                    "operation": "DELEGATECALL",
                    "output": "0x000000000000000000000000000000000000000000000c412dd141061503e5cf",
                    "revert": false,
                    "revertMessage": "",
                    "selector": "0xf7888aec",
                    "status": true,
                    "value": "0"
                },
                "nodeType": 0
            },
            "49": {
                "invocation": {
                    "address": "0xc02aaa39b223fe8d0a0e5c4f27ead9083c756cc2",
                    "callData": "0x0000000000000000000000005b67871c3a857de81a1ca0f9f7945e5670d986dc",
                    "decodedMethod": {
                        "callParams": [
                            {
                                "name": "",
                                "type": "address",
                                "value": "0x5b67871c3a857de81a1ca0f9f7945e5670d986dc"
                            }
                        ],
                        "constructorArguments": "",
                        "name": "balanceOf",
                        "returnParams": [
                            {
                                "decimalAvailable": true,
                                "name": "",
                                "type": "uint256",
                                "value": "57,870,737,650,723,080,889,807"
                            }
                        ],
                        "signature": "balanceOf(address)"
                    },
                    "errorInfo": "",
                    "fromAddress": "0x5b67871c3a857de81a1ca0f9f7945e5670d986dc",
                    "gasUsed": 1234,
                    "id": 49,
                    "methodDecoded": true,
                    "operation": "STATICCALL",
                    "output": "0x000000000000000000000000000000000000000000000c412dd141061503e5cf",
                    "revert": false,
                    "revertMessage": "",
                    "selector": "0x70a08231",
                    "status": true,
                    "value": "0"
                },
                "nodeType": 0
            },
            "5": {
                "invocation": {
                    "address": "0xf55186cc537e7067ea616f2aae007b4427a120c8",
                    "callData": "0x000000000000000000000000cad8daf1e928ef0867374e8dd21b15df54f122ab000000000000000000000000da6786379ff88729264d31d472fa917f5e561443000000000000000000000000ef0fda1d4bd73ddc2f93a4e46e2e5adbc2d668f40000000000000000000000000000000000000000000000000fc4f122a59e3a80",
                    "decodedMethod": {
                        "callParams": [
                            {
                                "name": "_burnAddress",
                                "type": "address",
                                "value": "0xcad8daf1e928ef0867374e8dd21b15df54f122ab"
                            },
                            {
                                "name": "_incrementAddress",
                                "type": "address",
                                "value": "0xda6786379ff88729264d31d472fa917f5e561443"
                            },
                            {
                                "name": "_set",
                                "type": "address",
                                "value": "0xef0fda1d4bd73ddc2f93a4e46e2e5adbc2d668f4"
                            },
                            {
                                "name": "_quantity",
                                "type": "uint256",
                                "value": "1,136,298,137,114,000,000"
                            }
                        ],
                        "constructorArguments": "",
                        "name": "redeemModule",
                        "returnParams": [],
                        "signature": "redeemModule(address,address,address,uint256)"
                    },
                    "errorInfo": "",
                    "fromAddress": "0xda6786379ff88729264d31d472fa917f5e561443",
                    "gasUsed": 87732,
                    "id": 5,
                    "methodDecoded": true,
                    "operation": "CALL",
                    "output": "",
                    "revert": false,
                    "revertMessage": "",
                    "selector": "0x5990ca08",
                    "status": true,
                    "value": "0"
                },
                "nodeType": 0
            },
            "50": {
                "invocation": {
                    "address": "0xc02aaa39b223fe8d0a0e5c4f27ead9083c756cc2",
                    "callData": "0x0000000000000000000000000000000000000000000000001ab65762cf400000",
                    "decodedMethod": {
                        "callParams": [
                            {
                                "name": "wad",
                                "type": "uint256",
                                "value": "1,924,821,972,642,955,264"
                            }
                        ],
                        "constructorArguments": "",
                        "name": "withdraw",
                        "returnParams": [],
                        "signature": "withdraw(uint256)"
                    },
                    "errorInfo": "",
                    "fromAddress": "0xda6786379ff88729264d31d472fa917f5e561443",
                    "gasUsed": 12777,
                    "id": 50,
                    "methodDecoded": true,
                    "operation": "CALL",
                    "output": "",
                    "revert": false,
                    "revertMessage": "",
                    "selector": "0x2e1a7d4d",
                    "status": true,
                    "value": "0"
                },
                "nodeType": 0
            },
            "51": {
                "invocation": {
                    "address": "0xda6786379ff88729264d31d472fa917f5e561443",
                    "callData": "0x",
                    "decodedMethod": null,
                    "errorInfo": "",
                    "fromAddress": "0xc02aaa39b223fe8d0a0e5c4f27ead9083c756cc2",
                    "gasUsed": 937,
                    "id": 51,
                    "methodDecoded": false,
                    "operation": "CALL",
                    "output": "",
                    "revert": false,
                    "revertMessage": "",
                    "selector": "fallback",
                    "status": true,
                    "value": "1.924821972642955264"
                },
                "nodeType": 0
            },
            "52": {
                "event": {
                    "contract": "0xc02aaa39b223fe8d0a0e5c4f27ead9083c756cc2",
                    "decodedLog": {
                        "name": "Withdrawal",
                        "params": [
                            {
                                "name": "src",
                                "type": "address",
                                "value": "0xda6786379ff88729264d31d472fa917f5e561443"
                            },
                            {
                                "name": "wad",
                                "type": "uint256",
                                "value": "1,924,821,972,642,955,264"
                            }
                        ],
                        "signature": "Withdrawal(address,uint256)"
                    },
                    "id": 52,
                    "logData": "0x0000000000000000000000000000000000000000000000001ab65762cf400000",
                    "logDecoded": true,
                    "operation": "EVENT",
                    "revert": false,
                    "status": true,
                    "topics": [
                        "0x7fcf532c15f0a6db0bd6d0e038bea71d30d808c7d98cb3bf7268a95bf5081b65",
                        "0x000000000000000000000000da6786379ff88729264d31d472fa917f5e561443"
                    ]
                },
                "nodeType": 1
            },
            "53": {
                "invocation": {
                    "address": "0xcad8daf1e928ef0867374e8dd21b15df54f122ab",
                    "callData": "0x",
                    "decodedMethod": null,
                    "errorInfo": "",
                    "fromAddress": "0xda6786379ff88729264d31d472fa917f5e561443",
                    "gasUsed": 0,
                    "id": 53,
                    "methodDecoded": false,
                    "operation": "CALL",
                    "output": "",
                    "revert": false,
                    "revertMessage": "",
                    "selector": "fallback",
                    "status": true,
                    "value": "1.924821972642955264"
                },
                "nodeType": 0
            },
            "54": {
                "invocation": {
                    "address": "0xeadada7c6943c223c0d4bea475a6dacc7368f8d6",
                    "callData": "0x0000000000000000000000001637d548a2b13e2c91a6f1497ae875f314bd644e000000000000000000000000da6786379ff88729264d31d472fa917f5e561443",
                    "decodedMethod": {
                        "callParams": [
                            {
                                "name": "_token",
                                "type": "address",
                                "value": "0x1637d548a2b13e2c91a6f1497ae875f314bd644e"
                            },
                            {
                                "name": "_owner",
                                "type": "address",
                                "value": "0xda6786379ff88729264d31d472fa917f5e561443"
                            }
                        ],
                        "constructorArguments": "",
                        "name": "balanceOf",
                        "returnParams": [
                            {
                                "name": "",
                                "type": "uint256",
                                "value": "0"
                            }
                        ],
                        "signature": "balanceOf(address,address)"
                    },
                    "errorInfo": "",
                    "fromAddress": "0xda6786379ff88729264d31d472fa917f5e561443",
                    "gasUsed": 3650,
                    "id": 54,
                    "methodDecoded": true,
                    "operation": "DELEGATECALL",
                    "output": "0x0000000000000000000000000000000000000000000000000000000000000000",
                    "revert": false,
                    "revertMessage": "",
                    "selector": "0xf7888aec",
                    "status": true,
                    "value": "0"
                },
                "nodeType": 0
            },
            "55": {
                "invocation": {
                    "address": "0x1637d548a2b13e2c91a6f1497ae875f314bd644e",
                    "callData": "0x000000000000000000000000da6786379ff88729264d31d472fa917f5e561443",
                    "decodedMethod": {
                        "callParams": [
                            {
                                "name": "owner",
                                "type": "address",
                                "value": "0xda6786379ff88729264d31d472fa917f5e561443"
                            }
                        ],
                        "constructorArguments": "",
                        "name": "balanceOf",
                        "returnParams": [
                            {
                                "decimalAvailable": true,
                                "name": "",
                                "type": "uint256",
                                "value": "0"
                            }
                        ],
                        "signature": "balanceOf(address)"
                    },
                    "errorInfo": "",
                    "fromAddress": "0xda6786379ff88729264d31d472fa917f5e561443",
                    "gasUsed": 1350,
                    "id": 55,
                    "methodDecoded": true,
                    "operation": "STATICCALL",
                    "output": "0x0000000000000000000000000000000000000000000000000000000000000000",
                    "revert": false,
                    "revertMessage": "",
                    "selector": "0x70a08231",
                    "status": true,
                    "value": "0"
                },
                "nodeType": 0
            },
            "56": {
                "invocation": {
                    "address": "0x5b67871c3a857de81a1ca0f9f7945e5670d986dc",
                    "callData": "0x0000000000000000000000001637d548a2b13e2c91a6f1497ae875f314bd644e000000000000000000000000da6786379ff88729264d31d472fa917f5e561443",
                    "decodedMethod": {
                        "callParams": [
                            {
                                "name": "_token",
                                "type": "address",
                                "value": "0x1637d548a2b13e2c91a6f1497ae875f314bd644e"
                            },
                            {
                                "name": "_owner",
                                "type": "address",
                                "value": "0xda6786379ff88729264d31d472fa917f5e561443"
                            }
                        ],
                        "constructorArguments": "",
                        "name": "getOwnerBalance",
                        "returnParams": [
                            {
                                "name": "",
                                "type": "uint256",
                                "value": "819,838"
                            }
                        ],
                        "signature": "getOwnerBalance(address,address)"
                    },
                    "errorInfo": "",
                    "fromAddress": "0xda6786379ff88729264d31d472fa917f5e561443",
                    "gasUsed": 1439,
                    "id": 56,
                    "methodDecoded": true,
                    "operation": "STATICCALL",
                    "output": "0x00000000000000000000000000000000000000000000000000000000000c827e",
                    "revert": false,
                    "revertMessage": "",
                    "selector": "0x1f98ade3",
                    "status": true,
                    "value": "0"
                },
                "nodeType": 0
            },
            "57": {
                "invocation": {
                    "address": "0xf55186cc537e7067ea616f2aae007b4427a120c8",
                    "callData": "0x0000000000000000000000001637d548a2b13e2c91a6f1497ae875f314bd644e000000000000000000000000cad8daf1e928ef0867374e8dd21b15df54f122ab00000000000000000000000000000000000000000000000000000000000c827e",
                    "decodedMethod": {
                        "callParams": [
                            {
                                "name": "_token",
                                "type": "address",
                                "value": "0x1637d548a2b13e2c91a6f1497ae875f314bd644e"
                            },
                            {
                                "name": "_to",
                                "type": "address",
                                "value": "0xcad8daf1e928ef0867374e8dd21b15df54f122ab"
                            },
                            {
                                "name": "_quantity",
                                "type": "uint256",
                                "value": "819,838"
                            }
                        ],
                        "constructorArguments": "",
                        "name": "internalTransfer",
                        "returnParams": [],
                        "signature": "internalTransfer(address,address,uint256)"
                    },
                    "errorInfo": "",
                    "fromAddress": "0xda6786379ff88729264d31d472fa917f5e561443",
                    "gasUsed": 31982,
                    "id": 57,
                    "methodDecoded": true,
                    "operation": "CALL",
                    "output": "",
                    "revert": false,
                    "revertMessage": "",
                    "selector": "0x59e026f7",
                    "status": true,
                    "value": "0"
                },
                "nodeType": 0
            },
            "58": {
                "invocation": {
                    "address": "0x5b67871c3a857de81a1ca0f9f7945e5670d986dc",
                    "callData": "0x0000000000000000000000001637d548a2b13e2c91a6f1497ae875f314bd644e000000000000000000000000da6786379ff88729264d31d472fa917f5e561443000000000000000000000000cad8daf1e928ef0867374e8dd21b15df54f122ab00000000000000000000000000000000000000000000000000000000000c827e",
                    "decodedMethod": {
                        "callParams": [
                            {
                                "name": "_token",
                                "type": "address",
                                "value": "0x1637d548a2b13e2c91a6f1497ae875f314bd644e"
                            },
                            {
                                "name": "_from",
                                "type": "address",
                                "value": "0xda6786379ff88729264d31d472fa917f5e561443"
                            },
                            {
                                "name": "_to",
                                "type": "address",
                                "value": "0xcad8daf1e928ef0867374e8dd21b15df54f122ab"
                            },
                            {
                                "name": "_quantity",
                                "type": "uint256",
                                "value": "819,838"
                            }
                        ],
                        "constructorArguments": "",
                        "name": "transferBalance",
                        "returnParams": [],
                        "signature": "transferBalance(address,address,address,uint256)"
                    },
                    "errorInfo": "",
                    "fromAddress": "0xf55186cc537e7067ea616f2aae007b4427a120c8",
                    "gasUsed": 25704,
                    "id": 58,
                    "methodDecoded": true,
                    "operation": "CALL",
                    "output": "",
                    "revert": false,
                    "revertMessage": "",
                    "selector": "0xb19ad577",
                    "status": true,
                    "value": "0"
                },
                "nodeType": 0
            },
            "59": {
                "event": {
                    "contract": "0xda6786379ff88729264d31d472fa917f5e561443",
                    "decodedLog": {
                        "name": "LogRebalancingSetRedeem",
                        "params": [
                            {
                                "name": "rebalancingSetAddress",
                                "type": "address",
                                "value": "0xef0fda1d4bd73ddc2f93a4e46e2e5adbc2d668f4"
                            },
                            {
                                "name": "callerAddress",
                                "type": "address",
                                "value": "0xcad8daf1e928ef0867374e8dd21b15df54f122ab"
                            },
                            {
                                "name": "rebalancingSetQuantity",
                                "type": "uint256",
                                "value": "1,136,298,137,114,000,000"
                            }
                        ],
                        "signature": "LogRebalancingSetRedeem(address,address,uint256)"
                    },
                    "id": 59,
                    "logData": "0x0000000000000000000000000000000000000000000000000fc4f122a59e3a80",
                    "logDecoded": true,
                    "operation": "EVENT",
                    "revert": false,
                    "status": true,
                    "topics": [
                        "0x412d6167082ef33d0eb78858a5ca2bc234ae9f96ea4757e6c0e2a66a152c0f62",
                        "0x000000000000000000000000ef0fda1d4bd73ddc2f93a4e46e2e5adbc2d668f4",
                        "0x000000000000000000000000cad8daf1e928ef0867374e8dd21b15df54f122ab"
                    ]
                },
                "nodeType": 1
            },
            "6": {
                "invocation": {
                    "address": "0xdc733ec262f32882f7c05525cc2d09f2c04d86ac",
                    "callData": "0x000000000000000000000000ef0fda1d4bd73ddc2f93a4e46e2e5adbc2d668f40000000000000000000000000000000000000000000000000fc4f122a59e3a80",
                    "decodedMethod": null,
                    "errorInfo": "",
                    "fromAddress": "0xf55186cc537e7067ea616f2aae007b4427a120c8",
                    "gasUsed": 3677,
                    "id": 6,
                    "methodDecoded": false,
                    "operation": "DELEGATECALL",
                    "output": "",
                    "revert": false,
                    "revertMessage": "",
                    "selector": "0x49468457",
                    "status": true,
                    "value": "0"
                },
                "nodeType": 0
            },
            "7": {
                "invocation": {
                    "address": "0xef0fda1d4bd73ddc2f93a4e46e2e5adbc2d668f4",
                    "callData": "0x",
                    "decodedMethod": {
                        "callParams": [],
                        "constructorArguments": "",
                        "name": "naturalUnit",
                        "returnParams": [
                            {
                                "name": "",
                                "type": "uint256",
                                "value": "1,000,000"
                            }
                        ],
                        "signature": "naturalUnit()"
                    },
                    "errorInfo": "",
                    "fromAddress": "0xf55186cc537e7067ea616f2aae007b4427a120c8",
                    "gasUsed": 1257,
                    "id": 7,
                    "methodDecoded": true,
                    "operation": "STATICCALL",
                    "output": "0x00000000000000000000000000000000000000000000000000000000000f4240",
                    "revert": false,
                    "revertMessage": "",
                    "selector": "0x42a7cfd5",
                    "status": true,
                    "value": "0"
                },
                "nodeType": 0
            },
            "8": {
                "invocation": {
                    "address": "0xef0fda1d4bd73ddc2f93a4e46e2e5adbc2d668f4",
                    "callData": "0x000000000000000000000000cad8daf1e928ef0867374e8dd21b15df54f122ab0000000000000000000000000000000000000000000000000fc4f122a59e3a80",
                    "decodedMethod": {
                        "callParams": [
                            {
                                "name": "_from",
                                "type": "address",
                                "value": "0xcad8daf1e928ef0867374e8dd21b15df54f122ab"
                            },
                            {
                                "name": "_quantity",
                                "type": "uint256",
                                "value": "1,136,298,137,114,000,000"
                            }
                        ],
                        "constructorArguments": "",
                        "name": "burn",
                        "returnParams": [],
                        "signature": "burn(address,uint256)"
                    },
                    "errorInfo": "",
                    "fromAddress": "0xf55186cc537e7067ea616f2aae007b4427a120c8",
                    "gasUsed": 17631,
                    "id": 8,
                    "methodDecoded": true,
                    "operation": "CALL",
                    "output": "",
                    "revert": false,
                    "revertMessage": "",
                    "selector": "0x9dc29fac",
                    "status": true,
                    "value": "0"
                },
                "nodeType": 0
            },
            "9": {
                "event": {
                    "contract": "0xef0fda1d4bd73ddc2f93a4e46e2e5adbc2d668f4",
                    "decodedLog": {
                        "name": "Transfer",
                        "params": [
                            {
                                "name": "from",
                                "type": "address",
                                "value": "0xcad8daf1e928ef0867374e8dd21b15df54f122ab"
                            },
                            {
                                "name": "to",
                                "type": "address",
                                "value": "0x0000000000000000000000000000000000000000"
                            },
                            {
                                "decimalAvailable": true,
                                "name": "value",
                                "type": "uint256",
                                "value": "1,136,298,137,114,000,000"
                            }
                        ],
                        "signature": "Transfer(address,address,uint256)"
                    },
                    "id": 9,
                    "logData": "0x0000000000000000000000000000000000000000000000000fc4f122a59e3a80",
                    "logDecoded": true,
                    "operation": "EVENT",
                    "revert": false,
                    "status": true,
                    "topics": [
                        "0xddf252ad1be2c89b69c2b068fc378daa952ba7f163c4a11628f55a4df523b3ef",
                        "0x000000000000000000000000cad8daf1e928ef0867374e8dd21b15df54f122ab",
                        "0x0000000000000000000000000000000000000000000000000000000000000000"
                    ]
                },
                "nodeType": 1
            }
        },
        "gasFlame": [
            {
                "children": [
                    {
                        "children": [
                            {
                                "children": [],
                                "depth": 0,
                                "name": "Initial Gas",
                                "value": 21796
                            },
                            {
                                "children": [
                                    {
                                        "children": [],
                                        "depth": 1,
                                        "name": "currentSet",
                                        "value": 1491
                                    },
                                    {
                                        "children": [],
                                        "depth": 1,
                                        "name": "tokenIsComponent",
                                        "value": 1448
                                    },
                                    {
                                        "children": [],
                                        "depth": 1,
                                        "name": "validSets",
                                        "value": 1468
                                    },
                                    {
                                        "children": [],
                                        "depth": 1,
                                        "name": "naturalUnit",
                                        "value": 1257
                                    },
                                    {
                                        "children": [
                                            {
                                                "children": [
                                                    {
                                                        "children": [],
                                                        "depth": 3,
                                                        "name": "naturalUnit",
                                                        "value": 1257
                                                    }
                                                ],
                                                "depth": 2,
                                                "name": "0x49468457",
                                                "value": 3677
                                            },
                                            {
                                                "children": [],
                                                "depth": 2,
                                                "name": "burn",
                                                "value": 17631
                                            },
                                            {
                                                "children": [],
                                                "depth": 2,
                                                "name": "naturalUnit",
                                                "value": 1257
                                            },
                                            {
                                                "children": [],
                                                "depth": 2,
                                                "name": "getComponents",
                                                "value": 2090
                                            },
                                            {
                                                "children": [],
                                                "depth": 2,
                                                "name": "getUnits",
                                                "value": 1769
                                            },
                                            {
                                                "children": [],
                                                "depth": 2,
                                                "name": "calculateRequiredComponentQuantities",
                                                "value": 1830
                                            },
                                            {
                                                "children": [],
                                                "depth": 2,
                                                "name": "batchDecrementTokenOwner",
                                                "value": 10149
                                            },
                                            {
                                                "children": [],
                                                "depth": 2,
                                                "name": "getComponents",
                                                "value": 2090
                                            },
                                            {
                                                "children": [],
                                                "depth": 2,
                                                "name": "batchIncrementTokenOwner",
                                                "value": 24112
                                            }
                                        ],
                                        "depth": 1,
                                        "name": "redeemModule",
                                        "value": 87732
                                    },
                                    {
                                        "children": [],
                                        "depth": 1,
                                        "name": "naturalUnit",
                                        "value": 1177
                                    },
                                    {
                                        "children": [],
                                        "depth": 1,
                                        "name": "getOwnerBalance",
                                        "value": 1439
                                    },
                                    {
                                        "children": [
                                            {
                                                "children": [],
                                                "depth": 2,
                                                "name": "decrementTokenOwner",
                                                "value": 4422
                                            },
                                            {
                                                "children": [
                                                    {
                                                        "children": [],
                                                        "depth": 3,
                                                        "name": "naturalUnit",
                                                        "value": 1177
                                                    }
                                                ],
                                                "depth": 2,
                                                "name": "0x49468457",
                                                "value": 3597
                                            },
                                            {
                                                "children": [
                                                    {
                                                        "children": [],
                                                        "depth": 3,
                                                        "name": "core",
                                                        "value": 1015
                                                    }
                                                ],
                                                "depth": 2,
                                                "name": "burn",
                                                "value": 18172
                                            },
                                            {
                                                "children": [],
                                                "depth": 2,
                                                "name": "naturalUnit",
                                                "value": 1177
                                            },
                                            {
                                                "children": [],
                                                "depth": 2,
                                                "name": "getComponents",
                                                "value": 3248
                                            },
                                            {
                                                "children": [],
                                                "depth": 2,
                                                "name": "getUnits",
                                                "value": 3128
                                            },
                                            {
                                                "children": [],
                                                "depth": 2,
                                                "name": "calculateRequiredComponentQuantities",
                                                "value": 1830
                                            },
                                            {
                                                "children": [],
                                                "depth": 2,
                                                "name": "batchDecrementTokenOwner",
                                                "value": 10149
                                            },
                                            {
                                                "children": [],
                                                "depth": 2,
                                                "name": "getComponents",
                                                "value": 3248
                                            },
                                            {
                                                "children": [],
                                                "depth": 2,
                                                "name": "batchIncrementTokenOwner",
                                                "value": 24112
                                            }
                                        ],
                                        "depth": 1,
                                        "name": "redeemInVault",
                                        "value": 105293
                                    },
                                    {
                                        "children": [],
                                        "depth": 1,
                                        "name": "getComponents",
                                        "value": 3248
                                    },
                                    {
                                        "children": [],
                                        "depth": 1,
                                        "name": "getOwnerBalance",
                                        "value": 1439
                                    },
                                    {
                                        "children": [],
                                        "depth": 1,
                                        "name": "whitelist",
                                        "value": 1428
                                    },
                                    {
                                        "children": [
                                            {
                                                "children": [],
                                                "depth": 2,
                                                "name": "validateNonEmpty",
                                                "value": 361
                                            },
                                            {
                                                "children": [],
                                                "depth": 2,
                                                "name": "validateEqualLength",
                                                "value": 516
                                            },
                                            {
                                                "children": [],
                                                "depth": 2,
                                                "name": "batchDecrementTokenOwner",
                                                "value": 5949
                                            },
                                            {
                                                "children": [
                                                    {
                                                        "children": [
                                                            {
                                                                "children": [],
                                                                "depth": 4,
                                                                "name": "balanceOf",
                                                                "value": 1234
                                                            }
                                                        ],
                                                        "depth": 3,
                                                        "name": "balanceOf",
                                                        "value": 3534
                                                    },
                                                    {
                                                        "children": [
                                                            {
                                                                "children": [],
                                                                "depth": 4,
                                                                "name": "transfer",
                                                                "value": 30162
                                                            }
                                                        ],
                                                        "depth": 3,
                                                        "name": "transfer",
                                                        "value": 32553
                                                    },
                                                    {
                                                        "children": [
                                                            {
                                                                "children": [],
                                                                "depth": 4,
                                                                "name": "balanceOf",
                                                                "value": 1234
                                                            }
                                                        ],
                                                        "depth": 3,
                                                        "name": "balanceOf",
                                                        "value": 3534
                                                    }
                                                ],
                                                "depth": 2,
                                                "name": "batchWithdrawTo",
                                                "value": 47674
                                            }
                                        ],
                                        "depth": 1,
                                        "name": "withdrawModule",
                                        "value": 65822
                                    },
                                    {
                                        "children": [
                                            {
                                                "children": [],
                                                "depth": 2,
                                                "name": "fallback",
                                                "value": 937
                                            }
                                        ],
                                        "depth": 1,
                                        "name": "withdraw",
                                        "value": 12777
                                    },
                                    {
                                        "children": [],
                                        "depth": 1,
                                        "name": "fallback",
                                        "value": 0
                                    },
                                    {
                                        "children": [
                                            {
                                                "children": [],
                                                "depth": 2,
                                                "name": "balanceOf",
                                                "value": 1350
                                            }
                                        ],
                                        "depth": 1,
                                        "name": "balanceOf",
                                        "value": 3650
                                    },
                                    {
                                        "children": [],
                                        "depth": 1,
                                        "name": "getOwnerBalance",
                                        "value": 1439
                                    },
                                    {
                                        "children": [
                                            {
                                                "children": [],
                                                "depth": 2,
                                                "name": "transferBalance",
                                                "value": 25704
                                            }
                                        ],
                                        "depth": 1,
                                        "name": "internalTransfer",
                                        "value": 31982
                                    }
                                ],
                                "depth": 0,
                                "name": "Executed Gas",
                                "value": 379634
                            }
                        ],
                        "depth": -1,
                        "name": "Actual Gas Used",
                        "value": 328830
                    },
                    {
                        "children": [],
                        "depth": -1,
                        "name": "Refunded Gas",
                        "value": 72600
                    }
                ],
                "depth": -2,
                "name": "Total Gas",
                "value": 401430
            }
        ],
        "isConfirmed": true,
        "mainTrace": [
            {
                "children": [
                    {
                        "children": [
                            {
                                "children": [],
                                "depth": 1,
                                "id": 1,
                                "order": 1
                            },
                            {
                                "children": [],
                                "depth": 1,
                                "id": 2,
                                "order": 2
                            },
                            {
                                "children": [],
                                "depth": 1,
                                "id": 3,
                                "order": 3
                            },
                            {
                                "children": [],
                                "depth": 1,
                                "id": 4,
                                "order": 4
                            },
                            {
                                "children": [
                                    {
                                        "children": [
                                            {
                                                "children": [],
                                                "depth": 3,
                                                "id": 7,
                                                "order": 7
                                            }
                                        ],
                                        "depth": 2,
                                        "id": 6,
                                        "order": 6
                                    },
                                    {
                                        "children": [
                                            {
                                                "children": [],
                                                "depth": 3,
                                                "id": 9,
                                                "order": 9
                                            }
                                        ],
                                        "depth": 2,
                                        "id": 8,
                                        "order": 8
                                    },
                                    {
                                        "children": [],
                                        "depth": 2,
                                        "id": 10,
                                        "order": 10
                                    },
                                    {
                                        "children": [],
                                        "depth": 2,
                                        "id": 11,
                                        "order": 11
                                    },
                                    {
                                        "children": [],
                                        "depth": 2,
                                        "id": 12,
                                        "order": 12
                                    },
                                    {
                                        "children": [],
                                        "depth": 2,
                                        "id": 13,
                                        "order": 13
                                    },
                                    {
                                        "children": [],
                                        "depth": 2,
                                        "id": 14,
                                        "order": 14
                                    },
                                    {
                                        "children": [],
                                        "depth": 2,
                                        "id": 15,
                                        "order": 15
                                    },
                                    {
                                        "children": [],
                                        "depth": 2,
                                        "id": 16,
                                        "order": 16
                                    },
                                    {
                                        "children": [],
                                        "depth": 2,
                                        "id": 17,
                                        "order": 17
                                    }
                                ],
                                "depth": 1,
                                "id": 5,
                                "order": 5
                            },
                            {
                                "children": [],
                                "depth": 1,
                                "id": 18,
                                "order": 18
                            },
                            {
                                "children": [],
                                "depth": 1,
                                "id": 19,
                                "order": 19
                            },
                            {
                                "children": [
                                    {
                                        "children": [],
                                        "depth": 2,
                                        "id": 21,
                                        "order": 21
                                    },
                                    {
                                        "children": [
                                            {
                                                "children": [],
                                                "depth": 3,
                                                "id": 23,
                                                "order": 23
                                            }
                                        ],
                                        "depth": 2,
                                        "id": 22,
                                        "order": 22
                                    },
                                    {
                                        "children": [
                                            {
                                                "children": [],
                                                "depth": 3,
                                                "id": 25,
                                                "order": 25
                                            },
                                            {
                                                "children": [],
                                                "depth": 3,
                                                "id": 26,
                                                "order": 26
                                            }
                                        ],
                                        "depth": 2,
                                        "id": 24,
                                        "order": 24
                                    },
                                    {
                                        "children": [],
                                        "depth": 2,
                                        "id": 27,
                                        "order": 27
                                    },
                                    {
                                        "children": [],
                                        "depth": 2,
                                        "id": 28,
                                        "order": 28
                                    },
                                    {
                                        "children": [],
                                        "depth": 2,
                                        "id": 29,
                                        "order": 29
                                    },
                                    {
                                        "children": [],
                                        "depth": 2,
                                        "id": 30,
                                        "order": 30
                                    },
                                    {
                                        "children": [],
                                        "depth": 2,
                                        "id": 31,
                                        "order": 31
                                    },
                                    {
                                        "children": [],
                                        "depth": 2,
                                        "id": 32,
                                        "order": 32
                                    },
                                    {
                                        "children": [],
                                        "depth": 2,
                                        "id": 33,
                                        "order": 33
                                    },
                                    {
                                        "children": [],
                                        "depth": 2,
                                        "id": 34,
                                        "order": 34
                                    }
                                ],
                                "depth": 1,
                                "id": 20,
                                "order": 20
                            },
                            {
                                "children": [],
                                "depth": 1,
                                "id": 35,
                                "order": 35
                            },
                            {
                                "children": [],
                                "depth": 1,
                                "id": 36,
                                "order": 36
                            },
                            {
                                "children": [],
                                "depth": 1,
                                "id": 37,
                                "order": 37
                            },
                            {
                                "children": [
                                    {
                                        "children": [],
                                        "depth": 2,
                                        "id": 39,
                                        "order": 39
                                    },
                                    {
                                        "children": [],
                                        "depth": 2,
                                        "id": 40,
                                        "order": 40
                                    },
                                    {
                                        "children": [],
                                        "depth": 2,
                                        "id": 41,
                                        "order": 41
                                    },
                                    {
                                        "children": [
                                            {
                                                "children": [
                                                    {
                                                        "children": [],
                                                        "depth": 4,
                                                        "id": 44,
                                                        "order": 44
                                                    }
                                                ],
                                                "depth": 3,
                                                "id": 43,
                                                "order": 43
                                            },
                                            {
                                                "children": [
                                                    {
                                                        "children": [
                                                            {
                                                                "children": [],
                                                                "depth": 5,
                                                                "id": 47,
                                                                "order": 47
                                                            }
                                                        ],
                                                        "depth": 4,
                                                        "id": 46,
                                                        "order": 46
                                                    }
                                                ],
                                                "depth": 3,
                                                "id": 45,
                                                "order": 45
                                            },
                                            {
                                                "children": [
                                                    {
                                                        "children": [],
                                                        "depth": 4,
                                                        "id": 49,
                                                        "order": 49
                                                    }
                                                ],
                                                "depth": 3,
                                                "id": 48,
                                                "order": 48
                                            }
                                        ],
                                        "depth": 2,
                                        "id": 42,
                                        "order": 42
                                    }
                                ],
                                "depth": 1,
                                "id": 38,
                                "order": 38
                            },
                            {
                                "children": [
                                    {
                                        "children": [],
                                        "depth": 2,
                                        "id": 51,
                                        "order": 51
                                    },
                                    {
                                        "children": [],
                                        "depth": 2,
                                        "id": 52,
                                        "order": 52
                                    }
                                ],
                                "depth": 1,
                                "id": 50,
                                "order": 50
                            },
                            {
                                "children": [],
                                "depth": 1,
                                "id": 53,
                                "order": 53
                            },
                            {
                                "children": [
                                    {
                                        "children": [],
                                        "depth": 2,
                                        "id": 55,
                                        "order": 55
                                    }
                                ],
                                "depth": 1,
                                "id": 54,
                                "order": 54
                            },
                            {
                                "children": [],
                                "depth": 1,
                                "id": 56,
                                "order": 56
                            },
                            {
                                "children": [
                                    {
                                        "children": [],
                                        "depth": 2,
                                        "id": 58,
                                        "order": 58
                                    }
                                ],
                                "depth": 1,
                                "id": 57,
                                "order": 57
                            },
                            {
                                "children": [],
                                "depth": 1,
                                "id": 59,
                                "order": 59
                            }
                        ],
                        "depth": 0,
                        "id": 0,
                        "order": 0
                    }
                ],
                "depth": -1,
                "id": -1,
                "order": -1
            }
        ],
        "mainTraceNodeCount": 60,
        "parentIdMap": {
            "0": -1,
            "1": 0,
            "10": 5,
            "11": 5,
            "12": 5,
            "13": 5,
            "14": 5,
            "15": 5,
            "16": 5,
            "17": 5,
            "18": 0,
            "19": 0,
            "2": 0,
            "20": 0,
            "21": 20,
            "22": 20,
            "23": 22,
            "24": 20,
            "25": 24,
            "26": 24,
            "27": 20,
            "28": 20,
            "29": 20,
            "3": 0,
            "30": 20,
            "31": 20,
            "32": 20,
            "33": 20,
            "34": 20,
            "35": 0,
            "36": 0,
            "37": 0,
            "38": 0,
            "39": 38,
            "4": 0,
            "40": 38,
            "41": 38,
            "42": 38,
            "43": 42,
            "44": 43,
            "45": 42,
            "46": 45,
            "47": 46,
            "48": 42,
            "49": 48,
            "5": 0,
            "50": 0,
            "51": 50,
            "52": 50,
            "53": 0,
            "54": 0,
            "55": 54,
            "56": 0,
            "57": 0,
            "58": 57,
            "59": 0,
            "6": 5,
            "7": 6,
            "8": 5,
            "9": 8
        },
        "tidyTrace": [
            {
                "children": [
                    {
                        "children": [
                            {
                                "children": [
                                    {
                                        "children": [],
                                        "depth": 2,
                                        "id": 6,
                                        "order": 6
                                    },
                                    {
                                        "children": [
                                            {
                                                "children": [],
                                                "depth": 3,
                                                "id": 9,
                                                "order": 9
                                            }
                                        ],
                                        "depth": 2,
                                        "id": 8,
                                        "order": 8
                                    },
                                    {
                                        "children": [],
                                        "depth": 2,
                                        "id": 13,
                                        "order": 13
                                    },
                                    {
                                        "children": [],
                                        "depth": 2,
                                        "id": 14,
                                        "order": 14
                                    },
                                    {
                                        "children": [],
                                        "depth": 2,
                                        "id": 15,
                                        "order": 15
                                    },
                                    {
                                        "children": [],
                                        "depth": 2,
                                        "id": 17,
                                        "order": 17
                                    }
                                ],
                                "depth": 1,
                                "id": 5,
                                "order": 5
                            },
                            {
                                "children": [
                                    {
                                        "children": [],
                                        "depth": 2,
                                        "id": 21,
                                        "order": 21
                                    },
                                    {
                                        "children": [],
                                        "depth": 2,
                                        "id": 22,
                                        "order": 22
                                    },
                                    {
                                        "children": [
                                            {
                                                "children": [],
                                                "depth": 3,
                                                "id": 25,
                                                "order": 25
                                            },
                                            {
                                                "children": [],
                                                "depth": 3,
                                                "id": 26,
                                                "order": 26
                                            }
                                        ],
                                        "depth": 2,
                                        "id": 24,
                                        "order": 24
                                    },
                                    {
                                        "children": [],
                                        "depth": 2,
                                        "id": 30,
                                        "order": 30
                                    },
                                    {
                                        "children": [],
                                        "depth": 2,
                                        "id": 31,
                                        "order": 31
                                    },
                                    {
                                        "children": [],
                                        "depth": 2,
                                        "id": 32,
                                        "order": 32
                                    },
                                    {
                                        "children": [],
                                        "depth": 2,
                                        "id": 34,
                                        "order": 34
                                    }
                                ],
                                "depth": 1,
                                "id": 20,
                                "order": 20
                            },
                            {
                                "children": [
                                    {
                                        "children": [],
                                        "depth": 2,
                                        "id": 39,
                                        "order": 39
                                    },
                                    {
                                        "children": [],
                                        "depth": 2,
                                        "id": 40,
                                        "order": 40
                                    },
                                    {
                                        "children": [],
                                        "depth": 2,
                                        "id": 41,
                                        "order": 41
                                    },
                                    {
                                        "children": [
                                            {
                                                "children": [],
                                                "depth": 3,
                                                "id": 43,
                                                "order": 43
                                            },
                                            {
                                                "children": [
                                                    {
                                                        "children": [
                                                            {
                                                                "children": [],
                                                                "depth": 5,
                                                                "id": 47,
                                                                "order": 47
                                                            }
                                                        ],
                                                        "depth": 4,
                                                        "id": 46,
                                                        "order": 46
                                                    }
                                                ],
                                                "depth": 3,
                                                "id": 45,
                                                "order": 45
                                            },
                                            {
                                                "children": [],
                                                "depth": 3,
                                                "id": 48,
                                                "order": 48
                                            }
                                        ],
                                        "depth": 2,
                                        "id": 42,
                                        "order": 42
                                    }
                                ],
                                "depth": 1,
                                "id": 38,
                                "order": 38
                            },
                            {
                                "children": [
                                    {
                                        "children": [],
                                        "depth": 2,
                                        "id": 51,
                                        "order": 51
                                    },
                                    {
                                        "children": [],
                                        "depth": 2,
                                        "id": 52,
                                        "order": 52
                                    }
                                ],
                                "depth": 1,
                                "id": 50,
                                "order": 50
                            },
                            {
                                "children": [],
                                "depth": 1,
                                "id": 53,
                                "order": 53
                            },
                            {
                                "children": [],
                                "depth": 1,
                                "id": 54,
                                "order": 54
                            },
                            {
                                "children": [
                                    {
                                        "children": [],
                                        "depth": 2,
                                        "id": 58,
                                        "order": 58
                                    }
                                ],
                                "depth": 1,
                                "id": 57,
                                "order": 57
                            },
                            {
                                "children": [],
                                "depth": 1,
                                "id": 59,
                                "order": 59
                            }
                        ],
                        "depth": 0,
                        "id": 0,
                        "order": 0
                    }
                ],
                "depth": -1,
                "id": -1,
                "order": -1
            }
        ],
        "tidyTraceNodeCount": 37
    },
    "state_change": {
        "stateChanges": [
            {
                "address": "0x1637d548a2b13e2c91a6f1497ae875f314bd644e",
                "erc": "ERC-20",
                "slots": [
                    {
                        "current": "0x00000000000000000000000000000000000000000000007d903f2ca10fdf5f00",
                        "key": "0x0000000000000000000000000000000000000000000000000000000000000002",
                        "prev": "0x00000000000000000000000000000000000000000000007d969d8fdcadbae840"
                    },
                    {
                        "current": "0x00000000000000000000000000000000000000000000007d903f2ca10fdf5f00",
                        "key": "0x664429697a97029c9cd91f225e37da6c8fd4ffd5ea690bc7a6ec9d05402ce967",
                        "prev": "0x00000000000000000000000000000000000000000000007d969d8fdcadbae840"
                    }
                ],
                "storageVariables": [
                    {
                        "name": "_totalSupply",
                        "type": "uint256",
                        "value": {
                            "current": "2316237084748956000000",
                            "prev": "2316695998068697000000",
                            "typeTag": 1
                        }
                    },
                    {
                        "name": "_balances",
                        "type": "mapping(address => uint256)",
                        "value": {
                            "pairs": [
                                {
                                    "key": "0x5b67871c3a857de81a1ca0f9f7945e5670d986dc",
                                    "value": {
                                        "current": "2316237084748956000000",
                                        "prev": "2316695998068697000000",
                                        "typeTag": 1
                                    }
                                }
                            ],
                            "typeTag": 4
                        }
                    }
                ]
            },
            {
                "address": "0x5b67871c3a857de81a1ca0f9f7945e5670d986dc",
                "erc": "",
                "slots": [
                    {
                        "current": "0x00000000000000000000000000000000000000000000020ea6be29bb27000000",
                        "key": "0xb429256f9ad3a3992f1e1b7da8b05cca51050f9f03e063a88309d80bd1cce7e3",
                        "prev": "0x00000000000000000000000000000000000000000000020ec174811df6400000"
                    },
                    {
                        "current": "0x00000000000000000000000000000000000000000000000000000000000c827e",
                        "key": "0x670e1b3d2b1ad96db5cba746a8eb68110b73024dfc1d33d3c7dd553c7cf92ef3",
                        "prev": "0x0000000000000000000000000000000000000000000000000000000000000000"
                    },
                    {
                        "current": "0x000000000000000000000000000000000000000000000051dd26d45e05f4671d",
                        "key": "0x37805cca5cb00623fb6d4c5b7f4fcf66d8fe1c4e7004bc75a1f3f3fb028f4024",
                        "prev": "0x000000000000000000000000000000000000000000000051e3853799a3dc72db"
                    }
                ],
                "storageVariables": [
                    {
                        "name": "balances",
                        "type": "mapping(address => mapping(address => uint256))",
                        "value": {
                            "pairs": [
                                {
                                    "key": "0x1637d548a2b13e2c91a6f1497ae875f314bd644e",
                                    "value": {
                                        "pairs": [
                                            {
                                                "key": "0xcad8daf1e928ef0867374e8dd21b15df54f122ab",
                                                "value": {
                                                    "current": "819838",
                                                    "prev": "0",
                                                    "typeTag": 1
                                                }
                                            },
                                            {
                                                "key": "0xef0fda1d4bd73ddc2f93a4e46e2e5adbc2d668f4",
                                                "value": {
                                                    "current": "1510121927802262677277",
                                                    "prev": "1510580841122004497115",
                                                    "typeTag": 1
                                                }
                                            }
                                        ],
                                        "typeTag": 4
                                    }
                                },
                                {
                                    "key": "0xc02aaa39b223fe8d0a0e5c4f27ead9083c756cc2",
                                    "value": {
                                        "pairs": [
                                            {
                                                "key": "0x1637d548a2b13e2c91a6f1497ae875f314bd644e",
                                                "value": {
                                                    "current": "9715002469510885146624",
                                                    "prev": "9716927291483528101888",
                                                    "typeTag": 1
                                                }
                                            }
                                        ],
                                        "typeTag": 4
                                    }
                                }
                            ],
                            "typeTag": 4
                        }
                    }
                ]
            },
            {
                "address": "0xc02aaa39b223fe8d0a0e5c4f27ead9083c756cc2",
                "erc": "ERC-20",
                "slots": [
                    {
                        "current": "0x000000000000000000000000000000000000000000000c412dd141061503e5cf",
                        "key": "0x97aa7a62e57c65c478bd236d741fe33d6d6f98713895c11f98ea1dec7f1cd157",
                        "prev": "0x000000000000000000000000000000000000000000000c4148879868e443e5cf"
                    }
                ],
                "storageVariables": [
                    {
                        "name": "balanceOf",
                        "type": "mapping(address => uint256)",
                        "value": {
                            "pairs": [
                                {
                                    "key": "0x5b67871c3a857de81a1ca0f9f7945e5670d986dc",
                                    "value": {
                                        "current": "57870737650723080889807",
                                        "prev": "57872662472695723845071",
                                        "typeTag": 1
                                    }
                                }
                            ],
                            "typeTag": 4
                        }
                    }
                ]
            },
            {
                "address": "0xda6786379ff88729264d31d472fa917f5e561443",
                "erc": "",
                "slots": [
                    {
                        "current": "0x0000000000000000000000000000000000000000000000000000000000001ee4",
                        "key": "0x0000000000000000000000000000000000000000000000000000000000000004",
                        "prev": "0x0000000000000000000000000000000000000000000000000000000000001ee3"
                    }
                ],
                "storageVariables": []
            },
            {
                "address": "0xef0fda1d4bd73ddc2f93a4e46e2e5adbc2d668f4",
                "erc": "ERC-20",
                "slots": [
                    {
                        "current": "0x0000000000000000000000000000000000000000000000cab32158d5b52ecc40",
                        "key": "0x0000000000000000000000000000000000000000000000000000000000000002",
                        "prev": "0x0000000000000000000000000000000000000000000000cac2e649f85acd06c0"
                    },
                    {
                        "current": "0x0000000000000000000000000000000000000000000000000000000000000000",
                        "key": "0xa38fdcfb967fa9c0c019c1a9fff8688aae0c5e77615fe779ed9f37d647feae67",
                        "prev": "0x0000000000000000000000000000000000000000000000000fc4f122a59e3a80"
                    }
                ],
                "storageVariables": [
                    {
                        "name": "_balances",
                        "type": "mapping(address => uint256)",
                        "value": {
                            "pairs": [
                                {
                                    "key": "0xcad8daf1e928ef0867374e8dd21b15df54f122ab",
                                    "value": {
                                        "current": "0",
                                        "prev": "1136298137114000000",
                                        "typeTag": 1
                                    }
                                }
                            ],
                            "typeTag": 4
                        }
                    },
                    {
                        "name": "_totalSupply",
                        "type": "uint256",
                        "value": {
                            "current": "3739149998571241000000",
                            "prev": "3740286296708355000000",
                            "typeTag": 1
                        }
                    }
                ]
            },
            {
                "address": "0xf55186cc537e7067ea616f2aae007b4427a120c8",
                "erc": "",
                "slots": [
                    {
                        "current": "0x000000000000000000000000000000000000000000000000000000000000cdaf",
                        "key": "0x0000000000000000000000000000000000000000000000000000000000000010",
                        "prev": "0x000000000000000000000000000000000000000000000000000000000000cdad"
                    }
                ],
                "storageVariables": [
                    {
                        "name": "_guardCounter",
                        "type": "uint256",
                        "value": {
                            "current": "52655",
                            "prev": "52653",
                            "typeTag": 1
                        }
                    }
                ]
            }
        ]
    }
}