{
    "balance_change": {
        "balanceChanges": []
    },
    "profile": {
        "basic_info": {
            "baseFee": "",
            "blockNumber": 6576695,
            "callData": "0x9859387b000000000000000000000000660649afa62ffc848b06273a428b82cd3934e751",
            "debugEnable": true,
            "errorInfo": "",
            "eventCount": 1,
            "feeRecipient": "0xea674fdde714fd979de3edf0f56aa9716b898ec8",
            "formatValue": "0",
            "gasLimit": 200000,
            "gasPrice": "8",
            "gasUsed": 56201,
            "intTxnCount": 2,
            "internalRevert": false,
            "internalRevertMessage": "",
            "isContractCreation": false,
            "isFlashloan": false,
            "maxFee": "",
            "nonce": 17698,
            "overwritedBlockNumber": -1,
            "priorityFee": "",
            "receiver": "0x017925fdb447544da8ed671b5305461cfc6c6e1d",
            "revertMessage": "",
            "sender": "0x8ff2b01495ec2c9402b5e03e6409ad7fb4ff893c",
            "simulationEnable": true,
            "sourceTxnHash": "0x7185d8050bb6399f19d455df813d87daab1b63aa90cdeabe7bd2d642ded221e9",
            "status": true,
            "timestamp": "2018-10-24T20:03:02Z",
            "transactionFee": "0.000449608",
            "txnHash": "0x7185d8050bb6399f19d455df813d87daab1b63aa90cdeabe7bd2d642ded221e9",
            "txnIndex": 16,
            "type": 0,
            "value": "0"
        },
        "fund_flow": [],
        "token_infos": [
            {
                "address": "0xc02aaa39b223fe8d0a0e5c4f27ead9083c756cc2",
                "decimals": 18
            },
            {
                "address": "0xeeeeeeeeeeeeeeeeeeeeeeeeeeeeeeeeeeeeeeee",
                "decimals": 18
            }
        ]
    },
    "address_label": {
        "labels": [
            {
                "address": "0x017925fdb447544da8ed671b5305461cfc6c6e1d",
                "label": "AccountRegistryLogic"
            },
            {
                "address": "0x0000000000000000000000000000000000000001",
                "label": "Precompiled"
            },
            {
                "address": "0x0000000000000000000000000000000000000002",
                "label": "Precompiled"
            },
            {
                "address": "0x0000000000000000000000000000000000000003",
                "label": "Precompiled"
            },
            {
                "address": "0x0000000000000000000000000000000000000004",
                "label": "Precompiled"
            },
            {
                "address": "0xeeeeeeeeeeeeeeeeeeeeeeeeeeeeeeeeeeeeeeee",
                "label": "Ether"
            },
            {
                "address": "0xa08b00eb41a452540c44e953d9ee86f86793af55",
                "label": "AccountRegistry"
            }
        ]
    },
    "trace": {
        "accountLabels": null,
        "dataMap": {
            "-1": {
                "invocation": {
                    "address": "0x8ff2b01495ec2c9402b5e03e6409ad7fb4ff893c",
                    "callData": "",
                    "decodedMethod": null,
                    "errorInfo": "",
                    "fromAddress": "",
                    "gasUsed": 0,
                    "id": -1,
                    "methodDecoded": false,
                    "operation": "",
                    "output": "",
                    "revert": false,
                    "revertMessage": "",
                    "selector": "",
                    "status": false,
                    "value": ""
                },
                "nodeType": 0
            },
            "0": {
                "invocation": {
                    "address": "0x017925fdb447544da8ed671b5305461cfc6c6e1d",
                    "callData": "0x000000000000000000000000660649afa62ffc848b06273a428b82cd3934e751",
                    "decodedMethod": {
                        "callParams": [
                            {
                                "name": "_newUser",
                                "type": "address",
                                "value": "0x660649afa62ffc848b06273a428b82cd3934e751"
                            }
                        ],
                        "constructorArguments": "",
                        "name": "createAccount",
                        "returnParams": [],
                        "signature": "createAccount(address)"
                    },
                    "errorInfo": "",
                    "fromAddress": "0x8ff2b01495ec2c9402b5e03e6409ad7fb4ff893c",
                    "gasUsed": 56201,
                    "id": 0,
                    "methodDecoded": true,
                    "operation": "CALL",
                    "output": "",
                    "revert": false,
                    "revertMessage": "",
                    "selector": "0x9859387b",
                    "status": true,
                    "value": "0"
                },
                "nodeType": 0
            },
            "1": {
                "invocation": {
                    "address": "0xa08b00eb41a452540c44e953d9ee86f86793af55",
                    "callData": "0x000000000000000000000000660649afa62ffc848b06273a428b82cd3934e751",
                    "decodedMethod": {
                        "callParams": [
                            {
                                "name": "_newUser",
                                "type": "address",
                                "value": "0x660649afa62ffc848b06273a428b82cd3934e751"
                            }
                        ],
                        "constructorArguments": "",
                        "name": "createNewAccount",
                        "returnParams": [],
                        "signature": "createNewAccount(address)"
                    },
                    "errorInfo": "",
                    "fromAddress": "0x017925fdb447544da8ed671b5305461cfc6c6e1d",
                    "gasUsed": 26510,
                    "id": 1,
                    "methodDecoded": true,
                    "operation": "CALL",
                    "output": "",
                    "revert": false,
                    "revertMessage": "",
                    "selector": "0x4f96baf1",
                    "status": true,
                    "value": "0"
                },
                "nodeType": 0
            },
            "2": {
                "invocation": {
                    "address": "0xa08b00eb41a452540c44e953d9ee86f86793af55",
                    "callData": "0x000000000000000000000000660649afa62ffc848b06273a428b82cd3934e751",
                    "decodedMethod": {
                        "callParams": [
                            {
                                "name": "_address",
                                "type": "address",
                                "value": "0x660649afa62ffc848b06273a428b82cd3934e751"
                            }
                        ],
                        "constructorArguments": "",
                        "name": "accountIdForAddress",
                        "returnParams": [
                            {
                                "name": "",
                                "type": "uint256",
                                "value": "27,881"
                            }
                        ],
                        "signature": "accountIdForAddress(address)"
                    },
                    "errorInfo": "",
                    "fromAddress": "0x017925fdb447544da8ed671b5305461cfc6c6e1d",
                    "gasUsed": 965,
                    "id": 2,
                    "methodDecoded": true,
                    "operation": "CALL",
                    "output": "0x0000000000000000000000000000000000000000000000000000000000006ce9",
                    "revert": false,
                    "revertMessage": "",
                    "selector": "0x1a5b70ad",
                    "status": true,
                    "value": "0"
                },
                "nodeType": 0
            },
            "3": {
                "event": {
                    "contract": "0x017925fdb447544da8ed671b5305461cfc6c6e1d",
                    "decodedLog": {
                        "name": "AccountCreated",
                        "params": [
                            {
                                "name": "accountId",
                                "type": "uint256",
                                "value": "27,881"
                            },
                            {
                                "name": "newUser",
                                "type": "address",
                                "value": "0x660649afa62ffc848b06273a428b82cd3934e751"
                            }
                        ],
                        "signature": "AccountCreated(uint256,address)"
                    },
                    "id": 3,
                    "logData": "0x",
                    "logDecoded": true,
                    "operation": "EVENT",
                    "revert": false,
                    "status": true,
                    "topics": [
                        "0x487f75407abee1a719a204e683a93f0583efee10816d2651b112f8be571f7d32",
                        "0x0000000000000000000000000000000000000000000000000000000000006ce9",
                        "0x000000000000000000000000660649afa62ffc848b06273a428b82cd3934e751"
                    ]
                },
                "nodeType": 1
            }
        },
        "gasFlame": [
            {
                "children": [
                    {
                        "children": [
                            {
                                "children": [],
                                "depth": 0,
                                "name": "Initial Gas",
                                "value": 22680
                            },
                            {
                                "children": [
                                    {
                                        "children": [],
                                        "depth": 1,
                                        "name": "createNewAccount",
                                        "value": 26510
                                    },
                                    {
                                        "children": [],
                                        "depth": 1,
                                        "name": "accountIdForAddress",
                                        "value": 965
                                    }
                                ],
                                "depth": 0,
                                "name": "Executed Gas",
                                "value": 33521
                            }
                        ],
                        "depth": -1,
                        "name": "Actual Gas Used",
                        "value": 56201
                    },
                    {
                        "children": [],
                        "depth": -1,
                        "name": "Refunded Gas",
                        "value": 0
                    }
                ],
                "depth": -2,
                "name": "Total Gas",
                "value": 56201
            }
        ],
        "isConfirmed": true,
        "mainTrace": [
            {
                "children": [
                    {
                        "children": [
                            {
                                "children": [],
                                "depth": 1,
                                "id": 1,
                                "order": 1
                            },
                            {
                                "children": [],
                                "depth": 1,
                                "id": 2,
                                "order": 2
                            },
                            {
                                "children": [],
                                "depth": 1,
                                "id": 3,
                                "order": 3
                            }
                        ],
                        "depth": 0,
                        "id": 0,
                        "order": 0
                    }
                ],
                "depth": -1,
                "id": -1,
                "order": -1
            }
        ],
        "mainTraceNodeCount": 4,
        "parentIdMap": {
            "0": -1,
            "1": 0,
            "2": 0,
            "3": 0
        },
        "tidyTrace": [
            {
                "children": [
                    {
                        "children": [
                            {
                                "children": [],
                                "depth": 1,
                                "id": 1,
                                "order": 1
                            },
                            {
                                "children": [],
                                "depth": 1,
                                "id": 2,
                                "order": 2
                            },
                            {
                                "children": [],
                                "depth": 1,
                                "id": 3,
                                "order": 3
                            }
                        ],
                        "depth": 0,
                        "id": 0,
                        "order": 0
                    }
                ],
                "depth": -1,
                "id": -1,
                "order": -1
            }
        ],
        "tidyTraceNodeCount": 4
    },
    "state_change": {
        "stateChanges": [
            {
                "address": "0xa08b00eb41a452540c44e953d9ee86f86793af55",
                "erc": "",
                "slots": [
                    {
                        "current": "0x0000000000000000000000000000000000000000000000000000000000006ce9",
                        "key": "0x0000000000000000000000000000000000000000000000000000000000000002",
                        "prev": "0x0000000000000000000000000000000000000000000000000000000000006ce8"
                    },
                    {
                        "current": "0x0000000000000000000000000000000000000000000000000000000000006ce9",
                        "key": "0xac22caed4a2d4725e4eae5a6ddd8abc6ef0d0529e623427ff66714b869fadcf0",
                        "prev": "0x0000000000000000000000000000000000000000000000000000000000000000"
                    }
                ],
                "storageVariables": [
                    {
                        "name": "numAccounts",
                        "type": "uint256",
                        "value": {
                            "current": "27881",
                            "prev": "27880",
                            "typeTag": 1
                        }
                    },
                    {
                        "name": "accountByAddress",
                        "type": "mapping(address => uint256)",
                        "value": {
                            "pairs": [
                                {
                                    "key": "0x660649afa62ffc848b06273a428b82cd3934e751",
                                    "value": {
                                        "current": "27881",
                                        "prev": "0",
                                        "typeTag": 1
                                    }
                                }
                            ],
                            "typeTag": 4
                        }
                    }
                ]
            }
        ]
    }
}