{
    "balance_change": {
        "balanceChanges": [
            {
                "account": "0xff82bf5238637b7e5e345888bab9cd99f5ebe331",
                "assets": [
                    {
                        "address": "0xeeeeeeeeeeeeeeeeeeeeeeeeeeeeeeeeeeeeeeee",
                        "amount": "0.000000000000002307",
                        "iconUrl": "https://assets.blocksec.com/image/1663669189317-3.png",
                        "isERC1155": false,
                        "isERC721": false,
                        "sign": false,
                        "value": "0.000000000002943801209999999937"
                    }
                ]
            },
            {
                "account": "0xa57bd00134b2850b2a1c55860c9e9ea100fdd6cf",
                "assets": [
                    {
                        "address": "0xeeeeeeeeeeeeeeeeeeeeeeeeeeeeeeeeeeeeeeee",
                        "amount": "0.000000000000002307",
                        "iconUrl": "https://assets.blocksec.com/image/1663669189317-3.png",
                        "isERC1155": false,
                        "isERC721": false,
                        "sign": true,
                        "value": "0.000000000002943801209999999937"
                    }
                ]
            },
            {
                "account": "0x56178a0d5f301baf6cf3e1cd53d9863437345bf9",
                "assets": [
                    {
                        "address": "0xc02aaa39b223fe8d0a0e5c4f27ead9083c756cc2",
                        "amount": "6.281699364834071031",
                        "iconUrl": "https://assets.blocksec.com/icon/f1cb2d02c471d545bbc7722daf3277fd852d98e63d118771af7047bd8256c516.png",
                        "isERC1155": false,
                        "isERC721": false,
                        "sign": false,
                        "value": "8015.636840720949829"
                    },
                    {
                        "address": "0x1f9840a85d5af5bf1d1762f925bdaddc4201f984",
                        "amount": "1,399.683686283663858822",
                        "iconUrl": "https://assets.blocksec.com/icon/a11b26a37f84e146d773ae4914e43619075ce4c922ad0a1fa46464f3049bf839.png",
                        "isERC1155": false,
                        "isERC721": false,
                        "sign": true,
                        "value": "8132.162215659999453"
                    }
                ]
            },
            {
                "account": "0xd3d2e2692501a5c9ca623199d38826e513033a17",
                "assets": [
                    {
                        "address": "0xc02aaa39b223fe8d0a0e5c4f27ead9083c756cc2",
                        "amount": "6.281699364834071031",
                        "iconUrl": "https://assets.blocksec.com/icon/f1cb2d02c471d545bbc7722daf3277fd852d98e63d118771af7047bd8256c516.png",
                        "isERC1155": false,
                        "isERC721": false,
                        "sign": true,
                        "value": "8015.636840720949829"
                    },
                    {
                        "address": "0x1f9840a85d5af5bf1d1762f925bdaddc4201f984",
                        "amount": "1,399.683686283663858822",
                        "iconUrl": "https://assets.blocksec.com/icon/a11b26a37f84e146d773ae4914e43619075ce4c922ad0a1fa46464f3049bf839.png",
                        "isERC1155": false,
                        "isERC721": false,
                        "sign": false,
                        "value": "8132.162215659999453"
                    }
                ]
            }
        ]
    },
    "profile": {
        "basic_info": {
            "baseFee": "14.483731143",
            "blockNumber": 15945516,
            "callData": "0x1cff79cd0000000000000000000000004cf47f6a7a8a85a595d2eba7a5965df85f17b60800000000000000000000000000000000000000000000000000000000000000400000000000000000000000000000000000000000000000000000000000000164ad6080fe000000000000000000000000d3d2e2692501a5c9ca623199d38826e513033a170000000000000000000000001f9840a85d5af5bf1d1762f925bdaddc4201f984000000000000000000000000c02aaa39b223fe8d0a0e5c4f27ead9083c756cc200000000000000000000000056178a0d5f301baf6cf3e1cd53d9863437345bf90000000000000000000000000000000000000000000000003a44ec20b805b0100000000000000000000000000000000000000000000008e42447be145e2d710000000000000000000000000000000000000000000204a977777769baf138c800000000000000000000000000000000000000000000000000000ff7dfd9118f87000000000000000000000000000000000000000000000000000ff7dfd9118f8700000000000000000000000000000000000000000000000000000000636e04e8000000000000000000000000000000000000000000000000000000000000000000000000000000000000000000000000000000000000000000000000",
            "debugEnable": true,
            "errorInfo": "",
            "eventCount": 4,
            "feeRecipient": "0x473780deaf4a2ac070bbba936b0cdefe7f267dfc",
            "formatValue": "0.000000000000002307",
            "gasLimit": 269562,
            "gasPrice": "15.483731143",
            "gasUsed": 114781,
            "intTxnCount": 9,
            "internalRevert": false,
            "internalRevertMessage": "",
            "isContractCreation": false,
            "isFlashloan": false,
            "maxFee": "22.725596714",
            "nonce": 107774,
            "overwritedBlockNumber": -1,
            "priorityFee": "1",
            "receiver": "0xa57bd00134b2850b2a1c55860c9e9ea100fdd6cf",
            "revertMessage": "",
            "sender": "0xff82bf5238637b7e5e345888bab9cd99f5ebe331",
            "simulationEnable": true,
            "sourceTxnHash": "0x72aa8a3dc21a2f03bf8722819f416c91108f9cd96e73c9b25124dda95ee8a676",
            "status": true,
            "timestamp": "2022-11-11T08:14:35Z",
            "transactionFee": "0.001777238144324683",
            "txnHash": "0x72aa8a3dc21a2f03bf8722819f416c91108f9cd96e73c9b25124dda95ee8a676",
            "txnIndex": 127,
            "type": 2,
            "value": "2307"
        },
        "fund_flow": [
            {
                "amount": "0.000000000000002307",
                "from": "0xff82bf5238637b7e5e345888bab9cd99f5ebe331",
                "id": 1,
                "isERC1155": false,
                "isERC721": false,
                "isReverted": false,
                "order": 1,
                "to": "0xa57bd00134b2850b2a1c55860c9e9ea100fdd6cf",
                "token": "0xeeeeeeeeeeeeeeeeeeeeeeeeeeeeeeeeeeeeeeee"
            },
            {
                "amount": "6.281699364834071031",
                "from": "0x56178a0d5f301baf6cf3e1cd53d9863437345bf9",
                "id": 2,
                "isERC1155": false,
                "isERC721": false,
                "isReverted": false,
                "order": 2,
                "to": "0xd3d2e2692501a5c9ca623199d38826e513033a17",
                "token": "0xc02aaa39b223fe8d0a0e5c4f27ead9083c756cc2"
            },
            {
                "amount": "1,399.683686283663858822",
                "from": "0xd3d2e2692501a5c9ca623199d38826e513033a17",
                "id": 3,
                "isERC1155": false,
                "isERC721": false,
                "isReverted": false,
                "order": 3,
                "to": "0x56178a0d5f301baf6cf3e1cd53d9863437345bf9",
                "token": "0x1f9840a85d5af5bf1d1762f925bdaddc4201f984"
            }
        ],
        "token_infos": [
            {
                "address": "0x1f9840a85d5af5bf1d1762f925bdaddc4201f984",
                "decimals": 18
            },
            {
                "address": "0xc02aaa39b223fe8d0a0e5c4f27ead9083c756cc2",
                "decimals": 18
            },
            {
                "address": "0xeeeeeeeeeeeeeeeeeeeeeeeeeeeeeeeeeeeeeeee",
                "decimals": 18
            }
        ]
    },
    "address_label": {
        "labels": [
            {
                "address": "0x1f9840a85d5af5bf1d1762f925bdaddc4201f984",
                "label": "Uniswap Protocol: UNI token"
            },
            {
                "address": "0x0000000000000000000000000000000000000002",
                "label": "Precompiled"
            },
            {
                "address": "0x0000000000000000000000000000000000000003",
                "label": "Precompiled"
            },
            {
                "address": "0x0000000000000000000000000000000000000004",
                "label": "Precompiled"
            },
            {
                "address": "0xd3d2e2692501a5c9ca623199d38826e513033a17",
                "label": "Uniswap V2: UNI 6"
            },
            {
                "address": "0xa57bd00134b2850b2a1c55860c9e9ea100fdd6cf",
                "label": "MEV Bot: 0xa57...6CF"
            },
            {
                "address": "0x0000000000000000000000000000000000000001",
                "label": "Precompiled"
            },
            {
                "address": "0xeeeeeeeeeeeeeeeeeeeeeeeeeeeeeeeeeeeeeeee",
                "label": "Ether"
            },
            {
                "address": "0xc02aaa39b223fe8d0a0e5c4f27ead9083c756cc2",
                "label": "Wrapped Ether (WETH)"
            }
        ]
    },
    "trace": {
        "accountLabels": null,
        "dataMap": {
            "-1": {
                "invocation": {
                    "address": "0xff82bf5238637b7e5e345888bab9cd99f5ebe331",
                    "callData": "",
                    "decodedMethod": null,
                    "errorInfo": "",
                    "fromAddress": "",
                    "gasUsed": 0,
                    "id": -1,
                    "methodDecoded": false,
                    "operation": "",
                    "output": "",
                    "revert": false,
                    "revertMessage": "",
                    "selector": "",
                    "status": false,
                    "value": ""
                },
                "nodeType": 0
            },
            "0": {
                "invocation": {
                    "address": "0xa57bd00134b2850b2a1c55860c9e9ea100fdd6cf",
                    "callData": "0x0000000000000000000000004cf47f6a7a8a85a595d2eba7a5965df85f17b60800000000000000000000000000000000000000000000000000000000000000400000000000000000000000000000000000000000000000000000000000000164ad6080fe000000000000000000000000d3d2e2692501a5c9ca623199d38826e513033a170000000000000000000000001f9840a85d5af5bf1d1762f925bdaddc4201f984000000000000000000000000c02aaa39b223fe8d0a0e5c4f27ead9083c756cc200000000000000000000000056178a0d5f301baf6cf3e1cd53d9863437345bf90000000000000000000000000000000000000000000000003a44ec20b805b0100000000000000000000000000000000000000000000008e42447be145e2d710000000000000000000000000000000000000000000204a977777769baf138c800000000000000000000000000000000000000000000000000000ff7dfd9118f87000000000000000000000000000000000000000000000000000ff7dfd9118f8700000000000000000000000000000000000000000000000000000000636e04e8000000000000000000000000000000000000000000000000000000000000000000000000000000000000000000000000000000000000000000000000",
                    "decodedMethod": {
                        "callParams": [
                            {
                                "name": "_target",
                                "type": "address",
                                "value": "0x4cf47f6a7a8a85a595d2eba7a5965df85f17b608"
                            },
                            {
                                "name": "_data",
                                "type": "bytes",
                                "value": "0xad6080fe000000000000000000000000d3d2e2692501a5c9ca623199d38826e513033a170000000000000000000000001f9840a85d5af5bf1d1762f925bdaddc4201f984000000000000000000000000c02aaa39b223fe8d0a0e5c4f27ead9083c756cc200000000000000000000000056178a0d5f301baf6cf3e1cd53d9863437345bf90000000000000000000000000000000000000000000000003a44ec20b805b0100000000000000000000000000000000000000000000008e42447be145e2d710000000000000000000000000000000000000000000204a977777769baf138c800000000000000000000000000000000000000000000000000000ff7dfd9118f87000000000000000000000000000000000000000000000000000ff7dfd9118f8700000000000000000000000000000000000000000000000000000000636e04e80000000000000000000000000000000000000000000000000000000000000000"
                            }
                        ],
                        "constructorArguments": "",
                        "name": "execute",
                        "returnParams": [],
                        "signature": "execute(address,bytes)"
                    },
                    "errorInfo": "",
                    "fromAddress": "0xff82bf5238637b7e5e345888bab9cd99f5ebe331",
                    "gasUsed": 114781,
                    "id": 0,
                    "methodDecoded": true,
                    "operation": "CALL",
                    "output": "",
                    "revert": false,
                    "revertMessage": "",
                    "selector": "0x1cff79cd",
                    "status": true,
                    "value": "0.000000000000002307"
                },
                "nodeType": 0
            },
            "1": {
                "invocation": {
                    "address": "0x4cf47f6a7a8a85a595d2eba7a5965df85f17b608",
                    "callData": "0x000000000000000000000000d3d2e2692501a5c9ca623199d38826e513033a170000000000000000000000001f9840a85d5af5bf1d1762f925bdaddc4201f984000000000000000000000000c02aaa39b223fe8d0a0e5c4f27ead9083c756cc200000000000000000000000056178a0d5f301baf6cf3e1cd53d9863437345bf90000000000000000000000000000000000000000000000003a44ec20b805b0100000000000000000000000000000000000000000000008e42447be145e2d710000000000000000000000000000000000000000000204a977777769baf138c800000000000000000000000000000000000000000000000000000ff7dfd9118f87000000000000000000000000000000000000000000000000000ff7dfd9118f8700000000000000000000000000000000000000000000000000000000636e04e80000000000000000000000000000000000000000000000000000000000000000",
                    "decodedMethod": null,
                    "errorInfo": "",
                    "fromAddress": "0xa57bd00134b2850b2a1c55860c9e9ea100fdd6cf",
                    "gasUsed": 87242,
                    "id": 1,
                    "methodDecoded": false,
                    "operation": "DELEGATECALL",
                    "output": "0x000000000000000000000000000000000000000000000000572d144a5abb51f700000000000000000000000000000000000000000000000000216ed3bfa95cac",
                    "revert": false,
                    "revertMessage": "",
                    "selector": "0xad6080fe",
                    "status": true,
                    "value": "0.000000000000002307"
                },
                "nodeType": 0
            },
            "10": {
                "invocation": {
                    "address": "0x1f9840a85d5af5bf1d1762f925bdaddc4201f984",
                    "callData": "0x000000000000000000000000d3d2e2692501a5c9ca623199d38826e513033a17",
                    "decodedMethod": {
                        "callParams": [
                            {
                                "name": "account",
                                "type": "address",
                                "value": "0xd3d2e2692501a5c9ca623199d38826e513033a17"
                            }
                        ],
                        "constructorArguments": "",
                        "name": "balanceOf",
                        "returnParams": [
                            {
                                "decimalAvailable": true,
                                "name": "",
                                "type": "uint256",
                                "value": "1,486,560,488,041,516,224,032,341"
                            }
                        ],
                        "signature": "balanceOf(address)"
                    },
                    "errorInfo": "",
                    "fromAddress": "0xd3d2e2692501a5c9ca623199d38826e513033a17",
                    "gasUsed": 797,
                    "id": 10,
                    "methodDecoded": true,
                    "operation": "STATICCALL",
                    "output": "0x000000000000000000000000000000000000000000013aca9b043abcc9ad2e55",
                    "revert": false,
                    "revertMessage": "",
                    "selector": "0x70a08231",
                    "status": true,
                    "value": "0"
                },
                "nodeType": 0
            },
            "11": {
                "invocation": {
                    "address": "0xc02aaa39b223fe8d0a0e5c4f27ead9083c756cc2",
                    "callData": "0x000000000000000000000000d3d2e2692501a5c9ca623199d38826e513033a17",
                    "decodedMethod": {
                        "callParams": [
                            {
                                "name": "",
                                "type": "address",
                                "value": "0xd3d2e2692501a5c9ca623199d38826e513033a17"
                            }
                        ],
                        "constructorArguments": "",
                        "name": "balanceOf",
                        "returnParams": [
                            {
                                "decimalAvailable": true,
                                "name": "",
                                "type": "uint256",
                                "value": "6,657,864,329,449,480,249,831"
                            }
                        ],
                        "signature": "balanceOf(address)"
                    },
                    "errorInfo": "",
                    "fromAddress": "0xd3d2e2692501a5c9ca623199d38826e513033a17",
                    "gasUsed": 534,
                    "id": 11,
                    "methodDecoded": true,
                    "operation": "STATICCALL",
                    "output": "0x000000000000000000000000000000000000000000000168ec6dacc1dc91e1e7",
                    "revert": false,
                    "revertMessage": "",
                    "selector": "0x70a08231",
                    "status": true,
                    "value": "0"
                },
                "nodeType": 0
            },
            "12": {
                "event": {
                    "contract": "0xd3d2e2692501a5c9ca623199d38826e513033a17",
                    "decodedLog": {
                        "name": "Sync",
                        "params": [
                            {
                                "name": "reserve0",
                                "type": "uint112",
                                "value": "1,486,560,488,041,516,224,032,341"
                            },
                            {
                                "name": "reserve1",
                                "type": "uint112",
                                "value": "6,657,864,329,449,480,249,831"
                            }
                        ],
                        "signature": "Sync(uint112,uint112)"
                    },
                    "id": 12,
                    "logData": "0x000000000000000000000000000000000000000000013aca9b043abcc9ad2e55000000000000000000000000000000000000000000000168ec6dacc1dc91e1e7",
                    "logDecoded": true,
                    "operation": "EVENT",
                    "revert": false,
                    "status": true,
                    "topics": [
                        "0x1c411e9a96e071241c2f21f7726b17ae89e3cab4c78be50e062b03a9fffbbad1"
                    ]
                },
                "nodeType": 1
            },
            "13": {
                "event": {
                    "contract": "0xd3d2e2692501a5c9ca623199d38826e513033a17",
                    "decodedLog": {
                        "name": "Swap",
                        "params": [
                            {
                                "name": "sender",
                                "type": "address",
                                "value": "0xa57bd00134b2850b2a1c55860c9e9ea100fdd6cf"
                            },
                            {
                                "name": "to",
                                "type": "address",
                                "value": "0x56178a0d5f301baf6cf3e1cd53d9863437345bf9"
                            },
                            {
                                "name": "amount0In",
                                "type": "uint256",
                                "value": "0"
                            },
                            {
                                "name": "amount1In",
                                "type": "uint256",
                                "value": "6,281,699,364,834,071,031"
                            },
                            {
                                "name": "amount0Out",
                                "type": "uint256",
                                "value": "1,399,683,686,283,663,858,822"
                            },
                            {
                                "name": "amount1Out",
                                "type": "uint256",
                                "value": "0"
                            }
                        ],
                        "signature": "Swap(address,uint256,uint256,uint256,uint256,address)"
                    },
                    "id": 13,
                    "logData": "0x0000000000000000000000000000000000000000000000000000000000000000000000000000000000000000000000000000000000000000572d144a5abb51f700000000000000000000000000000000000000000000004be08360d53f135c860000000000000000000000000000000000000000000000000000000000000000",
                    "logDecoded": true,
                    "operation": "EVENT",
                    "revert": false,
                    "status": true,
                    "topics": [
                        "0xd78ad95fa46c994b6551d0da85fc275fe613ce37657fb8d5e3d130840159d822",
                        "0x000000000000000000000000a57bd00134b2850b2a1c55860c9e9ea100fdd6cf",
                        "0x00000000000000000000000056178a0d5f301baf6cf3e1cd53d9863437345bf9"
                    ]
                },
                "nodeType": 1
            },
            "2": {
                "invocation": {
                    "address": "0xd3d2e2692501a5c9ca623199d38826e513033a17",
                    "callData": "0x",
                    "decodedMethod": {
                        "callParams": [],
                        "constructorArguments": "",
                        "name": "token0",
                        "returnParams": [
                            {
                                "name": "",
                                "type": "address",
                                "value": "0x1f9840a85d5af5bf1d1762f925bdaddc4201f984"
                            }
                        ],
                        "signature": "token0()"
                    },
                    "errorInfo": "",
                    "fromAddress": "0xa57bd00134b2850b2a1c55860c9e9ea100fdd6cf",
                    "gasUsed": 2381,
                    "id": 2,
                    "methodDecoded": true,
                    "operation": "CALL",
                    "output": "0x0000000000000000000000001f9840a85d5af5bf1d1762f925bdaddc4201f984",
                    "revert": false,
                    "revertMessage": "",
                    "selector": "0x0dfe1681",
                    "status": true,
                    "value": "0"
                },
                "nodeType": 0
            },
            "3": {
                "invocation": {
                    "address": "0xd3d2e2692501a5c9ca623199d38826e513033a17",
                    "callData": "0x",
                    "decodedMethod": {
                        "callParams": [],
                        "constructorArguments": "",
                        "name": "getReserves",
                        "returnParams": [
                            {
                                "name": "_reserve0",
                                "type": "uint112",
                                "value": "1,487,960,171,727,799,887,891,163"
                            },
                            {
                                "name": "_reserve1",
                                "type": "uint112",
                                "value": "6,651,582,630,084,646,178,800"
                            },
                            {
                                "name": "_blockTimestampLast",
                                "type": "uint32",
                                "value": "1,668,154,427"
                            }
                        ],
                        "signature": "getReserves()"
                    },
                    "errorInfo": "",
                    "fromAddress": "0xa57bd00134b2850b2a1c55860c9e9ea100fdd6cf",
                    "gasUsed": 2504,
                    "id": 3,
                    "methodDecoded": true,
                    "operation": "CALL",
                    "output": "0x000000000000000000000000000000000000000000013b167b879b9208c08adb0000000000000000000000000000000000000000000001689540987781d68ff000000000000000000000000000000000000000000000000000000000636e043b",
                    "revert": false,
                    "revertMessage": "",
                    "selector": "0x0902f1ac",
                    "status": true,
                    "value": "0"
                },
                "nodeType": 0
            },
            "4": {
                "invocation": {
                    "address": "0xc02aaa39b223fe8d0a0e5c4f27ead9083c756cc2",
                    "callData": "0x00000000000000000000000056178a0d5f301baf6cf3e1cd53d9863437345bf9",
                    "decodedMethod": {
                        "callParams": [
                            {
                                "name": "",
                                "type": "address",
                                "value": "0x56178a0d5f301baf6cf3e1cd53d9863437345bf9"
                            }
                        ],
                        "constructorArguments": "",
                        "name": "balanceOf",
                        "returnParams": [
                            {
                                "decimalAvailable": true,
                                "name": "",
                                "type": "uint256",
                                "value": "9,357,939,660,093,609,821,276"
                            }
                        ],
                        "signature": "balanceOf(address)"
                    },
                    "errorInfo": "",
                    "fromAddress": "0xa57bd00134b2850b2a1c55860c9e9ea100fdd6cf",
                    "gasUsed": 2534,
                    "id": 4,
                    "methodDecoded": true,
                    "operation": "CALL",
                    "output": "0x0000000000000000000000000000000000000000000001fb4b803c5dab4d445c",
                    "revert": false,
                    "revertMessage": "",
                    "selector": "0x70a08231",
                    "status": true,
                    "value": "0"
                },
                "nodeType": 0
            },
            "5": {
                "invocation": {
                    "address": "0xc02aaa39b223fe8d0a0e5c4f27ead9083c756cc2",
                    "callData": "0x00000000000000000000000056178a0d5f301baf6cf3e1cd53d9863437345bf9000000000000000000000000d3d2e2692501a5c9ca623199d38826e513033a17000000000000000000000000000000000000000000000000572d144a5abb51f7",
                    "decodedMethod": {
                        "callParams": [
                            {
                                "name": "src",
                                "type": "address",
                                "value": "0x56178a0d5f301baf6cf3e1cd53d9863437345bf9"
                            },
                            {
                                "name": "dst",
                                "type": "address",
                                "value": "0xd3d2e2692501a5c9ca623199d38826e513033a17"
                            },
                            {
                                "decimalAvailable": true,
                                "name": "wad",
                                "type": "uint256",
                                "value": "6,281,699,364,834,071,031"
                            }
                        ],
                        "constructorArguments": "",
                        "name": "transferFrom",
                        "returnParams": [
                            {
                                "name": "",
                                "type": "bool",
                                "value": true
                            }
                        ],
                        "signature": "transferFrom(address,address,uint256)"
                    },
                    "errorInfo": "",
                    "fromAddress": "0xa57bd00134b2850b2a1c55860c9e9ea100fdd6cf",
                    "gasUsed": 13025,
                    "id": 5,
                    "methodDecoded": true,
                    "operation": "CALL",
                    "output": "0x0000000000000000000000000000000000000000000000000000000000000001",
                    "revert": false,
                    "revertMessage": "",
                    "selector": "0x23b872dd",
                    "status": true,
                    "value": "0"
                },
                "nodeType": 0
            },
            "6": {
                "event": {
                    "contract": "0xc02aaa39b223fe8d0a0e5c4f27ead9083c756cc2",
                    "decodedLog": {
                        "name": "Transfer",
                        "params": [
                            {
                                "name": "src",
                                "type": "address",
                                "value": "0x56178a0d5f301baf6cf3e1cd53d9863437345bf9"
                            },
                            {
                                "name": "dst",
                                "type": "address",
                                "value": "0xd3d2e2692501a5c9ca623199d38826e513033a17"
                            },
                            {
                                "decimalAvailable": true,
                                "name": "wad",
                                "type": "uint256",
                                "value": "6,281,699,364,834,071,031"
                            }
                        ],
                        "signature": "Transfer(address,address,uint256)"
                    },
                    "id": 6,
                    "logData": "0x000000000000000000000000000000000000000000000000572d144a5abb51f7",
                    "logDecoded": true,
                    "operation": "EVENT",
                    "revert": false,
                    "status": true,
                    "topics": [
                        "0xddf252ad1be2c89b69c2b068fc378daa952ba7f163c4a11628f55a4df523b3ef",
                        "0x00000000000000000000000056178a0d5f301baf6cf3e1cd53d9863437345bf9",
                        "0x000000000000000000000000d3d2e2692501a5c9ca623199d38826e513033a17"
                    ]
                },
                "nodeType": 1
            },
            "7": {
                "invocation": {
                    "address": "0xd3d2e2692501a5c9ca623199d38826e513033a17",
                    "callData": "0x00000000000000000000000000000000000000000000004be08360d53f135c86000000000000000000000000000000000000000000000000000000000000000000000000000000000000000056178a0d5f301baf6cf3e1cd53d9863437345bf900000000000000000000000000000000000000000000000000000000000000800000000000000000000000000000000000000000000000000000000000000000",
                    "decodedMethod": {
                        "callParams": [
                            {
                                "name": "amount0Out",
                                "type": "uint256",
                                "value": "1,399,683,686,283,663,858,822"
                            },
                            {
                                "name": "amount1Out",
                                "type": "uint256",
                                "value": "0"
                            },
                            {
                                "name": "to",
                                "type": "address",
                                "value": "0x56178a0d5f301baf6cf3e1cd53d9863437345bf9"
                            },
                            {
                                "name": "data",
                                "type": "bytes",
                                "value": "0x"
                            }
                        ],
                        "constructorArguments": "",
                        "name": "swap",
                        "returnParams": [],
                        "signature": "swap(uint256,uint256,address,bytes)"
                    },
                    "errorInfo": "",
                    "fromAddress": "0xa57bd00134b2850b2a1c55860c9e9ea100fdd6cf",
                    "gasUsed": 51616,
                    "id": 7,
                    "methodDecoded": true,
                    "operation": "CALL",
                    "output": "",
                    "revert": false,
                    "revertMessage": "",
                    "selector": "0x022c0d9f",
                    "status": true,
                    "value": "0"
                },
                "nodeType": 0
            },
            "8": {
                "invocation": {
                    "address": "0x1f9840a85d5af5bf1d1762f925bdaddc4201f984",
                    "callData": "0x00000000000000000000000056178a0d5f301baf6cf3e1cd53d9863437345bf900000000000000000000000000000000000000000000004be08360d53f135c86",
                    "decodedMethod": {
                        "callParams": [
                            {
                                "name": "dst",
                                "type": "address",
                                "value": "0x56178a0d5f301baf6cf3e1cd53d9863437345bf9"
                            },
                            {
                                "decimalAvailable": true,
                                "name": "rawAmount",
                                "type": "uint256",
                                "value": "1,399,683,686,283,663,858,822"
                            }
                        ],
                        "constructorArguments": "",
                        "name": "transfer",
                        "returnParams": [
                            {
                                "name": "",
                                "type": "bool",
                                "value": true
                            }
                        ],
                        "signature": "transfer(address,uint256)"
                    },
                    "errorInfo": "",
                    "fromAddress": "0xd3d2e2692501a5c9ca623199d38826e513033a17",
                    "gasUsed": 18462,
                    "id": 8,
                    "methodDecoded": true,
                    "operation": "CALL",
                    "output": "0x0000000000000000000000000000000000000000000000000000000000000001",
                    "revert": false,
                    "revertMessage": "",
                    "selector": "0xa9059cbb",
                    "status": true,
                    "value": "0"
                },
                "nodeType": 0
            },
            "9": {
                "event": {
                    "contract": "0x1f9840a85d5af5bf1d1762f925bdaddc4201f984",
                    "decodedLog": {
                        "name": "Transfer",
                        "params": [
                            {
                                "name": "from",
                                "type": "address",
                                "value": "0xd3d2e2692501a5c9ca623199d38826e513033a17"
                            },
                            {
                                "name": "to",
                                "type": "address",
                                "value": "0x56178a0d5f301baf6cf3e1cd53d9863437345bf9"
                            },
                            {
                                "decimalAvailable": true,
                                "name": "amount",
                                "type": "uint256",
                                "value": "1,399,683,686,283,663,858,822"
                            }
                        ],
                        "signature": "Transfer(address,address,uint256)"
                    },
                    "id": 9,
                    "logData": "0x00000000000000000000000000000000000000000000004be08360d53f135c86",
                    "logDecoded": true,
                    "operation": "EVENT",
                    "revert": false,
                    "status": true,
                    "topics": [
                        "0xddf252ad1be2c89b69c2b068fc378daa952ba7f163c4a11628f55a4df523b3ef",
                        "0x000000000000000000000000d3d2e2692501a5c9ca623199d38826e513033a17",
                        "0x00000000000000000000000056178a0d5f301baf6cf3e1cd53d9863437345bf9"
                    ]
                },
                "nodeType": 1
            }
        },
        "gasFlame": [
            {
                "children": [
                    {
                        "children": [
                            {
                                "children": [],
                                "depth": 0,
                                "name": "Initial Gas",
                                "value": 24820
                            },
                            {
                                "children": [
                                    {
                                        "children": [
                                            {
                                                "children": [],
                                                "depth": 2,
                                                "name": "token0",
                                                "value": 2381
                                            },
                                            {
                                                "children": [],
                                                "depth": 2,
                                                "name": "getReserves",
                                                "value": 2504
                                            },
                                            {
                                                "children": [],
                                                "depth": 2,
                                                "name": "balanceOf",
                                                "value": 2534
                                            },
                                            {
                                                "children": [],
                                                "depth": 2,
                                                "name": "transferFrom",
                                                "value": 13025
                                            },
                                            {
                                                "children": [
                                                    {
                                                        "children": [],
                                                        "depth": 3,
                                                        "name": "transfer",
                                                        "value": 18462
                                                    },
                                                    {
                                                        "children": [],
                                                        "depth": 3,
                                                        "name": "balanceOf",
                                                        "value": 797
                                                    },
                                                    {
                                                        "children": [],
                                                        "depth": 3,
                                                        "name": "balanceOf",
                                                        "value": 534
                                                    }
                                                ],
                                                "depth": 2,
                                                "name": "swap",
                                                "value": 51616
                                            }
                                        ],
                                        "depth": 1,
                                        "name": "0xad6080fe",
                                        "value": 87242
                                    }
                                ],
                                "depth": 0,
                                "name": "Executed Gas",
                                "value": 92761
                            }
                        ],
                        "depth": -1,
                        "name": "Actual Gas Used",
                        "value": 114781
                    },
                    {
                        "children": [],
                        "depth": -1,
                        "name": "Refunded Gas",
                        "value": 2800
                    }
                ],
                "depth": -2,
                "name": "Total Gas",
                "value": 117581
            }
        ],
        "isConfirmed": true,
        "mainTrace": [
            {
                "children": [
                    {
                        "children": [
                            {
                                "children": [
                                    {
                                        "children": [],
                                        "depth": 2,
                                        "id": 2,
                                        "order": 2
                                    },
                                    {
                                        "children": [],
                                        "depth": 2,
                                        "id": 3,
                                        "order": 3
                                    },
                                    {
                                        "children": [],
                                        "depth": 2,
                                        "id": 4,
                                        "order": 4
                                    },
                                    {
                                        "children": [
                                            {
                                                "children": [],
                                                "depth": 3,
                                                "id": 6,
                                                "order": 6
                                            }
                                        ],
                                        "depth": 2,
                                        "id": 5,
                                        "order": 5
                                    },
                                    {
                                        "children": [
                                            {
                                                "children": [
                                                    {
                                                        "children": [],
                                                        "depth": 4,
                                                        "id": 9,
                                                        "order": 9
                                                    }
                                                ],
                                                "depth": 3,
                                                "id": 8,
                                                "order": 8
                                            },
                                            {
                                                "children": [],
                                                "depth": 3,
                                                "id": 10,
                                                "order": 10
                                            },
                                            {
                                                "children": [],
                                                "depth": 3,
                                                "id": 11,
                                                "order": 11
                                            },
                                            {
                                                "children": [],
                                                "depth": 3,
                                                "id": 12,
                                                "order": 12
                                            },
                                            {
                                                "children": [],
                                                "depth": 3,
                                                "id": 13,
                                                "order": 13
                                            }
                                        ],
                                        "depth": 2,
                                        "id": 7,
                                        "order": 7
                                    }
                                ],
                                "depth": 1,
                                "id": 1,
                                "order": 1
                            }
                        ],
                        "depth": 0,
                        "id": 0,
                        "order": 0
                    }
                ],
                "depth": -1,
                "id": -1,
                "order": -1
            }
        ],
        "mainTraceNodeCount": 14,
        "parentIdMap": {
            "0": -1,
            "1": 0,
            "10": 7,
            "11": 7,
            "12": 7,
            "13": 7,
            "2": 1,
            "3": 1,
            "4": 1,
            "5": 1,
            "6": 5,
            "7": 1,
            "8": 7,
            "9": 8
        },
        "tidyTrace": [
            {
                "children": [
                    {
                        "children": [
                            {
                                "children": [
                                    {
                                        "children": [],
                                        "depth": 2,
                                        "id": 2,
                                        "order": 2
                                    },
                                    {
                                        "children": [],
                                        "depth": 2,
                                        "id": 3,
                                        "order": 3
                                    },
                                    {
                                        "children": [],
                                        "depth": 2,
                                        "id": 4,
                                        "order": 4
                                    },
                                    {
                                        "children": [
                                            {
                                                "children": [],
                                                "depth": 3,
                                                "id": 6,
                                                "order": 6
                                            }
                                        ],
                                        "depth": 2,
                                        "id": 5,
                                        "order": 5
                                    },
                                    {
                                        "children": [
                                            {
                                                "children": [
                                                    {
                                                        "children": [],
                                                        "depth": 4,
                                                        "id": 9,
                                                        "order": 9
                                                    }
                                                ],
                                                "depth": 3,
                                                "id": 8,
                                                "order": 8
                                            },
                                            {
                                                "children": [],
                                                "depth": 3,
                                                "id": 12,
                                                "order": 12
                                            },
                                            {
                                                "children": [],
                                                "depth": 3,
                                                "id": 13,
                                                "order": 13
                                            }
                                        ],
                                        "depth": 2,
                                        "id": 7,
                                        "order": 7
                                    }
                                ],
                                "depth": 1,
                                "id": 1,
                                "order": 1
                            }
                        ],
                        "depth": 0,
                        "id": 0,
                        "order": 0
                    }
                ],
                "depth": -1,
                "id": -1,
                "order": -1
            }
        ],
        "tidyTraceNodeCount": 12
    },
    "state_change": {
        "stateChanges": [
            {
                "address": "0x1f9840a85d5af5bf1d1762f925bdaddc4201f984",
                "erc": "ERC-20",
                "slots": [
                    {
                        "current": "0x000000000000000000000000000000000000000000013aca9b043abcc9ad2e55",
                        "key": "0xc7bb1ae398cf3a19dc07921d07a376ed7265652b5da074d79219553015f73a00",
                        "prev": "0x000000000000000000000000000000000000000000013b167b879b9208c08adb"
                    },
                    {
                        "current": "0x000000000000000000000000000000000000000000001ac8a79d0aa3267c4e9a",
                        "key": "0xe059761c78f035f878b81cf39002a792d347b5a33ea222aaa29904fd0a59f0ca",
                        "prev": "0x000000000000000000000000000000000000000000001a7cc719a9cde768f214"
                    }
                ],
                "storageVariables": [
                    {
                        "name": "balances",
                        "type": "mapping(address => uint96)",
                        "value": {
                            "pairs": [
                                {
                                    "key": "0x56178a0d5f301baf6cf3e1cd53d9863437345bf9",
                                    "value": {
                                        "current": "126482955190824205045402",
                                        "prev": "125083271504540541186580",
                                        "typeTag": 1
                                    }
                                },
                                {
                                    "key": "0xd3d2e2692501a5c9ca623199d38826e513033a17",
                                    "value": {
                                        "current": "1486560488041516224032341",
                                        "prev": "1487960171727799887891163",
                                        "typeTag": 1
                                    }
                                }
                            ],
                            "typeTag": 4
                        }
                    }
                ]
            },
            {
                "address": "0xc02aaa39b223fe8d0a0e5c4f27ead9083c756cc2",
                "erc": "ERC-20",
                "slots": [
                    {
                        "current": "0x0000000000000000000000000000000000000000000001faf45328135091f265",
                        "key": "0x30bd84b96629f958113934633d3bd1b64c3d259a85c57ceac65da8c5ec9bf3a7",
                        "prev": "0x0000000000000000000000000000000000000000000001fb4b803c5dab4d445c"
                    },
                    {
                        "current": "0x000000000000000000000000000000000000000000000168ec6dacc1dc91e1e7",
                        "key": "0xc0e75612d35d156c6027aa01afe2ad7d80853c95e612a023a4992c7cbe19ff21",
                        "prev": "0x0000000000000000000000000000000000000000000001689540987781d68ff0"
                    }
                ],
                "storageVariables": [
                    {
                        "name": "balanceOf",
                        "type": "mapping(address => uint256)",
                        "value": {
                            "pairs": [
                                {
                                    "key": "0x56178a0d5f301baf6cf3e1cd53d9863437345bf9",
                                    "value": {
                                        "current": "9351657960728775750245",
                                        "prev": "9357939660093609821276",
                                        "typeTag": 1
                                    }
                                },
                                {
                                    "key": "0xd3d2e2692501a5c9ca623199d38826e513033a17",
                                    "value": {
                                        "current": "6657864329449480249831",
                                        "prev": "6651582630084646178800",
                                        "typeTag": 1
                                    }
                                }
                            ],
                            "typeTag": 4
                        }
                    }
                ]
            },
            {
                "address": "0xd3d2e2692501a5c9ca623199d38826e513033a17",
                "erc": "ERC-20",
                "slots": [
                    {
                        "current": "0x636e046b000000000168ec6dacc1dc91e1e7000000013aca9b043abcc9ad2e55",
                        "key": "0x0000000000000000000000000000000000000000000000000000000000000008",
                        "prev": "0x636e043b0000000001689540987781d68ff0000000013b167b879b9208c08adb"
                    },
                    {
                        "current": "0x000000000000000000000000000000074214cbf8c6ff168c09e605c80f0e92ee",
                        "key": "0x0000000000000000000000000000000000000000000000000000000000000009",
                        "prev": "0x000000000000000000000000000000074214950a86afdb7b3777478ec98ce1be"
                    },
                    {
                        "current": "0x0000000000000000000000000002e505b717e9236d7cdf4ce387f95c547691c0",
                        "key": "0x000000000000000000000000000000000000000000000000000000000000000a",
                        "prev": "0x0000000000000000000000000002e5058d264d6fedad2ab874b0b22029a1da20"
                    }
                ],
                "storageVariables": [
                    {
                        "name": "reserve0",
                        "type": "uint112",
                        "value": {
                            "current": "1486560488041516224032341",
                            "prev": "1487960171727799887891163",
                            "typeTag": 1
                        }
                    },
                    {
                        "name": "reserve1",
                        "type": "uint112",
                        "value": {
                            "current": "6657864329449480249831",
                            "prev": "6651582630084646178800",
                            "typeTag": 1
                        }
                    },
                    {
                        "name": "blockTimestampLast",
                        "type": "uint32",
                        "value": {
                            "current": "1668154475",
                            "prev": "1668154427",
                            "typeTag": 1
                        }
                    },
                    {
                        "name": "price0CumulativeLast",
                        "type": "uint256",
                        "value": {
                            "current": "2469813599144864647738444023864753033966",
                            "prev": "2469812485018540547455079482709523620286",
                            "typeTag": 1
                        }
                    },
                    {
                        "name": "price1CumulativeLast",
                        "type": "uint256",
                        "value": {
                            "current": "64552148660143612151537619950305976832659904",
                            "prev": "64552092907294247177740654143203621409511968",
                            "typeTag": 1
                        }
                    }
                ]
            }
        ]
    }
}