{
    "balance_change": {
        "balanceChanges": []
    },
    "profile": {
        "basic_info": {
            "baseFee": "77.785129092",
            "blockNumber": 19392873,
            "callData": "0x331838b200000000000000000000000000000000000000000000000000000005d21dba00000000000000000000000000dac17f958d2ee523a2206206994597c13d831ec7000000000000000000000000a0b86991c6218b36c1d19d4a2e9eb0ce3606eb48000000000000000000000000abc02266e32dba984bc324c04930dd6c9267811a00000000000000000000000000000000000000000000000000000005d9e4d890",
            "debugEnable": true,
            "errorInfo": "execution reverted",
            "eventCount": 2,
            "feeRecipient": "0x4838b106fce9647bdf1e7877bf73ce8b0bad5f97",
            "formatValue": "0",
            "gasLimit": 403858,
            "gasPrice": "78.685129092",
            "gasUsed": 146342,
            "intTxnCount": 5,
            "internalRevert": true,
            "internalRevertMessage": "",
            "isContractCreation": false,
            "isFlashloan": false,
            "maxFee": "152.032991048",
            "nonce": 1433,
            "overwritedBlockNumber": -1,
            "priorityFee": "0.9",
            "receiver": "0x609c690e8f7d68a59885c9132e812eebdaaf0c9e",
            "revertMessage": "Pool: slippage",
            "sender": "0xabc02266e32dba984bc324c04930dd6c9267811a",
            "simulationEnable": true,
            "sourceTxnHash": "0x72304e66e58c257df9999e2e4cc9762bd7ae16c3b1c9a32649c9f8585bf741d2",
            "status": false,
            "timestamp": "2024-03-08T20:36:11Z",
            "transactionFee": "0.011514939161581464",
            "txnHash": "0x72304e66e58c257df9999e2e4cc9762bd7ae16c3b1c9a32649c9f8585bf741d2",
            "txnIndex": 26,
            "type": 2,
            "value": "0"
        },
        "fund_flow": [],
        "token_infos": [
            {
                "address": "0xc02aaa39b223fe8d0a0e5c4f27ead9083c756cc2",
                "decimals": 18
            },
            {
                "address": "0xdac17f958d2ee523a2206206994597c13d831ec7",
                "decimals": 6
            },
            {
                "address": "0xeeeeeeeeeeeeeeeeeeeeeeeeeeeeeeeeeeeeeeee",
                "decimals": 18
            }
        ]
    },
    "address_label": {
        "labels": [
            {
                "address": "0x0000000000000000000000000000000000000003",
                "label": "Precompiled"
            },
            {
                "address": "0x7dbf07ad92ed4e26d5511b4f285508ebf174135d",
                "label": "Allbridge LP (LP-USDT)"
            },
            {
                "address": "0x0000000000000000000000000000000000000001",
                "label": "Precompiled"
            },
            {
                "address": "0x0000000000000000000000000000000000000002",
                "label": "Precompiled"
            },
            {
                "address": "0xa7062bba94c91d565ae33b893ab5dfaf1fc57c4d",
                "label": "Allbridge LP (LP-USDC)"
            },
            {
                "address": "0x0000000000000000000000000000000000000004",
                "label": "Precompiled"
            },
            {
                "address": "0xeeeeeeeeeeeeeeeeeeeeeeeeeeeeeeeeeeeeeeee",
                "label": "Ether"
            },
            {
                "address": "0xdac17f958d2ee523a2206206994597c13d831ec7",
                "label": "Tether: USDT Stablecoin"
            },
            {
                "address": "0x609c690e8f7d68a59885c9132e812eebdaaf0c9e",
                "label": "Bridge"
            }
        ]
    },
    "trace": {
        "accountLabels": null,
        "dataMap": {
            "-1": {
                "invocation": {
                    "address": "0xabc02266e32dba984bc324c04930dd6c9267811a",
                    "callData": "",
                    "decodedMethod": null,
                    "errorInfo": "",
                    "fromAddress": "",
                    "gasUsed": 0,
                    "id": -1,
                    "methodDecoded": false,
                    "operation": "",
                    "output": "",
                    "revert": false,
                    "revertMessage": "",
                    "selector": "",
                    "status": false,
                    "value": ""
                },
                "nodeType": 0
            },
            "0": {
                "invocation": {
                    "address": "0x609c690e8f7d68a59885c9132e812eebdaaf0c9e",
                    "callData": "0x00000000000000000000000000000000000000000000000000000005d21dba00000000000000000000000000dac17f958d2ee523a2206206994597c13d831ec7000000000000000000000000a0b86991c6218b36c1d19d4a2e9eb0ce3606eb48000000000000000000000000abc02266e32dba984bc324c04930dd6c9267811a00000000000000000000000000000000000000000000000000000005d9e4d890",
                    "decodedMethod": {
                        "callParams": [
                            {
                                "name": "amount",
                                "type": "uint256",
                                "value": "25,000,000,000"
                            },
                            {
                                "name": "token",
                                "type": "bytes32",
                                "value": "0x000000000000000000000000dac17f958d2ee523a2206206994597c13d831ec7"
                            },
                            {
                                "name": "receiveToken",
                                "type": "bytes32",
                                "value": "0x000000000000000000000000a0b86991c6218b36c1d19d4a2e9eb0ce3606eb48"
                            },
                            {
                                "name": "recipient",
                                "type": "address",
                                "value": "0xabc02266e32dba984bc324c04930dd6c9267811a"
                            },
                            {
                                "name": "receiveAmountMin",
                                "type": "uint256",
                                "value": "25,130,490,000"
                            }
                        ],
                        "constructorArguments": "",
                        "name": "swap",
                        "returnParams": [],
                        "signature": "swap(uint256,bytes32,bytes32,address,uint256)"
                    },
                    "errorInfo": "execution reverted",
                    "fromAddress": "0xabc02266e32dba984bc324c04930dd6c9267811a",
                    "gasUsed": 146342,
                    "id": 0,
                    "methodDecoded": true,
                    "operation": "CALL",
                    "output": "0x08c379a00000000000000000000000000000000000000000000000000000000000000020000000000000000000000000000000000000000000000000000000000000000e506f6f6c3a20736c697070616765000000000000000000000000000000000000",
                    "revert": true,
                    "revertMessage": "Pool: slippage",
                    "selector": "0x331838b2",
                    "status": false,
                    "value": "0"
                },
                "nodeType": 0
            },
            "1": {
                "invocation": {
                    "address": "0xdac17f958d2ee523a2206206994597c13d831ec7",
                    "callData": "0x000000000000000000000000abc02266e32dba984bc324c04930dd6c9267811a0000000000000000000000007dbf07ad92ed4e26d5511b4f285508ebf174135d00000000000000000000000000000000000000000000000000000005d21dba00",
                    "decodedMethod": {
                        "callParams": [
                            {
                                "name": "_from",
                                "type": "address",
                                "value": "0xabc02266e32dba984bc324c04930dd6c9267811a"
                            },
                            {
                                "name": "_to",
                                "type": "address",
                                "value": "0x7dbf07ad92ed4e26d5511b4f285508ebf174135d"
                            },
                            {
                                "decimalAvailable": true,
                                "name": "_value",
                                "type": "uint256",
                                "value": "25,000,000,000"
                            }
                        ],
                        "constructorArguments": "",
                        "name": "transferFrom",
                        "returnParams": [],
                        "signature": "transferFrom(address,address,uint256)"
                    },
                    "errorInfo": "",
                    "fromAddress": "0x609c690e8f7d68a59885c9132e812eebdaaf0c9e",
                    "gasUsed": 26530,
                    "id": 1,
                    "methodDecoded": true,
                    "operation": "CALL",
                    "output": "",
                    "revert": true,
                    "revertMessage": "",
                    "selector": "0x23b872dd",
                    "status": true,
                    "value": "0"
                },
                "nodeType": 0
            },
            "2": {
                "event": {
                    "contract": "0xdac17f958d2ee523a2206206994597c13d831ec7",
                    "decodedLog": {
                        "name": "Transfer",
                        "params": [
                            {
                                "name": "from",
                                "type": "address",
                                "value": "0xabc02266e32dba984bc324c04930dd6c9267811a"
                            },
                            {
                                "name": "to",
                                "type": "address",
                                "value": "0x7dbf07ad92ed4e26d5511b4f285508ebf174135d"
                            },
                            {
                                "decimalAvailable": true,
                                "name": "value",
                                "type": "uint256",
                                "value": "25,000,000,000"
                            }
                        ],
                        "signature": "Transfer(address,address,uint256)"
                    },
                    "id": 2,
                    "logData": "0x00000000000000000000000000000000000000000000000000000005d21dba00",
                    "logDecoded": true,
                    "operation": "EVENT",
                    "revert": true,
                    "status": false,
                    "topics": [
                        "0xddf252ad1be2c89b69c2b068fc378daa952ba7f163c4a11628f55a4df523b3ef",
                        "0x000000000000000000000000abc02266e32dba984bc324c04930dd6c9267811a",
                        "0x0000000000000000000000007dbf07ad92ed4e26d5511b4f285508ebf174135d"
                    ]
                },
                "nodeType": 1
            },
            "3": {
                "invocation": {
                    "address": "0x7dbf07ad92ed4e26d5511b4f285508ebf174135d",
                    "callData": "0x000000000000000000000000abc02266e32dba984bc324c04930dd6c9267811a00000000000000000000000000000000000000000000000000000005d21dba000000000000000000000000000000000000000000000000000000000000000000",
                    "decodedMethod": {
                        "callParams": [
                            {
                                "name": "user",
                                "type": "address",
                                "value": "0xabc02266e32dba984bc324c04930dd6c9267811a"
                            },
                            {
                                "name": "amount",
                                "type": "uint256",
                                "value": "25,000,000,000"
                            },
                            {
                                "name": "zeroFee",
                                "type": "bool",
                                "value": false
                            }
                        ],
                        "constructorArguments": "",
                        "name": "swapToVUsd",
                        "returnParams": [
                            {
                                "name": "",
                                "type": "uint256",
                                "value": "25,027,229"
                            }
                        ],
                        "signature": "swapToVUsd(address,uint256,bool)"
                    },
                    "errorInfo": "",
                    "fromAddress": "0x609c690e8f7d68a59885c9132e812eebdaaf0c9e",
                    "gasUsed": 50003,
                    "id": 3,
                    "methodDecoded": true,
                    "operation": "CALL",
                    "output": "0x00000000000000000000000000000000000000000000000000000000017de29d",
                    "revert": true,
                    "revertMessage": "",
                    "selector": "0x28fdb481",
                    "status": true,
                    "value": "0"
                },
                "nodeType": 0
            },
            "4": {
                "invocation": {
                    "address": "0x7dbf07ad92ed4e26d5511b4f285508ebf174135d",
                    "callData": "0x00000000000000000000000000000000000000000000000000000000279e77f0",
                    "decodedMethod": {
                        "callParams": [
                            {
                                "name": "x",
                                "type": "uint256",
                                "value": "664,696,816"
                            }
                        ],
                        "constructorArguments": "",
                        "name": "getY",
                        "returnParams": [
                            {
                                "name": "",
                                "type": "uint256",
                                "value": "712,375,055"
                            }
                        ],
                        "signature": "getY(uint256)"
                    },
                    "errorInfo": "",
                    "fromAddress": "0x7dbf07ad92ed4e26d5511b4f285508ebf174135d",
                    "gasUsed": 10683,
                    "id": 4,
                    "methodDecoded": true,
                    "operation": "STATICCALL",
                    "output": "0x000000000000000000000000000000000000000000000000000000002a75fb0f",
                    "revert": true,
                    "revertMessage": "",
                    "selector": "0x845a4697",
                    "status": true,
                    "value": "0"
                },
                "nodeType": 0
            },
            "5": {
                "event": {
                    "contract": "0x7dbf07ad92ed4e26d5511b4f285508ebf174135d",
                    "decodedLog": {
                        "name": "SwappedToVUsd",
                        "params": [
                            {
                                "name": "sender",
                                "type": "address",
                                "value": "0xabc02266e32dba984bc324c04930dd6c9267811a"
                            },
                            {
                                "name": "token",
                                "type": "address",
                                "value": "0xdac17f958d2ee523a2206206994597c13d831ec7"
                            },
                            {
                                "name": "amount",
                                "type": "uint256",
                                "value": "25,000,000,000"
                            },
                            {
                                "name": "vUsdAmount",
                                "type": "uint256",
                                "value": "25,027,229"
                            },
                            {
                                "name": "fee",
                                "type": "uint256",
                                "value": "37,500,000"
                            }
                        ],
                        "signature": "SwappedToVUsd(address,address,uint256,uint256,uint256)"
                    },
                    "id": 5,
                    "logData": "0x000000000000000000000000abc02266e32dba984bc324c04930dd6c9267811a000000000000000000000000dac17f958d2ee523a2206206994597c13d831ec700000000000000000000000000000000000000000000000000000005d21dba0000000000000000000000000000000000000000000000000000000000017de29d00000000000000000000000000000000000000000000000000000000023c3460",
                    "logDecoded": true,
                    "operation": "EVENT",
                    "revert": true,
                    "status": false,
                    "topics": [
                        "0xa930da1d3f27a25892307dd59cec52dd9b881661a0f20364757f83a0da2f6873"
                    ]
                },
                "nodeType": 1
            },
            "6": {
                "invocation": {
                    "address": "0xa7062bba94c91d565ae33b893ab5dfaf1fc57c4d",
                    "callData": "0x000000000000000000000000abc02266e32dba984bc324c04930dd6c9267811a00000000000000000000000000000000000000000000000000000000017de29d00000000000000000000000000000000000000000000000000000005d9e4d8900000000000000000000000000000000000000000000000000000000000000000",
                    "decodedMethod": {
                        "callParams": [
                            {
                                "name": "user",
                                "type": "address",
                                "value": "0xabc02266e32dba984bc324c04930dd6c9267811a"
                            },
                            {
                                "name": "amount",
                                "type": "uint256",
                                "value": "25,027,229"
                            },
                            {
                                "name": "receiveAmountMin",
                                "type": "uint256",
                                "value": "25,130,490,000"
                            },
                            {
                                "name": "zeroFee",
                                "type": "bool",
                                "value": false
                            }
                        ],
                        "constructorArguments": "",
                        "name": "swapFromVUsd",
                        "returnParams": [],
                        "signature": "swapFromVUsd(address,uint256,uint256,bool)"
                    },
                    "errorInfo": "execution reverted",
                    "fromAddress": "0x609c690e8f7d68a59885c9132e812eebdaaf0c9e",
                    "gasUsed": 30286,
                    "id": 6,
                    "methodDecoded": true,
                    "operation": "CALL",
                    "output": "0x08c379a00000000000000000000000000000000000000000000000000000000000000020000000000000000000000000000000000000000000000000000000000000000e506f6f6c3a20736c697070616765000000000000000000000000000000000000",
                    "revert": true,
                    "revertMessage": "Pool: slippage",
                    "selector": "0x2d46f63e",
                    "status": false,
                    "value": "0"
                },
                "nodeType": 0
            },
            "7": {
                "invocation": {
                    "address": "0xa7062bba94c91d565ae33b893ab5dfaf1fc57c4d",
                    "callData": "0x000000000000000000000000000000000000000000000000000000006cca895a",
                    "decodedMethod": {
                        "callParams": [
                            {
                                "name": "x",
                                "type": "uint256",
                                "value": "1,825,212,762"
                            }
                        ],
                        "constructorArguments": "",
                        "name": "getY",
                        "returnParams": [
                            {
                                "name": "",
                                "type": "uint256",
                                "value": "1,892,735,256"
                            }
                        ],
                        "signature": "getY(uint256)"
                    },
                    "errorInfo": "",
                    "fromAddress": "0xa7062bba94c91d565ae33b893ab5dfaf1fc57c4d",
                    "gasUsed": 10962,
                    "id": 7,
                    "methodDecoded": true,
                    "operation": "STATICCALL",
                    "output": "0x0000000000000000000000000000000000000000000000000000000070d0d918",
                    "revert": true,
                    "revertMessage": "",
                    "selector": "0x845a4697",
                    "status": true,
                    "value": "0"
                },
                "nodeType": 0
            }
        },
        "gasFlame": [
            {
                "children": [
                    {
                        "children": [
                            {
                                "children": [],
                                "depth": 0,
                                "name": "Initial Gas",
                                "value": 22532
                            },
                            {
                                "children": [
                                    {
                                        "children": [],
                                        "depth": 1,
                                        "name": "transferFrom",
                                        "value": 26530
                                    },
                                    {
                                        "children": [
                                            {
                                                "children": [],
                                                "depth": 2,
                                                "name": "getY",
                                                "value": 10683
                                            }
                                        ],
                                        "depth": 1,
                                        "name": "swapToVUsd",
                                        "value": 50003
                                    },
                                    {
                                        "children": [
                                            {
                                                "children": [],
                                                "depth": 2,
                                                "name": "getY",
                                                "value": 10962
                                            }
                                        ],
                                        "depth": 1,
                                        "name": "swapFromVUsd",
                                        "value": 30286
                                    }
                                ],
                                "depth": 0,
                                "name": "Executed Gas",
                                "value": 123810
                            }
                        ],
                        "depth": -1,
                        "name": "Actual Gas Used",
                        "value": 146342
                    },
                    {
                        "children": [],
                        "depth": -1,
                        "name": "Refunded Gas",
                        "value": 0
                    }
                ],
                "depth": -2,
                "name": "Total Gas",
                "value": 146342
            }
        ],
        "isConfirmed": true,
        "mainTrace": [
            {
                "children": [
                    {
                        "children": [
                            {
                                "children": [
                                    {
                                        "children": [],
                                        "depth": 2,
                                        "id": 2,
                                        "order": 2
                                    }
                                ],
                                "depth": 1,
                                "id": 1,
                                "order": 1
                            },
                            {
                                "children": [
                                    {
                                        "children": [],
                                        "depth": 2,
                                        "id": 4,
                                        "order": 4
                                    },
                                    {
                                        "children": [],
                                        "depth": 2,
                                        "id": 5,
                                        "order": 5
                                    }
                                ],
                                "depth": 1,
                                "id": 3,
                                "order": 3
                            },
                            {
                                "children": [
                                    {
                                        "children": [],
                                        "depth": 2,
                                        "id": 7,
                                        "order": 7
                                    }
                                ],
                                "depth": 1,
                                "id": 6,
                                "order": 6
                            }
                        ],
                        "depth": 0,
                        "id": 0,
                        "order": 0
                    }
                ],
                "depth": -1,
                "id": -1,
                "order": -1
            }
        ],
        "mainTraceNodeCount": 8,
        "parentIdMap": {
            "0": -1,
            "1": 0,
            "2": 1,
            "3": 0,
            "4": 3,
            "5": 3,
            "6": 0,
            "7": 6
        },
        "tidyTrace": [
            {
                "children": [
                    {
                        "children": [
                            {
                                "children": [
                                    {
                                        "children": [],
                                        "depth": 2,
                                        "id": 2,
                                        "order": 2
                                    }
                                ],
                                "depth": 1,
                                "id": 1,
                                "order": 1
                            },
                            {
                                "children": [
                                    {
                                        "children": [],
                                        "depth": 2,
                                        "id": 5,
                                        "order": 5
                                    }
                                ],
                                "depth": 1,
                                "id": 3,
                                "order": 3
                            },
                            {
                                "children": [],
                                "depth": 1,
                                "id": 6,
                                "order": 6
                            }
                        ],
                        "depth": 0,
                        "id": 0,
                        "order": 0
                    }
                ],
                "depth": -1,
                "id": -1,
                "order": -1
            }
        ],
        "tidyTraceNodeCount": 6
    },
    "state_change": {
        "stateChanges": []
    }
}