{
    "balance_change": {
        "balanceChanges": [
            {
                "account": "0x4d246be90c2f36730bb853ad41d0a189061192d3",
                "assets": [
                    {
                        "address": "0x3301ee63fb29f863f2333bd4466acb46cd8323e6",
                        "amount": "12,695,087,974.999999501159104512",
                        "iconUrl": "",
                        "isERC1155": false,
                        "isERC721": false,
                        "sign": false,
                        "value": "9843.960071"
                    }
                ]
            },
            {
                "account": "0x59eebda404a216c61a6e1a49e2e86f00b0d85139",
                "assets": [
                    {
                        "address": "0x3301ee63fb29f863f2333bd4466acb46cd8323e6",
                        "amount": "12,695,087,974.999999501159104512",
                        "iconUrl": "",
                        "isERC1155": false,
                        "isERC721": false,
                        "sign": true,
                        "value": "9843.960071"
                    }
                ]
            }
        ]
    },
    "profile": {
        "basic_info": {
            "baseFee": "",
            "blockNumber": 12786078,
            "callData": "0xc18a84bc00000000000000000000000094b2cf7b02678fc650e320ca6c57b8f9f22ad1db000000000000000000000000000000000000000000000000000000000000004000000000000000000000000000000000000000000000000000000000000000440bea69550000000000000000000000003301ee63fb29f863f2333bd4466acb46cd8323e60000000000000000000000000000000000000000290521721e9640000000000000000000000000000000000000000000000000000000000000000000",
            "debugEnable": true,
            "errorInfo": "",
            "eventCount": 1,
            "feeRecipient": "0x8595dd9e0438640b5e1254f9df579ac12a86865f",
            "formatValue": "0",
            "gasLimit": 300000,
            "gasPrice": "37",
            "gasUsed": 78375,
            "intTxnCount": 2,
            "internalRevert": false,
            "internalRevertMessage": "",
            "isContractCreation": false,
            "isFlashloan": false,
            "maxFee": "",
            "nonce": 2292,
            "overwritedBlockNumber": -1,
            "priorityFee": "",
            "receiver": "0x4d246be90c2f36730bb853ad41d0a189061192d3",
            "revertMessage": "",
            "sender": "0x41eacbda2787f9d1ccb104e8df57838e07478d19",
            "simulationEnable": true,
            "sourceTxnHash": "0x72665146cce5c475f2076ecf7262acd0e462a5c9b37ef1fa6e45cba8ae98d50e",
            "status": true,
            "timestamp": "2021-07-08T10:06:09Z",
            "transactionFee": "0.002899875",
            "txnHash": "0x72665146cce5c475f2076ecf7262acd0e462a5c9b37ef1fa6e45cba8ae98d50e",
            "txnIndex": 73,
            "type": 0,
            "value": "0"
        },
        "fund_flow": [
            {
                "amount": "12,695,087,974.999999501159104512",
                "from": "0x4d246be90c2f36730bb853ad41d0a189061192d3",
                "id": 1,
                "isERC1155": false,
                "isERC721": false,
                "isReverted": false,
                "order": 1,
                "to": "0x59eebda404a216c61a6e1a49e2e86f00b0d85139",
                "token": "0x3301ee63fb29f863f2333bd4466acb46cd8323e6"
            }
        ],
        "token_infos": [
            {
                "address": "0x3301ee63fb29f863f2333bd4466acb46cd8323e6",
                "decimals": 18
            },
            {
                "address": "0xc02aaa39b223fe8d0a0e5c4f27ead9083c756cc2",
                "decimals": 18
            },
            {
                "address": "0xeeeeeeeeeeeeeeeeeeeeeeeeeeeeeeeeeeeeeeee",
                "decimals": 18
            }
        ]
    },
    "address_label": {
        "labels": [
            {
                "address": "0xeeeeeeeeeeeeeeeeeeeeeeeeeeeeeeeeeeeeeeee",
                "label": "Ether"
            },
            {
                "address": "0x3301ee63fb29f863f2333bd4466acb46cd8323e6",
                "label": "Akita Inu: AKITA Token"
            },
            {
                "address": "0x4d246be90c2f36730bb853ad41d0a189061192d3",
                "label": "MEV Bot: 0x4d2...2d3"
            },
            {
                "address": "0x0000000000000000000000000000000000000001",
                "label": "Precompiled"
            },
            {
                "address": "0x0000000000000000000000000000000000000002",
                "label": "Precompiled"
            },
            {
                "address": "0x0000000000000000000000000000000000000003",
                "label": "Precompiled"
            },
            {
                "address": "0x0000000000000000000000000000000000000004",
                "label": "Precompiled"
            }
        ]
    },
    "trace": {
        "accountLabels": null,
        "dataMap": {
            "-1": {
                "invocation": {
                    "address": "0x41eacbda2787f9d1ccb104e8df57838e07478d19",
                    "callData": "",
                    "decodedMethod": null,
                    "errorInfo": "",
                    "fromAddress": "",
                    "gasUsed": 0,
                    "id": -1,
                    "methodDecoded": false,
                    "operation": "",
                    "output": "",
                    "revert": false,
                    "revertMessage": "",
                    "selector": "",
                    "status": false,
                    "value": ""
                },
                "nodeType": 0
            },
            "0": {
                "invocation": {
                    "address": "0x4d246be90c2f36730bb853ad41d0a189061192d3",
                    "callData": "0x00000000000000000000000094b2cf7b02678fc650e320ca6c57b8f9f22ad1db000000000000000000000000000000000000000000000000000000000000004000000000000000000000000000000000000000000000000000000000000000440bea69550000000000000000000000003301ee63fb29f863f2333bd4466acb46cd8323e60000000000000000000000000000000000000000290521721e9640000000000000000000000000000000000000000000000000000000000000000000",
                    "decodedMethod": null,
                    "errorInfo": "",
                    "fromAddress": "0x41eacbda2787f9d1ccb104e8df57838e07478d19",
                    "gasUsed": 78375,
                    "id": 0,
                    "methodDecoded": false,
                    "operation": "CALL",
                    "output": "",
                    "revert": false,
                    "revertMessage": "",
                    "selector": "0xc18a84bc",
                    "status": true,
                    "value": "0"
                },
                "nodeType": 0
            },
            "1": {
                "invocation": {
                    "address": "0x94b2cf7b02678fc650e320ca6c57b8f9f22ad1db",
                    "callData": "0x0000000000000000000000003301ee63fb29f863f2333bd4466acb46cd8323e60000000000000000000000000000000000000000290521721e96400000000000",
                    "decodedMethod": null,
                    "errorInfo": "",
                    "fromAddress": "0x4d246be90c2f36730bb853ad41d0a189061192d3",
                    "gasUsed": 16836,
                    "id": 1,
                    "methodDecoded": false,
                    "operation": "DELEGATECALL",
                    "output": "",
                    "revert": false,
                    "revertMessage": "",
                    "selector": "0x0bea6955",
                    "status": true,
                    "value": "0"
                },
                "nodeType": 0
            },
            "2": {
                "invocation": {
                    "address": "0x3301ee63fb29f863f2333bd4466acb46cd8323e6",
                    "callData": "0x00000000000000000000000059eebda404a216c61a6e1a49e2e86f00b0d851390000000000000000000000000000000000000000290521721e96400000000000",
                    "decodedMethod": {
                        "callParams": [
                            {
                                "name": "recipient",
                                "type": "address",
                                "value": "0x59eebda404a216c61a6e1a49e2e86f00b0d85139"
                            },
                            {
                                "decimalAvailable": true,
                                "name": "amount",
                                "type": "uint256",
                                "value": "12,695,087,974,999,999,501,159,104,512"
                            }
                        ],
                        "constructorArguments": "",
                        "name": "transfer",
                        "returnParams": [
                            {
                                "name": "",
                                "type": "bool",
                                "value": true
                            }
                        ],
                        "signature": "transfer(address,uint256)"
                    },
                    "errorInfo": "",
                    "fromAddress": "0x4d246be90c2f36730bb853ad41d0a189061192d3",
                    "gasUsed": 13127,
                    "id": 2,
                    "methodDecoded": true,
                    "operation": "CALL",
                    "output": "0x0000000000000000000000000000000000000000000000000000000000000001",
                    "revert": false,
                    "revertMessage": "",
                    "selector": "0xa9059cbb",
                    "status": true,
                    "value": "0"
                },
                "nodeType": 0
            },
            "3": {
                "event": {
                    "contract": "0x3301ee63fb29f863f2333bd4466acb46cd8323e6",
                    "decodedLog": {
                        "name": "Transfer",
                        "params": [
                            {
                                "name": "from",
                                "type": "address",
                                "value": "0x4d246be90c2f36730bb853ad41d0a189061192d3"
                            },
                            {
                                "name": "to",
                                "type": "address",
                                "value": "0x59eebda404a216c61a6e1a49e2e86f00b0d85139"
                            },
                            {
                                "decimalAvailable": true,
                                "name": "value",
                                "type": "uint256",
                                "value": "12,695,087,974,999,999,501,159,104,512"
                            }
                        ],
                        "signature": "Transfer(address,address,uint256)"
                    },
                    "id": 3,
                    "logData": "0x0000000000000000000000000000000000000000290521721e96400000000000",
                    "logDecoded": true,
                    "operation": "EVENT",
                    "revert": false,
                    "status": true,
                    "topics": [
                        "0xddf252ad1be2c89b69c2b068fc378daa952ba7f163c4a11628f55a4df523b3ef",
                        "0x0000000000000000000000004d246be90c2f36730bb853ad41d0a189061192d3",
                        "0x00000000000000000000000059eebda404a216c61a6e1a49e2e86f00b0d85139"
                    ]
                },
                "nodeType": 1
            }
        },
        "gasFlame": [
            {
                "children": [
                    {
                        "children": [
                            {
                                "children": [],
                                "depth": 0,
                                "name": "Initial Gas",
                                "value": 22468
                            },
                            {
                                "children": [
                                    {
                                        "children": [
                                            {
                                                "children": [],
                                                "depth": 2,
                                                "name": "transfer",
                                                "value": 13127
                                            }
                                        ],
                                        "depth": 1,
                                        "name": "0x0bea6955",
                                        "value": 16836
                                    }
                                ],
                                "depth": 0,
                                "name": "Executed Gas",
                                "value": 55907
                            }
                        ],
                        "depth": -1,
                        "name": "Actual Gas Used",
                        "value": 78375
                    },
                    {
                        "children": [],
                        "depth": -1,
                        "name": "Refunded Gas",
                        "value": 0
                    }
                ],
                "depth": -2,
                "name": "Total Gas",
                "value": 78375
            }
        ],
        "isConfirmed": true,
        "mainTrace": [
            {
                "children": [
                    {
                        "children": [
                            {
                                "children": [
                                    {
                                        "children": [
                                            {
                                                "children": [],
                                                "depth": 3,
                                                "id": 3,
                                                "order": 3
                                            }
                                        ],
                                        "depth": 2,
                                        "id": 2,
                                        "order": 2
                                    }
                                ],
                                "depth": 1,
                                "id": 1,
                                "order": 1
                            }
                        ],
                        "depth": 0,
                        "id": 0,
                        "order": 0
                    }
                ],
                "depth": -1,
                "id": -1,
                "order": -1
            }
        ],
        "mainTraceNodeCount": 4,
        "parentIdMap": {
            "0": -1,
            "1": 0,
            "2": 1,
            "3": 2
        },
        "tidyTrace": [
            {
                "children": [
                    {
                        "children": [
                            {
                                "children": [
                                    {
                                        "children": [
                                            {
                                                "children": [],
                                                "depth": 3,
                                                "id": 3,
                                                "order": 3
                                            }
                                        ],
                                        "depth": 2,
                                        "id": 2,
                                        "order": 2
                                    }
                                ],
                                "depth": 1,
                                "id": 1,
                                "order": 1
                            }
                        ],
                        "depth": 0,
                        "id": 0,
                        "order": 0
                    }
                ],
                "depth": -1,
                "id": -1,
                "order": -1
            }
        ],
        "tidyTraceNodeCount": 4
    },
    "state_change": {
        "stateChanges": [
            {
                "address": "0x3301ee63fb29f863f2333bd4466acb46cd8323e6",
                "erc": "ERC-20",
                "slots": [
                    {
                        "current": "0x0000000000000000000000000000000000000000000000000c2238f9f426ad4e",
                        "key": "0x6c649bb2377f4a75dfc7449c5293fb9998a29eaf5cc8fc4213a21d5debb8217f",
                        "prev": "0x0000000000000000000000000000000000000000290521722ab878f9f426ad4e"
                    },
                    {
                        "current": "0x00000000000000000000000000000000000000002be2d735f27022c3fc3dc21f",
                        "key": "0x693f8b0bbbf47a0f15ab0bb02bd15bc45429f3cb42570c88f1a67548676b6945",
                        "prev": "0x000000000000000000000000000000000000000002ddb5c3d3d9e2c3fc3dc21f"
                    }
                ],
                "storageVariables": [
                    {
                        "name": "_balances",
                        "type": "mapping(address => uint256)",
                        "value": {
                            "pairs": [
                                {
                                    "key": "0x4d246be90c2f36730bb853ad41d0a189061192d3",
                                    "value": {
                                        "current": "874323923857485134",
                                        "prev": "12695087975874323425016589646",
                                        "typeTag": 1
                                    }
                                },
                                {
                                    "key": "0x59eebda404a216c61a6e1a49e2e86f00b0d85139",
                                    "value": {
                                        "current": "13582088961491498208692388383",
                                        "prev": "887000986491498707533283871",
                                        "typeTag": 1
                                    }
                                }
                            ],
                            "typeTag": 4
                        }
                    }
                ]
            }
        ]
    }
}