{
    "balance_change": {
        "balanceChanges": []
    },
    "profile": {
        "basic_info": {
            "baseFee": "",
            "blockNumber": 4395359,
            "callData": "0xa6ec80e20000000000000000000000007a30f7736e48d6599356464ba4c150d8da0302ff",
            "debugEnable": true,
            "errorInfo": "",
            "eventCount": 1,
            "feeRecipient": "0x829bd824b016326a401d083b33d092293333a830",
            "formatValue": "0",
            "gasLimit": 300000,
            "gasPrice": "1.000000001",
            "gasUsed": 231089,
            "intTxnCount": 7,
            "internalRevert": false,
            "internalRevertMessage": "",
            "isContractCreation": false,
            "isFlashloan": false,
            "maxFee": "",
            "nonce": 110049,
            "overwritedBlockNumber": -1,
            "priorityFee": "",
            "receiver": "0x71d271f8b14adef568f8f28f1587ce7271ac4ca5",
            "revertMessage": "",
            "sender": "0x9901c66f2d4b95f7074b553da78084d708beca70",
            "simulationEnable": true,
            "sourceTxnHash": "0x726885717cec5e1138aecba5c6753c1f68c718157fa5f02911415de63c3c63ee",
            "status": true,
            "timestamp": "2017-10-20T11:26:32Z",
            "transactionFee": "0.000231089000231089",
            "txnHash": "0x726885717cec5e1138aecba5c6753c1f68c718157fa5f02911415de63c3c63ee",
            "txnIndex": 15,
            "type": 0,
            "value": "0"
        },
        "fund_flow": [],
        "token_infos": [
            {
                "address": "0xc02aaa39b223fe8d0a0e5c4f27ead9083c756cc2",
                "decimals": 18
            },
            {
                "address": "0xeeeeeeeeeeeeeeeeeeeeeeeeeeeeeeeeeeeeeeee",
                "decimals": 18
            }
        ]
    },
    "address_label": {
        "labels": [
            {
                "address": "0x0000000000000000000000000000000000000002",
                "label": "Precompiled"
            },
            {
                "address": "0x0000000000000000000000000000000000000003",
                "label": "Precompiled"
            },
            {
                "address": "0x0000000000000000000000000000000000000004",
                "label": "Precompiled"
            },
            {
                "address": "0xeeeeeeeeeeeeeeeeeeeeeeeeeeeeeeeeeeeeeeee",
                "label": "Ether"
            },
            {
                "address": "0x48681684ffcc808c10e519364d31b73662b3e333",
                "label": "Ambi2"
            },
            {
                "address": "0x0000000000000000000000000000000000000001",
                "label": "Precompiled"
            }
        ]
    },
    "trace": {
        "accountLabels": null,
        "dataMap": {
            "-1": {
                "invocation": {
                    "address": "0x9901c66f2d4b95f7074b553da78084d708beca70",
                    "callData": "",
                    "decodedMethod": null,
                    "errorInfo": "",
                    "fromAddress": "",
                    "gasUsed": 0,
                    "id": -1,
                    "methodDecoded": false,
                    "operation": "",
                    "output": "",
                    "revert": false,
                    "revertMessage": "",
                    "selector": "",
                    "status": false,
                    "value": ""
                },
                "nodeType": 0
            },
            "0": {
                "invocation": {
                    "address": "0x71d271f8b14adef568f8f28f1587ce7271ac4ca5",
                    "callData": "0x0000000000000000000000007a30f7736e48d6599356464ba4c150d8da0302ff",
                    "decodedMethod": null,
                    "errorInfo": "",
                    "fromAddress": "0x9901c66f2d4b95f7074b553da78084d708beca70",
                    "gasUsed": 231089,
                    "id": 0,
                    "methodDecoded": false,
                    "operation": "CALL",
                    "output": "0x0000000000000000000000000000000000000000000000000000000000000001",
                    "revert": false,
                    "revertMessage": "",
                    "selector": "0xa6ec80e2",
                    "status": true,
                    "value": "0"
                },
                "nodeType": 0
            },
            "1": {
                "invocation": {
                    "address": "0x48681684ffcc808c10e519364d31b73662b3e333",
                    "callData": "0x00000000000000000000000071d271f8b14adef568f8f28f1587ce7271ac4ca56465706c6f7900000000000000000000000000000000000000000000000000000000000000000000000000009901c66f2d4b95f7074b553da78084d708beca70",
                    "decodedMethod": {
                        "callParams": [
                            {
                                "name": "_from",
                                "type": "address",
                                "value": "0x71d271f8b14adef568f8f28f1587ce7271ac4ca5"
                            },
                            {
                                "name": "_role",
                                "type": "bytes32",
                                "value": "0x6465706c6f790000000000000000000000000000000000000000000000000000"
                            },
                            {
                                "name": "_to",
                                "type": "address",
                                "value": "0x9901c66f2d4b95f7074b553da78084d708beca70"
                            }
                        ],
                        "constructorArguments": "",
                        "name": "hasRole",
                        "returnParams": [
                            {
                                "name": "",
                                "type": "bool",
                                "value": true
                            }
                        ],
                        "signature": "hasRole(address,bytes32,address)"
                    },
                    "errorInfo": "",
                    "fromAddress": "0x71d271f8b14adef568f8f28f1587ce7271ac4ca5",
                    "gasUsed": 1031,
                    "id": 1,
                    "methodDecoded": true,
                    "operation": "CALL",
                    "output": "0x0000000000000000000000000000000000000000000000000000000000000001",
                    "revert": false,
                    "revertMessage": "",
                    "selector": "0x2d3e579a",
                    "status": true,
                    "value": "0"
                },
                "nodeType": 0
            },
            "2": {
                "invocation": {
                    "address": "0x29ac5e3c5fca0b683d87a0c02477030936749d4c",
                    "callData": "0x60606040523415600b57fe5b5b60838061001a6000396000f30060606040525b603c5b60006010603e565b9050593681016040523660008237602060003683856040603f5a0204f41560375760206000f35bfe5b50565b005b73072461a5e18f444b1cf2e8dde6dfb1af391973165b905600a165627a7a72305820f67c3e37695388c0157f7c8c916af192c130183b333408076a9da943436817d00029",
                    "decodedMethod": null,
                    "errorInfo": "",
                    "fromAddress": "0x71d271f8b14adef568f8f28f1587ce7271ac4ca5",
                    "gasUsed": 26277,
                    "id": 2,
                    "methodDecoded": false,
                    "operation": "CREATE",
                    "output": "0x60606040525b603c5b60006010603e565b9050593681016040523660008237602060003683856040603f5a0204f41560375760206000f35bfe5b50565b005b73072461a5e18f444b1cf2e8dde6dfb1af391973165b905600a165627a7a72305820f67c3e37695388c0157f7c8c916af192c130183b333408076a9da943436817d00029",
                    "revert": false,
                    "revertMessage": "",
                    "selector": "",
                    "status": true,
                    "value": "0"
                },
                "nodeType": 0
            },
            "3": {
                "invocation": {
                    "address": "0x2967577cae9c2c69fc598b1c0316152abdd6f0f0",
                    "callData": "0x60606040523415600b57fe5b5b60838061001a6000396000f30060606040525b603c5b60006010603e565b9050593681016040523660008237602060003683856040603f5a0204f41560545760206000f35bfe5b50565b005b73c3b2ae46792547a96b9f84405e36d0e07edcd05c5b905600a165627a7a7230582062a884f947232ada573f95940cce9c8bfb7e4e14e21df5af4e884941afb55e590029",
                    "decodedMethod": null,
                    "errorInfo": "",
                    "fromAddress": "0x71d271f8b14adef568f8f28f1587ce7271ac4ca5",
                    "gasUsed": 26277,
                    "id": 3,
                    "methodDecoded": false,
                    "operation": "CREATE",
                    "output": "0x60606040525b603c5b60006010603e565b9050593681016040523660008237602060003683856040603f5a0204f41560545760206000f35bfe5b50565b005b73c3b2ae46792547a96b9f84405e36d0e07edcd05c5b905600a165627a7a7230582062a884f947232ada573f95940cce9c8bfb7e4e14e21df5af4e884941afb55e590029",
                    "revert": false,
                    "revertMessage": "",
                    "selector": "",
                    "status": true,
                    "value": "0"
                },
                "nodeType": 0
            },
            "4": {
                "invocation": {
                    "address": "0x29ac5e3c5fca0b683d87a0c02477030936749d4c",
                    "callData": "0x0000000000000000000000002967577cae9c2c69fc598b1c0316152abdd6f0f0",
                    "decodedMethod": null,
                    "errorInfo": "",
                    "fromAddress": "0x71d271f8b14adef568f8f28f1587ce7271ac4ca5",
                    "gasUsed": 21577,
                    "id": 4,
                    "methodDecoded": false,
                    "operation": "CALL",
                    "output": "0x0000000000000000000000000000000000000000000000000000000000000000",
                    "revert": false,
                    "revertMessage": "",
                    "selector": "0xf8a6c595",
                    "status": true,
                    "value": "0"
                },
                "nodeType": 0
            },
            "5": {
                "invocation": {
                    "address": "0x072461a5e18f444b1cf2e8dde6dfb1af39197316",
                    "callData": "0x0000000000000000000000002967577cae9c2c69fc598b1c0316152abdd6f0f0",
                    "decodedMethod": null,
                    "errorInfo": "",
                    "fromAddress": "0x29ac5e3c5fca0b683d87a0c02477030936749d4c",
                    "gasUsed": 20722,
                    "id": 5,
                    "methodDecoded": false,
                    "operation": "DELEGATECALL",
                    "output": "",
                    "revert": false,
                    "revertMessage": "",
                    "selector": "0xf8a6c595",
                    "status": true,
                    "value": "0"
                },
                "nodeType": 0
            },
            "6": {
                "invocation": {
                    "address": "0x2967577cae9c2c69fc598b1c0316152abdd6f0f0",
                    "callData": "0x00000000000000000000000029ac5e3c5fca0b683d87a0c02477030936749d4c0000000000000000000000007a30f7736e48d6599356464ba4c150d8da0302ff",
                    "decodedMethod": null,
                    "errorInfo": "",
                    "fromAddress": "0x71d271f8b14adef568f8f28f1587ce7271ac4ca5",
                    "gasUsed": 62108,
                    "id": 6,
                    "methodDecoded": false,
                    "operation": "CALL",
                    "output": "0x0000000000000000000000000000000000000000000000000000000000000000",
                    "revert": false,
                    "revertMessage": "",
                    "selector": "0x4525f804",
                    "status": true,
                    "value": "0"
                },
                "nodeType": 0
            },
            "7": {
                "invocation": {
                    "address": "0xc3b2ae46792547a96b9f84405e36d0e07edcd05c",
                    "callData": "0x00000000000000000000000029ac5e3c5fca0b683d87a0c02477030936749d4c0000000000000000000000007a30f7736e48d6599356464ba4c150d8da0302ff",
                    "decodedMethod": null,
                    "errorInfo": "",
                    "fromAddress": "0x2967577cae9c2c69fc598b1c0316152abdd6f0f0",
                    "gasUsed": 61247,
                    "id": 7,
                    "methodDecoded": false,
                    "operation": "DELEGATECALL",
                    "output": "",
                    "revert": false,
                    "revertMessage": "",
                    "selector": "0x4525f804",
                    "status": true,
                    "value": "0"
                },
                "nodeType": 0
            },
            "8": {
                "event": {
                    "contract": "0x71d271f8b14adef568f8f28f1587ce7271ac4ca5",
                    "decodedLog": {
                        "name": "Deployed",
                        "params": [
                            {
                                "name": "owner",
                                "type": "address",
                                "value": "0x2967577cae9c2c69fc598b1c0316152abdd6f0f0"
                            },
                            {
                                "name": "contractAddress",
                                "type": "address",
                                "value": "0x29ac5e3c5fca0b683d87a0c02477030936749d4c"
                            }
                        ],
                        "signature": "Deployed(address,address)"
                    },
                    "id": 8,
                    "logData": "0x0000000000000000000000002967577cae9c2c69fc598b1c0316152abdd6f0f000000000000000000000000029ac5e3c5fca0b683d87a0c02477030936749d4c",
                    "logDecoded": true,
                    "operation": "EVENT",
                    "revert": false,
                    "status": true,
                    "topics": [
                        "0x09e48df7857bd0c1e0d31bb8a85d42cf1874817895f171c917f6ee2cea73ec20"
                    ]
                },
                "nodeType": 1
            }
        },
        "gasFlame": [
            {
                "children": [
                    {
                        "children": [
                            {
                                "children": [],
                                "depth": 0,
                                "name": "Initial Gas",
                                "value": 22680
                            },
                            {
                                "children": [
                                    {
                                        "children": [],
                                        "depth": 1,
                                        "name": "hasRole",
                                        "value": 1031
                                    },
                                    {
                                        "children": [],
                                        "depth": 1,
                                        "name": "contract creation",
                                        "value": 26277
                                    },
                                    {
                                        "children": [],
                                        "depth": 1,
                                        "name": "contract creation",
                                        "value": 26277
                                    },
                                    {
                                        "children": [
                                            {
                                                "children": [],
                                                "depth": 2,
                                                "name": "0xf8a6c595",
                                                "value": 20722
                                            }
                                        ],
                                        "depth": 1,
                                        "name": "0xf8a6c595",
                                        "value": 21577
                                    },
                                    {
                                        "children": [
                                            {
                                                "children": [],
                                                "depth": 2,
                                                "name": "0x4525f804",
                                                "value": 61247
                                            }
                                        ],
                                        "depth": 1,
                                        "name": "0x4525f804",
                                        "value": 62108
                                    }
                                ],
                                "depth": 0,
                                "name": "Executed Gas",
                                "value": 208409
                            }
                        ],
                        "depth": -1,
                        "name": "Actual Gas Used",
                        "value": 231089
                    },
                    {
                        "children": [],
                        "depth": -1,
                        "name": "Refunded Gas",
                        "value": 0
                    }
                ],
                "depth": -2,
                "name": "Total Gas",
                "value": 231089
            }
        ],
        "isConfirmed": true,
        "mainTrace": [
            {
                "children": [
                    {
                        "children": [
                            {
                                "children": [],
                                "depth": 1,
                                "id": 1,
                                "order": 1
                            },
                            {
                                "children": [],
                                "depth": 1,
                                "id": 2,
                                "order": 2
                            },
                            {
                                "children": [],
                                "depth": 1,
                                "id": 3,
                                "order": 3
                            },
                            {
                                "children": [
                                    {
                                        "children": [],
                                        "depth": 2,
                                        "id": 5,
                                        "order": 5
                                    }
                                ],
                                "depth": 1,
                                "id": 4,
                                "order": 4
                            },
                            {
                                "children": [
                                    {
                                        "children": [],
                                        "depth": 2,
                                        "id": 7,
                                        "order": 7
                                    }
                                ],
                                "depth": 1,
                                "id": 6,
                                "order": 6
                            },
                            {
                                "children": [],
                                "depth": 1,
                                "id": 8,
                                "order": 8
                            }
                        ],
                        "depth": 0,
                        "id": 0,
                        "order": 0
                    }
                ],
                "depth": -1,
                "id": -1,
                "order": -1
            }
        ],
        "mainTraceNodeCount": 9,
        "parentIdMap": {
            "0": -1,
            "1": 0,
            "2": 0,
            "3": 0,
            "4": 0,
            "5": 4,
            "6": 0,
            "7": 6,
            "8": 0
        },
        "tidyTrace": [
            {
                "children": [
                    {
                        "children": [
                            {
                                "children": [],
                                "depth": 1,
                                "id": 1,
                                "order": 1
                            },
                            {
                                "children": [],
                                "depth": 1,
                                "id": 2,
                                "order": 2
                            },
                            {
                                "children": [],
                                "depth": 1,
                                "id": 3,
                                "order": 3
                            },
                            {
                                "children": [
                                    {
                                        "children": [],
                                        "depth": 2,
                                        "id": 5,
                                        "order": 5
                                    }
                                ],
                                "depth": 1,
                                "id": 4,
                                "order": 4
                            },
                            {
                                "children": [
                                    {
                                        "children": [],
                                        "depth": 2,
                                        "id": 7,
                                        "order": 7
                                    }
                                ],
                                "depth": 1,
                                "id": 6,
                                "order": 6
                            },
                            {
                                "children": [],
                                "depth": 1,
                                "id": 8,
                                "order": 8
                            }
                        ],
                        "depth": 0,
                        "id": 0,
                        "order": 0
                    }
                ],
                "depth": -1,
                "id": -1,
                "order": -1
            }
        ],
        "tidyTraceNodeCount": 9
    },
    "state_change": {
        "stateChanges": [
            {
                "address": "0x2967577cae9c2c69fc598b1c0316152abdd6f0f0",
                "erc": "",
                "slots": [
                    {
                        "current": "0x0000000000000000000000007a30f7736e48d6599356464ba4c150d8da0302ff",
                        "key": "0x0000000000000000000000000000000000000000000000000000000000000001",
                        "prev": "0x0000000000000000000000000000000000000000000000000000000000000000"
                    },
                    {
                        "current": "0x0000000000000000000000000000000000000000000000000000000000000001",
                        "key": "0xe11e6be0b8558b7fb4ceb0f589d475127642c00aa88fe721f13e495aedafbd23",
                        "prev": "0x0000000000000000000000000000000000000000000000000000000000000000"
                    },
                    {
                        "current": "0x00000000000000000000000029ac5e3c5fca0b683d87a0c02477030936749d4c",
                        "key": "0x0000000000000000000000000000000000000000000000000000000000000002",
                        "prev": "0x0000000000000000000000000000000000000000000000000000000000000000"
                    }
                ],
                "storageVariables": []
            },
            {
                "address": "0x29ac5e3c5fca0b683d87a0c02477030936749d4c",
                "erc": "",
                "slots": [
                    {
                        "current": "0x0000000000000000000000002967577cae9c2c69fc598b1c0316152abdd6f0f0",
                        "key": "0x0000000000000000000000000000000000000000000000000000000000000000",
                        "prev": "0x0000000000000000000000000000000000000000000000000000000000000000"
                    }
                ],
                "storageVariables": []
            }
        ]
    }
}