{
    "balance_change": {
        "balanceChanges": [
            {
                "account": "0xc871fff872f145c6f99cd6985b86f2ba5bb31f08",
                "assets": [
                    {
                        "address": "0x06a6a7af298129e3a2ab396c9c06f91d3c54aba8",
                        "amount": "396,124",
                        "iconUrl": "",
                        "isERC1155": false,
                        "isERC721": false,
                        "sign": false,
                        "value": ""
                    }
                ]
            },
            {
                "account": "0x7b88824b7be5a9c9f9f96342b5aa92055d783821",
                "assets": [
                    {
                        "address": "0x06a6a7af298129e3a2ab396c9c06f91d3c54aba8",
                        "amount": "396,124",
                        "iconUrl": "",
                        "isERC1155": false,
                        "isERC721": false,
                        "sign": true,
                        "value": ""
                    }
                ]
            }
        ]
    },
    "profile": {
        "basic_info": {
            "baseFee": "",
            "blockNumber": 9840107,
            "callData": "0x23b872dd000000000000000000000000c871fff872f145c6f99cd6985b86f2ba5bb31f080000000000000000000000007b88824b7be5a9c9f9f96342b5aa92055d7838210000000000000000000000000000000000000000000000000000000000060b5c",
            "debugEnable": true,
            "errorInfo": "",
            "eventCount": 1,
            "feeRecipient": "0x84a0d77c693adabe0ebc48f88b3ffff010577051",
            "formatValue": "0",
            "gasLimit": 300000,
            "gasPrice": "1.01",
            "gasUsed": 87778,
            "intTxnCount": 0,
            "internalRevert": false,
            "internalRevertMessage": "",
            "isContractCreation": false,
            "isFlashloan": false,
            "maxFee": "",
            "nonce": 171,
            "overwritedBlockNumber": -1,
            "priorityFee": "",
            "receiver": "0x06a6a7af298129e3a2ab396c9c06f91d3c54aba8",
            "revertMessage": "",
            "sender": "0xc871fff872f145c6f99cd6985b86f2ba5bb31f08",
            "simulationEnable": true,
            "sourceTxnHash": "0x72daaa4dcbaff526e2387b42ffbfae341ab01bb47b6cae602ea315e4600bbd9f",
            "status": true,
            "timestamp": "2020-04-09T20:09:55Z",
            "transactionFee": "0.00008865578",
            "txnHash": "0x72daaa4dcbaff526e2387b42ffbfae341ab01bb47b6cae602ea315e4600bbd9f",
            "txnIndex": 141,
            "type": 0,
            "value": "0"
        },
        "fund_flow": [
            {
                "amount": "396,124",
                "from": "0xc871fff872f145c6f99cd6985b86f2ba5bb31f08",
                "id": 1,
                "isERC1155": false,
                "isERC721": false,
                "isReverted": false,
                "order": 1,
                "to": "0x7b88824b7be5a9c9f9f96342b5aa92055d783821",
                "token": "0x06a6a7af298129e3a2ab396c9c06f91d3c54aba8"
            }
        ],
        "token_infos": [
            {
                "address": "0x06a6a7af298129e3a2ab396c9c06f91d3c54aba8",
                "decimals": -1
            },
            {
                "address": "0xc02aaa39b223fe8d0a0e5c4f27ead9083c756cc2",
                "decimals": 18
            },
            {
                "address": "0xeeeeeeeeeeeeeeeeeeeeeeeeeeeeeeeeeeeeeeee",
                "decimals": 18
            }
        ]
    },
    "address_label": {
        "labels": [
            {
                "address": "0x0000000000000000000000000000000000000003",
                "label": "Precompiled"
            },
            {
                "address": "0x0000000000000000000000000000000000000004",
                "label": "Precompiled"
            },
            {
                "address": "0xeeeeeeeeeeeeeeeeeeeeeeeeeeeeeeeeeeeeeeee",
                "label": "Ether"
            },
            {
                "address": "0x06a6a7af298129e3a2ab396c9c06f91d3c54aba8",
                "label": "0xUniverse: PLANET Token"
            },
            {
                "address": "0x0000000000000000000000000000000000000001",
                "label": "Precompiled"
            },
            {
                "address": "0x0000000000000000000000000000000000000002",
                "label": "Precompiled"
            }
        ]
    },
    "trace": {
        "accountLabels": null,
        "dataMap": {
            "-1": {
                "invocation": {
                    "address": "0xc871fff872f145c6f99cd6985b86f2ba5bb31f08",
                    "callData": "",
                    "decodedMethod": null,
                    "errorInfo": "",
                    "fromAddress": "",
                    "gasUsed": 0,
                    "id": -1,
                    "methodDecoded": false,
                    "operation": "",
                    "output": "",
                    "revert": false,
                    "revertMessage": "",
                    "selector": "",
                    "status": false,
                    "value": ""
                },
                "nodeType": 0
            },
            "0": {
                "invocation": {
                    "address": "0x06a6a7af298129e3a2ab396c9c06f91d3c54aba8",
                    "callData": "0x000000000000000000000000c871fff872f145c6f99cd6985b86f2ba5bb31f080000000000000000000000007b88824b7be5a9c9f9f96342b5aa92055d7838210000000000000000000000000000000000000000000000000000000000060b5c",
                    "decodedMethod": {
                        "callParams": [
                            {
                                "name": "_from",
                                "type": "address",
                                "value": "0xc871fff872f145c6f99cd6985b86f2ba5bb31f08"
                            },
                            {
                                "name": "_to",
                                "type": "address",
                                "value": "0x7b88824b7be5a9c9f9f96342b5aa92055d783821"
                            },
                            {
                                "decimalAvailable": true,
                                "name": "_tokenId",
                                "type": "uint256",
                                "value": "396,124"
                            }
                        ],
                        "constructorArguments": "",
                        "name": "transferFrom",
                        "returnParams": [],
                        "signature": "transferFrom(address,address,uint256)"
                    },
                    "errorInfo": "",
                    "fromAddress": "0xc871fff872f145c6f99cd6985b86f2ba5bb31f08",
                    "gasUsed": 87778,
                    "id": 0,
                    "methodDecoded": true,
                    "operation": "CALL",
                    "output": "",
                    "revert": false,
                    "revertMessage": "",
                    "selector": "0x23b872dd",
                    "status": true,
                    "value": "0"
                },
                "nodeType": 0
            },
            "1": {
                "event": {
                    "contract": "0x06a6a7af298129e3a2ab396c9c06f91d3c54aba8",
                    "decodedLog": {
                        "name": "Transfer",
                        "params": [
                            {
                                "name": "_from",
                                "type": "address",
                                "value": "0xc871fff872f145c6f99cd6985b86f2ba5bb31f08"
                            },
                            {
                                "name": "_to",
                                "type": "address",
                                "value": "0x7b88824b7be5a9c9f9f96342b5aa92055d783821"
                            },
                            {
                                "decimalAvailable": true,
                                "name": "_tokenId",
                                "type": "uint256",
                                "value": "396,124"
                            }
                        ],
                        "signature": "Transfer(address,address,uint256)"
                    },
                    "id": 1,
                    "logData": "0x0000000000000000000000000000000000000000000000000000000000060b5c",
                    "logDecoded": true,
                    "operation": "EVENT",
                    "revert": false,
                    "status": true,
                    "topics": [
                        "0xddf252ad1be2c89b69c2b068fc378daa952ba7f163c4a11628f55a4df523b3ef",
                        "0x000000000000000000000000c871fff872f145c6f99cd6985b86f2ba5bb31f08",
                        "0x0000000000000000000000007b88824b7be5a9c9f9f96342b5aa92055d783821"
                    ]
                },
                "nodeType": 1
            }
        },
        "gasFlame": [
            {
                "children": [
                    {
                        "children": [
                            {
                                "children": [],
                                "depth": 0,
                                "name": "Initial Gas",
                                "value": 21964
                            },
                            {
                                "children": [],
                                "depth": 0,
                                "name": "Executed Gas",
                                "value": 85014
                            }
                        ],
                        "depth": -1,
                        "name": "Actual Gas Used",
                        "value": 87778
                    },
                    {
                        "children": [],
                        "depth": -1,
                        "name": "Refunded Gas",
                        "value": 19200
                    }
                ],
                "depth": -2,
                "name": "Total Gas",
                "value": 106978
            }
        ],
        "isConfirmed": true,
        "mainTrace": [
            {
                "children": [
                    {
                        "children": [
                            {
                                "children": [],
                                "depth": 1,
                                "id": 1,
                                "order": 1
                            }
                        ],
                        "depth": 0,
                        "id": 0,
                        "order": 0
                    }
                ],
                "depth": -1,
                "id": -1,
                "order": -1
            }
        ],
        "mainTraceNodeCount": 2,
        "parentIdMap": {
            "0": -1,
            "1": 0
        },
        "tidyTrace": [
            {
                "children": [
                    {
                        "children": [
                            {
                                "children": [],
                                "depth": 1,
                                "id": 1,
                                "order": 1
                            }
                        ],
                        "depth": 0,
                        "id": 0,
                        "order": 0
                    }
                ],
                "depth": -1,
                "id": -1,
                "order": -1
            }
        ],
        "tidyTraceNodeCount": 2
    },
    "state_change": {
        "stateChanges": [
            {
                "address": "0x06a6a7af298129e3a2ab396c9c06f91d3c54aba8",
                "erc": "ERC-721",
                "slots": [
                    {
                        "current": "0x000000000000000000000000000000000000000000000000000000000000000b",
                        "key": "0xe886d62eb5152381ab53bfded33209c84eab7486dd6c14260b6d740b614b6009",
                        "prev": "0x000000000000000000000000000000000000000000000000000000000000000c"
                    },
                    {
                        "current": "0x000000000000000000000000000000000000000000000000000000000000000a",
                        "key": "0x8aa2b609e0fe4c58b3a010eaf8c809f97eed27d115d7e0affe5dab49d8776755",
                        "prev": "0x000000000000000000000000000000000000000000000000000000000000000b"
                    },
                    {
                        "current": "0x000000000000000000000000000000000000000000000000000000000000000b",
                        "key": "0x9575061de583575889510b3961065d43cd87324d5b22c222d8bd68dc46476d11",
                        "prev": "0x000000000000000000000000000000000000000000000000000000000000000a"
                    },
                    {
                        "current": "0x000000000000000000000000000000000000000000000000000000000000000b",
                        "key": "0xcc0fd5a3af6b58d2307c8a81282f5e66a276587d074c9d8d7fe05ea559cdd203",
                        "prev": "0x000000000000000000000000000000000000000000000000000000000000000a"
                    },
                    {
                        "current": "0x0000000000000000000000000000000000000000000000000000000000060b5c",
                        "key": "0x4168f77b0a4380ae93ee63055ad03f1628c19bba6bf494460f8086521f8ab6e7",
                        "prev": "0x0000000000000000000000000000000000000000000000000000000000000000"
                    },
                    {
                        "current": "0x000000000000000000000000000000000000000000000000000000000000000b",
                        "key": "0x24eb649d2aaa20621327dc6c2b0fe5ad6ccdd87aa6c0e2a225cd0378f7d0b73c",
                        "prev": "0x000000000000000000000000000000000000000000000000000000000000000c"
                    },
                    {
                        "current": "0x0000000000000000000000007b88824b7be5a9c9f9f96342b5aa92055d783821",
                        "key": "0xa8e070672be4ee21c6384f65e2de63942f930faa25742d9a2c5abc4ce14d2574",
                        "prev": "0x000000000000000000000000c871fff872f145c6f99cd6985b86f2ba5bb31f08"
                    },
                    {
                        "current": "0x0000000000000000000000000000000000000000000000000000000000000000",
                        "key": "0x4f06e76fc7249f08899f3215961438f3aad4d660db8156b40cb7fdb4a4677d88",
                        "prev": "0x0000000000000000000000000000000000000000000000000000000000060b5c"
                    }
                ],
                "storageVariables": [
                    {
                        "name": "tokenOwner",
                        "type": "mapping(uint256 => address)",
                        "value": {
                            "pairs": [
                                {
                                    "key": "396124",
                                    "value": {
                                        "current": "0x7b88824b7be5a9c9f9f96342b5aa92055d783821",
                                        "prev": "0xc871fff872f145c6f99cd6985b86f2ba5bb31f08",
                                        "typeTag": 1
                                    }
                                }
                            ],
                            "typeTag": 4
                        }
                    },
                    {
                        "name": "ownedTokens",
                        "type": "mapping(address => uint256[])",
                        "value": {
                            "pairs": [
                                {
                                    "key": "0x7b88824b7be5a9c9f9f96342b5aa92055d783821",
                                    "value": {
                                        "elemType": "uint256",
                                        "elems": [
                                            {
                                                "index": 10,
                                                "value": {
                                                    "current": "396124",
                                                    "prev": "0",
                                                    "typeTag": 1
                                                }
                                            }
                                        ],
                                        "typeTag": 2
                                    }
                                }
                            ],
                            "typeTag": 4
                        }
                    },
                    {
                        "name": "ownedTokensIndex",
                        "type": "mapping(uint256 => uint256)",
                        "value": {
                            "pairs": [
                                {
                                    "key": "396124",
                                    "value": {
                                        "current": "10",
                                        "prev": "11",
                                        "typeTag": 1
                                    }
                                }
                            ],
                            "typeTag": 4
                        }
                    },
                    {
                        "name": "ownedTokensCount",
                        "type": "mapping(address => uint256)",
                        "value": {
                            "pairs": [
                                {
                                    "key": "0x7b88824b7be5a9c9f9f96342b5aa92055d783821",
                                    "value": {
                                        "current": "11",
                                        "prev": "10",
                                        "typeTag": 1
                                    }
                                },
                                {
                                    "key": "0xc871fff872f145c6f99cd6985b86f2ba5bb31f08",
                                    "value": {
                                        "current": "11",
                                        "prev": "12",
                                        "typeTag": 1
                                    }
                                }
                            ],
                            "typeTag": 4
                        }
                    }
                ]
            }
        ]
    }
}