{
    "balance_change": {
        "balanceChanges": [
            {
                "account": "0x684df9ec529b9f12891e086111af95a6256d6b9f",
                "assets": [
                    {
                        "address": "0xcc8fa225d80b9c7d42f96e9570156c65d6caaa25",
                        "amount": "286,939",
                        "iconUrl": "https://assets.blocksec.com/icon/fc2a01d842c57a6a1fac3bd31569aeef596b047fed4623ea8486a1bc2aefb50d.png",
                        "isERC1155": false,
                        "isERC721": false,
                        "sign": false,
                        "value": "0.45760000000000002193"
                    }
                ]
            },
            {
                "account": "0xf369285cde60d9c61b8bfeea9934d9ade10df3c7",
                "assets": [
                    {
                        "address": "0xcc8fa225d80b9c7d42f96e9570156c65d6caaa25",
                        "amount": "286,939",
                        "iconUrl": "https://assets.blocksec.com/icon/fc2a01d842c57a6a1fac3bd31569aeef596b047fed4623ea8486a1bc2aefb50d.png",
                        "isERC1155": false,
                        "isERC721": false,
                        "sign": true,
                        "value": "0.45760000000000002193"
                    }
                ]
            }
        ]
    },
    "profile": {
        "basic_info": {
            "baseFee": "13.989800162",
            "blockNumber": 17477477,
            "callData": "0xa9059cbb000000000000000000000000f369285cde60d9c61b8bfeea9934d9ade10df3c700000000000000000000000000000000000000000000000000000000000460db",
            "debugEnable": true,
            "errorInfo": "",
            "eventCount": 1,
            "feeRecipient": "0xdafea492d9c6733ae3d56b7ed1adb60692c98bc5",
            "formatValue": "0",
            "gasLimit": 61856,
            "gasPrice": "14.439800162",
            "gasUsed": 46747,
            "intTxnCount": 0,
            "internalRevert": false,
            "internalRevertMessage": "",
            "isContractCreation": false,
            "isFlashloan": false,
            "maxFee": "22.013211435",
            "nonce": 4,
            "overwritedBlockNumber": -1,
            "priorityFee": "0.45",
            "receiver": "0xcc8fa225d80b9c7d42f96e9570156c65d6caaa25",
            "revertMessage": "",
            "sender": "0x684df9ec529b9f12891e086111af95a6256d6b9f",
            "simulationEnable": true,
            "sourceTxnHash": "0x72ee45c48168916ae926e356bf2b5c27ac11f0da2277c98332ce433e3490c603",
            "status": true,
            "timestamp": "2023-06-14T10:05:47Z",
            "transactionFee": "0.000675017338173014",
            "txnHash": "0x72ee45c48168916ae926e356bf2b5c27ac11f0da2277c98332ce433e3490c603",
            "txnIndex": 90,
            "type": 2,
            "value": "0"
        },
        "fund_flow": [
            {
                "amount": "286,939",
                "from": "0x684df9ec529b9f12891e086111af95a6256d6b9f",
                "id": 1,
                "isERC1155": false,
                "isERC721": false,
                "isReverted": false,
                "order": 1,
                "to": "0xf369285cde60d9c61b8bfeea9934d9ade10df3c7",
                "token": "0xcc8fa225d80b9c7d42f96e9570156c65d6caaa25"
            }
        ],
        "token_infos": [
            {
                "address": "0xc02aaa39b223fe8d0a0e5c4f27ead9083c756cc2",
                "decimals": 18
            },
            {
                "address": "0xcc8fa225d80b9c7d42f96e9570156c65d6caaa25",
                "decimals": 0
            },
            {
                "address": "0xeeeeeeeeeeeeeeeeeeeeeeeeeeeeeeeeeeeeeeee",
                "decimals": 18
            }
        ]
    },
    "address_label": {
        "labels": [
            {
                "address": "0x0000000000000000000000000000000000000002",
                "label": "Precompiled"
            },
            {
                "address": "0x0000000000000000000000000000000000000003",
                "label": "Precompiled"
            },
            {
                "address": "0x0000000000000000000000000000000000000004",
                "label": "Precompiled"
            },
            {
                "address": "0xeeeeeeeeeeeeeeeeeeeeeeeeeeeeeeeeeeeeeeee",
                "label": "Ether"
            },
            {
                "address": "0xcc8fa225d80b9c7d42f96e9570156c65d6caaa25",
                "label": "Axie Infinity: SLP Token"
            },
            {
                "address": "0xf369285cde60d9c61b8bfeea9934d9ade10df3c7",
                "label": "GATE.IO"
            },
            {
                "address": "0x0000000000000000000000000000000000000001",
                "label": "Precompiled"
            }
        ]
    },
    "trace": {
        "accountLabels": null,
        "dataMap": {
            "-1": {
                "invocation": {
                    "address": "0x684df9ec529b9f12891e086111af95a6256d6b9f",
                    "callData": "",
                    "decodedMethod": null,
                    "errorInfo": "",
                    "fromAddress": "",
                    "gasUsed": 0,
                    "id": -1,
                    "methodDecoded": false,
                    "operation": "",
                    "output": "",
                    "revert": false,
                    "revertMessage": "",
                    "selector": "",
                    "status": false,
                    "value": ""
                },
                "nodeType": 0
            },
            "0": {
                "invocation": {
                    "address": "0xcc8fa225d80b9c7d42f96e9570156c65d6caaa25",
                    "callData": "0x000000000000000000000000f369285cde60d9c61b8bfeea9934d9ade10df3c700000000000000000000000000000000000000000000000000000000000460db",
                    "decodedMethod": {
                        "callParams": [
                            {
                                "name": "_to",
                                "type": "address",
                                "value": "0xf369285cde60d9c61b8bfeea9934d9ade10df3c7"
                            },
                            {
                                "decimalAvailable": true,
                                "name": "_value",
                                "type": "uint256",
                                "value": "286,939"
                            }
                        ],
                        "constructorArguments": "",
                        "name": "transfer",
                        "returnParams": [
                            {
                                "name": "_success",
                                "type": "bool",
                                "value": true
                            }
                        ],
                        "signature": "transfer(address,uint256)"
                    },
                    "errorInfo": "",
                    "fromAddress": "0x684df9ec529b9f12891e086111af95a6256d6b9f",
                    "gasUsed": 46747,
                    "id": 0,
                    "methodDecoded": true,
                    "operation": "CALL",
                    "output": "0x0000000000000000000000000000000000000000000000000000000000000001",
                    "revert": false,
                    "revertMessage": "",
                    "selector": "0xa9059cbb",
                    "status": true,
                    "value": "0"
                },
                "nodeType": 0
            },
            "1": {
                "event": {
                    "contract": "0xcc8fa225d80b9c7d42f96e9570156c65d6caaa25",
                    "decodedLog": {
                        "name": "Transfer",
                        "params": [
                            {
                                "name": "_from",
                                "type": "address",
                                "value": "0x684df9ec529b9f12891e086111af95a6256d6b9f"
                            },
                            {
                                "name": "_to",
                                "type": "address",
                                "value": "0xf369285cde60d9c61b8bfeea9934d9ade10df3c7"
                            },
                            {
                                "decimalAvailable": true,
                                "name": "_value",
                                "type": "uint256",
                                "value": "286,939"
                            }
                        ],
                        "signature": "Transfer(address,address,uint256)"
                    },
                    "id": 1,
                    "logData": "0x00000000000000000000000000000000000000000000000000000000000460db",
                    "logDecoded": true,
                    "operation": "EVENT",
                    "revert": false,
                    "status": true,
                    "topics": [
                        "0xddf252ad1be2c89b69c2b068fc378daa952ba7f163c4a11628f55a4df523b3ef",
                        "0x000000000000000000000000684df9ec529b9f12891e086111af95a6256d6b9f",
                        "0x000000000000000000000000f369285cde60d9c61b8bfeea9934d9ade10df3c7"
                    ]
                },
                "nodeType": 1
            }
        },
        "gasFlame": [
            {
                "children": [
                    {
                        "children": [
                            {
                                "children": [],
                                "depth": 0,
                                "name": "Initial Gas",
                                "value": 21596
                            },
                            {
                                "children": [],
                                "depth": 0,
                                "name": "Executed Gas",
                                "value": 29951
                            }
                        ],
                        "depth": -1,
                        "name": "Actual Gas Used",
                        "value": 46747
                    },
                    {
                        "children": [],
                        "depth": -1,
                        "name": "Refunded Gas",
                        "value": 4800
                    }
                ],
                "depth": -2,
                "name": "Total Gas",
                "value": 51547
            }
        ],
        "isConfirmed": true,
        "mainTrace": [
            {
                "children": [
                    {
                        "children": [
                            {
                                "children": [],
                                "depth": 1,
                                "id": 1,
                                "order": 1
                            }
                        ],
                        "depth": 0,
                        "id": 0,
                        "order": 0
                    }
                ],
                "depth": -1,
                "id": -1,
                "order": -1
            }
        ],
        "mainTraceNodeCount": 2,
        "parentIdMap": {
            "0": -1,
            "1": 0
        },
        "tidyTrace": [
            {
                "children": [
                    {
                        "children": [
                            {
                                "children": [],
                                "depth": 1,
                                "id": 1,
                                "order": 1
                            }
                        ],
                        "depth": 0,
                        "id": 0,
                        "order": 0
                    }
                ],
                "depth": -1,
                "id": -1,
                "order": -1
            }
        ],
        "tidyTraceNodeCount": 2
    },
    "state_change": {
        "stateChanges": [
            {
                "address": "0xcc8fa225d80b9c7d42f96e9570156c65d6caaa25",
                "erc": "ERC-20",
                "slots": [
                    {
                        "current": "0x00000000000000000000000000000000000000000000000000000000000460db",
                        "key": "0x7b2c69c8826f1a527420bdd4a5b9d18eaf2f064c4a70aaf7559d26cc05cb748d",
                        "prev": "0x0000000000000000000000000000000000000000000000000000000000000000"
                    },
                    {
                        "current": "0x0000000000000000000000000000000000000000000000000000000000000000",
                        "key": "0xcdf12a304e8aaa097e8fd8882e3f9b51d294f79f8d998ecefb4a09395be892fe",
                        "prev": "0x00000000000000000000000000000000000000000000000000000000000460db"
                    }
                ],
                "storageVariables": [
                    {
                        "name": "balanceOf",
                        "type": "mapping(address => uint256)",
                        "value": {
                            "pairs": [
                                {
                                    "key": "0x684df9ec529b9f12891e086111af95a6256d6b9f",
                                    "value": {
                                        "current": "0",
                                        "prev": "286939",
                                        "typeTag": 1
                                    }
                                },
                                {
                                    "key": "0xf369285cde60d9c61b8bfeea9934d9ade10df3c7",
                                    "value": {
                                        "current": "286939",
                                        "prev": "0",
                                        "typeTag": 1
                                    }
                                }
                            ],
                            "typeTag": 4
                        }
                    }
                ]
            }
        ]
    }
}