{
    "balance_change": {
        "balanceChanges": [
            {
                "account": "0x6f76fcb694a3e1d16dab5398737ec2f3ca53a00d",
                "assets": [
                    {
                        "address": "0x2c8678f04e0aa12bd40280d110e69de1f8421c9b",
                        "amount": "1",
                        "iconUrl": "",
                        "isERC1155": false,
                        "isERC721": true,
                        "sign": false,
                        "tokenID": "7757",
                        "value": ""
                    }
                ]
            },
            {
                "account": "0x2b72a427fe696cbfa70c2884b94564fb0679fa94",
                "assets": [
                    {
                        "address": "0x2c8678f04e0aa12bd40280d110e69de1f8421c9b",
                        "amount": "1",
                        "iconUrl": "",
                        "isERC1155": false,
                        "isERC721": true,
                        "sign": true,
                        "tokenID": "7757",
                        "value": ""
                    }
                ]
            }
        ]
    },
    "profile": {
        "basic_info": {
            "baseFee": "84.631832567",
            "blockNumber": 14912159,
            "callData": "0x42842e0e0000000000000000000000006f76fcb694a3e1d16dab5398737ec2f3ca53a00d0000000000000000000000002b72a427fe696cbfa70c2884b94564fb0679fa940000000000000000000000000000000000000000000000000000000000001e4d",
            "debugEnable": true,
            "errorInfo": "",
            "eventCount": 1,
            "feeRecipient": "0x1ad91ee08f21be3de0ba2ba6918e714da6b45836",
            "formatValue": "0",
            "gasLimit": 140000,
            "gasPrice": "100",
            "gasUsed": 47208,
            "intTxnCount": 0,
            "internalRevert": false,
            "internalRevertMessage": "",
            "isContractCreation": false,
            "isFlashloan": false,
            "maxFee": "",
            "nonce": 6,
            "overwritedBlockNumber": -1,
            "priorityFee": "",
            "receiver": "0x2c8678f04e0aa12bd40280d110e69de1f8421c9b",
            "revertMessage": "",
            "sender": "0x6f76fcb694a3e1d16dab5398737ec2f3ca53a00d",
            "simulationEnable": true,
            "sourceTxnHash": "0x72b1564e279e26e99ddd9b247934efa11f299c86b8b5468cc09c4cef950819fb",
            "status": true,
            "timestamp": "2022-06-06T00:59:33Z",
            "transactionFee": "0.0047208",
            "txnHash": "0x72b1564e279e26e99ddd9b247934efa11f299c86b8b5468cc09c4cef950819fb",
            "txnIndex": 45,
            "type": 0,
            "value": "0"
        },
        "fund_flow": [
            {
                "amount": "1",
                "from": "0x6f76fcb694a3e1d16dab5398737ec2f3ca53a00d",
                "id": 1,
                "isERC1155": false,
                "isERC721": true,
                "isReverted": false,
                "order": 1,
                "to": "0x2b72a427fe696cbfa70c2884b94564fb0679fa94",
                "token": "0x2c8678f04e0aa12bd40280d110e69de1f8421c9b",
                "tokenID": "7757"
            }
        ],
        "token_infos": [
            {
                "address": "0xc02aaa39b223fe8d0a0e5c4f27ead9083c756cc2",
                "decimals": 18
            },
            {
                "address": "0xeeeeeeeeeeeeeeeeeeeeeeeeeeeeeeeeeeeeeeee",
                "decimals": 18
            }
        ]
    },
    "address_label": {
        "labels": [
            {
                "address": "0xeeeeeeeeeeeeeeeeeeeeeeeeeeeeeeeeeeeeeeee",
                "label": "Ether"
            },
            {
                "address": "0x2c8678f04e0aa12bd40280d110e69de1f8421c9b",
                "label": "rektfolios (REKTFOLIOS)"
            },
            {
                "address": "0x0000000000000000000000000000000000000001",
                "label": "Precompiled"
            },
            {
                "address": "0x0000000000000000000000000000000000000002",
                "label": "Precompiled"
            },
            {
                "address": "0x0000000000000000000000000000000000000003",
                "label": "Precompiled"
            },
            {
                "address": "0x0000000000000000000000000000000000000004",
                "label": "Precompiled"
            }
        ]
    },
    "trace": {
        "accountLabels": null,
        "dataMap": {
            "-1": {
                "invocation": {
                    "address": "0x6f76fcb694a3e1d16dab5398737ec2f3ca53a00d",
                    "callData": "",
                    "decodedMethod": null,
                    "errorInfo": "",
                    "fromAddress": "",
                    "gasUsed": 0,
                    "id": -1,
                    "methodDecoded": false,
                    "operation": "",
                    "output": "",
                    "revert": false,
                    "revertMessage": "",
                    "selector": "",
                    "status": false,
                    "value": ""
                },
                "nodeType": 0
            },
            "0": {
                "invocation": {
                    "address": "0x2c8678f04e0aa12bd40280d110e69de1f8421c9b",
                    "callData": "0x0000000000000000000000006f76fcb694a3e1d16dab5398737ec2f3ca53a00d0000000000000000000000002b72a427fe696cbfa70c2884b94564fb0679fa940000000000000000000000000000000000000000000000000000000000001e4d",
                    "decodedMethod": {
                        "callParams": [
                            {
                                "name": "from",
                                "type": "address",
                                "value": "0x6f76fcb694a3e1d16dab5398737ec2f3ca53a00d"
                            },
                            {
                                "name": "to",
                                "type": "address",
                                "value": "0x2b72a427fe696cbfa70c2884b94564fb0679fa94"
                            },
                            {
                                "name": "tokenId",
                                "type": "uint256",
                                "value": "7,757"
                            }
                        ],
                        "constructorArguments": "",
                        "name": "safeTransferFrom",
                        "returnParams": [],
                        "signature": "safeTransferFrom(address,address,uint256)"
                    },
                    "errorInfo": "",
                    "fromAddress": "0x6f76fcb694a3e1d16dab5398737ec2f3ca53a00d",
                    "gasUsed": 47208,
                    "id": 0,
                    "methodDecoded": true,
                    "operation": "CALL",
                    "output": "",
                    "revert": false,
                    "revertMessage": "",
                    "selector": "0x42842e0e",
                    "status": true,
                    "value": "0"
                },
                "nodeType": 0
            },
            "1": {
                "event": {
                    "contract": "0x2c8678f04e0aa12bd40280d110e69de1f8421c9b",
                    "decodedLog": {
                        "name": "Transfer",
                        "params": [
                            {
                                "name": "from",
                                "type": "address",
                                "value": "0x6f76fcb694a3e1d16dab5398737ec2f3ca53a00d"
                            },
                            {
                                "name": "to",
                                "type": "address",
                                "value": "0x2b72a427fe696cbfa70c2884b94564fb0679fa94"
                            },
                            {
                                "decimalAvailable": true,
                                "name": "tokenId",
                                "type": "uint256",
                                "value": "7,757"
                            }
                        ],
                        "signature": "Transfer(address,address,uint256)"
                    },
                    "id": 1,
                    "logData": "0x",
                    "logDecoded": true,
                    "operation": "EVENT",
                    "revert": false,
                    "status": true,
                    "topics": [
                        "0xddf252ad1be2c89b69c2b068fc378daa952ba7f163c4a11628f55a4df523b3ef",
                        "0x0000000000000000000000006f76fcb694a3e1d16dab5398737ec2f3ca53a00d",
                        "0x0000000000000000000000002b72a427fe696cbfa70c2884b94564fb0679fa94",
                        "0x0000000000000000000000000000000000000000000000000000000000001e4d"
                    ]
                },
                "nodeType": 1
            }
        },
        "gasFlame": [
            {
                "children": [
                    {
                        "children": [
                            {
                                "children": [],
                                "depth": 0,
                                "name": "Initial Gas",
                                "value": 21952
                            },
                            {
                                "children": [],
                                "depth": 0,
                                "name": "Executed Gas",
                                "value": 25256
                            }
                        ],
                        "depth": -1,
                        "name": "Actual Gas Used",
                        "value": 47208
                    },
                    {
                        "children": [],
                        "depth": -1,
                        "name": "Refunded Gas",
                        "value": 0
                    }
                ],
                "depth": -2,
                "name": "Total Gas",
                "value": 47208
            }
        ],
        "isConfirmed": true,
        "mainTrace": [
            {
                "children": [
                    {
                        "children": [
                            {
                                "children": [],
                                "depth": 1,
                                "id": 1,
                                "order": 1
                            }
                        ],
                        "depth": 0,
                        "id": 0,
                        "order": 0
                    }
                ],
                "depth": -1,
                "id": -1,
                "order": -1
            }
        ],
        "mainTraceNodeCount": 2,
        "parentIdMap": {
            "0": -1,
            "1": 0
        },
        "tidyTrace": [
            {
                "children": [
                    {
                        "children": [
                            {
                                "children": [],
                                "depth": 1,
                                "id": 1,
                                "order": 1
                            }
                        ],
                        "depth": 0,
                        "id": 0,
                        "order": 0
                    }
                ],
                "depth": -1,
                "id": -1,
                "order": -1
            }
        ],
        "tidyTraceNodeCount": 2
    },
    "state_change": {
        "stateChanges": [
            {
                "address": "0x2c8678f04e0aa12bd40280d110e69de1f8421c9b",
                "erc": "ERC-721",
                "slots": [
                    {
                        "current": "0x0000000000000000000000000000000000000000000000010000000000000000",
                        "key": "0x86b03d3cb2089d9afd32d87cc19632cf009d0250fccbb4c8c3bf153e3b106d7c",
                        "prev": "0x0000000000000000000000000000000000000000000000010000000000000001"
                    },
                    {
                        "current": "0x0000000000000000000000000000000000000000000000010000000000000004",
                        "key": "0xb4936146ab9088cefb2709fb671434ca51f972776ebdb822a747c09a6ca8125c",
                        "prev": "0x0000000000000000000000000000000000000000000000010000000000000003"
                    },
                    {
                        "current": "0x0000000200000000629d51752b72a427fe696cbfa70c2884b94564fb0679fa94",
                        "key": "0x7d5ce233369b1f13278c24d0eb25c351aea85635d33952e808b7d133d334eb76",
                        "prev": "0x0000000200000000629d4d296f76fcb694a3e1d16dab5398737ec2f3ca53a00d"
                    }
                ],
                "storageVariables": [
                    {
                        "name": "_packedOwnerships",
                        "type": "mapping(uint256 => uint256)",
                        "value": {
                            "pairs": [
                                {
                                    "key": "7757",
                                    "value": {
                                        "current": "53919893336719300686848176887808478084450942784845355534792049425044",
                                        "prev": "53919893336719299079584684113613029095248818683701307641070787731469",
                                        "typeTag": 1
                                    }
                                }
                            ],
                            "typeTag": 4
                        }
                    },
                    {
                        "name": "_packedAddressData",
                        "type": "mapping(address => uint256)",
                        "value": {
                            "pairs": [
                                {
                                    "key": "0x2b72a427fe696cbfa70c2884b94564fb0679fa94",
                                    "value": {
                                        "current": "18446744073709551620",
                                        "prev": "18446744073709551619",
                                        "typeTag": 1
                                    }
                                },
                                {
                                    "key": "0x6f76fcb694a3e1d16dab5398737ec2f3ca53a00d",
                                    "value": {
                                        "current": "18446744073709551616",
                                        "prev": "18446744073709551617",
                                        "typeTag": 1
                                    }
                                }
                            ],
                            "typeTag": 4
                        }
                    }
                ]
            }
        ]
    }
}