{
    "balance_change": {
        "balanceChanges": [
            {
                "account": "0x13b37d355cdf1eacefa26a56d6c754ddd0c9e699",
                "assets": [
                    {
                        "address": "0xa0b86991c6218b36c1d19d4a2e9eb0ce3606eb48",
                        "amount": "5,739.768289",
                        "iconUrl": "https://assets.blocksec.com/icon/0347a86cc07dbd03fdc5db01a4e5ac7e1217f90e0b6e4bb0f75cbcca09160989.png",
                        "isERC1155": false,
                        "isERC721": false,
                        "sign": true,
                        "value": "5739.768289"
                    },
                    {
                        "address": "0xa283aa7cfbb27ef0cfbcb2493dd9f4330e0fd304",
                        "amount": "412.387924647858221911",
                        "iconUrl": "",
                        "isERC1155": false,
                        "isERC721": false,
                        "sign": false,
                        "value": "5739.768288"
                    }
                ]
            },
            {
                "account": "0xbbf933c1af0e9798615099a37a17cafc6da87732",
                "assets": [
                    {
                        "address": "0xa283aa7cfbb27ef0cfbcb2493dd9f4330e0fd304",
                        "amount": "412.387924647858221911",
                        "iconUrl": "",
                        "isERC1155": false,
                        "isERC721": false,
                        "sign": true,
                        "value": "5739.768288"
                    },
                    {
                        "address": "0xa0b86991c6218b36c1d19d4a2e9eb0ce3606eb48",
                        "amount": "5,739.768289",
                        "iconUrl": "https://assets.blocksec.com/icon/0347a86cc07dbd03fdc5db01a4e5ac7e1217f90e0b6e4bb0f75cbcca09160989.png",
                        "isERC1155": false,
                        "isERC721": false,
                        "sign": false,
                        "value": "5739.768289"
                    }
                ]
            }
        ]
    },
    "profile": {
        "basic_info": {
            "baseFee": "",
            "blockNumber": 11963091,
            "callData": "0x38ed17390000000000000000000000000000000000000000000000165b08388ad825335700000000000000000000000000000000000000000000000000000001546a2ec300000000000000000000000000000000000000000000000000000000000000a000000000000000000000000013b37d355cdf1eacefa26a56d6c754ddd0c9e69900000000000000000000000000000000000000000000000000000000603f12820000000000000000000000000000000000000000000000000000000000000002000000000000000000000000a283aa7cfbb27ef0cfbcb2493dd9f4330e0fd304000000000000000000000000a0b86991c6218b36c1d19d4a2e9eb0ce3606eb48",
            "debugEnable": true,
            "errorInfo": "",
            "eventCount": 5,
            "feeRecipient": "0xea674fdde714fd979de3edf0f56aa9716b898ec8",
            "formatValue": "0",
            "gasLimit": 137871,
            "gasPrice": "70.000001459",
            "gasUsed": 104067,
            "intTxnCount": 8,
            "internalRevert": false,
            "internalRevertMessage": "",
            "isContractCreation": false,
            "isFlashloan": false,
            "maxFee": "",
            "nonce": 364,
            "overwritedBlockNumber": -1,
            "priorityFee": "",
            "receiver": "0x7a250d5630b4cf539739df2c5dacb4c659f2488d",
            "revertMessage": "",
            "sender": "0x13b37d355cdf1eacefa26a56d6c754ddd0c9e699",
            "simulationEnable": true,
            "sourceTxnHash": "0x72df5cfa59ccd7ae242d75c38b5bff64eae64a87ea3d54fecde6a6495a93d184",
            "status": true,
            "timestamp": "2021-03-03T04:18:12Z",
            "transactionFee": "0.007284690151833753",
            "txnHash": "0x72df5cfa59ccd7ae242d75c38b5bff64eae64a87ea3d54fecde6a6495a93d184",
            "txnIndex": 109,
            "type": 0,
            "value": "0"
        },
        "fund_flow": [
            {
                "amount": "412.387924647858221911",
                "from": "0x13b37d355cdf1eacefa26a56d6c754ddd0c9e699",
                "id": 1,
                "isERC1155": false,
                "isERC721": false,
                "isReverted": false,
                "order": 1,
                "to": "0xbbf933c1af0e9798615099a37a17cafc6da87732",
                "token": "0xa283aa7cfbb27ef0cfbcb2493dd9f4330e0fd304"
            },
            {
                "amount": "5,739.768289",
                "from": "0xbbf933c1af0e9798615099a37a17cafc6da87732",
                "id": 2,
                "isERC1155": false,
                "isERC721": false,
                "isReverted": false,
                "order": 2,
                "to": "0x13b37d355cdf1eacefa26a56d6c754ddd0c9e699",
                "token": "0xa0b86991c6218b36c1d19d4a2e9eb0ce3606eb48"
            }
        ],
        "token_infos": [
            {
                "address": "0xa0b86991c6218b36c1d19d4a2e9eb0ce3606eb48",
                "decimals": 6
            },
            {
                "address": "0xa283aa7cfbb27ef0cfbcb2493dd9f4330e0fd304",
                "decimals": 18
            },
            {
                "address": "0xc02aaa39b223fe8d0a0e5c4f27ead9083c756cc2",
                "decimals": 18
            },
            {
                "address": "0xeeeeeeeeeeeeeeeeeeeeeeeeeeeeeeeeeeeeeeee",
                "decimals": 18
            }
        ]
    },
    "address_label": {
        "labels": [
            {
                "address": "0xb7277a6e95992041568d9391d09d0122023778a2",
                "label": "FiatTokenV2"
            },
            {
                "address": "0xbbf933c1af0e9798615099a37a17cafc6da87732",
                "label": "Uniswap V2: USDC-MM"
            },
            {
                "address": "0xa0b86991c6218b36c1d19d4a2e9eb0ce3606eb48",
                "label": "Circle: USDC Token"
            },
            {
                "address": "0x0000000000000000000000000000000000000004",
                "label": "Precompiled"
            },
            {
                "address": "0xeeeeeeeeeeeeeeeeeeeeeeeeeeeeeeeeeeeeeeee",
                "label": "Ether"
            },
            {
                "address": "0x7a250d5630b4cf539739df2c5dacb4c659f2488d",
                "label": "Uniswap V2: Router 2"
            },
            {
                "address": "0xa283aa7cfbb27ef0cfbcb2493dd9f4330e0fd304",
                "label": "Mushrooms Finance: MM Token"
            },
            {
                "address": "0x0000000000000000000000000000000000000001",
                "label": "Precompiled"
            },
            {
                "address": "0x0000000000000000000000000000000000000002",
                "label": "Precompiled"
            },
            {
                "address": "0x0000000000000000000000000000000000000003",
                "label": "Precompiled"
            }
        ]
    },
    "trace": {
        "accountLabels": null,
        "dataMap": {
            "-1": {
                "invocation": {
                    "address": "0x13b37d355cdf1eacefa26a56d6c754ddd0c9e699",
                    "callData": "",
                    "decodedMethod": null,
                    "errorInfo": "",
                    "fromAddress": "",
                    "gasUsed": 0,
                    "id": -1,
                    "methodDecoded": false,
                    "operation": "",
                    "output": "",
                    "revert": false,
                    "revertMessage": "",
                    "selector": "",
                    "status": false,
                    "value": ""
                },
                "nodeType": 0
            },
            "0": {
                "invocation": {
                    "address": "0x7a250d5630b4cf539739df2c5dacb4c659f2488d",
                    "callData": "0x0000000000000000000000000000000000000000000000165b08388ad825335700000000000000000000000000000000000000000000000000000001546a2ec300000000000000000000000000000000000000000000000000000000000000a000000000000000000000000013b37d355cdf1eacefa26a56d6c754ddd0c9e69900000000000000000000000000000000000000000000000000000000603f12820000000000000000000000000000000000000000000000000000000000000002000000000000000000000000a283aa7cfbb27ef0cfbcb2493dd9f4330e0fd304000000000000000000000000a0b86991c6218b36c1d19d4a2e9eb0ce3606eb48",
                    "decodedMethod": {
                        "callParams": [
                            {
                                "name": "amountIn",
                                "type": "uint256",
                                "value": "412,387,924,647,858,221,911"
                            },
                            {
                                "name": "amountOutMin",
                                "type": "uint256",
                                "value": "5,711,212,227"
                            },
                            {
                                "name": "path",
                                "type": "address[]",
                                "value": [
                                    "0xa283aa7cfbb27ef0cfbcb2493dd9f4330e0fd304",
                                    "0xa0b86991c6218b36c1d19d4a2e9eb0ce3606eb48"
                                ]
                            },
                            {
                                "name": "to",
                                "type": "address",
                                "value": "0x13b37d355cdf1eacefa26a56d6c754ddd0c9e699"
                            },
                            {
                                "name": "deadline",
                                "type": "uint256",
                                "value": "1,614,746,242"
                            }
                        ],
                        "constructorArguments": "",
                        "name": "swapExactTokensForTokens",
                        "returnParams": [
                            {
                                "name": "amounts",
                                "type": "uint256[]",
                                "value": [
                                    "412,387,924,647,858,221,911",
                                    "5,739,768,289"
                                ]
                            }
                        ],
                        "signature": "swapExactTokensForTokens(uint256,uint256,address[],address,uint256)"
                    },
                    "errorInfo": "",
                    "fromAddress": "0x13b37d355cdf1eacefa26a56d6c754ddd0c9e699",
                    "gasUsed": 104067,
                    "id": 0,
                    "methodDecoded": true,
                    "operation": "CALL",
                    "output": "0x000000000000000000000000000000000000000000000000000000000000002000000000000000000000000000000000000000000000000000000000000000020000000000000000000000000000000000000000000000165b08388ad825335700000000000000000000000000000000000000000000000000000001561de9e1",
                    "revert": false,
                    "revertMessage": "",
                    "selector": "0x38ed1739",
                    "status": true,
                    "value": "0"
                },
                "nodeType": 0
            },
            "1": {
                "invocation": {
                    "address": "0xbbf933c1af0e9798615099a37a17cafc6da87732",
                    "callData": "0x",
                    "decodedMethod": {
                        "callParams": [],
                        "constructorArguments": "",
                        "name": "getReserves",
                        "returnParams": [
                            {
                                "name": "_reserve0",
                                "type": "uint112",
                                "value": "521,386,896,824"
                            },
                            {
                                "name": "_reserve1",
                                "type": "uint112",
                                "value": "36,936,806,252,006,931,757,586"
                            },
                            {
                                "name": "_blockTimestampLast",
                                "type": "uint32",
                                "value": "1,614,744,730"
                            }
                        ],
                        "signature": "getReserves()"
                    },
                    "errorInfo": "",
                    "fromAddress": "0x7a250d5630b4cf539739df2c5dacb4c659f2488d",
                    "gasUsed": 1204,
                    "id": 1,
                    "methodDecoded": true,
                    "operation": "STATICCALL",
                    "output": "0x000000000000000000000000000000000000000000000000000000796514adb80000000000000000000000000000000000000000000007d25928d29d0cbcfa1200000000000000000000000000000000000000000000000000000000603f0c9a",
                    "revert": false,
                    "revertMessage": "",
                    "selector": "0x0902f1ac",
                    "status": true,
                    "value": "0"
                },
                "nodeType": 0
            },
            "10": {
                "invocation": {
                    "address": "0xb7277a6e95992041568d9391d09d0122023778a2",
                    "callData": "0x000000000000000000000000bbf933c1af0e9798615099a37a17cafc6da87732",
                    "decodedMethod": {
                        "callParams": [
                            {
                                "name": "account",
                                "type": "address",
                                "value": "0xbbf933c1af0e9798615099a37a17cafc6da87732"
                            }
                        ],
                        "constructorArguments": "",
                        "name": "balanceOf",
                        "returnParams": [
                            {
                                "decimalAvailable": true,
                                "name": "",
                                "type": "uint256",
                                "value": "515,647,128,535"
                            }
                        ],
                        "signature": "balanceOf(address)"
                    },
                    "errorInfo": "",
                    "fromAddress": "0xa0b86991c6218b36c1d19d4a2e9eb0ce3606eb48",
                    "gasUsed": 1207,
                    "id": 10,
                    "methodDecoded": true,
                    "operation": "DELEGATECALL",
                    "output": "0x000000000000000000000000000000000000000000000000000000780ef6c3d7",
                    "revert": false,
                    "revertMessage": "",
                    "selector": "0x70a08231",
                    "status": true,
                    "value": "0"
                },
                "nodeType": 0
            },
            "11": {
                "invocation": {
                    "address": "0xa283aa7cfbb27ef0cfbcb2493dd9f4330e0fd304",
                    "callData": "0x000000000000000000000000bbf933c1af0e9798615099a37a17cafc6da87732",
                    "decodedMethod": {
                        "callParams": [
                            {
                                "name": "account",
                                "type": "address",
                                "value": "0xbbf933c1af0e9798615099a37a17cafc6da87732"
                            }
                        ],
                        "constructorArguments": "",
                        "name": "balanceOf",
                        "returnParams": [
                            {
                                "decimalAvailable": true,
                                "name": "",
                                "type": "uint256",
                                "value": "37,349,194,176,654,789,979,497"
                            }
                        ],
                        "signature": "balanceOf(address)"
                    },
                    "errorInfo": "",
                    "fromAddress": "0xbbf933c1af0e9798615099a37a17cafc6da87732",
                    "gasUsed": 1219,
                    "id": 11,
                    "methodDecoded": true,
                    "operation": "STATICCALL",
                    "output": "0x0000000000000000000000000000000000000000000007e8b4310b27e4e22d69",
                    "revert": false,
                    "revertMessage": "",
                    "selector": "0x70a08231",
                    "status": true,
                    "value": "0"
                },
                "nodeType": 0
            },
            "12": {
                "event": {
                    "contract": "0xbbf933c1af0e9798615099a37a17cafc6da87732",
                    "decodedLog": {
                        "name": "Sync",
                        "params": [
                            {
                                "name": "reserve0",
                                "type": "uint112",
                                "value": "515,647,128,535"
                            },
                            {
                                "name": "reserve1",
                                "type": "uint112",
                                "value": "37,349,194,176,654,789,979,497"
                            }
                        ],
                        "signature": "Sync(uint112,uint112)"
                    },
                    "id": 12,
                    "logData": "0x000000000000000000000000000000000000000000000000000000780ef6c3d70000000000000000000000000000000000000000000007e8b4310b27e4e22d69",
                    "logDecoded": true,
                    "operation": "EVENT",
                    "revert": false,
                    "status": true,
                    "topics": [
                        "0x1c411e9a96e071241c2f21f7726b17ae89e3cab4c78be50e062b03a9fffbbad1"
                    ]
                },
                "nodeType": 1
            },
            "13": {
                "event": {
                    "contract": "0xbbf933c1af0e9798615099a37a17cafc6da87732",
                    "decodedLog": {
                        "name": "Swap",
                        "params": [
                            {
                                "name": "sender",
                                "type": "address",
                                "value": "0x7a250d5630b4cf539739df2c5dacb4c659f2488d"
                            },
                            {
                                "name": "to",
                                "type": "address",
                                "value": "0x13b37d355cdf1eacefa26a56d6c754ddd0c9e699"
                            },
                            {
                                "name": "amount0In",
                                "type": "uint256",
                                "value": "0"
                            },
                            {
                                "name": "amount1In",
                                "type": "uint256",
                                "value": "412,387,924,647,858,221,911"
                            },
                            {
                                "name": "amount0Out",
                                "type": "uint256",
                                "value": "5,739,768,289"
                            },
                            {
                                "name": "amount1Out",
                                "type": "uint256",
                                "value": "0"
                            }
                        ],
                        "signature": "Swap(address,uint256,uint256,uint256,uint256,address)"
                    },
                    "id": 13,
                    "logData": "0x00000000000000000000000000000000000000000000000000000000000000000000000000000000000000000000000000000000000000165b08388ad825335700000000000000000000000000000000000000000000000000000001561de9e10000000000000000000000000000000000000000000000000000000000000000",
                    "logDecoded": true,
                    "operation": "EVENT",
                    "revert": false,
                    "status": true,
                    "topics": [
                        "0xd78ad95fa46c994b6551d0da85fc275fe613ce37657fb8d5e3d130840159d822",
                        "0x0000000000000000000000007a250d5630b4cf539739df2c5dacb4c659f2488d",
                        "0x00000000000000000000000013b37d355cdf1eacefa26a56d6c754ddd0c9e699"
                    ]
                },
                "nodeType": 1
            },
            "2": {
                "invocation": {
                    "address": "0xa283aa7cfbb27ef0cfbcb2493dd9f4330e0fd304",
                    "callData": "0x00000000000000000000000013b37d355cdf1eacefa26a56d6c754ddd0c9e699000000000000000000000000bbf933c1af0e9798615099a37a17cafc6da877320000000000000000000000000000000000000000000000165b08388ad8253357",
                    "decodedMethod": {
                        "callParams": [
                            {
                                "name": "sender",
                                "type": "address",
                                "value": "0x13b37d355cdf1eacefa26a56d6c754ddd0c9e699"
                            },
                            {
                                "name": "recipient",
                                "type": "address",
                                "value": "0xbbf933c1af0e9798615099a37a17cafc6da87732"
                            },
                            {
                                "decimalAvailable": true,
                                "name": "amount",
                                "type": "uint256",
                                "value": "412,387,924,647,858,221,911"
                            }
                        ],
                        "constructorArguments": "",
                        "name": "transferFrom",
                        "returnParams": [
                            {
                                "name": "",
                                "type": "bool",
                                "value": true
                            }
                        ],
                        "signature": "transferFrom(address,address,uint256)"
                    },
                    "errorInfo": "",
                    "fromAddress": "0x7a250d5630b4cf539739df2c5dacb4c659f2488d",
                    "gasUsed": 23188,
                    "id": 2,
                    "methodDecoded": true,
                    "operation": "CALL",
                    "output": "0x0000000000000000000000000000000000000000000000000000000000000001",
                    "revert": false,
                    "revertMessage": "",
                    "selector": "0x23b872dd",
                    "status": true,
                    "value": "0"
                },
                "nodeType": 0
            },
            "3": {
                "event": {
                    "contract": "0xa283aa7cfbb27ef0cfbcb2493dd9f4330e0fd304",
                    "decodedLog": {
                        "name": "Transfer",
                        "params": [
                            {
                                "name": "from",
                                "type": "address",
                                "value": "0x13b37d355cdf1eacefa26a56d6c754ddd0c9e699"
                            },
                            {
                                "name": "to",
                                "type": "address",
                                "value": "0xbbf933c1af0e9798615099a37a17cafc6da87732"
                            },
                            {
                                "decimalAvailable": true,
                                "name": "value",
                                "type": "uint256",
                                "value": "412,387,924,647,858,221,911"
                            }
                        ],
                        "signature": "Transfer(address,address,uint256)"
                    },
                    "id": 3,
                    "logData": "0x0000000000000000000000000000000000000000000000165b08388ad8253357",
                    "logDecoded": true,
                    "operation": "EVENT",
                    "revert": false,
                    "status": true,
                    "topics": [
                        "0xddf252ad1be2c89b69c2b068fc378daa952ba7f163c4a11628f55a4df523b3ef",
                        "0x00000000000000000000000013b37d355cdf1eacefa26a56d6c754ddd0c9e699",
                        "0x000000000000000000000000bbf933c1af0e9798615099a37a17cafc6da87732"
                    ]
                },
                "nodeType": 1
            },
            "4": {
                "event": {
                    "contract": "0xa283aa7cfbb27ef0cfbcb2493dd9f4330e0fd304",
                    "decodedLog": {
                        "name": "Approval",
                        "params": [
                            {
                                "name": "owner",
                                "type": "address",
                                "value": "0x13b37d355cdf1eacefa26a56d6c754ddd0c9e699"
                            },
                            {
                                "name": "spender",
                                "type": "address",
                                "value": "0x7a250d5630b4cf539739df2c5dacb4c659f2488d"
                            },
                            {
                                "decimalAvailable": true,
                                "name": "value",
                                "type": "uint256",
                                "value": "115,792,089,237,316,195,423,570,985,008,687,907,853,269,984,665,640,564,039,045,196,083,265,271,418,024"
                            }
                        ],
                        "signature": "Approval(address,address,uint256)"
                    },
                    "id": 4,
                    "logData": "0xffffffffffffffffffffffffffffffffffffffffffffffe9a4f7c77527dacca8",
                    "logDecoded": true,
                    "operation": "EVENT",
                    "revert": false,
                    "status": true,
                    "topics": [
                        "0x8c5be1e5ebec7d5bd14f71427d1e84f3dd0314c0f7b2291e5b200ac8c7c3b925",
                        "0x00000000000000000000000013b37d355cdf1eacefa26a56d6c754ddd0c9e699",
                        "0x0000000000000000000000007a250d5630b4cf539739df2c5dacb4c659f2488d"
                    ]
                },
                "nodeType": 1
            },
            "5": {
                "invocation": {
                    "address": "0xbbf933c1af0e9798615099a37a17cafc6da87732",
                    "callData": "0x00000000000000000000000000000000000000000000000000000001561de9e1000000000000000000000000000000000000000000000000000000000000000000000000000000000000000013b37d355cdf1eacefa26a56d6c754ddd0c9e69900000000000000000000000000000000000000000000000000000000000000800000000000000000000000000000000000000000000000000000000000000000",
                    "decodedMethod": {
                        "callParams": [
                            {
                                "name": "amount0Out",
                                "type": "uint256",
                                "value": "5,739,768,289"
                            },
                            {
                                "name": "amount1Out",
                                "type": "uint256",
                                "value": "0"
                            },
                            {
                                "name": "to",
                                "type": "address",
                                "value": "0x13b37d355cdf1eacefa26a56d6c754ddd0c9e699"
                            },
                            {
                                "name": "data",
                                "type": "bytes",
                                "value": "0x"
                            }
                        ],
                        "constructorArguments": "",
                        "name": "swap",
                        "returnParams": [],
                        "signature": "swap(uint256,uint256,address,bytes)"
                    },
                    "errorInfo": "",
                    "fromAddress": "0x7a250d5630b4cf539739df2c5dacb4c659f2488d",
                    "gasUsed": 65008,
                    "id": 5,
                    "methodDecoded": true,
                    "operation": "CALL",
                    "output": "",
                    "revert": false,
                    "revertMessage": "",
                    "selector": "0x022c0d9f",
                    "status": true,
                    "value": "0"
                },
                "nodeType": 0
            },
            "6": {
                "invocation": {
                    "address": "0xa0b86991c6218b36c1d19d4a2e9eb0ce3606eb48",
                    "callData": "0x00000000000000000000000013b37d355cdf1eacefa26a56d6c754ddd0c9e69900000000000000000000000000000000000000000000000000000001561de9e1",
                    "decodedMethod": {
                        "callParams": [
                            {
                                "name": "to",
                                "type": "address",
                                "value": "0x13b37d355cdf1eacefa26a56d6c754ddd0c9e699"
                            },
                            {
                                "decimalAvailable": true,
                                "name": "value",
                                "type": "uint256",
                                "value": "5,739,768,289"
                            }
                        ],
                        "constructorArguments": "",
                        "name": "transfer",
                        "returnParams": [
                            {
                                "name": "",
                                "type": "bool",
                                "value": true
                            }
                        ],
                        "signature": "transfer(address,uint256)"
                    },
                    "errorInfo": "",
                    "fromAddress": "0xbbf933c1af0e9798615099a37a17cafc6da87732",
                    "gasUsed": 20773,
                    "id": 6,
                    "methodDecoded": true,
                    "operation": "CALL",
                    "output": "0x0000000000000000000000000000000000000000000000000000000000000001",
                    "revert": false,
                    "revertMessage": "",
                    "selector": "0xa9059cbb",
                    "status": true,
                    "value": "0"
                },
                "nodeType": 0
            },
            "7": {
                "invocation": {
                    "address": "0xb7277a6e95992041568d9391d09d0122023778a2",
                    "callData": "0x00000000000000000000000013b37d355cdf1eacefa26a56d6c754ddd0c9e69900000000000000000000000000000000000000000000000000000001561de9e1",
                    "decodedMethod": {
                        "callParams": [
                            {
                                "name": "to",
                                "type": "address",
                                "value": "0x13b37d355cdf1eacefa26a56d6c754ddd0c9e699"
                            },
                            {
                                "decimalAvailable": true,
                                "name": "value",
                                "type": "uint256",
                                "value": "5,739,768,289"
                            }
                        ],
                        "constructorArguments": "",
                        "name": "transfer",
                        "returnParams": [
                            {
                                "name": "",
                                "type": "bool",
                                "value": true
                            }
                        ],
                        "signature": "transfer(address,uint256)"
                    },
                    "errorInfo": "",
                    "fromAddress": "0xa0b86991c6218b36c1d19d4a2e9eb0ce3606eb48",
                    "gasUsed": 17984,
                    "id": 7,
                    "methodDecoded": true,
                    "operation": "DELEGATECALL",
                    "output": "0x0000000000000000000000000000000000000000000000000000000000000001",
                    "revert": false,
                    "revertMessage": "",
                    "selector": "0xa9059cbb",
                    "status": true,
                    "value": "0"
                },
                "nodeType": 0
            },
            "8": {
                "event": {
                    "contract": "0xa0b86991c6218b36c1d19d4a2e9eb0ce3606eb48",
                    "decodedLog": {
                        "name": "Transfer",
                        "params": [
                            {
                                "name": "from",
                                "type": "address",
                                "value": "0xbbf933c1af0e9798615099a37a17cafc6da87732"
                            },
                            {
                                "name": "to",
                                "type": "address",
                                "value": "0x13b37d355cdf1eacefa26a56d6c754ddd0c9e699"
                            },
                            {
                                "decimalAvailable": true,
                                "name": "value",
                                "type": "uint256",
                                "value": "5,739,768,289"
                            }
                        ],
                        "signature": "Transfer(address,address,uint256)"
                    },
                    "id": 8,
                    "logData": "0x00000000000000000000000000000000000000000000000000000001561de9e1",
                    "logDecoded": true,
                    "operation": "EVENT",
                    "revert": false,
                    "status": true,
                    "topics": [
                        "0xddf252ad1be2c89b69c2b068fc378daa952ba7f163c4a11628f55a4df523b3ef",
                        "0x000000000000000000000000bbf933c1af0e9798615099a37a17cafc6da87732",
                        "0x00000000000000000000000013b37d355cdf1eacefa26a56d6c754ddd0c9e699"
                    ]
                },
                "nodeType": 1
            },
            "9": {
                "invocation": {
                    "address": "0xa0b86991c6218b36c1d19d4a2e9eb0ce3606eb48",
                    "callData": "0x000000000000000000000000bbf933c1af0e9798615099a37a17cafc6da87732",
                    "decodedMethod": {
                        "callParams": [
                            {
                                "name": "account",
                                "type": "address",
                                "value": "0xbbf933c1af0e9798615099a37a17cafc6da87732"
                            }
                        ],
                        "constructorArguments": "",
                        "name": "balanceOf",
                        "returnParams": [
                            {
                                "decimalAvailable": true,
                                "name": "",
                                "type": "uint256",
                                "value": "515,647,128,535"
                            }
                        ],
                        "signature": "balanceOf(address)"
                    },
                    "errorInfo": "",
                    "fromAddress": "0xbbf933c1af0e9798615099a37a17cafc6da87732",
                    "gasUsed": 3993,
                    "id": 9,
                    "methodDecoded": true,
                    "operation": "STATICCALL",
                    "output": "0x000000000000000000000000000000000000000000000000000000780ef6c3d7",
                    "revert": false,
                    "revertMessage": "",
                    "selector": "0x70a08231",
                    "status": true,
                    "value": "0"
                },
                "nodeType": 0
            }
        },
        "gasFlame": [
            {
                "children": [
                    {
                        "children": [
                            {
                                "children": [],
                                "depth": 0,
                                "name": "Initial Gas",
                                "value": 23048
                            },
                            {
                                "children": [
                                    {
                                        "children": [],
                                        "depth": 1,
                                        "name": "getReserves",
                                        "value": 1204
                                    },
                                    {
                                        "children": [],
                                        "depth": 1,
                                        "name": "transferFrom",
                                        "value": 23188
                                    },
                                    {
                                        "children": [
                                            {
                                                "children": [
                                                    {
                                                        "children": [],
                                                        "depth": 3,
                                                        "name": "transfer",
                                                        "value": 17984
                                                    }
                                                ],
                                                "depth": 2,
                                                "name": "transfer",
                                                "value": 20773
                                            },
                                            {
                                                "children": [
                                                    {
                                                        "children": [],
                                                        "depth": 3,
                                                        "name": "balanceOf",
                                                        "value": 1207
                                                    }
                                                ],
                                                "depth": 2,
                                                "name": "balanceOf",
                                                "value": 3993
                                            },
                                            {
                                                "children": [],
                                                "depth": 2,
                                                "name": "balanceOf",
                                                "value": 1219
                                            }
                                        ],
                                        "depth": 1,
                                        "name": "swap",
                                        "value": 65008
                                    }
                                ],
                                "depth": 0,
                                "name": "Executed Gas",
                                "value": 100219
                            }
                        ],
                        "depth": -1,
                        "name": "Actual Gas Used",
                        "value": 104067
                    },
                    {
                        "children": [],
                        "depth": -1,
                        "name": "Refunded Gas",
                        "value": 19200
                    }
                ],
                "depth": -2,
                "name": "Total Gas",
                "value": 123267
            }
        ],
        "isConfirmed": true,
        "mainTrace": [
            {
                "children": [
                    {
                        "children": [
                            {
                                "children": [],
                                "depth": 1,
                                "id": 1,
                                "order": 1
                            },
                            {
                                "children": [
                                    {
                                        "children": [],
                                        "depth": 2,
                                        "id": 3,
                                        "order": 3
                                    },
                                    {
                                        "children": [],
                                        "depth": 2,
                                        "id": 4,
                                        "order": 4
                                    }
                                ],
                                "depth": 1,
                                "id": 2,
                                "order": 2
                            },
                            {
                                "children": [
                                    {
                                        "children": [
                                            {
                                                "children": [
                                                    {
                                                        "children": [],
                                                        "depth": 4,
                                                        "id": 8,
                                                        "order": 8
                                                    }
                                                ],
                                                "depth": 3,
                                                "id": 7,
                                                "order": 7
                                            }
                                        ],
                                        "depth": 2,
                                        "id": 6,
                                        "order": 6
                                    },
                                    {
                                        "children": [
                                            {
                                                "children": [],
                                                "depth": 3,
                                                "id": 10,
                                                "order": 10
                                            }
                                        ],
                                        "depth": 2,
                                        "id": 9,
                                        "order": 9
                                    },
                                    {
                                        "children": [],
                                        "depth": 2,
                                        "id": 11,
                                        "order": 11
                                    },
                                    {
                                        "children": [],
                                        "depth": 2,
                                        "id": 12,
                                        "order": 12
                                    },
                                    {
                                        "children": [],
                                        "depth": 2,
                                        "id": 13,
                                        "order": 13
                                    }
                                ],
                                "depth": 1,
                                "id": 5,
                                "order": 5
                            }
                        ],
                        "depth": 0,
                        "id": 0,
                        "order": 0
                    }
                ],
                "depth": -1,
                "id": -1,
                "order": -1
            }
        ],
        "mainTraceNodeCount": 14,
        "parentIdMap": {
            "0": -1,
            "1": 0,
            "10": 9,
            "11": 5,
            "12": 5,
            "13": 5,
            "2": 0,
            "3": 2,
            "4": 2,
            "5": 0,
            "6": 5,
            "7": 6,
            "8": 7,
            "9": 5
        },
        "tidyTrace": [
            {
                "children": [
                    {
                        "children": [
                            {
                                "children": [
                                    {
                                        "children": [],
                                        "depth": 2,
                                        "id": 3,
                                        "order": 3
                                    },
                                    {
                                        "children": [],
                                        "depth": 2,
                                        "id": 4,
                                        "order": 4
                                    }
                                ],
                                "depth": 1,
                                "id": 2,
                                "order": 2
                            },
                            {
                                "children": [
                                    {
                                        "children": [
                                            {
                                                "children": [
                                                    {
                                                        "children": [],
                                                        "depth": 4,
                                                        "id": 8,
                                                        "order": 8
                                                    }
                                                ],
                                                "depth": 3,
                                                "id": 7,
                                                "order": 7
                                            }
                                        ],
                                        "depth": 2,
                                        "id": 6,
                                        "order": 6
                                    },
                                    {
                                        "children": [],
                                        "depth": 2,
                                        "id": 12,
                                        "order": 12
                                    },
                                    {
                                        "children": [],
                                        "depth": 2,
                                        "id": 13,
                                        "order": 13
                                    }
                                ],
                                "depth": 1,
                                "id": 5,
                                "order": 5
                            }
                        ],
                        "depth": 0,
                        "id": 0,
                        "order": 0
                    }
                ],
                "depth": -1,
                "id": -1,
                "order": -1
            }
        ],
        "tidyTraceNodeCount": 10
    },
    "state_change": {
        "stateChanges": [
            {
                "address": "0xa0b86991c6218b36c1d19d4a2e9eb0ce3606eb48",
                "erc": "ERC-20",
                "slots": [
                    {
                        "current": "0x000000000000000000000000000000000000000000000000000000780ef6c3d7",
                        "key": "0x99cd815119f57578e4d062134d3e605f6bb516b091ba6877f17608d6a750eb32",
                        "prev": "0x000000000000000000000000000000000000000000000000000000796514adb8"
                    },
                    {
                        "current": "0x00000000000000000000000000000000000000000000000000000002927f8a19",
                        "key": "0xebab4fa062644e2167fe483f8edcd889128a788336ad886ee4a63747a0907566",
                        "prev": "0x000000000000000000000000000000000000000000000000000000013c61a038"
                    }
                ],
                "storageVariables": [
                    {
                        "name": "balances",
                        "type": "mapping(address => uint256)",
                        "value": {
                            "pairs": [
                                {
                                    "key": "0x13b37d355cdf1eacefa26a56d6c754ddd0c9e699",
                                    "value": {
                                        "current": "11047766553",
                                        "prev": "5307998264",
                                        "typeTag": 1
                                    }
                                },
                                {
                                    "key": "0xbbf933c1af0e9798615099a37a17cafc6da87732",
                                    "value": {
                                        "current": "515647128535",
                                        "prev": "521386896824",
                                        "typeTag": 1
                                    }
                                }
                            ],
                            "typeTag": 4
                        }
                    }
                ]
            },
            {
                "address": "0xa283aa7cfbb27ef0cfbcb2493dd9f4330e0fd304",
                "erc": "ERC-20",
                "slots": [
                    {
                        "current": "0x0000000000000000000000000000000000000000000000000000000000000000",
                        "key": "0xc66327e61080a92a914079a6c01d0c4028a5b7fe90756e8dc3e3e7e9bade9781",
                        "prev": "0x0000000000000000000000000000000000000000000000165b08388ad8253357"
                    },
                    {
                        "current": "0x0000000000000000000000000000000000000000000007e8b4310b27e4e22d69",
                        "key": "0xa938dcb3ea90c99aa84d88c1b84e6b7ccbd478385e465ba99bcc56bbe9a7d1dc",
                        "prev": "0x0000000000000000000000000000000000000000000007d25928d29d0cbcfa12"
                    },
                    {
                        "current": "0xffffffffffffffffffffffffffffffffffffffffffffffe9a4f7c77527dacca8",
                        "key": "0xd56487ad3ec1464c40758863b4bbd17aebabe613811d8285a6fd165b66e87d25",
                        "prev": "0xffffffffffffffffffffffffffffffffffffffffffffffffffffffffffffffff"
                    }
                ],
                "storageVariables": [
                    {
                        "name": "_balances",
                        "type": "mapping(address => uint256)",
                        "value": {
                            "pairs": [
                                {
                                    "key": "0x13b37d355cdf1eacefa26a56d6c754ddd0c9e699",
                                    "value": {
                                        "current": "0",
                                        "prev": "412387924647858221911",
                                        "typeTag": 1
                                    }
                                },
                                {
                                    "key": "0xbbf933c1af0e9798615099a37a17cafc6da87732",
                                    "value": {
                                        "current": "37349194176654789979497",
                                        "prev": "36936806252006931757586",
                                        "typeTag": 1
                                    }
                                }
                            ],
                            "typeTag": 4
                        }
                    },
                    {
                        "name": "_allowances",
                        "type": "mapping(address => mapping(address => uint256))",
                        "value": {
                            "pairs": [
                                {
                                    "key": "0x13b37d355cdf1eacefa26a56d6c754ddd0c9e699",
                                    "value": {
                                        "pairs": [
                                            {
                                                "key": "0x7a250d5630b4cf539739df2c5dacb4c659f2488d",
                                                "value": {
                                                    "current": "115792089237316195423570985008687907853269984665640564039045196083265271418024",
                                                    "prev": "115792089237316195423570985008687907853269984665640564039457584007913129639935",
                                                    "typeTag": 1
                                                }
                                            }
                                        ],
                                        "typeTag": 4
                                    }
                                }
                            ],
                            "typeTag": 4
                        }
                    }
                ]
            },
            {
                "address": "0xbbf933c1af0e9798615099a37a17cafc6da87732",
                "erc": "ERC-20",
                "slots": [
                    {
                        "current": "0x000000000000000000002e23484d00ac64ea8d67317c31aa500dbcbbed974f64",
                        "key": "0x0000000000000000000000000000000000000000000000000000000000000009",
                        "prev": "0x000000000000000000002e2330f9fd9f41edae51415b6a7e44cc3aebbc2a8308"
                    },
                    {
                        "current": "0x0000000000000000000000000000000000000004f2a801aa32384fb76db555f3",
                        "key": "0x000000000000000000000000000000000000000000000000000000000000000a",
                        "prev": "0x0000000000000000000000000000000000000004f2920f4f584ed2559ebd93e5"
                    },
                    {
                        "current": "0x603f0e040000000007e8b4310b27e4e22d69000000000000000000780ef6c3d7",
                        "key": "0x0000000000000000000000000000000000000000000000000000000000000008",
                        "prev": "0x603f0c9a0000000007d25928d29d0cbcfa12000000000000000000796514adb8"
                    }
                ],
                "storageVariables": [
                    {
                        "name": "price0CumulativeLast",
                        "type": "uint256",
                        "value": {
                            "current": "17262208603066836677982888618034858390298205598732132",
                            "prev": "17262075445051449216331477081324246915385547219960584",
                            "typeTag": 1
                        }
                    },
                    {
                        "name": "price1CumulativeLast",
                        "type": "uint256",
                        "value": {
                            "current": "392011129833449820057022846451",
                            "prev": "391984597902639872321511068645",
                            "typeTag": 1
                        }
                    },
                    {
                        "name": "reserve0",
                        "type": "uint112",
                        "value": {
                            "current": "515647128535",
                            "prev": "521386896824",
                            "typeTag": 1
                        }
                    },
                    {
                        "name": "reserve1",
                        "type": "uint112",
                        "value": {
                            "current": "37349194176654789979497",
                            "prev": "36936806252006931757586",
                            "typeTag": 1
                        }
                    },
                    {
                        "name": "blockTimestampLast",
                        "type": "uint32",
                        "value": {
                            "current": "1614745092",
                            "prev": "1614744730",
                            "typeTag": 1
                        }
                    }
                ]
            }
        ]
    }
}