{
    "balance_change": {
        "balanceChanges": [
            {
                "account": "0x3f0daf1c51eaa140340c627729301c2edbb02dca",
                "assets": [
                    {
                        "address": "0x93e682107d1e9defb0b5ee701c71707a4b2e46bc",
                        "amount": "122.15",
                        "iconUrl": "",
                        "isERC1155": false,
                        "isERC721": false,
                        "sign": false,
                        "value": ""
                    }
                ]
            },
            {
                "account": "0xe55cdb00a5b170c7b09535f63a8b079ea83e7d3e",
                "assets": [
                    {
                        "address": "0x93e682107d1e9defb0b5ee701c71707a4b2e46bc",
                        "amount": "122.15",
                        "iconUrl": "",
                        "isERC1155": false,
                        "isERC721": false,
                        "sign": true,
                        "value": ""
                    }
                ]
            }
        ]
    },
    "profile": {
        "basic_info": {
            "baseFee": "",
            "blockNumber": 3964849,
            "callData": "0xa9059cbb000000000000000000000000e55cdb00a5b170c7b09535f63a8b079ea83e7d3e00000000000000000000000000000000000000000000000000000002d8121bc0",
            "debugEnable": true,
            "errorInfo": "",
            "eventCount": 1,
            "feeRecipient": "0x1e9939daaad6924ad004c2560e90804164900341",
            "formatValue": "0",
            "gasLimit": 100000,
            "gasPrice": "21",
            "gasUsed": 51792,
            "intTxnCount": 0,
            "internalRevert": false,
            "internalRevertMessage": "",
            "isContractCreation": false,
            "isFlashloan": false,
            "maxFee": "",
            "nonce": 6919,
            "overwritedBlockNumber": -1,
            "priorityFee": "",
            "receiver": "0x93e682107d1e9defb0b5ee701c71707a4b2e46bc",
            "revertMessage": "",
            "sender": "0x3f0daf1c51eaa140340c627729301c2edbb02dca",
            "simulationEnable": true,
            "sourceTxnHash": "0x721b9cefff129fec607f9b8b5aa4b205ecf1a16833c4dc0ca7ce672f4a35e45e",
            "status": true,
            "timestamp": "2017-07-02T22:22:28Z",
            "transactionFee": "0.001087632",
            "txnHash": "0x721b9cefff129fec607f9b8b5aa4b205ecf1a16833c4dc0ca7ce672f4a35e45e",
            "txnIndex": 71,
            "type": 0,
            "value": "0"
        },
        "fund_flow": [
            {
                "amount": "122.15",
                "from": "0x3f0daf1c51eaa140340c627729301c2edbb02dca",
                "id": 1,
                "isERC1155": false,
                "isERC721": false,
                "isReverted": false,
                "order": 1,
                "to": "0xe55cdb00a5b170c7b09535f63a8b079ea83e7d3e",
                "token": "0x93e682107d1e9defb0b5ee701c71707a4b2e46bc"
            }
        ],
        "token_infos": [
            {
                "address": "0x93e682107d1e9defb0b5ee701c71707a4b2e46bc",
                "decimals": 8
            },
            {
                "address": "0xc02aaa39b223fe8d0a0e5c4f27ead9083c756cc2",
                "decimals": 18
            },
            {
                "address": "0xeeeeeeeeeeeeeeeeeeeeeeeeeeeeeeeeeeeeeeee",
                "decimals": 18
            }
        ]
    },
    "address_label": {
        "labels": [
            {
                "address": "0x0000000000000000000000000000000000000004",
                "label": "Precompiled"
            },
            {
                "address": "0xeeeeeeeeeeeeeeeeeeeeeeeeeeeeeeeeeeeeeeee",
                "label": "Ether"
            },
            {
                "address": "0x93e682107d1e9defb0b5ee701c71707a4b2e46bc",
                "label": "MCAP"
            },
            {
                "address": "0x0000000000000000000000000000000000000001",
                "label": "Precompiled"
            },
            {
                "address": "0x0000000000000000000000000000000000000002",
                "label": "Precompiled"
            },
            {
                "address": "0x0000000000000000000000000000000000000003",
                "label": "Precompiled"
            }
        ]
    },
    "trace": {
        "accountLabels": null,
        "dataMap": {
            "-1": {
                "invocation": {
                    "address": "0x3f0daf1c51eaa140340c627729301c2edbb02dca",
                    "callData": "",
                    "decodedMethod": null,
                    "errorInfo": "",
                    "fromAddress": "",
                    "gasUsed": 0,
                    "id": -1,
                    "methodDecoded": false,
                    "operation": "",
                    "output": "",
                    "revert": false,
                    "revertMessage": "",
                    "selector": "",
                    "status": false,
                    "value": ""
                },
                "nodeType": 0
            },
            "0": {
                "invocation": {
                    "address": "0x93e682107d1e9defb0b5ee701c71707a4b2e46bc",
                    "callData": "0x000000000000000000000000e55cdb00a5b170c7b09535f63a8b079ea83e7d3e00000000000000000000000000000000000000000000000000000002d8121bc0",
                    "decodedMethod": {
                        "callParams": [
                            {
                                "name": "_to",
                                "type": "address",
                                "value": "0xe55cdb00a5b170c7b09535f63a8b079ea83e7d3e"
                            },
                            {
                                "decimalAvailable": true,
                                "name": "_value",
                                "type": "uint256",
                                "value": "12,215,000,000"
                            }
                        ],
                        "constructorArguments": "",
                        "name": "transfer",
                        "returnParams": [],
                        "signature": "transfer(address,uint256)"
                    },
                    "errorInfo": "",
                    "fromAddress": "0x3f0daf1c51eaa140340c627729301c2edbb02dca",
                    "gasUsed": 51792,
                    "id": 0,
                    "methodDecoded": true,
                    "operation": "CALL",
                    "output": "",
                    "revert": false,
                    "revertMessage": "",
                    "selector": "0xa9059cbb",
                    "status": true,
                    "value": "0"
                },
                "nodeType": 0
            },
            "1": {
                "event": {
                    "contract": "0x93e682107d1e9defb0b5ee701c71707a4b2e46bc",
                    "decodedLog": {
                        "name": "Transfer",
                        "params": [
                            {
                                "name": "from",
                                "type": "address",
                                "value": "0x3f0daf1c51eaa140340c627729301c2edbb02dca"
                            },
                            {
                                "name": "to",
                                "type": "address",
                                "value": "0xe55cdb00a5b170c7b09535f63a8b079ea83e7d3e"
                            },
                            {
                                "decimalAvailable": true,
                                "name": "value",
                                "type": "uint256",
                                "value": "12,215,000,000"
                            }
                        ],
                        "signature": "Transfer(address,address,uint256)"
                    },
                    "id": 1,
                    "logData": "0x00000000000000000000000000000000000000000000000000000002d8121bc0",
                    "logDecoded": true,
                    "operation": "EVENT",
                    "revert": false,
                    "status": true,
                    "topics": [
                        "0xddf252ad1be2c89b69c2b068fc378daa952ba7f163c4a11628f55a4df523b3ef",
                        "0x0000000000000000000000003f0daf1c51eaa140340c627729301c2edbb02dca",
                        "0x000000000000000000000000e55cdb00a5b170c7b09535f63a8b079ea83e7d3e"
                    ]
                },
                "nodeType": 1
            }
        },
        "gasFlame": [
            {
                "children": [
                    {
                        "children": [
                            {
                                "children": [],
                                "depth": 0,
                                "name": "Initial Gas",
                                "value": 23064
                            },
                            {
                                "children": [],
                                "depth": 0,
                                "name": "Executed Gas",
                                "value": 28728
                            }
                        ],
                        "depth": -1,
                        "name": "Actual Gas Used",
                        "value": 51792
                    },
                    {
                        "children": [],
                        "depth": -1,
                        "name": "Refunded Gas",
                        "value": 0
                    }
                ],
                "depth": -2,
                "name": "Total Gas",
                "value": 51792
            }
        ],
        "isConfirmed": true,
        "mainTrace": [
            {
                "children": [
                    {
                        "children": [
                            {
                                "children": [],
                                "depth": 1,
                                "id": 1,
                                "order": 1
                            }
                        ],
                        "depth": 0,
                        "id": 0,
                        "order": 0
                    }
                ],
                "depth": -1,
                "id": -1,
                "order": -1
            }
        ],
        "mainTraceNodeCount": 2,
        "parentIdMap": {
            "0": -1,
            "1": 0
        },
        "tidyTrace": [
            {
                "children": [
                    {
                        "children": [
                            {
                                "children": [],
                                "depth": 1,
                                "id": 1,
                                "order": 1
                            }
                        ],
                        "depth": 0,
                        "id": 0,
                        "order": 0
                    }
                ],
                "depth": -1,
                "id": -1,
                "order": -1
            }
        ],
        "tidyTraceNodeCount": 2
    },
    "state_change": {
        "stateChanges": [
            {
                "address": "0x93e682107d1e9defb0b5ee701c71707a4b2e46bc",
                "erc": "",
                "slots": [
                    {
                        "current": "0x00000000000000000000000000000000000000000000000000004f994fe7a56c",
                        "key": "0xdb233bec67814edf5d6e1f8a3c1b19c09e9ba2b0b7a1a71ebb094ef87b2da84f",
                        "prev": "0x00000000000000000000000000000000000000000000000000004f9c27f9c12c"
                    },
                    {
                        "current": "0x00000000000000000000000000000000000000000000000000000002d8121bc0",
                        "key": "0xa883392681a846c12f3476fc4e181171bf8fbb502b7e6ef2f8c45fe8d1c8896a",
                        "prev": "0x0000000000000000000000000000000000000000000000000000000000000000"
                    }
                ],
                "storageVariables": []
            }
        ]
    }
}