{
    "balance_change": {
        "balanceChanges": [
            {
                "account": "0xba55afe08b90c7596e149abfcfcb28a9442c7016",
                "assets": [
                    {
                        "address": "0xedc502b12ced7e16ce21749e7161f9ed22bfca53",
                        "amount": "88",
                        "iconUrl": "",
                        "isERC1155": false,
                        "isERC721": false,
                        "sign": false,
                        "value": ""
                    }
                ]
            },
            {
                "account": "0xd741a32ecf4af8fcedd78ddd1b90309ad52fe4d5",
                "assets": [
                    {
                        "address": "0xedc502b12ced7e16ce21749e7161f9ed22bfca53",
                        "amount": "88",
                        "iconUrl": "",
                        "isERC1155": false,
                        "isERC721": false,
                        "sign": true,
                        "value": ""
                    }
                ]
            }
        ]
    },
    "profile": {
        "basic_info": {
            "baseFee": "",
            "blockNumber": 5238769,
            "callData": "0xa9059cbb000000000000000000000000d741a32ecf4af8fcedd78ddd1b90309ad52fe4d500000000000000000000000000000000000000000000000000000000000d6d80",
            "debugEnable": true,
            "errorInfo": "",
            "eventCount": 1,
            "feeRecipient": "0x829bd824b016326a401d083b33d092293333a830",
            "formatValue": "0",
            "gasLimit": 61289,
            "gasPrice": "3",
            "gasUsed": 51289,
            "intTxnCount": 0,
            "internalRevert": false,
            "internalRevertMessage": "",
            "isContractCreation": false,
            "isFlashloan": false,
            "maxFee": "",
            "nonce": 6733,
            "overwritedBlockNumber": -1,
            "priorityFee": "",
            "receiver": "0xedc502b12ced7e16ce21749e7161f9ed22bfca53",
            "revertMessage": "",
            "sender": "0xba55afe08b90c7596e149abfcfcb28a9442c7016",
            "simulationEnable": true,
            "sourceTxnHash": "0x72f09c7bb3ca09f4f69e02b038f66e19a3482fe01a20aa7f7e58693b034dbe0e",
            "status": true,
            "timestamp": "2018-03-11T23:02:21Z",
            "transactionFee": "0.000153867",
            "txnHash": "0x72f09c7bb3ca09f4f69e02b038f66e19a3482fe01a20aa7f7e58693b034dbe0e",
            "txnIndex": 135,
            "type": 0,
            "value": "0"
        },
        "fund_flow": [
            {
                "amount": "88",
                "from": "0xba55afe08b90c7596e149abfcfcb28a9442c7016",
                "id": 1,
                "isERC1155": false,
                "isERC721": false,
                "isReverted": false,
                "order": 1,
                "to": "0xd741a32ecf4af8fcedd78ddd1b90309ad52fe4d5",
                "token": "0xedc502b12ced7e16ce21749e7161f9ed22bfca53"
            }
        ],
        "token_infos": [
            {
                "address": "0xc02aaa39b223fe8d0a0e5c4f27ead9083c756cc2",
                "decimals": 18
            },
            {
                "address": "0xedc502b12ced7e16ce21749e7161f9ed22bfca53",
                "decimals": 4
            },
            {
                "address": "0xeeeeeeeeeeeeeeeeeeeeeeeeeeeeeeeeeeeeeeee",
                "decimals": 18
            }
        ]
    },
    "address_label": {
        "labels": [
            {
                "address": "0x0000000000000000000000000000000000000004",
                "label": "Precompiled"
            },
            {
                "address": "0xeeeeeeeeeeeeeeeeeeeeeeeeeeeeeeeeeeeeeeee",
                "label": "Ether"
            },
            {
                "address": "0xedc502b12ced7e16ce21749e7161f9ed22bfca53",
                "label": "Intelligent Commerce Chain (ICC)"
            },
            {
                "address": "0x0000000000000000000000000000000000000001",
                "label": "Precompiled"
            },
            {
                "address": "0x0000000000000000000000000000000000000002",
                "label": "Precompiled"
            },
            {
                "address": "0x0000000000000000000000000000000000000003",
                "label": "Precompiled"
            }
        ]
    },
    "trace": {
        "accountLabels": null,
        "dataMap": {
            "-1": {
                "invocation": {
                    "address": "0xba55afe08b90c7596e149abfcfcb28a9442c7016",
                    "callData": "",
                    "decodedMethod": null,
                    "errorInfo": "",
                    "fromAddress": "",
                    "gasUsed": 0,
                    "id": -1,
                    "methodDecoded": false,
                    "operation": "",
                    "output": "",
                    "revert": false,
                    "revertMessage": "",
                    "selector": "",
                    "status": false,
                    "value": ""
                },
                "nodeType": 0
            },
            "0": {
                "invocation": {
                    "address": "0xedc502b12ced7e16ce21749e7161f9ed22bfca53",
                    "callData": "0x000000000000000000000000d741a32ecf4af8fcedd78ddd1b90309ad52fe4d500000000000000000000000000000000000000000000000000000000000d6d80",
                    "decodedMethod": {
                        "callParams": [
                            {
                                "name": "_to",
                                "type": "address",
                                "value": "0xd741a32ecf4af8fcedd78ddd1b90309ad52fe4d5"
                            },
                            {
                                "decimalAvailable": true,
                                "name": "_value",
                                "type": "uint256",
                                "value": "880,000"
                            }
                        ],
                        "constructorArguments": "",
                        "name": "transfer",
                        "returnParams": [
                            {
                                "name": "success",
                                "type": "bool",
                                "value": true
                            }
                        ],
                        "signature": "transfer(address,uint256)"
                    },
                    "errorInfo": "",
                    "fromAddress": "0xba55afe08b90c7596e149abfcfcb28a9442c7016",
                    "gasUsed": 51289,
                    "id": 0,
                    "methodDecoded": true,
                    "operation": "CALL",
                    "output": "0x0000000000000000000000000000000000000000000000000000000000000001",
                    "revert": false,
                    "revertMessage": "",
                    "selector": "0xa9059cbb",
                    "status": true,
                    "value": "0"
                },
                "nodeType": 0
            },
            "1": {
                "event": {
                    "contract": "0xedc502b12ced7e16ce21749e7161f9ed22bfca53",
                    "decodedLog": {
                        "name": "Transfer",
                        "params": [
                            {
                                "name": "_from",
                                "type": "address",
                                "value": "0xba55afe08b90c7596e149abfcfcb28a9442c7016"
                            },
                            {
                                "name": "_to",
                                "type": "address",
                                "value": "0xd741a32ecf4af8fcedd78ddd1b90309ad52fe4d5"
                            },
                            {
                                "decimalAvailable": true,
                                "name": "_value",
                                "type": "uint256",
                                "value": "880,000"
                            }
                        ],
                        "signature": "Transfer(address,address,uint256)"
                    },
                    "id": 1,
                    "logData": "0x00000000000000000000000000000000000000000000000000000000000d6d80",
                    "logDecoded": true,
                    "operation": "EVENT",
                    "revert": false,
                    "status": true,
                    "topics": [
                        "0xddf252ad1be2c89b69c2b068fc378daa952ba7f163c4a11628f55a4df523b3ef",
                        "0x000000000000000000000000ba55afe08b90c7596e149abfcfcb28a9442c7016",
                        "0x000000000000000000000000d741a32ecf4af8fcedd78ddd1b90309ad52fe4d5"
                    ]
                },
                "nodeType": 1
            }
        },
        "gasFlame": [
            {
                "children": [
                    {
                        "children": [
                            {
                                "children": [],
                                "depth": 0,
                                "name": "Initial Gas",
                                "value": 23000
                            },
                            {
                                "children": [],
                                "depth": 0,
                                "name": "Executed Gas",
                                "value": 28289
                            }
                        ],
                        "depth": -1,
                        "name": "Actual Gas Used",
                        "value": 51289
                    },
                    {
                        "children": [],
                        "depth": -1,
                        "name": "Refunded Gas",
                        "value": 0
                    }
                ],
                "depth": -2,
                "name": "Total Gas",
                "value": 51289
            }
        ],
        "isConfirmed": true,
        "mainTrace": [
            {
                "children": [
                    {
                        "children": [
                            {
                                "children": [],
                                "depth": 1,
                                "id": 1,
                                "order": 1
                            }
                        ],
                        "depth": 0,
                        "id": 0,
                        "order": 0
                    }
                ],
                "depth": -1,
                "id": -1,
                "order": -1
            }
        ],
        "mainTraceNodeCount": 2,
        "parentIdMap": {
            "0": -1,
            "1": 0
        },
        "tidyTrace": [
            {
                "children": [
                    {
                        "children": [
                            {
                                "children": [],
                                "depth": 1,
                                "id": 1,
                                "order": 1
                            }
                        ],
                        "depth": 0,
                        "id": 0,
                        "order": 0
                    }
                ],
                "depth": -1,
                "id": -1,
                "order": -1
            }
        ],
        "tidyTraceNodeCount": 2
    },
    "state_change": {
        "stateChanges": [
            {
                "address": "0xedc502b12ced7e16ce21749e7161f9ed22bfca53",
                "erc": "ERC-20",
                "slots": [
                    {
                        "current": "0x0000000000000000000000000000000000000000000000000000000c497d5898",
                        "key": "0xa48f626e07e3a797845290ed95becd58bf56b8e484c3b42ced8a5fda5aa9e2b9",
                        "prev": "0x0000000000000000000000000000000000000000000000000000000c498ac618"
                    },
                    {
                        "current": "0x00000000000000000000000000000000000000000000000000000000000d6d80",
                        "key": "0x1e52ec177d19b39c7944a6c80855dd8677803915d210f2f27f25cdd2371360f6",
                        "prev": "0x0000000000000000000000000000000000000000000000000000000000000000"
                    }
                ],
                "storageVariables": []
            }
        ]
    }
}