{
    "balance_change": {
        "balanceChanges": [
            {
                "account": "0xdfd1c73d0d95ff0c0ebd3ca9d45643ba7e37827d",
                "assets": [
                    {
                        "address": "0x7fc66500c84a76ad7e9c93437bfc5ac33e2ddae9",
                        "amount": "24.2489645271833437",
                        "iconUrl": "https://assets.blocksec.com/icon/62f48bc5d1faeb48ff872297b2d01aca7a06f6613f30d65440b9b7703425b7e3.png",
                        "isERC1155": false,
                        "isERC721": false,
                        "sign": false,
                        "value": "1985.0202364257999862"
                    }
                ]
            },
            {
                "account": "0x167a9333bf582556f35bd4d16a7e80e191aa6476",
                "assets": [
                    {
                        "address": "0x7fc66500c84a76ad7e9c93437bfc5ac33e2ddae9",
                        "amount": "24.2489645271833437",
                        "iconUrl": "https://assets.blocksec.com/icon/62f48bc5d1faeb48ff872297b2d01aca7a06f6613f30d65440b9b7703425b7e3.png",
                        "isERC1155": false,
                        "isERC721": false,
                        "sign": true,
                        "value": "1985.0202364257999862"
                    }
                ]
            }
        ]
    },
    "profile": {
        "basic_info": {
            "baseFee": "2.069040908",
            "blockNumber": 20144633,
            "callData": "0xa9059cbb000000000000000000000000167a9333bf582556f35bd4d16a7e80e191aa64760000000000000000000000000000000000000000000000015085a0c2cdcfb054",
            "debugEnable": true,
            "errorInfo": "",
            "eventCount": 1,
            "feeRecipient": "0x1f9090aae28b8a3dceadf281b0f12828e676c326",
            "formatValue": "0",
            "gasLimit": 250000,
            "gasPrice": "5.069040908",
            "gasUsed": 39520,
            "intTxnCount": 1,
            "internalRevert": false,
            "internalRevertMessage": "",
            "isContractCreation": false,
            "isFlashloan": false,
            "maxFee": "5.405299815",
            "nonce": 0,
            "overwritedBlockNumber": -1,
            "priorityFee": "3",
            "receiver": "0x7fc66500c84a76ad7e9c93437bfc5ac33e2ddae9",
            "revertMessage": "",
            "sender": "0xdfd1c73d0d95ff0c0ebd3ca9d45643ba7e37827d",
            "simulationEnable": true,
            "sourceTxnHash": "0x72cc392fb7a0eb9044ff31e5b4091b60d728d1ca7a233fcdb394df782a0c3072",
            "status": true,
            "timestamp": "2024-06-22T03:42:11Z",
            "transactionFee": "0.00020032849668416",
            "txnHash": "0x72cc392fb7a0eb9044ff31e5b4091b60d728d1ca7a233fcdb394df782a0c3072",
            "txnIndex": 55,
            "type": 2,
            "value": "0"
        },
        "fund_flow": [
            {
                "amount": "24.2489645271833437",
                "from": "0xdfd1c73d0d95ff0c0ebd3ca9d45643ba7e37827d",
                "id": 1,
                "isERC1155": false,
                "isERC721": false,
                "isReverted": false,
                "order": 1,
                "to": "0x167a9333bf582556f35bd4d16a7e80e191aa6476",
                "token": "0x7fc66500c84a76ad7e9c93437bfc5ac33e2ddae9"
            }
        ],
        "token_infos": [
            {
                "address": "0xeeeeeeeeeeeeeeeeeeeeeeeeeeeeeeeeeeeeeeee",
                "decimals": 18
            },
            {
                "address": "0x7fc66500c84a76ad7e9c93437bfc5ac33e2ddae9",
                "decimals": 18
            },
            {
                "address": "0xc02aaa39b223fe8d0a0e5c4f27ead9083c756cc2",
                "decimals": 18
            }
        ]
    },
    "address_label": {
        "labels": [
            {
                "address": "0x0000000000000000000000000000000000000003",
                "label": "Precompiled"
            },
            {
                "address": "0x0000000000000000000000000000000000000004",
                "label": "Precompiled"
            },
            {
                "address": "0xeeeeeeeeeeeeeeeeeeeeeeeeeeeeeeeeeeeeeeee",
                "label": "Ether"
            },
            {
                "address": "0x167a9333bf582556f35bd4d16a7e80e191aa6476",
                "label": "Coinone"
            },
            {
                "address": "0x7fc66500c84a76ad7e9c93437bfc5ac33e2ddae9",
                "label": "Aave: AAVE Token"
            },
            {
                "address": "0x5d4aa78b08bc7c530e21bf7447988b1be7991322",
                "label": "AaveTokenV3"
            },
            {
                "address": "0x0000000000000000000000000000000000000001",
                "label": "Precompiled"
            },
            {
                "address": "0x0000000000000000000000000000000000000002",
                "label": "Precompiled"
            }
        ]
    },
    "trace": {
        "accountLabels": null,
        "dataMap": {
            "-1": {
                "invocation": {
                    "address": "0xdfd1c73d0d95ff0c0ebd3ca9d45643ba7e37827d",
                    "callData": "",
                    "decodedMethod": null,
                    "errorInfo": "",
                    "fromAddress": "",
                    "gasUsed": 0,
                    "id": -1,
                    "methodDecoded": false,
                    "operation": "",
                    "output": "",
                    "revert": false,
                    "revertMessage": "",
                    "selector": "",
                    "status": false,
                    "value": ""
                },
                "nodeType": 0
            },
            "0": {
                "invocation": {
                    "address": "0x7fc66500c84a76ad7e9c93437bfc5ac33e2ddae9",
                    "callData": "0x000000000000000000000000167a9333bf582556f35bd4d16a7e80e191aa64760000000000000000000000000000000000000000000000015085a0c2cdcfb054",
                    "decodedMethod": {
                        "callParams": [
                            {
                                "name": "to",
                                "type": "address",
                                "value": "0x167a9333bf582556f35bd4d16a7e80e191aa6476"
                            },
                            {
                                "decimalAvailable": true,
                                "name": "amount",
                                "type": "uint256",
                                "value": "24,248,964,527,183,343,700"
                            }
                        ],
                        "constructorArguments": "",
                        "name": "transfer",
                        "returnParams": [
                            {
                                "name": "",
                                "type": "bool",
                                "value": true
                            }
                        ],
                        "signature": "transfer(address,uint256)"
                    },
                    "errorInfo": "",
                    "fromAddress": "0xdfd1c73d0d95ff0c0ebd3ca9d45643ba7e37827d",
                    "gasUsed": 39520,
                    "id": 0,
                    "methodDecoded": true,
                    "operation": "CALL",
                    "output": "0x0000000000000000000000000000000000000000000000000000000000000001",
                    "revert": false,
                    "revertMessage": "",
                    "selector": "0xa9059cbb",
                    "status": true,
                    "value": "0"
                },
                "nodeType": 0
            },
            "1": {
                "invocation": {
                    "address": "0x5d4aa78b08bc7c530e21bf7447988b1be7991322",
                    "callData": "0x000000000000000000000000167a9333bf582556f35bd4d16a7e80e191aa64760000000000000000000000000000000000000000000000015085a0c2cdcfb054",
                    "decodedMethod": {
                        "callParams": [
                            {
                                "name": "to",
                                "type": "address",
                                "value": "0x167a9333bf582556f35bd4d16a7e80e191aa6476"
                            },
                            {
                                "decimalAvailable": true,
                                "name": "amount",
                                "type": "uint256",
                                "value": "24,248,964,527,183,343,700"
                            }
                        ],
                        "constructorArguments": "",
                        "name": "transfer",
                        "returnParams": [
                            {
                                "name": "",
                                "type": "bool",
                                "value": true
                            }
                        ],
                        "signature": "transfer(address,uint256)"
                    },
                    "errorInfo": "",
                    "fromAddress": "0x7fc66500c84a76ad7e9c93437bfc5ac33e2ddae9",
                    "gasUsed": 15382,
                    "id": 1,
                    "methodDecoded": true,
                    "operation": "DELEGATECALL",
                    "output": "0x0000000000000000000000000000000000000000000000000000000000000001",
                    "revert": false,
                    "revertMessage": "",
                    "selector": "0xa9059cbb",
                    "status": true,
                    "value": "0"
                },
                "nodeType": 0
            },
            "2": {
                "event": {
                    "contract": "0x7fc66500c84a76ad7e9c93437bfc5ac33e2ddae9",
                    "decodedLog": {
                        "name": "Transfer",
                        "params": [
                            {
                                "name": "from",
                                "type": "address",
                                "value": "0xdfd1c73d0d95ff0c0ebd3ca9d45643ba7e37827d"
                            },
                            {
                                "name": "to",
                                "type": "address",
                                "value": "0x167a9333bf582556f35bd4d16a7e80e191aa6476"
                            },
                            {
                                "decimalAvailable": true,
                                "name": "value",
                                "type": "uint256",
                                "value": "24,248,964,527,183,343,700"
                            }
                        ],
                        "signature": "Transfer(address,address,uint256)"
                    },
                    "id": 2,
                    "logData": "0x0000000000000000000000000000000000000000000000015085a0c2cdcfb054",
                    "logDecoded": true,
                    "operation": "EVENT",
                    "revert": false,
                    "status": true,
                    "topics": [
                        "0xddf252ad1be2c89b69c2b068fc378daa952ba7f163c4a11628f55a4df523b3ef",
                        "0x000000000000000000000000dfd1c73d0d95ff0c0ebd3ca9d45643ba7e37827d",
                        "0x000000000000000000000000167a9333bf582556f35bd4d16a7e80e191aa6476"
                    ]
                },
                "nodeType": 1
            }
        },
        "gasFlame": [
            {
                "children": [
                    {
                        "children": [
                            {
                                "children": [],
                                "depth": 0,
                                "name": "Initial Gas",
                                "value": 21668
                            },
                            {
                                "children": [
                                    {
                                        "children": [],
                                        "depth": 1,
                                        "name": "transfer",
                                        "value": 15382
                                    }
                                ],
                                "depth": 0,
                                "name": "Executed Gas",
                                "value": 22652
                            }
                        ],
                        "depth": -1,
                        "name": "Actual Gas Used",
                        "value": 39520
                    },
                    {
                        "children": [],
                        "depth": -1,
                        "name": "Refunded Gas",
                        "value": 4800
                    }
                ],
                "depth": -2,
                "name": "Total Gas",
                "value": 44320
            }
        ],
        "isConfirmed": true,
        "mainTrace": [
            {
                "children": [
                    {
                        "children": [
                            {
                                "children": [
                                    {
                                        "children": [],
                                        "depth": 2,
                                        "id": 2,
                                        "order": 2
                                    }
                                ],
                                "depth": 1,
                                "id": 1,
                                "order": 1
                            }
                        ],
                        "depth": 0,
                        "id": 0,
                        "order": 0
                    }
                ],
                "depth": -1,
                "id": -1,
                "order": -1
            }
        ],
        "mainTraceNodeCount": 3,
        "parentIdMap": {
            "0": -1,
            "1": 0,
            "2": 1
        },
        "tidyTrace": [
            {
                "children": [
                    {
                        "children": [
                            {
                                "children": [
                                    {
                                        "children": [],
                                        "depth": 2,
                                        "id": 2,
                                        "order": 2
                                    }
                                ],
                                "depth": 1,
                                "id": 1,
                                "order": 1
                            }
                        ],
                        "depth": 0,
                        "id": 0,
                        "order": 0
                    }
                ],
                "depth": -1,
                "id": -1,
                "order": -1
            }
        ],
        "tidyTraceNodeCount": 3
    },
    "state_change": {
        "stateChanges": [
            {
                "address": "0x7fc66500c84a76ad7e9c93437bfc5ac33e2ddae9",
                "erc": "ERC-20",
                "slots": [
                    {
                        "current": "0x0000000000000000000000000000000000000000000000000000000000000000",
                        "key": "0x04c76fe097bc50b9509fdd40b5d74d576b649b2a31334ed2a753c6cf1be08516",
                        "prev": "0x0000000000000000000000000000000000000000000000015085a0c2cdcfb054"
                    },
                    {
                        "current": "0x000000000000000000000000000000000000000000000041a0b54787451446e5",
                        "key": "0x4d88f0a404a8d175315ab882ebd7f10f8cf65eecffd2583538324af324ac122c",
                        "prev": "0x000000000000000000000000000000000000000000000040502fa6c477449691"
                    }
                ],
                "storageVariables": [
                    {
                        "name": "_balances",
                        "type": "mapping(address => struct BaseAaveToken.DelegationAwareBalance)",
                        "value": {
                            "pairs": [
                                {
                                    "key": "0x167a9333bf582556f35bd4d16a7e80e191aa6476",
                                    "value": {
                                        "fields": [
                                            {
                                                "name": "balance",
                                                "type": "uint104",
                                                "value": {
                                                    "current": "1210618605454279067365",
                                                    "prev": "1186369640927095723665",
                                                    "typeTag": 1
                                                }
                                            },
                                            {
                                                "name": "delegatedPropositionBalance",
                                                "type": "uint72",
                                                "value": {
                                                    "current": "0",
                                                    "prev": "0",
                                                    "typeTag": 1
                                                }
                                            },
                                            {
                                                "name": "delegatedVotingBalance",
                                                "type": "uint72",
                                                "value": {
                                                    "current": "0",
                                                    "prev": "0",
                                                    "typeTag": 1
                                                }
                                            },
                                            {
                                                "name": "delegationMode",
                                                "type": "enum DelegationMode",
                                                "value": {
                                                    "current": "0",
                                                    "prev": "0",
                                                    "typeTag": 1
                                                }
                                            }
                                        ],
                                        "typeTag": 3
                                    }
                                },
                                {
                                    "key": "0xdfd1c73d0d95ff0c0ebd3ca9d45643ba7e37827d",
                                    "value": {
                                        "fields": [
                                            {
                                                "name": "balance",
                                                "type": "uint104",
                                                "value": {
                                                    "current": "0",
                                                    "prev": "24248964527183343700",
                                                    "typeTag": 1
                                                }
                                            },
                                            {
                                                "name": "delegatedPropositionBalance",
                                                "type": "uint72",
                                                "value": {
                                                    "current": "0",
                                                    "prev": "0",
                                                    "typeTag": 1
                                                }
                                            },
                                            {
                                                "name": "delegatedVotingBalance",
                                                "type": "uint72",
                                                "value": {
                                                    "current": "0",
                                                    "prev": "0",
                                                    "typeTag": 1
                                                }
                                            },
                                            {
                                                "name": "delegationMode",
                                                "type": "enum DelegationMode",
                                                "value": {
                                                    "current": "0",
                                                    "prev": "0",
                                                    "typeTag": 1
                                                }
                                            }
                                        ],
                                        "typeTag": 3
                                    }
                                }
                            ],
                            "typeTag": 4
                        }
                    }
                ]
            }
        ]
    }
}