{
    "balance_change": {
        "balanceChanges": [
            {
                "account": "0x75c2d0d2bf024ed70e33686ddc7f4e7478f5ab33",
                "assets": [
                    {
                        "address": "0xc5807256e2e2fe85ca94c3617c4bc5ff2bd9cfb6",
                        "amount": "2",
                        "iconUrl": "",
                        "isERC1155": false,
                        "isERC721": false,
                        "sign": false,
                        "value": ""
                    }
                ]
            },
            {
                "account": "0x92cace836fa29f8b5ac5ef02c7ad241614d78ee2",
                "assets": [
                    {
                        "address": "0xc5807256e2e2fe85ca94c3617c4bc5ff2bd9cfb6",
                        "amount": "2",
                        "iconUrl": "",
                        "isERC1155": false,
                        "isERC721": false,
                        "sign": true,
                        "value": ""
                    }
                ]
            }
        ]
    },
    "profile": {
        "basic_info": {
            "baseFee": "",
            "blockNumber": 8391663,
            "callData": "0xa9059cbb00000000000000000000000092cace836fa29f8b5ac5ef02c7ad241614d78ee20000000000000000000000000000000000000000000000001bc16d674ec80000",
            "debugEnable": true,
            "errorInfo": "",
            "eventCount": 1,
            "feeRecipient": "0x06b8c5883ec71bc3f4b332081519f23834c8706e",
            "formatValue": "0",
            "gasLimit": 60000,
            "gasPrice": "3",
            "gasUsed": 37158,
            "intTxnCount": 0,
            "internalRevert": false,
            "internalRevertMessage": "",
            "isContractCreation": false,
            "isFlashloan": false,
            "maxFee": "",
            "nonce": 240,
            "overwritedBlockNumber": -1,
            "priorityFee": "",
            "receiver": "0xc5807256e2e2fe85ca94c3617c4bc5ff2bd9cfb6",
            "revertMessage": "",
            "sender": "0x75c2d0d2bf024ed70e33686ddc7f4e7478f5ab33",
            "simulationEnable": true,
            "sourceTxnHash": "0x7398c2e6c53cf864fa2d01c1d9cc8a1e9103f86a6720da4f05d70cf08e7e7f80",
            "status": true,
            "timestamp": "2019-08-21T04:59:10Z",
            "transactionFee": "0.000111474",
            "txnHash": "0x7398c2e6c53cf864fa2d01c1d9cc8a1e9103f86a6720da4f05d70cf08e7e7f80",
            "txnIndex": 68,
            "type": 0,
            "value": "0"
        },
        "fund_flow": [
            {
                "amount": "2",
                "from": "0x75c2d0d2bf024ed70e33686ddc7f4e7478f5ab33",
                "id": 1,
                "isERC1155": false,
                "isERC721": false,
                "isReverted": false,
                "order": 1,
                "to": "0x92cace836fa29f8b5ac5ef02c7ad241614d78ee2",
                "token": "0xc5807256e2e2fe85ca94c3617c4bc5ff2bd9cfb6"
            }
        ],
        "token_infos": [
            {
                "address": "0xc02aaa39b223fe8d0a0e5c4f27ead9083c756cc2",
                "decimals": 18
            },
            {
                "address": "0xc5807256e2e2fe85ca94c3617c4bc5ff2bd9cfb6",
                "decimals": 18
            },
            {
                "address": "0xeeeeeeeeeeeeeeeeeeeeeeeeeeeeeeeeeeeeeeee",
                "decimals": 18
            }
        ]
    },
    "address_label": {
        "labels": [
            {
                "address": "0x0000000000000000000000000000000000000001",
                "label": "Precompiled"
            },
            {
                "address": "0x0000000000000000000000000000000000000002",
                "label": "Precompiled"
            },
            {
                "address": "0x0000000000000000000000000000000000000003",
                "label": "Precompiled"
            },
            {
                "address": "0x0000000000000000000000000000000000000004",
                "label": "Precompiled"
            },
            {
                "address": "0xeeeeeeeeeeeeeeeeeeeeeeeeeeeeeeeeeeeeeeee",
                "label": "Ether"
            },
            {
                "address": "0x92cace836fa29f8b5ac5ef02c7ad241614d78ee2",
                "label": "HyperDragons: Contract 4"
            },
            {
                "address": "0xc5807256e2e2fe85ca94c3617c4bc5ff2bd9cfb6",
                "label": "HyperDragons: DST Token"
            }
        ]
    },
    "trace": {
        "accountLabels": null,
        "dataMap": {
            "-1": {
                "invocation": {
                    "address": "0x75c2d0d2bf024ed70e33686ddc7f4e7478f5ab33",
                    "callData": "",
                    "decodedMethod": null,
                    "errorInfo": "",
                    "fromAddress": "",
                    "gasUsed": 0,
                    "id": -1,
                    "methodDecoded": false,
                    "operation": "",
                    "output": "",
                    "revert": false,
                    "revertMessage": "",
                    "selector": "",
                    "status": false,
                    "value": ""
                },
                "nodeType": 0
            },
            "0": {
                "invocation": {
                    "address": "0xc5807256e2e2fe85ca94c3617c4bc5ff2bd9cfb6",
                    "callData": "0x00000000000000000000000092cace836fa29f8b5ac5ef02c7ad241614d78ee20000000000000000000000000000000000000000000000001bc16d674ec80000",
                    "decodedMethod": {
                        "callParams": [
                            {
                                "name": "_to",
                                "type": "address",
                                "value": "0x92cace836fa29f8b5ac5ef02c7ad241614d78ee2"
                            },
                            {
                                "decimalAvailable": true,
                                "name": "_value",
                                "type": "uint256",
                                "value": "2,000,000,000,000,000,000"
                            }
                        ],
                        "constructorArguments": "",
                        "name": "transfer",
                        "returnParams": [
                            {
                                "name": "",
                                "type": "bool",
                                "value": true
                            }
                        ],
                        "signature": "transfer(address,uint256)"
                    },
                    "errorInfo": "",
                    "fromAddress": "0x75c2d0d2bf024ed70e33686ddc7f4e7478f5ab33",
                    "gasUsed": 37158,
                    "id": 0,
                    "methodDecoded": true,
                    "operation": "CALL",
                    "output": "0x0000000000000000000000000000000000000000000000000000000000000001",
                    "revert": false,
                    "revertMessage": "",
                    "selector": "0xa9059cbb",
                    "status": true,
                    "value": "0"
                },
                "nodeType": 0
            },
            "1": {
                "event": {
                    "contract": "0xc5807256e2e2fe85ca94c3617c4bc5ff2bd9cfb6",
                    "decodedLog": {
                        "name": "Transfer",
                        "params": [
                            {
                                "name": "from",
                                "type": "address",
                                "value": "0x75c2d0d2bf024ed70e33686ddc7f4e7478f5ab33"
                            },
                            {
                                "name": "to",
                                "type": "address",
                                "value": "0x92cace836fa29f8b5ac5ef02c7ad241614d78ee2"
                            },
                            {
                                "decimalAvailable": true,
                                "name": "value",
                                "type": "uint256",
                                "value": "2,000,000,000,000,000,000"
                            }
                        ],
                        "signature": "Transfer(address,address,uint256)"
                    },
                    "id": 1,
                    "logData": "0x0000000000000000000000000000000000000000000000001bc16d674ec80000",
                    "logDecoded": true,
                    "operation": "EVENT",
                    "revert": false,
                    "status": true,
                    "topics": [
                        "0xddf252ad1be2c89b69c2b068fc378daa952ba7f163c4a11628f55a4df523b3ef",
                        "0x00000000000000000000000075c2d0d2bf024ed70e33686ddc7f4e7478f5ab33",
                        "0x00000000000000000000000092cace836fa29f8b5ac5ef02c7ad241614d78ee2"
                    ]
                },
                "nodeType": 1
            }
        },
        "gasFlame": [
            {
                "children": [
                    {
                        "children": [
                            {
                                "children": [],
                                "depth": 0,
                                "name": "Initial Gas",
                                "value": 23192
                            },
                            {
                                "children": [],
                                "depth": 0,
                                "name": "Executed Gas",
                                "value": 13966
                            }
                        ],
                        "depth": -1,
                        "name": "Actual Gas Used",
                        "value": 37158
                    },
                    {
                        "children": [],
                        "depth": -1,
                        "name": "Refunded Gas",
                        "value": 0
                    }
                ],
                "depth": -2,
                "name": "Total Gas",
                "value": 37158
            }
        ],
        "isConfirmed": true,
        "mainTrace": [
            {
                "children": [
                    {
                        "children": [
                            {
                                "children": [],
                                "depth": 1,
                                "id": 1,
                                "order": 1
                            }
                        ],
                        "depth": 0,
                        "id": 0,
                        "order": 0
                    }
                ],
                "depth": -1,
                "id": -1,
                "order": -1
            }
        ],
        "mainTraceNodeCount": 2,
        "parentIdMap": {
            "0": -1,
            "1": 0
        },
        "tidyTrace": [
            {
                "children": [
                    {
                        "children": [
                            {
                                "children": [],
                                "depth": 1,
                                "id": 1,
                                "order": 1
                            }
                        ],
                        "depth": 0,
                        "id": 0,
                        "order": 0
                    }
                ],
                "depth": -1,
                "id": -1,
                "order": -1
            }
        ],
        "tidyTraceNodeCount": 2
    },
    "state_change": {
        "stateChanges": [
            {
                "address": "0xc5807256e2e2fe85ca94c3617c4bc5ff2bd9cfb6",
                "erc": "ERC-20",
                "slots": [
                    {
                        "current": "0x0000000000000000000000000000000000000000000000007ce66c50e2840000",
                        "key": "0x7af16547a5038c326c54e6a610d15f15a6e57e5a8e05e1aebe2c49a1631d7183",
                        "prev": "0x00000000000000000000000000000000000000000000000098a7d9b8314c0000"
                    },
                    {
                        "current": "0x0000000000000000000000000000000000000000000023559b6ddf3bfe780000",
                        "key": "0xc4e43b808d21c6ac1b308843fbc4055cabe945f4e3e8e604b9af4904b3650744",
                        "prev": "0x0000000000000000000000000000000000000000000023557fac71d4afb00000"
                    }
                ],
                "storageVariables": [
                    {
                        "name": "balances",
                        "type": "mapping(address => uint256)",
                        "value": {
                            "pairs": [
                                {
                                    "key": "0x75c2d0d2bf024ed70e33686ddc7f4e7478f5ab33",
                                    "value": {
                                        "current": "9000000000000000000",
                                        "prev": "11000000000000000000",
                                        "typeTag": 1
                                    }
                                },
                                {
                                    "key": "0x92cace836fa29f8b5ac5ef02c7ad241614d78ee2",
                                    "value": {
                                        "current": "166862000000000000000000",
                                        "prev": "166860000000000000000000",
                                        "typeTag": 1
                                    }
                                }
                            ],
                            "typeTag": 4
                        }
                    }
                ]
            }
        ]
    }
}