{
    "balance_change": {
        "balanceChanges": [
            {
                "account": "0x8f40a90b02cfe50244393fe0edef800567f28c37",
                "assets": [
                    {
                        "address": "0xeeeeeeeeeeeeeeeeeeeeeeeeeeeeeeeeeeeeeeee",
                        "amount": "5",
                        "iconUrl": "https://assets.blocksec.com/image/1663669189317-3.png",
                        "isERC1155": false,
                        "isERC721": false,
                        "sign": false,
                        "value": "928.46569500000001085"
                    },
                    {
                        "address": "0xdac17f958d2ee523a2206206994597c13d831ec7",
                        "amount": "1,277.648988",
                        "iconUrl": "https://assets.blocksec.com/icon/fcea71f3193ce895be44bfdf941f7e4c9381dd587f273c2d1a27f1263d84e4ea.png",
                        "isERC1155": false,
                        "isERC721": false,
                        "sign": true,
                        "value": ""
                    }
                ]
            },
            {
                "account": "0x41f8d14c9475444f30a80431c68cf24dc9a8369a",
                "assets": [
                    {
                        "address": "0xdac17f958d2ee523a2206206994597c13d831ec7",
                        "amount": "3.84448",
                        "iconUrl": "https://assets.blocksec.com/icon/fcea71f3193ce895be44bfdf941f7e4c9381dd587f273c2d1a27f1263d84e4ea.png",
                        "isERC1155": false,
                        "isERC721": false,
                        "sign": true,
                        "value": ""
                    }
                ]
            },
            {
                "account": "0xc02aaa39b223fe8d0a0e5c4f27ead9083c756cc2",
                "assets": [
                    {
                        "address": "0xeeeeeeeeeeeeeeeeeeeeeeeeeeeeeeeeeeeeeeee",
                        "amount": "5",
                        "iconUrl": "https://assets.blocksec.com/image/1663669189317-3.png",
                        "isERC1155": false,
                        "isERC721": false,
                        "sign": true,
                        "value": "928.46569500000001085"
                    },
                    {
                        "address": "0xc02aaa39b223fe8d0a0e5c4f27ead9083c756cc2",
                        "amount": "5",
                        "iconUrl": "https://assets.blocksec.com/icon/f1cb2d02c471d545bbc7722daf3277fd852d98e63d118771af7047bd8256c516.png",
                        "isERC1155": false,
                        "isERC721": false,
                        "sign": false,
                        "value": "928.46569500000001085"
                    }
                ]
            },
            {
                "account": "0xd0e6cbd9da5d6214818a3ca2c4be074174faea81",
                "assets": [
                    {
                        "address": "0xdac17f958d2ee523a2206206994597c13d831ec7",
                        "amount": "1,281.493468",
                        "iconUrl": "https://assets.blocksec.com/icon/fcea71f3193ce895be44bfdf941f7e4c9381dd587f273c2d1a27f1263d84e4ea.png",
                        "isERC1155": false,
                        "isERC721": false,
                        "sign": false,
                        "value": ""
                    },
                    {
                        "address": "0xc02aaa39b223fe8d0a0e5c4f27ead9083c756cc2",
                        "amount": "5",
                        "iconUrl": "https://assets.blocksec.com/icon/f1cb2d02c471d545bbc7722daf3277fd852d98e63d118771af7047bd8256c516.png",
                        "isERC1155": false,
                        "isERC721": false,
                        "sign": true,
                        "value": "928.46569500000001085"
                    }
                ]
            }
        ]
    },
    "profile": {
        "basic_info": {
            "baseFee": "",
            "blockNumber": 9497768,
            "callData": "0x288b8133294f266e5b24d7c0a804d30fdc23794455d18129c56559b264a5b9cc84a1b94b000000000000000000000000000000000000000000000000000000000000006000000000000000000000000000000000000000000000000000000000000003c0000000000000000000000000000000000000000000000000000000000000032464a3bc1500000000000000000000000000000000000000000000000000000000000000600000000000000000000000000000000000000000000000004563918244f4000000000000000000000000000000000000000000000000000000000000000002a0000000000000000000000000d0e6cbd9da5d6214818a3ca2c4be074174faea8100000000000000000000000041f8d14c9475444f30a80431c68cf24dc9a8369a000000000000000000000000b9e29984fe50602e7a619662ebed4f90d93824c7000000000000000000000000dc6c91b569c98f9f6f74d90f9beff99fdaf4248b000000000000000000000000000000000000000000000000000000004c6209dc0000000000000000000000000000000000000000000000004563918244f4000000000000000000000000000000000000000000000000000000000000000000000000000000000000000000000000000000000000000000000000000000000000000000000000000000000000000000000000000000000000000000005e49f75f6f6019f3469e750671f36cb5ab7059678113f4cdd10818421037634f70e81b24000000000000000000000000000000000000000000000000000000000000018000000000000000000000000000000000000000000000000000000000000001e00000000000000000000000000000000000000000000000000000000000000024f47261b0000000000000000000000000dac17f958d2ee523a2206206994597c13d831ec7000000000000000000000000000000000000000000000000000000000000000000000000000000000000000000000000000000000000000000000024f47261b0000000000000000000000000c02aaa39b223fe8d0a0e5c4f27ead9083c756cc20000000000000000000000000000000000000000000000000000000000000000000000000000000000000000000000000000000000000000000000581c84039783916115f04c9c661e22814672f2d2686f8d3cf5708184c1ff223402e965ebd95492e1f301da04674c8bde0b2f017af0b47225ac53c9c1b347d26f87c68f40a90b02cfe50244393fe0edef800567f28c37001e0400000000000000000000000000000000000000000000000000000000000000000000000000000000000000000000000000000000000000000000000000000000000000561cf3d58e25a0c4098dd992daa46ab8b56efb7368875c8eaa366d57ca2f1149c4873d815eee574c752a8f97914fe21f112054fe89b068a703dc4ed59b7e5ba984978f40a90b02cfe50244393fe0edef800567f28c370400000000000000000000",
            "debugEnable": true,
            "errorInfo": "",
            "eventCount": 6,
            "feeRecipient": "0x99c85bb64564d9ef9a99621301f22c9993cb89e3",
            "formatValue": "5",
            "gasLimit": 343339,
            "gasPrice": "14.4",
            "gasUsed": 270739,
            "intTxnCount": 16,
            "internalRevert": false,
            "internalRevertMessage": "",
            "isContractCreation": false,
            "isFlashloan": false,
            "maxFee": "",
            "nonce": 8,
            "overwritedBlockNumber": -1,
            "priorityFee": "",
            "receiver": "0xdc6c91b569c98f9f6f74d90f9beff99fdaf4248b",
            "revertMessage": "",
            "sender": "0x8f40a90b02cfe50244393fe0edef800567f28c37",
            "simulationEnable": true,
            "sourceTxnHash": "0x7368a94de71cce88e977358ead46a3c8a8af210abd030624cf2daeab573f1ee4",
            "status": true,
            "timestamp": "2020-02-17T01:46:12Z",
            "transactionFee": "0.0038986416",
            "txnHash": "0x7368a94de71cce88e977358ead46a3c8a8af210abd030624cf2daeab573f1ee4",
            "txnIndex": 51,
            "type": 0,
            "value": "5000000000000000000"
        },
        "fund_flow": [
            {
                "amount": "5",
                "from": "0x8f40a90b02cfe50244393fe0edef800567f28c37",
                "id": 1,
                "isERC1155": false,
                "isERC721": false,
                "isReverted": false,
                "order": 1,
                "to": "0xdc6c91b569c98f9f6f74d90f9beff99fdaf4248b",
                "token": "0xeeeeeeeeeeeeeeeeeeeeeeeeeeeeeeeeeeeeeeee"
            },
            {
                "amount": "5",
                "from": "0xdc6c91b569c98f9f6f74d90f9beff99fdaf4248b",
                "id": 2,
                "isERC1155": false,
                "isERC721": false,
                "isReverted": false,
                "order": 2,
                "to": "0x41f8d14c9475444f30a80431c68cf24dc9a8369a",
                "token": "0xeeeeeeeeeeeeeeeeeeeeeeeeeeeeeeeeeeeeeeee"
            },
            {
                "amount": "5",
                "from": "0x41f8d14c9475444f30a80431c68cf24dc9a8369a",
                "id": 3,
                "isERC1155": false,
                "isERC721": false,
                "isReverted": false,
                "order": 3,
                "to": "0xc02aaa39b223fe8d0a0e5c4f27ead9083c756cc2",
                "token": "0xeeeeeeeeeeeeeeeeeeeeeeeeeeeeeeeeeeeeeeee"
            },
            {
                "amount": "5",
                "from": "0xc02aaa39b223fe8d0a0e5c4f27ead9083c756cc2",
                "id": 4,
                "isERC1155": false,
                "isERC721": false,
                "isReverted": false,
                "order": 4,
                "to": "0x41f8d14c9475444f30a80431c68cf24dc9a8369a",
                "token": "0xc02aaa39b223fe8d0a0e5c4f27ead9083c756cc2"
            },
            {
                "amount": "1,281.493468",
                "from": "0xd0e6cbd9da5d6214818a3ca2c4be074174faea81",
                "id": 5,
                "isERC1155": false,
                "isERC721": false,
                "isReverted": false,
                "order": 5,
                "to": "0x41f8d14c9475444f30a80431c68cf24dc9a8369a",
                "token": "0xdac17f958d2ee523a2206206994597c13d831ec7"
            },
            {
                "amount": "5",
                "from": "0x41f8d14c9475444f30a80431c68cf24dc9a8369a",
                "id": 6,
                "isERC1155": false,
                "isERC721": false,
                "isReverted": false,
                "order": 6,
                "to": "0xd0e6cbd9da5d6214818a3ca2c4be074174faea81",
                "token": "0xc02aaa39b223fe8d0a0e5c4f27ead9083c756cc2"
            },
            {
                "amount": "1,277.648988",
                "from": "0x41f8d14c9475444f30a80431c68cf24dc9a8369a",
                "id": 7,
                "isERC1155": false,
                "isERC721": false,
                "isReverted": false,
                "order": 7,
                "to": "0x8f40a90b02cfe50244393fe0edef800567f28c37",
                "token": "0xdac17f958d2ee523a2206206994597c13d831ec7"
            }
        ],
        "token_infos": [
            {
                "address": "0xc02aaa39b223fe8d0a0e5c4f27ead9083c756cc2",
                "decimals": 18
            },
            {
                "address": "0xdac17f958d2ee523a2206206994597c13d831ec7",
                "decimals": 6
            },
            {
                "address": "0xeeeeeeeeeeeeeeeeeeeeeeeeeeeeeeeeeeeeeeee",
                "decimals": 18
            }
        ]
    },
    "address_label": {
        "labels": [
            {
                "address": "0x080bf510fcbf18b91105470639e9561022937712",
                "label": "0x: Exchange v2.1"
            },
            {
                "address": "0x95e6f48254609a6ee006f7d493c8e5fb97094cef",
                "label": "0x: ERC20 Proxy V3"
            },
            {
                "address": "0xdac17f958d2ee523a2206206994597c13d831ec7",
                "label": "Tether: USDT Stablecoin"
            },
            {
                "address": "0x0000000000000000000000000000000000000002",
                "label": "Precompiled"
            },
            {
                "address": "0x0000000000000000000000000000000000000004",
                "label": "Precompiled"
            },
            {
                "address": "0xeeeeeeeeeeeeeeeeeeeeeeeeeeeeeeeeeeeeeeee",
                "label": "Ether"
            },
            {
                "address": "0xdc6c91b569c98f9f6f74d90f9beff99fdaf4248b",
                "label": "Tokenlon: DEX 1"
            },
            {
                "address": "0xb9e29984fe50602e7a619662ebed4f90d93824c7",
                "label": "Tokenlon: Fee Recipient"
            },
            {
                "address": "0x0000000000000000000000000000000000000001",
                "label": "Precompiled"
            },
            {
                "address": "0x0000000000000000000000000000000000000003",
                "label": "Precompiled"
            },
            {
                "address": "0xc02aaa39b223fe8d0a0e5c4f27ead9083c756cc2",
                "label": "Wrapped Ether (WETH)"
            }
        ]
    },
    "trace": {
        "accountLabels": null,
        "dataMap": {
            "-1": {
                "invocation": {
                    "address": "0x8f40a90b02cfe50244393fe0edef800567f28c37",
                    "callData": "",
                    "decodedMethod": null,
                    "errorInfo": "",
                    "fromAddress": "",
                    "gasUsed": 0,
                    "id": -1,
                    "methodDecoded": false,
                    "operation": "",
                    "output": "",
                    "revert": false,
                    "revertMessage": "",
                    "selector": "",
                    "status": false,
                    "value": ""
                },
                "nodeType": 0
            },
            "0": {
                "invocation": {
                    "address": "0xdc6c91b569c98f9f6f74d90f9beff99fdaf4248b",
                    "callData": "0x294f266e5b24d7c0a804d30fdc23794455d18129c56559b264a5b9cc84a1b94b000000000000000000000000000000000000000000000000000000000000006000000000000000000000000000000000000000000000000000000000000003c0000000000000000000000000000000000000000000000000000000000000032464a3bc1500000000000000000000000000000000000000000000000000000000000000600000000000000000000000000000000000000000000000004563918244f4000000000000000000000000000000000000000000000000000000000000000002a0000000000000000000000000d0e6cbd9da5d6214818a3ca2c4be074174faea8100000000000000000000000041f8d14c9475444f30a80431c68cf24dc9a8369a000000000000000000000000b9e29984fe50602e7a619662ebed4f90d93824c7000000000000000000000000dc6c91b569c98f9f6f74d90f9beff99fdaf4248b000000000000000000000000000000000000000000000000000000004c6209dc0000000000000000000000000000000000000000000000004563918244f4000000000000000000000000000000000000000000000000000000000000000000000000000000000000000000000000000000000000000000000000000000000000000000000000000000000000000000000000000000000000000000005e49f75f6f6019f3469e750671f36cb5ab7059678113f4cdd10818421037634f70e81b24000000000000000000000000000000000000000000000000000000000000018000000000000000000000000000000000000000000000000000000000000001e00000000000000000000000000000000000000000000000000000000000000024f47261b0000000000000000000000000dac17f958d2ee523a2206206994597c13d831ec7000000000000000000000000000000000000000000000000000000000000000000000000000000000000000000000000000000000000000000000024f47261b0000000000000000000000000c02aaa39b223fe8d0a0e5c4f27ead9083c756cc20000000000000000000000000000000000000000000000000000000000000000000000000000000000000000000000000000000000000000000000581c84039783916115f04c9c661e22814672f2d2686f8d3cf5708184c1ff223402e965ebd95492e1f301da04674c8bde0b2f017af0b47225ac53c9c1b347d26f87c68f40a90b02cfe50244393fe0edef800567f28c37001e0400000000000000000000000000000000000000000000000000000000000000000000000000000000000000000000000000000000000000000000000000000000000000561cf3d58e25a0c4098dd992daa46ab8b56efb7368875c8eaa366d57ca2f1149c4873d815eee574c752a8f97914fe21f112054fe89b068a703dc4ed59b7e5ba984978f40a90b02cfe50244393fe0edef800567f28c370400000000000000000000",
                    "decodedMethod": {
                        "callParams": [
                            {
                                "name": "userSalt",
                                "type": "uint256",
                                "value": "18,684,672,951,585,300,497,195,124,830,877,134,233,181,121,562,294,648,456,777,441,543,891,424,753,995"
                            },
                            {
                                "name": "data",
                                "type": "bytes",
                                "value": "0x64a3bc1500000000000000000000000000000000000000000000000000000000000000600000000000000000000000000000000000000000000000004563918244f4000000000000000000000000000000000000000000000000000000000000000002a0000000000000000000000000d0e6cbd9da5d6214818a3ca2c4be074174faea8100000000000000000000000041f8d14c9475444f30a80431c68cf24dc9a8369a000000000000000000000000b9e29984fe50602e7a619662ebed4f90d93824c7000000000000000000000000dc6c91b569c98f9f6f74d90f9beff99fdaf4248b000000000000000000000000000000000000000000000000000000004c6209dc0000000000000000000000000000000000000000000000004563918244f4000000000000000000000000000000000000000000000000000000000000000000000000000000000000000000000000000000000000000000000000000000000000000000000000000000000000000000000000000000000000000000005e49f75f6f6019f3469e750671f36cb5ab7059678113f4cdd10818421037634f70e81b24000000000000000000000000000000000000000000000000000000000000018000000000000000000000000000000000000000000000000000000000000001e00000000000000000000000000000000000000000000000000000000000000024f47261b0000000000000000000000000dac17f958d2ee523a2206206994597c13d831ec7000000000000000000000000000000000000000000000000000000000000000000000000000000000000000000000000000000000000000000000024f47261b0000000000000000000000000c02aaa39b223fe8d0a0e5c4f27ead9083c756cc20000000000000000000000000000000000000000000000000000000000000000000000000000000000000000000000000000000000000000000000581c84039783916115f04c9c661e22814672f2d2686f8d3cf5708184c1ff223402e965ebd95492e1f301da04674c8bde0b2f017af0b47225ac53c9c1b347d26f87c68f40a90b02cfe50244393fe0edef800567f28c37001e040000000000000000"
                            },
                            {
                                "name": "userSignature",
                                "type": "bytes",
                                "value": "0x1cf3d58e25a0c4098dd992daa46ab8b56efb7368875c8eaa366d57ca2f1149c4873d815eee574c752a8f97914fe21f112054fe89b068a703dc4ed59b7e5ba984978f40a90b02cfe50244393fe0edef800567f28c3704"
                            }
                        ],
                        "constructorArguments": "",
                        "name": "fillOrderWithETH",
                        "returnParams": [],
                        "signature": "fillOrderWithETH(uint256,bytes,bytes)"
                    },
                    "errorInfo": "",
                    "fromAddress": "0x8f40a90b02cfe50244393fe0edef800567f28c37",
                    "gasUsed": 270739,
                    "id": 0,
                    "methodDecoded": true,
                    "operation": "CALL",
                    "output": "",
                    "revert": false,
                    "revertMessage": "",
                    "selector": "0x288b8133",
                    "status": true,
                    "value": "5"
                },
                "nodeType": 0
            },
            "1": {
                "invocation": {
                    "address": "0xdc6c91b569c98f9f6f74d90f9beff99fdaf4248b",
                    "callData": "0x000000000000000000000000d0e6cbd9da5d6214818a3ca2c4be074174faea81",
                    "decodedMethod": {
                        "callParams": [
                            {
                                "name": "",
                                "type": "address",
                                "value": "0xd0e6cbd9da5d6214818a3ca2c4be074174faea81"
                            }
                        ],
                        "constructorArguments": "",
                        "name": "isMarketMakerProxy",
                        "returnParams": [
                            {
                                "name": "",
                                "type": "bool",
                                "value": true
                            }
                        ],
                        "signature": "isMarketMakerProxy(address)"
                    },
                    "errorInfo": "",
                    "fromAddress": "0xdc6c91b569c98f9f6f74d90f9beff99fdaf4248b",
                    "gasUsed": 1566,
                    "id": 1,
                    "methodDecoded": true,
                    "operation": "STATICCALL",
                    "output": "0x0000000000000000000000000000000000000000000000000000000000000001",
                    "revert": false,
                    "revertMessage": "",
                    "selector": "0x5457a155",
                    "status": true,
                    "value": "0"
                },
                "nodeType": 0
            },
            "10": {
                "invocation": {
                    "address": "0xd0e6cbd9da5d6214818a3ca2c4be074174faea81",
                    "callData": "0xd0280d66aac9b4f1eae2b372a4e1f04a42a3c15b81566e326e7dd1fdf3053d5d000000000000000000000000000000000000000000000000000000000000004000000000000000000000000000000000000000000000000000000000000000571c84039783916115f04c9c661e22814672f2d2686f8d3cf5708184c1ff223402e965ebd95492e1f301da04674c8bde0b2f017af0b47225ac53c9c1b347d26f87c68f40a90b02cfe50244393fe0edef800567f28c37001e000000000000000000",
                    "decodedMethod": {
                        "callParams": [
                            {
                                "name": "hash",
                                "type": "bytes32",
                                "value": "0xd0280d66aac9b4f1eae2b372a4e1f04a42a3c15b81566e326e7dd1fdf3053d5d"
                            },
                            {
                                "name": "signature",
                                "type": "bytes",
                                "value": "0x1c84039783916115f04c9c661e22814672f2d2686f8d3cf5708184c1ff223402e965ebd95492e1f301da04674c8bde0b2f017af0b47225ac53c9c1b347d26f87c68f40a90b02cfe50244393fe0edef800567f28c37001e"
                            }
                        ],
                        "constructorArguments": "",
                        "name": "isValidSignature",
                        "returnParams": [
                            {
                                "name": "magicValue",
                                "type": "bytes4",
                                "value": "0xb0671381"
                            }
                        ],
                        "signature": "isValidSignature(bytes32,bytes)"
                    },
                    "errorInfo": "",
                    "fromAddress": "0x080bf510fcbf18b91105470639e9561022937712",
                    "gasUsed": 6823,
                    "id": 10,
                    "methodDecoded": true,
                    "operation": "STATICCALL",
                    "output": "0xb067138131d606f18b51e6ee32605a2acac5aad86d6a80011ed9cb2bab20c1c7",
                    "revert": false,
                    "revertMessage": "",
                    "selector": "0x1626ba7e",
                    "status": true,
                    "value": "0"
                },
                "nodeType": 0
            },
            "11": {
                "invocation": {
                    "address": "0x0000000000000000000000000000000000000001",
                    "callData": "0xccf5ce877b10b609cd044c3a0e97e28a1146593dc2580d034d731d94000000000000000000000000000000000000000000000000000000000000001c84039783916115f04c9c661e22814672f2d2686f8d3cf5708184c1ff223402e965ebd95492e1f301da04674c8bde0b2f017af0b47225ac53c9c1b347d26f87c6",
                    "decodedMethod": {
                        "callParams": [
                            {
                                "name": "hash",
                                "type": "bytes32",
                                "value": "0x18f2c40eccf5ce877b10b609cd044c3a0e97e28a1146593dc2580d034d731d94"
                            },
                            {
                                "name": "v",
                                "type": "uint256",
                                "value": "28"
                            },
                            {
                                "name": "r",
                                "type": "bytes32",
                                "value": "0x84039783916115f04c9c661e22814672f2d2686f8d3cf5708184c1ff223402e9"
                            },
                            {
                                "name": "s",
                                "type": "bytes32",
                                "value": "0x65ebd95492e1f301da04674c8bde0b2f017af0b47225ac53c9c1b347d26f87c6"
                            }
                        ],
                        "constructorArguments": "",
                        "name": "ecrecover",
                        "returnParams": [
                            {
                                "name": "",
                                "type": "address",
                                "value": "0xc89871bde27ec6d60e74a5ba142ad92e207eba15"
                            }
                        ],
                        "signature": "ecrecover(bytes32,uint256,bytes32,bytes32)"
                    },
                    "errorInfo": "",
                    "fromAddress": "0xd0e6cbd9da5d6214818a3ca2c4be074174faea81",
                    "gasUsed": 3000,
                    "id": 11,
                    "methodDecoded": true,
                    "operation": "STATICCALL",
                    "output": "0x000000000000000000000000c89871bde27ec6d60e74a5ba142ad92e207eba15",
                    "revert": false,
                    "revertMessage": "",
                    "selector": "0x18f2c40e",
                    "status": true,
                    "value": "0"
                },
                "nodeType": 0
            },
            "12": {
                "event": {
                    "contract": "0x080bf510fcbf18b91105470639e9561022937712",
                    "decodedLog": {
                        "name": "Fill",
                        "params": [
                            {
                                "name": "makerAddress",
                                "type": "address",
                                "value": "0xd0e6cbd9da5d6214818a3ca2c4be074174faea81"
                            },
                            {
                                "name": "feeRecipientAddress",
                                "type": "address",
                                "value": "0xb9e29984fe50602e7a619662ebed4f90d93824c7"
                            },
                            {
                                "name": "orderHash",
                                "type": "bytes32",
                                "value": "0xd0280d66aac9b4f1eae2b372a4e1f04a42a3c15b81566e326e7dd1fdf3053d5d"
                            },
                            {
                                "name": "takerAddress",
                                "type": "address",
                                "value": "0x41f8d14c9475444f30a80431c68cf24dc9a8369a"
                            },
                            {
                                "name": "senderAddress",
                                "type": "address",
                                "value": "0xdc6c91b569c98f9f6f74d90f9beff99fdaf4248b"
                            },
                            {
                                "name": "makerAssetFilledAmount",
                                "type": "uint256",
                                "value": "1,281,493,468"
                            },
                            {
                                "name": "takerAssetFilledAmount",
                                "type": "uint256",
                                "value": "5,000,000,000,000,000,000"
                            },
                            {
                                "name": "makerFeePaid",
                                "type": "uint256",
                                "value": "0"
                            },
                            {
                                "name": "takerFeePaid",
                                "type": "uint256",
                                "value": "0"
                            },
                            {
                                "name": "makerAssetData",
                                "type": "bytes",
                                "value": "0xf47261b0000000000000000000000000dac17f958d2ee523a2206206994597c13d831ec7"
                            },
                            {
                                "name": "takerAssetData",
                                "type": "bytes",
                                "value": "0xf47261b0000000000000000000000000c02aaa39b223fe8d0a0e5c4f27ead9083c756cc2"
                            }
                        ],
                        "signature": "Fill(address,address,address,address,uint256,uint256,uint256,uint256,bytes32,bytes,bytes)"
                    },
                    "id": 12,
                    "logData": "0x00000000000000000000000041f8d14c9475444f30a80431c68cf24dc9a8369a000000000000000000000000dc6c91b569c98f9f6f74d90f9beff99fdaf4248b000000000000000000000000000000000000000000000000000000004c6209dc0000000000000000000000000000000000000000000000004563918244f4000000000000000000000000000000000000000000000000000000000000000000000000000000000000000000000000000000000000000000000000000000000000000000000000000000000000000000000000000000000000000000000000010000000000000000000000000000000000000000000000000000000000000001600000000000000000000000000000000000000000000000000000000000000024f47261b0000000000000000000000000dac17f958d2ee523a2206206994597c13d831ec7000000000000000000000000000000000000000000000000000000000000000000000000000000000000000000000000000000000000000000000024f47261b0000000000000000000000000c02aaa39b223fe8d0a0e5c4f27ead9083c756cc200000000000000000000000000000000000000000000000000000000",
                    "logDecoded": true,
                    "operation": "EVENT",
                    "revert": false,
                    "status": true,
                    "topics": [
                        "0x0bcc4c97732e47d9946f229edb95f5b6323f601300e4690de719993f3c371129",
                        "0x000000000000000000000000d0e6cbd9da5d6214818a3ca2c4be074174faea81",
                        "0x000000000000000000000000b9e29984fe50602e7a619662ebed4f90d93824c7",
                        "0xd0280d66aac9b4f1eae2b372a4e1f04a42a3c15b81566e326e7dd1fdf3053d5d"
                    ]
                },
                "nodeType": 1
            },
            "13": {
                "invocation": {
                    "address": "0x95e6f48254609a6ee006f7d493c8e5fb97094cef",
                    "callData": "0x0000000000000000000000000000000000000000000000000000000000000080000000000000000000000000d0e6cbd9da5d6214818a3ca2c4be074174faea8100000000000000000000000041f8d14c9475444f30a80431c68cf24dc9a8369a000000000000000000000000000000000000000000000000000000004c6209dc0000000000000000000000000000000000000000000000000000000000000024f47261b0000000000000000000000000dac17f958d2ee523a2206206994597c13d831ec700000000000000000000000000000000000000000000000000000000",
                    "decodedMethod": {
                        "callParams": [
                            {
                                "name": "assetData",
                                "type": "bytes",
                                "value": "0xf47261b0000000000000000000000000dac17f958d2ee523a2206206994597c13d831ec7"
                            },
                            {
                                "name": "from",
                                "type": "address",
                                "value": "0xd0e6cbd9da5d6214818a3ca2c4be074174faea81"
                            },
                            {
                                "name": "to",
                                "type": "address",
                                "value": "0x41f8d14c9475444f30a80431c68cf24dc9a8369a"
                            },
                            {
                                "name": "amount",
                                "type": "uint256",
                                "value": "1,281,493,468"
                            }
                        ],
                        "constructorArguments": "",
                        "name": "transferFrom",
                        "returnParams": [],
                        "signature": "transferFrom(bytes,address,address,uint256)"
                    },
                    "errorInfo": "",
                    "fromAddress": "0x080bf510fcbf18b91105470639e9561022937712",
                    "gasUsed": 22384,
                    "id": 13,
                    "methodDecoded": true,
                    "operation": "CALL",
                    "output": "",
                    "revert": false,
                    "revertMessage": "",
                    "selector": "0xa85e59e4",
                    "status": true,
                    "value": "0"
                },
                "nodeType": 0
            },
            "14": {
                "invocation": {
                    "address": "0xdac17f958d2ee523a2206206994597c13d831ec7",
                    "callData": "0x000000000000000000000000d0e6cbd9da5d6214818a3ca2c4be074174faea8100000000000000000000000041f8d14c9475444f30a80431c68cf24dc9a8369a000000000000000000000000000000000000000000000000000000004c6209dc",
                    "decodedMethod": {
                        "callParams": [
                            {
                                "name": "_from",
                                "type": "address",
                                "value": "0xd0e6cbd9da5d6214818a3ca2c4be074174faea81"
                            },
                            {
                                "name": "_to",
                                "type": "address",
                                "value": "0x41f8d14c9475444f30a80431c68cf24dc9a8369a"
                            },
                            {
                                "decimalAvailable": true,
                                "name": "_value",
                                "type": "uint256",
                                "value": "1,281,493,468"
                            }
                        ],
                        "constructorArguments": "",
                        "name": "transferFrom",
                        "returnParams": [],
                        "signature": "transferFrom(address,address,uint256)"
                    },
                    "errorInfo": "",
                    "fromAddress": "0x95e6f48254609a6ee006f7d493c8e5fb97094cef",
                    "gasUsed": 20330,
                    "id": 14,
                    "methodDecoded": true,
                    "operation": "CALL",
                    "output": "",
                    "revert": false,
                    "revertMessage": "",
                    "selector": "0x23b872dd",
                    "status": true,
                    "value": "0"
                },
                "nodeType": 0
            },
            "15": {
                "event": {
                    "contract": "0xdac17f958d2ee523a2206206994597c13d831ec7",
                    "decodedLog": {
                        "name": "Transfer",
                        "params": [
                            {
                                "name": "from",
                                "type": "address",
                                "value": "0xd0e6cbd9da5d6214818a3ca2c4be074174faea81"
                            },
                            {
                                "name": "to",
                                "type": "address",
                                "value": "0x41f8d14c9475444f30a80431c68cf24dc9a8369a"
                            },
                            {
                                "decimalAvailable": true,
                                "name": "value",
                                "type": "uint256",
                                "value": "1,281,493,468"
                            }
                        ],
                        "signature": "Transfer(address,address,uint256)"
                    },
                    "id": 15,
                    "logData": "0x000000000000000000000000000000000000000000000000000000004c6209dc",
                    "logDecoded": true,
                    "operation": "EVENT",
                    "revert": false,
                    "status": true,
                    "topics": [
                        "0xddf252ad1be2c89b69c2b068fc378daa952ba7f163c4a11628f55a4df523b3ef",
                        "0x000000000000000000000000d0e6cbd9da5d6214818a3ca2c4be074174faea81",
                        "0x00000000000000000000000041f8d14c9475444f30a80431c68cf24dc9a8369a"
                    ]
                },
                "nodeType": 1
            },
            "16": {
                "invocation": {
                    "address": "0x95e6f48254609a6ee006f7d493c8e5fb97094cef",
                    "callData": "0x000000000000000000000000000000000000000000000000000000000000008000000000000000000000000041f8d14c9475444f30a80431c68cf24dc9a8369a000000000000000000000000d0e6cbd9da5d6214818a3ca2c4be074174faea810000000000000000000000000000000000000000000000004563918244f400000000000000000000000000000000000000000000000000000000000000000024f47261b0000000000000000000000000c02aaa39b223fe8d0a0e5c4f27ead9083c756cc200000000000000000000000000000000000000000000000000000000",
                    "decodedMethod": {
                        "callParams": [
                            {
                                "name": "assetData",
                                "type": "bytes",
                                "value": "0xf47261b0000000000000000000000000c02aaa39b223fe8d0a0e5c4f27ead9083c756cc2"
                            },
                            {
                                "name": "from",
                                "type": "address",
                                "value": "0x41f8d14c9475444f30a80431c68cf24dc9a8369a"
                            },
                            {
                                "name": "to",
                                "type": "address",
                                "value": "0xd0e6cbd9da5d6214818a3ca2c4be074174faea81"
                            },
                            {
                                "name": "amount",
                                "type": "uint256",
                                "value": "5,000,000,000,000,000,000"
                            }
                        ],
                        "constructorArguments": "",
                        "name": "transferFrom",
                        "returnParams": [],
                        "signature": "transferFrom(bytes,address,address,uint256)"
                    },
                    "errorInfo": "",
                    "fromAddress": "0x080bf510fcbf18b91105470639e9561022937712",
                    "gasUsed": 13879,
                    "id": 16,
                    "methodDecoded": true,
                    "operation": "CALL",
                    "output": "",
                    "revert": false,
                    "revertMessage": "",
                    "selector": "0xa85e59e4",
                    "status": true,
                    "value": "0"
                },
                "nodeType": 0
            },
            "17": {
                "invocation": {
                    "address": "0xc02aaa39b223fe8d0a0e5c4f27ead9083c756cc2",
                    "callData": "0x00000000000000000000000041f8d14c9475444f30a80431c68cf24dc9a8369a000000000000000000000000d0e6cbd9da5d6214818a3ca2c4be074174faea810000000000000000000000000000000000000000000000004563918244f40000",
                    "decodedMethod": {
                        "callParams": [
                            {
                                "name": "src",
                                "type": "address",
                                "value": "0x41f8d14c9475444f30a80431c68cf24dc9a8369a"
                            },
                            {
                                "name": "dst",
                                "type": "address",
                                "value": "0xd0e6cbd9da5d6214818a3ca2c4be074174faea81"
                            },
                            {
                                "decimalAvailable": true,
                                "name": "wad",
                                "type": "uint256",
                                "value": "5,000,000,000,000,000,000"
                            }
                        ],
                        "constructorArguments": "",
                        "name": "transferFrom",
                        "returnParams": [
                            {
                                "name": "",
                                "type": "bool",
                                "value": true
                            }
                        ],
                        "signature": "transferFrom(address,address,uint256)"
                    },
                    "errorInfo": "",
                    "fromAddress": "0x95e6f48254609a6ee006f7d493c8e5fb97094cef",
                    "gasUsed": 11825,
                    "id": 17,
                    "methodDecoded": true,
                    "operation": "CALL",
                    "output": "0x0000000000000000000000000000000000000000000000000000000000000001",
                    "revert": false,
                    "revertMessage": "",
                    "selector": "0x23b872dd",
                    "status": true,
                    "value": "0"
                },
                "nodeType": 0
            },
            "18": {
                "event": {
                    "contract": "0xc02aaa39b223fe8d0a0e5c4f27ead9083c756cc2",
                    "decodedLog": {
                        "name": "Transfer",
                        "params": [
                            {
                                "name": "src",
                                "type": "address",
                                "value": "0x41f8d14c9475444f30a80431c68cf24dc9a8369a"
                            },
                            {
                                "name": "dst",
                                "type": "address",
                                "value": "0xd0e6cbd9da5d6214818a3ca2c4be074174faea81"
                            },
                            {
                                "decimalAvailable": true,
                                "name": "wad",
                                "type": "uint256",
                                "value": "5,000,000,000,000,000,000"
                            }
                        ],
                        "signature": "Transfer(address,address,uint256)"
                    },
                    "id": 18,
                    "logData": "0x0000000000000000000000000000000000000000000000004563918244f40000",
                    "logDecoded": true,
                    "operation": "EVENT",
                    "revert": false,
                    "status": true,
                    "topics": [
                        "0xddf252ad1be2c89b69c2b068fc378daa952ba7f163c4a11628f55a4df523b3ef",
                        "0x00000000000000000000000041f8d14c9475444f30a80431c68cf24dc9a8369a",
                        "0x000000000000000000000000d0e6cbd9da5d6214818a3ca2c4be074174faea81"
                    ]
                },
                "nodeType": 1
            },
            "19": {
                "invocation": {
                    "address": "0x41f8d14c9475444f30a80431c68cf24dc9a8369a",
                    "callData": "0x000000000000000000000000dac17f958d2ee523a2206206994597c13d831ec70000000000000000000000008f40a90b02cfe50244393fe0edef800567f28c37000000000000000000000000000000000000000000000000000000004c27605c",
                    "decodedMethod": {
                        "callParams": [
                            {
                                "name": "_token",
                                "type": "address",
                                "value": "0xdac17f958d2ee523a2206206994597c13d831ec7"
                            },
                            {
                                "name": "_receiver",
                                "type": "address",
                                "value": "0x8f40a90b02cfe50244393fe0edef800567f28c37"
                            },
                            {
                                "name": "_amount",
                                "type": "uint256",
                                "value": "1,277,648,988"
                            }
                        ],
                        "constructorArguments": "",
                        "name": "sendToken",
                        "returnParams": [],
                        "signature": "sendToken(address,address,uint256)"
                    },
                    "errorInfo": "",
                    "fromAddress": "0xdc6c91b569c98f9f6f74d90f9beff99fdaf4248b",
                    "gasUsed": 19106,
                    "id": 19,
                    "methodDecoded": true,
                    "operation": "CALL",
                    "output": "",
                    "revert": false,
                    "revertMessage": "",
                    "selector": "0x2fdcfbd2",
                    "status": true,
                    "value": "0"
                },
                "nodeType": 0
            },
            "2": {
                "invocation": {
                    "address": "0x41f8d14c9475444f30a80431c68cf24dc9a8369a",
                    "callData": "0x000000000000000000000000c02aaa39b223fe8d0a0e5c4f27ead9083c756cc2",
                    "decodedMethod": null,
                    "errorInfo": "",
                    "fromAddress": "0xdc6c91b569c98f9f6f74d90f9beff99fdaf4248b",
                    "gasUsed": 17074,
                    "id": 2,
                    "methodDecoded": false,
                    "operation": "CALL",
                    "output": "",
                    "revert": false,
                    "revertMessage": "",
                    "selector": "0x8c53f61d",
                    "status": true,
                    "value": "5"
                },
                "nodeType": 0
            },
            "20": {
                "invocation": {
                    "address": "0xdac17f958d2ee523a2206206994597c13d831ec7",
                    "callData": "0x00000000000000000000000041f8d14c9475444f30a80431c68cf24dc9a8369a0000000000000000000000008f40a90b02cfe50244393fe0edef800567f28c37000000000000000000000000000000000000000000000000000000004c27605c",
                    "decodedMethod": {
                        "callParams": [
                            {
                                "name": "_from",
                                "type": "address",
                                "value": "0x41f8d14c9475444f30a80431c68cf24dc9a8369a"
                            },
                            {
                                "name": "_to",
                                "type": "address",
                                "value": "0x8f40a90b02cfe50244393fe0edef800567f28c37"
                            },
                            {
                                "decimalAvailable": true,
                                "name": "_value",
                                "type": "uint256",
                                "value": "1,277,648,988"
                            }
                        ],
                        "constructorArguments": "",
                        "name": "transferFrom",
                        "returnParams": [],
                        "signature": "transferFrom(address,address,uint256)"
                    },
                    "errorInfo": "",
                    "fromAddress": "0x41f8d14c9475444f30a80431c68cf24dc9a8369a",
                    "gasUsed": 16130,
                    "id": 20,
                    "methodDecoded": true,
                    "operation": "CALL",
                    "output": "",
                    "revert": false,
                    "revertMessage": "",
                    "selector": "0x23b872dd",
                    "status": true,
                    "value": "0"
                },
                "nodeType": 0
            },
            "21": {
                "event": {
                    "contract": "0xdac17f958d2ee523a2206206994597c13d831ec7",
                    "decodedLog": {
                        "name": "Transfer",
                        "params": [
                            {
                                "name": "from",
                                "type": "address",
                                "value": "0x41f8d14c9475444f30a80431c68cf24dc9a8369a"
                            },
                            {
                                "name": "to",
                                "type": "address",
                                "value": "0x8f40a90b02cfe50244393fe0edef800567f28c37"
                            },
                            {
                                "decimalAvailable": true,
                                "name": "value",
                                "type": "uint256",
                                "value": "1,277,648,988"
                            }
                        ],
                        "signature": "Transfer(address,address,uint256)"
                    },
                    "id": 21,
                    "logData": "0x000000000000000000000000000000000000000000000000000000004c27605c",
                    "logDecoded": true,
                    "operation": "EVENT",
                    "revert": false,
                    "status": true,
                    "topics": [
                        "0xddf252ad1be2c89b69c2b068fc378daa952ba7f163c4a11628f55a4df523b3ef",
                        "0x00000000000000000000000041f8d14c9475444f30a80431c68cf24dc9a8369a",
                        "0x0000000000000000000000008f40a90b02cfe50244393fe0edef800567f28c37"
                    ]
                },
                "nodeType": 1
            },
            "22": {
                "event": {
                    "contract": "0xdc6c91b569c98f9f6f74d90f9beff99fdaf4248b",
                    "decodedLog": {
                        "name": "FillOrder",
                        "params": [
                            {
                                "name": "executeTxHash",
                                "type": "bytes32",
                                "value": "0x8442139e19dcdd9acc422287a99f0e14a6d34e5fcd00738d0bde516c1f275b75"
                            },
                            {
                                "name": "userAddr",
                                "type": "address",
                                "value": "0x8f40a90b02cfe50244393fe0edef800567f28c37"
                            },
                            {
                                "name": "receiverAddr",
                                "type": "address",
                                "value": "0x8f40a90b02cfe50244393fe0edef800567f28c37"
                            },
                            {
                                "name": "filledAmount",
                                "type": "uint256",
                                "value": "5,000,000,000,000,000,000"
                            },
                            {
                                "name": "acutalMakerAssetAmount",
                                "type": "uint256",
                                "value": "1,277,648,988"
                            }
                        ],
                        "signature": "FillOrder(bytes32,address,address,uint256,uint256)"
                    },
                    "id": 22,
                    "logData": "0x0000000000000000000000008f40a90b02cfe50244393fe0edef800567f28c370000000000000000000000000000000000000000000000004563918244f40000000000000000000000000000000000000000000000000000000000004c27605c",
                    "logDecoded": true,
                    "operation": "EVENT",
                    "revert": false,
                    "status": true,
                    "topics": [
                        "0xbacf26e0fbc49102f01531fe6d0af4601375ca3bc0f1ce693e6c91a5e38fafa8",
                        "0x8442139e19dcdd9acc422287a99f0e14a6d34e5fcd00738d0bde516c1f275b75",
                        "0x0000000000000000000000008f40a90b02cfe50244393fe0edef800567f28c37"
                    ]
                },
                "nodeType": 1
            },
            "3": {
                "invocation": {
                    "address": "0xc02aaa39b223fe8d0a0e5c4f27ead9083c756cc2",
                    "callData": "0x",
                    "decodedMethod": {
                        "callParams": [],
                        "constructorArguments": "",
                        "name": "deposit",
                        "returnParams": [],
                        "signature": "deposit()"
                    },
                    "errorInfo": "",
                    "fromAddress": "0x41f8d14c9475444f30a80431c68cf24dc9a8369a",
                    "gasUsed": 7674,
                    "id": 3,
                    "methodDecoded": true,
                    "operation": "CALL",
                    "output": "",
                    "revert": false,
                    "revertMessage": "",
                    "selector": "0xd0e30db0",
                    "status": true,
                    "value": "5"
                },
                "nodeType": 0
            },
            "4": {
                "event": {
                    "contract": "0xc02aaa39b223fe8d0a0e5c4f27ead9083c756cc2",
                    "decodedLog": {
                        "name": "Deposit",
                        "params": [
                            {
                                "name": "dst",
                                "type": "address",
                                "value": "0x41f8d14c9475444f30a80431c68cf24dc9a8369a"
                            },
                            {
                                "name": "wad",
                                "type": "uint256",
                                "value": "5,000,000,000,000,000,000"
                            }
                        ],
                        "signature": "Deposit(address,uint256)"
                    },
                    "id": 4,
                    "logData": "0x0000000000000000000000000000000000000000000000004563918244f40000",
                    "logDecoded": true,
                    "operation": "EVENT",
                    "revert": false,
                    "status": true,
                    "topics": [
                        "0xe1fffcc4923d04b559f4d29a8bfc6cda04eb5b0d3c460751c2402c5c5cc9109c",
                        "0x00000000000000000000000041f8d14c9475444f30a80431c68cf24dc9a8369a"
                    ]
                },
                "nodeType": 1
            },
            "5": {
                "invocation": {
                    "address": "0x080bf510fcbf18b91105470639e9561022937712",
                    "callData": "0x294f266e5b24d7c0a804d30fdc23794455d18129c56559b264a5b9cc84a1b94b00000000000000000000000041f8d14c9475444f30a80431c68cf24dc9a8369a000000000000000000000000000000000000000000000000000000000000008000000000000000000000000000000000000000000000000000000000000003e0000000000000000000000000000000000000000000000000000000000000032464a3bc1500000000000000000000000000000000000000000000000000000000000000600000000000000000000000000000000000000000000000004563918244f4000000000000000000000000000000000000000000000000000000000000000002a0000000000000000000000000d0e6cbd9da5d6214818a3ca2c4be074174faea8100000000000000000000000041f8d14c9475444f30a80431c68cf24dc9a8369a000000000000000000000000b9e29984fe50602e7a619662ebed4f90d93824c7000000000000000000000000dc6c91b569c98f9f6f74d90f9beff99fdaf4248b000000000000000000000000000000000000000000000000000000004c6209dc0000000000000000000000000000000000000000000000004563918244f4000000000000000000000000000000000000000000000000000000000000000000000000000000000000000000000000000000000000000000000000000000000000000000000000000000000000000000000000000000000000000000005e49f75f6f6019f3469e750671f36cb5ab7059678113f4cdd10818421037634f70e81b24000000000000000000000000000000000000000000000000000000000000018000000000000000000000000000000000000000000000000000000000000001e00000000000000000000000000000000000000000000000000000000000000024f47261b0000000000000000000000000dac17f958d2ee523a2206206994597c13d831ec7000000000000000000000000000000000000000000000000000000000000000000000000000000000000000000000000000000000000000000000024f47261b0000000000000000000000000c02aaa39b223fe8d0a0e5c4f27ead9083c756cc20000000000000000000000000000000000000000000000000000000000000000000000000000000000000000000000000000000000000000000000581c84039783916115f04c9c661e22814672f2d2686f8d3cf5708184c1ff223402e965ebd95492e1f301da04674c8bde0b2f017af0b47225ac53c9c1b347d26f87c68f40a90b02cfe50244393fe0edef800567f28c37001e0400000000000000000000000000000000000000000000000000000000000000000000000000000000000000000000000000000000000000000000000000000000000000561cf3d58e25a0c4098dd992daa46ab8b56efb7368875c8eaa366d57ca2f1149c4873d815eee574c752a8f97914fe21f112054fe89b068a703dc4ed59b7e5ba984978f40a90b02cfe50244393fe0edef800567f28c370400000000000000000000",
                    "decodedMethod": {
                        "callParams": [
                            {
                                "name": "salt",
                                "type": "uint256",
                                "value": "18,684,672,951,585,300,497,195,124,830,877,134,233,181,121,562,294,648,456,777,441,543,891,424,753,995"
                            },
                            {
                                "name": "signerAddress",
                                "type": "address",
                                "value": "0x41f8d14c9475444f30a80431c68cf24dc9a8369a"
                            },
                            {
                                "name": "data",
                                "type": "bytes",
                                "value": "0x64a3bc1500000000000000000000000000000000000000000000000000000000000000600000000000000000000000000000000000000000000000004563918244f4000000000000000000000000000000000000000000000000000000000000000002a0000000000000000000000000d0e6cbd9da5d6214818a3ca2c4be074174faea8100000000000000000000000041f8d14c9475444f30a80431c68cf24dc9a8369a000000000000000000000000b9e29984fe50602e7a619662ebed4f90d93824c7000000000000000000000000dc6c91b569c98f9f6f74d90f9beff99fdaf4248b000000000000000000000000000000000000000000000000000000004c6209dc0000000000000000000000000000000000000000000000004563918244f4000000000000000000000000000000000000000000000000000000000000000000000000000000000000000000000000000000000000000000000000000000000000000000000000000000000000000000000000000000000000000000005e49f75f6f6019f3469e750671f36cb5ab7059678113f4cdd10818421037634f70e81b24000000000000000000000000000000000000000000000000000000000000018000000000000000000000000000000000000000000000000000000000000001e00000000000000000000000000000000000000000000000000000000000000024f47261b0000000000000000000000000dac17f958d2ee523a2206206994597c13d831ec7000000000000000000000000000000000000000000000000000000000000000000000000000000000000000000000000000000000000000000000024f47261b0000000000000000000000000c02aaa39b223fe8d0a0e5c4f27ead9083c756cc20000000000000000000000000000000000000000000000000000000000000000000000000000000000000000000000000000000000000000000000581c84039783916115f04c9c661e22814672f2d2686f8d3cf5708184c1ff223402e965ebd95492e1f301da04674c8bde0b2f017af0b47225ac53c9c1b347d26f87c68f40a90b02cfe50244393fe0edef800567f28c37001e040000000000000000"
                            },
                            {
                                "name": "signature",
                                "type": "bytes",
                                "value": "0x1cf3d58e25a0c4098dd992daa46ab8b56efb7368875c8eaa366d57ca2f1149c4873d815eee574c752a8f97914fe21f112054fe89b068a703dc4ed59b7e5ba984978f40a90b02cfe50244393fe0edef800567f28c3704"
                            }
                        ],
                        "constructorArguments": "",
                        "name": "executeTransaction",
                        "returnParams": [],
                        "signature": "executeTransaction(uint256,address,bytes,bytes)"
                    },
                    "errorInfo": "",
                    "fromAddress": "0xdc6c91b569c98f9f6f74d90f9beff99fdaf4248b",
                    "gasUsed": 183832,
                    "id": 5,
                    "methodDecoded": true,
                    "operation": "CALL",
                    "output": "",
                    "revert": false,
                    "revertMessage": "",
                    "selector": "0xbfc8bfce",
                    "status": true,
                    "value": "0"
                },
                "nodeType": 0
            },
            "6": {
                "invocation": {
                    "address": "0x41f8d14c9475444f30a80431c68cf24dc9a8369a",
                    "callData": "0x8442139e19dcdd9acc422287a99f0e14a6d34e5fcd00738d0bde516c1f275b75000000000000000000000000000000000000000000000000000000000000004000000000000000000000000000000000000000000000000000000000000000551cf3d58e25a0c4098dd992daa46ab8b56efb7368875c8eaa366d57ca2f1149c4873d815eee574c752a8f97914fe21f112054fe89b068a703dc4ed59b7e5ba984978f40a90b02cfe50244393fe0edef800567f28c370000000000000000000000",
                    "decodedMethod": {
                        "callParams": [
                            {
                                "name": "hash",
                                "type": "bytes32",
                                "value": "0x8442139e19dcdd9acc422287a99f0e14a6d34e5fcd00738d0bde516c1f275b75"
                            },
                            {
                                "name": "signature",
                                "type": "bytes",
                                "value": "0x1cf3d58e25a0c4098dd992daa46ab8b56efb7368875c8eaa366d57ca2f1149c4873d815eee574c752a8f97914fe21f112054fe89b068a703dc4ed59b7e5ba984978f40a90b02cfe50244393fe0edef800567f28c37"
                            }
                        ],
                        "constructorArguments": "",
                        "name": "isValidSignature",
                        "returnParams": [
                            {
                                "name": "magicValue",
                                "type": "bytes4",
                                "value": "0xb0671381"
                            }
                        ],
                        "signature": "isValidSignature(bytes32,bytes)"
                    },
                    "errorInfo": "",
                    "fromAddress": "0x080bf510fcbf18b91105470639e9561022937712",
                    "gasUsed": 9760,
                    "id": 6,
                    "methodDecoded": true,
                    "operation": "STATICCALL",
                    "output": "0xb067138131d606f18b51e6ee32605a2acac5aad86d6a80011ed9cb2bab20c1c7",
                    "revert": false,
                    "revertMessage": "",
                    "selector": "0x1626ba7e",
                    "status": true,
                    "value": "0"
                },
                "nodeType": 0
            },
            "7": {
                "invocation": {
                    "address": "0x0000000000000000000000000000000000000001",
                    "callData": "0xc2dd6633fe62c062fcef30e1e83a11dabbb3999e3f2ffe305fea7647000000000000000000000000000000000000000000000000000000000000001cf3d58e25a0c4098dd992daa46ab8b56efb7368875c8eaa366d57ca2f1149c4873d815eee574c752a8f97914fe21f112054fe89b068a703dc4ed59b7e5ba98497",
                    "decodedMethod": {
                        "callParams": [
                            {
                                "name": "hash",
                                "type": "bytes32",
                                "value": "0x7dfaaa12c2dd6633fe62c062fcef30e1e83a11dabbb3999e3f2ffe305fea7647"
                            },
                            {
                                "name": "v",
                                "type": "uint256",
                                "value": "28"
                            },
                            {
                                "name": "r",
                                "type": "bytes32",
                                "value": "0xf3d58e25a0c4098dd992daa46ab8b56efb7368875c8eaa366d57ca2f1149c487"
                            },
                            {
                                "name": "s",
                                "type": "bytes32",
                                "value": "0x3d815eee574c752a8f97914fe21f112054fe89b068a703dc4ed59b7e5ba98497"
                            }
                        ],
                        "constructorArguments": "",
                        "name": "ecrecover",
                        "returnParams": [
                            {
                                "name": "",
                                "type": "address",
                                "value": "0x8f40a90b02cfe50244393fe0edef800567f28c37"
                            }
                        ],
                        "signature": "ecrecover(bytes32,uint256,bytes32,bytes32)"
                    },
                    "errorInfo": "",
                    "fromAddress": "0x41f8d14c9475444f30a80431c68cf24dc9a8369a",
                    "gasUsed": 3000,
                    "id": 7,
                    "methodDecoded": true,
                    "operation": "STATICCALL",
                    "output": "0x0000000000000000000000008f40a90b02cfe50244393fe0edef800567f28c37",
                    "revert": false,
                    "revertMessage": "",
                    "selector": "0x7dfaaa12",
                    "status": true,
                    "value": "0"
                },
                "nodeType": 0
            },
            "8": {
                "invocation": {
                    "address": "0xdc6c91b569c98f9f6f74d90f9beff99fdaf4248b",
                    "callData": "0x8442139e19dcdd9acc422287a99f0e14a6d34e5fcd00738d0bde516c1f275b75",
                    "decodedMethod": {
                        "callParams": [
                            {
                                "name": "",
                                "type": "bytes32",
                                "value": "0x8442139e19dcdd9acc422287a99f0e14a6d34e5fcd00738d0bde516c1f275b75"
                            }
                        ],
                        "constructorArguments": "",
                        "name": "transactions",
                        "returnParams": [
                            {
                                "name": "",
                                "type": "address",
                                "value": "0x8f40a90b02cfe50244393fe0edef800567f28c37"
                            }
                        ],
                        "signature": "transactions(bytes32)"
                    },
                    "errorInfo": "",
                    "fromAddress": "0x41f8d14c9475444f30a80431c68cf24dc9a8369a",
                    "gasUsed": 1559,
                    "id": 8,
                    "methodDecoded": true,
                    "operation": "CALL",
                    "output": "0x0000000000000000000000008f40a90b02cfe50244393fe0edef800567f28c37",
                    "revert": false,
                    "revertMessage": "",
                    "selector": "0x642f2eaf",
                    "status": true,
                    "value": "0"
                },
                "nodeType": 0
            },
            "9": {
                "invocation": {
                    "address": "0x080bf510fcbf18b91105470639e9561022937712",
                    "callData": "0x00000000000000000000000000000000000000000000000000000000000000600000000000000000000000000000000000000000000000004563918244f4000000000000000000000000000000000000000000000000000000000000000002a0000000000000000000000000d0e6cbd9da5d6214818a3ca2c4be074174faea8100000000000000000000000041f8d14c9475444f30a80431c68cf24dc9a8369a000000000000000000000000b9e29984fe50602e7a619662ebed4f90d93824c7000000000000000000000000dc6c91b569c98f9f6f74d90f9beff99fdaf4248b000000000000000000000000000000000000000000000000000000004c6209dc0000000000000000000000000000000000000000000000004563918244f4000000000000000000000000000000000000000000000000000000000000000000000000000000000000000000000000000000000000000000000000000000000000000000000000000000000000000000000000000000000000000000005e49f75f6f6019f3469e750671f36cb5ab7059678113f4cdd10818421037634f70e81b24000000000000000000000000000000000000000000000000000000000000018000000000000000000000000000000000000000000000000000000000000001e00000000000000000000000000000000000000000000000000000000000000024f47261b0000000000000000000000000dac17f958d2ee523a2206206994597c13d831ec7000000000000000000000000000000000000000000000000000000000000000000000000000000000000000000000000000000000000000000000024f47261b0000000000000000000000000c02aaa39b223fe8d0a0e5c4f27ead9083c756cc20000000000000000000000000000000000000000000000000000000000000000000000000000000000000000000000000000000000000000000000581c84039783916115f04c9c661e22814672f2d2686f8d3cf5708184c1ff223402e965ebd95492e1f301da04674c8bde0b2f017af0b47225ac53c9c1b347d26f87c68f40a90b02cfe50244393fe0edef800567f28c37001e040000000000000000",
                    "decodedMethod": {
                        "callParams": [
                            {
                                "name": "order",
                                "type": "(address,address,address,address,uint256,uint256,uint256,uint256,uint256,uint256,bytes,bytes)",
                                "value": [
                                    {
                                        "name": "makerAddress",
                                        "type": "address",
                                        "value": "0xd0e6cbd9da5d6214818a3ca2c4be074174faea81"
                                    },
                                    {
                                        "name": "takerAddress",
                                        "type": "address",
                                        "value": "0x41f8d14c9475444f30a80431c68cf24dc9a8369a"
                                    },
                                    {
                                        "name": "feeRecipientAddress",
                                        "type": "address",
                                        "value": "0xb9e29984fe50602e7a619662ebed4f90d93824c7"
                                    },
                                    {
                                        "name": "senderAddress",
                                        "type": "address",
                                        "value": "0xdc6c91b569c98f9f6f74d90f9beff99fdaf4248b"
                                    },
                                    {
                                        "name": "makerAssetAmount",
                                        "type": "uint256",
                                        "value": "1,281,493,468"
                                    },
                                    {
                                        "name": "takerAssetAmount",
                                        "type": "uint256",
                                        "value": "5,000,000,000,000,000,000"
                                    },
                                    {
                                        "name": "makerFee",
                                        "type": "uint256",
                                        "value": "0"
                                    },
                                    {
                                        "name": "takerFee",
                                        "type": "uint256",
                                        "value": "0"
                                    },
                                    {
                                        "name": "expirationTimeSeconds",
                                        "type": "uint256",
                                        "value": "1,581,905,759"
                                    },
                                    {
                                        "name": "salt",
                                        "type": "uint256",
                                        "value": "50,376,522,613,324,049,785,800,181,122,885,257,925,960,009,150,981,136,954,811,246,033,381,024,602,916"
                                    },
                                    {
                                        "name": "makerAssetData",
                                        "type": "bytes",
                                        "value": "0xf47261b0000000000000000000000000dac17f958d2ee523a2206206994597c13d831ec7"
                                    },
                                    {
                                        "name": "takerAssetData",
                                        "type": "bytes",
                                        "value": "0xf47261b0000000000000000000000000c02aaa39b223fe8d0a0e5c4f27ead9083c756cc2"
                                    }
                                ]
                            },
                            {
                                "name": "takerAssetFillAmount",
                                "type": "uint256",
                                "value": "5,000,000,000,000,000,000"
                            },
                            {
                                "name": "signature",
                                "type": "bytes",
                                "value": "0x1c84039783916115f04c9c661e22814672f2d2686f8d3cf5708184c1ff223402e965ebd95492e1f301da04674c8bde0b2f017af0b47225ac53c9c1b347d26f87c68f40a90b02cfe50244393fe0edef800567f28c37001e04"
                            }
                        ],
                        "constructorArguments": "",
                        "name": "fillOrKillOrder",
                        "returnParams": [
                            {
                                "name": "fillResults",
                                "type": "(uint256,uint256,uint256,uint256)",
                                "value": [
                                    {
                                        "name": "makerAssetFilledAmount",
                                        "type": "uint256",
                                        "value": "1,281,493,468"
                                    },
                                    {
                                        "name": "takerAssetFilledAmount",
                                        "type": "uint256",
                                        "value": "5,000,000,000,000,000,000"
                                    },
                                    {
                                        "name": "makerFeePaid",
                                        "type": "uint256",
                                        "value": "0"
                                    },
                                    {
                                        "name": "takerFeePaid",
                                        "type": "uint256",
                                        "value": "0"
                                    }
                                ]
                            }
                        ],
                        "signature": "fillOrKillOrder((address,address,address,address,uint256,uint256,uint256,uint256,uint256,uint256,bytes,bytes),uint256,bytes)"
                    },
                    "errorInfo": "",
                    "fromAddress": "0x080bf510fcbf18b91105470639e9561022937712",
                    "gasUsed": 118915,
                    "id": 9,
                    "methodDecoded": true,
                    "operation": "DELEGATECALL",
                    "output": "0x000000000000000000000000000000000000000000000000000000004c6209dc0000000000000000000000000000000000000000000000004563918244f4000000000000000000000000000000000000000000000000000000000000000000000000000000000000000000000000000000000000000000000000000000000000",
                    "revert": false,
                    "revertMessage": "",
                    "selector": "0x64a3bc15",
                    "status": true,
                    "value": "0"
                },
                "nodeType": 0
            }
        },
        "gasFlame": [
            {
                "children": [
                    {
                        "children": [
                            {
                                "children": [],
                                "depth": 0,
                                "name": "Initial Gas",
                                "value": 30276
                            },
                            {
                                "children": [
                                    {
                                        "children": [],
                                        "depth": 1,
                                        "name": "isMarketMakerProxy",
                                        "value": 1566
                                    },
                                    {
                                        "children": [
                                            {
                                                "children": [],
                                                "depth": 2,
                                                "name": "deposit",
                                                "value": 7674
                                            }
                                        ],
                                        "depth": 1,
                                        "name": "0x8c53f61d",
                                        "value": 17074
                                    },
                                    {
                                        "children": [
                                            {
                                                "children": [
                                                    {
                                                        "children": [],
                                                        "depth": 3,
                                                        "name": "ecrecover",
                                                        "value": 3000
                                                    },
                                                    {
                                                        "children": [],
                                                        "depth": 3,
                                                        "name": "transactions",
                                                        "value": 1559
                                                    }
                                                ],
                                                "depth": 2,
                                                "name": "isValidSignature",
                                                "value": 9760
                                            },
                                            {
                                                "children": [
                                                    {
                                                        "children": [
                                                            {
                                                                "children": [],
                                                                "depth": 4,
                                                                "name": "ecrecover",
                                                                "value": 3000
                                                            }
                                                        ],
                                                        "depth": 3,
                                                        "name": "isValidSignature",
                                                        "value": 6823
                                                    },
                                                    {
                                                        "children": [
                                                            {
                                                                "children": [],
                                                                "depth": 4,
                                                                "name": "transferFrom",
                                                                "value": 20330
                                                            }
                                                        ],
                                                        "depth": 3,
                                                        "name": "transferFrom",
                                                        "value": 22384
                                                    },
                                                    {
                                                        "children": [
                                                            {
                                                                "children": [],
                                                                "depth": 4,
                                                                "name": "transferFrom",
                                                                "value": 11825
                                                            }
                                                        ],
                                                        "depth": 3,
                                                        "name": "transferFrom",
                                                        "value": 13879
                                                    }
                                                ],
                                                "depth": 2,
                                                "name": "fillOrKillOrder",
                                                "value": 118915
                                            }
                                        ],
                                        "depth": 1,
                                        "name": "executeTransaction",
                                        "value": 183832
                                    },
                                    {
                                        "children": [
                                            {
                                                "children": [],
                                                "depth": 2,
                                                "name": "transferFrom",
                                                "value": 16130
                                            }
                                        ],
                                        "depth": 1,
                                        "name": "sendToken",
                                        "value": 19106
                                    }
                                ],
                                "depth": 0,
                                "name": "Executed Gas",
                                "value": 283063
                            }
                        ],
                        "depth": -1,
                        "name": "Actual Gas Used",
                        "value": 270739
                    },
                    {
                        "children": [],
                        "depth": -1,
                        "name": "Refunded Gas",
                        "value": 42600
                    }
                ],
                "depth": -2,
                "name": "Total Gas",
                "value": 313339
            }
        ],
        "isConfirmed": true,
        "mainTrace": [
            {
                "children": [
                    {
                        "children": [
                            {
                                "children": [],
                                "depth": 1,
                                "id": 1,
                                "order": 1
                            },
                            {
                                "children": [
                                    {
                                        "children": [
                                            {
                                                "children": [],
                                                "depth": 3,
                                                "id": 4,
                                                "order": 4
                                            }
                                        ],
                                        "depth": 2,
                                        "id": 3,
                                        "order": 3
                                    }
                                ],
                                "depth": 1,
                                "id": 2,
                                "order": 2
                            },
                            {
                                "children": [
                                    {
                                        "children": [
                                            {
                                                "children": [],
                                                "depth": 3,
                                                "id": 7,
                                                "order": 7
                                            },
                                            {
                                                "children": [],
                                                "depth": 3,
                                                "id": 8,
                                                "order": 8
                                            }
                                        ],
                                        "depth": 2,
                                        "id": 6,
                                        "order": 6
                                    },
                                    {
                                        "children": [
                                            {
                                                "children": [
                                                    {
                                                        "children": [],
                                                        "depth": 4,
                                                        "id": 11,
                                                        "order": 11
                                                    }
                                                ],
                                                "depth": 3,
                                                "id": 10,
                                                "order": 10
                                            },
                                            {
                                                "children": [],
                                                "depth": 3,
                                                "id": 12,
                                                "order": 12
                                            },
                                            {
                                                "children": [
                                                    {
                                                        "children": [
                                                            {
                                                                "children": [],
                                                                "depth": 5,
                                                                "id": 15,
                                                                "order": 15
                                                            }
                                                        ],
                                                        "depth": 4,
                                                        "id": 14,
                                                        "order": 14
                                                    }
                                                ],
                                                "depth": 3,
                                                "id": 13,
                                                "order": 13
                                            },
                                            {
                                                "children": [
                                                    {
                                                        "children": [
                                                            {
                                                                "children": [],
                                                                "depth": 5,
                                                                "id": 18,
                                                                "order": 18
                                                            }
                                                        ],
                                                        "depth": 4,
                                                        "id": 17,
                                                        "order": 17
                                                    }
                                                ],
                                                "depth": 3,
                                                "id": 16,
                                                "order": 16
                                            }
                                        ],
                                        "depth": 2,
                                        "id": 9,
                                        "order": 9
                                    }
                                ],
                                "depth": 1,
                                "id": 5,
                                "order": 5
                            },
                            {
                                "children": [
                                    {
                                        "children": [
                                            {
                                                "children": [],
                                                "depth": 3,
                                                "id": 21,
                                                "order": 21
                                            }
                                        ],
                                        "depth": 2,
                                        "id": 20,
                                        "order": 20
                                    }
                                ],
                                "depth": 1,
                                "id": 19,
                                "order": 19
                            },
                            {
                                "children": [],
                                "depth": 1,
                                "id": 22,
                                "order": 22
                            }
                        ],
                        "depth": 0,
                        "id": 0,
                        "order": 0
                    }
                ],
                "depth": -1,
                "id": -1,
                "order": -1
            }
        ],
        "mainTraceNodeCount": 23,
        "parentIdMap": {
            "0": -1,
            "1": 0,
            "10": 9,
            "11": 10,
            "12": 9,
            "13": 9,
            "14": 13,
            "15": 14,
            "16": 9,
            "17": 16,
            "18": 17,
            "19": 0,
            "2": 0,
            "20": 19,
            "21": 20,
            "22": 0,
            "3": 2,
            "4": 3,
            "5": 0,
            "6": 5,
            "7": 6,
            "8": 6,
            "9": 5
        },
        "tidyTrace": [
            {
                "children": [
                    {
                        "children": [
                            {
                                "children": [
                                    {
                                        "children": [
                                            {
                                                "children": [],
                                                "depth": 3,
                                                "id": 4,
                                                "order": 4
                                            }
                                        ],
                                        "depth": 2,
                                        "id": 3,
                                        "order": 3
                                    }
                                ],
                                "depth": 1,
                                "id": 2,
                                "order": 2
                            },
                            {
                                "children": [
                                    {
                                        "children": [
                                            {
                                                "children": [],
                                                "depth": 3,
                                                "id": 12,
                                                "order": 12
                                            },
                                            {
                                                "children": [
                                                    {
                                                        "children": [
                                                            {
                                                                "children": [],
                                                                "depth": 5,
                                                                "id": 15,
                                                                "order": 15
                                                            }
                                                        ],
                                                        "depth": 4,
                                                        "id": 14,
                                                        "order": 14
                                                    }
                                                ],
                                                "depth": 3,
                                                "id": 13,
                                                "order": 13
                                            },
                                            {
                                                "children": [
                                                    {
                                                        "children": [
                                                            {
                                                                "children": [],
                                                                "depth": 5,
                                                                "id": 18,
                                                                "order": 18
                                                            }
                                                        ],
                                                        "depth": 4,
                                                        "id": 17,
                                                        "order": 17
                                                    }
                                                ],
                                                "depth": 3,
                                                "id": 16,
                                                "order": 16
                                            }
                                        ],
                                        "depth": 2,
                                        "id": 9,
                                        "order": 9
                                    }
                                ],
                                "depth": 1,
                                "id": 5,
                                "order": 5
                            },
                            {
                                "children": [
                                    {
                                        "children": [
                                            {
                                                "children": [],
                                                "depth": 3,
                                                "id": 21,
                                                "order": 21
                                            }
                                        ],
                                        "depth": 2,
                                        "id": 20,
                                        "order": 20
                                    }
                                ],
                                "depth": 1,
                                "id": 19,
                                "order": 19
                            },
                            {
                                "children": [],
                                "depth": 1,
                                "id": 22,
                                "order": 22
                            }
                        ],
                        "depth": 0,
                        "id": 0,
                        "order": 0
                    }
                ],
                "depth": -1,
                "id": -1,
                "order": -1
            }
        ],
        "tidyTraceNodeCount": 17
    },
    "state_change": {
        "stateChanges": [
            {
                "address": "0x080bf510fcbf18b91105470639e9561022937712",
                "erc": "",
                "slots": [
                    {
                        "current": "0x0000000000000000000000000000000000000000000000000000000000000001",
                        "key": "0x8ceed3a5429780b6ba460379d515c95be571f571edb16841cc26cb609bfbffa3",
                        "prev": "0x0000000000000000000000000000000000000000000000000000000000000000"
                    },
                    {
                        "current": "0x0000000000000000000000000000000000000000000000004563918244f40000",
                        "key": "0xa74781a2fbfb3c44db7c45cbaf8f54b4d9c33facc96c16355287a021923a1353",
                        "prev": "0x0000000000000000000000000000000000000000000000000000000000000000"
                    }
                ],
                "storageVariables": [
                    {
                        "name": "transactions",
                        "type": "mapping(bytes32 => bool)",
                        "value": {
                            "pairs": [
                                {
                                    "key": "0x8442139e19dcdd9acc422287a99f0e14a6d34e5fcd00738d0bde516c1f275b75",
                                    "value": {
                                        "current": "true",
                                        "prev": "false",
                                        "typeTag": 1
                                    }
                                }
                            ],
                            "typeTag": 4
                        }
                    },
                    {
                        "name": "filled",
                        "type": "mapping(bytes32 => uint256)",
                        "value": {
                            "pairs": [
                                {
                                    "key": "0xd0280d66aac9b4f1eae2b372a4e1f04a42a3c15b81566e326e7dd1fdf3053d5d",
                                    "value": {
                                        "current": "5000000000000000000",
                                        "prev": "0",
                                        "typeTag": 1
                                    }
                                }
                            ],
                            "typeTag": 4
                        }
                    }
                ]
            },
            {
                "address": "0xc02aaa39b223fe8d0a0e5c4f27ead9083c756cc2",
                "erc": "ERC-20",
                "slots": [
                    {
                        "current": "0x00000000000000000000000000000000000000000000001edee9e859e0b7ac00",
                        "key": "0x23026e0a3bcabbf05ed401aff085841082c4d30d051ae551fc0224a9e945d1c9",
                        "prev": "0x00000000000000000000000000000000000000000000001e998656d79bc3ac00"
                    }
                ],
                "storageVariables": [
                    {
                        "name": "balanceOf",
                        "type": "mapping(address => uint256)",
                        "value": {
                            "pairs": [
                                {
                                    "key": "0xd0e6cbd9da5d6214818a3ca2c4be074174faea81",
                                    "value": {
                                        "current": "569464947230000000000",
                                        "prev": "564464947230000000000",
                                        "typeTag": 1
                                    }
                                }
                            ],
                            "typeTag": 4
                        }
                    }
                ]
            },
            {
                "address": "0xdac17f958d2ee523a2206206994597c13d831ec7",
                "erc": "ERC-20",
                "slots": [
                    {
                        "current": "0x0000000000000000000000000000000000000000000000000000000c8b574998",
                        "key": "0xb92b4fe4ed9f283ff765e4a25439a14cb0ccd46a7920abc238ecd915603ecf51",
                        "prev": "0x0000000000000000000000000000000000000000000000000000000c8b1ca018"
                    },
                    {
                        "current": "0x0000000000000000000000000000000000000000000000000000000c27faa81e",
                        "key": "0xe2cac717ee15a89ad301b961a7936f5fc7d6b7b10e1e8157df87974ebaaab7a0",
                        "prev": "0x0000000000000000000000000000000000000000000000000000000c745cb1fa"
                    },
                    {
                        "current": "0x0000000000000000000000000000000000000000000000000000000087cbe69c",
                        "key": "0xfdf287ccfa8daad0afa1c700e10901a8c7b620d92179a6cecc1f8841a8ca72d5",
                        "prev": "0x000000000000000000000000000000000000000000000000000000003ba48640"
                    }
                ],
                "storageVariables": [
                    {
                        "name": "balances",
                        "type": "mapping(address => uint256)",
                        "value": {
                            "pairs": [
                                {
                                    "key": "0x41f8d14c9475444f30a80431c68cf24dc9a8369a",
                                    "value": {
                                        "current": "53877361048",
                                        "prev": "53873516568",
                                        "typeTag": 1
                                    }
                                },
                                {
                                    "key": "0x8f40a90b02cfe50244393fe0edef800567f28c37",
                                    "value": {
                                        "current": "2278287004",
                                        "prev": "1000638016",
                                        "typeTag": 1
                                    }
                                },
                                {
                                    "key": "0xd0e6cbd9da5d6214818a3ca2c4be074174faea81",
                                    "value": {
                                        "current": "52210346014",
                                        "prev": "53491839482",
                                        "typeTag": 1
                                    }
                                }
                            ],
                            "typeTag": 4
                        }
                    }
                ]
            },
            {
                "address": "0xdc6c91b569c98f9f6f74d90f9beff99fdaf4248b",
                "erc": "",
                "slots": [
                    {
                        "current": "0x0000000000000000000000008f40a90b02cfe50244393fe0edef800567f28c37",
                        "key": "0x45fbdf455090588230aa2fbaf15e1b4a7426e371d7ba2d60b9a79d49b3f0e851",
                        "prev": "0x0000000000000000000000000000000000000000000000000000000000000000"
                    }
                ],
                "storageVariables": [
                    {
                        "name": "transactions",
                        "type": "mapping(bytes32 => address)",
                        "value": {
                            "pairs": [
                                {
                                    "key": "0x8442139e19dcdd9acc422287a99f0e14a6d34e5fcd00738d0bde516c1f275b75",
                                    "value": {
                                        "current": "0x8f40a90b02cfe50244393fe0edef800567f28c37",
                                        "prev": "0x0000000000000000000000000000000000000000",
                                        "typeTag": 1
                                    }
                                }
                            ],
                            "typeTag": 4
                        }
                    }
                ]
            }
        ]
    }
}