{
    "balance_change": {
        "balanceChanges": [
            {
                "account": "0x9feea2cf97c3dc1da7557345910cb3e9afd29101",
                "assets": [
                    {
                        "address": "0x8a6ed334b561842b7bf3f8130be02afaf69832af",
                        "amount": "500,000",
                        "iconUrl": "",
                        "isERC1155": false,
                        "isERC721": false,
                        "sign": false,
                        "value": ""
                    }
                ]
            },
            {
                "account": "0xe25abf1f8c1359c6b81c3e8d55015e29bc2ec2ae",
                "assets": [
                    {
                        "address": "0x8a6ed334b561842b7bf3f8130be02afaf69832af",
                        "amount": "500,000",
                        "iconUrl": "",
                        "isERC1155": false,
                        "isERC721": false,
                        "sign": true,
                        "value": ""
                    }
                ]
            }
        ]
    },
    "profile": {
        "basic_info": {
            "baseFee": "",
            "blockNumber": 9395538,
            "callData": "0xa9059cbb000000000000000000000000e25abf1f8c1359c6b81c3e8d55015e29bc2ec2ae0000000000000000000000000000000000000000000069e10de76676d0800000",
            "debugEnable": true,
            "errorInfo": "",
            "eventCount": 1,
            "feeRecipient": "0xea674fdde714fd979de3edf0f56aa9716b898ec8",
            "formatValue": "0",
            "gasLimit": 60000,
            "gasPrice": "6",
            "gasUsed": 51865,
            "intTxnCount": 0,
            "internalRevert": false,
            "internalRevertMessage": "",
            "isContractCreation": false,
            "isFlashloan": false,
            "maxFee": "",
            "nonce": 115,
            "overwritedBlockNumber": -1,
            "priorityFee": "",
            "receiver": "0x8a6ed334b561842b7bf3f8130be02afaf69832af",
            "revertMessage": "",
            "sender": "0x9feea2cf97c3dc1da7557345910cb3e9afd29101",
            "simulationEnable": true,
            "sourceTxnHash": "0x7343aa58edfc8c6d38752a0e51c02ce77dadd19816677cddda6dbda8a4dd2c1e",
            "status": true,
            "timestamp": "2020-02-01T08:45:06Z",
            "transactionFee": "0.00031119",
            "txnHash": "0x7343aa58edfc8c6d38752a0e51c02ce77dadd19816677cddda6dbda8a4dd2c1e",
            "txnIndex": 117,
            "type": 0,
            "value": "0"
        },
        "fund_flow": [
            {
                "amount": "500,000",
                "from": "0x9feea2cf97c3dc1da7557345910cb3e9afd29101",
                "id": 1,
                "isERC1155": false,
                "isERC721": false,
                "isReverted": false,
                "order": 1,
                "to": "0xe25abf1f8c1359c6b81c3e8d55015e29bc2ec2ae",
                "token": "0x8a6ed334b561842b7bf3f8130be02afaf69832af"
            }
        ],
        "token_infos": [
            {
                "address": "0x8a6ed334b561842b7bf3f8130be02afaf69832af",
                "decimals": 18
            },
            {
                "address": "0xc02aaa39b223fe8d0a0e5c4f27ead9083c756cc2",
                "decimals": 18
            },
            {
                "address": "0xeeeeeeeeeeeeeeeeeeeeeeeeeeeeeeeeeeeeeeee",
                "decimals": 18
            }
        ]
    },
    "address_label": {
        "labels": [
            {
                "address": "0x8a6ed334b561842b7bf3f8130be02afaf69832af",
                "label": "CMDX (CMDX)"
            },
            {
                "address": "0x0000000000000000000000000000000000000001",
                "label": "Precompiled"
            },
            {
                "address": "0x0000000000000000000000000000000000000002",
                "label": "Precompiled"
            },
            {
                "address": "0x0000000000000000000000000000000000000003",
                "label": "Precompiled"
            },
            {
                "address": "0x0000000000000000000000000000000000000004",
                "label": "Precompiled"
            },
            {
                "address": "0xeeeeeeeeeeeeeeeeeeeeeeeeeeeeeeeeeeeeeeee",
                "label": "Ether"
            }
        ]
    },
    "trace": {
        "accountLabels": null,
        "dataMap": {
            "-1": {
                "invocation": {
                    "address": "0x9feea2cf97c3dc1da7557345910cb3e9afd29101",
                    "callData": "",
                    "decodedMethod": null,
                    "errorInfo": "",
                    "fromAddress": "",
                    "gasUsed": 0,
                    "id": -1,
                    "methodDecoded": false,
                    "operation": "",
                    "output": "",
                    "revert": false,
                    "revertMessage": "",
                    "selector": "",
                    "status": false,
                    "value": ""
                },
                "nodeType": 0
            },
            "0": {
                "invocation": {
                    "address": "0x8a6ed334b561842b7bf3f8130be02afaf69832af",
                    "callData": "0x000000000000000000000000e25abf1f8c1359c6b81c3e8d55015e29bc2ec2ae0000000000000000000000000000000000000000000069e10de76676d0800000",
                    "decodedMethod": {
                        "callParams": [
                            {
                                "name": "recipient",
                                "type": "address",
                                "value": "0xe25abf1f8c1359c6b81c3e8d55015e29bc2ec2ae"
                            },
                            {
                                "decimalAvailable": true,
                                "name": "amount",
                                "type": "uint256",
                                "value": "500,000,000,000,000,000,000,000"
                            }
                        ],
                        "constructorArguments": "",
                        "name": "transfer",
                        "returnParams": [
                            {
                                "name": "",
                                "type": "bool",
                                "value": true
                            }
                        ],
                        "signature": "transfer(address,uint256)"
                    },
                    "errorInfo": "",
                    "fromAddress": "0x9feea2cf97c3dc1da7557345910cb3e9afd29101",
                    "gasUsed": 51865,
                    "id": 0,
                    "methodDecoded": true,
                    "operation": "CALL",
                    "output": "0x0000000000000000000000000000000000000000000000000000000000000001",
                    "revert": false,
                    "revertMessage": "",
                    "selector": "0xa9059cbb",
                    "status": true,
                    "value": "0"
                },
                "nodeType": 0
            },
            "1": {
                "event": {
                    "contract": "0x8a6ed334b561842b7bf3f8130be02afaf69832af",
                    "decodedLog": {
                        "name": "Transfer",
                        "params": [
                            {
                                "name": "from",
                                "type": "address",
                                "value": "0x9feea2cf97c3dc1da7557345910cb3e9afd29101"
                            },
                            {
                                "name": "to",
                                "type": "address",
                                "value": "0xe25abf1f8c1359c6b81c3e8d55015e29bc2ec2ae"
                            },
                            {
                                "decimalAvailable": true,
                                "name": "value",
                                "type": "uint256",
                                "value": "500,000,000,000,000,000,000,000"
                            }
                        ],
                        "signature": "Transfer(address,address,uint256)"
                    },
                    "id": 1,
                    "logData": "0x0000000000000000000000000000000000000000000069e10de76676d0800000",
                    "logDecoded": true,
                    "operation": "EVENT",
                    "revert": false,
                    "status": true,
                    "topics": [
                        "0xddf252ad1be2c89b69c2b068fc378daa952ba7f163c4a11628f55a4df523b3ef",
                        "0x0000000000000000000000009feea2cf97c3dc1da7557345910cb3e9afd29101",
                        "0x000000000000000000000000e25abf1f8c1359c6b81c3e8d55015e29bc2ec2ae"
                    ]
                },
                "nodeType": 1
            }
        },
        "gasFlame": [
            {
                "children": [
                    {
                        "children": [
                            {
                                "children": [],
                                "depth": 0,
                                "name": "Initial Gas",
                                "value": 21656
                            },
                            {
                                "children": [],
                                "depth": 0,
                                "name": "Executed Gas",
                                "value": 30209
                            }
                        ],
                        "depth": -1,
                        "name": "Actual Gas Used",
                        "value": 51865
                    },
                    {
                        "children": [],
                        "depth": -1,
                        "name": "Refunded Gas",
                        "value": 0
                    }
                ],
                "depth": -2,
                "name": "Total Gas",
                "value": 51865
            }
        ],
        "isConfirmed": true,
        "mainTrace": [
            {
                "children": [
                    {
                        "children": [
                            {
                                "children": [],
                                "depth": 1,
                                "id": 1,
                                "order": 1
                            }
                        ],
                        "depth": 0,
                        "id": 0,
                        "order": 0
                    }
                ],
                "depth": -1,
                "id": -1,
                "order": -1
            }
        ],
        "mainTraceNodeCount": 2,
        "parentIdMap": {
            "0": -1,
            "1": 0
        },
        "tidyTrace": [
            {
                "children": [
                    {
                        "children": [
                            {
                                "children": [],
                                "depth": 1,
                                "id": 1,
                                "order": 1
                            }
                        ],
                        "depth": 0,
                        "id": 0,
                        "order": 0
                    }
                ],
                "depth": -1,
                "id": -1,
                "order": -1
            }
        ],
        "tidyTraceNodeCount": 2
    },
    "state_change": {
        "stateChanges": [
            {
                "address": "0x8a6ed334b561842b7bf3f8130be02afaf69832af",
                "erc": "ERC-20",
                "slots": [
                    {
                        "current": "0x0000000000000000000000000000000000000000000069e10de76676d0800000",
                        "key": "0xa1b5f31d76d410d9600bf4c5d91cd8a63153d7ed5d81700f6b91596f7029234a",
                        "prev": "0x0000000000000000000000000000000000000000000000000000000000000000"
                    },
                    {
                        "current": "0x0000000000000000000000000000000000000000000227d7003fd13bb6d80000",
                        "key": "0x49ce15357634918d819a09220f4697daafb06d41ba4b1d48ce5db02024aa27b7",
                        "prev": "0x0000000000000000000000000000000000000000000291b80e2737b287580000"
                    }
                ],
                "storageVariables": [
                    {
                        "name": "_balances",
                        "type": "mapping(address => uint256)",
                        "value": {
                            "pairs": [
                                {
                                    "key": "0x9feea2cf97c3dc1da7557345910cb3e9afd29101",
                                    "value": {
                                        "current": "2605990000000000000000000",
                                        "prev": "3105990000000000000000000",
                                        "typeTag": 1
                                    }
                                },
                                {
                                    "key": "0xe25abf1f8c1359c6b81c3e8d55015e29bc2ec2ae",
                                    "value": {
                                        "current": "500000000000000000000000",
                                        "prev": "0",
                                        "typeTag": 1
                                    }
                                }
                            ],
                            "typeTag": 4
                        }
                    }
                ]
            }
        ]
    }
}