{
    "balance_change": {
        "balanceChanges": [
            {
                "account": "0x9bd8b16230a73dbf903fcbb6682bda578f66e407",
                "assets": [
                    {
                        "address": "0xeeeeeeeeeeeeeeeeeeeeeeeeeeeeeeeeeeeeeeee",
                        "amount": "0.552",
                        "iconUrl": "https://assets.blocksec.com/image/1663669189317-3.png",
                        "isERC1155": false,
                        "isERC721": false,
                        "sign": false,
                        "value": "1916.51088"
                    },
                    {
                        "address": "0x298d492e8c1d909d3f63bc4a36c66c64acb3d695",
                        "amount": "3,664.280876312831858882",
                        "iconUrl": "https://assets.blocksec.com/icon/e671a0d5571b57532a8202c67ceae0e15ef687197ee6459da9f1536552c7a3c8.png",
                        "isERC1155": false,
                        "isERC721": false,
                        "sign": true,
                        "value": "1871.957295"
                    }
                ]
            },
            {
                "account": "0x0000000000000000000000000000000000000000",
                "assets": [
                    {
                        "address": "0x298d492e8c1d909d3f63bc4a36c66c64acb3d695",
                        "amount": "1.841347174026548672",
                        "iconUrl": "https://assets.blocksec.com/icon/e671a0d5571b57532a8202c67ceae0e15ef687197ee6459da9f1536552c7a3c8.png",
                        "isERC1155": false,
                        "isERC721": false,
                        "sign": true,
                        "value": "0.94359583"
                    }
                ]
            },
            {
                "account": "0x75b8c48bdb04d426aed57b36bb835ad2dc321c30",
                "assets": [
                    {
                        "address": "0x298d492e8c1d909d3f63bc4a36c66c64acb3d695",
                        "amount": "16.572124566238938054",
                        "iconUrl": "https://assets.blocksec.com/icon/e671a0d5571b57532a8202c67ceae0e15ef687197ee6459da9f1536552c7a3c8.png",
                        "isERC1155": false,
                        "isERC721": false,
                        "sign": true,
                        "value": "8.49249497"
                    }
                ]
            },
            {
                "account": "0xc02aaa39b223fe8d0a0e5c4f27ead9083c756cc2",
                "assets": [
                    {
                        "address": "0xeeeeeeeeeeeeeeeeeeeeeeeeeeeeeeeeeeeeeeee",
                        "amount": "0.552",
                        "iconUrl": "https://assets.blocksec.com/image/1663669189317-3.png",
                        "isERC1155": false,
                        "isERC721": false,
                        "sign": true,
                        "value": "1916.51088"
                    },
                    {
                        "address": "0xc02aaa39b223fe8d0a0e5c4f27ead9083c756cc2",
                        "amount": "0.552",
                        "iconUrl": "https://assets.blocksec.com/icon/f1cb2d02c471d545bbc7722daf3277fd852d98e63d118771af7047bd8256c516.png",
                        "isERC1155": false,
                        "isERC721": false,
                        "sign": false,
                        "value": "1916.51088"
                    }
                ]
            },
            {
                "account": "0xcb37b0027858796ce60ecce4b54c45afdff02aca",
                "assets": [
                    {
                        "address": "0x298d492e8c1d909d3f63bc4a36c66c64acb3d695",
                        "amount": "3,682.694348053097345609",
                        "iconUrl": "https://assets.blocksec.com/icon/e671a0d5571b57532a8202c67ceae0e15ef687197ee6459da9f1536552c7a3c8.png",
                        "isERC1155": false,
                        "isERC721": false,
                        "sign": false,
                        "value": "1893.155913"
                    },
                    {
                        "address": "0xc02aaa39b223fe8d0a0e5c4f27ead9083c756cc2",
                        "amount": "0.552",
                        "iconUrl": "https://assets.blocksec.com/icon/f1cb2d02c471d545bbc7722daf3277fd852d98e63d118771af7047bd8256c516.png",
                        "isERC1155": false,
                        "isERC721": false,
                        "sign": true,
                        "value": "1916.51088"
                    }
                ]
            }
        ]
    },
    "profile": {
        "basic_info": {
            "baseFee": "55.062612589",
            "blockNumber": 13242698,
            "callData": "0x2e95b6c8000000000000000000000000000000000000000000000000000000000000000000000000000000000000000000000000000000000000000007a919134c0400000000000000000000000000000000000000000000000000c5a492ffd34b323f380000000000000000000000000000000000000000000000000000000000000080000000000000000000000000000000000000000000000000000000000000000180000000000000003b6d0340cb37b0027858796ce60ecce4b54c45afdff02aca",
            "debugEnable": true,
            "errorInfo": "",
            "eventCount": 7,
            "feeRecipient": "0x5a0b54d5dc17e0aadc383d2db43b0a0d3e029c4c",
            "formatValue": "0.552",
            "gasLimit": 186401,
            "gasPrice": "63.421993666",
            "gasUsed": 144397,
            "intTxnCount": 7,
            "internalRevert": false,
            "internalRevertMessage": "",
            "isContractCreation": false,
            "isFlashloan": false,
            "maxFee": "",
            "nonce": 24,
            "overwritedBlockNumber": -1,
            "priorityFee": "",
            "receiver": "0x11111112542d85b3ef69ae05771c2dccff4faa26",
            "revertMessage": "",
            "sender": "0x9bd8b16230a73dbf903fcbb6682bda578f66e407",
            "simulationEnable": true,
            "sourceTxnHash": "0x73852da166ac164232f805b93d441d20b9a10a7f897b1297c6a7ad69d4cd8293",
            "status": true,
            "timestamp": "2021-09-17T10:35:07Z",
            "transactionFee": "0.009157945619389402",
            "txnHash": "0x73852da166ac164232f805b93d441d20b9a10a7f897b1297c6a7ad69d4cd8293",
            "txnIndex": 23,
            "type": 0,
            "value": "552000000000000000"
        },
        "fund_flow": [
            {
                "amount": "0.552",
                "from": "0x9bd8b16230a73dbf903fcbb6682bda578f66e407",
                "id": 1,
                "isERC1155": false,
                "isERC721": false,
                "isReverted": false,
                "order": 1,
                "to": "0x11111112542d85b3ef69ae05771c2dccff4faa26",
                "token": "0xeeeeeeeeeeeeeeeeeeeeeeeeeeeeeeeeeeeeeeee"
            },
            {
                "amount": "0.552",
                "from": "0x11111112542d85b3ef69ae05771c2dccff4faa26",
                "id": 2,
                "isERC1155": false,
                "isERC721": false,
                "isReverted": false,
                "order": 2,
                "to": "0xc02aaa39b223fe8d0a0e5c4f27ead9083c756cc2",
                "token": "0xeeeeeeeeeeeeeeeeeeeeeeeeeeeeeeeeeeeeeeee"
            },
            {
                "amount": "0.552",
                "from": "0xc02aaa39b223fe8d0a0e5c4f27ead9083c756cc2",
                "id": 3,
                "isERC1155": false,
                "isERC721": false,
                "isReverted": false,
                "order": 3,
                "to": "0x11111112542d85b3ef69ae05771c2dccff4faa26",
                "token": "0xc02aaa39b223fe8d0a0e5c4f27ead9083c756cc2"
            },
            {
                "amount": "0.552",
                "from": "0x11111112542d85b3ef69ae05771c2dccff4faa26",
                "id": 4,
                "isERC1155": false,
                "isERC721": false,
                "isReverted": false,
                "order": 4,
                "to": "0xcb37b0027858796ce60ecce4b54c45afdff02aca",
                "token": "0xc02aaa39b223fe8d0a0e5c4f27ead9083c756cc2"
            },
            {
                "amount": "16.572124566238938054",
                "from": "0xcb37b0027858796ce60ecce4b54c45afdff02aca",
                "id": 5,
                "isERC1155": false,
                "isERC721": false,
                "isReverted": false,
                "order": 5,
                "to": "0x75b8c48bdb04d426aed57b36bb835ad2dc321c30",
                "token": "0x298d492e8c1d909d3f63bc4a36c66c64acb3d695"
            },
            {
                "amount": "1.841347174026548672",
                "from": "0xcb37b0027858796ce60ecce4b54c45afdff02aca",
                "id": 6,
                "isERC1155": false,
                "isERC721": false,
                "isReverted": false,
                "order": 6,
                "to": "0x0000000000000000000000000000000000000000",
                "token": "0x298d492e8c1d909d3f63bc4a36c66c64acb3d695"
            },
            {
                "amount": "3,664.280876312831858882",
                "from": "0xcb37b0027858796ce60ecce4b54c45afdff02aca",
                "id": 7,
                "isERC1155": false,
                "isERC721": false,
                "isReverted": false,
                "order": 7,
                "to": "0x9bd8b16230a73dbf903fcbb6682bda578f66e407",
                "token": "0x298d492e8c1d909d3f63bc4a36c66c64acb3d695"
            }
        ],
        "token_infos": [
            {
                "address": "0x298d492e8c1d909d3f63bc4a36c66c64acb3d695",
                "decimals": 18
            },
            {
                "address": "0xc02aaa39b223fe8d0a0e5c4f27ead9083c756cc2",
                "decimals": 18
            },
            {
                "address": "0xeeeeeeeeeeeeeeeeeeeeeeeeeeeeeeeeeeeeeeee",
                "decimals": 18
            }
        ]
    },
    "address_label": {
        "labels": [
            {
                "address": "0x0000000000000000000000000000000000000001",
                "label": "Precompiled"
            },
            {
                "address": "0x0000000000000000000000000000000000000002",
                "label": "Precompiled"
            },
            {
                "address": "0x11111112542d85b3ef69ae05771c2dccff4faa26",
                "label": "1inch v3: Aggregation Router"
            },
            {
                "address": "0xcb37b0027858796ce60ecce4b54c45afdff02aca",
                "label": "Uniswap V2: PBR 6"
            },
            {
                "address": "0x298d492e8c1d909d3f63bc4a36c66c64acb3d695",
                "label": "PolkaBridge: PBR Token"
            },
            {
                "address": "0x0000000000000000000000000000000000000000",
                "label": "Null Address"
            },
            {
                "address": "0xeeeeeeeeeeeeeeeeeeeeeeeeeeeeeeeeeeeeeeee",
                "label": "Ether"
            },
            {
                "address": "0xc02aaa39b223fe8d0a0e5c4f27ead9083c756cc2",
                "label": "Wrapped Ether (WETH)"
            },
            {
                "address": "0x0000000000000000000000000000000000000003",
                "label": "Precompiled"
            },
            {
                "address": "0x0000000000000000000000000000000000000004",
                "label": "Precompiled"
            }
        ]
    },
    "trace": {
        "accountLabels": null,
        "dataMap": {
            "-1": {
                "invocation": {
                    "address": "0x9bd8b16230a73dbf903fcbb6682bda578f66e407",
                    "callData": "",
                    "decodedMethod": null,
                    "errorInfo": "",
                    "fromAddress": "",
                    "gasUsed": 0,
                    "id": -1,
                    "methodDecoded": false,
                    "operation": "",
                    "output": "",
                    "revert": false,
                    "revertMessage": "",
                    "selector": "",
                    "status": false,
                    "value": ""
                },
                "nodeType": 0
            },
            "0": {
                "invocation": {
                    "address": "0x11111112542d85b3ef69ae05771c2dccff4faa26",
                    "callData": "0x000000000000000000000000000000000000000000000000000000000000000000000000000000000000000000000000000000000000000007a919134c0400000000000000000000000000000000000000000000000000c5a492ffd34b323f380000000000000000000000000000000000000000000000000000000000000080000000000000000000000000000000000000000000000000000000000000000180000000000000003b6d0340cb37b0027858796ce60ecce4b54c45afdff02aca",
                    "decodedMethod": {
                        "callParams": [
                            {
                                "name": "srcToken",
                                "type": "address",
                                "value": "0x0000000000000000000000000000000000000000"
                            },
                            {
                                "name": "amount",
                                "type": "uint256",
                                "value": "552,000,000,000,000,000"
                            },
                            {
                                "name": "minReturn",
                                "type": "uint256",
                                "value": "3,645,867,404,572,566,372,152"
                            },
                            {
                                "name": "",
                                "type": "bytes32[]",
                                "value": [
                                    "0x80000000000000003b6d0340cb37b0027858796ce60ecce4b54c45afdff02aca"
                                ]
                            }
                        ],
                        "constructorArguments": "",
                        "name": "unoswap",
                        "returnParams": [
                            {
                                "name": "returnAmount",
                                "type": "uint256",
                                "value": "3,682,694,348,053,097,345,609"
                            }
                        ],
                        "signature": "unoswap(address,uint256,uint256,bytes32[])"
                    },
                    "errorInfo": "",
                    "fromAddress": "0x9bd8b16230a73dbf903fcbb6682bda578f66e407",
                    "gasUsed": 144397,
                    "id": 0,
                    "methodDecoded": true,
                    "operation": "CALL",
                    "output": "0x0000000000000000000000000000000000000000000000c7a3a695cdaba1f249",
                    "revert": false,
                    "revertMessage": "",
                    "selector": "0x2e95b6c8",
                    "status": true,
                    "value": "0.552"
                },
                "nodeType": 0
            },
            "1": {
                "invocation": {
                    "address": "0xc02aaa39b223fe8d0a0e5c4f27ead9083c756cc2",
                    "callData": "0x",
                    "decodedMethod": {
                        "callParams": [],
                        "constructorArguments": "",
                        "name": "deposit",
                        "returnParams": [],
                        "signature": "deposit()"
                    },
                    "errorInfo": "",
                    "fromAddress": "0x11111112542d85b3ef69ae05771c2dccff4faa26",
                    "gasUsed": 6874,
                    "id": 1,
                    "methodDecoded": true,
                    "operation": "CALL",
                    "output": "",
                    "revert": false,
                    "revertMessage": "",
                    "selector": "0xd0e30db0",
                    "status": true,
                    "value": "0.552"
                },
                "nodeType": 0
            },
            "10": {
                "event": {
                    "contract": "0x298d492e8c1d909d3f63bc4a36c66c64acb3d695",
                    "decodedLog": {
                        "name": "Transfer",
                        "params": [
                            {
                                "name": "from",
                                "type": "address",
                                "value": "0xcb37b0027858796ce60ecce4b54c45afdff02aca"
                            },
                            {
                                "name": "to",
                                "type": "address",
                                "value": "0x9bd8b16230a73dbf903fcbb6682bda578f66e407"
                            },
                            {
                                "decimalAvailable": true,
                                "name": "value",
                                "type": "uint256",
                                "value": "3,664,280,876,312,831,858,882"
                            }
                        ],
                        "signature": "Transfer(address,address,uint256)"
                    },
                    "id": 10,
                    "logData": "0x0000000000000000000000000000000000000000000000c6a41ccad07b6a18c2",
                    "logDecoded": true,
                    "operation": "EVENT",
                    "revert": false,
                    "status": true,
                    "topics": [
                        "0xddf252ad1be2c89b69c2b068fc378daa952ba7f163c4a11628f55a4df523b3ef",
                        "0x000000000000000000000000cb37b0027858796ce60ecce4b54c45afdff02aca",
                        "0x0000000000000000000000009bd8b16230a73dbf903fcbb6682bda578f66e407"
                    ]
                },
                "nodeType": 1
            },
            "11": {
                "invocation": {
                    "address": "0x298d492e8c1d909d3f63bc4a36c66c64acb3d695",
                    "callData": "0x000000000000000000000000cb37b0027858796ce60ecce4b54c45afdff02aca",
                    "decodedMethod": {
                        "callParams": [
                            {
                                "name": "account",
                                "type": "address",
                                "value": "0xcb37b0027858796ce60ecce4b54c45afdff02aca"
                            }
                        ],
                        "constructorArguments": "",
                        "name": "balanceOf",
                        "returnParams": [
                            {
                                "decimalAvailable": true,
                                "name": "",
                                "type": "uint256",
                                "value": "1,172,638,547,957,073,765,907,357"
                            }
                        ],
                        "signature": "balanceOf(address)"
                    },
                    "errorInfo": "",
                    "fromAddress": "0xcb37b0027858796ce60ecce4b54c45afdff02aca",
                    "gasUsed": 519,
                    "id": 11,
                    "methodDecoded": true,
                    "operation": "STATICCALL",
                    "output": "0x00000000000000000000000000000000000000000000f850dcf19da88db2bb9d",
                    "revert": false,
                    "revertMessage": "",
                    "selector": "0x70a08231",
                    "status": true,
                    "value": "0"
                },
                "nodeType": 0
            },
            "12": {
                "invocation": {
                    "address": "0xc02aaa39b223fe8d0a0e5c4f27ead9083c756cc2",
                    "callData": "0x000000000000000000000000cb37b0027858796ce60ecce4b54c45afdff02aca",
                    "decodedMethod": {
                        "callParams": [
                            {
                                "name": "",
                                "type": "address",
                                "value": "0xcb37b0027858796ce60ecce4b54c45afdff02aca"
                            }
                        ],
                        "constructorArguments": "",
                        "name": "balanceOf",
                        "returnParams": [
                            {
                                "decimalAvailable": true,
                                "name": "",
                                "type": "uint256",
                                "value": "175,791,791,316,936,910,470"
                            }
                        ],
                        "signature": "balanceOf(address)"
                    },
                    "errorInfo": "",
                    "fromAddress": "0xcb37b0027858796ce60ecce4b54c45afdff02aca",
                    "gasUsed": 534,
                    "id": 12,
                    "methodDecoded": true,
                    "operation": "STATICCALL",
                    "output": "0x0000000000000000000000000000000000000000000000098799e6d1639f6686",
                    "revert": false,
                    "revertMessage": "",
                    "selector": "0x70a08231",
                    "status": true,
                    "value": "0"
                },
                "nodeType": 0
            },
            "13": {
                "event": {
                    "contract": "0xcb37b0027858796ce60ecce4b54c45afdff02aca",
                    "decodedLog": {
                        "name": "Sync",
                        "params": [
                            {
                                "name": "reserve0",
                                "type": "uint112",
                                "value": "1,172,638,547,957,073,765,907,357"
                            },
                            {
                                "name": "reserve1",
                                "type": "uint112",
                                "value": "175,791,791,316,936,910,470"
                            }
                        ],
                        "signature": "Sync(uint112,uint112)"
                    },
                    "id": 13,
                    "logData": "0x00000000000000000000000000000000000000000000f850dcf19da88db2bb9d0000000000000000000000000000000000000000000000098799e6d1639f6686",
                    "logDecoded": true,
                    "operation": "EVENT",
                    "revert": false,
                    "status": true,
                    "topics": [
                        "0x1c411e9a96e071241c2f21f7726b17ae89e3cab4c78be50e062b03a9fffbbad1"
                    ]
                },
                "nodeType": 1
            },
            "14": {
                "event": {
                    "contract": "0xcb37b0027858796ce60ecce4b54c45afdff02aca",
                    "decodedLog": {
                        "name": "Swap",
                        "params": [
                            {
                                "name": "sender",
                                "type": "address",
                                "value": "0x11111112542d85b3ef69ae05771c2dccff4faa26"
                            },
                            {
                                "name": "to",
                                "type": "address",
                                "value": "0x9bd8b16230a73dbf903fcbb6682bda578f66e407"
                            },
                            {
                                "name": "amount0In",
                                "type": "uint256",
                                "value": "0"
                            },
                            {
                                "name": "amount1In",
                                "type": "uint256",
                                "value": "552,000,000,000,000,000"
                            },
                            {
                                "name": "amount0Out",
                                "type": "uint256",
                                "value": "3,682,694,348,053,097,345,609"
                            },
                            {
                                "name": "amount1Out",
                                "type": "uint256",
                                "value": "0"
                            }
                        ],
                        "signature": "Swap(address,uint256,uint256,uint256,uint256,address)"
                    },
                    "id": 14,
                    "logData": "0x000000000000000000000000000000000000000000000000000000000000000000000000000000000000000000000000000000000000000007a919134c0400000000000000000000000000000000000000000000000000c7a3a695cdaba1f2490000000000000000000000000000000000000000000000000000000000000000",
                    "logDecoded": true,
                    "operation": "EVENT",
                    "revert": false,
                    "status": true,
                    "topics": [
                        "0xd78ad95fa46c994b6551d0da85fc275fe613ce37657fb8d5e3d130840159d822",
                        "0x00000000000000000000000011111112542d85b3ef69ae05771c2dccff4faa26",
                        "0x0000000000000000000000009bd8b16230a73dbf903fcbb6682bda578f66e407"
                    ]
                },
                "nodeType": 1
            },
            "2": {
                "event": {
                    "contract": "0xc02aaa39b223fe8d0a0e5c4f27ead9083c756cc2",
                    "decodedLog": {
                        "name": "Deposit",
                        "params": [
                            {
                                "name": "dst",
                                "type": "address",
                                "value": "0x11111112542d85b3ef69ae05771c2dccff4faa26"
                            },
                            {
                                "name": "wad",
                                "type": "uint256",
                                "value": "552,000,000,000,000,000"
                            }
                        ],
                        "signature": "Deposit(address,uint256)"
                    },
                    "id": 2,
                    "logData": "0x00000000000000000000000000000000000000000000000007a919134c040000",
                    "logDecoded": true,
                    "operation": "EVENT",
                    "revert": false,
                    "status": true,
                    "topics": [
                        "0xe1fffcc4923d04b559f4d29a8bfc6cda04eb5b0d3c460751c2402c5c5cc9109c",
                        "0x00000000000000000000000011111112542d85b3ef69ae05771c2dccff4faa26"
                    ]
                },
                "nodeType": 1
            },
            "3": {
                "invocation": {
                    "address": "0xc02aaa39b223fe8d0a0e5c4f27ead9083c756cc2",
                    "callData": "0x000000000000000000000000cb37b0027858796ce60ecce4b54c45afdff02aca00000000000000000000000000000000000000000000000007a919134c040000",
                    "decodedMethod": {
                        "callParams": [
                            {
                                "name": "dst",
                                "type": "address",
                                "value": "0xcb37b0027858796ce60ecce4b54c45afdff02aca"
                            },
                            {
                                "decimalAvailable": true,
                                "name": "wad",
                                "type": "uint256",
                                "value": "552,000,000,000,000,000"
                            }
                        ],
                        "constructorArguments": "",
                        "name": "transfer",
                        "returnParams": [
                            {
                                "name": "",
                                "type": "bool",
                                "value": true
                            }
                        ],
                        "signature": "transfer(address,uint256)"
                    },
                    "errorInfo": "",
                    "fromAddress": "0x11111112542d85b3ef69ae05771c2dccff4faa26",
                    "gasUsed": 8062,
                    "id": 3,
                    "methodDecoded": true,
                    "operation": "CALL",
                    "output": "0x0000000000000000000000000000000000000000000000000000000000000001",
                    "revert": false,
                    "revertMessage": "",
                    "selector": "0xa9059cbb",
                    "status": true,
                    "value": "0"
                },
                "nodeType": 0
            },
            "4": {
                "event": {
                    "contract": "0xc02aaa39b223fe8d0a0e5c4f27ead9083c756cc2",
                    "decodedLog": {
                        "name": "Transfer",
                        "params": [
                            {
                                "name": "src",
                                "type": "address",
                                "value": "0x11111112542d85b3ef69ae05771c2dccff4faa26"
                            },
                            {
                                "name": "dst",
                                "type": "address",
                                "value": "0xcb37b0027858796ce60ecce4b54c45afdff02aca"
                            },
                            {
                                "decimalAvailable": true,
                                "name": "wad",
                                "type": "uint256",
                                "value": "552,000,000,000,000,000"
                            }
                        ],
                        "signature": "Transfer(address,address,uint256)"
                    },
                    "id": 4,
                    "logData": "0x00000000000000000000000000000000000000000000000007a919134c040000",
                    "logDecoded": true,
                    "operation": "EVENT",
                    "revert": false,
                    "status": true,
                    "topics": [
                        "0xddf252ad1be2c89b69c2b068fc378daa952ba7f163c4a11628f55a4df523b3ef",
                        "0x00000000000000000000000011111112542d85b3ef69ae05771c2dccff4faa26",
                        "0x000000000000000000000000cb37b0027858796ce60ecce4b54c45afdff02aca"
                    ]
                },
                "nodeType": 1
            },
            "5": {
                "invocation": {
                    "address": "0xcb37b0027858796ce60ecce4b54c45afdff02aca",
                    "callData": "0x",
                    "decodedMethod": {
                        "callParams": [],
                        "constructorArguments": "",
                        "name": "getReserves",
                        "returnParams": [
                            {
                                "name": "_reserve0",
                                "type": "uint112",
                                "value": "1,176,321,242,305,126,863,252,966"
                            },
                            {
                                "name": "_reserve1",
                                "type": "uint112",
                                "value": "175,239,791,316,936,910,470"
                            },
                            {
                                "name": "_blockTimestampLast",
                                "type": "uint32",
                                "value": "1,631,874,178"
                            }
                        ],
                        "signature": "getReserves()"
                    },
                    "errorInfo": "",
                    "fromAddress": "0x11111112542d85b3ef69ae05771c2dccff4faa26",
                    "gasUsed": 2504,
                    "id": 5,
                    "methodDecoded": true,
                    "operation": "STATICCALL",
                    "output": "0x00000000000000000000000000000000000000000000f918809833763954ade60000000000000000000000000000000000000000000000097ff0cdbe179b66860000000000000000000000000000000000000000000000000000000061446c82",
                    "revert": false,
                    "revertMessage": "",
                    "selector": "0x0902f1ac",
                    "status": true,
                    "value": "0"
                },
                "nodeType": 0
            },
            "6": {
                "invocation": {
                    "address": "0xcb37b0027858796ce60ecce4b54c45afdff02aca",
                    "callData": "0x0000000000000000000000000000000000000000000000c7a3a695cdaba1f24900000000000000000000000000000000000000000000000000000000000000000000000000000000000000009bd8b16230a73dbf903fcbb6682bda578f66e40700000000000000000000000000000000000000000000000000000000000000800000000000000000000000000000000000000000000000000000000000000000",
                    "decodedMethod": {
                        "callParams": [
                            {
                                "name": "amount0Out",
                                "type": "uint256",
                                "value": "3,682,694,348,053,097,345,609"
                            },
                            {
                                "name": "amount1Out",
                                "type": "uint256",
                                "value": "0"
                            },
                            {
                                "name": "to",
                                "type": "address",
                                "value": "0x9bd8b16230a73dbf903fcbb6682bda578f66e407"
                            },
                            {
                                "name": "data",
                                "type": "bytes",
                                "value": "0x"
                            }
                        ],
                        "constructorArguments": "",
                        "name": "swap",
                        "returnParams": [],
                        "signature": "swap(uint256,uint256,address,bytes)"
                    },
                    "errorInfo": "",
                    "fromAddress": "0x11111112542d85b3ef69ae05771c2dccff4faa26",
                    "gasUsed": 99495,
                    "id": 6,
                    "methodDecoded": true,
                    "operation": "CALL",
                    "output": "",
                    "revert": false,
                    "revertMessage": "",
                    "selector": "0x022c0d9f",
                    "status": true,
                    "value": "0"
                },
                "nodeType": 0
            },
            "7": {
                "invocation": {
                    "address": "0x298d492e8c1d909d3f63bc4a36c66c64acb3d695",
                    "callData": "0x0000000000000000000000009bd8b16230a73dbf903fcbb6682bda578f66e4070000000000000000000000000000000000000000000000c7a3a695cdaba1f249",
                    "decodedMethod": {
                        "callParams": [
                            {
                                "name": "recipient",
                                "type": "address",
                                "value": "0x9bd8b16230a73dbf903fcbb6682bda578f66e407"
                            },
                            {
                                "decimalAvailable": true,
                                "name": "amount",
                                "type": "uint256",
                                "value": "3,682,694,348,053,097,345,609"
                            }
                        ],
                        "constructorArguments": "",
                        "name": "transfer",
                        "returnParams": [
                            {
                                "name": "",
                                "type": "bool",
                                "value": true
                            }
                        ],
                        "signature": "transfer(address,uint256)"
                    },
                    "errorInfo": "",
                    "fromAddress": "0xcb37b0027858796ce60ecce4b54c45afdff02aca",
                    "gasUsed": 64619,
                    "id": 7,
                    "methodDecoded": true,
                    "operation": "CALL",
                    "output": "0x0000000000000000000000000000000000000000000000000000000000000001",
                    "revert": false,
                    "revertMessage": "",
                    "selector": "0xa9059cbb",
                    "status": true,
                    "value": "0"
                },
                "nodeType": 0
            },
            "8": {
                "event": {
                    "contract": "0x298d492e8c1d909d3f63bc4a36c66c64acb3d695",
                    "decodedLog": {
                        "name": "Transfer",
                        "params": [
                            {
                                "name": "from",
                                "type": "address",
                                "value": "0xcb37b0027858796ce60ecce4b54c45afdff02aca"
                            },
                            {
                                "name": "to",
                                "type": "address",
                                "value": "0x75b8c48bdb04d426aed57b36bb835ad2dc321c30"
                            },
                            {
                                "decimalAvailable": true,
                                "name": "value",
                                "type": "uint256",
                                "value": "16,572,124,566,238,938,055"
                            }
                        ],
                        "signature": "Transfer(address,address,uint256)"
                    },
                    "id": 8,
                    "logData": "0x000000000000000000000000000000000000000000000000e5fc037d783243c7",
                    "logDecoded": true,
                    "operation": "EVENT",
                    "revert": false,
                    "status": true,
                    "topics": [
                        "0xddf252ad1be2c89b69c2b068fc378daa952ba7f163c4a11628f55a4df523b3ef",
                        "0x000000000000000000000000cb37b0027858796ce60ecce4b54c45afdff02aca",
                        "0x00000000000000000000000075b8c48bdb04d426aed57b36bb835ad2dc321c30"
                    ]
                },
                "nodeType": 1
            },
            "9": {
                "event": {
                    "contract": "0x298d492e8c1d909d3f63bc4a36c66c64acb3d695",
                    "decodedLog": {
                        "name": "Transfer",
                        "params": [
                            {
                                "name": "from",
                                "type": "address",
                                "value": "0xcb37b0027858796ce60ecce4b54c45afdff02aca"
                            },
                            {
                                "name": "to",
                                "type": "address",
                                "value": "0x0000000000000000000000000000000000000000"
                            },
                            {
                                "decimalAvailable": true,
                                "name": "value",
                                "type": "uint256",
                                "value": "1,841,347,174,026,548,672"
                            }
                        ],
                        "signature": "Transfer(address,address,uint256)"
                    },
                    "id": 9,
                    "logData": "0x000000000000000000000000000000000000000000000000198dc77fb80595c0",
                    "logDecoded": true,
                    "operation": "EVENT",
                    "revert": false,
                    "status": true,
                    "topics": [
                        "0xddf252ad1be2c89b69c2b068fc378daa952ba7f163c4a11628f55a4df523b3ef",
                        "0x000000000000000000000000cb37b0027858796ce60ecce4b54c45afdff02aca",
                        "0x0000000000000000000000000000000000000000000000000000000000000000"
                    ]
                },
                "nodeType": 1
            }
        },
        "gasFlame": [
            {
                "children": [
                    {
                        "children": [
                            {
                                "children": [],
                                "depth": 0,
                                "name": "Initial Gas",
                                "value": 22336
                            },
                            {
                                "children": [
                                    {
                                        "children": [],
                                        "depth": 1,
                                        "name": "deposit",
                                        "value": 6874
                                    },
                                    {
                                        "children": [],
                                        "depth": 1,
                                        "name": "transfer",
                                        "value": 8062
                                    },
                                    {
                                        "children": [],
                                        "depth": 1,
                                        "name": "getReserves",
                                        "value": 2504
                                    },
                                    {
                                        "children": [
                                            {
                                                "children": [],
                                                "depth": 2,
                                                "name": "transfer",
                                                "value": 64619
                                            },
                                            {
                                                "children": [],
                                                "depth": 2,
                                                "name": "balanceOf",
                                                "value": 519
                                            },
                                            {
                                                "children": [],
                                                "depth": 2,
                                                "name": "balanceOf",
                                                "value": 534
                                            }
                                        ],
                                        "depth": 1,
                                        "name": "swap",
                                        "value": 99495
                                    }
                                ],
                                "depth": 0,
                                "name": "Executed Gas",
                                "value": 130461
                            }
                        ],
                        "depth": -1,
                        "name": "Actual Gas Used",
                        "value": 144397
                    },
                    {
                        "children": [],
                        "depth": -1,
                        "name": "Refunded Gas",
                        "value": 8400
                    }
                ],
                "depth": -2,
                "name": "Total Gas",
                "value": 152797
            }
        ],
        "isConfirmed": true,
        "mainTrace": [
            {
                "children": [
                    {
                        "children": [
                            {
                                "children": [
                                    {
                                        "children": [],
                                        "depth": 2,
                                        "id": 2,
                                        "order": 2
                                    }
                                ],
                                "depth": 1,
                                "id": 1,
                                "order": 1
                            },
                            {
                                "children": [
                                    {
                                        "children": [],
                                        "depth": 2,
                                        "id": 4,
                                        "order": 4
                                    }
                                ],
                                "depth": 1,
                                "id": 3,
                                "order": 3
                            },
                            {
                                "children": [],
                                "depth": 1,
                                "id": 5,
                                "order": 5
                            },
                            {
                                "children": [
                                    {
                                        "children": [
                                            {
                                                "children": [],
                                                "depth": 3,
                                                "id": 8,
                                                "order": 8
                                            },
                                            {
                                                "children": [],
                                                "depth": 3,
                                                "id": 9,
                                                "order": 9
                                            },
                                            {
                                                "children": [],
                                                "depth": 3,
                                                "id": 10,
                                                "order": 10
                                            }
                                        ],
                                        "depth": 2,
                                        "id": 7,
                                        "order": 7
                                    },
                                    {
                                        "children": [],
                                        "depth": 2,
                                        "id": 11,
                                        "order": 11
                                    },
                                    {
                                        "children": [],
                                        "depth": 2,
                                        "id": 12,
                                        "order": 12
                                    },
                                    {
                                        "children": [],
                                        "depth": 2,
                                        "id": 13,
                                        "order": 13
                                    },
                                    {
                                        "children": [],
                                        "depth": 2,
                                        "id": 14,
                                        "order": 14
                                    }
                                ],
                                "depth": 1,
                                "id": 6,
                                "order": 6
                            }
                        ],
                        "depth": 0,
                        "id": 0,
                        "order": 0
                    }
                ],
                "depth": -1,
                "id": -1,
                "order": -1
            }
        ],
        "mainTraceNodeCount": 15,
        "parentIdMap": {
            "0": -1,
            "1": 0,
            "10": 7,
            "11": 6,
            "12": 6,
            "13": 6,
            "14": 6,
            "2": 1,
            "3": 0,
            "4": 3,
            "5": 0,
            "6": 0,
            "7": 6,
            "8": 7,
            "9": 7
        },
        "tidyTrace": [
            {
                "children": [
                    {
                        "children": [
                            {
                                "children": [
                                    {
                                        "children": [],
                                        "depth": 2,
                                        "id": 2,
                                        "order": 2
                                    }
                                ],
                                "depth": 1,
                                "id": 1,
                                "order": 1
                            },
                            {
                                "children": [
                                    {
                                        "children": [],
                                        "depth": 2,
                                        "id": 4,
                                        "order": 4
                                    }
                                ],
                                "depth": 1,
                                "id": 3,
                                "order": 3
                            },
                            {
                                "children": [
                                    {
                                        "children": [
                                            {
                                                "children": [],
                                                "depth": 3,
                                                "id": 8,
                                                "order": 8
                                            },
                                            {
                                                "children": [],
                                                "depth": 3,
                                                "id": 9,
                                                "order": 9
                                            },
                                            {
                                                "children": [],
                                                "depth": 3,
                                                "id": 10,
                                                "order": 10
                                            }
                                        ],
                                        "depth": 2,
                                        "id": 7,
                                        "order": 7
                                    },
                                    {
                                        "children": [],
                                        "depth": 2,
                                        "id": 13,
                                        "order": 13
                                    },
                                    {
                                        "children": [],
                                        "depth": 2,
                                        "id": 14,
                                        "order": 14
                                    }
                                ],
                                "depth": 1,
                                "id": 6,
                                "order": 6
                            }
                        ],
                        "depth": 0,
                        "id": 0,
                        "order": 0
                    }
                ],
                "depth": -1,
                "id": -1,
                "order": -1
            }
        ],
        "tidyTraceNodeCount": 12
    },
    "state_change": {
        "stateChanges": [
            {
                "address": "0x298d492e8c1d909d3f63bc4a36c66c64acb3d695",
                "erc": "ERC-20",
                "slots": [
                    {
                        "current": "0x0000000000000000000000000000000000000000000000c6a41ccad07b6a18c2",
                        "key": "0x2d580fe11c7f933a678504599d0fa16852424ed3de0dd235dce8bb68f656563b",
                        "prev": "0x0000000000000000000000000000000000000000000000000000000000000000"
                    },
                    {
                        "current": "0x00000000000000000000000000000000000000000000401f4df7ddec84310e8f",
                        "key": "0x40a0b1e3c04f048f08b37631a4dc4f9c8a67461cfea8ea8a272ad82fa8319c83",
                        "prev": "0x00000000000000000000000000000000000000000000401e67fbda6f0bfecac8"
                    },
                    {
                        "current": "0x00000000000000000000000000000000000000000000f850dcf19da88db2bb9d",
                        "key": "0xe9b4362d754ed84c5d7ba9f43768a79f286a2f68bbcb1b8bb611347752b63583",
                        "prev": "0x00000000000000000000000000000000000000000000f918809833763954ade6"
                    },
                    {
                        "current": "0x000000000000000000000000000000000000000000471ce60d2c446e9cef7031",
                        "key": "0x0000000000000000000000000000000000000000000000000000000000000003",
                        "prev": "0x000000000000000000000000000000000000000000471ce626ba0bee54f505f1"
                    }
                ],
                "storageVariables": [
                    {
                        "name": "_balances",
                        "type": "mapping(address => uint256)",
                        "value": {
                            "pairs": [
                                {
                                    "key": "0x75b8c48bdb04d426aed57b36bb835ad2dc321c30",
                                    "value": {
                                        "current": "302808922173010357587599",
                                        "prev": "302792350048444118649544",
                                        "typeTag": 1
                                    }
                                },
                                {
                                    "key": "0x9bd8b16230a73dbf903fcbb6682bda578f66e407",
                                    "value": {
                                        "current": "3664280876312831858882",
                                        "prev": "0",
                                        "typeTag": 1
                                    }
                                },
                                {
                                    "key": "0xcb37b0027858796ce60ecce4b54c45afdff02aca",
                                    "value": {
                                        "current": "1172638547957073765907357",
                                        "prev": "1176321242305126863252966",
                                        "typeTag": 1
                                    }
                                }
                            ],
                            "typeTag": 4
                        }
                    },
                    {
                        "name": "_totalSupply",
                        "type": "uint256",
                        "value": {
                            "current": "85970203154504838005354545",
                            "prev": "85970204995852012031903217",
                            "typeTag": 1
                        }
                    }
                ]
            },
            {
                "address": "0xc02aaa39b223fe8d0a0e5c4f27ead9083c756cc2",
                "erc": "ERC-20",
                "slots": [
                    {
                        "current": "0x0000000000000000000000000000000000000000000000098799e6d1639f6686",
                        "key": "0x10d77575eb729027beafcbb30bb067d4bd1d1bc71cf9ef08d02f660477189806",
                        "prev": "0x0000000000000000000000000000000000000000000000097ff0cdbe179b6686"
                    }
                ],
                "storageVariables": [
                    {
                        "name": "balanceOf",
                        "type": "mapping(address => uint256)",
                        "value": {
                            "pairs": [
                                {
                                    "key": "0xcb37b0027858796ce60ecce4b54c45afdff02aca",
                                    "value": {
                                        "current": "175791791316936910470",
                                        "prev": "175239791316936910470",
                                        "typeTag": 1
                                    }
                                }
                            ],
                            "typeTag": 4
                        }
                    }
                ]
            },
            {
                "address": "0xcb37b0027858796ce60ecce4b54c45afdff02aca",
                "erc": "ERC-20",
                "slots": [
                    {
                        "current": "0x000000000000000000000000004ed99a4fd69b9cd2dda2c7c17b5825d9f83e24",
                        "key": "0x000000000000000000000000000000000000000000000000000000000000000a",
                        "prev": "0x000000000000000000000000004ed94fa48dac19a7ca5fc8206b52e7ef5d0e55"
                    },
                    {
                        "current": "0x61446f5b0000000000098799e6d1639f668600000000f850dcf19da88db2bb9d",
                        "key": "0x0000000000000000000000000000000000000000000000000000000000000008",
                        "prev": "0x61446c820000000000097ff0cdbe179b668600000000f918809833763954ade6"
                    },
                    {
                        "current": "0x0000000000000000000000000000000004d522597411363b899df9a75eea0731",
                        "key": "0x0000000000000000000000000000000000000000000000000000000000000009",
                        "prev": "0x0000000000000000000000000000000004d5068c2b91cfc83f0502ef4ad95d9e"
                    }
                ],
                "storageVariables": [
                    {
                        "name": "price1CumulativeLast",
                        "type": "uint256",
                        "value": {
                            "current": "1758414001140405796161995454038253692448685604",
                            "prev": "1758388592568563105564873786048646445417696853",
                            "typeTag": 1
                        }
                    },
                    {
                        "name": "reserve0",
                        "type": "uint112",
                        "value": {
                            "current": "1172638547957073765907357",
                            "prev": "1176321242305126863252966",
                            "typeTag": 1
                        }
                    },
                    {
                        "name": "reserve1",
                        "type": "uint112",
                        "value": {
                            "current": "175791791316936910470",
                            "prev": "175239791316936910470",
                            "typeTag": 1
                        }
                    },
                    {
                        "name": "blockTimestampLast",
                        "type": "uint32",
                        "value": {
                            "current": "1631874907",
                            "prev": "1631874178",
                            "typeTag": 1
                        }
                    },
                    {
                        "name": "price0CumulativeLast",
                        "type": "uint256",
                        "value": {
                            "current": "6423567903161638687086492420737206065",
                            "prev": "6423004013892086573435797708922772894",
                            "typeTag": 1
                        }
                    }
                ]
            }
        ]
    }
}