{
    "balance_change": {
        "balanceChanges": []
    },
    "profile": {
        "basic_info": {
            "baseFee": "",
            "blockNumber": 8688319,
            "callData": "0x6d41b9a4000000000000000000000000b3ac44d735d7c652c43c1ca892907bf4e251d0e5000000000000000000000000c9e9b0a8e7ff9845ce6ce7853fe34e5eab8b72610000000000000000000000001e5482e0cae2ef01cd27a5fd1c41a1dba2bcf60c7574385370716e556953000000000000000000000000000000000000000000004e614e2c4e614e00000000000000000000000000000000000000000000000000",
            "debugEnable": true,
            "errorInfo": "",
            "eventCount": 1,
            "feeRecipient": "0x04668ec2f57cc15c381b461b9fedab5d451c8f7f",
            "formatValue": "0",
            "gasLimit": 156788,
            "gasPrice": "5",
            "gasUsed": 156788,
            "intTxnCount": 0,
            "internalRevert": false,
            "internalRevertMessage": "",
            "isContractCreation": false,
            "isFlashloan": false,
            "maxFee": "",
            "nonce": 1128,
            "overwritedBlockNumber": -1,
            "priorityFee": "",
            "receiver": "0x47e78681db746765775ea4a4d102a58eb7f766f3",
            "revertMessage": "",
            "sender": "0xa00043e725c108786f31cf09481743071a3264ae",
            "simulationEnable": true,
            "sourceTxnHash": "0x73d8bca1db66c51f6447b5da59d21933cbaa844520ae94622a9813ab56a370f1",
            "status": true,
            "timestamp": "2019-10-06T11:51:39Z",
            "transactionFee": "0.00078394",
            "txnHash": "0x73d8bca1db66c51f6447b5da59d21933cbaa844520ae94622a9813ab56a370f1",
            "txnIndex": 79,
            "type": 0,
            "value": "0"
        },
        "fund_flow": [],
        "token_infos": [
            {
                "address": "0xc02aaa39b223fe8d0a0e5c4f27ead9083c756cc2",
                "decimals": 18
            },
            {
                "address": "0xeeeeeeeeeeeeeeeeeeeeeeeeeeeeeeeeeeeeeeee",
                "decimals": 18
            }
        ]
    },
    "address_label": {
        "labels": [
            {
                "address": "0x0000000000000000000000000000000000000003",
                "label": "Precompiled"
            },
            {
                "address": "0x0000000000000000000000000000000000000004",
                "label": "Precompiled"
            },
            {
                "address": "0xeeeeeeeeeeeeeeeeeeeeeeeeeeeeeeeeeeeeeeee",
                "label": "Ether"
            },
            {
                "address": "0x47e78681db746765775ea4a4d102a58eb7f766f3",
                "label": "SuperOneSpots"
            },
            {
                "address": "0x0000000000000000000000000000000000000001",
                "label": "Precompiled"
            },
            {
                "address": "0x0000000000000000000000000000000000000002",
                "label": "Precompiled"
            }
        ]
    },
    "trace": {
        "accountLabels": null,
        "dataMap": {
            "-1": {
                "invocation": {
                    "address": "0xa00043e725c108786f31cf09481743071a3264ae",
                    "callData": "",
                    "decodedMethod": null,
                    "errorInfo": "",
                    "fromAddress": "",
                    "gasUsed": 0,
                    "id": -1,
                    "methodDecoded": false,
                    "operation": "",
                    "output": "",
                    "revert": false,
                    "revertMessage": "",
                    "selector": "",
                    "status": false,
                    "value": ""
                },
                "nodeType": 0
            },
            "0": {
                "invocation": {
                    "address": "0x47e78681db746765775ea4a4d102a58eb7f766f3",
                    "callData": "0x000000000000000000000000b3ac44d735d7c652c43c1ca892907bf4e251d0e5000000000000000000000000c9e9b0a8e7ff9845ce6ce7853fe34e5eab8b72610000000000000000000000001e5482e0cae2ef01cd27a5fd1c41a1dba2bcf60c7574385370716e556953000000000000000000000000000000000000000000004e614e2c4e614e00000000000000000000000000000000000000000000000000",
                    "decodedMethod": {
                        "callParams": [
                            {
                                "name": "_internal_wallet_address",
                                "type": "address",
                                "value": "0xb3ac44d735d7c652c43c1ca892907bf4e251d0e5"
                            },
                            {
                                "name": "_external_wallet_address",
                                "type": "address",
                                "value": "0xc9e9b0a8e7ff9845ce6ce7853fe34e5eab8b7261"
                            },
                            {
                                "name": "_referrer",
                                "type": "address",
                                "value": "0x1e5482e0cae2ef01cd27a5fd1c41a1dba2bcf60c"
                            },
                            {
                                "name": "_nick_name",
                                "type": "bytes32",
                                "value": "0x7574385370716e55695300000000000000000000000000000000000000000000"
                            },
                            {
                                "name": "_geo_location",
                                "type": "bytes32",
                                "value": "0x4e614e2c4e614e00000000000000000000000000000000000000000000000000"
                            }
                        ],
                        "constructorArguments": "",
                        "name": "registerUser",
                        "returnParams": [],
                        "signature": "registerUser(address,address,address,bytes32,bytes32)"
                    },
                    "errorInfo": "",
                    "fromAddress": "0xa00043e725c108786f31cf09481743071a3264ae",
                    "gasUsed": 156788,
                    "id": 0,
                    "methodDecoded": true,
                    "operation": "CALL",
                    "output": "",
                    "revert": false,
                    "revertMessage": "",
                    "selector": "0x6d41b9a4",
                    "status": true,
                    "value": "0"
                },
                "nodeType": 0
            },
            "1": {
                "event": {
                    "contract": "0x47e78681db746765775ea4a4d102a58eb7f766f3",
                    "decodedLog": {
                        "name": "UserRegistered",
                        "params": [
                            {
                                "name": "internal_wallet_address",
                                "type": "address",
                                "value": "0xb3ac44d735d7c652c43c1ca892907bf4e251d0e5"
                            },
                            {
                                "name": "external_wallet_address",
                                "type": "address",
                                "value": "0xc9e9b0a8e7ff9845ce6ce7853fe34e5eab8b7261"
                            },
                            {
                                "name": "referrer",
                                "type": "address",
                                "value": "0x1e5482e0cae2ef01cd27a5fd1c41a1dba2bcf60c"
                            },
                            {
                                "name": "nick_name",
                                "type": "bytes32",
                                "value": "0x7574385370716e55695300000000000000000000000000000000000000000000"
                            },
                            {
                                "name": "geo_location",
                                "type": "bytes32",
                                "value": "0x4e614e2c4e614e00000000000000000000000000000000000000000000000000"
                            }
                        ],
                        "signature": "UserRegistered(address,address,address,bytes32,bytes32)"
                    },
                    "id": 1,
                    "logData": "0x000000000000000000000000b3ac44d735d7c652c43c1ca892907bf4e251d0e5000000000000000000000000c9e9b0a8e7ff9845ce6ce7853fe34e5eab8b72610000000000000000000000001e5482e0cae2ef01cd27a5fd1c41a1dba2bcf60c7574385370716e556953000000000000000000000000000000000000000000004e614e2c4e614e00000000000000000000000000000000000000000000000000",
                    "logDecoded": true,
                    "operation": "EVENT",
                    "revert": false,
                    "status": true,
                    "topics": [
                        "0x22be37bc6c0b833caa1bf8f78d49e9fa5ed03c52260bf3fdcf41addf4d288057"
                    ]
                },
                "nodeType": 1
            }
        },
        "gasFlame": [
            {
                "children": [
                    {
                        "children": [
                            {
                                "children": [],
                                "depth": 0,
                                "name": "Initial Gas",
                                "value": 26840
                            },
                            {
                                "children": [],
                                "depth": 0,
                                "name": "Executed Gas",
                                "value": 129948
                            }
                        ],
                        "depth": -1,
                        "name": "Actual Gas Used",
                        "value": 156788
                    },
                    {
                        "children": [],
                        "depth": -1,
                        "name": "Refunded Gas",
                        "value": 0
                    }
                ],
                "depth": -2,
                "name": "Total Gas",
                "value": 156788
            }
        ],
        "isConfirmed": true,
        "mainTrace": [
            {
                "children": [
                    {
                        "children": [
                            {
                                "children": [],
                                "depth": 1,
                                "id": 1,
                                "order": 1
                            }
                        ],
                        "depth": 0,
                        "id": 0,
                        "order": 0
                    }
                ],
                "depth": -1,
                "id": -1,
                "order": -1
            }
        ],
        "mainTraceNodeCount": 2,
        "parentIdMap": {
            "0": -1,
            "1": 0
        },
        "tidyTrace": [
            {
                "children": [
                    {
                        "children": [
                            {
                                "children": [],
                                "depth": 1,
                                "id": 1,
                                "order": 1
                            }
                        ],
                        "depth": 0,
                        "id": 0,
                        "order": 0
                    }
                ],
                "depth": -1,
                "id": -1,
                "order": -1
            }
        ],
        "tidyTraceNodeCount": 2
    },
    "state_change": {
        "stateChanges": [
            {
                "address": "0x47e78681db746765775ea4a4d102a58eb7f766f3",
                "erc": "",
                "slots": [
                    {
                        "current": "0x0000000000000000000000000000000000000000000000000000000000000003",
                        "key": "0x4617caa57173abb9d1d0cdaaff3881bfff8a97f9bf7fdfd2d1d2b53ecfe89ec7",
                        "prev": "0x0000000000000000000000000000000000000000000000000000000000000002"
                    },
                    {
                        "current": "0x000000000000000000000000c9e9b0a8e7ff9845ce6ce7853fe34e5eab8b7261",
                        "key": "0x84abcd7ad32c9e92ab29ef272662d40abac5b329802377d44c6d2e0ec4fbaf18",
                        "prev": "0x0000000000000000000000000000000000000000000000000000000000000000"
                    },
                    {
                        "current": "0x000000000000000000000000c9e9b0a8e7ff9845ce6ce7853fe34e5eab8b7261",
                        "key": "0xaa4e43773dfde5e7956e042daa44ce09d14741f38cb76537060023e0191387ae",
                        "prev": "0x0000000000000000000000000000000000000000000000000000000000000000"
                    },
                    {
                        "current": "0x000000000000000000000000b3ac44d735d7c652c43c1ca892907bf4e251d0e5",
                        "key": "0xf7165b42875ac231d8ea46ac3c7adb8d443660e8e1c2d6acfcc98023e8a263e1",
                        "prev": "0x0000000000000000000000000000000000000000000000000000000000000000"
                    },
                    {
                        "current": "0x7574385370716e55695300000000000000000000000000000000000000000000",
                        "key": "0xcfb50beb3000a43262fef19df2235262eb01afb3a0b93d47469d65fb9edcb12d",
                        "prev": "0x0000000000000000000000000000000000000000000000000000000000000000"
                    },
                    {
                        "current": "0x0000000000000000000000001e5482e0cae2ef01cd27a5fd1c41a1dba2bcf60c",
                        "key": "0xcfb50beb3000a43262fef19df2235262eb01afb3a0b93d47469d65fb9edcb12e",
                        "prev": "0x0000000000000000000000000000000000000000000000000000000000000000"
                    },
                    {
                        "current": "0x4e614e2c4e614e00000000000000000000000000000000000000000000000000",
                        "key": "0xcfb50beb3000a43262fef19df2235262eb01afb3a0b93d47469d65fb9edcb12f",
                        "prev": "0x0000000000000000000000000000000000000000000000000000000000000000"
                    }
                ],
                "storageVariables": [
                    {
                        "name": "referees",
                        "type": "mapping(address => address[])",
                        "value": {
                            "pairs": [
                                {
                                    "key": "0x1e5482e0cae2ef01cd27a5fd1c41a1dba2bcf60c",
                                    "value": {
                                        "elemType": "address",
                                        "elems": [
                                            {
                                                "index": 2,
                                                "value": {
                                                    "current": "0xc9e9b0a8e7ff9845ce6ce7853fe34e5eab8b7261",
                                                    "prev": "0x0000000000000000000000000000000000000000",
                                                    "typeTag": 1
                                                }
                                            }
                                        ],
                                        "typeTag": 2
                                    }
                                }
                            ],
                            "typeTag": 4
                        }
                    },
                    {
                        "name": "internal_to_external",
                        "type": "mapping(address => address)",
                        "value": {
                            "pairs": [
                                {
                                    "key": "0xb3ac44d735d7c652c43c1ca892907bf4e251d0e5",
                                    "value": {
                                        "current": "0xc9e9b0a8e7ff9845ce6ce7853fe34e5eab8b7261",
                                        "prev": "0x0000000000000000000000000000000000000000",
                                        "typeTag": 1
                                    }
                                }
                            ],
                            "typeTag": 4
                        }
                    },
                    {
                        "name": "external_to_internal",
                        "type": "mapping(address => address)",
                        "value": {
                            "pairs": [
                                {
                                    "key": "0xc9e9b0a8e7ff9845ce6ce7853fe34e5eab8b7261",
                                    "value": {
                                        "current": "0xb3ac44d735d7c652c43c1ca892907bf4e251d0e5",
                                        "prev": "0x0000000000000000000000000000000000000000",
                                        "typeTag": 1
                                    }
                                }
                            ],
                            "typeTag": 4
                        }
                    },
                    {
                        "name": "users",
                        "type": "mapping(address => struct User.UserDetails)",
                        "value": {
                            "pairs": [
                                {
                                    "key": "0xc9e9b0a8e7ff9845ce6ce7853fe34e5eab8b7261",
                                    "value": {
                                        "fields": [
                                            {
                                                "name": "nick_name",
                                                "type": "bytes32",
                                                "value": {
                                                    "current": "0x7574385370716e55695300000000000000000000000000000000000000000000",
                                                    "prev": "0x0000000000000000000000000000000000000000000000000000000000000000",
                                                    "typeTag": 1
                                                }
                                            },
                                            {
                                                "name": "referrer",
                                                "type": "address payable",
                                                "value": {
                                                    "current": "0x1e5482e0cae2ef01cd27a5fd1c41a1dba2bcf60c",
                                                    "prev": "0x0000000000000000000000000000000000000000",
                                                    "typeTag": 1
                                                }
                                            },
                                            {
                                                "name": "geo_location",
                                                "type": "bytes32",
                                                "value": {
                                                    "current": "0x4e614e2c4e614e00000000000000000000000000000000000000000000000000",
                                                    "prev": "0x0000000000000000000000000000000000000000000000000000000000000000",
                                                    "typeTag": 1
                                                }
                                            }
                                        ],
                                        "typeTag": 3
                                    }
                                }
                            ],
                            "typeTag": 4
                        }
                    }
                ]
            }
        ]
    }
}