{
    "balance_change": {
        "balanceChanges": [
            {
                "account": "0xc400b9d93a23b0be5d41ab337ad605988aef8463",
                "assets": [
                    {
                        "address": "0xeeeeeeeeeeeeeeeeeeeeeeeeeeeeeeeeeeeeeeee",
                        "amount": "0.000000000000000001",
                        "iconUrl": "https://assets.blocksec.com/image/1663669189317-3.png",
                        "isERC1155": false,
                        "isERC721": false,
                        "sign": false,
                        "value": ""
                    }
                ]
            },
            {
                "account": "0xad62f56a03334b647e55dbdb5b8642c24605a801",
                "assets": [
                    {
                        "address": "0xeeeeeeeeeeeeeeeeeeeeeeeeeeeeeeeeeeeeeeee",
                        "amount": "0.000000000000000001",
                        "iconUrl": "https://assets.blocksec.com/image/1663669189317-3.png",
                        "isERC1155": false,
                        "isERC721": false,
                        "sign": true,
                        "value": ""
                    }
                ]
            },
            {
                "account": "0x36895fcb3492c0d5a78b99525e62edd50655b316",
                "assets": [
                    {
                        "address": "0x225bc3affc1da39bd3cb2100c74a41c62310d1e1",
                        "amount": "50,051,000",
                        "iconUrl": "",
                        "isERC1155": false,
                        "isERC721": false,
                        "sign": false,
                        "value": ""
                    }
                ]
            },
            {
                "account": "0x562ccfef171dec7973811035bf7c73c59937d6c7",
                "assets": [
                    {
                        "address": "0x225bc3affc1da39bd3cb2100c74a41c62310d1e1",
                        "amount": "50,051,000",
                        "iconUrl": "",
                        "isERC1155": false,
                        "isERC721": false,
                        "sign": true,
                        "value": ""
                    }
                ]
            }
        ]
    },
    "profile": {
        "basic_info": {
            "baseFee": "",
            "blockNumber": 1214887,
            "callData": "0x3ed4867900000000000000000000000036895fcb3492c0d5a78b99525e62edd50655b3160000000000000000000000000000000000000000000000000000000056f53d1100000000000000000000000000000000000000000000000000000000000000c000000000000000000000000000000000000000000000000000000000000001a0000000000000000000000000562ccfef171dec7973811035bf7c73c59937d6c70000000000000000000000000000000000000000000000000000000002fbb7b800000000000000000000000000000000000000000000000000000000000000066b187ceaf6f370757cc1871a68e16395392a211a446842602623918476eb02733c753c1caeb6abdbea947bec701f06d015a790ab545ae192606382dd5d93ff8c5031a894f770e760c96146a18ca5240f41105e3b844fefdca68b0c8a2c3bd25f62c1bd5116a85e7cb865c94e507c15ac440ec3d975fe5cda509739081c0758b1dd98197f43615564c93f23dc9d2b442d76f3f0fbea8e4fde6685c496d547d5cf200f9f350f4fa1c8a8bc3356a77be0d953deedf52a3bfa462442ed88f9a48bab0000000000000000000000000000000000000000000000000000000000000003000000000000000000000000000000000000000000000000000000000000001c000000000000000000000000000000000000000000000000000000000000001b000000000000000000000000000000000000000000000000000000000000001c",
            "debugEnable": true,
            "errorInfo": "",
            "eventCount": 4,
            "feeRecipient": "0x790b8a3ce86e707ed0ed32bf89b3269692a23cc1",
            "formatValue": "0.000000000000000001",
            "gasLimit": 300000,
            "gasPrice": "20",
            "gasUsed": 85264,
            "intTxnCount": 12,
            "internalRevert": false,
            "internalRevertMessage": "",
            "isContractCreation": false,
            "isFlashloan": false,
            "maxFee": "",
            "nonce": 42482,
            "overwritedBlockNumber": -1,
            "priorityFee": "",
            "receiver": "0xad62f56a03334b647e55dbdb5b8642c24605a801",
            "revertMessage": "",
            "sender": "0xc400b9d93a23b0be5d41ab337ad605988aef8463",
            "simulationEnable": true,
            "sourceTxnHash": "0x73f0c8849e3cd3cde6b404e8495994a4d8ae7c12a556fbe8a0f137797e3db8d4",
            "status": true,
            "timestamp": "2016-03-25T13:28:53Z",
            "transactionFee": "0.00170528",
            "txnHash": "0x73f0c8849e3cd3cde6b404e8495994a4d8ae7c12a556fbe8a0f137797e3db8d4",
            "txnIndex": 13,
            "type": 0,
            "value": "1"
        },
        "fund_flow": [
            {
                "amount": "0.000000000000000001",
                "from": "0xc400b9d93a23b0be5d41ab337ad605988aef8463",
                "id": 1,
                "isERC1155": false,
                "isERC721": false,
                "isReverted": false,
                "order": 1,
                "to": "0xad62f56a03334b647e55dbdb5b8642c24605a801",
                "token": "0xeeeeeeeeeeeeeeeeeeeeeeeeeeeeeeeeeeeeeeee"
            },
            {
                "amount": "50,051,000",
                "from": "0x36895fcb3492c0d5a78b99525e62edd50655b316",
                "id": 3,
                "isERC1155": false,
                "isERC721": false,
                "isReverted": false,
                "order": 2,
                "to": "0x562ccfef171dec7973811035bf7c73c59937d6c7",
                "token": "0x225bc3affc1da39bd3cb2100c74a41c62310d1e1"
            }
        ],
        "token_infos": [
            {
                "address": "0x225bc3affc1da39bd3cb2100c74a41c62310d1e1",
                "decimals": 0
            },
            {
                "address": "0xc02aaa39b223fe8d0a0e5c4f27ead9083c756cc2",
                "decimals": 18
            },
            {
                "address": "0xeeeeeeeeeeeeeeeeeeeeeeeeeeeeeeeeeeeeeeee",
                "decimals": 18
            }
        ]
    },
    "address_label": {
        "labels": [
            {
                "address": "0xeeeeeeeeeeeeeeeeeeeeeeeeeeeeeeeeeeeeeeee",
                "label": "Ether"
            },
            {
                "address": "0x225bc3affc1da39bd3cb2100c74a41c62310d1e1",
                "label": "elcoin"
            },
            {
                "address": "0x276c5c6ca8507ed7bac085fc9b9521f4f54b58d3",
                "label": "ElcoinDb"
            },
            {
                "address": "0x0000000000000000000000000000000000000001",
                "label": "Precompiled"
            },
            {
                "address": "0x0000000000000000000000000000000000000002",
                "label": "Precompiled"
            },
            {
                "address": "0x0000000000000000000000000000000000000003",
                "label": "Precompiled"
            },
            {
                "address": "0x0000000000000000000000000000000000000004",
                "label": "Precompiled"
            }
        ]
    },
    "trace": {
        "accountLabels": null,
        "dataMap": {
            "-1": {
                "invocation": {
                    "address": "0xc400b9d93a23b0be5d41ab337ad605988aef8463",
                    "callData": "",
                    "decodedMethod": null,
                    "errorInfo": "",
                    "fromAddress": "",
                    "gasUsed": 0,
                    "id": -1,
                    "methodDecoded": false,
                    "operation": "",
                    "output": "",
                    "revert": false,
                    "revertMessage": "",
                    "selector": "",
                    "status": false,
                    "value": ""
                },
                "nodeType": 0
            },
            "0": {
                "invocation": {
                    "address": "0xad62f56a03334b647e55dbdb5b8642c24605a801",
                    "callData": "0x00000000000000000000000036895fcb3492c0d5a78b99525e62edd50655b3160000000000000000000000000000000000000000000000000000000056f53d1100000000000000000000000000000000000000000000000000000000000000c000000000000000000000000000000000000000000000000000000000000001a0000000000000000000000000562ccfef171dec7973811035bf7c73c59937d6c70000000000000000000000000000000000000000000000000000000002fbb7b800000000000000000000000000000000000000000000000000000000000000066b187ceaf6f370757cc1871a68e16395392a211a446842602623918476eb02733c753c1caeb6abdbea947bec701f06d015a790ab545ae192606382dd5d93ff8c5031a894f770e760c96146a18ca5240f41105e3b844fefdca68b0c8a2c3bd25f62c1bd5116a85e7cb865c94e507c15ac440ec3d975fe5cda509739081c0758b1dd98197f43615564c93f23dc9d2b442d76f3f0fbea8e4fde6685c496d547d5cf200f9f350f4fa1c8a8bc3356a77be0d953deedf52a3bfa462442ed88f9a48bab0000000000000000000000000000000000000000000000000000000000000003000000000000000000000000000000000000000000000000000000000000001c000000000000000000000000000000000000000000000000000000000000001b000000000000000000000000000000000000000000000000000000000000001c",
                    "decodedMethod": null,
                    "errorInfo": "",
                    "fromAddress": "0xc400b9d93a23b0be5d41ab337ad605988aef8463",
                    "gasUsed": 85264,
                    "id": 0,
                    "methodDecoded": false,
                    "operation": "CALL",
                    "output": "0x0000000000000000000000000000000000000000000000000000000000000001",
                    "revert": false,
                    "revertMessage": "",
                    "selector": "0x3ed48679",
                    "status": true,
                    "value": "0.000000000000000001"
                },
                "nodeType": 0
            },
            "1": {
                "invocation": {
                    "address": "0xce81bc335ec2818b5926299ab65b7f2a7d882208",
                    "callData": "0x61636365737331000000000000000000000000000000000000000000000000007369676e65720000000000000000000000000000000000000000000000000000000000000000000000000000c400b9d93a23b0be5d41ab337ad605988aef8463",
                    "decodedMethod": null,
                    "errorInfo": "",
                    "fromAddress": "0xad62f56a03334b647e55dbdb5b8642c24605a801",
                    "gasUsed": 2066,
                    "id": 1,
                    "methodDecoded": false,
                    "operation": "CALL",
                    "output": "0x0000000000000000000000000000000000000000000000000000000000000001",
                    "revert": false,
                    "revertMessage": "",
                    "selector": "0xa1add510",
                    "status": true,
                    "value": "0"
                },
                "nodeType": 0
            },
            "10": {
                "invocation": {
                    "address": "0x276c5c6ca8507ed7bac085fc9b9521f4f54b58d3",
                    "callData": "0x000000000000000000000000562ccfef171dec7973811035bf7c73c59937d6c70000000000000000000000000000000000000000000000000000000002faf43500000000000000000000000000000000000000000000000000000000000000000000000000000000000000000000000000000000000000000000000000000000",
                    "decodedMethod": {
                        "callParams": [
                            {
                                "name": "addr",
                                "type": "address",
                                "value": "0x562ccfef171dec7973811035bf7c73c59937d6c7"
                            },
                            {
                                "name": "amount",
                                "type": "uint256",
                                "value": "50,000,949"
                            },
                            {
                                "name": "hash",
                                "type": "bytes32",
                                "value": "0x0000000000000000000000000000000000000000000000000000000000000000"
                            },
                            {
                                "name": "time",
                                "type": "uint256",
                                "value": "0"
                            }
                        ],
                        "constructorArguments": "",
                        "name": "deposit",
                        "returnParams": [
                            {
                                "name": "res",
                                "type": "bool",
                                "value": true
                            }
                        ],
                        "signature": "deposit(address,uint256,bytes32,uint256)"
                    },
                    "errorInfo": "",
                    "fromAddress": "0x225bc3affc1da39bd3cb2100c74a41c62310d1e1",
                    "gasUsed": 8060,
                    "id": 10,
                    "methodDecoded": true,
                    "operation": "CALL",
                    "output": "0x0000000000000000000000000000000000000000000000000000000000000001",
                    "revert": false,
                    "revertMessage": "",
                    "selector": "0xec2ac54e",
                    "status": true,
                    "value": "0"
                },
                "nodeType": 0
            },
            "11": {
                "event": {
                    "contract": "0x276c5c6ca8507ed7bac085fc9b9521f4f54b58d3",
                    "decodedLog": {
                        "name": "Transaction",
                        "params": [
                            {
                                "name": "hash",
                                "type": "bytes32",
                                "value": "0x0000000000000000000000000000000000000000000000000000000000000000"
                            },
                            {
                                "name": "from",
                                "type": "address",
                                "value": "0x0000000000000000000000000000000000000000"
                            },
                            {
                                "name": "to",
                                "type": "address",
                                "value": "0x562ccfef171dec7973811035bf7c73c59937d6c7"
                            },
                            {
                                "name": "time",
                                "type": "uint256",
                                "value": "0"
                            },
                            {
                                "name": "amount",
                                "type": "uint256",
                                "value": "50,000,949"
                            }
                        ],
                        "signature": "Transaction(bytes32,address,address,uint256,uint256)"
                    },
                    "id": 11,
                    "logData": "0x00000000000000000000000000000000000000000000000000000000000000000000000000000000000000000000000000000000000000000000000002faf435",
                    "logDecoded": true,
                    "operation": "EVENT",
                    "revert": false,
                    "status": true,
                    "topics": [
                        "0xea0f544916910bb1ff33390cbe54a3f5d36d298328578399311cde3c9a750686",
                        "0x0000000000000000000000000000000000000000000000000000000000000000",
                        "0x0000000000000000000000000000000000000000000000000000000000000000",
                        "0x000000000000000000000000562ccfef171dec7973811035bf7c73c59937d6c7"
                    ]
                },
                "nodeType": 1
            },
            "12": {
                "event": {
                    "contract": "0x225bc3affc1da39bd3cb2100c74a41c62310d1e1",
                    "decodedLog": {
                        "name": "Transfer",
                        "params": [
                            {
                                "name": "from",
                                "type": "address",
                                "value": "0x36895fcb3492c0d5a78b99525e62edd50655b316"
                            },
                            {
                                "name": "to",
                                "type": "address",
                                "value": "0x562ccfef171dec7973811035bf7c73c59937d6c7"
                            },
                            {
                                "decimalAvailable": true,
                                "name": "value",
                                "type": "uint256",
                                "value": "50,051,000"
                            }
                        ],
                        "signature": "Transfer(address,address,uint256)"
                    },
                    "id": 12,
                    "logData": "0x0000000000000000000000000000000000000000000000000000000002fbb7b8",
                    "logDecoded": true,
                    "operation": "EVENT",
                    "revert": false,
                    "status": true,
                    "topics": [
                        "0xddf252ad1be2c89b69c2b068fc378daa952ba7f163c4a11628f55a4df523b3ef",
                        "0x00000000000000000000000036895fcb3492c0d5a78b99525e62edd50655b316",
                        "0x000000000000000000000000562ccfef171dec7973811035bf7c73c59937d6c7"
                    ]
                },
                "nodeType": 1
            },
            "13": {
                "invocation": {
                    "address": "0x276c5c6ca8507ed7bac085fc9b9521f4f54b58d3",
                    "callData": "0x000000000000000000000000b5606469f317018d21f504b6e1518e54b23fa761000000000000000000000000000000000000000000000000000000000000c38300000000000000000000000000000000000000000000000000000000000000000000000000000000000000000000000000000000000000000000000000000000",
                    "decodedMethod": {
                        "callParams": [
                            {
                                "name": "addr",
                                "type": "address",
                                "value": "0xb5606469f317018d21f504b6e1518e54b23fa761"
                            },
                            {
                                "name": "amount",
                                "type": "uint256",
                                "value": "50,051"
                            },
                            {
                                "name": "hash",
                                "type": "bytes32",
                                "value": "0x0000000000000000000000000000000000000000000000000000000000000000"
                            },
                            {
                                "name": "time",
                                "type": "uint256",
                                "value": "0"
                            }
                        ],
                        "constructorArguments": "",
                        "name": "deposit",
                        "returnParams": [
                            {
                                "name": "res",
                                "type": "bool",
                                "value": true
                            }
                        ],
                        "signature": "deposit(address,uint256,bytes32,uint256)"
                    },
                    "errorInfo": "",
                    "fromAddress": "0x225bc3affc1da39bd3cb2100c74a41c62310d1e1",
                    "gasUsed": 8060,
                    "id": 13,
                    "methodDecoded": true,
                    "operation": "CALL",
                    "output": "0x0000000000000000000000000000000000000000000000000000000000000001",
                    "revert": false,
                    "revertMessage": "",
                    "selector": "0xec2ac54e",
                    "status": true,
                    "value": "0"
                },
                "nodeType": 0
            },
            "14": {
                "event": {
                    "contract": "0x276c5c6ca8507ed7bac085fc9b9521f4f54b58d3",
                    "decodedLog": {
                        "name": "Transaction",
                        "params": [
                            {
                                "name": "hash",
                                "type": "bytes32",
                                "value": "0x0000000000000000000000000000000000000000000000000000000000000000"
                            },
                            {
                                "name": "from",
                                "type": "address",
                                "value": "0x0000000000000000000000000000000000000000"
                            },
                            {
                                "name": "to",
                                "type": "address",
                                "value": "0xb5606469f317018d21f504b6e1518e54b23fa761"
                            },
                            {
                                "name": "time",
                                "type": "uint256",
                                "value": "0"
                            },
                            {
                                "name": "amount",
                                "type": "uint256",
                                "value": "50,051"
                            }
                        ],
                        "signature": "Transaction(bytes32,address,address,uint256,uint256)"
                    },
                    "id": 14,
                    "logData": "0x0000000000000000000000000000000000000000000000000000000000000000000000000000000000000000000000000000000000000000000000000000c383",
                    "logDecoded": true,
                    "operation": "EVENT",
                    "revert": false,
                    "status": true,
                    "topics": [
                        "0xea0f544916910bb1ff33390cbe54a3f5d36d298328578399311cde3c9a750686",
                        "0x0000000000000000000000000000000000000000000000000000000000000000",
                        "0x0000000000000000000000000000000000000000000000000000000000000000",
                        "0x000000000000000000000000b5606469f317018d21f504b6e1518e54b23fa761"
                    ]
                },
                "nodeType": 1
            },
            "15": {
                "invocation": {
                    "address": "0xce81bc335ec2818b5926299ab65b7f2a7d882208",
                    "callData": "0x656c636f696e506f530000000000000000000000000000000000000000000000",
                    "decodedMethod": null,
                    "errorInfo": "",
                    "fromAddress": "0x225bc3affc1da39bd3cb2100c74a41c62310d1e1",
                    "gasUsed": 491,
                    "id": 15,
                    "methodDecoded": false,
                    "operation": "CALL",
                    "output": "0x0000000000000000000000000000000000000000000000000000000000000000",
                    "revert": false,
                    "revertMessage": "",
                    "selector": "0x2ade6c36",
                    "status": true,
                    "value": "0"
                },
                "nodeType": 0
            },
            "16": {
                "invocation": {
                    "address": "0xce81bc335ec2818b5926299ab65b7f2a7d882208",
                    "callData": "0x656c636f696e506f540000000000000000000000000000000000000000000000",
                    "decodedMethod": null,
                    "errorInfo": "",
                    "fromAddress": "0x225bc3affc1da39bd3cb2100c74a41c62310d1e1",
                    "gasUsed": 491,
                    "id": 16,
                    "methodDecoded": false,
                    "operation": "CALL",
                    "output": "0x0000000000000000000000000000000000000000000000000000000000000000",
                    "revert": false,
                    "revertMessage": "",
                    "selector": "0x2ade6c36",
                    "status": true,
                    "value": "0"
                },
                "nodeType": 0
            },
            "2": {
                "invocation": {
                    "address": "0xce81bc335ec2818b5926299ab65b7f2a7d882208",
                    "callData": "0x656c636f696e0000000000000000000000000000000000000000000000000000",
                    "decodedMethod": null,
                    "errorInfo": "",
                    "fromAddress": "0xad62f56a03334b647e55dbdb5b8642c24605a801",
                    "gasUsed": 736,
                    "id": 2,
                    "methodDecoded": false,
                    "operation": "CALL",
                    "output": "0x000000000000000000000000225bc3affc1da39bd3cb2100c74a41c62310d1e1",
                    "revert": false,
                    "revertMessage": "",
                    "selector": "0x2ade6c36",
                    "status": true,
                    "value": "0"
                },
                "nodeType": 0
            },
            "3": {
                "invocation": {
                    "address": "0x225bc3affc1da39bd3cb2100c74a41c62310d1e1",
                    "callData": "0x00000000000000000000000036895fcb3492c0d5a78b99525e62edd50655b316000000000000000000000000562ccfef171dec7973811035bf7c73c59937d6c70000000000000000000000000000000000000000000000000000000002fbb7b8",
                    "decodedMethod": {
                        "callParams": [
                            {
                                "name": "_from",
                                "type": "address",
                                "value": "0x36895fcb3492c0d5a78b99525e62edd50655b316"
                            },
                            {
                                "name": "_to",
                                "type": "address",
                                "value": "0x562ccfef171dec7973811035bf7c73c59937d6c7"
                            },
                            {
                                "name": "_value",
                                "type": "uint256",
                                "value": "50,051,000"
                            }
                        ],
                        "constructorArguments": "",
                        "name": "transferPool",
                        "returnParams": [
                            {
                                "name": "",
                                "type": "bool",
                                "value": true
                            }
                        ],
                        "signature": "transferPool(address,address,uint256)"
                    },
                    "errorInfo": "",
                    "fromAddress": "0xad62f56a03334b647e55dbdb5b8642c24605a801",
                    "gasUsed": 41252,
                    "id": 3,
                    "methodDecoded": true,
                    "operation": "CALL",
                    "output": "0x0000000000000000000000000000000000000000000000000000000000000001",
                    "revert": false,
                    "revertMessage": "",
                    "selector": "0xaa64c43b",
                    "status": true,
                    "value": "0"
                },
                "nodeType": 0
            },
            "4": {
                "invocation": {
                    "address": "0xce81bc335ec2818b5926299ab65b7f2a7d882208",
                    "callData": "0x656c636f696e0000000000000000000000000000000000000000000000000000706f6f6c00000000000000000000000000000000000000000000000000000000000000000000000000000000ad62f56a03334b647e55dbdb5b8642c24605a801",
                    "decodedMethod": null,
                    "errorInfo": "",
                    "fromAddress": "0x225bc3affc1da39bd3cb2100c74a41c62310d1e1",
                    "gasUsed": 2066,
                    "id": 4,
                    "methodDecoded": false,
                    "operation": "CALL",
                    "output": "0x0000000000000000000000000000000000000000000000000000000000000001",
                    "revert": false,
                    "revertMessage": "",
                    "selector": "0xa1add510",
                    "status": true,
                    "value": "0"
                },
                "nodeType": 0
            },
            "5": {
                "invocation": {
                    "address": "0xce81bc335ec2818b5926299ab65b7f2a7d882208",
                    "callData": "0x656c636f696e4462000000000000000000000000000000000000000000000000",
                    "decodedMethod": null,
                    "errorInfo": "",
                    "fromAddress": "0x225bc3affc1da39bd3cb2100c74a41c62310d1e1",
                    "gasUsed": 736,
                    "id": 5,
                    "methodDecoded": false,
                    "operation": "CALL",
                    "output": "0x000000000000000000000000276c5c6ca8507ed7bac085fc9b9521f4f54b58d3",
                    "revert": false,
                    "revertMessage": "",
                    "selector": "0x2ade6c36",
                    "status": true,
                    "value": "0"
                },
                "nodeType": 0
            },
            "6": {
                "invocation": {
                    "address": "0x276c5c6ca8507ed7bac085fc9b9521f4f54b58d3",
                    "callData": "0x00000000000000000000000036895fcb3492c0d5a78b99525e62edd50655b316",
                    "decodedMethod": {
                        "callParams": [
                            {
                                "name": "addr",
                                "type": "address",
                                "value": "0x36895fcb3492c0d5a78b99525e62edd50655b316"
                            }
                        ],
                        "constructorArguments": "",
                        "name": "getBalance",
                        "returnParams": [
                            {
                                "name": "balance",
                                "type": "uint256",
                                "value": "187,542,870"
                            }
                        ],
                        "signature": "getBalance(address)"
                    },
                    "errorInfo": "",
                    "fromAddress": "0x225bc3affc1da39bd3cb2100c74a41c62310d1e1",
                    "gasUsed": 479,
                    "id": 6,
                    "methodDecoded": true,
                    "operation": "CALL",
                    "output": "0x000000000000000000000000000000000000000000000000000000000b2dad56",
                    "revert": false,
                    "revertMessage": "",
                    "selector": "0xf8b2cb4f",
                    "status": true,
                    "value": "0"
                },
                "nodeType": 0
            },
            "7": {
                "invocation": {
                    "address": "0x276c5c6ca8507ed7bac085fc9b9521f4f54b58d3",
                    "callData": "0x00000000000000000000000036895fcb3492c0d5a78b99525e62edd50655b3160000000000000000000000000000000000000000000000000000000002fbb7b800000000000000000000000000000000000000000000000000000000000000000000000000000000000000000000000000000000000000000000000000000000",
                    "decodedMethod": {
                        "callParams": [
                            {
                                "name": "addr",
                                "type": "address",
                                "value": "0x36895fcb3492c0d5a78b99525e62edd50655b316"
                            },
                            {
                                "name": "amount",
                                "type": "uint256",
                                "value": "50,051,000"
                            },
                            {
                                "name": "hash",
                                "type": "bytes32",
                                "value": "0x0000000000000000000000000000000000000000000000000000000000000000"
                            },
                            {
                                "name": "time",
                                "type": "uint256",
                                "value": "0"
                            }
                        ],
                        "constructorArguments": "",
                        "name": "withdraw",
                        "returnParams": [
                            {
                                "name": "res",
                                "type": "bool",
                                "value": true
                            }
                        ],
                        "signature": "withdraw(address,uint256,bytes32,uint256)"
                    },
                    "errorInfo": "",
                    "fromAddress": "0x225bc3affc1da39bd3cb2100c74a41c62310d1e1",
                    "gasUsed": 14931,
                    "id": 7,
                    "methodDecoded": true,
                    "operation": "CALL",
                    "output": "0x0000000000000000000000000000000000000000000000000000000000000001",
                    "revert": false,
                    "revertMessage": "",
                    "selector": "0x07bc6fad",
                    "status": true,
                    "value": "0"
                },
                "nodeType": 0
            },
            "8": {
                "invocation": {
                    "address": "0x225bc3affc1da39bd3cb2100c74a41c62310d1e1",
                    "callData": "0x",
                    "decodedMethod": null,
                    "errorInfo": "insufficient balance for transfer",
                    "fromAddress": "0x276c5c6ca8507ed7bac085fc9b9521f4f54b58d3",
                    "gasUsed": 0,
                    "id": 8,
                    "methodDecoded": false,
                    "operation": "CALL",
                    "output": "",
                    "revert": false,
                    "revertMessage": "",
                    "selector": "fallback",
                    "status": false,
                    "value": "0.000000000050051"
                },
                "nodeType": 0
            },
            "9": {
                "event": {
                    "contract": "0x276c5c6ca8507ed7bac085fc9b9521f4f54b58d3",
                    "decodedLog": {
                        "name": "Transaction",
                        "params": [
                            {
                                "name": "hash",
                                "type": "bytes32",
                                "value": "0x0000000000000000000000000000000000000000000000000000000000000000"
                            },
                            {
                                "name": "from",
                                "type": "address",
                                "value": "0x36895fcb3492c0d5a78b99525e62edd50655b316"
                            },
                            {
                                "name": "to",
                                "type": "address",
                                "value": "0x0000000000000000000000000000000000000000"
                            },
                            {
                                "name": "time",
                                "type": "uint256",
                                "value": "0"
                            },
                            {
                                "name": "amount",
                                "type": "uint256",
                                "value": "50,051,000"
                            }
                        ],
                        "signature": "Transaction(bytes32,address,address,uint256,uint256)"
                    },
                    "id": 9,
                    "logData": "0x00000000000000000000000000000000000000000000000000000000000000000000000000000000000000000000000000000000000000000000000002fbb7b8",
                    "logDecoded": true,
                    "operation": "EVENT",
                    "revert": false,
                    "status": true,
                    "topics": [
                        "0xea0f544916910bb1ff33390cbe54a3f5d36d298328578399311cde3c9a750686",
                        "0x0000000000000000000000000000000000000000000000000000000000000000",
                        "0x00000000000000000000000036895fcb3492c0d5a78b99525e62edd50655b316",
                        "0x0000000000000000000000000000000000000000000000000000000000000000"
                    ]
                },
                "nodeType": 1
            }
        },
        "gasFlame": [
            {
                "children": [
                    {
                        "children": [
                            {
                                "children": [],
                                "depth": 0,
                                "name": "Initial Gas",
                                "value": 39320
                            },
                            {
                                "children": [
                                    {
                                        "children": [],
                                        "depth": 1,
                                        "name": "0xa1add510",
                                        "value": 2066
                                    },
                                    {
                                        "children": [],
                                        "depth": 1,
                                        "name": "0x2ade6c36",
                                        "value": 736
                                    },
                                    {
                                        "children": [
                                            {
                                                "children": [],
                                                "depth": 2,
                                                "name": "0xa1add510",
                                                "value": 2066
                                            },
                                            {
                                                "children": [],
                                                "depth": 2,
                                                "name": "0x2ade6c36",
                                                "value": 736
                                            },
                                            {
                                                "children": [],
                                                "depth": 2,
                                                "name": "getBalance",
                                                "value": 479
                                            },
                                            {
                                                "children": [
                                                    {
                                                        "children": [],
                                                        "depth": 3,
                                                        "name": "fallback",
                                                        "value": 0
                                                    }
                                                ],
                                                "depth": 2,
                                                "name": "withdraw",
                                                "value": 14931
                                            },
                                            {
                                                "children": [],
                                                "depth": 2,
                                                "name": "deposit",
                                                "value": 8060
                                            },
                                            {
                                                "children": [],
                                                "depth": 2,
                                                "name": "deposit",
                                                "value": 8060
                                            },
                                            {
                                                "children": [],
                                                "depth": 2,
                                                "name": "0x2ade6c36",
                                                "value": 491
                                            },
                                            {
                                                "children": [],
                                                "depth": 2,
                                                "name": "0x2ade6c36",
                                                "value": 491
                                            }
                                        ],
                                        "depth": 1,
                                        "name": "transferPool",
                                        "value": 41252
                                    }
                                ],
                                "depth": 0,
                                "name": "Executed Gas",
                                "value": 45944
                            }
                        ],
                        "depth": -1,
                        "name": "Actual Gas Used",
                        "value": 85264
                    },
                    {
                        "children": [],
                        "depth": -1,
                        "name": "Refunded Gas",
                        "value": 0
                    }
                ],
                "depth": -2,
                "name": "Total Gas",
                "value": 85264
            }
        ],
        "isConfirmed": true,
        "mainTrace": [
            {
                "children": [
                    {
                        "children": [
                            {
                                "children": [],
                                "depth": 1,
                                "id": 1,
                                "order": 1
                            },
                            {
                                "children": [],
                                "depth": 1,
                                "id": 2,
                                "order": 2
                            },
                            {
                                "children": [
                                    {
                                        "children": [],
                                        "depth": 2,
                                        "id": 4,
                                        "order": 4
                                    },
                                    {
                                        "children": [],
                                        "depth": 2,
                                        "id": 5,
                                        "order": 5
                                    },
                                    {
                                        "children": [],
                                        "depth": 2,
                                        "id": 6,
                                        "order": 6
                                    },
                                    {
                                        "children": [
                                            {
                                                "children": [],
                                                "depth": 3,
                                                "id": 8,
                                                "order": 8
                                            },
                                            {
                                                "children": [],
                                                "depth": 3,
                                                "id": 9,
                                                "order": 9
                                            }
                                        ],
                                        "depth": 2,
                                        "id": 7,
                                        "order": 7
                                    },
                                    {
                                        "children": [
                                            {
                                                "children": [],
                                                "depth": 3,
                                                "id": 11,
                                                "order": 11
                                            }
                                        ],
                                        "depth": 2,
                                        "id": 10,
                                        "order": 10
                                    },
                                    {
                                        "children": [],
                                        "depth": 2,
                                        "id": 12,
                                        "order": 12
                                    },
                                    {
                                        "children": [
                                            {
                                                "children": [],
                                                "depth": 3,
                                                "id": 14,
                                                "order": 14
                                            }
                                        ],
                                        "depth": 2,
                                        "id": 13,
                                        "order": 13
                                    },
                                    {
                                        "children": [],
                                        "depth": 2,
                                        "id": 15,
                                        "order": 15
                                    },
                                    {
                                        "children": [],
                                        "depth": 2,
                                        "id": 16,
                                        "order": 16
                                    }
                                ],
                                "depth": 1,
                                "id": 3,
                                "order": 3
                            }
                        ],
                        "depth": 0,
                        "id": 0,
                        "order": 0
                    }
                ],
                "depth": -1,
                "id": -1,
                "order": -1
            }
        ],
        "mainTraceNodeCount": 17,
        "parentIdMap": {
            "0": -1,
            "1": 0,
            "10": 3,
            "11": 10,
            "12": 3,
            "13": 3,
            "14": 13,
            "15": 3,
            "16": 3,
            "2": 0,
            "3": 0,
            "4": 3,
            "5": 3,
            "6": 3,
            "7": 3,
            "8": 7,
            "9": 7
        },
        "tidyTrace": [
            {
                "children": [
                    {
                        "children": [
                            {
                                "children": [],
                                "depth": 1,
                                "id": 1,
                                "order": 1
                            },
                            {
                                "children": [],
                                "depth": 1,
                                "id": 2,
                                "order": 2
                            },
                            {
                                "children": [
                                    {
                                        "children": [],
                                        "depth": 2,
                                        "id": 4,
                                        "order": 4
                                    },
                                    {
                                        "children": [],
                                        "depth": 2,
                                        "id": 5,
                                        "order": 5
                                    },
                                    {
                                        "children": [],
                                        "depth": 2,
                                        "id": 6,
                                        "order": 6
                                    },
                                    {
                                        "children": [
                                            {
                                                "children": [],
                                                "depth": 3,
                                                "id": 8,
                                                "order": 8
                                            },
                                            {
                                                "children": [],
                                                "depth": 3,
                                                "id": 9,
                                                "order": 9
                                            }
                                        ],
                                        "depth": 2,
                                        "id": 7,
                                        "order": 7
                                    },
                                    {
                                        "children": [
                                            {
                                                "children": [],
                                                "depth": 3,
                                                "id": 11,
                                                "order": 11
                                            }
                                        ],
                                        "depth": 2,
                                        "id": 10,
                                        "order": 10
                                    },
                                    {
                                        "children": [],
                                        "depth": 2,
                                        "id": 12,
                                        "order": 12
                                    },
                                    {
                                        "children": [
                                            {
                                                "children": [],
                                                "depth": 3,
                                                "id": 14,
                                                "order": 14
                                            }
                                        ],
                                        "depth": 2,
                                        "id": 13,
                                        "order": 13
                                    },
                                    {
                                        "children": [],
                                        "depth": 2,
                                        "id": 15,
                                        "order": 15
                                    },
                                    {
                                        "children": [],
                                        "depth": 2,
                                        "id": 16,
                                        "order": 16
                                    }
                                ],
                                "depth": 1,
                                "id": 3,
                                "order": 3
                            }
                        ],
                        "depth": 0,
                        "id": 0,
                        "order": 0
                    }
                ],
                "depth": -1,
                "id": -1,
                "order": -1
            }
        ],
        "tidyTraceNodeCount": 17
    },
    "state_change": {
        "stateChanges": [
            {
                "address": "0x276c5c6ca8507ed7bac085fc9b9521f4f54b58d3",
                "erc": "",
                "slots": [
                    {
                        "current": "0x000000000000000000000000000000000000000000000000000000000831f59e",
                        "key": "0x989bc894b5244f653be883aa2586e9961d0e96cbd6e1d1761573bc57c059e183",
                        "prev": "0x000000000000000000000000000000000000000000000000000000000b2dad56"
                    },
                    {
                        "current": "0x000000000000000000000000000000000000000000000000000000004bc595f9",
                        "key": "0x8f6bce12e2531a00c0ac5bec650976f61f39cc1f989e33d91215382ab228dbd5",
                        "prev": "0x0000000000000000000000000000000000000000000000000000000048caa1c4"
                    },
                    {
                        "current": "0x00000000000000000000000000000000000000000000000000000006ade96394",
                        "key": "0x5a4791f3aafbca9d8cdf391abee687ff557f9e4cf1b6d8e66a3c24f3546565e8",
                        "prev": "0x00000000000000000000000000000000000000000000000000000006ade8a011"
                    }
                ],
                "storageVariables": []
            }
        ]
    }
}