{
    "balance_change": {
        "balanceChanges": [
            {
                "account": "0x5c8b956b51d30b422aa6f039a71f527095b20ab2",
                "assets": [
                    {
                        "address": "0xdac17f958d2ee523a2206206994597c13d831ec7",
                        "amount": "20,001",
                        "iconUrl": "https://assets.blocksec.com/icon/fcea71f3193ce895be44bfdf941f7e4c9381dd587f273c2d1a27f1263d84e4ea.png",
                        "isERC1155": false,
                        "isERC721": false,
                        "sign": false,
                        "value": "20016.42117"
                    }
                ]
            },
            {
                "account": "0xb5d85cbf7cb3ee0d56b3bb207d5fc4b82f43f511",
                "assets": [
                    {
                        "address": "0xdac17f958d2ee523a2206206994597c13d831ec7",
                        "amount": "20,001",
                        "iconUrl": "https://assets.blocksec.com/icon/fcea71f3193ce895be44bfdf941f7e4c9381dd587f273c2d1a27f1263d84e4ea.png",
                        "isERC1155": false,
                        "isERC721": false,
                        "sign": true,
                        "value": "20016.42117"
                    }
                ]
            }
        ]
    },
    "profile": {
        "basic_info": {
            "baseFee": "62.801324162",
            "blockNumber": 13800338,
            "callData": "0xa9059cbb000000000000000000000000b5d85cbf7cb3ee0d56b3bb207d5fc4b82f43f51100000000000000000000000000000000000000000000000000000004a8270a40",
            "debugEnable": true,
            "errorInfo": "",
            "eventCount": 1,
            "feeRecipient": "0x829bd824b016326a401d083b33d092293333a830",
            "formatValue": "0",
            "gasLimit": 250000,
            "gasPrice": "65.801324162",
            "gasUsed": 41321,
            "intTxnCount": 0,
            "internalRevert": false,
            "internalRevertMessage": "",
            "isContractCreation": false,
            "isFlashloan": false,
            "maxFee": "184",
            "nonce": 0,
            "overwritedBlockNumber": -1,
            "priorityFee": "3",
            "receiver": "0xdac17f958d2ee523a2206206994597c13d831ec7",
            "revertMessage": "",
            "sender": "0x5c8b956b51d30b422aa6f039a71f527095b20ab2",
            "simulationEnable": true,
            "sourceTxnHash": "0x7496411295473de6bda71c7303325c440b4c886c492dc58d8aafb3a4634f80a0",
            "status": true,
            "timestamp": "2021-12-14T01:13:52Z",
            "transactionFee": "0.002718976515698002",
            "txnHash": "0x7496411295473de6bda71c7303325c440b4c886c492dc58d8aafb3a4634f80a0",
            "txnIndex": 124,
            "type": 2,
            "value": "0"
        },
        "fund_flow": [
            {
                "amount": "20,001",
                "from": "0x5c8b956b51d30b422aa6f039a71f527095b20ab2",
                "id": 1,
                "isERC1155": false,
                "isERC721": false,
                "isReverted": false,
                "order": 1,
                "to": "0xb5d85cbf7cb3ee0d56b3bb207d5fc4b82f43f511",
                "token": "0xdac17f958d2ee523a2206206994597c13d831ec7"
            }
        ],
        "token_infos": [
            {
                "address": "0xc02aaa39b223fe8d0a0e5c4f27ead9083c756cc2",
                "decimals": 18
            },
            {
                "address": "0xdac17f958d2ee523a2206206994597c13d831ec7",
                "decimals": 6
            },
            {
                "address": "0xeeeeeeeeeeeeeeeeeeeeeeeeeeeeeeeeeeeeeeee",
                "decimals": 18
            }
        ]
    },
    "address_label": {
        "labels": [
            {
                "address": "0x0000000000000000000000000000000000000004",
                "label": "Precompiled"
            },
            {
                "address": "0xeeeeeeeeeeeeeeeeeeeeeeeeeeeeeeeeeeeeeeee",
                "label": "Ether"
            },
            {
                "address": "0xdac17f958d2ee523a2206206994597c13d831ec7",
                "label": "Tether: USDT Stablecoin"
            },
            {
                "address": "0x5c8b956b51d30b422aa6f039a71f527095b20ab2",
                "label": "COINBASE"
            },
            {
                "address": "0xb5d85cbf7cb3ee0d56b3bb207d5fc4b82f43f511",
                "label": "Coinbase 5"
            },
            {
                "address": "0x0000000000000000000000000000000000000001",
                "label": "Precompiled"
            },
            {
                "address": "0x0000000000000000000000000000000000000002",
                "label": "Precompiled"
            },
            {
                "address": "0x0000000000000000000000000000000000000003",
                "label": "Precompiled"
            }
        ]
    },
    "trace": {
        "accountLabels": null,
        "dataMap": {
            "-1": {
                "invocation": {
                    "address": "0x5c8b956b51d30b422aa6f039a71f527095b20ab2",
                    "callData": "",
                    "decodedMethod": null,
                    "errorInfo": "",
                    "fromAddress": "",
                    "gasUsed": 0,
                    "id": -1,
                    "methodDecoded": false,
                    "operation": "",
                    "output": "",
                    "revert": false,
                    "revertMessage": "",
                    "selector": "",
                    "status": false,
                    "value": ""
                },
                "nodeType": 0
            },
            "0": {
                "invocation": {
                    "address": "0xdac17f958d2ee523a2206206994597c13d831ec7",
                    "callData": "0x000000000000000000000000b5d85cbf7cb3ee0d56b3bb207d5fc4b82f43f51100000000000000000000000000000000000000000000000000000004a8270a40",
                    "decodedMethod": {
                        "callParams": [
                            {
                                "name": "_to",
                                "type": "address",
                                "value": "0xb5d85cbf7cb3ee0d56b3bb207d5fc4b82f43f511"
                            },
                            {
                                "decimalAvailable": true,
                                "name": "_value",
                                "type": "uint256",
                                "value": "20,001,000,000"
                            }
                        ],
                        "constructorArguments": "",
                        "name": "transfer",
                        "returnParams": [],
                        "signature": "transfer(address,uint256)"
                    },
                    "errorInfo": "",
                    "fromAddress": "0x5c8b956b51d30b422aa6f039a71f527095b20ab2",
                    "gasUsed": 41321,
                    "id": 0,
                    "methodDecoded": true,
                    "operation": "CALL",
                    "output": "",
                    "revert": false,
                    "revertMessage": "",
                    "selector": "0xa9059cbb",
                    "status": true,
                    "value": "0"
                },
                "nodeType": 0
            },
            "1": {
                "event": {
                    "contract": "0xdac17f958d2ee523a2206206994597c13d831ec7",
                    "decodedLog": {
                        "name": "Transfer",
                        "params": [
                            {
                                "name": "from",
                                "type": "address",
                                "value": "0x5c8b956b51d30b422aa6f039a71f527095b20ab2"
                            },
                            {
                                "name": "to",
                                "type": "address",
                                "value": "0xb5d85cbf7cb3ee0d56b3bb207d5fc4b82f43f511"
                            },
                            {
                                "decimalAvailable": true,
                                "name": "value",
                                "type": "uint256",
                                "value": "20,001,000,000"
                            }
                        ],
                        "signature": "Transfer(address,address,uint256)"
                    },
                    "id": 1,
                    "logData": "0x00000000000000000000000000000000000000000000000000000004a8270a40",
                    "logDecoded": true,
                    "operation": "EVENT",
                    "revert": false,
                    "status": true,
                    "topics": [
                        "0xddf252ad1be2c89b69c2b068fc378daa952ba7f163c4a11628f55a4df523b3ef",
                        "0x0000000000000000000000005c8b956b51d30b422aa6f039a71f527095b20ab2",
                        "0x000000000000000000000000b5d85cbf7cb3ee0d56b3bb207d5fc4b82f43f511"
                    ]
                },
                "nodeType": 1
            }
        },
        "gasFlame": [
            {
                "children": [
                    {
                        "children": [
                            {
                                "children": [],
                                "depth": 0,
                                "name": "Initial Gas",
                                "value": 21620
                            },
                            {
                                "children": [],
                                "depth": 0,
                                "name": "Executed Gas",
                                "value": 24501
                            }
                        ],
                        "depth": -1,
                        "name": "Actual Gas Used",
                        "value": 41321
                    },
                    {
                        "children": [],
                        "depth": -1,
                        "name": "Refunded Gas",
                        "value": 4800
                    }
                ],
                "depth": -2,
                "name": "Total Gas",
                "value": 46121
            }
        ],
        "isConfirmed": true,
        "mainTrace": [
            {
                "children": [
                    {
                        "children": [
                            {
                                "children": [],
                                "depth": 1,
                                "id": 1,
                                "order": 1
                            }
                        ],
                        "depth": 0,
                        "id": 0,
                        "order": 0
                    }
                ],
                "depth": -1,
                "id": -1,
                "order": -1
            }
        ],
        "mainTraceNodeCount": 2,
        "parentIdMap": {
            "0": -1,
            "1": 0
        },
        "tidyTrace": [
            {
                "children": [
                    {
                        "children": [
                            {
                                "children": [],
                                "depth": 1,
                                "id": 1,
                                "order": 1
                            }
                        ],
                        "depth": 0,
                        "id": 0,
                        "order": 0
                    }
                ],
                "depth": -1,
                "id": -1,
                "order": -1
            }
        ],
        "tidyTraceNodeCount": 2
    },
    "state_change": {
        "stateChanges": [
            {
                "address": "0xdac17f958d2ee523a2206206994597c13d831ec7",
                "erc": "ERC-20",
                "slots": [
                    {
                        "current": "0x0000000000000000000000000000000000000000000000000000000000000000",
                        "key": "0xee1a36d6ad06fe6f1025ade3830c346b7e48747130e0e80cb8d8973df1b30d95",
                        "prev": "0x00000000000000000000000000000000000000000000000000000004a8270a40"
                    },
                    {
                        "current": "0x00000000000000000000000000000000000000000000000000000586f806dcf4",
                        "key": "0x5cfed95b3c744a0f44a8a9399588eff882b8eb2db24c759f4f8012e094c9a45d",
                        "prev": "0x000000000000000000000000000000000000000000000000000005824fdfd2b4"
                    }
                ],
                "storageVariables": [
                    {
                        "name": "balances",
                        "type": "mapping(address => uint256)",
                        "value": {
                            "pairs": [
                                {
                                    "key": "0x5c8b956b51d30b422aa6f039a71f527095b20ab2",
                                    "value": {
                                        "current": "0",
                                        "prev": "20001000000",
                                        "typeTag": 1
                                    }
                                },
                                {
                                    "key": "0xb5d85cbf7cb3ee0d56b3bb207d5fc4b82f43f511",
                                    "value": {
                                        "current": "6077244955892",
                                        "prev": "6057243955892",
                                        "typeTag": 1
                                    }
                                }
                            ],
                            "typeTag": 4
                        }
                    }
                ]
            }
        ]
    }
}