{
    "balance_change": {
        "balanceChanges": [
            {
                "account": "0x6596aa28c75b580668df40baf190bcd73c89405a",
                "assets": [
                    {
                        "address": "0x056354f3ff20743aa4c0da365603871c7000b081",
                        "amount": "9,700",
                        "iconUrl": "",
                        "isERC1155": false,
                        "isERC721": false,
                        "sign": false,
                        "value": ""
                    }
                ]
            },
            {
                "account": "0x1d01b588363d8b6e1b0b41318414ea81981cd406",
                "assets": [
                    {
                        "address": "0x056354f3ff20743aa4c0da365603871c7000b081",
                        "amount": "9,700",
                        "iconUrl": "",
                        "isERC1155": false,
                        "isERC721": false,
                        "sign": true,
                        "value": ""
                    }
                ]
            }
        ]
    },
    "profile": {
        "basic_info": {
            "baseFee": "",
            "blockNumber": 12300242,
            "callData": "0xa9059cbb0000000000000000000000001d01b588363d8b6e1b0b41318414ea81981cd40600000000000000000000000000000000000000000000020dd68aaf3289100000",
            "debugEnable": true,
            "errorInfo": "",
            "eventCount": 1,
            "feeRecipient": "0x3ecef08d0e2dad803847e052249bb4f8bff2d5bb",
            "formatValue": "0",
            "gasLimit": 180000,
            "gasPrice": "78",
            "gasUsed": 41257,
            "intTxnCount": 0,
            "internalRevert": false,
            "internalRevertMessage": "",
            "isContractCreation": false,
            "isFlashloan": false,
            "maxFee": "",
            "nonce": 12806,
            "overwritedBlockNumber": -1,
            "priorityFee": "",
            "receiver": "0x056354f3ff20743aa4c0da365603871c7000b081",
            "revertMessage": "",
            "sender": "0x6596aa28c75b580668df40baf190bcd73c89405a",
            "simulationEnable": true,
            "sourceTxnHash": "0x741a94963f11b8e8e0382bb084895bfd16f135032b999cb3bb4fede49c4838df",
            "status": true,
            "timestamp": "2021-04-24T02:28:35Z",
            "transactionFee": "0.003218046",
            "txnHash": "0x741a94963f11b8e8e0382bb084895bfd16f135032b999cb3bb4fede49c4838df",
            "txnIndex": 92,
            "type": 0,
            "value": "0"
        },
        "fund_flow": [
            {
                "amount": "9,700",
                "from": "0x6596aa28c75b580668df40baf190bcd73c89405a",
                "id": 1,
                "isERC1155": false,
                "isERC721": false,
                "isReverted": false,
                "order": 1,
                "to": "0x1d01b588363d8b6e1b0b41318414ea81981cd406",
                "token": "0x056354f3ff20743aa4c0da365603871c7000b081"
            }
        ],
        "token_infos": [
            {
                "address": "0xeeeeeeeeeeeeeeeeeeeeeeeeeeeeeeeeeeeeeeee",
                "decimals": 18
            },
            {
                "address": "0x056354f3ff20743aa4c0da365603871c7000b081",
                "decimals": 18
            },
            {
                "address": "0xc02aaa39b223fe8d0a0e5c4f27ead9083c756cc2",
                "decimals": 18
            }
        ]
    },
    "address_label": {
        "labels": [
            {
                "address": "0x1d01b588363d8b6e1b0b41318414ea81981cd406",
                "label": "COINONE"
            },
            {
                "address": "0x056354f3ff20743aa4c0da365603871c7000b081",
                "label": "TriumphX: TRIX Token"
            },
            {
                "address": "0x0000000000000000000000000000000000000001",
                "label": "Precompiled"
            },
            {
                "address": "0x0000000000000000000000000000000000000002",
                "label": "Precompiled"
            },
            {
                "address": "0x0000000000000000000000000000000000000003",
                "label": "Precompiled"
            },
            {
                "address": "0x0000000000000000000000000000000000000004",
                "label": "Precompiled"
            },
            {
                "address": "0xeeeeeeeeeeeeeeeeeeeeeeeeeeeeeeeeeeeeeeee",
                "label": "Ether"
            }
        ]
    },
    "trace": {
        "accountLabels": null,
        "dataMap": {
            "-1": {
                "invocation": {
                    "address": "0x6596aa28c75b580668df40baf190bcd73c89405a",
                    "callData": "",
                    "decodedMethod": null,
                    "errorInfo": "",
                    "fromAddress": "",
                    "gasUsed": 0,
                    "id": -1,
                    "methodDecoded": false,
                    "operation": "",
                    "output": "",
                    "revert": false,
                    "revertMessage": "",
                    "selector": "",
                    "status": false,
                    "value": ""
                },
                "nodeType": 0
            },
            "0": {
                "invocation": {
                    "address": "0x056354f3ff20743aa4c0da365603871c7000b081",
                    "callData": "0x0000000000000000000000001d01b588363d8b6e1b0b41318414ea81981cd40600000000000000000000000000000000000000000000020dd68aaf3289100000",
                    "decodedMethod": {
                        "callParams": [
                            {
                                "name": "to",
                                "type": "address",
                                "value": "0x1d01b588363d8b6e1b0b41318414ea81981cd406"
                            },
                            {
                                "decimalAvailable": true,
                                "name": "value",
                                "type": "uint256",
                                "value": "9,700,000,000,000,000,000,000"
                            }
                        ],
                        "constructorArguments": "",
                        "name": "transfer",
                        "returnParams": [
                            {
                                "name": "",
                                "type": "bool",
                                "value": true
                            }
                        ],
                        "signature": "transfer(address,uint256)"
                    },
                    "errorInfo": "",
                    "fromAddress": "0x6596aa28c75b580668df40baf190bcd73c89405a",
                    "gasUsed": 41257,
                    "id": 0,
                    "methodDecoded": true,
                    "operation": "CALL",
                    "output": "0x0000000000000000000000000000000000000000000000000000000000000001",
                    "revert": false,
                    "revertMessage": "",
                    "selector": "0xa9059cbb",
                    "status": true,
                    "value": "0"
                },
                "nodeType": 0
            },
            "1": {
                "event": {
                    "contract": "0x056354f3ff20743aa4c0da365603871c7000b081",
                    "decodedLog": {
                        "name": "Transfer",
                        "params": [
                            {
                                "name": "from",
                                "type": "address",
                                "value": "0x6596aa28c75b580668df40baf190bcd73c89405a"
                            },
                            {
                                "name": "to",
                                "type": "address",
                                "value": "0x1d01b588363d8b6e1b0b41318414ea81981cd406"
                            },
                            {
                                "decimalAvailable": true,
                                "name": "value",
                                "type": "uint256",
                                "value": "9,700,000,000,000,000,000,000"
                            }
                        ],
                        "signature": "Transfer(address,address,uint256)"
                    },
                    "id": 1,
                    "logData": "0x00000000000000000000000000000000000000000000020dd68aaf3289100000",
                    "logDecoded": true,
                    "operation": "EVENT",
                    "revert": false,
                    "status": true,
                    "topics": [
                        "0xddf252ad1be2c89b69c2b068fc378daa952ba7f163c4a11628f55a4df523b3ef",
                        "0x0000000000000000000000006596aa28c75b580668df40baf190bcd73c89405a",
                        "0x0000000000000000000000001d01b588363d8b6e1b0b41318414ea81981cd406"
                    ]
                },
                "nodeType": 1
            }
        },
        "gasFlame": [
            {
                "children": [
                    {
                        "children": [
                            {
                                "children": [],
                                "depth": 0,
                                "name": "Initial Gas",
                                "value": 21656
                            },
                            {
                                "children": [],
                                "depth": 0,
                                "name": "Executed Gas",
                                "value": 19601
                            }
                        ],
                        "depth": -1,
                        "name": "Actual Gas Used",
                        "value": 41257
                    },
                    {
                        "children": [],
                        "depth": -1,
                        "name": "Refunded Gas",
                        "value": 0
                    }
                ],
                "depth": -2,
                "name": "Total Gas",
                "value": 41257
            }
        ],
        "isConfirmed": true,
        "mainTrace": [
            {
                "children": [
                    {
                        "children": [
                            {
                                "children": [],
                                "depth": 1,
                                "id": 1,
                                "order": 1
                            }
                        ],
                        "depth": 0,
                        "id": 0,
                        "order": 0
                    }
                ],
                "depth": -1,
                "id": -1,
                "order": -1
            }
        ],
        "mainTraceNodeCount": 2,
        "parentIdMap": {
            "0": -1,
            "1": 0
        },
        "tidyTrace": [
            {
                "children": [
                    {
                        "children": [
                            {
                                "children": [],
                                "depth": 1,
                                "id": 1,
                                "order": 1
                            }
                        ],
                        "depth": 0,
                        "id": 0,
                        "order": 0
                    }
                ],
                "depth": -1,
                "id": -1,
                "order": -1
            }
        ],
        "tidyTraceNodeCount": 2
    },
    "state_change": {
        "stateChanges": [
            {
                "address": "0x056354f3ff20743aa4c0da365603871c7000b081",
                "erc": "ERC-20",
                "slots": [
                    {
                        "current": "0x000000000000000000000000000000000000000000001cb42e23295207380000",
                        "key": "0x232af8d9cf6ff91b85bb90a0e63a2ec826906f0edb4859f594a2959234df6737",
                        "prev": "0x000000000000000000000000000000000000000000001aa657987a1f7e280000"
                    },
                    {
                        "current": "0x0000000000000000000000000000000000000000003b32ca1e43faf58c1efc00",
                        "key": "0xee02533a653dfce4ba8229d111b79c21c6d0cfcb77637a7554cb3f2c377fa542",
                        "prev": "0x0000000000000000000000000000000000000000003b34d7f4ceaa28152efc00"
                    }
                ],
                "storageVariables": [
                    {
                        "name": "balances",
                        "type": "mapping(address => uint256)",
                        "value": {
                            "pairs": [
                                {
                                    "key": "0x1d01b588363d8b6e1b0b41318414ea81981cd406",
                                    "value": {
                                        "current": "135550000000000000000000",
                                        "prev": "125850000000000000000000",
                                        "typeTag": 1
                                    }
                                },
                                {
                                    "key": "0x6596aa28c75b580668df40baf190bcd73c89405a",
                                    "value": {
                                        "current": "71566470104572070000000000",
                                        "prev": "71576170104572070000000000",
                                        "typeTag": 1
                                    }
                                }
                            ],
                            "typeTag": 4
                        }
                    }
                ]
            }
        ]
    }
}