{
    "balance_change": {
        "balanceChanges": []
    },
    "profile": {
        "basic_info": {
            "baseFee": "32.922462379",
            "blockNumber": 15175051,
            "callData": "0x89eaa45c0000000000000000000000000000000007d762c47fb5dc2c6f5f50361836a8690000000000000000000000000000000007b25992caaee95b65f353bbf4d4f306020500580000000000000000ba87168b01affab302002f62f2b4c5fcd7570a709dec05d68ea19c82a9ec0100cf6daab95c476106eca715d48de4b13287ffdeaa",
            "debugEnable": true,
            "errorInfo": "",
            "eventCount": 0,
            "feeRecipient": "0xea674fdde714fd979de3edf0f56aa9716b898ec8",
            "formatValue": "0",
            "gasLimit": 302473,
            "gasPrice": "34.422462379",
            "gasUsed": 29894,
            "intTxnCount": 1,
            "internalRevert": false,
            "internalRevertMessage": "",
            "isContractCreation": false,
            "isFlashloan": false,
            "maxFee": "37.101571549",
            "nonce": 7319,
            "overwritedBlockNumber": -1,
            "priorityFee": "1.5",
            "receiver": "0xf71530c1f043703085b42608ff9dcccc43210a8e",
            "revertMessage": "",
            "sender": "0xbb4452482320bea8787458b31f71906c6862d2ca",
            "simulationEnable": true,
            "sourceTxnHash": "0x74b04952b170e990f7bf00f5e9f31b429ba5389812027735704215cdd8dd5d40",
            "status": true,
            "timestamp": "2022-07-19T19:45:18Z",
            "transactionFee": "0.001029025090357826",
            "txnHash": "0x74b04952b170e990f7bf00f5e9f31b429ba5389812027735704215cdd8dd5d40",
            "txnIndex": 105,
            "type": 2,
            "value": "0"
        },
        "fund_flow": [],
        "token_infos": [
            {
                "address": "0xeeeeeeeeeeeeeeeeeeeeeeeeeeeeeeeeeeeeeeee",
                "decimals": 18
            },
            {
                "address": "0xc02aaa39b223fe8d0a0e5c4f27ead9083c756cc2",
                "decimals": 18
            }
        ]
    },
    "address_label": {
        "labels": [
            {
                "address": "0x0000000000000000000000000000000000000003",
                "label": "Precompiled"
            },
            {
                "address": "0x0000000000000000000000000000000000000004",
                "label": "Precompiled"
            },
            {
                "address": "0xeeeeeeeeeeeeeeeeeeeeeeeeeeeeeeeeeeeeeeee",
                "label": "Ether"
            },
            {
                "address": "0x2f62f2b4c5fcd7570a709dec05d68ea19c82a9ec",
                "label": "Uniswap V3: SHIB"
            },
            {
                "address": "0xf71530c1f043703085b42608ff9dcccc43210a8e",
                "label": "MEV Bot: 0xF71...a8E"
            },
            {
                "address": "0x0000000000000000000000000000000000000001",
                "label": "Precompiled"
            },
            {
                "address": "0x0000000000000000000000000000000000000002",
                "label": "Precompiled"
            }
        ]
    },
    "trace": {
        "accountLabels": null,
        "dataMap": {
            "-1": {
                "invocation": {
                    "address": "0xbb4452482320bea8787458b31f71906c6862d2ca",
                    "callData": "",
                    "decodedMethod": null,
                    "errorInfo": "",
                    "fromAddress": "",
                    "gasUsed": 0,
                    "id": -1,
                    "methodDecoded": false,
                    "operation": "",
                    "output": "",
                    "revert": false,
                    "revertMessage": "",
                    "selector": "",
                    "status": false,
                    "value": ""
                },
                "nodeType": 0
            },
            "0": {
                "invocation": {
                    "address": "0xf71530c1f043703085b42608ff9dcccc43210a8e",
                    "callData": "0x0000000000000000000000000000000007d762c47fb5dc2c6f5f50361836a8690000000000000000000000000000000007b25992caaee95b65f353bbf4d4f306020500580000000000000000ba87168b01affab302002f62f2b4c5fcd7570a709dec05d68ea19c82a9ec0100cf6daab95c476106eca715d48de4b13287ffdeaa",
                    "decodedMethod": {
                        "callParams": [],
                        "constructorArguments": "",
                        "name": "AmIYoinkZ5534023222657174543",
                        "returnParams": [],
                        "signature": "AmIYoinkZ5534023222657174543()"
                    },
                    "errorInfo": "",
                    "fromAddress": "0xbb4452482320bea8787458b31f71906c6862d2ca",
                    "gasUsed": 29894,
                    "id": 0,
                    "methodDecoded": true,
                    "operation": "CALL",
                    "output": "",
                    "revert": false,
                    "revertMessage": "",
                    "selector": "0x89eaa45c",
                    "status": true,
                    "value": "0"
                },
                "nodeType": 0
            },
            "1": {
                "invocation": {
                    "address": "0x2f62f2b4c5fcd7570a709dec05d68ea19c82a9ec",
                    "callData": "0x",
                    "decodedMethod": {
                        "callParams": [],
                        "constructorArguments": "",
                        "name": "slot0",
                        "returnParams": [
                            {
                                "name": "sqrtPriceX96",
                                "type": "uint160",
                                "value": "7,007,937,370,787,637,112,423,911"
                            },
                            {
                                "name": "tick",
                                "type": "int24",
                                "value": "-186,671"
                            },
                            {
                                "name": "observationIndex",
                                "type": "uint16",
                                "value": "2"
                            },
                            {
                                "name": "observationCardinality",
                                "type": "uint16",
                                "value": "100"
                            },
                            {
                                "name": "observationCardinalityNext",
                                "type": "uint16",
                                "value": "100"
                            },
                            {
                                "name": "feeProtocol",
                                "type": "uint8",
                                "value": "0"
                            },
                            {
                                "name": "unlocked",
                                "type": "bool",
                                "value": true
                            }
                        ],
                        "signature": "slot0()"
                    },
                    "errorInfo": "",
                    "fromAddress": "0xf71530c1f043703085b42608ff9dcccc43210a8e",
                    "gasUsed": 2696,
                    "id": 1,
                    "methodDecoded": true,
                    "operation": "STATICCALL",
                    "output": "0x00000000000000000000000000000000000000000005cbfd0bcd5fdc5f9545e7fffffffffffffffffffffffffffffffffffffffffffffffffffffffffffd26d100000000000000000000000000000000000000000000000000000000000000020000000000000000000000000000000000000000000000000000000000000064000000000000000000000000000000000000000000000000000000000000006400000000000000000000000000000000000000000000000000000000000000000000000000000000000000000000000000000000000000000000000000000001",
                    "revert": false,
                    "revertMessage": "",
                    "selector": "0x3850c7bd",
                    "status": true,
                    "value": "0"
                },
                "nodeType": 0
            }
        },
        "gasFlame": [
            {
                "children": [
                    {
                        "children": [
                            {
                                "children": [],
                                "depth": 0,
                                "name": "Initial Gas",
                                "value": 22596
                            },
                            {
                                "children": [
                                    {
                                        "children": [],
                                        "depth": 1,
                                        "name": "slot0",
                                        "value": 2696
                                    }
                                ],
                                "depth": 0,
                                "name": "Executed Gas",
                                "value": 7298
                            }
                        ],
                        "depth": -1,
                        "name": "Actual Gas Used",
                        "value": 29894
                    },
                    {
                        "children": [],
                        "depth": -1,
                        "name": "Refunded Gas",
                        "value": 0
                    }
                ],
                "depth": -2,
                "name": "Total Gas",
                "value": 29894
            }
        ],
        "isConfirmed": true,
        "mainTrace": [
            {
                "children": [
                    {
                        "children": [
                            {
                                "children": [],
                                "depth": 1,
                                "id": 1,
                                "order": 1
                            }
                        ],
                        "depth": 0,
                        "id": 0,
                        "order": 0
                    }
                ],
                "depth": -1,
                "id": -1,
                "order": -1
            }
        ],
        "mainTraceNodeCount": 2,
        "parentIdMap": {
            "0": -1,
            "1": 0
        },
        "tidyTrace": [
            {
                "children": [
                    {
                        "children": [],
                        "depth": 0,
                        "id": 0,
                        "order": 0
                    }
                ],
                "depth": -1,
                "id": -1,
                "order": -1
            }
        ],
        "tidyTraceNodeCount": 1
    },
    "state_change": {
        "stateChanges": []
    }
}