{
    "balance_change": {
        "balanceChanges": [
            {
                "account": "0x3991adbdf461d6817734555efdc8ef056fefbf21",
                "assets": [
                    {
                        "address": "0xeeeeeeeeeeeeeeeeeeeeeeeeeeeeeeeeeeeeeeee",
                        "amount": "1",
                        "iconUrl": "https://assets.blocksec.com/image/1663669189317-3.png",
                        "isERC1155": false,
                        "isERC721": false,
                        "sign": false,
                        "value": "2649.100334"
                    },
                    {
                        "address": "0xae7ab96520de3a18e5e111b5eaab095312d7fe84",
                        "amount": "0.000000009999999999",
                        "iconUrl": "https://assets.blocksec.com/icon/3968fd5c98727016afc635f2849cea0c6ddf42095e660b8a3497ee09185b175e.png",
                        "isERC1155": false,
                        "isERC721": false,
                        "sign": true,
                        "value": "0.00002644"
                    }
                ]
            },
            {
                "account": "0xa2f987a546d4cd1c607ee8141276876c26b72bdf",
                "assets": [
                    {
                        "address": "0xae7ab96520de3a18e5e111b5eaab095312d7fe84",
                        "amount": "0.99999999",
                        "iconUrl": "https://assets.blocksec.com/icon/3968fd5c98727016afc635f2849cea0c6ddf42095e660b8a3497ee09185b175e.png",
                        "isERC1155": false,
                        "isERC721": false,
                        "sign": true,
                        "value": "2644.609307"
                    }
                ]
            },
            {
                "account": "0x0000000000000000000000000000000000000000",
                "assets": [
                    {
                        "address": "0xae7ab96520de3a18e5e111b5eaab095312d7fe84",
                        "amount": "0.999999999999999999",
                        "iconUrl": "https://assets.blocksec.com/icon/3968fd5c98727016afc635f2849cea0c6ddf42095e660b8a3497ee09185b175e.png",
                        "isERC1155": false,
                        "isERC721": false,
                        "sign": false,
                        "value": "2644.609334"
                    },
                    {
                        "address": "0x707f9118e33a9b8998bea41dd0d46f38bb963fc8",
                        "amount": "0.99999999",
                        "iconUrl": "",
                        "isERC1155": false,
                        "isERC721": false,
                        "sign": false,
                        "value": ""
                    }
                ]
            },
            {
                "account": "0x3ee18b2214aff97000d974cf647e7c347e8fa585",
                "assets": [
                    {
                        "address": "0x707f9118e33a9b8998bea41dd0d46f38bb963fc8",
                        "amount": "0.99999999",
                        "iconUrl": "",
                        "isERC1155": false,
                        "isERC721": false,
                        "sign": true,
                        "value": ""
                    }
                ]
            },
            {
                "account": "0xae7ab96520de3a18e5e111b5eaab095312d7fe84",
                "assets": [
                    {
                        "address": "0xeeeeeeeeeeeeeeeeeeeeeeeeeeeeeeeeeeeeeeee",
                        "amount": "1",
                        "iconUrl": "https://assets.blocksec.com/image/1663669189317-3.png",
                        "isERC1155": false,
                        "isERC721": false,
                        "sign": true,
                        "value": "2649.100334"
                    }
                ]
            }
        ]
    },
    "profile": {
        "basic_info": {
            "baseFee": "48.848497117",
            "blockNumber": 14271242,
            "callData": "0x16bf60c10000000000000000000000000000000000000000000000000de0b6b3a76400000000000000000000000000004dad0bda4836e762cc04200bff429cb76c3fe026000000000000000000000000000000000000000000000000000000000000008000000000000000000000000000000000000000000000000000000000000000030000000000000000000000000000000000000000000000000000000000000000",
            "debugEnable": true,
            "errorInfo": "",
            "eventCount": 9,
            "feeRecipient": "0x829bd824b016326a401d083b33d092293333a830",
            "formatValue": "1",
            "gasLimit": 292139,
            "gasPrice": "50.348497117",
            "gasUsed": 241695,
            "intTxnCount": 37,
            "internalRevert": false,
            "internalRevertMessage": "",
            "isContractCreation": false,
            "isFlashloan": false,
            "maxFee": "72.056789207",
            "nonce": 1311,
            "overwritedBlockNumber": -1,
            "priorityFee": "1.5",
            "receiver": "0xa2f987a546d4cd1c607ee8141276876c26b72bdf",
            "revertMessage": "",
            "sender": "0x3991adbdf461d6817734555efdc8ef056fefbf21",
            "simulationEnable": true,
            "sourceTxnHash": "0x74901850f748af59ea5a6ba63a4286091a9e6f36276bc5b7d74ec392ba0226c5",
            "status": true,
            "timestamp": "2022-02-24T21:25:03Z",
            "transactionFee": "0.012168980010693315",
            "txnHash": "0x74901850f748af59ea5a6ba63a4286091a9e6f36276bc5b7d74ec392ba0226c5",
            "txnIndex": 9,
            "type": 2,
            "value": "1000000000000000000"
        },
        "fund_flow": [
            {
                "amount": "1",
                "from": "0x3991adbdf461d6817734555efdc8ef056fefbf21",
                "id": 1,
                "isERC1155": false,
                "isERC721": false,
                "isReverted": false,
                "order": 1,
                "to": "0xa2f987a546d4cd1c607ee8141276876c26b72bdf",
                "token": "0xeeeeeeeeeeeeeeeeeeeeeeeeeeeeeeeeeeeeeeee"
            },
            {
                "amount": "1",
                "from": "0xa2f987a546d4cd1c607ee8141276876c26b72bdf",
                "id": 2,
                "isERC1155": false,
                "isERC721": false,
                "isReverted": false,
                "order": 2,
                "to": "0xae7ab96520de3a18e5e111b5eaab095312d7fe84",
                "token": "0xeeeeeeeeeeeeeeeeeeeeeeeeeeeeeeeeeeeeeeee"
            },
            {
                "amount": "0.999999999999999999",
                "from": "0x0000000000000000000000000000000000000000",
                "id": 3,
                "isERC1155": false,
                "isERC721": false,
                "isReverted": false,
                "order": 3,
                "to": "0xa2f987a546d4cd1c607ee8141276876c26b72bdf",
                "token": "0xae7ab96520de3a18e5e111b5eaab095312d7fe84"
            },
            {
                "amount": "0.000000009999999999",
                "from": "0xa2f987a546d4cd1c607ee8141276876c26b72bdf",
                "id": 4,
                "isERC1155": false,
                "isERC721": false,
                "isReverted": false,
                "order": 4,
                "to": "0x3991adbdf461d6817734555efdc8ef056fefbf21",
                "token": "0xae7ab96520de3a18e5e111b5eaab095312d7fe84"
            },
            {
                "amount": "0.99999999",
                "from": "0x0000000000000000000000000000000000000000",
                "id": 5,
                "isERC1155": false,
                "isERC721": false,
                "isReverted": false,
                "order": 5,
                "to": "0x2618e94a7f6118aced2e51e0a05da43d2e2ed40c",
                "token": "0x707f9118e33a9b8998bea41dd0d46f38bb963fc8"
            },
            {
                "amount": "0.99999999",
                "from": "0x2618e94a7f6118aced2e51e0a05da43d2e2ed40c",
                "id": 6,
                "isERC1155": false,
                "isERC721": false,
                "isReverted": false,
                "order": 6,
                "to": "0x3ee18b2214aff97000d974cf647e7c347e8fa585",
                "token": "0x707f9118e33a9b8998bea41dd0d46f38bb963fc8"
            }
        ],
        "token_infos": [
            {
                "address": "0xae7ab96520de3a18e5e111b5eaab095312d7fe84",
                "decimals": 18
            },
            {
                "address": "0xc02aaa39b223fe8d0a0e5c4f27ead9083c756cc2",
                "decimals": 18
            },
            {
                "address": "0xeeeeeeeeeeeeeeeeeeeeeeeeeeeeeeeeeeeeeeee",
                "decimals": 18
            },
            {
                "address": "0x707f9118e33a9b8998bea41dd0d46f38bb963fc8",
                "decimals": 18
            }
        ]
    },
    "address_label": {
        "labels": [
            {
                "address": "0xeeeeeeeeeeeeeeeeeeeeeeeeeeeeeeeeeeeeeeee",
                "label": "Ether"
            },
            {
                "address": "0x0000000000000000000000000000000000000001",
                "label": "Precompiled"
            },
            {
                "address": "0xc7b5af82b05eb3b64f12241b04b2cf14469e39f7",
                "label": "Liquid staked Ether 2.0 (stETH)"
            },
            {
                "address": "0x0000000000000000000000000000000000000004",
                "label": "Precompiled"
            },
            {
                "address": "0x2618e94a7f6118aced2e51e0a05da43d2e2ed40c",
                "label": "Anchor Protocol: Bridge Connector Wormhole"
            },
            {
                "address": "0x98f3c9e6e3face36baad05fe09d375ef1464288b",
                "label": "Wormhole: Ethereum Core Bridge"
            },
            {
                "address": "0x2b33cf282f867a7ff693a66e11b0fcc5552e4425",
                "label": "Lido: DAO Impl 1.0.0"
            },
            {
                "address": "0xb8ffc3cd6e7cf5a098a1c92f48009765b24088dc",
                "label": "Lido: DAO"
            },
            {
                "address": "0x07be9bb2b1789b8f5b2f9345f18378a8b036a171",
                "label": "Anchor Protocol: Anchor Vault impl"
            },
            {
                "address": "0x91175aee6dac41b9c1f749ded077568ad93b84ca",
                "label": "BridgeImplementation"
            },
            {
                "address": "0xa2f987a546d4cd1c607ee8141276876c26b72bdf",
                "label": "Anchor Protocol: AnchorVault"
            },
            {
                "address": "0x3ee18b2214aff97000d974cf647e7c347e8fa585",
                "label": "Wormhole: Portal Token Bridge"
            },
            {
                "address": "0x0000000000000000000000000000000000000002",
                "label": "Precompiled"
            },
            {
                "address": "0x707f9118e33a9b8998bea41dd0d46f38bb963fc8",
                "label": "Anchor Protocol: bETH Token"
            },
            {
                "address": "0xae7ab96520de3a18e5e111b5eaab095312d7fe84",
                "label": "Lido: stETH Token"
            },
            {
                "address": "0x736d2a394f7810c17b3c6fed017d5bc7d60c077d",
                "label": "Implementation"
            },
            {
                "address": "0x0000000000000000000000000000000000000003",
                "label": "Precompiled"
            }
        ]
    },
    "trace": {
        "accountLabels": null,
        "dataMap": {
            "-1": {
                "invocation": {
                    "address": "0x3991adbdf461d6817734555efdc8ef056fefbf21",
                    "callData": "",
                    "decodedMethod": null,
                    "errorInfo": "",
                    "fromAddress": "",
                    "gasUsed": 0,
                    "id": -1,
                    "methodDecoded": false,
                    "operation": "",
                    "output": "",
                    "revert": false,
                    "revertMessage": "",
                    "selector": "",
                    "status": false,
                    "value": ""
                },
                "nodeType": 0
            },
            "0": {
                "invocation": {
                    "address": "0xa2f987a546d4cd1c607ee8141276876c26b72bdf",
                    "callData": "0x0000000000000000000000000000000000000000000000000de0b6b3a76400000000000000000000000000004dad0bda4836e762cc04200bff429cb76c3fe026000000000000000000000000000000000000000000000000000000000000008000000000000000000000000000000000000000000000000000000000000000030000000000000000000000000000000000000000000000000000000000000000",
                    "decodedMethod": {
                        "callParams": [
                            {
                                "name": "_amount",
                                "type": "uint256",
                                "value": "1,000,000,000,000,000,000"
                            },
                            {
                                "name": "_terra_address",
                                "type": "bytes32",
                                "value": "0x0000000000000000000000004dad0bda4836e762cc04200bff429cb76c3fe026"
                            },
                            {
                                "name": "_extra_data",
                                "type": "bytes",
                                "value": "0x"
                            },
                            {
                                "name": "_expected_version",
                                "type": "uint256",
                                "value": "3"
                            }
                        ],
                        "constructorArguments": "",
                        "name": "submit",
                        "returnParams": [
                            {
                                "name": "",
                                "type": "uint256",
                                "value": "999,999,990,000,000,000"
                            },
                            {
                                "name": "",
                                "type": "uint256",
                                "value": "999,999,990,000,000,000"
                            }
                        ],
                        "signature": "submit(uint256,bytes32,bytes,uint256)"
                    },
                    "errorInfo": "",
                    "fromAddress": "0x3991adbdf461d6817734555efdc8ef056fefbf21",
                    "gasUsed": 241695,
                    "id": 0,
                    "methodDecoded": true,
                    "operation": "CALL",
                    "output": "0x0000000000000000000000000000000000000000000000000de0b6b153581c000000000000000000000000000000000000000000000000000de0b6b153581c00",
                    "revert": false,
                    "revertMessage": "",
                    "selector": "0x16bf60c1",
                    "status": true,
                    "value": "1"
                },
                "nodeType": 0
            },
            "1": {
                "invocation": {
                    "address": "0x07be9bb2b1789b8f5b2f9345f18378a8b036a171",
                    "callData": "0x0000000000000000000000000000000000000000000000000de0b6b3a76400000000000000000000000000004dad0bda4836e762cc04200bff429cb76c3fe026000000000000000000000000000000000000000000000000000000000000008000000000000000000000000000000000000000000000000000000000000000030000000000000000000000000000000000000000000000000000000000000000",
                    "decodedMethod": {
                        "callParams": [
                            {
                                "name": "_amount",
                                "type": "uint256",
                                "value": "1,000,000,000,000,000,000"
                            },
                            {
                                "name": "_terra_address",
                                "type": "bytes32",
                                "value": "0x0000000000000000000000004dad0bda4836e762cc04200bff429cb76c3fe026"
                            },
                            {
                                "name": "_extra_data",
                                "type": "bytes",
                                "value": "0x"
                            },
                            {
                                "name": "_expected_version",
                                "type": "uint256",
                                "value": "3"
                            }
                        ],
                        "constructorArguments": "",
                        "name": "submit",
                        "returnParams": [
                            {
                                "name": "",
                                "type": "uint256",
                                "value": "999,999,990,000,000,000"
                            },
                            {
                                "name": "",
                                "type": "uint256",
                                "value": "999,999,990,000,000,000"
                            }
                        ],
                        "signature": "submit(uint256,bytes32,bytes,uint256)"
                    },
                    "errorInfo": "",
                    "fromAddress": "0xa2f987a546d4cd1c607ee8141276876c26b72bdf",
                    "gasUsed": 257236,
                    "id": 1,
                    "methodDecoded": true,
                    "operation": "DELEGATECALL",
                    "output": "0x0000000000000000000000000000000000000000000000000de0b6b153581c000000000000000000000000000000000000000000000000000de0b6b153581c00",
                    "revert": false,
                    "revertMessage": "",
                    "selector": "0x16bf60c1",
                    "status": true,
                    "value": "1"
                },
                "nodeType": 0
            },
            "10": {
                "event": {
                    "contract": "0xae7ab96520de3a18e5e111b5eaab095312d7fe84",
                    "decodedLog": {
                        "name": "Submitted",
                        "params": [
                            {
                                "name": "sender",
                                "type": "address",
                                "value": "0xa2f987a546d4cd1c607ee8141276876c26b72bdf"
                            },
                            {
                                "name": "amount",
                                "type": "uint256",
                                "value": "1,000,000,000,000,000,000"
                            },
                            {
                                "name": "referral",
                                "type": "address",
                                "value": "0xa2f987a546d4cd1c607ee8141276876c26b72bdf"
                            }
                        ],
                        "signature": "Submitted(address,uint256,address)"
                    },
                    "id": 10,
                    "logData": "0x0000000000000000000000000000000000000000000000000de0b6b3a7640000000000000000000000000000a2f987a546d4cd1c607ee8141276876c26b72bdf",
                    "logDecoded": true,
                    "operation": "EVENT",
                    "revert": false,
                    "status": true,
                    "topics": [
                        "0x96a25c8ce0baabc1fdefd93e9ed25d8e092a3332f3aa9a41722b5697231d1d1a",
                        "0x000000000000000000000000a2f987a546d4cd1c607ee8141276876c26b72bdf"
                    ]
                },
                "nodeType": 1
            },
            "11": {
                "event": {
                    "contract": "0xae7ab96520de3a18e5e111b5eaab095312d7fe84",
                    "decodedLog": {
                        "name": "Transfer",
                        "params": [
                            {
                                "name": "from",
                                "type": "address",
                                "value": "0x0000000000000000000000000000000000000000"
                            },
                            {
                                "name": "to",
                                "type": "address",
                                "value": "0xa2f987a546d4cd1c607ee8141276876c26b72bdf"
                            },
                            {
                                "decimalAvailable": true,
                                "name": "value",
                                "type": "uint256",
                                "value": "999,999,999,999,999,999"
                            }
                        ],
                        "signature": "Transfer(address,address,uint256)"
                    },
                    "id": 11,
                    "logData": "0x0000000000000000000000000000000000000000000000000de0b6b3a763ffff",
                    "logDecoded": true,
                    "operation": "EVENT",
                    "revert": false,
                    "status": true,
                    "topics": [
                        "0xddf252ad1be2c89b69c2b068fc378daa952ba7f163c4a11628f55a4df523b3ef",
                        "0x0000000000000000000000000000000000000000000000000000000000000000",
                        "0x000000000000000000000000a2f987a546d4cd1c607ee8141276876c26b72bdf"
                    ]
                },
                "nodeType": 1
            },
            "12": {
                "invocation": {
                    "address": "0xae7ab96520de3a18e5e111b5eaab095312d7fe84",
                    "callData": "0x0000000000000000000000000000000000000000000000000d10d4d412634f8b",
                    "decodedMethod": {
                        "callParams": [
                            {
                                "name": "_sharesAmount",
                                "type": "uint256",
                                "value": "941,486,329,427,087,243"
                            }
                        ],
                        "constructorArguments": "",
                        "name": "getPooledEthByShares",
                        "returnParams": [
                            {
                                "name": "",
                                "type": "uint256",
                                "value": "999,999,999,999,999,999"
                            }
                        ],
                        "signature": "getPooledEthByShares(uint256)"
                    },
                    "errorInfo": "",
                    "fromAddress": "0xa2f987a546d4cd1c607ee8141276876c26b72bdf",
                    "gasUsed": 6818,
                    "id": 12,
                    "methodDecoded": true,
                    "operation": "STATICCALL",
                    "output": "0x0000000000000000000000000000000000000000000000000de0b6b3a763ffff",
                    "revert": false,
                    "revertMessage": "",
                    "selector": "0x7a28fb88",
                    "status": true,
                    "value": "0"
                },
                "nodeType": 0
            },
            "13": {
                "invocation": {
                    "address": "0xb8ffc3cd6e7cf5a098a1c92f48009765b24088dc",
                    "callData": "0xf1f3eb40f5bc1ad1344716ced8b8a0431d840b5783aea1fd01786bc26f35ac0f3ca7c3e38968823ccb4c78ea688df41356f182ae1d159e4ee608d30d68cef320",
                    "decodedMethod": {
                        "callParams": [
                            {
                                "name": "_namespace",
                                "type": "bytes32",
                                "value": "0xf1f3eb40f5bc1ad1344716ced8b8a0431d840b5783aea1fd01786bc26f35ac0f"
                            },
                            {
                                "name": "_appId",
                                "type": "bytes32",
                                "value": "0x3ca7c3e38968823ccb4c78ea688df41356f182ae1d159e4ee608d30d68cef320"
                            }
                        ],
                        "constructorArguments": "",
                        "name": "getApp",
                        "returnParams": [
                            {
                                "name": "",
                                "type": "address",
                                "value": "0xc7b5af82b05eb3b64f12241b04b2cf14469e39f7"
                            }
                        ],
                        "signature": "getApp(bytes32,bytes32)"
                    },
                    "errorInfo": "",
                    "fromAddress": "0xae7ab96520de3a18e5e111b5eaab095312d7fe84",
                    "gasUsed": 1763,
                    "id": 13,
                    "methodDecoded": true,
                    "operation": "CALL",
                    "output": "0x000000000000000000000000c7b5af82b05eb3b64f12241b04b2cf14469e39f7",
                    "revert": false,
                    "revertMessage": "",
                    "selector": "0xbe00bbd8",
                    "status": true,
                    "value": "0"
                },
                "nodeType": 0
            },
            "14": {
                "invocation": {
                    "address": "0x2b33cf282f867a7ff693a66e11b0fcc5552e4425",
                    "callData": "0xf1f3eb40f5bc1ad1344716ced8b8a0431d840b5783aea1fd01786bc26f35ac0f3ca7c3e38968823ccb4c78ea688df41356f182ae1d159e4ee608d30d68cef320",
                    "decodedMethod": {
                        "callParams": [
                            {
                                "name": "_namespace",
                                "type": "bytes32",
                                "value": "0xf1f3eb40f5bc1ad1344716ced8b8a0431d840b5783aea1fd01786bc26f35ac0f"
                            },
                            {
                                "name": "_appId",
                                "type": "bytes32",
                                "value": "0x3ca7c3e38968823ccb4c78ea688df41356f182ae1d159e4ee608d30d68cef320"
                            }
                        ],
                        "constructorArguments": "",
                        "name": "getApp",
                        "returnParams": [
                            {
                                "name": "",
                                "type": "address",
                                "value": "0xc7b5af82b05eb3b64f12241b04b2cf14469e39f7"
                            }
                        ],
                        "signature": "getApp(bytes32,bytes32)"
                    },
                    "errorInfo": "",
                    "fromAddress": "0xb8ffc3cd6e7cf5a098a1c92f48009765b24088dc",
                    "gasUsed": 820,
                    "id": 14,
                    "methodDecoded": true,
                    "operation": "DELEGATECALL",
                    "output": "0x000000000000000000000000c7b5af82b05eb3b64f12241b04b2cf14469e39f7",
                    "revert": false,
                    "revertMessage": "",
                    "selector": "0xbe00bbd8",
                    "status": true,
                    "value": "0"
                },
                "nodeType": 0
            },
            "15": {
                "invocation": {
                    "address": "0xc7b5af82b05eb3b64f12241b04b2cf14469e39f7",
                    "callData": "0x0000000000000000000000000000000000000000000000000d10d4d412634f8b",
                    "decodedMethod": {
                        "callParams": [
                            {
                                "name": "_sharesAmount",
                                "type": "uint256",
                                "value": "941,486,329,427,087,243"
                            }
                        ],
                        "constructorArguments": "",
                        "name": "getPooledEthByShares",
                        "returnParams": [
                            {
                                "name": "",
                                "type": "uint256",
                                "value": "999,999,999,999,999,999"
                            }
                        ],
                        "signature": "getPooledEthByShares(uint256)"
                    },
                    "errorInfo": "",
                    "fromAddress": "0xae7ab96520de3a18e5e111b5eaab095312d7fe84",
                    "gasUsed": 3438,
                    "id": 15,
                    "methodDecoded": true,
                    "operation": "DELEGATECALL",
                    "output": "0x0000000000000000000000000000000000000000000000000de0b6b3a763ffff",
                    "revert": false,
                    "revertMessage": "",
                    "selector": "0x7a28fb88",
                    "status": true,
                    "value": "0"
                },
                "nodeType": 0
            },
            "16": {
                "invocation": {
                    "address": "0xae7ab96520de3a18e5e111b5eaab095312d7fe84",
                    "callData": "0x000000000000000000000000a2f987a546d4cd1c607ee8141276876c26b72bdf",
                    "decodedMethod": {
                        "callParams": [
                            {
                                "name": "account",
                                "type": "address",
                                "value": "0xa2f987a546d4cd1c607ee8141276876c26b72bdf"
                            }
                        ],
                        "constructorArguments": "",
                        "name": "balanceOf",
                        "returnParams": [
                            {
                                "decimalAvailable": true,
                                "name": "",
                                "type": "uint256",
                                "value": "268,891,596,432,740,542,095,201"
                            }
                        ],
                        "signature": "balanceOf(address)"
                    },
                    "errorInfo": "",
                    "fromAddress": "0xa2f987a546d4cd1c607ee8141276876c26b72bdf",
                    "gasUsed": 7163,
                    "id": 16,
                    "methodDecoded": true,
                    "operation": "STATICCALL",
                    "output": "0x0000000000000000000000000000000000000000000038f0a484c2d788f89f61",
                    "revert": false,
                    "revertMessage": "",
                    "selector": "0x70a08231",
                    "status": true,
                    "value": "0"
                },
                "nodeType": 0
            },
            "17": {
                "invocation": {
                    "address": "0xb8ffc3cd6e7cf5a098a1c92f48009765b24088dc",
                    "callData": "0xf1f3eb40f5bc1ad1344716ced8b8a0431d840b5783aea1fd01786bc26f35ac0f3ca7c3e38968823ccb4c78ea688df41356f182ae1d159e4ee608d30d68cef320",
                    "decodedMethod": {
                        "callParams": [
                            {
                                "name": "_namespace",
                                "type": "bytes32",
                                "value": "0xf1f3eb40f5bc1ad1344716ced8b8a0431d840b5783aea1fd01786bc26f35ac0f"
                            },
                            {
                                "name": "_appId",
                                "type": "bytes32",
                                "value": "0x3ca7c3e38968823ccb4c78ea688df41356f182ae1d159e4ee608d30d68cef320"
                            }
                        ],
                        "constructorArguments": "",
                        "name": "getApp",
                        "returnParams": [
                            {
                                "name": "",
                                "type": "address",
                                "value": "0xc7b5af82b05eb3b64f12241b04b2cf14469e39f7"
                            }
                        ],
                        "signature": "getApp(bytes32,bytes32)"
                    },
                    "errorInfo": "",
                    "fromAddress": "0xae7ab96520de3a18e5e111b5eaab095312d7fe84",
                    "gasUsed": 1763,
                    "id": 17,
                    "methodDecoded": true,
                    "operation": "CALL",
                    "output": "0x000000000000000000000000c7b5af82b05eb3b64f12241b04b2cf14469e39f7",
                    "revert": false,
                    "revertMessage": "",
                    "selector": "0xbe00bbd8",
                    "status": true,
                    "value": "0"
                },
                "nodeType": 0
            },
            "18": {
                "invocation": {
                    "address": "0x2b33cf282f867a7ff693a66e11b0fcc5552e4425",
                    "callData": "0xf1f3eb40f5bc1ad1344716ced8b8a0431d840b5783aea1fd01786bc26f35ac0f3ca7c3e38968823ccb4c78ea688df41356f182ae1d159e4ee608d30d68cef320",
                    "decodedMethod": {
                        "callParams": [
                            {
                                "name": "_namespace",
                                "type": "bytes32",
                                "value": "0xf1f3eb40f5bc1ad1344716ced8b8a0431d840b5783aea1fd01786bc26f35ac0f"
                            },
                            {
                                "name": "_appId",
                                "type": "bytes32",
                                "value": "0x3ca7c3e38968823ccb4c78ea688df41356f182ae1d159e4ee608d30d68cef320"
                            }
                        ],
                        "constructorArguments": "",
                        "name": "getApp",
                        "returnParams": [
                            {
                                "name": "",
                                "type": "address",
                                "value": "0xc7b5af82b05eb3b64f12241b04b2cf14469e39f7"
                            }
                        ],
                        "signature": "getApp(bytes32,bytes32)"
                    },
                    "errorInfo": "",
                    "fromAddress": "0xb8ffc3cd6e7cf5a098a1c92f48009765b24088dc",
                    "gasUsed": 820,
                    "id": 18,
                    "methodDecoded": true,
                    "operation": "DELEGATECALL",
                    "output": "0x000000000000000000000000c7b5af82b05eb3b64f12241b04b2cf14469e39f7",
                    "revert": false,
                    "revertMessage": "",
                    "selector": "0xbe00bbd8",
                    "status": true,
                    "value": "0"
                },
                "nodeType": 0
            },
            "19": {
                "invocation": {
                    "address": "0xc7b5af82b05eb3b64f12241b04b2cf14469e39f7",
                    "callData": "0x000000000000000000000000a2f987a546d4cd1c607ee8141276876c26b72bdf",
                    "decodedMethod": {
                        "callParams": [
                            {
                                "name": "_account",
                                "type": "address",
                                "value": "0xa2f987a546d4cd1c607ee8141276876c26b72bdf"
                            }
                        ],
                        "constructorArguments": "",
                        "name": "balanceOf",
                        "returnParams": [
                            {
                                "decimalAvailable": true,
                                "name": "",
                                "type": "uint256",
                                "value": "268,891,596,432,740,542,095,201"
                            }
                        ],
                        "signature": "balanceOf(address)"
                    },
                    "errorInfo": "",
                    "fromAddress": "0xae7ab96520de3a18e5e111b5eaab095312d7fe84",
                    "gasUsed": 3783,
                    "id": 19,
                    "methodDecoded": true,
                    "operation": "DELEGATECALL",
                    "output": "0x0000000000000000000000000000000000000000000038f0a484c2d788f89f61",
                    "revert": false,
                    "revertMessage": "",
                    "selector": "0x70a08231",
                    "status": true,
                    "value": "0"
                },
                "nodeType": 0
            },
            "2": {
                "invocation": {
                    "address": "0xae7ab96520de3a18e5e111b5eaab095312d7fe84",
                    "callData": "0x0000000000000000000000000000000000000000000000000de0b6b3a7640000",
                    "decodedMethod": {
                        "callParams": [
                            {
                                "name": "_sharesAmount",
                                "type": "uint256",
                                "value": "1,000,000,000,000,000,000"
                            }
                        ],
                        "constructorArguments": "",
                        "name": "getPooledEthByShares",
                        "returnParams": [
                            {
                                "name": "",
                                "type": "uint256",
                                "value": "1,062,150,313,545,730,891"
                            }
                        ],
                        "signature": "getPooledEthByShares(uint256)"
                    },
                    "errorInfo": "",
                    "fromAddress": "0xa2f987a546d4cd1c607ee8141276876c26b72bdf",
                    "gasUsed": 32318,
                    "id": 2,
                    "methodDecoded": true,
                    "operation": "STATICCALL",
                    "output": "0x0000000000000000000000000000000000000000000000000ebd841528f68b4b",
                    "revert": false,
                    "revertMessage": "",
                    "selector": "0x7a28fb88",
                    "status": true,
                    "value": "0"
                },
                "nodeType": 0
            },
            "20": {
                "invocation": {
                    "address": "0x707f9118e33a9b8998bea41dd0d46f38bb963fc8",
                    "callData": "0x",
                    "decodedMethod": {
                        "callParams": [],
                        "constructorArguments": "",
                        "name": "totalSupply",
                        "returnParams": [
                            {
                                "name": "",
                                "type": "uint256",
                                "value": "269,334,157,551,310,541,997,556"
                            }
                        ],
                        "signature": "totalSupply()"
                    },
                    "errorInfo": "",
                    "fromAddress": "0xa2f987a546d4cd1c607ee8141276876c26b72bdf",
                    "gasUsed": 2572,
                    "id": 20,
                    "methodDecoded": true,
                    "operation": "STATICCALL",
                    "output": "0x000000000000000000000000000000000000000000003908a249b3645d58c5f4",
                    "revert": false,
                    "revertMessage": "",
                    "selector": "0x18160ddd",
                    "status": true,
                    "value": "0"
                },
                "nodeType": 0
            },
            "21": {
                "invocation": {
                    "address": "0x2618e94a7f6118aced2e51e0a05da43d2e2ed40c",
                    "callData": "0x0000000000000000000000000000000000000000000000000de0b6b3a763ffff0000000000000000000000000000000000000000000000000000000000000012",
                    "decodedMethod": {
                        "callParams": [
                            {
                                "name": "amount",
                                "type": "uint256",
                                "value": "999,999,999,999,999,999"
                            },
                            {
                                "name": "_decimals",
                                "type": "uint256",
                                "value": "18"
                            }
                        ],
                        "constructorArguments": "",
                        "name": "adjust_amount",
                        "returnParams": [
                            {
                                "name": "_adujusted_amount",
                                "type": "uint256",
                                "value": "999,999,990,000,000,000"
                            }
                        ],
                        "signature": "adjust_amount(uint256,uint256)"
                    },
                    "errorInfo": "",
                    "fromAddress": "0xa2f987a546d4cd1c607ee8141276876c26b72bdf",
                    "gasUsed": 520,
                    "id": 21,
                    "methodDecoded": true,
                    "operation": "STATICCALL",
                    "output": "0x0000000000000000000000000000000000000000000000000de0b6b153581c00",
                    "revert": false,
                    "revertMessage": "",
                    "selector": "0xd775b5f2",
                    "status": true,
                    "value": "0"
                },
                "nodeType": 0
            },
            "22": {
                "invocation": {
                    "address": "0xae7ab96520de3a18e5e111b5eaab095312d7fe84",
                    "callData": "0x0000000000000000000000003991adbdf461d6817734555efdc8ef056fefbf2100000000000000000000000000000000000000000000000000000002540be3ff",
                    "decodedMethod": {
                        "callParams": [
                            {
                                "name": "recipient",
                                "type": "address",
                                "value": "0x3991adbdf461d6817734555efdc8ef056fefbf21"
                            },
                            {
                                "decimalAvailable": true,
                                "name": "amount",
                                "type": "uint256",
                                "value": "9,999,999,999"
                            }
                        ],
                        "constructorArguments": "",
                        "name": "transfer",
                        "returnParams": [
                            {
                                "name": "",
                                "type": "bool",
                                "value": true
                            }
                        ],
                        "signature": "transfer(address,uint256)"
                    },
                    "errorInfo": "",
                    "fromAddress": "0xa2f987a546d4cd1c607ee8141276876c26b72bdf",
                    "gasUsed": 15975,
                    "id": 22,
                    "methodDecoded": true,
                    "operation": "CALL",
                    "output": "0x0000000000000000000000000000000000000000000000000000000000000001",
                    "revert": false,
                    "revertMessage": "",
                    "selector": "0xa9059cbb",
                    "status": true,
                    "value": "0"
                },
                "nodeType": 0
            },
            "23": {
                "invocation": {
                    "address": "0xb8ffc3cd6e7cf5a098a1c92f48009765b24088dc",
                    "callData": "0xf1f3eb40f5bc1ad1344716ced8b8a0431d840b5783aea1fd01786bc26f35ac0f3ca7c3e38968823ccb4c78ea688df41356f182ae1d159e4ee608d30d68cef320",
                    "decodedMethod": {
                        "callParams": [
                            {
                                "name": "_namespace",
                                "type": "bytes32",
                                "value": "0xf1f3eb40f5bc1ad1344716ced8b8a0431d840b5783aea1fd01786bc26f35ac0f"
                            },
                            {
                                "name": "_appId",
                                "type": "bytes32",
                                "value": "0x3ca7c3e38968823ccb4c78ea688df41356f182ae1d159e4ee608d30d68cef320"
                            }
                        ],
                        "constructorArguments": "",
                        "name": "getApp",
                        "returnParams": [
                            {
                                "name": "",
                                "type": "address",
                                "value": "0xc7b5af82b05eb3b64f12241b04b2cf14469e39f7"
                            }
                        ],
                        "signature": "getApp(bytes32,bytes32)"
                    },
                    "errorInfo": "",
                    "fromAddress": "0xae7ab96520de3a18e5e111b5eaab095312d7fe84",
                    "gasUsed": 1763,
                    "id": 23,
                    "methodDecoded": true,
                    "operation": "CALL",
                    "output": "0x000000000000000000000000c7b5af82b05eb3b64f12241b04b2cf14469e39f7",
                    "revert": false,
                    "revertMessage": "",
                    "selector": "0xbe00bbd8",
                    "status": true,
                    "value": "0"
                },
                "nodeType": 0
            },
            "24": {
                "invocation": {
                    "address": "0x2b33cf282f867a7ff693a66e11b0fcc5552e4425",
                    "callData": "0xf1f3eb40f5bc1ad1344716ced8b8a0431d840b5783aea1fd01786bc26f35ac0f3ca7c3e38968823ccb4c78ea688df41356f182ae1d159e4ee608d30d68cef320",
                    "decodedMethod": {
                        "callParams": [
                            {
                                "name": "_namespace",
                                "type": "bytes32",
                                "value": "0xf1f3eb40f5bc1ad1344716ced8b8a0431d840b5783aea1fd01786bc26f35ac0f"
                            },
                            {
                                "name": "_appId",
                                "type": "bytes32",
                                "value": "0x3ca7c3e38968823ccb4c78ea688df41356f182ae1d159e4ee608d30d68cef320"
                            }
                        ],
                        "constructorArguments": "",
                        "name": "getApp",
                        "returnParams": [
                            {
                                "name": "",
                                "type": "address",
                                "value": "0xc7b5af82b05eb3b64f12241b04b2cf14469e39f7"
                            }
                        ],
                        "signature": "getApp(bytes32,bytes32)"
                    },
                    "errorInfo": "",
                    "fromAddress": "0xb8ffc3cd6e7cf5a098a1c92f48009765b24088dc",
                    "gasUsed": 820,
                    "id": 24,
                    "methodDecoded": true,
                    "operation": "DELEGATECALL",
                    "output": "0x000000000000000000000000c7b5af82b05eb3b64f12241b04b2cf14469e39f7",
                    "revert": false,
                    "revertMessage": "",
                    "selector": "0xbe00bbd8",
                    "status": true,
                    "value": "0"
                },
                "nodeType": 0
            },
            "25": {
                "invocation": {
                    "address": "0xc7b5af82b05eb3b64f12241b04b2cf14469e39f7",
                    "callData": "0x0000000000000000000000003991adbdf461d6817734555efdc8ef056fefbf2100000000000000000000000000000000000000000000000000000002540be3ff",
                    "decodedMethod": {
                        "callParams": [
                            {
                                "name": "_recipient",
                                "type": "address",
                                "value": "0x3991adbdf461d6817734555efdc8ef056fefbf21"
                            },
                            {
                                "decimalAvailable": true,
                                "name": "_amount",
                                "type": "uint256",
                                "value": "9,999,999,999"
                            }
                        ],
                        "constructorArguments": "",
                        "name": "transfer",
                        "returnParams": [
                            {
                                "name": "",
                                "type": "bool",
                                "value": true
                            }
                        ],
                        "signature": "transfer(address,uint256)"
                    },
                    "errorInfo": "",
                    "fromAddress": "0xae7ab96520de3a18e5e111b5eaab095312d7fe84",
                    "gasUsed": 12589,
                    "id": 25,
                    "methodDecoded": true,
                    "operation": "DELEGATECALL",
                    "output": "0x0000000000000000000000000000000000000000000000000000000000000001",
                    "revert": false,
                    "revertMessage": "",
                    "selector": "0xa9059cbb",
                    "status": true,
                    "value": "0"
                },
                "nodeType": 0
            },
            "26": {
                "event": {
                    "contract": "0xae7ab96520de3a18e5e111b5eaab095312d7fe84",
                    "decodedLog": {
                        "name": "Transfer",
                        "params": [
                            {
                                "name": "from",
                                "type": "address",
                                "value": "0xa2f987a546d4cd1c607ee8141276876c26b72bdf"
                            },
                            {
                                "name": "to",
                                "type": "address",
                                "value": "0x3991adbdf461d6817734555efdc8ef056fefbf21"
                            },
                            {
                                "decimalAvailable": true,
                                "name": "value",
                                "type": "uint256",
                                "value": "9,999,999,999"
                            }
                        ],
                        "signature": "Transfer(address,address,uint256)"
                    },
                    "id": 26,
                    "logData": "0x00000000000000000000000000000000000000000000000000000002540be3ff",
                    "logDecoded": true,
                    "operation": "EVENT",
                    "revert": false,
                    "status": true,
                    "topics": [
                        "0xddf252ad1be2c89b69c2b068fc378daa952ba7f163c4a11628f55a4df523b3ef",
                        "0x000000000000000000000000a2f987a546d4cd1c607ee8141276876c26b72bdf",
                        "0x0000000000000000000000003991adbdf461d6817734555efdc8ef056fefbf21"
                    ]
                },
                "nodeType": 1
            },
            "27": {
                "invocation": {
                    "address": "0x707f9118e33a9b8998bea41dd0d46f38bb963fc8",
                    "callData": "0x0000000000000000000000002618e94a7f6118aced2e51e0a05da43d2e2ed40c0000000000000000000000000000000000000000000000000de0b6b153581c00",
                    "decodedMethod": {
                        "callParams": [
                            {
                                "name": "to",
                                "type": "address",
                                "value": "0x2618e94a7f6118aced2e51e0a05da43d2e2ed40c"
                            },
                            {
                                "name": "amount",
                                "type": "uint256",
                                "value": "999,999,990,000,000,000"
                            }
                        ],
                        "constructorArguments": "",
                        "name": "mint",
                        "returnParams": [],
                        "signature": "mint(address,uint256)"
                    },
                    "errorInfo": "",
                    "fromAddress": "0xa2f987a546d4cd1c607ee8141276876c26b72bdf",
                    "gasUsed": 29411,
                    "id": 27,
                    "methodDecoded": true,
                    "operation": "CALL",
                    "output": "",
                    "revert": false,
                    "revertMessage": "",
                    "selector": "0x40c10f19",
                    "status": true,
                    "value": "0"
                },
                "nodeType": 0
            },
            "28": {
                "event": {
                    "contract": "0x707f9118e33a9b8998bea41dd0d46f38bb963fc8",
                    "decodedLog": {
                        "name": "Transfer",
                        "params": [
                            {
                                "name": "from",
                                "type": "address",
                                "value": "0x0000000000000000000000000000000000000000"
                            },
                            {
                                "name": "to",
                                "type": "address",
                                "value": "0x2618e94a7f6118aced2e51e0a05da43d2e2ed40c"
                            },
                            {
                                "decimalAvailable": true,
                                "name": "value",
                                "type": "uint256",
                                "value": "999,999,990,000,000,000"
                            }
                        ],
                        "signature": "Transfer(address,address,uint256)"
                    },
                    "id": 28,
                    "logData": "0x0000000000000000000000000000000000000000000000000de0b6b153581c00",
                    "logDecoded": true,
                    "operation": "EVENT",
                    "revert": false,
                    "status": true,
                    "topics": [
                        "0xddf252ad1be2c89b69c2b068fc378daa952ba7f163c4a11628f55a4df523b3ef",
                        "0x0000000000000000000000000000000000000000000000000000000000000000",
                        "0x0000000000000000000000002618e94a7f6118aced2e51e0a05da43d2e2ed40c"
                    ]
                },
                "nodeType": 1
            },
            "29": {
                "invocation": {
                    "address": "0x0000000000000000000000000000000000000004",
                    "callData": "0x00000000000000000000000000000000000000000000000000000000",
                    "decodedMethod": {
                        "callParams": [
                            {
                                "name": "data",
                                "type": "bytes",
                                "value": "0x0000000000000000000000000000000000000000000000000000000000000000"
                            }
                        ],
                        "constructorArguments": "",
                        "name": "dataCopy()",
                        "returnParams": [
                            {
                                "name": "data",
                                "type": "bytes",
                                "value": "0x0000000000000000000000000000000000000000000000000000000000000000"
                            }
                        ],
                        "signature": "dataCopy(bytes)"
                    },
                    "errorInfo": "",
                    "fromAddress": "0xa2f987a546d4cd1c607ee8141276876c26b72bdf",
                    "gasUsed": 18,
                    "id": 29,
                    "methodDecoded": true,
                    "operation": "CALL",
                    "output": "0x0000000000000000000000000000000000000000000000000000000000000000",
                    "revert": false,
                    "revertMessage": "",
                    "selector": "0x00000000",
                    "status": true,
                    "value": "0"
                },
                "nodeType": 0
            },
            "3": {
                "invocation": {
                    "address": "0xb8ffc3cd6e7cf5a098a1c92f48009765b24088dc",
                    "callData": "0xf1f3eb40f5bc1ad1344716ced8b8a0431d840b5783aea1fd01786bc26f35ac0f3ca7c3e38968823ccb4c78ea688df41356f182ae1d159e4ee608d30d68cef320",
                    "decodedMethod": {
                        "callParams": [
                            {
                                "name": "_namespace",
                                "type": "bytes32",
                                "value": "0xf1f3eb40f5bc1ad1344716ced8b8a0431d840b5783aea1fd01786bc26f35ac0f"
                            },
                            {
                                "name": "_appId",
                                "type": "bytes32",
                                "value": "0x3ca7c3e38968823ccb4c78ea688df41356f182ae1d159e4ee608d30d68cef320"
                            }
                        ],
                        "constructorArguments": "",
                        "name": "getApp",
                        "returnParams": [
                            {
                                "name": "",
                                "type": "address",
                                "value": "0xc7b5af82b05eb3b64f12241b04b2cf14469e39f7"
                            }
                        ],
                        "signature": "getApp(bytes32,bytes32)"
                    },
                    "errorInfo": "",
                    "fromAddress": "0xae7ab96520de3a18e5e111b5eaab095312d7fe84",
                    "gasUsed": 8263,
                    "id": 3,
                    "methodDecoded": true,
                    "operation": "CALL",
                    "output": "0x000000000000000000000000c7b5af82b05eb3b64f12241b04b2cf14469e39f7",
                    "revert": false,
                    "revertMessage": "",
                    "selector": "0xbe00bbd8",
                    "status": true,
                    "value": "0"
                },
                "nodeType": 0
            },
            "30": {
                "invocation": {
                    "address": "0x2618e94a7f6118aced2e51e0a05da43d2e2ed40c",
                    "callData": "0x0000000000000000000000004dad0bda4836e762cc04200bff429cb76c3fe0260000000000000000000000000000000000000000000000000de0b6b153581c000000000000000000000000000000000000000000000000000000000000000060000000000000000000000000000000000000000000000000000000000000000000000000000000000000000000000000000000000000000000000000000000010000000000000000000000000000000000000000000000000000000000000000000000000000000000000000000000000000000000000000000000000000000000000000000000000000000000000000000000000000000000000000000000000000000000000000000000000000000000000000000000000000000000000000000000000000000000000000000000000000000000000000000000000000000000000000000000000000000000000000000000000000000000000000000000000000000000000000000000000000000000000000000000000000000000000000000000000000000000000000000000000000000000000000000000000000000000000000000000000000000000000000000000000000000000000000000000000000000000000000000000000000000000000000000000000000000000000000000000000000000000000000000000000000000000000000000000000000000000000000000000000000000000000000000000000000000000000000000000000000000000000000000000000000000000000000000000000000000000000000000000000000000000000000000000000000000000000000000000000000000000000000000000000000000000000000000000000000000000000000000000000000000000000000000000000000000000000000000000000000000000000000000000000000000000000000000000000000000000000000000000000000000000000000000000000000000000000000000000000000000000000000000000000000000000000000000000000000000000000000000000000000000000000000000000000000000000000000000000000000000000000000000000000000000000000000000000000000000000000000000000000000000000000000000000000000000000000000000000000000000000000000000000000000000000000000000000000000000000000000000000000000000000000000000000000000000000000000000000000000000000000000000000000000000000000000000000000000000000000000000000000000000000000000000000000000000000000000000000000000000000000000000000000000000000000000000000000000000000000000000000000000000000000000000000000000000000000000000000000000000000000000000000000000000000000000000000000000000000000000000000000000000000000000000000000000000000000000000000000000000000000000000000000000000000000000000000000000000000000000000000000000000000000000000000000000000000000000000000000000000000000000",
                    "decodedMethod": {
                        "callParams": [
                            {
                                "name": "terra_address",
                                "type": "bytes32",
                                "value": "0x0000000000000000000000004dad0bda4836e762cc04200bff429cb76c3fe026"
                            },
                            {
                                "name": "amount",
                                "type": "uint256",
                                "value": "999,999,990,000,000,000"
                            },
                            {
                                "name": "extra_data",
                                "type": "bytes",
                                "value": "0x"
                            }
                        ],
                        "constructorArguments": "",
                        "name": "forward_beth",
                        "returnParams": [],
                        "signature": "forward_beth(bytes32,uint256,bytes)"
                    },
                    "errorInfo": "",
                    "fromAddress": "0xa2f987a546d4cd1c607ee8141276876c26b72bdf",
                    "gasUsed": 96884,
                    "id": 30,
                    "methodDecoded": true,
                    "operation": "CALL",
                    "output": "",
                    "revert": false,
                    "revertMessage": "",
                    "selector": "0xf217dfa7",
                    "status": true,
                    "value": "0"
                },
                "nodeType": 0
            },
            "31": {
                "invocation": {
                    "address": "0x0000000000000000000000000000000000000004",
                    "callData": "0x00000000000000000000000000000000000000000000000000000000",
                    "decodedMethod": {
                        "callParams": [
                            {
                                "name": "data",
                                "type": "bytes",
                                "value": "0x0000000000000000000000000000000000000000000000000000000000000000"
                            }
                        ],
                        "constructorArguments": "",
                        "name": "dataCopy()",
                        "returnParams": [
                            {
                                "name": "data",
                                "type": "bytes",
                                "value": "0x0000000000000000000000000000000000000000000000000000000000000000"
                            }
                        ],
                        "signature": "dataCopy(bytes)"
                    },
                    "errorInfo": "",
                    "fromAddress": "0x2618e94a7f6118aced2e51e0a05da43d2e2ed40c",
                    "gasUsed": 18,
                    "id": 31,
                    "methodDecoded": true,
                    "operation": "STATICCALL",
                    "output": "0x0000000000000000000000000000000000000000000000000000000000000000",
                    "revert": false,
                    "revertMessage": "",
                    "selector": "0x00000000",
                    "status": true,
                    "value": "0"
                },
                "nodeType": 0
            },
            "32": {
                "invocation": {
                    "address": "0x707f9118e33a9b8998bea41dd0d46f38bb963fc8",
                    "callData": "0x0000000000000000000000003ee18b2214aff97000d974cf647e7c347e8fa5850000000000000000000000000000000000000000000000000de0b6b153581c00",
                    "decodedMethod": {
                        "callParams": [
                            {
                                "name": "spender",
                                "type": "address",
                                "value": "0x3ee18b2214aff97000d974cf647e7c347e8fa585"
                            },
                            {
                                "decimalAvailable": true,
                                "name": "amount",
                                "type": "uint256",
                                "value": "999,999,990,000,000,000"
                            }
                        ],
                        "constructorArguments": "",
                        "name": "approve",
                        "returnParams": [
                            {
                                "name": "",
                                "type": "bool",
                                "value": true
                            }
                        ],
                        "signature": "approve(address,uint256)"
                    },
                    "errorInfo": "",
                    "fromAddress": "0x2618e94a7f6118aced2e51e0a05da43d2e2ed40c",
                    "gasUsed": 24342,
                    "id": 32,
                    "methodDecoded": true,
                    "operation": "CALL",
                    "output": "0x0000000000000000000000000000000000000000000000000000000000000001",
                    "revert": false,
                    "revertMessage": "",
                    "selector": "0x095ea7b3",
                    "status": true,
                    "value": "0"
                },
                "nodeType": 0
            },
            "33": {
                "event": {
                    "contract": "0x707f9118e33a9b8998bea41dd0d46f38bb963fc8",
                    "decodedLog": {
                        "name": "Approval",
                        "params": [
                            {
                                "name": "owner",
                                "type": "address",
                                "value": "0x2618e94a7f6118aced2e51e0a05da43d2e2ed40c"
                            },
                            {
                                "name": "spender",
                                "type": "address",
                                "value": "0x3ee18b2214aff97000d974cf647e7c347e8fa585"
                            },
                            {
                                "decimalAvailable": true,
                                "name": "value",
                                "type": "uint256",
                                "value": "999,999,990,000,000,000"
                            }
                        ],
                        "signature": "Approval(address,address,uint256)"
                    },
                    "id": 33,
                    "logData": "0x0000000000000000000000000000000000000000000000000de0b6b153581c00",
                    "logDecoded": true,
                    "operation": "EVENT",
                    "revert": false,
                    "status": true,
                    "topics": [
                        "0x8c5be1e5ebec7d5bd14f71427d1e84f3dd0314c0f7b2291e5b200ac8c7c3b925",
                        "0x0000000000000000000000002618e94a7f6118aced2e51e0a05da43d2e2ed40c",
                        "0x0000000000000000000000003ee18b2214aff97000d974cf647e7c347e8fa585"
                    ]
                },
                "nodeType": 1
            },
            "34": {
                "invocation": {
                    "address": "0x0000000000000000000000000000000000000004",
                    "callData": "0x",
                    "decodedMethod": {
                        "callParams": [
                            {
                                "name": "data",
                                "type": "bytes",
                                "value": "0x0f5287b0"
                            }
                        ],
                        "constructorArguments": "",
                        "name": "dataCopy()",
                        "returnParams": [
                            {
                                "name": "data",
                                "type": "bytes",
                                "value": "0x0f5287b0"
                            }
                        ],
                        "signature": "dataCopy(bytes)"
                    },
                    "errorInfo": "",
                    "fromAddress": "0x2618e94a7f6118aced2e51e0a05da43d2e2ed40c",
                    "gasUsed": 18,
                    "id": 34,
                    "methodDecoded": true,
                    "operation": "STATICCALL",
                    "output": "0x0f5287b0",
                    "revert": false,
                    "revertMessage": "",
                    "selector": "0x0f5287b0",
                    "status": true,
                    "value": "0"
                },
                "nodeType": 0
            },
            "35": {
                "invocation": {
                    "address": "0x3ee18b2214aff97000d974cf647e7c347e8fa585",
                    "callData": "0x000000000000000000000000707f9118e33a9b8998bea41dd0d46f38bb963fc80000000000000000000000000000000000000000000000000de0b6b153581c0000000000000000000000000000000000000000000000000000000000000000030000000000000000000000004dad0bda4836e762cc04200bff429cb76c3fe02600000000000000000000000000000000000000000000000000000000000000000000000000000000000000000000000000000000000000000000000000000000",
                    "decodedMethod": {
                        "callParams": [
                            {
                                "name": "token",
                                "type": "address",
                                "value": "0x707f9118e33a9b8998bea41dd0d46f38bb963fc8"
                            },
                            {
                                "name": "amount",
                                "type": "uint256",
                                "value": "999,999,990,000,000,000"
                            },
                            {
                                "name": "recipientChain",
                                "type": "uint16",
                                "value": "3"
                            },
                            {
                                "name": "recipient",
                                "type": "bytes32",
                                "value": "0x0000000000000000000000004dad0bda4836e762cc04200bff429cb76c3fe026"
                            },
                            {
                                "name": "arbiterFee",
                                "type": "uint256",
                                "value": "0"
                            },
                            {
                                "name": "nonce",
                                "type": "uint32",
                                "value": "0"
                            }
                        ],
                        "constructorArguments": "",
                        "name": "transferTokens",
                        "returnParams": [
                            {
                                "name": "sequence",
                                "type": "uint64",
                                "value": "25,661"
                            }
                        ],
                        "signature": "transferTokens(address,uint256,uint16,bytes32,uint256,uint32)"
                    },
                    "errorInfo": "",
                    "fromAddress": "0x2618e94a7f6118aced2e51e0a05da43d2e2ed40c",
                    "gasUsed": 66528,
                    "id": 35,
                    "methodDecoded": true,
                    "operation": "CALL",
                    "output": "0x000000000000000000000000000000000000000000000000000000000000643d",
                    "revert": false,
                    "revertMessage": "",
                    "selector": "0x0f5287b0",
                    "status": true,
                    "value": "0"
                },
                "nodeType": 0
            },
            "36": {
                "invocation": {
                    "address": "0x91175aee6dac41b9c1f749ded077568ad93b84ca",
                    "callData": "0x000000000000000000000000707f9118e33a9b8998bea41dd0d46f38bb963fc80000000000000000000000000000000000000000000000000de0b6b153581c0000000000000000000000000000000000000000000000000000000000000000030000000000000000000000004dad0bda4836e762cc04200bff429cb76c3fe02600000000000000000000000000000000000000000000000000000000000000000000000000000000000000000000000000000000000000000000000000000000",
                    "decodedMethod": {
                        "callParams": [
                            {
                                "name": "token",
                                "type": "address",
                                "value": "0x707f9118e33a9b8998bea41dd0d46f38bb963fc8"
                            },
                            {
                                "name": "amount",
                                "type": "uint256",
                                "value": "999,999,990,000,000,000"
                            },
                            {
                                "name": "recipientChain",
                                "type": "uint16",
                                "value": "3"
                            },
                            {
                                "name": "recipient",
                                "type": "bytes32",
                                "value": "0x0000000000000000000000004dad0bda4836e762cc04200bff429cb76c3fe026"
                            },
                            {
                                "name": "arbiterFee",
                                "type": "uint256",
                                "value": "0"
                            },
                            {
                                "name": "nonce",
                                "type": "uint32",
                                "value": "0"
                            }
                        ],
                        "constructorArguments": "",
                        "name": "transferTokens",
                        "returnParams": [
                            {
                                "name": "sequence",
                                "type": "uint64",
                                "value": "25,661"
                            }
                        ],
                        "signature": "transferTokens(address,uint256,uint16,bytes32,uint256,uint32)"
                    },
                    "errorInfo": "",
                    "fromAddress": "0x3ee18b2214aff97000d974cf647e7c347e8fa585",
                    "gasUsed": 61603,
                    "id": 36,
                    "methodDecoded": true,
                    "operation": "DELEGATECALL",
                    "output": "0x000000000000000000000000000000000000000000000000000000000000643d",
                    "revert": false,
                    "revertMessage": "",
                    "selector": "0x0f5287b0",
                    "status": true,
                    "value": "0"
                },
                "nodeType": 0
            },
            "37": {
                "invocation": {
                    "address": "0x707f9118e33a9b8998bea41dd0d46f38bb963fc8",
                    "callData": "0x",
                    "decodedMethod": {
                        "callParams": [],
                        "constructorArguments": "",
                        "name": "decimals",
                        "returnParams": [
                            {
                                "name": "",
                                "type": "uint8",
                                "value": "18"
                            }
                        ],
                        "signature": "decimals()"
                    },
                    "errorInfo": "",
                    "fromAddress": "0x3ee18b2214aff97000d974cf647e7c347e8fa585",
                    "gasUsed": 2468,
                    "id": 37,
                    "methodDecoded": true,
                    "operation": "STATICCALL",
                    "output": "0x0000000000000000000000000000000000000000000000000000000000000012",
                    "revert": false,
                    "revertMessage": "",
                    "selector": "0x313ce567",
                    "status": true,
                    "value": "0"
                },
                "nodeType": 0
            },
            "38": {
                "invocation": {
                    "address": "0x707f9118e33a9b8998bea41dd0d46f38bb963fc8",
                    "callData": "0x0000000000000000000000003ee18b2214aff97000d974cf647e7c347e8fa585",
                    "decodedMethod": {
                        "callParams": [
                            {
                                "name": "account",
                                "type": "address",
                                "value": "0x3ee18b2214aff97000d974cf647e7c347e8fa585"
                            }
                        ],
                        "constructorArguments": "",
                        "name": "balanceOf",
                        "returnParams": [
                            {
                                "decimalAvailable": true,
                                "name": "",
                                "type": "uint256",
                                "value": "269,105,776,478,430,000,000,000"
                            }
                        ],
                        "signature": "balanceOf(address)"
                    },
                    "errorInfo": "",
                    "fromAddress": "0x3ee18b2214aff97000d974cf647e7c347e8fa585",
                    "gasUsed": 2633,
                    "id": 38,
                    "methodDecoded": true,
                    "operation": "STATICCALL",
                    "output": "0x0000000000000000000000000000000000000000000038fc40dd239f3a0b2c00",
                    "revert": false,
                    "revertMessage": "",
                    "selector": "0x70a08231",
                    "status": true,
                    "value": "0"
                },
                "nodeType": 0
            },
            "39": {
                "invocation": {
                    "address": "0x707f9118e33a9b8998bea41dd0d46f38bb963fc8",
                    "callData": "0x0000000000000000000000002618e94a7f6118aced2e51e0a05da43d2e2ed40c0000000000000000000000003ee18b2214aff97000d974cf647e7c347e8fa5850000000000000000000000000000000000000000000000000de0b6b153581c00",
                    "decodedMethod": {
                        "callParams": [
                            {
                                "name": "sender",
                                "type": "address",
                                "value": "0x2618e94a7f6118aced2e51e0a05da43d2e2ed40c"
                            },
                            {
                                "name": "recipient",
                                "type": "address",
                                "value": "0x3ee18b2214aff97000d974cf647e7c347e8fa585"
                            },
                            {
                                "decimalAvailable": true,
                                "name": "amount",
                                "type": "uint256",
                                "value": "999,999,990,000,000,000"
                            }
                        ],
                        "constructorArguments": "",
                        "name": "transferFrom",
                        "returnParams": [
                            {
                                "name": "",
                                "type": "bool",
                                "value": true
                            }
                        ],
                        "signature": "transferFrom(address,address,uint256)"
                    },
                    "errorInfo": "",
                    "fromAddress": "0x3ee18b2214aff97000d974cf647e7c347e8fa585",
                    "gasUsed": 8672,
                    "id": 39,
                    "methodDecoded": true,
                    "operation": "CALL",
                    "output": "0x0000000000000000000000000000000000000000000000000000000000000001",
                    "revert": false,
                    "revertMessage": "",
                    "selector": "0x23b872dd",
                    "status": true,
                    "value": "0"
                },
                "nodeType": 0
            },
            "4": {
                "invocation": {
                    "address": "0x2b33cf282f867a7ff693a66e11b0fcc5552e4425",
                    "callData": "0xf1f3eb40f5bc1ad1344716ced8b8a0431d840b5783aea1fd01786bc26f35ac0f3ca7c3e38968823ccb4c78ea688df41356f182ae1d159e4ee608d30d68cef320",
                    "decodedMethod": {
                        "callParams": [
                            {
                                "name": "_namespace",
                                "type": "bytes32",
                                "value": "0xf1f3eb40f5bc1ad1344716ced8b8a0431d840b5783aea1fd01786bc26f35ac0f"
                            },
                            {
                                "name": "_appId",
                                "type": "bytes32",
                                "value": "0x3ca7c3e38968823ccb4c78ea688df41356f182ae1d159e4ee608d30d68cef320"
                            }
                        ],
                        "constructorArguments": "",
                        "name": "getApp",
                        "returnParams": [
                            {
                                "name": "",
                                "type": "address",
                                "value": "0xc7b5af82b05eb3b64f12241b04b2cf14469e39f7"
                            }
                        ],
                        "signature": "getApp(bytes32,bytes32)"
                    },
                    "errorInfo": "",
                    "fromAddress": "0xb8ffc3cd6e7cf5a098a1c92f48009765b24088dc",
                    "gasUsed": 2820,
                    "id": 4,
                    "methodDecoded": true,
                    "operation": "DELEGATECALL",
                    "output": "0x000000000000000000000000c7b5af82b05eb3b64f12241b04b2cf14469e39f7",
                    "revert": false,
                    "revertMessage": "",
                    "selector": "0xbe00bbd8",
                    "status": true,
                    "value": "0"
                },
                "nodeType": 0
            },
            "40": {
                "event": {
                    "contract": "0x707f9118e33a9b8998bea41dd0d46f38bb963fc8",
                    "decodedLog": {
                        "name": "Approval",
                        "params": [
                            {
                                "name": "owner",
                                "type": "address",
                                "value": "0x2618e94a7f6118aced2e51e0a05da43d2e2ed40c"
                            },
                            {
                                "name": "spender",
                                "type": "address",
                                "value": "0x3ee18b2214aff97000d974cf647e7c347e8fa585"
                            },
                            {
                                "decimalAvailable": true,
                                "name": "value",
                                "type": "uint256",
                                "value": "0"
                            }
                        ],
                        "signature": "Approval(address,address,uint256)"
                    },
                    "id": 40,
                    "logData": "0x0000000000000000000000000000000000000000000000000000000000000000",
                    "logDecoded": true,
                    "operation": "EVENT",
                    "revert": false,
                    "status": true,
                    "topics": [
                        "0x8c5be1e5ebec7d5bd14f71427d1e84f3dd0314c0f7b2291e5b200ac8c7c3b925",
                        "0x0000000000000000000000002618e94a7f6118aced2e51e0a05da43d2e2ed40c",
                        "0x0000000000000000000000003ee18b2214aff97000d974cf647e7c347e8fa585"
                    ]
                },
                "nodeType": 1
            },
            "41": {
                "event": {
                    "contract": "0x707f9118e33a9b8998bea41dd0d46f38bb963fc8",
                    "decodedLog": {
                        "name": "Transfer",
                        "params": [
                            {
                                "name": "from",
                                "type": "address",
                                "value": "0x2618e94a7f6118aced2e51e0a05da43d2e2ed40c"
                            },
                            {
                                "name": "to",
                                "type": "address",
                                "value": "0x3ee18b2214aff97000d974cf647e7c347e8fa585"
                            },
                            {
                                "decimalAvailable": true,
                                "name": "value",
                                "type": "uint256",
                                "value": "999,999,990,000,000,000"
                            }
                        ],
                        "signature": "Transfer(address,address,uint256)"
                    },
                    "id": 41,
                    "logData": "0x0000000000000000000000000000000000000000000000000de0b6b153581c00",
                    "logDecoded": true,
                    "operation": "EVENT",
                    "revert": false,
                    "status": true,
                    "topics": [
                        "0xddf252ad1be2c89b69c2b068fc378daa952ba7f163c4a11628f55a4df523b3ef",
                        "0x0000000000000000000000002618e94a7f6118aced2e51e0a05da43d2e2ed40c",
                        "0x0000000000000000000000003ee18b2214aff97000d974cf647e7c347e8fa585"
                    ]
                },
                "nodeType": 1
            },
            "42": {
                "invocation": {
                    "address": "0x707f9118e33a9b8998bea41dd0d46f38bb963fc8",
                    "callData": "0x0000000000000000000000003ee18b2214aff97000d974cf647e7c347e8fa585",
                    "decodedMethod": {
                        "callParams": [
                            {
                                "name": "account",
                                "type": "address",
                                "value": "0x3ee18b2214aff97000d974cf647e7c347e8fa585"
                            }
                        ],
                        "constructorArguments": "",
                        "name": "balanceOf",
                        "returnParams": [
                            {
                                "decimalAvailable": true,
                                "name": "",
                                "type": "uint256",
                                "value": "269,106,776,478,420,000,000,000"
                            }
                        ],
                        "signature": "balanceOf(address)"
                    },
                    "errorInfo": "",
                    "fromAddress": "0x3ee18b2214aff97000d974cf647e7c347e8fa585",
                    "gasUsed": 633,
                    "id": 42,
                    "methodDecoded": true,
                    "operation": "STATICCALL",
                    "output": "0x0000000000000000000000000000000000000000000038fc4ebdda508d634800",
                    "revert": false,
                    "revertMessage": "",
                    "selector": "0x70a08231",
                    "status": true,
                    "value": "0"
                },
                "nodeType": 0
            },
            "43": {
                "invocation": {
                    "address": "0x98f3c9e6e3face36baad05fe09d375ef1464288b",
                    "callData": "0x00000000000000000000000000000000000000000000000000000000000000000000000000000000000000000000000000000000000000000000000000000060000000000000000000000000000000000000000000000000000000000000000f0000000000000000000000000000000000000000000000000000000000000085010000000000000000000000000000000000000000000000000000000005f5e0ff000000000000000000000000707f9118e33a9b8998bea41dd0d46f38bb963fc800020000000000000000000000004dad0bda4836e762cc04200bff429cb76c3fe02600030000000000000000000000000000000000000000000000000000000000000000000000000000000000000000000000000000000000000000000000",
                    "decodedMethod": {
                        "callParams": [
                            {
                                "name": "nonce",
                                "type": "uint32",
                                "value": "0"
                            },
                            {
                                "name": "payload",
                                "type": "bytes",
                                "value": "0x010000000000000000000000000000000000000000000000000000000005f5e0ff000000000000000000000000707f9118e33a9b8998bea41dd0d46f38bb963fc800020000000000000000000000004dad0bda4836e762cc04200bff429cb76c3fe02600030000000000000000000000000000000000000000000000000000000000000000"
                            },
                            {
                                "name": "consistencyLevel",
                                "type": "uint8",
                                "value": "15"
                            }
                        ],
                        "constructorArguments": "",
                        "name": "publishMessage",
                        "returnParams": [
                            {
                                "name": "sequence",
                                "type": "uint64",
                                "value": "25,661"
                            }
                        ],
                        "signature": "publishMessage(uint32,bytes,uint8)"
                    },
                    "errorInfo": "",
                    "fromAddress": "0x3ee18b2214aff97000d974cf647e7c347e8fa585",
                    "gasUsed": 18096,
                    "id": 43,
                    "methodDecoded": true,
                    "operation": "CALL",
                    "output": "0x000000000000000000000000000000000000000000000000000000000000643d",
                    "revert": false,
                    "revertMessage": "",
                    "selector": "0xb19a437e",
                    "status": true,
                    "value": "0"
                },
                "nodeType": 0
            },
            "44": {
                "invocation": {
                    "address": "0x736d2a394f7810c17b3c6fed017d5bc7d60c077d",
                    "callData": "0x00000000000000000000000000000000000000000000000000000000000000000000000000000000000000000000000000000000000000000000000000000060000000000000000000000000000000000000000000000000000000000000000f0000000000000000000000000000000000000000000000000000000000000085010000000000000000000000000000000000000000000000000000000005f5e0ff000000000000000000000000707f9118e33a9b8998bea41dd0d46f38bb963fc800020000000000000000000000004dad0bda4836e762cc04200bff429cb76c3fe02600030000000000000000000000000000000000000000000000000000000000000000000000000000000000000000000000000000000000000000000000",
                    "decodedMethod": {
                        "callParams": [
                            {
                                "name": "nonce",
                                "type": "uint32",
                                "value": "0"
                            },
                            {
                                "name": "payload",
                                "type": "bytes",
                                "value": "0x010000000000000000000000000000000000000000000000000000000005f5e0ff000000000000000000000000707f9118e33a9b8998bea41dd0d46f38bb963fc800020000000000000000000000004dad0bda4836e762cc04200bff429cb76c3fe02600030000000000000000000000000000000000000000000000000000000000000000"
                            },
                            {
                                "name": "consistencyLevel",
                                "type": "uint8",
                                "value": "15"
                            }
                        ],
                        "constructorArguments": "",
                        "name": "publishMessage",
                        "returnParams": [
                            {
                                "name": "sequence",
                                "type": "uint64",
                                "value": "25,661"
                            }
                        ],
                        "signature": "publishMessage(uint32,bytes,uint8)"
                    },
                    "errorInfo": "",
                    "fromAddress": "0x98f3c9e6e3face36baad05fe09d375ef1464288b",
                    "gasUsed": 13153,
                    "id": 44,
                    "methodDecoded": true,
                    "operation": "DELEGATECALL",
                    "output": "0x000000000000000000000000000000000000000000000000000000000000643d",
                    "revert": false,
                    "revertMessage": "",
                    "selector": "0xb19a437e",
                    "status": true,
                    "value": "0"
                },
                "nodeType": 0
            },
            "45": {
                "event": {
                    "contract": "0x98f3c9e6e3face36baad05fe09d375ef1464288b",
                    "decodedLog": {
                        "name": "LogMessagePublished",
                        "params": [
                            {
                                "name": "sender",
                                "type": "address",
                                "value": "0x3ee18b2214aff97000d974cf647e7c347e8fa585"
                            },
                            {
                                "name": "sequence",
                                "type": "uint64",
                                "value": "25,661"
                            },
                            {
                                "name": "nonce",
                                "type": "uint32",
                                "value": "0"
                            },
                            {
                                "name": "payload",
                                "type": "bytes",
                                "value": "0x010000000000000000000000000000000000000000000000000000000005f5e0ff000000000000000000000000707f9118e33a9b8998bea41dd0d46f38bb963fc800020000000000000000000000004dad0bda4836e762cc04200bff429cb76c3fe02600030000000000000000000000000000000000000000000000000000000000000000"
                            },
                            {
                                "name": "consistencyLevel",
                                "type": "uint8",
                                "value": "15"
                            }
                        ],
                        "signature": "LogMessagePublished(address,uint64,uint32,bytes,uint8)"
                    },
                    "id": 45,
                    "logData": "0x000000000000000000000000000000000000000000000000000000000000643d00000000000000000000000000000000000000000000000000000000000000000000000000000000000000000000000000000000000000000000000000000080000000000000000000000000000000000000000000000000000000000000000f0000000000000000000000000000000000000000000000000000000000000085010000000000000000000000000000000000000000000000000000000005f5e0ff000000000000000000000000707f9118e33a9b8998bea41dd0d46f38bb963fc800020000000000000000000000004dad0bda4836e762cc04200bff429cb76c3fe02600030000000000000000000000000000000000000000000000000000000000000000000000000000000000000000000000000000000000000000000000",
                    "logDecoded": true,
                    "operation": "EVENT",
                    "revert": false,
                    "status": true,
                    "topics": [
                        "0x6eb224fb001ed210e379b335e35efe88672a8ce935d981a6896b27ffdf52a3b2",
                        "0x0000000000000000000000003ee18b2214aff97000d974cf647e7c347e8fa585"
                    ]
                },
                "nodeType": 1
            },
            "46": {
                "event": {
                    "contract": "0xa2f987a546d4cd1c607ee8141276876c26b72bdf",
                    "decodedLog": {
                        "name": "Deposited",
                        "params": [
                            {
                                "name": "sender",
                                "type": "address",
                                "value": "0x3991adbdf461d6817734555efdc8ef056fefbf21"
                            },
                            {
                                "name": "amount",
                                "type": "uint256",
                                "value": "999,999,990,000,000,000"
                            },
                            {
                                "name": "terra_address",
                                "type": "bytes32",
                                "value": "0x0000000000000000000000004dad0bda4836e762cc04200bff429cb76c3fe026"
                            },
                            {
                                "name": "beth_amount_received",
                                "type": "uint256",
                                "value": "999,999,990,000,000,000"
                            }
                        ],
                        "signature": "Deposited(address,uint256,bytes32,uint256)"
                    },
                    "id": 46,
                    "logData": "0x0000000000000000000000000000000000000000000000000de0b6b153581c000000000000000000000000004dad0bda4836e762cc04200bff429cb76c3fe0260000000000000000000000000000000000000000000000000de0b6b153581c00",
                    "logDecoded": true,
                    "operation": "EVENT",
                    "revert": false,
                    "status": true,
                    "topics": [
                        "0x4eef3d1efb11f00508d9b7bb632ddcfa6da9d7105bd39f404bdd7362e6c59dbc",
                        "0x0000000000000000000000003991adbdf461d6817734555efdc8ef056fefbf21"
                    ]
                },
                "nodeType": 1
            },
            "5": {
                "invocation": {
                    "address": "0xc7b5af82b05eb3b64f12241b04b2cf14469e39f7",
                    "callData": "0x0000000000000000000000000000000000000000000000000de0b6b3a7640000",
                    "decodedMethod": {
                        "callParams": [
                            {
                                "name": "_sharesAmount",
                                "type": "uint256",
                                "value": "1,000,000,000,000,000,000"
                            }
                        ],
                        "constructorArguments": "",
                        "name": "getPooledEthByShares",
                        "returnParams": [
                            {
                                "name": "",
                                "type": "uint256",
                                "value": "1,062,150,313,545,730,891"
                            }
                        ],
                        "signature": "getPooledEthByShares(uint256)"
                    },
                    "errorInfo": "",
                    "fromAddress": "0xae7ab96520de3a18e5e111b5eaab095312d7fe84",
                    "gasUsed": 13438,
                    "id": 5,
                    "methodDecoded": true,
                    "operation": "DELEGATECALL",
                    "output": "0x0000000000000000000000000000000000000000000000000ebd841528f68b4b",
                    "revert": false,
                    "revertMessage": "",
                    "selector": "0x7a28fb88",
                    "status": true,
                    "value": "0"
                },
                "nodeType": 0
            },
            "6": {
                "invocation": {
                    "address": "0xae7ab96520de3a18e5e111b5eaab095312d7fe84",
                    "callData": "0x000000000000000000000000a2f987a546d4cd1c607ee8141276876c26b72bdf",
                    "decodedMethod": {
                        "callParams": [
                            {
                                "name": "",
                                "type": "address",
                                "value": "0xa2f987a546d4cd1c607ee8141276876c26b72bdf"
                            }
                        ],
                        "constructorArguments": "",
                        "name": "submit",
                        "returnParams": [
                            {
                                "name": "",
                                "type": "uint256",
                                "value": "941,486,329,427,087,243"
                            }
                        ],
                        "signature": "submit(address)"
                    },
                    "errorInfo": "",
                    "fromAddress": "0xa2f987a546d4cd1c607ee8141276876c26b72bdf",
                    "gasUsed": 28880,
                    "id": 6,
                    "methodDecoded": true,
                    "operation": "CALL",
                    "output": "0x0000000000000000000000000000000000000000000000000d10d4d412634f8b",
                    "revert": false,
                    "revertMessage": "",
                    "selector": "0xa1903eab",
                    "status": true,
                    "value": "1"
                },
                "nodeType": 0
            },
            "7": {
                "invocation": {
                    "address": "0xb8ffc3cd6e7cf5a098a1c92f48009765b24088dc",
                    "callData": "0xf1f3eb40f5bc1ad1344716ced8b8a0431d840b5783aea1fd01786bc26f35ac0f3ca7c3e38968823ccb4c78ea688df41356f182ae1d159e4ee608d30d68cef320",
                    "decodedMethod": {
                        "callParams": [
                            {
                                "name": "_namespace",
                                "type": "bytes32",
                                "value": "0xf1f3eb40f5bc1ad1344716ced8b8a0431d840b5783aea1fd01786bc26f35ac0f"
                            },
                            {
                                "name": "_appId",
                                "type": "bytes32",
                                "value": "0x3ca7c3e38968823ccb4c78ea688df41356f182ae1d159e4ee608d30d68cef320"
                            }
                        ],
                        "constructorArguments": "",
                        "name": "getApp",
                        "returnParams": [
                            {
                                "name": "",
                                "type": "address",
                                "value": "0xc7b5af82b05eb3b64f12241b04b2cf14469e39f7"
                            }
                        ],
                        "signature": "getApp(bytes32,bytes32)"
                    },
                    "errorInfo": "",
                    "fromAddress": "0xae7ab96520de3a18e5e111b5eaab095312d7fe84",
                    "gasUsed": 1763,
                    "id": 7,
                    "methodDecoded": true,
                    "operation": "CALL",
                    "output": "0x000000000000000000000000c7b5af82b05eb3b64f12241b04b2cf14469e39f7",
                    "revert": false,
                    "revertMessage": "",
                    "selector": "0xbe00bbd8",
                    "status": true,
                    "value": "0"
                },
                "nodeType": 0
            },
            "8": {
                "invocation": {
                    "address": "0x2b33cf282f867a7ff693a66e11b0fcc5552e4425",
                    "callData": "0xf1f3eb40f5bc1ad1344716ced8b8a0431d840b5783aea1fd01786bc26f35ac0f3ca7c3e38968823ccb4c78ea688df41356f182ae1d159e4ee608d30d68cef320",
                    "decodedMethod": {
                        "callParams": [
                            {
                                "name": "_namespace",
                                "type": "bytes32",
                                "value": "0xf1f3eb40f5bc1ad1344716ced8b8a0431d840b5783aea1fd01786bc26f35ac0f"
                            },
                            {
                                "name": "_appId",
                                "type": "bytes32",
                                "value": "0x3ca7c3e38968823ccb4c78ea688df41356f182ae1d159e4ee608d30d68cef320"
                            }
                        ],
                        "constructorArguments": "",
                        "name": "getApp",
                        "returnParams": [
                            {
                                "name": "",
                                "type": "address",
                                "value": "0xc7b5af82b05eb3b64f12241b04b2cf14469e39f7"
                            }
                        ],
                        "signature": "getApp(bytes32,bytes32)"
                    },
                    "errorInfo": "",
                    "fromAddress": "0xb8ffc3cd6e7cf5a098a1c92f48009765b24088dc",
                    "gasUsed": 820,
                    "id": 8,
                    "methodDecoded": true,
                    "operation": "DELEGATECALL",
                    "output": "0x000000000000000000000000c7b5af82b05eb3b64f12241b04b2cf14469e39f7",
                    "revert": false,
                    "revertMessage": "",
                    "selector": "0xbe00bbd8",
                    "status": true,
                    "value": "0"
                },
                "nodeType": 0
            },
            "9": {
                "invocation": {
                    "address": "0xc7b5af82b05eb3b64f12241b04b2cf14469e39f7",
                    "callData": "0x000000000000000000000000a2f987a546d4cd1c607ee8141276876c26b72bdf",
                    "decodedMethod": {
                        "callParams": [
                            {
                                "name": "_referral",
                                "type": "address",
                                "value": "0xa2f987a546d4cd1c607ee8141276876c26b72bdf"
                            }
                        ],
                        "constructorArguments": "",
                        "name": "submit",
                        "returnParams": [
                            {
                                "name": "",
                                "type": "uint256",
                                "value": "941,486,329,427,087,243"
                            }
                        ],
                        "signature": "submit(address)"
                    },
                    "errorInfo": "",
                    "fromAddress": "0xae7ab96520de3a18e5e111b5eaab095312d7fe84",
                    "gasUsed": 25500,
                    "id": 9,
                    "methodDecoded": true,
                    "operation": "DELEGATECALL",
                    "output": "0x0000000000000000000000000000000000000000000000000d10d4d412634f8b",
                    "revert": false,
                    "revertMessage": "",
                    "selector": "0xa1903eab",
                    "status": true,
                    "value": "1"
                },
                "nodeType": 0
            }
        },
        "gasFlame": [
            {
                "children": [
                    {
                        "children": [
                            {
                                "children": [],
                                "depth": 0,
                                "name": "Initial Gas",
                                "value": 22040
                            },
                            {
                                "children": [
                                    {
                                        "children": [
                                            {
                                                "children": [
                                                    {
                                                        "children": [
                                                            {
                                                                "children": [],
                                                                "depth": 4,
                                                                "name": "getApp",
                                                                "value": 2820
                                                            }
                                                        ],
                                                        "depth": 3,
                                                        "name": "getApp",
                                                        "value": 8263
                                                    },
                                                    {
                                                        "children": [],
                                                        "depth": 3,
                                                        "name": "getPooledEthByShares",
                                                        "value": 13438
                                                    }
                                                ],
                                                "depth": 2,
                                                "name": "getPooledEthByShares",
                                                "value": 32318
                                            },
                                            {
                                                "children": [
                                                    {
                                                        "children": [
                                                            {
                                                                "children": [],
                                                                "depth": 4,
                                                                "name": "getApp",
                                                                "value": 820
                                                            }
                                                        ],
                                                        "depth": 3,
                                                        "name": "getApp",
                                                        "value": 1763
                                                    },
                                                    {
                                                        "children": [],
                                                        "depth": 3,
                                                        "name": "submit",
                                                        "value": 25500
                                                    }
                                                ],
                                                "depth": 2,
                                                "name": "submit",
                                                "value": 28880
                                            },
                                            {
                                                "children": [
                                                    {
                                                        "children": [
                                                            {
                                                                "children": [],
                                                                "depth": 4,
                                                                "name": "getApp",
                                                                "value": 820
                                                            }
                                                        ],
                                                        "depth": 3,
                                                        "name": "getApp",
                                                        "value": 1763
                                                    },
                                                    {
                                                        "children": [],
                                                        "depth": 3,
                                                        "name": "getPooledEthByShares",
                                                        "value": 3438
                                                    }
                                                ],
                                                "depth": 2,
                                                "name": "getPooledEthByShares",
                                                "value": 6818
                                            },
                                            {
                                                "children": [
                                                    {
                                                        "children": [
                                                            {
                                                                "children": [],
                                                                "depth": 4,
                                                                "name": "getApp",
                                                                "value": 820
                                                            }
                                                        ],
                                                        "depth": 3,
                                                        "name": "getApp",
                                                        "value": 1763
                                                    },
                                                    {
                                                        "children": [],
                                                        "depth": 3,
                                                        "name": "balanceOf",
                                                        "value": 3783
                                                    }
                                                ],
                                                "depth": 2,
                                                "name": "balanceOf",
                                                "value": 7163
                                            },
                                            {
                                                "children": [],
                                                "depth": 2,
                                                "name": "totalSupply",
                                                "value": 2572
                                            },
                                            {
                                                "children": [],
                                                "depth": 2,
                                                "name": "adjust_amount",
                                                "value": 520
                                            },
                                            {
                                                "children": [
                                                    {
                                                        "children": [
                                                            {
                                                                "children": [],
                                                                "depth": 4,
                                                                "name": "getApp",
                                                                "value": 820
                                                            }
                                                        ],
                                                        "depth": 3,
                                                        "name": "getApp",
                                                        "value": 1763
                                                    },
                                                    {
                                                        "children": [],
                                                        "depth": 3,
                                                        "name": "transfer",
                                                        "value": 12589
                                                    }
                                                ],
                                                "depth": 2,
                                                "name": "transfer",
                                                "value": 15975
                                            },
                                            {
                                                "children": [],
                                                "depth": 2,
                                                "name": "mint",
                                                "value": 29411
                                            },
                                            {
                                                "children": [],
                                                "depth": 2,
                                                "name": "dataCopy()",
                                                "value": 18
                                            },
                                            {
                                                "children": [
                                                    {
                                                        "children": [],
                                                        "depth": 3,
                                                        "name": "dataCopy()",
                                                        "value": 18
                                                    },
                                                    {
                                                        "children": [],
                                                        "depth": 3,
                                                        "name": "approve",
                                                        "value": 24342
                                                    },
                                                    {
                                                        "children": [],
                                                        "depth": 3,
                                                        "name": "dataCopy()",
                                                        "value": 18
                                                    },
                                                    {
                                                        "children": [
                                                            {
                                                                "children": [
                                                                    {
                                                                        "children": [],
                                                                        "depth": 5,
                                                                        "name": "decimals",
                                                                        "value": 2468
                                                                    },
                                                                    {
                                                                        "children": [],
                                                                        "depth": 5,
                                                                        "name": "balanceOf",
                                                                        "value": 2633
                                                                    },
                                                                    {
                                                                        "children": [],
                                                                        "depth": 5,
                                                                        "name": "transferFrom",
                                                                        "value": 8672
                                                                    },
                                                                    {
                                                                        "children": [],
                                                                        "depth": 5,
                                                                        "name": "balanceOf",
                                                                        "value": 633
                                                                    },
                                                                    {
                                                                        "children": [
                                                                            {
                                                                                "children": [],
                                                                                "depth": 6,
                                                                                "name": "publishMessage",
                                                                                "value": 13153
                                                                            }
                                                                        ],
                                                                        "depth": 5,
                                                                        "name": "publishMessage",
                                                                        "value": 18096
                                                                    }
                                                                ],
                                                                "depth": 4,
                                                                "name": "transferTokens",
                                                                "value": 61603
                                                            }
                                                        ],
                                                        "depth": 3,
                                                        "name": "transferTokens",
                                                        "value": 66528
                                                    }
                                                ],
                                                "depth": 2,
                                                "name": "forward_beth",
                                                "value": 96884
                                            }
                                        ],
                                        "depth": 1,
                                        "name": "submit",
                                        "value": 257236
                                    }
                                ],
                                "depth": 0,
                                "name": "Executed Gas",
                                "value": 262255
                            }
                        ],
                        "depth": -1,
                        "name": "Actual Gas Used",
                        "value": 241695
                    },
                    {
                        "children": [],
                        "depth": -1,
                        "name": "Refunded Gas",
                        "value": 42600
                    }
                ],
                "depth": -2,
                "name": "Total Gas",
                "value": 284295
            }
        ],
        "isConfirmed": true,
        "mainTrace": [
            {
                "children": [
                    {
                        "children": [
                            {
                                "children": [
                                    {
                                        "children": [
                                            {
                                                "children": [
                                                    {
                                                        "children": [],
                                                        "depth": 4,
                                                        "id": 4,
                                                        "order": 4
                                                    }
                                                ],
                                                "depth": 3,
                                                "id": 3,
                                                "order": 3
                                            },
                                            {
                                                "children": [],
                                                "depth": 3,
                                                "id": 5,
                                                "order": 5
                                            }
                                        ],
                                        "depth": 2,
                                        "id": 2,
                                        "order": 2
                                    },
                                    {
                                        "children": [
                                            {
                                                "children": [
                                                    {
                                                        "children": [],
                                                        "depth": 4,
                                                        "id": 8,
                                                        "order": 8
                                                    }
                                                ],
                                                "depth": 3,
                                                "id": 7,
                                                "order": 7
                                            },
                                            {
                                                "children": [
                                                    {
                                                        "children": [],
                                                        "depth": 4,
                                                        "id": 10,
                                                        "order": 10
                                                    },
                                                    {
                                                        "children": [],
                                                        "depth": 4,
                                                        "id": 11,
                                                        "order": 11
                                                    }
                                                ],
                                                "depth": 3,
                                                "id": 9,
                                                "order": 9
                                            }
                                        ],
                                        "depth": 2,
                                        "id": 6,
                                        "order": 6
                                    },
                                    {
                                        "children": [
                                            {
                                                "children": [
                                                    {
                                                        "children": [],
                                                        "depth": 4,
                                                        "id": 14,
                                                        "order": 14
                                                    }
                                                ],
                                                "depth": 3,
                                                "id": 13,
                                                "order": 13
                                            },
                                            {
                                                "children": [],
                                                "depth": 3,
                                                "id": 15,
                                                "order": 15
                                            }
                                        ],
                                        "depth": 2,
                                        "id": 12,
                                        "order": 12
                                    },
                                    {
                                        "children": [
                                            {
                                                "children": [
                                                    {
                                                        "children": [],
                                                        "depth": 4,
                                                        "id": 18,
                                                        "order": 18
                                                    }
                                                ],
                                                "depth": 3,
                                                "id": 17,
                                                "order": 17
                                            },
                                            {
                                                "children": [],
                                                "depth": 3,
                                                "id": 19,
                                                "order": 19
                                            }
                                        ],
                                        "depth": 2,
                                        "id": 16,
                                        "order": 16
                                    },
                                    {
                                        "children": [],
                                        "depth": 2,
                                        "id": 20,
                                        "order": 20
                                    },
                                    {
                                        "children": [],
                                        "depth": 2,
                                        "id": 21,
                                        "order": 21
                                    },
                                    {
                                        "children": [
                                            {
                                                "children": [
                                                    {
                                                        "children": [],
                                                        "depth": 4,
                                                        "id": 24,
                                                        "order": 24
                                                    }
                                                ],
                                                "depth": 3,
                                                "id": 23,
                                                "order": 23
                                            },
                                            {
                                                "children": [
                                                    {
                                                        "children": [],
                                                        "depth": 4,
                                                        "id": 26,
                                                        "order": 26
                                                    }
                                                ],
                                                "depth": 3,
                                                "id": 25,
                                                "order": 25
                                            }
                                        ],
                                        "depth": 2,
                                        "id": 22,
                                        "order": 22
                                    },
                                    {
                                        "children": [
                                            {
                                                "children": [],
                                                "depth": 3,
                                                "id": 28,
                                                "order": 28
                                            }
                                        ],
                                        "depth": 2,
                                        "id": 27,
                                        "order": 27
                                    },
                                    {
                                        "children": [],
                                        "depth": 2,
                                        "id": 29,
                                        "order": 29
                                    },
                                    {
                                        "children": [
                                            {
                                                "children": [],
                                                "depth": 3,
                                                "id": 31,
                                                "order": 31
                                            },
                                            {
                                                "children": [
                                                    {
                                                        "children": [],
                                                        "depth": 4,
                                                        "id": 33,
                                                        "order": 33
                                                    }
                                                ],
                                                "depth": 3,
                                                "id": 32,
                                                "order": 32
                                            },
                                            {
                                                "children": [],
                                                "depth": 3,
                                                "id": 34,
                                                "order": 34
                                            },
                                            {
                                                "children": [
                                                    {
                                                        "children": [
                                                            {
                                                                "children": [],
                                                                "depth": 5,
                                                                "id": 37,
                                                                "order": 37
                                                            },
                                                            {
                                                                "children": [],
                                                                "depth": 5,
                                                                "id": 38,
                                                                "order": 38
                                                            },
                                                            {
                                                                "children": [
                                                                    {
                                                                        "children": [],
                                                                        "depth": 6,
                                                                        "id": 40,
                                                                        "order": 40
                                                                    },
                                                                    {
                                                                        "children": [],
                                                                        "depth": 6,
                                                                        "id": 41,
                                                                        "order": 41
                                                                    }
                                                                ],
                                                                "depth": 5,
                                                                "id": 39,
                                                                "order": 39
                                                            },
                                                            {
                                                                "children": [],
                                                                "depth": 5,
                                                                "id": 42,
                                                                "order": 42
                                                            },
                                                            {
                                                                "children": [
                                                                    {
                                                                        "children": [
                                                                            {
                                                                                "children": [],
                                                                                "depth": 7,
                                                                                "id": 45,
                                                                                "order": 45
                                                                            }
                                                                        ],
                                                                        "depth": 6,
                                                                        "id": 44,
                                                                        "order": 44
                                                                    }
                                                                ],
                                                                "depth": 5,
                                                                "id": 43,
                                                                "order": 43
                                                            }
                                                        ],
                                                        "depth": 4,
                                                        "id": 36,
                                                        "order": 36
                                                    }
                                                ],
                                                "depth": 3,
                                                "id": 35,
                                                "order": 35
                                            }
                                        ],
                                        "depth": 2,
                                        "id": 30,
                                        "order": 30
                                    },
                                    {
                                        "children": [],
                                        "depth": 2,
                                        "id": 46,
                                        "order": 46
                                    }
                                ],
                                "depth": 1,
                                "id": 1,
                                "order": 1
                            }
                        ],
                        "depth": 0,
                        "id": 0,
                        "order": 0
                    }
                ],
                "depth": -1,
                "id": -1,
                "order": -1
            }
        ],
        "mainTraceNodeCount": 47,
        "parentIdMap": {
            "0": -1,
            "1": 0,
            "10": 9,
            "11": 9,
            "12": 1,
            "13": 12,
            "14": 13,
            "15": 12,
            "16": 1,
            "17": 16,
            "18": 17,
            "19": 16,
            "2": 1,
            "20": 1,
            "21": 1,
            "22": 1,
            "23": 22,
            "24": 23,
            "25": 22,
            "26": 25,
            "27": 1,
            "28": 27,
            "29": 1,
            "3": 2,
            "30": 1,
            "31": 30,
            "32": 30,
            "33": 32,
            "34": 30,
            "35": 30,
            "36": 35,
            "37": 36,
            "38": 36,
            "39": 36,
            "4": 3,
            "40": 39,
            "41": 39,
            "42": 36,
            "43": 36,
            "44": 43,
            "45": 44,
            "46": 1,
            "5": 2,
            "6": 1,
            "7": 6,
            "8": 7,
            "9": 6
        },
        "tidyTrace": [
            {
                "children": [
                    {
                        "children": [
                            {
                                "children": [
                                    {
                                        "children": [
                                            {
                                                "children": [
                                                    {
                                                        "children": [],
                                                        "depth": 4,
                                                        "id": 8,
                                                        "order": 8
                                                    }
                                                ],
                                                "depth": 3,
                                                "id": 7,
                                                "order": 7
                                            },
                                            {
                                                "children": [
                                                    {
                                                        "children": [],
                                                        "depth": 4,
                                                        "id": 10,
                                                        "order": 10
                                                    },
                                                    {
                                                        "children": [],
                                                        "depth": 4,
                                                        "id": 11,
                                                        "order": 11
                                                    }
                                                ],
                                                "depth": 3,
                                                "id": 9,
                                                "order": 9
                                            }
                                        ],
                                        "depth": 2,
                                        "id": 6,
                                        "order": 6
                                    },
                                    {
                                        "children": [
                                            {
                                                "children": [
                                                    {
                                                        "children": [],
                                                        "depth": 4,
                                                        "id": 24,
                                                        "order": 24
                                                    }
                                                ],
                                                "depth": 3,
                                                "id": 23,
                                                "order": 23
                                            },
                                            {
                                                "children": [
                                                    {
                                                        "children": [],
                                                        "depth": 4,
                                                        "id": 26,
                                                        "order": 26
                                                    }
                                                ],
                                                "depth": 3,
                                                "id": 25,
                                                "order": 25
                                            }
                                        ],
                                        "depth": 2,
                                        "id": 22,
                                        "order": 22
                                    },
                                    {
                                        "children": [
                                            {
                                                "children": [],
                                                "depth": 3,
                                                "id": 28,
                                                "order": 28
                                            }
                                        ],
                                        "depth": 2,
                                        "id": 27,
                                        "order": 27
                                    },
                                    {
                                        "children": [],
                                        "depth": 2,
                                        "id": 29,
                                        "order": 29
                                    },
                                    {
                                        "children": [
                                            {
                                                "children": [
                                                    {
                                                        "children": [],
                                                        "depth": 4,
                                                        "id": 33,
                                                        "order": 33
                                                    }
                                                ],
                                                "depth": 3,
                                                "id": 32,
                                                "order": 32
                                            },
                                            {
                                                "children": [
                                                    {
                                                        "children": [
                                                            {
                                                                "children": [
                                                                    {
                                                                        "children": [],
                                                                        "depth": 6,
                                                                        "id": 40,
                                                                        "order": 40
                                                                    },
                                                                    {
                                                                        "children": [],
                                                                        "depth": 6,
                                                                        "id": 41,
                                                                        "order": 41
                                                                    }
                                                                ],
                                                                "depth": 5,
                                                                "id": 39,
                                                                "order": 39
                                                            },
                                                            {
                                                                "children": [
                                                                    {
                                                                        "children": [
                                                                            {
                                                                                "children": [],
                                                                                "depth": 7,
                                                                                "id": 45,
                                                                                "order": 45
                                                                            }
                                                                        ],
                                                                        "depth": 6,
                                                                        "id": 44,
                                                                        "order": 44
                                                                    }
                                                                ],
                                                                "depth": 5,
                                                                "id": 43,
                                                                "order": 43
                                                            }
                                                        ],
                                                        "depth": 4,
                                                        "id": 36,
                                                        "order": 36
                                                    }
                                                ],
                                                "depth": 3,
                                                "id": 35,
                                                "order": 35
                                            }
                                        ],
                                        "depth": 2,
                                        "id": 30,
                                        "order": 30
                                    },
                                    {
                                        "children": [],
                                        "depth": 2,
                                        "id": 46,
                                        "order": 46
                                    }
                                ],
                                "depth": 1,
                                "id": 1,
                                "order": 1
                            }
                        ],
                        "depth": 0,
                        "id": 0,
                        "order": 0
                    }
                ],
                "depth": -1,
                "id": -1,
                "order": -1
            }
        ],
        "tidyTraceNodeCount": 28
    },
    "state_change": {
        "stateChanges": [
            {
                "address": "0x3ee18b2214aff97000d974cf647e7c347e8fa585",
                "erc": "",
                "slots": [
                    {
                        "current": "0x00000000000000000000000000000000000000000000000000001879a161c1e2",
                        "key": "0xfbf158b33f457df7a939791ecbd0105f2c8dbb1ca842bd792e6a8c2f5db8a303",
                        "prev": "0x000000000000000000000000000000000000000000000000000018799b6be0e3"
                    }
                ],
                "storageVariables": [
                    {
                        "name": "_state",
                        "type": "struct BridgeStorage.State",
                        "value": {
                            "fields": [
                                {
                                    "name": "outstandingBridged",
                                    "type": "mapping(address => uint256)",
                                    "value": {
                                        "pairs": [
                                            {
                                                "key": "0x707f9118e33a9b8998bea41dd0d46f38bb963fc8",
                                                "value": {
                                                    "current": "26910677647842",
                                                    "prev": "26910577647843",
                                                    "typeTag": 1
                                                }
                                            }
                                        ],
                                        "typeTag": 4
                                    }
                                }
                            ],
                            "typeTag": 3
                        }
                    }
                ]
            },
            {
                "address": "0x707f9118e33a9b8998bea41dd0d46f38bb963fc8",
                "erc": "",
                "slots": [
                    {
                        "current": "0x000000000000000000000000000000000000000000003908b02a6a15b0b0e1f4",
                        "key": "0x0000000000000000000000000000000000000000000000000000000000000006",
                        "prev": "0x000000000000000000000000000000000000000000003908a249b3645d58c5f4"
                    },
                    {
                        "current": "0x0000000000000000000000000000000000000000000038fc4ebdda508d634800",
                        "key": "0xdc3bfa849e39494c98a2ff59ece3e681cf574a1808e316cd729c566d36b96518",
                        "prev": "0x0000000000000000000000000000000000000000000038fc40dd239f3a0b2c00"
                    }
                ],
                "storageVariables": []
            },
            {
                "address": "0x98f3c9e6e3face36baad05fe09d375ef1464288b",
                "erc": "",
                "slots": [
                    {
                        "current": "0x000000000000000000000000000000000000000000000000000000000000643e",
                        "key": "0x9ccbe70f0ebf9580c8c443085390e3dfb5be5ce94c31506ca135827ebc1b9f32",
                        "prev": "0x000000000000000000000000000000000000000000000000000000000000643d"
                    }
                ],
                "storageVariables": [
                    {
                        "name": "_state",
                        "type": "struct Storage.WormholeState",
                        "value": {
                            "fields": [
                                {
                                    "name": "sequences",
                                    "type": "mapping(address => uint64)",
                                    "value": {
                                        "pairs": [
                                            {
                                                "key": "0x3ee18b2214aff97000d974cf647e7c347e8fa585",
                                                "value": {
                                                    "current": "25662",
                                                    "prev": "25661",
                                                    "typeTag": 1
                                                }
                                            }
                                        ],
                                        "typeTag": 4
                                    }
                                }
                            ],
                            "typeTag": 3
                        }
                    }
                ]
            },
            {
                "address": "0xae7ab96520de3a18e5e111b5eaab095312d7fe84",
                "erc": "",
                "slots": [
                    {
                        "current": "0x00000000000000000000000000000000000000000000359bb5b47254be3cb22a",
                        "key": "0x6b271e80fc84499d44833758840e5567217eba4c0417d569476f40df8227a5c4",
                        "prev": "0x00000000000000000000000000000000000000000000359ba8a39d82dd04cc5c"
                    },
                    {
                        "current": "0x00000000000000000000000000000000000000000000000000000002312b69be",
                        "key": "0xb8a34288e226789513a438d5b376f32e71684a3c43eb7e0bb3fc7084c9117403",
                        "prev": "0x0000000000000000000000000000000000000000000000000000000000000001"
                    },
                    {
                        "current": "0x00000000000000000000000000000000000000000000000b324ed2956fccb48b",
                        "key": "0xed310af23f61f96daefbcd140b306c0bdbf8c178398299741687b90e794772b0",
                        "prev": "0x00000000000000000000000000000000000000000000000b246e1be1c868b48b"
                    },
                    {
                        "current": "0x00000000000000000000000000000000000000000001893777de2da3b7ac2327",
                        "key": "0xe3b4b636e601189b5f4c6742edf2538ac12bb61ed03e6da26949d69838fa447e",
                        "prev": "0x0000000000000000000000000000000000000000000189376acd58cfa548d39c"
                    }
                ],
                "storageVariables": []
            }
        ]
    }
}