{
    "balance_change": {
        "balanceChanges": [
            {
                "account": "0x74afcd26d7cad4d9ee68ef9152afba369feafc56",
                "assets": [
                    {
                        "address": "0xd4078bdb652610ad5383a747d130cbe905911102",
                        "amount": "211",
                        "iconUrl": "",
                        "isERC1155": false,
                        "isERC721": false,
                        "sign": false,
                        "value": ""
                    }
                ]
            },
            {
                "account": "0x4adc00abe7ab397a2b33c9d867cf89b26aa82106",
                "assets": [
                    {
                        "address": "0xd4078bdb652610ad5383a747d130cbe905911102",
                        "amount": "211",
                        "iconUrl": "",
                        "isERC1155": false,
                        "isERC721": false,
                        "sign": true,
                        "value": ""
                    }
                ]
            }
        ]
    },
    "profile": {
        "basic_info": {
            "baseFee": "",
            "blockNumber": 6429776,
            "callData": "0xa9059cbb0000000000000000000000004adc00abe7ab397a2b33c9d867cf89b26aa8210600000000000000000000000000000000000000000000000b70369612f76c0000",
            "debugEnable": true,
            "errorInfo": "",
            "eventCount": 1,
            "feeRecipient": "0xb2930b35844a230f00e51431acae96fe543a0347",
            "formatValue": "0",
            "gasLimit": 36954,
            "gasPrice": "8",
            "gasUsed": 36954,
            "intTxnCount": 0,
            "internalRevert": false,
            "internalRevertMessage": "",
            "isContractCreation": false,
            "isFlashloan": false,
            "maxFee": "",
            "nonce": 4638,
            "overwritedBlockNumber": -1,
            "priorityFee": "",
            "receiver": "0xd4078bdb652610ad5383a747d130cbe905911102",
            "revertMessage": "",
            "sender": "0x74afcd26d7cad4d9ee68ef9152afba369feafc56",
            "simulationEnable": true,
            "sourceTxnHash": "0x7489459fb3f973febba3698e6f3071cc19683d1a54134d5a649158dff5af3578",
            "status": true,
            "timestamp": "2018-09-30T22:04:52Z",
            "transactionFee": "0.000295632",
            "txnHash": "0x7489459fb3f973febba3698e6f3071cc19683d1a54134d5a649158dff5af3578",
            "txnIndex": 72,
            "type": 0,
            "value": "0"
        },
        "fund_flow": [
            {
                "amount": "211",
                "from": "0x74afcd26d7cad4d9ee68ef9152afba369feafc56",
                "id": 1,
                "isERC1155": false,
                "isERC721": false,
                "isReverted": false,
                "order": 1,
                "to": "0x4adc00abe7ab397a2b33c9d867cf89b26aa82106",
                "token": "0xd4078bdb652610ad5383a747d130cbe905911102"
            }
        ],
        "token_infos": [
            {
                "address": "0xd4078bdb652610ad5383a747d130cbe905911102",
                "decimals": 18
            },
            {
                "address": "0xeeeeeeeeeeeeeeeeeeeeeeeeeeeeeeeeeeeeeeee",
                "decimals": 18
            },
            {
                "address": "0xc02aaa39b223fe8d0a0e5c4f27ead9083c756cc2",
                "decimals": 18
            }
        ]
    },
    "address_label": {
        "labels": [
            {
                "address": "0xeeeeeeeeeeeeeeeeeeeeeeeeeeeeeeeeeeeeeeee",
                "label": "Ether"
            },
            {
                "address": "0xd4078bdb652610ad5383a747d130cbe905911102",
                "label": "Viola Token"
            },
            {
                "address": "0x0000000000000000000000000000000000000001",
                "label": "Precompiled"
            },
            {
                "address": "0x0000000000000000000000000000000000000002",
                "label": "Precompiled"
            },
            {
                "address": "0x0000000000000000000000000000000000000003",
                "label": "Precompiled"
            },
            {
                "address": "0x0000000000000000000000000000000000000004",
                "label": "Precompiled"
            }
        ]
    },
    "trace": {
        "accountLabels": null,
        "dataMap": {
            "-1": {
                "invocation": {
                    "address": "0x74afcd26d7cad4d9ee68ef9152afba369feafc56",
                    "callData": "",
                    "decodedMethod": null,
                    "errorInfo": "",
                    "fromAddress": "",
                    "gasUsed": 0,
                    "id": -1,
                    "methodDecoded": false,
                    "operation": "",
                    "output": "",
                    "revert": false,
                    "revertMessage": "",
                    "selector": "",
                    "status": false,
                    "value": ""
                },
                "nodeType": 0
            },
            "0": {
                "invocation": {
                    "address": "0xd4078bdb652610ad5383a747d130cbe905911102",
                    "callData": "0x0000000000000000000000004adc00abe7ab397a2b33c9d867cf89b26aa8210600000000000000000000000000000000000000000000000b70369612f76c0000",
                    "decodedMethod": {
                        "callParams": [
                            {
                                "name": "_to",
                                "type": "address",
                                "value": "0x4adc00abe7ab397a2b33c9d867cf89b26aa82106"
                            },
                            {
                                "decimalAvailable": true,
                                "name": "_value",
                                "type": "uint256",
                                "value": "211,000,000,000,000,000,000"
                            }
                        ],
                        "constructorArguments": "",
                        "name": "transfer",
                        "returnParams": [
                            {
                                "name": "",
                                "type": "bool",
                                "value": true
                            }
                        ],
                        "signature": "transfer(address,uint256)"
                    },
                    "errorInfo": "",
                    "fromAddress": "0x74afcd26d7cad4d9ee68ef9152afba369feafc56",
                    "gasUsed": 36954,
                    "id": 0,
                    "methodDecoded": true,
                    "operation": "CALL",
                    "output": "0x0000000000000000000000000000000000000000000000000000000000000001",
                    "revert": false,
                    "revertMessage": "",
                    "selector": "0xa9059cbb",
                    "status": true,
                    "value": "0"
                },
                "nodeType": 0
            },
            "1": {
                "event": {
                    "contract": "0xd4078bdb652610ad5383a747d130cbe905911102",
                    "decodedLog": {
                        "name": "Transfer",
                        "params": [
                            {
                                "name": "from",
                                "type": "address",
                                "value": "0x74afcd26d7cad4d9ee68ef9152afba369feafc56"
                            },
                            {
                                "name": "to",
                                "type": "address",
                                "value": "0x4adc00abe7ab397a2b33c9d867cf89b26aa82106"
                            },
                            {
                                "decimalAvailable": true,
                                "name": "value",
                                "type": "uint256",
                                "value": "211,000,000,000,000,000,000"
                            }
                        ],
                        "signature": "Transfer(address,address,uint256)"
                    },
                    "id": 1,
                    "logData": "0x00000000000000000000000000000000000000000000000b70369612f76c0000",
                    "logDecoded": true,
                    "operation": "EVENT",
                    "revert": false,
                    "status": true,
                    "topics": [
                        "0xddf252ad1be2c89b69c2b068fc378daa952ba7f163c4a11628f55a4df523b3ef",
                        "0x00000000000000000000000074afcd26d7cad4d9ee68ef9152afba369feafc56",
                        "0x0000000000000000000000004adc00abe7ab397a2b33c9d867cf89b26aa82106"
                    ]
                },
                "nodeType": 1
            }
        },
        "gasFlame": [
            {
                "children": [
                    {
                        "children": [
                            {
                                "children": [],
                                "depth": 0,
                                "name": "Initial Gas",
                                "value": 23192
                            },
                            {
                                "children": [],
                                "depth": 0,
                                "name": "Executed Gas",
                                "value": 13762
                            }
                        ],
                        "depth": -1,
                        "name": "Actual Gas Used",
                        "value": 36954
                    },
                    {
                        "children": [],
                        "depth": -1,
                        "name": "Refunded Gas",
                        "value": 0
                    }
                ],
                "depth": -2,
                "name": "Total Gas",
                "value": 36954
            }
        ],
        "isConfirmed": true,
        "mainTrace": [
            {
                "children": [
                    {
                        "children": [
                            {
                                "children": [],
                                "depth": 1,
                                "id": 1,
                                "order": 1
                            }
                        ],
                        "depth": 0,
                        "id": 0,
                        "order": 0
                    }
                ],
                "depth": -1,
                "id": -1,
                "order": -1
            }
        ],
        "mainTraceNodeCount": 2,
        "parentIdMap": {
            "0": -1,
            "1": 0
        },
        "tidyTrace": [
            {
                "children": [
                    {
                        "children": [
                            {
                                "children": [],
                                "depth": 1,
                                "id": 1,
                                "order": 1
                            }
                        ],
                        "depth": 0,
                        "id": 0,
                        "order": 0
                    }
                ],
                "depth": -1,
                "id": -1,
                "order": -1
            }
        ],
        "tidyTraceNodeCount": 2
    },
    "state_change": {
        "stateChanges": [
            {
                "address": "0xd4078bdb652610ad5383a747d130cbe905911102",
                "erc": "ERC-20",
                "slots": [
                    {
                        "current": "0x000000000000000000000000000000000000000000c1816ceff17293ff180000",
                        "key": "0x3ed4c71a790a56bf2d16dfd13f5a10fe9fdbd1f72cae25565be4d69b0b41a02f",
                        "prev": "0x000000000000000000000000000000000000000000c18178602808a6f6840000"
                    },
                    {
                        "current": "0x00000000000000000000000000000000000000000000001f633d3853972c0000",
                        "key": "0xa053b8bcca326a9aa99a2210a2507731699c04d603fdefed889c05747a1dba49",
                        "prev": "0x000000000000000000000000000000000000000000000013f306a2409fc00000"
                    }
                ],
                "storageVariables": [
                    {
                        "name": "balances",
                        "type": "mapping(address => uint256)",
                        "value": {
                            "pairs": [
                                {
                                    "key": "0x4adc00abe7ab397a2b33c9d867cf89b26aa82106",
                                    "value": {
                                        "current": "579000000000000000000",
                                        "prev": "368000000000000000000",
                                        "typeTag": 1
                                    }
                                },
                                {
                                    "key": "0x74afcd26d7cad4d9ee68ef9152afba369feafc56",
                                    "value": {
                                        "current": "233933878000000000000000000",
                                        "prev": "233934089000000000000000000",
                                        "typeTag": 1
                                    }
                                }
                            ],
                            "typeTag": 4
                        }
                    }
                ]
            }
        ]
    }
}