{
    "balance_change": {
        "balanceChanges": [
            {
                "account": "0x9119c1dad4ebcab9b75d588ceb9f00bd2bcd8d6d",
                "assets": [
                    {
                        "address": "0x4b7dfae2567181e54776337c840e142acb42aa1f",
                        "amount": "289,990.673764068847758975",
                        "iconUrl": "",
                        "isERC1155": false,
                        "isERC721": false,
                        "sign": true,
                        "value": "36.96809791"
                    }
                ]
            },
            {
                "account": "0x669d1622cfa226c5e0c228d11987a8674592e5a6",
                "assets": [
                    {
                        "address": "0x4b7dfae2567181e54776337c840e142acb42aa1f",
                        "amount": "156,657.340430735514425641",
                        "iconUrl": "",
                        "isERC1155": false,
                        "isERC721": false,
                        "sign": false,
                        "value": "20.05204404"
                    }
                ]
            },
            {
                "account": "0x0000000000000000000000000000000000000000",
                "assets": [
                    {
                        "address": "0x4b7dfae2567181e54776337c840e142acb42aa1f",
                        "amount": "136,666.666666666666666666",
                        "iconUrl": "",
                        "isERC1155": false,
                        "isERC721": false,
                        "sign": false,
                        "value": "17.54117115"
                    }
                ]
            },
            {
                "account": "0x84ab8e9484c783bc76247b325473582b2a5c9497",
                "assets": [
                    {
                        "address": "0x4b7dfae2567181e54776337c840e142acb42aa1f",
                        "amount": "3,333.333333333333333333",
                        "iconUrl": "",
                        "isERC1155": false,
                        "isERC721": false,
                        "sign": true,
                        "value": "0.42728635"
                    }
                ]
            }
        ]
    },
    "profile": {
        "basic_info": {
            "baseFee": "",
            "blockNumber": 10875911,
            "callData": "0xe2bbb15800000000000000000000000000000000000000000000000000000000000000010000000000000000000000000000000000000000000000000000000000000000",
            "debugEnable": true,
            "errorInfo": "",
            "eventCount": 5,
            "feeRecipient": "0x04668ec2f57cc15c381b461b9fedab5d451c8f7f",
            "formatValue": "0",
            "gasLimit": 203358,
            "gasPrice": "80",
            "gasUsed": 135572,
            "intTxnCount": 6,
            "internalRevert": false,
            "internalRevertMessage": "",
            "isContractCreation": false,
            "isFlashloan": false,
            "maxFee": "",
            "nonce": 391,
            "overwritedBlockNumber": -1,
            "priorityFee": "",
            "receiver": "0x669d1622cfa226c5e0c228d11987a8674592e5a6",
            "revertMessage": "",
            "sender": "0x9119c1dad4ebcab9b75d588ceb9f00bd2bcd8d6d",
            "simulationEnable": true,
            "sourceTxnHash": "0x75697b78cd73c006e7b14cae285ba919d2ed193ec4b5feb1d510cfbfabb7147a",
            "status": true,
            "timestamp": "2020-09-16T22:49:56Z",
            "transactionFee": "0.01084576",
            "txnHash": "0x75697b78cd73c006e7b14cae285ba919d2ed193ec4b5feb1d510cfbfabb7147a",
            "txnIndex": 122,
            "type": 0,
            "value": "0"
        },
        "fund_flow": [
            {
                "amount": "3,333.333333333333333333",
                "from": "0x0000000000000000000000000000000000000000",
                "id": 1,
                "isERC1155": false,
                "isERC721": false,
                "isReverted": false,
                "order": 1,
                "to": "0x84ab8e9484c783bc76247b325473582b2a5c9497",
                "token": "0x4b7dfae2567181e54776337c840e142acb42aa1f"
            },
            {
                "amount": "133,333.333333333333333332",
                "from": "0x0000000000000000000000000000000000000000",
                "id": 2,
                "isERC1155": false,
                "isERC721": false,
                "isReverted": false,
                "order": 2,
                "to": "0x669d1622cfa226c5e0c228d11987a8674592e5a6",
                "token": "0x4b7dfae2567181e54776337c840e142acb42aa1f"
            },
            {
                "amount": "289,990.673764068847758975",
                "from": "0x669d1622cfa226c5e0c228d11987a8674592e5a6",
                "id": 3,
                "isERC1155": false,
                "isERC721": false,
                "isReverted": false,
                "order": 3,
                "to": "0x9119c1dad4ebcab9b75d588ceb9f00bd2bcd8d6d",
                "token": "0x4b7dfae2567181e54776337c840e142acb42aa1f"
            },
            {
                "amount": "0",
                "from": "0x9119c1dad4ebcab9b75d588ceb9f00bd2bcd8d6d",
                "id": 4,
                "isERC1155": false,
                "isERC721": false,
                "isReverted": false,
                "order": 4,
                "to": "0x669d1622cfa226c5e0c228d11987a8674592e5a6",
                "token": "0x2e966cbf41530b288c5c933e8e4cd5ca3ae6bb6a"
            }
        ],
        "token_infos": [
            {
                "address": "0x2e966cbf41530b288c5c933e8e4cd5ca3ae6bb6a",
                "decimals": 18
            },
            {
                "address": "0x4b7dfae2567181e54776337c840e142acb42aa1f",
                "decimals": 18
            },
            {
                "address": "0xc02aaa39b223fe8d0a0e5c4f27ead9083c756cc2",
                "decimals": 18
            },
            {
                "address": "0xeeeeeeeeeeeeeeeeeeeeeeeeeeeeeeeeeeeeeeee",
                "decimals": 18
            }
        ]
    },
    "address_label": {
        "labels": [
            {
                "address": "0x0000000000000000000000000000000000000001",
                "label": "Precompiled"
            },
            {
                "address": "0x0000000000000000000000000000000000000004",
                "label": "Precompiled"
            },
            {
                "address": "0xeeeeeeeeeeeeeeeeeeeeeeeeeeeeeeeeeeeeeeee",
                "label": "Ether"
            },
            {
                "address": "0x669d1622cfa226c5e0c228d11987a8674592e5a6",
                "label": "GodKimchiChef"
            },
            {
                "address": "0x4b7dfae2567181e54776337c840e142acb42aa1f",
                "label": "GOD KIMCHI (gKIMCHI)"
            },
            {
                "address": "0x0000000000000000000000000000000000000002",
                "label": "Precompiled"
            },
            {
                "address": "0x0000000000000000000000000000000000000003",
                "label": "Precompiled"
            },
            {
                "address": "0x2e966cbf41530b288c5c933e8e4cd5ca3ae6bb6a",
                "label": "Uniswap V2: KIMCHI-gKIMCHI"
            },
            {
                "address": "0x84ab8e9484c783bc76247b325473582b2a5c9497",
                "label": "Kimchi.Finance: Deployer"
            }
        ]
    },
    "trace": {
        "accountLabels": null,
        "dataMap": {
            "-1": {
                "invocation": {
                    "address": "0x9119c1dad4ebcab9b75d588ceb9f00bd2bcd8d6d",
                    "callData": "",
                    "decodedMethod": null,
                    "errorInfo": "",
                    "fromAddress": "",
                    "gasUsed": 0,
                    "id": -1,
                    "methodDecoded": false,
                    "operation": "",
                    "output": "",
                    "revert": false,
                    "revertMessage": "",
                    "selector": "",
                    "status": false,
                    "value": ""
                },
                "nodeType": 0
            },
            "0": {
                "invocation": {
                    "address": "0x669d1622cfa226c5e0c228d11987a8674592e5a6",
                    "callData": "0x00000000000000000000000000000000000000000000000000000000000000010000000000000000000000000000000000000000000000000000000000000000",
                    "decodedMethod": {
                        "callParams": [
                            {
                                "name": "_pid",
                                "type": "uint256",
                                "value": "1"
                            },
                            {
                                "name": "_amount",
                                "type": "uint256",
                                "value": "0"
                            }
                        ],
                        "constructorArguments": "",
                        "name": "deposit",
                        "returnParams": [],
                        "signature": "deposit(uint256,uint256)"
                    },
                    "errorInfo": "",
                    "fromAddress": "0x9119c1dad4ebcab9b75d588ceb9f00bd2bcd8d6d",
                    "gasUsed": 135572,
                    "id": 0,
                    "methodDecoded": true,
                    "operation": "CALL",
                    "output": "",
                    "revert": false,
                    "revertMessage": "",
                    "selector": "0xe2bbb158",
                    "status": true,
                    "value": "0"
                },
                "nodeType": 0
            },
            "1": {
                "invocation": {
                    "address": "0x2e966cbf41530b288c5c933e8e4cd5ca3ae6bb6a",
                    "callData": "0x000000000000000000000000669d1622cfa226c5e0c228d11987a8674592e5a6",
                    "decodedMethod": {
                        "callParams": [
                            {
                                "name": "",
                                "type": "address",
                                "value": "0x669d1622cfa226c5e0c228d11987a8674592e5a6"
                            }
                        ],
                        "constructorArguments": "",
                        "name": "balanceOf",
                        "returnParams": [
                            {
                                "decimalAvailable": true,
                                "name": "",
                                "type": "uint256",
                                "value": "11,796,158,296,815,874,165,758,923"
                            }
                        ],
                        "signature": "balanceOf(address)"
                    },
                    "errorInfo": "",
                    "fromAddress": "0x669d1622cfa226c5e0c228d11987a8674592e5a6",
                    "gasUsed": 1180,
                    "id": 1,
                    "methodDecoded": true,
                    "operation": "STATICCALL",
                    "output": "0x00000000000000000000000000000000000000000009c1ef05ca64ce7b90dbcb",
                    "revert": false,
                    "revertMessage": "",
                    "selector": "0x70a08231",
                    "status": true,
                    "value": "0"
                },
                "nodeType": 0
            },
            "10": {
                "event": {
                    "contract": "0x2e966cbf41530b288c5c933e8e4cd5ca3ae6bb6a",
                    "decodedLog": {
                        "name": "Transfer",
                        "params": [
                            {
                                "name": "from",
                                "type": "address",
                                "value": "0x9119c1dad4ebcab9b75d588ceb9f00bd2bcd8d6d"
                            },
                            {
                                "name": "to",
                                "type": "address",
                                "value": "0x669d1622cfa226c5e0c228d11987a8674592e5a6"
                            },
                            {
                                "decimalAvailable": true,
                                "name": "value",
                                "type": "uint256",
                                "value": "0"
                            }
                        ],
                        "signature": "Transfer(address,address,uint256)"
                    },
                    "id": 10,
                    "logData": "0x0000000000000000000000000000000000000000000000000000000000000000",
                    "logDecoded": true,
                    "operation": "EVENT",
                    "revert": false,
                    "status": true,
                    "topics": [
                        "0xddf252ad1be2c89b69c2b068fc378daa952ba7f163c4a11628f55a4df523b3ef",
                        "0x0000000000000000000000009119c1dad4ebcab9b75d588ceb9f00bd2bcd8d6d",
                        "0x000000000000000000000000669d1622cfa226c5e0c228d11987a8674592e5a6"
                    ]
                },
                "nodeType": 1
            },
            "11": {
                "event": {
                    "contract": "0x669d1622cfa226c5e0c228d11987a8674592e5a6",
                    "decodedLog": {
                        "name": "Deposit",
                        "params": [
                            {
                                "name": "user",
                                "type": "address",
                                "value": "0x9119c1dad4ebcab9b75d588ceb9f00bd2bcd8d6d"
                            },
                            {
                                "name": "pid",
                                "type": "uint256",
                                "value": "1"
                            },
                            {
                                "name": "amount",
                                "type": "uint256",
                                "value": "0"
                            }
                        ],
                        "signature": "Deposit(address,uint256,uint256)"
                    },
                    "id": 11,
                    "logData": "0x0000000000000000000000000000000000000000000000000000000000000000",
                    "logDecoded": true,
                    "operation": "EVENT",
                    "revert": false,
                    "status": true,
                    "topics": [
                        "0x90890809c654f11d6e72a28fa60149770a0d11ec6c92319d6ceb2bb0a4ea1a15",
                        "0x0000000000000000000000009119c1dad4ebcab9b75d588ceb9f00bd2bcd8d6d",
                        "0x0000000000000000000000000000000000000000000000000000000000000001"
                    ]
                },
                "nodeType": 1
            },
            "2": {
                "invocation": {
                    "address": "0x4b7dfae2567181e54776337c840e142acb42aa1f",
                    "callData": "0x00000000000000000000000084ab8e9484c783bc76247b325473582b2a5c94970000000000000000000000000000000000000000000000b4b34aede8e6155555",
                    "decodedMethod": {
                        "callParams": [
                            {
                                "name": "_to",
                                "type": "address",
                                "value": "0x84ab8e9484c783bc76247b325473582b2a5c9497"
                            },
                            {
                                "name": "_amount",
                                "type": "uint256",
                                "value": "3,333,333,333,333,333,333,333"
                            }
                        ],
                        "constructorArguments": "",
                        "name": "mint",
                        "returnParams": [],
                        "signature": "mint(address,uint256)"
                    },
                    "errorInfo": "",
                    "fromAddress": "0x669d1622cfa226c5e0c228d11987a8674592e5a6",
                    "gasUsed": 15096,
                    "id": 2,
                    "methodDecoded": true,
                    "operation": "CALL",
                    "output": "",
                    "revert": false,
                    "revertMessage": "",
                    "selector": "0x40c10f19",
                    "status": true,
                    "value": "0"
                },
                "nodeType": 0
            },
            "3": {
                "event": {
                    "contract": "0x4b7dfae2567181e54776337c840e142acb42aa1f",
                    "decodedLog": {
                        "name": "Transfer",
                        "params": [
                            {
                                "name": "from",
                                "type": "address",
                                "value": "0x0000000000000000000000000000000000000000"
                            },
                            {
                                "name": "to",
                                "type": "address",
                                "value": "0x84ab8e9484c783bc76247b325473582b2a5c9497"
                            },
                            {
                                "decimalAvailable": true,
                                "name": "value",
                                "type": "uint256",
                                "value": "3,333,333,333,333,333,333,333"
                            }
                        ],
                        "signature": "Transfer(address,address,uint256)"
                    },
                    "id": 3,
                    "logData": "0x0000000000000000000000000000000000000000000000b4b34aede8e6155555",
                    "logDecoded": true,
                    "operation": "EVENT",
                    "revert": false,
                    "status": true,
                    "topics": [
                        "0xddf252ad1be2c89b69c2b068fc378daa952ba7f163c4a11628f55a4df523b3ef",
                        "0x0000000000000000000000000000000000000000000000000000000000000000",
                        "0x00000000000000000000000084ab8e9484c783bc76247b325473582b2a5c9497"
                    ]
                },
                "nodeType": 1
            },
            "4": {
                "invocation": {
                    "address": "0x4b7dfae2567181e54776337c840e142acb42aa1f",
                    "callData": "0x000000000000000000000000669d1622cfa226c5e0c228d11987a8674592e5a6000000000000000000000000000000000000000000001c3c03b52c63f3555555",
                    "decodedMethod": {
                        "callParams": [
                            {
                                "name": "_to",
                                "type": "address",
                                "value": "0x669d1622cfa226c5e0c228d11987a8674592e5a6"
                            },
                            {
                                "name": "_amount",
                                "type": "uint256",
                                "value": "133,333,333,333,333,333,333,333"
                            }
                        ],
                        "constructorArguments": "",
                        "name": "mint",
                        "returnParams": [],
                        "signature": "mint(address,uint256)"
                    },
                    "errorInfo": "",
                    "fromAddress": "0x669d1622cfa226c5e0c228d11987a8674592e5a6",
                    "gasUsed": 10896,
                    "id": 4,
                    "methodDecoded": true,
                    "operation": "CALL",
                    "output": "",
                    "revert": false,
                    "revertMessage": "",
                    "selector": "0x40c10f19",
                    "status": true,
                    "value": "0"
                },
                "nodeType": 0
            },
            "5": {
                "event": {
                    "contract": "0x4b7dfae2567181e54776337c840e142acb42aa1f",
                    "decodedLog": {
                        "name": "Transfer",
                        "params": [
                            {
                                "name": "from",
                                "type": "address",
                                "value": "0x0000000000000000000000000000000000000000"
                            },
                            {
                                "name": "to",
                                "type": "address",
                                "value": "0x669d1622cfa226c5e0c228d11987a8674592e5a6"
                            },
                            {
                                "decimalAvailable": true,
                                "name": "value",
                                "type": "uint256",
                                "value": "133,333,333,333,333,333,333,333"
                            }
                        ],
                        "signature": "Transfer(address,address,uint256)"
                    },
                    "id": 5,
                    "logData": "0x000000000000000000000000000000000000000000001c3c03b52c63f3555555",
                    "logDecoded": true,
                    "operation": "EVENT",
                    "revert": false,
                    "status": true,
                    "topics": [
                        "0xddf252ad1be2c89b69c2b068fc378daa952ba7f163c4a11628f55a4df523b3ef",
                        "0x0000000000000000000000000000000000000000000000000000000000000000",
                        "0x000000000000000000000000669d1622cfa226c5e0c228d11987a8674592e5a6"
                    ]
                },
                "nodeType": 1
            },
            "6": {
                "invocation": {
                    "address": "0x4b7dfae2567181e54776337c840e142acb42aa1f",
                    "callData": "0x000000000000000000000000669d1622cfa226c5e0c228d11987a8674592e5a6",
                    "decodedMethod": {
                        "callParams": [
                            {
                                "name": "account",
                                "type": "address",
                                "value": "0x669d1622cfa226c5e0c228d11987a8674592e5a6"
                            }
                        ],
                        "constructorArguments": "",
                        "name": "balanceOf",
                        "returnParams": [
                            {
                                "decimalAvailable": true,
                                "name": "",
                                "type": "uint256",
                                "value": "148,807,081,573,258,219,013,364,834"
                            }
                        ],
                        "signature": "balanceOf(address)"
                    },
                    "errorInfo": "",
                    "fromAddress": "0x669d1622cfa226c5e0c228d11987a8674592e5a6",
                    "gasUsed": 1168,
                    "id": 6,
                    "methodDecoded": true,
                    "operation": "STATICCALL",
                    "output": "0x0000000000000000000000000000000000000000007b17200e5fb249f1e15c62",
                    "revert": false,
                    "revertMessage": "",
                    "selector": "0x70a08231",
                    "status": true,
                    "value": "0"
                },
                "nodeType": 0
            },
            "7": {
                "invocation": {
                    "address": "0x4b7dfae2567181e54776337c840e142acb42aa1f",
                    "callData": "0x0000000000000000000000009119c1dad4ebcab9b75d588ceb9f00bd2bcd8d6d000000000000000000000000000000000000000000003d686d0967fb796fae7e",
                    "decodedMethod": {
                        "callParams": [
                            {
                                "name": "recipient",
                                "type": "address",
                                "value": "0x9119c1dad4ebcab9b75d588ceb9f00bd2bcd8d6d"
                            },
                            {
                                "decimalAvailable": true,
                                "name": "amount",
                                "type": "uint256",
                                "value": "289,990,673,764,068,847,758,974"
                            }
                        ],
                        "constructorArguments": "",
                        "name": "transfer",
                        "returnParams": [
                            {
                                "name": "",
                                "type": "bool",
                                "value": true
                            }
                        ],
                        "signature": "transfer(address,uint256)"
                    },
                    "errorInfo": "",
                    "fromAddress": "0x669d1622cfa226c5e0c228d11987a8674592e5a6",
                    "gasUsed": 25323,
                    "id": 7,
                    "methodDecoded": true,
                    "operation": "CALL",
                    "output": "0x0000000000000000000000000000000000000000000000000000000000000001",
                    "revert": false,
                    "revertMessage": "",
                    "selector": "0xa9059cbb",
                    "status": true,
                    "value": "0"
                },
                "nodeType": 0
            },
            "8": {
                "event": {
                    "contract": "0x4b7dfae2567181e54776337c840e142acb42aa1f",
                    "decodedLog": {
                        "name": "Transfer",
                        "params": [
                            {
                                "name": "from",
                                "type": "address",
                                "value": "0x669d1622cfa226c5e0c228d11987a8674592e5a6"
                            },
                            {
                                "name": "to",
                                "type": "address",
                                "value": "0x9119c1dad4ebcab9b75d588ceb9f00bd2bcd8d6d"
                            },
                            {
                                "decimalAvailable": true,
                                "name": "value",
                                "type": "uint256",
                                "value": "289,990,673,764,068,847,758,974"
                            }
                        ],
                        "signature": "Transfer(address,address,uint256)"
                    },
                    "id": 8,
                    "logData": "0x000000000000000000000000000000000000000000003d686d0967fb796fae7e",
                    "logDecoded": true,
                    "operation": "EVENT",
                    "revert": false,
                    "status": true,
                    "topics": [
                        "0xddf252ad1be2c89b69c2b068fc378daa952ba7f163c4a11628f55a4df523b3ef",
                        "0x000000000000000000000000669d1622cfa226c5e0c228d11987a8674592e5a6",
                        "0x0000000000000000000000009119c1dad4ebcab9b75d588ceb9f00bd2bcd8d6d"
                    ]
                },
                "nodeType": 1
            },
            "9": {
                "invocation": {
                    "address": "0x2e966cbf41530b288c5c933e8e4cd5ca3ae6bb6a",
                    "callData": "0x0000000000000000000000009119c1dad4ebcab9b75d588ceb9f00bd2bcd8d6d000000000000000000000000669d1622cfa226c5e0c228d11987a8674592e5a60000000000000000000000000000000000000000000000000000000000000000",
                    "decodedMethod": {
                        "callParams": [
                            {
                                "name": "from",
                                "type": "address",
                                "value": "0x9119c1dad4ebcab9b75d588ceb9f00bd2bcd8d6d"
                            },
                            {
                                "name": "to",
                                "type": "address",
                                "value": "0x669d1622cfa226c5e0c228d11987a8674592e5a6"
                            },
                            {
                                "decimalAvailable": true,
                                "name": "value",
                                "type": "uint256",
                                "value": "0"
                            }
                        ],
                        "constructorArguments": "",
                        "name": "transferFrom",
                        "returnParams": [
                            {
                                "name": "",
                                "type": "bool",
                                "value": true
                            }
                        ],
                        "signature": "transferFrom(address,address,uint256)"
                    },
                    "errorInfo": "",
                    "fromAddress": "0x669d1622cfa226c5e0c228d11987a8674592e5a6",
                    "gasUsed": 8849,
                    "id": 9,
                    "methodDecoded": true,
                    "operation": "CALL",
                    "output": "0x0000000000000000000000000000000000000000000000000000000000000001",
                    "revert": false,
                    "revertMessage": "",
                    "selector": "0x23b872dd",
                    "status": true,
                    "value": "0"
                },
                "nodeType": 0
            }
        },
        "gasFlame": [
            {
                "children": [
                    {
                        "children": [
                            {
                                "children": [],
                                "depth": 0,
                                "name": "Initial Gas",
                                "value": 21332
                            },
                            {
                                "children": [
                                    {
                                        "children": [],
                                        "depth": 1,
                                        "name": "balanceOf",
                                        "value": 1180
                                    },
                                    {
                                        "children": [],
                                        "depth": 1,
                                        "name": "mint",
                                        "value": 15096
                                    },
                                    {
                                        "children": [],
                                        "depth": 1,
                                        "name": "mint",
                                        "value": 10896
                                    },
                                    {
                                        "children": [],
                                        "depth": 1,
                                        "name": "balanceOf",
                                        "value": 1168
                                    },
                                    {
                                        "children": [],
                                        "depth": 1,
                                        "name": "transfer",
                                        "value": 25323
                                    },
                                    {
                                        "children": [],
                                        "depth": 1,
                                        "name": "transferFrom",
                                        "value": 8849
                                    }
                                ],
                                "depth": 0,
                                "name": "Executed Gas",
                                "value": 114240
                            }
                        ],
                        "depth": -1,
                        "name": "Actual Gas Used",
                        "value": 135572
                    },
                    {
                        "children": [],
                        "depth": -1,
                        "name": "Refunded Gas",
                        "value": 0
                    }
                ],
                "depth": -2,
                "name": "Total Gas",
                "value": 135572
            }
        ],
        "isConfirmed": true,
        "mainTrace": [
            {
                "children": [
                    {
                        "children": [
                            {
                                "children": [],
                                "depth": 1,
                                "id": 1,
                                "order": 1
                            },
                            {
                                "children": [
                                    {
                                        "children": [],
                                        "depth": 2,
                                        "id": 3,
                                        "order": 3
                                    }
                                ],
                                "depth": 1,
                                "id": 2,
                                "order": 2
                            },
                            {
                                "children": [
                                    {
                                        "children": [],
                                        "depth": 2,
                                        "id": 5,
                                        "order": 5
                                    }
                                ],
                                "depth": 1,
                                "id": 4,
                                "order": 4
                            },
                            {
                                "children": [],
                                "depth": 1,
                                "id": 6,
                                "order": 6
                            },
                            {
                                "children": [
                                    {
                                        "children": [],
                                        "depth": 2,
                                        "id": 8,
                                        "order": 8
                                    }
                                ],
                                "depth": 1,
                                "id": 7,
                                "order": 7
                            },
                            {
                                "children": [
                                    {
                                        "children": [],
                                        "depth": 2,
                                        "id": 10,
                                        "order": 10
                                    }
                                ],
                                "depth": 1,
                                "id": 9,
                                "order": 9
                            },
                            {
                                "children": [],
                                "depth": 1,
                                "id": 11,
                                "order": 11
                            }
                        ],
                        "depth": 0,
                        "id": 0,
                        "order": 0
                    }
                ],
                "depth": -1,
                "id": -1,
                "order": -1
            }
        ],
        "mainTraceNodeCount": 12,
        "parentIdMap": {
            "0": -1,
            "1": 0,
            "10": 9,
            "11": 0,
            "2": 0,
            "3": 2,
            "4": 0,
            "5": 4,
            "6": 0,
            "7": 0,
            "8": 7,
            "9": 0
        },
        "tidyTrace": [
            {
                "children": [
                    {
                        "children": [
                            {
                                "children": [
                                    {
                                        "children": [],
                                        "depth": 2,
                                        "id": 3,
                                        "order": 3
                                    }
                                ],
                                "depth": 1,
                                "id": 2,
                                "order": 2
                            },
                            {
                                "children": [
                                    {
                                        "children": [],
                                        "depth": 2,
                                        "id": 5,
                                        "order": 5
                                    }
                                ],
                                "depth": 1,
                                "id": 4,
                                "order": 4
                            },
                            {
                                "children": [
                                    {
                                        "children": [],
                                        "depth": 2,
                                        "id": 8,
                                        "order": 8
                                    }
                                ],
                                "depth": 1,
                                "id": 7,
                                "order": 7
                            },
                            {
                                "children": [
                                    {
                                        "children": [],
                                        "depth": 2,
                                        "id": 10,
                                        "order": 10
                                    }
                                ],
                                "depth": 1,
                                "id": 9,
                                "order": 9
                            },
                            {
                                "children": [],
                                "depth": 1,
                                "id": 11,
                                "order": 11
                            }
                        ],
                        "depth": 0,
                        "id": 0,
                        "order": 0
                    }
                ],
                "depth": -1,
                "id": -1,
                "order": -1
            }
        ],
        "tidyTraceNodeCount": 10
    },
    "state_change": {
        "stateChanges": [
            {
                "address": "0x4b7dfae2567181e54776337c840e142acb42aa1f",
                "erc": "ERC-20",
                "slots": [
                    {
                        "current": "0x0000000000000000000000000000000000000000000a84930e5b818a9bff0de8",
                        "key": "0xc9c882ab107a178e6ec01f1b080ef15cfc29155f138382095002190154db8c27",
                        "prev": "0x0000000000000000000000000000000000000000000a83de5b1093a1b5e9b893"
                    },
                    {
                        "current": "0x0000000000000000000000000000000000000000007ad9b7a1564a4e7871ade4",
                        "key": "0xf2d4f7fc6dd8fe94041925a768fb60a609e410375af720da958c7275c07855cb",
                        "prev": "0x0000000000000000000000000000000000000000007afae40aaa85e5fe8c070d"
                    },
                    {
                        "current": "0x000000000000000000000000000000000000000000003d686d0967fb796fae7e",
                        "key": "0xaeb6545a0cb52b17b723ed0cd9a621a6d0f7d6578ab7fb2e2d60c8e287dab56f",
                        "prev": "0x0000000000000000000000000000000000000000000000000000000000000000"
                    },
                    {
                        "current": "0x00000000000000000000000000000000000000000233c5ff25d62107eb0261ef",
                        "key": "0x0000000000000000000000000000000000000000000000000000000000000002",
                        "prev": "0x00000000000000000000000000000000000000000233a90e6ed606bb1197b745"
                    }
                ],
                "storageVariables": [
                    {
                        "name": "_balances",
                        "type": "mapping(address => uint256)",
                        "value": {
                            "pairs": [
                                {
                                    "key": "0x669d1622cfa226c5e0c228d11987a8674592e5a6",
                                    "value": {
                                        "current": "148517090899494150165605860",
                                        "prev": "148673748239924885680031501",
                                        "typeTag": 1
                                    }
                                },
                                {
                                    "key": "0x84ab8e9484c783bc76247b325473582b2a5c9497",
                                    "value": {
                                        "current": "12715323277826891953671656",
                                        "prev": "12711989944493558620338323",
                                        "typeTag": 1
                                    }
                                },
                                {
                                    "key": "0x9119c1dad4ebcab9b75d588ceb9f00bd2bcd8d6d",
                                    "value": {
                                        "current": "289990673764068847758974",
                                        "prev": "0",
                                        "typeTag": 1
                                    }
                                }
                            ],
                            "typeTag": 4
                        }
                    },
                    {
                        "name": "_totalSupply",
                        "type": "uint256",
                        "value": {
                            "current": "681560249286303283713040879",
                            "prev": "681423582619636617046374213",
                            "typeTag": 1
                        }
                    }
                ]
            },
            {
                "address": "0x669d1622cfa226c5e0c228d11987a8674592e5a6",
                "erc": "",
                "slots": [
                    {
                        "current": "0x0000000000000000000000000000000000000000000000000000229cf10f1729",
                        "key": "0xf3f7a9fe364faab93b216da50a3214154f22a0a2b415b23a84c8169e8b636eea",
                        "prev": "0x0000000000000000000000000000000000000000000000000000229a4f573e58"
                    },
                    {
                        "current": "0x0000000000000000000000000000000000000000000000000000000000a5f407",
                        "key": "0xf3f7a9fe364faab93b216da50a3214154f22a0a2b415b23a84c8169e8b636ee9",
                        "prev": "0x0000000000000000000000000000000000000000000000000000000000a5f38f"
                    },
                    {
                        "current": "0x0000000000000000000000000000000000000000000f2850f2418738a4f78d32",
                        "key": "0xc0c33b43c4537fc105ec1006428c6aff3d23a2a26a5d137fb7694771a1c29c86",
                        "prev": "0x0000000000000000000000000000000000000000000eeae885381f3d2b87deb4"
                    }
                ],
                "storageVariables": [
                    {
                        "name": "poolInfo",
                        "type": "struct GodKimchiChef.PoolInfo[]",
                        "value": {
                            "elemType": "struct GodKimchiChef.PoolInfo",
                            "elems": [
                                {
                                    "index": 1,
                                    "value": {
                                        "fields": [
                                            {
                                                "name": "lastRewardBlock",
                                                "type": "uint256",
                                                "value": {
                                                    "current": "10875911",
                                                    "prev": "10875791",
                                                    "typeTag": 1
                                                }
                                            },
                                            {
                                                "name": "accGodKimchiPerShare",
                                                "type": "uint256",
                                                "value": {
                                                    "current": "38057454540585",
                                                    "prev": "38046151425624",
                                                    "typeTag": 1
                                                }
                                            }
                                        ],
                                        "typeTag": 3
                                    }
                                }
                            ],
                            "typeTag": 2
                        }
                    },
                    {
                        "name": "userInfo",
                        "type": "mapping(uint256 => mapping(address => struct GodKimchiChef.UserInfo))",
                        "value": {
                            "pairs": [
                                {
                                    "key": "1",
                                    "value": {
                                        "pairs": [
                                            {
                                                "key": "0x9119c1dad4ebcab9b75d588ceb9f00bd2bcd8d6d",
                                                "value": {
                                                    "fields": [
                                                        {
                                                            "name": "rewardDebt",
                                                            "type": "uint256",
                                                            "value": {
                                                                "current": "18324275149442428213628210",
                                                                "prev": "18034284475678359365869236",
                                                                "typeTag": 1
                                                            }
                                                        }
                                                    ],
                                                    "typeTag": 3
                                                }
                                            }
                                        ],
                                        "typeTag": 4
                                    }
                                }
                            ],
                            "typeTag": 4
                        }
                    }
                ]
            }
        ]
    }
}