{
    "balance_change": {
        "balanceChanges": [
            {
                "account": "0xd88409fb830a155f9f81a01ab1412d5a257526cc",
                "assets": [
                    {
                        "address": "0xafd75caff5c1d402cbf3692e289775438df6a9f0",
                        "amount": "15",
                        "iconUrl": "",
                        "isERC1155": false,
                        "isERC721": false,
                        "sign": false,
                        "value": ""
                    }
                ]
            },
            {
                "account": "0x75ccaaf29b6535d572b52aeea80f5ae72b024976",
                "assets": [
                    {
                        "address": "0xafd75caff5c1d402cbf3692e289775438df6a9f0",
                        "amount": "15",
                        "iconUrl": "",
                        "isERC1155": false,
                        "isERC721": false,
                        "sign": true,
                        "value": ""
                    }
                ]
            }
        ]
    },
    "profile": {
        "basic_info": {
            "baseFee": "",
            "blockNumber": 6823904,
            "callData": "0xa9059cbb00000000000000000000000075ccaaf29b6535d572b52aeea80f5ae72b0249760000000000000000000000000000000000000000000000000000000059682f00",
            "debugEnable": true,
            "errorInfo": "",
            "eventCount": 1,
            "feeRecipient": "0xea674fdde714fd979de3edf0f56aa9716b898ec8",
            "formatValue": "0",
            "gasLimit": 65000,
            "gasPrice": "7",
            "gasUsed": 52649,
            "intTxnCount": 0,
            "internalRevert": false,
            "internalRevertMessage": "",
            "isContractCreation": false,
            "isFlashloan": false,
            "maxFee": "",
            "nonce": 27500,
            "overwritedBlockNumber": -1,
            "priorityFee": "",
            "receiver": "0xafd75caff5c1d402cbf3692e289775438df6a9f0",
            "revertMessage": "",
            "sender": "0xd88409fb830a155f9f81a01ab1412d5a257526cc",
            "simulationEnable": true,
            "sourceTxnHash": "0x758745f488e33199be0c7e415fdc96b27697e6eb351770dd6455503fb8d8e8f1",
            "status": true,
            "timestamp": "2018-12-04T09:58:42Z",
            "transactionFee": "0.000368543",
            "txnHash": "0x758745f488e33199be0c7e415fdc96b27697e6eb351770dd6455503fb8d8e8f1",
            "txnIndex": 42,
            "type": 0,
            "value": "0"
        },
        "fund_flow": [
            {
                "amount": "15",
                "from": "0xd88409fb830a155f9f81a01ab1412d5a257526cc",
                "id": 1,
                "isERC1155": false,
                "isERC721": false,
                "isReverted": false,
                "order": 1,
                "to": "0x75ccaaf29b6535d572b52aeea80f5ae72b024976",
                "token": "0xafd75caff5c1d402cbf3692e289775438df6a9f0"
            }
        ],
        "token_infos": [
            {
                "address": "0xafd75caff5c1d402cbf3692e289775438df6a9f0",
                "decimals": 8
            },
            {
                "address": "0xc02aaa39b223fe8d0a0e5c4f27ead9083c756cc2",
                "decimals": 18
            },
            {
                "address": "0xeeeeeeeeeeeeeeeeeeeeeeeeeeeeeeeeeeeeeeee",
                "decimals": 18
            }
        ]
    },
    "address_label": {
        "labels": [
            {
                "address": "0xeeeeeeeeeeeeeeeeeeeeeeeeeeeeeeeeeeeeeeee",
                "label": "Ether"
            },
            {
                "address": "0xafd75caff5c1d402cbf3692e289775438df6a9f0",
                "label": "ABC - Anti Bureaucracy Coin (ABC)"
            },
            {
                "address": "0x0000000000000000000000000000000000000001",
                "label": "Precompiled"
            },
            {
                "address": "0x0000000000000000000000000000000000000002",
                "label": "Precompiled"
            },
            {
                "address": "0x0000000000000000000000000000000000000003",
                "label": "Precompiled"
            },
            {
                "address": "0x0000000000000000000000000000000000000004",
                "label": "Precompiled"
            }
        ]
    },
    "trace": {
        "accountLabels": null,
        "dataMap": {
            "-1": {
                "invocation": {
                    "address": "0xd88409fb830a155f9f81a01ab1412d5a257526cc",
                    "callData": "",
                    "decodedMethod": null,
                    "errorInfo": "",
                    "fromAddress": "",
                    "gasUsed": 0,
                    "id": -1,
                    "methodDecoded": false,
                    "operation": "",
                    "output": "",
                    "revert": false,
                    "revertMessage": "",
                    "selector": "",
                    "status": false,
                    "value": ""
                },
                "nodeType": 0
            },
            "0": {
                "invocation": {
                    "address": "0xafd75caff5c1d402cbf3692e289775438df6a9f0",
                    "callData": "0x00000000000000000000000075ccaaf29b6535d572b52aeea80f5ae72b0249760000000000000000000000000000000000000000000000000000000059682f00",
                    "decodedMethod": {
                        "callParams": [
                            {
                                "name": "_to",
                                "type": "address",
                                "value": "0x75ccaaf29b6535d572b52aeea80f5ae72b024976"
                            },
                            {
                                "decimalAvailable": true,
                                "name": "_value",
                                "type": "uint256",
                                "value": "1,500,000,000"
                            }
                        ],
                        "constructorArguments": "",
                        "name": "transfer",
                        "returnParams": [
                            {
                                "name": "success",
                                "type": "bool",
                                "value": true
                            }
                        ],
                        "signature": "transfer(address,uint256)"
                    },
                    "errorInfo": "",
                    "fromAddress": "0xd88409fb830a155f9f81a01ab1412d5a257526cc",
                    "gasUsed": 52649,
                    "id": 0,
                    "methodDecoded": true,
                    "operation": "CALL",
                    "output": "0x0000000000000000000000000000000000000000000000000000000000000001",
                    "revert": false,
                    "revertMessage": "",
                    "selector": "0xa9059cbb",
                    "status": true,
                    "value": "0"
                },
                "nodeType": 0
            },
            "1": {
                "event": {
                    "contract": "0xafd75caff5c1d402cbf3692e289775438df6a9f0",
                    "decodedLog": {
                        "name": "Transfer",
                        "params": [
                            {
                                "name": "_from",
                                "type": "address",
                                "value": "0xd88409fb830a155f9f81a01ab1412d5a257526cc"
                            },
                            {
                                "name": "_to",
                                "type": "address",
                                "value": "0x75ccaaf29b6535d572b52aeea80f5ae72b024976"
                            },
                            {
                                "decimalAvailable": true,
                                "name": "_value",
                                "type": "uint256",
                                "value": "1,500,000,000"
                            }
                        ],
                        "signature": "Transfer(address,address,uint256)"
                    },
                    "id": 1,
                    "logData": "0x0000000000000000000000000000000000000000000000000000000059682f00",
                    "logDecoded": true,
                    "operation": "EVENT",
                    "revert": false,
                    "status": true,
                    "topics": [
                        "0xddf252ad1be2c89b69c2b068fc378daa952ba7f163c4a11628f55a4df523b3ef",
                        "0x000000000000000000000000d88409fb830a155f9f81a01ab1412d5a257526cc",
                        "0x00000000000000000000000075ccaaf29b6535d572b52aeea80f5ae72b024976"
                    ]
                },
                "nodeType": 1
            }
        },
        "gasFlame": [
            {
                "children": [
                    {
                        "children": [
                            {
                                "children": [],
                                "depth": 0,
                                "name": "Initial Gas",
                                "value": 23000
                            },
                            {
                                "children": [],
                                "depth": 0,
                                "name": "Executed Gas",
                                "value": 29649
                            }
                        ],
                        "depth": -1,
                        "name": "Actual Gas Used",
                        "value": 52649
                    },
                    {
                        "children": [],
                        "depth": -1,
                        "name": "Refunded Gas",
                        "value": 0
                    }
                ],
                "depth": -2,
                "name": "Total Gas",
                "value": 52649
            }
        ],
        "isConfirmed": true,
        "mainTrace": [
            {
                "children": [
                    {
                        "children": [
                            {
                                "children": [],
                                "depth": 1,
                                "id": 1,
                                "order": 1
                            }
                        ],
                        "depth": 0,
                        "id": 0,
                        "order": 0
                    }
                ],
                "depth": -1,
                "id": -1,
                "order": -1
            }
        ],
        "mainTraceNodeCount": 2,
        "parentIdMap": {
            "0": -1,
            "1": 0
        },
        "tidyTrace": [
            {
                "children": [
                    {
                        "children": [
                            {
                                "children": [],
                                "depth": 1,
                                "id": 1,
                                "order": 1
                            }
                        ],
                        "depth": 0,
                        "id": 0,
                        "order": 0
                    }
                ],
                "depth": -1,
                "id": -1,
                "order": -1
            }
        ],
        "tidyTraceNodeCount": 2
    },
    "state_change": {
        "stateChanges": [
            {
                "address": "0xafd75caff5c1d402cbf3692e289775438df6a9f0",
                "erc": "ERC-20",
                "slots": [
                    {
                        "current": "0x00000000000000000000000000000000000000000000000000002b7422cc1200",
                        "key": "0xe771297f439cbd097a740f511f8947ce1763090f6862687a31d527cefdab9aa6",
                        "prev": "0x00000000000000000000000000000000000000000000000000002b747c344100"
                    },
                    {
                        "current": "0x0000000000000000000000000000000000000000000000000000000059682f00",
                        "key": "0xce2efd3fdb8c01aa9b77ac8401c4ff967cdb35df52158a471b25536dd15be79b",
                        "prev": "0x0000000000000000000000000000000000000000000000000000000000000000"
                    }
                ],
                "storageVariables": [
                    {
                        "name": "balances",
                        "type": "mapping(address => uint256)",
                        "value": {
                            "pairs": [
                                {
                                    "key": "0x75ccaaf29b6535d572b52aeea80f5ae72b024976",
                                    "value": {
                                        "current": "1500000000",
                                        "prev": "0",
                                        "typeTag": 1
                                    }
                                },
                                {
                                    "key": "0xd88409fb830a155f9f81a01ab1412d5a257526cc",
                                    "value": {
                                        "current": "47777800000000",
                                        "prev": "47779300000000",
                                        "typeTag": 1
                                    }
                                }
                            ],
                            "typeTag": 4
                        }
                    }
                ]
            }
        ]
    }
}