{
    "balance_change": {
        "balanceChanges": []
    },
    "profile": {
        "basic_info": {
            "baseFee": "",
            "blockNumber": 9289487,
            "callData": "0x4ab0d1909b19d7643602ba92a1ba3236da9d57c1176b63b708f2042b6a47f12475d3ffbb00000000000000000000000000000000000000000000000004a03ce68d215555000000000000000000000000f5fff180082d6017036b771ba883025c654bc9356a9705b400000000000000000000000000000000000000000000000000000000000000000000000000000000000000000000000000000000000000005e1fcbda000000000000000000000000000000000000000000000000000000c9eedb960c",
            "debugEnable": true,
            "errorInfo": "",
            "eventCount": 3,
            "feeRecipient": "0x829bd824b016326a401d083b33d092293333a830",
            "formatValue": "0",
            "gasLimit": 500000,
            "gasPrice": "9",
            "gasUsed": 136688,
            "intTxnCount": 1,
            "internalRevert": false,
            "internalRevertMessage": "",
            "isContractCreation": false,
            "isFlashloan": false,
            "maxFee": "",
            "nonce": 53362,
            "overwritedBlockNumber": -1,
            "priorityFee": "",
            "receiver": "0x79c6e11be1c1ed4d91fbe05d458195a2677f14a5",
            "revertMessage": "",
            "sender": "0x6a9dec02a37f08a7420186c8d273221fd462f7e8",
            "simulationEnable": true,
            "sourceTxnHash": "0x75ed4d429c0f1a8afa4be73be23050a9e9176c28321be50323273a628d6b28ca",
            "status": true,
            "timestamp": "2020-01-16T02:30:56Z",
            "transactionFee": "0.001230192",
            "txnHash": "0x75ed4d429c0f1a8afa4be73be23050a9e9176c28321be50323273a628d6b28ca",
            "txnIndex": 57,
            "type": 0,
            "value": "0"
        },
        "fund_flow": [],
        "token_infos": [
            {
                "address": "0xc02aaa39b223fe8d0a0e5c4f27ead9083c756cc2",
                "decimals": 18
            },
            {
                "address": "0xeeeeeeeeeeeeeeeeeeeeeeeeeeeeeeeeeeeeeeee",
                "decimals": 18
            }
        ]
    },
    "address_label": {
        "labels": [
            {
                "address": "0xf5fff180082d6017036b771ba883025c654bc935",
                "label": "Chainlink: BTC / USD Aggregator"
            },
            {
                "address": "0x79c6e11be1c1ed4d91fbe05d458195a2677f14a5",
                "label": "Oracle"
            },
            {
                "address": "0x0000000000000000000000000000000000000001",
                "label": "Precompiled"
            },
            {
                "address": "0x0000000000000000000000000000000000000002",
                "label": "Precompiled"
            },
            {
                "address": "0x0000000000000000000000000000000000000003",
                "label": "Precompiled"
            },
            {
                "address": "0x0000000000000000000000000000000000000004",
                "label": "Precompiled"
            },
            {
                "address": "0xeeeeeeeeeeeeeeeeeeeeeeeeeeeeeeeeeeeeeeee",
                "label": "Ether"
            }
        ]
    },
    "trace": {
        "accountLabels": null,
        "dataMap": {
            "-1": {
                "invocation": {
                    "address": "0x6a9dec02a37f08a7420186c8d273221fd462f7e8",
                    "callData": "",
                    "decodedMethod": null,
                    "errorInfo": "",
                    "fromAddress": "",
                    "gasUsed": 0,
                    "id": -1,
                    "methodDecoded": false,
                    "operation": "",
                    "output": "",
                    "revert": false,
                    "revertMessage": "",
                    "selector": "",
                    "status": false,
                    "value": ""
                },
                "nodeType": 0
            },
            "0": {
                "invocation": {
                    "address": "0x79c6e11be1c1ed4d91fbe05d458195a2677f14a5",
                    "callData": "0x9b19d7643602ba92a1ba3236da9d57c1176b63b708f2042b6a47f12475d3ffbb00000000000000000000000000000000000000000000000004a03ce68d215555000000000000000000000000f5fff180082d6017036b771ba883025c654bc9356a9705b400000000000000000000000000000000000000000000000000000000000000000000000000000000000000000000000000000000000000005e1fcbda000000000000000000000000000000000000000000000000000000c9eedb960c",
                    "decodedMethod": {
                        "callParams": [
                            {
                                "name": "_requestId",
                                "type": "bytes32",
                                "value": "0x9b19d7643602ba92a1ba3236da9d57c1176b63b708f2042b6a47f12475d3ffbb"
                            },
                            {
                                "name": "_payment",
                                "type": "uint256",
                                "value": "333,333,333,333,333,333"
                            },
                            {
                                "name": "_callbackAddress",
                                "type": "address",
                                "value": "0xf5fff180082d6017036b771ba883025c654bc935"
                            },
                            {
                                "name": "_callbackFunctionId",
                                "type": "bytes4",
                                "value": "0x6a9705b4"
                            },
                            {
                                "name": "_expiration",
                                "type": "uint256",
                                "value": "1,579,142,106"
                            },
                            {
                                "name": "_data",
                                "type": "bytes32",
                                "value": "0x000000000000000000000000000000000000000000000000000000c9eedb960c"
                            }
                        ],
                        "constructorArguments": "",
                        "name": "fulfillOracleRequest",
                        "returnParams": [
                            {
                                "name": "",
                                "type": "bool",
                                "value": true
                            }
                        ],
                        "signature": "fulfillOracleRequest(bytes32,uint256,address,bytes4,uint256,bytes32)"
                    },
                    "errorInfo": "",
                    "fromAddress": "0x6a9dec02a37f08a7420186c8d273221fd462f7e8",
                    "gasUsed": 136688,
                    "id": 0,
                    "methodDecoded": true,
                    "operation": "CALL",
                    "output": "0x0000000000000000000000000000000000000000000000000000000000000001",
                    "revert": false,
                    "revertMessage": "",
                    "selector": "0x4ab0d190",
                    "status": true,
                    "value": "0"
                },
                "nodeType": 0
            },
            "1": {
                "invocation": {
                    "address": "0xf5fff180082d6017036b771ba883025c654bc935",
                    "callData": "0x9b19d7643602ba92a1ba3236da9d57c1176b63b708f2042b6a47f12475d3ffbb000000000000000000000000000000000000000000000000000000c9eedb960c",
                    "decodedMethod": {
                        "callParams": [
                            {
                                "name": "_clRequestId",
                                "type": "bytes32",
                                "value": "0x9b19d7643602ba92a1ba3236da9d57c1176b63b708f2042b6a47f12475d3ffbb"
                            },
                            {
                                "name": "_response",
                                "type": "int256",
                                "value": "867,295,794,700"
                            }
                        ],
                        "constructorArguments": "",
                        "name": "chainlinkCallback",
                        "returnParams": [],
                        "signature": "chainlinkCallback(bytes32,int256)"
                    },
                    "errorInfo": "",
                    "fromAddress": "0x79c6e11be1c1ed4d91fbe05d458195a2677f14a5",
                    "gasUsed": 234862,
                    "id": 1,
                    "methodDecoded": true,
                    "operation": "CALL",
                    "output": "",
                    "revert": false,
                    "revertMessage": "",
                    "selector": "0x6a9705b4",
                    "status": true,
                    "value": "0"
                },
                "nodeType": 0
            },
            "2": {
                "event": {
                    "contract": "0xf5fff180082d6017036b771ba883025c654bc935",
                    "decodedLog": {
                        "name": "ChainlinkFulfilled",
                        "params": [
                            {
                                "name": "id",
                                "type": "bytes32",
                                "value": "0x9b19d7643602ba92a1ba3236da9d57c1176b63b708f2042b6a47f12475d3ffbb"
                            }
                        ],
                        "signature": "ChainlinkFulfilled(bytes32)"
                    },
                    "id": 2,
                    "logData": "0x",
                    "logDecoded": true,
                    "operation": "EVENT",
                    "revert": false,
                    "status": true,
                    "topics": [
                        "0x7cc135e0cebb02c3480ae5d74d377283180a2601f8f644edf7987b009316c63a",
                        "0x9b19d7643602ba92a1ba3236da9d57c1176b63b708f2042b6a47f12475d3ffbb"
                    ]
                },
                "nodeType": 1
            },
            "3": {
                "event": {
                    "contract": "0xf5fff180082d6017036b771ba883025c654bc935",
                    "decodedLog": {
                        "name": "ResponseReceived",
                        "params": [
                            {
                                "name": "response",
                                "type": "int256",
                                "value": "867,295,794,700"
                            },
                            {
                                "name": "answerId",
                                "type": "uint256",
                                "value": "5,222"
                            },
                            {
                                "name": "sender",
                                "type": "address",
                                "value": "0x79c6e11be1c1ed4d91fbe05d458195a2677f14a5"
                            }
                        ],
                        "signature": "ResponseReceived(int256,uint256,address)"
                    },
                    "id": 3,
                    "logData": "0x",
                    "logDecoded": true,
                    "operation": "EVENT",
                    "revert": false,
                    "status": true,
                    "topics": [
                        "0xb51168059c83c860caf5b830c5d2e64c2172c6fb2fe9f25447d9838e18d93b60",
                        "0x000000000000000000000000000000000000000000000000000000c9eedb960c",
                        "0x0000000000000000000000000000000000000000000000000000000000001466",
                        "0x00000000000000000000000079c6e11be1c1ed4d91fbe05d458195a2677f14a5"
                    ]
                },
                "nodeType": 1
            },
            "4": {
                "event": {
                    "contract": "0xf5fff180082d6017036b771ba883025c654bc935",
                    "decodedLog": {
                        "name": "AnswerUpdated",
                        "params": [
                            {
                                "name": "current",
                                "type": "int256",
                                "value": "866,644,897,350"
                            },
                            {
                                "name": "roundId",
                                "type": "uint256",
                                "value": "5,222"
                            },
                            {
                                "name": "timestamp",
                                "type": "uint256",
                                "value": "1,579,141,856"
                            }
                        ],
                        "signature": "AnswerUpdated(int256,uint256,uint256)"
                    },
                    "id": 4,
                    "logData": "0x000000000000000000000000000000000000000000000000000000005e1fcae0",
                    "logDecoded": true,
                    "operation": "EVENT",
                    "revert": false,
                    "status": true,
                    "topics": [
                        "0x0559884fd3a460db3073b7fc896cc77986f16e378210ded43186175bf646fc5f",
                        "0x000000000000000000000000000000000000000000000000000000c9c80fae46",
                        "0x0000000000000000000000000000000000000000000000000000000000001466"
                    ]
                },
                "nodeType": 1
            }
        },
        "gasFlame": [
            {
                "children": [
                    {
                        "children": [
                            {
                                "children": [],
                                "depth": 0,
                                "name": "Initial Gas",
                                "value": 22708
                            },
                            {
                                "children": [
                                    {
                                        "children": [],
                                        "depth": 1,
                                        "name": "chainlinkCallback",
                                        "value": 234862
                                    }
                                ],
                                "depth": 0,
                                "name": "Executed Gas",
                                "value": 250668
                            }
                        ],
                        "depth": -1,
                        "name": "Actual Gas Used",
                        "value": 136688
                    },
                    {
                        "children": [],
                        "depth": -1,
                        "name": "Refunded Gas",
                        "value": 136688
                    }
                ],
                "depth": -2,
                "name": "Total Gas",
                "value": 273376
            }
        ],
        "isConfirmed": true,
        "mainTrace": [
            {
                "children": [
                    {
                        "children": [
                            {
                                "children": [
                                    {
                                        "children": [],
                                        "depth": 2,
                                        "id": 2,
                                        "order": 2
                                    },
                                    {
                                        "children": [],
                                        "depth": 2,
                                        "id": 3,
                                        "order": 3
                                    },
                                    {
                                        "children": [],
                                        "depth": 2,
                                        "id": 4,
                                        "order": 4
                                    }
                                ],
                                "depth": 1,
                                "id": 1,
                                "order": 1
                            }
                        ],
                        "depth": 0,
                        "id": 0,
                        "order": 0
                    }
                ],
                "depth": -1,
                "id": -1,
                "order": -1
            }
        ],
        "mainTraceNodeCount": 5,
        "parentIdMap": {
            "0": -1,
            "1": 0,
            "2": 1,
            "3": 1,
            "4": 1
        },
        "tidyTrace": [
            {
                "children": [
                    {
                        "children": [
                            {
                                "children": [
                                    {
                                        "children": [],
                                        "depth": 2,
                                        "id": 2,
                                        "order": 2
                                    },
                                    {
                                        "children": [],
                                        "depth": 2,
                                        "id": 3,
                                        "order": 3
                                    },
                                    {
                                        "children": [],
                                        "depth": 2,
                                        "id": 4,
                                        "order": 4
                                    }
                                ],
                                "depth": 1,
                                "id": 1,
                                "order": 1
                            }
                        ],
                        "depth": 0,
                        "id": 0,
                        "order": 0
                    }
                ],
                "depth": -1,
                "id": -1,
                "order": -1
            }
        ],
        "tidyTraceNodeCount": 5
    },
    "state_change": {
        "stateChanges": [
            {
                "address": "0x79c6e11be1c1ed4d91fbe05d458195a2677f14a5",
                "erc": "",
                "slots": [
                    {
                        "current": "0x00000000000000000000000000000000000000000000002f32be01bf6319147e",
                        "key": "0x0000000000000000000000000000000000000000000000000000000000000004",
                        "prev": "0x00000000000000000000000000000000000000000000002f2e1dc4d8d5f7bf29"
                    },
                    {
                        "current": "0x0000000000000000000000000000000000000000000000000000000000000000",
                        "key": "0x7daba98d35195900986c0b8bc2b27d8ba3a45282acacb5c9800a1e1ad09c3249",
                        "prev": "0x2bc86a6c21a0008f0be6e897fc2bfc6d41b34d9a258415a59404ecb061f12840"
                    }
                ],
                "storageVariables": [
                    {
                        "name": "commitments",
                        "type": "mapping(bytes32 => bytes32)",
                        "value": {
                            "pairs": [
                                {
                                    "key": "0x9b19d7643602ba92a1ba3236da9d57c1176b63b708f2042b6a47f12475d3ffbb",
                                    "value": {
                                        "current": "0x0000000000000000000000000000000000000000000000000000000000000000",
                                        "prev": "0x2bc86a6c21a0008f0be6e897fc2bfc6d41b34d9a258415a59404ecb061f12840",
                                        "typeTag": 1
                                    }
                                }
                            ],
                            "typeTag": 4
                        }
                    },
                    {
                        "name": "withdrawableTokens",
                        "type": "uint256",
                        "value": {
                            "current": "870653333333333316734",
                            "prev": "870319999999999983401",
                            "typeTag": 1
                        }
                    }
                ]
            },
            {
                "address": "0xf5fff180082d6017036b771ba883025c654bc935",
                "erc": "",
                "slots": [
                    {
                        "current": "0x0000000000000000000000000000000000000000000000000000000000000000",
                        "key": "0x5d7f612a1901c2a1ed766f6b2b927f43271083691e554fbab69ed7e14cb134d8",
                        "prev": "0x000000000000000000000000000000000000000000000000000000ca278bcbd4"
                    },
                    {
                        "current": "0x0000000000000000000000000000000000000000000000000000000000000000",
                        "key": "0x5d7f612a1901c2a1ed766f6b2b927f43271083691e554fbab69ed7e14cb134d3",
                        "prev": "0x000000000000000000000000000000000000000000000000000000ca278bcbd4"
                    },
                    {
                        "current": "0x0000000000000000000000000000000000000000000000000000000000000000",
                        "key": "0x5d7f612a1901c2a1ed766f6b2b927f43271083691e554fbab69ed7e14cb134cd",
                        "prev": "0x000000000000000000000000000000000000000000000000000000ca091e5518"
                    },
                    {
                        "current": "0x0000000000000000000000000000000000000000000000000000000000000000",
                        "key": "0x5d7f612a1901c2a1ed766f6b2b927f43271083691e554fbab69ed7e14cb134d0",
                        "prev": "0x000000000000000000000000000000000000000000000000000000c96c25192c"
                    },
                    {
                        "current": "0x0000000000000000000000000000000000000000000000000000000000000000",
                        "key": "0x5d7f612a1901c2a1ed766f6b2b927f43271083691e554fbab69ed7e14cb134d6",
                        "prev": "0x000000000000000000000000000000000000000000000000000000ca278bcbd4"
                    },
                    {
                        "current": "0x0000000000000000000000000000000000000000000000000000000000000000",
                        "key": "0x5d7f612a1901c2a1ed766f6b2b927f43271083691e554fbab69ed7e14cb134d1",
                        "prev": "0x000000000000000000000000000000000000000000000000000000c94be1b60c"
                    },
                    {
                        "current": "0x0000000000000000000000000000000000000000000000000000000000000000",
                        "key": "0x5d7f612a1901c2a1ed766f6b2b927f43271083691e554fbab69ed7e14cb134cb",
                        "prev": "0x000000000000000000000000000000000000000000000000000000c9a143c680"
                    },
                    {
                        "current": "0x0000000000000000000000000000000000000000000000000000000000000000",
                        "key": "0x7879bd4cfad5275c05619e1b19e6888b321e973e7177c4c9d25b73e57cc8258a",
                        "prev": "0x0000000000000000000000000000000000000000000000000000000000001466"
                    },
                    {
                        "current": "0x0000000000000000000000000000000000000000000000000000000000000000",
                        "key": "0x5d7f612a1901c2a1ed766f6b2b927f43271083691e554fbab69ed7e14cb134d2",
                        "prev": "0x000000000000000000000000000000000000000000000000000000ca091e5518"
                    },
                    {
                        "current": "0x0000000000000000000000000000000000000000000000000000000000000000",
                        "key": "0x5d7f612a1901c2a1ed766f6b2b927f43271083691e554fbab69ed7e14cb134c9",
                        "prev": "0x000000000000000000000000000000000000000000000000000000c99da40a80"
                    },
                    {
                        "current": "0x0000000000000000000000000000000000000000000000000000000000000000",
                        "key": "0x369336bcc905d3a07106337a2052622d8cbed9453f369cd91e80b78c95293a1b",
                        "prev": "0x000000000000000000000000000000120000000000000000000000000000000e"
                    },
                    {
                        "current": "0x0000000000000000000000000000000000000000000000000000000000000000",
                        "key": "0x5d7f612a1901c2a1ed766f6b2b927f43271083691e554fbab69ed7e14cb134d7",
                        "prev": "0x000000000000000000000000000000000000000000000000000000c99da40a80"
                    },
                    {
                        "current": "0x0000000000000000000000000000000000000000000000000000000000000000",
                        "key": "0x8270869121f0191d79bfcd32496b8d13ec194c5f8964c41ea4c050e314ae6ca8",
                        "prev": "0x00000000000000000000000079c6e11be1c1ed4d91fbe05d458195a2677f14a5"
                    },
                    {
                        "current": "0x0000000000000000000000000000000000000000000000000000000000000000",
                        "key": "0x369336bcc905d3a07106337a2052622d8cbed9453f369cd91e80b78c95293a1c",
                        "prev": "0x0000000000000000000000000000000000000000000000000000000000000011"
                    },
                    {
                        "current": "0x000000000000000000000000000000000000000000000000000000c9c80fae46",
                        "key": "0xf85a70f26a13d546f8b8271a26a1f934ecb9f88a15617f3d365a273f5e85b8de",
                        "prev": "0x000000000000000000000000000000000000000000000000000000c9a143c680"
                    },
                    {
                        "current": "0x0000000000000000000000000000000000000000000000000000000000000000",
                        "key": "0x5d7f612a1901c2a1ed766f6b2b927f43271083691e554fbab69ed7e14cb134cf",
                        "prev": "0x000000000000000000000000000000000000000000000000000000ca0f98e804"
                    },
                    {
                        "current": "0x0000000000000000000000000000000000000000000000000000000000000000",
                        "key": "0x5d7f612a1901c2a1ed766f6b2b927f43271083691e554fbab69ed7e14cb134d4",
                        "prev": "0x000000000000000000000000000000000000000000000000000000c9eedb960c"
                    },
                    {
                        "current": "0x0000000000000000000000000000000000000000000000000000000000000000",
                        "key": "0x5d7f612a1901c2a1ed766f6b2b927f43271083691e554fbab69ed7e14cb134d5",
                        "prev": "0x000000000000000000000000000000000000000000000000000000c96346a280"
                    },
                    {
                        "current": "0x000000000000000000000000000000000000000000000000000000c9c80fae46",
                        "key": "0x0000000000000000000000000000000000000000000000000000000000000007",
                        "prev": "0x000000000000000000000000000000000000000000000000000000c9a143c680"
                    },
                    {
                        "current": "0x0000000000000000000000000000000000000000000000000000000000000000",
                        "key": "0x5d7f612a1901c2a1ed766f6b2b927f43271083691e554fbab69ed7e14cb134ca",
                        "prev": "0x000000000000000000000000000000000000000000000000000000c9eedb960c"
                    },
                    {
                        "current": "0x0000000000000000000000000000000000000000000000000000000000000000",
                        "key": "0x5d7f612a1901c2a1ed766f6b2b927f43271083691e554fbab69ed7e14cb134ce",
                        "prev": "0x000000000000000000000000000000000000000000000000000000c9a143c680"
                    },
                    {
                        "current": "0x0000000000000000000000000000000000000000000000000000000000000000",
                        "key": "0x5d7f612a1901c2a1ed766f6b2b927f43271083691e554fbab69ed7e14cb134d9",
                        "prev": "0x000000000000000000000000000000000000000000000000000000c99da40a80"
                    },
                    {
                        "current": "0x0000000000000000000000000000000000000000000000000000000000000000",
                        "key": "0x5d7f612a1901c2a1ed766f6b2b927f43271083691e554fbab69ed7e14cb134cc",
                        "prev": "0x000000000000000000000000000000000000000000000000000000c9a143c680"
                    }
                ],
                "storageVariables": [
                    {
                        "name": "answers",
                        "type": "mapping(uint256 => struct Aggregator.Answer)",
                        "value": {
                            "pairs": [
                                {
                                    "key": "5222",
                                    "value": {
                                        "fields": [
                                            {
                                                "name": "minimumResponses",
                                                "type": "uint128",
                                                "value": {
                                                    "current": "0",
                                                    "prev": "14",
                                                    "typeTag": 1
                                                }
                                            },
                                            {
                                                "name": "maxResponses",
                                                "type": "uint128",
                                                "value": {
                                                    "current": "0",
                                                    "prev": "18",
                                                    "typeTag": 1
                                                }
                                            }
                                        ],
                                        "typeTag": 3
                                    }
                                }
                            ],
                            "typeTag": 4
                        }
                    },
                    {
                        "name": "pendingRequests",
                        "type": "mapping(bytes32 => address)",
                        "value": {
                            "pairs": [
                                {
                                    "key": "0x9b19d7643602ba92a1ba3236da9d57c1176b63b708f2042b6a47f12475d3ffbb",
                                    "value": {
                                        "current": "0x0000000000000000000000000000000000000000",
                                        "prev": "0x79c6e11be1c1ed4d91fbe05d458195a2677f14a5",
                                        "typeTag": 1
                                    }
                                }
                            ],
                            "typeTag": 4
                        }
                    },
                    {
                        "name": "currentAnswerValue",
                        "type": "int256",
                        "value": {
                            "current": "866644897350",
                            "prev": "865994000000",
                            "typeTag": 1
                        }
                    },
                    {
                        "name": "requestAnswers",
                        "type": "mapping(bytes32 => uint256)",
                        "value": {
                            "pairs": [
                                {
                                    "key": "0x9b19d7643602ba92a1ba3236da9d57c1176b63b708f2042b6a47f12475d3ffbb",
                                    "value": {
                                        "current": "0",
                                        "prev": "5222",
                                        "typeTag": 1
                                    }
                                }
                            ],
                            "typeTag": 4
                        }
                    },
                    {
                        "name": "currentAnswers",
                        "type": "mapping(uint256 => int256)",
                        "value": {
                            "pairs": [
                                {
                                    "key": "5222",
                                    "value": {
                                        "current": "866644897350",
                                        "prev": "865994000000",
                                        "typeTag": 1
                                    }
                                }
                            ],
                            "typeTag": 4
                        }
                    }
                ]
            }
        ]
    }
}