{
    "balance_change": {
        "balanceChanges": []
    },
    "profile": {
        "basic_info": {
            "baseFee": "",
            "blockNumber": 5318177,
            "callData": "0xef343588000000000000000000000000000000000000000000000000031e78f4fb6299ff00000000000000000000000000000000000000000000008763c669ad8a160000000000000000000000000000000000000000000000000000000000000002e63000000000000000000000000000000000000000000000000000000000000011ae00000000000000000000000000000000000000000000000000ffc457b2ab7fff000000000000000000000000000000000000000000000000000000000000000100000000000000000000000000000000000000000000000000038d7ea4c6800000000000000000000000000000000000000000000000000000aee41f75c8a7b300000000000000000000000000000000000000000000000000000000000000000000000000000000000000001b957dc4aefeed3b4a2351a6a6d5cbfbba0cecfa000000000000000000000000b20b89a8088371fd3f063c74336c891e0bd3f2af0000000000000000000000003de757f646563786b69996a0b2142d9d99b89b4b000000000000000000000000000000000000000000000000000000000000001c000000000000000000000000000000000000000000000000000000000000001bf739540df4ba9f7c1dd8432790ec456f1edef5b0d9c6c315bfbd34b30e85d00119af99a7c6c73bff170f4489014e024906c6053f6140e571e17c7f05b6849195918810d2859b6275f3dd85fc8c263e1ccec49a23579f52ca00b829bb4e1496c93320f60ea7b73239042e5ba63dab78883f596ab0d564034cbe217d73bc8decaf",
            "debugEnable": true,
            "errorInfo": "",
            "eventCount": 0,
            "feeRecipient": "0x84990f5d2e09f56cabdabf6409ad31bdd8363b50",
            "formatValue": "0",
            "gasLimit": 260000,
            "gasPrice": "20",
            "gasUsed": 157580,
            "intTxnCount": 2,
            "internalRevert": false,
            "internalRevertMessage": "",
            "isContractCreation": false,
            "isFlashloan": false,
            "maxFee": "",
            "nonce": 750322,
            "overwritedBlockNumber": -1,
            "priorityFee": "",
            "receiver": "0x2a0c0dbecc7e4d658f48e01e3fa353f44050c208",
            "revertMessage": "",
            "sender": "0xceceaa8edc0830c7cec497e33bb3a3c28dd55a32",
            "simulationEnable": true,
            "sourceTxnHash": "0x75827bcc673d6bc00bbfab79bb72f8ce4d8a711eabfbc22efac004bb08ab95ae",
            "status": true,
            "timestamp": "2018-03-25T08:32:32Z",
            "transactionFee": "0.0031516",
            "txnHash": "0x75827bcc673d6bc00bbfab79bb72f8ce4d8a711eabfbc22efac004bb08ab95ae",
            "txnIndex": 30,
            "type": 0,
            "value": "0"
        },
        "fund_flow": [],
        "token_infos": [
            {
                "address": "0xeeeeeeeeeeeeeeeeeeeeeeeeeeeeeeeeeeeeeeee",
                "decimals": 18
            },
            {
                "address": "0xc02aaa39b223fe8d0a0e5c4f27ead9083c756cc2",
                "decimals": 18
            }
        ]
    },
    "address_label": {
        "labels": [
            {
                "address": "0x2a0c0dbecc7e4d658f48e01e3fa353f44050c208",
                "label": "IDEX"
            },
            {
                "address": "0x0000000000000000000000000000000000000001",
                "label": "Precompiled"
            },
            {
                "address": "0x0000000000000000000000000000000000000002",
                "label": "Precompiled"
            },
            {
                "address": "0x0000000000000000000000000000000000000003",
                "label": "Precompiled"
            },
            {
                "address": "0x0000000000000000000000000000000000000004",
                "label": "Precompiled"
            },
            {
                "address": "0xeeeeeeeeeeeeeeeeeeeeeeeeeeeeeeeeeeeeeeee",
                "label": "Ether"
            },
            {
                "address": "0x1b957dc4aefeed3b4a2351a6a6d5cbfbba0cecfa",
                "label": "HOQU Token"
            },
            {
                "address": "0x0000000000000000000000000000000000000000",
                "label": "Null Address"
            }
        ]
    },
    "trace": {
        "accountLabels": null,
        "dataMap": {
            "-1": {
                "invocation": {
                    "address": "0xceceaa8edc0830c7cec497e33bb3a3c28dd55a32",
                    "callData": "",
                    "decodedMethod": null,
                    "errorInfo": "",
                    "fromAddress": "",
                    "gasUsed": 0,
                    "id": -1,
                    "methodDecoded": false,
                    "operation": "",
                    "output": "",
                    "revert": false,
                    "revertMessage": "",
                    "selector": "",
                    "status": false,
                    "value": ""
                },
                "nodeType": 0
            },
            "0": {
                "invocation": {
                    "address": "0x2a0c0dbecc7e4d658f48e01e3fa353f44050c208",
                    "callData": "0x000000000000000000000000000000000000000000000000031e78f4fb6299ff00000000000000000000000000000000000000000000008763c669ad8a160000000000000000000000000000000000000000000000000000000000000002e63000000000000000000000000000000000000000000000000000000000000011ae00000000000000000000000000000000000000000000000000ffc457b2ab7fff000000000000000000000000000000000000000000000000000000000000000100000000000000000000000000000000000000000000000000038d7ea4c6800000000000000000000000000000000000000000000000000000aee41f75c8a7b300000000000000000000000000000000000000000000000000000000000000000000000000000000000000001b957dc4aefeed3b4a2351a6a6d5cbfbba0cecfa000000000000000000000000b20b89a8088371fd3f063c74336c891e0bd3f2af0000000000000000000000003de757f646563786b69996a0b2142d9d99b89b4b000000000000000000000000000000000000000000000000000000000000001c000000000000000000000000000000000000000000000000000000000000001bf739540df4ba9f7c1dd8432790ec456f1edef5b0d9c6c315bfbd34b30e85d00119af99a7c6c73bff170f4489014e024906c6053f6140e571e17c7f05b6849195918810d2859b6275f3dd85fc8c263e1ccec49a23579f52ca00b829bb4e1496c93320f60ea7b73239042e5ba63dab78883f596ab0d564034cbe217d73bc8decaf",
                    "decodedMethod": {
                        "callParams": [
                            {
                                "name": "tradeValues",
                                "type": "uint256[8]",
                                "value": [
                                    "224,750,024,999,999,999",
                                    "2,497,500,000,000,000,000,000",
                                    "190,000",
                                    "4,526",
                                    "71,991,999,999,999,999",
                                    "1",
                                    "1,000,000,000,000,000",
                                    "49,227,469,718,857,651"
                                ]
                            },
                            {
                                "name": "tradeAddresses",
                                "type": "address[4]",
                                "value": [
                                    "0x0000000000000000000000000000000000000000",
                                    "0x1b957dc4aefeed3b4a2351a6a6d5cbfbba0cecfa",
                                    "0xb20b89a8088371fd3f063c74336c891e0bd3f2af",
                                    "0x3de757f646563786b69996a0b2142d9d99b89b4b"
                                ]
                            },
                            {
                                "name": "v",
                                "type": "uint8[2]",
                                "value": [
                                    "28",
                                    "27"
                                ]
                            },
                            {
                                "name": "rs",
                                "type": "bytes32[4]",
                                "value": [
                                    "0xf739540df4ba9f7c1dd8432790ec456f1edef5b0d9c6c315bfbd34b30e85d001",
                                    "0x19af99a7c6c73bff170f4489014e024906c6053f6140e571e17c7f05b6849195",
                                    "0x918810d2859b6275f3dd85fc8c263e1ccec49a23579f52ca00b829bb4e1496c9",
                                    "0x3320f60ea7b73239042e5ba63dab78883f596ab0d564034cbe217d73bc8decaf"
                                ]
                            }
                        ],
                        "constructorArguments": "",
                        "name": "trade",
                        "returnParams": [
                            {
                                "name": "success",
                                "type": "bool",
                                "value": false
                            }
                        ],
                        "signature": "trade(uint256[8],address[4],uint8[2],bytes32[4])"
                    },
                    "errorInfo": "",
                    "fromAddress": "0xceceaa8edc0830c7cec497e33bb3a3c28dd55a32",
                    "gasUsed": 157580,
                    "id": 0,
                    "methodDecoded": true,
                    "operation": "CALL",
                    "output": "0x0000000000000000000000000000000000000000000000000000000000000000",
                    "revert": false,
                    "revertMessage": "",
                    "selector": "0xef343588",
                    "status": true,
                    "value": "0"
                },
                "nodeType": 0
            },
            "1": {
                "invocation": {
                    "address": "0x0000000000000000000000000000000000000001",
                    "callData": "0x3470e9daa10bbfcb7e91e97ba78af107b0832f29f2d6e82034b54024000000000000000000000000000000000000000000000000000000000000001cf739540df4ba9f7c1dd8432790ec456f1edef5b0d9c6c315bfbd34b30e85d00119af99a7c6c73bff170f4489014e024906c6053f6140e571e17c7f05b6849195",
                    "decodedMethod": {
                        "callParams": [
                            {
                                "name": "hash",
                                "type": "bytes32",
                                "value": "0x41988b883470e9daa10bbfcb7e91e97ba78af107b0832f29f2d6e82034b54024"
                            },
                            {
                                "name": "v",
                                "type": "uint256",
                                "value": "28"
                            },
                            {
                                "name": "r",
                                "type": "bytes32",
                                "value": "0xf739540df4ba9f7c1dd8432790ec456f1edef5b0d9c6c315bfbd34b30e85d001"
                            },
                            {
                                "name": "s",
                                "type": "bytes32",
                                "value": "0x19af99a7c6c73bff170f4489014e024906c6053f6140e571e17c7f05b6849195"
                            }
                        ],
                        "constructorArguments": "",
                        "name": "ecrecover",
                        "returnParams": [
                            {
                                "name": "",
                                "type": "address",
                                "value": "0xb20b89a8088371fd3f063c74336c891e0bd3f2af"
                            }
                        ],
                        "signature": "ecrecover(bytes32,uint256,bytes32,bytes32)"
                    },
                    "errorInfo": "",
                    "fromAddress": "0x2a0c0dbecc7e4d658f48e01e3fa353f44050c208",
                    "gasUsed": 3000,
                    "id": 1,
                    "methodDecoded": true,
                    "operation": "CALL",
                    "output": "0x000000000000000000000000b20b89a8088371fd3f063c74336c891e0bd3f2af",
                    "revert": false,
                    "revertMessage": "",
                    "selector": "0x41988b88",
                    "status": true,
                    "value": "0"
                },
                "nodeType": 0
            },
            "2": {
                "invocation": {
                    "address": "0x0000000000000000000000000000000000000001",
                    "callData": "0xba97affb38253992119331eb729de91f9e4d3bac0a049b2ef135b890000000000000000000000000000000000000000000000000000000000000001b918810d2859b6275f3dd85fc8c263e1ccec49a23579f52ca00b829bb4e1496c93320f60ea7b73239042e5ba63dab78883f596ab0d564034cbe217d73bc8decaf",
                    "decodedMethod": {
                        "callParams": [
                            {
                                "name": "hash",
                                "type": "bytes32",
                                "value": "0x3b235d50ba97affb38253992119331eb729de91f9e4d3bac0a049b2ef135b890"
                            },
                            {
                                "name": "v",
                                "type": "uint256",
                                "value": "27"
                            },
                            {
                                "name": "r",
                                "type": "bytes32",
                                "value": "0x918810d2859b6275f3dd85fc8c263e1ccec49a23579f52ca00b829bb4e1496c9"
                            },
                            {
                                "name": "s",
                                "type": "bytes32",
                                "value": "0x3320f60ea7b73239042e5ba63dab78883f596ab0d564034cbe217d73bc8decaf"
                            }
                        ],
                        "constructorArguments": "",
                        "name": "ecrecover",
                        "returnParams": [
                            {
                                "name": "",
                                "type": "address",
                                "value": "0x3de757f646563786b69996a0b2142d9d99b89b4b"
                            }
                        ],
                        "signature": "ecrecover(bytes32,uint256,bytes32,bytes32)"
                    },
                    "errorInfo": "",
                    "fromAddress": "0x2a0c0dbecc7e4d658f48e01e3fa353f44050c208",
                    "gasUsed": 3000,
                    "id": 2,
                    "methodDecoded": true,
                    "operation": "CALL",
                    "output": "0x0000000000000000000000003de757f646563786b69996a0b2142d9d99b89b4b",
                    "revert": false,
                    "revertMessage": "",
                    "selector": "0x3b235d50",
                    "status": true,
                    "value": "0"
                },
                "nodeType": 0
            }
        },
        "gasFlame": [
            {
                "children": [
                    {
                        "children": [
                            {
                                "children": [],
                                "depth": 0,
                                "name": "Initial Gas",
                                "value": 38296
                            },
                            {
                                "children": [
                                    {
                                        "children": [],
                                        "depth": 1,
                                        "name": "ecrecover",
                                        "value": 3000
                                    },
                                    {
                                        "children": [],
                                        "depth": 1,
                                        "name": "ecrecover",
                                        "value": 3000
                                    }
                                ],
                                "depth": 0,
                                "name": "Executed Gas",
                                "value": 119284
                            }
                        ],
                        "depth": -1,
                        "name": "Actual Gas Used",
                        "value": 157580
                    },
                    {
                        "children": [],
                        "depth": -1,
                        "name": "Refunded Gas",
                        "value": 0
                    }
                ],
                "depth": -2,
                "name": "Total Gas",
                "value": 157580
            }
        ],
        "isConfirmed": true,
        "mainTrace": [
            {
                "children": [
                    {
                        "children": [
                            {
                                "children": [],
                                "depth": 1,
                                "id": 1,
                                "order": 1
                            },
                            {
                                "children": [],
                                "depth": 1,
                                "id": 2,
                                "order": 2
                            }
                        ],
                        "depth": 0,
                        "id": 0,
                        "order": 0
                    }
                ],
                "depth": -1,
                "id": -1,
                "order": -1
            }
        ],
        "mainTraceNodeCount": 3,
        "parentIdMap": {
            "0": -1,
            "1": 0,
            "2": 0
        },
        "tidyTrace": [
            {
                "children": [
                    {
                        "children": [
                            {
                                "children": [],
                                "depth": 1,
                                "id": 1,
                                "order": 1
                            },
                            {
                                "children": [],
                                "depth": 1,
                                "id": 2,
                                "order": 2
                            }
                        ],
                        "depth": 0,
                        "id": 0,
                        "order": 0
                    }
                ],
                "depth": -1,
                "id": -1,
                "order": -1
            }
        ],
        "tidyTraceNodeCount": 3
    },
    "state_change": {
        "stateChanges": [
            {
                "address": "0x2a0c0dbecc7e4d658f48e01e3fa353f44050c208",
                "erc": "",
                "slots": [
                    {
                        "current": "0x000000000000000000000000000000000000000000000000020948a38422e401",
                        "key": "0x11ccf6ffe976883e5f90e66df813b6be97490ccd73d1288d749fb0e733a9e800",
                        "prev": "0x00000000000000000000000000000000000000000000000003090cfb36ce6400"
                    },
                    {
                        "current": "0x00000000000000000000000000000000000000000000000000ffc457b2ab7fff",
                        "key": "0x516337af7f6d2b21aa41998f68efe3bf6df0c5dfec5830f2fd4136e0910886d9",
                        "prev": "0x0000000000000000000000000000000000000000000000000000000000000000"
                    },
                    {
                        "current": "0x0000000000000000000000000000000000000000000000000000000000512621",
                        "key": "0x9530edc1e0fd2ea64c430c06505565c32b9cc3d7fc30da2eab786a228be6568a",
                        "prev": "0x0000000000000000000000000000000000000000000000000000000000512482"
                    },
                    {
                        "current": "0x0000000000000000000000000000000000000000000000c73bdce0c297ca481c",
                        "key": "0x7a0b58d0a652ba71a3b7ee85e61abcddcdc14d25c109d5b0c581c529663eb7aa",
                        "prev": "0x0000000000000000000000000000000000000000000000c51953fe7284be3a30"
                    },
                    {
                        "current": "0x0000000000000000000000000000000000000000000000002d81d353eec2dcb9",
                        "key": "0x2c10ea508f91f92119d5df21ba6d26eeffebcc6116c35f857e8a8b4eeb041eba",
                        "prev": "0x0000000000000000000000000000000000000000000000002c8250762dad8cba"
                    },
                    {
                        "current": "0x00000000000000000000000000000000000000000000001942950b8a9f023a1f",
                        "key": "0x3ccb72d91c5c66cba135a4135963ed23443b8a63817f501517468fcd5097e277",
                        "prev": "0x0000000000000000000000000000000000000000000000194294ca10ad6c0a20"
                    },
                    {
                        "current": "0x00000000000000000000000000000000000000000000005c058b784271961d81",
                        "key": "0xb86e9b15a1f3f9c607fdac55395467b26bdcb67f46836c033c272a149ad7c528",
                        "prev": "0x00000000000000000000000000000000000000000000008763c669ad8a160000"
                    },
                    {
                        "current": "0x0000000000000000000000000000000000000000000000293bb20f1b0573d492",
                        "key": "0x8643557611952a2d0368bb7bd44c6584c40341685cac9fd0e81625b9b5a4493d",
                        "prev": "0x0000000000000000000000000000000000000000000000000000000000000000"
                    },
                    {
                        "current": "0x0000000000000000000000000000000000000000000000000000000000512621",
                        "key": "0xefa8692fbd2659c47a2c61c0d3878afd8a8e0d6b95db5242e6c92468128317e8",
                        "prev": "0x0000000000000000000000000000000000000000000000000000000000512609"
                    },
                    {
                        "current": "0x0000000000000000000000000000000000000000000000000000000000000001",
                        "key": "0x580238d38e51959e8d079bda8766d0b1b8005e3742bfffeffec67d2c76995330",
                        "prev": "0x0000000000000000000000000000000000000000000000000000000000000000"
                    }
                ],
                "storageVariables": [
                    {
                        "name": "traded",
                        "type": "mapping(bytes32 => bool)",
                        "value": {
                            "pairs": [
                                {
                                    "key": "0xfda1b6d32c6872018ba106902b0c7f558db4ef0d32d6042b3b37d6e3c3ba7dcb",
                                    "value": {
                                        "current": "true",
                                        "prev": "false",
                                        "typeTag": 1
                                    }
                                }
                            ],
                            "typeTag": 4
                        }
                    },
                    {
                        "name": "lastActiveTransaction",
                        "type": "mapping(address => uint256)",
                        "value": {
                            "pairs": [
                                {
                                    "key": "0x3de757f646563786b69996a0b2142d9d99b89b4b",
                                    "value": {
                                        "current": "5318177",
                                        "prev": "5318153",
                                        "typeTag": 1
                                    }
                                },
                                {
                                    "key": "0xb20b89a8088371fd3f063c74336c891e0bd3f2af",
                                    "value": {
                                        "current": "5318177",
                                        "prev": "5317762",
                                        "typeTag": 1
                                    }
                                }
                            ],
                            "typeTag": 4
                        }
                    },
                    {
                        "name": "tokens",
                        "type": "mapping(address => mapping(address => uint256))",
                        "value": {
                            "pairs": [
                                {
                                    "key": "0x0000000000000000000000000000000000000000",
                                    "value": {
                                        "pairs": [
                                            {
                                                "key": "0x034767f3c519f361c5ecf46ebfc08981c629d381",
                                                "value": {
                                                    "current": "465966355510773037599",
                                                    "prev": "465966283518773037600",
                                                    "typeTag": 1
                                                }
                                            },
                                            {
                                                "key": "0x3de757f646563786b69996a0b2142d9d99b89b4b",
                                                "value": {
                                                    "current": "146728330000000001",
                                                    "prev": "218720330000000000",
                                                    "typeTag": 1
                                                }
                                            },
                                            {
                                                "key": "0xb20b89a8088371fd3f063c74336c891e0bd3f2af",
                                                "value": {
                                                    "current": "3279134361143925945",
                                                    "prev": "3207214353143925946",
                                                    "typeTag": 1
                                                }
                                            }
                                        ],
                                        "typeTag": 4
                                    }
                                },
                                {
                                    "key": "0x1b957dc4aefeed3b4a2351a6a6d5cbfbba0cecfa",
                                    "value": {
                                        "pairs": [
                                            {
                                                "key": "0x034767f3c519f361c5ecf46ebfc08981c629d381",
                                                "value": {
                                                    "current": "3675215640337689757724",
                                                    "prev": "3635833664562603637296",
                                                    "typeTag": 1
                                                }
                                            },
                                            {
                                                "key": "0x3de757f646563786b69996a0b2142d9d99b89b4b",
                                                "value": {
                                                    "current": "760618024224913872018",
                                                    "prev": "0",
                                                    "typeTag": 1
                                                }
                                            },
                                            {
                                                "key": "0xb20b89a8088371fd3f063c74336c891e0bd3f2af",
                                                "value": {
                                                    "current": "1697500000000000007553",
                                                    "prev": "2497500000000000000000",
                                                    "typeTag": 1
                                                }
                                            }
                                        ],
                                        "typeTag": 4
                                    }
                                }
                            ],
                            "typeTag": 4
                        }
                    },
                    {
                        "name": "orderFills",
                        "type": "mapping(bytes32 => uint256)",
                        "value": {
                            "pairs": [
                                {
                                    "key": "0xb21e5ab5dfddb603f36a1942b0194bbe8ed8d11d860a2306997e5ceb05a1da46",
                                    "value": {
                                        "current": "71991999999999999",
                                        "prev": "0",
                                        "typeTag": 1
                                    }
                                }
                            ],
                            "typeTag": 4
                        }
                    }
                ]
            }
        ]
    }
}