{
    "balance_change": {
        "balanceChanges": [
            {
                "account": "0x1631cd8983a2119556a5625cbf5592fa89c31b07",
                "assets": [
                    {
                        "address": "0xeeeeeeeeeeeeeeeeeeeeeeeeeeeeeeeeeeeeeeee",
                        "amount": "10.1",
                        "iconUrl": "https://assets.blocksec.com/image/1663669189317-3.png",
                        "isERC1155": false,
                        "isERC721": false,
                        "sign": false,
                        "value": ""
                    },
                    {
                        "address": "0x0316eb71485b0ab14103307bf65a021042c6d380",
                        "amount": "0.33582",
                        "iconUrl": "https://assets.blocksec.com/icon/4ca924be0e6bd14a7efe90cff0821a77c9378376939549eda45e986841fe57b8.png",
                        "isERC1155": false,
                        "isERC721": false,
                        "sign": false,
                        "value": ""
                    }
                ]
            },
            {
                "account": "0xc40d7b9ca90eaca4a6e067b6ec689fd29f4a8b3c",
                "assets": [
                    {
                        "address": "0x1f832091faf289ed4f50fe7418cfbd2611225d46",
                        "amount": "2",
                        "iconUrl": "",
                        "isERC1155": false,
                        "isERC721": false,
                        "sign": false,
                        "value": ""
                    },
                    {
                        "address": "0xeeeeeeeeeeeeeeeeeeeeeeeeeeeeeeeeeeeeeeee",
                        "amount": "10",
                        "iconUrl": "https://assets.blocksec.com/image/1663669189317-3.png",
                        "isERC1155": false,
                        "isERC721": false,
                        "sign": true,
                        "value": ""
                    },
                    {
                        "address": "0x0316eb71485b0ab14103307bf65a021042c6d380",
                        "amount": "0.33582",
                        "iconUrl": "https://assets.blocksec.com/icon/4ca924be0e6bd14a7efe90cff0821a77c9378376939549eda45e986841fe57b8.png",
                        "isERC1155": false,
                        "isERC721": false,
                        "sign": true,
                        "value": ""
                    }
                ]
            },
            {
                "account": "0x3ceefbbb0e6c60cf64db9d17b94917d6d78cec05",
                "assets": [
                    {
                        "address": "0x1f832091faf289ed4f50fe7418cfbd2611225d46",
                        "amount": "2",
                        "iconUrl": "",
                        "isERC1155": false,
                        "isERC721": false,
                        "sign": true,
                        "value": ""
                    }
                ]
            },
            {
                "account": "0x43121397631551357ea511e62163b76e39d44852",
                "assets": [
                    {
                        "address": "0xeeeeeeeeeeeeeeeeeeeeeeeeeeeeeeeeeeeeeeee",
                        "amount": "0.1",
                        "iconUrl": "https://assets.blocksec.com/image/1663669189317-3.png",
                        "isERC1155": false,
                        "isERC721": false,
                        "sign": true,
                        "value": ""
                    }
                ]
            }
        ]
    },
    "profile": {
        "basic_info": {
            "baseFee": "",
            "blockNumber": 10718229,
            "callData": "0xf6a4932f0000000000000000000000000000000000000000000000008ac7230489e8000000000000000000000000000000000000000000000000000004a91282c078c0000000000000000000000000000316eb71485b0ab14103307bf65a021042c6d380",
            "debugEnable": true,
            "errorInfo": "",
            "eventCount": 4,
            "feeRecipient": "0xd224ca0c819e8e97ba0136b3b95ceff503b79f53",
            "formatValue": "10.1",
            "gasLimit": 1200000,
            "gasPrice": "69.1152",
            "gasUsed": 487765,
            "intTxnCount": 21,
            "internalRevert": false,
            "internalRevertMessage": "",
            "isContractCreation": false,
            "isFlashloan": false,
            "maxFee": "",
            "nonce": 11417,
            "overwritedBlockNumber": -1,
            "priorityFee": "",
            "receiver": "0xc40d7b9ca90eaca4a6e067b6ec689fd29f4a8b3c",
            "revertMessage": "",
            "sender": "0x1631cd8983a2119556a5625cbf5592fa89c31b07",
            "simulationEnable": true,
            "sourceTxnHash": "0x7579d9306c614da10d963dbd228f8ceeb47d9dcb9d8e0bd7a32ca6b2da03ed86",
            "status": true,
            "timestamp": "2020-08-23T18:29:51Z",
            "transactionFee": "0.033711975528",
            "txnHash": "0x7579d9306c614da10d963dbd228f8ceeb47d9dcb9d8e0bd7a32ca6b2da03ed86",
            "txnIndex": 60,
            "type": 0,
            "value": "10100000000000000000"
        },
        "fund_flow": [
            {
                "amount": "10.1",
                "from": "0x1631cd8983a2119556a5625cbf5592fa89c31b07",
                "id": 1,
                "isERC1155": false,
                "isERC721": false,
                "isReverted": false,
                "order": 1,
                "to": "0xc40d7b9ca90eaca4a6e067b6ec689fd29f4a8b3c",
                "token": "0xeeeeeeeeeeeeeeeeeeeeeeeeeeeeeeeeeeeeeeee"
            },
            {
                "amount": "0.33582",
                "from": "0x1631cd8983a2119556a5625cbf5592fa89c31b07",
                "id": 2,
                "isERC1155": false,
                "isERC721": false,
                "isReverted": false,
                "order": 2,
                "to": "0xc40d7b9ca90eaca4a6e067b6ec689fd29f4a8b3c",
                "token": "0x0316eb71485b0ab14103307bf65a021042c6d380"
            },
            {
                "amount": "0.1",
                "from": "0xc40d7b9ca90eaca4a6e067b6ec689fd29f4a8b3c",
                "id": 3,
                "isERC1155": false,
                "isERC721": false,
                "isReverted": false,
                "order": 3,
                "to": "0x43121397631551357ea511e62163b76e39d44852",
                "token": "0xeeeeeeeeeeeeeeeeeeeeeeeeeeeeeeeeeeeeeeee"
            },
            {
                "amount": "2",
                "from": "0xc40d7b9ca90eaca4a6e067b6ec689fd29f4a8b3c",
                "id": 4,
                "isERC1155": false,
                "isERC721": false,
                "isReverted": false,
                "order": 4,
                "to": "0x3ceefbbb0e6c60cf64db9d17b94917d6d78cec05",
                "token": "0x1f832091faf289ed4f50fe7418cfbd2611225d46"
            }
        ],
        "token_infos": [
            {
                "address": "0x0316eb71485b0ab14103307bf65a021042c6d380",
                "decimals": 18
            },
            {
                "address": "0x1f832091faf289ed4f50fe7418cfbd2611225d46",
                "decimals": 18
            },
            {
                "address": "0xc02aaa39b223fe8d0a0e5c4f27ead9083c756cc2",
                "decimals": 18
            },
            {
                "address": "0xeeeeeeeeeeeeeeeeeeeeeeeeeeeeeeeeeeeeeeee",
                "decimals": 18
            }
        ]
    },
    "address_label": {
        "labels": [
            {
                "address": "0xf9dc75762fc000f3fb1cf88e7fcc32f9969ba003",
                "label": "Nest_NToken_TokenMapping"
            },
            {
                "address": "0x0000000000000000000000000000000000000003",
                "label": "Precompiled"
            },
            {
                "address": "0xeeeeeeeeeeeeeeeeeeeeeeeeeeeeeeeeeeeeeeee",
                "label": "Ether"
            },
            {
                "address": "0x6cd5698e8854fb6879d6b1c694223b389b465dea",
                "label": "NEST Protocol: Voting"
            },
            {
                "address": "0x0316eb71485b0ab14103307bf65a021042c6d380",
                "label": "Huobi: HBTC Token"
            },
            {
                "address": "0x1f832091faf289ed4f50fe7418cfbd2611225d46",
                "label": "nHBTC: N0001 Token"
            },
            {
                "address": "0xc728693dcf6b257bf88577d6c92e52028426eefd",
                "label": "HBTCStorage"
            },
            {
                "address": "0x0000000000000000000000000000000000000001",
                "label": "Precompiled"
            },
            {
                "address": "0x43121397631551357ea511e62163b76e39d44852",
                "label": "NEST Protocol: Revenue Pool"
            },
            {
                "address": "0x7722891ee45ad38ae05bda8349ba4cf23cfd270f",
                "label": "NEST Protocol: Oracle Call"
            },
            {
                "address": "0x0000000000000000000000000000000000000004",
                "label": "Precompiled"
            },
            {
                "address": "0xc40d7b9ca90eaca4a6e067b6ec689fd29f4a8b3c",
                "label": "NEST Protocol: nToken Oracle 3"
            },
            {
                "address": "0x0000000000000000000000000000000000000002",
                "label": "Precompiled"
            }
        ]
    },
    "trace": {
        "accountLabels": null,
        "dataMap": {
            "-1": {
                "invocation": {
                    "address": "0x1631cd8983a2119556a5625cbf5592fa89c31b07",
                    "callData": "",
                    "decodedMethod": null,
                    "errorInfo": "",
                    "fromAddress": "",
                    "gasUsed": 0,
                    "id": -1,
                    "methodDecoded": false,
                    "operation": "",
                    "output": "",
                    "revert": false,
                    "revertMessage": "",
                    "selector": "",
                    "status": false,
                    "value": ""
                },
                "nodeType": 0
            },
            "0": {
                "invocation": {
                    "address": "0xc40d7b9ca90eaca4a6e067b6ec689fd29f4a8b3c",
                    "callData": "0x0000000000000000000000000000000000000000000000008ac7230489e8000000000000000000000000000000000000000000000000000004a91282c078c0000000000000000000000000000316eb71485b0ab14103307bf65a021042c6d380",
                    "decodedMethod": {
                        "callParams": [
                            {
                                "name": "ethAmount",
                                "type": "uint256",
                                "value": "10,000,000,000,000,000,000"
                            },
                            {
                                "name": "erc20Amount",
                                "type": "uint256",
                                "value": "335,820,000,000,000,000"
                            },
                            {
                                "name": "erc20Address",
                                "type": "address",
                                "value": "0x0316eb71485b0ab14103307bf65a021042c6d380"
                            }
                        ],
                        "constructorArguments": "",
                        "name": "offer",
                        "returnParams": [],
                        "signature": "offer(uint256,uint256,address)"
                    },
                    "errorInfo": "",
                    "fromAddress": "0x1631cd8983a2119556a5625cbf5592fa89c31b07",
                    "gasUsed": 487765,
                    "id": 0,
                    "methodDecoded": true,
                    "operation": "CALL",
                    "output": "",
                    "revert": false,
                    "revertMessage": "",
                    "selector": "0xf6a4932f",
                    "status": true,
                    "value": "10.1"
                },
                "nodeType": 0
            },
            "1": {
                "invocation": {
                    "address": "0xf9dc75762fc000f3fb1cf88e7fcc32f9969ba003",
                    "callData": "0x0000000000000000000000000316eb71485b0ab14103307bf65a021042c6d380",
                    "decodedMethod": {
                        "callParams": [
                            {
                                "name": "token",
                                "type": "address",
                                "value": "0x0316eb71485b0ab14103307bf65a021042c6d380"
                            }
                        ],
                        "constructorArguments": "",
                        "name": "checkTokenMapping",
                        "returnParams": [
                            {
                                "name": "",
                                "type": "address",
                                "value": "0x1f832091faf289ed4f50fe7418cfbd2611225d46"
                            }
                        ],
                        "signature": "checkTokenMapping(address)"
                    },
                    "errorInfo": "",
                    "fromAddress": "0xc40d7b9ca90eaca4a6e067b6ec689fd29f4a8b3c",
                    "gasUsed": 1175,
                    "id": 1,
                    "methodDecoded": true,
                    "operation": "STATICCALL",
                    "output": "0x0000000000000000000000001f832091faf289ed4f50fe7418cfbd2611225d46",
                    "revert": false,
                    "revertMessage": "",
                    "selector": "0x64688586",
                    "status": true,
                    "value": "0"
                },
                "nodeType": 0
            },
            "10": {
                "invocation": {
                    "address": "0x898b3f52b7aa863bc9e033491fb7c3fd4772f981",
                    "callData": "0x00000000000000000000000000000000000000000000000022966ab776bff80000000000000000000000000000000000000000000000000004a91282c078c000",
                    "decodedMethod": {
                        "callParams": [
                            {
                                "name": "a",
                                "type": "uint256",
                                "value": "2,492,296,780,000,000,000"
                            },
                            {
                                "name": "b",
                                "type": "uint256",
                                "value": "335,820,000,000,000,000"
                            }
                        ],
                        "constructorArguments": "",
                        "name": "safeSub",
                        "returnParams": [
                            {
                                "name": "c",
                                "type": "uint256",
                                "value": "2,156,476,780,000,000,000"
                            }
                        ],
                        "signature": "safeSub(uint256,uint256)"
                    },
                    "errorInfo": "",
                    "fromAddress": "0xe57c8c5ab4eb4f117dfba282e000ee1968fbae4b",
                    "gasUsed": 323,
                    "id": 10,
                    "methodDecoded": true,
                    "operation": "DELEGATECALL",
                    "output": "0x0000000000000000000000000000000000000000000000001ded5834b6473800",
                    "revert": false,
                    "revertMessage": "",
                    "selector": "0xa293d1e8",
                    "status": true,
                    "value": "0"
                },
                "nodeType": 0
            },
            "11": {
                "invocation": {
                    "address": "0x898b3f52b7aa863bc9e033491fb7c3fd4772f981",
                    "callData": "0x00000000000000000000000000000000000000000000000012a0b3740ea9e00000000000000000000000000000000000000000000000000004a91282c078c000",
                    "decodedMethod": {
                        "callParams": [
                            {
                                "name": "a",
                                "type": "uint256",
                                "value": "1,342,270,000,000,000,000"
                            },
                            {
                                "name": "b",
                                "type": "uint256",
                                "value": "335,820,000,000,000,000"
                            }
                        ],
                        "constructorArguments": "",
                        "name": "safeAdd",
                        "returnParams": [
                            {
                                "name": "c",
                                "type": "uint256",
                                "value": "1,678,090,000,000,000,000"
                            }
                        ],
                        "signature": "safeAdd(uint256,uint256)"
                    },
                    "errorInfo": "",
                    "fromAddress": "0xe57c8c5ab4eb4f117dfba282e000ee1968fbae4b",
                    "gasUsed": 389,
                    "id": 11,
                    "methodDecoded": true,
                    "operation": "DELEGATECALL",
                    "output": "0x0000000000000000000000000000000000000000000000001749c5f6cf22a000",
                    "revert": false,
                    "revertMessage": "",
                    "selector": "0xe6cb9013",
                    "status": true,
                    "value": "0"
                },
                "nodeType": 0
            },
            "12": {
                "invocation": {
                    "address": "0x898b3f52b7aa863bc9e033491fb7c3fd4772f981",
                    "callData": "0x000000000000000000000000000000000000000c9f2c9c96bf10f25dc72f5fff00000000000000000000000000000000000000000000000004a91282c078c000",
                    "decodedMethod": {
                        "callParams": [
                            {
                                "name": "a",
                                "type": "uint256",
                                "value": "999,999,998,938,779,669,999,999,999,999"
                            },
                            {
                                "name": "b",
                                "type": "uint256",
                                "value": "335,820,000,000,000,000"
                            }
                        ],
                        "constructorArguments": "",
                        "name": "safeSub",
                        "returnParams": [
                            {
                                "name": "c",
                                "type": "uint256",
                                "value": "999,999,998,938,443,849,999,999,999,999"
                            }
                        ],
                        "signature": "safeSub(uint256,uint256)"
                    },
                    "errorInfo": "",
                    "fromAddress": "0xe57c8c5ab4eb4f117dfba282e000ee1968fbae4b",
                    "gasUsed": 323,
                    "id": 12,
                    "methodDecoded": true,
                    "operation": "DELEGATECALL",
                    "output": "0x000000000000000000000000000000000000000c9f2c9c96ba67dfdb06b69fff",
                    "revert": false,
                    "revertMessage": "",
                    "selector": "0xa293d1e8",
                    "status": true,
                    "value": "0"
                },
                "nodeType": 0
            },
            "13": {
                "invocation": {
                    "address": "0xc728693dcf6b257bf88577d6c92e52028426eefd",
                    "callData": "0x0000000000000000000000001631cd8983a2119556a5625cbf5592fa89c31b070000000000000000000000000000000000000000000000001ded5834b6473800",
                    "decodedMethod": {
                        "callParams": [
                            {
                                "name": "account",
                                "type": "address",
                                "value": "0x1631cd8983a2119556a5625cbf5592fa89c31b07"
                            },
                            {
                                "name": "amount",
                                "type": "uint256",
                                "value": "2,156,476,780,000,000,000"
                            }
                        ],
                        "constructorArguments": "",
                        "name": "setBalance",
                        "returnParams": [],
                        "signature": "setBalance(address,uint256)"
                    },
                    "errorInfo": "",
                    "fromAddress": "0xe57c8c5ab4eb4f117dfba282e000ee1968fbae4b",
                    "gasUsed": 6341,
                    "id": 13,
                    "methodDecoded": true,
                    "operation": "CALL",
                    "output": "",
                    "revert": false,
                    "revertMessage": "",
                    "selector": "0xe30443bc",
                    "status": true,
                    "value": "0"
                },
                "nodeType": 0
            },
            "14": {
                "invocation": {
                    "address": "0xc728693dcf6b257bf88577d6c92e52028426eefd",
                    "callData": "0x000000000000000000000000c40d7b9ca90eaca4a6e067b6ec689fd29f4a8b3c0000000000000000000000000000000000000000000000001749c5f6cf22a000",
                    "decodedMethod": {
                        "callParams": [
                            {
                                "name": "account",
                                "type": "address",
                                "value": "0xc40d7b9ca90eaca4a6e067b6ec689fd29f4a8b3c"
                            },
                            {
                                "name": "amount",
                                "type": "uint256",
                                "value": "1,678,090,000,000,000,000"
                            }
                        ],
                        "constructorArguments": "",
                        "name": "setBalance",
                        "returnParams": [],
                        "signature": "setBalance(address,uint256)"
                    },
                    "errorInfo": "",
                    "fromAddress": "0xe57c8c5ab4eb4f117dfba282e000ee1968fbae4b",
                    "gasUsed": 6341,
                    "id": 14,
                    "methodDecoded": true,
                    "operation": "CALL",
                    "output": "",
                    "revert": false,
                    "revertMessage": "",
                    "selector": "0xe30443bc",
                    "status": true,
                    "value": "0"
                },
                "nodeType": 0
            },
            "15": {
                "invocation": {
                    "address": "0xc728693dcf6b257bf88577d6c92e52028426eefd",
                    "callData": "0x0000000000000000000000001631cd8983a2119556a5625cbf5592fa89c31b07000000000000000000000000c40d7b9ca90eaca4a6e067b6ec689fd29f4a8b3c000000000000000000000000000000000000000c9f2c9c96ba67dfdb06b69fff",
                    "decodedMethod": {
                        "callParams": [
                            {
                                "name": "owner",
                                "type": "address",
                                "value": "0x1631cd8983a2119556a5625cbf5592fa89c31b07"
                            },
                            {
                                "name": "spender",
                                "type": "address",
                                "value": "0xc40d7b9ca90eaca4a6e067b6ec689fd29f4a8b3c"
                            },
                            {
                                "name": "amount",
                                "type": "uint256",
                                "value": "999,999,998,938,443,849,999,999,999,999"
                            }
                        ],
                        "constructorArguments": "",
                        "name": "setAllowed",
                        "returnParams": [],
                        "signature": "setAllowed(address,address,uint256)"
                    },
                    "errorInfo": "",
                    "fromAddress": "0xe57c8c5ab4eb4f117dfba282e000ee1968fbae4b",
                    "gasUsed": 6483,
                    "id": 15,
                    "methodDecoded": true,
                    "operation": "CALL",
                    "output": "",
                    "revert": false,
                    "revertMessage": "",
                    "selector": "0x33dd1b8a",
                    "status": true,
                    "value": "0"
                },
                "nodeType": 0
            },
            "16": {
                "event": {
                    "contract": "0x0316eb71485b0ab14103307bf65a021042c6d380",
                    "decodedLog": {
                        "name": "Transfer",
                        "params": [
                            {
                                "name": "from",
                                "type": "address",
                                "value": "0x1631cd8983a2119556a5625cbf5592fa89c31b07"
                            },
                            {
                                "name": "to",
                                "type": "address",
                                "value": "0xc40d7b9ca90eaca4a6e067b6ec689fd29f4a8b3c"
                            },
                            {
                                "decimalAvailable": true,
                                "name": "value",
                                "type": "uint256",
                                "value": "335,820,000,000,000,000"
                            }
                        ],
                        "signature": "Transfer(address,address,uint256)"
                    },
                    "id": 16,
                    "logData": "0x00000000000000000000000000000000000000000000000004a91282c078c000",
                    "logDecoded": true,
                    "operation": "EVENT",
                    "revert": false,
                    "status": true,
                    "topics": [
                        "0xddf252ad1be2c89b69c2b068fc378daa952ba7f163c4a11628f55a4df523b3ef",
                        "0x0000000000000000000000001631cd8983a2119556a5625cbf5592fa89c31b07",
                        "0x000000000000000000000000c40d7b9ca90eaca4a6e067b6ec689fd29f4a8b3c"
                    ]
                },
                "nodeType": 1
            },
            "17": {
                "invocation": {
                    "address": "0x43121397631551357ea511e62163b76e39d44852",
                    "callData": "0x0000000000000000000000001f832091faf289ed4f50fe7418cfbd2611225d46",
                    "decodedMethod": {
                        "callParams": [
                            {
                                "name": "token",
                                "type": "address",
                                "value": "0x1f832091faf289ed4f50fe7418cfbd2611225d46"
                            }
                        ],
                        "constructorArguments": "",
                        "name": "switchToEthForNTokenOffer",
                        "returnParams": [],
                        "signature": "switchToEthForNTokenOffer(address)"
                    },
                    "errorInfo": "",
                    "fromAddress": "0xc40d7b9ca90eaca4a6e067b6ec689fd29f4a8b3c",
                    "gasUsed": 22898,
                    "id": 17,
                    "methodDecoded": true,
                    "operation": "CALL",
                    "output": "",
                    "revert": false,
                    "revertMessage": "",
                    "selector": "0x649e5eaa",
                    "status": true,
                    "value": "0.1"
                },
                "nodeType": 0
            },
            "18": {
                "invocation": {
                    "address": "0x1f832091faf289ed4f50fe7418cfbd2611225d46",
                    "callData": "0x",
                    "decodedMethod": {
                        "callParams": [],
                        "constructorArguments": "",
                        "name": "checkBlockInfo",
                        "returnParams": [
                            {
                                "name": "createBlock",
                                "type": "uint256",
                                "value": "10,490,937"
                            },
                            {
                                "name": "recentlyUsedBlock",
                                "type": "uint256",
                                "value": "10,718,219"
                            }
                        ],
                        "signature": "checkBlockInfo()"
                    },
                    "errorInfo": "",
                    "fromAddress": "0x43121397631551357ea511e62163b76e39d44852",
                    "gasUsed": 1917,
                    "id": 18,
                    "methodDecoded": true,
                    "operation": "STATICCALL",
                    "output": "0x0000000000000000000000000000000000000000000000000000000000a014390000000000000000000000000000000000000000000000000000000000a38c0b",
                    "revert": false,
                    "revertMessage": "",
                    "selector": "0x92c08871",
                    "status": true,
                    "value": "0"
                },
                "nodeType": 0
            },
            "19": {
                "invocation": {
                    "address": "0x1f832091faf289ed4f50fe7418cfbd2611225d46",
                    "callData": "0x",
                    "decodedMethod": {
                        "callParams": [],
                        "constructorArguments": "",
                        "name": "checkBlockInfo",
                        "returnParams": [
                            {
                                "name": "createBlock",
                                "type": "uint256",
                                "value": "10,490,937"
                            },
                            {
                                "name": "recentlyUsedBlock",
                                "type": "uint256",
                                "value": "10,718,219"
                            }
                        ],
                        "signature": "checkBlockInfo()"
                    },
                    "errorInfo": "",
                    "fromAddress": "0xc40d7b9ca90eaca4a6e067b6ec689fd29f4a8b3c",
                    "gasUsed": 1917,
                    "id": 19,
                    "methodDecoded": true,
                    "operation": "STATICCALL",
                    "output": "0x0000000000000000000000000000000000000000000000000000000000a014390000000000000000000000000000000000000000000000000000000000a38c0b",
                    "revert": false,
                    "revertMessage": "",
                    "selector": "0x92c08871",
                    "status": true,
                    "value": "0"
                },
                "nodeType": 0
            },
            "2": {
                "invocation": {
                    "address": "0x7722891ee45ad38ae05bda8349ba4cf23cfd270f",
                    "callData": "0x0000000000000000000000000316eb71485b0ab14103307bf65a021042c6d380",
                    "decodedMethod": {
                        "callParams": [
                            {
                                "name": "tokenAddress",
                                "type": "address",
                                "value": "0x0316eb71485b0ab14103307bf65a021042c6d380"
                            }
                        ],
                        "constructorArguments": "",
                        "name": "updateAndCheckPricePrivate",
                        "returnParams": [
                            {
                                "name": "ethAmount",
                                "type": "uint256",
                                "value": "10,000,000,000,000,000,000"
                            },
                            {
                                "name": "erc20Amount",
                                "type": "uint256",
                                "value": "335,460,000,000,000,000"
                            }
                        ],
                        "signature": "updateAndCheckPricePrivate(address)"
                    },
                    "errorInfo": "",
                    "fromAddress": "0xc40d7b9ca90eaca4a6e067b6ec689fd29f4a8b3c",
                    "gasUsed": 8685,
                    "id": 2,
                    "methodDecoded": true,
                    "operation": "STATICCALL",
                    "output": "0x0000000000000000000000000000000000000000000000008ac7230489e8000000000000000000000000000000000000000000000000000004a7cb17b85a4000",
                    "revert": false,
                    "revertMessage": "",
                    "selector": "0x81ead24c",
                    "status": true,
                    "value": "0"
                },
                "nodeType": 0
            },
            "20": {
                "invocation": {
                    "address": "0x1f832091faf289ed4f50fe7418cfbd2611225d46",
                    "callData": "0x0000000000000000000000000000000000000000000000022b1c8c1227a00000",
                    "decodedMethod": {
                        "callParams": [
                            {
                                "name": "value",
                                "type": "uint256",
                                "value": "40,000,000,000,000,000,000"
                            }
                        ],
                        "constructorArguments": "",
                        "name": "increaseTotal",
                        "returnParams": [],
                        "signature": "increaseTotal(uint256)"
                    },
                    "errorInfo": "",
                    "fromAddress": "0xc40d7b9ca90eaca4a6e067b6ec689fd29f4a8b3c",
                    "gasUsed": 21479,
                    "id": 20,
                    "methodDecoded": true,
                    "operation": "CALL",
                    "output": "",
                    "revert": false,
                    "revertMessage": "",
                    "selector": "0x81fa5431",
                    "status": true,
                    "value": "0"
                },
                "nodeType": 0
            },
            "21": {
                "invocation": {
                    "address": "0x6cd5698e8854fb6879d6b1c694223b389b465dea",
                    "callData": "0x000000000000000000000000000000000000000000000000000000000000002000000000000000000000000000000000000000000000000000000000000000156e6573742e6e546f6b656e2e6f666665724d61696e0000000000000000000000",
                    "decodedMethod": {
                        "callParams": [
                            {
                                "name": "name",
                                "type": "string",
                                "value": "nest.nToken.offerMain"
                            }
                        ],
                        "constructorArguments": "",
                        "name": "checkAddress",
                        "returnParams": [
                            {
                                "name": "contractAddress",
                                "type": "address",
                                "value": "0xc40d7b9ca90eaca4a6e067b6ec689fd29f4a8b3c"
                            }
                        ],
                        "signature": "checkAddress(string)"
                    },
                    "errorInfo": "",
                    "fromAddress": "0x1f832091faf289ed4f50fe7418cfbd2611225d46",
                    "gasUsed": 1734,
                    "id": 21,
                    "methodDecoded": true,
                    "operation": "STATICCALL",
                    "output": "0x000000000000000000000000c40d7b9ca90eaca4a6e067b6ec689fd29f4a8b3c",
                    "revert": false,
                    "revertMessage": "",
                    "selector": "0x8fe77e86",
                    "status": true,
                    "value": "0"
                },
                "nodeType": 0
            },
            "22": {
                "event": {
                    "contract": "0xc40d7b9ca90eaca4a6e067b6ec689fd29f4a8b3c",
                    "decodedLog": {
                        "name": "OreDrawingLog",
                        "params": [
                            {
                                "name": "nowBlock",
                                "type": "uint256",
                                "value": "10,718,229"
                            },
                            {
                                "name": "blockAmount",
                                "type": "uint256",
                                "value": "40,000,000,000,000,000,000"
                            },
                            {
                                "name": "tokenAddress",
                                "type": "address",
                                "value": "0x1f832091faf289ed4f50fe7418cfbd2611225d46"
                            }
                        ],
                        "signature": "OreDrawingLog(uint256,uint256,address)"
                    },
                    "id": 22,
                    "logData": "0x0000000000000000000000000000000000000000000000000000000000a38c150000000000000000000000000000000000000000000000022b1c8c1227a000000000000000000000000000001f832091faf289ed4f50fe7418cfbd2611225d46",
                    "logDecoded": true,
                    "operation": "EVENT",
                    "revert": false,
                    "status": true,
                    "topics": [
                        "0xbf10eb38ae3fef6350212985b724124761ec1a488dc5481048f20c389099e09d"
                    ]
                },
                "nodeType": 1
            },
            "23": {
                "invocation": {
                    "address": "0x1f832091faf289ed4f50fe7418cfbd2611225d46",
                    "callData": "0x",
                    "decodedMethod": {
                        "callParams": [],
                        "constructorArguments": "",
                        "name": "checkBidder",
                        "returnParams": [
                            {
                                "name": "",
                                "type": "address",
                                "value": "0x3ceefbbb0e6c60cf64db9d17b94917d6d78cec05"
                            }
                        ],
                        "signature": "checkBidder()"
                    },
                    "errorInfo": "",
                    "fromAddress": "0xc40d7b9ca90eaca4a6e067b6ec689fd29f4a8b3c",
                    "gasUsed": 1104,
                    "id": 23,
                    "methodDecoded": true,
                    "operation": "STATICCALL",
                    "output": "0x0000000000000000000000003ceefbbb0e6c60cf64db9d17b94917d6d78cec05",
                    "revert": false,
                    "revertMessage": "",
                    "selector": "0x28e6a33f",
                    "status": true,
                    "value": "0"
                },
                "nodeType": 0
            },
            "24": {
                "invocation": {
                    "address": "0x1f832091faf289ed4f50fe7418cfbd2611225d46",
                    "callData": "0x0000000000000000000000003ceefbbb0e6c60cf64db9d17b94917d6d78cec050000000000000000000000000000000000000000000000001bc16d674ec80000",
                    "decodedMethod": {
                        "callParams": [
                            {
                                "name": "to",
                                "type": "address",
                                "value": "0x3ceefbbb0e6c60cf64db9d17b94917d6d78cec05"
                            },
                            {
                                "decimalAvailable": true,
                                "name": "value",
                                "type": "uint256",
                                "value": "2,000,000,000,000,000,000"
                            }
                        ],
                        "constructorArguments": "",
                        "name": "transfer",
                        "returnParams": [
                            {
                                "name": "",
                                "type": "bool",
                                "value": true
                            }
                        ],
                        "signature": "transfer(address,uint256)"
                    },
                    "errorInfo": "",
                    "fromAddress": "0xc40d7b9ca90eaca4a6e067b6ec689fd29f4a8b3c",
                    "gasUsed": 10275,
                    "id": 24,
                    "methodDecoded": true,
                    "operation": "CALL",
                    "output": "0x0000000000000000000000000000000000000000000000000000000000000001",
                    "revert": false,
                    "revertMessage": "",
                    "selector": "0xa9059cbb",
                    "status": true,
                    "value": "0"
                },
                "nodeType": 0
            },
            "25": {
                "event": {
                    "contract": "0x1f832091faf289ed4f50fe7418cfbd2611225d46",
                    "decodedLog": {
                        "name": "Transfer",
                        "params": [
                            {
                                "name": "from",
                                "type": "address",
                                "value": "0xc40d7b9ca90eaca4a6e067b6ec689fd29f4a8b3c"
                            },
                            {
                                "name": "to",
                                "type": "address",
                                "value": "0x3ceefbbb0e6c60cf64db9d17b94917d6d78cec05"
                            },
                            {
                                "decimalAvailable": true,
                                "name": "value",
                                "type": "uint256",
                                "value": "2,000,000,000,000,000,000"
                            }
                        ],
                        "signature": "Transfer(address,address,uint256)"
                    },
                    "id": 25,
                    "logData": "0x0000000000000000000000000000000000000000000000001bc16d674ec80000",
                    "logDecoded": true,
                    "operation": "EVENT",
                    "revert": false,
                    "status": true,
                    "topics": [
                        "0xddf252ad1be2c89b69c2b068fc378daa952ba7f163c4a11628f55a4df523b3ef",
                        "0x000000000000000000000000c40d7b9ca90eaca4a6e067b6ec689fd29f4a8b3c",
                        "0x0000000000000000000000003ceefbbb0e6c60cf64db9d17b94917d6d78cec05"
                    ]
                },
                "nodeType": 1
            },
            "3": {
                "event": {
                    "contract": "0xc40d7b9ca90eaca4a6e067b6ec689fd29f4a8b3c",
                    "decodedLog": {
                        "name": "OfferContractAddress",
                        "params": [
                            {
                                "name": "contractAddress",
                                "type": "address",
                                "value": "0x0000000000000000000000000000000000002731"
                            },
                            {
                                "name": "tokenAddress",
                                "type": "address",
                                "value": "0x0316eb71485b0ab14103307bf65a021042c6d380"
                            },
                            {
                                "name": "ethAmount",
                                "type": "uint256",
                                "value": "10,000,000,000,000,000,000"
                            },
                            {
                                "name": "erc20Amount",
                                "type": "uint256",
                                "value": "335,820,000,000,000,000"
                            },
                            {
                                "name": "continued",
                                "type": "uint256",
                                "value": "25"
                            },
                            {
                                "name": "mining",
                                "type": "uint256",
                                "value": "100,000,000,000,000,000"
                            }
                        ],
                        "signature": "OfferContractAddress(address,address,uint256,uint256,uint256,uint256)"
                    },
                    "id": 3,
                    "logData": "0x00000000000000000000000000000000000000000000000000000000000027310000000000000000000000000316eb71485b0ab14103307bf65a021042c6d3800000000000000000000000000000000000000000000000008ac7230489e8000000000000000000000000000000000000000000000000000004a91282c078c0000000000000000000000000000000000000000000000000000000000000000019000000000000000000000000000000000000000000000000016345785d8a0000",
                    "logDecoded": true,
                    "operation": "EVENT",
                    "revert": false,
                    "status": true,
                    "topics": [
                        "0xb3ed50358b669287aff082dbd5407bd75efcac18c9267d946074dc90d8aae898"
                    ]
                },
                "nodeType": 1
            },
            "4": {
                "invocation": {
                    "address": "0x7722891ee45ad38ae05bda8349ba4cf23cfd270f",
                    "callData": "0x0000000000000000000000000000000000000000000000008ac7230489e8000000000000000000000000000000000000000000000000000004a91282c078c0000000000000000000000000000000000000000000000000000000000000a38c2e0000000000000000000000000316eb71485b0ab14103307bf65a021042c6d3800000000000000000000000001631cd8983a2119556a5625cbf5592fa89c31b07",
                    "decodedMethod": {
                        "callParams": [
                            {
                                "name": "ethAmount",
                                "type": "uint256",
                                "value": "10,000,000,000,000,000,000"
                            },
                            {
                                "name": "tokenAmount",
                                "type": "uint256",
                                "value": "335,820,000,000,000,000"
                            },
                            {
                                "name": "endBlock",
                                "type": "uint256",
                                "value": "10,718,254"
                            },
                            {
                                "name": "tokenAddress",
                                "type": "address",
                                "value": "0x0316eb71485b0ab14103307bf65a021042c6d380"
                            },
                            {
                                "name": "offerOwner",
                                "type": "address",
                                "value": "0x1631cd8983a2119556a5625cbf5592fa89c31b07"
                            }
                        ],
                        "constructorArguments": "",
                        "name": "addPrice",
                        "returnParams": [],
                        "signature": "addPrice(uint256,uint256,uint256,address,address)"
                    },
                    "errorInfo": "",
                    "fromAddress": "0xc40d7b9ca90eaca4a6e067b6ec689fd29f4a8b3c",
                    "gasUsed": 90732,
                    "id": 4,
                    "methodDecoded": true,
                    "operation": "CALL",
                    "output": "",
                    "revert": false,
                    "revertMessage": "",
                    "selector": "0x17ae7a58",
                    "status": true,
                    "value": "0"
                },
                "nodeType": 0
            },
            "5": {
                "invocation": {
                    "address": "0x0316eb71485b0ab14103307bf65a021042c6d380",
                    "callData": "0x0000000000000000000000001631cd8983a2119556a5625cbf5592fa89c31b07000000000000000000000000c40d7b9ca90eaca4a6e067b6ec689fd29f4a8b3c00000000000000000000000000000000000000000000000004a91282c078c000",
                    "decodedMethod": {
                        "callParams": [
                            {
                                "name": "from",
                                "type": "address",
                                "value": "0x1631cd8983a2119556a5625cbf5592fa89c31b07"
                            },
                            {
                                "name": "to",
                                "type": "address",
                                "value": "0xc40d7b9ca90eaca4a6e067b6ec689fd29f4a8b3c"
                            },
                            {
                                "decimalAvailable": true,
                                "name": "value",
                                "type": "uint256",
                                "value": "335,820,000,000,000,000"
                            }
                        ],
                        "constructorArguments": "",
                        "name": "transferFrom",
                        "returnParams": [
                            {
                                "name": "",
                                "type": "bool",
                                "value": true
                            }
                        ],
                        "signature": "transferFrom(address,address,uint256)"
                    },
                    "errorInfo": "",
                    "fromAddress": "0xc40d7b9ca90eaca4a6e067b6ec689fd29f4a8b3c",
                    "gasUsed": 52239,
                    "id": 5,
                    "methodDecoded": true,
                    "operation": "CALL",
                    "output": "0x0000000000000000000000000000000000000000000000000000000000000001",
                    "revert": false,
                    "revertMessage": "",
                    "selector": "0x23b872dd",
                    "status": true,
                    "value": "0"
                },
                "nodeType": 0
            },
            "6": {
                "invocation": {
                    "address": "0xe57c8c5ab4eb4f117dfba282e000ee1968fbae4b",
                    "callData": "0x000000000000000000000000c40d7b9ca90eaca4a6e067b6ec689fd29f4a8b3c0000000000000000000000001631cd8983a2119556a5625cbf5592fa89c31b07000000000000000000000000c40d7b9ca90eaca4a6e067b6ec689fd29f4a8b3c00000000000000000000000000000000000000000000000004a91282c078c000",
                    "decodedMethod": {
                        "callParams": [
                            {
                                "name": "sender",
                                "type": "address",
                                "value": "0xc40d7b9ca90eaca4a6e067b6ec689fd29f4a8b3c"
                            },
                            {
                                "name": "from",
                                "type": "address",
                                "value": "0x1631cd8983a2119556a5625cbf5592fa89c31b07"
                            },
                            {
                                "name": "to",
                                "type": "address",
                                "value": "0xc40d7b9ca90eaca4a6e067b6ec689fd29f4a8b3c"
                            },
                            {
                                "name": "value",
                                "type": "uint256",
                                "value": "335,820,000,000,000,000"
                            }
                        ],
                        "constructorArguments": "",
                        "name": "transferFromLogic",
                        "returnParams": [
                            {
                                "name": "",
                                "type": "bool",
                                "value": true
                            }
                        ],
                        "signature": "transferFromLogic(address,address,address,uint256)"
                    },
                    "errorInfo": "",
                    "fromAddress": "0x0316eb71485b0ab14103307bf65a021042c6d380",
                    "gasUsed": 46472,
                    "id": 6,
                    "methodDecoded": true,
                    "operation": "CALL",
                    "output": "0x0000000000000000000000000000000000000000000000000000000000000001",
                    "revert": false,
                    "revertMessage": "",
                    "selector": "0x8d7e3ef3",
                    "status": true,
                    "value": "0"
                },
                "nodeType": 0
            },
            "7": {
                "invocation": {
                    "address": "0xc728693dcf6b257bf88577d6c92e52028426eefd",
                    "callData": "0x0000000000000000000000001631cd8983a2119556a5625cbf5592fa89c31b07",
                    "decodedMethod": {
                        "callParams": [
                            {
                                "name": "account",
                                "type": "address",
                                "value": "0x1631cd8983a2119556a5625cbf5592fa89c31b07"
                            }
                        ],
                        "constructorArguments": "",
                        "name": "balanceOf",
                        "returnParams": [
                            {
                                "decimalAvailable": true,
                                "name": "",
                                "type": "uint256",
                                "value": "2,492,296,780,000,000,000"
                            }
                        ],
                        "signature": "balanceOf(address)"
                    },
                    "errorInfo": "",
                    "fromAddress": "0xe57c8c5ab4eb4f117dfba282e000ee1968fbae4b",
                    "gasUsed": 1307,
                    "id": 7,
                    "methodDecoded": true,
                    "operation": "STATICCALL",
                    "output": "0x00000000000000000000000000000000000000000000000022966ab776bff800",
                    "revert": false,
                    "revertMessage": "",
                    "selector": "0x70a08231",
                    "status": true,
                    "value": "0"
                },
                "nodeType": 0
            },
            "8": {
                "invocation": {
                    "address": "0xc728693dcf6b257bf88577d6c92e52028426eefd",
                    "callData": "0x000000000000000000000000c40d7b9ca90eaca4a6e067b6ec689fd29f4a8b3c",
                    "decodedMethod": {
                        "callParams": [
                            {
                                "name": "account",
                                "type": "address",
                                "value": "0xc40d7b9ca90eaca4a6e067b6ec689fd29f4a8b3c"
                            }
                        ],
                        "constructorArguments": "",
                        "name": "balanceOf",
                        "returnParams": [
                            {
                                "decimalAvailable": true,
                                "name": "",
                                "type": "uint256",
                                "value": "1,342,270,000,000,000,000"
                            }
                        ],
                        "signature": "balanceOf(address)"
                    },
                    "errorInfo": "",
                    "fromAddress": "0xe57c8c5ab4eb4f117dfba282e000ee1968fbae4b",
                    "gasUsed": 1307,
                    "id": 8,
                    "methodDecoded": true,
                    "operation": "STATICCALL",
                    "output": "0x00000000000000000000000000000000000000000000000012a0b3740ea9e000",
                    "revert": false,
                    "revertMessage": "",
                    "selector": "0x70a08231",
                    "status": true,
                    "value": "0"
                },
                "nodeType": 0
            },
            "9": {
                "invocation": {
                    "address": "0xc728693dcf6b257bf88577d6c92e52028426eefd",
                    "callData": "0x0000000000000000000000001631cd8983a2119556a5625cbf5592fa89c31b07000000000000000000000000c40d7b9ca90eaca4a6e067b6ec689fd29f4a8b3c",
                    "decodedMethod": {
                        "callParams": [
                            {
                                "name": "owner",
                                "type": "address",
                                "value": "0x1631cd8983a2119556a5625cbf5592fa89c31b07"
                            },
                            {
                                "name": "spender",
                                "type": "address",
                                "value": "0xc40d7b9ca90eaca4a6e067b6ec689fd29f4a8b3c"
                            }
                        ],
                        "constructorArguments": "",
                        "name": "getAllowed",
                        "returnParams": [
                            {
                                "name": "",
                                "type": "uint256",
                                "value": "999,999,998,938,779,669,999,999,999,999"
                            }
                        ],
                        "signature": "getAllowed(address,address)"
                    },
                    "errorInfo": "",
                    "fromAddress": "0xe57c8c5ab4eb4f117dfba282e000ee1968fbae4b",
                    "gasUsed": 1388,
                    "id": 9,
                    "methodDecoded": true,
                    "operation": "STATICCALL",
                    "output": "0x000000000000000000000000000000000000000c9f2c9c96bf10f25dc72f5fff",
                    "revert": false,
                    "revertMessage": "",
                    "selector": "0xc7c7e9ea",
                    "status": true,
                    "value": "0"
                },
                "nodeType": 0
            }
        },
        "gasFlame": [
            {
                "children": [
                    {
                        "children": [
                            {
                                "children": [],
                                "depth": 0,
                                "name": "Initial Gas",
                                "value": 21844
                            },
                            {
                                "children": [
                                    {
                                        "children": [],
                                        "depth": 1,
                                        "name": "checkTokenMapping",
                                        "value": 1175
                                    },
                                    {
                                        "children": [],
                                        "depth": 1,
                                        "name": "updateAndCheckPricePrivate",
                                        "value": 8685
                                    },
                                    {
                                        "children": [],
                                        "depth": 1,
                                        "name": "addPrice",
                                        "value": 90732
                                    },
                                    {
                                        "children": [
                                            {
                                                "children": [
                                                    {
                                                        "children": [],
                                                        "depth": 3,
                                                        "name": "balanceOf",
                                                        "value": 1307
                                                    },
                                                    {
                                                        "children": [],
                                                        "depth": 3,
                                                        "name": "balanceOf",
                                                        "value": 1307
                                                    },
                                                    {
                                                        "children": [],
                                                        "depth": 3,
                                                        "name": "getAllowed",
                                                        "value": 1388
                                                    },
                                                    {
                                                        "children": [],
                                                        "depth": 3,
                                                        "name": "safeSub",
                                                        "value": 323
                                                    },
                                                    {
                                                        "children": [],
                                                        "depth": 3,
                                                        "name": "safeAdd",
                                                        "value": 389
                                                    },
                                                    {
                                                        "children": [],
                                                        "depth": 3,
                                                        "name": "safeSub",
                                                        "value": 323
                                                    },
                                                    {
                                                        "children": [],
                                                        "depth": 3,
                                                        "name": "setBalance",
                                                        "value": 6341
                                                    },
                                                    {
                                                        "children": [],
                                                        "depth": 3,
                                                        "name": "setBalance",
                                                        "value": 6341
                                                    },
                                                    {
                                                        "children": [],
                                                        "depth": 3,
                                                        "name": "setAllowed",
                                                        "value": 6483
                                                    }
                                                ],
                                                "depth": 2,
                                                "name": "transferFromLogic",
                                                "value": 46472
                                            }
                                        ],
                                        "depth": 1,
                                        "name": "transferFrom",
                                        "value": 52239
                                    },
                                    {
                                        "children": [
                                            {
                                                "children": [],
                                                "depth": 2,
                                                "name": "checkBlockInfo",
                                                "value": 1917
                                            }
                                        ],
                                        "depth": 1,
                                        "name": "switchToEthForNTokenOffer",
                                        "value": 22898
                                    },
                                    {
                                        "children": [],
                                        "depth": 1,
                                        "name": "checkBlockInfo",
                                        "value": 1917
                                    },
                                    {
                                        "children": [
                                            {
                                                "children": [],
                                                "depth": 2,
                                                "name": "checkAddress",
                                                "value": 1734
                                            }
                                        ],
                                        "depth": 1,
                                        "name": "increaseTotal",
                                        "value": 21479
                                    },
                                    {
                                        "children": [],
                                        "depth": 1,
                                        "name": "checkBidder",
                                        "value": 1104
                                    },
                                    {
                                        "children": [],
                                        "depth": 1,
                                        "name": "transfer",
                                        "value": 10275
                                    }
                                ],
                                "depth": 0,
                                "name": "Executed Gas",
                                "value": 465921
                            }
                        ],
                        "depth": -1,
                        "name": "Actual Gas Used",
                        "value": 487765
                    },
                    {
                        "children": [],
                        "depth": -1,
                        "name": "Refunded Gas",
                        "value": 0
                    }
                ],
                "depth": -2,
                "name": "Total Gas",
                "value": 487765
            }
        ],
        "isConfirmed": true,
        "mainTrace": [
            {
                "children": [
                    {
                        "children": [
                            {
                                "children": [],
                                "depth": 1,
                                "id": 1,
                                "order": 1
                            },
                            {
                                "children": [],
                                "depth": 1,
                                "id": 2,
                                "order": 2
                            },
                            {
                                "children": [],
                                "depth": 1,
                                "id": 3,
                                "order": 3
                            },
                            {
                                "children": [],
                                "depth": 1,
                                "id": 4,
                                "order": 4
                            },
                            {
                                "children": [
                                    {
                                        "children": [
                                            {
                                                "children": [],
                                                "depth": 3,
                                                "id": 7,
                                                "order": 7
                                            },
                                            {
                                                "children": [],
                                                "depth": 3,
                                                "id": 8,
                                                "order": 8
                                            },
                                            {
                                                "children": [],
                                                "depth": 3,
                                                "id": 9,
                                                "order": 9
                                            },
                                            {
                                                "children": [],
                                                "depth": 3,
                                                "id": 10,
                                                "order": 10
                                            },
                                            {
                                                "children": [],
                                                "depth": 3,
                                                "id": 11,
                                                "order": 11
                                            },
                                            {
                                                "children": [],
                                                "depth": 3,
                                                "id": 12,
                                                "order": 12
                                            },
                                            {
                                                "children": [],
                                                "depth": 3,
                                                "id": 13,
                                                "order": 13
                                            },
                                            {
                                                "children": [],
                                                "depth": 3,
                                                "id": 14,
                                                "order": 14
                                            },
                                            {
                                                "children": [],
                                                "depth": 3,
                                                "id": 15,
                                                "order": 15
                                            }
                                        ],
                                        "depth": 2,
                                        "id": 6,
                                        "order": 6
                                    },
                                    {
                                        "children": [],
                                        "depth": 2,
                                        "id": 16,
                                        "order": 16
                                    }
                                ],
                                "depth": 1,
                                "id": 5,
                                "order": 5
                            },
                            {
                                "children": [
                                    {
                                        "children": [],
                                        "depth": 2,
                                        "id": 18,
                                        "order": 18
                                    }
                                ],
                                "depth": 1,
                                "id": 17,
                                "order": 17
                            },
                            {
                                "children": [],
                                "depth": 1,
                                "id": 19,
                                "order": 19
                            },
                            {
                                "children": [
                                    {
                                        "children": [],
                                        "depth": 2,
                                        "id": 21,
                                        "order": 21
                                    }
                                ],
                                "depth": 1,
                                "id": 20,
                                "order": 20
                            },
                            {
                                "children": [],
                                "depth": 1,
                                "id": 22,
                                "order": 22
                            },
                            {
                                "children": [],
                                "depth": 1,
                                "id": 23,
                                "order": 23
                            },
                            {
                                "children": [
                                    {
                                        "children": [],
                                        "depth": 2,
                                        "id": 25,
                                        "order": 25
                                    }
                                ],
                                "depth": 1,
                                "id": 24,
                                "order": 24
                            }
                        ],
                        "depth": 0,
                        "id": 0,
                        "order": 0
                    }
                ],
                "depth": -1,
                "id": -1,
                "order": -1
            }
        ],
        "mainTraceNodeCount": 26,
        "parentIdMap": {
            "0": -1,
            "1": 0,
            "10": 6,
            "11": 6,
            "12": 6,
            "13": 6,
            "14": 6,
            "15": 6,
            "16": 5,
            "17": 0,
            "18": 17,
            "19": 0,
            "2": 0,
            "20": 0,
            "21": 20,
            "22": 0,
            "23": 0,
            "24": 0,
            "25": 24,
            "3": 0,
            "4": 0,
            "5": 0,
            "6": 5,
            "7": 6,
            "8": 6,
            "9": 6
        },
        "tidyTrace": [
            {
                "children": [
                    {
                        "children": [
                            {
                                "children": [],
                                "depth": 1,
                                "id": 3,
                                "order": 3
                            },
                            {
                                "children": [],
                                "depth": 1,
                                "id": 4,
                                "order": 4
                            },
                            {
                                "children": [
                                    {
                                        "children": [
                                            {
                                                "children": [],
                                                "depth": 3,
                                                "id": 10,
                                                "order": 10
                                            },
                                            {
                                                "children": [],
                                                "depth": 3,
                                                "id": 11,
                                                "order": 11
                                            },
                                            {
                                                "children": [],
                                                "depth": 3,
                                                "id": 12,
                                                "order": 12
                                            },
                                            {
                                                "children": [],
                                                "depth": 3,
                                                "id": 13,
                                                "order": 13
                                            },
                                            {
                                                "children": [],
                                                "depth": 3,
                                                "id": 14,
                                                "order": 14
                                            },
                                            {
                                                "children": [],
                                                "depth": 3,
                                                "id": 15,
                                                "order": 15
                                            }
                                        ],
                                        "depth": 2,
                                        "id": 6,
                                        "order": 6
                                    },
                                    {
                                        "children": [],
                                        "depth": 2,
                                        "id": 16,
                                        "order": 16
                                    }
                                ],
                                "depth": 1,
                                "id": 5,
                                "order": 5
                            },
                            {
                                "children": [],
                                "depth": 1,
                                "id": 17,
                                "order": 17
                            },
                            {
                                "children": [],
                                "depth": 1,
                                "id": 20,
                                "order": 20
                            },
                            {
                                "children": [],
                                "depth": 1,
                                "id": 22,
                                "order": 22
                            },
                            {
                                "children": [
                                    {
                                        "children": [],
                                        "depth": 2,
                                        "id": 25,
                                        "order": 25
                                    }
                                ],
                                "depth": 1,
                                "id": 24,
                                "order": 24
                            }
                        ],
                        "depth": 0,
                        "id": 0,
                        "order": 0
                    }
                ],
                "depth": -1,
                "id": -1,
                "order": -1
            }
        ],
        "tidyTraceNodeCount": 17
    },
    "state_change": {
        "stateChanges": [
            {
                "address": "0x1f832091faf289ed4f50fe7418cfbd2611225d46",
                "erc": "ERC-20",
                "slots": [
                    {
                        "current": "0x0000000000000000000000000000000000000000000000087228ca8945dc0015",
                        "key": "0xc47784dd1180e2737428d04df0e35fb99dd4e9c3ac936b9a988c5f64e8c953fe",
                        "prev": "0x00000000000000000000000000000000000000000000000662cdabde6d040015"
                    },
                    {
                        "current": "0x00000000000000000000000000000000000000000000c061fdfa9e1bdd980000",
                        "key": "0x0000000000000000000000000000000000000000000000000000000000000002",
                        "prev": "0x00000000000000000000000000000000000000000000c05fd2de1209b5f80000"
                    },
                    {
                        "current": "0x0000000000000000000000000000000000000000000000000000000000a38c15",
                        "key": "0x0000000000000000000000000000000000000000000000000000000000000007",
                        "prev": "0x0000000000000000000000000000000000000000000000000000000000a38c0b"
                    },
                    {
                        "current": "0x0000000000000000000000000000000000000000000000b9f233308d23620000",
                        "key": "0x02c3c6d9cbdf193d34e82f61fbecc79e29b3463fce3c8fedd61a36d5299f51d1",
                        "prev": "0x0000000000000000000000000000000000000000000000b9d671c325d49a0000"
                    }
                ],
                "storageVariables": [
                    {
                        "name": "_balances",
                        "type": "mapping(address => uint256)",
                        "value": {
                            "pairs": [
                                {
                                    "key": "0x3ceefbbb0e6c60cf64db9d17b94917d6d78cec05",
                                    "value": {
                                        "current": "3430100000000000000000",
                                        "prev": "3428100000000000000000",
                                        "typeTag": 1
                                    }
                                },
                                {
                                    "key": "0xc40d7b9ca90eaca4a6e067b6ec689fd29f4a8b3c",
                                    "value": {
                                        "current": "155800000000000000021",
                                        "prev": "117800000000000000021",
                                        "typeTag": 1
                                    }
                                }
                            ],
                            "typeTag": 4
                        }
                    },
                    {
                        "name": "_totalSupply",
                        "type": "uint256",
                        "value": {
                            "current": "908502000000000000000000",
                            "prev": "908462000000000000000000",
                            "typeTag": 1
                        }
                    },
                    {
                        "name": "_recentlyUsedBlock",
                        "type": "uint256",
                        "value": {
                            "current": "10718229",
                            "prev": "10718219",
                            "typeTag": 1
                        }
                    }
                ]
            },
            {
                "address": "0x43121397631551357ea511e62163b76e39d44852",
                "erc": "",
                "slots": [
                    {
                        "current": "0x00000000000000000000000000000000000000000000002a356da7cd76e64afe",
                        "key": "0x93c46d1d831aa3047443f8565fb329a652548d18a1f75ab69a421e5989f1a4f5",
                        "prev": "0x00000000000000000000000000000000000000000000002a34df8c03b7e24afe"
                    },
                    {
                        "current": "0x000000000000000000000000000000000000000000000006df4d5082355b4218",
                        "key": "0x1d79aa4ffd11e990d1487e010a52ead9e33202e5a7edd124a27a52aa75d06f5b",
                        "prev": "0x000000000000000000000000000000000000000000000006de7826d396d54218"
                    }
                ],
                "storageVariables": [
                    {
                        "name": "ethMapping",
                        "type": "mapping(address => uint256)",
                        "value": {
                            "pairs": [
                                {
                                    "key": "0x04abeda201850ac0124161f037efd70c74ddc74c",
                                    "value": {
                                        "current": "778613168853177748222",
                                        "prev": "778573168853177748222",
                                        "typeTag": 1
                                    }
                                },
                                {
                                    "key": "0x1f832091faf289ed4f50fe7418cfbd2611225d46",
                                    "value": {
                                        "current": "126771070006093103640",
                                        "prev": "126711070006093103640",
                                        "typeTag": 1
                                    }
                                }
                            ],
                            "typeTag": 4
                        }
                    }
                ]
            },
            {
                "address": "0x7722891ee45ad38ae05bda8349ba4cf23cfd270f",
                "erc": "",
                "slots": [
                    {
                        "current": "0x00000000000000000000000000000000000000000000000004a91282c078c000",
                        "key": "0x7d1ac95adbd01f7acf6d4b7c8529be9b3d9d220fb40f60a5fe5a0aaae49c81a8",
                        "prev": "0x0000000000000000000000000000000000000000000000000000000000000000"
                    },
                    {
                        "current": "0x0000000000000000000000001631cd8983a2119556a5625cbf5592fa89c31b07",
                        "key": "0x7d1ac95adbd01f7acf6d4b7c8529be9b3d9d220fb40f60a5fe5a0aaae49c81aa",
                        "prev": "0x0000000000000000000000000000000000000000000000000000000000000000"
                    },
                    {
                        "current": "0x0000000000000000000000000000000000000000000000000000000000a38c24",
                        "key": "0x7d1ac95adbd01f7acf6d4b7c8529be9b3d9d220fb40f60a5fe5a0aaae49c81a9",
                        "prev": "0x0000000000000000000000000000000000000000000000000000000000000000"
                    },
                    {
                        "current": "0x0000000000000000000000000000000000000000000000000000000000a38c2e",
                        "key": "0xe14a2b7901cdc6ab9ce3681805dffa442317b47e73656d43b8a598a5e73458cc",
                        "prev": "0x0000000000000000000000000000000000000000000000000000000000a38c24"
                    },
                    {
                        "current": "0x0000000000000000000000000000000000000000000000008ac7230489e80000",
                        "key": "0x7d1ac95adbd01f7acf6d4b7c8529be9b3d9d220fb40f60a5fe5a0aaae49c81a7",
                        "prev": "0x0000000000000000000000000000000000000000000000000000000000000000"
                    }
                ],
                "storageVariables": [
                    {
                        "name": "_tokenInfo",
                        "type": "mapping(address => struct Nest_3_OfferPrice.TokenInfo)",
                        "value": {
                            "pairs": [
                                {
                                    "key": "0x0316eb71485b0ab14103307bf65a021042c6d380",
                                    "value": {
                                        "fields": [
                                            {
                                                "name": "priceInfoList",
                                                "type": "mapping(uint256 => struct Nest_3_OfferPrice.PriceInfo)",
                                                "value": {
                                                    "pairs": [
                                                        {
                                                            "key": "10718254",
                                                            "value": {
                                                                "fields": [
                                                                    {
                                                                        "name": "ethAmount",
                                                                        "type": "uint256",
                                                                        "value": {
                                                                            "current": "10000000000000000000",
                                                                            "prev": "0",
                                                                            "typeTag": 1
                                                                        }
                                                                    },
                                                                    {
                                                                        "name": "erc20Amount",
                                                                        "type": "uint256",
                                                                        "value": {
                                                                            "current": "335820000000000000",
                                                                            "prev": "0",
                                                                            "typeTag": 1
                                                                        }
                                                                    },
                                                                    {
                                                                        "name": "frontBlock",
                                                                        "type": "uint256",
                                                                        "value": {
                                                                            "current": "10718244",
                                                                            "prev": "0",
                                                                            "typeTag": 1
                                                                        }
                                                                    },
                                                                    {
                                                                        "name": "offerOwner",
                                                                        "type": "address",
                                                                        "value": {
                                                                            "current": "0x1631cd8983a2119556a5625cbf5592fa89c31b07",
                                                                            "prev": "0x0000000000000000000000000000000000000000",
                                                                            "typeTag": 1
                                                                        }
                                                                    }
                                                                ],
                                                                "typeTag": 3
                                                            }
                                                        }
                                                    ],
                                                    "typeTag": 4
                                                }
                                            },
                                            {
                                                "name": "latestOffer",
                                                "type": "uint256",
                                                "value": {
                                                    "current": "10718254",
                                                    "prev": "10718244",
                                                    "typeTag": 1
                                                }
                                            }
                                        ],
                                        "typeTag": 3
                                    }
                                }
                            ],
                            "typeTag": 4
                        }
                    }
                ]
            },
            {
                "address": "0xc40d7b9ca90eaca4a6e067b6ec689fd29f4a8b3c",
                "erc": "",
                "slots": [
                    {
                        "current": "0x00000000000000000000000000000000000000000000000004a91282c078c000",
                        "key": "0x290decd9548b62a8d60345a988386fc84ba6bc95484008f6362f93160ef51eee",
                        "prev": "0x0000000000000000000000000000000000000000000000000000000000000000"
                    },
                    {
                        "current": "0x0000000000000000000000000000000000000000000000008ac7230489e80000",
                        "key": "0x290decd9548b62a8d60345a988386fc84ba6bc95484008f6362f93160ef51eef",
                        "prev": "0x0000000000000000000000000000000000000000000000000000000000000000"
                    },
                    {
                        "current": "0x00000000000000000000000000000000000000000000000004a91282c078c000",
                        "key": "0x290decd9548b62a8d60345a988386fc84ba6bc95484008f6362f93160ef51ef0",
                        "prev": "0x0000000000000000000000000000000000000000000000000000000000000000"
                    },
                    {
                        "current": "0x0000000000000000000000000000000000000000000000000000000000002732",
                        "key": "0x0000000000000000000000000000000000000000000000000000000000000000",
                        "prev": "0x0000000000000000000000000000000000000000000000000000000000002731"
                    },
                    {
                        "current": "0x0000000000000000000000000316eb71485b0ab14103307bf65a021042c6d380",
                        "key": "0x290decd9548b62a8d60345a988386fc84ba6bc95484008f6362f93160ef51eec",
                        "prev": "0x0000000000000000000000000000000000000000000000000000000000000000"
                    },
                    {
                        "current": "0x0000000000000000000000000000000000000000000000020f5b1eaad8d80000",
                        "key": "0x7d63056e4e3d481d27b8ab5817a2a2a14ac247077a8aa685b225f1ffa64fbae7",
                        "prev": "0x0000000000000000000000000000000000000000000000000000000000000000"
                    },
                    {
                        "current": "0x0000000000000000000000000000000000000000000000008ac7230489e80000",
                        "key": "0x290decd9548b62a8d60345a988386fc84ba6bc95484008f6362f93160ef51eed",
                        "prev": "0x0000000000000000000000000000000000000000000000000000000000000000"
                    },
                    {
                        "current": "0x000000000000000000000000000000000000000000000000016345785d8a0000",
                        "key": "0x290decd9548b62a8d60345a988386fc84ba6bc95484008f6362f93160ef51ef2",
                        "prev": "0x0000000000000000000000000000000000000000000000000000000000000000"
                    },
                    {
                        "current": "0x0000000000000000000000000000000000000000000000000000000000a38c15",
                        "key": "0x290decd9548b62a8d60345a988386fc84ba6bc95484008f6362f93160ef51ef1",
                        "prev": "0x0000000000000000000000000000000000000000000000000000000000000000"
                    },
                    {
                        "current": "0x0000000000000000000000001631cd8983a2119556a5625cbf5592fa89c31b07",
                        "key": "0x290decd9548b62a8d60345a988386fc84ba6bc95484008f6362f93160ef51eeb",
                        "prev": "0x0000000000000000000000000000000000000000000000000000000000000000"
                    },
                    {
                        "current": "0x000000000000000000000000000000000000000000000000016345785d8a0000",
                        "key": "0x380e7762dc3a86855860a94026db0af15492154302d7ef4de2dcc8f22c6f60c0",
                        "prev": "0x0000000000000000000000000000000000000000000000000000000000000000"
                    }
                ],
                "storageVariables": [
                    {
                        "name": "_blockMining",
                        "type": "mapping(uint256 => mapping(address => uint256))",
                        "value": {
                            "pairs": [
                                {
                                    "key": "10718229",
                                    "value": {
                                        "pairs": [
                                            {
                                                "key": "0x0316eb71485b0ab14103307bf65a021042c6d380",
                                                "value": {
                                                    "current": "38000000000000000000",
                                                    "prev": "0",
                                                    "typeTag": 1
                                                }
                                            }
                                        ],
                                        "typeTag": 4
                                    }
                                }
                            ],
                            "typeTag": 4
                        }
                    },
                    {
                        "name": "_blockOfferAmount",
                        "type": "mapping(uint256 => mapping(address => uint256))",
                        "value": {
                            "pairs": [
                                {
                                    "key": "10718229",
                                    "value": {
                                        "pairs": [
                                            {
                                                "key": "0x0316eb71485b0ab14103307bf65a021042c6d380",
                                                "value": {
                                                    "current": "100000000000000000",
                                                    "prev": "0",
                                                    "typeTag": 1
                                                }
                                            }
                                        ],
                                        "typeTag": 4
                                    }
                                }
                            ],
                            "typeTag": 4
                        }
                    },
                    {
                        "name": "_prices",
                        "type": "struct Nest_NToken_OfferMain.Nest_NToken_OfferPriceData[]",
                        "value": {
                            "elemType": "struct Nest_NToken_OfferMain.Nest_NToken_OfferPriceData",
                            "elems": [
                                {
                                    "index": 10033,
                                    "value": {
                                        "fields": [
                                            {
                                                "name": "owner",
                                                "type": "address",
                                                "value": {
                                                    "current": "0x1631cd8983a2119556a5625cbf5592fa89c31b07",
                                                    "prev": "0x0000000000000000000000000000000000000000",
                                                    "typeTag": 1
                                                }
                                            },
                                            {
                                                "name": "deviate",
                                                "type": "bool",
                                                "value": {
                                                    "current": "false",
                                                    "prev": "false",
                                                    "typeTag": 1
                                                }
                                            },
                                            {
                                                "name": "tokenAddress",
                                                "type": "address",
                                                "value": {
                                                    "current": "0x0316eb71485b0ab14103307bf65a021042c6d380",
                                                    "prev": "0x0000000000000000000000000000000000000000",
                                                    "typeTag": 1
                                                }
                                            },
                                            {
                                                "name": "ethAmount",
                                                "type": "uint256",
                                                "value": {
                                                    "current": "10000000000000000000",
                                                    "prev": "0",
                                                    "typeTag": 1
                                                }
                                            },
                                            {
                                                "name": "tokenAmount",
                                                "type": "uint256",
                                                "value": {
                                                    "current": "335820000000000000",
                                                    "prev": "0",
                                                    "typeTag": 1
                                                }
                                            },
                                            {
                                                "name": "dealEthAmount",
                                                "type": "uint256",
                                                "value": {
                                                    "current": "10000000000000000000",
                                                    "prev": "0",
                                                    "typeTag": 1
                                                }
                                            },
                                            {
                                                "name": "dealTokenAmount",
                                                "type": "uint256",
                                                "value": {
                                                    "current": "335820000000000000",
                                                    "prev": "0",
                                                    "typeTag": 1
                                                }
                                            },
                                            {
                                                "name": "blockNum",
                                                "type": "uint256",
                                                "value": {
                                                    "current": "10718229",
                                                    "prev": "0",
                                                    "typeTag": 1
                                                }
                                            },
                                            {
                                                "name": "serviceCharge",
                                                "type": "uint256",
                                                "value": {
                                                    "current": "100000000000000000",
                                                    "prev": "0",
                                                    "typeTag": 1
                                                }
                                            }
                                        ],
                                        "typeTag": 3
                                    }
                                }
                            ],
                            "typeTag": 2
                        }
                    }
                ]
            },
            {
                "address": "0xc728693dcf6b257bf88577d6c92e52028426eefd",
                "erc": "",
                "slots": [
                    {
                        "current": "0x0000000000000000000000000000000000000000000000001ded5834b6473800",
                        "key": "0x8352a57f5e4e643dd37c93ba4721bcb60746199ca5890eb5c7788f3a9be54644",
                        "prev": "0x00000000000000000000000000000000000000000000000022966ab776bff800"
                    },
                    {
                        "current": "0x0000000000000000000000000000000000000000000000001749c5f6cf22a000",
                        "key": "0xfba15ecdc097da6ab5c6feb3ed5c06d219e2275d13c047dc56577cdc314dadcc",
                        "prev": "0x00000000000000000000000000000000000000000000000012a0b3740ea9e000"
                    },
                    {
                        "current": "0x000000000000000000000000000000000000000c9f2c9c96ba67dfdb06b69fff",
                        "key": "0xf1fe73ae965dcd5bc8adb25d3600a1f285a0223e55a16d4fcc3c0e9898be75c4",
                        "prev": "0x000000000000000000000000000000000000000c9f2c9c96bf10f25dc72f5fff"
                    }
                ],
                "storageVariables": [
                    {
                        "name": "allowed",
                        "type": "mapping(address => mapping(address => uint256))",
                        "value": {
                            "pairs": [
                                {
                                    "key": "0x1631cd8983a2119556a5625cbf5592fa89c31b07",
                                    "value": {
                                        "pairs": [
                                            {
                                                "key": "0xc40d7b9ca90eaca4a6e067b6ec689fd29f4a8b3c",
                                                "value": {
                                                    "current": "999999998938443849999999999999",
                                                    "prev": "999999998938779669999999999999",
                                                    "typeTag": 1
                                                }
                                            }
                                        ],
                                        "typeTag": 4
                                    }
                                }
                            ],
                            "typeTag": 4
                        }
                    },
                    {
                        "name": "balances",
                        "type": "mapping(address => uint256)",
                        "value": {
                            "pairs": [
                                {
                                    "key": "0x1631cd8983a2119556a5625cbf5592fa89c31b07",
                                    "value": {
                                        "current": "2156476780000000000",
                                        "prev": "2492296780000000000",
                                        "typeTag": 1
                                    }
                                },
                                {
                                    "key": "0xc40d7b9ca90eaca4a6e067b6ec689fd29f4a8b3c",
                                    "value": {
                                        "current": "1678090000000000000",
                                        "prev": "1342270000000000000",
                                        "typeTag": 1
                                    }
                                }
                            ],
                            "typeTag": 4
                        }
                    }
                ]
            }
        ]
    }
}