{
    "balance_change": {
        "balanceChanges": [
            {
                "account": "0xede26ccc85ae521d06b5ef2604952a421c9124b6",
                "assets": [
                    {
                        "address": "0xeeeeeeeeeeeeeeeeeeeeeeeeeeeeeeeeeeeeeeee",
                        "amount": "0.771916378697285352",
                        "iconUrl": "https://assets.blocksec.com/image/1663669189317-3.png",
                        "isERC1155": false,
                        "isERC721": false,
                        "sign": false,
                        "value": "2515.809213"
                    }
                ]
            },
            {
                "account": "0xff4c3a1c05aeff2cd60afe0bfe9982e41db77d2b",
                "assets": [
                    {
                        "address": "0xeeeeeeeeeeeeeeeeeeeeeeeeeeeeeeeeeeeeeeee",
                        "amount": "0.771916378697285352",
                        "iconUrl": "https://assets.blocksec.com/image/1663669189317-3.png",
                        "isERC1155": false,
                        "isERC721": false,
                        "sign": true,
                        "value": "2515.809213"
                    }
                ]
            }
        ]
    },
    "profile": {
        "basic_info": {
            "baseFee": "66.870022253",
            "blockNumber": 13111279,
            "callData": "0x8eb4e0ad0000000000000000000000000000000000000000000000000000000000000140000000000000000000000000000000000000000000000000000000000000018000000000000000000000000000000000000000000000000000000000000001c000000000000000000000000000000000000000000000000000000000000002000000000000000000000000000000000000000000000000000000000000000240000000000000000000000000000000000000000000000000000000000000028000000000000000000000000000000000000000000000000000000000000002c00000000000000000000000000000000000000000000000000000000000000300000000000000000000000000000000000000000000000000000000000000034000000000000000000000000000000000000000000000000000000000000003800000000000000000000000000000000000000000000000000000000000000001254068aa31194d388af7a20d17835cc40000000000000000000000000000000000000000000000000000000000000000000000000000000000000000000000010000000000000000000000009ca7ea4d0b546f3f38a978b66f57314277adc3860000000000000000000000000000000000000000000000000000000000000001000000000000000000000000ff4c3a1c05aeff2cd60afe0bfe9982e41db77d2b00000000000000000000000000000000000000000000000000000000000000010000000000000000000000000000000000000000000000000add276d2780b800000000000000000000000000000000000000000000000000000000000000000100000000000000000000000000000000000000000000000000000000000000640000000000000000000000000000000000000000000000000000000000000001000000000000000000000000000000000000000000000000000009184e72a0000000000000000000000000000000000000000000000000000000000000000001000000000000000000000000000000000000000000000000000000000000001c0000000000000000000000000000000000000000000000000000000000000001dd365c75dea991aafdc75e55f52b9ef0a4a144b0043a311a86a47d5781e8297d000000000000000000000000000000000000000000000000000000000000000168f7d5f570b7971ed64ff1267d44f3056b805372b2a0f2c5092160b24164466f00000000000000000000000000000000000000000000000000000000000000010000000000000000000000000000000000000000000000000000000000000005",
            "debugEnable": true,
            "errorInfo": "",
            "eventCount": 1,
            "feeRecipient": "0x0708f87a089a91c65d48721aa941084648562287",
            "formatValue": "0",
            "gasLimit": 158844,
            "gasPrice": "67.879179947",
            "gasUsed": 55325,
            "intTxnCount": 2,
            "internalRevert": false,
            "internalRevertMessage": "",
            "isContractCreation": false,
            "isFlashloan": false,
            "maxFee": "",
            "nonce": 4753,
            "overwritedBlockNumber": -1,
            "priorityFee": "",
            "receiver": "0xede26ccc85ae521d06b5ef2604952a421c9124b6",
            "revertMessage": "",
            "sender": "0x6be986730e72fcd23910d66a1722b4b3611e50d2",
            "simulationEnable": true,
            "sourceTxnHash": "0x75bb2b406fd7f5eabc3d7c217a2bd327247a5f997d633a7f322c4764d3a3d8a5",
            "status": true,
            "timestamp": "2021-08-28T02:47:44Z",
            "transactionFee": "0.003755415630567775",
            "txnHash": "0x75bb2b406fd7f5eabc3d7c217a2bd327247a5f997d633a7f322c4764d3a3d8a5",
            "txnIndex": 83,
            "type": 0,
            "value": "0"
        },
        "fund_flow": [
            {
                "amount": "0.771916378697285352",
                "from": "0xede26ccc85ae521d06b5ef2604952a421c9124b6",
                "id": 1,
                "isERC1155": false,
                "isERC721": false,
                "isReverted": false,
                "order": 1,
                "to": "0xff4c3a1c05aeff2cd60afe0bfe9982e41db77d2b",
                "token": "0xeeeeeeeeeeeeeeeeeeeeeeeeeeeeeeeeeeeeeeee"
            }
        ],
        "token_infos": [
            {
                "address": "0xc02aaa39b223fe8d0a0e5c4f27ead9083c756cc2",
                "decimals": 18
            },
            {
                "address": "0xeeeeeeeeeeeeeeeeeeeeeeeeeeeeeeeeeeeeeeee",
                "decimals": 18
            }
        ]
    },
    "address_label": {
        "labels": [
            {
                "address": "0x0000000000000000000000000000000000000004",
                "label": "Precompiled"
            },
            {
                "address": "0xeeeeeeeeeeeeeeeeeeeeeeeeeeeeeeeeeeeeeeee",
                "label": "Ether"
            },
            {
                "address": "0xede26ccc85ae521d06b5ef2604952a421c9124b6",
                "label": "LocalCryptosETHEscrows"
            },
            {
                "address": "0x0000000000000000000000000000000000000001",
                "label": "Precompiled"
            },
            {
                "address": "0x0000000000000000000000000000000000000002",
                "label": "Precompiled"
            },
            {
                "address": "0x0000000000000000000000000000000000000003",
                "label": "Precompiled"
            }
        ]
    },
    "trace": {
        "accountLabels": null,
        "dataMap": {
            "-1": {
                "invocation": {
                    "address": "0x6be986730e72fcd23910d66a1722b4b3611e50d2",
                    "callData": "",
                    "decodedMethod": null,
                    "errorInfo": "",
                    "fromAddress": "",
                    "gasUsed": 0,
                    "id": -1,
                    "methodDecoded": false,
                    "operation": "",
                    "output": "",
                    "revert": false,
                    "revertMessage": "",
                    "selector": "",
                    "status": false,
                    "value": ""
                },
                "nodeType": 0
            },
            "0": {
                "invocation": {
                    "address": "0xede26ccc85ae521d06b5ef2604952a421c9124b6",
                    "callData": "0x0000000000000000000000000000000000000000000000000000000000000140000000000000000000000000000000000000000000000000000000000000018000000000000000000000000000000000000000000000000000000000000001c000000000000000000000000000000000000000000000000000000000000002000000000000000000000000000000000000000000000000000000000000000240000000000000000000000000000000000000000000000000000000000000028000000000000000000000000000000000000000000000000000000000000002c00000000000000000000000000000000000000000000000000000000000000300000000000000000000000000000000000000000000000000000000000000034000000000000000000000000000000000000000000000000000000000000003800000000000000000000000000000000000000000000000000000000000000001254068aa31194d388af7a20d17835cc40000000000000000000000000000000000000000000000000000000000000000000000000000000000000000000000010000000000000000000000009ca7ea4d0b546f3f38a978b66f57314277adc3860000000000000000000000000000000000000000000000000000000000000001000000000000000000000000ff4c3a1c05aeff2cd60afe0bfe9982e41db77d2b00000000000000000000000000000000000000000000000000000000000000010000000000000000000000000000000000000000000000000add276d2780b800000000000000000000000000000000000000000000000000000000000000000100000000000000000000000000000000000000000000000000000000000000640000000000000000000000000000000000000000000000000000000000000001000000000000000000000000000000000000000000000000000009184e72a0000000000000000000000000000000000000000000000000000000000000000001000000000000000000000000000000000000000000000000000000000000001c0000000000000000000000000000000000000000000000000000000000000001dd365c75dea991aafdc75e55f52b9ef0a4a144b0043a311a86a47d5781e8297d000000000000000000000000000000000000000000000000000000000000000168f7d5f570b7971ed64ff1267d44f3056b805372b2a0f2c5092160b24164466f00000000000000000000000000000000000000000000000000000000000000010000000000000000000000000000000000000000000000000000000000000005",
                    "decodedMethod": {
                        "callParams": [
                            {
                                "name": "_tradeID",
                                "type": "bytes16[]",
                                "value": [
                                    "0x254068aa31194d388af7a20d17835cc4"
                                ]
                            },
                            {
                                "name": "_seller",
                                "type": "address[]",
                                "value": [
                                    "0x9ca7ea4d0b546f3f38a978b66f57314277adc386"
                                ]
                            },
                            {
                                "name": "_buyer",
                                "type": "address[]",
                                "value": [
                                    "0xff4c3a1c05aeff2cd60afe0bfe9982e41db77d2b"
                                ]
                            },
                            {
                                "name": "_value",
                                "type": "uint256[]",
                                "value": [
                                    "782,825,260,000,000,000"
                                ]
                            },
                            {
                                "name": "_fee",
                                "type": "uint16[]",
                                "value": [
                                    "100"
                                ]
                            },
                            {
                                "name": "_maximumGasPrice",
                                "type": "uint128[]",
                                "value": [
                                    "10,000,000,000,000"
                                ]
                            },
                            {
                                "name": "_v",
                                "type": "uint8[]",
                                "value": [
                                    "28"
                                ]
                            },
                            {
                                "name": "_r",
                                "type": "bytes32[]",
                                "value": [
                                    "0xdd365c75dea991aafdc75e55f52b9ef0a4a144b0043a311a86a47d5781e8297d"
                                ]
                            },
                            {
                                "name": "_s",
                                "type": "bytes32[]",
                                "value": [
                                    "0x68f7d5f570b7971ed64ff1267d44f3056b805372b2a0f2c5092160b24164466f"
                                ]
                            },
                            {
                                "name": "_instructionByte",
                                "type": "uint8[]",
                                "value": [
                                    "5"
                                ]
                            }
                        ],
                        "constructorArguments": "",
                        "name": "batchRelay",
                        "returnParams": [
                            {
                                "name": "",
                                "type": "bool[]",
                                "value": [
                                    true
                                ]
                            }
                        ],
                        "signature": "batchRelay(bytes16[],address[],address[],uint256[],uint16[],uint128[],uint8[],bytes32[],bytes32[],uint8[])"
                    },
                    "errorInfo": "",
                    "fromAddress": "0x6be986730e72fcd23910d66a1722b4b3611e50d2",
                    "gasUsed": 55325,
                    "id": 0,
                    "methodDecoded": true,
                    "operation": "CALL",
                    "output": "0x000000000000000000000000000000000000000000000000000000000000002000000000000000000000000000000000000000000000000000000000000000010000000000000000000000000000000000000000000000000000000000000001",
                    "revert": false,
                    "revertMessage": "",
                    "selector": "0x8eb4e0ad",
                    "status": true,
                    "value": "0"
                },
                "nodeType": 0
            },
            "1": {
                "invocation": {
                    "address": "0x0000000000000000000000000000000000000001",
                    "callData": "0x694bd6c8e8b3227b53b18bde4a5cde4b6618cc93d02359adbb6b0842000000000000000000000000000000000000000000000000000000000000001cdd365c75dea991aafdc75e55f52b9ef0a4a144b0043a311a86a47d5781e8297d68f7d5f570b7971ed64ff1267d44f3056b805372b2a0f2c5092160b24164466f",
                    "decodedMethod": {
                        "callParams": [
                            {
                                "name": "hash",
                                "type": "bytes32",
                                "value": "0x130a3384694bd6c8e8b3227b53b18bde4a5cde4b6618cc93d02359adbb6b0842"
                            },
                            {
                                "name": "v",
                                "type": "uint256",
                                "value": "28"
                            },
                            {
                                "name": "r",
                                "type": "bytes32",
                                "value": "0xdd365c75dea991aafdc75e55f52b9ef0a4a144b0043a311a86a47d5781e8297d"
                            },
                            {
                                "name": "s",
                                "type": "bytes32",
                                "value": "0x68f7d5f570b7971ed64ff1267d44f3056b805372b2a0f2c5092160b24164466f"
                            }
                        ],
                        "constructorArguments": "",
                        "name": "ecrecover",
                        "returnParams": [
                            {
                                "name": "",
                                "type": "address",
                                "value": "0x9ca7ea4d0b546f3f38a978b66f57314277adc386"
                            }
                        ],
                        "signature": "ecrecover(bytes32,uint256,bytes32,bytes32)"
                    },
                    "errorInfo": "",
                    "fromAddress": "0xede26ccc85ae521d06b5ef2604952a421c9124b6",
                    "gasUsed": 3000,
                    "id": 1,
                    "methodDecoded": true,
                    "operation": "STATICCALL",
                    "output": "0x0000000000000000000000009ca7ea4d0b546f3f38a978b66f57314277adc386",
                    "revert": false,
                    "revertMessage": "",
                    "selector": "0x130a3384",
                    "status": true,
                    "value": "0"
                },
                "nodeType": 0
            },
            "2": {
                "event": {
                    "contract": "0xede26ccc85ae521d06b5ef2604952a421c9124b6",
                    "decodedLog": {
                        "name": "Released",
                        "params": [
                            {
                                "name": "_tradeHash",
                                "type": "bytes32",
                                "value": "0x48339f653fb511da857de921f894f3b267d72bf1e53a9ab9b00bc8eda7f4d9c0"
                            }
                        ],
                        "signature": "Released(bytes32)"
                    },
                    "id": 2,
                    "logData": "0x",
                    "logDecoded": true,
                    "operation": "EVENT",
                    "revert": false,
                    "status": true,
                    "topics": [
                        "0x6eec2dd2382427616d4ea7ef183b16091feac4e2e63c8b55f25215f132df8d14",
                        "0x48339f653fb511da857de921f894f3b267d72bf1e53a9ab9b00bc8eda7f4d9c0"
                    ]
                },
                "nodeType": 1
            },
            "3": {
                "invocation": {
                    "address": "0xff4c3a1c05aeff2cd60afe0bfe9982e41db77d2b",
                    "callData": "0x",
                    "decodedMethod": null,
                    "errorInfo": "",
                    "fromAddress": "0xede26ccc85ae521d06b5ef2604952a421c9124b6",
                    "gasUsed": 0,
                    "id": 3,
                    "methodDecoded": false,
                    "operation": "CALL",
                    "output": "",
                    "revert": false,
                    "revertMessage": "",
                    "selector": "fallback",
                    "status": true,
                    "value": "0.771916378697285352"
                },
                "nodeType": 0
            }
        },
        "gasFlame": [
            {
                "children": [
                    {
                        "children": [
                            {
                                "children": [],
                                "depth": 0,
                                "name": "Initial Gas",
                                "value": 26860
                            },
                            {
                                "children": [
                                    {
                                        "children": [],
                                        "depth": 1,
                                        "name": "ecrecover",
                                        "value": 3000
                                    },
                                    {
                                        "children": [],
                                        "depth": 1,
                                        "name": "fallback",
                                        "value": 0
                                    }
                                ],
                                "depth": 0,
                                "name": "Executed Gas",
                                "value": 33265
                            }
                        ],
                        "depth": -1,
                        "name": "Actual Gas Used",
                        "value": 55325
                    },
                    {
                        "children": [],
                        "depth": -1,
                        "name": "Refunded Gas",
                        "value": 4800
                    }
                ],
                "depth": -2,
                "name": "Total Gas",
                "value": 60125
            }
        ],
        "isConfirmed": true,
        "mainTrace": [
            {
                "children": [
                    {
                        "children": [
                            {
                                "children": [],
                                "depth": 1,
                                "id": 1,
                                "order": 1
                            },
                            {
                                "children": [],
                                "depth": 1,
                                "id": 2,
                                "order": 2
                            },
                            {
                                "children": [],
                                "depth": 1,
                                "id": 3,
                                "order": 3
                            }
                        ],
                        "depth": 0,
                        "id": 0,
                        "order": 0
                    }
                ],
                "depth": -1,
                "id": -1,
                "order": -1
            }
        ],
        "mainTraceNodeCount": 4,
        "parentIdMap": {
            "0": -1,
            "1": 0,
            "2": 0,
            "3": 0
        },
        "tidyTrace": [
            {
                "children": [
                    {
                        "children": [
                            {
                                "children": [],
                                "depth": 1,
                                "id": 2,
                                "order": 2
                            },
                            {
                                "children": [],
                                "depth": 1,
                                "id": 3,
                                "order": 3
                            }
                        ],
                        "depth": 0,
                        "id": 0,
                        "order": 0
                    }
                ],
                "depth": -1,
                "id": -1,
                "order": -1
            }
        ],
        "tidyTraceNodeCount": 3
    },
    "state_change": {
        "stateChanges": [
            {
                "address": "0xede26ccc85ae521d06b5ef2604952a421c9124b6",
                "erc": "",
                "slots": [
                    {
                        "current": "0x000000000000000000000000000000000000000000000000edf93ede24139d22",
                        "key": "0x0000000000000000000000000000000000000000000000000000000000000005",
                        "prev": "0x000000000000000000000000000000000000000000000000edd27d4c4921a40a"
                    },
                    {
                        "current": "0x0000000000000000000000000000000000000000000000000000000000000000",
                        "key": "0xcc5bb7c55cd6c707007c3b9b96289845b12f5b8d856ea6273edce002ca7d7407",
                        "prev": "0x0000000000000000000000000000000000000000000000000000006129abcf01"
                    }
                ],
                "storageVariables": [
                    {
                        "name": "feesAvailableForWithdraw",
                        "type": "uint256",
                        "value": {
                            "current": "17147806179998801186",
                            "prev": "17136897298696086538",
                            "typeTag": 1
                        }
                    },
                    {
                        "name": "escrows",
                        "type": "mapping(bytes32 => struct LocalCryptosETHEscrows.Escrow)",
                        "value": {
                            "pairs": [
                                {
                                    "key": "0x48339f653fb511da857de921f894f3b267d72bf1e53a9ab9b00bc8eda7f4d9c0",
                                    "value": {
                                        "fields": [
                                            {
                                                "name": "exists",
                                                "type": "bool",
                                                "value": {
                                                    "current": "false",
                                                    "prev": "true",
                                                    "typeTag": 1
                                                }
                                            },
                                            {
                                                "name": "sellerCanCancelAfter",
                                                "type": "uint32",
                                                "value": {
                                                    "current": "0",
                                                    "prev": "1630120911",
                                                    "typeTag": 1
                                                }
                                            },
                                            {
                                                "name": "totalGasFeesSpentByRelayer",
                                                "type": "uint128",
                                                "value": {
                                                    "current": "0",
                                                    "prev": "0",
                                                    "typeTag": 1
                                                }
                                            }
                                        ],
                                        "typeTag": 3
                                    }
                                }
                            ],
                            "typeTag": 4
                        }
                    }
                ]
            }
        ]
    }
}