{
    "balance_change": {
        "balanceChanges": [
            {
                "account": "0xe697a9f14f182c5291287dbeb47d41773091f035",
                "assets": [
                    {
                        "address": "0xc02aaa39b223fe8d0a0e5c4f27ead9083c756cc2",
                        "amount": "0.000000000000001037",
                        "iconUrl": "https://assets.blocksec.com/icon/f1cb2d02c471d545bbc7722daf3277fd852d98e63d118771af7047bd8256c516.png",
                        "isERC1155": false,
                        "isERC721": false,
                        "sign": false,
                        "value": ""
                    },
                    {
                        "address": "0x2d0ea9f9591205a642eb01826ba4fa019eb0efc6",
                        "amount": "42",
                        "iconUrl": "",
                        "isERC1155": false,
                        "isERC721": false,
                        "sign": true,
                        "value": ""
                    }
                ]
            },
            {
                "account": "0x1b2a9cc5ea11c11b70908d75207b5b1f0ac4a839",
                "assets": [
                    {
                        "address": "0x2d0ea9f9591205a642eb01826ba4fa019eb0efc6",
                        "amount": "42",
                        "iconUrl": "",
                        "isERC1155": false,
                        "isERC721": false,
                        "sign": false,
                        "value": ""
                    },
                    {
                        "address": "0xc02aaa39b223fe8d0a0e5c4f27ead9083c756cc2",
                        "amount": "0.000000000000001037",
                        "iconUrl": "https://assets.blocksec.com/icon/f1cb2d02c471d545bbc7722daf3277fd852d98e63d118771af7047bd8256c516.png",
                        "isERC1155": false,
                        "isERC721": false,
                        "sign": true,
                        "value": ""
                    }
                ]
            }
        ]
    },
    "profile": {
        "basic_info": {
            "baseFee": "",
            "blockNumber": 6341605,
            "callData": "0x4f15078700000000000000000000000000000000000000000000000000000000000000c0000000000000000000000000000000000000000000000000000000000000022000000000000000000000000000000000000000000000000000000000000003c00000000000000000000000000000000000000000000000000000000000000420000000000000000000000000000000000000000000000000000000000000048000000000000000000000000000000000000000000000000000000000000004e000000000000000000000000000000000000000000000000000000000000000020000000000000000000000001b2a9cc5ea11c11b70908d75207b5b1f0ac4a839000000000000000000000000e697a9f14f182c5291287dbeb47d41773091f035000000000000000000000000c02aaa39b223fe8d0a0e5c4f27ead9083c756cc20000000000000000000000002d0ea9f9591205a642eb01826ba4fa019eb0efc60000000000000000000000008124071f810d533ff63de61d0c98db99eeb99d640000000000000000000000001b2a9cc5ea11c11b70908d75207b5b1f0ac4a839000000000000000000000000e697a9f14f182c5291287dbeb47d41773091f0350000000000000000000000002d0ea9f9591205a642eb01826ba4fa019eb0efc6000000000000000000000000c02aaa39b223fe8d0a0e5c4f27ead9083c756cc20000000000000000000000008124071f810d533ff63de61d0c98db99eeb99d640000000000000000000000000000000000000000000000000000000000000002000000000000000000000000000000000000000000000000e29fd07ade20f830000000000000000000000000000000000000000000000058866d6ffec4e400000000000000000000000000000000000000000000000000000000000000000000000000000000000000000000000000000000000000000000000000000000000000000000000000000000000000000000000000000000000000000165df6ac83dae027079f30800a5638e885c864774d42d894a39e20b5b1361ba84b4b219e81600000000000000000000000000000000000000000000005be2d9af814f1c0000000000000000000000000000000000000000000000000000eb3a7f31eedefc180000000000000000000000000000000000000000000000000000000000000000000000000000000000000000000000000000000000000000000000000000000000000000000000000000000000000000000000000000000000000165df6c49a1acae2c07d5bfc98859f5ef87a26012556471f2ecf826231d416988874ca9d5d80000000000000000000000000000000000000000000000000000000000000002000000000000000000000000000000000000000000000058866d6ffec4e40000000000000000000000000000000000000000000000000000e29fd07ade20fc3d0000000000000000000000000000000000000000000000000000000000000002000000000000000000000000000000000000000000000000000000000000001c000000000000000000000000000000000000000000000000000000000000001b0000000000000000000000000000000000000000000000000000000000000002ae0a295b476c74573f18ee66655cbd4abdfea6266a1da85318b40cdc8db6737d3f63e15187254d55d40e0fc84d42244f67cc7d44f929a9f30e49647734d7a6f900000000000000000000000000000000000000000000000000000000000000024508c8d0ad86ebf273554d79ec54870ed3fdc881a91c8520c75ae3426fc2ea030a8cea39e55fab0864e5ced2e8691abc1023a8c747b1145754e7b6772aa41919",
            "debugEnable": true,
            "errorInfo": "",
            "eventCount": 6,
            "feeRecipient": "0x5a0b54d5dc17e0aadc383d2db43b0a0d3e029c4c",
            "formatValue": "0",
            "gasLimit": 5000000,
            "gasPrice": "5",
            "gasUsed": 242781,
            "intTxnCount": 26,
            "internalRevert": false,
            "internalRevertMessage": "",
            "isContractCreation": false,
            "isFlashloan": false,
            "maxFee": "",
            "nonce": 7354,
            "overwritedBlockNumber": -1,
            "priorityFee": "",
            "receiver": "0x12459c951127e0c374ff9105dda097662a027093",
            "revertMessage": "",
            "sender": "0xe697a9f14f182c5291287dbeb47d41773091f035",
            "simulationEnable": true,
            "sourceTxnHash": "0x767b24b331ba83ad10d2501ae1479196315f3be4b4052cb2b4bc604d08652031",
            "status": true,
            "timestamp": "2018-09-16T10:00:22Z",
            "transactionFee": "0.001213905",
            "txnHash": "0x767b24b331ba83ad10d2501ae1479196315f3be4b4052cb2b4bc604d08652031",
            "txnIndex": 13,
            "type": 0,
            "value": "0"
        },
        "fund_flow": [
            {
                "amount": "16.329999999999998",
                "from": "0x1b2a9cc5ea11c11b70908d75207b5b1f0ac4a839",
                "id": 1,
                "isERC1155": false,
                "isERC721": false,
                "isReverted": false,
                "order": 1,
                "to": "0xe697a9f14f182c5291287dbeb47d41773091f035",
                "token": "0xc02aaa39b223fe8d0a0e5c4f27ead9083c756cc2"
            },
            {
                "amount": "1,633,000,000,000,000,000,000",
                "from": "0xe697a9f14f182c5291287dbeb47d41773091f035",
                "id": 2,
                "isERC1155": false,
                "isERC721": false,
                "isReverted": false,
                "order": 2,
                "to": "0x1b2a9cc5ea11c11b70908d75207b5b1f0ac4a839",
                "token": "0x2d0ea9f9591205a642eb01826ba4fa019eb0efc6"
            },
            {
                "amount": "1,633,000,000,000,000,000,042",
                "from": "0x1b2a9cc5ea11c11b70908d75207b5b1f0ac4a839",
                "id": 3,
                "isERC1155": false,
                "isERC721": false,
                "isReverted": false,
                "order": 3,
                "to": "0xe697a9f14f182c5291287dbeb47d41773091f035",
                "token": "0x2d0ea9f9591205a642eb01826ba4fa019eb0efc6"
            },
            {
                "amount": "16.329999999999999037",
                "from": "0xe697a9f14f182c5291287dbeb47d41773091f035",
                "id": 4,
                "isERC1155": false,
                "isERC721": false,
                "isReverted": false,
                "order": 4,
                "to": "0x1b2a9cc5ea11c11b70908d75207b5b1f0ac4a839",
                "token": "0xc02aaa39b223fe8d0a0e5c4f27ead9083c756cc2"
            }
        ],
        "token_infos": [
            {
                "address": "0xc02aaa39b223fe8d0a0e5c4f27ead9083c756cc2",
                "decimals": 18
            },
            {
                "address": "0xeeeeeeeeeeeeeeeeeeeeeeeeeeeeeeeeeeeeeeee",
                "decimals": 18
            }
        ]
    },
    "address_label": {
        "labels": [
            {
                "address": "0xeeeeeeeeeeeeeeeeeeeeeeeeeeeeeeeeeeeeeeee",
                "label": "Ether"
            },
            {
                "address": "0x8da0d80f5007ef1e431dd2127178d224e32c2ef4",
                "label": "0x: Token Transfer Proxy"
            },
            {
                "address": "0x12459c951127e0c374ff9105dda097662a027093",
                "label": "0x: Exchange v1"
            },
            {
                "address": "0xe41d2489571d322189246dafa5ebde1f4699f498",
                "label": "0x: ZRX Token"
            },
            {
                "address": "0x2d0ea9f9591205a642eb01826ba4fa019eb0efc6",
                "label": "BBTToken"
            },
            {
                "address": "0x0000000000000000000000000000000000000002",
                "label": "Precompiled"
            },
            {
                "address": "0x0000000000000000000000000000000000000003",
                "label": "Precompiled"
            },
            {
                "address": "0xc02aaa39b223fe8d0a0e5c4f27ead9083c756cc2",
                "label": "Wrapped Ether (WETH)"
            },
            {
                "address": "0x0000000000000000000000000000000000000001",
                "label": "Precompiled"
            },
            {
                "address": "0x0000000000000000000000000000000000000004",
                "label": "Precompiled"
            }
        ]
    },
    "trace": {
        "accountLabels": null,
        "dataMap": {
            "-1": {
                "invocation": {
                    "address": "0xe697a9f14f182c5291287dbeb47d41773091f035",
                    "callData": "",
                    "decodedMethod": null,
                    "errorInfo": "",
                    "fromAddress": "",
                    "gasUsed": 0,
                    "id": -1,
                    "methodDecoded": false,
                    "operation": "",
                    "output": "",
                    "revert": false,
                    "revertMessage": "",
                    "selector": "",
                    "status": false,
                    "value": ""
                },
                "nodeType": 0
            },
            "0": {
                "invocation": {
                    "address": "0x12459c951127e0c374ff9105dda097662a027093",
                    "callData": "0x00000000000000000000000000000000000000000000000000000000000000c0000000000000000000000000000000000000000000000000000000000000022000000000000000000000000000000000000000000000000000000000000003c00000000000000000000000000000000000000000000000000000000000000420000000000000000000000000000000000000000000000000000000000000048000000000000000000000000000000000000000000000000000000000000004e000000000000000000000000000000000000000000000000000000000000000020000000000000000000000001b2a9cc5ea11c11b70908d75207b5b1f0ac4a839000000000000000000000000e697a9f14f182c5291287dbeb47d41773091f035000000000000000000000000c02aaa39b223fe8d0a0e5c4f27ead9083c756cc20000000000000000000000002d0ea9f9591205a642eb01826ba4fa019eb0efc60000000000000000000000008124071f810d533ff63de61d0c98db99eeb99d640000000000000000000000001b2a9cc5ea11c11b70908d75207b5b1f0ac4a839000000000000000000000000e697a9f14f182c5291287dbeb47d41773091f0350000000000000000000000002d0ea9f9591205a642eb01826ba4fa019eb0efc6000000000000000000000000c02aaa39b223fe8d0a0e5c4f27ead9083c756cc20000000000000000000000008124071f810d533ff63de61d0c98db99eeb99d640000000000000000000000000000000000000000000000000000000000000002000000000000000000000000000000000000000000000000e29fd07ade20f830000000000000000000000000000000000000000000000058866d6ffec4e400000000000000000000000000000000000000000000000000000000000000000000000000000000000000000000000000000000000000000000000000000000000000000000000000000000000000000000000000000000000000000165df6ac83dae027079f30800a5638e885c864774d42d894a39e20b5b1361ba84b4b219e81600000000000000000000000000000000000000000000005be2d9af814f1c0000000000000000000000000000000000000000000000000000eb3a7f31eedefc180000000000000000000000000000000000000000000000000000000000000000000000000000000000000000000000000000000000000000000000000000000000000000000000000000000000000000000000000000000000000165df6c49a1acae2c07d5bfc98859f5ef87a26012556471f2ecf826231d416988874ca9d5d80000000000000000000000000000000000000000000000000000000000000002000000000000000000000000000000000000000000000058866d6ffec4e40000000000000000000000000000000000000000000000000000e29fd07ade20fc3d0000000000000000000000000000000000000000000000000000000000000002000000000000000000000000000000000000000000000000000000000000001c000000000000000000000000000000000000000000000000000000000000001b0000000000000000000000000000000000000000000000000000000000000002ae0a295b476c74573f18ee66655cbd4abdfea6266a1da85318b40cdc8db6737d3f63e15187254d55d40e0fc84d42244f67cc7d44f929a9f30e49647734d7a6f900000000000000000000000000000000000000000000000000000000000000024508c8d0ad86ebf273554d79ec54870ed3fdc881a91c8520c75ae3426fc2ea030a8cea39e55fab0864e5ced2e8691abc1023a8c747b1145754e7b6772aa41919",
                    "decodedMethod": {
                        "callParams": [
                            {
                                "name": "orderAddresses",
                                "type": "address[5][]",
                                "value": [
                                    [
                                        "0x1b2a9cc5ea11c11b70908d75207b5b1f0ac4a839",
                                        "0xe697a9f14f182c5291287dbeb47d41773091f035",
                                        "0xc02aaa39b223fe8d0a0e5c4f27ead9083c756cc2",
                                        "0x2d0ea9f9591205a642eb01826ba4fa019eb0efc6",
                                        "0x8124071f810d533ff63de61d0c98db99eeb99d64"
                                    ],
                                    [
                                        "0x1b2a9cc5ea11c11b70908d75207b5b1f0ac4a839",
                                        "0xe697a9f14f182c5291287dbeb47d41773091f035",
                                        "0x2d0ea9f9591205a642eb01826ba4fa019eb0efc6",
                                        "0xc02aaa39b223fe8d0a0e5c4f27ead9083c756cc2",
                                        "0x8124071f810d533ff63de61d0c98db99eeb99d64"
                                    ]
                                ]
                            },
                            {
                                "name": "orderValues",
                                "type": "uint256[6][]",
                                "value": [
                                    [
                                        "16,329,999,999,999,998,000",
                                        "1,633,000,000,000,000,000,000",
                                        "0",
                                        "0",
                                        "1,537,051,641,917",
                                        "78,706,745,630,956,474,536,726,128,287,462,672,416,521,037,115,271,371,168,935,242,037,262,267,574,294"
                                    ],
                                    [
                                        "1,695,000,000,000,000,000,000",
                                        "16,949,999,999,999,999,000",
                                        "0",
                                        "0",
                                        "1,537,051,740,577",
                                        "78,105,545,233,662,557,946,873,705,041,480,342,324,637,036,456,220,095,962,841,787,460,090,363,237,848"
                                    ]
                                ]
                            },
                            {
                                "name": "fillTakerTokenAmounts",
                                "type": "uint256[]",
                                "value": [
                                    "1,633,000,000,000,000,000,000",
                                    "16,329,999,999,999,999,037"
                                ]
                            },
                            {
                                "name": "v",
                                "type": "uint8[]",
                                "value": [
                                    "28",
                                    "27"
                                ]
                            },
                            {
                                "name": "r",
                                "type": "bytes32[]",
                                "value": [
                                    "0xae0a295b476c74573f18ee66655cbd4abdfea6266a1da85318b40cdc8db6737d",
                                    "0x3f63e15187254d55d40e0fc84d42244f67cc7d44f929a9f30e49647734d7a6f9"
                                ]
                            },
                            {
                                "name": "s",
                                "type": "bytes32[]",
                                "value": [
                                    "0x4508c8d0ad86ebf273554d79ec54870ed3fdc881a91c8520c75ae3426fc2ea03",
                                    "0x0a8cea39e55fab0864e5ced2e8691abc1023a8c747b1145754e7b6772aa41919"
                                ]
                            }
                        ],
                        "constructorArguments": "",
                        "name": "batchFillOrKillOrders",
                        "returnParams": [],
                        "signature": "batchFillOrKillOrders(address[5][],uint256[6][],uint256[],uint8[],bytes32[],bytes32[])"
                    },
                    "errorInfo": "",
                    "fromAddress": "0xe697a9f14f182c5291287dbeb47d41773091f035",
                    "gasUsed": 242781,
                    "id": 0,
                    "methodDecoded": true,
                    "operation": "CALL",
                    "output": "",
                    "revert": false,
                    "revertMessage": "",
                    "selector": "0x4f150787",
                    "status": true,
                    "value": "0"
                },
                "nodeType": 0
            },
            "1": {
                "invocation": {
                    "address": "0x0000000000000000000000000000000000000001",
                    "callData": "0x0532f6da893b0b32cdcc12e10510e1958912ccc2e2bb78079f664af2000000000000000000000000000000000000000000000000000000000000001cae0a295b476c74573f18ee66655cbd4abdfea6266a1da85318b40cdc8db6737d4508c8d0ad86ebf273554d79ec54870ed3fdc881a91c8520c75ae3426fc2ea03",
                    "decodedMethod": {
                        "callParams": [
                            {
                                "name": "hash",
                                "type": "bytes32",
                                "value": "0x231fa0850532f6da893b0b32cdcc12e10510e1958912ccc2e2bb78079f664af2"
                            },
                            {
                                "name": "v",
                                "type": "uint256",
                                "value": "28"
                            },
                            {
                                "name": "r",
                                "type": "bytes32",
                                "value": "0xae0a295b476c74573f18ee66655cbd4abdfea6266a1da85318b40cdc8db6737d"
                            },
                            {
                                "name": "s",
                                "type": "bytes32",
                                "value": "0x4508c8d0ad86ebf273554d79ec54870ed3fdc881a91c8520c75ae3426fc2ea03"
                            }
                        ],
                        "constructorArguments": "",
                        "name": "ecrecover",
                        "returnParams": [
                            {
                                "name": "",
                                "type": "address",
                                "value": "0x1b2a9cc5ea11c11b70908d75207b5b1f0ac4a839"
                            }
                        ],
                        "signature": "ecrecover(bytes32,uint256,bytes32,bytes32)"
                    },
                    "errorInfo": "",
                    "fromAddress": "0x12459c951127e0c374ff9105dda097662a027093",
                    "gasUsed": 3000,
                    "id": 1,
                    "methodDecoded": true,
                    "operation": "CALL",
                    "output": "0x0000000000000000000000001b2a9cc5ea11c11b70908d75207b5b1f0ac4a839",
                    "revert": false,
                    "revertMessage": "",
                    "selector": "0x231fa085",
                    "status": true,
                    "value": "0"
                },
                "nodeType": 0
            },
            "10": {
                "invocation": {
                    "address": "0x8da0d80f5007ef1e431dd2127178d224e32c2ef4",
                    "callData": "0x000000000000000000000000c02aaa39b223fe8d0a0e5c4f27ead9083c756cc20000000000000000000000001b2a9cc5ea11c11b70908d75207b5b1f0ac4a839000000000000000000000000e697a9f14f182c5291287dbeb47d41773091f035000000000000000000000000000000000000000000000000e29fd07ade20f830",
                    "decodedMethod": {
                        "callParams": [
                            {
                                "name": "token",
                                "type": "address",
                                "value": "0xc02aaa39b223fe8d0a0e5c4f27ead9083c756cc2"
                            },
                            {
                                "name": "from",
                                "type": "address",
                                "value": "0x1b2a9cc5ea11c11b70908d75207b5b1f0ac4a839"
                            },
                            {
                                "name": "to",
                                "type": "address",
                                "value": "0xe697a9f14f182c5291287dbeb47d41773091f035"
                            },
                            {
                                "name": "value",
                                "type": "uint256",
                                "value": "16,329,999,999,999,998,000"
                            }
                        ],
                        "constructorArguments": "",
                        "name": "transferFrom",
                        "returnParams": [
                            {
                                "name": "",
                                "type": "bool",
                                "value": true
                            }
                        ],
                        "signature": "transferFrom(address,address,address,uint256)"
                    },
                    "errorInfo": "",
                    "fromAddress": "0x12459c951127e0c374ff9105dda097662a027093",
                    "gasUsed": 15977,
                    "id": 10,
                    "methodDecoded": true,
                    "operation": "CALL",
                    "output": "0x0000000000000000000000000000000000000000000000000000000000000001",
                    "revert": false,
                    "revertMessage": "",
                    "selector": "0x15dacbea",
                    "status": true,
                    "value": "0"
                },
                "nodeType": 0
            },
            "11": {
                "invocation": {
                    "address": "0xc02aaa39b223fe8d0a0e5c4f27ead9083c756cc2",
                    "callData": "0x0000000000000000000000001b2a9cc5ea11c11b70908d75207b5b1f0ac4a839000000000000000000000000e697a9f14f182c5291287dbeb47d41773091f035000000000000000000000000000000000000000000000000e29fd07ade20f830",
                    "decodedMethod": {
                        "callParams": [
                            {
                                "name": "src",
                                "type": "address",
                                "value": "0x1b2a9cc5ea11c11b70908d75207b5b1f0ac4a839"
                            },
                            {
                                "name": "dst",
                                "type": "address",
                                "value": "0xe697a9f14f182c5291287dbeb47d41773091f035"
                            },
                            {
                                "decimalAvailable": true,
                                "name": "wad",
                                "type": "uint256",
                                "value": "16,329,999,999,999,998,000"
                            }
                        ],
                        "constructorArguments": "",
                        "name": "transferFrom",
                        "returnParams": [
                            {
                                "name": "",
                                "type": "bool",
                                "value": true
                            }
                        ],
                        "signature": "transferFrom(address,address,uint256)"
                    },
                    "errorInfo": "",
                    "fromAddress": "0x8da0d80f5007ef1e431dd2127178d224e32c2ef4",
                    "gasUsed": 13625,
                    "id": 11,
                    "methodDecoded": true,
                    "operation": "CALL",
                    "output": "0x0000000000000000000000000000000000000000000000000000000000000001",
                    "revert": false,
                    "revertMessage": "",
                    "selector": "0x23b872dd",
                    "status": true,
                    "value": "0"
                },
                "nodeType": 0
            },
            "12": {
                "event": {
                    "contract": "0xc02aaa39b223fe8d0a0e5c4f27ead9083c756cc2",
                    "decodedLog": {
                        "name": "Transfer",
                        "params": [
                            {
                                "name": "src",
                                "type": "address",
                                "value": "0x1b2a9cc5ea11c11b70908d75207b5b1f0ac4a839"
                            },
                            {
                                "name": "dst",
                                "type": "address",
                                "value": "0xe697a9f14f182c5291287dbeb47d41773091f035"
                            },
                            {
                                "decimalAvailable": true,
                                "name": "wad",
                                "type": "uint256",
                                "value": "16,329,999,999,999,998,000"
                            }
                        ],
                        "signature": "Transfer(address,address,uint256)"
                    },
                    "id": 12,
                    "logData": "0x000000000000000000000000000000000000000000000000e29fd07ade20f830",
                    "logDecoded": true,
                    "operation": "EVENT",
                    "revert": false,
                    "status": true,
                    "topics": [
                        "0xddf252ad1be2c89b69c2b068fc378daa952ba7f163c4a11628f55a4df523b3ef",
                        "0x0000000000000000000000001b2a9cc5ea11c11b70908d75207b5b1f0ac4a839",
                        "0x000000000000000000000000e697a9f14f182c5291287dbeb47d41773091f035"
                    ]
                },
                "nodeType": 1
            },
            "13": {
                "invocation": {
                    "address": "0x8da0d80f5007ef1e431dd2127178d224e32c2ef4",
                    "callData": "0x0000000000000000000000002d0ea9f9591205a642eb01826ba4fa019eb0efc6000000000000000000000000e697a9f14f182c5291287dbeb47d41773091f0350000000000000000000000001b2a9cc5ea11c11b70908d75207b5b1f0ac4a839000000000000000000000000000000000000000000000058866d6ffec4e40000",
                    "decodedMethod": {
                        "callParams": [
                            {
                                "name": "token",
                                "type": "address",
                                "value": "0x2d0ea9f9591205a642eb01826ba4fa019eb0efc6"
                            },
                            {
                                "name": "from",
                                "type": "address",
                                "value": "0xe697a9f14f182c5291287dbeb47d41773091f035"
                            },
                            {
                                "name": "to",
                                "type": "address",
                                "value": "0x1b2a9cc5ea11c11b70908d75207b5b1f0ac4a839"
                            },
                            {
                                "name": "value",
                                "type": "uint256",
                                "value": "1,633,000,000,000,000,000,000"
                            }
                        ],
                        "constructorArguments": "",
                        "name": "transferFrom",
                        "returnParams": [
                            {
                                "name": "",
                                "type": "bool",
                                "value": true
                            }
                        ],
                        "signature": "transferFrom(address,address,address,uint256)"
                    },
                    "errorInfo": "",
                    "fromAddress": "0x12459c951127e0c374ff9105dda097662a027093",
                    "gasUsed": 22244,
                    "id": 13,
                    "methodDecoded": true,
                    "operation": "CALL",
                    "output": "0x0000000000000000000000000000000000000000000000000000000000000001",
                    "revert": false,
                    "revertMessage": "",
                    "selector": "0x15dacbea",
                    "status": true,
                    "value": "0"
                },
                "nodeType": 0
            },
            "14": {
                "invocation": {
                    "address": "0x2d0ea9f9591205a642eb01826ba4fa019eb0efc6",
                    "callData": "0x000000000000000000000000e697a9f14f182c5291287dbeb47d41773091f0350000000000000000000000001b2a9cc5ea11c11b70908d75207b5b1f0ac4a839000000000000000000000000000000000000000000000058866d6ffec4e40000",
                    "decodedMethod": {
                        "callParams": [
                            {
                                "name": "_from",
                                "type": "address",
                                "value": "0xe697a9f14f182c5291287dbeb47d41773091f035"
                            },
                            {
                                "name": "_to",
                                "type": "address",
                                "value": "0x1b2a9cc5ea11c11b70908d75207b5b1f0ac4a839"
                            },
                            {
                                "decimalAvailable": true,
                                "name": "_value",
                                "type": "uint256",
                                "value": "1,633,000,000,000,000,000,000"
                            }
                        ],
                        "constructorArguments": "",
                        "name": "transferFrom",
                        "returnParams": [
                            {
                                "name": "",
                                "type": "bool",
                                "value": true
                            }
                        ],
                        "signature": "transferFrom(address,address,uint256)"
                    },
                    "errorInfo": "",
                    "fromAddress": "0x8da0d80f5007ef1e431dd2127178d224e32c2ef4",
                    "gasUsed": 19892,
                    "id": 14,
                    "methodDecoded": true,
                    "operation": "CALL",
                    "output": "0x0000000000000000000000000000000000000000000000000000000000000001",
                    "revert": false,
                    "revertMessage": "",
                    "selector": "0x23b872dd",
                    "status": true,
                    "value": "0"
                },
                "nodeType": 0
            },
            "15": {
                "event": {
                    "contract": "0x2d0ea9f9591205a642eb01826ba4fa019eb0efc6",
                    "decodedLog": {
                        "name": "Transfer",
                        "params": [
                            {
                                "name": "from",
                                "type": "address",
                                "value": "0xe697a9f14f182c5291287dbeb47d41773091f035"
                            },
                            {
                                "name": "to",
                                "type": "address",
                                "value": "0x1b2a9cc5ea11c11b70908d75207b5b1f0ac4a839"
                            },
                            {
                                "decimalAvailable": true,
                                "name": "value",
                                "type": "uint256",
                                "value": "1,633,000,000,000,000,000,000"
                            }
                        ],
                        "signature": "Transfer(address,address,uint256)"
                    },
                    "id": 15,
                    "logData": "0x000000000000000000000000000000000000000000000058866d6ffec4e40000",
                    "logDecoded": true,
                    "operation": "EVENT",
                    "revert": false,
                    "status": true,
                    "topics": [
                        "0xddf252ad1be2c89b69c2b068fc378daa952ba7f163c4a11628f55a4df523b3ef",
                        "0x000000000000000000000000e697a9f14f182c5291287dbeb47d41773091f035",
                        "0x0000000000000000000000001b2a9cc5ea11c11b70908d75207b5b1f0ac4a839"
                    ]
                },
                "nodeType": 1
            },
            "16": {
                "event": {
                    "contract": "0x12459c951127e0c374ff9105dda097662a027093",
                    "decodedLog": {
                        "name": "LogFill",
                        "params": [
                            {
                                "name": "maker",
                                "type": "address",
                                "value": "0x1b2a9cc5ea11c11b70908d75207b5b1f0ac4a839"
                            },
                            {
                                "name": "feeRecipient",
                                "type": "address",
                                "value": "0x8124071f810d533ff63de61d0c98db99eeb99d64"
                            },
                            {
                                "name": "tokens",
                                "type": "bytes32",
                                "value": "0xe69dfb8e9aabeb38c1164e93aaf2ce6fd9d9a46060906da34c4b091600ac797b"
                            },
                            {
                                "name": "taker",
                                "type": "address",
                                "value": "0xe697a9f14f182c5291287dbeb47d41773091f035"
                            },
                            {
                                "name": "makerToken",
                                "type": "address",
                                "value": "0xc02aaa39b223fe8d0a0e5c4f27ead9083c756cc2"
                            },
                            {
                                "name": "takerToken",
                                "type": "address",
                                "value": "0x2d0ea9f9591205a642eb01826ba4fa019eb0efc6"
                            },
                            {
                                "name": "filledMakerTokenAmount",
                                "type": "uint256",
                                "value": "16,329,999,999,999,998,000"
                            },
                            {
                                "name": "filledTakerTokenAmount",
                                "type": "uint256",
                                "value": "1,633,000,000,000,000,000,000"
                            },
                            {
                                "name": "paidMakerFee",
                                "type": "uint256",
                                "value": "0"
                            },
                            {
                                "name": "paidTakerFee",
                                "type": "uint256",
                                "value": "0"
                            },
                            {
                                "name": "orderHash",
                                "type": "bytes32",
                                "value": "0xa741c0d2c40e282d822f00565e74265ac5a17bc794c0ca9a41138d4a7bb23c33"
                            }
                        ],
                        "signature": "LogFill(address,address,address,address,address,uint256,uint256,uint256,uint256,bytes32,bytes32)"
                    },
                    "id": 16,
                    "logData": "0x000000000000000000000000e697a9f14f182c5291287dbeb47d41773091f035000000000000000000000000c02aaa39b223fe8d0a0e5c4f27ead9083c756cc20000000000000000000000002d0ea9f9591205a642eb01826ba4fa019eb0efc6000000000000000000000000000000000000000000000000e29fd07ade20f830000000000000000000000000000000000000000000000058866d6ffec4e4000000000000000000000000000000000000000000000000000000000000000000000000000000000000000000000000000000000000000000000000000000000000a741c0d2c40e282d822f00565e74265ac5a17bc794c0ca9a41138d4a7bb23c33",
                    "logDecoded": true,
                    "operation": "EVENT",
                    "revert": false,
                    "status": true,
                    "topics": [
                        "0x0d0b9391970d9a25552f37d436d2aae2925e2bfe1b2a923754bada030c498cb3",
                        "0x0000000000000000000000001b2a9cc5ea11c11b70908d75207b5b1f0ac4a839",
                        "0x0000000000000000000000008124071f810d533ff63de61d0c98db99eeb99d64",
                        "0xe69dfb8e9aabeb38c1164e93aaf2ce6fd9d9a46060906da34c4b091600ac797b"
                    ]
                },
                "nodeType": 1
            },
            "17": {
                "invocation": {
                    "address": "0x0000000000000000000000000000000000000001",
                    "callData": "0x3ddb8dd6e04a86b9e1f90106bd19415d9396151a4587b916c1e1c458000000000000000000000000000000000000000000000000000000000000001b3f63e15187254d55d40e0fc84d42244f67cc7d44f929a9f30e49647734d7a6f90a8cea39e55fab0864e5ced2e8691abc1023a8c747b1145754e7b6772aa41919",
                    "decodedMethod": {
                        "callParams": [
                            {
                                "name": "hash",
                                "type": "bytes32",
                                "value": "0x2fded7ec3ddb8dd6e04a86b9e1f90106bd19415d9396151a4587b916c1e1c458"
                            },
                            {
                                "name": "v",
                                "type": "uint256",
                                "value": "27"
                            },
                            {
                                "name": "r",
                                "type": "bytes32",
                                "value": "0x3f63e15187254d55d40e0fc84d42244f67cc7d44f929a9f30e49647734d7a6f9"
                            },
                            {
                                "name": "s",
                                "type": "bytes32",
                                "value": "0x0a8cea39e55fab0864e5ced2e8691abc1023a8c747b1145754e7b6772aa41919"
                            }
                        ],
                        "constructorArguments": "",
                        "name": "ecrecover",
                        "returnParams": [
                            {
                                "name": "",
                                "type": "address",
                                "value": "0x1b2a9cc5ea11c11b70908d75207b5b1f0ac4a839"
                            }
                        ],
                        "signature": "ecrecover(bytes32,uint256,bytes32,bytes32)"
                    },
                    "errorInfo": "",
                    "fromAddress": "0x12459c951127e0c374ff9105dda097662a027093",
                    "gasUsed": 3000,
                    "id": 17,
                    "methodDecoded": true,
                    "operation": "CALL",
                    "output": "0x0000000000000000000000001b2a9cc5ea11c11b70908d75207b5b1f0ac4a839",
                    "revert": false,
                    "revertMessage": "",
                    "selector": "0x2fded7ec",
                    "status": true,
                    "value": "0"
                },
                "nodeType": 0
            },
            "18": {
                "invocation": {
                    "address": "0xe41d2489571d322189246dafa5ebde1f4699f498",
                    "callData": "0x0000000000000000000000001b2a9cc5ea11c11b70908d75207b5b1f0ac4a839",
                    "decodedMethod": {
                        "callParams": [
                            {
                                "name": "_owner",
                                "type": "address",
                                "value": "0x1b2a9cc5ea11c11b70908d75207b5b1f0ac4a839"
                            }
                        ],
                        "constructorArguments": "",
                        "name": "balanceOf",
                        "returnParams": [
                            {
                                "decimalAvailable": true,
                                "name": "",
                                "type": "uint256",
                                "value": "9,000,000,000,000,000,000"
                            }
                        ],
                        "signature": "balanceOf(address)"
                    },
                    "errorInfo": "",
                    "fromAddress": "0x12459c951127e0c374ff9105dda097662a027093",
                    "gasUsed": 637,
                    "id": 18,
                    "methodDecoded": true,
                    "operation": "CALL",
                    "output": "0x0000000000000000000000000000000000000000000000007ce66c50e2840000",
                    "revert": false,
                    "revertMessage": "",
                    "selector": "0x70a08231",
                    "status": true,
                    "value": "0"
                },
                "nodeType": 0
            },
            "19": {
                "invocation": {
                    "address": "0xe41d2489571d322189246dafa5ebde1f4699f498",
                    "callData": "0x0000000000000000000000001b2a9cc5ea11c11b70908d75207b5b1f0ac4a8390000000000000000000000008da0d80f5007ef1e431dd2127178d224e32c2ef4",
                    "decodedMethod": {
                        "callParams": [
                            {
                                "name": "_owner",
                                "type": "address",
                                "value": "0x1b2a9cc5ea11c11b70908d75207b5b1f0ac4a839"
                            },
                            {
                                "name": "_spender",
                                "type": "address",
                                "value": "0x8da0d80f5007ef1e431dd2127178d224e32c2ef4"
                            }
                        ],
                        "constructorArguments": "",
                        "name": "allowance",
                        "returnParams": [
                            {
                                "decimalAvailable": true,
                                "name": "",
                                "type": "uint256",
                                "value": "115,792,089,237,316,195,423,570,985,008,687,907,853,269,984,665,640,564,039,457,584,007,913,129,639,935"
                            }
                        ],
                        "signature": "allowance(address,address)"
                    },
                    "errorInfo": "",
                    "fromAddress": "0x12459c951127e0c374ff9105dda097662a027093",
                    "gasUsed": 825,
                    "id": 19,
                    "methodDecoded": true,
                    "operation": "CALL",
                    "output": "0xffffffffffffffffffffffffffffffffffffffffffffffffffffffffffffffff",
                    "revert": false,
                    "revertMessage": "",
                    "selector": "0xdd62ed3e",
                    "status": true,
                    "value": "0"
                },
                "nodeType": 0
            },
            "2": {
                "invocation": {
                    "address": "0xe41d2489571d322189246dafa5ebde1f4699f498",
                    "callData": "0x0000000000000000000000001b2a9cc5ea11c11b70908d75207b5b1f0ac4a839",
                    "decodedMethod": {
                        "callParams": [
                            {
                                "name": "_owner",
                                "type": "address",
                                "value": "0x1b2a9cc5ea11c11b70908d75207b5b1f0ac4a839"
                            }
                        ],
                        "constructorArguments": "",
                        "name": "balanceOf",
                        "returnParams": [
                            {
                                "decimalAvailable": true,
                                "name": "",
                                "type": "uint256",
                                "value": "9,000,000,000,000,000,000"
                            }
                        ],
                        "signature": "balanceOf(address)"
                    },
                    "errorInfo": "",
                    "fromAddress": "0x12459c951127e0c374ff9105dda097662a027093",
                    "gasUsed": 637,
                    "id": 2,
                    "methodDecoded": true,
                    "operation": "CALL",
                    "output": "0x0000000000000000000000000000000000000000000000007ce66c50e2840000",
                    "revert": false,
                    "revertMessage": "",
                    "selector": "0x70a08231",
                    "status": true,
                    "value": "0"
                },
                "nodeType": 0
            },
            "20": {
                "invocation": {
                    "address": "0xe41d2489571d322189246dafa5ebde1f4699f498",
                    "callData": "0x000000000000000000000000e697a9f14f182c5291287dbeb47d41773091f035",
                    "decodedMethod": {
                        "callParams": [
                            {
                                "name": "_owner",
                                "type": "address",
                                "value": "0xe697a9f14f182c5291287dbeb47d41773091f035"
                            }
                        ],
                        "constructorArguments": "",
                        "name": "balanceOf",
                        "returnParams": [
                            {
                                "decimalAvailable": true,
                                "name": "",
                                "type": "uint256",
                                "value": "8,000,000,000,000,000,000"
                            }
                        ],
                        "signature": "balanceOf(address)"
                    },
                    "errorInfo": "",
                    "fromAddress": "0x12459c951127e0c374ff9105dda097662a027093",
                    "gasUsed": 637,
                    "id": 20,
                    "methodDecoded": true,
                    "operation": "CALL",
                    "output": "0x0000000000000000000000000000000000000000000000006f05b59d3b200000",
                    "revert": false,
                    "revertMessage": "",
                    "selector": "0x70a08231",
                    "status": true,
                    "value": "0"
                },
                "nodeType": 0
            },
            "21": {
                "invocation": {
                    "address": "0xe41d2489571d322189246dafa5ebde1f4699f498",
                    "callData": "0x000000000000000000000000e697a9f14f182c5291287dbeb47d41773091f0350000000000000000000000008da0d80f5007ef1e431dd2127178d224e32c2ef4",
                    "decodedMethod": {
                        "callParams": [
                            {
                                "name": "_owner",
                                "type": "address",
                                "value": "0xe697a9f14f182c5291287dbeb47d41773091f035"
                            },
                            {
                                "name": "_spender",
                                "type": "address",
                                "value": "0x8da0d80f5007ef1e431dd2127178d224e32c2ef4"
                            }
                        ],
                        "constructorArguments": "",
                        "name": "allowance",
                        "returnParams": [
                            {
                                "decimalAvailable": true,
                                "name": "",
                                "type": "uint256",
                                "value": "115,792,089,237,316,195,423,570,985,008,687,907,853,269,984,665,640,564,039,457,584,007,913,129,639,935"
                            }
                        ],
                        "signature": "allowance(address,address)"
                    },
                    "errorInfo": "",
                    "fromAddress": "0x12459c951127e0c374ff9105dda097662a027093",
                    "gasUsed": 825,
                    "id": 21,
                    "methodDecoded": true,
                    "operation": "CALL",
                    "output": "0xffffffffffffffffffffffffffffffffffffffffffffffffffffffffffffffff",
                    "revert": false,
                    "revertMessage": "",
                    "selector": "0xdd62ed3e",
                    "status": true,
                    "value": "0"
                },
                "nodeType": 0
            },
            "22": {
                "invocation": {
                    "address": "0x2d0ea9f9591205a642eb01826ba4fa019eb0efc6",
                    "callData": "0x0000000000000000000000001b2a9cc5ea11c11b70908d75207b5b1f0ac4a839",
                    "decodedMethod": {
                        "callParams": [
                            {
                                "name": "_owner",
                                "type": "address",
                                "value": "0x1b2a9cc5ea11c11b70908d75207b5b1f0ac4a839"
                            }
                        ],
                        "constructorArguments": "",
                        "name": "balanceOf",
                        "returnParams": [
                            {
                                "decimalAvailable": true,
                                "name": "balance",
                                "type": "uint256",
                                "value": "51,633,000,000,000,000,002,529"
                            }
                        ],
                        "signature": "balanceOf(address)"
                    },
                    "errorInfo": "",
                    "fromAddress": "0x12459c951127e0c374ff9105dda097662a027093",
                    "gasUsed": 738,
                    "id": 22,
                    "methodDecoded": true,
                    "operation": "CALL",
                    "output": "0x000000000000000000000000000000000000000000000aef07d160a4402409e1",
                    "revert": false,
                    "revertMessage": "",
                    "selector": "0x70a08231",
                    "status": true,
                    "value": "0"
                },
                "nodeType": 0
            },
            "23": {
                "invocation": {
                    "address": "0x2d0ea9f9591205a642eb01826ba4fa019eb0efc6",
                    "callData": "0x0000000000000000000000001b2a9cc5ea11c11b70908d75207b5b1f0ac4a8390000000000000000000000008da0d80f5007ef1e431dd2127178d224e32c2ef4",
                    "decodedMethod": {
                        "callParams": [
                            {
                                "name": "_owner",
                                "type": "address",
                                "value": "0x1b2a9cc5ea11c11b70908d75207b5b1f0ac4a839"
                            },
                            {
                                "name": "_spender",
                                "type": "address",
                                "value": "0x8da0d80f5007ef1e431dd2127178d224e32c2ef4"
                            }
                        ],
                        "constructorArguments": "",
                        "name": "allowance",
                        "returnParams": [
                            {
                                "decimalAvailable": true,
                                "name": "remaining",
                                "type": "uint256",
                                "value": "115,792,089,237,316,195,423,570,985,008,687,907,853,269,984,665,640,557,833,790,450,214,913,121,968,464"
                            }
                        ],
                        "signature": "allowance(address,address)"
                    },
                    "errorInfo": "",
                    "fromAddress": "0x12459c951127e0c374ff9105dda097662a027093",
                    "gasUsed": 950,
                    "id": 23,
                    "methodDecoded": true,
                    "operation": "CALL",
                    "output": "0xfffffffffffffffffffffffffffffffffffffffffffadde61c4fb0df836fe150",
                    "revert": false,
                    "revertMessage": "",
                    "selector": "0xdd62ed3e",
                    "status": true,
                    "value": "0"
                },
                "nodeType": 0
            },
            "24": {
                "invocation": {
                    "address": "0xc02aaa39b223fe8d0a0e5c4f27ead9083c756cc2",
                    "callData": "0x000000000000000000000000e697a9f14f182c5291287dbeb47d41773091f035",
                    "decodedMethod": {
                        "callParams": [
                            {
                                "name": "",
                                "type": "address",
                                "value": "0xe697a9f14f182c5291287dbeb47d41773091f035"
                            }
                        ],
                        "constructorArguments": "",
                        "name": "balanceOf",
                        "returnParams": [
                            {
                                "decimalAvailable": true,
                                "name": "",
                                "type": "uint256",
                                "value": "16,398,446,987,704,019,816"
                            }
                        ],
                        "signature": "balanceOf(address)"
                    },
                    "errorInfo": "",
                    "fromAddress": "0x12459c951127e0c374ff9105dda097662a027093",
                    "gasUsed": 634,
                    "id": 24,
                    "methodDecoded": true,
                    "operation": "CALL",
                    "output": "0x000000000000000000000000000000000000000000000000e392fca7122c2b68",
                    "revert": false,
                    "revertMessage": "",
                    "selector": "0x70a08231",
                    "status": true,
                    "value": "0"
                },
                "nodeType": 0
            },
            "25": {
                "invocation": {
                    "address": "0xc02aaa39b223fe8d0a0e5c4f27ead9083c756cc2",
                    "callData": "0x000000000000000000000000e697a9f14f182c5291287dbeb47d41773091f0350000000000000000000000008da0d80f5007ef1e431dd2127178d224e32c2ef4",
                    "decodedMethod": {
                        "callParams": [
                            {
                                "name": "",
                                "type": "address",
                                "value": "0xe697a9f14f182c5291287dbeb47d41773091f035"
                            },
                            {
                                "name": "",
                                "type": "address",
                                "value": "0x8da0d80f5007ef1e431dd2127178d224e32c2ef4"
                            }
                        ],
                        "constructorArguments": "",
                        "name": "allowance",
                        "returnParams": [
                            {
                                "decimalAvailable": true,
                                "name": "",
                                "type": "uint256",
                                "value": "115,792,089,237,316,195,423,570,985,008,687,907,853,269,984,665,640,564,039,457,584,007,913,129,639,935"
                            }
                        ],
                        "signature": "allowance(address,address)"
                    },
                    "errorInfo": "",
                    "fromAddress": "0x12459c951127e0c374ff9105dda097662a027093",
                    "gasUsed": 817,
                    "id": 25,
                    "methodDecoded": true,
                    "operation": "CALL",
                    "output": "0xffffffffffffffffffffffffffffffffffffffffffffffffffffffffffffffff",
                    "revert": false,
                    "revertMessage": "",
                    "selector": "0xdd62ed3e",
                    "status": true,
                    "value": "0"
                },
                "nodeType": 0
            },
            "26": {
                "invocation": {
                    "address": "0x8da0d80f5007ef1e431dd2127178d224e32c2ef4",
                    "callData": "0x0000000000000000000000002d0ea9f9591205a642eb01826ba4fa019eb0efc60000000000000000000000001b2a9cc5ea11c11b70908d75207b5b1f0ac4a839000000000000000000000000e697a9f14f182c5291287dbeb47d41773091f035000000000000000000000000000000000000000000000058866d6ffec4e4002a",
                    "decodedMethod": {
                        "callParams": [
                            {
                                "name": "token",
                                "type": "address",
                                "value": "0x2d0ea9f9591205a642eb01826ba4fa019eb0efc6"
                            },
                            {
                                "name": "from",
                                "type": "address",
                                "value": "0x1b2a9cc5ea11c11b70908d75207b5b1f0ac4a839"
                            },
                            {
                                "name": "to",
                                "type": "address",
                                "value": "0xe697a9f14f182c5291287dbeb47d41773091f035"
                            },
                            {
                                "name": "value",
                                "type": "uint256",
                                "value": "1,633,000,000,000,000,000,042"
                            }
                        ],
                        "constructorArguments": "",
                        "name": "transferFrom",
                        "returnParams": [
                            {
                                "name": "",
                                "type": "bool",
                                "value": true
                            }
                        ],
                        "signature": "transferFrom(address,address,address,uint256)"
                    },
                    "errorInfo": "",
                    "fromAddress": "0x12459c951127e0c374ff9105dda097662a027093",
                    "gasUsed": 22244,
                    "id": 26,
                    "methodDecoded": true,
                    "operation": "CALL",
                    "output": "0x0000000000000000000000000000000000000000000000000000000000000001",
                    "revert": false,
                    "revertMessage": "",
                    "selector": "0x15dacbea",
                    "status": true,
                    "value": "0"
                },
                "nodeType": 0
            },
            "27": {
                "invocation": {
                    "address": "0x2d0ea9f9591205a642eb01826ba4fa019eb0efc6",
                    "callData": "0x0000000000000000000000001b2a9cc5ea11c11b70908d75207b5b1f0ac4a839000000000000000000000000e697a9f14f182c5291287dbeb47d41773091f035000000000000000000000000000000000000000000000058866d6ffec4e4002a",
                    "decodedMethod": {
                        "callParams": [
                            {
                                "name": "_from",
                                "type": "address",
                                "value": "0x1b2a9cc5ea11c11b70908d75207b5b1f0ac4a839"
                            },
                            {
                                "name": "_to",
                                "type": "address",
                                "value": "0xe697a9f14f182c5291287dbeb47d41773091f035"
                            },
                            {
                                "decimalAvailable": true,
                                "name": "_value",
                                "type": "uint256",
                                "value": "1,633,000,000,000,000,000,042"
                            }
                        ],
                        "constructorArguments": "",
                        "name": "transferFrom",
                        "returnParams": [
                            {
                                "name": "",
                                "type": "bool",
                                "value": true
                            }
                        ],
                        "signature": "transferFrom(address,address,uint256)"
                    },
                    "errorInfo": "",
                    "fromAddress": "0x8da0d80f5007ef1e431dd2127178d224e32c2ef4",
                    "gasUsed": 19892,
                    "id": 27,
                    "methodDecoded": true,
                    "operation": "CALL",
                    "output": "0x0000000000000000000000000000000000000000000000000000000000000001",
                    "revert": false,
                    "revertMessage": "",
                    "selector": "0x23b872dd",
                    "status": true,
                    "value": "0"
                },
                "nodeType": 0
            },
            "28": {
                "event": {
                    "contract": "0x2d0ea9f9591205a642eb01826ba4fa019eb0efc6",
                    "decodedLog": {
                        "name": "Transfer",
                        "params": [
                            {
                                "name": "from",
                                "type": "address",
                                "value": "0x1b2a9cc5ea11c11b70908d75207b5b1f0ac4a839"
                            },
                            {
                                "name": "to",
                                "type": "address",
                                "value": "0xe697a9f14f182c5291287dbeb47d41773091f035"
                            },
                            {
                                "decimalAvailable": true,
                                "name": "value",
                                "type": "uint256",
                                "value": "1,633,000,000,000,000,000,042"
                            }
                        ],
                        "signature": "Transfer(address,address,uint256)"
                    },
                    "id": 28,
                    "logData": "0x000000000000000000000000000000000000000000000058866d6ffec4e4002a",
                    "logDecoded": true,
                    "operation": "EVENT",
                    "revert": false,
                    "status": true,
                    "topics": [
                        "0xddf252ad1be2c89b69c2b068fc378daa952ba7f163c4a11628f55a4df523b3ef",
                        "0x0000000000000000000000001b2a9cc5ea11c11b70908d75207b5b1f0ac4a839",
                        "0x000000000000000000000000e697a9f14f182c5291287dbeb47d41773091f035"
                    ]
                },
                "nodeType": 1
            },
            "29": {
                "invocation": {
                    "address": "0x8da0d80f5007ef1e431dd2127178d224e32c2ef4",
                    "callData": "0x000000000000000000000000c02aaa39b223fe8d0a0e5c4f27ead9083c756cc2000000000000000000000000e697a9f14f182c5291287dbeb47d41773091f0350000000000000000000000001b2a9cc5ea11c11b70908d75207b5b1f0ac4a839000000000000000000000000000000000000000000000000e29fd07ade20fc3d",
                    "decodedMethod": {
                        "callParams": [
                            {
                                "name": "token",
                                "type": "address",
                                "value": "0xc02aaa39b223fe8d0a0e5c4f27ead9083c756cc2"
                            },
                            {
                                "name": "from",
                                "type": "address",
                                "value": "0xe697a9f14f182c5291287dbeb47d41773091f035"
                            },
                            {
                                "name": "to",
                                "type": "address",
                                "value": "0x1b2a9cc5ea11c11b70908d75207b5b1f0ac4a839"
                            },
                            {
                                "name": "value",
                                "type": "uint256",
                                "value": "16,329,999,999,999,999,037"
                            }
                        ],
                        "constructorArguments": "",
                        "name": "transferFrom",
                        "returnParams": [
                            {
                                "name": "",
                                "type": "bool",
                                "value": true
                            }
                        ],
                        "signature": "transferFrom(address,address,address,uint256)"
                    },
                    "errorInfo": "",
                    "fromAddress": "0x12459c951127e0c374ff9105dda097662a027093",
                    "gasUsed": 15977,
                    "id": 29,
                    "methodDecoded": true,
                    "operation": "CALL",
                    "output": "0x0000000000000000000000000000000000000000000000000000000000000001",
                    "revert": false,
                    "revertMessage": "",
                    "selector": "0x15dacbea",
                    "status": true,
                    "value": "0"
                },
                "nodeType": 0
            },
            "3": {
                "invocation": {
                    "address": "0xe41d2489571d322189246dafa5ebde1f4699f498",
                    "callData": "0x0000000000000000000000001b2a9cc5ea11c11b70908d75207b5b1f0ac4a8390000000000000000000000008da0d80f5007ef1e431dd2127178d224e32c2ef4",
                    "decodedMethod": {
                        "callParams": [
                            {
                                "name": "_owner",
                                "type": "address",
                                "value": "0x1b2a9cc5ea11c11b70908d75207b5b1f0ac4a839"
                            },
                            {
                                "name": "_spender",
                                "type": "address",
                                "value": "0x8da0d80f5007ef1e431dd2127178d224e32c2ef4"
                            }
                        ],
                        "constructorArguments": "",
                        "name": "allowance",
                        "returnParams": [
                            {
                                "decimalAvailable": true,
                                "name": "",
                                "type": "uint256",
                                "value": "115,792,089,237,316,195,423,570,985,008,687,907,853,269,984,665,640,564,039,457,584,007,913,129,639,935"
                            }
                        ],
                        "signature": "allowance(address,address)"
                    },
                    "errorInfo": "",
                    "fromAddress": "0x12459c951127e0c374ff9105dda097662a027093",
                    "gasUsed": 825,
                    "id": 3,
                    "methodDecoded": true,
                    "operation": "CALL",
                    "output": "0xffffffffffffffffffffffffffffffffffffffffffffffffffffffffffffffff",
                    "revert": false,
                    "revertMessage": "",
                    "selector": "0xdd62ed3e",
                    "status": true,
                    "value": "0"
                },
                "nodeType": 0
            },
            "30": {
                "invocation": {
                    "address": "0xc02aaa39b223fe8d0a0e5c4f27ead9083c756cc2",
                    "callData": "0x000000000000000000000000e697a9f14f182c5291287dbeb47d41773091f0350000000000000000000000001b2a9cc5ea11c11b70908d75207b5b1f0ac4a839000000000000000000000000000000000000000000000000e29fd07ade20fc3d",
                    "decodedMethod": {
                        "callParams": [
                            {
                                "name": "src",
                                "type": "address",
                                "value": "0xe697a9f14f182c5291287dbeb47d41773091f035"
                            },
                            {
                                "name": "dst",
                                "type": "address",
                                "value": "0x1b2a9cc5ea11c11b70908d75207b5b1f0ac4a839"
                            },
                            {
                                "decimalAvailable": true,
                                "name": "wad",
                                "type": "uint256",
                                "value": "16,329,999,999,999,999,037"
                            }
                        ],
                        "constructorArguments": "",
                        "name": "transferFrom",
                        "returnParams": [
                            {
                                "name": "",
                                "type": "bool",
                                "value": true
                            }
                        ],
                        "signature": "transferFrom(address,address,uint256)"
                    },
                    "errorInfo": "",
                    "fromAddress": "0x8da0d80f5007ef1e431dd2127178d224e32c2ef4",
                    "gasUsed": 13625,
                    "id": 30,
                    "methodDecoded": true,
                    "operation": "CALL",
                    "output": "0x0000000000000000000000000000000000000000000000000000000000000001",
                    "revert": false,
                    "revertMessage": "",
                    "selector": "0x23b872dd",
                    "status": true,
                    "value": "0"
                },
                "nodeType": 0
            },
            "31": {
                "event": {
                    "contract": "0xc02aaa39b223fe8d0a0e5c4f27ead9083c756cc2",
                    "decodedLog": {
                        "name": "Transfer",
                        "params": [
                            {
                                "name": "src",
                                "type": "address",
                                "value": "0xe697a9f14f182c5291287dbeb47d41773091f035"
                            },
                            {
                                "name": "dst",
                                "type": "address",
                                "value": "0x1b2a9cc5ea11c11b70908d75207b5b1f0ac4a839"
                            },
                            {
                                "decimalAvailable": true,
                                "name": "wad",
                                "type": "uint256",
                                "value": "16,329,999,999,999,999,037"
                            }
                        ],
                        "signature": "Transfer(address,address,uint256)"
                    },
                    "id": 31,
                    "logData": "0x000000000000000000000000000000000000000000000000e29fd07ade20fc3d",
                    "logDecoded": true,
                    "operation": "EVENT",
                    "revert": false,
                    "status": true,
                    "topics": [
                        "0xddf252ad1be2c89b69c2b068fc378daa952ba7f163c4a11628f55a4df523b3ef",
                        "0x000000000000000000000000e697a9f14f182c5291287dbeb47d41773091f035",
                        "0x0000000000000000000000001b2a9cc5ea11c11b70908d75207b5b1f0ac4a839"
                    ]
                },
                "nodeType": 1
            },
            "32": {
                "event": {
                    "contract": "0x12459c951127e0c374ff9105dda097662a027093",
                    "decodedLog": {
                        "name": "LogFill",
                        "params": [
                            {
                                "name": "maker",
                                "type": "address",
                                "value": "0x1b2a9cc5ea11c11b70908d75207b5b1f0ac4a839"
                            },
                            {
                                "name": "feeRecipient",
                                "type": "address",
                                "value": "0x8124071f810d533ff63de61d0c98db99eeb99d64"
                            },
                            {
                                "name": "tokens",
                                "type": "bytes32",
                                "value": "0xb43e43ee5a33e6b42a269262fc79abf234de67029263d41b45b92353320f93c0"
                            },
                            {
                                "name": "taker",
                                "type": "address",
                                "value": "0xe697a9f14f182c5291287dbeb47d41773091f035"
                            },
                            {
                                "name": "makerToken",
                                "type": "address",
                                "value": "0x2d0ea9f9591205a642eb01826ba4fa019eb0efc6"
                            },
                            {
                                "name": "takerToken",
                                "type": "address",
                                "value": "0xc02aaa39b223fe8d0a0e5c4f27ead9083c756cc2"
                            },
                            {
                                "name": "filledMakerTokenAmount",
                                "type": "uint256",
                                "value": "1,633,000,000,000,000,000,042"
                            },
                            {
                                "name": "filledTakerTokenAmount",
                                "type": "uint256",
                                "value": "16,329,999,999,999,999,037"
                            },
                            {
                                "name": "paidMakerFee",
                                "type": "uint256",
                                "value": "0"
                            },
                            {
                                "name": "paidTakerFee",
                                "type": "uint256",
                                "value": "0"
                            },
                            {
                                "name": "orderHash",
                                "type": "bytes32",
                                "value": "0xec6509eae10340c8533f04fed1e32185ab2c8fd6d75d712cbce2739a1ffd5bc9"
                            }
                        ],
                        "signature": "LogFill(address,address,address,address,address,uint256,uint256,uint256,uint256,bytes32,bytes32)"
                    },
                    "id": 32,
                    "logData": "0x000000000000000000000000e697a9f14f182c5291287dbeb47d41773091f0350000000000000000000000002d0ea9f9591205a642eb01826ba4fa019eb0efc6000000000000000000000000c02aaa39b223fe8d0a0e5c4f27ead9083c756cc2000000000000000000000000000000000000000000000058866d6ffec4e4002a000000000000000000000000000000000000000000000000e29fd07ade20fc3d00000000000000000000000000000000000000000000000000000000000000000000000000000000000000000000000000000000000000000000000000000000ec6509eae10340c8533f04fed1e32185ab2c8fd6d75d712cbce2739a1ffd5bc9",
                    "logDecoded": true,
                    "operation": "EVENT",
                    "revert": false,
                    "status": true,
                    "topics": [
                        "0x0d0b9391970d9a25552f37d436d2aae2925e2bfe1b2a923754bada030c498cb3",
                        "0x0000000000000000000000001b2a9cc5ea11c11b70908d75207b5b1f0ac4a839",
                        "0x0000000000000000000000008124071f810d533ff63de61d0c98db99eeb99d64",
                        "0xb43e43ee5a33e6b42a269262fc79abf234de67029263d41b45b92353320f93c0"
                    ]
                },
                "nodeType": 1
            },
            "4": {
                "invocation": {
                    "address": "0xe41d2489571d322189246dafa5ebde1f4699f498",
                    "callData": "0x000000000000000000000000e697a9f14f182c5291287dbeb47d41773091f035",
                    "decodedMethod": {
                        "callParams": [
                            {
                                "name": "_owner",
                                "type": "address",
                                "value": "0xe697a9f14f182c5291287dbeb47d41773091f035"
                            }
                        ],
                        "constructorArguments": "",
                        "name": "balanceOf",
                        "returnParams": [
                            {
                                "decimalAvailable": true,
                                "name": "",
                                "type": "uint256",
                                "value": "8,000,000,000,000,000,000"
                            }
                        ],
                        "signature": "balanceOf(address)"
                    },
                    "errorInfo": "",
                    "fromAddress": "0x12459c951127e0c374ff9105dda097662a027093",
                    "gasUsed": 637,
                    "id": 4,
                    "methodDecoded": true,
                    "operation": "CALL",
                    "output": "0x0000000000000000000000000000000000000000000000006f05b59d3b200000",
                    "revert": false,
                    "revertMessage": "",
                    "selector": "0x70a08231",
                    "status": true,
                    "value": "0"
                },
                "nodeType": 0
            },
            "5": {
                "invocation": {
                    "address": "0xe41d2489571d322189246dafa5ebde1f4699f498",
                    "callData": "0x000000000000000000000000e697a9f14f182c5291287dbeb47d41773091f0350000000000000000000000008da0d80f5007ef1e431dd2127178d224e32c2ef4",
                    "decodedMethod": {
                        "callParams": [
                            {
                                "name": "_owner",
                                "type": "address",
                                "value": "0xe697a9f14f182c5291287dbeb47d41773091f035"
                            },
                            {
                                "name": "_spender",
                                "type": "address",
                                "value": "0x8da0d80f5007ef1e431dd2127178d224e32c2ef4"
                            }
                        ],
                        "constructorArguments": "",
                        "name": "allowance",
                        "returnParams": [
                            {
                                "decimalAvailable": true,
                                "name": "",
                                "type": "uint256",
                                "value": "115,792,089,237,316,195,423,570,985,008,687,907,853,269,984,665,640,564,039,457,584,007,913,129,639,935"
                            }
                        ],
                        "signature": "allowance(address,address)"
                    },
                    "errorInfo": "",
                    "fromAddress": "0x12459c951127e0c374ff9105dda097662a027093",
                    "gasUsed": 825,
                    "id": 5,
                    "methodDecoded": true,
                    "operation": "CALL",
                    "output": "0xffffffffffffffffffffffffffffffffffffffffffffffffffffffffffffffff",
                    "revert": false,
                    "revertMessage": "",
                    "selector": "0xdd62ed3e",
                    "status": true,
                    "value": "0"
                },
                "nodeType": 0
            },
            "6": {
                "invocation": {
                    "address": "0xc02aaa39b223fe8d0a0e5c4f27ead9083c756cc2",
                    "callData": "0x0000000000000000000000001b2a9cc5ea11c11b70908d75207b5b1f0ac4a839",
                    "decodedMethod": {
                        "callParams": [
                            {
                                "name": "",
                                "type": "address",
                                "value": "0x1b2a9cc5ea11c11b70908d75207b5b1f0ac4a839"
                            }
                        ],
                        "constructorArguments": "",
                        "name": "balanceOf",
                        "returnParams": [
                            {
                                "decimalAvailable": true,
                                "name": "",
                                "type": "uint256",
                                "value": "17,103,228,612,295,978,184"
                            }
                        ],
                        "signature": "balanceOf(address)"
                    },
                    "errorInfo": "",
                    "fromAddress": "0x12459c951127e0c374ff9105dda097662a027093",
                    "gasUsed": 634,
                    "id": 6,
                    "methodDecoded": true,
                    "operation": "CALL",
                    "output": "0x000000000000000000000000000000000000000000000000ed5adfce5c32ecc8",
                    "revert": false,
                    "revertMessage": "",
                    "selector": "0x70a08231",
                    "status": true,
                    "value": "0"
                },
                "nodeType": 0
            },
            "7": {
                "invocation": {
                    "address": "0xc02aaa39b223fe8d0a0e5c4f27ead9083c756cc2",
                    "callData": "0x0000000000000000000000001b2a9cc5ea11c11b70908d75207b5b1f0ac4a8390000000000000000000000008da0d80f5007ef1e431dd2127178d224e32c2ef4",
                    "decodedMethod": {
                        "callParams": [
                            {
                                "name": "",
                                "type": "address",
                                "value": "0x1b2a9cc5ea11c11b70908d75207b5b1f0ac4a839"
                            },
                            {
                                "name": "",
                                "type": "address",
                                "value": "0x8da0d80f5007ef1e431dd2127178d224e32c2ef4"
                            }
                        ],
                        "constructorArguments": "",
                        "name": "allowance",
                        "returnParams": [
                            {
                                "decimalAvailable": true,
                                "name": "",
                                "type": "uint256",
                                "value": "115,792,089,237,316,195,423,570,985,008,687,907,853,269,984,665,640,564,039,457,584,007,913,129,639,935"
                            }
                        ],
                        "signature": "allowance(address,address)"
                    },
                    "errorInfo": "",
                    "fromAddress": "0x12459c951127e0c374ff9105dda097662a027093",
                    "gasUsed": 817,
                    "id": 7,
                    "methodDecoded": true,
                    "operation": "CALL",
                    "output": "0xffffffffffffffffffffffffffffffffffffffffffffffffffffffffffffffff",
                    "revert": false,
                    "revertMessage": "",
                    "selector": "0xdd62ed3e",
                    "status": true,
                    "value": "0"
                },
                "nodeType": 0
            },
            "8": {
                "invocation": {
                    "address": "0x2d0ea9f9591205a642eb01826ba4fa019eb0efc6",
                    "callData": "0x000000000000000000000000e697a9f14f182c5291287dbeb47d41773091f035",
                    "decodedMethod": {
                        "callParams": [
                            {
                                "name": "_owner",
                                "type": "address",
                                "value": "0xe697a9f14f182c5291287dbeb47d41773091f035"
                            }
                        ],
                        "constructorArguments": "",
                        "name": "balanceOf",
                        "returnParams": [
                            {
                                "decimalAvailable": true,
                                "name": "balance",
                                "type": "uint256",
                                "value": "99,999,999,999,999,999,997,471"
                            }
                        ],
                        "signature": "balanceOf(address)"
                    },
                    "errorInfo": "",
                    "fromAddress": "0x12459c951127e0c374ff9105dda097662a027093",
                    "gasUsed": 738,
                    "id": 8,
                    "methodDecoded": true,
                    "operation": "CALL",
                    "output": "0x00000000000000000000000000000000000000000000152d02c7e14af67ff61f",
                    "revert": false,
                    "revertMessage": "",
                    "selector": "0x70a08231",
                    "status": true,
                    "value": "0"
                },
                "nodeType": 0
            },
            "9": {
                "invocation": {
                    "address": "0x2d0ea9f9591205a642eb01826ba4fa019eb0efc6",
                    "callData": "0x000000000000000000000000e697a9f14f182c5291287dbeb47d41773091f0350000000000000000000000008da0d80f5007ef1e431dd2127178d224e32c2ef4",
                    "decodedMethod": {
                        "callParams": [
                            {
                                "name": "_owner",
                                "type": "address",
                                "value": "0xe697a9f14f182c5291287dbeb47d41773091f035"
                            },
                            {
                                "name": "_spender",
                                "type": "address",
                                "value": "0x8da0d80f5007ef1e431dd2127178d224e32c2ef4"
                            }
                        ],
                        "constructorArguments": "",
                        "name": "allowance",
                        "returnParams": [
                            {
                                "decimalAvailable": true,
                                "name": "remaining",
                                "type": "uint256",
                                "value": "115,792,089,237,316,195,423,570,985,008,687,907,853,269,984,665,640,557,833,790,450,214,913,121,965,935"
                            }
                        ],
                        "signature": "allowance(address,address)"
                    },
                    "errorInfo": "",
                    "fromAddress": "0x12459c951127e0c374ff9105dda097662a027093",
                    "gasUsed": 950,
                    "id": 9,
                    "methodDecoded": true,
                    "operation": "CALL",
                    "output": "0xfffffffffffffffffffffffffffffffffffffffffffadde61c4fb0df836fd76f",
                    "revert": false,
                    "revertMessage": "",
                    "selector": "0xdd62ed3e",
                    "status": true,
                    "value": "0"
                },
                "nodeType": 0
            }
        },
        "gasFlame": [
            {
                "children": [
                    {
                        "children": [
                            {
                                "children": [],
                                "depth": 0,
                                "name": "Initial Gas",
                                "value": 56536
                            },
                            {
                                "children": [
                                    {
                                        "children": [],
                                        "depth": 1,
                                        "name": "ecrecover",
                                        "value": 3000
                                    },
                                    {
                                        "children": [],
                                        "depth": 1,
                                        "name": "balanceOf",
                                        "value": 637
                                    },
                                    {
                                        "children": [],
                                        "depth": 1,
                                        "name": "allowance",
                                        "value": 825
                                    },
                                    {
                                        "children": [],
                                        "depth": 1,
                                        "name": "balanceOf",
                                        "value": 637
                                    },
                                    {
                                        "children": [],
                                        "depth": 1,
                                        "name": "allowance",
                                        "value": 825
                                    },
                                    {
                                        "children": [],
                                        "depth": 1,
                                        "name": "balanceOf",
                                        "value": 634
                                    },
                                    {
                                        "children": [],
                                        "depth": 1,
                                        "name": "allowance",
                                        "value": 817
                                    },
                                    {
                                        "children": [],
                                        "depth": 1,
                                        "name": "balanceOf",
                                        "value": 738
                                    },
                                    {
                                        "children": [],
                                        "depth": 1,
                                        "name": "allowance",
                                        "value": 950
                                    },
                                    {
                                        "children": [
                                            {
                                                "children": [],
                                                "depth": 2,
                                                "name": "transferFrom",
                                                "value": 13625
                                            }
                                        ],
                                        "depth": 1,
                                        "name": "transferFrom",
                                        "value": 15977
                                    },
                                    {
                                        "children": [
                                            {
                                                "children": [],
                                                "depth": 2,
                                                "name": "transferFrom",
                                                "value": 19892
                                            }
                                        ],
                                        "depth": 1,
                                        "name": "transferFrom",
                                        "value": 22244
                                    },
                                    {
                                        "children": [],
                                        "depth": 1,
                                        "name": "ecrecover",
                                        "value": 3000
                                    },
                                    {
                                        "children": [],
                                        "depth": 1,
                                        "name": "balanceOf",
                                        "value": 637
                                    },
                                    {
                                        "children": [],
                                        "depth": 1,
                                        "name": "allowance",
                                        "value": 825
                                    },
                                    {
                                        "children": [],
                                        "depth": 1,
                                        "name": "balanceOf",
                                        "value": 637
                                    },
                                    {
                                        "children": [],
                                        "depth": 1,
                                        "name": "allowance",
                                        "value": 825
                                    },
                                    {
                                        "children": [],
                                        "depth": 1,
                                        "name": "balanceOf",
                                        "value": 738
                                    },
                                    {
                                        "children": [],
                                        "depth": 1,
                                        "name": "allowance",
                                        "value": 950
                                    },
                                    {
                                        "children": [],
                                        "depth": 1,
                                        "name": "balanceOf",
                                        "value": 634
                                    },
                                    {
                                        "children": [],
                                        "depth": 1,
                                        "name": "allowance",
                                        "value": 817
                                    },
                                    {
                                        "children": [
                                            {
                                                "children": [],
                                                "depth": 2,
                                                "name": "transferFrom",
                                                "value": 19892
                                            }
                                        ],
                                        "depth": 1,
                                        "name": "transferFrom",
                                        "value": 22244
                                    },
                                    {
                                        "children": [
                                            {
                                                "children": [],
                                                "depth": 2,
                                                "name": "transferFrom",
                                                "value": 13625
                                            }
                                        ],
                                        "depth": 1,
                                        "name": "transferFrom",
                                        "value": 15977
                                    }
                                ],
                                "depth": 0,
                                "name": "Executed Gas",
                                "value": 186245
                            }
                        ],
                        "depth": -1,
                        "name": "Actual Gas Used",
                        "value": 242781
                    },
                    {
                        "children": [],
                        "depth": -1,
                        "name": "Refunded Gas",
                        "value": 0
                    }
                ],
                "depth": -2,
                "name": "Total Gas",
                "value": 242781
            }
        ],
        "isConfirmed": true,
        "mainTrace": [
            {
                "children": [
                    {
                        "children": [
                            {
                                "children": [],
                                "depth": 1,
                                "id": 1,
                                "order": 1
                            },
                            {
                                "children": [],
                                "depth": 1,
                                "id": 2,
                                "order": 2
                            },
                            {
                                "children": [],
                                "depth": 1,
                                "id": 3,
                                "order": 3
                            },
                            {
                                "children": [],
                                "depth": 1,
                                "id": 4,
                                "order": 4
                            },
                            {
                                "children": [],
                                "depth": 1,
                                "id": 5,
                                "order": 5
                            },
                            {
                                "children": [],
                                "depth": 1,
                                "id": 6,
                                "order": 6
                            },
                            {
                                "children": [],
                                "depth": 1,
                                "id": 7,
                                "order": 7
                            },
                            {
                                "children": [],
                                "depth": 1,
                                "id": 8,
                                "order": 8
                            },
                            {
                                "children": [],
                                "depth": 1,
                                "id": 9,
                                "order": 9
                            },
                            {
                                "children": [
                                    {
                                        "children": [
                                            {
                                                "children": [],
                                                "depth": 3,
                                                "id": 12,
                                                "order": 12
                                            }
                                        ],
                                        "depth": 2,
                                        "id": 11,
                                        "order": 11
                                    }
                                ],
                                "depth": 1,
                                "id": 10,
                                "order": 10
                            },
                            {
                                "children": [
                                    {
                                        "children": [
                                            {
                                                "children": [],
                                                "depth": 3,
                                                "id": 15,
                                                "order": 15
                                            }
                                        ],
                                        "depth": 2,
                                        "id": 14,
                                        "order": 14
                                    }
                                ],
                                "depth": 1,
                                "id": 13,
                                "order": 13
                            },
                            {
                                "children": [],
                                "depth": 1,
                                "id": 16,
                                "order": 16
                            },
                            {
                                "children": [],
                                "depth": 1,
                                "id": 17,
                                "order": 17
                            },
                            {
                                "children": [],
                                "depth": 1,
                                "id": 18,
                                "order": 18
                            },
                            {
                                "children": [],
                                "depth": 1,
                                "id": 19,
                                "order": 19
                            },
                            {
                                "children": [],
                                "depth": 1,
                                "id": 20,
                                "order": 20
                            },
                            {
                                "children": [],
                                "depth": 1,
                                "id": 21,
                                "order": 21
                            },
                            {
                                "children": [],
                                "depth": 1,
                                "id": 22,
                                "order": 22
                            },
                            {
                                "children": [],
                                "depth": 1,
                                "id": 23,
                                "order": 23
                            },
                            {
                                "children": [],
                                "depth": 1,
                                "id": 24,
                                "order": 24
                            },
                            {
                                "children": [],
                                "depth": 1,
                                "id": 25,
                                "order": 25
                            },
                            {
                                "children": [
                                    {
                                        "children": [
                                            {
                                                "children": [],
                                                "depth": 3,
                                                "id": 28,
                                                "order": 28
                                            }
                                        ],
                                        "depth": 2,
                                        "id": 27,
                                        "order": 27
                                    }
                                ],
                                "depth": 1,
                                "id": 26,
                                "order": 26
                            },
                            {
                                "children": [
                                    {
                                        "children": [
                                            {
                                                "children": [],
                                                "depth": 3,
                                                "id": 31,
                                                "order": 31
                                            }
                                        ],
                                        "depth": 2,
                                        "id": 30,
                                        "order": 30
                                    }
                                ],
                                "depth": 1,
                                "id": 29,
                                "order": 29
                            },
                            {
                                "children": [],
                                "depth": 1,
                                "id": 32,
                                "order": 32
                            }
                        ],
                        "depth": 0,
                        "id": 0,
                        "order": 0
                    }
                ],
                "depth": -1,
                "id": -1,
                "order": -1
            }
        ],
        "mainTraceNodeCount": 33,
        "parentIdMap": {
            "0": -1,
            "1": 0,
            "10": 0,
            "11": 10,
            "12": 11,
            "13": 0,
            "14": 13,
            "15": 14,
            "16": 0,
            "17": 0,
            "18": 0,
            "19": 0,
            "2": 0,
            "20": 0,
            "21": 0,
            "22": 0,
            "23": 0,
            "24": 0,
            "25": 0,
            "26": 0,
            "27": 26,
            "28": 27,
            "29": 0,
            "3": 0,
            "30": 29,
            "31": 30,
            "32": 0,
            "4": 0,
            "5": 0,
            "6": 0,
            "7": 0,
            "8": 0,
            "9": 0
        },
        "tidyTrace": [
            {
                "children": [
                    {
                        "children": [
                            {
                                "children": [],
                                "depth": 1,
                                "id": 1,
                                "order": 1
                            },
                            {
                                "children": [],
                                "depth": 1,
                                "id": 2,
                                "order": 2
                            },
                            {
                                "children": [],
                                "depth": 1,
                                "id": 3,
                                "order": 3
                            },
                            {
                                "children": [],
                                "depth": 1,
                                "id": 4,
                                "order": 4
                            },
                            {
                                "children": [],
                                "depth": 1,
                                "id": 5,
                                "order": 5
                            },
                            {
                                "children": [],
                                "depth": 1,
                                "id": 6,
                                "order": 6
                            },
                            {
                                "children": [],
                                "depth": 1,
                                "id": 7,
                                "order": 7
                            },
                            {
                                "children": [],
                                "depth": 1,
                                "id": 8,
                                "order": 8
                            },
                            {
                                "children": [],
                                "depth": 1,
                                "id": 9,
                                "order": 9
                            },
                            {
                                "children": [
                                    {
                                        "children": [
                                            {
                                                "children": [],
                                                "depth": 3,
                                                "id": 12,
                                                "order": 12
                                            }
                                        ],
                                        "depth": 2,
                                        "id": 11,
                                        "order": 11
                                    }
                                ],
                                "depth": 1,
                                "id": 10,
                                "order": 10
                            },
                            {
                                "children": [
                                    {
                                        "children": [
                                            {
                                                "children": [],
                                                "depth": 3,
                                                "id": 15,
                                                "order": 15
                                            }
                                        ],
                                        "depth": 2,
                                        "id": 14,
                                        "order": 14
                                    }
                                ],
                                "depth": 1,
                                "id": 13,
                                "order": 13
                            },
                            {
                                "children": [],
                                "depth": 1,
                                "id": 16,
                                "order": 16
                            },
                            {
                                "children": [],
                                "depth": 1,
                                "id": 17,
                                "order": 17
                            },
                            {
                                "children": [],
                                "depth": 1,
                                "id": 18,
                                "order": 18
                            },
                            {
                                "children": [],
                                "depth": 1,
                                "id": 19,
                                "order": 19
                            },
                            {
                                "children": [],
                                "depth": 1,
                                "id": 20,
                                "order": 20
                            },
                            {
                                "children": [],
                                "depth": 1,
                                "id": 21,
                                "order": 21
                            },
                            {
                                "children": [],
                                "depth": 1,
                                "id": 22,
                                "order": 22
                            },
                            {
                                "children": [],
                                "depth": 1,
                                "id": 23,
                                "order": 23
                            },
                            {
                                "children": [],
                                "depth": 1,
                                "id": 24,
                                "order": 24
                            },
                            {
                                "children": [],
                                "depth": 1,
                                "id": 25,
                                "order": 25
                            },
                            {
                                "children": [
                                    {
                                        "children": [
                                            {
                                                "children": [],
                                                "depth": 3,
                                                "id": 28,
                                                "order": 28
                                            }
                                        ],
                                        "depth": 2,
                                        "id": 27,
                                        "order": 27
                                    }
                                ],
                                "depth": 1,
                                "id": 26,
                                "order": 26
                            },
                            {
                                "children": [
                                    {
                                        "children": [
                                            {
                                                "children": [],
                                                "depth": 3,
                                                "id": 31,
                                                "order": 31
                                            }
                                        ],
                                        "depth": 2,
                                        "id": 30,
                                        "order": 30
                                    }
                                ],
                                "depth": 1,
                                "id": 29,
                                "order": 29
                            },
                            {
                                "children": [],
                                "depth": 1,
                                "id": 32,
                                "order": 32
                            }
                        ],
                        "depth": 0,
                        "id": 0,
                        "order": 0
                    }
                ],
                "depth": -1,
                "id": -1,
                "order": -1
            }
        ],
        "tidyTraceNodeCount": 33
    },
    "state_change": {
        "stateChanges": [
            {
                "address": "0x12459c951127e0c374ff9105dda097662a027093",
                "erc": "",
                "slots": [
                    {
                        "current": "0x000000000000000000000000000000000000000000000058866d6ffec4e40000",
                        "key": "0x089537ad8934ba44bbcf7470d8c6c7b6e3ff7b4e2a474db12f4b58e6fc318acc",
                        "prev": "0x0000000000000000000000000000000000000000000000000000000000000000"
                    },
                    {
                        "current": "0x000000000000000000000000000000000000000000000000e3df8f00cbe9fc38",
                        "key": "0xa7412dd775563af74bcb21d514a7b66b87638b0ee330b7ef5a5492076f387808",
                        "prev": "0x000000000000000000000000000000000000000000000000013fbe85edc8fffb"
                    }
                ],
                "storageVariables": [
                    {
                        "name": "filled",
                        "type": "mapping(bytes32 => uint256)",
                        "value": {
                            "pairs": [
                                {
                                    "key": "0xa741c0d2c40e282d822f00565e74265ac5a17bc794c0ca9a41138d4a7bb23c33",
                                    "value": {
                                        "current": "1633000000000000000000",
                                        "prev": "0",
                                        "typeTag": 1
                                    }
                                },
                                {
                                    "key": "0xec6509eae10340c8533f04fed1e32185ab2c8fd6d75d712cbce2739a1ffd5bc9",
                                    "value": {
                                        "current": "16419999999999999032",
                                        "prev": "89999999999999995",
                                        "typeTag": 1
                                    }
                                }
                            ],
                            "typeTag": 4
                        }
                    }
                ]
            },
            {
                "address": "0x2d0ea9f9591205a642eb01826ba4fa019eb0efc6",
                "erc": "ERC-20",
                "slots": [
                    {
                        "current": "0x00000000000000000000000000000000000000000000152d02c7e14af67ff649",
                        "key": "0xa2e27261d62b90dd5ab4655220a64e7cacd92471e9c59694b39203c50fc97b9b",
                        "prev": "0x00000000000000000000000000000000000000000000152d02c7e14af67ff61f"
                    },
                    {
                        "current": "0x000000000000000000000000000000000000000000000a968163f0a57b4009b7",
                        "key": "0x7a8dd1feaeb68ba93a27a9e7b9b8344848878bec46d8a4b4799160d5da64db28",
                        "prev": "0x000000000000000000000000000000000000000000000a968163f0a57b4009e1"
                    },
                    {
                        "current": "0xfffffffffffffffffffffffffffffffffffffffffffadd8d95e240e0be8bd76f",
                        "key": "0x820b2dd4dcf6cf1f2e2c772916fedd5ec8c7412add7f3eaf083a471c85fa7b6a",
                        "prev": "0xfffffffffffffffffffffffffffffffffffffffffffadde61c4fb0df836fd76f"
                    },
                    {
                        "current": "0xfffffffffffffffffffffffffffffffffffffffffffadd8d95e240e0be8be126",
                        "key": "0x58ce2495f7340177e6269762763e3bcabdde3398a7ef496d3d60b6637819c14e",
                        "prev": "0xfffffffffffffffffffffffffffffffffffffffffffadde61c4fb0df836fe150"
                    }
                ],
                "storageVariables": [
                    {
                        "name": "balances",
                        "type": "mapping(address => uint256)",
                        "value": {
                            "pairs": [
                                {
                                    "key": "0x1b2a9cc5ea11c11b70908d75207b5b1f0ac4a839",
                                    "value": {
                                        "current": "50000000000000000002487",
                                        "prev": "50000000000000000002529",
                                        "typeTag": 1
                                    }
                                },
                                {
                                    "key": "0xe697a9f14f182c5291287dbeb47d41773091f035",
                                    "value": {
                                        "current": "99999999999999999997513",
                                        "prev": "99999999999999999997471",
                                        "typeTag": 1
                                    }
                                }
                            ],
                            "typeTag": 4
                        }
                    },
                    {
                        "name": "allowed",
                        "type": "mapping(address => mapping(address => uint256))",
                        "value": {
                            "pairs": [
                                {
                                    "key": "0x1b2a9cc5ea11c11b70908d75207b5b1f0ac4a839",
                                    "value": {
                                        "pairs": [
                                            {
                                                "key": "0x8da0d80f5007ef1e431dd2127178d224e32c2ef4",
                                                "value": {
                                                    "current": "115792089237316195423570985008687907853269984665640557832157450214913121968422",
                                                    "prev": "115792089237316195423570985008687907853269984665640557833790450214913121968464",
                                                    "typeTag": 1
                                                }
                                            }
                                        ],
                                        "typeTag": 4
                                    }
                                },
                                {
                                    "key": "0xe697a9f14f182c5291287dbeb47d41773091f035",
                                    "value": {
                                        "pairs": [
                                            {
                                                "key": "0x8da0d80f5007ef1e431dd2127178d224e32c2ef4",
                                                "value": {
                                                    "current": "115792089237316195423570985008687907853269984665640557832157450214913121965935",
                                                    "prev": "115792089237316195423570985008687907853269984665640557833790450214913121965935",
                                                    "typeTag": 1
                                                }
                                            }
                                        ],
                                        "typeTag": 4
                                    }
                                }
                            ],
                            "typeTag": 4
                        }
                    }
                ]
            },
            {
                "address": "0xc02aaa39b223fe8d0a0e5c4f27ead9083c756cc2",
                "erc": "ERC-20",
                "slots": [
                    {
                        "current": "0x000000000000000000000000000000000000000000000000ed5adfce5c32f0d5",
                        "key": "0xf8b52545d831214fc8e4a960c22d5f808f8187081dfbd5b490cd2a04b3e94b7d",
                        "prev": "0x000000000000000000000000000000000000000000000000ed5adfce5c32ecc8"
                    },
                    {
                        "current": "0x00000000000000000000000000000000000000000000000000f32c2c340b2f2b",
                        "key": "0x468b7740b40241954feca7f6bf33c301f250889ba8ed65b4581375c71bf1e5f2",
                        "prev": "0x00000000000000000000000000000000000000000000000000f32c2c340b3338"
                    }
                ],
                "storageVariables": [
                    {
                        "name": "balanceOf",
                        "type": "mapping(address => uint256)",
                        "value": {
                            "pairs": [
                                {
                                    "key": "0x1b2a9cc5ea11c11b70908d75207b5b1f0ac4a839",
                                    "value": {
                                        "current": "17103228612295979221",
                                        "prev": "17103228612295978184",
                                        "typeTag": 1
                                    }
                                },
                                {
                                    "key": "0xe697a9f14f182c5291287dbeb47d41773091f035",
                                    "value": {
                                        "current": "68446987704020779",
                                        "prev": "68446987704021816",
                                        "typeTag": 1
                                    }
                                }
                            ],
                            "typeTag": 4
                        }
                    }
                ]
            }
        ]
    }
}