{
    "balance_change": {
        "balanceChanges": [
            {
                "account": "0x6b3a6e624e660dbb69f4cf2fd3bba760e8ebad56",
                "assets": [
                    {
                        "address": "0xeeeeeeeeeeeeeeeeeeeeeeeeeeeeeeeeeeeeeeee",
                        "amount": "10.2524",
                        "iconUrl": "https://assets.blocksec.com/image/1663669189317-3.png",
                        "isERC1155": false,
                        "isERC721": false,
                        "sign": false,
                        "value": "7570.168321783200396"
                    },
                    {
                        "address": "0x09a3ecafa817268f77be1283176b946c4ff2e608",
                        "amount": "2,781.447416062651925772",
                        "iconUrl": "",
                        "isERC1155": false,
                        "isERC721": false,
                        "sign": true,
                        "value": "13199.15948"
                    }
                ]
            },
            {
                "account": "0x57ab5aeb8bac2586a0d437163c3eb844246336ce",
                "assets": [
                    {
                        "address": "0x09a3ecafa817268f77be1283176b946c4ff2e608",
                        "amount": "2,781.447416062651925772",
                        "iconUrl": "",
                        "isERC1155": false,
                        "isERC721": false,
                        "sign": false,
                        "value": "13199.15948"
                    },
                    {
                        "address": "0xc02aaa39b223fe8d0a0e5c4f27ead9083c756cc2",
                        "amount": "10.2524",
                        "iconUrl": "https://assets.blocksec.com/icon/f1cb2d02c471d545bbc7722daf3277fd852d98e63d118771af7047bd8256c516.png",
                        "isERC1155": false,
                        "isERC721": false,
                        "sign": true,
                        "value": "7570.168321783200396"
                    }
                ]
            },
            {
                "account": "0xc02aaa39b223fe8d0a0e5c4f27ead9083c756cc2",
                "assets": [
                    {
                        "address": "0xeeeeeeeeeeeeeeeeeeeeeeeeeeeeeeeeeeeeeeee",
                        "amount": "10.2524",
                        "iconUrl": "https://assets.blocksec.com/image/1663669189317-3.png",
                        "isERC1155": false,
                        "isERC721": false,
                        "sign": true,
                        "value": "7570.168321783200396"
                    },
                    {
                        "address": "0xc02aaa39b223fe8d0a0e5c4f27ead9083c756cc2",
                        "amount": "10.2524",
                        "iconUrl": "https://assets.blocksec.com/icon/f1cb2d02c471d545bbc7722daf3277fd852d98e63d118771af7047bd8256c516.png",
                        "isERC1155": false,
                        "isERC721": false,
                        "sign": false,
                        "value": "7570.168321783200396"
                    }
                ]
            }
        ]
    },
    "profile": {
        "basic_info": {
            "baseFee": "",
            "blockNumber": 11756297,
            "callData": "0x90411a32000000000000000000000000e069cb01d06ba617bcdf789bf2ff0d5e5ca20c71000000000000000000000000000000000000000000000000000000000000006000000000000000000000000000000000000000000000000000000000000001c0000000000000000000000000eeeeeeeeeeeeeeeeeeeeeeeeeeeeeeeeeeeeeeee00000000000000000000000009a3ecafa817268f77be1283176b946c4ff2e608000000000000000000000000e069cb01d06ba617bcdf789bf2ff0d5e5ca20c710000000000000000000000006b3a6e624e660dbb69f4cf2fd3bba760e8ebad560000000000000000000000000000000000000000000000008e47d77aff370000000000000000000000000000000000000000000000000096c856482b428005070000000000000000000000000000000000000000000000978a4eff347b6ff0790000000000000000000000000000000000000000000000000000000000000000000000000000000000000000000000000000000000000000000000000000000000000000000000000000000000000000000000000000000000000000000001400000000000000000000000000000000000000000000000000000000000000000000000000000000000000000000000000000000000000000000000000000000500000000000000000000000000000000000000000000000000000000000000a00000000000000000000000000000000000000000000000000000000000000160000000000000000000000000000000000000000000000000000000000000026000000000000000000000000000000000000000000000000000000000000003c000000000000000000000000000000000000000000000000000000000000006e0000000000000000000000000c02aaa39b223fe8d0a0e5c4f27ead9083c756cc200000000000000000000000000000000000000000000000000000000000000000000000000000000000000000000000000000000000000008e47d77aff37000000000000000000000000000000000000000000000000000000000000000000800000000000000000000000000000000000000000000000000000000000000004d0e30db000000000000000000000000000000000000000000000000000000000000000000000000000000000c02aaa39b223fe8d0a0e5c4f27ead9083c756cc20000000000000000000000000000000000000000000000000000000000000000000000000000000000000000000000000000000000000000000000000000000000000000000000000000000000000000000000000000000000000000000000800000000000000000000000000000000000000000000000000000000000000044a9059cbb00000000000000000000000057ab5aeb8bac2586a0d437163c3eb844246336ce0000000000000000000000000000000000000000000000008e47d77aff37000000000000000000000000000000000000000000000000000000000000800000000000000000000000000000000000000000000000000000000000000000000000000000000000000000000000000000000000000000000000000000000000000000000000000000000000000000000000000000000000000000000000000000000000000000000000000000000000000000000000000000000000008000000000000000000000000000000000000000000000000000000000000000a4c9f12e9d00000000000000000000000057ab5aeb8bac2586a0d437163c3eb844246336ce000000000000000000000000c02aaa39b223fe8d0a0e5c4f27ead9083c756cc200000000000000000000000009a3ecafa817268f77be1283176b946c4ff2e608000000000000000000000003e069cb01d06ba617bcdf789bf2ff0d5e5ca20c71000000000000000000000000000000000000000000000000000000000000000000000000000000000000000000000000000000000000000000000000000000000000000000000000000000000000000000000000000000000000000000000000000000000000000000000000000000000000000000000000000000000000000000000000000000000000000000000000000000000000000000000000000000000000000000000000000000000000000000000000000000000000008000000000000000000000000000000000000000000000000000000000000002647f8fe7a000000000000000000000000000000000000000000000000000000000000000808000000000000000000000000000000000000000000000000000000000000044000000000000000000000000e069cb01d06ba617bcdf789bf2ff0d5e5ca20c7100000000000000000000000000000000000000000000000000000000000001e0000000000000000000000000000000000000000000000000000000000000000000000000000000000000000000000000000000000000000000000000000000000000000000000000000000000000000000000000000000000000000000000000000000000000000000000000000000000000000000000000000000000000008000000000000000000000000000000000000000000000000000000000000000a40597122400000000000000000000000009a3ecafa817268f77be1283176b946c4ff2e60800000000000000000000000000000000000000000000000000000000000000000000000000000000000000000000000000000000000000000000000000000001000000000000000000000000000000010000000000000000000000000000000100000000000000000000000000000000000000000000000016d9a70a7a1c604f00000000000000000000000000000000000000000000000000000000000000000000000000000000000000000000000000000000000000000000004470bdb94700000000000000000000000009a3ecafa817268f77be1283176b946c4ff2e6080000000000000000000000000000000000000000000000978a4eff347b6ff0790000000000000000000000000000000000000000000000000000000000000000000000000000000000000000000000000000000000000000000000000000000000000000000000000000000000000000000000000000000000000000000000000000000000000000000000000000000000000000000000000000000000000000000000000000000000000000000000000000000000000000000000000000000000000000000000000000000000000000000000000000008000000000000000000000000000000000000000000000000000000000000001a4b3af37c00000000000000000000000000000000000000000000000000000000000000080800000000000000000000000000000000000000000000000000000000000004400000000000000000000000009a3ecafa817268f77be1283176b946c4ff2e608000000000000000000000000000000010000000000000000000000000000000100000000000000000000000000000000000000000000000000000000000000000000000000000000000000000000000000000000000000000000000000000000000000000000000000000000000000000000000000000000000000000000000000000000000000000000000000000000000000000000000000000000000000800000000000000000000000000000000000000000000000000000000000000064d1660f9900000000000000000000000009a3ecafa817268f77be1283176b946c4ff2e6080000000000000000000000006b3a6e624e660dbb69f4cf2fd3bba760e8ebad5600000000000000000000000000000000000000000000000000000000000000010000000000000000000000000000000000000000000000000000000000000000000000000000000000000000000000000000000000000000",
            "debugEnable": true,
            "errorInfo": "",
            "eventCount": 7,
            "feeRecipient": "0x3ecef08d0e2dad803847e052249bb4f8bff2d5bb",
            "formatValue": "10.2524",
            "gasLimit": 270358,
            "gasPrice": "92",
            "gasUsed": 180478,
            "intTxnCount": 20,
            "internalRevert": false,
            "internalRevertMessage": "",
            "isContractCreation": false,
            "isFlashloan": false,
            "maxFee": "",
            "nonce": 2063,
            "overwritedBlockNumber": -1,
            "priorityFee": "",
            "receiver": "0x111111125434b319222cdbf8c261674adb56f3ae",
            "revertMessage": "",
            "sender": "0x6b3a6e624e660dbb69f4cf2fd3bba760e8ebad56",
            "simulationEnable": true,
            "sourceTxnHash": "0x76711f1c27469fcaf42112f9b1a7dfc42aadf26292bc2805653995c9e552d12d",
            "status": true,
            "timestamp": "2021-01-30T08:53:39Z",
            "transactionFee": "0.016603976",
            "txnHash": "0x76711f1c27469fcaf42112f9b1a7dfc42aadf26292bc2805653995c9e552d12d",
            "txnIndex": 307,
            "type": 0,
            "value": "10252400000000000000"
        },
        "fund_flow": [
            {
                "amount": "10.2524",
                "from": "0x6b3a6e624e660dbb69f4cf2fd3bba760e8ebad56",
                "id": 1,
                "isERC1155": false,
                "isERC721": false,
                "isReverted": false,
                "order": 1,
                "to": "0x111111125434b319222cdbf8c261674adb56f3ae",
                "token": "0xeeeeeeeeeeeeeeeeeeeeeeeeeeeeeeeeeeeeeeee"
            },
            {
                "amount": "10.2524",
                "from": "0x111111125434b319222cdbf8c261674adb56f3ae",
                "id": 2,
                "isERC1155": false,
                "isERC721": false,
                "isReverted": false,
                "order": 2,
                "to": "0xe069cb01d06ba617bcdf789bf2ff0d5e5ca20c71",
                "token": "0xeeeeeeeeeeeeeeeeeeeeeeeeeeeeeeeeeeeeeeee"
            },
            {
                "amount": "10.2524",
                "from": "0xe069cb01d06ba617bcdf789bf2ff0d5e5ca20c71",
                "id": 3,
                "isERC1155": false,
                "isERC721": false,
                "isReverted": false,
                "order": 3,
                "to": "0xc02aaa39b223fe8d0a0e5c4f27ead9083c756cc2",
                "token": "0xeeeeeeeeeeeeeeeeeeeeeeeeeeeeeeeeeeeeeeee"
            },
            {
                "amount": "10.2524",
                "from": "0xc02aaa39b223fe8d0a0e5c4f27ead9083c756cc2",
                "id": 4,
                "isERC1155": false,
                "isERC721": false,
                "isReverted": false,
                "order": 4,
                "to": "0xe069cb01d06ba617bcdf789bf2ff0d5e5ca20c71",
                "token": "0xc02aaa39b223fe8d0a0e5c4f27ead9083c756cc2"
            },
            {
                "amount": "10.2524",
                "from": "0xe069cb01d06ba617bcdf789bf2ff0d5e5ca20c71",
                "id": 5,
                "isERC1155": false,
                "isERC721": false,
                "isReverted": false,
                "order": 5,
                "to": "0x57ab5aeb8bac2586a0d437163c3eb844246336ce",
                "token": "0xc02aaa39b223fe8d0a0e5c4f27ead9083c756cc2"
            },
            {
                "amount": "2,781.447416062651925772",
                "from": "0x57ab5aeb8bac2586a0d437163c3eb844246336ce",
                "id": 6,
                "isERC1155": false,
                "isERC721": false,
                "isReverted": false,
                "order": 6,
                "to": "0xe069cb01d06ba617bcdf789bf2ff0d5e5ca20c71",
                "token": "0x09a3ecafa817268f77be1283176b946c4ff2e608"
            },
            {
                "amount": "2,781.447416062651925772",
                "from": "0xe069cb01d06ba617bcdf789bf2ff0d5e5ca20c71",
                "id": 7,
                "isERC1155": false,
                "isERC721": false,
                "isReverted": false,
                "order": 7,
                "to": "0x6b3a6e624e660dbb69f4cf2fd3bba760e8ebad56",
                "token": "0x09a3ecafa817268f77be1283176b946c4ff2e608"
            }
        ],
        "token_infos": [
            {
                "address": "0x09a3ecafa817268f77be1283176b946c4ff2e608",
                "decimals": 18
            },
            {
                "address": "0xc02aaa39b223fe8d0a0e5c4f27ead9083c756cc2",
                "decimals": 18
            },
            {
                "address": "0xeeeeeeeeeeeeeeeeeeeeeeeeeeeeeeeeeeeeeeee",
                "decimals": 18
            }
        ]
    },
    "address_label": {
        "labels": [
            {
                "address": "0x57ab5aeb8bac2586a0d437163c3eb844246336ce",
                "label": "Uniswap V2: MIR 3"
            },
            {
                "address": "0x0000000000000000000000000000000000000000",
                "label": "Null Address"
            },
            {
                "address": "0x0000000000000000000000000000000000000003",
                "label": "Precompiled"
            },
            {
                "address": "0x0000000000000000000000000000000000000004",
                "label": "Precompiled"
            },
            {
                "address": "0xeeeeeeeeeeeeeeeeeeeeeeeeeeeeeeeeeeeeeeee",
                "label": "Ether"
            },
            {
                "address": "0x09a3ecafa817268f77be1283176b946c4ff2e608",
                "label": "Mirror Protocol: MIR Token"
            },
            {
                "address": "0xc02aaa39b223fe8d0a0e5c4f27ead9083c756cc2",
                "label": "Wrapped Ether (WETH)"
            },
            {
                "address": "0x0000000000000000000000000000000000000002",
                "label": "Precompiled"
            },
            {
                "address": "0x111111125434b319222cdbf8c261674adb56f3ae",
                "label": "1inch v2: Aggregation Router"
            },
            {
                "address": "0xe069cb01d06ba617bcdf789bf2ff0d5e5ca20c71",
                "label": "1inch: Router 2"
            },
            {
                "address": "0x0000000000000000000000000000000000000001",
                "label": "Precompiled"
            }
        ]
    },
    "trace": {
        "accountLabels": null,
        "dataMap": {
            "-1": {
                "invocation": {
                    "address": "0x6b3a6e624e660dbb69f4cf2fd3bba760e8ebad56",
                    "callData": "",
                    "decodedMethod": null,
                    "errorInfo": "",
                    "fromAddress": "",
                    "gasUsed": 0,
                    "id": -1,
                    "methodDecoded": false,
                    "operation": "",
                    "output": "",
                    "revert": false,
                    "revertMessage": "",
                    "selector": "",
                    "status": false,
                    "value": ""
                },
                "nodeType": 0
            },
            "0": {
                "invocation": {
                    "address": "0x111111125434b319222cdbf8c261674adb56f3ae",
                    "callData": "0x000000000000000000000000e069cb01d06ba617bcdf789bf2ff0d5e5ca20c71000000000000000000000000000000000000000000000000000000000000006000000000000000000000000000000000000000000000000000000000000001c0000000000000000000000000eeeeeeeeeeeeeeeeeeeeeeeeeeeeeeeeeeeeeeee00000000000000000000000009a3ecafa817268f77be1283176b946c4ff2e608000000000000000000000000e069cb01d06ba617bcdf789bf2ff0d5e5ca20c710000000000000000000000006b3a6e624e660dbb69f4cf2fd3bba760e8ebad560000000000000000000000000000000000000000000000008e47d77aff370000000000000000000000000000000000000000000000000096c856482b428005070000000000000000000000000000000000000000000000978a4eff347b6ff0790000000000000000000000000000000000000000000000000000000000000000000000000000000000000000000000000000000000000000000000000000000000000000000000000000000000000000000000000000000000000000000001400000000000000000000000000000000000000000000000000000000000000000000000000000000000000000000000000000000000000000000000000000000500000000000000000000000000000000000000000000000000000000000000a00000000000000000000000000000000000000000000000000000000000000160000000000000000000000000000000000000000000000000000000000000026000000000000000000000000000000000000000000000000000000000000003c000000000000000000000000000000000000000000000000000000000000006e0000000000000000000000000c02aaa39b223fe8d0a0e5c4f27ead9083c756cc200000000000000000000000000000000000000000000000000000000000000000000000000000000000000000000000000000000000000008e47d77aff37000000000000000000000000000000000000000000000000000000000000000000800000000000000000000000000000000000000000000000000000000000000004d0e30db000000000000000000000000000000000000000000000000000000000000000000000000000000000c02aaa39b223fe8d0a0e5c4f27ead9083c756cc20000000000000000000000000000000000000000000000000000000000000000000000000000000000000000000000000000000000000000000000000000000000000000000000000000000000000000000000000000000000000000000000800000000000000000000000000000000000000000000000000000000000000044a9059cbb00000000000000000000000057ab5aeb8bac2586a0d437163c3eb844246336ce0000000000000000000000000000000000000000000000008e47d77aff37000000000000000000000000000000000000000000000000000000000000800000000000000000000000000000000000000000000000000000000000000000000000000000000000000000000000000000000000000000000000000000000000000000000000000000000000000000000000000000000000000000000000000000000000000000000000000000000000000000000000000000000000008000000000000000000000000000000000000000000000000000000000000000a4c9f12e9d00000000000000000000000057ab5aeb8bac2586a0d437163c3eb844246336ce000000000000000000000000c02aaa39b223fe8d0a0e5c4f27ead9083c756cc200000000000000000000000009a3ecafa817268f77be1283176b946c4ff2e608000000000000000000000003e069cb01d06ba617bcdf789bf2ff0d5e5ca20c71000000000000000000000000000000000000000000000000000000000000000000000000000000000000000000000000000000000000000000000000000000000000000000000000000000000000000000000000000000000000000000000000000000000000000000000000000000000000000000000000000000000000000000000000000000000000000000000000000000000000000000000000000000000000000000000000000000000000000000000000000000000000008000000000000000000000000000000000000000000000000000000000000002647f8fe7a000000000000000000000000000000000000000000000000000000000000000808000000000000000000000000000000000000000000000000000000000000044000000000000000000000000e069cb01d06ba617bcdf789bf2ff0d5e5ca20c7100000000000000000000000000000000000000000000000000000000000001e0000000000000000000000000000000000000000000000000000000000000000000000000000000000000000000000000000000000000000000000000000000000000000000000000000000000000000000000000000000000000000000000000000000000000000000000000000000000000000000000000000000000000008000000000000000000000000000000000000000000000000000000000000000a40597122400000000000000000000000009a3ecafa817268f77be1283176b946c4ff2e60800000000000000000000000000000000000000000000000000000000000000000000000000000000000000000000000000000000000000000000000000000001000000000000000000000000000000010000000000000000000000000000000100000000000000000000000000000000000000000000000016d9a70a7a1c604f00000000000000000000000000000000000000000000000000000000000000000000000000000000000000000000000000000000000000000000004470bdb94700000000000000000000000009a3ecafa817268f77be1283176b946c4ff2e6080000000000000000000000000000000000000000000000978a4eff347b6ff0790000000000000000000000000000000000000000000000000000000000000000000000000000000000000000000000000000000000000000000000000000000000000000000000000000000000000000000000000000000000000000000000000000000000000000000000000000000000000000000000000000000000000000000000000000000000000000000000000000000000000000000000000000000000000000000000000000000000000000000000000000008000000000000000000000000000000000000000000000000000000000000001a4b3af37c00000000000000000000000000000000000000000000000000000000000000080800000000000000000000000000000000000000000000000000000000000004400000000000000000000000009a3ecafa817268f77be1283176b946c4ff2e608000000000000000000000000000000010000000000000000000000000000000100000000000000000000000000000000000000000000000000000000000000000000000000000000000000000000000000000000000000000000000000000000000000000000000000000000000000000000000000000000000000000000000000000000000000000000000000000000000000000000000000000000000000800000000000000000000000000000000000000000000000000000000000000064d1660f9900000000000000000000000009a3ecafa817268f77be1283176b946c4ff2e6080000000000000000000000006b3a6e624e660dbb69f4cf2fd3bba760e8ebad5600000000000000000000000000000000000000000000000000000000000000010000000000000000000000000000000000000000000000000000000000000000000000000000000000000000000000000000000000000000",
                    "decodedMethod": {
                        "callParams": [
                            {
                                "name": "caller",
                                "type": "address",
                                "value": "0xe069cb01d06ba617bcdf789bf2ff0d5e5ca20c71"
                            },
                            {
                                "name": "desc",
                                "type": "(address,address,address,address,uint256,uint256,uint256,uint256,address,bytes)",
                                "value": [
                                    {
                                        "name": "srcToken",
                                        "type": "address",
                                        "value": "0xeeeeeeeeeeeeeeeeeeeeeeeeeeeeeeeeeeeeeeee"
                                    },
                                    {
                                        "name": "dstToken",
                                        "type": "address",
                                        "value": "0x09a3ecafa817268f77be1283176b946c4ff2e608"
                                    },
                                    {
                                        "name": "srcReceiver",
                                        "type": "address",
                                        "value": "0xe069cb01d06ba617bcdf789bf2ff0d5e5ca20c71"
                                    },
                                    {
                                        "name": "dstReceiver",
                                        "type": "address",
                                        "value": "0x6b3a6e624e660dbb69f4cf2fd3bba760e8ebad56"
                                    },
                                    {
                                        "name": "amount",
                                        "type": "uint256",
                                        "value": "10,252,400,000,000,000,000"
                                    },
                                    {
                                        "name": "minReturnAmount",
                                        "type": "uint256",
                                        "value": "2,781,447,416,062,651,925,767"
                                    },
                                    {
                                        "name": "guaranteedAmount",
                                        "type": "uint256",
                                        "value": "2,795,424,538,756,434,096,249"
                                    },
                                    {
                                        "name": "flags",
                                        "type": "uint256",
                                        "value": "0"
                                    },
                                    {
                                        "name": "referrer",
                                        "type": "address",
                                        "value": "0x0000000000000000000000000000000000000000"
                                    },
                                    {
                                        "name": "permit",
                                        "type": "bytes",
                                        "value": "0x"
                                    }
                                ]
                            },
                            {
                                "name": "calls",
                                "type": "(uint256,uint256,uint256,bytes)[]",
                                "value": [
                                    [
                                        {
                                            "name": "targetWithMandatory",
                                            "type": "uint256",
                                            "value": "1,097,077,688,018,008,265,106,216,665,536,940,668,749,033,598,146"
                                        },
                                        {
                                            "name": "gasLimit",
                                            "type": "uint256",
                                            "value": "0"
                                        },
                                        {
                                            "name": "value",
                                            "type": "uint256",
                                            "value": "10,252,400,000,000,000,000"
                                        },
                                        {
                                            "name": "data",
                                            "type": "bytes",
                                            "value": "0xd0e30db0"
                                        }
                                    ],
                                    [
                                        {
                                            "name": "targetWithMandatory",
                                            "type": "uint256",
                                            "value": "1,097,077,688,018,008,265,106,216,665,536,940,668,749,033,598,146"
                                        },
                                        {
                                            "name": "gasLimit",
                                            "type": "uint256",
                                            "value": "0"
                                        },
                                        {
                                            "name": "value",
                                            "type": "uint256",
                                            "value": "0"
                                        },
                                        {
                                            "name": "data",
                                            "type": "bytes",
                                            "value": "0xa9059cbb00000000000000000000000057ab5aeb8bac2586a0d437163c3eb844246336ce0000000000000000000000000000000000000000000000008e47d77aff370000"
                                        }
                                    ],
                                    [
                                        {
                                            "name": "targetWithMandatory",
                                            "type": "uint256",
                                            "value": "57,896,044,618,658,097,711,785,492,504,343,953,926,634,992,332,820,282,019,728,792,003,956,564,819,968"
                                        },
                                        {
                                            "name": "gasLimit",
                                            "type": "uint256",
                                            "value": "0"
                                        },
                                        {
                                            "name": "value",
                                            "type": "uint256",
                                            "value": "0"
                                        },
                                        {
                                            "name": "data",
                                            "type": "bytes",
                                            "value": "0xc9f12e9d00000000000000000000000057ab5aeb8bac2586a0d437163c3eb844246336ce000000000000000000000000c02aaa39b223fe8d0a0e5c4f27ead9083c756cc200000000000000000000000009a3ecafa817268f77be1283176b946c4ff2e608000000000000000000000003e069cb01d06ba617bcdf789bf2ff0d5e5ca20c710000000000000000000000000000000000000000000000000000000000000000"
                                        }
                                    ],
                                    [
                                        {
                                            "name": "targetWithMandatory",
                                            "type": "uint256",
                                            "value": "0"
                                        },
                                        {
                                            "name": "gasLimit",
                                            "type": "uint256",
                                            "value": "0"
                                        },
                                        {
                                            "name": "value",
                                            "type": "uint256",
                                            "value": "0"
                                        },
                                        {
                                            "name": "data",
                                            "type": "bytes",
                                            "value": "0x7f8fe7a000000000000000000000000000000000000000000000000000000000000000808000000000000000000000000000000000000000000000000000000000000044000000000000000000000000e069cb01d06ba617bcdf789bf2ff0d5e5ca20c7100000000000000000000000000000000000000000000000000000000000001e0000000000000000000000000000000000000000000000000000000000000000000000000000000000000000000000000000000000000000000000000000000000000000000000000000000000000000000000000000000000000000000000000000000000000000000000000000000000000000000000000000000000000008000000000000000000000000000000000000000000000000000000000000000a40597122400000000000000000000000009a3ecafa817268f77be1283176b946c4ff2e60800000000000000000000000000000000000000000000000000000000000000000000000000000000000000000000000000000000000000000000000000000001000000000000000000000000000000010000000000000000000000000000000100000000000000000000000000000000000000000000000016d9a70a7a1c604f00000000000000000000000000000000000000000000000000000000000000000000000000000000000000000000000000000000000000000000004470bdb94700000000000000000000000009a3ecafa817268f77be1283176b946c4ff2e6080000000000000000000000000000000000000000000000978a4eff347b6ff07900000000000000000000000000000000000000000000000000000000"
                                        }
                                    ],
                                    [
                                        {
                                            "name": "targetWithMandatory",
                                            "type": "uint256",
                                            "value": "0"
                                        },
                                        {
                                            "name": "gasLimit",
                                            "type": "uint256",
                                            "value": "0"
                                        },
                                        {
                                            "name": "value",
                                            "type": "uint256",
                                            "value": "0"
                                        },
                                        {
                                            "name": "data",
                                            "type": "bytes",
                                            "value": "0xb3af37c00000000000000000000000000000000000000000000000000000000000000080800000000000000000000000000000000000000000000000000000000000004400000000000000000000000009a3ecafa817268f77be1283176b946c4ff2e608000000000000000000000000000000010000000000000000000000000000000100000000000000000000000000000000000000000000000000000000000000000000000000000000000000000000000000000000000000000000000000000000000000000000000000000000000000000000000000000000000000000000000000000000000000000000000000000000000000000000000000000000000000800000000000000000000000000000000000000000000000000000000000000064d1660f9900000000000000000000000009a3ecafa817268f77be1283176b946c4ff2e6080000000000000000000000006b3a6e624e660dbb69f4cf2fd3bba760e8ebad56000000000000000000000000000000000000000000000000000000000000000100000000000000000000000000000000000000000000000000000000"
                                        }
                                    ]
                                ]
                            }
                        ],
                        "constructorArguments": "",
                        "name": "swap",
                        "returnParams": [
                            {
                                "name": "returnAmount",
                                "type": "uint256",
                                "value": "2,781,447,416,062,651,925,772"
                            }
                        ],
                        "signature": "swap(address,(address,address,address,address,uint256,uint256,uint256,uint256,address,bytes),(uint256,uint256,uint256,bytes)[])"
                    },
                    "errorInfo": "",
                    "fromAddress": "0x6b3a6e624e660dbb69f4cf2fd3bba760e8ebad56",
                    "gasUsed": 180478,
                    "id": 0,
                    "methodDecoded": true,
                    "operation": "CALL",
                    "output": "0x000000000000000000000000000000000000000000000096c856482b4280050c",
                    "revert": false,
                    "revertMessage": "",
                    "selector": "0x90411a32",
                    "status": true,
                    "value": "10.2524"
                },
                "nodeType": 0
            },
            "1": {
                "invocation": {
                    "address": "0x09a3ecafa817268f77be1283176b946c4ff2e608",
                    "callData": "0x0000000000000000000000006b3a6e624e660dbb69f4cf2fd3bba760e8ebad56",
                    "decodedMethod": {
                        "callParams": [
                            {
                                "name": "account",
                                "type": "address",
                                "value": "0x6b3a6e624e660dbb69f4cf2fd3bba760e8ebad56"
                            }
                        ],
                        "constructorArguments": "",
                        "name": "balanceOf",
                        "returnParams": [
                            {
                                "decimalAvailable": true,
                                "name": "",
                                "type": "uint256",
                                "value": "0"
                            }
                        ],
                        "signature": "balanceOf(address)"
                    },
                    "errorInfo": "",
                    "fromAddress": "0x111111125434b319222cdbf8c261674adb56f3ae",
                    "gasUsed": 1285,
                    "id": 1,
                    "methodDecoded": true,
                    "operation": "STATICCALL",
                    "output": "0x0000000000000000000000000000000000000000000000000000000000000000",
                    "revert": false,
                    "revertMessage": "",
                    "selector": "0x70a08231",
                    "status": true,
                    "value": "0"
                },
                "nodeType": 0
            },
            "10": {
                "invocation": {
                    "address": "0x57ab5aeb8bac2586a0d437163c3eb844246336ce",
                    "callData": "0x000000000000000000000000000000000000000000000096c856482b4280050c0000000000000000000000000000000000000000000000000000000000000000000000000000000000000000e069cb01d06ba617bcdf789bf2ff0d5e5ca20c7100000000000000000000000000000000000000000000000000000000000000800000000000000000000000000000000000000000000000000000000000000000",
                    "decodedMethod": {
                        "callParams": [
                            {
                                "name": "amount0Out",
                                "type": "uint256",
                                "value": "2,781,447,416,062,651,925,772"
                            },
                            {
                                "name": "amount1Out",
                                "type": "uint256",
                                "value": "0"
                            },
                            {
                                "name": "to",
                                "type": "address",
                                "value": "0xe069cb01d06ba617bcdf789bf2ff0d5e5ca20c71"
                            },
                            {
                                "name": "data",
                                "type": "bytes",
                                "value": "0x"
                            }
                        ],
                        "constructorArguments": "",
                        "name": "swap",
                        "returnParams": [],
                        "signature": "swap(uint256,uint256,address,bytes)"
                    },
                    "errorInfo": "",
                    "fromAddress": "0xe069cb01d06ba617bcdf789bf2ff0d5e5ca20c71",
                    "gasUsed": 59195,
                    "id": 10,
                    "methodDecoded": true,
                    "operation": "CALL",
                    "output": "",
                    "revert": false,
                    "revertMessage": "",
                    "selector": "0x022c0d9f",
                    "status": true,
                    "value": "0"
                },
                "nodeType": 0
            },
            "11": {
                "invocation": {
                    "address": "0x09a3ecafa817268f77be1283176b946c4ff2e608",
                    "callData": "0x000000000000000000000000e069cb01d06ba617bcdf789bf2ff0d5e5ca20c71000000000000000000000000000000000000000000000096c856482b4280050c",
                    "decodedMethod": {
                        "callParams": [
                            {
                                "name": "recipient",
                                "type": "address",
                                "value": "0xe069cb01d06ba617bcdf789bf2ff0d5e5ca20c71"
                            },
                            {
                                "decimalAvailable": true,
                                "name": "amount",
                                "type": "uint256",
                                "value": "2,781,447,416,062,651,925,772"
                            }
                        ],
                        "constructorArguments": "",
                        "name": "transfer",
                        "returnParams": [
                            {
                                "name": "",
                                "type": "bool",
                                "value": true
                            }
                        ],
                        "signature": "transfer(address,uint256)"
                    },
                    "errorInfo": "",
                    "fromAddress": "0x57ab5aeb8bac2586a0d437163c3eb844246336ce",
                    "gasUsed": 29669,
                    "id": 11,
                    "methodDecoded": true,
                    "operation": "CALL",
                    "output": "0x0000000000000000000000000000000000000000000000000000000000000001",
                    "revert": false,
                    "revertMessage": "",
                    "selector": "0xa9059cbb",
                    "status": true,
                    "value": "0"
                },
                "nodeType": 0
            },
            "12": {
                "event": {
                    "contract": "0x09a3ecafa817268f77be1283176b946c4ff2e608",
                    "decodedLog": {
                        "name": "Transfer",
                        "params": [
                            {
                                "name": "from",
                                "type": "address",
                                "value": "0x57ab5aeb8bac2586a0d437163c3eb844246336ce"
                            },
                            {
                                "name": "to",
                                "type": "address",
                                "value": "0xe069cb01d06ba617bcdf789bf2ff0d5e5ca20c71"
                            },
                            {
                                "decimalAvailable": true,
                                "name": "value",
                                "type": "uint256",
                                "value": "2,781,447,416,062,651,925,772"
                            }
                        ],
                        "signature": "Transfer(address,address,uint256)"
                    },
                    "id": 12,
                    "logData": "0x000000000000000000000000000000000000000000000096c856482b4280050c",
                    "logDecoded": true,
                    "operation": "EVENT",
                    "revert": false,
                    "status": true,
                    "topics": [
                        "0xddf252ad1be2c89b69c2b068fc378daa952ba7f163c4a11628f55a4df523b3ef",
                        "0x00000000000000000000000057ab5aeb8bac2586a0d437163c3eb844246336ce",
                        "0x000000000000000000000000e069cb01d06ba617bcdf789bf2ff0d5e5ca20c71"
                    ]
                },
                "nodeType": 1
            },
            "13": {
                "invocation": {
                    "address": "0x09a3ecafa817268f77be1283176b946c4ff2e608",
                    "callData": "0x00000000000000000000000057ab5aeb8bac2586a0d437163c3eb844246336ce",
                    "decodedMethod": {
                        "callParams": [
                            {
                                "name": "account",
                                "type": "address",
                                "value": "0x57ab5aeb8bac2586a0d437163c3eb844246336ce"
                            }
                        ],
                        "constructorArguments": "",
                        "name": "balanceOf",
                        "returnParams": [
                            {
                                "decimalAvailable": true,
                                "name": "",
                                "type": "uint256",
                                "value": "171,126,742,802,360,732,508,382"
                            }
                        ],
                        "signature": "balanceOf(address)"
                    },
                    "errorInfo": "",
                    "fromAddress": "0x57ab5aeb8bac2586a0d437163c3eb844246336ce",
                    "gasUsed": 1285,
                    "id": 13,
                    "methodDecoded": true,
                    "operation": "STATICCALL",
                    "output": "0x00000000000000000000000000000000000000000000243ccc9ff667d9e060de",
                    "revert": false,
                    "revertMessage": "",
                    "selector": "0x70a08231",
                    "status": true,
                    "value": "0"
                },
                "nodeType": 0
            },
            "14": {
                "invocation": {
                    "address": "0xc02aaa39b223fe8d0a0e5c4f27ead9083c756cc2",
                    "callData": "0x00000000000000000000000057ab5aeb8bac2586a0d437163c3eb844246336ce",
                    "decodedMethod": {
                        "callParams": [
                            {
                                "name": "",
                                "type": "address",
                                "value": "0x57ab5aeb8bac2586a0d437163c3eb844246336ce"
                            }
                        ],
                        "constructorArguments": "",
                        "name": "balanceOf",
                        "returnParams": [
                            {
                                "decimalAvailable": true,
                                "name": "",
                                "type": "uint256",
                                "value": "639,132,323,579,257,004,424"
                            }
                        ],
                        "signature": "balanceOf(address)"
                    },
                    "errorInfo": "",
                    "fromAddress": "0x57ab5aeb8bac2586a0d437163c3eb844246336ce",
                    "gasUsed": 1234,
                    "id": 14,
                    "methodDecoded": true,
                    "operation": "STATICCALL",
                    "output": "0x000000000000000000000000000000000000000000000022a5be2606f3a1a188",
                    "revert": false,
                    "revertMessage": "",
                    "selector": "0x70a08231",
                    "status": true,
                    "value": "0"
                },
                "nodeType": 0
            },
            "15": {
                "event": {
                    "contract": "0x57ab5aeb8bac2586a0d437163c3eb844246336ce",
                    "decodedLog": {
                        "name": "Sync",
                        "params": [
                            {
                                "name": "reserve0",
                                "type": "uint112",
                                "value": "171,126,742,802,360,732,508,382"
                            },
                            {
                                "name": "reserve1",
                                "type": "uint112",
                                "value": "639,132,323,579,257,004,424"
                            }
                        ],
                        "signature": "Sync(uint112,uint112)"
                    },
                    "id": 15,
                    "logData": "0x00000000000000000000000000000000000000000000243ccc9ff667d9e060de000000000000000000000000000000000000000000000022a5be2606f3a1a188",
                    "logDecoded": true,
                    "operation": "EVENT",
                    "revert": false,
                    "status": true,
                    "topics": [
                        "0x1c411e9a96e071241c2f21f7726b17ae89e3cab4c78be50e062b03a9fffbbad1"
                    ]
                },
                "nodeType": 1
            },
            "16": {
                "event": {
                    "contract": "0x57ab5aeb8bac2586a0d437163c3eb844246336ce",
                    "decodedLog": {
                        "name": "Swap",
                        "params": [
                            {
                                "name": "sender",
                                "type": "address",
                                "value": "0xe069cb01d06ba617bcdf789bf2ff0d5e5ca20c71"
                            },
                            {
                                "name": "to",
                                "type": "address",
                                "value": "0xe069cb01d06ba617bcdf789bf2ff0d5e5ca20c71"
                            },
                            {
                                "name": "amount0In",
                                "type": "uint256",
                                "value": "0"
                            },
                            {
                                "name": "amount1In",
                                "type": "uint256",
                                "value": "10,252,400,000,000,000,000"
                            },
                            {
                                "name": "amount0Out",
                                "type": "uint256",
                                "value": "2,781,447,416,062,651,925,772"
                            },
                            {
                                "name": "amount1Out",
                                "type": "uint256",
                                "value": "0"
                            }
                        ],
                        "signature": "Swap(address,uint256,uint256,uint256,uint256,address)"
                    },
                    "id": 16,
                    "logData": "0x00000000000000000000000000000000000000000000000000000000000000000000000000000000000000000000000000000000000000008e47d77aff370000000000000000000000000000000000000000000000000096c856482b4280050c0000000000000000000000000000000000000000000000000000000000000000",
                    "logDecoded": true,
                    "operation": "EVENT",
                    "revert": false,
                    "status": true,
                    "topics": [
                        "0xd78ad95fa46c994b6551d0da85fc275fe613ce37657fb8d5e3d130840159d822",
                        "0x000000000000000000000000e069cb01d06ba617bcdf789bf2ff0d5e5ca20c71",
                        "0x000000000000000000000000e069cb01d06ba617bcdf789bf2ff0d5e5ca20c71"
                    ]
                },
                "nodeType": 1
            },
            "17": {
                "invocation": {
                    "address": "0xe069cb01d06ba617bcdf789bf2ff0d5e5ca20c71",
                    "callData": "0x00000000000000000000000000000000000000000000000000000000000000808000000000000000000000000000000000000000000000000000000000000044000000000000000000000000e069cb01d06ba617bcdf789bf2ff0d5e5ca20c7100000000000000000000000000000000000000000000000000000000000001e0000000000000000000000000000000000000000000000000000000000000000000000000000000000000000000000000000000000000000000000000000000000000000000000000000000000000000000000000000000000000000000000000000000000000000000000000000000000000000000000000000000000000008000000000000000000000000000000000000000000000000000000000000000a40597122400000000000000000000000009a3ecafa817268f77be1283176b946c4ff2e60800000000000000000000000000000000000000000000000000000000000000000000000000000000000000000000000000000000000000000000000000000001000000000000000000000000000000010000000000000000000000000000000100000000000000000000000000000000000000000000000016d9a70a7a1c604f00000000000000000000000000000000000000000000000000000000000000000000000000000000000000000000000000000000000000000000004470bdb94700000000000000000000000009a3ecafa817268f77be1283176b946c4ff2e6080000000000000000000000000000000000000000000000978a4eff347b6ff07900000000000000000000000000000000000000000000000000000000",
                    "decodedMethod": null,
                    "errorInfo": "",
                    "fromAddress": "0xe069cb01d06ba617bcdf789bf2ff0d5e5ca20c71",
                    "gasUsed": 8723,
                    "id": 17,
                    "methodDecoded": false,
                    "operation": "CALL",
                    "output": "",
                    "revert": false,
                    "revertMessage": "",
                    "selector": "0x7f8fe7a0",
                    "status": true,
                    "value": "0"
                },
                "nodeType": 0
            },
            "18": {
                "invocation": {
                    "address": "0xe069cb01d06ba617bcdf789bf2ff0d5e5ca20c71",
                    "callData": "0x00000000000000000000000009a3ecafa817268f77be1283176b946c4ff2e6080000000000000000000000000000000000000000000000978a4eff347b6ff079",
                    "decodedMethod": null,
                    "errorInfo": "",
                    "fromAddress": "0xe069cb01d06ba617bcdf789bf2ff0d5e5ca20c71",
                    "gasUsed": 3676,
                    "id": 18,
                    "methodDecoded": false,
                    "operation": "STATICCALL",
                    "output": "0x0000000000000000000000000000000000000000000000000000000000000000",
                    "revert": false,
                    "revertMessage": "",
                    "selector": "0x70bdb947",
                    "status": true,
                    "value": "0"
                },
                "nodeType": 0
            },
            "19": {
                "invocation": {
                    "address": "0x09a3ecafa817268f77be1283176b946c4ff2e608",
                    "callData": "0x000000000000000000000000e069cb01d06ba617bcdf789bf2ff0d5e5ca20c71",
                    "decodedMethod": {
                        "callParams": [
                            {
                                "name": "account",
                                "type": "address",
                                "value": "0xe069cb01d06ba617bcdf789bf2ff0d5e5ca20c71"
                            }
                        ],
                        "constructorArguments": "",
                        "name": "balanceOf",
                        "returnParams": [
                            {
                                "decimalAvailable": true,
                                "name": "",
                                "type": "uint256",
                                "value": "2,781,447,416,062,651,925,772"
                            }
                        ],
                        "signature": "balanceOf(address)"
                    },
                    "errorInfo": "",
                    "fromAddress": "0xe069cb01d06ba617bcdf789bf2ff0d5e5ca20c71",
                    "gasUsed": 1285,
                    "id": 19,
                    "methodDecoded": true,
                    "operation": "STATICCALL",
                    "output": "0x000000000000000000000000000000000000000000000096c856482b4280050c",
                    "revert": false,
                    "revertMessage": "",
                    "selector": "0x70a08231",
                    "status": true,
                    "value": "0"
                },
                "nodeType": 0
            },
            "2": {
                "invocation": {
                    "address": "0xe069cb01d06ba617bcdf789bf2ff0d5e5ca20c71",
                    "callData": "0x0000000000000000000000000000000000000000000000000000000000000020000000000000000000000000000000000000000000000000000000000000000500000000000000000000000000000000000000000000000000000000000000a00000000000000000000000000000000000000000000000000000000000000160000000000000000000000000000000000000000000000000000000000000026000000000000000000000000000000000000000000000000000000000000003c000000000000000000000000000000000000000000000000000000000000006e0000000000000000000000000c02aaa39b223fe8d0a0e5c4f27ead9083c756cc200000000000000000000000000000000000000000000000000000000000000000000000000000000000000000000000000000000000000008e47d77aff37000000000000000000000000000000000000000000000000000000000000000000800000000000000000000000000000000000000000000000000000000000000004d0e30db000000000000000000000000000000000000000000000000000000000000000000000000000000000c02aaa39b223fe8d0a0e5c4f27ead9083c756cc20000000000000000000000000000000000000000000000000000000000000000000000000000000000000000000000000000000000000000000000000000000000000000000000000000000000000000000000000000000000000000000000800000000000000000000000000000000000000000000000000000000000000044a9059cbb00000000000000000000000057ab5aeb8bac2586a0d437163c3eb844246336ce0000000000000000000000000000000000000000000000008e47d77aff37000000000000000000000000000000000000000000000000000000000000800000000000000000000000000000000000000000000000000000000000000000000000000000000000000000000000000000000000000000000000000000000000000000000000000000000000000000000000000000000000000000000000000000000000000000000000000000000000000000000000000000000000008000000000000000000000000000000000000000000000000000000000000000a4c9f12e9d00000000000000000000000057ab5aeb8bac2586a0d437163c3eb844246336ce000000000000000000000000c02aaa39b223fe8d0a0e5c4f27ead9083c756cc200000000000000000000000009a3ecafa817268f77be1283176b946c4ff2e608000000000000000000000003e069cb01d06ba617bcdf789bf2ff0d5e5ca20c71000000000000000000000000000000000000000000000000000000000000000000000000000000000000000000000000000000000000000000000000000000000000000000000000000000000000000000000000000000000000000000000000000000000000000000000000000000000000000000000000000000000000000000000000000000000000000000000000000000000000000000000000000000000000000000000000000000000000000000000000000000000000008000000000000000000000000000000000000000000000000000000000000002647f8fe7a000000000000000000000000000000000000000000000000000000000000000808000000000000000000000000000000000000000000000000000000000000044000000000000000000000000e069cb01d06ba617bcdf789bf2ff0d5e5ca20c7100000000000000000000000000000000000000000000000000000000000001e0000000000000000000000000000000000000000000000000000000000000000000000000000000000000000000000000000000000000000000000000000000000000000000000000000000000000000000000000000000000000000000000000000000000000000000000000000000000000000000000000000000000000008000000000000000000000000000000000000000000000000000000000000000a40597122400000000000000000000000009a3ecafa817268f77be1283176b946c4ff2e60800000000000000000000000000000000000000000000000000000000000000000000000000000000000000000000000000000000000000000000000000000001000000000000000000000000000000010000000000000000000000000000000100000000000000000000000000000000000000000000000016d9a70a7a1c604f00000000000000000000000000000000000000000000000000000000000000000000000000000000000000000000000000000000000000000000004470bdb94700000000000000000000000009a3ecafa817268f77be1283176b946c4ff2e6080000000000000000000000000000000000000000000000978a4eff347b6ff0790000000000000000000000000000000000000000000000000000000000000000000000000000000000000000000000000000000000000000000000000000000000000000000000000000000000000000000000000000000000000000000000000000000000000000000000000000000000000000000000000000000000000000000000000000000000000000000000000000000000000000000000000000000000000000000000000000000000000000000000000000008000000000000000000000000000000000000000000000000000000000000001a4b3af37c00000000000000000000000000000000000000000000000000000000000000080800000000000000000000000000000000000000000000000000000000000004400000000000000000000000009a3ecafa817268f77be1283176b946c4ff2e608000000000000000000000000000000010000000000000000000000000000000100000000000000000000000000000000000000000000000000000000000000000000000000000000000000000000000000000000000000000000000000000000000000000000000000000000000000000000000000000000000000000000000000000000000000000000000000000000000000000000000000000000000000800000000000000000000000000000000000000000000000000000000000000064d1660f9900000000000000000000000009a3ecafa817268f77be1283176b946c4ff2e6080000000000000000000000006b3a6e624e660dbb69f4cf2fd3bba760e8ebad5600000000000000000000000000000000000000000000000000000000000000010000000000000000000000000000000000000000000000000000000000000000000000000000000000000000000000000000000000000000",
                    "decodedMethod": {
                        "callParams": [
                            {
                                "name": "desc",
                                "type": "(uint256,uint256,uint256,bytes)[]",
                                "value": [
                                    [
                                        {
                                            "name": "target",
                                            "type": "uint256",
                                            "value": "1,097,077,688,018,008,265,106,216,665,536,940,668,749,033,598,146"
                                        },
                                        {
                                            "name": "gasLimit",
                                            "type": "uint256",
                                            "value": "0"
                                        },
                                        {
                                            "name": "value",
                                            "type": "uint256",
                                            "value": "10,252,400,000,000,000,000"
                                        },
                                        {
                                            "name": "data",
                                            "type": "bytes",
                                            "value": "0xd0e30db0"
                                        }
                                    ],
                                    [
                                        {
                                            "name": "target",
                                            "type": "uint256",
                                            "value": "1,097,077,688,018,008,265,106,216,665,536,940,668,749,033,598,146"
                                        },
                                        {
                                            "name": "gasLimit",
                                            "type": "uint256",
                                            "value": "0"
                                        },
                                        {
                                            "name": "value",
                                            "type": "uint256",
                                            "value": "0"
                                        },
                                        {
                                            "name": "data",
                                            "type": "bytes",
                                            "value": "0xa9059cbb00000000000000000000000057ab5aeb8bac2586a0d437163c3eb844246336ce0000000000000000000000000000000000000000000000008e47d77aff370000"
                                        }
                                    ],
                                    [
                                        {
                                            "name": "target",
                                            "type": "uint256",
                                            "value": "57,896,044,618,658,097,711,785,492,504,343,953,926,634,992,332,820,282,019,728,792,003,956,564,819,968"
                                        },
                                        {
                                            "name": "gasLimit",
                                            "type": "uint256",
                                            "value": "0"
                                        },
                                        {
                                            "name": "value",
                                            "type": "uint256",
                                            "value": "0"
                                        },
                                        {
                                            "name": "data",
                                            "type": "bytes",
                                            "value": "0xc9f12e9d00000000000000000000000057ab5aeb8bac2586a0d437163c3eb844246336ce000000000000000000000000c02aaa39b223fe8d0a0e5c4f27ead9083c756cc200000000000000000000000009a3ecafa817268f77be1283176b946c4ff2e608000000000000000000000003e069cb01d06ba617bcdf789bf2ff0d5e5ca20c710000000000000000000000000000000000000000000000000000000000000000"
                                        }
                                    ],
                                    [
                                        {
                                            "name": "target",
                                            "type": "uint256",
                                            "value": "0"
                                        },
                                        {
                                            "name": "gasLimit",
                                            "type": "uint256",
                                            "value": "0"
                                        },
                                        {
                                            "name": "value",
                                            "type": "uint256",
                                            "value": "0"
                                        },
                                        {
                                            "name": "data",
                                            "type": "bytes",
                                            "value": "0x7f8fe7a000000000000000000000000000000000000000000000000000000000000000808000000000000000000000000000000000000000000000000000000000000044000000000000000000000000e069cb01d06ba617bcdf789bf2ff0d5e5ca20c7100000000000000000000000000000000000000000000000000000000000001e0000000000000000000000000000000000000000000000000000000000000000000000000000000000000000000000000000000000000000000000000000000000000000000000000000000000000000000000000000000000000000000000000000000000000000000000000000000000000000000000000000000000000008000000000000000000000000000000000000000000000000000000000000000a40597122400000000000000000000000009a3ecafa817268f77be1283176b946c4ff2e60800000000000000000000000000000000000000000000000000000000000000000000000000000000000000000000000000000000000000000000000000000001000000000000000000000000000000010000000000000000000000000000000100000000000000000000000000000000000000000000000016d9a70a7a1c604f00000000000000000000000000000000000000000000000000000000000000000000000000000000000000000000000000000000000000000000004470bdb94700000000000000000000000009a3ecafa817268f77be1283176b946c4ff2e6080000000000000000000000000000000000000000000000978a4eff347b6ff07900000000000000000000000000000000000000000000000000000000"
                                        }
                                    ],
                                    [
                                        {
                                            "name": "target",
                                            "type": "uint256",
                                            "value": "0"
                                        },
                                        {
                                            "name": "gasLimit",
                                            "type": "uint256",
                                            "value": "0"
                                        },
                                        {
                                            "name": "value",
                                            "type": "uint256",
                                            "value": "0"
                                        },
                                        {
                                            "name": "data",
                                            "type": "bytes",
                                            "value": "0xb3af37c00000000000000000000000000000000000000000000000000000000000000080800000000000000000000000000000000000000000000000000000000000004400000000000000000000000009a3ecafa817268f77be1283176b946c4ff2e608000000000000000000000000000000010000000000000000000000000000000100000000000000000000000000000000000000000000000000000000000000000000000000000000000000000000000000000000000000000000000000000000000000000000000000000000000000000000000000000000000000000000000000000000000000000000000000000000000000000000000000000000000000800000000000000000000000000000000000000000000000000000000000000064d1660f9900000000000000000000000009a3ecafa817268f77be1283176b946c4ff2e6080000000000000000000000006b3a6e624e660dbb69f4cf2fd3bba760e8ebad56000000000000000000000000000000000000000000000000000000000000000100000000000000000000000000000000000000000000000000000000"
                                        }
                                    ]
                                ]
                            }
                        ],
                        "constructorArguments": "",
                        "name": "makeCalls",
                        "returnParams": [],
                        "signature": "makeCalls((uint256,uint256,uint256,bytes)[])"
                    },
                    "errorInfo": "",
                    "fromAddress": "0x111111125434b319222cdbf8c261674adb56f3ae",
                    "gasUsed": 159890,
                    "id": 2,
                    "methodDecoded": true,
                    "operation": "CALL",
                    "output": "",
                    "revert": false,
                    "revertMessage": "",
                    "selector": "0xa8920d2b",
                    "status": true,
                    "value": "10.2524"
                },
                "nodeType": 0
            },
            "20": {
                "invocation": {
                    "address": "0xe069cb01d06ba617bcdf789bf2ff0d5e5ca20c71",
                    "callData": "0x00000000000000000000000009a3ecafa817268f77be1283176b946c4ff2e60800000000000000000000000000000000000000000000000000000000000000000000000000000000000000000000000000000000000000000000000000000000000000000000000000000000000000010000000000000000000000000000000100000000000000000000000000000000000000000000000016d9a70a7a1c604f",
                    "decodedMethod": null,
                    "errorInfo": "",
                    "fromAddress": "0xe069cb01d06ba617bcdf789bf2ff0d5e5ca20c71",
                    "gasUsed": 755,
                    "id": 20,
                    "methodDecoded": false,
                    "operation": "CALL",
                    "output": "",
                    "revert": false,
                    "revertMessage": "",
                    "selector": "0x05971224",
                    "status": true,
                    "value": "0"
                },
                "nodeType": 0
            },
            "21": {
                "invocation": {
                    "address": "0xe069cb01d06ba617bcdf789bf2ff0d5e5ca20c71",
                    "callData": "0x0000000000000000000000000000000000000000000000000000000000000080800000000000000000000000000000000000000000000000000000000000004400000000000000000000000009a3ecafa817268f77be1283176b946c4ff2e608000000000000000000000000000000010000000000000000000000000000000100000000000000000000000000000000000000000000000000000000000000000000000000000000000000000000000000000000000000000000000000000000000000000000000000000000000000000000000000000000000000000000000000000000000000000000000000000000000000000000000000000000000000800000000000000000000000000000000000000000000000000000000000000064d1660f9900000000000000000000000009a3ecafa817268f77be1283176b946c4ff2e6080000000000000000000000006b3a6e624e660dbb69f4cf2fd3bba760e8ebad56000000000000000000000000000000000000000000000000000000000000000100000000000000000000000000000000000000000000000000000000",
                    "decodedMethod": null,
                    "errorInfo": "",
                    "fromAddress": "0xe069cb01d06ba617bcdf789bf2ff0d5e5ca20c71",
                    "gasUsed": 34094,
                    "id": 21,
                    "methodDecoded": false,
                    "operation": "CALL",
                    "output": "",
                    "revert": false,
                    "revertMessage": "",
                    "selector": "0xb3af37c0",
                    "status": true,
                    "value": "0"
                },
                "nodeType": 0
            },
            "22": {
                "invocation": {
                    "address": "0x09a3ecafa817268f77be1283176b946c4ff2e608",
                    "callData": "0x000000000000000000000000e069cb01d06ba617bcdf789bf2ff0d5e5ca20c71",
                    "decodedMethod": {
                        "callParams": [
                            {
                                "name": "account",
                                "type": "address",
                                "value": "0xe069cb01d06ba617bcdf789bf2ff0d5e5ca20c71"
                            }
                        ],
                        "constructorArguments": "",
                        "name": "balanceOf",
                        "returnParams": [
                            {
                                "decimalAvailable": true,
                                "name": "",
                                "type": "uint256",
                                "value": "2,781,447,416,062,651,925,772"
                            }
                        ],
                        "signature": "balanceOf(address)"
                    },
                    "errorInfo": "",
                    "fromAddress": "0xe069cb01d06ba617bcdf789bf2ff0d5e5ca20c71",
                    "gasUsed": 1285,
                    "id": 22,
                    "methodDecoded": true,
                    "operation": "STATICCALL",
                    "output": "0x000000000000000000000000000000000000000000000096c856482b4280050c",
                    "revert": false,
                    "revertMessage": "",
                    "selector": "0x70a08231",
                    "status": true,
                    "value": "0"
                },
                "nodeType": 0
            },
            "23": {
                "invocation": {
                    "address": "0xe069cb01d06ba617bcdf789bf2ff0d5e5ca20c71",
                    "callData": "0x00000000000000000000000009a3ecafa817268f77be1283176b946c4ff2e6080000000000000000000000006b3a6e624e660dbb69f4cf2fd3bba760e8ebad56000000000000000000000000000000000000000000000096c856482b4280050c",
                    "decodedMethod": {
                        "callParams": [
                            {
                                "name": "token",
                                "type": "address",
                                "value": "0x09a3ecafa817268f77be1283176b946c4ff2e608"
                            },
                            {
                                "name": "to",
                                "type": "address",
                                "value": "0x6b3a6e624e660dbb69f4cf2fd3bba760e8ebad56"
                            },
                            {
                                "name": "value",
                                "type": "uint256",
                                "value": "2,781,447,416,062,651,925,772"
                            }
                        ],
                        "constructorArguments": "",
                        "name": "safeTransfer",
                        "returnParams": [],
                        "signature": "safeTransfer(address,address,uint256)"
                    },
                    "errorInfo": "",
                    "fromAddress": "0xe069cb01d06ba617bcdf789bf2ff0d5e5ca20c71",
                    "gasUsed": 27793,
                    "id": 23,
                    "methodDecoded": true,
                    "operation": "CALL",
                    "output": "",
                    "revert": false,
                    "revertMessage": "",
                    "selector": "0xd1660f99",
                    "status": true,
                    "value": "0"
                },
                "nodeType": 0
            },
            "24": {
                "invocation": {
                    "address": "0x09a3ecafa817268f77be1283176b946c4ff2e608",
                    "callData": "0x0000000000000000000000006b3a6e624e660dbb69f4cf2fd3bba760e8ebad56000000000000000000000000000000000000000000000096c856482b4280050c",
                    "decodedMethod": {
                        "callParams": [
                            {
                                "name": "recipient",
                                "type": "address",
                                "value": "0x6b3a6e624e660dbb69f4cf2fd3bba760e8ebad56"
                            },
                            {
                                "decimalAvailable": true,
                                "name": "amount",
                                "type": "uint256",
                                "value": "2,781,447,416,062,651,925,772"
                            }
                        ],
                        "constructorArguments": "",
                        "name": "transfer",
                        "returnParams": [
                            {
                                "name": "",
                                "type": "bool",
                                "value": true
                            }
                        ],
                        "signature": "transfer(address,uint256)"
                    },
                    "errorInfo": "",
                    "fromAddress": "0xe069cb01d06ba617bcdf789bf2ff0d5e5ca20c71",
                    "gasUsed": 25469,
                    "id": 24,
                    "methodDecoded": true,
                    "operation": "CALL",
                    "output": "0x0000000000000000000000000000000000000000000000000000000000000001",
                    "revert": false,
                    "revertMessage": "",
                    "selector": "0xa9059cbb",
                    "status": true,
                    "value": "0"
                },
                "nodeType": 0
            },
            "25": {
                "event": {
                    "contract": "0x09a3ecafa817268f77be1283176b946c4ff2e608",
                    "decodedLog": {
                        "name": "Transfer",
                        "params": [
                            {
                                "name": "from",
                                "type": "address",
                                "value": "0xe069cb01d06ba617bcdf789bf2ff0d5e5ca20c71"
                            },
                            {
                                "name": "to",
                                "type": "address",
                                "value": "0x6b3a6e624e660dbb69f4cf2fd3bba760e8ebad56"
                            },
                            {
                                "decimalAvailable": true,
                                "name": "value",
                                "type": "uint256",
                                "value": "2,781,447,416,062,651,925,772"
                            }
                        ],
                        "signature": "Transfer(address,address,uint256)"
                    },
                    "id": 25,
                    "logData": "0x000000000000000000000000000000000000000000000096c856482b4280050c",
                    "logDecoded": true,
                    "operation": "EVENT",
                    "revert": false,
                    "status": true,
                    "topics": [
                        "0xddf252ad1be2c89b69c2b068fc378daa952ba7f163c4a11628f55a4df523b3ef",
                        "0x000000000000000000000000e069cb01d06ba617bcdf789bf2ff0d5e5ca20c71",
                        "0x0000000000000000000000006b3a6e624e660dbb69f4cf2fd3bba760e8ebad56"
                    ]
                },
                "nodeType": 1
            },
            "26": {
                "invocation": {
                    "address": "0x09a3ecafa817268f77be1283176b946c4ff2e608",
                    "callData": "0x0000000000000000000000006b3a6e624e660dbb69f4cf2fd3bba760e8ebad56",
                    "decodedMethod": {
                        "callParams": [
                            {
                                "name": "account",
                                "type": "address",
                                "value": "0x6b3a6e624e660dbb69f4cf2fd3bba760e8ebad56"
                            }
                        ],
                        "constructorArguments": "",
                        "name": "balanceOf",
                        "returnParams": [
                            {
                                "decimalAvailable": true,
                                "name": "",
                                "type": "uint256",
                                "value": "2,781,447,416,062,651,925,772"
                            }
                        ],
                        "signature": "balanceOf(address)"
                    },
                    "errorInfo": "",
                    "fromAddress": "0x111111125434b319222cdbf8c261674adb56f3ae",
                    "gasUsed": 1285,
                    "id": 26,
                    "methodDecoded": true,
                    "operation": "STATICCALL",
                    "output": "0x000000000000000000000000000000000000000000000096c856482b4280050c",
                    "revert": false,
                    "revertMessage": "",
                    "selector": "0x70a08231",
                    "status": true,
                    "value": "0"
                },
                "nodeType": 0
            },
            "27": {
                "event": {
                    "contract": "0x111111125434b319222cdbf8c261674adb56f3ae",
                    "decodedLog": {
                        "name": "Swapped",
                        "params": [
                            {
                                "name": "sender",
                                "type": "address",
                                "value": "0x6b3a6e624e660dbb69f4cf2fd3bba760e8ebad56"
                            },
                            {
                                "name": "srcToken",
                                "type": "address",
                                "value": "0xeeeeeeeeeeeeeeeeeeeeeeeeeeeeeeeeeeeeeeee"
                            },
                            {
                                "name": "dstToken",
                                "type": "address",
                                "value": "0x09a3ecafa817268f77be1283176b946c4ff2e608"
                            },
                            {
                                "name": "dstReceiver",
                                "type": "address",
                                "value": "0x6b3a6e624e660dbb69f4cf2fd3bba760e8ebad56"
                            },
                            {
                                "name": "amount",
                                "type": "uint256",
                                "value": "10,252,400,000,000,000,000"
                            },
                            {
                                "name": "spentAmount",
                                "type": "uint256",
                                "value": "10,252,400,000,000,000,000"
                            },
                            {
                                "name": "returnAmount",
                                "type": "uint256",
                                "value": "2,781,447,416,062,651,925,772"
                            },
                            {
                                "name": "minReturnAmount",
                                "type": "uint256",
                                "value": "2,781,447,416,062,651,925,767"
                            },
                            {
                                "name": "guaranteedAmount",
                                "type": "uint256",
                                "value": "2,795,424,538,756,434,096,249"
                            },
                            {
                                "name": "referrer",
                                "type": "address",
                                "value": "0x0000000000000000000000000000000000000000"
                            }
                        ],
                        "signature": "Swapped(address,address,address,address,uint256,uint256,uint256,uint256,uint256,address)"
                    },
                    "id": 27,
                    "logData": "0x0000000000000000000000006b3a6e624e660dbb69f4cf2fd3bba760e8ebad560000000000000000000000000000000000000000000000008e47d77aff3700000000000000000000000000000000000000000000000000008e47d77aff370000000000000000000000000000000000000000000000000096c856482b4280050c000000000000000000000000000000000000000000000096c856482b428005070000000000000000000000000000000000000000000000978a4eff347b6ff0790000000000000000000000000000000000000000000000000000000000000000",
                    "logDecoded": true,
                    "operation": "EVENT",
                    "revert": false,
                    "status": true,
                    "topics": [
                        "0x76af224a143865a50b41496e1a73622698692c565c1214bc862f18e22d829c5e",
                        "0x0000000000000000000000006b3a6e624e660dbb69f4cf2fd3bba760e8ebad56",
                        "0x000000000000000000000000eeeeeeeeeeeeeeeeeeeeeeeeeeeeeeeeeeeeeeee",
                        "0x00000000000000000000000009a3ecafa817268f77be1283176b946c4ff2e608"
                    ]
                },
                "nodeType": 1
            },
            "3": {
                "invocation": {
                    "address": "0xc02aaa39b223fe8d0a0e5c4f27ead9083c756cc2",
                    "callData": "0x",
                    "decodedMethod": {
                        "callParams": [],
                        "constructorArguments": "",
                        "name": "deposit",
                        "returnParams": [],
                        "signature": "deposit()"
                    },
                    "errorInfo": "",
                    "fromAddress": "0xe069cb01d06ba617bcdf789bf2ff0d5e5ca20c71",
                    "gasUsed": 22674,
                    "id": 3,
                    "methodDecoded": true,
                    "operation": "CALL",
                    "output": "",
                    "revert": false,
                    "revertMessage": "",
                    "selector": "0xd0e30db0",
                    "status": true,
                    "value": "10.2524"
                },
                "nodeType": 0
            },
            "4": {
                "event": {
                    "contract": "0xc02aaa39b223fe8d0a0e5c4f27ead9083c756cc2",
                    "decodedLog": {
                        "name": "Deposit",
                        "params": [
                            {
                                "name": "dst",
                                "type": "address",
                                "value": "0xe069cb01d06ba617bcdf789bf2ff0d5e5ca20c71"
                            },
                            {
                                "name": "wad",
                                "type": "uint256",
                                "value": "10,252,400,000,000,000,000"
                            }
                        ],
                        "signature": "Deposit(address,uint256)"
                    },
                    "id": 4,
                    "logData": "0x0000000000000000000000000000000000000000000000008e47d77aff370000",
                    "logDecoded": true,
                    "operation": "EVENT",
                    "revert": false,
                    "status": true,
                    "topics": [
                        "0xe1fffcc4923d04b559f4d29a8bfc6cda04eb5b0d3c460751c2402c5c5cc9109c",
                        "0x000000000000000000000000e069cb01d06ba617bcdf789bf2ff0d5e5ca20c71"
                    ]
                },
                "nodeType": 1
            },
            "5": {
                "invocation": {
                    "address": "0xc02aaa39b223fe8d0a0e5c4f27ead9083c756cc2",
                    "callData": "0x00000000000000000000000057ab5aeb8bac2586a0d437163c3eb844246336ce0000000000000000000000000000000000000000000000008e47d77aff370000",
                    "decodedMethod": {
                        "callParams": [
                            {
                                "name": "dst",
                                "type": "address",
                                "value": "0x57ab5aeb8bac2586a0d437163c3eb844246336ce"
                            },
                            {
                                "decimalAvailable": true,
                                "name": "wad",
                                "type": "uint256",
                                "value": "10,252,400,000,000,000,000"
                            }
                        ],
                        "constructorArguments": "",
                        "name": "transfer",
                        "returnParams": [
                            {
                                "name": "",
                                "type": "bool",
                                "value": true
                            }
                        ],
                        "signature": "transfer(address,uint256)"
                    },
                    "errorInfo": "",
                    "fromAddress": "0xe069cb01d06ba617bcdf789bf2ff0d5e5ca20c71",
                    "gasUsed": 10962,
                    "id": 5,
                    "methodDecoded": true,
                    "operation": "CALL",
                    "output": "0x0000000000000000000000000000000000000000000000000000000000000001",
                    "revert": false,
                    "revertMessage": "",
                    "selector": "0xa9059cbb",
                    "status": true,
                    "value": "0"
                },
                "nodeType": 0
            },
            "6": {
                "event": {
                    "contract": "0xc02aaa39b223fe8d0a0e5c4f27ead9083c756cc2",
                    "decodedLog": {
                        "name": "Transfer",
                        "params": [
                            {
                                "name": "src",
                                "type": "address",
                                "value": "0xe069cb01d06ba617bcdf789bf2ff0d5e5ca20c71"
                            },
                            {
                                "name": "dst",
                                "type": "address",
                                "value": "0x57ab5aeb8bac2586a0d437163c3eb844246336ce"
                            },
                            {
                                "decimalAvailable": true,
                                "name": "wad",
                                "type": "uint256",
                                "value": "10,252,400,000,000,000,000"
                            }
                        ],
                        "signature": "Transfer(address,address,uint256)"
                    },
                    "id": 6,
                    "logData": "0x0000000000000000000000000000000000000000000000008e47d77aff370000",
                    "logDecoded": true,
                    "operation": "EVENT",
                    "revert": false,
                    "status": true,
                    "topics": [
                        "0xddf252ad1be2c89b69c2b068fc378daa952ba7f163c4a11628f55a4df523b3ef",
                        "0x000000000000000000000000e069cb01d06ba617bcdf789bf2ff0d5e5ca20c71",
                        "0x00000000000000000000000057ab5aeb8bac2586a0d437163c3eb844246336ce"
                    ]
                },
                "nodeType": 1
            },
            "7": {
                "invocation": {
                    "address": "0xe069cb01d06ba617bcdf789bf2ff0d5e5ca20c71",
                    "callData": "0x00000000000000000000000057ab5aeb8bac2586a0d437163c3eb844246336ce000000000000000000000000c02aaa39b223fe8d0a0e5c4f27ead9083c756cc200000000000000000000000009a3ecafa817268f77be1283176b946c4ff2e608000000000000000000000003e069cb01d06ba617bcdf789bf2ff0d5e5ca20c710000000000000000000000000000000000000000000000000000000000000000",
                    "decodedMethod": null,
                    "errorInfo": "",
                    "fromAddress": "0xe069cb01d06ba617bcdf789bf2ff0d5e5ca20c71",
                    "gasUsed": 68748,
                    "id": 7,
                    "methodDecoded": false,
                    "operation": "CALL",
                    "output": "",
                    "revert": false,
                    "revertMessage": "",
                    "selector": "0xc9f12e9d",
                    "status": true,
                    "value": "0"
                },
                "nodeType": 0
            },
            "8": {
                "invocation": {
                    "address": "0xc02aaa39b223fe8d0a0e5c4f27ead9083c756cc2",
                    "callData": "0x00000000000000000000000057ab5aeb8bac2586a0d437163c3eb844246336ce",
                    "decodedMethod": {
                        "callParams": [
                            {
                                "name": "",
                                "type": "address",
                                "value": "0x57ab5aeb8bac2586a0d437163c3eb844246336ce"
                            }
                        ],
                        "constructorArguments": "",
                        "name": "balanceOf",
                        "returnParams": [
                            {
                                "decimalAvailable": true,
                                "name": "",
                                "type": "uint256",
                                "value": "639,132,323,579,257,004,424"
                            }
                        ],
                        "signature": "balanceOf(address)"
                    },
                    "errorInfo": "",
                    "fromAddress": "0xe069cb01d06ba617bcdf789bf2ff0d5e5ca20c71",
                    "gasUsed": 1234,
                    "id": 8,
                    "methodDecoded": true,
                    "operation": "STATICCALL",
                    "output": "0x000000000000000000000000000000000000000000000022a5be2606f3a1a188",
                    "revert": false,
                    "revertMessage": "",
                    "selector": "0x70a08231",
                    "status": true,
                    "value": "0"
                },
                "nodeType": 0
            },
            "9": {
                "invocation": {
                    "address": "0x57ab5aeb8bac2586a0d437163c3eb844246336ce",
                    "callData": "0x",
                    "decodedMethod": {
                        "callParams": [],
                        "constructorArguments": "",
                        "name": "getReserves",
                        "returnParams": [
                            {
                                "name": "_reserve0",
                                "type": "uint112",
                                "value": "173,908,190,218,423,384,434,154"
                            },
                            {
                                "name": "_reserve1",
                                "type": "uint112",
                                "value": "628,879,923,579,257,004,424"
                            },
                            {
                                "name": "_blockTimestampLast",
                                "type": "uint32",
                                "value": "1,611,996,819"
                            }
                        ],
                        "signature": "getReserves()"
                    },
                    "errorInfo": "",
                    "fromAddress": "0xe069cb01d06ba617bcdf789bf2ff0d5e5ca20c71",
                    "gasUsed": 1204,
                    "id": 9,
                    "methodDecoded": true,
                    "operation": "STATICCALL",
                    "output": "0x0000000000000000000000000000000000000000000024d394f63e931c6065ea00000000000000000000000000000000000000000000002217764e8bf46aa1880000000000000000000000000000000000000000000000000000000060151e93",
                    "revert": false,
                    "revertMessage": "",
                    "selector": "0x0902f1ac",
                    "status": true,
                    "value": "0"
                },
                "nodeType": 0
            }
        },
        "gasFlame": [
            {
                "children": [
                    {
                        "children": [
                            {
                                "children": [],
                                "depth": 0,
                                "name": "Initial Gas",
                                "value": 38372
                            },
                            {
                                "children": [
                                    {
                                        "children": [],
                                        "depth": 1,
                                        "name": "balanceOf",
                                        "value": 1285
                                    },
                                    {
                                        "children": [
                                            {
                                                "children": [],
                                                "depth": 2,
                                                "name": "deposit",
                                                "value": 22674
                                            },
                                            {
                                                "children": [],
                                                "depth": 2,
                                                "name": "transfer",
                                                "value": 10962
                                            },
                                            {
                                                "children": [
                                                    {
                                                        "children": [],
                                                        "depth": 3,
                                                        "name": "balanceOf",
                                                        "value": 1234
                                                    },
                                                    {
                                                        "children": [],
                                                        "depth": 3,
                                                        "name": "getReserves",
                                                        "value": 1204
                                                    },
                                                    {
                                                        "children": [
                                                            {
                                                                "children": [],
                                                                "depth": 4,
                                                                "name": "transfer",
                                                                "value": 29669
                                                            },
                                                            {
                                                                "children": [],
                                                                "depth": 4,
                                                                "name": "balanceOf",
                                                                "value": 1285
                                                            },
                                                            {
                                                                "children": [],
                                                                "depth": 4,
                                                                "name": "balanceOf",
                                                                "value": 1234
                                                            }
                                                        ],
                                                        "depth": 3,
                                                        "name": "swap",
                                                        "value": 59195
                                                    }
                                                ],
                                                "depth": 2,
                                                "name": "0xc9f12e9d",
                                                "value": 68748
                                            },
                                            {
                                                "children": [
                                                    {
                                                        "children": [
                                                            {
                                                                "children": [],
                                                                "depth": 4,
                                                                "name": "balanceOf",
                                                                "value": 1285
                                                            }
                                                        ],
                                                        "depth": 3,
                                                        "name": "0x70bdb947",
                                                        "value": 3676
                                                    },
                                                    {
                                                        "children": [],
                                                        "depth": 3,
                                                        "name": "0x05971224",
                                                        "value": 755
                                                    }
                                                ],
                                                "depth": 2,
                                                "name": "0x7f8fe7a0",
                                                "value": 8723
                                            },
                                            {
                                                "children": [
                                                    {
                                                        "children": [],
                                                        "depth": 3,
                                                        "name": "balanceOf",
                                                        "value": 1285
                                                    },
                                                    {
                                                        "children": [
                                                            {
                                                                "children": [],
                                                                "depth": 4,
                                                                "name": "transfer",
                                                                "value": 25469
                                                            }
                                                        ],
                                                        "depth": 3,
                                                        "name": "safeTransfer",
                                                        "value": 27793
                                                    }
                                                ],
                                                "depth": 2,
                                                "name": "0xb3af37c0",
                                                "value": 34094
                                            }
                                        ],
                                        "depth": 1,
                                        "name": "makeCalls",
                                        "value": 159890
                                    },
                                    {
                                        "children": [],
                                        "depth": 1,
                                        "name": "balanceOf",
                                        "value": 1285
                                    }
                                ],
                                "depth": 0,
                                "name": "Executed Gas",
                                "value": 184706
                            }
                        ],
                        "depth": -1,
                        "name": "Actual Gas Used",
                        "value": 180478
                    },
                    {
                        "children": [],
                        "depth": -1,
                        "name": "Refunded Gas",
                        "value": 42600
                    }
                ],
                "depth": -2,
                "name": "Total Gas",
                "value": 223078
            }
        ],
        "isConfirmed": true,
        "mainTrace": [
            {
                "children": [
                    {
                        "children": [
                            {
                                "children": [],
                                "depth": 1,
                                "id": 1,
                                "order": 1
                            },
                            {
                                "children": [
                                    {
                                        "children": [
                                            {
                                                "children": [],
                                                "depth": 3,
                                                "id": 4,
                                                "order": 4
                                            }
                                        ],
                                        "depth": 2,
                                        "id": 3,
                                        "order": 3
                                    },
                                    {
                                        "children": [
                                            {
                                                "children": [],
                                                "depth": 3,
                                                "id": 6,
                                                "order": 6
                                            }
                                        ],
                                        "depth": 2,
                                        "id": 5,
                                        "order": 5
                                    },
                                    {
                                        "children": [
                                            {
                                                "children": [],
                                                "depth": 3,
                                                "id": 8,
                                                "order": 8
                                            },
                                            {
                                                "children": [],
                                                "depth": 3,
                                                "id": 9,
                                                "order": 9
                                            },
                                            {
                                                "children": [
                                                    {
                                                        "children": [
                                                            {
                                                                "children": [],
                                                                "depth": 5,
                                                                "id": 12,
                                                                "order": 12
                                                            }
                                                        ],
                                                        "depth": 4,
                                                        "id": 11,
                                                        "order": 11
                                                    },
                                                    {
                                                        "children": [],
                                                        "depth": 4,
                                                        "id": 13,
                                                        "order": 13
                                                    },
                                                    {
                                                        "children": [],
                                                        "depth": 4,
                                                        "id": 14,
                                                        "order": 14
                                                    },
                                                    {
                                                        "children": [],
                                                        "depth": 4,
                                                        "id": 15,
                                                        "order": 15
                                                    },
                                                    {
                                                        "children": [],
                                                        "depth": 4,
                                                        "id": 16,
                                                        "order": 16
                                                    }
                                                ],
                                                "depth": 3,
                                                "id": 10,
                                                "order": 10
                                            }
                                        ],
                                        "depth": 2,
                                        "id": 7,
                                        "order": 7
                                    },
                                    {
                                        "children": [
                                            {
                                                "children": [
                                                    {
                                                        "children": [],
                                                        "depth": 4,
                                                        "id": 19,
                                                        "order": 19
                                                    }
                                                ],
                                                "depth": 3,
                                                "id": 18,
                                                "order": 18
                                            },
                                            {
                                                "children": [],
                                                "depth": 3,
                                                "id": 20,
                                                "order": 20
                                            }
                                        ],
                                        "depth": 2,
                                        "id": 17,
                                        "order": 17
                                    },
                                    {
                                        "children": [
                                            {
                                                "children": [],
                                                "depth": 3,
                                                "id": 22,
                                                "order": 22
                                            },
                                            {
                                                "children": [
                                                    {
                                                        "children": [
                                                            {
                                                                "children": [],
                                                                "depth": 5,
                                                                "id": 25,
                                                                "order": 25
                                                            }
                                                        ],
                                                        "depth": 4,
                                                        "id": 24,
                                                        "order": 24
                                                    }
                                                ],
                                                "depth": 3,
                                                "id": 23,
                                                "order": 23
                                            }
                                        ],
                                        "depth": 2,
                                        "id": 21,
                                        "order": 21
                                    }
                                ],
                                "depth": 1,
                                "id": 2,
                                "order": 2
                            },
                            {
                                "children": [],
                                "depth": 1,
                                "id": 26,
                                "order": 26
                            },
                            {
                                "children": [],
                                "depth": 1,
                                "id": 27,
                                "order": 27
                            }
                        ],
                        "depth": 0,
                        "id": 0,
                        "order": 0
                    }
                ],
                "depth": -1,
                "id": -1,
                "order": -1
            }
        ],
        "mainTraceNodeCount": 28,
        "parentIdMap": {
            "0": -1,
            "1": 0,
            "10": 7,
            "11": 10,
            "12": 11,
            "13": 10,
            "14": 10,
            "15": 10,
            "16": 10,
            "17": 2,
            "18": 17,
            "19": 18,
            "2": 0,
            "20": 17,
            "21": 2,
            "22": 21,
            "23": 21,
            "24": 23,
            "25": 24,
            "26": 0,
            "27": 0,
            "3": 2,
            "4": 3,
            "5": 2,
            "6": 5,
            "7": 2,
            "8": 7,
            "9": 7
        },
        "tidyTrace": [
            {
                "children": [
                    {
                        "children": [
                            {
                                "children": [
                                    {
                                        "children": [
                                            {
                                                "children": [],
                                                "depth": 3,
                                                "id": 4,
                                                "order": 4
                                            }
                                        ],
                                        "depth": 2,
                                        "id": 3,
                                        "order": 3
                                    },
                                    {
                                        "children": [
                                            {
                                                "children": [],
                                                "depth": 3,
                                                "id": 6,
                                                "order": 6
                                            }
                                        ],
                                        "depth": 2,
                                        "id": 5,
                                        "order": 5
                                    },
                                    {
                                        "children": [
                                            {
                                                "children": [
                                                    {
                                                        "children": [
                                                            {
                                                                "children": [],
                                                                "depth": 5,
                                                                "id": 12,
                                                                "order": 12
                                                            }
                                                        ],
                                                        "depth": 4,
                                                        "id": 11,
                                                        "order": 11
                                                    },
                                                    {
                                                        "children": [],
                                                        "depth": 4,
                                                        "id": 15,
                                                        "order": 15
                                                    },
                                                    {
                                                        "children": [],
                                                        "depth": 4,
                                                        "id": 16,
                                                        "order": 16
                                                    }
                                                ],
                                                "depth": 3,
                                                "id": 10,
                                                "order": 10
                                            }
                                        ],
                                        "depth": 2,
                                        "id": 7,
                                        "order": 7
                                    },
                                    {
                                        "children": [
                                            {
                                                "children": [],
                                                "depth": 3,
                                                "id": 20,
                                                "order": 20
                                            }
                                        ],
                                        "depth": 2,
                                        "id": 17,
                                        "order": 17
                                    },
                                    {
                                        "children": [
                                            {
                                                "children": [
                                                    {
                                                        "children": [
                                                            {
                                                                "children": [],
                                                                "depth": 5,
                                                                "id": 25,
                                                                "order": 25
                                                            }
                                                        ],
                                                        "depth": 4,
                                                        "id": 24,
                                                        "order": 24
                                                    }
                                                ],
                                                "depth": 3,
                                                "id": 23,
                                                "order": 23
                                            }
                                        ],
                                        "depth": 2,
                                        "id": 21,
                                        "order": 21
                                    }
                                ],
                                "depth": 1,
                                "id": 2,
                                "order": 2
                            },
                            {
                                "children": [],
                                "depth": 1,
                                "id": 27,
                                "order": 27
                            }
                        ],
                        "depth": 0,
                        "id": 0,
                        "order": 0
                    }
                ],
                "depth": -1,
                "id": -1,
                "order": -1
            }
        ],
        "tidyTraceNodeCount": 19
    },
    "state_change": {
        "stateChanges": [
            {
                "address": "0x09a3ecafa817268f77be1283176b946c4ff2e608",
                "erc": "ERC-20",
                "slots": [
                    {
                        "current": "0x00000000000000000000000000000000000000000000243ccc9ff667d9e060de",
                        "key": "0x127c5287adaaca9fac5d2d3473fa63ae60251e557827d4c802197581e91496f1",
                        "prev": "0x0000000000000000000000000000000000000000000024d394f63e931c6065ea"
                    },
                    {
                        "current": "0x000000000000000000000000000000000000000000000096c856482b4280050c",
                        "key": "0xec73c4ba1811c67fa177f2f8047fc13a79c44bc9bbc2e6d95576da846744af6d",
                        "prev": "0x0000000000000000000000000000000000000000000000000000000000000000"
                    }
                ],
                "storageVariables": [
                    {
                        "name": "_balances",
                        "type": "mapping(address => uint256)",
                        "value": {
                            "pairs": [
                                {
                                    "key": "0x57ab5aeb8bac2586a0d437163c3eb844246336ce",
                                    "value": {
                                        "current": "171126742802360732508382",
                                        "prev": "173908190218423384434154",
                                        "typeTag": 1
                                    }
                                },
                                {
                                    "key": "0x6b3a6e624e660dbb69f4cf2fd3bba760e8ebad56",
                                    "value": {
                                        "current": "2781447416062651925772",
                                        "prev": "0",
                                        "typeTag": 1
                                    }
                                }
                            ],
                            "typeTag": 4
                        }
                    }
                ]
            },
            {
                "address": "0x57ab5aeb8bac2586a0d437163c3eb844246336ce",
                "erc": "ERC-20",
                "slots": [
                    {
                        "current": "0x60151e93000000000022a5be2606f3a1a18800000000243ccc9ff667d9e060de",
                        "key": "0x0000000000000000000000000000000000000000000000000000000000000008",
                        "prev": "0x60151e9300000000002217764e8bf46aa1880000000024d394f63e931c6065ea"
                    }
                ],
                "storageVariables": [
                    {
                        "name": "reserve0",
                        "type": "uint112",
                        "value": {
                            "current": "171126742802360732508382",
                            "prev": "173908190218423384434154",
                            "typeTag": 1
                        }
                    },
                    {
                        "name": "reserve1",
                        "type": "uint112",
                        "value": {
                            "current": "639132323579257004424",
                            "prev": "628879923579257004424",
                            "typeTag": 1
                        }
                    },
                    {
                        "name": "blockTimestampLast",
                        "type": "uint32",
                        "value": {
                            "current": "1611996819",
                            "prev": "1611996819",
                            "typeTag": 1
                        }
                    }
                ]
            },
            {
                "address": "0xc02aaa39b223fe8d0a0e5c4f27ead9083c756cc2",
                "erc": "ERC-20",
                "slots": [
                    {
                        "current": "0x000000000000000000000000000000000000000000000022a5be2606f3a1a188",
                        "key": "0x684fd6dae708b1082136ff8b9010a3af3cadc46f78c237a4d925ee14e3d8b092",
                        "prev": "0x00000000000000000000000000000000000000000000002217764e8bf46aa188"
                    }
                ],
                "storageVariables": [
                    {
                        "name": "balanceOf",
                        "type": "mapping(address => uint256)",
                        "value": {
                            "pairs": [
                                {
                                    "key": "0x57ab5aeb8bac2586a0d437163c3eb844246336ce",
                                    "value": {
                                        "current": "639132323579257004424",
                                        "prev": "628879923579257004424",
                                        "typeTag": 1
                                    }
                                }
                            ],
                            "typeTag": 4
                        }
                    }
                ]
            }
        ]
    }
}