{
    "balance_change": {
        "balanceChanges": [
            {
                "account": "0xa41efe3e8d8c91f6100878de480b2f3b00f20840",
                "assets": [
                    {
                        "address": "0x5c3a228510d246b78a3765c20221cbf3082b44a4",
                        "amount": "4,713.9",
                        "iconUrl": "https://assets.blocksec.com/icon/13605ab40abbc541718ba7fcc96266945b2f3b663ee5e307425ef2757ef1b76d.png",
                        "isERC1155": false,
                        "isERC721": false,
                        "sign": false,
                        "value": ""
                    }
                ]
            },
            {
                "account": "0x3c02290922a3618a4646e3bbca65853ea45fe7c6",
                "assets": [
                    {
                        "address": "0x5c3a228510d246b78a3765c20221cbf3082b44a4",
                        "amount": "4,713.9",
                        "iconUrl": "https://assets.blocksec.com/icon/13605ab40abbc541718ba7fcc96266945b2f3b663ee5e307425ef2757ef1b76d.png",
                        "isERC1155": false,
                        "isERC721": false,
                        "sign": true,
                        "value": ""
                    }
                ]
            }
        ]
    },
    "profile": {
        "basic_info": {
            "baseFee": "",
            "blockNumber": 6226870,
            "callData": "0xa9059cbb0000000000000000000000003c02290922a3618a4646e3bbca65853ea45fe7c60000000000000000000000000000000000000000000000ff8a8102aff9de0000",
            "debugEnable": true,
            "errorInfo": "",
            "eventCount": 1,
            "feeRecipient": "0x5a0b54d5dc17e0aadc383d2db43b0a0d3e029c4c",
            "formatValue": "0",
            "gasLimit": 60000,
            "gasPrice": "20",
            "gasUsed": 25037,
            "intTxnCount": 0,
            "internalRevert": false,
            "internalRevertMessage": "",
            "isContractCreation": false,
            "isFlashloan": false,
            "maxFee": "",
            "nonce": 0,
            "overwritedBlockNumber": -1,
            "priorityFee": "",
            "receiver": "0x5c3a228510d246b78a3765c20221cbf3082b44a4",
            "revertMessage": "",
            "sender": "0xa41efe3e8d8c91f6100878de480b2f3b00f20840",
            "simulationEnable": true,
            "sourceTxnHash": "0x760199d590434c1f2a4fed66f2ddde14e9585a01577b4c8ed49c5920dcc6eb24",
            "status": true,
            "timestamp": "2018-08-28T04:40:02Z",
            "transactionFee": "0.00050074",
            "txnHash": "0x760199d590434c1f2a4fed66f2ddde14e9585a01577b4c8ed49c5920dcc6eb24",
            "txnIndex": 157,
            "type": 0,
            "value": "0"
        },
        "fund_flow": [
            {
                "amount": "4,713.9",
                "from": "0xa41efe3e8d8c91f6100878de480b2f3b00f20840",
                "id": 1,
                "isERC1155": false,
                "isERC721": false,
                "isReverted": false,
                "order": 1,
                "to": "0x3c02290922a3618a4646e3bbca65853ea45fe7c6",
                "token": "0x5c3a228510d246b78a3765c20221cbf3082b44a4"
            }
        ],
        "token_infos": [
            {
                "address": "0xeeeeeeeeeeeeeeeeeeeeeeeeeeeeeeeeeeeeeeee",
                "decimals": 18
            },
            {
                "address": "0x5c3a228510d246b78a3765c20221cbf3082b44a4",
                "decimals": 18
            },
            {
                "address": "0xc02aaa39b223fe8d0a0e5c4f27ead9083c756cc2",
                "decimals": 18
            }
        ]
    },
    "address_label": {
        "labels": [
            {
                "address": "0x0000000000000000000000000000000000000004",
                "label": "Precompiled"
            },
            {
                "address": "0xeeeeeeeeeeeeeeeeeeeeeeeeeeeeeeeeeeeeeeee",
                "label": "Ether"
            },
            {
                "address": "0x5c3a228510d246b78a3765c20221cbf3082b44a4",
                "label": "Storiqa (STQ)"
            },
            {
                "address": "0x3c02290922a3618a4646e3bbca65853ea45fe7c6",
                "label": "Indodax 5"
            },
            {
                "address": "0x0000000000000000000000000000000000000001",
                "label": "Precompiled"
            },
            {
                "address": "0x0000000000000000000000000000000000000002",
                "label": "Precompiled"
            },
            {
                "address": "0x0000000000000000000000000000000000000003",
                "label": "Precompiled"
            }
        ]
    },
    "trace": {
        "accountLabels": null,
        "dataMap": {
            "-1": {
                "invocation": {
                    "address": "0xa41efe3e8d8c91f6100878de480b2f3b00f20840",
                    "callData": "",
                    "decodedMethod": null,
                    "errorInfo": "",
                    "fromAddress": "",
                    "gasUsed": 0,
                    "id": -1,
                    "methodDecoded": false,
                    "operation": "",
                    "output": "",
                    "revert": false,
                    "revertMessage": "",
                    "selector": "",
                    "status": false,
                    "value": ""
                },
                "nodeType": 0
            },
            "0": {
                "invocation": {
                    "address": "0x5c3a228510d246b78a3765c20221cbf3082b44a4",
                    "callData": "0x0000000000000000000000003c02290922a3618a4646e3bbca65853ea45fe7c60000000000000000000000000000000000000000000000ff8a8102aff9de0000",
                    "decodedMethod": {
                        "callParams": [
                            {
                                "name": "_to",
                                "type": "address",
                                "value": "0x3c02290922a3618a4646e3bbca65853ea45fe7c6"
                            },
                            {
                                "decimalAvailable": true,
                                "name": "_value",
                                "type": "uint256",
                                "value": "4,713,900,000,000,000,000,000"
                            }
                        ],
                        "constructorArguments": "",
                        "name": "transfer",
                        "returnParams": [
                            {
                                "name": "",
                                "type": "bool",
                                "value": true
                            }
                        ],
                        "signature": "transfer(address,uint256)"
                    },
                    "errorInfo": "",
                    "fromAddress": "0xa41efe3e8d8c91f6100878de480b2f3b00f20840",
                    "gasUsed": 25037,
                    "id": 0,
                    "methodDecoded": true,
                    "operation": "CALL",
                    "output": "0x0000000000000000000000000000000000000000000000000000000000000001",
                    "revert": false,
                    "revertMessage": "",
                    "selector": "0xa9059cbb",
                    "status": true,
                    "value": "0"
                },
                "nodeType": 0
            },
            "1": {
                "event": {
                    "contract": "0x5c3a228510d246b78a3765c20221cbf3082b44a4",
                    "decodedLog": {
                        "name": "Transfer",
                        "params": [
                            {
                                "name": "from",
                                "type": "address",
                                "value": "0xa41efe3e8d8c91f6100878de480b2f3b00f20840"
                            },
                            {
                                "name": "to",
                                "type": "address",
                                "value": "0x3c02290922a3618a4646e3bbca65853ea45fe7c6"
                            },
                            {
                                "decimalAvailable": true,
                                "name": "value",
                                "type": "uint256",
                                "value": "4,713,900,000,000,000,000,000"
                            }
                        ],
                        "signature": "Transfer(address,address,uint256)"
                    },
                    "id": 1,
                    "logData": "0x0000000000000000000000000000000000000000000000ff8a8102aff9de0000",
                    "logDecoded": true,
                    "operation": "EVENT",
                    "revert": false,
                    "status": true,
                    "topics": [
                        "0xddf252ad1be2c89b69c2b068fc378daa952ba7f163c4a11628f55a4df523b3ef",
                        "0x000000000000000000000000a41efe3e8d8c91f6100878de480b2f3b00f20840",
                        "0x0000000000000000000000003c02290922a3618a4646e3bbca65853ea45fe7c6"
                    ]
                },
                "nodeType": 1
            }
        },
        "gasFlame": [
            {
                "children": [
                    {
                        "children": [
                            {
                                "children": [],
                                "depth": 0,
                                "name": "Initial Gas",
                                "value": 23256
                            },
                            {
                                "children": [],
                                "depth": 0,
                                "name": "Executed Gas",
                                "value": 16781
                            }
                        ],
                        "depth": -1,
                        "name": "Actual Gas Used",
                        "value": 25037
                    },
                    {
                        "children": [],
                        "depth": -1,
                        "name": "Refunded Gas",
                        "value": 15000
                    }
                ],
                "depth": -2,
                "name": "Total Gas",
                "value": 40037
            }
        ],
        "isConfirmed": true,
        "mainTrace": [
            {
                "children": [
                    {
                        "children": [
                            {
                                "children": [],
                                "depth": 1,
                                "id": 1,
                                "order": 1
                            }
                        ],
                        "depth": 0,
                        "id": 0,
                        "order": 0
                    }
                ],
                "depth": -1,
                "id": -1,
                "order": -1
            }
        ],
        "mainTraceNodeCount": 2,
        "parentIdMap": {
            "0": -1,
            "1": 0
        },
        "tidyTrace": [
            {
                "children": [
                    {
                        "children": [
                            {
                                "children": [],
                                "depth": 1,
                                "id": 1,
                                "order": 1
                            }
                        ],
                        "depth": 0,
                        "id": 0,
                        "order": 0
                    }
                ],
                "depth": -1,
                "id": -1,
                "order": -1
            }
        ],
        "tidyTraceNodeCount": 2
    },
    "state_change": {
        "stateChanges": [
            {
                "address": "0x5c3a228510d246b78a3765c20221cbf3082b44a4",
                "erc": "ERC-20",
                "slots": [
                    {
                        "current": "0x0000000000000000000000000000000000000000000000000000000000000000",
                        "key": "0xb6393b10414d854b14c6da24df29891c0d54a91db78cffc6c6934c7976470f69",
                        "prev": "0x0000000000000000000000000000000000000000000000ff8a8102aff9de0000"
                    },
                    {
                        "current": "0x0000000000000000000000000000000000000000042a2804ab7859116fd46400",
                        "key": "0x008b9d427d1dd1ae30714f95172dbb1557b406b943066ec21465ca3e9d6ea2c2",
                        "prev": "0x0000000000000000000000000000000000000000042a270520f7566175f66400"
                    }
                ],
                "storageVariables": [
                    {
                        "name": "balances",
                        "type": "mapping(address => uint256)",
                        "value": {
                            "pairs": [
                                {
                                    "key": "0x3c02290922a3618a4646e3bbca65853ea45fe7c6",
                                    "value": {
                                        "current": "1288903904511209290000000000",
                                        "prev": "1288899190611209290000000000",
                                        "typeTag": 1
                                    }
                                },
                                {
                                    "key": "0xa41efe3e8d8c91f6100878de480b2f3b00f20840",
                                    "value": {
                                        "current": "0",
                                        "prev": "4713900000000000000000",
                                        "typeTag": 1
                                    }
                                }
                            ],
                            "typeTag": 4
                        }
                    }
                ]
            }
        ]
    }
}