{
    "balance_change": {
        "balanceChanges": [
            {
                "account": "0x62bf8e2d1081e84c89ed43ffdbc81c25a56cb722",
                "assets": [
                    {
                        "address": "0xeeeeeeeeeeeeeeeeeeeeeeeeeeeeeeeeeeeeeeee",
                        "amount": "0.1",
                        "iconUrl": "https://assets.blocksec.com/image/1663669189317-3.png",
                        "isERC1155": false,
                        "isERC721": false,
                        "sign": false,
                        "value": "239.97874000000001615"
                    },
                    {
                        "address": "0x5640e0560e6afd6a9f4ddb41230d0201d181fea7",
                        "amount": "594,687,150.236699758",
                        "iconUrl": "",
                        "isERC1155": false,
                        "isERC721": false,
                        "sign": true,
                        "value": "233.9650656"
                    }
                ]
            },
            {
                "account": "0x8f8120fddb7b372d40d518f93ec371455d375b7b",
                "assets": [
                    {
                        "address": "0xc02aaa39b223fe8d0a0e5c4f27ead9083c756cc2",
                        "amount": "0.1",
                        "iconUrl": "https://assets.blocksec.com/icon/f1cb2d02c471d545bbc7722daf3277fd852d98e63d118771af7047bd8256c516.png",
                        "isERC1155": false,
                        "isERC721": false,
                        "sign": true,
                        "value": "239.97874000000001615"
                    },
                    {
                        "address": "0x5640e0560e6afd6a9f4ddb41230d0201d181fea7",
                        "amount": "594,687,150.236699758",
                        "iconUrl": "",
                        "isERC1155": false,
                        "isERC721": false,
                        "sign": false,
                        "value": "233.9650656"
                    }
                ]
            },
            {
                "account": "0xc02aaa39b223fe8d0a0e5c4f27ead9083c756cc2",
                "assets": [
                    {
                        "address": "0xc02aaa39b223fe8d0a0e5c4f27ead9083c756cc2",
                        "amount": "0.1",
                        "iconUrl": "https://assets.blocksec.com/icon/f1cb2d02c471d545bbc7722daf3277fd852d98e63d118771af7047bd8256c516.png",
                        "isERC1155": false,
                        "isERC721": false,
                        "sign": false,
                        "value": "239.97874000000001615"
                    },
                    {
                        "address": "0xeeeeeeeeeeeeeeeeeeeeeeeeeeeeeeeeeeeeeeee",
                        "amount": "0.1",
                        "iconUrl": "https://assets.blocksec.com/image/1663669189317-3.png",
                        "isERC1155": false,
                        "isERC721": false,
                        "sign": true,
                        "value": "239.97874000000001615"
                    }
                ]
            }
        ]
    },
    "profile": {
        "basic_info": {
            "baseFee": "1.196425769",
            "blockNumber": 20675769,
            "callData": "0x9871efa40000000000000000000000000000000000000000000000000000000000000000000000000000000000000000000000000000000000000000016345785d8a0000000000000000000000000000000000000000000000000000083ea3f29201681300000000000000000000000000000000000000000000000000000000000000800000000000000000000000000000000000000000000000000000000000000001b0000000000000003b6d03408f8120fddb7b372d40d518f93ec371455d375b7b",
            "debugEnable": true,
            "errorInfo": "",
            "eventCount": 7,
            "feeRecipient": "0x388c818ca8b9251b393131c08a736a67ccb19297",
            "formatValue": "0.1",
            "gasLimit": 225897,
            "gasPrice": "1.771425769",
            "gasUsed": 153963,
            "intTxnCount": 12,
            "internalRevert": false,
            "internalRevertMessage": "",
            "isContractCreation": false,
            "isFlashloan": false,
            "maxFee": "1.935604938",
            "nonce": 452,
            "overwritedBlockNumber": -1,
            "priorityFee": "0.575",
            "receiver": "0xf3de3c0d654fda23dad170f0f320a92172509127",
            "revertMessage": "",
            "sender": "0x62bf8e2d1081e84c89ed43ffdbc81c25a56cb722",
            "simulationEnable": true,
            "sourceTxnHash": "0x76a668d623c6df182f1f6e0f3714312f2a33dbc5f5a8e3b78af1073f62a6b0ea",
            "status": true,
            "timestamp": "2024-09-04T07:37:47Z",
            "transactionFee": "0.000272734025672547",
            "txnHash": "0x76a668d623c6df182f1f6e0f3714312f2a33dbc5f5a8e3b78af1073f62a6b0ea",
            "txnIndex": 28,
            "type": 2,
            "value": "100000000000000000"
        },
        "fund_flow": [
            {
                "amount": "0.1",
                "from": "0x62bf8e2d1081e84c89ed43ffdbc81c25a56cb722",
                "id": 1,
                "isERC1155": false,
                "isERC721": false,
                "isReverted": false,
                "order": 1,
                "to": "0xf3de3c0d654fda23dad170f0f320a92172509127",
                "token": "0xeeeeeeeeeeeeeeeeeeeeeeeeeeeeeeeeeeeeeeee"
            },
            {
                "amount": "0.1",
                "from": "0xf3de3c0d654fda23dad170f0f320a92172509127",
                "id": 2,
                "isERC1155": false,
                "isERC721": false,
                "isReverted": false,
                "order": 2,
                "to": "0xc02aaa39b223fe8d0a0e5c4f27ead9083c756cc2",
                "token": "0xeeeeeeeeeeeeeeeeeeeeeeeeeeeeeeeeeeeeeeee"
            },
            {
                "amount": "0.1",
                "from": "0xc02aaa39b223fe8d0a0e5c4f27ead9083c756cc2",
                "id": 3,
                "isERC1155": false,
                "isERC721": false,
                "isReverted": false,
                "order": 3,
                "to": "0xf3de3c0d654fda23dad170f0f320a92172509127",
                "token": "0xc02aaa39b223fe8d0a0e5c4f27ead9083c756cc2"
            },
            {
                "amount": "0.1",
                "from": "0xf3de3c0d654fda23dad170f0f320a92172509127",
                "id": 4,
                "isERC1155": false,
                "isERC721": false,
                "isReverted": false,
                "order": 4,
                "to": "0x8f8120fddb7b372d40d518f93ec371455d375b7b",
                "token": "0xc02aaa39b223fe8d0a0e5c4f27ead9083c756cc2"
            },
            {
                "amount": "594,687,150.236699758",
                "from": "0x8f8120fddb7b372d40d518f93ec371455d375b7b",
                "id": 5,
                "isERC1155": false,
                "isERC721": false,
                "isReverted": false,
                "order": 5,
                "to": "0x62bf8e2d1081e84c89ed43ffdbc81c25a56cb722",
                "token": "0x5640e0560e6afd6a9f4ddb41230d0201d181fea7"
            }
        ],
        "token_infos": [
            {
                "address": "0x5640e0560e6afd6a9f4ddb41230d0201d181fea7",
                "decimals": 9
            },
            {
                "address": "0xc02aaa39b223fe8d0a0e5c4f27ead9083c756cc2",
                "decimals": 18
            },
            {
                "address": "0xeeeeeeeeeeeeeeeeeeeeeeeeeeeeeeeeeeeeeeee",
                "decimals": 18
            }
        ]
    },
    "address_label": {
        "labels": [
            {
                "address": "0x5640e0560e6afd6a9f4ddb41230d0201d181fea7",
                "label": "DMAGA"
            },
            {
                "address": "0x0000000000000000000000000000000000000001",
                "label": "Precompiled"
            },
            {
                "address": "0x0000000000000000000000000000000000000002",
                "label": "Precompiled"
            },
            {
                "address": "0x0000000000000000000000000000000000000003",
                "label": "Precompiled"
            },
            {
                "address": "0x0000000000000000000000000000000000000004",
                "label": "Precompiled"
            },
            {
                "address": "0xeeeeeeeeeeeeeeeeeeeeeeeeeeeeeeeeeeeeeeee",
                "label": "Ether"
            },
            {
                "address": "0xc02aaa39b223fe8d0a0e5c4f27ead9083c756cc2",
                "label": "Wrapped Ether (WETH)"
            },
            {
                "address": "0x8f8120fddb7b372d40d518f93ec371455d375b7b",
                "label": "Uniswap V2: DMAGA"
            },
            {
                "address": "0x388c818ca8b9251b393131c08a736a67ccb19297",
                "label": "LidoExecutionLayerRewardsVault"
            }
        ]
    },
    "trace": {
        "accountLabels": null,
        "dataMap": {
            "-1": {
                "invocation": {
                    "address": "0x62bf8e2d1081e84c89ed43ffdbc81c25a56cb722",
                    "callData": "",
                    "decodedMethod": null,
                    "errorInfo": "",
                    "fromAddress": "",
                    "gasUsed": 0,
                    "id": -1,
                    "methodDecoded": false,
                    "operation": "",
                    "output": "",
                    "revert": false,
                    "revertMessage": "",
                    "selector": "",
                    "status": false,
                    "value": ""
                },
                "nodeType": 0
            },
            "0": {
                "invocation": {
                    "address": "0xf3de3c0d654fda23dad170f0f320a92172509127",
                    "callData": "0x0000000000000000000000000000000000000000000000000000000000000000000000000000000000000000000000000000000000000000016345785d8a0000000000000000000000000000000000000000000000000000083ea3f29201681300000000000000000000000000000000000000000000000000000000000000800000000000000000000000000000000000000000000000000000000000000001b0000000000000003b6d03408f8120fddb7b372d40d518f93ec371455d375b7b",
                    "decodedMethod": null,
                    "errorInfo": "",
                    "fromAddress": "0x62bf8e2d1081e84c89ed43ffdbc81c25a56cb722",
                    "gasUsed": 153963,
                    "id": 0,
                    "methodDecoded": false,
                    "operation": "CALL",
                    "output": "0x0000000000000000000000000000000000000000000000000840c0cff6590c6e",
                    "revert": false,
                    "revertMessage": "",
                    "selector": "0x9871efa4",
                    "status": true,
                    "value": "0.1"
                },
                "nodeType": 0
            },
            "1": {
                "event": {
                    "contract": "0xf3de3c0d654fda23dad170f0f320a92172509127",
                    "decodedLog": null,
                    "id": 1,
                    "logData": "0x0000000000000000000000000000000000000000000000000000000000000000",
                    "logDecoded": false,
                    "operation": "EVENT",
                    "revert": false,
                    "status": true,
                    "topics": [
                        "0x7724394874fdd8ad13292ec739b441f85c6559f10dc4141b8d4c0fa4cbf55bdb"
                    ]
                },
                "nodeType": 1
            },
            "10": {
                "invocation": {
                    "address": "0xc02aaa39b223fe8d0a0e5c4f27ead9083c756cc2",
                    "callData": "0x0000000000000000000000008f8120fddb7b372d40d518f93ec371455d375b7b",
                    "decodedMethod": {
                        "callParams": [
                            {
                                "name": "",
                                "type": "address",
                                "value": "0x8f8120fddb7b372d40d518f93ec371455d375b7b"
                            }
                        ],
                        "constructorArguments": "",
                        "name": "balanceOf",
                        "returnParams": [
                            {
                                "decimalAvailable": true,
                                "name": "",
                                "type": "uint256",
                                "value": "17,342,246,221,159,642,150"
                            }
                        ],
                        "signature": "balanceOf(address)"
                    },
                    "errorInfo": "",
                    "fromAddress": "0xf3de3c0d654fda23dad170f0f320a92172509127",
                    "gasUsed": 534,
                    "id": 10,
                    "methodDecoded": true,
                    "operation": "STATICCALL",
                    "output": "0x000000000000000000000000000000000000000000000000f0ac090e1394b426",
                    "revert": false,
                    "revertMessage": "",
                    "selector": "0x70a08231",
                    "status": true,
                    "value": "0"
                },
                "nodeType": 0
            },
            "11": {
                "invocation": {
                    "address": "0x8f8120fddb7b372d40d518f93ec371455d375b7b",
                    "callData": "0x0000000000000000000000000000000000000000000000000840c0cff6590c6e000000000000000000000000000000000000000000000000000000000000000000000000000000000000000062bf8e2d1081e84c89ed43ffdbc81c25a56cb72200000000000000000000000000000000000000000000000000000000000000800000000000000000000000000000000000000000000000000000000000000000",
                    "decodedMethod": {
                        "callParams": [
                            {
                                "name": "amount0Out",
                                "type": "uint256",
                                "value": "594,687,150,236,699,758"
                            },
                            {
                                "name": "amount1Out",
                                "type": "uint256",
                                "value": "0"
                            },
                            {
                                "name": "to",
                                "type": "address",
                                "value": "0x62bf8e2d1081e84c89ed43ffdbc81c25a56cb722"
                            },
                            {
                                "name": "data",
                                "type": "bytes",
                                "value": "0x"
                            }
                        ],
                        "constructorArguments": "",
                        "name": "swap",
                        "returnParams": [],
                        "signature": "swap(uint256,uint256,address,bytes)"
                    },
                    "errorInfo": "",
                    "fromAddress": "0xf3de3c0d654fda23dad170f0f320a92172509127",
                    "gasUsed": 90528,
                    "id": 11,
                    "methodDecoded": true,
                    "operation": "CALL",
                    "output": "",
                    "revert": false,
                    "revertMessage": "",
                    "selector": "0x022c0d9f",
                    "status": true,
                    "value": "0"
                },
                "nodeType": 0
            },
            "12": {
                "invocation": {
                    "address": "0x5640e0560e6afd6a9f4ddb41230d0201d181fea7",
                    "callData": "0x00000000000000000000000062bf8e2d1081e84c89ed43ffdbc81c25a56cb7220000000000000000000000000000000000000000000000000840c0cff6590c6e",
                    "decodedMethod": {
                        "callParams": [
                            {
                                "name": "recipient",
                                "type": "address",
                                "value": "0x62bf8e2d1081e84c89ed43ffdbc81c25a56cb722"
                            },
                            {
                                "decimalAvailable": true,
                                "name": "amount",
                                "type": "uint256",
                                "value": "594,687,150,236,699,758"
                            }
                        ],
                        "constructorArguments": "",
                        "name": "transfer",
                        "returnParams": [
                            {
                                "name": "",
                                "type": "bool",
                                "value": true
                            }
                        ],
                        "signature": "transfer(address,uint256)"
                    },
                    "errorInfo": "",
                    "fromAddress": "0x8f8120fddb7b372d40d518f93ec371455d375b7b",
                    "gasUsed": 62010,
                    "id": 12,
                    "methodDecoded": true,
                    "operation": "CALL",
                    "output": "0x0000000000000000000000000000000000000000000000000000000000000001",
                    "revert": false,
                    "revertMessage": "",
                    "selector": "0xa9059cbb",
                    "status": true,
                    "value": "0"
                },
                "nodeType": 0
            },
            "13": {
                "event": {
                    "contract": "0x5640e0560e6afd6a9f4ddb41230d0201d181fea7",
                    "decodedLog": {
                        "name": "Transfer",
                        "params": [
                            {
                                "name": "from",
                                "type": "address",
                                "value": "0x8f8120fddb7b372d40d518f93ec371455d375b7b"
                            },
                            {
                                "name": "to",
                                "type": "address",
                                "value": "0x62bf8e2d1081e84c89ed43ffdbc81c25a56cb722"
                            },
                            {
                                "decimalAvailable": true,
                                "name": "value",
                                "type": "uint256",
                                "value": "594,687,150,236,699,758"
                            }
                        ],
                        "signature": "Transfer(address,address,uint256)"
                    },
                    "id": 13,
                    "logData": "0x0000000000000000000000000000000000000000000000000840c0cff6590c6e",
                    "logDecoded": true,
                    "operation": "EVENT",
                    "revert": false,
                    "status": true,
                    "topics": [
                        "0xddf252ad1be2c89b69c2b068fc378daa952ba7f163c4a11628f55a4df523b3ef",
                        "0x0000000000000000000000008f8120fddb7b372d40d518f93ec371455d375b7b",
                        "0x00000000000000000000000062bf8e2d1081e84c89ed43ffdbc81c25a56cb722"
                    ]
                },
                "nodeType": 1
            },
            "14": {
                "invocation": {
                    "address": "0x5640e0560e6afd6a9f4ddb41230d0201d181fea7",
                    "callData": "0x0000000000000000000000008f8120fddb7b372d40d518f93ec371455d375b7b",
                    "decodedMethod": {
                        "callParams": [
                            {
                                "name": "account",
                                "type": "address",
                                "value": "0x8f8120fddb7b372d40d518f93ec371455d375b7b"
                            }
                        ],
                        "constructorArguments": "",
                        "name": "balanceOf",
                        "returnParams": [
                            {
                                "decimalAvailable": true,
                                "name": "",
                                "type": "uint256",
                                "value": "102,845,960,571,122,696,183"
                            }
                        ],
                        "signature": "balanceOf(address)"
                    },
                    "errorInfo": "",
                    "fromAddress": "0x8f8120fddb7b372d40d518f93ec371455d375b7b",
                    "gasUsed": 661,
                    "id": 14,
                    "methodDecoded": true,
                    "operation": "STATICCALL",
                    "output": "0x0000000000000000000000000000000000000000000000059346403cf9993ff7",
                    "revert": false,
                    "revertMessage": "",
                    "selector": "0x70a08231",
                    "status": true,
                    "value": "0"
                },
                "nodeType": 0
            },
            "15": {
                "invocation": {
                    "address": "0xc02aaa39b223fe8d0a0e5c4f27ead9083c756cc2",
                    "callData": "0x0000000000000000000000008f8120fddb7b372d40d518f93ec371455d375b7b",
                    "decodedMethod": {
                        "callParams": [
                            {
                                "name": "",
                                "type": "address",
                                "value": "0x8f8120fddb7b372d40d518f93ec371455d375b7b"
                            }
                        ],
                        "constructorArguments": "",
                        "name": "balanceOf",
                        "returnParams": [
                            {
                                "decimalAvailable": true,
                                "name": "",
                                "type": "uint256",
                                "value": "17,342,246,221,159,642,150"
                            }
                        ],
                        "signature": "balanceOf(address)"
                    },
                    "errorInfo": "",
                    "fromAddress": "0x8f8120fddb7b372d40d518f93ec371455d375b7b",
                    "gasUsed": 534,
                    "id": 15,
                    "methodDecoded": true,
                    "operation": "STATICCALL",
                    "output": "0x000000000000000000000000000000000000000000000000f0ac090e1394b426",
                    "revert": false,
                    "revertMessage": "",
                    "selector": "0x70a08231",
                    "status": true,
                    "value": "0"
                },
                "nodeType": 0
            },
            "16": {
                "event": {
                    "contract": "0x8f8120fddb7b372d40d518f93ec371455d375b7b",
                    "decodedLog": {
                        "name": "Sync",
                        "params": [
                            {
                                "name": "reserve0",
                                "type": "uint112",
                                "value": "102,845,960,571,122,696,183"
                            },
                            {
                                "name": "reserve1",
                                "type": "uint112",
                                "value": "17,342,246,221,159,642,150"
                            }
                        ],
                        "signature": "Sync(uint112,uint112)"
                    },
                    "id": 16,
                    "logData": "0x0000000000000000000000000000000000000000000000059346403cf9993ff7000000000000000000000000000000000000000000000000f0ac090e1394b426",
                    "logDecoded": true,
                    "operation": "EVENT",
                    "revert": false,
                    "status": true,
                    "topics": [
                        "0x1c411e9a96e071241c2f21f7726b17ae89e3cab4c78be50e062b03a9fffbbad1"
                    ]
                },
                "nodeType": 1
            },
            "17": {
                "event": {
                    "contract": "0x8f8120fddb7b372d40d518f93ec371455d375b7b",
                    "decodedLog": {
                        "name": "Swap",
                        "params": [
                            {
                                "name": "sender",
                                "type": "address",
                                "value": "0xf3de3c0d654fda23dad170f0f320a92172509127"
                            },
                            {
                                "name": "to",
                                "type": "address",
                                "value": "0x62bf8e2d1081e84c89ed43ffdbc81c25a56cb722"
                            },
                            {
                                "name": "amount0In",
                                "type": "uint256",
                                "value": "0"
                            },
                            {
                                "name": "amount1In",
                                "type": "uint256",
                                "value": "100,000,000,000,000,000"
                            },
                            {
                                "name": "amount0Out",
                                "type": "uint256",
                                "value": "594,687,150,236,699,758"
                            },
                            {
                                "name": "amount1Out",
                                "type": "uint256",
                                "value": "0"
                            }
                        ],
                        "signature": "Swap(address,uint256,uint256,uint256,uint256,address)"
                    },
                    "id": 17,
                    "logData": "0x0000000000000000000000000000000000000000000000000000000000000000000000000000000000000000000000000000000000000000016345785d8a00000000000000000000000000000000000000000000000000000840c0cff6590c6e0000000000000000000000000000000000000000000000000000000000000000",
                    "logDecoded": true,
                    "operation": "EVENT",
                    "revert": false,
                    "status": true,
                    "topics": [
                        "0xd78ad95fa46c994b6551d0da85fc275fe613ce37657fb8d5e3d130840159d822",
                        "0x000000000000000000000000f3de3c0d654fda23dad170f0f320a92172509127",
                        "0x00000000000000000000000062bf8e2d1081e84c89ed43ffdbc81c25a56cb722"
                    ]
                },
                "nodeType": 1
            },
            "18": {
                "invocation": {
                    "address": "0x5640e0560e6afd6a9f4ddb41230d0201d181fea7",
                    "callData": "0x00000000000000000000000062bf8e2d1081e84c89ed43ffdbc81c25a56cb722",
                    "decodedMethod": {
                        "callParams": [
                            {
                                "name": "account",
                                "type": "address",
                                "value": "0x62bf8e2d1081e84c89ed43ffdbc81c25a56cb722"
                            }
                        ],
                        "constructorArguments": "",
                        "name": "balanceOf",
                        "returnParams": [
                            {
                                "decimalAvailable": true,
                                "name": "",
                                "type": "uint256",
                                "value": "594,687,150,236,699,758"
                            }
                        ],
                        "signature": "balanceOf(address)"
                    },
                    "errorInfo": "",
                    "fromAddress": "0xf3de3c0d654fda23dad170f0f320a92172509127",
                    "gasUsed": 661,
                    "id": 18,
                    "methodDecoded": true,
                    "operation": "STATICCALL",
                    "output": "0x0000000000000000000000000000000000000000000000000840c0cff6590c6e",
                    "revert": false,
                    "revertMessage": "",
                    "selector": "0x70a08231",
                    "status": true,
                    "value": "0"
                },
                "nodeType": 0
            },
            "19": {
                "event": {
                    "contract": "0xf3de3c0d654fda23dad170f0f320a92172509127",
                    "decodedLog": {
                        "name": "OrderRecord",
                        "params": [
                            {
                                "name": "fromToken",
                                "type": "address",
                                "value": "0x0000000000000000000000000000000000000000"
                            },
                            {
                                "name": "toToken",
                                "type": "address",
                                "value": "0x5640e0560e6afd6a9f4ddb41230d0201d181fea7"
                            },
                            {
                                "name": "sender",
                                "type": "address",
                                "value": "0x62bf8e2d1081e84c89ed43ffdbc81c25a56cb722"
                            },
                            {
                                "name": "fromAmount",
                                "type": "uint256",
                                "value": "100,000,000,000,000,000"
                            },
                            {
                                "name": "returnAmount",
                                "type": "uint256",
                                "value": "594,687,150,236,699,758"
                            }
                        ],
                        "signature": "OrderRecord(address,address,address,uint256,uint256)"
                    },
                    "id": 19,
                    "logData": "0x00000000000000000000000000000000000000000000000000000000000000000000000000000000000000005640e0560e6afd6a9f4ddb41230d0201d181fea700000000000000000000000062bf8e2d1081e84c89ed43ffdbc81c25a56cb722000000000000000000000000000000000000000000000000016345785d8a00000000000000000000000000000000000000000000000000000840c0cff6590c6e",
                    "logDecoded": true,
                    "operation": "EVENT",
                    "revert": false,
                    "status": true,
                    "topics": [
                        "0x1bb43f2da90e35f7b0cf38521ca95a49e68eb42fac49924930a5bd73cdf7576c"
                    ]
                },
                "nodeType": 1
            },
            "2": {
                "invocation": {
                    "address": "0xc02aaa39b223fe8d0a0e5c4f27ead9083c756cc2",
                    "callData": "0x",
                    "decodedMethod": {
                        "callParams": [],
                        "constructorArguments": "",
                        "name": "deposit",
                        "returnParams": [],
                        "signature": "deposit()"
                    },
                    "errorInfo": "",
                    "fromAddress": "0xf3de3c0d654fda23dad170f0f320a92172509127",
                    "gasUsed": 23974,
                    "id": 2,
                    "methodDecoded": true,
                    "operation": "CALL",
                    "output": "",
                    "revert": false,
                    "revertMessage": "",
                    "selector": "0xd0e30db0",
                    "status": true,
                    "value": "0.1"
                },
                "nodeType": 0
            },
            "3": {
                "event": {
                    "contract": "0xc02aaa39b223fe8d0a0e5c4f27ead9083c756cc2",
                    "decodedLog": {
                        "name": "Deposit",
                        "params": [
                            {
                                "name": "dst",
                                "type": "address",
                                "value": "0xf3de3c0d654fda23dad170f0f320a92172509127"
                            },
                            {
                                "name": "wad",
                                "type": "uint256",
                                "value": "100,000,000,000,000,000"
                            }
                        ],
                        "signature": "Deposit(address,uint256)"
                    },
                    "id": 3,
                    "logData": "0x000000000000000000000000000000000000000000000000016345785d8a0000",
                    "logDecoded": true,
                    "operation": "EVENT",
                    "revert": false,
                    "status": true,
                    "topics": [
                        "0xe1fffcc4923d04b559f4d29a8bfc6cda04eb5b0d3c460751c2402c5c5cc9109c",
                        "0x000000000000000000000000f3de3c0d654fda23dad170f0f320a92172509127"
                    ]
                },
                "nodeType": 1
            },
            "4": {
                "invocation": {
                    "address": "0xc02aaa39b223fe8d0a0e5c4f27ead9083c756cc2",
                    "callData": "0x0000000000000000000000008f8120fddb7b372d40d518f93ec371455d375b7b000000000000000000000000000000000000000000000000016345785d8a0000",
                    "decodedMethod": {
                        "callParams": [
                            {
                                "name": "dst",
                                "type": "address",
                                "value": "0x8f8120fddb7b372d40d518f93ec371455d375b7b"
                            },
                            {
                                "decimalAvailable": true,
                                "name": "wad",
                                "type": "uint256",
                                "value": "100,000,000,000,000,000"
                            }
                        ],
                        "constructorArguments": "",
                        "name": "transfer",
                        "returnParams": [
                            {
                                "name": "",
                                "type": "bool",
                                "value": true
                            }
                        ],
                        "signature": "transfer(address,uint256)"
                    },
                    "errorInfo": "",
                    "fromAddress": "0xf3de3c0d654fda23dad170f0f320a92172509127",
                    "gasUsed": 8062,
                    "id": 4,
                    "methodDecoded": true,
                    "operation": "CALL",
                    "output": "0x0000000000000000000000000000000000000000000000000000000000000001",
                    "revert": false,
                    "revertMessage": "",
                    "selector": "0xa9059cbb",
                    "status": true,
                    "value": "0"
                },
                "nodeType": 0
            },
            "5": {
                "event": {
                    "contract": "0xc02aaa39b223fe8d0a0e5c4f27ead9083c756cc2",
                    "decodedLog": {
                        "name": "Transfer",
                        "params": [
                            {
                                "name": "src",
                                "type": "address",
                                "value": "0xf3de3c0d654fda23dad170f0f320a92172509127"
                            },
                            {
                                "name": "dst",
                                "type": "address",
                                "value": "0x8f8120fddb7b372d40d518f93ec371455d375b7b"
                            },
                            {
                                "decimalAvailable": true,
                                "name": "wad",
                                "type": "uint256",
                                "value": "100,000,000,000,000,000"
                            }
                        ],
                        "signature": "Transfer(address,address,uint256)"
                    },
                    "id": 5,
                    "logData": "0x000000000000000000000000000000000000000000000000016345785d8a0000",
                    "logDecoded": true,
                    "operation": "EVENT",
                    "revert": false,
                    "status": true,
                    "topics": [
                        "0xddf252ad1be2c89b69c2b068fc378daa952ba7f163c4a11628f55a4df523b3ef",
                        "0x000000000000000000000000f3de3c0d654fda23dad170f0f320a92172509127",
                        "0x0000000000000000000000008f8120fddb7b372d40d518f93ec371455d375b7b"
                    ]
                },
                "nodeType": 1
            },
            "6": {
                "invocation": {
                    "address": "0x8f8120fddb7b372d40d518f93ec371455d375b7b",
                    "callData": "0x",
                    "decodedMethod": {
                        "callParams": [],
                        "constructorArguments": "",
                        "name": "token0",
                        "returnParams": [
                            {
                                "name": "",
                                "type": "address",
                                "value": "0x5640e0560e6afd6a9f4ddb41230d0201d181fea7"
                            }
                        ],
                        "signature": "token0()"
                    },
                    "errorInfo": "",
                    "fromAddress": "0xf3de3c0d654fda23dad170f0f320a92172509127",
                    "gasUsed": 2381,
                    "id": 6,
                    "methodDecoded": true,
                    "operation": "STATICCALL",
                    "output": "0x0000000000000000000000005640e0560e6afd6a9f4ddb41230d0201d181fea7",
                    "revert": false,
                    "revertMessage": "",
                    "selector": "0x0dfe1681",
                    "status": true,
                    "value": "0"
                },
                "nodeType": 0
            },
            "7": {
                "invocation": {
                    "address": "0x5640e0560e6afd6a9f4ddb41230d0201d181fea7",
                    "callData": "0x00000000000000000000000062bf8e2d1081e84c89ed43ffdbc81c25a56cb722",
                    "decodedMethod": {
                        "callParams": [
                            {
                                "name": "account",
                                "type": "address",
                                "value": "0x62bf8e2d1081e84c89ed43ffdbc81c25a56cb722"
                            }
                        ],
                        "constructorArguments": "",
                        "name": "balanceOf",
                        "returnParams": [
                            {
                                "decimalAvailable": true,
                                "name": "",
                                "type": "uint256",
                                "value": "0"
                            }
                        ],
                        "signature": "balanceOf(address)"
                    },
                    "errorInfo": "",
                    "fromAddress": "0xf3de3c0d654fda23dad170f0f320a92172509127",
                    "gasUsed": 2661,
                    "id": 7,
                    "methodDecoded": true,
                    "operation": "STATICCALL",
                    "output": "0x0000000000000000000000000000000000000000000000000000000000000000",
                    "revert": false,
                    "revertMessage": "",
                    "selector": "0x70a08231",
                    "status": true,
                    "value": "0"
                },
                "nodeType": 0
            },
            "8": {
                "invocation": {
                    "address": "0x8f8120fddb7b372d40d518f93ec371455d375b7b",
                    "callData": "0x",
                    "decodedMethod": {
                        "callParams": [],
                        "constructorArguments": "",
                        "name": "getReserves",
                        "returnParams": [
                            {
                                "name": "_reserve0",
                                "type": "uint112",
                                "value": "103,440,647,721,359,395,941"
                            },
                            {
                                "name": "_reserve1",
                                "type": "uint112",
                                "value": "17,242,246,221,159,642,150"
                            },
                            {
                                "name": "_blockTimestampLast",
                                "type": "uint32",
                                "value": "1,725,434,891"
                            }
                        ],
                        "signature": "getReserves()"
                    },
                    "errorInfo": "",
                    "fromAddress": "0xf3de3c0d654fda23dad170f0f320a92172509127",
                    "gasUsed": 2504,
                    "id": 8,
                    "methodDecoded": true,
                    "operation": "STATICCALL",
                    "output": "0x0000000000000000000000000000000000000000000000059b87010ceff24c65000000000000000000000000000000000000000000000000ef48c395b60ab4260000000000000000000000000000000000000000000000000000000066d80c0b",
                    "revert": false,
                    "revertMessage": "",
                    "selector": "0x0902f1ac",
                    "status": true,
                    "value": "0"
                },
                "nodeType": 0
            },
            "9": {
                "invocation": {
                    "address": "0x8f8120fddb7b372d40d518f93ec371455d375b7b",
                    "callData": "0x",
                    "decodedMethod": {
                        "callParams": [],
                        "constructorArguments": "",
                        "name": "token1",
                        "returnParams": [
                            {
                                "name": "",
                                "type": "address",
                                "value": "0xc02aaa39b223fe8d0a0e5c4f27ead9083c756cc2"
                            }
                        ],
                        "signature": "token1()"
                    },
                    "errorInfo": "",
                    "fromAddress": "0xf3de3c0d654fda23dad170f0f320a92172509127",
                    "gasUsed": 2357,
                    "id": 9,
                    "methodDecoded": true,
                    "operation": "STATICCALL",
                    "output": "0x000000000000000000000000c02aaa39b223fe8d0a0e5c4f27ead9083c756cc2",
                    "revert": false,
                    "revertMessage": "",
                    "selector": "0xd21220a7",
                    "status": true,
                    "value": "0"
                },
                "nodeType": 0
            }
        },
        "gasFlame": [
            {
                "children": [
                    {
                        "children": [
                            {
                                "children": [],
                                "depth": 0,
                                "name": "Initial Gas",
                                "value": 22324
                            },
                            {
                                "children": [
                                    {
                                        "children": [],
                                        "depth": 1,
                                        "name": "deposit",
                                        "value": 23974
                                    },
                                    {
                                        "children": [],
                                        "depth": 1,
                                        "name": "transfer",
                                        "value": 8062
                                    },
                                    {
                                        "children": [],
                                        "depth": 1,
                                        "name": "token0",
                                        "value": 2381
                                    },
                                    {
                                        "children": [],
                                        "depth": 1,
                                        "name": "balanceOf",
                                        "value": 2661
                                    },
                                    {
                                        "children": [],
                                        "depth": 1,
                                        "name": "getReserves",
                                        "value": 2504
                                    },
                                    {
                                        "children": [],
                                        "depth": 1,
                                        "name": "token1",
                                        "value": 2357
                                    },
                                    {
                                        "children": [],
                                        "depth": 1,
                                        "name": "balanceOf",
                                        "value": 534
                                    },
                                    {
                                        "children": [
                                            {
                                                "children": [],
                                                "depth": 2,
                                                "name": "transfer",
                                                "value": 62010
                                            },
                                            {
                                                "children": [],
                                                "depth": 2,
                                                "name": "balanceOf",
                                                "value": 661
                                            },
                                            {
                                                "children": [],
                                                "depth": 2,
                                                "name": "balanceOf",
                                                "value": 534
                                            }
                                        ],
                                        "depth": 1,
                                        "name": "swap",
                                        "value": 90528
                                    },
                                    {
                                        "children": [],
                                        "depth": 1,
                                        "name": "balanceOf",
                                        "value": 661
                                    }
                                ],
                                "depth": 0,
                                "name": "Executed Gas",
                                "value": 154339
                            }
                        ],
                        "depth": -1,
                        "name": "Actual Gas Used",
                        "value": 153963
                    },
                    {
                        "children": [],
                        "depth": -1,
                        "name": "Refunded Gas",
                        "value": 22700
                    }
                ],
                "depth": -2,
                "name": "Total Gas",
                "value": 176663
            }
        ],
        "isConfirmed": true,
        "mainTrace": [
            {
                "children": [
                    {
                        "children": [
                            {
                                "children": [],
                                "depth": 1,
                                "id": 1,
                                "order": 1
                            },
                            {
                                "children": [
                                    {
                                        "children": [],
                                        "depth": 2,
                                        "id": 3,
                                        "order": 3
                                    }
                                ],
                                "depth": 1,
                                "id": 2,
                                "order": 2
                            },
                            {
                                "children": [
                                    {
                                        "children": [],
                                        "depth": 2,
                                        "id": 5,
                                        "order": 5
                                    }
                                ],
                                "depth": 1,
                                "id": 4,
                                "order": 4
                            },
                            {
                                "children": [],
                                "depth": 1,
                                "id": 6,
                                "order": 6
                            },
                            {
                                "children": [],
                                "depth": 1,
                                "id": 7,
                                "order": 7
                            },
                            {
                                "children": [],
                                "depth": 1,
                                "id": 8,
                                "order": 8
                            },
                            {
                                "children": [],
                                "depth": 1,
                                "id": 9,
                                "order": 9
                            },
                            {
                                "children": [],
                                "depth": 1,
                                "id": 10,
                                "order": 10
                            },
                            {
                                "children": [
                                    {
                                        "children": [
                                            {
                                                "children": [],
                                                "depth": 3,
                                                "id": 13,
                                                "order": 13
                                            }
                                        ],
                                        "depth": 2,
                                        "id": 12,
                                        "order": 12
                                    },
                                    {
                                        "children": [],
                                        "depth": 2,
                                        "id": 14,
                                        "order": 14
                                    },
                                    {
                                        "children": [],
                                        "depth": 2,
                                        "id": 15,
                                        "order": 15
                                    },
                                    {
                                        "children": [],
                                        "depth": 2,
                                        "id": 16,
                                        "order": 16
                                    },
                                    {
                                        "children": [],
                                        "depth": 2,
                                        "id": 17,
                                        "order": 17
                                    }
                                ],
                                "depth": 1,
                                "id": 11,
                                "order": 11
                            },
                            {
                                "children": [],
                                "depth": 1,
                                "id": 18,
                                "order": 18
                            },
                            {
                                "children": [],
                                "depth": 1,
                                "id": 19,
                                "order": 19
                            }
                        ],
                        "depth": 0,
                        "id": 0,
                        "order": 0
                    }
                ],
                "depth": -1,
                "id": -1,
                "order": -1
            }
        ],
        "mainTraceNodeCount": 20,
        "parentIdMap": {
            "0": -1,
            "1": 0,
            "10": 0,
            "11": 0,
            "12": 11,
            "13": 12,
            "14": 11,
            "15": 11,
            "16": 11,
            "17": 11,
            "18": 0,
            "19": 0,
            "2": 0,
            "3": 2,
            "4": 0,
            "5": 4,
            "6": 0,
            "7": 0,
            "8": 0,
            "9": 0
        },
        "tidyTrace": [
            {
                "children": [
                    {
                        "children": [
                            {
                                "children": [],
                                "depth": 1,
                                "id": 1,
                                "order": 1
                            },
                            {
                                "children": [
                                    {
                                        "children": [],
                                        "depth": 2,
                                        "id": 3,
                                        "order": 3
                                    }
                                ],
                                "depth": 1,
                                "id": 2,
                                "order": 2
                            },
                            {
                                "children": [
                                    {
                                        "children": [],
                                        "depth": 2,
                                        "id": 5,
                                        "order": 5
                                    }
                                ],
                                "depth": 1,
                                "id": 4,
                                "order": 4
                            },
                            {
                                "children": [
                                    {
                                        "children": [
                                            {
                                                "children": [],
                                                "depth": 3,
                                                "id": 13,
                                                "order": 13
                                            }
                                        ],
                                        "depth": 2,
                                        "id": 12,
                                        "order": 12
                                    },
                                    {
                                        "children": [],
                                        "depth": 2,
                                        "id": 16,
                                        "order": 16
                                    },
                                    {
                                        "children": [],
                                        "depth": 2,
                                        "id": 17,
                                        "order": 17
                                    }
                                ],
                                "depth": 1,
                                "id": 11,
                                "order": 11
                            },
                            {
                                "children": [],
                                "depth": 1,
                                "id": 19,
                                "order": 19
                            }
                        ],
                        "depth": 0,
                        "id": 0,
                        "order": 0
                    }
                ],
                "depth": -1,
                "id": -1,
                "order": -1
            }
        ],
        "tidyTraceNodeCount": 12
    },
    "state_change": {
        "stateChanges": [
            {
                "address": "0x5640e0560e6afd6a9f4ddb41230d0201d181fea7",
                "erc": "ERC-20",
                "slots": [
                    {
                        "current": "0x000000000000000000000000000000000000000000000000000000000000236e",
                        "key": "0x000000000000000000000000000000000000000000000000000000000000000e",
                        "prev": "0x000000000000000000000000000000000000000000000000000000000000236d"
                    },
                    {
                        "current": "0x0000000000000000000000000000000000000000000000059346403cf9993ff7",
                        "key": "0xf201db6c94654b3dfb364e155faee0a92398ed1562cd8ddd3e2bf6c0d687a216",
                        "prev": "0x0000000000000000000000000000000000000000000000059b87010ceff24c65"
                    },
                    {
                        "current": "0x0000000000000000000000000000000000000000000000000840c0cff6590c6e",
                        "key": "0xcc143d853626250bb34eb3cb219409d2674182189cc102ccaa22668cc0420e06",
                        "prev": "0x0000000000000000000000000000000000000000000000000000000000000000"
                    }
                ],
                "storageVariables": [
                    {
                        "name": "_buyCount",
                        "type": "uint256",
                        "value": {
                            "current": "9070",
                            "prev": "9069",
                            "typeTag": 1
                        }
                    },
                    {
                        "name": "_balances",
                        "type": "mapping(address => uint256)",
                        "value": {
                            "pairs": [
                                {
                                    "key": "0x62bf8e2d1081e84c89ed43ffdbc81c25a56cb722",
                                    "value": {
                                        "current": "594687150236699758",
                                        "prev": "0",
                                        "typeTag": 1
                                    }
                                },
                                {
                                    "key": "0x8f8120fddb7b372d40d518f93ec371455d375b7b",
                                    "value": {
                                        "current": "102845960571122696183",
                                        "prev": "103440647721359395941",
                                        "typeTag": 1
                                    }
                                }
                            ],
                            "typeTag": 4
                        }
                    }
                ]
            },
            {
                "address": "0x8f8120fddb7b372d40d518f93ec371455d375b7b",
                "erc": "ERC-20",
                "slots": [
                    {
                        "current": "0x00000000000000000000000000000007931686d053427c883d5f432f0bedd72c",
                        "key": "0x0000000000000000000000000000000000000000000000000000000000000009",
                        "prev": "0x0000000000000000000000000000000792b683c4011c1d67bf6950c00afbf6ac"
                    },
                    {
                        "current": "0x000000000000000000000000000016fe30baff0f3bdcd0f154e246cec41a8964",
                        "key": "0x000000000000000000000000000000000000000000000000000000000000000a",
                        "prev": "0x000000000000000000000000000016fe233b6cc74d6cbf125cd3965bba019d24"
                    },
                    {
                        "current": "0x66d80e4b000000000000f0ac090e1394b4260000000000059346403cf9993ff7",
                        "key": "0x0000000000000000000000000000000000000000000000000000000000000008",
                        "prev": "0x66d80c0b000000000000ef48c395b60ab4260000000000059b87010ceff24c65"
                    }
                ],
                "storageVariables": [
                    {
                        "name": "price1CumulativeLast",
                        "type": "uint256",
                        "value": {
                            "current": "2002966785580878557320114936790271814961508",
                            "prev": "2002948843228301524902579155284063280012580",
                            "typeTag": 1
                        }
                    },
                    {
                        "name": "reserve0",
                        "type": "uint112",
                        "value": {
                            "current": "102845960571122696183",
                            "prev": "103440647721359395941",
                            "typeTag": 1
                        }
                    },
                    {
                        "name": "reserve1",
                        "type": "uint112",
                        "value": {
                            "current": "17342246221159642150",
                            "prev": "17242246221159642150",
                            "typeTag": 1
                        }
                    },
                    {
                        "name": "blockTimestampLast",
                        "type": "uint32",
                        "value": {
                            "current": "1725435467",
                            "prev": "1725434891",
                            "typeTag": 1
                        }
                    },
                    {
                        "name": "price0CumulativeLast",
                        "type": "uint256",
                        "value": {
                            "current": "2577490048705951969065018192510281701164",
                            "prev": "2576991526384141705275812180196717229740",
                            "typeTag": 1
                        }
                    }
                ]
            },
            {
                "address": "0xc02aaa39b223fe8d0a0e5c4f27ead9083c756cc2",
                "erc": "ERC-20",
                "slots": [
                    {
                        "current": "0x000000000000000000000000000000000000000000000000f0ac090e1394b426",
                        "key": "0x8e0e57078ec9fd6f6b7cf7cc614b9c8c8b8c832ab8ea99fb836ba551dbd09d7e",
                        "prev": "0x000000000000000000000000000000000000000000000000ef48c395b60ab426"
                    }
                ],
                "storageVariables": [
                    {
                        "name": "balanceOf",
                        "type": "mapping(address => uint256)",
                        "value": {
                            "pairs": [
                                {
                                    "key": "0x8f8120fddb7b372d40d518f93ec371455d375b7b",
                                    "value": {
                                        "current": "17342246221159642150",
                                        "prev": "17242246221159642150",
                                        "typeTag": 1
                                    }
                                }
                            ],
                            "typeTag": 4
                        }
                    }
                ]
            }
        ]
    }
}