{
    "balance_change": {
        "balanceChanges": []
    },
    "profile": {
        "basic_info": {
            "baseFee": "",
            "blockNumber": 8030177,
            "callData": "0xe39c6d80000000000000000000000000795e67cea58a6191187a9c92d9a58bb37bcc116f000000000000000000000000000000000000000000000000000000000000006000000000000000000000000000000000000000000000000000000000000000c00000000000000000000000000000000000000000000000000000000000000002100000000000065a00000000000000000000000000000000000000000000000010000000000006ac000000000000000000000000000000000000000000000000000000000000000000000000000000000000000000000000000000000000000200000000000000000000000000000000000000000000000000000000000000010000000000000000000000000000000000000000000000000000000000000001",
            "debugEnable": true,
            "errorInfo": "",
            "eventCount": 2,
            "feeRecipient": "0xea674fdde714fd979de3edf0f56aa9716b898ec8",
            "formatValue": "0",
            "gasLimit": 123135,
            "gasPrice": "1.2",
            "gasUsed": 84276,
            "intTxnCount": 7,
            "internalRevert": false,
            "internalRevertMessage": "",
            "isContractCreation": false,
            "isFlashloan": false,
            "maxFee": "",
            "nonce": 16237,
            "overwritedBlockNumber": -1,
            "priorityFee": "",
            "receiver": "0x8562c38485b1e8ccd82e44f89823da76c98eb0ab",
            "revertMessage": "",
            "sender": "0x7d510f661f490482fbff45275b00a82f5f69f784",
            "simulationEnable": true,
            "sourceTxnHash": "0x77ec1553ddc11f5aabb4a86ddefa58b88e7db727b74401da33ef5af3853f790d",
            "status": true,
            "timestamp": "2019-06-25T23:45:33Z",
            "transactionFee": "0.0001011312",
            "txnHash": "0x77ec1553ddc11f5aabb4a86ddefa58b88e7db727b74401da33ef5af3853f790d",
            "txnIndex": 28,
            "type": 0,
            "value": "0"
        },
        "fund_flow": [],
        "token_infos": [
            {
                "address": "0xc02aaa39b223fe8d0a0e5c4f27ead9083c756cc2",
                "decimals": 18
            },
            {
                "address": "0xeeeeeeeeeeeeeeeeeeeeeeeeeeeeeeeeeeeeeeee",
                "decimals": 18
            }
        ]
    },
    "address_label": {
        "labels": [
            {
                "address": "0xeeeeeeeeeeeeeeeeeeeeeeeeeeeeeeeeeeeeeeee",
                "label": "Ether"
            },
            {
                "address": "0x0000000000000000000000000000000000000001",
                "label": "Precompiled"
            },
            {
                "address": "0x0000000000000000000000000000000000000002",
                "label": "Precompiled"
            },
            {
                "address": "0x0000000000000000000000000000000000000003",
                "label": "Precompiled"
            },
            {
                "address": "0x0000000000000000000000000000000000000004",
                "label": "Precompiled"
            }
        ]
    },
    "trace": {
        "accountLabels": null,
        "dataMap": {
            "-1": {
                "invocation": {
                    "address": "0x7d510f661f490482fbff45275b00a82f5f69f784",
                    "callData": "",
                    "decodedMethod": null,
                    "errorInfo": "",
                    "fromAddress": "",
                    "gasUsed": 0,
                    "id": -1,
                    "methodDecoded": false,
                    "operation": "",
                    "output": "",
                    "revert": false,
                    "revertMessage": "",
                    "selector": "",
                    "status": false,
                    "value": ""
                },
                "nodeType": 0
            },
            "0": {
                "invocation": {
                    "address": "0x8562c38485b1e8ccd82e44f89823da76c98eb0ab",
                    "callData": "0x000000000000000000000000795e67cea58a6191187a9c92d9a58bb37bcc116f000000000000000000000000000000000000000000000000000000000000006000000000000000000000000000000000000000000000000000000000000000c00000000000000000000000000000000000000000000000000000000000000002100000000000065a00000000000000000000000000000000000000000000000010000000000006ac000000000000000000000000000000000000000000000000000000000000000000000000000000000000000000000000000000000000000200000000000000000000000000000000000000000000000000000000000000010000000000000000000000000000000000000000000000000000000000000001",
                    "decodedMethod": {
                        "callParams": [
                            {
                                "name": "_to",
                                "type": "address",
                                "value": "0x795e67cea58a6191187a9c92d9a58bb37bcc116f"
                            },
                            {
                                "name": "_ids",
                                "type": "uint256[]",
                                "value": [
                                    "7,237,005,577,332,272,420,540,608,301,785,916,237,822,976,177,268,127,834,896,051,699,014,688,571,392",
                                    "7,237,005,577,332,272,935,262,950,603,493,738,872,357,708,880,296,773,955,289,198,145,065,518,628,864"
                                ]
                            },
                            {
                                "name": "_amounts",
                                "type": "uint256[]",
                                "value": [
                                    "1",
                                    "1"
                                ]
                            }
                        ],
                        "constructorArguments": "",
                        "name": "batchTransfer",
                        "returnParams": [],
                        "signature": "batchTransfer(address,uint256[],uint256[])"
                    },
                    "errorInfo": "",
                    "fromAddress": "0x7d510f661f490482fbff45275b00a82f5f69f784",
                    "gasUsed": 84276,
                    "id": 0,
                    "methodDecoded": true,
                    "operation": "CALL",
                    "output": "",
                    "revert": false,
                    "revertMessage": "",
                    "selector": "0xe39c6d80",
                    "status": true,
                    "value": "0"
                },
                "nodeType": 0
            },
            "1": {
                "invocation": {
                    "address": "0xe23e75c8ca2a1e6c24fbb509a9379b68c5a267a8",
                    "callData": "0x0000000000000000000000004e643a25a64952895f553f20252861258727174e000000000000000000000000795e67cea58a6191187a9c92d9a58bb37bcc116f000000000000000000000000000000000000000000000000000000000000008000000000000000000000000000000000000000000000000000000000000000e00000000000000000000000000000000000000000000000000000000000000002100000000000065a00000000000000000000000000000000000000000000000010000000000006ac000000000000000000000000000000000000000000000000000000000000000000000000000000000000000000000000000000000000000200000000000000000000000000000000000000000000000000000000000000010000000000000000000000000000000000000000000000000000000000000001",
                    "decodedMethod": null,
                    "errorInfo": "",
                    "fromAddress": "0x8562c38485b1e8ccd82e44f89823da76c98eb0ab",
                    "gasUsed": 55849,
                    "id": 1,
                    "methodDecoded": false,
                    "operation": "DELEGATECALL",
                    "output": "",
                    "revert": false,
                    "revertMessage": "",
                    "selector": "0xeb3b43dd",
                    "status": true,
                    "value": "0"
                },
                "nodeType": 0
            },
            "2": {
                "invocation": {
                    "address": "0x4e643a25a64952895f553f20252861258727174e",
                    "callData": "0x100000000000065a000000000000000000000000000000000000000000000000",
                    "decodedMethod": null,
                    "errorInfo": "",
                    "fromAddress": "0x8562c38485b1e8ccd82e44f89823da76c98eb0ab",
                    "gasUsed": 1582,
                    "id": 2,
                    "methodDecoded": false,
                    "operation": "CALL",
                    "output": "0x0000000000000000000000000000000000000000000000000000000000000002",
                    "revert": false,
                    "revertMessage": "",
                    "selector": "0x73007500",
                    "status": true,
                    "value": "0"
                },
                "nodeType": 0
            },
            "3": {
                "invocation": {
                    "address": "0x4e643a25a64952895f553f20252861258727174e",
                    "callData": "0x100000000000065a000000000000000000000000000000000000000000000000",
                    "decodedMethod": {
                        "callParams": [
                            {
                                "name": "tokenId",
                                "type": "uint256",
                                "value": "7,237,005,577,332,272,420,540,608,301,785,916,237,822,976,177,268,127,834,896,051,699,014,688,571,392"
                            }
                        ],
                        "constructorArguments": "",
                        "name": "getCreator",
                        "returnParams": [
                            {
                                "name": "",
                                "type": "address",
                                "value": "0x7d510f661f490482fbff45275b00a82f5f69f784"
                            }
                        ],
                        "signature": "getCreator(uint256)"
                    },
                    "errorInfo": "",
                    "fromAddress": "0x8562c38485b1e8ccd82e44f89823da76c98eb0ab",
                    "gasUsed": 2897,
                    "id": 3,
                    "methodDecoded": true,
                    "operation": "CALL",
                    "output": "0x0000000000000000000000007d510f661f490482fbff45275b00a82f5f69f784",
                    "revert": false,
                    "revertMessage": "",
                    "selector": "0xd48e638a",
                    "status": true,
                    "value": "0"
                },
                "nodeType": 0
            },
            "4": {
                "invocation": {
                    "address": "0x4e643a25a64952895f553f20252861258727174e",
                    "callData": "0x100000000000065a0000000000000000000000000000000000000000000000000000000000000000000000007d510f661f490482fbff45275b00a82f5f69f784000000000000000000000000795e67cea58a6191187a9c92d9a58bb37bcc116f0000000000000000000000000000000000000000000000000000000000000001",
                    "decodedMethod": null,
                    "errorInfo": "",
                    "fromAddress": "0x8562c38485b1e8ccd82e44f89823da76c98eb0ab",
                    "gasUsed": 14720,
                    "id": 4,
                    "methodDecoded": false,
                    "operation": "CALL",
                    "output": "",
                    "revert": false,
                    "revertMessage": "",
                    "selector": "0xffaf6633",
                    "status": true,
                    "value": "0"
                },
                "nodeType": 0
            },
            "5": {
                "event": {
                    "contract": "0x8562c38485b1e8ccd82e44f89823da76c98eb0ab",
                    "decodedLog": {
                        "name": "Transfer",
                        "params": [
                            {
                                "name": "tranche",
                                "type": "uint256",
                                "value": "7,237,005,577,332,272,420,540,608,301,785,916,237,822,976,177,268,127,834,896,051,699,014,688,571,392"
                            },
                            {
                                "name": "from",
                                "type": "address",
                                "value": "0x7d510f661f490482fbff45275b00a82f5f69f784"
                            },
                            {
                                "name": "to",
                                "type": "address",
                                "value": "0x795e67cea58a6191187a9c92d9a58bb37bcc116f"
                            },
                            {
                                "name": "amount",
                                "type": "uint256",
                                "value": "1"
                            }
                        ],
                        "signature": "Transfer(uint256,address,address,uint256)"
                    },
                    "id": 5,
                    "logData": "0x0000000000000000000000000000000000000000000000000000000000000001",
                    "logDecoded": true,
                    "operation": "EVENT",
                    "revert": false,
                    "status": true,
                    "topics": [
                        "0xf2dbd98d79f00f7aff338b824931d607bfcc63d47307162470f25a055102d3b0",
                        "0x100000000000065a000000000000000000000000000000000000000000000000",
                        "0x0000000000000000000000007d510f661f490482fbff45275b00a82f5f69f784",
                        "0x000000000000000000000000795e67cea58a6191187a9c92d9a58bb37bcc116f"
                    ]
                },
                "nodeType": 1
            },
            "6": {
                "invocation": {
                    "address": "0x4e643a25a64952895f553f20252861258727174e",
                    "callData": "0x10000000000006ac000000000000000000000000000000000000000000000000",
                    "decodedMethod": null,
                    "errorInfo": "",
                    "fromAddress": "0x8562c38485b1e8ccd82e44f89823da76c98eb0ab",
                    "gasUsed": 1582,
                    "id": 6,
                    "methodDecoded": false,
                    "operation": "CALL",
                    "output": "0x0000000000000000000000000000000000000000000000000000000000000002",
                    "revert": false,
                    "revertMessage": "",
                    "selector": "0x73007500",
                    "status": true,
                    "value": "0"
                },
                "nodeType": 0
            },
            "7": {
                "invocation": {
                    "address": "0x4e643a25a64952895f553f20252861258727174e",
                    "callData": "0x10000000000006ac000000000000000000000000000000000000000000000000",
                    "decodedMethod": {
                        "callParams": [
                            {
                                "name": "tokenId",
                                "type": "uint256",
                                "value": "7,237,005,577,332,272,935,262,950,603,493,738,872,357,708,880,296,773,955,289,198,145,065,518,628,864"
                            }
                        ],
                        "constructorArguments": "",
                        "name": "getCreator",
                        "returnParams": [
                            {
                                "name": "",
                                "type": "address",
                                "value": "0x7d510f661f490482fbff45275b00a82f5f69f784"
                            }
                        ],
                        "signature": "getCreator(uint256)"
                    },
                    "errorInfo": "",
                    "fromAddress": "0x8562c38485b1e8ccd82e44f89823da76c98eb0ab",
                    "gasUsed": 2897,
                    "id": 7,
                    "methodDecoded": true,
                    "operation": "CALL",
                    "output": "0x0000000000000000000000007d510f661f490482fbff45275b00a82f5f69f784",
                    "revert": false,
                    "revertMessage": "",
                    "selector": "0xd48e638a",
                    "status": true,
                    "value": "0"
                },
                "nodeType": 0
            },
            "8": {
                "invocation": {
                    "address": "0x4e643a25a64952895f553f20252861258727174e",
                    "callData": "0x10000000000006ac0000000000000000000000000000000000000000000000000000000000000000000000007d510f661f490482fbff45275b00a82f5f69f784000000000000000000000000795e67cea58a6191187a9c92d9a58bb37bcc116f0000000000000000000000000000000000000000000000000000000000000001",
                    "decodedMethod": null,
                    "errorInfo": "",
                    "fromAddress": "0x8562c38485b1e8ccd82e44f89823da76c98eb0ab",
                    "gasUsed": 14720,
                    "id": 8,
                    "methodDecoded": false,
                    "operation": "CALL",
                    "output": "",
                    "revert": false,
                    "revertMessage": "",
                    "selector": "0xffaf6633",
                    "status": true,
                    "value": "0"
                },
                "nodeType": 0
            },
            "9": {
                "event": {
                    "contract": "0x8562c38485b1e8ccd82e44f89823da76c98eb0ab",
                    "decodedLog": {
                        "name": "Transfer",
                        "params": [
                            {
                                "name": "tranche",
                                "type": "uint256",
                                "value": "7,237,005,577,332,272,935,262,950,603,493,738,872,357,708,880,296,773,955,289,198,145,065,518,628,864"
                            },
                            {
                                "name": "from",
                                "type": "address",
                                "value": "0x7d510f661f490482fbff45275b00a82f5f69f784"
                            },
                            {
                                "name": "to",
                                "type": "address",
                                "value": "0x795e67cea58a6191187a9c92d9a58bb37bcc116f"
                            },
                            {
                                "name": "amount",
                                "type": "uint256",
                                "value": "1"
                            }
                        ],
                        "signature": "Transfer(uint256,address,address,uint256)"
                    },
                    "id": 9,
                    "logData": "0x0000000000000000000000000000000000000000000000000000000000000001",
                    "logDecoded": true,
                    "operation": "EVENT",
                    "revert": false,
                    "status": true,
                    "topics": [
                        "0xf2dbd98d79f00f7aff338b824931d607bfcc63d47307162470f25a055102d3b0",
                        "0x10000000000006ac000000000000000000000000000000000000000000000000",
                        "0x0000000000000000000000007d510f661f490482fbff45275b00a82f5f69f784",
                        "0x000000000000000000000000795e67cea58a6191187a9c92d9a58bb37bcc116f"
                    ]
                },
                "nodeType": 1
            }
        },
        "gasFlame": [
            {
                "children": [
                    {
                        "children": [
                            {
                                "children": [],
                                "depth": 0,
                                "name": "Initial Gas",
                                "value": 24472
                            },
                            {
                                "children": [
                                    {
                                        "children": [
                                            {
                                                "children": [],
                                                "depth": 2,
                                                "name": "0x73007500",
                                                "value": 1582
                                            },
                                            {
                                                "children": [],
                                                "depth": 2,
                                                "name": "getCreator",
                                                "value": 2897
                                            },
                                            {
                                                "children": [],
                                                "depth": 2,
                                                "name": "0xffaf6633",
                                                "value": 14720
                                            },
                                            {
                                                "children": [],
                                                "depth": 2,
                                                "name": "0x73007500",
                                                "value": 1582
                                            },
                                            {
                                                "children": [],
                                                "depth": 2,
                                                "name": "getCreator",
                                                "value": 2897
                                            },
                                            {
                                                "children": [],
                                                "depth": 2,
                                                "name": "0xffaf6633",
                                                "value": 14720
                                            }
                                        ],
                                        "depth": 1,
                                        "name": "0xeb3b43dd",
                                        "value": 55849
                                    }
                                ],
                                "depth": 0,
                                "name": "Executed Gas",
                                "value": 59804
                            }
                        ],
                        "depth": -1,
                        "name": "Actual Gas Used",
                        "value": 84276
                    },
                    {
                        "children": [],
                        "depth": -1,
                        "name": "Refunded Gas",
                        "value": 0
                    }
                ],
                "depth": -2,
                "name": "Total Gas",
                "value": 84276
            }
        ],
        "isConfirmed": true,
        "mainTrace": [
            {
                "children": [
                    {
                        "children": [
                            {
                                "children": [
                                    {
                                        "children": [],
                                        "depth": 2,
                                        "id": 2,
                                        "order": 2
                                    },
                                    {
                                        "children": [],
                                        "depth": 2,
                                        "id": 3,
                                        "order": 3
                                    },
                                    {
                                        "children": [],
                                        "depth": 2,
                                        "id": 4,
                                        "order": 4
                                    },
                                    {
                                        "children": [],
                                        "depth": 2,
                                        "id": 5,
                                        "order": 5
                                    },
                                    {
                                        "children": [],
                                        "depth": 2,
                                        "id": 6,
                                        "order": 6
                                    },
                                    {
                                        "children": [],
                                        "depth": 2,
                                        "id": 7,
                                        "order": 7
                                    },
                                    {
                                        "children": [],
                                        "depth": 2,
                                        "id": 8,
                                        "order": 8
                                    },
                                    {
                                        "children": [],
                                        "depth": 2,
                                        "id": 9,
                                        "order": 9
                                    }
                                ],
                                "depth": 1,
                                "id": 1,
                                "order": 1
                            }
                        ],
                        "depth": 0,
                        "id": 0,
                        "order": 0
                    }
                ],
                "depth": -1,
                "id": -1,
                "order": -1
            }
        ],
        "mainTraceNodeCount": 10,
        "parentIdMap": {
            "0": -1,
            "1": 0,
            "2": 1,
            "3": 1,
            "4": 1,
            "5": 1,
            "6": 1,
            "7": 1,
            "8": 1,
            "9": 1
        },
        "tidyTrace": [
            {
                "children": [
                    {
                        "children": [
                            {
                                "children": [
                                    {
                                        "children": [],
                                        "depth": 2,
                                        "id": 2,
                                        "order": 2
                                    },
                                    {
                                        "children": [],
                                        "depth": 2,
                                        "id": 3,
                                        "order": 3
                                    },
                                    {
                                        "children": [],
                                        "depth": 2,
                                        "id": 4,
                                        "order": 4
                                    },
                                    {
                                        "children": [],
                                        "depth": 2,
                                        "id": 5,
                                        "order": 5
                                    },
                                    {
                                        "children": [],
                                        "depth": 2,
                                        "id": 6,
                                        "order": 6
                                    },
                                    {
                                        "children": [],
                                        "depth": 2,
                                        "id": 7,
                                        "order": 7
                                    },
                                    {
                                        "children": [],
                                        "depth": 2,
                                        "id": 8,
                                        "order": 8
                                    },
                                    {
                                        "children": [],
                                        "depth": 2,
                                        "id": 9,
                                        "order": 9
                                    }
                                ],
                                "depth": 1,
                                "id": 1,
                                "order": 1
                            }
                        ],
                        "depth": 0,
                        "id": 0,
                        "order": 0
                    }
                ],
                "depth": -1,
                "id": -1,
                "order": -1
            }
        ],
        "tidyTraceNodeCount": 10
    },
    "state_change": {
        "stateChanges": [
            {
                "address": "0x4e643a25a64952895f553f20252861258727174e",
                "erc": "",
                "slots": [
                    {
                        "current": "0x000000000000000000000000000000000000000000000000000000000000000e",
                        "key": "0x2fbd0b9c68a2491f36846020990d41e3f31aacbd365e5bf4cb6e8a707ceb5a84",
                        "prev": "0x000000000000000000000000000000000000000000000000000000000000000d"
                    },
                    {
                        "current": "0x00000000000000000000000000000000000000000000000000000000000003ac",
                        "key": "0xfc1419f7b1ca2e6b48669ad0002fc34987f02ee45775c1c6660bdf1680887c9f",
                        "prev": "0x00000000000000000000000000000000000000000000000000000000000003ad"
                    },
                    {
                        "current": "0x0000000000000000000000000000000000000000000000000000000000000003",
                        "key": "0xe481c0552f8291d0bf05c112fc7f863c2710e127f2c1cf0b37df5c07709541d4",
                        "prev": "0x0000000000000000000000000000000000000000000000000000000000000002"
                    },
                    {
                        "current": "0x0000000000000000000000000000000000000000000000000000000000000758",
                        "key": "0x465e011c5e6a30b8fa4f1acc4153eb59617b5adc0ac4060c87fdf21285b43c81",
                        "prev": "0x0000000000000000000000000000000000000000000000000000000000000759"
                    }
                ],
                "storageVariables": []
            }
        ]
    }
}