{
    "balance_change": {
        "balanceChanges": [
            {
                "account": "0xe3eed8a2a4cf4dd5628357b35d4f49bd68540f6b",
                "assets": [
                    {
                        "address": "0x20f7a3ddf244dc9299975b4da1c39f8d5d75f05a",
                        "amount": "8,645.04",
                        "iconUrl": "https://assets.blocksec.com/icon/a02638eff965fdfaf9b2bdf8c0a0a61cfbbc70c73a170d8a91b2e78c4cf1fd08.png",
                        "isERC1155": false,
                        "isERC721": false,
                        "sign": false,
                        "value": ""
                    }
                ]
            },
            {
                "account": "0x2a0c0dbecc7e4d658f48e01e3fa353f44050c208",
                "assets": [
                    {
                        "address": "0x20f7a3ddf244dc9299975b4da1c39f8d5d75f05a",
                        "amount": "8,645.04",
                        "iconUrl": "https://assets.blocksec.com/icon/a02638eff965fdfaf9b2bdf8c0a0a61cfbbc70c73a170d8a91b2e78c4cf1fd08.png",
                        "isERC1155": false,
                        "isERC721": false,
                        "sign": true,
                        "value": ""
                    }
                ]
            }
        ]
    },
    "profile": {
        "basic_info": {
            "baseFee": "",
            "blockNumber": 10073783,
            "callData": "0x338b5dea00000000000000000000000020f7a3ddf244dc9299975b4da1c39f8d5d75f05a000000000000000000000000000000000000000000000000000000020348d780",
            "debugEnable": true,
            "errorInfo": "",
            "eventCount": 2,
            "feeRecipient": "0xda466bf1ce3c69dbef918817305cf989a6353423",
            "formatValue": "0",
            "gasLimit": 250000,
            "gasPrice": "5",
            "gasUsed": 54070,
            "intTxnCount": 2,
            "internalRevert": false,
            "internalRevertMessage": "",
            "isContractCreation": false,
            "isFlashloan": false,
            "maxFee": "",
            "nonce": 143,
            "overwritedBlockNumber": -1,
            "priorityFee": "",
            "receiver": "0x2a0c0dbecc7e4d658f48e01e3fa353f44050c208",
            "revertMessage": "",
            "sender": "0xe3eed8a2a4cf4dd5628357b35d4f49bd68540f6b",
            "simulationEnable": true,
            "sourceTxnHash": "0x7774d027be1acf35b88688a4de31052a3e042d362f50f67871c619d5934b76a9",
            "status": true,
            "timestamp": "2020-05-15T23:59:08Z",
            "transactionFee": "0.00027035",
            "txnHash": "0x7774d027be1acf35b88688a4de31052a3e042d362f50f67871c619d5934b76a9",
            "txnIndex": 97,
            "type": 0,
            "value": "0"
        },
        "fund_flow": [
            {
                "amount": "8,645.04",
                "from": "0xe3eed8a2a4cf4dd5628357b35d4f49bd68540f6b",
                "id": 1,
                "isERC1155": false,
                "isERC721": false,
                "isReverted": false,
                "order": 1,
                "to": "0x2a0c0dbecc7e4d658f48e01e3fa353f44050c208",
                "token": "0x20f7a3ddf244dc9299975b4da1c39f8d5d75f05a"
            }
        ],
        "token_infos": [
            {
                "address": "0x20f7a3ddf244dc9299975b4da1c39f8d5d75f05a",
                "decimals": 6
            },
            {
                "address": "0xc02aaa39b223fe8d0a0e5c4f27ead9083c756cc2",
                "decimals": 18
            },
            {
                "address": "0xeeeeeeeeeeeeeeeeeeeeeeeeeeeeeeeeeeeeeeee",
                "decimals": 18
            }
        ]
    },
    "address_label": {
        "labels": [
            {
                "address": "0xeeeeeeeeeeeeeeeeeeeeeeeeeeeeeeeeeeeeeeee",
                "label": "Ether"
            },
            {
                "address": "0x20f7a3ddf244dc9299975b4da1c39f8d5d75f05a",
                "label": "Sapien Network Token"
            },
            {
                "address": "0x2a0c0dbecc7e4d658f48e01e3fa353f44050c208",
                "label": "IDEX"
            },
            {
                "address": "0x0000000000000000000000000000000000000001",
                "label": "Precompiled"
            },
            {
                "address": "0x0000000000000000000000000000000000000002",
                "label": "Precompiled"
            },
            {
                "address": "0x0000000000000000000000000000000000000003",
                "label": "Precompiled"
            },
            {
                "address": "0x0000000000000000000000000000000000000004",
                "label": "Precompiled"
            }
        ]
    },
    "trace": {
        "accountLabels": null,
        "dataMap": {
            "-1": {
                "invocation": {
                    "address": "0xe3eed8a2a4cf4dd5628357b35d4f49bd68540f6b",
                    "callData": "",
                    "decodedMethod": null,
                    "errorInfo": "",
                    "fromAddress": "",
                    "gasUsed": 0,
                    "id": -1,
                    "methodDecoded": false,
                    "operation": "",
                    "output": "",
                    "revert": false,
                    "revertMessage": "",
                    "selector": "",
                    "status": false,
                    "value": ""
                },
                "nodeType": 0
            },
            "0": {
                "invocation": {
                    "address": "0x2a0c0dbecc7e4d658f48e01e3fa353f44050c208",
                    "callData": "0x00000000000000000000000020f7a3ddf244dc9299975b4da1c39f8d5d75f05a000000000000000000000000000000000000000000000000000000020348d780",
                    "decodedMethod": {
                        "callParams": [
                            {
                                "name": "token",
                                "type": "address",
                                "value": "0x20f7a3ddf244dc9299975b4da1c39f8d5d75f05a"
                            },
                            {
                                "name": "amount",
                                "type": "uint256",
                                "value": "8,645,040,000"
                            }
                        ],
                        "constructorArguments": "",
                        "name": "depositToken",
                        "returnParams": [],
                        "signature": "depositToken(address,uint256)"
                    },
                    "errorInfo": "",
                    "fromAddress": "0xe3eed8a2a4cf4dd5628357b35d4f49bd68540f6b",
                    "gasUsed": 54070,
                    "id": 0,
                    "methodDecoded": true,
                    "operation": "CALL",
                    "output": "",
                    "revert": false,
                    "revertMessage": "",
                    "selector": "0x338b5dea",
                    "status": true,
                    "value": "0"
                },
                "nodeType": 0
            },
            "1": {
                "invocation": {
                    "address": "0x20f7a3ddf244dc9299975b4da1c39f8d5d75f05a",
                    "callData": "0x000000000000000000000000e3eed8a2a4cf4dd5628357b35d4f49bd68540f6b0000000000000000000000002a0c0dbecc7e4d658f48e01e3fa353f44050c208000000000000000000000000000000000000000000000000000000020348d780",
                    "decodedMethod": {
                        "callParams": [
                            {
                                "name": "_from",
                                "type": "address",
                                "value": "0xe3eed8a2a4cf4dd5628357b35d4f49bd68540f6b"
                            },
                            {
                                "name": "_to",
                                "type": "address",
                                "value": "0x2a0c0dbecc7e4d658f48e01e3fa353f44050c208"
                            },
                            {
                                "decimalAvailable": true,
                                "name": "_value",
                                "type": "uint256",
                                "value": "8,645,040,000"
                            }
                        ],
                        "constructorArguments": "",
                        "name": "transferFrom",
                        "returnParams": [
                            {
                                "name": "",
                                "type": "bool",
                                "value": true
                            }
                        ],
                        "signature": "transferFrom(address,address,uint256)"
                    },
                    "errorInfo": "",
                    "fromAddress": "0x2a0c0dbecc7e4d658f48e01e3fa353f44050c208",
                    "gasUsed": 30771,
                    "id": 1,
                    "methodDecoded": true,
                    "operation": "CALL",
                    "output": "0x0000000000000000000000000000000000000000000000000000000000000001",
                    "revert": false,
                    "revertMessage": "",
                    "selector": "0x23b872dd",
                    "status": true,
                    "value": "0"
                },
                "nodeType": 0
            },
            "2": {
                "invocation": {
                    "address": "0x5da638616dcbf1e5c174e6e0c538f672fd94f59f",
                    "callData": "0x0000000000000000000000002a0c0dbecc7e4d658f48e01e3fa353f44050c208000000000000000000000000e3eed8a2a4cf4dd5628357b35d4f49bd68540f6b0000000000000000000000002a0c0dbecc7e4d658f48e01e3fa353f44050c208000000000000000000000000000000000000000000000000000000020348d78000000000000000000000000000000000000000000000000000000000000000a00000000000000000000000000000000000000000000000000000000000000000",
                    "decodedMethod": {
                        "callParams": [
                            {
                                "name": "",
                                "type": "address",
                                "value": "0x2a0c0dbecc7e4d658f48e01e3fa353f44050c208"
                            },
                            {
                                "name": "_from",
                                "type": "address",
                                "value": "0xe3eed8a2a4cf4dd5628357b35d4f49bd68540f6b"
                            },
                            {
                                "name": "",
                                "type": "address",
                                "value": "0x2a0c0dbecc7e4d658f48e01e3fa353f44050c208"
                            },
                            {
                                "name": "",
                                "type": "uint256",
                                "value": "8,645,040,000"
                            },
                            {
                                "name": "",
                                "type": "bytes",
                                "value": "0x"
                            }
                        ],
                        "constructorArguments": "",
                        "name": "allowTransfer",
                        "returnParams": [
                            {
                                "name": "",
                                "type": "bool",
                                "value": true
                            }
                        ],
                        "signature": "allowTransfer(address,address,address,uint256,bytes)"
                    },
                    "errorInfo": "",
                    "fromAddress": "0x20f7a3ddf244dc9299975b4da1c39f8d5d75f05a",
                    "gasUsed": 4379,
                    "id": 2,
                    "methodDecoded": true,
                    "operation": "CALL",
                    "output": "0x0000000000000000000000000000000000000000000000000000000000000001",
                    "revert": false,
                    "revertMessage": "",
                    "selector": "0xb7db7f0f",
                    "status": true,
                    "value": "0"
                },
                "nodeType": 0
            },
            "3": {
                "event": {
                    "contract": "0x20f7a3ddf244dc9299975b4da1c39f8d5d75f05a",
                    "decodedLog": {
                        "name": "Transfer",
                        "params": [
                            {
                                "name": "from",
                                "type": "address",
                                "value": "0xe3eed8a2a4cf4dd5628357b35d4f49bd68540f6b"
                            },
                            {
                                "name": "to",
                                "type": "address",
                                "value": "0x2a0c0dbecc7e4d658f48e01e3fa353f44050c208"
                            },
                            {
                                "decimalAvailable": true,
                                "name": "value",
                                "type": "uint256",
                                "value": "8,645,040,000"
                            }
                        ],
                        "signature": "Transfer(address,address,uint256)"
                    },
                    "id": 3,
                    "logData": "0x000000000000000000000000000000000000000000000000000000020348d780",
                    "logDecoded": true,
                    "operation": "EVENT",
                    "revert": false,
                    "status": true,
                    "topics": [
                        "0xddf252ad1be2c89b69c2b068fc378daa952ba7f163c4a11628f55a4df523b3ef",
                        "0x000000000000000000000000e3eed8a2a4cf4dd5628357b35d4f49bd68540f6b",
                        "0x0000000000000000000000002a0c0dbecc7e4d658f48e01e3fa353f44050c208"
                    ]
                },
                "nodeType": 1
            },
            "4": {
                "event": {
                    "contract": "0x2a0c0dbecc7e4d658f48e01e3fa353f44050c208",
                    "decodedLog": {
                        "name": "Deposit",
                        "params": [
                            {
                                "name": "token",
                                "type": "address",
                                "value": "0x20f7a3ddf244dc9299975b4da1c39f8d5d75f05a"
                            },
                            {
                                "name": "user",
                                "type": "address",
                                "value": "0xe3eed8a2a4cf4dd5628357b35d4f49bd68540f6b"
                            },
                            {
                                "name": "amount",
                                "type": "uint256",
                                "value": "8,645,040,000"
                            },
                            {
                                "name": "balance",
                                "type": "uint256",
                                "value": "8,645,040,000"
                            }
                        ],
                        "signature": "Deposit(address,address,uint256,uint256)"
                    },
                    "id": 4,
                    "logData": "0x00000000000000000000000020f7a3ddf244dc9299975b4da1c39f8d5d75f05a000000000000000000000000e3eed8a2a4cf4dd5628357b35d4f49bd68540f6b000000000000000000000000000000000000000000000000000000020348d780000000000000000000000000000000000000000000000000000000020348d780",
                    "logDecoded": true,
                    "operation": "EVENT",
                    "revert": false,
                    "status": true,
                    "topics": [
                        "0xdcbc1c05240f31ff3ad067ef1ee35ce4997762752e3a095284754544f4c709d7"
                    ]
                },
                "nodeType": 1
            }
        },
        "gasFlame": [
            {
                "children": [
                    {
                        "children": [
                            {
                                "children": [],
                                "depth": 0,
                                "name": "Initial Gas",
                                "value": 21620
                            },
                            {
                                "children": [
                                    {
                                        "children": [
                                            {
                                                "children": [],
                                                "depth": 2,
                                                "name": "allowTransfer",
                                                "value": 4379
                                            }
                                        ],
                                        "depth": 1,
                                        "name": "transferFrom",
                                        "value": 30771
                                    }
                                ],
                                "depth": 0,
                                "name": "Executed Gas",
                                "value": 62450
                            }
                        ],
                        "depth": -1,
                        "name": "Actual Gas Used",
                        "value": 54070
                    },
                    {
                        "children": [],
                        "depth": -1,
                        "name": "Refunded Gas",
                        "value": 30000
                    }
                ],
                "depth": -2,
                "name": "Total Gas",
                "value": 84070
            }
        ],
        "isConfirmed": true,
        "mainTrace": [
            {
                "children": [
                    {
                        "children": [
                            {
                                "children": [
                                    {
                                        "children": [],
                                        "depth": 2,
                                        "id": 2,
                                        "order": 2
                                    },
                                    {
                                        "children": [],
                                        "depth": 2,
                                        "id": 3,
                                        "order": 3
                                    }
                                ],
                                "depth": 1,
                                "id": 1,
                                "order": 1
                            },
                            {
                                "children": [],
                                "depth": 1,
                                "id": 4,
                                "order": 4
                            }
                        ],
                        "depth": 0,
                        "id": 0,
                        "order": 0
                    }
                ],
                "depth": -1,
                "id": -1,
                "order": -1
            }
        ],
        "mainTraceNodeCount": 5,
        "parentIdMap": {
            "0": -1,
            "1": 0,
            "2": 1,
            "3": 1,
            "4": 0
        },
        "tidyTrace": [
            {
                "children": [
                    {
                        "children": [
                            {
                                "children": [
                                    {
                                        "children": [],
                                        "depth": 2,
                                        "id": 2,
                                        "order": 2
                                    },
                                    {
                                        "children": [],
                                        "depth": 2,
                                        "id": 3,
                                        "order": 3
                                    }
                                ],
                                "depth": 1,
                                "id": 1,
                                "order": 1
                            },
                            {
                                "children": [],
                                "depth": 1,
                                "id": 4,
                                "order": 4
                            }
                        ],
                        "depth": 0,
                        "id": 0,
                        "order": 0
                    }
                ],
                "depth": -1,
                "id": -1,
                "order": -1
            }
        ],
        "tidyTraceNodeCount": 5
    },
    "state_change": {
        "stateChanges": [
            {
                "address": "0x20f7a3ddf244dc9299975b4da1c39f8d5d75f05a",
                "erc": "ERC-20",
                "slots": [
                    {
                        "current": "0x0000000000000000000000000000000000000000000000000000000000000000",
                        "key": "0xd01075abf5ed800c90e1da1eaab49935d632a65b7589ad242bb518d5ed677328",
                        "prev": "0x000000000000000000000000000000000000000000000000000000020348d780"
                    },
                    {
                        "current": "0x0000000000000000000000000000000000000000000000000000000000000000",
                        "key": "0xca5890cc06d89408e265fbdfc281fbce58a34c291fd685621a99842117a4d6e1",
                        "prev": "0x000000000000000000000000000000000000000000000000000000020348d780"
                    },
                    {
                        "current": "0x0000000000000000000000000000000000000000000000000000106a43df9de4",
                        "key": "0xf1422a95130756a1ec090bcbf2c53d7e9ed83b89b668d3788cf61dc65d32590b",
                        "prev": "0x000000000000000000000000000000000000000000000000000010684096c664"
                    }
                ],
                "storageVariables": [
                    {
                        "name": "balances",
                        "type": "mapping(address => uint256)",
                        "value": {
                            "pairs": [
                                {
                                    "key": "0x2a0c0dbecc7e4d658f48e01e3fa353f44050c208",
                                    "value": {
                                        "current": "18048591306212",
                                        "prev": "18039946266212",
                                        "typeTag": 1
                                    }
                                },
                                {
                                    "key": "0xe3eed8a2a4cf4dd5628357b35d4f49bd68540f6b",
                                    "value": {
                                        "current": "0",
                                        "prev": "8645040000",
                                        "typeTag": 1
                                    }
                                }
                            ],
                            "typeTag": 4
                        }
                    },
                    {
                        "name": "allowed",
                        "type": "mapping(address => mapping(address => uint256))",
                        "value": {
                            "pairs": [
                                {
                                    "key": "0xe3eed8a2a4cf4dd5628357b35d4f49bd68540f6b",
                                    "value": {
                                        "pairs": [
                                            {
                                                "key": "0x2a0c0dbecc7e4d658f48e01e3fa353f44050c208",
                                                "value": {
                                                    "current": "0",
                                                    "prev": "8645040000",
                                                    "typeTag": 1
                                                }
                                            }
                                        ],
                                        "typeTag": 4
                                    }
                                }
                            ],
                            "typeTag": 4
                        }
                    }
                ]
            },
            {
                "address": "0x2a0c0dbecc7e4d658f48e01e3fa353f44050c208",
                "erc": "",
                "slots": [
                    {
                        "current": "0x000000000000000000000000000000000000000000000000000000020348d780",
                        "key": "0xe6190a622a781be32ace0c0cab3a3e204c59647c3507724e185c18455bb9eb5e",
                        "prev": "0x0000000000000000000000000000000000000000000000000000000000000000"
                    },
                    {
                        "current": "0x000000000000000000000000000000000000000000000000000000000099b6b7",
                        "key": "0xa5198a5048b86ee6cd88922be91a81572938fe5d2fdbc464a61b5c70ec623b01",
                        "prev": "0x00000000000000000000000000000000000000000000000000000000009997a2"
                    }
                ],
                "storageVariables": [
                    {
                        "name": "lastActiveTransaction",
                        "type": "mapping(address => uint256)",
                        "value": {
                            "pairs": [
                                {
                                    "key": "0xe3eed8a2a4cf4dd5628357b35d4f49bd68540f6b",
                                    "value": {
                                        "current": "10073783",
                                        "prev": "10065826",
                                        "typeTag": 1
                                    }
                                }
                            ],
                            "typeTag": 4
                        }
                    },
                    {
                        "name": "tokens",
                        "type": "mapping(address => mapping(address => uint256))",
                        "value": {
                            "pairs": [
                                {
                                    "key": "0x20f7a3ddf244dc9299975b4da1c39f8d5d75f05a",
                                    "value": {
                                        "pairs": [
                                            {
                                                "key": "0xe3eed8a2a4cf4dd5628357b35d4f49bd68540f6b",
                                                "value": {
                                                    "current": "8645040000",
                                                    "prev": "0",
                                                    "typeTag": 1
                                                }
                                            }
                                        ],
                                        "typeTag": 4
                                    }
                                }
                            ],
                            "typeTag": 4
                        }
                    }
                ]
            }
        ]
    }
}