{
    "balance_change": {
        "balanceChanges": []
    },
    "profile": {
        "basic_info": {
            "baseFee": "43.643693176",
            "blockNumber": 13809702,
            "callData": "0xab834bab0000000000000000000000007be8076f4ea4a4ad08075c2508e481d6c946d12b000000000000000000000000169ddf73cb8bdf6f6db0254031a186f9b129337000000000000000000000000013c3258823ff9c506cb72291672dc9ea1e5517e40000000000000000000000000000000000000000000000000000000000000000000000000000000000000000d9c036e9eef725e5aca4a22239a23feb47c3f05d000000000000000000000000000000000000000000000000000000000000000000000000000000000000000000000000000000000000000000000000000000000000000000000000000000007be8076f4ea4a4ad08075c2508e481d6c946d12b00000000000000000000000013c3258823ff9c506cb72291672dc9ea1e5517e400000000000000000000000000000000000000000000000000000000000000000000000000000000000000005b3256965e7c3cf26e11fcaf296dfc8807c01073000000000000000000000000d9c036e9eef725e5aca4a22239a23feb47c3f05d0000000000000000000000000000000000000000000000000000000000000000000000000000000000000000000000000000000000000000000000000000000000000000000000000000000000000000000000000000000000000000000003e8000000000000000000000000000000000000000000000000000000000000000000000000000000000000000000000000000000000000000000000000000000000000000000000000000000000000000000000000000000000000000000000000000000000000000000000000000000000000000000000000013fbe85edc9000000000000000000000000000000000000000000000000000000000000000000000000000000000000000000000000000000000000000000000000000061b9dce00000000000000000000000000000000000000000000000000000000000000000c1b887417b492c90f36719611fac5fd81bc2837f93c253604de29cff9e03eac000000000000000000000000000000000000000000000000000000000000003e8000000000000000000000000000000000000000000000000000000000000000000000000000000000000000000000000000000000000000000000000000000000000000000000000000000000000000000000000000000000000000000000000000000000000000000000000000000000000000000000000013fbe85edc9000000000000000000000000000000000000000000000000000000000000000000000000000000000000000000000000000000000000000000000000000061b9dabe0000000000000000000000000000000000000000000000000000000061c3159ad0b5627dac504386da7f25347a1ba795c9a3865834151034baf7b3d7a4f6b6d20000000000000000000000000000000000000000000000000000000000000001000000000000000000000000000000000000000000000000000000000000000000000000000000000000000000000000000000000000000000000000000000000000000000000000000000000000000000000000000000000000000000000000000000000000000000000000000000000000000000000000000000000000000100000000000000000000000000000000000000000000000000000000000000010000000000000000000000000000000000000000000000000000000000000000000000000000000000000000000000000000000000000000000000000000000000000000000000000000000000000000000000000000000000000000000006a0000000000000000000000000000000000000000000000000000000000000074000000000000000000000000000000000000000000000000000000000000007e0000000000000000000000000000000000000000000000000000000000000088000000000000000000000000000000000000000000000000000000000000009200000000000000000000000000000000000000000000000000000000000000940000000000000000000000000000000000000000000000000000000000000001b000000000000000000000000000000000000000000000000000000000000001b602a1695afe6d39918f8f135c4a28b09eb6983ca361e0308dcf0fc4834d314c551cef4cf39225b6a62a803bb0f847183f600acd860d19b3660b0c7a4114356d5602a1695afe6d39918f8f135c4a28b09eb6983ca361e0308dcf0fc4834d314c551cef4cf39225b6a62a803bb0f847183f600acd860d19b3660b0c7a4114356d50000000000000000000000000000000000000000000000000000000000000000000000000000000000000000000000000000000000000000000000000000006423b872dd0000000000000000000000000000000000000000000000000000000000000000000000000000000000000000169ddf73cb8bdf6f6db0254031a186f9b1293370000000000000000000000000000000000000000000000000000000000000186500000000000000000000000000000000000000000000000000000000000000000000000000000000000000000000000000000000000000000000006423b872dd00000000000000000000000013c3258823ff9c506cb72291672dc9ea1e5517e40000000000000000000000000000000000000000000000000000000000000000000000000000000000000000000000000000000000000000000000000000186500000000000000000000000000000000000000000000000000000000000000000000000000000000000000000000000000000000000000000000006400000000ffffffffffffffffffffffffffffffffffffffffffffffffffffffffffffffff00000000000000000000000000000000000000000000000000000000000000000000000000000000000000000000000000000000000000000000000000000000000000000000000000000000000000000000000000000000000000000000000000000000000000000000000000000000000000000000000000000064000000000000000000000000000000000000000000000000000000000000000000000000ffffffffffffffffffffffffffffffffffffffffffffffffffffffffffffffff00000000000000000000000000000000000000000000000000000000000000000000000000000000000000000000000000000000000000000000000000000000000000000000000000000000000000000000000000000000000000000000000000000000000000000000000000000000000000000000000000000000",
            "debugEnable": true,
            "errorInfo": "execution reverted",
            "eventCount": 0,
            "feeRecipient": "0x829bd824b016326a401d083b33d092293333a830",
            "formatValue": "0.09",
            "gasLimit": 316963,
            "gasPrice": "45.143693176",
            "gasUsed": 64700,
            "intTxnCount": 0,
            "internalRevert": false,
            "internalRevertMessage": "",
            "isContractCreation": false,
            "isFlashloan": false,
            "maxFee": "52.080736791",
            "nonce": 277,
            "overwritedBlockNumber": -1,
            "priorityFee": "1.5",
            "receiver": "0x7be8076f4ea4a4ad08075c2508e481d6c946d12b",
            "revertMessage": "",
            "sender": "0x169ddf73cb8bdf6f6db0254031a186f9b1293370",
            "simulationEnable": true,
            "sourceTxnHash": "0x77799b212f62d4f51a03b33214e36ef63fb99e0abd457982fbe19fe6a0dd8759",
            "status": false,
            "timestamp": "2021-12-15T12:26:03Z",
            "transactionFee": "0.0029207969484872",
            "txnHash": "0x77799b212f62d4f51a03b33214e36ef63fb99e0abd457982fbe19fe6a0dd8759",
            "txnIndex": 324,
            "type": 2,
            "value": "90000000000000000"
        },
        "fund_flow": [],
        "token_infos": [
            {
                "address": "0xc02aaa39b223fe8d0a0e5c4f27ead9083c756cc2",
                "decimals": 18
            },
            {
                "address": "0xeeeeeeeeeeeeeeeeeeeeeeeeeeeeeeeeeeeeeeee",
                "decimals": 18
            }
        ]
    },
    "address_label": {
        "labels": [
            {
                "address": "0x5b3256965e7c3cf26e11fcaf296dfc8807c01073",
                "label": "OpenSea: Wallet"
            },
            {
                "address": "0x0000000000000000000000000000000000000001",
                "label": "Precompiled"
            },
            {
                "address": "0x0000000000000000000000000000000000000002",
                "label": "Precompiled"
            },
            {
                "address": "0x0000000000000000000000000000000000000004",
                "label": "Precompiled"
            },
            {
                "address": "0xeeeeeeeeeeeeeeeeeeeeeeeeeeeeeeeeeeeeeeee",
                "label": "Ether"
            },
            {
                "address": "0x7be8076f4ea4a4ad08075c2508e481d6c946d12b",
                "label": "OpenSea: Wyvern Exchange v1"
            },
            {
                "address": "0xd9c036e9eef725e5aca4a22239a23feb47c3f05d",
                "label": "Token Contract"
            },
            {
                "address": "0x0000000000000000000000000000000000000000",
                "label": "Null Address"
            },
            {
                "address": "0x0000000000000000000000000000000000000003",
                "label": "Precompiled"
            }
        ]
    },
    "trace": {
        "accountLabels": null,
        "dataMap": {
            "-1": {
                "invocation": {
                    "address": "0x169ddf73cb8bdf6f6db0254031a186f9b1293370",
                    "callData": "",
                    "decodedMethod": null,
                    "errorInfo": "",
                    "fromAddress": "",
                    "gasUsed": 0,
                    "id": -1,
                    "methodDecoded": false,
                    "operation": "",
                    "output": "",
                    "revert": false,
                    "revertMessage": "",
                    "selector": "",
                    "status": false,
                    "value": ""
                },
                "nodeType": 0
            },
            "0": {
                "invocation": {
                    "address": "0x7be8076f4ea4a4ad08075c2508e481d6c946d12b",
                    "callData": "0x0000000000000000000000007be8076f4ea4a4ad08075c2508e481d6c946d12b000000000000000000000000169ddf73cb8bdf6f6db0254031a186f9b129337000000000000000000000000013c3258823ff9c506cb72291672dc9ea1e5517e40000000000000000000000000000000000000000000000000000000000000000000000000000000000000000d9c036e9eef725e5aca4a22239a23feb47c3f05d000000000000000000000000000000000000000000000000000000000000000000000000000000000000000000000000000000000000000000000000000000000000000000000000000000007be8076f4ea4a4ad08075c2508e481d6c946d12b00000000000000000000000013c3258823ff9c506cb72291672dc9ea1e5517e400000000000000000000000000000000000000000000000000000000000000000000000000000000000000005b3256965e7c3cf26e11fcaf296dfc8807c01073000000000000000000000000d9c036e9eef725e5aca4a22239a23feb47c3f05d0000000000000000000000000000000000000000000000000000000000000000000000000000000000000000000000000000000000000000000000000000000000000000000000000000000000000000000000000000000000000000000003e8000000000000000000000000000000000000000000000000000000000000000000000000000000000000000000000000000000000000000000000000000000000000000000000000000000000000000000000000000000000000000000000000000000000000000000000000000000000000000000000000013fbe85edc9000000000000000000000000000000000000000000000000000000000000000000000000000000000000000000000000000000000000000000000000000061b9dce00000000000000000000000000000000000000000000000000000000000000000c1b887417b492c90f36719611fac5fd81bc2837f93c253604de29cff9e03eac000000000000000000000000000000000000000000000000000000000000003e8000000000000000000000000000000000000000000000000000000000000000000000000000000000000000000000000000000000000000000000000000000000000000000000000000000000000000000000000000000000000000000000000000000000000000000000000000000000000000000000000013fbe85edc9000000000000000000000000000000000000000000000000000000000000000000000000000000000000000000000000000000000000000000000000000061b9dabe0000000000000000000000000000000000000000000000000000000061c3159ad0b5627dac504386da7f25347a1ba795c9a3865834151034baf7b3d7a4f6b6d20000000000000000000000000000000000000000000000000000000000000001000000000000000000000000000000000000000000000000000000000000000000000000000000000000000000000000000000000000000000000000000000000000000000000000000000000000000000000000000000000000000000000000000000000000000000000000000000000000000000000000000000000000000100000000000000000000000000000000000000000000000000000000000000010000000000000000000000000000000000000000000000000000000000000000000000000000000000000000000000000000000000000000000000000000000000000000000000000000000000000000000000000000000000000000000006a0000000000000000000000000000000000000000000000000000000000000074000000000000000000000000000000000000000000000000000000000000007e0000000000000000000000000000000000000000000000000000000000000088000000000000000000000000000000000000000000000000000000000000009200000000000000000000000000000000000000000000000000000000000000940000000000000000000000000000000000000000000000000000000000000001b000000000000000000000000000000000000000000000000000000000000001b602a1695afe6d39918f8f135c4a28b09eb6983ca361e0308dcf0fc4834d314c551cef4cf39225b6a62a803bb0f847183f600acd860d19b3660b0c7a4114356d5602a1695afe6d39918f8f135c4a28b09eb6983ca361e0308dcf0fc4834d314c551cef4cf39225b6a62a803bb0f847183f600acd860d19b3660b0c7a4114356d50000000000000000000000000000000000000000000000000000000000000000000000000000000000000000000000000000000000000000000000000000006423b872dd0000000000000000000000000000000000000000000000000000000000000000000000000000000000000000169ddf73cb8bdf6f6db0254031a186f9b1293370000000000000000000000000000000000000000000000000000000000000186500000000000000000000000000000000000000000000000000000000000000000000000000000000000000000000000000000000000000000000006423b872dd00000000000000000000000013c3258823ff9c506cb72291672dc9ea1e5517e40000000000000000000000000000000000000000000000000000000000000000000000000000000000000000000000000000000000000000000000000000186500000000000000000000000000000000000000000000000000000000000000000000000000000000000000000000000000000000000000000000006400000000ffffffffffffffffffffffffffffffffffffffffffffffffffffffffffffffff00000000000000000000000000000000000000000000000000000000000000000000000000000000000000000000000000000000000000000000000000000000000000000000000000000000000000000000000000000000000000000000000000000000000000000000000000000000000000000000000000000064000000000000000000000000000000000000000000000000000000000000000000000000ffffffffffffffffffffffffffffffffffffffffffffffffffffffffffffffff00000000000000000000000000000000000000000000000000000000000000000000000000000000000000000000000000000000000000000000000000000000000000000000000000000000000000000000000000000000000000000000000000000000000000000000000000000000000000000000000000000000",
                    "decodedMethod": {
                        "callParams": [
                            {
                                "name": "addrs",
                                "type": "address[14]",
                                "value": [
                                    "0x7be8076f4ea4a4ad08075c2508e481d6c946d12b",
                                    "0x169ddf73cb8bdf6f6db0254031a186f9b1293370",
                                    "0x13c3258823ff9c506cb72291672dc9ea1e5517e4",
                                    "0x0000000000000000000000000000000000000000",
                                    "0xd9c036e9eef725e5aca4a22239a23feb47c3f05d",
                                    "0x0000000000000000000000000000000000000000",
                                    "0x0000000000000000000000000000000000000000",
                                    "0x7be8076f4ea4a4ad08075c2508e481d6c946d12b",
                                    "0x13c3258823ff9c506cb72291672dc9ea1e5517e4",
                                    "0x0000000000000000000000000000000000000000",
                                    "0x5b3256965e7c3cf26e11fcaf296dfc8807c01073",
                                    "0xd9c036e9eef725e5aca4a22239a23feb47c3f05d",
                                    "0x0000000000000000000000000000000000000000",
                                    "0x0000000000000000000000000000000000000000"
                                ]
                            },
                            {
                                "name": "uints",
                                "type": "uint256[18]",
                                "value": [
                                    "1,000",
                                    "0",
                                    "0",
                                    "0",
                                    "90,000,000,000,000,000",
                                    "0",
                                    "1,639,570,656",
                                    "0",
                                    "87,622,413,137,626,499,712,146,240,866,095,463,093,961,465,738,025,696,342,653,494,626,710,406,294,208",
                                    "1,000",
                                    "0",
                                    "0",
                                    "0",
                                    "90,000,000,000,000,000",
                                    "0",
                                    "1,639,570,110",
                                    "1,640,175,002",
                                    "94,401,551,583,326,347,983,863,525,783,628,017,081,962,485,178,617,760,704,081,662,008,425,602,004,690"
                                ]
                            },
                            {
                                "name": "feeMethodsSidesKindsHowToCalls",
                                "type": "uint8[8]",
                                "value": [
                                    "1",
                                    "0",
                                    "0",
                                    "0",
                                    "1",
                                    "1",
                                    "0",
                                    "0"
                                ]
                            },
                            {
                                "name": "calldataBuy",
                                "type": "bytes",
                                "value": "0x23b872dd0000000000000000000000000000000000000000000000000000000000000000000000000000000000000000169ddf73cb8bdf6f6db0254031a186f9b12933700000000000000000000000000000000000000000000000000000000000001865"
                            },
                            {
                                "name": "calldataSell",
                                "type": "bytes",
                                "value": "0x23b872dd00000000000000000000000013c3258823ff9c506cb72291672dc9ea1e5517e400000000000000000000000000000000000000000000000000000000000000000000000000000000000000000000000000000000000000000000000000001865"
                            },
                            {
                                "name": "replacementPatternBuy",
                                "type": "bytes",
                                "value": "0x00000000ffffffffffffffffffffffffffffffffffffffffffffffffffffffffffffffff00000000000000000000000000000000000000000000000000000000000000000000000000000000000000000000000000000000000000000000000000000000"
                            },
                            {
                                "name": "replacementPatternSell",
                                "type": "bytes",
                                "value": "0x000000000000000000000000000000000000000000000000000000000000000000000000ffffffffffffffffffffffffffffffffffffffffffffffffffffffffffffffff0000000000000000000000000000000000000000000000000000000000000000"
                            },
                            {
                                "name": "staticExtradataBuy",
                                "type": "bytes",
                                "value": "0x"
                            },
                            {
                                "name": "staticExtradataSell",
                                "type": "bytes",
                                "value": "0x"
                            },
                            {
                                "name": "vs",
                                "type": "uint8[2]",
                                "value": [
                                    "27",
                                    "27"
                                ]
                            },
                            {
                                "name": "rssMetadata",
                                "type": "bytes32[5]",
                                "value": [
                                    "0x602a1695afe6d39918f8f135c4a28b09eb6983ca361e0308dcf0fc4834d314c5",
                                    "0x51cef4cf39225b6a62a803bb0f847183f600acd860d19b3660b0c7a4114356d5",
                                    "0x602a1695afe6d39918f8f135c4a28b09eb6983ca361e0308dcf0fc4834d314c5",
                                    "0x51cef4cf39225b6a62a803bb0f847183f600acd860d19b3660b0c7a4114356d5",
                                    "0x0000000000000000000000000000000000000000000000000000000000000000"
                                ]
                            }
                        ],
                        "constructorArguments": "",
                        "name": "atomicMatch_",
                        "returnParams": [],
                        "signature": "atomicMatch_(address[14],uint256[18],uint8[8],bytes,bytes,bytes,bytes,bytes,bytes,uint8[2],bytes32[5])"
                    },
                    "errorInfo": "execution reverted",
                    "fromAddress": "0x169ddf73cb8bdf6f6db0254031a186f9b1293370",
                    "gasUsed": 64700,
                    "id": 0,
                    "methodDecoded": true,
                    "operation": "CALL",
                    "output": "",
                    "revert": true,
                    "revertMessage": "",
                    "selector": "0xab834bab",
                    "status": false,
                    "value": "0.09"
                },
                "nodeType": 0
            }
        },
        "gasFlame": [
            {
                "children": [
                    {
                        "children": [
                            {
                                "children": [],
                                "depth": 0,
                                "name": "Initial Gas",
                                "value": 36844
                            },
                            {
                                "children": [],
                                "depth": 0,
                                "name": "Executed Gas",
                                "value": 27856
                            }
                        ],
                        "depth": -1,
                        "name": "Actual Gas Used",
                        "value": 64700
                    },
                    {
                        "children": [],
                        "depth": -1,
                        "name": "Refunded Gas",
                        "value": 0
                    }
                ],
                "depth": -2,
                "name": "Total Gas",
                "value": 64700
            }
        ],
        "isConfirmed": true,
        "mainTrace": [
            {
                "children": [
                    {
                        "children": [],
                        "depth": 0,
                        "id": 0,
                        "order": 0
                    }
                ],
                "depth": -1,
                "id": -1,
                "order": -1
            }
        ],
        "mainTraceNodeCount": 1,
        "parentIdMap": {
            "0": -1
        },
        "tidyTrace": [
            {
                "children": [
                    {
                        "children": [],
                        "depth": 0,
                        "id": 0,
                        "order": 0
                    }
                ],
                "depth": -1,
                "id": -1,
                "order": -1
            }
        ],
        "tidyTraceNodeCount": 1
    },
    "state_change": {
        "stateChanges": []
    }
}