{
    "balance_change": {
        "balanceChanges": [
            {
                "account": "0x90e18a6920985dbacc3d76cf27a3f2131923c720",
                "assets": [
                    {
                        "address": "0xeeeeeeeeeeeeeeeeeeeeeeeeeeeeeeeeeeeeeeee",
                        "amount": "0.0000487063",
                        "iconUrl": "https://assets.blocksec.com/image/1663669189317-3.png",
                        "isERC1155": false,
                        "isERC721": false,
                        "sign": true,
                        "value": "0.059801108076999998228"
                    }
                ]
            },
            {
                "account": "0xc70b5db0cb30ad841afa399f282da19415b894c8",
                "assets": [
                    {
                        "address": "0xeeeeeeeeeeeeeeeeeeeeeeeeeeeeeeeeeeeeeeee",
                        "amount": "0.00487063",
                        "iconUrl": "https://assets.blocksec.com/image/1663669189317-3.png",
                        "isERC1155": false,
                        "isERC721": false,
                        "sign": false,
                        "value": "5.980110807699999823"
                    }
                ]
            },
            {
                "account": "0xdabe6b219a3f6119c9ac2ab1d8d86a0b80f36add",
                "assets": [
                    {
                        "address": "0xeeeeeeeeeeeeeeeeeeeeeeeeeeeeeeeeeeeeeeee",
                        "amount": "0.0048219237",
                        "iconUrl": "https://assets.blocksec.com/image/1663669189317-3.png",
                        "isERC1155": false,
                        "isERC721": false,
                        "sign": true,
                        "value": "5.9203096996229998246"
                    }
                ]
            }
        ]
    },
    "profile": {
        "basic_info": {
            "baseFee": "12.024944166",
            "blockNumber": 16136539,
            "callData": "0xe5ab4da2000000000000000000000000f69972b229b934d41918f97777c9fa98c636b406000000000000000000000000000000000000000000000000000000000000b669",
            "debugEnable": true,
            "errorInfo": "",
            "eventCount": 0,
            "feeRecipient": "0x95222290dd7278aa3ddd389cc1e1d165cc4bafe5",
            "formatValue": "0",
            "gasLimit": 250000,
            "gasPrice": "14.024944166",
            "gasUsed": 139877,
            "intTxnCount": 10,
            "internalRevert": false,
            "internalRevertMessage": "",
            "isContractCreation": false,
            "isFlashloan": false,
            "maxFee": "28",
            "nonce": 0,
            "overwritedBlockNumber": -1,
            "priorityFee": "2",
            "receiver": "0x881d4032abe4188e2237efcd27ab435e81fc6bb1",
            "revertMessage": "",
            "sender": "0x4bfa45d9c4dd3d309e3ee582758a282cb42b67e8",
            "simulationEnable": true,
            "sourceTxnHash": "0x779c95da6fe7cf047e0beefa451704dfe59d08f850c7411ef71f2ba20be6f2ff",
            "status": true,
            "timestamp": "2022-12-08T00:54:11Z",
            "transactionFee": "0.001961767115107582",
            "txnHash": "0x779c95da6fe7cf047e0beefa451704dfe59d08f850c7411ef71f2ba20be6f2ff",
            "txnIndex": 28,
            "type": 2,
            "value": "0"
        },
        "fund_flow": [
            {
                "amount": "0.0048219237",
                "from": "0xc70b5db0cb30ad841afa399f282da19415b894c8",
                "id": 1,
                "isERC1155": false,
                "isERC721": false,
                "isReverted": false,
                "order": 1,
                "to": "0xdabe6b219a3f6119c9ac2ab1d8d86a0b80f36add",
                "token": "0xeeeeeeeeeeeeeeeeeeeeeeeeeeeeeeeeeeeeeeee"
            },
            {
                "amount": "0.0000487063",
                "from": "0xc70b5db0cb30ad841afa399f282da19415b894c8",
                "id": 2,
                "isERC1155": false,
                "isERC721": false,
                "isReverted": false,
                "order": 2,
                "to": "0x90e18a6920985dbacc3d76cf27a3f2131923c720",
                "token": "0xeeeeeeeeeeeeeeeeeeeeeeeeeeeeeeeeeeeeeeee"
            }
        ],
        "token_infos": [
            {
                "address": "0xc02aaa39b223fe8d0a0e5c4f27ead9083c756cc2",
                "decimals": 18
            },
            {
                "address": "0xeeeeeeeeeeeeeeeeeeeeeeeeeeeeeeeeeeeeeeee",
                "decimals": 18
            }
        ]
    },
    "address_label": {
        "labels": [
            {
                "address": "0x0000000000000000000000000000000000000001",
                "label": "Precompiled"
            },
            {
                "address": "0x0000000000000000000000000000000000000002",
                "label": "Precompiled"
            },
            {
                "address": "0x0000000000000000000000000000000000000003",
                "label": "Precompiled"
            },
            {
                "address": "0x0000000000000000000000000000000000000004",
                "label": "Precompiled"
            },
            {
                "address": "0xeeeeeeeeeeeeeeeeeeeeeeeeeeeeeeeeeeeeeeee",
                "label": "Ether"
            },
            {
                "address": "0x881d4032abe4188e2237efcd27ab435e81fc6bb1",
                "label": "Coinbase: Commerce"
            },
            {
                "address": "0x90e18a6920985dbacc3d76cf27a3f2131923c720",
                "label": "Coinbase: Commerce Fee 5"
            }
        ]
    },
    "trace": {
        "accountLabels": null,
        "dataMap": {
            "-1": {
                "invocation": {
                    "address": "0x4bfa45d9c4dd3d309e3ee582758a282cb42b67e8",
                    "callData": "",
                    "decodedMethod": null,
                    "errorInfo": "",
                    "fromAddress": "",
                    "gasUsed": 0,
                    "id": -1,
                    "methodDecoded": false,
                    "operation": "",
                    "output": "",
                    "revert": false,
                    "revertMessage": "",
                    "selector": "",
                    "status": false,
                    "value": ""
                },
                "nodeType": 0
            },
            "0": {
                "invocation": {
                    "address": "0x881d4032abe4188e2237efcd27ab435e81fc6bb1",
                    "callData": "0x000000000000000000000000f69972b229b934d41918f97777c9fa98c636b406000000000000000000000000000000000000000000000000000000000000b669",
                    "decodedMethod": null,
                    "errorInfo": "",
                    "fromAddress": "0x4bfa45d9c4dd3d309e3ee582758a282cb42b67e8",
                    "gasUsed": 139877,
                    "id": 0,
                    "methodDecoded": false,
                    "operation": "CALL",
                    "output": "0x000000000000000000000000c70b5db0cb30ad841afa399f282da19415b894c8",
                    "revert": false,
                    "revertMessage": "",
                    "selector": "0xe5ab4da2",
                    "status": true,
                    "value": "0"
                },
                "nodeType": 0
            },
            "1": {
                "invocation": {
                    "address": "0xc70b5db0cb30ad841afa399f282da19415b894c8",
                    "callData": "0x3d602d80600a3d3981f3363d3d373d3d3d363d73f69972b229b934d41918f97777c9fa98c636b4065af43d82803e903d91602b57fd5bf3",
                    "decodedMethod": null,
                    "errorInfo": "",
                    "fromAddress": "0x881d4032abe4188e2237efcd27ab435e81fc6bb1",
                    "gasUsed": 9031,
                    "id": 1,
                    "methodDecoded": false,
                    "operation": "CREATE2",
                    "output": "0x363d3d373d3d3d363d73f69972b229b934d41918f97777c9fa98c636b4065af43d82803e903d91602b57fd5bf3",
                    "revert": false,
                    "revertMessage": "",
                    "selector": "",
                    "status": true,
                    "value": "0"
                },
                "nodeType": 0
            },
            "10": {
                "invocation": {
                    "address": "0x90e18a6920985dbacc3d76cf27a3f2131923c720",
                    "callData": "0x",
                    "decodedMethod": null,
                    "errorInfo": "",
                    "fromAddress": "0xc70b5db0cb30ad841afa399f282da19415b894c8",
                    "gasUsed": 0,
                    "id": 10,
                    "methodDecoded": false,
                    "operation": "CALL",
                    "output": "",
                    "revert": false,
                    "revertMessage": "",
                    "selector": "fallback",
                    "status": true,
                    "value": "0.0000487063"
                },
                "nodeType": 0
            },
            "2": {
                "invocation": {
                    "address": "0xf69972b229b934d41918f97777c9fa98c636b406",
                    "callData": "0x",
                    "decodedMethod": {
                        "callParams": [],
                        "constructorArguments": "",
                        "name": "destination",
                        "returnParams": [
                            {
                                "name": "",
                                "type": "address",
                                "value": "0xdabe6b219a3f6119c9ac2ab1d8d86a0b80f36add"
                            }
                        ],
                        "signature": "destination()"
                    },
                    "errorInfo": "",
                    "fromAddress": "0x881d4032abe4188e2237efcd27ab435e81fc6bb1",
                    "gasUsed": 2359,
                    "id": 2,
                    "methodDecoded": true,
                    "operation": "STATICCALL",
                    "output": "0x000000000000000000000000dabe6b219a3f6119c9ac2ab1d8d86a0b80f36add",
                    "revert": false,
                    "revertMessage": "",
                    "selector": "0xb269681d",
                    "status": true,
                    "value": "0"
                },
                "nodeType": 0
            },
            "3": {
                "invocation": {
                    "address": "0xf69972b229b934d41918f97777c9fa98c636b406",
                    "callData": "0x",
                    "decodedMethod": {
                        "callParams": [],
                        "constructorArguments": "",
                        "name": "feeDestination",
                        "returnParams": [
                            {
                                "name": "",
                                "type": "address",
                                "value": "0x90e18a6920985dbacc3d76cf27a3f2131923c720"
                            }
                        ],
                        "signature": "feeDestination()"
                    },
                    "errorInfo": "",
                    "fromAddress": "0x881d4032abe4188e2237efcd27ab435e81fc6bb1",
                    "gasUsed": 2381,
                    "id": 3,
                    "methodDecoded": true,
                    "operation": "STATICCALL",
                    "output": "0x00000000000000000000000090e18a6920985dbacc3d76cf27a3f2131923c720",
                    "revert": false,
                    "revertMessage": "",
                    "selector": "0xde53fcd5",
                    "status": true,
                    "value": "0"
                },
                "nodeType": 0
            },
            "4": {
                "invocation": {
                    "address": "0xc70b5db0cb30ad841afa399f282da19415b894c8",
                    "callData": "0x000000000000000000000000dabe6b219a3f6119c9ac2ab1d8d86a0b80f36add00000000000000000000000090e18a6920985dbacc3d76cf27a3f2131923c720",
                    "decodedMethod": {
                        "callParams": [
                            {
                                "name": "owner",
                                "type": "address",
                                "value": "0xdabe6b219a3f6119c9ac2ab1d8d86a0b80f36add"
                            },
                            {
                                "name": "regCenter",
                                "type": "address",
                                "value": "0x90e18a6920985dbacc3d76cf27a3f2131923c720"
                            }
                        ],
                        "constructorArguments": "",
                        "name": "init",
                        "returnParams": [],
                        "signature": "init(address,address)"
                    },
                    "errorInfo": "",
                    "fromAddress": "0x881d4032abe4188e2237efcd27ab435e81fc6bb1",
                    "gasUsed": 45046,
                    "id": 4,
                    "methodDecoded": true,
                    "operation": "CALL",
                    "output": "",
                    "revert": false,
                    "revertMessage": "",
                    "selector": "0xf09a4016",
                    "status": true,
                    "value": "0"
                },
                "nodeType": 0
            },
            "5": {
                "invocation": {
                    "address": "0xf69972b229b934d41918f97777c9fa98c636b406",
                    "callData": "0x000000000000000000000000dabe6b219a3f6119c9ac2ab1d8d86a0b80f36add00000000000000000000000090e18a6920985dbacc3d76cf27a3f2131923c720",
                    "decodedMethod": {
                        "callParams": [
                            {
                                "name": "owner",
                                "type": "address",
                                "value": "0xdabe6b219a3f6119c9ac2ab1d8d86a0b80f36add"
                            },
                            {
                                "name": "regCenter",
                                "type": "address",
                                "value": "0x90e18a6920985dbacc3d76cf27a3f2131923c720"
                            }
                        ],
                        "constructorArguments": "",
                        "name": "init",
                        "returnParams": [],
                        "signature": "init(address,address)"
                    },
                    "errorInfo": "",
                    "fromAddress": "0xc70b5db0cb30ad841afa399f282da19415b894c8",
                    "gasUsed": 44871,
                    "id": 5,
                    "methodDecoded": true,
                    "operation": "DELEGATECALL",
                    "output": "",
                    "revert": false,
                    "revertMessage": "",
                    "selector": "0xf09a4016",
                    "status": true,
                    "value": "0"
                },
                "nodeType": 0
            },
            "6": {
                "invocation": {
                    "address": "0xc70b5db0cb30ad841afa399f282da19415b894c8",
                    "callData": "0x",
                    "decodedMethod": {
                        "callParams": [],
                        "constructorArguments": "",
                        "name": "flushETH",
                        "returnParams": [],
                        "signature": "flushETH()"
                    },
                    "errorInfo": "",
                    "fromAddress": "0x881d4032abe4188e2237efcd27ab435e81fc6bb1",
                    "gasUsed": 22704,
                    "id": 6,
                    "methodDecoded": true,
                    "operation": "CALL",
                    "output": "",
                    "revert": false,
                    "revertMessage": "",
                    "selector": "0x69f8ef0c",
                    "status": true,
                    "value": "0"
                },
                "nodeType": 0
            },
            "7": {
                "invocation": {
                    "address": "0xf69972b229b934d41918f97777c9fa98c636b406",
                    "callData": "0x",
                    "decodedMethod": {
                        "callParams": [],
                        "constructorArguments": "",
                        "name": "flushETH",
                        "returnParams": [],
                        "signature": "flushETH()"
                    },
                    "errorInfo": "",
                    "fromAddress": "0xc70b5db0cb30ad841afa399f282da19415b894c8",
                    "gasUsed": 22541,
                    "id": 7,
                    "methodDecoded": true,
                    "operation": "DELEGATECALL",
                    "output": "",
                    "revert": false,
                    "revertMessage": "",
                    "selector": "0x69f8ef0c",
                    "status": true,
                    "value": "0"
                },
                "nodeType": 0
            },
            "8": {
                "invocation": {
                    "address": "0xb15f3d0f1a61b7a09f51237aa1b82aee9dafce97",
                    "callData": "0x000000000000000000000000dabe6b219a3f6119c9ac2ab1d8d86a0b80f36add00000000000000000000000090e18a6920985dbacc3d76cf27a3f2131923c720",
                    "decodedMethod": null,
                    "errorInfo": "",
                    "fromAddress": "0xc70b5db0cb30ad841afa399f282da19415b894c8",
                    "gasUsed": 19280,
                    "id": 8,
                    "methodDecoded": false,
                    "operation": "DELEGATECALL",
                    "output": "",
                    "revert": false,
                    "revertMessage": "",
                    "selector": "0x5266c492",
                    "status": true,
                    "value": "0"
                },
                "nodeType": 0
            },
            "9": {
                "invocation": {
                    "address": "0xdabe6b219a3f6119c9ac2ab1d8d86a0b80f36add",
                    "callData": "0x",
                    "decodedMethod": null,
                    "errorInfo": "",
                    "fromAddress": "0xc70b5db0cb30ad841afa399f282da19415b894c8",
                    "gasUsed": 0,
                    "id": 9,
                    "methodDecoded": false,
                    "operation": "CALL",
                    "output": "",
                    "revert": false,
                    "revertMessage": "",
                    "selector": "fallback",
                    "status": true,
                    "value": "0.0048219237"
                },
                "nodeType": 0
            }
        },
        "gasFlame": [
            {
                "children": [
                    {
                        "children": [
                            {
                                "children": [],
                                "depth": 0,
                                "name": "Initial Gas",
                                "value": 21584
                            },
                            {
                                "children": [
                                    {
                                        "children": [],
                                        "depth": 1,
                                        "name": "contract creation",
                                        "value": 9031
                                    },
                                    {
                                        "children": [],
                                        "depth": 1,
                                        "name": "destination",
                                        "value": 2359
                                    },
                                    {
                                        "children": [],
                                        "depth": 1,
                                        "name": "feeDestination",
                                        "value": 2381
                                    },
                                    {
                                        "children": [
                                            {
                                                "children": [],
                                                "depth": 2,
                                                "name": "init",
                                                "value": 44871
                                            }
                                        ],
                                        "depth": 1,
                                        "name": "init",
                                        "value": 45046
                                    },
                                    {
                                        "children": [
                                            {
                                                "children": [
                                                    {
                                                        "children": [
                                                            {
                                                                "children": [],
                                                                "depth": 4,
                                                                "name": "fallback",
                                                                "value": 0
                                                            },
                                                            {
                                                                "children": [],
                                                                "depth": 4,
                                                                "name": "fallback",
                                                                "value": 0
                                                            }
                                                        ],
                                                        "depth": 3,
                                                        "name": "0x5266c492",
                                                        "value": 19280
                                                    }
                                                ],
                                                "depth": 2,
                                                "name": "flushETH",
                                                "value": 22541
                                            }
                                        ],
                                        "depth": 1,
                                        "name": "flushETH",
                                        "value": 22704
                                    }
                                ],
                                "depth": 0,
                                "name": "Executed Gas",
                                "value": 118293
                            }
                        ],
                        "depth": -1,
                        "name": "Actual Gas Used",
                        "value": 139877
                    },
                    {
                        "children": [],
                        "depth": -1,
                        "name": "Refunded Gas",
                        "value": 0
                    }
                ],
                "depth": -2,
                "name": "Total Gas",
                "value": 139877
            }
        ],
        "isConfirmed": true,
        "mainTrace": [
            {
                "children": [
                    {
                        "children": [
                            {
                                "children": [],
                                "depth": 1,
                                "id": 1,
                                "order": 1
                            },
                            {
                                "children": [],
                                "depth": 1,
                                "id": 2,
                                "order": 2
                            },
                            {
                                "children": [],
                                "depth": 1,
                                "id": 3,
                                "order": 3
                            },
                            {
                                "children": [
                                    {
                                        "children": [],
                                        "depth": 2,
                                        "id": 5,
                                        "order": 5
                                    }
                                ],
                                "depth": 1,
                                "id": 4,
                                "order": 4
                            },
                            {
                                "children": [
                                    {
                                        "children": [
                                            {
                                                "children": [
                                                    {
                                                        "children": [],
                                                        "depth": 4,
                                                        "id": 9,
                                                        "order": 9
                                                    },
                                                    {
                                                        "children": [],
                                                        "depth": 4,
                                                        "id": 10,
                                                        "order": 10
                                                    }
                                                ],
                                                "depth": 3,
                                                "id": 8,
                                                "order": 8
                                            }
                                        ],
                                        "depth": 2,
                                        "id": 7,
                                        "order": 7
                                    }
                                ],
                                "depth": 1,
                                "id": 6,
                                "order": 6
                            }
                        ],
                        "depth": 0,
                        "id": 0,
                        "order": 0
                    }
                ],
                "depth": -1,
                "id": -1,
                "order": -1
            }
        ],
        "mainTraceNodeCount": 11,
        "parentIdMap": {
            "0": -1,
            "1": 0,
            "10": 8,
            "2": 0,
            "3": 0,
            "4": 0,
            "5": 4,
            "6": 0,
            "7": 6,
            "8": 7,
            "9": 8
        },
        "tidyTrace": [
            {
                "children": [
                    {
                        "children": [
                            {
                                "children": [],
                                "depth": 1,
                                "id": 1,
                                "order": 1
                            },
                            {
                                "children": [
                                    {
                                        "children": [],
                                        "depth": 2,
                                        "id": 5,
                                        "order": 5
                                    }
                                ],
                                "depth": 1,
                                "id": 4,
                                "order": 4
                            },
                            {
                                "children": [
                                    {
                                        "children": [
                                            {
                                                "children": [
                                                    {
                                                        "children": [],
                                                        "depth": 4,
                                                        "id": 9,
                                                        "order": 9
                                                    },
                                                    {
                                                        "children": [],
                                                        "depth": 4,
                                                        "id": 10,
                                                        "order": 10
                                                    }
                                                ],
                                                "depth": 3,
                                                "id": 8,
                                                "order": 8
                                            }
                                        ],
                                        "depth": 2,
                                        "id": 7,
                                        "order": 7
                                    }
                                ],
                                "depth": 1,
                                "id": 6,
                                "order": 6
                            }
                        ],
                        "depth": 0,
                        "id": 0,
                        "order": 0
                    }
                ],
                "depth": -1,
                "id": -1,
                "order": -1
            }
        ],
        "tidyTraceNodeCount": 9
    },
    "state_change": {
        "stateChanges": [
            {
                "address": "0xc70b5db0cb30ad841afa399f282da19415b894c8",
                "erc": "",
                "slots": [
                    {
                        "current": "0x000000000000000000000000dabe6b219a3f6119c9ac2ab1d8d86a0b80f36add",
                        "key": "0x0000000000000000000000000000000000000000000000000000000000000000",
                        "prev": "0x0000000000000000000000000000000000000000000000000000000000000000"
                    },
                    {
                        "current": "0x00000000000000000000000090e18a6920985dbacc3d76cf27a3f2131923c720",
                        "key": "0x0000000000000000000000000000000000000000000000000000000000000001",
                        "prev": "0x0000000000000000000000000000000000000000000000000000000000000000"
                    }
                ],
                "storageVariables": []
            }
        ]
    }
}