{
    "balance_change": {
        "balanceChanges": []
    },
    "profile": {
        "basic_info": {
            "baseFee": "7.567243106",
            "blockNumber": 15698783,
            "callData": "0x332dd1ae0000000000000000000000000000000000000000000000000000000000000040000000000000000000000000000000000000000000000000000000000000008000000000000000000000000000000000000000000000000000000000000000010000000000000000000000007afda74eece4092e63a6055c078544b6dd2ffad2000000000000000000000000000000000000000000000000000000000000000100000000000000000000000000000000000000000000000000000000000003e8",
            "debugEnable": true,
            "errorInfo": "",
            "eventCount": 1,
            "feeRecipient": "0xe688b84b23f322a994a53dbf8e15fa82cdb71127",
            "formatValue": "0",
            "gasLimit": 124047,
            "gasPrice": "9.067243106",
            "gasUsed": 122570,
            "intTxnCount": 1,
            "internalRevert": false,
            "internalRevertMessage": "",
            "isContractCreation": false,
            "isFlashloan": false,
            "maxFee": "11.717255303",
            "nonce": 600,
            "overwritedBlockNumber": -1,
            "priorityFee": "1.5",
            "receiver": "0xd0e4becfc62339c4f81de33e9051ef53ded03abe",
            "revertMessage": "",
            "sender": "0x7afda74eece4092e63a6055c078544b6dd2ffad2",
            "simulationEnable": true,
            "sourceTxnHash": "0x77a5fbfcfba0fbe28d33a4e333c9813f18fcc13cad7069145dee7466811583fd",
            "status": true,
            "timestamp": "2022-10-07T21:06:59Z",
            "transactionFee": "0.00111137198750242",
            "txnHash": "0x77a5fbfcfba0fbe28d33a4e333c9813f18fcc13cad7069145dee7466811583fd",
            "txnIndex": 88,
            "type": 2,
            "value": "0"
        },
        "fund_flow": [],
        "token_infos": [
            {
                "address": "0xc02aaa39b223fe8d0a0e5c4f27ead9083c756cc2",
                "decimals": 18
            },
            {
                "address": "0xeeeeeeeeeeeeeeeeeeeeeeeeeeeeeeeeeeeeeeee",
                "decimals": 18
            }
        ]
    },
    "address_label": {
        "labels": [
            {
                "address": "0xeeeeeeeeeeeeeeeeeeeeeeeeeeeeeeeeeeeeeeee",
                "label": "Ether"
            },
            {
                "address": "0xe4e4003afe3765aca8149a82fc064c0b125b9e5a",
                "label": "Manifold ERC721 Creator (M721)"
            },
            {
                "address": "0xd0e4becfc62339c4f81de33e9051ef53ded03abe",
                "label": "NIISO"
            },
            {
                "address": "0x0000000000000000000000000000000000000001",
                "label": "Precompiled"
            },
            {
                "address": "0x0000000000000000000000000000000000000002",
                "label": "Precompiled"
            },
            {
                "address": "0x0000000000000000000000000000000000000003",
                "label": "Precompiled"
            },
            {
                "address": "0x0000000000000000000000000000000000000004",
                "label": "Precompiled"
            }
        ]
    },
    "trace": {
        "accountLabels": null,
        "dataMap": {
            "-1": {
                "invocation": {
                    "address": "0x7afda74eece4092e63a6055c078544b6dd2ffad2",
                    "callData": "",
                    "decodedMethod": null,
                    "errorInfo": "",
                    "fromAddress": "",
                    "gasUsed": 0,
                    "id": -1,
                    "methodDecoded": false,
                    "operation": "",
                    "output": "",
                    "revert": false,
                    "revertMessage": "",
                    "selector": "",
                    "status": false,
                    "value": ""
                },
                "nodeType": 0
            },
            "0": {
                "invocation": {
                    "address": "0xd0e4becfc62339c4f81de33e9051ef53ded03abe",
                    "callData": "0x0000000000000000000000000000000000000000000000000000000000000040000000000000000000000000000000000000000000000000000000000000008000000000000000000000000000000000000000000000000000000000000000010000000000000000000000007afda74eece4092e63a6055c078544b6dd2ffad2000000000000000000000000000000000000000000000000000000000000000100000000000000000000000000000000000000000000000000000000000003e8",
                    "decodedMethod": {
                        "callParams": [
                            {
                                "name": "receivers",
                                "type": "address[]",
                                "value": [
                                    "0x7afda74eece4092e63a6055c078544b6dd2ffad2"
                                ]
                            },
                            {
                                "name": "basisPoints",
                                "type": "uint256[]",
                                "value": [
                                    "1,000"
                                ]
                            }
                        ],
                        "constructorArguments": "",
                        "name": "setRoyalties",
                        "returnParams": [],
                        "signature": "setRoyalties(address[],uint256[])"
                    },
                    "errorInfo": "",
                    "fromAddress": "0x7afda74eece4092e63a6055c078544b6dd2ffad2",
                    "gasUsed": 122570,
                    "id": 0,
                    "methodDecoded": true,
                    "operation": "CALL",
                    "output": "",
                    "revert": false,
                    "revertMessage": "",
                    "selector": "0x332dd1ae",
                    "status": true,
                    "value": "0"
                },
                "nodeType": 0
            },
            "1": {
                "invocation": {
                    "address": "0xe4e4003afe3765aca8149a82fc064c0b125b9e5a",
                    "callData": "0x0000000000000000000000000000000000000000000000000000000000000040000000000000000000000000000000000000000000000000000000000000008000000000000000000000000000000000000000000000000000000000000000010000000000000000000000007afda74eece4092e63a6055c078544b6dd2ffad2000000000000000000000000000000000000000000000000000000000000000100000000000000000000000000000000000000000000000000000000000003e8",
                    "decodedMethod": {
                        "callParams": [
                            {
                                "name": "receivers",
                                "type": "address[]",
                                "value": [
                                    "0x7afda74eece4092e63a6055c078544b6dd2ffad2"
                                ]
                            },
                            {
                                "name": "basisPoints",
                                "type": "uint256[]",
                                "value": [
                                    "1,000"
                                ]
                            }
                        ],
                        "constructorArguments": "",
                        "name": "setRoyalties",
                        "returnParams": [],
                        "signature": "setRoyalties(address[],uint256[])"
                    },
                    "errorInfo": "",
                    "fromAddress": "0xd0e4becfc62339c4f81de33e9051ef53ded03abe",
                    "gasUsed": 95477,
                    "id": 1,
                    "methodDecoded": true,
                    "operation": "DELEGATECALL",
                    "output": "",
                    "revert": false,
                    "revertMessage": "",
                    "selector": "0x332dd1ae",
                    "status": true,
                    "value": "0"
                },
                "nodeType": 0
            },
            "2": {
                "event": {
                    "contract": "0xd0e4becfc62339c4f81de33e9051ef53ded03abe",
                    "decodedLog": {
                        "name": "DefaultRoyaltiesUpdated",
                        "params": [
                            {
                                "name": "receivers",
                                "type": "address[]",
                                "value": [
                                    "0x7afda74eece4092e63a6055c078544b6dd2ffad2"
                                ]
                            },
                            {
                                "name": "basisPoints",
                                "type": "uint256[]",
                                "value": [
                                    "1,000"
                                ]
                            }
                        ],
                        "signature": "DefaultRoyaltiesUpdated(address[],uint256[])"
                    },
                    "id": 2,
                    "logData": "0x0000000000000000000000000000000000000000000000000000000000000040000000000000000000000000000000000000000000000000000000000000008000000000000000000000000000000000000000000000000000000000000000010000000000000000000000007afda74eece4092e63a6055c078544b6dd2ffad2000000000000000000000000000000000000000000000000000000000000000100000000000000000000000000000000000000000000000000000000000003e8",
                    "logDecoded": true,
                    "operation": "EVENT",
                    "revert": false,
                    "status": true,
                    "topics": [
                        "0x2b6849d5976d799a5b0ca4dfd6b40a3d7afe9ea72c091fa01a958594f9a2659b"
                    ]
                },
                "nodeType": 1
            }
        },
        "gasFlame": [
            {
                "children": [
                    {
                        "children": [
                            {
                                "children": [],
                                "depth": 0,
                                "name": "Initial Gas",
                                "value": 22144
                            },
                            {
                                "children": [
                                    {
                                        "children": [],
                                        "depth": 1,
                                        "name": "setRoyalties",
                                        "value": 95477
                                    }
                                ],
                                "depth": 0,
                                "name": "Executed Gas",
                                "value": 100426
                            }
                        ],
                        "depth": -1,
                        "name": "Actual Gas Used",
                        "value": 122570
                    },
                    {
                        "children": [],
                        "depth": -1,
                        "name": "Refunded Gas",
                        "value": 0
                    }
                ],
                "depth": -2,
                "name": "Total Gas",
                "value": 122570
            }
        ],
        "isConfirmed": true,
        "mainTrace": [
            {
                "children": [
                    {
                        "children": [
                            {
                                "children": [
                                    {
                                        "children": [],
                                        "depth": 2,
                                        "id": 2,
                                        "order": 2
                                    }
                                ],
                                "depth": 1,
                                "id": 1,
                                "order": 1
                            }
                        ],
                        "depth": 0,
                        "id": 0,
                        "order": 0
                    }
                ],
                "depth": -1,
                "id": -1,
                "order": -1
            }
        ],
        "mainTraceNodeCount": 3,
        "parentIdMap": {
            "0": -1,
            "1": 0,
            "2": 1
        },
        "tidyTrace": [
            {
                "children": [
                    {
                        "children": [
                            {
                                "children": [
                                    {
                                        "children": [],
                                        "depth": 2,
                                        "id": 2,
                                        "order": 2
                                    }
                                ],
                                "depth": 1,
                                "id": 1,
                                "order": 1
                            }
                        ],
                        "depth": 0,
                        "id": 0,
                        "order": 0
                    }
                ],
                "depth": -1,
                "id": -1,
                "order": -1
            }
        ],
        "tidyTraceNodeCount": 3
    },
    "state_change": {
        "stateChanges": [
            {
                "address": "0xd0e4becfc62339c4f81de33e9051ef53ded03abe",
                "erc": "ERC-721",
                "slots": [
                    {
                        "current": "0x0000000000000000000000000000000000000000000000000000000000000001",
                        "key": "0x6c94287666ce7c1d229703613883f9979fa7e3ffe55c1691bec66bd5edb0ec37",
                        "prev": "0x0000000000000000000000000000000000000000000000000000000000000000"
                    },
                    {
                        "current": "0x0000000000000000000000007afda74eece4092e63a6055c078544b6dd2ffad2",
                        "key": "0xea99d0a7820169d67d2e7bb43b316dfca337b389717b7f68ec3e0bb475842111",
                        "prev": "0x0000000000000000000000000000000000000000000000000000000000000000"
                    },
                    {
                        "current": "0x0000000000000000000000000000000000000000000000000000000000000001",
                        "key": "0x13be6f99220d44594ebbc4accd849ada2dfb1224e439664ad4bbfedabe91fd28",
                        "prev": "0x0000000000000000000000000000000000000000000000000000000000000000"
                    },
                    {
                        "current": "0x00000000000000000000000000000000000000000000000000000000000003e8",
                        "key": "0xffd9caaa17ec94894011f08549f5e096dbdfe2d63543ab74d1eccb32626c2760",
                        "prev": "0x0000000000000000000000000000000000000000000000000000000000000000"
                    }
                ],
                "storageVariables": [
                    {
                        "name": "_extensionRoyaltyReceivers",
                        "type": "mapping(address => address payable[])",
                        "value": {
                            "pairs": [
                                {
                                    "key": "0xd0e4becfc62339c4f81de33e9051ef53ded03abe",
                                    "value": {
                                        "elemType": "address payable",
                                        "elems": [
                                            {
                                                "index": 0,
                                                "value": {
                                                    "current": "0x7afda74eece4092e63a6055c078544b6dd2ffad2",
                                                    "prev": "0x0000000000000000000000000000000000000000",
                                                    "typeTag": 1
                                                }
                                            }
                                        ],
                                        "typeTag": 2
                                    }
                                }
                            ],
                            "typeTag": 4
                        }
                    },
                    {
                        "name": "_extensionRoyaltyBPS",
                        "type": "mapping(address => uint256[])",
                        "value": {
                            "pairs": [
                                {
                                    "key": "0xd0e4becfc62339c4f81de33e9051ef53ded03abe",
                                    "value": {
                                        "elemType": "uint256",
                                        "elems": [
                                            {
                                                "index": 0,
                                                "value": {
                                                    "current": "1000",
                                                    "prev": "0",
                                                    "typeTag": 1
                                                }
                                            }
                                        ],
                                        "typeTag": 2
                                    }
                                }
                            ],
                            "typeTag": 4
                        }
                    }
                ]
            }
        ]
    }
}