{
    "balance_change": {
        "balanceChanges": [
            {
                "account": "0x6d28587fbf7fb643b3e221e87124888edd040d62",
                "assets": [
                    {
                        "address": "0x5825fba40871aaacba45e4b34629abb86520b807",
                        "amount": "30",
                        "iconUrl": "",
                        "isERC1155": false,
                        "isERC721": false,
                        "sign": false,
                        "value": ""
                    }
                ]
            },
            {
                "account": "0xc1a012e58ad5a229e4a7051e07bc5bdf2ecb91a2",
                "assets": [
                    {
                        "address": "0x5825fba40871aaacba45e4b34629abb86520b807",
                        "amount": "30",
                        "iconUrl": "",
                        "isERC1155": false,
                        "isERC721": false,
                        "sign": true,
                        "value": ""
                    }
                ]
            }
        ]
    },
    "profile": {
        "basic_info": {
            "baseFee": "",
            "blockNumber": 9810676,
            "callData": "0xa9059cbb000000000000000000000000c1a012e58ad5a229e4a7051e07bc5bdf2ecb91a200000000000000000000000000000000000000000000000000000000b2d05e00",
            "debugEnable": true,
            "errorInfo": "",
            "eventCount": 1,
            "feeRecipient": "0x52bc44d5378309ee2abf1539bf71de1b7d7be3b5",
            "formatValue": "0",
            "gasLimit": 200000,
            "gasPrice": "50",
            "gasUsed": 22231,
            "intTxnCount": 0,
            "internalRevert": false,
            "internalRevertMessage": "",
            "isContractCreation": false,
            "isFlashloan": false,
            "maxFee": "",
            "nonce": 5,
            "overwritedBlockNumber": -1,
            "priorityFee": "",
            "receiver": "0x5825fba40871aaacba45e4b34629abb86520b807",
            "revertMessage": "",
            "sender": "0x6d28587fbf7fb643b3e221e87124888edd040d62",
            "simulationEnable": true,
            "sourceTxnHash": "0x77ecd1bd3b4bc7f0be13004b5d13c6f0bc851a3b847055d69077fd01059525cf",
            "status": true,
            "timestamp": "2020-04-05T07:27:27Z",
            "transactionFee": "0.00111155",
            "txnHash": "0x77ecd1bd3b4bc7f0be13004b5d13c6f0bc851a3b847055d69077fd01059525cf",
            "txnIndex": 4,
            "type": 0,
            "value": "0"
        },
        "fund_flow": [
            {
                "amount": "30",
                "from": "0x6d28587fbf7fb643b3e221e87124888edd040d62",
                "id": 1,
                "isERC1155": false,
                "isERC721": false,
                "isReverted": false,
                "order": 1,
                "to": "0xc1a012e58ad5a229e4a7051e07bc5bdf2ecb91a2",
                "token": "0x5825fba40871aaacba45e4b34629abb86520b807"
            }
        ],
        "token_infos": [
            {
                "address": "0x5825fba40871aaacba45e4b34629abb86520b807",
                "decimals": 8
            },
            {
                "address": "0xc02aaa39b223fe8d0a0e5c4f27ead9083c756cc2",
                "decimals": 18
            },
            {
                "address": "0xeeeeeeeeeeeeeeeeeeeeeeeeeeeeeeeeeeeeeeee",
                "decimals": 18
            }
        ]
    },
    "address_label": {
        "labels": [
            {
                "address": "0xeeeeeeeeeeeeeeeeeeeeeeeeeeeeeeeeeeeeeeee",
                "label": "Ether"
            },
            {
                "address": "0x5825fba40871aaacba45e4b34629abb86520b807",
                "label": "Chainpay: CPAY Token"
            },
            {
                "address": "0x0000000000000000000000000000000000000001",
                "label": "Precompiled"
            },
            {
                "address": "0x0000000000000000000000000000000000000002",
                "label": "Precompiled"
            },
            {
                "address": "0x0000000000000000000000000000000000000003",
                "label": "Precompiled"
            },
            {
                "address": "0x0000000000000000000000000000000000000004",
                "label": "Precompiled"
            }
        ]
    },
    "trace": {
        "accountLabels": null,
        "dataMap": {
            "-1": {
                "invocation": {
                    "address": "0x6d28587fbf7fb643b3e221e87124888edd040d62",
                    "callData": "",
                    "decodedMethod": null,
                    "errorInfo": "",
                    "fromAddress": "",
                    "gasUsed": 0,
                    "id": -1,
                    "methodDecoded": false,
                    "operation": "",
                    "output": "",
                    "revert": false,
                    "revertMessage": "",
                    "selector": "",
                    "status": false,
                    "value": ""
                },
                "nodeType": 0
            },
            "0": {
                "invocation": {
                    "address": "0x5825fba40871aaacba45e4b34629abb86520b807",
                    "callData": "0x000000000000000000000000c1a012e58ad5a229e4a7051e07bc5bdf2ecb91a200000000000000000000000000000000000000000000000000000000b2d05e00",
                    "decodedMethod": {
                        "callParams": [
                            {
                                "name": "_to",
                                "type": "address",
                                "value": "0xc1a012e58ad5a229e4a7051e07bc5bdf2ecb91a2"
                            },
                            {
                                "decimalAvailable": true,
                                "name": "_amount",
                                "type": "uint256",
                                "value": "3,000,000,000"
                            }
                        ],
                        "constructorArguments": "",
                        "name": "transfer",
                        "returnParams": [
                            {
                                "name": "success",
                                "type": "bool",
                                "value": true
                            }
                        ],
                        "signature": "transfer(address,uint256)"
                    },
                    "errorInfo": "",
                    "fromAddress": "0x6d28587fbf7fb643b3e221e87124888edd040d62",
                    "gasUsed": 22231,
                    "id": 0,
                    "methodDecoded": true,
                    "operation": "CALL",
                    "output": "0x0000000000000000000000000000000000000000000000000000000000000001",
                    "revert": false,
                    "revertMessage": "",
                    "selector": "0xa9059cbb",
                    "status": true,
                    "value": "0"
                },
                "nodeType": 0
            },
            "1": {
                "event": {
                    "contract": "0x5825fba40871aaacba45e4b34629abb86520b807",
                    "decodedLog": {
                        "name": "Transfer",
                        "params": [
                            {
                                "name": "_from",
                                "type": "address",
                                "value": "0x6d28587fbf7fb643b3e221e87124888edd040d62"
                            },
                            {
                                "name": "_to",
                                "type": "address",
                                "value": "0xc1a012e58ad5a229e4a7051e07bc5bdf2ecb91a2"
                            },
                            {
                                "decimalAvailable": true,
                                "name": "_value",
                                "type": "uint256",
                                "value": "3,000,000,000"
                            }
                        ],
                        "signature": "Transfer(address,address,uint256)"
                    },
                    "id": 1,
                    "logData": "0x00000000000000000000000000000000000000000000000000000000b2d05e00",
                    "logDecoded": true,
                    "operation": "EVENT",
                    "revert": false,
                    "status": true,
                    "topics": [
                        "0xddf252ad1be2c89b69c2b068fc378daa952ba7f163c4a11628f55a4df523b3ef",
                        "0x0000000000000000000000006d28587fbf7fb643b3e221e87124888edd040d62",
                        "0x000000000000000000000000c1a012e58ad5a229e4a7051e07bc5bdf2ecb91a2"
                    ]
                },
                "nodeType": 1
            }
        },
        "gasFlame": [
            {
                "children": [
                    {
                        "children": [
                            {
                                "children": [],
                                "depth": 0,
                                "name": "Initial Gas",
                                "value": 21596
                            },
                            {
                                "children": [],
                                "depth": 0,
                                "name": "Executed Gas",
                                "value": 15635
                            }
                        ],
                        "depth": -1,
                        "name": "Actual Gas Used",
                        "value": 22231
                    },
                    {
                        "children": [],
                        "depth": -1,
                        "name": "Refunded Gas",
                        "value": 15000
                    }
                ],
                "depth": -2,
                "name": "Total Gas",
                "value": 37231
            }
        ],
        "isConfirmed": true,
        "mainTrace": [
            {
                "children": [
                    {
                        "children": [
                            {
                                "children": [],
                                "depth": 1,
                                "id": 1,
                                "order": 1
                            }
                        ],
                        "depth": 0,
                        "id": 0,
                        "order": 0
                    }
                ],
                "depth": -1,
                "id": -1,
                "order": -1
            }
        ],
        "mainTraceNodeCount": 2,
        "parentIdMap": {
            "0": -1,
            "1": 0
        },
        "tidyTrace": [
            {
                "children": [
                    {
                        "children": [
                            {
                                "children": [],
                                "depth": 1,
                                "id": 1,
                                "order": 1
                            }
                        ],
                        "depth": 0,
                        "id": 0,
                        "order": 0
                    }
                ],
                "depth": -1,
                "id": -1,
                "order": -1
            }
        ],
        "tidyTraceNodeCount": 2
    },
    "state_change": {
        "stateChanges": [
            {
                "address": "0x5825fba40871aaacba45e4b34629abb86520b807",
                "erc": "ERC-20",
                "slots": [
                    {
                        "current": "0x0000000000000000000000000000000000000000000000000000000000000000",
                        "key": "0x7d296fe979a96e30bcf72598e6b30df10eecef36eb84a354839ea3e79e3c5be3",
                        "prev": "0x00000000000000000000000000000000000000000000000000000000b2d05e00"
                    },
                    {
                        "current": "0x000000000000000000000000000000000000000000000000000000f00d1bb1a0",
                        "key": "0xada5a64e5f546fc2b6fd788672febd4401189873f4799edbee010606aa62a2bb",
                        "prev": "0x000000000000000000000000000000000000000000000000000000ef5a4b53a0"
                    }
                ],
                "storageVariables": [
                    {
                        "name": "balances",
                        "type": "mapping(address => uint256)",
                        "value": {
                            "pairs": [
                                {
                                    "key": "0x6d28587fbf7fb643b3e221e87124888edd040d62",
                                    "value": {
                                        "current": "0",
                                        "prev": "3000000000",
                                        "typeTag": 1
                                    }
                                },
                                {
                                    "key": "0xc1a012e58ad5a229e4a7051e07bc5bdf2ecb91a2",
                                    "value": {
                                        "current": "1031012069792",
                                        "prev": "1028012069792",
                                        "typeTag": 1
                                    }
                                }
                            ],
                            "typeTag": 4
                        }
                    }
                ]
            }
        ]
    }
}