{
    "balance_change": {
        "balanceChanges": []
    },
    "profile": {
        "basic_info": {
            "baseFee": "1.342068479",
            "blockNumber": 20444379,
            "callData": "0x0894edf100000000000000000000000000000000000000000000000000000000000000403ef51cb935810d34c48f06750edf31bd6ce50aabe82defcc2c101d2907271a5000000000000000000000000000000000000000000000000000000000000000510100000000000033610000759e00000000000000000000000019cfce47ed54a88614648dc3f19a5980097007dd000075950000000000000000000000006d6620efa72948c5f68a3c8646d58c00d3f4a980000000000000000000000000000000",
            "debugEnable": true,
            "errorInfo": "",
            "eventCount": 1,
            "feeRecipient": "0x4838b106fce9647bdf1e7877bf73ce8b0bad5f97",
            "formatValue": "0",
            "gasLimit": 343476,
            "gasPrice": "1.343268479",
            "gasUsed": 76832,
            "intTxnCount": 1,
            "internalRevert": false,
            "internalRevertMessage": "",
            "isContractCreation": false,
            "isFlashloan": false,
            "maxFee": "1.647147097",
            "nonce": 825567,
            "overwritedBlockNumber": -1,
            "priorityFee": "0.0012",
            "receiver": "0xc02ab410f0734efa3f14628780e6e695156024c2",
            "revertMessage": "",
            "sender": "0xe93685f3bba03016f02bd1828badd6195988d950",
            "simulationEnable": true,
            "sourceTxnHash": "0x77fc3d6f3cb18275ab5c153b860329d17130421ff43431532743defee328c1b3",
            "status": true,
            "timestamp": "2024-08-03T00:16:59Z",
            "transactionFee": "0.000103206003778528",
            "txnHash": "0x77fc3d6f3cb18275ab5c153b860329d17130421ff43431532743defee328c1b3",
            "txnIndex": 93,
            "type": 2,
            "value": "0"
        },
        "fund_flow": [],
        "token_infos": [
            {
                "address": "0xc02aaa39b223fe8d0a0e5c4f27ead9083c756cc2",
                "decimals": 18
            },
            {
                "address": "0xeeeeeeeeeeeeeeeeeeeeeeeeeeeeeeeeeeeeeeee",
                "decimals": 18
            }
        ]
    },
    "address_label": {
        "labels": [
            {
                "address": "0xc02ab410f0734efa3f14628780e6e695156024c2",
                "label": "ReceiveUln302"
            },
            {
                "address": "0x0000000000000000000000000000000000000001",
                "label": "Precompiled"
            },
            {
                "address": "0x0000000000000000000000000000000000000002",
                "label": "Precompiled"
            },
            {
                "address": "0x0000000000000000000000000000000000000004",
                "label": "Precompiled"
            },
            {
                "address": "0xeeeeeeeeeeeeeeeeeeeeeeeeeeeeeeeeeeeeeeee",
                "label": "Ether"
            },
            {
                "address": "0x1a44076050125825900e736c501f859c50fe728c",
                "label": "LayerZero: EndpointV2"
            },
            {
                "address": "0xe93685f3bba03016f02bd1828badd6195988d950",
                "label": "Layer Zero: Executor"
            },
            {
                "address": "0x6d6620efa72948c5f68a3c8646d58c00d3f4a980",
                "label": "Stargate : TokenMessaging.sol"
            },
            {
                "address": "0x0000000000000000000000000000000000000003",
                "label": "Precompiled"
            }
        ]
    },
    "trace": {
        "accountLabels": null,
        "dataMap": {
            "-1": {
                "invocation": {
                    "address": "0xe93685f3bba03016f02bd1828badd6195988d950",
                    "callData": "",
                    "decodedMethod": null,
                    "errorInfo": "",
                    "fromAddress": "",
                    "gasUsed": 0,
                    "id": -1,
                    "methodDecoded": false,
                    "operation": "",
                    "output": "",
                    "revert": false,
                    "revertMessage": "",
                    "selector": "",
                    "status": false,
                    "value": ""
                },
                "nodeType": 0
            },
            "0": {
                "invocation": {
                    "address": "0xc02ab410f0734efa3f14628780e6e695156024c2",
                    "callData": "0x00000000000000000000000000000000000000000000000000000000000000403ef51cb935810d34c48f06750edf31bd6ce50aabe82defcc2c101d2907271a5000000000000000000000000000000000000000000000000000000000000000510100000000000033610000759e00000000000000000000000019cfce47ed54a88614648dc3f19a5980097007dd000075950000000000000000000000006d6620efa72948c5f68a3c8646d58c00d3f4a980000000000000000000000000000000",
                    "decodedMethod": {
                        "callParams": [
                            {
                                "name": "_packetHeader",
                                "type": "bytes",
                                "value": "0x0100000000000033610000759e00000000000000000000000019cfce47ed54a88614648dc3f19a5980097007dd000075950000000000000000000000006d6620efa72948c5f68a3c8646d58c00d3f4a980"
                            },
                            {
                                "name": "_payloadHash",
                                "type": "bytes32",
                                "value": "0x3ef51cb935810d34c48f06750edf31bd6ce50aabe82defcc2c101d2907271a50"
                            }
                        ],
                        "constructorArguments": "",
                        "name": "commitVerification",
                        "returnParams": [],
                        "signature": "commitVerification(bytes,bytes32)"
                    },
                    "errorInfo": "",
                    "fromAddress": "0xe93685f3bba03016f02bd1828badd6195988d950",
                    "gasUsed": 76832,
                    "id": 0,
                    "methodDecoded": true,
                    "operation": "CALL",
                    "output": "",
                    "revert": false,
                    "revertMessage": "",
                    "selector": "0x0894edf1",
                    "status": true,
                    "value": "0"
                },
                "nodeType": 0
            },
            "1": {
                "invocation": {
                    "address": "0x1a44076050125825900e736c501f859c50fe728c",
                    "callData": "0x000000000000000000000000000000000000000000000000000000000000759e00000000000000000000000019cfce47ed54a88614648dc3f19a5980097007dd00000000000000000000000000000000000000000000000000000000000033610000000000000000000000006d6620efa72948c5f68a3c8646d58c00d3f4a9803ef51cb935810d34c48f06750edf31bd6ce50aabe82defcc2c101d2907271a50",
                    "decodedMethod": {
                        "callParams": [
                            {
                                "name": "_origin",
                                "type": "(uint32,bytes32,uint64)",
                                "value": [
                                    {
                                        "name": "srcEid",
                                        "type": "uint32",
                                        "value": "30,110"
                                    },
                                    {
                                        "name": "sender",
                                        "type": "bytes32",
                                        "value": "0x00000000000000000000000019cfce47ed54a88614648dc3f19a5980097007dd"
                                    },
                                    {
                                        "name": "nonce",
                                        "type": "uint64",
                                        "value": "13,153"
                                    }
                                ]
                            },
                            {
                                "name": "_receiver",
                                "type": "address",
                                "value": "0x6d6620efa72948c5f68a3c8646d58c00d3f4a980"
                            },
                            {
                                "name": "_payloadHash",
                                "type": "bytes32",
                                "value": "0x3ef51cb935810d34c48f06750edf31bd6ce50aabe82defcc2c101d2907271a50"
                            }
                        ],
                        "constructorArguments": "",
                        "name": "verify",
                        "returnParams": [],
                        "signature": "verify((uint32,bytes32,uint64),address,bytes32)"
                    },
                    "errorInfo": "",
                    "fromAddress": "0xc02ab410f0734efa3f14628780e6e695156024c2",
                    "gasUsed": 33483,
                    "id": 1,
                    "methodDecoded": true,
                    "operation": "CALL",
                    "output": "",
                    "revert": false,
                    "revertMessage": "",
                    "selector": "0xa825d747",
                    "status": true,
                    "value": "0"
                },
                "nodeType": 0
            },
            "2": {
                "event": {
                    "contract": "0x1a44076050125825900e736c501f859c50fe728c",
                    "decodedLog": {
                        "name": "PacketVerified",
                        "params": [
                            {
                                "name": "origin",
                                "type": "(uint32,bytes32,uint64)",
                                "value": [
                                    {
                                        "name": "srcEid",
                                        "type": "uint32",
                                        "value": "30,110"
                                    },
                                    {
                                        "name": "sender",
                                        "type": "bytes32",
                                        "value": "0x00000000000000000000000019cfce47ed54a88614648dc3f19a5980097007dd"
                                    },
                                    {
                                        "name": "nonce",
                                        "type": "uint64",
                                        "value": "13,153"
                                    }
                                ]
                            },
                            {
                                "name": "receiver",
                                "type": "address",
                                "value": "0x6d6620efa72948c5f68a3c8646d58c00d3f4a980"
                            },
                            {
                                "name": "payloadHash",
                                "type": "bytes32",
                                "value": "0x3ef51cb935810d34c48f06750edf31bd6ce50aabe82defcc2c101d2907271a50"
                            }
                        ],
                        "signature": "PacketVerified((uint32,bytes32,uint64),address,bytes32)"
                    },
                    "id": 2,
                    "logData": "0x000000000000000000000000000000000000000000000000000000000000759e00000000000000000000000019cfce47ed54a88614648dc3f19a5980097007dd00000000000000000000000000000000000000000000000000000000000033610000000000000000000000006d6620efa72948c5f68a3c8646d58c00d3f4a9803ef51cb935810d34c48f06750edf31bd6ce50aabe82defcc2c101d2907271a50",
                    "logDecoded": true,
                    "operation": "EVENT",
                    "revert": false,
                    "status": true,
                    "topics": [
                        "0x0d87345f3d1c929caba93e1c3821b54ff3512e12b66aa3cfe54b6bcbc17e59b4"
                    ]
                },
                "nodeType": 1
            }
        },
        "gasFlame": [
            {
                "children": [
                    {
                        "children": [
                            {
                                "children": [],
                                "depth": 0,
                                "name": "Initial Gas",
                                "value": 22792
                            },
                            {
                                "children": [
                                    {
                                        "children": [],
                                        "depth": 1,
                                        "name": "verify",
                                        "value": 33483
                                    }
                                ],
                                "depth": 0,
                                "name": "Executed Gas",
                                "value": 63640
                            }
                        ],
                        "depth": -1,
                        "name": "Actual Gas Used",
                        "value": 76832
                    },
                    {
                        "children": [],
                        "depth": -1,
                        "name": "Refunded Gas",
                        "value": 9600
                    }
                ],
                "depth": -2,
                "name": "Total Gas",
                "value": 86432
            }
        ],
        "isConfirmed": true,
        "mainTrace": [
            {
                "children": [
                    {
                        "children": [
                            {
                                "children": [
                                    {
                                        "children": [],
                                        "depth": 2,
                                        "id": 2,
                                        "order": 2
                                    }
                                ],
                                "depth": 1,
                                "id": 1,
                                "order": 1
                            }
                        ],
                        "depth": 0,
                        "id": 0,
                        "order": 0
                    }
                ],
                "depth": -1,
                "id": -1,
                "order": -1
            }
        ],
        "mainTraceNodeCount": 3,
        "parentIdMap": {
            "0": -1,
            "1": 0,
            "2": 1
        },
        "tidyTrace": [
            {
                "children": [
                    {
                        "children": [
                            {
                                "children": [
                                    {
                                        "children": [],
                                        "depth": 2,
                                        "id": 2,
                                        "order": 2
                                    }
                                ],
                                "depth": 1,
                                "id": 1,
                                "order": 1
                            }
                        ],
                        "depth": 0,
                        "id": 0,
                        "order": 0
                    }
                ],
                "depth": -1,
                "id": -1,
                "order": -1
            }
        ],
        "tidyTraceNodeCount": 3
    },
    "state_change": {
        "stateChanges": [
            {
                "address": "0x1a44076050125825900e736c501f859c50fe728c",
                "erc": "",
                "slots": [
                    {
                        "current": "0x3ef51cb935810d34c48f06750edf31bd6ce50aabe82defcc2c101d2907271a50",
                        "key": "0x473cae3c3fe9d945b003fffbfa5a4298e3c40f5d2e953263ef7427d371b76d81",
                        "prev": "0x0000000000000000000000000000000000000000000000000000000000000000"
                    }
                ],
                "storageVariables": [
                    {
                        "name": "inboundPayloadHash",
                        "type": "mapping(address => mapping(uint32 => mapping(bytes32 => mapping(uint64 => bytes32))))",
                        "value": {
                            "pairs": [
                                {
                                    "key": "0x6d6620efa72948c5f68a3c8646d58c00d3f4a980",
                                    "value": {
                                        "pairs": [
                                            {
                                                "key": "30110",
                                                "value": {
                                                    "pairs": [
                                                        {
                                                            "key": "0x00000000000000000000000019cfce47ed54a88614648dc3f19a5980097007dd",
                                                            "value": {
                                                                "pairs": [
                                                                    {
                                                                        "key": "13153",
                                                                        "value": {
                                                                            "current": "0x3ef51cb935810d34c48f06750edf31bd6ce50aabe82defcc2c101d2907271a50",
                                                                            "prev": "0x0000000000000000000000000000000000000000000000000000000000000000",
                                                                            "typeTag": 1
                                                                        }
                                                                    }
                                                                ],
                                                                "typeTag": 4
                                                            }
                                                        }
                                                    ],
                                                    "typeTag": 4
                                                }
                                            }
                                        ],
                                        "typeTag": 4
                                    }
                                }
                            ],
                            "typeTag": 4
                        }
                    }
                ]
            },
            {
                "address": "0xc02ab410f0734efa3f14628780e6e695156024c2",
                "erc": "",
                "slots": [
                    {
                        "current": "0x0000000000000000000000000000000000000000000000000000000000000000",
                        "key": "0xf8715ebf8949c47058780509c6512eaaec0dd6e122baa69d2e03bff5422f7501",
                        "prev": "0x0000000000000000000000000000000000000000000000000000000000001401"
                    },
                    {
                        "current": "0x0000000000000000000000000000000000000000000000000000000000000000",
                        "key": "0x18d7a1d9ac75a3208100b655a73025dcc4f775935ea9994fec2d33c78bf4244d",
                        "prev": "0x0000000000000000000000000000000000000000000000000000000000001401"
                    }
                ],
                "storageVariables": [
                    {
                        "name": "hashLookup",
                        "type": "mapping(bytes32 => mapping(bytes32 => mapping(address => struct Verification)))",
                        "value": {
                            "pairs": [
                                {
                                    "key": "0xb051be8093f5f3c7226d4fae17d7eb40e6860d73b005cfa29b124f8476f33ba2",
                                    "value": {
                                        "pairs": [
                                            {
                                                "key": "0x3ef51cb935810d34c48f06750edf31bd6ce50aabe82defcc2c101d2907271a50",
                                                "value": {
                                                    "pairs": [
                                                        {
                                                            "key": "0x8fafae7dd957044088b3d0f67359c327c6200d18",
                                                            "value": {
                                                                "fields": [
                                                                    {
                                                                        "name": "submitted",
                                                                        "type": "bool",
                                                                        "value": {
                                                                            "current": "false",
                                                                            "prev": "true",
                                                                            "typeTag": 1
                                                                        }
                                                                    },
                                                                    {
                                                                        "name": "confirmations",
                                                                        "type": "uint64",
                                                                        "value": {
                                                                            "current": "0",
                                                                            "prev": "20",
                                                                            "typeTag": 1
                                                                        }
                                                                    }
                                                                ],
                                                                "typeTag": 3
                                                            }
                                                        },
                                                        {
                                                            "key": "0xa59ba433ac34d2927232918ef5b2eaafcf130ba5",
                                                            "value": {
                                                                "fields": [
                                                                    {
                                                                        "name": "submitted",
                                                                        "type": "bool",
                                                                        "value": {
                                                                            "current": "false",
                                                                            "prev": "true",
                                                                            "typeTag": 1
                                                                        }
                                                                    },
                                                                    {
                                                                        "name": "confirmations",
                                                                        "type": "uint64",
                                                                        "value": {
                                                                            "current": "0",
                                                                            "prev": "20",
                                                                            "typeTag": 1
                                                                        }
                                                                    }
                                                                ],
                                                                "typeTag": 3
                                                            }
                                                        }
                                                    ],
                                                    "typeTag": 4
                                                }
                                            }
                                        ],
                                        "typeTag": 4
                                    }
                                }
                            ],
                            "typeTag": 4
                        }
                    }
                ]
            }
        ]
    }
}