{
    "balance_change": {
        "balanceChanges": [
            {
                "account": "0x51c72848c68a965f66fa7a88855f9f7784502a7f",
                "assets": [
                    {
                        "address": "0xc02aaa39b223fe8d0a0e5c4f27ead9083c756cc2",
                        "amount": "2.90533370052776992",
                        "iconUrl": "https://assets.blocksec.com/icon/f1cb2d02c471d545bbc7722daf3277fd852d98e63d118771af7047bd8256c516.png",
                        "isERC1155": false,
                        "isERC721": false,
                        "sign": true,
                        "value": "7017.03923653164649"
                    },
                    {
                        "address": "0x1f9840a85d5af5bf1d1762f925bdaddc4201f984",
                        "amount": "1,052.787397512671264769",
                        "iconUrl": "https://assets.blocksec.com/icon/a11b26a37f84e146d773ae4914e43619075ce4c922ad0a1fa46464f3049bf839.png",
                        "isERC1155": false,
                        "isERC721": false,
                        "sign": false,
                        "value": "7001.0361967000003744"
                    }
                ]
            },
            {
                "account": "0x1d42064fc4beb5f8aaf85f4617ae8b3b5b8bd801",
                "assets": [
                    {
                        "address": "0xc02aaa39b223fe8d0a0e5c4f27ead9083c756cc2",
                        "amount": "2.90533370052776992",
                        "iconUrl": "https://assets.blocksec.com/icon/f1cb2d02c471d545bbc7722daf3277fd852d98e63d118771af7047bd8256c516.png",
                        "isERC1155": false,
                        "isERC721": false,
                        "sign": false,
                        "value": "7017.03923653164649"
                    },
                    {
                        "address": "0x1f9840a85d5af5bf1d1762f925bdaddc4201f984",
                        "amount": "1,052.787397512671264769",
                        "iconUrl": "https://assets.blocksec.com/icon/a11b26a37f84e146d773ae4914e43619075ce4c922ad0a1fa46464f3049bf839.png",
                        "isERC1155": false,
                        "isERC721": false,
                        "sign": true,
                        "value": "7001.0361967000003744"
                    }
                ]
            }
        ]
    },
    "profile": {
        "basic_info": {
            "baseFee": "2.16807072",
            "blockNumber": 20750007,
            "callData": "0x122067ed00000000000000000000000000000000000000000000000000000000000000000000000000000000000000001d42064fc4beb5f8aaf85f4617ae8b3b5b8bd801000000000000000000000000000000000000000000000039125c30218ebc00000000000000000000000000000000000000000000000000002851c46440ca1e0000000000000000000000000000000000000000000000000000000000000000010000000000000000000000000000000000000000000000000000000066e5b82f00000000000000000000000000000000000000000000000000000000000000e000000000000000000000000000000000000000000000000000000000000000141f9840a85d5af5bf1d1762f925bdaddc4201f984000000000000000000000000",
            "debugEnable": true,
            "errorInfo": "",
            "eventCount": 3,
            "feeRecipient": "0x95222290dd7278aa3ddd389cc1e1d165cc4bafe5",
            "formatValue": "0",
            "gasLimit": 150629,
            "gasPrice": "4.58807072",
            "gasUsed": 115869,
            "intTxnCount": 6,
            "internalRevert": false,
            "internalRevertMessage": "",
            "isContractCreation": false,
            "isFlashloan": false,
            "maxFee": "4.58807072",
            "nonce": 8250,
            "overwritedBlockNumber": -1,
            "priorityFee": "4.58807072",
            "receiver": "0x51c72848c68a965f66fa7a88855f9f7784502a7f",
            "revertMessage": "",
            "sender": "0xf9dd6fc91f26ade2050a89f324de5d64de2ad99a",
            "simulationEnable": true,
            "sourceTxnHash": "0x77f5484ab6e680f87ee85a4395f6b4782f4dab7bd4b33632bf6270a15a7580cd",
            "status": true,
            "timestamp": "2024-09-14T16:21:59Z",
            "transactionFee": "0.00053161516625568",
            "txnHash": "0x77f5484ab6e680f87ee85a4395f6b4782f4dab7bd4b33632bf6270a15a7580cd",
            "txnIndex": 18,
            "type": 2,
            "value": "0"
        },
        "fund_flow": [
            {
                "amount": "2.90533370052776992",
                "from": "0x1d42064fc4beb5f8aaf85f4617ae8b3b5b8bd801",
                "id": 1,
                "isERC1155": false,
                "isERC721": false,
                "isReverted": false,
                "order": 1,
                "to": "0x51c72848c68a965f66fa7a88855f9f7784502a7f",
                "token": "0xc02aaa39b223fe8d0a0e5c4f27ead9083c756cc2"
            },
            {
                "amount": "1,052.787397512671264769",
                "from": "0x51c72848c68a965f66fa7a88855f9f7784502a7f",
                "id": 2,
                "isERC1155": false,
                "isERC721": false,
                "isReverted": false,
                "order": 2,
                "to": "0x1d42064fc4beb5f8aaf85f4617ae8b3b5b8bd801",
                "token": "0x1f9840a85d5af5bf1d1762f925bdaddc4201f984"
            }
        ],
        "token_infos": [
            {
                "address": "0x1f9840a85d5af5bf1d1762f925bdaddc4201f984",
                "decimals": 18
            },
            {
                "address": "0xc02aaa39b223fe8d0a0e5c4f27ead9083c756cc2",
                "decimals": 18
            },
            {
                "address": "0xeeeeeeeeeeeeeeeeeeeeeeeeeeeeeeeeeeeeeeee",
                "decimals": 18
            }
        ]
    },
    "address_label": {
        "labels": [
            {
                "address": "0x1d42064fc4beb5f8aaf85f4617ae8b3b5b8bd801",
                "label": "Uniswap V3: UNI"
            },
            {
                "address": "0x51c72848c68a965f66fa7a88855f9f7784502a7f",
                "label": "MEV Bot: 0x51C\u2026a7F"
            },
            {
                "address": "0x1f9840a85d5af5bf1d1762f925bdaddc4201f984",
                "label": "Uniswap Protocol: UNI token"
            },
            {
                "address": "0x0000000000000000000000000000000000000001",
                "label": "Precompiled"
            },
            {
                "address": "0x0000000000000000000000000000000000000003",
                "label": "Precompiled"
            },
            {
                "address": "0xeeeeeeeeeeeeeeeeeeeeeeeeeeeeeeeeeeeeeeee",
                "label": "Ether"
            },
            {
                "address": "0xc02aaa39b223fe8d0a0e5c4f27ead9083c756cc2",
                "label": "Wrapped Ether (WETH)"
            },
            {
                "address": "0x0000000000000000000000000000000000000002",
                "label": "Precompiled"
            },
            {
                "address": "0x0000000000000000000000000000000000000004",
                "label": "Precompiled"
            }
        ]
    },
    "trace": {
        "accountLabels": null,
        "dataMap": {
            "-1": {
                "invocation": {
                    "address": "0xf9dd6fc91f26ade2050a89f324de5d64de2ad99a",
                    "callData": "",
                    "decodedMethod": null,
                    "errorInfo": "",
                    "fromAddress": "",
                    "gasUsed": 0,
                    "id": -1,
                    "methodDecoded": false,
                    "operation": "",
                    "output": "",
                    "revert": false,
                    "revertMessage": "",
                    "selector": "",
                    "status": false,
                    "value": ""
                },
                "nodeType": 0
            },
            "0": {
                "invocation": {
                    "address": "0x51c72848c68a965f66fa7a88855f9f7784502a7f",
                    "callData": "0x00000000000000000000000000000000000000000000000000000000000000000000000000000000000000001d42064fc4beb5f8aaf85f4617ae8b3b5b8bd801000000000000000000000000000000000000000000000039125c30218ebc00000000000000000000000000000000000000000000000000002851c46440ca1e0000000000000000000000000000000000000000000000000000000000000000010000000000000000000000000000000000000000000000000000000066e5b82f00000000000000000000000000000000000000000000000000000000000000e000000000000000000000000000000000000000000000000000000000000000141f9840a85d5af5bf1d1762f925bdaddc4201f984000000000000000000000000",
                    "decodedMethod": null,
                    "errorInfo": "",
                    "fromAddress": "0xf9dd6fc91f26ade2050a89f324de5d64de2ad99a",
                    "gasUsed": 115869,
                    "id": 0,
                    "methodDecoded": false,
                    "operation": "CALL",
                    "output": "",
                    "revert": false,
                    "revertMessage": "",
                    "selector": "0x122067ed",
                    "status": true,
                    "value": "0"
                },
                "nodeType": 0
            },
            "1": {
                "invocation": {
                    "address": "0x1d42064fc4beb5f8aaf85f4617ae8b3b5b8bd801",
                    "callData": "0x00000000000000000000000051c72848c68a965f66fa7a88855f9f7784502a7f0000000000000000000000000000000000000000000000000000000000000001000000000000000000000000000000000000000000000039125c30218ebc000000000000000000000000000000000000000000000000000000000001000276a400000000000000000000000000000000000000000000000000000000000000a000000000000000000000000000000000000000000000000000000000000000141f9840a85d5af5bf1d1762f925bdaddc4201f984000000000000000000000000",
                    "decodedMethod": {
                        "callParams": [
                            {
                                "name": "recipient",
                                "type": "address",
                                "value": "0x51c72848c68a965f66fa7a88855f9f7784502a7f"
                            },
                            {
                                "name": "zeroForOne",
                                "type": "bool",
                                "value": true
                            },
                            {
                                "name": "amountSpecified",
                                "type": "int256",
                                "value": "1,052,787,397,512,671,264,768"
                            },
                            {
                                "name": "sqrtPriceLimitX96",
                                "type": "uint160",
                                "value": "4,295,128,740"
                            },
                            {
                                "name": "data",
                                "type": "bytes",
                                "value": "0x1f9840a85d5af5bf1d1762f925bdaddc4201f984"
                            }
                        ],
                        "constructorArguments": "",
                        "name": "swap",
                        "returnParams": [
                            {
                                "name": "amount0",
                                "type": "int256",
                                "value": "1,052,787,397,512,671,264,768"
                            },
                            {
                                "name": "amount1",
                                "type": "int256",
                                "value": "-2,905,333,700,527,769,920"
                            }
                        ],
                        "signature": "swap(address,bool,int256,uint160,bytes)"
                    },
                    "errorInfo": "",
                    "fromAddress": "0x51c72848c68a965f66fa7a88855f9f7784502a7f",
                    "gasUsed": 82185,
                    "id": 1,
                    "methodDecoded": true,
                    "operation": "CALL",
                    "output": "0x000000000000000000000000000000000000000000000039125c30218ebc0000ffffffffffffffffffffffffffffffffffffffffffffffffd7ae2e647a1236c0",
                    "revert": false,
                    "revertMessage": "",
                    "selector": "0x128acb08",
                    "status": true,
                    "value": "0"
                },
                "nodeType": 0
            },
            "2": {
                "invocation": {
                    "address": "0xc02aaa39b223fe8d0a0e5c4f27ead9083c756cc2",
                    "callData": "0x00000000000000000000000051c72848c68a965f66fa7a88855f9f7784502a7f0000000000000000000000000000000000000000000000002851d19b85edc940",
                    "decodedMethod": {
                        "callParams": [
                            {
                                "name": "dst",
                                "type": "address",
                                "value": "0x51c72848c68a965f66fa7a88855f9f7784502a7f"
                            },
                            {
                                "decimalAvailable": true,
                                "name": "wad",
                                "type": "uint256",
                                "value": "2,905,333,700,527,769,920"
                            }
                        ],
                        "constructorArguments": "",
                        "name": "transfer",
                        "returnParams": [
                            {
                                "name": "",
                                "type": "bool",
                                "value": true
                            }
                        ],
                        "signature": "transfer(address,uint256)"
                    },
                    "errorInfo": "",
                    "fromAddress": "0x1d42064fc4beb5f8aaf85f4617ae8b3b5b8bd801",
                    "gasUsed": 12862,
                    "id": 2,
                    "methodDecoded": true,
                    "operation": "CALL",
                    "output": "0x0000000000000000000000000000000000000000000000000000000000000001",
                    "revert": false,
                    "revertMessage": "",
                    "selector": "0xa9059cbb",
                    "status": true,
                    "value": "0"
                },
                "nodeType": 0
            },
            "3": {
                "event": {
                    "contract": "0xc02aaa39b223fe8d0a0e5c4f27ead9083c756cc2",
                    "decodedLog": {
                        "name": "Transfer",
                        "params": [
                            {
                                "name": "src",
                                "type": "address",
                                "value": "0x1d42064fc4beb5f8aaf85f4617ae8b3b5b8bd801"
                            },
                            {
                                "name": "dst",
                                "type": "address",
                                "value": "0x51c72848c68a965f66fa7a88855f9f7784502a7f"
                            },
                            {
                                "decimalAvailable": true,
                                "name": "wad",
                                "type": "uint256",
                                "value": "2,905,333,700,527,769,920"
                            }
                        ],
                        "signature": "Transfer(address,address,uint256)"
                    },
                    "id": 3,
                    "logData": "0x0000000000000000000000000000000000000000000000002851d19b85edc940",
                    "logDecoded": true,
                    "operation": "EVENT",
                    "revert": false,
                    "status": true,
                    "topics": [
                        "0xddf252ad1be2c89b69c2b068fc378daa952ba7f163c4a11628f55a4df523b3ef",
                        "0x0000000000000000000000001d42064fc4beb5f8aaf85f4617ae8b3b5b8bd801",
                        "0x00000000000000000000000051c72848c68a965f66fa7a88855f9f7784502a7f"
                    ]
                },
                "nodeType": 1
            },
            "4": {
                "invocation": {
                    "address": "0x1f9840a85d5af5bf1d1762f925bdaddc4201f984",
                    "callData": "0x0000000000000000000000001d42064fc4beb5f8aaf85f4617ae8b3b5b8bd801",
                    "decodedMethod": {
                        "callParams": [
                            {
                                "name": "account",
                                "type": "address",
                                "value": "0x1d42064fc4beb5f8aaf85f4617ae8b3b5b8bd801"
                            }
                        ],
                        "constructorArguments": "",
                        "name": "balanceOf",
                        "returnParams": [
                            {
                                "decimalAvailable": true,
                                "name": "",
                                "type": "uint256",
                                "value": "2,744,830,428,486,403,172,155,124"
                            }
                        ],
                        "signature": "balanceOf(address)"
                    },
                    "errorInfo": "",
                    "fromAddress": "0x1d42064fc4beb5f8aaf85f4617ae8b3b5b8bd801",
                    "gasUsed": 2797,
                    "id": 4,
                    "methodDecoded": true,
                    "operation": "STATICCALL",
                    "output": "0x00000000000000000000000000000000000000000002453d8e41458005613ef4",
                    "revert": false,
                    "revertMessage": "",
                    "selector": "0x70a08231",
                    "status": true,
                    "value": "0"
                },
                "nodeType": 0
            },
            "5": {
                "invocation": {
                    "address": "0x51c72848c68a965f66fa7a88855f9f7784502a7f",
                    "callData": "0x000000000000000000000000000000000000000000000039125c30218ebc0000ffffffffffffffffffffffffffffffffffffffffffffffffd7ae2e647a1236c0000000000000000000000000000000000000000000000000000000000000006000000000000000000000000000000000000000000000000000000000000000141f9840a85d5af5bf1d1762f925bdaddc4201f984000000000000000000000000",
                    "decodedMethod": {
                        "callParams": [
                            {
                                "name": "amount0Delta",
                                "type": "int256",
                                "value": "1,052,787,397,512,671,264,768"
                            },
                            {
                                "name": "amount1Delta",
                                "type": "int256",
                                "value": "-2,905,333,700,527,769,920"
                            },
                            {
                                "name": "data",
                                "type": "bytes",
                                "value": "0x1f9840a85d5af5bf1d1762f925bdaddc4201f984"
                            }
                        ],
                        "constructorArguments": "",
                        "name": "uniswapV3SwapCallback",
                        "returnParams": [],
                        "signature": "uniswapV3SwapCallback(int256,int256,bytes)"
                    },
                    "errorInfo": "",
                    "fromAddress": "0x1d42064fc4beb5f8aaf85f4617ae8b3b5b8bd801",
                    "gasUsed": 19223,
                    "id": 5,
                    "methodDecoded": true,
                    "operation": "CALL",
                    "output": "",
                    "revert": false,
                    "revertMessage": "",
                    "selector": "0xfa461e33",
                    "status": true,
                    "value": "0"
                },
                "nodeType": 0
            },
            "6": {
                "invocation": {
                    "address": "0x1f9840a85d5af5bf1d1762f925bdaddc4201f984",
                    "callData": "0x0000000000000000000000001d42064fc4beb5f8aaf85f4617ae8b3b5b8bd801000000000000000000000000000000000000000000000039125c30218ebc0000",
                    "decodedMethod": {
                        "callParams": [
                            {
                                "name": "dst",
                                "type": "address",
                                "value": "0x1d42064fc4beb5f8aaf85f4617ae8b3b5b8bd801"
                            },
                            {
                                "decimalAvailable": true,
                                "name": "rawAmount",
                                "type": "uint256",
                                "value": "1,052,787,397,512,671,264,768"
                            }
                        ],
                        "constructorArguments": "",
                        "name": "transfer",
                        "returnParams": [
                            {
                                "name": "",
                                "type": "bool",
                                "value": true
                            }
                        ],
                        "signature": "transfer(address,uint256)"
                    },
                    "errorInfo": "",
                    "fromAddress": "0x51c72848c68a965f66fa7a88855f9f7784502a7f",
                    "gasUsed": 16462,
                    "id": 6,
                    "methodDecoded": true,
                    "operation": "CALL",
                    "output": "0x0000000000000000000000000000000000000000000000000000000000000001",
                    "revert": false,
                    "revertMessage": "",
                    "selector": "0xa9059cbb",
                    "status": true,
                    "value": "0"
                },
                "nodeType": 0
            },
            "7": {
                "event": {
                    "contract": "0x1f9840a85d5af5bf1d1762f925bdaddc4201f984",
                    "decodedLog": {
                        "name": "Transfer",
                        "params": [
                            {
                                "name": "from",
                                "type": "address",
                                "value": "0x51c72848c68a965f66fa7a88855f9f7784502a7f"
                            },
                            {
                                "name": "to",
                                "type": "address",
                                "value": "0x1d42064fc4beb5f8aaf85f4617ae8b3b5b8bd801"
                            },
                            {
                                "decimalAvailable": true,
                                "name": "amount",
                                "type": "uint256",
                                "value": "1,052,787,397,512,671,264,768"
                            }
                        ],
                        "signature": "Transfer(address,address,uint256)"
                    },
                    "id": 7,
                    "logData": "0x000000000000000000000000000000000000000000000039125c30218ebc0000",
                    "logDecoded": true,
                    "operation": "EVENT",
                    "revert": false,
                    "status": true,
                    "topics": [
                        "0xddf252ad1be2c89b69c2b068fc378daa952ba7f163c4a11628f55a4df523b3ef",
                        "0x00000000000000000000000051c72848c68a965f66fa7a88855f9f7784502a7f",
                        "0x0000000000000000000000001d42064fc4beb5f8aaf85f4617ae8b3b5b8bd801"
                    ]
                },
                "nodeType": 1
            },
            "8": {
                "invocation": {
                    "address": "0x1f9840a85d5af5bf1d1762f925bdaddc4201f984",
                    "callData": "0x0000000000000000000000001d42064fc4beb5f8aaf85f4617ae8b3b5b8bd801",
                    "decodedMethod": {
                        "callParams": [
                            {
                                "name": "account",
                                "type": "address",
                                "value": "0x1d42064fc4beb5f8aaf85f4617ae8b3b5b8bd801"
                            }
                        ],
                        "constructorArguments": "",
                        "name": "balanceOf",
                        "returnParams": [
                            {
                                "decimalAvailable": true,
                                "name": "",
                                "type": "uint256",
                                "value": "2,745,883,215,883,915,843,419,892"
                            }
                        ],
                        "signature": "balanceOf(address)"
                    },
                    "errorInfo": "",
                    "fromAddress": "0x1d42064fc4beb5f8aaf85f4617ae8b3b5b8bd801",
                    "gasUsed": 797,
                    "id": 8,
                    "methodDecoded": true,
                    "operation": "STATICCALL",
                    "output": "0x000000000000000000000000000000000000000000024576a09d75a1941d3ef4",
                    "revert": false,
                    "revertMessage": "",
                    "selector": "0x70a08231",
                    "status": true,
                    "value": "0"
                },
                "nodeType": 0
            },
            "9": {
                "event": {
                    "contract": "0x1d42064fc4beb5f8aaf85f4617ae8b3b5b8bd801",
                    "decodedLog": {
                        "name": "Swap",
                        "params": [
                            {
                                "name": "sender",
                                "type": "address",
                                "value": "0x51c72848c68a965f66fa7a88855f9f7784502a7f"
                            },
                            {
                                "name": "recipient",
                                "type": "address",
                                "value": "0x51c72848c68a965f66fa7a88855f9f7784502a7f"
                            },
                            {
                                "name": "amount0",
                                "type": "int256",
                                "value": "1,052,787,397,512,671,264,768"
                            },
                            {
                                "name": "amount1",
                                "type": "int256",
                                "value": "-2,905,333,700,527,769,920"
                            },
                            {
                                "name": "sqrtPriceX96",
                                "type": "uint160",
                                "value": "4,168,071,954,326,129,460,830,274,629"
                            },
                            {
                                "name": "liquidity",
                                "type": "uint128",
                                "value": "490,065,123,493,774,354,641,398"
                            },
                            {
                                "name": "tick",
                                "type": "int24",
                                "value": "-58,901"
                            }
                        ],
                        "signature": "Swap(address,address,int256,int256,uint160,uint128,int24)"
                    },
                    "id": 9,
                    "logData": "0x000000000000000000000000000000000000000000000039125c30218ebc0000ffffffffffffffffffffffffffffffffffffffffffffffffd7ae2e647a1236c000000000000000000000000000000000000000000d77bf9165d72d48189c04450000000000000000000000000000000000000000000067c67bcbbd48970571f6ffffffffffffffffffffffffffffffffffffffffffffffffffffffffffff19eb",
                    "logDecoded": true,
                    "operation": "EVENT",
                    "revert": false,
                    "status": true,
                    "topics": [
                        "0xc42079f94a6350d7e6235f29174924f928cc2ac818eb64fed8004e115fbcca67",
                        "0x00000000000000000000000051c72848c68a965f66fa7a88855f9f7784502a7f",
                        "0x00000000000000000000000051c72848c68a965f66fa7a88855f9f7784502a7f"
                    ]
                },
                "nodeType": 1
            }
        },
        "gasFlame": [
            {
                "children": [
                    {
                        "children": [
                            {
                                "children": [],
                                "depth": 0,
                                "name": "Initial Gas",
                                "value": 22948
                            },
                            {
                                "children": [
                                    {
                                        "children": [
                                            {
                                                "children": [],
                                                "depth": 2,
                                                "name": "transfer",
                                                "value": 12862
                                            },
                                            {
                                                "children": [],
                                                "depth": 2,
                                                "name": "balanceOf",
                                                "value": 2797
                                            },
                                            {
                                                "children": [
                                                    {
                                                        "children": [],
                                                        "depth": 3,
                                                        "name": "transfer",
                                                        "value": 16462
                                                    }
                                                ],
                                                "depth": 2,
                                                "name": "uniswapV3SwapCallback",
                                                "value": 19223
                                            },
                                            {
                                                "children": [],
                                                "depth": 2,
                                                "name": "balanceOf",
                                                "value": 797
                                            }
                                        ],
                                        "depth": 1,
                                        "name": "swap",
                                        "value": 82185
                                    }
                                ],
                                "depth": 0,
                                "name": "Executed Gas",
                                "value": 92921
                            }
                        ],
                        "depth": -1,
                        "name": "Actual Gas Used",
                        "value": 115869
                    },
                    {
                        "children": [],
                        "depth": -1,
                        "name": "Refunded Gas",
                        "value": 0
                    }
                ],
                "depth": -2,
                "name": "Total Gas",
                "value": 115869
            }
        ],
        "isConfirmed": true,
        "mainTrace": [
            {
                "children": [
                    {
                        "children": [
                            {
                                "children": [
                                    {
                                        "children": [
                                            {
                                                "children": [],
                                                "depth": 3,
                                                "id": 3,
                                                "order": 3
                                            }
                                        ],
                                        "depth": 2,
                                        "id": 2,
                                        "order": 2
                                    },
                                    {
                                        "children": [],
                                        "depth": 2,
                                        "id": 4,
                                        "order": 4
                                    },
                                    {
                                        "children": [
                                            {
                                                "children": [
                                                    {
                                                        "children": [],
                                                        "depth": 4,
                                                        "id": 7,
                                                        "order": 7
                                                    }
                                                ],
                                                "depth": 3,
                                                "id": 6,
                                                "order": 6
                                            }
                                        ],
                                        "depth": 2,
                                        "id": 5,
                                        "order": 5
                                    },
                                    {
                                        "children": [],
                                        "depth": 2,
                                        "id": 8,
                                        "order": 8
                                    },
                                    {
                                        "children": [],
                                        "depth": 2,
                                        "id": 9,
                                        "order": 9
                                    }
                                ],
                                "depth": 1,
                                "id": 1,
                                "order": 1
                            }
                        ],
                        "depth": 0,
                        "id": 0,
                        "order": 0
                    }
                ],
                "depth": -1,
                "id": -1,
                "order": -1
            }
        ],
        "mainTraceNodeCount": 10,
        "parentIdMap": {
            "0": -1,
            "1": 0,
            "2": 1,
            "3": 2,
            "4": 1,
            "5": 1,
            "6": 5,
            "7": 6,
            "8": 1,
            "9": 1
        },
        "tidyTrace": [
            {
                "children": [
                    {
                        "children": [
                            {
                                "children": [
                                    {
                                        "children": [
                                            {
                                                "children": [],
                                                "depth": 3,
                                                "id": 3,
                                                "order": 3
                                            }
                                        ],
                                        "depth": 2,
                                        "id": 2,
                                        "order": 2
                                    },
                                    {
                                        "children": [
                                            {
                                                "children": [
                                                    {
                                                        "children": [],
                                                        "depth": 4,
                                                        "id": 7,
                                                        "order": 7
                                                    }
                                                ],
                                                "depth": 3,
                                                "id": 6,
                                                "order": 6
                                            }
                                        ],
                                        "depth": 2,
                                        "id": 5,
                                        "order": 5
                                    },
                                    {
                                        "children": [],
                                        "depth": 2,
                                        "id": 9,
                                        "order": 9
                                    }
                                ],
                                "depth": 1,
                                "id": 1,
                                "order": 1
                            }
                        ],
                        "depth": 0,
                        "id": 0,
                        "order": 0
                    }
                ],
                "depth": -1,
                "id": -1,
                "order": -1
            }
        ],
        "tidyTraceNodeCount": 8
    },
    "state_change": {
        "stateChanges": [
            {
                "address": "0x1d42064fc4beb5f8aaf85f4617ae8b3b5b8bd801",
                "erc": "",
                "slots": [
                    {
                        "current": "0x000100012c012c003dff19eb00000000000000000d77bf9165d72d48189c0445",
                        "key": "0x0000000000000000000000000000000000000000000000000000000000000000",
                        "prev": "0x000100012c012c003cff19ed00000000000000000d782307f585d46fa823759b"
                    },
                    {
                        "current": "0x010000000000000000000a2abc954730e1da5524bbfffa9f5ad25cae66e5b827",
                        "key": "0x0000000000000000000000000000000000000000000000000000000000000045",
                        "prev": "0x010000000000000000000a2ab91274ae66b6cd34e5fffaa09b30c03e66e4528b"
                    },
                    {
                        "current": "0x00000000000000000000000000000002b1e5a8d71c194a7bdc31cd344990c648",
                        "key": "0x0000000000000000000000000000000000000000000000000000000000000001",
                        "prev": "0x00000000000000000000000000000002b1e53cb6fce8a5e250b355c8db339162"
                    }
                ],
                "storageVariables": [
                    {
                        "name": "slot0",
                        "type": "struct UniswapV3Pool.Slot0",
                        "value": {
                            "fields": [
                                {
                                    "name": "sqrtPriceX96",
                                    "type": "uint160",
                                    "value": {
                                        "current": "4168071954326129460830274629",
                                        "prev": "4168541655677130635158451611",
                                        "typeTag": 1
                                    }
                                },
                                {
                                    "name": "tick",
                                    "type": "int24",
                                    "value": {
                                        "current": "-58901",
                                        "prev": "-58899",
                                        "typeTag": 1
                                    }
                                },
                                {
                                    "name": "observationIndex",
                                    "type": "uint16",
                                    "value": {
                                        "current": "61",
                                        "prev": "60",
                                        "typeTag": 1
                                    }
                                },
                                {
                                    "name": "observationCardinality",
                                    "type": "uint16",
                                    "value": {
                                        "current": "300",
                                        "prev": "300",
                                        "typeTag": 1
                                    }
                                },
                                {
                                    "name": "observationCardinalityNext",
                                    "type": "uint16",
                                    "value": {
                                        "current": "300",
                                        "prev": "300",
                                        "typeTag": 1
                                    }
                                },
                                {
                                    "name": "feeProtocol",
                                    "type": "uint8",
                                    "value": {
                                        "current": "0",
                                        "prev": "0",
                                        "typeTag": 1
                                    }
                                },
                                {
                                    "name": "unlocked",
                                    "type": "bool",
                                    "value": {
                                        "current": "true",
                                        "prev": "true",
                                        "typeTag": 1
                                    }
                                }
                            ],
                            "typeTag": 3
                        }
                    },
                    {
                        "name": "feeGrowthGlobal0X128",
                        "type": "uint256",
                        "value": {
                            "current": "917030549563976021165544323603055560264",
                            "prev": "917028356518784785284369898354645373282",
                            "typeTag": 1
                        }
                    }
                ]
            },
            {
                "address": "0x1f9840a85d5af5bf1d1762f925bdaddc4201f984",
                "erc": "ERC-20",
                "slots": [
                    {
                        "current": "0x0000000000000000000000000000000000000000000011e3e14df11a1c28f544",
                        "key": "0x4624fe8c9e30266e687689c84f542d65572d5bab62969086f87d477e895c42b1",
                        "prev": "0x00000000000000000000000000000000000000000000121cf3aa213baae4f544"
                    },
                    {
                        "current": "0x000000000000000000000000000000000000000000024576a09d75a1941d3ef4",
                        "key": "0x60cff0c23fc1da8f79d34e3688edc4bc06ef31879f0820ff513318f2bfefa8e1",
                        "prev": "0x00000000000000000000000000000000000000000002453d8e41458005613ef4"
                    }
                ],
                "storageVariables": [
                    {
                        "name": "balances",
                        "type": "mapping(address => uint96)",
                        "value": {
                            "pairs": [
                                {
                                    "key": "0x1d42064fc4beb5f8aaf85f4617ae8b3b5b8bd801",
                                    "value": {
                                        "current": "2745883215883915843419892",
                                        "prev": "2744830428486403172155124",
                                        "typeTag": 1
                                    }
                                },
                                {
                                    "key": "0x51c72848c68a965f66fa7a88855f9f7784502a7f",
                                    "value": {
                                        "current": "84483876010842221245764",
                                        "prev": "85536663408354892510532",
                                        "typeTag": 1
                                    }
                                }
                            ],
                            "typeTag": 4
                        }
                    }
                ]
            },
            {
                "address": "0xc02aaa39b223fe8d0a0e5c4f27ead9083c756cc2",
                "erc": "ERC-20",
                "slots": [
                    {
                        "current": "0x00000000000000000000000000000000000000000000009f16a953fb88a10dc4",
                        "key": "0xb884b91182324d70fdc7c8411c40d802e62f41c4ddf8f831a011e7cd7c4072f1",
                        "prev": "0x00000000000000000000000000000000000000000000009f3efb25970e8ed704"
                    },
                    {
                        "current": "0x00000000000000000000000000000000000000000000010a8fa5e54b3b9a84fd",
                        "key": "0x3a3aec5717af62dfc0f5ede964a3e44cef7c5ba4453963ee6e3545ea9708690f",
                        "prev": "0x00000000000000000000000000000000000000000000010a675413afb5acbbbd"
                    }
                ],
                "storageVariables": [
                    {
                        "name": "balanceOf",
                        "type": "mapping(address => uint256)",
                        "value": {
                            "pairs": [
                                {
                                    "key": "0x1d42064fc4beb5f8aaf85f4617ae8b3b5b8bd801",
                                    "value": {
                                        "current": "2934665236399511375300",
                                        "prev": "2937570570100039145220",
                                        "typeTag": 1
                                    }
                                },
                                {
                                    "key": "0x51c72848c68a965f66fa7a88855f9f7784502a7f",
                                    "value": {
                                        "current": "4917184855036606973181",
                                        "prev": "4914279521336079203261",
                                        "typeTag": 1
                                    }
                                }
                            ],
                            "typeTag": 4
                        }
                    }
                ]
            }
        ]
    }
}