{
    "balance_change": {
        "balanceChanges": [
            {
                "account": "0x78487c297d6db56a749b5736162b6063ebca41f1",
                "assets": [
                    {
                        "address": "0x83d60e7aed59c6829fb251229061a55f35432c4d",
                        "amount": "5,457.214405",
                        "iconUrl": "",
                        "isERC1155": false,
                        "isERC721": false,
                        "sign": false,
                        "value": ""
                    }
                ]
            },
            {
                "account": "0x881b0fd952ae65ae8288df2fb78f5f3852a289b0",
                "assets": [
                    {
                        "address": "0x83d60e7aed59c6829fb251229061a55f35432c4d",
                        "amount": "5,457.214405",
                        "iconUrl": "",
                        "isERC1155": false,
                        "isERC721": false,
                        "sign": true,
                        "value": ""
                    }
                ]
            }
        ]
    },
    "profile": {
        "basic_info": {
            "baseFee": "",
            "blockNumber": 9795665,
            "callData": "0xa9059cbb000000000000000000000000881b0fd952ae65ae8288df2fb78f5f3852a289b00000000000000000000000000000000000000000000000000000000145467bc5",
            "debugEnable": true,
            "errorInfo": "",
            "eventCount": 1,
            "feeRecipient": "0xda466bf1ce3c69dbef918817305cf989a6353423",
            "formatValue": "0",
            "gasLimit": 1600000,
            "gasPrice": "6.6",
            "gasUsed": 52587,
            "intTxnCount": 0,
            "internalRevert": false,
            "internalRevertMessage": "",
            "isContractCreation": false,
            "isFlashloan": false,
            "maxFee": "",
            "nonce": 36514,
            "overwritedBlockNumber": -1,
            "priorityFee": "",
            "receiver": "0x83d60e7aed59c6829fb251229061a55f35432c4d",
            "revertMessage": "",
            "sender": "0x78487c297d6db56a749b5736162b6063ebca41f1",
            "simulationEnable": true,
            "sourceTxnHash": "0x77369f52403d3f90fd78d487535639c35afd811dd42672911157335c10435ee9",
            "status": true,
            "timestamp": "2020-04-03T00:05:04Z",
            "transactionFee": "0.0003470742",
            "txnHash": "0x77369f52403d3f90fd78d487535639c35afd811dd42672911157335c10435ee9",
            "txnIndex": 70,
            "type": 0,
            "value": "0"
        },
        "fund_flow": [
            {
                "amount": "5,457.214405",
                "from": "0x78487c297d6db56a749b5736162b6063ebca41f1",
                "id": 1,
                "isERC1155": false,
                "isERC721": false,
                "isReverted": false,
                "order": 1,
                "to": "0x881b0fd952ae65ae8288df2fb78f5f3852a289b0",
                "token": "0x83d60e7aed59c6829fb251229061a55f35432c4d"
            }
        ],
        "token_infos": [
            {
                "address": "0x83d60e7aed59c6829fb251229061a55f35432c4d",
                "decimals": 6
            },
            {
                "address": "0xc02aaa39b223fe8d0a0e5c4f27ead9083c756cc2",
                "decimals": 18
            },
            {
                "address": "0xeeeeeeeeeeeeeeeeeeeeeeeeeeeeeeeeeeeeeeee",
                "decimals": 18
            }
        ]
    },
    "address_label": {
        "labels": [
            {
                "address": "0x0000000000000000000000000000000000000002",
                "label": "Precompiled"
            },
            {
                "address": "0x0000000000000000000000000000000000000003",
                "label": "Precompiled"
            },
            {
                "address": "0x0000000000000000000000000000000000000004",
                "label": "Precompiled"
            },
            {
                "address": "0xeeeeeeeeeeeeeeeeeeeeeeeeeeeeeeeeeeeeeeee",
                "label": "Ether"
            },
            {
                "address": "0x881b0fd952ae65ae8288df2fb78f5f3852a289b0",
                "label": "ASCENDEX"
            },
            {
                "address": "0x83d60e7aed59c6829fb251229061a55f35432c4d",
                "label": "Infinito Token"
            },
            {
                "address": "0x0000000000000000000000000000000000000001",
                "label": "Precompiled"
            }
        ]
    },
    "trace": {
        "accountLabels": null,
        "dataMap": {
            "-1": {
                "invocation": {
                    "address": "0x78487c297d6db56a749b5736162b6063ebca41f1",
                    "callData": "",
                    "decodedMethod": null,
                    "errorInfo": "",
                    "fromAddress": "",
                    "gasUsed": 0,
                    "id": -1,
                    "methodDecoded": false,
                    "operation": "",
                    "output": "",
                    "revert": false,
                    "revertMessage": "",
                    "selector": "",
                    "status": false,
                    "value": ""
                },
                "nodeType": 0
            },
            "0": {
                "invocation": {
                    "address": "0x83d60e7aed59c6829fb251229061a55f35432c4d",
                    "callData": "0x000000000000000000000000881b0fd952ae65ae8288df2fb78f5f3852a289b00000000000000000000000000000000000000000000000000000000145467bc5",
                    "decodedMethod": {
                        "callParams": [
                            {
                                "name": "to",
                                "type": "address",
                                "value": "0x881b0fd952ae65ae8288df2fb78f5f3852a289b0"
                            },
                            {
                                "decimalAvailable": true,
                                "name": "value",
                                "type": "uint256",
                                "value": "5,457,214,405"
                            }
                        ],
                        "constructorArguments": "",
                        "name": "transfer",
                        "returnParams": [
                            {
                                "name": "",
                                "type": "bool",
                                "value": true
                            }
                        ],
                        "signature": "transfer(address,uint256)"
                    },
                    "errorInfo": "",
                    "fromAddress": "0x78487c297d6db56a749b5736162b6063ebca41f1",
                    "gasUsed": 52587,
                    "id": 0,
                    "methodDecoded": true,
                    "operation": "CALL",
                    "output": "0x0000000000000000000000000000000000000000000000000000000000000001",
                    "revert": false,
                    "revertMessage": "",
                    "selector": "0xa9059cbb",
                    "status": true,
                    "value": "0"
                },
                "nodeType": 0
            },
            "1": {
                "event": {
                    "contract": "0x83d60e7aed59c6829fb251229061a55f35432c4d",
                    "decodedLog": {
                        "name": "Transfer",
                        "params": [
                            {
                                "name": "from",
                                "type": "address",
                                "value": "0x78487c297d6db56a749b5736162b6063ebca41f1"
                            },
                            {
                                "name": "to",
                                "type": "address",
                                "value": "0x881b0fd952ae65ae8288df2fb78f5f3852a289b0"
                            },
                            {
                                "decimalAvailable": true,
                                "name": "value",
                                "type": "uint256",
                                "value": "5,457,214,405"
                            }
                        ],
                        "signature": "Transfer(address,address,uint256)"
                    },
                    "id": 1,
                    "logData": "0x0000000000000000000000000000000000000000000000000000000145467bc5",
                    "logDecoded": true,
                    "operation": "EVENT",
                    "revert": false,
                    "status": true,
                    "topics": [
                        "0xddf252ad1be2c89b69c2b068fc378daa952ba7f163c4a11628f55a4df523b3ef",
                        "0x00000000000000000000000078487c297d6db56a749b5736162b6063ebca41f1",
                        "0x000000000000000000000000881b0fd952ae65ae8288df2fb78f5f3852a289b0"
                    ]
                },
                "nodeType": 1
            }
        },
        "gasFlame": [
            {
                "children": [
                    {
                        "children": [
                            {
                                "children": [],
                                "depth": 0,
                                "name": "Initial Gas",
                                "value": 21620
                            },
                            {
                                "children": [],
                                "depth": 0,
                                "name": "Executed Gas",
                                "value": 30967
                            }
                        ],
                        "depth": -1,
                        "name": "Actual Gas Used",
                        "value": 52587
                    },
                    {
                        "children": [],
                        "depth": -1,
                        "name": "Refunded Gas",
                        "value": 0
                    }
                ],
                "depth": -2,
                "name": "Total Gas",
                "value": 52587
            }
        ],
        "isConfirmed": true,
        "mainTrace": [
            {
                "children": [
                    {
                        "children": [
                            {
                                "children": [],
                                "depth": 1,
                                "id": 1,
                                "order": 1
                            }
                        ],
                        "depth": 0,
                        "id": 0,
                        "order": 0
                    }
                ],
                "depth": -1,
                "id": -1,
                "order": -1
            }
        ],
        "mainTraceNodeCount": 2,
        "parentIdMap": {
            "0": -1,
            "1": 0
        },
        "tidyTrace": [
            {
                "children": [
                    {
                        "children": [
                            {
                                "children": [],
                                "depth": 1,
                                "id": 1,
                                "order": 1
                            }
                        ],
                        "depth": 0,
                        "id": 0,
                        "order": 0
                    }
                ],
                "depth": -1,
                "id": -1,
                "order": -1
            }
        ],
        "tidyTraceNodeCount": 2
    },
    "state_change": {
        "stateChanges": [
            {
                "address": "0x83d60e7aed59c6829fb251229061a55f35432c4d",
                "erc": "ERC-20",
                "slots": [
                    {
                        "current": "0x00000000000000000000000000000000000000000000000000001fa6c2ef02a2",
                        "key": "0x19547538031b2ef562481afd69db2096a51e5ce6b8aa8b3952b47b5f1684a696",
                        "prev": "0x00000000000000000000000000000000000000000000000000001fa808357e67"
                    },
                    {
                        "current": "0x0000000000000000000000000000000000000000000000000000000145467bc5",
                        "key": "0x6d9bd84095beae95f8341519cdc2e827bd388859cd8215afbc6c56c91b9050d6",
                        "prev": "0x0000000000000000000000000000000000000000000000000000000000000000"
                    }
                ],
                "storageVariables": [
                    {
                        "name": "_balances",
                        "type": "mapping(address => uint256)",
                        "value": {
                            "pairs": [
                                {
                                    "key": "0x78487c297d6db56a749b5736162b6063ebca41f1",
                                    "value": {
                                        "current": "34801095475874",
                                        "prev": "34806552690279",
                                        "typeTag": 1
                                    }
                                },
                                {
                                    "key": "0x881b0fd952ae65ae8288df2fb78f5f3852a289b0",
                                    "value": {
                                        "current": "5457214405",
                                        "prev": "0",
                                        "typeTag": 1
                                    }
                                }
                            ],
                            "typeTag": 4
                        }
                    }
                ]
            }
        ]
    }
}