{
    "balance_change": {
        "balanceChanges": [
            {
                "account": "0x526c56e1def033896d46cda96ab7b91cdc8ca626",
                "assets": [
                    {
                        "address": "0x0e50e6d6bb434938d8fe670a2d7a14cd128eb50f",
                        "amount": "6.32192",
                        "iconUrl": "",
                        "isERC1155": false,
                        "isERC721": false,
                        "sign": false,
                        "value": ""
                    }
                ]
            },
            {
                "account": "0xcd4f3e4a440f91b0c5817bb2725d8372eb8a539b",
                "assets": [
                    {
                        "address": "0x0e50e6d6bb434938d8fe670a2d7a14cd128eb50f",
                        "amount": "6.32192",
                        "iconUrl": "",
                        "isERC1155": false,
                        "isERC721": false,
                        "sign": true,
                        "value": ""
                    }
                ]
            }
        ]
    },
    "profile": {
        "basic_info": {
            "baseFee": "",
            "blockNumber": 7114839,
            "callData": "0xa9059cbb000000000000000000000000cd4f3e4a440f91b0c5817bb2725d8372eb8a539b0000000000000000000000000000000000000000000000000000000178d0d800",
            "debugEnable": true,
            "errorInfo": "",
            "eventCount": 1,
            "feeRecipient": "0x52bc44d5378309ee2abf1539bf71de1b7d7be3b5",
            "formatValue": "0",
            "gasLimit": 70000,
            "gasPrice": "20",
            "gasUsed": 37774,
            "intTxnCount": 0,
            "internalRevert": false,
            "internalRevertMessage": "",
            "isContractCreation": false,
            "isFlashloan": false,
            "maxFee": "",
            "nonce": 35162,
            "overwritedBlockNumber": -1,
            "priorityFee": "",
            "receiver": "0x0e50e6d6bb434938d8fe670a2d7a14cd128eb50f",
            "revertMessage": "",
            "sender": "0x526c56e1def033896d46cda96ab7b91cdc8ca626",
            "simulationEnable": true,
            "sourceTxnHash": "0x78875f02cee601df5916d5be3a75e68487a3c8b883f921dd132f4b67f903d538",
            "status": true,
            "timestamp": "2019-01-23T17:16:27Z",
            "transactionFee": "0.00075548",
            "txnHash": "0x78875f02cee601df5916d5be3a75e68487a3c8b883f921dd132f4b67f903d538",
            "txnIndex": 8,
            "type": 0,
            "value": "0"
        },
        "fund_flow": [
            {
                "amount": "6.32192",
                "from": "0x526c56e1def033896d46cda96ab7b91cdc8ca626",
                "id": 1,
                "isERC1155": false,
                "isERC721": false,
                "isReverted": false,
                "order": 1,
                "to": "0xcd4f3e4a440f91b0c5817bb2725d8372eb8a539b",
                "token": "0x0e50e6d6bb434938d8fe670a2d7a14cd128eb50f"
            }
        ],
        "token_infos": [
            {
                "address": "0xc02aaa39b223fe8d0a0e5c4f27ead9083c756cc2",
                "decimals": 18
            },
            {
                "address": "0xeeeeeeeeeeeeeeeeeeeeeeeeeeeeeeeeeeeeeeee",
                "decimals": 18
            },
            {
                "address": "0x0e50e6d6bb434938d8fe670a2d7a14cd128eb50f",
                "decimals": 9
            }
        ]
    },
    "address_label": {
        "labels": [
            {
                "address": "0x0000000000000000000000000000000000000003",
                "label": "Precompiled"
            },
            {
                "address": "0x0000000000000000000000000000000000000004",
                "label": "Precompiled"
            },
            {
                "address": "0xeeeeeeeeeeeeeeeeeeeeeeeeeeeeeeeeeeeeeeee",
                "label": "Ether"
            },
            {
                "address": "0x0e50e6d6bb434938d8fe670a2d7a14cd128eb50f",
                "label": "SUM TOKEN: SUM Token"
            },
            {
                "address": "0x0000000000000000000000000000000000000001",
                "label": "Precompiled"
            },
            {
                "address": "0x0000000000000000000000000000000000000002",
                "label": "Precompiled"
            }
        ]
    },
    "trace": {
        "accountLabels": null,
        "dataMap": {
            "-1": {
                "invocation": {
                    "address": "0x526c56e1def033896d46cda96ab7b91cdc8ca626",
                    "callData": "",
                    "decodedMethod": null,
                    "errorInfo": "",
                    "fromAddress": "",
                    "gasUsed": 0,
                    "id": -1,
                    "methodDecoded": false,
                    "operation": "",
                    "output": "",
                    "revert": false,
                    "revertMessage": "",
                    "selector": "",
                    "status": false,
                    "value": ""
                },
                "nodeType": 0
            },
            "0": {
                "invocation": {
                    "address": "0x0e50e6d6bb434938d8fe670a2d7a14cd128eb50f",
                    "callData": "0x000000000000000000000000cd4f3e4a440f91b0c5817bb2725d8372eb8a539b0000000000000000000000000000000000000000000000000000000178d0d800",
                    "decodedMethod": {
                        "callParams": [
                            {
                                "name": "_to",
                                "type": "address",
                                "value": "0xcd4f3e4a440f91b0c5817bb2725d8372eb8a539b"
                            },
                            {
                                "decimalAvailable": true,
                                "name": "_value",
                                "type": "uint256",
                                "value": "6,321,920,000"
                            }
                        ],
                        "constructorArguments": "",
                        "name": "transfer",
                        "returnParams": [
                            {
                                "name": "success",
                                "type": "bool",
                                "value": true
                            }
                        ],
                        "signature": "transfer(address,uint256)"
                    },
                    "errorInfo": "",
                    "fromAddress": "0x526c56e1def033896d46cda96ab7b91cdc8ca626",
                    "gasUsed": 37774,
                    "id": 0,
                    "methodDecoded": true,
                    "operation": "CALL",
                    "output": "0x0000000000000000000000000000000000000000000000000000000000000001",
                    "revert": false,
                    "revertMessage": "",
                    "selector": "0xa9059cbb",
                    "status": true,
                    "value": "0"
                },
                "nodeType": 0
            },
            "1": {
                "event": {
                    "contract": "0x0e50e6d6bb434938d8fe670a2d7a14cd128eb50f",
                    "decodedLog": {
                        "name": "Transfer",
                        "params": [
                            {
                                "name": "from",
                                "type": "address",
                                "value": "0x526c56e1def033896d46cda96ab7b91cdc8ca626"
                            },
                            {
                                "name": "to",
                                "type": "address",
                                "value": "0xcd4f3e4a440f91b0c5817bb2725d8372eb8a539b"
                            },
                            {
                                "decimalAvailable": true,
                                "name": "value",
                                "type": "uint256",
                                "value": "6,321,920,000"
                            }
                        ],
                        "signature": "Transfer(address,address,uint256)"
                    },
                    "id": 1,
                    "logData": "0x0000000000000000000000000000000000000000000000000000000178d0d800",
                    "logDecoded": true,
                    "operation": "EVENT",
                    "revert": false,
                    "status": true,
                    "topics": [
                        "0xddf252ad1be2c89b69c2b068fc378daa952ba7f163c4a11628f55a4df523b3ef",
                        "0x000000000000000000000000526c56e1def033896d46cda96ab7b91cdc8ca626",
                        "0x000000000000000000000000cd4f3e4a440f91b0c5817bb2725d8372eb8a539b"
                    ]
                },
                "nodeType": 1
            }
        },
        "gasFlame": [
            {
                "children": [
                    {
                        "children": [
                            {
                                "children": [],
                                "depth": 0,
                                "name": "Initial Gas",
                                "value": 23064
                            },
                            {
                                "children": [],
                                "depth": 0,
                                "name": "Executed Gas",
                                "value": 14710
                            }
                        ],
                        "depth": -1,
                        "name": "Actual Gas Used",
                        "value": 37774
                    },
                    {
                        "children": [],
                        "depth": -1,
                        "name": "Refunded Gas",
                        "value": 0
                    }
                ],
                "depth": -2,
                "name": "Total Gas",
                "value": 37774
            }
        ],
        "isConfirmed": true,
        "mainTrace": [
            {
                "children": [
                    {
                        "children": [
                            {
                                "children": [],
                                "depth": 1,
                                "id": 1,
                                "order": 1
                            }
                        ],
                        "depth": 0,
                        "id": 0,
                        "order": 0
                    }
                ],
                "depth": -1,
                "id": -1,
                "order": -1
            }
        ],
        "mainTraceNodeCount": 2,
        "parentIdMap": {
            "0": -1,
            "1": 0
        },
        "tidyTrace": [
            {
                "children": [
                    {
                        "children": [
                            {
                                "children": [],
                                "depth": 1,
                                "id": 1,
                                "order": 1
                            }
                        ],
                        "depth": 0,
                        "id": 0,
                        "order": 0
                    }
                ],
                "depth": -1,
                "id": -1,
                "order": -1
            }
        ],
        "tidyTraceNodeCount": 2
    },
    "state_change": {
        "stateChanges": [
            {
                "address": "0x0e50e6d6bb434938d8fe670a2d7a14cd128eb50f",
                "erc": "ERC-20",
                "slots": [
                    {
                        "current": "0x0000000000000000000000000000000000000000000000000001862218b316c0",
                        "key": "0x79e273829b6b412708bd7e0847725923659da36af22f1dff2385c73fe6847890",
                        "prev": "0x000000000000000000000000000000000000000000000000000186239183eec0"
                    },
                    {
                        "current": "0x0000000000000000000000000000000000000000000000000000001472c496d8",
                        "key": "0x31059539572921e6c630ab73ff09d8c1178e2515148c9267170a55801873afb5",
                        "prev": "0x00000000000000000000000000000000000000000000000000000012f9f3bed8"
                    }
                ],
                "storageVariables": [
                    {
                        "name": "balanceOf",
                        "type": "mapping(address => uint256)",
                        "value": {
                            "pairs": [
                                {
                                    "key": "0x526c56e1def033896d46cda96ab7b91cdc8ca626",
                                    "value": {
                                        "current": "428955978110656",
                                        "prev": "428962300030656",
                                        "typeTag": 1
                                    }
                                },
                                {
                                    "key": "0xcd4f3e4a440f91b0c5817bb2725d8372eb8a539b",
                                    "value": {
                                        "current": "87824832216",
                                        "prev": "81502912216",
                                        "typeTag": 1
                                    }
                                }
                            ],
                            "typeTag": 4
                        }
                    }
                ]
            }
        ]
    }
}