{
    "balance_change": {
        "balanceChanges": [
            {
                "account": "0xfbb1b73c4f0bda4f67dca266ce6ef42f520fbb98",
                "assets": [
                    {
                        "address": "0xc6e145421fd494b26dcf2bfeb1b02b7c5721978f",
                        "amount": "2,340.53634248",
                        "iconUrl": "",
                        "isERC1155": false,
                        "isERC721": false,
                        "sign": false,
                        "value": "85.24173693"
                    }
                ]
            },
            {
                "account": "0x1a76dd3e46ddedb684eebd1470fae4d4f180c679",
                "assets": [
                    {
                        "address": "0xc6e145421fd494b26dcf2bfeb1b02b7c5721978f",
                        "amount": "2,340.53634248",
                        "iconUrl": "",
                        "isERC1155": false,
                        "isERC721": false,
                        "sign": true,
                        "value": "85.24173693"
                    }
                ]
            }
        ]
    },
    "profile": {
        "basic_info": {
            "baseFee": "43.604725188",
            "blockNumber": 14351520,
            "callData": "0xa9059cbb0000000000000000000000001a76dd3e46ddedb684eebd1470fae4d4f180c67900000000000000000000000000000000000000000000007ee1777acae46a2000",
            "debugEnable": true,
            "errorInfo": "",
            "eventCount": 1,
            "feeRecipient": "0xea674fdde714fd979de3edf0f56aa9716b898ec8",
            "formatValue": "0",
            "gasLimit": 150000,
            "gasPrice": "54.993997441",
            "gasUsed": 51991,
            "intTxnCount": 0,
            "internalRevert": false,
            "internalRevertMessage": "",
            "isContractCreation": false,
            "isFlashloan": false,
            "maxFee": "",
            "nonce": 10921694,
            "overwritedBlockNumber": -1,
            "priorityFee": "",
            "receiver": "0xc6e145421fd494b26dcf2bfeb1b02b7c5721978f",
            "revertMessage": "",
            "sender": "0xfbb1b73c4f0bda4f67dca266ce6ef42f520fbb98",
            "simulationEnable": true,
            "sourceTxnHash": "0x78b68ed0b387716914d80d7bcb158ab5a195786a2fb822ba743c2965711f7dce",
            "status": true,
            "timestamp": "2022-03-09T08:25:23Z",
            "transactionFee": "0.002859192920955031",
            "txnHash": "0x78b68ed0b387716914d80d7bcb158ab5a195786a2fb822ba743c2965711f7dce",
            "txnIndex": 4,
            "type": 0,
            "value": "0"
        },
        "fund_flow": [
            {
                "amount": "2,340.53634248",
                "from": "0xfbb1b73c4f0bda4f67dca266ce6ef42f520fbb98",
                "id": 1,
                "isERC1155": false,
                "isERC721": false,
                "isReverted": false,
                "order": 1,
                "to": "0x1a76dd3e46ddedb684eebd1470fae4d4f180c679",
                "token": "0xc6e145421fd494b26dcf2bfeb1b02b7c5721978f"
            }
        ],
        "token_infos": [
            {
                "address": "0xc6e145421fd494b26dcf2bfeb1b02b7c5721978f",
                "decimals": 18
            },
            {
                "address": "0xeeeeeeeeeeeeeeeeeeeeeeeeeeeeeeeeeeeeeeee",
                "decimals": 18
            },
            {
                "address": "0xc02aaa39b223fe8d0a0e5c4f27ead9083c756cc2",
                "decimals": 18
            }
        ]
    },
    "address_label": {
        "labels": [
            {
                "address": "0xfbb1b73c4f0bda4f67dca266ce6ef42f520fbb98",
                "label": "Bittrex"
            },
            {
                "address": "0x1a76dd3e46ddedb684eebd1470fae4d4f180c679",
                "label": "BITTREX"
            },
            {
                "address": "0x0000000000000000000000000000000000000001",
                "label": "Precompiled"
            },
            {
                "address": "0x0000000000000000000000000000000000000002",
                "label": "Precompiled"
            },
            {
                "address": "0x0000000000000000000000000000000000000003",
                "label": "Precompiled"
            },
            {
                "address": "0x0000000000000000000000000000000000000004",
                "label": "Precompiled"
            },
            {
                "address": "0xeeeeeeeeeeeeeeeeeeeeeeeeeeeeeeeeeeeeeeee",
                "label": "Ether"
            },
            {
                "address": "0xc6e145421fd494b26dcf2bfeb1b02b7c5721978f",
                "label": "Crypto Perx (CPRX)"
            }
        ]
    },
    "trace": {
        "accountLabels": null,
        "dataMap": {
            "-1": {
                "invocation": {
                    "address": "0xfbb1b73c4f0bda4f67dca266ce6ef42f520fbb98",
                    "callData": "",
                    "decodedMethod": null,
                    "errorInfo": "",
                    "fromAddress": "",
                    "gasUsed": 0,
                    "id": -1,
                    "methodDecoded": false,
                    "operation": "",
                    "output": "",
                    "revert": false,
                    "revertMessage": "",
                    "selector": "",
                    "status": false,
                    "value": ""
                },
                "nodeType": 0
            },
            "0": {
                "invocation": {
                    "address": "0xc6e145421fd494b26dcf2bfeb1b02b7c5721978f",
                    "callData": "0x0000000000000000000000001a76dd3e46ddedb684eebd1470fae4d4f180c67900000000000000000000000000000000000000000000007ee1777acae46a2000",
                    "decodedMethod": {
                        "callParams": [
                            {
                                "name": "recipient",
                                "type": "address",
                                "value": "0x1a76dd3e46ddedb684eebd1470fae4d4f180c679"
                            },
                            {
                                "decimalAvailable": true,
                                "name": "amount",
                                "type": "uint256",
                                "value": "2,340,536,342,480,000,000,000"
                            }
                        ],
                        "constructorArguments": "",
                        "name": "transfer",
                        "returnParams": [
                            {
                                "name": "",
                                "type": "bool",
                                "value": true
                            }
                        ],
                        "signature": "transfer(address,uint256)"
                    },
                    "errorInfo": "",
                    "fromAddress": "0xfbb1b73c4f0bda4f67dca266ce6ef42f520fbb98",
                    "gasUsed": 51991,
                    "id": 0,
                    "methodDecoded": true,
                    "operation": "CALL",
                    "output": "0x0000000000000000000000000000000000000000000000000000000000000001",
                    "revert": false,
                    "revertMessage": "",
                    "selector": "0xa9059cbb",
                    "status": true,
                    "value": "0"
                },
                "nodeType": 0
            },
            "1": {
                "event": {
                    "contract": "0xc6e145421fd494b26dcf2bfeb1b02b7c5721978f",
                    "decodedLog": {
                        "name": "Transfer",
                        "params": [
                            {
                                "name": "from",
                                "type": "address",
                                "value": "0xfbb1b73c4f0bda4f67dca266ce6ef42f520fbb98"
                            },
                            {
                                "name": "to",
                                "type": "address",
                                "value": "0x1a76dd3e46ddedb684eebd1470fae4d4f180c679"
                            },
                            {
                                "decimalAvailable": true,
                                "name": "value",
                                "type": "uint256",
                                "value": "2,340,536,342,480,000,000,000"
                            }
                        ],
                        "signature": "Transfer(address,address,uint256)"
                    },
                    "id": 1,
                    "logData": "0x00000000000000000000000000000000000000000000007ee1777acae46a2000",
                    "logDecoded": true,
                    "operation": "EVENT",
                    "revert": false,
                    "status": true,
                    "topics": [
                        "0xddf252ad1be2c89b69c2b068fc378daa952ba7f163c4a11628f55a4df523b3ef",
                        "0x000000000000000000000000fbb1b73c4f0bda4f67dca266ce6ef42f520fbb98",
                        "0x0000000000000000000000001a76dd3e46ddedb684eebd1470fae4d4f180c679"
                    ]
                },
                "nodeType": 1
            }
        },
        "gasFlame": [
            {
                "children": [
                    {
                        "children": [
                            {
                                "children": [],
                                "depth": 0,
                                "name": "Initial Gas",
                                "value": 21656
                            },
                            {
                                "children": [],
                                "depth": 0,
                                "name": "Executed Gas",
                                "value": 30335
                            }
                        ],
                        "depth": -1,
                        "name": "Actual Gas Used",
                        "value": 51991
                    },
                    {
                        "children": [],
                        "depth": -1,
                        "name": "Refunded Gas",
                        "value": 0
                    }
                ],
                "depth": -2,
                "name": "Total Gas",
                "value": 51991
            }
        ],
        "isConfirmed": true,
        "mainTrace": [
            {
                "children": [
                    {
                        "children": [
                            {
                                "children": [],
                                "depth": 1,
                                "id": 1,
                                "order": 1
                            }
                        ],
                        "depth": 0,
                        "id": 0,
                        "order": 0
                    }
                ],
                "depth": -1,
                "id": -1,
                "order": -1
            }
        ],
        "mainTraceNodeCount": 2,
        "parentIdMap": {
            "0": -1,
            "1": 0
        },
        "tidyTrace": [
            {
                "children": [
                    {
                        "children": [
                            {
                                "children": [],
                                "depth": 1,
                                "id": 1,
                                "order": 1
                            }
                        ],
                        "depth": 0,
                        "id": 0,
                        "order": 0
                    }
                ],
                "depth": -1,
                "id": -1,
                "order": -1
            }
        ],
        "tidyTraceNodeCount": 2
    },
    "state_change": {
        "stateChanges": [
            {
                "address": "0xc6e145421fd494b26dcf2bfeb1b02b7c5721978f",
                "erc": "ERC-20",
                "slots": [
                    {
                        "current": "0x000000000000000000000000000000000000000001dc74adc0e6b897d8cf2800",
                        "key": "0x36ade940784f9137a5fb2fc91e9d24433e995d4fecfa6710c692a54c9ad82f1b",
                        "prev": "0x000000000000000000000000000000000000000001dc752ca25e3362bd394800"
                    },
                    {
                        "current": "0x00000000000000000000000000000000000000000000007ee1777acae46a2000",
                        "key": "0x318a7258cff3ae3237c4e91dc768af2542fa3eb8f5f4922d92b6e7dd032f1cde",
                        "prev": "0x0000000000000000000000000000000000000000000000000000000000000000"
                    }
                ],
                "storageVariables": [
                    {
                        "name": "_balances",
                        "type": "mapping(address => uint256)",
                        "value": {
                            "pairs": [
                                {
                                    "key": "0x1a76dd3e46ddedb684eebd1470fae4d4f180c679",
                                    "value": {
                                        "current": "2340536342480000000000",
                                        "prev": "0",
                                        "typeTag": 1
                                    }
                                },
                                {
                                    "key": "0xfbb1b73c4f0bda4f67dca266ce6ef42f520fbb98",
                                    "value": {
                                        "current": "575999689835301380000000000",
                                        "prev": "576002030371643860000000000",
                                        "typeTag": 1
                                    }
                                }
                            ],
                            "typeTag": 4
                        }
                    }
                ]
            }
        ]
    }
}