{
    "balance_change": {
        "balanceChanges": []
    },
    "profile": {
        "basic_info": {
            "baseFee": "31.048024093",
            "blockNumber": 16550730,
            "callData": "0xb8f8bad400000000000000000000000000000000000000000000000000000000000000650000000000000000000000000000000000000000000000000000000277cf2a01000000000000000000000000000000000000000000000000000000077cc45ce0",
            "debugEnable": true,
            "errorInfo": "",
            "eventCount": 1,
            "feeRecipient": "0xdafea492d9c6733ae3d56b7ed1adb60692c98bc5",
            "formatValue": "0",
            "gasLimit": 60000,
            "gasPrice": "38.589617625",
            "gasUsed": 38232,
            "intTxnCount": 1,
            "internalRevert": false,
            "internalRevertMessage": "",
            "isContractCreation": false,
            "isFlashloan": false,
            "maxFee": "",
            "nonce": 71482,
            "overwritedBlockNumber": -1,
            "priorityFee": "",
            "receiver": "0x5a54fe5234e811466d5366846283323c954310b2",
            "revertMessage": "",
            "sender": "0xe8463a6d371581d3e40315dad7dbab85f1492da8",
            "simulationEnable": true,
            "sourceTxnHash": "0x7807d0bc9bdd7b185997d96aa524bb218cc38a7240f23918ae87d50f31d08b3c",
            "status": true,
            "timestamp": "2023-02-03T20:45:23Z",
            "transactionFee": "0.001475358261039",
            "txnHash": "0x7807d0bc9bdd7b185997d96aa524bb218cc38a7240f23918ae87d50f31d08b3c",
            "txnIndex": 13,
            "type": 0,
            "value": "0"
        },
        "fund_flow": [],
        "token_infos": [
            {
                "address": "0xc02aaa39b223fe8d0a0e5c4f27ead9083c756cc2",
                "decimals": 18
            },
            {
                "address": "0xeeeeeeeeeeeeeeeeeeeeeeeeeeeeeeeeeeeeeeee",
                "decimals": 18
            }
        ]
    },
    "address_label": {
        "labels": [
            {
                "address": "0x5a54fe5234e811466d5366846283323c954310b2",
                "label": "StarGate: LayerZero Oracle"
            },
            {
                "address": "0x0000000000000000000000000000000000000001",
                "label": "Precompiled"
            },
            {
                "address": "0x0000000000000000000000000000000000000002",
                "label": "Precompiled"
            },
            {
                "address": "0x0000000000000000000000000000000000000003",
                "label": "Precompiled"
            },
            {
                "address": "0x0000000000000000000000000000000000000004",
                "label": "Precompiled"
            },
            {
                "address": "0xeeeeeeeeeeeeeeeeeeeeeeeeeeeeeeeeeeeeeeee",
                "label": "Ether"
            }
        ]
    },
    "trace": {
        "accountLabels": null,
        "dataMap": {
            "-1": {
                "invocation": {
                    "address": "0xe8463a6d371581d3e40315dad7dbab85f1492da8",
                    "callData": "",
                    "decodedMethod": null,
                    "errorInfo": "",
                    "fromAddress": "",
                    "gasUsed": 0,
                    "id": -1,
                    "methodDecoded": false,
                    "operation": "",
                    "output": "",
                    "revert": false,
                    "revertMessage": "",
                    "selector": "",
                    "status": false,
                    "value": ""
                },
                "nodeType": 0
            },
            "0": {
                "invocation": {
                    "address": "0x5a54fe5234e811466d5366846283323c954310b2",
                    "callData": "0x00000000000000000000000000000000000000000000000000000000000000650000000000000000000000000000000000000000000000000000000277cf2a01000000000000000000000000000000000000000000000000000000077cc45ce0",
                    "decodedMethod": {
                        "callParams": [
                            {
                                "name": "_chainId",
                                "type": "uint16",
                                "value": "101"
                            },
                            {
                                "name": "_dstPriceRatio",
                                "type": "uint128",
                                "value": "10,600,000,001"
                            },
                            {
                                "name": "_dstGasPriceInWei",
                                "type": "uint128",
                                "value": "32,158,014,688"
                            }
                        ],
                        "constructorArguments": "",
                        "name": "setDstPrice",
                        "returnParams": [],
                        "signature": "setDstPrice(uint16,uint128,uint128)"
                    },
                    "errorInfo": "",
                    "fromAddress": "0xe8463a6d371581d3e40315dad7dbab85f1492da8",
                    "gasUsed": 38232,
                    "id": 0,
                    "methodDecoded": true,
                    "operation": "CALL",
                    "output": "",
                    "revert": false,
                    "revertMessage": "",
                    "selector": "0xb8f8bad4",
                    "status": true,
                    "value": "0"
                },
                "nodeType": 0
            },
            "1": {
                "invocation": {
                    "address": "0xa0cc33dd6f4819d473226257792afe230ec3c67f",
                    "callData": "0x00000000000000000000000000000000000000000000000000000000000000650000000000000000000000000000000000000000000000000000000277cf2a01000000000000000000000000000000000000000000000000000000077cc45ce0",
                    "decodedMethod": {
                        "callParams": [
                            {
                                "name": "_chainId",
                                "type": "uint16",
                                "value": "101"
                            },
                            {
                                "name": "_dstPriceRatio",
                                "type": "uint128",
                                "value": "10,600,000,001"
                            },
                            {
                                "name": "_dstGasPriceInWei",
                                "type": "uint128",
                                "value": "32,158,014,688"
                            }
                        ],
                        "constructorArguments": "",
                        "name": "setDstPrice",
                        "returnParams": [],
                        "signature": "setDstPrice(uint16,uint128,uint128)"
                    },
                    "errorInfo": "",
                    "fromAddress": "0x5a54fe5234e811466d5366846283323c954310b2",
                    "gasUsed": 11549,
                    "id": 1,
                    "methodDecoded": true,
                    "operation": "DELEGATECALL",
                    "output": "",
                    "revert": false,
                    "revertMessage": "",
                    "selector": "0xb8f8bad4",
                    "status": true,
                    "value": "0"
                },
                "nodeType": 0
            },
            "2": {
                "event": {
                    "contract": "0x5a54fe5234e811466d5366846283323c954310b2",
                    "decodedLog": {
                        "name": "SetDstPrice",
                        "params": [
                            {
                                "name": "chainId",
                                "type": "uint16",
                                "value": "101"
                            },
                            {
                                "name": "dstPriceRatio",
                                "type": "uint128",
                                "value": "10,600,000,001"
                            },
                            {
                                "name": "dstGasPriceInWei",
                                "type": "uint128",
                                "value": "32,158,014,688"
                            }
                        ],
                        "signature": "SetDstPrice(uint16,uint128,uint128)"
                    },
                    "id": 2,
                    "logData": "0x00000000000000000000000000000000000000000000000000000000000000650000000000000000000000000000000000000000000000000000000277cf2a01000000000000000000000000000000000000000000000000000000077cc45ce0",
                    "logDecoded": true,
                    "operation": "EVENT",
                    "revert": false,
                    "status": true,
                    "topics": [
                        "0xa812e6d95f70b4a1555cf2cfcc53d6aa10ca827ef87ce47a0e145eebc0c19a3c"
                    ]
                },
                "nodeType": 1
            }
        },
        "gasFlame": [
            {
                "children": [
                    {
                        "children": [
                            {
                                "children": [],
                                "depth": 0,
                                "name": "Initial Gas",
                                "value": 21580
                            },
                            {
                                "children": [
                                    {
                                        "children": [],
                                        "depth": 1,
                                        "name": "setDstPrice",
                                        "value": 11549
                                    }
                                ],
                                "depth": 0,
                                "name": "Executed Gas",
                                "value": 16652
                            }
                        ],
                        "depth": -1,
                        "name": "Actual Gas Used",
                        "value": 38232
                    },
                    {
                        "children": [],
                        "depth": -1,
                        "name": "Refunded Gas",
                        "value": 0
                    }
                ],
                "depth": -2,
                "name": "Total Gas",
                "value": 38232
            }
        ],
        "isConfirmed": true,
        "mainTrace": [
            {
                "children": [
                    {
                        "children": [
                            {
                                "children": [
                                    {
                                        "children": [],
                                        "depth": 2,
                                        "id": 2,
                                        "order": 2
                                    }
                                ],
                                "depth": 1,
                                "id": 1,
                                "order": 1
                            }
                        ],
                        "depth": 0,
                        "id": 0,
                        "order": 0
                    }
                ],
                "depth": -1,
                "id": -1,
                "order": -1
            }
        ],
        "mainTraceNodeCount": 3,
        "parentIdMap": {
            "0": -1,
            "1": 0,
            "2": 1
        },
        "tidyTrace": [
            {
                "children": [
                    {
                        "children": [
                            {
                                "children": [
                                    {
                                        "children": [],
                                        "depth": 2,
                                        "id": 2,
                                        "order": 2
                                    }
                                ],
                                "depth": 1,
                                "id": 1,
                                "order": 1
                            }
                        ],
                        "depth": 0,
                        "id": 0,
                        "order": 0
                    }
                ],
                "depth": -1,
                "id": -1,
                "order": -1
            }
        ],
        "tidyTraceNodeCount": 3
    },
    "state_change": {
        "stateChanges": [
            {
                "address": "0x5a54fe5234e811466d5366846283323c954310b2",
                "erc": "",
                "slots": [
                    {
                        "current": "0x0000000000000000000000077cc45ce000000000000000000000000277cf2a01",
                        "key": "0x4401a1f0f50b7f07ec6bbaf8421c157fe445a932cd78c1051abfdc6bcb18d5e0",
                        "prev": "0x0000000000000000000000080c6b934c00000000000000000000000277cf2a01"
                    }
                ],
                "storageVariables": []
            }
        ]
    }
}