{
    "balance_change": {
        "balanceChanges": [
            {
                "account": "0x8ac07ecdf5ea76127a8ac8d2f8d8c08f3abe34d5",
                "assets": [
                    {
                        "address": "0xf411903cbc70a74d22900a5de66a2dda66507255",
                        "amount": "18,434.649249992262279666",
                        "iconUrl": "",
                        "isERC1155": false,
                        "isERC721": false,
                        "sign": false,
                        "value": "82.93069149"
                    }
                ]
            },
            {
                "account": "0x915e4a92c559b0e825961a7741450fc1d7844785",
                "assets": [
                    {
                        "address": "0xf411903cbc70a74d22900a5de66a2dda66507255",
                        "amount": "18,434.649249992262279666",
                        "iconUrl": "",
                        "isERC1155": false,
                        "isERC721": false,
                        "sign": true,
                        "value": "82.93069149"
                    }
                ]
            }
        ]
    },
    "profile": {
        "basic_info": {
            "baseFee": "29.419168446",
            "blockNumber": 15491246,
            "callData": "0xa9059cbb000000000000000000000000915e4a92c559b0e825961a7741450fc1d78447850000000000000000000000000000000000000000000003e758268de905ffe1f2",
            "debugEnable": true,
            "errorInfo": "",
            "eventCount": 2,
            "feeRecipient": "0x0c7213bac2b9e7b99aba344243c9de84227911be",
            "formatValue": "0",
            "gasLimit": 108486,
            "gasPrice": "30.919168446",
            "gasUsed": 67524,
            "intTxnCount": 2,
            "internalRevert": false,
            "internalRevertMessage": "",
            "isContractCreation": false,
            "isFlashloan": false,
            "maxFee": "51.689911812",
            "nonce": 64,
            "overwritedBlockNumber": -1,
            "priorityFee": "1.5",
            "receiver": "0xf411903cbc70a74d22900a5de66a2dda66507255",
            "revertMessage": "",
            "sender": "0x8ac07ecdf5ea76127a8ac8d2f8d8c08f3abe34d5",
            "simulationEnable": true,
            "sourceTxnHash": "0x78765db10e6934c46c304b0484d10ccc26215f0fef41f10b99e520b93f919b4c",
            "status": true,
            "timestamp": "2022-09-07T16:01:23Z",
            "transactionFee": "0.002087785930147704",
            "txnHash": "0x78765db10e6934c46c304b0484d10ccc26215f0fef41f10b99e520b93f919b4c",
            "txnIndex": 291,
            "type": 2,
            "value": "0"
        },
        "fund_flow": [
            {
                "amount": "18,434.649249992262279666",
                "from": "0x8ac07ecdf5ea76127a8ac8d2f8d8c08f3abe34d5",
                "id": 1,
                "isERC1155": false,
                "isERC721": false,
                "isReverted": false,
                "order": 1,
                "to": "0x915e4a92c559b0e825961a7741450fc1d7844785",
                "token": "0xf411903cbc70a74d22900a5de66a2dda66507255"
            }
        ],
        "token_infos": [
            {
                "address": "0xeeeeeeeeeeeeeeeeeeeeeeeeeeeeeeeeeeeeeeee",
                "decimals": 18
            },
            {
                "address": "0xc02aaa39b223fe8d0a0e5c4f27ead9083c756cc2",
                "decimals": 18
            },
            {
                "address": "0xf411903cbc70a74d22900a5de66a2dda66507255",
                "decimals": 18
            }
        ]
    },
    "address_label": {
        "labels": [
            {
                "address": "0x0000000000000000000000000000000000000003",
                "label": "Precompiled"
            },
            {
                "address": "0x0000000000000000000000000000000000000004",
                "label": "Precompiled"
            },
            {
                "address": "0xeeeeeeeeeeeeeeeeeeeeeeeeeeeeeeeeeeeeeeee",
                "label": "Ether"
            },
            {
                "address": "0x1820a4b7618bde71dce8cdc73aab6c95905fad24",
                "label": "ERC1820Registry"
            },
            {
                "address": "0x0000000000000000000000000000000000000000",
                "label": "Null Address"
            },
            {
                "address": "0xf411903cbc70a74d22900a5de66a2dda66507255",
                "label": "Verasity: VRA Token"
            },
            {
                "address": "0x0000000000000000000000000000000000000001",
                "label": "Precompiled"
            },
            {
                "address": "0x0000000000000000000000000000000000000002",
                "label": "Precompiled"
            }
        ]
    },
    "trace": {
        "accountLabels": null,
        "dataMap": {
            "-1": {
                "invocation": {
                    "address": "0x8ac07ecdf5ea76127a8ac8d2f8d8c08f3abe34d5",
                    "callData": "",
                    "decodedMethod": null,
                    "errorInfo": "",
                    "fromAddress": "",
                    "gasUsed": 0,
                    "id": -1,
                    "methodDecoded": false,
                    "operation": "",
                    "output": "",
                    "revert": false,
                    "revertMessage": "",
                    "selector": "",
                    "status": false,
                    "value": ""
                },
                "nodeType": 0
            },
            "0": {
                "invocation": {
                    "address": "0xf411903cbc70a74d22900a5de66a2dda66507255",
                    "callData": "0x000000000000000000000000915e4a92c559b0e825961a7741450fc1d78447850000000000000000000000000000000000000000000003e758268de905ffe1f2",
                    "decodedMethod": {
                        "callParams": [
                            {
                                "name": "recipient",
                                "type": "address",
                                "value": "0x915e4a92c559b0e825961a7741450fc1d7844785"
                            },
                            {
                                "decimalAvailable": true,
                                "name": "amount",
                                "type": "uint256",
                                "value": "18,434,649,249,992,262,279,666"
                            }
                        ],
                        "constructorArguments": "",
                        "name": "transfer",
                        "returnParams": [
                            {
                                "name": "",
                                "type": "bool",
                                "value": true
                            }
                        ],
                        "signature": "transfer(address,uint256)"
                    },
                    "errorInfo": "",
                    "fromAddress": "0x8ac07ecdf5ea76127a8ac8d2f8d8c08f3abe34d5",
                    "gasUsed": 67524,
                    "id": 0,
                    "methodDecoded": true,
                    "operation": "CALL",
                    "output": "0x0000000000000000000000000000000000000000000000000000000000000001",
                    "revert": false,
                    "revertMessage": "",
                    "selector": "0xa9059cbb",
                    "status": true,
                    "value": "0"
                },
                "nodeType": 0
            },
            "1": {
                "invocation": {
                    "address": "0x1820a4b7618bde71dce8cdc73aab6c95905fad24",
                    "callData": "0x0000000000000000000000008ac07ecdf5ea76127a8ac8d2f8d8c08f3abe34d529ddb589b1fb5fc7cf394961c1adf5f8c6454761adf795e67fe149f658abe895",
                    "decodedMethod": {
                        "callParams": [
                            {
                                "name": "_addr",
                                "type": "address",
                                "value": "0x8ac07ecdf5ea76127a8ac8d2f8d8c08f3abe34d5"
                            },
                            {
                                "name": "_interfaceHash",
                                "type": "bytes32",
                                "value": "0x29ddb589b1fb5fc7cf394961c1adf5f8c6454761adf795e67fe149f658abe895"
                            }
                        ],
                        "constructorArguments": "",
                        "name": "getInterfaceImplementer",
                        "returnParams": [
                            {
                                "name": "",
                                "type": "address",
                                "value": "0x0000000000000000000000000000000000000000"
                            }
                        ],
                        "signature": "getInterfaceImplementer(address,bytes32)"
                    },
                    "errorInfo": "",
                    "fromAddress": "0xf411903cbc70a74d22900a5de66a2dda66507255",
                    "gasUsed": 2942,
                    "id": 1,
                    "methodDecoded": true,
                    "operation": "STATICCALL",
                    "output": "0x0000000000000000000000000000000000000000000000000000000000000000",
                    "revert": false,
                    "revertMessage": "",
                    "selector": "0xaabbb8ca",
                    "status": true,
                    "value": "0"
                },
                "nodeType": 0
            },
            "2": {
                "event": {
                    "contract": "0xf411903cbc70a74d22900a5de66a2dda66507255",
                    "decodedLog": {
                        "name": "Sent",
                        "params": [
                            {
                                "name": "operator",
                                "type": "address",
                                "value": "0x8ac07ecdf5ea76127a8ac8d2f8d8c08f3abe34d5"
                            },
                            {
                                "name": "from",
                                "type": "address",
                                "value": "0x8ac07ecdf5ea76127a8ac8d2f8d8c08f3abe34d5"
                            },
                            {
                                "name": "to",
                                "type": "address",
                                "value": "0x915e4a92c559b0e825961a7741450fc1d7844785"
                            },
                            {
                                "name": "amount",
                                "type": "uint256",
                                "value": "18,434,649,249,992,262,279,666"
                            },
                            {
                                "name": "data",
                                "type": "bytes",
                                "value": "0x"
                            },
                            {
                                "name": "operatorData",
                                "type": "bytes",
                                "value": "0x"
                            }
                        ],
                        "signature": "Sent(address,address,address,uint256,bytes,bytes)"
                    },
                    "id": 2,
                    "logData": "0x0000000000000000000000000000000000000000000003e758268de905ffe1f20000000000000000000000000000000000000000000000000000000000000060000000000000000000000000000000000000000000000000000000000000008000000000000000000000000000000000000000000000000000000000000000000000000000000000000000000000000000000000000000000000000000000000",
                    "logDecoded": true,
                    "operation": "EVENT",
                    "revert": false,
                    "status": true,
                    "topics": [
                        "0x06b541ddaa720db2b10a4d0cdac39b8d360425fc073085fac19bc82614677987",
                        "0x0000000000000000000000008ac07ecdf5ea76127a8ac8d2f8d8c08f3abe34d5",
                        "0x0000000000000000000000008ac07ecdf5ea76127a8ac8d2f8d8c08f3abe34d5",
                        "0x000000000000000000000000915e4a92c559b0e825961a7741450fc1d7844785"
                    ]
                },
                "nodeType": 1
            },
            "3": {
                "event": {
                    "contract": "0xf411903cbc70a74d22900a5de66a2dda66507255",
                    "decodedLog": {
                        "name": "Transfer",
                        "params": [
                            {
                                "name": "from",
                                "type": "address",
                                "value": "0x8ac07ecdf5ea76127a8ac8d2f8d8c08f3abe34d5"
                            },
                            {
                                "name": "to",
                                "type": "address",
                                "value": "0x915e4a92c559b0e825961a7741450fc1d7844785"
                            },
                            {
                                "decimalAvailable": true,
                                "name": "value",
                                "type": "uint256",
                                "value": "18,434,649,249,992,262,279,666"
                            }
                        ],
                        "signature": "Transfer(address,address,uint256)"
                    },
                    "id": 3,
                    "logData": "0x0000000000000000000000000000000000000000000003e758268de905ffe1f2",
                    "logDecoded": true,
                    "operation": "EVENT",
                    "revert": false,
                    "status": true,
                    "topics": [
                        "0xddf252ad1be2c89b69c2b068fc378daa952ba7f163c4a11628f55a4df523b3ef",
                        "0x0000000000000000000000008ac07ecdf5ea76127a8ac8d2f8d8c08f3abe34d5",
                        "0x000000000000000000000000915e4a92c559b0e825961a7741450fc1d7844785"
                    ]
                },
                "nodeType": 1
            },
            "4": {
                "invocation": {
                    "address": "0x1820a4b7618bde71dce8cdc73aab6c95905fad24",
                    "callData": "0x000000000000000000000000915e4a92c559b0e825961a7741450fc1d7844785b281fc8c12954d22544db45de3159a39272895b169a852b314f9cc762e44c53b",
                    "decodedMethod": {
                        "callParams": [
                            {
                                "name": "_addr",
                                "type": "address",
                                "value": "0x915e4a92c559b0e825961a7741450fc1d7844785"
                            },
                            {
                                "name": "_interfaceHash",
                                "type": "bytes32",
                                "value": "0xb281fc8c12954d22544db45de3159a39272895b169a852b314f9cc762e44c53b"
                            }
                        ],
                        "constructorArguments": "",
                        "name": "getInterfaceImplementer",
                        "returnParams": [
                            {
                                "name": "",
                                "type": "address",
                                "value": "0x0000000000000000000000000000000000000000"
                            }
                        ],
                        "signature": "getInterfaceImplementer(address,bytes32)"
                    },
                    "errorInfo": "",
                    "fromAddress": "0xf411903cbc70a74d22900a5de66a2dda66507255",
                    "gasUsed": 2942,
                    "id": 4,
                    "methodDecoded": true,
                    "operation": "STATICCALL",
                    "output": "0x0000000000000000000000000000000000000000000000000000000000000000",
                    "revert": false,
                    "revertMessage": "",
                    "selector": "0xaabbb8ca",
                    "status": true,
                    "value": "0"
                },
                "nodeType": 0
            }
        },
        "gasFlame": [
            {
                "children": [
                    {
                        "children": [
                            {
                                "children": [],
                                "depth": 0,
                                "name": "Initial Gas",
                                "value": 21680
                            },
                            {
                                "children": [
                                    {
                                        "children": [],
                                        "depth": 1,
                                        "name": "getInterfaceImplementer",
                                        "value": 2942
                                    },
                                    {
                                        "children": [],
                                        "depth": 1,
                                        "name": "getInterfaceImplementer",
                                        "value": 2942
                                    }
                                ],
                                "depth": 0,
                                "name": "Executed Gas",
                                "value": 50644
                            }
                        ],
                        "depth": -1,
                        "name": "Actual Gas Used",
                        "value": 67524
                    },
                    {
                        "children": [],
                        "depth": -1,
                        "name": "Refunded Gas",
                        "value": 4800
                    }
                ],
                "depth": -2,
                "name": "Total Gas",
                "value": 72324
            }
        ],
        "isConfirmed": true,
        "mainTrace": [
            {
                "children": [
                    {
                        "children": [
                            {
                                "children": [],
                                "depth": 1,
                                "id": 1,
                                "order": 1
                            },
                            {
                                "children": [],
                                "depth": 1,
                                "id": 2,
                                "order": 2
                            },
                            {
                                "children": [],
                                "depth": 1,
                                "id": 3,
                                "order": 3
                            },
                            {
                                "children": [],
                                "depth": 1,
                                "id": 4,
                                "order": 4
                            }
                        ],
                        "depth": 0,
                        "id": 0,
                        "order": 0
                    }
                ],
                "depth": -1,
                "id": -1,
                "order": -1
            }
        ],
        "mainTraceNodeCount": 5,
        "parentIdMap": {
            "0": -1,
            "1": 0,
            "2": 0,
            "3": 0,
            "4": 0
        },
        "tidyTrace": [
            {
                "children": [
                    {
                        "children": [
                            {
                                "children": [],
                                "depth": 1,
                                "id": 2,
                                "order": 2
                            },
                            {
                                "children": [],
                                "depth": 1,
                                "id": 3,
                                "order": 3
                            }
                        ],
                        "depth": 0,
                        "id": 0,
                        "order": 0
                    }
                ],
                "depth": -1,
                "id": -1,
                "order": -1
            }
        ],
        "tidyTraceNodeCount": 3
    },
    "state_change": {
        "stateChanges": [
            {
                "address": "0xf411903cbc70a74d22900a5de66a2dda66507255",
                "erc": "ERC-20",
                "slots": [
                    {
                        "current": "0x0000000000000000000000000000000000000000000003e758268de905ffe1f2",
                        "key": "0x788debe444480d92691847ae72f9efdabfa111be2f87d8c4524eb2323e8509bb",
                        "prev": "0x0000000000000000000000000000000000000000000000000000000000000000"
                    },
                    {
                        "current": "0x0000000000000000000000000000000000000000000000000000000000000000",
                        "key": "0xb5f30a04273b976ddcf9f57456edd9995ee8ab5cf4fa0a9d74226dad2919503f",
                        "prev": "0x0000000000000000000000000000000000000000000003e758268de905ffe1f2"
                    }
                ],
                "storageVariables": [
                    {
                        "name": "_balances",
                        "type": "mapping(address => uint256)",
                        "value": {
                            "pairs": [
                                {
                                    "key": "0x8ac07ecdf5ea76127a8ac8d2f8d8c08f3abe34d5",
                                    "value": {
                                        "current": "0",
                                        "prev": "18434649249992262279666",
                                        "typeTag": 1
                                    }
                                },
                                {
                                    "key": "0x915e4a92c559b0e825961a7741450fc1d7844785",
                                    "value": {
                                        "current": "18434649249992262279666",
                                        "prev": "0",
                                        "typeTag": 1
                                    }
                                }
                            ],
                            "typeTag": 4
                        }
                    }
                ]
            }
        ]
    }
}