{
    "balance_change": {
        "balanceChanges": [
            {
                "account": "0x0edef718166d6b239f965229c8dd306ea52626e4",
                "assets": [
                    {
                        "address": "0xeeeeeeeeeeeeeeeeeeeeeeeeeeeeeeeeeeeeeeee",
                        "amount": "0.000777",
                        "iconUrl": "https://assets.blocksec.com/image/1663669189317-3.png",
                        "isERC1155": false,
                        "isERC721": false,
                        "sign": false,
                        "value": "1.44114075"
                    },
                    {
                        "address": "0x6e60bcdf52078a250932cf9fec174c5f67348845",
                        "amount": "1",
                        "iconUrl": "",
                        "isERC1155": false,
                        "isERC721": true,
                        "sign": true,
                        "tokenID": "5602",
                        "value": ""
                    }
                ]
            },
            {
                "account": "0x0000000000000000000000000000000000000000",
                "assets": [
                    {
                        "address": "0x6e60bcdf52078a250932cf9fec174c5f67348845",
                        "amount": "1",
                        "iconUrl": "",
                        "isERC1155": false,
                        "isERC721": true,
                        "sign": false,
                        "tokenID": "5602",
                        "value": ""
                    }
                ]
            },
            {
                "account": "0xd1d1d4e36117ab794ec5d4c78cbd3a8904e691d0",
                "assets": [
                    {
                        "address": "0xeeeeeeeeeeeeeeeeeeeeeeeeeeeeeeeeeeeeeeee",
                        "amount": "0.000777",
                        "iconUrl": "https://assets.blocksec.com/image/1663669189317-3.png",
                        "isERC1155": false,
                        "isERC721": false,
                        "sign": true,
                        "value": "1.44114075"
                    }
                ]
            }
        ]
    },
    "profile": {
        "basic_info": {
            "baseFee": "26.684119424",
            "blockNumber": 17770122,
            "callData": "0xefef39a10000000000000000000000000000000000000000000000000000000000000001",
            "debugEnable": true,
            "errorInfo": "",
            "eventCount": 4,
            "feeRecipient": "0xdafea492d9c6733ae3d56b7ed1adb60692c98bc5",
            "formatValue": "0.000777",
            "gasLimit": 177714,
            "gasPrice": "26.784119424",
            "gasUsed": 112125,
            "intTxnCount": 3,
            "internalRevert": false,
            "internalRevertMessage": "",
            "isContractCreation": false,
            "isFlashloan": false,
            "maxFee": "33.669339373",
            "nonce": 2645,
            "overwritedBlockNumber": -1,
            "priorityFee": "0.1",
            "receiver": "0x6e60bcdf52078a250932cf9fec174c5f67348845",
            "revertMessage": "",
            "sender": "0x0edef718166d6b239f965229c8dd306ea52626e4",
            "simulationEnable": true,
            "sourceTxnHash": "0x7810bf823683e99de0b16ceda46c35da6f8f82fb2b56af31edf7f049ed0aa816",
            "status": true,
            "timestamp": "2023-07-25T12:30:59Z",
            "transactionFee": "0.003003169390416",
            "txnHash": "0x7810bf823683e99de0b16ceda46c35da6f8f82fb2b56af31edf7f049ed0aa816",
            "txnIndex": 122,
            "type": 2,
            "value": "777000000000000"
        },
        "fund_flow": [
            {
                "amount": "0.000777",
                "from": "0x0edef718166d6b239f965229c8dd306ea52626e4",
                "id": 1,
                "isERC1155": false,
                "isERC721": false,
                "isReverted": false,
                "order": 1,
                "to": "0x6e60bcdf52078a250932cf9fec174c5f67348845",
                "token": "0xeeeeeeeeeeeeeeeeeeeeeeeeeeeeeeeeeeeeeeee"
            },
            {
                "amount": "1",
                "from": "0x0000000000000000000000000000000000000000",
                "id": 2,
                "isERC1155": false,
                "isERC721": true,
                "isReverted": false,
                "order": 2,
                "to": "0x0edef718166d6b239f965229c8dd306ea52626e4",
                "token": "0x6e60bcdf52078a250932cf9fec174c5f67348845",
                "tokenID": "5602"
            },
            {
                "amount": "0.000777",
                "from": "0x6e60bcdf52078a250932cf9fec174c5f67348845",
                "id": 3,
                "isERC1155": false,
                "isERC721": false,
                "isReverted": false,
                "order": 3,
                "to": "0xd1d1d4e36117ab794ec5d4c78cbd3a8904e691d0",
                "token": "0xeeeeeeeeeeeeeeeeeeeeeeeeeeeeeeeeeeeeeeee"
            }
        ],
        "token_infos": [
            {
                "address": "0xc02aaa39b223fe8d0a0e5c4f27ead9083c756cc2",
                "decimals": 18
            },
            {
                "address": "0xeeeeeeeeeeeeeeeeeeeeeeeeeeeeeeeeeeeeeeee",
                "decimals": 18
            }
        ]
    },
    "address_label": {
        "labels": [
            {
                "address": "0x419074d73cf0852e46b8531b430b1230c348c291",
                "label": "ERC721Drop"
            },
            {
                "address": "0xd9db270c1b5e3bd161e8c8503c55ceabee709552",
                "label": "Safe: Singleton 1.3.0"
            },
            {
                "address": "0x0000000000000000000000000000000000000002",
                "label": "Precompiled"
            },
            {
                "address": "0x0000000000000000000000000000000000000003",
                "label": "Precompiled"
            },
            {
                "address": "0xeeeeeeeeeeeeeeeeeeeeeeeeeeeeeeeeeeeeeeee",
                "label": "Ether"
            },
            {
                "address": "0x6e60bcdf52078a250932cf9fec174c5f67348845",
                "label": "Introducing Worldcoin ($WLD)"
            },
            {
                "address": "0x0000000000000000000000000000000000000004",
                "label": "Precompiled"
            },
            {
                "address": "0xd1d1d4e36117ab794ec5d4c78cbd3a8904e691d0",
                "label": "GnosisSafeProxy_d1d1_91d0"
            },
            {
                "address": "0x0000000000000000000000000000000000000001",
                "label": "Precompiled"
            }
        ]
    },
    "trace": {
        "accountLabels": null,
        "dataMap": {
            "-1": {
                "invocation": {
                    "address": "0x0edef718166d6b239f965229c8dd306ea52626e4",
                    "callData": "",
                    "decodedMethod": null,
                    "errorInfo": "",
                    "fromAddress": "",
                    "gasUsed": 0,
                    "id": -1,
                    "methodDecoded": false,
                    "operation": "",
                    "output": "",
                    "revert": false,
                    "revertMessage": "",
                    "selector": "",
                    "status": false,
                    "value": ""
                },
                "nodeType": 0
            },
            "0": {
                "invocation": {
                    "address": "0x6e60bcdf52078a250932cf9fec174c5f67348845",
                    "callData": "0x0000000000000000000000000000000000000000000000000000000000000001",
                    "decodedMethod": {
                        "callParams": [
                            {
                                "name": "quantity",
                                "type": "uint256",
                                "value": "1"
                            }
                        ],
                        "constructorArguments": "",
                        "name": "purchase",
                        "returnParams": [
                            {
                                "name": "",
                                "type": "uint256",
                                "value": "5,601"
                            }
                        ],
                        "signature": "purchase(uint256)"
                    },
                    "errorInfo": "",
                    "fromAddress": "0x0edef718166d6b239f965229c8dd306ea52626e4",
                    "gasUsed": 112125,
                    "id": 0,
                    "methodDecoded": true,
                    "operation": "CALL",
                    "output": "0x00000000000000000000000000000000000000000000000000000000000015e1",
                    "revert": false,
                    "revertMessage": "",
                    "selector": "0xefef39a1",
                    "status": true,
                    "value": "0.000777"
                },
                "nodeType": 0
            },
            "1": {
                "invocation": {
                    "address": "0x419074d73cf0852e46b8531b430b1230c348c291",
                    "callData": "0x0000000000000000000000000000000000000000000000000000000000000001",
                    "decodedMethod": {
                        "callParams": [
                            {
                                "name": "quantity",
                                "type": "uint256",
                                "value": "1"
                            }
                        ],
                        "constructorArguments": "",
                        "name": "purchase",
                        "returnParams": [
                            {
                                "name": "",
                                "type": "uint256",
                                "value": "5,601"
                            }
                        ],
                        "signature": "purchase(uint256)"
                    },
                    "errorInfo": "",
                    "fromAddress": "0x6e60bcdf52078a250932cf9fec174c5f67348845",
                    "gasUsed": 88902,
                    "id": 1,
                    "methodDecoded": true,
                    "operation": "DELEGATECALL",
                    "output": "0x00000000000000000000000000000000000000000000000000000000000015e1",
                    "revert": false,
                    "revertMessage": "",
                    "selector": "0xefef39a1",
                    "status": true,
                    "value": "0.000777"
                },
                "nodeType": 0
            },
            "2": {
                "event": {
                    "contract": "0x6e60bcdf52078a250932cf9fec174c5f67348845",
                    "decodedLog": {
                        "name": "Transfer",
                        "params": [
                            {
                                "name": "from",
                                "type": "address",
                                "value": "0x0000000000000000000000000000000000000000"
                            },
                            {
                                "name": "to",
                                "type": "address",
                                "value": "0x0edef718166d6b239f965229c8dd306ea52626e4"
                            },
                            {
                                "decimalAvailable": true,
                                "name": "tokenId",
                                "type": "uint256",
                                "value": "5,602"
                            }
                        ],
                        "signature": "Transfer(address,address,uint256)"
                    },
                    "id": 2,
                    "logData": "0x",
                    "logDecoded": true,
                    "operation": "EVENT",
                    "revert": false,
                    "status": true,
                    "topics": [
                        "0xddf252ad1be2c89b69c2b068fc378daa952ba7f163c4a11628f55a4df523b3ef",
                        "0x0000000000000000000000000000000000000000000000000000000000000000",
                        "0x0000000000000000000000000edef718166d6b239f965229c8dd306ea52626e4",
                        "0x00000000000000000000000000000000000000000000000000000000000015e2"
                    ]
                },
                "nodeType": 1
            },
            "3": {
                "invocation": {
                    "address": "0xd1d1d4e36117ab794ec5d4c78cbd3a8904e691d0",
                    "callData": "0x",
                    "decodedMethod": null,
                    "errorInfo": "",
                    "fromAddress": "0x6e60bcdf52078a250932cf9fec174c5f67348845",
                    "gasUsed": 6329,
                    "id": 3,
                    "methodDecoded": false,
                    "operation": "CALL",
                    "output": "",
                    "revert": false,
                    "revertMessage": "",
                    "selector": "fallback",
                    "status": true,
                    "value": "0.000777"
                },
                "nodeType": 0
            },
            "4": {
                "invocation": {
                    "address": "0xd9db270c1b5e3bd161e8c8503c55ceabee709552",
                    "callData": "0x",
                    "decodedMethod": null,
                    "errorInfo": "",
                    "fromAddress": "0xd1d1d4e36117ab794ec5d4c78cbd3a8904e691d0",
                    "gasUsed": 1504,
                    "id": 4,
                    "methodDecoded": false,
                    "operation": "DELEGATECALL",
                    "output": "",
                    "revert": false,
                    "revertMessage": "",
                    "selector": "fallback",
                    "status": true,
                    "value": "0.000777"
                },
                "nodeType": 0
            },
            "5": {
                "event": {
                    "contract": "0xd1d1d4e36117ab794ec5d4c78cbd3a8904e691d0",
                    "decodedLog": {
                        "name": "SafeReceived",
                        "params": [
                            {
                                "name": "sender",
                                "type": "address",
                                "value": "0x6e60bcdf52078a250932cf9fec174c5f67348845"
                            },
                            {
                                "name": "value",
                                "type": "uint256",
                                "value": "777,000,000,000,000"
                            }
                        ],
                        "signature": "SafeReceived(address,uint256)"
                    },
                    "id": 5,
                    "logData": "0x0000000000000000000000000000000000000000000000000002c2ad68fd9000",
                    "logDecoded": true,
                    "operation": "EVENT",
                    "revert": false,
                    "status": true,
                    "topics": [
                        "0x3d0ce9bfc3ed7d6862dbb28b2dea94561fe714a1b4d019aa8af39730d1ad7c3d",
                        "0x0000000000000000000000006e60bcdf52078a250932cf9fec174c5f67348845"
                    ]
                },
                "nodeType": 1
            },
            "6": {
                "event": {
                    "contract": "0x6e60bcdf52078a250932cf9fec174c5f67348845",
                    "decodedLog": {
                        "name": "MintFeePayout",
                        "params": [
                            {
                                "name": "mintFeeAmount",
                                "type": "uint256",
                                "value": "777,000,000,000,000"
                            },
                            {
                                "name": "mintFeeRecipient",
                                "type": "address",
                                "value": "0xd1d1d4e36117ab794ec5d4c78cbd3a8904e691d0"
                            },
                            {
                                "name": "success",
                                "type": "bool",
                                "value": true
                            }
                        ],
                        "signature": "MintFeePayout(uint256,address,bool)"
                    },
                    "id": 6,
                    "logData": "0x0000000000000000000000000000000000000000000000000002c2ad68fd9000000000000000000000000000d1d1d4e36117ab794ec5d4c78cbd3a8904e691d00000000000000000000000000000000000000000000000000000000000000001",
                    "logDecoded": true,
                    "operation": "EVENT",
                    "revert": false,
                    "status": true,
                    "topics": [
                        "0x6f8da53cfedb8cc4f7935c3629624e50b63053c93bb2cad246aa4d3a2ba7d4ce"
                    ]
                },
                "nodeType": 1
            },
            "7": {
                "event": {
                    "contract": "0x6e60bcdf52078a250932cf9fec174c5f67348845",
                    "decodedLog": {
                        "name": "Sale",
                        "params": [
                            {
                                "name": "to",
                                "type": "address",
                                "value": "0x0edef718166d6b239f965229c8dd306ea52626e4"
                            },
                            {
                                "name": "quantity",
                                "type": "uint256",
                                "value": "1"
                            },
                            {
                                "name": "pricePerToken",
                                "type": "uint256",
                                "value": "0"
                            },
                            {
                                "name": "firstPurchasedTokenId",
                                "type": "uint256",
                                "value": "5,601"
                            }
                        ],
                        "signature": "Sale(address,uint256,uint256,uint256)"
                    },
                    "id": 7,
                    "logData": "0x00000000000000000000000000000000000000000000000000000000000015e1",
                    "logDecoded": true,
                    "operation": "EVENT",
                    "revert": false,
                    "status": true,
                    "topics": [
                        "0x4e26b0356a15833a75d497ecc40ebbb716b99466ed0dba9454f1fff451e25a90",
                        "0x0000000000000000000000000edef718166d6b239f965229c8dd306ea52626e4",
                        "0x0000000000000000000000000000000000000000000000000000000000000001",
                        "0x0000000000000000000000000000000000000000000000000000000000000000"
                    ]
                },
                "nodeType": 1
            }
        },
        "gasFlame": [
            {
                "children": [
                    {
                        "children": [
                            {
                                "children": [],
                                "depth": 0,
                                "name": "Initial Gas",
                                "value": 21204
                            },
                            {
                                "children": [
                                    {
                                        "children": [
                                            {
                                                "children": [
                                                    {
                                                        "children": [],
                                                        "depth": 3,
                                                        "name": "fallback",
                                                        "value": 1504
                                                    }
                                                ],
                                                "depth": 2,
                                                "name": "fallback",
                                                "value": 6329
                                            }
                                        ],
                                        "depth": 1,
                                        "name": "purchase",
                                        "value": 88902
                                    }
                                ],
                                "depth": 0,
                                "name": "Executed Gas",
                                "value": 93721
                            }
                        ],
                        "depth": -1,
                        "name": "Actual Gas Used",
                        "value": 112125
                    },
                    {
                        "children": [],
                        "depth": -1,
                        "name": "Refunded Gas",
                        "value": 2800
                    }
                ],
                "depth": -2,
                "name": "Total Gas",
                "value": 114925
            }
        ],
        "isConfirmed": true,
        "mainTrace": [
            {
                "children": [
                    {
                        "children": [
                            {
                                "children": [
                                    {
                                        "children": [],
                                        "depth": 2,
                                        "id": 2,
                                        "order": 2
                                    },
                                    {
                                        "children": [
                                            {
                                                "children": [
                                                    {
                                                        "children": [],
                                                        "depth": 4,
                                                        "id": 5,
                                                        "order": 5
                                                    }
                                                ],
                                                "depth": 3,
                                                "id": 4,
                                                "order": 4
                                            }
                                        ],
                                        "depth": 2,
                                        "id": 3,
                                        "order": 3
                                    },
                                    {
                                        "children": [],
                                        "depth": 2,
                                        "id": 6,
                                        "order": 6
                                    },
                                    {
                                        "children": [],
                                        "depth": 2,
                                        "id": 7,
                                        "order": 7
                                    }
                                ],
                                "depth": 1,
                                "id": 1,
                                "order": 1
                            }
                        ],
                        "depth": 0,
                        "id": 0,
                        "order": 0
                    }
                ],
                "depth": -1,
                "id": -1,
                "order": -1
            }
        ],
        "mainTraceNodeCount": 8,
        "parentIdMap": {
            "0": -1,
            "1": 0,
            "2": 1,
            "3": 1,
            "4": 3,
            "5": 4,
            "6": 1,
            "7": 1
        },
        "tidyTrace": [
            {
                "children": [
                    {
                        "children": [
                            {
                                "children": [
                                    {
                                        "children": [],
                                        "depth": 2,
                                        "id": 2,
                                        "order": 2
                                    },
                                    {
                                        "children": [
                                            {
                                                "children": [
                                                    {
                                                        "children": [],
                                                        "depth": 4,
                                                        "id": 5,
                                                        "order": 5
                                                    }
                                                ],
                                                "depth": 3,
                                                "id": 4,
                                                "order": 4
                                            }
                                        ],
                                        "depth": 2,
                                        "id": 3,
                                        "order": 3
                                    },
                                    {
                                        "children": [],
                                        "depth": 2,
                                        "id": 6,
                                        "order": 6
                                    },
                                    {
                                        "children": [],
                                        "depth": 2,
                                        "id": 7,
                                        "order": 7
                                    }
                                ],
                                "depth": 1,
                                "id": 1,
                                "order": 1
                            }
                        ],
                        "depth": 0,
                        "id": 0,
                        "order": 0
                    }
                ],
                "depth": -1,
                "id": -1,
                "order": -1
            }
        ],
        "tidyTraceNodeCount": 8
    },
    "state_change": {
        "stateChanges": [
            {
                "address": "0x6e60bcdf52078a250932cf9fec174c5f67348845",
                "erc": "ERC-721",
                "slots": [
                    {
                        "current": "0x000000000000000064bfc0830edef718166d6b239f965229c8dd306ea52626e4",
                        "key": "0xd2c95361fc993c431367d1d5cb93d5384079ae07996d45f0e11a90bcbd758660",
                        "prev": "0x0000000000000000000000000000000000000000000000000000000000000000"
                    },
                    {
                        "current": "0x00000000000000000000000000000000000000000000000000000000000015e3",
                        "key": "0x0000000000000000000000000000000000000000000000000000000000000065",
                        "prev": "0x00000000000000000000000000000000000000000000000000000000000015e2"
                    },
                    {
                        "current": "0x0000000000000000000000000000000000000000000000010000000000000001",
                        "key": "0x1898d06b43e917fee5f86ece08ff2f593ee8211fd499ab281b4b9d1be06820a4",
                        "prev": "0x0000000000000000000000000000000000000000000000000000000000000000"
                    }
                ],
                "storageVariables": [
                    {
                        "name": "_ownerships",
                        "type": "mapping(uint256 => struct IERC721AUpgradeable.TokenOwnership)",
                        "value": {
                            "pairs": [
                                {
                                    "key": "5602",
                                    "value": {
                                        "fields": [
                                            {
                                                "name": "addr",
                                                "type": "address",
                                                "value": {
                                                    "current": "0x0edef718166d6b239f965229c8dd306ea52626e4",
                                                    "prev": "0x0000000000000000000000000000000000000000",
                                                    "typeTag": 1
                                                }
                                            },
                                            {
                                                "name": "startTimestamp",
                                                "type": "uint64",
                                                "value": {
                                                    "current": "1690288259",
                                                    "prev": "0",
                                                    "typeTag": 1
                                                }
                                            },
                                            {
                                                "name": "burned",
                                                "type": "bool",
                                                "value": {
                                                    "current": "false",
                                                    "prev": "false",
                                                    "typeTag": 1
                                                }
                                            }
                                        ],
                                        "typeTag": 3
                                    }
                                }
                            ],
                            "typeTag": 4
                        }
                    },
                    {
                        "name": "_currentIndex",
                        "type": "uint256",
                        "value": {
                            "current": "5603",
                            "prev": "5602",
                            "typeTag": 1
                        }
                    },
                    {
                        "name": "_addressData",
                        "type": "mapping(address => struct IERC721AUpgradeable.AddressData)",
                        "value": {
                            "pairs": [
                                {
                                    "key": "0x0edef718166d6b239f965229c8dd306ea52626e4",
                                    "value": {
                                        "fields": [
                                            {
                                                "name": "balance",
                                                "type": "uint64",
                                                "value": {
                                                    "current": "1",
                                                    "prev": "0",
                                                    "typeTag": 1
                                                }
                                            },
                                            {
                                                "name": "numberMinted",
                                                "type": "uint64",
                                                "value": {
                                                    "current": "1",
                                                    "prev": "0",
                                                    "typeTag": 1
                                                }
                                            },
                                            {
                                                "name": "numberBurned",
                                                "type": "uint64",
                                                "value": {
                                                    "current": "0",
                                                    "prev": "0",
                                                    "typeTag": 1
                                                }
                                            },
                                            {
                                                "name": "aux",
                                                "type": "uint64",
                                                "value": {
                                                    "current": "0",
                                                    "prev": "0",
                                                    "typeTag": 1
                                                }
                                            }
                                        ],
                                        "typeTag": 3
                                    }
                                }
                            ],
                            "typeTag": 4
                        }
                    }
                ]
            }
        ]
    }
}