{
    "balance_change": {
        "balanceChanges": [
            {
                "account": "0xad9eb619ce1033cc710d9f9806a2330f85875f22",
                "assets": [
                    {
                        "address": "0xc02aaa39b223fe8d0a0e5c4f27ead9083c756cc2",
                        "amount": "50",
                        "iconUrl": "https://assets.blocksec.com/icon/f1cb2d02c471d545bbc7722daf3277fd852d98e63d118771af7047bd8256c516.png",
                        "isERC1155": false,
                        "isERC721": false,
                        "sign": false,
                        "value": ""
                    }
                ]
            },
            {
                "account": "0x39755357759ce0d7f32dc8dc45414cca409ae24e",
                "assets": [
                    {
                        "address": "0xc02aaa39b223fe8d0a0e5c4f27ead9083c756cc2",
                        "amount": "50",
                        "iconUrl": "https://assets.blocksec.com/icon/f1cb2d02c471d545bbc7722daf3277fd852d98e63d118771af7047bd8256c516.png",
                        "isERC1155": false,
                        "isERC721": false,
                        "sign": true,
                        "value": ""
                    }
                ]
            }
        ]
    },
    "profile": {
        "basic_info": {
            "baseFee": "",
            "blockNumber": 8983053,
            "callData": "0x1cff79cd000000000000000000000000ba79abfe63e5697e8741945b3391c5dbf309f19a000000000000000000000000000000000000000000000000000000000000004000000000000000000000000000000000000000000000000000000000000000b839755357759ce0d7f32dc8dc45414cca409ae24e1b33d412000000000000000000000000000000000000000000000002b5e3af16b1880000000000000000000000000000c02aaa39b223fe8d0a0e5c4f27ead9083c756cc20000000000000000000000000000000000000000000001932179a2ffd19d000000000000000000000000000089d24a6b4ccb1b6faa2625fe562bdd9a2326035900000000000000000000000000000000000000000000000000000000000936e10000000000000000",
            "debugEnable": true,
            "errorInfo": "",
            "eventCount": 4,
            "feeRecipient": "0x52bc44d5378309ee2abf1539bf71de1b7d7be3b5",
            "formatValue": "0",
            "gasLimit": 600000,
            "gasPrice": "10.001",
            "gasUsed": 239428,
            "intTxnCount": 3,
            "internalRevert": false,
            "internalRevertMessage": "",
            "isContractCreation": false,
            "isFlashloan": false,
            "maxFee": "",
            "nonce": 21812,
            "overwritedBlockNumber": -1,
            "priorityFee": "",
            "receiver": "0xad9eb619ce1033cc710d9f9806a2330f85875f22",
            "revertMessage": "",
            "sender": "0x06244972b571b7d0df4d2eb3e4bf01fa1433c7f9",
            "simulationEnable": true,
            "sourceTxnHash": "0x782568f9f9e77f00f4dc790effc5360de65ab24c14a74ad31ec2685a320c6217",
            "status": true,
            "timestamp": "2019-11-22T23:05:02Z",
            "transactionFee": "0.002394519428",
            "txnHash": "0x782568f9f9e77f00f4dc790effc5360de65ab24c14a74ad31ec2685a320c6217",
            "txnIndex": 7,
            "type": 0,
            "value": "0"
        },
        "fund_flow": [
            {
                "amount": "50",
                "from": "0xad9eb619ce1033cc710d9f9806a2330f85875f22",
                "id": 1,
                "isERC1155": false,
                "isERC721": false,
                "isReverted": false,
                "order": 1,
                "to": "0x39755357759ce0d7f32dc8dc45414cca409ae24e",
                "token": "0xc02aaa39b223fe8d0a0e5c4f27ead9083c756cc2"
            }
        ],
        "token_infos": [
            {
                "address": "0xc02aaa39b223fe8d0a0e5c4f27ead9083c756cc2",
                "decimals": 18
            },
            {
                "address": "0xeeeeeeeeeeeeeeeeeeeeeeeeeeeeeeeeeeeeeeee",
                "decimals": 18
            }
        ]
    },
    "address_label": {
        "labels": [
            {
                "address": "0x0000000000000000000000000000000000000002",
                "label": "Precompiled"
            },
            {
                "address": "0x0000000000000000000000000000000000000003",
                "label": "Precompiled"
            },
            {
                "address": "0x0000000000000000000000000000000000000004",
                "label": "Precompiled"
            },
            {
                "address": "0xeeeeeeeeeeeeeeeeeeeeeeeeeeeeeeeeeeeeeeee",
                "label": "Ether"
            },
            {
                "address": "0xc02aaa39b223fe8d0a0e5c4f27ead9083c756cc2",
                "label": "Wrapped Ether (WETH)"
            },
            {
                "address": "0x89d24a6b4ccb1b6faa2625fe562bdd9a23260359",
                "label": "Sai Stablecoin"
            },
            {
                "address": "0x39755357759ce0d7f32dc8dc45414cca409ae24e",
                "label": "Eth2Dai: Old Contract"
            },
            {
                "address": "0x0000000000000000000000000000000000000001",
                "label": "Precompiled"
            }
        ]
    },
    "trace": {
        "accountLabels": null,
        "dataMap": {
            "-1": {
                "invocation": {
                    "address": "0x06244972b571b7d0df4d2eb3e4bf01fa1433c7f9",
                    "callData": "",
                    "decodedMethod": null,
                    "errorInfo": "",
                    "fromAddress": "",
                    "gasUsed": 0,
                    "id": -1,
                    "methodDecoded": false,
                    "operation": "",
                    "output": "",
                    "revert": false,
                    "revertMessage": "",
                    "selector": "",
                    "status": false,
                    "value": ""
                },
                "nodeType": 0
            },
            "0": {
                "invocation": {
                    "address": "0xad9eb619ce1033cc710d9f9806a2330f85875f22",
                    "callData": "0x000000000000000000000000ba79abfe63e5697e8741945b3391c5dbf309f19a000000000000000000000000000000000000000000000000000000000000004000000000000000000000000000000000000000000000000000000000000000b839755357759ce0d7f32dc8dc45414cca409ae24e1b33d412000000000000000000000000000000000000000000000002b5e3af16b1880000000000000000000000000000c02aaa39b223fe8d0a0e5c4f27ead9083c756cc20000000000000000000000000000000000000000000001932179a2ffd19d000000000000000000000000000089d24a6b4ccb1b6faa2625fe562bdd9a2326035900000000000000000000000000000000000000000000000000000000000936e10000000000000000",
                    "decodedMethod": {
                        "callParams": [
                            {
                                "name": "_target",
                                "type": "address",
                                "value": "0xba79abfe63e5697e8741945b3391c5dbf309f19a"
                            },
                            {
                                "name": "_data",
                                "type": "bytes",
                                "value": "0x39755357759ce0d7f32dc8dc45414cca409ae24e1b33d412000000000000000000000000000000000000000000000002b5e3af16b1880000000000000000000000000000c02aaa39b223fe8d0a0e5c4f27ead9083c756cc20000000000000000000000000000000000000000000001932179a2ffd19d000000000000000000000000000089d24a6b4ccb1b6faa2625fe562bdd9a2326035900000000000000000000000000000000000000000000000000000000000936e1"
                            }
                        ],
                        "constructorArguments": "",
                        "name": "execute",
                        "returnParams": [],
                        "signature": "execute(address,bytes)"
                    },
                    "errorInfo": "",
                    "fromAddress": "0x06244972b571b7d0df4d2eb3e4bf01fa1433c7f9",
                    "gasUsed": 239428,
                    "id": 0,
                    "methodDecoded": true,
                    "operation": "CALL",
                    "output": "",
                    "revert": false,
                    "revertMessage": "",
                    "selector": "0x1cff79cd",
                    "status": true,
                    "value": "0"
                },
                "nodeType": 0
            },
            "1": {
                "invocation": {
                    "address": "0xba79abfe63e5697e8741945b3391c5dbf309f19a",
                    "callData": "0x759ce0d7f32dc8dc45414cca409ae24e1b33d412000000000000000000000000000000000000000000000002b5e3af16b1880000000000000000000000000000c02aaa39b223fe8d0a0e5c4f27ead9083c756cc20000000000000000000000000000000000000000000001932179a2ffd19d000000000000000000000000000089d24a6b4ccb1b6faa2625fe562bdd9a2326035900000000000000000000000000000000000000000000000000000000000936e1",
                    "decodedMethod": null,
                    "errorInfo": "",
                    "fromAddress": "0xad9eb619ce1033cc710d9f9806a2330f85875f22",
                    "gasUsed": 208659,
                    "id": 1,
                    "methodDecoded": false,
                    "operation": "DELEGATECALL",
                    "output": "",
                    "revert": false,
                    "revertMessage": "",
                    "selector": "0x39755357",
                    "status": true,
                    "value": "0"
                },
                "nodeType": 0
            },
            "2": {
                "invocation": {
                    "address": "0x39755357759ce0d7f32dc8dc45414cca409ae24e",
                    "callData": "0x000000000000000000000000000000000000000000000002b5e3af16b1880000000000000000000000000000c02aaa39b223fe8d0a0e5c4f27ead9083c756cc20000000000000000000000000000000000000000000001932179a2ffd19d000000000000000000000000000089d24a6b4ccb1b6faa2625fe562bdd9a2326035900000000000000000000000000000000000000000000000000000000000936e1",
                    "decodedMethod": {
                        "callParams": [
                            {
                                "name": "pay_amt",
                                "type": "uint256",
                                "value": "50,000,000,000,000,000,000"
                            },
                            {
                                "name": "pay_gem",
                                "type": "address",
                                "value": "0xc02aaa39b223fe8d0a0e5c4f27ead9083c756cc2"
                            },
                            {
                                "name": "buy_amt",
                                "type": "uint256",
                                "value": "7,436,450,000,000,000,000,000"
                            },
                            {
                                "name": "buy_gem",
                                "type": "address",
                                "value": "0x89d24a6b4ccb1b6faa2625fe562bdd9a23260359"
                            },
                            {
                                "name": "pos",
                                "type": "uint256",
                                "value": "603,873"
                            }
                        ],
                        "constructorArguments": "",
                        "name": "offer",
                        "returnParams": [
                            {
                                "name": "",
                                "type": "uint256",
                                "value": "603,885"
                            }
                        ],
                        "signature": "offer(uint256,address,uint256,address,uint256)"
                    },
                    "errorInfo": "",
                    "fromAddress": "0xad9eb619ce1033cc710d9f9806a2330f85875f22",
                    "gasUsed": 207861,
                    "id": 2,
                    "methodDecoded": true,
                    "operation": "CALL",
                    "output": "0x00000000000000000000000000000000000000000000000000000000000936ed",
                    "revert": false,
                    "revertMessage": "",
                    "selector": "0x1b33d412",
                    "status": true,
                    "value": "0"
                },
                "nodeType": 0
            },
            "3": {
                "invocation": {
                    "address": "0xc02aaa39b223fe8d0a0e5c4f27ead9083c756cc2",
                    "callData": "0x000000000000000000000000ad9eb619ce1033cc710d9f9806a2330f85875f2200000000000000000000000039755357759ce0d7f32dc8dc45414cca409ae24e000000000000000000000000000000000000000000000002b5e3af16b1880000",
                    "decodedMethod": {
                        "callParams": [
                            {
                                "name": "src",
                                "type": "address",
                                "value": "0xad9eb619ce1033cc710d9f9806a2330f85875f22"
                            },
                            {
                                "name": "dst",
                                "type": "address",
                                "value": "0x39755357759ce0d7f32dc8dc45414cca409ae24e"
                            },
                            {
                                "decimalAvailable": true,
                                "name": "wad",
                                "type": "uint256",
                                "value": "50,000,000,000,000,000,000"
                            }
                        ],
                        "constructorArguments": "",
                        "name": "transferFrom",
                        "returnParams": [
                            {
                                "name": "",
                                "type": "bool",
                                "value": true
                            }
                        ],
                        "signature": "transferFrom(address,address,uint256)"
                    },
                    "errorInfo": "",
                    "fromAddress": "0x39755357759ce0d7f32dc8dc45414cca409ae24e",
                    "gasUsed": 13625,
                    "id": 3,
                    "methodDecoded": true,
                    "operation": "CALL",
                    "output": "0x0000000000000000000000000000000000000000000000000000000000000001",
                    "revert": false,
                    "revertMessage": "",
                    "selector": "0x23b872dd",
                    "status": true,
                    "value": "0"
                },
                "nodeType": 0
            },
            "4": {
                "event": {
                    "contract": "0xc02aaa39b223fe8d0a0e5c4f27ead9083c756cc2",
                    "decodedLog": {
                        "name": "Transfer",
                        "params": [
                            {
                                "name": "src",
                                "type": "address",
                                "value": "0xad9eb619ce1033cc710d9f9806a2330f85875f22"
                            },
                            {
                                "name": "dst",
                                "type": "address",
                                "value": "0x39755357759ce0d7f32dc8dc45414cca409ae24e"
                            },
                            {
                                "decimalAvailable": true,
                                "name": "wad",
                                "type": "uint256",
                                "value": "50,000,000,000,000,000,000"
                            }
                        ],
                        "signature": "Transfer(address,address,uint256)"
                    },
                    "id": 4,
                    "logData": "0x000000000000000000000000000000000000000000000002b5e3af16b1880000",
                    "logDecoded": true,
                    "operation": "EVENT",
                    "revert": false,
                    "status": true,
                    "topics": [
                        "0xddf252ad1be2c89b69c2b068fc378daa952ba7f163c4a11628f55a4df523b3ef",
                        "0x000000000000000000000000ad9eb619ce1033cc710d9f9806a2330f85875f22",
                        "0x00000000000000000000000039755357759ce0d7f32dc8dc45414cca409ae24e"
                    ]
                },
                "nodeType": 1
            },
            "5": {
                "event": {
                    "contract": "0x39755357759ce0d7f32dc8dc45414cca409ae24e",
                    "decodedLog": {
                        "name": "LogItemUpdate",
                        "params": [
                            {
                                "name": "id",
                                "type": "uint256",
                                "value": "603,885"
                            }
                        ],
                        "signature": "LogItemUpdate(uint256)"
                    },
                    "id": 5,
                    "logData": "0x00000000000000000000000000000000000000000000000000000000000936ed",
                    "logDecoded": true,
                    "operation": "EVENT",
                    "revert": false,
                    "status": true,
                    "topics": [
                        "0xa2c251311b1a7a475913900a2a73dc9789a21b04bc737e050bbc506dd4eb3488"
                    ]
                },
                "nodeType": 1
            },
            "6": {
                "event": {
                    "contract": "0x39755357759ce0d7f32dc8dc45414cca409ae24e",
                    "decodedLog": {
                        "name": "LogMake",
                        "params": [
                            {
                                "name": "id",
                                "type": "bytes32",
                                "value": "0x00000000000000000000000000000000000000000000000000000000000936ed"
                            },
                            {
                                "name": "pair",
                                "type": "bytes32",
                                "value": "0x9dd48110dcc444fdc242510c09bbbbe21a5975cac061d82f7b843bce061ba391"
                            },
                            {
                                "name": "maker",
                                "type": "address",
                                "value": "0xad9eb619ce1033cc710d9f9806a2330f85875f22"
                            },
                            {
                                "name": "pay_gem",
                                "type": "address",
                                "value": "0xc02aaa39b223fe8d0a0e5c4f27ead9083c756cc2"
                            },
                            {
                                "name": "buy_gem",
                                "type": "address",
                                "value": "0x89d24a6b4ccb1b6faa2625fe562bdd9a23260359"
                            },
                            {
                                "name": "pay_amt",
                                "type": "uint128",
                                "value": "50,000,000,000,000,000,000"
                            },
                            {
                                "name": "buy_amt",
                                "type": "uint128",
                                "value": "7,436,450,000,000,000,000,000"
                            },
                            {
                                "name": "timestamp",
                                "type": "uint64",
                                "value": "1,574,463,902"
                            }
                        ],
                        "signature": "LogMake(bytes32,bytes32,address,address,address,uint128,uint128,uint64)"
                    },
                    "id": 6,
                    "logData": "0x000000000000000000000000c02aaa39b223fe8d0a0e5c4f27ead9083c756cc200000000000000000000000089d24a6b4ccb1b6faa2625fe562bdd9a23260359000000000000000000000000000000000000000000000002b5e3af16b18800000000000000000000000000000000000000000000000001932179a2ffd19d0000000000000000000000000000000000000000000000000000000000005dd8699e",
                    "logDecoded": true,
                    "operation": "EVENT",
                    "revert": false,
                    "status": true,
                    "topics": [
                        "0x773ff502687307abfa024ac9f62f9752a0d210dac2ffd9a29e38e12e2ea82c82",
                        "0x00000000000000000000000000000000000000000000000000000000000936ed",
                        "0x9dd48110dcc444fdc242510c09bbbbe21a5975cac061d82f7b843bce061ba391",
                        "0x000000000000000000000000ad9eb619ce1033cc710d9f9806a2330f85875f22"
                    ]
                },
                "nodeType": 1
            },
            "7": {
                "event": {
                    "contract": "0x39755357759ce0d7f32dc8dc45414cca409ae24e",
                    "decodedLog": {
                        "name": "LogSortedOffer",
                        "params": [
                            {
                                "name": "id",
                                "type": "uint256",
                                "value": "603,885"
                            }
                        ],
                        "signature": "LogSortedOffer(uint256)"
                    },
                    "id": 7,
                    "logData": "0x00000000000000000000000000000000000000000000000000000000000936ed",
                    "logDecoded": true,
                    "operation": "EVENT",
                    "revert": false,
                    "status": true,
                    "topics": [
                        "0x20fb9bad86c18f7e22e8065258790d9416a7d2df8ff05f80f82c46d38b925acd"
                    ]
                },
                "nodeType": 1
            }
        },
        "gasFlame": [
            {
                "children": [
                    {
                        "children": [
                            {
                                "children": [],
                                "depth": 0,
                                "name": "Initial Gas",
                                "value": 29080
                            },
                            {
                                "children": [
                                    {
                                        "children": [
                                            {
                                                "children": [
                                                    {
                                                        "children": [],
                                                        "depth": 3,
                                                        "name": "transferFrom",
                                                        "value": 13625
                                                    }
                                                ],
                                                "depth": 2,
                                                "name": "offer",
                                                "value": 207861
                                            }
                                        ],
                                        "depth": 1,
                                        "name": "0x39755357",
                                        "value": 208659
                                    }
                                ],
                                "depth": 0,
                                "name": "Executed Gas",
                                "value": 210348
                            }
                        ],
                        "depth": -1,
                        "name": "Actual Gas Used",
                        "value": 239428
                    },
                    {
                        "children": [],
                        "depth": -1,
                        "name": "Refunded Gas",
                        "value": 0
                    }
                ],
                "depth": -2,
                "name": "Total Gas",
                "value": 239428
            }
        ],
        "isConfirmed": true,
        "mainTrace": [
            {
                "children": [
                    {
                        "children": [
                            {
                                "children": [
                                    {
                                        "children": [
                                            {
                                                "children": [
                                                    {
                                                        "children": [],
                                                        "depth": 4,
                                                        "id": 4,
                                                        "order": 4
                                                    }
                                                ],
                                                "depth": 3,
                                                "id": 3,
                                                "order": 3
                                            },
                                            {
                                                "children": [],
                                                "depth": 3,
                                                "id": 5,
                                                "order": 5
                                            },
                                            {
                                                "children": [],
                                                "depth": 3,
                                                "id": 6,
                                                "order": 6
                                            },
                                            {
                                                "children": [],
                                                "depth": 3,
                                                "id": 7,
                                                "order": 7
                                            }
                                        ],
                                        "depth": 2,
                                        "id": 2,
                                        "order": 2
                                    }
                                ],
                                "depth": 1,
                                "id": 1,
                                "order": 1
                            }
                        ],
                        "depth": 0,
                        "id": 0,
                        "order": 0
                    }
                ],
                "depth": -1,
                "id": -1,
                "order": -1
            }
        ],
        "mainTraceNodeCount": 8,
        "parentIdMap": {
            "0": -1,
            "1": 0,
            "2": 1,
            "3": 2,
            "4": 3,
            "5": 2,
            "6": 2,
            "7": 2
        },
        "tidyTrace": [
            {
                "children": [
                    {
                        "children": [
                            {
                                "children": [
                                    {
                                        "children": [
                                            {
                                                "children": [
                                                    {
                                                        "children": [],
                                                        "depth": 4,
                                                        "id": 4,
                                                        "order": 4
                                                    }
                                                ],
                                                "depth": 3,
                                                "id": 3,
                                                "order": 3
                                            },
                                            {
                                                "children": [],
                                                "depth": 3,
                                                "id": 5,
                                                "order": 5
                                            },
                                            {
                                                "children": [],
                                                "depth": 3,
                                                "id": 6,
                                                "order": 6
                                            },
                                            {
                                                "children": [],
                                                "depth": 3,
                                                "id": 7,
                                                "order": 7
                                            }
                                        ],
                                        "depth": 2,
                                        "id": 2,
                                        "order": 2
                                    }
                                ],
                                "depth": 1,
                                "id": 1,
                                "order": 1
                            }
                        ],
                        "depth": 0,
                        "id": 0,
                        "order": 0
                    }
                ],
                "depth": -1,
                "id": -1,
                "order": -1
            }
        ],
        "tidyTraceNodeCount": 8
    },
    "state_change": {
        "stateChanges": [
            {
                "address": "0x39755357759ce0d7f32dc8dc45414cca409ae24e",
                "erc": "",
                "slots": [
                    {
                        "current": "0x000000000000000000000000000000000000000000000002b5e3af16b1880000",
                        "key": "0x5f6c8a5c4ba19513775c4ff27b63d2b58f71e330d9eccb9bcee53b227ec1dd77",
                        "prev": "0x0000000000000000000000000000000000000000000000000000000000000000"
                    },
                    {
                        "current": "0x00000000000000000000000089d24a6b4ccb1b6faa2625fe562bdd9a23260359",
                        "key": "0x5f6c8a5c4ba19513775c4ff27b63d2b58f71e330d9eccb9bcee53b227ec1dd7a",
                        "prev": "0x0000000000000000000000000000000000000000000000000000000000000000"
                    },
                    {
                        "current": "0x00000000000000005dd8699ead9eb619ce1033cc710d9f9806a2330f85875f22",
                        "key": "0x5f6c8a5c4ba19513775c4ff27b63d2b58f71e330d9eccb9bcee53b227ec1dd7b",
                        "prev": "0x0000000000000000000000000000000000000000000000000000000000000000"
                    },
                    {
                        "current": "0x0000000000000000000000000000000000000000000000000000000000000065",
                        "key": "0xcc9bd740ec949c1c5f14f207591d901e2f99f59fc9709ff11e2a59fbbccfa000",
                        "prev": "0x0000000000000000000000000000000000000000000000000000000000000064"
                    },
                    {
                        "current": "0x00000000000000000000000000000000000000000000000000000000000936e1",
                        "key": "0x5a90de672cf22b7fda752fd29b9af8de1c3ac6e3d1e7fd31aa6df6b8242ef580",
                        "prev": "0x0000000000000000000000000000000000000000000000000000000000000000"
                    },
                    {
                        "current": "0x00000000000000000000000000000000000000000000000000000000000936ed",
                        "key": "0xf9f2d50fec8c12f2086536525a21babde5e2b62248df2a6aa121fdb674539ca0",
                        "prev": "0x00000000000000000000000000000000000000000000000000000000000936e1"
                    },
                    {
                        "current": "0x00000000000000000000000000000000000000000000000000000000000936ed",
                        "key": "0x0000000000000000000000000000000000000000000000000000000000000002",
                        "prev": "0x00000000000000000000000000000000000000000000000000000000000936ec"
                    },
                    {
                        "current": "0x000000000000000000000000c02aaa39b223fe8d0a0e5c4f27ead9083c756cc2",
                        "key": "0x5f6c8a5c4ba19513775c4ff27b63d2b58f71e330d9eccb9bcee53b227ec1dd78",
                        "prev": "0x0000000000000000000000000000000000000000000000000000000000000000"
                    },
                    {
                        "current": "0x0000000000000000000000000000000000000000000001932179a2ffd19d0000",
                        "key": "0x5f6c8a5c4ba19513775c4ff27b63d2b58f71e330d9eccb9bcee53b227ec1dd79",
                        "prev": "0x0000000000000000000000000000000000000000000000000000000000000000"
                    },
                    {
                        "current": "0x00000000000000000000000000000000000000000000000000000000000936e8",
                        "key": "0x5a90de672cf22b7fda752fd29b9af8de1c3ac6e3d1e7fd31aa6df6b8242ef581",
                        "prev": "0x0000000000000000000000000000000000000000000000000000000000000000"
                    },
                    {
                        "current": "0x00000000000000000000000000000000000000000000000000000000000936ed",
                        "key": "0xa8bfaf6d14f2f8d27a5eb2d16f1164cdc10ab9136099e60282a060d0c4d96188",
                        "prev": "0x00000000000000000000000000000000000000000000000000000000000936e8"
                    }
                ],
                "storageVariables": [
                    {
                        "name": "offers",
                        "type": "mapping(uint256 => struct SimpleMarket.OfferInfo)",
                        "value": {
                            "pairs": [
                                {
                                    "key": "603885",
                                    "value": {
                                        "fields": [
                                            {
                                                "name": "pay_amt",
                                                "type": "uint256",
                                                "value": {
                                                    "current": "50000000000000000000",
                                                    "prev": "0",
                                                    "typeTag": 1
                                                }
                                            },
                                            {
                                                "name": "pay_gem",
                                                "type": "contract ERC20",
                                                "value": {
                                                    "current": "0xc02aaa39b223fe8d0a0e5c4f27ead9083c756cc2",
                                                    "prev": "0x0000000000000000000000000000000000000000",
                                                    "typeTag": 1
                                                }
                                            },
                                            {
                                                "name": "buy_amt",
                                                "type": "uint256",
                                                "value": {
                                                    "current": "7436450000000000000000",
                                                    "prev": "0",
                                                    "typeTag": 1
                                                }
                                            },
                                            {
                                                "name": "buy_gem",
                                                "type": "contract ERC20",
                                                "value": {
                                                    "current": "0x89d24a6b4ccb1b6faa2625fe562bdd9a23260359",
                                                    "prev": "0x0000000000000000000000000000000000000000",
                                                    "typeTag": 1
                                                }
                                            },
                                            {
                                                "name": "owner",
                                                "type": "address",
                                                "value": {
                                                    "current": "0xad9eb619ce1033cc710d9f9806a2330f85875f22",
                                                    "prev": "0x0000000000000000000000000000000000000000",
                                                    "typeTag": 1
                                                }
                                            },
                                            {
                                                "name": "timestamp",
                                                "type": "uint64",
                                                "value": {
                                                    "current": "1574463902",
                                                    "prev": "0",
                                                    "typeTag": 1
                                                }
                                            }
                                        ],
                                        "typeTag": 3
                                    }
                                }
                            ],
                            "typeTag": 4
                        }
                    },
                    {
                        "name": "last_offer_id",
                        "type": "uint256",
                        "value": {
                            "current": "603885",
                            "prev": "603884",
                            "typeTag": 1
                        }
                    },
                    {
                        "name": "_rank",
                        "type": "mapping(uint256 => struct MatchingMarket.sortInfo)",
                        "value": {
                            "pairs": [
                                {
                                    "key": "603873",
                                    "value": {
                                        "fields": [
                                            {
                                                "name": "prev",
                                                "type": "uint256",
                                                "value": {
                                                    "current": "603885",
                                                    "prev": "603880",
                                                    "typeTag": 1
                                                }
                                            }
                                        ],
                                        "typeTag": 3
                                    }
                                },
                                {
                                    "key": "603880",
                                    "value": {
                                        "fields": [
                                            {
                                                "name": "next",
                                                "type": "uint256",
                                                "value": {
                                                    "current": "603885",
                                                    "prev": "603873",
                                                    "typeTag": 1
                                                }
                                            }
                                        ],
                                        "typeTag": 3
                                    }
                                },
                                {
                                    "key": "603885",
                                    "value": {
                                        "fields": [
                                            {
                                                "name": "next",
                                                "type": "uint256",
                                                "value": {
                                                    "current": "603873",
                                                    "prev": "0",
                                                    "typeTag": 1
                                                }
                                            },
                                            {
                                                "name": "prev",
                                                "type": "uint256",
                                                "value": {
                                                    "current": "603880",
                                                    "prev": "0",
                                                    "typeTag": 1
                                                }
                                            }
                                        ],
                                        "typeTag": 3
                                    }
                                }
                            ],
                            "typeTag": 4
                        }
                    },
                    {
                        "name": "_span",
                        "type": "mapping(address => mapping(address => uint256))",
                        "value": {
                            "pairs": [
                                {
                                    "key": "0xc02aaa39b223fe8d0a0e5c4f27ead9083c756cc2",
                                    "value": {
                                        "pairs": [
                                            {
                                                "key": "0x89d24a6b4ccb1b6faa2625fe562bdd9a23260359",
                                                "value": {
                                                    "current": "101",
                                                    "prev": "100",
                                                    "typeTag": 1
                                                }
                                            }
                                        ],
                                        "typeTag": 4
                                    }
                                }
                            ],
                            "typeTag": 4
                        }
                    }
                ]
            },
            {
                "address": "0xc02aaa39b223fe8d0a0e5c4f27ead9083c756cc2",
                "erc": "ERC-20",
                "slots": [
                    {
                        "current": "0x0000000000000000000000000000000000000000000000060d018fabf45307e6",
                        "key": "0xf357e887b871a045a06c5656b2cdf7c45762792b9e62062eb6520f329f1c2f73",
                        "prev": "0x000000000000000000000000000000000000000000000008c2e53ec2a5db07e6"
                    },
                    {
                        "current": "0x0000000000000000000000000000000000000000000002534ca0aed1448115e8",
                        "key": "0xecced9b33d22c9f8431bf329c5851168432be8f905355b0611c764c4e584c0f3",
                        "prev": "0x00000000000000000000000000000000000000000000025096bcffba92f915e8"
                    }
                ],
                "storageVariables": [
                    {
                        "name": "balanceOf",
                        "type": "mapping(address => uint256)",
                        "value": {
                            "pairs": [
                                {
                                    "key": "0x39755357759ce0d7f32dc8dc45414cca409ae24e",
                                    "value": {
                                        "current": "10981334329214160147944",
                                        "prev": "10931334329214160147944",
                                        "typeTag": 1
                                    }
                                },
                                {
                                    "key": "0xad9eb619ce1033cc710d9f9806a2330f85875f22",
                                    "value": {
                                        "current": "111617652608428345318",
                                        "prev": "161617652608428345318",
                                        "typeTag": 1
                                    }
                                }
                            ],
                            "typeTag": 4
                        }
                    }
                ]
            }
        ]
    }
}