{
    "balance_change": {
        "balanceChanges": [
            {
                "account": "0x0000000000000000000000000000000000000000",
                "assets": [
                    {
                        "address": "0xd1e5b0ff1287aa9f9a268759062e4ab08b9dacbe",
                        "amount": "1",
                        "iconUrl": "https://assets.blocksec.com/nft/icon/nft_06518a39-9e09-4aec-8705-c5929d50952c.png",
                        "isERC1155": false,
                        "isERC721": true,
                        "sign": false,
                        "tokenID": "36599252163566410844164477595584215263515577810247699736908703844578694670959",
                        "value": ""
                    }
                ]
            },
            {
                "account": "0xaee10c50e32d1ec1c969b48d50c41da094f65cc9",
                "assets": [
                    {
                        "address": "0xd1e5b0ff1287aa9f9a268759062e4ab08b9dacbe",
                        "amount": "1",
                        "iconUrl": "https://assets.blocksec.com/nft/icon/nft_06518a39-9e09-4aec-8705-c5929d50952c.png",
                        "isERC1155": false,
                        "isERC721": true,
                        "sign": true,
                        "tokenID": "36599252163566410844164477595584215263515577810247699736908703844578694670959",
                        "value": ""
                    }
                ]
            }
        ]
    },
    "profile": {
        "basic_info": {
            "baseFee": "",
            "blockNumber": 12151712,
            "callData": "0x3d7989fe000000000000000000000000aee10c50e32d1ec1c969b48d50c41da094f65cc9000000000000000000000000000000000000000000000000000000000000008000000000000000000000000000000000000000000000000000000000000000c000000000000000000000000000000000000000000000000000000000000000e0000000000000000000000000000000000000000000000000000000000000000a6d6172736576656e74730000000000000000000000000000000000000000000000000000000000000000000000000000000000000000000000000000000000000000000000000000000000000000000000000000000000000000000000000000",
            "debugEnable": true,
            "errorInfo": "",
            "eventCount": 3,
            "feeRecipient": "0x5a0b54d5dc17e0aadc383d2db43b0a0d3e029c4c",
            "formatValue": "0",
            "gasLimit": 162482,
            "gasPrice": "140",
            "gasUsed": 128237,
            "intTxnCount": 6,
            "internalRevert": false,
            "internalRevertMessage": "",
            "isContractCreation": false,
            "isFlashloan": false,
            "maxFee": "",
            "nonce": 228,
            "overwritedBlockNumber": -1,
            "priorityFee": "",
            "receiver": "0xd3ff3377b0ceade1303daf9db04068ef8a650757",
            "revertMessage": "",
            "sender": "0xd299849ee16d769969ee00a22c3ab9d435bae42d",
            "simulationEnable": true,
            "sourceTxnHash": "0x78731364b3402ee87ba218b5d31845652fc2de44a95d557f984178e1e939b086",
            "status": true,
            "timestamp": "2021-04-01T05:20:53Z",
            "transactionFee": "0.01795318",
            "txnHash": "0x78731364b3402ee87ba218b5d31845652fc2de44a95d557f984178e1e939b086",
            "txnIndex": 130,
            "type": 0,
            "value": "0"
        },
        "fund_flow": [
            {
                "amount": "1",
                "from": "0x0000000000000000000000000000000000000000",
                "id": 1,
                "isERC1155": false,
                "isERC721": true,
                "isReverted": false,
                "order": 1,
                "to": "0xaee10c50e32d1ec1c969b48d50c41da094f65cc9",
                "token": "0xd1e5b0ff1287aa9f9a268759062e4ab08b9dacbe",
                "tokenID": "36599252163566410844164477595584215263515577810247699736908703844578694670959"
            }
        ],
        "token_infos": [
            {
                "address": "0xc02aaa39b223fe8d0a0e5c4f27ead9083c756cc2",
                "decimals": 18
            },
            {
                "address": "0xeeeeeeeeeeeeeeeeeeeeeeeeeeeeeeeeeeeeeeee",
                "decimals": 18
            }
        ]
    },
    "address_label": {
        "labels": [
            {
                "address": "0x0000000000000000000000000000000000000002",
                "label": "Precompiled"
            },
            {
                "address": "0x0000000000000000000000000000000000000003",
                "label": "Precompiled"
            },
            {
                "address": "0xeeeeeeeeeeeeeeeeeeeeeeeeeeeeeeeeeeeeeeee",
                "label": "Ether"
            },
            {
                "address": "0xd1e5b0ff1287aa9f9a268759062e4ab08b9dacbe",
                "label": ".Crypto: Registry"
            },
            {
                "address": "0x0000000000000000000000000000000000000001",
                "label": "Precompiled"
            },
            {
                "address": "0x0000000000000000000000000000000000000004",
                "label": "Precompiled"
            },
            {
                "address": "0xd3ff3377b0ceade1303daf9db04068ef8a650757",
                "label": "Unstoppable Domains: Whitelisted Minter"
            },
            {
                "address": "0xb0ee56339c3253361730f50c08d3d7817ecd60ca",
                "label": "Unstoppable Domains: Minting Controller"
            },
            {
                "address": "0xb66dce2da6afaaa98f2013446dbcb0f4b0ab2842",
                "label": "Unstoppable Domains: Resolver"
            }
        ]
    },
    "trace": {
        "accountLabels": null,
        "dataMap": {
            "-1": {
                "invocation": {
                    "address": "0xd299849ee16d769969ee00a22c3ab9d435bae42d",
                    "callData": "",
                    "decodedMethod": null,
                    "errorInfo": "",
                    "fromAddress": "",
                    "gasUsed": 0,
                    "id": -1,
                    "methodDecoded": false,
                    "operation": "",
                    "output": "",
                    "revert": false,
                    "revertMessage": "",
                    "selector": "",
                    "status": false,
                    "value": ""
                },
                "nodeType": 0
            },
            "0": {
                "invocation": {
                    "address": "0xd3ff3377b0ceade1303daf9db04068ef8a650757",
                    "callData": "0x000000000000000000000000aee10c50e32d1ec1c969b48d50c41da094f65cc9000000000000000000000000000000000000000000000000000000000000008000000000000000000000000000000000000000000000000000000000000000c000000000000000000000000000000000000000000000000000000000000000e0000000000000000000000000000000000000000000000000000000000000000a6d6172736576656e74730000000000000000000000000000000000000000000000000000000000000000000000000000000000000000000000000000000000000000000000000000000000000000000000000000000000000000000000000000",
                    "decodedMethod": {
                        "callParams": [
                            {
                                "name": "to",
                                "type": "address",
                                "value": "0xaee10c50e32d1ec1c969b48d50c41da094f65cc9"
                            },
                            {
                                "name": "label",
                                "type": "string",
                                "value": "marsevents"
                            },
                            {
                                "name": "keys",
                                "type": "string[]",
                                "value": []
                            },
                            {
                                "name": "values",
                                "type": "string[]",
                                "value": []
                            }
                        ],
                        "constructorArguments": "",
                        "name": "mintSLDToDefaultResolver",
                        "returnParams": [],
                        "signature": "mintSLDToDefaultResolver(address,string,string[],string[])"
                    },
                    "errorInfo": "",
                    "fromAddress": "0xd299849ee16d769969ee00a22c3ab9d435bae42d",
                    "gasUsed": 128237,
                    "id": 0,
                    "methodDecoded": true,
                    "operation": "CALL",
                    "output": "",
                    "revert": false,
                    "revertMessage": "",
                    "selector": "0x3d7989fe",
                    "status": true,
                    "value": "0"
                },
                "nodeType": 0
            },
            "1": {
                "invocation": {
                    "address": "0xb0ee56339c3253361730f50c08d3d7817ecd60ca",
                    "callData": "0x000000000000000000000000aee10c50e32d1ec1c969b48d50c41da094f65cc90000000000000000000000000000000000000000000000000000000000000060000000000000000000000000b66dce2da6afaaa98f2013446dbcb0f4b0ab2842000000000000000000000000000000000000000000000000000000000000000a6d6172736576656e747300000000000000000000000000000000000000000000",
                    "decodedMethod": {
                        "callParams": [
                            {
                                "name": "to",
                                "type": "address",
                                "value": "0xaee10c50e32d1ec1c969b48d50c41da094f65cc9"
                            },
                            {
                                "name": "label",
                                "type": "string",
                                "value": "marsevents"
                            },
                            {
                                "name": "resolver",
                                "type": "address",
                                "value": "0xb66dce2da6afaaa98f2013446dbcb0f4b0ab2842"
                            }
                        ],
                        "constructorArguments": "",
                        "name": "mintSLDWithResolver",
                        "returnParams": [],
                        "signature": "mintSLDWithResolver(address,string,address)"
                    },
                    "errorInfo": "",
                    "fromAddress": "0xd3ff3377b0ceade1303daf9db04068ef8a650757",
                    "gasUsed": 97482,
                    "id": 1,
                    "methodDecoded": true,
                    "operation": "CALL",
                    "output": "",
                    "revert": false,
                    "revertMessage": "",
                    "selector": "0xc36c2125",
                    "status": true,
                    "value": "0"
                },
                "nodeType": 0
            },
            "2": {
                "invocation": {
                    "address": "0xd1e5b0ff1287aa9f9a268759062e4ab08b9dacbe",
                    "callData": "0x",
                    "decodedMethod": {
                        "callParams": [],
                        "constructorArguments": "",
                        "name": "root",
                        "returnParams": [
                            {
                                "name": "",
                                "type": "uint256",
                                "value": "6,915,554,286,656,091,279,949,062,454,670,022,140,884,697,215,296,220,624,394,276,976,218,079,984,239"
                            }
                        ],
                        "signature": "root()"
                    },
                    "errorInfo": "",
                    "fromAddress": "0xb0ee56339c3253361730f50c08d3d7817ecd60ca",
                    "gasUsed": 330,
                    "id": 2,
                    "methodDecoded": true,
                    "operation": "STATICCALL",
                    "output": "0x0f4a10a4f46c288cea365fcf45cccf0e9d901b945b9829ccdb54c10dc3cb7a6f",
                    "revert": false,
                    "revertMessage": "",
                    "selector": "0xebf0c717",
                    "status": true,
                    "value": "0"
                },
                "nodeType": 0
            },
            "3": {
                "invocation": {
                    "address": "0xd1e5b0ff1287aa9f9a268759062e4ab08b9dacbe",
                    "callData": "0x000000000000000000000000aee10c50e32d1ec1c969b48d50c41da094f65cc90f4a10a4f46c288cea365fcf45cccf0e9d901b945b9829ccdb54c10dc3cb7a6f0000000000000000000000000000000000000000000000000000000000000060000000000000000000000000000000000000000000000000000000000000000a6d6172736576656e747300000000000000000000000000000000000000000000",
                    "decodedMethod": {
                        "callParams": [
                            {
                                "name": "to",
                                "type": "address",
                                "value": "0xaee10c50e32d1ec1c969b48d50c41da094f65cc9"
                            },
                            {
                                "name": "tokenId",
                                "type": "uint256",
                                "value": "6,915,554,286,656,091,279,949,062,454,670,022,140,884,697,215,296,220,624,394,276,976,218,079,984,239"
                            },
                            {
                                "name": "label",
                                "type": "string",
                                "value": "marsevents"
                            }
                        ],
                        "constructorArguments": "",
                        "name": "controlledMintChild",
                        "returnParams": [],
                        "signature": "controlledMintChild(address,uint256,string)"
                    },
                    "errorInfo": "",
                    "fromAddress": "0xb0ee56339c3253361730f50c08d3d7817ecd60ca",
                    "gasUsed": 58609,
                    "id": 3,
                    "methodDecoded": true,
                    "operation": "CALL",
                    "output": "",
                    "revert": false,
                    "revertMessage": "",
                    "selector": "0xb5466669",
                    "status": true,
                    "value": "0"
                },
                "nodeType": 0
            },
            "4": {
                "event": {
                    "contract": "0xd1e5b0ff1287aa9f9a268759062e4ab08b9dacbe",
                    "decodedLog": {
                        "name": "Transfer",
                        "params": [
                            {
                                "name": "from",
                                "type": "address",
                                "value": "0x0000000000000000000000000000000000000000"
                            },
                            {
                                "name": "to",
                                "type": "address",
                                "value": "0xaee10c50e32d1ec1c969b48d50c41da094f65cc9"
                            },
                            {
                                "decimalAvailable": true,
                                "name": "tokenId",
                                "type": "uint256",
                                "value": "36,599,252,163,566,410,844,164,477,595,584,215,263,515,577,810,247,699,736,908,703,844,578,694,670,959"
                            }
                        ],
                        "signature": "Transfer(address,address,uint256)"
                    },
                    "id": 4,
                    "logData": "0x",
                    "logDecoded": true,
                    "operation": "EVENT",
                    "revert": false,
                    "status": true,
                    "topics": [
                        "0xddf252ad1be2c89b69c2b068fc378daa952ba7f163c4a11628f55a4df523b3ef",
                        "0x0000000000000000000000000000000000000000000000000000000000000000",
                        "0x000000000000000000000000aee10c50e32d1ec1c969b48d50c41da094f65cc9",
                        "0x50ea71505b4a6dff603f4daa08c22fab4cb312cab57ac15173cfc402ffde2a6f"
                    ]
                },
                "nodeType": 1
            },
            "5": {
                "event": {
                    "contract": "0xd1e5b0ff1287aa9f9a268759062e4ab08b9dacbe",
                    "decodedLog": {
                        "name": "NewURI",
                        "params": [
                            {
                                "name": "tokenId",
                                "type": "uint256",
                                "value": "36,599,252,163,566,410,844,164,477,595,584,215,263,515,577,810,247,699,736,908,703,844,578,694,670,959"
                            },
                            {
                                "name": "uri",
                                "type": "string",
                                "value": "marsevents.crypto"
                            }
                        ],
                        "signature": "NewURI(uint256,string)"
                    },
                    "id": 5,
                    "logData": "0x000000000000000000000000000000000000000000000000000000000000002000000000000000000000000000000000000000000000000000000000000000116d6172736576656e74732e63727970746f000000000000000000000000000000",
                    "logDecoded": true,
                    "operation": "EVENT",
                    "revert": false,
                    "status": true,
                    "topics": [
                        "0xc5beef08f693b11c316c0c8394a377a0033c9cf701b8cd8afd79cecef60c3952",
                        "0x50ea71505b4a6dff603f4daa08c22fab4cb312cab57ac15173cfc402ffde2a6f"
                    ]
                },
                "nodeType": 1
            },
            "6": {
                "invocation": {
                    "address": "0xd1e5b0ff1287aa9f9a268759062e4ab08b9dacbe",
                    "callData": "0x",
                    "decodedMethod": {
                        "callParams": [],
                        "constructorArguments": "",
                        "name": "root",
                        "returnParams": [
                            {
                                "name": "",
                                "type": "uint256",
                                "value": "6,915,554,286,656,091,279,949,062,454,670,022,140,884,697,215,296,220,624,394,276,976,218,079,984,239"
                            }
                        ],
                        "signature": "root()"
                    },
                    "errorInfo": "",
                    "fromAddress": "0xb0ee56339c3253361730f50c08d3d7817ecd60ca",
                    "gasUsed": 330,
                    "id": 6,
                    "methodDecoded": true,
                    "operation": "STATICCALL",
                    "output": "0x0f4a10a4f46c288cea365fcf45cccf0e9d901b945b9829ccdb54c10dc3cb7a6f",
                    "revert": false,
                    "revertMessage": "",
                    "selector": "0xebf0c717",
                    "status": true,
                    "value": "0"
                },
                "nodeType": 0
            },
            "7": {
                "invocation": {
                    "address": "0xd1e5b0ff1287aa9f9a268759062e4ab08b9dacbe",
                    "callData": "0x0f4a10a4f46c288cea365fcf45cccf0e9d901b945b9829ccdb54c10dc3cb7a6f0000000000000000000000000000000000000000000000000000000000000040000000000000000000000000000000000000000000000000000000000000000a6d6172736576656e747300000000000000000000000000000000000000000000",
                    "decodedMethod": {
                        "callParams": [
                            {
                                "name": "tokenId",
                                "type": "uint256",
                                "value": "6,915,554,286,656,091,279,949,062,454,670,022,140,884,697,215,296,220,624,394,276,976,218,079,984,239"
                            },
                            {
                                "name": "label",
                                "type": "string",
                                "value": "marsevents"
                            }
                        ],
                        "constructorArguments": "",
                        "name": "childIdOf",
                        "returnParams": [
                            {
                                "name": "",
                                "type": "uint256",
                                "value": "36,599,252,163,566,410,844,164,477,595,584,215,263,515,577,810,247,699,736,908,703,844,578,694,670,959"
                            }
                        ],
                        "signature": "childIdOf(uint256,string)"
                    },
                    "errorInfo": "",
                    "fromAddress": "0xb0ee56339c3253361730f50c08d3d7817ecd60ca",
                    "gasUsed": 1264,
                    "id": 7,
                    "methodDecoded": true,
                    "operation": "STATICCALL",
                    "output": "0x50ea71505b4a6dff603f4daa08c22fab4cb312cab57ac15173cfc402ffde2a6f",
                    "revert": false,
                    "revertMessage": "",
                    "selector": "0x68b62d32",
                    "status": true,
                    "value": "0"
                },
                "nodeType": 0
            },
            "8": {
                "invocation": {
                    "address": "0xd1e5b0ff1287aa9f9a268759062e4ab08b9dacbe",
                    "callData": "0x000000000000000000000000b66dce2da6afaaa98f2013446dbcb0f4b0ab284250ea71505b4a6dff603f4daa08c22fab4cb312cab57ac15173cfc402ffde2a6f",
                    "decodedMethod": {
                        "callParams": [
                            {
                                "name": "to",
                                "type": "address",
                                "value": "0xb66dce2da6afaaa98f2013446dbcb0f4b0ab2842"
                            },
                            {
                                "name": "tokenId",
                                "type": "uint256",
                                "value": "36,599,252,163,566,410,844,164,477,595,584,215,263,515,577,810,247,699,736,908,703,844,578,694,670,959"
                            }
                        ],
                        "constructorArguments": "",
                        "name": "controlledResolveTo",
                        "returnParams": [],
                        "signature": "controlledResolveTo(address,uint256)"
                    },
                    "errorInfo": "",
                    "fromAddress": "0xb0ee56339c3253361730f50c08d3d7817ecd60ca",
                    "gasUsed": 24838,
                    "id": 8,
                    "methodDecoded": true,
                    "operation": "CALL",
                    "output": "",
                    "revert": false,
                    "revertMessage": "",
                    "selector": "0x2525d06a",
                    "status": true,
                    "value": "0"
                },
                "nodeType": 0
            },
            "9": {
                "event": {
                    "contract": "0xd1e5b0ff1287aa9f9a268759062e4ab08b9dacbe",
                    "decodedLog": {
                        "name": "Resolve",
                        "params": [
                            {
                                "name": "tokenId",
                                "type": "uint256",
                                "value": "36,599,252,163,566,410,844,164,477,595,584,215,263,515,577,810,247,699,736,908,703,844,578,694,670,959"
                            },
                            {
                                "name": "to",
                                "type": "address",
                                "value": "0xb66dce2da6afaaa98f2013446dbcb0f4b0ab2842"
                            }
                        ],
                        "signature": "Resolve(uint256,address)"
                    },
                    "id": 9,
                    "logData": "0x",
                    "logDecoded": true,
                    "operation": "EVENT",
                    "revert": false,
                    "status": true,
                    "topics": [
                        "0xb1b34e6d89e1c584527d447f4b29ffad55635a37edeeb564939a6483401b31a5",
                        "0x50ea71505b4a6dff603f4daa08c22fab4cb312cab57ac15173cfc402ffde2a6f",
                        "0x000000000000000000000000b66dce2da6afaaa98f2013446dbcb0f4b0ab2842"
                    ]
                },
                "nodeType": 1
            }
        },
        "gasFlame": [
            {
                "children": [
                    {
                        "children": [
                            {
                                "children": [],
                                "depth": 0,
                                "name": "Initial Gas",
                                "value": 22496
                            },
                            {
                                "children": [
                                    {
                                        "children": [
                                            {
                                                "children": [],
                                                "depth": 2,
                                                "name": "root",
                                                "value": 330
                                            },
                                            {
                                                "children": [],
                                                "depth": 2,
                                                "name": "controlledMintChild",
                                                "value": 58609
                                            },
                                            {
                                                "children": [],
                                                "depth": 2,
                                                "name": "root",
                                                "value": 330
                                            },
                                            {
                                                "children": [],
                                                "depth": 2,
                                                "name": "childIdOf",
                                                "value": 1264
                                            },
                                            {
                                                "children": [],
                                                "depth": 2,
                                                "name": "controlledResolveTo",
                                                "value": 24838
                                            }
                                        ],
                                        "depth": 1,
                                        "name": "mintSLDWithResolver",
                                        "value": 97482
                                    }
                                ],
                                "depth": 0,
                                "name": "Executed Gas",
                                "value": 105741
                            }
                        ],
                        "depth": -1,
                        "name": "Actual Gas Used",
                        "value": 128237
                    },
                    {
                        "children": [],
                        "depth": -1,
                        "name": "Refunded Gas",
                        "value": 0
                    }
                ],
                "depth": -2,
                "name": "Total Gas",
                "value": 128237
            }
        ],
        "isConfirmed": true,
        "mainTrace": [
            {
                "children": [
                    {
                        "children": [
                            {
                                "children": [
                                    {
                                        "children": [],
                                        "depth": 2,
                                        "id": 2,
                                        "order": 2
                                    },
                                    {
                                        "children": [
                                            {
                                                "children": [],
                                                "depth": 3,
                                                "id": 4,
                                                "order": 4
                                            },
                                            {
                                                "children": [],
                                                "depth": 3,
                                                "id": 5,
                                                "order": 5
                                            }
                                        ],
                                        "depth": 2,
                                        "id": 3,
                                        "order": 3
                                    },
                                    {
                                        "children": [],
                                        "depth": 2,
                                        "id": 6,
                                        "order": 6
                                    },
                                    {
                                        "children": [],
                                        "depth": 2,
                                        "id": 7,
                                        "order": 7
                                    },
                                    {
                                        "children": [
                                            {
                                                "children": [],
                                                "depth": 3,
                                                "id": 9,
                                                "order": 9
                                            }
                                        ],
                                        "depth": 2,
                                        "id": 8,
                                        "order": 8
                                    }
                                ],
                                "depth": 1,
                                "id": 1,
                                "order": 1
                            }
                        ],
                        "depth": 0,
                        "id": 0,
                        "order": 0
                    }
                ],
                "depth": -1,
                "id": -1,
                "order": -1
            }
        ],
        "mainTraceNodeCount": 10,
        "parentIdMap": {
            "0": -1,
            "1": 0,
            "2": 1,
            "3": 1,
            "4": 3,
            "5": 3,
            "6": 1,
            "7": 1,
            "8": 1,
            "9": 8
        },
        "tidyTrace": [
            {
                "children": [
                    {
                        "children": [
                            {
                                "children": [
                                    {
                                        "children": [
                                            {
                                                "children": [],
                                                "depth": 3,
                                                "id": 4,
                                                "order": 4
                                            },
                                            {
                                                "children": [],
                                                "depth": 3,
                                                "id": 5,
                                                "order": 5
                                            }
                                        ],
                                        "depth": 2,
                                        "id": 3,
                                        "order": 3
                                    },
                                    {
                                        "children": [
                                            {
                                                "children": [],
                                                "depth": 3,
                                                "id": 9,
                                                "order": 9
                                            }
                                        ],
                                        "depth": 2,
                                        "id": 8,
                                        "order": 8
                                    }
                                ],
                                "depth": 1,
                                "id": 1,
                                "order": 1
                            }
                        ],
                        "depth": 0,
                        "id": 0,
                        "order": 0
                    }
                ],
                "depth": -1,
                "id": -1,
                "order": -1
            }
        ],
        "tidyTraceNodeCount": 7
    },
    "state_change": {
        "stateChanges": [
            {
                "address": "0xd1e5b0ff1287aa9f9a268759062e4ab08b9dacbe",
                "erc": "ERC-721",
                "slots": [
                    {
                        "current": "0x6d6172736576656e74732e63727970746f000000000000000000000000000022",
                        "key": "0x121b6873a08bbdc875aae262af1a175dcf9062d3bbe6d4d2fcf3b97eacd30e7d",
                        "prev": "0x0000000000000000000000000000000000000000000000000000000000000000"
                    },
                    {
                        "current": "0x000000000000000000000000aee10c50e32d1ec1c969b48d50c41da094f65cc9",
                        "key": "0xaa5ab99bd3d7c1bcb81351b1f2cd195d4f383a5300d29e3dc56e6ae9e9e7d405",
                        "prev": "0x0000000000000000000000000000000000000000000000000000000000000000"
                    },
                    {
                        "current": "0x000000000000000000000000000000000000000000000000000000000000001c",
                        "key": "0x816ac61a3a93c70ed0c0ac391c6e88523cadeeb7f122facbcc55cb1babbe493e",
                        "prev": "0x000000000000000000000000000000000000000000000000000000000000001b"
                    },
                    {
                        "current": "0x000000000000000000000000b66dce2da6afaaa98f2013446dbcb0f4b0ab2842",
                        "key": "0x13becfb974aef4a4c373f1443f81ad20888e17c5bfec4728684013498a39e733",
                        "prev": "0x0000000000000000000000000000000000000000000000000000000000000000"
                    }
                ],
                "storageVariables": [
                    {
                        "name": "_tokenResolvers",
                        "type": "mapping(uint256 => address)",
                        "value": {
                            "pairs": [
                                {
                                    "key": "36599252163566410844164477595584215263515577810247699736908703844578694670959",
                                    "value": {
                                        "current": "0xb66dce2da6afaaa98f2013446dbcb0f4b0ab2842",
                                        "prev": "0x0000000000000000000000000000000000000000",
                                        "typeTag": 1
                                    }
                                }
                            ],
                            "typeTag": 4
                        }
                    },
                    {
                        "name": "_tokenURIs",
                        "type": "mapping(uint256 => string)",
                        "value": {
                            "pairs": [
                                {
                                    "key": "36599252163566410844164477595584215263515577810247699736908703844578694670959",
                                    "value": {
                                        "current": "marsevents.crypto",
                                        "prev": "",
                                        "typeTag": 1
                                    }
                                }
                            ],
                            "typeTag": 4
                        }
                    },
                    {
                        "name": "_tokenOwner",
                        "type": "mapping(uint256 => address)",
                        "value": {
                            "pairs": [
                                {
                                    "key": "36599252163566410844164477595584215263515577810247699736908703844578694670959",
                                    "value": {
                                        "current": "0xaee10c50e32d1ec1c969b48d50c41da094f65cc9",
                                        "prev": "0x0000000000000000000000000000000000000000",
                                        "typeTag": 1
                                    }
                                }
                            ],
                            "typeTag": 4
                        }
                    },
                    {
                        "name": "_ownedTokensCount",
                        "type": "mapping(address => struct Counters.Counter)",
                        "value": {
                            "pairs": [
                                {
                                    "key": "0xaee10c50e32d1ec1c969b48d50c41da094f65cc9",
                                    "value": {
                                        "fields": [
                                            {
                                                "name": "_value",
                                                "type": "uint256",
                                                "value": {
                                                    "current": "28",
                                                    "prev": "27",
                                                    "typeTag": 1
                                                }
                                            }
                                        ],
                                        "typeTag": 3
                                    }
                                }
                            ],
                            "typeTag": 4
                        }
                    }
                ]
            }
        ]
    }
}