{
    "balance_change": {
        "balanceChanges": [
            {
                "account": "0x3d7094c38419b9948042fa7c2de489978eaf79d5",
                "assets": [
                    {
                        "address": "0x5b8174e20996ec743f01d3b55a35dd376429c596",
                        "amount": "98",
                        "iconUrl": "",
                        "isERC1155": false,
                        "isERC721": false,
                        "sign": false,
                        "value": ""
                    }
                ]
            },
            {
                "account": "0xcbb06f6b7270514bd2d91c7886c33cd0e2662dd6",
                "assets": [
                    {
                        "address": "0x5b8174e20996ec743f01d3b55a35dd376429c596",
                        "amount": "98",
                        "iconUrl": "",
                        "isERC1155": false,
                        "isERC721": false,
                        "sign": true,
                        "value": ""
                    }
                ]
            }
        ]
    },
    "profile": {
        "basic_info": {
            "baseFee": "",
            "blockNumber": 9158478,
            "callData": "0xa9059cbb000000000000000000000000cbb06f6b7270514bd2d91c7886c33cd0e2662dd60000000000000000000000000000000000000000000000055005f0c614480000",
            "debugEnable": true,
            "errorInfo": "",
            "eventCount": 1,
            "feeRecipient": "0x5a0b54d5dc17e0aadc383d2db43b0a0d3e029c4c",
            "formatValue": "0",
            "gasLimit": 90000,
            "gasPrice": "10",
            "gasUsed": 42173,
            "intTxnCount": 0,
            "internalRevert": false,
            "internalRevertMessage": "",
            "isContractCreation": false,
            "isFlashloan": false,
            "maxFee": "",
            "nonce": 59222,
            "overwritedBlockNumber": -1,
            "priorityFee": "",
            "receiver": "0x5b8174e20996ec743f01d3b55a35dd376429c596",
            "revertMessage": "",
            "sender": "0x3d7094c38419b9948042fa7c2de489978eaf79d5",
            "simulationEnable": true,
            "sourceTxnHash": "0x79c47bf3627c1661dede1d82a3b19a10443fe072e06790e5a30a6089ca05d6e2",
            "status": true,
            "timestamp": "2019-12-25T01:32:18Z",
            "transactionFee": "0.00042173",
            "txnHash": "0x79c47bf3627c1661dede1d82a3b19a10443fe072e06790e5a30a6089ca05d6e2",
            "txnIndex": 44,
            "type": 0,
            "value": "0"
        },
        "fund_flow": [
            {
                "amount": "98",
                "from": "0x3d7094c38419b9948042fa7c2de489978eaf79d5",
                "id": 1,
                "isERC1155": false,
                "isERC721": false,
                "isReverted": false,
                "order": 1,
                "to": "0xcbb06f6b7270514bd2d91c7886c33cd0e2662dd6",
                "token": "0x5b8174e20996ec743f01d3b55a35dd376429c596"
            }
        ],
        "token_infos": [
            {
                "address": "0xeeeeeeeeeeeeeeeeeeeeeeeeeeeeeeeeeeeeeeee",
                "decimals": 18
            },
            {
                "address": "0x5b8174e20996ec743f01d3b55a35dd376429c596",
                "decimals": 18
            },
            {
                "address": "0xc02aaa39b223fe8d0a0e5c4f27ead9083c756cc2",
                "decimals": 18
            }
        ]
    },
    "address_label": {
        "labels": [
            {
                "address": "0x0000000000000000000000000000000000000001",
                "label": "Precompiled"
            },
            {
                "address": "0x0000000000000000000000000000000000000002",
                "label": "Precompiled"
            },
            {
                "address": "0x0000000000000000000000000000000000000003",
                "label": "Precompiled"
            },
            {
                "address": "0x0000000000000000000000000000000000000004",
                "label": "Precompiled"
            },
            {
                "address": "0xeeeeeeeeeeeeeeeeeeeeeeeeeeeeeeeeeeeeeeee",
                "label": "Ether"
            },
            {
                "address": "0x5b8174e20996ec743f01d3b55a35dd376429c596",
                "label": "PCPToken (PCPT)"
            }
        ]
    },
    "trace": {
        "accountLabels": null,
        "dataMap": {
            "-1": {
                "invocation": {
                    "address": "0x3d7094c38419b9948042fa7c2de489978eaf79d5",
                    "callData": "",
                    "decodedMethod": null,
                    "errorInfo": "",
                    "fromAddress": "",
                    "gasUsed": 0,
                    "id": -1,
                    "methodDecoded": false,
                    "operation": "",
                    "output": "",
                    "revert": false,
                    "revertMessage": "",
                    "selector": "",
                    "status": false,
                    "value": ""
                },
                "nodeType": 0
            },
            "0": {
                "invocation": {
                    "address": "0x5b8174e20996ec743f01d3b55a35dd376429c596",
                    "callData": "0x000000000000000000000000cbb06f6b7270514bd2d91c7886c33cd0e2662dd60000000000000000000000000000000000000000000000055005f0c614480000",
                    "decodedMethod": {
                        "callParams": [
                            {
                                "name": "_to",
                                "type": "address",
                                "value": "0xcbb06f6b7270514bd2d91c7886c33cd0e2662dd6"
                            },
                            {
                                "decimalAvailable": true,
                                "name": "_value",
                                "type": "uint256",
                                "value": "98,000,000,000,000,000,000"
                            }
                        ],
                        "constructorArguments": "",
                        "name": "transfer",
                        "returnParams": [
                            {
                                "name": "success",
                                "type": "bool",
                                "value": true
                            }
                        ],
                        "signature": "transfer(address,uint256)"
                    },
                    "errorInfo": "",
                    "fromAddress": "0x3d7094c38419b9948042fa7c2de489978eaf79d5",
                    "gasUsed": 42173,
                    "id": 0,
                    "methodDecoded": true,
                    "operation": "CALL",
                    "output": "0x0000000000000000000000000000000000000000000000000000000000000001",
                    "revert": false,
                    "revertMessage": "",
                    "selector": "0xa9059cbb",
                    "status": true,
                    "value": "0"
                },
                "nodeType": 0
            },
            "1": {
                "event": {
                    "contract": "0x5b8174e20996ec743f01d3b55a35dd376429c596",
                    "decodedLog": {
                        "name": "Transfer",
                        "params": [
                            {
                                "name": "from",
                                "type": "address",
                                "value": "0x3d7094c38419b9948042fa7c2de489978eaf79d5"
                            },
                            {
                                "name": "to",
                                "type": "address",
                                "value": "0xcbb06f6b7270514bd2d91c7886c33cd0e2662dd6"
                            },
                            {
                                "decimalAvailable": true,
                                "name": "value",
                                "type": "uint256",
                                "value": "98,000,000,000,000,000,000"
                            }
                        ],
                        "signature": "Transfer(address,address,uint256)"
                    },
                    "id": 1,
                    "logData": "0x0000000000000000000000000000000000000000000000055005f0c614480000",
                    "logDecoded": true,
                    "operation": "EVENT",
                    "revert": false,
                    "status": true,
                    "topics": [
                        "0xddf252ad1be2c89b69c2b068fc378daa952ba7f163c4a11628f55a4df523b3ef",
                        "0x0000000000000000000000003d7094c38419b9948042fa7c2de489978eaf79d5",
                        "0x000000000000000000000000cbb06f6b7270514bd2d91c7886c33cd0e2662dd6"
                    ]
                },
                "nodeType": 1
            }
        },
        "gasFlame": [
            {
                "children": [
                    {
                        "children": [
                            {
                                "children": [],
                                "depth": 0,
                                "name": "Initial Gas",
                                "value": 21644
                            },
                            {
                                "children": [],
                                "depth": 0,
                                "name": "Executed Gas",
                                "value": 20529
                            }
                        ],
                        "depth": -1,
                        "name": "Actual Gas Used",
                        "value": 42173
                    },
                    {
                        "children": [],
                        "depth": -1,
                        "name": "Refunded Gas",
                        "value": 0
                    }
                ],
                "depth": -2,
                "name": "Total Gas",
                "value": 42173
            }
        ],
        "isConfirmed": true,
        "mainTrace": [
            {
                "children": [
                    {
                        "children": [
                            {
                                "children": [],
                                "depth": 1,
                                "id": 1,
                                "order": 1
                            }
                        ],
                        "depth": 0,
                        "id": 0,
                        "order": 0
                    }
                ],
                "depth": -1,
                "id": -1,
                "order": -1
            }
        ],
        "mainTraceNodeCount": 2,
        "parentIdMap": {
            "0": -1,
            "1": 0
        },
        "tidyTrace": [
            {
                "children": [
                    {
                        "children": [
                            {
                                "children": [],
                                "depth": 1,
                                "id": 1,
                                "order": 1
                            }
                        ],
                        "depth": 0,
                        "id": 0,
                        "order": 0
                    }
                ],
                "depth": -1,
                "id": -1,
                "order": -1
            }
        ],
        "tidyTraceNodeCount": 2
    },
    "state_change": {
        "stateChanges": [
            {
                "address": "0x5b8174e20996ec743f01d3b55a35dd376429c596",
                "erc": "ERC-20",
                "slots": [
                    {
                        "current": "0x00000000000000000000000000000000000000000000324c82c195fe83f15560",
                        "key": "0x791bb5fa12d6c0f8e968b7347277a64a57e3328f70e846f9bcc1b7cb1106ae22",
                        "prev": "0x000000000000000000000000000000000000000000003251d2c786c498395560"
                    },
                    {
                        "current": "0x000000000000000000000000000000000000000000000035c70b060d83020000",
                        "key": "0xaaf5f4e3ffeeab3303090f088656149353c461cf975f7bf6566bf7342efe2dae",
                        "prev": "0x000000000000000000000000000000000000000000000030770515476eba0000"
                    }
                ],
                "storageVariables": [
                    {
                        "name": "balanceOf",
                        "type": "mapping(address => uint256)",
                        "value": {
                            "pairs": [
                                {
                                    "key": "0x3d7094c38419b9948042fa7c2de489978eaf79d5",
                                    "value": {
                                        "current": "237529698669899990259040",
                                        "prev": "237627698669899990259040",
                                        "typeTag": 1
                                    }
                                },
                                {
                                    "key": "0xcbb06f6b7270514bd2d91c7886c33cd0e2662dd6",
                                    "value": {
                                        "current": "992020000000000000000",
                                        "prev": "894020000000000000000",
                                        "typeTag": 1
                                    }
                                }
                            ],
                            "typeTag": 4
                        }
                    }
                ]
            }
        ]
    }
}