{
    "balance_change": {
        "balanceChanges": [
            {
                "account": "0xa4035aab3a01f949e70252528a0c7a0d5105d611",
                "assets": [
                    {
                        "address": "0x108caf59641fc5d27502a87e641872b62d606ae2",
                        "amount": "5,000",
                        "iconUrl": "",
                        "isERC1155": false,
                        "isERC721": false,
                        "sign": false,
                        "value": ""
                    }
                ]
            },
            {
                "account": "0x6586ddf4a8dc7002ff78a2c78dfd0a68db9c1c4d",
                "assets": [
                    {
                        "address": "0x108caf59641fc5d27502a87e641872b62d606ae2",
                        "amount": "5,000",
                        "iconUrl": "",
                        "isERC1155": false,
                        "isERC721": false,
                        "sign": true,
                        "value": ""
                    }
                ]
            }
        ]
    },
    "profile": {
        "basic_info": {
            "baseFee": "",
            "blockNumber": 4608220,
            "callData": "0xa9059cbb0000000000000000000000006586ddf4a8dc7002ff78a2c78dfd0a68db9c1c4d000000000000000000000000000000000000000000000000000000746a528800",
            "debugEnable": true,
            "errorInfo": "",
            "eventCount": 1,
            "feeRecipient": "0x829bd824b016326a401d083b33d092293333a830",
            "formatValue": "0",
            "gasLimit": 52039,
            "gasPrice": "1",
            "gasUsed": 52039,
            "intTxnCount": 0,
            "internalRevert": false,
            "internalRevertMessage": "",
            "isContractCreation": false,
            "isFlashloan": false,
            "maxFee": "",
            "nonce": 1700,
            "overwritedBlockNumber": -1,
            "priorityFee": "",
            "receiver": "0x108caf59641fc5d27502a87e641872b62d606ae2",
            "revertMessage": "",
            "sender": "0xa4035aab3a01f949e70252528a0c7a0d5105d611",
            "simulationEnable": true,
            "sourceTxnHash": "0x7906581b930b9c95225e8a818a682879dd11cfaffe466158f5375818cf32f7e7",
            "status": true,
            "timestamp": "2017-11-23T17:35:52Z",
            "transactionFee": "0.000052039",
            "txnHash": "0x7906581b930b9c95225e8a818a682879dd11cfaffe466158f5375818cf32f7e7",
            "txnIndex": 32,
            "type": 0,
            "value": "0"
        },
        "fund_flow": [
            {
                "amount": "5,000",
                "from": "0xa4035aab3a01f949e70252528a0c7a0d5105d611",
                "id": 1,
                "isERC1155": false,
                "isERC721": false,
                "isReverted": false,
                "order": 1,
                "to": "0x6586ddf4a8dc7002ff78a2c78dfd0a68db9c1c4d",
                "token": "0x108caf59641fc5d27502a87e641872b62d606ae2"
            }
        ],
        "token_infos": [
            {
                "address": "0x108caf59641fc5d27502a87e641872b62d606ae2",
                "decimals": 8
            },
            {
                "address": "0xc02aaa39b223fe8d0a0e5c4f27ead9083c756cc2",
                "decimals": 18
            },
            {
                "address": "0xeeeeeeeeeeeeeeeeeeeeeeeeeeeeeeeeeeeeeeee",
                "decimals": 18
            }
        ]
    },
    "address_label": {
        "labels": [
            {
                "address": "0x0000000000000000000000000000000000000001",
                "label": "Precompiled"
            },
            {
                "address": "0x0000000000000000000000000000000000000002",
                "label": "Precompiled"
            },
            {
                "address": "0x0000000000000000000000000000000000000003",
                "label": "Precompiled"
            },
            {
                "address": "0x0000000000000000000000000000000000000004",
                "label": "Precompiled"
            },
            {
                "address": "0xeeeeeeeeeeeeeeeeeeeeeeeeeeeeeeeeeeeeeeee",
                "label": "Ether"
            },
            {
                "address": "0x108caf59641fc5d27502a87e641872b62d606ae2",
                "label": "GREEN"
            }
        ]
    },
    "trace": {
        "accountLabels": null,
        "dataMap": {
            "-1": {
                "invocation": {
                    "address": "0xa4035aab3a01f949e70252528a0c7a0d5105d611",
                    "callData": "",
                    "decodedMethod": null,
                    "errorInfo": "",
                    "fromAddress": "",
                    "gasUsed": 0,
                    "id": -1,
                    "methodDecoded": false,
                    "operation": "",
                    "output": "",
                    "revert": false,
                    "revertMessage": "",
                    "selector": "",
                    "status": false,
                    "value": ""
                },
                "nodeType": 0
            },
            "0": {
                "invocation": {
                    "address": "0x108caf59641fc5d27502a87e641872b62d606ae2",
                    "callData": "0x0000000000000000000000006586ddf4a8dc7002ff78a2c78dfd0a68db9c1c4d000000000000000000000000000000000000000000000000000000746a528800",
                    "decodedMethod": {
                        "callParams": [
                            {
                                "name": "_to",
                                "type": "address",
                                "value": "0x6586ddf4a8dc7002ff78a2c78dfd0a68db9c1c4d"
                            },
                            {
                                "decimalAvailable": true,
                                "name": "_amount",
                                "type": "uint256",
                                "value": "500,000,000,000"
                            }
                        ],
                        "constructorArguments": "",
                        "name": "transfer",
                        "returnParams": [
                            {
                                "name": "success",
                                "type": "bool",
                                "value": true
                            }
                        ],
                        "signature": "transfer(address,uint256)"
                    },
                    "errorInfo": "",
                    "fromAddress": "0xa4035aab3a01f949e70252528a0c7a0d5105d611",
                    "gasUsed": 52039,
                    "id": 0,
                    "methodDecoded": true,
                    "operation": "CALL",
                    "output": "0x0000000000000000000000000000000000000000000000000000000000000001",
                    "revert": false,
                    "revertMessage": "",
                    "selector": "0xa9059cbb",
                    "status": true,
                    "value": "0"
                },
                "nodeType": 0
            },
            "1": {
                "event": {
                    "contract": "0x108caf59641fc5d27502a87e641872b62d606ae2",
                    "decodedLog": {
                        "name": "Transfer",
                        "params": [
                            {
                                "name": "_from",
                                "type": "address",
                                "value": "0xa4035aab3a01f949e70252528a0c7a0d5105d611"
                            },
                            {
                                "name": "_to",
                                "type": "address",
                                "value": "0x6586ddf4a8dc7002ff78a2c78dfd0a68db9c1c4d"
                            },
                            {
                                "decimalAvailable": true,
                                "name": "_value",
                                "type": "uint256",
                                "value": "500,000,000,000"
                            }
                        ],
                        "signature": "Transfer(address,address,uint256)"
                    },
                    "id": 1,
                    "logData": "0x000000000000000000000000000000000000000000000000000000746a528800",
                    "logDecoded": true,
                    "operation": "EVENT",
                    "revert": false,
                    "status": true,
                    "topics": [
                        "0xddf252ad1be2c89b69c2b068fc378daa952ba7f163c4a11628f55a4df523b3ef",
                        "0x000000000000000000000000a4035aab3a01f949e70252528a0c7a0d5105d611",
                        "0x0000000000000000000000006586ddf4a8dc7002ff78a2c78dfd0a68db9c1c4d"
                    ]
                },
                "nodeType": 1
            }
        },
        "gasFlame": [
            {
                "children": [
                    {
                        "children": [
                            {
                                "children": [],
                                "depth": 0,
                                "name": "Initial Gas",
                                "value": 23064
                            },
                            {
                                "children": [],
                                "depth": 0,
                                "name": "Executed Gas",
                                "value": 28975
                            }
                        ],
                        "depth": -1,
                        "name": "Actual Gas Used",
                        "value": 52039
                    },
                    {
                        "children": [],
                        "depth": -1,
                        "name": "Refunded Gas",
                        "value": 0
                    }
                ],
                "depth": -2,
                "name": "Total Gas",
                "value": 52039
            }
        ],
        "isConfirmed": true,
        "mainTrace": [
            {
                "children": [
                    {
                        "children": [
                            {
                                "children": [],
                                "depth": 1,
                                "id": 1,
                                "order": 1
                            }
                        ],
                        "depth": 0,
                        "id": 0,
                        "order": 0
                    }
                ],
                "depth": -1,
                "id": -1,
                "order": -1
            }
        ],
        "mainTraceNodeCount": 2,
        "parentIdMap": {
            "0": -1,
            "1": 0
        },
        "tidyTrace": [
            {
                "children": [
                    {
                        "children": [
                            {
                                "children": [],
                                "depth": 1,
                                "id": 1,
                                "order": 1
                            }
                        ],
                        "depth": 0,
                        "id": 0,
                        "order": 0
                    }
                ],
                "depth": -1,
                "id": -1,
                "order": -1
            }
        ],
        "tidyTraceNodeCount": 2
    },
    "state_change": {
        "stateChanges": [
            {
                "address": "0x108caf59641fc5d27502a87e641872b62d606ae2",
                "erc": "ERC-20",
                "slots": [
                    {
                        "current": "0x000000000000000000000000000000000000000000000000000000746a528800",
                        "key": "0xce6eff39a8afa2a04ef8a78dfa346b4f428c408f76698353cc014ff6ff88a169",
                        "prev": "0x0000000000000000000000000000000000000000000000000000000000000000"
                    },
                    {
                        "current": "0x000000000000000000000000000000000000000000000000000d063523bf2000",
                        "key": "0x9d5e91baa7eba2f4928758284a3fc52a36704a39ba23dae827618568f8a2bb6a",
                        "prev": "0x000000000000000000000000000000000000000000000000000d06a98e11a800"
                    }
                ],
                "storageVariables": [
                    {
                        "name": "balances",
                        "type": "mapping(address => uint256)",
                        "value": {
                            "pairs": [
                                {
                                    "key": "0x6586ddf4a8dc7002ff78a2c78dfd0a68db9c1c4d",
                                    "value": {
                                        "current": "500000000000",
                                        "prev": "0",
                                        "typeTag": 1
                                    }
                                },
                                {
                                    "key": "0xa4035aab3a01f949e70252528a0c7a0d5105d611",
                                    "value": {
                                        "current": "3666000000000000",
                                        "prev": "3666500000000000",
                                        "typeTag": 1
                                    }
                                }
                            ],
                            "typeTag": 4
                        }
                    }
                ]
            }
        ]
    }
}