{
    "balance_change": {
        "balanceChanges": [
            {
                "account": "0xaea3fd7664d966d5f519a49a6eedff891229b506",
                "assets": [
                    {
                        "address": "0x7f4c5447af6a96d8eeaee1d932338cfc57890dbd",
                        "amount": "2,881,474,490.334043",
                        "iconUrl": "",
                        "isERC1155": false,
                        "isERC721": false,
                        "sign": false,
                        "value": "21.64109746"
                    },
                    {
                        "address": "0xeeeeeeeeeeeeeeeeeeeeeeeeeeeeeeeeeeeeeeee",
                        "amount": "0.011282774700584128",
                        "iconUrl": "https://assets.blocksec.com/image/1663669189317-3.png",
                        "isERC1155": false,
                        "isERC721": false,
                        "sign": true,
                        "value": "21.50541988918799959"
                    }
                ]
            },
            {
                "account": "0x12b791bb27b3a4ee958b5a435fea7d49ec076e9c",
                "assets": [
                    {
                        "address": "0xc02aaa39b223fe8d0a0e5c4f27ead9083c756cc2",
                        "amount": "0.011282774700584128",
                        "iconUrl": "https://assets.blocksec.com/icon/f1cb2d02c471d545bbc7722daf3277fd852d98e63d118771af7047bd8256c516.png",
                        "isERC1155": false,
                        "isERC721": false,
                        "sign": false,
                        "value": "21.50541988918799959"
                    },
                    {
                        "address": "0x7f4c5447af6a96d8eeaee1d932338cfc57890dbd",
                        "amount": "2,881,474,490.334043",
                        "iconUrl": "",
                        "isERC1155": false,
                        "isERC721": false,
                        "sign": true,
                        "value": "21.64109746"
                    }
                ]
            },
            {
                "account": "0xc02aaa39b223fe8d0a0e5c4f27ead9083c756cc2",
                "assets": [
                    {
                        "address": "0xeeeeeeeeeeeeeeeeeeeeeeeeeeeeeeeeeeeeeeee",
                        "amount": "0.011282774700584128",
                        "iconUrl": "https://assets.blocksec.com/image/1663669189317-3.png",
                        "isERC1155": false,
                        "isERC721": false,
                        "sign": false,
                        "value": "21.50541988918799959"
                    },
                    {
                        "address": "0xc02aaa39b223fe8d0a0e5c4f27ead9083c756cc2",
                        "amount": "0.011282774700584128",
                        "iconUrl": "https://assets.blocksec.com/icon/f1cb2d02c471d545bbc7722daf3277fd852d98e63d118771af7047bd8256c516.png",
                        "isERC1155": false,
                        "isERC721": false,
                        "sign": true,
                        "value": "21.50541988918799959"
                    }
                ]
            }
        ]
    },
    "profile": {
        "basic_info": {
            "baseFee": "30.248809917",
            "blockNumber": 17395809,
            "callData": "0x3593564c000000000000000000000000000000000000000000000000000000000000006000000000000000000000000000000000000000000000000000000000000000a000000000000000000000000000000000000000000000000000000000647a6ac700000000000000000000000000000000000000000000000000000000000000030a000c00000000000000000000000000000000000000000000000000000000000000000000000000000000000000000000000000000000000000000000000003000000000000000000000000000000000000000000000000000000000000006000000000000000000000000000000000000000000000000000000000000001e0000000000000000000000000000000000000000000000000000000000000030000000000000000000000000000000000000000000000000000000000000001600000000000000000000000007f4c5447af6a96d8eeaee1d932338cfc57890dbd000000000000000000000000ffffffffffffffffffffffffffffffffffffffff0000000000000000000000000000000000000000000000000000000064a1f0c50000000000000000000000000000000000000000000000000000000000000000000000000000000000000000ef1c6e67703c7bd7107eed8303fbe6ec2554bf6b00000000000000000000000000000000000000000000000000000000647a6acd00000000000000000000000000000000000000000000000000000000000000e000000000000000000000000000000000000000000000000000000000000000419e673983648f9d484be0f357e76fd508a5ebf9f28582ed24540dedd48a28497641660ab7143e45c8c9f482eb44e6618eec7a4377a9028fd6428be17f1bb9b2c81b00000000000000000000000000000000000000000000000000000000000000000000000000000000000000000000000000000000000000000000000000010000000000000000000000000000000000000000000000000000000000000000020000000000000000000000000000000000000000094f7ff51e7c74d42d5cb0000000000000000000000000000000000000000000000000000022db26b12369b200000000000000000000000000000000000000000000000000000000000000a00000000000000000000000000000000000000000000000000000000000000001000000000000000000000000000000000000000000000000000000000000002b7f4c5447af6a96d8eeaee1d932338cfc57890dbd000bb8c02aaa39b223fe8d0a0e5c4f27ead9083c756cc2000000000000000000000000000000000000000000000000000000000000000000000000000000000000000000000000000000004000000000000000000000000000000000000000000000000000000000000000010000000000000000000000000000000000000000000000000022db26b12369b2",
            "debugEnable": true,
            "errorInfo": "",
            "eventCount": 6,
            "feeRecipient": "0xdafea492d9c6733ae3d56b7ed1adb60692c98bc5",
            "formatValue": "0",
            "gasLimit": 234399,
            "gasPrice": "30.355312519",
            "gasUsed": 160841,
            "intTxnCount": 13,
            "internalRevert": false,
            "internalRevertMessage": "",
            "isContractCreation": false,
            "isFlashloan": false,
            "maxFee": "40.792928832",
            "nonce": 130,
            "overwritedBlockNumber": -1,
            "priorityFee": "0.106502602",
            "receiver": "0xef1c6e67703c7bd7107eed8303fbe6ec2554bf6b",
            "revertMessage": "",
            "sender": "0xaea3fd7664d966d5f519a49a6eedff891229b506",
            "simulationEnable": true,
            "sourceTxnHash": "0x795467be0aa3453fd3d8cf7a9a009aabea1fd1800339bfb6519e947f59bea813",
            "status": true,
            "timestamp": "2023-06-02T21:49:11Z",
            "transactionFee": "0.004882378820868479",
            "txnHash": "0x795467be0aa3453fd3d8cf7a9a009aabea1fd1800339bfb6519e947f59bea813",
            "txnIndex": 115,
            "type": 2,
            "value": "0"
        },
        "fund_flow": [
            {
                "amount": "0.011282774700584128",
                "from": "0x12b791bb27b3a4ee958b5a435fea7d49ec076e9c",
                "id": 1,
                "isERC1155": false,
                "isERC721": false,
                "isReverted": false,
                "order": 1,
                "to": "0xef1c6e67703c7bd7107eed8303fbe6ec2554bf6b",
                "token": "0xc02aaa39b223fe8d0a0e5c4f27ead9083c756cc2"
            },
            {
                "amount": "2,881,474,490.334043",
                "from": "0xaea3fd7664d966d5f519a49a6eedff891229b506",
                "id": 2,
                "isERC1155": false,
                "isERC721": false,
                "isReverted": false,
                "order": 2,
                "to": "0x12b791bb27b3a4ee958b5a435fea7d49ec076e9c",
                "token": "0x7f4c5447af6a96d8eeaee1d932338cfc57890dbd"
            },
            {
                "amount": "0.011282774700584128",
                "from": "0xc02aaa39b223fe8d0a0e5c4f27ead9083c756cc2",
                "id": 3,
                "isERC1155": false,
                "isERC721": false,
                "isReverted": false,
                "order": 3,
                "to": "0xef1c6e67703c7bd7107eed8303fbe6ec2554bf6b",
                "token": "0xeeeeeeeeeeeeeeeeeeeeeeeeeeeeeeeeeeeeeeee"
            },
            {
                "amount": "0.011282774700584128",
                "from": "0xef1c6e67703c7bd7107eed8303fbe6ec2554bf6b",
                "id": 4,
                "isERC1155": false,
                "isERC721": false,
                "isReverted": false,
                "order": 4,
                "to": "0xc02aaa39b223fe8d0a0e5c4f27ead9083c756cc2",
                "token": "0xc02aaa39b223fe8d0a0e5c4f27ead9083c756cc2"
            },
            {
                "amount": "0.011282774700584128",
                "from": "0xef1c6e67703c7bd7107eed8303fbe6ec2554bf6b",
                "id": 5,
                "isERC1155": false,
                "isERC721": false,
                "isReverted": false,
                "order": 5,
                "to": "0xaea3fd7664d966d5f519a49a6eedff891229b506",
                "token": "0xeeeeeeeeeeeeeeeeeeeeeeeeeeeeeeeeeeeeeeee"
            }
        ],
        "token_infos": [
            {
                "address": "0xc02aaa39b223fe8d0a0e5c4f27ead9083c756cc2",
                "decimals": 18
            },
            {
                "address": "0xeeeeeeeeeeeeeeeeeeeeeeeeeeeeeeeeeeeeeeee",
                "decimals": 18
            },
            {
                "address": "0x7f4c5447af6a96d8eeaee1d932338cfc57890dbd",
                "decimals": 18
            }
        ]
    },
    "address_label": {
        "labels": [
            {
                "address": "0xef1c6e67703c7bd7107eed8303fbe6ec2554bf6b",
                "label": "Uniswap: Universal Router 2"
            },
            {
                "address": "0x7f4c5447af6a96d8eeaee1d932338cfc57890dbd",
                "label": "Dave (DAVE)"
            },
            {
                "address": "0x0000000000000000000000000000000000000001",
                "label": "Precompiled"
            },
            {
                "address": "0x0000000000000000000000000000000000000002",
                "label": "Precompiled"
            },
            {
                "address": "0x0000000000000000000000000000000000000003",
                "label": "Precompiled"
            },
            {
                "address": "0xeeeeeeeeeeeeeeeeeeeeeeeeeeeeeeeeeeeeeeee",
                "label": "Ether"
            },
            {
                "address": "0x000000000022d473030f116ddee9f6b43ac78ba3",
                "label": "Permit2"
            },
            {
                "address": "0x0000000000000000000000000000000000000004",
                "label": "Precompiled"
            },
            {
                "address": "0xc02aaa39b223fe8d0a0e5c4f27ead9083c756cc2",
                "label": "Wrapped Ether (WETH)"
            },
            {
                "address": "0x12b791bb27b3a4ee958b5a435fea7d49ec076e9c",
                "label": "Uniswap V3: DAVE 2"
            }
        ]
    },
    "trace": {
        "accountLabels": null,
        "dataMap": {
            "-1": {
                "invocation": {
                    "address": "0xaea3fd7664d966d5f519a49a6eedff891229b506",
                    "callData": "",
                    "decodedMethod": null,
                    "errorInfo": "",
                    "fromAddress": "",
                    "gasUsed": 0,
                    "id": -1,
                    "methodDecoded": false,
                    "operation": "",
                    "output": "",
                    "revert": false,
                    "revertMessage": "",
                    "selector": "",
                    "status": false,
                    "value": ""
                },
                "nodeType": 0
            },
            "0": {
                "invocation": {
                    "address": "0xef1c6e67703c7bd7107eed8303fbe6ec2554bf6b",
                    "callData": "0x000000000000000000000000000000000000000000000000000000000000006000000000000000000000000000000000000000000000000000000000000000a000000000000000000000000000000000000000000000000000000000647a6ac700000000000000000000000000000000000000000000000000000000000000030a000c00000000000000000000000000000000000000000000000000000000000000000000000000000000000000000000000000000000000000000000000003000000000000000000000000000000000000000000000000000000000000006000000000000000000000000000000000000000000000000000000000000001e0000000000000000000000000000000000000000000000000000000000000030000000000000000000000000000000000000000000000000000000000000001600000000000000000000000007f4c5447af6a96d8eeaee1d932338cfc57890dbd000000000000000000000000ffffffffffffffffffffffffffffffffffffffff0000000000000000000000000000000000000000000000000000000064a1f0c50000000000000000000000000000000000000000000000000000000000000000000000000000000000000000ef1c6e67703c7bd7107eed8303fbe6ec2554bf6b00000000000000000000000000000000000000000000000000000000647a6acd00000000000000000000000000000000000000000000000000000000000000e000000000000000000000000000000000000000000000000000000000000000419e673983648f9d484be0f357e76fd508a5ebf9f28582ed24540dedd48a28497641660ab7143e45c8c9f482eb44e6618eec7a4377a9028fd6428be17f1bb9b2c81b00000000000000000000000000000000000000000000000000000000000000000000000000000000000000000000000000000000000000000000000000010000000000000000000000000000000000000000000000000000000000000000020000000000000000000000000000000000000000094f7ff51e7c74d42d5cb0000000000000000000000000000000000000000000000000000022db26b12369b200000000000000000000000000000000000000000000000000000000000000a00000000000000000000000000000000000000000000000000000000000000001000000000000000000000000000000000000000000000000000000000000002b7f4c5447af6a96d8eeaee1d932338cfc57890dbd000bb8c02aaa39b223fe8d0a0e5c4f27ead9083c756cc2000000000000000000000000000000000000000000000000000000000000000000000000000000000000000000000000000000004000000000000000000000000000000000000000000000000000000000000000010000000000000000000000000000000000000000000000000022db26b12369b2",
                    "decodedMethod": {
                        "callParams": [
                            {
                                "name": "commands",
                                "type": "bytes",
                                "value": "0x0a000c"
                            },
                            {
                                "name": "inputs",
                                "type": "bytes[]",
                                "value": [
                                    "0x0000000000000000000000007f4c5447af6a96d8eeaee1d932338cfc57890dbd000000000000000000000000ffffffffffffffffffffffffffffffffffffffff0000000000000000000000000000000000000000000000000000000064a1f0c50000000000000000000000000000000000000000000000000000000000000000000000000000000000000000ef1c6e67703c7bd7107eed8303fbe6ec2554bf6b00000000000000000000000000000000000000000000000000000000647a6acd00000000000000000000000000000000000000000000000000000000000000e000000000000000000000000000000000000000000000000000000000000000419e673983648f9d484be0f357e76fd508a5ebf9f28582ed24540dedd48a28497641660ab7143e45c8c9f482eb44e6618eec7a4377a9028fd6428be17f1bb9b2c81b00000000000000000000000000000000000000000000000000000000000000",
                                    "0x00000000000000000000000000000000000000000000000000000000000000020000000000000000000000000000000000000000094f7ff51e7c74d42d5cb0000000000000000000000000000000000000000000000000000022db26b12369b200000000000000000000000000000000000000000000000000000000000000a00000000000000000000000000000000000000000000000000000000000000001000000000000000000000000000000000000000000000000000000000000002b7f4c5447af6a96d8eeaee1d932338cfc57890dbd000bb8c02aaa39b223fe8d0a0e5c4f27ead9083c756cc2000000000000000000000000000000000000000000",
                                    "0x00000000000000000000000000000000000000000000000000000000000000010000000000000000000000000000000000000000000000000022db26b12369b2"
                                ]
                            },
                            {
                                "name": "deadline",
                                "type": "uint256",
                                "value": "1,685,744,327"
                            }
                        ],
                        "constructorArguments": "",
                        "name": "execute",
                        "returnParams": [],
                        "signature": "execute(bytes,bytes[],uint256)"
                    },
                    "errorInfo": "",
                    "fromAddress": "0xaea3fd7664d966d5f519a49a6eedff891229b506",
                    "gasUsed": 160841,
                    "id": 0,
                    "methodDecoded": true,
                    "operation": "CALL",
                    "output": "",
                    "revert": false,
                    "revertMessage": "",
                    "selector": "0x3593564c",
                    "status": true,
                    "value": "0"
                },
                "nodeType": 0
            },
            "1": {
                "invocation": {
                    "address": "0x000000000022d473030f116ddee9f6b43ac78ba3",
                    "callData": "0x000000000000000000000000aea3fd7664d966d5f519a49a6eedff891229b5060000000000000000000000007f4c5447af6a96d8eeaee1d932338cfc57890dbd000000000000000000000000ffffffffffffffffffffffffffffffffffffffff0000000000000000000000000000000000000000000000000000000064a1f0c50000000000000000000000000000000000000000000000000000000000000000000000000000000000000000ef1c6e67703c7bd7107eed8303fbe6ec2554bf6b00000000000000000000000000000000000000000000000000000000647a6acd000000000000000000000000000000000000000000000000000000000000010000000000000000000000000000000000000000000000000000000000000000419e673983648f9d484be0f357e76fd508a5ebf9f28582ed24540dedd48a28497641660ab7143e45c8c9f482eb44e6618eec7a4377a9028fd6428be17f1bb9b2c81b00000000000000000000000000000000000000000000000000000000000000",
                    "decodedMethod": {
                        "callParams": [
                            {
                                "name": "owner",
                                "type": "address",
                                "value": "0xaea3fd7664d966d5f519a49a6eedff891229b506"
                            },
                            {
                                "name": "permitSingle",
                                "type": "((address,uint160,uint48,uint48),address,uint256)",
                                "value": [
                                    {
                                        "name": "details",
                                        "type": "(address,uint160,uint48,uint48)",
                                        "value": [
                                            {
                                                "name": "token",
                                                "type": "address",
                                                "value": "0x7f4c5447af6a96d8eeaee1d932338cfc57890dbd"
                                            },
                                            {
                                                "name": "amount",
                                                "type": "uint160",
                                                "value": "1,461,501,637,330,902,918,203,684,832,716,283,019,655,932,542,975"
                                            },
                                            {
                                                "name": "expiration",
                                                "type": "uint48",
                                                "value": "1,688,334,533"
                                            },
                                            {
                                                "name": "nonce",
                                                "type": "uint48",
                                                "value": "0"
                                            }
                                        ]
                                    },
                                    {
                                        "name": "spender",
                                        "type": "address",
                                        "value": "0xef1c6e67703c7bd7107eed8303fbe6ec2554bf6b"
                                    },
                                    {
                                        "name": "sigDeadline",
                                        "type": "uint256",
                                        "value": "1,685,744,333"
                                    }
                                ]
                            },
                            {
                                "name": "signature",
                                "type": "bytes",
                                "value": "0x9e673983648f9d484be0f357e76fd508a5ebf9f28582ed24540dedd48a28497641660ab7143e45c8c9f482eb44e6618eec7a4377a9028fd6428be17f1bb9b2c81b"
                            }
                        ],
                        "constructorArguments": "",
                        "name": "permit",
                        "returnParams": [],
                        "signature": "permit(address,((address,uint160,uint48,uint48),address,uint256),bytes)"
                    },
                    "errorInfo": "",
                    "fromAddress": "0xef1c6e67703c7bd7107eed8303fbe6ec2554bf6b",
                    "gasUsed": 30786,
                    "id": 1,
                    "methodDecoded": true,
                    "operation": "CALL",
                    "output": "",
                    "revert": false,
                    "revertMessage": "",
                    "selector": "0x2b67b570",
                    "status": true,
                    "value": "0"
                },
                "nodeType": 0
            },
            "10": {
                "invocation": {
                    "address": "0x7f4c5447af6a96d8eeaee1d932338cfc57890dbd",
                    "callData": "0x000000000000000000000000aea3fd7664d966d5f519a49a6eedff891229b50600000000000000000000000012b791bb27b3a4ee958b5a435fea7d49ec076e9c0000000000000000000000000000000000000000094f7ff51e7c74d42d5cb000",
                    "decodedMethod": {
                        "callParams": [
                            {
                                "name": "from",
                                "type": "address",
                                "value": "0xaea3fd7664d966d5f519a49a6eedff891229b506"
                            },
                            {
                                "name": "to",
                                "type": "address",
                                "value": "0x12b791bb27b3a4ee958b5a435fea7d49ec076e9c"
                            },
                            {
                                "decimalAvailable": true,
                                "name": "amount",
                                "type": "uint256",
                                "value": "2,881,474,490,334,043,000,000,000,000"
                            }
                        ],
                        "constructorArguments": "",
                        "name": "transferFrom",
                        "returnParams": [
                            {
                                "name": "",
                                "type": "bool",
                                "value": true
                            }
                        ],
                        "signature": "transferFrom(address,address,uint256)"
                    },
                    "errorInfo": "",
                    "fromAddress": "0x000000000022d473030f116ddee9f6b43ac78ba3",
                    "gasUsed": 21602,
                    "id": 10,
                    "methodDecoded": true,
                    "operation": "CALL",
                    "output": "0x0000000000000000000000000000000000000000000000000000000000000001",
                    "revert": false,
                    "revertMessage": "",
                    "selector": "0x23b872dd",
                    "status": true,
                    "value": "0"
                },
                "nodeType": 0
            },
            "11": {
                "event": {
                    "contract": "0x7f4c5447af6a96d8eeaee1d932338cfc57890dbd",
                    "decodedLog": {
                        "name": "Approval",
                        "params": [
                            {
                                "name": "owner",
                                "type": "address",
                                "value": "0xaea3fd7664d966d5f519a49a6eedff891229b506"
                            },
                            {
                                "name": "spender",
                                "type": "address",
                                "value": "0x000000000022d473030f116ddee9f6b43ac78ba3"
                            },
                            {
                                "decimalAvailable": true,
                                "name": "value",
                                "type": "uint256",
                                "value": "0"
                            }
                        ],
                        "signature": "Approval(address,address,uint256)"
                    },
                    "id": 11,
                    "logData": "0x0000000000000000000000000000000000000000000000000000000000000000",
                    "logDecoded": true,
                    "operation": "EVENT",
                    "revert": false,
                    "status": true,
                    "topics": [
                        "0x8c5be1e5ebec7d5bd14f71427d1e84f3dd0314c0f7b2291e5b200ac8c7c3b925",
                        "0x000000000000000000000000aea3fd7664d966d5f519a49a6eedff891229b506",
                        "0x000000000000000000000000000000000022d473030f116ddee9f6b43ac78ba3"
                    ]
                },
                "nodeType": 1
            },
            "12": {
                "event": {
                    "contract": "0x7f4c5447af6a96d8eeaee1d932338cfc57890dbd",
                    "decodedLog": {
                        "name": "Transfer",
                        "params": [
                            {
                                "name": "from",
                                "type": "address",
                                "value": "0xaea3fd7664d966d5f519a49a6eedff891229b506"
                            },
                            {
                                "name": "to",
                                "type": "address",
                                "value": "0x12b791bb27b3a4ee958b5a435fea7d49ec076e9c"
                            },
                            {
                                "decimalAvailable": true,
                                "name": "value",
                                "type": "uint256",
                                "value": "2,881,474,490,334,043,000,000,000,000"
                            }
                        ],
                        "signature": "Transfer(address,address,uint256)"
                    },
                    "id": 12,
                    "logData": "0x0000000000000000000000000000000000000000094f7ff51e7c74d42d5cb000",
                    "logDecoded": true,
                    "operation": "EVENT",
                    "revert": false,
                    "status": true,
                    "topics": [
                        "0xddf252ad1be2c89b69c2b068fc378daa952ba7f163c4a11628f55a4df523b3ef",
                        "0x000000000000000000000000aea3fd7664d966d5f519a49a6eedff891229b506",
                        "0x00000000000000000000000012b791bb27b3a4ee958b5a435fea7d49ec076e9c"
                    ]
                },
                "nodeType": 1
            },
            "13": {
                "invocation": {
                    "address": "0x7f4c5447af6a96d8eeaee1d932338cfc57890dbd",
                    "callData": "0x00000000000000000000000012b791bb27b3a4ee958b5a435fea7d49ec076e9c",
                    "decodedMethod": {
                        "callParams": [
                            {
                                "name": "account",
                                "type": "address",
                                "value": "0x12b791bb27b3a4ee958b5a435fea7d49ec076e9c"
                            }
                        ],
                        "constructorArguments": "",
                        "name": "balanceOf",
                        "returnParams": [
                            {
                                "decimalAvailable": true,
                                "name": "",
                                "type": "uint256",
                                "value": "129,206,901,384,247,418,415,577,825,759,102"
                            }
                        ],
                        "signature": "balanceOf(address)"
                    },
                    "errorInfo": "",
                    "fromAddress": "0x12b791bb27b3a4ee958b5a435fea7d49ec076e9c",
                    "gasUsed": 864,
                    "id": 13,
                    "methodDecoded": true,
                    "operation": "STATICCALL",
                    "output": "0x000000000000000000000000000000000000065ed203d54611adc74953474f7e",
                    "revert": false,
                    "revertMessage": "",
                    "selector": "0x70a08231",
                    "status": true,
                    "value": "0"
                },
                "nodeType": 0
            },
            "14": {
                "event": {
                    "contract": "0x12b791bb27b3a4ee958b5a435fea7d49ec076e9c",
                    "decodedLog": {
                        "name": "Swap",
                        "params": [
                            {
                                "name": "sender",
                                "type": "address",
                                "value": "0xef1c6e67703c7bd7107eed8303fbe6ec2554bf6b"
                            },
                            {
                                "name": "recipient",
                                "type": "address",
                                "value": "0xef1c6e67703c7bd7107eed8303fbe6ec2554bf6b"
                            },
                            {
                                "name": "amount0",
                                "type": "int256",
                                "value": "2,881,474,490,334,043,000,000,000,000"
                            },
                            {
                                "name": "amount1",
                                "type": "int256",
                                "value": "-11,282,774,700,584,128"
                            },
                            {
                                "name": "sqrtPriceX96",
                                "type": "uint160",
                                "value": "157,010,899,472,438,229,340,968"
                            },
                            {
                                "name": "liquidity",
                                "type": "uint128",
                                "value": "446,071,631,690,197,092,570,950,859"
                            },
                            {
                                "name": "tick",
                                "type": "int24",
                                "value": "-262,644"
                            }
                        ],
                        "signature": "Swap(address,address,int256,int256,uint160,uint128,int24)"
                    },
                    "id": 14,
                    "logData": "0x0000000000000000000000000000000000000000094f7ff51e7c74d42d5cb000ffffffffffffffffffffffffffffffffffffffffffffffffffd7ea604de4134000000000000000000000000000000000000000000000213f93f246c8cff2132800000000000000000000000000000000000000000170fb579bae9f4a238eeccbfffffffffffffffffffffffffffffffffffffffffffffffffffffffffffbfe0c",
                    "logDecoded": true,
                    "operation": "EVENT",
                    "revert": false,
                    "status": true,
                    "topics": [
                        "0xc42079f94a6350d7e6235f29174924f928cc2ac818eb64fed8004e115fbcca67",
                        "0x000000000000000000000000ef1c6e67703c7bd7107eed8303fbe6ec2554bf6b",
                        "0x000000000000000000000000ef1c6e67703c7bd7107eed8303fbe6ec2554bf6b"
                    ]
                },
                "nodeType": 1
            },
            "15": {
                "invocation": {
                    "address": "0xc02aaa39b223fe8d0a0e5c4f27ead9083c756cc2",
                    "callData": "0x000000000000000000000000ef1c6e67703c7bd7107eed8303fbe6ec2554bf6b",
                    "decodedMethod": {
                        "callParams": [
                            {
                                "name": "",
                                "type": "address",
                                "value": "0xef1c6e67703c7bd7107eed8303fbe6ec2554bf6b"
                            }
                        ],
                        "constructorArguments": "",
                        "name": "balanceOf",
                        "returnParams": [
                            {
                                "decimalAvailable": true,
                                "name": "",
                                "type": "uint256",
                                "value": "11,282,774,700,584,128"
                            }
                        ],
                        "signature": "balanceOf(address)"
                    },
                    "errorInfo": "",
                    "fromAddress": "0xef1c6e67703c7bd7107eed8303fbe6ec2554bf6b",
                    "gasUsed": 534,
                    "id": 15,
                    "methodDecoded": true,
                    "operation": "STATICCALL",
                    "output": "0x0000000000000000000000000000000000000000000000000028159fb21becc0",
                    "revert": false,
                    "revertMessage": "",
                    "selector": "0x70a08231",
                    "status": true,
                    "value": "0"
                },
                "nodeType": 0
            },
            "16": {
                "invocation": {
                    "address": "0xc02aaa39b223fe8d0a0e5c4f27ead9083c756cc2",
                    "callData": "0x0000000000000000000000000000000000000000000000000028159fb21becc0",
                    "decodedMethod": {
                        "callParams": [
                            {
                                "name": "wad",
                                "type": "uint256",
                                "value": "11,282,774,700,584,128"
                            }
                        ],
                        "constructorArguments": "",
                        "name": "withdraw",
                        "returnParams": [],
                        "signature": "withdraw(uint256)"
                    },
                    "errorInfo": "",
                    "fromAddress": "0xef1c6e67703c7bd7107eed8303fbe6ec2554bf6b",
                    "gasUsed": 9202,
                    "id": 16,
                    "methodDecoded": true,
                    "operation": "CALL",
                    "output": "",
                    "revert": false,
                    "revertMessage": "",
                    "selector": "0x2e1a7d4d",
                    "status": true,
                    "value": "0"
                },
                "nodeType": 0
            },
            "17": {
                "invocation": {
                    "address": "0xef1c6e67703c7bd7107eed8303fbe6ec2554bf6b",
                    "callData": "0x",
                    "decodedMethod": null,
                    "errorInfo": "",
                    "fromAddress": "0xc02aaa39b223fe8d0a0e5c4f27ead9083c756cc2",
                    "gasUsed": 62,
                    "id": 17,
                    "methodDecoded": false,
                    "operation": "CALL",
                    "output": "",
                    "revert": false,
                    "revertMessage": "",
                    "selector": "fallback",
                    "status": true,
                    "value": "0.011282774700584128"
                },
                "nodeType": 0
            },
            "18": {
                "event": {
                    "contract": "0xc02aaa39b223fe8d0a0e5c4f27ead9083c756cc2",
                    "decodedLog": {
                        "name": "Withdrawal",
                        "params": [
                            {
                                "name": "src",
                                "type": "address",
                                "value": "0xef1c6e67703c7bd7107eed8303fbe6ec2554bf6b"
                            },
                            {
                                "name": "wad",
                                "type": "uint256",
                                "value": "11,282,774,700,584,128"
                            }
                        ],
                        "signature": "Withdrawal(address,uint256)"
                    },
                    "id": 18,
                    "logData": "0x0000000000000000000000000000000000000000000000000028159fb21becc0",
                    "logDecoded": true,
                    "operation": "EVENT",
                    "revert": false,
                    "status": true,
                    "topics": [
                        "0x7fcf532c15f0a6db0bd6d0e038bea71d30d808c7d98cb3bf7268a95bf5081b65",
                        "0x000000000000000000000000ef1c6e67703c7bd7107eed8303fbe6ec2554bf6b"
                    ]
                },
                "nodeType": 1
            },
            "19": {
                "invocation": {
                    "address": "0xaea3fd7664d966d5f519a49a6eedff891229b506",
                    "callData": "0x",
                    "decodedMethod": null,
                    "errorInfo": "",
                    "fromAddress": "0xef1c6e67703c7bd7107eed8303fbe6ec2554bf6b",
                    "gasUsed": 0,
                    "id": 19,
                    "methodDecoded": false,
                    "operation": "CALL",
                    "output": "",
                    "revert": false,
                    "revertMessage": "",
                    "selector": "fallback",
                    "status": true,
                    "value": "0.011282774700584128"
                },
                "nodeType": 0
            },
            "2": {
                "invocation": {
                    "address": "0x0000000000000000000000000000000000000001",
                    "callData": "0x0896de00352220dd98502c3855b7f3c00779add46ad7fbcfa8c3e73d000000000000000000000000000000000000000000000000000000000000001b9e673983648f9d484be0f357e76fd508a5ebf9f28582ed24540dedd48a28497641660ab7143e45c8c9f482eb44e6618eec7a4377a9028fd6428be17f1bb9b2c8",
                    "decodedMethod": {
                        "callParams": [
                            {
                                "name": "hash",
                                "type": "bytes32",
                                "value": "0xdd7902d80896de00352220dd98502c3855b7f3c00779add46ad7fbcfa8c3e73d"
                            },
                            {
                                "name": "v",
                                "type": "uint256",
                                "value": "27"
                            },
                            {
                                "name": "r",
                                "type": "bytes32",
                                "value": "0x9e673983648f9d484be0f357e76fd508a5ebf9f28582ed24540dedd48a284976"
                            },
                            {
                                "name": "s",
                                "type": "bytes32",
                                "value": "0x41660ab7143e45c8c9f482eb44e6618eec7a4377a9028fd6428be17f1bb9b2c8"
                            }
                        ],
                        "constructorArguments": "",
                        "name": "ecrecover",
                        "returnParams": [
                            {
                                "name": "",
                                "type": "address",
                                "value": "0xaea3fd7664d966d5f519a49a6eedff891229b506"
                            }
                        ],
                        "signature": "ecrecover(bytes32,uint256,bytes32,bytes32)"
                    },
                    "errorInfo": "",
                    "fromAddress": "0x000000000022d473030f116ddee9f6b43ac78ba3",
                    "gasUsed": 3000,
                    "id": 2,
                    "methodDecoded": true,
                    "operation": "STATICCALL",
                    "output": "0x000000000000000000000000aea3fd7664d966d5f519a49a6eedff891229b506",
                    "revert": false,
                    "revertMessage": "",
                    "selector": "0xdd7902d8",
                    "status": true,
                    "value": "0"
                },
                "nodeType": 0
            },
            "3": {
                "event": {
                    "contract": "0x000000000022d473030f116ddee9f6b43ac78ba3",
                    "decodedLog": {
                        "name": "Permit",
                        "params": [
                            {
                                "name": "owner",
                                "type": "address",
                                "value": "0xaea3fd7664d966d5f519a49a6eedff891229b506"
                            },
                            {
                                "name": "token",
                                "type": "address",
                                "value": "0x7f4c5447af6a96d8eeaee1d932338cfc57890dbd"
                            },
                            {
                                "name": "spender",
                                "type": "address",
                                "value": "0xef1c6e67703c7bd7107eed8303fbe6ec2554bf6b"
                            },
                            {
                                "name": "amount",
                                "type": "uint160",
                                "value": "1,461,501,637,330,902,918,203,684,832,716,283,019,655,932,542,975"
                            },
                            {
                                "name": "expiration",
                                "type": "uint48",
                                "value": "1,688,334,533"
                            },
                            {
                                "name": "nonce",
                                "type": "uint48",
                                "value": "0"
                            }
                        ],
                        "signature": "Permit(address,address,address,uint160,uint48,uint48)"
                    },
                    "id": 3,
                    "logData": "0x000000000000000000000000ffffffffffffffffffffffffffffffffffffffff0000000000000000000000000000000000000000000000000000000064a1f0c50000000000000000000000000000000000000000000000000000000000000000",
                    "logDecoded": true,
                    "operation": "EVENT",
                    "revert": false,
                    "status": true,
                    "topics": [
                        "0xc6a377bfc4eb120024a8ac08eef205be16b817020812c73223e81d1bdb9708ec",
                        "0x000000000000000000000000aea3fd7664d966d5f519a49a6eedff891229b506",
                        "0x0000000000000000000000007f4c5447af6a96d8eeaee1d932338cfc57890dbd",
                        "0x000000000000000000000000ef1c6e67703c7bd7107eed8303fbe6ec2554bf6b"
                    ]
                },
                "nodeType": 1
            },
            "4": {
                "invocation": {
                    "address": "0x12b791bb27b3a4ee958b5a435fea7d49ec076e9c",
                    "callData": "0x000000000000000000000000ef1c6e67703c7bd7107eed8303fbe6ec2554bf6b00000000000000000000000000000000000000000000000000000000000000010000000000000000000000000000000000000000094f7ff51e7c74d42d5cb00000000000000000000000000000000000000000000000000000000001000276a400000000000000000000000000000000000000000000000000000000000000a000000000000000000000000000000000000000000000000000000000000000a00000000000000000000000000000000000000000000000000000000000000040000000000000000000000000aea3fd7664d966d5f519a49a6eedff891229b506000000000000000000000000000000000000000000000000000000000000002b7f4c5447af6a96d8eeaee1d932338cfc57890dbd000bb8c02aaa39b223fe8d0a0e5c4f27ead9083c756cc2000000000000000000000000000000000000000000",
                    "decodedMethod": {
                        "callParams": [
                            {
                                "name": "recipient",
                                "type": "address",
                                "value": "0xef1c6e67703c7bd7107eed8303fbe6ec2554bf6b"
                            },
                            {
                                "name": "zeroForOne",
                                "type": "bool",
                                "value": true
                            },
                            {
                                "name": "amountSpecified",
                                "type": "int256",
                                "value": "2,881,474,490,334,043,000,000,000,000"
                            },
                            {
                                "name": "sqrtPriceLimitX96",
                                "type": "uint160",
                                "value": "4,295,128,740"
                            },
                            {
                                "name": "data",
                                "type": "bytes",
                                "value": "0x0000000000000000000000000000000000000000000000000000000000000040000000000000000000000000aea3fd7664d966d5f519a49a6eedff891229b506000000000000000000000000000000000000000000000000000000000000002b7f4c5447af6a96d8eeaee1d932338cfc57890dbd000bb8c02aaa39b223fe8d0a0e5c4f27ead9083c756cc2000000000000000000000000000000000000000000"
                            }
                        ],
                        "constructorArguments": "",
                        "name": "swap",
                        "returnParams": [
                            {
                                "name": "amount0",
                                "type": "int256",
                                "value": "2,881,474,490,334,043,000,000,000,000"
                            },
                            {
                                "name": "amount1",
                                "type": "int256",
                                "value": "-11,282,774,700,584,128"
                            }
                        ],
                        "signature": "swap(address,bool,int256,uint160,bytes)"
                    },
                    "errorInfo": "",
                    "fromAddress": "0xef1c6e67703c7bd7107eed8303fbe6ec2554bf6b",
                    "gasUsed": 96880,
                    "id": 4,
                    "methodDecoded": true,
                    "operation": "CALL",
                    "output": "0x0000000000000000000000000000000000000000094f7ff51e7c74d42d5cb000ffffffffffffffffffffffffffffffffffffffffffffffffffd7ea604de41340",
                    "revert": false,
                    "revertMessage": "",
                    "selector": "0x128acb08",
                    "status": true,
                    "value": "0"
                },
                "nodeType": 0
            },
            "5": {
                "invocation": {
                    "address": "0xc02aaa39b223fe8d0a0e5c4f27ead9083c756cc2",
                    "callData": "0x000000000000000000000000ef1c6e67703c7bd7107eed8303fbe6ec2554bf6b0000000000000000000000000000000000000000000000000028159fb21becc0",
                    "decodedMethod": {
                        "callParams": [
                            {
                                "name": "dst",
                                "type": "address",
                                "value": "0xef1c6e67703c7bd7107eed8303fbe6ec2554bf6b"
                            },
                            {
                                "decimalAvailable": true,
                                "name": "wad",
                                "type": "uint256",
                                "value": "11,282,774,700,584,128"
                            }
                        ],
                        "constructorArguments": "",
                        "name": "transfer",
                        "returnParams": [
                            {
                                "name": "",
                                "type": "bool",
                                "value": true
                            }
                        ],
                        "signature": "transfer(address,uint256)"
                    },
                    "errorInfo": "",
                    "fromAddress": "0x12b791bb27b3a4ee958b5a435fea7d49ec076e9c",
                    "gasUsed": 29962,
                    "id": 5,
                    "methodDecoded": true,
                    "operation": "CALL",
                    "output": "0x0000000000000000000000000000000000000000000000000000000000000001",
                    "revert": false,
                    "revertMessage": "",
                    "selector": "0xa9059cbb",
                    "status": true,
                    "value": "0"
                },
                "nodeType": 0
            },
            "6": {
                "event": {
                    "contract": "0xc02aaa39b223fe8d0a0e5c4f27ead9083c756cc2",
                    "decodedLog": {
                        "name": "Transfer",
                        "params": [
                            {
                                "name": "src",
                                "type": "address",
                                "value": "0x12b791bb27b3a4ee958b5a435fea7d49ec076e9c"
                            },
                            {
                                "name": "dst",
                                "type": "address",
                                "value": "0xef1c6e67703c7bd7107eed8303fbe6ec2554bf6b"
                            },
                            {
                                "decimalAvailable": true,
                                "name": "wad",
                                "type": "uint256",
                                "value": "11,282,774,700,584,128"
                            }
                        ],
                        "signature": "Transfer(address,address,uint256)"
                    },
                    "id": 6,
                    "logData": "0x0000000000000000000000000000000000000000000000000028159fb21becc0",
                    "logDecoded": true,
                    "operation": "EVENT",
                    "revert": false,
                    "status": true,
                    "topics": [
                        "0xddf252ad1be2c89b69c2b068fc378daa952ba7f163c4a11628f55a4df523b3ef",
                        "0x00000000000000000000000012b791bb27b3a4ee958b5a435fea7d49ec076e9c",
                        "0x000000000000000000000000ef1c6e67703c7bd7107eed8303fbe6ec2554bf6b"
                    ]
                },
                "nodeType": 1
            },
            "7": {
                "invocation": {
                    "address": "0x7f4c5447af6a96d8eeaee1d932338cfc57890dbd",
                    "callData": "0x00000000000000000000000012b791bb27b3a4ee958b5a435fea7d49ec076e9c",
                    "decodedMethod": {
                        "callParams": [
                            {
                                "name": "account",
                                "type": "address",
                                "value": "0x12b791bb27b3a4ee958b5a435fea7d49ec076e9c"
                            }
                        ],
                        "constructorArguments": "",
                        "name": "balanceOf",
                        "returnParams": [
                            {
                                "decimalAvailable": true,
                                "name": "",
                                "type": "uint256",
                                "value": "129,204,019,909,757,084,372,577,825,759,102"
                            }
                        ],
                        "signature": "balanceOf(address)"
                    },
                    "errorInfo": "",
                    "fromAddress": "0x12b791bb27b3a4ee958b5a435fea7d49ec076e9c",
                    "gasUsed": 2864,
                    "id": 7,
                    "methodDecoded": true,
                    "operation": "STATICCALL",
                    "output": "0x000000000000000000000000000000000000065ec8b45550f331527525ea9f7e",
                    "revert": false,
                    "revertMessage": "",
                    "selector": "0x70a08231",
                    "status": true,
                    "value": "0"
                },
                "nodeType": 0
            },
            "8": {
                "invocation": {
                    "address": "0xef1c6e67703c7bd7107eed8303fbe6ec2554bf6b",
                    "callData": "0x0000000000000000000000000000000000000000094f7ff51e7c74d42d5cb000ffffffffffffffffffffffffffffffffffffffffffffffffffd7ea604de41340000000000000000000000000000000000000000000000000000000000000006000000000000000000000000000000000000000000000000000000000000000a00000000000000000000000000000000000000000000000000000000000000040000000000000000000000000aea3fd7664d966d5f519a49a6eedff891229b506000000000000000000000000000000000000000000000000000000000000002b7f4c5447af6a96d8eeaee1d932338cfc57890dbd000bb8c02aaa39b223fe8d0a0e5c4f27ead9083c756cc2000000000000000000000000000000000000000000",
                    "decodedMethod": {
                        "callParams": [
                            {
                                "name": "amount0Delta",
                                "type": "int256",
                                "value": "2,881,474,490,334,043,000,000,000,000"
                            },
                            {
                                "name": "amount1Delta",
                                "type": "int256",
                                "value": "-11,282,774,700,584,128"
                            },
                            {
                                "name": "data",
                                "type": "bytes",
                                "value": "0x0000000000000000000000000000000000000000000000000000000000000040000000000000000000000000aea3fd7664d966d5f519a49a6eedff891229b506000000000000000000000000000000000000000000000000000000000000002b7f4c5447af6a96d8eeaee1d932338cfc57890dbd000bb8c02aaa39b223fe8d0a0e5c4f27ead9083c756cc2000000000000000000000000000000000000000000"
                            }
                        ],
                        "constructorArguments": "",
                        "name": "uniswapV3SwapCallback",
                        "returnParams": [],
                        "signature": "uniswapV3SwapCallback(int256,int256,bytes)"
                    },
                    "errorInfo": "",
                    "fromAddress": "0x12b791bb27b3a4ee958b5a435fea7d49ec076e9c",
                    "gasUsed": 25320,
                    "id": 8,
                    "methodDecoded": true,
                    "operation": "CALL",
                    "output": "",
                    "revert": false,
                    "revertMessage": "",
                    "selector": "0xfa461e33",
                    "status": true,
                    "value": "0"
                },
                "nodeType": 0
            },
            "9": {
                "invocation": {
                    "address": "0x000000000022d473030f116ddee9f6b43ac78ba3",
                    "callData": "0x000000000000000000000000aea3fd7664d966d5f519a49a6eedff891229b50600000000000000000000000012b791bb27b3a4ee958b5a435fea7d49ec076e9c0000000000000000000000000000000000000000094f7ff51e7c74d42d5cb0000000000000000000000000007f4c5447af6a96d8eeaee1d932338cfc57890dbd",
                    "decodedMethod": {
                        "callParams": [
                            {
                                "name": "from",
                                "type": "address",
                                "value": "0xaea3fd7664d966d5f519a49a6eedff891229b506"
                            },
                            {
                                "name": "to",
                                "type": "address",
                                "value": "0x12b791bb27b3a4ee958b5a435fea7d49ec076e9c"
                            },
                            {
                                "name": "amount",
                                "type": "uint160",
                                "value": "2,881,474,490,334,043,000,000,000,000"
                            },
                            {
                                "name": "token",
                                "type": "address",
                                "value": "0x7f4c5447af6a96d8eeaee1d932338cfc57890dbd"
                            }
                        ],
                        "constructorArguments": "",
                        "name": "transferFrom",
                        "returnParams": [],
                        "signature": "transferFrom(address,address,uint160,address)"
                    },
                    "errorInfo": "",
                    "fromAddress": "0xef1c6e67703c7bd7107eed8303fbe6ec2554bf6b",
                    "gasUsed": 22809,
                    "id": 9,
                    "methodDecoded": true,
                    "operation": "CALL",
                    "output": "",
                    "revert": false,
                    "revertMessage": "",
                    "selector": "0x36c78516",
                    "status": true,
                    "value": "0"
                },
                "nodeType": 0
            }
        },
        "gasFlame": [
            {
                "children": [
                    {
                        "children": [
                            {
                                "children": [],
                                "depth": 0,
                                "name": "Initial Gas",
                                "value": 27988
                            },
                            {
                                "children": [
                                    {
                                        "children": [
                                            {
                                                "children": [],
                                                "depth": 2,
                                                "name": "ecrecover",
                                                "value": 3000
                                            }
                                        ],
                                        "depth": 1,
                                        "name": "permit",
                                        "value": 30786
                                    },
                                    {
                                        "children": [
                                            {
                                                "children": [],
                                                "depth": 2,
                                                "name": "transfer",
                                                "value": 29962
                                            },
                                            {
                                                "children": [],
                                                "depth": 2,
                                                "name": "balanceOf",
                                                "value": 2864
                                            },
                                            {
                                                "children": [
                                                    {
                                                        "children": [
                                                            {
                                                                "children": [],
                                                                "depth": 4,
                                                                "name": "transferFrom",
                                                                "value": 21602
                                                            }
                                                        ],
                                                        "depth": 3,
                                                        "name": "transferFrom",
                                                        "value": 22809
                                                    }
                                                ],
                                                "depth": 2,
                                                "name": "uniswapV3SwapCallback",
                                                "value": 25320
                                            },
                                            {
                                                "children": [],
                                                "depth": 2,
                                                "name": "balanceOf",
                                                "value": 864
                                            }
                                        ],
                                        "depth": 1,
                                        "name": "swap",
                                        "value": 96880
                                    },
                                    {
                                        "children": [],
                                        "depth": 1,
                                        "name": "balanceOf",
                                        "value": 534
                                    },
                                    {
                                        "children": [
                                            {
                                                "children": [],
                                                "depth": 2,
                                                "name": "fallback",
                                                "value": 62
                                            }
                                        ],
                                        "depth": 1,
                                        "name": "withdraw",
                                        "value": 9202
                                    },
                                    {
                                        "children": [],
                                        "depth": 1,
                                        "name": "fallback",
                                        "value": 0
                                    }
                                ],
                                "depth": 0,
                                "name": "Executed Gas",
                                "value": 165153
                            }
                        ],
                        "depth": -1,
                        "name": "Actual Gas Used",
                        "value": 160841
                    },
                    {
                        "children": [],
                        "depth": -1,
                        "name": "Refunded Gas",
                        "value": 32300
                    }
                ],
                "depth": -2,
                "name": "Total Gas",
                "value": 193141
            }
        ],
        "isConfirmed": true,
        "mainTrace": [
            {
                "children": [
                    {
                        "children": [
                            {
                                "children": [
                                    {
                                        "children": [],
                                        "depth": 2,
                                        "id": 2,
                                        "order": 2
                                    },
                                    {
                                        "children": [],
                                        "depth": 2,
                                        "id": 3,
                                        "order": 3
                                    }
                                ],
                                "depth": 1,
                                "id": 1,
                                "order": 1
                            },
                            {
                                "children": [
                                    {
                                        "children": [
                                            {
                                                "children": [],
                                                "depth": 3,
                                                "id": 6,
                                                "order": 6
                                            }
                                        ],
                                        "depth": 2,
                                        "id": 5,
                                        "order": 5
                                    },
                                    {
                                        "children": [],
                                        "depth": 2,
                                        "id": 7,
                                        "order": 7
                                    },
                                    {
                                        "children": [
                                            {
                                                "children": [
                                                    {
                                                        "children": [
                                                            {
                                                                "children": [],
                                                                "depth": 5,
                                                                "id": 11,
                                                                "order": 11
                                                            },
                                                            {
                                                                "children": [],
                                                                "depth": 5,
                                                                "id": 12,
                                                                "order": 12
                                                            }
                                                        ],
                                                        "depth": 4,
                                                        "id": 10,
                                                        "order": 10
                                                    }
                                                ],
                                                "depth": 3,
                                                "id": 9,
                                                "order": 9
                                            }
                                        ],
                                        "depth": 2,
                                        "id": 8,
                                        "order": 8
                                    },
                                    {
                                        "children": [],
                                        "depth": 2,
                                        "id": 13,
                                        "order": 13
                                    },
                                    {
                                        "children": [],
                                        "depth": 2,
                                        "id": 14,
                                        "order": 14
                                    }
                                ],
                                "depth": 1,
                                "id": 4,
                                "order": 4
                            },
                            {
                                "children": [],
                                "depth": 1,
                                "id": 15,
                                "order": 15
                            },
                            {
                                "children": [
                                    {
                                        "children": [],
                                        "depth": 2,
                                        "id": 17,
                                        "order": 17
                                    },
                                    {
                                        "children": [],
                                        "depth": 2,
                                        "id": 18,
                                        "order": 18
                                    }
                                ],
                                "depth": 1,
                                "id": 16,
                                "order": 16
                            },
                            {
                                "children": [],
                                "depth": 1,
                                "id": 19,
                                "order": 19
                            }
                        ],
                        "depth": 0,
                        "id": 0,
                        "order": 0
                    }
                ],
                "depth": -1,
                "id": -1,
                "order": -1
            }
        ],
        "mainTraceNodeCount": 20,
        "parentIdMap": {
            "0": -1,
            "1": 0,
            "10": 9,
            "11": 10,
            "12": 10,
            "13": 4,
            "14": 4,
            "15": 0,
            "16": 0,
            "17": 16,
            "18": 16,
            "19": 0,
            "2": 1,
            "3": 1,
            "4": 0,
            "5": 4,
            "6": 5,
            "7": 4,
            "8": 4,
            "9": 8
        },
        "tidyTrace": [
            {
                "children": [
                    {
                        "children": [
                            {
                                "children": [
                                    {
                                        "children": [],
                                        "depth": 2,
                                        "id": 3,
                                        "order": 3
                                    }
                                ],
                                "depth": 1,
                                "id": 1,
                                "order": 1
                            },
                            {
                                "children": [
                                    {
                                        "children": [
                                            {
                                                "children": [],
                                                "depth": 3,
                                                "id": 6,
                                                "order": 6
                                            }
                                        ],
                                        "depth": 2,
                                        "id": 5,
                                        "order": 5
                                    },
                                    {
                                        "children": [
                                            {
                                                "children": [
                                                    {
                                                        "children": [
                                                            {
                                                                "children": [],
                                                                "depth": 5,
                                                                "id": 11,
                                                                "order": 11
                                                            },
                                                            {
                                                                "children": [],
                                                                "depth": 5,
                                                                "id": 12,
                                                                "order": 12
                                                            }
                                                        ],
                                                        "depth": 4,
                                                        "id": 10,
                                                        "order": 10
                                                    }
                                                ],
                                                "depth": 3,
                                                "id": 9,
                                                "order": 9
                                            }
                                        ],
                                        "depth": 2,
                                        "id": 8,
                                        "order": 8
                                    },
                                    {
                                        "children": [],
                                        "depth": 2,
                                        "id": 14,
                                        "order": 14
                                    }
                                ],
                                "depth": 1,
                                "id": 4,
                                "order": 4
                            },
                            {
                                "children": [
                                    {
                                        "children": [],
                                        "depth": 2,
                                        "id": 17,
                                        "order": 17
                                    },
                                    {
                                        "children": [],
                                        "depth": 2,
                                        "id": 18,
                                        "order": 18
                                    }
                                ],
                                "depth": 1,
                                "id": 16,
                                "order": 16
                            },
                            {
                                "children": [],
                                "depth": 1,
                                "id": 19,
                                "order": 19
                            }
                        ],
                        "depth": 0,
                        "id": 0,
                        "order": 0
                    }
                ],
                "depth": -1,
                "id": -1,
                "order": -1
            }
        ],
        "tidyTraceNodeCount": 16
    },
    "state_change": {
        "stateChanges": [
            {
                "address": "0x000000000022d473030f116ddee9f6b43ac78ba3",
                "erc": "",
                "slots": [
                    {
                        "current": "0x000000000001000064a1f0c5ffffffffffffffffffffffffffffffffffffffff",
                        "key": "0xdc9ccb693693fed6d48189606eb3a3ead4737dd377c61db66031a4bc85172fe0",
                        "prev": "0x0000000000000000000000000000000000000000000000000000000000000000"
                    }
                ],
                "storageVariables": [
                    {
                        "name": "allowance",
                        "type": "mapping(address => mapping(address => mapping(address => struct IAllowanceTransfer.PackedAllowance)))",
                        "value": {
                            "pairs": [
                                {
                                    "key": "0xaea3fd7664d966d5f519a49a6eedff891229b506",
                                    "value": {
                                        "pairs": [
                                            {
                                                "key": "0x7f4c5447af6a96d8eeaee1d932338cfc57890dbd",
                                                "value": {
                                                    "pairs": [
                                                        {
                                                            "key": "0xef1c6e67703c7bd7107eed8303fbe6ec2554bf6b",
                                                            "value": {
                                                                "fields": [
                                                                    {
                                                                        "name": "amount",
                                                                        "type": "uint160",
                                                                        "value": {
                                                                            "current": "1461501637330902918203684832716283019655932542975",
                                                                            "prev": "0",
                                                                            "typeTag": 1
                                                                        }
                                                                    },
                                                                    {
                                                                        "name": "expiration",
                                                                        "type": "uint48",
                                                                        "value": {
                                                                            "current": "1688334533",
                                                                            "prev": "0",
                                                                            "typeTag": 1
                                                                        }
                                                                    },
                                                                    {
                                                                        "name": "nonce",
                                                                        "type": "uint48",
                                                                        "value": {
                                                                            "current": "1",
                                                                            "prev": "0",
                                                                            "typeTag": 1
                                                                        }
                                                                    }
                                                                ],
                                                                "typeTag": 3
                                                            }
                                                        }
                                                    ],
                                                    "typeTag": 4
                                                }
                                            }
                                        ],
                                        "typeTag": 4
                                    }
                                }
                            ],
                            "typeTag": 4
                        }
                    }
                ]
            },
            {
                "address": "0x12b791bb27b3a4ee958b5a435fea7d49ec076e9c",
                "erc": "",
                "slots": [
                    {
                        "current": "0x000100000100010000fbfe0c00000000000000000000213f93f246c8cff21328",
                        "key": "0x0000000000000000000000000000000000000000000000000000000000000000",
                        "prev": "0x000100000100010000fbfe0c00000000000000000000213fafc1cd8931f3b336"
                    },
                    {
                        "current": "0x000000000000000000000000000009b3c1cb9cf56482fa4ca6dd0aaf3b549d08",
                        "key": "0x0000000000000000000000000000000000000000000000000000000000000001",
                        "prev": "0x000000000000000000000000000009b3bcd5973d73068066e875bfa179e7f998"
                    }
                ],
                "storageVariables": []
            },
            {
                "address": "0x7f4c5447af6a96d8eeaee1d932338cfc57890dbd",
                "erc": "ERC-20",
                "slots": [
                    {
                        "current": "0x0000000000000000000000000000000000000000000000000000000000000000",
                        "key": "0xd0fb128e490d0da0f3358b31168ea2317e55f15224cc190c4264db989af09135",
                        "prev": "0x0000000000000000000000000000000000000000094f7ff51e7c74d42d5cb000"
                    },
                    {
                        "current": "0x000000000000000000000000000000000000065ed203d54611adc74953474f7e",
                        "key": "0xebf1e82ae1a4f63b604bb24cb7f92de397c53b6372a2d4d7e4203b79323989e2",
                        "prev": "0x000000000000000000000000000000000000065ec8b45550f331527525ea9f7e"
                    },
                    {
                        "current": "0x0000000000000000000000000000000000000000000000000000000000000000",
                        "key": "0x2228abf57ac4ac5a314293f5ba4ccfd1970c11b5a2ac894a9a41e34cb5200358",
                        "prev": "0x0000000000000000000000000000000000000000094f7ff51e7c74d42d5cb000"
                    }
                ],
                "storageVariables": [
                    {
                        "name": "_balances",
                        "type": "mapping(address => uint256)",
                        "value": {
                            "pairs": [
                                {
                                    "key": "0x12b791bb27b3a4ee958b5a435fea7d49ec076e9c",
                                    "value": {
                                        "current": "129206901384247418415577825759102",
                                        "prev": "129204019909757084372577825759102",
                                        "typeTag": 1
                                    }
                                },
                                {
                                    "key": "0xaea3fd7664d966d5f519a49a6eedff891229b506",
                                    "value": {
                                        "current": "0",
                                        "prev": "2881474490334043000000000000",
                                        "typeTag": 1
                                    }
                                }
                            ],
                            "typeTag": 4
                        }
                    },
                    {
                        "name": "_allowances",
                        "type": "mapping(address => mapping(address => uint256))",
                        "value": {
                            "pairs": [
                                {
                                    "key": "0xaea3fd7664d966d5f519a49a6eedff891229b506",
                                    "value": {
                                        "pairs": [
                                            {
                                                "key": "0x000000000022d473030f116ddee9f6b43ac78ba3",
                                                "value": {
                                                    "current": "0",
                                                    "prev": "2881474490334043000000000000",
                                                    "typeTag": 1
                                                }
                                            }
                                        ],
                                        "typeTag": 4
                                    }
                                }
                            ],
                            "typeTag": 4
                        }
                    }
                ]
            },
            {
                "address": "0xc02aaa39b223fe8d0a0e5c4f27ead9083c756cc2",
                "erc": "ERC-20",
                "slots": [
                    {
                        "current": "0x00000000000000000000000000000000000000000000000328406b91b0612dbc",
                        "key": "0x1d04b9e343f47fe9c28daad352f51766ffe260bda2b7798b00fdb4f11c827553",
                        "prev": "0x00000000000000000000000000000000000000000000000328688131627d1a7c"
                    }
                ],
                "storageVariables": [
                    {
                        "name": "balanceOf",
                        "type": "mapping(address => uint256)",
                        "value": {
                            "pairs": [
                                {
                                    "key": "0x12b791bb27b3a4ee958b5a435fea7d49ec076e9c",
                                    "value": {
                                        "current": "58240668654628842940",
                                        "prev": "58251951429329427068",
                                        "typeTag": 1
                                    }
                                }
                            ],
                            "typeTag": 4
                        }
                    }
                ]
            }
        ]
    }
}