{
    "balance_change": {
        "balanceChanges": [
            {
                "account": "0x0000000000000000000000000000000000000000",
                "assets": [
                    {
                        "address": "0xc22faf9f506e63e6f4f0088d15e9197b27c77ac7",
                        "amount": "1",
                        "iconUrl": "",
                        "isERC1155": false,
                        "isERC721": true,
                        "sign": false,
                        "tokenID": "473",
                        "value": ""
                    }
                ]
            },
            {
                "account": "0xa228454322dea09aae5f835b2e30f1b099fa75a6",
                "assets": [
                    {
                        "address": "0xc22faf9f506e63e6f4f0088d15e9197b27c77ac7",
                        "amount": "1",
                        "iconUrl": "",
                        "isERC1155": false,
                        "isERC721": true,
                        "sign": true,
                        "tokenID": "473",
                        "value": ""
                    }
                ]
            }
        ]
    },
    "profile": {
        "basic_info": {
            "baseFee": "",
            "blockNumber": 6047366,
            "callData": "0x5a9d27dc00000000000000000000000000000000000000000000000000000000000000800000000000000000000000000000000000000000000000000c7d713b49da00000000000000000000000000000000000000000000000000000853a0d2313c00000000000000000000000000000000000000000000000000000000000000278d000000000000000000000000000000000000000000000000000000000000000000",
            "debugEnable": true,
            "errorInfo": "",
            "eventCount": 4,
            "feeRecipient": "0xea674fdde714fd979de3edf0f56aa9716b898ec8",
            "formatValue": "0",
            "gasLimit": 4000000,
            "gasPrice": "2",
            "gasUsed": 170195,
            "intTxnCount": 2,
            "internalRevert": false,
            "internalRevertMessage": "",
            "isContractCreation": false,
            "isFlashloan": false,
            "maxFee": "",
            "nonce": 473,
            "overwritedBlockNumber": -1,
            "priorityFee": "",
            "receiver": "0xc22faf9f506e63e6f4f0088d15e9197b27c77ac7",
            "revertMessage": "",
            "sender": "0x54771b806b87de3b2f04594edbbc2093c845a46f",
            "simulationEnable": true,
            "sourceTxnHash": "0x7a632aa1c6481d1a15477c095411f8dbb92f0da38b7f2a28858aec4d90bd4932",
            "status": true,
            "timestamp": "2018-07-28T21:16:14Z",
            "transactionFee": "0.00034039",
            "txnHash": "0x7a632aa1c6481d1a15477c095411f8dbb92f0da38b7f2a28858aec4d90bd4932",
            "txnIndex": 104,
            "type": 0,
            "value": "0"
        },
        "fund_flow": [
            {
                "amount": "1",
                "from": "0x0000000000000000000000000000000000000000",
                "id": 1,
                "isERC1155": false,
                "isERC721": true,
                "isReverted": false,
                "order": 1,
                "to": "0xc22faf9f506e63e6f4f0088d15e9197b27c77ac7",
                "token": "0xc22faf9f506e63e6f4f0088d15e9197b27c77ac7",
                "tokenID": "473"
            },
            {
                "amount": "1",
                "from": "0xc22faf9f506e63e6f4f0088d15e9197b27c77ac7",
                "id": 2,
                "isERC1155": false,
                "isERC721": true,
                "isReverted": false,
                "order": 2,
                "to": "0xa228454322dea09aae5f835b2e30f1b099fa75a6",
                "token": "0xc22faf9f506e63e6f4f0088d15e9197b27c77ac7",
                "tokenID": "473"
            }
        ],
        "token_infos": [
            {
                "address": "0xc02aaa39b223fe8d0a0e5c4f27ead9083c756cc2",
                "decimals": 18
            },
            {
                "address": "0xeeeeeeeeeeeeeeeeeeeeeeeeeeeeeeeeeeeeeeee",
                "decimals": 18
            }
        ]
    },
    "address_label": {
        "labels": [
            {
                "address": "0x0000000000000000000000000000000000000003",
                "label": "Precompiled"
            },
            {
                "address": "0x0000000000000000000000000000000000000004",
                "label": "Precompiled"
            },
            {
                "address": "0xeeeeeeeeeeeeeeeeeeeeeeeeeeeeeeeeeeeeeeee",
                "label": "Ether"
            },
            {
                "address": "0xc22faf9f506e63e6f4f0088d15e9197b27c77ac7",
                "label": "Curio"
            },
            {
                "address": "0xa228454322dea09aae5f835b2e30f1b099fa75a6",
                "label": "CurioAuction"
            },
            {
                "address": "0x0000000000000000000000000000000000000001",
                "label": "Precompiled"
            },
            {
                "address": "0x0000000000000000000000000000000000000002",
                "label": "Precompiled"
            }
        ]
    },
    "trace": {
        "accountLabels": null,
        "dataMap": {
            "-1": {
                "invocation": {
                    "address": "0x54771b806b87de3b2f04594edbbc2093c845a46f",
                    "callData": "",
                    "decodedMethod": null,
                    "errorInfo": "",
                    "fromAddress": "",
                    "gasUsed": 0,
                    "id": -1,
                    "methodDecoded": false,
                    "operation": "",
                    "output": "",
                    "revert": false,
                    "revertMessage": "",
                    "selector": "",
                    "status": false,
                    "value": ""
                },
                "nodeType": 0
            },
            "0": {
                "invocation": {
                    "address": "0xc22faf9f506e63e6f4f0088d15e9197b27c77ac7",
                    "callData": "0x00000000000000000000000000000000000000000000000000000000000000800000000000000000000000000000000000000000000000000c7d713b49da00000000000000000000000000000000000000000000000000000853a0d2313c00000000000000000000000000000000000000000000000000000000000000278d000000000000000000000000000000000000000000000000000000000000000000",
                    "decodedMethod": {
                        "callParams": [
                            {
                                "name": "_name",
                                "type": "string",
                                "value": ""
                            },
                            {
                                "name": "_startingPrice",
                                "type": "uint256",
                                "value": "900,000,000,000,000,000"
                            },
                            {
                                "name": "_endingPrice",
                                "type": "uint256",
                                "value": "600,000,000,000,000,000"
                            },
                            {
                                "name": "_duration",
                                "type": "uint256",
                                "value": "2,592,000"
                            }
                        ],
                        "constructorArguments": "",
                        "name": "createReleaseTokenAuction",
                        "returnParams": [],
                        "signature": "createReleaseTokenAuction(string,uint256,uint256,uint256)"
                    },
                    "errorInfo": "",
                    "fromAddress": "0x54771b806b87de3b2f04594edbbc2093c845a46f",
                    "gasUsed": 170195,
                    "id": 0,
                    "methodDecoded": true,
                    "operation": "CALL",
                    "output": "",
                    "revert": false,
                    "revertMessage": "",
                    "selector": "0x5a9d27dc",
                    "status": true,
                    "value": "0"
                },
                "nodeType": 0
            },
            "1": {
                "event": {
                    "contract": "0xc22faf9f506e63e6f4f0088d15e9197b27c77ac7",
                    "decodedLog": {
                        "name": "Create",
                        "params": [
                            {
                                "name": "owner",
                                "type": "address",
                                "value": "0xc22faf9f506e63e6f4f0088d15e9197b27c77ac7"
                            },
                            {
                                "name": "tokenId",
                                "type": "uint256",
                                "value": "473"
                            },
                            {
                                "name": "name",
                                "type": "string",
                                "value": ""
                            }
                        ],
                        "signature": "Create(address,uint256,string)"
                    },
                    "id": 1,
                    "logData": "0x00000000000000000000000000000000000000000000000000000000000000200000000000000000000000000000000000000000000000000000000000000000",
                    "logDecoded": true,
                    "operation": "EVENT",
                    "revert": false,
                    "status": true,
                    "topics": [
                        "0x06acdc615e0b6df2984444b78654ef89855fead2ca37b1d70464c0e7827590e2",
                        "0x000000000000000000000000c22faf9f506e63e6f4f0088d15e9197b27c77ac7",
                        "0x00000000000000000000000000000000000000000000000000000000000001d9"
                    ]
                },
                "nodeType": 1
            },
            "2": {
                "event": {
                    "contract": "0xc22faf9f506e63e6f4f0088d15e9197b27c77ac7",
                    "decodedLog": {
                        "name": "Transfer",
                        "params": [
                            {
                                "name": "from",
                                "type": "address",
                                "value": "0x0000000000000000000000000000000000000000"
                            },
                            {
                                "name": "to",
                                "type": "address",
                                "value": "0xc22faf9f506e63e6f4f0088d15e9197b27c77ac7"
                            },
                            {
                                "decimalAvailable": true,
                                "name": "tokenId",
                                "type": "uint256",
                                "value": "473"
                            }
                        ],
                        "signature": "Transfer(address,address,uint256)"
                    },
                    "id": 2,
                    "logData": "0x",
                    "logDecoded": true,
                    "operation": "EVENT",
                    "revert": false,
                    "status": true,
                    "topics": [
                        "0xddf252ad1be2c89b69c2b068fc378daa952ba7f163c4a11628f55a4df523b3ef",
                        "0x0000000000000000000000000000000000000000000000000000000000000000",
                        "0x000000000000000000000000c22faf9f506e63e6f4f0088d15e9197b27c77ac7",
                        "0x00000000000000000000000000000000000000000000000000000000000001d9"
                    ]
                },
                "nodeType": 1
            },
            "3": {
                "invocation": {
                    "address": "0xa228454322dea09aae5f835b2e30f1b099fa75a6",
                    "callData": "0x00000000000000000000000000000000000000000000000000000000000001d90000000000000000000000000000000000000000000000000c7d713b49da00000000000000000000000000000000000000000000000000000853a0d2313c00000000000000000000000000000000000000000000000000000000000000278d00000000000000000000000000c22faf9f506e63e6f4f0088d15e9197b27c77ac7",
                    "decodedMethod": {
                        "callParams": [
                            {
                                "name": "_tokenId",
                                "type": "uint256",
                                "value": "473"
                            },
                            {
                                "name": "_startingPrice",
                                "type": "uint256",
                                "value": "900,000,000,000,000,000"
                            },
                            {
                                "name": "_endingPrice",
                                "type": "uint256",
                                "value": "600,000,000,000,000,000"
                            },
                            {
                                "name": "_duration",
                                "type": "uint256",
                                "value": "2,592,000"
                            },
                            {
                                "name": "_seller",
                                "type": "address",
                                "value": "0xc22faf9f506e63e6f4f0088d15e9197b27c77ac7"
                            }
                        ],
                        "constructorArguments": "",
                        "name": "createAuction",
                        "returnParams": [],
                        "signature": "createAuction(uint256,uint256,uint256,uint256,address)"
                    },
                    "errorInfo": "",
                    "fromAddress": "0xc22faf9f506e63e6f4f0088d15e9197b27c77ac7",
                    "gasUsed": 92102,
                    "id": 3,
                    "methodDecoded": true,
                    "operation": "CALL",
                    "output": "",
                    "revert": false,
                    "revertMessage": "",
                    "selector": "0x27ebe40a",
                    "status": true,
                    "value": "0"
                },
                "nodeType": 0
            },
            "4": {
                "invocation": {
                    "address": "0xc22faf9f506e63e6f4f0088d15e9197b27c77ac7",
                    "callData": "0x000000000000000000000000c22faf9f506e63e6f4f0088d15e9197b27c77ac7000000000000000000000000a228454322dea09aae5f835b2e30f1b099fa75a600000000000000000000000000000000000000000000000000000000000001d9",
                    "decodedMethod": {
                        "callParams": [
                            {
                                "name": "_from",
                                "type": "address",
                                "value": "0xc22faf9f506e63e6f4f0088d15e9197b27c77ac7"
                            },
                            {
                                "name": "_to",
                                "type": "address",
                                "value": "0xa228454322dea09aae5f835b2e30f1b099fa75a6"
                            },
                            {
                                "decimalAvailable": true,
                                "name": "_tokenId",
                                "type": "uint256",
                                "value": "473"
                            }
                        ],
                        "constructorArguments": "",
                        "name": "transferFrom",
                        "returnParams": [],
                        "signature": "transferFrom(address,address,uint256)"
                    },
                    "errorInfo": "",
                    "fromAddress": "0xa228454322dea09aae5f835b2e30f1b099fa75a6",
                    "gasUsed": 25334,
                    "id": 4,
                    "methodDecoded": true,
                    "operation": "CALL",
                    "output": "",
                    "revert": false,
                    "revertMessage": "",
                    "selector": "0x23b872dd",
                    "status": true,
                    "value": "0"
                },
                "nodeType": 0
            },
            "5": {
                "event": {
                    "contract": "0xc22faf9f506e63e6f4f0088d15e9197b27c77ac7",
                    "decodedLog": {
                        "name": "Transfer",
                        "params": [
                            {
                                "name": "from",
                                "type": "address",
                                "value": "0xc22faf9f506e63e6f4f0088d15e9197b27c77ac7"
                            },
                            {
                                "name": "to",
                                "type": "address",
                                "value": "0xa228454322dea09aae5f835b2e30f1b099fa75a6"
                            },
                            {
                                "decimalAvailable": true,
                                "name": "tokenId",
                                "type": "uint256",
                                "value": "473"
                            }
                        ],
                        "signature": "Transfer(address,address,uint256)"
                    },
                    "id": 5,
                    "logData": "0x",
                    "logDecoded": true,
                    "operation": "EVENT",
                    "revert": false,
                    "status": true,
                    "topics": [
                        "0xddf252ad1be2c89b69c2b068fc378daa952ba7f163c4a11628f55a4df523b3ef",
                        "0x000000000000000000000000c22faf9f506e63e6f4f0088d15e9197b27c77ac7",
                        "0x000000000000000000000000a228454322dea09aae5f835b2e30f1b099fa75a6",
                        "0x00000000000000000000000000000000000000000000000000000000000001d9"
                    ]
                },
                "nodeType": 1
            },
            "6": {
                "event": {
                    "contract": "0xa228454322dea09aae5f835b2e30f1b099fa75a6",
                    "decodedLog": {
                        "name": "AuctionCreated",
                        "params": [
                            {
                                "name": "tokenId",
                                "type": "uint256",
                                "value": "473"
                            },
                            {
                                "name": "startingPrice",
                                "type": "uint256",
                                "value": "900,000,000,000,000,000"
                            },
                            {
                                "name": "endingPrice",
                                "type": "uint256",
                                "value": "600,000,000,000,000,000"
                            },
                            {
                                "name": "duration",
                                "type": "uint256",
                                "value": "2,592,000"
                            }
                        ],
                        "signature": "AuctionCreated(uint256,uint256,uint256,uint256)"
                    },
                    "id": 6,
                    "logData": "0x0000000000000000000000000000000000000000000000000c7d713b49da00000000000000000000000000000000000000000000000000000853a0d2313c00000000000000000000000000000000000000000000000000000000000000278d00",
                    "logDecoded": true,
                    "operation": "EVENT",
                    "revert": false,
                    "status": true,
                    "topics": [
                        "0xa9c8dfcda5664a5a124c713e386da27de87432d5b668e79458501eb296389ba7",
                        "0x00000000000000000000000000000000000000000000000000000000000001d9"
                    ]
                },
                "nodeType": 1
            }
        },
        "gasFlame": [
            {
                "children": [
                    {
                        "children": [
                            {
                                "children": [],
                                "depth": 0,
                                "name": "Initial Gas",
                                "value": 22872
                            },
                            {
                                "children": [
                                    {
                                        "children": [
                                            {
                                                "children": [],
                                                "depth": 2,
                                                "name": "transferFrom",
                                                "value": 25334
                                            }
                                        ],
                                        "depth": 1,
                                        "name": "createAuction",
                                        "value": 92102
                                    }
                                ],
                                "depth": 0,
                                "name": "Executed Gas",
                                "value": 177323
                            }
                        ],
                        "depth": -1,
                        "name": "Actual Gas Used",
                        "value": 170195
                    },
                    {
                        "children": [],
                        "depth": -1,
                        "name": "Refunded Gas",
                        "value": 30000
                    }
                ],
                "depth": -2,
                "name": "Total Gas",
                "value": 200195
            }
        ],
        "isConfirmed": true,
        "mainTrace": [
            {
                "children": [
                    {
                        "children": [
                            {
                                "children": [],
                                "depth": 1,
                                "id": 1,
                                "order": 1
                            },
                            {
                                "children": [],
                                "depth": 1,
                                "id": 2,
                                "order": 2
                            },
                            {
                                "children": [
                                    {
                                        "children": [
                                            {
                                                "children": [],
                                                "depth": 3,
                                                "id": 5,
                                                "order": 5
                                            }
                                        ],
                                        "depth": 2,
                                        "id": 4,
                                        "order": 4
                                    },
                                    {
                                        "children": [],
                                        "depth": 2,
                                        "id": 6,
                                        "order": 6
                                    }
                                ],
                                "depth": 1,
                                "id": 3,
                                "order": 3
                            }
                        ],
                        "depth": 0,
                        "id": 0,
                        "order": 0
                    }
                ],
                "depth": -1,
                "id": -1,
                "order": -1
            }
        ],
        "mainTraceNodeCount": 7,
        "parentIdMap": {
            "0": -1,
            "1": 0,
            "2": 0,
            "3": 0,
            "4": 3,
            "5": 4,
            "6": 3
        },
        "tidyTrace": [
            {
                "children": [
                    {
                        "children": [
                            {
                                "children": [],
                                "depth": 1,
                                "id": 1,
                                "order": 1
                            },
                            {
                                "children": [],
                                "depth": 1,
                                "id": 2,
                                "order": 2
                            },
                            {
                                "children": [
                                    {
                                        "children": [
                                            {
                                                "children": [],
                                                "depth": 3,
                                                "id": 5,
                                                "order": 5
                                            }
                                        ],
                                        "depth": 2,
                                        "id": 4,
                                        "order": 4
                                    },
                                    {
                                        "children": [],
                                        "depth": 2,
                                        "id": 6,
                                        "order": 6
                                    }
                                ],
                                "depth": 1,
                                "id": 3,
                                "order": 3
                            }
                        ],
                        "depth": 0,
                        "id": 0,
                        "order": 0
                    }
                ],
                "depth": -1,
                "id": -1,
                "order": -1
            }
        ],
        "tidyTraceNodeCount": 7
    },
    "state_change": {
        "stateChanges": [
            {
                "address": "0xa228454322dea09aae5f835b2e30f1b099fa75a6",
                "erc": "",
                "slots": [
                    {
                        "current": "0x000000000000000000000000c22faf9f506e63e6f4f0088d15e9197b27c77ac7",
                        "key": "0xe1a538a8a71a6259f7bc17a35f3f967d47158a4a8c5bbb3dee9da8efc66623c3",
                        "prev": "0x0000000000000000000000000000000000000000000000000000000000000000"
                    },
                    {
                        "current": "0x00000000000000000853a0d2313c000000000000000000000c7d713b49da0000",
                        "key": "0xe1a538a8a71a6259f7bc17a35f3f967d47158a4a8c5bbb3dee9da8efc66623c4",
                        "prev": "0x0000000000000000000000000000000000000000000000000000000000000000"
                    },
                    {
                        "current": "0x00000000000000000000000000000000000000005b5cdd1e0000000000278d00",
                        "key": "0xe1a538a8a71a6259f7bc17a35f3f967d47158a4a8c5bbb3dee9da8efc66623c5",
                        "prev": "0x0000000000000000000000000000000000000000000000000000000000000000"
                    }
                ],
                "storageVariables": [
                    {
                        "name": "tokenIdToAuction",
                        "type": "mapping(uint256 => struct CurioAuction.Auction)",
                        "value": {
                            "pairs": [
                                {
                                    "key": "473",
                                    "value": {
                                        "fields": [
                                            {
                                                "name": "seller",
                                                "type": "address",
                                                "value": {
                                                    "current": "0xc22faf9f506e63e6f4f0088d15e9197b27c77ac7",
                                                    "prev": "0x0000000000000000000000000000000000000000",
                                                    "typeTag": 1
                                                }
                                            },
                                            {
                                                "name": "startingPrice",
                                                "type": "uint128",
                                                "value": {
                                                    "current": "900000000000000000",
                                                    "prev": "0",
                                                    "typeTag": 1
                                                }
                                            },
                                            {
                                                "name": "endingPrice",
                                                "type": "uint128",
                                                "value": {
                                                    "current": "600000000000000000",
                                                    "prev": "0",
                                                    "typeTag": 1
                                                }
                                            },
                                            {
                                                "name": "duration",
                                                "type": "uint64",
                                                "value": {
                                                    "current": "2592000",
                                                    "prev": "0",
                                                    "typeTag": 1
                                                }
                                            },
                                            {
                                                "name": "startedAt",
                                                "type": "uint64",
                                                "value": {
                                                    "current": "1532812574",
                                                    "prev": "0",
                                                    "typeTag": 1
                                                }
                                            }
                                        ],
                                        "typeTag": 3
                                    }
                                }
                            ],
                            "typeTag": 4
                        }
                    }
                ]
            },
            {
                "address": "0xc22faf9f506e63e6f4f0088d15e9197b27c77ac7",
                "erc": "",
                "slots": [
                    {
                        "current": "0x000000000000000000000000a228454322dea09aae5f835b2e30f1b099fa75a6",
                        "key": "0x9337fcaba747c4864044a0cf572e4baa3c38c3a99fee7104ca18151cf108b24e",
                        "prev": "0x0000000000000000000000000000000000000000000000000000000000000000"
                    },
                    {
                        "current": "0x00000000000000000000000000000000000000000000000000000000000001da",
                        "key": "0x0000000000000000000000000000000000000000000000000000000000000000",
                        "prev": "0x00000000000000000000000000000000000000000000000000000000000001d9"
                    },
                    {
                        "current": "0x00000000000000000000000000000000000000000000000000000000000001da",
                        "key": "0xf178229035a1f6917bf27790f298ab8704deb4c483f8ce1b787e3e84d1c3e840",
                        "prev": "0x00000000000000000000000000000000000000000000000000000000000001d9"
                    },
                    {
                        "current": "0x00000000000000000000000000000000000000000000000000000000000001da",
                        "key": "0x0000000000000000000000000000000000000000000000000000000000000008",
                        "prev": "0x00000000000000000000000000000000000000000000000000000000000001d9"
                    }
                ],
                "storageVariables": [
                    {
                        "name": "ownershipTokenCount",
                        "type": "mapping(address => uint256)",
                        "value": {
                            "pairs": [
                                {
                                    "key": "0xa228454322dea09aae5f835b2e30f1b099fa75a6",
                                    "value": {
                                        "current": "474",
                                        "prev": "473",
                                        "typeTag": 1
                                    }
                                }
                            ],
                            "typeTag": 4
                        }
                    },
                    {
                        "name": "releaseCreatedCount",
                        "type": "uint256",
                        "value": {
                            "current": "474",
                            "prev": "473",
                            "typeTag": 1
                        }
                    },
                    {
                        "name": "tokenIndexToOwner",
                        "type": "mapping(uint256 => address)",
                        "value": {
                            "pairs": [
                                {
                                    "key": "473",
                                    "value": {
                                        "current": "0xa228454322dea09aae5f835b2e30f1b099fa75a6",
                                        "prev": "0x0000000000000000000000000000000000000000",
                                        "typeTag": 1
                                    }
                                }
                            ],
                            "typeTag": 4
                        }
                    }
                ]
            }
        ]
    }
}