{
    "balance_change": {
        "balanceChanges": [
            {
                "account": "0x986a2fca9eda0e06fbf7839b89bfc006ee2a23dd",
                "assets": [
                    {
                        "address": "0x915044526758533dfb918eceb6e44bc21632060d",
                        "amount": "3,033",
                        "iconUrl": "",
                        "isERC1155": false,
                        "isERC721": false,
                        "sign": false,
                        "value": ""
                    }
                ]
            },
            {
                "account": "0x461dd8fa9f7dda45058427910ee27eef863e6dc2",
                "assets": [
                    {
                        "address": "0x915044526758533dfb918eceb6e44bc21632060d",
                        "amount": "3,033",
                        "iconUrl": "",
                        "isERC1155": false,
                        "isERC721": false,
                        "sign": true,
                        "value": ""
                    }
                ]
            }
        ]
    },
    "profile": {
        "basic_info": {
            "baseFee": "",
            "blockNumber": 8790920,
            "callData": "0xa9059cbb000000000000000000000000461dd8fa9f7dda45058427910ee27eef863e6dc200000000000000000000000000000000000000000000000000000000b4c7e840",
            "debugEnable": true,
            "errorInfo": "",
            "eventCount": 1,
            "feeRecipient": "0x5a0b54d5dc17e0aadc383d2db43b0a0d3e029c4c",
            "formatValue": "0",
            "gasLimit": 102728,
            "gasPrice": "15",
            "gasUsed": 51364,
            "intTxnCount": 0,
            "internalRevert": false,
            "internalRevertMessage": "",
            "isContractCreation": false,
            "isFlashloan": false,
            "maxFee": "",
            "nonce": 14499,
            "overwritedBlockNumber": -1,
            "priorityFee": "",
            "receiver": "0x915044526758533dfb918eceb6e44bc21632060d",
            "revertMessage": "",
            "sender": "0x986a2fca9eda0e06fbf7839b89bfc006ee2a23dd",
            "simulationEnable": true,
            "sourceTxnHash": "0x7a42ec0e9d0cc1723d6555f1e9a3d892e0bdf9cba7076979ef856c2208aef1eb",
            "status": true,
            "timestamp": "2019-10-22T14:52:22Z",
            "transactionFee": "0.00077046",
            "txnHash": "0x7a42ec0e9d0cc1723d6555f1e9a3d892e0bdf9cba7076979ef856c2208aef1eb",
            "txnIndex": 163,
            "type": 0,
            "value": "0"
        },
        "fund_flow": [
            {
                "amount": "3,033",
                "from": "0x986a2fca9eda0e06fbf7839b89bfc006ee2a23dd",
                "id": 1,
                "isERC1155": false,
                "isERC721": false,
                "isReverted": false,
                "order": 1,
                "to": "0x461dd8fa9f7dda45058427910ee27eef863e6dc2",
                "token": "0x915044526758533dfb918eceb6e44bc21632060d"
            }
        ],
        "token_infos": [
            {
                "address": "0x915044526758533dfb918eceb6e44bc21632060d",
                "decimals": 6
            },
            {
                "address": "0xc02aaa39b223fe8d0a0e5c4f27ead9083c756cc2",
                "decimals": 18
            },
            {
                "address": "0xeeeeeeeeeeeeeeeeeeeeeeeeeeeeeeeeeeeeeeee",
                "decimals": 18
            }
        ]
    },
    "address_label": {
        "labels": [
            {
                "address": "0x0000000000000000000000000000000000000001",
                "label": "Precompiled"
            },
            {
                "address": "0x0000000000000000000000000000000000000002",
                "label": "Precompiled"
            },
            {
                "address": "0x0000000000000000000000000000000000000003",
                "label": "Precompiled"
            },
            {
                "address": "0x0000000000000000000000000000000000000004",
                "label": "Precompiled"
            },
            {
                "address": "0xeeeeeeeeeeeeeeeeeeeeeeeeeeeeeeeeeeeeeeee",
                "label": "Ether"
            },
            {
                "address": "0x461dd8fa9f7dda45058427910ee27eef863e6dc2",
                "label": "BITTREX"
            },
            {
                "address": "0x915044526758533dfb918eceb6e44bc21632060d",
                "label": "Chromia: Old CHR Token"
            },
            {
                "address": "0x986a2fca9eda0e06fbf7839b89bfc006ee2a23dd",
                "label": "AscendEX 3"
            }
        ]
    },
    "trace": {
        "accountLabels": null,
        "dataMap": {
            "-1": {
                "invocation": {
                    "address": "0x986a2fca9eda0e06fbf7839b89bfc006ee2a23dd",
                    "callData": "",
                    "decodedMethod": null,
                    "errorInfo": "",
                    "fromAddress": "",
                    "gasUsed": 0,
                    "id": -1,
                    "methodDecoded": false,
                    "operation": "",
                    "output": "",
                    "revert": false,
                    "revertMessage": "",
                    "selector": "",
                    "status": false,
                    "value": ""
                },
                "nodeType": 0
            },
            "0": {
                "invocation": {
                    "address": "0x915044526758533dfb918eceb6e44bc21632060d",
                    "callData": "0x000000000000000000000000461dd8fa9f7dda45058427910ee27eef863e6dc200000000000000000000000000000000000000000000000000000000b4c7e840",
                    "decodedMethod": {
                        "callParams": [
                            {
                                "name": "to",
                                "type": "address",
                                "value": "0x461dd8fa9f7dda45058427910ee27eef863e6dc2"
                            },
                            {
                                "decimalAvailable": true,
                                "name": "value",
                                "type": "uint256",
                                "value": "3,033,000,000"
                            }
                        ],
                        "constructorArguments": "",
                        "name": "transfer",
                        "returnParams": [
                            {
                                "name": "",
                                "type": "bool",
                                "value": true
                            }
                        ],
                        "signature": "transfer(address,uint256)"
                    },
                    "errorInfo": "",
                    "fromAddress": "0x986a2fca9eda0e06fbf7839b89bfc006ee2a23dd",
                    "gasUsed": 51364,
                    "id": 0,
                    "methodDecoded": true,
                    "operation": "CALL",
                    "output": "0x0000000000000000000000000000000000000000000000000000000000000001",
                    "revert": false,
                    "revertMessage": "",
                    "selector": "0xa9059cbb",
                    "status": true,
                    "value": "0"
                },
                "nodeType": 0
            },
            "1": {
                "event": {
                    "contract": "0x915044526758533dfb918eceb6e44bc21632060d",
                    "decodedLog": {
                        "name": "Transfer",
                        "params": [
                            {
                                "name": "from",
                                "type": "address",
                                "value": "0x986a2fca9eda0e06fbf7839b89bfc006ee2a23dd"
                            },
                            {
                                "name": "to",
                                "type": "address",
                                "value": "0x461dd8fa9f7dda45058427910ee27eef863e6dc2"
                            },
                            {
                                "decimalAvailable": true,
                                "name": "value",
                                "type": "uint256",
                                "value": "3,033,000,000"
                            }
                        ],
                        "signature": "Transfer(address,address,uint256)"
                    },
                    "id": 1,
                    "logData": "0x00000000000000000000000000000000000000000000000000000000b4c7e840",
                    "logDecoded": true,
                    "operation": "EVENT",
                    "revert": false,
                    "status": true,
                    "topics": [
                        "0xddf252ad1be2c89b69c2b068fc378daa952ba7f163c4a11628f55a4df523b3ef",
                        "0x000000000000000000000000986a2fca9eda0e06fbf7839b89bfc006ee2a23dd",
                        "0x000000000000000000000000461dd8fa9f7dda45058427910ee27eef863e6dc2"
                    ]
                },
                "nodeType": 1
            }
        },
        "gasFlame": [
            {
                "children": [
                    {
                        "children": [
                            {
                                "children": [],
                                "depth": 0,
                                "name": "Initial Gas",
                                "value": 23064
                            },
                            {
                                "children": [],
                                "depth": 0,
                                "name": "Executed Gas",
                                "value": 28300
                            }
                        ],
                        "depth": -1,
                        "name": "Actual Gas Used",
                        "value": 51364
                    },
                    {
                        "children": [],
                        "depth": -1,
                        "name": "Refunded Gas",
                        "value": 0
                    }
                ],
                "depth": -2,
                "name": "Total Gas",
                "value": 51364
            }
        ],
        "isConfirmed": true,
        "mainTrace": [
            {
                "children": [
                    {
                        "children": [
                            {
                                "children": [],
                                "depth": 1,
                                "id": 1,
                                "order": 1
                            }
                        ],
                        "depth": 0,
                        "id": 0,
                        "order": 0
                    }
                ],
                "depth": -1,
                "id": -1,
                "order": -1
            }
        ],
        "mainTraceNodeCount": 2,
        "parentIdMap": {
            "0": -1,
            "1": 0
        },
        "tidyTrace": [
            {
                "children": [
                    {
                        "children": [
                            {
                                "children": [],
                                "depth": 1,
                                "id": 1,
                                "order": 1
                            }
                        ],
                        "depth": 0,
                        "id": 0,
                        "order": 0
                    }
                ],
                "depth": -1,
                "id": -1,
                "order": -1
            }
        ],
        "tidyTraceNodeCount": 2
    },
    "state_change": {
        "stateChanges": [
            {
                "address": "0x915044526758533dfb918eceb6e44bc21632060d",
                "erc": "ERC-20",
                "slots": [
                    {
                        "current": "0x00000000000000000000000000000000000000000000000000000000b4c7e840",
                        "key": "0x036e52976572ba08b86a51d69887cbc815558e1caae8596b9d804d9dcd00d660",
                        "prev": "0x0000000000000000000000000000000000000000000000000000000000000000"
                    },
                    {
                        "current": "0x000000000000000000000000000000000000000000000000000003997fe36b53",
                        "key": "0xd6bc4c4e7d1493843a6ab62b0030ff334353cb9f73af95b0abfc18c88b10ddb5",
                        "prev": "0x0000000000000000000000000000000000000000000000000000039a34ab5393"
                    }
                ],
                "storageVariables": [
                    {
                        "name": "_balances",
                        "type": "mapping(address => uint256)",
                        "value": {
                            "pairs": [
                                {
                                    "key": "0x461dd8fa9f7dda45058427910ee27eef863e6dc2",
                                    "value": {
                                        "current": "3033000000",
                                        "prev": "0",
                                        "typeTag": 1
                                    }
                                },
                                {
                                    "key": "0x986a2fca9eda0e06fbf7839b89bfc006ee2a23dd",
                                    "value": {
                                        "current": "3957810490195",
                                        "prev": "3960843490195",
                                        "typeTag": 1
                                    }
                                }
                            ],
                            "typeTag": 4
                        }
                    }
                ]
            }
        ]
    }
}