{
    "balance_change": {
        "balanceChanges": [
            {
                "account": "0x97dfde6e43ad3e4b3c01e4f84fd337473d4e9a9c",
                "assets": [
                    {
                        "address": "0x64a3cc9b245afde1a9f51f42e6ba54b3e6b97c3d",
                        "amount": "4,923,720,000",
                        "iconUrl": "",
                        "isERC1155": false,
                        "isERC721": false,
                        "sign": false,
                        "value": ""
                    }
                ]
            },
            {
                "account": "0x9fa7bdae992765f8d4c42eea7899bd3b8b137a03",
                "assets": [
                    {
                        "address": "0x64a3cc9b245afde1a9f51f42e6ba54b3e6b97c3d",
                        "amount": "4,923,720,000",
                        "iconUrl": "",
                        "isERC1155": false,
                        "isERC721": false,
                        "sign": true,
                        "value": ""
                    }
                ]
            }
        ]
    },
    "profile": {
        "basic_info": {
            "baseFee": "",
            "blockNumber": 11155235,
            "callData": "0xa9059cbb0000000000000000000000009fa7bdae992765f8d4c42eea7899bd3b8b137a0300000000000000000000000000000000000000000000000000000001257a0140",
            "debugEnable": true,
            "errorInfo": "",
            "eventCount": 1,
            "feeRecipient": "0xea674fdde714fd979de3edf0f56aa9716b898ec8",
            "formatValue": "0",
            "gasLimit": 200000,
            "gasPrice": "52",
            "gasUsed": 37912,
            "intTxnCount": 0,
            "internalRevert": false,
            "internalRevertMessage": "",
            "isContractCreation": false,
            "isFlashloan": false,
            "maxFee": "",
            "nonce": 13075,
            "overwritedBlockNumber": -1,
            "priorityFee": "",
            "receiver": "0x64a3cc9b245afde1a9f51f42e6ba54b3e6b97c3d",
            "revertMessage": "",
            "sender": "0x97dfde6e43ad3e4b3c01e4f84fd337473d4e9a9c",
            "simulationEnable": true,
            "sourceTxnHash": "0x7a062f8792764effa7715d2da347a5a184d513f78071e25c933f3cbaeea4538b",
            "status": true,
            "timestamp": "2020-10-30T01:35:41Z",
            "transactionFee": "0.001971424",
            "txnHash": "0x7a062f8792764effa7715d2da347a5a184d513f78071e25c933f3cbaeea4538b",
            "txnIndex": 147,
            "type": 0,
            "value": "0"
        },
        "fund_flow": [
            {
                "amount": "4,923,720,000",
                "from": "0x97dfde6e43ad3e4b3c01e4f84fd337473d4e9a9c",
                "id": 1,
                "isERC1155": false,
                "isERC721": false,
                "isReverted": false,
                "order": 1,
                "to": "0x9fa7bdae992765f8d4c42eea7899bd3b8b137a03",
                "token": "0x64a3cc9b245afde1a9f51f42e6ba54b3e6b97c3d"
            }
        ],
        "token_infos": [
            {
                "address": "0xeeeeeeeeeeeeeeeeeeeeeeeeeeeeeeeeeeeeeeee",
                "decimals": 18
            },
            {
                "address": "0xc02aaa39b223fe8d0a0e5c4f27ead9083c756cc2",
                "decimals": 18
            }
        ]
    },
    "address_label": {
        "labels": [
            {
                "address": "0x0000000000000000000000000000000000000002",
                "label": "Precompiled"
            },
            {
                "address": "0x0000000000000000000000000000000000000003",
                "label": "Precompiled"
            },
            {
                "address": "0x0000000000000000000000000000000000000004",
                "label": "Precompiled"
            },
            {
                "address": "0xeeeeeeeeeeeeeeeeeeeeeeeeeeeeeeeeeeeeeeee",
                "label": "Ether"
            },
            {
                "address": "0x0000000000000000000000000000000000000001",
                "label": "Precompiled"
            }
        ]
    },
    "trace": {
        "accountLabels": null,
        "dataMap": {
            "-1": {
                "invocation": {
                    "address": "0x97dfde6e43ad3e4b3c01e4f84fd337473d4e9a9c",
                    "callData": "",
                    "decodedMethod": null,
                    "errorInfo": "",
                    "fromAddress": "",
                    "gasUsed": 0,
                    "id": -1,
                    "methodDecoded": false,
                    "operation": "",
                    "output": "",
                    "revert": false,
                    "revertMessage": "",
                    "selector": "",
                    "status": false,
                    "value": ""
                },
                "nodeType": 0
            },
            "0": {
                "invocation": {
                    "address": "0x64a3cc9b245afde1a9f51f42e6ba54b3e6b97c3d",
                    "callData": "0x0000000000000000000000009fa7bdae992765f8d4c42eea7899bd3b8b137a0300000000000000000000000000000000000000000000000000000001257a0140",
                    "decodedMethod": {
                        "callParams": [
                            {
                                "name": "recipient",
                                "type": "address",
                                "value": "0x9fa7bdae992765f8d4c42eea7899bd3b8b137a03"
                            },
                            {
                                "decimalAvailable": true,
                                "name": "amount",
                                "type": "uint256",
                                "value": "4,923,720,000"
                            }
                        ],
                        "constructorArguments": "",
                        "name": "transfer",
                        "returnParams": [
                            {
                                "name": "",
                                "type": "bool",
                                "value": true
                            }
                        ],
                        "signature": "transfer(address,uint256)"
                    },
                    "errorInfo": "",
                    "fromAddress": "0x97dfde6e43ad3e4b3c01e4f84fd337473d4e9a9c",
                    "gasUsed": 37912,
                    "id": 0,
                    "methodDecoded": true,
                    "operation": "CALL",
                    "output": "0x0000000000000000000000000000000000000000000000000000000000000001",
                    "revert": false,
                    "revertMessage": "",
                    "selector": "0xa9059cbb",
                    "status": true,
                    "value": "0"
                },
                "nodeType": 0
            },
            "1": {
                "event": {
                    "contract": "0x64a3cc9b245afde1a9f51f42e6ba54b3e6b97c3d",
                    "decodedLog": {
                        "name": "Transfer",
                        "params": [
                            {
                                "name": "from",
                                "type": "address",
                                "value": "0x97dfde6e43ad3e4b3c01e4f84fd337473d4e9a9c"
                            },
                            {
                                "name": "to",
                                "type": "address",
                                "value": "0x9fa7bdae992765f8d4c42eea7899bd3b8b137a03"
                            },
                            {
                                "decimalAvailable": true,
                                "name": "value",
                                "type": "uint256",
                                "value": "4,923,720,000"
                            }
                        ],
                        "signature": "Transfer(address,address,uint256)"
                    },
                    "id": 1,
                    "logData": "0x00000000000000000000000000000000000000000000000000000001257a0140",
                    "logDecoded": true,
                    "operation": "EVENT",
                    "revert": false,
                    "status": true,
                    "topics": [
                        "0xddf252ad1be2c89b69c2b068fc378daa952ba7f163c4a11628f55a4df523b3ef",
                        "0x00000000000000000000000097dfde6e43ad3e4b3c01e4f84fd337473d4e9a9c",
                        "0x0000000000000000000000009fa7bdae992765f8d4c42eea7899bd3b8b137a03"
                    ]
                },
                "nodeType": 1
            }
        },
        "gasFlame": [
            {
                "children": [
                    {
                        "children": [
                            {
                                "children": [],
                                "depth": 0,
                                "name": "Initial Gas",
                                "value": 21620
                            },
                            {
                                "children": [],
                                "depth": 0,
                                "name": "Executed Gas",
                                "value": 16292
                            }
                        ],
                        "depth": -1,
                        "name": "Actual Gas Used",
                        "value": 37912
                    },
                    {
                        "children": [],
                        "depth": -1,
                        "name": "Refunded Gas",
                        "value": 0
                    }
                ],
                "depth": -2,
                "name": "Total Gas",
                "value": 37912
            }
        ],
        "isConfirmed": true,
        "mainTrace": [
            {
                "children": [
                    {
                        "children": [
                            {
                                "children": [],
                                "depth": 1,
                                "id": 1,
                                "order": 1
                            }
                        ],
                        "depth": 0,
                        "id": 0,
                        "order": 0
                    }
                ],
                "depth": -1,
                "id": -1,
                "order": -1
            }
        ],
        "mainTraceNodeCount": 2,
        "parentIdMap": {
            "0": -1,
            "1": 0
        },
        "tidyTrace": [
            {
                "children": [
                    {
                        "children": [
                            {
                                "children": [],
                                "depth": 1,
                                "id": 1,
                                "order": 1
                            }
                        ],
                        "depth": 0,
                        "id": 0,
                        "order": 0
                    }
                ],
                "depth": -1,
                "id": -1,
                "order": -1
            }
        ],
        "tidyTraceNodeCount": 2
    },
    "state_change": {
        "stateChanges": [
            {
                "address": "0x64a3cc9b245afde1a9f51f42e6ba54b3e6b97c3d",
                "erc": "",
                "slots": [
                    {
                        "current": "0x00000000000000000000000000000000000000000000000000000660d1f358d0",
                        "key": "0xc6f49696ad737eede9c3b6cd69c3d0591d53e69a94cd820aa030a2ad086fe699",
                        "prev": "0x00000000000000000000000000000000000000000000000000000661f76d5a10"
                    },
                    {
                        "current": "0x000000000000000000000000000000000000000000000000000000039c14c9f0",
                        "key": "0xe906b78c5db174f29c6520ca767e1bd9985a514660a6502ecc309948169a75f6",
                        "prev": "0x00000000000000000000000000000000000000000000000000000002769ac8b0"
                    }
                ],
                "storageVariables": []
            }
        ]
    }
}