{
    "balance_change": {
        "balanceChanges": [
            {
                "account": "0xccfeff7515cc47c5527a86315f9860e96c433c70",
                "assets": [
                    {
                        "address": "0xa787fbb8cf6e735493c237e2a095087fee91bbb3",
                        "amount": "33,197,131,062,675,303",
                        "iconUrl": "",
                        "isERC1155": false,
                        "isERC721": false,
                        "sign": false,
                        "value": ""
                    },
                    {
                        "address": "0xeeeeeeeeeeeeeeeeeeeeeeeeeeeeeeeeeeeeeeee",
                        "amount": "0.002687601902492905",
                        "iconUrl": "https://assets.blocksec.com/image/1663669189317-3.png",
                        "isERC1155": false,
                        "isERC721": false,
                        "sign": true,
                        "value": "9.137465902370677"
                    }
                ]
            },
            {
                "account": "0xb4120fafc1e4e4eeacdd156d530ba57d8ae5378f",
                "assets": [
                    {
                        "address": "0xa787fbb8cf6e735493c237e2a095087fee91bbb3",
                        "amount": "33,197,131,062,675,303",
                        "iconUrl": "",
                        "isERC1155": false,
                        "isERC721": false,
                        "sign": true,
                        "value": ""
                    },
                    {
                        "address": "0xc02aaa39b223fe8d0a0e5c4f27ead9083c756cc2",
                        "amount": "0.002687601902492905",
                        "iconUrl": "https://assets.blocksec.com/icon/f1cb2d02c471d545bbc7722daf3277fd852d98e63d118771af7047bd8256c516.png",
                        "isERC1155": false,
                        "isERC721": false,
                        "sign": false,
                        "value": "9.137465902370677"
                    }
                ]
            },
            {
                "account": "0xc02aaa39b223fe8d0a0e5c4f27ead9083c756cc2",
                "assets": [
                    {
                        "address": "0xeeeeeeeeeeeeeeeeeeeeeeeeeeeeeeeeeeeeeeee",
                        "amount": "0.002687601902492905",
                        "iconUrl": "https://assets.blocksec.com/image/1663669189317-3.png",
                        "isERC1155": false,
                        "isERC721": false,
                        "sign": false,
                        "value": "9.137465902370677"
                    },
                    {
                        "address": "0xc02aaa39b223fe8d0a0e5c4f27ead9083c756cc2",
                        "amount": "0.002687601902492905",
                        "iconUrl": "https://assets.blocksec.com/icon/f1cb2d02c471d545bbc7722daf3277fd852d98e63d118771af7047bd8256c516.png",
                        "isERC1155": false,
                        "isERC721": false,
                        "sign": true,
                        "value": "9.137465902370677"
                    }
                ]
            }
        ]
    },
    "profile": {
        "basic_info": {
            "baseFee": "4.974093253",
            "blockNumber": 20378047,
            "callData": "0x3d0e3ec50000000000000000000000000000000000000000000000000075f09d648d87670000000000000000000000000000000000000000000000000007d45ffc7d929600000000000000000000000000000000000000000000000000000000000000c0000000000000000000000000ccfeff7515cc47c5527a86315f9860e96c433c700000000000000000000000000000000000000000000000000000000066a140f00000000000000000000000005c69bee701ef814a2b6a3edd4b1652cb9cc5aa6f0000000000000000000000000000000000000000000000000000000000000002000000000000000000000000a787fbb8cf6e735493c237e2a095087fee91bbb3000000000000000000000000c02aaa39b223fe8d0a0e5c4f27ead9083c756cc2",
            "debugEnable": true,
            "errorInfo": "",
            "eventCount": 6,
            "feeRecipient": "0x95222290dd7278aa3ddd389cc1e1d165cc4bafe5",
            "formatValue": "0",
            "gasLimit": 309808,
            "gasPrice": "10.774093253",
            "gasUsed": 149593,
            "intTxnCount": 13,
            "internalRevert": false,
            "internalRevertMessage": "",
            "isContractCreation": false,
            "isFlashloan": false,
            "maxFee": "12.10944764",
            "nonce": 98,
            "overwritedBlockNumber": -1,
            "priorityFee": "5.8",
            "receiver": "0x80a64c6d7f12c47b7c66c5b4e20e72bc1fcd5d9e",
            "revertMessage": "",
            "sender": "0xccfeff7515cc47c5527a86315f9860e96c433c70",
            "simulationEnable": true,
            "sourceTxnHash": "0x7a7f5f1ad6e2eba0d2d4dbc8feca57dc22f49dc740defdc992cdf2ba38d1c83e",
            "status": true,
            "timestamp": "2024-07-24T17:59:11Z",
            "transactionFee": "0.001611728931996029",
            "txnHash": "0x7a7f5f1ad6e2eba0d2d4dbc8feca57dc22f49dc740defdc992cdf2ba38d1c83e",
            "txnIndex": 5,
            "type": 2,
            "value": "0"
        },
        "fund_flow": [
            {
                "amount": "33,197,131,062,675,303",
                "from": "0xccfeff7515cc47c5527a86315f9860e96c433c70",
                "id": 1,
                "isERC1155": false,
                "isERC721": false,
                "isReverted": false,
                "order": 1,
                "to": "0xb4120fafc1e4e4eeacdd156d530ba57d8ae5378f",
                "token": "0xa787fbb8cf6e735493c237e2a095087fee91bbb3"
            },
            {
                "amount": "0.002687601902492905",
                "from": "0xb4120fafc1e4e4eeacdd156d530ba57d8ae5378f",
                "id": 2,
                "isERC1155": false,
                "isERC721": false,
                "isReverted": false,
                "order": 2,
                "to": "0x80a64c6d7f12c47b7c66c5b4e20e72bc1fcd5d9e",
                "token": "0xc02aaa39b223fe8d0a0e5c4f27ead9083c756cc2"
            },
            {
                "amount": "0.002687601902492905",
                "from": "0xc02aaa39b223fe8d0a0e5c4f27ead9083c756cc2",
                "id": 3,
                "isERC1155": false,
                "isERC721": false,
                "isReverted": false,
                "order": 3,
                "to": "0x80a64c6d7f12c47b7c66c5b4e20e72bc1fcd5d9e",
                "token": "0xeeeeeeeeeeeeeeeeeeeeeeeeeeeeeeeeeeeeeeee"
            },
            {
                "amount": "0.002687601902492905",
                "from": "0x80a64c6d7f12c47b7c66c5b4e20e72bc1fcd5d9e",
                "id": 4,
                "isERC1155": false,
                "isERC721": false,
                "isReverted": false,
                "order": 4,
                "to": "0xc02aaa39b223fe8d0a0e5c4f27ead9083c756cc2",
                "token": "0xc02aaa39b223fe8d0a0e5c4f27ead9083c756cc2"
            },
            {
                "amount": "0.002687601902492905",
                "from": "0x80a64c6d7f12c47b7c66c5b4e20e72bc1fcd5d9e",
                "id": 5,
                "isERC1155": false,
                "isERC721": false,
                "isReverted": false,
                "order": 5,
                "to": "0xccfeff7515cc47c5527a86315f9860e96c433c70",
                "token": "0xeeeeeeeeeeeeeeeeeeeeeeeeeeeeeeeeeeeeeeee"
            }
        ],
        "token_infos": [
            {
                "address": "0xeeeeeeeeeeeeeeeeeeeeeeeeeeeeeeeeeeeeeeee",
                "decimals": 18
            },
            {
                "address": "0xa787fbb8cf6e735493c237e2a095087fee91bbb3",
                "decimals": 0
            },
            {
                "address": "0xc02aaa39b223fe8d0a0e5c4f27ead9083c756cc2",
                "decimals": 18
            }
        ]
    },
    "address_label": {
        "labels": [
            {
                "address": "0x0000000000000000000000000000000000000002",
                "label": "Precompiled"
            },
            {
                "address": "0x0000000000000000000000000000000000000004",
                "label": "Precompiled"
            },
            {
                "address": "0x80a64c6d7f12c47b7c66c5b4e20e72bc1fcd5d9e",
                "label": "Maestro: Router 2"
            },
            {
                "address": "0xa787fbb8cf6e735493c237e2a095087fee91bbb3",
                "label": "BIDEN"
            },
            {
                "address": "0xb4120fafc1e4e4eeacdd156d530ba57d8ae5378f",
                "label": "UniswapV2Pair"
            },
            {
                "address": "0x0000000000000000000000000000000000000001",
                "label": "Precompiled"
            },
            {
                "address": "0x0000000000000000000000000000000000000003",
                "label": "Precompiled"
            },
            {
                "address": "0xeeeeeeeeeeeeeeeeeeeeeeeeeeeeeeeeeeeeeeee",
                "label": "Ether"
            },
            {
                "address": "0xc02aaa39b223fe8d0a0e5c4f27ead9083c756cc2",
                "label": "Wrapped Ether (WETH)"
            },
            {
                "address": "0x5c69bee701ef814a2b6a3edd4b1652cb9cc5aa6f",
                "label": "Uniswap V2: Factory Contract"
            }
        ]
    },
    "trace": {
        "accountLabels": null,
        "dataMap": {
            "-1": {
                "invocation": {
                    "address": "0xccfeff7515cc47c5527a86315f9860e96c433c70",
                    "callData": "",
                    "decodedMethod": null,
                    "errorInfo": "",
                    "fromAddress": "",
                    "gasUsed": 0,
                    "id": -1,
                    "methodDecoded": false,
                    "operation": "",
                    "output": "",
                    "revert": false,
                    "revertMessage": "",
                    "selector": "",
                    "status": false,
                    "value": ""
                },
                "nodeType": 0
            },
            "0": {
                "invocation": {
                    "address": "0x80a64c6d7f12c47b7c66c5b4e20e72bc1fcd5d9e",
                    "callData": "0x0000000000000000000000000000000000000000000000000075f09d648d87670000000000000000000000000000000000000000000000000007d45ffc7d929600000000000000000000000000000000000000000000000000000000000000c0000000000000000000000000ccfeff7515cc47c5527a86315f9860e96c433c700000000000000000000000000000000000000000000000000000000066a140f00000000000000000000000005c69bee701ef814a2b6a3edd4b1652cb9cc5aa6f0000000000000000000000000000000000000000000000000000000000000002000000000000000000000000a787fbb8cf6e735493c237e2a095087fee91bbb3000000000000000000000000c02aaa39b223fe8d0a0e5c4f27ead9083c756cc2",
                    "decodedMethod": {
                        "callParams": [
                            {
                                "name": "amountIn",
                                "type": "uint256",
                                "value": "33,197,131,062,675,303"
                            },
                            {
                                "name": "amountOutMin",
                                "type": "uint256",
                                "value": "2,203,833,560,044,182"
                            },
                            {
                                "name": "path",
                                "type": "address[]",
                                "value": [
                                    "0xa787fbb8cf6e735493c237e2a095087fee91bbb3",
                                    "0xc02aaa39b223fe8d0a0e5c4f27ead9083c756cc2"
                                ]
                            },
                            {
                                "name": "to",
                                "type": "address",
                                "value": "0xccfeff7515cc47c5527a86315f9860e96c433c70"
                            },
                            {
                                "name": "deadline",
                                "type": "uint256",
                                "value": "1,721,843,952"
                            },
                            {
                                "name": "referral",
                                "type": "address",
                                "value": "0x5c69bee701ef814a2b6a3edd4b1652cb9cc5aa6f"
                            }
                        ],
                        "constructorArguments": "",
                        "name": "swapExactTokensForETHSupportingFeeOnTransferTokens",
                        "returnParams": [],
                        "signature": "swapExactTokensForETHSupportingFeeOnTransferTokens(uint256,uint256,address[],address,uint256,address)"
                    },
                    "errorInfo": "",
                    "fromAddress": "0xccfeff7515cc47c5527a86315f9860e96c433c70",
                    "gasUsed": 149593,
                    "id": 0,
                    "methodDecoded": true,
                    "operation": "CALL",
                    "output": "",
                    "revert": false,
                    "revertMessage": "",
                    "selector": "0x3d0e3ec5",
                    "status": true,
                    "value": "0"
                },
                "nodeType": 0
            },
            "1": {
                "invocation": {
                    "address": "0x46affe1b4f3fc41581fd20fbaf055daeab80a8b5",
                    "callData": "0x0000000000000000000000000000000000000000000000000075f09d648d87670000000000000000000000000000000000000000000000000007d45ffc7d929600000000000000000000000000000000000000000000000000000000000000c0000000000000000000000000ccfeff7515cc47c5527a86315f9860e96c433c700000000000000000000000000000000000000000000000000000000066a140f00000000000000000000000005c69bee701ef814a2b6a3edd4b1652cb9cc5aa6f0000000000000000000000000000000000000000000000000000000000000002000000000000000000000000a787fbb8cf6e735493c237e2a095087fee91bbb3000000000000000000000000c02aaa39b223fe8d0a0e5c4f27ead9083c756cc2",
                    "decodedMethod": {
                        "callParams": [
                            {
                                "name": "amountIn",
                                "type": "uint256",
                                "value": "33,197,131,062,675,303"
                            },
                            {
                                "name": "amountOutMin",
                                "type": "uint256",
                                "value": "2,203,833,560,044,182"
                            },
                            {
                                "name": "path",
                                "type": "address[]",
                                "value": [
                                    "0xa787fbb8cf6e735493c237e2a095087fee91bbb3",
                                    "0xc02aaa39b223fe8d0a0e5c4f27ead9083c756cc2"
                                ]
                            },
                            {
                                "name": "to",
                                "type": "address",
                                "value": "0xccfeff7515cc47c5527a86315f9860e96c433c70"
                            },
                            {
                                "name": "deadline",
                                "type": "uint256",
                                "value": "1,721,843,952"
                            },
                            {
                                "name": "referral",
                                "type": "address",
                                "value": "0x5c69bee701ef814a2b6a3edd4b1652cb9cc5aa6f"
                            }
                        ],
                        "constructorArguments": "",
                        "name": "swapExactTokensForETHSupportingFeeOnTransferTokens",
                        "returnParams": [],
                        "signature": "swapExactTokensForETHSupportingFeeOnTransferTokens(uint256,uint256,address[],address,uint256,address)"
                    },
                    "errorInfo": "",
                    "fromAddress": "0x80a64c6d7f12c47b7c66c5b4e20e72bc1fcd5d9e",
                    "gasUsed": 148795,
                    "id": 1,
                    "methodDecoded": true,
                    "operation": "DELEGATECALL",
                    "output": "",
                    "revert": false,
                    "revertMessage": "",
                    "selector": "0x3d0e3ec5",
                    "status": true,
                    "value": "0"
                },
                "nodeType": 0
            },
            "10": {
                "invocation": {
                    "address": "0xa787fbb8cf6e735493c237e2a095087fee91bbb3",
                    "callData": "0x000000000000000000000000b4120fafc1e4e4eeacdd156d530ba57d8ae5378f",
                    "decodedMethod": {
                        "callParams": [
                            {
                                "name": "account",
                                "type": "address",
                                "value": "0xb4120fafc1e4e4eeacdd156d530ba57d8ae5378f"
                            }
                        ],
                        "constructorArguments": "",
                        "name": "balanceOf",
                        "returnParams": [
                            {
                                "decimalAvailable": true,
                                "name": "",
                                "type": "uint256",
                                "value": "118,456,571,875,959,696,371"
                            }
                        ],
                        "signature": "balanceOf(address)"
                    },
                    "errorInfo": "",
                    "fromAddress": "0xb4120fafc1e4e4eeacdd156d530ba57d8ae5378f",
                    "gasUsed": 617,
                    "id": 10,
                    "methodDecoded": true,
                    "operation": "STATICCALL",
                    "output": "0x0000000000000000000000000000000000000000000000066bea4882e91aebf3",
                    "revert": false,
                    "revertMessage": "",
                    "selector": "0x70a08231",
                    "status": true,
                    "value": "0"
                },
                "nodeType": 0
            },
            "11": {
                "invocation": {
                    "address": "0xc02aaa39b223fe8d0a0e5c4f27ead9083c756cc2",
                    "callData": "0x000000000000000000000000b4120fafc1e4e4eeacdd156d530ba57d8ae5378f",
                    "decodedMethod": {
                        "callParams": [
                            {
                                "name": "",
                                "type": "address",
                                "value": "0xb4120fafc1e4e4eeacdd156d530ba57d8ae5378f"
                            }
                        ],
                        "constructorArguments": "",
                        "name": "balanceOf",
                        "returnParams": [
                            {
                                "decimalAvailable": true,
                                "name": "",
                                "type": "uint256",
                                "value": "9,616,270,286,018,695,767"
                            }
                        ],
                        "signature": "balanceOf(address)"
                    },
                    "errorInfo": "",
                    "fromAddress": "0xb4120fafc1e4e4eeacdd156d530ba57d8ae5378f",
                    "gasUsed": 534,
                    "id": 11,
                    "methodDecoded": true,
                    "operation": "STATICCALL",
                    "output": "0x0000000000000000000000000000000000000000000000008573dae03e49d257",
                    "revert": false,
                    "revertMessage": "",
                    "selector": "0x70a08231",
                    "status": true,
                    "value": "0"
                },
                "nodeType": 0
            },
            "12": {
                "event": {
                    "contract": "0xb4120fafc1e4e4eeacdd156d530ba57d8ae5378f",
                    "decodedLog": {
                        "name": "Sync",
                        "params": [
                            {
                                "name": "reserve0",
                                "type": "uint112",
                                "value": "118,456,571,875,959,696,371"
                            },
                            {
                                "name": "reserve1",
                                "type": "uint112",
                                "value": "9,616,270,286,018,695,767"
                            }
                        ],
                        "signature": "Sync(uint112,uint112)"
                    },
                    "id": 12,
                    "logData": "0x0000000000000000000000000000000000000000000000066bea4882e91aebf30000000000000000000000000000000000000000000000008573dae03e49d257",
                    "logDecoded": true,
                    "operation": "EVENT",
                    "revert": false,
                    "status": true,
                    "topics": [
                        "0x1c411e9a96e071241c2f21f7726b17ae89e3cab4c78be50e062b03a9fffbbad1"
                    ]
                },
                "nodeType": 1
            },
            "13": {
                "event": {
                    "contract": "0xb4120fafc1e4e4eeacdd156d530ba57d8ae5378f",
                    "decodedLog": {
                        "name": "Swap",
                        "params": [
                            {
                                "name": "sender",
                                "type": "address",
                                "value": "0x80a64c6d7f12c47b7c66c5b4e20e72bc1fcd5d9e"
                            },
                            {
                                "name": "to",
                                "type": "address",
                                "value": "0x80a64c6d7f12c47b7c66c5b4e20e72bc1fcd5d9e"
                            },
                            {
                                "name": "amount0In",
                                "type": "uint256",
                                "value": "33,197,131,062,675,303"
                            },
                            {
                                "name": "amount1In",
                                "type": "uint256",
                                "value": "0"
                            },
                            {
                                "name": "amount0Out",
                                "type": "uint256",
                                "value": "0"
                            },
                            {
                                "name": "amount1Out",
                                "type": "uint256",
                                "value": "2,687,601,902,492,905"
                            }
                        ],
                        "signature": "Swap(address,uint256,uint256,uint256,uint256,address)"
                    },
                    "id": 13,
                    "logData": "0x0000000000000000000000000000000000000000000000000075f09d648d87670000000000000000000000000000000000000000000000000000000000000000000000000000000000000000000000000000000000000000000000000000000000000000000000000000000000000000000000000000000000098c5c14b21ce9",
                    "logDecoded": true,
                    "operation": "EVENT",
                    "revert": false,
                    "status": true,
                    "topics": [
                        "0xd78ad95fa46c994b6551d0da85fc275fe613ce37657fb8d5e3d130840159d822",
                        "0x00000000000000000000000080a64c6d7f12c47b7c66c5b4e20e72bc1fcd5d9e",
                        "0x00000000000000000000000080a64c6d7f12c47b7c66c5b4e20e72bc1fcd5d9e"
                    ]
                },
                "nodeType": 1
            },
            "14": {
                "invocation": {
                    "address": "0xc02aaa39b223fe8d0a0e5c4f27ead9083c756cc2",
                    "callData": "0x00000000000000000000000080a64c6d7f12c47b7c66c5b4e20e72bc1fcd5d9e",
                    "decodedMethod": {
                        "callParams": [
                            {
                                "name": "",
                                "type": "address",
                                "value": "0x80a64c6d7f12c47b7c66c5b4e20e72bc1fcd5d9e"
                            }
                        ],
                        "constructorArguments": "",
                        "name": "balanceOf",
                        "returnParams": [
                            {
                                "decimalAvailable": true,
                                "name": "",
                                "type": "uint256",
                                "value": "2,687,601,902,492,905"
                            }
                        ],
                        "signature": "balanceOf(address)"
                    },
                    "errorInfo": "",
                    "fromAddress": "0x80a64c6d7f12c47b7c66c5b4e20e72bc1fcd5d9e",
                    "gasUsed": 534,
                    "id": 14,
                    "methodDecoded": true,
                    "operation": "STATICCALL",
                    "output": "0x00000000000000000000000000000000000000000000000000098c5c14b21ce9",
                    "revert": false,
                    "revertMessage": "",
                    "selector": "0x70a08231",
                    "status": true,
                    "value": "0"
                },
                "nodeType": 0
            },
            "15": {
                "invocation": {
                    "address": "0xc02aaa39b223fe8d0a0e5c4f27ead9083c756cc2",
                    "callData": "0x00000000000000000000000000000000000000000000000000098c5c14b21ce9",
                    "decodedMethod": {
                        "callParams": [
                            {
                                "name": "wad",
                                "type": "uint256",
                                "value": "2,687,601,902,492,905"
                            }
                        ],
                        "constructorArguments": "",
                        "name": "withdraw",
                        "returnParams": [],
                        "signature": "withdraw(uint256)"
                    },
                    "errorInfo": "",
                    "fromAddress": "0x80a64c6d7f12c47b7c66c5b4e20e72bc1fcd5d9e",
                    "gasUsed": 9533,
                    "id": 15,
                    "methodDecoded": true,
                    "operation": "CALL",
                    "output": "",
                    "revert": false,
                    "revertMessage": "",
                    "selector": "0x2e1a7d4d",
                    "status": true,
                    "value": "0"
                },
                "nodeType": 0
            },
            "16": {
                "invocation": {
                    "address": "0x80a64c6d7f12c47b7c66c5b4e20e72bc1fcd5d9e",
                    "callData": "0x",
                    "decodedMethod": null,
                    "errorInfo": "",
                    "fromAddress": "0xc02aaa39b223fe8d0a0e5c4f27ead9083c756cc2",
                    "gasUsed": 393,
                    "id": 16,
                    "methodDecoded": false,
                    "operation": "CALL",
                    "output": "",
                    "revert": false,
                    "revertMessage": "",
                    "selector": "fallback",
                    "status": true,
                    "value": "0.002687601902492905"
                },
                "nodeType": 0
            },
            "17": {
                "invocation": {
                    "address": "0x46affe1b4f3fc41581fd20fbaf055daeab80a8b5",
                    "callData": "0x",
                    "decodedMethod": null,
                    "errorInfo": "",
                    "fromAddress": "0x80a64c6d7f12c47b7c66c5b4e20e72bc1fcd5d9e",
                    "gasUsed": 62,
                    "id": 17,
                    "methodDecoded": false,
                    "operation": "DELEGATECALL",
                    "output": "",
                    "revert": false,
                    "revertMessage": "",
                    "selector": "fallback",
                    "status": true,
                    "value": "0.002687601902492905"
                },
                "nodeType": 0
            },
            "18": {
                "event": {
                    "contract": "0xc02aaa39b223fe8d0a0e5c4f27ead9083c756cc2",
                    "decodedLog": {
                        "name": "Withdrawal",
                        "params": [
                            {
                                "name": "src",
                                "type": "address",
                                "value": "0x80a64c6d7f12c47b7c66c5b4e20e72bc1fcd5d9e"
                            },
                            {
                                "name": "wad",
                                "type": "uint256",
                                "value": "2,687,601,902,492,905"
                            }
                        ],
                        "signature": "Withdrawal(address,uint256)"
                    },
                    "id": 18,
                    "logData": "0x00000000000000000000000000000000000000000000000000098c5c14b21ce9",
                    "logDecoded": true,
                    "operation": "EVENT",
                    "revert": false,
                    "status": true,
                    "topics": [
                        "0x7fcf532c15f0a6db0bd6d0e038bea71d30d808c7d98cb3bf7268a95bf5081b65",
                        "0x00000000000000000000000080a64c6d7f12c47b7c66c5b4e20e72bc1fcd5d9e"
                    ]
                },
                "nodeType": 1
            },
            "19": {
                "invocation": {
                    "address": "0xccfeff7515cc47c5527a86315f9860e96c433c70",
                    "callData": "0x",
                    "decodedMethod": null,
                    "errorInfo": "",
                    "fromAddress": "0x80a64c6d7f12c47b7c66c5b4e20e72bc1fcd5d9e",
                    "gasUsed": 0,
                    "id": 19,
                    "methodDecoded": false,
                    "operation": "CALL",
                    "output": "",
                    "revert": false,
                    "revertMessage": "",
                    "selector": "fallback",
                    "status": true,
                    "value": "0.002687601902492905"
                },
                "nodeType": 0
            },
            "2": {
                "invocation": {
                    "address": "0xa787fbb8cf6e735493c237e2a095087fee91bbb3",
                    "callData": "0x000000000000000000000000ccfeff7515cc47c5527a86315f9860e96c433c70000000000000000000000000b4120fafc1e4e4eeacdd156d530ba57d8ae5378f0000000000000000000000000000000000000000000000000075f09d648d8767",
                    "decodedMethod": {
                        "callParams": [
                            {
                                "name": "sender",
                                "type": "address",
                                "value": "0xccfeff7515cc47c5527a86315f9860e96c433c70"
                            },
                            {
                                "name": "recipient",
                                "type": "address",
                                "value": "0xb4120fafc1e4e4eeacdd156d530ba57d8ae5378f"
                            },
                            {
                                "decimalAvailable": true,
                                "name": "amount",
                                "type": "uint256",
                                "value": "33,197,131,062,675,303"
                            }
                        ],
                        "constructorArguments": "",
                        "name": "transferFrom",
                        "returnParams": [
                            {
                                "name": "",
                                "type": "bool",
                                "value": true
                            }
                        ],
                        "signature": "transferFrom(address,address,uint256)"
                    },
                    "errorInfo": "",
                    "fromAddress": "0x80a64c6d7f12c47b7c66c5b4e20e72bc1fcd5d9e",
                    "gasUsed": 44588,
                    "id": 2,
                    "methodDecoded": true,
                    "operation": "CALL",
                    "output": "0x0000000000000000000000000000000000000000000000000000000000000001",
                    "revert": false,
                    "revertMessage": "",
                    "selector": "0x23b872dd",
                    "status": true,
                    "value": "0"
                },
                "nodeType": 0
            },
            "3": {
                "event": {
                    "contract": "0xa787fbb8cf6e735493c237e2a095087fee91bbb3",
                    "decodedLog": {
                        "name": "Transfer",
                        "params": [
                            {
                                "name": "from",
                                "type": "address",
                                "value": "0xccfeff7515cc47c5527a86315f9860e96c433c70"
                            },
                            {
                                "name": "to",
                                "type": "address",
                                "value": "0xb4120fafc1e4e4eeacdd156d530ba57d8ae5378f"
                            },
                            {
                                "decimalAvailable": true,
                                "name": "value",
                                "type": "uint256",
                                "value": "33,197,131,062,675,303"
                            }
                        ],
                        "signature": "Transfer(address,address,uint256)"
                    },
                    "id": 3,
                    "logData": "0x0000000000000000000000000000000000000000000000000075f09d648d8767",
                    "logDecoded": true,
                    "operation": "EVENT",
                    "revert": false,
                    "status": true,
                    "topics": [
                        "0xddf252ad1be2c89b69c2b068fc378daa952ba7f163c4a11628f55a4df523b3ef",
                        "0x000000000000000000000000ccfeff7515cc47c5527a86315f9860e96c433c70",
                        "0x000000000000000000000000b4120fafc1e4e4eeacdd156d530ba57d8ae5378f"
                    ]
                },
                "nodeType": 1
            },
            "4": {
                "event": {
                    "contract": "0xa787fbb8cf6e735493c237e2a095087fee91bbb3",
                    "decodedLog": {
                        "name": "Approval",
                        "params": [
                            {
                                "name": "owner",
                                "type": "address",
                                "value": "0xccfeff7515cc47c5527a86315f9860e96c433c70"
                            },
                            {
                                "name": "spender",
                                "type": "address",
                                "value": "0x80a64c6d7f12c47b7c66c5b4e20e72bc1fcd5d9e"
                            },
                            {
                                "decimalAvailable": true,
                                "name": "value",
                                "type": "uint256",
                                "value": "115,792,089,237,316,195,423,570,985,008,687,907,853,269,984,665,640,564,039,457,550,810,782,066,964,632"
                            }
                        ],
                        "signature": "Approval(address,address,uint256)"
                    },
                    "id": 4,
                    "logData": "0xffffffffffffffffffffffffffffffffffffffffffffffffff8a0f629b727898",
                    "logDecoded": true,
                    "operation": "EVENT",
                    "revert": false,
                    "status": true,
                    "topics": [
                        "0x8c5be1e5ebec7d5bd14f71427d1e84f3dd0314c0f7b2291e5b200ac8c7c3b925",
                        "0x000000000000000000000000ccfeff7515cc47c5527a86315f9860e96c433c70",
                        "0x00000000000000000000000080a64c6d7f12c47b7c66c5b4e20e72bc1fcd5d9e"
                    ]
                },
                "nodeType": 1
            },
            "5": {
                "invocation": {
                    "address": "0xb4120fafc1e4e4eeacdd156d530ba57d8ae5378f",
                    "callData": "0x",
                    "decodedMethod": {
                        "callParams": [],
                        "constructorArguments": "",
                        "name": "getReserves",
                        "returnParams": [
                            {
                                "name": "_reserve0",
                                "type": "uint112",
                                "value": "118,423,374,744,897,021,068"
                            },
                            {
                                "name": "_reserve1",
                                "type": "uint112",
                                "value": "9,618,957,887,921,188,672"
                            },
                            {
                                "name": "_blockTimestampLast",
                                "type": "uint32",
                                "value": "1,721,842,211"
                            }
                        ],
                        "signature": "getReserves()"
                    },
                    "errorInfo": "",
                    "fromAddress": "0x80a64c6d7f12c47b7c66c5b4e20e72bc1fcd5d9e",
                    "gasUsed": 2504,
                    "id": 5,
                    "methodDecoded": true,
                    "operation": "STATICCALL",
                    "output": "0x0000000000000000000000000000000000000000000000066b7457e5848d648c000000000000000000000000000000000000000000000000857d673c52fbef400000000000000000000000000000000000000000000000000000000066a13a23",
                    "revert": false,
                    "revertMessage": "",
                    "selector": "0x0902f1ac",
                    "status": true,
                    "value": "0"
                },
                "nodeType": 0
            },
            "6": {
                "invocation": {
                    "address": "0xa787fbb8cf6e735493c237e2a095087fee91bbb3",
                    "callData": "0x000000000000000000000000b4120fafc1e4e4eeacdd156d530ba57d8ae5378f",
                    "decodedMethod": {
                        "callParams": [
                            {
                                "name": "account",
                                "type": "address",
                                "value": "0xb4120fafc1e4e4eeacdd156d530ba57d8ae5378f"
                            }
                        ],
                        "constructorArguments": "",
                        "name": "balanceOf",
                        "returnParams": [
                            {
                                "decimalAvailable": true,
                                "name": "",
                                "type": "uint256",
                                "value": "118,456,571,875,959,696,371"
                            }
                        ],
                        "signature": "balanceOf(address)"
                    },
                    "errorInfo": "",
                    "fromAddress": "0x80a64c6d7f12c47b7c66c5b4e20e72bc1fcd5d9e",
                    "gasUsed": 617,
                    "id": 6,
                    "methodDecoded": true,
                    "operation": "STATICCALL",
                    "output": "0x0000000000000000000000000000000000000000000000066bea4882e91aebf3",
                    "revert": false,
                    "revertMessage": "",
                    "selector": "0x70a08231",
                    "status": true,
                    "value": "0"
                },
                "nodeType": 0
            },
            "7": {
                "invocation": {
                    "address": "0xb4120fafc1e4e4eeacdd156d530ba57d8ae5378f",
                    "callData": "0x000000000000000000000000000000000000000000000000000000000000000000000000000000000000000000000000000000000000000000098c5c14b21ce900000000000000000000000080a64c6d7f12c47b7c66c5b4e20e72bc1fcd5d9e00000000000000000000000000000000000000000000000000000000000000800000000000000000000000000000000000000000000000000000000000000000",
                    "decodedMethod": {
                        "callParams": [
                            {
                                "name": "amount0Out",
                                "type": "uint256",
                                "value": "0"
                            },
                            {
                                "name": "amount1Out",
                                "type": "uint256",
                                "value": "2,687,601,902,492,905"
                            },
                            {
                                "name": "to",
                                "type": "address",
                                "value": "0x80a64c6d7f12c47b7c66c5b4e20e72bc1fcd5d9e"
                            },
                            {
                                "name": "data",
                                "type": "bytes",
                                "value": "0x"
                            }
                        ],
                        "constructorArguments": "",
                        "name": "swap",
                        "returnParams": [],
                        "signature": "swap(uint256,uint256,address,bytes)"
                    },
                    "errorInfo": "",
                    "fromAddress": "0x80a64c6d7f12c47b7c66c5b4e20e72bc1fcd5d9e",
                    "gasUsed": 64936,
                    "id": 7,
                    "methodDecoded": true,
                    "operation": "CALL",
                    "output": "",
                    "revert": false,
                    "revertMessage": "",
                    "selector": "0x022c0d9f",
                    "status": true,
                    "value": "0"
                },
                "nodeType": 0
            },
            "8": {
                "invocation": {
                    "address": "0xc02aaa39b223fe8d0a0e5c4f27ead9083c756cc2",
                    "callData": "0x00000000000000000000000080a64c6d7f12c47b7c66c5b4e20e72bc1fcd5d9e00000000000000000000000000000000000000000000000000098c5c14b21ce9",
                    "decodedMethod": {
                        "callParams": [
                            {
                                "name": "dst",
                                "type": "address",
                                "value": "0x80a64c6d7f12c47b7c66c5b4e20e72bc1fcd5d9e"
                            },
                            {
                                "decimalAvailable": true,
                                "name": "wad",
                                "type": "uint256",
                                "value": "2,687,601,902,492,905"
                            }
                        ],
                        "constructorArguments": "",
                        "name": "transfer",
                        "returnParams": [
                            {
                                "name": "",
                                "type": "bool",
                                "value": true
                            }
                        ],
                        "signature": "transfer(address,uint256)"
                    },
                    "errorInfo": "",
                    "fromAddress": "0xb4120fafc1e4e4eeacdd156d530ba57d8ae5378f",
                    "gasUsed": 29962,
                    "id": 8,
                    "methodDecoded": true,
                    "operation": "CALL",
                    "output": "0x0000000000000000000000000000000000000000000000000000000000000001",
                    "revert": false,
                    "revertMessage": "",
                    "selector": "0xa9059cbb",
                    "status": true,
                    "value": "0"
                },
                "nodeType": 0
            },
            "9": {
                "event": {
                    "contract": "0xc02aaa39b223fe8d0a0e5c4f27ead9083c756cc2",
                    "decodedLog": {
                        "name": "Transfer",
                        "params": [
                            {
                                "name": "src",
                                "type": "address",
                                "value": "0xb4120fafc1e4e4eeacdd156d530ba57d8ae5378f"
                            },
                            {
                                "name": "dst",
                                "type": "address",
                                "value": "0x80a64c6d7f12c47b7c66c5b4e20e72bc1fcd5d9e"
                            },
                            {
                                "decimalAvailable": true,
                                "name": "wad",
                                "type": "uint256",
                                "value": "2,687,601,902,492,905"
                            }
                        ],
                        "signature": "Transfer(address,address,uint256)"
                    },
                    "id": 9,
                    "logData": "0x00000000000000000000000000000000000000000000000000098c5c14b21ce9",
                    "logDecoded": true,
                    "operation": "EVENT",
                    "revert": false,
                    "status": true,
                    "topics": [
                        "0xddf252ad1be2c89b69c2b068fc378daa952ba7f163c4a11628f55a4df523b3ef",
                        "0x000000000000000000000000b4120fafc1e4e4eeacdd156d530ba57d8ae5378f",
                        "0x00000000000000000000000080a64c6d7f12c47b7c66c5b4e20e72bc1fcd5d9e"
                    ]
                },
                "nodeType": 1
            }
        },
        "gasFlame": [
            {
                "children": [
                    {
                        "children": [
                            {
                                "children": [],
                                "depth": 0,
                                "name": "Initial Gas",
                                "value": 23416
                            },
                            {
                                "children": [
                                    {
                                        "children": [
                                            {
                                                "children": [],
                                                "depth": 2,
                                                "name": "transferFrom",
                                                "value": 44588
                                            },
                                            {
                                                "children": [],
                                                "depth": 2,
                                                "name": "getReserves",
                                                "value": 2504
                                            },
                                            {
                                                "children": [],
                                                "depth": 2,
                                                "name": "balanceOf",
                                                "value": 617
                                            },
                                            {
                                                "children": [
                                                    {
                                                        "children": [],
                                                        "depth": 3,
                                                        "name": "transfer",
                                                        "value": 29962
                                                    },
                                                    {
                                                        "children": [],
                                                        "depth": 3,
                                                        "name": "balanceOf",
                                                        "value": 617
                                                    },
                                                    {
                                                        "children": [],
                                                        "depth": 3,
                                                        "name": "balanceOf",
                                                        "value": 534
                                                    }
                                                ],
                                                "depth": 2,
                                                "name": "swap",
                                                "value": 64936
                                            },
                                            {
                                                "children": [],
                                                "depth": 2,
                                                "name": "balanceOf",
                                                "value": 534
                                            },
                                            {
                                                "children": [
                                                    {
                                                        "children": [
                                                            {
                                                                "children": [],
                                                                "depth": 4,
                                                                "name": "fallback",
                                                                "value": 62
                                                            }
                                                        ],
                                                        "depth": 3,
                                                        "name": "fallback",
                                                        "value": 393
                                                    }
                                                ],
                                                "depth": 2,
                                                "name": "withdraw",
                                                "value": 9533
                                            },
                                            {
                                                "children": [],
                                                "depth": 2,
                                                "name": "fallback",
                                                "value": 0
                                            }
                                        ],
                                        "depth": 1,
                                        "name": "swapExactTokensForETHSupportingFeeOnTransferTokens",
                                        "value": 148795
                                    }
                                ],
                                "depth": 0,
                                "name": "Executed Gas",
                                "value": 153677
                            }
                        ],
                        "depth": -1,
                        "name": "Actual Gas Used",
                        "value": 149593
                    },
                    {
                        "children": [],
                        "depth": -1,
                        "name": "Refunded Gas",
                        "value": 27500
                    }
                ],
                "depth": -2,
                "name": "Total Gas",
                "value": 177093
            }
        ],
        "isConfirmed": true,
        "mainTrace": [
            {
                "children": [
                    {
                        "children": [
                            {
                                "children": [
                                    {
                                        "children": [
                                            {
                                                "children": [],
                                                "depth": 3,
                                                "id": 3,
                                                "order": 3
                                            },
                                            {
                                                "children": [],
                                                "depth": 3,
                                                "id": 4,
                                                "order": 4
                                            }
                                        ],
                                        "depth": 2,
                                        "id": 2,
                                        "order": 2
                                    },
                                    {
                                        "children": [],
                                        "depth": 2,
                                        "id": 5,
                                        "order": 5
                                    },
                                    {
                                        "children": [],
                                        "depth": 2,
                                        "id": 6,
                                        "order": 6
                                    },
                                    {
                                        "children": [
                                            {
                                                "children": [
                                                    {
                                                        "children": [],
                                                        "depth": 4,
                                                        "id": 9,
                                                        "order": 9
                                                    }
                                                ],
                                                "depth": 3,
                                                "id": 8,
                                                "order": 8
                                            },
                                            {
                                                "children": [],
                                                "depth": 3,
                                                "id": 10,
                                                "order": 10
                                            },
                                            {
                                                "children": [],
                                                "depth": 3,
                                                "id": 11,
                                                "order": 11
                                            },
                                            {
                                                "children": [],
                                                "depth": 3,
                                                "id": 12,
                                                "order": 12
                                            },
                                            {
                                                "children": [],
                                                "depth": 3,
                                                "id": 13,
                                                "order": 13
                                            }
                                        ],
                                        "depth": 2,
                                        "id": 7,
                                        "order": 7
                                    },
                                    {
                                        "children": [],
                                        "depth": 2,
                                        "id": 14,
                                        "order": 14
                                    },
                                    {
                                        "children": [
                                            {
                                                "children": [
                                                    {
                                                        "children": [],
                                                        "depth": 4,
                                                        "id": 17,
                                                        "order": 17
                                                    }
                                                ],
                                                "depth": 3,
                                                "id": 16,
                                                "order": 16
                                            },
                                            {
                                                "children": [],
                                                "depth": 3,
                                                "id": 18,
                                                "order": 18
                                            }
                                        ],
                                        "depth": 2,
                                        "id": 15,
                                        "order": 15
                                    },
                                    {
                                        "children": [],
                                        "depth": 2,
                                        "id": 19,
                                        "order": 19
                                    }
                                ],
                                "depth": 1,
                                "id": 1,
                                "order": 1
                            }
                        ],
                        "depth": 0,
                        "id": 0,
                        "order": 0
                    }
                ],
                "depth": -1,
                "id": -1,
                "order": -1
            }
        ],
        "mainTraceNodeCount": 20,
        "parentIdMap": {
            "0": -1,
            "1": 0,
            "10": 7,
            "11": 7,
            "12": 7,
            "13": 7,
            "14": 1,
            "15": 1,
            "16": 15,
            "17": 16,
            "18": 15,
            "19": 1,
            "2": 1,
            "3": 2,
            "4": 2,
            "5": 1,
            "6": 1,
            "7": 1,
            "8": 7,
            "9": 8
        },
        "tidyTrace": [
            {
                "children": [
                    {
                        "children": [
                            {
                                "children": [
                                    {
                                        "children": [
                                            {
                                                "children": [],
                                                "depth": 3,
                                                "id": 3,
                                                "order": 3
                                            },
                                            {
                                                "children": [],
                                                "depth": 3,
                                                "id": 4,
                                                "order": 4
                                            }
                                        ],
                                        "depth": 2,
                                        "id": 2,
                                        "order": 2
                                    },
                                    {
                                        "children": [
                                            {
                                                "children": [
                                                    {
                                                        "children": [],
                                                        "depth": 4,
                                                        "id": 9,
                                                        "order": 9
                                                    }
                                                ],
                                                "depth": 3,
                                                "id": 8,
                                                "order": 8
                                            },
                                            {
                                                "children": [],
                                                "depth": 3,
                                                "id": 12,
                                                "order": 12
                                            },
                                            {
                                                "children": [],
                                                "depth": 3,
                                                "id": 13,
                                                "order": 13
                                            }
                                        ],
                                        "depth": 2,
                                        "id": 7,
                                        "order": 7
                                    },
                                    {
                                        "children": [
                                            {
                                                "children": [
                                                    {
                                                        "children": [],
                                                        "depth": 4,
                                                        "id": 17,
                                                        "order": 17
                                                    }
                                                ],
                                                "depth": 3,
                                                "id": 16,
                                                "order": 16
                                            },
                                            {
                                                "children": [],
                                                "depth": 3,
                                                "id": 18,
                                                "order": 18
                                            }
                                        ],
                                        "depth": 2,
                                        "id": 15,
                                        "order": 15
                                    },
                                    {
                                        "children": [],
                                        "depth": 2,
                                        "id": 19,
                                        "order": 19
                                    }
                                ],
                                "depth": 1,
                                "id": 1,
                                "order": 1
                            }
                        ],
                        "depth": 0,
                        "id": 0,
                        "order": 0
                    }
                ],
                "depth": -1,
                "id": -1,
                "order": -1
            }
        ],
        "tidyTraceNodeCount": 15
    },
    "state_change": {
        "stateChanges": [
            {
                "address": "0xa787fbb8cf6e735493c237e2a095087fee91bbb3",
                "erc": "ERC-20",
                "slots": [
                    {
                        "current": "0x0000000000000000000000000000000000000000000000000000000000000000",
                        "key": "0x8086aefebb36ac21329afaae0d2aa3d879ca2aad9c73965f56f5ceac121a27bc",
                        "prev": "0x0000000000000000000000000000000000000000000000000075f09d648d8767"
                    },
                    {
                        "current": "0x0000000000000000000000000000000000000000000000066bea4882e91aebf3",
                        "key": "0xe53f891c9661efe6c00e4dc26920334e7374a5b6c9630837e79730fc6c9a8e91",
                        "prev": "0x0000000000000000000000000000000000000000000000066b7457e5848d648c"
                    },
                    {
                        "current": "0xffffffffffffffffffffffffffffffffffffffffffffffffff8a0f629b727898",
                        "key": "0x829f20bd67cf7510ac47995e42fdc0516d07ba6a8ba0c0fb3e9290c37ccac725",
                        "prev": "0xffffffffffffffffffffffffffffffffffffffffffffffffffffffffffffffff"
                    }
                ],
                "storageVariables": [
                    {
                        "name": "_balances",
                        "type": "mapping(address => uint256)",
                        "value": {
                            "pairs": [
                                {
                                    "key": "0xb4120fafc1e4e4eeacdd156d530ba57d8ae5378f",
                                    "value": {
                                        "current": "118456571875959696371",
                                        "prev": "118423374744897021068",
                                        "typeTag": 1
                                    }
                                },
                                {
                                    "key": "0xccfeff7515cc47c5527a86315f9860e96c433c70",
                                    "value": {
                                        "current": "0",
                                        "prev": "33197131062675303",
                                        "typeTag": 1
                                    }
                                }
                            ],
                            "typeTag": 4
                        }
                    },
                    {
                        "name": "_allowances",
                        "type": "mapping(address => mapping(address => uint256))",
                        "value": {
                            "pairs": [
                                {
                                    "key": "0xccfeff7515cc47c5527a86315f9860e96c433c70",
                                    "value": {
                                        "pairs": [
                                            {
                                                "key": "0x80a64c6d7f12c47b7c66c5b4e20e72bc1fcd5d9e",
                                                "value": {
                                                    "current": "115792089237316195423570985008687907853269984665640564039457550810782066964632",
                                                    "prev": "115792089237316195423570985008687907853269984665640564039457584007913129639935",
                                                    "typeTag": 1
                                                }
                                            }
                                        ],
                                        "typeTag": 4
                                    }
                                }
                            ],
                            "typeTag": 4
                        }
                    }
                ]
            },
            {
                "address": "0xb4120fafc1e4e4eeacdd156d530ba57d8ae5378f",
                "erc": "ERC-20",
                "slots": [
                    {
                        "current": "0x000000000000000000000000000000006c5ce0c4c115f9b979f83db3a4e91158",
                        "key": "0x0000000000000000000000000000000000000000000000000000000000000009",
                        "prev": "0x000000000000000000000000000000006bcf8bd502b698c995f5b3100e6eaeb8"
                    },
                    {
                        "current": "0x0000000000000000000000000000001355730ac65a0f6407226e7aa4863964f8",
                        "key": "0x000000000000000000000000000000000000000000000000000000000000000a",
                        "prev": "0x0000000000000000000000000000001301c51be8d3a16f6baf7743ac7b2e57f8"
                    },
                    {
                        "current": "0x66a140ef0000000000008573dae03e49d2570000000000066bea4882e91aebf3",
                        "key": "0x0000000000000000000000000000000000000000000000000000000000000008",
                        "prev": "0x66a13a23000000000000857d673c52fbef400000000000066b7457e5848d648c"
                    }
                ],
                "storageVariables": [
                    {
                        "name": "price0CumulativeLast",
                        "type": "uint256",
                        "value": {
                            "current": "144038873703984362813843336860533330264",
                            "prev": "143305037130075946877425251694362406584",
                            "typeTag": 1
                        }
                    },
                    {
                        "name": "price1CumulativeLast",
                        "type": "uint256",
                        "value": {
                            "current": "6578946683817424631658737057794612618488",
                            "prev": "6467717648046236584922656252421257189368",
                            "typeTag": 1
                        }
                    },
                    {
                        "name": "reserve0",
                        "type": "uint112",
                        "value": {
                            "current": "118456571875959696371",
                            "prev": "118423374744897021068",
                            "typeTag": 1
                        }
                    },
                    {
                        "name": "reserve1",
                        "type": "uint112",
                        "value": {
                            "current": "9616270286018695767",
                            "prev": "9618957887921188672",
                            "typeTag": 1
                        }
                    },
                    {
                        "name": "blockTimestampLast",
                        "type": "uint32",
                        "value": {
                            "current": "1721843951",
                            "prev": "1721842211",
                            "typeTag": 1
                        }
                    }
                ]
            },
            {
                "address": "0xc02aaa39b223fe8d0a0e5c4f27ead9083c756cc2",
                "erc": "ERC-20",
                "slots": [
                    {
                        "current": "0x0000000000000000000000000000000000000000000000008573dae03e49d257",
                        "key": "0x325ec015ea91d7c2950ed939c17eb02524b0a48dc3831047f71cc59ea567a558",
                        "prev": "0x000000000000000000000000000000000000000000000000857d673c52fbef40"
                    }
                ],
                "storageVariables": [
                    {
                        "name": "balanceOf",
                        "type": "mapping(address => uint256)",
                        "value": {
                            "pairs": [
                                {
                                    "key": "0xb4120fafc1e4e4eeacdd156d530ba57d8ae5378f",
                                    "value": {
                                        "current": "9616270286018695767",
                                        "prev": "9618957887921188672",
                                        "typeTag": 1
                                    }
                                }
                            ],
                            "typeTag": 4
                        }
                    }
                ]
            }
        ]
    }
}