{
    "balance_change": {
        "balanceChanges": []
    },
    "profile": {
        "basic_info": {
            "baseFee": "",
            "blockNumber": 6635079,
            "callData": "0xf907fc5b000000000000000000000000c1d8614e5f143ffb42dd8794478dffa4241451f10000000000000000000000000000000000000000000000000000000000000000",
            "debugEnable": true,
            "errorInfo": "",
            "eventCount": 0,
            "feeRecipient": "0x2a65aca4d5fc5b5c859090a6c34d164135398226",
            "formatValue": "0",
            "gasLimit": 2100000,
            "gasPrice": "9",
            "gasUsed": 239712,
            "intTxnCount": 2,
            "internalRevert": false,
            "internalRevertMessage": "",
            "isContractCreation": false,
            "isFlashloan": false,
            "maxFee": "",
            "nonce": 50,
            "overwritedBlockNumber": -1,
            "priorityFee": "",
            "receiver": "0x993e6d6c557ca24a00da507f56bda599a9886a44",
            "revertMessage": "",
            "sender": "0xa1fe60854b11bd5632e94f1bca20a468a6bf1b53",
            "simulationEnable": true,
            "sourceTxnHash": "0x7a7ed6eb325de24d998d38daa88064cc57cc3326b3b21b4d61226f077f9c1fbc",
            "status": true,
            "timestamp": "2018-11-03T09:49:55Z",
            "transactionFee": "0.002157408",
            "txnHash": "0x7a7ed6eb325de24d998d38daa88064cc57cc3326b3b21b4d61226f077f9c1fbc",
            "txnIndex": 97,
            "type": 0,
            "value": "0"
        },
        "fund_flow": [],
        "token_infos": [
            {
                "address": "0xc02aaa39b223fe8d0a0e5c4f27ead9083c756cc2",
                "decimals": 18
            },
            {
                "address": "0xeeeeeeeeeeeeeeeeeeeeeeeeeeeeeeeeeeeeeeee",
                "decimals": 18
            }
        ]
    },
    "address_label": {
        "labels": [
            {
                "address": "0x0000000000000000000000000000000000000001",
                "label": "Precompiled"
            },
            {
                "address": "0x0000000000000000000000000000000000000002",
                "label": "Precompiled"
            },
            {
                "address": "0x0000000000000000000000000000000000000003",
                "label": "Precompiled"
            },
            {
                "address": "0x0000000000000000000000000000000000000004",
                "label": "Precompiled"
            },
            {
                "address": "0xeeeeeeeeeeeeeeeeeeeeeeeeeeeeeeeeeeeeeeee",
                "label": "Ether"
            },
            {
                "address": "0xab4e1802c61e12fd7b10a69a226f5d727c76a8aa",
                "label": "ODF"
            }
        ]
    },
    "trace": {
        "accountLabels": null,
        "dataMap": {
            "-1": {
                "invocation": {
                    "address": "0xa1fe60854b11bd5632e94f1bca20a468a6bf1b53",
                    "callData": "",
                    "decodedMethod": null,
                    "errorInfo": "",
                    "fromAddress": "",
                    "gasUsed": 0,
                    "id": -1,
                    "methodDecoded": false,
                    "operation": "",
                    "output": "",
                    "revert": false,
                    "revertMessage": "",
                    "selector": "",
                    "status": false,
                    "value": ""
                },
                "nodeType": 0
            },
            "0": {
                "invocation": {
                    "address": "0x993e6d6c557ca24a00da507f56bda599a9886a44",
                    "callData": "0x000000000000000000000000c1d8614e5f143ffb42dd8794478dffa4241451f10000000000000000000000000000000000000000000000000000000000000000",
                    "decodedMethod": null,
                    "errorInfo": "",
                    "fromAddress": "0xa1fe60854b11bd5632e94f1bca20a468a6bf1b53",
                    "gasUsed": 239712,
                    "id": 0,
                    "methodDecoded": false,
                    "operation": "CALL",
                    "output": "",
                    "revert": false,
                    "revertMessage": "",
                    "selector": "0xf907fc5b",
                    "status": true,
                    "value": "0"
                },
                "nodeType": 0
            },
            "1": {
                "invocation": {
                    "address": "0xab4e1802c61e12fd7b10a69a226f5d727c76a8aa",
                    "callData": "0x000000000000000000000000a1fe60854b11bd5632e94f1bca20a468a6bf1b53",
                    "decodedMethod": {
                        "callParams": [
                            {
                                "name": "account",
                                "type": "address",
                                "value": "0xa1fe60854b11bd5632e94f1bca20a468a6bf1b53"
                            }
                        ],
                        "constructorArguments": "",
                        "name": "balanceOf",
                        "returnParams": [
                            {
                                "decimalAvailable": true,
                                "name": "",
                                "type": "uint256",
                                "value": "220,000,000,000,000,000,000"
                            }
                        ],
                        "signature": "balanceOf(address)"
                    },
                    "errorInfo": "",
                    "fromAddress": "0x993e6d6c557ca24a00da507f56bda599a9886a44",
                    "gasUsed": 664,
                    "id": 1,
                    "methodDecoded": true,
                    "operation": "CALL",
                    "output": "0x00000000000000000000000000000000000000000000000bed1d0263d9f00000",
                    "revert": false,
                    "revertMessage": "",
                    "selector": "0x70a08231",
                    "status": true,
                    "value": "0"
                },
                "nodeType": 0
            },
            "2": {
                "invocation": {
                    "address": "0xab4e1802c61e12fd7b10a69a226f5d727c76a8aa",
                    "callData": "0x000000000000000000000000993e6d6c557ca24a00da507f56bda599a9886a44",
                    "decodedMethod": {
                        "callParams": [
                            {
                                "name": "account",
                                "type": "address",
                                "value": "0x993e6d6c557ca24a00da507f56bda599a9886a44"
                            }
                        ],
                        "constructorArguments": "",
                        "name": "balanceOf",
                        "returnParams": [
                            {
                                "decimalAvailable": true,
                                "name": "",
                                "type": "uint256",
                                "value": "689,176,000,000,000,000,000,000"
                            }
                        ],
                        "signature": "balanceOf(address)"
                    },
                    "errorInfo": "",
                    "fromAddress": "0x993e6d6c557ca24a00da507f56bda599a9886a44",
                    "gasUsed": 664,
                    "id": 2,
                    "methodDecoded": true,
                    "operation": "CALL",
                    "output": "0x0000000000000000000000000000000000000000000091f04e4a4d0f41600000",
                    "revert": false,
                    "revertMessage": "",
                    "selector": "0x70a08231",
                    "status": true,
                    "value": "0"
                },
                "nodeType": 0
            }
        },
        "gasFlame": [
            {
                "children": [
                    {
                        "children": [
                            {
                                "children": [],
                                "depth": 0,
                                "name": "Initial Gas",
                                "value": 22808
                            },
                            {
                                "children": [
                                    {
                                        "children": [],
                                        "depth": 1,
                                        "name": "balanceOf",
                                        "value": 664
                                    },
                                    {
                                        "children": [],
                                        "depth": 1,
                                        "name": "balanceOf",
                                        "value": 664
                                    }
                                ],
                                "depth": 0,
                                "name": "Executed Gas",
                                "value": 231904
                            }
                        ],
                        "depth": -1,
                        "name": "Actual Gas Used",
                        "value": 239712
                    },
                    {
                        "children": [],
                        "depth": -1,
                        "name": "Refunded Gas",
                        "value": 15000
                    }
                ],
                "depth": -2,
                "name": "Total Gas",
                "value": 254712
            }
        ],
        "isConfirmed": true,
        "mainTrace": [
            {
                "children": [
                    {
                        "children": [
                            {
                                "children": [],
                                "depth": 1,
                                "id": 1,
                                "order": 1
                            },
                            {
                                "children": [],
                                "depth": 1,
                                "id": 2,
                                "order": 2
                            }
                        ],
                        "depth": 0,
                        "id": 0,
                        "order": 0
                    }
                ],
                "depth": -1,
                "id": -1,
                "order": -1
            }
        ],
        "mainTraceNodeCount": 3,
        "parentIdMap": {
            "0": -1,
            "1": 0,
            "2": 0
        },
        "tidyTrace": [
            {
                "children": [
                    {
                        "children": [
                            {
                                "children": [],
                                "depth": 1,
                                "id": 1,
                                "order": 1
                            },
                            {
                                "children": [],
                                "depth": 1,
                                "id": 2,
                                "order": 2
                            }
                        ],
                        "depth": 0,
                        "id": 0,
                        "order": 0
                    }
                ],
                "depth": -1,
                "id": -1,
                "order": -1
            }
        ],
        "tidyTraceNodeCount": 3
    },
    "state_change": {
        "stateChanges": [
            {
                "address": "0x993e6d6c557ca24a00da507f56bda599a9886a44",
                "erc": "",
                "slots": [
                    {
                        "current": "0x000000000000000000000000000000000000000000000000000000000000000b",
                        "key": "0xbec72e02d5eac4a85e24991709ba5181f3eba2a37b6735b9df77757022dc9a21",
                        "prev": "0x000000000000000000000000000000000000000000000000000000000000000a"
                    },
                    {
                        "current": "0x000000000000000000000000000000000000000000000027e60d44813f800000",
                        "key": "0x87718b33f1656f227dcee6304f46545136b1728dea6fd82c12b0176d2cc0b268",
                        "prev": "0x00000000000000000000000000000000000000000000002792c8fc4b53280000"
                    },
                    {
                        "current": "0x00000000000000000000000028d2bb8acbee42ebb4a24bbc6a207fa41e89e59e",
                        "key": "0x0000000000000000000000000000000000000000000000000000000000000004",
                        "prev": "0x000000000000000000000000b47ca6cec583a9c9798dd79f4dad52a208b8bd4c"
                    },
                    {
                        "current": "0x000000000000000000000000000000000000000000000000000000000000552e",
                        "key": "0xa2aee298a3404f76fc1880b57f25b755eeed3c91bec40b002998663efabe2b36",
                        "prev": "0x0000000000000000000000000000000000000000000000000000000000000000"
                    },
                    {
                        "current": "0x000000000000000000000000000000000000000000005c5a1cd199359f600000",
                        "key": "0x0000000000000000000000000000000000000000000000000000000000000035",
                        "prev": "0x000000000000000000000000000000000000000000005c590743532c8b900000"
                    },
                    {
                        "current": "0x000000000000000000000000657443de37e5a6dd16875772ee0d55ea12986d39",
                        "key": "0x0000000000000000000000000000000000000000000000000000000000000007",
                        "prev": "0x00000000000000000000000042f201f6c22893834efae14a02a738462a215611"
                    },
                    {
                        "current": "0x0000000000000000000000004773260f52b17852e7693941670672f32bcace73",
                        "key": "0x0000000000000000000000000000000000000000000000000000000000000009",
                        "prev": "0x0000000000000000000000007881a327831c70bf45523ef718b4b4ad2f06ddd7"
                    },
                    {
                        "current": "0x00000000000000000000000000000000000000000000000ad78ebc5ac6200000",
                        "key": "0xe6bd3a51901d3e780bba1de25e410926691a9d8d4cec8b3120c123b38975ef9e",
                        "prev": "0x0000000000000000000000000000000000000000000000022b1c8c1227a00000"
                    },
                    {
                        "current": "0x000000000000000000000000000000000000000000000235bc97f3b3c8900000",
                        "key": "0xfa6056ac1d5a27691a57a646443f8ef3d1130f1d5253fcde66dd3d785d30d041",
                        "prev": "0x000000000000000000000000000000000000000000000235851518e52b000000"
                    },
                    {
                        "current": "0x0000000000000000000000000000000000000000000000000000000000000401",
                        "key": "0xb226e27b1b99da2ed986c3fb9ab1c4b6f38d50f96b46af9cd1473349f3114c36",
                        "prev": "0x0000000000000000000000000000000000000000000000000000000000000000"
                    },
                    {
                        "current": "0x0000000000000000000000000000000000000000000000273f84b41566d00000",
                        "key": "0x8533dacef74c11b5f78273cb7d8cd4579fe62e3081ab2d26d271c3af6474bca8",
                        "prev": "0x000000000000000000000000000000000000000000000026b4bd9110dce80000"
                    },
                    {
                        "current": "0x000000000000000000000000000000000000000000039b85202ffc1839c00000",
                        "key": "0x0000000000000000000000000000000000000000000000000000000000000034",
                        "prev": "0x000000000000000000000000000000000000000000039b7a48a13fbd73a00000"
                    },
                    {
                        "current": "0x000000000000000000000000000000000000000000000000000000000000552e",
                        "key": "0x0000000000000000000000000000000000000000000000000000000000000037",
                        "prev": "0x000000000000000000000000000000000000000000000000000000000000552d"
                    },
                    {
                        "current": "0x0000000000000000000000007881a327831c70bf45523ef718b4b4ad2f06ddd7",
                        "key": "0x0000000000000000000000000000000000000000000000000000000000000008",
                        "prev": "0x000000000000000000000000657443de37e5a6dd16875772ee0d55ea12986d39"
                    },
                    {
                        "current": "0x00000000000000000000000042f201f6c22893834efae14a02a738462a215611",
                        "key": "0x0000000000000000000000000000000000000000000000000000000000000005",
                        "prev": "0x00000000000000000000000028d2bb8acbee42ebb4a24bbc6a207fa41e89e59e"
                    },
                    {
                        "current": "0x000000000000000000000000000000000000000000000077432217e683600000",
                        "key": "0xbec72e02d5eac4a85e24991709ba5181f3eba2a37b6735b9df77757022dc9a2d",
                        "prev": "0x00000000000000000000000000000000000000000000006c6b935b8bbd400000"
                    },
                    {
                        "current": "0x000000000000000000000000fde9e60c3a6941dbb77d66e2659092f275adc0b0",
                        "key": "0x0000000000000000000000000000000000000000000000000000000000000002",
                        "prev": "0x000000000000000000000000ba139d6ffd09982dcc12fd38c7cc11ac24340645"
                    },
                    {
                        "current": "0x0000000000000000000000000000000000000000000000ad5d2a584513380000",
                        "key": "0xfa6056ac1d5a27691a57a646443f8ef3d1130f1d5253fcde66dd3d785d30d046",
                        "prev": "0x0000000000000000000000000000000000000000000000ad25a77d7675a80000"
                    },
                    {
                        "current": "0x0000000000000000000000000000000000000000000000448586170a7dc00000",
                        "key": "0x8533dacef74c11b5f78273cb7d8cd4579fe62e3081ab2d26d271c3af6474bca3",
                        "prev": "0x000000000000000000000000000000000000000000000043fabef405f3d80000"
                    },
                    {
                        "current": "0x0000000000000000000000000000000000000000000000000000000000000000",
                        "key": "0xbec72e02d5eac4a85e24991709ba5181f3eba2a37b6735b9df77757022dc9a2e",
                        "prev": "0x00000000000000000000000000000000000000000000000ad78ebc5ac6200000"
                    },
                    {
                        "current": "0x0000000000000000000000000000000000000000000000b275ad6e3c89f00000",
                        "key": "0x87718b33f1656f227dcee6304f46545136b1728dea6fd82c12b0176d2cc0b263",
                        "prev": "0x0000000000000000000000000000000000000000000000b2226926069d980000"
                    },
                    {
                        "current": "0x000000000000000000000000000000000000000000000000000000000000002a",
                        "key": "0xbec72e02d5eac4a85e24991709ba5181f3eba2a37b6735b9df77757022dc9a30",
                        "prev": "0x0000000000000000000000000000000000000000000000000000000000000029"
                    },
                    {
                        "current": "0x00000000000000000000000042f201f6c22893834efae14a02a738462a215611",
                        "key": "0x000000000000000000000000000000000000000000000000000000000000000a",
                        "prev": "0x0000000000000000000000004773260f52b17852e7693941670672f32bcace73"
                    },
                    {
                        "current": "0x000000000000000000000000b47ca6cec583a9c9798dd79f4dad52a208b8bd4c",
                        "key": "0x0000000000000000000000000000000000000000000000000000000000000003",
                        "prev": "0x000000000000000000000000fde9e60c3a6941dbb77d66e2659092f275adc0b0"
                    },
                    {
                        "current": "0x000000000000000000000000a1fe60854b11bd5632e94f1bca20a468a6bf1b53",
                        "key": "0x000000000000000000000000000000000000000000000000000000000000000b",
                        "prev": "0x00000000000000000000000042f201f6c22893834efae14a02a738462a215611"
                    }
                ],
                "storageVariables": []
            }
        ]
    }
}