{
    "balance_change": {
        "balanceChanges": [
            {
                "account": "0xfc86059387ecf22c08d72f54a56d514e367800dd",
                "assets": [
                    {
                        "address": "0x2e161d90e0b1f07b186e79d6dc836d4654aaf105",
                        "amount": "100,088.969629981",
                        "iconUrl": "",
                        "isERC1155": false,
                        "isERC721": false,
                        "sign": true,
                        "value": "290.2434445"
                    },
                    {
                        "address": "0xeeeeeeeeeeeeeeeeeeeeeeeeeeeeeeeeeeeeeeee",
                        "amount": "0.18",
                        "iconUrl": "https://assets.blocksec.com/image/1663669189317-3.png",
                        "isERC1155": false,
                        "isERC721": false,
                        "sign": false,
                        "value": "331.9253999999999951"
                    }
                ]
            },
            {
                "account": "0x3999d2c5207c06bbc5cf8a6bea52966cabb76d41",
                "assets": [
                    {
                        "address": "0xeeeeeeeeeeeeeeeeeeeeeeeeeeeeeeeeeeeeeeee",
                        "amount": "0.0018",
                        "iconUrl": "https://assets.blocksec.com/image/1663669189317-3.png",
                        "isERC1155": false,
                        "isERC721": false,
                        "sign": true,
                        "value": "3.3192539999999999508"
                    }
                ]
            },
            {
                "account": "0x2e161d90e0b1f07b186e79d6dc836d4654aaf105",
                "assets": [
                    {
                        "address": "0x2e161d90e0b1f07b186e79d6dc836d4654aaf105",
                        "amount": "5,267.840506841",
                        "iconUrl": "",
                        "isERC1155": false,
                        "isERC721": false,
                        "sign": true,
                        "value": "15.52484066"
                    }
                ]
            },
            {
                "account": "0xb7035e0e3fd44b8d1ec82482d46aacdeb85ba353",
                "assets": [
                    {
                        "address": "0xc02aaa39b223fe8d0a0e5c4f27ead9083c756cc2",
                        "amount": "0.1782",
                        "iconUrl": "https://assets.blocksec.com/icon/f1cb2d02c471d545bbc7722daf3277fd852d98e63d118771af7047bd8256c516.png",
                        "isERC1155": false,
                        "isERC721": false,
                        "sign": true,
                        "value": "328.60614599999999513"
                    },
                    {
                        "address": "0x2e161d90e0b1f07b186e79d6dc836d4654aaf105",
                        "amount": "105,356.810136822",
                        "iconUrl": "",
                        "isERC1155": false,
                        "isERC721": false,
                        "sign": false,
                        "value": "315.9111047"
                    }
                ]
            },
            {
                "account": "0xc02aaa39b223fe8d0a0e5c4f27ead9083c756cc2",
                "assets": [
                    {
                        "address": "0xeeeeeeeeeeeeeeeeeeeeeeeeeeeeeeeeeeeeeeee",
                        "amount": "0.1782",
                        "iconUrl": "https://assets.blocksec.com/image/1663669189317-3.png",
                        "isERC1155": false,
                        "isERC721": false,
                        "sign": true,
                        "value": "328.60614599999999513"
                    },
                    {
                        "address": "0xc02aaa39b223fe8d0a0e5c4f27ead9083c756cc2",
                        "amount": "0.1782",
                        "iconUrl": "https://assets.blocksec.com/icon/f1cb2d02c471d545bbc7722daf3277fd852d98e63d118771af7047bd8256c516.png",
                        "isERC1155": false,
                        "isERC721": false,
                        "sign": false,
                        "value": "328.60614599999999513"
                    }
                ]
            }
        ]
    },
    "profile": {
        "basic_info": {
            "baseFee": "19.192721686",
            "blockNumber": 17915926,
            "callData": "0x19948479000000000000000000000000000000000000000000000000000046fcc61a42d600000000000000000000000000000000000000000000000000000000000000c0000000000000000000000000fc86059387ecf22c08d72f54a56d514e367800dd00000000000000000000000000000000000000000000000000000000000003e80000000000000000000000000000000000000000000000000000000064daa3d900000000000000000000000000000000000000000000000000000000000001200000000000000000000000000000000000000000000000000000000000000002000000000000000000000000c02aaa39b223fe8d0a0e5c4f27ead9083c756cc20000000000000000000000002e161d90e0b1f07b186e79d6dc836d4654aaf10500000000000000000000000000000000000000000000000000000000000000026e61000000000000000000000000000000000000000000000000000000000000",
            "debugEnable": true,
            "errorInfo": "",
            "eventCount": 6,
            "feeRecipient": "0x95222290dd7278aa3ddd389cc1e1d165cc4bafe5",
            "formatValue": "0.18",
            "gasLimit": 600000,
            "gasPrice": "20.192721686",
            "gasUsed": 137665,
            "intTxnCount": 14,
            "internalRevert": false,
            "internalRevertMessage": "",
            "isContractCreation": false,
            "isFlashloan": false,
            "maxFee": "28.965291871",
            "nonce": 17,
            "overwritedBlockNumber": -1,
            "priorityFee": "1",
            "receiver": "0x3999d2c5207c06bbc5cf8a6bea52966cabb76d41",
            "revertMessage": "",
            "sender": "0xfc86059387ecf22c08d72f54a56d514e367800dd",
            "simulationEnable": true,
            "sourceTxnHash": "0x7b02d979006ffb65606124d8074a953f757955ad070bc032f138ef57ffe09324",
            "status": true,
            "timestamp": "2023-08-14T21:59:35Z",
            "transactionFee": "0.00277983103090319",
            "txnHash": "0x7b02d979006ffb65606124d8074a953f757955ad070bc032f138ef57ffe09324",
            "txnIndex": 59,
            "type": 2,
            "value": "180000000000000000"
        },
        "fund_flow": [
            {
                "amount": "0.18",
                "from": "0xfc86059387ecf22c08d72f54a56d514e367800dd",
                "id": 1,
                "isERC1155": false,
                "isERC721": false,
                "isReverted": false,
                "order": 1,
                "to": "0x3999d2c5207c06bbc5cf8a6bea52966cabb76d41",
                "token": "0xeeeeeeeeeeeeeeeeeeeeeeeeeeeeeeeeeeeeeeee"
            },
            {
                "amount": "0.1782",
                "from": "0x3999d2c5207c06bbc5cf8a6bea52966cabb76d41",
                "id": 2,
                "isERC1155": false,
                "isERC721": false,
                "isReverted": false,
                "order": 2,
                "to": "0xc02aaa39b223fe8d0a0e5c4f27ead9083c756cc2",
                "token": "0xeeeeeeeeeeeeeeeeeeeeeeeeeeeeeeeeeeeeeeee"
            },
            {
                "amount": "0.1782",
                "from": "0xc02aaa39b223fe8d0a0e5c4f27ead9083c756cc2",
                "id": 3,
                "isERC1155": false,
                "isERC721": false,
                "isReverted": false,
                "order": 3,
                "to": "0x3999d2c5207c06bbc5cf8a6bea52966cabb76d41",
                "token": "0xc02aaa39b223fe8d0a0e5c4f27ead9083c756cc2"
            },
            {
                "amount": "0.1782",
                "from": "0x3999d2c5207c06bbc5cf8a6bea52966cabb76d41",
                "id": 4,
                "isERC1155": false,
                "isERC721": false,
                "isReverted": false,
                "order": 4,
                "to": "0xb7035e0e3fd44b8d1ec82482d46aacdeb85ba353",
                "token": "0xc02aaa39b223fe8d0a0e5c4f27ead9083c756cc2"
            },
            {
                "amount": "5,267.840506841",
                "from": "0xb7035e0e3fd44b8d1ec82482d46aacdeb85ba353",
                "id": 5,
                "isERC1155": false,
                "isERC721": false,
                "isReverted": false,
                "order": 5,
                "to": "0x2e161d90e0b1f07b186e79d6dc836d4654aaf105",
                "token": "0x2e161d90e0b1f07b186e79d6dc836d4654aaf105"
            },
            {
                "amount": "100,088.969629981",
                "from": "0xb7035e0e3fd44b8d1ec82482d46aacdeb85ba353",
                "id": 6,
                "isERC1155": false,
                "isERC721": false,
                "isReverted": false,
                "order": 6,
                "to": "0xfc86059387ecf22c08d72f54a56d514e367800dd",
                "token": "0x2e161d90e0b1f07b186e79d6dc836d4654aaf105"
            }
        ],
        "token_infos": [
            {
                "address": "0x2e161d90e0b1f07b186e79d6dc836d4654aaf105",
                "decimals": 9
            },
            {
                "address": "0xc02aaa39b223fe8d0a0e5c4f27ead9083c756cc2",
                "decimals": 18
            },
            {
                "address": "0xeeeeeeeeeeeeeeeeeeeeeeeeeeeeeeeeeeeeeeee",
                "decimals": 18
            }
        ]
    },
    "address_label": {
        "labels": [
            {
                "address": "0x0000000000000000000000000000000000000002",
                "label": "Precompiled"
            },
            {
                "address": "0x0000000000000000000000000000000000000003",
                "label": "Precompiled"
            },
            {
                "address": "0x0000000000000000000000000000000000000004",
                "label": "Precompiled"
            },
            {
                "address": "0xeeeeeeeeeeeeeeeeeeeeeeeeeeeeeeeeeeeeeeee",
                "label": "Ether"
            },
            {
                "address": "0xc02aaa39b223fe8d0a0e5c4f27ead9083c756cc2",
                "label": "Wrapped Ether (WETH)"
            },
            {
                "address": "0x0000000000000000000000000000000000000001",
                "label": "Precompiled"
            },
            {
                "address": "0xb7035e0e3fd44b8d1ec82482d46aacdeb85ba353",
                "label": "Uniswap V2: SHIDCOIN 2"
            },
            {
                "address": "0x755f9c6906c98d576403b6f3aeab0999edbbc7c5",
                "label": "ModelERC20V2"
            },
            {
                "address": "0x3999d2c5207c06bbc5cf8a6bea52966cabb76d41",
                "label": "Unibot: Router"
            },
            {
                "address": "0x2e161d90e0b1f07b186e79d6dc836d4654aaf105",
                "label": "BitcoinBoredApeMiladyEthereumCrypt... (SHIDCOIN)"
            }
        ]
    },
    "trace": {
        "accountLabels": null,
        "dataMap": {
            "-1": {
                "invocation": {
                    "address": "0xfc86059387ecf22c08d72f54a56d514e367800dd",
                    "callData": "",
                    "decodedMethod": null,
                    "errorInfo": "",
                    "fromAddress": "",
                    "gasUsed": 0,
                    "id": -1,
                    "methodDecoded": false,
                    "operation": "",
                    "output": "",
                    "revert": false,
                    "revertMessage": "",
                    "selector": "",
                    "status": false,
                    "value": ""
                },
                "nodeType": 0
            },
            "0": {
                "invocation": {
                    "address": "0x3999d2c5207c06bbc5cf8a6bea52966cabb76d41",
                    "callData": "0x000000000000000000000000000000000000000000000000000046fcc61a42d600000000000000000000000000000000000000000000000000000000000000c0000000000000000000000000fc86059387ecf22c08d72f54a56d514e367800dd00000000000000000000000000000000000000000000000000000000000003e80000000000000000000000000000000000000000000000000000000064daa3d900000000000000000000000000000000000000000000000000000000000001200000000000000000000000000000000000000000000000000000000000000002000000000000000000000000c02aaa39b223fe8d0a0e5c4f27ead9083c756cc20000000000000000000000002e161d90e0b1f07b186e79d6dc836d4654aaf10500000000000000000000000000000000000000000000000000000000000000026e61000000000000000000000000000000000000000000000000000000000000",
                    "decodedMethod": {
                        "callParams": [
                            {
                                "name": "amt_out_min",
                                "type": "uint256",
                                "value": "78,051,469,312,726"
                            },
                            {
                                "name": "path",
                                "type": "address[]",
                                "value": [
                                    "0xc02aaa39b223fe8d0a0e5c4f27ead9083c756cc2",
                                    "0x2e161d90e0b1f07b186e79d6dc836d4654aaf105"
                                ]
                            },
                            {
                                "name": "to",
                                "type": "address",
                                "value": "0xfc86059387ecf22c08d72f54a56d514e367800dd"
                            },
                            {
                                "name": "pct_fee",
                                "type": "uint256",
                                "value": "1,000"
                            },
                            {
                                "name": "deadline",
                                "type": "uint256",
                                "value": "1,692,050,393"
                            },
                            {
                                "name": "referral",
                                "type": "string",
                                "value": "na"
                            }
                        ],
                        "constructorArguments": "",
                        "name": "uniV2_swapExactETHForTokens_pctFee",
                        "returnParams": [],
                        "signature": "uniV2_swapExactETHForTokens_pctFee(uint256,address[],address,uint256,uint256,string)"
                    },
                    "errorInfo": "",
                    "fromAddress": "0xfc86059387ecf22c08d72f54a56d514e367800dd",
                    "gasUsed": 137665,
                    "id": 0,
                    "methodDecoded": true,
                    "operation": "CALL",
                    "output": "",
                    "revert": false,
                    "revertMessage": "",
                    "selector": "0x19948479",
                    "status": true,
                    "value": "0.18"
                },
                "nodeType": 0
            },
            "1": {
                "invocation": {
                    "address": "0xc02aaa39b223fe8d0a0e5c4f27ead9083c756cc2",
                    "callData": "0x",
                    "decodedMethod": {
                        "callParams": [],
                        "constructorArguments": "",
                        "name": "deposit",
                        "returnParams": [],
                        "signature": "deposit()"
                    },
                    "errorInfo": "",
                    "fromAddress": "0x3999d2c5207c06bbc5cf8a6bea52966cabb76d41",
                    "gasUsed": 23974,
                    "id": 1,
                    "methodDecoded": true,
                    "operation": "CALL",
                    "output": "",
                    "revert": false,
                    "revertMessage": "",
                    "selector": "0xd0e30db0",
                    "status": true,
                    "value": "0.1782"
                },
                "nodeType": 0
            },
            "10": {
                "invocation": {
                    "address": "0x2e161d90e0b1f07b186e79d6dc836d4654aaf105",
                    "callData": "0x000000000000000000000000fc86059387ecf22c08d72f54a56d514e367800dd00000000000000000000000000000000000000000000000000005fd24b3e2cf6",
                    "decodedMethod": {
                        "callParams": [
                            {
                                "name": "recipient",
                                "type": "address",
                                "value": "0xfc86059387ecf22c08d72f54a56d514e367800dd"
                            },
                            {
                                "decimalAvailable": true,
                                "name": "amount",
                                "type": "uint256",
                                "value": "105,356,810,136,822"
                            }
                        ],
                        "constructorArguments": "",
                        "name": "transfer",
                        "returnParams": [
                            {
                                "name": "",
                                "type": "bool",
                                "value": true
                            }
                        ],
                        "signature": "transfer(address,uint256)"
                    },
                    "errorInfo": "",
                    "fromAddress": "0xb7035e0e3fd44b8d1ec82482d46aacdeb85ba353",
                    "gasUsed": 37729,
                    "id": 10,
                    "methodDecoded": true,
                    "operation": "CALL",
                    "output": "0x0000000000000000000000000000000000000000000000000000000000000001",
                    "revert": false,
                    "revertMessage": "",
                    "selector": "0xa9059cbb",
                    "status": true,
                    "value": "0"
                },
                "nodeType": 0
            },
            "11": {
                "invocation": {
                    "address": "0x755f9c6906c98d576403b6f3aeab0999edbbc7c5",
                    "callData": "0x000000000000000000000000fc86059387ecf22c08d72f54a56d514e367800dd00000000000000000000000000000000000000000000000000005fd24b3e2cf6",
                    "decodedMethod": {
                        "callParams": [
                            {
                                "name": "recipient",
                                "type": "address",
                                "value": "0xfc86059387ecf22c08d72f54a56d514e367800dd"
                            },
                            {
                                "decimalAvailable": true,
                                "name": "amount",
                                "type": "uint256",
                                "value": "105,356,810,136,822"
                            }
                        ],
                        "constructorArguments": "",
                        "name": "transfer",
                        "returnParams": [
                            {
                                "name": "",
                                "type": "bool",
                                "value": true
                            }
                        ],
                        "signature": "transfer(address,uint256)"
                    },
                    "errorInfo": "",
                    "fromAddress": "0x2e161d90e0b1f07b186e79d6dc836d4654aaf105",
                    "gasUsed": 37551,
                    "id": 11,
                    "methodDecoded": true,
                    "operation": "DELEGATECALL",
                    "output": "0x0000000000000000000000000000000000000000000000000000000000000001",
                    "revert": false,
                    "revertMessage": "",
                    "selector": "0xa9059cbb",
                    "status": true,
                    "value": "0"
                },
                "nodeType": 0
            },
            "12": {
                "event": {
                    "contract": "0x2e161d90e0b1f07b186e79d6dc836d4654aaf105",
                    "decodedLog": {
                        "name": "Transfer",
                        "params": [
                            {
                                "name": "from",
                                "type": "address",
                                "value": "0xb7035e0e3fd44b8d1ec82482d46aacdeb85ba353"
                            },
                            {
                                "name": "to",
                                "type": "address",
                                "value": "0x2e161d90e0b1f07b186e79d6dc836d4654aaf105"
                            },
                            {
                                "decimalAvailable": true,
                                "name": "value",
                                "type": "uint256",
                                "value": "5,267,840,506,841"
                            }
                        ],
                        "signature": "Transfer(address,address,uint256)"
                    },
                    "id": 12,
                    "logData": "0x000000000000000000000000000000000000000000000000000004ca83c31bd9",
                    "logDecoded": true,
                    "operation": "EVENT",
                    "revert": false,
                    "status": true,
                    "topics": [
                        "0xddf252ad1be2c89b69c2b068fc378daa952ba7f163c4a11628f55a4df523b3ef",
                        "0x000000000000000000000000b7035e0e3fd44b8d1ec82482d46aacdeb85ba353",
                        "0x0000000000000000000000002e161d90e0b1f07b186e79d6dc836d4654aaf105"
                    ]
                },
                "nodeType": 1
            },
            "13": {
                "event": {
                    "contract": "0x2e161d90e0b1f07b186e79d6dc836d4654aaf105",
                    "decodedLog": {
                        "name": "Transfer",
                        "params": [
                            {
                                "name": "from",
                                "type": "address",
                                "value": "0xb7035e0e3fd44b8d1ec82482d46aacdeb85ba353"
                            },
                            {
                                "name": "to",
                                "type": "address",
                                "value": "0xfc86059387ecf22c08d72f54a56d514e367800dd"
                            },
                            {
                                "decimalAvailable": true,
                                "name": "value",
                                "type": "uint256",
                                "value": "100,088,969,629,981"
                            }
                        ],
                        "signature": "Transfer(address,address,uint256)"
                    },
                    "id": 13,
                    "logData": "0x00000000000000000000000000000000000000000000000000005b07c77b111d",
                    "logDecoded": true,
                    "operation": "EVENT",
                    "revert": false,
                    "status": true,
                    "topics": [
                        "0xddf252ad1be2c89b69c2b068fc378daa952ba7f163c4a11628f55a4df523b3ef",
                        "0x000000000000000000000000b7035e0e3fd44b8d1ec82482d46aacdeb85ba353",
                        "0x000000000000000000000000fc86059387ecf22c08d72f54a56d514e367800dd"
                    ]
                },
                "nodeType": 1
            },
            "14": {
                "invocation": {
                    "address": "0x2e161d90e0b1f07b186e79d6dc836d4654aaf105",
                    "callData": "0x000000000000000000000000b7035e0e3fd44b8d1ec82482d46aacdeb85ba353",
                    "decodedMethod": {
                        "callParams": [
                            {
                                "name": "account",
                                "type": "address",
                                "value": "0xb7035e0e3fd44b8d1ec82482d46aacdeb85ba353"
                            }
                        ],
                        "constructorArguments": "",
                        "name": "balanceOf",
                        "returnParams": [
                            {
                                "decimalAvailable": true,
                                "name": "",
                                "type": "uint256",
                                "value": "6,237,799,024,283,188"
                            }
                        ],
                        "signature": "balanceOf(address)"
                    },
                    "errorInfo": "",
                    "fromAddress": "0xb7035e0e3fd44b8d1ec82482d46aacdeb85ba353",
                    "gasUsed": 751,
                    "id": 14,
                    "methodDecoded": true,
                    "operation": "STATICCALL",
                    "output": "0x0000000000000000000000000000000000000000000000000016293ec305ce34",
                    "revert": false,
                    "revertMessage": "",
                    "selector": "0x70a08231",
                    "status": true,
                    "value": "0"
                },
                "nodeType": 0
            },
            "15": {
                "invocation": {
                    "address": "0x755f9c6906c98d576403b6f3aeab0999edbbc7c5",
                    "callData": "0x000000000000000000000000b7035e0e3fd44b8d1ec82482d46aacdeb85ba353",
                    "decodedMethod": {
                        "callParams": [
                            {
                                "name": "account",
                                "type": "address",
                                "value": "0xb7035e0e3fd44b8d1ec82482d46aacdeb85ba353"
                            }
                        ],
                        "constructorArguments": "",
                        "name": "balanceOf",
                        "returnParams": [
                            {
                                "decimalAvailable": true,
                                "name": "",
                                "type": "uint256",
                                "value": "6,237,799,024,283,188"
                            }
                        ],
                        "signature": "balanceOf(address)"
                    },
                    "errorInfo": "",
                    "fromAddress": "0x2e161d90e0b1f07b186e79d6dc836d4654aaf105",
                    "gasUsed": 579,
                    "id": 15,
                    "methodDecoded": true,
                    "operation": "DELEGATECALL",
                    "output": "0x0000000000000000000000000000000000000000000000000016293ec305ce34",
                    "revert": false,
                    "revertMessage": "",
                    "selector": "0x70a08231",
                    "status": true,
                    "value": "0"
                },
                "nodeType": 0
            },
            "16": {
                "invocation": {
                    "address": "0xc02aaa39b223fe8d0a0e5c4f27ead9083c756cc2",
                    "callData": "0x000000000000000000000000b7035e0e3fd44b8d1ec82482d46aacdeb85ba353",
                    "decodedMethod": {
                        "callParams": [
                            {
                                "name": "",
                                "type": "address",
                                "value": "0xb7035e0e3fd44b8d1ec82482d46aacdeb85ba353"
                            }
                        ],
                        "constructorArguments": "",
                        "name": "balanceOf",
                        "returnParams": [
                            {
                                "decimalAvailable": true,
                                "name": "",
                                "type": "uint256",
                                "value": "10,697,131,403,956,260,545"
                            }
                        ],
                        "signature": "balanceOf(address)"
                    },
                    "errorInfo": "",
                    "fromAddress": "0xb7035e0e3fd44b8d1ec82482d46aacdeb85ba353",
                    "gasUsed": 534,
                    "id": 16,
                    "methodDecoded": true,
                    "operation": "STATICCALL",
                    "output": "0x0000000000000000000000000000000000000000000000009473d856087d0ec1",
                    "revert": false,
                    "revertMessage": "",
                    "selector": "0x70a08231",
                    "status": true,
                    "value": "0"
                },
                "nodeType": 0
            },
            "17": {
                "event": {
                    "contract": "0xb7035e0e3fd44b8d1ec82482d46aacdeb85ba353",
                    "decodedLog": {
                        "name": "Sync",
                        "params": [
                            {
                                "name": "reserve0",
                                "type": "uint112",
                                "value": "6,237,799,024,283,188"
                            },
                            {
                                "name": "reserve1",
                                "type": "uint112",
                                "value": "10,697,131,403,956,260,545"
                            }
                        ],
                        "signature": "Sync(uint112,uint112)"
                    },
                    "id": 17,
                    "logData": "0x0000000000000000000000000000000000000000000000000016293ec305ce340000000000000000000000000000000000000000000000009473d856087d0ec1",
                    "logDecoded": true,
                    "operation": "EVENT",
                    "revert": false,
                    "status": true,
                    "topics": [
                        "0x1c411e9a96e071241c2f21f7726b17ae89e3cab4c78be50e062b03a9fffbbad1"
                    ]
                },
                "nodeType": 1
            },
            "18": {
                "event": {
                    "contract": "0xb7035e0e3fd44b8d1ec82482d46aacdeb85ba353",
                    "decodedLog": {
                        "name": "Swap",
                        "params": [
                            {
                                "name": "sender",
                                "type": "address",
                                "value": "0x3999d2c5207c06bbc5cf8a6bea52966cabb76d41"
                            },
                            {
                                "name": "to",
                                "type": "address",
                                "value": "0xfc86059387ecf22c08d72f54a56d514e367800dd"
                            },
                            {
                                "name": "amount0In",
                                "type": "uint256",
                                "value": "0"
                            },
                            {
                                "name": "amount1In",
                                "type": "uint256",
                                "value": "178,200,000,000,000,000"
                            },
                            {
                                "name": "amount0Out",
                                "type": "uint256",
                                "value": "105,356,810,136,822"
                            },
                            {
                                "name": "amount1Out",
                                "type": "uint256",
                                "value": "0"
                            }
                        ],
                        "signature": "Swap(address,uint256,uint256,uint256,uint256,address)"
                    },
                    "id": 18,
                    "logData": "0x0000000000000000000000000000000000000000000000000000000000000000000000000000000000000000000000000000000000000000027917f4b2f9800000000000000000000000000000000000000000000000000000005fd24b3e2cf60000000000000000000000000000000000000000000000000000000000000000",
                    "logDecoded": true,
                    "operation": "EVENT",
                    "revert": false,
                    "status": true,
                    "topics": [
                        "0xd78ad95fa46c994b6551d0da85fc275fe613ce37657fb8d5e3d130840159d822",
                        "0x0000000000000000000000003999d2c5207c06bbc5cf8a6bea52966cabb76d41",
                        "0x000000000000000000000000fc86059387ecf22c08d72f54a56d514e367800dd"
                    ]
                },
                "nodeType": 1
            },
            "19": {
                "invocation": {
                    "address": "0x2e161d90e0b1f07b186e79d6dc836d4654aaf105",
                    "callData": "0x000000000000000000000000fc86059387ecf22c08d72f54a56d514e367800dd",
                    "decodedMethod": {
                        "callParams": [
                            {
                                "name": "account",
                                "type": "address",
                                "value": "0xfc86059387ecf22c08d72f54a56d514e367800dd"
                            }
                        ],
                        "constructorArguments": "",
                        "name": "balanceOf",
                        "returnParams": [
                            {
                                "decimalAvailable": true,
                                "name": "",
                                "type": "uint256",
                                "value": "762,059,037,536,018"
                            }
                        ],
                        "signature": "balanceOf(address)"
                    },
                    "errorInfo": "",
                    "fromAddress": "0x3999d2c5207c06bbc5cf8a6bea52966cabb76d41",
                    "gasUsed": 751,
                    "id": 19,
                    "methodDecoded": true,
                    "operation": "STATICCALL",
                    "output": "0x0000000000000000000000000000000000000000000000000002b516b23aef12",
                    "revert": false,
                    "revertMessage": "",
                    "selector": "0x70a08231",
                    "status": true,
                    "value": "0"
                },
                "nodeType": 0
            },
            "2": {
                "event": {
                    "contract": "0xc02aaa39b223fe8d0a0e5c4f27ead9083c756cc2",
                    "decodedLog": {
                        "name": "Deposit",
                        "params": [
                            {
                                "name": "dst",
                                "type": "address",
                                "value": "0x3999d2c5207c06bbc5cf8a6bea52966cabb76d41"
                            },
                            {
                                "name": "wad",
                                "type": "uint256",
                                "value": "178,200,000,000,000,000"
                            }
                        ],
                        "signature": "Deposit(address,uint256)"
                    },
                    "id": 2,
                    "logData": "0x000000000000000000000000000000000000000000000000027917f4b2f98000",
                    "logDecoded": true,
                    "operation": "EVENT",
                    "revert": false,
                    "status": true,
                    "topics": [
                        "0xe1fffcc4923d04b559f4d29a8bfc6cda04eb5b0d3c460751c2402c5c5cc9109c",
                        "0x0000000000000000000000003999d2c5207c06bbc5cf8a6bea52966cabb76d41"
                    ]
                },
                "nodeType": 1
            },
            "20": {
                "invocation": {
                    "address": "0x755f9c6906c98d576403b6f3aeab0999edbbc7c5",
                    "callData": "0x000000000000000000000000fc86059387ecf22c08d72f54a56d514e367800dd",
                    "decodedMethod": {
                        "callParams": [
                            {
                                "name": "account",
                                "type": "address",
                                "value": "0xfc86059387ecf22c08d72f54a56d514e367800dd"
                            }
                        ],
                        "constructorArguments": "",
                        "name": "balanceOf",
                        "returnParams": [
                            {
                                "decimalAvailable": true,
                                "name": "",
                                "type": "uint256",
                                "value": "762,059,037,536,018"
                            }
                        ],
                        "signature": "balanceOf(address)"
                    },
                    "errorInfo": "",
                    "fromAddress": "0x2e161d90e0b1f07b186e79d6dc836d4654aaf105",
                    "gasUsed": 579,
                    "id": 20,
                    "methodDecoded": true,
                    "operation": "DELEGATECALL",
                    "output": "0x0000000000000000000000000000000000000000000000000002b516b23aef12",
                    "revert": false,
                    "revertMessage": "",
                    "selector": "0x70a08231",
                    "status": true,
                    "value": "0"
                },
                "nodeType": 0
            },
            "3": {
                "invocation": {
                    "address": "0xc02aaa39b223fe8d0a0e5c4f27ead9083c756cc2",
                    "callData": "0x000000000000000000000000b7035e0e3fd44b8d1ec82482d46aacdeb85ba353000000000000000000000000000000000000000000000000027917f4b2f98000",
                    "decodedMethod": {
                        "callParams": [
                            {
                                "name": "dst",
                                "type": "address",
                                "value": "0xb7035e0e3fd44b8d1ec82482d46aacdeb85ba353"
                            },
                            {
                                "decimalAvailable": true,
                                "name": "wad",
                                "type": "uint256",
                                "value": "178,200,000,000,000,000"
                            }
                        ],
                        "constructorArguments": "",
                        "name": "transfer",
                        "returnParams": [
                            {
                                "name": "",
                                "type": "bool",
                                "value": true
                            }
                        ],
                        "signature": "transfer(address,uint256)"
                    },
                    "errorInfo": "",
                    "fromAddress": "0x3999d2c5207c06bbc5cf8a6bea52966cabb76d41",
                    "gasUsed": 8062,
                    "id": 3,
                    "methodDecoded": true,
                    "operation": "CALL",
                    "output": "0x0000000000000000000000000000000000000000000000000000000000000001",
                    "revert": false,
                    "revertMessage": "",
                    "selector": "0xa9059cbb",
                    "status": true,
                    "value": "0"
                },
                "nodeType": 0
            },
            "4": {
                "event": {
                    "contract": "0xc02aaa39b223fe8d0a0e5c4f27ead9083c756cc2",
                    "decodedLog": {
                        "name": "Transfer",
                        "params": [
                            {
                                "name": "src",
                                "type": "address",
                                "value": "0x3999d2c5207c06bbc5cf8a6bea52966cabb76d41"
                            },
                            {
                                "name": "dst",
                                "type": "address",
                                "value": "0xb7035e0e3fd44b8d1ec82482d46aacdeb85ba353"
                            },
                            {
                                "decimalAvailable": true,
                                "name": "wad",
                                "type": "uint256",
                                "value": "178,200,000,000,000,000"
                            }
                        ],
                        "signature": "Transfer(address,address,uint256)"
                    },
                    "id": 4,
                    "logData": "0x000000000000000000000000000000000000000000000000027917f4b2f98000",
                    "logDecoded": true,
                    "operation": "EVENT",
                    "revert": false,
                    "status": true,
                    "topics": [
                        "0xddf252ad1be2c89b69c2b068fc378daa952ba7f163c4a11628f55a4df523b3ef",
                        "0x0000000000000000000000003999d2c5207c06bbc5cf8a6bea52966cabb76d41",
                        "0x000000000000000000000000b7035e0e3fd44b8d1ec82482d46aacdeb85ba353"
                    ]
                },
                "nodeType": 1
            },
            "5": {
                "invocation": {
                    "address": "0x2e161d90e0b1f07b186e79d6dc836d4654aaf105",
                    "callData": "0x000000000000000000000000fc86059387ecf22c08d72f54a56d514e367800dd",
                    "decodedMethod": {
                        "callParams": [
                            {
                                "name": "account",
                                "type": "address",
                                "value": "0xfc86059387ecf22c08d72f54a56d514e367800dd"
                            }
                        ],
                        "constructorArguments": "",
                        "name": "balanceOf",
                        "returnParams": [
                            {
                                "decimalAvailable": true,
                                "name": "",
                                "type": "uint256",
                                "value": "661,970,067,906,037"
                            }
                        ],
                        "signature": "balanceOf(address)"
                    },
                    "errorInfo": "",
                    "fromAddress": "0x3999d2c5207c06bbc5cf8a6bea52966cabb76d41",
                    "gasUsed": 5251,
                    "id": 5,
                    "methodDecoded": true,
                    "operation": "STATICCALL",
                    "output": "0x00000000000000000000000000000000000000000000000000025a0eeabfddf5",
                    "revert": false,
                    "revertMessage": "",
                    "selector": "0x70a08231",
                    "status": true,
                    "value": "0"
                },
                "nodeType": 0
            },
            "6": {
                "invocation": {
                    "address": "0x755f9c6906c98d576403b6f3aeab0999edbbc7c5",
                    "callData": "0x000000000000000000000000fc86059387ecf22c08d72f54a56d514e367800dd",
                    "decodedMethod": {
                        "callParams": [
                            {
                                "name": "account",
                                "type": "address",
                                "value": "0xfc86059387ecf22c08d72f54a56d514e367800dd"
                            }
                        ],
                        "constructorArguments": "",
                        "name": "balanceOf",
                        "returnParams": [
                            {
                                "decimalAvailable": true,
                                "name": "",
                                "type": "uint256",
                                "value": "661,970,067,906,037"
                            }
                        ],
                        "signature": "balanceOf(address)"
                    },
                    "errorInfo": "",
                    "fromAddress": "0x2e161d90e0b1f07b186e79d6dc836d4654aaf105",
                    "gasUsed": 2579,
                    "id": 6,
                    "methodDecoded": true,
                    "operation": "DELEGATECALL",
                    "output": "0x00000000000000000000000000000000000000000000000000025a0eeabfddf5",
                    "revert": false,
                    "revertMessage": "",
                    "selector": "0x70a08231",
                    "status": true,
                    "value": "0"
                },
                "nodeType": 0
            },
            "7": {
                "invocation": {
                    "address": "0xb7035e0e3fd44b8d1ec82482d46aacdeb85ba353",
                    "callData": "0x",
                    "decodedMethod": {
                        "callParams": [],
                        "constructorArguments": "",
                        "name": "getReserves",
                        "returnParams": [
                            {
                                "name": "_reserve0",
                                "type": "uint112",
                                "value": "6,343,155,834,420,010"
                            },
                            {
                                "name": "_reserve1",
                                "type": "uint112",
                                "value": "10,518,931,403,956,260,545"
                            },
                            {
                                "name": "_blockTimestampLast",
                                "type": "uint32",
                                "value": "1,692,050,363"
                            }
                        ],
                        "signature": "getReserves()"
                    },
                    "errorInfo": "",
                    "fromAddress": "0x3999d2c5207c06bbc5cf8a6bea52966cabb76d41",
                    "gasUsed": 2504,
                    "id": 7,
                    "methodDecoded": true,
                    "operation": "STATICCALL",
                    "output": "0x000000000000000000000000000000000000000000000000001689110e43fb2a00000000000000000000000000000000000000000000000091fac06155838ec10000000000000000000000000000000000000000000000000000000064daa3bb",
                    "revert": false,
                    "revertMessage": "",
                    "selector": "0x0902f1ac",
                    "status": true,
                    "value": "0"
                },
                "nodeType": 0
            },
            "8": {
                "invocation": {
                    "address": "0xc02aaa39b223fe8d0a0e5c4f27ead9083c756cc2",
                    "callData": "0x000000000000000000000000b7035e0e3fd44b8d1ec82482d46aacdeb85ba353",
                    "decodedMethod": {
                        "callParams": [
                            {
                                "name": "",
                                "type": "address",
                                "value": "0xb7035e0e3fd44b8d1ec82482d46aacdeb85ba353"
                            }
                        ],
                        "constructorArguments": "",
                        "name": "balanceOf",
                        "returnParams": [
                            {
                                "decimalAvailable": true,
                                "name": "",
                                "type": "uint256",
                                "value": "10,697,131,403,956,260,545"
                            }
                        ],
                        "signature": "balanceOf(address)"
                    },
                    "errorInfo": "",
                    "fromAddress": "0x3999d2c5207c06bbc5cf8a6bea52966cabb76d41",
                    "gasUsed": 534,
                    "id": 8,
                    "methodDecoded": true,
                    "operation": "STATICCALL",
                    "output": "0x0000000000000000000000000000000000000000000000009473d856087d0ec1",
                    "revert": false,
                    "revertMessage": "",
                    "selector": "0x70a08231",
                    "status": true,
                    "value": "0"
                },
                "nodeType": 0
            },
            "9": {
                "invocation": {
                    "address": "0xb7035e0e3fd44b8d1ec82482d46aacdeb85ba353",
                    "callData": "0x00000000000000000000000000000000000000000000000000005fd24b3e2cf60000000000000000000000000000000000000000000000000000000000000000000000000000000000000000fc86059387ecf22c08d72f54a56d514e367800dd00000000000000000000000000000000000000000000000000000000000000800000000000000000000000000000000000000000000000000000000000000000",
                    "decodedMethod": {
                        "callParams": [
                            {
                                "name": "amount0Out",
                                "type": "uint256",
                                "value": "105,356,810,136,822"
                            },
                            {
                                "name": "amount1Out",
                                "type": "uint256",
                                "value": "0"
                            },
                            {
                                "name": "to",
                                "type": "address",
                                "value": "0xfc86059387ecf22c08d72f54a56d514e367800dd"
                            },
                            {
                                "name": "data",
                                "type": "bytes",
                                "value": "0x"
                            }
                        ],
                        "constructorArguments": "",
                        "name": "swap",
                        "returnParams": [],
                        "signature": "swap(uint256,uint256,address,bytes)"
                    },
                    "errorInfo": "",
                    "fromAddress": "0x3999d2c5207c06bbc5cf8a6bea52966cabb76d41",
                    "gasUsed": 70337,
                    "id": 9,
                    "methodDecoded": true,
                    "operation": "CALL",
                    "output": "",
                    "revert": false,
                    "revertMessage": "",
                    "selector": "0x022c0d9f",
                    "status": true,
                    "value": "0"
                },
                "nodeType": 0
            }
        },
        "gasFlame": [
            {
                "children": [
                    {
                        "children": [
                            {
                                "children": [],
                                "depth": 0,
                                "name": "Initial Gas",
                                "value": 23408
                            },
                            {
                                "children": [
                                    {
                                        "children": [],
                                        "depth": 1,
                                        "name": "deposit",
                                        "value": 23974
                                    },
                                    {
                                        "children": [],
                                        "depth": 1,
                                        "name": "transfer",
                                        "value": 8062
                                    },
                                    {
                                        "children": [
                                            {
                                                "children": [],
                                                "depth": 2,
                                                "name": "balanceOf",
                                                "value": 2579
                                            }
                                        ],
                                        "depth": 1,
                                        "name": "balanceOf",
                                        "value": 5251
                                    },
                                    {
                                        "children": [],
                                        "depth": 1,
                                        "name": "getReserves",
                                        "value": 2504
                                    },
                                    {
                                        "children": [],
                                        "depth": 1,
                                        "name": "balanceOf",
                                        "value": 534
                                    },
                                    {
                                        "children": [
                                            {
                                                "children": [
                                                    {
                                                        "children": [],
                                                        "depth": 3,
                                                        "name": "transfer",
                                                        "value": 37551
                                                    }
                                                ],
                                                "depth": 2,
                                                "name": "transfer",
                                                "value": 37729
                                            },
                                            {
                                                "children": [
                                                    {
                                                        "children": [],
                                                        "depth": 3,
                                                        "name": "balanceOf",
                                                        "value": 579
                                                    }
                                                ],
                                                "depth": 2,
                                                "name": "balanceOf",
                                                "value": 751
                                            },
                                            {
                                                "children": [],
                                                "depth": 2,
                                                "name": "balanceOf",
                                                "value": 534
                                            }
                                        ],
                                        "depth": 1,
                                        "name": "swap",
                                        "value": 70337
                                    },
                                    {
                                        "children": [
                                            {
                                                "children": [],
                                                "depth": 2,
                                                "name": "balanceOf",
                                                "value": 579
                                            }
                                        ],
                                        "depth": 1,
                                        "name": "balanceOf",
                                        "value": 751
                                    }
                                ],
                                "depth": 0,
                                "name": "Executed Gas",
                                "value": 136957
                            }
                        ],
                        "depth": -1,
                        "name": "Actual Gas Used",
                        "value": 137665
                    },
                    {
                        "children": [],
                        "depth": -1,
                        "name": "Refunded Gas",
                        "value": 22700
                    }
                ],
                "depth": -2,
                "name": "Total Gas",
                "value": 160365
            }
        ],
        "isConfirmed": true,
        "mainTrace": [
            {
                "children": [
                    {
                        "children": [
                            {
                                "children": [
                                    {
                                        "children": [],
                                        "depth": 2,
                                        "id": 2,
                                        "order": 2
                                    }
                                ],
                                "depth": 1,
                                "id": 1,
                                "order": 1
                            },
                            {
                                "children": [
                                    {
                                        "children": [],
                                        "depth": 2,
                                        "id": 4,
                                        "order": 4
                                    }
                                ],
                                "depth": 1,
                                "id": 3,
                                "order": 3
                            },
                            {
                                "children": [
                                    {
                                        "children": [],
                                        "depth": 2,
                                        "id": 6,
                                        "order": 6
                                    }
                                ],
                                "depth": 1,
                                "id": 5,
                                "order": 5
                            },
                            {
                                "children": [],
                                "depth": 1,
                                "id": 7,
                                "order": 7
                            },
                            {
                                "children": [],
                                "depth": 1,
                                "id": 8,
                                "order": 8
                            },
                            {
                                "children": [
                                    {
                                        "children": [
                                            {
                                                "children": [
                                                    {
                                                        "children": [],
                                                        "depth": 4,
                                                        "id": 12,
                                                        "order": 12
                                                    },
                                                    {
                                                        "children": [],
                                                        "depth": 4,
                                                        "id": 13,
                                                        "order": 13
                                                    }
                                                ],
                                                "depth": 3,
                                                "id": 11,
                                                "order": 11
                                            }
                                        ],
                                        "depth": 2,
                                        "id": 10,
                                        "order": 10
                                    },
                                    {
                                        "children": [
                                            {
                                                "children": [],
                                                "depth": 3,
                                                "id": 15,
                                                "order": 15
                                            }
                                        ],
                                        "depth": 2,
                                        "id": 14,
                                        "order": 14
                                    },
                                    {
                                        "children": [],
                                        "depth": 2,
                                        "id": 16,
                                        "order": 16
                                    },
                                    {
                                        "children": [],
                                        "depth": 2,
                                        "id": 17,
                                        "order": 17
                                    },
                                    {
                                        "children": [],
                                        "depth": 2,
                                        "id": 18,
                                        "order": 18
                                    }
                                ],
                                "depth": 1,
                                "id": 9,
                                "order": 9
                            },
                            {
                                "children": [
                                    {
                                        "children": [],
                                        "depth": 2,
                                        "id": 20,
                                        "order": 20
                                    }
                                ],
                                "depth": 1,
                                "id": 19,
                                "order": 19
                            }
                        ],
                        "depth": 0,
                        "id": 0,
                        "order": 0
                    }
                ],
                "depth": -1,
                "id": -1,
                "order": -1
            }
        ],
        "mainTraceNodeCount": 21,
        "parentIdMap": {
            "0": -1,
            "1": 0,
            "10": 9,
            "11": 10,
            "12": 11,
            "13": 11,
            "14": 9,
            "15": 14,
            "16": 9,
            "17": 9,
            "18": 9,
            "19": 0,
            "2": 1,
            "20": 19,
            "3": 0,
            "4": 3,
            "5": 0,
            "6": 5,
            "7": 0,
            "8": 0,
            "9": 0
        },
        "tidyTrace": [
            {
                "children": [
                    {
                        "children": [
                            {
                                "children": [
                                    {
                                        "children": [],
                                        "depth": 2,
                                        "id": 2,
                                        "order": 2
                                    }
                                ],
                                "depth": 1,
                                "id": 1,
                                "order": 1
                            },
                            {
                                "children": [
                                    {
                                        "children": [],
                                        "depth": 2,
                                        "id": 4,
                                        "order": 4
                                    }
                                ],
                                "depth": 1,
                                "id": 3,
                                "order": 3
                            },
                            {
                                "children": [
                                    {
                                        "children": [
                                            {
                                                "children": [
                                                    {
                                                        "children": [],
                                                        "depth": 4,
                                                        "id": 12,
                                                        "order": 12
                                                    },
                                                    {
                                                        "children": [],
                                                        "depth": 4,
                                                        "id": 13,
                                                        "order": 13
                                                    }
                                                ],
                                                "depth": 3,
                                                "id": 11,
                                                "order": 11
                                            }
                                        ],
                                        "depth": 2,
                                        "id": 10,
                                        "order": 10
                                    },
                                    {
                                        "children": [],
                                        "depth": 2,
                                        "id": 17,
                                        "order": 17
                                    },
                                    {
                                        "children": [],
                                        "depth": 2,
                                        "id": 18,
                                        "order": 18
                                    }
                                ],
                                "depth": 1,
                                "id": 9,
                                "order": 9
                            }
                        ],
                        "depth": 0,
                        "id": 0,
                        "order": 0
                    }
                ],
                "depth": -1,
                "id": -1,
                "order": -1
            }
        ],
        "tidyTraceNodeCount": 12
    },
    "state_change": {
        "stateChanges": [
            {
                "address": "0x2e161d90e0b1f07b186e79d6dc836d4654aaf105",
                "erc": "ERC-20",
                "slots": [
                    {
                        "current": "0x0000000000000000000000000000000000000000000000000016293ec305ce34",
                        "key": "0xde9e768100b8e4586c9a76bc06828c0f4fee6f3f59082badcb42f13110ec15bb",
                        "prev": "0x000000000000000000000000000000000000000000000000001689110e43fb2a"
                    },
                    {
                        "current": "0x0000000000000000000000000000000000000000000000000002b516b23aef12",
                        "key": "0x2003c2a3735d6c2a4aac80846345d9193a0d6f8d801d102a5d04f3e625976f1d",
                        "prev": "0x00000000000000000000000000000000000000000000000000025a0eeabfddf5"
                    },
                    {
                        "current": "0x00000000000000000000000000000000000000000000000000000000000006c3",
                        "key": "0x0000000000000000000000000000000000000000000000000000000000000006",
                        "prev": "0x00000000000000000000000000000000000000000000000000000000000006c2"
                    },
                    {
                        "current": "0x0000000000000000000000000000000000000000000000000001596873636cbf",
                        "key": "0xf75f7e0cda43c30f99e18612dd66ec02236646d4da282ff7f0bc7a893bfec7da",
                        "prev": "0x0000000000000000000000000000000000000000000000000001549defa050e6"
                    }
                ],
                "storageVariables": [
                    {
                        "name": "_balances",
                        "type": "mapping(address => uint256)",
                        "value": {
                            "pairs": [
                                {
                                    "key": "0x2e161d90e0b1f07b186e79d6dc836d4654aaf105",
                                    "value": {
                                        "current": "379780124077247",
                                        "prev": "374512283570406",
                                        "typeTag": 1
                                    }
                                },
                                {
                                    "key": "0xb7035e0e3fd44b8d1ec82482d46aacdeb85ba353",
                                    "value": {
                                        "current": "6237799024283188",
                                        "prev": "6343155834420010",
                                        "typeTag": 1
                                    }
                                },
                                {
                                    "key": "0xfc86059387ecf22c08d72f54a56d514e367800dd",
                                    "value": {
                                        "current": "762059037536018",
                                        "prev": "661970067906037",
                                        "typeTag": 1
                                    }
                                }
                            ],
                            "typeTag": 4
                        }
                    },
                    {
                        "name": "_buyCount",
                        "type": "uint256",
                        "value": {
                            "current": "1731",
                            "prev": "1730",
                            "typeTag": 1
                        }
                    }
                ]
            },
            {
                "address": "0xb7035e0e3fd44b8d1ec82482d46aacdeb85ba353",
                "erc": "ERC-20",
                "slots": [
                    {
                        "current": "0x0000000000000000000000000000000004079e093e0dee8dc5384f0b184808d0",
                        "key": "0x000000000000000000000000000000000000000000000000000000000000000a",
                        "prev": "0x0000000000000000000000000000000004079c2f0185ae41122e69d9123dc3ac"
                    },
                    {
                        "current": "0x64daa3c70000000000009473d856087d0ec10000000000000016293ec305ce34",
                        "key": "0x0000000000000000000000000000000000000000000000000000000000000008",
                        "prev": "0x64daa3bb00000000000091fac06155838ec1000000000000001689110e43fb2a"
                    },
                    {
                        "current": "0x00000000000000000000000000000ffaaeacc073195f6ba19f268553b99d8520",
                        "key": "0x0000000000000000000000000000000000000000000000000000000000000009",
                        "prev": "0x00000000000000000000000000000ffa60f102008c0148dc6b5dc2720328abec"
                    }
                ],
                "storageVariables": [
                    {
                        "name": "price1CumulativeLast",
                        "type": "uint256",
                        "value": {
                            "current": "5356463414125160060324381065078114512",
                            "prev": "5356425841242310151971520164187194284",
                            "typeTag": 1
                        }
                    },
                    {
                        "name": "reserve0",
                        "type": "uint112",
                        "value": {
                            "current": "6237799024283188",
                            "prev": "6343155834420010",
                            "typeTag": 1
                        }
                    },
                    {
                        "name": "reserve1",
                        "type": "uint112",
                        "value": {
                            "current": "10697131403956260545",
                            "prev": "10518931403956260545",
                            "typeTag": 1
                        }
                    },
                    {
                        "name": "blockTimestampLast",
                        "type": "uint32",
                        "value": {
                            "current": "1692050375",
                            "prev": "1692050363",
                            "typeTag": 1
                        }
                    },
                    {
                        "name": "price0CumulativeLast",
                        "type": "uint256",
                        "value": {
                            "current": "1391987063356306293989173638770423972594976",
                            "prev": "1391883737978384723044139941511839770782700",
                            "typeTag": 1
                        }
                    }
                ]
            },
            {
                "address": "0xc02aaa39b223fe8d0a0e5c4f27ead9083c756cc2",
                "erc": "ERC-20",
                "slots": [
                    {
                        "current": "0x0000000000000000000000000000000000000000000000009473d856087d0ec1",
                        "key": "0xaf7773b6359f992e9b205912b5de2b25734b55a07398c95d14501c6d06e9d9a9",
                        "prev": "0x00000000000000000000000000000000000000000000000091fac06155838ec1"
                    }
                ],
                "storageVariables": [
                    {
                        "name": "balanceOf",
                        "type": "mapping(address => uint256)",
                        "value": {
                            "pairs": [
                                {
                                    "key": "0xb7035e0e3fd44b8d1ec82482d46aacdeb85ba353",
                                    "value": {
                                        "current": "10697131403956260545",
                                        "prev": "10518931403956260545",
                                        "typeTag": 1
                                    }
                                }
                            ],
                            "typeTag": 4
                        }
                    }
                ]
            }
        ]
    }
}