{
    "balance_change": {
        "balanceChanges": [
            {
                "account": "0x050c5f6101f5f30a2769b734e782bcd100bfc0e2",
                "assets": [
                    {
                        "address": "0xeeeeeeeeeeeeeeeeeeeeeeeeeeeeeeeeeeeeeeee",
                        "amount": "3.250910448026569407",
                        "iconUrl": "https://assets.blocksec.com/image/1663669189317-3.png",
                        "isERC1155": false,
                        "isERC721": false,
                        "sign": false,
                        "value": "3844.4616775958397634"
                    },
                    {
                        "address": "0xd33526068d116ce69f19a9ee46f0bd304f21a51f",
                        "amount": "200",
                        "iconUrl": "https://assets.blocksec.com/icon/ee8747c868d65183e438569370ddbe33611539e509a5118adab8193a583f40b2.png",
                        "isERC1155": false,
                        "isERC721": false,
                        "sign": true,
                        "value": "3874.000000000000199"
                    }
                ]
            },
            {
                "account": "0xc02aaa39b223fe8d0a0e5c4f27ead9083c756cc2",
                "assets": [
                    {
                        "address": "0xeeeeeeeeeeeeeeeeeeeeeeeeeeeeeeeeeeeeeeee",
                        "amount": "3.250910448026569407",
                        "iconUrl": "https://assets.blocksec.com/image/1663669189317-3.png",
                        "isERC1155": false,
                        "isERC721": false,
                        "sign": true,
                        "value": "3844.4616775958397634"
                    },
                    {
                        "address": "0xc02aaa39b223fe8d0a0e5c4f27ead9083c756cc2",
                        "amount": "3.250910448026569407",
                        "iconUrl": "https://assets.blocksec.com/icon/f1cb2d02c471d545bbc7722daf3277fd852d98e63d118771af7047bd8256c516.png",
                        "isERC1155": false,
                        "isERC721": false,
                        "sign": false,
                        "value": "3844.4616775958397634"
                    }
                ]
            },
            {
                "account": "0xe42318ea3b998e8355a3da364eb9d48ec725eb45",
                "assets": [
                    {
                        "address": "0xd33526068d116ce69f19a9ee46f0bd304f21a51f",
                        "amount": "200",
                        "iconUrl": "https://assets.blocksec.com/icon/ee8747c868d65183e438569370ddbe33611539e509a5118adab8193a583f40b2.png",
                        "isERC1155": false,
                        "isERC721": false,
                        "sign": false,
                        "value": "3874.000000000000199"
                    },
                    {
                        "address": "0xc02aaa39b223fe8d0a0e5c4f27ead9083c756cc2",
                        "amount": "3.250910448026569407",
                        "iconUrl": "https://assets.blocksec.com/icon/f1cb2d02c471d545bbc7722daf3277fd852d98e63d118771af7047bd8256c516.png",
                        "isERC1155": false,
                        "isERC721": false,
                        "sign": true,
                        "value": "3844.4616775958397634"
                    }
                ]
            }
        ]
    },
    "profile": {
        "basic_info": {
            "baseFee": "11.307432866",
            "blockNumber": 16217303,
            "callData": "0x5ae401dc0000000000000000000000000000000000000000000000000000000063a01873000000000000000000000000000000000000000000000000000000000000004000000000000000000000000000000000000000000000000000000000000000020000000000000000000000000000000000000000000000000000000000000040000000000000000000000000000000000000000000000000000000000000016000000000000000000000000000000000000000000000000000000000000000e45023b4df000000000000000000000000c02aaa39b223fe8d0a0e5c4f27ead9083c756cc2000000000000000000000000d33526068d116ce69f19a9ee46f0bd304f21a51f0000000000000000000000000000000000000000000000000000000000000bb8000000000000000000000000050c5f6101f5f30a2769b734e782bcd100bfc0e200000000000000000000000000000000000000000000000ad78ebc5ac62000000000000000000000000000000000000000000000000000002d910cafcbbdf09d000000000000000000000000000000000000000000000000000000000000000000000000000000000000000000000000000000000000000000000000000000000000000000000000000000000000000000000000000000000000000412210e8a00000000000000000000000000000000000000000000000000000000",
            "debugEnable": true,
            "errorInfo": "",
            "eventCount": 4,
            "feeRecipient": "0xdafea492d9c6733ae3d56b7ed1adb60692c98bc5",
            "formatValue": "3.283419552506835101",
            "gasLimit": 181322,
            "gasPrice": "13.307432866",
            "gasUsed": 127138,
            "intTxnCount": 10,
            "internalRevert": false,
            "internalRevertMessage": "",
            "isContractCreation": false,
            "isFlashloan": false,
            "maxFee": "21.254936318",
            "nonce": 113,
            "overwritedBlockNumber": -1,
            "priorityFee": "2",
            "receiver": "0x68b3465833fb72a70ecdf485e0e4c7bd8665fc45",
            "revertMessage": "",
            "sender": "0x050c5f6101f5f30a2769b734e782bcd100bfc0e2",
            "simulationEnable": true,
            "sourceTxnHash": "0x7bf483ee935452b7c4fe18204f73238532a3aac48aa3c7093918d1965839d00b",
            "status": true,
            "timestamp": "2022-12-19T07:39:23Z",
            "transactionFee": "0.001691880399717508",
            "txnHash": "0x7bf483ee935452b7c4fe18204f73238532a3aac48aa3c7093918d1965839d00b",
            "txnIndex": 28,
            "type": 2,
            "value": "3283419552506835101"
        },
        "fund_flow": [
            {
                "amount": "3.283419552506835101",
                "from": "0x050c5f6101f5f30a2769b734e782bcd100bfc0e2",
                "id": 1,
                "isERC1155": false,
                "isERC721": false,
                "isReverted": false,
                "order": 1,
                "to": "0x68b3465833fb72a70ecdf485e0e4c7bd8665fc45",
                "token": "0xeeeeeeeeeeeeeeeeeeeeeeeeeeeeeeeeeeeeeeee"
            },
            {
                "amount": "200",
                "from": "0xe42318ea3b998e8355a3da364eb9d48ec725eb45",
                "id": 2,
                "isERC1155": false,
                "isERC721": false,
                "isReverted": false,
                "order": 2,
                "to": "0x050c5f6101f5f30a2769b734e782bcd100bfc0e2",
                "token": "0xd33526068d116ce69f19a9ee46f0bd304f21a51f"
            },
            {
                "amount": "3.250910448026569407",
                "from": "0x68b3465833fb72a70ecdf485e0e4c7bd8665fc45",
                "id": 3,
                "isERC1155": false,
                "isERC721": false,
                "isReverted": false,
                "order": 3,
                "to": "0xc02aaa39b223fe8d0a0e5c4f27ead9083c756cc2",
                "token": "0xeeeeeeeeeeeeeeeeeeeeeeeeeeeeeeeeeeeeeeee"
            },
            {
                "amount": "3.250910448026569407",
                "from": "0xc02aaa39b223fe8d0a0e5c4f27ead9083c756cc2",
                "id": 4,
                "isERC1155": false,
                "isERC721": false,
                "isReverted": false,
                "order": 4,
                "to": "0x68b3465833fb72a70ecdf485e0e4c7bd8665fc45",
                "token": "0xc02aaa39b223fe8d0a0e5c4f27ead9083c756cc2"
            },
            {
                "amount": "3.250910448026569407",
                "from": "0x68b3465833fb72a70ecdf485e0e4c7bd8665fc45",
                "id": 5,
                "isERC1155": false,
                "isERC721": false,
                "isReverted": false,
                "order": 5,
                "to": "0xe42318ea3b998e8355a3da364eb9d48ec725eb45",
                "token": "0xc02aaa39b223fe8d0a0e5c4f27ead9083c756cc2"
            },
            {
                "amount": "0.032509104480265694",
                "from": "0x68b3465833fb72a70ecdf485e0e4c7bd8665fc45",
                "id": 6,
                "isERC1155": false,
                "isERC721": false,
                "isReverted": false,
                "order": 6,
                "to": "0x050c5f6101f5f30a2769b734e782bcd100bfc0e2",
                "token": "0xeeeeeeeeeeeeeeeeeeeeeeeeeeeeeeeeeeeeeeee"
            }
        ],
        "token_infos": [
            {
                "address": "0xc02aaa39b223fe8d0a0e5c4f27ead9083c756cc2",
                "decimals": 18
            },
            {
                "address": "0xd33526068d116ce69f19a9ee46f0bd304f21a51f",
                "decimals": 18
            },
            {
                "address": "0xeeeeeeeeeeeeeeeeeeeeeeeeeeeeeeeeeeeeeeee",
                "decimals": 18
            }
        ]
    },
    "address_label": {
        "labels": [
            {
                "address": "0xd33526068d116ce69f19a9ee46f0bd304f21a51f",
                "label": "Rocket Pool: RPL Token"
            },
            {
                "address": "0x68b3465833fb72a70ecdf485e0e4c7bd8665fc45",
                "label": "Uniswap V3: Router 2"
            },
            {
                "address": "0x0000000000000000000000000000000000000001",
                "label": "Precompiled"
            },
            {
                "address": "0x0000000000000000000000000000000000000004",
                "label": "Precompiled"
            },
            {
                "address": "0xeeeeeeeeeeeeeeeeeeeeeeeeeeeeeeeeeeeeeeee",
                "label": "Ether"
            },
            {
                "address": "0xc02aaa39b223fe8d0a0e5c4f27ead9083c756cc2",
                "label": "Wrapped Ether (WETH)"
            },
            {
                "address": "0xe42318ea3b998e8355a3da364eb9d48ec725eb45",
                "label": "Uniswap V3: RPL 4"
            },
            {
                "address": "0x0000000000000000000000000000000000000002",
                "label": "Precompiled"
            },
            {
                "address": "0x0000000000000000000000000000000000000003",
                "label": "Precompiled"
            }
        ]
    },
    "trace": {
        "accountLabels": null,
        "dataMap": {
            "-1": {
                "invocation": {
                    "address": "0x050c5f6101f5f30a2769b734e782bcd100bfc0e2",
                    "callData": "",
                    "decodedMethod": null,
                    "errorInfo": "",
                    "fromAddress": "",
                    "gasUsed": 0,
                    "id": -1,
                    "methodDecoded": false,
                    "operation": "",
                    "output": "",
                    "revert": false,
                    "revertMessage": "",
                    "selector": "",
                    "status": false,
                    "value": ""
                },
                "nodeType": 0
            },
            "0": {
                "invocation": {
                    "address": "0x68b3465833fb72a70ecdf485e0e4c7bd8665fc45",
                    "callData": "0x0000000000000000000000000000000000000000000000000000000063a01873000000000000000000000000000000000000000000000000000000000000004000000000000000000000000000000000000000000000000000000000000000020000000000000000000000000000000000000000000000000000000000000040000000000000000000000000000000000000000000000000000000000000016000000000000000000000000000000000000000000000000000000000000000e45023b4df000000000000000000000000c02aaa39b223fe8d0a0e5c4f27ead9083c756cc2000000000000000000000000d33526068d116ce69f19a9ee46f0bd304f21a51f0000000000000000000000000000000000000000000000000000000000000bb8000000000000000000000000050c5f6101f5f30a2769b734e782bcd100bfc0e200000000000000000000000000000000000000000000000ad78ebc5ac62000000000000000000000000000000000000000000000000000002d910cafcbbdf09d000000000000000000000000000000000000000000000000000000000000000000000000000000000000000000000000000000000000000000000000000000000000000000000000000000000000000000000000000000000000000412210e8a00000000000000000000000000000000000000000000000000000000",
                    "decodedMethod": {
                        "callParams": [
                            {
                                "name": "deadline",
                                "type": "uint256",
                                "value": "1,671,436,403"
                            },
                            {
                                "name": "data",
                                "type": "bytes[]",
                                "value": [
                                    "0x5023b4df000000000000000000000000c02aaa39b223fe8d0a0e5c4f27ead9083c756cc2000000000000000000000000d33526068d116ce69f19a9ee46f0bd304f21a51f0000000000000000000000000000000000000000000000000000000000000bb8000000000000000000000000050c5f6101f5f30a2769b734e782bcd100bfc0e200000000000000000000000000000000000000000000000ad78ebc5ac62000000000000000000000000000000000000000000000000000002d910cafcbbdf09d0000000000000000000000000000000000000000000000000000000000000000",
                                    "0x12210e8a"
                                ]
                            }
                        ],
                        "constructorArguments": "",
                        "name": "multicall",
                        "returnParams": [
                            {
                                "name": "",
                                "type": "bytes[]",
                                "value": [
                                    "0x0000000000000000000000000000000000000000000000002d1d8dd4133acabf",
                                    "0x"
                                ]
                            }
                        ],
                        "signature": "multicall(uint256,bytes[])"
                    },
                    "errorInfo": "",
                    "fromAddress": "0x050c5f6101f5f30a2769b734e782bcd100bfc0e2",
                    "gasUsed": 127138,
                    "id": 0,
                    "methodDecoded": true,
                    "operation": "CALL",
                    "output": "0x000000000000000000000000000000000000000000000000000000000000002000000000000000000000000000000000000000000000000000000000000000020000000000000000000000000000000000000000000000000000000000000040000000000000000000000000000000000000000000000000000000000000008000000000000000000000000000000000000000000000000000000000000000200000000000000000000000000000000000000000000000002d1d8dd4133acabf0000000000000000000000000000000000000000000000000000000000000000",
                    "revert": false,
                    "revertMessage": "",
                    "selector": "0x5ae401dc",
                    "status": true,
                    "value": "3.283419552506835101"
                },
                "nodeType": 0
            },
            "1": {
                "invocation": {
                    "address": "0x68b3465833fb72a70ecdf485e0e4c7bd8665fc45",
                    "callData": "0x000000000000000000000000c02aaa39b223fe8d0a0e5c4f27ead9083c756cc2000000000000000000000000d33526068d116ce69f19a9ee46f0bd304f21a51f0000000000000000000000000000000000000000000000000000000000000bb8000000000000000000000000050c5f6101f5f30a2769b734e782bcd100bfc0e200000000000000000000000000000000000000000000000ad78ebc5ac62000000000000000000000000000000000000000000000000000002d910cafcbbdf09d0000000000000000000000000000000000000000000000000000000000000000",
                    "decodedMethod": {
                        "callParams": [
                            {
                                "name": "params",
                                "type": "(address,address,uint24,address,uint256,uint256,uint160)",
                                "value": [
                                    {
                                        "name": "tokenIn",
                                        "type": "address",
                                        "value": "0xc02aaa39b223fe8d0a0e5c4f27ead9083c756cc2"
                                    },
                                    {
                                        "name": "tokenOut",
                                        "type": "address",
                                        "value": "0xd33526068d116ce69f19a9ee46f0bd304f21a51f"
                                    },
                                    {
                                        "name": "fee",
                                        "type": "uint24",
                                        "value": "3,000"
                                    },
                                    {
                                        "name": "recipient",
                                        "type": "address",
                                        "value": "0x050c5f6101f5f30a2769b734e782bcd100bfc0e2"
                                    },
                                    {
                                        "name": "amountOut",
                                        "type": "uint256",
                                        "value": "200,000,000,000,000,000,000"
                                    },
                                    {
                                        "name": "amountInMaximum",
                                        "type": "uint256",
                                        "value": "3,283,419,552,506,835,101"
                                    },
                                    {
                                        "name": "sqrtPriceLimitX96",
                                        "type": "uint160",
                                        "value": "0"
                                    }
                                ]
                            }
                        ],
                        "constructorArguments": "",
                        "name": "exactOutputSingle",
                        "returnParams": [
                            {
                                "name": "amountIn",
                                "type": "uint256",
                                "value": "3,250,910,448,026,569,407"
                            }
                        ],
                        "signature": "exactOutputSingle((address,address,uint24,address,uint256,uint256,uint160))"
                    },
                    "errorInfo": "",
                    "fromAddress": "0x68b3465833fb72a70ecdf485e0e4c7bd8665fc45",
                    "gasUsed": 114965,
                    "id": 1,
                    "methodDecoded": true,
                    "operation": "DELEGATECALL",
                    "output": "0x0000000000000000000000000000000000000000000000002d1d8dd4133acabf",
                    "revert": false,
                    "revertMessage": "",
                    "selector": "0x5023b4df",
                    "status": true,
                    "value": "3.283419552506835101"
                },
                "nodeType": 0
            },
            "10": {
                "event": {
                    "contract": "0xc02aaa39b223fe8d0a0e5c4f27ead9083c756cc2",
                    "decodedLog": {
                        "name": "Transfer",
                        "params": [
                            {
                                "name": "src",
                                "type": "address",
                                "value": "0x68b3465833fb72a70ecdf485e0e4c7bd8665fc45"
                            },
                            {
                                "name": "dst",
                                "type": "address",
                                "value": "0xe42318ea3b998e8355a3da364eb9d48ec725eb45"
                            },
                            {
                                "decimalAvailable": true,
                                "name": "wad",
                                "type": "uint256",
                                "value": "3,250,910,448,026,569,407"
                            }
                        ],
                        "signature": "Transfer(address,address,uint256)"
                    },
                    "id": 10,
                    "logData": "0x0000000000000000000000000000000000000000000000002d1d8dd4133acabf",
                    "logDecoded": true,
                    "operation": "EVENT",
                    "revert": false,
                    "status": true,
                    "topics": [
                        "0xddf252ad1be2c89b69c2b068fc378daa952ba7f163c4a11628f55a4df523b3ef",
                        "0x00000000000000000000000068b3465833fb72a70ecdf485e0e4c7bd8665fc45",
                        "0x000000000000000000000000e42318ea3b998e8355a3da364eb9d48ec725eb45"
                    ]
                },
                "nodeType": 1
            },
            "11": {
                "invocation": {
                    "address": "0xc02aaa39b223fe8d0a0e5c4f27ead9083c756cc2",
                    "callData": "0x000000000000000000000000e42318ea3b998e8355a3da364eb9d48ec725eb45",
                    "decodedMethod": {
                        "callParams": [
                            {
                                "name": "",
                                "type": "address",
                                "value": "0xe42318ea3b998e8355a3da364eb9d48ec725eb45"
                            }
                        ],
                        "constructorArguments": "",
                        "name": "balanceOf",
                        "returnParams": [
                            {
                                "decimalAvailable": true,
                                "name": "",
                                "type": "uint256",
                                "value": "376,311,833,328,633,722,897"
                            }
                        ],
                        "signature": "balanceOf(address)"
                    },
                    "errorInfo": "",
                    "fromAddress": "0xe42318ea3b998e8355a3da364eb9d48ec725eb45",
                    "gasUsed": 534,
                    "id": 11,
                    "methodDecoded": true,
                    "operation": "STATICCALL",
                    "output": "0x000000000000000000000000000000000000000000000014666032a079373811",
                    "revert": false,
                    "revertMessage": "",
                    "selector": "0x70a08231",
                    "status": true,
                    "value": "0"
                },
                "nodeType": 0
            },
            "12": {
                "event": {
                    "contract": "0xe42318ea3b998e8355a3da364eb9d48ec725eb45",
                    "decodedLog": {
                        "name": "Swap",
                        "params": [
                            {
                                "name": "sender",
                                "type": "address",
                                "value": "0x68b3465833fb72a70ecdf485e0e4c7bd8665fc45"
                            },
                            {
                                "name": "recipient",
                                "type": "address",
                                "value": "0x050c5f6101f5f30a2769b734e782bcd100bfc0e2"
                            },
                            {
                                "name": "amount0",
                                "type": "int256",
                                "value": "3,250,910,448,026,569,407"
                            },
                            {
                                "name": "amount1",
                                "type": "int256",
                                "value": "-200,000,000,000,000,000,000"
                            },
                            {
                                "name": "sqrtPriceX96",
                                "type": "uint160",
                                "value": "622,177,206,004,034,760,334,789,288,849"
                            },
                            {
                                "name": "liquidity",
                                "type": "uint128",
                                "value": "42,396,684,707,769,911,930,727"
                            },
                            {
                                "name": "tick",
                                "type": "int24",
                                "value": "41,219"
                            }
                        ],
                        "signature": "Swap(address,address,int256,int256,uint160,uint128,int24)"
                    },
                    "id": 12,
                    "logData": "0x0000000000000000000000000000000000000000000000002d1d8dd4133acabffffffffffffffffffffffffffffffffffffffffffffffff5287143a539e000000000000000000000000000000000000000000007da5cec2106db72a6e2b3a3910000000000000000000000000000000000000000000008fa5431b2743d7cef67000000000000000000000000000000000000000000000000000000000000a103",
                    "logDecoded": true,
                    "operation": "EVENT",
                    "revert": false,
                    "status": true,
                    "topics": [
                        "0xc42079f94a6350d7e6235f29174924f928cc2ac818eb64fed8004e115fbcca67",
                        "0x00000000000000000000000068b3465833fb72a70ecdf485e0e4c7bd8665fc45",
                        "0x000000000000000000000000050c5f6101f5f30a2769b734e782bcd100bfc0e2"
                    ]
                },
                "nodeType": 1
            },
            "13": {
                "invocation": {
                    "address": "0x68b3465833fb72a70ecdf485e0e4c7bd8665fc45",
                    "callData": "0x",
                    "decodedMethod": {
                        "callParams": [],
                        "constructorArguments": "",
                        "name": "refundETH",
                        "returnParams": [],
                        "signature": "refundETH()"
                    },
                    "errorInfo": "",
                    "fromAddress": "0x68b3465833fb72a70ecdf485e0e4c7bd8665fc45",
                    "gasUsed": 7468,
                    "id": 13,
                    "methodDecoded": true,
                    "operation": "DELEGATECALL",
                    "output": "",
                    "revert": false,
                    "revertMessage": "",
                    "selector": "0x12210e8a",
                    "status": true,
                    "value": "3.283419552506835101"
                },
                "nodeType": 0
            },
            "14": {
                "invocation": {
                    "address": "0x050c5f6101f5f30a2769b734e782bcd100bfc0e2",
                    "callData": "0x",
                    "decodedMethod": null,
                    "errorInfo": "",
                    "fromAddress": "0x68b3465833fb72a70ecdf485e0e4c7bd8665fc45",
                    "gasUsed": 0,
                    "id": 14,
                    "methodDecoded": false,
                    "operation": "CALL",
                    "output": "",
                    "revert": false,
                    "revertMessage": "",
                    "selector": "fallback",
                    "status": true,
                    "value": "0.032509104480265694"
                },
                "nodeType": 0
            },
            "2": {
                "invocation": {
                    "address": "0xe42318ea3b998e8355a3da364eb9d48ec725eb45",
                    "callData": "0x000000000000000000000000050c5f6101f5f30a2769b734e782bcd100bfc0e20000000000000000000000000000000000000000000000000000000000000001fffffffffffffffffffffffffffffffffffffffffffffff5287143a539e0000000000000000000000000000000000000000000000000000000000001000276a400000000000000000000000000000000000000000000000000000000000000a000000000000000000000000000000000000000000000000000000000000000c000000000000000000000000000000000000000000000000000000000000000200000000000000000000000000000000000000000000000000000000000000040000000000000000000000000050c5f6101f5f30a2769b734e782bcd100bfc0e2000000000000000000000000000000000000000000000000000000000000002bd33526068d116ce69f19a9ee46f0bd304f21a51f000bb8c02aaa39b223fe8d0a0e5c4f27ead9083c756cc2000000000000000000000000000000000000000000",
                    "decodedMethod": {
                        "callParams": [
                            {
                                "name": "recipient",
                                "type": "address",
                                "value": "0x050c5f6101f5f30a2769b734e782bcd100bfc0e2"
                            },
                            {
                                "name": "zeroForOne",
                                "type": "bool",
                                "value": true
                            },
                            {
                                "name": "amountSpecified",
                                "type": "int256",
                                "value": "-200,000,000,000,000,000,000"
                            },
                            {
                                "name": "sqrtPriceLimitX96",
                                "type": "uint160",
                                "value": "4,295,128,740"
                            },
                            {
                                "name": "data",
                                "type": "bytes",
                                "value": "0x00000000000000000000000000000000000000000000000000000000000000200000000000000000000000000000000000000000000000000000000000000040000000000000000000000000050c5f6101f5f30a2769b734e782bcd100bfc0e2000000000000000000000000000000000000000000000000000000000000002bd33526068d116ce69f19a9ee46f0bd304f21a51f000bb8c02aaa39b223fe8d0a0e5c4f27ead9083c756cc2000000000000000000000000000000000000000000"
                            }
                        ],
                        "constructorArguments": "",
                        "name": "swap",
                        "returnParams": [
                            {
                                "name": "amount0",
                                "type": "int256",
                                "value": "3,250,910,448,026,569,407"
                            },
                            {
                                "name": "amount1",
                                "type": "int256",
                                "value": "-200,000,000,000,000,000,000"
                            }
                        ],
                        "signature": "swap(address,bool,int256,uint160,bytes)"
                    },
                    "errorInfo": "",
                    "fromAddress": "0x68b3465833fb72a70ecdf485e0e4c7bd8665fc45",
                    "gasUsed": 107355,
                    "id": 2,
                    "methodDecoded": true,
                    "operation": "CALL",
                    "output": "0x0000000000000000000000000000000000000000000000002d1d8dd4133acabffffffffffffffffffffffffffffffffffffffffffffffff5287143a539e00000",
                    "revert": false,
                    "revertMessage": "",
                    "selector": "0x128acb08",
                    "status": true,
                    "value": "0"
                },
                "nodeType": 0
            },
            "3": {
                "invocation": {
                    "address": "0xd33526068d116ce69f19a9ee46f0bd304f21a51f",
                    "callData": "0x000000000000000000000000050c5f6101f5f30a2769b734e782bcd100bfc0e200000000000000000000000000000000000000000000000ad78ebc5ac6200000",
                    "decodedMethod": {
                        "callParams": [
                            {
                                "name": "recipient",
                                "type": "address",
                                "value": "0x050c5f6101f5f30a2769b734e782bcd100bfc0e2"
                            },
                            {
                                "decimalAvailable": true,
                                "name": "amount",
                                "type": "uint256",
                                "value": "200,000,000,000,000,000,000"
                            }
                        ],
                        "constructorArguments": "",
                        "name": "transfer",
                        "returnParams": [
                            {
                                "name": "",
                                "type": "bool",
                                "value": true
                            }
                        ],
                        "signature": "transfer(address,uint256)"
                    },
                    "errorInfo": "",
                    "fromAddress": "0xe42318ea3b998e8355a3da364eb9d48ec725eb45",
                    "gasUsed": 12872,
                    "id": 3,
                    "methodDecoded": true,
                    "operation": "CALL",
                    "output": "0x0000000000000000000000000000000000000000000000000000000000000001",
                    "revert": false,
                    "revertMessage": "",
                    "selector": "0xa9059cbb",
                    "status": true,
                    "value": "0"
                },
                "nodeType": 0
            },
            "4": {
                "event": {
                    "contract": "0xd33526068d116ce69f19a9ee46f0bd304f21a51f",
                    "decodedLog": {
                        "name": "Transfer",
                        "params": [
                            {
                                "name": "from",
                                "type": "address",
                                "value": "0xe42318ea3b998e8355a3da364eb9d48ec725eb45"
                            },
                            {
                                "name": "to",
                                "type": "address",
                                "value": "0x050c5f6101f5f30a2769b734e782bcd100bfc0e2"
                            },
                            {
                                "decimalAvailable": true,
                                "name": "value",
                                "type": "uint256",
                                "value": "200,000,000,000,000,000,000"
                            }
                        ],
                        "signature": "Transfer(address,address,uint256)"
                    },
                    "id": 4,
                    "logData": "0x00000000000000000000000000000000000000000000000ad78ebc5ac6200000",
                    "logDecoded": true,
                    "operation": "EVENT",
                    "revert": false,
                    "status": true,
                    "topics": [
                        "0xddf252ad1be2c89b69c2b068fc378daa952ba7f163c4a11628f55a4df523b3ef",
                        "0x000000000000000000000000e42318ea3b998e8355a3da364eb9d48ec725eb45",
                        "0x000000000000000000000000050c5f6101f5f30a2769b734e782bcd100bfc0e2"
                    ]
                },
                "nodeType": 1
            },
            "5": {
                "invocation": {
                    "address": "0xc02aaa39b223fe8d0a0e5c4f27ead9083c756cc2",
                    "callData": "0x000000000000000000000000e42318ea3b998e8355a3da364eb9d48ec725eb45",
                    "decodedMethod": {
                        "callParams": [
                            {
                                "name": "",
                                "type": "address",
                                "value": "0xe42318ea3b998e8355a3da364eb9d48ec725eb45"
                            }
                        ],
                        "constructorArguments": "",
                        "name": "balanceOf",
                        "returnParams": [
                            {
                                "decimalAvailable": true,
                                "name": "",
                                "type": "uint256",
                                "value": "373,060,922,880,607,153,490"
                            }
                        ],
                        "signature": "balanceOf(address)"
                    },
                    "errorInfo": "",
                    "fromAddress": "0xe42318ea3b998e8355a3da364eb9d48ec725eb45",
                    "gasUsed": 2534,
                    "id": 5,
                    "methodDecoded": true,
                    "operation": "STATICCALL",
                    "output": "0x0000000000000000000000000000000000000000000000143942a4cc65fc6d52",
                    "revert": false,
                    "revertMessage": "",
                    "selector": "0x70a08231",
                    "status": true,
                    "value": "0"
                },
                "nodeType": 0
            },
            "6": {
                "invocation": {
                    "address": "0x68b3465833fb72a70ecdf485e0e4c7bd8665fc45",
                    "callData": "0x0000000000000000000000000000000000000000000000002d1d8dd4133acabffffffffffffffffffffffffffffffffffffffffffffffff5287143a539e00000000000000000000000000000000000000000000000000000000000000000006000000000000000000000000000000000000000000000000000000000000000c000000000000000000000000000000000000000000000000000000000000000200000000000000000000000000000000000000000000000000000000000000040000000000000000000000000050c5f6101f5f30a2769b734e782bcd100bfc0e2000000000000000000000000000000000000000000000000000000000000002bd33526068d116ce69f19a9ee46f0bd304f21a51f000bb8c02aaa39b223fe8d0a0e5c4f27ead9083c756cc2000000000000000000000000000000000000000000",
                    "decodedMethod": {
                        "callParams": [
                            {
                                "name": "amount0Delta",
                                "type": "int256",
                                "value": "3,250,910,448,026,569,407"
                            },
                            {
                                "name": "amount1Delta",
                                "type": "int256",
                                "value": "-200,000,000,000,000,000,000"
                            },
                            {
                                "name": "_data",
                                "type": "bytes",
                                "value": "0x00000000000000000000000000000000000000000000000000000000000000200000000000000000000000000000000000000000000000000000000000000040000000000000000000000000050c5f6101f5f30a2769b734e782bcd100bfc0e2000000000000000000000000000000000000000000000000000000000000002bd33526068d116ce69f19a9ee46f0bd304f21a51f000bb8c02aaa39b223fe8d0a0e5c4f27ead9083c756cc2000000000000000000000000000000000000000000"
                            }
                        ],
                        "constructorArguments": "",
                        "name": "uniswapV3SwapCallback",
                        "returnParams": [],
                        "signature": "uniswapV3SwapCallback(int256,int256,bytes)"
                    },
                    "errorInfo": "",
                    "fromAddress": "0xe42318ea3b998e8355a3da364eb9d48ec725eb45",
                    "gasUsed": 45592,
                    "id": 6,
                    "methodDecoded": true,
                    "operation": "CALL",
                    "output": "",
                    "revert": false,
                    "revertMessage": "",
                    "selector": "0xfa461e33",
                    "status": true,
                    "value": "0"
                },
                "nodeType": 0
            },
            "7": {
                "invocation": {
                    "address": "0xc02aaa39b223fe8d0a0e5c4f27ead9083c756cc2",
                    "callData": "0x",
                    "decodedMethod": {
                        "callParams": [],
                        "constructorArguments": "",
                        "name": "deposit",
                        "returnParams": [],
                        "signature": "deposit()"
                    },
                    "errorInfo": "",
                    "fromAddress": "0x68b3465833fb72a70ecdf485e0e4c7bd8665fc45",
                    "gasUsed": 23974,
                    "id": 7,
                    "methodDecoded": true,
                    "operation": "CALL",
                    "output": "",
                    "revert": false,
                    "revertMessage": "",
                    "selector": "0xd0e30db0",
                    "status": true,
                    "value": "3.250910448026569407"
                },
                "nodeType": 0
            },
            "8": {
                "event": {
                    "contract": "0xc02aaa39b223fe8d0a0e5c4f27ead9083c756cc2",
                    "decodedLog": {
                        "name": "Deposit",
                        "params": [
                            {
                                "name": "dst",
                                "type": "address",
                                "value": "0x68b3465833fb72a70ecdf485e0e4c7bd8665fc45"
                            },
                            {
                                "name": "wad",
                                "type": "uint256",
                                "value": "3,250,910,448,026,569,407"
                            }
                        ],
                        "signature": "Deposit(address,uint256)"
                    },
                    "id": 8,
                    "logData": "0x0000000000000000000000000000000000000000000000002d1d8dd4133acabf",
                    "logDecoded": true,
                    "operation": "EVENT",
                    "revert": false,
                    "status": true,
                    "topics": [
                        "0xe1fffcc4923d04b559f4d29a8bfc6cda04eb5b0d3c460751c2402c5c5cc9109c",
                        "0x00000000000000000000000068b3465833fb72a70ecdf485e0e4c7bd8665fc45"
                    ]
                },
                "nodeType": 1
            },
            "9": {
                "invocation": {
                    "address": "0xc02aaa39b223fe8d0a0e5c4f27ead9083c756cc2",
                    "callData": "0x000000000000000000000000e42318ea3b998e8355a3da364eb9d48ec725eb450000000000000000000000000000000000000000000000002d1d8dd4133acabf",
                    "decodedMethod": {
                        "callParams": [
                            {
                                "name": "dst",
                                "type": "address",
                                "value": "0xe42318ea3b998e8355a3da364eb9d48ec725eb45"
                            },
                            {
                                "decimalAvailable": true,
                                "name": "wad",
                                "type": "uint256",
                                "value": "3,250,910,448,026,569,407"
                            }
                        ],
                        "constructorArguments": "",
                        "name": "transfer",
                        "returnParams": [
                            {
                                "name": "",
                                "type": "bool",
                                "value": true
                            }
                        ],
                        "signature": "transfer(address,uint256)"
                    },
                    "errorInfo": "",
                    "fromAddress": "0x68b3465833fb72a70ecdf485e0e4c7bd8665fc45",
                    "gasUsed": 6062,
                    "id": 9,
                    "methodDecoded": true,
                    "operation": "CALL",
                    "output": "0x0000000000000000000000000000000000000000000000000000000000000001",
                    "revert": false,
                    "revertMessage": "",
                    "selector": "0xa9059cbb",
                    "status": true,
                    "value": "0"
                },
                "nodeType": 0
            }
        },
        "gasFlame": [
            {
                "children": [
                    {
                        "children": [
                            {
                                "children": [],
                                "depth": 0,
                                "name": "Initial Gas",
                                "value": 24252
                            },
                            {
                                "children": [
                                    {
                                        "children": [
                                            {
                                                "children": [
                                                    {
                                                        "children": [],
                                                        "depth": 3,
                                                        "name": "transfer",
                                                        "value": 12872
                                                    },
                                                    {
                                                        "children": [],
                                                        "depth": 3,
                                                        "name": "balanceOf",
                                                        "value": 2534
                                                    },
                                                    {
                                                        "children": [
                                                            {
                                                                "children": [],
                                                                "depth": 4,
                                                                "name": "deposit",
                                                                "value": 23974
                                                            },
                                                            {
                                                                "children": [],
                                                                "depth": 4,
                                                                "name": "transfer",
                                                                "value": 6062
                                                            }
                                                        ],
                                                        "depth": 3,
                                                        "name": "uniswapV3SwapCallback",
                                                        "value": 45592
                                                    },
                                                    {
                                                        "children": [],
                                                        "depth": 3,
                                                        "name": "balanceOf",
                                                        "value": 534
                                                    }
                                                ],
                                                "depth": 2,
                                                "name": "swap",
                                                "value": 107355
                                            }
                                        ],
                                        "depth": 1,
                                        "name": "exactOutputSingle",
                                        "value": 114965
                                    },
                                    {
                                        "children": [
                                            {
                                                "children": [],
                                                "depth": 2,
                                                "name": "fallback",
                                                "value": 0
                                            }
                                        ],
                                        "depth": 1,
                                        "name": "refundETH",
                                        "value": 7468
                                    }
                                ],
                                "depth": 0,
                                "name": "Executed Gas",
                                "value": 125586
                            }
                        ],
                        "depth": -1,
                        "name": "Actual Gas Used",
                        "value": 127138
                    },
                    {
                        "children": [],
                        "depth": -1,
                        "name": "Refunded Gas",
                        "value": 22700
                    }
                ],
                "depth": -2,
                "name": "Total Gas",
                "value": 149838
            }
        ],
        "isConfirmed": true,
        "mainTrace": [
            {
                "children": [
                    {
                        "children": [
                            {
                                "children": [
                                    {
                                        "children": [
                                            {
                                                "children": [
                                                    {
                                                        "children": [],
                                                        "depth": 4,
                                                        "id": 4,
                                                        "order": 4
                                                    }
                                                ],
                                                "depth": 3,
                                                "id": 3,
                                                "order": 3
                                            },
                                            {
                                                "children": [],
                                                "depth": 3,
                                                "id": 5,
                                                "order": 5
                                            },
                                            {
                                                "children": [
                                                    {
                                                        "children": [
                                                            {
                                                                "children": [],
                                                                "depth": 5,
                                                                "id": 8,
                                                                "order": 8
                                                            }
                                                        ],
                                                        "depth": 4,
                                                        "id": 7,
                                                        "order": 7
                                                    },
                                                    {
                                                        "children": [
                                                            {
                                                                "children": [],
                                                                "depth": 5,
                                                                "id": 10,
                                                                "order": 10
                                                            }
                                                        ],
                                                        "depth": 4,
                                                        "id": 9,
                                                        "order": 9
                                                    }
                                                ],
                                                "depth": 3,
                                                "id": 6,
                                                "order": 6
                                            },
                                            {
                                                "children": [],
                                                "depth": 3,
                                                "id": 11,
                                                "order": 11
                                            },
                                            {
                                                "children": [],
                                                "depth": 3,
                                                "id": 12,
                                                "order": 12
                                            }
                                        ],
                                        "depth": 2,
                                        "id": 2,
                                        "order": 2
                                    }
                                ],
                                "depth": 1,
                                "id": 1,
                                "order": 1
                            },
                            {
                                "children": [
                                    {
                                        "children": [],
                                        "depth": 2,
                                        "id": 14,
                                        "order": 14
                                    }
                                ],
                                "depth": 1,
                                "id": 13,
                                "order": 13
                            }
                        ],
                        "depth": 0,
                        "id": 0,
                        "order": 0
                    }
                ],
                "depth": -1,
                "id": -1,
                "order": -1
            }
        ],
        "mainTraceNodeCount": 15,
        "parentIdMap": {
            "0": -1,
            "1": 0,
            "10": 9,
            "11": 2,
            "12": 2,
            "13": 0,
            "14": 13,
            "2": 1,
            "3": 2,
            "4": 3,
            "5": 2,
            "6": 2,
            "7": 6,
            "8": 7,
            "9": 6
        },
        "tidyTrace": [
            {
                "children": [
                    {
                        "children": [
                            {
                                "children": [
                                    {
                                        "children": [
                                            {
                                                "children": [
                                                    {
                                                        "children": [],
                                                        "depth": 4,
                                                        "id": 4,
                                                        "order": 4
                                                    }
                                                ],
                                                "depth": 3,
                                                "id": 3,
                                                "order": 3
                                            },
                                            {
                                                "children": [
                                                    {
                                                        "children": [
                                                            {
                                                                "children": [],
                                                                "depth": 5,
                                                                "id": 8,
                                                                "order": 8
                                                            }
                                                        ],
                                                        "depth": 4,
                                                        "id": 7,
                                                        "order": 7
                                                    },
                                                    {
                                                        "children": [
                                                            {
                                                                "children": [],
                                                                "depth": 5,
                                                                "id": 10,
                                                                "order": 10
                                                            }
                                                        ],
                                                        "depth": 4,
                                                        "id": 9,
                                                        "order": 9
                                                    }
                                                ],
                                                "depth": 3,
                                                "id": 6,
                                                "order": 6
                                            },
                                            {
                                                "children": [],
                                                "depth": 3,
                                                "id": 12,
                                                "order": 12
                                            }
                                        ],
                                        "depth": 2,
                                        "id": 2,
                                        "order": 2
                                    }
                                ],
                                "depth": 1,
                                "id": 1,
                                "order": 1
                            },
                            {
                                "children": [
                                    {
                                        "children": [],
                                        "depth": 2,
                                        "id": 14,
                                        "order": 14
                                    }
                                ],
                                "depth": 1,
                                "id": 13,
                                "order": 13
                            }
                        ],
                        "depth": 0,
                        "id": 0,
                        "order": 0
                    }
                ],
                "depth": -1,
                "id": -1,
                "order": -1
            }
        ],
        "tidyTraceNodeCount": 13
    },
    "state_change": {
        "stateChanges": [
            {
                "address": "0xc02aaa39b223fe8d0a0e5c4f27ead9083c756cc2",
                "erc": "ERC-20",
                "slots": [
                    {
                        "current": "0x000000000000000000000000000000000000000000000014666032a079373811",
                        "key": "0xc1f7572ec23603591d05cadb8d4ec4f5d9663d24fa72d54a34b77d86e1beb268",
                        "prev": "0x0000000000000000000000000000000000000000000000143942a4cc65fc6d52"
                    }
                ],
                "storageVariables": [
                    {
                        "name": "balanceOf",
                        "type": "mapping(address => uint256)",
                        "value": {
                            "pairs": [
                                {
                                    "key": "0xe42318ea3b998e8355a3da364eb9d48ec725eb45",
                                    "value": {
                                        "current": "376311833328633722897",
                                        "prev": "373060922880607153490",
                                        "typeTag": 1
                                    }
                                }
                            ],
                            "typeTag": 4
                        }
                    }
                ]
            },
            {
                "address": "0xd33526068d116ce69f19a9ee46f0bd304f21a51f",
                "erc": "ERC-20",
                "slots": [
                    {
                        "current": "0x0000000000000000000000000000000000000000000010ff7110976fe54a332b",
                        "key": "0xa1bca93180aafde1958fd0e026c2acd3e5c631ffdc5c02f730337f2c54b7d7e4",
                        "prev": "0x00000000000000000000000000000000000000000000110a489f53caab6a332b"
                    },
                    {
                        "current": "0x00000000000000000000000000000000000000000000001b1ae4d6e2ef500000",
                        "key": "0x1f1090b49ae1eaa10d91032abbc019fad3a2093d871bc73b700674aee3a2f906",
                        "prev": "0x00000000000000000000000000000000000000000000001043561a8829300000"
                    }
                ],
                "storageVariables": [
                    {
                        "name": "_balances",
                        "type": "mapping(address => uint256)",
                        "value": {
                            "pairs": [
                                {
                                    "key": "0x050c5f6101f5f30a2769b734e782bcd100bfc0e2",
                                    "value": {
                                        "current": "500000000000000000000",
                                        "prev": "300000000000000000000",
                                        "typeTag": 1
                                    }
                                },
                                {
                                    "key": "0xe42318ea3b998e8355a3da364eb9d48ec725eb45",
                                    "value": {
                                        "current": "80269930642943016317739",
                                        "prev": "80469930642943016317739",
                                        "typeTag": 1
                                    }
                                }
                            ],
                            "typeTag": 4
                        }
                    }
                ]
            },
            {
                "address": "0xe42318ea3b998e8355a3da364eb9d48ec725eb45",
                "erc": "",
                "slots": [
                    {
                        "current": "0x00010000b400b400b300a1030000000000000007da5cec2106db72a6e2b3a391",
                        "key": "0x0000000000000000000000000000000000000000000000000000000000000000",
                        "prev": "0x00010000b400b400b200a10f0000000000000007db921420f06cdc831682f53f"
                    },
                    {
                        "current": "0x01000004170000000000008300201e3a222164ef590001646f77fc2c63a0152b",
                        "key": "0x00000000000000000000000000000000000000000000000000000000000000bb",
                        "prev": "0x01000004170000000000008255c4d3b4f0d3bd4148000160b05d6348639a23e3"
                    },
                    {
                        "current": "0x00000000000000000000000000000000018ef840ac2a00357dd561a6719c4ee4",
                        "key": "0x0000000000000000000000000000000000000000000000000000000000000001",
                        "prev": "0x00000000000000000000000000000000018ef464adbf7e2ef0e0127fbba6b3f9"
                    }
                ],
                "storageVariables": []
            }
        ]
    }
}