{
    "balance_change": {
        "balanceChanges": [
            {
                "account": "0x5e79861fe3dcf9e46c358f15789840f41e34c98a",
                "assets": [
                    {
                        "address": "0x757137eaf3f309f1b4dcbbe05fcb2545c7449fa0",
                        "amount": "50,494",
                        "iconUrl": "",
                        "isERC1155": false,
                        "isERC721": false,
                        "sign": false,
                        "value": ""
                    }
                ]
            },
            {
                "account": "0x477b74030d56b1efe0cd086c54fc37005f99b397",
                "assets": [
                    {
                        "address": "0x757137eaf3f309f1b4dcbbe05fcb2545c7449fa0",
                        "amount": "50,494",
                        "iconUrl": "",
                        "isERC1155": false,
                        "isERC721": false,
                        "sign": true,
                        "value": ""
                    }
                ]
            }
        ]
    },
    "profile": {
        "basic_info": {
            "baseFee": "",
            "blockNumber": 10110998,
            "callData": "0xa9059cbb000000000000000000000000477b74030d56b1efe0cd086c54fc37005f99b397000000000000000000000000000000000000000000000ab149047f527e380000",
            "debugEnable": true,
            "errorInfo": "",
            "eventCount": 1,
            "feeRecipient": "0x5a0b54d5dc17e0aadc383d2db43b0a0d3e029c4c",
            "formatValue": "0",
            "gasLimit": 69497,
            "gasPrice": "27",
            "gasUsed": 53497,
            "intTxnCount": 0,
            "internalRevert": false,
            "internalRevertMessage": "",
            "isContractCreation": false,
            "isFlashloan": false,
            "maxFee": "",
            "nonce": 153,
            "overwritedBlockNumber": -1,
            "priorityFee": "",
            "receiver": "0x757137eaf3f309f1b4dcbbe05fcb2545c7449fa0",
            "revertMessage": "",
            "sender": "0x5e79861fe3dcf9e46c358f15789840f41e34c98a",
            "simulationEnable": true,
            "sourceTxnHash": "0x7b34475a338f257603676e0b936a183405c5aee8339b5e5fc75b013dbd51e953",
            "status": true,
            "timestamp": "2020-05-21T18:57:18Z",
            "transactionFee": "0.001444419",
            "txnHash": "0x7b34475a338f257603676e0b936a183405c5aee8339b5e5fc75b013dbd51e953",
            "txnIndex": 72,
            "type": 0,
            "value": "0"
        },
        "fund_flow": [
            {
                "amount": "50,494",
                "from": "0x5e79861fe3dcf9e46c358f15789840f41e34c98a",
                "id": 1,
                "isERC1155": false,
                "isERC721": false,
                "isReverted": false,
                "order": 1,
                "to": "0x477b74030d56b1efe0cd086c54fc37005f99b397",
                "token": "0x757137eaf3f309f1b4dcbbe05fcb2545c7449fa0"
            }
        ],
        "token_infos": [
            {
                "address": "0xeeeeeeeeeeeeeeeeeeeeeeeeeeeeeeeeeeeeeeee",
                "decimals": 18
            },
            {
                "address": "0x757137eaf3f309f1b4dcbbe05fcb2545c7449fa0",
                "decimals": 18
            },
            {
                "address": "0xc02aaa39b223fe8d0a0e5c4f27ead9083c756cc2",
                "decimals": 18
            }
        ]
    },
    "address_label": {
        "labels": [
            {
                "address": "0x757137eaf3f309f1b4dcbbe05fcb2545c7449fa0",
                "label": "YWY"
            },
            {
                "address": "0x0000000000000000000000000000000000000001",
                "label": "Precompiled"
            },
            {
                "address": "0x0000000000000000000000000000000000000002",
                "label": "Precompiled"
            },
            {
                "address": "0x0000000000000000000000000000000000000003",
                "label": "Precompiled"
            },
            {
                "address": "0x0000000000000000000000000000000000000004",
                "label": "Precompiled"
            },
            {
                "address": "0xeeeeeeeeeeeeeeeeeeeeeeeeeeeeeeeeeeeeeeee",
                "label": "Ether"
            }
        ]
    },
    "trace": {
        "accountLabels": null,
        "dataMap": {
            "-1": {
                "invocation": {
                    "address": "0x5e79861fe3dcf9e46c358f15789840f41e34c98a",
                    "callData": "",
                    "decodedMethod": null,
                    "errorInfo": "",
                    "fromAddress": "",
                    "gasUsed": 0,
                    "id": -1,
                    "methodDecoded": false,
                    "operation": "",
                    "output": "",
                    "revert": false,
                    "revertMessage": "",
                    "selector": "",
                    "status": false,
                    "value": ""
                },
                "nodeType": 0
            },
            "0": {
                "invocation": {
                    "address": "0x757137eaf3f309f1b4dcbbe05fcb2545c7449fa0",
                    "callData": "0x000000000000000000000000477b74030d56b1efe0cd086c54fc37005f99b397000000000000000000000000000000000000000000000ab149047f527e380000",
                    "decodedMethod": {
                        "callParams": [
                            {
                                "name": "recipient",
                                "type": "address",
                                "value": "0x477b74030d56b1efe0cd086c54fc37005f99b397"
                            },
                            {
                                "decimalAvailable": true,
                                "name": "amount",
                                "type": "uint256",
                                "value": "50,494,000,000,000,000,000,000"
                            }
                        ],
                        "constructorArguments": "",
                        "name": "transfer",
                        "returnParams": [
                            {
                                "name": "",
                                "type": "bool",
                                "value": true
                            }
                        ],
                        "signature": "transfer(address,uint256)"
                    },
                    "errorInfo": "",
                    "fromAddress": "0x5e79861fe3dcf9e46c358f15789840f41e34c98a",
                    "gasUsed": 53497,
                    "id": 0,
                    "methodDecoded": true,
                    "operation": "CALL",
                    "output": "0x0000000000000000000000000000000000000000000000000000000000000001",
                    "revert": false,
                    "revertMessage": "",
                    "selector": "0xa9059cbb",
                    "status": true,
                    "value": "0"
                },
                "nodeType": 0
            },
            "1": {
                "event": {
                    "contract": "0x757137eaf3f309f1b4dcbbe05fcb2545c7449fa0",
                    "decodedLog": {
                        "name": "Transfer",
                        "params": [
                            {
                                "name": "from",
                                "type": "address",
                                "value": "0x5e79861fe3dcf9e46c358f15789840f41e34c98a"
                            },
                            {
                                "name": "to",
                                "type": "address",
                                "value": "0x477b74030d56b1efe0cd086c54fc37005f99b397"
                            },
                            {
                                "decimalAvailable": true,
                                "name": "value",
                                "type": "uint256",
                                "value": "50,494,000,000,000,000,000,000"
                            }
                        ],
                        "signature": "Transfer(address,address,uint256)"
                    },
                    "id": 1,
                    "logData": "0x000000000000000000000000000000000000000000000ab149047f527e380000",
                    "logDecoded": true,
                    "operation": "EVENT",
                    "revert": false,
                    "status": true,
                    "topics": [
                        "0xddf252ad1be2c89b69c2b068fc378daa952ba7f163c4a11628f55a4df523b3ef",
                        "0x0000000000000000000000005e79861fe3dcf9e46c358f15789840f41e34c98a",
                        "0x000000000000000000000000477b74030d56b1efe0cd086c54fc37005f99b397"
                    ]
                },
                "nodeType": 1
            }
        },
        "gasFlame": [
            {
                "children": [
                    {
                        "children": [
                            {
                                "children": [],
                                "depth": 0,
                                "name": "Initial Gas",
                                "value": 21644
                            },
                            {
                                "children": [],
                                "depth": 0,
                                "name": "Executed Gas",
                                "value": 31853
                            }
                        ],
                        "depth": -1,
                        "name": "Actual Gas Used",
                        "value": 53497
                    },
                    {
                        "children": [],
                        "depth": -1,
                        "name": "Refunded Gas",
                        "value": 0
                    }
                ],
                "depth": -2,
                "name": "Total Gas",
                "value": 53497
            }
        ],
        "isConfirmed": true,
        "mainTrace": [
            {
                "children": [
                    {
                        "children": [
                            {
                                "children": [],
                                "depth": 1,
                                "id": 1,
                                "order": 1
                            }
                        ],
                        "depth": 0,
                        "id": 0,
                        "order": 0
                    }
                ],
                "depth": -1,
                "id": -1,
                "order": -1
            }
        ],
        "mainTraceNodeCount": 2,
        "parentIdMap": {
            "0": -1,
            "1": 0
        },
        "tidyTrace": [
            {
                "children": [
                    {
                        "children": [
                            {
                                "children": [],
                                "depth": 1,
                                "id": 1,
                                "order": 1
                            }
                        ],
                        "depth": 0,
                        "id": 0,
                        "order": 0
                    }
                ],
                "depth": -1,
                "id": -1,
                "order": -1
            }
        ],
        "tidyTraceNodeCount": 2
    },
    "state_change": {
        "stateChanges": [
            {
                "address": "0x757137eaf3f309f1b4dcbbe05fcb2545c7449fa0",
                "erc": "",
                "slots": [
                    {
                        "current": "0x0000000000000000000000000000000000000000000502c86c86bdb179cc0000",
                        "key": "0xbd4b7ec12f79a8362145fc7d2c32b5e5dacc956c44256236e41d3161380c9eea",
                        "prev": "0x000000000000000000000000000000000000000000050d79b58b3d03f8040000"
                    },
                    {
                        "current": "0x000000000000000000000000000000000000000000000ab149047f527e380000",
                        "key": "0xc7302d56c77f1ee49323000b5226bb43d0533d7f314af214beae4a1fc829b784",
                        "prev": "0x0000000000000000000000000000000000000000000000000000000000000000"
                    }
                ],
                "storageVariables": []
            }
        ]
    }
}