{
    "balance_change": {
        "balanceChanges": [
            {
                "account": "0xdd702c9c37c0182120e5d39aab569385ef335ba5",
                "assets": [
                    {
                        "address": "0x539f8a18ab4632d18edd62d9881dc06c107e4537",
                        "amount": "1,400",
                        "iconUrl": "",
                        "isERC1155": false,
                        "isERC721": false,
                        "sign": false,
                        "value": ""
                    }
                ]
            },
            {
                "account": "0xe48110721c58f9a5ca562e89c412b9a38db0f375",
                "assets": [
                    {
                        "address": "0x539f8a18ab4632d18edd62d9881dc06c107e4537",
                        "amount": "1,400",
                        "iconUrl": "",
                        "isERC1155": false,
                        "isERC721": false,
                        "sign": true,
                        "value": ""
                    }
                ]
            }
        ]
    },
    "profile": {
        "basic_info": {
            "baseFee": "",
            "blockNumber": 10120807,
            "callData": "0xa9059cbb000000000000000000000000e48110721c58f9a5ca562e89c412b9a38db0f37500000000000000000000000000000000000000000000004be4e7267b6ae00000",
            "debugEnable": true,
            "errorInfo": "",
            "eventCount": 1,
            "feeRecipient": "0x52bc44d5378309ee2abf1539bf71de1b7d7be3b5",
            "formatValue": "0",
            "gasLimit": 60000,
            "gasPrice": "12.00000247",
            "gasUsed": 36182,
            "intTxnCount": 0,
            "internalRevert": false,
            "internalRevertMessage": "",
            "isContractCreation": false,
            "isFlashloan": false,
            "maxFee": "",
            "nonce": 0,
            "overwritedBlockNumber": -1,
            "priorityFee": "",
            "receiver": "0x539f8a18ab4632d18edd62d9881dc06c107e4537",
            "revertMessage": "",
            "sender": "0xdd702c9c37c0182120e5d39aab569385ef335ba5",
            "simulationEnable": true,
            "sourceTxnHash": "0x7b204ff42b47be9a53352c8e247918172d92e440e877dc274fa12afac79aafd9",
            "status": true,
            "timestamp": "2020-05-23T07:38:31Z",
            "transactionFee": "0.00043418408936954",
            "txnHash": "0x7b204ff42b47be9a53352c8e247918172d92e440e877dc274fa12afac79aafd9",
            "txnIndex": 52,
            "type": 0,
            "value": "0"
        },
        "fund_flow": [
            {
                "amount": "1,400",
                "from": "0xdd702c9c37c0182120e5d39aab569385ef335ba5",
                "id": 1,
                "isERC1155": false,
                "isERC721": false,
                "isReverted": false,
                "order": 1,
                "to": "0xe48110721c58f9a5ca562e89c412b9a38db0f375",
                "token": "0x539f8a18ab4632d18edd62d9881dc06c107e4537"
            }
        ],
        "token_infos": [
            {
                "address": "0x539f8a18ab4632d18edd62d9881dc06c107e4537",
                "decimals": 18
            },
            {
                "address": "0xc02aaa39b223fe8d0a0e5c4f27ead9083c756cc2",
                "decimals": 18
            },
            {
                "address": "0xeeeeeeeeeeeeeeeeeeeeeeeeeeeeeeeeeeeeeeee",
                "decimals": 18
            }
        ]
    },
    "address_label": {
        "labels": [
            {
                "address": "0xeeeeeeeeeeeeeeeeeeeeeeeeeeeeeeeeeeeeeeee",
                "label": "Ether"
            },
            {
                "address": "0x539f8a18ab4632d18edd62d9881dc06c107e4537",
                "label": "PoW Reduction (POR)"
            },
            {
                "address": "0x0000000000000000000000000000000000000001",
                "label": "Precompiled"
            },
            {
                "address": "0x0000000000000000000000000000000000000002",
                "label": "Precompiled"
            },
            {
                "address": "0x0000000000000000000000000000000000000003",
                "label": "Precompiled"
            },
            {
                "address": "0x0000000000000000000000000000000000000004",
                "label": "Precompiled"
            }
        ]
    },
    "trace": {
        "accountLabels": null,
        "dataMap": {
            "-1": {
                "invocation": {
                    "address": "0xdd702c9c37c0182120e5d39aab569385ef335ba5",
                    "callData": "",
                    "decodedMethod": null,
                    "errorInfo": "",
                    "fromAddress": "",
                    "gasUsed": 0,
                    "id": -1,
                    "methodDecoded": false,
                    "operation": "",
                    "output": "",
                    "revert": false,
                    "revertMessage": "",
                    "selector": "",
                    "status": false,
                    "value": ""
                },
                "nodeType": 0
            },
            "0": {
                "invocation": {
                    "address": "0x539f8a18ab4632d18edd62d9881dc06c107e4537",
                    "callData": "0x000000000000000000000000e48110721c58f9a5ca562e89c412b9a38db0f37500000000000000000000000000000000000000000000004be4e7267b6ae00000",
                    "decodedMethod": {
                        "callParams": [
                            {
                                "name": "recipient",
                                "type": "address",
                                "value": "0xe48110721c58f9a5ca562e89c412b9a38db0f375"
                            },
                            {
                                "decimalAvailable": true,
                                "name": "amount",
                                "type": "uint256",
                                "value": "1,400,000,000,000,000,000,000"
                            }
                        ],
                        "constructorArguments": "",
                        "name": "transfer",
                        "returnParams": [
                            {
                                "name": "",
                                "type": "bool",
                                "value": true
                            }
                        ],
                        "signature": "transfer(address,uint256)"
                    },
                    "errorInfo": "",
                    "fromAddress": "0xdd702c9c37c0182120e5d39aab569385ef335ba5",
                    "gasUsed": 36182,
                    "id": 0,
                    "methodDecoded": true,
                    "operation": "CALL",
                    "output": "0x0000000000000000000000000000000000000000000000000000000000000001",
                    "revert": false,
                    "revertMessage": "",
                    "selector": "0xa9059cbb",
                    "status": true,
                    "value": "0"
                },
                "nodeType": 0
            },
            "1": {
                "event": {
                    "contract": "0x539f8a18ab4632d18edd62d9881dc06c107e4537",
                    "decodedLog": {
                        "name": "Transfer",
                        "params": [
                            {
                                "name": "from",
                                "type": "address",
                                "value": "0xdd702c9c37c0182120e5d39aab569385ef335ba5"
                            },
                            {
                                "name": "to",
                                "type": "address",
                                "value": "0xe48110721c58f9a5ca562e89c412b9a38db0f375"
                            },
                            {
                                "decimalAvailable": true,
                                "name": "value",
                                "type": "uint256",
                                "value": "1,400,000,000,000,000,000,000"
                            }
                        ],
                        "signature": "Transfer(address,address,uint256)"
                    },
                    "id": 1,
                    "logData": "0x00000000000000000000000000000000000000000000004be4e7267b6ae00000",
                    "logDecoded": true,
                    "operation": "EVENT",
                    "revert": false,
                    "status": true,
                    "topics": [
                        "0xddf252ad1be2c89b69c2b068fc378daa952ba7f163c4a11628f55a4df523b3ef",
                        "0x000000000000000000000000dd702c9c37c0182120e5d39aab569385ef335ba5",
                        "0x000000000000000000000000e48110721c58f9a5ca562e89c412b9a38db0f375"
                    ]
                },
                "nodeType": 1
            }
        },
        "gasFlame": [
            {
                "children": [
                    {
                        "children": [
                            {
                                "children": [],
                                "depth": 0,
                                "name": "Initial Gas",
                                "value": 21644
                            },
                            {
                                "children": [],
                                "depth": 0,
                                "name": "Executed Gas",
                                "value": 29538
                            }
                        ],
                        "depth": -1,
                        "name": "Actual Gas Used",
                        "value": 36182
                    },
                    {
                        "children": [],
                        "depth": -1,
                        "name": "Refunded Gas",
                        "value": 15000
                    }
                ],
                "depth": -2,
                "name": "Total Gas",
                "value": 51182
            }
        ],
        "isConfirmed": true,
        "mainTrace": [
            {
                "children": [
                    {
                        "children": [
                            {
                                "children": [],
                                "depth": 1,
                                "id": 1,
                                "order": 1
                            }
                        ],
                        "depth": 0,
                        "id": 0,
                        "order": 0
                    }
                ],
                "depth": -1,
                "id": -1,
                "order": -1
            }
        ],
        "mainTraceNodeCount": 2,
        "parentIdMap": {
            "0": -1,
            "1": 0
        },
        "tidyTrace": [
            {
                "children": [
                    {
                        "children": [
                            {
                                "children": [],
                                "depth": 1,
                                "id": 1,
                                "order": 1
                            }
                        ],
                        "depth": 0,
                        "id": 0,
                        "order": 0
                    }
                ],
                "depth": -1,
                "id": -1,
                "order": -1
            }
        ],
        "tidyTraceNodeCount": 2
    },
    "state_change": {
        "stateChanges": [
            {
                "address": "0x539f8a18ab4632d18edd62d9881dc06c107e4537",
                "erc": "",
                "slots": [
                    {
                        "current": "0x0000000000000000000000000000000000000000000000000000000000000000",
                        "key": "0x767358124e1185eace6d59d324be1504867ca231d99b9a041a9c4432cd4702d8",
                        "prev": "0x00000000000000000000000000000000000000000000004be4e7267b6ae00000"
                    },
                    {
                        "current": "0x00000000000000000000000000000000000000000000004be4e7267b6ae00000",
                        "key": "0x4031cbd4f37c27b28578ba9878ce00471a5b43f2a3b51cf47dfca990fb107931",
                        "prev": "0x0000000000000000000000000000000000000000000000000000000000000000"
                    }
                ],
                "storageVariables": []
            }
        ]
    }
}