{
    "balance_change": {
        "balanceChanges": [
            {
                "account": "0xfb9f4a17552ace70a21ca19c09b737f22e10e79c",
                "assets": [
                    {
                        "address": "0xeeeeeeeeeeeeeeeeeeeeeeeeeeeeeeeeeeeeeeee",
                        "amount": "0.18",
                        "iconUrl": "https://assets.blocksec.com/image/1663669189317-3.png",
                        "isERC1155": false,
                        "isERC721": false,
                        "sign": false,
                        "value": "634.8870559799999774"
                    },
                    {
                        "address": "0x6b175474e89094c44da98b954eedeac495271d0f",
                        "amount": "584.777858577237605401",
                        "iconUrl": "https://assets.blocksec.com/icon/39aead569b9c011cb6f69734d9abbc9ab6a80049fe93bbd12bb473a3e0e859a3.png",
                        "isERC1155": false,
                        "isERC721": false,
                        "sign": true,
                        "value": "585.3626364"
                    }
                ]
            },
            {
                "account": "0x60594a405d53811d3bc4766596efd80fd545a270",
                "assets": [
                    {
                        "address": "0x6b175474e89094c44da98b954eedeac495271d0f",
                        "amount": "584.777858577237605401",
                        "iconUrl": "https://assets.blocksec.com/icon/39aead569b9c011cb6f69734d9abbc9ab6a80049fe93bbd12bb473a3e0e859a3.png",
                        "isERC1155": false,
                        "isERC721": false,
                        "sign": false,
                        "value": "585.3626364"
                    },
                    {
                        "address": "0xc02aaa39b223fe8d0a0e5c4f27ead9083c756cc2",
                        "amount": "0.18",
                        "iconUrl": "https://assets.blocksec.com/icon/f1cb2d02c471d545bbc7722daf3277fd852d98e63d118771af7047bd8256c516.png",
                        "isERC1155": false,
                        "isERC721": false,
                        "sign": true,
                        "value": "634.8870559799999774"
                    }
                ]
            },
            {
                "account": "0xc02aaa39b223fe8d0a0e5c4f27ead9083c756cc2",
                "assets": [
                    {
                        "address": "0xeeeeeeeeeeeeeeeeeeeeeeeeeeeeeeeeeeeeeeee",
                        "amount": "0.18",
                        "iconUrl": "https://assets.blocksec.com/image/1663669189317-3.png",
                        "isERC1155": false,
                        "isERC721": false,
                        "sign": true,
                        "value": "634.8870559799999774"
                    },
                    {
                        "address": "0xc02aaa39b223fe8d0a0e5c4f27ead9083c756cc2",
                        "amount": "0.18",
                        "iconUrl": "https://assets.blocksec.com/icon/f1cb2d02c471d545bbc7722daf3277fd852d98e63d118771af7047bd8256c516.png",
                        "isERC1155": false,
                        "isERC721": false,
                        "sign": false,
                        "value": "634.8870559799999774"
                    }
                ]
            }
        ]
    },
    "profile": {
        "basic_info": {
            "baseFee": "69.182099548",
            "blockNumber": 14545610,
            "callData": "0x5ae401dc00000000000000000000000000000000000000000000000000000000625047b500000000000000000000000000000000000000000000000000000000000000400000000000000000000000000000000000000000000000000000000000000001000000000000000000000000000000000000000000000000000000000000002000000000000000000000000000000000000000000000000000000000000000e404e45aaf000000000000000000000000c02aaa39b223fe8d0a0e5c4f27ead9083c756cc20000000000000000000000006b175474e89094c44da98b954eedeac495271d0f00000000000000000000000000000000000000000000000000000000000001f4000000000000000000000000fb9f4a17552ace70a21ca19c09b737f22e10e79c000000000000000000000000000000000000000000000000027f7d0bdb92000000000000000000000000000000000000000000000000001ea50f7969835d49e1000000000000000000000000000000000000000000000000000000000000000000000000000000000000000000000000000000000000000000000000",
            "debugEnable": true,
            "errorInfo": "",
            "eventCount": 4,
            "feeRecipient": "0x1ad91ee08f21be3de0ba2ba6918e714da6b45836",
            "formatValue": "0.18",
            "gasLimit": 178596,
            "gasPrice": "70.682099548",
            "gasUsed": 124381,
            "intTxnCount": 8,
            "internalRevert": false,
            "internalRevertMessage": "",
            "isContractCreation": false,
            "isFlashloan": false,
            "maxFee": "76.038554698",
            "nonce": 0,
            "overwritedBlockNumber": -1,
            "priorityFee": "1.5",
            "receiver": "0x68b3465833fb72a70ecdf485e0e4c7bd8665fc45",
            "revertMessage": "",
            "sender": "0xfb9f4a17552ace70a21ca19c09b737f22e10e79c",
            "simulationEnable": true,
            "sourceTxnHash": "0x7b0dc38d82231f863f898b96b6f4a33e3dda804be458d79f8ef88e6815ff2d26",
            "status": true,
            "timestamp": "2022-04-08T14:15:01Z",
            "transactionFee": "0.008791510223879788",
            "txnHash": "0x7b0dc38d82231f863f898b96b6f4a33e3dda804be458d79f8ef88e6815ff2d26",
            "txnIndex": 102,
            "type": 2,
            "value": "180000000000000000"
        },
        "fund_flow": [
            {
                "amount": "0.18",
                "from": "0xfb9f4a17552ace70a21ca19c09b737f22e10e79c",
                "id": 1,
                "isERC1155": false,
                "isERC721": false,
                "isReverted": false,
                "order": 1,
                "to": "0x68b3465833fb72a70ecdf485e0e4c7bd8665fc45",
                "token": "0xeeeeeeeeeeeeeeeeeeeeeeeeeeeeeeeeeeeeeeee"
            },
            {
                "amount": "584.777858577237605401",
                "from": "0x60594a405d53811d3bc4766596efd80fd545a270",
                "id": 2,
                "isERC1155": false,
                "isERC721": false,
                "isReverted": false,
                "order": 2,
                "to": "0xfb9f4a17552ace70a21ca19c09b737f22e10e79c",
                "token": "0x6b175474e89094c44da98b954eedeac495271d0f"
            },
            {
                "amount": "0.18",
                "from": "0x68b3465833fb72a70ecdf485e0e4c7bd8665fc45",
                "id": 3,
                "isERC1155": false,
                "isERC721": false,
                "isReverted": false,
                "order": 3,
                "to": "0xc02aaa39b223fe8d0a0e5c4f27ead9083c756cc2",
                "token": "0xeeeeeeeeeeeeeeeeeeeeeeeeeeeeeeeeeeeeeeee"
            },
            {
                "amount": "0.18",
                "from": "0xc02aaa39b223fe8d0a0e5c4f27ead9083c756cc2",
                "id": 4,
                "isERC1155": false,
                "isERC721": false,
                "isReverted": false,
                "order": 4,
                "to": "0x68b3465833fb72a70ecdf485e0e4c7bd8665fc45",
                "token": "0xc02aaa39b223fe8d0a0e5c4f27ead9083c756cc2"
            },
            {
                "amount": "0.18",
                "from": "0x68b3465833fb72a70ecdf485e0e4c7bd8665fc45",
                "id": 5,
                "isERC1155": false,
                "isERC721": false,
                "isReverted": false,
                "order": 5,
                "to": "0x60594a405d53811d3bc4766596efd80fd545a270",
                "token": "0xc02aaa39b223fe8d0a0e5c4f27ead9083c756cc2"
            }
        ],
        "token_infos": [
            {
                "address": "0x6b175474e89094c44da98b954eedeac495271d0f",
                "decimals": 18
            },
            {
                "address": "0xc02aaa39b223fe8d0a0e5c4f27ead9083c756cc2",
                "decimals": 18
            },
            {
                "address": "0xeeeeeeeeeeeeeeeeeeeeeeeeeeeeeeeeeeeeeeee",
                "decimals": 18
            }
        ]
    },
    "address_label": {
        "labels": [
            {
                "address": "0x0000000000000000000000000000000000000002",
                "label": "Precompiled"
            },
            {
                "address": "0xeeeeeeeeeeeeeeeeeeeeeeeeeeeeeeeeeeeeeeee",
                "label": "Ether"
            },
            {
                "address": "0x6b175474e89094c44da98b954eedeac495271d0f",
                "label": "Sky: Dai Stablecoin"
            },
            {
                "address": "0xc02aaa39b223fe8d0a0e5c4f27ead9083c756cc2",
                "label": "Wrapped Ether (WETH)"
            },
            {
                "address": "0x68b3465833fb72a70ecdf485e0e4c7bd8665fc45",
                "label": "Uniswap V3: Router 2"
            },
            {
                "address": "0x0000000000000000000000000000000000000001",
                "label": "Precompiled"
            },
            {
                "address": "0x0000000000000000000000000000000000000003",
                "label": "Precompiled"
            },
            {
                "address": "0x0000000000000000000000000000000000000004",
                "label": "Precompiled"
            },
            {
                "address": "0x60594a405d53811d3bc4766596efd80fd545a270",
                "label": "Uniswap V3: DAI 2"
            }
        ]
    },
    "trace": {
        "accountLabels": null,
        "dataMap": {
            "-1": {
                "invocation": {
                    "address": "0xfb9f4a17552ace70a21ca19c09b737f22e10e79c",
                    "callData": "",
                    "decodedMethod": null,
                    "errorInfo": "",
                    "fromAddress": "",
                    "gasUsed": 0,
                    "id": -1,
                    "methodDecoded": false,
                    "operation": "",
                    "output": "",
                    "revert": false,
                    "revertMessage": "",
                    "selector": "",
                    "status": false,
                    "value": ""
                },
                "nodeType": 0
            },
            "0": {
                "invocation": {
                    "address": "0x68b3465833fb72a70ecdf485e0e4c7bd8665fc45",
                    "callData": "0x00000000000000000000000000000000000000000000000000000000625047b500000000000000000000000000000000000000000000000000000000000000400000000000000000000000000000000000000000000000000000000000000001000000000000000000000000000000000000000000000000000000000000002000000000000000000000000000000000000000000000000000000000000000e404e45aaf000000000000000000000000c02aaa39b223fe8d0a0e5c4f27ead9083c756cc20000000000000000000000006b175474e89094c44da98b954eedeac495271d0f00000000000000000000000000000000000000000000000000000000000001f4000000000000000000000000fb9f4a17552ace70a21ca19c09b737f22e10e79c000000000000000000000000000000000000000000000000027f7d0bdb92000000000000000000000000000000000000000000000000001ea50f7969835d49e1000000000000000000000000000000000000000000000000000000000000000000000000000000000000000000000000000000000000000000000000",
                    "decodedMethod": {
                        "callParams": [
                            {
                                "name": "deadline",
                                "type": "uint256",
                                "value": "1,649,428,405"
                            },
                            {
                                "name": "data",
                                "type": "bytes[]",
                                "value": [
                                    "0x04e45aaf000000000000000000000000c02aaa39b223fe8d0a0e5c4f27ead9083c756cc20000000000000000000000006b175474e89094c44da98b954eedeac495271d0f00000000000000000000000000000000000000000000000000000000000001f4000000000000000000000000fb9f4a17552ace70a21ca19c09b737f22e10e79c000000000000000000000000000000000000000000000000027f7d0bdb92000000000000000000000000000000000000000000000000001ea50f7969835d49e10000000000000000000000000000000000000000000000000000000000000000"
                                ]
                            }
                        ],
                        "constructorArguments": "",
                        "name": "multicall",
                        "returnParams": [
                            {
                                "name": "",
                                "type": "bytes[]",
                                "value": [
                                    "0x00000000000000000000000000000000000000000000001fb36c4c1711dcfc19"
                                ]
                            }
                        ],
                        "signature": "multicall(uint256,bytes[])"
                    },
                    "errorInfo": "",
                    "fromAddress": "0xfb9f4a17552ace70a21ca19c09b737f22e10e79c",
                    "gasUsed": 124381,
                    "id": 0,
                    "methodDecoded": true,
                    "operation": "CALL",
                    "output": "0x000000000000000000000000000000000000000000000000000000000000002000000000000000000000000000000000000000000000000000000000000000010000000000000000000000000000000000000000000000000000000000000020000000000000000000000000000000000000000000000000000000000000002000000000000000000000000000000000000000000000001fb36c4c1711dcfc19",
                    "revert": false,
                    "revertMessage": "",
                    "selector": "0x5ae401dc",
                    "status": true,
                    "value": "0.18"
                },
                "nodeType": 0
            },
            "1": {
                "invocation": {
                    "address": "0x68b3465833fb72a70ecdf485e0e4c7bd8665fc45",
                    "callData": "0x000000000000000000000000c02aaa39b223fe8d0a0e5c4f27ead9083c756cc20000000000000000000000006b175474e89094c44da98b954eedeac495271d0f00000000000000000000000000000000000000000000000000000000000001f4000000000000000000000000fb9f4a17552ace70a21ca19c09b737f22e10e79c000000000000000000000000000000000000000000000000027f7d0bdb92000000000000000000000000000000000000000000000000001ea50f7969835d49e10000000000000000000000000000000000000000000000000000000000000000",
                    "decodedMethod": {
                        "callParams": [
                            {
                                "name": "params",
                                "type": "(address,address,uint24,address,uint256,uint256,uint160)",
                                "value": [
                                    {
                                        "name": "tokenIn",
                                        "type": "address",
                                        "value": "0xc02aaa39b223fe8d0a0e5c4f27ead9083c756cc2"
                                    },
                                    {
                                        "name": "tokenOut",
                                        "type": "address",
                                        "value": "0x6b175474e89094c44da98b954eedeac495271d0f"
                                    },
                                    {
                                        "name": "fee",
                                        "type": "uint24",
                                        "value": "500"
                                    },
                                    {
                                        "name": "recipient",
                                        "type": "address",
                                        "value": "0xfb9f4a17552ace70a21ca19c09b737f22e10e79c"
                                    },
                                    {
                                        "name": "amountIn",
                                        "type": "uint256",
                                        "value": "180,000,000,000,000,000"
                                    },
                                    {
                                        "name": "amountOutMinimum",
                                        "type": "uint256",
                                        "value": "565,296,180,846,277,773,793"
                                    },
                                    {
                                        "name": "sqrtPriceLimitX96",
                                        "type": "uint160",
                                        "value": "0"
                                    }
                                ]
                            }
                        ],
                        "constructorArguments": "",
                        "name": "exactInputSingle",
                        "returnParams": [
                            {
                                "name": "amountOut",
                                "type": "uint256",
                                "value": "584,777,858,577,237,605,401"
                            }
                        ],
                        "signature": "exactInputSingle((address,address,uint24,address,uint256,uint256,uint160))"
                    },
                    "errorInfo": "",
                    "fromAddress": "0x68b3465833fb72a70ecdf485e0e4c7bd8665fc45",
                    "gasUsed": 118307,
                    "id": 1,
                    "methodDecoded": true,
                    "operation": "DELEGATECALL",
                    "output": "0x00000000000000000000000000000000000000000000001fb36c4c1711dcfc19",
                    "revert": false,
                    "revertMessage": "",
                    "selector": "0x04e45aaf",
                    "status": true,
                    "value": "0.18"
                },
                "nodeType": 0
            },
            "10": {
                "event": {
                    "contract": "0xc02aaa39b223fe8d0a0e5c4f27ead9083c756cc2",
                    "decodedLog": {
                        "name": "Transfer",
                        "params": [
                            {
                                "name": "src",
                                "type": "address",
                                "value": "0x68b3465833fb72a70ecdf485e0e4c7bd8665fc45"
                            },
                            {
                                "name": "dst",
                                "type": "address",
                                "value": "0x60594a405d53811d3bc4766596efd80fd545a270"
                            },
                            {
                                "decimalAvailable": true,
                                "name": "wad",
                                "type": "uint256",
                                "value": "180,000,000,000,000,000"
                            }
                        ],
                        "signature": "Transfer(address,address,uint256)"
                    },
                    "id": 10,
                    "logData": "0x000000000000000000000000000000000000000000000000027f7d0bdb920000",
                    "logDecoded": true,
                    "operation": "EVENT",
                    "revert": false,
                    "status": true,
                    "topics": [
                        "0xddf252ad1be2c89b69c2b068fc378daa952ba7f163c4a11628f55a4df523b3ef",
                        "0x00000000000000000000000068b3465833fb72a70ecdf485e0e4c7bd8665fc45",
                        "0x00000000000000000000000060594a405d53811d3bc4766596efd80fd545a270"
                    ]
                },
                "nodeType": 1
            },
            "11": {
                "invocation": {
                    "address": "0xc02aaa39b223fe8d0a0e5c4f27ead9083c756cc2",
                    "callData": "0x00000000000000000000000060594a405d53811d3bc4766596efd80fd545a270",
                    "decodedMethod": {
                        "callParams": [
                            {
                                "name": "",
                                "type": "address",
                                "value": "0x60594a405d53811d3bc4766596efd80fd545a270"
                            }
                        ],
                        "constructorArguments": "",
                        "name": "balanceOf",
                        "returnParams": [
                            {
                                "decimalAvailable": true,
                                "name": "",
                                "type": "uint256",
                                "value": "3,524,391,821,473,911,582,580"
                            }
                        ],
                        "signature": "balanceOf(address)"
                    },
                    "errorInfo": "",
                    "fromAddress": "0x60594a405d53811d3bc4766596efd80fd545a270",
                    "gasUsed": 534,
                    "id": 11,
                    "methodDecoded": true,
                    "operation": "STATICCALL",
                    "output": "0x0000000000000000000000000000000000000000000000bf0ec3089a346eaf74",
                    "revert": false,
                    "revertMessage": "",
                    "selector": "0x70a08231",
                    "status": true,
                    "value": "0"
                },
                "nodeType": 0
            },
            "12": {
                "event": {
                    "contract": "0x60594a405d53811d3bc4766596efd80fd545a270",
                    "decodedLog": {
                        "name": "Swap",
                        "params": [
                            {
                                "name": "sender",
                                "type": "address",
                                "value": "0x68b3465833fb72a70ecdf485e0e4c7bd8665fc45"
                            },
                            {
                                "name": "recipient",
                                "type": "address",
                                "value": "0xfb9f4a17552ace70a21ca19c09b737f22e10e79c"
                            },
                            {
                                "name": "amount0",
                                "type": "int256",
                                "value": "-584,777,858,577,237,605,401"
                            },
                            {
                                "name": "amount1",
                                "type": "int256",
                                "value": "180,000,000,000,000,000"
                            },
                            {
                                "name": "sqrtPriceX96",
                                "type": "uint160",
                                "value": "1,389,674,769,469,375,614,737,653,142"
                            },
                            {
                                "name": "liquidity",
                                "type": "uint128",
                                "value": "1,593,844,515,791,011,836,931,954"
                            },
                            {
                                "name": "tick",
                                "type": "int24",
                                "value": "-80,870"
                            }
                        ],
                        "signature": "Swap(address,address,int256,int256,uint160,uint128,int24)"
                    },
                    "id": 12,
                    "logData": "0xffffffffffffffffffffffffffffffffffffffffffffffe04c93b3e8ee2303e7000000000000000000000000000000000000000000000000027f7d0bdb9200000000000000000000000000000000000000000000047d83143491c893004f1d960000000000000000000000000000000000000000000151827bfd21c376312f72fffffffffffffffffffffffffffffffffffffffffffffffffffffffffffec41a",
                    "logDecoded": true,
                    "operation": "EVENT",
                    "revert": false,
                    "status": true,
                    "topics": [
                        "0xc42079f94a6350d7e6235f29174924f928cc2ac818eb64fed8004e115fbcca67",
                        "0x00000000000000000000000068b3465833fb72a70ecdf485e0e4c7bd8665fc45",
                        "0x000000000000000000000000fb9f4a17552ace70a21ca19c09b737f22e10e79c"
                    ]
                },
                "nodeType": 1
            },
            "2": {
                "invocation": {
                    "address": "0x60594a405d53811d3bc4766596efd80fd545a270",
                    "callData": "0x000000000000000000000000fb9f4a17552ace70a21ca19c09b737f22e10e79c0000000000000000000000000000000000000000000000000000000000000000000000000000000000000000000000000000000000000000027f7d0bdb920000000000000000000000000000fffd8963efd1fc6a506488495d951d5263988d2500000000000000000000000000000000000000000000000000000000000000a000000000000000000000000000000000000000000000000000000000000000c000000000000000000000000000000000000000000000000000000000000000200000000000000000000000000000000000000000000000000000000000000040000000000000000000000000fb9f4a17552ace70a21ca19c09b737f22e10e79c000000000000000000000000000000000000000000000000000000000000002bc02aaa39b223fe8d0a0e5c4f27ead9083c756cc20001f46b175474e89094c44da98b954eedeac495271d0f000000000000000000000000000000000000000000",
                    "decodedMethod": {
                        "callParams": [
                            {
                                "name": "recipient",
                                "type": "address",
                                "value": "0xfb9f4a17552ace70a21ca19c09b737f22e10e79c"
                            },
                            {
                                "name": "zeroForOne",
                                "type": "bool",
                                "value": false
                            },
                            {
                                "name": "amountSpecified",
                                "type": "int256",
                                "value": "180,000,000,000,000,000"
                            },
                            {
                                "name": "sqrtPriceLimitX96",
                                "type": "uint160",
                                "value": "1,461,446,703,485,210,103,287,273,052,203,988,822,378,723,970,341"
                            },
                            {
                                "name": "data",
                                "type": "bytes",
                                "value": "0x00000000000000000000000000000000000000000000000000000000000000200000000000000000000000000000000000000000000000000000000000000040000000000000000000000000fb9f4a17552ace70a21ca19c09b737f22e10e79c000000000000000000000000000000000000000000000000000000000000002bc02aaa39b223fe8d0a0e5c4f27ead9083c756cc20001f46b175474e89094c44da98b954eedeac495271d0f000000000000000000000000000000000000000000"
                            }
                        ],
                        "constructorArguments": "",
                        "name": "swap",
                        "returnParams": [
                            {
                                "name": "amount0",
                                "type": "int256",
                                "value": "-584,777,858,577,237,605,401"
                            },
                            {
                                "name": "amount1",
                                "type": "int256",
                                "value": "180,000,000,000,000,000"
                            }
                        ],
                        "signature": "swap(address,bool,int256,uint160,bytes)"
                    },
                    "errorInfo": "",
                    "fromAddress": "0x68b3465833fb72a70ecdf485e0e4c7bd8665fc45",
                    "gasUsed": 110882,
                    "id": 2,
                    "methodDecoded": true,
                    "operation": "CALL",
                    "output": "0xffffffffffffffffffffffffffffffffffffffffffffffe04c93b3e8ee2303e7000000000000000000000000000000000000000000000000027f7d0bdb920000",
                    "revert": false,
                    "revertMessage": "",
                    "selector": "0x128acb08",
                    "status": true,
                    "value": "0"
                },
                "nodeType": 0
            },
            "3": {
                "invocation": {
                    "address": "0x6b175474e89094c44da98b954eedeac495271d0f",
                    "callData": "0x000000000000000000000000fb9f4a17552ace70a21ca19c09b737f22e10e79c00000000000000000000000000000000000000000000001fb36c4c1711dcfc19",
                    "decodedMethod": {
                        "callParams": [
                            {
                                "name": "dst",
                                "type": "address",
                                "value": "0xfb9f4a17552ace70a21ca19c09b737f22e10e79c"
                            },
                            {
                                "decimalAvailable": true,
                                "name": "wad",
                                "type": "uint256",
                                "value": "584,777,858,577,237,605,401"
                            }
                        ],
                        "constructorArguments": "",
                        "name": "transfer",
                        "returnParams": [
                            {
                                "name": "",
                                "type": "bool",
                                "value": true
                            }
                        ],
                        "signature": "transfer(address,uint256)"
                    },
                    "errorInfo": "",
                    "fromAddress": "0x60594a405d53811d3bc4766596efd80fd545a270",
                    "gasUsed": 30174,
                    "id": 3,
                    "methodDecoded": true,
                    "operation": "CALL",
                    "output": "0x0000000000000000000000000000000000000000000000000000000000000001",
                    "revert": false,
                    "revertMessage": "",
                    "selector": "0xa9059cbb",
                    "status": true,
                    "value": "0"
                },
                "nodeType": 0
            },
            "4": {
                "event": {
                    "contract": "0x6b175474e89094c44da98b954eedeac495271d0f",
                    "decodedLog": {
                        "name": "Transfer",
                        "params": [
                            {
                                "name": "src",
                                "type": "address",
                                "value": "0x60594a405d53811d3bc4766596efd80fd545a270"
                            },
                            {
                                "name": "dst",
                                "type": "address",
                                "value": "0xfb9f4a17552ace70a21ca19c09b737f22e10e79c"
                            },
                            {
                                "decimalAvailable": true,
                                "name": "wad",
                                "type": "uint256",
                                "value": "584,777,858,577,237,605,401"
                            }
                        ],
                        "signature": "Transfer(address,address,uint256)"
                    },
                    "id": 4,
                    "logData": "0x00000000000000000000000000000000000000000000001fb36c4c1711dcfc19",
                    "logDecoded": true,
                    "operation": "EVENT",
                    "revert": false,
                    "status": true,
                    "topics": [
                        "0xddf252ad1be2c89b69c2b068fc378daa952ba7f163c4a11628f55a4df523b3ef",
                        "0x00000000000000000000000060594a405d53811d3bc4766596efd80fd545a270",
                        "0x000000000000000000000000fb9f4a17552ace70a21ca19c09b737f22e10e79c"
                    ]
                },
                "nodeType": 1
            },
            "5": {
                "invocation": {
                    "address": "0xc02aaa39b223fe8d0a0e5c4f27ead9083c756cc2",
                    "callData": "0x00000000000000000000000060594a405d53811d3bc4766596efd80fd545a270",
                    "decodedMethod": {
                        "callParams": [
                            {
                                "name": "",
                                "type": "address",
                                "value": "0x60594a405d53811d3bc4766596efd80fd545a270"
                            }
                        ],
                        "constructorArguments": "",
                        "name": "balanceOf",
                        "returnParams": [
                            {
                                "decimalAvailable": true,
                                "name": "",
                                "type": "uint256",
                                "value": "3,524,211,821,473,911,582,580"
                            }
                        ],
                        "signature": "balanceOf(address)"
                    },
                    "errorInfo": "",
                    "fromAddress": "0x60594a405d53811d3bc4766596efd80fd545a270",
                    "gasUsed": 2534,
                    "id": 5,
                    "methodDecoded": true,
                    "operation": "STATICCALL",
                    "output": "0x0000000000000000000000000000000000000000000000bf0c438b8e58dcaf74",
                    "revert": false,
                    "revertMessage": "",
                    "selector": "0x70a08231",
                    "status": true,
                    "value": "0"
                },
                "nodeType": 0
            },
            "6": {
                "invocation": {
                    "address": "0x68b3465833fb72a70ecdf485e0e4c7bd8665fc45",
                    "callData": "0xffffffffffffffffffffffffffffffffffffffffffffffe04c93b3e8ee2303e7000000000000000000000000000000000000000000000000027f7d0bdb920000000000000000000000000000000000000000000000000000000000000000006000000000000000000000000000000000000000000000000000000000000000c000000000000000000000000000000000000000000000000000000000000000200000000000000000000000000000000000000000000000000000000000000040000000000000000000000000fb9f4a17552ace70a21ca19c09b737f22e10e79c000000000000000000000000000000000000000000000000000000000000002bc02aaa39b223fe8d0a0e5c4f27ead9083c756cc20001f46b175474e89094c44da98b954eedeac495271d0f000000000000000000000000000000000000000000",
                    "decodedMethod": {
                        "callParams": [
                            {
                                "name": "amount0Delta",
                                "type": "int256",
                                "value": "-584,777,858,577,237,605,401"
                            },
                            {
                                "name": "amount1Delta",
                                "type": "int256",
                                "value": "180,000,000,000,000,000"
                            },
                            {
                                "name": "_data",
                                "type": "bytes",
                                "value": "0x00000000000000000000000000000000000000000000000000000000000000200000000000000000000000000000000000000000000000000000000000000040000000000000000000000000fb9f4a17552ace70a21ca19c09b737f22e10e79c000000000000000000000000000000000000000000000000000000000000002bc02aaa39b223fe8d0a0e5c4f27ead9083c756cc20001f46b175474e89094c44da98b954eedeac495271d0f000000000000000000000000000000000000000000"
                            }
                        ],
                        "constructorArguments": "",
                        "name": "uniswapV3SwapCallback",
                        "returnParams": [],
                        "signature": "uniswapV3SwapCallback(int256,int256,bytes)"
                    },
                    "errorInfo": "",
                    "fromAddress": "0x60594a405d53811d3bc4766596efd80fd545a270",
                    "gasUsed": 40545,
                    "id": 6,
                    "methodDecoded": true,
                    "operation": "CALL",
                    "output": "",
                    "revert": false,
                    "revertMessage": "",
                    "selector": "0xfa461e33",
                    "status": true,
                    "value": "0"
                },
                "nodeType": 0
            },
            "7": {
                "invocation": {
                    "address": "0xc02aaa39b223fe8d0a0e5c4f27ead9083c756cc2",
                    "callData": "0x",
                    "decodedMethod": {
                        "callParams": [],
                        "constructorArguments": "",
                        "name": "deposit",
                        "returnParams": [],
                        "signature": "deposit()"
                    },
                    "errorInfo": "",
                    "fromAddress": "0x68b3465833fb72a70ecdf485e0e4c7bd8665fc45",
                    "gasUsed": 23974,
                    "id": 7,
                    "methodDecoded": true,
                    "operation": "CALL",
                    "output": "",
                    "revert": false,
                    "revertMessage": "",
                    "selector": "0xd0e30db0",
                    "status": true,
                    "value": "0.18"
                },
                "nodeType": 0
            },
            "8": {
                "event": {
                    "contract": "0xc02aaa39b223fe8d0a0e5c4f27ead9083c756cc2",
                    "decodedLog": {
                        "name": "Deposit",
                        "params": [
                            {
                                "name": "dst",
                                "type": "address",
                                "value": "0x68b3465833fb72a70ecdf485e0e4c7bd8665fc45"
                            },
                            {
                                "name": "wad",
                                "type": "uint256",
                                "value": "180,000,000,000,000,000"
                            }
                        ],
                        "signature": "Deposit(address,uint256)"
                    },
                    "id": 8,
                    "logData": "0x000000000000000000000000000000000000000000000000027f7d0bdb920000",
                    "logDecoded": true,
                    "operation": "EVENT",
                    "revert": false,
                    "status": true,
                    "topics": [
                        "0xe1fffcc4923d04b559f4d29a8bfc6cda04eb5b0d3c460751c2402c5c5cc9109c",
                        "0x00000000000000000000000068b3465833fb72a70ecdf485e0e4c7bd8665fc45"
                    ]
                },
                "nodeType": 1
            },
            "9": {
                "invocation": {
                    "address": "0xc02aaa39b223fe8d0a0e5c4f27ead9083c756cc2",
                    "callData": "0x00000000000000000000000060594a405d53811d3bc4766596efd80fd545a270000000000000000000000000000000000000000000000000027f7d0bdb920000",
                    "decodedMethod": {
                        "callParams": [
                            {
                                "name": "dst",
                                "type": "address",
                                "value": "0x60594a405d53811d3bc4766596efd80fd545a270"
                            },
                            {
                                "decimalAvailable": true,
                                "name": "wad",
                                "type": "uint256",
                                "value": "180,000,000,000,000,000"
                            }
                        ],
                        "constructorArguments": "",
                        "name": "transfer",
                        "returnParams": [
                            {
                                "name": "",
                                "type": "bool",
                                "value": true
                            }
                        ],
                        "signature": "transfer(address,uint256)"
                    },
                    "errorInfo": "",
                    "fromAddress": "0x68b3465833fb72a70ecdf485e0e4c7bd8665fc45",
                    "gasUsed": 6062,
                    "id": 9,
                    "methodDecoded": true,
                    "operation": "CALL",
                    "output": "0x0000000000000000000000000000000000000000000000000000000000000001",
                    "revert": false,
                    "revertMessage": "",
                    "selector": "0xa9059cbb",
                    "status": true,
                    "value": "0"
                },
                "nodeType": 0
            }
        },
        "gasFlame": [
            {
                "children": [
                    {
                        "children": [
                            {
                                "children": [],
                                "depth": 0,
                                "name": "Initial Gas",
                                "value": 23796
                            },
                            {
                                "children": [
                                    {
                                        "children": [
                                            {
                                                "children": [
                                                    {
                                                        "children": [],
                                                        "depth": 3,
                                                        "name": "transfer",
                                                        "value": 30174
                                                    },
                                                    {
                                                        "children": [],
                                                        "depth": 3,
                                                        "name": "balanceOf",
                                                        "value": 2534
                                                    },
                                                    {
                                                        "children": [
                                                            {
                                                                "children": [],
                                                                "depth": 4,
                                                                "name": "deposit",
                                                                "value": 23974
                                                            },
                                                            {
                                                                "children": [],
                                                                "depth": 4,
                                                                "name": "transfer",
                                                                "value": 6062
                                                            }
                                                        ],
                                                        "depth": 3,
                                                        "name": "uniswapV3SwapCallback",
                                                        "value": 40545
                                                    },
                                                    {
                                                        "children": [],
                                                        "depth": 3,
                                                        "name": "balanceOf",
                                                        "value": 534
                                                    }
                                                ],
                                                "depth": 2,
                                                "name": "swap",
                                                "value": 110882
                                            }
                                        ],
                                        "depth": 1,
                                        "name": "exactInputSingle",
                                        "value": 118307
                                    }
                                ],
                                "depth": 0,
                                "name": "Executed Gas",
                                "value": 120485
                            }
                        ],
                        "depth": -1,
                        "name": "Actual Gas Used",
                        "value": 124381
                    },
                    {
                        "children": [],
                        "depth": -1,
                        "name": "Refunded Gas",
                        "value": 19900
                    }
                ],
                "depth": -2,
                "name": "Total Gas",
                "value": 144281
            }
        ],
        "isConfirmed": true,
        "mainTrace": [
            {
                "children": [
                    {
                        "children": [
                            {
                                "children": [
                                    {
                                        "children": [
                                            {
                                                "children": [
                                                    {
                                                        "children": [],
                                                        "depth": 4,
                                                        "id": 4,
                                                        "order": 4
                                                    }
                                                ],
                                                "depth": 3,
                                                "id": 3,
                                                "order": 3
                                            },
                                            {
                                                "children": [],
                                                "depth": 3,
                                                "id": 5,
                                                "order": 5
                                            },
                                            {
                                                "children": [
                                                    {
                                                        "children": [
                                                            {
                                                                "children": [],
                                                                "depth": 5,
                                                                "id": 8,
                                                                "order": 8
                                                            }
                                                        ],
                                                        "depth": 4,
                                                        "id": 7,
                                                        "order": 7
                                                    },
                                                    {
                                                        "children": [
                                                            {
                                                                "children": [],
                                                                "depth": 5,
                                                                "id": 10,
                                                                "order": 10
                                                            }
                                                        ],
                                                        "depth": 4,
                                                        "id": 9,
                                                        "order": 9
                                                    }
                                                ],
                                                "depth": 3,
                                                "id": 6,
                                                "order": 6
                                            },
                                            {
                                                "children": [],
                                                "depth": 3,
                                                "id": 11,
                                                "order": 11
                                            },
                                            {
                                                "children": [],
                                                "depth": 3,
                                                "id": 12,
                                                "order": 12
                                            }
                                        ],
                                        "depth": 2,
                                        "id": 2,
                                        "order": 2
                                    }
                                ],
                                "depth": 1,
                                "id": 1,
                                "order": 1
                            }
                        ],
                        "depth": 0,
                        "id": 0,
                        "order": 0
                    }
                ],
                "depth": -1,
                "id": -1,
                "order": -1
            }
        ],
        "mainTraceNodeCount": 13,
        "parentIdMap": {
            "0": -1,
            "1": 0,
            "10": 9,
            "11": 2,
            "12": 2,
            "2": 1,
            "3": 2,
            "4": 3,
            "5": 2,
            "6": 2,
            "7": 6,
            "8": 7,
            "9": 6
        },
        "tidyTrace": [
            {
                "children": [
                    {
                        "children": [
                            {
                                "children": [
                                    {
                                        "children": [
                                            {
                                                "children": [
                                                    {
                                                        "children": [],
                                                        "depth": 4,
                                                        "id": 4,
                                                        "order": 4
                                                    }
                                                ],
                                                "depth": 3,
                                                "id": 3,
                                                "order": 3
                                            },
                                            {
                                                "children": [
                                                    {
                                                        "children": [
                                                            {
                                                                "children": [],
                                                                "depth": 5,
                                                                "id": 8,
                                                                "order": 8
                                                            }
                                                        ],
                                                        "depth": 4,
                                                        "id": 7,
                                                        "order": 7
                                                    },
                                                    {
                                                        "children": [
                                                            {
                                                                "children": [],
                                                                "depth": 5,
                                                                "id": 10,
                                                                "order": 10
                                                            }
                                                        ],
                                                        "depth": 4,
                                                        "id": 9,
                                                        "order": 9
                                                    }
                                                ],
                                                "depth": 3,
                                                "id": 6,
                                                "order": 6
                                            },
                                            {
                                                "children": [],
                                                "depth": 3,
                                                "id": 12,
                                                "order": 12
                                            }
                                        ],
                                        "depth": 2,
                                        "id": 2,
                                        "order": 2
                                    }
                                ],
                                "depth": 1,
                                "id": 1,
                                "order": 1
                            }
                        ],
                        "depth": 0,
                        "id": 0,
                        "order": 0
                    }
                ],
                "depth": -1,
                "id": -1,
                "order": -1
            }
        ],
        "tidyTraceNodeCount": 11
    },
    "state_change": {
        "stateChanges": [
            {
                "address": "0x60594a405d53811d3bc4766596efd80fd545a270",
                "erc": "",
                "slots": [
                    {
                        "current": "0x00010000500050001efec41a0000000000000000047d83143491c893004f1d96",
                        "key": "0x0000000000000000000000000000000000000000000000000000000000000000",
                        "prev": "0x00010000500050001efec41a0000000000000000047d812f65e20d3b2f785f60"
                    },
                    {
                        "current": "0x00000000000000000000000000000000004eae970bc05c9d0900267c09758fae",
                        "key": "0x0000000000000000000000000000000000000000000000000000000000000002",
                        "prev": "0x00000000000000000000000000000000004eae96cdaa3f316add7732a0f583ef"
                    }
                ],
                "storageVariables": []
            },
            {
                "address": "0x6b175474e89094c44da98b954eedeac495271d0f",
                "erc": "ERC-20",
                "slots": [
                    {
                        "current": "0x00000000000000000000000000000000000000000004ea2a04bff653c0348bbf",
                        "key": "0x995f3b129dd3291868ddb9cf202c75cd985227d50e309847fbab0f8da403b19c",
                        "prev": "0x00000000000000000000000000000000000000000004ea49b82c426ad21187d8"
                    },
                    {
                        "current": "0x00000000000000000000000000000000000000000000001fb36c4c1711dcfc19",
                        "key": "0xdc227c04d94fb086fd9f6f8d85a5d266a439d20e5585d563dfb3b6aa3da3a16b",
                        "prev": "0x0000000000000000000000000000000000000000000000000000000000000000"
                    }
                ],
                "storageVariables": [
                    {
                        "name": "balanceOf",
                        "type": "mapping(address => uint256)",
                        "value": {
                            "pairs": [
                                {
                                    "key": "0x60594a405d53811d3bc4766596efd80fd545a270",
                                    "value": {
                                        "current": "5941512140964045750832063",
                                        "prev": "5942096918822622988437464",
                                        "typeTag": 1
                                    }
                                },
                                {
                                    "key": "0xfb9f4a17552ace70a21ca19c09b737f22e10e79c",
                                    "value": {
                                        "current": "584777858577237605401",
                                        "prev": "0",
                                        "typeTag": 1
                                    }
                                }
                            ],
                            "typeTag": 4
                        }
                    }
                ]
            },
            {
                "address": "0xc02aaa39b223fe8d0a0e5c4f27ead9083c756cc2",
                "erc": "ERC-20",
                "slots": [
                    {
                        "current": "0x0000000000000000000000000000000000000000000000bf0ec3089a346eaf74",
                        "key": "0xf762dfe765e313d39f5dd6e34e29a9ef0af51578e67f7f482bb4f8efd984976b",
                        "prev": "0x0000000000000000000000000000000000000000000000bf0c438b8e58dcaf74"
                    }
                ],
                "storageVariables": [
                    {
                        "name": "balanceOf",
                        "type": "mapping(address => uint256)",
                        "value": {
                            "pairs": [
                                {
                                    "key": "0x60594a405d53811d3bc4766596efd80fd545a270",
                                    "value": {
                                        "current": "3524391821473911582580",
                                        "prev": "3524211821473911582580",
                                        "typeTag": 1
                                    }
                                }
                            ],
                            "typeTag": 4
                        }
                    }
                ]
            }
        ]
    }
}