{
    "balance_change": {
        "balanceChanges": [
            {
                "account": "0xfadbe6b05a1a2aef9600d64fba617f5127940e99",
                "assets": [
                    {
                        "address": "0x86c9f9df4a0bfc9a52eb3d16bcce3bc50d1a34ae",
                        "amount": "1,823",
                        "iconUrl": "",
                        "isERC1155": false,
                        "isERC721": false,
                        "sign": false,
                        "value": ""
                    }
                ]
            },
            {
                "account": "0x1d5e4166fb6db24c50d5be14a7fc6560e57816be",
                "assets": [
                    {
                        "address": "0x86c9f9df4a0bfc9a52eb3d16bcce3bc50d1a34ae",
                        "amount": "1,823",
                        "iconUrl": "",
                        "isERC1155": false,
                        "isERC721": false,
                        "sign": true,
                        "value": ""
                    }
                ]
            }
        ]
    },
    "profile": {
        "basic_info": {
            "baseFee": "",
            "blockNumber": 10288148,
            "callData": "0xa9059cbb0000000000000000000000001d5e4166fb6db24c50d5be14a7fc6560e57816be000000000000000000000000000000000000000000000062d3350955011c0000",
            "debugEnable": true,
            "errorInfo": "",
            "eventCount": 1,
            "feeRecipient": "0x52bc44d5378309ee2abf1539bf71de1b7d7be3b5",
            "formatValue": "0",
            "gasLimit": 100000,
            "gasPrice": "33",
            "gasUsed": 54998,
            "intTxnCount": 0,
            "internalRevert": false,
            "internalRevertMessage": "",
            "isContractCreation": false,
            "isFlashloan": false,
            "maxFee": "",
            "nonce": 134,
            "overwritedBlockNumber": -1,
            "priorityFee": "",
            "receiver": "0x86c9f9df4a0bfc9a52eb3d16bcce3bc50d1a34ae",
            "revertMessage": "",
            "sender": "0xfadbe6b05a1a2aef9600d64fba617f5127940e99",
            "simulationEnable": true,
            "sourceTxnHash": "0x7bf704575b1a88494e9f7c4bb92709aab353f3a7a51cae9cb843c52dcdd874fe",
            "status": true,
            "timestamp": "2020-06-18T06:43:09Z",
            "transactionFee": "0.001814934",
            "txnHash": "0x7bf704575b1a88494e9f7c4bb92709aab353f3a7a51cae9cb843c52dcdd874fe",
            "txnIndex": 56,
            "type": 0,
            "value": "0"
        },
        "fund_flow": [
            {
                "amount": "1,823",
                "from": "0xfadbe6b05a1a2aef9600d64fba617f5127940e99",
                "id": 1,
                "isERC1155": false,
                "isERC721": false,
                "isReverted": false,
                "order": 1,
                "to": "0x1d5e4166fb6db24c50d5be14a7fc6560e57816be",
                "token": "0x86c9f9df4a0bfc9a52eb3d16bcce3bc50d1a34ae"
            }
        ],
        "token_infos": [
            {
                "address": "0xc02aaa39b223fe8d0a0e5c4f27ead9083c756cc2",
                "decimals": 18
            },
            {
                "address": "0xeeeeeeeeeeeeeeeeeeeeeeeeeeeeeeeeeeeeeeee",
                "decimals": 18
            },
            {
                "address": "0x86c9f9df4a0bfc9a52eb3d16bcce3bc50d1a34ae",
                "decimals": 18
            }
        ]
    },
    "address_label": {
        "labels": [
            {
                "address": "0x0000000000000000000000000000000000000001",
                "label": "Precompiled"
            },
            {
                "address": "0x0000000000000000000000000000000000000002",
                "label": "Precompiled"
            },
            {
                "address": "0x0000000000000000000000000000000000000003",
                "label": "Precompiled"
            },
            {
                "address": "0x0000000000000000000000000000000000000004",
                "label": "Precompiled"
            },
            {
                "address": "0xeeeeeeeeeeeeeeeeeeeeeeeeeeeeeeeeeeeeeeee",
                "label": "Ether"
            },
            {
                "address": "0x86c9f9df4a0bfc9a52eb3d16bcce3bc50d1a34ae",
                "label": "Apsara Cryptocurrency Benchmark In... (ACI)"
            }
        ]
    },
    "trace": {
        "accountLabels": null,
        "dataMap": {
            "-1": {
                "invocation": {
                    "address": "0xfadbe6b05a1a2aef9600d64fba617f5127940e99",
                    "callData": "",
                    "decodedMethod": null,
                    "errorInfo": "",
                    "fromAddress": "",
                    "gasUsed": 0,
                    "id": -1,
                    "methodDecoded": false,
                    "operation": "",
                    "output": "",
                    "revert": false,
                    "revertMessage": "",
                    "selector": "",
                    "status": false,
                    "value": ""
                },
                "nodeType": 0
            },
            "0": {
                "invocation": {
                    "address": "0x86c9f9df4a0bfc9a52eb3d16bcce3bc50d1a34ae",
                    "callData": "0x0000000000000000000000001d5e4166fb6db24c50d5be14a7fc6560e57816be000000000000000000000000000000000000000000000062d3350955011c0000",
                    "decodedMethod": {
                        "callParams": [
                            {
                                "name": "_to",
                                "type": "address",
                                "value": "0x1d5e4166fb6db24c50d5be14a7fc6560e57816be"
                            },
                            {
                                "decimalAvailable": true,
                                "name": "_value",
                                "type": "uint256",
                                "value": "1,823,000,000,000,000,000,000"
                            }
                        ],
                        "constructorArguments": "",
                        "name": "transfer",
                        "returnParams": [
                            {
                                "name": "success",
                                "type": "bool",
                                "value": true
                            }
                        ],
                        "signature": "transfer(address,uint256)"
                    },
                    "errorInfo": "",
                    "fromAddress": "0xfadbe6b05a1a2aef9600d64fba617f5127940e99",
                    "gasUsed": 54998,
                    "id": 0,
                    "methodDecoded": true,
                    "operation": "CALL",
                    "output": "0x0000000000000000000000000000000000000000000000000000000000000001",
                    "revert": false,
                    "revertMessage": "",
                    "selector": "0xa9059cbb",
                    "status": true,
                    "value": "0"
                },
                "nodeType": 0
            },
            "1": {
                "event": {
                    "contract": "0x86c9f9df4a0bfc9a52eb3d16bcce3bc50d1a34ae",
                    "decodedLog": {
                        "name": "Transfer",
                        "params": [
                            {
                                "name": "from",
                                "type": "address",
                                "value": "0xfadbe6b05a1a2aef9600d64fba617f5127940e99"
                            },
                            {
                                "name": "to",
                                "type": "address",
                                "value": "0x1d5e4166fb6db24c50d5be14a7fc6560e57816be"
                            },
                            {
                                "decimalAvailable": true,
                                "name": "value",
                                "type": "uint256",
                                "value": "1,823,000,000,000,000,000,000"
                            }
                        ],
                        "signature": "Transfer(address,address,uint256)"
                    },
                    "id": 1,
                    "logData": "0x000000000000000000000000000000000000000000000062d3350955011c0000",
                    "logDecoded": true,
                    "operation": "EVENT",
                    "revert": false,
                    "status": true,
                    "topics": [
                        "0xddf252ad1be2c89b69c2b068fc378daa952ba7f163c4a11628f55a4df523b3ef",
                        "0x000000000000000000000000fadbe6b05a1a2aef9600d64fba617f5127940e99",
                        "0x0000000000000000000000001d5e4166fb6db24c50d5be14a7fc6560e57816be"
                    ]
                },
                "nodeType": 1
            }
        },
        "gasFlame": [
            {
                "children": [
                    {
                        "children": [
                            {
                                "children": [],
                                "depth": 0,
                                "name": "Initial Gas",
                                "value": 21644
                            },
                            {
                                "children": [],
                                "depth": 0,
                                "name": "Executed Gas",
                                "value": 33354
                            }
                        ],
                        "depth": -1,
                        "name": "Actual Gas Used",
                        "value": 54998
                    },
                    {
                        "children": [],
                        "depth": -1,
                        "name": "Refunded Gas",
                        "value": 0
                    }
                ],
                "depth": -2,
                "name": "Total Gas",
                "value": 54998
            }
        ],
        "isConfirmed": true,
        "mainTrace": [
            {
                "children": [
                    {
                        "children": [
                            {
                                "children": [],
                                "depth": 1,
                                "id": 1,
                                "order": 1
                            }
                        ],
                        "depth": 0,
                        "id": 0,
                        "order": 0
                    }
                ],
                "depth": -1,
                "id": -1,
                "order": -1
            }
        ],
        "mainTraceNodeCount": 2,
        "parentIdMap": {
            "0": -1,
            "1": 0
        },
        "tidyTrace": [
            {
                "children": [
                    {
                        "children": [
                            {
                                "children": [],
                                "depth": 1,
                                "id": 1,
                                "order": 1
                            }
                        ],
                        "depth": 0,
                        "id": 0,
                        "order": 0
                    }
                ],
                "depth": -1,
                "id": -1,
                "order": -1
            }
        ],
        "tidyTraceNodeCount": 2
    },
    "state_change": {
        "stateChanges": [
            {
                "address": "0x86c9f9df4a0bfc9a52eb3d16bcce3bc50d1a34ae",
                "erc": "ERC-20",
                "slots": [
                    {
                        "current": "0x00000000000000000000000000000000000000000001c8974b4b17c527b80000",
                        "key": "0xe8456a005e075d18d037d3e1770dafcfef23f754d6d8f85bcb2ccd9b6d0785b0",
                        "prev": "0x00000000000000000000000000000000000000000001c8fa1e80211a28d40000"
                    },
                    {
                        "current": "0x000000000000000000000000000000000000000000000062d3350955011c0000",
                        "key": "0x5f4d9284e3594413c793db76681b77a022fdbdaa93b1c5a457f88cb2399d9879",
                        "prev": "0x0000000000000000000000000000000000000000000000000000000000000000"
                    }
                ],
                "storageVariables": [
                    {
                        "name": "balanceOf",
                        "type": "mapping(address => uint256)",
                        "value": {
                            "pairs": [
                                {
                                    "key": "0x1d5e4166fb6db24c50d5be14a7fc6560e57816be",
                                    "value": {
                                        "current": "1823000000000000000000",
                                        "prev": "0",
                                        "typeTag": 1
                                    }
                                },
                                {
                                    "key": "0xfadbe6b05a1a2aef9600d64fba617f5127940e99",
                                    "value": {
                                        "current": "2156190000000000000000000",
                                        "prev": "2158013000000000000000000",
                                        "typeTag": 1
                                    }
                                }
                            ],
                            "typeTag": 4
                        }
                    }
                ]
            }
        ]
    }
}