{
    "balance_change": {
        "balanceChanges": [
            {
                "account": "0x757c8fda2868c5d696cf16a3dcab50e5bdd91c42",
                "assets": [
                    {
                        "address": "0xdac17f958d2ee523a2206206994597c13d831ec7",
                        "amount": "2,273.818784",
                        "iconUrl": "https://assets.blocksec.com/icon/fcea71f3193ce895be44bfdf941f7e4c9381dd587f273c2d1a27f1263d84e4ea.png",
                        "isERC1155": false,
                        "isERC721": false,
                        "sign": false,
                        "value": "2272.141206"
                    }
                ]
            },
            {
                "account": "0x5770815b0c2a09a43c9e5aecb7e2f3886075b605",
                "assets": [
                    {
                        "address": "0xdac17f958d2ee523a2206206994597c13d831ec7",
                        "amount": "2,273.818784",
                        "iconUrl": "https://assets.blocksec.com/icon/fcea71f3193ce895be44bfdf941f7e4c9381dd587f273c2d1a27f1263d84e4ea.png",
                        "isERC1155": false,
                        "isERC721": false,
                        "sign": true,
                        "value": "2272.141206"
                    }
                ]
            }
        ]
    },
    "profile": {
        "basic_info": {
            "baseFee": "22.407105493",
            "blockNumber": 15137310,
            "callData": "0xa9059cbb0000000000000000000000005770815b0c2a09a43c9e5aecb7e2f3886075b605000000000000000000000000000000000000000000000000000000008787b8a0",
            "debugEnable": true,
            "errorInfo": "",
            "eventCount": 1,
            "feeRecipient": "0x1ad91ee08f21be3de0ba2ba6918e714da6b45836",
            "formatValue": "0",
            "gasLimit": 120000,
            "gasPrice": "25.409105493",
            "gasUsed": 41309,
            "intTxnCount": 0,
            "internalRevert": false,
            "internalRevertMessage": "",
            "isContractCreation": false,
            "isFlashloan": false,
            "maxFee": "200",
            "nonce": 5,
            "overwritedBlockNumber": -1,
            "priorityFee": "3.002",
            "receiver": "0xdac17f958d2ee523a2206206994597c13d831ec7",
            "revertMessage": "",
            "sender": "0x757c8fda2868c5d696cf16a3dcab50e5bdd91c42",
            "simulationEnable": true,
            "sourceTxnHash": "0x7bb543599ed5148b4cf0528e137d67c916a9f6273c33d7ef8dc8812afda5699b",
            "status": true,
            "timestamp": "2022-07-13T23:45:49Z",
            "transactionFee": "0.001049624738810337",
            "txnHash": "0x7bb543599ed5148b4cf0528e137d67c916a9f6273c33d7ef8dc8812afda5699b",
            "txnIndex": 201,
            "type": 2,
            "value": "0"
        },
        "fund_flow": [
            {
                "amount": "2,273.818784",
                "from": "0x757c8fda2868c5d696cf16a3dcab50e5bdd91c42",
                "id": 1,
                "isERC1155": false,
                "isERC721": false,
                "isReverted": false,
                "order": 1,
                "to": "0x5770815b0c2a09a43c9e5aecb7e2f3886075b605",
                "token": "0xdac17f958d2ee523a2206206994597c13d831ec7"
            }
        ],
        "token_infos": [
            {
                "address": "0xc02aaa39b223fe8d0a0e5c4f27ead9083c756cc2",
                "decimals": 18
            },
            {
                "address": "0xdac17f958d2ee523a2206206994597c13d831ec7",
                "decimals": 6
            },
            {
                "address": "0xeeeeeeeeeeeeeeeeeeeeeeeeeeeeeeeeeeeeeeee",
                "decimals": 18
            }
        ]
    },
    "address_label": {
        "labels": [
            {
                "address": "0x0000000000000000000000000000000000000002",
                "label": "Precompiled"
            },
            {
                "address": "0x0000000000000000000000000000000000000003",
                "label": "Precompiled"
            },
            {
                "address": "0x0000000000000000000000000000000000000004",
                "label": "Precompiled"
            },
            {
                "address": "0xeeeeeeeeeeeeeeeeeeeeeeeeeeeeeeeeeeeeeeee",
                "label": "Ether"
            },
            {
                "address": "0x757c8fda2868c5d696cf16a3dcab50e5bdd91c42",
                "label": "SWISSBORG"
            },
            {
                "address": "0xdac17f958d2ee523a2206206994597c13d831ec7",
                "label": "Tether: USDT Stablecoin"
            },
            {
                "address": "0x5770815b0c2a09a43c9e5aecb7e2f3886075b605",
                "label": "SwissBorg 1"
            },
            {
                "address": "0x0000000000000000000000000000000000000001",
                "label": "Precompiled"
            }
        ]
    },
    "trace": {
        "accountLabels": null,
        "dataMap": {
            "-1": {
                "invocation": {
                    "address": "0x757c8fda2868c5d696cf16a3dcab50e5bdd91c42",
                    "callData": "",
                    "decodedMethod": null,
                    "errorInfo": "",
                    "fromAddress": "",
                    "gasUsed": 0,
                    "id": -1,
                    "methodDecoded": false,
                    "operation": "",
                    "output": "",
                    "revert": false,
                    "revertMessage": "",
                    "selector": "",
                    "status": false,
                    "value": ""
                },
                "nodeType": 0
            },
            "0": {
                "invocation": {
                    "address": "0xdac17f958d2ee523a2206206994597c13d831ec7",
                    "callData": "0x0000000000000000000000005770815b0c2a09a43c9e5aecb7e2f3886075b605000000000000000000000000000000000000000000000000000000008787b8a0",
                    "decodedMethod": {
                        "callParams": [
                            {
                                "name": "_to",
                                "type": "address",
                                "value": "0x5770815b0c2a09a43c9e5aecb7e2f3886075b605"
                            },
                            {
                                "decimalAvailable": true,
                                "name": "_value",
                                "type": "uint256",
                                "value": "2,273,818,784"
                            }
                        ],
                        "constructorArguments": "",
                        "name": "transfer",
                        "returnParams": [],
                        "signature": "transfer(address,uint256)"
                    },
                    "errorInfo": "",
                    "fromAddress": "0x757c8fda2868c5d696cf16a3dcab50e5bdd91c42",
                    "gasUsed": 41309,
                    "id": 0,
                    "methodDecoded": true,
                    "operation": "CALL",
                    "output": "",
                    "revert": false,
                    "revertMessage": "",
                    "selector": "0xa9059cbb",
                    "status": true,
                    "value": "0"
                },
                "nodeType": 0
            },
            "1": {
                "event": {
                    "contract": "0xdac17f958d2ee523a2206206994597c13d831ec7",
                    "decodedLog": {
                        "name": "Transfer",
                        "params": [
                            {
                                "name": "from",
                                "type": "address",
                                "value": "0x757c8fda2868c5d696cf16a3dcab50e5bdd91c42"
                            },
                            {
                                "name": "to",
                                "type": "address",
                                "value": "0x5770815b0c2a09a43c9e5aecb7e2f3886075b605"
                            },
                            {
                                "decimalAvailable": true,
                                "name": "value",
                                "type": "uint256",
                                "value": "2,273,818,784"
                            }
                        ],
                        "signature": "Transfer(address,address,uint256)"
                    },
                    "id": 1,
                    "logData": "0x000000000000000000000000000000000000000000000000000000008787b8a0",
                    "logDecoded": true,
                    "operation": "EVENT",
                    "revert": false,
                    "status": true,
                    "topics": [
                        "0xddf252ad1be2c89b69c2b068fc378daa952ba7f163c4a11628f55a4df523b3ef",
                        "0x000000000000000000000000757c8fda2868c5d696cf16a3dcab50e5bdd91c42",
                        "0x0000000000000000000000005770815b0c2a09a43c9e5aecb7e2f3886075b605"
                    ]
                },
                "nodeType": 1
            }
        },
        "gasFlame": [
            {
                "children": [
                    {
                        "children": [
                            {
                                "children": [],
                                "depth": 0,
                                "name": "Initial Gas",
                                "value": 21608
                            },
                            {
                                "children": [],
                                "depth": 0,
                                "name": "Executed Gas",
                                "value": 24501
                            }
                        ],
                        "depth": -1,
                        "name": "Actual Gas Used",
                        "value": 41309
                    },
                    {
                        "children": [],
                        "depth": -1,
                        "name": "Refunded Gas",
                        "value": 4800
                    }
                ],
                "depth": -2,
                "name": "Total Gas",
                "value": 46109
            }
        ],
        "isConfirmed": true,
        "mainTrace": [
            {
                "children": [
                    {
                        "children": [
                            {
                                "children": [],
                                "depth": 1,
                                "id": 1,
                                "order": 1
                            }
                        ],
                        "depth": 0,
                        "id": 0,
                        "order": 0
                    }
                ],
                "depth": -1,
                "id": -1,
                "order": -1
            }
        ],
        "mainTraceNodeCount": 2,
        "parentIdMap": {
            "0": -1,
            "1": 0
        },
        "tidyTrace": [
            {
                "children": [
                    {
                        "children": [
                            {
                                "children": [],
                                "depth": 1,
                                "id": 1,
                                "order": 1
                            }
                        ],
                        "depth": 0,
                        "id": 0,
                        "order": 0
                    }
                ],
                "depth": -1,
                "id": -1,
                "order": -1
            }
        ],
        "tidyTraceNodeCount": 2
    },
    "state_change": {
        "stateChanges": [
            {
                "address": "0xdac17f958d2ee523a2206206994597c13d831ec7",
                "erc": "ERC-20",
                "slots": [
                    {
                        "current": "0x0000000000000000000000000000000000000000000000000000000000000000",
                        "key": "0x57015e43c777b0545075aec9906f3fb75b64cc674f06beda15e308800e0c9b3b",
                        "prev": "0x000000000000000000000000000000000000000000000000000000008787b8a0"
                    },
                    {
                        "current": "0x0000000000000000000000000000000000000000000000000000003a894cd942",
                        "key": "0x1349827fe43a14e2ffad6a8ebaf24595bb6f073549aae4901c8441e349fa3ae0",
                        "prev": "0x0000000000000000000000000000000000000000000000000000003a01c520a2"
                    }
                ],
                "storageVariables": [
                    {
                        "name": "balances",
                        "type": "mapping(address => uint256)",
                        "value": {
                            "pairs": [
                                {
                                    "key": "0x5770815b0c2a09a43c9e5aecb7e2f3886075b605",
                                    "value": {
                                        "current": "251411618114",
                                        "prev": "249137799330",
                                        "typeTag": 1
                                    }
                                },
                                {
                                    "key": "0x757c8fda2868c5d696cf16a3dcab50e5bdd91c42",
                                    "value": {
                                        "current": "0",
                                        "prev": "2273818784",
                                        "typeTag": 1
                                    }
                                }
                            ],
                            "typeTag": 4
                        }
                    }
                ]
            }
        ]
    }
}