{
    "balance_change": {
        "balanceChanges": [
            {
                "account": "0xcaaafd7ed85f9fbad39e8a31bdbad0365f1f5b82",
                "assets": [
                    {
                        "address": "0xeeeeeeeeeeeeeeeeeeeeeeeeeeeeeeeeeeeeeeee",
                        "amount": "0.79",
                        "iconUrl": "https://assets.blocksec.com/image/1663669189317-3.png",
                        "isERC1155": false,
                        "isERC721": false,
                        "sign": false,
                        "value": "1270.654716"
                    },
                    {
                        "address": "0x298d492e8c1d909d3f63bc4a36c66c64acb3d695",
                        "amount": "5,710.897291673881194703",
                        "iconUrl": "https://assets.blocksec.com/icon/e671a0d5571b57532a8202c67ceae0e15ef687197ee6459da9f1536552c7a3c8.png",
                        "isERC1155": false,
                        "isERC721": false,
                        "sign": true,
                        "value": "1247.44261"
                    }
                ]
            },
            {
                "account": "0x0000000000000000000000000000000000000000",
                "assets": [
                    {
                        "address": "0x298d492e8c1d909d3f63bc4a36c66c64acb3d695",
                        "amount": "2.869797634006975474",
                        "iconUrl": "https://assets.blocksec.com/icon/e671a0d5571b57532a8202c67ceae0e15ef687197ee6459da9f1536552c7a3c8.png",
                        "isERC1155": false,
                        "isERC721": false,
                        "sign": true,
                        "value": "0.62917035"
                    }
                ]
            },
            {
                "account": "0x75b8c48bdb04d426aed57b36bb835ad2dc321c30",
                "assets": [
                    {
                        "address": "0x298d492e8c1d909d3f63bc4a36c66c64acb3d695",
                        "amount": "25.828178706062779272",
                        "iconUrl": "https://assets.blocksec.com/icon/e671a0d5571b57532a8202c67ceae0e15ef687197ee6459da9f1536552c7a3c8.png",
                        "isERC1155": false,
                        "isERC721": false,
                        "sign": true,
                        "value": "5.57942115"
                    }
                ]
            },
            {
                "account": "0xc02aaa39b223fe8d0a0e5c4f27ead9083c756cc2",
                "assets": [
                    {
                        "address": "0xeeeeeeeeeeeeeeeeeeeeeeeeeeeeeeeeeeeeeeee",
                        "amount": "0.79",
                        "iconUrl": "https://assets.blocksec.com/image/1663669189317-3.png",
                        "isERC1155": false,
                        "isERC721": false,
                        "sign": true,
                        "value": "1270.654716"
                    },
                    {
                        "address": "0xc02aaa39b223fe8d0a0e5c4f27ead9083c756cc2",
                        "amount": "0.79",
                        "iconUrl": "https://assets.blocksec.com/icon/f1cb2d02c471d545bbc7722daf3277fd852d98e63d118771af7047bd8256c516.png",
                        "isERC1155": false,
                        "isERC721": false,
                        "sign": false,
                        "value": "1270.654716"
                    }
                ]
            },
            {
                "account": "0xcb37b0027858796ce60ecce4b54c45afdff02aca",
                "assets": [
                    {
                        "address": "0xc02aaa39b223fe8d0a0e5c4f27ead9083c756cc2",
                        "amount": "0.79",
                        "iconUrl": "https://assets.blocksec.com/icon/f1cb2d02c471d545bbc7722daf3277fd852d98e63d118771af7047bd8256c516.png",
                        "isERC1155": false,
                        "isERC721": false,
                        "sign": true,
                        "value": "1270.654716"
                    },
                    {
                        "address": "0x298d492e8c1d909d3f63bc4a36c66c64acb3d695",
                        "amount": "5,739.595268013950949449",
                        "iconUrl": "https://assets.blocksec.com/icon/e671a0d5571b57532a8202c67ceae0e15ef687197ee6459da9f1536552c7a3c8.png",
                        "isERC1155": false,
                        "isERC721": false,
                        "sign": false,
                        "value": "1244.487933"
                    }
                ]
            }
        ]
    },
    "profile": {
        "basic_info": {
            "baseFee": "",
            "blockNumber": 12108651,
            "callData": "0x7ff36ab500000000000000000000000000000000000000000000011adbb6beb572a1dbe50000000000000000000000000000000000000000000000000000000000000080000000000000000000000000caaafd7ed85f9fbad39e8a31bdbad0365f1f5b8200000000000000000000000000000000000000000000000000000000605ca3b10000000000000000000000000000000000000000000000000000000000000002000000000000000000000000c02aaa39b223fe8d0a0e5c4f27ead9083c756cc2000000000000000000000000298d492e8c1d909d3f63bc4a36c66c64acb3d695",
            "debugEnable": true,
            "errorInfo": "",
            "eventCount": 7,
            "feeRecipient": "0x5a0b54d5dc17e0aadc383d2db43b0a0d3e029c4c",
            "formatValue": "0.79",
            "gasLimit": 211532,
            "gasPrice": "236",
            "gasUsed": 161872,
            "intTxnCount": 7,
            "internalRevert": false,
            "internalRevertMessage": "",
            "isContractCreation": false,
            "isFlashloan": false,
            "maxFee": "",
            "nonce": 5186,
            "overwritedBlockNumber": -1,
            "priorityFee": "",
            "receiver": "0x7a250d5630b4cf539739df2c5dacb4c659f2488d",
            "revertMessage": "",
            "sender": "0xcaaafd7ed85f9fbad39e8a31bdbad0365f1f5b82",
            "simulationEnable": true,
            "sourceTxnHash": "0x7bf61afe62439f96cf8bb7e338eeb1e28cfa61cf1af5354106b4525b18aba12f",
            "status": true,
            "timestamp": "2021-03-25T14:34:13Z",
            "transactionFee": "0.038201792",
            "txnHash": "0x7bf61afe62439f96cf8bb7e338eeb1e28cfa61cf1af5354106b4525b18aba12f",
            "txnIndex": 210,
            "type": 0,
            "value": "790000000000000000"
        },
        "fund_flow": [
            {
                "amount": "0.79",
                "from": "0xcaaafd7ed85f9fbad39e8a31bdbad0365f1f5b82",
                "id": 1,
                "isERC1155": false,
                "isERC721": false,
                "isReverted": false,
                "order": 1,
                "to": "0x7a250d5630b4cf539739df2c5dacb4c659f2488d",
                "token": "0xeeeeeeeeeeeeeeeeeeeeeeeeeeeeeeeeeeeeeeee"
            },
            {
                "amount": "0.79",
                "from": "0x7a250d5630b4cf539739df2c5dacb4c659f2488d",
                "id": 2,
                "isERC1155": false,
                "isERC721": false,
                "isReverted": false,
                "order": 2,
                "to": "0xc02aaa39b223fe8d0a0e5c4f27ead9083c756cc2",
                "token": "0xeeeeeeeeeeeeeeeeeeeeeeeeeeeeeeeeeeeeeeee"
            },
            {
                "amount": "0.79",
                "from": "0xc02aaa39b223fe8d0a0e5c4f27ead9083c756cc2",
                "id": 3,
                "isERC1155": false,
                "isERC721": false,
                "isReverted": false,
                "order": 3,
                "to": "0x7a250d5630b4cf539739df2c5dacb4c659f2488d",
                "token": "0xc02aaa39b223fe8d0a0e5c4f27ead9083c756cc2"
            },
            {
                "amount": "0.79",
                "from": "0x7a250d5630b4cf539739df2c5dacb4c659f2488d",
                "id": 4,
                "isERC1155": false,
                "isERC721": false,
                "isReverted": false,
                "order": 4,
                "to": "0xcb37b0027858796ce60ecce4b54c45afdff02aca",
                "token": "0xc02aaa39b223fe8d0a0e5c4f27ead9083c756cc2"
            },
            {
                "amount": "25.828178706062779272",
                "from": "0xcb37b0027858796ce60ecce4b54c45afdff02aca",
                "id": 5,
                "isERC1155": false,
                "isERC721": false,
                "isReverted": false,
                "order": 5,
                "to": "0x75b8c48bdb04d426aed57b36bb835ad2dc321c30",
                "token": "0x298d492e8c1d909d3f63bc4a36c66c64acb3d695"
            },
            {
                "amount": "2.869797634006975474",
                "from": "0xcb37b0027858796ce60ecce4b54c45afdff02aca",
                "id": 6,
                "isERC1155": false,
                "isERC721": false,
                "isReverted": false,
                "order": 6,
                "to": "0x0000000000000000000000000000000000000000",
                "token": "0x298d492e8c1d909d3f63bc4a36c66c64acb3d695"
            },
            {
                "amount": "5,710.897291673881194703",
                "from": "0xcb37b0027858796ce60ecce4b54c45afdff02aca",
                "id": 7,
                "isERC1155": false,
                "isERC721": false,
                "isReverted": false,
                "order": 7,
                "to": "0xcaaafd7ed85f9fbad39e8a31bdbad0365f1f5b82",
                "token": "0x298d492e8c1d909d3f63bc4a36c66c64acb3d695"
            }
        ],
        "token_infos": [
            {
                "address": "0x298d492e8c1d909d3f63bc4a36c66c64acb3d695",
                "decimals": 18
            },
            {
                "address": "0xc02aaa39b223fe8d0a0e5c4f27ead9083c756cc2",
                "decimals": 18
            },
            {
                "address": "0xeeeeeeeeeeeeeeeeeeeeeeeeeeeeeeeeeeeeeeee",
                "decimals": 18
            }
        ]
    },
    "address_label": {
        "labels": [
            {
                "address": "0xeeeeeeeeeeeeeeeeeeeeeeeeeeeeeeeeeeeeeeee",
                "label": "Ether"
            },
            {
                "address": "0x298d492e8c1d909d3f63bc4a36c66c64acb3d695",
                "label": "PolkaBridge: PBR Token"
            },
            {
                "address": "0x0000000000000000000000000000000000000002",
                "label": "Precompiled"
            },
            {
                "address": "0x0000000000000000000000000000000000000004",
                "label": "Precompiled"
            },
            {
                "address": "0x7a250d5630b4cf539739df2c5dacb4c659f2488d",
                "label": "Uniswap V2: Router 2"
            },
            {
                "address": "0xc02aaa39b223fe8d0a0e5c4f27ead9083c756cc2",
                "label": "Wrapped Ether (WETH)"
            },
            {
                "address": "0xcb37b0027858796ce60ecce4b54c45afdff02aca",
                "label": "Uniswap V2: PBR 6"
            },
            {
                "address": "0x0000000000000000000000000000000000000001",
                "label": "Precompiled"
            },
            {
                "address": "0x0000000000000000000000000000000000000003",
                "label": "Precompiled"
            }
        ]
    },
    "trace": {
        "accountLabels": null,
        "dataMap": {
            "-1": {
                "invocation": {
                    "address": "0xcaaafd7ed85f9fbad39e8a31bdbad0365f1f5b82",
                    "callData": "",
                    "decodedMethod": null,
                    "errorInfo": "",
                    "fromAddress": "",
                    "gasUsed": 0,
                    "id": -1,
                    "methodDecoded": false,
                    "operation": "",
                    "output": "",
                    "revert": false,
                    "revertMessage": "",
                    "selector": "",
                    "status": false,
                    "value": ""
                },
                "nodeType": 0
            },
            "0": {
                "invocation": {
                    "address": "0x7a250d5630b4cf539739df2c5dacb4c659f2488d",
                    "callData": "0x00000000000000000000000000000000000000000000011adbb6beb572a1dbe50000000000000000000000000000000000000000000000000000000000000080000000000000000000000000caaafd7ed85f9fbad39e8a31bdbad0365f1f5b8200000000000000000000000000000000000000000000000000000000605ca3b10000000000000000000000000000000000000000000000000000000000000002000000000000000000000000c02aaa39b223fe8d0a0e5c4f27ead9083c756cc2000000000000000000000000298d492e8c1d909d3f63bc4a36c66c64acb3d695",
                    "decodedMethod": {
                        "callParams": [
                            {
                                "name": "amountOutMin",
                                "type": "uint256",
                                "value": "5,217,813,880,012,682,681,317"
                            },
                            {
                                "name": "path",
                                "type": "address[]",
                                "value": [
                                    "0xc02aaa39b223fe8d0a0e5c4f27ead9083c756cc2",
                                    "0x298d492e8c1d909d3f63bc4a36c66c64acb3d695"
                                ]
                            },
                            {
                                "name": "to",
                                "type": "address",
                                "value": "0xcaaafd7ed85f9fbad39e8a31bdbad0365f1f5b82"
                            },
                            {
                                "name": "deadline",
                                "type": "uint256",
                                "value": "1,616,683,953"
                            }
                        ],
                        "constructorArguments": "",
                        "name": "swapExactETHForTokens",
                        "returnParams": [
                            {
                                "name": "amounts",
                                "type": "uint256[]",
                                "value": [
                                    "790,000,000,000,000,000",
                                    "5,739,595,268,013,950,949,449"
                                ]
                            }
                        ],
                        "signature": "swapExactETHForTokens(uint256,address[],address,uint256)"
                    },
                    "errorInfo": "",
                    "fromAddress": "0xcaaafd7ed85f9fbad39e8a31bdbad0365f1f5b82",
                    "gasUsed": 161872,
                    "id": 0,
                    "methodDecoded": true,
                    "operation": "CALL",
                    "output": "0x000000000000000000000000000000000000000000000000000000000000002000000000000000000000000000000000000000000000000000000000000000020000000000000000000000000000000000000000000000000af6a4d07c8f000000000000000000000000000000000000000000000000013724e29e94647ed849",
                    "revert": false,
                    "revertMessage": "",
                    "selector": "0x7ff36ab5",
                    "status": true,
                    "value": "0.79"
                },
                "nodeType": 0
            },
            "1": {
                "invocation": {
                    "address": "0xcb37b0027858796ce60ecce4b54c45afdff02aca",
                    "callData": "0x",
                    "decodedMethod": {
                        "callParams": [],
                        "constructorArguments": "",
                        "name": "getReserves",
                        "returnParams": [
                            {
                                "name": "_reserve0",
                                "type": "uint112",
                                "value": "1,542,685,247,296,100,403,533,738"
                            },
                            {
                                "name": "_reserve1",
                                "type": "uint112",
                                "value": "210,911,126,548,085,258,158"
                            },
                            {
                                "name": "_blockTimestampLast",
                                "type": "uint32",
                                "value": "1,616,682,466"
                            }
                        ],
                        "signature": "getReserves()"
                    },
                    "errorInfo": "",
                    "fromAddress": "0x7a250d5630b4cf539739df2c5dacb4c659f2488d",
                    "gasUsed": 1204,
                    "id": 1,
                    "methodDecoded": true,
                    "operation": "STATICCALL",
                    "output": "0x0000000000000000000000000000000000000000000146ad22842710193857aa00000000000000000000000000000000000000000000000b6efad823f414b7ae00000000000000000000000000000000000000000000000000000000605c9de2",
                    "revert": false,
                    "revertMessage": "",
                    "selector": "0x0902f1ac",
                    "status": true,
                    "value": "0"
                },
                "nodeType": 0
            },
            "10": {
                "event": {
                    "contract": "0x298d492e8c1d909d3f63bc4a36c66c64acb3d695",
                    "decodedLog": {
                        "name": "Transfer",
                        "params": [
                            {
                                "name": "from",
                                "type": "address",
                                "value": "0xcb37b0027858796ce60ecce4b54c45afdff02aca"
                            },
                            {
                                "name": "to",
                                "type": "address",
                                "value": "0xcaaafd7ed85f9fbad39e8a31bdbad0365f1f5b82"
                            },
                            {
                                "decimalAvailable": true,
                                "name": "value",
                                "type": "uint256",
                                "value": "5,710,897,291,673,881,194,703"
                            }
                        ],
                        "signature": "Transfer(address,address,uint256)"
                    },
                    "id": 10,
                    "logData": "0x000000000000000000000000000000000000000000000135969eed259212b0cf",
                    "logDecoded": true,
                    "operation": "EVENT",
                    "revert": false,
                    "status": true,
                    "topics": [
                        "0xddf252ad1be2c89b69c2b068fc378daa952ba7f163c4a11628f55a4df523b3ef",
                        "0x000000000000000000000000cb37b0027858796ce60ecce4b54c45afdff02aca",
                        "0x000000000000000000000000caaafd7ed85f9fbad39e8a31bdbad0365f1f5b82"
                    ]
                },
                "nodeType": 1
            },
            "11": {
                "invocation": {
                    "address": "0x298d492e8c1d909d3f63bc4a36c66c64acb3d695",
                    "callData": "0x000000000000000000000000cb37b0027858796ce60ecce4b54c45afdff02aca",
                    "decodedMethod": {
                        "callParams": [
                            {
                                "name": "account",
                                "type": "address",
                                "value": "0xcb37b0027858796ce60ecce4b54c45afdff02aca"
                            }
                        ],
                        "constructorArguments": "",
                        "name": "balanceOf",
                        "returnParams": [
                            {
                                "decimalAvailable": true,
                                "name": "",
                                "type": "uint256",
                                "value": "1,536,945,652,028,086,452,584,289"
                            }
                        ],
                        "signature": "balanceOf(address)"
                    },
                    "errorInfo": "",
                    "fromAddress": "0xcb37b0027858796ce60ecce4b54c45afdff02aca",
                    "gasUsed": 1219,
                    "id": 11,
                    "methodDecoded": true,
                    "operation": "STATICCALL",
                    "output": "0x000000000000000000000000000000000000000000014575fda1887bb4b97f61",
                    "revert": false,
                    "revertMessage": "",
                    "selector": "0x70a08231",
                    "status": true,
                    "value": "0"
                },
                "nodeType": 0
            },
            "12": {
                "invocation": {
                    "address": "0xc02aaa39b223fe8d0a0e5c4f27ead9083c756cc2",
                    "callData": "0x000000000000000000000000cb37b0027858796ce60ecce4b54c45afdff02aca",
                    "decodedMethod": {
                        "callParams": [
                            {
                                "name": "",
                                "type": "address",
                                "value": "0xcb37b0027858796ce60ecce4b54c45afdff02aca"
                            }
                        ],
                        "constructorArguments": "",
                        "name": "balanceOf",
                        "returnParams": [
                            {
                                "decimalAvailable": true,
                                "name": "",
                                "type": "uint256",
                                "value": "211,701,126,548,085,258,158"
                            }
                        ],
                        "signature": "balanceOf(address)"
                    },
                    "errorInfo": "",
                    "fromAddress": "0xcb37b0027858796ce60ecce4b54c45afdff02aca",
                    "gasUsed": 1234,
                    "id": 12,
                    "methodDecoded": true,
                    "operation": "STATICCALL",
                    "output": "0x00000000000000000000000000000000000000000000000b79f17cf470a3b7ae",
                    "revert": false,
                    "revertMessage": "",
                    "selector": "0x70a08231",
                    "status": true,
                    "value": "0"
                },
                "nodeType": 0
            },
            "13": {
                "event": {
                    "contract": "0xcb37b0027858796ce60ecce4b54c45afdff02aca",
                    "decodedLog": {
                        "name": "Sync",
                        "params": [
                            {
                                "name": "reserve0",
                                "type": "uint112",
                                "value": "1,536,945,652,028,086,452,584,289"
                            },
                            {
                                "name": "reserve1",
                                "type": "uint112",
                                "value": "211,701,126,548,085,258,158"
                            }
                        ],
                        "signature": "Sync(uint112,uint112)"
                    },
                    "id": 13,
                    "logData": "0x000000000000000000000000000000000000000000014575fda1887bb4b97f6100000000000000000000000000000000000000000000000b79f17cf470a3b7ae",
                    "logDecoded": true,
                    "operation": "EVENT",
                    "revert": false,
                    "status": true,
                    "topics": [
                        "0x1c411e9a96e071241c2f21f7726b17ae89e3cab4c78be50e062b03a9fffbbad1"
                    ]
                },
                "nodeType": 1
            },
            "14": {
                "event": {
                    "contract": "0xcb37b0027858796ce60ecce4b54c45afdff02aca",
                    "decodedLog": {
                        "name": "Swap",
                        "params": [
                            {
                                "name": "sender",
                                "type": "address",
                                "value": "0x7a250d5630b4cf539739df2c5dacb4c659f2488d"
                            },
                            {
                                "name": "to",
                                "type": "address",
                                "value": "0xcaaafd7ed85f9fbad39e8a31bdbad0365f1f5b82"
                            },
                            {
                                "name": "amount0In",
                                "type": "uint256",
                                "value": "0"
                            },
                            {
                                "name": "amount1In",
                                "type": "uint256",
                                "value": "790,000,000,000,000,000"
                            },
                            {
                                "name": "amount0Out",
                                "type": "uint256",
                                "value": "5,739,595,268,013,950,949,449"
                            },
                            {
                                "name": "amount1Out",
                                "type": "uint256",
                                "value": "0"
                            }
                        ],
                        "signature": "Swap(address,uint256,uint256,uint256,uint256,address)"
                    },
                    "id": 14,
                    "logData": "0x00000000000000000000000000000000000000000000000000000000000000000000000000000000000000000000000000000000000000000af6a4d07c8f000000000000000000000000000000000000000000000000013724e29e94647ed8490000000000000000000000000000000000000000000000000000000000000000",
                    "logDecoded": true,
                    "operation": "EVENT",
                    "revert": false,
                    "status": true,
                    "topics": [
                        "0xd78ad95fa46c994b6551d0da85fc275fe613ce37657fb8d5e3d130840159d822",
                        "0x0000000000000000000000007a250d5630b4cf539739df2c5dacb4c659f2488d",
                        "0x000000000000000000000000caaafd7ed85f9fbad39e8a31bdbad0365f1f5b82"
                    ]
                },
                "nodeType": 1
            },
            "2": {
                "invocation": {
                    "address": "0xc02aaa39b223fe8d0a0e5c4f27ead9083c756cc2",
                    "callData": "0x",
                    "decodedMethod": {
                        "callParams": [],
                        "constructorArguments": "",
                        "name": "deposit",
                        "returnParams": [],
                        "signature": "deposit()"
                    },
                    "errorInfo": "",
                    "fromAddress": "0x7a250d5630b4cf539739df2c5dacb4c659f2488d",
                    "gasUsed": 22674,
                    "id": 2,
                    "methodDecoded": true,
                    "operation": "CALL",
                    "output": "",
                    "revert": false,
                    "revertMessage": "",
                    "selector": "0xd0e30db0",
                    "status": true,
                    "value": "0.79"
                },
                "nodeType": 0
            },
            "3": {
                "event": {
                    "contract": "0xc02aaa39b223fe8d0a0e5c4f27ead9083c756cc2",
                    "decodedLog": {
                        "name": "Deposit",
                        "params": [
                            {
                                "name": "dst",
                                "type": "address",
                                "value": "0x7a250d5630b4cf539739df2c5dacb4c659f2488d"
                            },
                            {
                                "name": "wad",
                                "type": "uint256",
                                "value": "790,000,000,000,000,000"
                            }
                        ],
                        "signature": "Deposit(address,uint256)"
                    },
                    "id": 3,
                    "logData": "0x0000000000000000000000000000000000000000000000000af6a4d07c8f0000",
                    "logDecoded": true,
                    "operation": "EVENT",
                    "revert": false,
                    "status": true,
                    "topics": [
                        "0xe1fffcc4923d04b559f4d29a8bfc6cda04eb5b0d3c460751c2402c5c5cc9109c",
                        "0x0000000000000000000000007a250d5630b4cf539739df2c5dacb4c659f2488d"
                    ]
                },
                "nodeType": 1
            },
            "4": {
                "invocation": {
                    "address": "0xc02aaa39b223fe8d0a0e5c4f27ead9083c756cc2",
                    "callData": "0x000000000000000000000000cb37b0027858796ce60ecce4b54c45afdff02aca0000000000000000000000000000000000000000000000000af6a4d07c8f0000",
                    "decodedMethod": {
                        "callParams": [
                            {
                                "name": "dst",
                                "type": "address",
                                "value": "0xcb37b0027858796ce60ecce4b54c45afdff02aca"
                            },
                            {
                                "decimalAvailable": true,
                                "name": "wad",
                                "type": "uint256",
                                "value": "790,000,000,000,000,000"
                            }
                        ],
                        "constructorArguments": "",
                        "name": "transfer",
                        "returnParams": [
                            {
                                "name": "",
                                "type": "bool",
                                "value": true
                            }
                        ],
                        "signature": "transfer(address,uint256)"
                    },
                    "errorInfo": "",
                    "fromAddress": "0x7a250d5630b4cf539739df2c5dacb4c659f2488d",
                    "gasUsed": 10962,
                    "id": 4,
                    "methodDecoded": true,
                    "operation": "CALL",
                    "output": "0x0000000000000000000000000000000000000000000000000000000000000001",
                    "revert": false,
                    "revertMessage": "",
                    "selector": "0xa9059cbb",
                    "status": true,
                    "value": "0"
                },
                "nodeType": 0
            },
            "5": {
                "event": {
                    "contract": "0xc02aaa39b223fe8d0a0e5c4f27ead9083c756cc2",
                    "decodedLog": {
                        "name": "Transfer",
                        "params": [
                            {
                                "name": "src",
                                "type": "address",
                                "value": "0x7a250d5630b4cf539739df2c5dacb4c659f2488d"
                            },
                            {
                                "name": "dst",
                                "type": "address",
                                "value": "0xcb37b0027858796ce60ecce4b54c45afdff02aca"
                            },
                            {
                                "decimalAvailable": true,
                                "name": "wad",
                                "type": "uint256",
                                "value": "790,000,000,000,000,000"
                            }
                        ],
                        "signature": "Transfer(address,address,uint256)"
                    },
                    "id": 5,
                    "logData": "0x0000000000000000000000000000000000000000000000000af6a4d07c8f0000",
                    "logDecoded": true,
                    "operation": "EVENT",
                    "revert": false,
                    "status": true,
                    "topics": [
                        "0xddf252ad1be2c89b69c2b068fc378daa952ba7f163c4a11628f55a4df523b3ef",
                        "0x0000000000000000000000007a250d5630b4cf539739df2c5dacb4c659f2488d",
                        "0x000000000000000000000000cb37b0027858796ce60ecce4b54c45afdff02aca"
                    ]
                },
                "nodeType": 1
            },
            "6": {
                "invocation": {
                    "address": "0xcb37b0027858796ce60ecce4b54c45afdff02aca",
                    "callData": "0x00000000000000000000000000000000000000000000013724e29e94647ed8490000000000000000000000000000000000000000000000000000000000000000000000000000000000000000caaafd7ed85f9fbad39e8a31bdbad0365f1f5b8200000000000000000000000000000000000000000000000000000000000000800000000000000000000000000000000000000000000000000000000000000000",
                    "decodedMethod": {
                        "callParams": [
                            {
                                "name": "amount0Out",
                                "type": "uint256",
                                "value": "5,739,595,268,013,950,949,449"
                            },
                            {
                                "name": "amount1Out",
                                "type": "uint256",
                                "value": "0"
                            },
                            {
                                "name": "to",
                                "type": "address",
                                "value": "0xcaaafd7ed85f9fbad39e8a31bdbad0365f1f5b82"
                            },
                            {
                                "name": "data",
                                "type": "bytes",
                                "value": "0x"
                            }
                        ],
                        "constructorArguments": "",
                        "name": "swap",
                        "returnParams": [],
                        "signature": "swap(uint256,uint256,address,bytes)"
                    },
                    "errorInfo": "",
                    "fromAddress": "0x7a250d5630b4cf539739df2c5dacb4c659f2488d",
                    "gasUsed": 112695,
                    "id": 6,
                    "methodDecoded": true,
                    "operation": "CALL",
                    "output": "",
                    "revert": false,
                    "revertMessage": "",
                    "selector": "0x022c0d9f",
                    "status": true,
                    "value": "0"
                },
                "nodeType": 0
            },
            "7": {
                "invocation": {
                    "address": "0x298d492e8c1d909d3f63bc4a36c66c64acb3d695",
                    "callData": "0x000000000000000000000000caaafd7ed85f9fbad39e8a31bdbad0365f1f5b8200000000000000000000000000000000000000000000013724e29e94647ed849",
                    "decodedMethod": {
                        "callParams": [
                            {
                                "name": "recipient",
                                "type": "address",
                                "value": "0xcaaafd7ed85f9fbad39e8a31bdbad0365f1f5b82"
                            },
                            {
                                "decimalAvailable": true,
                                "name": "amount",
                                "type": "uint256",
                                "value": "5,739,595,268,013,950,949,449"
                            }
                        ],
                        "constructorArguments": "",
                        "name": "transfer",
                        "returnParams": [
                            {
                                "name": "",
                                "type": "bool",
                                "value": true
                            }
                        ],
                        "signature": "transfer(address,uint256)"
                    },
                    "errorInfo": "",
                    "fromAddress": "0xcb37b0027858796ce60ecce4b54c45afdff02aca",
                    "gasUsed": 71219,
                    "id": 7,
                    "methodDecoded": true,
                    "operation": "CALL",
                    "output": "0x0000000000000000000000000000000000000000000000000000000000000001",
                    "revert": false,
                    "revertMessage": "",
                    "selector": "0xa9059cbb",
                    "status": true,
                    "value": "0"
                },
                "nodeType": 0
            },
            "8": {
                "event": {
                    "contract": "0x298d492e8c1d909d3f63bc4a36c66c64acb3d695",
                    "decodedLog": {
                        "name": "Transfer",
                        "params": [
                            {
                                "name": "from",
                                "type": "address",
                                "value": "0xcb37b0027858796ce60ecce4b54c45afdff02aca"
                            },
                            {
                                "name": "to",
                                "type": "address",
                                "value": "0x75b8c48bdb04d426aed57b36bb835ad2dc321c30"
                            },
                            {
                                "decimalAvailable": true,
                                "name": "value",
                                "type": "uint256",
                                "value": "25,828,178,706,062,779,272"
                            }
                        ],
                        "signature": "Transfer(address,address,uint256)"
                    },
                    "id": 8,
                    "logData": "0x00000000000000000000000000000000000000000000000166701fb08a2e2388",
                    "logDecoded": true,
                    "operation": "EVENT",
                    "revert": false,
                    "status": true,
                    "topics": [
                        "0xddf252ad1be2c89b69c2b068fc378daa952ba7f163c4a11628f55a4df523b3ef",
                        "0x000000000000000000000000cb37b0027858796ce60ecce4b54c45afdff02aca",
                        "0x00000000000000000000000075b8c48bdb04d426aed57b36bb835ad2dc321c30"
                    ]
                },
                "nodeType": 1
            },
            "9": {
                "event": {
                    "contract": "0x298d492e8c1d909d3f63bc4a36c66c64acb3d695",
                    "decodedLog": {
                        "name": "Transfer",
                        "params": [
                            {
                                "name": "from",
                                "type": "address",
                                "value": "0xcb37b0027858796ce60ecce4b54c45afdff02aca"
                            },
                            {
                                "name": "to",
                                "type": "address",
                                "value": "0x0000000000000000000000000000000000000000"
                            },
                            {
                                "decimalAvailable": true,
                                "name": "value",
                                "type": "uint256",
                                "value": "2,869,797,634,006,975,474"
                            }
                        ],
                        "signature": "Transfer(address,address,uint256)"
                    },
                    "id": 9,
                    "logData": "0x00000000000000000000000000000000000000000000000027d391be483e03f2",
                    "logDecoded": true,
                    "operation": "EVENT",
                    "revert": false,
                    "status": true,
                    "topics": [
                        "0xddf252ad1be2c89b69c2b068fc378daa952ba7f163c4a11628f55a4df523b3ef",
                        "0x000000000000000000000000cb37b0027858796ce60ecce4b54c45afdff02aca",
                        "0x0000000000000000000000000000000000000000000000000000000000000000"
                    ]
                },
                "nodeType": 1
            }
        },
        "gasFlame": [
            {
                "children": [
                    {
                        "children": [
                            {
                                "children": [],
                                "depth": 0,
                                "name": "Initial Gas",
                                "value": 22872
                            },
                            {
                                "children": [
                                    {
                                        "children": [],
                                        "depth": 1,
                                        "name": "getReserves",
                                        "value": 1204
                                    },
                                    {
                                        "children": [],
                                        "depth": 1,
                                        "name": "deposit",
                                        "value": 22674
                                    },
                                    {
                                        "children": [],
                                        "depth": 1,
                                        "name": "transfer",
                                        "value": 10962
                                    },
                                    {
                                        "children": [
                                            {
                                                "children": [],
                                                "depth": 2,
                                                "name": "transfer",
                                                "value": 71219
                                            },
                                            {
                                                "children": [],
                                                "depth": 2,
                                                "name": "balanceOf",
                                                "value": 1219
                                            },
                                            {
                                                "children": [],
                                                "depth": 2,
                                                "name": "balanceOf",
                                                "value": 1234
                                            }
                                        ],
                                        "depth": 1,
                                        "name": "swap",
                                        "value": 112695
                                    }
                                ],
                                "depth": 0,
                                "name": "Executed Gas",
                                "value": 166600
                            }
                        ],
                        "depth": -1,
                        "name": "Actual Gas Used",
                        "value": 161872
                    },
                    {
                        "children": [],
                        "depth": -1,
                        "name": "Refunded Gas",
                        "value": 27600
                    }
                ],
                "depth": -2,
                "name": "Total Gas",
                "value": 189472
            }
        ],
        "isConfirmed": true,
        "mainTrace": [
            {
                "children": [
                    {
                        "children": [
                            {
                                "children": [],
                                "depth": 1,
                                "id": 1,
                                "order": 1
                            },
                            {
                                "children": [
                                    {
                                        "children": [],
                                        "depth": 2,
                                        "id": 3,
                                        "order": 3
                                    }
                                ],
                                "depth": 1,
                                "id": 2,
                                "order": 2
                            },
                            {
                                "children": [
                                    {
                                        "children": [],
                                        "depth": 2,
                                        "id": 5,
                                        "order": 5
                                    }
                                ],
                                "depth": 1,
                                "id": 4,
                                "order": 4
                            },
                            {
                                "children": [
                                    {
                                        "children": [
                                            {
                                                "children": [],
                                                "depth": 3,
                                                "id": 8,
                                                "order": 8
                                            },
                                            {
                                                "children": [],
                                                "depth": 3,
                                                "id": 9,
                                                "order": 9
                                            },
                                            {
                                                "children": [],
                                                "depth": 3,
                                                "id": 10,
                                                "order": 10
                                            }
                                        ],
                                        "depth": 2,
                                        "id": 7,
                                        "order": 7
                                    },
                                    {
                                        "children": [],
                                        "depth": 2,
                                        "id": 11,
                                        "order": 11
                                    },
                                    {
                                        "children": [],
                                        "depth": 2,
                                        "id": 12,
                                        "order": 12
                                    },
                                    {
                                        "children": [],
                                        "depth": 2,
                                        "id": 13,
                                        "order": 13
                                    },
                                    {
                                        "children": [],
                                        "depth": 2,
                                        "id": 14,
                                        "order": 14
                                    }
                                ],
                                "depth": 1,
                                "id": 6,
                                "order": 6
                            }
                        ],
                        "depth": 0,
                        "id": 0,
                        "order": 0
                    }
                ],
                "depth": -1,
                "id": -1,
                "order": -1
            }
        ],
        "mainTraceNodeCount": 15,
        "parentIdMap": {
            "0": -1,
            "1": 0,
            "10": 7,
            "11": 6,
            "12": 6,
            "13": 6,
            "14": 6,
            "2": 0,
            "3": 2,
            "4": 0,
            "5": 4,
            "6": 0,
            "7": 6,
            "8": 7,
            "9": 7
        },
        "tidyTrace": [
            {
                "children": [
                    {
                        "children": [
                            {
                                "children": [
                                    {
                                        "children": [],
                                        "depth": 2,
                                        "id": 3,
                                        "order": 3
                                    }
                                ],
                                "depth": 1,
                                "id": 2,
                                "order": 2
                            },
                            {
                                "children": [
                                    {
                                        "children": [],
                                        "depth": 2,
                                        "id": 5,
                                        "order": 5
                                    }
                                ],
                                "depth": 1,
                                "id": 4,
                                "order": 4
                            },
                            {
                                "children": [
                                    {
                                        "children": [
                                            {
                                                "children": [],
                                                "depth": 3,
                                                "id": 8,
                                                "order": 8
                                            },
                                            {
                                                "children": [],
                                                "depth": 3,
                                                "id": 9,
                                                "order": 9
                                            },
                                            {
                                                "children": [],
                                                "depth": 3,
                                                "id": 10,
                                                "order": 10
                                            }
                                        ],
                                        "depth": 2,
                                        "id": 7,
                                        "order": 7
                                    },
                                    {
                                        "children": [],
                                        "depth": 2,
                                        "id": 13,
                                        "order": 13
                                    },
                                    {
                                        "children": [],
                                        "depth": 2,
                                        "id": 14,
                                        "order": 14
                                    }
                                ],
                                "depth": 1,
                                "id": 6,
                                "order": 6
                            }
                        ],
                        "depth": 0,
                        "id": 0,
                        "order": 0
                    }
                ],
                "depth": -1,
                "id": -1,
                "order": -1
            }
        ],
        "tidyTraceNodeCount": 12
    },
    "state_change": {
        "stateChanges": [
            {
                "address": "0x298d492e8c1d909d3f63bc4a36c66c64acb3d695",
                "erc": "ERC-20",
                "slots": [
                    {
                        "current": "0x000000000000000000000000000000000000000000014575fda1887bb4b97f61",
                        "key": "0xe9b4362d754ed84c5d7ba9f43768a79f286a2f68bbcb1b8bb611347752b63583",
                        "prev": "0x0000000000000000000000000000000000000000000146ad22842710193857aa"
                    },
                    {
                        "current": "0x00000000000000000000000000000000000000000052b6dfb572055a53037da9",
                        "key": "0x0000000000000000000000000000000000000000000000000000000000000003",
                        "prev": "0x00000000000000000000000000000000000000000052b6dfdd4597189b41819b"
                    },
                    {
                        "current": "0x000000000000000000000000000000000000000000000135969eed259212b0cf",
                        "key": "0x2f6441abdd81da2190736471e362c7352394d54ddb379648e3d1c7ccd19bc634",
                        "prev": "0x0000000000000000000000000000000000000000000000000000000000000000"
                    },
                    {
                        "current": "0x0000000000000000000000000000000000000000000005db89835dd9a566e7ce",
                        "key": "0x40a0b1e3c04f048f08b37631a4dc4f9c8a67461cfea8ea8a272ad82fa8319c83",
                        "prev": "0x0000000000000000000000000000000000000000000005da23133e291b38c446"
                    }
                ],
                "storageVariables": [
                    {
                        "name": "_totalSupply",
                        "type": "uint256",
                        "value": {
                            "current": "99995514606728858692713897",
                            "prev": "99995517476526492699689371",
                            "typeTag": 1
                        }
                    },
                    {
                        "name": "_balances",
                        "type": "mapping(address => uint256)",
                        "value": {
                            "pairs": [
                                {
                                    "key": "0x75b8c48bdb04d426aed57b36bb835ad2dc321c30",
                                    "value": {
                                        "current": "27661578233285127366606",
                                        "prev": "27635750054579064587334",
                                        "typeTag": 1
                                    }
                                },
                                {
                                    "key": "0xcaaafd7ed85f9fbad39e8a31bdbad0365f1f5b82",
                                    "value": {
                                        "current": "5710897291673881194703",
                                        "prev": "0",
                                        "typeTag": 1
                                    }
                                },
                                {
                                    "key": "0xcb37b0027858796ce60ecce4b54c45afdff02aca",
                                    "value": {
                                        "current": "1536945652028086452584289",
                                        "prev": "1542685247296100403533738",
                                        "typeTag": 1
                                    }
                                }
                            ],
                            "typeTag": 4
                        }
                    }
                ]
            },
            {
                "address": "0xc02aaa39b223fe8d0a0e5c4f27ead9083c756cc2",
                "erc": "ERC-20",
                "slots": [
                    {
                        "current": "0x00000000000000000000000000000000000000000000000b79f17cf470a3b7ae",
                        "key": "0x10d77575eb729027beafcbb30bb067d4bd1d1bc71cf9ef08d02f660477189806",
                        "prev": "0x00000000000000000000000000000000000000000000000b6efad823f414b7ae"
                    }
                ],
                "storageVariables": [
                    {
                        "name": "balanceOf",
                        "type": "mapping(address => uint256)",
                        "value": {
                            "pairs": [
                                {
                                    "key": "0xcb37b0027858796ce60ecce4b54c45afdff02aca",
                                    "value": {
                                        "current": "211701126548085258158",
                                        "prev": "210911126548085258158",
                                        "typeTag": 1
                                    }
                                }
                            ],
                            "typeTag": 4
                        }
                    }
                ]
            },
            {
                "address": "0xcb37b0027858796ce60ecce4b54c45afdff02aca",
                "erc": "ERC-20",
                "slots": [
                    {
                        "current": "0x00000000000000000000000000000000008286c8f169e6d579c7ffdddc0afd78",
                        "key": "0x0000000000000000000000000000000000000000000000000000000000000009",
                        "prev": "0x000000000000000000000000000000000082793d7861b4c48d01f67fb3a3a03d"
                    },
                    {
                        "current": "0x00000000000000000000000000012237adb99177cb57b8749b2ffd6eff3b6e43",
                        "key": "0x000000000000000000000000000000000000000000000000000000000000000a",
                        "prev": "0x0000000000000000000000000001220c7c6e734ddc36543404881f129f3c1001"
                    },
                    {
                        "current": "0x605c9f6500000000000b79f17cf470a3b7ae000000014575fda1887bb4b97f61",
                        "key": "0x0000000000000000000000000000000000000000000000000000000000000008",
                        "prev": "0x605c9de200000000000b6efad823f414b7ae0000000146ad22842710193857aa"
                    }
                ],
                "storageVariables": [
                    {
                        "name": "price0CumulativeLast",
                        "type": "uint256",
                        "value": {
                            "current": "677732354842834428639801235110296952",
                            "prev": "677457633345803448708310869175672893",
                            "typeTag": 1
                        }
                    },
                    {
                        "name": "price1CumulativeLast",
                        "type": "uint256",
                        "value": {
                            "current": "25281509370359753237773836240669759153860163",
                            "prev": "25266811706376300382797104311105476802383873",
                            "typeTag": 1
                        }
                    },
                    {
                        "name": "reserve0",
                        "type": "uint112",
                        "value": {
                            "current": "1536945652028086452584289",
                            "prev": "1542685247296100403533738",
                            "typeTag": 1
                        }
                    },
                    {
                        "name": "reserve1",
                        "type": "uint112",
                        "value": {
                            "current": "211701126548085258158",
                            "prev": "210911126548085258158",
                            "typeTag": 1
                        }
                    },
                    {
                        "name": "blockTimestampLast",
                        "type": "uint32",
                        "value": {
                            "current": "1616682853",
                            "prev": "1616682466",
                            "typeTag": 1
                        }
                    }
                ]
            }
        ]
    }
}