{
    "balance_change": {
        "balanceChanges": []
    },
    "profile": {
        "basic_info": {
            "baseFee": "39.944640136",
            "blockNumber": 18764555,
            "callData": "0x5578ceae00000000000000000000000000000000000000000000000000000000003740e600000000000000000000000000000000000000000000000000000000000000a004ea04b223d542b5ffd9559c65d8e3118d579d0b9777eff9bc42a9f5ebb61b1304a87127a9e06e864f9f302263dcc1bcb4d3cc2363af3256a39df8a3182a355e0800000000000011000000000000000000000000000000000000000000000001000000000000000000000000000000000000000000000000000000000000000702fa5e283b17412eafb11dc6e3e82f9231f8e41275f50a8e551f7b9c4678470000c91e9b8e866e558bcf9984250745fb208c777427f44869e18c1cc74a35260f0000000000000000000000000000000000000000000000000000000000071b2e01ab68adcc3b22b5c5737839d2f4eddbe681f2688c43ec5958d65cf0274c07b8017c0bc29d31e9a7d14671610a7626264ce9ce8e3ed066a4775adf9b123de9dd00000000000000000000000000000000000000000000000000000000000000000000000000000000000000000000000000000000000000000000000000000000",
            "debugEnable": true,
            "errorInfo": "",
            "eventCount": 1,
            "feeRecipient": "0x65b9a85ed5d4168ffe4cd0ff660feca9ad062abf",
            "formatValue": "0",
            "gasLimit": 11000000,
            "gasPrice": "40.944640136",
            "gasUsed": 53469,
            "intTxnCount": 0,
            "internalRevert": false,
            "internalRevertMessage": "",
            "isContractCreation": false,
            "isFlashloan": false,
            "maxFee": "150",
            "nonce": 1022796,
            "overwritedBlockNumber": -1,
            "priorityFee": "1",
            "receiver": "0xfd14567eaf9ba941cb8c8a94eec14831ca7fd1b4",
            "revertMessage": "",
            "sender": "0x16d5783a96ab20c9157d7933ac236646b29589a4",
            "simulationEnable": true,
            "sourceTxnHash": "0x7b8786ccfc20973928008891c56d90bf6e29b1879af050c7b48cfe3deafcaa25",
            "status": true,
            "timestamp": "2023-12-11T17:49:35Z",
            "transactionFee": "0.002189268963431784",
            "txnHash": "0x7b8786ccfc20973928008891c56d90bf6e29b1879af050c7b48cfe3deafcaa25",
            "txnIndex": 53,
            "type": 2,
            "value": "0"
        },
        "fund_flow": [],
        "token_infos": [
            {
                "address": "0xc02aaa39b223fe8d0a0e5c4f27ead9083c756cc2",
                "decimals": 18
            },
            {
                "address": "0xeeeeeeeeeeeeeeeeeeeeeeeeeeeeeeeeeeeeeeee",
                "decimals": 18
            }
        ]
    },
    "address_label": {
        "labels": [
            {
                "address": "0x0000000000000000000000000000000000000001",
                "label": "Precompiled"
            },
            {
                "address": "0x0000000000000000000000000000000000000002",
                "label": "Precompiled"
            },
            {
                "address": "0x0000000000000000000000000000000000000003",
                "label": "Precompiled"
            },
            {
                "address": "0x0000000000000000000000000000000000000004",
                "label": "Precompiled"
            },
            {
                "address": "0xeeeeeeeeeeeeeeeeeeeeeeeeeeeeeeeeeeeeeeee",
                "label": "Ether"
            },
            {
                "address": "0x16d5783a96ab20c9157d7933ac236646b29589a4",
                "label": "SHARP Blockchain Writer"
            },
            {
                "address": "0xfd14567eaf9ba941cb8c8a94eec14831ca7fd1b4",
                "label": "StarkEx: SHARP"
            }
        ]
    },
    "trace": {
        "accountLabels": null,
        "dataMap": {
            "-1": {
                "invocation": {
                    "address": "0x16d5783a96ab20c9157d7933ac236646b29589a4",
                    "callData": "",
                    "decodedMethod": null,
                    "errorInfo": "",
                    "fromAddress": "",
                    "gasUsed": 0,
                    "id": -1,
                    "methodDecoded": false,
                    "operation": "",
                    "output": "",
                    "revert": false,
                    "revertMessage": "",
                    "selector": "",
                    "status": false,
                    "value": ""
                },
                "nodeType": 0
            },
            "0": {
                "invocation": {
                    "address": "0xfd14567eaf9ba941cb8c8a94eec14831ca7fd1b4",
                    "callData": "0x00000000000000000000000000000000000000000000000000000000003740e600000000000000000000000000000000000000000000000000000000000000a004ea04b223d542b5ffd9559c65d8e3118d579d0b9777eff9bc42a9f5ebb61b1304a87127a9e06e864f9f302263dcc1bcb4d3cc2363af3256a39df8a3182a355e0800000000000011000000000000000000000000000000000000000000000001000000000000000000000000000000000000000000000000000000000000000702fa5e283b17412eafb11dc6e3e82f9231f8e41275f50a8e551f7b9c4678470000c91e9b8e866e558bcf9984250745fb208c777427f44869e18c1cc74a35260f0000000000000000000000000000000000000000000000000000000000071b2e01ab68adcc3b22b5c5737839d2f4eddbe681f2688c43ec5958d65cf0274c07b8017c0bc29d31e9a7d14671610a7626264ce9ce8e3ed066a4775adf9b123de9dd00000000000000000000000000000000000000000000000000000000000000000000000000000000000000000000000000000000000000000000000000000000",
                    "decodedMethod": {
                        "callParams": [
                            {
                                "name": "startAddr",
                                "type": "uint256",
                                "value": "3,621,094"
                            },
                            {
                                "name": "values",
                                "type": "uint256[]",
                                "value": [
                                    "1,346,987,312,138,585,461,841,062,848,584,457,757,286,038,960,007,922,040,357,194,438,035,100,944,128",
                                    "355,347,506,212,239,495,281,085,105,198,690,583,574,183,455,502,545,649,841,327,009,895,948,822,031",
                                    "465,710",
                                    "755,166,163,859,244,213,923,204,249,325,660,750,257,534,512,238,714,225,253,528,475,506,490,214,328",
                                    "671,483,050,609,816,861,429,812,414,688,707,376,174,032,882,875,357,307,847,551,691,140,236,175,837",
                                    "0",
                                    "0"
                                ]
                            },
                            {
                                "name": "z",
                                "type": "uint256",
                                "value": "2,222,726,017,120,761,928,101,410,708,563,161,905,272,238,137,541,075,064,666,456,791,693,821,090,579"
                            },
                            {
                                "name": "alpha",
                                "type": "uint256",
                                "value": "2,106,862,667,881,044,626,911,197,408,651,068,097,118,051,216,976,997,183,551,522,445,418,874,680,670"
                            },
                            {
                                "name": "prime",
                                "type": "uint256",
                                "value": "3,618,502,788,666,131,213,697,322,783,095,070,105,623,107,215,331,596,699,973,092,056,135,872,020,481"
                            }
                        ],
                        "constructorArguments": "",
                        "name": "registerContinuousMemoryPage",
                        "returnParams": [
                            {
                                "name": "factHash",
                                "type": "bytes32",
                                "value": "0x9dd2862c38ebae089b438f834a87c828ab2283d7232ac646349ae24b6a5e226a"
                            },
                            {
                                "name": "memoryHash",
                                "type": "uint256",
                                "value": "71,164,035,712,293,048,858,573,452,455,022,566,722,464,170,172,617,588,401,460,787,537,544,713,170,963"
                            },
                            {
                                "name": "prod",
                                "type": "uint256",
                                "value": "2,504,959,528,300,993,678,136,341,485,647,428,285,855,021,360,379,237,816,664,626,483,793,260,419,640"
                            }
                        ],
                        "signature": "registerContinuousMemoryPage(uint256,uint256[],uint256,uint256,uint256)"
                    },
                    "errorInfo": "",
                    "fromAddress": "0x16d5783a96ab20c9157d7933ac236646b29589a4",
                    "gasUsed": 53469,
                    "id": 0,
                    "methodDecoded": true,
                    "operation": "CALL",
                    "output": "0x9dd2862c38ebae089b438f834a87c828ab2283d7232ac646349ae24b6a5e226a9d556ab5b7bf91e513f0c69cdb3fc64afc9fe8d6280781ac44168f9be43970130589c1c0e55e5c43876b3ba5fe3242193263bd7c6c63a173ab2c36b621339a38",
                    "revert": false,
                    "revertMessage": "",
                    "selector": "0x5578ceae",
                    "status": true,
                    "value": "0"
                },
                "nodeType": 0
            },
            "1": {
                "event": {
                    "contract": "0xfd14567eaf9ba941cb8c8a94eec14831ca7fd1b4",
                    "decodedLog": {
                        "name": "LogMemoryPageFactContinuous",
                        "params": [
                            {
                                "name": "factHash",
                                "type": "bytes32",
                                "value": "0x9dd2862c38ebae089b438f834a87c828ab2283d7232ac646349ae24b6a5e226a"
                            },
                            {
                                "name": "memoryHash",
                                "type": "uint256",
                                "value": "71,164,035,712,293,048,858,573,452,455,022,566,722,464,170,172,617,588,401,460,787,537,544,713,170,963"
                            },
                            {
                                "name": "prod",
                                "type": "uint256",
                                "value": "2,504,959,528,300,993,678,136,341,485,647,428,285,855,021,360,379,237,816,664,626,483,793,260,419,640"
                            }
                        ],
                        "signature": "LogMemoryPageFactContinuous(bytes32,uint256,uint256)"
                    },
                    "id": 1,
                    "logData": "0x9dd2862c38ebae089b438f834a87c828ab2283d7232ac646349ae24b6a5e226a9d556ab5b7bf91e513f0c69cdb3fc64afc9fe8d6280781ac44168f9be43970130589c1c0e55e5c43876b3ba5fe3242193263bd7c6c63a173ab2c36b621339a38",
                    "logDecoded": true,
                    "operation": "EVENT",
                    "revert": false,
                    "status": true,
                    "topics": [
                        "0xb8b9c39aeba1cfd98c38dfeebe11c2f7e02b334cbe9f05f22b442a5d9c1ea0c5"
                    ]
                },
                "nodeType": 1
            }
        },
        "gasFlame": [
            {
                "children": [
                    {
                        "children": [
                            {
                                "children": [],
                                "depth": 0,
                                "name": "Initial Gas",
                                "value": 25140
                            },
                            {
                                "children": [],
                                "depth": 0,
                                "name": "Executed Gas",
                                "value": 28329
                            }
                        ],
                        "depth": -1,
                        "name": "Actual Gas Used",
                        "value": 53469
                    },
                    {
                        "children": [],
                        "depth": -1,
                        "name": "Refunded Gas",
                        "value": 0
                    }
                ],
                "depth": -2,
                "name": "Total Gas",
                "value": 53469
            }
        ],
        "isConfirmed": true,
        "mainTrace": [
            {
                "children": [
                    {
                        "children": [
                            {
                                "children": [],
                                "depth": 1,
                                "id": 1,
                                "order": 1
                            }
                        ],
                        "depth": 0,
                        "id": 0,
                        "order": 0
                    }
                ],
                "depth": -1,
                "id": -1,
                "order": -1
            }
        ],
        "mainTraceNodeCount": 2,
        "parentIdMap": {
            "0": -1,
            "1": 0
        },
        "tidyTrace": [
            {
                "children": [
                    {
                        "children": [
                            {
                                "children": [],
                                "depth": 1,
                                "id": 1,
                                "order": 1
                            }
                        ],
                        "depth": 0,
                        "id": 0,
                        "order": 0
                    }
                ],
                "depth": -1,
                "id": -1,
                "order": -1
            }
        ],
        "tidyTraceNodeCount": 2
    },
    "state_change": {
        "stateChanges": [
            {
                "address": "0xfd14567eaf9ba941cb8c8a94eec14831ca7fd1b4",
                "erc": "",
                "slots": [
                    {
                        "current": "0x0000000000000000000000000000000000000000000000000000000000000001",
                        "key": "0x40df29d45b16d89ff4baebf334a2ef5f350238d8a26e744f2374a3aa863b9ba9",
                        "prev": "0x0000000000000000000000000000000000000000000000000000000000000000"
                    }
                ],
                "storageVariables": [
                    {
                        "name": "verifiedFact",
                        "type": "mapping(bytes32 => bool)",
                        "value": {
                            "pairs": [
                                {
                                    "key": "0x9dd2862c38ebae089b438f834a87c828ab2283d7232ac646349ae24b6a5e226a",
                                    "value": {
                                        "current": "true",
                                        "prev": "false",
                                        "typeTag": 1
                                    }
                                }
                            ],
                            "typeTag": 4
                        }
                    }
                ]
            }
        ]
    }
}