{
    "balance_change": {
        "balanceChanges": [
            {
                "account": "0xe683c82573e0127d0bd1c75d83034996a549f836",
                "assets": [
                    {
                        "address": "0xeeeeeeeeeeeeeeeeeeeeeeeeeeeeeeeeeeeeeeee",
                        "amount": "0.176801",
                        "iconUrl": "https://assets.blocksec.com/image/1663669189317-3.png",
                        "isERC1155": false,
                        "isERC721": false,
                        "sign": false,
                        "value": "472.35569567999997106"
                    }
                ]
            },
            {
                "account": "0x52de8d3febd3a06d3c627f59d56e6892b80dcf12",
                "assets": [
                    {
                        "address": "0xeeeeeeeeeeeeeeeeeeeeeeeeeeeeeeeeeeeeeeee",
                        "amount": "0.176801",
                        "iconUrl": "https://assets.blocksec.com/image/1663669189317-3.png",
                        "isERC1155": false,
                        "isERC721": false,
                        "sign": true,
                        "value": "472.35569567999997106"
                    }
                ]
            }
        ]
    },
    "profile": {
        "basic_info": {
            "baseFee": "26.511822593",
            "blockNumber": 14728176,
            "callData": "0xb6b4af0500000000000000000000000000000000000000000000000002741f92a0ef100000000000000000000000000000000000000000000000000000000007101f39df00000000000000000000000000000000000000000000000000000000627618bf941761e8aadfcce183dee4d43ab475349cb110c44338b62dee8169b867360407eca1f595c9476fca9f0b4371fdf1470e22b4073ec0ab50c95a5c97f834bb2d84000000000000000000000000000000000000000000000000000000000000001cb0ac014bfd71f8173ea36ddd6b2bec800a7561a12246ffc491c16e9deb17e9334ae8f5c4bdd5e6627d4775bcf6b7fd7780f2916405ac18776320c074a6e6fb260000000000000000000000000000000000000000000000000000000000000000",
            "debugEnable": true,
            "errorInfo": "",
            "eventCount": 1,
            "feeRecipient": "0xea674fdde714fd979de3edf0f56aa9716b898ec8",
            "formatValue": "0.176801",
            "gasLimit": 56524,
            "gasPrice": "33.368778255",
            "gasUsed": 56524,
            "intTxnCount": 1,
            "internalRevert": false,
            "internalRevertMessage": "",
            "isContractCreation": false,
            "isFlashloan": false,
            "maxFee": "",
            "nonce": 10,
            "overwritedBlockNumber": -1,
            "priorityFee": "",
            "receiver": "0x52de8d3febd3a06d3c627f59d56e6892b80dcf12",
            "revertMessage": "",
            "sender": "0xe683c82573e0127d0bd1c75d83034996a549f836",
            "simulationEnable": true,
            "sourceTxnHash": "0x7c614c89ad0f00969db0992f07fc5a7b5a50a4eccc958110f6f732e08975a2e9",
            "status": true,
            "timestamp": "2022-05-07T06:23:46Z",
            "transactionFee": "0.00188613682208562",
            "txnHash": "0x7c614c89ad0f00969db0992f07fc5a7b5a50a4eccc958110f6f732e08975a2e9",
            "txnIndex": 33,
            "type": 0,
            "value": "176801000000000000"
        },
        "fund_flow": [
            {
                "amount": "0.176801",
                "from": "0xe683c82573e0127d0bd1c75d83034996a549f836",
                "id": 1,
                "isERC1155": false,
                "isERC721": false,
                "isReverted": false,
                "order": 1,
                "to": "0x52de8d3febd3a06d3c627f59d56e6892b80dcf12",
                "token": "0xeeeeeeeeeeeeeeeeeeeeeeeeeeeeeeeeeeeeeeee"
            }
        ],
        "token_infos": [
            {
                "address": "0xc02aaa39b223fe8d0a0e5c4f27ead9083c756cc2",
                "decimals": 18
            },
            {
                "address": "0xeeeeeeeeeeeeeeeeeeeeeeeeeeeeeeeeeeeeeeee",
                "decimals": 18
            }
        ]
    },
    "address_label": {
        "labels": [
            {
                "address": "0x0000000000000000000000000000000000000002",
                "label": "Precompiled"
            },
            {
                "address": "0x0000000000000000000000000000000000000003",
                "label": "Precompiled"
            },
            {
                "address": "0x0000000000000000000000000000000000000004",
                "label": "Precompiled"
            },
            {
                "address": "0xeeeeeeeeeeeeeeeeeeeeeeeeeeeeeeeeeeeeeeee",
                "label": "Ether"
            },
            {
                "address": "0x52de8d3febd3a06d3c627f59d56e6892b80dcf12",
                "label": "BitPay: Invoice 2"
            },
            {
                "address": "0x0000000000000000000000000000000000000000",
                "label": "Null Address"
            },
            {
                "address": "0x0000000000000000000000000000000000000001",
                "label": "Precompiled"
            }
        ]
    },
    "trace": {
        "accountLabels": null,
        "dataMap": {
            "-1": {
                "invocation": {
                    "address": "0xe683c82573e0127d0bd1c75d83034996a549f836",
                    "callData": "",
                    "decodedMethod": null,
                    "errorInfo": "",
                    "fromAddress": "",
                    "gasUsed": 0,
                    "id": -1,
                    "methodDecoded": false,
                    "operation": "",
                    "output": "",
                    "revert": false,
                    "revertMessage": "",
                    "selector": "",
                    "status": false,
                    "value": ""
                },
                "nodeType": 0
            },
            "0": {
                "invocation": {
                    "address": "0x52de8d3febd3a06d3c627f59d56e6892b80dcf12",
                    "callData": "0x00000000000000000000000000000000000000000000000002741f92a0ef100000000000000000000000000000000000000000000000000000000007101f39df00000000000000000000000000000000000000000000000000000000627618bf941761e8aadfcce183dee4d43ab475349cb110c44338b62dee8169b867360407eca1f595c9476fca9f0b4371fdf1470e22b4073ec0ab50c95a5c97f834bb2d84000000000000000000000000000000000000000000000000000000000000001cb0ac014bfd71f8173ea36ddd6b2bec800a7561a12246ffc491c16e9deb17e9334ae8f5c4bdd5e6627d4775bcf6b7fd7780f2916405ac18776320c074a6e6fb260000000000000000000000000000000000000000000000000000000000000000",
                    "decodedMethod": {
                        "callParams": [
                            {
                                "name": "value",
                                "type": "uint256",
                                "value": "176,801,000,000,000,000"
                            },
                            {
                                "name": "gasPrice",
                                "type": "uint256",
                                "value": "30,335,252,959"
                            },
                            {
                                "name": "expiration",
                                "type": "uint256",
                                "value": "1,651,906,751"
                            },
                            {
                                "name": "payload",
                                "type": "bytes32",
                                "value": "0x941761e8aadfcce183dee4d43ab475349cb110c44338b62dee8169b867360407"
                            },
                            {
                                "name": "hash",
                                "type": "bytes32",
                                "value": "0xeca1f595c9476fca9f0b4371fdf1470e22b4073ec0ab50c95a5c97f834bb2d84"
                            },
                            {
                                "name": "v",
                                "type": "uint8",
                                "value": "28"
                            },
                            {
                                "name": "r",
                                "type": "bytes32",
                                "value": "0xb0ac014bfd71f8173ea36ddd6b2bec800a7561a12246ffc491c16e9deb17e933"
                            },
                            {
                                "name": "s",
                                "type": "bytes32",
                                "value": "0x4ae8f5c4bdd5e6627d4775bcf6b7fd7780f2916405ac18776320c074a6e6fb26"
                            },
                            {
                                "name": "tokenContract",
                                "type": "address",
                                "value": "0x0000000000000000000000000000000000000000"
                            }
                        ],
                        "constructorArguments": "",
                        "name": "pay",
                        "returnParams": [],
                        "signature": "pay(uint256,uint256,uint256,bytes32,bytes32,uint8,bytes32,bytes32,address)"
                    },
                    "errorInfo": "",
                    "fromAddress": "0xe683c82573e0127d0bd1c75d83034996a549f836",
                    "gasUsed": 56524,
                    "id": 0,
                    "methodDecoded": true,
                    "operation": "CALL",
                    "output": "",
                    "revert": false,
                    "revertMessage": "",
                    "selector": "0xb6b4af05",
                    "status": true,
                    "value": "0.176801"
                },
                "nodeType": 0
            },
            "1": {
                "invocation": {
                    "address": "0x0000000000000000000000000000000000000001",
                    "callData": "0x50ed6f2573d9ddcd4d1462a02e552935eac97d8b6b5f075c88a25f41000000000000000000000000000000000000000000000000000000000000001cb0ac014bfd71f8173ea36ddd6b2bec800a7561a12246ffc491c16e9deb17e9334ae8f5c4bdd5e6627d4775bcf6b7fd7780f2916405ac18776320c074a6e6fb26",
                    "decodedMethod": {
                        "callParams": [
                            {
                                "name": "hash",
                                "type": "bytes32",
                                "value": "0xbc9f7edd50ed6f2573d9ddcd4d1462a02e552935eac97d8b6b5f075c88a25f41"
                            },
                            {
                                "name": "v",
                                "type": "uint256",
                                "value": "28"
                            },
                            {
                                "name": "r",
                                "type": "bytes32",
                                "value": "0xb0ac014bfd71f8173ea36ddd6b2bec800a7561a12246ffc491c16e9deb17e933"
                            },
                            {
                                "name": "s",
                                "type": "bytes32",
                                "value": "0x4ae8f5c4bdd5e6627d4775bcf6b7fd7780f2916405ac18776320c074a6e6fb26"
                            }
                        ],
                        "constructorArguments": "",
                        "name": "ecrecover",
                        "returnParams": [
                            {
                                "name": "",
                                "type": "address",
                                "value": "0xa97ceb180ca61d124b6a4aadc5530bc53198922f"
                            }
                        ],
                        "signature": "ecrecover(bytes32,uint256,bytes32,bytes32)"
                    },
                    "errorInfo": "",
                    "fromAddress": "0x52de8d3febd3a06d3c627f59d56e6892b80dcf12",
                    "gasUsed": 3000,
                    "id": 1,
                    "methodDecoded": true,
                    "operation": "CALL",
                    "output": "0x000000000000000000000000a97ceb180ca61d124b6a4aadc5530bc53198922f",
                    "revert": false,
                    "revertMessage": "",
                    "selector": "0xbc9f7edd",
                    "status": true,
                    "value": "0"
                },
                "nodeType": 0
            },
            "2": {
                "event": {
                    "contract": "0x52de8d3febd3a06d3c627f59d56e6892b80dcf12",
                    "decodedLog": {
                        "name": "PaymentAccepted",
                        "params": [
                            {
                                "name": "hash",
                                "type": "bytes32",
                                "value": "0xeca1f595c9476fca9f0b4371fdf1470e22b4073ec0ab50c95a5c97f834bb2d84"
                            },
                            {
                                "name": "tokenContract",
                                "type": "address",
                                "value": "0x0000000000000000000000000000000000000000"
                            },
                            {
                                "name": "time",
                                "type": "uint256",
                                "value": "1,651,904,626"
                            },
                            {
                                "name": "value",
                                "type": "uint256",
                                "value": "176,801,000,000,000,000"
                            }
                        ],
                        "signature": "PaymentAccepted(bytes32,address,uint256,uint256)"
                    },
                    "id": 2,
                    "logData": "0x000000000000000000000000000000000000000000000000000000006276107200000000000000000000000000000000000000000000000002741f92a0ef1000",
                    "logDecoded": true,
                    "operation": "EVENT",
                    "revert": false,
                    "status": true,
                    "topics": [
                        "0x826e7792f434a28ba302e6767da85b4b8e56b83a5e028687f30e848e32667f95",
                        "0xeca1f595c9476fca9f0b4371fdf1470e22b4073ec0ab50c95a5c97f834bb2d84",
                        "0x0000000000000000000000000000000000000000000000000000000000000000"
                    ]
                },
                "nodeType": 1
            }
        },
        "gasFlame": [
            {
                "children": [
                    {
                        "children": [
                            {
                                "children": [],
                                "depth": 0,
                                "name": "Initial Gas",
                                "value": 23956
                            },
                            {
                                "children": [
                                    {
                                        "children": [],
                                        "depth": 1,
                                        "name": "ecrecover",
                                        "value": 3000
                                    }
                                ],
                                "depth": 0,
                                "name": "Executed Gas",
                                "value": 32568
                            }
                        ],
                        "depth": -1,
                        "name": "Actual Gas Used",
                        "value": 56524
                    },
                    {
                        "children": [],
                        "depth": -1,
                        "name": "Refunded Gas",
                        "value": 0
                    }
                ],
                "depth": -2,
                "name": "Total Gas",
                "value": 56524
            }
        ],
        "isConfirmed": true,
        "mainTrace": [
            {
                "children": [
                    {
                        "children": [
                            {
                                "children": [],
                                "depth": 1,
                                "id": 1,
                                "order": 1
                            },
                            {
                                "children": [],
                                "depth": 1,
                                "id": 2,
                                "order": 2
                            }
                        ],
                        "depth": 0,
                        "id": 0,
                        "order": 0
                    }
                ],
                "depth": -1,
                "id": -1,
                "order": -1
            }
        ],
        "mainTraceNodeCount": 3,
        "parentIdMap": {
            "0": -1,
            "1": 0,
            "2": 0
        },
        "tidyTrace": [
            {
                "children": [
                    {
                        "children": [
                            {
                                "children": [],
                                "depth": 1,
                                "id": 1,
                                "order": 1
                            },
                            {
                                "children": [],
                                "depth": 1,
                                "id": 2,
                                "order": 2
                            }
                        ],
                        "depth": 0,
                        "id": 0,
                        "order": 0
                    }
                ],
                "depth": -1,
                "id": -1,
                "order": -1
            }
        ],
        "tidyTraceNodeCount": 3
    },
    "state_change": {
        "stateChanges": [
            {
                "address": "0x52de8d3febd3a06d3c627f59d56e6892b80dcf12",
                "erc": "",
                "slots": [
                    {
                        "current": "0x0000000000000000000000000000000000000000000000000000000000000001",
                        "key": "0x6456703e486462f3a6db98f6809c0a5e63be0269373c9854fe4b708b28e7fd28",
                        "prev": "0x0000000000000000000000000000000000000000000000000000000000000000"
                    }
                ],
                "storageVariables": [
                    {
                        "name": "isPaid",
                        "type": "mapping(bytes32 => bool)",
                        "value": {
                            "pairs": [
                                {
                                    "key": "0x941761e8aadfcce183dee4d43ab475349cb110c44338b62dee8169b867360407",
                                    "value": {
                                        "current": "true",
                                        "prev": "false",
                                        "typeTag": 1
                                    }
                                }
                            ],
                            "typeTag": 4
                        }
                    }
                ]
            }
        ]
    }
}