{
    "balance_change": {
        "balanceChanges": [
            {
                "account": "0xfb841c31efbd1bff1945870b4fac6926a881c908",
                "assets": [
                    {
                        "address": "0xa0ef786bf476fe0810408caba05e536ac800ff86",
                        "amount": "48,539.314",
                        "iconUrl": "",
                        "isERC1155": false,
                        "isERC721": false,
                        "sign": false,
                        "value": "499.3310709"
                    }
                ]
            },
            {
                "account": "0xcaa51d88ee70986a250dbb0bdfcf152b6807cb02",
                "assets": [
                    {
                        "address": "0xa0ef786bf476fe0810408caba05e536ac800ff86",
                        "amount": "48,539.314",
                        "iconUrl": "",
                        "isERC1155": false,
                        "isERC721": false,
                        "sign": true,
                        "value": "499.3310709"
                    }
                ]
            }
        ]
    },
    "profile": {
        "basic_info": {
            "baseFee": "32.106917853",
            "blockNumber": 18849126,
            "callData": "0xa9059cbb000000000000000000000000caa51d88ee70986a250dbb0bdfcf152b6807cb02000000000000000000000000000000000000000000000a47524cceb149050000",
            "debugEnable": true,
            "errorInfo": "",
            "eventCount": 1,
            "feeRecipient": "0x690b9a9e9aa1c9db991c7721a92d351db4fac990",
            "formatValue": "0",
            "gasLimit": 77347,
            "gasPrice": "32.206917853",
            "gasUsed": 46765,
            "intTxnCount": 0,
            "internalRevert": false,
            "internalRevertMessage": "",
            "isContractCreation": false,
            "isFlashloan": false,
            "maxFee": "44.28976368",
            "nonce": 1699,
            "overwritedBlockNumber": -1,
            "priorityFee": "0.1",
            "receiver": "0xa0ef786bf476fe0810408caba05e536ac800ff86",
            "revertMessage": "",
            "sender": "0xfb841c31efbd1bff1945870b4fac6926a881c908",
            "simulationEnable": true,
            "sourceTxnHash": "0x7c0aea5f658110a235bdc331aa15f49761c387d969b1bef38236305b9f992919",
            "status": true,
            "timestamp": "2023-12-23T14:32:11Z",
            "transactionFee": "0.001506156513395545",
            "txnHash": "0x7c0aea5f658110a235bdc331aa15f49761c387d969b1bef38236305b9f992919",
            "txnIndex": 172,
            "type": 2,
            "value": "0"
        },
        "fund_flow": [
            {
                "amount": "48,539.314",
                "from": "0xfb841c31efbd1bff1945870b4fac6926a881c908",
                "id": 1,
                "isERC1155": false,
                "isERC721": false,
                "isReverted": false,
                "order": 1,
                "to": "0xcaa51d88ee70986a250dbb0bdfcf152b6807cb02",
                "token": "0xa0ef786bf476fe0810408caba05e536ac800ff86"
            }
        ],
        "token_infos": [
            {
                "address": "0xa0ef786bf476fe0810408caba05e536ac800ff86",
                "decimals": 18
            },
            {
                "address": "0xc02aaa39b223fe8d0a0e5c4f27ead9083c756cc2",
                "decimals": 18
            },
            {
                "address": "0xeeeeeeeeeeeeeeeeeeeeeeeeeeeeeeeeeeeeeeee",
                "decimals": 18
            }
        ]
    },
    "address_label": {
        "labels": [
            {
                "address": "0x0000000000000000000000000000000000000002",
                "label": "Precompiled"
            },
            {
                "address": "0x0000000000000000000000000000000000000003",
                "label": "Precompiled"
            },
            {
                "address": "0x0000000000000000000000000000000000000004",
                "label": "Precompiled"
            },
            {
                "address": "0xeeeeeeeeeeeeeeeeeeeeeeeeeeeeeeeeeeeeeeee",
                "label": "Ether"
            },
            {
                "address": "0xa0ef786bf476fe0810408caba05e536ac800ff86",
                "label": "Myria: MYRIA Token"
            },
            {
                "address": "0xcaa51d88ee70986a250dbb0bdfcf152b6807cb02",
                "label": "KUCOIN"
            },
            {
                "address": "0x0000000000000000000000000000000000000001",
                "label": "Precompiled"
            }
        ]
    },
    "trace": {
        "accountLabels": null,
        "dataMap": {
            "-1": {
                "invocation": {
                    "address": "0xfb841c31efbd1bff1945870b4fac6926a881c908",
                    "callData": "",
                    "decodedMethod": null,
                    "errorInfo": "",
                    "fromAddress": "",
                    "gasUsed": 0,
                    "id": -1,
                    "methodDecoded": false,
                    "operation": "",
                    "output": "",
                    "revert": false,
                    "revertMessage": "",
                    "selector": "",
                    "status": false,
                    "value": ""
                },
                "nodeType": 0
            },
            "0": {
                "invocation": {
                    "address": "0xa0ef786bf476fe0810408caba05e536ac800ff86",
                    "callData": "0x000000000000000000000000caa51d88ee70986a250dbb0bdfcf152b6807cb02000000000000000000000000000000000000000000000a47524cceb149050000",
                    "decodedMethod": {
                        "callParams": [
                            {
                                "name": "recipient",
                                "type": "address",
                                "value": "0xcaa51d88ee70986a250dbb0bdfcf152b6807cb02"
                            },
                            {
                                "decimalAvailable": true,
                                "name": "amount",
                                "type": "uint256",
                                "value": "48,539,314,000,000,000,000,000"
                            }
                        ],
                        "constructorArguments": "",
                        "name": "transfer",
                        "returnParams": [
                            {
                                "name": "",
                                "type": "bool",
                                "value": true
                            }
                        ],
                        "signature": "transfer(address,uint256)"
                    },
                    "errorInfo": "",
                    "fromAddress": "0xfb841c31efbd1bff1945870b4fac6926a881c908",
                    "gasUsed": 46765,
                    "id": 0,
                    "methodDecoded": true,
                    "operation": "CALL",
                    "output": "0x0000000000000000000000000000000000000000000000000000000000000001",
                    "revert": false,
                    "revertMessage": "",
                    "selector": "0xa9059cbb",
                    "status": true,
                    "value": "0"
                },
                "nodeType": 0
            },
            "1": {
                "event": {
                    "contract": "0xa0ef786bf476fe0810408caba05e536ac800ff86",
                    "decodedLog": {
                        "name": "Transfer",
                        "params": [
                            {
                                "name": "from",
                                "type": "address",
                                "value": "0xfb841c31efbd1bff1945870b4fac6926a881c908"
                            },
                            {
                                "name": "to",
                                "type": "address",
                                "value": "0xcaa51d88ee70986a250dbb0bdfcf152b6807cb02"
                            },
                            {
                                "decimalAvailable": true,
                                "name": "value",
                                "type": "uint256",
                                "value": "48,539,314,000,000,000,000,000"
                            }
                        ],
                        "signature": "Transfer(address,address,uint256)"
                    },
                    "id": 1,
                    "logData": "0x000000000000000000000000000000000000000000000a47524cceb149050000",
                    "logDecoded": true,
                    "operation": "EVENT",
                    "revert": false,
                    "status": true,
                    "topics": [
                        "0xddf252ad1be2c89b69c2b068fc378daa952ba7f163c4a11628f55a4df523b3ef",
                        "0x000000000000000000000000fb841c31efbd1bff1945870b4fac6926a881c908",
                        "0x000000000000000000000000caa51d88ee70986a250dbb0bdfcf152b6807cb02"
                    ]
                },
                "nodeType": 1
            }
        },
        "gasFlame": [
            {
                "children": [
                    {
                        "children": [
                            {
                                "children": [],
                                "depth": 0,
                                "name": "Initial Gas",
                                "value": 21656
                            },
                            {
                                "children": [],
                                "depth": 0,
                                "name": "Executed Gas",
                                "value": 29909
                            }
                        ],
                        "depth": -1,
                        "name": "Actual Gas Used",
                        "value": 46765
                    },
                    {
                        "children": [],
                        "depth": -1,
                        "name": "Refunded Gas",
                        "value": 4800
                    }
                ],
                "depth": -2,
                "name": "Total Gas",
                "value": 51565
            }
        ],
        "isConfirmed": true,
        "mainTrace": [
            {
                "children": [
                    {
                        "children": [
                            {
                                "children": [],
                                "depth": 1,
                                "id": 1,
                                "order": 1
                            }
                        ],
                        "depth": 0,
                        "id": 0,
                        "order": 0
                    }
                ],
                "depth": -1,
                "id": -1,
                "order": -1
            }
        ],
        "mainTraceNodeCount": 2,
        "parentIdMap": {
            "0": -1,
            "1": 0
        },
        "tidyTrace": [
            {
                "children": [
                    {
                        "children": [
                            {
                                "children": [],
                                "depth": 1,
                                "id": 1,
                                "order": 1
                            }
                        ],
                        "depth": 0,
                        "id": 0,
                        "order": 0
                    }
                ],
                "depth": -1,
                "id": -1,
                "order": -1
            }
        ],
        "tidyTraceNodeCount": 2
    },
    "state_change": {
        "stateChanges": [
            {
                "address": "0xa0ef786bf476fe0810408caba05e536ac800ff86",
                "erc": "ERC-20",
                "slots": [
                    {
                        "current": "0x000000000000000000000000000000000000000000000a47524cceb149050000",
                        "key": "0xccedf82018aec3c08306eb4a51e86d72caa5a408ca55d543a7bea459e9b4dcad",
                        "prev": "0x0000000000000000000000000000000000000000000000000000000000000000"
                    },
                    {
                        "current": "0x0000000000000000000000000000000000000000000000000000000000000000",
                        "key": "0x01910f987ec2c0fc9e2c79450248c609520e0384d73c59ebaa587e09e3bf4ed8",
                        "prev": "0x000000000000000000000000000000000000000000000a47524cceb149050000"
                    }
                ],
                "storageVariables": [
                    {
                        "name": "_balances",
                        "type": "mapping(address => uint256)",
                        "value": {
                            "pairs": [
                                {
                                    "key": "0xcaa51d88ee70986a250dbb0bdfcf152b6807cb02",
                                    "value": {
                                        "current": "48539314000000000000000",
                                        "prev": "0",
                                        "typeTag": 1
                                    }
                                },
                                {
                                    "key": "0xfb841c31efbd1bff1945870b4fac6926a881c908",
                                    "value": {
                                        "current": "0",
                                        "prev": "48539314000000000000000",
                                        "typeTag": 1
                                    }
                                }
                            ],
                            "typeTag": 4
                        }
                    }
                ]
            }
        ]
    }
}