{
    "balance_change": {
        "balanceChanges": [
            {
                "account": "0x6dbc5ba6e6dbe7dee0d8e9b9b304e45576ddd5a8",
                "assets": [
                    {
                        "address": "0xf411903cbc70a74d22900a5de66a2dda66507255",
                        "amount": "14,668,288",
                        "iconUrl": "",
                        "isERC1155": false,
                        "isERC721": false,
                        "sign": true,
                        "value": "73341.440000000001525"
                    }
                ]
            },
            {
                "account": "0x0000000000000000000000000000000000000000",
                "assets": [
                    {
                        "address": "0xf411903cbc70a74d22900a5de66a2dda66507255",
                        "amount": "14,668,288",
                        "iconUrl": "",
                        "isERC1155": false,
                        "isERC721": false,
                        "sign": false,
                        "value": "73341.440000000001525"
                    }
                ]
            }
        ]
    },
    "profile": {
        "basic_info": {
            "baseFee": "5.6157",
            "blockNumber": 18360482,
            "callData": "0xdcdc7dd00000000000000000000000006dbc5ba6e6dbe7dee0d8e9b9b304e45576ddd5a80000000000000000000000000000000000000000000c22217c5e2f6c08000000000000000000000000000000000000000000000000000000000000000000008000000000000000000000000000000000000000000000000000000000000000c00000000000000000000000000000000000000000000000000000000000000000000000000000000000000000000000000000000000000000000000000000000000000000000000000000000000000000000000000000000000000000000000000000000000000000000000000000000000000000000000000000000000000000",
            "debugEnable": true,
            "errorInfo": "",
            "eventCount": 2,
            "feeRecipient": "0x4838b106fce9647bdf1e7877bf73ce8b0bad5f97",
            "formatValue": "0",
            "gasLimit": 72270,
            "gasPrice": "15.6157",
            "gasUsed": 72270,
            "intTxnCount": 1,
            "internalRevert": false,
            "internalRevertMessage": "",
            "isContractCreation": false,
            "isFlashloan": false,
            "maxFee": "1000",
            "nonce": 4145,
            "overwritedBlockNumber": -1,
            "priorityFee": "10",
            "receiver": "0xf411903cbc70a74d22900a5de66a2dda66507255",
            "revertMessage": "",
            "sender": "0x6dbc5ba6e6dbe7dee0d8e9b9b304e45576ddd5a8",
            "simulationEnable": true,
            "sourceTxnHash": "0x7c6efde2cd4cd16d73a827a084a8e846c13560e82a2ff91b40e126513f65b82a",
            "status": true,
            "timestamp": "2023-10-16T04:15:23Z",
            "transactionFee": "0.001128546639",
            "txnHash": "0x7c6efde2cd4cd16d73a827a084a8e846c13560e82a2ff91b40e126513f65b82a",
            "txnIndex": 20,
            "type": 2,
            "value": "0"
        },
        "fund_flow": [
            {
                "amount": "14,668,288",
                "from": "0x0000000000000000000000000000000000000000",
                "id": 1,
                "isERC1155": false,
                "isERC721": false,
                "isReverted": false,
                "order": 1,
                "to": "0x6dbc5ba6e6dbe7dee0d8e9b9b304e45576ddd5a8",
                "token": "0xf411903cbc70a74d22900a5de66a2dda66507255"
            }
        ],
        "token_infos": [
            {
                "address": "0xc02aaa39b223fe8d0a0e5c4f27ead9083c756cc2",
                "decimals": 18
            },
            {
                "address": "0xf411903cbc70a74d22900a5de66a2dda66507255",
                "decimals": 18
            },
            {
                "address": "0xeeeeeeeeeeeeeeeeeeeeeeeeeeeeeeeeeeeeeeee",
                "decimals": 18
            }
        ]
    },
    "address_label": {
        "labels": [
            {
                "address": "0xeeeeeeeeeeeeeeeeeeeeeeeeeeeeeeeeeeeeeeee",
                "label": "Ether"
            },
            {
                "address": "0x1820a4b7618bde71dce8cdc73aab6c95905fad24",
                "label": "ERC1820Registry"
            },
            {
                "address": "0x0000000000000000000000000000000000000000",
                "label": "Null Address"
            },
            {
                "address": "0xf411903cbc70a74d22900a5de66a2dda66507255",
                "label": "Verasity: VRA Token"
            },
            {
                "address": "0x0000000000000000000000000000000000000001",
                "label": "Precompiled"
            },
            {
                "address": "0x0000000000000000000000000000000000000002",
                "label": "Precompiled"
            },
            {
                "address": "0x0000000000000000000000000000000000000003",
                "label": "Precompiled"
            },
            {
                "address": "0x0000000000000000000000000000000000000004",
                "label": "Precompiled"
            }
        ]
    },
    "trace": {
        "accountLabels": null,
        "dataMap": {
            "-1": {
                "invocation": {
                    "address": "0x6dbc5ba6e6dbe7dee0d8e9b9b304e45576ddd5a8",
                    "callData": "",
                    "decodedMethod": null,
                    "errorInfo": "",
                    "fromAddress": "",
                    "gasUsed": 0,
                    "id": -1,
                    "methodDecoded": false,
                    "operation": "",
                    "output": "",
                    "revert": false,
                    "revertMessage": "",
                    "selector": "",
                    "status": false,
                    "value": ""
                },
                "nodeType": 0
            },
            "0": {
                "invocation": {
                    "address": "0xf411903cbc70a74d22900a5de66a2dda66507255",
                    "callData": "0x0000000000000000000000006dbc5ba6e6dbe7dee0d8e9b9b304e45576ddd5a80000000000000000000000000000000000000000000c22217c5e2f6c08000000000000000000000000000000000000000000000000000000000000000000008000000000000000000000000000000000000000000000000000000000000000c00000000000000000000000000000000000000000000000000000000000000000000000000000000000000000000000000000000000000000000000000000000000000000000000000000000000000000000000000000000000000000000000000000000000000000000000000000000000000000000000000000000000000000",
                    "decodedMethod": {
                        "callParams": [
                            {
                                "name": "account",
                                "type": "address",
                                "value": "0x6dbc5ba6e6dbe7dee0d8e9b9b304e45576ddd5a8"
                            },
                            {
                                "name": "amount",
                                "type": "uint256",
                                "value": "14,668,288,000,000,000,000,000,000"
                            },
                            {
                                "name": "userData",
                                "type": "bytes",
                                "value": "0x"
                            },
                            {
                                "name": "operatorData",
                                "type": "bytes",
                                "value": "0x"
                            }
                        ],
                        "constructorArguments": "",
                        "name": "mint",
                        "returnParams": [],
                        "signature": "mint(address,uint256,bytes,bytes)"
                    },
                    "errorInfo": "",
                    "fromAddress": "0x6dbc5ba6e6dbe7dee0d8e9b9b304e45576ddd5a8",
                    "gasUsed": 72270,
                    "id": 0,
                    "methodDecoded": true,
                    "operation": "CALL",
                    "output": "",
                    "revert": false,
                    "revertMessage": "",
                    "selector": "0xdcdc7dd0",
                    "status": true,
                    "value": "0"
                },
                "nodeType": 0
            },
            "1": {
                "invocation": {
                    "address": "0x1820a4b7618bde71dce8cdc73aab6c95905fad24",
                    "callData": "0x0000000000000000000000006dbc5ba6e6dbe7dee0d8e9b9b304e45576ddd5a8b281fc8c12954d22544db45de3159a39272895b169a852b314f9cc762e44c53b",
                    "decodedMethod": {
                        "callParams": [
                            {
                                "name": "_addr",
                                "type": "address",
                                "value": "0x6dbc5ba6e6dbe7dee0d8e9b9b304e45576ddd5a8"
                            },
                            {
                                "name": "_interfaceHash",
                                "type": "bytes32",
                                "value": "0xb281fc8c12954d22544db45de3159a39272895b169a852b314f9cc762e44c53b"
                            }
                        ],
                        "constructorArguments": "",
                        "name": "getInterfaceImplementer",
                        "returnParams": [
                            {
                                "name": "",
                                "type": "address",
                                "value": "0x0000000000000000000000000000000000000000"
                            }
                        ],
                        "signature": "getInterfaceImplementer(address,bytes32)"
                    },
                    "errorInfo": "",
                    "fromAddress": "0xf411903cbc70a74d22900a5de66a2dda66507255",
                    "gasUsed": 2942,
                    "id": 1,
                    "methodDecoded": true,
                    "operation": "STATICCALL",
                    "output": "0x0000000000000000000000000000000000000000000000000000000000000000",
                    "revert": false,
                    "revertMessage": "",
                    "selector": "0xaabbb8ca",
                    "status": true,
                    "value": "0"
                },
                "nodeType": 0
            },
            "2": {
                "event": {
                    "contract": "0xf411903cbc70a74d22900a5de66a2dda66507255",
                    "decodedLog": {
                        "name": "Minted",
                        "params": [
                            {
                                "name": "operator",
                                "type": "address",
                                "value": "0x6dbc5ba6e6dbe7dee0d8e9b9b304e45576ddd5a8"
                            },
                            {
                                "name": "to",
                                "type": "address",
                                "value": "0x6dbc5ba6e6dbe7dee0d8e9b9b304e45576ddd5a8"
                            },
                            {
                                "name": "amount",
                                "type": "uint256",
                                "value": "14,668,288,000,000,000,000,000,000"
                            },
                            {
                                "name": "data",
                                "type": "bytes",
                                "value": "0x"
                            },
                            {
                                "name": "operatorData",
                                "type": "bytes",
                                "value": "0x"
                            }
                        ],
                        "signature": "Minted(address,address,uint256,bytes,bytes)"
                    },
                    "id": 2,
                    "logData": "0x0000000000000000000000000000000000000000000c22217c5e2f6c080000000000000000000000000000000000000000000000000000000000000000000060000000000000000000000000000000000000000000000000000000000000008000000000000000000000000000000000000000000000000000000000000000000000000000000000000000000000000000000000000000000000000000000000",
                    "logDecoded": true,
                    "operation": "EVENT",
                    "revert": false,
                    "status": true,
                    "topics": [
                        "0x2fe5be0146f74c5bce36c0b80911af6c7d86ff27e89d5cfa61fc681327954e5d",
                        "0x0000000000000000000000006dbc5ba6e6dbe7dee0d8e9b9b304e45576ddd5a8",
                        "0x0000000000000000000000006dbc5ba6e6dbe7dee0d8e9b9b304e45576ddd5a8"
                    ]
                },
                "nodeType": 1
            },
            "3": {
                "event": {
                    "contract": "0xf411903cbc70a74d22900a5de66a2dda66507255",
                    "decodedLog": {
                        "name": "Transfer",
                        "params": [
                            {
                                "name": "from",
                                "type": "address",
                                "value": "0x0000000000000000000000000000000000000000"
                            },
                            {
                                "name": "to",
                                "type": "address",
                                "value": "0x6dbc5ba6e6dbe7dee0d8e9b9b304e45576ddd5a8"
                            },
                            {
                                "decimalAvailable": true,
                                "name": "value",
                                "type": "uint256",
                                "value": "14,668,288,000,000,000,000,000,000"
                            }
                        ],
                        "signature": "Transfer(address,address,uint256)"
                    },
                    "id": 3,
                    "logData": "0x0000000000000000000000000000000000000000000c22217c5e2f6c08000000",
                    "logDecoded": true,
                    "operation": "EVENT",
                    "revert": false,
                    "status": true,
                    "topics": [
                        "0xddf252ad1be2c89b69c2b068fc378daa952ba7f163c4a11628f55a4df523b3ef",
                        "0x0000000000000000000000000000000000000000000000000000000000000000",
                        "0x0000000000000000000000006dbc5ba6e6dbe7dee0d8e9b9b304e45576ddd5a8"
                    ]
                },
                "nodeType": 1
            }
        },
        "gasFlame": [
            {
                "children": [
                    {
                        "children": [
                            {
                                "children": [],
                                "depth": 0,
                                "name": "Initial Gas",
                                "value": 22448
                            },
                            {
                                "children": [
                                    {
                                        "children": [],
                                        "depth": 1,
                                        "name": "getInterfaceImplementer",
                                        "value": 2942
                                    }
                                ],
                                "depth": 0,
                                "name": "Executed Gas",
                                "value": 49822
                            }
                        ],
                        "depth": -1,
                        "name": "Actual Gas Used",
                        "value": 72270
                    },
                    {
                        "children": [],
                        "depth": -1,
                        "name": "Refunded Gas",
                        "value": 0
                    }
                ],
                "depth": -2,
                "name": "Total Gas",
                "value": 72270
            }
        ],
        "isConfirmed": true,
        "mainTrace": [
            {
                "children": [
                    {
                        "children": [
                            {
                                "children": [],
                                "depth": 1,
                                "id": 1,
                                "order": 1
                            },
                            {
                                "children": [],
                                "depth": 1,
                                "id": 2,
                                "order": 2
                            },
                            {
                                "children": [],
                                "depth": 1,
                                "id": 3,
                                "order": 3
                            }
                        ],
                        "depth": 0,
                        "id": 0,
                        "order": 0
                    }
                ],
                "depth": -1,
                "id": -1,
                "order": -1
            }
        ],
        "mainTraceNodeCount": 4,
        "parentIdMap": {
            "0": -1,
            "1": 0,
            "2": 0,
            "3": 0
        },
        "tidyTrace": [
            {
                "children": [
                    {
                        "children": [
                            {
                                "children": [],
                                "depth": 1,
                                "id": 2,
                                "order": 2
                            },
                            {
                                "children": [],
                                "depth": 1,
                                "id": 3,
                                "order": 3
                            }
                        ],
                        "depth": 0,
                        "id": 0,
                        "order": 0
                    }
                ],
                "depth": -1,
                "id": -1,
                "order": -1
            }
        ],
        "tidyTraceNodeCount": 3
    },
    "state_change": {
        "stateChanges": [
            {
                "address": "0xf411903cbc70a74d22900a5de66a2dda66507255",
                "erc": "ERC-20",
                "slots": [
                    {
                        "current": "0x00000000000000000000000000000000000000014419f8b83e19ec91d8c7015e",
                        "key": "0x0000000000000000000000000000000000000000000000000000000000000002",
                        "prev": "0x0000000000000000000000000000000000000001440dd696c1bbbd25d0c7015e"
                    },
                    {
                        "current": "0x0000000000000000000000000000000000000000000c22217c5e2f6c08000000",
                        "key": "0x6d7f7c48eb98af29cd33c4de7aeb55f5f44387c22157d8d646de17a514ce37ed",
                        "prev": "0x0000000000000000000000000000000000000000000000000000000000000000"
                    }
                ],
                "storageVariables": [
                    {
                        "name": "_totalSupply",
                        "type": "uint256",
                        "value": {
                            "current": "100304540873169697046687842654",
                            "prev": "100289872585169697046687842654",
                            "typeTag": 1
                        }
                    },
                    {
                        "name": "_balances",
                        "type": "mapping(address => uint256)",
                        "value": {
                            "pairs": [
                                {
                                    "key": "0x6dbc5ba6e6dbe7dee0d8e9b9b304e45576ddd5a8",
                                    "value": {
                                        "current": "14668288000000000000000000",
                                        "prev": "0",
                                        "typeTag": 1
                                    }
                                }
                            ],
                            "typeTag": 4
                        }
                    }
                ]
            }
        ]
    }
}