{
    "balance_change": {
        "balanceChanges": [
            {
                "account": "0xba96d535fceb53cf05412bd1b3f568a4cf99ff7b",
                "assets": [
                    {
                        "address": "0xdc9ac3c20d1ed0b540df9b1fedc10039df13f99c",
                        "amount": "457.303348424481366457",
                        "iconUrl": "",
                        "isERC1155": false,
                        "isERC721": false,
                        "sign": false,
                        "value": "235.7275077"
                    }
                ]
            },
            {
                "account": "0x199d803e22e4d64b23da9f273684a29fd76f7bbf",
                "assets": [
                    {
                        "address": "0xdc9ac3c20d1ed0b540df9b1fedc10039df13f99c",
                        "amount": "457.303348424481366457",
                        "iconUrl": "",
                        "isERC1155": false,
                        "isERC721": false,
                        "sign": true,
                        "value": "235.7275077"
                    }
                ]
            }
        ]
    },
    "profile": {
        "basic_info": {
            "baseFee": "",
            "blockNumber": 12107361,
            "callData": "0xa9059cbb000000000000000000000000199d803e22e4d64b23da9f273684a29fd76f7bbf000000000000000000000000000000000000000000000018ca5bdc7ebde6e1b9",
            "debugEnable": true,
            "errorInfo": "",
            "eventCount": 1,
            "feeRecipient": "0x5a0b54d5dc17e0aadc383d2db43b0a0d3e029c4c",
            "formatValue": "0",
            "gasLimit": 78532,
            "gasPrice": "146",
            "gasUsed": 37355,
            "intTxnCount": 0,
            "internalRevert": false,
            "internalRevertMessage": "",
            "isContractCreation": false,
            "isFlashloan": false,
            "maxFee": "",
            "nonce": 161,
            "overwritedBlockNumber": -1,
            "priorityFee": "",
            "receiver": "0xdc9ac3c20d1ed0b540df9b1fedc10039df13f99c",
            "revertMessage": "",
            "sender": "0xba96d535fceb53cf05412bd1b3f568a4cf99ff7b",
            "simulationEnable": true,
            "sourceTxnHash": "0x7ca77368dc6e675d65cc47a6a10fb659602022f9f095db0981453477a27fe463",
            "status": true,
            "timestamp": "2021-03-25T09:42:03Z",
            "transactionFee": "0.00545383",
            "txnHash": "0x7ca77368dc6e675d65cc47a6a10fb659602022f9f095db0981453477a27fe463",
            "txnIndex": 102,
            "type": 0,
            "value": "0"
        },
        "fund_flow": [
            {
                "amount": "457.303348424481366457",
                "from": "0xba96d535fceb53cf05412bd1b3f568a4cf99ff7b",
                "id": 1,
                "isERC1155": false,
                "isERC721": false,
                "isReverted": false,
                "order": 1,
                "to": "0x199d803e22e4d64b23da9f273684a29fd76f7bbf",
                "token": "0xdc9ac3c20d1ed0b540df9b1fedc10039df13f99c"
            }
        ],
        "token_infos": [
            {
                "address": "0xc02aaa39b223fe8d0a0e5c4f27ead9083c756cc2",
                "decimals": 18
            },
            {
                "address": "0xdc9ac3c20d1ed0b540df9b1fedc10039df13f99c",
                "decimals": 18
            },
            {
                "address": "0xeeeeeeeeeeeeeeeeeeeeeeeeeeeeeeeeeeeeeeee",
                "decimals": 18
            }
        ]
    },
    "address_label": {
        "labels": [
            {
                "address": "0x199d803e22e4d64b23da9f273684a29fd76f7bbf",
                "label": "BINANCE"
            },
            {
                "address": "0x0000000000000000000000000000000000000001",
                "label": "Precompiled"
            },
            {
                "address": "0x0000000000000000000000000000000000000002",
                "label": "Precompiled"
            },
            {
                "address": "0x0000000000000000000000000000000000000003",
                "label": "Precompiled"
            },
            {
                "address": "0x0000000000000000000000000000000000000004",
                "label": "Precompiled"
            },
            {
                "address": "0xeeeeeeeeeeeeeeeeeeeeeeeeeeeeeeeeeeeeeeee",
                "label": "Ether"
            },
            {
                "address": "0xdc9ac3c20d1ed0b540df9b1fedc10039df13f99c",
                "label": "UTRUST: UTK Token"
            }
        ]
    },
    "trace": {
        "accountLabels": null,
        "dataMap": {
            "-1": {
                "invocation": {
                    "address": "0xba96d535fceb53cf05412bd1b3f568a4cf99ff7b",
                    "callData": "",
                    "decodedMethod": null,
                    "errorInfo": "",
                    "fromAddress": "",
                    "gasUsed": 0,
                    "id": -1,
                    "methodDecoded": false,
                    "operation": "",
                    "output": "",
                    "revert": false,
                    "revertMessage": "",
                    "selector": "",
                    "status": false,
                    "value": ""
                },
                "nodeType": 0
            },
            "0": {
                "invocation": {
                    "address": "0xdc9ac3c20d1ed0b540df9b1fedc10039df13f99c",
                    "callData": "0x000000000000000000000000199d803e22e4d64b23da9f273684a29fd76f7bbf000000000000000000000000000000000000000000000018ca5bdc7ebde6e1b9",
                    "decodedMethod": {
                        "callParams": [
                            {
                                "name": "recipient",
                                "type": "address",
                                "value": "0x199d803e22e4d64b23da9f273684a29fd76f7bbf"
                            },
                            {
                                "decimalAvailable": true,
                                "name": "amount",
                                "type": "uint256",
                                "value": "457,303,348,424,481,366,457"
                            }
                        ],
                        "constructorArguments": "",
                        "name": "transfer",
                        "returnParams": [
                            {
                                "name": "",
                                "type": "bool",
                                "value": true
                            }
                        ],
                        "signature": "transfer(address,uint256)"
                    },
                    "errorInfo": "",
                    "fromAddress": "0xba96d535fceb53cf05412bd1b3f568a4cf99ff7b",
                    "gasUsed": 37355,
                    "id": 0,
                    "methodDecoded": true,
                    "operation": "CALL",
                    "output": "0x0000000000000000000000000000000000000000000000000000000000000001",
                    "revert": false,
                    "revertMessage": "",
                    "selector": "0xa9059cbb",
                    "status": true,
                    "value": "0"
                },
                "nodeType": 0
            },
            "1": {
                "event": {
                    "contract": "0xdc9ac3c20d1ed0b540df9b1fedc10039df13f99c",
                    "decodedLog": {
                        "name": "Transfer",
                        "params": [
                            {
                                "name": "from",
                                "type": "address",
                                "value": "0xba96d535fceb53cf05412bd1b3f568a4cf99ff7b"
                            },
                            {
                                "name": "to",
                                "type": "address",
                                "value": "0x199d803e22e4d64b23da9f273684a29fd76f7bbf"
                            },
                            {
                                "decimalAvailable": true,
                                "name": "value",
                                "type": "uint256",
                                "value": "457,303,348,424,481,366,457"
                            }
                        ],
                        "signature": "Transfer(address,address,uint256)"
                    },
                    "id": 1,
                    "logData": "0x000000000000000000000000000000000000000000000018ca5bdc7ebde6e1b9",
                    "logDecoded": true,
                    "operation": "EVENT",
                    "revert": false,
                    "status": true,
                    "topics": [
                        "0xddf252ad1be2c89b69c2b068fc378daa952ba7f163c4a11628f55a4df523b3ef",
                        "0x000000000000000000000000ba96d535fceb53cf05412bd1b3f568a4cf99ff7b",
                        "0x000000000000000000000000199d803e22e4d64b23da9f273684a29fd76f7bbf"
                    ]
                },
                "nodeType": 1
            }
        },
        "gasFlame": [
            {
                "children": [
                    {
                        "children": [
                            {
                                "children": [],
                                "depth": 0,
                                "name": "Initial Gas",
                                "value": 21668
                            },
                            {
                                "children": [],
                                "depth": 0,
                                "name": "Executed Gas",
                                "value": 30687
                            }
                        ],
                        "depth": -1,
                        "name": "Actual Gas Used",
                        "value": 37355
                    },
                    {
                        "children": [],
                        "depth": -1,
                        "name": "Refunded Gas",
                        "value": 15000
                    }
                ],
                "depth": -2,
                "name": "Total Gas",
                "value": 52355
            }
        ],
        "isConfirmed": true,
        "mainTrace": [
            {
                "children": [
                    {
                        "children": [
                            {
                                "children": [],
                                "depth": 1,
                                "id": 1,
                                "order": 1
                            }
                        ],
                        "depth": 0,
                        "id": 0,
                        "order": 0
                    }
                ],
                "depth": -1,
                "id": -1,
                "order": -1
            }
        ],
        "mainTraceNodeCount": 2,
        "parentIdMap": {
            "0": -1,
            "1": 0
        },
        "tidyTrace": [
            {
                "children": [
                    {
                        "children": [
                            {
                                "children": [],
                                "depth": 1,
                                "id": 1,
                                "order": 1
                            }
                        ],
                        "depth": 0,
                        "id": 0,
                        "order": 0
                    }
                ],
                "depth": -1,
                "id": -1,
                "order": -1
            }
        ],
        "tidyTraceNodeCount": 2
    },
    "state_change": {
        "stateChanges": [
            {
                "address": "0xdc9ac3c20d1ed0b540df9b1fedc10039df13f99c",
                "erc": "ERC-20",
                "slots": [
                    {
                        "current": "0x0000000000000000000000000000000000000000000000000000000000000000",
                        "key": "0x0eb4a2bf2778309b1ef39d3ba3d2e04afb6239ebc4f8a702296cec7204fc57a1",
                        "prev": "0x000000000000000000000000000000000000000000000018ca5bdc7ebde6e1b9"
                    },
                    {
                        "current": "0x000000000000000000000000000000000000000000000018ca5bdc7ebde6e1b9",
                        "key": "0x467dd8005c85f48d8676f9518aa5737d34ea9d3c612d06c9205f620578af6298",
                        "prev": "0x0000000000000000000000000000000000000000000000000000000000000000"
                    }
                ],
                "storageVariables": [
                    {
                        "name": "_balances",
                        "type": "mapping(address => uint256)",
                        "value": {
                            "pairs": [
                                {
                                    "key": "0x199d803e22e4d64b23da9f273684a29fd76f7bbf",
                                    "value": {
                                        "current": "457303348424481366457",
                                        "prev": "0",
                                        "typeTag": 1
                                    }
                                },
                                {
                                    "key": "0xba96d535fceb53cf05412bd1b3f568a4cf99ff7b",
                                    "value": {
                                        "current": "0",
                                        "prev": "457303348424481366457",
                                        "typeTag": 1
                                    }
                                }
                            ],
                            "typeTag": 4
                        }
                    }
                ]
            }
        ]
    }
}