{
    "balance_change": {
        "balanceChanges": [
            {
                "account": "0xefacb3fb194d5e80e569b3ac50669cf22e48f63b",
                "assets": [
                    {
                        "address": "0x88acdd2a6425c3faae4bc9650fd7e27e0bebb7ab",
                        "amount": "700",
                        "iconUrl": "",
                        "isERC1155": false,
                        "isERC721": false,
                        "sign": false,
                        "value": "7525.560501"
                    }
                ]
            },
            {
                "account": "0xb5917a48a99c1f8c76119a5133fde1169ec11170",
                "assets": [
                    {
                        "address": "0x88acdd2a6425c3faae4bc9650fd7e27e0bebb7ab",
                        "amount": "700",
                        "iconUrl": "",
                        "isERC1155": false,
                        "isERC721": false,
                        "sign": true,
                        "value": "7525.560501"
                    }
                ]
            }
        ]
    },
    "profile": {
        "basic_info": {
            "baseFee": "",
            "blockNumber": 11977003,
            "callData": "0xa9059cbb000000000000000000000000b5917a48a99c1f8c76119a5133fde1169ec11170000000000000000000000000000000000000000000000025f273933db5700000",
            "debugEnable": true,
            "errorInfo": "",
            "eventCount": 1,
            "feeRecipient": "0x5a0b54d5dc17e0aadc383d2db43b0a0d3e029c4c",
            "formatValue": "0",
            "gasLimit": 68229,
            "gasPrice": "113",
            "gasUsed": 30486,
            "intTxnCount": 0,
            "internalRevert": false,
            "internalRevertMessage": "",
            "isContractCreation": false,
            "isFlashloan": false,
            "maxFee": "",
            "nonce": 4217,
            "overwritedBlockNumber": -1,
            "priorityFee": "",
            "receiver": "0x88acdd2a6425c3faae4bc9650fd7e27e0bebb7ab",
            "revertMessage": "",
            "sender": "0xefacb3fb194d5e80e569b3ac50669cf22e48f63b",
            "simulationEnable": true,
            "sourceTxnHash": "0x7ccaa7e13f39e061e2ef168b842d4b2cb7425367f877b3a551e7dcebb8b8dfd0",
            "status": true,
            "timestamp": "2021-03-05T07:36:02Z",
            "transactionFee": "0.003444918",
            "txnHash": "0x7ccaa7e13f39e061e2ef168b842d4b2cb7425367f877b3a551e7dcebb8b8dfd0",
            "txnIndex": 201,
            "type": 0,
            "value": "0"
        },
        "fund_flow": [
            {
                "amount": "700",
                "from": "0xefacb3fb194d5e80e569b3ac50669cf22e48f63b",
                "id": 1,
                "isERC1155": false,
                "isERC721": false,
                "isReverted": false,
                "order": 1,
                "to": "0xb5917a48a99c1f8c76119a5133fde1169ec11170",
                "token": "0x88acdd2a6425c3faae4bc9650fd7e27e0bebb7ab"
            }
        ],
        "token_infos": [
            {
                "address": "0xeeeeeeeeeeeeeeeeeeeeeeeeeeeeeeeeeeeeeeee",
                "decimals": 18
            },
            {
                "address": "0x88acdd2a6425c3faae4bc9650fd7e27e0bebb7ab",
                "decimals": 18
            },
            {
                "address": "0xc02aaa39b223fe8d0a0e5c4f27ead9083c756cc2",
                "decimals": 18
            }
        ]
    },
    "address_label": {
        "labels": [
            {
                "address": "0x0000000000000000000000000000000000000004",
                "label": "Precompiled"
            },
            {
                "address": "0xeeeeeeeeeeeeeeeeeeeeeeeeeeeeeeeeeeeeeeee",
                "label": "Ether"
            },
            {
                "address": "0x88acdd2a6425c3faae4bc9650fd7e27e0bebb7ab",
                "label": "Alchemist Coin: MIST Token"
            },
            {
                "address": "0x0000000000000000000000000000000000000001",
                "label": "Precompiled"
            },
            {
                "address": "0x0000000000000000000000000000000000000002",
                "label": "Precompiled"
            },
            {
                "address": "0x0000000000000000000000000000000000000003",
                "label": "Precompiled"
            }
        ]
    },
    "trace": {
        "accountLabels": null,
        "dataMap": {
            "-1": {
                "invocation": {
                    "address": "0xefacb3fb194d5e80e569b3ac50669cf22e48f63b",
                    "callData": "",
                    "decodedMethod": null,
                    "errorInfo": "",
                    "fromAddress": "",
                    "gasUsed": 0,
                    "id": -1,
                    "methodDecoded": false,
                    "operation": "",
                    "output": "",
                    "revert": false,
                    "revertMessage": "",
                    "selector": "",
                    "status": false,
                    "value": ""
                },
                "nodeType": 0
            },
            "0": {
                "invocation": {
                    "address": "0x88acdd2a6425c3faae4bc9650fd7e27e0bebb7ab",
                    "callData": "0x000000000000000000000000b5917a48a99c1f8c76119a5133fde1169ec11170000000000000000000000000000000000000000000000025f273933db5700000",
                    "decodedMethod": {
                        "callParams": [
                            {
                                "name": "recipient",
                                "type": "address",
                                "value": "0xb5917a48a99c1f8c76119a5133fde1169ec11170"
                            },
                            {
                                "decimalAvailable": true,
                                "name": "amount",
                                "type": "uint256",
                                "value": "700,000,000,000,000,000,000"
                            }
                        ],
                        "constructorArguments": "",
                        "name": "transfer",
                        "returnParams": [
                            {
                                "name": "",
                                "type": "bool",
                                "value": true
                            }
                        ],
                        "signature": "transfer(address,uint256)"
                    },
                    "errorInfo": "",
                    "fromAddress": "0xefacb3fb194d5e80e569b3ac50669cf22e48f63b",
                    "gasUsed": 30486,
                    "id": 0,
                    "methodDecoded": true,
                    "operation": "CALL",
                    "output": "0x0000000000000000000000000000000000000000000000000000000000000001",
                    "revert": false,
                    "revertMessage": "",
                    "selector": "0xa9059cbb",
                    "status": true,
                    "value": "0"
                },
                "nodeType": 0
            },
            "1": {
                "event": {
                    "contract": "0x88acdd2a6425c3faae4bc9650fd7e27e0bebb7ab",
                    "decodedLog": {
                        "name": "Transfer",
                        "params": [
                            {
                                "name": "from",
                                "type": "address",
                                "value": "0xefacb3fb194d5e80e569b3ac50669cf22e48f63b"
                            },
                            {
                                "name": "to",
                                "type": "address",
                                "value": "0xb5917a48a99c1f8c76119a5133fde1169ec11170"
                            },
                            {
                                "decimalAvailable": true,
                                "name": "value",
                                "type": "uint256",
                                "value": "700,000,000,000,000,000,000"
                            }
                        ],
                        "signature": "Transfer(address,address,uint256)"
                    },
                    "id": 1,
                    "logData": "0x000000000000000000000000000000000000000000000025f273933db5700000",
                    "logDecoded": true,
                    "operation": "EVENT",
                    "revert": false,
                    "status": true,
                    "topics": [
                        "0xddf252ad1be2c89b69c2b068fc378daa952ba7f163c4a11628f55a4df523b3ef",
                        "0x000000000000000000000000efacb3fb194d5e80e569b3ac50669cf22e48f63b",
                        "0x000000000000000000000000b5917a48a99c1f8c76119a5133fde1169ec11170"
                    ]
                },
                "nodeType": 1
            }
        },
        "gasFlame": [
            {
                "children": [
                    {
                        "children": [
                            {
                                "children": [],
                                "depth": 0,
                                "name": "Initial Gas",
                                "value": 21644
                            },
                            {
                                "children": [],
                                "depth": 0,
                                "name": "Executed Gas",
                                "value": 23842
                            }
                        ],
                        "depth": -1,
                        "name": "Actual Gas Used",
                        "value": 30486
                    },
                    {
                        "children": [],
                        "depth": -1,
                        "name": "Refunded Gas",
                        "value": 15000
                    }
                ],
                "depth": -2,
                "name": "Total Gas",
                "value": 45486
            }
        ],
        "isConfirmed": true,
        "mainTrace": [
            {
                "children": [
                    {
                        "children": [
                            {
                                "children": [],
                                "depth": 1,
                                "id": 1,
                                "order": 1
                            }
                        ],
                        "depth": 0,
                        "id": 0,
                        "order": 0
                    }
                ],
                "depth": -1,
                "id": -1,
                "order": -1
            }
        ],
        "mainTraceNodeCount": 2,
        "parentIdMap": {
            "0": -1,
            "1": 0
        },
        "tidyTrace": [
            {
                "children": [
                    {
                        "children": [
                            {
                                "children": [],
                                "depth": 1,
                                "id": 1,
                                "order": 1
                            }
                        ],
                        "depth": 0,
                        "id": 0,
                        "order": 0
                    }
                ],
                "depth": -1,
                "id": -1,
                "order": -1
            }
        ],
        "tidyTraceNodeCount": 2
    },
    "state_change": {
        "stateChanges": [
            {
                "address": "0x88acdd2a6425c3faae4bc9650fd7e27e0bebb7ab",
                "erc": "ERC-20",
                "slots": [
                    {
                        "current": "0x0000000000000000000000000000000000000000000000000000000000000000",
                        "key": "0x4f962dd0f1b23727a3d9feb5a1d22f6497a14f55d0c29fe47dab01c6488f7243",
                        "prev": "0x000000000000000000000000000000000000000000000025f273933db5700000"
                    },
                    {
                        "current": "0x00000000000000000000000000000000000000000000004be4e7267b6ae00000",
                        "key": "0x720e311c6fb619251780f5d12e1a788ae72f54f6f75e2219625a559af925952e",
                        "prev": "0x000000000000000000000000000000000000000000000025f273933db5700000"
                    }
                ],
                "storageVariables": [
                    {
                        "name": "_balances",
                        "type": "mapping(address => uint256)",
                        "value": {
                            "pairs": [
                                {
                                    "key": "0xb5917a48a99c1f8c76119a5133fde1169ec11170",
                                    "value": {
                                        "current": "1400000000000000000000",
                                        "prev": "700000000000000000000",
                                        "typeTag": 1
                                    }
                                },
                                {
                                    "key": "0xefacb3fb194d5e80e569b3ac50669cf22e48f63b",
                                    "value": {
                                        "current": "0",
                                        "prev": "700000000000000000000",
                                        "typeTag": 1
                                    }
                                }
                            ],
                            "typeTag": 4
                        }
                    }
                ]
            }
        ]
    }
}