{
    "balance_change": {
        "balanceChanges": [
            {
                "account": "0x3721fe0bdbb427b07a8d41b4d8b1f82ce118c53b",
                "assets": [
                    {
                        "address": "0xac08809df1048b82959d6251fbc9538920bed1fa",
                        "amount": "50,000",
                        "iconUrl": "",
                        "isERC1155": false,
                        "isERC721": false,
                        "sign": false,
                        "value": ""
                    }
                ]
            },
            {
                "account": "0x9f9e3869a1ee5ec091599f611391128bcbd6ad21",
                "assets": [
                    {
                        "address": "0xac08809df1048b82959d6251fbc9538920bed1fa",
                        "amount": "50,000",
                        "iconUrl": "",
                        "isERC1155": false,
                        "isERC721": false,
                        "sign": true,
                        "value": ""
                    }
                ]
            }
        ]
    },
    "profile": {
        "basic_info": {
            "baseFee": "",
            "blockNumber": 9715641,
            "callData": "0xa9059cbb0000000000000000000000009f9e3869a1ee5ec091599f611391128bcbd6ad210000000000000000000000000000000000000000000000000000048c27395000",
            "debugEnable": true,
            "errorInfo": "",
            "eventCount": 1,
            "feeRecipient": "0x005e288d713a5fb3d7c9cf1b43810a98688c7223",
            "formatValue": "0",
            "gasLimit": 80000,
            "gasPrice": "10",
            "gasUsed": 40842,
            "intTxnCount": 0,
            "internalRevert": false,
            "internalRevertMessage": "",
            "isContractCreation": false,
            "isFlashloan": false,
            "maxFee": "",
            "nonce": 1,
            "overwritedBlockNumber": -1,
            "priorityFee": "",
            "receiver": "0xac08809df1048b82959d6251fbc9538920bed1fa",
            "revertMessage": "",
            "sender": "0x3721fe0bdbb427b07a8d41b4d8b1f82ce118c53b",
            "simulationEnable": true,
            "sourceTxnHash": "0x7c57e2f79a5fc791cc5a27c0d68f9ac4c15fea3729ba700bb810278e0e5875f6",
            "status": true,
            "timestamp": "2020-03-21T14:55:22Z",
            "transactionFee": "0.00040842",
            "txnHash": "0x7c57e2f79a5fc791cc5a27c0d68f9ac4c15fea3729ba700bb810278e0e5875f6",
            "txnIndex": 53,
            "type": 0,
            "value": "0"
        },
        "fund_flow": [
            {
                "amount": "50,000",
                "from": "0x3721fe0bdbb427b07a8d41b4d8b1f82ce118c53b",
                "id": 1,
                "isERC1155": false,
                "isERC721": false,
                "isReverted": false,
                "order": 1,
                "to": "0x9f9e3869a1ee5ec091599f611391128bcbd6ad21",
                "token": "0xac08809df1048b82959d6251fbc9538920bed1fa"
            }
        ],
        "token_infos": [
            {
                "address": "0xac08809df1048b82959d6251fbc9538920bed1fa",
                "decimals": 8
            },
            {
                "address": "0xc02aaa39b223fe8d0a0e5c4f27ead9083c756cc2",
                "decimals": 18
            },
            {
                "address": "0xeeeeeeeeeeeeeeeeeeeeeeeeeeeeeeeeeeeeeeee",
                "decimals": 18
            }
        ]
    },
    "address_label": {
        "labels": [
            {
                "address": "0xeeeeeeeeeeeeeeeeeeeeeeeeeeeeeeeeeeeeeeee",
                "label": "Ether"
            },
            {
                "address": "0xac08809df1048b82959d6251fbc9538920bed1fa",
                "label": "Fake_Phishing233575"
            },
            {
                "address": "0x0000000000000000000000000000000000000001",
                "label": "Precompiled"
            },
            {
                "address": "0x0000000000000000000000000000000000000002",
                "label": "Precompiled"
            },
            {
                "address": "0x0000000000000000000000000000000000000003",
                "label": "Precompiled"
            },
            {
                "address": "0x0000000000000000000000000000000000000004",
                "label": "Precompiled"
            }
        ]
    },
    "trace": {
        "accountLabels": null,
        "dataMap": {
            "-1": {
                "invocation": {
                    "address": "0x3721fe0bdbb427b07a8d41b4d8b1f82ce118c53b",
                    "callData": "",
                    "decodedMethod": null,
                    "errorInfo": "",
                    "fromAddress": "",
                    "gasUsed": 0,
                    "id": -1,
                    "methodDecoded": false,
                    "operation": "",
                    "output": "",
                    "revert": false,
                    "revertMessage": "",
                    "selector": "",
                    "status": false,
                    "value": ""
                },
                "nodeType": 0
            },
            "0": {
                "invocation": {
                    "address": "0xac08809df1048b82959d6251fbc9538920bed1fa",
                    "callData": "0x0000000000000000000000009f9e3869a1ee5ec091599f611391128bcbd6ad210000000000000000000000000000000000000000000000000000048c27395000",
                    "decodedMethod": {
                        "callParams": [
                            {
                                "name": "_to",
                                "type": "address",
                                "value": "0x9f9e3869a1ee5ec091599f611391128bcbd6ad21"
                            },
                            {
                                "decimalAvailable": true,
                                "name": "_value",
                                "type": "uint256",
                                "value": "5,000,000,000,000"
                            }
                        ],
                        "constructorArguments": "",
                        "name": "transfer",
                        "returnParams": [],
                        "signature": "transfer(address,uint256)"
                    },
                    "errorInfo": "",
                    "fromAddress": "0x3721fe0bdbb427b07a8d41b4d8b1f82ce118c53b",
                    "gasUsed": 40842,
                    "id": 0,
                    "methodDecoded": true,
                    "operation": "CALL",
                    "output": "",
                    "revert": false,
                    "revertMessage": "",
                    "selector": "0xa9059cbb",
                    "status": true,
                    "value": "0"
                },
                "nodeType": 0
            },
            "1": {
                "event": {
                    "contract": "0xac08809df1048b82959d6251fbc9538920bed1fa",
                    "decodedLog": {
                        "name": "Transfer",
                        "params": [
                            {
                                "name": "from",
                                "type": "address",
                                "value": "0x3721fe0bdbb427b07a8d41b4d8b1f82ce118c53b"
                            },
                            {
                                "name": "to",
                                "type": "address",
                                "value": "0x9f9e3869a1ee5ec091599f611391128bcbd6ad21"
                            },
                            {
                                "decimalAvailable": true,
                                "name": "value",
                                "type": "uint256",
                                "value": "5,000,000,000,000"
                            }
                        ],
                        "signature": "Transfer(address,address,uint256)"
                    },
                    "id": 1,
                    "logData": "0x0000000000000000000000000000000000000000000000000000048c27395000",
                    "logDecoded": true,
                    "operation": "EVENT",
                    "revert": false,
                    "status": true,
                    "topics": [
                        "0xddf252ad1be2c89b69c2b068fc378daa952ba7f163c4a11628f55a4df523b3ef",
                        "0x0000000000000000000000003721fe0bdbb427b07a8d41b4d8b1f82ce118c53b",
                        "0x0000000000000000000000009f9e3869a1ee5ec091599f611391128bcbd6ad21"
                    ]
                },
                "nodeType": 1
            }
        },
        "gasFlame": [
            {
                "children": [
                    {
                        "children": [
                            {
                                "children": [],
                                "depth": 0,
                                "name": "Initial Gas",
                                "value": 21620
                            },
                            {
                                "children": [],
                                "depth": 0,
                                "name": "Executed Gas",
                                "value": 19222
                            }
                        ],
                        "depth": -1,
                        "name": "Actual Gas Used",
                        "value": 40842
                    },
                    {
                        "children": [],
                        "depth": -1,
                        "name": "Refunded Gas",
                        "value": 0
                    }
                ],
                "depth": -2,
                "name": "Total Gas",
                "value": 40842
            }
        ],
        "isConfirmed": true,
        "mainTrace": [
            {
                "children": [
                    {
                        "children": [
                            {
                                "children": [],
                                "depth": 1,
                                "id": 1,
                                "order": 1
                            }
                        ],
                        "depth": 0,
                        "id": 0,
                        "order": 0
                    }
                ],
                "depth": -1,
                "id": -1,
                "order": -1
            }
        ],
        "mainTraceNodeCount": 2,
        "parentIdMap": {
            "0": -1,
            "1": 0
        },
        "tidyTrace": [
            {
                "children": [
                    {
                        "children": [
                            {
                                "children": [],
                                "depth": 1,
                                "id": 1,
                                "order": 1
                            }
                        ],
                        "depth": 0,
                        "id": 0,
                        "order": 0
                    }
                ],
                "depth": -1,
                "id": -1,
                "order": -1
            }
        ],
        "tidyTraceNodeCount": 2
    },
    "state_change": {
        "stateChanges": [
            {
                "address": "0xac08809df1048b82959d6251fbc9538920bed1fa",
                "erc": "ERC-20",
                "slots": [
                    {
                        "current": "0x00000000000000000000000000000000000000000000000000005af312440380",
                        "key": "0xfdb75153f983517e230255b57d925ba6fbc047bd5fa57c9f5845d23b7644a93a",
                        "prev": "0x00000000000000000000000000000000000000000000000000005f7f397d5380"
                    },
                    {
                        "current": "0x00000000000000000000000000000000000000000000000008dcf3e7ec9e5d41",
                        "key": "0xf06c638cc6ffdb8d0037552001d4da8225a6972b18d47c58115d6ddeb0ade77c",
                        "prev": "0x00000000000000000000000000000000000000000000000008dcef5bc5650d41"
                    }
                ],
                "storageVariables": [
                    {
                        "name": "balances",
                        "type": "mapping(address => uint256)",
                        "value": {
                            "pairs": [
                                {
                                    "key": "0x3721fe0bdbb427b07a8d41b4d8b1f82ce118c53b",
                                    "value": {
                                        "current": "100000030000000",
                                        "prev": "105000030000000",
                                        "typeTag": 1
                                    }
                                },
                                {
                                    "key": "0x9f9e3869a1ee5ec091599f611391128bcbd6ad21",
                                    "value": {
                                        "current": "638653424612564289",
                                        "prev": "638648424612564289",
                                        "typeTag": 1
                                    }
                                }
                            ],
                            "typeTag": 4
                        }
                    }
                ]
            }
        ]
    }
}