{
    "balance_change": {
        "balanceChanges": [
            {
                "account": "0x1aae8146c19111751a5162e612374d2f754cba5a",
                "assets": [
                    {
                        "address": "0x31adda225642a8f4d7e90d4152be6661ab22a5a2",
                        "amount": "40,857.542376955892023043",
                        "iconUrl": "",
                        "isERC1155": false,
                        "isERC721": false,
                        "sign": false,
                        "value": "1534.480416"
                    }
                ]
            },
            {
                "account": "0x14ac914553c69caf1b21b2f2467a5c8574059079",
                "assets": [
                    {
                        "address": "0x31adda225642a8f4d7e90d4152be6661ab22a5a2",
                        "amount": "40,857.542376955892023043",
                        "iconUrl": "",
                        "isERC1155": false,
                        "isERC721": false,
                        "sign": true,
                        "value": "1534.480416"
                    }
                ]
            }
        ]
    },
    "profile": {
        "basic_info": {
            "baseFee": "57.311356898",
            "blockNumber": 18579540,
            "callData": "0xa9059cbb00000000000000000000000014ac914553c69caf1b21b2f2467a5c85740590790000000000000000000000000000000000000000000008a6e44daf4de5113f03",
            "debugEnable": true,
            "errorInfo": "",
            "eventCount": 1,
            "feeRecipient": "0x95222290dd7278aa3ddd389cc1e1d165cc4bafe5",
            "formatValue": "0",
            "gasLimit": 69466,
            "gasPrice": "57.411356898",
            "gasUsed": 41279,
            "intTxnCount": 1,
            "internalRevert": false,
            "internalRevertMessage": "",
            "isContractCreation": false,
            "isFlashloan": false,
            "maxFee": "73.015710976",
            "nonce": 2217,
            "overwritedBlockNumber": -1,
            "priorityFee": "0.1",
            "receiver": "0x31adda225642a8f4d7e90d4152be6661ab22a5a2",
            "revertMessage": "",
            "sender": "0x1aae8146c19111751a5162e612374d2f754cba5a",
            "simulationEnable": true,
            "sourceTxnHash": "0x7c62387f562afbb26d27f97c0f2ab8ce0f1bd7bc57e66e04dffa83bb140ea9a1",
            "status": true,
            "timestamp": "2023-11-15T20:02:23Z",
            "transactionFee": "0.002369883401392542",
            "txnHash": "0x7c62387f562afbb26d27f97c0f2ab8ce0f1bd7bc57e66e04dffa83bb140ea9a1",
            "txnIndex": 101,
            "type": 2,
            "value": "0"
        },
        "fund_flow": [
            {
                "amount": "40,857.542376955892023043",
                "from": "0x1aae8146c19111751a5162e612374d2f754cba5a",
                "id": 1,
                "isERC1155": false,
                "isERC721": false,
                "isReverted": false,
                "order": 1,
                "to": "0x14ac914553c69caf1b21b2f2467a5c8574059079",
                "token": "0x31adda225642a8f4d7e90d4152be6661ab22a5a2"
            }
        ],
        "token_infos": [
            {
                "address": "0xc02aaa39b223fe8d0a0e5c4f27ead9083c756cc2",
                "decimals": 18
            },
            {
                "address": "0xeeeeeeeeeeeeeeeeeeeeeeeeeeeeeeeeeeeeeeee",
                "decimals": 18
            },
            {
                "address": "0x31adda225642a8f4d7e90d4152be6661ab22a5a2",
                "decimals": 18
            }
        ]
    },
    "address_label": {
        "labels": [
            {
                "address": "0x0000000000000000000000000000000000000002",
                "label": "Precompiled"
            },
            {
                "address": "0x0000000000000000000000000000000000000003",
                "label": "Precompiled"
            },
            {
                "address": "0x0000000000000000000000000000000000000004",
                "label": "Precompiled"
            },
            {
                "address": "0xeeeeeeeeeeeeeeeeeeeeeeeeeeeeeeeeeeeeeeee",
                "label": "Ether"
            },
            {
                "address": "0x31adda225642a8f4d7e90d4152be6661ab22a5a2",
                "label": "Hypr Network: HYPR Token"
            },
            {
                "address": "0xbb87d48195db829ae2fa4184239b2e4d3919b769",
                "label": "HyprTokenL1"
            },
            {
                "address": "0x0000000000000000000000000000000000000001",
                "label": "Precompiled"
            }
        ]
    },
    "trace": {
        "accountLabels": null,
        "dataMap": {
            "-1": {
                "invocation": {
                    "address": "0x1aae8146c19111751a5162e612374d2f754cba5a",
                    "callData": "",
                    "decodedMethod": null,
                    "errorInfo": "",
                    "fromAddress": "",
                    "gasUsed": 0,
                    "id": -1,
                    "methodDecoded": false,
                    "operation": "",
                    "output": "",
                    "revert": false,
                    "revertMessage": "",
                    "selector": "",
                    "status": false,
                    "value": ""
                },
                "nodeType": 0
            },
            "0": {
                "invocation": {
                    "address": "0x31adda225642a8f4d7e90d4152be6661ab22a5a2",
                    "callData": "0x00000000000000000000000014ac914553c69caf1b21b2f2467a5c85740590790000000000000000000000000000000000000000000008a6e44daf4de5113f03",
                    "decodedMethod": {
                        "callParams": [
                            {
                                "name": "to",
                                "type": "address",
                                "value": "0x14ac914553c69caf1b21b2f2467a5c8574059079"
                            },
                            {
                                "decimalAvailable": true,
                                "name": "amount",
                                "type": "uint256",
                                "value": "40,857,542,376,955,892,023,043"
                            }
                        ],
                        "constructorArguments": "",
                        "name": "transfer",
                        "returnParams": [
                            {
                                "name": "",
                                "type": "bool",
                                "value": true
                            }
                        ],
                        "signature": "transfer(address,uint256)"
                    },
                    "errorInfo": "",
                    "fromAddress": "0x1aae8146c19111751a5162e612374d2f754cba5a",
                    "gasUsed": 41279,
                    "id": 0,
                    "methodDecoded": true,
                    "operation": "CALL",
                    "output": "0x0000000000000000000000000000000000000000000000000000000000000001",
                    "revert": false,
                    "revertMessage": "",
                    "selector": "0xa9059cbb",
                    "status": true,
                    "value": "0"
                },
                "nodeType": 0
            },
            "1": {
                "invocation": {
                    "address": "0xbb87d48195db829ae2fa4184239b2e4d3919b769",
                    "callData": "0x00000000000000000000000014ac914553c69caf1b21b2f2467a5c85740590790000000000000000000000000000000000000000000008a6e44daf4de5113f03",
                    "decodedMethod": {
                        "callParams": [
                            {
                                "name": "to",
                                "type": "address",
                                "value": "0x14ac914553c69caf1b21b2f2467a5c8574059079"
                            },
                            {
                                "decimalAvailable": true,
                                "name": "amount",
                                "type": "uint256",
                                "value": "40,857,542,376,955,892,023,043"
                            }
                        ],
                        "constructorArguments": "",
                        "name": "transfer",
                        "returnParams": [
                            {
                                "name": "",
                                "type": "bool",
                                "value": true
                            }
                        ],
                        "signature": "transfer(address,uint256)"
                    },
                    "errorInfo": "",
                    "fromAddress": "0x31adda225642a8f4d7e90d4152be6661ab22a5a2",
                    "gasUsed": 17236,
                    "id": 1,
                    "methodDecoded": true,
                    "operation": "DELEGATECALL",
                    "output": "0x0000000000000000000000000000000000000000000000000000000000000001",
                    "revert": false,
                    "revertMessage": "",
                    "selector": "0xa9059cbb",
                    "status": true,
                    "value": "0"
                },
                "nodeType": 0
            },
            "2": {
                "event": {
                    "contract": "0x31adda225642a8f4d7e90d4152be6661ab22a5a2",
                    "decodedLog": {
                        "name": "Transfer",
                        "params": [
                            {
                                "name": "from",
                                "type": "address",
                                "value": "0x1aae8146c19111751a5162e612374d2f754cba5a"
                            },
                            {
                                "name": "to",
                                "type": "address",
                                "value": "0x14ac914553c69caf1b21b2f2467a5c8574059079"
                            },
                            {
                                "decimalAvailable": true,
                                "name": "value",
                                "type": "uint256",
                                "value": "40,857,542,376,955,892,023,043"
                            }
                        ],
                        "signature": "Transfer(address,address,uint256)"
                    },
                    "id": 2,
                    "logData": "0x0000000000000000000000000000000000000000000008a6e44daf4de5113f03",
                    "logDecoded": true,
                    "operation": "EVENT",
                    "revert": false,
                    "status": true,
                    "topics": [
                        "0xddf252ad1be2c89b69c2b068fc378daa952ba7f163c4a11628f55a4df523b3ef",
                        "0x0000000000000000000000001aae8146c19111751a5162e612374d2f754cba5a",
                        "0x00000000000000000000000014ac914553c69caf1b21b2f2467a5c8574059079"
                    ]
                },
                "nodeType": 1
            }
        },
        "gasFlame": [
            {
                "children": [
                    {
                        "children": [
                            {
                                "children": [],
                                "depth": 0,
                                "name": "Initial Gas",
                                "value": 21680
                            },
                            {
                                "children": [
                                    {
                                        "children": [],
                                        "depth": 1,
                                        "name": "transfer",
                                        "value": 17236
                                    }
                                ],
                                "depth": 0,
                                "name": "Executed Gas",
                                "value": 24399
                            }
                        ],
                        "depth": -1,
                        "name": "Actual Gas Used",
                        "value": 41279
                    },
                    {
                        "children": [],
                        "depth": -1,
                        "name": "Refunded Gas",
                        "value": 4800
                    }
                ],
                "depth": -2,
                "name": "Total Gas",
                "value": 46079
            }
        ],
        "isConfirmed": true,
        "mainTrace": [
            {
                "children": [
                    {
                        "children": [
                            {
                                "children": [
                                    {
                                        "children": [],
                                        "depth": 2,
                                        "id": 2,
                                        "order": 2
                                    }
                                ],
                                "depth": 1,
                                "id": 1,
                                "order": 1
                            }
                        ],
                        "depth": 0,
                        "id": 0,
                        "order": 0
                    }
                ],
                "depth": -1,
                "id": -1,
                "order": -1
            }
        ],
        "mainTraceNodeCount": 3,
        "parentIdMap": {
            "0": -1,
            "1": 0,
            "2": 1
        },
        "tidyTrace": [
            {
                "children": [
                    {
                        "children": [
                            {
                                "children": [
                                    {
                                        "children": [],
                                        "depth": 2,
                                        "id": 2,
                                        "order": 2
                                    }
                                ],
                                "depth": 1,
                                "id": 1,
                                "order": 1
                            }
                        ],
                        "depth": 0,
                        "id": 0,
                        "order": 0
                    }
                ],
                "depth": -1,
                "id": -1,
                "order": -1
            }
        ],
        "tidyTraceNodeCount": 3
    },
    "state_change": {
        "stateChanges": [
            {
                "address": "0x31adda225642a8f4d7e90d4152be6661ab22a5a2",
                "erc": "ERC-20",
                "slots": [
                    {
                        "current": "0x0000000000000000000000000000000000000000000000000000000000000000",
                        "key": "0xf84125c936a57cff30590f077286528945e04c2fee03230a8040854e788222ed",
                        "prev": "0x0000000000000000000000000000000000000000000008a6e44daf4de5113f03"
                    },
                    {
                        "current": "0x00000000000000000000000000000000000000000000399a48d37a8b715c62b5",
                        "key": "0x8a8faad1b3cd87a08d673ff552f674040089130c59c5a76dabf1781aa71d111c",
                        "prev": "0x0000000000000000000000000000000000000000000030f36485cb3d8c4b23b2"
                    }
                ],
                "storageVariables": [
                    {
                        "name": "_balances",
                        "type": "mapping(address => uint256)",
                        "value": {
                            "pairs": [
                                {
                                    "key": "0x14ac914553c69caf1b21b2f2467a5c8574059079",
                                    "value": {
                                        "current": "272020935783651185812149",
                                        "prev": "231163393406695293789106",
                                        "typeTag": 1
                                    }
                                },
                                {
                                    "key": "0x1aae8146c19111751a5162e612374d2f754cba5a",
                                    "value": {
                                        "current": "0",
                                        "prev": "40857542376955892023043",
                                        "typeTag": 1
                                    }
                                }
                            ],
                            "typeTag": 4
                        }
                    }
                ]
            }
        ]
    }
}