{
    "balance_change": {
        "balanceChanges": [
            {
                "account": "0xdd9f24efc84d93deef3c8745c837ab63e80abd27",
                "assets": [
                    {
                        "address": "0x27c70cd1946795b66be9d954418546998b546634",
                        "amount": "0.001238605328938613",
                        "iconUrl": "",
                        "isERC1155": false,
                        "isERC721": false,
                        "sign": true,
                        "value": ""
                    }
                ]
            },
            {
                "account": "0x0d0bd6469be80d57893cf1b21434936dfaa35319",
                "assets": [
                    {
                        "address": "0xa0b86991c6218b36c1d19d4a2e9eb0ce3606eb48",
                        "amount": "4,086.887",
                        "iconUrl": "https://assets.blocksec.com/icon/0347a86cc07dbd03fdc5db01a4e5ac7e1217f90e0b6e4bb0f75cbcca09160989.png",
                        "isERC1155": false,
                        "isERC721": false,
                        "sign": false,
                        "value": ""
                    },
                    {
                        "address": "0x27c70cd1946795b66be9d954418546998b546634",
                        "amount": "0.836434735674970712",
                        "iconUrl": "",
                        "isERC1155": false,
                        "isERC721": false,
                        "sign": true,
                        "value": ""
                    }
                ]
            },
            {
                "account": "0xf4d8c95478d9fb81c3ba863353b19f5484e799ed",
                "assets": [
                    {
                        "address": "0xa0b86991c6218b36c1d19d4a2e9eb0ce3606eb48",
                        "amount": "4,086.887",
                        "iconUrl": "https://assets.blocksec.com/icon/0347a86cc07dbd03fdc5db01a4e5ac7e1217f90e0b6e4bb0f75cbcca09160989.png",
                        "isERC1155": false,
                        "isERC721": false,
                        "sign": true,
                        "value": ""
                    },
                    {
                        "address": "0xc02aaa39b223fe8d0a0e5c4f27ead9083c756cc2",
                        "amount": "1.015302533493749455",
                        "iconUrl": "https://assets.blocksec.com/icon/f1cb2d02c471d545bbc7722daf3277fd852d98e63d118771af7047bd8256c516.png",
                        "isERC1155": false,
                        "isERC721": false,
                        "sign": false,
                        "value": ""
                    }
                ]
            },
            {
                "account": "0x874376be8231dad99aabf9ef0767b3cc054c60ee",
                "assets": [
                    {
                        "address": "0xc02aaa39b223fe8d0a0e5c4f27ead9083c756cc2",
                        "amount": "1.015302533493749455",
                        "iconUrl": "https://assets.blocksec.com/icon/f1cb2d02c471d545bbc7722daf3277fd852d98e63d118771af7047bd8256c516.png",
                        "isERC1155": false,
                        "isERC721": false,
                        "sign": true,
                        "value": ""
                    },
                    {
                        "address": "0x27c70cd1946795b66be9d954418546998b546634",
                        "amount": "0.837673341003909325",
                        "iconUrl": "",
                        "isERC1155": false,
                        "isERC721": false,
                        "sign": false,
                        "value": ""
                    }
                ]
            }
        ]
    },
    "profile": {
        "basic_info": {
            "baseFee": "",
            "blockNumber": 12404331,
            "callData": "0x7c025200000000000000000000000000fd3dfb524b2da40c8a6d703c62be36b5d854062600000000000000000000000000000000000000000000000000000000000000600000000000000000000000000000000000000000000000000000000000000180000000000000000000000000a0b86991c6218b36c1d19d4a2e9eb0ce3606eb4800000000000000000000000027c70cd1946795b66be9d954418546998b546634000000000000000000000000fd3dfb524b2da40c8a6d703c62be36b5d85406260000000000000000000000000d0bd6469be80d57893cf1b21434936dfaa3531900000000000000000000000000000000000000000000000000000000f398f2580000000000000000000000000000000000000000000000000b4276f8bec5f3b60000000000000000000000000000000000000000000000000000000000000004000000000000000000000000000000000000000000000000000000000000010000000000000000000000000000000000000000000000000000000000000000000000000000000000000000000000000000000000000000000000000000000ca00000000000000000000000000000000000000000000000000000000000000020000000000000000000000000000000000000000000000000000000000000000600000000000000000000000000000000000000000000000000000000000000c000000000000000000000000000000000000000000000000000000000000001e00000000000000000000000000000000000000000000000000000000000000340000000000000000000000000000000000000000000000000000000000000058000000000000000000000000000000000000000000000000000000000000006e00000000000000000000000000000000000000000000000000000000000000a0000000000000000000000000000000000000000000000000000000000000000000000000000000000000000000000000000000000000000000000000000000000000000000000000000000000000000000000000000000000000000000000000000000000000000000000000000000000000000000000000000000000000000800000000000000000000000000000000000000000000000000000000000000064eb5625d9000000000000000000000000a0b86991c6218b36c1d19d4a2e9eb0ce3606eb48000000000000000000000000f4d8c95478d9fb81c3ba863353b19f5484e799ed00000000000000000000000000000000000000000000000000000000f398f25800000000000000000000000000000000000000000000000000000000800000000000000000000000f4d8c95478d9fb81c3ba863353b19f5484e799ed00000000000000000000000000000000000000000000000000000000000000000000000000000000000000000000000000000000000000000000000000000000000000000000000000000000000000000000000000000000000000000000008000000000000000000000000000000000000000000000000000000000000000a48201aa3f000000000000000000000000a0b86991c6218b36c1d19d4a2e9eb0ce3606eb4800000000000000000000000000000000000000000000000000000000f398f258000000000000000000000000c02aaa39b223fe8d0a0e5c4f27ead9083c756cc20000000000000000000000000000000000000000000000000000000000000001ffffffffffffffffffffffffffffffffffffffffffffffffffffffffffffffff0000000000000000000000000000000000000000000000000000000080000000000000000000000000000000000000000000000000000000000000000000000000000000000000000000000000000000000000000000000000000000000000000000000000000000000000000000000000000000000000000000000000000000000000000000000000000000000000000000000000000000000000800000000000000000000000000000000000000000000000000000000000000184b3af37c000000000000000000000000000000000000000000000000000000000000000808000000000000000000000000000000000000000000000000000000000000024000000000000000000000000c02aaa39b223fe8d0a0e5c4f27ead9083c756cc20000000000000000000000000000005000000000000000000000000000000050000000000000000000000000c02aaa39b223fe8d0a0e5c4f27ead9083c756cc20000000000000000000000000000000000000000000000000000000000000000000000000000000000000000000000000000000000000000000000000000000000000000000000000000000000000000000000000000000000000000000000800000000000000000000000000000000000000000000000000000000000000044a9059cbb000000000000000000000000874376be8231dad99aabf9ef0767b3cc054c60ee00000000000000000000000000000000000000000000000000000000000000010000000000000000000000000000000000000000000000000000000000000000000000000000000000000000000000000000000000000000800000000000000000000000000000000000000000000000000000000000000000000000000000000000000000000000000000000000000000000000000000000000000000000000000000000000000000000000000000000000000000000000000000000000000000000000000000000000000000000000000000000000008000000000000000000000000000000000000000000000000000000000000000a4c9f12e9d000000000000000000000000874376be8231dad99aabf9ef0767b3cc054c60ee000000000000000000000000c02aaa39b223fe8d0a0e5c4f27ead9083c756cc200000000000000000000000027c70cd1946795b66be9d954418546998b546634000000000000000000000003fd3dfb524b2da40c8a6d703c62be36b5d8540626000000000000000000000000000000000000000000000000000000000000000000000000000000000000000000000000000000000000000000000000000000000000000000000000000000000000000000000000000000000000000000000000000000000000000000000000000000000000000000000000000000000000000000000000000000000000000000000000000000000000000000000000000000000000000000000000000000000000000000000000000000000000008000000000000000000000000000000000000000000000000000000000000002647f8fe7a000000000000000000000000000000000000000000000000000000000000000808000000000000000000000000000000000000000000000000000000000000044000000000000000000000000fd3dfb524b2da40c8a6d703c62be36b5d854062600000000000000000000000000000000000000000000000000000000000001e0000000000000000000000000000000000000000000000000000000000000000000000000000000000000000000000000000000000000000000000000000000000000000000000000000000000000000000000000000000000000000000000000000000000000000000000000000000000000000000000000000000000000008000000000000000000000000000000000000000000000000000000000000000a40597122400000000000000000000000027c70cd1946795b66be9d954418546998b546634000000000000000000000000000000000000000000000000000000000000000000000000000000000000000000000000000000000000000000000000000000010000000000000000000000000000000100000000000000000000000000000001000000000000000000000000000000000000000000000000000000000000000200000000000000000000000000000000000000000000000000000000000000000000000000000000000000000000000000000000000000000000004470bdb94700000000000000000000000027c70cd1946795b66be9d954418546998b5466340000000000000000000000000000000000000000000000000b9b9cf5e1b452580000000000000000000000000000000000000000000000000000000000000000000000000000000000000000000000000000000000000000000000000000000000000000000000000000000000000000000000000000000000000000000000000000000000000000000000000000000000000000000000000000000000000000000000000000000000000000000000000000000000000000000000000000000000000000000000000000000000000000000000000000008000000000000000000000000000000000000000000000000000000000000001a4b3af37c00000000000000000000000000000000000000000000000000000000000000080800000000000000000000000000000000000000000000000000000000000004400000000000000000000000027c70cd1946795b66be9d954418546998b546634000000000000000000000000000000010000000000000000000000000000000100000000000000000000000000000000000000000000000000000000000000000000000000000000000000000000000000000000000000000000000000000000000000000000000000000000000000000000000000000000000000000000000000000000000000000000000000000000000000000000000000000000000000800000000000000000000000000000000000000000000000000000000000000064d1660f9900000000000000000000000027c70cd1946795b66be9d954418546998b5466340000000000000000000000000d0bd6469be80d57893cf1b21434936dfaa3531900000000000000000000000000000000000000000000000000000000000000010000000000000000000000000000000000000000000000000000000000000000000000000000000000000000000000000000000000000000",
            "debugEnable": true,
            "errorInfo": "",
            "eventCount": 13,
            "feeRecipient": "0x5a0b54d5dc17e0aadc383d2db43b0a0d3e029c4c",
            "formatValue": "0",
            "gasLimit": 434613,
            "gasPrice": "131",
            "gasUsed": 296903,
            "intTxnCount": 32,
            "internalRevert": false,
            "internalRevertMessage": "",
            "isContractCreation": false,
            "isFlashloan": false,
            "maxFee": "",
            "nonce": 479,
            "overwritedBlockNumber": -1,
            "priorityFee": "",
            "receiver": "0x11111112542d85b3ef69ae05771c2dccff4faa26",
            "revertMessage": "",
            "sender": "0x0d0bd6469be80d57893cf1b21434936dfaa35319",
            "simulationEnable": true,
            "sourceTxnHash": "0x7c0ceee26b3cd0275e7c6e303641974a6e43dac6b0998bbd8a7be87350d8b419",
            "status": true,
            "timestamp": "2021-05-10T03:55:57Z",
            "transactionFee": "0.038894293",
            "txnHash": "0x7c0ceee26b3cd0275e7c6e303641974a6e43dac6b0998bbd8a7be87350d8b419",
            "txnIndex": 100,
            "type": 0,
            "value": "0"
        },
        "fund_flow": [
            {
                "amount": "4,086.887",
                "from": "0x0d0bd6469be80d57893cf1b21434936dfaa35319",
                "id": 1,
                "isERC1155": false,
                "isERC721": false,
                "isReverted": false,
                "order": 1,
                "to": "0xfd3dfb524b2da40c8a6d703c62be36b5d8540626",
                "token": "0xa0b86991c6218b36c1d19d4a2e9eb0ce3606eb48"
            },
            {
                "amount": "4,086.887",
                "from": "0xfd3dfb524b2da40c8a6d703c62be36b5d8540626",
                "id": 2,
                "isERC1155": false,
                "isERC721": false,
                "isReverted": false,
                "order": 2,
                "to": "0xf4d8c95478d9fb81c3ba863353b19f5484e799ed",
                "token": "0xa0b86991c6218b36c1d19d4a2e9eb0ce3606eb48"
            },
            {
                "amount": "1.015302533493749455",
                "from": "0xf4d8c95478d9fb81c3ba863353b19f5484e799ed",
                "id": 3,
                "isERC1155": false,
                "isERC721": false,
                "isReverted": false,
                "order": 3,
                "to": "0xfd3dfb524b2da40c8a6d703c62be36b5d8540626",
                "token": "0xc02aaa39b223fe8d0a0e5c4f27ead9083c756cc2"
            },
            {
                "amount": "1.015302533493749455",
                "from": "0xfd3dfb524b2da40c8a6d703c62be36b5d8540626",
                "id": 4,
                "isERC1155": false,
                "isERC721": false,
                "isReverted": false,
                "order": 4,
                "to": "0x874376be8231dad99aabf9ef0767b3cc054c60ee",
                "token": "0xc02aaa39b223fe8d0a0e5c4f27ead9083c756cc2"
            },
            {
                "amount": "0.837673341003909325",
                "from": "0x874376be8231dad99aabf9ef0767b3cc054c60ee",
                "id": 5,
                "isERC1155": false,
                "isERC721": false,
                "isReverted": false,
                "order": 5,
                "to": "0xfd3dfb524b2da40c8a6d703c62be36b5d8540626",
                "token": "0x27c70cd1946795b66be9d954418546998b546634"
            },
            {
                "amount": "0.001238605328938613",
                "from": "0xfd3dfb524b2da40c8a6d703c62be36b5d8540626",
                "id": 6,
                "isERC1155": false,
                "isERC721": false,
                "isReverted": false,
                "order": 6,
                "to": "0xdd9f24efc84d93deef3c8745c837ab63e80abd27",
                "token": "0x27c70cd1946795b66be9d954418546998b546634"
            },
            {
                "amount": "0.836434735674970712",
                "from": "0xfd3dfb524b2da40c8a6d703c62be36b5d8540626",
                "id": 7,
                "isERC1155": false,
                "isERC721": false,
                "isReverted": false,
                "order": 7,
                "to": "0x0d0bd6469be80d57893cf1b21434936dfaa35319",
                "token": "0x27c70cd1946795b66be9d954418546998b546634"
            }
        ],
        "token_infos": [
            {
                "address": "0x27c70cd1946795b66be9d954418546998b546634",
                "decimals": 18
            },
            {
                "address": "0xa0b86991c6218b36c1d19d4a2e9eb0ce3606eb48",
                "decimals": 6
            },
            {
                "address": "0xc02aaa39b223fe8d0a0e5c4f27ead9083c756cc2",
                "decimals": 18
            },
            {
                "address": "0xeeeeeeeeeeeeeeeeeeeeeeeeeeeeeeeeeeeeeeee",
                "decimals": 18
            }
        ]
    },
    "address_label": {
        "labels": [
            {
                "address": "0x0000000000000000000000000000000000000002",
                "label": "Precompiled"
            },
            {
                "address": "0xeeeeeeeeeeeeeeeeeeeeeeeeeeeeeeeeeeeeeeee",
                "label": "Ether"
            },
            {
                "address": "0x11111112542d85b3ef69ae05771c2dccff4faa26",
                "label": "1inch v3: Aggregation Router"
            },
            {
                "address": "0xa2327a938febf5fec13bacfb16ae10ecbc4cbdcf",
                "label": "FiatTokenV2_1"
            },
            {
                "address": "0x874376be8231dad99aabf9ef0767b3cc054c60ee",
                "label": "Uniswap V2: LEASH"
            },
            {
                "address": "0x0000000000000000000000000000000000000001",
                "label": "Precompiled"
            },
            {
                "address": "0x0000000000000000000000000000000000000004",
                "label": "Precompiled"
            },
            {
                "address": "0xf4d8c95478d9fb81c3ba863353b19f5484e799ed",
                "label": "Balancer: XZAR/USDC/ETH 47.7/14.4/37.9"
            },
            {
                "address": "0xc02aaa39b223fe8d0a0e5c4f27ead9083c756cc2",
                "label": "Wrapped Ether (WETH)"
            },
            {
                "address": "0x27c70cd1946795b66be9d954418546998b546634",
                "label": "Shiba Inu: LEASH Token"
            },
            {
                "address": "0xa0b86991c6218b36c1d19d4a2e9eb0ce3606eb48",
                "label": "Circle: USDC Token"
            },
            {
                "address": "0x0000000000000000000000000000000000000003",
                "label": "Precompiled"
            }
        ]
    },
    "trace": {
        "accountLabels": null,
        "dataMap": {
            "-1": {
                "invocation": {
                    "address": "0x0d0bd6469be80d57893cf1b21434936dfaa35319",
                    "callData": "",
                    "decodedMethod": null,
                    "errorInfo": "",
                    "fromAddress": "",
                    "gasUsed": 0,
                    "id": -1,
                    "methodDecoded": false,
                    "operation": "",
                    "output": "",
                    "revert": false,
                    "revertMessage": "",
                    "selector": "",
                    "status": false,
                    "value": ""
                },
                "nodeType": 0
            },
            "0": {
                "invocation": {
                    "address": "0x11111112542d85b3ef69ae05771c2dccff4faa26",
                    "callData": "0x000000000000000000000000fd3dfb524b2da40c8a6d703c62be36b5d854062600000000000000000000000000000000000000000000000000000000000000600000000000000000000000000000000000000000000000000000000000000180000000000000000000000000a0b86991c6218b36c1d19d4a2e9eb0ce3606eb4800000000000000000000000027c70cd1946795b66be9d954418546998b546634000000000000000000000000fd3dfb524b2da40c8a6d703c62be36b5d85406260000000000000000000000000d0bd6469be80d57893cf1b21434936dfaa3531900000000000000000000000000000000000000000000000000000000f398f2580000000000000000000000000000000000000000000000000b4276f8bec5f3b60000000000000000000000000000000000000000000000000000000000000004000000000000000000000000000000000000000000000000000000000000010000000000000000000000000000000000000000000000000000000000000000000000000000000000000000000000000000000000000000000000000000000ca00000000000000000000000000000000000000000000000000000000000000020000000000000000000000000000000000000000000000000000000000000000600000000000000000000000000000000000000000000000000000000000000c000000000000000000000000000000000000000000000000000000000000001e00000000000000000000000000000000000000000000000000000000000000340000000000000000000000000000000000000000000000000000000000000058000000000000000000000000000000000000000000000000000000000000006e00000000000000000000000000000000000000000000000000000000000000a0000000000000000000000000000000000000000000000000000000000000000000000000000000000000000000000000000000000000000000000000000000000000000000000000000000000000000000000000000000000000000000000000000000000000000000000000000000000000000000000000000000000000000800000000000000000000000000000000000000000000000000000000000000064eb5625d9000000000000000000000000a0b86991c6218b36c1d19d4a2e9eb0ce3606eb48000000000000000000000000f4d8c95478d9fb81c3ba863353b19f5484e799ed00000000000000000000000000000000000000000000000000000000f398f25800000000000000000000000000000000000000000000000000000000800000000000000000000000f4d8c95478d9fb81c3ba863353b19f5484e799ed00000000000000000000000000000000000000000000000000000000000000000000000000000000000000000000000000000000000000000000000000000000000000000000000000000000000000000000000000000000000000000000008000000000000000000000000000000000000000000000000000000000000000a48201aa3f000000000000000000000000a0b86991c6218b36c1d19d4a2e9eb0ce3606eb4800000000000000000000000000000000000000000000000000000000f398f258000000000000000000000000c02aaa39b223fe8d0a0e5c4f27ead9083c756cc20000000000000000000000000000000000000000000000000000000000000001ffffffffffffffffffffffffffffffffffffffffffffffffffffffffffffffff0000000000000000000000000000000000000000000000000000000080000000000000000000000000000000000000000000000000000000000000000000000000000000000000000000000000000000000000000000000000000000000000000000000000000000000000000000000000000000000000000000000000000000000000000000000000000000000000000000000000000000000000800000000000000000000000000000000000000000000000000000000000000184b3af37c000000000000000000000000000000000000000000000000000000000000000808000000000000000000000000000000000000000000000000000000000000024000000000000000000000000c02aaa39b223fe8d0a0e5c4f27ead9083c756cc20000000000000000000000000000005000000000000000000000000000000050000000000000000000000000c02aaa39b223fe8d0a0e5c4f27ead9083c756cc20000000000000000000000000000000000000000000000000000000000000000000000000000000000000000000000000000000000000000000000000000000000000000000000000000000000000000000000000000000000000000000000800000000000000000000000000000000000000000000000000000000000000044a9059cbb000000000000000000000000874376be8231dad99aabf9ef0767b3cc054c60ee00000000000000000000000000000000000000000000000000000000000000010000000000000000000000000000000000000000000000000000000000000000000000000000000000000000000000000000000000000000800000000000000000000000000000000000000000000000000000000000000000000000000000000000000000000000000000000000000000000000000000000000000000000000000000000000000000000000000000000000000000000000000000000000000000000000000000000000000000000000000000000000008000000000000000000000000000000000000000000000000000000000000000a4c9f12e9d000000000000000000000000874376be8231dad99aabf9ef0767b3cc054c60ee000000000000000000000000c02aaa39b223fe8d0a0e5c4f27ead9083c756cc200000000000000000000000027c70cd1946795b66be9d954418546998b546634000000000000000000000003fd3dfb524b2da40c8a6d703c62be36b5d8540626000000000000000000000000000000000000000000000000000000000000000000000000000000000000000000000000000000000000000000000000000000000000000000000000000000000000000000000000000000000000000000000000000000000000000000000000000000000000000000000000000000000000000000000000000000000000000000000000000000000000000000000000000000000000000000000000000000000000000000000000000000000000008000000000000000000000000000000000000000000000000000000000000002647f8fe7a000000000000000000000000000000000000000000000000000000000000000808000000000000000000000000000000000000000000000000000000000000044000000000000000000000000fd3dfb524b2da40c8a6d703c62be36b5d854062600000000000000000000000000000000000000000000000000000000000001e0000000000000000000000000000000000000000000000000000000000000000000000000000000000000000000000000000000000000000000000000000000000000000000000000000000000000000000000000000000000000000000000000000000000000000000000000000000000000000000000000000000000000008000000000000000000000000000000000000000000000000000000000000000a40597122400000000000000000000000027c70cd1946795b66be9d954418546998b546634000000000000000000000000000000000000000000000000000000000000000000000000000000000000000000000000000000000000000000000000000000010000000000000000000000000000000100000000000000000000000000000001000000000000000000000000000000000000000000000000000000000000000200000000000000000000000000000000000000000000000000000000000000000000000000000000000000000000000000000000000000000000004470bdb94700000000000000000000000027c70cd1946795b66be9d954418546998b5466340000000000000000000000000000000000000000000000000b9b9cf5e1b452580000000000000000000000000000000000000000000000000000000000000000000000000000000000000000000000000000000000000000000000000000000000000000000000000000000000000000000000000000000000000000000000000000000000000000000000000000000000000000000000000000000000000000000000000000000000000000000000000000000000000000000000000000000000000000000000000000000000000000000000000000008000000000000000000000000000000000000000000000000000000000000001a4b3af37c00000000000000000000000000000000000000000000000000000000000000080800000000000000000000000000000000000000000000000000000000000004400000000000000000000000027c70cd1946795b66be9d954418546998b546634000000000000000000000000000000010000000000000000000000000000000100000000000000000000000000000000000000000000000000000000000000000000000000000000000000000000000000000000000000000000000000000000000000000000000000000000000000000000000000000000000000000000000000000000000000000000000000000000000000000000000000000000000000800000000000000000000000000000000000000000000000000000000000000064d1660f9900000000000000000000000027c70cd1946795b66be9d954418546998b5466340000000000000000000000000d0bd6469be80d57893cf1b21434936dfaa3531900000000000000000000000000000000000000000000000000000000000000010000000000000000000000000000000000000000000000000000000000000000000000000000000000000000000000000000000000000000",
                    "decodedMethod": {
                        "callParams": [
                            {
                                "name": "caller",
                                "type": "address",
                                "value": "0xfd3dfb524b2da40c8a6d703c62be36b5d8540626"
                            },
                            {
                                "name": "desc",
                                "type": "(address,address,address,address,uint256,uint256,uint256,bytes)",
                                "value": [
                                    {
                                        "name": "srcToken",
                                        "type": "address",
                                        "value": "0xa0b86991c6218b36c1d19d4a2e9eb0ce3606eb48"
                                    },
                                    {
                                        "name": "dstToken",
                                        "type": "address",
                                        "value": "0x27c70cd1946795b66be9d954418546998b546634"
                                    },
                                    {
                                        "name": "srcReceiver",
                                        "type": "address",
                                        "value": "0xfd3dfb524b2da40c8a6d703c62be36b5d8540626"
                                    },
                                    {
                                        "name": "dstReceiver",
                                        "type": "address",
                                        "value": "0x0d0bd6469be80d57893cf1b21434936dfaa35319"
                                    },
                                    {
                                        "name": "amount",
                                        "type": "uint256",
                                        "value": "4,086,887,000"
                                    },
                                    {
                                        "name": "minReturnAmount",
                                        "type": "uint256",
                                        "value": "811,341,693,604,721,590"
                                    },
                                    {
                                        "name": "flags",
                                        "type": "uint256",
                                        "value": "4"
                                    },
                                    {
                                        "name": "permit",
                                        "type": "bytes",
                                        "value": "0x"
                                    }
                                ]
                            },
                            {
                                "name": "data",
                                "type": "bytes",
                                "value": "0x0000000000000000000000000000000000000000000000000000000000000020000000000000000000000000000000000000000000000000000000000000000600000000000000000000000000000000000000000000000000000000000000c000000000000000000000000000000000000000000000000000000000000001e00000000000000000000000000000000000000000000000000000000000000340000000000000000000000000000000000000000000000000000000000000058000000000000000000000000000000000000000000000000000000000000006e00000000000000000000000000000000000000000000000000000000000000a0000000000000000000000000000000000000000000000000000000000000000000000000000000000000000000000000000000000000000000000000000000000000000000000000000000000000000000000000000000000000000000000000000000000000000000000000000000000000000000000000000000000000000800000000000000000000000000000000000000000000000000000000000000064eb5625d9000000000000000000000000a0b86991c6218b36c1d19d4a2e9eb0ce3606eb48000000000000000000000000f4d8c95478d9fb81c3ba863353b19f5484e799ed00000000000000000000000000000000000000000000000000000000f398f25800000000000000000000000000000000000000000000000000000000800000000000000000000000f4d8c95478d9fb81c3ba863353b19f5484e799ed00000000000000000000000000000000000000000000000000000000000000000000000000000000000000000000000000000000000000000000000000000000000000000000000000000000000000000000000000000000000000000000008000000000000000000000000000000000000000000000000000000000000000a48201aa3f000000000000000000000000a0b86991c6218b36c1d19d4a2e9eb0ce3606eb4800000000000000000000000000000000000000000000000000000000f398f258000000000000000000000000c02aaa39b223fe8d0a0e5c4f27ead9083c756cc20000000000000000000000000000000000000000000000000000000000000001ffffffffffffffffffffffffffffffffffffffffffffffffffffffffffffffff0000000000000000000000000000000000000000000000000000000080000000000000000000000000000000000000000000000000000000000000000000000000000000000000000000000000000000000000000000000000000000000000000000000000000000000000000000000000000000000000000000000000000000000000000000000000000000000000000000000000000000000000800000000000000000000000000000000000000000000000000000000000000184b3af37c000000000000000000000000000000000000000000000000000000000000000808000000000000000000000000000000000000000000000000000000000000024000000000000000000000000c02aaa39b223fe8d0a0e5c4f27ead9083c756cc20000000000000000000000000000005000000000000000000000000000000050000000000000000000000000c02aaa39b223fe8d0a0e5c4f27ead9083c756cc20000000000000000000000000000000000000000000000000000000000000000000000000000000000000000000000000000000000000000000000000000000000000000000000000000000000000000000000000000000000000000000000800000000000000000000000000000000000000000000000000000000000000044a9059cbb000000000000000000000000874376be8231dad99aabf9ef0767b3cc054c60ee00000000000000000000000000000000000000000000000000000000000000010000000000000000000000000000000000000000000000000000000000000000000000000000000000000000000000000000000000000000800000000000000000000000000000000000000000000000000000000000000000000000000000000000000000000000000000000000000000000000000000000000000000000000000000000000000000000000000000000000000000000000000000000000000000000000000000000000000000000000000000000000008000000000000000000000000000000000000000000000000000000000000000a4c9f12e9d000000000000000000000000874376be8231dad99aabf9ef0767b3cc054c60ee000000000000000000000000c02aaa39b223fe8d0a0e5c4f27ead9083c756cc200000000000000000000000027c70cd1946795b66be9d954418546998b546634000000000000000000000003fd3dfb524b2da40c8a6d703c62be36b5d8540626000000000000000000000000000000000000000000000000000000000000000000000000000000000000000000000000000000000000000000000000000000000000000000000000000000000000000000000000000000000000000000000000000000000000000000000000000000000000000000000000000000000000000000000000000000000000000000000000000000000000000000000000000000000000000000000000000000000000000000000000000000000000008000000000000000000000000000000000000000000000000000000000000002647f8fe7a000000000000000000000000000000000000000000000000000000000000000808000000000000000000000000000000000000000000000000000000000000044000000000000000000000000fd3dfb524b2da40c8a6d703c62be36b5d854062600000000000000000000000000000000000000000000000000000000000001e0000000000000000000000000000000000000000000000000000000000000000000000000000000000000000000000000000000000000000000000000000000000000000000000000000000000000000000000000000000000000000000000000000000000000000000000000000000000000000000000000000000000000008000000000000000000000000000000000000000000000000000000000000000a40597122400000000000000000000000027c70cd1946795b66be9d954418546998b546634000000000000000000000000000000000000000000000000000000000000000000000000000000000000000000000000000000000000000000000000000000010000000000000000000000000000000100000000000000000000000000000001000000000000000000000000000000000000000000000000000000000000000200000000000000000000000000000000000000000000000000000000000000000000000000000000000000000000000000000000000000000000004470bdb94700000000000000000000000027c70cd1946795b66be9d954418546998b5466340000000000000000000000000000000000000000000000000b9b9cf5e1b452580000000000000000000000000000000000000000000000000000000000000000000000000000000000000000000000000000000000000000000000000000000000000000000000000000000000000000000000000000000000000000000000000000000000000000000000000000000000000000000000000000000000000000000000000000000000000000000000000000000000000000000000000000000000000000000000000000000000000000000000000000008000000000000000000000000000000000000000000000000000000000000001a4b3af37c00000000000000000000000000000000000000000000000000000000000000080800000000000000000000000000000000000000000000000000000000000004400000000000000000000000027c70cd1946795b66be9d954418546998b546634000000000000000000000000000000010000000000000000000000000000000100000000000000000000000000000000000000000000000000000000000000000000000000000000000000000000000000000000000000000000000000000000000000000000000000000000000000000000000000000000000000000000000000000000000000000000000000000000000000000000000000000000000000800000000000000000000000000000000000000000000000000000000000000064d1660f9900000000000000000000000027c70cd1946795b66be9d954418546998b5466340000000000000000000000000d0bd6469be80d57893cf1b21434936dfaa3531900000000000000000000000000000000000000000000000000000000000000010000000000000000000000000000000000000000000000000000000000000000000000000000000000000000000000000000000000000000"
                            }
                        ],
                        "constructorArguments": "",
                        "name": "swap",
                        "returnParams": [
                            {
                                "name": "returnAmount",
                                "type": "uint256",
                                "value": "836,434,735,674,970,712"
                            },
                            {
                                "name": "gasLeft",
                                "type": "uint256",
                                "value": "37,642"
                            }
                        ],
                        "signature": "swap(address,(address,address,address,address,uint256,uint256,uint256,bytes),bytes)"
                    },
                    "errorInfo": "",
                    "fromAddress": "0x0d0bd6469be80d57893cf1b21434936dfaa35319",
                    "gasUsed": 296903,
                    "id": 0,
                    "methodDecoded": true,
                    "operation": "CALL",
                    "output": "0x0000000000000000000000000000000000000000000000000b9b9cf5e1b45258000000000000000000000000000000000000000000000000000000000000930a",
                    "revert": false,
                    "revertMessage": "",
                    "selector": "0x7c025200",
                    "status": true,
                    "value": "0"
                },
                "nodeType": 0
            },
            "1": {
                "invocation": {
                    "address": "0xa0b86991c6218b36c1d19d4a2e9eb0ce3606eb48",
                    "callData": "0x0000000000000000000000000d0bd6469be80d57893cf1b21434936dfaa35319000000000000000000000000fd3dfb524b2da40c8a6d703c62be36b5d854062600000000000000000000000000000000000000000000000000000000f398f258",
                    "decodedMethod": {
                        "callParams": [
                            {
                                "name": "from",
                                "type": "address",
                                "value": "0x0d0bd6469be80d57893cf1b21434936dfaa35319"
                            },
                            {
                                "name": "to",
                                "type": "address",
                                "value": "0xfd3dfb524b2da40c8a6d703c62be36b5d8540626"
                            },
                            {
                                "decimalAvailable": true,
                                "name": "value",
                                "type": "uint256",
                                "value": "4,086,887,000"
                            }
                        ],
                        "constructorArguments": "",
                        "name": "transferFrom",
                        "returnParams": [
                            {
                                "name": "",
                                "type": "bool",
                                "value": true
                            }
                        ],
                        "signature": "transferFrom(address,address,uint256)"
                    },
                    "errorInfo": "",
                    "fromAddress": "0x11111112542d85b3ef69ae05771c2dccff4faa26",
                    "gasUsed": 51992,
                    "id": 1,
                    "methodDecoded": true,
                    "operation": "CALL",
                    "output": "0x0000000000000000000000000000000000000000000000000000000000000001",
                    "revert": false,
                    "revertMessage": "",
                    "selector": "0x23b872dd",
                    "status": true,
                    "value": "0"
                },
                "nodeType": 0
            },
            "10": {
                "invocation": {
                    "address": "0xf4d8c95478d9fb81c3ba863353b19f5484e799ed",
                    "callData": "0x000000000000000000000000a0b86991c6218b36c1d19d4a2e9eb0ce3606eb4800000000000000000000000000000000000000000000000000000000f398f258000000000000000000000000c02aaa39b223fe8d0a0e5c4f27ead9083c756cc20000000000000000000000000000000000000000000000000000000000000001ffffffffffffffffffffffffffffffffffffffffffffffffffffffffffffffff",
                    "decodedMethod": {
                        "callParams": [
                            {
                                "name": "tokenIn",
                                "type": "address",
                                "value": "0xa0b86991c6218b36c1d19d4a2e9eb0ce3606eb48"
                            },
                            {
                                "name": "tokenAmountIn",
                                "type": "uint256",
                                "value": "4,086,887,000"
                            },
                            {
                                "name": "tokenOut",
                                "type": "address",
                                "value": "0xc02aaa39b223fe8d0a0e5c4f27ead9083c756cc2"
                            },
                            {
                                "name": "minAmountOut",
                                "type": "uint256",
                                "value": "1"
                            },
                            {
                                "name": "maxPrice",
                                "type": "uint256",
                                "value": "115,792,089,237,316,195,423,570,985,008,687,907,853,269,984,665,640,564,039,457,584,007,913,129,639,935"
                            }
                        ],
                        "constructorArguments": "",
                        "name": "swapExactAmountIn",
                        "returnParams": [
                            {
                                "name": "tokenAmountOut",
                                "type": "uint256",
                                "value": "1,015,302,533,493,749,455"
                            },
                            {
                                "name": "spotPriceAfter",
                                "type": "uint256",
                                "value": "4,048,240,083"
                            }
                        ],
                        "signature": "swapExactAmountIn(address,uint256,address,uint256,uint256)"
                    },
                    "errorInfo": "",
                    "fromAddress": "0xfd3dfb524b2da40c8a6d703c62be36b5d8540626",
                    "gasUsed": 92631,
                    "id": 10,
                    "methodDecoded": true,
                    "operation": "CALL",
                    "output": "0x0000000000000000000000000000000000000000000000000e1714466072f6cf00000000000000000000000000000000000000000000000000000000f14b3dd3",
                    "revert": false,
                    "revertMessage": "",
                    "selector": "0x8201aa3f",
                    "status": true,
                    "value": "0"
                },
                "nodeType": 0
            },
            "11": {
                "event": {
                    "contract": "0xf4d8c95478d9fb81c3ba863353b19f5484e799ed",
                    "decodedLog": null,
                    "id": 11,
                    "logData": "0x000000000000000000000000000000000000000000000000000000000000002000000000000000000000000000000000000000000000000000000000000000a48201aa3f000000000000000000000000a0b86991c6218b36c1d19d4a2e9eb0ce3606eb4800000000000000000000000000000000000000000000000000000000f398f258000000000000000000000000c02aaa39b223fe8d0a0e5c4f27ead9083c756cc20000000000000000000000000000000000000000000000000000000000000001ffffffffffffffffffffffffffffffffffffffffffffffffffffffffffffffff00000000000000000000000000000000000000000000000000000000",
                    "logDecoded": false,
                    "operation": "EVENT",
                    "revert": false,
                    "status": true,
                    "topics": [
                        "0x8201aa3f00000000000000000000000000000000000000000000000000000000",
                        "0x000000000000000000000000fd3dfb524b2da40c8a6d703c62be36b5d8540626"
                    ]
                },
                "nodeType": 1
            },
            "12": {
                "event": {
                    "contract": "0xf4d8c95478d9fb81c3ba863353b19f5484e799ed",
                    "decodedLog": {
                        "name": "LOG_SWAP",
                        "params": [
                            {
                                "name": "caller",
                                "type": "address",
                                "value": "0xfd3dfb524b2da40c8a6d703c62be36b5d8540626"
                            },
                            {
                                "name": "tokenIn",
                                "type": "address",
                                "value": "0xa0b86991c6218b36c1d19d4a2e9eb0ce3606eb48"
                            },
                            {
                                "name": "tokenOut",
                                "type": "address",
                                "value": "0xc02aaa39b223fe8d0a0e5c4f27ead9083c756cc2"
                            },
                            {
                                "name": "tokenAmountIn",
                                "type": "uint256",
                                "value": "4,086,887,000"
                            },
                            {
                                "name": "tokenAmountOut",
                                "type": "uint256",
                                "value": "1,015,302,533,493,749,455"
                            }
                        ],
                        "signature": "LOG_SWAP(address,address,address,uint256,uint256)"
                    },
                    "id": 12,
                    "logData": "0x00000000000000000000000000000000000000000000000000000000f398f2580000000000000000000000000000000000000000000000000e1714466072f6cf",
                    "logDecoded": true,
                    "operation": "EVENT",
                    "revert": false,
                    "status": true,
                    "topics": [
                        "0x908fb5ee8f16c6bc9bc3690973819f32a4d4b10188134543c88706e0e1d43378",
                        "0x000000000000000000000000fd3dfb524b2da40c8a6d703c62be36b5d8540626",
                        "0x000000000000000000000000a0b86991c6218b36c1d19d4a2e9eb0ce3606eb48",
                        "0x000000000000000000000000c02aaa39b223fe8d0a0e5c4f27ead9083c756cc2"
                    ]
                },
                "nodeType": 1
            },
            "13": {
                "invocation": {
                    "address": "0xa0b86991c6218b36c1d19d4a2e9eb0ce3606eb48",
                    "callData": "0x000000000000000000000000fd3dfb524b2da40c8a6d703c62be36b5d8540626000000000000000000000000f4d8c95478d9fb81c3ba863353b19f5484e799ed00000000000000000000000000000000000000000000000000000000f398f258",
                    "decodedMethod": {
                        "callParams": [
                            {
                                "name": "from",
                                "type": "address",
                                "value": "0xfd3dfb524b2da40c8a6d703c62be36b5d8540626"
                            },
                            {
                                "name": "to",
                                "type": "address",
                                "value": "0xf4d8c95478d9fb81c3ba863353b19f5484e799ed"
                            },
                            {
                                "decimalAvailable": true,
                                "name": "value",
                                "type": "uint256",
                                "value": "4,086,887,000"
                            }
                        ],
                        "constructorArguments": "",
                        "name": "transferFrom",
                        "returnParams": [
                            {
                                "name": "",
                                "type": "bool",
                                "value": true
                            }
                        ],
                        "signature": "transferFrom(address,address,uint256)"
                    },
                    "errorInfo": "",
                    "fromAddress": "0xf4d8c95478d9fb81c3ba863353b19f5484e799ed",
                    "gasUsed": 10792,
                    "id": 13,
                    "methodDecoded": true,
                    "operation": "CALL",
                    "output": "0x0000000000000000000000000000000000000000000000000000000000000001",
                    "revert": false,
                    "revertMessage": "",
                    "selector": "0x23b872dd",
                    "status": true,
                    "value": "0"
                },
                "nodeType": 0
            },
            "14": {
                "invocation": {
                    "address": "0xa2327a938febf5fec13bacfb16ae10ecbc4cbdcf",
                    "callData": "0x000000000000000000000000fd3dfb524b2da40c8a6d703c62be36b5d8540626000000000000000000000000f4d8c95478d9fb81c3ba863353b19f5484e799ed00000000000000000000000000000000000000000000000000000000f398f258",
                    "decodedMethod": {
                        "callParams": [
                            {
                                "name": "from",
                                "type": "address",
                                "value": "0xfd3dfb524b2da40c8a6d703c62be36b5d8540626"
                            },
                            {
                                "name": "to",
                                "type": "address",
                                "value": "0xf4d8c95478d9fb81c3ba863353b19f5484e799ed"
                            },
                            {
                                "decimalAvailable": true,
                                "name": "value",
                                "type": "uint256",
                                "value": "4,086,887,000"
                            }
                        ],
                        "constructorArguments": "",
                        "name": "transferFrom",
                        "returnParams": [
                            {
                                "name": "",
                                "type": "bool",
                                "value": true
                            }
                        ],
                        "signature": "transferFrom(address,address,uint256)"
                    },
                    "errorInfo": "",
                    "fromAddress": "0xa0b86991c6218b36c1d19d4a2e9eb0ce3606eb48",
                    "gasUsed": 9997,
                    "id": 14,
                    "methodDecoded": true,
                    "operation": "DELEGATECALL",
                    "output": "0x0000000000000000000000000000000000000000000000000000000000000001",
                    "revert": false,
                    "revertMessage": "",
                    "selector": "0x23b872dd",
                    "status": true,
                    "value": "0"
                },
                "nodeType": 0
            },
            "15": {
                "event": {
                    "contract": "0xa0b86991c6218b36c1d19d4a2e9eb0ce3606eb48",
                    "decodedLog": {
                        "name": "Transfer",
                        "params": [
                            {
                                "name": "from",
                                "type": "address",
                                "value": "0xfd3dfb524b2da40c8a6d703c62be36b5d8540626"
                            },
                            {
                                "name": "to",
                                "type": "address",
                                "value": "0xf4d8c95478d9fb81c3ba863353b19f5484e799ed"
                            },
                            {
                                "decimalAvailable": true,
                                "name": "value",
                                "type": "uint256",
                                "value": "4,086,887,000"
                            }
                        ],
                        "signature": "Transfer(address,address,uint256)"
                    },
                    "id": 15,
                    "logData": "0x00000000000000000000000000000000000000000000000000000000f398f258",
                    "logDecoded": true,
                    "operation": "EVENT",
                    "revert": false,
                    "status": true,
                    "topics": [
                        "0xddf252ad1be2c89b69c2b068fc378daa952ba7f163c4a11628f55a4df523b3ef",
                        "0x000000000000000000000000fd3dfb524b2da40c8a6d703c62be36b5d8540626",
                        "0x000000000000000000000000f4d8c95478d9fb81c3ba863353b19f5484e799ed"
                    ]
                },
                "nodeType": 1
            },
            "16": {
                "invocation": {
                    "address": "0xc02aaa39b223fe8d0a0e5c4f27ead9083c756cc2",
                    "callData": "0x000000000000000000000000fd3dfb524b2da40c8a6d703c62be36b5d85406260000000000000000000000000000000000000000000000000e1714466072f6cf",
                    "decodedMethod": {
                        "callParams": [
                            {
                                "name": "dst",
                                "type": "address",
                                "value": "0xfd3dfb524b2da40c8a6d703c62be36b5d8540626"
                            },
                            {
                                "decimalAvailable": true,
                                "name": "wad",
                                "type": "uint256",
                                "value": "1,015,302,533,493,749,455"
                            }
                        ],
                        "constructorArguments": "",
                        "name": "transfer",
                        "returnParams": [
                            {
                                "name": "",
                                "type": "bool",
                                "value": true
                            }
                        ],
                        "signature": "transfer(address,uint256)"
                    },
                    "errorInfo": "",
                    "fromAddress": "0xf4d8c95478d9fb81c3ba863353b19f5484e799ed",
                    "gasUsed": 29962,
                    "id": 16,
                    "methodDecoded": true,
                    "operation": "CALL",
                    "output": "0x0000000000000000000000000000000000000000000000000000000000000001",
                    "revert": false,
                    "revertMessage": "",
                    "selector": "0xa9059cbb",
                    "status": true,
                    "value": "0"
                },
                "nodeType": 0
            },
            "17": {
                "event": {
                    "contract": "0xc02aaa39b223fe8d0a0e5c4f27ead9083c756cc2",
                    "decodedLog": {
                        "name": "Transfer",
                        "params": [
                            {
                                "name": "src",
                                "type": "address",
                                "value": "0xf4d8c95478d9fb81c3ba863353b19f5484e799ed"
                            },
                            {
                                "name": "dst",
                                "type": "address",
                                "value": "0xfd3dfb524b2da40c8a6d703c62be36b5d8540626"
                            },
                            {
                                "decimalAvailable": true,
                                "name": "wad",
                                "type": "uint256",
                                "value": "1,015,302,533,493,749,455"
                            }
                        ],
                        "signature": "Transfer(address,address,uint256)"
                    },
                    "id": 17,
                    "logData": "0x0000000000000000000000000000000000000000000000000e1714466072f6cf",
                    "logDecoded": true,
                    "operation": "EVENT",
                    "revert": false,
                    "status": true,
                    "topics": [
                        "0xddf252ad1be2c89b69c2b068fc378daa952ba7f163c4a11628f55a4df523b3ef",
                        "0x000000000000000000000000f4d8c95478d9fb81c3ba863353b19f5484e799ed",
                        "0x000000000000000000000000fd3dfb524b2da40c8a6d703c62be36b5d8540626"
                    ]
                },
                "nodeType": 1
            },
            "18": {
                "invocation": {
                    "address": "0xfd3dfb524b2da40c8a6d703c62be36b5d8540626",
                    "callData": "0x00000000000000000000000000000000000000000000000000000000000000808000000000000000000000000000000000000000000000000000000000000024000000000000000000000000c02aaa39b223fe8d0a0e5c4f27ead9083c756cc20000000000000000000000000000005000000000000000000000000000000050000000000000000000000000c02aaa39b223fe8d0a0e5c4f27ead9083c756cc20000000000000000000000000000000000000000000000000000000000000000000000000000000000000000000000000000000000000000000000000000000000000000000000000000000000000000000000000000000000000000000000800000000000000000000000000000000000000000000000000000000000000044a9059cbb000000000000000000000000874376be8231dad99aabf9ef0767b3cc054c60ee000000000000000000000000000000000000000000000000000000000000000100000000000000000000000000000000000000000000000000000000",
                    "decodedMethod": null,
                    "errorInfo": "",
                    "fromAddress": "0xfd3dfb524b2da40c8a6d703c62be36b5d8540626",
                    "gasUsed": 11745,
                    "id": 18,
                    "methodDecoded": false,
                    "operation": "CALL",
                    "output": "",
                    "revert": false,
                    "revertMessage": "",
                    "selector": "0xb3af37c0",
                    "status": true,
                    "value": "0"
                },
                "nodeType": 0
            },
            "19": {
                "invocation": {
                    "address": "0xc02aaa39b223fe8d0a0e5c4f27ead9083c756cc2",
                    "callData": "0x000000000000000000000000fd3dfb524b2da40c8a6d703c62be36b5d8540626",
                    "decodedMethod": {
                        "callParams": [
                            {
                                "name": "",
                                "type": "address",
                                "value": "0xfd3dfb524b2da40c8a6d703c62be36b5d8540626"
                            }
                        ],
                        "constructorArguments": "",
                        "name": "balanceOf",
                        "returnParams": [
                            {
                                "decimalAvailable": true,
                                "name": "",
                                "type": "uint256",
                                "value": "1,015,302,533,493,749,455"
                            }
                        ],
                        "signature": "balanceOf(address)"
                    },
                    "errorInfo": "",
                    "fromAddress": "0xfd3dfb524b2da40c8a6d703c62be36b5d8540626",
                    "gasUsed": 534,
                    "id": 19,
                    "methodDecoded": true,
                    "operation": "STATICCALL",
                    "output": "0x0000000000000000000000000000000000000000000000000e1714466072f6cf",
                    "revert": false,
                    "revertMessage": "",
                    "selector": "0x70a08231",
                    "status": true,
                    "value": "0"
                },
                "nodeType": 0
            },
            "2": {
                "invocation": {
                    "address": "0xa2327a938febf5fec13bacfb16ae10ecbc4cbdcf",
                    "callData": "0x0000000000000000000000000d0bd6469be80d57893cf1b21434936dfaa35319000000000000000000000000fd3dfb524b2da40c8a6d703c62be36b5d854062600000000000000000000000000000000000000000000000000000000f398f258",
                    "decodedMethod": {
                        "callParams": [
                            {
                                "name": "from",
                                "type": "address",
                                "value": "0x0d0bd6469be80d57893cf1b21434936dfaa35319"
                            },
                            {
                                "name": "to",
                                "type": "address",
                                "value": "0xfd3dfb524b2da40c8a6d703c62be36b5d8540626"
                            },
                            {
                                "decimalAvailable": true,
                                "name": "value",
                                "type": "uint256",
                                "value": "4,086,887,000"
                            }
                        ],
                        "constructorArguments": "",
                        "name": "transferFrom",
                        "returnParams": [
                            {
                                "name": "",
                                "type": "bool",
                                "value": true
                            }
                        ],
                        "signature": "transferFrom(address,address,uint256)"
                    },
                    "errorInfo": "",
                    "fromAddress": "0xa0b86991c6218b36c1d19d4a2e9eb0ce3606eb48",
                    "gasUsed": 44697,
                    "id": 2,
                    "methodDecoded": true,
                    "operation": "DELEGATECALL",
                    "output": "0x0000000000000000000000000000000000000000000000000000000000000001",
                    "revert": false,
                    "revertMessage": "",
                    "selector": "0x23b872dd",
                    "status": true,
                    "value": "0"
                },
                "nodeType": 0
            },
            "20": {
                "invocation": {
                    "address": "0xc02aaa39b223fe8d0a0e5c4f27ead9083c756cc2",
                    "callData": "0x000000000000000000000000874376be8231dad99aabf9ef0767b3cc054c60ee0000000000000000000000000000000000000000000000000e1714466072f6cf",
                    "decodedMethod": {
                        "callParams": [
                            {
                                "name": "dst",
                                "type": "address",
                                "value": "0x874376be8231dad99aabf9ef0767b3cc054c60ee"
                            },
                            {
                                "decimalAvailable": true,
                                "name": "wad",
                                "type": "uint256",
                                "value": "1,015,302,533,493,749,455"
                            }
                        ],
                        "constructorArguments": "",
                        "name": "transfer",
                        "returnParams": [
                            {
                                "name": "",
                                "type": "bool",
                                "value": true
                            }
                        ],
                        "signature": "transfer(address,uint256)"
                    },
                    "errorInfo": "",
                    "fromAddress": "0xfd3dfb524b2da40c8a6d703c62be36b5d8540626",
                    "gasUsed": 8062,
                    "id": 20,
                    "methodDecoded": true,
                    "operation": "CALL",
                    "output": "0x0000000000000000000000000000000000000000000000000000000000000001",
                    "revert": false,
                    "revertMessage": "",
                    "selector": "0xa9059cbb",
                    "status": true,
                    "value": "0"
                },
                "nodeType": 0
            },
            "21": {
                "event": {
                    "contract": "0xc02aaa39b223fe8d0a0e5c4f27ead9083c756cc2",
                    "decodedLog": {
                        "name": "Transfer",
                        "params": [
                            {
                                "name": "src",
                                "type": "address",
                                "value": "0xfd3dfb524b2da40c8a6d703c62be36b5d8540626"
                            },
                            {
                                "name": "dst",
                                "type": "address",
                                "value": "0x874376be8231dad99aabf9ef0767b3cc054c60ee"
                            },
                            {
                                "decimalAvailable": true,
                                "name": "wad",
                                "type": "uint256",
                                "value": "1,015,302,533,493,749,455"
                            }
                        ],
                        "signature": "Transfer(address,address,uint256)"
                    },
                    "id": 21,
                    "logData": "0x0000000000000000000000000000000000000000000000000e1714466072f6cf",
                    "logDecoded": true,
                    "operation": "EVENT",
                    "revert": false,
                    "status": true,
                    "topics": [
                        "0xddf252ad1be2c89b69c2b068fc378daa952ba7f163c4a11628f55a4df523b3ef",
                        "0x000000000000000000000000fd3dfb524b2da40c8a6d703c62be36b5d8540626",
                        "0x000000000000000000000000874376be8231dad99aabf9ef0767b3cc054c60ee"
                    ]
                },
                "nodeType": 1
            },
            "22": {
                "invocation": {
                    "address": "0xfd3dfb524b2da40c8a6d703c62be36b5d8540626",
                    "callData": "0x000000000000000000000000874376be8231dad99aabf9ef0767b3cc054c60ee000000000000000000000000c02aaa39b223fe8d0a0e5c4f27ead9083c756cc200000000000000000000000027c70cd1946795b66be9d954418546998b546634000000000000000000000003fd3dfb524b2da40c8a6d703c62be36b5d85406260000000000000000000000000000000000000000000000000000000000000000",
                    "decodedMethod": null,
                    "errorInfo": "",
                    "fromAddress": "0xfd3dfb524b2da40c8a6d703c62be36b5d8540626",
                    "gasUsed": 64230,
                    "id": 22,
                    "methodDecoded": false,
                    "operation": "CALL",
                    "output": "",
                    "revert": false,
                    "revertMessage": "",
                    "selector": "0xc9f12e9d",
                    "status": true,
                    "value": "0"
                },
                "nodeType": 0
            },
            "23": {
                "invocation": {
                    "address": "0xc02aaa39b223fe8d0a0e5c4f27ead9083c756cc2",
                    "callData": "0x000000000000000000000000874376be8231dad99aabf9ef0767b3cc054c60ee",
                    "decodedMethod": {
                        "callParams": [
                            {
                                "name": "",
                                "type": "address",
                                "value": "0x874376be8231dad99aabf9ef0767b3cc054c60ee"
                            }
                        ],
                        "constructorArguments": "",
                        "name": "balanceOf",
                        "returnParams": [
                            {
                                "decimalAvailable": true,
                                "name": "",
                                "type": "uint256",
                                "value": "1,561,218,657,230,979,034,491"
                            }
                        ],
                        "signature": "balanceOf(address)"
                    },
                    "errorInfo": "",
                    "fromAddress": "0xfd3dfb524b2da40c8a6d703c62be36b5d8540626",
                    "gasUsed": 534,
                    "id": 23,
                    "methodDecoded": true,
                    "operation": "STATICCALL",
                    "output": "0x000000000000000000000000000000000000000000000054a242e10f84d76d7b",
                    "revert": false,
                    "revertMessage": "",
                    "selector": "0x70a08231",
                    "status": true,
                    "value": "0"
                },
                "nodeType": 0
            },
            "24": {
                "invocation": {
                    "address": "0x874376be8231dad99aabf9ef0767b3cc054c60ee",
                    "callData": "0x",
                    "decodedMethod": {
                        "callParams": [],
                        "constructorArguments": "",
                        "name": "getReserves",
                        "returnParams": [
                            {
                                "name": "_reserve0",
                                "type": "uint112",
                                "value": "1,291,953,703,944,050,824,361"
                            },
                            {
                                "name": "_reserve1",
                                "type": "uint112",
                                "value": "1,560,203,354,697,485,285,036"
                            },
                            {
                                "name": "_blockTimestampLast",
                                "type": "uint32",
                                "value": "1,620,618,957"
                            }
                        ],
                        "signature": "getReserves()"
                    },
                    "errorInfo": "",
                    "fromAddress": "0xfd3dfb524b2da40c8a6d703c62be36b5d8540626",
                    "gasUsed": 2504,
                    "id": 24,
                    "methodDecoded": true,
                    "operation": "STATICCALL",
                    "output": "0x000000000000000000000000000000000000000000000046097598ac4b55d4a9000000000000000000000000000000000000000000000054942bccc9246476ac000000000000000000000000000000000000000000000000000000006098aecd",
                    "revert": false,
                    "revertMessage": "",
                    "selector": "0x0902f1ac",
                    "status": true,
                    "value": "0"
                },
                "nodeType": 0
            },
            "25": {
                "invocation": {
                    "address": "0x874376be8231dad99aabf9ef0767b3cc054c60ee",
                    "callData": "0x0000000000000000000000000000000000000000000000000ba00377285a48cd0000000000000000000000000000000000000000000000000000000000000000000000000000000000000000fd3dfb524b2da40c8a6d703c62be36b5d854062600000000000000000000000000000000000000000000000000000000000000800000000000000000000000000000000000000000000000000000000000000000",
                    "decodedMethod": {
                        "callParams": [
                            {
                                "name": "amount0Out",
                                "type": "uint256",
                                "value": "837,673,341,003,909,325"
                            },
                            {
                                "name": "amount1Out",
                                "type": "uint256",
                                "value": "0"
                            },
                            {
                                "name": "to",
                                "type": "address",
                                "value": "0xfd3dfb524b2da40c8a6d703c62be36b5d8540626"
                            },
                            {
                                "name": "data",
                                "type": "bytes",
                                "value": "0x"
                            }
                        ],
                        "constructorArguments": "",
                        "name": "swap",
                        "returnParams": [],
                        "signature": "swap(uint256,uint256,address,bytes)"
                    },
                    "errorInfo": "",
                    "fromAddress": "0xfd3dfb524b2da40c8a6d703c62be36b5d8540626",
                    "gasUsed": 55324,
                    "id": 25,
                    "methodDecoded": true,
                    "operation": "CALL",
                    "output": "",
                    "revert": false,
                    "revertMessage": "",
                    "selector": "0x022c0d9f",
                    "status": true,
                    "value": "0"
                },
                "nodeType": 0
            },
            "26": {
                "invocation": {
                    "address": "0x27c70cd1946795b66be9d954418546998b546634",
                    "callData": "0x000000000000000000000000fd3dfb524b2da40c8a6d703c62be36b5d85406260000000000000000000000000000000000000000000000000ba00377285a48cd",
                    "decodedMethod": {
                        "callParams": [
                            {
                                "name": "to",
                                "type": "address",
                                "value": "0xfd3dfb524b2da40c8a6d703c62be36b5d8540626"
                            },
                            {
                                "decimalAvailable": true,
                                "name": "value",
                                "type": "uint256",
                                "value": "837,673,341,003,909,325"
                            }
                        ],
                        "constructorArguments": "",
                        "name": "transfer",
                        "returnParams": [
                            {
                                "name": "",
                                "type": "bool",
                                "value": true
                            }
                        ],
                        "signature": "transfer(address,uint256)"
                    },
                    "errorInfo": "",
                    "fromAddress": "0x874376be8231dad99aabf9ef0767b3cc054c60ee",
                    "gasUsed": 32925,
                    "id": 26,
                    "methodDecoded": true,
                    "operation": "CALL",
                    "output": "0x0000000000000000000000000000000000000000000000000000000000000001",
                    "revert": false,
                    "revertMessage": "",
                    "selector": "0xa9059cbb",
                    "status": true,
                    "value": "0"
                },
                "nodeType": 0
            },
            "27": {
                "event": {
                    "contract": "0x27c70cd1946795b66be9d954418546998b546634",
                    "decodedLog": {
                        "name": "Transfer",
                        "params": [
                            {
                                "name": "from",
                                "type": "address",
                                "value": "0x874376be8231dad99aabf9ef0767b3cc054c60ee"
                            },
                            {
                                "name": "to",
                                "type": "address",
                                "value": "0xfd3dfb524b2da40c8a6d703c62be36b5d8540626"
                            },
                            {
                                "decimalAvailable": true,
                                "name": "value",
                                "type": "uint256",
                                "value": "837,673,341,003,909,325"
                            }
                        ],
                        "signature": "Transfer(address,address,uint256)"
                    },
                    "id": 27,
                    "logData": "0x0000000000000000000000000000000000000000000000000ba00377285a48cd",
                    "logDecoded": true,
                    "operation": "EVENT",
                    "revert": false,
                    "status": true,
                    "topics": [
                        "0xddf252ad1be2c89b69c2b068fc378daa952ba7f163c4a11628f55a4df523b3ef",
                        "0x000000000000000000000000874376be8231dad99aabf9ef0767b3cc054c60ee",
                        "0x000000000000000000000000fd3dfb524b2da40c8a6d703c62be36b5d8540626"
                    ]
                },
                "nodeType": 1
            },
            "28": {
                "invocation": {
                    "address": "0x27c70cd1946795b66be9d954418546998b546634",
                    "callData": "0x000000000000000000000000874376be8231dad99aabf9ef0767b3cc054c60ee",
                    "decodedMethod": {
                        "callParams": [
                            {
                                "name": "who",
                                "type": "address",
                                "value": "0x874376be8231dad99aabf9ef0767b3cc054c60ee"
                            }
                        ],
                        "constructorArguments": "",
                        "name": "balanceOf",
                        "returnParams": [
                            {
                                "decimalAvailable": true,
                                "name": "",
                                "type": "uint256",
                                "value": "1,291,116,030,603,046,915,036"
                            }
                        ],
                        "signature": "balanceOf(address)"
                    },
                    "errorInfo": "",
                    "fromAddress": "0x874376be8231dad99aabf9ef0767b3cc054c60ee",
                    "gasUsed": 958,
                    "id": 28,
                    "methodDecoded": true,
                    "operation": "STATICCALL",
                    "output": "0x000000000000000000000000000000000000000000000045fdd5953522fb8bdc",
                    "revert": false,
                    "revertMessage": "",
                    "selector": "0x70a08231",
                    "status": true,
                    "value": "0"
                },
                "nodeType": 0
            },
            "29": {
                "invocation": {
                    "address": "0xc02aaa39b223fe8d0a0e5c4f27ead9083c756cc2",
                    "callData": "0x000000000000000000000000874376be8231dad99aabf9ef0767b3cc054c60ee",
                    "decodedMethod": {
                        "callParams": [
                            {
                                "name": "",
                                "type": "address",
                                "value": "0x874376be8231dad99aabf9ef0767b3cc054c60ee"
                            }
                        ],
                        "constructorArguments": "",
                        "name": "balanceOf",
                        "returnParams": [
                            {
                                "decimalAvailable": true,
                                "name": "",
                                "type": "uint256",
                                "value": "1,561,218,657,230,979,034,491"
                            }
                        ],
                        "signature": "balanceOf(address)"
                    },
                    "errorInfo": "",
                    "fromAddress": "0x874376be8231dad99aabf9ef0767b3cc054c60ee",
                    "gasUsed": 534,
                    "id": 29,
                    "methodDecoded": true,
                    "operation": "STATICCALL",
                    "output": "0x000000000000000000000000000000000000000000000054a242e10f84d76d7b",
                    "revert": false,
                    "revertMessage": "",
                    "selector": "0x70a08231",
                    "status": true,
                    "value": "0"
                },
                "nodeType": 0
            },
            "3": {
                "event": {
                    "contract": "0xa0b86991c6218b36c1d19d4a2e9eb0ce3606eb48",
                    "decodedLog": {
                        "name": "Transfer",
                        "params": [
                            {
                                "name": "from",
                                "type": "address",
                                "value": "0x0d0bd6469be80d57893cf1b21434936dfaa35319"
                            },
                            {
                                "name": "to",
                                "type": "address",
                                "value": "0xfd3dfb524b2da40c8a6d703c62be36b5d8540626"
                            },
                            {
                                "decimalAvailable": true,
                                "name": "value",
                                "type": "uint256",
                                "value": "4,086,887,000"
                            }
                        ],
                        "signature": "Transfer(address,address,uint256)"
                    },
                    "id": 3,
                    "logData": "0x00000000000000000000000000000000000000000000000000000000f398f258",
                    "logDecoded": true,
                    "operation": "EVENT",
                    "revert": false,
                    "status": true,
                    "topics": [
                        "0xddf252ad1be2c89b69c2b068fc378daa952ba7f163c4a11628f55a4df523b3ef",
                        "0x0000000000000000000000000d0bd6469be80d57893cf1b21434936dfaa35319",
                        "0x000000000000000000000000fd3dfb524b2da40c8a6d703c62be36b5d8540626"
                    ]
                },
                "nodeType": 1
            },
            "30": {
                "event": {
                    "contract": "0x874376be8231dad99aabf9ef0767b3cc054c60ee",
                    "decodedLog": {
                        "name": "Sync",
                        "params": [
                            {
                                "name": "reserve0",
                                "type": "uint112",
                                "value": "1,291,116,030,603,046,915,036"
                            },
                            {
                                "name": "reserve1",
                                "type": "uint112",
                                "value": "1,561,218,657,230,979,034,491"
                            }
                        ],
                        "signature": "Sync(uint112,uint112)"
                    },
                    "id": 30,
                    "logData": "0x000000000000000000000000000000000000000000000045fdd5953522fb8bdc000000000000000000000000000000000000000000000054a242e10f84d76d7b",
                    "logDecoded": true,
                    "operation": "EVENT",
                    "revert": false,
                    "status": true,
                    "topics": [
                        "0x1c411e9a96e071241c2f21f7726b17ae89e3cab4c78be50e062b03a9fffbbad1"
                    ]
                },
                "nodeType": 1
            },
            "31": {
                "event": {
                    "contract": "0x874376be8231dad99aabf9ef0767b3cc054c60ee",
                    "decodedLog": {
                        "name": "Swap",
                        "params": [
                            {
                                "name": "sender",
                                "type": "address",
                                "value": "0xfd3dfb524b2da40c8a6d703c62be36b5d8540626"
                            },
                            {
                                "name": "to",
                                "type": "address",
                                "value": "0xfd3dfb524b2da40c8a6d703c62be36b5d8540626"
                            },
                            {
                                "name": "amount0In",
                                "type": "uint256",
                                "value": "0"
                            },
                            {
                                "name": "amount1In",
                                "type": "uint256",
                                "value": "1,015,302,533,493,749,455"
                            },
                            {
                                "name": "amount0Out",
                                "type": "uint256",
                                "value": "837,673,341,003,909,325"
                            },
                            {
                                "name": "amount1Out",
                                "type": "uint256",
                                "value": "0"
                            }
                        ],
                        "signature": "Swap(address,uint256,uint256,uint256,uint256,address)"
                    },
                    "id": 31,
                    "logData": "0x00000000000000000000000000000000000000000000000000000000000000000000000000000000000000000000000000000000000000000e1714466072f6cf0000000000000000000000000000000000000000000000000ba00377285a48cd0000000000000000000000000000000000000000000000000000000000000000",
                    "logDecoded": true,
                    "operation": "EVENT",
                    "revert": false,
                    "status": true,
                    "topics": [
                        "0xd78ad95fa46c994b6551d0da85fc275fe613ce37657fb8d5e3d130840159d822",
                        "0x000000000000000000000000fd3dfb524b2da40c8a6d703c62be36b5d8540626",
                        "0x000000000000000000000000fd3dfb524b2da40c8a6d703c62be36b5d8540626"
                    ]
                },
                "nodeType": 1
            },
            "32": {
                "invocation": {
                    "address": "0xfd3dfb524b2da40c8a6d703c62be36b5d8540626",
                    "callData": "0x00000000000000000000000000000000000000000000000000000000000000808000000000000000000000000000000000000000000000000000000000000044000000000000000000000000fd3dfb524b2da40c8a6d703c62be36b5d854062600000000000000000000000000000000000000000000000000000000000001e0000000000000000000000000000000000000000000000000000000000000000000000000000000000000000000000000000000000000000000000000000000000000000000000000000000000000000000000000000000000000000000000000000000000000000000000000000000000000000000000000000000000000008000000000000000000000000000000000000000000000000000000000000000a40597122400000000000000000000000027c70cd1946795b66be9d954418546998b546634000000000000000000000000000000000000000000000000000000000000000000000000000000000000000000000000000000000000000000000000000000010000000000000000000000000000000100000000000000000000000000000001000000000000000000000000000000000000000000000000000000000000000200000000000000000000000000000000000000000000000000000000000000000000000000000000000000000000000000000000000000000000004470bdb94700000000000000000000000027c70cd1946795b66be9d954418546998b5466340000000000000000000000000000000000000000000000000b9b9cf5e1b4525800000000000000000000000000000000000000000000000000000000",
                    "decodedMethod": null,
                    "errorInfo": "",
                    "fromAddress": "0xfd3dfb524b2da40c8a6d703c62be36b5d8540626",
                    "gasUsed": 35597,
                    "id": 32,
                    "methodDecoded": false,
                    "operation": "CALL",
                    "output": "",
                    "revert": false,
                    "revertMessage": "",
                    "selector": "0x7f8fe7a0",
                    "status": true,
                    "value": "0"
                },
                "nodeType": 0
            },
            "33": {
                "invocation": {
                    "address": "0xfd3dfb524b2da40c8a6d703c62be36b5d8540626",
                    "callData": "0x00000000000000000000000027c70cd1946795b66be9d954418546998b5466340000000000000000000000000000000000000000000000000b9b9cf5e1b45258",
                    "decodedMethod": null,
                    "errorInfo": "",
                    "fromAddress": "0xfd3dfb524b2da40c8a6d703c62be36b5d8540626",
                    "gasUsed": 2181,
                    "id": 33,
                    "methodDecoded": false,
                    "operation": "STATICCALL",
                    "output": "0x0000000000000000000000000000000000000000000000000004668146a5f675",
                    "revert": false,
                    "revertMessage": "",
                    "selector": "0x70bdb947",
                    "status": true,
                    "value": "0"
                },
                "nodeType": 0
            },
            "34": {
                "invocation": {
                    "address": "0x27c70cd1946795b66be9d954418546998b546634",
                    "callData": "0x000000000000000000000000fd3dfb524b2da40c8a6d703c62be36b5d8540626",
                    "decodedMethod": {
                        "callParams": [
                            {
                                "name": "who",
                                "type": "address",
                                "value": "0xfd3dfb524b2da40c8a6d703c62be36b5d8540626"
                            }
                        ],
                        "constructorArguments": "",
                        "name": "balanceOf",
                        "returnParams": [
                            {
                                "decimalAvailable": true,
                                "name": "",
                                "type": "uint256",
                                "value": "837,673,341,003,909,325"
                            }
                        ],
                        "signature": "balanceOf(address)"
                    },
                    "errorInfo": "",
                    "fromAddress": "0xfd3dfb524b2da40c8a6d703c62be36b5d8540626",
                    "gasUsed": 958,
                    "id": 34,
                    "methodDecoded": true,
                    "operation": "STATICCALL",
                    "output": "0x0000000000000000000000000000000000000000000000000ba00377285a48cd",
                    "revert": false,
                    "revertMessage": "",
                    "selector": "0x70a08231",
                    "status": true,
                    "value": "0"
                },
                "nodeType": 0
            },
            "35": {
                "invocation": {
                    "address": "0xfd3dfb524b2da40c8a6d703c62be36b5d8540626",
                    "callData": "0x00000000000000000000000027c70cd1946795b66be9d954418546998b54663400000000000000000000000000000000000000000000000000000000000000000000000000000000000000000000000000000000000000000004668146a5f67500000000000000000000000000000001000000000000000000000000000000010000000000000000000000000000000000000000000000000000000000000002",
                    "decodedMethod": null,
                    "errorInfo": "",
                    "fromAddress": "0xfd3dfb524b2da40c8a6d703c62be36b5d8540626",
                    "gasUsed": 30346,
                    "id": 35,
                    "methodDecoded": false,
                    "operation": "CALL",
                    "output": "",
                    "revert": false,
                    "revertMessage": "",
                    "selector": "0x05971224",
                    "status": true,
                    "value": "0"
                },
                "nodeType": 0
            },
            "36": {
                "invocation": {
                    "address": "0xfd3dfb524b2da40c8a6d703c62be36b5d8540626",
                    "callData": "0x00000000000000000000000027c70cd1946795b66be9d954418546998b546634000000000000000000000000dd9f24efc84d93deef3c8745c837ab63e80abd270000000000000000000000000000000000000000000000000004668146a5f675",
                    "decodedMethod": {
                        "callParams": [
                            {
                                "name": "token",
                                "type": "address",
                                "value": "0x27c70cd1946795b66be9d954418546998b546634"
                            },
                            {
                                "name": "to",
                                "type": "address",
                                "value": "0xdd9f24efc84d93deef3c8745c837ab63e80abd27"
                            },
                            {
                                "name": "value",
                                "type": "uint256",
                                "value": "1,238,605,328,938,613"
                            }
                        ],
                        "constructorArguments": "",
                        "name": "safeTransfer",
                        "returnParams": [],
                        "signature": "safeTransfer(address,address,uint256)"
                    },
                    "errorInfo": "",
                    "fromAddress": "0xfd3dfb524b2da40c8a6d703c62be36b5d8540626",
                    "gasUsed": 27869,
                    "id": 36,
                    "methodDecoded": true,
                    "operation": "CALL",
                    "output": "",
                    "revert": false,
                    "revertMessage": "",
                    "selector": "0xd1660f99",
                    "status": true,
                    "value": "0"
                },
                "nodeType": 0
            },
            "37": {
                "invocation": {
                    "address": "0x27c70cd1946795b66be9d954418546998b546634",
                    "callData": "0x000000000000000000000000dd9f24efc84d93deef3c8745c837ab63e80abd270000000000000000000000000000000000000000000000000004668146a5f675",
                    "decodedMethod": {
                        "callParams": [
                            {
                                "name": "to",
                                "type": "address",
                                "value": "0xdd9f24efc84d93deef3c8745c837ab63e80abd27"
                            },
                            {
                                "decimalAvailable": true,
                                "name": "value",
                                "type": "uint256",
                                "value": "1,238,605,328,938,613"
                            }
                        ],
                        "constructorArguments": "",
                        "name": "transfer",
                        "returnParams": [
                            {
                                "name": "",
                                "type": "bool",
                                "value": true
                            }
                        ],
                        "signature": "transfer(address,uint256)"
                    },
                    "errorInfo": "",
                    "fromAddress": "0xfd3dfb524b2da40c8a6d703c62be36b5d8540626",
                    "gasUsed": 26125,
                    "id": 37,
                    "methodDecoded": true,
                    "operation": "CALL",
                    "output": "0x0000000000000000000000000000000000000000000000000000000000000001",
                    "revert": false,
                    "revertMessage": "",
                    "selector": "0xa9059cbb",
                    "status": true,
                    "value": "0"
                },
                "nodeType": 0
            },
            "38": {
                "event": {
                    "contract": "0x27c70cd1946795b66be9d954418546998b546634",
                    "decodedLog": {
                        "name": "Transfer",
                        "params": [
                            {
                                "name": "from",
                                "type": "address",
                                "value": "0xfd3dfb524b2da40c8a6d703c62be36b5d8540626"
                            },
                            {
                                "name": "to",
                                "type": "address",
                                "value": "0xdd9f24efc84d93deef3c8745c837ab63e80abd27"
                            },
                            {
                                "decimalAvailable": true,
                                "name": "value",
                                "type": "uint256",
                                "value": "1,238,605,328,938,613"
                            }
                        ],
                        "signature": "Transfer(address,address,uint256)"
                    },
                    "id": 38,
                    "logData": "0x0000000000000000000000000000000000000000000000000004668146a5f675",
                    "logDecoded": true,
                    "operation": "EVENT",
                    "revert": false,
                    "status": true,
                    "topics": [
                        "0xddf252ad1be2c89b69c2b068fc378daa952ba7f163c4a11628f55a4df523b3ef",
                        "0x000000000000000000000000fd3dfb524b2da40c8a6d703c62be36b5d8540626",
                        "0x000000000000000000000000dd9f24efc84d93deef3c8745c837ab63e80abd27"
                    ]
                },
                "nodeType": 1
            },
            "39": {
                "invocation": {
                    "address": "0xfd3dfb524b2da40c8a6d703c62be36b5d8540626",
                    "callData": "0x0000000000000000000000000000000000000000000000000000000000000080800000000000000000000000000000000000000000000000000000000000004400000000000000000000000027c70cd1946795b66be9d954418546998b546634000000000000000000000000000000010000000000000000000000000000000100000000000000000000000000000000000000000000000000000000000000000000000000000000000000000000000000000000000000000000000000000000000000000000000000000000000000000000000000000000000000000000000000000000000000000000000000000000000000000000000000000000000000800000000000000000000000000000000000000000000000000000000000000064d1660f9900000000000000000000000027c70cd1946795b66be9d954418546998b5466340000000000000000000000000d0bd6469be80d57893cf1b21434936dfaa35319000000000000000000000000000000000000000000000000000000000000000100000000000000000000000000000000000000000000000000000000",
                    "decodedMethod": null,
                    "errorInfo": "",
                    "fromAddress": "0xfd3dfb524b2da40c8a6d703c62be36b5d8540626",
                    "gasUsed": 29968,
                    "id": 39,
                    "methodDecoded": false,
                    "operation": "CALL",
                    "output": "",
                    "revert": false,
                    "revertMessage": "",
                    "selector": "0xb3af37c0",
                    "status": true,
                    "value": "0"
                },
                "nodeType": 0
            },
            "4": {
                "invocation": {
                    "address": "0x27c70cd1946795b66be9d954418546998b546634",
                    "callData": "0x0000000000000000000000000d0bd6469be80d57893cf1b21434936dfaa35319",
                    "decodedMethod": {
                        "callParams": [
                            {
                                "name": "who",
                                "type": "address",
                                "value": "0x0d0bd6469be80d57893cf1b21434936dfaa35319"
                            }
                        ],
                        "constructorArguments": "",
                        "name": "balanceOf",
                        "returnParams": [
                            {
                                "decimalAvailable": true,
                                "name": "",
                                "type": "uint256",
                                "value": "0"
                            }
                        ],
                        "signature": "balanceOf(address)"
                    },
                    "errorInfo": "",
                    "fromAddress": "0x11111112542d85b3ef69ae05771c2dccff4faa26",
                    "gasUsed": 4958,
                    "id": 4,
                    "methodDecoded": true,
                    "operation": "STATICCALL",
                    "output": "0x0000000000000000000000000000000000000000000000000000000000000000",
                    "revert": false,
                    "revertMessage": "",
                    "selector": "0x70a08231",
                    "status": true,
                    "value": "0"
                },
                "nodeType": 0
            },
            "40": {
                "invocation": {
                    "address": "0x27c70cd1946795b66be9d954418546998b546634",
                    "callData": "0x000000000000000000000000fd3dfb524b2da40c8a6d703c62be36b5d8540626",
                    "decodedMethod": {
                        "callParams": [
                            {
                                "name": "who",
                                "type": "address",
                                "value": "0xfd3dfb524b2da40c8a6d703c62be36b5d8540626"
                            }
                        ],
                        "constructorArguments": "",
                        "name": "balanceOf",
                        "returnParams": [
                            {
                                "decimalAvailable": true,
                                "name": "",
                                "type": "uint256",
                                "value": "836,434,735,674,970,712"
                            }
                        ],
                        "signature": "balanceOf(address)"
                    },
                    "errorInfo": "",
                    "fromAddress": "0xfd3dfb524b2da40c8a6d703c62be36b5d8540626",
                    "gasUsed": 958,
                    "id": 40,
                    "methodDecoded": true,
                    "operation": "STATICCALL",
                    "output": "0x0000000000000000000000000000000000000000000000000b9b9cf5e1b45258",
                    "revert": false,
                    "revertMessage": "",
                    "selector": "0x70a08231",
                    "status": true,
                    "value": "0"
                },
                "nodeType": 0
            },
            "41": {
                "invocation": {
                    "address": "0xfd3dfb524b2da40c8a6d703c62be36b5d8540626",
                    "callData": "0x00000000000000000000000027c70cd1946795b66be9d954418546998b5466340000000000000000000000000d0bd6469be80d57893cf1b21434936dfaa353190000000000000000000000000000000000000000000000000b9b9cf5e1b45258",
                    "decodedMethod": {
                        "callParams": [
                            {
                                "name": "token",
                                "type": "address",
                                "value": "0x27c70cd1946795b66be9d954418546998b546634"
                            },
                            {
                                "name": "to",
                                "type": "address",
                                "value": "0x0d0bd6469be80d57893cf1b21434936dfaa35319"
                            },
                            {
                                "name": "value",
                                "type": "uint256",
                                "value": "836,434,735,674,970,712"
                            }
                        ],
                        "constructorArguments": "",
                        "name": "safeTransfer",
                        "returnParams": [],
                        "signature": "safeTransfer(address,address,uint256)"
                    },
                    "errorInfo": "",
                    "fromAddress": "0xfd3dfb524b2da40c8a6d703c62be36b5d8540626",
                    "gasUsed": 25869,
                    "id": 41,
                    "methodDecoded": true,
                    "operation": "CALL",
                    "output": "",
                    "revert": false,
                    "revertMessage": "",
                    "selector": "0xd1660f99",
                    "status": true,
                    "value": "0"
                },
                "nodeType": 0
            },
            "42": {
                "invocation": {
                    "address": "0x27c70cd1946795b66be9d954418546998b546634",
                    "callData": "0x0000000000000000000000000d0bd6469be80d57893cf1b21434936dfaa353190000000000000000000000000000000000000000000000000b9b9cf5e1b45258",
                    "decodedMethod": {
                        "callParams": [
                            {
                                "name": "to",
                                "type": "address",
                                "value": "0x0d0bd6469be80d57893cf1b21434936dfaa35319"
                            },
                            {
                                "decimalAvailable": true,
                                "name": "value",
                                "type": "uint256",
                                "value": "836,434,735,674,970,712"
                            }
                        ],
                        "constructorArguments": "",
                        "name": "transfer",
                        "returnParams": [
                            {
                                "name": "",
                                "type": "bool",
                                "value": true
                            }
                        ],
                        "signature": "transfer(address,uint256)"
                    },
                    "errorInfo": "",
                    "fromAddress": "0xfd3dfb524b2da40c8a6d703c62be36b5d8540626",
                    "gasUsed": 24125,
                    "id": 42,
                    "methodDecoded": true,
                    "operation": "CALL",
                    "output": "0x0000000000000000000000000000000000000000000000000000000000000001",
                    "revert": false,
                    "revertMessage": "",
                    "selector": "0xa9059cbb",
                    "status": true,
                    "value": "0"
                },
                "nodeType": 0
            },
            "43": {
                "event": {
                    "contract": "0x27c70cd1946795b66be9d954418546998b546634",
                    "decodedLog": {
                        "name": "Transfer",
                        "params": [
                            {
                                "name": "from",
                                "type": "address",
                                "value": "0xfd3dfb524b2da40c8a6d703c62be36b5d8540626"
                            },
                            {
                                "name": "to",
                                "type": "address",
                                "value": "0x0d0bd6469be80d57893cf1b21434936dfaa35319"
                            },
                            {
                                "decimalAvailable": true,
                                "name": "value",
                                "type": "uint256",
                                "value": "836,434,735,674,970,712"
                            }
                        ],
                        "signature": "Transfer(address,address,uint256)"
                    },
                    "id": 43,
                    "logData": "0x0000000000000000000000000000000000000000000000000b9b9cf5e1b45258",
                    "logDecoded": true,
                    "operation": "EVENT",
                    "revert": false,
                    "status": true,
                    "topics": [
                        "0xddf252ad1be2c89b69c2b068fc378daa952ba7f163c4a11628f55a4df523b3ef",
                        "0x000000000000000000000000fd3dfb524b2da40c8a6d703c62be36b5d8540626",
                        "0x0000000000000000000000000d0bd6469be80d57893cf1b21434936dfaa35319"
                    ]
                },
                "nodeType": 1
            },
            "44": {
                "invocation": {
                    "address": "0x27c70cd1946795b66be9d954418546998b546634",
                    "callData": "0x0000000000000000000000000d0bd6469be80d57893cf1b21434936dfaa35319",
                    "decodedMethod": {
                        "callParams": [
                            {
                                "name": "who",
                                "type": "address",
                                "value": "0x0d0bd6469be80d57893cf1b21434936dfaa35319"
                            }
                        ],
                        "constructorArguments": "",
                        "name": "balanceOf",
                        "returnParams": [
                            {
                                "decimalAvailable": true,
                                "name": "",
                                "type": "uint256",
                                "value": "836,434,735,674,970,712"
                            }
                        ],
                        "signature": "balanceOf(address)"
                    },
                    "errorInfo": "",
                    "fromAddress": "0x11111112542d85b3ef69ae05771c2dccff4faa26",
                    "gasUsed": 958,
                    "id": 44,
                    "methodDecoded": true,
                    "operation": "STATICCALL",
                    "output": "0x0000000000000000000000000000000000000000000000000b9b9cf5e1b45258",
                    "revert": false,
                    "revertMessage": "",
                    "selector": "0x70a08231",
                    "status": true,
                    "value": "0"
                },
                "nodeType": 0
            },
            "45": {
                "event": {
                    "contract": "0x11111112542d85b3ef69ae05771c2dccff4faa26",
                    "decodedLog": {
                        "name": "Swapped",
                        "params": [
                            {
                                "name": "sender",
                                "type": "address",
                                "value": "0x0d0bd6469be80d57893cf1b21434936dfaa35319"
                            },
                            {
                                "name": "srcToken",
                                "type": "address",
                                "value": "0xa0b86991c6218b36c1d19d4a2e9eb0ce3606eb48"
                            },
                            {
                                "name": "dstToken",
                                "type": "address",
                                "value": "0x27c70cd1946795b66be9d954418546998b546634"
                            },
                            {
                                "name": "dstReceiver",
                                "type": "address",
                                "value": "0x0d0bd6469be80d57893cf1b21434936dfaa35319"
                            },
                            {
                                "name": "spentAmount",
                                "type": "uint256",
                                "value": "4,086,887,000"
                            },
                            {
                                "name": "returnAmount",
                                "type": "uint256",
                                "value": "836,434,735,674,970,712"
                            }
                        ],
                        "signature": "Swapped(address,address,address,address,uint256,uint256)"
                    },
                    "id": 45,
                    "logData": "0x0000000000000000000000000d0bd6469be80d57893cf1b21434936dfaa35319000000000000000000000000a0b86991c6218b36c1d19d4a2e9eb0ce3606eb4800000000000000000000000027c70cd1946795b66be9d954418546998b5466340000000000000000000000000d0bd6469be80d57893cf1b21434936dfaa3531900000000000000000000000000000000000000000000000000000000f398f2580000000000000000000000000000000000000000000000000b9b9cf5e1b45258",
                    "logDecoded": true,
                    "operation": "EVENT",
                    "revert": false,
                    "status": true,
                    "topics": [
                        "0xd6d4f5681c246c9f42c203e287975af1601f8df8035a9251f79aab5c8f09e2f8"
                    ]
                },
                "nodeType": 1
            },
            "5": {
                "invocation": {
                    "address": "0xfd3dfb524b2da40c8a6d703c62be36b5d8540626",
                    "callData": "0x0000000000000000000000000000000000000000000000000000000000000020000000000000000000000000000000000000000000000000000000000000000600000000000000000000000000000000000000000000000000000000000000c000000000000000000000000000000000000000000000000000000000000001e00000000000000000000000000000000000000000000000000000000000000340000000000000000000000000000000000000000000000000000000000000058000000000000000000000000000000000000000000000000000000000000006e00000000000000000000000000000000000000000000000000000000000000a0000000000000000000000000000000000000000000000000000000000000000000000000000000000000000000000000000000000000000000000000000000000000000000000000000000000000000000000000000000000000000000000000000000000000000000000000000000000000000000000000000000000000000800000000000000000000000000000000000000000000000000000000000000064eb5625d9000000000000000000000000a0b86991c6218b36c1d19d4a2e9eb0ce3606eb48000000000000000000000000f4d8c95478d9fb81c3ba863353b19f5484e799ed00000000000000000000000000000000000000000000000000000000f398f25800000000000000000000000000000000000000000000000000000000800000000000000000000000f4d8c95478d9fb81c3ba863353b19f5484e799ed00000000000000000000000000000000000000000000000000000000000000000000000000000000000000000000000000000000000000000000000000000000000000000000000000000000000000000000000000000000000000000000008000000000000000000000000000000000000000000000000000000000000000a48201aa3f000000000000000000000000a0b86991c6218b36c1d19d4a2e9eb0ce3606eb4800000000000000000000000000000000000000000000000000000000f398f258000000000000000000000000c02aaa39b223fe8d0a0e5c4f27ead9083c756cc20000000000000000000000000000000000000000000000000000000000000001ffffffffffffffffffffffffffffffffffffffffffffffffffffffffffffffff0000000000000000000000000000000000000000000000000000000080000000000000000000000000000000000000000000000000000000000000000000000000000000000000000000000000000000000000000000000000000000000000000000000000000000000000000000000000000000000000000000000000000000000000000000000000000000000000000000000000000000000000800000000000000000000000000000000000000000000000000000000000000184b3af37c000000000000000000000000000000000000000000000000000000000000000808000000000000000000000000000000000000000000000000000000000000024000000000000000000000000c02aaa39b223fe8d0a0e5c4f27ead9083c756cc20000000000000000000000000000005000000000000000000000000000000050000000000000000000000000c02aaa39b223fe8d0a0e5c4f27ead9083c756cc20000000000000000000000000000000000000000000000000000000000000000000000000000000000000000000000000000000000000000000000000000000000000000000000000000000000000000000000000000000000000000000000800000000000000000000000000000000000000000000000000000000000000044a9059cbb000000000000000000000000874376be8231dad99aabf9ef0767b3cc054c60ee00000000000000000000000000000000000000000000000000000000000000010000000000000000000000000000000000000000000000000000000000000000000000000000000000000000000000000000000000000000800000000000000000000000000000000000000000000000000000000000000000000000000000000000000000000000000000000000000000000000000000000000000000000000000000000000000000000000000000000000000000000000000000000000000000000000000000000000000000000000000000000000008000000000000000000000000000000000000000000000000000000000000000a4c9f12e9d000000000000000000000000874376be8231dad99aabf9ef0767b3cc054c60ee000000000000000000000000c02aaa39b223fe8d0a0e5c4f27ead9083c756cc200000000000000000000000027c70cd1946795b66be9d954418546998b546634000000000000000000000003fd3dfb524b2da40c8a6d703c62be36b5d8540626000000000000000000000000000000000000000000000000000000000000000000000000000000000000000000000000000000000000000000000000000000000000000000000000000000000000000000000000000000000000000000000000000000000000000000000000000000000000000000000000000000000000000000000000000000000000000000000000000000000000000000000000000000000000000000000000000000000000000000000000000000000000008000000000000000000000000000000000000000000000000000000000000002647f8fe7a000000000000000000000000000000000000000000000000000000000000000808000000000000000000000000000000000000000000000000000000000000044000000000000000000000000fd3dfb524b2da40c8a6d703c62be36b5d854062600000000000000000000000000000000000000000000000000000000000001e0000000000000000000000000000000000000000000000000000000000000000000000000000000000000000000000000000000000000000000000000000000000000000000000000000000000000000000000000000000000000000000000000000000000000000000000000000000000000000000000000000000000000008000000000000000000000000000000000000000000000000000000000000000a40597122400000000000000000000000027c70cd1946795b66be9d954418546998b546634000000000000000000000000000000000000000000000000000000000000000000000000000000000000000000000000000000000000000000000000000000010000000000000000000000000000000100000000000000000000000000000001000000000000000000000000000000000000000000000000000000000000000200000000000000000000000000000000000000000000000000000000000000000000000000000000000000000000000000000000000000000000004470bdb94700000000000000000000000027c70cd1946795b66be9d954418546998b5466340000000000000000000000000000000000000000000000000b9b9cf5e1b452580000000000000000000000000000000000000000000000000000000000000000000000000000000000000000000000000000000000000000000000000000000000000000000000000000000000000000000000000000000000000000000000000000000000000000000000000000000000000000000000000000000000000000000000000000000000000000000000000000000000000000000000000000000000000000000000000000000000000000000000000000008000000000000000000000000000000000000000000000000000000000000001a4b3af37c00000000000000000000000000000000000000000000000000000000000000080800000000000000000000000000000000000000000000000000000000000004400000000000000000000000027c70cd1946795b66be9d954418546998b546634000000000000000000000000000000010000000000000000000000000000000100000000000000000000000000000000000000000000000000000000000000000000000000000000000000000000000000000000000000000000000000000000000000000000000000000000000000000000000000000000000000000000000000000000000000000000000000000000000000000000000000000000000000800000000000000000000000000000000000000000000000000000000000000064d1660f9900000000000000000000000027c70cd1946795b66be9d954418546998b5466340000000000000000000000000d0bd6469be80d57893cf1b21434936dfaa3531900000000000000000000000000000000000000000000000000000000000000010000000000000000000000000000000000000000000000000000000000000000000000000000000000000000000000000000000000000000",
                    "decodedMethod": {
                        "callParams": [
                            {
                                "name": "callerCallData",
                                "type": "bytes",
                                "value": "0x000000000000"
                            }
                        ],
                        "constructorArguments": "",
                        "name": "callBytes",
                        "returnParams": [],
                        "signature": "callBytes(bytes)"
                    },
                    "errorInfo": "",
                    "fromAddress": "0x11111112542d85b3ef69ae05771c2dccff4faa26",
                    "gasUsed": 272156,
                    "id": 5,
                    "methodDecoded": true,
                    "operation": "CALL",
                    "output": "",
                    "revert": false,
                    "revertMessage": "",
                    "selector": "0xd9c45357",
                    "status": true,
                    "value": "0"
                },
                "nodeType": 0
            },
            "6": {
                "invocation": {
                    "address": "0xfd3dfb524b2da40c8a6d703c62be36b5d8540626",
                    "callData": "0x000000000000000000000000a0b86991c6218b36c1d19d4a2e9eb0ce3606eb48000000000000000000000000f4d8c95478d9fb81c3ba863353b19f5484e799ed00000000000000000000000000000000000000000000000000000000f398f258",
                    "decodedMethod": {
                        "callParams": [
                            {
                                "name": "token",
                                "type": "address",
                                "value": "0xa0b86991c6218b36c1d19d4a2e9eb0ce3606eb48"
                            },
                            {
                                "name": "spender",
                                "type": "address",
                                "value": "0xf4d8c95478d9fb81c3ba863353b19f5484e799ed"
                            },
                            {
                                "name": "amount",
                                "type": "uint256",
                                "value": "4,086,887,000"
                            }
                        ],
                        "constructorArguments": "",
                        "name": "safeApprove",
                        "returnParams": [],
                        "signature": "safeApprove(address,address,uint256)"
                    },
                    "errorInfo": "",
                    "fromAddress": "0xfd3dfb524b2da40c8a6d703c62be36b5d8540626",
                    "gasUsed": 29582,
                    "id": 6,
                    "methodDecoded": true,
                    "operation": "CALL",
                    "output": "",
                    "revert": false,
                    "revertMessage": "",
                    "selector": "0xeb5625d9",
                    "status": true,
                    "value": "0"
                },
                "nodeType": 0
            },
            "7": {
                "invocation": {
                    "address": "0xa0b86991c6218b36c1d19d4a2e9eb0ce3606eb48",
                    "callData": "0x000000000000000000000000f4d8c95478d9fb81c3ba863353b19f5484e799ed00000000000000000000000000000000000000000000000000000000f398f258",
                    "decodedMethod": {
                        "callParams": [
                            {
                                "name": "spender",
                                "type": "address",
                                "value": "0xf4d8c95478d9fb81c3ba863353b19f5484e799ed"
                            },
                            {
                                "decimalAvailable": true,
                                "name": "value",
                                "type": "uint256",
                                "value": "4,086,887,000"
                            }
                        ],
                        "constructorArguments": "",
                        "name": "approve",
                        "returnParams": [
                            {
                                "name": "",
                                "type": "bool",
                                "value": true
                            }
                        ],
                        "signature": "approve(address,uint256)"
                    },
                    "errorInfo": "",
                    "fromAddress": "0xfd3dfb524b2da40c8a6d703c62be36b5d8540626",
                    "gasUsed": 27867,
                    "id": 7,
                    "methodDecoded": true,
                    "operation": "CALL",
                    "output": "0x0000000000000000000000000000000000000000000000000000000000000001",
                    "revert": false,
                    "revertMessage": "",
                    "selector": "0x095ea7b3",
                    "status": true,
                    "value": "0"
                },
                "nodeType": 0
            },
            "8": {
                "invocation": {
                    "address": "0xa2327a938febf5fec13bacfb16ae10ecbc4cbdcf",
                    "callData": "0x000000000000000000000000f4d8c95478d9fb81c3ba863353b19f5484e799ed00000000000000000000000000000000000000000000000000000000f398f258",
                    "decodedMethod": {
                        "callParams": [
                            {
                                "name": "spender",
                                "type": "address",
                                "value": "0xf4d8c95478d9fb81c3ba863353b19f5484e799ed"
                            },
                            {
                                "decimalAvailable": true,
                                "name": "value",
                                "type": "uint256",
                                "value": "4,086,887,000"
                            }
                        ],
                        "constructorArguments": "",
                        "name": "approve",
                        "returnParams": [
                            {
                                "name": "",
                                "type": "bool",
                                "value": true
                            }
                        ],
                        "signature": "approve(address,uint256)"
                    },
                    "errorInfo": "",
                    "fromAddress": "0xa0b86991c6218b36c1d19d4a2e9eb0ce3606eb48",
                    "gasUsed": 27078,
                    "id": 8,
                    "methodDecoded": true,
                    "operation": "DELEGATECALL",
                    "output": "0x0000000000000000000000000000000000000000000000000000000000000001",
                    "revert": false,
                    "revertMessage": "",
                    "selector": "0x095ea7b3",
                    "status": true,
                    "value": "0"
                },
                "nodeType": 0
            },
            "9": {
                "event": {
                    "contract": "0xa0b86991c6218b36c1d19d4a2e9eb0ce3606eb48",
                    "decodedLog": {
                        "name": "Approval",
                        "params": [
                            {
                                "name": "owner",
                                "type": "address",
                                "value": "0xfd3dfb524b2da40c8a6d703c62be36b5d8540626"
                            },
                            {
                                "name": "spender",
                                "type": "address",
                                "value": "0xf4d8c95478d9fb81c3ba863353b19f5484e799ed"
                            },
                            {
                                "decimalAvailable": true,
                                "name": "value",
                                "type": "uint256",
                                "value": "4,086,887,000"
                            }
                        ],
                        "signature": "Approval(address,address,uint256)"
                    },
                    "id": 9,
                    "logData": "0x00000000000000000000000000000000000000000000000000000000f398f258",
                    "logDecoded": true,
                    "operation": "EVENT",
                    "revert": false,
                    "status": true,
                    "topics": [
                        "0x8c5be1e5ebec7d5bd14f71427d1e84f3dd0314c0f7b2291e5b200ac8c7c3b925",
                        "0x000000000000000000000000fd3dfb524b2da40c8a6d703c62be36b5d8540626",
                        "0x000000000000000000000000f4d8c95478d9fb81c3ba863353b19f5484e799ed"
                    ]
                },
                "nodeType": 1
            }
        },
        "gasFlame": [
            {
                "children": [
                    {
                        "children": [
                            {
                                "children": [],
                                "depth": 0,
                                "name": "Initial Gas",
                                "value": 43168
                            },
                            {
                                "children": [
                                    {
                                        "children": [
                                            {
                                                "children": [],
                                                "depth": 2,
                                                "name": "transferFrom",
                                                "value": 44697
                                            }
                                        ],
                                        "depth": 1,
                                        "name": "transferFrom",
                                        "value": 51992
                                    },
                                    {
                                        "children": [],
                                        "depth": 1,
                                        "name": "balanceOf",
                                        "value": 4958
                                    },
                                    {
                                        "children": [
                                            {
                                                "children": [
                                                    {
                                                        "children": [
                                                            {
                                                                "children": [],
                                                                "depth": 4,
                                                                "name": "approve",
                                                                "value": 27078
                                                            }
                                                        ],
                                                        "depth": 3,
                                                        "name": "approve",
                                                        "value": 27867
                                                    }
                                                ],
                                                "depth": 2,
                                                "name": "safeApprove",
                                                "value": 29582
                                            },
                                            {
                                                "children": [
                                                    {
                                                        "children": [
                                                            {
                                                                "children": [],
                                                                "depth": 4,
                                                                "name": "transferFrom",
                                                                "value": 9997
                                                            }
                                                        ],
                                                        "depth": 3,
                                                        "name": "transferFrom",
                                                        "value": 10792
                                                    },
                                                    {
                                                        "children": [],
                                                        "depth": 3,
                                                        "name": "transfer",
                                                        "value": 29962
                                                    }
                                                ],
                                                "depth": 2,
                                                "name": "swapExactAmountIn",
                                                "value": 92631
                                            },
                                            {
                                                "children": [
                                                    {
                                                        "children": [],
                                                        "depth": 3,
                                                        "name": "balanceOf",
                                                        "value": 534
                                                    },
                                                    {
                                                        "children": [],
                                                        "depth": 3,
                                                        "name": "transfer",
                                                        "value": 8062
                                                    }
                                                ],
                                                "depth": 2,
                                                "name": "0xb3af37c0",
                                                "value": 11745
                                            },
                                            {
                                                "children": [
                                                    {
                                                        "children": [],
                                                        "depth": 3,
                                                        "name": "balanceOf",
                                                        "value": 534
                                                    },
                                                    {
                                                        "children": [],
                                                        "depth": 3,
                                                        "name": "getReserves",
                                                        "value": 2504
                                                    },
                                                    {
                                                        "children": [
                                                            {
                                                                "children": [],
                                                                "depth": 4,
                                                                "name": "transfer",
                                                                "value": 32925
                                                            },
                                                            {
                                                                "children": [],
                                                                "depth": 4,
                                                                "name": "balanceOf",
                                                                "value": 958
                                                            },
                                                            {
                                                                "children": [],
                                                                "depth": 4,
                                                                "name": "balanceOf",
                                                                "value": 534
                                                            }
                                                        ],
                                                        "depth": 3,
                                                        "name": "swap",
                                                        "value": 55324
                                                    }
                                                ],
                                                "depth": 2,
                                                "name": "0xc9f12e9d",
                                                "value": 64230
                                            },
                                            {
                                                "children": [
                                                    {
                                                        "children": [
                                                            {
                                                                "children": [],
                                                                "depth": 4,
                                                                "name": "balanceOf",
                                                                "value": 958
                                                            }
                                                        ],
                                                        "depth": 3,
                                                        "name": "0x70bdb947",
                                                        "value": 2181
                                                    },
                                                    {
                                                        "children": [
                                                            {
                                                                "children": [
                                                                    {
                                                                        "children": [],
                                                                        "depth": 5,
                                                                        "name": "transfer",
                                                                        "value": 26125
                                                                    }
                                                                ],
                                                                "depth": 4,
                                                                "name": "safeTransfer",
                                                                "value": 27869
                                                            }
                                                        ],
                                                        "depth": 3,
                                                        "name": "0x05971224",
                                                        "value": 30346
                                                    }
                                                ],
                                                "depth": 2,
                                                "name": "0x7f8fe7a0",
                                                "value": 35597
                                            },
                                            {
                                                "children": [
                                                    {
                                                        "children": [],
                                                        "depth": 3,
                                                        "name": "balanceOf",
                                                        "value": 958
                                                    },
                                                    {
                                                        "children": [
                                                            {
                                                                "children": [],
                                                                "depth": 4,
                                                                "name": "transfer",
                                                                "value": 24125
                                                            }
                                                        ],
                                                        "depth": 3,
                                                        "name": "safeTransfer",
                                                        "value": 25869
                                                    }
                                                ],
                                                "depth": 2,
                                                "name": "0xb3af37c0",
                                                "value": 29968
                                            }
                                        ],
                                        "depth": 1,
                                        "name": "callBytes",
                                        "value": 272156
                                    },
                                    {
                                        "children": [],
                                        "depth": 1,
                                        "name": "balanceOf",
                                        "value": 958
                                    }
                                ],
                                "depth": 0,
                                "name": "Executed Gas",
                                "value": 353935
                            }
                        ],
                        "depth": -1,
                        "name": "Actual Gas Used",
                        "value": 296903
                    },
                    {
                        "children": [],
                        "depth": -1,
                        "name": "Refunded Gas",
                        "value": 100200
                    }
                ],
                "depth": -2,
                "name": "Total Gas",
                "value": 397103
            }
        ],
        "isConfirmed": true,
        "mainTrace": [
            {
                "children": [
                    {
                        "children": [
                            {
                                "children": [
                                    {
                                        "children": [
                                            {
                                                "children": [],
                                                "depth": 3,
                                                "id": 3,
                                                "order": 3
                                            }
                                        ],
                                        "depth": 2,
                                        "id": 2,
                                        "order": 2
                                    }
                                ],
                                "depth": 1,
                                "id": 1,
                                "order": 1
                            },
                            {
                                "children": [],
                                "depth": 1,
                                "id": 4,
                                "order": 4
                            },
                            {
                                "children": [
                                    {
                                        "children": [
                                            {
                                                "children": [
                                                    {
                                                        "children": [
                                                            {
                                                                "children": [],
                                                                "depth": 5,
                                                                "id": 9,
                                                                "order": 9
                                                            }
                                                        ],
                                                        "depth": 4,
                                                        "id": 8,
                                                        "order": 8
                                                    }
                                                ],
                                                "depth": 3,
                                                "id": 7,
                                                "order": 7
                                            }
                                        ],
                                        "depth": 2,
                                        "id": 6,
                                        "order": 6
                                    },
                                    {
                                        "children": [
                                            {
                                                "children": [],
                                                "depth": 3,
                                                "id": 11,
                                                "order": 11
                                            },
                                            {
                                                "children": [],
                                                "depth": 3,
                                                "id": 12,
                                                "order": 12
                                            },
                                            {
                                                "children": [
                                                    {
                                                        "children": [
                                                            {
                                                                "children": [],
                                                                "depth": 5,
                                                                "id": 15,
                                                                "order": 15
                                                            }
                                                        ],
                                                        "depth": 4,
                                                        "id": 14,
                                                        "order": 14
                                                    }
                                                ],
                                                "depth": 3,
                                                "id": 13,
                                                "order": 13
                                            },
                                            {
                                                "children": [
                                                    {
                                                        "children": [],
                                                        "depth": 4,
                                                        "id": 17,
                                                        "order": 17
                                                    }
                                                ],
                                                "depth": 3,
                                                "id": 16,
                                                "order": 16
                                            }
                                        ],
                                        "depth": 2,
                                        "id": 10,
                                        "order": 10
                                    },
                                    {
                                        "children": [
                                            {
                                                "children": [],
                                                "depth": 3,
                                                "id": 19,
                                                "order": 19
                                            },
                                            {
                                                "children": [
                                                    {
                                                        "children": [],
                                                        "depth": 4,
                                                        "id": 21,
                                                        "order": 21
                                                    }
                                                ],
                                                "depth": 3,
                                                "id": 20,
                                                "order": 20
                                            }
                                        ],
                                        "depth": 2,
                                        "id": 18,
                                        "order": 18
                                    },
                                    {
                                        "children": [
                                            {
                                                "children": [],
                                                "depth": 3,
                                                "id": 23,
                                                "order": 23
                                            },
                                            {
                                                "children": [],
                                                "depth": 3,
                                                "id": 24,
                                                "order": 24
                                            },
                                            {
                                                "children": [
                                                    {
                                                        "children": [
                                                            {
                                                                "children": [],
                                                                "depth": 5,
                                                                "id": 27,
                                                                "order": 27
                                                            }
                                                        ],
                                                        "depth": 4,
                                                        "id": 26,
                                                        "order": 26
                                                    },
                                                    {
                                                        "children": [],
                                                        "depth": 4,
                                                        "id": 28,
                                                        "order": 28
                                                    },
                                                    {
                                                        "children": [],
                                                        "depth": 4,
                                                        "id": 29,
                                                        "order": 29
                                                    },
                                                    {
                                                        "children": [],
                                                        "depth": 4,
                                                        "id": 30,
                                                        "order": 30
                                                    },
                                                    {
                                                        "children": [],
                                                        "depth": 4,
                                                        "id": 31,
                                                        "order": 31
                                                    }
                                                ],
                                                "depth": 3,
                                                "id": 25,
                                                "order": 25
                                            }
                                        ],
                                        "depth": 2,
                                        "id": 22,
                                        "order": 22
                                    },
                                    {
                                        "children": [
                                            {
                                                "children": [
                                                    {
                                                        "children": [],
                                                        "depth": 4,
                                                        "id": 34,
                                                        "order": 34
                                                    }
                                                ],
                                                "depth": 3,
                                                "id": 33,
                                                "order": 33
                                            },
                                            {
                                                "children": [
                                                    {
                                                        "children": [
                                                            {
                                                                "children": [
                                                                    {
                                                                        "children": [],
                                                                        "depth": 6,
                                                                        "id": 38,
                                                                        "order": 38
                                                                    }
                                                                ],
                                                                "depth": 5,
                                                                "id": 37,
                                                                "order": 37
                                                            }
                                                        ],
                                                        "depth": 4,
                                                        "id": 36,
                                                        "order": 36
                                                    }
                                                ],
                                                "depth": 3,
                                                "id": 35,
                                                "order": 35
                                            }
                                        ],
                                        "depth": 2,
                                        "id": 32,
                                        "order": 32
                                    },
                                    {
                                        "children": [
                                            {
                                                "children": [],
                                                "depth": 3,
                                                "id": 40,
                                                "order": 40
                                            },
                                            {
                                                "children": [
                                                    {
                                                        "children": [
                                                            {
                                                                "children": [],
                                                                "depth": 5,
                                                                "id": 43,
                                                                "order": 43
                                                            }
                                                        ],
                                                        "depth": 4,
                                                        "id": 42,
                                                        "order": 42
                                                    }
                                                ],
                                                "depth": 3,
                                                "id": 41,
                                                "order": 41
                                            }
                                        ],
                                        "depth": 2,
                                        "id": 39,
                                        "order": 39
                                    }
                                ],
                                "depth": 1,
                                "id": 5,
                                "order": 5
                            },
                            {
                                "children": [],
                                "depth": 1,
                                "id": 44,
                                "order": 44
                            },
                            {
                                "children": [],
                                "depth": 1,
                                "id": 45,
                                "order": 45
                            }
                        ],
                        "depth": 0,
                        "id": 0,
                        "order": 0
                    }
                ],
                "depth": -1,
                "id": -1,
                "order": -1
            }
        ],
        "mainTraceNodeCount": 46,
        "parentIdMap": {
            "0": -1,
            "1": 0,
            "10": 5,
            "11": 10,
            "12": 10,
            "13": 10,
            "14": 13,
            "15": 14,
            "16": 10,
            "17": 16,
            "18": 5,
            "19": 18,
            "2": 1,
            "20": 18,
            "21": 20,
            "22": 5,
            "23": 22,
            "24": 22,
            "25": 22,
            "26": 25,
            "27": 26,
            "28": 25,
            "29": 25,
            "3": 2,
            "30": 25,
            "31": 25,
            "32": 5,
            "33": 32,
            "34": 33,
            "35": 32,
            "36": 35,
            "37": 36,
            "38": 37,
            "39": 5,
            "4": 0,
            "40": 39,
            "41": 39,
            "42": 41,
            "43": 42,
            "44": 0,
            "45": 0,
            "5": 0,
            "6": 5,
            "7": 6,
            "8": 7,
            "9": 8
        },
        "tidyTrace": [
            {
                "children": [
                    {
                        "children": [
                            {
                                "children": [
                                    {
                                        "children": [
                                            {
                                                "children": [],
                                                "depth": 3,
                                                "id": 3,
                                                "order": 3
                                            }
                                        ],
                                        "depth": 2,
                                        "id": 2,
                                        "order": 2
                                    }
                                ],
                                "depth": 1,
                                "id": 1,
                                "order": 1
                            },
                            {
                                "children": [
                                    {
                                        "children": [
                                            {
                                                "children": [
                                                    {
                                                        "children": [
                                                            {
                                                                "children": [],
                                                                "depth": 5,
                                                                "id": 9,
                                                                "order": 9
                                                            }
                                                        ],
                                                        "depth": 4,
                                                        "id": 8,
                                                        "order": 8
                                                    }
                                                ],
                                                "depth": 3,
                                                "id": 7,
                                                "order": 7
                                            }
                                        ],
                                        "depth": 2,
                                        "id": 6,
                                        "order": 6
                                    },
                                    {
                                        "children": [
                                            {
                                                "children": [],
                                                "depth": 3,
                                                "id": 11,
                                                "order": 11
                                            },
                                            {
                                                "children": [],
                                                "depth": 3,
                                                "id": 12,
                                                "order": 12
                                            },
                                            {
                                                "children": [
                                                    {
                                                        "children": [
                                                            {
                                                                "children": [],
                                                                "depth": 5,
                                                                "id": 15,
                                                                "order": 15
                                                            }
                                                        ],
                                                        "depth": 4,
                                                        "id": 14,
                                                        "order": 14
                                                    }
                                                ],
                                                "depth": 3,
                                                "id": 13,
                                                "order": 13
                                            },
                                            {
                                                "children": [
                                                    {
                                                        "children": [],
                                                        "depth": 4,
                                                        "id": 17,
                                                        "order": 17
                                                    }
                                                ],
                                                "depth": 3,
                                                "id": 16,
                                                "order": 16
                                            }
                                        ],
                                        "depth": 2,
                                        "id": 10,
                                        "order": 10
                                    },
                                    {
                                        "children": [
                                            {
                                                "children": [
                                                    {
                                                        "children": [],
                                                        "depth": 4,
                                                        "id": 21,
                                                        "order": 21
                                                    }
                                                ],
                                                "depth": 3,
                                                "id": 20,
                                                "order": 20
                                            }
                                        ],
                                        "depth": 2,
                                        "id": 18,
                                        "order": 18
                                    },
                                    {
                                        "children": [
                                            {
                                                "children": [
                                                    {
                                                        "children": [
                                                            {
                                                                "children": [],
                                                                "depth": 5,
                                                                "id": 27,
                                                                "order": 27
                                                            }
                                                        ],
                                                        "depth": 4,
                                                        "id": 26,
                                                        "order": 26
                                                    },
                                                    {
                                                        "children": [],
                                                        "depth": 4,
                                                        "id": 30,
                                                        "order": 30
                                                    },
                                                    {
                                                        "children": [],
                                                        "depth": 4,
                                                        "id": 31,
                                                        "order": 31
                                                    }
                                                ],
                                                "depth": 3,
                                                "id": 25,
                                                "order": 25
                                            }
                                        ],
                                        "depth": 2,
                                        "id": 22,
                                        "order": 22
                                    },
                                    {
                                        "children": [
                                            {
                                                "children": [
                                                    {
                                                        "children": [
                                                            {
                                                                "children": [
                                                                    {
                                                                        "children": [],
                                                                        "depth": 6,
                                                                        "id": 38,
                                                                        "order": 38
                                                                    }
                                                                ],
                                                                "depth": 5,
                                                                "id": 37,
                                                                "order": 37
                                                            }
                                                        ],
                                                        "depth": 4,
                                                        "id": 36,
                                                        "order": 36
                                                    }
                                                ],
                                                "depth": 3,
                                                "id": 35,
                                                "order": 35
                                            }
                                        ],
                                        "depth": 2,
                                        "id": 32,
                                        "order": 32
                                    },
                                    {
                                        "children": [
                                            {
                                                "children": [
                                                    {
                                                        "children": [
                                                            {
                                                                "children": [],
                                                                "depth": 5,
                                                                "id": 43,
                                                                "order": 43
                                                            }
                                                        ],
                                                        "depth": 4,
                                                        "id": 42,
                                                        "order": 42
                                                    }
                                                ],
                                                "depth": 3,
                                                "id": 41,
                                                "order": 41
                                            }
                                        ],
                                        "depth": 2,
                                        "id": 39,
                                        "order": 39
                                    }
                                ],
                                "depth": 1,
                                "id": 5,
                                "order": 5
                            },
                            {
                                "children": [],
                                "depth": 1,
                                "id": 45,
                                "order": 45
                            }
                        ],
                        "depth": 0,
                        "id": 0,
                        "order": 0
                    }
                ],
                "depth": -1,
                "id": -1,
                "order": -1
            }
        ],
        "tidyTraceNodeCount": 36
    },
    "state_change": {
        "stateChanges": [
            {
                "address": "0x27c70cd1946795b66be9d954418546998b546634",
                "erc": "ERC-20",
                "slots": [
                    {
                        "current": "0x031209e2a86f6694d28d9e9b67acb1e8970f47a097fca3f15ee4e6a4a8f3dca8",
                        "key": "0x41c8817f99c1fb9dd277565e1adb998173c586f6fe306baadf3ea134093a41d4",
                        "prev": "0x03128c70b82918074a4f7d4af5ce5acc2fda00eff17a390d78d2a10fe40670c5"
                    },
                    {
                        "current": "0x000000316b3129cddb80c34b5db51b47a212f99c82715dac0824b28dfca0b045",
                        "key": "0x68dce65236e79b5d3ba82d2a4ec1b0937d896df429e7d6e1dc31220a2dea792b",
                        "prev": "0x0000000000000000000000000000000000000000000000000000000000000000"
                    },
                    {
                        "current": "0x0000825ca48887a49c411b64306c8d9bf6b7bfb2d70c377011c907dd3e71e3d8",
                        "key": "0x5e3fa0145e802045093bd04754fb0c0e3feaae4d39f10e228127d4b8e3e63f77",
                        "prev": "0x0000000000000000000000000000000000000000000000000000000000000000"
                    }
                ],
                "storageVariables": [
                    {
                        "name": "_gonBalances",
                        "type": "mapping(address => uint256)",
                        "value": {
                            "pairs": [
                                {
                                    "key": "0x0d0bd6469be80d57893cf1b21434936dfaa35319",
                                    "value": {
                                        "current": "899724667557109655531700084112547021463328863845510962248529047907853272",
                                        "prev": "0",
                                        "typeTag": 1
                                    }
                                },
                                {
                                    "key": "0x874376be8231dad99aabf9ef0767b3cc054c60ee",
                                    "value": {
                                        "current": "1388810019319170567808743906495116518498290502933186839679375693472660184232",
                                        "prev": "1389711076312754183856297076657784452924001526474494464520881509346912399557",
                                        "typeTag": 1
                                    }
                                },
                                {
                                    "key": "0xdd9f24efc84d93deef3c8745c837ab63e80abd27",
                                    "value": {
                                        "current": "1332326026506392021470078555387404247694677462113879257286826344362053",
                                        "prev": "0",
                                        "typeTag": 1
                                    }
                                }
                            ],
                            "typeTag": 4
                        }
                    }
                ]
            },
            {
                "address": "0x874376be8231dad99aabf9ef0767b3cc054c60ee",
                "erc": "ERC-20",
                "slots": [
                    {
                        "current": "0x6098aecd000000000054a242e10f84d76d7b000000000045fdd5953522fb8bdc",
                        "key": "0x0000000000000000000000000000000000000000000000000000000000000008",
                        "prev": "0x6098aecd000000000054942bccc9246476ac000000000046097598ac4b55d4a9"
                    }
                ],
                "storageVariables": [
                    {
                        "name": "reserve0",
                        "type": "uint112",
                        "value": {
                            "current": "1291116030603046915036",
                            "prev": "1291953703944050824361",
                            "typeTag": 1
                        }
                    },
                    {
                        "name": "reserve1",
                        "type": "uint112",
                        "value": {
                            "current": "1561218657230979034491",
                            "prev": "1560203354697485285036",
                            "typeTag": 1
                        }
                    },
                    {
                        "name": "blockTimestampLast",
                        "type": "uint32",
                        "value": {
                            "current": "1620618957",
                            "prev": "1620618957",
                            "typeTag": 1
                        }
                    }
                ]
            },
            {
                "address": "0xa0b86991c6218b36c1d19d4a2e9eb0ce3606eb48",
                "erc": "ERC-20",
                "slots": [
                    {
                        "current": "0x000000000000000000000000000000000000000000000000000000741a402546",
                        "key": "0x62052f3de8646a7882d681c33c05f9113f0af68ae5ebd83c3b9ff8d047a91d73",
                        "prev": "0x0000000000000000000000000000000000000000000000000000007326a732ee"
                    },
                    {
                        "current": "0x0000000000000000000000000000000000000000000000000000000000000000",
                        "key": "0x484d8ed19a6b54d335d447e700a9514a4fa4bba8b0e7109c477b7d308548b9ad",
                        "prev": "0x00000000000000000000000000000000000000000000000000000000f398f258"
                    },
                    {
                        "current": "0xfffffffffffffffffffffffffffffffffffffffffffffffffffffffc412595a7",
                        "key": "0x4a101733694feb1452ea42dc3f6de553c01e512e1f435080878153e251e7401f",
                        "prev": "0xfffffffffffffffffffffffffffffffffffffffffffffffffffffffd34be87ff"
                    }
                ],
                "storageVariables": [
                    {
                        "name": "balances",
                        "type": "mapping(address => uint256)",
                        "value": {
                            "pairs": [
                                {
                                    "key": "0x0d0bd6469be80d57893cf1b21434936dfaa35319",
                                    "value": {
                                        "current": "0",
                                        "prev": "4086887000",
                                        "typeTag": 1
                                    }
                                },
                                {
                                    "key": "0xf4d8c95478d9fb81c3ba863353b19f5484e799ed",
                                    "value": {
                                        "current": "498656617798",
                                        "prev": "494569730798",
                                        "typeTag": 1
                                    }
                                }
                            ],
                            "typeTag": 4
                        }
                    },
                    {
                        "name": "allowed",
                        "type": "mapping(address => mapping(address => uint256))",
                        "value": {
                            "pairs": [
                                {
                                    "key": "0x0d0bd6469be80d57893cf1b21434936dfaa35319",
                                    "value": {
                                        "pairs": [
                                            {
                                                "key": "0x11111112542d85b3ef69ae05771c2dccff4faa26",
                                                "value": {
                                                    "current": "115792089237316195423570985008687907853269984665640564039457584007897042752935",
                                                    "prev": "115792089237316195423570985008687907853269984665640564039457584007901129639935",
                                                    "typeTag": 1
                                                }
                                            }
                                        ],
                                        "typeTag": 4
                                    }
                                }
                            ],
                            "typeTag": 4
                        }
                    }
                ]
            },
            {
                "address": "0xc02aaa39b223fe8d0a0e5c4f27ead9083c756cc2",
                "erc": "ERC-20",
                "slots": [
                    {
                        "current": "0x000000000000000000000000000000000000000000000011a41aac0f2cdb62dc",
                        "key": "0x419e385174e53a3f71b3274a4828e5da494156af435daaf42af1dc5d4c606107",
                        "prev": "0x000000000000000000000000000000000000000000000011b231c0558d4e59ab"
                    },
                    {
                        "current": "0x000000000000000000000000000000000000000000000054a242e10f84d76d7b",
                        "key": "0x0f00df9a18412d52c062b8d3bcce4948a233f1d667eb9b91258dd7e9eb054eff",
                        "prev": "0x000000000000000000000000000000000000000000000054942bccc9246476ac"
                    }
                ],
                "storageVariables": [
                    {
                        "name": "balanceOf",
                        "type": "mapping(address => uint256)",
                        "value": {
                            "pairs": [
                                {
                                    "key": "0x874376be8231dad99aabf9ef0767b3cc054c60ee",
                                    "value": {
                                        "current": "1561218657230979034491",
                                        "prev": "1560203354697485285036",
                                        "typeTag": 1
                                    }
                                },
                                {
                                    "key": "0xf4d8c95478d9fb81c3ba863353b19f5484e799ed",
                                    "value": {
                                        "current": "325419602205854098140",
                                        "prev": "326434904739347847595",
                                        "typeTag": 1
                                    }
                                }
                            ],
                            "typeTag": 4
                        }
                    }
                ]
            },
            {
                "address": "0xf4d8c95478d9fb81c3ba863353b19f5484e799ed",
                "erc": "ERC-20",
                "slots": [
                    {
                        "current": "0x000000000000000000000000000000000000000000000000000000741a402546",
                        "key": "0x49f94b4a8474e5f2d79309e607b8ef752c9cd6053f7950596c1f47950b798b5c",
                        "prev": "0x0000000000000000000000000000000000000000000000000000007326a732ee"
                    },
                    {
                        "current": "0x000000000000000000000000000000000000000000000011a41aac0f2cdb62dc",
                        "key": "0xd0bcf4df132c65dad73803c5e5e1c826f151a3342680034a8a4c8e5f8eb0c13f",
                        "prev": "0x000000000000000000000000000000000000000000000011b231c0558d4e59ab"
                    }
                ],
                "storageVariables": [
                    {
                        "name": "_records",
                        "type": "mapping(address => struct BPool.Record)",
                        "value": {
                            "pairs": [
                                {
                                    "key": "0xa0b86991c6218b36c1d19d4a2e9eb0ce3606eb48",
                                    "value": {
                                        "fields": [
                                            {
                                                "name": "balance",
                                                "type": "uint256",
                                                "value": {
                                                    "current": "498656617798",
                                                    "prev": "494569730798",
                                                    "typeTag": 1
                                                }
                                            }
                                        ],
                                        "typeTag": 3
                                    }
                                },
                                {
                                    "key": "0xc02aaa39b223fe8d0a0e5c4f27ead9083c756cc2",
                                    "value": {
                                        "fields": [
                                            {
                                                "name": "balance",
                                                "type": "uint256",
                                                "value": {
                                                    "current": "325419602205854098140",
                                                    "prev": "326434904739347847595",
                                                    "typeTag": 1
                                                }
                                            }
                                        ],
                                        "typeTag": 3
                                    }
                                }
                            ],
                            "typeTag": 4
                        }
                    }
                ]
            }
        ]
    }
}