{
    "balance_change": {
        "balanceChanges": [
            {
                "account": "0xc6376613c63329586ef921ae81e0609081bf46ed",
                "assets": [
                    {
                        "address": "0x71396a6410249725c5609646c4e449c6c4d41e27",
                        "amount": "3",
                        "iconUrl": "",
                        "isERC1155": false,
                        "isERC721": false,
                        "sign": false,
                        "value": ""
                    }
                ]
            },
            {
                "account": "0x780b17d02b5c1277783ae56c8cddc1141e2760de",
                "assets": [
                    {
                        "address": "0x71396a6410249725c5609646c4e449c6c4d41e27",
                        "amount": "3",
                        "iconUrl": "",
                        "isERC1155": false,
                        "isERC721": false,
                        "sign": true,
                        "value": ""
                    }
                ]
            }
        ]
    },
    "profile": {
        "basic_info": {
            "baseFee": "",
            "blockNumber": 7767822,
            "callData": "0xa9059cbb000000000000000000000000780b17d02b5c1277783ae56c8cddc1141e2760de0000000000000000000000000000000000000000000000000000000000000003",
            "debugEnable": true,
            "errorInfo": "",
            "eventCount": 1,
            "feeRecipient": "0x829bd824b016326a401d083b33d092293333a830",
            "formatValue": "0",
            "gasLimit": 90000,
            "gasPrice": "3",
            "gasUsed": 36377,
            "intTxnCount": 0,
            "internalRevert": false,
            "internalRevertMessage": "",
            "isContractCreation": false,
            "isFlashloan": false,
            "maxFee": "",
            "nonce": 21096,
            "overwritedBlockNumber": -1,
            "priorityFee": "",
            "receiver": "0x71396a6410249725c5609646c4e449c6c4d41e27",
            "revertMessage": "",
            "sender": "0xc6376613c63329586ef921ae81e0609081bf46ed",
            "simulationEnable": true,
            "sourceTxnHash": "0x7c721acd425b0ac6324200d2294cca3f53846ca37ccb457ef82c20133270ebb0",
            "status": true,
            "timestamp": "2019-05-15T23:10:11Z",
            "transactionFee": "0.000109131",
            "txnHash": "0x7c721acd425b0ac6324200d2294cca3f53846ca37ccb457ef82c20133270ebb0",
            "txnIndex": 30,
            "type": 0,
            "value": "0"
        },
        "fund_flow": [
            {
                "amount": "3",
                "from": "0xc6376613c63329586ef921ae81e0609081bf46ed",
                "id": 1,
                "isERC1155": false,
                "isERC721": false,
                "isReverted": false,
                "order": 1,
                "to": "0x780b17d02b5c1277783ae56c8cddc1141e2760de",
                "token": "0x71396a6410249725c5609646c4e449c6c4d41e27"
            }
        ],
        "token_infos": [
            {
                "address": "0x71396a6410249725c5609646c4e449c6c4d41e27",
                "decimals": 0
            },
            {
                "address": "0xc02aaa39b223fe8d0a0e5c4f27ead9083c756cc2",
                "decimals": 18
            },
            {
                "address": "0xeeeeeeeeeeeeeeeeeeeeeeeeeeeeeeeeeeeeeeee",
                "decimals": 18
            }
        ]
    },
    "address_label": {
        "labels": [
            {
                "address": "0xeeeeeeeeeeeeeeeeeeeeeeeeeeeeeeeeeeeeeeee",
                "label": "Ether"
            },
            {
                "address": "0x71396a6410249725c5609646c4e449c6c4d41e27",
                "label": "MVG Network Token"
            },
            {
                "address": "0x0000000000000000000000000000000000000001",
                "label": "Precompiled"
            },
            {
                "address": "0x0000000000000000000000000000000000000002",
                "label": "Precompiled"
            },
            {
                "address": "0x0000000000000000000000000000000000000003",
                "label": "Precompiled"
            },
            {
                "address": "0x0000000000000000000000000000000000000004",
                "label": "Precompiled"
            }
        ]
    },
    "trace": {
        "accountLabels": null,
        "dataMap": {
            "-1": {
                "invocation": {
                    "address": "0xc6376613c63329586ef921ae81e0609081bf46ed",
                    "callData": "",
                    "decodedMethod": null,
                    "errorInfo": "",
                    "fromAddress": "",
                    "gasUsed": 0,
                    "id": -1,
                    "methodDecoded": false,
                    "operation": "",
                    "output": "",
                    "revert": false,
                    "revertMessage": "",
                    "selector": "",
                    "status": false,
                    "value": ""
                },
                "nodeType": 0
            },
            "0": {
                "invocation": {
                    "address": "0x71396a6410249725c5609646c4e449c6c4d41e27",
                    "callData": "0x000000000000000000000000780b17d02b5c1277783ae56c8cddc1141e2760de0000000000000000000000000000000000000000000000000000000000000003",
                    "decodedMethod": {
                        "callParams": [
                            {
                                "name": "to",
                                "type": "address",
                                "value": "0x780b17d02b5c1277783ae56c8cddc1141e2760de"
                            },
                            {
                                "decimalAvailable": true,
                                "name": "value",
                                "type": "uint256",
                                "value": "3"
                            }
                        ],
                        "constructorArguments": "",
                        "name": "transfer",
                        "returnParams": [
                            {
                                "name": "",
                                "type": "bool",
                                "value": true
                            }
                        ],
                        "signature": "transfer(address,uint256)"
                    },
                    "errorInfo": "",
                    "fromAddress": "0xc6376613c63329586ef921ae81e0609081bf46ed",
                    "gasUsed": 36377,
                    "id": 0,
                    "methodDecoded": true,
                    "operation": "CALL",
                    "output": "0x0000000000000000000000000000000000000000000000000000000000000001",
                    "revert": false,
                    "revertMessage": "",
                    "selector": "0xa9059cbb",
                    "status": true,
                    "value": "0"
                },
                "nodeType": 0
            },
            "1": {
                "event": {
                    "contract": "0x71396a6410249725c5609646c4e449c6c4d41e27",
                    "decodedLog": {
                        "name": "Transfer",
                        "params": [
                            {
                                "name": "from",
                                "type": "address",
                                "value": "0xc6376613c63329586ef921ae81e0609081bf46ed"
                            },
                            {
                                "name": "to",
                                "type": "address",
                                "value": "0x780b17d02b5c1277783ae56c8cddc1141e2760de"
                            },
                            {
                                "decimalAvailable": true,
                                "name": "value",
                                "type": "uint256",
                                "value": "3"
                            }
                        ],
                        "signature": "Transfer(address,address,uint256)"
                    },
                    "id": 1,
                    "logData": "0x0000000000000000000000000000000000000000000000000000000000000003",
                    "logDecoded": true,
                    "operation": "EVENT",
                    "revert": false,
                    "status": true,
                    "topics": [
                        "0xddf252ad1be2c89b69c2b068fc378daa952ba7f163c4a11628f55a4df523b3ef",
                        "0x000000000000000000000000c6376613c63329586ef921ae81e0609081bf46ed",
                        "0x000000000000000000000000780b17d02b5c1277783ae56c8cddc1141e2760de"
                    ]
                },
                "nodeType": 1
            }
        },
        "gasFlame": [
            {
                "children": [
                    {
                        "children": [
                            {
                                "children": [],
                                "depth": 0,
                                "name": "Initial Gas",
                                "value": 22872
                            },
                            {
                                "children": [],
                                "depth": 0,
                                "name": "Executed Gas",
                                "value": 13505
                            }
                        ],
                        "depth": -1,
                        "name": "Actual Gas Used",
                        "value": 36377
                    },
                    {
                        "children": [],
                        "depth": -1,
                        "name": "Refunded Gas",
                        "value": 0
                    }
                ],
                "depth": -2,
                "name": "Total Gas",
                "value": 36377
            }
        ],
        "isConfirmed": true,
        "mainTrace": [
            {
                "children": [
                    {
                        "children": [
                            {
                                "children": [],
                                "depth": 1,
                                "id": 1,
                                "order": 1
                            }
                        ],
                        "depth": 0,
                        "id": 0,
                        "order": 0
                    }
                ],
                "depth": -1,
                "id": -1,
                "order": -1
            }
        ],
        "mainTraceNodeCount": 2,
        "parentIdMap": {
            "0": -1,
            "1": 0
        },
        "tidyTrace": [
            {
                "children": [
                    {
                        "children": [
                            {
                                "children": [],
                                "depth": 1,
                                "id": 1,
                                "order": 1
                            }
                        ],
                        "depth": 0,
                        "id": 0,
                        "order": 0
                    }
                ],
                "depth": -1,
                "id": -1,
                "order": -1
            }
        ],
        "tidyTraceNodeCount": 2
    },
    "state_change": {
        "stateChanges": [
            {
                "address": "0x71396a6410249725c5609646c4e449c6c4d41e27",
                "erc": "ERC-20",
                "slots": [
                    {
                        "current": "0x000000000000000000000000000000000000000000000000000000000005879a",
                        "key": "0x39f13e604e65ccb22bb13da6aa041acfaa1a99ebf79effaaded7b53f3e9851dc",
                        "prev": "0x000000000000000000000000000000000000000000000000000000000005879d"
                    },
                    {
                        "current": "0x00000000000000000000000000000000000000000000000000000000000011a8",
                        "key": "0x6de6d555c6ad701e11863da3402575e1c4d53a0fe0954d3011de3d11164257b9",
                        "prev": "0x00000000000000000000000000000000000000000000000000000000000011a5"
                    }
                ],
                "storageVariables": [
                    {
                        "name": "_balances",
                        "type": "mapping(address => uint256)",
                        "value": {
                            "pairs": [
                                {
                                    "key": "0x780b17d02b5c1277783ae56c8cddc1141e2760de",
                                    "value": {
                                        "current": "4520",
                                        "prev": "4517",
                                        "typeTag": 1
                                    }
                                },
                                {
                                    "key": "0xc6376613c63329586ef921ae81e0609081bf46ed",
                                    "value": {
                                        "current": "362394",
                                        "prev": "362397",
                                        "typeTag": 1
                                    }
                                }
                            ],
                            "typeTag": 4
                        }
                    }
                ]
            }
        ]
    }
}