{
    "balance_change": {
        "balanceChanges": [
            {
                "account": "0x6dd8ff3943002192c0e0906efee5ef9b451e18da",
                "assets": [
                    {
                        "address": "0xb311d4e8afa3f13c868ef96e0f37958f907a39f7",
                        "amount": "101,000,000,000,000,000,000",
                        "iconUrl": "",
                        "isERC1155": false,
                        "isERC721": false,
                        "sign": false,
                        "value": ""
                    }
                ]
            },
            {
                "account": "0x787ab82197d9967c71deb889d3b0804e82cef248",
                "assets": [
                    {
                        "address": "0xb311d4e8afa3f13c868ef96e0f37958f907a39f7",
                        "amount": "101,000,000,000,000,000,000",
                        "iconUrl": "",
                        "isERC1155": false,
                        "isERC721": false,
                        "sign": true,
                        "value": ""
                    }
                ]
            }
        ]
    },
    "profile": {
        "basic_info": {
            "baseFee": "",
            "blockNumber": 7791993,
            "callData": "0xa9059cbb000000000000000000000000787ab82197d9967c71deb889d3b0804e82cef24800000000000000000000000000000000000000000000000579a814e10a740000",
            "debugEnable": true,
            "errorInfo": "",
            "eventCount": 1,
            "feeRecipient": "0xea674fdde714fd979de3edf0f56aa9716b898ec8",
            "formatValue": "0",
            "gasLimit": 60000,
            "gasPrice": "6",
            "gasUsed": 36790,
            "intTxnCount": 0,
            "internalRevert": false,
            "internalRevertMessage": "",
            "isContractCreation": false,
            "isFlashloan": false,
            "maxFee": "",
            "nonce": 16547,
            "overwritedBlockNumber": -1,
            "priorityFee": "",
            "receiver": "0xb311d4e8afa3f13c868ef96e0f37958f907a39f7",
            "revertMessage": "",
            "sender": "0x6dd8ff3943002192c0e0906efee5ef9b451e18da",
            "simulationEnable": true,
            "sourceTxnHash": "0x7d9c223037ddd83a5576e91e4697e62190086056130772d711d15dff84227730",
            "status": true,
            "timestamp": "2019-05-19T18:02:35Z",
            "transactionFee": "0.00022074",
            "txnHash": "0x7d9c223037ddd83a5576e91e4697e62190086056130772d711d15dff84227730",
            "txnIndex": 80,
            "type": 0,
            "value": "0"
        },
        "fund_flow": [
            {
                "amount": "101,000,000,000,000,000,000",
                "from": "0x6dd8ff3943002192c0e0906efee5ef9b451e18da",
                "id": 1,
                "isERC1155": false,
                "isERC721": false,
                "isReverted": false,
                "order": 1,
                "to": "0x787ab82197d9967c71deb889d3b0804e82cef248",
                "token": "0xb311d4e8afa3f13c868ef96e0f37958f907a39f7"
            }
        ],
        "token_infos": [
            {
                "address": "0xc02aaa39b223fe8d0a0e5c4f27ead9083c756cc2",
                "decimals": 18
            },
            {
                "address": "0xeeeeeeeeeeeeeeeeeeeeeeeeeeeeeeeeeeeeeeee",
                "decimals": 18
            }
        ]
    },
    "address_label": {
        "labels": [
            {
                "address": "0x0000000000000000000000000000000000000003",
                "label": "Precompiled"
            },
            {
                "address": "0x0000000000000000000000000000000000000004",
                "label": "Precompiled"
            },
            {
                "address": "0xeeeeeeeeeeeeeeeeeeeeeeeeeeeeeeeeeeeeeeee",
                "label": "Ether"
            },
            {
                "address": "0x0000000000000000000000000000000000000001",
                "label": "Precompiled"
            },
            {
                "address": "0x0000000000000000000000000000000000000002",
                "label": "Precompiled"
            }
        ]
    },
    "trace": {
        "accountLabels": null,
        "dataMap": {
            "-1": {
                "invocation": {
                    "address": "0x6dd8ff3943002192c0e0906efee5ef9b451e18da",
                    "callData": "",
                    "decodedMethod": null,
                    "errorInfo": "",
                    "fromAddress": "",
                    "gasUsed": 0,
                    "id": -1,
                    "methodDecoded": false,
                    "operation": "",
                    "output": "",
                    "revert": false,
                    "revertMessage": "",
                    "selector": "",
                    "status": false,
                    "value": ""
                },
                "nodeType": 0
            },
            "0": {
                "invocation": {
                    "address": "0xb311d4e8afa3f13c868ef96e0f37958f907a39f7",
                    "callData": "0x000000000000000000000000787ab82197d9967c71deb889d3b0804e82cef24800000000000000000000000000000000000000000000000579a814e10a740000",
                    "decodedMethod": {
                        "callParams": [
                            {
                                "name": "recipient",
                                "type": "address",
                                "value": "0x787ab82197d9967c71deb889d3b0804e82cef248"
                            },
                            {
                                "decimalAvailable": true,
                                "name": "amount",
                                "type": "uint256",
                                "value": "101,000,000,000,000,000,000"
                            }
                        ],
                        "constructorArguments": "",
                        "name": "transfer",
                        "returnParams": [
                            {
                                "name": "",
                                "type": "bool",
                                "value": true
                            }
                        ],
                        "signature": "transfer(address,uint256)"
                    },
                    "errorInfo": "",
                    "fromAddress": "0x6dd8ff3943002192c0e0906efee5ef9b451e18da",
                    "gasUsed": 36790,
                    "id": 0,
                    "methodDecoded": true,
                    "operation": "CALL",
                    "output": "0x0000000000000000000000000000000000000000000000000000000000000001",
                    "revert": false,
                    "revertMessage": "",
                    "selector": "0xa9059cbb",
                    "status": true,
                    "value": "0"
                },
                "nodeType": 0
            },
            "1": {
                "event": {
                    "contract": "0xb311d4e8afa3f13c868ef96e0f37958f907a39f7",
                    "decodedLog": {
                        "name": "Transfer",
                        "params": [
                            {
                                "name": "from",
                                "type": "address",
                                "value": "0x6dd8ff3943002192c0e0906efee5ef9b451e18da"
                            },
                            {
                                "name": "to",
                                "type": "address",
                                "value": "0x787ab82197d9967c71deb889d3b0804e82cef248"
                            },
                            {
                                "decimalAvailable": true,
                                "name": "value",
                                "type": "uint256",
                                "value": "101,000,000,000,000,000,000"
                            }
                        ],
                        "signature": "Transfer(address,address,uint256)"
                    },
                    "id": 1,
                    "logData": "0x00000000000000000000000000000000000000000000000579a814e10a740000",
                    "logDecoded": true,
                    "operation": "EVENT",
                    "revert": false,
                    "status": true,
                    "topics": [
                        "0xddf252ad1be2c89b69c2b068fc378daa952ba7f163c4a11628f55a4df523b3ef",
                        "0x0000000000000000000000006dd8ff3943002192c0e0906efee5ef9b451e18da",
                        "0x000000000000000000000000787ab82197d9967c71deb889d3b0804e82cef248"
                    ]
                },
                "nodeType": 1
            }
        },
        "gasFlame": [
            {
                "children": [
                    {
                        "children": [
                            {
                                "children": [],
                                "depth": 0,
                                "name": "Initial Gas",
                                "value": 23256
                            },
                            {
                                "children": [],
                                "depth": 0,
                                "name": "Executed Gas",
                                "value": 13534
                            }
                        ],
                        "depth": -1,
                        "name": "Actual Gas Used",
                        "value": 36790
                    },
                    {
                        "children": [],
                        "depth": -1,
                        "name": "Refunded Gas",
                        "value": 0
                    }
                ],
                "depth": -2,
                "name": "Total Gas",
                "value": 36790
            }
        ],
        "isConfirmed": true,
        "mainTrace": [
            {
                "children": [
                    {
                        "children": [
                            {
                                "children": [],
                                "depth": 1,
                                "id": 1,
                                "order": 1
                            }
                        ],
                        "depth": 0,
                        "id": 0,
                        "order": 0
                    }
                ],
                "depth": -1,
                "id": -1,
                "order": -1
            }
        ],
        "mainTraceNodeCount": 2,
        "parentIdMap": {
            "0": -1,
            "1": 0
        },
        "tidyTrace": [
            {
                "children": [
                    {
                        "children": [
                            {
                                "children": [],
                                "depth": 1,
                                "id": 1,
                                "order": 1
                            }
                        ],
                        "depth": 0,
                        "id": 0,
                        "order": 0
                    }
                ],
                "depth": -1,
                "id": -1,
                "order": -1
            }
        ],
        "tidyTraceNodeCount": 2
    },
    "state_change": {
        "stateChanges": [
            {
                "address": "0xb311d4e8afa3f13c868ef96e0f37958f907a39f7",
                "erc": "",
                "slots": [
                    {
                        "current": "0x0000000000000000000000000000000000000000000328d94488a404be800000",
                        "key": "0x7587cf86ac4793512110b35154401bd2c9a806f0c4632f3434692b77358e91d2",
                        "prev": "0x0000000000000000000000000000000000000000000328debe30b8e5c8f40000"
                    },
                    {
                        "current": "0x00000000000000000000000000000000000000000000007d713373e70de80000",
                        "key": "0xc07e622cc53aaeb4da70ad9a632940408eba8e73addd661f6e7e62eca3611e77",
                        "prev": "0x000000000000000000000000000000000000000000000077f78b5f0603740000"
                    }
                ],
                "storageVariables": []
            }
        ]
    }
}