{
    "balance_change": {
        "balanceChanges": []
    },
    "profile": {
        "basic_info": {
            "baseFee": "",
            "blockNumber": 6552688,
            "callData": "0xef3435880000000000000000000000000000000000000000000000002977822b3cde0000000000000000000000000000000000000000000000000030ca024f987b900000000000000000000000000000000000000000000000000000000000000002e6300000000000000000000000000000000000000000000000000000000000000004000000000000000000000000000000000000000000000000003b44b8292fdc50000000000000000000000000000000000000000000000000000000000000040e00000000000000000000000000000000000000000000000000038d7ea4c68000000000000000000000000000000000000000000000000000016345785d8a00000000000000000000000000000000000000000000000000000000000000000000000000000000000000000000b3e2cb7cccfe139f8ff84013823bf22da6b6390a000000000000000000000000b7f70b9e0039be96af35c7e28bc38dc1fff08c170000000000000000000000005a00261013ed11db9fac4fbb9ac6274b0a1e055e000000000000000000000000000000000000000000000000000000000000001c000000000000000000000000000000000000000000000000000000000000001c03aa8232b54ecd0e476451d62ce3f0da54c5403eb475a0a68d1ca9bce4dbb8b16a0e7e39f8391481bbbe8b45c9f0645264511de2e1440e880b1f84011127780483032356d8ddedf60eaed0226dfe3a2d5f50de903e1f3f8d84ff2511d11227ba2fe363b81272d251a15c388f051e44a4eec84c4134beaed7a994794eda2a7745",
            "debugEnable": true,
            "errorInfo": "",
            "eventCount": 0,
            "feeRecipient": "0x52bc44d5378309ee2abf1539bf71de1b7d7be3b5",
            "formatValue": "0",
            "gasLimit": 210000,
            "gasPrice": "16.6",
            "gasUsed": 127324,
            "intTxnCount": 2,
            "internalRevert": false,
            "internalRevertMessage": "",
            "isContractCreation": false,
            "isFlashloan": false,
            "maxFee": "",
            "nonce": 1728971,
            "overwritedBlockNumber": -1,
            "priorityFee": "",
            "receiver": "0x2a0c0dbecc7e4d658f48e01e3fa353f44050c208",
            "revertMessage": "",
            "sender": "0xa7a7899d944fe658c4b0a1803bab2f490bd3849e",
            "simulationEnable": true,
            "sourceTxnHash": "0x7d36544fc746ad8fb80fe80cdec845a511f2f36b6a69e14edede271141142b2a",
            "status": true,
            "timestamp": "2018-10-20T21:57:05Z",
            "transactionFee": "0.0021135784",
            "txnHash": "0x7d36544fc746ad8fb80fe80cdec845a511f2f36b6a69e14edede271141142b2a",
            "txnIndex": 6,
            "type": 0,
            "value": "0"
        },
        "fund_flow": [],
        "token_infos": [
            {
                "address": "0xc02aaa39b223fe8d0a0e5c4f27ead9083c756cc2",
                "decimals": 18
            },
            {
                "address": "0xeeeeeeeeeeeeeeeeeeeeeeeeeeeeeeeeeeeeeeee",
                "decimals": 18
            }
        ]
    },
    "address_label": {
        "labels": [
            {
                "address": "0xeeeeeeeeeeeeeeeeeeeeeeeeeeeeeeeeeeeeeeee",
                "label": "Ether"
            },
            {
                "address": "0x2a0c0dbecc7e4d658f48e01e3fa353f44050c208",
                "label": "IDEX"
            },
            {
                "address": "0x0000000000000000000000000000000000000002",
                "label": "Precompiled"
            },
            {
                "address": "0x0000000000000000000000000000000000000004",
                "label": "Precompiled"
            },
            {
                "address": "0x0000000000000000000000000000000000000003",
                "label": "Precompiled"
            },
            {
                "address": "0xa7a7899d944fe658c4b0a1803bab2f490bd3849e",
                "label": "IDEX 2"
            },
            {
                "address": "0x0000000000000000000000000000000000000000",
                "label": "Null Address"
            },
            {
                "address": "0xb3e2cb7cccfe139f8ff84013823bf22da6b6390a",
                "label": "Iconic Holding: ICNQ Token"
            },
            {
                "address": "0x0000000000000000000000000000000000000001",
                "label": "Precompiled"
            }
        ]
    },
    "trace": {
        "accountLabels": null,
        "dataMap": {
            "-1": {
                "invocation": {
                    "address": "0xa7a7899d944fe658c4b0a1803bab2f490bd3849e",
                    "callData": "",
                    "decodedMethod": null,
                    "errorInfo": "",
                    "fromAddress": "",
                    "gasUsed": 0,
                    "id": -1,
                    "methodDecoded": false,
                    "operation": "",
                    "output": "",
                    "revert": false,
                    "revertMessage": "",
                    "selector": "",
                    "status": false,
                    "value": ""
                },
                "nodeType": 0
            },
            "0": {
                "invocation": {
                    "address": "0x2a0c0dbecc7e4d658f48e01e3fa353f44050c208",
                    "callData": "0x0000000000000000000000000000000000000000000000002977822b3cde0000000000000000000000000000000000000000000000000030ca024f987b900000000000000000000000000000000000000000000000000000000000000002e6300000000000000000000000000000000000000000000000000000000000000004000000000000000000000000000000000000000000000000003b44b8292fdc50000000000000000000000000000000000000000000000000000000000000040e00000000000000000000000000000000000000000000000000038d7ea4c68000000000000000000000000000000000000000000000000000016345785d8a00000000000000000000000000000000000000000000000000000000000000000000000000000000000000000000b3e2cb7cccfe139f8ff84013823bf22da6b6390a000000000000000000000000b7f70b9e0039be96af35c7e28bc38dc1fff08c170000000000000000000000005a00261013ed11db9fac4fbb9ac6274b0a1e055e000000000000000000000000000000000000000000000000000000000000001c000000000000000000000000000000000000000000000000000000000000001c03aa8232b54ecd0e476451d62ce3f0da54c5403eb475a0a68d1ca9bce4dbb8b16a0e7e39f8391481bbbe8b45c9f0645264511de2e1440e880b1f84011127780483032356d8ddedf60eaed0226dfe3a2d5f50de903e1f3f8d84ff2511d11227ba2fe363b81272d251a15c388f051e44a4eec84c4134beaed7a994794eda2a7745",
                    "decodedMethod": {
                        "callParams": [
                            {
                                "name": "tradeValues",
                                "type": "uint256[8]",
                                "value": [
                                    "2,988,000,000,000,000,000",
                                    "900,000,000,000,000,000,000",
                                    "190,000",
                                    "4",
                                    "16,682,581,381,602,384",
                                    "1,038",
                                    "1,000,000,000,000,000",
                                    "100,000,000,000,000,000"
                                ]
                            },
                            {
                                "name": "tradeAddresses",
                                "type": "address[4]",
                                "value": [
                                    "0x0000000000000000000000000000000000000000",
                                    "0xb3e2cb7cccfe139f8ff84013823bf22da6b6390a",
                                    "0xb7f70b9e0039be96af35c7e28bc38dc1fff08c17",
                                    "0x5a00261013ed11db9fac4fbb9ac6274b0a1e055e"
                                ]
                            },
                            {
                                "name": "v",
                                "type": "uint8[2]",
                                "value": [
                                    "28",
                                    "28"
                                ]
                            },
                            {
                                "name": "rs",
                                "type": "bytes32[4]",
                                "value": [
                                    "0x03aa8232b54ecd0e476451d62ce3f0da54c5403eb475a0a68d1ca9bce4dbb8b1",
                                    "0x6a0e7e39f8391481bbbe8b45c9f0645264511de2e1440e880b1f840111277804",
                                    "0x83032356d8ddedf60eaed0226dfe3a2d5f50de903e1f3f8d84ff2511d11227ba",
                                    "0x2fe363b81272d251a15c388f051e44a4eec84c4134beaed7a994794eda2a7745"
                                ]
                            }
                        ],
                        "constructorArguments": "",
                        "name": "trade",
                        "returnParams": [
                            {
                                "name": "success",
                                "type": "bool",
                                "value": false
                            }
                        ],
                        "signature": "trade(uint256[8],address[4],uint8[2],bytes32[4])"
                    },
                    "errorInfo": "",
                    "fromAddress": "0xa7a7899d944fe658c4b0a1803bab2f490bd3849e",
                    "gasUsed": 127324,
                    "id": 0,
                    "methodDecoded": true,
                    "operation": "CALL",
                    "output": "0x0000000000000000000000000000000000000000000000000000000000000000",
                    "revert": false,
                    "revertMessage": "",
                    "selector": "0xef343588",
                    "status": true,
                    "value": "0"
                },
                "nodeType": 0
            },
            "1": {
                "invocation": {
                    "address": "0x0000000000000000000000000000000000000001",
                    "callData": "0x54fd87240f8c8cf484c3ba910d3852bbfa663ab12001e93d70cb61ce000000000000000000000000000000000000000000000000000000000000001c03aa8232b54ecd0e476451d62ce3f0da54c5403eb475a0a68d1ca9bce4dbb8b16a0e7e39f8391481bbbe8b45c9f0645264511de2e1440e880b1f840111277804",
                    "decodedMethod": {
                        "callParams": [
                            {
                                "name": "hash",
                                "type": "bytes32",
                                "value": "0x3ca9001854fd87240f8c8cf484c3ba910d3852bbfa663ab12001e93d70cb61ce"
                            },
                            {
                                "name": "v",
                                "type": "uint256",
                                "value": "28"
                            },
                            {
                                "name": "r",
                                "type": "bytes32",
                                "value": "0x03aa8232b54ecd0e476451d62ce3f0da54c5403eb475a0a68d1ca9bce4dbb8b1"
                            },
                            {
                                "name": "s",
                                "type": "bytes32",
                                "value": "0x6a0e7e39f8391481bbbe8b45c9f0645264511de2e1440e880b1f840111277804"
                            }
                        ],
                        "constructorArguments": "",
                        "name": "ecrecover",
                        "returnParams": [
                            {
                                "name": "",
                                "type": "address",
                                "value": "0xb7f70b9e0039be96af35c7e28bc38dc1fff08c17"
                            }
                        ],
                        "signature": "ecrecover(bytes32,uint256,bytes32,bytes32)"
                    },
                    "errorInfo": "",
                    "fromAddress": "0x2a0c0dbecc7e4d658f48e01e3fa353f44050c208",
                    "gasUsed": 3000,
                    "id": 1,
                    "methodDecoded": true,
                    "operation": "CALL",
                    "output": "0x000000000000000000000000b7f70b9e0039be96af35c7e28bc38dc1fff08c17",
                    "revert": false,
                    "revertMessage": "",
                    "selector": "0x3ca90018",
                    "status": true,
                    "value": "0"
                },
                "nodeType": 0
            },
            "2": {
                "invocation": {
                    "address": "0x0000000000000000000000000000000000000001",
                    "callData": "0xbd613cc331d11b7eb44a0d7b0a128ea65bd3c575e00ce7635f9c512e000000000000000000000000000000000000000000000000000000000000001c83032356d8ddedf60eaed0226dfe3a2d5f50de903e1f3f8d84ff2511d11227ba2fe363b81272d251a15c388f051e44a4eec84c4134beaed7a994794eda2a7745",
                    "decodedMethod": {
                        "callParams": [
                            {
                                "name": "hash",
                                "type": "bytes32",
                                "value": "0xebe42da6bd613cc331d11b7eb44a0d7b0a128ea65bd3c575e00ce7635f9c512e"
                            },
                            {
                                "name": "v",
                                "type": "uint256",
                                "value": "28"
                            },
                            {
                                "name": "r",
                                "type": "bytes32",
                                "value": "0x83032356d8ddedf60eaed0226dfe3a2d5f50de903e1f3f8d84ff2511d11227ba"
                            },
                            {
                                "name": "s",
                                "type": "bytes32",
                                "value": "0x2fe363b81272d251a15c388f051e44a4eec84c4134beaed7a994794eda2a7745"
                            }
                        ],
                        "constructorArguments": "",
                        "name": "ecrecover",
                        "returnParams": [
                            {
                                "name": "",
                                "type": "address",
                                "value": "0x5a00261013ed11db9fac4fbb9ac6274b0a1e055e"
                            }
                        ],
                        "signature": "ecrecover(bytes32,uint256,bytes32,bytes32)"
                    },
                    "errorInfo": "",
                    "fromAddress": "0x2a0c0dbecc7e4d658f48e01e3fa353f44050c208",
                    "gasUsed": 3000,
                    "id": 2,
                    "methodDecoded": true,
                    "operation": "CALL",
                    "output": "0x0000000000000000000000005a00261013ed11db9fac4fbb9ac6274b0a1e055e",
                    "revert": false,
                    "revertMessage": "",
                    "selector": "0xebe42da6",
                    "status": true,
                    "value": "0"
                },
                "nodeType": 0
            }
        },
        "gasFlame": [
            {
                "children": [
                    {
                        "children": [
                            {
                                "children": [],
                                "depth": 0,
                                "name": "Initial Gas",
                                "value": 38040
                            },
                            {
                                "children": [
                                    {
                                        "children": [],
                                        "depth": 1,
                                        "name": "ecrecover",
                                        "value": 3000
                                    },
                                    {
                                        "children": [],
                                        "depth": 1,
                                        "name": "ecrecover",
                                        "value": 3000
                                    }
                                ],
                                "depth": 0,
                                "name": "Executed Gas",
                                "value": 89284
                            }
                        ],
                        "depth": -1,
                        "name": "Actual Gas Used",
                        "value": 127324
                    },
                    {
                        "children": [],
                        "depth": -1,
                        "name": "Refunded Gas",
                        "value": 0
                    }
                ],
                "depth": -2,
                "name": "Total Gas",
                "value": 127324
            }
        ],
        "isConfirmed": true,
        "mainTrace": [
            {
                "children": [
                    {
                        "children": [
                            {
                                "children": [],
                                "depth": 1,
                                "id": 1,
                                "order": 1
                            },
                            {
                                "children": [],
                                "depth": 1,
                                "id": 2,
                                "order": 2
                            }
                        ],
                        "depth": 0,
                        "id": 0,
                        "order": 0
                    }
                ],
                "depth": -1,
                "id": -1,
                "order": -1
            }
        ],
        "mainTraceNodeCount": 3,
        "parentIdMap": {
            "0": -1,
            "1": 0,
            "2": 0
        },
        "tidyTrace": [
            {
                "children": [
                    {
                        "children": [
                            {
                                "children": [],
                                "depth": 1,
                                "id": 1,
                                "order": 1
                            },
                            {
                                "children": [],
                                "depth": 1,
                                "id": 2,
                                "order": 2
                            }
                        ],
                        "depth": 0,
                        "id": 0,
                        "order": 0
                    }
                ],
                "depth": -1,
                "id": -1,
                "order": -1
            }
        ],
        "tidyTraceNodeCount": 3
    },
    "state_change": {
        "stateChanges": [
            {
                "address": "0x2a0c0dbecc7e4d658f48e01e3fa353f44050c208",
                "erc": "",
                "slots": [
                    {
                        "current": "0x000000000000000000000000000000000000000000000a87b93929817cbfa47c",
                        "key": "0xf454188433d93c6e523623fe1f9d0532938cfd487726fc63e1adc04b09373791",
                        "prev": "0x000000000000000000000000000000000000000000000a87fef519b442a69dfc"
                    },
                    {
                        "current": "0x00000000000000000000000000000000000000000000000007f4bd053e0ef70c",
                        "key": "0x4a911f44ca0db8ea3813a1952121f4302a2e5f717e6581b4df939b5668c34e5a",
                        "prev": "0x00000000000000000000000000000000000000000000000007b9784d14df1abc"
                    },
                    {
                        "current": "0x0000000000000000000000000000000000000000000000003cd746ded60734c1",
                        "key": "0x2383157ccc6d2da1c4600ee972e60c0a4a110c1a2bd93195c36f2b7506291b30",
                        "prev": "0x0000000000000000000000000000000000000000000000003d128b96ff371111"
                    },
                    {
                        "current": "0x0000000000000000000000000000000000000000000000000000000000000001",
                        "key": "0x1ed9a1b532f774e5e43e9e8b9a82b301e839f05a10a967063cb1fba326a132ce",
                        "prev": "0x0000000000000000000000000000000000000000000000000000000000000000"
                    },
                    {
                        "current": "0x000000000000000000000000000000000000000000000024a6a28e1e5bdeffe5",
                        "key": "0x3ccb72d91c5c66cba135a4135963ed23443b8a63817f501517468fcd5097e277",
                        "prev": "0x000000000000000000000000000000000000000000000024a6a27ef22488ae03"
                    },
                    {
                        "current": "0x000000000000000000000000000000000000000000000857bf4f052850485a28",
                        "key": "0xd411c0de82fcbbb48ef5d5f10c96860fb23fec8a22bf534248c5539889d2a6b6",
                        "prev": "0x000000000000000000000000000000000000000000000857808c469437c54668"
                    },
                    {
                        "current": "0x00000000000000000000000000000000000000000000000f8fb3112a61faafb6",
                        "key": "0x2c498bc4ef94deb6a2ee45b3cd03ba45e59338fd62683ae13a17dd62c8a0d082",
                        "prev": "0x00000000000000000000000000000000000000000000000f88b9df8bb496c9f6"
                    },
                    {
                        "current": "0x000000000000000000000000000000000000000000000000000000000063fc70",
                        "key": "0x6b4b1e6787ad934909a8e40dc5eeb5d50efb92853e165c066442ed32e3ffca42",
                        "prev": "0x000000000000000000000000000000000000000000000000000000000063fc4f"
                    },
                    {
                        "current": "0x000000000000000000000000000000000000000000000000000000000063fc70",
                        "key": "0x5d3b9596546c20620c2bc8c6b054f6d4b7626395eac571c7f4045f4db1ff5333",
                        "prev": "0x000000000000000000000000000000000000000000000000000000000063fb29"
                    },
                    {
                        "current": "0x0000000000000000000000000000000000000000000000000da93d7af8082b04",
                        "key": "0x5b989a379038ded038fcdd6f64d3ca3cc5c3c15e1102c82896859c0f3d798958",
                        "prev": "0x0000000000000000000000000000000000000000000000000d6e07ef062ea097"
                    }
                ],
                "storageVariables": [
                    {
                        "name": "tokens",
                        "type": "mapping(address => mapping(address => uint256))",
                        "value": {
                            "pairs": [
                                {
                                    "key": "0x0000000000000000000000000000000000000000",
                                    "value": {
                                        "pairs": [
                                            {
                                                "key": "0x034767f3c519f361c5ecf46ebfc08981c629d381",
                                                "value": {
                                                    "current": "676090102471108526053",
                                                    "prev": "676090085788527144451",
                                                    "typeTag": 1
                                                }
                                            },
                                            {
                                                "key": "0x5a00261013ed11db9fac4fbb9ac6274b0a1e055e",
                                                "value": {
                                                    "current": "4384050685155947713",
                                                    "prev": "4400733266537550097",
                                                    "typeTag": 1
                                                }
                                            },
                                            {
                                                "key": "0xb7f70b9e0039be96af35c7e28bc38dc1fff08c17",
                                                "value": {
                                                    "current": "984385591913753348",
                                                    "prev": "967719693113532567",
                                                    "typeTag": 1
                                                }
                                            }
                                        ],
                                        "typeTag": 4
                                    }
                                },
                                {
                                    "key": "0xb3e2cb7cccfe139f8ff84013823bf22da6b6390a",
                                    "value": {
                                        "pairs": [
                                            {
                                                "key": "0x034767f3c519f361c5ecf46ebfc08981c629d381",
                                                "value": {
                                                    "current": "287055799947628294070",
                                                    "prev": "286553312556616174070",
                                                    "typeTag": 1
                                                }
                                            },
                                            {
                                                "key": "0x5a00261013ed11db9fac4fbb9ac6274b0a1e055e",
                                                "value": {
                                                    "current": "39397583840025000827432",
                                                    "prev": "39393061453505891747432",
                                                    "typeTag": 1
                                                }
                                            },
                                            {
                                                "key": "0xb7f70b9e0039be96af35c7e28bc38dc1fff08c17",
                                                "value": {
                                                    "current": "49727322023254051234940",
                                                    "prev": "49732346897164172434940",
                                                    "typeTag": 1
                                                }
                                            }
                                        ],
                                        "typeTag": 4
                                    }
                                }
                            ],
                            "typeTag": 4
                        }
                    },
                    {
                        "name": "lastActiveTransaction",
                        "type": "mapping(address => uint256)",
                        "value": {
                            "pairs": [
                                {
                                    "key": "0x5a00261013ed11db9fac4fbb9ac6274b0a1e055e",
                                    "value": {
                                        "current": "6552688",
                                        "prev": "6552655",
                                        "typeTag": 1
                                    }
                                },
                                {
                                    "key": "0xb7f70b9e0039be96af35c7e28bc38dc1fff08c17",
                                    "value": {
                                        "current": "6552688",
                                        "prev": "6552361",
                                        "typeTag": 1
                                    }
                                }
                            ],
                            "typeTag": 4
                        }
                    },
                    {
                        "name": "orderFills",
                        "type": "mapping(bytes32 => uint256)",
                        "value": {
                            "pairs": [
                                {
                                    "key": "0x694dc5bd005f646045caba2a3e5bd08ef6f5f527d29ad4aae4dfd23d5b335c67",
                                    "value": {
                                        "current": "573290882796549900",
                                        "prev": "556608301414947516",
                                        "typeTag": 1
                                    }
                                }
                            ],
                            "typeTag": 4
                        }
                    },
                    {
                        "name": "traded",
                        "type": "mapping(bytes32 => bool)",
                        "value": {
                            "pairs": [
                                {
                                    "key": "0x43cae2dc729934f72ce80f5a5091a41aebe4188bdeda2c7466ab7289bb982a7f",
                                    "value": {
                                        "current": "true",
                                        "prev": "false",
                                        "typeTag": 1
                                    }
                                }
                            ],
                            "typeTag": 4
                        }
                    }
                ]
            }
        ]
    }
}