{
    "balance_change": {
        "balanceChanges": [
            {
                "account": "0x18d1e27b8c98daa392309fb7b6c3c5a56de320fb",
                "assets": [
                    {
                        "address": "0xdc9ac3c20d1ed0b540df9b1fedc10039df13f99c",
                        "amount": "17,204",
                        "iconUrl": "",
                        "isERC1155": false,
                        "isERC721": false,
                        "sign": false,
                        "value": ""
                    }
                ]
            },
            {
                "account": "0x5c985e89dde482efe97ea9f1950ad149eb73829b",
                "assets": [
                    {
                        "address": "0xdc9ac3c20d1ed0b540df9b1fedc10039df13f99c",
                        "amount": "17,204",
                        "iconUrl": "",
                        "isERC1155": false,
                        "isERC721": false,
                        "sign": true,
                        "value": ""
                    }
                ]
            }
        ]
    },
    "profile": {
        "basic_info": {
            "baseFee": "",
            "blockNumber": 12714907,
            "callData": "0xa9059cbb0000000000000000000000005c985e89dde482efe97ea9f1950ad149eb73829b0000000000000000000000000000000000000000000003a4a176214d2c500000",
            "debugEnable": true,
            "errorInfo": "",
            "eventCount": 1,
            "feeRecipient": "0x5a0b54d5dc17e0aadc383d2db43b0a0d3e029c4c",
            "formatValue": "0",
            "gasLimit": 95000,
            "gasPrice": "16",
            "gasUsed": 22043,
            "intTxnCount": 0,
            "internalRevert": false,
            "internalRevertMessage": "",
            "isContractCreation": false,
            "isFlashloan": false,
            "maxFee": "",
            "nonce": 1851,
            "overwritedBlockNumber": -1,
            "priorityFee": "",
            "receiver": "0xdc9ac3c20d1ed0b540df9b1fedc10039df13f99c",
            "revertMessage": "",
            "sender": "0x18d1e27b8c98daa392309fb7b6c3c5a56de320fb",
            "simulationEnable": true,
            "sourceTxnHash": "0x7decd68559df4d5c0e57353c50440e9071e2aa034696d7aeddbab6e4d3877a8b",
            "status": true,
            "timestamp": "2021-06-27T07:55:51Z",
            "transactionFee": "0.000352688",
            "txnHash": "0x7decd68559df4d5c0e57353c50440e9071e2aa034696d7aeddbab6e4d3877a8b",
            "txnIndex": 8,
            "type": 0,
            "value": "0"
        },
        "fund_flow": [
            {
                "amount": "17,204",
                "from": "0x18d1e27b8c98daa392309fb7b6c3c5a56de320fb",
                "id": 1,
                "isERC1155": false,
                "isERC721": false,
                "isReverted": false,
                "order": 1,
                "to": "0x5c985e89dde482efe97ea9f1950ad149eb73829b",
                "token": "0xdc9ac3c20d1ed0b540df9b1fedc10039df13f99c"
            }
        ],
        "token_infos": [
            {
                "address": "0xeeeeeeeeeeeeeeeeeeeeeeeeeeeeeeeeeeeeeeee",
                "decimals": 18
            },
            {
                "address": "0xc02aaa39b223fe8d0a0e5c4f27ead9083c756cc2",
                "decimals": 18
            },
            {
                "address": "0xdc9ac3c20d1ed0b540df9b1fedc10039df13f99c",
                "decimals": 18
            }
        ]
    },
    "address_label": {
        "labels": [
            {
                "address": "0x5c985e89dde482efe97ea9f1950ad149eb73829b",
                "label": "HTX 5"
            },
            {
                "address": "0xdc9ac3c20d1ed0b540df9b1fedc10039df13f99c",
                "label": "UTRUST: UTK Token"
            },
            {
                "address": "0x0000000000000000000000000000000000000001",
                "label": "Precompiled"
            },
            {
                "address": "0x0000000000000000000000000000000000000002",
                "label": "Precompiled"
            },
            {
                "address": "0x0000000000000000000000000000000000000003",
                "label": "Precompiled"
            },
            {
                "address": "0x0000000000000000000000000000000000000004",
                "label": "Precompiled"
            },
            {
                "address": "0xeeeeeeeeeeeeeeeeeeeeeeeeeeeeeeeeeeeeeeee",
                "label": "Ether"
            },
            {
                "address": "0x18d1e27b8c98daa392309fb7b6c3c5a56de320fb",
                "label": "HTX"
            }
        ]
    },
    "trace": {
        "accountLabels": null,
        "dataMap": {
            "-1": {
                "invocation": {
                    "address": "0x18d1e27b8c98daa392309fb7b6c3c5a56de320fb",
                    "callData": "",
                    "decodedMethod": null,
                    "errorInfo": "",
                    "fromAddress": "",
                    "gasUsed": 0,
                    "id": -1,
                    "methodDecoded": false,
                    "operation": "",
                    "output": "",
                    "revert": false,
                    "revertMessage": "",
                    "selector": "",
                    "status": false,
                    "value": ""
                },
                "nodeType": 0
            },
            "0": {
                "invocation": {
                    "address": "0xdc9ac3c20d1ed0b540df9b1fedc10039df13f99c",
                    "callData": "0x0000000000000000000000005c985e89dde482efe97ea9f1950ad149eb73829b0000000000000000000000000000000000000000000003a4a176214d2c500000",
                    "decodedMethod": {
                        "callParams": [
                            {
                                "name": "recipient",
                                "type": "address",
                                "value": "0x5c985e89dde482efe97ea9f1950ad149eb73829b"
                            },
                            {
                                "decimalAvailable": true,
                                "name": "amount",
                                "type": "uint256",
                                "value": "17,204,000,000,000,000,000,000"
                            }
                        ],
                        "constructorArguments": "",
                        "name": "transfer",
                        "returnParams": [
                            {
                                "name": "",
                                "type": "bool",
                                "value": true
                            }
                        ],
                        "signature": "transfer(address,uint256)"
                    },
                    "errorInfo": "",
                    "fromAddress": "0x18d1e27b8c98daa392309fb7b6c3c5a56de320fb",
                    "gasUsed": 22043,
                    "id": 0,
                    "methodDecoded": true,
                    "operation": "CALL",
                    "output": "0x0000000000000000000000000000000000000000000000000000000000000001",
                    "revert": false,
                    "revertMessage": "",
                    "selector": "0xa9059cbb",
                    "status": true,
                    "value": "0"
                },
                "nodeType": 0
            },
            "1": {
                "event": {
                    "contract": "0xdc9ac3c20d1ed0b540df9b1fedc10039df13f99c",
                    "decodedLog": {
                        "name": "Transfer",
                        "params": [
                            {
                                "name": "from",
                                "type": "address",
                                "value": "0x18d1e27b8c98daa392309fb7b6c3c5a56de320fb"
                            },
                            {
                                "name": "to",
                                "type": "address",
                                "value": "0x5c985e89dde482efe97ea9f1950ad149eb73829b"
                            },
                            {
                                "decimalAvailable": true,
                                "name": "value",
                                "type": "uint256",
                                "value": "17,204,000,000,000,000,000,000"
                            }
                        ],
                        "signature": "Transfer(address,address,uint256)"
                    },
                    "id": 1,
                    "logData": "0x0000000000000000000000000000000000000000000003a4a176214d2c500000",
                    "logDecoded": true,
                    "operation": "EVENT",
                    "revert": false,
                    "status": true,
                    "topics": [
                        "0xddf252ad1be2c89b69c2b068fc378daa952ba7f163c4a11628f55a4df523b3ef",
                        "0x00000000000000000000000018d1e27b8c98daa392309fb7b6c3c5a56de320fb",
                        "0x0000000000000000000000005c985e89dde482efe97ea9f1950ad149eb73829b"
                    ]
                },
                "nodeType": 1
            }
        },
        "gasFlame": [
            {
                "children": [
                    {
                        "children": [
                            {
                                "children": [],
                                "depth": 0,
                                "name": "Initial Gas",
                                "value": 21656
                            },
                            {
                                "children": [],
                                "depth": 0,
                                "name": "Executed Gas",
                                "value": 15387
                            }
                        ],
                        "depth": -1,
                        "name": "Actual Gas Used",
                        "value": 22043
                    },
                    {
                        "children": [],
                        "depth": -1,
                        "name": "Refunded Gas",
                        "value": 15000
                    }
                ],
                "depth": -2,
                "name": "Total Gas",
                "value": 37043
            }
        ],
        "isConfirmed": true,
        "mainTrace": [
            {
                "children": [
                    {
                        "children": [
                            {
                                "children": [],
                                "depth": 1,
                                "id": 1,
                                "order": 1
                            }
                        ],
                        "depth": 0,
                        "id": 0,
                        "order": 0
                    }
                ],
                "depth": -1,
                "id": -1,
                "order": -1
            }
        ],
        "mainTraceNodeCount": 2,
        "parentIdMap": {
            "0": -1,
            "1": 0
        },
        "tidyTrace": [
            {
                "children": [
                    {
                        "children": [
                            {
                                "children": [],
                                "depth": 1,
                                "id": 1,
                                "order": 1
                            }
                        ],
                        "depth": 0,
                        "id": 0,
                        "order": 0
                    }
                ],
                "depth": -1,
                "id": -1,
                "order": -1
            }
        ],
        "tidyTraceNodeCount": 2
    },
    "state_change": {
        "stateChanges": [
            {
                "address": "0xdc9ac3c20d1ed0b540df9b1fedc10039df13f99c",
                "erc": "ERC-20",
                "slots": [
                    {
                        "current": "0x0000000000000000000000000000000000000000000000000000000000000000",
                        "key": "0x06db081b62495e9e9cf18adfa12c8c7caa874c4788f288c90aeeff21031d1419",
                        "prev": "0x0000000000000000000000000000000000000000000003a4a176214d2c500000"
                    },
                    {
                        "current": "0x0000000000000000000000000000000000000000000af439d090f0266dc45e00",
                        "key": "0x034e8fd2463f5e1cc7b3f0447e7080151271a7b4723ff0e35eded02cb127f5d6",
                        "prev": "0x0000000000000000000000000000000000000000000af0952f1aced941745e00"
                    }
                ],
                "storageVariables": [
                    {
                        "name": "_balances",
                        "type": "mapping(address => uint256)",
                        "value": {
                            "pairs": [
                                {
                                    "key": "0x18d1e27b8c98daa392309fb7b6c3c5a56de320fb",
                                    "value": {
                                        "current": "0",
                                        "prev": "17204000000000000000000",
                                        "typeTag": 1
                                    }
                                },
                                {
                                    "key": "0x5c985e89dde482efe97ea9f1950ad149eb73829b",
                                    "value": {
                                        "current": "13242582111154691000000000",
                                        "prev": "13225378111154691000000000",
                                        "typeTag": 1
                                    }
                                }
                            ],
                            "typeTag": 4
                        }
                    }
                ]
            }
        ]
    }
}