{
    "balance_change": {
        "balanceChanges": [
            {
                "account": "0x4b4c5afb0937307ca6817b828f44bb032a604bc4",
                "assets": [
                    {
                        "address": "0xc011a73ee8576fb46f5e1c5751ca3b9fe0af2a6f",
                        "amount": "15.88913306",
                        "iconUrl": "https://assets.blocksec.com/icon/c1e3b6af03ce5f020e733ca697c33400586b436d22b539a9570605e485361831.png",
                        "isERC1155": false,
                        "isERC721": false,
                        "sign": false,
                        "value": "261.6885307"
                    }
                ]
            },
            {
                "account": "0x0095d932133c2d957a446ecf363982aee4aac7b1",
                "assets": [
                    {
                        "address": "0xc011a73ee8576fb46f5e1c5751ca3b9fe0af2a6f",
                        "amount": "15.88913306",
                        "iconUrl": "https://assets.blocksec.com/icon/c1e3b6af03ce5f020e733ca697c33400586b436d22b539a9570605e485361831.png",
                        "isERC1155": false,
                        "isERC721": false,
                        "sign": true,
                        "value": "261.6885307"
                    }
                ]
            }
        ]
    },
    "profile": {
        "basic_info": {
            "baseFee": "",
            "blockNumber": 11738928,
            "callData": "0xa9059cbb0000000000000000000000000095d932133c2d957a446ecf363982aee4aac7b1000000000000000000000000000000000000000000000000dc818a5576372800",
            "debugEnable": true,
            "errorInfo": "",
            "eventCount": 1,
            "feeRecipient": "0x829bd824b016326a401d083b33d092293333a830",
            "formatValue": "0",
            "gasLimit": 250000,
            "gasPrice": "246",
            "gasUsed": 95689,
            "intTxnCount": 9,
            "internalRevert": false,
            "internalRevertMessage": "",
            "isContractCreation": false,
            "isFlashloan": false,
            "maxFee": "",
            "nonce": 1625,
            "overwritedBlockNumber": -1,
            "priorityFee": "",
            "receiver": "0xc011a73ee8576fb46f5e1c5751ca3b9fe0af2a6f",
            "revertMessage": "",
            "sender": "0x4b4c5afb0937307ca6817b828f44bb032a604bc4",
            "simulationEnable": true,
            "sourceTxnHash": "0x7d2223f91b8c992fe6ea651e22b47b7fdc1220dec099fea0854052ad955a4015",
            "status": true,
            "timestamp": "2021-01-27T16:31:20Z",
            "transactionFee": "0.023539494",
            "txnHash": "0x7d2223f91b8c992fe6ea651e22b47b7fdc1220dec099fea0854052ad955a4015",
            "txnIndex": 9,
            "type": 0,
            "value": "0"
        },
        "fund_flow": [
            {
                "amount": "15.88913306",
                "from": "0x4b4c5afb0937307ca6817b828f44bb032a604bc4",
                "id": 1,
                "isERC1155": false,
                "isERC721": false,
                "isReverted": false,
                "order": 1,
                "to": "0x0095d932133c2d957a446ecf363982aee4aac7b1",
                "token": "0xc011a73ee8576fb46f5e1c5751ca3b9fe0af2a6f"
            }
        ],
        "token_infos": [
            {
                "address": "0xc02aaa39b223fe8d0a0e5c4f27ead9083c756cc2",
                "decimals": 18
            },
            {
                "address": "0xeeeeeeeeeeeeeeeeeeeeeeeeeeeeeeeeeeeeeeee",
                "decimals": 18
            },
            {
                "address": "0xc011a73ee8576fb46f5e1c5751ca3b9fe0af2a6f",
                "decimals": 18
            }
        ]
    },
    "address_label": {
        "labels": [
            {
                "address": "0x4534e92eefecc63c6105f53893d355c14aa129cf",
                "label": "Synthetix: Old System Status"
            },
            {
                "address": "0xc011a73ee8576fb46f5e1c5751ca3b9fe0af2a6f",
                "label": "Synthetix: Proxy SNX Token"
            },
            {
                "address": "0x4b9ca5607f1ff8019c1c6a3c2f0cc8de622d5b82",
                "label": "Synthetix: State"
            },
            {
                "address": "0x273ca27361cbf5169fcb7c1391968b6371294420",
                "label": "Synthetix"
            },
            {
                "address": "0x0000000000000000000000000000000000000003",
                "label": "Precompiled"
            },
            {
                "address": "0xeeeeeeeeeeeeeeeeeeeeeeeeeeeeeeeeeeeeeeee",
                "label": "Ether"
            },
            {
                "address": "0x5b1b5fea1b99d83ad479df0c222f0492385381dd",
                "label": "Synthetix: Token State Synthetix"
            },
            {
                "address": "0x0000000000000000000000000000000000000001",
                "label": "Precompiled"
            },
            {
                "address": "0x0000000000000000000000000000000000000002",
                "label": "Precompiled"
            },
            {
                "address": "0x0000000000000000000000000000000000000004",
                "label": "Precompiled"
            }
        ]
    },
    "trace": {
        "accountLabels": null,
        "dataMap": {
            "-1": {
                "invocation": {
                    "address": "0x4b4c5afb0937307ca6817b828f44bb032a604bc4",
                    "callData": "",
                    "decodedMethod": null,
                    "errorInfo": "",
                    "fromAddress": "",
                    "gasUsed": 0,
                    "id": -1,
                    "methodDecoded": false,
                    "operation": "",
                    "output": "",
                    "revert": false,
                    "revertMessage": "",
                    "selector": "",
                    "status": false,
                    "value": ""
                },
                "nodeType": 0
            },
            "0": {
                "invocation": {
                    "address": "0xc011a73ee8576fb46f5e1c5751ca3b9fe0af2a6f",
                    "callData": "0x0000000000000000000000000095d932133c2d957a446ecf363982aee4aac7b1000000000000000000000000000000000000000000000000dc818a5576372800",
                    "decodedMethod": {
                        "callParams": [
                            {
                                "name": "to",
                                "type": "address",
                                "value": "0x0095d932133c2d957a446ecf363982aee4aac7b1"
                            },
                            {
                                "decimalAvailable": true,
                                "name": "value",
                                "type": "uint256",
                                "value": "15,889,133,060,000,000,000"
                            }
                        ],
                        "constructorArguments": "",
                        "name": "transfer",
                        "returnParams": [
                            {
                                "name": "",
                                "type": "bool",
                                "value": true
                            }
                        ],
                        "signature": "transfer(address,uint256)"
                    },
                    "errorInfo": "",
                    "fromAddress": "0x4b4c5afb0937307ca6817b828f44bb032a604bc4",
                    "gasUsed": 95689,
                    "id": 0,
                    "methodDecoded": true,
                    "operation": "CALL",
                    "output": "0x0000000000000000000000000000000000000000000000000000000000000001",
                    "revert": false,
                    "revertMessage": "",
                    "selector": "0xa9059cbb",
                    "status": true,
                    "value": "0"
                },
                "nodeType": 0
            },
            "1": {
                "invocation": {
                    "address": "0x273ca27361cbf5169fcb7c1391968b6371294420",
                    "callData": "0x0000000000000000000000004b4c5afb0937307ca6817b828f44bb032a604bc4",
                    "decodedMethod": {
                        "callParams": [
                            {
                                "name": "sender",
                                "type": "address",
                                "value": "0x4b4c5afb0937307ca6817b828f44bb032a604bc4"
                            }
                        ],
                        "constructorArguments": "",
                        "name": "setMessageSender",
                        "returnParams": [],
                        "signature": "setMessageSender(address)"
                    },
                    "errorInfo": "",
                    "fromAddress": "0xc011a73ee8576fb46f5e1c5751ca3b9fe0af2a6f",
                    "gasUsed": 7248,
                    "id": 1,
                    "methodDecoded": true,
                    "operation": "CALL",
                    "output": "",
                    "revert": false,
                    "revertMessage": "",
                    "selector": "0xbc67f832",
                    "status": true,
                    "value": "0"
                },
                "nodeType": 0
            },
            "10": {
                "event": {
                    "contract": "0xc011a73ee8576fb46f5e1c5751ca3b9fe0af2a6f",
                    "decodedLog": {
                        "name": "Transfer",
                        "params": [
                            {
                                "name": "from",
                                "type": "address",
                                "value": "0x4b4c5afb0937307ca6817b828f44bb032a604bc4"
                            },
                            {
                                "name": "to",
                                "type": "address",
                                "value": "0x0095d932133c2d957a446ecf363982aee4aac7b1"
                            },
                            {
                                "decimalAvailable": true,
                                "name": "value",
                                "type": "uint256",
                                "value": "15,889,133,060,000,000,000"
                            }
                        ],
                        "signature": "Transfer(address,address,uint256)"
                    },
                    "id": 10,
                    "logData": "0x000000000000000000000000000000000000000000000000dc818a5576372800",
                    "logDecoded": true,
                    "operation": "EVENT",
                    "revert": false,
                    "status": true,
                    "topics": [
                        "0xddf252ad1be2c89b69c2b068fc378daa952ba7f163c4a11628f55a4df523b3ef",
                        "0x0000000000000000000000004b4c5afb0937307ca6817b828f44bb032a604bc4",
                        "0x0000000000000000000000000095d932133c2d957a446ecf363982aee4aac7b1"
                    ]
                },
                "nodeType": 1
            },
            "2": {
                "invocation": {
                    "address": "0x273ca27361cbf5169fcb7c1391968b6371294420",
                    "callData": "0x0000000000000000000000000095d932133c2d957a446ecf363982aee4aac7b1000000000000000000000000000000000000000000000000dc818a5576372800",
                    "decodedMethod": {
                        "callParams": [
                            {
                                "name": "to",
                                "type": "address",
                                "value": "0x0095d932133c2d957a446ecf363982aee4aac7b1"
                            },
                            {
                                "decimalAvailable": true,
                                "name": "value",
                                "type": "uint256",
                                "value": "15,889,133,060,000,000,000"
                            }
                        ],
                        "constructorArguments": "",
                        "name": "transfer",
                        "returnParams": [
                            {
                                "name": "",
                                "type": "bool",
                                "value": true
                            }
                        ],
                        "signature": "transfer(address,uint256)"
                    },
                    "errorInfo": "",
                    "fromAddress": "0xc011a73ee8576fb46f5e1c5751ca3b9fe0af2a6f",
                    "gasUsed": 61192,
                    "id": 2,
                    "methodDecoded": true,
                    "operation": "CALL",
                    "output": "0x0000000000000000000000000000000000000000000000000000000000000001",
                    "revert": false,
                    "revertMessage": "",
                    "selector": "0xa9059cbb",
                    "status": true,
                    "value": "0"
                },
                "nodeType": 0
            },
            "3": {
                "invocation": {
                    "address": "0x4534e92eefecc63c6105f53893d355c14aa129cf",
                    "callData": "0x",
                    "decodedMethod": {
                        "callParams": [],
                        "constructorArguments": "",
                        "name": "requireSystemActive",
                        "returnParams": [],
                        "signature": "requireSystemActive()"
                    },
                    "errorInfo": "",
                    "fromAddress": "0x273ca27361cbf5169fcb7c1391968b6371294420",
                    "gasUsed": 1194,
                    "id": 3,
                    "methodDecoded": true,
                    "operation": "STATICCALL",
                    "output": "",
                    "revert": false,
                    "revertMessage": "",
                    "selector": "0x086dabd1",
                    "status": true,
                    "value": "0"
                },
                "nodeType": 0
            },
            "4": {
                "invocation": {
                    "address": "0x4b9ca5607f1ff8019c1c6a3c2f0cc8de622d5b82",
                    "callData": "0x0000000000000000000000004b4c5afb0937307ca6817b828f44bb032a604bc4",
                    "decodedMethod": {
                        "callParams": [
                            {
                                "name": "",
                                "type": "address",
                                "value": "0x4b4c5afb0937307ca6817b828f44bb032a604bc4"
                            }
                        ],
                        "constructorArguments": "",
                        "name": "issuanceData",
                        "returnParams": [
                            {
                                "name": "initialDebtOwnership",
                                "type": "uint256",
                                "value": "0"
                            },
                            {
                                "name": "debtEntryIndex",
                                "type": "uint256",
                                "value": "0"
                            }
                        ],
                        "signature": "issuanceData(address)"
                    },
                    "errorInfo": "",
                    "fromAddress": "0x273ca27361cbf5169fcb7c1391968b6371294420",
                    "gasUsed": 2275,
                    "id": 4,
                    "methodDecoded": true,
                    "operation": "STATICCALL",
                    "output": "0x00000000000000000000000000000000000000000000000000000000000000000000000000000000000000000000000000000000000000000000000000000000",
                    "revert": false,
                    "revertMessage": "",
                    "selector": "0x8b3f8088",
                    "status": true,
                    "value": "0"
                },
                "nodeType": 0
            },
            "5": {
                "invocation": {
                    "address": "0x5b1b5fea1b99d83ad479df0c222f0492385381dd",
                    "callData": "0x0000000000000000000000004b4c5afb0937307ca6817b828f44bb032a604bc4",
                    "decodedMethod": {
                        "callParams": [
                            {
                                "name": "",
                                "type": "address",
                                "value": "0x4b4c5afb0937307ca6817b828f44bb032a604bc4"
                            }
                        ],
                        "constructorArguments": "",
                        "name": "balanceOf",
                        "returnParams": [
                            {
                                "decimalAvailable": true,
                                "name": "",
                                "type": "uint256",
                                "value": "131,908,981,205,653,617,080"
                            }
                        ],
                        "signature": "balanceOf(address)"
                    },
                    "errorInfo": "",
                    "fromAddress": "0x273ca27361cbf5169fcb7c1391968b6371294420",
                    "gasUsed": 1186,
                    "id": 5,
                    "methodDecoded": true,
                    "operation": "STATICCALL",
                    "output": "0x000000000000000000000000000000000000000000000007269ad785d6a979b8",
                    "revert": false,
                    "revertMessage": "",
                    "selector": "0x70a08231",
                    "status": true,
                    "value": "0"
                },
                "nodeType": 0
            },
            "6": {
                "invocation": {
                    "address": "0x5b1b5fea1b99d83ad479df0c222f0492385381dd",
                    "callData": "0x0000000000000000000000004b4c5afb0937307ca6817b828f44bb032a604bc40000000000000000000000000000000000000000000000064a194d30607251b8",
                    "decodedMethod": {
                        "callParams": [
                            {
                                "name": "account",
                                "type": "address",
                                "value": "0x4b4c5afb0937307ca6817b828f44bb032a604bc4"
                            },
                            {
                                "name": "value",
                                "type": "uint256",
                                "value": "116,019,848,145,653,617,080"
                            }
                        ],
                        "constructorArguments": "",
                        "name": "setBalanceOf",
                        "returnParams": [],
                        "signature": "setBalanceOf(address,uint256)"
                    },
                    "errorInfo": "",
                    "fromAddress": "0x273ca27361cbf5169fcb7c1391968b6371294420",
                    "gasUsed": 6425,
                    "id": 6,
                    "methodDecoded": true,
                    "operation": "CALL",
                    "output": "",
                    "revert": false,
                    "revertMessage": "",
                    "selector": "0xb46310f6",
                    "status": true,
                    "value": "0"
                },
                "nodeType": 0
            },
            "7": {
                "invocation": {
                    "address": "0x5b1b5fea1b99d83ad479df0c222f0492385381dd",
                    "callData": "0x0000000000000000000000000095d932133c2d957a446ecf363982aee4aac7b1",
                    "decodedMethod": {
                        "callParams": [
                            {
                                "name": "",
                                "type": "address",
                                "value": "0x0095d932133c2d957a446ecf363982aee4aac7b1"
                            }
                        ],
                        "constructorArguments": "",
                        "name": "balanceOf",
                        "returnParams": [
                            {
                                "decimalAvailable": true,
                                "name": "",
                                "type": "uint256",
                                "value": "0"
                            }
                        ],
                        "signature": "balanceOf(address)"
                    },
                    "errorInfo": "",
                    "fromAddress": "0x273ca27361cbf5169fcb7c1391968b6371294420",
                    "gasUsed": 1186,
                    "id": 7,
                    "methodDecoded": true,
                    "operation": "STATICCALL",
                    "output": "0x0000000000000000000000000000000000000000000000000000000000000000",
                    "revert": false,
                    "revertMessage": "",
                    "selector": "0x70a08231",
                    "status": true,
                    "value": "0"
                },
                "nodeType": 0
            },
            "8": {
                "invocation": {
                    "address": "0x5b1b5fea1b99d83ad479df0c222f0492385381dd",
                    "callData": "0x0000000000000000000000000095d932133c2d957a446ecf363982aee4aac7b1000000000000000000000000000000000000000000000000dc818a5576372800",
                    "decodedMethod": {
                        "callParams": [
                            {
                                "name": "account",
                                "type": "address",
                                "value": "0x0095d932133c2d957a446ecf363982aee4aac7b1"
                            },
                            {
                                "name": "value",
                                "type": "uint256",
                                "value": "15,889,133,060,000,000,000"
                            }
                        ],
                        "constructorArguments": "",
                        "name": "setBalanceOf",
                        "returnParams": [],
                        "signature": "setBalanceOf(address,uint256)"
                    },
                    "errorInfo": "",
                    "fromAddress": "0x273ca27361cbf5169fcb7c1391968b6371294420",
                    "gasUsed": 21425,
                    "id": 8,
                    "methodDecoded": true,
                    "operation": "CALL",
                    "output": "",
                    "revert": false,
                    "revertMessage": "",
                    "selector": "0xb46310f6",
                    "status": true,
                    "value": "0"
                },
                "nodeType": 0
            },
            "9": {
                "invocation": {
                    "address": "0xc011a73ee8576fb46f5e1c5751ca3b9fe0af2a6f",
                    "callData": "0x00000000000000000000000000000000000000000000000000000000000000c00000000000000000000000000000000000000000000000000000000000000003ddf252ad1be2c89b69c2b068fc378daa952ba7f163c4a11628f55a4df523b3ef0000000000000000000000004b4c5afb0937307ca6817b828f44bb032a604bc40000000000000000000000000095d932133c2d957a446ecf363982aee4aac7b100000000000000000000000000000000000000000000000000000000000000000000000000000000000000000000000000000000000000000000000000000020000000000000000000000000000000000000000000000000dc818a5576372800",
                    "decodedMethod": {
                        "callParams": [
                            {
                                "name": "callData",
                                "type": "bytes",
                                "value": "0x000000000000000000000000000000000000000000000000dc818a5576372800"
                            },
                            {
                                "name": "numTopics",
                                "type": "uint256",
                                "value": "3"
                            },
                            {
                                "name": "topic1",
                                "type": "bytes32",
                                "value": "0xddf252ad1be2c89b69c2b068fc378daa952ba7f163c4a11628f55a4df523b3ef"
                            },
                            {
                                "name": "topic2",
                                "type": "bytes32",
                                "value": "0x0000000000000000000000004b4c5afb0937307ca6817b828f44bb032a604bc4"
                            },
                            {
                                "name": "topic3",
                                "type": "bytes32",
                                "value": "0x0000000000000000000000000095d932133c2d957a446ecf363982aee4aac7b1"
                            },
                            {
                                "name": "topic4",
                                "type": "bytes32",
                                "value": "0x0000000000000000000000000000000000000000000000000000000000000000"
                            }
                        ],
                        "constructorArguments": "",
                        "name": "_emit",
                        "returnParams": [],
                        "signature": "_emit(bytes,uint256,bytes32,bytes32,bytes32,bytes32)"
                    },
                    "errorInfo": "",
                    "fromAddress": "0x273ca27361cbf5169fcb7c1391968b6371294420",
                    "gasUsed": 3406,
                    "id": 9,
                    "methodDecoded": true,
                    "operation": "CALL",
                    "output": "",
                    "revert": false,
                    "revertMessage": "",
                    "selector": "0x907dff97",
                    "status": true,
                    "value": "0"
                },
                "nodeType": 0
            }
        },
        "gasFlame": [
            {
                "children": [
                    {
                        "children": [
                            {
                                "children": [],
                                "depth": 0,
                                "name": "Initial Gas",
                                "value": 21632
                            },
                            {
                                "children": [
                                    {
                                        "children": [],
                                        "depth": 1,
                                        "name": "setMessageSender",
                                        "value": 7248
                                    },
                                    {
                                        "children": [
                                            {
                                                "children": [],
                                                "depth": 2,
                                                "name": "requireSystemActive",
                                                "value": 1194
                                            },
                                            {
                                                "children": [],
                                                "depth": 2,
                                                "name": "issuanceData",
                                                "value": 2275
                                            },
                                            {
                                                "children": [],
                                                "depth": 2,
                                                "name": "balanceOf",
                                                "value": 1186
                                            },
                                            {
                                                "children": [],
                                                "depth": 2,
                                                "name": "setBalanceOf",
                                                "value": 6425
                                            },
                                            {
                                                "children": [],
                                                "depth": 2,
                                                "name": "balanceOf",
                                                "value": 1186
                                            },
                                            {
                                                "children": [],
                                                "depth": 2,
                                                "name": "setBalanceOf",
                                                "value": 21425
                                            },
                                            {
                                                "children": [],
                                                "depth": 2,
                                                "name": "_emit",
                                                "value": 3406
                                            }
                                        ],
                                        "depth": 1,
                                        "name": "transfer",
                                        "value": 61192
                                    }
                                ],
                                "depth": 0,
                                "name": "Executed Gas",
                                "value": 74057
                            }
                        ],
                        "depth": -1,
                        "name": "Actual Gas Used",
                        "value": 95689
                    },
                    {
                        "children": [],
                        "depth": -1,
                        "name": "Refunded Gas",
                        "value": 0
                    }
                ],
                "depth": -2,
                "name": "Total Gas",
                "value": 95689
            }
        ],
        "isConfirmed": true,
        "mainTrace": [
            {
                "children": [
                    {
                        "children": [
                            {
                                "children": [],
                                "depth": 1,
                                "id": 1,
                                "order": 1
                            },
                            {
                                "children": [
                                    {
                                        "children": [],
                                        "depth": 2,
                                        "id": 3,
                                        "order": 3
                                    },
                                    {
                                        "children": [],
                                        "depth": 2,
                                        "id": 4,
                                        "order": 4
                                    },
                                    {
                                        "children": [],
                                        "depth": 2,
                                        "id": 5,
                                        "order": 5
                                    },
                                    {
                                        "children": [],
                                        "depth": 2,
                                        "id": 6,
                                        "order": 6
                                    },
                                    {
                                        "children": [],
                                        "depth": 2,
                                        "id": 7,
                                        "order": 7
                                    },
                                    {
                                        "children": [],
                                        "depth": 2,
                                        "id": 8,
                                        "order": 8
                                    },
                                    {
                                        "children": [
                                            {
                                                "children": [],
                                                "depth": 3,
                                                "id": 10,
                                                "order": 10
                                            }
                                        ],
                                        "depth": 2,
                                        "id": 9,
                                        "order": 9
                                    }
                                ],
                                "depth": 1,
                                "id": 2,
                                "order": 2
                            }
                        ],
                        "depth": 0,
                        "id": 0,
                        "order": 0
                    }
                ],
                "depth": -1,
                "id": -1,
                "order": -1
            }
        ],
        "mainTraceNodeCount": 11,
        "parentIdMap": {
            "0": -1,
            "1": 0,
            "10": 9,
            "2": 0,
            "3": 2,
            "4": 2,
            "5": 2,
            "6": 2,
            "7": 2,
            "8": 2,
            "9": 2
        },
        "tidyTrace": [
            {
                "children": [
                    {
                        "children": [
                            {
                                "children": [],
                                "depth": 1,
                                "id": 1,
                                "order": 1
                            },
                            {
                                "children": [
                                    {
                                        "children": [],
                                        "depth": 2,
                                        "id": 6,
                                        "order": 6
                                    },
                                    {
                                        "children": [],
                                        "depth": 2,
                                        "id": 8,
                                        "order": 8
                                    },
                                    {
                                        "children": [
                                            {
                                                "children": [],
                                                "depth": 3,
                                                "id": 10,
                                                "order": 10
                                            }
                                        ],
                                        "depth": 2,
                                        "id": 9,
                                        "order": 9
                                    }
                                ],
                                "depth": 1,
                                "id": 2,
                                "order": 2
                            }
                        ],
                        "depth": 0,
                        "id": 0,
                        "order": 0
                    }
                ],
                "depth": -1,
                "id": -1,
                "order": -1
            }
        ],
        "tidyTraceNodeCount": 7
    },
    "state_change": {
        "stateChanges": [
            {
                "address": "0x273ca27361cbf5169fcb7c1391968b6371294420",
                "erc": "ERC-20",
                "slots": [
                    {
                        "current": "0x0000000000000000000000004b4c5afb0937307ca6817b828f44bb032a604bc4",
                        "key": "0x0000000000000000000000000000000000000000000000000000000000000004",
                        "prev": "0x000000000000000000000000a1d8d972560c2f8144af871db508f0b0b10a3fbf"
                    }
                ],
                "storageVariables": [
                    {
                        "name": "messageSender",
                        "type": "address",
                        "value": {
                            "current": "0x4b4c5afb0937307ca6817b828f44bb032a604bc4",
                            "prev": "0xa1d8d972560c2f8144af871db508f0b0b10a3fbf",
                            "typeTag": 1
                        }
                    }
                ]
            },
            {
                "address": "0x5b1b5fea1b99d83ad479df0c222f0492385381dd",
                "erc": "",
                "slots": [
                    {
                        "current": "0x0000000000000000000000000000000000000000000000064a194d30607251b8",
                        "key": "0x351aa20d792c555bb7a8ccf76f8452f1f0a6238a62b22bcc34264e33e3b6ac27",
                        "prev": "0x000000000000000000000000000000000000000000000007269ad785d6a979b8"
                    },
                    {
                        "current": "0x000000000000000000000000000000000000000000000000dc818a5576372800",
                        "key": "0x94890f59fdd7fc3e3dd0fe3756ba7dc3f37215fb72e26c2b413e262414c1a49e",
                        "prev": "0x0000000000000000000000000000000000000000000000000000000000000000"
                    }
                ],
                "storageVariables": [
                    {
                        "name": "balanceOf",
                        "type": "mapping(address => uint256)",
                        "value": {
                            "pairs": [
                                {
                                    "key": "0x0095d932133c2d957a446ecf363982aee4aac7b1",
                                    "value": {
                                        "current": "15889133060000000000",
                                        "prev": "0",
                                        "typeTag": 1
                                    }
                                },
                                {
                                    "key": "0x4b4c5afb0937307ca6817b828f44bb032a604bc4",
                                    "value": {
                                        "current": "116019848145653617080",
                                        "prev": "131908981205653617080",
                                        "typeTag": 1
                                    }
                                }
                            ],
                            "typeTag": 4
                        }
                    }
                ]
            }
        ]
    }
}