{
    "balance_change": {
        "balanceChanges": []
    },
    "profile": {
        "basic_info": {
            "baseFee": "9.923700797",
            "blockNumber": 15330477,
            "callData": "0xfd9f1e1000000000000000000000000000000000000000000000000000000000000000200000000000000000000000000000000000000000000000000000000000000001000000000000000000000000000000000000000000000000000000000000002000000000000000000000000011a80a5192bd09f312f0e728f068283f5e6446cb000000000000000000000000004c00500000ad104d7dbd00e3ae0a5c00560c000000000000000000000000000000000000000000000000000000000000000160000000000000000000000000000000000000000000000000000000000000022000000000000000000000000000000000000000000000000000000000000000020000000000000000000000000000000000000000000000000000000062f4507700000000000000000000000000000000000000000000000000000000631d2ef70000000000000000000000000000000000000000000000000000000000000000000000000000000000000000000000000000000000000000000fe2a7934266910000007b02230091a7ed01230072f7006a004d60a8d4e71d599b8104250f0000000000000000000000000000000000000000000000000000000000000000000000000000000000000000000000000000000000000000000000000000000000010000000000000000000000000000000000000000000000000000000000000002000000000000000000000000249b90956ea0f80c2cb902dccde246b66a21d40100000000000000000000000000000000000000000000000000000000000008b8000000000000000000000000000000000000000000000000000000000000000100000000000000000000000000000000000000000000000000000000000000010000000000000000000000000000000000000000000000000000000000000003000000000000000000000000000000000000000000000000000000000000000000000000000000000000000000000000000000000000000000000000000000000000000000000000000000000000000000000000000000000000000000000000000000000000000000000000000000000000000000000000009fdf42f6e48000000000000000000000000000000000000000000000000000009fdf42f6e4800000000000000000000000000011a80a5192bd09f312f0e728f068283f5e6446cb000000000000000000000000000000000000000000000000000000000000000000000000000000000000000000000000000000000000000000000000000000000000000000000000000000000000000000000000000000000000000000000000000000000000000000000000000000000000000000000000000470de4df82000000000000000000000000000000000000000000000000000000470de4df820000000000000000000000000008de9c5a032463c561423387a9648c5c7bcc5bc90000000000000000000000000000000000000000000000000000000000000000000000000000000000000000000000000000000000000000000000000000000000000000000000000000000000000000000000000000000000000000000000000000000000000000000000000000000000000000000000000000d529ae9e86000000000000000000000000000000000000000000000000000000d529ae9e8600000000000000000000000000071f076d265cd7d85de3e4f795d3913d6ff36b568",
            "debugEnable": true,
            "errorInfo": "",
            "eventCount": 1,
            "feeRecipient": "0x7f101fe45e6649a6fb8f3f8b43ed03d353f2b90c",
            "formatValue": "0",
            "gasLimit": 60751,
            "gasPrice": "12.423700797",
            "gasUsed": 60751,
            "intTxnCount": 0,
            "internalRevert": false,
            "internalRevertMessage": "",
            "isContractCreation": false,
            "isFlashloan": false,
            "maxFee": "22.685159824",
            "nonce": 1049,
            "overwritedBlockNumber": -1,
            "priorityFee": "2.5",
            "receiver": "0x00000000006c3852cbef3e08e8df289169ede581",
            "revertMessage": "",
            "sender": "0x11a80a5192bd09f312f0e728f068283f5e6446cb",
            "simulationEnable": true,
            "sourceTxnHash": "0x7db822314c29416a437ee657bcf76004cc2fd770f0b655ac03a6c046c5957713",
            "status": true,
            "timestamp": "2022-08-13T01:27:24Z",
            "transactionFee": "0.000754752247118547",
            "txnHash": "0x7db822314c29416a437ee657bcf76004cc2fd770f0b655ac03a6c046c5957713",
            "txnIndex": 38,
            "type": 2,
            "value": "0"
        },
        "fund_flow": [],
        "token_infos": [
            {
                "address": "0xc02aaa39b223fe8d0a0e5c4f27ead9083c756cc2",
                "decimals": 18
            },
            {
                "address": "0xeeeeeeeeeeeeeeeeeeeeeeeeeeeeeeeeeeeeeeee",
                "decimals": 18
            }
        ]
    },
    "address_label": {
        "labels": [
            {
                "address": "0x249b90956ea0f80c2cb902dccde246b66a21d401",
                "label": "Eyeverse: Eyeverse Token"
            },
            {
                "address": "0x8de9c5a032463c561423387a9648c5c7bcc5bc90",
                "label": "OpenSea: Fees"
            },
            {
                "address": "0x0000000000000000000000000000000000000002",
                "label": "Precompiled"
            },
            {
                "address": "0x0000000000000000000000000000000000000004",
                "label": "Precompiled"
            },
            {
                "address": "0x0000000000000000000000000000000000000001",
                "label": "Precompiled"
            },
            {
                "address": "0x0000000000000000000000000000000000000003",
                "label": "Precompiled"
            },
            {
                "address": "0xeeeeeeeeeeeeeeeeeeeeeeeeeeeeeeeeeeeeeeee",
                "label": "Ether"
            },
            {
                "address": "0x71f076d265cd7d85de3e4f795d3913d6ff36b568",
                "label": "Eyeverse: Deployer"
            },
            {
                "address": "0x0000000000000000000000000000000000000000",
                "label": "Null Address"
            },
            {
                "address": "0x004c00500000ad104d7dbd00e3ae0a5c00560c00",
                "label": "OpenSea: Pausable Zone"
            },
            {
                "address": "0x00000000006c3852cbef3e08e8df289169ede581",
                "label": "Seaport 1.1"
            }
        ]
    },
    "trace": {
        "accountLabels": null,
        "dataMap": {
            "-1": {
                "invocation": {
                    "address": "0x11a80a5192bd09f312f0e728f068283f5e6446cb",
                    "callData": "",
                    "decodedMethod": null,
                    "errorInfo": "",
                    "fromAddress": "",
                    "gasUsed": 0,
                    "id": -1,
                    "methodDecoded": false,
                    "operation": "",
                    "output": "",
                    "revert": false,
                    "revertMessage": "",
                    "selector": "",
                    "status": false,
                    "value": ""
                },
                "nodeType": 0
            },
            "0": {
                "invocation": {
                    "address": "0x00000000006c3852cbef3e08e8df289169ede581",
                    "callData": "0x00000000000000000000000000000000000000000000000000000000000000200000000000000000000000000000000000000000000000000000000000000001000000000000000000000000000000000000000000000000000000000000002000000000000000000000000011a80a5192bd09f312f0e728f068283f5e6446cb000000000000000000000000004c00500000ad104d7dbd00e3ae0a5c00560c000000000000000000000000000000000000000000000000000000000000000160000000000000000000000000000000000000000000000000000000000000022000000000000000000000000000000000000000000000000000000000000000020000000000000000000000000000000000000000000000000000000062f4507700000000000000000000000000000000000000000000000000000000631d2ef70000000000000000000000000000000000000000000000000000000000000000000000000000000000000000000000000000000000000000000fe2a7934266910000007b02230091a7ed01230072f7006a004d60a8d4e71d599b8104250f0000000000000000000000000000000000000000000000000000000000000000000000000000000000000000000000000000000000000000000000000000000000010000000000000000000000000000000000000000000000000000000000000002000000000000000000000000249b90956ea0f80c2cb902dccde246b66a21d40100000000000000000000000000000000000000000000000000000000000008b8000000000000000000000000000000000000000000000000000000000000000100000000000000000000000000000000000000000000000000000000000000010000000000000000000000000000000000000000000000000000000000000003000000000000000000000000000000000000000000000000000000000000000000000000000000000000000000000000000000000000000000000000000000000000000000000000000000000000000000000000000000000000000000000000000000000000000000000000000000000000000000000000009fdf42f6e48000000000000000000000000000000000000000000000000000009fdf42f6e4800000000000000000000000000011a80a5192bd09f312f0e728f068283f5e6446cb000000000000000000000000000000000000000000000000000000000000000000000000000000000000000000000000000000000000000000000000000000000000000000000000000000000000000000000000000000000000000000000000000000000000000000000000000000000000000000000000000470de4df82000000000000000000000000000000000000000000000000000000470de4df820000000000000000000000000008de9c5a032463c561423387a9648c5c7bcc5bc90000000000000000000000000000000000000000000000000000000000000000000000000000000000000000000000000000000000000000000000000000000000000000000000000000000000000000000000000000000000000000000000000000000000000000000000000000000000000000000000000000d529ae9e86000000000000000000000000000000000000000000000000000000d529ae9e8600000000000000000000000000071f076d265cd7d85de3e4f795d3913d6ff36b568",
                    "decodedMethod": {
                        "callParams": [
                            {
                                "name": "orders",
                                "type": "(address,address,(uint8,address,uint256,uint256,uint256)[],(uint8,address,uint256,uint256,uint256,address)[],uint8,uint256,uint256,bytes32,uint256,bytes32,uint256)[]",
                                "value": [
                                    [
                                        {
                                            "name": "offerer",
                                            "type": "address",
                                            "value": "0x11a80a5192bd09f312f0e728f068283f5e6446cb"
                                        },
                                        {
                                            "name": "zone",
                                            "type": "address",
                                            "value": "0x004c00500000ad104d7dbd00e3ae0a5c00560c00"
                                        },
                                        {
                                            "name": "offer",
                                            "type": "(uint8,address,uint256,uint256,uint256)[]",
                                            "value": [
                                                [
                                                    {
                                                        "name": "itemType",
                                                        "type": "uint8",
                                                        "value": "2"
                                                    },
                                                    {
                                                        "name": "token",
                                                        "type": "address",
                                                        "value": "0x249b90956ea0f80c2cb902dccde246b66a21d401"
                                                    },
                                                    {
                                                        "name": "identifierOrCriteria",
                                                        "type": "uint256",
                                                        "value": "2,232"
                                                    },
                                                    {
                                                        "name": "startAmount",
                                                        "type": "uint256",
                                                        "value": "1"
                                                    },
                                                    {
                                                        "name": "endAmount",
                                                        "type": "uint256",
                                                        "value": "1"
                                                    }
                                                ]
                                            ]
                                        },
                                        {
                                            "name": "consideration",
                                            "type": "(uint8,address,uint256,uint256,uint256,address)[]",
                                            "value": [
                                                [
                                                    {
                                                        "name": "itemType",
                                                        "type": "uint8",
                                                        "value": "0"
                                                    },
                                                    {
                                                        "name": "token",
                                                        "type": "address",
                                                        "value": "0x0000000000000000000000000000000000000000"
                                                    },
                                                    {
                                                        "name": "identifierOrCriteria",
                                                        "type": "uint256",
                                                        "value": "0"
                                                    },
                                                    {
                                                        "name": "startAmount",
                                                        "type": "uint256",
                                                        "value": "45,000,000,000,000,000"
                                                    },
                                                    {
                                                        "name": "endAmount",
                                                        "type": "uint256",
                                                        "value": "45,000,000,000,000,000"
                                                    },
                                                    {
                                                        "name": "recipient",
                                                        "type": "address",
                                                        "value": "0x11a80a5192bd09f312f0e728f068283f5e6446cb"
                                                    }
                                                ],
                                                [
                                                    {
                                                        "name": "itemType",
                                                        "type": "uint8",
                                                        "value": "0"
                                                    },
                                                    {
                                                        "name": "token",
                                                        "type": "address",
                                                        "value": "0x0000000000000000000000000000000000000000"
                                                    },
                                                    {
                                                        "name": "identifierOrCriteria",
                                                        "type": "uint256",
                                                        "value": "0"
                                                    },
                                                    {
                                                        "name": "startAmount",
                                                        "type": "uint256",
                                                        "value": "1,250,000,000,000,000"
                                                    },
                                                    {
                                                        "name": "endAmount",
                                                        "type": "uint256",
                                                        "value": "1,250,000,000,000,000"
                                                    },
                                                    {
                                                        "name": "recipient",
                                                        "type": "address",
                                                        "value": "0x8de9c5a032463c561423387a9648c5c7bcc5bc90"
                                                    }
                                                ],
                                                [
                                                    {
                                                        "name": "itemType",
                                                        "type": "uint8",
                                                        "value": "0"
                                                    },
                                                    {
                                                        "name": "token",
                                                        "type": "address",
                                                        "value": "0x0000000000000000000000000000000000000000"
                                                    },
                                                    {
                                                        "name": "identifierOrCriteria",
                                                        "type": "uint256",
                                                        "value": "0"
                                                    },
                                                    {
                                                        "name": "startAmount",
                                                        "type": "uint256",
                                                        "value": "3,750,000,000,000,000"
                                                    },
                                                    {
                                                        "name": "endAmount",
                                                        "type": "uint256",
                                                        "value": "3,750,000,000,000,000"
                                                    },
                                                    {
                                                        "name": "recipient",
                                                        "type": "address",
                                                        "value": "0x71f076d265cd7d85de3e4f795d3913d6ff36b568"
                                                    }
                                                ]
                                            ]
                                        },
                                        {
                                            "name": "orderType",
                                            "type": "uint8",
                                            "value": "2"
                                        },
                                        {
                                            "name": "startTime",
                                            "type": "uint256",
                                            "value": "1,660,178,551"
                                        },
                                        {
                                            "name": "endTime",
                                            "type": "uint256",
                                            "value": "1,662,856,951"
                                        },
                                        {
                                            "name": "zoneHash",
                                            "type": "bytes32",
                                            "value": "0x0000000000000000000000000000000000000000000000000000000000000000"
                                        },
                                        {
                                            "name": "salt",
                                            "type": "uint256",
                                            "value": "4,471,334,008,678,033"
                                        },
                                        {
                                            "name": "conduitKey",
                                            "type": "bytes32",
                                            "value": "0x0000007b02230091a7ed01230072f7006a004d60a8d4e71d599b8104250f0000"
                                        },
                                        {
                                            "name": "counter",
                                            "type": "uint256",
                                            "value": "0"
                                        }
                                    ]
                                ]
                            }
                        ],
                        "constructorArguments": "",
                        "name": "cancel",
                        "returnParams": [
                            {
                                "name": "cancelled",
                                "type": "bool",
                                "value": true
                            }
                        ],
                        "signature": "cancel((address,address,(uint8,address,uint256,uint256,uint256)[],(uint8,address,uint256,uint256,uint256,address)[],uint8,uint256,uint256,bytes32,uint256,bytes32,uint256)[])"
                    },
                    "errorInfo": "",
                    "fromAddress": "0x11a80a5192bd09f312f0e728f068283f5e6446cb",
                    "gasUsed": 60751,
                    "id": 0,
                    "methodDecoded": true,
                    "operation": "CALL",
                    "output": "0x0000000000000000000000000000000000000000000000000000000000000001",
                    "revert": false,
                    "revertMessage": "",
                    "selector": "0xfd9f1e10",
                    "status": true,
                    "value": "0"
                },
                "nodeType": 0
            },
            "1": {
                "event": {
                    "contract": "0x00000000006c3852cbef3e08e8df289169ede581",
                    "decodedLog": {
                        "name": "OrderCancelled",
                        "params": [
                            {
                                "name": "offerer",
                                "type": "address",
                                "value": "0x11a80a5192bd09f312f0e728f068283f5e6446cb"
                            },
                            {
                                "name": "zone",
                                "type": "address",
                                "value": "0x004c00500000ad104d7dbd00e3ae0a5c00560c00"
                            },
                            {
                                "name": "orderHash",
                                "type": "bytes32",
                                "value": "0x3f8ebf930f2272efba9b8bfcdf9a8c9471d52fdb6b89bb7d9c72921aead1b2d2"
                            }
                        ],
                        "signature": "OrderCancelled(bytes32,address,address)"
                    },
                    "id": 1,
                    "logData": "0x3f8ebf930f2272efba9b8bfcdf9a8c9471d52fdb6b89bb7d9c72921aead1b2d2",
                    "logDecoded": true,
                    "operation": "EVENT",
                    "revert": false,
                    "status": true,
                    "topics": [
                        "0x6bacc01dbe442496068f7d234edd811f1a5f833243e0aec824f86ab861f3c90d",
                        "0x00000000000000000000000011a80a5192bd09f312f0e728f068283f5e6446cb",
                        "0x000000000000000000000000004c00500000ad104d7dbd00e3ae0a5c00560c00"
                    ]
                },
                "nodeType": 1
            }
        },
        "gasFlame": [
            {
                "children": [
                    {
                        "children": [
                            {
                                "children": [],
                                "depth": 0,
                                "name": "Initial Gas",
                                "value": 28480
                            },
                            {
                                "children": [],
                                "depth": 0,
                                "name": "Executed Gas",
                                "value": 32271
                            }
                        ],
                        "depth": -1,
                        "name": "Actual Gas Used",
                        "value": 60751
                    },
                    {
                        "children": [],
                        "depth": -1,
                        "name": "Refunded Gas",
                        "value": 0
                    }
                ],
                "depth": -2,
                "name": "Total Gas",
                "value": 60751
            }
        ],
        "isConfirmed": true,
        "mainTrace": [
            {
                "children": [
                    {
                        "children": [
                            {
                                "children": [],
                                "depth": 1,
                                "id": 1,
                                "order": 1
                            }
                        ],
                        "depth": 0,
                        "id": 0,
                        "order": 0
                    }
                ],
                "depth": -1,
                "id": -1,
                "order": -1
            }
        ],
        "mainTraceNodeCount": 2,
        "parentIdMap": {
            "0": -1,
            "1": 0
        },
        "tidyTrace": [
            {
                "children": [
                    {
                        "children": [
                            {
                                "children": [],
                                "depth": 1,
                                "id": 1,
                                "order": 1
                            }
                        ],
                        "depth": 0,
                        "id": 0,
                        "order": 0
                    }
                ],
                "depth": -1,
                "id": -1,
                "order": -1
            }
        ],
        "tidyTraceNodeCount": 2
    },
    "state_change": {
        "stateChanges": [
            {
                "address": "0x00000000006c3852cbef3e08e8df289169ede581",
                "erc": "",
                "slots": [
                    {
                        "current": "0x0000000000000000000000000000000000000000000000000000000000000100",
                        "key": "0x71db9710899509c47667049a49008295a86230c85bb1360472ad516970a607ce",
                        "prev": "0x0000000000000000000000000000000000000000000000000000000000000000"
                    }
                ],
                "storageVariables": [
                    {
                        "name": "_orderStatus",
                        "type": "mapping(bytes32 => struct OrderStatus)",
                        "value": {
                            "pairs": [
                                {
                                    "key": "0x3f8ebf930f2272efba9b8bfcdf9a8c9471d52fdb6b89bb7d9c72921aead1b2d2",
                                    "value": {
                                        "fields": [
                                            {
                                                "name": "isValidated",
                                                "type": "bool",
                                                "value": {
                                                    "current": "false",
                                                    "prev": "false",
                                                    "typeTag": 1
                                                }
                                            },
                                            {
                                                "name": "isCancelled",
                                                "type": "bool",
                                                "value": {
                                                    "current": "true",
                                                    "prev": "false",
                                                    "typeTag": 1
                                                }
                                            },
                                            {
                                                "name": "numerator",
                                                "type": "uint120",
                                                "value": {
                                                    "current": "0",
                                                    "prev": "0",
                                                    "typeTag": 1
                                                }
                                            },
                                            {
                                                "name": "denominator",
                                                "type": "uint120",
                                                "value": {
                                                    "current": "0",
                                                    "prev": "0",
                                                    "typeTag": 1
                                                }
                                            }
                                        ],
                                        "typeTag": 3
                                    }
                                }
                            ],
                            "typeTag": 4
                        }
                    }
                ]
            }
        ]
    }
}