{
    "balance_change": {
        "balanceChanges": []
    },
    "profile": {
        "basic_info": {
            "baseFee": "",
            "blockNumber": 5507358,
            "callData": "0x095ea7b3000000000000000000000000964f35fae36d75b1e72770e244f6595b68508cf58000000000000000000000000000000000000000000000000000000000000000",
            "debugEnable": true,
            "errorInfo": "",
            "eventCount": 1,
            "feeRecipient": "0xb2930b35844a230f00e51431acae96fe543a0347",
            "formatValue": "0",
            "gasLimit": 330000,
            "gasPrice": "3",
            "gasUsed": 45691,
            "intTxnCount": 0,
            "internalRevert": false,
            "internalRevertMessage": "",
            "isContractCreation": false,
            "isFlashloan": false,
            "maxFee": "",
            "nonce": 26,
            "overwritedBlockNumber": -1,
            "priorityFee": "",
            "receiver": "0xdd974d5c2e2928dea5f71b9825b8b646686bd200",
            "revertMessage": "",
            "sender": "0xb691f2fc962f44b688216118bcf950f61644f8a7",
            "simulationEnable": true,
            "sourceTxnHash": "0x7dc5904db9fe97ad0b0fc6e83aec85d8029b6d251e1bdb58691f7dac50b36c28",
            "status": true,
            "timestamp": "2018-04-26T05:24:47Z",
            "transactionFee": "0.000137073",
            "txnHash": "0x7dc5904db9fe97ad0b0fc6e83aec85d8029b6d251e1bdb58691f7dac50b36c28",
            "txnIndex": 151,
            "type": 0,
            "value": "0"
        },
        "fund_flow": [],
        "token_infos": [
            {
                "address": "0xc02aaa39b223fe8d0a0e5c4f27ead9083c756cc2",
                "decimals": 18
            },
            {
                "address": "0xeeeeeeeeeeeeeeeeeeeeeeeeeeeeeeeeeeeeeeee",
                "decimals": 18
            }
        ]
    },
    "address_label": {
        "labels": [
            {
                "address": "0x0000000000000000000000000000000000000003",
                "label": "Precompiled"
            },
            {
                "address": "0x0000000000000000000000000000000000000004",
                "label": "Precompiled"
            },
            {
                "address": "0xeeeeeeeeeeeeeeeeeeeeeeeeeeeeeeeeeeeeeeee",
                "label": "Ether"
            },
            {
                "address": "0xdd974d5c2e2928dea5f71b9825b8b646686bd200",
                "label": "Kyber: Old KNC Token"
            },
            {
                "address": "0x0000000000000000000000000000000000000001",
                "label": "Precompiled"
            },
            {
                "address": "0x0000000000000000000000000000000000000002",
                "label": "Precompiled"
            }
        ]
    },
    "trace": {
        "accountLabels": null,
        "dataMap": {
            "-1": {
                "invocation": {
                    "address": "0xb691f2fc962f44b688216118bcf950f61644f8a7",
                    "callData": "",
                    "decodedMethod": null,
                    "errorInfo": "",
                    "fromAddress": "",
                    "gasUsed": 0,
                    "id": -1,
                    "methodDecoded": false,
                    "operation": "",
                    "output": "",
                    "revert": false,
                    "revertMessage": "",
                    "selector": "",
                    "status": false,
                    "value": ""
                },
                "nodeType": 0
            },
            "0": {
                "invocation": {
                    "address": "0xdd974d5c2e2928dea5f71b9825b8b646686bd200",
                    "callData": "0x000000000000000000000000964f35fae36d75b1e72770e244f6595b68508cf58000000000000000000000000000000000000000000000000000000000000000",
                    "decodedMethod": {
                        "callParams": [
                            {
                                "name": "_spender",
                                "type": "address",
                                "value": "0x964f35fae36d75b1e72770e244f6595b68508cf5"
                            },
                            {
                                "decimalAvailable": true,
                                "name": "_value",
                                "type": "uint256",
                                "value": "57,896,044,618,658,097,711,785,492,504,343,953,926,634,992,332,820,282,019,728,792,003,956,564,819,968"
                            }
                        ],
                        "constructorArguments": "",
                        "name": "approve",
                        "returnParams": [
                            {
                                "name": "",
                                "type": "bool",
                                "value": true
                            }
                        ],
                        "signature": "approve(address,uint256)"
                    },
                    "errorInfo": "",
                    "fromAddress": "0xb691f2fc962f44b688216118bcf950f61644f8a7",
                    "gasUsed": 45691,
                    "id": 0,
                    "methodDecoded": true,
                    "operation": "CALL",
                    "output": "0x0000000000000000000000000000000000000000000000000000000000000001",
                    "revert": false,
                    "revertMessage": "",
                    "selector": "0x095ea7b3",
                    "status": true,
                    "value": "0"
                },
                "nodeType": 0
            },
            "1": {
                "event": {
                    "contract": "0xdd974d5c2e2928dea5f71b9825b8b646686bd200",
                    "decodedLog": {
                        "name": "Approval",
                        "params": [
                            {
                                "name": "_owner",
                                "type": "address",
                                "value": "0xb691f2fc962f44b688216118bcf950f61644f8a7"
                            },
                            {
                                "name": "_spender",
                                "type": "address",
                                "value": "0x964f35fae36d75b1e72770e244f6595b68508cf5"
                            },
                            {
                                "decimalAvailable": true,
                                "name": "_value",
                                "type": "uint256",
                                "value": "57,896,044,618,658,097,711,785,492,504,343,953,926,634,992,332,820,282,019,728,792,003,956,564,819,968"
                            }
                        ],
                        "signature": "Approval(address,address,uint256)"
                    },
                    "id": 1,
                    "logData": "0x8000000000000000000000000000000000000000000000000000000000000000",
                    "logDecoded": true,
                    "operation": "EVENT",
                    "revert": false,
                    "status": true,
                    "topics": [
                        "0x8c5be1e5ebec7d5bd14f71427d1e84f3dd0314c0f7b2291e5b200ac8c7c3b925",
                        "0x000000000000000000000000b691f2fc962f44b688216118bcf950f61644f8a7",
                        "0x000000000000000000000000964f35fae36d75b1e72770e244f6595b68508cf5"
                    ]
                },
                "nodeType": 1
            }
        },
        "gasFlame": [
            {
                "children": [
                    {
                        "children": [
                            {
                                "children": [],
                                "depth": 0,
                                "name": "Initial Gas",
                                "value": 22872
                            },
                            {
                                "children": [],
                                "depth": 0,
                                "name": "Executed Gas",
                                "value": 22819
                            }
                        ],
                        "depth": -1,
                        "name": "Actual Gas Used",
                        "value": 45691
                    },
                    {
                        "children": [],
                        "depth": -1,
                        "name": "Refunded Gas",
                        "value": 0
                    }
                ],
                "depth": -2,
                "name": "Total Gas",
                "value": 45691
            }
        ],
        "isConfirmed": true,
        "mainTrace": [
            {
                "children": [
                    {
                        "children": [
                            {
                                "children": [],
                                "depth": 1,
                                "id": 1,
                                "order": 1
                            }
                        ],
                        "depth": 0,
                        "id": 0,
                        "order": 0
                    }
                ],
                "depth": -1,
                "id": -1,
                "order": -1
            }
        ],
        "mainTraceNodeCount": 2,
        "parentIdMap": {
            "0": -1,
            "1": 0
        },
        "tidyTrace": [
            {
                "children": [
                    {
                        "children": [
                            {
                                "children": [],
                                "depth": 1,
                                "id": 1,
                                "order": 1
                            }
                        ],
                        "depth": 0,
                        "id": 0,
                        "order": 0
                    }
                ],
                "depth": -1,
                "id": -1,
                "order": -1
            }
        ],
        "tidyTraceNodeCount": 2
    },
    "state_change": {
        "stateChanges": [
            {
                "address": "0xdd974d5c2e2928dea5f71b9825b8b646686bd200",
                "erc": "ERC-20",
                "slots": [
                    {
                        "current": "0x8000000000000000000000000000000000000000000000000000000000000000",
                        "key": "0x1ba22b21a41c1c15735262b929674ea6060d024368842cc6e5ce77d51c6009d4",
                        "prev": "0x0000000000000000000000000000000000000000000000000000000000000000"
                    }
                ],
                "storageVariables": [
                    {
                        "name": "allowed",
                        "type": "mapping(address => mapping(address => uint256))",
                        "value": {
                            "pairs": [
                                {
                                    "key": "0xb691f2fc962f44b688216118bcf950f61644f8a7",
                                    "value": {
                                        "pairs": [
                                            {
                                                "key": "0x964f35fae36d75b1e72770e244f6595b68508cf5",
                                                "value": {
                                                    "current": "57896044618658097711785492504343953926634992332820282019728792003956564819968",
                                                    "prev": "0",
                                                    "typeTag": 1
                                                }
                                            }
                                        ],
                                        "typeTag": 4
                                    }
                                }
                            ],
                            "typeTag": 4
                        }
                    }
                ]
            }
        ]
    }
}