{
    "balance_change": {
        "balanceChanges": [
            {
                "account": "0x57f5d3fd440cd90bcdd4ac5043a562fc508a6b09",
                "assets": [
                    {
                        "address": "0xeeeeeeeeeeeeeeeeeeeeeeeeeeeeeeeeeeeeeeee",
                        "amount": "1",
                        "iconUrl": "https://assets.blocksec.com/image/1663669189317-3.png",
                        "isERC1155": false,
                        "isERC721": false,
                        "sign": false,
                        "value": "2939.4192699999998695"
                    }
                ]
            },
            {
                "account": "0x47ce0c6ed5b0ce3d3a51fdb1c52dc66a7c3c2936",
                "assets": [
                    {
                        "address": "0xeeeeeeeeeeeeeeeeeeeeeeeeeeeeeeeeeeeeeeee",
                        "amount": "1",
                        "iconUrl": "https://assets.blocksec.com/image/1663669189317-3.png",
                        "isERC1155": false,
                        "isERC721": false,
                        "sign": true,
                        "value": "2939.4192699999998695"
                    }
                ]
            }
        ]
    },
    "profile": {
        "basic_info": {
            "baseFee": "34.769774049",
            "blockNumber": 14851253,
            "callData": "0x13d98d1300000000000000000000000047ce0c6ed5b0ce3d3a51fdb1c52dc66a7c3c293607dd01b0799d2834d69272632a9ba918dbec2c0d295c9017235858485ecc712c00000000000000000000000000000000000000000000000000000000000000600000000000000000000000000000000000000000000000000000000000000000",
            "debugEnable": true,
            "errorInfo": "",
            "eventCount": 2,
            "feeRecipient": "0x646db8ffc21e7ddc2b6327448dd9fa560df41087",
            "formatValue": "1",
            "gasLimit": 976041,
            "gasPrice": "35.769774049",
            "gasUsed": 914236,
            "intTxnCount": 43,
            "internalRevert": false,
            "internalRevertMessage": "",
            "isContractCreation": false,
            "isFlashloan": false,
            "maxFee": "36.08561479",
            "nonce": 1,
            "overwritedBlockNumber": -1,
            "priorityFee": "1",
            "receiver": "0xd90e2f925da726b50c4ed8d0fb90ad053324f31b",
            "revertMessage": "",
            "sender": "0x57f5d3fd440cd90bcdd4ac5043a562fc508a6b09",
            "simulationEnable": true,
            "sourceTxnHash": "0x7d816d29871a1524386751f102db071b97baa359d083d07a825987048263d842",
            "status": true,
            "timestamp": "2022-05-27T01:19:43Z",
            "transactionFee": "0.032702015147461564",
            "txnHash": "0x7d816d29871a1524386751f102db071b97baa359d083d07a825987048263d842",
            "txnIndex": 13,
            "type": 2,
            "value": "1000000000000000000"
        },
        "fund_flow": [
            {
                "amount": "1",
                "from": "0x57f5d3fd440cd90bcdd4ac5043a562fc508a6b09",
                "id": 1,
                "isERC1155": false,
                "isERC721": false,
                "isReverted": false,
                "order": 1,
                "to": "0xd90e2f925da726b50c4ed8d0fb90ad053324f31b",
                "token": "0xeeeeeeeeeeeeeeeeeeeeeeeeeeeeeeeeeeeeeeee"
            },
            {
                "amount": "1",
                "from": "0xd90e2f925da726b50c4ed8d0fb90ad053324f31b",
                "id": 2,
                "isERC1155": false,
                "isERC721": false,
                "isReverted": false,
                "order": 2,
                "to": "0x47ce0c6ed5b0ce3d3a51fdb1c52dc66a7c3c2936",
                "token": "0xeeeeeeeeeeeeeeeeeeeeeeeeeeeeeeeeeeeeeeee"
            }
        ],
        "token_infos": [
            {
                "address": "0xc02aaa39b223fe8d0a0e5c4f27ead9083c756cc2",
                "decimals": 18
            },
            {
                "address": "0xeeeeeeeeeeeeeeeeeeeeeeeeeeeeeeeeeeeeeeee",
                "decimals": 18
            }
        ]
    },
    "address_label": {
        "labels": [
            {
                "address": "0xd90e2f925da726b50c4ed8d0fb90ad053324f31b",
                "label": "Tornado.Cash: Router"
            },
            {
                "address": "0x0000000000000000000000000000000000000001",
                "label": "Precompiled"
            },
            {
                "address": "0x0000000000000000000000000000000000000002",
                "label": "Precompiled"
            },
            {
                "address": "0x0000000000000000000000000000000000000003",
                "label": "Precompiled"
            },
            {
                "address": "0x0000000000000000000000000000000000000004",
                "label": "Precompiled"
            },
            {
                "address": "0xeeeeeeeeeeeeeeeeeeeeeeeeeeeeeeeeeeeeeeee",
                "label": "Ether"
            },
            {
                "address": "0xb20c66c4de72433f3ce747b58b86830c459ca911",
                "label": "Tornado.Cash: Instance Registry"
            },
            {
                "address": "0x2573bac39ebe2901b4389cd468f2872cf7767faf",
                "label": "TORNADO.CASH"
            },
            {
                "address": "0x0000000000000000000000000000000000000000",
                "label": "Null Address"
            },
            {
                "address": "0x47ce0c6ed5b0ce3d3a51fdb1c52dc66a7c3c2936",
                "label": "Tornado.Cash: 1 ETH"
            }
        ]
    },
    "trace": {
        "accountLabels": null,
        "dataMap": {
            "-1": {
                "invocation": {
                    "address": "0x57f5d3fd440cd90bcdd4ac5043a562fc508a6b09",
                    "callData": "",
                    "decodedMethod": null,
                    "errorInfo": "",
                    "fromAddress": "",
                    "gasUsed": 0,
                    "id": -1,
                    "methodDecoded": false,
                    "operation": "",
                    "output": "",
                    "revert": false,
                    "revertMessage": "",
                    "selector": "",
                    "status": false,
                    "value": ""
                },
                "nodeType": 0
            },
            "0": {
                "invocation": {
                    "address": "0xd90e2f925da726b50c4ed8d0fb90ad053324f31b",
                    "callData": "0x00000000000000000000000047ce0c6ed5b0ce3d3a51fdb1c52dc66a7c3c293607dd01b0799d2834d69272632a9ba918dbec2c0d295c9017235858485ecc712c00000000000000000000000000000000000000000000000000000000000000600000000000000000000000000000000000000000000000000000000000000000",
                    "decodedMethod": {
                        "callParams": [
                            {
                                "name": "_tornado",
                                "type": "address",
                                "value": "0x47ce0c6ed5b0ce3d3a51fdb1c52dc66a7c3c2936"
                            },
                            {
                                "name": "_commitment",
                                "type": "bytes32",
                                "value": "0x07dd01b0799d2834d69272632a9ba918dbec2c0d295c9017235858485ecc712c"
                            },
                            {
                                "name": "_encryptedNote",
                                "type": "bytes",
                                "value": "0x"
                            }
                        ],
                        "constructorArguments": "",
                        "name": "deposit",
                        "returnParams": [],
                        "signature": "deposit(address,bytes32,bytes)"
                    },
                    "errorInfo": "",
                    "fromAddress": "0x57f5d3fd440cd90bcdd4ac5043a562fc508a6b09",
                    "gasUsed": 914236,
                    "id": 0,
                    "methodDecoded": true,
                    "operation": "CALL",
                    "output": "",
                    "revert": false,
                    "revertMessage": "",
                    "selector": "0x13d98d13",
                    "status": true,
                    "value": "1"
                },
                "nodeType": 0
            },
            "1": {
                "invocation": {
                    "address": "0xb20c66c4de72433f3ce747b58b86830c459ca911",
                    "callData": "0x00000000000000000000000047ce0c6ed5b0ce3d3a51fdb1c52dc66a7c3c2936",
                    "decodedMethod": {
                        "callParams": [
                            {
                                "name": "",
                                "type": "address",
                                "value": "0x47ce0c6ed5b0ce3d3a51fdb1c52dc66a7c3c2936"
                            }
                        ],
                        "constructorArguments": "",
                        "name": "instances",
                        "returnParams": [
                            {
                                "name": "isERC20",
                                "type": "bool",
                                "value": false
                            },
                            {
                                "name": "token",
                                "type": "address",
                                "value": "0x0000000000000000000000000000000000000000"
                            },
                            {
                                "name": "state",
                                "type": "uint8",
                                "value": "1"
                            },
                            {
                                "name": "uniswapPoolSwappingFee",
                                "type": "uint24",
                                "value": "0"
                            },
                            {
                                "name": "protocolFeePercentage",
                                "type": "uint32",
                                "value": "30"
                            }
                        ],
                        "signature": "instances(address)"
                    },
                    "errorInfo": "",
                    "fromAddress": "0xd90e2f925da726b50c4ed8d0fb90ad053324f31b",
                    "gasUsed": 7891,
                    "id": 1,
                    "methodDecoded": true,
                    "operation": "STATICCALL",
                    "output": "0x0000000000000000000000000000000000000000000000000000000000000000000000000000000000000000000000000000000000000000000000000000000000000000000000000000000000000000000000000000000000000000000000010000000000000000000000000000000000000000000000000000000000000000000000000000000000000000000000000000000000000000000000000000001e",
                    "revert": false,
                    "revertMessage": "",
                    "selector": "0x032bb443",
                    "status": true,
                    "value": "0"
                },
                "nodeType": 0
            },
            "10": {
                "invocation": {
                    "address": "0x83584f83f26af4edda9cbe8c730bc87c364b28fe",
                    "callData": "0x27915180ec48813e68a3241806e45782db01a86d15c385552a29d12e4da296770000000000000000000000000000000000000000000000000000000000000000",
                    "decodedMethod": {
                        "callParams": [
                            {
                                "name": "in_xL",
                                "type": "uint256",
                                "value": "17,896,956,436,351,045,907,862,889,473,452,878,852,374,750,379,145,715,098,232,765,064,339,307,796,087"
                            },
                            {
                                "name": "in_xR",
                                "type": "uint256",
                                "value": "0"
                            }
                        ],
                        "constructorArguments": "",
                        "name": "MiMCSponge",
                        "returnParams": [
                            {
                                "name": "xL",
                                "type": "uint256",
                                "value": "6,249,570,480,394,682,839,267,495,300,664,151,541,910,977,998,010,988,749,929,781,179,094,796,125,010"
                            },
                            {
                                "name": "xR",
                                "type": "uint256",
                                "value": "5,732,764,894,389,252,831,599,883,832,105,694,086,732,494,281,551,433,484,655,773,466,993,296,649,798"
                            }
                        ],
                        "signature": "MiMCSponge(uint256,uint256)"
                    },
                    "errorInfo": "",
                    "fromAddress": "0x47ce0c6ed5b0ce3d3a51fdb1c52dc66a7c3c2936",
                    "gasUsed": 17460,
                    "id": 10,
                    "methodDecoded": true,
                    "operation": "DELEGATECALL",
                    "output": "0x0dd121aca67d029bec3ea65d95bf7bbefbeea5723fc2e9373e3747582b4cc3520caca144112fc97d87640fcfe4dbb04182ca6e158028d2b76260f514fd4bae46",
                    "revert": false,
                    "revertMessage": "",
                    "selector": "0xf47d33b5",
                    "status": true,
                    "value": "1"
                },
                "nodeType": 0
            },
            "11": {
                "invocation": {
                    "address": "0x83584f83f26af4edda9cbe8c730bc87c364b28fe",
                    "callData": "0x15c70e0fe566f54f73072995ddc3ed5ab4dfb4e61b5415143377b10eb9b669c20caca144112fc97d87640fcfe4dbb04182ca6e158028d2b76260f514fd4bae46",
                    "decodedMethod": {
                        "callParams": [
                            {
                                "name": "in_xL",
                                "type": "uint256",
                                "value": "9,850,269,439,146,417,069,423,149,450,235,887,082,204,584,634,254,088,388,592,433,168,987,572,300,226"
                            },
                            {
                                "name": "in_xR",
                                "type": "uint256",
                                "value": "5,732,764,894,389,252,831,599,883,832,105,694,086,732,494,281,551,433,484,655,773,466,993,296,649,798"
                            }
                        ],
                        "constructorArguments": "",
                        "name": "MiMCSponge",
                        "returnParams": [
                            {
                                "name": "xL",
                                "type": "uint256",
                                "value": "158,419,168,851,170,478,717,798,171,790,616,021,256,785,759,759,634,376,647,784,010,041,614,914,557"
                            },
                            {
                                "name": "xR",
                                "type": "uint256",
                                "value": "10,982,775,401,379,765,070,676,235,297,648,544,150,693,446,366,412,037,007,638,409,981,067,761,837,575"
                            }
                        ],
                        "signature": "MiMCSponge(uint256,uint256)"
                    },
                    "errorInfo": "",
                    "fromAddress": "0x47ce0c6ed5b0ce3d3a51fdb1c52dc66a7c3c2936",
                    "gasUsed": 17460,
                    "id": 11,
                    "methodDecoded": true,
                    "operation": "DELEGATECALL",
                    "output": "0x0059a97d8e0da1c737779169b57accb1d20d193d05ca99ddafe02467f987d3fd184807d4b4440d165183d6b9c4c507826976e240e274381803d725c14b2c6607",
                    "revert": false,
                    "revertMessage": "",
                    "selector": "0xf47d33b5",
                    "status": true,
                    "value": "1"
                },
                "nodeType": 0
            },
            "12": {
                "invocation": {
                    "address": "0x83584f83f26af4edda9cbe8c730bc87c364b28fe",
                    "callData": "0x285e29529087cb7b75e87944468b79968828a52205bab545e83fb4fc17a55a060000000000000000000000000000000000000000000000000000000000000000",
                    "decodedMethod": {
                        "callParams": [
                            {
                                "name": "in_xL",
                                "type": "uint256",
                                "value": "18,258,882,764,956,501,543,860,966,185,476,573,983,874,599,202,990,507,845,936,763,239,726,104,009,222"
                            },
                            {
                                "name": "in_xR",
                                "type": "uint256",
                                "value": "0"
                            }
                        ],
                        "constructorArguments": "",
                        "name": "MiMCSponge",
                        "returnParams": [
                            {
                                "name": "xL",
                                "type": "uint256",
                                "value": "5,405,265,801,609,135,208,531,301,128,416,100,568,576,058,410,663,066,722,349,106,041,497,891,943,882"
                            },
                            {
                                "name": "xR",
                                "type": "uint256",
                                "value": "1,942,496,924,223,695,641,293,225,467,768,519,119,014,118,623,273,384,043,544,345,179,723,892,934,120"
                            }
                        ],
                        "signature": "MiMCSponge(uint256,uint256)"
                    },
                    "errorInfo": "",
                    "fromAddress": "0x47ce0c6ed5b0ce3d3a51fdb1c52dc66a7c3c2936",
                    "gasUsed": 17460,
                    "id": 12,
                    "methodDecoded": true,
                    "operation": "DELEGATECALL",
                    "output": "0x0bf345a39304a7f0c752339b327219e3b9f676ac43200edb5c65639621e0b5ca044b6a0f63e5697223f9401d9c2e250d8dc5dcc14b105de00cfffe940bae45e8",
                    "revert": false,
                    "revertMessage": "",
                    "selector": "0xf47d33b5",
                    "status": true,
                    "value": "1"
                },
                "nodeType": 0
            },
            "13": {
                "invocation": {
                    "address": "0x83584f83f26af4edda9cbe8c730bc87c364b28fe",
                    "callData": "0x0c4cef21211249b7fec9c504e7ece6958c038fe948eaa8b90c4587fe1b6889c7044b6a0f63e5697223f9401d9c2e250d8dc5dcc14b105de00cfffe940bae45e8",
                    "decodedMethod": {
                        "callParams": [
                            {
                                "name": "in_xL",
                                "type": "uint256",
                                "value": "5,563,684,970,460,305,687,249,099,300,206,716,589,832,844,170,422,701,098,996,890,051,539,506,858,439"
                            },
                            {
                                "name": "in_xR",
                                "type": "uint256",
                                "value": "1,942,496,924,223,695,641,293,225,467,768,519,119,014,118,623,273,384,043,544,345,179,723,892,934,120"
                            }
                        ],
                        "constructorArguments": "",
                        "name": "MiMCSponge",
                        "returnParams": [
                            {
                                "name": "xL",
                                "type": "uint256",
                                "value": "19,036,321,421,883,752,812,537,554,856,413,148,356,352,290,984,839,671,974,433,423,311,201,010,582,595"
                            },
                            {
                                "name": "xR",
                                "type": "uint256",
                                "value": "7,359,335,023,449,068,013,553,719,352,530,317,192,186,189,697,976,281,809,864,759,582,068,504,182,816"
                            }
                        ],
                        "signature": "MiMCSponge(uint256,uint256)"
                    },
                    "errorInfo": "",
                    "fromAddress": "0x47ce0c6ed5b0ce3d3a51fdb1c52dc66a7c3c2936",
                    "gasUsed": 17460,
                    "id": 13,
                    "methodDecoded": true,
                    "operation": "DELEGATECALL",
                    "output": "0x2a162d150b8e409ea7ea9aa855b8d421cdf2cb2f9b7ee59fb3860c2de192044310453c6b56e745616a6165b16d5148fc00b7ac5f8acd380d18f63053dd12c020",
                    "revert": false,
                    "revertMessage": "",
                    "selector": "0xf47d33b5",
                    "status": true,
                    "value": "1"
                },
                "nodeType": 0
            },
            "14": {
                "invocation": {
                    "address": "0x83584f83f26af4edda9cbe8c730bc87c364b28fe",
                    "callData": "0x2a162d150b8e409ea7ea9aa855b8d421cdf2cb2f9b7ee59fb3860c2de19204430000000000000000000000000000000000000000000000000000000000000000",
                    "decodedMethod": {
                        "callParams": [
                            {
                                "name": "in_xL",
                                "type": "uint256",
                                "value": "19,036,321,421,883,752,812,537,554,856,413,148,356,352,290,984,839,671,974,433,423,311,201,010,582,595"
                            },
                            {
                                "name": "in_xR",
                                "type": "uint256",
                                "value": "0"
                            }
                        ],
                        "constructorArguments": "",
                        "name": "MiMCSponge",
                        "returnParams": [
                            {
                                "name": "xL",
                                "type": "uint256",
                                "value": "14,027,417,680,917,176,926,356,992,884,734,458,622,122,066,499,580,318,257,016,943,108,885,545,958,163"
                            },
                            {
                                "name": "xR",
                                "type": "uint256",
                                "value": "21,390,743,707,756,293,984,583,972,008,314,718,822,735,271,129,577,731,072,120,472,975,885,480,695,102"
                            }
                        ],
                        "signature": "MiMCSponge(uint256,uint256)"
                    },
                    "errorInfo": "",
                    "fromAddress": "0x47ce0c6ed5b0ce3d3a51fdb1c52dc66a7c3c2936",
                    "gasUsed": 17460,
                    "id": 14,
                    "methodDecoded": true,
                    "operation": "DELEGATECALL",
                    "output": "0x1f033caf6737c5c78033482ada6df11e8961d0255bb39028a97269622e5b3b132f4abb5d492f5e3dc2df52b34a96ff1a7c5cf718213903aa1c6d794ed047153e",
                    "revert": false,
                    "revertMessage": "",
                    "selector": "0xf47d33b5",
                    "status": true,
                    "value": "1"
                },
                "nodeType": 0
            },
            "15": {
                "invocation": {
                    "address": "0x83584f83f26af4edda9cbe8c730bc87c364b28fe",
                    "callData": "0x1368f3ff3bd3688658b9c1091f799f4b56200479ce962eab63d249351e10846b2f4abb5d492f5e3dc2df52b34a96ff1a7c5cf718213903aa1c6d794ed047153e",
                    "decodedMethod": {
                        "callParams": [
                            {
                                "name": "in_xL",
                                "type": "uint256",
                                "value": "8,779,380,223,268,077,118,490,664,804,595,452,983,868,060,958,061,303,553,876,272,201,206,372,271,211"
                            },
                            {
                                "name": "in_xR",
                                "type": "uint256",
                                "value": "21,390,743,707,756,293,984,583,972,008,314,718,822,735,271,129,577,731,072,120,472,975,885,480,695,102"
                            }
                        ],
                        "constructorArguments": "",
                        "name": "MiMCSponge",
                        "returnParams": [
                            {
                                "name": "xL",
                                "type": "uint256",
                                "value": "5,878,232,870,510,811,245,922,982,547,924,078,921,239,262,759,110,127,787,874,846,114,098,033,198,571"
                            },
                            {
                                "name": "xR",
                                "type": "uint256",
                                "value": "19,352,962,642,171,906,908,306,668,752,879,050,152,781,163,768,279,034,432,899,367,256,901,143,181,517"
                            }
                        ],
                        "signature": "MiMCSponge(uint256,uint256)"
                    },
                    "errorInfo": "",
                    "fromAddress": "0x47ce0c6ed5b0ce3d3a51fdb1c52dc66a7c3c2936",
                    "gasUsed": 17460,
                    "id": 15,
                    "methodDecoded": true,
                    "operation": "DELEGATECALL",
                    "output": "0x0cfef63f2f49994440d7a3ce38d38547d100eaf782a30dae1a8bf52d3d0005eb2ac96380a9e6e271a0bd64e6433d1831b8d42b52d2d33d61244ad0df6a1f38cd",
                    "revert": false,
                    "revertMessage": "",
                    "selector": "0xf47d33b5",
                    "status": true,
                    "value": "1"
                },
                "nodeType": 0
            },
            "16": {
                "invocation": {
                    "address": "0x83584f83f26af4edda9cbe8c730bc87c364b28fe",
                    "callData": "0x0cfef63f2f49994440d7a3ce38d38547d100eaf782a30dae1a8bf52d3d0005eb0000000000000000000000000000000000000000000000000000000000000000",
                    "decodedMethod": {
                        "callParams": [
                            {
                                "name": "in_xL",
                                "type": "uint256",
                                "value": "5,878,232,870,510,811,245,922,982,547,924,078,921,239,262,759,110,127,787,874,846,114,098,033,198,571"
                            },
                            {
                                "name": "in_xR",
                                "type": "uint256",
                                "value": "0"
                            }
                        ],
                        "constructorArguments": "",
                        "name": "MiMCSponge",
                        "returnParams": [
                            {
                                "name": "xL",
                                "type": "uint256",
                                "value": "15,276,252,729,989,110,274,350,879,257,440,841,721,556,044,453,217,837,989,274,883,965,024,852,109,645"
                            },
                            {
                                "name": "xR",
                                "type": "uint256",
                                "value": "13,492,741,023,960,413,005,884,542,468,150,523,745,576,261,780,730,510,233,228,796,418,874,929,277,265"
                            }
                        ],
                        "signature": "MiMCSponge(uint256,uint256)"
                    },
                    "errorInfo": "",
                    "fromAddress": "0x47ce0c6ed5b0ce3d3a51fdb1c52dc66a7c3c2936",
                    "gasUsed": 17460,
                    "id": 16,
                    "methodDecoded": true,
                    "operation": "DELEGATECALL",
                    "output": "0x21c60d79daf5acc3789a906be464a6b075b301411da385a88241d2433a55e94d1dd49eebf5022f85967cb55ac523b8925f5cd6577f80a7bd9b31245947436951",
                    "revert": false,
                    "revertMessage": "",
                    "selector": "0xf47d33b5",
                    "status": true,
                    "value": "1"
                },
                "nodeType": 0
            },
            "17": {
                "invocation": {
                    "address": "0x83584f83f26af4edda9cbe8c730bc87c364b28fe",
                    "callData": "0x0e2d56d02c1a672c864ba1731d1057470c92903ef1ec7205b4b656954efd1aa81dd49eebf5022f85967cb55ac523b8925f5cd6577f80a7bd9b31245947436951",
                    "decodedMethod": {
                        "callParams": [
                            {
                                "name": "in_xL",
                                "type": "uint256",
                                "value": "6,412,487,160,580,089,895,019,636,814,888,452,403,963,464,276,902,153,493,015,488,662,571,763,702,440"
                            },
                            {
                                "name": "in_xR",
                                "type": "uint256",
                                "value": "13,492,741,023,960,413,005,884,542,468,150,523,745,576,261,780,730,510,233,228,796,418,874,929,277,265"
                            }
                        ],
                        "constructorArguments": "",
                        "name": "MiMCSponge",
                        "returnParams": [
                            {
                                "name": "xL",
                                "type": "uint256",
                                "value": "14,382,748,550,225,867,693,899,881,081,047,226,483,728,833,379,330,213,689,986,345,257,459,912,742,697"
                            },
                            {
                                "name": "xR",
                                "type": "uint256",
                                "value": "17,197,155,054,543,571,782,985,449,329,254,528,204,236,377,641,936,814,485,178,281,437,812,695,860,537"
                            }
                        ],
                        "signature": "MiMCSponge(uint256,uint256)"
                    },
                    "errorInfo": "",
                    "fromAddress": "0x47ce0c6ed5b0ce3d3a51fdb1c52dc66a7c3c2936",
                    "gasUsed": 17460,
                    "id": 17,
                    "methodDecoded": true,
                    "operation": "DELEGATECALL",
                    "output": "0x1fcc58e1dce5f41c26e55669eb447de26f0e182c6027d64f2ae071e446ef172926053ead06c1084afdd2d4a9aefa3227551f1d49564a44b58591f346aac18539",
                    "revert": false,
                    "revertMessage": "",
                    "selector": "0xf47d33b5",
                    "status": true,
                    "value": "1"
                },
                "nodeType": 0
            },
            "18": {
                "invocation": {
                    "address": "0x83584f83f26af4edda9cbe8c730bc87c364b28fe",
                    "callData": "0x0c35608865e550fd27ae615739766ed0fb11d1c28f4aaf0661898a233da12ce60000000000000000000000000000000000000000000000000000000000000000",
                    "decodedMethod": {
                        "callParams": [
                            {
                                "name": "in_xL",
                                "type": "uint256",
                                "value": "5,522,063,322,365,366,395,112,584,701,548,405,633,302,700,760,521,297,636,045,507,779,963,736,108,262"
                            },
                            {
                                "name": "in_xR",
                                "type": "uint256",
                                "value": "0"
                            }
                        ],
                        "constructorArguments": "",
                        "name": "MiMCSponge",
                        "returnParams": [
                            {
                                "name": "xL",
                                "type": "uint256",
                                "value": "988,823,758,226,297,014,633,616,804,045,101,714,029,085,550,123,388,808,744,449,545,168,090,658,678"
                            },
                            {
                                "name": "xR",
                                "type": "uint256",
                                "value": "3,946,608,629,988,255,085,220,857,417,729,604,582,356,425,490,832,464,527,380,964,943,701,660,696,201"
                            }
                        ],
                        "signature": "MiMCSponge(uint256,uint256)"
                    },
                    "errorInfo": "",
                    "fromAddress": "0x47ce0c6ed5b0ce3d3a51fdb1c52dc66a7c3c2936",
                    "gasUsed": 17460,
                    "id": 18,
                    "methodDecoded": true,
                    "operation": "DELEGATECALL",
                    "output": "0x022fa787a8dac7cffc407fa37a3263b6383cef8bcb463149dac87c6af629777608b9b38a0c0dc21a15db0ed89c1f4cfdc4e564905a37d5ce93283c0f398c7e89",
                    "revert": false,
                    "revertMessage": "",
                    "selector": "0xf47d33b5",
                    "status": true,
                    "value": "1"
                },
                "nodeType": 0
            },
            "19": {
                "invocation": {
                    "address": "0x83584f83f26af4edda9cbe8c730bc87c364b28fe",
                    "callData": "0x21fc006985c0bbec2325d60d6576e198a74b07b82b6e079905a8ee4f3d188e9f08b9b38a0c0dc21a15db0ed89c1f4cfdc4e564905a37d5ce93283c0f398c7e89",
                    "decodedMethod": {
                        "callParams": [
                            {
                                "name": "in_xL",
                                "type": "uint256",
                                "value": "15,371,572,308,452,164,708,533,497,885,092,328,197,757,918,929,453,602,498,730,794,802,628,003,401,375"
                            },
                            {
                                "name": "in_xR",
                                "type": "uint256",
                                "value": "3,946,608,629,988,255,085,220,857,417,729,604,582,356,425,490,832,464,527,380,964,943,701,660,696,201"
                            }
                        ],
                        "constructorArguments": "",
                        "name": "MiMCSponge",
                        "returnParams": [
                            {
                                "name": "xL",
                                "type": "uint256",
                                "value": "20,706,512,681,998,433,044,154,414,813,885,248,794,173,672,671,978,303,093,791,676,165,333,539,404,003"
                            },
                            {
                                "name": "xR",
                                "type": "uint256",
                                "value": "15,737,714,903,765,672,053,937,323,193,324,739,851,794,353,494,629,365,040,297,249,448,763,239,972,013"
                            }
                        ],
                        "signature": "MiMCSponge(uint256,uint256)"
                    },
                    "errorInfo": "",
                    "fromAddress": "0x47ce0c6ed5b0ce3d3a51fdb1c52dc66a7c3c2936",
                    "gasUsed": 17460,
                    "id": 19,
                    "methodDecoded": true,
                    "operation": "DELEGATECALL",
                    "output": "0x2dc77889fe59bd57233709f339ee0b31da4bc4e743c1ca8126a1aec38828b8e322cb3b2130291c7848bd80cde229b2e3862770ab3d05dda10c46cc122b983cad",
                    "revert": false,
                    "revertMessage": "",
                    "selector": "0xf47d33b5",
                    "status": true,
                    "value": "1"
                },
                "nodeType": 0
            },
            "2": {
                "invocation": {
                    "address": "0x2573bac39ebe2901b4389cd468f2872cf7767faf",
                    "callData": "0x00000000000000000000000047ce0c6ed5b0ce3d3a51fdb1c52dc66a7c3c2936",
                    "decodedMethod": {
                        "callParams": [
                            {
                                "name": "",
                                "type": "address",
                                "value": "0x47ce0c6ed5b0ce3d3a51fdb1c52dc66a7c3c2936"
                            }
                        ],
                        "constructorArguments": "",
                        "name": "instances",
                        "returnParams": [
                            {
                                "name": "isERC20",
                                "type": "bool",
                                "value": false
                            },
                            {
                                "name": "token",
                                "type": "address",
                                "value": "0x0000000000000000000000000000000000000000"
                            },
                            {
                                "name": "state",
                                "type": "uint8",
                                "value": "1"
                            },
                            {
                                "name": "uniswapPoolSwappingFee",
                                "type": "uint24",
                                "value": "0"
                            },
                            {
                                "name": "protocolFeePercentage",
                                "type": "uint32",
                                "value": "30"
                            }
                        ],
                        "signature": "instances(address)"
                    },
                    "errorInfo": "",
                    "fromAddress": "0xb20c66c4de72433f3ce747b58b86830c459ca911",
                    "gasUsed": 2885,
                    "id": 2,
                    "methodDecoded": true,
                    "operation": "DELEGATECALL",
                    "output": "0x0000000000000000000000000000000000000000000000000000000000000000000000000000000000000000000000000000000000000000000000000000000000000000000000000000000000000000000000000000000000000000000000010000000000000000000000000000000000000000000000000000000000000000000000000000000000000000000000000000000000000000000000000000001e",
                    "revert": false,
                    "revertMessage": "",
                    "selector": "0x032bb443",
                    "status": true,
                    "value": "0"
                },
                "nodeType": 0
            },
            "20": {
                "invocation": {
                    "address": "0x83584f83f26af4edda9cbe8c730bc87c364b28fe",
                    "callData": "0x2dc77889fe59bd57233709f339ee0b31da4bc4e743c1ca8126a1aec38828b8e30000000000000000000000000000000000000000000000000000000000000000",
                    "decodedMethod": {
                        "callParams": [
                            {
                                "name": "in_xL",
                                "type": "uint256",
                                "value": "20,706,512,681,998,433,044,154,414,813,885,248,794,173,672,671,978,303,093,791,676,165,333,539,404,003"
                            },
                            {
                                "name": "in_xR",
                                "type": "uint256",
                                "value": "0"
                            }
                        ],
                        "constructorArguments": "",
                        "name": "MiMCSponge",
                        "returnParams": [
                            {
                                "name": "xL",
                                "type": "uint256",
                                "value": "20,318,467,860,221,784,935,345,150,038,860,733,782,941,496,350,925,604,148,608,084,270,617,225,731,206"
                            },
                            {
                                "name": "xR",
                                "type": "uint256",
                                "value": "20,277,044,150,705,771,212,807,992,560,586,899,802,937,469,258,043,021,109,237,659,729,805,644,694,615"
                            }
                        ],
                        "signature": "MiMCSponge(uint256,uint256)"
                    },
                    "errorInfo": "",
                    "fromAddress": "0x47ce0c6ed5b0ce3d3a51fdb1c52dc66a7c3c2936",
                    "gasUsed": 17460,
                    "id": 20,
                    "methodDecoded": true,
                    "operation": "DELEGATECALL",
                    "output": "0x2cebd86398c772d607cbab8cc748596be2cfad438521592e05cd87edf2be1c862cd46678d0ca034cee85269a9ee52c28d3f3718a9e1947d624bffa04b7e48457",
                    "revert": false,
                    "revertMessage": "",
                    "selector": "0xf47d33b5",
                    "status": true,
                    "value": "1"
                },
                "nodeType": 0
            },
            "21": {
                "invocation": {
                    "address": "0x83584f83f26af4edda9cbe8c730bc87c364b28fe",
                    "callData": "0x22a282b2a82700f2a6bfc9ea4fbd23e3215f5705d24de7d4a5519725149e1c052cd46678d0ca034cee85269a9ee52c28d3f3718a9e1947d624bffa04b7e48457",
                    "decodedMethod": {
                        "callParams": [
                            {
                                "name": "in_xL",
                                "type": "uint256",
                                "value": "15,665,768,119,929,255,185,090,552,565,849,230,741,151,492,484,690,546,408,131,681,448,547,449,707,525"
                            },
                            {
                                "name": "in_xR",
                                "type": "uint256",
                                "value": "20,277,044,150,705,771,212,807,992,560,586,899,802,937,469,258,043,021,109,237,659,729,805,644,694,615"
                            }
                        ],
                        "constructorArguments": "",
                        "name": "MiMCSponge",
                        "returnParams": [
                            {
                                "name": "xL",
                                "type": "uint256",
                                "value": "7,159,539,060,712,591,723,975,892,800,900,326,925,769,496,697,798,993,718,352,547,238,151,282,216,673"
                            },
                            {
                                "name": "xR",
                                "type": "uint256",
                                "value": "17,619,456,067,724,956,132,824,945,282,597,399,861,415,826,423,757,297,291,094,885,141,729,087,226,251"
                            }
                        ],
                        "signature": "MiMCSponge(uint256,uint256)"
                    },
                    "errorInfo": "",
                    "fromAddress": "0x47ce0c6ed5b0ce3d3a51fdb1c52dc66a7c3c2936",
                    "gasUsed": 17460,
                    "id": 21,
                    "methodDecoded": true,
                    "operation": "DELEGATECALL",
                    "output": "0x0fd427cf3368eea63cee721bfdc9bb1c5b8b65168b71b69fd012c3807df7cee126f4423c2e8557b66bdf448c83a23ce0f3d64acf5778af27335e592799b6818b",
                    "revert": false,
                    "revertMessage": "",
                    "selector": "0xf47d33b5",
                    "status": true,
                    "value": "1"
                },
                "nodeType": 0
            },
            "22": {
                "invocation": {
                    "address": "0x83584f83f26af4edda9cbe8c730bc87c364b28fe",
                    "callData": "0x1f49190b716e44540d3a8ee4702bd67d26f6cddae0528d4fd61588cfee548bcc0000000000000000000000000000000000000000000000000000000000000000",
                    "decodedMethod": {
                        "callParams": [
                            {
                                "name": "in_xL",
                                "type": "uint256",
                                "value": "14,150,850,993,973,813,331,645,571,771,733,698,949,589,161,287,066,159,014,338,728,479,540,011,895,756"
                            },
                            {
                                "name": "in_xR",
                                "type": "uint256",
                                "value": "0"
                            }
                        ],
                        "constructorArguments": "",
                        "name": "MiMCSponge",
                        "returnParams": [
                            {
                                "name": "xL",
                                "type": "uint256",
                                "value": "3,518,546,173,070,017,400,265,335,073,442,408,336,768,031,788,965,192,618,825,891,485,499,387,694,620"
                            },
                            {
                                "name": "xR",
                                "type": "uint256",
                                "value": "7,811,912,254,634,521,053,447,759,553,202,051,339,410,435,073,914,714,198,421,180,810,083,526,263,363"
                            }
                        ],
                        "signature": "MiMCSponge(uint256,uint256)"
                    },
                    "errorInfo": "",
                    "fromAddress": "0x47ce0c6ed5b0ce3d3a51fdb1c52dc66a7c3c2936",
                    "gasUsed": 17460,
                    "id": 22,
                    "methodDecoded": true,
                    "operation": "DELEGATECALL",
                    "output": "0x07c76d3310f8611cf1d37a53a5758e90e4b28e2b9992b5f22318450ac8ee4e1c114562b9d5d03233c4af30465610588b376e560a2a8d48e01a2c236e31984243",
                    "revert": false,
                    "revertMessage": "",
                    "selector": "0xf47d33b5",
                    "status": true,
                    "value": "1"
                },
                "nodeType": 0
            },
            "23": {
                "invocation": {
                    "address": "0x83584f83f26af4edda9cbe8c730bc87c364b28fe",
                    "callData": "0x179b950244614fc32ec1ec6fa33f49ad403df34225046c91f32b088b46e61cfd114562b9d5d03233c4af30465610588b376e560a2a8d48e01a2c236e31984243",
                    "decodedMethod": {
                        "callParams": [
                            {
                                "name": "in_xL",
                                "type": "uint256",
                                "value": "10,678,085,233,782,609,124,241,227,874,342,735,262,537,528,486,764,186,337,178,438,723,650,669,911,293"
                            },
                            {
                                "name": "in_xR",
                                "type": "uint256",
                                "value": "7,811,912,254,634,521,053,447,759,553,202,051,339,410,435,073,914,714,198,421,180,810,083,526,263,363"
                            }
                        ],
                        "constructorArguments": "",
                        "name": "MiMCSponge",
                        "returnParams": [
                            {
                                "name": "xL",
                                "type": "uint256",
                                "value": "6,922,341,252,285,675,410,719,025,473,440,618,983,659,378,966,417,056,591,313,693,568,452,504,738,403"
                            },
                            {
                                "name": "xR",
                                "type": "uint256",
                                "value": "19,217,506,270,976,349,629,698,896,398,824,328,286,608,713,144,482,640,639,234,597,857,318,909,940,172"
                            }
                        ],
                        "signature": "MiMCSponge(uint256,uint256)"
                    },
                    "errorInfo": "",
                    "fromAddress": "0x47ce0c6ed5b0ce3d3a51fdb1c52dc66a7c3c2936",
                    "gasUsed": 17460,
                    "id": 23,
                    "methodDecoded": true,
                    "operation": "DELEGATECALL",
                    "output": "0x0f4de8038058aa99ec242f374f4e959e077735aa26368d1c025d83dc739a5a632a7cb91c9c9ea4292dcad643abcc0d9c9e75bc14972dd5472ef7758b62c691cc",
                    "revert": false,
                    "revertMessage": "",
                    "selector": "0xf47d33b5",
                    "status": true,
                    "value": "1"
                },
                "nodeType": 0
            },
            "24": {
                "invocation": {
                    "address": "0x83584f83f26af4edda9cbe8c730bc87c364b28fe",
                    "callData": "0x0952aeaac8175943246b6f8277802e2aa74ddf99307ae001f108076b6e1ae5370000000000000000000000000000000000000000000000000000000000000000",
                    "decodedMethod": {
                        "callParams": [
                            {
                                "name": "in_xL",
                                "type": "uint256",
                                "value": "4,216,902,604,688,563,407,954,323,889,229,595,876,590,447,424,623,825,323,275,047,114,564,097,991,991"
                            },
                            {
                                "name": "in_xR",
                                "type": "uint256",
                                "value": "0"
                            }
                        ],
                        "constructorArguments": "",
                        "name": "MiMCSponge",
                        "returnParams": [
                            {
                                "name": "xL",
                                "type": "uint256",
                                "value": "1,084,964,167,477,654,974,360,461,326,017,681,577,414,779,554,321,380,924,506,795,506,608,144,322,657"
                            },
                            {
                                "name": "xR",
                                "type": "uint256",
                                "value": "5,941,668,114,096,460,541,042,933,232,912,082,262,308,649,812,585,552,311,698,655,522,881,399,435,228"
                            }
                        ],
                        "signature": "MiMCSponge(uint256,uint256)"
                    },
                    "errorInfo": "",
                    "fromAddress": "0x47ce0c6ed5b0ce3d3a51fdb1c52dc66a7c3c2936",
                    "gasUsed": 17460,
                    "id": 24,
                    "methodDecoded": true,
                    "operation": "DELEGATECALL",
                    "output": "0x02661165a2018622bcebbf7937e9759f9c239a0cebbd74d61f23c22a641310610d22dd6f24394b1f45d73478b0f7b48a0a161bf4dd2fa74088056cfc92fc2fdc",
                    "revert": false,
                    "revertMessage": "",
                    "selector": "0xf47d33b5",
                    "status": true,
                    "value": "1"
                },
                "nodeType": 0
            },
            "25": {
                "invocation": {
                    "address": "0x83584f83f26af4edda9cbe8c730bc87c364b28fe",
                    "callData": "0x11b3f969225a30bca90feeb087380b3da39acfb711f401f221814606d7ad6ac40d22dd6f24394b1f45d73478b0f7b48a0a161bf4dd2fa74088056cfc92fc2fdc",
                    "decodedMethod": {
                        "callParams": [
                            {
                                "name": "in_xL",
                                "type": "uint256",
                                "value": "8,007,305,419,763,330,385,079,486,799,458,300,561,074,158,520,738,437,515,820,489,075,060,649,061,060"
                            },
                            {
                                "name": "in_xR",
                                "type": "uint256",
                                "value": "5,941,668,114,096,460,541,042,933,232,912,082,262,308,649,812,585,552,311,698,655,522,881,399,435,228"
                            }
                        ],
                        "constructorArguments": "",
                        "name": "MiMCSponge",
                        "returnParams": [
                            {
                                "name": "xL",
                                "type": "uint256",
                                "value": "18,493,517,103,211,632,158,015,457,527,943,008,004,395,259,904,092,764,836,061,008,790,808,774,515,091"
                            },
                            {
                                "name": "xR",
                                "type": "uint256",
                                "value": "20,561,617,173,470,000,297,168,053,369,824,218,131,861,630,126,132,843,141,859,181,302,475,537,081,342"
                            }
                        ],
                        "signature": "MiMCSponge(uint256,uint256)"
                    },
                    "errorInfo": "",
                    "fromAddress": "0x47ce0c6ed5b0ce3d3a51fdb1c52dc66a7c3c2936",
                    "gasUsed": 17460,
                    "id": 25,
                    "methodDecoded": true,
                    "operation": "DELEGATECALL",
                    "output": "0x28e2f5b1dee9df284373952cf457ffee0a523423698dfe83303c6f3b6b9f19932d757680e10fffb4dc5f0fc302c5e14d4cbe5de01dc0168e85695a92a8f563fe",
                    "revert": false,
                    "revertMessage": "",
                    "selector": "0xf47d33b5",
                    "status": true,
                    "value": "1"
                },
                "nodeType": 0
            },
            "26": {
                "invocation": {
                    "address": "0x83584f83f26af4edda9cbe8c730bc87c364b28fe",
                    "callData": "0x0a0546adedbdfa8d9f069581f65b879a18612ab9e60779a14922dfa8639476690000000000000000000000000000000000000000000000000000000000000000",
                    "decodedMethod": {
                        "callParams": [
                            {
                                "name": "in_xL",
                                "type": "uint256",
                                "value": "4,532,450,532,508,770,401,170,151,948,948,087,925,213,525,267,454,110,913,038,793,144,314,277,164,649"
                            },
                            {
                                "name": "in_xR",
                                "type": "uint256",
                                "value": "0"
                            }
                        ],
                        "constructorArguments": "",
                        "name": "MiMCSponge",
                        "returnParams": [
                            {
                                "name": "xL",
                                "type": "uint256",
                                "value": "4,862,845,791,981,511,881,851,346,556,231,641,639,134,633,707,492,326,951,705,867,076,907,325,314,416"
                            },
                            {
                                "name": "xR",
                                "type": "uint256",
                                "value": "19,146,477,563,484,506,609,122,540,170,664,254,700,635,992,403,595,490,436,040,806,200,911,554,322,017"
                            }
                        ],
                        "signature": "MiMCSponge(uint256,uint256)"
                    },
                    "errorInfo": "",
                    "fromAddress": "0x47ce0c6ed5b0ce3d3a51fdb1c52dc66a7c3c2936",
                    "gasUsed": 17460,
                    "id": 26,
                    "methodDecoded": true,
                    "operation": "DELEGATECALL",
                    "output": "0x0ac045ef36f1832fda02a4d1404de17ae64ecdbebdf3c77d17012dda12d5d5702a5485b36cbcb53c51898bd8c106ae2b083ed72640e71418713f9a1e98ea9e61",
                    "revert": false,
                    "revertMessage": "",
                    "selector": "0xf47d33b5",
                    "status": true,
                    "value": "1"
                },
                "nodeType": 0
            },
            "27": {
                "invocation": {
                    "address": "0x83584f83f26af4edda9cbe8c730bc87c364b28fe",
                    "callData": "0x033eed2e34a9c22e6525f447b324890bc86d1999adc8556f035ba7818e74ef022a5485b36cbcb53c51898bd8c106ae2b083ed72640e71418713f9a1e98ea9e61",
                    "decodedMethod": {
                        "callParams": [
                            {
                                "name": "in_xL",
                                "type": "uint256",
                                "value": "1,468,120,023,353,868,817,620,398,338,917,374,554,981,529,211,169,057,444,068,671,681,140,291,333,890"
                            },
                            {
                                "name": "in_xR",
                                "type": "uint256",
                                "value": "19,146,477,563,484,506,609,122,540,170,664,254,700,635,992,403,595,490,436,040,806,200,911,554,322,017"
                            }
                        ],
                        "constructorArguments": "",
                        "name": "MiMCSponge",
                        "returnParams": [
                            {
                                "name": "xL",
                                "type": "uint256",
                                "value": "5,460,612,269,438,068,057,318,145,212,297,249,488,142,064,453,367,763,416,613,909,638,898,913,764,281"
                            },
                            {
                                "name": "xR",
                                "type": "uint256",
                                "value": "13,510,048,894,855,504,944,852,890,678,583,853,429,592,494,864,678,501,399,293,475,651,824,207,811,631"
                            }
                        ],
                        "signature": "MiMCSponge(uint256,uint256)"
                    },
                    "errorInfo": "",
                    "fromAddress": "0x47ce0c6ed5b0ce3d3a51fdb1c52dc66a7c3c2936",
                    "gasUsed": 17460,
                    "id": 27,
                    "methodDecoded": true,
                    "operation": "DELEGATECALL",
                    "output": "0x0c1298d629c6bddea9fb7baa1972ed1232061d2471a2290250e971ee9d15e3b91dde6aac91a0b40e093c4a3eb70bbafa08f520f95457ab7e5412fd937880542f",
                    "revert": false,
                    "revertMessage": "",
                    "selector": "0xf47d33b5",
                    "status": true,
                    "value": "1"
                },
                "nodeType": 0
            },
            "28": {
                "invocation": {
                    "address": "0x83584f83f26af4edda9cbe8c730bc87c364b28fe",
                    "callData": "0x0c1298d629c6bddea9fb7baa1972ed1232061d2471a2290250e971ee9d15e3b90000000000000000000000000000000000000000000000000000000000000000",
                    "decodedMethod": {
                        "callParams": [
                            {
                                "name": "in_xL",
                                "type": "uint256",
                                "value": "5,460,612,269,438,068,057,318,145,212,297,249,488,142,064,453,367,763,416,613,909,638,898,913,764,281"
                            },
                            {
                                "name": "in_xR",
                                "type": "uint256",
                                "value": "0"
                            }
                        ],
                        "constructorArguments": "",
                        "name": "MiMCSponge",
                        "returnParams": [
                            {
                                "name": "xL",
                                "type": "uint256",
                                "value": "20,205,823,096,731,791,783,613,922,949,260,229,484,198,038,149,562,816,679,141,043,042,833,483,743,726"
                            },
                            {
                                "name": "xR",
                                "type": "uint256",
                                "value": "20,369,291,595,239,804,307,496,096,500,589,395,706,305,716,254,018,594,091,946,095,020,367,041,205,140"
                            }
                        ],
                        "signature": "MiMCSponge(uint256,uint256)"
                    },
                    "errorInfo": "",
                    "fromAddress": "0x47ce0c6ed5b0ce3d3a51fdb1c52dc66a7c3c2936",
                    "gasUsed": 17460,
                    "id": 28,
                    "methodDecoded": true,
                    "operation": "DELEGATECALL",
                    "output": "0x2cac173119dad29a8aa9648cb0c284e9bd603731ee5bb1783cdf30590c60c1ee2d089c48b3bc38ec133177c0727394249f897425c17d04528e16aad74c531394",
                    "revert": false,
                    "revertMessage": "",
                    "selector": "0xf47d33b5",
                    "status": true,
                    "value": "1"
                },
                "nodeType": 0
            },
            "29": {
                "invocation": {
                    "address": "0x83584f83f26af4edda9cbe8c730bc87c364b28fe",
                    "callData": "0x0b28c2001b837e0f041ce96dd34ebc36639528657ce3b7ee1439ef31ef97f0fc2d089c48b3bc38ec133177c0727394249f897425c17d04528e16aad74c531394",
                    "decodedMethod": {
                        "callParams": [
                            {
                                "name": "in_xL",
                                "type": "uint256",
                                "value": "5,047,454,158,695,867,732,418,925,125,029,975,838,678,831,731,525,304,562,922,587,526,188,439,695,612"
                            },
                            {
                                "name": "in_xR",
                                "type": "uint256",
                                "value": "20,369,291,595,239,804,307,496,096,500,589,395,706,305,716,254,018,594,091,946,095,020,367,041,205,140"
                            }
                        ],
                        "constructorArguments": "",
                        "name": "MiMCSponge",
                        "returnParams": [
                            {
                                "name": "xL",
                                "type": "uint256",
                                "value": "4,065,231,696,372,926,316,248,938,732,844,317,967,444,740,934,923,042,966,146,192,486,953,295,228,997"
                            },
                            {
                                "name": "xR",
                                "type": "uint256",
                                "value": "10,132,619,495,259,056,017,394,677,553,567,531,414,918,732,581,701,331,621,126,739,849,159,896,680,995"
                            }
                        ],
                        "signature": "MiMCSponge(uint256,uint256)"
                    },
                    "errorInfo": "",
                    "fromAddress": "0x47ce0c6ed5b0ce3d3a51fdb1c52dc66a7c3c2936",
                    "gasUsed": 17460,
                    "id": 29,
                    "methodDecoded": true,
                    "operation": "DELEGATECALL",
                    "output": "0x08fcd6f01f1e80a6dd6f3a1e9747d600ed284e58399a7f88b7e15e5b23d730451666dc018b3d239785ac6d75f28caa97a59f72b017577917abcee3ef3b5b4a23",
                    "revert": false,
                    "revertMessage": "",
                    "selector": "0xf47d33b5",
                    "status": true,
                    "value": "1"
                },
                "nodeType": 0
            },
            "3": {
                "invocation": {
                    "address": "0x47ce0c6ed5b0ce3d3a51fdb1c52dc66a7c3c2936",
                    "callData": "0x07dd01b0799d2834d69272632a9ba918dbec2c0d295c9017235858485ecc712c",
                    "decodedMethod": {
                        "callParams": [
                            {
                                "name": "_commitment",
                                "type": "bytes32",
                                "value": "0x07dd01b0799d2834d69272632a9ba918dbec2c0d295c9017235858485ecc712c"
                            }
                        ],
                        "constructorArguments": "",
                        "name": "deposit",
                        "returnParams": [],
                        "signature": "deposit(bytes32)"
                    },
                    "errorInfo": "",
                    "fromAddress": "0xd90e2f925da726b50c4ed8d0fb90ad053324f31b",
                    "gasUsed": 868579,
                    "id": 3,
                    "methodDecoded": true,
                    "operation": "CALL",
                    "output": "",
                    "revert": false,
                    "revertMessage": "",
                    "selector": "0xb214faa5",
                    "status": true,
                    "value": "1"
                },
                "nodeType": 0
            },
            "30": {
                "invocation": {
                    "address": "0x83584f83f26af4edda9cbe8c730bc87c364b28fe",
                    "callData": "0x2cc050c0456bdbbfbba250890b1c80b1b161fff6f8489d0a4c33bdf439f1b0aa0000000000000000000000000000000000000000000000000000000000000000",
                    "decodedMethod": {
                        "callParams": [
                            {
                                "name": "in_xL",
                                "type": "uint256",
                                "value": "20,241,557,297,429,592,712,729,777,154,021,810,275,573,111,129,359,530,565,291,970,976,483,799,838,890"
                            },
                            {
                                "name": "in_xR",
                                "type": "uint256",
                                "value": "0"
                            }
                        ],
                        "constructorArguments": "",
                        "name": "MiMCSponge",
                        "returnParams": [
                            {
                                "name": "xL",
                                "type": "uint256",
                                "value": "4,819,979,076,714,499,809,464,699,281,299,872,097,283,827,512,323,657,972,858,034,387,345,444,263,172"
                            },
                            {
                                "name": "xR",
                                "type": "uint256",
                                "value": "11,546,149,407,713,782,918,215,316,598,835,959,843,398,235,746,309,446,284,594,245,286,977,488,706,947"
                            }
                        ],
                        "signature": "MiMCSponge(uint256,uint256)"
                    },
                    "errorInfo": "",
                    "fromAddress": "0x47ce0c6ed5b0ce3d3a51fdb1c52dc66a7c3c2936",
                    "gasUsed": 17460,
                    "id": 30,
                    "methodDecoded": true,
                    "operation": "DELEGATECALL",
                    "output": "0x0aa802f06016593aae60d3edb29cad92b8cc11b3f0cea4a6181a1234fba155041986e393ff9c505b04c3eb08767b23dfb8bb98f29cc109218323f0413ec65d83",
                    "revert": false,
                    "revertMessage": "",
                    "selector": "0xf47d33b5",
                    "status": true,
                    "value": "1"
                },
                "nodeType": 0
            },
            "31": {
                "invocation": {
                    "address": "0x83584f83f26af4edda9cbe8c730bc87c364b28fe",
                    "callData": "0x13a4d9e07f34d9e18bd00e0c49e48393a5f4600c2a69242ecffb70901f7885491986e393ff9c505b04c3eb08767b23dfb8bb98f29cc109218323f0413ec65d83",
                    "decodedMethod": {
                        "callParams": [
                            {
                                "name": "in_xL",
                                "type": "uint256",
                                "value": "8,885,210,773,087,426,125,713,638,014,144,190,064,728,568,447,246,700,939,004,226,874,298,739,492,169"
                            },
                            {
                                "name": "in_xR",
                                "type": "uint256",
                                "value": "11,546,149,407,713,782,918,215,316,598,835,959,843,398,235,746,309,446,284,594,245,286,977,488,706,947"
                            }
                        ],
                        "constructorArguments": "",
                        "name": "MiMCSponge",
                        "returnParams": [
                            {
                                "name": "xL",
                                "type": "uint256",
                                "value": "8,979,241,616,734,174,096,990,951,900,334,711,293,233,447,217,802,585,572,174,367,547,064,616,878,448"
                            },
                            {
                                "name": "xR",
                                "type": "uint256",
                                "value": "21,514,824,433,267,820,966,407,719,629,724,985,445,853,711,614,865,420,286,862,912,310,925,040,064,281"
                            }
                        ],
                        "signature": "MiMCSponge(uint256,uint256)"
                    },
                    "errorInfo": "",
                    "fromAddress": "0x47ce0c6ed5b0ce3d3a51fdb1c52dc66a7c3c2936",
                    "gasUsed": 17460,
                    "id": 31,
                    "methodDecoded": true,
                    "operation": "DELEGATECALL",
                    "output": "0x13da1216553ebe5eee5c2fea0817b06b9b8972296643d83598f6ac3ecd3201702f90f587303906f46ca0988f65f2b874ecaab32059c4528df9589f03c9309719",
                    "revert": false,
                    "revertMessage": "",
                    "selector": "0xf47d33b5",
                    "status": true,
                    "value": "1"
                },
                "nodeType": 0
            },
            "32": {
                "invocation": {
                    "address": "0x83584f83f26af4edda9cbe8c730bc87c364b28fe",
                    "callData": "0x13da1216553ebe5eee5c2fea0817b06b9b8972296643d83598f6ac3ecd3201700000000000000000000000000000000000000000000000000000000000000000",
                    "decodedMethod": {
                        "callParams": [
                            {
                                "name": "in_xL",
                                "type": "uint256",
                                "value": "8,979,241,616,734,174,096,990,951,900,334,711,293,233,447,217,802,585,572,174,367,547,064,616,878,448"
                            },
                            {
                                "name": "in_xR",
                                "type": "uint256",
                                "value": "0"
                            }
                        ],
                        "constructorArguments": "",
                        "name": "MiMCSponge",
                        "returnParams": [
                            {
                                "name": "xL",
                                "type": "uint256",
                                "value": "10,378,367,251,088,847,423,761,998,109,954,736,808,035,368,116,067,326,102,855,054,213,067,753,439,009"
                            },
                            {
                                "name": "xR",
                                "type": "uint256",
                                "value": "5,205,832,838,694,881,896,150,052,005,478,145,459,337,080,761,485,413,326,566,829,794,790,115,859,587"
                            }
                        ],
                        "signature": "MiMCSponge(uint256,uint256)"
                    },
                    "errorInfo": "",
                    "fromAddress": "0x47ce0c6ed5b0ce3d3a51fdb1c52dc66a7c3c2936",
                    "gasUsed": 17460,
                    "id": 32,
                    "methodDecoded": true,
                    "operation": "DELEGATECALL",
                    "output": "0x16f1f29c6b16cbbabc578b8c19fd1d2c5ac9463eac096f97407bbf9af65cbf210b82659fd8eda4a7ead9b9a76917783873a1bb29952644f96506dfed312b5c83",
                    "revert": false,
                    "revertMessage": "",
                    "selector": "0xf47d33b5",
                    "status": true,
                    "value": "1"
                },
                "nodeType": 0
            },
            "33": {
                "invocation": {
                    "address": "0x83584f83f26af4edda9cbe8c730bc87c364b28fe",
                    "callData": "0x2a2c737f71ae9910954f603cb058990e9b21009c6fe3f926229431cd3ac970290b82659fd8eda4a7ead9b9a76917783873a1bb29952644f96506dfed312b5c83",
                    "decodedMethod": {
                        "callParams": [
                            {
                                "name": "in_xL",
                                "type": "uint256",
                                "value": "19,075,678,048,062,659,237,553,994,761,771,554,458,643,511,510,323,076,706,095,237,642,104,450,150,441"
                            },
                            {
                                "name": "in_xR",
                                "type": "uint256",
                                "value": "5,205,832,838,694,881,896,150,052,005,478,145,459,337,080,761,485,413,326,566,829,794,790,115,859,587"
                            }
                        ],
                        "constructorArguments": "",
                        "name": "MiMCSponge",
                        "returnParams": [
                            {
                                "name": "xL",
                                "type": "uint256",
                                "value": "1,731,875,669,221,279,510,223,674,133,537,626,120,901,402,074,252,820,074,430,802,999,430,337,490,444"
                            },
                            {
                                "name": "xR",
                                "type": "uint256",
                                "value": "4,908,875,618,128,576,437,968,805,325,407,333,333,617,051,862,059,875,147,290,961,605,959,829,755,259"
                            }
                        ],
                        "signature": "MiMCSponge(uint256,uint256)"
                    },
                    "errorInfo": "",
                    "fromAddress": "0x47ce0c6ed5b0ce3d3a51fdb1c52dc66a7c3c2936",
                    "gasUsed": 17460,
                    "id": 33,
                    "methodDecoded": true,
                    "operation": "DELEGATECALL",
                    "output": "0x03d434f6d852e12545cd624cd68d325a90989091176dd2271a65d88650536e0c0ada533c5b72caaf746088684d0a3c3d6b0736e55e7fbd4ce87321b949b5157b",
                    "revert": false,
                    "revertMessage": "",
                    "selector": "0xf47d33b5",
                    "status": true,
                    "value": "1"
                },
                "nodeType": 0
            },
            "34": {
                "invocation": {
                    "address": "0x83584f83f26af4edda9cbe8c730bc87c364b28fe",
                    "callData": "0x10af0a9961b653fc9301b5a9ddc86c4021bf7d18c770fc01bb2425bb3181229e0000000000000000000000000000000000000000000000000000000000000000",
                    "decodedMethod": {
                        "callParams": [
                            {
                                "name": "in_xL",
                                "type": "uint256",
                                "value": "7,546,276,966,294,085,161,836,092,617,025,133,643,846,467,878,131,755,701,112,805,112,223,912,501,918"
                            },
                            {
                                "name": "in_xR",
                                "type": "uint256",
                                "value": "0"
                            }
                        ],
                        "constructorArguments": "",
                        "name": "MiMCSponge",
                        "returnParams": [
                            {
                                "name": "xL",
                                "type": "uint256",
                                "value": "15,032,844,626,843,835,419,896,142,747,363,605,492,943,028,373,135,090,784,824,568,680,739,417,068,077"
                            },
                            {
                                "name": "xR",
                                "type": "uint256",
                                "value": "15,455,990,728,577,305,709,899,732,175,327,887,640,196,778,836,561,516,559,228,955,418,085,018,891,146"
                            }
                        ],
                        "signature": "MiMCSponge(uint256,uint256)"
                    },
                    "errorInfo": "",
                    "fromAddress": "0x47ce0c6ed5b0ce3d3a51fdb1c52dc66a7c3c2936",
                    "gasUsed": 17460,
                    "id": 34,
                    "methodDecoded": true,
                    "operation": "DELEGATECALL",
                    "output": "0x213c49dd85ad4428deaf996c4b5831c055196a6a8299f4ad4db5c15b5d6f922d222bc7dec10a893709077b7da878a7af560f677deca841a220f994cfd1f8f38a",
                    "revert": false,
                    "revertMessage": "",
                    "selector": "0xf47d33b5",
                    "status": true,
                    "value": "1"
                },
                "nodeType": 0
            },
            "35": {
                "invocation": {
                    "address": "0x83584f83f26af4edda9cbe8c730bc87c364b28fe",
                    "callData": "0x25107ed45e00254e247cfbb921e5641ae5b1fafb9a07c6d4681b99e1adc30039222bc7dec10a893709077b7da878a7af560f677deca841a220f994cfd1f8f38a",
                    "decodedMethod": {
                        "callParams": [
                            {
                                "name": "in_xL",
                                "type": "uint256",
                                "value": "16,764,720,296,065,114,930,119,816,880,901,231,613,844,430,447,387,910,859,255,371,680,169,754,558,521"
                            },
                            {
                                "name": "in_xR",
                                "type": "uint256",
                                "value": "15,455,990,728,577,305,709,899,732,175,327,887,640,196,778,836,561,516,559,228,955,418,085,018,891,146"
                            }
                        ],
                        "constructorArguments": "",
                        "name": "MiMCSponge",
                        "returnParams": [
                            {
                                "name": "xL",
                                "type": "uint256",
                                "value": "9,145,946,667,257,867,375,635,875,572,888,203,865,219,325,376,930,706,472,796,608,778,409,348,875,323"
                            },
                            {
                                "name": "xR",
                                "type": "uint256",
                                "value": "4,560,161,166,656,055,149,312,519,824,954,188,574,580,934,144,087,166,607,634,130,693,535,172,966,030"
                            }
                        ],
                        "signature": "MiMCSponge(uint256,uint256)"
                    },
                    "errorInfo": "",
                    "fromAddress": "0x47ce0c6ed5b0ce3d3a51fdb1c52dc66a7c3c2936",
                    "gasUsed": 17460,
                    "id": 35,
                    "methodDecoded": true,
                    "operation": "DELEGATECALL",
                    "output": "0x14386c20520d9a0ce3d28f34b07cda7a1b618493d326b2127ced79b4a81ac43b0a14f5b27990cbeac4a8615a86c073cab09cf0a1bb2cb43aa6dc46749374b68e",
                    "revert": false,
                    "revertMessage": "",
                    "selector": "0xf47d33b5",
                    "status": true,
                    "value": "1"
                },
                "nodeType": 0
            },
            "36": {
                "invocation": {
                    "address": "0x83584f83f26af4edda9cbe8c730bc87c364b28fe",
                    "callData": "0x14386c20520d9a0ce3d28f34b07cda7a1b618493d326b2127ced79b4a81ac43b0000000000000000000000000000000000000000000000000000000000000000",
                    "decodedMethod": {
                        "callParams": [
                            {
                                "name": "in_xL",
                                "type": "uint256",
                                "value": "9,145,946,667,257,867,375,635,875,572,888,203,865,219,325,376,930,706,472,796,608,778,409,348,875,323"
                            },
                            {
                                "name": "in_xR",
                                "type": "uint256",
                                "value": "0"
                            }
                        ],
                        "constructorArguments": "",
                        "name": "MiMCSponge",
                        "returnParams": [
                            {
                                "name": "xL",
                                "type": "uint256",
                                "value": "14,176,932,380,075,806,228,126,772,615,706,258,928,338,275,511,409,078,062,483,561,947,592,143,887,503"
                            },
                            {
                                "name": "xR",
                                "type": "uint256",
                                "value": "14,475,987,970,496,885,346,729,369,074,107,327,862,843,112,372,101,156,779,128,208,326,180,576,075,584"
                            }
                        ],
                        "signature": "MiMCSponge(uint256,uint256)"
                    },
                    "errorInfo": "",
                    "fromAddress": "0x47ce0c6ed5b0ce3d3a51fdb1c52dc66a7c3c2936",
                    "gasUsed": 17460,
                    "id": 36,
                    "methodDecoded": true,
                    "operation": "DELEGATECALL",
                    "output": "0x1f57dbffd210c60862c1bdbab7e26ff2da99b96862e030ca8e65da65c68b5c8f20011e6c2ca835fa8ce6e51344e63e20afe737d8ccdf3a87923770c97d869f40",
                    "revert": false,
                    "revertMessage": "",
                    "selector": "0xf47d33b5",
                    "status": true,
                    "value": "1"
                },
                "nodeType": 0
            },
            "37": {
                "invocation": {
                    "address": "0x83584f83f26af4edda9cbe8c730bc87c364b28fe",
                    "callData": "0x0da4f8926b26a52a7366eaeea24f50ebc2fec8aefee673a2e84f9c8f644174e220011e6c2ca835fa8ce6e51344e63e20afe737d8ccdf3a87923770c97d869f40",
                    "decodedMethod": {
                        "callParams": [
                            {
                                "name": "in_xL",
                                "type": "uint256",
                                "value": "6,171,545,530,736,648,455,792,964,119,970,429,747,650,552,581,001,295,127,161,766,454,184,000,976,098"
                            },
                            {
                                "name": "in_xR",
                                "type": "uint256",
                                "value": "14,475,987,970,496,885,346,729,369,074,107,327,862,843,112,372,101,156,779,128,208,326,180,576,075,584"
                            }
                        ],
                        "constructorArguments": "",
                        "name": "MiMCSponge",
                        "returnParams": [
                            {
                                "name": "xL",
                                "type": "uint256",
                                "value": "15,917,137,930,978,034,186,530,470,463,712,252,728,178,970,499,205,721,832,782,722,861,913,721,127,428"
                            },
                            {
                                "name": "xR",
                                "type": "uint256",
                                "value": "18,753,109,639,387,911,688,114,724,271,174,675,224,981,349,944,932,144,789,891,781,886,828,839,863,606"
                            }
                        ],
                        "signature": "MiMCSponge(uint256,uint256)"
                    },
                    "errorInfo": "",
                    "fromAddress": "0x47ce0c6ed5b0ce3d3a51fdb1c52dc66a7c3c2936",
                    "gasUsed": 17460,
                    "id": 37,
                    "methodDecoded": true,
                    "operation": "DELEGATECALL",
                    "output": "0x2330c7e3263472f665fd4866960ee72b8cdc06fefad001a12c6a8d987979c2042975e24830781205767424cd89559d6904554e0fdff824b001a6fc318bba8536",
                    "revert": false,
                    "revertMessage": "",
                    "selector": "0xf47d33b5",
                    "status": true,
                    "value": "1"
                },
                "nodeType": 0
            },
            "38": {
                "invocation": {
                    "address": "0x83584f83f26af4edda9cbe8c730bc87c364b28fe",
                    "callData": "0x2330c7e3263472f665fd4866960ee72b8cdc06fefad001a12c6a8d987979c2040000000000000000000000000000000000000000000000000000000000000000",
                    "decodedMethod": {
                        "callParams": [
                            {
                                "name": "in_xL",
                                "type": "uint256",
                                "value": "15,917,137,930,978,034,186,530,470,463,712,252,728,178,970,499,205,721,832,782,722,861,913,721,127,428"
                            },
                            {
                                "name": "in_xR",
                                "type": "uint256",
                                "value": "0"
                            }
                        ],
                        "constructorArguments": "",
                        "name": "MiMCSponge",
                        "returnParams": [
                            {
                                "name": "xL",
                                "type": "uint256",
                                "value": "16,660,005,019,655,038,859,048,005,608,022,249,528,512,914,386,170,625,080,761,784,384,169,286,278,344"
                            },
                            {
                                "name": "xR",
                                "type": "uint256",
                                "value": "15,749,236,935,981,562,964,318,547,755,020,460,112,580,071,305,085,902,268,319,910,796,379,353,263,724"
                            }
                        ],
                        "signature": "MiMCSponge(uint256,uint256)"
                    },
                    "errorInfo": "",
                    "fromAddress": "0x47ce0c6ed5b0ce3d3a51fdb1c52dc66a7c3c2936",
                    "gasUsed": 17460,
                    "id": 38,
                    "methodDecoded": true,
                    "operation": "DELEGATECALL",
                    "output": "0x24d53a8ae4d52db9b0cabad6845e191aecc161666af853a2ebf664a1cd039cc822d1c0911da2aa35b91e2a9955f60c07d980dfbbaec71cbead691f18712c2e6c",
                    "revert": false,
                    "revertMessage": "",
                    "selector": "0xf47d33b5",
                    "status": true,
                    "value": "1"
                },
                "nodeType": 0
            },
            "39": {
                "invocation": {
                    "address": "0x83584f83f26af4edda9cbe8c730bc87c364b28fe",
                    "callData": "0x0213b72ea572384f14912d58fa86a4b0683081ab8f4950fd5288f0223f0a33b122d1c0911da2aa35b91e2a9955f60c07d980dfbbaec71cbead691f18712c2e6c",
                    "decodedMethod": {
                        "callParams": [
                            {
                                "name": "in_xL",
                                "type": "uint256",
                                "value": "939,460,068,559,846,931,232,671,644,718,520,341,458,506,870,166,689,844,967,135,122,440,241,951,665"
                            },
                            {
                                "name": "in_xR",
                                "type": "uint256",
                                "value": "15,749,236,935,981,562,964,318,547,755,020,460,112,580,071,305,085,902,268,319,910,796,379,353,263,724"
                            }
                        ],
                        "constructorArguments": "",
                        "name": "MiMCSponge",
                        "returnParams": [
                            {
                                "name": "xL",
                                "type": "uint256",
                                "value": "12,119,635,785,636,797,564,451,827,808,205,696,965,058,578,874,044,122,044,152,876,705,746,056,118,520"
                            },
                            {
                                "name": "xR",
                                "type": "uint256",
                                "value": "11,028,352,633,524,322,832,772,003,823,738,800,342,994,456,849,098,708,656,351,772,600,603,865,111,690"
                            }
                        ],
                        "signature": "MiMCSponge(uint256,uint256)"
                    },
                    "errorInfo": "",
                    "fromAddress": "0x47ce0c6ed5b0ce3d3a51fdb1c52dc66a7c3c2936",
                    "gasUsed": 17460,
                    "id": 39,
                    "methodDecoded": true,
                    "operation": "DELEGATECALL",
                    "output": "0x1acb78840072f13a0b4a2cbae5eaf95fbb3ae1e2db77cdd57407a411e71800f81861d38e33c239c67ba22936c6c29e17d67f2d60629e147e82fd92d532bddc8a",
                    "revert": false,
                    "revertMessage": "",
                    "selector": "0xf47d33b5",
                    "status": true,
                    "value": "1"
                },
                "nodeType": 0
            },
            "4": {
                "invocation": {
                    "address": "0x83584f83f26af4edda9cbe8c730bc87c364b28fe",
                    "callData": "0x025ed2bf7e04ff1389cb26b3b93c907a228114fa61fbc18910895a8eb95ce8080000000000000000000000000000000000000000000000000000000000000000",
                    "decodedMethod": {
                        "callParams": [
                            {
                                "name": "in_xL",
                                "type": "uint256",
                                "value": "1,072,163,850,609,744,494,535,474,353,335,191,889,935,444,425,345,149,048,748,964,657,592,958,511,112"
                            },
                            {
                                "name": "in_xR",
                                "type": "uint256",
                                "value": "0"
                            }
                        ],
                        "constructorArguments": "",
                        "name": "MiMCSponge",
                        "returnParams": [
                            {
                                "name": "xL",
                                "type": "uint256",
                                "value": "17,735,279,684,647,711,733,967,228,781,110,501,675,650,373,947,928,267,773,325,325,330,043,827,091,109"
                            },
                            {
                                "name": "xR",
                                "type": "uint256",
                                "value": "6,258,934,525,720,865,602,577,202,181,369,931,393,931,906,238,738,270,679,064,961,813,416,184,642,757"
                            }
                        ],
                        "signature": "MiMCSponge(uint256,uint256)"
                    },
                    "errorInfo": "",
                    "fromAddress": "0x47ce0c6ed5b0ce3d3a51fdb1c52dc66a7c3c2936",
                    "gasUsed": 17460,
                    "id": 4,
                    "methodDecoded": true,
                    "operation": "DELEGATECALL",
                    "output": "0x2735d004e791e0269a138effcc0ad8132a79d35e800e107aebb9b45ce72776a50dd66e706541e890824fb2683d619629f4f7ae3d3562e60dfccce2003543fcc5",
                    "revert": false,
                    "revertMessage": "",
                    "selector": "0xf47d33b5",
                    "status": true,
                    "value": "1"
                },
                "nodeType": 0
            },
            "40": {
                "invocation": {
                    "address": "0x83584f83f26af4edda9cbe8c730bc87c364b28fe",
                    "callData": "0x1acb78840072f13a0b4a2cbae5eaf95fbb3ae1e2db77cdd57407a411e71800f80000000000000000000000000000000000000000000000000000000000000000",
                    "decodedMethod": {
                        "callParams": [
                            {
                                "name": "in_xL",
                                "type": "uint256",
                                "value": "12,119,635,785,636,797,564,451,827,808,205,696,965,058,578,874,044,122,044,152,876,705,746,056,118,520"
                            },
                            {
                                "name": "in_xR",
                                "type": "uint256",
                                "value": "0"
                            }
                        ],
                        "constructorArguments": "",
                        "name": "MiMCSponge",
                        "returnParams": [
                            {
                                "name": "xL",
                                "type": "uint256",
                                "value": "5,127,007,299,695,384,819,302,282,414,865,569,059,258,124,749,628,651,577,983,122,785,148,264,704,641"
                            },
                            {
                                "name": "xR",
                                "type": "uint256",
                                "value": "2,604,811,899,047,311,958,962,916,508,427,097,618,449,373,103,138,359,531,005,995,371,436,086,642,026"
                            }
                        ],
                        "signature": "MiMCSponge(uint256,uint256)"
                    },
                    "errorInfo": "",
                    "fromAddress": "0x47ce0c6ed5b0ce3d3a51fdb1c52dc66a7c3c2936",
                    "gasUsed": 17460,
                    "id": 40,
                    "methodDecoded": true,
                    "operation": "DELEGATECALL",
                    "output": "0x0b55c8861b4335b315c92a5c49b1c673a4fdfa5642b87cf91b4df5ca6c9eea8105c245732c5d6f9f89ae1437042095d351b609ac47bafd16d6e438eec557c56a",
                    "revert": false,
                    "revertMessage": "",
                    "selector": "0xf47d33b5",
                    "status": true,
                    "value": "1"
                },
                "nodeType": 0
            },
            "41": {
                "invocation": {
                    "address": "0x83584f83f26af4edda9cbe8c730bc87c364b28fe",
                    "callData": "0x2ff97c5e3d8540c7cba1f5c872573b63c396e4f4d6bdcecc072552b87f038a1e05c245732c5d6f9f89ae1437042095d351b609ac47bafd16d6e438eec557c56a",
                    "decodedMethod": {
                        "callParams": [
                            {
                                "name": "in_xL",
                                "type": "uint256",
                                "value": "21,699,507,159,804,193,610,166,313,833,300,043,092,074,402,828,901,346,411,163,217,120,721,618,831,902"
                            },
                            {
                                "name": "in_xR",
                                "type": "uint256",
                                "value": "2,604,811,899,047,311,958,962,916,508,427,097,618,449,373,103,138,359,531,005,995,371,436,086,642,026"
                            }
                        ],
                        "constructorArguments": "",
                        "name": "MiMCSponge",
                        "returnParams": [
                            {
                                "name": "xL",
                                "type": "uint256",
                                "value": "13,704,803,540,255,349,793,608,734,089,116,069,391,837,296,808,791,736,184,569,848,840,607,749,561,006"
                            },
                            {
                                "name": "xR",
                                "type": "uint256",
                                "value": "1,165,798,151,263,789,775,005,411,252,422,815,023,317,755,851,914,896,224,031,459,459,186,713,563,967"
                            }
                        ],
                        "signature": "MiMCSponge(uint256,uint256)"
                    },
                    "errorInfo": "",
                    "fromAddress": "0x47ce0c6ed5b0ce3d3a51fdb1c52dc66a7c3c2936",
                    "gasUsed": 17460,
                    "id": 41,
                    "methodDecoded": true,
                    "operation": "DELEGATECALL",
                    "output": "0x1e4ca4d7dad2ca6a94d5d1ac42c3eb71182668e86a69a7b15bd662a9d81adaae0293d180bb34f3cdbee36f390a95ba9c5454345c818c4452fd6b523ecdf6133f",
                    "revert": false,
                    "revertMessage": "",
                    "selector": "0xf47d33b5",
                    "status": true,
                    "value": "1"
                },
                "nodeType": 0
            },
            "42": {
                "invocation": {
                    "address": "0x83584f83f26af4edda9cbe8c730bc87c364b28fe",
                    "callData": "0x1e4ca4d7dad2ca6a94d5d1ac42c3eb71182668e86a69a7b15bd662a9d81adaae0000000000000000000000000000000000000000000000000000000000000000",
                    "decodedMethod": {
                        "callParams": [
                            {
                                "name": "in_xL",
                                "type": "uint256",
                                "value": "13,704,803,540,255,349,793,608,734,089,116,069,391,837,296,808,791,736,184,569,848,840,607,749,561,006"
                            },
                            {
                                "name": "in_xR",
                                "type": "uint256",
                                "value": "0"
                            }
                        ],
                        "constructorArguments": "",
                        "name": "MiMCSponge",
                        "returnParams": [
                            {
                                "name": "xL",
                                "type": "uint256",
                                "value": "19,628,555,611,642,608,711,094,200,711,689,886,655,873,607,886,853,029,877,472,229,560,586,023,689,632"
                            },
                            {
                                "name": "xR",
                                "type": "uint256",
                                "value": "18,103,425,770,967,194,946,764,180,943,568,796,208,480,780,371,952,855,076,231,088,539,246,681,990,117"
                            }
                        ],
                        "signature": "MiMCSponge(uint256,uint256)"
                    },
                    "errorInfo": "",
                    "fromAddress": "0x47ce0c6ed5b0ce3d3a51fdb1c52dc66a7c3c2936",
                    "gasUsed": 17460,
                    "id": 42,
                    "methodDecoded": true,
                    "operation": "DELEGATECALL",
                    "output": "0x2b655e6809c41c189cfd2870a74d2ba9168cff6ee1c8cd174273f8970fdf5da028062d062e8d853824d0279a25e7494c7d0f75892426cb654783f3ea24e523e5",
                    "revert": false,
                    "revertMessage": "",
                    "selector": "0xf47d33b5",
                    "status": true,
                    "value": "1"
                },
                "nodeType": 0
            },
            "43": {
                "invocation": {
                    "address": "0x83584f83f26af4edda9cbe8c730bc87c364b28fe",
                    "callData": "0x148732a1e60ab909f23d46ca80eb9c30c6e1b50fc45bae213df55b0d1e4a59a428062d062e8d853824d0279a25e7494c7d0f75892426cb654783f3ea24e523e5",
                    "decodedMethod": {
                        "callParams": [
                            {
                                "name": "in_xL",
                                "type": "uint256",
                                "value": "9,285,130,777,505,400,782,535,858,392,445,165,261,176,688,401,680,118,208,689,329,153,254,080,797,092"
                            },
                            {
                                "name": "in_xR",
                                "type": "uint256",
                                "value": "18,103,425,770,967,194,946,764,180,943,568,796,208,480,780,371,952,855,076,231,088,539,246,681,990,117"
                            }
                        ],
                        "constructorArguments": "",
                        "name": "MiMCSponge",
                        "returnParams": [
                            {
                                "name": "xL",
                                "type": "uint256",
                                "value": "5,803,086,534,105,333,249,453,911,414,729,652,790,658,696,655,783,156,845,484,180,322,382,574,700,137"
                            },
                            {
                                "name": "xR",
                                "type": "uint256",
                                "value": "19,483,717,356,219,436,786,209,882,513,047,476,127,104,508,923,941,016,530,541,134,800,525,179,281,902"
                            }
                        ],
                        "signature": "MiMCSponge(uint256,uint256)"
                    },
                    "errorInfo": "",
                    "fromAddress": "0x47ce0c6ed5b0ce3d3a51fdb1c52dc66a7c3c2936",
                    "gasUsed": 17460,
                    "id": 43,
                    "methodDecoded": true,
                    "operation": "DELEGATECALL",
                    "output": "0x0cd46e3aa71a8704b0b2a0b6394be0d38b2e3c55e22961ec323e12ca299ac6692b1364aa8f37b8c563f90087d57c55a9876b9ee1c4d21b473a343fd4486ce1ee",
                    "revert": false,
                    "revertMessage": "",
                    "selector": "0xf47d33b5",
                    "status": true,
                    "value": "1"
                },
                "nodeType": 0
            },
            "44": {
                "event": {
                    "contract": "0x47ce0c6ed5b0ce3d3a51fdb1c52dc66a7c3c2936",
                    "decodedLog": {
                        "name": "Deposit",
                        "params": [
                            {
                                "name": "commitment",
                                "type": "bytes32",
                                "value": "0x07dd01b0799d2834d69272632a9ba918dbec2c0d295c9017235858485ecc712c"
                            },
                            {
                                "name": "leafIndex",
                                "type": "uint32",
                                "value": "44,703"
                            },
                            {
                                "name": "timestamp",
                                "type": "uint256",
                                "value": "1,653,614,383"
                            }
                        ],
                        "signature": "Deposit(bytes32,uint32,uint256)"
                    },
                    "id": 44,
                    "logData": "0x000000000000000000000000000000000000000000000000000000000000ae9f000000000000000000000000000000000000000000000000000000006290272f",
                    "logDecoded": true,
                    "operation": "EVENT",
                    "revert": false,
                    "status": true,
                    "topics": [
                        "0xa945e51eec50ab98c161376f0db4cf2aeba3ec92755fe2fcd388bdbbb80ff196",
                        "0x07dd01b0799d2834d69272632a9ba918dbec2c0d295c9017235858485ecc712c"
                    ]
                },
                "nodeType": 1
            },
            "45": {
                "event": {
                    "contract": "0xd90e2f925da726b50c4ed8d0fb90ad053324f31b",
                    "decodedLog": {
                        "name": "EncryptedNote",
                        "params": [
                            {
                                "name": "sender",
                                "type": "address",
                                "value": "0x57f5d3fd440cd90bcdd4ac5043a562fc508a6b09"
                            },
                            {
                                "name": "encryptedNote",
                                "type": "bytes",
                                "value": "0x"
                            }
                        ],
                        "signature": "EncryptedNote(address,bytes)"
                    },
                    "id": 45,
                    "logData": "0x00000000000000000000000000000000000000000000000000000000000000200000000000000000000000000000000000000000000000000000000000000000",
                    "logDecoded": true,
                    "operation": "EVENT",
                    "revert": false,
                    "status": true,
                    "topics": [
                        "0xfa28df43db3553771f7209dcef046f3bdfea15870ab625dcda30ac58b82b4008",
                        "0x00000000000000000000000057f5d3fd440cd90bcdd4ac5043a562fc508a6b09"
                    ]
                },
                "nodeType": 1
            },
            "5": {
                "invocation": {
                    "address": "0x83584f83f26af4edda9cbe8c730bc87c364b28fe",
                    "callData": "0x2f12d1b5612f085b70a60162f6a6812c0665ff6ba96aa0920f120ca545f3e7d10dd66e706541e890824fb2683d619629f4f7ae3d3562e60dfccce2003543fcc5",
                    "decodedMethod": {
                        "callParams": [
                            {
                                "name": "in_xL",
                                "type": "uint256",
                                "value": "21,291,954,485,550,997,553,457,427,024,708,499,134,573,245,897,676,511,109,743,633,073,117,435,520,977"
                            },
                            {
                                "name": "in_xR",
                                "type": "uint256",
                                "value": "6,258,934,525,720,865,602,577,202,181,369,931,393,931,906,238,738,270,679,064,961,813,416,184,642,757"
                            }
                        ],
                        "constructorArguments": "",
                        "name": "MiMCSponge",
                        "returnParams": [
                            {
                                "name": "xL",
                                "type": "uint256",
                                "value": "16,887,156,878,966,614,780,717,997,436,448,554,445,091,469,853,276,903,858,547,003,213,078,330,703,541"
                            },
                            {
                                "name": "xR",
                                "type": "uint256",
                                "value": "17,585,420,679,403,620,575,830,549,612,083,931,467,663,451,038,331,688,317,684,817,402,717,984,937,528"
                            }
                        ],
                        "signature": "MiMCSponge(uint256,uint256)"
                    },
                    "errorInfo": "",
                    "fromAddress": "0x47ce0c6ed5b0ce3d3a51fdb1c52dc66a7c3c2936",
                    "gasUsed": 17460,
                    "id": 5,
                    "methodDecoded": true,
                    "operation": "DELEGATECALL",
                    "output": "0x2555cac5a18047e2bce0003d7ac2987f8282eba51f569ec52fde27382e757eb526e0fed176f65eed7f24fc884fac32c9bef5e56b0c36cd213a9b602d073e5638",
                    "revert": false,
                    "revertMessage": "",
                    "selector": "0xf47d33b5",
                    "status": true,
                    "value": "1"
                },
                "nodeType": 0
            },
            "6": {
                "invocation": {
                    "address": "0x83584f83f26af4edda9cbe8c730bc87c364b28fe",
                    "callData": "0x289c73b02661c8f81033157d57710152c4be88c889d92bc5a031783c9192afee0000000000000000000000000000000000000000000000000000000000000000",
                    "decodedMethod": {
                        "callParams": [
                            {
                                "name": "in_xL",
                                "type": "uint256",
                                "value": "18,368,940,535,258,671,337,343,625,919,255,165,764,594,063,520,217,002,209,902,433,003,957,424,140,270"
                            },
                            {
                                "name": "in_xR",
                                "type": "uint256",
                                "value": "0"
                            }
                        ],
                        "constructorArguments": "",
                        "name": "MiMCSponge",
                        "returnParams": [
                            {
                                "name": "xL",
                                "type": "uint256",
                                "value": "16,068,530,998,495,484,344,662,365,886,912,030,291,565,082,274,253,297,893,636,547,390,391,193,769,514"
                            },
                            {
                                "name": "xR",
                                "type": "uint256",
                                "value": "19,856,915,469,005,841,105,747,818,363,741,376,742,197,206,128,842,571,456,408,610,952,724,714,730,588"
                            }
                        ],
                        "signature": "MiMCSponge(uint256,uint256)"
                    },
                    "errorInfo": "",
                    "fromAddress": "0x47ce0c6ed5b0ce3d3a51fdb1c52dc66a7c3c2936",
                    "gasUsed": 17460,
                    "id": 6,
                    "methodDecoded": true,
                    "operation": "DELEGATECALL",
                    "output": "0x2386775c1f0e2287e07a133198284c3153ef146a29d63149faaa2dd41e21162a2be69da9e9c54aba988622544386990d16b4e3573513ea6d7d5774e0a28db45c",
                    "revert": false,
                    "revertMessage": "",
                    "selector": "0xf47d33b5",
                    "status": true,
                    "value": "1"
                },
                "nodeType": 0
            },
            "7": {
                "invocation": {
                    "address": "0x83584f83f26af4edda9cbe8c730bc87c364b28fe",
                    "callData": "0x1877f3aedf5cca40e509cdb891698c53ae3e17c6cf735f7de6a65f785c9694de2be69da9e9c54aba988622544386990d16b4e3573513ea6d7d5774e0a28db45c",
                    "decodedMethod": {
                        "callParams": [
                            {
                                "name": "in_xL",
                                "type": "uint256",
                                "value": "11,067,445,005,622,823,903,133,957,578,103,309,648,108,187,727,114,167,408,485,346,416,893,715,977,438"
                            },
                            {
                                "name": "in_xR",
                                "type": "uint256",
                                "value": "19,856,915,469,005,841,105,747,818,363,741,376,742,197,206,128,842,571,456,408,610,952,724,714,730,588"
                            }
                        ],
                        "constructorArguments": "",
                        "name": "MiMCSponge",
                        "returnParams": [
                            {
                                "name": "xL",
                                "type": "uint256",
                                "value": "16,094,946,577,515,444,651,982,161,130,595,736,589,646,223,784,965,345,176,461,397,045,360,534,224,334"
                            },
                            {
                                "name": "xR",
                                "type": "uint256",
                                "value": "3,561,206,960,935,486,467,144,124,630,406,277,117,642,049,720,727,628,844,125,706,570,240,247,464,461"
                            }
                        ],
                        "signature": "MiMCSponge(uint256,uint256)"
                    },
                    "errorInfo": "",
                    "fromAddress": "0x47ce0c6ed5b0ce3d3a51fdb1c52dc66a7c3c2936",
                    "gasUsed": 17460,
                    "id": 7,
                    "methodDecoded": true,
                    "operation": "DELEGATECALL",
                    "output": "0x23956abc672ec6a78c92743ebbc4177ecc04060d5460827dd14e5402d86ffdce07df925ba23bf9d575de962e242c01a395a35c549af2bb2254b3b23a5224020d",
                    "revert": false,
                    "revertMessage": "",
                    "selector": "0xf47d33b5",
                    "status": true,
                    "value": "1"
                },
                "nodeType": 0
            },
            "8": {
                "invocation": {
                    "address": "0x83584f83f26af4edda9cbe8c730bc87c364b28fe",
                    "callData": "0x14957d150c7032694ea4aae7a05ffc6c1da410bf2a1eeb10d2a05f4fae9159c00000000000000000000000000000000000000000000000000000000000000000",
                    "decodedMethod": {
                        "callParams": [
                            {
                                "name": "in_xL",
                                "type": "uint256",
                                "value": "9,310,380,470,079,438,498,765,161,195,943,370,489,241,559,813,213,529,348,242,921,279,104,312,498,624"
                            },
                            {
                                "name": "in_xR",
                                "type": "uint256",
                                "value": "0"
                            }
                        ],
                        "constructorArguments": "",
                        "name": "MiMCSponge",
                        "returnParams": [
                            {
                                "name": "xL",
                                "type": "uint256",
                                "value": "20,006,449,226,613,820,255,047,064,553,735,505,352,990,069,225,555,454,759,759,432,711,782,817,702,239"
                            },
                            {
                                "name": "xR",
                                "type": "uint256",
                                "value": "785,182,617,681,916,291,232,226,500,335,011,592,605,959,444,602,772,451,151,671,286,408,354,181,463"
                            }
                        ],
                        "signature": "MiMCSponge(uint256,uint256)"
                    },
                    "errorInfo": "",
                    "fromAddress": "0x47ce0c6ed5b0ce3d3a51fdb1c52dc66a7c3c2936",
                    "gasUsed": 17460,
                    "id": 8,
                    "methodDecoded": true,
                    "operation": "DELEGATECALL",
                    "output": "0x2c3b3fbd3f6a4ea071f2dac618898c554e209ec5aca0a5a00f067b49fcd5a15f01bc65c9f2fddce4037f877db0155e9fb518453d42950d46b0b9205d8c5bb157",
                    "revert": false,
                    "revertMessage": "",
                    "selector": "0xf47d33b5",
                    "status": true,
                    "value": "1"
                },
                "nodeType": 0
            },
            "9": {
                "invocation": {
                    "address": "0x83584f83f26af4edda9cbe8c730bc87c364b28fe",
                    "callData": "0x1f6c5c06c567751e4635094e52cc4b76f1f0bc8a8747b78c9c72d9b8e5459f2c01bc65c9f2fddce4037f877db0155e9fb518453d42950d46b0b9205d8c5bb157",
                    "decodedMethod": {
                        "callParams": [
                            {
                                "name": "in_xL",
                                "type": "uint256",
                                "value": "14,213,152,932,289,989,684,782,819,939,073,966,854,087,928,610,104,765,592,522,625,570,567,543,430,956"
                            },
                            {
                                "name": "in_xR",
                                "type": "uint256",
                                "value": "785,182,617,681,916,291,232,226,500,335,011,592,605,959,444,602,772,451,151,671,286,408,354,181,463"
                            }
                        ],
                        "constructorArguments": "",
                        "name": "MiMCSponge",
                        "returnParams": [
                            {
                                "name": "xL",
                                "type": "uint256",
                                "value": "3,600,698,958,751,734,230,155,654,149,571,735,540,293,606,636,243,099,638,662,651,989,892,776,175,216"
                            },
                            {
                                "name": "xR",
                                "type": "uint256",
                                "value": "5,042,648,393,732,280,467,510,978,529,911,694,053,585,737,195,904,724,382,439,380,429,713,655,417,056"
                            }
                        ],
                        "signature": "MiMCSponge(uint256,uint256)"
                    },
                    "errorInfo": "",
                    "fromAddress": "0x47ce0c6ed5b0ce3d3a51fdb1c52dc66a7c3c2936",
                    "gasUsed": 17460,
                    "id": 9,
                    "methodDecoded": true,
                    "operation": "DELEGATECALL",
                    "output": "0x07f5ec633ee9f2b386c883384804719bb8f10f73db912bdcf54069b68e69a6700b2609b060bb50b97026b2e433a87f4436ea5665758f6c41e93cbe8cabab48e0",
                    "revert": false,
                    "revertMessage": "",
                    "selector": "0xf47d33b5",
                    "status": true,
                    "value": "1"
                },
                "nodeType": 0
            }
        },
        "gasFlame": [
            {
                "children": [
                    {
                        "children": [
                            {
                                "children": [],
                                "depth": 0,
                                "name": "Initial Gas",
                                "value": 22212
                            },
                            {
                                "children": [
                                    {
                                        "children": [
                                            {
                                                "children": [],
                                                "depth": 2,
                                                "name": "instances",
                                                "value": 2885
                                            }
                                        ],
                                        "depth": 1,
                                        "name": "instances",
                                        "value": 7891
                                    },
                                    {
                                        "children": [
                                            {
                                                "children": [],
                                                "depth": 2,
                                                "name": "MiMCSponge",
                                                "value": 17460
                                            },
                                            {
                                                "children": [],
                                                "depth": 2,
                                                "name": "MiMCSponge",
                                                "value": 17460
                                            },
                                            {
                                                "children": [],
                                                "depth": 2,
                                                "name": "MiMCSponge",
                                                "value": 17460
                                            },
                                            {
                                                "children": [],
                                                "depth": 2,
                                                "name": "MiMCSponge",
                                                "value": 17460
                                            },
                                            {
                                                "children": [],
                                                "depth": 2,
                                                "name": "MiMCSponge",
                                                "value": 17460
                                            },
                                            {
                                                "children": [],
                                                "depth": 2,
                                                "name": "MiMCSponge",
                                                "value": 17460
                                            },
                                            {
                                                "children": [],
                                                "depth": 2,
                                                "name": "MiMCSponge",
                                                "value": 17460
                                            },
                                            {
                                                "children": [],
                                                "depth": 2,
                                                "name": "MiMCSponge",
                                                "value": 17460
                                            },
                                            {
                                                "children": [],
                                                "depth": 2,
                                                "name": "MiMCSponge",
                                                "value": 17460
                                            },
                                            {
                                                "children": [],
                                                "depth": 2,
                                                "name": "MiMCSponge",
                                                "value": 17460
                                            },
                                            {
                                                "children": [],
                                                "depth": 2,
                                                "name": "MiMCSponge",
                                                "value": 17460
                                            },
                                            {
                                                "children": [],
                                                "depth": 2,
                                                "name": "MiMCSponge",
                                                "value": 17460
                                            },
                                            {
                                                "children": [],
                                                "depth": 2,
                                                "name": "MiMCSponge",
                                                "value": 17460
                                            },
                                            {
                                                "children": [],
                                                "depth": 2,
                                                "name": "MiMCSponge",
                                                "value": 17460
                                            },
                                            {
                                                "children": [],
                                                "depth": 2,
                                                "name": "MiMCSponge",
                                                "value": 17460
                                            },
                                            {
                                                "children": [],
                                                "depth": 2,
                                                "name": "MiMCSponge",
                                                "value": 17460
                                            },
                                            {
                                                "children": [],
                                                "depth": 2,
                                                "name": "MiMCSponge",
                                                "value": 17460
                                            },
                                            {
                                                "children": [],
                                                "depth": 2,
                                                "name": "MiMCSponge",
                                                "value": 17460
                                            },
                                            {
                                                "children": [],
                                                "depth": 2,
                                                "name": "MiMCSponge",
                                                "value": 17460
                                            },
                                            {
                                                "children": [],
                                                "depth": 2,
                                                "name": "MiMCSponge",
                                                "value": 17460
                                            },
                                            {
                                                "children": [],
                                                "depth": 2,
                                                "name": "MiMCSponge",
                                                "value": 17460
                                            },
                                            {
                                                "children": [],
                                                "depth": 2,
                                                "name": "MiMCSponge",
                                                "value": 17460
                                            },
                                            {
                                                "children": [],
                                                "depth": 2,
                                                "name": "MiMCSponge",
                                                "value": 17460
                                            },
                                            {
                                                "children": [],
                                                "depth": 2,
                                                "name": "MiMCSponge",
                                                "value": 17460
                                            },
                                            {
                                                "children": [],
                                                "depth": 2,
                                                "name": "MiMCSponge",
                                                "value": 17460
                                            },
                                            {
                                                "children": [],
                                                "depth": 2,
                                                "name": "MiMCSponge",
                                                "value": 17460
                                            },
                                            {
                                                "children": [],
                                                "depth": 2,
                                                "name": "MiMCSponge",
                                                "value": 17460
                                            },
                                            {
                                                "children": [],
                                                "depth": 2,
                                                "name": "MiMCSponge",
                                                "value": 17460
                                            },
                                            {
                                                "children": [],
                                                "depth": 2,
                                                "name": "MiMCSponge",
                                                "value": 17460
                                            },
                                            {
                                                "children": [],
                                                "depth": 2,
                                                "name": "MiMCSponge",
                                                "value": 17460
                                            },
                                            {
                                                "children": [],
                                                "depth": 2,
                                                "name": "MiMCSponge",
                                                "value": 17460
                                            },
                                            {
                                                "children": [],
                                                "depth": 2,
                                                "name": "MiMCSponge",
                                                "value": 17460
                                            },
                                            {
                                                "children": [],
                                                "depth": 2,
                                                "name": "MiMCSponge",
                                                "value": 17460
                                            },
                                            {
                                                "children": [],
                                                "depth": 2,
                                                "name": "MiMCSponge",
                                                "value": 17460
                                            },
                                            {
                                                "children": [],
                                                "depth": 2,
                                                "name": "MiMCSponge",
                                                "value": 17460
                                            },
                                            {
                                                "children": [],
                                                "depth": 2,
                                                "name": "MiMCSponge",
                                                "value": 17460
                                            },
                                            {
                                                "children": [],
                                                "depth": 2,
                                                "name": "MiMCSponge",
                                                "value": 17460
                                            },
                                            {
                                                "children": [],
                                                "depth": 2,
                                                "name": "MiMCSponge",
                                                "value": 17460
                                            },
                                            {
                                                "children": [],
                                                "depth": 2,
                                                "name": "MiMCSponge",
                                                "value": 17460
                                            },
                                            {
                                                "children": [],
                                                "depth": 2,
                                                "name": "MiMCSponge",
                                                "value": 17460
                                            }
                                        ],
                                        "depth": 1,
                                        "name": "deposit",
                                        "value": 868579
                                    }
                                ],
                                "depth": 0,
                                "name": "Executed Gas",
                                "value": 892024
                            }
                        ],
                        "depth": -1,
                        "name": "Actual Gas Used",
                        "value": 914236
                    },
                    {
                        "children": [],
                        "depth": -1,
                        "name": "Refunded Gas",
                        "value": 0
                    }
                ],
                "depth": -2,
                "name": "Total Gas",
                "value": 914236
            }
        ],
        "isConfirmed": true,
        "mainTrace": [
            {
                "children": [
                    {
                        "children": [
                            {
                                "children": [
                                    {
                                        "children": [],
                                        "depth": 2,
                                        "id": 2,
                                        "order": 2
                                    }
                                ],
                                "depth": 1,
                                "id": 1,
                                "order": 1
                            },
                            {
                                "children": [
                                    {
                                        "children": [],
                                        "depth": 2,
                                        "id": 4,
                                        "order": 4
                                    },
                                    {
                                        "children": [],
                                        "depth": 2,
                                        "id": 5,
                                        "order": 5
                                    },
                                    {
                                        "children": [],
                                        "depth": 2,
                                        "id": 6,
                                        "order": 6
                                    },
                                    {
                                        "children": [],
                                        "depth": 2,
                                        "id": 7,
                                        "order": 7
                                    },
                                    {
                                        "children": [],
                                        "depth": 2,
                                        "id": 8,
                                        "order": 8
                                    },
                                    {
                                        "children": [],
                                        "depth": 2,
                                        "id": 9,
                                        "order": 9
                                    },
                                    {
                                        "children": [],
                                        "depth": 2,
                                        "id": 10,
                                        "order": 10
                                    },
                                    {
                                        "children": [],
                                        "depth": 2,
                                        "id": 11,
                                        "order": 11
                                    },
                                    {
                                        "children": [],
                                        "depth": 2,
                                        "id": 12,
                                        "order": 12
                                    },
                                    {
                                        "children": [],
                                        "depth": 2,
                                        "id": 13,
                                        "order": 13
                                    },
                                    {
                                        "children": [],
                                        "depth": 2,
                                        "id": 14,
                                        "order": 14
                                    },
                                    {
                                        "children": [],
                                        "depth": 2,
                                        "id": 15,
                                        "order": 15
                                    },
                                    {
                                        "children": [],
                                        "depth": 2,
                                        "id": 16,
                                        "order": 16
                                    },
                                    {
                                        "children": [],
                                        "depth": 2,
                                        "id": 17,
                                        "order": 17
                                    },
                                    {
                                        "children": [],
                                        "depth": 2,
                                        "id": 18,
                                        "order": 18
                                    },
                                    {
                                        "children": [],
                                        "depth": 2,
                                        "id": 19,
                                        "order": 19
                                    },
                                    {
                                        "children": [],
                                        "depth": 2,
                                        "id": 20,
                                        "order": 20
                                    },
                                    {
                                        "children": [],
                                        "depth": 2,
                                        "id": 21,
                                        "order": 21
                                    },
                                    {
                                        "children": [],
                                        "depth": 2,
                                        "id": 22,
                                        "order": 22
                                    },
                                    {
                                        "children": [],
                                        "depth": 2,
                                        "id": 23,
                                        "order": 23
                                    },
                                    {
                                        "children": [],
                                        "depth": 2,
                                        "id": 24,
                                        "order": 24
                                    },
                                    {
                                        "children": [],
                                        "depth": 2,
                                        "id": 25,
                                        "order": 25
                                    },
                                    {
                                        "children": [],
                                        "depth": 2,
                                        "id": 26,
                                        "order": 26
                                    },
                                    {
                                        "children": [],
                                        "depth": 2,
                                        "id": 27,
                                        "order": 27
                                    },
                                    {
                                        "children": [],
                                        "depth": 2,
                                        "id": 28,
                                        "order": 28
                                    },
                                    {
                                        "children": [],
                                        "depth": 2,
                                        "id": 29,
                                        "order": 29
                                    },
                                    {
                                        "children": [],
                                        "depth": 2,
                                        "id": 30,
                                        "order": 30
                                    },
                                    {
                                        "children": [],
                                        "depth": 2,
                                        "id": 31,
                                        "order": 31
                                    },
                                    {
                                        "children": [],
                                        "depth": 2,
                                        "id": 32,
                                        "order": 32
                                    },
                                    {
                                        "children": [],
                                        "depth": 2,
                                        "id": 33,
                                        "order": 33
                                    },
                                    {
                                        "children": [],
                                        "depth": 2,
                                        "id": 34,
                                        "order": 34
                                    },
                                    {
                                        "children": [],
                                        "depth": 2,
                                        "id": 35,
                                        "order": 35
                                    },
                                    {
                                        "children": [],
                                        "depth": 2,
                                        "id": 36,
                                        "order": 36
                                    },
                                    {
                                        "children": [],
                                        "depth": 2,
                                        "id": 37,
                                        "order": 37
                                    },
                                    {
                                        "children": [],
                                        "depth": 2,
                                        "id": 38,
                                        "order": 38
                                    },
                                    {
                                        "children": [],
                                        "depth": 2,
                                        "id": 39,
                                        "order": 39
                                    },
                                    {
                                        "children": [],
                                        "depth": 2,
                                        "id": 40,
                                        "order": 40
                                    },
                                    {
                                        "children": [],
                                        "depth": 2,
                                        "id": 41,
                                        "order": 41
                                    },
                                    {
                                        "children": [],
                                        "depth": 2,
                                        "id": 42,
                                        "order": 42
                                    },
                                    {
                                        "children": [],
                                        "depth": 2,
                                        "id": 43,
                                        "order": 43
                                    },
                                    {
                                        "children": [],
                                        "depth": 2,
                                        "id": 44,
                                        "order": 44
                                    }
                                ],
                                "depth": 1,
                                "id": 3,
                                "order": 3
                            },
                            {
                                "children": [],
                                "depth": 1,
                                "id": 45,
                                "order": 45
                            }
                        ],
                        "depth": 0,
                        "id": 0,
                        "order": 0
                    }
                ],
                "depth": -1,
                "id": -1,
                "order": -1
            }
        ],
        "mainTraceNodeCount": 46,
        "parentIdMap": {
            "0": -1,
            "1": 0,
            "10": 3,
            "11": 3,
            "12": 3,
            "13": 3,
            "14": 3,
            "15": 3,
            "16": 3,
            "17": 3,
            "18": 3,
            "19": 3,
            "2": 1,
            "20": 3,
            "21": 3,
            "22": 3,
            "23": 3,
            "24": 3,
            "25": 3,
            "26": 3,
            "27": 3,
            "28": 3,
            "29": 3,
            "3": 0,
            "30": 3,
            "31": 3,
            "32": 3,
            "33": 3,
            "34": 3,
            "35": 3,
            "36": 3,
            "37": 3,
            "38": 3,
            "39": 3,
            "4": 3,
            "40": 3,
            "41": 3,
            "42": 3,
            "43": 3,
            "44": 3,
            "45": 0,
            "5": 3,
            "6": 3,
            "7": 3,
            "8": 3,
            "9": 3
        },
        "tidyTrace": [
            {
                "children": [
                    {
                        "children": [
                            {
                                "children": [
                                    {
                                        "children": [],
                                        "depth": 2,
                                        "id": 4,
                                        "order": 4
                                    },
                                    {
                                        "children": [],
                                        "depth": 2,
                                        "id": 5,
                                        "order": 5
                                    },
                                    {
                                        "children": [],
                                        "depth": 2,
                                        "id": 6,
                                        "order": 6
                                    },
                                    {
                                        "children": [],
                                        "depth": 2,
                                        "id": 7,
                                        "order": 7
                                    },
                                    {
                                        "children": [],
                                        "depth": 2,
                                        "id": 8,
                                        "order": 8
                                    },
                                    {
                                        "children": [],
                                        "depth": 2,
                                        "id": 9,
                                        "order": 9
                                    },
                                    {
                                        "children": [],
                                        "depth": 2,
                                        "id": 10,
                                        "order": 10
                                    },
                                    {
                                        "children": [],
                                        "depth": 2,
                                        "id": 11,
                                        "order": 11
                                    },
                                    {
                                        "children": [],
                                        "depth": 2,
                                        "id": 12,
                                        "order": 12
                                    },
                                    {
                                        "children": [],
                                        "depth": 2,
                                        "id": 13,
                                        "order": 13
                                    },
                                    {
                                        "children": [],
                                        "depth": 2,
                                        "id": 14,
                                        "order": 14
                                    },
                                    {
                                        "children": [],
                                        "depth": 2,
                                        "id": 15,
                                        "order": 15
                                    },
                                    {
                                        "children": [],
                                        "depth": 2,
                                        "id": 16,
                                        "order": 16
                                    },
                                    {
                                        "children": [],
                                        "depth": 2,
                                        "id": 17,
                                        "order": 17
                                    },
                                    {
                                        "children": [],
                                        "depth": 2,
                                        "id": 18,
                                        "order": 18
                                    },
                                    {
                                        "children": [],
                                        "depth": 2,
                                        "id": 19,
                                        "order": 19
                                    },
                                    {
                                        "children": [],
                                        "depth": 2,
                                        "id": 20,
                                        "order": 20
                                    },
                                    {
                                        "children": [],
                                        "depth": 2,
                                        "id": 21,
                                        "order": 21
                                    },
                                    {
                                        "children": [],
                                        "depth": 2,
                                        "id": 22,
                                        "order": 22
                                    },
                                    {
                                        "children": [],
                                        "depth": 2,
                                        "id": 23,
                                        "order": 23
                                    },
                                    {
                                        "children": [],
                                        "depth": 2,
                                        "id": 24,
                                        "order": 24
                                    },
                                    {
                                        "children": [],
                                        "depth": 2,
                                        "id": 25,
                                        "order": 25
                                    },
                                    {
                                        "children": [],
                                        "depth": 2,
                                        "id": 26,
                                        "order": 26
                                    },
                                    {
                                        "children": [],
                                        "depth": 2,
                                        "id": 27,
                                        "order": 27
                                    },
                                    {
                                        "children": [],
                                        "depth": 2,
                                        "id": 28,
                                        "order": 28
                                    },
                                    {
                                        "children": [],
                                        "depth": 2,
                                        "id": 29,
                                        "order": 29
                                    },
                                    {
                                        "children": [],
                                        "depth": 2,
                                        "id": 30,
                                        "order": 30
                                    },
                                    {
                                        "children": [],
                                        "depth": 2,
                                        "id": 31,
                                        "order": 31
                                    },
                                    {
                                        "children": [],
                                        "depth": 2,
                                        "id": 32,
                                        "order": 32
                                    },
                                    {
                                        "children": [],
                                        "depth": 2,
                                        "id": 33,
                                        "order": 33
                                    },
                                    {
                                        "children": [],
                                        "depth": 2,
                                        "id": 34,
                                        "order": 34
                                    },
                                    {
                                        "children": [],
                                        "depth": 2,
                                        "id": 35,
                                        "order": 35
                                    },
                                    {
                                        "children": [],
                                        "depth": 2,
                                        "id": 36,
                                        "order": 36
                                    },
                                    {
                                        "children": [],
                                        "depth": 2,
                                        "id": 37,
                                        "order": 37
                                    },
                                    {
                                        "children": [],
                                        "depth": 2,
                                        "id": 38,
                                        "order": 38
                                    },
                                    {
                                        "children": [],
                                        "depth": 2,
                                        "id": 39,
                                        "order": 39
                                    },
                                    {
                                        "children": [],
                                        "depth": 2,
                                        "id": 40,
                                        "order": 40
                                    },
                                    {
                                        "children": [],
                                        "depth": 2,
                                        "id": 41,
                                        "order": 41
                                    },
                                    {
                                        "children": [],
                                        "depth": 2,
                                        "id": 42,
                                        "order": 42
                                    },
                                    {
                                        "children": [],
                                        "depth": 2,
                                        "id": 43,
                                        "order": 43
                                    },
                                    {
                                        "children": [],
                                        "depth": 2,
                                        "id": 44,
                                        "order": 44
                                    }
                                ],
                                "depth": 1,
                                "id": 3,
                                "order": 3
                            },
                            {
                                "children": [],
                                "depth": 1,
                                "id": 45,
                                "order": 45
                            }
                        ],
                        "depth": 0,
                        "id": 0,
                        "order": 0
                    }
                ],
                "depth": -1,
                "id": -1,
                "order": -1
            }
        ],
        "tidyTraceNodeCount": 44
    },
    "state_change": {
        "stateChanges": [
            {
                "address": "0x47ce0c6ed5b0ce3d3a51fdb1c52dc66a7c3c2936",
                "erc": "",
                "slots": [
                    {
                        "current": "0x00000000000000000000000000000000000000000000000000000000000151cc",
                        "key": "0x0000000000000000000000000000000000000000000000000000000000000068",
                        "prev": "0x00000000000000000000000000000000000000000000000000000000000151cb"
                    },
                    {
                        "current": "0x2a162d150b8e409ea7ea9aa855b8d421cdf2cb2f9b7ee59fb3860c2de1920443",
                        "key": "0xb10e2d527612073b26eecdfd717e6a320cf44b4afac2b0732d9fcbe2b7fa0cfb",
                        "prev": "0x1403980c3220f1c8d148708e29074c420da47d8f369c0e91f480da4bf0f323d8"
                    },
                    {
                        "current": "0x13da1216553ebe5eee5c2fea0817b06b9b8972296643d83598f6ac3ecd320170",
                        "key": "0xb10e2d527612073b26eecdfd717e6a320cf44b4afac2b0732d9fcbe2b7fa0d04",
                        "prev": "0x0dd6cff614a21542a4dfd190c12ee3565281b7670f48524bc9818730e9275a13"
                    },
                    {
                        "current": "0x2330c7e3263472f665fd4866960ee72b8cdc06fefad001a12c6a8d987979c204",
                        "key": "0xb10e2d527612073b26eecdfd717e6a320cf44b4afac2b0732d9fcbe2b7fa0d07",
                        "prev": "0x03880ce47bd0ff150d2cbe6fbe6bfeef9bd7eccfad71ec499a85a82cbb03c712"
                    },
                    {
                        "current": "0x1acb78840072f13a0b4a2cbae5eaf95fbb3ae1e2db77cdd57407a411e71800f8",
                        "key": "0xb10e2d527612073b26eecdfd717e6a320cf44b4afac2b0732d9fcbe2b7fa0d08",
                        "prev": "0x0444f096ba0c27a4e68af4cebe9749cd05b58a21b04174c69aa3c0a3093ebe9d"
                    },
                    {
                        "current": "0x0cd46e3aa71a8704b0b2a0b6394be0d38b2e3c55e22961ec323e12ca299ac669",
                        "key": "0x0000000000000000000000000000000000000000000000000000000000000008",
                        "prev": "0x22ddd3bf31d1c7f49d82bea7b431404261a0d2608dc4a46c6aac3b259a6afa8c"
                    },
                    {
                        "current": "0x1e4ca4d7dad2ca6a94d5d1ac42c3eb71182668e86a69a7b15bd662a9d81adaae",
                        "key": "0xb10e2d527612073b26eecdfd717e6a320cf44b4afac2b0732d9fcbe2b7fa0d09",
                        "prev": "0x161330f84aeafeb6bafffa4253b2fa794b70fe74c04b490bef571967f6fa81c5"
                    },
                    {
                        "current": "0x0cfef63f2f49994440d7a3ce38d38547d100eaf782a30dae1a8bf52d3d0005eb",
                        "key": "0xb10e2d527612073b26eecdfd717e6a320cf44b4afac2b0732d9fcbe2b7fa0cfc",
                        "prev": "0x1ee379e6e66cfe357bdc6769b76396def9df88683c136441905bb3cdbfe7f137"
                    },
                    {
                        "current": "0x0c1298d629c6bddea9fb7baa1972ed1232061d2471a2290250e971ee9d15e3b9",
                        "key": "0xb10e2d527612073b26eecdfd717e6a320cf44b4afac2b0732d9fcbe2b7fa0d02",
                        "prev": "0x1a8e4c0a2be0b316cd3a84299d769da996c07a1565da54c64446cbf0b801ada8"
                    },
                    {
                        "current": "0x14386c20520d9a0ce3d28f34b07cda7a1b618493d326b2127ced79b4a81ac43b",
                        "key": "0xb10e2d527612073b26eecdfd717e6a320cf44b4afac2b0732d9fcbe2b7fa0d06",
                        "prev": "0x1d6c110ee78ecedc0ae471fa8383ffba22678273ee1921a3e9c1b29a6d405544"
                    },
                    {
                        "current": "0x0000000000000000000000000000000000000000000000000000000000000001",
                        "key": "0xac191e99758153c3f720042f01197f04e8cdd88e1720c4b2513d139ba83e4a5d",
                        "prev": "0x0000000000000000000000000000000000000000000000000000000000000000"
                    },
                    {
                        "current": "0x0000000000000000000000000000000000000000000000000000aea000000004",
                        "key": "0x0000000000000000000000000000000000000000000000000000000000000003",
                        "prev": "0x0000000000000000000000000000000000000000000000000000ae9f00000003"
                    },
                    {
                        "current": "0x2dc77889fe59bd57233709f339ee0b31da4bc4e743c1ca8126a1aec38828b8e3",
                        "key": "0xb10e2d527612073b26eecdfd717e6a320cf44b4afac2b0732d9fcbe2b7fa0cfe",
                        "prev": "0x2d8956d9624f65bcb3ae09275950d2fa9fefaf2bf4833c9367b29a87cfa22b05"
                    }
                ],
                "storageVariables": [
                    {
                        "name": "filledSubtrees",
                        "type": "bytes32[]",
                        "value": {
                            "elemType": "bytes32",
                            "elems": [
                                {
                                    "index": 5,
                                    "value": {
                                        "current": "0x2a162d150b8e409ea7ea9aa855b8d421cdf2cb2f9b7ee59fb3860c2de1920443",
                                        "prev": "0x1403980c3220f1c8d148708e29074c420da47d8f369c0e91f480da4bf0f323d8",
                                        "typeTag": 1
                                    }
                                },
                                {
                                    "index": 6,
                                    "value": {
                                        "current": "0x0cfef63f2f49994440d7a3ce38d38547d100eaf782a30dae1a8bf52d3d0005eb",
                                        "prev": "0x1ee379e6e66cfe357bdc6769b76396def9df88683c136441905bb3cdbfe7f137",
                                        "typeTag": 1
                                    }
                                },
                                {
                                    "index": 8,
                                    "value": {
                                        "current": "0x2dc77889fe59bd57233709f339ee0b31da4bc4e743c1ca8126a1aec38828b8e3",
                                        "prev": "0x2d8956d9624f65bcb3ae09275950d2fa9fefaf2bf4833c9367b29a87cfa22b05",
                                        "typeTag": 1
                                    }
                                },
                                {
                                    "index": 12,
                                    "value": {
                                        "current": "0x0c1298d629c6bddea9fb7baa1972ed1232061d2471a2290250e971ee9d15e3b9",
                                        "prev": "0x1a8e4c0a2be0b316cd3a84299d769da996c07a1565da54c64446cbf0b801ada8",
                                        "typeTag": 1
                                    }
                                },
                                {
                                    "index": 14,
                                    "value": {
                                        "current": "0x13da1216553ebe5eee5c2fea0817b06b9b8972296643d83598f6ac3ecd320170",
                                        "prev": "0x0dd6cff614a21542a4dfd190c12ee3565281b7670f48524bc9818730e9275a13",
                                        "typeTag": 1
                                    }
                                },
                                {
                                    "index": 16,
                                    "value": {
                                        "current": "0x14386c20520d9a0ce3d28f34b07cda7a1b618493d326b2127ced79b4a81ac43b",
                                        "prev": "0x1d6c110ee78ecedc0ae471fa8383ffba22678273ee1921a3e9c1b29a6d405544",
                                        "typeTag": 1
                                    }
                                },
                                {
                                    "index": 17,
                                    "value": {
                                        "current": "0x2330c7e3263472f665fd4866960ee72b8cdc06fefad001a12c6a8d987979c204",
                                        "prev": "0x03880ce47bd0ff150d2cbe6fbe6bfeef9bd7eccfad71ec499a85a82cbb03c712",
                                        "typeTag": 1
                                    }
                                },
                                {
                                    "index": 18,
                                    "value": {
                                        "current": "0x1acb78840072f13a0b4a2cbae5eaf95fbb3ae1e2db77cdd57407a411e71800f8",
                                        "prev": "0x0444f096ba0c27a4e68af4cebe9749cd05b58a21b04174c69aa3c0a3093ebe9d",
                                        "typeTag": 1
                                    }
                                },
                                {
                                    "index": 19,
                                    "value": {
                                        "current": "0x1e4ca4d7dad2ca6a94d5d1ac42c3eb71182668e86a69a7b15bd662a9d81adaae",
                                        "prev": "0x161330f84aeafeb6bafffa4253b2fa794b70fe74c04b490bef571967f6fa81c5",
                                        "typeTag": 1
                                    }
                                }
                            ],
                            "typeTag": 2
                        }
                    },
                    {
                        "name": "commitments",
                        "type": "mapping(bytes32 => bool)",
                        "value": {
                            "pairs": [
                                {
                                    "key": "0x07dd01b0799d2834d69272632a9ba918dbec2c0d295c9017235858485ecc712c",
                                    "value": {
                                        "current": "true",
                                        "prev": "false",
                                        "typeTag": 1
                                    }
                                }
                            ],
                            "typeTag": 4
                        }
                    },
                    {
                        "name": "_guardCounter",
                        "type": "uint256",
                        "value": {
                            "current": "86476",
                            "prev": "86475",
                            "typeTag": 1
                        }
                    },
                    {
                        "name": "currentRootIndex",
                        "type": "uint32",
                        "value": {
                            "current": "4",
                            "prev": "3",
                            "typeTag": 1
                        }
                    },
                    {
                        "name": "nextIndex",
                        "type": "uint32",
                        "value": {
                            "current": "44704",
                            "prev": "44703",
                            "typeTag": 1
                        }
                    }
                ]
            }
        ]
    }
}