{
    "balance_change": {
        "balanceChanges": [
            {
                "account": "0x0000000000000000000000000000000000000000",
                "assets": [
                    {
                        "address": "0x237c23d2a1c6320d6010338a48db3fcc29f64eed",
                        "amount": "1",
                        "iconUrl": "",
                        "isERC1155": false,
                        "isERC721": true,
                        "sign": false,
                        "tokenID": "585",
                        "value": ""
                    }
                ]
            },
            {
                "account": "0x5df2d9a8c16c3cddd1bf073550d9b8f2d18211ef",
                "assets": [
                    {
                        "address": "0x237c23d2a1c6320d6010338a48db3fcc29f64eed",
                        "amount": "1",
                        "iconUrl": "",
                        "isERC1155": false,
                        "isERC721": true,
                        "sign": true,
                        "tokenID": "585",
                        "value": ""
                    }
                ]
            }
        ]
    },
    "profile": {
        "basic_info": {
            "baseFee": "27.852144872",
            "blockNumber": 14366613,
            "callData": "0xd043298b00000000000000000000000000000000000000000000000000000000000000010000000000000000000000000000000000000000000000000000000000000000000000000000000000000000000000000000000000000000000000000000000100000000000000000000000000000000000000000000000000000000000000800000000000000000000000000000000000000000000000000000000000000041c8a22d1a7f322ca26d600002572d95762a493541e5f911ddd2e44b9f6c3e60591b24ef9a78c8accf6361c15aef6da745eca81afb9b7df430913f6d8ccf7853641c00000000000000000000000000000000000000000000000000000000000000",
            "debugEnable": true,
            "errorInfo": "",
            "eventCount": 1,
            "feeRecipient": "0xb7e390864a90b7b923c9f9310c6f98aafe43f707",
            "formatValue": "0",
            "gasLimit": 180887,
            "gasPrice": "29.352144872",
            "gasUsed": 180887,
            "intTxnCount": 1,
            "internalRevert": false,
            "internalRevertMessage": "",
            "isContractCreation": false,
            "isFlashloan": false,
            "maxFee": "30",
            "nonce": 228,
            "overwritedBlockNumber": -1,
            "priorityFee": "1.5",
            "receiver": "0x237c23d2a1c6320d6010338a48db3fcc29f64eed",
            "revertMessage": "",
            "sender": "0x5df2d9a8c16c3cddd1bf073550d9b8f2d18211ef",
            "simulationEnable": true,
            "sourceTxnHash": "0x7d0d6441cd3af76656fbcbab5cb72c642387b24a6e8ee343afedf004e4fdf8b9",
            "status": true,
            "timestamp": "2022-03-11T16:34:24Z",
            "transactionFee": "0.005309421429461464",
            "txnHash": "0x7d0d6441cd3af76656fbcbab5cb72c642387b24a6e8ee343afedf004e4fdf8b9",
            "txnIndex": 125,
            "type": 2,
            "value": "0"
        },
        "fund_flow": [
            {
                "amount": "1",
                "from": "0x0000000000000000000000000000000000000000",
                "id": 1,
                "isERC1155": false,
                "isERC721": true,
                "isReverted": false,
                "order": 1,
                "to": "0x5df2d9a8c16c3cddd1bf073550d9b8f2d18211ef",
                "token": "0x237c23d2a1c6320d6010338a48db3fcc29f64eed",
                "tokenID": "585"
            }
        ],
        "token_infos": [
            {
                "address": "0xc02aaa39b223fe8d0a0e5c4f27ead9083c756cc2",
                "decimals": 18
            },
            {
                "address": "0xeeeeeeeeeeeeeeeeeeeeeeeeeeeeeeeeeeeeeeee",
                "decimals": 18
            }
        ]
    },
    "address_label": {
        "labels": [
            {
                "address": "0x0000000000000000000000000000000000000003",
                "label": "Precompiled"
            },
            {
                "address": "0x0000000000000000000000000000000000000004",
                "label": "Precompiled"
            },
            {
                "address": "0xeeeeeeeeeeeeeeeeeeeeeeeeeeeeeeeeeeeeeeee",
                "label": "Ether"
            },
            {
                "address": "0x237c23d2a1c6320d6010338a48db3fcc29f64eed",
                "label": "mfatch (MFATCH)"
            },
            {
                "address": "0x0000000000000000000000000000000000000001",
                "label": "Precompiled"
            },
            {
                "address": "0x0000000000000000000000000000000000000002",
                "label": "Precompiled"
            }
        ]
    },
    "trace": {
        "accountLabels": null,
        "dataMap": {
            "-1": {
                "invocation": {
                    "address": "0x5df2d9a8c16c3cddd1bf073550d9b8f2d18211ef",
                    "callData": "",
                    "decodedMethod": null,
                    "errorInfo": "",
                    "fromAddress": "",
                    "gasUsed": 0,
                    "id": -1,
                    "methodDecoded": false,
                    "operation": "",
                    "output": "",
                    "revert": false,
                    "revertMessage": "",
                    "selector": "",
                    "status": false,
                    "value": ""
                },
                "nodeType": 0
            },
            "0": {
                "invocation": {
                    "address": "0x237c23d2a1c6320d6010338a48db3fcc29f64eed",
                    "callData": "0x00000000000000000000000000000000000000000000000000000000000000010000000000000000000000000000000000000000000000000000000000000000000000000000000000000000000000000000000000000000000000000000000100000000000000000000000000000000000000000000000000000000000000800000000000000000000000000000000000000000000000000000000000000041c8a22d1a7f322ca26d600002572d95762a493541e5f911ddd2e44b9f6c3e60591b24ef9a78c8accf6361c15aef6da745eca81afb9b7df430913f6d8ccf7853641c00000000000000000000000000000000000000000000000000000000000000",
                    "decodedMethod": {
                        "callParams": [
                            {
                                "name": "amount",
                                "type": "uint256",
                                "value": "1"
                            },
                            {
                                "name": "price",
                                "type": "uint256",
                                "value": "0"
                            },
                            {
                                "name": "limit",
                                "type": "uint256",
                                "value": "1"
                            },
                            {
                                "name": "signature",
                                "type": "bytes",
                                "value": "0xc8a22d1a7f322ca26d600002572d95762a493541e5f911ddd2e44b9f6c3e60591b24ef9a78c8accf6361c15aef6da745eca81afb9b7df430913f6d8ccf7853641c"
                            }
                        ],
                        "constructorArguments": "",
                        "name": "presaleMint",
                        "returnParams": [],
                        "signature": "presaleMint(uint256,uint256,uint256,bytes)"
                    },
                    "errorInfo": "",
                    "fromAddress": "0x5df2d9a8c16c3cddd1bf073550d9b8f2d18211ef",
                    "gasUsed": 180887,
                    "id": 0,
                    "methodDecoded": true,
                    "operation": "CALL",
                    "output": "",
                    "revert": false,
                    "revertMessage": "",
                    "selector": "0xd043298b",
                    "status": true,
                    "value": "0"
                },
                "nodeType": 0
            },
            "1": {
                "invocation": {
                    "address": "0x0000000000000000000000000000000000000001",
                    "callData": "0xa9953fa20c4f6678bc3d3321e746da832a5434c194c4f9257ba24d1c000000000000000000000000000000000000000000000000000000000000001cc8a22d1a7f322ca26d600002572d95762a493541e5f911ddd2e44b9f6c3e60591b24ef9a78c8accf6361c15aef6da745eca81afb9b7df430913f6d8ccf785364",
                    "decodedMethod": {
                        "callParams": [
                            {
                                "name": "hash",
                                "type": "bytes32",
                                "value": "0xfaad2b61a9953fa20c4f6678bc3d3321e746da832a5434c194c4f9257ba24d1c"
                            },
                            {
                                "name": "v",
                                "type": "uint256",
                                "value": "28"
                            },
                            {
                                "name": "r",
                                "type": "bytes32",
                                "value": "0xc8a22d1a7f322ca26d600002572d95762a493541e5f911ddd2e44b9f6c3e6059"
                            },
                            {
                                "name": "s",
                                "type": "bytes32",
                                "value": "0x1b24ef9a78c8accf6361c15aef6da745eca81afb9b7df430913f6d8ccf785364"
                            }
                        ],
                        "constructorArguments": "",
                        "name": "ecrecover",
                        "returnParams": [
                            {
                                "name": "",
                                "type": "address",
                                "value": "0xd52e7e6cfc54dc437bf5a4535766e7516e0cea25"
                            }
                        ],
                        "signature": "ecrecover(bytes32,uint256,bytes32,bytes32)"
                    },
                    "errorInfo": "",
                    "fromAddress": "0x237c23d2a1c6320d6010338a48db3fcc29f64eed",
                    "gasUsed": 3000,
                    "id": 1,
                    "methodDecoded": true,
                    "operation": "STATICCALL",
                    "output": "0x000000000000000000000000d52e7e6cfc54dc437bf5a4535766e7516e0cea25",
                    "revert": false,
                    "revertMessage": "",
                    "selector": "0xfaad2b61",
                    "status": true,
                    "value": "0"
                },
                "nodeType": 0
            },
            "2": {
                "event": {
                    "contract": "0x237c23d2a1c6320d6010338a48db3fcc29f64eed",
                    "decodedLog": {
                        "name": "Transfer",
                        "params": [
                            {
                                "name": "from",
                                "type": "address",
                                "value": "0x0000000000000000000000000000000000000000"
                            },
                            {
                                "name": "to",
                                "type": "address",
                                "value": "0x5df2d9a8c16c3cddd1bf073550d9b8f2d18211ef"
                            },
                            {
                                "decimalAvailable": true,
                                "name": "tokenId",
                                "type": "uint256",
                                "value": "585"
                            }
                        ],
                        "signature": "Transfer(address,address,uint256)"
                    },
                    "id": 2,
                    "logData": "0x",
                    "logDecoded": true,
                    "operation": "EVENT",
                    "revert": false,
                    "status": true,
                    "topics": [
                        "0xddf252ad1be2c89b69c2b068fc378daa952ba7f163c4a11628f55a4df523b3ef",
                        "0x0000000000000000000000000000000000000000000000000000000000000000",
                        "0x0000000000000000000000005df2d9a8c16c3cddd1bf073550d9b8f2d18211ef",
                        "0x0000000000000000000000000000000000000000000000000000000000000249"
                    ]
                },
                "nodeType": 1
            }
        },
        "gasFlame": [
            {
                "children": [
                    {
                        "children": [
                            {
                                "children": [],
                                "depth": 0,
                                "name": "Initial Gas",
                                "value": 22904
                            },
                            {
                                "children": [
                                    {
                                        "children": [],
                                        "depth": 1,
                                        "name": "ecrecover",
                                        "value": 3000
                                    }
                                ],
                                "depth": 0,
                                "name": "Executed Gas",
                                "value": 157983
                            }
                        ],
                        "depth": -1,
                        "name": "Actual Gas Used",
                        "value": 180887
                    },
                    {
                        "children": [],
                        "depth": -1,
                        "name": "Refunded Gas",
                        "value": 0
                    }
                ],
                "depth": -2,
                "name": "Total Gas",
                "value": 180887
            }
        ],
        "isConfirmed": true,
        "mainTrace": [
            {
                "children": [
                    {
                        "children": [
                            {
                                "children": [],
                                "depth": 1,
                                "id": 1,
                                "order": 1
                            },
                            {
                                "children": [],
                                "depth": 1,
                                "id": 2,
                                "order": 2
                            }
                        ],
                        "depth": 0,
                        "id": 0,
                        "order": 0
                    }
                ],
                "depth": -1,
                "id": -1,
                "order": -1
            }
        ],
        "mainTraceNodeCount": 3,
        "parentIdMap": {
            "0": -1,
            "1": 0,
            "2": 0
        },
        "tidyTrace": [
            {
                "children": [
                    {
                        "children": [
                            {
                                "children": [],
                                "depth": 1,
                                "id": 2,
                                "order": 2
                            }
                        ],
                        "depth": 0,
                        "id": 0,
                        "order": 0
                    }
                ],
                "depth": -1,
                "id": -1,
                "order": -1
            }
        ],
        "tidyTraceNodeCount": 2
    },
    "state_change": {
        "stateChanges": [
            {
                "address": "0x237c23d2a1c6320d6010338a48db3fcc29f64eed",
                "erc": "ERC-721",
                "slots": [
                    {
                        "current": "0x0000000000000000000000000000000000000000000000000000000000000249",
                        "key": "0x2bd4ae4df8500aefd7bbd25a2e57371ff6ec3a85fe9b9bb0eabbb62fda1ff738",
                        "prev": "0x0000000000000000000000000000000000000000000000000000000000000000"
                    },
                    {
                        "current": "0x0000000000000000000000000000000000000000000000000000000000000001",
                        "key": "0x12dc54ef12bbd59a3bd592ec94461ee3f1365ab32e25c458e8eb36ad74cdc87d",
                        "prev": "0x0000000000000000000000000000000000000000000000000000000000000000"
                    },
                    {
                        "current": "0x0000000000000000000000005df2d9a8c16c3cddd1bf073550d9b8f2d18211ef",
                        "key": "0x9363762b8ac72f3809e4ae6cf8c926565e4991dc3405ee1e70350da307e78a5d",
                        "prev": "0x0000000000000000000000000000000000000000000000000000000000000000"
                    },
                    {
                        "current": "0x0000000000000000000000000000000000000000000000000000000000000001",
                        "key": "0xa6c3fe21bb1776199363822c2d474319bd8713433aaa60e450a8fb4074d09a88",
                        "prev": "0x0000000000000000000000000000000000000000000000000000000000000000"
                    },
                    {
                        "current": "0x0000000000000000000000000000000000000000000000000000000000000248",
                        "key": "0x677f5453f911671b2319be6a3c3a554cbfe05757f2b926a69e8eb2033e3da19c",
                        "prev": "0x0000000000000000000000000000000000000000000000000000000000000000"
                    },
                    {
                        "current": "0x0000000000000000000000000000000000000000000000000000000000000249",
                        "key": "0x0000000000000000000000000000000000000000000000000000000000000009",
                        "prev": "0x0000000000000000000000000000000000000000000000000000000000000248"
                    },
                    {
                        "current": "0x0000000000000000000000000000000000000000000000000000000000000249",
                        "key": "0x6e1540171b6c0c960b71a7020d9f60077f6af931a8bbf590da0223dacf75c9f7",
                        "prev": "0x0000000000000000000000000000000000000000000000000000000000000000"
                    }
                ],
                "storageVariables": [
                    {
                        "name": "_ownedTokens",
                        "type": "mapping(address => mapping(uint256 => uint256))",
                        "value": {
                            "pairs": [
                                {
                                    "key": "0x5df2d9a8c16c3cddd1bf073550d9b8f2d18211ef",
                                    "value": {
                                        "pairs": [
                                            {
                                                "key": "0",
                                                "value": {
                                                    "current": "585",
                                                    "prev": "0",
                                                    "typeTag": 1
                                                }
                                            }
                                        ],
                                        "typeTag": 4
                                    }
                                }
                            ],
                            "typeTag": 4
                        }
                    },
                    {
                        "name": "_balances",
                        "type": "mapping(address => uint256)",
                        "value": {
                            "pairs": [
                                {
                                    "key": "0x5df2d9a8c16c3cddd1bf073550d9b8f2d18211ef",
                                    "value": {
                                        "current": "1",
                                        "prev": "0",
                                        "typeTag": 1
                                    }
                                }
                            ],
                            "typeTag": 4
                        }
                    },
                    {
                        "name": "_owners",
                        "type": "mapping(uint256 => address)",
                        "value": {
                            "pairs": [
                                {
                                    "key": "585",
                                    "value": {
                                        "current": "0x5df2d9a8c16c3cddd1bf073550d9b8f2d18211ef",
                                        "prev": "0x0000000000000000000000000000000000000000",
                                        "typeTag": 1
                                    }
                                }
                            ],
                            "typeTag": 4
                        }
                    },
                    {
                        "name": "_mintedPresale",
                        "type": "mapping(bytes32 => uint256)",
                        "value": {
                            "pairs": [
                                {
                                    "key": "0xa89b00b5a6bbaf86c7f065c1e4d616b7dc82156822f2afbfb4c1c8babc7360b9",
                                    "value": {
                                        "current": "1",
                                        "prev": "0",
                                        "typeTag": 1
                                    }
                                }
                            ],
                            "typeTag": 4
                        }
                    },
                    {
                        "name": "_allTokensIndex",
                        "type": "mapping(uint256 => uint256)",
                        "value": {
                            "pairs": [
                                {
                                    "key": "585",
                                    "value": {
                                        "current": "584",
                                        "prev": "0",
                                        "typeTag": 1
                                    }
                                }
                            ],
                            "typeTag": 4
                        }
                    },
                    {
                        "name": "_allTokens",
                        "type": "uint256[]",
                        "value": {
                            "elemType": "uint256",
                            "elems": [
                                {
                                    "index": 584,
                                    "value": {
                                        "current": "585",
                                        "prev": "0",
                                        "typeTag": 1
                                    }
                                }
                            ],
                            "typeTag": 2
                        }
                    }
                ]
            }
        ]
    }
}