{
    "balance_change": {
        "balanceChanges": []
    },
    "profile": {
        "basic_info": {
            "baseFee": "",
            "blockNumber": 1843807,
            "callData": "0x90fa337d000000000000000000000000000000000000000000000000000000000000006000000000000000000000000000000000000000000000000000038d7ea4c6800000000000000000000000000001a23fd30aabf5ad53bab3093dcd4948e15cec8000000000000000000000000000000000000000000000000000000000000000500000002074f2e5390c372c2f2f2bec63f62ed134ce72d7b1a276b70200000000000000001840f28009badb6a9e90dd0a52bfad591a2a942a8033490dfd4d0da2af976857bcd97e57fd2605181761784e00000000000000000000000000000000",
            "debugEnable": true,
            "errorInfo": "",
            "eventCount": 1,
            "feeRecipient": "0xea674fdde714fd979de3edf0f56aa9716b898ec8",
            "formatValue": "0",
            "gasLimit": 1200000,
            "gasPrice": "20",
            "gasUsed": 221214,
            "intTxnCount": 7,
            "internalRevert": false,
            "internalRevertMessage": "",
            "isContractCreation": false,
            "isFlashloan": false,
            "maxFee": "",
            "nonce": 12069,
            "overwritedBlockNumber": -1,
            "priorityFee": "",
            "receiver": "0x41f274c0023f83391de4e0733c609df5a124c3d4",
            "revertMessage": "",
            "sender": "0xac4361f56c82ed59d533d45129f407015d84702a",
            "simulationEnable": true,
            "sourceTxnHash": "0x7e9d186e527eff8d208b0515c21db9f3bfc5c2f1d3753d9cda3595a2d507b9bc",
            "status": true,
            "timestamp": "2016-07-07T22:46:56Z",
            "transactionFee": "0.00442428",
            "txnHash": "0x7e9d186e527eff8d208b0515c21db9f3bfc5c2f1d3753d9cda3595a2d507b9bc",
            "txnIndex": 1,
            "type": 0,
            "value": "0"
        },
        "fund_flow": [],
        "token_infos": [
            {
                "address": "0xeeeeeeeeeeeeeeeeeeeeeeeeeeeeeeeeeeeeeeee",
                "decimals": 18
            },
            {
                "address": "0xc02aaa39b223fe8d0a0e5c4f27ead9083c756cc2",
                "decimals": 18
            }
        ]
    },
    "address_label": {
        "labels": [
            {
                "address": "0xeeeeeeeeeeeeeeeeeeeeeeeeeeeeeeeeeeeeeeee",
                "label": "Ether"
            },
            {
                "address": "0x41f274c0023f83391de4e0733c609df5a124c3d4",
                "label": "BTCRelay"
            },
            {
                "address": "0x0000000000000000000000000000000000000002",
                "label": "Precompiled"
            },
            {
                "address": "0x0000000000000000000000000000000000000004",
                "label": "Precompiled"
            },
            {
                "address": "0x0000000000000000000000000000000000000001",
                "label": "Precompiled"
            },
            {
                "address": "0x0000000000000000000000000000000000000003",
                "label": "Precompiled"
            }
        ]
    },
    "trace": {
        "accountLabels": null,
        "dataMap": {
            "-1": {
                "invocation": {
                    "address": "0xac4361f56c82ed59d533d45129f407015d84702a",
                    "callData": "",
                    "decodedMethod": null,
                    "errorInfo": "",
                    "fromAddress": "",
                    "gasUsed": 0,
                    "id": -1,
                    "methodDecoded": false,
                    "operation": "",
                    "output": "",
                    "revert": false,
                    "revertMessage": "",
                    "selector": "",
                    "status": false,
                    "value": ""
                },
                "nodeType": 0
            },
            "0": {
                "invocation": {
                    "address": "0x41f274c0023f83391de4e0733c609df5a124c3d4",
                    "callData": "0x000000000000000000000000000000000000000000000000000000000000006000000000000000000000000000000000000000000000000000038d7ea4c6800000000000000000000000000001a23fd30aabf5ad53bab3093dcd4948e15cec8000000000000000000000000000000000000000000000000000000000000000500000002074f2e5390c372c2f2f2bec63f62ed134ce72d7b1a276b70200000000000000001840f28009badb6a9e90dd0a52bfad591a2a942a8033490dfd4d0da2af976857bcd97e57fd2605181761784e00000000000000000000000000000000",
                    "decodedMethod": null,
                    "errorInfo": "",
                    "fromAddress": "0xac4361f56c82ed59d533d45129f407015d84702a",
                    "gasUsed": 221214,
                    "id": 0,
                    "methodDecoded": false,
                    "operation": "CALL",
                    "output": "0x000000000000000000000000000000000000000000000000000000000006679f",
                    "revert": false,
                    "revertMessage": "",
                    "selector": "0x90fa337d",
                    "status": true,
                    "value": "0"
                },
                "nodeType": 0
            },
            "1": {
                "invocation": {
                    "address": "0x0000000000000000000000000000000000000004",
                    "callData": "0x0000000000000000000000000000000000000000000000000000000000000020",
                    "decodedMethod": {
                        "callParams": [
                            {
                                "name": "data",
                                "type": "bytes",
                                "value": "0x2b8616290000000000000000000000000000000000000000000000000000000000000020"
                            }
                        ],
                        "constructorArguments": "",
                        "name": "dataCopy()",
                        "returnParams": [
                            {
                                "name": "data",
                                "type": "bytes",
                                "value": "0x2b8616290000000000000000000000000000000000000000000000000000000000000020"
                            }
                        ],
                        "signature": "dataCopy(bytes)"
                    },
                    "errorInfo": "",
                    "fromAddress": "0x41f274c0023f83391de4e0733c609df5a124c3d4",
                    "gasUsed": 21,
                    "id": 1,
                    "methodDecoded": true,
                    "operation": "CALL",
                    "output": "0x2b8616290000000000000000000000000000000000000000000000000000000000000020",
                    "revert": false,
                    "revertMessage": "",
                    "selector": "0x2b861629",
                    "status": true,
                    "value": "0"
                },
                "nodeType": 0
            },
            "2": {
                "invocation": {
                    "address": "0x0000000000000000000000000000000000000004",
                    "callData": "0x000000000000000000000000000000000000000000000000000000500000002074f2e5390c372c2f2f2bec63f62ed134ce72d7b1a276b70200000000000000001840f28009badb6a9e90dd0a52bfad591a2a942a8033490dfd4d0da2af976857bcd97e57fd2605181761784e00000000000000000000000000000000",
                    "decodedMethod": {
                        "callParams": [
                            {
                                "name": "data",
                                "type": "bytes",
                                "value": "0x00000000000000000000000000000000000000000000000000000000000000500000002074f2e5390c372c2f2f2bec63f62ed134ce72d7b1a276b70200000000000000001840f28009badb6a9e90dd0a52bfad591a2a942a8033490dfd4d0da2af976857bcd97e57fd2605181761784e00000000000000000000000000000000"
                            }
                        ],
                        "constructorArguments": "",
                        "name": "dataCopy()",
                        "returnParams": [
                            {
                                "name": "data",
                                "type": "bytes",
                                "value": "0x00000000000000000000000000000000000000000000000000000000000000500000002074f2e5390c372c2f2f2bec63f62ed134ce72d7b1a276b70200000000000000001840f28009badb6a9e90dd0a52bfad591a2a942a8033490dfd4d0da2af976857bcd97e57fd2605181761784e00000000000000000000000000000000"
                            }
                        ],
                        "signature": "dataCopy(bytes)"
                    },
                    "errorInfo": "",
                    "fromAddress": "0x41f274c0023f83391de4e0733c609df5a124c3d4",
                    "gasUsed": 27,
                    "id": 2,
                    "methodDecoded": true,
                    "operation": "CALL",
                    "output": "0x00000000000000000000000000000000000000000000000000000000000000500000002074f2e5390c372c2f2f2bec63f62ed134ce72d7b1a276b70200000000000000001840f28009badb6a9e90dd0a52bfad591a2a942a8033490dfd4d0da2af976857bcd97e57fd2605181761784e00000000000000000000000000000000",
                    "revert": false,
                    "revertMessage": "",
                    "selector": "0x00000000",
                    "status": true,
                    "value": "0"
                },
                "nodeType": 0
            },
            "3": {
                "invocation": {
                    "address": "0x41f274c0023f83391de4e0733c609df5a124c3d4",
                    "callData": "0x000000000000000000000000000000000000000000000000000000000000002000000000000000000000000000000000000000000000000000000000000000500000002074f2e5390c372c2f2f2bec63f62ed134ce72d7b1a276b70200000000000000001840f28009badb6a9e90dd0a52bfad591a2a942a8033490dfd4d0da2af976857bcd97e57fd2605181761784e00000000000000000000000000000000",
                    "decodedMethod": {
                        "callParams": [
                            {
                                "name": "header",
                                "type": "bytes",
                                "value": "0x0000002074f2e5390c372c2f2f2bec63f62ed134ce72d7b1a276b70200000000000000001840f28009badb6a9e90dd0a52bfad591a2a942a8033490dfd4d0da2af976857bcd97e57fd2605181761784e"
                            }
                        ],
                        "constructorArguments": "",
                        "name": "storeBlockHeader",
                        "returnParams": [
                            {
                                "name": "",
                                "type": "uint256",
                                "value": "419,743"
                            }
                        ],
                        "signature": "storeBlockHeader(bytes)"
                    },
                    "errorInfo": "",
                    "fromAddress": "0x41f274c0023f83391de4e0733c609df5a124c3d4",
                    "gasUsed": 162521,
                    "id": 3,
                    "methodDecoded": true,
                    "operation": "CALL",
                    "output": "0x000000000000000000000000000000000000000000000000000000000006679f",
                    "revert": false,
                    "revertMessage": "",
                    "selector": "0x2b861629",
                    "status": true,
                    "value": "0"
                },
                "nodeType": 0
            },
            "4": {
                "invocation": {
                    "address": "0x0000000000000000000000000000000000000002",
                    "callData": "0x74f2e5390c372c2f2f2bec63f62ed134ce72d7b1a276b70200000000000000001840f28009badb6a9e90dd0a52bfad591a2a942a8033490dfd4d0da2af976857bcd97e57fd2605181761784e",
                    "decodedMethod": {
                        "callParams": [
                            {
                                "name": "data",
                                "type": "bytes",
                                "value": "0x0000002074f2e5390c372c2f2f2bec63f62ed134ce72d7b1a276b70200000000000000001840f28009badb6a9e90dd0a52bfad591a2a942a8033490dfd4d0da2af976857bcd97e57fd2605181761784e"
                            }
                        ],
                        "constructorArguments": "",
                        "name": "sha256hash",
                        "returnParams": [
                            {
                                "name": "hash",
                                "type": "bytes32",
                                "value": "0xa3a51caa06ab674718e176bc03ddea77e3e3239cc23111dc53037ac3d26cad1c"
                            }
                        ],
                        "signature": "sha256hash(bytes)"
                    },
                    "errorInfo": "",
                    "fromAddress": "0x41f274c0023f83391de4e0733c609df5a124c3d4",
                    "gasUsed": 96,
                    "id": 4,
                    "methodDecoded": true,
                    "operation": "CALL",
                    "output": "0xa3a51caa06ab674718e176bc03ddea77e3e3239cc23111dc53037ac3d26cad1c",
                    "revert": false,
                    "revertMessage": "",
                    "selector": "0x00000020",
                    "status": true,
                    "value": "0"
                },
                "nodeType": 0
            },
            "5": {
                "invocation": {
                    "address": "0x0000000000000000000000000000000000000002",
                    "callData": "0x06ab674718e176bc03ddea77e3e3239cc23111dc53037ac3d26cad1c",
                    "decodedMethod": {
                        "callParams": [
                            {
                                "name": "data",
                                "type": "bytes",
                                "value": "0xa3a51caa06ab674718e176bc03ddea77e3e3239cc23111dc53037ac3d26cad1c"
                            }
                        ],
                        "constructorArguments": "",
                        "name": "sha256hash",
                        "returnParams": [
                            {
                                "name": "hash",
                                "type": "bytes32",
                                "value": "0xf0affb9c55e76a026e38284261b6152c7df9792eabf771010000000000000000"
                            }
                        ],
                        "signature": "sha256hash(bytes)"
                    },
                    "errorInfo": "",
                    "fromAddress": "0x41f274c0023f83391de4e0733c609df5a124c3d4",
                    "gasUsed": 72,
                    "id": 5,
                    "methodDecoded": true,
                    "operation": "CALL",
                    "output": "0xf0affb9c55e76a026e38284261b6152c7df9792eabf771010000000000000000",
                    "revert": false,
                    "revertMessage": "",
                    "selector": "0xa3a51caa",
                    "status": true,
                    "value": "0"
                },
                "nodeType": 0
            },
            "6": {
                "event": {
                    "contract": "0x41f274c0023f83391de4e0733c609df5a124c3d4",
                    "decodedLog": null,
                    "id": 6,
                    "logData": "0x",
                    "logDecoded": false,
                    "operation": "EVENT",
                    "revert": false,
                    "status": true,
                    "topics": [
                        "0x055e4f8dd3a534789b3feb8e0681afa2aee8713fdd6472f25b2c30dc7bf4e0f4",
                        "0x00000000000000000171f7ab2e79f97d2c15b6614228386e026ae7559cfbaff0",
                        "0x000000000000000000000000000000000000000000000000000000000006679f"
                    ]
                },
                "nodeType": 1
            },
            "7": {
                "invocation": {
                    "address": "0x0000000000000000000000000000000000000002",
                    "callData": "0x74f2e5390c372c2f2f2bec63f62ed134ce72d7b1a276b70200000000000000001840f28009badb6a9e90dd0a52bfad591a2a942a8033490dfd4d0da2af976857bcd97e57fd2605181761784e",
                    "decodedMethod": {
                        "callParams": [
                            {
                                "name": "data",
                                "type": "bytes",
                                "value": "0x0000002074f2e5390c372c2f2f2bec63f62ed134ce72d7b1a276b70200000000000000001840f28009badb6a9e90dd0a52bfad591a2a942a8033490dfd4d0da2af976857bcd97e57fd2605181761784e"
                            }
                        ],
                        "constructorArguments": "",
                        "name": "sha256hash",
                        "returnParams": [
                            {
                                "name": "hash",
                                "type": "bytes32",
                                "value": "0xa3a51caa06ab674718e176bc03ddea77e3e3239cc23111dc53037ac3d26cad1c"
                            }
                        ],
                        "signature": "sha256hash(bytes)"
                    },
                    "errorInfo": "",
                    "fromAddress": "0x41f274c0023f83391de4e0733c609df5a124c3d4",
                    "gasUsed": 96,
                    "id": 7,
                    "methodDecoded": true,
                    "operation": "CALL",
                    "output": "0xa3a51caa06ab674718e176bc03ddea77e3e3239cc23111dc53037ac3d26cad1c",
                    "revert": false,
                    "revertMessage": "",
                    "selector": "0x00000020",
                    "status": true,
                    "value": "0"
                },
                "nodeType": 0
            },
            "8": {
                "invocation": {
                    "address": "0x0000000000000000000000000000000000000002",
                    "callData": "0x06ab674718e176bc03ddea77e3e3239cc23111dc53037ac3d26cad1c",
                    "decodedMethod": {
                        "callParams": [
                            {
                                "name": "data",
                                "type": "bytes",
                                "value": "0xa3a51caa06ab674718e176bc03ddea77e3e3239cc23111dc53037ac3d26cad1c"
                            }
                        ],
                        "constructorArguments": "",
                        "name": "sha256hash",
                        "returnParams": [
                            {
                                "name": "hash",
                                "type": "bytes32",
                                "value": "0xf0affb9c55e76a026e38284261b6152c7df9792eabf771010000000000000000"
                            }
                        ],
                        "signature": "sha256hash(bytes)"
                    },
                    "errorInfo": "",
                    "fromAddress": "0x41f274c0023f83391de4e0733c609df5a124c3d4",
                    "gasUsed": 72,
                    "id": 8,
                    "methodDecoded": true,
                    "operation": "CALL",
                    "output": "0xf0affb9c55e76a026e38284261b6152c7df9792eabf771010000000000000000",
                    "revert": false,
                    "revertMessage": "",
                    "selector": "0xa3a51caa",
                    "status": true,
                    "value": "0"
                },
                "nodeType": 0
            }
        },
        "gasFlame": [
            {
                "children": [
                    {
                        "children": [
                            {
                                "children": [],
                                "depth": 0,
                                "name": "Initial Gas",
                                "value": 28376
                            },
                            {
                                "children": [
                                    {
                                        "children": [],
                                        "depth": 1,
                                        "name": "dataCopy()",
                                        "value": 21
                                    },
                                    {
                                        "children": [],
                                        "depth": 1,
                                        "name": "dataCopy()",
                                        "value": 27
                                    },
                                    {
                                        "children": [
                                            {
                                                "children": [],
                                                "depth": 2,
                                                "name": "sha256hash",
                                                "value": 96
                                            },
                                            {
                                                "children": [],
                                                "depth": 2,
                                                "name": "sha256hash",
                                                "value": 72
                                            }
                                        ],
                                        "depth": 1,
                                        "name": "storeBlockHeader",
                                        "value": 162521
                                    },
                                    {
                                        "children": [],
                                        "depth": 1,
                                        "name": "sha256hash",
                                        "value": 96
                                    },
                                    {
                                        "children": [],
                                        "depth": 1,
                                        "name": "sha256hash",
                                        "value": 72
                                    }
                                ],
                                "depth": 0,
                                "name": "Executed Gas",
                                "value": 192838
                            }
                        ],
                        "depth": -1,
                        "name": "Actual Gas Used",
                        "value": 221214
                    },
                    {
                        "children": [],
                        "depth": -1,
                        "name": "Refunded Gas",
                        "value": 0
                    }
                ],
                "depth": -2,
                "name": "Total Gas",
                "value": 221214
            }
        ],
        "isConfirmed": true,
        "mainTrace": [
            {
                "children": [
                    {
                        "children": [
                            {
                                "children": [],
                                "depth": 1,
                                "id": 1,
                                "order": 1
                            },
                            {
                                "children": [],
                                "depth": 1,
                                "id": 2,
                                "order": 2
                            },
                            {
                                "children": [
                                    {
                                        "children": [],
                                        "depth": 2,
                                        "id": 4,
                                        "order": 4
                                    },
                                    {
                                        "children": [],
                                        "depth": 2,
                                        "id": 5,
                                        "order": 5
                                    },
                                    {
                                        "children": [],
                                        "depth": 2,
                                        "id": 6,
                                        "order": 6
                                    }
                                ],
                                "depth": 1,
                                "id": 3,
                                "order": 3
                            },
                            {
                                "children": [],
                                "depth": 1,
                                "id": 7,
                                "order": 7
                            },
                            {
                                "children": [],
                                "depth": 1,
                                "id": 8,
                                "order": 8
                            }
                        ],
                        "depth": 0,
                        "id": 0,
                        "order": 0
                    }
                ],
                "depth": -1,
                "id": -1,
                "order": -1
            }
        ],
        "mainTraceNodeCount": 9,
        "parentIdMap": {
            "0": -1,
            "1": 0,
            "2": 0,
            "3": 0,
            "4": 3,
            "5": 3,
            "6": 3,
            "7": 0,
            "8": 0
        },
        "tidyTrace": [
            {
                "children": [
                    {
                        "children": [
                            {
                                "children": [],
                                "depth": 1,
                                "id": 1,
                                "order": 1
                            },
                            {
                                "children": [],
                                "depth": 1,
                                "id": 2,
                                "order": 2
                            },
                            {
                                "children": [
                                    {
                                        "children": [],
                                        "depth": 2,
                                        "id": 4,
                                        "order": 4
                                    },
                                    {
                                        "children": [],
                                        "depth": 2,
                                        "id": 5,
                                        "order": 5
                                    },
                                    {
                                        "children": [],
                                        "depth": 2,
                                        "id": 6,
                                        "order": 6
                                    }
                                ],
                                "depth": 1,
                                "id": 3,
                                "order": 3
                            },
                            {
                                "children": [],
                                "depth": 1,
                                "id": 7,
                                "order": 7
                            },
                            {
                                "children": [],
                                "depth": 1,
                                "id": 8,
                                "order": 8
                            }
                        ],
                        "depth": 0,
                        "id": 0,
                        "order": 0
                    }
                ],
                "depth": -1,
                "id": -1,
                "order": -1
            }
        ],
        "tidyTraceNodeCount": 9
    },
    "state_change": {
        "stateChanges": [
            {
                "address": "0x41f274c0023f83391de4e0733c609df5a124c3d4",
                "erc": "",
                "slots": [
                    {
                        "current": "0x000030e6000030e4000030d50000307100002f7700002d050000000000000000",
                        "key": "0x6db65bbb2104af376cad16b88469f3c821bd3b3c71d6ef6dc1db82e06e3301b1",
                        "prev": "0x0000000000000000000000000000000000000000000000000000000000000000"
                    },
                    {
                        "current": "0xaf976857bcd97e57fd2605181761784e00000000000000000000000000000000",
                        "key": "0x6a9e8a623d3908eb087ad2caa1443e7046d06e7482b34e392c467e830145335f",
                        "prev": "0x0000000000000000000000000000000000000000000000000000000000000000"
                    },
                    {
                        "current": "0x00000000000000000171f7ab2e79f97d2c15b6614228386e026ae7559cfbaff0",
                        "key": "0x0000000000000000000000000000000000000000000000000004000000000002",
                        "prev": "0x000000000000000002b776a2b1d772ce34d12ef663ec2b2f2f2c370c39e5f274"
                    },
                    {
                        "current": "0x000000000000000000000000000000000000000000165dec4c01236e16ce71c0",
                        "key": "0x0000000000000000000000000000000000000000000000000004000000000003",
                        "prev": "0x000000000000000000000000000000000000000000165dec4c01233c673d41ad"
                    },
                    {
                        "current": "0x00000000000000000171f7ab2e79f97d2c15b6614228386e026ae7559cfbaff0",
                        "key": "0x00000000000000000000000000000000000000000000000000000000000030e7",
                        "prev": "0x0000000000000000000000000000000000000000000000000000000000000000"
                    },
                    {
                        "current": "0x000000000006679f00000000000030e70000000000165dec4c01236e16ce71c0",
                        "key": "0x90b44e063149c7ef91327128d7b51e36e8c023d0f50b1e537ea88621eae1af61",
                        "prev": "0x0000000000000000000000000000000000000000000000000000000000000000"
                    },
                    {
                        "current": "0x01a23fd30aabf5ad53bab3093dcd4948e15cec800000000000038d7ea4c68000",
                        "key": "0xb085f8cc200e9f23aa51046803c4f0357c4827b660c44f1a9432c412c7acd3c5",
                        "prev": "0x0000000000000000000000000000000000000000000000000000000000000000"
                    },
                    {
                        "current": "0x00000000000000000000000000000000000000000000000000000000000030e8",
                        "key": "0x0000000000000000000000000000000000000000000000000004000000000000",
                        "prev": "0x00000000000000000000000000000000000000000000000000000000000030e7"
                    },
                    {
                        "current": "0x0000002074f2e5390c372c2f2f2bec63f62ed134ce72d7b1a276b70200000000",
                        "key": "0x6a9e8a623d3908eb087ad2caa1443e7046d06e7482b34e392c467e830145335d",
                        "prev": "0x0000000000000000000000000000000000000000000000000000000000000000"
                    },
                    {
                        "current": "0x000000001840f28009badb6a9e90dd0a52bfad591a2a942a8033490dfd4d0da2",
                        "key": "0x6a9e8a623d3908eb087ad2caa1443e7046d06e7482b34e392c467e830145335e",
                        "prev": "0x0000000000000000000000000000000000000000000000000000000000000000"
                    }
                ],
                "storageVariables": []
            }
        ]
    }
}