{
    "balance_change": {
        "balanceChanges": [
            {
                "account": "0xc9d689fd857dcfaf8011ba064db989222e84c003",
                "assets": [
                    {
                        "address": "0x6560a9b6436e129cf835ab9da96201207facd4f8",
                        "amount": "93.859965624612",
                        "iconUrl": "",
                        "isERC1155": false,
                        "isERC721": false,
                        "sign": false,
                        "value": ""
                    }
                ]
            },
            {
                "account": "0x5fd63e2b6277baf2bc3387afb9ae69a42455f890",
                "assets": [
                    {
                        "address": "0x6560a9b6436e129cf835ab9da96201207facd4f8",
                        "amount": "93.859965624612",
                        "iconUrl": "",
                        "isERC1155": false,
                        "isERC721": false,
                        "sign": true,
                        "value": ""
                    }
                ]
            }
        ]
    },
    "profile": {
        "basic_info": {
            "baseFee": "",
            "blockNumber": 7033883,
            "callData": "0xa9059cbb0000000000000000000000005fd63e2b6277baf2bc3387afb9ae69a42455f89000000000000000000000000000000000000000000000000516919571b55f9100",
            "debugEnable": true,
            "errorInfo": "",
            "eventCount": 1,
            "feeRecipient": "0x5a0b54d5dc17e0aadc383d2db43b0a0d3e029c4c",
            "formatValue": "0",
            "gasLimit": 6721975,
            "gasPrice": "3",
            "gasUsed": 53161,
            "intTxnCount": 0,
            "internalRevert": false,
            "internalRevertMessage": "",
            "isContractCreation": false,
            "isFlashloan": false,
            "maxFee": "",
            "nonce": 2381,
            "overwritedBlockNumber": -1,
            "priorityFee": "",
            "receiver": "0x6560a9b6436e129cf835ab9da96201207facd4f8",
            "revertMessage": "",
            "sender": "0xc9d689fd857dcfaf8011ba064db989222e84c003",
            "simulationEnable": true,
            "sourceTxnHash": "0x7ed80c587b5bc321d1dabbd742529e6290eda26d030f56e16fcafcc96513e048",
            "status": true,
            "timestamp": "2019-01-08T23:49:57Z",
            "transactionFee": "0.000159483",
            "txnHash": "0x7ed80c587b5bc321d1dabbd742529e6290eda26d030f56e16fcafcc96513e048",
            "txnIndex": 13,
            "type": 0,
            "value": "0"
        },
        "fund_flow": [
            {
                "amount": "93.859965624612",
                "from": "0xc9d689fd857dcfaf8011ba064db989222e84c003",
                "id": 1,
                "isERC1155": false,
                "isERC721": false,
                "isReverted": false,
                "order": 1,
                "to": "0x5fd63e2b6277baf2bc3387afb9ae69a42455f890",
                "token": "0x6560a9b6436e129cf835ab9da96201207facd4f8"
            }
        ],
        "token_infos": [
            {
                "address": "0x6560a9b6436e129cf835ab9da96201207facd4f8",
                "decimals": 18
            },
            {
                "address": "0xc02aaa39b223fe8d0a0e5c4f27ead9083c756cc2",
                "decimals": 18
            },
            {
                "address": "0xeeeeeeeeeeeeeeeeeeeeeeeeeeeeeeeeeeeeeeee",
                "decimals": 18
            }
        ]
    },
    "address_label": {
        "labels": [
            {
                "address": "0xeeeeeeeeeeeeeeeeeeeeeeeeeeeeeeeeeeeeeeee",
                "label": "Ether"
            },
            {
                "address": "0x6560a9b6436e129cf835ab9da96201207facd4f8",
                "label": "KRATOS (TOS)"
            },
            {
                "address": "0x0000000000000000000000000000000000000001",
                "label": "Precompiled"
            },
            {
                "address": "0x0000000000000000000000000000000000000002",
                "label": "Precompiled"
            },
            {
                "address": "0x0000000000000000000000000000000000000003",
                "label": "Precompiled"
            },
            {
                "address": "0x0000000000000000000000000000000000000004",
                "label": "Precompiled"
            }
        ]
    },
    "trace": {
        "accountLabels": null,
        "dataMap": {
            "-1": {
                "invocation": {
                    "address": "0xc9d689fd857dcfaf8011ba064db989222e84c003",
                    "callData": "",
                    "decodedMethod": null,
                    "errorInfo": "",
                    "fromAddress": "",
                    "gasUsed": 0,
                    "id": -1,
                    "methodDecoded": false,
                    "operation": "",
                    "output": "",
                    "revert": false,
                    "revertMessage": "",
                    "selector": "",
                    "status": false,
                    "value": ""
                },
                "nodeType": 0
            },
            "0": {
                "invocation": {
                    "address": "0x6560a9b6436e129cf835ab9da96201207facd4f8",
                    "callData": "0x0000000000000000000000005fd63e2b6277baf2bc3387afb9ae69a42455f89000000000000000000000000000000000000000000000000516919571b55f9100",
                    "decodedMethod": {
                        "callParams": [
                            {
                                "name": "_to",
                                "type": "address",
                                "value": "0x5fd63e2b6277baf2bc3387afb9ae69a42455f890"
                            },
                            {
                                "decimalAvailable": true,
                                "name": "_value",
                                "type": "uint256",
                                "value": "93,859,965,624,612,000,000"
                            }
                        ],
                        "constructorArguments": "",
                        "name": "transfer",
                        "returnParams": [
                            {
                                "name": "",
                                "type": "bool",
                                "value": true
                            }
                        ],
                        "signature": "transfer(address,uint256)"
                    },
                    "errorInfo": "",
                    "fromAddress": "0xc9d689fd857dcfaf8011ba064db989222e84c003",
                    "gasUsed": 53161,
                    "id": 0,
                    "methodDecoded": true,
                    "operation": "CALL",
                    "output": "0x0000000000000000000000000000000000000000000000000000000000000001",
                    "revert": false,
                    "revertMessage": "",
                    "selector": "0xa9059cbb",
                    "status": true,
                    "value": "0"
                },
                "nodeType": 0
            },
            "1": {
                "event": {
                    "contract": "0x6560a9b6436e129cf835ab9da96201207facd4f8",
                    "decodedLog": {
                        "name": "Transfer",
                        "params": [
                            {
                                "name": "from",
                                "type": "address",
                                "value": "0xc9d689fd857dcfaf8011ba064db989222e84c003"
                            },
                            {
                                "name": "to",
                                "type": "address",
                                "value": "0x5fd63e2b6277baf2bc3387afb9ae69a42455f890"
                            },
                            {
                                "decimalAvailable": true,
                                "name": "value",
                                "type": "uint256",
                                "value": "93,859,965,624,612,000,000"
                            }
                        ],
                        "signature": "Transfer(address,address,uint256)"
                    },
                    "id": 1,
                    "logData": "0x00000000000000000000000000000000000000000000000516919571b55f9100",
                    "logDecoded": true,
                    "operation": "EVENT",
                    "revert": false,
                    "status": true,
                    "topics": [
                        "0xddf252ad1be2c89b69c2b068fc378daa952ba7f163c4a11628f55a4df523b3ef",
                        "0x000000000000000000000000c9d689fd857dcfaf8011ba064db989222e84c003",
                        "0x0000000000000000000000005fd63e2b6277baf2bc3387afb9ae69a42455f890"
                    ]
                },
                "nodeType": 1
            }
        },
        "gasFlame": [
            {
                "children": [
                    {
                        "children": [
                            {
                                "children": [],
                                "depth": 0,
                                "name": "Initial Gas",
                                "value": 23320
                            },
                            {
                                "children": [],
                                "depth": 0,
                                "name": "Executed Gas",
                                "value": 29841
                            }
                        ],
                        "depth": -1,
                        "name": "Actual Gas Used",
                        "value": 53161
                    },
                    {
                        "children": [],
                        "depth": -1,
                        "name": "Refunded Gas",
                        "value": 0
                    }
                ],
                "depth": -2,
                "name": "Total Gas",
                "value": 53161
            }
        ],
        "isConfirmed": true,
        "mainTrace": [
            {
                "children": [
                    {
                        "children": [
                            {
                                "children": [],
                                "depth": 1,
                                "id": 1,
                                "order": 1
                            }
                        ],
                        "depth": 0,
                        "id": 0,
                        "order": 0
                    }
                ],
                "depth": -1,
                "id": -1,
                "order": -1
            }
        ],
        "mainTraceNodeCount": 2,
        "parentIdMap": {
            "0": -1,
            "1": 0
        },
        "tidyTrace": [
            {
                "children": [
                    {
                        "children": [
                            {
                                "children": [],
                                "depth": 1,
                                "id": 1,
                                "order": 1
                            }
                        ],
                        "depth": 0,
                        "id": 0,
                        "order": 0
                    }
                ],
                "depth": -1,
                "id": -1,
                "order": -1
            }
        ],
        "tidyTraceNodeCount": 2
    },
    "state_change": {
        "stateChanges": [
            {
                "address": "0x6560a9b6436e129cf835ab9da96201207facd4f8",
                "erc": "ERC-20",
                "slots": [
                    {
                        "current": "0x000000000000000000000000000000000000000000dd94fd20d3a02ed38e5ee8",
                        "key": "0x87e69305d6cdfdd95c8259735fb79785502643b7cd13bbdb4847a777b8b105e7",
                        "prev": "0x000000000000000000000000000000000000000000dd9502376535a088edefe8"
                    },
                    {
                        "current": "0x00000000000000000000000000000000000000000000000516919571b55f9100",
                        "key": "0x80fc162c83c8071fae4049fc4e2d8b5e86c675f1727a3ad3b5ca0b31bafdbfa8",
                        "prev": "0x0000000000000000000000000000000000000000000000000000000000000000"
                    }
                ],
                "storageVariables": [
                    {
                        "name": "balances",
                        "type": "mapping(address => uint256)",
                        "value": {
                            "pairs": [
                                {
                                    "key": "0x5fd63e2b6277baf2bc3387afb9ae69a42455f890",
                                    "value": {
                                        "current": "93859965624612000000",
                                        "prev": "0",
                                        "typeTag": 1
                                    }
                                },
                                {
                                    "key": "0xc9d689fd857dcfaf8011ba064db989222e84c003",
                                    "value": {
                                        "current": "267876185765958755896155880",
                                        "prev": "267876279625924380508155880",
                                        "typeTag": 1
                                    }
                                }
                            ],
                            "typeTag": 4
                        }
                    }
                ]
            }
        ]
    }
}