{
    "balance_change": {
        "balanceChanges": [
            {
                "account": "0x0cd4afe09ff0563f494a0c3b972c5c25b2379800",
                "assets": [
                    {
                        "address": "0x41e5560054824ea6b0732e656e3ad64e20e94e45",
                        "amount": "400",
                        "iconUrl": "",
                        "isERC1155": false,
                        "isERC721": false,
                        "sign": false,
                        "value": ""
                    }
                ]
            },
            {
                "account": "0x2ad7cb7ce3b5cbaa02481e416d85f5954748d292",
                "assets": [
                    {
                        "address": "0x41e5560054824ea6b0732e656e3ad64e20e94e45",
                        "amount": "400",
                        "iconUrl": "",
                        "isERC1155": false,
                        "isERC721": false,
                        "sign": true,
                        "value": ""
                    }
                ]
            }
        ]
    },
    "profile": {
        "basic_info": {
            "baseFee": "",
            "blockNumber": 4336434,
            "callData": "0xa9059cbb0000000000000000000000002ad7cb7ce3b5cbaa02481e416d85f5954748d29200000000000000000000000000000000000000000000000000000009502f9000",
            "debugEnable": true,
            "errorInfo": "",
            "eventCount": 1,
            "feeRecipient": "0x5a0b54d5dc17e0aadc383d2db43b0a0d3e029c4c",
            "formatValue": "0",
            "gasLimit": 73192,
            "gasPrice": "10",
            "gasUsed": 21715,
            "intTxnCount": 0,
            "internalRevert": false,
            "internalRevertMessage": "",
            "isContractCreation": false,
            "isFlashloan": false,
            "maxFee": "",
            "nonce": 0,
            "overwritedBlockNumber": -1,
            "priorityFee": "",
            "receiver": "0x41e5560054824ea6b0732e656e3ad64e20e94e45",
            "revertMessage": "",
            "sender": "0x0cd4afe09ff0563f494a0c3b972c5c25b2379800",
            "simulationEnable": true,
            "sourceTxnHash": "0x7e8819e6cdc72b014c895e3f30d03828a4aa33f331d50ba23f0d53833a5cd1d6",
            "status": true,
            "timestamp": "2017-10-04T14:55:01Z",
            "transactionFee": "0.00021715",
            "txnHash": "0x7e8819e6cdc72b014c895e3f30d03828a4aa33f331d50ba23f0d53833a5cd1d6",
            "txnIndex": 57,
            "type": 0,
            "value": "0"
        },
        "fund_flow": [
            {
                "amount": "400",
                "from": "0x0cd4afe09ff0563f494a0c3b972c5c25b2379800",
                "id": 1,
                "isERC1155": false,
                "isERC721": false,
                "isReverted": false,
                "order": 1,
                "to": "0x2ad7cb7ce3b5cbaa02481e416d85f5954748d292",
                "token": "0x41e5560054824ea6b0732e656e3ad64e20e94e45"
            }
        ],
        "token_infos": [
            {
                "address": "0x41e5560054824ea6b0732e656e3ad64e20e94e45",
                "decimals": 8
            },
            {
                "address": "0xc02aaa39b223fe8d0a0e5c4f27ead9083c756cc2",
                "decimals": 18
            },
            {
                "address": "0xeeeeeeeeeeeeeeeeeeeeeeeeeeeeeeeeeeeeeeee",
                "decimals": 18
            }
        ]
    },
    "address_label": {
        "labels": [
            {
                "address": "0xeeeeeeeeeeeeeeeeeeeeeeeeeeeeeeeeeeeeeeee",
                "label": "Ether"
            },
            {
                "address": "0x41e5560054824ea6b0732e656e3ad64e20e94e45",
                "label": "Civic: CVC Token"
            },
            {
                "address": "0x0000000000000000000000000000000000000001",
                "label": "Precompiled"
            },
            {
                "address": "0x0000000000000000000000000000000000000002",
                "label": "Precompiled"
            },
            {
                "address": "0x0000000000000000000000000000000000000003",
                "label": "Precompiled"
            },
            {
                "address": "0x0000000000000000000000000000000000000004",
                "label": "Precompiled"
            }
        ]
    },
    "trace": {
        "accountLabels": null,
        "dataMap": {
            "-1": {
                "invocation": {
                    "address": "0x0cd4afe09ff0563f494a0c3b972c5c25b2379800",
                    "callData": "",
                    "decodedMethod": null,
                    "errorInfo": "",
                    "fromAddress": "",
                    "gasUsed": 0,
                    "id": -1,
                    "methodDecoded": false,
                    "operation": "",
                    "output": "",
                    "revert": false,
                    "revertMessage": "",
                    "selector": "",
                    "status": false,
                    "value": ""
                },
                "nodeType": 0
            },
            "0": {
                "invocation": {
                    "address": "0x41e5560054824ea6b0732e656e3ad64e20e94e45",
                    "callData": "0x0000000000000000000000002ad7cb7ce3b5cbaa02481e416d85f5954748d29200000000000000000000000000000000000000000000000000000009502f9000",
                    "decodedMethod": {
                        "callParams": [
                            {
                                "name": "_to",
                                "type": "address",
                                "value": "0x2ad7cb7ce3b5cbaa02481e416d85f5954748d292"
                            },
                            {
                                "decimalAvailable": true,
                                "name": "_value",
                                "type": "uint256",
                                "value": "40,000,000,000"
                            }
                        ],
                        "constructorArguments": "",
                        "name": "transfer",
                        "returnParams": [
                            {
                                "name": "success",
                                "type": "bool",
                                "value": true
                            }
                        ],
                        "signature": "transfer(address,uint256)"
                    },
                    "errorInfo": "",
                    "fromAddress": "0x0cd4afe09ff0563f494a0c3b972c5c25b2379800",
                    "gasUsed": 21715,
                    "id": 0,
                    "methodDecoded": true,
                    "operation": "CALL",
                    "output": "0x0000000000000000000000000000000000000000000000000000000000000001",
                    "revert": false,
                    "revertMessage": "",
                    "selector": "0xa9059cbb",
                    "status": true,
                    "value": "0"
                },
                "nodeType": 0
            },
            "1": {
                "event": {
                    "contract": "0x41e5560054824ea6b0732e656e3ad64e20e94e45",
                    "decodedLog": {
                        "name": "Transfer",
                        "params": [
                            {
                                "name": "from",
                                "type": "address",
                                "value": "0x0cd4afe09ff0563f494a0c3b972c5c25b2379800"
                            },
                            {
                                "name": "to",
                                "type": "address",
                                "value": "0x2ad7cb7ce3b5cbaa02481e416d85f5954748d292"
                            },
                            {
                                "decimalAvailable": true,
                                "name": "value",
                                "type": "uint256",
                                "value": "40,000,000,000"
                            }
                        ],
                        "signature": "Transfer(address,address,uint256)"
                    },
                    "id": 1,
                    "logData": "0x00000000000000000000000000000000000000000000000000000009502f9000",
                    "logDecoded": true,
                    "operation": "EVENT",
                    "revert": false,
                    "status": true,
                    "topics": [
                        "0xddf252ad1be2c89b69c2b068fc378daa952ba7f163c4a11628f55a4df523b3ef",
                        "0x0000000000000000000000000cd4afe09ff0563f494a0c3b972c5c25b2379800",
                        "0x0000000000000000000000002ad7cb7ce3b5cbaa02481e416d85f5954748d292"
                    ]
                },
                "nodeType": 1
            }
        },
        "gasFlame": [
            {
                "children": [
                    {
                        "children": [
                            {
                                "children": [],
                                "depth": 0,
                                "name": "Initial Gas",
                                "value": 23064
                            },
                            {
                                "children": [],
                                "depth": 0,
                                "name": "Executed Gas",
                                "value": 13651
                            }
                        ],
                        "depth": -1,
                        "name": "Actual Gas Used",
                        "value": 21715
                    },
                    {
                        "children": [],
                        "depth": -1,
                        "name": "Refunded Gas",
                        "value": 15000
                    }
                ],
                "depth": -2,
                "name": "Total Gas",
                "value": 36715
            }
        ],
        "isConfirmed": true,
        "mainTrace": [
            {
                "children": [
                    {
                        "children": [
                            {
                                "children": [],
                                "depth": 1,
                                "id": 1,
                                "order": 1
                            }
                        ],
                        "depth": 0,
                        "id": 0,
                        "order": 0
                    }
                ],
                "depth": -1,
                "id": -1,
                "order": -1
            }
        ],
        "mainTraceNodeCount": 2,
        "parentIdMap": {
            "0": -1,
            "1": 0
        },
        "tidyTrace": [
            {
                "children": [
                    {
                        "children": [
                            {
                                "children": [],
                                "depth": 1,
                                "id": 1,
                                "order": 1
                            }
                        ],
                        "depth": 0,
                        "id": 0,
                        "order": 0
                    }
                ],
                "depth": -1,
                "id": -1,
                "order": -1
            }
        ],
        "tidyTraceNodeCount": 2
    },
    "state_change": {
        "stateChanges": [
            {
                "address": "0x41e5560054824ea6b0732e656e3ad64e20e94e45",
                "erc": "ERC-20",
                "slots": [
                    {
                        "current": "0x0000000000000000000000000000000000000000000000000000000000000000",
                        "key": "0xdaacfad600a32707ef94c328d251d09541f5468d5c863947f679ad7d64bc2f6c",
                        "prev": "0x00000000000000000000000000000000000000000000000000000009502f9000"
                    },
                    {
                        "current": "0x000000000000000000000000000000000000000000000000000014da53eb05d4",
                        "key": "0x9702ad08d2d7db2356736906f07ed582c9cedf9f8eb4bca71fc3c5262d451214",
                        "prev": "0x000000000000000000000000000000000000000000000000000014d103bb75d4"
                    }
                ],
                "storageVariables": []
            }
        ]
    }
}