{
    "balance_change": {
        "balanceChanges": []
    },
    "profile": {
        "basic_info": {
            "baseFee": "",
            "blockNumber": 4851275,
            "callData": "0x0a19b14a00000000000000000000000000000000000000000000000000000000000000000000000000000000000000000000000000000000000000302fcc8e78336c00000000000000000000000000004ceda7906a5ed2179785cd3a40a69ee8bc99c46600000000000000000000000000000000000000000000000000000a1b012b270000000000000000000000000000000000000000000000000000000000004a293b0000000000000000000000000000000000000000000000000000000057222708000000000000000000000000f131fce10896761334ab338ed9b5af64122b4297000000000000000000000000000000000000000000000000000000000000001b2828e94179cb3b6527d0bda17f550e2821d3035f9e00ae7ed44e9a9e5b706d796d98d2716244a599ca4261d98c594af2b99873e1ce1c53893e2852c69411f7150000000000000000000000000000000000000000000000027c698b1636fa878a",
            "debugEnable": true,
            "errorInfo": "",
            "eventCount": 1,
            "feeRecipient": "0xb2930b35844a230f00e51431acae96fe543a0347",
            "formatValue": "0",
            "gasLimit": 250000,
            "gasPrice": "50",
            "gasUsed": 78114,
            "intTxnCount": 2,
            "internalRevert": false,
            "internalRevertMessage": "",
            "isContractCreation": false,
            "isFlashloan": false,
            "maxFee": "",
            "nonce": 829,
            "overwritedBlockNumber": -1,
            "priorityFee": "",
            "receiver": "0x8d12a197cb00d4747a1fe03395095ce2a5cc6819",
            "revertMessage": "",
            "sender": "0x730131871710123a0260b127c5ab3612b37f49d5",
            "simulationEnable": true,
            "sourceTxnHash": "0x7eb9e1456622d4824f9051e4a76761a09fd8c8b7e248aa4927b2a265a8fcdd29",
            "status": true,
            "timestamp": "2018-01-04T06:13:33Z",
            "transactionFee": "0.0039057",
            "txnHash": "0x7eb9e1456622d4824f9051e4a76761a09fd8c8b7e248aa4927b2a265a8fcdd29",
            "txnIndex": 4,
            "type": 0,
            "value": "0"
        },
        "fund_flow": [],
        "token_infos": [
            {
                "address": "0xc02aaa39b223fe8d0a0e5c4f27ead9083c756cc2",
                "decimals": 18
            },
            {
                "address": "0xeeeeeeeeeeeeeeeeeeeeeeeeeeeeeeeeeeeeeeee",
                "decimals": 18
            }
        ]
    },
    "address_label": {
        "labels": [
            {
                "address": "0x8d12a197cb00d4747a1fe03395095ce2a5cc6819",
                "label": "EtherDelta"
            },
            {
                "address": "0x0000000000000000000000000000000000000002",
                "label": "Precompiled"
            },
            {
                "address": "0x4ceda7906a5ed2179785cd3a40a69ee8bc99c466",
                "label": "AION: Old Token"
            },
            {
                "address": "0x0000000000000000000000000000000000000000",
                "label": "Null Address"
            },
            {
                "address": "0x0000000000000000000000000000000000000001",
                "label": "Precompiled"
            },
            {
                "address": "0x0000000000000000000000000000000000000003",
                "label": "Precompiled"
            },
            {
                "address": "0x0000000000000000000000000000000000000004",
                "label": "Precompiled"
            },
            {
                "address": "0xeeeeeeeeeeeeeeeeeeeeeeeeeeeeeeeeeeeeeeee",
                "label": "Ether"
            }
        ]
    },
    "trace": {
        "accountLabels": null,
        "dataMap": {
            "-1": {
                "invocation": {
                    "address": "0x730131871710123a0260b127c5ab3612b37f49d5",
                    "callData": "",
                    "decodedMethod": null,
                    "errorInfo": "",
                    "fromAddress": "",
                    "gasUsed": 0,
                    "id": -1,
                    "methodDecoded": false,
                    "operation": "",
                    "output": "",
                    "revert": false,
                    "revertMessage": "",
                    "selector": "",
                    "status": false,
                    "value": ""
                },
                "nodeType": 0
            },
            "0": {
                "invocation": {
                    "address": "0x8d12a197cb00d4747a1fe03395095ce2a5cc6819",
                    "callData": "0x00000000000000000000000000000000000000000000000000000000000000000000000000000000000000000000000000000000000000302fcc8e78336c00000000000000000000000000004ceda7906a5ed2179785cd3a40a69ee8bc99c46600000000000000000000000000000000000000000000000000000a1b012b270000000000000000000000000000000000000000000000000000000000004a293b0000000000000000000000000000000000000000000000000000000057222708000000000000000000000000f131fce10896761334ab338ed9b5af64122b4297000000000000000000000000000000000000000000000000000000000000001b2828e94179cb3b6527d0bda17f550e2821d3035f9e00ae7ed44e9a9e5b706d796d98d2716244a599ca4261d98c594af2b99873e1ce1c53893e2852c69411f7150000000000000000000000000000000000000000000000027c698b1636fa878a",
                    "decodedMethod": {
                        "callParams": [
                            {
                                "name": "tokenGet",
                                "type": "address",
                                "value": "0x0000000000000000000000000000000000000000"
                            },
                            {
                                "name": "amountGet",
                                "type": "uint256",
                                "value": "888,888,000,000,000,000,000"
                            },
                            {
                                "name": "tokenGive",
                                "type": "address",
                                "value": "0x4ceda7906a5ed2179785cd3a40a69ee8bc99c466"
                            },
                            {
                                "name": "amountGive",
                                "type": "uint256",
                                "value": "11,111,100,000,000"
                            },
                            {
                                "name": "expires",
                                "type": "uint256",
                                "value": "4,860,219"
                            },
                            {
                                "name": "nonce",
                                "type": "uint256",
                                "value": "1,461,856,008"
                            },
                            {
                                "name": "user",
                                "type": "address",
                                "value": "0xf131fce10896761334ab338ed9b5af64122b4297"
                            },
                            {
                                "name": "v",
                                "type": "uint8",
                                "value": "27"
                            },
                            {
                                "name": "r",
                                "type": "bytes32",
                                "value": "0x2828e94179cb3b6527d0bda17f550e2821d3035f9e00ae7ed44e9a9e5b706d79"
                            },
                            {
                                "name": "s",
                                "type": "bytes32",
                                "value": "0x6d98d2716244a599ca4261d98c594af2b99873e1ce1c53893e2852c69411f715"
                            },
                            {
                                "name": "amount",
                                "type": "uint256",
                                "value": "45,858,337,608,204,715,914"
                            }
                        ],
                        "constructorArguments": "",
                        "name": "trade",
                        "returnParams": [],
                        "signature": "trade(address,uint256,address,uint256,uint256,uint256,address,uint8,bytes32,bytes32,uint256)"
                    },
                    "errorInfo": "",
                    "fromAddress": "0x730131871710123a0260b127c5ab3612b37f49d5",
                    "gasUsed": 78114,
                    "id": 0,
                    "methodDecoded": true,
                    "operation": "CALL",
                    "output": "",
                    "revert": false,
                    "revertMessage": "",
                    "selector": "0x0a19b14a",
                    "status": true,
                    "value": "0"
                },
                "nodeType": 0
            },
            "1": {
                "invocation": {
                    "address": "0x0000000000000000000000000000000000000002",
                    "callData": "0xcb00d4747a1fe03395095ce2a5cc681900000000000000000000000000000000000000000000000000000000000000000000000000000000000000302fcc8e78336c00004ceda7906a5ed2179785cd3a40a69ee8bc99c46600000000000000000000000000000000000000000000000000000a1b012b270000000000000000000000000000000000000000000000000000000000004a293b0000000000000000000000000000000000000000000000000000000057222708",
                    "decodedMethod": {
                        "callParams": [
                            {
                                "name": "data",
                                "type": "bytes",
                                "value": "0x8d12a197cb00d4747a1fe03395095ce2a5cc681900000000000000000000000000000000000000000000000000000000000000000000000000000000000000302fcc8e78336c00004ceda7906a5ed2179785cd3a40a69ee8bc99c46600000000000000000000000000000000000000000000000000000a1b012b270000000000000000000000000000000000000000000000000000000000004a293b0000000000000000000000000000000000000000000000000000000057222708"
                            }
                        ],
                        "constructorArguments": "",
                        "name": "sha256hash",
                        "returnParams": [
                            {
                                "name": "hash",
                                "type": "bytes32",
                                "value": "0x9f74fb6eff87c601ab01de2a781ebb1f97c5c0d5a8d0e4453169429d459ffef5"
                            }
                        ],
                        "signature": "sha256hash(bytes)"
                    },
                    "errorInfo": "",
                    "fromAddress": "0x8d12a197cb00d4747a1fe03395095ce2a5cc6819",
                    "gasUsed": 132,
                    "id": 1,
                    "methodDecoded": true,
                    "operation": "CALL",
                    "output": "0x9f74fb6eff87c601ab01de2a781ebb1f97c5c0d5a8d0e4453169429d459ffef5",
                    "revert": false,
                    "revertMessage": "",
                    "selector": "0x8d12a197",
                    "status": true,
                    "value": "0"
                },
                "nodeType": 0
            },
            "2": {
                "invocation": {
                    "address": "0x0000000000000000000000000000000000000001",
                    "callData": "0x4243bd0e598ea2ef8f283cabd81fe77f2daee39e676e87bd256eccc2000000000000000000000000000000000000000000000000000000000000001b2828e94179cb3b6527d0bda17f550e2821d3035f9e00ae7ed44e9a9e5b706d796d98d2716244a599ca4261d98c594af2b99873e1ce1c53893e2852c69411f715",
                    "decodedMethod": {
                        "callParams": [
                            {
                                "name": "hash",
                                "type": "bytes32",
                                "value": "0x5711f7a04243bd0e598ea2ef8f283cabd81fe77f2daee39e676e87bd256eccc2"
                            },
                            {
                                "name": "v",
                                "type": "uint256",
                                "value": "27"
                            },
                            {
                                "name": "r",
                                "type": "bytes32",
                                "value": "0x2828e94179cb3b6527d0bda17f550e2821d3035f9e00ae7ed44e9a9e5b706d79"
                            },
                            {
                                "name": "s",
                                "type": "bytes32",
                                "value": "0x6d98d2716244a599ca4261d98c594af2b99873e1ce1c53893e2852c69411f715"
                            }
                        ],
                        "constructorArguments": "",
                        "name": "ecrecover",
                        "returnParams": [
                            {
                                "name": "",
                                "type": "address",
                                "value": "0xf131fce10896761334ab338ed9b5af64122b4297"
                            }
                        ],
                        "signature": "ecrecover(bytes32,uint256,bytes32,bytes32)"
                    },
                    "errorInfo": "",
                    "fromAddress": "0x8d12a197cb00d4747a1fe03395095ce2a5cc6819",
                    "gasUsed": 3000,
                    "id": 2,
                    "methodDecoded": true,
                    "operation": "CALL",
                    "output": "0x000000000000000000000000f131fce10896761334ab338ed9b5af64122b4297",
                    "revert": false,
                    "revertMessage": "",
                    "selector": "0x5711f7a0",
                    "status": true,
                    "value": "0"
                },
                "nodeType": 0
            },
            "3": {
                "event": {
                    "contract": "0x8d12a197cb00d4747a1fe03395095ce2a5cc6819",
                    "decodedLog": {
                        "name": "Trade",
                        "params": [
                            {
                                "name": "tokenGet",
                                "type": "address",
                                "value": "0x0000000000000000000000000000000000000000"
                            },
                            {
                                "name": "amountGet",
                                "type": "uint256",
                                "value": "45,858,337,608,204,715,914"
                            },
                            {
                                "name": "tokenGive",
                                "type": "address",
                                "value": "0x4ceda7906a5ed2179785cd3a40a69ee8bc99c466"
                            },
                            {
                                "name": "amountGive",
                                "type": "uint256",
                                "value": "573,229,220,102"
                            },
                            {
                                "name": "get",
                                "type": "address",
                                "value": "0xf131fce10896761334ab338ed9b5af64122b4297"
                            },
                            {
                                "name": "give",
                                "type": "address",
                                "value": "0x730131871710123a0260b127c5ab3612b37f49d5"
                            }
                        ],
                        "signature": "Trade(address,uint256,address,uint256,address,address)"
                    },
                    "id": 3,
                    "logData": "0x00000000000000000000000000000000000000000000000000000000000000000000000000000000000000000000000000000000000000027c698b1636fa878a0000000000000000000000004ceda7906a5ed2179785cd3a40a69ee8bc99c46600000000000000000000000000000000000000000000000000000085771fc106000000000000000000000000f131fce10896761334ab338ed9b5af64122b4297000000000000000000000000730131871710123a0260b127c5ab3612b37f49d5",
                    "logDecoded": true,
                    "operation": "EVENT",
                    "revert": false,
                    "status": true,
                    "topics": [
                        "0x6effdda786735d5033bfad5f53e5131abcced9e52be6c507b62d639685fbed6d"
                    ]
                },
                "nodeType": 1
            }
        },
        "gasFlame": [
            {
                "children": [
                    {
                        "children": [
                            {
                                "children": [],
                                "depth": 0,
                                "name": "Initial Gas",
                                "value": 31128
                            },
                            {
                                "children": [
                                    {
                                        "children": [],
                                        "depth": 1,
                                        "name": "sha256hash",
                                        "value": 132
                                    },
                                    {
                                        "children": [],
                                        "depth": 1,
                                        "name": "ecrecover",
                                        "value": 3000
                                    }
                                ],
                                "depth": 0,
                                "name": "Executed Gas",
                                "value": 46986
                            }
                        ],
                        "depth": -1,
                        "name": "Actual Gas Used",
                        "value": 78114
                    },
                    {
                        "children": [],
                        "depth": -1,
                        "name": "Refunded Gas",
                        "value": 0
                    }
                ],
                "depth": -2,
                "name": "Total Gas",
                "value": 78114
            }
        ],
        "isConfirmed": true,
        "mainTrace": [
            {
                "children": [
                    {
                        "children": [
                            {
                                "children": [],
                                "depth": 1,
                                "id": 1,
                                "order": 1
                            },
                            {
                                "children": [],
                                "depth": 1,
                                "id": 2,
                                "order": 2
                            },
                            {
                                "children": [],
                                "depth": 1,
                                "id": 3,
                                "order": 3
                            }
                        ],
                        "depth": 0,
                        "id": 0,
                        "order": 0
                    }
                ],
                "depth": -1,
                "id": -1,
                "order": -1
            }
        ],
        "mainTraceNodeCount": 4,
        "parentIdMap": {
            "0": -1,
            "1": 0,
            "2": 0,
            "3": 0
        },
        "tidyTrace": [
            {
                "children": [
                    {
                        "children": [
                            {
                                "children": [],
                                "depth": 1,
                                "id": 1,
                                "order": 1
                            },
                            {
                                "children": [],
                                "depth": 1,
                                "id": 2,
                                "order": 2
                            },
                            {
                                "children": [],
                                "depth": 1,
                                "id": 3,
                                "order": 3
                            }
                        ],
                        "depth": 0,
                        "id": 0,
                        "order": 0
                    }
                ],
                "depth": -1,
                "id": -1,
                "order": -1
            }
        ],
        "tidyTraceNodeCount": 4
    },
    "state_change": {
        "stateChanges": [
            {
                "address": "0x8d12a197cb00d4747a1fe03395095ce2a5cc6819",
                "erc": "",
                "slots": [
                    {
                        "current": "0x000000000000000000000000000000000000000000000019ef95639b37cced68",
                        "key": "0x125ef4b4c9b2f88aed78c58e53fef55144c8ec4fc3507347c4fdc445c5c5a7ce",
                        "prev": "0x000000000000000000000000000000000000000000000017732bd88500d265de"
                    },
                    {
                        "current": "0x00000000000000000000000000000000000000000000001baf884b0bc2cc037c",
                        "key": "0xaa5aa2a1f1e8b58d97a3b82f0ea3de5691008176a599589980f87fdf576b8a0f",
                        "prev": "0x00000000000000000000000000000000000000000000001bad9f874cf96a7e79"
                    },
                    {
                        "current": "0x00000000000000000000000000000000000000000000000000003799f79fd621",
                        "key": "0x060891326a2454b106ed16f52817ec1991ffcf3f66882ee3ac5427395115a456",
                        "prev": "0x0000000000000000000000000000000000000000000000000000381f6ebf9727"
                    },
                    {
                        "current": "0x00000000000000000000000000000000000000000000000000000085771fc22a",
                        "key": "0xc96978538527359f50dfecc3432241f17cadabb08c4292382558e8bf6e26e35a",
                        "prev": "0x0000000000000000000000000000000000000000000000000000000000000124"
                    },
                    {
                        "current": "0x00000000000000000000000000000000000000000000001aa8cf4c6fb6e33434",
                        "key": "0x08061413c1a07297e0de3fc22c93e9d4179ed7525f47211dfe365d867caedb1b",
                        "prev": "0x0000000000000000000000000000000000000000000000182c65c1597fe8acaa"
                    },
                    {
                        "current": "0x00000000000000000000000000000000000000000000000000104acaa0500cf9",
                        "key": "0x7484bc2579c9799b665c43e7ea125cd70c951af41cf3c2a5f6b07736e94db634",
                        "prev": "0x0000000000000000000000000000000000000000000000027e62999fa0ac1986"
                    }
                ],
                "storageVariables": []
            }
        ]
    }
}