{
    "balance_change": {
        "balanceChanges": [
            {
                "account": "0x19de4a07eb4991ffb91021a61ad5fc627edeba30",
                "assets": [
                    {
                        "address": "0x139d9397274bb9e2c29a9aa8aa0b5874d30d62e3",
                        "amount": "500",
                        "iconUrl": "https://assets.blocksec.com/icon/b976e6b1d2e9cf683a9b120aca1153e2f6244beebf1d16a0674a7be9fcf23fad.png",
                        "isERC1155": false,
                        "isERC721": false,
                        "sign": false,
                        "value": ""
                    }
                ]
            },
            {
                "account": "0xee854b72d2174fe28a080145516cb40c47cd3f6e",
                "assets": [
                    {
                        "address": "0x139d9397274bb9e2c29a9aa8aa0b5874d30d62e3",
                        "amount": "500",
                        "iconUrl": "https://assets.blocksec.com/icon/b976e6b1d2e9cf683a9b120aca1153e2f6244beebf1d16a0674a7be9fcf23fad.png",
                        "isERC1155": false,
                        "isERC721": false,
                        "sign": true,
                        "value": ""
                    }
                ]
            }
        ]
    },
    "profile": {
        "basic_info": {
            "baseFee": "",
            "blockNumber": 5479545,
            "callData": "0xa9059cbb000000000000000000000000ee854b72d2174fe28a080145516cb40c47cd3f6e00000000000000000000000000000000000000000000001b1ae4d6e2ef500000",
            "debugEnable": true,
            "errorInfo": "",
            "eventCount": 1,
            "feeRecipient": "0x5a0b54d5dc17e0aadc383d2db43b0a0d3e029c4c",
            "formatValue": "0",
            "gasLimit": 55000,
            "gasPrice": "2",
            "gasUsed": 22897,
            "intTxnCount": 0,
            "internalRevert": false,
            "internalRevertMessage": "",
            "isContractCreation": false,
            "isFlashloan": false,
            "maxFee": "",
            "nonce": 0,
            "overwritedBlockNumber": -1,
            "priorityFee": "",
            "receiver": "0x139d9397274bb9e2c29a9aa8aa0b5874d30d62e3",
            "revertMessage": "",
            "sender": "0x19de4a07eb4991ffb91021a61ad5fc627edeba30",
            "simulationEnable": true,
            "sourceTxnHash": "0x7eac714908d8a861ed28cc94304adcd7b1b26b7b77513d7d11245846178aef9a",
            "status": true,
            "timestamp": "2018-04-21T10:46:25Z",
            "transactionFee": "0.000045794",
            "txnHash": "0x7eac714908d8a861ed28cc94304adcd7b1b26b7b77513d7d11245846178aef9a",
            "txnIndex": 99,
            "type": 0,
            "value": "0"
        },
        "fund_flow": [
            {
                "amount": "500",
                "from": "0x19de4a07eb4991ffb91021a61ad5fc627edeba30",
                "id": 1,
                "isERC1155": false,
                "isERC721": false,
                "isReverted": false,
                "order": 1,
                "to": "0xee854b72d2174fe28a080145516cb40c47cd3f6e",
                "token": "0x139d9397274bb9e2c29a9aa8aa0b5874d30d62e3"
            }
        ],
        "token_infos": [
            {
                "address": "0xeeeeeeeeeeeeeeeeeeeeeeeeeeeeeeeeeeeeeeee",
                "decimals": 18
            },
            {
                "address": "0x139d9397274bb9e2c29a9aa8aa0b5874d30d62e3",
                "decimals": 18
            },
            {
                "address": "0xc02aaa39b223fe8d0a0e5c4f27ead9083c756cc2",
                "decimals": 18
            }
        ]
    },
    "address_label": {
        "labels": [
            {
                "address": "0x139d9397274bb9e2c29a9aa8aa0b5874d30d62e3",
                "label": "BoutsPro (BOUTS)"
            },
            {
                "address": "0x0000000000000000000000000000000000000001",
                "label": "Precompiled"
            },
            {
                "address": "0x0000000000000000000000000000000000000002",
                "label": "Precompiled"
            },
            {
                "address": "0x0000000000000000000000000000000000000003",
                "label": "Precompiled"
            },
            {
                "address": "0x0000000000000000000000000000000000000004",
                "label": "Precompiled"
            },
            {
                "address": "0xeeeeeeeeeeeeeeeeeeeeeeeeeeeeeeeeeeeeeeee",
                "label": "Ether"
            }
        ]
    },
    "trace": {
        "accountLabels": null,
        "dataMap": {
            "-1": {
                "invocation": {
                    "address": "0x19de4a07eb4991ffb91021a61ad5fc627edeba30",
                    "callData": "",
                    "decodedMethod": null,
                    "errorInfo": "",
                    "fromAddress": "",
                    "gasUsed": 0,
                    "id": -1,
                    "methodDecoded": false,
                    "operation": "",
                    "output": "",
                    "revert": false,
                    "revertMessage": "",
                    "selector": "",
                    "status": false,
                    "value": ""
                },
                "nodeType": 0
            },
            "0": {
                "invocation": {
                    "address": "0x139d9397274bb9e2c29a9aa8aa0b5874d30d62e3",
                    "callData": "0x000000000000000000000000ee854b72d2174fe28a080145516cb40c47cd3f6e00000000000000000000000000000000000000000000001b1ae4d6e2ef500000",
                    "decodedMethod": {
                        "callParams": [
                            {
                                "name": "_to",
                                "type": "address",
                                "value": "0xee854b72d2174fe28a080145516cb40c47cd3f6e"
                            },
                            {
                                "decimalAvailable": true,
                                "name": "_value",
                                "type": "uint256",
                                "value": "500,000,000,000,000,000,000"
                            }
                        ],
                        "constructorArguments": "",
                        "name": "transfer",
                        "returnParams": [
                            {
                                "name": "",
                                "type": "bool",
                                "value": true
                            }
                        ],
                        "signature": "transfer(address,uint256)"
                    },
                    "errorInfo": "",
                    "fromAddress": "0x19de4a07eb4991ffb91021a61ad5fc627edeba30",
                    "gasUsed": 22897,
                    "id": 0,
                    "methodDecoded": true,
                    "operation": "CALL",
                    "output": "0x0000000000000000000000000000000000000000000000000000000000000001",
                    "revert": false,
                    "revertMessage": "",
                    "selector": "0xa9059cbb",
                    "status": true,
                    "value": "0"
                },
                "nodeType": 0
            },
            "1": {
                "event": {
                    "contract": "0x139d9397274bb9e2c29a9aa8aa0b5874d30d62e3",
                    "decodedLog": {
                        "name": "Transfer",
                        "params": [
                            {
                                "name": "from",
                                "type": "address",
                                "value": "0x19de4a07eb4991ffb91021a61ad5fc627edeba30"
                            },
                            {
                                "name": "to",
                                "type": "address",
                                "value": "0xee854b72d2174fe28a080145516cb40c47cd3f6e"
                            },
                            {
                                "decimalAvailable": true,
                                "name": "value",
                                "type": "uint256",
                                "value": "500,000,000,000,000,000,000"
                            }
                        ],
                        "signature": "Transfer(address,address,uint256)"
                    },
                    "id": 1,
                    "logData": "0x00000000000000000000000000000000000000000000001b1ae4d6e2ef500000",
                    "logDecoded": true,
                    "operation": "EVENT",
                    "revert": false,
                    "status": true,
                    "topics": [
                        "0xddf252ad1be2c89b69c2b068fc378daa952ba7f163c4a11628f55a4df523b3ef",
                        "0x00000000000000000000000019de4a07eb4991ffb91021a61ad5fc627edeba30",
                        "0x000000000000000000000000ee854b72d2174fe28a080145516cb40c47cd3f6e"
                    ]
                },
                "nodeType": 1
            }
        },
        "gasFlame": [
            {
                "children": [
                    {
                        "children": [
                            {
                                "children": [],
                                "depth": 0,
                                "name": "Initial Gas",
                                "value": 23256
                            },
                            {
                                "children": [],
                                "depth": 0,
                                "name": "Executed Gas",
                                "value": 14641
                            }
                        ],
                        "depth": -1,
                        "name": "Actual Gas Used",
                        "value": 22897
                    },
                    {
                        "children": [],
                        "depth": -1,
                        "name": "Refunded Gas",
                        "value": 15000
                    }
                ],
                "depth": -2,
                "name": "Total Gas",
                "value": 37897
            }
        ],
        "isConfirmed": true,
        "mainTrace": [
            {
                "children": [
                    {
                        "children": [
                            {
                                "children": [],
                                "depth": 1,
                                "id": 1,
                                "order": 1
                            }
                        ],
                        "depth": 0,
                        "id": 0,
                        "order": 0
                    }
                ],
                "depth": -1,
                "id": -1,
                "order": -1
            }
        ],
        "mainTraceNodeCount": 2,
        "parentIdMap": {
            "0": -1,
            "1": 0
        },
        "tidyTrace": [
            {
                "children": [
                    {
                        "children": [
                            {
                                "children": [],
                                "depth": 1,
                                "id": 1,
                                "order": 1
                            }
                        ],
                        "depth": 0,
                        "id": 0,
                        "order": 0
                    }
                ],
                "depth": -1,
                "id": -1,
                "order": -1
            }
        ],
        "tidyTraceNodeCount": 2
    },
    "state_change": {
        "stateChanges": [
            {
                "address": "0x139d9397274bb9e2c29a9aa8aa0b5874d30d62e3",
                "erc": "ERC-20",
                "slots": [
                    {
                        "current": "0x0000000000000000000000000000000000000000000000000000000000000000",
                        "key": "0xb1d0e095dcb2e677f7bccc54fa4a5bcd834341e5ad143e37a7efdec1737f771e",
                        "prev": "0x00000000000000000000000000000000000000000000001b1ae4d6e2ef500000"
                    },
                    {
                        "current": "0x00000000000000000000000000000000000000000000012a27d53bc048700000",
                        "key": "0x0d86358e0706d0e8f8fb53819df2ccbfe774f7677a2f966e41f83b4f1d19dcc5",
                        "prev": "0x00000000000000000000000000000000000000000000010f0cf064dd59200000"
                    }
                ],
                "storageVariables": [
                    {
                        "name": "balances",
                        "type": "mapping(address => uint256)",
                        "value": {
                            "pairs": [
                                {
                                    "key": "0x19de4a07eb4991ffb91021a61ad5fc627edeba30",
                                    "value": {
                                        "current": "0",
                                        "prev": "500000000000000000000",
                                        "typeTag": 1
                                    }
                                },
                                {
                                    "key": "0xee854b72d2174fe28a080145516cb40c47cd3f6e",
                                    "value": {
                                        "current": "5500000000000000000000",
                                        "prev": "5000000000000000000000",
                                        "typeTag": 1
                                    }
                                }
                            ],
                            "typeTag": 4
                        }
                    }
                ]
            }
        ]
    }
}