{
    "balance_change": {
        "balanceChanges": []
    },
    "profile": {
        "basic_info": {
            "baseFee": "",
            "blockNumber": 10672176,
            "callData": "0x89bbb8b200000000000000000000000000000000000000000000000000000000000000a00000000000000000000000000000000000000000000000000000000000000260000000000000000000000000000000000000000000000000000000000000042000000000000000000000000000000000000000000000000000000000000005e000000000000000000000000000000000000000000000000000000000000007a0000000000000000000000000000000000000000000000000000000000000000d0000000000000000000000000000000000000000000000000157b131cf3ab5000000000000000000000000000000000000000000000000000157d570ecf09c0000000000000000000000000000000000000000000000000001582f4606fe220000000000000000000000000000000000000000000000000001584557a3bcdb000000000000000000000000000000000000000000000000000158d0dc05f8320000000000000000000000000000000000000000000000000001593a26cdbc15000000000000000000000000000000000000000000000000000159e8fac46b2300000000000000000000000000000000000000000000000000015a49aa0fc93700000000000000000000000000000000000000000000000000015a49aa0fc93700000000000000000000000000000000000000000000000000015a57d9fca3cd00000000000000000000000000000000000000000000000000015a57d9fca3cd00000000000000000000000000000000000000000000000000015a815e259f6900000000000000000000000000000000000000000000000000015a8c44fea86300000000000000000000000000000000000000000000000000000000000000000d000000000000000000000000000000000000000000000000000000005f395d1e000000000000000000000000000000000000000000000000000000005f395d1c000000000000000000000000000000000000000000000000000000005f395e04000000000000000000000000000000000000000000000000000000005f395e65000000000000000000000000000000000000000000000000000000005f395edb000000000000000000000000000000000000000000000000000000005f395f01000000000000000000000000000000000000000000000000000000005f395f39000000000000000000000000000000000000000000000000000000005f395f40000000000000000000000000000000000000000000000000000000005f395f17000000000000000000000000000000000000000000000000000000005f395f17000000000000000000000000000000000000000000000000000000005f395f11000000000000000000000000000000000000000000000000000000005f395f4e000000000000000000000000000000000000000000000000000000005f395f44000000000000000000000000000000000000000000000000000000000000000d000000000000000000000000000000000000000000000000000000000000001c000000000000000000000000000000000000000000000000000000000000001c000000000000000000000000000000000000000000000000000000000000001c000000000000000000000000000000000000000000000000000000000000001c000000000000000000000000000000000000000000000000000000000000001b000000000000000000000000000000000000000000000000000000000000001b000000000000000000000000000000000000000000000000000000000000001b000000000000000000000000000000000000000000000000000000000000001b000000000000000000000000000000000000000000000000000000000000001b000000000000000000000000000000000000000000000000000000000000001b000000000000000000000000000000000000000000000000000000000000001b000000000000000000000000000000000000000000000000000000000000001c000000000000000000000000000000000000000000000000000000000000001c000000000000000000000000000000000000000000000000000000000000000dd989a23e691b934bd2b83ec8c4717563ccdb7e7e3d49e09cc56b145fc0347f6692fdcf86cd71988b5938c8370c4e2a7ab15484d42db4c35530059418f72137f03f06243efb273950e5309bc2d55cc464d9f2fb3d5e4576bfb8153d229055e927a26e5d54812fa0a385a10f5906454681291816819115f0a44078fbb378e8d283689f1d29d88a322244f3ff5346c57a7a0296dc65ffb486595ec9320658158e574d130f19d7db883e05aa29b363c56e7bd185ed7a5f1b556446d4af03486c8a5921b4364a4e951b785795f1fd922685884556e15ebe66f9fe1f438583fcd5260ac2ef6540b437fd8e285dfffc473e682ee09b9714537d1b33035399d62c751e50f42f8d7cd1a5bd9010b8b8b07b3c38d492d11cb3d6c15646ea893ce87f66f7ba9beb6cfd5b11aff40360e061b21cd9b477d00285febc09b58aa1eebea0d08cd2e407b41c209fe05a31838f15244e6bd3c287b599f02edf0bdc75058da62231582de8f2ec91ed550b3ccbe57fd22c07ab523901b10da55f4a5d879b996dd4e4aba37027c9037a3d2bee3e49044a8f45865597a5f7ed269a3bffa36179078b8d63000000000000000000000000000000000000000000000000000000000000000d6049c0dc00cd72041df0c60b8f370519f49194cd0c3ce7f93eb1a50cbfc71c602fcaa2b1051e7b0590c7ebf8fb6eec1e5c883042ba0a3a7e6057f8f83a1d5a2d3de951675581e04007aa4b3d7f7c9245b3367b2c563f58fc6edda922be5de4b47e0891d2277e70b81e0bc2fc606f0fee3eb6ce1929e537787d5445c1e0b047eb0636b58ad33d9b7346d8ea23edc597fef22a6147e98e8bbe66283bec1c1c14a925fa6e60050c6080c485c52dc38f785f6b4ad8757cfd9daf38f7573c772d6d45735fa161245fbe8d74f93a6c7919b5a695f434ed624a56ae14ee73ce32058e2d5526957a99d6f2a1e823235c928850904973cbd2f9a2e20684fab23ebffc4a843c36489c24c85f30241bfb61a5446c04fa9bc02579ef869cb7334a10aca34a087688a67bc4025d278c8b2ab10c8a2f56ebc08e8bde0fddd106cc6f37f5cfcdd11959c097784e394fe47dc7bb2908c48528c2332a42e0e9a6beca0e3f6101fb772a4acc6eb59ecf207b0fe14014de3b0693457d79ec26e90e4a605adc6851f31a0006d73b49c586d0e73be9897567c840be4aafbd5d03f51d05f88e2cb159f0fe",
            "debugEnable": true,
            "errorInfo": "",
            "eventCount": 1,
            "feeRecipient": "0x5a0b54d5dc17e0aadc383d2db43b0a0d3e029c4c",
            "formatValue": "0",
            "gasLimit": 200000,
            "gasPrice": "113.300000256",
            "gasUsed": 129379,
            "intTxnCount": 13,
            "internalRevert": false,
            "internalRevertMessage": "",
            "isContractCreation": false,
            "isFlashloan": false,
            "maxFee": "",
            "nonce": 3614,
            "overwritedBlockNumber": -1,
            "priorityFee": "",
            "receiver": "0x681c4f8f69cf68852bad092086ffeab31f5b812c",
            "revertMessage": "",
            "sender": "0x41c0ccec5de7c71e99d9c29ff4b8c341fa156f0b",
            "simulationEnable": true,
            "sourceTxnHash": "0x7e5be65b1b0bb30c5c3d0a58e701c8dc842015af6f8cde0f033006304b06a296",
            "status": true,
            "timestamp": "2020-08-16T16:32:34Z",
            "transactionFee": "0.014658640733121024",
            "txnHash": "0x7e5be65b1b0bb30c5c3d0a58e701c8dc842015af6f8cde0f033006304b06a296",
            "txnIndex": 3,
            "type": 0,
            "value": "0"
        },
        "fund_flow": [],
        "token_infos": [
            {
                "address": "0xc02aaa39b223fe8d0a0e5c4f27ead9083c756cc2",
                "decimals": 18
            },
            {
                "address": "0xeeeeeeeeeeeeeeeeeeeeeeeeeeeeeeeeeeeeeeee",
                "decimals": 18
            }
        ]
    },
    "address_label": {
        "labels": [
            {
                "address": "0x0000000000000000000000000000000000000002",
                "label": "Precompiled"
            },
            {
                "address": "0x0000000000000000000000000000000000000003",
                "label": "Precompiled"
            },
            {
                "address": "0x0000000000000000000000000000000000000004",
                "label": "Precompiled"
            },
            {
                "address": "0xeeeeeeeeeeeeeeeeeeeeeeeeeeeeeeeeeeeeeeee",
                "label": "Ether"
            },
            {
                "address": "0x681c4f8f69cf68852bad092086ffeab31f5b812c",
                "label": "MedianMANAUSD"
            },
            {
                "address": "0x0000000000000000000000000000000000000001",
                "label": "Precompiled"
            }
        ]
    },
    "trace": {
        "accountLabels": null,
        "dataMap": {
            "-1": {
                "invocation": {
                    "address": "0x41c0ccec5de7c71e99d9c29ff4b8c341fa156f0b",
                    "callData": "",
                    "decodedMethod": null,
                    "errorInfo": "",
                    "fromAddress": "",
                    "gasUsed": 0,
                    "id": -1,
                    "methodDecoded": false,
                    "operation": "",
                    "output": "",
                    "revert": false,
                    "revertMessage": "",
                    "selector": "",
                    "status": false,
                    "value": ""
                },
                "nodeType": 0
            },
            "0": {
                "invocation": {
                    "address": "0x681c4f8f69cf68852bad092086ffeab31f5b812c",
                    "callData": "0x00000000000000000000000000000000000000000000000000000000000000a00000000000000000000000000000000000000000000000000000000000000260000000000000000000000000000000000000000000000000000000000000042000000000000000000000000000000000000000000000000000000000000005e000000000000000000000000000000000000000000000000000000000000007a0000000000000000000000000000000000000000000000000000000000000000d0000000000000000000000000000000000000000000000000157b131cf3ab5000000000000000000000000000000000000000000000000000157d570ecf09c0000000000000000000000000000000000000000000000000001582f4606fe220000000000000000000000000000000000000000000000000001584557a3bcdb000000000000000000000000000000000000000000000000000158d0dc05f8320000000000000000000000000000000000000000000000000001593a26cdbc15000000000000000000000000000000000000000000000000000159e8fac46b2300000000000000000000000000000000000000000000000000015a49aa0fc93700000000000000000000000000000000000000000000000000015a49aa0fc93700000000000000000000000000000000000000000000000000015a57d9fca3cd00000000000000000000000000000000000000000000000000015a57d9fca3cd00000000000000000000000000000000000000000000000000015a815e259f6900000000000000000000000000000000000000000000000000015a8c44fea86300000000000000000000000000000000000000000000000000000000000000000d000000000000000000000000000000000000000000000000000000005f395d1e000000000000000000000000000000000000000000000000000000005f395d1c000000000000000000000000000000000000000000000000000000005f395e04000000000000000000000000000000000000000000000000000000005f395e65000000000000000000000000000000000000000000000000000000005f395edb000000000000000000000000000000000000000000000000000000005f395f01000000000000000000000000000000000000000000000000000000005f395f39000000000000000000000000000000000000000000000000000000005f395f40000000000000000000000000000000000000000000000000000000005f395f17000000000000000000000000000000000000000000000000000000005f395f17000000000000000000000000000000000000000000000000000000005f395f11000000000000000000000000000000000000000000000000000000005f395f4e000000000000000000000000000000000000000000000000000000005f395f44000000000000000000000000000000000000000000000000000000000000000d000000000000000000000000000000000000000000000000000000000000001c000000000000000000000000000000000000000000000000000000000000001c000000000000000000000000000000000000000000000000000000000000001c000000000000000000000000000000000000000000000000000000000000001c000000000000000000000000000000000000000000000000000000000000001b000000000000000000000000000000000000000000000000000000000000001b000000000000000000000000000000000000000000000000000000000000001b000000000000000000000000000000000000000000000000000000000000001b000000000000000000000000000000000000000000000000000000000000001b000000000000000000000000000000000000000000000000000000000000001b000000000000000000000000000000000000000000000000000000000000001b000000000000000000000000000000000000000000000000000000000000001c000000000000000000000000000000000000000000000000000000000000001c000000000000000000000000000000000000000000000000000000000000000dd989a23e691b934bd2b83ec8c4717563ccdb7e7e3d49e09cc56b145fc0347f6692fdcf86cd71988b5938c8370c4e2a7ab15484d42db4c35530059418f72137f03f06243efb273950e5309bc2d55cc464d9f2fb3d5e4576bfb8153d229055e927a26e5d54812fa0a385a10f5906454681291816819115f0a44078fbb378e8d283689f1d29d88a322244f3ff5346c57a7a0296dc65ffb486595ec9320658158e574d130f19d7db883e05aa29b363c56e7bd185ed7a5f1b556446d4af03486c8a5921b4364a4e951b785795f1fd922685884556e15ebe66f9fe1f438583fcd5260ac2ef6540b437fd8e285dfffc473e682ee09b9714537d1b33035399d62c751e50f42f8d7cd1a5bd9010b8b8b07b3c38d492d11cb3d6c15646ea893ce87f66f7ba9beb6cfd5b11aff40360e061b21cd9b477d00285febc09b58aa1eebea0d08cd2e407b41c209fe05a31838f15244e6bd3c287b599f02edf0bdc75058da62231582de8f2ec91ed550b3ccbe57fd22c07ab523901b10da55f4a5d879b996dd4e4aba37027c9037a3d2bee3e49044a8f45865597a5f7ed269a3bffa36179078b8d63000000000000000000000000000000000000000000000000000000000000000d6049c0dc00cd72041df0c60b8f370519f49194cd0c3ce7f93eb1a50cbfc71c602fcaa2b1051e7b0590c7ebf8fb6eec1e5c883042ba0a3a7e6057f8f83a1d5a2d3de951675581e04007aa4b3d7f7c9245b3367b2c563f58fc6edda922be5de4b47e0891d2277e70b81e0bc2fc606f0fee3eb6ce1929e537787d5445c1e0b047eb0636b58ad33d9b7346d8ea23edc597fef22a6147e98e8bbe66283bec1c1c14a925fa6e60050c6080c485c52dc38f785f6b4ad8757cfd9daf38f7573c772d6d45735fa161245fbe8d74f93a6c7919b5a695f434ed624a56ae14ee73ce32058e2d5526957a99d6f2a1e823235c928850904973cbd2f9a2e20684fab23ebffc4a843c36489c24c85f30241bfb61a5446c04fa9bc02579ef869cb7334a10aca34a087688a67bc4025d278c8b2ab10c8a2f56ebc08e8bde0fddd106cc6f37f5cfcdd11959c097784e394fe47dc7bb2908c48528c2332a42e0e9a6beca0e3f6101fb772a4acc6eb59ecf207b0fe14014de3b0693457d79ec26e90e4a605adc6851f31a0006d73b49c586d0e73be9897567c840be4aafbd5d03f51d05f88e2cb159f0fe",
                    "decodedMethod": {
                        "callParams": [
                            {
                                "name": "val_",
                                "type": "uint256[]",
                                "value": [
                                    "96,740,744,500,000,000",
                                    "96,780,598,000,000,000",
                                    "96,879,369,800,000,000",
                                    "96,903,634,700,000,000",
                                    "97,057,035,400,000,000",
                                    "97,172,805,300,000,000",
                                    "97,365,030,700,000,000",
                                    "97,471,336,700,000,000",
                                    "97,471,336,700,000,000",
                                    "97,486,935,700,000,000",
                                    "97,486,935,700,000,000",
                                    "97,532,583,300,000,000",
                                    "97,544,569,900,000,000"
                                ]
                            },
                            {
                                "name": "age_",
                                "type": "uint256[]",
                                "value": [
                                    "1,597,594,910",
                                    "1,597,594,908",
                                    "1,597,595,140",
                                    "1,597,595,237",
                                    "1,597,595,355",
                                    "1,597,595,393",
                                    "1,597,595,449",
                                    "1,597,595,456",
                                    "1,597,595,415",
                                    "1,597,595,415",
                                    "1,597,595,409",
                                    "1,597,595,470",
                                    "1,597,595,460"
                                ]
                            },
                            {
                                "name": "v",
                                "type": "uint8[]",
                                "value": [
                                    "28",
                                    "28",
                                    "28",
                                    "28",
                                    "27",
                                    "27",
                                    "27",
                                    "27",
                                    "27",
                                    "27",
                                    "27",
                                    "28",
                                    "28"
                                ]
                            },
                            {
                                "name": "r",
                                "type": "bytes32[]",
                                "value": [
                                    "0xd989a23e691b934bd2b83ec8c4717563ccdb7e7e3d49e09cc56b145fc0347f66",
                                    "0x92fdcf86cd71988b5938c8370c4e2a7ab15484d42db4c35530059418f72137f0",
                                    "0x3f06243efb273950e5309bc2d55cc464d9f2fb3d5e4576bfb8153d229055e927",
                                    "0xa26e5d54812fa0a385a10f5906454681291816819115f0a44078fbb378e8d283",
                                    "0x689f1d29d88a322244f3ff5346c57a7a0296dc65ffb486595ec9320658158e57",
                                    "0x4d130f19d7db883e05aa29b363c56e7bd185ed7a5f1b556446d4af03486c8a59",
                                    "0x21b4364a4e951b785795f1fd922685884556e15ebe66f9fe1f438583fcd5260a",
                                    "0xc2ef6540b437fd8e285dfffc473e682ee09b9714537d1b33035399d62c751e50",
                                    "0xf42f8d7cd1a5bd9010b8b8b07b3c38d492d11cb3d6c15646ea893ce87f66f7ba",
                                    "0x9beb6cfd5b11aff40360e061b21cd9b477d00285febc09b58aa1eebea0d08cd2",
                                    "0xe407b41c209fe05a31838f15244e6bd3c287b599f02edf0bdc75058da6223158",
                                    "0x2de8f2ec91ed550b3ccbe57fd22c07ab523901b10da55f4a5d879b996dd4e4ab",
                                    "0xa37027c9037a3d2bee3e49044a8f45865597a5f7ed269a3bffa36179078b8d63"
                                ]
                            },
                            {
                                "name": "s",
                                "type": "bytes32[]",
                                "value": [
                                    "0x6049c0dc00cd72041df0c60b8f370519f49194cd0c3ce7f93eb1a50cbfc71c60",
                                    "0x2fcaa2b1051e7b0590c7ebf8fb6eec1e5c883042ba0a3a7e6057f8f83a1d5a2d",
                                    "0x3de951675581e04007aa4b3d7f7c9245b3367b2c563f58fc6edda922be5de4b4",
                                    "0x7e0891d2277e70b81e0bc2fc606f0fee3eb6ce1929e537787d5445c1e0b047eb",
                                    "0x0636b58ad33d9b7346d8ea23edc597fef22a6147e98e8bbe66283bec1c1c14a9",
                                    "0x25fa6e60050c6080c485c52dc38f785f6b4ad8757cfd9daf38f7573c772d6d45",
                                    "0x735fa161245fbe8d74f93a6c7919b5a695f434ed624a56ae14ee73ce32058e2d",
                                    "0x5526957a99d6f2a1e823235c928850904973cbd2f9a2e20684fab23ebffc4a84",
                                    "0x3c36489c24c85f30241bfb61a5446c04fa9bc02579ef869cb7334a10aca34a08",
                                    "0x7688a67bc4025d278c8b2ab10c8a2f56ebc08e8bde0fddd106cc6f37f5cfcdd1",
                                    "0x1959c097784e394fe47dc7bb2908c48528c2332a42e0e9a6beca0e3f6101fb77",
                                    "0x2a4acc6eb59ecf207b0fe14014de3b0693457d79ec26e90e4a605adc6851f31a",
                                    "0x0006d73b49c586d0e73be9897567c840be4aafbd5d03f51d05f88e2cb159f0fe"
                                ]
                            }
                        ],
                        "constructorArguments": "",
                        "name": "poke",
                        "returnParams": [],
                        "signature": "poke(uint256[],uint256[],uint8[],bytes32[],bytes32[])"
                    },
                    "errorInfo": "",
                    "fromAddress": "0x41c0ccec5de7c71e99d9c29ff4b8c341fa156f0b",
                    "gasUsed": 129379,
                    "id": 0,
                    "methodDecoded": true,
                    "operation": "CALL",
                    "output": "",
                    "revert": false,
                    "revertMessage": "",
                    "selector": "0x89bbb8b2",
                    "status": true,
                    "value": "0"
                },
                "nodeType": 0
            },
            "1": {
                "invocation": {
                    "address": "0x0000000000000000000000000000000000000001",
                    "callData": "0x82e69e91d82e264a646fd2dccc012cf8df5e3114f17111349a932e46000000000000000000000000000000000000000000000000000000000000001cd989a23e691b934bd2b83ec8c4717563ccdb7e7e3d49e09cc56b145fc0347f666049c0dc00cd72041df0c60b8f370519f49194cd0c3ce7f93eb1a50cbfc71c60",
                    "decodedMethod": {
                        "callParams": [
                            {
                                "name": "hash",
                                "type": "bytes32",
                                "value": "0x9024aa5c82e69e91d82e264a646fd2dccc012cf8df5e3114f17111349a932e46"
                            },
                            {
                                "name": "v",
                                "type": "uint256",
                                "value": "28"
                            },
                            {
                                "name": "r",
                                "type": "bytes32",
                                "value": "0xd989a23e691b934bd2b83ec8c4717563ccdb7e7e3d49e09cc56b145fc0347f66"
                            },
                            {
                                "name": "s",
                                "type": "bytes32",
                                "value": "0x6049c0dc00cd72041df0c60b8f370519f49194cd0c3ce7f93eb1a50cbfc71c60"
                            }
                        ],
                        "constructorArguments": "",
                        "name": "ecrecover",
                        "returnParams": [
                            {
                                "name": "",
                                "type": "address",
                                "value": "0xd94bbe83b4a68940839cd151478852d16b3ef891"
                            }
                        ],
                        "signature": "ecrecover(bytes32,uint256,bytes32,bytes32)"
                    },
                    "errorInfo": "",
                    "fromAddress": "0x681c4f8f69cf68852bad092086ffeab31f5b812c",
                    "gasUsed": 3000,
                    "id": 1,
                    "methodDecoded": true,
                    "operation": "STATICCALL",
                    "output": "0x000000000000000000000000d94bbe83b4a68940839cd151478852d16b3ef891",
                    "revert": false,
                    "revertMessage": "",
                    "selector": "0x9024aa5c",
                    "status": true,
                    "value": "0"
                },
                "nodeType": 0
            },
            "10": {
                "invocation": {
                    "address": "0x0000000000000000000000000000000000000001",
                    "callData": "0xbe580c252b42bfc368d60e937152fb2b1bf6545d3059697f3f4c421b000000000000000000000000000000000000000000000000000000000000001b9beb6cfd5b11aff40360e061b21cd9b477d00285febc09b58aa1eebea0d08cd27688a67bc4025d278c8b2ab10c8a2f56ebc08e8bde0fddd106cc6f37f5cfcdd1",
                    "decodedMethod": {
                        "callParams": [
                            {
                                "name": "hash",
                                "type": "bytes32",
                                "value": "0x210a6d6ebe580c252b42bfc368d60e937152fb2b1bf6545d3059697f3f4c421b"
                            },
                            {
                                "name": "v",
                                "type": "uint256",
                                "value": "27"
                            },
                            {
                                "name": "r",
                                "type": "bytes32",
                                "value": "0x9beb6cfd5b11aff40360e061b21cd9b477d00285febc09b58aa1eebea0d08cd2"
                            },
                            {
                                "name": "s",
                                "type": "bytes32",
                                "value": "0x7688a67bc4025d278c8b2ab10c8a2f56ebc08e8bde0fddd106cc6f37f5cfcdd1"
                            }
                        ],
                        "constructorArguments": "",
                        "name": "ecrecover",
                        "returnParams": [
                            {
                                "name": "",
                                "type": "address",
                                "value": "0xc00584b271f378a0169dd9e5b165c0945b4fe498"
                            }
                        ],
                        "signature": "ecrecover(bytes32,uint256,bytes32,bytes32)"
                    },
                    "errorInfo": "",
                    "fromAddress": "0x681c4f8f69cf68852bad092086ffeab31f5b812c",
                    "gasUsed": 3000,
                    "id": 10,
                    "methodDecoded": true,
                    "operation": "STATICCALL",
                    "output": "0x000000000000000000000000c00584b271f378a0169dd9e5b165c0945b4fe498",
                    "revert": false,
                    "revertMessage": "",
                    "selector": "0x210a6d6e",
                    "status": true,
                    "value": "0"
                },
                "nodeType": 0
            },
            "11": {
                "invocation": {
                    "address": "0x0000000000000000000000000000000000000001",
                    "callData": "0x48e594d95b8c48e1be437fb59d36a9a605f668f40afb0f1717d96929000000000000000000000000000000000000000000000000000000000000001be407b41c209fe05a31838f15244e6bd3c287b599f02edf0bdc75058da62231581959c097784e394fe47dc7bb2908c48528c2332a42e0e9a6beca0e3f6101fb77",
                    "decodedMethod": {
                        "callParams": [
                            {
                                "name": "hash",
                                "type": "bytes32",
                                "value": "0xbbff832348e594d95b8c48e1be437fb59d36a9a605f668f40afb0f1717d96929"
                            },
                            {
                                "name": "v",
                                "type": "uint256",
                                "value": "27"
                            },
                            {
                                "name": "r",
                                "type": "bytes32",
                                "value": "0xe407b41c209fe05a31838f15244e6bd3c287b599f02edf0bdc75058da6223158"
                            },
                            {
                                "name": "s",
                                "type": "bytes32",
                                "value": "0x1959c097784e394fe47dc7bb2908c48528c2332a42e0e9a6beca0e3f6101fb77"
                            }
                        ],
                        "constructorArguments": "",
                        "name": "ecrecover",
                        "returnParams": [
                            {
                                "name": "",
                                "type": "address",
                                "value": "0xc9508e9e3ccf319f5333a5b8c825418abec688ba"
                            }
                        ],
                        "signature": "ecrecover(bytes32,uint256,bytes32,bytes32)"
                    },
                    "errorInfo": "",
                    "fromAddress": "0x681c4f8f69cf68852bad092086ffeab31f5b812c",
                    "gasUsed": 3000,
                    "id": 11,
                    "methodDecoded": true,
                    "operation": "STATICCALL",
                    "output": "0x000000000000000000000000c9508e9e3ccf319f5333a5b8c825418abec688ba",
                    "revert": false,
                    "revertMessage": "",
                    "selector": "0xbbff8323",
                    "status": true,
                    "value": "0"
                },
                "nodeType": 0
            },
            "12": {
                "invocation": {
                    "address": "0x0000000000000000000000000000000000000001",
                    "callData": "0x21bb735b2230856ebc03e9851299f9e426149976fe20eb6edf0fe79b000000000000000000000000000000000000000000000000000000000000001c2de8f2ec91ed550b3ccbe57fd22c07ab523901b10da55f4a5d879b996dd4e4ab2a4acc6eb59ecf207b0fe14014de3b0693457d79ec26e90e4a605adc6851f31a",
                    "decodedMethod": {
                        "callParams": [
                            {
                                "name": "hash",
                                "type": "bytes32",
                                "value": "0xdc798dbb21bb735b2230856ebc03e9851299f9e426149976fe20eb6edf0fe79b"
                            },
                            {
                                "name": "v",
                                "type": "uint256",
                                "value": "28"
                            },
                            {
                                "name": "r",
                                "type": "bytes32",
                                "value": "0x2de8f2ec91ed550b3ccbe57fd22c07ab523901b10da55f4a5d879b996dd4e4ab"
                            },
                            {
                                "name": "s",
                                "type": "bytes32",
                                "value": "0x2a4acc6eb59ecf207b0fe14014de3b0693457d79ec26e90e4a605adc6851f31a"
                            }
                        ],
                        "constructorArguments": "",
                        "name": "ecrecover",
                        "returnParams": [
                            {
                                "name": "",
                                "type": "address",
                                "value": "0x4b0e327c08e23dd08cb87ec994915a5375619aa2"
                            }
                        ],
                        "signature": "ecrecover(bytes32,uint256,bytes32,bytes32)"
                    },
                    "errorInfo": "",
                    "fromAddress": "0x681c4f8f69cf68852bad092086ffeab31f5b812c",
                    "gasUsed": 3000,
                    "id": 12,
                    "methodDecoded": true,
                    "operation": "STATICCALL",
                    "output": "0x0000000000000000000000004b0e327c08e23dd08cb87ec994915a5375619aa2",
                    "revert": false,
                    "revertMessage": "",
                    "selector": "0xdc798dbb",
                    "status": true,
                    "value": "0"
                },
                "nodeType": 0
            },
            "13": {
                "invocation": {
                    "address": "0x0000000000000000000000000000000000000001",
                    "callData": "0xd61df37c9b7450244752dcd2f121fbb1093ca07c429f2b2f0b3a88fe000000000000000000000000000000000000000000000000000000000000001ca37027c9037a3d2bee3e49044a8f45865597a5f7ed269a3bffa36179078b8d630006d73b49c586d0e73be9897567c840be4aafbd5d03f51d05f88e2cb159f0fe",
                    "decodedMethod": {
                        "callParams": [
                            {
                                "name": "hash",
                                "type": "bytes32",
                                "value": "0x41661d1ed61df37c9b7450244752dcd2f121fbb1093ca07c429f2b2f0b3a88fe"
                            },
                            {
                                "name": "v",
                                "type": "uint256",
                                "value": "28"
                            },
                            {
                                "name": "r",
                                "type": "bytes32",
                                "value": "0xa37027c9037a3d2bee3e49044a8f45865597a5f7ed269a3bffa36179078b8d63"
                            },
                            {
                                "name": "s",
                                "type": "bytes32",
                                "value": "0x0006d73b49c586d0e73be9897567c840be4aafbd5d03f51d05f88e2cb159f0fe"
                            }
                        ],
                        "constructorArguments": "",
                        "name": "ecrecover",
                        "returnParams": [
                            {
                                "name": "",
                                "type": "address",
                                "value": "0x8afbd9c3d794ed8df903b3468f4c4ea85be953fb"
                            }
                        ],
                        "signature": "ecrecover(bytes32,uint256,bytes32,bytes32)"
                    },
                    "errorInfo": "",
                    "fromAddress": "0x681c4f8f69cf68852bad092086ffeab31f5b812c",
                    "gasUsed": 3000,
                    "id": 13,
                    "methodDecoded": true,
                    "operation": "STATICCALL",
                    "output": "0x0000000000000000000000008afbd9c3d794ed8df903b3468f4c4ea85be953fb",
                    "revert": false,
                    "revertMessage": "",
                    "selector": "0x41661d1e",
                    "status": true,
                    "value": "0"
                },
                "nodeType": 0
            },
            "14": {
                "event": {
                    "contract": "0x681c4f8f69cf68852bad092086ffeab31f5b812c",
                    "decodedLog": {
                        "name": "LogMedianPrice",
                        "params": [
                            {
                                "name": "val",
                                "type": "uint256",
                                "value": "97,365,030,700,000,000"
                            },
                            {
                                "name": "age",
                                "type": "uint256",
                                "value": "1,597,595,554"
                            }
                        ],
                        "signature": "LogMedianPrice(uint256,uint256)"
                    },
                    "id": 14,
                    "logData": "0x0000000000000000000000000000000000000000000000000159e8fac46b2300000000000000000000000000000000000000000000000000000000005f395fa2",
                    "logDecoded": true,
                    "operation": "EVENT",
                    "revert": false,
                    "status": true,
                    "topics": [
                        "0xb78ebc573f1f889ca9e1e0fb62c843c836f3d3a2e1f43ef62940e9b894f4ea4c"
                    ]
                },
                "nodeType": 1
            },
            "2": {
                "invocation": {
                    "address": "0x0000000000000000000000000000000000000001",
                    "callData": "0x2b3922f20c2f0c7937f571f105717133a9ff6ca0180cb4ff9bdda08e000000000000000000000000000000000000000000000000000000000000001c92fdcf86cd71988b5938c8370c4e2a7ab15484d42db4c35530059418f72137f02fcaa2b1051e7b0590c7ebf8fb6eec1e5c883042ba0a3a7e6057f8f83a1d5a2d",
                    "decodedMethod": {
                        "callParams": [
                            {
                                "name": "hash",
                                "type": "bytes32",
                                "value": "0x2227a20b2b3922f20c2f0c7937f571f105717133a9ff6ca0180cb4ff9bdda08e"
                            },
                            {
                                "name": "v",
                                "type": "uint256",
                                "value": "28"
                            },
                            {
                                "name": "r",
                                "type": "bytes32",
                                "value": "0x92fdcf86cd71988b5938c8370c4e2a7ab15484d42db4c35530059418f72137f0"
                            },
                            {
                                "name": "s",
                                "type": "bytes32",
                                "value": "0x2fcaa2b1051e7b0590c7ebf8fb6eec1e5c883042ba0a3a7e6057f8f83a1d5a2d"
                            }
                        ],
                        "constructorArguments": "",
                        "name": "ecrecover",
                        "returnParams": [
                            {
                                "name": "",
                                "type": "address",
                                "value": "0xfbaf3a7eb4ec2962bd1847687e56aaee855f5d00"
                            }
                        ],
                        "signature": "ecrecover(bytes32,uint256,bytes32,bytes32)"
                    },
                    "errorInfo": "",
                    "fromAddress": "0x681c4f8f69cf68852bad092086ffeab31f5b812c",
                    "gasUsed": 3000,
                    "id": 2,
                    "methodDecoded": true,
                    "operation": "STATICCALL",
                    "output": "0x000000000000000000000000fbaf3a7eb4ec2962bd1847687e56aaee855f5d00",
                    "revert": false,
                    "revertMessage": "",
                    "selector": "0x2227a20b",
                    "status": true,
                    "value": "0"
                },
                "nodeType": 0
            },
            "3": {
                "invocation": {
                    "address": "0x0000000000000000000000000000000000000001",
                    "callData": "0xaf79333f04e43e368055e5610db871a8080b799b0f36d3dd83c9a165000000000000000000000000000000000000000000000000000000000000001c3f06243efb273950e5309bc2d55cc464d9f2fb3d5e4576bfb8153d229055e9273de951675581e04007aa4b3d7f7c9245b3367b2c563f58fc6edda922be5de4b4",
                    "decodedMethod": {
                        "callParams": [
                            {
                                "name": "hash",
                                "type": "bytes32",
                                "value": "0x5567b2a2af79333f04e43e368055e5610db871a8080b799b0f36d3dd83c9a165"
                            },
                            {
                                "name": "v",
                                "type": "uint256",
                                "value": "28"
                            },
                            {
                                "name": "r",
                                "type": "bytes32",
                                "value": "0x3f06243efb273950e5309bc2d55cc464d9f2fb3d5e4576bfb8153d229055e927"
                            },
                            {
                                "name": "s",
                                "type": "bytes32",
                                "value": "0x3de951675581e04007aa4b3d7f7c9245b3367b2c563f58fc6edda922be5de4b4"
                            }
                        ],
                        "constructorArguments": "",
                        "name": "ecrecover",
                        "returnParams": [
                            {
                                "name": "",
                                "type": "address",
                                "value": "0x16655369eb59f3e1cafbcfac6d3dd4001328f747"
                            }
                        ],
                        "signature": "ecrecover(bytes32,uint256,bytes32,bytes32)"
                    },
                    "errorInfo": "",
                    "fromAddress": "0x681c4f8f69cf68852bad092086ffeab31f5b812c",
                    "gasUsed": 3000,
                    "id": 3,
                    "methodDecoded": true,
                    "operation": "STATICCALL",
                    "output": "0x00000000000000000000000016655369eb59f3e1cafbcfac6d3dd4001328f747",
                    "revert": false,
                    "revertMessage": "",
                    "selector": "0x5567b2a2",
                    "status": true,
                    "value": "0"
                },
                "nodeType": 0
            },
            "4": {
                "invocation": {
                    "address": "0x0000000000000000000000000000000000000001",
                    "callData": "0x01b284fcf605083cf8105621d134c841e940d0e8d51c05d1ca483bb0000000000000000000000000000000000000000000000000000000000000001ca26e5d54812fa0a385a10f5906454681291816819115f0a44078fbb378e8d2837e0891d2277e70b81e0bc2fc606f0fee3eb6ce1929e537787d5445c1e0b047eb",
                    "decodedMethod": {
                        "callParams": [
                            {
                                "name": "hash",
                                "type": "bytes32",
                                "value": "0x24886e3001b284fcf605083cf8105621d134c841e940d0e8d51c05d1ca483bb0"
                            },
                            {
                                "name": "v",
                                "type": "uint256",
                                "value": "28"
                            },
                            {
                                "name": "r",
                                "type": "bytes32",
                                "value": "0xa26e5d54812fa0a385a10f5906454681291816819115f0a44078fbb378e8d283"
                            },
                            {
                                "name": "s",
                                "type": "bytes32",
                                "value": "0x7e0891d2277e70b81e0bc2fc606f0fee3eb6ce1929e537787d5445c1e0b047eb"
                            }
                        ],
                        "constructorArguments": "",
                        "name": "ecrecover",
                        "returnParams": [
                            {
                                "name": "",
                                "type": "address",
                                "value": "0x60da93d9903cb7d3ed450d4f81d402f7c4f71dd9"
                            }
                        ],
                        "signature": "ecrecover(bytes32,uint256,bytes32,bytes32)"
                    },
                    "errorInfo": "",
                    "fromAddress": "0x681c4f8f69cf68852bad092086ffeab31f5b812c",
                    "gasUsed": 3000,
                    "id": 4,
                    "methodDecoded": true,
                    "operation": "STATICCALL",
                    "output": "0x00000000000000000000000060da93d9903cb7d3ed450d4f81d402f7c4f71dd9",
                    "revert": false,
                    "revertMessage": "",
                    "selector": "0x24886e30",
                    "status": true,
                    "value": "0"
                },
                "nodeType": 0
            },
            "5": {
                "invocation": {
                    "address": "0x0000000000000000000000000000000000000001",
                    "callData": "0xb9f64abd58ef7766e1d0ff7a6148a32a0cb6d9112c51cf17cc8e5a48000000000000000000000000000000000000000000000000000000000000001b689f1d29d88a322244f3ff5346c57a7a0296dc65ffb486595ec9320658158e570636b58ad33d9b7346d8ea23edc597fef22a6147e98e8bbe66283bec1c1c14a9",
                    "decodedMethod": {
                        "callParams": [
                            {
                                "name": "hash",
                                "type": "bytes32",
                                "value": "0x2a409d20b9f64abd58ef7766e1d0ff7a6148a32a0cb6d9112c51cf17cc8e5a48"
                            },
                            {
                                "name": "v",
                                "type": "uint256",
                                "value": "27"
                            },
                            {
                                "name": "r",
                                "type": "bytes32",
                                "value": "0x689f1d29d88a322244f3ff5346c57a7a0296dc65ffb486595ec9320658158e57"
                            },
                            {
                                "name": "s",
                                "type": "bytes32",
                                "value": "0x0636b58ad33d9b7346d8ea23edc597fef22a6147e98e8bbe66283bec1c1c14a9"
                            }
                        ],
                        "constructorArguments": "",
                        "name": "ecrecover",
                        "returnParams": [
                            {
                                "name": "",
                                "type": "address",
                                "value": "0xfeed00aa3f0845afe52df9ecfe372549b74c69d2"
                            }
                        ],
                        "signature": "ecrecover(bytes32,uint256,bytes32,bytes32)"
                    },
                    "errorInfo": "",
                    "fromAddress": "0x681c4f8f69cf68852bad092086ffeab31f5b812c",
                    "gasUsed": 3000,
                    "id": 5,
                    "methodDecoded": true,
                    "operation": "STATICCALL",
                    "output": "0x000000000000000000000000feed00aa3f0845afe52df9ecfe372549b74c69d2",
                    "revert": false,
                    "revertMessage": "",
                    "selector": "0x2a409d20",
                    "status": true,
                    "value": "0"
                },
                "nodeType": 0
            },
            "6": {
                "invocation": {
                    "address": "0x0000000000000000000000000000000000000001",
                    "callData": "0x976ebf49449a1bd978b8d1e3f60479cf24093be96bba8792cb5cd593000000000000000000000000000000000000000000000000000000000000001b4d130f19d7db883e05aa29b363c56e7bd185ed7a5f1b556446d4af03486c8a5925fa6e60050c6080c485c52dc38f785f6b4ad8757cfd9daf38f7573c772d6d45",
                    "decodedMethod": {
                        "callParams": [
                            {
                                "name": "hash",
                                "type": "bytes32",
                                "value": "0x0154f26d976ebf49449a1bd978b8d1e3f60479cf24093be96bba8792cb5cd593"
                            },
                            {
                                "name": "v",
                                "type": "uint256",
                                "value": "27"
                            },
                            {
                                "name": "r",
                                "type": "bytes32",
                                "value": "0x4d130f19d7db883e05aa29b363c56e7bd185ed7a5f1b556446d4af03486c8a59"
                            },
                            {
                                "name": "s",
                                "type": "bytes32",
                                "value": "0x25fa6e60050c6080c485c52dc38f785f6b4ad8757cfd9daf38f7573c772d6d45"
                            }
                        ],
                        "constructorArguments": "",
                        "name": "ecrecover",
                        "returnParams": [
                            {
                                "name": "",
                                "type": "address",
                                "value": "0x238a3f4c923b75f3ef8ca3473a503073f0530801"
                            }
                        ],
                        "signature": "ecrecover(bytes32,uint256,bytes32,bytes32)"
                    },
                    "errorInfo": "",
                    "fromAddress": "0x681c4f8f69cf68852bad092086ffeab31f5b812c",
                    "gasUsed": 3000,
                    "id": 6,
                    "methodDecoded": true,
                    "operation": "STATICCALL",
                    "output": "0x000000000000000000000000238a3f4c923b75f3ef8ca3473a503073f0530801",
                    "revert": false,
                    "revertMessage": "",
                    "selector": "0x0154f26d",
                    "status": true,
                    "value": "0"
                },
                "nodeType": 0
            },
            "7": {
                "invocation": {
                    "address": "0x0000000000000000000000000000000000000001",
                    "callData": "0x7bff9883eb5bc621bab26495eae5e5572fa5a9707b71e35103b7a60a000000000000000000000000000000000000000000000000000000000000001b21b4364a4e951b785795f1fd922685884556e15ebe66f9fe1f438583fcd5260a735fa161245fbe8d74f93a6c7919b5a695f434ed624a56ae14ee73ce32058e2d",
                    "decodedMethod": {
                        "callParams": [
                            {
                                "name": "hash",
                                "type": "bytes32",
                                "value": "0x512dd9607bff9883eb5bc621bab26495eae5e5572fa5a9707b71e35103b7a60a"
                            },
                            {
                                "name": "v",
                                "type": "uint256",
                                "value": "27"
                            },
                            {
                                "name": "r",
                                "type": "bytes32",
                                "value": "0x21b4364a4e951b785795f1fd922685884556e15ebe66f9fe1f438583fcd5260a"
                            },
                            {
                                "name": "s",
                                "type": "bytes32",
                                "value": "0x735fa161245fbe8d74f93a6c7919b5a695f434ed624a56ae14ee73ce32058e2d"
                            }
                        ],
                        "constructorArguments": "",
                        "name": "ecrecover",
                        "returnParams": [
                            {
                                "name": "",
                                "type": "address",
                                "value": "0xd27fa2361bc2cfb9a591fb289244c538e190684b"
                            }
                        ],
                        "signature": "ecrecover(bytes32,uint256,bytes32,bytes32)"
                    },
                    "errorInfo": "",
                    "fromAddress": "0x681c4f8f69cf68852bad092086ffeab31f5b812c",
                    "gasUsed": 3000,
                    "id": 7,
                    "methodDecoded": true,
                    "operation": "STATICCALL",
                    "output": "0x000000000000000000000000d27fa2361bc2cfb9a591fb289244c538e190684b",
                    "revert": false,
                    "revertMessage": "",
                    "selector": "0x512dd960",
                    "status": true,
                    "value": "0"
                },
                "nodeType": 0
            },
            "8": {
                "invocation": {
                    "address": "0x0000000000000000000000000000000000000001",
                    "callData": "0xb54185457187f4f7ec79e369d95598abd7bbb5b5f5593b2919345b77000000000000000000000000000000000000000000000000000000000000001bc2ef6540b437fd8e285dfffc473e682ee09b9714537d1b33035399d62c751e505526957a99d6f2a1e823235c928850904973cbd2f9a2e20684fab23ebffc4a84",
                    "decodedMethod": {
                        "callParams": [
                            {
                                "name": "hash",
                                "type": "bytes32",
                                "value": "0x244e4c80b54185457187f4f7ec79e369d95598abd7bbb5b5f5593b2919345b77"
                            },
                            {
                                "name": "v",
                                "type": "uint256",
                                "value": "27"
                            },
                            {
                                "name": "r",
                                "type": "bytes32",
                                "value": "0xc2ef6540b437fd8e285dfffc473e682ee09b9714537d1b33035399d62c751e50"
                            },
                            {
                                "name": "s",
                                "type": "bytes32",
                                "value": "0x5526957a99d6f2a1e823235c928850904973cbd2f9a2e20684fab23ebffc4a84"
                            }
                        ],
                        "constructorArguments": "",
                        "name": "ecrecover",
                        "returnParams": [
                            {
                                "name": "",
                                "type": "address",
                                "value": "0xe6367a7da2b20ecb94a25ef06f3b551bab2682e6"
                            }
                        ],
                        "signature": "ecrecover(bytes32,uint256,bytes32,bytes32)"
                    },
                    "errorInfo": "",
                    "fromAddress": "0x681c4f8f69cf68852bad092086ffeab31f5b812c",
                    "gasUsed": 3000,
                    "id": 8,
                    "methodDecoded": true,
                    "operation": "STATICCALL",
                    "output": "0x000000000000000000000000e6367a7da2b20ecb94a25ef06f3b551bab2682e6",
                    "revert": false,
                    "revertMessage": "",
                    "selector": "0x244e4c80",
                    "status": true,
                    "value": "0"
                },
                "nodeType": 0
            },
            "9": {
                "invocation": {
                    "address": "0x0000000000000000000000000000000000000001",
                    "callData": "0x1529a1d694888184aeec49b0ffae36f77abef731279ee24827e9330c000000000000000000000000000000000000000000000000000000000000001bf42f8d7cd1a5bd9010b8b8b07b3c38d492d11cb3d6c15646ea893ce87f66f7ba3c36489c24c85f30241bfb61a5446c04fa9bc02579ef869cb7334a10aca34a08",
                    "decodedMethod": {
                        "callParams": [
                            {
                                "name": "hash",
                                "type": "bytes32",
                                "value": "0x1655e9f91529a1d694888184aeec49b0ffae36f77abef731279ee24827e9330c"
                            },
                            {
                                "name": "v",
                                "type": "uint256",
                                "value": "27"
                            },
                            {
                                "name": "r",
                                "type": "bytes32",
                                "value": "0xf42f8d7cd1a5bd9010b8b8b07b3c38d492d11cb3d6c15646ea893ce87f66f7ba"
                            },
                            {
                                "name": "s",
                                "type": "bytes32",
                                "value": "0x3c36489c24c85f30241bfb61a5446c04fa9bc02579ef869cb7334a10aca34a08"
                            }
                        ],
                        "constructorArguments": "",
                        "name": "ecrecover",
                        "returnParams": [
                            {
                                "name": "",
                                "type": "address",
                                "value": "0x4f95d9b4d842b2e2b1d1ac3f2cf548b93fd77c67"
                            }
                        ],
                        "signature": "ecrecover(bytes32,uint256,bytes32,bytes32)"
                    },
                    "errorInfo": "",
                    "fromAddress": "0x681c4f8f69cf68852bad092086ffeab31f5b812c",
                    "gasUsed": 3000,
                    "id": 9,
                    "methodDecoded": true,
                    "operation": "STATICCALL",
                    "output": "0x0000000000000000000000004f95d9b4d842b2e2b1d1ac3f2cf548b93fd77c67",
                    "revert": false,
                    "revertMessage": "",
                    "selector": "0x1655e9f9",
                    "status": true,
                    "value": "0"
                },
                "nodeType": 0
            }
        },
        "gasFlame": [
            {
                "children": [
                    {
                        "children": [
                            {
                                "children": [],
                                "depth": 0,
                                "name": "Initial Gas",
                                "value": 42664
                            },
                            {
                                "children": [
                                    {
                                        "children": [],
                                        "depth": 1,
                                        "name": "ecrecover",
                                        "value": 3000
                                    },
                                    {
                                        "children": [],
                                        "depth": 1,
                                        "name": "ecrecover",
                                        "value": 3000
                                    },
                                    {
                                        "children": [],
                                        "depth": 1,
                                        "name": "ecrecover",
                                        "value": 3000
                                    },
                                    {
                                        "children": [],
                                        "depth": 1,
                                        "name": "ecrecover",
                                        "value": 3000
                                    },
                                    {
                                        "children": [],
                                        "depth": 1,
                                        "name": "ecrecover",
                                        "value": 3000
                                    },
                                    {
                                        "children": [],
                                        "depth": 1,
                                        "name": "ecrecover",
                                        "value": 3000
                                    },
                                    {
                                        "children": [],
                                        "depth": 1,
                                        "name": "ecrecover",
                                        "value": 3000
                                    },
                                    {
                                        "children": [],
                                        "depth": 1,
                                        "name": "ecrecover",
                                        "value": 3000
                                    },
                                    {
                                        "children": [],
                                        "depth": 1,
                                        "name": "ecrecover",
                                        "value": 3000
                                    },
                                    {
                                        "children": [],
                                        "depth": 1,
                                        "name": "ecrecover",
                                        "value": 3000
                                    },
                                    {
                                        "children": [],
                                        "depth": 1,
                                        "name": "ecrecover",
                                        "value": 3000
                                    },
                                    {
                                        "children": [],
                                        "depth": 1,
                                        "name": "ecrecover",
                                        "value": 3000
                                    },
                                    {
                                        "children": [],
                                        "depth": 1,
                                        "name": "ecrecover",
                                        "value": 3000
                                    }
                                ],
                                "depth": 0,
                                "name": "Executed Gas",
                                "value": 86715
                            }
                        ],
                        "depth": -1,
                        "name": "Actual Gas Used",
                        "value": 129379
                    },
                    {
                        "children": [],
                        "depth": -1,
                        "name": "Refunded Gas",
                        "value": 0
                    }
                ],
                "depth": -2,
                "name": "Total Gas",
                "value": 129379
            }
        ],
        "isConfirmed": true,
        "mainTrace": [
            {
                "children": [
                    {
                        "children": [
                            {
                                "children": [],
                                "depth": 1,
                                "id": 1,
                                "order": 1
                            },
                            {
                                "children": [],
                                "depth": 1,
                                "id": 2,
                                "order": 2
                            },
                            {
                                "children": [],
                                "depth": 1,
                                "id": 3,
                                "order": 3
                            },
                            {
                                "children": [],
                                "depth": 1,
                                "id": 4,
                                "order": 4
                            },
                            {
                                "children": [],
                                "depth": 1,
                                "id": 5,
                                "order": 5
                            },
                            {
                                "children": [],
                                "depth": 1,
                                "id": 6,
                                "order": 6
                            },
                            {
                                "children": [],
                                "depth": 1,
                                "id": 7,
                                "order": 7
                            },
                            {
                                "children": [],
                                "depth": 1,
                                "id": 8,
                                "order": 8
                            },
                            {
                                "children": [],
                                "depth": 1,
                                "id": 9,
                                "order": 9
                            },
                            {
                                "children": [],
                                "depth": 1,
                                "id": 10,
                                "order": 10
                            },
                            {
                                "children": [],
                                "depth": 1,
                                "id": 11,
                                "order": 11
                            },
                            {
                                "children": [],
                                "depth": 1,
                                "id": 12,
                                "order": 12
                            },
                            {
                                "children": [],
                                "depth": 1,
                                "id": 13,
                                "order": 13
                            },
                            {
                                "children": [],
                                "depth": 1,
                                "id": 14,
                                "order": 14
                            }
                        ],
                        "depth": 0,
                        "id": 0,
                        "order": 0
                    }
                ],
                "depth": -1,
                "id": -1,
                "order": -1
            }
        ],
        "mainTraceNodeCount": 15,
        "parentIdMap": {
            "0": -1,
            "1": 0,
            "10": 0,
            "11": 0,
            "12": 0,
            "13": 0,
            "14": 0,
            "2": 0,
            "3": 0,
            "4": 0,
            "5": 0,
            "6": 0,
            "7": 0,
            "8": 0,
            "9": 0
        },
        "tidyTrace": [
            {
                "children": [
                    {
                        "children": [
                            {
                                "children": [],
                                "depth": 1,
                                "id": 14,
                                "order": 14
                            }
                        ],
                        "depth": 0,
                        "id": 0,
                        "order": 0
                    }
                ],
                "depth": -1,
                "id": -1,
                "order": -1
            }
        ],
        "tidyTraceNodeCount": 2
    },
    "state_change": {
        "stateChanges": [
            {
                "address": "0x681c4f8f69cf68852bad092086ffeab31f5b812c",
                "erc": "",
                "slots": [
                    {
                        "current": "0x0000000000000000000000005f395fa200000000000000000159e8fac46b2300",
                        "key": "0x0000000000000000000000000000000000000000000000000000000000000001",
                        "prev": "0x0000000000000000000000005f393f2500000000000000000155cd84d1f1de00"
                    }
                ],
                "storageVariables": [
                    {
                        "name": "val",
                        "type": "uint128",
                        "value": {
                            "current": "97365030700000000",
                            "prev": "96208937400000000",
                            "typeTag": 1
                        }
                    },
                    {
                        "name": "age",
                        "type": "uint32",
                        "value": {
                            "current": "1597595554",
                            "prev": "1597587237",
                            "typeTag": 1
                        }
                    }
                ]
            }
        ]
    }
}