{
    "balance_change": {
        "balanceChanges": [
            {
                "account": "0x599814467c8acbd77b761702f741325af5018a1f",
                "assets": [
                    {
                        "address": "0x912656188616e0184e3181f019022990a63280b1",
                        "amount": "725.81670486",
                        "iconUrl": "",
                        "isERC1155": false,
                        "isERC721": false,
                        "sign": false,
                        "value": ""
                    }
                ]
            },
            {
                "account": "0x826fe91c9e3064a13205a2a2c5a0474d5025e9f7",
                "assets": [
                    {
                        "address": "0x912656188616e0184e3181f019022990a63280b1",
                        "amount": "725.81670486",
                        "iconUrl": "",
                        "isERC1155": false,
                        "isERC721": false,
                        "sign": true,
                        "value": ""
                    }
                ]
            }
        ]
    },
    "profile": {
        "basic_info": {
            "baseFee": "",
            "blockNumber": 10264291,
            "callData": "0xa9059cbb000000000000000000000000826fe91c9e3064a13205a2a2c5a0474d5025e9f700000000000000000000000000000000000000000000000000000010e6346656",
            "debugEnable": true,
            "errorInfo": "",
            "eventCount": 1,
            "feeRecipient": "0xea674fdde714fd979de3edf0f56aa9716b898ec8",
            "formatValue": "0",
            "gasLimit": 240000,
            "gasPrice": "36",
            "gasUsed": 51987,
            "intTxnCount": 0,
            "internalRevert": false,
            "internalRevertMessage": "",
            "isContractCreation": false,
            "isFlashloan": false,
            "maxFee": "",
            "nonce": 27936,
            "overwritedBlockNumber": -1,
            "priorityFee": "",
            "receiver": "0x912656188616e0184e3181f019022990a63280b1",
            "revertMessage": "",
            "sender": "0x599814467c8acbd77b761702f741325af5018a1f",
            "simulationEnable": true,
            "sourceTxnHash": "0x7ea28dfe16c319de614cb451f754a5320888b651840d40a863d86c2e4c84614e",
            "status": true,
            "timestamp": "2020-06-14T14:03:03Z",
            "transactionFee": "0.001871532",
            "txnHash": "0x7ea28dfe16c319de614cb451f754a5320888b651840d40a863d86c2e4c84614e",
            "txnIndex": 50,
            "type": 0,
            "value": "0"
        },
        "fund_flow": [
            {
                "amount": "725.81670486",
                "from": "0x599814467c8acbd77b761702f741325af5018a1f",
                "id": 1,
                "isERC1155": false,
                "isERC721": false,
                "isReverted": false,
                "order": 1,
                "to": "0x826fe91c9e3064a13205a2a2c5a0474d5025e9f7",
                "token": "0x912656188616e0184e3181f019022990a63280b1"
            }
        ],
        "token_infos": [
            {
                "address": "0x912656188616e0184e3181f019022990a63280b1",
                "decimals": 8
            },
            {
                "address": "0xc02aaa39b223fe8d0a0e5c4f27ead9083c756cc2",
                "decimals": 18
            },
            {
                "address": "0xeeeeeeeeeeeeeeeeeeeeeeeeeeeeeeeeeeeeeeee",
                "decimals": 18
            }
        ]
    },
    "address_label": {
        "labels": [
            {
                "address": "0xeeeeeeeeeeeeeeeeeeeeeeeeeeeeeeeeeeeeeeee",
                "label": "Ether"
            },
            {
                "address": "0x912656188616e0184e3181f019022990a63280b1",
                "label": "POCC (POCC)"
            },
            {
                "address": "0x0000000000000000000000000000000000000001",
                "label": "Precompiled"
            },
            {
                "address": "0x0000000000000000000000000000000000000002",
                "label": "Precompiled"
            },
            {
                "address": "0x0000000000000000000000000000000000000003",
                "label": "Precompiled"
            },
            {
                "address": "0x0000000000000000000000000000000000000004",
                "label": "Precompiled"
            }
        ]
    },
    "trace": {
        "accountLabels": null,
        "dataMap": {
            "-1": {
                "invocation": {
                    "address": "0x599814467c8acbd77b761702f741325af5018a1f",
                    "callData": "",
                    "decodedMethod": null,
                    "errorInfo": "",
                    "fromAddress": "",
                    "gasUsed": 0,
                    "id": -1,
                    "methodDecoded": false,
                    "operation": "",
                    "output": "",
                    "revert": false,
                    "revertMessage": "",
                    "selector": "",
                    "status": false,
                    "value": ""
                },
                "nodeType": 0
            },
            "0": {
                "invocation": {
                    "address": "0x912656188616e0184e3181f019022990a63280b1",
                    "callData": "0x000000000000000000000000826fe91c9e3064a13205a2a2c5a0474d5025e9f700000000000000000000000000000000000000000000000000000010e6346656",
                    "decodedMethod": {
                        "callParams": [
                            {
                                "name": "receiver",
                                "type": "address",
                                "value": "0x826fe91c9e3064a13205a2a2c5a0474d5025e9f7"
                            },
                            {
                                "decimalAvailable": true,
                                "name": "numTokens",
                                "type": "uint256",
                                "value": "72,581,670,486"
                            }
                        ],
                        "constructorArguments": "",
                        "name": "transfer",
                        "returnParams": [
                            {
                                "name": "",
                                "type": "bool",
                                "value": true
                            }
                        ],
                        "signature": "transfer(address,uint256)"
                    },
                    "errorInfo": "",
                    "fromAddress": "0x599814467c8acbd77b761702f741325af5018a1f",
                    "gasUsed": 51987,
                    "id": 0,
                    "methodDecoded": true,
                    "operation": "CALL",
                    "output": "0x0000000000000000000000000000000000000000000000000000000000000001",
                    "revert": false,
                    "revertMessage": "",
                    "selector": "0xa9059cbb",
                    "status": true,
                    "value": "0"
                },
                "nodeType": 0
            },
            "1": {
                "event": {
                    "contract": "0x912656188616e0184e3181f019022990a63280b1",
                    "decodedLog": {
                        "name": "Transfer",
                        "params": [
                            {
                                "name": "from",
                                "type": "address",
                                "value": "0x599814467c8acbd77b761702f741325af5018a1f"
                            },
                            {
                                "name": "to",
                                "type": "address",
                                "value": "0x826fe91c9e3064a13205a2a2c5a0474d5025e9f7"
                            },
                            {
                                "decimalAvailable": true,
                                "name": "tokens",
                                "type": "uint256",
                                "value": "72,581,670,486"
                            }
                        ],
                        "signature": "Transfer(address,address,uint256)"
                    },
                    "id": 1,
                    "logData": "0x00000000000000000000000000000000000000000000000000000010e6346656",
                    "logDecoded": true,
                    "operation": "EVENT",
                    "revert": false,
                    "status": true,
                    "topics": [
                        "0xddf252ad1be2c89b69c2b068fc378daa952ba7f163c4a11628f55a4df523b3ef",
                        "0x000000000000000000000000599814467c8acbd77b761702f741325af5018a1f",
                        "0x000000000000000000000000826fe91c9e3064a13205a2a2c5a0474d5025e9f7"
                    ]
                },
                "nodeType": 1
            }
        },
        "gasFlame": [
            {
                "children": [
                    {
                        "children": [
                            {
                                "children": [],
                                "depth": 0,
                                "name": "Initial Gas",
                                "value": 21620
                            },
                            {
                                "children": [],
                                "depth": 0,
                                "name": "Executed Gas",
                                "value": 30367
                            }
                        ],
                        "depth": -1,
                        "name": "Actual Gas Used",
                        "value": 51987
                    },
                    {
                        "children": [],
                        "depth": -1,
                        "name": "Refunded Gas",
                        "value": 0
                    }
                ],
                "depth": -2,
                "name": "Total Gas",
                "value": 51987
            }
        ],
        "isConfirmed": true,
        "mainTrace": [
            {
                "children": [
                    {
                        "children": [
                            {
                                "children": [],
                                "depth": 1,
                                "id": 1,
                                "order": 1
                            }
                        ],
                        "depth": 0,
                        "id": 0,
                        "order": 0
                    }
                ],
                "depth": -1,
                "id": -1,
                "order": -1
            }
        ],
        "mainTraceNodeCount": 2,
        "parentIdMap": {
            "0": -1,
            "1": 0
        },
        "tidyTrace": [
            {
                "children": [
                    {
                        "children": [
                            {
                                "children": [],
                                "depth": 1,
                                "id": 1,
                                "order": 1
                            }
                        ],
                        "depth": 0,
                        "id": 0,
                        "order": 0
                    }
                ],
                "depth": -1,
                "id": -1,
                "order": -1
            }
        ],
        "tidyTraceNodeCount": 2
    },
    "state_change": {
        "stateChanges": [
            {
                "address": "0x912656188616e0184e3181f019022990a63280b1",
                "erc": "ERC-20",
                "slots": [
                    {
                        "current": "0x000000000000000000000000000000000000000000000000000015875a53880e",
                        "key": "0x60720c70bdc8a4c732ace877f81d35ffecdb35834a7926e96436c8b4fa11808d",
                        "prev": "0x000000000000000000000000000000000000000000000000000015984087ee64"
                    },
                    {
                        "current": "0x00000000000000000000000000000000000000000000000000000010e6346656",
                        "key": "0x043d426d3004c6331e0300ddd5ccbd27b039dbeeaeeea183f06ffe22d5cb8d87",
                        "prev": "0x0000000000000000000000000000000000000000000000000000000000000000"
                    }
                ],
                "storageVariables": [
                    {
                        "name": "balances",
                        "type": "mapping(address => uint256)",
                        "value": {
                            "pairs": [
                                {
                                    "key": "0x599814467c8acbd77b761702f741325af5018a1f",
                                    "value": {
                                        "current": "23671080192014",
                                        "prev": "23743661862500",
                                        "typeTag": 1
                                    }
                                },
                                {
                                    "key": "0x826fe91c9e3064a13205a2a2c5a0474d5025e9f7",
                                    "value": {
                                        "current": "72581670486",
                                        "prev": "0",
                                        "typeTag": 1
                                    }
                                }
                            ],
                            "typeTag": 4
                        }
                    }
                ]
            }
        ]
    }
}