{
    "balance_change": {
        "balanceChanges": [
            {
                "account": "0xe83c95371bc94e3ada0726fe614a6962c1253c94",
                "assets": [
                    {
                        "address": "0xc7bba5b765581efb2cdd2679db5bea9ee79b201f",
                        "amount": "25,519.9999999",
                        "iconUrl": "https://assets.blocksec.com/icon/9d84d8045cc012ae5099d515a96b7dfaa79941543989eb31e1e32357d2f2ab1e.png",
                        "isERC1155": false,
                        "isERC721": false,
                        "sign": false,
                        "value": ""
                    }
                ]
            },
            {
                "account": "0x05ee546c1a62f90d7acbffd6d846c9c54c7cf94c",
                "assets": [
                    {
                        "address": "0xc7bba5b765581efb2cdd2679db5bea9ee79b201f",
                        "amount": "25,519.9999999",
                        "iconUrl": "https://assets.blocksec.com/icon/9d84d8045cc012ae5099d515a96b7dfaa79941543989eb31e1e32357d2f2ab1e.png",
                        "isERC1155": false,
                        "isERC721": false,
                        "sign": true,
                        "value": ""
                    }
                ]
            }
        ]
    },
    "profile": {
        "basic_info": {
            "baseFee": "",
            "blockNumber": 5124798,
            "callData": "0xa9059cbb00000000000000000000000005ee546c1a62f90d7acbffd6d846c9c54c7cf94c0000000000000000000000000000000000000000000005677125152778491800",
            "debugEnable": true,
            "errorInfo": "",
            "eventCount": 1,
            "feeRecipient": "0xea674fdde714fd979de3edf0f56aa9716b898ec8",
            "formatValue": "0",
            "gasLimit": 210000,
            "gasPrice": "29",
            "gasUsed": 37141,
            "intTxnCount": 0,
            "internalRevert": false,
            "internalRevertMessage": "",
            "isContractCreation": false,
            "isFlashloan": false,
            "maxFee": "",
            "nonce": 1,
            "overwritedBlockNumber": -1,
            "priorityFee": "",
            "receiver": "0xc7bba5b765581efb2cdd2679db5bea9ee79b201f",
            "revertMessage": "",
            "sender": "0xe83c95371bc94e3ada0726fe614a6962c1253c94",
            "simulationEnable": true,
            "sourceTxnHash": "0x7eee2634174b21df5fe144a68d145463a8d922142dfece7d7dcaa501ca43e51b",
            "status": true,
            "timestamp": "2018-02-20T13:58:54Z",
            "transactionFee": "0.001077089",
            "txnHash": "0x7eee2634174b21df5fe144a68d145463a8d922142dfece7d7dcaa501ca43e51b",
            "txnIndex": 137,
            "type": 0,
            "value": "0"
        },
        "fund_flow": [
            {
                "amount": "25,519.9999999",
                "from": "0xe83c95371bc94e3ada0726fe614a6962c1253c94",
                "id": 1,
                "isERC1155": false,
                "isERC721": false,
                "isReverted": false,
                "order": 1,
                "to": "0x05ee546c1a62f90d7acbffd6d846c9c54c7cf94c",
                "token": "0xc7bba5b765581efb2cdd2679db5bea9ee79b201f"
            }
        ],
        "token_infos": [
            {
                "address": "0xc02aaa39b223fe8d0a0e5c4f27ead9083c756cc2",
                "decimals": 18
            },
            {
                "address": "0xc7bba5b765581efb2cdd2679db5bea9ee79b201f",
                "decimals": 18
            },
            {
                "address": "0xeeeeeeeeeeeeeeeeeeeeeeeeeeeeeeeeeeeeeeee",
                "decimals": 18
            }
        ]
    },
    "address_label": {
        "labels": [
            {
                "address": "0x0000000000000000000000000000000000000003",
                "label": "Precompiled"
            },
            {
                "address": "0x0000000000000000000000000000000000000004",
                "label": "Precompiled"
            },
            {
                "address": "0xeeeeeeeeeeeeeeeeeeeeeeeeeeeeeeeeeeeeeeee",
                "label": "Ether"
            },
            {
                "address": "0xc7bba5b765581efb2cdd2679db5bea9ee79b201f",
                "label": "Gems Token"
            },
            {
                "address": "0x05ee546c1a62f90d7acbffd6d846c9c54c7cf94c",
                "label": "Gate.io 6"
            },
            {
                "address": "0xe83c95371bc94e3ada0726fe614a6962c1253c94",
                "label": "GATE.IO"
            },
            {
                "address": "0x0000000000000000000000000000000000000001",
                "label": "Precompiled"
            },
            {
                "address": "0x0000000000000000000000000000000000000002",
                "label": "Precompiled"
            }
        ]
    },
    "trace": {
        "accountLabels": null,
        "dataMap": {
            "-1": {
                "invocation": {
                    "address": "0xe83c95371bc94e3ada0726fe614a6962c1253c94",
                    "callData": "",
                    "decodedMethod": null,
                    "errorInfo": "",
                    "fromAddress": "",
                    "gasUsed": 0,
                    "id": -1,
                    "methodDecoded": false,
                    "operation": "",
                    "output": "",
                    "revert": false,
                    "revertMessage": "",
                    "selector": "",
                    "status": false,
                    "value": ""
                },
                "nodeType": 0
            },
            "0": {
                "invocation": {
                    "address": "0xc7bba5b765581efb2cdd2679db5bea9ee79b201f",
                    "callData": "0x00000000000000000000000005ee546c1a62f90d7acbffd6d846c9c54c7cf94c0000000000000000000000000000000000000000000005677125152778491800",
                    "decodedMethod": {
                        "callParams": [
                            {
                                "name": "_to",
                                "type": "address",
                                "value": "0x05ee546c1a62f90d7acbffd6d846c9c54c7cf94c"
                            },
                            {
                                "decimalAvailable": true,
                                "name": "_value",
                                "type": "uint256",
                                "value": "25,519,999,999,900,000,000,000"
                            }
                        ],
                        "constructorArguments": "",
                        "name": "transfer",
                        "returnParams": [
                            {
                                "name": "",
                                "type": "bool",
                                "value": true
                            }
                        ],
                        "signature": "transfer(address,uint256)"
                    },
                    "errorInfo": "",
                    "fromAddress": "0xe83c95371bc94e3ada0726fe614a6962c1253c94",
                    "gasUsed": 37141,
                    "id": 0,
                    "methodDecoded": true,
                    "operation": "CALL",
                    "output": "0x0000000000000000000000000000000000000000000000000000000000000001",
                    "revert": false,
                    "revertMessage": "",
                    "selector": "0xa9059cbb",
                    "status": true,
                    "value": "0"
                },
                "nodeType": 0
            },
            "1": {
                "event": {
                    "contract": "0xc7bba5b765581efb2cdd2679db5bea9ee79b201f",
                    "decodedLog": {
                        "name": "Transfer",
                        "params": [
                            {
                                "name": "from",
                                "type": "address",
                                "value": "0xe83c95371bc94e3ada0726fe614a6962c1253c94"
                            },
                            {
                                "name": "to",
                                "type": "address",
                                "value": "0x05ee546c1a62f90d7acbffd6d846c9c54c7cf94c"
                            },
                            {
                                "decimalAvailable": true,
                                "name": "value",
                                "type": "uint256",
                                "value": "25,519,999,999,900,000,000,000"
                            }
                        ],
                        "signature": "Transfer(address,address,uint256)"
                    },
                    "id": 1,
                    "logData": "0x0000000000000000000000000000000000000000000005677125152778491800",
                    "logDecoded": true,
                    "operation": "EVENT",
                    "revert": false,
                    "status": true,
                    "topics": [
                        "0xddf252ad1be2c89b69c2b068fc378daa952ba7f163c4a11628f55a4df523b3ef",
                        "0x000000000000000000000000e83c95371bc94e3ada0726fe614a6962c1253c94",
                        "0x00000000000000000000000005ee546c1a62f90d7acbffd6d846c9c54c7cf94c"
                    ]
                },
                "nodeType": 1
            }
        },
        "gasFlame": [
            {
                "children": [
                    {
                        "children": [
                            {
                                "children": [],
                                "depth": 0,
                                "name": "Initial Gas",
                                "value": 23384
                            },
                            {
                                "children": [],
                                "depth": 0,
                                "name": "Executed Gas",
                                "value": 13757
                            }
                        ],
                        "depth": -1,
                        "name": "Actual Gas Used",
                        "value": 37141
                    },
                    {
                        "children": [],
                        "depth": -1,
                        "name": "Refunded Gas",
                        "value": 0
                    }
                ],
                "depth": -2,
                "name": "Total Gas",
                "value": 37141
            }
        ],
        "isConfirmed": true,
        "mainTrace": [
            {
                "children": [
                    {
                        "children": [
                            {
                                "children": [],
                                "depth": 1,
                                "id": 1,
                                "order": 1
                            }
                        ],
                        "depth": 0,
                        "id": 0,
                        "order": 0
                    }
                ],
                "depth": -1,
                "id": -1,
                "order": -1
            }
        ],
        "mainTraceNodeCount": 2,
        "parentIdMap": {
            "0": -1,
            "1": 0
        },
        "tidyTrace": [
            {
                "children": [
                    {
                        "children": [
                            {
                                "children": [],
                                "depth": 1,
                                "id": 1,
                                "order": 1
                            }
                        ],
                        "depth": 0,
                        "id": 0,
                        "order": 0
                    }
                ],
                "depth": -1,
                "id": -1,
                "order": -1
            }
        ],
        "tidyTraceNodeCount": 2
    },
    "state_change": {
        "stateChanges": [
            {
                "address": "0xc7bba5b765581efb2cdd2679db5bea9ee79b201f",
                "erc": "ERC-20",
                "slots": [
                    {
                        "current": "0x000000000000000000000000000000000000000000000000000000174876e800",
                        "key": "0x83400c1f96563e3ac04d83eff8cfd5ce698046150d8629ce0236efe5ec4a0d54",
                        "prev": "0x0000000000000000000000000000000000000000000005677125153ec0c00000"
                    },
                    {
                        "current": "0x0000000000000000000000000000000000000000015dfaa4cf539ef49cc86800",
                        "key": "0x14208c414e9bc9ac02ede2795f073c9302fbbdd4a991869b659d0a258a8ace4c",
                        "prev": "0x0000000000000000000000000000000000000000015df53d5e2e89cd247f5000"
                    }
                ],
                "storageVariables": [
                    {
                        "name": "balances",
                        "type": "mapping(address => uint256)",
                        "value": {
                            "pairs": [
                                {
                                    "key": "0x05ee546c1a62f90d7acbffd6d846c9c54c7cf94c",
                                    "value": {
                                        "current": "423098742871710244000000000",
                                        "prev": "423073222871710344000000000",
                                        "typeTag": 1
                                    }
                                },
                                {
                                    "key": "0xe83c95371bc94e3ada0726fe614a6962c1253c94",
                                    "value": {
                                        "current": "100000000000",
                                        "prev": "25520000000000000000000",
                                        "typeTag": 1
                                    }
                                }
                            ],
                            "typeTag": 4
                        }
                    }
                ]
            }
        ]
    }
}