{
    "balance_change": {
        "balanceChanges": [
            {
                "account": "0xa97cf35d29cd7c2158aa697bfe80c29c765142c7",
                "assets": [
                    {
                        "address": "0xeeeeeeeeeeeeeeeeeeeeeeeeeeeeeeeeeeeeeeee",
                        "amount": "0.1",
                        "iconUrl": "https://assets.blocksec.com/image/1663669189317-3.png",
                        "isERC1155": false,
                        "isERC721": false,
                        "sign": false,
                        "value": "287.131762"
                    }
                ]
            },
            {
                "account": "0x8484ef722627bf18ca5ae6bcf031c23e6e922b30",
                "assets": [
                    {
                        "address": "0xeeeeeeeeeeeeeeeeeeeeeeeeeeeeeeeeeeeeeeee",
                        "amount": "0.1",
                        "iconUrl": "https://assets.blocksec.com/image/1663669189317-3.png",
                        "isERC1155": false,
                        "isERC721": false,
                        "sign": true,
                        "value": "287.131762"
                    }
                ]
            }
        ]
    },
    "profile": {
        "basic_info": {
            "baseFee": "",
            "blockNumber": 12348715,
            "callData": "0x4faa8a26000000000000000000000000a97cf35d29cd7c2158aa697bfe80c29c765142c7",
            "debugEnable": true,
            "errorInfo": "",
            "eventCount": 2,
            "feeRecipient": "0xeea5b82b61424df8020f5fedd81767f2d0d25bfb",
            "formatValue": "0.1",
            "gasLimit": 94491,
            "gasPrice": "29",
            "gasUsed": 77257,
            "intTxnCount": 6,
            "internalRevert": false,
            "internalRevertMessage": "",
            "isContractCreation": false,
            "isFlashloan": false,
            "maxFee": "",
            "nonce": 127,
            "overwritedBlockNumber": -1,
            "priorityFee": "",
            "receiver": "0xa0c68c638235ee32657e8f720a23cec1bfc77c77",
            "revertMessage": "",
            "sender": "0xa97cf35d29cd7c2158aa697bfe80c29c765142c7",
            "simulationEnable": true,
            "sourceTxnHash": "0x7f424104417e94a04db9104f71a54c9dbba930de1cb0e0f4f7d3e2e98e2858f0",
            "status": true,
            "timestamp": "2021-05-01T13:59:24Z",
            "transactionFee": "0.002240453",
            "txnHash": "0x7f424104417e94a04db9104f71a54c9dbba930de1cb0e0f4f7d3e2e98e2858f0",
            "txnIndex": 41,
            "type": 0,
            "value": "100000000000000000"
        },
        "fund_flow": [
            {
                "amount": "0.1",
                "from": "0xa97cf35d29cd7c2158aa697bfe80c29c765142c7",
                "id": 1,
                "isERC1155": false,
                "isERC721": false,
                "isReverted": false,
                "order": 1,
                "to": "0xa0c68c638235ee32657e8f720a23cec1bfc77c77",
                "token": "0xeeeeeeeeeeeeeeeeeeeeeeeeeeeeeeeeeeeeeeee"
            },
            {
                "amount": "0.1",
                "from": "0xa0c68c638235ee32657e8f720a23cec1bfc77c77",
                "id": 2,
                "isERC1155": false,
                "isERC721": false,
                "isReverted": false,
                "order": 2,
                "to": "0x8484ef722627bf18ca5ae6bcf031c23e6e922b30",
                "token": "0xeeeeeeeeeeeeeeeeeeeeeeeeeeeeeeeeeeeeeeee"
            }
        ],
        "token_infos": [
            {
                "address": "0xc02aaa39b223fe8d0a0e5c4f27ead9083c756cc2",
                "decimals": 18
            },
            {
                "address": "0xeeeeeeeeeeeeeeeeeeeeeeeeeeeeeeeeeeeeeeee",
                "decimals": 18
            }
        ]
    },
    "address_label": {
        "labels": [
            {
                "address": "0x296ac8fb39279bbcff6edc9fddf1d2f4aea1631b",
                "label": "RootChainManager"
            },
            {
                "address": "0x499a865ac595e6167482d2bd5a224876bab85ab4",
                "label": "Polygon (Matic): POS Ether Predicate"
            },
            {
                "address": "0x0000000000000000000000000000000000000001",
                "label": "Precompiled"
            },
            {
                "address": "0x0000000000000000000000000000000000000002",
                "label": "Precompiled"
            },
            {
                "address": "0xeeeeeeeeeeeeeeeeeeeeeeeeeeeeeeeeeeeeeeee",
                "label": "Ether"
            },
            {
                "address": "0x8484ef722627bf18ca5ae6bcf031c23e6e922b30",
                "label": "Polygon (Matic): Ether Bridge"
            },
            {
                "address": "0xa0c68c638235ee32657e8f720a23cec1bfc77c77",
                "label": "Polygon (Matic): Bridge"
            },
            {
                "address": "0xa6fa4fb5f76172d178d61b04b0ecd319c5d1c0aa",
                "label": "Polygon (Matic): POS Merkle Patricia Proof"
            },
            {
                "address": "0x0000000000000000000000000000000000000004",
                "label": "Precompiled"
            },
            {
                "address": "0x28e4f3a7f651294b9564800b2d01f35189a5bfbe",
                "label": "Polygon (Matic): State Syncer"
            },
            {
                "address": "0x0000000000000000000000000000000000000003",
                "label": "Precompiled"
            }
        ]
    },
    "trace": {
        "accountLabels": null,
        "dataMap": {
            "-1": {
                "invocation": {
                    "address": "0xa97cf35d29cd7c2158aa697bfe80c29c765142c7",
                    "callData": "",
                    "decodedMethod": null,
                    "errorInfo": "",
                    "fromAddress": "",
                    "gasUsed": 0,
                    "id": -1,
                    "methodDecoded": false,
                    "operation": "",
                    "output": "",
                    "revert": false,
                    "revertMessage": "",
                    "selector": "",
                    "status": false,
                    "value": ""
                },
                "nodeType": 0
            },
            "0": {
                "invocation": {
                    "address": "0xa0c68c638235ee32657e8f720a23cec1bfc77c77",
                    "callData": "0x000000000000000000000000a97cf35d29cd7c2158aa697bfe80c29c765142c7",
                    "decodedMethod": {
                        "callParams": [
                            {
                                "name": "user",
                                "type": "address",
                                "value": "0xa97cf35d29cd7c2158aa697bfe80c29c765142c7"
                            }
                        ],
                        "constructorArguments": "",
                        "name": "depositEtherFor",
                        "returnParams": [],
                        "signature": "depositEtherFor(address)"
                    },
                    "errorInfo": "",
                    "fromAddress": "0xa97cf35d29cd7c2158aa697bfe80c29c765142c7",
                    "gasUsed": 77257,
                    "id": 0,
                    "methodDecoded": true,
                    "operation": "CALL",
                    "output": "",
                    "revert": false,
                    "revertMessage": "",
                    "selector": "0x4faa8a26",
                    "status": true,
                    "value": "0.1"
                },
                "nodeType": 0
            },
            "1": {
                "invocation": {
                    "address": "0x296ac8fb39279bbcff6edc9fddf1d2f4aea1631b",
                    "callData": "0x000000000000000000000000a97cf35d29cd7c2158aa697bfe80c29c765142c7",
                    "decodedMethod": {
                        "callParams": [
                            {
                                "name": "user",
                                "type": "address",
                                "value": "0xa97cf35d29cd7c2158aa697bfe80c29c765142c7"
                            }
                        ],
                        "constructorArguments": "",
                        "name": "depositEtherFor",
                        "returnParams": [],
                        "signature": "depositEtherFor(address)"
                    },
                    "errorInfo": "",
                    "fromAddress": "0xa0c68c638235ee32657e8f720a23cec1bfc77c77",
                    "gasUsed": 50474,
                    "id": 1,
                    "methodDecoded": true,
                    "operation": "DELEGATECALL",
                    "output": "",
                    "revert": false,
                    "revertMessage": "",
                    "selector": "0x4faa8a26",
                    "status": true,
                    "value": "0.1"
                },
                "nodeType": 0
            },
            "2": {
                "invocation": {
                    "address": "0x8484ef722627bf18ca5ae6bcf031c23e6e922b30",
                    "callData": "0x000000000000000000000000a97cf35d29cd7c2158aa697bfe80c29c765142c7000000000000000000000000a97cf35d29cd7c2158aa697bfe80c29c765142c7000000000000000000000000eeeeeeeeeeeeeeeeeeeeeeeeeeeeeeeeeeeeeeee00000000000000000000000000000000000000000000000000000000000000800000000000000000000000000000000000000000000000000000000000000020000000000000000000000000000000000000000000000000016345785d8a0000",
                    "decodedMethod": {
                        "callParams": [
                            {
                                "name": "depositor",
                                "type": "address",
                                "value": "0xa97cf35d29cd7c2158aa697bfe80c29c765142c7"
                            },
                            {
                                "name": "depositReceiver",
                                "type": "address",
                                "value": "0xa97cf35d29cd7c2158aa697bfe80c29c765142c7"
                            },
                            {
                                "name": "",
                                "type": "address",
                                "value": "0xeeeeeeeeeeeeeeeeeeeeeeeeeeeeeeeeeeeeeeee"
                            },
                            {
                                "name": "depositData",
                                "type": "bytes",
                                "value": "0x000000000000000000000000000000000000000000000000016345785d8a0000"
                            }
                        ],
                        "constructorArguments": "",
                        "name": "lockTokens",
                        "returnParams": [],
                        "signature": "lockTokens(address,address,address,bytes)"
                    },
                    "errorInfo": "",
                    "fromAddress": "0xa0c68c638235ee32657e8f720a23cec1bfc77c77",
                    "gasUsed": 10343,
                    "id": 2,
                    "methodDecoded": true,
                    "operation": "CALL",
                    "output": "",
                    "revert": false,
                    "revertMessage": "",
                    "selector": "0xe375b64e",
                    "status": true,
                    "value": "0"
                },
                "nodeType": 0
            },
            "3": {
                "invocation": {
                    "address": "0x499a865ac595e6167482d2bd5a224876bab85ab4",
                    "callData": "0x000000000000000000000000a97cf35d29cd7c2158aa697bfe80c29c765142c7000000000000000000000000a97cf35d29cd7c2158aa697bfe80c29c765142c7000000000000000000000000eeeeeeeeeeeeeeeeeeeeeeeeeeeeeeeeeeeeeeee00000000000000000000000000000000000000000000000000000000000000800000000000000000000000000000000000000000000000000000000000000020000000000000000000000000000000000000000000000000016345785d8a0000",
                    "decodedMethod": {
                        "callParams": [
                            {
                                "name": "depositor",
                                "type": "address",
                                "value": "0xa97cf35d29cd7c2158aa697bfe80c29c765142c7"
                            },
                            {
                                "name": "depositReceiver",
                                "type": "address",
                                "value": "0xa97cf35d29cd7c2158aa697bfe80c29c765142c7"
                            },
                            {
                                "name": "",
                                "type": "address",
                                "value": "0xeeeeeeeeeeeeeeeeeeeeeeeeeeeeeeeeeeeeeeee"
                            },
                            {
                                "name": "depositData",
                                "type": "bytes",
                                "value": "0x000000000000000000000000000000000000000000000000016345785d8a0000"
                            }
                        ],
                        "constructorArguments": "",
                        "name": "lockTokens",
                        "returnParams": [],
                        "signature": "lockTokens(address,address,address,bytes)"
                    },
                    "errorInfo": "",
                    "fromAddress": "0x8484ef722627bf18ca5ae6bcf031c23e6e922b30",
                    "gasUsed": 4962,
                    "id": 3,
                    "methodDecoded": true,
                    "operation": "DELEGATECALL",
                    "output": "",
                    "revert": false,
                    "revertMessage": "",
                    "selector": "0xe375b64e",
                    "status": true,
                    "value": "0"
                },
                "nodeType": 0
            },
            "4": {
                "event": {
                    "contract": "0x8484ef722627bf18ca5ae6bcf031c23e6e922b30",
                    "decodedLog": {
                        "name": "LockedEther",
                        "params": [
                            {
                                "name": "depositor",
                                "type": "address",
                                "value": "0xa97cf35d29cd7c2158aa697bfe80c29c765142c7"
                            },
                            {
                                "name": "depositReceiver",
                                "type": "address",
                                "value": "0xa97cf35d29cd7c2158aa697bfe80c29c765142c7"
                            },
                            {
                                "name": "amount",
                                "type": "uint256",
                                "value": "100,000,000,000,000,000"
                            }
                        ],
                        "signature": "LockedEther(address,address,uint256)"
                    },
                    "id": 4,
                    "logData": "0x000000000000000000000000000000000000000000000000016345785d8a0000",
                    "logDecoded": true,
                    "operation": "EVENT",
                    "revert": false,
                    "status": true,
                    "topics": [
                        "0x3e799b2d61372379e767ef8f04d65089179b7a6f63f9be3065806456c7309f1b",
                        "0x000000000000000000000000a97cf35d29cd7c2158aa697bfe80c29c765142c7",
                        "0x000000000000000000000000a97cf35d29cd7c2158aa697bfe80c29c765142c7"
                    ]
                },
                "nodeType": 1
            },
            "5": {
                "invocation": {
                    "address": "0x28e4f3a7f651294b9564800b2d01f35189a5bfbe",
                    "callData": "0x000000000000000000000000a6fa4fb5f76172d178d61b04b0ecd319c5d1c0aa0000000000000000000000000000000000000000000000000000000000000040000000000000000000000000000000000000000000000000000000000000010087a7811f4bfedea3d341ad165680ae306b01aaeacc205d227629cf157dd9f821000000000000000000000000000000000000000000000000000000000000004000000000000000000000000000000000000000000000000000000000000000a0000000000000000000000000a97cf35d29cd7c2158aa697bfe80c29c765142c7000000000000000000000000eeeeeeeeeeeeeeeeeeeeeeeeeeeeeeeeeeeeeeee00000000000000000000000000000000000000000000000000000000000000600000000000000000000000000000000000000000000000000000000000000020000000000000000000000000000000000000000000000000016345785d8a0000",
                    "decodedMethod": {
                        "callParams": [
                            {
                                "name": "receiver",
                                "type": "address",
                                "value": "0xa6fa4fb5f76172d178d61b04b0ecd319c5d1c0aa"
                            },
                            {
                                "name": "data",
                                "type": "bytes",
                                "value": "0x87a7811f4bfedea3d341ad165680ae306b01aaeacc205d227629cf157dd9f821000000000000000000000000000000000000000000000000000000000000004000000000000000000000000000000000000000000000000000000000000000a0000000000000000000000000a97cf35d29cd7c2158aa697bfe80c29c765142c7000000000000000000000000eeeeeeeeeeeeeeeeeeeeeeeeeeeeeeeeeeeeeeee00000000000000000000000000000000000000000000000000000000000000600000000000000000000000000000000000000000000000000000000000000020000000000000000000000000000000000000000000000000016345785d8a0000"
                            }
                        ],
                        "constructorArguments": "",
                        "name": "syncState",
                        "returnParams": [],
                        "signature": "syncState(address,bytes)"
                    },
                    "errorInfo": "",
                    "fromAddress": "0xa0c68c638235ee32657e8f720a23cec1bfc77c77",
                    "gasUsed": 12126,
                    "id": 5,
                    "methodDecoded": true,
                    "operation": "CALL",
                    "output": "",
                    "revert": false,
                    "revertMessage": "",
                    "selector": "0x16f19831",
                    "status": true,
                    "value": "0"
                },
                "nodeType": 0
            },
            "6": {
                "event": {
                    "contract": "0x28e4f3a7f651294b9564800b2d01f35189a5bfbe",
                    "decodedLog": {
                        "name": "StateSynced",
                        "params": [
                            {
                                "name": "id",
                                "type": "uint256",
                                "value": "130,062"
                            },
                            {
                                "name": "contractAddress",
                                "type": "address",
                                "value": "0xa6fa4fb5f76172d178d61b04b0ecd319c5d1c0aa"
                            },
                            {
                                "name": "data",
                                "type": "bytes",
                                "value": "0x87a7811f4bfedea3d341ad165680ae306b01aaeacc205d227629cf157dd9f821000000000000000000000000000000000000000000000000000000000000004000000000000000000000000000000000000000000000000000000000000000a0000000000000000000000000a97cf35d29cd7c2158aa697bfe80c29c765142c7000000000000000000000000eeeeeeeeeeeeeeeeeeeeeeeeeeeeeeeeeeeeeeee00000000000000000000000000000000000000000000000000000000000000600000000000000000000000000000000000000000000000000000000000000020000000000000000000000000000000000000000000000000016345785d8a0000"
                            }
                        ],
                        "signature": "StateSynced(uint256,address,bytes)"
                    },
                    "id": 6,
                    "logData": "0x0000000000000000000000000000000000000000000000000000000000000020000000000000000000000000000000000000000000000000000000000000010087a7811f4bfedea3d341ad165680ae306b01aaeacc205d227629cf157dd9f821000000000000000000000000000000000000000000000000000000000000004000000000000000000000000000000000000000000000000000000000000000a0000000000000000000000000a97cf35d29cd7c2158aa697bfe80c29c765142c7000000000000000000000000eeeeeeeeeeeeeeeeeeeeeeeeeeeeeeeeeeeeeeee00000000000000000000000000000000000000000000000000000000000000600000000000000000000000000000000000000000000000000000000000000020000000000000000000000000000000000000000000000000016345785d8a0000",
                    "logDecoded": true,
                    "operation": "EVENT",
                    "revert": false,
                    "status": true,
                    "topics": [
                        "0x103fed9db65eac19c4d870f49ab7520fe03b99f1838e5996caf47e9e43308392",
                        "0x000000000000000000000000000000000000000000000000000000000001fc0e",
                        "0x000000000000000000000000a6fa4fb5f76172d178d61b04b0ecd319c5d1c0aa"
                    ]
                },
                "nodeType": 1
            },
            "7": {
                "invocation": {
                    "address": "0x8484ef722627bf18ca5ae6bcf031c23e6e922b30",
                    "callData": "0x",
                    "decodedMethod": null,
                    "errorInfo": "",
                    "fromAddress": "0xa0c68c638235ee32657e8f720a23cec1bfc77c77",
                    "gasUsed": 1309,
                    "id": 7,
                    "methodDecoded": false,
                    "operation": "CALL",
                    "output": "",
                    "revert": false,
                    "revertMessage": "",
                    "selector": "fallback",
                    "status": true,
                    "value": "0.1"
                },
                "nodeType": 0
            },
            "8": {
                "invocation": {
                    "address": "0x499a865ac595e6167482d2bd5a224876bab85ab4",
                    "callData": "0x",
                    "decodedMethod": null,
                    "errorInfo": "",
                    "fromAddress": "0x8484ef722627bf18ca5ae6bcf031c23e6e922b30",
                    "gasUsed": 610,
                    "id": 8,
                    "methodDecoded": false,
                    "operation": "DELEGATECALL",
                    "output": "",
                    "revert": false,
                    "revertMessage": "",
                    "selector": "fallback",
                    "status": true,
                    "value": "0.1"
                },
                "nodeType": 0
            }
        },
        "gasFlame": [
            {
                "children": [
                    {
                        "children": [
                            {
                                "children": [],
                                "depth": 0,
                                "name": "Initial Gas",
                                "value": 21432
                            },
                            {
                                "children": [
                                    {
                                        "children": [
                                            {
                                                "children": [
                                                    {
                                                        "children": [],
                                                        "depth": 3,
                                                        "name": "lockTokens",
                                                        "value": 4962
                                                    }
                                                ],
                                                "depth": 2,
                                                "name": "lockTokens",
                                                "value": 10343
                                            },
                                            {
                                                "children": [],
                                                "depth": 2,
                                                "name": "syncState",
                                                "value": 12126
                                            },
                                            {
                                                "children": [
                                                    {
                                                        "children": [],
                                                        "depth": 3,
                                                        "name": "fallback",
                                                        "value": 610
                                                    }
                                                ],
                                                "depth": 2,
                                                "name": "fallback",
                                                "value": 1309
                                            }
                                        ],
                                        "depth": 1,
                                        "name": "depositEtherFor",
                                        "value": 50474
                                    }
                                ],
                                "depth": 0,
                                "name": "Executed Gas",
                                "value": 55825
                            }
                        ],
                        "depth": -1,
                        "name": "Actual Gas Used",
                        "value": 77257
                    },
                    {
                        "children": [],
                        "depth": -1,
                        "name": "Refunded Gas",
                        "value": 0
                    }
                ],
                "depth": -2,
                "name": "Total Gas",
                "value": 77257
            }
        ],
        "isConfirmed": true,
        "mainTrace": [
            {
                "children": [
                    {
                        "children": [
                            {
                                "children": [
                                    {
                                        "children": [
                                            {
                                                "children": [
                                                    {
                                                        "children": [],
                                                        "depth": 4,
                                                        "id": 4,
                                                        "order": 4
                                                    }
                                                ],
                                                "depth": 3,
                                                "id": 3,
                                                "order": 3
                                            }
                                        ],
                                        "depth": 2,
                                        "id": 2,
                                        "order": 2
                                    },
                                    {
                                        "children": [
                                            {
                                                "children": [],
                                                "depth": 3,
                                                "id": 6,
                                                "order": 6
                                            }
                                        ],
                                        "depth": 2,
                                        "id": 5,
                                        "order": 5
                                    },
                                    {
                                        "children": [
                                            {
                                                "children": [],
                                                "depth": 3,
                                                "id": 8,
                                                "order": 8
                                            }
                                        ],
                                        "depth": 2,
                                        "id": 7,
                                        "order": 7
                                    }
                                ],
                                "depth": 1,
                                "id": 1,
                                "order": 1
                            }
                        ],
                        "depth": 0,
                        "id": 0,
                        "order": 0
                    }
                ],
                "depth": -1,
                "id": -1,
                "order": -1
            }
        ],
        "mainTraceNodeCount": 9,
        "parentIdMap": {
            "0": -1,
            "1": 0,
            "2": 1,
            "3": 2,
            "4": 3,
            "5": 1,
            "6": 5,
            "7": 1,
            "8": 7
        },
        "tidyTrace": [
            {
                "children": [
                    {
                        "children": [
                            {
                                "children": [
                                    {
                                        "children": [
                                            {
                                                "children": [
                                                    {
                                                        "children": [],
                                                        "depth": 4,
                                                        "id": 4,
                                                        "order": 4
                                                    }
                                                ],
                                                "depth": 3,
                                                "id": 3,
                                                "order": 3
                                            }
                                        ],
                                        "depth": 2,
                                        "id": 2,
                                        "order": 2
                                    },
                                    {
                                        "children": [
                                            {
                                                "children": [],
                                                "depth": 3,
                                                "id": 6,
                                                "order": 6
                                            }
                                        ],
                                        "depth": 2,
                                        "id": 5,
                                        "order": 5
                                    },
                                    {
                                        "children": [
                                            {
                                                "children": [],
                                                "depth": 3,
                                                "id": 8,
                                                "order": 8
                                            }
                                        ],
                                        "depth": 2,
                                        "id": 7,
                                        "order": 7
                                    }
                                ],
                                "depth": 1,
                                "id": 1,
                                "order": 1
                            }
                        ],
                        "depth": 0,
                        "id": 0,
                        "order": 0
                    }
                ],
                "depth": -1,
                "id": -1,
                "order": -1
            }
        ],
        "tidyTraceNodeCount": 9
    },
    "state_change": {
        "stateChanges": [
            {
                "address": "0x28e4f3a7f651294b9564800b2d01f35189a5bfbe",
                "erc": "",
                "slots": [
                    {
                        "current": "0x000000000000000000000000000000000000000000000000000000000001fc0e",
                        "key": "0x0000000000000000000000000000000000000000000000000000000000000001",
                        "prev": "0x000000000000000000000000000000000000000000000000000000000001fc0d"
                    }
                ],
                "storageVariables": [
                    {
                        "name": "counter",
                        "type": "uint256",
                        "value": {
                            "current": "130062",
                            "prev": "130061",
                            "typeTag": 1
                        }
                    }
                ]
            }
        ]
    }
}