{
    "balance_change": {
        "balanceChanges": [
            {
                "account": "0xb7bfbff2d670e5e7df5b6b978a72245dadf2588f",
                "assets": [
                    {
                        "address": "0xdc9ac3c20d1ed0b540df9b1fedc10039df13f99c",
                        "amount": "5,022.144104332409136466",
                        "iconUrl": "",
                        "isERC1155": false,
                        "isERC721": false,
                        "sign": false,
                        "value": "1723.098955"
                    },
                    {
                        "address": "0x8a40c222996f9f3431f63bf80244c36822060f12",
                        "amount": "2,888.680172822573580095",
                        "iconUrl": "",
                        "isERC1155": false,
                        "isERC721": false,
                        "sign": true,
                        "value": "1707.386535"
                    }
                ]
            },
            {
                "account": "0x8d9a7c5170af4249c37c489339da0fed0f7c7f5f",
                "assets": [
                    {
                        "address": "0xc02aaa39b223fe8d0a0e5c4f27ead9083c756cc2",
                        "amount": "1.067152879168463754",
                        "iconUrl": "https://assets.blocksec.com/icon/f1cb2d02c471d545bbc7722daf3277fd852d98e63d118771af7047bd8256c516.png",
                        "isERC1155": false,
                        "isERC721": false,
                        "sign": true,
                        "value": "1723.098954"
                    },
                    {
                        "address": "0x8a40c222996f9f3431f63bf80244c36822060f12",
                        "amount": "2,888.680172822573580095",
                        "iconUrl": "",
                        "isERC1155": false,
                        "isERC721": false,
                        "sign": false,
                        "value": "1707.386535"
                    }
                ]
            },
            {
                "account": "0xc0fc2e4cbaf48b36948971c4afd487a90272ddfe",
                "assets": [
                    {
                        "address": "0xdc9ac3c20d1ed0b540df9b1fedc10039df13f99c",
                        "amount": "5,022.144104332409136466",
                        "iconUrl": "",
                        "isERC1155": false,
                        "isERC721": false,
                        "sign": true,
                        "value": "1723.098955"
                    },
                    {
                        "address": "0xc02aaa39b223fe8d0a0e5c4f27ead9083c756cc2",
                        "amount": "1.067152879168463754",
                        "iconUrl": "https://assets.blocksec.com/icon/f1cb2d02c471d545bbc7722daf3277fd852d98e63d118771af7047bd8256c516.png",
                        "isERC1155": false,
                        "isERC721": false,
                        "sign": false,
                        "value": "1723.098954"
                    }
                ]
            }
        ]
    },
    "profile": {
        "basic_info": {
            "baseFee": "",
            "blockNumber": 11923954,
            "callData": "0x38ed173900000000000000000000000000000000000000000000011040400e6e338f655200000000000000000000000000000000000000000000009986710ffaa36df03300000000000000000000000000000000000000000000000000000000000000a0000000000000000000000000b7bfbff2d670e5e7df5b6b978a72245dadf2588f0000000000000000000000000000000000000000000000000000000060371f170000000000000000000000000000000000000000000000000000000000000003000000000000000000000000dc9ac3c20d1ed0b540df9b1fedc10039df13f99c000000000000000000000000c02aaa39b223fe8d0a0e5c4f27ead9083c756cc20000000000000000000000008a40c222996f9f3431f63bf80244c36822060f12",
            "debugEnable": true,
            "errorInfo": "",
            "eventCount": 8,
            "feeRecipient": "0xea674fdde714fd979de3edf0f56aa9716b898ec8",
            "formatValue": "0",
            "gasLimit": 208619,
            "gasPrice": "170",
            "gasUsed": 164284,
            "intTxnCount": 13,
            "internalRevert": false,
            "internalRevertMessage": "",
            "isContractCreation": false,
            "isFlashloan": false,
            "maxFee": "",
            "nonce": 114,
            "overwritedBlockNumber": -1,
            "priorityFee": "",
            "receiver": "0x7a250d5630b4cf539739df2c5dacb4c659f2488d",
            "revertMessage": "",
            "sender": "0xb7bfbff2d670e5e7df5b6b978a72245dadf2588f",
            "simulationEnable": true,
            "sourceTxnHash": "0x7fa9a7b44b386947e7411507871ba0a5e9f3e9da2e42512f472865d72374a29b",
            "status": true,
            "timestamp": "2021-02-25T03:45:20Z",
            "transactionFee": "0.02792828",
            "txnHash": "0x7fa9a7b44b386947e7411507871ba0a5e9f3e9da2e42512f472865d72374a29b",
            "txnIndex": 85,
            "type": 0,
            "value": "0"
        },
        "fund_flow": [
            {
                "amount": "5,022.144104332409136466",
                "from": "0xb7bfbff2d670e5e7df5b6b978a72245dadf2588f",
                "id": 1,
                "isERC1155": false,
                "isERC721": false,
                "isReverted": false,
                "order": 1,
                "to": "0xc0fc2e4cbaf48b36948971c4afd487a90272ddfe",
                "token": "0xdc9ac3c20d1ed0b540df9b1fedc10039df13f99c"
            },
            {
                "amount": "1.067152879168463754",
                "from": "0xc0fc2e4cbaf48b36948971c4afd487a90272ddfe",
                "id": 2,
                "isERC1155": false,
                "isERC721": false,
                "isReverted": false,
                "order": 2,
                "to": "0x8d9a7c5170af4249c37c489339da0fed0f7c7f5f",
                "token": "0xc02aaa39b223fe8d0a0e5c4f27ead9083c756cc2"
            },
            {
                "amount": "2,888.680172822573580095",
                "from": "0x8d9a7c5170af4249c37c489339da0fed0f7c7f5f",
                "id": 3,
                "isERC1155": false,
                "isERC721": false,
                "isReverted": false,
                "order": 3,
                "to": "0xb7bfbff2d670e5e7df5b6b978a72245dadf2588f",
                "token": "0x8a40c222996f9f3431f63bf80244c36822060f12"
            }
        ],
        "token_infos": [
            {
                "address": "0xdc9ac3c20d1ed0b540df9b1fedc10039df13f99c",
                "decimals": 18
            },
            {
                "address": "0xeeeeeeeeeeeeeeeeeeeeeeeeeeeeeeeeeeeeeeee",
                "decimals": 18
            },
            {
                "address": "0x8a40c222996f9f3431f63bf80244c36822060f12",
                "decimals": 18
            },
            {
                "address": "0xc02aaa39b223fe8d0a0e5c4f27ead9083c756cc2",
                "decimals": 18
            }
        ]
    },
    "address_label": {
        "labels": [
            {
                "address": "0xeeeeeeeeeeeeeeeeeeeeeeeeeeeeeeeeeeeeeeee",
                "label": "Ether"
            },
            {
                "address": "0x7a250d5630b4cf539739df2c5dacb4c659f2488d",
                "label": "Uniswap V2: Router 2"
            },
            {
                "address": "0xc02aaa39b223fe8d0a0e5c4f27ead9083c756cc2",
                "label": "Wrapped Ether (WETH)"
            },
            {
                "address": "0x112706099899affa5a13dd7955f8258a54032397",
                "label": "FXF"
            },
            {
                "address": "0x0000000000000000000000000000000000000004",
                "label": "Precompiled"
            },
            {
                "address": "0x8a40c222996f9f3431f63bf80244c36822060f12",
                "label": "Finxflo: FXF Token"
            },
            {
                "address": "0xc0fc2e4cbaf48b36948971c4afd487a90272ddfe",
                "label": "Uniswap V2: UTK 2"
            },
            {
                "address": "0xdc9ac3c20d1ed0b540df9b1fedc10039df13f99c",
                "label": "UTRUST: UTK Token"
            },
            {
                "address": "0x8d9a7c5170af4249c37c489339da0fed0f7c7f5f",
                "label": "Uniswap V2: FXF 7"
            },
            {
                "address": "0x0000000000000000000000000000000000000001",
                "label": "Precompiled"
            },
            {
                "address": "0x0000000000000000000000000000000000000002",
                "label": "Precompiled"
            },
            {
                "address": "0x0000000000000000000000000000000000000003",
                "label": "Precompiled"
            }
        ]
    },
    "trace": {
        "accountLabels": null,
        "dataMap": {
            "-1": {
                "invocation": {
                    "address": "0xb7bfbff2d670e5e7df5b6b978a72245dadf2588f",
                    "callData": "",
                    "decodedMethod": null,
                    "errorInfo": "",
                    "fromAddress": "",
                    "gasUsed": 0,
                    "id": -1,
                    "methodDecoded": false,
                    "operation": "",
                    "output": "",
                    "revert": false,
                    "revertMessage": "",
                    "selector": "",
                    "status": false,
                    "value": ""
                },
                "nodeType": 0
            },
            "0": {
                "invocation": {
                    "address": "0x7a250d5630b4cf539739df2c5dacb4c659f2488d",
                    "callData": "0x00000000000000000000000000000000000000000000011040400e6e338f655200000000000000000000000000000000000000000000009986710ffaa36df03300000000000000000000000000000000000000000000000000000000000000a0000000000000000000000000b7bfbff2d670e5e7df5b6b978a72245dadf2588f0000000000000000000000000000000000000000000000000000000060371f170000000000000000000000000000000000000000000000000000000000000003000000000000000000000000dc9ac3c20d1ed0b540df9b1fedc10039df13f99c000000000000000000000000c02aaa39b223fe8d0a0e5c4f27ead9083c756cc20000000000000000000000008a40c222996f9f3431f63bf80244c36822060f12",
                    "decodedMethod": {
                        "callParams": [
                            {
                                "name": "amountIn",
                                "type": "uint256",
                                "value": "5,022,144,104,332,409,136,466"
                            },
                            {
                                "name": "amountOutMin",
                                "type": "uint256",
                                "value": "2,832,039,385,120,170,176,563"
                            },
                            {
                                "name": "path",
                                "type": "address[]",
                                "value": [
                                    "0xdc9ac3c20d1ed0b540df9b1fedc10039df13f99c",
                                    "0xc02aaa39b223fe8d0a0e5c4f27ead9083c756cc2",
                                    "0x8a40c222996f9f3431f63bf80244c36822060f12"
                                ]
                            },
                            {
                                "name": "to",
                                "type": "address",
                                "value": "0xb7bfbff2d670e5e7df5b6b978a72245dadf2588f"
                            },
                            {
                                "name": "deadline",
                                "type": "uint256",
                                "value": "1,614,225,175"
                            }
                        ],
                        "constructorArguments": "",
                        "name": "swapExactTokensForTokens",
                        "returnParams": [
                            {
                                "name": "amounts",
                                "type": "uint256[]",
                                "value": [
                                    "5,022,144,104,332,409,136,466",
                                    "1,067,152,879,168,463,754",
                                    "2,888,680,172,822,573,580,095"
                                ]
                            }
                        ],
                        "signature": "swapExactTokensForTokens(uint256,uint256,address[],address,uint256)"
                    },
                    "errorInfo": "",
                    "fromAddress": "0xb7bfbff2d670e5e7df5b6b978a72245dadf2588f",
                    "gasUsed": 164284,
                    "id": 0,
                    "methodDecoded": true,
                    "operation": "CALL",
                    "output": "0x0000000000000000000000000000000000000000000000000000000000000020000000000000000000000000000000000000000000000000000000000000000300000000000000000000000000000000000000000000011040400e6e338f65520000000000000000000000000000000000000000000000000ecf49e3bbdf238a00000000000000000000000000000000000000000000009c987d904c737f7f3f",
                    "revert": false,
                    "revertMessage": "",
                    "selector": "0x38ed1739",
                    "status": true,
                    "value": "0"
                },
                "nodeType": 0
            },
            "1": {
                "invocation": {
                    "address": "0xc0fc2e4cbaf48b36948971c4afd487a90272ddfe",
                    "callData": "0x",
                    "decodedMethod": {
                        "callParams": [],
                        "constructorArguments": "",
                        "name": "getReserves",
                        "returnParams": [
                            {
                                "name": "_reserve0",
                                "type": "uint112",
                                "value": "111,406,841,031,908,406,836"
                            },
                            {
                                "name": "_reserve1",
                                "type": "uint112",
                                "value": "517,713,440,756,179,648,176,835"
                            },
                            {
                                "name": "_blockTimestampLast",
                                "type": "uint32",
                                "value": "1,614,222,878"
                            }
                        ],
                        "signature": "getReserves()"
                    },
                    "errorInfo": "",
                    "fromAddress": "0x7a250d5630b4cf539739df2c5dacb4c659f2488d",
                    "gasUsed": 1204,
                    "id": 1,
                    "methodDecoded": true,
                    "operation": "STATICCALL",
                    "output": "0x0000000000000000000000000000000000000000000000060a149ba8e7503634000000000000000000000000000000000000000000006da14d46ac60cf20e2c3000000000000000000000000000000000000000000000000000000006037161e",
                    "revert": false,
                    "revertMessage": "",
                    "selector": "0x0902f1ac",
                    "status": true,
                    "value": "0"
                },
                "nodeType": 0
            },
            "10": {
                "invocation": {
                    "address": "0xdc9ac3c20d1ed0b540df9b1fedc10039df13f99c",
                    "callData": "0x000000000000000000000000c0fc2e4cbaf48b36948971c4afd487a90272ddfe",
                    "decodedMethod": {
                        "callParams": [
                            {
                                "name": "account",
                                "type": "address",
                                "value": "0xc0fc2e4cbaf48b36948971c4afd487a90272ddfe"
                            }
                        ],
                        "constructorArguments": "",
                        "name": "balanceOf",
                        "returnParams": [
                            {
                                "decimalAvailable": true,
                                "name": "",
                                "type": "uint256",
                                "value": "522,735,584,860,512,057,313,301"
                            }
                        ],
                        "signature": "balanceOf(address)"
                    },
                    "errorInfo": "",
                    "fromAddress": "0xc0fc2e4cbaf48b36948971c4afd487a90272ddfe",
                    "gasUsed": 1219,
                    "id": 10,
                    "methodDecoded": true,
                    "operation": "STATICCALL",
                    "output": "0x000000000000000000000000000000000000000000006eb18d86bacf02b04815",
                    "revert": false,
                    "revertMessage": "",
                    "selector": "0x70a08231",
                    "status": true,
                    "value": "0"
                },
                "nodeType": 0
            },
            "11": {
                "event": {
                    "contract": "0xc0fc2e4cbaf48b36948971c4afd487a90272ddfe",
                    "decodedLog": {
                        "name": "Sync",
                        "params": [
                            {
                                "name": "reserve0",
                                "type": "uint112",
                                "value": "110,339,688,152,739,943,082"
                            },
                            {
                                "name": "reserve1",
                                "type": "uint112",
                                "value": "522,735,584,860,512,057,313,301"
                            }
                        ],
                        "signature": "Sync(uint112,uint112)"
                    },
                    "id": 11,
                    "logData": "0x000000000000000000000000000000000000000000000005fb4551c52b7112aa000000000000000000000000000000000000000000006eb18d86bacf02b04815",
                    "logDecoded": true,
                    "operation": "EVENT",
                    "revert": false,
                    "status": true,
                    "topics": [
                        "0x1c411e9a96e071241c2f21f7726b17ae89e3cab4c78be50e062b03a9fffbbad1"
                    ]
                },
                "nodeType": 1
            },
            "12": {
                "event": {
                    "contract": "0xc0fc2e4cbaf48b36948971c4afd487a90272ddfe",
                    "decodedLog": {
                        "name": "Swap",
                        "params": [
                            {
                                "name": "sender",
                                "type": "address",
                                "value": "0x7a250d5630b4cf539739df2c5dacb4c659f2488d"
                            },
                            {
                                "name": "to",
                                "type": "address",
                                "value": "0x8d9a7c5170af4249c37c489339da0fed0f7c7f5f"
                            },
                            {
                                "name": "amount0In",
                                "type": "uint256",
                                "value": "0"
                            },
                            {
                                "name": "amount1In",
                                "type": "uint256",
                                "value": "5,022,144,104,332,409,136,466"
                            },
                            {
                                "name": "amount0Out",
                                "type": "uint256",
                                "value": "1,067,152,879,168,463,754"
                            },
                            {
                                "name": "amount1Out",
                                "type": "uint256",
                                "value": "0"
                            }
                        ],
                        "signature": "Swap(address,uint256,uint256,uint256,uint256,address)"
                    },
                    "id": 12,
                    "logData": "0x000000000000000000000000000000000000000000000000000000000000000000000000000000000000000000000000000000000000011040400e6e338f65520000000000000000000000000000000000000000000000000ecf49e3bbdf238a0000000000000000000000000000000000000000000000000000000000000000",
                    "logDecoded": true,
                    "operation": "EVENT",
                    "revert": false,
                    "status": true,
                    "topics": [
                        "0xd78ad95fa46c994b6551d0da85fc275fe613ce37657fb8d5e3d130840159d822",
                        "0x0000000000000000000000007a250d5630b4cf539739df2c5dacb4c659f2488d",
                        "0x0000000000000000000000008d9a7c5170af4249c37c489339da0fed0f7c7f5f"
                    ]
                },
                "nodeType": 1
            },
            "13": {
                "invocation": {
                    "address": "0x8d9a7c5170af4249c37c489339da0fed0f7c7f5f",
                    "callData": "0x00000000000000000000000000000000000000000000009c987d904c737f7f3f0000000000000000000000000000000000000000000000000000000000000000000000000000000000000000b7bfbff2d670e5e7df5b6b978a72245dadf2588f00000000000000000000000000000000000000000000000000000000000000800000000000000000000000000000000000000000000000000000000000000000",
                    "decodedMethod": {
                        "callParams": [
                            {
                                "name": "amount0Out",
                                "type": "uint256",
                                "value": "2,888,680,172,822,573,580,095"
                            },
                            {
                                "name": "amount1Out",
                                "type": "uint256",
                                "value": "0"
                            },
                            {
                                "name": "to",
                                "type": "address",
                                "value": "0xb7bfbff2d670e5e7df5b6b978a72245dadf2588f"
                            },
                            {
                                "name": "data",
                                "type": "bytes",
                                "value": "0x"
                            }
                        ],
                        "constructorArguments": "",
                        "name": "swap",
                        "returnParams": [],
                        "signature": "swap(uint256,uint256,address,bytes)"
                    },
                    "errorInfo": "",
                    "fromAddress": "0x7a250d5630b4cf539739df2c5dacb4c659f2488d",
                    "gasUsed": 62871,
                    "id": 13,
                    "methodDecoded": true,
                    "operation": "CALL",
                    "output": "",
                    "revert": false,
                    "revertMessage": "",
                    "selector": "0x022c0d9f",
                    "status": true,
                    "value": "0"
                },
                "nodeType": 0
            },
            "14": {
                "invocation": {
                    "address": "0x8a40c222996f9f3431f63bf80244c36822060f12",
                    "callData": "0x000000000000000000000000b7bfbff2d670e5e7df5b6b978a72245dadf2588f00000000000000000000000000000000000000000000009c987d904c737f7f3f",
                    "decodedMethod": {
                        "callParams": [
                            {
                                "name": "recipient",
                                "type": "address",
                                "value": "0xb7bfbff2d670e5e7df5b6b978a72245dadf2588f"
                            },
                            {
                                "decimalAvailable": true,
                                "name": "amount",
                                "type": "uint256",
                                "value": "2,888,680,172,822,573,580,095"
                            }
                        ],
                        "constructorArguments": "",
                        "name": "transfer",
                        "returnParams": [
                            {
                                "name": "",
                                "type": "bool",
                                "value": true
                            }
                        ],
                        "signature": "transfer(address,uint256)"
                    },
                    "errorInfo": "",
                    "fromAddress": "0x8d9a7c5170af4249c37c489339da0fed0f7c7f5f",
                    "gasUsed": 18534,
                    "id": 14,
                    "methodDecoded": true,
                    "operation": "CALL",
                    "output": "0x0000000000000000000000000000000000000000000000000000000000000001",
                    "revert": false,
                    "revertMessage": "",
                    "selector": "0xa9059cbb",
                    "status": true,
                    "value": "0"
                },
                "nodeType": 0
            },
            "15": {
                "invocation": {
                    "address": "0x112706099899affa5a13dd7955f8258a54032397",
                    "callData": "0x000000000000000000000000b7bfbff2d670e5e7df5b6b978a72245dadf2588f00000000000000000000000000000000000000000000009c987d904c737f7f3f",
                    "decodedMethod": {
                        "callParams": [
                            {
                                "name": "recipient",
                                "type": "address",
                                "value": "0xb7bfbff2d670e5e7df5b6b978a72245dadf2588f"
                            },
                            {
                                "decimalAvailable": true,
                                "name": "amount",
                                "type": "uint256",
                                "value": "2,888,680,172,822,573,580,095"
                            }
                        ],
                        "constructorArguments": "",
                        "name": "transfer",
                        "returnParams": [
                            {
                                "name": "",
                                "type": "bool",
                                "value": true
                            }
                        ],
                        "signature": "transfer(address,uint256)"
                    },
                    "errorInfo": "",
                    "fromAddress": "0x8a40c222996f9f3431f63bf80244c36822060f12",
                    "gasUsed": 15788,
                    "id": 15,
                    "methodDecoded": true,
                    "operation": "DELEGATECALL",
                    "output": "0x0000000000000000000000000000000000000000000000000000000000000001",
                    "revert": false,
                    "revertMessage": "",
                    "selector": "0xa9059cbb",
                    "status": true,
                    "value": "0"
                },
                "nodeType": 0
            },
            "16": {
                "event": {
                    "contract": "0x8a40c222996f9f3431f63bf80244c36822060f12",
                    "decodedLog": {
                        "name": "Transfer",
                        "params": [
                            {
                                "name": "from",
                                "type": "address",
                                "value": "0x8d9a7c5170af4249c37c489339da0fed0f7c7f5f"
                            },
                            {
                                "name": "to",
                                "type": "address",
                                "value": "0xb7bfbff2d670e5e7df5b6b978a72245dadf2588f"
                            },
                            {
                                "decimalAvailable": true,
                                "name": "value",
                                "type": "uint256",
                                "value": "2,888,680,172,822,573,580,095"
                            }
                        ],
                        "signature": "Transfer(address,address,uint256)"
                    },
                    "id": 16,
                    "logData": "0x00000000000000000000000000000000000000000000009c987d904c737f7f3f",
                    "logDecoded": true,
                    "operation": "EVENT",
                    "revert": false,
                    "status": true,
                    "topics": [
                        "0xddf252ad1be2c89b69c2b068fc378daa952ba7f163c4a11628f55a4df523b3ef",
                        "0x0000000000000000000000008d9a7c5170af4249c37c489339da0fed0f7c7f5f",
                        "0x000000000000000000000000b7bfbff2d670e5e7df5b6b978a72245dadf2588f"
                    ]
                },
                "nodeType": 1
            },
            "17": {
                "invocation": {
                    "address": "0x8a40c222996f9f3431f63bf80244c36822060f12",
                    "callData": "0x0000000000000000000000008d9a7c5170af4249c37c489339da0fed0f7c7f5f",
                    "decodedMethod": {
                        "callParams": [
                            {
                                "name": "account",
                                "type": "address",
                                "value": "0x8d9a7c5170af4249c37c489339da0fed0f7c7f5f"
                            }
                        ],
                        "constructorArguments": "",
                        "name": "balanceOf",
                        "returnParams": [
                            {
                                "decimalAvailable": true,
                                "name": "",
                                "type": "uint256",
                                "value": "1,827,571,142,297,485,151,782,015"
                            }
                        ],
                        "signature": "balanceOf(address)"
                    },
                    "errorInfo": "",
                    "fromAddress": "0x8d9a7c5170af4249c37c489339da0fed0f7c7f5f",
                    "gasUsed": 4080,
                    "id": 17,
                    "methodDecoded": true,
                    "operation": "STATICCALL",
                    "output": "0x000000000000000000000000000000000000000000018300d48438a93ad3447f",
                    "revert": false,
                    "revertMessage": "",
                    "selector": "0x70a08231",
                    "status": true,
                    "value": "0"
                },
                "nodeType": 0
            },
            "18": {
                "invocation": {
                    "address": "0x112706099899affa5a13dd7955f8258a54032397",
                    "callData": "0x0000000000000000000000008d9a7c5170af4249c37c489339da0fed0f7c7f5f",
                    "decodedMethod": {
                        "callParams": [
                            {
                                "name": "account",
                                "type": "address",
                                "value": "0x8d9a7c5170af4249c37c489339da0fed0f7c7f5f"
                            }
                        ],
                        "constructorArguments": "",
                        "name": "balanceOf",
                        "returnParams": [
                            {
                                "decimalAvailable": true,
                                "name": "",
                                "type": "uint256",
                                "value": "1,827,571,142,297,485,151,782,015"
                            }
                        ],
                        "signature": "balanceOf(address)"
                    },
                    "errorInfo": "",
                    "fromAddress": "0x8a40c222996f9f3431f63bf80244c36822060f12",
                    "gasUsed": 1337,
                    "id": 18,
                    "methodDecoded": true,
                    "operation": "DELEGATECALL",
                    "output": "0x000000000000000000000000000000000000000000018300d48438a93ad3447f",
                    "revert": false,
                    "revertMessage": "",
                    "selector": "0x70a08231",
                    "status": true,
                    "value": "0"
                },
                "nodeType": 0
            },
            "19": {
                "invocation": {
                    "address": "0xc02aaa39b223fe8d0a0e5c4f27ead9083c756cc2",
                    "callData": "0x0000000000000000000000008d9a7c5170af4249c37c489339da0fed0f7c7f5f",
                    "decodedMethod": {
                        "callParams": [
                            {
                                "name": "",
                                "type": "address",
                                "value": "0x8d9a7c5170af4249c37c489339da0fed0f7c7f5f"
                            }
                        ],
                        "constructorArguments": "",
                        "name": "balanceOf",
                        "returnParams": [
                            {
                                "decimalAvailable": true,
                                "name": "",
                                "type": "uint256",
                                "value": "674,193,562,394,018,545,481"
                            }
                        ],
                        "signature": "balanceOf(address)"
                    },
                    "errorInfo": "",
                    "fromAddress": "0x8d9a7c5170af4249c37c489339da0fed0f7c7f5f",
                    "gasUsed": 1234,
                    "id": 19,
                    "methodDecoded": true,
                    "operation": "STATICCALL",
                    "output": "0x0000000000000000000000000000000000000000000000248c50b0f77ea17f49",
                    "revert": false,
                    "revertMessage": "",
                    "selector": "0x70a08231",
                    "status": true,
                    "value": "0"
                },
                "nodeType": 0
            },
            "2": {
                "invocation": {
                    "address": "0x8d9a7c5170af4249c37c489339da0fed0f7c7f5f",
                    "callData": "0x",
                    "decodedMethod": {
                        "callParams": [],
                        "constructorArguments": "",
                        "name": "getReserves",
                        "returnParams": [
                            {
                                "name": "_reserve0",
                                "type": "uint112",
                                "value": "1,830,459,822,470,307,725,362,110"
                            },
                            {
                                "name": "_reserve1",
                                "type": "uint112",
                                "value": "673,126,409,514,850,081,727"
                            },
                            {
                                "name": "_blockTimestampLast",
                                "type": "uint32",
                                "value": "1,614,224,635"
                            }
                        ],
                        "signature": "getReserves()"
                    },
                    "errorInfo": "",
                    "fromAddress": "0x7a250d5630b4cf539739df2c5dacb4c659f2488d",
                    "gasUsed": 1204,
                    "id": 2,
                    "methodDecoded": true,
                    "operation": "STATICCALL",
                    "output": "0x00000000000000000000000000000000000000000001839d6d01c8f5ae52c3be0000000000000000000000000000000000000000000000247d816713c2c25bbf0000000000000000000000000000000000000000000000000000000060371cfb",
                    "revert": false,
                    "revertMessage": "",
                    "selector": "0x0902f1ac",
                    "status": true,
                    "value": "0"
                },
                "nodeType": 0
            },
            "20": {
                "event": {
                    "contract": "0x8d9a7c5170af4249c37c489339da0fed0f7c7f5f",
                    "decodedLog": {
                        "name": "Sync",
                        "params": [
                            {
                                "name": "reserve0",
                                "type": "uint112",
                                "value": "1,827,571,142,297,485,151,782,015"
                            },
                            {
                                "name": "reserve1",
                                "type": "uint112",
                                "value": "674,193,562,394,018,545,481"
                            }
                        ],
                        "signature": "Sync(uint112,uint112)"
                    },
                    "id": 20,
                    "logData": "0x000000000000000000000000000000000000000000018300d48438a93ad3447f0000000000000000000000000000000000000000000000248c50b0f77ea17f49",
                    "logDecoded": true,
                    "operation": "EVENT",
                    "revert": false,
                    "status": true,
                    "topics": [
                        "0x1c411e9a96e071241c2f21f7726b17ae89e3cab4c78be50e062b03a9fffbbad1"
                    ]
                },
                "nodeType": 1
            },
            "21": {
                "event": {
                    "contract": "0x8d9a7c5170af4249c37c489339da0fed0f7c7f5f",
                    "decodedLog": {
                        "name": "Swap",
                        "params": [
                            {
                                "name": "sender",
                                "type": "address",
                                "value": "0x7a250d5630b4cf539739df2c5dacb4c659f2488d"
                            },
                            {
                                "name": "to",
                                "type": "address",
                                "value": "0xb7bfbff2d670e5e7df5b6b978a72245dadf2588f"
                            },
                            {
                                "name": "amount0In",
                                "type": "uint256",
                                "value": "0"
                            },
                            {
                                "name": "amount1In",
                                "type": "uint256",
                                "value": "1,067,152,879,168,463,754"
                            },
                            {
                                "name": "amount0Out",
                                "type": "uint256",
                                "value": "2,888,680,172,822,573,580,095"
                            },
                            {
                                "name": "amount1Out",
                                "type": "uint256",
                                "value": "0"
                            }
                        ],
                        "signature": "Swap(address,uint256,uint256,uint256,uint256,address)"
                    },
                    "id": 21,
                    "logData": "0x00000000000000000000000000000000000000000000000000000000000000000000000000000000000000000000000000000000000000000ecf49e3bbdf238a00000000000000000000000000000000000000000000009c987d904c737f7f3f0000000000000000000000000000000000000000000000000000000000000000",
                    "logDecoded": true,
                    "operation": "EVENT",
                    "revert": false,
                    "status": true,
                    "topics": [
                        "0xd78ad95fa46c994b6551d0da85fc275fe613ce37657fb8d5e3d130840159d822",
                        "0x0000000000000000000000007a250d5630b4cf539739df2c5dacb4c659f2488d",
                        "0x000000000000000000000000b7bfbff2d670e5e7df5b6b978a72245dadf2588f"
                    ]
                },
                "nodeType": 1
            },
            "3": {
                "invocation": {
                    "address": "0xdc9ac3c20d1ed0b540df9b1fedc10039df13f99c",
                    "callData": "0x000000000000000000000000b7bfbff2d670e5e7df5b6b978a72245dadf2588f000000000000000000000000c0fc2e4cbaf48b36948971c4afd487a90272ddfe00000000000000000000000000000000000000000000011040400e6e338f6552",
                    "decodedMethod": {
                        "callParams": [
                            {
                                "name": "sender",
                                "type": "address",
                                "value": "0xb7bfbff2d670e5e7df5b6b978a72245dadf2588f"
                            },
                            {
                                "name": "recipient",
                                "type": "address",
                                "value": "0xc0fc2e4cbaf48b36948971c4afd487a90272ddfe"
                            },
                            {
                                "decimalAvailable": true,
                                "name": "amount",
                                "type": "uint256",
                                "value": "5,022,144,104,332,409,136,466"
                            }
                        ],
                        "constructorArguments": "",
                        "name": "transferFrom",
                        "returnParams": [
                            {
                                "name": "",
                                "type": "bool",
                                "value": true
                            }
                        ],
                        "signature": "transferFrom(address,address,uint256)"
                    },
                    "errorInfo": "",
                    "fromAddress": "0x7a250d5630b4cf539739df2c5dacb4c659f2488d",
                    "gasUsed": 24085,
                    "id": 3,
                    "methodDecoded": true,
                    "operation": "CALL",
                    "output": "0x0000000000000000000000000000000000000000000000000000000000000001",
                    "revert": false,
                    "revertMessage": "",
                    "selector": "0x23b872dd",
                    "status": true,
                    "value": "0"
                },
                "nodeType": 0
            },
            "4": {
                "event": {
                    "contract": "0xdc9ac3c20d1ed0b540df9b1fedc10039df13f99c",
                    "decodedLog": {
                        "name": "Transfer",
                        "params": [
                            {
                                "name": "from",
                                "type": "address",
                                "value": "0xb7bfbff2d670e5e7df5b6b978a72245dadf2588f"
                            },
                            {
                                "name": "to",
                                "type": "address",
                                "value": "0xc0fc2e4cbaf48b36948971c4afd487a90272ddfe"
                            },
                            {
                                "decimalAvailable": true,
                                "name": "value",
                                "type": "uint256",
                                "value": "5,022,144,104,332,409,136,466"
                            }
                        ],
                        "signature": "Transfer(address,address,uint256)"
                    },
                    "id": 4,
                    "logData": "0x00000000000000000000000000000000000000000000011040400e6e338f6552",
                    "logDecoded": true,
                    "operation": "EVENT",
                    "revert": false,
                    "status": true,
                    "topics": [
                        "0xddf252ad1be2c89b69c2b068fc378daa952ba7f163c4a11628f55a4df523b3ef",
                        "0x000000000000000000000000b7bfbff2d670e5e7df5b6b978a72245dadf2588f",
                        "0x000000000000000000000000c0fc2e4cbaf48b36948971c4afd487a90272ddfe"
                    ]
                },
                "nodeType": 1
            },
            "5": {
                "event": {
                    "contract": "0xdc9ac3c20d1ed0b540df9b1fedc10039df13f99c",
                    "decodedLog": {
                        "name": "Approval",
                        "params": [
                            {
                                "name": "owner",
                                "type": "address",
                                "value": "0xb7bfbff2d670e5e7df5b6b978a72245dadf2588f"
                            },
                            {
                                "name": "spender",
                                "type": "address",
                                "value": "0x7a250d5630b4cf539739df2c5dacb4c659f2488d"
                            },
                            {
                                "decimalAvailable": true,
                                "name": "value",
                                "type": "uint256",
                                "value": "115,792,089,237,316,195,423,570,985,008,687,907,853,269,984,665,640,564,034,435,439,903,580,720,503,469"
                            }
                        ],
                        "signature": "Approval(address,address,uint256)"
                    },
                    "id": 5,
                    "logData": "0xfffffffffffffffffffffffffffffffffffffffffffffeefbfbff191cc709aad",
                    "logDecoded": true,
                    "operation": "EVENT",
                    "revert": false,
                    "status": true,
                    "topics": [
                        "0x8c5be1e5ebec7d5bd14f71427d1e84f3dd0314c0f7b2291e5b200ac8c7c3b925",
                        "0x000000000000000000000000b7bfbff2d670e5e7df5b6b978a72245dadf2588f",
                        "0x0000000000000000000000007a250d5630b4cf539739df2c5dacb4c659f2488d"
                    ]
                },
                "nodeType": 1
            },
            "6": {
                "invocation": {
                    "address": "0xc0fc2e4cbaf48b36948971c4afd487a90272ddfe",
                    "callData": "0x0000000000000000000000000000000000000000000000000ecf49e3bbdf238a00000000000000000000000000000000000000000000000000000000000000000000000000000000000000008d9a7c5170af4249c37c489339da0fed0f7c7f5f00000000000000000000000000000000000000000000000000000000000000800000000000000000000000000000000000000000000000000000000000000000",
                    "decodedMethod": {
                        "callParams": [
                            {
                                "name": "amount0Out",
                                "type": "uint256",
                                "value": "1,067,152,879,168,463,754"
                            },
                            {
                                "name": "amount1Out",
                                "type": "uint256",
                                "value": "0"
                            },
                            {
                                "name": "to",
                                "type": "address",
                                "value": "0x8d9a7c5170af4249c37c489339da0fed0f7c7f5f"
                            },
                            {
                                "name": "data",
                                "type": "bytes",
                                "value": "0x"
                            }
                        ],
                        "constructorArguments": "",
                        "name": "swap",
                        "returnParams": [],
                        "signature": "swap(uint256,uint256,address,bytes)"
                    },
                    "errorInfo": "",
                    "fromAddress": "0x7a250d5630b4cf539739df2c5dacb4c659f2488d",
                    "gasUsed": 56638,
                    "id": 6,
                    "methodDecoded": true,
                    "operation": "CALL",
                    "output": "",
                    "revert": false,
                    "revertMessage": "",
                    "selector": "0x022c0d9f",
                    "status": true,
                    "value": "0"
                },
                "nodeType": 0
            },
            "7": {
                "invocation": {
                    "address": "0xc02aaa39b223fe8d0a0e5c4f27ead9083c756cc2",
                    "callData": "0x0000000000000000000000008d9a7c5170af4249c37c489339da0fed0f7c7f5f0000000000000000000000000000000000000000000000000ecf49e3bbdf238a",
                    "decodedMethod": {
                        "callParams": [
                            {
                                "name": "dst",
                                "type": "address",
                                "value": "0x8d9a7c5170af4249c37c489339da0fed0f7c7f5f"
                            },
                            {
                                "decimalAvailable": true,
                                "name": "wad",
                                "type": "uint256",
                                "value": "1,067,152,879,168,463,754"
                            }
                        ],
                        "constructorArguments": "",
                        "name": "transfer",
                        "returnParams": [
                            {
                                "name": "",
                                "type": "bool",
                                "value": true
                            }
                        ],
                        "signature": "transfer(address,uint256)"
                    },
                    "errorInfo": "",
                    "fromAddress": "0xc0fc2e4cbaf48b36948971c4afd487a90272ddfe",
                    "gasUsed": 15162,
                    "id": 7,
                    "methodDecoded": true,
                    "operation": "CALL",
                    "output": "0x0000000000000000000000000000000000000000000000000000000000000001",
                    "revert": false,
                    "revertMessage": "",
                    "selector": "0xa9059cbb",
                    "status": true,
                    "value": "0"
                },
                "nodeType": 0
            },
            "8": {
                "event": {
                    "contract": "0xc02aaa39b223fe8d0a0e5c4f27ead9083c756cc2",
                    "decodedLog": {
                        "name": "Transfer",
                        "params": [
                            {
                                "name": "src",
                                "type": "address",
                                "value": "0xc0fc2e4cbaf48b36948971c4afd487a90272ddfe"
                            },
                            {
                                "name": "dst",
                                "type": "address",
                                "value": "0x8d9a7c5170af4249c37c489339da0fed0f7c7f5f"
                            },
                            {
                                "decimalAvailable": true,
                                "name": "wad",
                                "type": "uint256",
                                "value": "1,067,152,879,168,463,754"
                            }
                        ],
                        "signature": "Transfer(address,address,uint256)"
                    },
                    "id": 8,
                    "logData": "0x0000000000000000000000000000000000000000000000000ecf49e3bbdf238a",
                    "logDecoded": true,
                    "operation": "EVENT",
                    "revert": false,
                    "status": true,
                    "topics": [
                        "0xddf252ad1be2c89b69c2b068fc378daa952ba7f163c4a11628f55a4df523b3ef",
                        "0x000000000000000000000000c0fc2e4cbaf48b36948971c4afd487a90272ddfe",
                        "0x0000000000000000000000008d9a7c5170af4249c37c489339da0fed0f7c7f5f"
                    ]
                },
                "nodeType": 1
            },
            "9": {
                "invocation": {
                    "address": "0xc02aaa39b223fe8d0a0e5c4f27ead9083c756cc2",
                    "callData": "0x000000000000000000000000c0fc2e4cbaf48b36948971c4afd487a90272ddfe",
                    "decodedMethod": {
                        "callParams": [
                            {
                                "name": "",
                                "type": "address",
                                "value": "0xc0fc2e4cbaf48b36948971c4afd487a90272ddfe"
                            }
                        ],
                        "constructorArguments": "",
                        "name": "balanceOf",
                        "returnParams": [
                            {
                                "decimalAvailable": true,
                                "name": "",
                                "type": "uint256",
                                "value": "110,339,688,152,739,943,082"
                            }
                        ],
                        "signature": "balanceOf(address)"
                    },
                    "errorInfo": "",
                    "fromAddress": "0xc0fc2e4cbaf48b36948971c4afd487a90272ddfe",
                    "gasUsed": 1234,
                    "id": 9,
                    "methodDecoded": true,
                    "operation": "STATICCALL",
                    "output": "0x000000000000000000000000000000000000000000000005fb4551c52b7112aa",
                    "revert": false,
                    "revertMessage": "",
                    "selector": "0x70a08231",
                    "status": true,
                    "value": "0"
                },
                "nodeType": 0
            }
        },
        "gasFlame": [
            {
                "children": [
                    {
                        "children": [
                            {
                                "children": [],
                                "depth": 0,
                                "name": "Initial Gas",
                                "value": 23464
                            },
                            {
                                "children": [
                                    {
                                        "children": [],
                                        "depth": 1,
                                        "name": "getReserves",
                                        "value": 1204
                                    },
                                    {
                                        "children": [],
                                        "depth": 1,
                                        "name": "getReserves",
                                        "value": 1204
                                    },
                                    {
                                        "children": [],
                                        "depth": 1,
                                        "name": "transferFrom",
                                        "value": 24085
                                    },
                                    {
                                        "children": [
                                            {
                                                "children": [],
                                                "depth": 2,
                                                "name": "transfer",
                                                "value": 15162
                                            },
                                            {
                                                "children": [],
                                                "depth": 2,
                                                "name": "balanceOf",
                                                "value": 1234
                                            },
                                            {
                                                "children": [],
                                                "depth": 2,
                                                "name": "balanceOf",
                                                "value": 1219
                                            }
                                        ],
                                        "depth": 1,
                                        "name": "swap",
                                        "value": 56638
                                    },
                                    {
                                        "children": [
                                            {
                                                "children": [
                                                    {
                                                        "children": [],
                                                        "depth": 3,
                                                        "name": "transfer",
                                                        "value": 15788
                                                    }
                                                ],
                                                "depth": 2,
                                                "name": "transfer",
                                                "value": 18534
                                            },
                                            {
                                                "children": [
                                                    {
                                                        "children": [],
                                                        "depth": 3,
                                                        "name": "balanceOf",
                                                        "value": 1337
                                                    }
                                                ],
                                                "depth": 2,
                                                "name": "balanceOf",
                                                "value": 4080
                                            },
                                            {
                                                "children": [],
                                                "depth": 2,
                                                "name": "balanceOf",
                                                "value": 1234
                                            }
                                        ],
                                        "depth": 1,
                                        "name": "swap",
                                        "value": 62871
                                    }
                                ],
                                "depth": 0,
                                "name": "Executed Gas",
                                "value": 164220
                            }
                        ],
                        "depth": -1,
                        "name": "Actual Gas Used",
                        "value": 164284
                    },
                    {
                        "children": [],
                        "depth": -1,
                        "name": "Refunded Gas",
                        "value": 23400
                    }
                ],
                "depth": -2,
                "name": "Total Gas",
                "value": 187684
            }
        ],
        "isConfirmed": true,
        "mainTrace": [
            {
                "children": [
                    {
                        "children": [
                            {
                                "children": [],
                                "depth": 1,
                                "id": 1,
                                "order": 1
                            },
                            {
                                "children": [],
                                "depth": 1,
                                "id": 2,
                                "order": 2
                            },
                            {
                                "children": [
                                    {
                                        "children": [],
                                        "depth": 2,
                                        "id": 4,
                                        "order": 4
                                    },
                                    {
                                        "children": [],
                                        "depth": 2,
                                        "id": 5,
                                        "order": 5
                                    }
                                ],
                                "depth": 1,
                                "id": 3,
                                "order": 3
                            },
                            {
                                "children": [
                                    {
                                        "children": [
                                            {
                                                "children": [],
                                                "depth": 3,
                                                "id": 8,
                                                "order": 8
                                            }
                                        ],
                                        "depth": 2,
                                        "id": 7,
                                        "order": 7
                                    },
                                    {
                                        "children": [],
                                        "depth": 2,
                                        "id": 9,
                                        "order": 9
                                    },
                                    {
                                        "children": [],
                                        "depth": 2,
                                        "id": 10,
                                        "order": 10
                                    },
                                    {
                                        "children": [],
                                        "depth": 2,
                                        "id": 11,
                                        "order": 11
                                    },
                                    {
                                        "children": [],
                                        "depth": 2,
                                        "id": 12,
                                        "order": 12
                                    }
                                ],
                                "depth": 1,
                                "id": 6,
                                "order": 6
                            },
                            {
                                "children": [
                                    {
                                        "children": [
                                            {
                                                "children": [
                                                    {
                                                        "children": [],
                                                        "depth": 4,
                                                        "id": 16,
                                                        "order": 16
                                                    }
                                                ],
                                                "depth": 3,
                                                "id": 15,
                                                "order": 15
                                            }
                                        ],
                                        "depth": 2,
                                        "id": 14,
                                        "order": 14
                                    },
                                    {
                                        "children": [
                                            {
                                                "children": [],
                                                "depth": 3,
                                                "id": 18,
                                                "order": 18
                                            }
                                        ],
                                        "depth": 2,
                                        "id": 17,
                                        "order": 17
                                    },
                                    {
                                        "children": [],
                                        "depth": 2,
                                        "id": 19,
                                        "order": 19
                                    },
                                    {
                                        "children": [],
                                        "depth": 2,
                                        "id": 20,
                                        "order": 20
                                    },
                                    {
                                        "children": [],
                                        "depth": 2,
                                        "id": 21,
                                        "order": 21
                                    }
                                ],
                                "depth": 1,
                                "id": 13,
                                "order": 13
                            }
                        ],
                        "depth": 0,
                        "id": 0,
                        "order": 0
                    }
                ],
                "depth": -1,
                "id": -1,
                "order": -1
            }
        ],
        "mainTraceNodeCount": 22,
        "parentIdMap": {
            "0": -1,
            "1": 0,
            "10": 6,
            "11": 6,
            "12": 6,
            "13": 0,
            "14": 13,
            "15": 14,
            "16": 15,
            "17": 13,
            "18": 17,
            "19": 13,
            "2": 0,
            "20": 13,
            "21": 13,
            "3": 0,
            "4": 3,
            "5": 3,
            "6": 0,
            "7": 6,
            "8": 7,
            "9": 6
        },
        "tidyTrace": [
            {
                "children": [
                    {
                        "children": [
                            {
                                "children": [
                                    {
                                        "children": [],
                                        "depth": 2,
                                        "id": 4,
                                        "order": 4
                                    },
                                    {
                                        "children": [],
                                        "depth": 2,
                                        "id": 5,
                                        "order": 5
                                    }
                                ],
                                "depth": 1,
                                "id": 3,
                                "order": 3
                            },
                            {
                                "children": [
                                    {
                                        "children": [
                                            {
                                                "children": [],
                                                "depth": 3,
                                                "id": 8,
                                                "order": 8
                                            }
                                        ],
                                        "depth": 2,
                                        "id": 7,
                                        "order": 7
                                    },
                                    {
                                        "children": [],
                                        "depth": 2,
                                        "id": 11,
                                        "order": 11
                                    },
                                    {
                                        "children": [],
                                        "depth": 2,
                                        "id": 12,
                                        "order": 12
                                    }
                                ],
                                "depth": 1,
                                "id": 6,
                                "order": 6
                            },
                            {
                                "children": [
                                    {
                                        "children": [
                                            {
                                                "children": [
                                                    {
                                                        "children": [],
                                                        "depth": 4,
                                                        "id": 16,
                                                        "order": 16
                                                    }
                                                ],
                                                "depth": 3,
                                                "id": 15,
                                                "order": 15
                                            }
                                        ],
                                        "depth": 2,
                                        "id": 14,
                                        "order": 14
                                    },
                                    {
                                        "children": [],
                                        "depth": 2,
                                        "id": 20,
                                        "order": 20
                                    },
                                    {
                                        "children": [],
                                        "depth": 2,
                                        "id": 21,
                                        "order": 21
                                    }
                                ],
                                "depth": 1,
                                "id": 13,
                                "order": 13
                            }
                        ],
                        "depth": 0,
                        "id": 0,
                        "order": 0
                    }
                ],
                "depth": -1,
                "id": -1,
                "order": -1
            }
        ],
        "tidyTraceNodeCount": 15
    },
    "state_change": {
        "stateChanges": [
            {
                "address": "0x8a40c222996f9f3431f63bf80244c36822060f12",
                "erc": "ERC-20",
                "slots": [
                    {
                        "current": "0x000000000000000000000000000000000000000000018300d48438a93ad3447f",
                        "key": "0x043dc73abe8edaa1ee43d1a5e77656b2b078cb4fb0a21af8879d39a09b5449a8",
                        "prev": "0x00000000000000000000000000000000000000000001839d6d01c8f5ae52c3be"
                    },
                    {
                        "current": "0x0000000000000000000000000000000000000000000003d063ccb18b4b93b604",
                        "key": "0xe35ddee3a10372b4818019ae7efb9a4df1a2dadc72b4150bccec0c6c08e5e7d3",
                        "prev": "0x000000000000000000000000000000000000000000000333cb4f213ed81436c5"
                    }
                ],
                "storageVariables": [
                    {
                        "name": "_balances",
                        "type": "mapping(address => uint256)",
                        "value": {
                            "pairs": [
                                {
                                    "key": "0x8d9a7c5170af4249c37c489339da0fed0f7c7f5f",
                                    "value": {
                                        "current": "1827571142297485151782015",
                                        "prev": "1830459822470307725362110",
                                        "typeTag": 1
                                    }
                                },
                                {
                                    "key": "0xb7bfbff2d670e5e7df5b6b978a72245dadf2588f",
                                    "value": {
                                        "current": "18011213533857352758788",
                                        "prev": "15122533361034779178693",
                                        "typeTag": 1
                                    }
                                }
                            ],
                            "typeTag": 4
                        }
                    }
                ]
            },
            {
                "address": "0x8d9a7c5170af4249c37c489339da0fed0f7c7f5f",
                "erc": "ERC-20",
                "slots": [
                    {
                        "current": "0x0000000000000000000000000000000001c4bef51342733e6bccc58e77d1590e",
                        "key": "0x0000000000000000000000000000000000000000000000000000000000000009",
                        "prev": "0x0000000000000000000000000000000001c4b6f494157e1ee9e426163005ef2c"
                    },
                    {
                        "current": "0x00000000000000000000000000011503c3059d92fda6911e557bd21e6a39f032",
                        "key": "0x000000000000000000000000000000000000000000000000000000000000000a",
                        "prev": "0x000000000000000000000000000115003c1daf06f5988550ee47a3f0782e1589"
                    },
                    {
                        "current": "0x60371d500000000000248c50b0f77ea17f49000000018300d48438a93ad3447f",
                        "key": "0x0000000000000000000000000000000000000000000000000000000000000008",
                        "prev": "0x60371cfb0000000000247d816713c2c25bbf00000001839d6d01c8f5ae52c3be"
                    }
                ],
                "storageVariables": [
                    {
                        "name": "price0CumulativeLast",
                        "type": "uint256",
                        "value": {
                            "current": "2350791254742800414550629820306381070",
                            "prev": "2350628956107024656815094318049390380",
                            "typeTag": 1
                        }
                    },
                    {
                        "name": "price1CumulativeLast",
                        "type": "uint256",
                        "value": {
                            "current": "24131383278814997608349433079318538543034418",
                            "prev": "24130183110903917371405021990811277298898313",
                            "typeTag": 1
                        }
                    },
                    {
                        "name": "reserve0",
                        "type": "uint112",
                        "value": {
                            "current": "1827571142297485151782015",
                            "prev": "1830459822470307725362110",
                            "typeTag": 1
                        }
                    },
                    {
                        "name": "reserve1",
                        "type": "uint112",
                        "value": {
                            "current": "674193562394018545481",
                            "prev": "673126409514850081727",
                            "typeTag": 1
                        }
                    },
                    {
                        "name": "blockTimestampLast",
                        "type": "uint32",
                        "value": {
                            "current": "1614224720",
                            "prev": "1614224635",
                            "typeTag": 1
                        }
                    }
                ]
            },
            {
                "address": "0xc02aaa39b223fe8d0a0e5c4f27ead9083c756cc2",
                "erc": "ERC-20",
                "slots": [
                    {
                        "current": "0x000000000000000000000000000000000000000000000005fb4551c52b7112aa",
                        "key": "0x91b45f58011b9ae1e309dbc732e975f68bccd8ca9fccbb4e2f2da202b0aaa01c",
                        "prev": "0x0000000000000000000000000000000000000000000000060a149ba8e7503634"
                    },
                    {
                        "current": "0x0000000000000000000000000000000000000000000000248c50b0f77ea17f49",
                        "key": "0x1468017281297599105e64af6b3e74a2829ad836f31e7cf5c65fddf7862847db",
                        "prev": "0x0000000000000000000000000000000000000000000000247d816713c2c25bbf"
                    }
                ],
                "storageVariables": [
                    {
                        "name": "balanceOf",
                        "type": "mapping(address => uint256)",
                        "value": {
                            "pairs": [
                                {
                                    "key": "0x8d9a7c5170af4249c37c489339da0fed0f7c7f5f",
                                    "value": {
                                        "current": "674193562394018545481",
                                        "prev": "673126409514850081727",
                                        "typeTag": 1
                                    }
                                },
                                {
                                    "key": "0xc0fc2e4cbaf48b36948971c4afd487a90272ddfe",
                                    "value": {
                                        "current": "110339688152739943082",
                                        "prev": "111406841031908406836",
                                        "typeTag": 1
                                    }
                                }
                            ],
                            "typeTag": 4
                        }
                    }
                ]
            },
            {
                "address": "0xc0fc2e4cbaf48b36948971c4afd487a90272ddfe",
                "erc": "ERC-20",
                "slots": [
                    {
                        "current": "0x000000000000000000000000000000000ba145b8fa99d907c4bdc29af36255f1",
                        "key": "0x000000000000000000000000000000000000000000000000000000000000000a",
                        "prev": "0x000000000000000000000000000000000ba0e03fccf11d23884bf2b1d2bee9ff"
                    },
                    {
                        "current": "0x60371d50000000006eb18d86bacf02b04815000000000005fb4551c52b7112aa",
                        "key": "0x0000000000000000000000000000000000000000000000000000000000000008",
                        "prev": "0x6037161e000000006da14d46ac60cf20e2c30000000000060a149ba8e7503634"
                    },
                    {
                        "current": "0x000000000000000000000000000d93ff5bda945401981849a9ee2b162e7a00ef",
                        "key": "0x0000000000000000000000000000000000000000000000000000000000000009",
                        "prev": "0x000000000000000000000000000d937cbedbd8fbd8c6e95b94b5aa0cc3d17417"
                    }
                ],
                "storageVariables": [
                    {
                        "name": "reserve0",
                        "type": "uint112",
                        "value": {
                            "current": "110339688152739943082",
                            "prev": "111406841031908406836",
                            "typeTag": 1
                        }
                    },
                    {
                        "name": "reserve1",
                        "type": "uint112",
                        "value": {
                            "current": "522735584860512057313301",
                            "prev": "517713440756179648176835",
                            "typeTag": 1
                        }
                    },
                    {
                        "name": "blockTimestampLast",
                        "type": "uint32",
                        "value": {
                            "current": "1614224720",
                            "prev": "1614222878",
                            "typeTag": 1
                        }
                    },
                    {
                        "name": "price0CumulativeLast",
                        "type": "uint256",
                        "value": {
                            "current": "302802087711108480273486144044835604667171055",
                            "prev": "302757642321198218452041887208559891591558167",
                            "typeTag": 1
                        }
                    },
                    {
                        "name": "price1CumulativeLast",
                        "type": "uint256",
                        "value": {
                            "current": "15458881889659979442600654991213614577",
                            "prev": "15456823765551534125501765361791330815",
                            "typeTag": 1
                        }
                    }
                ]
            },
            {
                "address": "0xdc9ac3c20d1ed0b540df9b1fedc10039df13f99c",
                "erc": "ERC-20",
                "slots": [
                    {
                        "current": "0xfffffffffffffffffffffffffffffffffffffffffffffeefbfbff191cc709aad",
                        "key": "0xbad2cb0c1839aea47a0c788f124d95c6f1068f42a06ed406e0a8a10bfb8e311a",
                        "prev": "0xffffffffffffffffffffffffffffffffffffffffffffffffffffffffffffffff"
                    },
                    {
                        "current": "0x0000000000000000000000000000000000000000000000000000000000000000",
                        "key": "0xf3e5ce689198e83fd329398ceadf4d266a2eef3d78209aae21be590bdc93a180",
                        "prev": "0x00000000000000000000000000000000000000000000011040400e6e338f6552"
                    },
                    {
                        "current": "0x000000000000000000000000000000000000000000006eb18d86bacf02b04815",
                        "key": "0x55fd66da88b8f5bf9115b9fa71a2764618febdd2375197fbd768560a0a52c59f",
                        "prev": "0x000000000000000000000000000000000000000000006da14d46ac60cf20e2c3"
                    }
                ],
                "storageVariables": [
                    {
                        "name": "_allowances",
                        "type": "mapping(address => mapping(address => uint256))",
                        "value": {
                            "pairs": [
                                {
                                    "key": "0xb7bfbff2d670e5e7df5b6b978a72245dadf2588f",
                                    "value": {
                                        "pairs": [
                                            {
                                                "key": "0x7a250d5630b4cf539739df2c5dacb4c659f2488d",
                                                "value": {
                                                    "current": "115792089237316195423570985008687907853269984665640564034435439903580720503469",
                                                    "prev": "115792089237316195423570985008687907853269984665640564039457584007913129639935",
                                                    "typeTag": 1
                                                }
                                            }
                                        ],
                                        "typeTag": 4
                                    }
                                }
                            ],
                            "typeTag": 4
                        }
                    },
                    {
                        "name": "_balances",
                        "type": "mapping(address => uint256)",
                        "value": {
                            "pairs": [
                                {
                                    "key": "0xb7bfbff2d670e5e7df5b6b978a72245dadf2588f",
                                    "value": {
                                        "current": "0",
                                        "prev": "5022144104332409136466",
                                        "typeTag": 1
                                    }
                                },
                                {
                                    "key": "0xc0fc2e4cbaf48b36948971c4afd487a90272ddfe",
                                    "value": {
                                        "current": "522735584860512057313301",
                                        "prev": "517713440756179648176835",
                                        "typeTag": 1
                                    }
                                }
                            ],
                            "typeTag": 4
                        }
                    }
                ]
            }
        ]
    }
}