{
    "balance_change": {
        "balanceChanges": [
            {
                "account": "0x45ed0543a608dcfeb3f77ddd86e630ac82b8457f",
                "assets": [
                    {
                        "address": "0xeeeeeeeeeeeeeeeeeeeeeeeeeeeeeeeeeeeeeeee",
                        "amount": "0.064267151440878224",
                        "iconUrl": "https://assets.blocksec.com/image/1663669189317-3.png",
                        "isERC1155": false,
                        "isERC721": false,
                        "sign": false,
                        "value": "107.24323827944240234"
                    }
                ]
            },
            {
                "account": "0xae0ee0a63a2ce6baeeffe56e7714fb4efe48d419",
                "assets": [
                    {
                        "address": "0xeeeeeeeeeeeeeeeeeeeeeeeeeeeeeeeeeeeeeeee",
                        "amount": "0.0641",
                        "iconUrl": "https://assets.blocksec.com/image/1663669189317-3.png",
                        "isERC1155": false,
                        "isERC721": false,
                        "sign": true,
                        "value": "106.96431100000000233"
                    }
                ]
            },
            {
                "account": "0xc662c410c0ecf747543f5ba90660f6abebd9c8c4",
                "assets": [
                    {
                        "address": "0xeeeeeeeeeeeeeeeeeeeeeeeeeeeeeeeeeeeeeeee",
                        "amount": "0.000167151440878224",
                        "iconUrl": "https://assets.blocksec.com/image/1663669189317-3.png",
                        "isERC1155": false,
                        "isERC721": false,
                        "sign": true,
                        "value": "0.27892728094423900606"
                    }
                ]
            }
        ]
    },
    "profile": {
        "basic_info": {
            "baseFee": "7.930011403",
            "blockNumber": 18240813,
            "callData": "0xe2bbb15800000000000000000000000000000000000000000000000000e3ba9c421a400006d31b62f808fb827589c7c1e64583f0bb5432ca4d4bf4342c9d902011156fbe",
            "debugEnable": true,
            "errorInfo": "",
            "eventCount": 2,
            "feeRecipient": "0x4838b106fce9647bdf1e7877bf73ce8b0bad5f97",
            "formatValue": "0.064267151440878224",
            "gasLimit": 117230,
            "gasPrice": "8.030011403",
            "gasUsed": 115855,
            "intTxnCount": 3,
            "internalRevert": false,
            "internalRevertMessage": "",
            "isContractCreation": false,
            "isFlashloan": false,
            "maxFee": "9.196120452",
            "nonce": 5,
            "overwritedBlockNumber": -1,
            "priorityFee": "0.1",
            "receiver": "0xae0ee0a63a2ce6baeeffe56e7714fb4efe48d419",
            "revertMessage": "",
            "sender": "0x45ed0543a608dcfeb3f77ddd86e630ac82b8457f",
            "simulationEnable": true,
            "sourceTxnHash": "0x7f99f85ef9655a9d0e86d7e52aec655c17ab1bf205be6675b0d5e6e1725e09e4",
            "status": true,
            "timestamp": "2023-09-29T10:35:59Z",
            "transactionFee": "0.000930316971094565",
            "txnHash": "0x7f99f85ef9655a9d0e86d7e52aec655c17ab1bf205be6675b0d5e6e1725e09e4",
            "txnIndex": 53,
            "type": 2,
            "value": "64267151440878224"
        },
        "fund_flow": [
            {
                "amount": "0.064267151440878224",
                "from": "0x45ed0543a608dcfeb3f77ddd86e630ac82b8457f",
                "id": 1,
                "isERC1155": false,
                "isERC721": false,
                "isReverted": false,
                "order": 1,
                "to": "0xae0ee0a63a2ce6baeeffe56e7714fb4efe48d419",
                "token": "0xeeeeeeeeeeeeeeeeeeeeeeeeeeeeeeeeeeeeeeee"
            },
            {
                "amount": "0.000167151440878224",
                "from": "0xae0ee0a63a2ce6baeeffe56e7714fb4efe48d419",
                "id": 2,
                "isERC1155": false,
                "isERC721": false,
                "isReverted": false,
                "order": 2,
                "to": "0xc662c410c0ecf747543f5ba90660f6abebd9c8c4",
                "token": "0xeeeeeeeeeeeeeeeeeeeeeeeeeeeeeeeeeeeeeeee"
            }
        ],
        "token_infos": [
            {
                "address": "0xc02aaa39b223fe8d0a0e5c4f27ead9083c756cc2",
                "decimals": 18
            },
            {
                "address": "0xeeeeeeeeeeeeeeeeeeeeeeeeeeeeeeeeeeeeeeee",
                "decimals": 18
            }
        ]
    },
    "address_label": {
        "labels": [
            {
                "address": "0x16938e4b59297060484fa56a12594d8d6f4177e8",
                "label": "Starknet"
            },
            {
                "address": "0x0000000000000000000000000000000000000003",
                "label": "Precompiled"
            },
            {
                "address": "0x0000000000000000000000000000000000000004",
                "label": "Precompiled"
            },
            {
                "address": "0xeeeeeeeeeeeeeeeeeeeeeeeeeeeeeeeeeeeeeeee",
                "label": "Ether"
            },
            {
                "address": "0xc662c410c0ecf747543f5ba90660f6abebd9c8c4",
                "label": "Starknet: Core Contract"
            },
            {
                "address": "0xae0ee0a63a2ce6baeeffe56e7714fb4efe48d419",
                "label": "StarkNet: StarkGate ETH Bridge"
            },
            {
                "address": "0x455603ad9ae671f6c1f0f746f24d7904ca603581",
                "label": "StarknetEthBridge"
            },
            {
                "address": "0x0000000000000000000000000000000000000001",
                "label": "Precompiled"
            },
            {
                "address": "0x0000000000000000000000000000000000000002",
                "label": "Precompiled"
            }
        ]
    },
    "trace": {
        "accountLabels": null,
        "dataMap": {
            "-1": {
                "invocation": {
                    "address": "0x45ed0543a608dcfeb3f77ddd86e630ac82b8457f",
                    "callData": "",
                    "decodedMethod": null,
                    "errorInfo": "",
                    "fromAddress": "",
                    "gasUsed": 0,
                    "id": -1,
                    "methodDecoded": false,
                    "operation": "",
                    "output": "",
                    "revert": false,
                    "revertMessage": "",
                    "selector": "",
                    "status": false,
                    "value": ""
                },
                "nodeType": 0
            },
            "0": {
                "invocation": {
                    "address": "0xae0ee0a63a2ce6baeeffe56e7714fb4efe48d419",
                    "callData": "0x00000000000000000000000000000000000000000000000000e3ba9c421a400006d31b62f808fb827589c7c1e64583f0bb5432ca4d4bf4342c9d902011156fbe",
                    "decodedMethod": {
                        "callParams": [
                            {
                                "name": "amount",
                                "type": "uint256",
                                "value": "64,100,000,000,000,000"
                            },
                            {
                                "name": "l2Recipient",
                                "type": "uint256",
                                "value": "3,086,870,837,515,117,653,038,169,053,262,734,218,728,277,935,690,886,921,286,820,632,696,194,428,862"
                            }
                        ],
                        "constructorArguments": "",
                        "name": "deposit",
                        "returnParams": [],
                        "signature": "deposit(uint256,uint256)"
                    },
                    "errorInfo": "",
                    "fromAddress": "0x45ed0543a608dcfeb3f77ddd86e630ac82b8457f",
                    "gasUsed": 115855,
                    "id": 0,
                    "methodDecoded": true,
                    "operation": "CALL",
                    "output": "",
                    "revert": false,
                    "revertMessage": "",
                    "selector": "0xe2bbb158",
                    "status": true,
                    "value": "0.064267151440878224"
                },
                "nodeType": 0
            },
            "1": {
                "invocation": {
                    "address": "0x455603ad9ae671f6c1f0f746f24d7904ca603581",
                    "callData": "0x00000000000000000000000000000000000000000000000000e3ba9c421a400006d31b62f808fb827589c7c1e64583f0bb5432ca4d4bf4342c9d902011156fbe",
                    "decodedMethod": {
                        "callParams": [
                            {
                                "name": "amount",
                                "type": "uint256",
                                "value": "64,100,000,000,000,000"
                            },
                            {
                                "name": "l2Recipient",
                                "type": "uint256",
                                "value": "3,086,870,837,515,117,653,038,169,053,262,734,218,728,277,935,690,886,921,286,820,632,696,194,428,862"
                            }
                        ],
                        "constructorArguments": "",
                        "name": "deposit",
                        "returnParams": [],
                        "signature": "deposit(uint256,uint256)"
                    },
                    "errorInfo": "",
                    "fromAddress": "0xae0ee0a63a2ce6baeeffe56e7714fb4efe48d419",
                    "gasUsed": 89037,
                    "id": 1,
                    "methodDecoded": true,
                    "operation": "DELEGATECALL",
                    "output": "",
                    "revert": false,
                    "revertMessage": "",
                    "selector": "0xe2bbb158",
                    "status": true,
                    "value": "0.064267151440878224"
                },
                "nodeType": 0
            },
            "2": {
                "invocation": {
                    "address": "0xc662c410c0ecf747543f5ba90660f6abebd9c8c4",
                    "callData": "0x073314940630fd6dcda0d772d4c972c4e0a9946bef9dabf4ef84eda8ef542b8202d757788a8d8d6f21d1cd40bce38a8222d70654214e96ff95d8086e684fbee50000000000000000000000000000000000000000000000000000000000000060000000000000000000000000000000000000000000000000000000000000000306d31b62f808fb827589c7c1e64583f0bb5432ca4d4bf4342c9d902011156fbe00000000000000000000000000000000000000000000000000e3ba9c421a40000000000000000000000000000000000000000000000000000000000000000000",
                    "decodedMethod": {
                        "callParams": [
                            {
                                "name": "toAddress",
                                "type": "uint256",
                                "value": "3,256,441,166,037,631,918,262,930,812,410,838,598,500,200,462,657,642,943,867,372,734,773,841,898,370"
                            },
                            {
                                "name": "selector",
                                "type": "uint256",
                                "value": "1,285,101,517,810,983,806,491,589,552,491,143,496,277,809,242,732,141,897,358,598,292,095,611,420,389"
                            },
                            {
                                "name": "payload",
                                "type": "uint256[]",
                                "value": [
                                    "3,086,870,837,515,117,653,038,169,053,262,734,218,728,277,935,690,886,921,286,820,632,696,194,428,862",
                                    "64,100,000,000,000,000",
                                    "0"
                                ]
                            }
                        ],
                        "constructorArguments": "",
                        "name": "sendMessageToL2",
                        "returnParams": [
                            {
                                "name": "",
                                "type": "bytes32",
                                "value": "0xae1ec2d195f32804408f9958885157cefa91d30c185864491dba59d7ba0c272d"
                            },
                            {
                                "name": "",
                                "type": "uint256",
                                "value": "1,349,649"
                            }
                        ],
                        "signature": "sendMessageToL2(uint256,uint256,uint256[])"
                    },
                    "errorInfo": "",
                    "fromAddress": "0xae0ee0a63a2ce6baeeffe56e7714fb4efe48d419",
                    "gasUsed": 39012,
                    "id": 2,
                    "methodDecoded": true,
                    "operation": "CALL",
                    "output": "0xae1ec2d195f32804408f9958885157cefa91d30c185864491dba59d7ba0c272d0000000000000000000000000000000000000000000000000000000000149811",
                    "revert": false,
                    "revertMessage": "",
                    "selector": "0x3e3aa6c5",
                    "status": true,
                    "value": "0.000167151440878224"
                },
                "nodeType": 0
            },
            "3": {
                "invocation": {
                    "address": "0x16938e4b59297060484fa56a12594d8d6f4177e8",
                    "callData": "0x073314940630fd6dcda0d772d4c972c4e0a9946bef9dabf4ef84eda8ef542b8202d757788a8d8d6f21d1cd40bce38a8222d70654214e96ff95d8086e684fbee50000000000000000000000000000000000000000000000000000000000000060000000000000000000000000000000000000000000000000000000000000000306d31b62f808fb827589c7c1e64583f0bb5432ca4d4bf4342c9d902011156fbe00000000000000000000000000000000000000000000000000e3ba9c421a40000000000000000000000000000000000000000000000000000000000000000000",
                    "decodedMethod": {
                        "callParams": [
                            {
                                "name": "toAddress",
                                "type": "uint256",
                                "value": "3,256,441,166,037,631,918,262,930,812,410,838,598,500,200,462,657,642,943,867,372,734,773,841,898,370"
                            },
                            {
                                "name": "selector",
                                "type": "uint256",
                                "value": "1,285,101,517,810,983,806,491,589,552,491,143,496,277,809,242,732,141,897,358,598,292,095,611,420,389"
                            },
                            {
                                "name": "payload",
                                "type": "uint256[]",
                                "value": [
                                    "3,086,870,837,515,117,653,038,169,053,262,734,218,728,277,935,690,886,921,286,820,632,696,194,428,862",
                                    "64,100,000,000,000,000",
                                    "0"
                                ]
                            }
                        ],
                        "constructorArguments": "",
                        "name": "sendMessageToL2",
                        "returnParams": [
                            {
                                "name": "",
                                "type": "bytes32",
                                "value": "0xae1ec2d195f32804408f9958885157cefa91d30c185864491dba59d7ba0c272d"
                            },
                            {
                                "name": "",
                                "type": "uint256",
                                "value": "1,349,649"
                            }
                        ],
                        "signature": "sendMessageToL2(uint256,uint256,uint256[])"
                    },
                    "errorInfo": "",
                    "fromAddress": "0xc662c410c0ecf747543f5ba90660f6abebd9c8c4",
                    "gasUsed": 33954,
                    "id": 3,
                    "methodDecoded": true,
                    "operation": "DELEGATECALL",
                    "output": "0xae1ec2d195f32804408f9958885157cefa91d30c185864491dba59d7ba0c272d0000000000000000000000000000000000000000000000000000000000149811",
                    "revert": false,
                    "revertMessage": "",
                    "selector": "0x3e3aa6c5",
                    "status": true,
                    "value": "0.000167151440878224"
                },
                "nodeType": 0
            },
            "4": {
                "event": {
                    "contract": "0xc662c410c0ecf747543f5ba90660f6abebd9c8c4",
                    "decodedLog": {
                        "name": "LogMessageToL2",
                        "params": [
                            {
                                "name": "fromAddress",
                                "type": "address",
                                "value": "0xae0ee0a63a2ce6baeeffe56e7714fb4efe48d419"
                            },
                            {
                                "name": "toAddress",
                                "type": "uint256",
                                "value": "3,256,441,166,037,631,918,262,930,812,410,838,598,500,200,462,657,642,943,867,372,734,773,841,898,370"
                            },
                            {
                                "name": "selector",
                                "type": "uint256",
                                "value": "1,285,101,517,810,983,806,491,589,552,491,143,496,277,809,242,732,141,897,358,598,292,095,611,420,389"
                            },
                            {
                                "name": "payload",
                                "type": "uint256[]",
                                "value": [
                                    "3,086,870,837,515,117,653,038,169,053,262,734,218,728,277,935,690,886,921,286,820,632,696,194,428,862",
                                    "64,100,000,000,000,000",
                                    "0"
                                ]
                            },
                            {
                                "name": "nonce",
                                "type": "uint256",
                                "value": "1,349,649"
                            },
                            {
                                "name": "fee",
                                "type": "uint256",
                                "value": "167,151,440,878,224"
                            }
                        ],
                        "signature": "LogMessageToL2(address,uint256,uint256,uint256[],uint256,uint256)"
                    },
                    "id": 4,
                    "logData": "0x0000000000000000000000000000000000000000000000000000000000000060000000000000000000000000000000000000000000000000000000000014981100000000000000000000000000000000000000000000000000009805fa41da90000000000000000000000000000000000000000000000000000000000000000306d31b62f808fb827589c7c1e64583f0bb5432ca4d4bf4342c9d902011156fbe00000000000000000000000000000000000000000000000000e3ba9c421a40000000000000000000000000000000000000000000000000000000000000000000",
                    "logDecoded": true,
                    "operation": "EVENT",
                    "revert": false,
                    "status": true,
                    "topics": [
                        "0xdb80dd488acf86d17c747445b0eabb5d57c541d3bd7b6b87af987858e5066b2b",
                        "0x000000000000000000000000ae0ee0a63a2ce6baeeffe56e7714fb4efe48d419",
                        "0x073314940630fd6dcda0d772d4c972c4e0a9946bef9dabf4ef84eda8ef542b82",
                        "0x02d757788a8d8d6f21d1cd40bce38a8222d70654214e96ff95d8086e684fbee5"
                    ]
                },
                "nodeType": 1
            },
            "5": {
                "event": {
                    "contract": "0xae0ee0a63a2ce6baeeffe56e7714fb4efe48d419",
                    "decodedLog": {
                        "name": "LogDeposit",
                        "params": [
                            {
                                "name": "sender",
                                "type": "address",
                                "value": "0x45ed0543a608dcfeb3f77ddd86e630ac82b8457f"
                            },
                            {
                                "name": "l2Recipient",
                                "type": "uint256",
                                "value": "3,086,870,837,515,117,653,038,169,053,262,734,218,728,277,935,690,886,921,286,820,632,696,194,428,862"
                            },
                            {
                                "name": "amount",
                                "type": "uint256",
                                "value": "64,100,000,000,000,000"
                            },
                            {
                                "name": "nonce",
                                "type": "uint256",
                                "value": "1,349,649"
                            },
                            {
                                "name": "fee",
                                "type": "uint256",
                                "value": "167,151,440,878,224"
                            }
                        ],
                        "signature": "LogDeposit(address,uint256,uint256,uint256,uint256)"
                    },
                    "id": 5,
                    "logData": "0x00000000000000000000000000000000000000000000000000e3ba9c421a4000000000000000000000000000000000000000000000000000000000000014981100000000000000000000000000000000000000000000000000009805fa41da90",
                    "logDecoded": true,
                    "operation": "EVENT",
                    "revert": false,
                    "status": true,
                    "topics": [
                        "0x5b5dbc6c64043a15d3fe6943a6e443a826b78755edc257b2ec890c022225dbcf",
                        "0x00000000000000000000000045ed0543a608dcfeb3f77ddd86e630ac82b8457f",
                        "0x06d31b62f808fb827589c7c1e64583f0bb5432ca4d4bf4342c9d902011156fbe"
                    ]
                },
                "nodeType": 1
            }
        },
        "gasFlame": [
            {
                "children": [
                    {
                        "children": [
                            {
                                "children": [],
                                "depth": 0,
                                "name": "Initial Gas",
                                "value": 21776
                            },
                            {
                                "children": [
                                    {
                                        "children": [
                                            {
                                                "children": [
                                                    {
                                                        "children": [],
                                                        "depth": 3,
                                                        "name": "sendMessageToL2",
                                                        "value": 33954
                                                    }
                                                ],
                                                "depth": 2,
                                                "name": "sendMessageToL2",
                                                "value": 39012
                                            }
                                        ],
                                        "depth": 1,
                                        "name": "deposit",
                                        "value": 89037
                                    }
                                ],
                                "depth": 0,
                                "name": "Executed Gas",
                                "value": 94079
                            }
                        ],
                        "depth": -1,
                        "name": "Actual Gas Used",
                        "value": 115855
                    },
                    {
                        "children": [],
                        "depth": -1,
                        "name": "Refunded Gas",
                        "value": 0
                    }
                ],
                "depth": -2,
                "name": "Total Gas",
                "value": 115855
            }
        ],
        "isConfirmed": true,
        "mainTrace": [
            {
                "children": [
                    {
                        "children": [
                            {
                                "children": [
                                    {
                                        "children": [
                                            {
                                                "children": [
                                                    {
                                                        "children": [],
                                                        "depth": 4,
                                                        "id": 4,
                                                        "order": 4
                                                    }
                                                ],
                                                "depth": 3,
                                                "id": 3,
                                                "order": 3
                                            }
                                        ],
                                        "depth": 2,
                                        "id": 2,
                                        "order": 2
                                    },
                                    {
                                        "children": [],
                                        "depth": 2,
                                        "id": 5,
                                        "order": 5
                                    }
                                ],
                                "depth": 1,
                                "id": 1,
                                "order": 1
                            }
                        ],
                        "depth": 0,
                        "id": 0,
                        "order": 0
                    }
                ],
                "depth": -1,
                "id": -1,
                "order": -1
            }
        ],
        "mainTraceNodeCount": 6,
        "parentIdMap": {
            "0": -1,
            "1": 0,
            "2": 1,
            "3": 2,
            "4": 3,
            "5": 1
        },
        "tidyTrace": [
            {
                "children": [
                    {
                        "children": [
                            {
                                "children": [
                                    {
                                        "children": [
                                            {
                                                "children": [
                                                    {
                                                        "children": [],
                                                        "depth": 4,
                                                        "id": 4,
                                                        "order": 4
                                                    }
                                                ],
                                                "depth": 3,
                                                "id": 3,
                                                "order": 3
                                            }
                                        ],
                                        "depth": 2,
                                        "id": 2,
                                        "order": 2
                                    },
                                    {
                                        "children": [],
                                        "depth": 2,
                                        "id": 5,
                                        "order": 5
                                    }
                                ],
                                "depth": 1,
                                "id": 1,
                                "order": 1
                            }
                        ],
                        "depth": 0,
                        "id": 0,
                        "order": 0
                    }
                ],
                "depth": -1,
                "id": -1,
                "order": -1
            }
        ],
        "tidyTraceNodeCount": 6
    },
    "state_change": {
        "stateChanges": [
            {
                "address": "0xae0ee0a63a2ce6baeeffe56e7714fb4efe48d419",
                "erc": "",
                "slots": [
                    {
                        "current": "0x00000000000000000000000045ed0543a608dcfeb3f77ddd86e630ac82b8457f",
                        "key": "0xdf3c16ce145b0015a1729cb349da7c2e7b4844914bc477acd0b42344be769300",
                        "prev": "0x0000000000000000000000000000000000000000000000000000000000000000"
                    }
                ],
                "storageVariables": []
            },
            {
                "address": "0xc662c410c0ecf747543f5ba90660f6abebd9c8c4",
                "erc": "",
                "slots": [
                    {
                        "current": "0x00000000000000000000000000000000000000000000000000009805fa41da91",
                        "key": "0x7d20628db7cb7989c229fb82f4d89fe464f45964d529f7e36efa3006c933d943",
                        "prev": "0x0000000000000000000000000000000000000000000000000000000000000000"
                    },
                    {
                        "current": "0x0000000000000000000000000000000000000000000000000000000000149812",
                        "key": "0x40af3c5d10641ea6a095e7a9b843218461f4c8d604207c721ffceec9721b1ac5",
                        "prev": "0x0000000000000000000000000000000000000000000000000000000000149811"
                    }
                ],
                "storageVariables": []
            }
        ]
    }
}