{
    "balance_change": {
        "balanceChanges": []
    },
    "profile": {
        "basic_info": {
            "baseFee": "",
            "blockNumber": 4189069,
            "callData": "0x7357f5d2000000000000000000000000000000000000000000000000000000000000018600000000000000000000000000000000000000000000000000000000599bd670",
            "debugEnable": true,
            "errorInfo": "",
            "eventCount": 0,
            "feeRecipient": "0xb2930b35844a230f00e51431acae96fe543a0347",
            "formatValue": "0",
            "gasLimit": 50000,
            "gasPrice": "65",
            "gasUsed": 49984,
            "intTxnCount": 0,
            "internalRevert": false,
            "internalRevertMessage": "",
            "isContractCreation": false,
            "isFlashloan": false,
            "maxFee": "",
            "nonce": 0,
            "overwritedBlockNumber": -1,
            "priorityFee": "",
            "receiver": "0x09ca82135ac49d8f0e6ce9436b9f83c52796f006",
            "revertMessage": "",
            "sender": "0x68eec9119433a9c32b86c8f12c66ec955513a9db",
            "simulationEnable": true,
            "sourceTxnHash": "0x801bb7c0e6c4ae53d99e105a49036ee72f7e122d322dfd3deb7394e59124933c",
            "status": true,
            "timestamp": "2017-08-22T06:49:38Z",
            "transactionFee": "0.00324896",
            "txnHash": "0x801bb7c0e6c4ae53d99e105a49036ee72f7e122d322dfd3deb7394e59124933c",
            "txnIndex": 118,
            "type": 0,
            "value": "0"
        },
        "fund_flow": [],
        "token_infos": [
            {
                "address": "0xc02aaa39b223fe8d0a0e5c4f27ead9083c756cc2",
                "decimals": 18
            },
            {
                "address": "0xeeeeeeeeeeeeeeeeeeeeeeeeeeeeeeeeeeeeeeee",
                "decimals": 18
            }
        ]
    },
    "address_label": {
        "labels": [
            {
                "address": "0x0000000000000000000000000000000000000001",
                "label": "Precompiled"
            },
            {
                "address": "0x0000000000000000000000000000000000000002",
                "label": "Precompiled"
            },
            {
                "address": "0x0000000000000000000000000000000000000003",
                "label": "Precompiled"
            },
            {
                "address": "0x0000000000000000000000000000000000000004",
                "label": "Precompiled"
            },
            {
                "address": "0xeeeeeeeeeeeeeeeeeeeeeeeeeeeeeeeeeeeeeeee",
                "label": "Ether"
            }
        ]
    },
    "trace": {
        "accountLabels": null,
        "dataMap": {
            "-1": {
                "invocation": {
                    "address": "0x68eec9119433a9c32b86c8f12c66ec955513a9db",
                    "callData": "",
                    "decodedMethod": null,
                    "errorInfo": "",
                    "fromAddress": "",
                    "gasUsed": 0,
                    "id": -1,
                    "methodDecoded": false,
                    "operation": "",
                    "output": "",
                    "revert": false,
                    "revertMessage": "",
                    "selector": "",
                    "status": false,
                    "value": ""
                },
                "nodeType": 0
            },
            "0": {
                "invocation": {
                    "address": "0x09ca82135ac49d8f0e6ce9436b9f83c52796f006",
                    "callData": "0x000000000000000000000000000000000000000000000000000000000000018600000000000000000000000000000000000000000000000000000000599bd670",
                    "decodedMethod": {
                        "callParams": [
                            {
                                "name": "gasFee",
                                "type": "uint256",
                                "value": "390"
                            },
                            {
                                "name": "_deadline",
                                "type": "uint256",
                                "value": "1,503,385,200"
                            }
                        ],
                        "constructorArguments": "",
                        "name": "run",
                        "returnParams": [],
                        "signature": "run(uint256,uint256)"
                    },
                    "errorInfo": "",
                    "fromAddress": "0x68eec9119433a9c32b86c8f12c66ec955513a9db",
                    "gasUsed": 49984,
                    "id": 0,
                    "methodDecoded": true,
                    "operation": "CALL",
                    "output": "0x0000000000000000000000000000000000000000000000000000000000000186",
                    "revert": false,
                    "revertMessage": "",
                    "selector": "0x7357f5d2",
                    "status": true,
                    "value": "0"
                },
                "nodeType": 0
            }
        },
        "gasFlame": [
            {
                "children": [
                    {
                        "children": [
                            {
                                "children": [],
                                "depth": 0,
                                "name": "Initial Gas",
                                "value": 21912
                            },
                            {
                                "children": [],
                                "depth": 0,
                                "name": "Executed Gas",
                                "value": 28072
                            }
                        ],
                        "depth": -1,
                        "name": "Actual Gas Used",
                        "value": 49984
                    },
                    {
                        "children": [],
                        "depth": -1,
                        "name": "Refunded Gas",
                        "value": 0
                    }
                ],
                "depth": -2,
                "name": "Total Gas",
                "value": 49984
            }
        ],
        "isConfirmed": true,
        "mainTrace": [
            {
                "children": [
                    {
                        "children": [],
                        "depth": 0,
                        "id": 0,
                        "order": 0
                    }
                ],
                "depth": -1,
                "id": -1,
                "order": -1
            }
        ],
        "mainTraceNodeCount": 1,
        "parentIdMap": {
            "0": -1
        },
        "tidyTrace": [
            {
                "children": [
                    {
                        "children": [],
                        "depth": 0,
                        "id": 0,
                        "order": 0
                    }
                ],
                "depth": -1,
                "id": -1,
                "order": -1
            }
        ],
        "tidyTraceNodeCount": 1
    },
    "state_change": {
        "stateChanges": []
    }
}