{
    "balance_change": {
        "balanceChanges": [
            {
                "account": "0x0a3df862dd6bf4128a448596e70f9c42bd60144a",
                "assets": [
                    {
                        "address": "0xb72a91ac402eec1977a6b2bd02d3f0aa1a261b93",
                        "amount": "6,206.951040388783647725",
                        "iconUrl": "",
                        "isERC1155": false,
                        "isERC721": false,
                        "sign": false,
                        "value": "399.951216"
                    },
                    {
                        "address": "0x6b175474e89094c44da98b954eedeac495271d0f",
                        "amount": "400",
                        "iconUrl": "https://assets.blocksec.com/icon/39aead569b9c011cb6f69734d9abbc9ab6a80049fe93bbd12bb473a3e0e859a3.png",
                        "isERC1155": false,
                        "isERC721": false,
                        "sign": true,
                        "value": "400.39999999999995595"
                    }
                ]
            },
            {
                "account": "0xacf7f986b39b351ae210da9886c003e01a18560c",
                "assets": [
                    {
                        "address": "0xb72a91ac402eec1977a6b2bd02d3f0aa1a261b93",
                        "amount": "6,206.951040388783647725",
                        "iconUrl": "",
                        "isERC1155": false,
                        "isERC721": false,
                        "sign": true,
                        "value": "399.951216"
                    },
                    {
                        "address": "0x6b175474e89094c44da98b954eedeac495271d0f",
                        "amount": "400",
                        "iconUrl": "https://assets.blocksec.com/icon/39aead569b9c011cb6f69734d9abbc9ab6a80049fe93bbd12bb473a3e0e859a3.png",
                        "isERC1155": false,
                        "isERC721": false,
                        "sign": false,
                        "value": "400.39999999999995595"
                    }
                ]
            }
        ]
    },
    "profile": {
        "basic_info": {
            "baseFee": "11.3912832",
            "blockNumber": 16239641,
            "callData": "0x5ae401dc0000000000000000000000000000000000000000000000000000000063a4357f00000000000000000000000000000000000000000000000000000000000000400000000000000000000000000000000000000000000000000000000000000001000000000000000000000000000000000000000000000000000000000000002000000000000000000000000000000000000000000000000000000000000000e442712a67000000000000000000000000000000000000000000000015af1d78b58c400000000000000000000000000000000000000000000000000153d823104064dd592a00000000000000000000000000000000000000000000000000000000000000800000000000000000000000000a3df862dd6bf4128a448596e70f9c42bd60144a0000000000000000000000000000000000000000000000000000000000000002000000000000000000000000b72a91ac402eec1977a6b2bd02d3f0aa1a261b930000000000000000000000006b175474e89094c44da98b954eedeac495271d0f00000000000000000000000000000000000000000000000000000000",
            "debugEnable": true,
            "errorInfo": "",
            "eventCount": 5,
            "feeRecipient": "0xbd3afb0bb76683ecb4225f9dbc91f998713c3b01",
            "formatValue": "0",
            "gasLimit": 139879,
            "gasPrice": "12.8912832",
            "gasUsed": 110465,
            "intTxnCount": 9,
            "internalRevert": false,
            "internalRevertMessage": "",
            "isContractCreation": false,
            "isFlashloan": false,
            "maxFee": "16.885214213",
            "nonce": 54,
            "overwritedBlockNumber": -1,
            "priorityFee": "1.5",
            "receiver": "0x68b3465833fb72a70ecdf485e0e4c7bd8665fc45",
            "revertMessage": "",
            "sender": "0x0a3df862dd6bf4128a448596e70f9c42bd60144a",
            "simulationEnable": true,
            "sourceTxnHash": "0x80711297d37675914c6e7a02c38f358e9dbfc382813e7bd870e60ab64695fcf7",
            "status": true,
            "timestamp": "2022-12-22T10:27:11Z",
            "transactionFee": "0.001424035598688",
            "txnHash": "0x80711297d37675914c6e7a02c38f358e9dbfc382813e7bd870e60ab64695fcf7",
            "txnIndex": 71,
            "type": 2,
            "value": "0"
        },
        "fund_flow": [
            {
                "amount": "6,206.951040388783647725",
                "from": "0x0a3df862dd6bf4128a448596e70f9c42bd60144a",
                "id": 1,
                "isERC1155": false,
                "isERC721": false,
                "isReverted": false,
                "order": 1,
                "to": "0xacf7f986b39b351ae210da9886c003e01a18560c",
                "token": "0xb72a91ac402eec1977a6b2bd02d3f0aa1a261b93"
            },
            {
                "amount": "400",
                "from": "0xacf7f986b39b351ae210da9886c003e01a18560c",
                "id": 2,
                "isERC1155": false,
                "isERC721": false,
                "isReverted": false,
                "order": 2,
                "to": "0x0a3df862dd6bf4128a448596e70f9c42bd60144a",
                "token": "0x6b175474e89094c44da98b954eedeac495271d0f"
            }
        ],
        "token_infos": [
            {
                "address": "0xeeeeeeeeeeeeeeeeeeeeeeeeeeeeeeeeeeeeeeee",
                "decimals": 18
            },
            {
                "address": "0x6b175474e89094c44da98b954eedeac495271d0f",
                "decimals": 18
            },
            {
                "address": "0xb72a91ac402eec1977a6b2bd02d3f0aa1a261b93",
                "decimals": 18
            },
            {
                "address": "0xc02aaa39b223fe8d0a0e5c4f27ead9083c756cc2",
                "decimals": 18
            }
        ]
    },
    "address_label": {
        "labels": [
            {
                "address": "0x0000000000000000000000000000000000000003",
                "label": "Precompiled"
            },
            {
                "address": "0xacf7f986b39b351ae210da9886c003e01a18560c",
                "label": "Uniswap V2: DAI-OOG"
            },
            {
                "address": "0x6b175474e89094c44da98b954eedeac495271d0f",
                "label": "Sky: Dai Stablecoin"
            },
            {
                "address": "0x68b3465833fb72a70ecdf485e0e4c7bd8665fc45",
                "label": "Uniswap V3: Router 2"
            },
            {
                "address": "0x0000000000000000000000000000000000000001",
                "label": "Precompiled"
            },
            {
                "address": "0xeeeeeeeeeeeeeeeeeeeeeeeeeeeeeeeeeeeeeeee",
                "label": "Ether"
            },
            {
                "address": "0xb72a91ac402eec1977a6b2bd02d3f0aa1a261b93",
                "label": "OverOneGold (OOG)"
            },
            {
                "address": "0x0000000000000000000000000000000000000002",
                "label": "Precompiled"
            },
            {
                "address": "0x0000000000000000000000000000000000000004",
                "label": "Precompiled"
            }
        ]
    },
    "trace": {
        "accountLabels": null,
        "dataMap": {
            "-1": {
                "invocation": {
                    "address": "0x0a3df862dd6bf4128a448596e70f9c42bd60144a",
                    "callData": "",
                    "decodedMethod": null,
                    "errorInfo": "",
                    "fromAddress": "",
                    "gasUsed": 0,
                    "id": -1,
                    "methodDecoded": false,
                    "operation": "",
                    "output": "",
                    "revert": false,
                    "revertMessage": "",
                    "selector": "",
                    "status": false,
                    "value": ""
                },
                "nodeType": 0
            },
            "0": {
                "invocation": {
                    "address": "0x68b3465833fb72a70ecdf485e0e4c7bd8665fc45",
                    "callData": "0x0000000000000000000000000000000000000000000000000000000063a4357f00000000000000000000000000000000000000000000000000000000000000400000000000000000000000000000000000000000000000000000000000000001000000000000000000000000000000000000000000000000000000000000002000000000000000000000000000000000000000000000000000000000000000e442712a67000000000000000000000000000000000000000000000015af1d78b58c400000000000000000000000000000000000000000000000000153d823104064dd592a00000000000000000000000000000000000000000000000000000000000000800000000000000000000000000a3df862dd6bf4128a448596e70f9c42bd60144a0000000000000000000000000000000000000000000000000000000000000002000000000000000000000000b72a91ac402eec1977a6b2bd02d3f0aa1a261b930000000000000000000000006b175474e89094c44da98b954eedeac495271d0f00000000000000000000000000000000000000000000000000000000",
                    "decodedMethod": {
                        "callParams": [
                            {
                                "name": "deadline",
                                "type": "uint256",
                                "value": "1,671,705,983"
                            },
                            {
                                "name": "data",
                                "type": "bytes[]",
                                "value": [
                                    "0x42712a67000000000000000000000000000000000000000000000015af1d78b58c400000000000000000000000000000000000000000000000000153d823104064dd592a00000000000000000000000000000000000000000000000000000000000000800000000000000000000000000a3df862dd6bf4128a448596e70f9c42bd60144a0000000000000000000000000000000000000000000000000000000000000002000000000000000000000000b72a91ac402eec1977a6b2bd02d3f0aa1a261b930000000000000000000000006b175474e89094c44da98b954eedeac495271d0f"
                                ]
                            }
                        ],
                        "constructorArguments": "",
                        "name": "multicall",
                        "returnParams": [
                            {
                                "name": "",
                                "type": "bytes[]",
                                "value": [
                                    "0x0000000000000000000000000000000000000000000001507abfdd65c6b7abed"
                                ]
                            }
                        ],
                        "signature": "multicall(uint256,bytes[])"
                    },
                    "errorInfo": "",
                    "fromAddress": "0x0a3df862dd6bf4128a448596e70f9c42bd60144a",
                    "gasUsed": 110465,
                    "id": 0,
                    "methodDecoded": true,
                    "operation": "CALL",
                    "output": "0x00000000000000000000000000000000000000000000000000000000000000200000000000000000000000000000000000000000000000000000000000000001000000000000000000000000000000000000000000000000000000000000002000000000000000000000000000000000000000000000000000000000000000200000000000000000000000000000000000000000000001507abfdd65c6b7abed",
                    "revert": false,
                    "revertMessage": "",
                    "selector": "0x5ae401dc",
                    "status": true,
                    "value": "0"
                },
                "nodeType": 0
            },
            "1": {
                "invocation": {
                    "address": "0x68b3465833fb72a70ecdf485e0e4c7bd8665fc45",
                    "callData": "0x000000000000000000000000000000000000000000000015af1d78b58c400000000000000000000000000000000000000000000000000153d823104064dd592a00000000000000000000000000000000000000000000000000000000000000800000000000000000000000000a3df862dd6bf4128a448596e70f9c42bd60144a0000000000000000000000000000000000000000000000000000000000000002000000000000000000000000b72a91ac402eec1977a6b2bd02d3f0aa1a261b930000000000000000000000006b175474e89094c44da98b954eedeac495271d0f",
                    "decodedMethod": {
                        "callParams": [
                            {
                                "name": "amountOut",
                                "type": "uint256",
                                "value": "400,000,000,000,000,000,000"
                            },
                            {
                                "name": "amountInMax",
                                "type": "uint256",
                                "value": "6,269,020,550,792,671,484,202"
                            },
                            {
                                "name": "path",
                                "type": "address[]",
                                "value": [
                                    "0xb72a91ac402eec1977a6b2bd02d3f0aa1a261b93",
                                    "0x6b175474e89094c44da98b954eedeac495271d0f"
                                ]
                            },
                            {
                                "name": "to",
                                "type": "address",
                                "value": "0x0a3df862dd6bf4128a448596e70f9c42bd60144a"
                            }
                        ],
                        "constructorArguments": "",
                        "name": "swapTokensForExactTokens",
                        "returnParams": [
                            {
                                "name": "amountIn",
                                "type": "uint256",
                                "value": "6,206,951,040,388,783,647,725"
                            }
                        ],
                        "signature": "swapTokensForExactTokens(uint256,uint256,address[],address)"
                    },
                    "errorInfo": "",
                    "fromAddress": "0x68b3465833fb72a70ecdf485e0e4c7bd8665fc45",
                    "gasUsed": 87267,
                    "id": 1,
                    "methodDecoded": true,
                    "operation": "DELEGATECALL",
                    "output": "0x0000000000000000000000000000000000000000000001507abfdd65c6b7abed",
                    "revert": false,
                    "revertMessage": "",
                    "selector": "0x42712a67",
                    "status": true,
                    "value": "0"
                },
                "nodeType": 0
            },
            "10": {
                "event": {
                    "contract": "0x6b175474e89094c44da98b954eedeac495271d0f",
                    "decodedLog": {
                        "name": "Transfer",
                        "params": [
                            {
                                "name": "src",
                                "type": "address",
                                "value": "0xacf7f986b39b351ae210da9886c003e01a18560c"
                            },
                            {
                                "name": "dst",
                                "type": "address",
                                "value": "0x0a3df862dd6bf4128a448596e70f9c42bd60144a"
                            },
                            {
                                "decimalAvailable": true,
                                "name": "wad",
                                "type": "uint256",
                                "value": "400,000,000,000,000,000,000"
                            }
                        ],
                        "signature": "Transfer(address,address,uint256)"
                    },
                    "id": 10,
                    "logData": "0x000000000000000000000000000000000000000000000015af1d78b58c400000",
                    "logDecoded": true,
                    "operation": "EVENT",
                    "revert": false,
                    "status": true,
                    "topics": [
                        "0xddf252ad1be2c89b69c2b068fc378daa952ba7f163c4a11628f55a4df523b3ef",
                        "0x000000000000000000000000acf7f986b39b351ae210da9886c003e01a18560c",
                        "0x0000000000000000000000000a3df862dd6bf4128a448596e70f9c42bd60144a"
                    ]
                },
                "nodeType": 1
            },
            "11": {
                "invocation": {
                    "address": "0x6b175474e89094c44da98b954eedeac495271d0f",
                    "callData": "0x000000000000000000000000acf7f986b39b351ae210da9886c003e01a18560c",
                    "decodedMethod": {
                        "callParams": [
                            {
                                "name": "",
                                "type": "address",
                                "value": "0xacf7f986b39b351ae210da9886c003e01a18560c"
                            }
                        ],
                        "constructorArguments": "",
                        "name": "balanceOf",
                        "returnParams": [
                            {
                                "decimalAvailable": true,
                                "name": "",
                                "type": "uint256",
                                "value": "8,493,553,850,182,229,148,981"
                            }
                        ],
                        "signature": "balanceOf(address)"
                    },
                    "errorInfo": "",
                    "fromAddress": "0xacf7f986b39b351ae210da9886c003e01a18560c",
                    "gasUsed": 602,
                    "id": 11,
                    "methodDecoded": true,
                    "operation": "STATICCALL",
                    "output": "0x0000000000000000000000000000000000000000000001cc6fbcf1f6bb21c535",
                    "revert": false,
                    "revertMessage": "",
                    "selector": "0x70a08231",
                    "status": true,
                    "value": "0"
                },
                "nodeType": 0
            },
            "12": {
                "invocation": {
                    "address": "0xb72a91ac402eec1977a6b2bd02d3f0aa1a261b93",
                    "callData": "0x000000000000000000000000acf7f986b39b351ae210da9886c003e01a18560c",
                    "decodedMethod": {
                        "callParams": [
                            {
                                "name": "account",
                                "type": "address",
                                "value": "0xacf7f986b39b351ae210da9886c003e01a18560c"
                            }
                        ],
                        "constructorArguments": "",
                        "name": "balanceOf",
                        "returnParams": [
                            {
                                "decimalAvailable": true,
                                "name": "",
                                "type": "uint256",
                                "value": "137,609,240,261,053,248,685,325"
                            }
                        ],
                        "signature": "balanceOf(address)"
                    },
                    "errorInfo": "",
                    "fromAddress": "0xacf7f986b39b351ae210da9886c003e01a18560c",
                    "gasUsed": 465,
                    "id": 12,
                    "methodDecoded": true,
                    "operation": "STATICCALL",
                    "output": "0x000000000000000000000000000000000000000000001d23cfd6346d04c3c50d",
                    "revert": false,
                    "revertMessage": "",
                    "selector": "0x70a08231",
                    "status": true,
                    "value": "0"
                },
                "nodeType": 0
            },
            "13": {
                "event": {
                    "contract": "0xacf7f986b39b351ae210da9886c003e01a18560c",
                    "decodedLog": {
                        "name": "Sync",
                        "params": [
                            {
                                "name": "reserve0",
                                "type": "uint112",
                                "value": "8,493,553,850,182,229,148,981"
                            },
                            {
                                "name": "reserve1",
                                "type": "uint112",
                                "value": "137,609,240,261,053,248,685,325"
                            }
                        ],
                        "signature": "Sync(uint112,uint112)"
                    },
                    "id": 13,
                    "logData": "0x0000000000000000000000000000000000000000000001cc6fbcf1f6bb21c535000000000000000000000000000000000000000000001d23cfd6346d04c3c50d",
                    "logDecoded": true,
                    "operation": "EVENT",
                    "revert": false,
                    "status": true,
                    "topics": [
                        "0x1c411e9a96e071241c2f21f7726b17ae89e3cab4c78be50e062b03a9fffbbad1"
                    ]
                },
                "nodeType": 1
            },
            "14": {
                "event": {
                    "contract": "0xacf7f986b39b351ae210da9886c003e01a18560c",
                    "decodedLog": {
                        "name": "Swap",
                        "params": [
                            {
                                "name": "sender",
                                "type": "address",
                                "value": "0x68b3465833fb72a70ecdf485e0e4c7bd8665fc45"
                            },
                            {
                                "name": "to",
                                "type": "address",
                                "value": "0x0a3df862dd6bf4128a448596e70f9c42bd60144a"
                            },
                            {
                                "name": "amount0In",
                                "type": "uint256",
                                "value": "0"
                            },
                            {
                                "name": "amount1In",
                                "type": "uint256",
                                "value": "6,206,951,040,388,783,647,725"
                            },
                            {
                                "name": "amount0Out",
                                "type": "uint256",
                                "value": "400,000,000,000,000,000,000"
                            },
                            {
                                "name": "amount1Out",
                                "type": "uint256",
                                "value": "0"
                            }
                        ],
                        "signature": "Swap(address,uint256,uint256,uint256,uint256,address)"
                    },
                    "id": 14,
                    "logData": "0x00000000000000000000000000000000000000000000000000000000000000000000000000000000000000000000000000000000000001507abfdd65c6b7abed000000000000000000000000000000000000000000000015af1d78b58c4000000000000000000000000000000000000000000000000000000000000000000000",
                    "logDecoded": true,
                    "operation": "EVENT",
                    "revert": false,
                    "status": true,
                    "topics": [
                        "0xd78ad95fa46c994b6551d0da85fc275fe613ce37657fb8d5e3d130840159d822",
                        "0x00000000000000000000000068b3465833fb72a70ecdf485e0e4c7bd8665fc45",
                        "0x0000000000000000000000000a3df862dd6bf4128a448596e70f9c42bd60144a"
                    ]
                },
                "nodeType": 1
            },
            "2": {
                "invocation": {
                    "address": "0xacf7f986b39b351ae210da9886c003e01a18560c",
                    "callData": "0x",
                    "decodedMethod": {
                        "callParams": [],
                        "constructorArguments": "",
                        "name": "getReserves",
                        "returnParams": [
                            {
                                "name": "_reserve0",
                                "type": "uint112",
                                "value": "8,893,553,850,182,229,148,981"
                            },
                            {
                                "name": "_reserve1",
                                "type": "uint112",
                                "value": "131,402,289,220,664,465,037,600"
                            },
                            {
                                "name": "_blockTimestampLast",
                                "type": "uint32",
                                "value": "1,671,697,055"
                            }
                        ],
                        "signature": "getReserves()"
                    },
                    "errorInfo": "",
                    "fromAddress": "0x68b3465833fb72a70ecdf485e0e4c7bd8665fc45",
                    "gasUsed": 2504,
                    "id": 2,
                    "methodDecoded": true,
                    "operation": "STATICCALL",
                    "output": "0x0000000000000000000000000000000000000000000001e21eda6aac4761c535000000000000000000000000000000000000000000001bd3551657073e0c19200000000000000000000000000000000000000000000000000000000063a4129f",
                    "revert": false,
                    "revertMessage": "",
                    "selector": "0x0902f1ac",
                    "status": true,
                    "value": "0"
                },
                "nodeType": 0
            },
            "3": {
                "invocation": {
                    "address": "0xb72a91ac402eec1977a6b2bd02d3f0aa1a261b93",
                    "callData": "0x0000000000000000000000000a3df862dd6bf4128a448596e70f9c42bd60144a000000000000000000000000acf7f986b39b351ae210da9886c003e01a18560c0000000000000000000000000000000000000000000001507abfdd65c6b7abed",
                    "decodedMethod": {
                        "callParams": [
                            {
                                "name": "sender",
                                "type": "address",
                                "value": "0x0a3df862dd6bf4128a448596e70f9c42bd60144a"
                            },
                            {
                                "name": "recipient",
                                "type": "address",
                                "value": "0xacf7f986b39b351ae210da9886c003e01a18560c"
                            },
                            {
                                "decimalAvailable": true,
                                "name": "amount",
                                "type": "uint256",
                                "value": "6,206,951,040,388,783,647,725"
                            }
                        ],
                        "constructorArguments": "",
                        "name": "transferFrom",
                        "returnParams": [
                            {
                                "name": "",
                                "type": "bool",
                                "value": true
                            }
                        ],
                        "signature": "transferFrom(address,address,uint256)"
                    },
                    "errorInfo": "",
                    "fromAddress": "0x68b3465833fb72a70ecdf485e0e4c7bd8665fc45",
                    "gasUsed": 20455,
                    "id": 3,
                    "methodDecoded": true,
                    "operation": "CALL",
                    "output": "0x0000000000000000000000000000000000000000000000000000000000000001",
                    "revert": false,
                    "revertMessage": "",
                    "selector": "0x23b872dd",
                    "status": true,
                    "value": "0"
                },
                "nodeType": 0
            },
            "4": {
                "event": {
                    "contract": "0xb72a91ac402eec1977a6b2bd02d3f0aa1a261b93",
                    "decodedLog": {
                        "name": "Transfer",
                        "params": [
                            {
                                "name": "from",
                                "type": "address",
                                "value": "0x0a3df862dd6bf4128a448596e70f9c42bd60144a"
                            },
                            {
                                "name": "to",
                                "type": "address",
                                "value": "0xacf7f986b39b351ae210da9886c003e01a18560c"
                            },
                            {
                                "decimalAvailable": true,
                                "name": "value",
                                "type": "uint256",
                                "value": "6,206,951,040,388,783,647,725"
                            }
                        ],
                        "signature": "Transfer(address,address,uint256)"
                    },
                    "id": 4,
                    "logData": "0x0000000000000000000000000000000000000000000001507abfdd65c6b7abed",
                    "logDecoded": true,
                    "operation": "EVENT",
                    "revert": false,
                    "status": true,
                    "topics": [
                        "0xddf252ad1be2c89b69c2b068fc378daa952ba7f163c4a11628f55a4df523b3ef",
                        "0x0000000000000000000000000a3df862dd6bf4128a448596e70f9c42bd60144a",
                        "0x000000000000000000000000acf7f986b39b351ae210da9886c003e01a18560c"
                    ]
                },
                "nodeType": 1
            },
            "5": {
                "event": {
                    "contract": "0xb72a91ac402eec1977a6b2bd02d3f0aa1a261b93",
                    "decodedLog": {
                        "name": "Approval",
                        "params": [
                            {
                                "name": "owner",
                                "type": "address",
                                "value": "0x0a3df862dd6bf4128a448596e70f9c42bd60144a"
                            },
                            {
                                "name": "spender",
                                "type": "address",
                                "value": "0x68b3465833fb72a70ecdf485e0e4c7bd8665fc45"
                            },
                            {
                                "decimalAvailable": true,
                                "name": "value",
                                "type": "uint256",
                                "value": "115,792,089,237,316,195,423,570,985,008,687,907,853,269,984,665,640,563,982,692,795,135,262,725,408,301"
                            }
                        ],
                        "signature": "Approval(address,address,uint256)"
                    },
                    "id": 5,
                    "logData": "0xfffffffffffffffffffffffffffffffffffffffffffff3fac64e1910ca32862d",
                    "logDecoded": true,
                    "operation": "EVENT",
                    "revert": false,
                    "status": true,
                    "topics": [
                        "0x8c5be1e5ebec7d5bd14f71427d1e84f3dd0314c0f7b2291e5b200ac8c7c3b925",
                        "0x0000000000000000000000000a3df862dd6bf4128a448596e70f9c42bd60144a",
                        "0x00000000000000000000000068b3465833fb72a70ecdf485e0e4c7bd8665fc45"
                    ]
                },
                "nodeType": 1
            },
            "6": {
                "invocation": {
                    "address": "0xacf7f986b39b351ae210da9886c003e01a18560c",
                    "callData": "0x",
                    "decodedMethod": {
                        "callParams": [],
                        "constructorArguments": "",
                        "name": "getReserves",
                        "returnParams": [
                            {
                                "name": "_reserve0",
                                "type": "uint112",
                                "value": "8,893,553,850,182,229,148,981"
                            },
                            {
                                "name": "_reserve1",
                                "type": "uint112",
                                "value": "131,402,289,220,664,465,037,600"
                            },
                            {
                                "name": "_blockTimestampLast",
                                "type": "uint32",
                                "value": "1,671,697,055"
                            }
                        ],
                        "signature": "getReserves()"
                    },
                    "errorInfo": "",
                    "fromAddress": "0x68b3465833fb72a70ecdf485e0e4c7bd8665fc45",
                    "gasUsed": 504,
                    "id": 6,
                    "methodDecoded": true,
                    "operation": "STATICCALL",
                    "output": "0x0000000000000000000000000000000000000000000001e21eda6aac4761c535000000000000000000000000000000000000000000001bd3551657073e0c19200000000000000000000000000000000000000000000000000000000063a4129f",
                    "revert": false,
                    "revertMessage": "",
                    "selector": "0x0902f1ac",
                    "status": true,
                    "value": "0"
                },
                "nodeType": 0
            },
            "7": {
                "invocation": {
                    "address": "0xb72a91ac402eec1977a6b2bd02d3f0aa1a261b93",
                    "callData": "0x000000000000000000000000acf7f986b39b351ae210da9886c003e01a18560c",
                    "decodedMethod": {
                        "callParams": [
                            {
                                "name": "account",
                                "type": "address",
                                "value": "0xacf7f986b39b351ae210da9886c003e01a18560c"
                            }
                        ],
                        "constructorArguments": "",
                        "name": "balanceOf",
                        "returnParams": [
                            {
                                "decimalAvailable": true,
                                "name": "",
                                "type": "uint256",
                                "value": "137,609,240,261,053,248,685,325"
                            }
                        ],
                        "signature": "balanceOf(address)"
                    },
                    "errorInfo": "",
                    "fromAddress": "0x68b3465833fb72a70ecdf485e0e4c7bd8665fc45",
                    "gasUsed": 465,
                    "id": 7,
                    "methodDecoded": true,
                    "operation": "STATICCALL",
                    "output": "0x000000000000000000000000000000000000000000001d23cfd6346d04c3c50d",
                    "revert": false,
                    "revertMessage": "",
                    "selector": "0x70a08231",
                    "status": true,
                    "value": "0"
                },
                "nodeType": 0
            },
            "8": {
                "invocation": {
                    "address": "0xacf7f986b39b351ae210da9886c003e01a18560c",
                    "callData": "0x000000000000000000000000000000000000000000000015af1d78b58c40000000000000000000000000000000000000000000000000000000000000000000000000000000000000000000000a3df862dd6bf4128a448596e70f9c42bd60144a00000000000000000000000000000000000000000000000000000000000000800000000000000000000000000000000000000000000000000000000000000000",
                    "decodedMethod": {
                        "callParams": [
                            {
                                "name": "amount0Out",
                                "type": "uint256",
                                "value": "400,000,000,000,000,000,000"
                            },
                            {
                                "name": "amount1Out",
                                "type": "uint256",
                                "value": "0"
                            },
                            {
                                "name": "to",
                                "type": "address",
                                "value": "0x0a3df862dd6bf4128a448596e70f9c42bd60144a"
                            },
                            {
                                "name": "data",
                                "type": "bytes",
                                "value": "0x"
                            }
                        ],
                        "constructorArguments": "",
                        "name": "swap",
                        "returnParams": [],
                        "signature": "swap(uint256,uint256,address,bytes)"
                    },
                    "errorInfo": "",
                    "fromAddress": "0x68b3465833fb72a70ecdf485e0e4c7bd8665fc45",
                    "gasUsed": 47964,
                    "id": 8,
                    "methodDecoded": true,
                    "operation": "CALL",
                    "output": "",
                    "revert": false,
                    "revertMessage": "",
                    "selector": "0x022c0d9f",
                    "status": true,
                    "value": "0"
                },
                "nodeType": 0
            },
            "9": {
                "invocation": {
                    "address": "0x6b175474e89094c44da98b954eedeac495271d0f",
                    "callData": "0x0000000000000000000000000a3df862dd6bf4128a448596e70f9c42bd60144a000000000000000000000000000000000000000000000015af1d78b58c400000",
                    "decodedMethod": {
                        "callParams": [
                            {
                                "name": "dst",
                                "type": "address",
                                "value": "0x0a3df862dd6bf4128a448596e70f9c42bd60144a"
                            },
                            {
                                "decimalAvailable": true,
                                "name": "wad",
                                "type": "uint256",
                                "value": "400,000,000,000,000,000,000"
                            }
                        ],
                        "constructorArguments": "",
                        "name": "transfer",
                        "returnParams": [
                            {
                                "name": "",
                                "type": "bool",
                                "value": true
                            }
                        ],
                        "signature": "transfer(address,uint256)"
                    },
                    "errorInfo": "",
                    "fromAddress": "0xacf7f986b39b351ae210da9886c003e01a18560c",
                    "gasUsed": 13074,
                    "id": 9,
                    "methodDecoded": true,
                    "operation": "CALL",
                    "output": "0x0000000000000000000000000000000000000000000000000000000000000001",
                    "revert": false,
                    "revertMessage": "",
                    "selector": "0xa9059cbb",
                    "status": true,
                    "value": "0"
                },
                "nodeType": 0
            }
        },
        "gasFlame": [
            {
                "children": [
                    {
                        "children": [
                            {
                                "children": [],
                                "depth": 0,
                                "name": "Initial Gas",
                                "value": 23820
                            },
                            {
                                "children": [
                                    {
                                        "children": [
                                            {
                                                "children": [],
                                                "depth": 2,
                                                "name": "getReserves",
                                                "value": 2504
                                            },
                                            {
                                                "children": [],
                                                "depth": 2,
                                                "name": "transferFrom",
                                                "value": 20455
                                            },
                                            {
                                                "children": [],
                                                "depth": 2,
                                                "name": "getReserves",
                                                "value": 504
                                            },
                                            {
                                                "children": [],
                                                "depth": 2,
                                                "name": "balanceOf",
                                                "value": 465
                                            },
                                            {
                                                "children": [
                                                    {
                                                        "children": [],
                                                        "depth": 3,
                                                        "name": "transfer",
                                                        "value": 13074
                                                    },
                                                    {
                                                        "children": [],
                                                        "depth": 3,
                                                        "name": "balanceOf",
                                                        "value": 602
                                                    },
                                                    {
                                                        "children": [],
                                                        "depth": 3,
                                                        "name": "balanceOf",
                                                        "value": 465
                                                    }
                                                ],
                                                "depth": 2,
                                                "name": "swap",
                                                "value": 47964
                                            }
                                        ],
                                        "depth": 1,
                                        "name": "swapTokensForExactTokens",
                                        "value": 87267
                                    }
                                ],
                                "depth": 0,
                                "name": "Executed Gas",
                                "value": 89445
                            }
                        ],
                        "depth": -1,
                        "name": "Actual Gas Used",
                        "value": 110465
                    },
                    {
                        "children": [],
                        "depth": -1,
                        "name": "Refunded Gas",
                        "value": 2800
                    }
                ],
                "depth": -2,
                "name": "Total Gas",
                "value": 113265
            }
        ],
        "isConfirmed": true,
        "mainTrace": [
            {
                "children": [
                    {
                        "children": [
                            {
                                "children": [
                                    {
                                        "children": [],
                                        "depth": 2,
                                        "id": 2,
                                        "order": 2
                                    },
                                    {
                                        "children": [
                                            {
                                                "children": [],
                                                "depth": 3,
                                                "id": 4,
                                                "order": 4
                                            },
                                            {
                                                "children": [],
                                                "depth": 3,
                                                "id": 5,
                                                "order": 5
                                            }
                                        ],
                                        "depth": 2,
                                        "id": 3,
                                        "order": 3
                                    },
                                    {
                                        "children": [],
                                        "depth": 2,
                                        "id": 6,
                                        "order": 6
                                    },
                                    {
                                        "children": [],
                                        "depth": 2,
                                        "id": 7,
                                        "order": 7
                                    },
                                    {
                                        "children": [
                                            {
                                                "children": [
                                                    {
                                                        "children": [],
                                                        "depth": 4,
                                                        "id": 10,
                                                        "order": 10
                                                    }
                                                ],
                                                "depth": 3,
                                                "id": 9,
                                                "order": 9
                                            },
                                            {
                                                "children": [],
                                                "depth": 3,
                                                "id": 11,
                                                "order": 11
                                            },
                                            {
                                                "children": [],
                                                "depth": 3,
                                                "id": 12,
                                                "order": 12
                                            },
                                            {
                                                "children": [],
                                                "depth": 3,
                                                "id": 13,
                                                "order": 13
                                            },
                                            {
                                                "children": [],
                                                "depth": 3,
                                                "id": 14,
                                                "order": 14
                                            }
                                        ],
                                        "depth": 2,
                                        "id": 8,
                                        "order": 8
                                    }
                                ],
                                "depth": 1,
                                "id": 1,
                                "order": 1
                            }
                        ],
                        "depth": 0,
                        "id": 0,
                        "order": 0
                    }
                ],
                "depth": -1,
                "id": -1,
                "order": -1
            }
        ],
        "mainTraceNodeCount": 15,
        "parentIdMap": {
            "0": -1,
            "1": 0,
            "10": 9,
            "11": 8,
            "12": 8,
            "13": 8,
            "14": 8,
            "2": 1,
            "3": 1,
            "4": 3,
            "5": 3,
            "6": 1,
            "7": 1,
            "8": 1,
            "9": 8
        },
        "tidyTrace": [
            {
                "children": [
                    {
                        "children": [
                            {
                                "children": [
                                    {
                                        "children": [
                                            {
                                                "children": [],
                                                "depth": 3,
                                                "id": 4,
                                                "order": 4
                                            },
                                            {
                                                "children": [],
                                                "depth": 3,
                                                "id": 5,
                                                "order": 5
                                            }
                                        ],
                                        "depth": 2,
                                        "id": 3,
                                        "order": 3
                                    },
                                    {
                                        "children": [
                                            {
                                                "children": [
                                                    {
                                                        "children": [],
                                                        "depth": 4,
                                                        "id": 10,
                                                        "order": 10
                                                    }
                                                ],
                                                "depth": 3,
                                                "id": 9,
                                                "order": 9
                                            },
                                            {
                                                "children": [],
                                                "depth": 3,
                                                "id": 13,
                                                "order": 13
                                            },
                                            {
                                                "children": [],
                                                "depth": 3,
                                                "id": 14,
                                                "order": 14
                                            }
                                        ],
                                        "depth": 2,
                                        "id": 8,
                                        "order": 8
                                    }
                                ],
                                "depth": 1,
                                "id": 1,
                                "order": 1
                            }
                        ],
                        "depth": 0,
                        "id": 0,
                        "order": 0
                    }
                ],
                "depth": -1,
                "id": -1,
                "order": -1
            }
        ],
        "tidyTraceNodeCount": 10
    },
    "state_change": {
        "stateChanges": [
            {
                "address": "0x6b175474e89094c44da98b954eedeac495271d0f",
                "erc": "ERC-20",
                "slots": [
                    {
                        "current": "0x0000000000000000000000000000000000000000000001cc6fbcf1f6bb21c535",
                        "key": "0x025a130b11e27290556b8fcb885f316741aca9d2be49ec47fb2cdc51806d14ff",
                        "prev": "0x0000000000000000000000000000000000000000000001e21eda6aac4761c535"
                    },
                    {
                        "current": "0x000000000000000000000000000000000000000000000019c953855828335edd",
                        "key": "0xf1e3f7f50086e1562b0784530590f71f0396f29d4774fd61db052bcc5c4799dc",
                        "prev": "0x0000000000000000000000000000000000000000000000041a360ca29bf35edd"
                    }
                ],
                "storageVariables": [
                    {
                        "name": "balanceOf",
                        "type": "mapping(address => uint256)",
                        "value": {
                            "pairs": [
                                {
                                    "key": "0x0a3df862dd6bf4128a448596e70f9c42bd60144a",
                                    "value": {
                                        "current": "475675687281107361501",
                                        "prev": "75675687281107361501",
                                        "typeTag": 1
                                    }
                                },
                                {
                                    "key": "0xacf7f986b39b351ae210da9886c003e01a18560c",
                                    "value": {
                                        "current": "8493553850182229148981",
                                        "prev": "8893553850182229148981",
                                        "typeTag": 1
                                    }
                                }
                            ],
                            "typeTag": 4
                        }
                    }
                ]
            },
            {
                "address": "0xacf7f986b39b351ae210da9886c003e01a18560c",
                "erc": "ERC-20",
                "slots": [
                    {
                        "current": "0x000000000000000000000000000000317d86f0552b79b9018b446fe6b0daf219",
                        "key": "0x000000000000000000000000000000000000000000000000000000000000000a",
                        "prev": "0x000000000000000000000000000000317b78a4fe774ee92f7f691f740bd31d39"
                    },
                    {
                        "current": "0x63a430ff000000001d23cfd6346d04c3c50d0000000001cc6fbcf1f6bb21c535",
                        "key": "0x0000000000000000000000000000000000000000000000000000000000000008",
                        "prev": "0x63a4129f000000001bd3551657073e0c19200000000001e21eda6aac4761c535"
                    },
                    {
                        "current": "0x000000000000000000000000000061f01a4e2a4c0e73966fe83f6f42d5c5a5fc",
                        "key": "0x0000000000000000000000000000000000000000000000000000000000000009",
                        "prev": "0x000000000000000000000000000061ee5983bcf08148896c69946f0ec1d2f89c"
                    }
                ],
                "storageVariables": [
                    {
                        "name": "reserve0",
                        "type": "uint112",
                        "value": {
                            "current": "8493553850182229148981",
                            "prev": "8893553850182229148981",
                            "typeTag": 1
                        }
                    },
                    {
                        "name": "reserve1",
                        "type": "uint112",
                        "value": {
                            "current": "137609240261053248685325",
                            "prev": "131402289220664465037600",
                            "typeTag": 1
                        }
                    },
                    {
                        "name": "blockTimestampLast",
                        "type": "uint32",
                        "value": {
                            "current": "1671704831",
                            "prev": "1671697055",
                            "typeTag": 1
                        }
                    },
                    {
                        "name": "price0CumulativeLast",
                        "type": "uint256",
                        "value": {
                            "current": "8531594469226701545714458980107486417495548",
                            "prev": "8530997924022588380349736695470394738669724",
                            "typeTag": 1
                        }
                    },
                    {
                        "name": "price1CumulativeLast",
                        "type": "uint256",
                        "value": {
                            "current": "16840690120904296559946697727941013074457",
                            "prev": "16837957444706605932455277356484211711289",
                            "typeTag": 1
                        }
                    }
                ]
            },
            {
                "address": "0xb72a91ac402eec1977a6b2bd02d3f0aa1a261b93",
                "erc": "ERC-20",
                "slots": [
                    {
                        "current": "0x000000000000000000000000000000000000000000000021daa7c585d6ec8ff1",
                        "key": "0xb9a665fb83aa4e7771c882247cddd80b9d9608c6d398b260eeeddd9017885dfc",
                        "prev": "0x0000000000000000000000000000000000000000000001725567a2eb9da43bde"
                    },
                    {
                        "current": "0x000000000000000000000000000000000000000000001d23cfd6346d04c3c50d",
                        "key": "0xf06f0d9b66c51742adb46c4b40e0e585d8c783db266ffa7d1802f2a8f2e584dc",
                        "prev": "0x000000000000000000000000000000000000000000001bd3551657073e0c1920"
                    },
                    {
                        "current": "0xfffffffffffffffffffffffffffffffffffffffffffff3fac64e1910ca32862d",
                        "key": "0x946179ae12f14d3d9dabad10d60d04631ee0a80209f1bcfe913143fce8e86adc",
                        "prev": "0xfffffffffffffffffffffffffffffffffffffffffffff54b410df67690ea321a"
                    }
                ],
                "storageVariables": [
                    {
                        "name": "_balances",
                        "type": "mapping(address => uint256)",
                        "value": {
                            "pairs": [
                                {
                                    "key": "0x0a3df862dd6bf4128a448596e70f9c42bd60144a",
                                    "value": {
                                        "current": "624498333432421322737",
                                        "prev": "6831449373821204970462",
                                        "typeTag": 1
                                    }
                                },
                                {
                                    "key": "0xacf7f986b39b351ae210da9886c003e01a18560c",
                                    "value": {
                                        "current": "137609240261053248685325",
                                        "prev": "131402289220664465037600",
                                        "typeTag": 1
                                    }
                                }
                            ],
                            "typeTag": 4
                        }
                    },
                    {
                        "name": "_allowances",
                        "type": "mapping(address => mapping(address => uint256))",
                        "value": {
                            "pairs": [
                                {
                                    "key": "0x0a3df862dd6bf4128a448596e70f9c42bd60144a",
                                    "value": {
                                        "pairs": [
                                            {
                                                "key": "0x68b3465833fb72a70ecdf485e0e4c7bd8665fc45",
                                                "value": {
                                                    "current": "115792089237316195423570985008687907853269984665640563982692795135262725408301",
                                                    "prev": "115792089237316195423570985008687907853269984665640563988899746175651509056026",
                                                    "typeTag": 1
                                                }
                                            }
                                        ],
                                        "typeTag": 4
                                    }
                                }
                            ],
                            "typeTag": 4
                        }
                    }
                ]
            }
        ]
    }
}