{
    "balance_change": {
        "balanceChanges": [
            {
                "account": "0x673a7e45be2bc6c105cc135349c82b85876fe5e8",
                "assets": [
                    {
                        "address": "0x0f7b3f5a8fed821c5eb60049538a548db2d479ce",
                        "amount": "10",
                        "iconUrl": "",
                        "isERC1155": false,
                        "isERC721": false,
                        "sign": false,
                        "value": "8.34061977"
                    },
                    {
                        "address": "0xfeac2eae96899709a43e252b6b92971d32f9c0f9",
                        "amount": "10",
                        "iconUrl": "",
                        "isERC1155": false,
                        "isERC721": false,
                        "sign": true,
                        "value": ""
                    }
                ]
            },
            {
                "account": "0x38f5dbbbb65be0af97f5e7c9e89e1012c0dc0163",
                "assets": [
                    {
                        "address": "0xfeac2eae96899709a43e252b6b92971d32f9c0f9",
                        "amount": "10",
                        "iconUrl": "",
                        "isERC1155": false,
                        "isERC721": false,
                        "sign": false,
                        "value": ""
                    }
                ]
            },
            {
                "account": "0x000000000000000000000000000000000000dead",
                "assets": [
                    {
                        "address": "0x0f7b3f5a8fed821c5eb60049538a548db2d479ce",
                        "amount": "10",
                        "iconUrl": "",
                        "isERC1155": false,
                        "isERC721": false,
                        "sign": true,
                        "value": "8.34061977"
                    }
                ]
            }
        ]
    },
    "profile": {
        "basic_info": {
            "baseFee": "1.716699393",
            "blockNumber": 20525396,
            "callData": "0x4547c1d1000000000000000000000000673a7e45be2bc6c105cc135349c82b85876fe5e80000000000000000000000000000000000000000000000008ac7230489e80000000000000000000000000000000000000000000000000000000000000000006000000000000000000000000000000000000000000000000000000000000000416c8afe84d003ca8fd3290e91507e2f8b1ad35c23be9156c18c4f3341faacf46a52032327aa75da35668f587f15c516f569fb6b5befe3cfee81b509233f1376d01b00000000000000000000000000000000000000000000000000000000000000",
            "debugEnable": true,
            "errorInfo": "",
            "eventCount": 6,
            "feeRecipient": "0x95222290dd7278aa3ddd389cc1e1d165cc4bafe5",
            "formatValue": "0",
            "gasLimit": 294874,
            "gasPrice": "2.696399396",
            "gasUsed": 163712,
            "intTxnCount": 7,
            "internalRevert": false,
            "internalRevertMessage": "",
            "isContractCreation": false,
            "isFlashloan": false,
            "maxFee": "3.206195668",
            "nonce": 1,
            "overwritedBlockNumber": -1,
            "priorityFee": "0.979700003",
            "receiver": "0x38f5dbbbb65be0af97f5e7c9e89e1012c0dc0163",
            "revertMessage": "",
            "sender": "0x673a7e45be2bc6c105cc135349c82b85876fe5e8",
            "simulationEnable": true,
            "sourceTxnHash": "0x80abb99b4510f06fb204b0d3f75fcede1d87905d2abb9ac2700a1876fb80b7bb",
            "status": true,
            "timestamp": "2024-08-14T07:32:23Z",
            "transactionFee": "0.000441432937917952",
            "txnHash": "0x80abb99b4510f06fb204b0d3f75fcede1d87905d2abb9ac2700a1876fb80b7bb",
            "txnIndex": 62,
            "type": 2,
            "value": "0"
        },
        "fund_flow": [
            {
                "amount": "10",
                "from": "0x673a7e45be2bc6c105cc135349c82b85876fe5e8",
                "id": 1,
                "isERC1155": false,
                "isERC721": false,
                "isReverted": false,
                "order": 1,
                "to": "0xaf1bc49090b339b7f8a8b371d3bdc78161e368f3",
                "token": "0x0f7b3f5a8fed821c5eb60049538a548db2d479ce"
            },
            {
                "amount": "10",
                "from": "0xaf1bc49090b339b7f8a8b371d3bdc78161e368f3",
                "id": 2,
                "isERC1155": false,
                "isERC721": false,
                "isReverted": false,
                "order": 2,
                "to": "0x000000000000000000000000000000000000dead",
                "token": "0x0f7b3f5a8fed821c5eb60049538a548db2d479ce"
            },
            {
                "amount": "10",
                "from": "0x38f5dbbbb65be0af97f5e7c9e89e1012c0dc0163",
                "id": 3,
                "isERC1155": false,
                "isERC721": false,
                "isReverted": false,
                "order": 3,
                "to": "0x673a7e45be2bc6c105cc135349c82b85876fe5e8",
                "token": "0xfeac2eae96899709a43e252b6b92971d32f9c0f9"
            }
        ],
        "token_infos": [
            {
                "address": "0xfeac2eae96899709a43e252b6b92971d32f9c0f9",
                "decimals": 18
            },
            {
                "address": "0xeeeeeeeeeeeeeeeeeeeeeeeeeeeeeeeeeeeeeeee",
                "decimals": 18
            },
            {
                "address": "0x0f7b3f5a8fed821c5eb60049538a548db2d479ce",
                "decimals": 18
            },
            {
                "address": "0xc02aaa39b223fe8d0a0e5c4f27ead9083c756cc2",
                "decimals": 18
            }
        ]
    },
    "address_label": {
        "labels": [
            {
                "address": "0x000000000000000000000000000000000000dead",
                "label": "Null: 0x00...dEaD"
            },
            {
                "address": "0xaf1bc49090b339b7f8a8b371d3bdc78161e368f3",
                "label": "ATORIncinerator"
            },
            {
                "address": "0x0000000000000000000000000000000000000002",
                "label": "Precompiled"
            },
            {
                "address": "0x0000000000000000000000000000000000000004",
                "label": "Precompiled"
            },
            {
                "address": "0xfeac2eae96899709a43e252b6b92971d32f9c0f9",
                "label": "ANyONe Protocol: ANYONE Token"
            },
            {
                "address": "0x38f5dbbbb65be0af97f5e7c9e89e1012c0dc0163",
                "label": "ANYONE: Migration"
            },
            {
                "address": "0x0f7b3f5a8fed821c5eb60049538a548db2d479ce",
                "label": "ATOR Protocol: ATOR Token"
            },
            {
                "address": "0xc6abc7f942ba3e60988cb3edea188c8b8310dfb3",
                "label": "ATORSwapper"
            },
            {
                "address": "0x0000000000000000000000000000000000000001",
                "label": "Precompiled"
            },
            {
                "address": "0x0000000000000000000000000000000000000003",
                "label": "Precompiled"
            },
            {
                "address": "0xeeeeeeeeeeeeeeeeeeeeeeeeeeeeeeeeeeeeeeee",
                "label": "Ether"
            }
        ]
    },
    "trace": {
        "accountLabels": null,
        "dataMap": {
            "-1": {
                "invocation": {
                    "address": "0x673a7e45be2bc6c105cc135349c82b85876fe5e8",
                    "callData": "",
                    "decodedMethod": null,
                    "errorInfo": "",
                    "fromAddress": "",
                    "gasUsed": 0,
                    "id": -1,
                    "methodDecoded": false,
                    "operation": "",
                    "output": "",
                    "revert": false,
                    "revertMessage": "",
                    "selector": "",
                    "status": false,
                    "value": ""
                },
                "nodeType": 0
            },
            "0": {
                "invocation": {
                    "address": "0x38f5dbbbb65be0af97f5e7c9e89e1012c0dc0163",
                    "callData": "0x000000000000000000000000673a7e45be2bc6c105cc135349c82b85876fe5e80000000000000000000000000000000000000000000000008ac7230489e80000000000000000000000000000000000000000000000000000000000000000006000000000000000000000000000000000000000000000000000000000000000416c8afe84d003ca8fd3290e91507e2f8b1ad35c23be9156c18c4f3341faacf46a52032327aa75da35668f587f15c516f569fb6b5befe3cfee81b509233f1376d01b00000000000000000000000000000000000000000000000000000000000000",
                    "decodedMethod": {
                        "callParams": [
                            {
                                "name": "request",
                                "type": "(address,uint256)",
                                "value": [
                                    {
                                        "name": "account",
                                        "type": "address",
                                        "value": "0x673a7e45be2bc6c105cc135349c82b85876fe5e8"
                                    },
                                    {
                                        "name": "amount",
                                        "type": "uint256",
                                        "value": "10,000,000,000,000,000,000"
                                    }
                                ]
                            },
                            {
                                "name": "signature",
                                "type": "bytes",
                                "value": "0x6c8afe84d003ca8fd3290e91507e2f8b1ad35c23be9156c18c4f3341faacf46a52032327aa75da35668f587f15c516f569fb6b5befe3cfee81b509233f1376d01b"
                            }
                        ],
                        "constructorArguments": "",
                        "name": "swap",
                        "returnParams": [],
                        "signature": "swap((address,uint256),bytes)"
                    },
                    "errorInfo": "",
                    "fromAddress": "0x673a7e45be2bc6c105cc135349c82b85876fe5e8",
                    "gasUsed": 163712,
                    "id": 0,
                    "methodDecoded": true,
                    "operation": "CALL",
                    "output": "",
                    "revert": false,
                    "revertMessage": "",
                    "selector": "0x4547c1d1",
                    "status": true,
                    "value": "0"
                },
                "nodeType": 0
            },
            "1": {
                "invocation": {
                    "address": "0xc6abc7f942ba3e60988cb3edea188c8b8310dfb3",
                    "callData": "0x000000000000000000000000673a7e45be2bc6c105cc135349c82b85876fe5e80000000000000000000000000000000000000000000000008ac7230489e80000000000000000000000000000000000000000000000000000000000000000006000000000000000000000000000000000000000000000000000000000000000416c8afe84d003ca8fd3290e91507e2f8b1ad35c23be9156c18c4f3341faacf46a52032327aa75da35668f587f15c516f569fb6b5befe3cfee81b509233f1376d01b00000000000000000000000000000000000000000000000000000000000000",
                    "decodedMethod": {
                        "callParams": [
                            {
                                "name": "request",
                                "type": "(address,uint256)",
                                "value": [
                                    {
                                        "name": "account",
                                        "type": "address",
                                        "value": "0x673a7e45be2bc6c105cc135349c82b85876fe5e8"
                                    },
                                    {
                                        "name": "amount",
                                        "type": "uint256",
                                        "value": "10,000,000,000,000,000,000"
                                    }
                                ]
                            },
                            {
                                "name": "signature",
                                "type": "bytes",
                                "value": "0x6c8afe84d003ca8fd3290e91507e2f8b1ad35c23be9156c18c4f3341faacf46a52032327aa75da35668f587f15c516f569fb6b5befe3cfee81b509233f1376d01b"
                            }
                        ],
                        "constructorArguments": "",
                        "name": "swap",
                        "returnParams": [],
                        "signature": "swap((address,uint256),bytes)"
                    },
                    "errorInfo": "",
                    "fromAddress": "0x38f5dbbbb65be0af97f5e7c9e89e1012c0dc0163",
                    "gasUsed": 160946,
                    "id": 1,
                    "methodDecoded": true,
                    "operation": "DELEGATECALL",
                    "output": "",
                    "revert": false,
                    "revertMessage": "",
                    "selector": "0x4547c1d1",
                    "status": true,
                    "value": "0"
                },
                "nodeType": 0
            },
            "10": {
                "event": {
                    "contract": "0xaf1bc49090b339b7f8a8b371d3bdc78161e368f3",
                    "decodedLog": {
                        "name": "Incinerate",
                        "params": [
                            {
                                "name": "token",
                                "type": "address",
                                "value": "0x0f7b3f5a8fed821c5eb60049538a548db2d479ce"
                            },
                            {
                                "name": "amount",
                                "type": "uint256",
                                "value": "10,000,000,000,000,000,000"
                            }
                        ],
                        "signature": "Incinerate(address,uint256)"
                    },
                    "id": 10,
                    "logData": "0x0000000000000000000000000f7b3f5a8fed821c5eb60049538a548db2d479ce0000000000000000000000000000000000000000000000008ac7230489e80000",
                    "logDecoded": true,
                    "operation": "EVENT",
                    "revert": false,
                    "status": true,
                    "topics": [
                        "0x3d099c067721b4a1649ebecef691481f6e4bfeb831128850992c1f666178b812"
                    ]
                },
                "nodeType": 1
            },
            "11": {
                "invocation": {
                    "address": "0xfeac2eae96899709a43e252b6b92971d32f9c0f9",
                    "callData": "0x000000000000000000000000673a7e45be2bc6c105cc135349c82b85876fe5e80000000000000000000000000000000000000000000000008ac7230489e80000",
                    "decodedMethod": {
                        "callParams": [
                            {
                                "name": "to",
                                "type": "address",
                                "value": "0x673a7e45be2bc6c105cc135349c82b85876fe5e8"
                            },
                            {
                                "decimalAvailable": true,
                                "name": "amount",
                                "type": "uint256",
                                "value": "10,000,000,000,000,000,000"
                            }
                        ],
                        "constructorArguments": "",
                        "name": "transfer",
                        "returnParams": [
                            {
                                "name": "",
                                "type": "bool",
                                "value": true
                            }
                        ],
                        "signature": "transfer(address,uint256)"
                    },
                    "errorInfo": "",
                    "fromAddress": "0x38f5dbbbb65be0af97f5e7c9e89e1012c0dc0163",
                    "gasUsed": 36603,
                    "id": 11,
                    "methodDecoded": true,
                    "operation": "CALL",
                    "output": "0x0000000000000000000000000000000000000000000000000000000000000001",
                    "revert": false,
                    "revertMessage": "",
                    "selector": "0xa9059cbb",
                    "status": true,
                    "value": "0"
                },
                "nodeType": 0
            },
            "12": {
                "event": {
                    "contract": "0xfeac2eae96899709a43e252b6b92971d32f9c0f9",
                    "decodedLog": {
                        "name": "Transfer",
                        "params": [
                            {
                                "name": "from",
                                "type": "address",
                                "value": "0x38f5dbbbb65be0af97f5e7c9e89e1012c0dc0163"
                            },
                            {
                                "name": "to",
                                "type": "address",
                                "value": "0x673a7e45be2bc6c105cc135349c82b85876fe5e8"
                            },
                            {
                                "decimalAvailable": true,
                                "name": "value",
                                "type": "uint256",
                                "value": "10,000,000,000,000,000,000"
                            }
                        ],
                        "signature": "Transfer(address,address,uint256)"
                    },
                    "id": 12,
                    "logData": "0x0000000000000000000000000000000000000000000000008ac7230489e80000",
                    "logDecoded": true,
                    "operation": "EVENT",
                    "revert": false,
                    "status": true,
                    "topics": [
                        "0xddf252ad1be2c89b69c2b068fc378daa952ba7f163c4a11628f55a4df523b3ef",
                        "0x00000000000000000000000038f5dbbbb65be0af97f5e7c9e89e1012c0dc0163",
                        "0x000000000000000000000000673a7e45be2bc6c105cc135349c82b85876fe5e8"
                    ]
                },
                "nodeType": 1
            },
            "13": {
                "event": {
                    "contract": "0x38f5dbbbb65be0af97f5e7c9e89e1012c0dc0163",
                    "decodedLog": {
                        "name": "SwapEvent",
                        "params": [
                            {
                                "name": "account",
                                "type": "address",
                                "value": "0x673a7e45be2bc6c105cc135349c82b85876fe5e8"
                            },
                            {
                                "name": "amount",
                                "type": "uint256",
                                "value": "10,000,000,000,000,000,000"
                            }
                        ],
                        "signature": "SwapEvent(address,uint256)"
                    },
                    "id": 13,
                    "logData": "0x0000000000000000000000000000000000000000000000008ac7230489e80000",
                    "logDecoded": true,
                    "operation": "EVENT",
                    "revert": false,
                    "status": true,
                    "topics": [
                        "0xb1d5848b979812bb0b549861ffb0c6a20e89c976e1ae7a6e8d4a8a35ceeaa419",
                        "0x000000000000000000000000673a7e45be2bc6c105cc135349c82b85876fe5e8"
                    ]
                },
                "nodeType": 1
            },
            "2": {
                "invocation": {
                    "address": "0x0000000000000000000000000000000000000001",
                    "callData": "0x08dd1956f7244450c576d7fbd58fd39515ea5e7e122208938c0e9ee0000000000000000000000000000000000000000000000000000000000000001b6c8afe84d003ca8fd3290e91507e2f8b1ad35c23be9156c18c4f3341faacf46a52032327aa75da35668f587f15c516f569fb6b5befe3cfee81b509233f1376d0",
                    "decodedMethod": {
                        "callParams": [
                            {
                                "name": "hash",
                                "type": "bytes32",
                                "value": "0x0130194f08dd1956f7244450c576d7fbd58fd39515ea5e7e122208938c0e9ee0"
                            },
                            {
                                "name": "v",
                                "type": "uint256",
                                "value": "27"
                            },
                            {
                                "name": "r",
                                "type": "bytes32",
                                "value": "0x6c8afe84d003ca8fd3290e91507e2f8b1ad35c23be9156c18c4f3341faacf46a"
                            },
                            {
                                "name": "s",
                                "type": "bytes32",
                                "value": "0x52032327aa75da35668f587f15c516f569fb6b5befe3cfee81b509233f1376d0"
                            }
                        ],
                        "constructorArguments": "",
                        "name": "ecrecover",
                        "returnParams": [
                            {
                                "name": "",
                                "type": "address",
                                "value": "0x349d77608a9d72dea5ac4c86c199a518335848ab"
                            }
                        ],
                        "signature": "ecrecover(bytes32,uint256,bytes32,bytes32)"
                    },
                    "errorInfo": "",
                    "fromAddress": "0x38f5dbbbb65be0af97f5e7c9e89e1012c0dc0163",
                    "gasUsed": 3000,
                    "id": 2,
                    "methodDecoded": true,
                    "operation": "STATICCALL",
                    "output": "0x000000000000000000000000349d77608a9d72dea5ac4c86c199a518335848ab",
                    "revert": false,
                    "revertMessage": "",
                    "selector": "0x0130194f",
                    "status": true,
                    "value": "0"
                },
                "nodeType": 0
            },
            "3": {
                "invocation": {
                    "address": "0x0f7b3f5a8fed821c5eb60049538a548db2d479ce",
                    "callData": "0x000000000000000000000000673a7e45be2bc6c105cc135349c82b85876fe5e8000000000000000000000000af1bc49090b339b7f8a8b371d3bdc78161e368f30000000000000000000000000000000000000000000000008ac7230489e80000",
                    "decodedMethod": {
                        "callParams": [
                            {
                                "name": "sender",
                                "type": "address",
                                "value": "0x673a7e45be2bc6c105cc135349c82b85876fe5e8"
                            },
                            {
                                "name": "recipient",
                                "type": "address",
                                "value": "0xaf1bc49090b339b7f8a8b371d3bdc78161e368f3"
                            },
                            {
                                "decimalAvailable": true,
                                "name": "amount",
                                "type": "uint256",
                                "value": "10,000,000,000,000,000,000"
                            }
                        ],
                        "constructorArguments": "",
                        "name": "transferFrom",
                        "returnParams": [
                            {
                                "name": "",
                                "type": "bool",
                                "value": true
                            }
                        ],
                        "signature": "transferFrom(address,address,uint256)"
                    },
                    "errorInfo": "",
                    "fromAddress": "0x38f5dbbbb65be0af97f5e7c9e89e1012c0dc0163",
                    "gasUsed": 62417,
                    "id": 3,
                    "methodDecoded": true,
                    "operation": "CALL",
                    "output": "0x0000000000000000000000000000000000000000000000000000000000000001",
                    "revert": false,
                    "revertMessage": "",
                    "selector": "0x23b872dd",
                    "status": true,
                    "value": "0"
                },
                "nodeType": 0
            },
            "4": {
                "event": {
                    "contract": "0x0f7b3f5a8fed821c5eb60049538a548db2d479ce",
                    "decodedLog": {
                        "name": "Transfer",
                        "params": [
                            {
                                "name": "from",
                                "type": "address",
                                "value": "0x673a7e45be2bc6c105cc135349c82b85876fe5e8"
                            },
                            {
                                "name": "to",
                                "type": "address",
                                "value": "0xaf1bc49090b339b7f8a8b371d3bdc78161e368f3"
                            },
                            {
                                "decimalAvailable": true,
                                "name": "value",
                                "type": "uint256",
                                "value": "10,000,000,000,000,000,000"
                            }
                        ],
                        "signature": "Transfer(address,address,uint256)"
                    },
                    "id": 4,
                    "logData": "0x0000000000000000000000000000000000000000000000008ac7230489e80000",
                    "logDecoded": true,
                    "operation": "EVENT",
                    "revert": false,
                    "status": true,
                    "topics": [
                        "0xddf252ad1be2c89b69c2b068fc378daa952ba7f163c4a11628f55a4df523b3ef",
                        "0x000000000000000000000000673a7e45be2bc6c105cc135349c82b85876fe5e8",
                        "0x000000000000000000000000af1bc49090b339b7f8a8b371d3bdc78161e368f3"
                    ]
                },
                "nodeType": 1
            },
            "5": {
                "event": {
                    "contract": "0x0f7b3f5a8fed821c5eb60049538a548db2d479ce",
                    "decodedLog": {
                        "name": "Approval",
                        "params": [
                            {
                                "name": "owner",
                                "type": "address",
                                "value": "0x673a7e45be2bc6c105cc135349c82b85876fe5e8"
                            },
                            {
                                "name": "spender",
                                "type": "address",
                                "value": "0x38f5dbbbb65be0af97f5e7c9e89e1012c0dc0163"
                            },
                            {
                                "decimalAvailable": true,
                                "name": "value",
                                "type": "uint256",
                                "value": "0"
                            }
                        ],
                        "signature": "Approval(address,address,uint256)"
                    },
                    "id": 5,
                    "logData": "0x0000000000000000000000000000000000000000000000000000000000000000",
                    "logDecoded": true,
                    "operation": "EVENT",
                    "revert": false,
                    "status": true,
                    "topics": [
                        "0x8c5be1e5ebec7d5bd14f71427d1e84f3dd0314c0f7b2291e5b200ac8c7c3b925",
                        "0x000000000000000000000000673a7e45be2bc6c105cc135349c82b85876fe5e8",
                        "0x00000000000000000000000038f5dbbbb65be0af97f5e7c9e89e1012c0dc0163"
                    ]
                },
                "nodeType": 1
            },
            "6": {
                "invocation": {
                    "address": "0xaf1bc49090b339b7f8a8b371d3bdc78161e368f3",
                    "callData": "0x",
                    "decodedMethod": {
                        "callParams": [],
                        "constructorArguments": "",
                        "name": "incinerate",
                        "returnParams": [],
                        "signature": "incinerate()"
                    },
                    "errorInfo": "",
                    "fromAddress": "0x38f5dbbbb65be0af97f5e7c9e89e1012c0dc0163",
                    "gasUsed": 22263,
                    "id": 6,
                    "methodDecoded": true,
                    "operation": "CALL",
                    "output": "",
                    "revert": false,
                    "revertMessage": "",
                    "selector": "0xbbd1d251",
                    "status": true,
                    "value": "0"
                },
                "nodeType": 0
            },
            "7": {
                "invocation": {
                    "address": "0x0f7b3f5a8fed821c5eb60049538a548db2d479ce",
                    "callData": "0x000000000000000000000000af1bc49090b339b7f8a8b371d3bdc78161e368f3",
                    "decodedMethod": {
                        "callParams": [
                            {
                                "name": "account",
                                "type": "address",
                                "value": "0xaf1bc49090b339b7f8a8b371d3bdc78161e368f3"
                            }
                        ],
                        "constructorArguments": "",
                        "name": "balanceOf",
                        "returnParams": [
                            {
                                "decimalAvailable": true,
                                "name": "",
                                "type": "uint256",
                                "value": "10,000,000,000,000,000,000"
                            }
                        ],
                        "signature": "balanceOf(address)"
                    },
                    "errorInfo": "",
                    "fromAddress": "0xaf1bc49090b339b7f8a8b371d3bdc78161e368f3",
                    "gasUsed": 623,
                    "id": 7,
                    "methodDecoded": true,
                    "operation": "STATICCALL",
                    "output": "0x0000000000000000000000000000000000000000000000008ac7230489e80000",
                    "revert": false,
                    "revertMessage": "",
                    "selector": "0x70a08231",
                    "status": true,
                    "value": "0"
                },
                "nodeType": 0
            },
            "8": {
                "invocation": {
                    "address": "0x0f7b3f5a8fed821c5eb60049538a548db2d479ce",
                    "callData": "0x000000000000000000000000000000000000000000000000000000000000dead0000000000000000000000000000000000000000000000008ac7230489e80000",
                    "decodedMethod": {
                        "callParams": [
                            {
                                "name": "recipient",
                                "type": "address",
                                "value": "0x000000000000000000000000000000000000dead"
                            },
                            {
                                "decimalAvailable": true,
                                "name": "amount",
                                "type": "uint256",
                                "value": "10,000,000,000,000,000,000"
                            }
                        ],
                        "constructorArguments": "",
                        "name": "transfer",
                        "returnParams": [
                            {
                                "name": "",
                                "type": "bool",
                                "value": true
                            }
                        ],
                        "signature": "transfer(address,uint256)"
                    },
                    "errorInfo": "",
                    "fromAddress": "0xaf1bc49090b339b7f8a8b371d3bdc78161e368f3",
                    "gasUsed": 16213,
                    "id": 8,
                    "methodDecoded": true,
                    "operation": "CALL",
                    "output": "0x0000000000000000000000000000000000000000000000000000000000000001",
                    "revert": false,
                    "revertMessage": "",
                    "selector": "0xa9059cbb",
                    "status": true,
                    "value": "0"
                },
                "nodeType": 0
            },
            "9": {
                "event": {
                    "contract": "0x0f7b3f5a8fed821c5eb60049538a548db2d479ce",
                    "decodedLog": {
                        "name": "Transfer",
                        "params": [
                            {
                                "name": "from",
                                "type": "address",
                                "value": "0xaf1bc49090b339b7f8a8b371d3bdc78161e368f3"
                            },
                            {
                                "name": "to",
                                "type": "address",
                                "value": "0x000000000000000000000000000000000000dead"
                            },
                            {
                                "decimalAvailable": true,
                                "name": "value",
                                "type": "uint256",
                                "value": "10,000,000,000,000,000,000"
                            }
                        ],
                        "signature": "Transfer(address,address,uint256)"
                    },
                    "id": 9,
                    "logData": "0x0000000000000000000000000000000000000000000000008ac7230489e80000",
                    "logDecoded": true,
                    "operation": "EVENT",
                    "revert": false,
                    "status": true,
                    "topics": [
                        "0xddf252ad1be2c89b69c2b068fc378daa952ba7f163c4a11628f55a4df523b3ef",
                        "0x000000000000000000000000af1bc49090b339b7f8a8b371d3bdc78161e368f3",
                        "0x000000000000000000000000000000000000000000000000000000000000dead"
                    ]
                },
                "nodeType": 1
            }
        },
        "gasFlame": [
            {
                "children": [
                    {
                        "children": [
                            {
                                "children": [],
                                "depth": 0,
                                "name": "Initial Gas",
                                "value": 23076
                            },
                            {
                                "children": [
                                    {
                                        "children": [
                                            {
                                                "children": [],
                                                "depth": 2,
                                                "name": "ecrecover",
                                                "value": 3000
                                            },
                                            {
                                                "children": [],
                                                "depth": 2,
                                                "name": "transferFrom",
                                                "value": 62417
                                            },
                                            {
                                                "children": [
                                                    {
                                                        "children": [],
                                                        "depth": 3,
                                                        "name": "balanceOf",
                                                        "value": 623
                                                    },
                                                    {
                                                        "children": [],
                                                        "depth": 3,
                                                        "name": "transfer",
                                                        "value": 16213
                                                    }
                                                ],
                                                "depth": 2,
                                                "name": "incinerate",
                                                "value": 22263
                                            },
                                            {
                                                "children": [],
                                                "depth": 2,
                                                "name": "transfer",
                                                "value": 36603
                                            }
                                        ],
                                        "depth": 1,
                                        "name": "swap",
                                        "value": 160946
                                    }
                                ],
                                "depth": 0,
                                "name": "Executed Gas",
                                "value": 168136
                            }
                        ],
                        "depth": -1,
                        "name": "Actual Gas Used",
                        "value": 163712
                    },
                    {
                        "children": [],
                        "depth": -1,
                        "name": "Refunded Gas",
                        "value": 27500
                    }
                ],
                "depth": -2,
                "name": "Total Gas",
                "value": 191212
            }
        ],
        "isConfirmed": true,
        "mainTrace": [
            {
                "children": [
                    {
                        "children": [
                            {
                                "children": [
                                    {
                                        "children": [],
                                        "depth": 2,
                                        "id": 2,
                                        "order": 2
                                    },
                                    {
                                        "children": [
                                            {
                                                "children": [],
                                                "depth": 3,
                                                "id": 4,
                                                "order": 4
                                            },
                                            {
                                                "children": [],
                                                "depth": 3,
                                                "id": 5,
                                                "order": 5
                                            }
                                        ],
                                        "depth": 2,
                                        "id": 3,
                                        "order": 3
                                    },
                                    {
                                        "children": [
                                            {
                                                "children": [],
                                                "depth": 3,
                                                "id": 7,
                                                "order": 7
                                            },
                                            {
                                                "children": [
                                                    {
                                                        "children": [],
                                                        "depth": 4,
                                                        "id": 9,
                                                        "order": 9
                                                    }
                                                ],
                                                "depth": 3,
                                                "id": 8,
                                                "order": 8
                                            },
                                            {
                                                "children": [],
                                                "depth": 3,
                                                "id": 10,
                                                "order": 10
                                            }
                                        ],
                                        "depth": 2,
                                        "id": 6,
                                        "order": 6
                                    },
                                    {
                                        "children": [
                                            {
                                                "children": [],
                                                "depth": 3,
                                                "id": 12,
                                                "order": 12
                                            }
                                        ],
                                        "depth": 2,
                                        "id": 11,
                                        "order": 11
                                    },
                                    {
                                        "children": [],
                                        "depth": 2,
                                        "id": 13,
                                        "order": 13
                                    }
                                ],
                                "depth": 1,
                                "id": 1,
                                "order": 1
                            }
                        ],
                        "depth": 0,
                        "id": 0,
                        "order": 0
                    }
                ],
                "depth": -1,
                "id": -1,
                "order": -1
            }
        ],
        "mainTraceNodeCount": 14,
        "parentIdMap": {
            "0": -1,
            "1": 0,
            "10": 6,
            "11": 1,
            "12": 11,
            "13": 1,
            "2": 1,
            "3": 1,
            "4": 3,
            "5": 3,
            "6": 1,
            "7": 6,
            "8": 6,
            "9": 8
        },
        "tidyTrace": [
            {
                "children": [
                    {
                        "children": [
                            {
                                "children": [
                                    {
                                        "children": [
                                            {
                                                "children": [],
                                                "depth": 3,
                                                "id": 4,
                                                "order": 4
                                            },
                                            {
                                                "children": [],
                                                "depth": 3,
                                                "id": 5,
                                                "order": 5
                                            }
                                        ],
                                        "depth": 2,
                                        "id": 3,
                                        "order": 3
                                    },
                                    {
                                        "children": [
                                            {
                                                "children": [
                                                    {
                                                        "children": [],
                                                        "depth": 4,
                                                        "id": 9,
                                                        "order": 9
                                                    }
                                                ],
                                                "depth": 3,
                                                "id": 8,
                                                "order": 8
                                            },
                                            {
                                                "children": [],
                                                "depth": 3,
                                                "id": 10,
                                                "order": 10
                                            }
                                        ],
                                        "depth": 2,
                                        "id": 6,
                                        "order": 6
                                    },
                                    {
                                        "children": [
                                            {
                                                "children": [],
                                                "depth": 3,
                                                "id": 12,
                                                "order": 12
                                            }
                                        ],
                                        "depth": 2,
                                        "id": 11,
                                        "order": 11
                                    },
                                    {
                                        "children": [],
                                        "depth": 2,
                                        "id": 13,
                                        "order": 13
                                    }
                                ],
                                "depth": 1,
                                "id": 1,
                                "order": 1
                            }
                        ],
                        "depth": 0,
                        "id": 0,
                        "order": 0
                    }
                ],
                "depth": -1,
                "id": -1,
                "order": -1
            }
        ],
        "tidyTraceNodeCount": 12
    },
    "state_change": {
        "stateChanges": [
            {
                "address": "0x0f7b3f5a8fed821c5eb60049538a548db2d479ce",
                "erc": "ERC-20",
                "slots": [
                    {
                        "current": "0x0000000000000000000000000000000000000000000000000000000000000000",
                        "key": "0x3f897abfcff05528a14eaf65ec8762f8589368e7e3e8fd7a4323c2c78580821a",
                        "prev": "0x0000000000000000000000000000000000000000000000008ac7230489e80000"
                    },
                    {
                        "current": "0x0000000000000000000000000000000000000000000000bfe291e5021f7b8000",
                        "key": "0xc9d6e37fb72add81a865f5f1615b2e75c3bc26592ff4eb34d731079fd237ccdf",
                        "prev": "0x0000000000000000000000000000000000000000000000c06d590806a9638000"
                    },
                    {
                        "current": "0x00000000000000000000000000000000000000000020960ba027663d37fea2e6",
                        "key": "0x44ad89ba62b98ff34f51403ac22759b55759460c0bb5521eb4b6ee3cff49cf83",
                        "prev": "0x00000000000000000000000000000000000000000020960b15604338ae16a2e6"
                    }
                ],
                "storageVariables": [
                    {
                        "name": "_balances",
                        "type": "mapping(address => uint256)",
                        "value": {
                            "pairs": [
                                {
                                    "key": "0x000000000000000000000000000000000000dead",
                                    "value": {
                                        "current": "39394195654588374456378086",
                                        "prev": "39394185654588374456378086",
                                        "typeTag": 1
                                    }
                                },
                                {
                                    "key": "0x673a7e45be2bc6c105cc135349c82b85876fe5e8",
                                    "value": {
                                        "current": "3539654200000000000000",
                                        "prev": "3549654200000000000000",
                                        "typeTag": 1
                                    }
                                }
                            ],
                            "typeTag": 4
                        }
                    },
                    {
                        "name": "_allowances",
                        "type": "mapping(address => mapping(address => uint256))",
                        "value": {
                            "pairs": [
                                {
                                    "key": "0x673a7e45be2bc6c105cc135349c82b85876fe5e8",
                                    "value": {
                                        "pairs": [
                                            {
                                                "key": "0x38f5dbbbb65be0af97f5e7c9e89e1012c0dc0163",
                                                "value": {
                                                    "current": "0",
                                                    "prev": "10000000000000000000",
                                                    "typeTag": 1
                                                }
                                            }
                                        ],
                                        "typeTag": 4
                                    }
                                }
                            ],
                            "typeTag": 4
                        }
                    }
                ]
            },
            {
                "address": "0xfeac2eae96899709a43e252b6b92971d32f9c0f9",
                "erc": "ERC-20",
                "slots": [
                    {
                        "current": "0x00000000000000000000000000000000000000000008c5f5ca7323e781690653",
                        "key": "0xd75cb9babada78bcfa55281c3685b8127fdb09bf0096b9665fa29d02a91dcc12",
                        "prev": "0x00000000000000000000000000000000000000000008c5f6553a46ec0b510653"
                    },
                    {
                        "current": "0x0000000000000000000000000000000000000000000000008ac7230489e80000",
                        "key": "0xc9d6e37fb72add81a865f5f1615b2e75c3bc26592ff4eb34d731079fd237ccdf",
                        "prev": "0x0000000000000000000000000000000000000000000000000000000000000000"
                    }
                ],
                "storageVariables": [
                    {
                        "name": "_balances",
                        "type": "mapping(address => uint256)",
                        "value": {
                            "pairs": [
                                {
                                    "key": "0x38f5dbbbb65be0af97f5e7c9e89e1012c0dc0163",
                                    "value": {
                                        "current": "10606246794383507543623251",
                                        "prev": "10606256794383507543623251",
                                        "typeTag": 1
                                    }
                                },
                                {
                                    "key": "0x673a7e45be2bc6c105cc135349c82b85876fe5e8",
                                    "value": {
                                        "current": "10000000000000000000",
                                        "prev": "0",
                                        "typeTag": 1
                                    }
                                }
                            ],
                            "typeTag": 4
                        }
                    }
                ]
            }
        ]
    }
}