{
    "balance_change": {
        "balanceChanges": [
            {
                "account": "0x9bd594d849ef2c5954988fe98bdc7090fe1e9a96",
                "assets": [
                    {
                        "address": "0x0d152b9ee87ebae179f64c067a966dd716c50742",
                        "amount": "10",
                        "iconUrl": "",
                        "isERC1155": false,
                        "isERC721": false,
                        "sign": false,
                        "value": ""
                    }
                ]
            },
            {
                "account": "0x7b2428a55379eda456655226ecb989375240dfb5",
                "assets": [
                    {
                        "address": "0x0d152b9ee87ebae179f64c067a966dd716c50742",
                        "amount": "10",
                        "iconUrl": "",
                        "isERC1155": false,
                        "isERC721": false,
                        "sign": true,
                        "value": ""
                    }
                ]
            }
        ]
    },
    "profile": {
        "basic_info": {
            "baseFee": "",
            "blockNumber": 6847362,
            "callData": "0xa9059cbb0000000000000000000000007b2428a55379eda456655226ecb989375240dfb5000000000000000000000000000000000000000000000000000000000000000a",
            "debugEnable": true,
            "errorInfo": "",
            "eventCount": 1,
            "feeRecipient": "0x5a0b54d5dc17e0aadc383d2db43b0a0d3e029c4c",
            "formatValue": "0",
            "gasLimit": 51621,
            "gasPrice": "10",
            "gasUsed": 21621,
            "intTxnCount": 0,
            "internalRevert": false,
            "internalRevertMessage": "",
            "isContractCreation": false,
            "isFlashloan": false,
            "maxFee": "",
            "nonce": 0,
            "overwritedBlockNumber": -1,
            "priorityFee": "",
            "receiver": "0x0d152b9ee87ebae179f64c067a966dd716c50742",
            "revertMessage": "",
            "sender": "0x9bd594d849ef2c5954988fe98bdc7090fe1e9a96",
            "simulationEnable": true,
            "sourceTxnHash": "0x80ffab879f5d9cd750f9ddf7699d33b1e40b45e14d1896581cfafa34457822a2",
            "status": true,
            "timestamp": "2018-12-08T07:25:22Z",
            "transactionFee": "0.00021621",
            "txnHash": "0x80ffab879f5d9cd750f9ddf7699d33b1e40b45e14d1896581cfafa34457822a2",
            "txnIndex": 55,
            "type": 0,
            "value": "0"
        },
        "fund_flow": [
            {
                "amount": "10",
                "from": "0x9bd594d849ef2c5954988fe98bdc7090fe1e9a96",
                "id": 1,
                "isERC1155": false,
                "isERC721": false,
                "isReverted": false,
                "order": 1,
                "to": "0x7b2428a55379eda456655226ecb989375240dfb5",
                "token": "0x0d152b9ee87ebae179f64c067a966dd716c50742"
            }
        ],
        "token_infos": [
            {
                "address": "0x0d152b9ee87ebae179f64c067a966dd716c50742",
                "decimals": 0
            },
            {
                "address": "0xc02aaa39b223fe8d0a0e5c4f27ead9083c756cc2",
                "decimals": 18
            },
            {
                "address": "0xeeeeeeeeeeeeeeeeeeeeeeeeeeeeeeeeeeeeeeee",
                "decimals": 18
            }
        ]
    },
    "address_label": {
        "labels": [
            {
                "address": "0xeeeeeeeeeeeeeeeeeeeeeeeeeeeeeeeeeeeeeeee",
                "label": "Ether"
            },
            {
                "address": "0x0d152b9ee87ebae179f64c067a966dd716c50742",
                "label": "Mavrodi (MAVRO)"
            },
            {
                "address": "0x0000000000000000000000000000000000000001",
                "label": "Precompiled"
            },
            {
                "address": "0x0000000000000000000000000000000000000002",
                "label": "Precompiled"
            },
            {
                "address": "0x0000000000000000000000000000000000000003",
                "label": "Precompiled"
            },
            {
                "address": "0x0000000000000000000000000000000000000004",
                "label": "Precompiled"
            }
        ]
    },
    "trace": {
        "accountLabels": null,
        "dataMap": {
            "-1": {
                "invocation": {
                    "address": "0x9bd594d849ef2c5954988fe98bdc7090fe1e9a96",
                    "callData": "",
                    "decodedMethod": null,
                    "errorInfo": "",
                    "fromAddress": "",
                    "gasUsed": 0,
                    "id": -1,
                    "methodDecoded": false,
                    "operation": "",
                    "output": "",
                    "revert": false,
                    "revertMessage": "",
                    "selector": "",
                    "status": false,
                    "value": ""
                },
                "nodeType": 0
            },
            "0": {
                "invocation": {
                    "address": "0x0d152b9ee87ebae179f64c067a966dd716c50742",
                    "callData": "0x0000000000000000000000007b2428a55379eda456655226ecb989375240dfb5000000000000000000000000000000000000000000000000000000000000000a",
                    "decodedMethod": {
                        "callParams": [
                            {
                                "name": "_to",
                                "type": "address",
                                "value": "0x7b2428a55379eda456655226ecb989375240dfb5"
                            },
                            {
                                "decimalAvailable": true,
                                "name": "_value",
                                "type": "uint256",
                                "value": "10"
                            }
                        ],
                        "constructorArguments": "",
                        "name": "transfer",
                        "returnParams": [
                            {
                                "name": "",
                                "type": "bool",
                                "value": true
                            }
                        ],
                        "signature": "transfer(address,uint256)"
                    },
                    "errorInfo": "",
                    "fromAddress": "0x9bd594d849ef2c5954988fe98bdc7090fe1e9a96",
                    "gasUsed": 21621,
                    "id": 0,
                    "methodDecoded": true,
                    "operation": "CALL",
                    "output": "0x0000000000000000000000000000000000000000000000000000000000000001",
                    "revert": false,
                    "revertMessage": "",
                    "selector": "0xa9059cbb",
                    "status": true,
                    "value": "0"
                },
                "nodeType": 0
            },
            "1": {
                "event": {
                    "contract": "0x0d152b9ee87ebae179f64c067a966dd716c50742",
                    "decodedLog": {
                        "name": "Transfer",
                        "params": [
                            {
                                "name": "from",
                                "type": "address",
                                "value": "0x9bd594d849ef2c5954988fe98bdc7090fe1e9a96"
                            },
                            {
                                "name": "to",
                                "type": "address",
                                "value": "0x7b2428a55379eda456655226ecb989375240dfb5"
                            },
                            {
                                "decimalAvailable": true,
                                "name": "value",
                                "type": "uint256",
                                "value": "10"
                            }
                        ],
                        "signature": "Transfer(address,address,uint256)"
                    },
                    "id": 1,
                    "logData": "0x000000000000000000000000000000000000000000000000000000000000000a",
                    "logDecoded": true,
                    "operation": "EVENT",
                    "revert": false,
                    "status": true,
                    "topics": [
                        "0xddf252ad1be2c89b69c2b068fc378daa952ba7f163c4a11628f55a4df523b3ef",
                        "0x0000000000000000000000009bd594d849ef2c5954988fe98bdc7090fe1e9a96",
                        "0x0000000000000000000000007b2428a55379eda456655226ecb989375240dfb5"
                    ]
                },
                "nodeType": 1
            }
        },
        "gasFlame": [
            {
                "children": [
                    {
                        "children": [
                            {
                                "children": [],
                                "depth": 0,
                                "name": "Initial Gas",
                                "value": 22872
                            },
                            {
                                "children": [],
                                "depth": 0,
                                "name": "Executed Gas",
                                "value": 13749
                            }
                        ],
                        "depth": -1,
                        "name": "Actual Gas Used",
                        "value": 21621
                    },
                    {
                        "children": [],
                        "depth": -1,
                        "name": "Refunded Gas",
                        "value": 15000
                    }
                ],
                "depth": -2,
                "name": "Total Gas",
                "value": 36621
            }
        ],
        "isConfirmed": true,
        "mainTrace": [
            {
                "children": [
                    {
                        "children": [
                            {
                                "children": [],
                                "depth": 1,
                                "id": 1,
                                "order": 1
                            }
                        ],
                        "depth": 0,
                        "id": 0,
                        "order": 0
                    }
                ],
                "depth": -1,
                "id": -1,
                "order": -1
            }
        ],
        "mainTraceNodeCount": 2,
        "parentIdMap": {
            "0": -1,
            "1": 0
        },
        "tidyTrace": [
            {
                "children": [
                    {
                        "children": [
                            {
                                "children": [],
                                "depth": 1,
                                "id": 1,
                                "order": 1
                            }
                        ],
                        "depth": 0,
                        "id": 0,
                        "order": 0
                    }
                ],
                "depth": -1,
                "id": -1,
                "order": -1
            }
        ],
        "tidyTraceNodeCount": 2
    },
    "state_change": {
        "stateChanges": [
            {
                "address": "0x0d152b9ee87ebae179f64c067a966dd716c50742",
                "erc": "ERC-20",
                "slots": [
                    {
                        "current": "0x0000000000000000000000000000000000000000000000000000000000000000",
                        "key": "0xf254656846a43f075f0e2f0c4fdff1d66c26796b2f8b4bb31c0d903edaa250c3",
                        "prev": "0x000000000000000000000000000000000000000000000000000000000000000a"
                    },
                    {
                        "current": "0x000000000000000000000000000000000000000000000000000000000010bce0",
                        "key": "0x2b0f4297de5894608f68e3e7dd6ad2b509fdfd98188ec04a7533f2c364a59264",
                        "prev": "0x000000000000000000000000000000000000000000000000000000000010bcd6"
                    }
                ],
                "storageVariables": [
                    {
                        "name": "balances",
                        "type": "mapping(address => uint256)",
                        "value": {
                            "pairs": [
                                {
                                    "key": "0x7b2428a55379eda456655226ecb989375240dfb5",
                                    "value": {
                                        "current": "1096928",
                                        "prev": "1096918",
                                        "typeTag": 1
                                    }
                                },
                                {
                                    "key": "0x9bd594d849ef2c5954988fe98bdc7090fe1e9a96",
                                    "value": {
                                        "current": "0",
                                        "prev": "10",
                                        "typeTag": 1
                                    }
                                }
                            ],
                            "typeTag": 4
                        }
                    }
                ]
            }
        ]
    }
}