{
    "balance_change": {
        "balanceChanges": [
            {
                "account": "0x0365cf5c2ab89d42562d9fddb489420034240ea5",
                "assets": [
                    {
                        "address": "0x69d2779533a4d2c780639713558b2cc98c46a9b7",
                        "amount": "1,500",
                        "iconUrl": "",
                        "isERC1155": false,
                        "isERC721": false,
                        "sign": false,
                        "value": ""
                    }
                ]
            },
            {
                "account": "0xb15a69d1066187b4bb9d445e734fca6c7f1a15ff",
                "assets": [
                    {
                        "address": "0x69d2779533a4d2c780639713558b2cc98c46a9b7",
                        "amount": "1,500",
                        "iconUrl": "",
                        "isERC1155": false,
                        "isERC721": false,
                        "sign": true,
                        "value": ""
                    }
                ]
            }
        ]
    },
    "profile": {
        "basic_info": {
            "baseFee": "",
            "blockNumber": 7428332,
            "callData": "0xa9059cbb000000000000000000000000b15a69d1066187b4bb9d445e734fca6c7f1a15ff00000000000000000000000000000000000000000000000000000022ecb25c00",
            "debugEnable": true,
            "errorInfo": "",
            "eventCount": 1,
            "feeRecipient": "0x829bd824b016326a401d083b33d092293333a830",
            "formatValue": "0",
            "gasLimit": 500000,
            "gasPrice": "4",
            "gasUsed": 53012,
            "intTxnCount": 0,
            "internalRevert": false,
            "internalRevertMessage": "",
            "isContractCreation": false,
            "isFlashloan": false,
            "maxFee": "",
            "nonce": 607,
            "overwritedBlockNumber": -1,
            "priorityFee": "",
            "receiver": "0x69d2779533a4d2c780639713558b2cc98c46a9b7",
            "revertMessage": "",
            "sender": "0x0365cf5c2ab89d42562d9fddb489420034240ea5",
            "simulationEnable": true,
            "sourceTxnHash": "0x80a7e8e18ea4230e9a9312fa5e8a8be6d3bf7dcd1023f73c0f2a349f0940658e",
            "status": true,
            "timestamp": "2019-03-24T00:56:47Z",
            "transactionFee": "0.000212048",
            "txnHash": "0x80a7e8e18ea4230e9a9312fa5e8a8be6d3bf7dcd1023f73c0f2a349f0940658e",
            "txnIndex": 10,
            "type": 0,
            "value": "0"
        },
        "fund_flow": [
            {
                "amount": "1,500",
                "from": "0x0365cf5c2ab89d42562d9fddb489420034240ea5",
                "id": 1,
                "isERC1155": false,
                "isERC721": false,
                "isReverted": false,
                "order": 1,
                "to": "0xb15a69d1066187b4bb9d445e734fca6c7f1a15ff",
                "token": "0x69d2779533a4d2c780639713558b2cc98c46a9b7"
            }
        ],
        "token_infos": [
            {
                "address": "0x69d2779533a4d2c780639713558b2cc98c46a9b7",
                "decimals": 8
            },
            {
                "address": "0xc02aaa39b223fe8d0a0e5c4f27ead9083c756cc2",
                "decimals": 18
            },
            {
                "address": "0xeeeeeeeeeeeeeeeeeeeeeeeeeeeeeeeeeeeeeeee",
                "decimals": 18
            }
        ]
    },
    "address_label": {
        "labels": [
            {
                "address": "0x69d2779533a4d2c780639713558b2cc98c46a9b7",
                "label": "VNTChain (VNT)"
            },
            {
                "address": "0x0000000000000000000000000000000000000001",
                "label": "Precompiled"
            },
            {
                "address": "0x0000000000000000000000000000000000000002",
                "label": "Precompiled"
            },
            {
                "address": "0x0000000000000000000000000000000000000003",
                "label": "Precompiled"
            },
            {
                "address": "0x0000000000000000000000000000000000000004",
                "label": "Precompiled"
            },
            {
                "address": "0xeeeeeeeeeeeeeeeeeeeeeeeeeeeeeeeeeeeeeeee",
                "label": "Ether"
            }
        ]
    },
    "trace": {
        "accountLabels": null,
        "dataMap": {
            "-1": {
                "invocation": {
                    "address": "0x0365cf5c2ab89d42562d9fddb489420034240ea5",
                    "callData": "",
                    "decodedMethod": null,
                    "errorInfo": "",
                    "fromAddress": "",
                    "gasUsed": 0,
                    "id": -1,
                    "methodDecoded": false,
                    "operation": "",
                    "output": "",
                    "revert": false,
                    "revertMessage": "",
                    "selector": "",
                    "status": false,
                    "value": ""
                },
                "nodeType": 0
            },
            "0": {
                "invocation": {
                    "address": "0x69d2779533a4d2c780639713558b2cc98c46a9b7",
                    "callData": "0x000000000000000000000000b15a69d1066187b4bb9d445e734fca6c7f1a15ff00000000000000000000000000000000000000000000000000000022ecb25c00",
                    "decodedMethod": {
                        "callParams": [
                            {
                                "name": "_to",
                                "type": "address",
                                "value": "0xb15a69d1066187b4bb9d445e734fca6c7f1a15ff"
                            },
                            {
                                "decimalAvailable": true,
                                "name": "_value",
                                "type": "uint256",
                                "value": "150,000,000,000"
                            }
                        ],
                        "constructorArguments": "",
                        "name": "transfer",
                        "returnParams": [
                            {
                                "name": "success",
                                "type": "bool",
                                "value": true
                            }
                        ],
                        "signature": "transfer(address,uint256)"
                    },
                    "errorInfo": "",
                    "fromAddress": "0x0365cf5c2ab89d42562d9fddb489420034240ea5",
                    "gasUsed": 53012,
                    "id": 0,
                    "methodDecoded": true,
                    "operation": "CALL",
                    "output": "0x0000000000000000000000000000000000000000000000000000000000000001",
                    "revert": false,
                    "revertMessage": "",
                    "selector": "0xa9059cbb",
                    "status": true,
                    "value": "0"
                },
                "nodeType": 0
            },
            "1": {
                "event": {
                    "contract": "0x69d2779533a4d2c780639713558b2cc98c46a9b7",
                    "decodedLog": {
                        "name": "Transfer",
                        "params": [
                            {
                                "name": "from",
                                "type": "address",
                                "value": "0x0365cf5c2ab89d42562d9fddb489420034240ea5"
                            },
                            {
                                "name": "to",
                                "type": "address",
                                "value": "0xb15a69d1066187b4bb9d445e734fca6c7f1a15ff"
                            },
                            {
                                "decimalAvailable": true,
                                "name": "value",
                                "type": "uint256",
                                "value": "150,000,000,000"
                            }
                        ],
                        "signature": "Transfer(address,address,uint256)"
                    },
                    "id": 1,
                    "logData": "0x00000000000000000000000000000000000000000000000000000022ecb25c00",
                    "logDecoded": true,
                    "operation": "EVENT",
                    "revert": false,
                    "status": true,
                    "topics": [
                        "0xddf252ad1be2c89b69c2b068fc378daa952ba7f163c4a11628f55a4df523b3ef",
                        "0x0000000000000000000000000365cf5c2ab89d42562d9fddb489420034240ea5",
                        "0x000000000000000000000000b15a69d1066187b4bb9d445e734fca6c7f1a15ff"
                    ]
                },
                "nodeType": 1
            }
        },
        "gasFlame": [
            {
                "children": [
                    {
                        "children": [
                            {
                                "children": [],
                                "depth": 0,
                                "name": "Initial Gas",
                                "value": 23064
                            },
                            {
                                "children": [],
                                "depth": 0,
                                "name": "Executed Gas",
                                "value": 29948
                            }
                        ],
                        "depth": -1,
                        "name": "Actual Gas Used",
                        "value": 53012
                    },
                    {
                        "children": [],
                        "depth": -1,
                        "name": "Refunded Gas",
                        "value": 0
                    }
                ],
                "depth": -2,
                "name": "Total Gas",
                "value": 53012
            }
        ],
        "isConfirmed": true,
        "mainTrace": [
            {
                "children": [
                    {
                        "children": [
                            {
                                "children": [],
                                "depth": 1,
                                "id": 1,
                                "order": 1
                            }
                        ],
                        "depth": 0,
                        "id": 0,
                        "order": 0
                    }
                ],
                "depth": -1,
                "id": -1,
                "order": -1
            }
        ],
        "mainTraceNodeCount": 2,
        "parentIdMap": {
            "0": -1,
            "1": 0
        },
        "tidyTrace": [
            {
                "children": [
                    {
                        "children": [
                            {
                                "children": [],
                                "depth": 1,
                                "id": 1,
                                "order": 1
                            }
                        ],
                        "depth": 0,
                        "id": 0,
                        "order": 0
                    }
                ],
                "depth": -1,
                "id": -1,
                "order": -1
            }
        ],
        "tidyTraceNodeCount": 2
    },
    "state_change": {
        "stateChanges": [
            {
                "address": "0x69d2779533a4d2c780639713558b2cc98c46a9b7",
                "erc": "ERC-20",
                "slots": [
                    {
                        "current": "0x000000000000000000000000000000000000000000000000000095efced83c00",
                        "key": "0xe17bd1b0c5005b2e8dceb4029a5fda46b8b688b561250fd89a2b69580232d7a9",
                        "prev": "0x00000000000000000000000000000000000000000000000000009612bb8a9800"
                    },
                    {
                        "current": "0x00000000000000000000000000000000000000000000000000000022ecb25c00",
                        "key": "0xa208afe1be1a28ca957a9a394c7175c88bb817bd5eb397eb5304e86ec2ce5878",
                        "prev": "0x0000000000000000000000000000000000000000000000000000000000000000"
                    }
                ],
                "storageVariables": [
                    {
                        "name": "balanceOf",
                        "type": "mapping(address => uint256)",
                        "value": {
                            "pairs": [
                                {
                                    "key": "0x0365cf5c2ab89d42562d9fddb489420034240ea5",
                                    "value": {
                                        "current": "164857200000000",
                                        "prev": "165007200000000",
                                        "typeTag": 1
                                    }
                                },
                                {
                                    "key": "0xb15a69d1066187b4bb9d445e734fca6c7f1a15ff",
                                    "value": {
                                        "current": "150000000000",
                                        "prev": "0",
                                        "typeTag": 1
                                    }
                                }
                            ],
                            "typeTag": 4
                        }
                    }
                ]
            }
        ]
    }
}