{
    "balance_change": {
        "balanceChanges": []
    },
    "profile": {
        "basic_info": {
            "baseFee": "",
            "blockNumber": 5273474,
            "callData": "0xd356a28b000000000000000000000000699e0f01c98621b11eb0facfc1e00a094cb395b4",
            "debugEnable": true,
            "errorInfo": "",
            "eventCount": 0,
            "feeRecipient": "0x829bd824b016326a401d083b33d092293333a830",
            "formatValue": "0",
            "gasLimit": 74922,
            "gasPrice": "2",
            "gasUsed": 49948,
            "intTxnCount": 0,
            "internalRevert": false,
            "internalRevertMessage": "",
            "isContractCreation": false,
            "isFlashloan": false,
            "maxFee": "",
            "nonce": 346,
            "overwritedBlockNumber": -1,
            "priorityFee": "",
            "receiver": "0x33a104dcbed81961701900c06fd14587c908eaa3",
            "revertMessage": "",
            "sender": "0x20886ba6fd8731ed974ba00108f043fc9006e1f8",
            "simulationEnable": true,
            "sourceTxnHash": "0x80b51121274d6e50ef3694a2498696c37b163a9bec3529fa17a0bee6793d9d26",
            "status": true,
            "timestamp": "2018-03-17T21:01:08Z",
            "transactionFee": "0.000099896",
            "txnHash": "0x80b51121274d6e50ef3694a2498696c37b163a9bec3529fa17a0bee6793d9d26",
            "txnIndex": 16,
            "type": 0,
            "value": "0"
        },
        "fund_flow": [],
        "token_infos": [
            {
                "address": "0xc02aaa39b223fe8d0a0e5c4f27ead9083c756cc2",
                "decimals": 18
            },
            {
                "address": "0xeeeeeeeeeeeeeeeeeeeeeeeeeeeeeeeeeeeeeeee",
                "decimals": 18
            }
        ]
    },
    "address_label": {
        "labels": [
            {
                "address": "0x0000000000000000000000000000000000000004",
                "label": "Precompiled"
            },
            {
                "address": "0xeeeeeeeeeeeeeeeeeeeeeeeeeeeeeeeeeeeeeeee",
                "label": "Ether"
            },
            {
                "address": "0x20886ba6fd8731ed974ba00108f043fc9006e1f8",
                "label": "Angel Battle: Deployer"
            },
            {
                "address": "0x33a104dcbed81961701900c06fd14587c908eaa3",
                "label": "MedalData"
            },
            {
                "address": "0x0000000000000000000000000000000000000001",
                "label": "Precompiled"
            },
            {
                "address": "0x0000000000000000000000000000000000000002",
                "label": "Precompiled"
            },
            {
                "address": "0x0000000000000000000000000000000000000003",
                "label": "Precompiled"
            }
        ]
    },
    "trace": {
        "accountLabels": null,
        "dataMap": {
            "-1": {
                "invocation": {
                    "address": "0x20886ba6fd8731ed974ba00108f043fc9006e1f8",
                    "callData": "",
                    "decodedMethod": null,
                    "errorInfo": "",
                    "fromAddress": "",
                    "gasUsed": 0,
                    "id": -1,
                    "methodDecoded": false,
                    "operation": "",
                    "output": "",
                    "revert": false,
                    "revertMessage": "",
                    "selector": "",
                    "status": false,
                    "value": ""
                },
                "nodeType": 0
            },
            "0": {
                "invocation": {
                    "address": "0x33a104dcbed81961701900c06fd14587c908eaa3",
                    "callData": "0x000000000000000000000000699e0f01c98621b11eb0facfc1e00a094cb395b4",
                    "decodedMethod": {
                        "callParams": [
                            {
                                "name": "_newSeraphim",
                                "type": "address",
                                "value": "0x699e0f01c98621b11eb0facfc1e00a094cb395b4"
                            }
                        ],
                        "constructorArguments": "",
                        "name": "addSERAPHIM",
                        "returnParams": [],
                        "signature": "addSERAPHIM(address)"
                    },
                    "errorInfo": "",
                    "fromAddress": "0x20886ba6fd8731ed974ba00108f043fc9006e1f8",
                    "gasUsed": 49948,
                    "id": 0,
                    "methodDecoded": true,
                    "operation": "CALL",
                    "output": "",
                    "revert": false,
                    "revertMessage": "",
                    "selector": "0xd356a28b",
                    "status": true,
                    "value": "0"
                },
                "nodeType": 0
            }
        },
        "gasFlame": [
            {
                "children": [
                    {
                        "children": [
                            {
                                "children": [],
                                "depth": 0,
                                "name": "Initial Gas",
                                "value": 22680
                            },
                            {
                                "children": [],
                                "depth": 0,
                                "name": "Executed Gas",
                                "value": 27268
                            }
                        ],
                        "depth": -1,
                        "name": "Actual Gas Used",
                        "value": 49948
                    },
                    {
                        "children": [],
                        "depth": -1,
                        "name": "Refunded Gas",
                        "value": 0
                    }
                ],
                "depth": -2,
                "name": "Total Gas",
                "value": 49948
            }
        ],
        "isConfirmed": true,
        "mainTrace": [
            {
                "children": [
                    {
                        "children": [],
                        "depth": 0,
                        "id": 0,
                        "order": 0
                    }
                ],
                "depth": -1,
                "id": -1,
                "order": -1
            }
        ],
        "mainTraceNodeCount": 1,
        "parentIdMap": {
            "0": -1
        },
        "tidyTrace": [
            {
                "children": [
                    {
                        "children": [],
                        "depth": 0,
                        "id": 0,
                        "order": 0
                    }
                ],
                "depth": -1,
                "id": -1,
                "order": -1
            }
        ],
        "tidyTraceNodeCount": 1
    },
    "state_change": {
        "stateChanges": [
            {
                "address": "0x33a104dcbed81961701900c06fd14587c908eaa3",
                "erc": "",
                "slots": [
                    {
                        "current": "0x0000000000000000000000000000000000000000000000000000000000000001",
                        "key": "0x7ddacd8b86eb6ca2bbce26667361b4f1d5423af51758245712e6afdafb3e5f04",
                        "prev": "0x0000000000000000000000000000000000000000000000000000000000000000"
                    },
                    {
                        "current": "0x00000000000000000000000320886ba6fd8731ed974ba00108f043fc9006e1f8",
                        "key": "0x0000000000000000000000000000000000000000000000000000000000000000",
                        "prev": "0x00000000000000000000000220886ba6fd8731ed974ba00108f043fc9006e1f8"
                    }
                ],
                "storageVariables": [
                    {
                        "name": "seraphims",
                        "type": "mapping(address => bool)",
                        "value": {
                            "pairs": [
                                {
                                    "key": "0x699e0f01c98621b11eb0facfc1e00a094cb395b4",
                                    "value": {
                                        "current": "true",
                                        "prev": "false",
                                        "typeTag": 1
                                    }
                                }
                            ],
                            "typeTag": 4
                        }
                    },
                    {
                        "name": "creatorAddress",
                        "type": "address",
                        "value": {
                            "current": "0x20886ba6fd8731ed974ba00108f043fc9006e1f8",
                            "prev": "0x20886ba6fd8731ed974ba00108f043fc9006e1f8",
                            "typeTag": 1
                        }
                    },
                    {
                        "name": "totalSeraphims",
                        "type": "uint16",
                        "value": {
                            "current": "3",
                            "prev": "2",
                            "typeTag": 1
                        }
                    }
                ]
            }
        ]
    }
}