{
    "balance_change": {
        "balanceChanges": [
            {
                "account": "0x8c2e8dbd7304d163b121490f47d30a0f8906107e",
                "assets": [
                    {
                        "address": "0x495f947276749ce646f68ac8c248420045cb7b5e",
                        "amount": "1",
                        "iconUrl": "",
                        "isERC1155": true,
                        "isERC721": false,
                        "sign": false,
                        "tokenID": "63406052020414813134660098691514919229802284462760201759499338077070849736705",
                        "value": ""
                    }
                ]
            },
            {
                "account": "0x6f6e2baea38f5bf20d0f713be8ed75e8e09f8354",
                "assets": [
                    {
                        "address": "0x495f947276749ce646f68ac8c248420045cb7b5e",
                        "amount": "1",
                        "iconUrl": "",
                        "isERC1155": true,
                        "isERC721": false,
                        "sign": true,
                        "tokenID": "63406052020414813134660098691514919229802284462760201759499338077070849736705",
                        "value": ""
                    }
                ]
            }
        ]
    },
    "profile": {
        "basic_info": {
            "baseFee": "44.116760362",
            "blockNumber": 15232179,
            "callData": "0xb3a34c4c00000000000000000000000000000000000000000000000000000000000000400000007b02230091a7ed01230072f7006a004d60a8d4e71d599b8104250f0000000000000000000000000000000000000000000000000000000000000000004000000000000000000000000000000000000000000000000000000000000002800000000000000000000000008c2e8dbd7304d163b121490f47d30a0f8906107e000000000000000000000000004c00500000ad104d7dbd00e3ae0a5c00560c000000000000000000000000000000000000000000000000000000000000000160000000000000000000000000000000000000000000000000000000000000022000000000000000000000000000000000000000000000000000000000000000030000000000000000000000000000000000000000000000000000000062dc3d45000000000000000000000000000000000000000000000000000000006352e4450000000000000000000000000000000000000000000000000000000000000000000000000000000000000000000000000000000000000000007791a7afb8f95e0000007b02230091a7ed01230072f7006a004d60a8d4e71d599b8104250f0000000000000000000000000000000000000000000000000000000000000000000000000000000000000000000000000000000000000000000000000000000000010000000000000000000000000000000000000000000000000000000000000003000000000000000000000000a604060890923ff400e8c6f5290461a83aedacec8c2e8dbd7304d163b121490f47d30a0f8906107e000000000011d100000000010000000000000000000000000000000000000000000000000000000000000001000000000000000000000000000000000000000000000000000000000000000100000000000000000000000000000000000000000000000000000000000000000000000000000000000000000000000000000000000000000000000000000041d65929b0992a89fa1f4301d54118e27e8557a13b46736060de2aa0b0d04b3908462fd1f9a136635f0958bf220b9b115b080d0c3daa376fe96cfb5ee9865f28bc1c00000000000000000000000000000000000000000000000000000000000000",
            "debugEnable": true,
            "errorInfo": "",
            "eventCount": 2,
            "feeRecipient": "0x1ad91ee08f21be3de0ba2ba6918e714da6b45836",
            "formatValue": "0",
            "gasLimit": 157458,
            "gasPrice": "46.616760362",
            "gasUsed": 149702,
            "intTxnCount": 6,
            "internalRevert": false,
            "internalRevertMessage": "",
            "isContractCreation": false,
            "isFlashloan": false,
            "maxFee": "79.447139616",
            "nonce": 16,
            "overwritedBlockNumber": -1,
            "priorityFee": "2.5",
            "receiver": "0x00000000006c3852cbef3e08e8df289169ede581",
            "revertMessage": "",
            "sender": "0x6f6e2baea38f5bf20d0f713be8ed75e8e09f8354",
            "simulationEnable": true,
            "sourceTxnHash": "0x80d2130e536c3564c74c1e75c058d14831ad25c0e996f4995f72defb1a7bedef",
            "status": true,
            "timestamp": "2022-07-28T16:54:08Z",
            "transactionFee": "0.006978622259712124",
            "txnHash": "0x80d2130e536c3564c74c1e75c058d14831ad25c0e996f4995f72defb1a7bedef",
            "txnIndex": 57,
            "type": 2,
            "value": "0"
        },
        "fund_flow": [
            {
                "amount": "1",
                "from": "0x8c2e8dbd7304d163b121490f47d30a0f8906107e",
                "id": 1,
                "isERC1155": true,
                "isERC721": false,
                "isReverted": false,
                "order": 1,
                "to": "0x6f6e2baea38f5bf20d0f713be8ed75e8e09f8354",
                "token": "0x495f947276749ce646f68ac8c248420045cb7b5e",
                "tokenID": "63406052020414813134660098691514919229802284462760201759499338077070849736705"
            }
        ],
        "token_infos": [
            {
                "address": "0xc02aaa39b223fe8d0a0e5c4f27ead9083c756cc2",
                "decimals": 18
            },
            {
                "address": "0xeeeeeeeeeeeeeeeeeeeeeeeeeeeeeeeeeeeeeeee",
                "decimals": 18
            }
        ]
    },
    "address_label": {
        "labels": [
            {
                "address": "0x0000000000000000000000000000000000000004",
                "label": "Precompiled"
            },
            {
                "address": "0xeeeeeeeeeeeeeeeeeeeeeeeeeeeeeeeeeeeeeeee",
                "label": "Ether"
            },
            {
                "address": "0x004c00500000ad104d7dbd00e3ae0a5c00560c00",
                "label": "OpenSea: Pausable Zone"
            },
            {
                "address": "0x0000000000000000000000000000000000000002",
                "label": "Precompiled"
            },
            {
                "address": "0x0000000000000000000000000000000000000003",
                "label": "Precompiled"
            },
            {
                "address": "0x0000000000000000000000000000000000000001",
                "label": "Precompiled"
            },
            {
                "address": "0x495f947276749ce646f68ac8c248420045cb7b5e",
                "label": "OpenSea: OPENSTORE Token"
            },
            {
                "address": "0x1e0049783f008a0085193e00003d00cd54003c71",
                "label": "OpenSea: Conduit"
            },
            {
                "address": "0xa604060890923ff400e8c6f5290461a83aedacec",
                "label": "SharedStorefrontLazyMintAdapter"
            },
            {
                "address": "0x00000000006c3852cbef3e08e8df289169ede581",
                "label": "Seaport 1.1"
            }
        ]
    },
    "trace": {
        "accountLabels": null,
        "dataMap": {
            "-1": {
                "invocation": {
                    "address": "0x6f6e2baea38f5bf20d0f713be8ed75e8e09f8354",
                    "callData": "",
                    "decodedMethod": null,
                    "errorInfo": "",
                    "fromAddress": "",
                    "gasUsed": 0,
                    "id": -1,
                    "methodDecoded": false,
                    "operation": "",
                    "output": "",
                    "revert": false,
                    "revertMessage": "",
                    "selector": "",
                    "status": false,
                    "value": ""
                },
                "nodeType": 0
            },
            "0": {
                "invocation": {
                    "address": "0x00000000006c3852cbef3e08e8df289169ede581",
                    "callData": "0x00000000000000000000000000000000000000000000000000000000000000400000007b02230091a7ed01230072f7006a004d60a8d4e71d599b8104250f0000000000000000000000000000000000000000000000000000000000000000004000000000000000000000000000000000000000000000000000000000000002800000000000000000000000008c2e8dbd7304d163b121490f47d30a0f8906107e000000000000000000000000004c00500000ad104d7dbd00e3ae0a5c00560c000000000000000000000000000000000000000000000000000000000000000160000000000000000000000000000000000000000000000000000000000000022000000000000000000000000000000000000000000000000000000000000000030000000000000000000000000000000000000000000000000000000062dc3d45000000000000000000000000000000000000000000000000000000006352e4450000000000000000000000000000000000000000000000000000000000000000000000000000000000000000000000000000000000000000007791a7afb8f95e0000007b02230091a7ed01230072f7006a004d60a8d4e71d599b8104250f0000000000000000000000000000000000000000000000000000000000000000000000000000000000000000000000000000000000000000000000000000000000010000000000000000000000000000000000000000000000000000000000000003000000000000000000000000a604060890923ff400e8c6f5290461a83aedacec8c2e8dbd7304d163b121490f47d30a0f8906107e000000000011d100000000010000000000000000000000000000000000000000000000000000000000000001000000000000000000000000000000000000000000000000000000000000000100000000000000000000000000000000000000000000000000000000000000000000000000000000000000000000000000000000000000000000000000000041d65929b0992a89fa1f4301d54118e27e8557a13b46736060de2aa0b0d04b3908462fd1f9a136635f0958bf220b9b115b080d0c3daa376fe96cfb5ee9865f28bc1c00000000000000000000000000000000000000000000000000000000000000",
                    "decodedMethod": {
                        "callParams": [
                            {
                                "name": "order",
                                "type": "((address,address,(uint8,address,uint256,uint256,uint256)[],(uint8,address,uint256,uint256,uint256,address)[],uint8,uint256,uint256,bytes32,uint256,bytes32,uint256),bytes)",
                                "value": [
                                    {
                                        "name": "parameters",
                                        "type": "(address,address,(uint8,address,uint256,uint256,uint256)[],(uint8,address,uint256,uint256,uint256,address)[],uint8,uint256,uint256,bytes32,uint256,bytes32,uint256)",
                                        "value": [
                                            {
                                                "name": "offerer",
                                                "type": "address",
                                                "value": "0x8c2e8dbd7304d163b121490f47d30a0f8906107e"
                                            },
                                            {
                                                "name": "zone",
                                                "type": "address",
                                                "value": "0x004c00500000ad104d7dbd00e3ae0a5c00560c00"
                                            },
                                            {
                                                "name": "offer",
                                                "type": "(uint8,address,uint256,uint256,uint256)[]",
                                                "value": [
                                                    [
                                                        {
                                                            "name": "itemType",
                                                            "type": "uint8",
                                                            "value": "3"
                                                        },
                                                        {
                                                            "name": "token",
                                                            "type": "address",
                                                            "value": "0xa604060890923ff400e8c6f5290461a83aedacec"
                                                        },
                                                        {
                                                            "name": "identifierOrCriteria",
                                                            "type": "uint256",
                                                            "value": "63,406,052,020,414,813,134,660,098,691,514,919,229,802,284,462,760,201,759,499,338,077,070,849,736,705"
                                                        },
                                                        {
                                                            "name": "startAmount",
                                                            "type": "uint256",
                                                            "value": "1"
                                                        },
                                                        {
                                                            "name": "endAmount",
                                                            "type": "uint256",
                                                            "value": "1"
                                                        }
                                                    ]
                                                ]
                                            },
                                            {
                                                "name": "consideration",
                                                "type": "(uint8,address,uint256,uint256,uint256,address)[]",
                                                "value": []
                                            },
                                            {
                                                "name": "orderType",
                                                "type": "uint8",
                                                "value": "3"
                                            },
                                            {
                                                "name": "startTime",
                                                "type": "uint256",
                                                "value": "1,658,600,773"
                                            },
                                            {
                                                "name": "endTime",
                                                "type": "uint256",
                                                "value": "1,666,376,773"
                                            },
                                            {
                                                "name": "zoneHash",
                                                "type": "bytes32",
                                                "value": "0x0000000000000000000000000000000000000000000000000000000000000000"
                                            },
                                            {
                                                "name": "salt",
                                                "type": "uint256",
                                                "value": "33,655,671,622,269,278"
                                            },
                                            {
                                                "name": "conduitKey",
                                                "type": "bytes32",
                                                "value": "0x0000007b02230091a7ed01230072f7006a004d60a8d4e71d599b8104250f0000"
                                            },
                                            {
                                                "name": "totalOriginalConsiderationItems",
                                                "type": "uint256",
                                                "value": "0"
                                            }
                                        ]
                                    },
                                    {
                                        "name": "signature",
                                        "type": "bytes",
                                        "value": "0xd65929b0992a89fa1f4301d54118e27e8557a13b46736060de2aa0b0d04b3908462fd1f9a136635f0958bf220b9b115b080d0c3daa376fe96cfb5ee9865f28bc1c"
                                    }
                                ]
                            },
                            {
                                "name": "fulfillerConduitKey",
                                "type": "bytes32",
                                "value": "0x0000007b02230091a7ed01230072f7006a004d60a8d4e71d599b8104250f0000"
                            }
                        ],
                        "constructorArguments": "",
                        "name": "fulfillOrder",
                        "returnParams": [
                            {
                                "name": "fulfilled",
                                "type": "bool",
                                "value": true
                            }
                        ],
                        "signature": "fulfillOrder(((address,address,(uint8,address,uint256,uint256,uint256)[],(uint8,address,uint256,uint256,uint256,address)[],uint8,uint256,uint256,bytes32,uint256,bytes32,uint256),bytes),bytes32)"
                    },
                    "errorInfo": "",
                    "fromAddress": "0x6f6e2baea38f5bf20d0f713be8ed75e8e09f8354",
                    "gasUsed": 149702,
                    "id": 0,
                    "methodDecoded": true,
                    "operation": "CALL",
                    "output": "0x0000000000000000000000000000000000000000000000000000000000000001",
                    "revert": false,
                    "revertMessage": "",
                    "selector": "0xb3a34c4c",
                    "status": true,
                    "value": "0"
                },
                "nodeType": 0
            },
            "1": {
                "invocation": {
                    "address": "0x004c00500000ad104d7dbd00e3ae0a5c00560c00",
                    "callData": "0x3464280958a4488364dad4fccd379730500c03eb62e5aa7052d08bdc32deda610000000000000000000000006f6e2baea38f5bf20d0f713be8ed75e8e09f83540000000000000000000000008c2e8dbd7304d163b121490f47d30a0f8906107e0000000000000000000000000000000000000000000000000000000000000000",
                    "decodedMethod": {
                        "callParams": [
                            {
                                "name": "orderHash",
                                "type": "bytes32",
                                "value": "0x3464280958a4488364dad4fccd379730500c03eb62e5aa7052d08bdc32deda61"
                            },
                            {
                                "name": "caller",
                                "type": "address",
                                "value": "0x6f6e2baea38f5bf20d0f713be8ed75e8e09f8354"
                            },
                            {
                                "name": "offerer",
                                "type": "address",
                                "value": "0x8c2e8dbd7304d163b121490f47d30a0f8906107e"
                            },
                            {
                                "name": "zoneHash",
                                "type": "bytes32",
                                "value": "0x0000000000000000000000000000000000000000000000000000000000000000"
                            }
                        ],
                        "constructorArguments": "",
                        "name": "isValidOrder",
                        "returnParams": [
                            {
                                "name": "validOrderMagicValue",
                                "type": "bytes4",
                                "value": "0x0e1d31dc"
                            }
                        ],
                        "signature": "isValidOrder(bytes32,address,address,bytes32)"
                    },
                    "errorInfo": "",
                    "fromAddress": "0x00000000006c3852cbef3e08e8df289169ede581",
                    "gasUsed": 257,
                    "id": 1,
                    "methodDecoded": true,
                    "operation": "STATICCALL",
                    "output": "0x0e1d31dc00000000000000000000000000000000000000000000000000000000",
                    "revert": false,
                    "revertMessage": "",
                    "selector": "0x0e1d31dc",
                    "status": true,
                    "value": "0"
                },
                "nodeType": 0
            },
            "2": {
                "invocation": {
                    "address": "0x0000000000000000000000000000000000000001",
                    "callData": "0x8bbedab49ec586e2a7350e227ebe4095d096aef7e79b20a655c7d8ad000000000000000000000000000000000000000000000000000000000000001cd65929b0992a89fa1f4301d54118e27e8557a13b46736060de2aa0b0d04b3908462fd1f9a136635f0958bf220b9b115b080d0c3daa376fe96cfb5ee9865f28bc",
                    "decodedMethod": {
                        "callParams": [
                            {
                                "name": "hash",
                                "type": "bytes32",
                                "value": "0x6024597f8bbedab49ec586e2a7350e227ebe4095d096aef7e79b20a655c7d8ad"
                            },
                            {
                                "name": "v",
                                "type": "uint256",
                                "value": "28"
                            },
                            {
                                "name": "r",
                                "type": "bytes32",
                                "value": "0xd65929b0992a89fa1f4301d54118e27e8557a13b46736060de2aa0b0d04b3908"
                            },
                            {
                                "name": "s",
                                "type": "bytes32",
                                "value": "0x462fd1f9a136635f0958bf220b9b115b080d0c3daa376fe96cfb5ee9865f28bc"
                            }
                        ],
                        "constructorArguments": "",
                        "name": "ecrecover",
                        "returnParams": [
                            {
                                "name": "",
                                "type": "address",
                                "value": "0x8c2e8dbd7304d163b121490f47d30a0f8906107e"
                            }
                        ],
                        "signature": "ecrecover(bytes32,uint256,bytes32,bytes32)"
                    },
                    "errorInfo": "",
                    "fromAddress": "0x00000000006c3852cbef3e08e8df289169ede581",
                    "gasUsed": 3000,
                    "id": 2,
                    "methodDecoded": true,
                    "operation": "STATICCALL",
                    "output": "0x0000000000000000000000008c2e8dbd7304d163b121490f47d30a0f8906107e",
                    "revert": false,
                    "revertMessage": "",
                    "selector": "0x6024597f",
                    "status": true,
                    "value": "0"
                },
                "nodeType": 0
            },
            "3": {
                "invocation": {
                    "address": "0x1e0049783f008a0085193e00003d00cd54003c71",
                    "callData": "0x000000000000000000000000000000000000000000000000000000000000002000000000000000000000000000000000000000000000000000000000000000010000000000000000000000000000000000000000000000000000000000000003000000000000000000000000a604060890923ff400e8c6f5290461a83aedacec0000000000000000000000008c2e8dbd7304d163b121490f47d30a0f8906107e0000000000000000000000006f6e2baea38f5bf20d0f713be8ed75e8e09f83548c2e8dbd7304d163b121490f47d30a0f8906107e000000000011d100000000010000000000000000000000000000000000000000000000000000000000000001",
                    "decodedMethod": {
                        "callParams": [
                            {
                                "name": "transfers",
                                "type": "(uint8,address,address,address,uint256,uint256)[]",
                                "value": [
                                    [
                                        {
                                            "name": "itemType",
                                            "type": "uint8",
                                            "value": "3"
                                        },
                                        {
                                            "name": "token",
                                            "type": "address",
                                            "value": "0xa604060890923ff400e8c6f5290461a83aedacec"
                                        },
                                        {
                                            "name": "from",
                                            "type": "address",
                                            "value": "0x8c2e8dbd7304d163b121490f47d30a0f8906107e"
                                        },
                                        {
                                            "name": "to",
                                            "type": "address",
                                            "value": "0x6f6e2baea38f5bf20d0f713be8ed75e8e09f8354"
                                        },
                                        {
                                            "name": "identifier",
                                            "type": "uint256",
                                            "value": "63,406,052,020,414,813,134,660,098,691,514,919,229,802,284,462,760,201,759,499,338,077,070,849,736,705"
                                        },
                                        {
                                            "name": "amount",
                                            "type": "uint256",
                                            "value": "1"
                                        }
                                    ]
                                ]
                            }
                        ],
                        "constructorArguments": "",
                        "name": "execute",
                        "returnParams": [
                            {
                                "name": "magicValue",
                                "type": "bytes4",
                                "value": "0x4ce34aa2"
                            }
                        ],
                        "signature": "execute((uint8,address,address,address,uint256,uint256)[])"
                    },
                    "errorInfo": "",
                    "fromAddress": "0x00000000006c3852cbef3e08e8df289169ede581",
                    "gasUsed": 74229,
                    "id": 3,
                    "methodDecoded": true,
                    "operation": "CALL",
                    "output": "0x4ce34aa200000000000000000000000000000000000000000000000000000000",
                    "revert": false,
                    "revertMessage": "",
                    "selector": "0x4ce34aa2",
                    "status": true,
                    "value": "0"
                },
                "nodeType": 0
            },
            "4": {
                "invocation": {
                    "address": "0xa604060890923ff400e8c6f5290461a83aedacec",
                    "callData": "0x0000000000000000000000008c2e8dbd7304d163b121490f47d30a0f8906107e0000000000000000000000006f6e2baea38f5bf20d0f713be8ed75e8e09f83548c2e8dbd7304d163b121490f47d30a0f8906107e000000000011d10000000001000000000000000000000000000000000000000000000000000000000000000100000000000000000000000000000000000000000000000000000000000000a00000000000000000000000000000000000000000000000000000000000000000",
                    "decodedMethod": {
                        "callParams": [
                            {
                                "name": "from",
                                "type": "address",
                                "value": "0x8c2e8dbd7304d163b121490f47d30a0f8906107e"
                            },
                            {
                                "name": "to",
                                "type": "address",
                                "value": "0x6f6e2baea38f5bf20d0f713be8ed75e8e09f8354"
                            },
                            {
                                "name": "tokenId",
                                "type": "uint256",
                                "value": "63,406,052,020,414,813,134,660,098,691,514,919,229,802,284,462,760,201,759,499,338,077,070,849,736,705"
                            },
                            {
                                "name": "amount",
                                "type": "uint256",
                                "value": "1"
                            },
                            {
                                "name": "",
                                "type": "bytes",
                                "value": "0x"
                            }
                        ],
                        "constructorArguments": "",
                        "name": "safeTransferFrom",
                        "returnParams": [],
                        "signature": "safeTransferFrom(address,address,uint256,uint256,bytes)"
                    },
                    "errorInfo": "",
                    "fromAddress": "0x1e0049783f008a0085193e00003d00cd54003c71",
                    "gasUsed": 67922,
                    "id": 4,
                    "methodDecoded": true,
                    "operation": "CALL",
                    "output": "",
                    "revert": false,
                    "revertMessage": "",
                    "selector": "0xf242432a",
                    "status": true,
                    "value": "0"
                },
                "nodeType": 0
            },
            "5": {
                "invocation": {
                    "address": "0x495f947276749ce646f68ac8c248420045cb7b5e",
                    "callData": "0x0000000000000000000000008c2e8dbd7304d163b121490f47d30a0f8906107e8c2e8dbd7304d163b121490f47d30a0f8906107e000000000011d10000000001",
                    "decodedMethod": {
                        "callParams": [
                            {
                                "name": "account",
                                "type": "address",
                                "value": "0x8c2e8dbd7304d163b121490f47d30a0f8906107e"
                            },
                            {
                                "name": "id",
                                "type": "uint256",
                                "value": "63,406,052,020,414,813,134,660,098,691,514,919,229,802,284,462,760,201,759,499,338,077,070,849,736,705"
                            }
                        ],
                        "constructorArguments": "",
                        "name": "balanceOf",
                        "returnParams": [
                            {
                                "name": "",
                                "type": "uint256",
                                "value": "1"
                            }
                        ],
                        "signature": "balanceOf(address,uint256)"
                    },
                    "errorInfo": "",
                    "fromAddress": "0xa604060890923ff400e8c6f5290461a83aedacec",
                    "gasUsed": 7689,
                    "id": 5,
                    "methodDecoded": true,
                    "operation": "STATICCALL",
                    "output": "0x0000000000000000000000000000000000000000000000000000000000000001",
                    "revert": false,
                    "revertMessage": "",
                    "selector": "0x00fdd58e",
                    "status": true,
                    "value": "0"
                },
                "nodeType": 0
            },
            "6": {
                "invocation": {
                    "address": "0x495f947276749ce646f68ac8c248420045cb7b5e",
                    "callData": "0x0000000000000000000000008c2e8dbd7304d163b121490f47d30a0f8906107e0000000000000000000000006f6e2baea38f5bf20d0f713be8ed75e8e09f83548c2e8dbd7304d163b121490f47d30a0f8906107e000000000011d10000000001000000000000000000000000000000000000000000000000000000000000000100000000000000000000000000000000000000000000000000000000000000a00000000000000000000000000000000000000000000000000000000000000000",
                    "decodedMethod": {
                        "callParams": [
                            {
                                "name": "from",
                                "type": "address",
                                "value": "0x8c2e8dbd7304d163b121490f47d30a0f8906107e"
                            },
                            {
                                "name": "to",
                                "type": "address",
                                "value": "0x6f6e2baea38f5bf20d0f713be8ed75e8e09f8354"
                            },
                            {
                                "name": "id",
                                "type": "uint256",
                                "value": "63,406,052,020,414,813,134,660,098,691,514,919,229,802,284,462,760,201,759,499,338,077,070,849,736,705"
                            },
                            {
                                "name": "amount",
                                "type": "uint256",
                                "value": "1"
                            },
                            {
                                "name": "data",
                                "type": "bytes",
                                "value": "0x"
                            }
                        ],
                        "constructorArguments": "",
                        "name": "safeTransferFrom",
                        "returnParams": [],
                        "signature": "safeTransferFrom(address,address,uint256,uint256,bytes)"
                    },
                    "errorInfo": "",
                    "fromAddress": "0xa604060890923ff400e8c6f5290461a83aedacec",
                    "gasUsed": 56010,
                    "id": 6,
                    "methodDecoded": true,
                    "operation": "CALL",
                    "output": "",
                    "revert": false,
                    "revertMessage": "",
                    "selector": "0xf242432a",
                    "status": true,
                    "value": "0"
                },
                "nodeType": 0
            },
            "7": {
                "event": {
                    "contract": "0x495f947276749ce646f68ac8c248420045cb7b5e",
                    "decodedLog": {
                        "name": "TransferSingle",
                        "params": [
                            {
                                "name": "operator",
                                "type": "address",
                                "value": "0xa604060890923ff400e8c6f5290461a83aedacec"
                            },
                            {
                                "name": "from",
                                "type": "address",
                                "value": "0x8c2e8dbd7304d163b121490f47d30a0f8906107e"
                            },
                            {
                                "name": "to",
                                "type": "address",
                                "value": "0x6f6e2baea38f5bf20d0f713be8ed75e8e09f8354"
                            },
                            {
                                "name": "id",
                                "type": "uint256",
                                "value": "63,406,052,020,414,813,134,660,098,691,514,919,229,802,284,462,760,201,759,499,338,077,070,849,736,705"
                            },
                            {
                                "name": "value",
                                "type": "uint256",
                                "value": "1"
                            }
                        ],
                        "signature": "TransferSingle(address,address,address,uint256,uint256)"
                    },
                    "id": 7,
                    "logData": "0x8c2e8dbd7304d163b121490f47d30a0f8906107e000000000011d100000000010000000000000000000000000000000000000000000000000000000000000001",
                    "logDecoded": true,
                    "operation": "EVENT",
                    "revert": false,
                    "status": true,
                    "topics": [
                        "0xc3d58168c5ae7397731d063d5bbf3d657854427343f4c083240f7aacaa2d0f62",
                        "0x000000000000000000000000a604060890923ff400e8c6f5290461a83aedacec",
                        "0x0000000000000000000000008c2e8dbd7304d163b121490f47d30a0f8906107e",
                        "0x0000000000000000000000006f6e2baea38f5bf20d0f713be8ed75e8e09f8354"
                    ]
                },
                "nodeType": 1
            },
            "8": {
                "event": {
                    "contract": "0x00000000006c3852cbef3e08e8df289169ede581",
                    "decodedLog": {
                        "name": "OrderFulfilled",
                        "params": [
                            {
                                "name": "offerer",
                                "type": "address",
                                "value": "0x8c2e8dbd7304d163b121490f47d30a0f8906107e"
                            },
                            {
                                "name": "zone",
                                "type": "address",
                                "value": "0x004c00500000ad104d7dbd00e3ae0a5c00560c00"
                            },
                            {
                                "name": "orderHash",
                                "type": "bytes32",
                                "value": "0x3464280958a4488364dad4fccd379730500c03eb62e5aa7052d08bdc32deda61"
                            },
                            {
                                "name": "recipient",
                                "type": "address",
                                "value": "0x6f6e2baea38f5bf20d0f713be8ed75e8e09f8354"
                            },
                            {
                                "name": "offer",
                                "type": "(uint8,address,uint256,uint256)[]",
                                "value": [
                                    [
                                        {
                                            "name": "itemType",
                                            "type": "uint8",
                                            "value": "3"
                                        },
                                        {
                                            "name": "token",
                                            "type": "address",
                                            "value": "0xa604060890923ff400e8c6f5290461a83aedacec"
                                        },
                                        {
                                            "name": "identifier",
                                            "type": "uint256",
                                            "value": "63,406,052,020,414,813,134,660,098,691,514,919,229,802,284,462,760,201,759,499,338,077,070,849,736,705"
                                        },
                                        {
                                            "name": "amount",
                                            "type": "uint256",
                                            "value": "1"
                                        }
                                    ]
                                ]
                            },
                            {
                                "name": "consideration",
                                "type": "(uint8,address,uint256,uint256,address)[]",
                                "value": []
                            }
                        ],
                        "signature": "OrderFulfilled(bytes32,address,address,address,(uint8,address,uint256,uint256)[],(uint8,address,uint256,uint256,address)[])"
                    },
                    "id": 8,
                    "logData": "0x3464280958a4488364dad4fccd379730500c03eb62e5aa7052d08bdc32deda610000000000000000000000006f6e2baea38f5bf20d0f713be8ed75e8e09f83540000000000000000000000000000000000000000000000000000000000000080000000000000000000000000000000000000000000000000000000000000012000000000000000000000000000000000000000000000000000000000000000010000000000000000000000000000000000000000000000000000000000000003000000000000000000000000a604060890923ff400e8c6f5290461a83aedacec8c2e8dbd7304d163b121490f47d30a0f8906107e000000000011d1000000000100000000000000000000000000000000000000000000000000000000000000010000000000000000000000000000000000000000000000000000000000000000",
                    "logDecoded": true,
                    "operation": "EVENT",
                    "revert": false,
                    "status": true,
                    "topics": [
                        "0x9d9af8e38d66c62e2c12f0225249fd9d721c54b83f48d9352c97c6cacdcb6f31",
                        "0x0000000000000000000000008c2e8dbd7304d163b121490f47d30a0f8906107e",
                        "0x000000000000000000000000004c00500000ad104d7dbd00e3ae0a5c00560c00"
                    ]
                },
                "nodeType": 1
            }
        },
        "gasFlame": [
            {
                "children": [
                    {
                        "children": [
                            {
                                "children": [],
                                "depth": 0,
                                "name": "Initial Gas",
                                "value": 26972
                            },
                            {
                                "children": [
                                    {
                                        "children": [],
                                        "depth": 1,
                                        "name": "isValidOrder",
                                        "value": 257
                                    },
                                    {
                                        "children": [],
                                        "depth": 1,
                                        "name": "ecrecover",
                                        "value": 3000
                                    },
                                    {
                                        "children": [
                                            {
                                                "children": [
                                                    {
                                                        "children": [],
                                                        "depth": 3,
                                                        "name": "balanceOf",
                                                        "value": 7689
                                                    },
                                                    {
                                                        "children": [],
                                                        "depth": 3,
                                                        "name": "safeTransferFrom",
                                                        "value": 56010
                                                    }
                                                ],
                                                "depth": 2,
                                                "name": "safeTransferFrom",
                                                "value": 67922
                                            }
                                        ],
                                        "depth": 1,
                                        "name": "execute",
                                        "value": 74229
                                    }
                                ],
                                "depth": 0,
                                "name": "Executed Gas",
                                "value": 128330
                            }
                        ],
                        "depth": -1,
                        "name": "Actual Gas Used",
                        "value": 149702
                    },
                    {
                        "children": [],
                        "depth": -1,
                        "name": "Refunded Gas",
                        "value": 5600
                    }
                ],
                "depth": -2,
                "name": "Total Gas",
                "value": 155302
            }
        ],
        "isConfirmed": true,
        "mainTrace": [
            {
                "children": [
                    {
                        "children": [
                            {
                                "children": [],
                                "depth": 1,
                                "id": 1,
                                "order": 1
                            },
                            {
                                "children": [],
                                "depth": 1,
                                "id": 2,
                                "order": 2
                            },
                            {
                                "children": [
                                    {
                                        "children": [
                                            {
                                                "children": [],
                                                "depth": 3,
                                                "id": 5,
                                                "order": 5
                                            },
                                            {
                                                "children": [
                                                    {
                                                        "children": [],
                                                        "depth": 4,
                                                        "id": 7,
                                                        "order": 7
                                                    }
                                                ],
                                                "depth": 3,
                                                "id": 6,
                                                "order": 6
                                            }
                                        ],
                                        "depth": 2,
                                        "id": 4,
                                        "order": 4
                                    }
                                ],
                                "depth": 1,
                                "id": 3,
                                "order": 3
                            },
                            {
                                "children": [],
                                "depth": 1,
                                "id": 8,
                                "order": 8
                            }
                        ],
                        "depth": 0,
                        "id": 0,
                        "order": 0
                    }
                ],
                "depth": -1,
                "id": -1,
                "order": -1
            }
        ],
        "mainTraceNodeCount": 9,
        "parentIdMap": {
            "0": -1,
            "1": 0,
            "2": 0,
            "3": 0,
            "4": 3,
            "5": 4,
            "6": 4,
            "7": 6,
            "8": 0
        },
        "tidyTrace": [
            {
                "children": [
                    {
                        "children": [
                            {
                                "children": [
                                    {
                                        "children": [
                                            {
                                                "children": [
                                                    {
                                                        "children": [],
                                                        "depth": 4,
                                                        "id": 7,
                                                        "order": 7
                                                    }
                                                ],
                                                "depth": 3,
                                                "id": 6,
                                                "order": 6
                                            }
                                        ],
                                        "depth": 2,
                                        "id": 4,
                                        "order": 4
                                    }
                                ],
                                "depth": 1,
                                "id": 3,
                                "order": 3
                            },
                            {
                                "children": [],
                                "depth": 1,
                                "id": 8,
                                "order": 8
                            }
                        ],
                        "depth": 0,
                        "id": 0,
                        "order": 0
                    }
                ],
                "depth": -1,
                "id": -1,
                "order": -1
            }
        ],
        "tidyTraceNodeCount": 6
    },
    "state_change": {
        "stateChanges": [
            {
                "address": "0x00000000006c3852cbef3e08e8df289169ede581",
                "erc": "",
                "slots": [
                    {
                        "current": "0x0000000000000000000000000000010000000000000000000000000000010001",
                        "key": "0x6bfbc7a2629997be7270817b8b52aa4db4b6cd4b098449e182747a2829890132",
                        "prev": "0x0000000000000000000000000000000000000000000000000000000000000000"
                    }
                ],
                "storageVariables": [
                    {
                        "name": "_orderStatus",
                        "type": "mapping(bytes32 => struct OrderStatus)",
                        "value": {
                            "pairs": [
                                {
                                    "key": "0x3464280958a4488364dad4fccd379730500c03eb62e5aa7052d08bdc32deda61",
                                    "value": {
                                        "fields": [
                                            {
                                                "name": "isValidated",
                                                "type": "bool",
                                                "value": {
                                                    "current": "true",
                                                    "prev": "false",
                                                    "typeTag": 1
                                                }
                                            },
                                            {
                                                "name": "isCancelled",
                                                "type": "bool",
                                                "value": {
                                                    "current": "false",
                                                    "prev": "false",
                                                    "typeTag": 1
                                                }
                                            },
                                            {
                                                "name": "numerator",
                                                "type": "uint120",
                                                "value": {
                                                    "current": "1",
                                                    "prev": "0",
                                                    "typeTag": 1
                                                }
                                            },
                                            {
                                                "name": "denominator",
                                                "type": "uint120",
                                                "value": {
                                                    "current": "1",
                                                    "prev": "0",
                                                    "typeTag": 1
                                                }
                                            }
                                        ],
                                        "typeTag": 3
                                    }
                                }
                            ],
                            "typeTag": 4
                        }
                    }
                ]
            },
            {
                "address": "0x495f947276749ce646f68ac8c248420045cb7b5e",
                "erc": "",
                "slots": [
                    {
                        "current": "0x0000000000000000000000000000000000000000000000000000000000000001",
                        "key": "0xdbe21b9f5706e440ed7e1852b850a10a16da45abb84fd2d34833676be755871b",
                        "prev": "0x0000000000000000000000000000000000000000000000000000000000000000"
                    },
                    {
                        "current": "0x0000000000000000000000000000000000000000000000000000000000000001",
                        "key": "0x23eb70a70dcce48abdd7ec7f62ea1243eecffcd78adc4e4a229bdcb9098061a3",
                        "prev": "0x0000000000000000000000000000000000000000000000000000000000000000"
                    }
                ],
                "storageVariables": []
            }
        ]
    }
}