{
    "balance_change": {
        "balanceChanges": [
            {
                "account": "0xfdf1946a9b40245224488f1a36f4a9ed4844a523",
                "assets": [
                    {
                        "address": "0xa37d94e80eab7a5bcb6d2e76b7666e341e4b58f6",
                        "amount": "407.95",
                        "iconUrl": "",
                        "isERC1155": false,
                        "isERC721": false,
                        "sign": false,
                        "value": ""
                    }
                ]
            },
            {
                "account": "0x12bdca5b4e4db1237406c80b989943c4ede6bbce",
                "assets": [
                    {
                        "address": "0xa37d94e80eab7a5bcb6d2e76b7666e341e4b58f6",
                        "amount": "407.95",
                        "iconUrl": "",
                        "isERC1155": false,
                        "isERC721": false,
                        "sign": true,
                        "value": ""
                    }
                ]
            }
        ]
    },
    "profile": {
        "basic_info": {
            "baseFee": "",
            "blockNumber": 7341370,
            "callData": "0xa9059cbb00000000000000000000000012bdca5b4e4db1237406c80b989943c4ede6bbce0000000000000000000000000000000000000000000000161d718b96989b0000",
            "debugEnable": true,
            "errorInfo": "",
            "eventCount": 1,
            "feeRecipient": "0x5a0b54d5dc17e0aadc383d2db43b0a0d3e029c4c",
            "formatValue": "0",
            "gasLimit": 80000,
            "gasPrice": "6.5625",
            "gasUsed": 37197,
            "intTxnCount": 0,
            "internalRevert": false,
            "internalRevertMessage": "",
            "isContractCreation": false,
            "isFlashloan": false,
            "maxFee": "",
            "nonce": 24252,
            "overwritedBlockNumber": -1,
            "priorityFee": "",
            "receiver": "0xa37d94e80eab7a5bcb6d2e76b7666e341e4b58f6",
            "revertMessage": "",
            "sender": "0xfdf1946a9b40245224488f1a36f4a9ed4844a523",
            "simulationEnable": true,
            "sourceTxnHash": "0x8093055ce876a9fc224d08d5f0bb9c8fab2616c6fadd59900d3de24f036e7413",
            "status": true,
            "timestamp": "2019-03-10T12:19:46Z",
            "transactionFee": "0.0002441053125",
            "txnHash": "0x8093055ce876a9fc224d08d5f0bb9c8fab2616c6fadd59900d3de24f036e7413",
            "txnIndex": 3,
            "type": 0,
            "value": "0"
        },
        "fund_flow": [
            {
                "amount": "407.95",
                "from": "0xfdf1946a9b40245224488f1a36f4a9ed4844a523",
                "id": 1,
                "isERC1155": false,
                "isERC721": false,
                "isReverted": false,
                "order": 1,
                "to": "0x12bdca5b4e4db1237406c80b989943c4ede6bbce",
                "token": "0xa37d94e80eab7a5bcb6d2e76b7666e341e4b58f6"
            }
        ],
        "token_infos": [
            {
                "address": "0xa37d94e80eab7a5bcb6d2e76b7666e341e4b58f6",
                "decimals": 18
            },
            {
                "address": "0xc02aaa39b223fe8d0a0e5c4f27ead9083c756cc2",
                "decimals": 18
            },
            {
                "address": "0xeeeeeeeeeeeeeeeeeeeeeeeeeeeeeeeeeeeeeeee",
                "decimals": 18
            }
        ]
    },
    "address_label": {
        "labels": [
            {
                "address": "0x0000000000000000000000000000000000000002",
                "label": "Precompiled"
            },
            {
                "address": "0x0000000000000000000000000000000000000003",
                "label": "Precompiled"
            },
            {
                "address": "0x0000000000000000000000000000000000000004",
                "label": "Precompiled"
            },
            {
                "address": "0xeeeeeeeeeeeeeeeeeeeeeeeeeeeeeeeeeeeeeeee",
                "label": "Ether"
            },
            {
                "address": "0xa37d94e80eab7a5bcb6d2e76b7666e341e4b58f6",
                "label": "PFC"
            },
            {
                "address": "0x0000000000000000000000000000000000000001",
                "label": "Precompiled"
            }
        ]
    },
    "trace": {
        "accountLabels": null,
        "dataMap": {
            "-1": {
                "invocation": {
                    "address": "0xfdf1946a9b40245224488f1a36f4a9ed4844a523",
                    "callData": "",
                    "decodedMethod": null,
                    "errorInfo": "",
                    "fromAddress": "",
                    "gasUsed": 0,
                    "id": -1,
                    "methodDecoded": false,
                    "operation": "",
                    "output": "",
                    "revert": false,
                    "revertMessage": "",
                    "selector": "",
                    "status": false,
                    "value": ""
                },
                "nodeType": 0
            },
            "0": {
                "invocation": {
                    "address": "0xa37d94e80eab7a5bcb6d2e76b7666e341e4b58f6",
                    "callData": "0x00000000000000000000000012bdca5b4e4db1237406c80b989943c4ede6bbce0000000000000000000000000000000000000000000000161d718b96989b0000",
                    "decodedMethod": {
                        "callParams": [
                            {
                                "name": "dst",
                                "type": "address",
                                "value": "0x12bdca5b4e4db1237406c80b989943c4ede6bbce"
                            },
                            {
                                "decimalAvailable": true,
                                "name": "wad",
                                "type": "uint256",
                                "value": "407,950,000,000,000,000,000"
                            }
                        ],
                        "constructorArguments": "",
                        "name": "transfer",
                        "returnParams": [
                            {
                                "name": "",
                                "type": "bool",
                                "value": true
                            }
                        ],
                        "signature": "transfer(address,uint256)"
                    },
                    "errorInfo": "",
                    "fromAddress": "0xfdf1946a9b40245224488f1a36f4a9ed4844a523",
                    "gasUsed": 37197,
                    "id": 0,
                    "methodDecoded": true,
                    "operation": "CALL",
                    "output": "0x0000000000000000000000000000000000000000000000000000000000000001",
                    "revert": false,
                    "revertMessage": "",
                    "selector": "0xa9059cbb",
                    "status": true,
                    "value": "0"
                },
                "nodeType": 0
            },
            "1": {
                "event": {
                    "contract": "0xa37d94e80eab7a5bcb6d2e76b7666e341e4b58f6",
                    "decodedLog": {
                        "name": "Transfer",
                        "params": [
                            {
                                "name": "from",
                                "type": "address",
                                "value": "0xfdf1946a9b40245224488f1a36f4a9ed4844a523"
                            },
                            {
                                "name": "to",
                                "type": "address",
                                "value": "0x12bdca5b4e4db1237406c80b989943c4ede6bbce"
                            },
                            {
                                "decimalAvailable": true,
                                "name": "value",
                                "type": "uint256",
                                "value": "407,950,000,000,000,000,000"
                            }
                        ],
                        "signature": "Transfer(address,address,uint256)"
                    },
                    "id": 1,
                    "logData": "0x0000000000000000000000000000000000000000000000161d718b96989b0000",
                    "logDecoded": true,
                    "operation": "EVENT",
                    "revert": false,
                    "status": true,
                    "topics": [
                        "0xddf252ad1be2c89b69c2b068fc378daa952ba7f163c4a11628f55a4df523b3ef",
                        "0x000000000000000000000000fdf1946a9b40245224488f1a36f4a9ed4844a523",
                        "0x00000000000000000000000012bdca5b4e4db1237406c80b989943c4ede6bbce"
                    ]
                },
                "nodeType": 1
            }
        },
        "gasFlame": [
            {
                "children": [
                    {
                        "children": [
                            {
                                "children": [],
                                "depth": 0,
                                "name": "Initial Gas",
                                "value": 23256
                            },
                            {
                                "children": [],
                                "depth": 0,
                                "name": "Executed Gas",
                                "value": 13941
                            }
                        ],
                        "depth": -1,
                        "name": "Actual Gas Used",
                        "value": 37197
                    },
                    {
                        "children": [],
                        "depth": -1,
                        "name": "Refunded Gas",
                        "value": 0
                    }
                ],
                "depth": -2,
                "name": "Total Gas",
                "value": 37197
            }
        ],
        "isConfirmed": true,
        "mainTrace": [
            {
                "children": [
                    {
                        "children": [
                            {
                                "children": [],
                                "depth": 1,
                                "id": 1,
                                "order": 1
                            }
                        ],
                        "depth": 0,
                        "id": 0,
                        "order": 0
                    }
                ],
                "depth": -1,
                "id": -1,
                "order": -1
            }
        ],
        "mainTraceNodeCount": 2,
        "parentIdMap": {
            "0": -1,
            "1": 0
        },
        "tidyTrace": [
            {
                "children": [
                    {
                        "children": [
                            {
                                "children": [],
                                "depth": 1,
                                "id": 1,
                                "order": 1
                            }
                        ],
                        "depth": 0,
                        "id": 0,
                        "order": 0
                    }
                ],
                "depth": -1,
                "id": -1,
                "order": -1
            }
        ],
        "tidyTraceNodeCount": 2
    },
    "state_change": {
        "stateChanges": [
            {
                "address": "0xa37d94e80eab7a5bcb6d2e76b7666e341e4b58f6",
                "erc": "ERC-20",
                "slots": [
                    {
                        "current": "0x000000000000000000000000000000000000000000015b5f670d2f4b95146580",
                        "key": "0x0a7448285f1da66068c4412e696a19270efe58758129b97d835508c10fc15f7c",
                        "prev": "0x000000000000000000000000000000000000000000015b75847ebae22daf6580"
                    },
                    {
                        "current": "0x0000000000000000000000000000000000000000000000d77c8db0ea391d0000",
                        "key": "0xd1a5dc7544f005a66b3e8a2c9827b9a172bb597ae9dede6542dff26b62af78e4",
                        "prev": "0x0000000000000000000000000000000000000000000000c15f1c2553a0820000"
                    }
                ],
                "storageVariables": [
                    {
                        "name": "_balances",
                        "type": "mapping(address => uint256)",
                        "value": {
                            "pairs": [
                                {
                                    "key": "0x12bdca5b4e4db1237406c80b989943c4ede6bbce",
                                    "value": {
                                        "current": "3975024999999999901696",
                                        "prev": "3567074999999999901696",
                                        "typeTag": 1
                                    }
                                },
                                {
                                    "key": "0xfdf1946a9b40245224488f1a36f4a9ed4844a523",
                                    "value": {
                                        "current": "1640421035886131570566528",
                                        "prev": "1640828985886131570566528",
                                        "typeTag": 1
                                    }
                                }
                            ],
                            "typeTag": 4
                        }
                    }
                ]
            }
        ]
    }
}