{
    "balance_change": {
        "balanceChanges": [
            {
                "account": "0xf0bd9ff46e2252062550c734372fc22d2b462522",
                "assets": [
                    {
                        "address": "0xeeeeeeeeeeeeeeeeeeeeeeeeeeeeeeeeeeeeeeee",
                        "amount": "0.002",
                        "iconUrl": "https://assets.blocksec.com/image/1663669189317-3.png",
                        "isERC1155": false,
                        "isERC721": false,
                        "sign": false,
                        "value": ""
                    },
                    {
                        "address": "0x5beabaebb3146685dd74176f68a0721f91297d37",
                        "amount": "0.0000001",
                        "iconUrl": "",
                        "isERC1155": false,
                        "isERC721": false,
                        "sign": true,
                        "value": "0.00005435"
                    }
                ]
            },
            {
                "account": "0x73282a63f0e3d7e9604575420f777361eca3c86a",
                "assets": [
                    {
                        "address": "0x5beabaebb3146685dd74176f68a0721f91297d37",
                        "amount": "0.0000001",
                        "iconUrl": "",
                        "isERC1155": false,
                        "isERC721": false,
                        "sign": false,
                        "value": "0.00005435"
                    }
                ]
            },
            {
                "account": "0x98945bc69a554f8b129b09ac8afdc2cc2431c48e",
                "assets": [
                    {
                        "address": "0xeeeeeeeeeeeeeeeeeeeeeeeeeeeeeeeeeeeeeeee",
                        "amount": "0.002",
                        "iconUrl": "https://assets.blocksec.com/image/1663669189317-3.png",
                        "isERC1155": false,
                        "isERC721": false,
                        "sign": true,
                        "value": ""
                    }
                ]
            }
        ]
    },
    "profile": {
        "basic_info": {
            "baseFee": "",
            "blockNumber": 10813733,
            "callData": "0xaed35147000000000000000000000000000000000000000000000000000000000000088f0000000000000000000000000000000000000000000000000de0b6b3a76400000000000000000000000000000000000000000000000000000000000000000000",
            "debugEnable": true,
            "errorInfo": "",
            "eventCount": 2,
            "feeRecipient": "0xd224ca0c819e8e97ba0136b3b95ceff503b79f53",
            "formatValue": "1",
            "gasLimit": 300000,
            "gasPrice": "82",
            "gasUsed": 144046,
            "intTxnCount": 5,
            "internalRevert": false,
            "internalRevertMessage": "",
            "isContractCreation": false,
            "isFlashloan": false,
            "maxFee": "",
            "nonce": 1121,
            "overwritedBlockNumber": -1,
            "priorityFee": "",
            "receiver": "0x73282a63f0e3d7e9604575420f777361eca3c86a",
            "revertMessage": "",
            "sender": "0xf0bd9ff46e2252062550c734372fc22d2b462522",
            "simulationEnable": true,
            "sourceTxnHash": "0x81b2d138cf778aa6303b11515349b6e75470c2951b51c97ecf638f9823129c72",
            "status": true,
            "timestamp": "2020-09-07T09:38:38Z",
            "transactionFee": "0.011811772",
            "txnHash": "0x81b2d138cf778aa6303b11515349b6e75470c2951b51c97ecf638f9823129c72",
            "txnIndex": 120,
            "type": 0,
            "value": "1000000000000000000"
        },
        "fund_flow": [
            {
                "amount": "1",
                "from": "0xf0bd9ff46e2252062550c734372fc22d2b462522",
                "id": 1,
                "isERC1155": false,
                "isERC721": false,
                "isReverted": false,
                "order": 1,
                "to": "0x73282a63f0e3d7e9604575420f777361eca3c86a",
                "token": "0xeeeeeeeeeeeeeeeeeeeeeeeeeeeeeeeeeeeeeeee"
            },
            {
                "amount": "0.0000001",
                "from": "0x73282a63f0e3d7e9604575420f777361eca3c86a",
                "id": 2,
                "isERC1155": false,
                "isERC721": false,
                "isReverted": false,
                "order": 2,
                "to": "0xf0bd9ff46e2252062550c734372fc22d2b462522",
                "token": "0x5beabaebb3146685dd74176f68a0721f91297d37"
            },
            {
                "amount": "0.998",
                "from": "0x73282a63f0e3d7e9604575420f777361eca3c86a",
                "id": 3,
                "isERC1155": false,
                "isERC721": false,
                "isReverted": false,
                "order": 3,
                "to": "0xf0bd9ff46e2252062550c734372fc22d2b462522",
                "token": "0xeeeeeeeeeeeeeeeeeeeeeeeeeeeeeeeeeeeeeeee"
            },
            {
                "amount": "0.002",
                "from": "0x73282a63f0e3d7e9604575420f777361eca3c86a",
                "id": 4,
                "isERC1155": false,
                "isERC721": false,
                "isReverted": false,
                "order": 4,
                "to": "0x98945bc69a554f8b129b09ac8afdc2cc2431c48e",
                "token": "0xeeeeeeeeeeeeeeeeeeeeeeeeeeeeeeeeeeeeeeee"
            }
        ],
        "token_infos": [
            {
                "address": "0x5beabaebb3146685dd74176f68a0721f91297d37",
                "decimals": 18
            },
            {
                "address": "0xc02aaa39b223fe8d0a0e5c4f27ead9083c756cc2",
                "decimals": 18
            },
            {
                "address": "0xeeeeeeeeeeeeeeeeeeeeeeeeeeeeeeeeeeeeeeee",
                "decimals": 18
            }
        ]
    },
    "address_label": {
        "labels": [
            {
                "address": "0x0000000000000000000000000000000000000001",
                "label": "Precompiled"
            },
            {
                "address": "0x0000000000000000000000000000000000000002",
                "label": "Precompiled"
            },
            {
                "address": "0x0000000000000000000000000000000000000003",
                "label": "Precompiled"
            },
            {
                "address": "0x0000000000000000000000000000000000000004",
                "label": "Precompiled"
            },
            {
                "address": "0xeeeeeeeeeeeeeeeeeeeeeeeeeeeeeeeeeeeeeeee",
                "label": "Ether"
            },
            {
                "address": "0x5beabaebb3146685dd74176f68a0721f91297d37",
                "label": "Bounce Finance: Old BOT Token"
            },
            {
                "address": "0x73282a63f0e3d7e9604575420f777361eca3c86a",
                "label": "0x7328_AdminUpgradeabilityProxy"
            },
            {
                "address": "0x98945bc69a554f8b129b09ac8afdc2cc2431c48e",
                "label": "0x9894_AdminUpgradeabilityProxy"
            }
        ]
    },
    "trace": {
        "accountLabels": null,
        "dataMap": {
            "-1": {
                "invocation": {
                    "address": "0xf0bd9ff46e2252062550c734372fc22d2b462522",
                    "callData": "",
                    "decodedMethod": null,
                    "errorInfo": "",
                    "fromAddress": "",
                    "gasUsed": 0,
                    "id": -1,
                    "methodDecoded": false,
                    "operation": "",
                    "output": "",
                    "revert": false,
                    "revertMessage": "",
                    "selector": "",
                    "status": false,
                    "value": ""
                },
                "nodeType": 0
            },
            "0": {
                "invocation": {
                    "address": "0x73282a63f0e3d7e9604575420f777361eca3c86a",
                    "callData": "0x000000000000000000000000000000000000000000000000000000000000088f0000000000000000000000000000000000000000000000000de0b6b3a76400000000000000000000000000000000000000000000000000000000000000000000",
                    "decodedMethod": null,
                    "errorInfo": "",
                    "fromAddress": "0xf0bd9ff46e2252062550c734372fc22d2b462522",
                    "gasUsed": 144046,
                    "id": 0,
                    "methodDecoded": false,
                    "operation": "CALL",
                    "output": "",
                    "revert": false,
                    "revertMessage": "",
                    "selector": "0xaed35147",
                    "status": true,
                    "value": "1"
                },
                "nodeType": 0
            },
            "1": {
                "invocation": {
                    "address": "0xecd2b33c4e80f284c3d0bdc8147fdf02ca30a737",
                    "callData": "0x000000000000000000000000000000000000000000000000000000000000088f0000000000000000000000000000000000000000000000000de0b6b3a76400000000000000000000000000000000000000000000000000000000000000000000",
                    "decodedMethod": null,
                    "errorInfo": "",
                    "fromAddress": "0x73282a63f0e3d7e9604575420f777361eca3c86a",
                    "gasUsed": 119725,
                    "id": 1,
                    "methodDecoded": false,
                    "operation": "DELEGATECALL",
                    "output": "",
                    "revert": false,
                    "revertMessage": "",
                    "selector": "0xaed35147",
                    "status": true,
                    "value": "1"
                },
                "nodeType": 0
            },
            "2": {
                "invocation": {
                    "address": "0x5beabaebb3146685dd74176f68a0721f91297d37",
                    "callData": "0x000000000000000000000000f0bd9ff46e2252062550c734372fc22d2b462522000000000000000000000000000000000000000000000000000000174876e800",
                    "decodedMethod": {
                        "callParams": [
                            {
                                "name": "recipient",
                                "type": "address",
                                "value": "0xf0bd9ff46e2252062550c734372fc22d2b462522"
                            },
                            {
                                "decimalAvailable": true,
                                "name": "amount",
                                "type": "uint256",
                                "value": "100,000,000,000"
                            }
                        ],
                        "constructorArguments": "",
                        "name": "transfer",
                        "returnParams": [
                            {
                                "name": "",
                                "type": "bool",
                                "value": true
                            }
                        ],
                        "signature": "transfer(address,uint256)"
                    },
                    "errorInfo": "",
                    "fromAddress": "0x73282a63f0e3d7e9604575420f777361eca3c86a",
                    "gasUsed": 14784,
                    "id": 2,
                    "methodDecoded": true,
                    "operation": "CALL",
                    "output": "0x0000000000000000000000000000000000000000000000000000000000000001",
                    "revert": false,
                    "revertMessage": "",
                    "selector": "0xa9059cbb",
                    "status": true,
                    "value": "0"
                },
                "nodeType": 0
            },
            "3": {
                "event": {
                    "contract": "0x5beabaebb3146685dd74176f68a0721f91297d37",
                    "decodedLog": {
                        "name": "Transfer",
                        "params": [
                            {
                                "name": "from",
                                "type": "address",
                                "value": "0x73282a63f0e3d7e9604575420f777361eca3c86a"
                            },
                            {
                                "name": "to",
                                "type": "address",
                                "value": "0xf0bd9ff46e2252062550c734372fc22d2b462522"
                            },
                            {
                                "decimalAvailable": true,
                                "name": "value",
                                "type": "uint256",
                                "value": "100,000,000,000"
                            }
                        ],
                        "signature": "Transfer(address,address,uint256)"
                    },
                    "id": 3,
                    "logData": "0x000000000000000000000000000000000000000000000000000000174876e800",
                    "logDecoded": true,
                    "operation": "EVENT",
                    "revert": false,
                    "status": true,
                    "topics": [
                        "0xddf252ad1be2c89b69c2b068fc378daa952ba7f163c4a11628f55a4df523b3ef",
                        "0x00000000000000000000000073282a63f0e3d7e9604575420f777361eca3c86a",
                        "0x000000000000000000000000f0bd9ff46e2252062550c734372fc22d2b462522"
                    ]
                },
                "nodeType": 1
            },
            "4": {
                "invocation": {
                    "address": "0xf0bd9ff46e2252062550c734372fc22d2b462522",
                    "callData": "0x",
                    "decodedMethod": null,
                    "errorInfo": "",
                    "fromAddress": "0x73282a63f0e3d7e9604575420f777361eca3c86a",
                    "gasUsed": 0,
                    "id": 4,
                    "methodDecoded": false,
                    "operation": "CALL",
                    "output": "",
                    "revert": false,
                    "revertMessage": "",
                    "selector": "fallback",
                    "status": true,
                    "value": "0.998"
                },
                "nodeType": 0
            },
            "5": {
                "invocation": {
                    "address": "0x98945bc69a554f8b129b09ac8afdc2cc2431c48e",
                    "callData": "0x",
                    "decodedMethod": {
                        "callParams": [],
                        "constructorArguments": "",
                        "name": "depositReward",
                        "returnParams": [],
                        "signature": "depositReward()"
                    },
                    "errorInfo": "",
                    "fromAddress": "0x73282a63f0e3d7e9604575420f777361eca3c86a",
                    "gasUsed": 8939,
                    "id": 5,
                    "methodDecoded": true,
                    "operation": "CALL",
                    "output": "",
                    "revert": false,
                    "revertMessage": "",
                    "selector": "0x5ec2dc8d",
                    "status": true,
                    "value": "0.002"
                },
                "nodeType": 0
            },
            "6": {
                "invocation": {
                    "address": "0xb14941936750cdd9b47330d3ae1555008750e3fc",
                    "callData": "0x",
                    "decodedMethod": {
                        "callParams": [],
                        "constructorArguments": "",
                        "name": "depositReward",
                        "returnParams": [],
                        "signature": "depositReward()"
                    },
                    "errorInfo": "",
                    "fromAddress": "0x98945bc69a554f8b129b09ac8afdc2cc2431c48e",
                    "gasUsed": 6174,
                    "id": 6,
                    "methodDecoded": true,
                    "operation": "DELEGATECALL",
                    "output": "",
                    "revert": false,
                    "revertMessage": "",
                    "selector": "0x5ec2dc8d",
                    "status": true,
                    "value": "0.002"
                },
                "nodeType": 0
            },
            "7": {
                "event": {
                    "contract": "0x73282a63f0e3d7e9604575420f777361eca3c86a",
                    "decodedLog": {
                        "name": "Swapped",
                        "params": [
                            {
                                "name": "sender",
                                "type": "address",
                                "value": "0xf0bd9ff46e2252062550c734372fc22d2b462522"
                            },
                            {
                                "name": "srcToken",
                                "type": "address",
                                "value": "0xf0bd9ff46e2252062550c734372fc22d2b462522"
                            },
                            {
                                "name": "dstToken",
                                "type": "address",
                                "value": "0x5beabaebb3146685dd74176f68a0721f91297d37"
                            },
                            {
                                "name": "dstReceiver",
                                "type": "address",
                                "value": "0x0000000000000000000000000000000000000000"
                            },
                            {
                                "name": "spentAmount",
                                "type": "uint256",
                                "value": "100,000,000,000"
                            },
                            {
                                "name": "returnAmount",
                                "type": "uint256",
                                "value": "1,000,000,000,000,000,000"
                            }
                        ],
                        "signature": "Swapped(address,address,address,address,uint256,uint256)"
                    },
                    "id": 7,
                    "logData": "0x000000000000000000000000f0bd9ff46e2252062550c734372fc22d2b462522000000000000000000000000f0bd9ff46e2252062550c734372fc22d2b4625220000000000000000000000005beabaebb3146685dd74176f68a0721f91297d370000000000000000000000000000000000000000000000000000000000000000000000000000000000000000000000000000000000000000000000174876e8000000000000000000000000000000000000000000000000000de0b6b3a7640000",
                    "logDecoded": true,
                    "operation": "EVENT",
                    "revert": false,
                    "status": true,
                    "topics": [
                        "0xd6d4f5681c246c9f42c203e287975af1601f8df8035a9251f79aab5c8f09e2f8"
                    ]
                },
                "nodeType": 1
            }
        },
        "gasFlame": [
            {
                "children": [
                    {
                        "children": [
                            {
                                "children": [],
                                "depth": 0,
                                "name": "Initial Gas",
                                "value": 21544
                            },
                            {
                                "children": [
                                    {
                                        "children": [
                                            {
                                                "children": [],
                                                "depth": 2,
                                                "name": "transfer",
                                                "value": 14784
                                            },
                                            {
                                                "children": [],
                                                "depth": 2,
                                                "name": "fallback",
                                                "value": 0
                                            },
                                            {
                                                "children": [
                                                    {
                                                        "children": [],
                                                        "depth": 3,
                                                        "name": "depositReward",
                                                        "value": 6174
                                                    }
                                                ],
                                                "depth": 2,
                                                "name": "depositReward",
                                                "value": 8939
                                            }
                                        ],
                                        "depth": 1,
                                        "name": "0xaed35147",
                                        "value": 119725
                                    }
                                ],
                                "depth": 0,
                                "name": "Executed Gas",
                                "value": 122502
                            }
                        ],
                        "depth": -1,
                        "name": "Actual Gas Used",
                        "value": 144046
                    },
                    {
                        "children": [],
                        "depth": -1,
                        "name": "Refunded Gas",
                        "value": 0
                    }
                ],
                "depth": -2,
                "name": "Total Gas",
                "value": 144046
            }
        ],
        "isConfirmed": true,
        "mainTrace": [
            {
                "children": [
                    {
                        "children": [
                            {
                                "children": [
                                    {
                                        "children": [
                                            {
                                                "children": [],
                                                "depth": 3,
                                                "id": 3,
                                                "order": 3
                                            }
                                        ],
                                        "depth": 2,
                                        "id": 2,
                                        "order": 2
                                    },
                                    {
                                        "children": [],
                                        "depth": 2,
                                        "id": 4,
                                        "order": 4
                                    },
                                    {
                                        "children": [
                                            {
                                                "children": [],
                                                "depth": 3,
                                                "id": 6,
                                                "order": 6
                                            }
                                        ],
                                        "depth": 2,
                                        "id": 5,
                                        "order": 5
                                    },
                                    {
                                        "children": [],
                                        "depth": 2,
                                        "id": 7,
                                        "order": 7
                                    }
                                ],
                                "depth": 1,
                                "id": 1,
                                "order": 1
                            }
                        ],
                        "depth": 0,
                        "id": 0,
                        "order": 0
                    }
                ],
                "depth": -1,
                "id": -1,
                "order": -1
            }
        ],
        "mainTraceNodeCount": 8,
        "parentIdMap": {
            "0": -1,
            "1": 0,
            "2": 1,
            "3": 2,
            "4": 1,
            "5": 1,
            "6": 5,
            "7": 1
        },
        "tidyTrace": [
            {
                "children": [
                    {
                        "children": [
                            {
                                "children": [
                                    {
                                        "children": [
                                            {
                                                "children": [],
                                                "depth": 3,
                                                "id": 3,
                                                "order": 3
                                            }
                                        ],
                                        "depth": 2,
                                        "id": 2,
                                        "order": 2
                                    },
                                    {
                                        "children": [],
                                        "depth": 2,
                                        "id": 4,
                                        "order": 4
                                    },
                                    {
                                        "children": [
                                            {
                                                "children": [],
                                                "depth": 3,
                                                "id": 6,
                                                "order": 6
                                            }
                                        ],
                                        "depth": 2,
                                        "id": 5,
                                        "order": 5
                                    },
                                    {
                                        "children": [],
                                        "depth": 2,
                                        "id": 7,
                                        "order": 7
                                    }
                                ],
                                "depth": 1,
                                "id": 1,
                                "order": 1
                            }
                        ],
                        "depth": 0,
                        "id": 0,
                        "order": 0
                    }
                ],
                "depth": -1,
                "id": -1,
                "order": -1
            }
        ],
        "tidyTraceNodeCount": 8
    },
    "state_change": {
        "stateChanges": [
            {
                "address": "0x5beabaebb3146685dd74176f68a0721f91297d37",
                "erc": "ERC-20",
                "slots": [
                    {
                        "current": "0x00000000000000000000000000000000000000000000141d275dd7645cea7079",
                        "key": "0x70e724003eac136f8b7ca75c5d3257dfc04241cf4df071e9733b1c2d7a9d3984",
                        "prev": "0x00000000000000000000000000000000000000000000141d275dd77ba5615879"
                    },
                    {
                        "current": "0x00000000000000000000000000000000000000000000000000002cbf4485e000",
                        "key": "0xf707cfda5e1d294d765dfe26402bd9e1969e77d37dac39d21d86e67540c90c12",
                        "prev": "0x00000000000000000000000000000000000000000000000000002ca7fc0ef800"
                    }
                ],
                "storageVariables": [
                    {
                        "name": "_balances",
                        "type": "mapping(address => uint256)",
                        "value": {
                            "pairs": [
                                {
                                    "key": "0x73282a63f0e3d7e9604575420f777361eca3c86a",
                                    "value": {
                                        "current": "94985121895696850120825",
                                        "prev": "94985121895796850120825",
                                        "typeTag": 1
                                    }
                                },
                                {
                                    "key": "0xf0bd9ff46e2252062550c734372fc22d2b462522",
                                    "value": {
                                        "current": "49200000000000",
                                        "prev": "49100000000000",
                                        "typeTag": 1
                                    }
                                }
                            ],
                            "typeTag": 4
                        }
                    }
                ]
            },
            {
                "address": "0x73282a63f0e3d7e9604575420f777361eca3c86a",
                "erc": "",
                "slots": [
                    {
                        "current": "0x00000000000000000000000000000000000000000000001aabdf2145b4300000",
                        "key": "0xa22599096ca616027599d390113b2b3ba9a664f39694d59521fe3d29f89bc48b",
                        "prev": "0x00000000000000000000000000000000000000000000001a9dfe6a920ccc0000"
                    },
                    {
                        "current": "0x0000000000000000000000000000000000000000000000c895dc682dbe8cde50",
                        "key": "0x067d0d5e81126f7fbfa382457028d0b242abee5b5f989a8a2f93ad072fd44d98",
                        "prev": "0x0000000000000000000000000000000000000000000000c887fbb17a1728de50"
                    },
                    {
                        "current": "0x00000000000000000000000000000000000000000000000000000000000001ec",
                        "key": "0x8706ed7c4b771f628c79fc24d2f548bff346e33dc6d8e8a60a6d8c1e15f071ea",
                        "prev": "0x00000000000000000000000000000000000000000000000000000000000001eb"
                    },
                    {
                        "current": "0x0000000000000000000000000000000000000000000000000000000000000ddb",
                        "key": "0xff64faa64ccc35c219f084f5aaadc6f1d7f132fe53872c58494d432f665098d1",
                        "prev": "0x0000000000000000000000000000000000000000000000000000000000000dda"
                    },
                    {
                        "current": "0x00000000000000000000000000000000000000000000003b4e4cc3bd55580000",
                        "key": "0x8d800d6614d35eed73733ee453164a3b48076eb3138f466adeeb9dec7bb327ff",
                        "prev": "0x00000000000000000000000000000000000000000000003b406c0d09adf40000"
                    },
                    {
                        "current": "0x0000000000000000000000000000000000000000000000000000637fac237000",
                        "key": "0xece66cfdbd22e3f37d348a3d8e19074452862cd65fd4b9a11f0336d1ac6d2652",
                        "prev": "0x0000000000000000000000000000000000000000000000000000636863ac8800"
                    }
                ],
                "storageVariables": []
            },
            {
                "address": "0x98945bc69a554f8b129b09ac8afdc2cc2431c48e",
                "erc": "",
                "slots": [
                    {
                        "current": "0x00000000000000000000000000000000000000000000001419a6cee403213c93",
                        "key": "0x0000000000000000000000000000000000000000000000000000000000000036",
                        "prev": "0x000000000000000000000000000000000000000000000014199fb3e6b9943c93"
                    }
                ],
                "storageVariables": []
            }
        ]
    }
}