{
    "balance_change": {
        "balanceChanges": []
    },
    "profile": {
        "basic_info": {
            "baseFee": "75.73433556",
            "blockNumber": 14033150,
            "callData": "0x7c025200000000000000000000000000220bda5c8994804ac96ebe4df184d25e5c2196d400000000000000000000000000000000000000000000000000000000000000600000000000000000000000000000000000000000000000000000000000000180000000000000000000000000eeeeeeeeeeeeeeeeeeeeeeeeeeeeeeeeeeeeeeee0000000000000000000000006dea81c8171d0ba574754ef6f8b412f2ed88c54d000000000000000000000000220bda5c8994804ac96ebe4df184d25e5c2196d40000000000000000000000002ff2e3b3afaefa8dea19ec9afac95bef4d8af4df0000000000000000000000000000000000000000000000003782dace9d9000000000000000000000000000000000000000000000000000856cd2d9cab08508f20000000000000000000000000000000000000000000000000000000000000000000000000000000000000000000000000000000000000000000000000000010000000000000000000000000000000000000000000000000000000000000000000000000000000000000000000000000000000000000000000000000000000800000000000000000000000000000000000000000000000000000000000000004000000000000000000000000000000000000000000000000000000000000000040000000000000000000000000000000000000000000000000000000000000080000000000000000000000000000000000000000000000000000000000000012000000000000000000000000000000000000000000000000000000000000002c000000000000000000000000000000000000000000000000000000000000005a0000000000000000000000000c02aaa39b223fe8d0a0e5c4f27ead9083c756cc20000000000000000000000000000000000000000000000003782dace9d90000000000000000000000000000000000000000000000000000000000000000000600000000000000000000000000000000000000000000000000000000000000004d0e30db000000000000000000000000000000000000000000000000000000000800000000000000000000000d1d5a4c0ea98971894772dcd6d2f1dc71083c44e000000000000000000000000000000000000000000000000000000000000000000000000000000000000000000000000000000000000000000000000000000600000000000000000000000000000000000000000000000000000000000000104128acb08000000000000000000000000220bda5c8994804ac96ebe4df184d25e5c2196d400000000000000000000000000000000000000000000000000000000000000000000000000000000000000000000000000000000000000003782dace9d900000000000000000000000000000fffd8963efd1fc6a506488495d951d5263988d2500000000000000000000000000000000000000000000000000000000000000a000000000000000000000000000000000000000000000000000000000000000400000000000000000000000006dea81c8171d0ba574754ef6f8b412f2ed88c54d000000000000000000000000c02aaa39b223fe8d0a0e5c4f27ead9083c756cc200000000000000000000000000000000000000000000000000000000000000000000000000000000000000000000000000000000000000000000000000000000000000000000000000000000000000000000000000000000000000000000000000000000000000000000000000000000000000000000000000000060000000000000000000000000000000000000000000000000000000000000024432ce0a7c00000000000000000000000000000000000000000000000000000000000000808000000000000000000000000000000000000000000000000000000000000044000000000000000000000000220bda5c8994804ac96ebe4df184d25e5c2196d400000000000000000000000000000000000000000000000000000000000001c000000000000000000000000000000000000000000000000000000000000000000000000000000000000000000000000000000000000000000000000000000000000000000000000000000000000000000000000000000000000000000000006000000000000000000000000000000000000000000000000000000000000000a4059712240000000000000000000000006dea81c8171d0ba574754ef6f8b412f2ed88c54d0000000000000000000000000000000000000000000000000000000000000000000000000000000000000000000000000000000000000000000000000000000100000000000000000000000000000001000000000000000000000000000000010000000000000000000000000000000000000000000000000db868ed3773548f00000000000000000000000000000000000000000000000000000000000000000000000000000000000000000000000000000000000000000000004470bdb9470000000000000000000000006dea81c8171d0ba574754ef6f8b412f2ed88c54d000000000000000000000000000000000000000000000085c26e0179b6bc8bdb0000000000000000000000000000000000000000000000000000000000000000000000000000000000000000000000000000000000000000000000000000000000000000000000000000000000000000000000000000000000000000000000000000000000000000000000000000000000000000000000000000000000000000000000000000000000000000000000000000000000000060000000000000000000000000000000000000000000000000000000000000018414284aab000000000000000000000000000000000000000000000000000000000000008080000000000000000000000000000000000000000000000000000000000000440000000000000000000000006dea81c8171d0ba574754ef6f8b412f2ed88c54d00000000000000000000000000000001000000000000000000000000000000010000000000000000000000000000000000000000000000000000000000000000000000000000000000000000000000000000000000000000000000000000000000000000000000000000000000000000000000000000000000000000000000600000000000000000000000000000000000000000000000000000000000000064d1660f990000000000000000000000006dea81c8171d0ba574754ef6f8b412f2ed88c54d0000000000000000000000001111111254fb6c44bac0bed2854e76f90643097d00000000000000000000000000000000000000000000000000000000000000010000000000000000000000000000000000000000000000000000000000000000000000000000000000000000000000000000000000000000cfee7c08",
            "debugEnable": true,
            "errorInfo": "execution reverted",
            "eventCount": 5,
            "feeRecipient": "0xea674fdde714fd979de3edf0f56aa9716b898ec8",
            "formatValue": "4",
            "gasLimit": 376795,
            "gasPrice": "84.73433556",
            "gasUsed": 209667,
            "intTxnCount": 17,
            "internalRevert": true,
            "internalRevertMessage": "",
            "isContractCreation": false,
            "isFlashloan": false,
            "maxFee": "192",
            "nonce": 50,
            "overwritedBlockNumber": -1,
            "priorityFee": "9",
            "receiver": "0x1111111254fb6c44bac0bed2854e76f90643097d",
            "revertMessage": "Return amount is not enough",
            "sender": "0x36ef5d2c8413826965874606be5cc368704b5142",
            "simulationEnable": true,
            "sourceTxnHash": "0x81bc0c40be015754330d8c473a6d3486886417ce10d4f09c5fdd433828d03ded",
            "status": false,
            "timestamp": "2022-01-19T01:51:45Z",
            "transactionFee": "0.01776599393385852",
            "txnHash": "0x81bc0c40be015754330d8c473a6d3486886417ce10d4f09c5fdd433828d03ded",
            "txnIndex": 100,
            "type": 2,
            "value": "4000000000000000000"
        },
        "fund_flow": [],
        "token_infos": [
            {
                "address": "0x6dea81c8171d0ba574754ef6f8b412f2ed88c54d",
                "decimals": 18
            },
            {
                "address": "0xc02aaa39b223fe8d0a0e5c4f27ead9083c756cc2",
                "decimals": 18
            },
            {
                "address": "0xeeeeeeeeeeeeeeeeeeeeeeeeeeeeeeeeeeeeeeee",
                "decimals": 18
            }
        ]
    },
    "address_label": {
        "labels": [
            {
                "address": "0xc02aaa39b223fe8d0a0e5c4f27ead9083c756cc2",
                "label": "Wrapped Ether (WETH)"
            },
            {
                "address": "0x220bda5c8994804ac96ebe4df184d25e5c2196d4",
                "label": "1inch: Aggregation Executor"
            },
            {
                "address": "0xd1d5a4c0ea98971894772dcd6d2f1dc71083c44e",
                "label": "Uniswap V3: LQTY"
            },
            {
                "address": "0x1111111254fb6c44bac0bed2854e76f90643097d",
                "label": "1inch v4: Aggregation Router"
            },
            {
                "address": "0x0000000000000000000000000000000000000001",
                "label": "Precompiled"
            },
            {
                "address": "0x0000000000000000000000000000000000000003",
                "label": "Precompiled"
            },
            {
                "address": "0x0000000000000000000000000000000000000004",
                "label": "Precompiled"
            },
            {
                "address": "0xeeeeeeeeeeeeeeeeeeeeeeeeeeeeeeeeeeeeeeee",
                "label": "Ether"
            },
            {
                "address": "0x6dea81c8171d0ba574754ef6f8b412f2ed88c54d",
                "label": "LQTY (LQTY)"
            },
            {
                "address": "0x0000000000000000000000000000000000000002",
                "label": "Precompiled"
            }
        ]
    },
    "trace": {
        "accountLabels": null,
        "dataMap": {
            "-1": {
                "invocation": {
                    "address": "0x36ef5d2c8413826965874606be5cc368704b5142",
                    "callData": "",
                    "decodedMethod": null,
                    "errorInfo": "",
                    "fromAddress": "",
                    "gasUsed": 0,
                    "id": -1,
                    "methodDecoded": false,
                    "operation": "",
                    "output": "",
                    "revert": false,
                    "revertMessage": "",
                    "selector": "",
                    "status": false,
                    "value": ""
                },
                "nodeType": 0
            },
            "0": {
                "invocation": {
                    "address": "0x1111111254fb6c44bac0bed2854e76f90643097d",
                    "callData": "0x000000000000000000000000220bda5c8994804ac96ebe4df184d25e5c2196d400000000000000000000000000000000000000000000000000000000000000600000000000000000000000000000000000000000000000000000000000000180000000000000000000000000eeeeeeeeeeeeeeeeeeeeeeeeeeeeeeeeeeeeeeee0000000000000000000000006dea81c8171d0ba574754ef6f8b412f2ed88c54d000000000000000000000000220bda5c8994804ac96ebe4df184d25e5c2196d40000000000000000000000002ff2e3b3afaefa8dea19ec9afac95bef4d8af4df0000000000000000000000000000000000000000000000003782dace9d9000000000000000000000000000000000000000000000000000856cd2d9cab08508f20000000000000000000000000000000000000000000000000000000000000000000000000000000000000000000000000000000000000000000000000000010000000000000000000000000000000000000000000000000000000000000000000000000000000000000000000000000000000000000000000000000000000800000000000000000000000000000000000000000000000000000000000000004000000000000000000000000000000000000000000000000000000000000000040000000000000000000000000000000000000000000000000000000000000080000000000000000000000000000000000000000000000000000000000000012000000000000000000000000000000000000000000000000000000000000002c000000000000000000000000000000000000000000000000000000000000005a0000000000000000000000000c02aaa39b223fe8d0a0e5c4f27ead9083c756cc20000000000000000000000000000000000000000000000003782dace9d90000000000000000000000000000000000000000000000000000000000000000000600000000000000000000000000000000000000000000000000000000000000004d0e30db000000000000000000000000000000000000000000000000000000000800000000000000000000000d1d5a4c0ea98971894772dcd6d2f1dc71083c44e000000000000000000000000000000000000000000000000000000000000000000000000000000000000000000000000000000000000000000000000000000600000000000000000000000000000000000000000000000000000000000000104128acb08000000000000000000000000220bda5c8994804ac96ebe4df184d25e5c2196d400000000000000000000000000000000000000000000000000000000000000000000000000000000000000000000000000000000000000003782dace9d900000000000000000000000000000fffd8963efd1fc6a506488495d951d5263988d2500000000000000000000000000000000000000000000000000000000000000a000000000000000000000000000000000000000000000000000000000000000400000000000000000000000006dea81c8171d0ba574754ef6f8b412f2ed88c54d000000000000000000000000c02aaa39b223fe8d0a0e5c4f27ead9083c756cc200000000000000000000000000000000000000000000000000000000000000000000000000000000000000000000000000000000000000000000000000000000000000000000000000000000000000000000000000000000000000000000000000000000000000000000000000000000000000000000000000000060000000000000000000000000000000000000000000000000000000000000024432ce0a7c00000000000000000000000000000000000000000000000000000000000000808000000000000000000000000000000000000000000000000000000000000044000000000000000000000000220bda5c8994804ac96ebe4df184d25e5c2196d400000000000000000000000000000000000000000000000000000000000001c000000000000000000000000000000000000000000000000000000000000000000000000000000000000000000000000000000000000000000000000000000000000000000000000000000000000000000000000000000000000000000000006000000000000000000000000000000000000000000000000000000000000000a4059712240000000000000000000000006dea81c8171d0ba574754ef6f8b412f2ed88c54d0000000000000000000000000000000000000000000000000000000000000000000000000000000000000000000000000000000000000000000000000000000100000000000000000000000000000001000000000000000000000000000000010000000000000000000000000000000000000000000000000db868ed3773548f00000000000000000000000000000000000000000000000000000000000000000000000000000000000000000000000000000000000000000000004470bdb9470000000000000000000000006dea81c8171d0ba574754ef6f8b412f2ed88c54d000000000000000000000000000000000000000000000085c26e0179b6bc8bdb0000000000000000000000000000000000000000000000000000000000000000000000000000000000000000000000000000000000000000000000000000000000000000000000000000000000000000000000000000000000000000000000000000000000000000000000000000000000000000000000000000000000000000000000000000000000000000000000000000000000000060000000000000000000000000000000000000000000000000000000000000018414284aab000000000000000000000000000000000000000000000000000000000000008080000000000000000000000000000000000000000000000000000000000000440000000000000000000000006dea81c8171d0ba574754ef6f8b412f2ed88c54d00000000000000000000000000000001000000000000000000000000000000010000000000000000000000000000000000000000000000000000000000000000000000000000000000000000000000000000000000000000000000000000000000000000000000000000000000000000000000000000000000000000000000600000000000000000000000000000000000000000000000000000000000000064d1660f990000000000000000000000006dea81c8171d0ba574754ef6f8b412f2ed88c54d0000000000000000000000001111111254fb6c44bac0bed2854e76f90643097d00000000000000000000000000000000000000000000000000000000000000010000000000000000000000000000000000000000000000000000000000000000000000000000000000000000000000000000000000000000cfee7c08",
                    "decodedMethod": {
                        "callParams": [
                            {
                                "name": "caller",
                                "type": "address",
                                "value": "0x220bda5c8994804ac96ebe4df184d25e5c2196d4"
                            },
                            {
                                "name": "desc",
                                "type": "(address,address,address,address,uint256,uint256,uint256,bytes)",
                                "value": [
                                    {
                                        "name": "srcToken",
                                        "type": "address",
                                        "value": "0xeeeeeeeeeeeeeeeeeeeeeeeeeeeeeeeeeeeeeeee"
                                    },
                                    {
                                        "name": "dstToken",
                                        "type": "address",
                                        "value": "0x6dea81c8171d0ba574754ef6f8b412f2ed88c54d"
                                    },
                                    {
                                        "name": "srcReceiver",
                                        "type": "address",
                                        "value": "0x220bda5c8994804ac96ebe4df184d25e5c2196d4"
                                    },
                                    {
                                        "name": "dstReceiver",
                                        "type": "address",
                                        "value": "0x2ff2e3b3afaefa8dea19ec9afac95bef4d8af4df"
                                    },
                                    {
                                        "name": "amount",
                                        "type": "uint256",
                                        "value": "4,000,000,000,000,000,000"
                                    },
                                    {
                                        "name": "minReturnAmount",
                                        "type": "uint256",
                                        "value": "2,461,258,531,169,143,949,554"
                                    },
                                    {
                                        "name": "flags",
                                        "type": "uint256",
                                        "value": "0"
                                    },
                                    {
                                        "name": "permit",
                                        "type": "bytes",
                                        "value": "0x"
                                    }
                                ]
                            },
                            {
                                "name": "data",
                                "type": "bytes",
                                "value": "0x000000000000000000000000000000000000000000000000000000000000004000000000000000000000000000000000000000000000000000000000000000040000000000000000000000000000000000000000000000000000000000000080000000000000000000000000000000000000000000000000000000000000012000000000000000000000000000000000000000000000000000000000000002c000000000000000000000000000000000000000000000000000000000000005a0000000000000000000000000c02aaa39b223fe8d0a0e5c4f27ead9083c756cc20000000000000000000000000000000000000000000000003782dace9d90000000000000000000000000000000000000000000000000000000000000000000600000000000000000000000000000000000000000000000000000000000000004d0e30db000000000000000000000000000000000000000000000000000000000800000000000000000000000d1d5a4c0ea98971894772dcd6d2f1dc71083c44e000000000000000000000000000000000000000000000000000000000000000000000000000000000000000000000000000000000000000000000000000000600000000000000000000000000000000000000000000000000000000000000104128acb08000000000000000000000000220bda5c8994804ac96ebe4df184d25e5c2196d400000000000000000000000000000000000000000000000000000000000000000000000000000000000000000000000000000000000000003782dace9d900000000000000000000000000000fffd8963efd1fc6a506488495d951d5263988d2500000000000000000000000000000000000000000000000000000000000000a000000000000000000000000000000000000000000000000000000000000000400000000000000000000000006dea81c8171d0ba574754ef6f8b412f2ed88c54d000000000000000000000000c02aaa39b223fe8d0a0e5c4f27ead9083c756cc200000000000000000000000000000000000000000000000000000000000000000000000000000000000000000000000000000000000000000000000000000000000000000000000000000000000000000000000000000000000000000000000000000000000000000000000000000000000000000000000000000060000000000000000000000000000000000000000000000000000000000000024432ce0a7c00000000000000000000000000000000000000000000000000000000000000808000000000000000000000000000000000000000000000000000000000000044000000000000000000000000220bda5c8994804ac96ebe4df184d25e5c2196d400000000000000000000000000000000000000000000000000000000000001c000000000000000000000000000000000000000000000000000000000000000000000000000000000000000000000000000000000000000000000000000000000000000000000000000000000000000000000000000000000000000000000006000000000000000000000000000000000000000000000000000000000000000a4059712240000000000000000000000006dea81c8171d0ba574754ef6f8b412f2ed88c54d0000000000000000000000000000000000000000000000000000000000000000000000000000000000000000000000000000000000000000000000000000000100000000000000000000000000000001000000000000000000000000000000010000000000000000000000000000000000000000000000000db868ed3773548f00000000000000000000000000000000000000000000000000000000000000000000000000000000000000000000000000000000000000000000004470bdb9470000000000000000000000006dea81c8171d0ba574754ef6f8b412f2ed88c54d000000000000000000000000000000000000000000000085c26e0179b6bc8bdb0000000000000000000000000000000000000000000000000000000000000000000000000000000000000000000000000000000000000000000000000000000000000000000000000000000000000000000000000000000000000000000000000000000000000000000000000000000000000000000000000000000000000000000000000000000000000000000000000000000000000060000000000000000000000000000000000000000000000000000000000000018414284aab000000000000000000000000000000000000000000000000000000000000008080000000000000000000000000000000000000000000000000000000000000440000000000000000000000006dea81c8171d0ba574754ef6f8b412f2ed88c54d00000000000000000000000000000001000000000000000000000000000000010000000000000000000000000000000000000000000000000000000000000000000000000000000000000000000000000000000000000000000000000000000000000000000000000000000000000000000000000000000000000000000000600000000000000000000000000000000000000000000000000000000000000064d1660f990000000000000000000000006dea81c8171d0ba574754ef6f8b412f2ed88c54d0000000000000000000000001111111254fb6c44bac0bed2854e76f90643097d00000000000000000000000000000000000000000000000000000000000000010000000000000000000000000000000000000000000000000000000000000000000000000000000000000000000000000000000000000000"
                            }
                        ],
                        "constructorArguments": "",
                        "name": "swap",
                        "returnParams": [],
                        "signature": "swap(address,(address,address,address,address,uint256,uint256,uint256,bytes),bytes)"
                    },
                    "errorInfo": "execution reverted",
                    "fromAddress": "0x36ef5d2c8413826965874606be5cc368704b5142",
                    "gasUsed": 209667,
                    "id": 0,
                    "methodDecoded": true,
                    "operation": "CALL",
                    "output": "0x08c379a00000000000000000000000000000000000000000000000000000000000000020000000000000000000000000000000000000000000000000000000000000001b52657475726e20616d6f756e74206973206e6f7420656e6f7567680000000000",
                    "revert": true,
                    "revertMessage": "Return amount is not enough",
                    "selector": "0x7c025200",
                    "status": false,
                    "value": "4"
                },
                "nodeType": 0
            },
            "1": {
                "invocation": {
                    "address": "0x220bda5c8994804ac96ebe4df184d25e5c2196d4",
                    "callData": "0x00000000000000000000000036ef5d2c8413826965874606be5cc368704b5142000000000000000000000000000000000000000000000000000000000000004000000000000000000000000000000000000000000000000000000000000000040000000000000000000000000000000000000000000000000000000000000080000000000000000000000000000000000000000000000000000000000000012000000000000000000000000000000000000000000000000000000000000002c000000000000000000000000000000000000000000000000000000000000005a0000000000000000000000000c02aaa39b223fe8d0a0e5c4f27ead9083c756cc20000000000000000000000000000000000000000000000003782dace9d90000000000000000000000000000000000000000000000000000000000000000000600000000000000000000000000000000000000000000000000000000000000004d0e30db000000000000000000000000000000000000000000000000000000000800000000000000000000000d1d5a4c0ea98971894772dcd6d2f1dc71083c44e000000000000000000000000000000000000000000000000000000000000000000000000000000000000000000000000000000000000000000000000000000600000000000000000000000000000000000000000000000000000000000000104128acb08000000000000000000000000220bda5c8994804ac96ebe4df184d25e5c2196d400000000000000000000000000000000000000000000000000000000000000000000000000000000000000000000000000000000000000003782dace9d900000000000000000000000000000fffd8963efd1fc6a506488495d951d5263988d2500000000000000000000000000000000000000000000000000000000000000a000000000000000000000000000000000000000000000000000000000000000400000000000000000000000006dea81c8171d0ba574754ef6f8b412f2ed88c54d000000000000000000000000c02aaa39b223fe8d0a0e5c4f27ead9083c756cc200000000000000000000000000000000000000000000000000000000000000000000000000000000000000000000000000000000000000000000000000000000000000000000000000000000000000000000000000000000000000000000000000000000000000000000000000000000000000000000000000000060000000000000000000000000000000000000000000000000000000000000024432ce0a7c00000000000000000000000000000000000000000000000000000000000000808000000000000000000000000000000000000000000000000000000000000044000000000000000000000000220bda5c8994804ac96ebe4df184d25e5c2196d400000000000000000000000000000000000000000000000000000000000001c000000000000000000000000000000000000000000000000000000000000000000000000000000000000000000000000000000000000000000000000000000000000000000000000000000000000000000000000000000000000000000000006000000000000000000000000000000000000000000000000000000000000000a4059712240000000000000000000000006dea81c8171d0ba574754ef6f8b412f2ed88c54d0000000000000000000000000000000000000000000000000000000000000000000000000000000000000000000000000000000000000000000000000000000100000000000000000000000000000001000000000000000000000000000000010000000000000000000000000000000000000000000000000db868ed3773548f00000000000000000000000000000000000000000000000000000000000000000000000000000000000000000000000000000000000000000000004470bdb9470000000000000000000000006dea81c8171d0ba574754ef6f8b412f2ed88c54d000000000000000000000000000000000000000000000085c26e0179b6bc8bdb0000000000000000000000000000000000000000000000000000000000000000000000000000000000000000000000000000000000000000000000000000000000000000000000000000000000000000000000000000000000000000000000000000000000000000000000000000000000000000000000000000000000000000000000000000000000000000000000000000000000000060000000000000000000000000000000000000000000000000000000000000018414284aab000000000000000000000000000000000000000000000000000000000000008080000000000000000000000000000000000000000000000000000000000000440000000000000000000000006dea81c8171d0ba574754ef6f8b412f2ed88c54d00000000000000000000000000000001000000000000000000000000000000010000000000000000000000000000000000000000000000000000000000000000000000000000000000000000000000000000000000000000000000000000000000000000000000000000000000000000000000000000000000000000000000600000000000000000000000000000000000000000000000000000000000000064d1660f990000000000000000000000006dea81c8171d0ba574754ef6f8b412f2ed88c54d0000000000000000000000001111111254fb6c44bac0bed2854e76f90643097d00000000000000000000000000000000000000000000000000000000000000010000000000000000000000000000000000000000000000000000000000000000000000000000000000000000000000000000000000000000",
                    "decodedMethod": {
                        "callParams": [
                            {
                                "name": "_receiver",
                                "type": "address",
                                "value": "0x36ef5d2c8413826965874606be5cc368704b5142"
                            },
                            {
                                "name": "_data",
                                "type": "bytes",
                                "value": "0x00000000"
                            }
                        ],
                        "constructorArguments": "",
                        "name": "callBytes",
                        "returnParams": [],
                        "signature": "callBytes(address,bytes)"
                    },
                    "errorInfo": "",
                    "fromAddress": "0x1111111254fb6c44bac0bed2854e76f90643097d",
                    "gasUsed": 155639,
                    "id": 1,
                    "methodDecoded": true,
                    "operation": "CALL",
                    "output": "",
                    "revert": true,
                    "revertMessage": "",
                    "selector": "0x2636f7f8",
                    "status": true,
                    "value": "4"
                },
                "nodeType": 0
            },
            "10": {
                "event": {
                    "contract": "0xc02aaa39b223fe8d0a0e5c4f27ead9083c756cc2",
                    "decodedLog": {
                        "name": "Transfer",
                        "params": [
                            {
                                "name": "src",
                                "type": "address",
                                "value": "0x220bda5c8994804ac96ebe4df184d25e5c2196d4"
                            },
                            {
                                "name": "dst",
                                "type": "address",
                                "value": "0xd1d5a4c0ea98971894772dcd6d2f1dc71083c44e"
                            },
                            {
                                "decimalAvailable": true,
                                "name": "wad",
                                "type": "uint256",
                                "value": "4,000,000,000,000,000,000"
                            }
                        ],
                        "signature": "Transfer(address,address,uint256)"
                    },
                    "id": 10,
                    "logData": "0x0000000000000000000000000000000000000000000000003782dace9d900000",
                    "logDecoded": true,
                    "operation": "EVENT",
                    "revert": true,
                    "status": false,
                    "topics": [
                        "0xddf252ad1be2c89b69c2b068fc378daa952ba7f163c4a11628f55a4df523b3ef",
                        "0x000000000000000000000000220bda5c8994804ac96ebe4df184d25e5c2196d4",
                        "0x000000000000000000000000d1d5a4c0ea98971894772dcd6d2f1dc71083c44e"
                    ]
                },
                "nodeType": 1
            },
            "11": {
                "invocation": {
                    "address": "0xc02aaa39b223fe8d0a0e5c4f27ead9083c756cc2",
                    "callData": "0x000000000000000000000000d1d5a4c0ea98971894772dcd6d2f1dc71083c44e",
                    "decodedMethod": {
                        "callParams": [
                            {
                                "name": "",
                                "type": "address",
                                "value": "0xd1d5a4c0ea98971894772dcd6d2f1dc71083c44e"
                            }
                        ],
                        "constructorArguments": "",
                        "name": "balanceOf",
                        "returnParams": [
                            {
                                "decimalAvailable": true,
                                "name": "",
                                "type": "uint256",
                                "value": "152,016,926,925,732,718,720"
                            }
                        ],
                        "signature": "balanceOf(address)"
                    },
                    "errorInfo": "",
                    "fromAddress": "0xd1d5a4c0ea98971894772dcd6d2f1dc71083c44e",
                    "gasUsed": 534,
                    "id": 11,
                    "methodDecoded": true,
                    "operation": "STATICCALL",
                    "output": "0x0000000000000000000000000000000000000000000000083da89d9e66d02880",
                    "revert": true,
                    "revertMessage": "",
                    "selector": "0x70a08231",
                    "status": true,
                    "value": "0"
                },
                "nodeType": 0
            },
            "12": {
                "event": {
                    "contract": "0xd1d5a4c0ea98971894772dcd6d2f1dc71083c44e",
                    "decodedLog": {
                        "name": "Swap",
                        "params": [
                            {
                                "name": "sender",
                                "type": "address",
                                "value": "0x220bda5c8994804ac96ebe4df184d25e5c2196d4"
                            },
                            {
                                "name": "recipient",
                                "type": "address",
                                "value": "0x220bda5c8994804ac96ebe4df184d25e5c2196d4"
                            },
                            {
                                "name": "amount0",
                                "type": "int256",
                                "value": "-2,411,121,808,683,461,026,195"
                            },
                            {
                                "name": "amount1",
                                "type": "int256",
                                "value": "4,000,000,000,000,000,000"
                            },
                            {
                                "name": "sqrtPriceX96",
                                "type": "uint160",
                                "value": "3,240,704,366,124,042,796,851,095,944"
                            },
                            {
                                "name": "liquidity",
                                "type": "uint128",
                                "value": "8,545,164,812,958,587,529,391"
                            },
                            {
                                "name": "tick",
                                "type": "int24",
                                "value": "-63,935"
                            }
                        ],
                        "signature": "Swap(address,address,int256,int256,uint160,uint128,int24)"
                    },
                    "id": 12,
                    "logData": "0xffffffffffffffffffffffffffffffffffffffffffffff7d4af691ac58f35e6d0000000000000000000000000000000000000000000000003782dace9d90000000000000000000000000000000000000000000000a78a5d7b4ed64bf6c3969880000000000000000000000000000000000000000000001cf3bfbeb298be1a8afffffffffffffffffffffffffffffffffffffffffffffffffffffffffffff0641",
                    "logDecoded": true,
                    "operation": "EVENT",
                    "revert": true,
                    "status": false,
                    "topics": [
                        "0xc42079f94a6350d7e6235f29174924f928cc2ac818eb64fed8004e115fbcca67",
                        "0x000000000000000000000000220bda5c8994804ac96ebe4df184d25e5c2196d4",
                        "0x000000000000000000000000220bda5c8994804ac96ebe4df184d25e5c2196d4"
                    ]
                },
                "nodeType": 1
            },
            "13": {
                "invocation": {
                    "address": "0x220bda5c8994804ac96ebe4df184d25e5c2196d4",
                    "callData": "0x00000000000000000000000000000000000000000000000000000000000000808000000000000000000000000000000000000000000000000000000000000044000000000000000000000000220bda5c8994804ac96ebe4df184d25e5c2196d400000000000000000000000000000000000000000000000000000000000001c000000000000000000000000000000000000000000000000000000000000000000000000000000000000000000000000000000000000000000000000000000000000000000000000000000000000000000000000000000000000000000000006000000000000000000000000000000000000000000000000000000000000000a4059712240000000000000000000000006dea81c8171d0ba574754ef6f8b412f2ed88c54d0000000000000000000000000000000000000000000000000000000000000000000000000000000000000000000000000000000000000000000000000000000100000000000000000000000000000001000000000000000000000000000000010000000000000000000000000000000000000000000000000db868ed3773548f00000000000000000000000000000000000000000000000000000000000000000000000000000000000000000000000000000000000000000000004470bdb9470000000000000000000000006dea81c8171d0ba574754ef6f8b412f2ed88c54d000000000000000000000000000000000000000000000085c26e0179b6bc8bdb00000000000000000000000000000000000000000000000000000000",
                    "decodedMethod": null,
                    "errorInfo": "",
                    "fromAddress": "0x220bda5c8994804ac96ebe4df184d25e5c2196d4",
                    "gasUsed": 5360,
                    "id": 13,
                    "methodDecoded": false,
                    "operation": "CALL",
                    "output": "",
                    "revert": true,
                    "revertMessage": "",
                    "selector": "0x32ce0a7c",
                    "status": true,
                    "value": "0"
                },
                "nodeType": 0
            },
            "14": {
                "invocation": {
                    "address": "0x220bda5c8994804ac96ebe4df184d25e5c2196d4",
                    "callData": "0x0000000000000000000000006dea81c8171d0ba574754ef6f8b412f2ed88c54d000000000000000000000000000000000000000000000085c26e0179b6bc8bdb",
                    "decodedMethod": null,
                    "errorInfo": "",
                    "fromAddress": "0x220bda5c8994804ac96ebe4df184d25e5c2196d4",
                    "gasUsed": 1691,
                    "id": 14,
                    "methodDecoded": false,
                    "operation": "STATICCALL",
                    "output": "0x0000000000000000000000000000000000000000000000000000000000000000",
                    "revert": true,
                    "revertMessage": "",
                    "selector": "0x70bdb947",
                    "status": true,
                    "value": "0"
                },
                "nodeType": 0
            },
            "15": {
                "invocation": {
                    "address": "0x6dea81c8171d0ba574754ef6f8b412f2ed88c54d",
                    "callData": "0x000000000000000000000000220bda5c8994804ac96ebe4df184d25e5c2196d4",
                    "decodedMethod": {
                        "callParams": [
                            {
                                "name": "account",
                                "type": "address",
                                "value": "0x220bda5c8994804ac96ebe4df184d25e5c2196d4"
                            }
                        ],
                        "constructorArguments": "",
                        "name": "balanceOf",
                        "returnParams": [
                            {
                                "decimalAvailable": true,
                                "name": "",
                                "type": "uint256",
                                "value": "2,411,121,808,683,461,026,195"
                            }
                        ],
                        "signature": "balanceOf(address)"
                    },
                    "errorInfo": "",
                    "fromAddress": "0x220bda5c8994804ac96ebe4df184d25e5c2196d4",
                    "gasUsed": 556,
                    "id": 15,
                    "methodDecoded": true,
                    "operation": "STATICCALL",
                    "output": "0x000000000000000000000000000000000000000000000082b5096e53a70ca193",
                    "revert": true,
                    "revertMessage": "",
                    "selector": "0x70a08231",
                    "status": true,
                    "value": "0"
                },
                "nodeType": 0
            },
            "16": {
                "invocation": {
                    "address": "0x220bda5c8994804ac96ebe4df184d25e5c2196d4",
                    "callData": "0x0000000000000000000000006dea81c8171d0ba574754ef6f8b412f2ed88c54d0000000000000000000000000000000000000000000000000000000000000000000000000000000000000000000000000000000000000000000000000000000000000000000000000000000000000001000000000000000000000000000000010000000000000000000000000000000000000000000000000db868ed3773548f",
                    "decodedMethod": null,
                    "errorInfo": "",
                    "fromAddress": "0x220bda5c8994804ac96ebe4df184d25e5c2196d4",
                    "gasUsed": 663,
                    "id": 16,
                    "methodDecoded": false,
                    "operation": "CALL",
                    "output": "",
                    "revert": true,
                    "revertMessage": "",
                    "selector": "0x05971224",
                    "status": true,
                    "value": "0"
                },
                "nodeType": 0
            },
            "17": {
                "invocation": {
                    "address": "0x220bda5c8994804ac96ebe4df184d25e5c2196d4",
                    "callData": "0x000000000000000000000000000000000000000000000000000000000000008080000000000000000000000000000000000000000000000000000000000000440000000000000000000000006dea81c8171d0ba574754ef6f8b412f2ed88c54d00000000000000000000000000000001000000000000000000000000000000010000000000000000000000000000000000000000000000000000000000000000000000000000000000000000000000000000000000000000000000000000000000000000000000000000000000000000000000000000000000000000000000600000000000000000000000000000000000000000000000000000000000000064d1660f990000000000000000000000006dea81c8171d0ba574754ef6f8b412f2ed88c54d0000000000000000000000001111111254fb6c44bac0bed2854e76f90643097d000000000000000000000000000000000000000000000000000000000000000100000000000000000000000000000000000000000000000000000000",
                    "decodedMethod": null,
                    "errorInfo": "",
                    "fromAddress": "0x220bda5c8994804ac96ebe4df184d25e5c2196d4",
                    "gasUsed": 31235,
                    "id": 17,
                    "methodDecoded": false,
                    "operation": "CALL",
                    "output": "",
                    "revert": true,
                    "revertMessage": "",
                    "selector": "0x14284aab",
                    "status": true,
                    "value": "0"
                },
                "nodeType": 0
            },
            "18": {
                "invocation": {
                    "address": "0x6dea81c8171d0ba574754ef6f8b412f2ed88c54d",
                    "callData": "0x000000000000000000000000220bda5c8994804ac96ebe4df184d25e5c2196d4",
                    "decodedMethod": {
                        "callParams": [
                            {
                                "name": "account",
                                "type": "address",
                                "value": "0x220bda5c8994804ac96ebe4df184d25e5c2196d4"
                            }
                        ],
                        "constructorArguments": "",
                        "name": "balanceOf",
                        "returnParams": [
                            {
                                "decimalAvailable": true,
                                "name": "",
                                "type": "uint256",
                                "value": "2,411,121,808,683,461,026,195"
                            }
                        ],
                        "signature": "balanceOf(address)"
                    },
                    "errorInfo": "",
                    "fromAddress": "0x220bda5c8994804ac96ebe4df184d25e5c2196d4",
                    "gasUsed": 556,
                    "id": 18,
                    "methodDecoded": true,
                    "operation": "STATICCALL",
                    "output": "0x000000000000000000000000000000000000000000000082b5096e53a70ca193",
                    "revert": true,
                    "revertMessage": "",
                    "selector": "0x70a08231",
                    "status": true,
                    "value": "0"
                },
                "nodeType": 0
            },
            "19": {
                "invocation": {
                    "address": "0x220bda5c8994804ac96ebe4df184d25e5c2196d4",
                    "callData": "0x0000000000000000000000006dea81c8171d0ba574754ef6f8b412f2ed88c54d0000000000000000000000001111111254fb6c44bac0bed2854e76f90643097d000000000000000000000000000000000000000000000082b5096e53a70ca193",
                    "decodedMethod": {
                        "callParams": [
                            {
                                "name": "token",
                                "type": "address",
                                "value": "0x6dea81c8171d0ba574754ef6f8b412f2ed88c54d"
                            },
                            {
                                "name": "to",
                                "type": "address",
                                "value": "0x1111111254fb6c44bac0bed2854e76f90643097d"
                            },
                            {
                                "name": "value",
                                "type": "uint256",
                                "value": "2,411,121,808,683,461,026,195"
                            }
                        ],
                        "constructorArguments": "",
                        "name": "safeTransfer",
                        "returnParams": [],
                        "signature": "safeTransfer(address,address,uint256)"
                    },
                    "errorInfo": "",
                    "fromAddress": "0x220bda5c8994804ac96ebe4df184d25e5c2196d4",
                    "gasUsed": 27697,
                    "id": 19,
                    "methodDecoded": true,
                    "operation": "CALL",
                    "output": "",
                    "revert": true,
                    "revertMessage": "",
                    "selector": "0xd1660f99",
                    "status": true,
                    "value": "0"
                },
                "nodeType": 0
            },
            "2": {
                "invocation": {
                    "address": "0xc02aaa39b223fe8d0a0e5c4f27ead9083c756cc2",
                    "callData": "0x",
                    "decodedMethod": {
                        "callParams": [],
                        "constructorArguments": "",
                        "name": "deposit",
                        "returnParams": [],
                        "signature": "deposit()"
                    },
                    "errorInfo": "",
                    "fromAddress": "0x220bda5c8994804ac96ebe4df184d25e5c2196d4",
                    "gasUsed": 23974,
                    "id": 2,
                    "methodDecoded": true,
                    "operation": "CALL",
                    "output": "",
                    "revert": true,
                    "revertMessage": "",
                    "selector": "0xd0e30db0",
                    "status": true,
                    "value": "4"
                },
                "nodeType": 0
            },
            "20": {
                "invocation": {
                    "address": "0x6dea81c8171d0ba574754ef6f8b412f2ed88c54d",
                    "callData": "0x0000000000000000000000001111111254fb6c44bac0bed2854e76f90643097d000000000000000000000000000000000000000000000082b5096e53a70ca193",
                    "decodedMethod": {
                        "callParams": [
                            {
                                "name": "recipient",
                                "type": "address",
                                "value": "0x1111111254fb6c44bac0bed2854e76f90643097d"
                            },
                            {
                                "decimalAvailable": true,
                                "name": "amount",
                                "type": "uint256",
                                "value": "2,411,121,808,683,461,026,195"
                            }
                        ],
                        "constructorArguments": "",
                        "name": "transfer",
                        "returnParams": [
                            {
                                "name": "",
                                "type": "bool",
                                "value": true
                            }
                        ],
                        "signature": "transfer(address,uint256)"
                    },
                    "errorInfo": "",
                    "fromAddress": "0x220bda5c8994804ac96ebe4df184d25e5c2196d4",
                    "gasUsed": 25602,
                    "id": 20,
                    "methodDecoded": true,
                    "operation": "CALL",
                    "output": "0x0000000000000000000000000000000000000000000000000000000000000001",
                    "revert": true,
                    "revertMessage": "",
                    "selector": "0xa9059cbb",
                    "status": true,
                    "value": "0"
                },
                "nodeType": 0
            },
            "21": {
                "event": {
                    "contract": "0x6dea81c8171d0ba574754ef6f8b412f2ed88c54d",
                    "decodedLog": {
                        "name": "Transfer",
                        "params": [
                            {
                                "name": "from",
                                "type": "address",
                                "value": "0x220bda5c8994804ac96ebe4df184d25e5c2196d4"
                            },
                            {
                                "name": "to",
                                "type": "address",
                                "value": "0x1111111254fb6c44bac0bed2854e76f90643097d"
                            },
                            {
                                "decimalAvailable": true,
                                "name": "value",
                                "type": "uint256",
                                "value": "2,411,121,808,683,461,026,195"
                            }
                        ],
                        "signature": "Transfer(address,address,uint256)"
                    },
                    "id": 21,
                    "logData": "0x000000000000000000000000000000000000000000000082b5096e53a70ca193",
                    "logDecoded": true,
                    "operation": "EVENT",
                    "revert": true,
                    "status": false,
                    "topics": [
                        "0xddf252ad1be2c89b69c2b068fc378daa952ba7f163c4a11628f55a4df523b3ef",
                        "0x000000000000000000000000220bda5c8994804ac96ebe4df184d25e5c2196d4",
                        "0x0000000000000000000000001111111254fb6c44bac0bed2854e76f90643097d"
                    ]
                },
                "nodeType": 1
            },
            "22": {
                "invocation": {
                    "address": "0x6dea81c8171d0ba574754ef6f8b412f2ed88c54d",
                    "callData": "0x0000000000000000000000001111111254fb6c44bac0bed2854e76f90643097d",
                    "decodedMethod": {
                        "callParams": [
                            {
                                "name": "account",
                                "type": "address",
                                "value": "0x1111111254fb6c44bac0bed2854e76f90643097d"
                            }
                        ],
                        "constructorArguments": "",
                        "name": "balanceOf",
                        "returnParams": [
                            {
                                "decimalAvailable": true,
                                "name": "",
                                "type": "uint256",
                                "value": "2,411,121,808,683,461,026,195"
                            }
                        ],
                        "signature": "balanceOf(address)"
                    },
                    "errorInfo": "",
                    "fromAddress": "0x1111111254fb6c44bac0bed2854e76f90643097d",
                    "gasUsed": 556,
                    "id": 22,
                    "methodDecoded": true,
                    "operation": "STATICCALL",
                    "output": "0x000000000000000000000000000000000000000000000082b5096e53a70ca193",
                    "revert": true,
                    "revertMessage": "",
                    "selector": "0x70a08231",
                    "status": true,
                    "value": "0"
                },
                "nodeType": 0
            },
            "3": {
                "event": {
                    "contract": "0xc02aaa39b223fe8d0a0e5c4f27ead9083c756cc2",
                    "decodedLog": {
                        "name": "Deposit",
                        "params": [
                            {
                                "name": "dst",
                                "type": "address",
                                "value": "0x220bda5c8994804ac96ebe4df184d25e5c2196d4"
                            },
                            {
                                "name": "wad",
                                "type": "uint256",
                                "value": "4,000,000,000,000,000,000"
                            }
                        ],
                        "signature": "Deposit(address,uint256)"
                    },
                    "id": 3,
                    "logData": "0x0000000000000000000000000000000000000000000000003782dace9d900000",
                    "logDecoded": true,
                    "operation": "EVENT",
                    "revert": true,
                    "status": false,
                    "topics": [
                        "0xe1fffcc4923d04b559f4d29a8bfc6cda04eb5b0d3c460751c2402c5c5cc9109c",
                        "0x000000000000000000000000220bda5c8994804ac96ebe4df184d25e5c2196d4"
                    ]
                },
                "nodeType": 1
            },
            "4": {
                "invocation": {
                    "address": "0xd1d5a4c0ea98971894772dcd6d2f1dc71083c44e",
                    "callData": "0x000000000000000000000000220bda5c8994804ac96ebe4df184d25e5c2196d400000000000000000000000000000000000000000000000000000000000000000000000000000000000000000000000000000000000000003782dace9d900000000000000000000000000000fffd8963efd1fc6a506488495d951d5263988d2500000000000000000000000000000000000000000000000000000000000000a000000000000000000000000000000000000000000000000000000000000000400000000000000000000000006dea81c8171d0ba574754ef6f8b412f2ed88c54d000000000000000000000000c02aaa39b223fe8d0a0e5c4f27ead9083c756cc2",
                    "decodedMethod": {
                        "callParams": [
                            {
                                "name": "recipient",
                                "type": "address",
                                "value": "0x220bda5c8994804ac96ebe4df184d25e5c2196d4"
                            },
                            {
                                "name": "zeroForOne",
                                "type": "bool",
                                "value": false
                            },
                            {
                                "name": "amountSpecified",
                                "type": "int256",
                                "value": "4,000,000,000,000,000,000"
                            },
                            {
                                "name": "sqrtPriceLimitX96",
                                "type": "uint160",
                                "value": "1,461,446,703,485,210,103,287,273,052,203,988,822,378,723,970,341"
                            },
                            {
                                "name": "data",
                                "type": "bytes",
                                "value": "0x0000000000000000000000006dea81c8171d0ba574754ef6f8b412f2ed88c54d000000000000000000000000c02aaa39b223fe8d0a0e5c4f27ead9083c756cc2"
                            }
                        ],
                        "constructorArguments": "",
                        "name": "swap",
                        "returnParams": [
                            {
                                "name": "amount0",
                                "type": "int256",
                                "value": "-2,411,121,808,683,461,026,195"
                            },
                            {
                                "name": "amount1",
                                "type": "int256",
                                "value": "4,000,000,000,000,000,000"
                            }
                        ],
                        "signature": "swap(address,bool,int256,uint160,bytes)"
                    },
                    "errorInfo": "",
                    "fromAddress": "0x220bda5c8994804ac96ebe4df184d25e5c2196d4",
                    "gasUsed": 79097,
                    "id": 4,
                    "methodDecoded": true,
                    "operation": "CALL",
                    "output": "0xffffffffffffffffffffffffffffffffffffffffffffff7d4af691ac58f35e6d0000000000000000000000000000000000000000000000003782dace9d900000",
                    "revert": true,
                    "revertMessage": "",
                    "selector": "0x128acb08",
                    "status": true,
                    "value": "0"
                },
                "nodeType": 0
            },
            "5": {
                "invocation": {
                    "address": "0x6dea81c8171d0ba574754ef6f8b412f2ed88c54d",
                    "callData": "0x000000000000000000000000220bda5c8994804ac96ebe4df184d25e5c2196d4000000000000000000000000000000000000000000000082b5096e53a70ca193",
                    "decodedMethod": {
                        "callParams": [
                            {
                                "name": "recipient",
                                "type": "address",
                                "value": "0x220bda5c8994804ac96ebe4df184d25e5c2196d4"
                            },
                            {
                                "decimalAvailable": true,
                                "name": "amount",
                                "type": "uint256",
                                "value": "2,411,121,808,683,461,026,195"
                            }
                        ],
                        "constructorArguments": "",
                        "name": "transfer",
                        "returnParams": [
                            {
                                "name": "",
                                "type": "bool",
                                "value": true
                            }
                        ],
                        "signature": "transfer(address,uint256)"
                    },
                    "errorInfo": "",
                    "fromAddress": "0xd1d5a4c0ea98971894772dcd6d2f1dc71083c44e",
                    "gasUsed": 30402,
                    "id": 5,
                    "methodDecoded": true,
                    "operation": "CALL",
                    "output": "0x0000000000000000000000000000000000000000000000000000000000000001",
                    "revert": true,
                    "revertMessage": "",
                    "selector": "0xa9059cbb",
                    "status": true,
                    "value": "0"
                },
                "nodeType": 0
            },
            "6": {
                "event": {
                    "contract": "0x6dea81c8171d0ba574754ef6f8b412f2ed88c54d",
                    "decodedLog": {
                        "name": "Transfer",
                        "params": [
                            {
                                "name": "from",
                                "type": "address",
                                "value": "0xd1d5a4c0ea98971894772dcd6d2f1dc71083c44e"
                            },
                            {
                                "name": "to",
                                "type": "address",
                                "value": "0x220bda5c8994804ac96ebe4df184d25e5c2196d4"
                            },
                            {
                                "decimalAvailable": true,
                                "name": "value",
                                "type": "uint256",
                                "value": "2,411,121,808,683,461,026,195"
                            }
                        ],
                        "signature": "Transfer(address,address,uint256)"
                    },
                    "id": 6,
                    "logData": "0x000000000000000000000000000000000000000000000082b5096e53a70ca193",
                    "logDecoded": true,
                    "operation": "EVENT",
                    "revert": true,
                    "status": false,
                    "topics": [
                        "0xddf252ad1be2c89b69c2b068fc378daa952ba7f163c4a11628f55a4df523b3ef",
                        "0x000000000000000000000000d1d5a4c0ea98971894772dcd6d2f1dc71083c44e",
                        "0x000000000000000000000000220bda5c8994804ac96ebe4df184d25e5c2196d4"
                    ]
                },
                "nodeType": 1
            },
            "7": {
                "invocation": {
                    "address": "0xc02aaa39b223fe8d0a0e5c4f27ead9083c756cc2",
                    "callData": "0x000000000000000000000000d1d5a4c0ea98971894772dcd6d2f1dc71083c44e",
                    "decodedMethod": {
                        "callParams": [
                            {
                                "name": "",
                                "type": "address",
                                "value": "0xd1d5a4c0ea98971894772dcd6d2f1dc71083c44e"
                            }
                        ],
                        "constructorArguments": "",
                        "name": "balanceOf",
                        "returnParams": [
                            {
                                "decimalAvailable": true,
                                "name": "",
                                "type": "uint256",
                                "value": "148,016,926,925,732,718,720"
                            }
                        ],
                        "signature": "balanceOf(address)"
                    },
                    "errorInfo": "",
                    "fromAddress": "0xd1d5a4c0ea98971894772dcd6d2f1dc71083c44e",
                    "gasUsed": 2534,
                    "id": 7,
                    "methodDecoded": true,
                    "operation": "STATICCALL",
                    "output": "0x0000000000000000000000000000000000000000000000080625c2cfc9402880",
                    "revert": true,
                    "revertMessage": "",
                    "selector": "0x70a08231",
                    "status": true,
                    "value": "0"
                },
                "nodeType": 0
            },
            "8": {
                "invocation": {
                    "address": "0x220bda5c8994804ac96ebe4df184d25e5c2196d4",
                    "callData": "0xffffffffffffffffffffffffffffffffffffffffffffff7d4af691ac58f35e6d0000000000000000000000000000000000000000000000003782dace9d900000000000000000000000000000000000000000000000000000000000000000006000000000000000000000000000000000000000000000000000000000000000400000000000000000000000006dea81c8171d0ba574754ef6f8b412f2ed88c54d000000000000000000000000c02aaa39b223fe8d0a0e5c4f27ead9083c756cc2",
                    "decodedMethod": {
                        "callParams": [
                            {
                                "name": "amount0Delta",
                                "type": "int256",
                                "value": "-2,411,121,808,683,461,026,195"
                            },
                            {
                                "name": "amount1Delta",
                                "type": "int256",
                                "value": "4,000,000,000,000,000,000"
                            },
                            {
                                "name": "data",
                                "type": "bytes",
                                "value": "0x0000000000000000000000006dea81c8171d0ba574754ef6f8b412f2ed88c54d000000000000000000000000c02aaa39b223fe8d0a0e5c4f27ead9083c756cc2"
                            }
                        ],
                        "constructorArguments": "",
                        "name": "uniswapV3SwapCallback",
                        "returnParams": [],
                        "signature": "uniswapV3SwapCallback(int256,int256,bytes)"
                    },
                    "errorInfo": "",
                    "fromAddress": "0xd1d5a4c0ea98971894772dcd6d2f1dc71083c44e",
                    "gasUsed": 8232,
                    "id": 8,
                    "methodDecoded": true,
                    "operation": "CALL",
                    "output": "",
                    "revert": true,
                    "revertMessage": "",
                    "selector": "0xfa461e33",
                    "status": true,
                    "value": "0"
                },
                "nodeType": 0
            },
            "9": {
                "invocation": {
                    "address": "0xc02aaa39b223fe8d0a0e5c4f27ead9083c756cc2",
                    "callData": "0x000000000000000000000000d1d5a4c0ea98971894772dcd6d2f1dc71083c44e0000000000000000000000000000000000000000000000003782dace9d900000",
                    "decodedMethod": {
                        "callParams": [
                            {
                                "name": "dst",
                                "type": "address",
                                "value": "0xd1d5a4c0ea98971894772dcd6d2f1dc71083c44e"
                            },
                            {
                                "decimalAvailable": true,
                                "name": "wad",
                                "type": "uint256",
                                "value": "4,000,000,000,000,000,000"
                            }
                        ],
                        "constructorArguments": "",
                        "name": "transfer",
                        "returnParams": [
                            {
                                "name": "",
                                "type": "bool",
                                "value": true
                            }
                        ],
                        "signature": "transfer(address,uint256)"
                    },
                    "errorInfo": "",
                    "fromAddress": "0x220bda5c8994804ac96ebe4df184d25e5c2196d4",
                    "gasUsed": 6062,
                    "id": 9,
                    "methodDecoded": true,
                    "operation": "CALL",
                    "output": "0x0000000000000000000000000000000000000000000000000000000000000001",
                    "revert": true,
                    "revertMessage": "",
                    "selector": "0xa9059cbb",
                    "status": true,
                    "value": "0"
                },
                "nodeType": 0
            }
        },
        "gasFlame": [
            {
                "children": [
                    {
                        "children": [
                            {
                                "children": [],
                                "depth": 0,
                                "name": "Initial Gas",
                                "value": 36480
                            },
                            {
                                "children": [
                                    {
                                        "children": [
                                            {
                                                "children": [],
                                                "depth": 2,
                                                "name": "deposit",
                                                "value": 23974
                                            },
                                            {
                                                "children": [
                                                    {
                                                        "children": [],
                                                        "depth": 3,
                                                        "name": "transfer",
                                                        "value": 30402
                                                    },
                                                    {
                                                        "children": [],
                                                        "depth": 3,
                                                        "name": "balanceOf",
                                                        "value": 2534
                                                    },
                                                    {
                                                        "children": [
                                                            {
                                                                "children": [],
                                                                "depth": 4,
                                                                "name": "transfer",
                                                                "value": 6062
                                                            }
                                                        ],
                                                        "depth": 3,
                                                        "name": "uniswapV3SwapCallback",
                                                        "value": 8232
                                                    },
                                                    {
                                                        "children": [],
                                                        "depth": 3,
                                                        "name": "balanceOf",
                                                        "value": 534
                                                    }
                                                ],
                                                "depth": 2,
                                                "name": "swap",
                                                "value": 79097
                                            },
                                            {
                                                "children": [
                                                    {
                                                        "children": [
                                                            {
                                                                "children": [],
                                                                "depth": 4,
                                                                "name": "balanceOf",
                                                                "value": 556
                                                            }
                                                        ],
                                                        "depth": 3,
                                                        "name": "0x70bdb947",
                                                        "value": 1691
                                                    },
                                                    {
                                                        "children": [],
                                                        "depth": 3,
                                                        "name": "0x05971224",
                                                        "value": 663
                                                    }
                                                ],
                                                "depth": 2,
                                                "name": "0x32ce0a7c",
                                                "value": 5360
                                            },
                                            {
                                                "children": [
                                                    {
                                                        "children": [],
                                                        "depth": 3,
                                                        "name": "balanceOf",
                                                        "value": 556
                                                    },
                                                    {
                                                        "children": [
                                                            {
                                                                "children": [],
                                                                "depth": 4,
                                                                "name": "transfer",
                                                                "value": 25602
                                                            }
                                                        ],
                                                        "depth": 3,
                                                        "name": "safeTransfer",
                                                        "value": 27697
                                                    }
                                                ],
                                                "depth": 2,
                                                "name": "0x14284aab",
                                                "value": 31235
                                            }
                                        ],
                                        "depth": 1,
                                        "name": "callBytes",
                                        "value": 155639
                                    },
                                    {
                                        "children": [],
                                        "depth": 1,
                                        "name": "balanceOf",
                                        "value": 556
                                    }
                                ],
                                "depth": 0,
                                "name": "Executed Gas",
                                "value": 173187
                            }
                        ],
                        "depth": -1,
                        "name": "Actual Gas Used",
                        "value": 209667
                    },
                    {
                        "children": [],
                        "depth": -1,
                        "name": "Refunded Gas",
                        "value": 0
                    }
                ],
                "depth": -2,
                "name": "Total Gas",
                "value": 209667
            }
        ],
        "isConfirmed": true,
        "mainTrace": [
            {
                "children": [
                    {
                        "children": [
                            {
                                "children": [
                                    {
                                        "children": [
                                            {
                                                "children": [],
                                                "depth": 3,
                                                "id": 3,
                                                "order": 3
                                            }
                                        ],
                                        "depth": 2,
                                        "id": 2,
                                        "order": 2
                                    },
                                    {
                                        "children": [
                                            {
                                                "children": [
                                                    {
                                                        "children": [],
                                                        "depth": 4,
                                                        "id": 6,
                                                        "order": 6
                                                    }
                                                ],
                                                "depth": 3,
                                                "id": 5,
                                                "order": 5
                                            },
                                            {
                                                "children": [],
                                                "depth": 3,
                                                "id": 7,
                                                "order": 7
                                            },
                                            {
                                                "children": [
                                                    {
                                                        "children": [
                                                            {
                                                                "children": [],
                                                                "depth": 5,
                                                                "id": 10,
                                                                "order": 10
                                                            }
                                                        ],
                                                        "depth": 4,
                                                        "id": 9,
                                                        "order": 9
                                                    }
                                                ],
                                                "depth": 3,
                                                "id": 8,
                                                "order": 8
                                            },
                                            {
                                                "children": [],
                                                "depth": 3,
                                                "id": 11,
                                                "order": 11
                                            },
                                            {
                                                "children": [],
                                                "depth": 3,
                                                "id": 12,
                                                "order": 12
                                            }
                                        ],
                                        "depth": 2,
                                        "id": 4,
                                        "order": 4
                                    },
                                    {
                                        "children": [
                                            {
                                                "children": [
                                                    {
                                                        "children": [],
                                                        "depth": 4,
                                                        "id": 15,
                                                        "order": 15
                                                    }
                                                ],
                                                "depth": 3,
                                                "id": 14,
                                                "order": 14
                                            },
                                            {
                                                "children": [],
                                                "depth": 3,
                                                "id": 16,
                                                "order": 16
                                            }
                                        ],
                                        "depth": 2,
                                        "id": 13,
                                        "order": 13
                                    },
                                    {
                                        "children": [
                                            {
                                                "children": [],
                                                "depth": 3,
                                                "id": 18,
                                                "order": 18
                                            },
                                            {
                                                "children": [
                                                    {
                                                        "children": [
                                                            {
                                                                "children": [],
                                                                "depth": 5,
                                                                "id": 21,
                                                                "order": 21
                                                            }
                                                        ],
                                                        "depth": 4,
                                                        "id": 20,
                                                        "order": 20
                                                    }
                                                ],
                                                "depth": 3,
                                                "id": 19,
                                                "order": 19
                                            }
                                        ],
                                        "depth": 2,
                                        "id": 17,
                                        "order": 17
                                    }
                                ],
                                "depth": 1,
                                "id": 1,
                                "order": 1
                            },
                            {
                                "children": [],
                                "depth": 1,
                                "id": 22,
                                "order": 22
                            }
                        ],
                        "depth": 0,
                        "id": 0,
                        "order": 0
                    }
                ],
                "depth": -1,
                "id": -1,
                "order": -1
            }
        ],
        "mainTraceNodeCount": 23,
        "parentIdMap": {
            "0": -1,
            "1": 0,
            "10": 9,
            "11": 4,
            "12": 4,
            "13": 1,
            "14": 13,
            "15": 14,
            "16": 13,
            "17": 1,
            "18": 17,
            "19": 17,
            "2": 1,
            "20": 19,
            "21": 20,
            "22": 0,
            "3": 2,
            "4": 1,
            "5": 4,
            "6": 5,
            "7": 4,
            "8": 4,
            "9": 8
        },
        "tidyTrace": [
            {
                "children": [
                    {
                        "children": [
                            {
                                "children": [
                                    {
                                        "children": [
                                            {
                                                "children": [],
                                                "depth": 3,
                                                "id": 3,
                                                "order": 3
                                            }
                                        ],
                                        "depth": 2,
                                        "id": 2,
                                        "order": 2
                                    },
                                    {
                                        "children": [
                                            {
                                                "children": [
                                                    {
                                                        "children": [],
                                                        "depth": 4,
                                                        "id": 6,
                                                        "order": 6
                                                    }
                                                ],
                                                "depth": 3,
                                                "id": 5,
                                                "order": 5
                                            },
                                            {
                                                "children": [
                                                    {
                                                        "children": [
                                                            {
                                                                "children": [],
                                                                "depth": 5,
                                                                "id": 10,
                                                                "order": 10
                                                            }
                                                        ],
                                                        "depth": 4,
                                                        "id": 9,
                                                        "order": 9
                                                    }
                                                ],
                                                "depth": 3,
                                                "id": 8,
                                                "order": 8
                                            },
                                            {
                                                "children": [],
                                                "depth": 3,
                                                "id": 12,
                                                "order": 12
                                            }
                                        ],
                                        "depth": 2,
                                        "id": 4,
                                        "order": 4
                                    },
                                    {
                                        "children": [
                                            {
                                                "children": [],
                                                "depth": 3,
                                                "id": 16,
                                                "order": 16
                                            }
                                        ],
                                        "depth": 2,
                                        "id": 13,
                                        "order": 13
                                    },
                                    {
                                        "children": [
                                            {
                                                "children": [
                                                    {
                                                        "children": [
                                                            {
                                                                "children": [],
                                                                "depth": 5,
                                                                "id": 21,
                                                                "order": 21
                                                            }
                                                        ],
                                                        "depth": 4,
                                                        "id": 20,
                                                        "order": 20
                                                    }
                                                ],
                                                "depth": 3,
                                                "id": 19,
                                                "order": 19
                                            }
                                        ],
                                        "depth": 2,
                                        "id": 17,
                                        "order": 17
                                    }
                                ],
                                "depth": 1,
                                "id": 1,
                                "order": 1
                            }
                        ],
                        "depth": 0,
                        "id": 0,
                        "order": 0
                    }
                ],
                "depth": -1,
                "id": -1,
                "order": -1
            }
        ],
        "tidyTraceNodeCount": 17
    },
    "state_change": {
        "stateChanges": []
    }
}