{
    "balance_change": {
        "balanceChanges": [
            {
                "account": "0x72e5263ff33d2494692d7f94a758aa9f82062f73",
                "assets": [
                    {
                        "address": "0x6368e1e18c4c419ddfc608a0bed1ccb87b9250fc",
                        "amount": "889,191.1175",
                        "iconUrl": "",
                        "isERC1155": false,
                        "isERC721": false,
                        "sign": false,
                        "value": "1007.08825"
                    }
                ]
            },
            {
                "account": "0x01ab65366a16ffa6a04ee1426f0c9b7c56fb80a3",
                "assets": [
                    {
                        "address": "0x6368e1e18c4c419ddfc608a0bed1ccb87b9250fc",
                        "amount": "889,191.1175",
                        "iconUrl": "",
                        "isERC1155": false,
                        "isERC721": false,
                        "sign": true,
                        "value": "1007.08825"
                    }
                ]
            }
        ]
    },
    "profile": {
        "basic_info": {
            "baseFee": "1.276927504",
            "blockNumber": 20450814,
            "callData": "0xa9059cbb00000000000000000000000001ab65366a16ffa6a04ee1426f0c9b7c56fb80a300000000000000000000000000000000000000000000bc4b25a635cc9e57c000",
            "debugEnable": true,
            "errorInfo": "",
            "eventCount": 1,
            "feeRecipient": "0x95222290dd7278aa3ddd389cc1e1d165cc4bafe5",
            "formatValue": "0",
            "gasLimit": 105456,
            "gasPrice": "10",
            "gasUsed": 51939,
            "intTxnCount": 0,
            "internalRevert": false,
            "internalRevertMessage": "",
            "isContractCreation": false,
            "isFlashloan": false,
            "maxFee": "",
            "nonce": 401012,
            "overwritedBlockNumber": -1,
            "priorityFee": "",
            "receiver": "0x6368e1e18c4c419ddfc608a0bed1ccb87b9250fc",
            "revertMessage": "",
            "sender": "0x72e5263ff33d2494692d7f94a758aa9f82062f73",
            "simulationEnable": true,
            "sourceTxnHash": "0x81b1b1215763c8552918961c524ddb5c5a1f7187fd11a862da4d0bdff0ab0996",
            "status": true,
            "timestamp": "2024-08-03T21:50:23Z",
            "transactionFee": "0.00051939",
            "txnHash": "0x81b1b1215763c8552918961c524ddb5c5a1f7187fd11a862da4d0bdff0ab0996",
            "txnIndex": 14,
            "type": 0,
            "value": "0"
        },
        "fund_flow": [
            {
                "amount": "889,191.1175",
                "from": "0x72e5263ff33d2494692d7f94a758aa9f82062f73",
                "id": 1,
                "isERC1155": false,
                "isERC721": false,
                "isReverted": false,
                "order": 1,
                "to": "0x01ab65366a16ffa6a04ee1426f0c9b7c56fb80a3",
                "token": "0x6368e1e18c4c419ddfc608a0bed1ccb87b9250fc"
            }
        ],
        "token_infos": [
            {
                "address": "0xc02aaa39b223fe8d0a0e5c4f27ead9083c756cc2",
                "decimals": 18
            },
            {
                "address": "0xeeeeeeeeeeeeeeeeeeeeeeeeeeeeeeeeeeeeeeee",
                "decimals": 18
            },
            {
                "address": "0x6368e1e18c4c419ddfc608a0bed1ccb87b9250fc",
                "decimals": 18
            }
        ]
    },
    "address_label": {
        "labels": [
            {
                "address": "0x6368e1e18c4c419ddfc608a0bed1ccb87b9250fc",
                "label": "Tap.Global Token"
            },
            {
                "address": "0x0000000000000000000000000000000000000001",
                "label": "Precompiled"
            },
            {
                "address": "0x0000000000000000000000000000000000000002",
                "label": "Precompiled"
            },
            {
                "address": "0x0000000000000000000000000000000000000003",
                "label": "Precompiled"
            },
            {
                "address": "0x0000000000000000000000000000000000000004",
                "label": "Precompiled"
            },
            {
                "address": "0xeeeeeeeeeeeeeeeeeeeeeeeeeeeeeeeeeeeeeeee",
                "label": "Ether"
            },
            {
                "address": "0x01ab65366a16ffa6a04ee1426f0c9b7c56fb80a3",
                "label": "BITFINEX"
            }
        ]
    },
    "trace": {
        "accountLabels": null,
        "dataMap": {
            "-1": {
                "invocation": {
                    "address": "0x72e5263ff33d2494692d7f94a758aa9f82062f73",
                    "callData": "",
                    "decodedMethod": null,
                    "errorInfo": "",
                    "fromAddress": "",
                    "gasUsed": 0,
                    "id": -1,
                    "methodDecoded": false,
                    "operation": "",
                    "output": "",
                    "revert": false,
                    "revertMessage": "",
                    "selector": "",
                    "status": false,
                    "value": ""
                },
                "nodeType": 0
            },
            "0": {
                "invocation": {
                    "address": "0x6368e1e18c4c419ddfc608a0bed1ccb87b9250fc",
                    "callData": "0x00000000000000000000000001ab65366a16ffa6a04ee1426f0c9b7c56fb80a300000000000000000000000000000000000000000000bc4b25a635cc9e57c000",
                    "decodedMethod": {
                        "callParams": [
                            {
                                "name": "to",
                                "type": "address",
                                "value": "0x01ab65366a16ffa6a04ee1426f0c9b7c56fb80a3"
                            },
                            {
                                "decimalAvailable": true,
                                "name": "value",
                                "type": "uint256",
                                "value": "889,191,117,500,000,000,000,000"
                            }
                        ],
                        "constructorArguments": "",
                        "name": "transfer",
                        "returnParams": [
                            {
                                "name": "",
                                "type": "bool",
                                "value": true
                            }
                        ],
                        "signature": "transfer(address,uint256)"
                    },
                    "errorInfo": "",
                    "fromAddress": "0x72e5263ff33d2494692d7f94a758aa9f82062f73",
                    "gasUsed": 51939,
                    "id": 0,
                    "methodDecoded": true,
                    "operation": "CALL",
                    "output": "0x0000000000000000000000000000000000000000000000000000000000000001",
                    "revert": false,
                    "revertMessage": "",
                    "selector": "0xa9059cbb",
                    "status": true,
                    "value": "0"
                },
                "nodeType": 0
            },
            "1": {
                "event": {
                    "contract": "0x6368e1e18c4c419ddfc608a0bed1ccb87b9250fc",
                    "decodedLog": {
                        "name": "Transfer",
                        "params": [
                            {
                                "name": "from",
                                "type": "address",
                                "value": "0x72e5263ff33d2494692d7f94a758aa9f82062f73"
                            },
                            {
                                "name": "to",
                                "type": "address",
                                "value": "0x01ab65366a16ffa6a04ee1426f0c9b7c56fb80a3"
                            },
                            {
                                "decimalAvailable": true,
                                "name": "value",
                                "type": "uint256",
                                "value": "889,191,117,500,000,000,000,000"
                            }
                        ],
                        "signature": "Transfer(address,address,uint256)"
                    },
                    "id": 1,
                    "logData": "0x00000000000000000000000000000000000000000000bc4b25a635cc9e57c000",
                    "logDecoded": true,
                    "operation": "EVENT",
                    "revert": false,
                    "status": true,
                    "topics": [
                        "0xddf252ad1be2c89b69c2b068fc378daa952ba7f163c4a11628f55a4df523b3ef",
                        "0x00000000000000000000000072e5263ff33d2494692d7f94a758aa9f82062f73",
                        "0x00000000000000000000000001ab65366a16ffa6a04ee1426f0c9b7c56fb80a3"
                    ]
                },
                "nodeType": 1
            }
        },
        "gasFlame": [
            {
                "children": [
                    {
                        "children": [
                            {
                                "children": [],
                                "depth": 0,
                                "name": "Initial Gas",
                                "value": 21668
                            },
                            {
                                "children": [],
                                "depth": 0,
                                "name": "Executed Gas",
                                "value": 30271
                            }
                        ],
                        "depth": -1,
                        "name": "Actual Gas Used",
                        "value": 51939
                    },
                    {
                        "children": [],
                        "depth": -1,
                        "name": "Refunded Gas",
                        "value": 0
                    }
                ],
                "depth": -2,
                "name": "Total Gas",
                "value": 51939
            }
        ],
        "isConfirmed": true,
        "mainTrace": [
            {
                "children": [
                    {
                        "children": [
                            {
                                "children": [],
                                "depth": 1,
                                "id": 1,
                                "order": 1
                            }
                        ],
                        "depth": 0,
                        "id": 0,
                        "order": 0
                    }
                ],
                "depth": -1,
                "id": -1,
                "order": -1
            }
        ],
        "mainTraceNodeCount": 2,
        "parentIdMap": {
            "0": -1,
            "1": 0
        },
        "tidyTrace": [
            {
                "children": [
                    {
                        "children": [
                            {
                                "children": [],
                                "depth": 1,
                                "id": 1,
                                "order": 1
                            }
                        ],
                        "depth": 0,
                        "id": 0,
                        "order": 0
                    }
                ],
                "depth": -1,
                "id": -1,
                "order": -1
            }
        ],
        "tidyTraceNodeCount": 2
    },
    "state_change": {
        "stateChanges": [
            {
                "address": "0x6368e1e18c4c419ddfc608a0bed1ccb87b9250fc",
                "erc": "ERC-20",
                "slots": [
                    {
                        "current": "0x00000000000000000000000000000000000000000008047b5017ae5755a70313",
                        "key": "0x8f060a7e8fbfb20e8b3f45562d6bedf7d45f0ad0ebd2a48934eaa558cfd6fd54",
                        "prev": "0x00000000000000000000000000000000000000000008c0c675bde423f3fec313"
                    },
                    {
                        "current": "0x00000000000000000000000000000000000000000000bc4b25a635cc9e57c000",
                        "key": "0xcb6f9a98e4d839e0c9c2eac17898d3e504d3aa225a5fc85086f08153493a6e04",
                        "prev": "0x0000000000000000000000000000000000000000000000000000000000000000"
                    }
                ],
                "storageVariables": [
                    {
                        "name": "_balances",
                        "type": "mapping(address => uint256)",
                        "value": {
                            "pairs": [
                                {
                                    "key": "0x01ab65366a16ffa6a04ee1426f0c9b7c56fb80a3",
                                    "value": {
                                        "current": "889191117500000000000000",
                                        "prev": "0",
                                        "typeTag": 1
                                    }
                                },
                                {
                                    "key": "0x72e5263ff33d2494692d7f94a758aa9f82062f73",
                                    "value": {
                                        "current": "9692570743642715874329363",
                                        "prev": "10581761861142715874329363",
                                        "typeTag": 1
                                    }
                                }
                            ],
                            "typeTag": 4
                        }
                    }
                ]
            }
        ]
    }
}