{
    "balance_change": {
        "balanceChanges": [
            {
                "account": "0x4b9e0d224dabcc96191cace2d367a8d8b75c9c81",
                "assets": [
                    {
                        "address": "0xeeeeeeeeeeeeeeeeeeeeeeeeeeeeeeeeeeeeeeee",
                        "amount": "0.001026",
                        "iconUrl": "https://assets.blocksec.com/image/1663669189317-3.png",
                        "isERC1155": false,
                        "isERC721": false,
                        "sign": false,
                        "value": ""
                    }
                ]
            },
            {
                "account": "0x252245491e523281d36763bfdc282fa1655130cf",
                "assets": [
                    {
                        "address": "0xeeeeeeeeeeeeeeeeeeeeeeeeeeeeeeeeeeeeeeee",
                        "amount": "0.001026",
                        "iconUrl": "https://assets.blocksec.com/image/1663669189317-3.png",
                        "isERC1155": false,
                        "isERC721": false,
                        "sign": true,
                        "value": ""
                    }
                ]
            }
        ]
    },
    "profile": {
        "basic_info": {
            "baseFee": "",
            "blockNumber": 3796880,
            "callData": "0xc8ee0c6b000000000000000000000000252245491e523281d36763bfdc282fa1655130cf0000000000000000000000000000000000000000000000000003a5243d8a20007375625f4168664f316133537a56535851700000000000000000000000000000000000000000000000000000000000000000000000000000000000000000008000000000000000000000000000000000000000000000000000000000000000066661756365740000000000000000000000000000000000000000000000000000",
            "debugEnable": true,
            "errorInfo": "",
            "eventCount": 1,
            "feeRecipient": "0xb2930b35844a230f00e51431acae96fe543a0347",
            "formatValue": "0",
            "gasLimit": 100000,
            "gasPrice": "2",
            "gasUsed": 71485,
            "intTxnCount": 3,
            "internalRevert": false,
            "internalRevertMessage": "",
            "isContractCreation": false,
            "isFlashloan": false,
            "maxFee": "",
            "nonce": 80,
            "overwritedBlockNumber": -1,
            "priorityFee": "",
            "receiver": "0x4b9e0d224dabcc96191cace2d367a8d8b75c9c81",
            "revertMessage": "",
            "sender": "0x3c540be890df69eca5f0099bbedd5d667bd693f3",
            "simulationEnable": true,
            "sourceTxnHash": "0x823174a147f1f81adc6ed91ab617f3a750e69b492c9669e8996ddcb8b852a015",
            "status": true,
            "timestamp": "2017-05-31T06:40:30Z",
            "transactionFee": "0.00014297",
            "txnHash": "0x823174a147f1f81adc6ed91ab617f3a750e69b492c9669e8996ddcb8b852a015",
            "txnIndex": 24,
            "type": 0,
            "value": "0"
        },
        "fund_flow": [
            {
                "amount": "0.001026",
                "from": "0x4b9e0d224dabcc96191cace2d367a8d8b75c9c81",
                "id": 1,
                "isERC1155": false,
                "isERC721": false,
                "isReverted": false,
                "order": 1,
                "to": "0x252245491e523281d36763bfdc282fa1655130cf",
                "token": "0xeeeeeeeeeeeeeeeeeeeeeeeeeeeeeeeeeeeeeeee"
            }
        ],
        "token_infos": [
            {
                "address": "0xc02aaa39b223fe8d0a0e5c4f27ead9083c756cc2",
                "decimals": 18
            },
            {
                "address": "0xeeeeeeeeeeeeeeeeeeeeeeeeeeeeeeeeeeeeeeee",
                "decimals": 18
            }
        ]
    },
    "address_label": {
        "labels": [
            {
                "address": "0xeeeeeeeeeeeeeeeeeeeeeeeeeeeeeeeeeeeeeeee",
                "label": "Ether"
            },
            {
                "address": "0x0000000000000000000000000000000000000004",
                "label": "Precompiled"
            },
            {
                "address": "0x0000000000000000000000000000000000000001",
                "label": "Precompiled"
            },
            {
                "address": "0x0000000000000000000000000000000000000002",
                "label": "Precompiled"
            },
            {
                "address": "0x0000000000000000000000000000000000000003",
                "label": "Precompiled"
            }
        ]
    },
    "trace": {
        "accountLabels": null,
        "dataMap": {
            "-1": {
                "invocation": {
                    "address": "0x3c540be890df69eca5f0099bbedd5d667bd693f3",
                    "callData": "",
                    "decodedMethod": null,
                    "errorInfo": "",
                    "fromAddress": "",
                    "gasUsed": 0,
                    "id": -1,
                    "methodDecoded": false,
                    "operation": "",
                    "output": "",
                    "revert": false,
                    "revertMessage": "",
                    "selector": "",
                    "status": false,
                    "value": ""
                },
                "nodeType": 0
            },
            "0": {
                "invocation": {
                    "address": "0x4b9e0d224dabcc96191cace2d367a8d8b75c9c81",
                    "callData": "0x000000000000000000000000252245491e523281d36763bfdc282fa1655130cf0000000000000000000000000000000000000000000000000003a5243d8a20007375625f4168664f316133537a56535851700000000000000000000000000000000000000000000000000000000000000000000000000000000000000000008000000000000000000000000000000000000000000000000000000000000000066661756365740000000000000000000000000000000000000000000000000000",
                    "decodedMethod": null,
                    "errorInfo": "",
                    "fromAddress": "0x3c540be890df69eca5f0099bbedd5d667bd693f3",
                    "gasUsed": 71485,
                    "id": 0,
                    "methodDecoded": false,
                    "operation": "CALL",
                    "output": "0x0000000000000000000000000000000000000000000000000000000000000001",
                    "revert": false,
                    "revertMessage": "",
                    "selector": "0xc8ee0c6b",
                    "status": true,
                    "value": "0"
                },
                "nodeType": 0
            },
            "1": {
                "invocation": {
                    "address": "0xce81bc335ec2818b5926299ab65b7f2a7d882208",
                    "callData": "0x747265617375727900000000000000000000000000000000000000000000000066617563657400000000000000000000000000000000000000000000000000000000000000000000000000003c540be890df69eca5f0099bbedd5d667bd693f3",
                    "decodedMethod": null,
                    "errorInfo": "",
                    "fromAddress": "0x4b9e0d224dabcc96191cace2d367a8d8b75c9c81",
                    "gasUsed": 6702,
                    "id": 1,
                    "methodDecoded": false,
                    "operation": "CALL",
                    "output": "0x0000000000000000000000000000000000000000000000000000000000000001",
                    "revert": false,
                    "revertMessage": "",
                    "selector": "0xa1add510",
                    "status": true,
                    "value": "0"
                },
                "nodeType": 0
            },
            "2": {
                "invocation": {
                    "address": "0x252245491e523281d36763bfdc282fa1655130cf",
                    "callData": "0x",
                    "decodedMethod": null,
                    "errorInfo": "",
                    "fromAddress": "0x4b9e0d224dabcc96191cace2d367a8d8b75c9c81",
                    "gasUsed": 0,
                    "id": 2,
                    "methodDecoded": false,
                    "operation": "CALL",
                    "output": "",
                    "revert": false,
                    "revertMessage": "",
                    "selector": "fallback",
                    "status": true,
                    "value": "0.001026"
                },
                "nodeType": 0
            },
            "3": {
                "invocation": {
                    "address": "0x0000000000000000000000000000000000000004",
                    "callData": "0x6574",
                    "decodedMethod": {
                        "callParams": [
                            {
                                "name": "data",
                                "type": "bytes",
                                "value": "0x666175636574"
                            }
                        ],
                        "constructorArguments": "",
                        "name": "dataCopy()",
                        "returnParams": [
                            {
                                "name": "data",
                                "type": "bytes",
                                "value": "0x666175636574"
                            }
                        ],
                        "signature": "dataCopy(bytes)"
                    },
                    "errorInfo": "",
                    "fromAddress": "0x4b9e0d224dabcc96191cace2d367a8d8b75c9c81",
                    "gasUsed": 18,
                    "id": 3,
                    "methodDecoded": true,
                    "operation": "CALL",
                    "output": "0x666175636574",
                    "revert": false,
                    "revertMessage": "",
                    "selector": "0x66617563",
                    "status": true,
                    "value": "0"
                },
                "nodeType": 0
            },
            "4": {
                "event": {
                    "contract": "0x4b9e0d224dabcc96191cace2d367a8d8b75c9c81",
                    "decodedLog": null,
                    "id": 4,
                    "logData": "0x0000000000000000000000000000000000000000000000000003a5243d8a2000000000000000000000000000000000000000000000000000000000000000004000000000000000000000000000000000000000000000000000000000000000066661756365740000000000000000000000000000000000000000000000000000",
                    "logDecoded": false,
                    "operation": "EVENT",
                    "revert": false,
                    "status": true,
                    "topics": [
                        "0xae7443ddaf98d964198bed69ffecbbdeea67363d04c21a72f94bcb1a10fae229",
                        "0x0000000000000000000000003c540be890df69eca5f0099bbedd5d667bd693f3",
                        "0x000000000000000000000000252245491e523281d36763bfdc282fa1655130cf",
                        "0x7375625f4168664f316133537a56535851700000000000000000000000000000"
                    ]
                },
                "nodeType": 1
            }
        },
        "gasFlame": [
            {
                "children": [
                    {
                        "children": [
                            {
                                "children": [],
                                "depth": 0,
                                "name": "Initial Gas",
                                "value": 25368
                            },
                            {
                                "children": [
                                    {
                                        "children": [],
                                        "depth": 1,
                                        "name": "0xa1add510",
                                        "value": 6702
                                    },
                                    {
                                        "children": [],
                                        "depth": 1,
                                        "name": "fallback",
                                        "value": 0
                                    },
                                    {
                                        "children": [],
                                        "depth": 1,
                                        "name": "dataCopy()",
                                        "value": 18
                                    }
                                ],
                                "depth": 0,
                                "name": "Executed Gas",
                                "value": 46117
                            }
                        ],
                        "depth": -1,
                        "name": "Actual Gas Used",
                        "value": 71485
                    },
                    {
                        "children": [],
                        "depth": -1,
                        "name": "Refunded Gas",
                        "value": 0
                    }
                ],
                "depth": -2,
                "name": "Total Gas",
                "value": 71485
            }
        ],
        "isConfirmed": true,
        "mainTrace": [
            {
                "children": [
                    {
                        "children": [
                            {
                                "children": [],
                                "depth": 1,
                                "id": 1,
                                "order": 1
                            },
                            {
                                "children": [],
                                "depth": 1,
                                "id": 2,
                                "order": 2
                            },
                            {
                                "children": [],
                                "depth": 1,
                                "id": 3,
                                "order": 3
                            },
                            {
                                "children": [],
                                "depth": 1,
                                "id": 4,
                                "order": 4
                            }
                        ],
                        "depth": 0,
                        "id": 0,
                        "order": 0
                    }
                ],
                "depth": -1,
                "id": -1,
                "order": -1
            }
        ],
        "mainTraceNodeCount": 5,
        "parentIdMap": {
            "0": -1,
            "1": 0,
            "2": 0,
            "3": 0,
            "4": 0
        },
        "tidyTrace": [
            {
                "children": [
                    {
                        "children": [
                            {
                                "children": [],
                                "depth": 1,
                                "id": 1,
                                "order": 1
                            },
                            {
                                "children": [],
                                "depth": 1,
                                "id": 2,
                                "order": 2
                            },
                            {
                                "children": [],
                                "depth": 1,
                                "id": 3,
                                "order": 3
                            },
                            {
                                "children": [],
                                "depth": 1,
                                "id": 4,
                                "order": 4
                            }
                        ],
                        "depth": 0,
                        "id": 0,
                        "order": 0
                    }
                ],
                "depth": -1,
                "id": -1,
                "order": -1
            }
        ],
        "tidyTraceNodeCount": 5
    },
    "state_change": {
        "stateChanges": []
    }
}