{
    "balance_change": {
        "balanceChanges": [
            {
                "account": "0xca12c6aad9e893171c37921bb76770a76afec3f4",
                "assets": [
                    {
                        "address": "0x007ac2f589eb9d4fe1cea9f46b5f4f52dab73dd4",
                        "amount": "33,669,600,000,000",
                        "iconUrl": "",
                        "isERC1155": false,
                        "isERC721": false,
                        "sign": false,
                        "value": ""
                    }
                ]
            },
            {
                "account": "0xbf9fcaa1ce26b1d105ef7320d5c3bf9c2bdd6ea6",
                "assets": [
                    {
                        "address": "0x007ac2f589eb9d4fe1cea9f46b5f4f52dab73dd4",
                        "amount": "33,669,600,000,000",
                        "iconUrl": "",
                        "isERC1155": false,
                        "isERC721": false,
                        "sign": true,
                        "value": ""
                    }
                ]
            }
        ]
    },
    "profile": {
        "basic_info": {
            "baseFee": "",
            "blockNumber": 6700518,
            "callData": "0xa9059cbb000000000000000000000000bf9fcaa1ce26b1d105ef7320d5c3bf9c2bdd6ea600000000000000000000000000000000000000000000000000001e9f508c3800",
            "debugEnable": true,
            "errorInfo": "",
            "eventCount": 1,
            "feeRecipient": "0x5a0b54d5dc17e0aadc383d2db43b0a0d3e029c4c",
            "formatValue": "0",
            "gasLimit": 55000,
            "gasPrice": "21",
            "gasUsed": 52553,
            "intTxnCount": 0,
            "internalRevert": false,
            "internalRevertMessage": "",
            "isContractCreation": false,
            "isFlashloan": false,
            "maxFee": "",
            "nonce": 1,
            "overwritedBlockNumber": -1,
            "priorityFee": "",
            "receiver": "0x007ac2f589eb9d4fe1cea9f46b5f4f52dab73dd4",
            "revertMessage": "",
            "sender": "0xca12c6aad9e893171c37921bb76770a76afec3f4",
            "simulationEnable": true,
            "sourceTxnHash": "0x821d21a8bc30b819fe98711e85c1f763c466a248c99862d49c72d2ae448f8e88",
            "status": true,
            "timestamp": "2018-11-14T02:54:00Z",
            "transactionFee": "0.001103613",
            "txnHash": "0x821d21a8bc30b819fe98711e85c1f763c466a248c99862d49c72d2ae448f8e88",
            "txnIndex": 3,
            "type": 0,
            "value": "0"
        },
        "fund_flow": [
            {
                "amount": "33,669,600,000,000",
                "from": "0xca12c6aad9e893171c37921bb76770a76afec3f4",
                "id": 1,
                "isERC1155": false,
                "isERC721": false,
                "isReverted": false,
                "order": 1,
                "to": "0xbf9fcaa1ce26b1d105ef7320d5c3bf9c2bdd6ea6",
                "token": "0x007ac2f589eb9d4fe1cea9f46b5f4f52dab73dd4"
            }
        ],
        "token_infos": [
            {
                "address": "0xc02aaa39b223fe8d0a0e5c4f27ead9083c756cc2",
                "decimals": 18
            },
            {
                "address": "0xeeeeeeeeeeeeeeeeeeeeeeeeeeeeeeeeeeeeeeee",
                "decimals": 18
            }
        ]
    },
    "address_label": {
        "labels": [
            {
                "address": "0xeeeeeeeeeeeeeeeeeeeeeeeeeeeeeeeeeeeeeeee",
                "label": "Ether"
            },
            {
                "address": "0x007ac2f589eb9d4fe1cea9f46b5f4f52dab73dd4",
                "label": "SKWToken"
            },
            {
                "address": "0x0000000000000000000000000000000000000001",
                "label": "Precompiled"
            },
            {
                "address": "0x0000000000000000000000000000000000000002",
                "label": "Precompiled"
            },
            {
                "address": "0x0000000000000000000000000000000000000003",
                "label": "Precompiled"
            },
            {
                "address": "0x0000000000000000000000000000000000000004",
                "label": "Precompiled"
            }
        ]
    },
    "trace": {
        "accountLabels": null,
        "dataMap": {
            "-1": {
                "invocation": {
                    "address": "0xca12c6aad9e893171c37921bb76770a76afec3f4",
                    "callData": "",
                    "decodedMethod": null,
                    "errorInfo": "",
                    "fromAddress": "",
                    "gasUsed": 0,
                    "id": -1,
                    "methodDecoded": false,
                    "operation": "",
                    "output": "",
                    "revert": false,
                    "revertMessage": "",
                    "selector": "",
                    "status": false,
                    "value": ""
                },
                "nodeType": 0
            },
            "0": {
                "invocation": {
                    "address": "0x007ac2f589eb9d4fe1cea9f46b5f4f52dab73dd4",
                    "callData": "0x000000000000000000000000bf9fcaa1ce26b1d105ef7320d5c3bf9c2bdd6ea600000000000000000000000000000000000000000000000000001e9f508c3800",
                    "decodedMethod": {
                        "callParams": [
                            {
                                "name": "_to",
                                "type": "address",
                                "value": "0xbf9fcaa1ce26b1d105ef7320d5c3bf9c2bdd6ea6"
                            },
                            {
                                "decimalAvailable": true,
                                "name": "_value",
                                "type": "uint256",
                                "value": "33,669,600,000,000"
                            }
                        ],
                        "constructorArguments": "",
                        "name": "transfer",
                        "returnParams": [
                            {
                                "name": "success",
                                "type": "bool",
                                "value": true
                            }
                        ],
                        "signature": "transfer(address,uint256)"
                    },
                    "errorInfo": "",
                    "fromAddress": "0xca12c6aad9e893171c37921bb76770a76afec3f4",
                    "gasUsed": 52553,
                    "id": 0,
                    "methodDecoded": true,
                    "operation": "CALL",
                    "output": "0x0000000000000000000000000000000000000000000000000000000000000001",
                    "revert": false,
                    "revertMessage": "",
                    "selector": "0xa9059cbb",
                    "status": true,
                    "value": "0"
                },
                "nodeType": 0
            },
            "1": {
                "event": {
                    "contract": "0x007ac2f589eb9d4fe1cea9f46b5f4f52dab73dd4",
                    "decodedLog": {
                        "name": "Transfer",
                        "params": [
                            {
                                "name": "_from",
                                "type": "address",
                                "value": "0xca12c6aad9e893171c37921bb76770a76afec3f4"
                            },
                            {
                                "name": "_to",
                                "type": "address",
                                "value": "0xbf9fcaa1ce26b1d105ef7320d5c3bf9c2bdd6ea6"
                            },
                            {
                                "decimalAvailable": true,
                                "name": "_value",
                                "type": "uint256",
                                "value": "33,669,600,000,000"
                            }
                        ],
                        "signature": "Transfer(address,address,uint256)"
                    },
                    "id": 1,
                    "logData": "0x00000000000000000000000000000000000000000000000000001e9f508c3800",
                    "logDecoded": true,
                    "operation": "EVENT",
                    "revert": false,
                    "status": true,
                    "topics": [
                        "0xddf252ad1be2c89b69c2b068fc378daa952ba7f163c4a11628f55a4df523b3ef",
                        "0x000000000000000000000000ca12c6aad9e893171c37921bb76770a76afec3f4",
                        "0x000000000000000000000000bf9fcaa1ce26b1d105ef7320d5c3bf9c2bdd6ea6"
                    ]
                },
                "nodeType": 1
            }
        },
        "gasFlame": [
            {
                "children": [
                    {
                        "children": [
                            {
                                "children": [],
                                "depth": 0,
                                "name": "Initial Gas",
                                "value": 23128
                            },
                            {
                                "children": [],
                                "depth": 0,
                                "name": "Executed Gas",
                                "value": 29425
                            }
                        ],
                        "depth": -1,
                        "name": "Actual Gas Used",
                        "value": 52553
                    },
                    {
                        "children": [],
                        "depth": -1,
                        "name": "Refunded Gas",
                        "value": 0
                    }
                ],
                "depth": -2,
                "name": "Total Gas",
                "value": 52553
            }
        ],
        "isConfirmed": true,
        "mainTrace": [
            {
                "children": [
                    {
                        "children": [
                            {
                                "children": [],
                                "depth": 1,
                                "id": 1,
                                "order": 1
                            }
                        ],
                        "depth": 0,
                        "id": 0,
                        "order": 0
                    }
                ],
                "depth": -1,
                "id": -1,
                "order": -1
            }
        ],
        "mainTraceNodeCount": 2,
        "parentIdMap": {
            "0": -1,
            "1": 0
        },
        "tidyTrace": [
            {
                "children": [
                    {
                        "children": [
                            {
                                "children": [],
                                "depth": 1,
                                "id": 1,
                                "order": 1
                            }
                        ],
                        "depth": 0,
                        "id": 0,
                        "order": 0
                    }
                ],
                "depth": -1,
                "id": -1,
                "order": -1
            }
        ],
        "tidyTraceNodeCount": 2
    },
    "state_change": {
        "stateChanges": [
            {
                "address": "0x007ac2f589eb9d4fe1cea9f46b5f4f52dab73dd4",
                "erc": "ERC-20",
                "slots": [
                    {
                        "current": "0x00000000000000000000000000000000000000000000000000001e9f508c3800",
                        "key": "0x53225de207e476b5d7f8b4408a6d00714784b1870c9b8903eb925849cdb054a4",
                        "prev": "0x0000000000000000000000000000000000000000000000000000000000000000"
                    },
                    {
                        "current": "0x000000000000000000000000000000000000000000000000000000000642daaf",
                        "key": "0xb649c131bee508715962ef1ff015056ff4e2b06e5ccd90157a480a0329b69777",
                        "prev": "0x00000000000000000000000000000000000000000000000000001e9f56cf12af"
                    }
                ],
                "storageVariables": [
                    {
                        "name": "balanceOf",
                        "type": "mapping(address => uint256)",
                        "value": {
                            "pairs": [
                                {
                                    "key": "0xbf9fcaa1ce26b1d105ef7320d5c3bf9c2bdd6ea6",
                                    "value": {
                                        "current": "33669600000000",
                                        "prev": "0",
                                        "typeTag": 1
                                    }
                                },
                                {
                                    "key": "0xca12c6aad9e893171c37921bb76770a76afec3f4",
                                    "value": {
                                        "current": "105044655",
                                        "prev": "33669705044655",
                                        "typeTag": 1
                                    }
                                }
                            ],
                            "typeTag": 4
                        }
                    }
                ]
            }
        ]
    }
}