{
    "balance_change": {
        "balanceChanges": [
            {
                "account": "0xc420c9d507d0e038bd76383aaadcad576ed0073c",
                "assets": [
                    {
                        "address": "0xd533a949740bb3306d119cc777fa900ba034cd52",
                        "amount": "4,000,000",
                        "iconUrl": "",
                        "isERC1155": false,
                        "isERC721": false,
                        "sign": false,
                        "value": "1851273.52"
                    }
                ]
            },
            {
                "account": "0x2ba80b37e0bef5c92a0c3cb780f8583372d773ac",
                "assets": [
                    {
                        "address": "0xd533a949740bb3306d119cc777fa900ba034cd52",
                        "amount": "2,000,000",
                        "iconUrl": "",
                        "isERC1155": false,
                        "isERC721": false,
                        "sign": true,
                        "value": "925636.76"
                    }
                ]
            },
            {
                "account": "0x637351b0a32bc7bb7f6a19686a76d84233710ad9",
                "assets": [
                    {
                        "address": "0xd533a949740bb3306d119cc777fa900ba034cd52",
                        "amount": "2,000,000",
                        "iconUrl": "",
                        "isERC1155": false,
                        "isERC721": false,
                        "sign": true,
                        "value": "925636.76"
                    }
                ]
            }
        ]
    },
    "profile": {
        "basic_info": {
            "baseFee": "19.170800311",
            "blockNumber": 17983877,
            "callData": "0x6a76120200000000000000000000000040a2accbd92bca938b02010e17a5b8929b49130d0000000000000000000000000000000000000000000000000000000000000000000000000000000000000000000000000000000000000000000000000000014000000000000000000000000000000000000000000000000000000000000000010000000000000000000000000000000000000000000000000000000000013a5b0000000000000000000000000000000000000000000000000000000000000000000000000000000000000000000000000000000000000000000000000000000000000000000000000000000000000000000000000000000000000000000000000000000000000000000000000000000000000000000000000000000000000000000000000000000000000000000000000000000000000000000000000000030000000000000000000000000000000000000000000000000000000000000001848d80ff0a0000000000000000000000000000000000000000000000000000000000000020000000000000000000000000000000000000000000000000000000000000013200d533a949740bb3306d119cc777fa900ba034cd5200000000000000000000000000000000000000000000000000000000000000000000000000000000000000000000000000000000000000000000000000000044a9059cbb0000000000000000000000002ba80b37e0bef5c92a0c3cb780f8583372d773ac00000000000000000000000000000000000000000001a784379d99db4200000000d533a949740bb3306d119cc777fa900ba034cd5200000000000000000000000000000000000000000000000000000000000000000000000000000000000000000000000000000000000000000000000000000044a9059cbb000000000000000000000000637351b0a32bc7bb7f6a19686a76d84233710ad900000000000000000000000000000000000000000001a784379d99db420000000000000000000000000000000000000000000000000000000000000000000000000000000000000000000000000000000000000000000000000000000000000000000000000000000186dcbc69eccab9a07cbcba49d69b8372598881badb416d878b38ae9a8fa10c88b75b09c4156d3d4e0b820ea2670fcccdcc155745571eaf7c73a7980cc9ae2e913d1c954bb4f294bd83cd957d7c5697921fa6fd5fbf479fcd18f1a34367d2dbecfe170439ba7f6cf148f2eb90dcef0d2cacf9b784c24a6a20a8dda53172f661af64191c315893bcfb293e332aedc5e7688cf0782e24ba67fab1a38cc6f45c634c3cbbdc058ad0ec72ac330f49aef14afb50be41c83e5ae2dfba52fe0d27861126514a321c5f90b09e0910150d319c8089425336b9f56422604dc77ea5060380ee23094015328e5159846c76c585c18b757e55870c86829cac3eee77a4a8673fa1cd4c13f21ccc1b12ea56d1e2fc1a67e8a629f71aa5601ba0281627a6da76a65535ecc56ff8319c9d9e306600a4144d0e9202cef3b1ac77b7157b6823142584580d101108e31b000000000000000000000000f7bd34dd44b92fb2f9c3d2e31aaad06570a853a60000000000000000000000000000000000000000000000000000000000000000010000000000000000000000000000000000000000000000000000",
            "debugEnable": true,
            "errorInfo": "",
            "eventCount": 3,
            "feeRecipient": "0xe8ae3f2bfed29d02fe10d453c7098a73b9a2747c",
            "formatValue": "0",
            "gasLimit": 168007,
            "gasPrice": "20.670800311",
            "gasUsed": 127947,
            "intTxnCount": 9,
            "internalRevert": false,
            "internalRevertMessage": "",
            "isContractCreation": false,
            "isFlashloan": false,
            "maxFee": "40.28869263",
            "nonce": 691,
            "overwritedBlockNumber": -1,
            "priorityFee": "1.5",
            "receiver": "0xc420c9d507d0e038bd76383aaadcad576ed0073c",
            "revertMessage": "",
            "sender": "0xf7bd34dd44b92fb2f9c3d2e31aaad06570a853a6",
            "simulationEnable": true,
            "sourceTxnHash": "0x82d367cd3fc3d7aaf0f74cb08dc4e031d6ca8d044469f09abf684fd28c56fdd2",
            "status": true,
            "timestamp": "2023-08-24T10:10:23Z",
            "transactionFee": "0.002644766887391517",
            "txnHash": "0x82d367cd3fc3d7aaf0f74cb08dc4e031d6ca8d044469f09abf684fd28c56fdd2",
            "txnIndex": 28,
            "type": 2,
            "value": "0"
        },
        "fund_flow": [
            {
                "amount": "2,000,000",
                "from": "0xc420c9d507d0e038bd76383aaadcad576ed0073c",
                "id": 1,
                "isERC1155": false,
                "isERC721": false,
                "isReverted": false,
                "order": 1,
                "to": "0x2ba80b37e0bef5c92a0c3cb780f8583372d773ac",
                "token": "0xd533a949740bb3306d119cc777fa900ba034cd52"
            },
            {
                "amount": "2,000,000",
                "from": "0xc420c9d507d0e038bd76383aaadcad576ed0073c",
                "id": 2,
                "isERC1155": false,
                "isERC721": false,
                "isReverted": false,
                "order": 2,
                "to": "0x637351b0a32bc7bb7f6a19686a76d84233710ad9",
                "token": "0xd533a949740bb3306d119cc777fa900ba034cd52"
            }
        ],
        "token_infos": [
            {
                "address": "0xeeeeeeeeeeeeeeeeeeeeeeeeeeeeeeeeeeeeeeee",
                "decimals": 18
            },
            {
                "address": "0xc02aaa39b223fe8d0a0e5c4f27ead9083c756cc2",
                "decimals": 18
            },
            {
                "address": "0xd533a949740bb3306d119cc777fa900ba034cd52",
                "decimals": 18
            }
        ]
    },
    "address_label": {
        "labels": [
            {
                "address": "0xc420c9d507d0e038bd76383aaadcad576ed0073c",
                "label": "Curve.fi: Grant Council Multisig"
            },
            {
                "address": "0x0000000000000000000000000000000000000000",
                "label": "Null Address"
            },
            {
                "address": "0x0000000000000000000000000000000000000001",
                "label": "Precompiled"
            },
            {
                "address": "0x0000000000000000000000000000000000000002",
                "label": "Precompiled"
            },
            {
                "address": "0x637351b0a32bc7bb7f6a19686a76d84233710ad9",
                "label": "GnosisSafeProxy_6373_0ad9"
            },
            {
                "address": "0x2ba80b37e0bef5c92a0c3cb780f8583372d773ac",
                "label": "GnosisSafeProxy_2ba8_73ac"
            },
            {
                "address": "0x34cfac646f301356faa8b21e94227e3583fe3f5f",
                "label": "Safe: Mastercopy 1.1.1"
            },
            {
                "address": "0xd533a949740bb3306d119cc777fa900ba034cd52",
                "label": "Curve.fi: CRV Token"
            },
            {
                "address": "0x0000000000000000000000000000000000000003",
                "label": "Precompiled"
            },
            {
                "address": "0x0000000000000000000000000000000000000004",
                "label": "Precompiled"
            },
            {
                "address": "0xeeeeeeeeeeeeeeeeeeeeeeeeeeeeeeeeeeeeeeee",
                "label": "Ether"
            },
            {
                "address": "0x40a2accbd92bca938b02010e17a5b8929b49130d",
                "label": "Safe: Multi Send Call Only 1.3.0"
            }
        ]
    },
    "trace": {
        "accountLabels": null,
        "dataMap": {
            "-1": {
                "invocation": {
                    "address": "0xf7bd34dd44b92fb2f9c3d2e31aaad06570a853a6",
                    "callData": "",
                    "decodedMethod": null,
                    "errorInfo": "",
                    "fromAddress": "",
                    "gasUsed": 0,
                    "id": -1,
                    "methodDecoded": false,
                    "operation": "",
                    "output": "",
                    "revert": false,
                    "revertMessage": "",
                    "selector": "",
                    "status": false,
                    "value": ""
                },
                "nodeType": 0
            },
            "0": {
                "invocation": {
                    "address": "0xc420c9d507d0e038bd76383aaadcad576ed0073c",
                    "callData": "0x00000000000000000000000040a2accbd92bca938b02010e17a5b8929b49130d0000000000000000000000000000000000000000000000000000000000000000000000000000000000000000000000000000000000000000000000000000014000000000000000000000000000000000000000000000000000000000000000010000000000000000000000000000000000000000000000000000000000013a5b0000000000000000000000000000000000000000000000000000000000000000000000000000000000000000000000000000000000000000000000000000000000000000000000000000000000000000000000000000000000000000000000000000000000000000000000000000000000000000000000000000000000000000000000000000000000000000000000000000000000000000000000000000030000000000000000000000000000000000000000000000000000000000000001848d80ff0a0000000000000000000000000000000000000000000000000000000000000020000000000000000000000000000000000000000000000000000000000000013200d533a949740bb3306d119cc777fa900ba034cd5200000000000000000000000000000000000000000000000000000000000000000000000000000000000000000000000000000000000000000000000000000044a9059cbb0000000000000000000000002ba80b37e0bef5c92a0c3cb780f8583372d773ac00000000000000000000000000000000000000000001a784379d99db4200000000d533a949740bb3306d119cc777fa900ba034cd5200000000000000000000000000000000000000000000000000000000000000000000000000000000000000000000000000000000000000000000000000000044a9059cbb000000000000000000000000637351b0a32bc7bb7f6a19686a76d84233710ad900000000000000000000000000000000000000000001a784379d99db420000000000000000000000000000000000000000000000000000000000000000000000000000000000000000000000000000000000000000000000000000000000000000000000000000000186dcbc69eccab9a07cbcba49d69b8372598881badb416d878b38ae9a8fa10c88b75b09c4156d3d4e0b820ea2670fcccdcc155745571eaf7c73a7980cc9ae2e913d1c954bb4f294bd83cd957d7c5697921fa6fd5fbf479fcd18f1a34367d2dbecfe170439ba7f6cf148f2eb90dcef0d2cacf9b784c24a6a20a8dda53172f661af64191c315893bcfb293e332aedc5e7688cf0782e24ba67fab1a38cc6f45c634c3cbbdc058ad0ec72ac330f49aef14afb50be41c83e5ae2dfba52fe0d27861126514a321c5f90b09e0910150d319c8089425336b9f56422604dc77ea5060380ee23094015328e5159846c76c585c18b757e55870c86829cac3eee77a4a8673fa1cd4c13f21ccc1b12ea56d1e2fc1a67e8a629f71aa5601ba0281627a6da76a65535ecc56ff8319c9d9e306600a4144d0e9202cef3b1ac77b7157b6823142584580d101108e31b000000000000000000000000f7bd34dd44b92fb2f9c3d2e31aaad06570a853a60000000000000000000000000000000000000000000000000000000000000000010000000000000000000000000000000000000000000000000000",
                    "decodedMethod": {
                        "callParams": [
                            {
                                "name": "to",
                                "type": "address",
                                "value": "0x40a2accbd92bca938b02010e17a5b8929b49130d"
                            },
                            {
                                "name": "value",
                                "type": "uint256",
                                "value": "0"
                            },
                            {
                                "name": "data",
                                "type": "bytes",
                                "value": "0x8d80ff0a0000000000000000000000000000000000000000000000000000000000000020000000000000000000000000000000000000000000000000000000000000013200d533a949740bb3306d119cc777fa900ba034cd5200000000000000000000000000000000000000000000000000000000000000000000000000000000000000000000000000000000000000000000000000000044a9059cbb0000000000000000000000002ba80b37e0bef5c92a0c3cb780f8583372d773ac00000000000000000000000000000000000000000001a784379d99db4200000000d533a949740bb3306d119cc777fa900ba034cd5200000000000000000000000000000000000000000000000000000000000000000000000000000000000000000000000000000000000000000000000000000044a9059cbb000000000000000000000000637351b0a32bc7bb7f6a19686a76d84233710ad900000000000000000000000000000000000000000001a784379d99db420000000000000000000000000000000000"
                            },
                            {
                                "name": "operation",
                                "type": "uint8",
                                "value": "1"
                            },
                            {
                                "name": "safeTxGas",
                                "type": "uint256",
                                "value": "80,475"
                            },
                            {
                                "name": "baseGas",
                                "type": "uint256",
                                "value": "0"
                            },
                            {
                                "name": "gasPrice",
                                "type": "uint256",
                                "value": "0"
                            },
                            {
                                "name": "gasToken",
                                "type": "address",
                                "value": "0x0000000000000000000000000000000000000000"
                            },
                            {
                                "name": "refundReceiver",
                                "type": "address",
                                "value": "0x0000000000000000000000000000000000000000"
                            },
                            {
                                "name": "signatures",
                                "type": "bytes",
                                "value": "0xdcbc69eccab9a07cbcba49d69b8372598881badb416d878b38ae9a8fa10c88b75b09c4156d3d4e0b820ea2670fcccdcc155745571eaf7c73a7980cc9ae2e913d1c954bb4f294bd83cd957d7c5697921fa6fd5fbf479fcd18f1a34367d2dbecfe170439ba7f6cf148f2eb90dcef0d2cacf9b784c24a6a20a8dda53172f661af64191c315893bcfb293e332aedc5e7688cf0782e24ba67fab1a38cc6f45c634c3cbbdc058ad0ec72ac330f49aef14afb50be41c83e5ae2dfba52fe0d27861126514a321c5f90b09e0910150d319c8089425336b9f56422604dc77ea5060380ee23094015328e5159846c76c585c18b757e55870c86829cac3eee77a4a8673fa1cd4c13f21ccc1b12ea56d1e2fc1a67e8a629f71aa5601ba0281627a6da76a65535ecc56ff8319c9d9e306600a4144d0e9202cef3b1ac77b7157b6823142584580d101108e31b000000000000000000000000f7bd34dd44b92fb2f9c3d2e31aaad06570a853a6000000000000000000000000000000000000000000000000000000000000000001"
                            }
                        ],
                        "constructorArguments": "",
                        "name": "execTransaction",
                        "returnParams": [
                            {
                                "name": "success",
                                "type": "bool",
                                "value": true
                            }
                        ],
                        "signature": "execTransaction(address,uint256,bytes,uint8,uint256,uint256,uint256,address,address,bytes)"
                    },
                    "errorInfo": "",
                    "fromAddress": "0xf7bd34dd44b92fb2f9c3d2e31aaad06570a853a6",
                    "gasUsed": 127947,
                    "id": 0,
                    "methodDecoded": true,
                    "operation": "CALL",
                    "output": "0x0000000000000000000000000000000000000000000000000000000000000001",
                    "revert": false,
                    "revertMessage": "",
                    "selector": "0x6a761202",
                    "status": true,
                    "value": "0"
                },
                "nodeType": 0
            },
            "1": {
                "invocation": {
                    "address": "0x34cfac646f301356faa8b21e94227e3583fe3f5f",
                    "callData": "0x00000000000000000000000040a2accbd92bca938b02010e17a5b8929b49130d0000000000000000000000000000000000000000000000000000000000000000000000000000000000000000000000000000000000000000000000000000014000000000000000000000000000000000000000000000000000000000000000010000000000000000000000000000000000000000000000000000000000013a5b0000000000000000000000000000000000000000000000000000000000000000000000000000000000000000000000000000000000000000000000000000000000000000000000000000000000000000000000000000000000000000000000000000000000000000000000000000000000000000000000000000000000000000000000000000000000000000000000000000000000000000000000000000030000000000000000000000000000000000000000000000000000000000000001848d80ff0a0000000000000000000000000000000000000000000000000000000000000020000000000000000000000000000000000000000000000000000000000000013200d533a949740bb3306d119cc777fa900ba034cd5200000000000000000000000000000000000000000000000000000000000000000000000000000000000000000000000000000000000000000000000000000044a9059cbb0000000000000000000000002ba80b37e0bef5c92a0c3cb780f8583372d773ac00000000000000000000000000000000000000000001a784379d99db4200000000d533a949740bb3306d119cc777fa900ba034cd5200000000000000000000000000000000000000000000000000000000000000000000000000000000000000000000000000000000000000000000000000000044a9059cbb000000000000000000000000637351b0a32bc7bb7f6a19686a76d84233710ad900000000000000000000000000000000000000000001a784379d99db420000000000000000000000000000000000000000000000000000000000000000000000000000000000000000000000000000000000000000000000000000000000000000000000000000000186dcbc69eccab9a07cbcba49d69b8372598881badb416d878b38ae9a8fa10c88b75b09c4156d3d4e0b820ea2670fcccdcc155745571eaf7c73a7980cc9ae2e913d1c954bb4f294bd83cd957d7c5697921fa6fd5fbf479fcd18f1a34367d2dbecfe170439ba7f6cf148f2eb90dcef0d2cacf9b784c24a6a20a8dda53172f661af64191c315893bcfb293e332aedc5e7688cf0782e24ba67fab1a38cc6f45c634c3cbbdc058ad0ec72ac330f49aef14afb50be41c83e5ae2dfba52fe0d27861126514a321c5f90b09e0910150d319c8089425336b9f56422604dc77ea5060380ee23094015328e5159846c76c585c18b757e55870c86829cac3eee77a4a8673fa1cd4c13f21ccc1b12ea56d1e2fc1a67e8a629f71aa5601ba0281627a6da76a65535ecc56ff8319c9d9e306600a4144d0e9202cef3b1ac77b7157b6823142584580d101108e31b000000000000000000000000f7bd34dd44b92fb2f9c3d2e31aaad06570a853a60000000000000000000000000000000000000000000000000000000000000000010000000000000000000000000000000000000000000000000000",
                    "decodedMethod": {
                        "callParams": [
                            {
                                "name": "to",
                                "type": "address",
                                "value": "0x40a2accbd92bca938b02010e17a5b8929b49130d"
                            },
                            {
                                "name": "value",
                                "type": "uint256",
                                "value": "0"
                            },
                            {
                                "name": "data",
                                "type": "bytes",
                                "value": "0x8d80ff0a0000000000000000000000000000000000000000000000000000000000000020000000000000000000000000000000000000000000000000000000000000013200d533a949740bb3306d119cc777fa900ba034cd5200000000000000000000000000000000000000000000000000000000000000000000000000000000000000000000000000000000000000000000000000000044a9059cbb0000000000000000000000002ba80b37e0bef5c92a0c3cb780f8583372d773ac00000000000000000000000000000000000000000001a784379d99db4200000000d533a949740bb3306d119cc777fa900ba034cd5200000000000000000000000000000000000000000000000000000000000000000000000000000000000000000000000000000000000000000000000000000044a9059cbb000000000000000000000000637351b0a32bc7bb7f6a19686a76d84233710ad900000000000000000000000000000000000000000001a784379d99db420000000000000000000000000000000000"
                            },
                            {
                                "name": "operation",
                                "type": "uint8",
                                "value": "1"
                            },
                            {
                                "name": "safeTxGas",
                                "type": "uint256",
                                "value": "80,475"
                            },
                            {
                                "name": "baseGas",
                                "type": "uint256",
                                "value": "0"
                            },
                            {
                                "name": "gasPrice",
                                "type": "uint256",
                                "value": "0"
                            },
                            {
                                "name": "gasToken",
                                "type": "address",
                                "value": "0x0000000000000000000000000000000000000000"
                            },
                            {
                                "name": "refundReceiver",
                                "type": "address",
                                "value": "0x0000000000000000000000000000000000000000"
                            },
                            {
                                "name": "signatures",
                                "type": "bytes",
                                "value": "0xdcbc69eccab9a07cbcba49d69b8372598881badb416d878b38ae9a8fa10c88b75b09c4156d3d4e0b820ea2670fcccdcc155745571eaf7c73a7980cc9ae2e913d1c954bb4f294bd83cd957d7c5697921fa6fd5fbf479fcd18f1a34367d2dbecfe170439ba7f6cf148f2eb90dcef0d2cacf9b784c24a6a20a8dda53172f661af64191c315893bcfb293e332aedc5e7688cf0782e24ba67fab1a38cc6f45c634c3cbbdc058ad0ec72ac330f49aef14afb50be41c83e5ae2dfba52fe0d27861126514a321c5f90b09e0910150d319c8089425336b9f56422604dc77ea5060380ee23094015328e5159846c76c585c18b757e55870c86829cac3eee77a4a8673fa1cd4c13f21ccc1b12ea56d1e2fc1a67e8a629f71aa5601ba0281627a6da76a65535ecc56ff8319c9d9e306600a4144d0e9202cef3b1ac77b7157b6823142584580d101108e31b000000000000000000000000f7bd34dd44b92fb2f9c3d2e31aaad06570a853a6000000000000000000000000000000000000000000000000000000000000000001"
                            }
                        ],
                        "constructorArguments": "",
                        "name": "execTransaction",
                        "returnParams": [
                            {
                                "name": "success",
                                "type": "bool",
                                "value": true
                            }
                        ],
                        "signature": "execTransaction(address,uint256,bytes,uint8,uint256,uint256,uint256,address,address,bytes)"
                    },
                    "errorInfo": "",
                    "fromAddress": "0xc420c9d507d0e038bd76383aaadcad576ed0073c",
                    "gasUsed": 91096,
                    "id": 1,
                    "methodDecoded": true,
                    "operation": "DELEGATECALL",
                    "output": "0x0000000000000000000000000000000000000000000000000000000000000001",
                    "revert": false,
                    "revertMessage": "",
                    "selector": "0x6a761202",
                    "status": true,
                    "value": "0"
                },
                "nodeType": 0
            },
            "10": {
                "invocation": {
                    "address": "0xd533a949740bb3306d119cc777fa900ba034cd52",
                    "callData": "0x000000000000000000000000637351b0a32bc7bb7f6a19686a76d84233710ad900000000000000000000000000000000000000000001a784379d99db42000000",
                    "decodedMethod": {
                        "callParams": [
                            {
                                "name": "recipient",
                                "type": "address",
                                "value": "0x637351b0a32bc7bb7f6a19686a76d84233710ad9"
                            },
                            {
                                "decimalAvailable": true,
                                "name": "amount",
                                "type": "uint256",
                                "value": "2,000,000,000,000,000,000,000,000"
                            }
                        ],
                        "constructorArguments": "",
                        "name": "transfer",
                        "returnParams": [
                            {
                                "name": "",
                                "type": "bool",
                                "value": true
                            }
                        ],
                        "signature": "transfer(address,uint256)"
                    },
                    "errorInfo": "",
                    "fromAddress": "0xc420c9d507d0e038bd76383aaadcad576ed0073c",
                    "gasUsed": 24881,
                    "id": 10,
                    "methodDecoded": true,
                    "operation": "CALL",
                    "output": "0x0000000000000000000000000000000000000000000000000000000000000001",
                    "revert": false,
                    "revertMessage": "",
                    "selector": "0xa9059cbb",
                    "status": true,
                    "value": "0"
                },
                "nodeType": 0
            },
            "11": {
                "event": {
                    "contract": "0xd533a949740bb3306d119cc777fa900ba034cd52",
                    "decodedLog": {
                        "name": "Transfer",
                        "params": [
                            {
                                "name": "from",
                                "type": "address",
                                "value": "0xc420c9d507d0e038bd76383aaadcad576ed0073c"
                            },
                            {
                                "name": "to",
                                "type": "address",
                                "value": "0x637351b0a32bc7bb7f6a19686a76d84233710ad9"
                            },
                            {
                                "decimalAvailable": true,
                                "name": "value",
                                "type": "uint256",
                                "value": "2,000,000,000,000,000,000,000,000"
                            }
                        ],
                        "signature": "Transfer(address,address,uint256)"
                    },
                    "id": 11,
                    "logData": "0x00000000000000000000000000000000000000000001a784379d99db42000000",
                    "logDecoded": true,
                    "operation": "EVENT",
                    "revert": false,
                    "status": true,
                    "topics": [
                        "0xddf252ad1be2c89b69c2b068fc378daa952ba7f163c4a11628f55a4df523b3ef",
                        "0x000000000000000000000000c420c9d507d0e038bd76383aaadcad576ed0073c",
                        "0x000000000000000000000000637351b0a32bc7bb7f6a19686a76d84233710ad9"
                    ]
                },
                "nodeType": 1
            },
            "12": {
                "event": {
                    "contract": "0xc420c9d507d0e038bd76383aaadcad576ed0073c",
                    "decodedLog": {
                        "name": "ExecutionSuccess",
                        "params": [
                            {
                                "name": "txHash",
                                "type": "bytes32",
                                "value": "0xc7cccee38e673dd54a3d075010b617c9860d9fea698daeb5649612b2fd1f828f"
                            },
                            {
                                "name": "payment",
                                "type": "uint256",
                                "value": "0"
                            }
                        ],
                        "signature": "ExecutionSuccess(bytes32,uint256)"
                    },
                    "id": 12,
                    "logData": "0xc7cccee38e673dd54a3d075010b617c9860d9fea698daeb5649612b2fd1f828f0000000000000000000000000000000000000000000000000000000000000000",
                    "logDecoded": true,
                    "operation": "EVENT",
                    "revert": false,
                    "status": true,
                    "topics": [
                        "0x442e715f626346e8c54381002da614f62bee8d27386535b2521ec8540898556e"
                    ]
                },
                "nodeType": 1
            },
            "2": {
                "invocation": {
                    "address": "0x0000000000000000000000000000000000000001",
                    "callData": "0x8e673dd54a3d075010b617c9860d9fea698daeb5649612b2fd1f828f000000000000000000000000000000000000000000000000000000000000001cdcbc69eccab9a07cbcba49d69b8372598881badb416d878b38ae9a8fa10c88b75b09c4156d3d4e0b820ea2670fcccdcc155745571eaf7c73a7980cc9ae2e913d",
                    "decodedMethod": {
                        "callParams": [
                            {
                                "name": "hash",
                                "type": "bytes32",
                                "value": "0xc7cccee38e673dd54a3d075010b617c9860d9fea698daeb5649612b2fd1f828f"
                            },
                            {
                                "name": "v",
                                "type": "uint256",
                                "value": "28"
                            },
                            {
                                "name": "r",
                                "type": "bytes32",
                                "value": "0xdcbc69eccab9a07cbcba49d69b8372598881badb416d878b38ae9a8fa10c88b7"
                            },
                            {
                                "name": "s",
                                "type": "bytes32",
                                "value": "0x5b09c4156d3d4e0b820ea2670fcccdcc155745571eaf7c73a7980cc9ae2e913d"
                            }
                        ],
                        "constructorArguments": "",
                        "name": "ecrecover",
                        "returnParams": [
                            {
                                "name": "",
                                "type": "address",
                                "value": "0x05a16d90f804c3e83b10bc34a480c74cd5033c7e"
                            }
                        ],
                        "signature": "ecrecover(bytes32,uint256,bytes32,bytes32)"
                    },
                    "errorInfo": "",
                    "fromAddress": "0xc420c9d507d0e038bd76383aaadcad576ed0073c",
                    "gasUsed": 3000,
                    "id": 2,
                    "methodDecoded": true,
                    "operation": "STATICCALL",
                    "output": "0x00000000000000000000000005a16d90f804c3e83b10bc34a480c74cd5033c7e",
                    "revert": false,
                    "revertMessage": "",
                    "selector": "0xc7cccee3",
                    "status": true,
                    "value": "0"
                },
                "nodeType": 0
            },
            "3": {
                "invocation": {
                    "address": "0x0000000000000000000000000000000000000001",
                    "callData": "0x8e673dd54a3d075010b617c9860d9fea698daeb5649612b2fd1f828f000000000000000000000000000000000000000000000000000000000000001c954bb4f294bd83cd957d7c5697921fa6fd5fbf479fcd18f1a34367d2dbecfe170439ba7f6cf148f2eb90dcef0d2cacf9b784c24a6a20a8dda53172f661af6419",
                    "decodedMethod": {
                        "callParams": [
                            {
                                "name": "hash",
                                "type": "bytes32",
                                "value": "0xc7cccee38e673dd54a3d075010b617c9860d9fea698daeb5649612b2fd1f828f"
                            },
                            {
                                "name": "v",
                                "type": "uint256",
                                "value": "28"
                            },
                            {
                                "name": "r",
                                "type": "bytes32",
                                "value": "0x954bb4f294bd83cd957d7c5697921fa6fd5fbf479fcd18f1a34367d2dbecfe17"
                            },
                            {
                                "name": "s",
                                "type": "bytes32",
                                "value": "0x0439ba7f6cf148f2eb90dcef0d2cacf9b784c24a6a20a8dda53172f661af6419"
                            }
                        ],
                        "constructorArguments": "",
                        "name": "ecrecover",
                        "returnParams": [
                            {
                                "name": "",
                                "type": "address",
                                "value": "0x39415255619783a2e71fcf7d8f708a951d92e1b6"
                            }
                        ],
                        "signature": "ecrecover(bytes32,uint256,bytes32,bytes32)"
                    },
                    "errorInfo": "",
                    "fromAddress": "0xc420c9d507d0e038bd76383aaadcad576ed0073c",
                    "gasUsed": 3000,
                    "id": 3,
                    "methodDecoded": true,
                    "operation": "STATICCALL",
                    "output": "0x00000000000000000000000039415255619783a2e71fcf7d8f708a951d92e1b6",
                    "revert": false,
                    "revertMessage": "",
                    "selector": "0xc7cccee3",
                    "status": true,
                    "value": "0"
                },
                "nodeType": 0
            },
            "4": {
                "invocation": {
                    "address": "0x0000000000000000000000000000000000000001",
                    "callData": "0x8e673dd54a3d075010b617c9860d9fea698daeb5649612b2fd1f828f000000000000000000000000000000000000000000000000000000000000001c315893bcfb293e332aedc5e7688cf0782e24ba67fab1a38cc6f45c634c3cbbdc058ad0ec72ac330f49aef14afb50be41c83e5ae2dfba52fe0d27861126514a32",
                    "decodedMethod": {
                        "callParams": [
                            {
                                "name": "hash",
                                "type": "bytes32",
                                "value": "0xc7cccee38e673dd54a3d075010b617c9860d9fea698daeb5649612b2fd1f828f"
                            },
                            {
                                "name": "v",
                                "type": "uint256",
                                "value": "28"
                            },
                            {
                                "name": "r",
                                "type": "bytes32",
                                "value": "0x315893bcfb293e332aedc5e7688cf0782e24ba67fab1a38cc6f45c634c3cbbdc"
                            },
                            {
                                "name": "s",
                                "type": "bytes32",
                                "value": "0x058ad0ec72ac330f49aef14afb50be41c83e5ae2dfba52fe0d27861126514a32"
                            }
                        ],
                        "constructorArguments": "",
                        "name": "ecrecover",
                        "returnParams": [
                            {
                                "name": "",
                                "type": "address",
                                "value": "0x49ce85e1c55cb5b41b8da2db85826e3b63a47e00"
                            }
                        ],
                        "signature": "ecrecover(bytes32,uint256,bytes32,bytes32)"
                    },
                    "errorInfo": "",
                    "fromAddress": "0xc420c9d507d0e038bd76383aaadcad576ed0073c",
                    "gasUsed": 3000,
                    "id": 4,
                    "methodDecoded": true,
                    "operation": "STATICCALL",
                    "output": "0x00000000000000000000000049ce85e1c55cb5b41b8da2db85826e3b63a47e00",
                    "revert": false,
                    "revertMessage": "",
                    "selector": "0xc7cccee3",
                    "status": true,
                    "value": "0"
                },
                "nodeType": 0
            },
            "5": {
                "invocation": {
                    "address": "0x0000000000000000000000000000000000000001",
                    "callData": "0x8e673dd54a3d075010b617c9860d9fea698daeb5649612b2fd1f828f000000000000000000000000000000000000000000000000000000000000001c5f90b09e0910150d319c8089425336b9f56422604dc77ea5060380ee23094015328e5159846c76c585c18b757e55870c86829cac3eee77a4a8673fa1cd4c13f2",
                    "decodedMethod": {
                        "callParams": [
                            {
                                "name": "hash",
                                "type": "bytes32",
                                "value": "0xc7cccee38e673dd54a3d075010b617c9860d9fea698daeb5649612b2fd1f828f"
                            },
                            {
                                "name": "v",
                                "type": "uint256",
                                "value": "28"
                            },
                            {
                                "name": "r",
                                "type": "bytes32",
                                "value": "0x5f90b09e0910150d319c8089425336b9f56422604dc77ea5060380ee23094015"
                            },
                            {
                                "name": "s",
                                "type": "bytes32",
                                "value": "0x328e5159846c76c585c18b757e55870c86829cac3eee77a4a8673fa1cd4c13f2"
                            }
                        ],
                        "constructorArguments": "",
                        "name": "ecrecover",
                        "returnParams": [
                            {
                                "name": "",
                                "type": "address",
                                "value": "0x4c47b2520e9f7e3da15df09718d467f783b03858"
                            }
                        ],
                        "signature": "ecrecover(bytes32,uint256,bytes32,bytes32)"
                    },
                    "errorInfo": "",
                    "fromAddress": "0xc420c9d507d0e038bd76383aaadcad576ed0073c",
                    "gasUsed": 3000,
                    "id": 5,
                    "methodDecoded": true,
                    "operation": "STATICCALL",
                    "output": "0x0000000000000000000000004c47b2520e9f7e3da15df09718d467f783b03858",
                    "revert": false,
                    "revertMessage": "",
                    "selector": "0xc7cccee3",
                    "status": true,
                    "value": "0"
                },
                "nodeType": 0
            },
            "6": {
                "invocation": {
                    "address": "0x0000000000000000000000000000000000000001",
                    "callData": "0x8e673dd54a3d075010b617c9860d9fea698daeb5649612b2fd1f828f000000000000000000000000000000000000000000000000000000000000001bcc1b12ea56d1e2fc1a67e8a629f71aa5601ba0281627a6da76a65535ecc56ff8319c9d9e306600a4144d0e9202cef3b1ac77b7157b6823142584580d101108e3",
                    "decodedMethod": {
                        "callParams": [
                            {
                                "name": "hash",
                                "type": "bytes32",
                                "value": "0xc7cccee38e673dd54a3d075010b617c9860d9fea698daeb5649612b2fd1f828f"
                            },
                            {
                                "name": "v",
                                "type": "uint256",
                                "value": "27"
                            },
                            {
                                "name": "r",
                                "type": "bytes32",
                                "value": "0xcc1b12ea56d1e2fc1a67e8a629f71aa5601ba0281627a6da76a65535ecc56ff8"
                            },
                            {
                                "name": "s",
                                "type": "bytes32",
                                "value": "0x319c9d9e306600a4144d0e9202cef3b1ac77b7157b6823142584580d101108e3"
                            }
                        ],
                        "constructorArguments": "",
                        "name": "ecrecover",
                        "returnParams": [
                            {
                                "name": "",
                                "type": "address",
                                "value": "0xaac0aa431c237c2c0b5f041c8e59b3f1a43ac78f"
                            }
                        ],
                        "signature": "ecrecover(bytes32,uint256,bytes32,bytes32)"
                    },
                    "errorInfo": "",
                    "fromAddress": "0xc420c9d507d0e038bd76383aaadcad576ed0073c",
                    "gasUsed": 3000,
                    "id": 6,
                    "methodDecoded": true,
                    "operation": "STATICCALL",
                    "output": "0x000000000000000000000000aac0aa431c237c2c0b5f041c8e59b3f1a43ac78f",
                    "revert": false,
                    "revertMessage": "",
                    "selector": "0xc7cccee3",
                    "status": true,
                    "value": "0"
                },
                "nodeType": 0
            },
            "7": {
                "invocation": {
                    "address": "0x40a2accbd92bca938b02010e17a5b8929b49130d",
                    "callData": "0x0000000000000000000000000000000000000000000000000000000000000020000000000000000000000000000000000000000000000000000000000000013200d533a949740bb3306d119cc777fa900ba034cd5200000000000000000000000000000000000000000000000000000000000000000000000000000000000000000000000000000000000000000000000000000044a9059cbb0000000000000000000000002ba80b37e0bef5c92a0c3cb780f8583372d773ac00000000000000000000000000000000000000000001a784379d99db4200000000d533a949740bb3306d119cc777fa900ba034cd5200000000000000000000000000000000000000000000000000000000000000000000000000000000000000000000000000000000000000000000000000000044a9059cbb000000000000000000000000637351b0a32bc7bb7f6a19686a76d84233710ad900000000000000000000000000000000000000000001a784379d99db420000000000000000000000000000000000",
                    "decodedMethod": {
                        "callParams": [
                            {
                                "name": "transactions",
                                "type": "bytes",
                                "value": "0x00d533a949740bb3306d119cc777fa900ba034cd5200000000000000000000000000000000000000000000000000000000000000000000000000000000000000000000000000000000000000000000000000000044a9059cbb0000000000000000000000002ba80b37e0bef5c92a0c3cb780f8583372d773ac00000000000000000000000000000000000000000001a784379d99db4200000000d533a949740bb3306d119cc777fa900ba034cd5200000000000000000000000000000000000000000000000000000000000000000000000000000000000000000000000000000000000000000000000000000044a9059cbb000000000000000000000000637351b0a32bc7bb7f6a19686a76d84233710ad900000000000000000000000000000000000000000001a784379d99db42000000"
                            }
                        ],
                        "constructorArguments": "",
                        "name": "multiSend",
                        "returnParams": [],
                        "signature": "multiSend(bytes)"
                    },
                    "errorInfo": "",
                    "fromAddress": "0xc420c9d507d0e038bd76383aaadcad576ed0073c",
                    "gasUsed": 41281,
                    "id": 7,
                    "methodDecoded": true,
                    "operation": "DELEGATECALL",
                    "output": "",
                    "revert": false,
                    "revertMessage": "",
                    "selector": "0x8d80ff0a",
                    "status": true,
                    "value": "0"
                },
                "nodeType": 0
            },
            "8": {
                "invocation": {
                    "address": "0xd533a949740bb3306d119cc777fa900ba034cd52",
                    "callData": "0x0000000000000000000000002ba80b37e0bef5c92a0c3cb780f8583372d773ac00000000000000000000000000000000000000000001a784379d99db42000000",
                    "decodedMethod": {
                        "callParams": [
                            {
                                "name": "recipient",
                                "type": "address",
                                "value": "0x2ba80b37e0bef5c92a0c3cb780f8583372d773ac"
                            },
                            {
                                "decimalAvailable": true,
                                "name": "amount",
                                "type": "uint256",
                                "value": "2,000,000,000,000,000,000,000,000"
                            }
                        ],
                        "constructorArguments": "",
                        "name": "transfer",
                        "returnParams": [
                            {
                                "name": "",
                                "type": "bool",
                                "value": true
                            }
                        ],
                        "signature": "transfer(address,uint256)"
                    },
                    "errorInfo": "",
                    "fromAddress": "0xc420c9d507d0e038bd76383aaadcad576ed0073c",
                    "gasUsed": 12581,
                    "id": 8,
                    "methodDecoded": true,
                    "operation": "CALL",
                    "output": "0x0000000000000000000000000000000000000000000000000000000000000001",
                    "revert": false,
                    "revertMessage": "",
                    "selector": "0xa9059cbb",
                    "status": true,
                    "value": "0"
                },
                "nodeType": 0
            },
            "9": {
                "event": {
                    "contract": "0xd533a949740bb3306d119cc777fa900ba034cd52",
                    "decodedLog": {
                        "name": "Transfer",
                        "params": [
                            {
                                "name": "from",
                                "type": "address",
                                "value": "0xc420c9d507d0e038bd76383aaadcad576ed0073c"
                            },
                            {
                                "name": "to",
                                "type": "address",
                                "value": "0x2ba80b37e0bef5c92a0c3cb780f8583372d773ac"
                            },
                            {
                                "decimalAvailable": true,
                                "name": "value",
                                "type": "uint256",
                                "value": "2,000,000,000,000,000,000,000,000"
                            }
                        ],
                        "signature": "Transfer(address,address,uint256)"
                    },
                    "id": 9,
                    "logData": "0x00000000000000000000000000000000000000000001a784379d99db42000000",
                    "logDecoded": true,
                    "operation": "EVENT",
                    "revert": false,
                    "status": true,
                    "topics": [
                        "0xddf252ad1be2c89b69c2b068fc378daa952ba7f163c4a11628f55a4df523b3ef",
                        "0x000000000000000000000000c420c9d507d0e038bd76383aaadcad576ed0073c",
                        "0x0000000000000000000000002ba80b37e0bef5c92a0c3cb780f8583372d773ac"
                    ]
                },
                "nodeType": 1
            }
        },
        "gasFlame": [
            {
                "children": [
                    {
                        "children": [
                            {
                                "children": [],
                                "depth": 0,
                                "name": "Initial Gas",
                                "value": 31796
                            },
                            {
                                "children": [
                                    {
                                        "children": [
                                            {
                                                "children": [],
                                                "depth": 2,
                                                "name": "ecrecover",
                                                "value": 3000
                                            },
                                            {
                                                "children": [],
                                                "depth": 2,
                                                "name": "ecrecover",
                                                "value": 3000
                                            },
                                            {
                                                "children": [],
                                                "depth": 2,
                                                "name": "ecrecover",
                                                "value": 3000
                                            },
                                            {
                                                "children": [],
                                                "depth": 2,
                                                "name": "ecrecover",
                                                "value": 3000
                                            },
                                            {
                                                "children": [],
                                                "depth": 2,
                                                "name": "ecrecover",
                                                "value": 3000
                                            },
                                            {
                                                "children": [
                                                    {
                                                        "children": [],
                                                        "depth": 3,
                                                        "name": "transfer",
                                                        "value": 12581
                                                    },
                                                    {
                                                        "children": [],
                                                        "depth": 3,
                                                        "name": "transfer",
                                                        "value": 24881
                                                    }
                                                ],
                                                "depth": 2,
                                                "name": "multiSend",
                                                "value": 41281
                                            }
                                        ],
                                        "depth": 1,
                                        "name": "execTransaction",
                                        "value": 91096
                                    }
                                ],
                                "depth": 0,
                                "name": "Executed Gas",
                                "value": 96151
                            }
                        ],
                        "depth": -1,
                        "name": "Actual Gas Used",
                        "value": 127947
                    },
                    {
                        "children": [],
                        "depth": -1,
                        "name": "Refunded Gas",
                        "value": 0
                    }
                ],
                "depth": -2,
                "name": "Total Gas",
                "value": 127947
            }
        ],
        "isConfirmed": true,
        "mainTrace": [
            {
                "children": [
                    {
                        "children": [
                            {
                                "children": [
                                    {
                                        "children": [],
                                        "depth": 2,
                                        "id": 2,
                                        "order": 2
                                    },
                                    {
                                        "children": [],
                                        "depth": 2,
                                        "id": 3,
                                        "order": 3
                                    },
                                    {
                                        "children": [],
                                        "depth": 2,
                                        "id": 4,
                                        "order": 4
                                    },
                                    {
                                        "children": [],
                                        "depth": 2,
                                        "id": 5,
                                        "order": 5
                                    },
                                    {
                                        "children": [],
                                        "depth": 2,
                                        "id": 6,
                                        "order": 6
                                    },
                                    {
                                        "children": [
                                            {
                                                "children": [
                                                    {
                                                        "children": [],
                                                        "depth": 4,
                                                        "id": 9,
                                                        "order": 9
                                                    }
                                                ],
                                                "depth": 3,
                                                "id": 8,
                                                "order": 8
                                            },
                                            {
                                                "children": [
                                                    {
                                                        "children": [],
                                                        "depth": 4,
                                                        "id": 11,
                                                        "order": 11
                                                    }
                                                ],
                                                "depth": 3,
                                                "id": 10,
                                                "order": 10
                                            }
                                        ],
                                        "depth": 2,
                                        "id": 7,
                                        "order": 7
                                    },
                                    {
                                        "children": [],
                                        "depth": 2,
                                        "id": 12,
                                        "order": 12
                                    }
                                ],
                                "depth": 1,
                                "id": 1,
                                "order": 1
                            }
                        ],
                        "depth": 0,
                        "id": 0,
                        "order": 0
                    }
                ],
                "depth": -1,
                "id": -1,
                "order": -1
            }
        ],
        "mainTraceNodeCount": 13,
        "parentIdMap": {
            "0": -1,
            "1": 0,
            "10": 7,
            "11": 10,
            "12": 1,
            "2": 1,
            "3": 1,
            "4": 1,
            "5": 1,
            "6": 1,
            "7": 1,
            "8": 7,
            "9": 8
        },
        "tidyTrace": [
            {
                "children": [
                    {
                        "children": [
                            {
                                "children": [
                                    {
                                        "children": [
                                            {
                                                "children": [
                                                    {
                                                        "children": [],
                                                        "depth": 4,
                                                        "id": 9,
                                                        "order": 9
                                                    }
                                                ],
                                                "depth": 3,
                                                "id": 8,
                                                "order": 8
                                            },
                                            {
                                                "children": [
                                                    {
                                                        "children": [],
                                                        "depth": 4,
                                                        "id": 11,
                                                        "order": 11
                                                    }
                                                ],
                                                "depth": 3,
                                                "id": 10,
                                                "order": 10
                                            }
                                        ],
                                        "depth": 2,
                                        "id": 7,
                                        "order": 7
                                    },
                                    {
                                        "children": [],
                                        "depth": 2,
                                        "id": 12,
                                        "order": 12
                                    }
                                ],
                                "depth": 1,
                                "id": 1,
                                "order": 1
                            }
                        ],
                        "depth": 0,
                        "id": 0,
                        "order": 0
                    }
                ],
                "depth": -1,
                "id": -1,
                "order": -1
            }
        ],
        "tidyTraceNodeCount": 8
    },
    "state_change": {
        "stateChanges": [
            {
                "address": "0xc420c9d507d0e038bd76383aaadcad576ed0073c",
                "erc": "",
                "slots": [
                    {
                        "current": "0x000000000000000000000000000000000000000000000000000000000000002b",
                        "key": "0x0000000000000000000000000000000000000000000000000000000000000005",
                        "prev": "0x000000000000000000000000000000000000000000000000000000000000002a"
                    }
                ],
                "storageVariables": [
                    {
                        "name": "nonce",
                        "type": "uint256",
                        "value": {
                            "current": "43",
                            "prev": "42",
                            "typeTag": 1
                        }
                    }
                ]
            },
            {
                "address": "0xd533a949740bb3306d119cc777fa900ba034cd52",
                "erc": "",
                "slots": [
                    {
                        "current": "0x00000000000000000000000000000000000000000001af56a63dccb0de4fa000",
                        "key": "0xfab6da2e3ebd4eafb6c49a36c78bc70fee813462d9c7f674600085d8c0db4079",
                        "prev": "0x0000000000000000000000000000000000000000000007d26ea032d59c4fa000"
                    },
                    {
                        "current": "0x00000000000000000000000000000000000000000001a784379d99db42000000",
                        "key": "0x108d2ed0ef958df81d146bb53821da5fb65c863e0135d6cb7dfc4ce09e1bff76",
                        "prev": "0x0000000000000000000000000000000000000000000000000000000000000000"
                    },
                    {
                        "current": "0x0000000000000000000000000000000000000000000d0560f0a21a01df780000",
                        "key": "0x10cf2e02ed072c9b752fcb2e21bf780b9f13250edf621c1ee1993eeefdefb0bf",
                        "prev": "0x0000000000000000000000000000000000000000001054695fdd4db863780000"
                    }
                ],
                "storageVariables": []
            }
        ]
    }
}