{
    "balance_change": {
        "balanceChanges": [
            {
                "account": "0xb68014852ecfda8f228bd7ab639e9e731457159d",
                "assets": [
                    {
                        "address": "0xe79df2d8af756e850f95f386311acd0368344767",
                        "amount": "1,749.74",
                        "iconUrl": "",
                        "isERC1155": false,
                        "isERC721": false,
                        "sign": false,
                        "value": ""
                    }
                ]
            },
            {
                "account": "0x5a9ac7da692c4b8b7a95898724e29524971cc10b",
                "assets": [
                    {
                        "address": "0xe79df2d8af756e850f95f386311acd0368344767",
                        "amount": "1,749.74",
                        "iconUrl": "",
                        "isERC1155": false,
                        "isERC721": false,
                        "sign": true,
                        "value": ""
                    }
                ]
            }
        ]
    },
    "profile": {
        "basic_info": {
            "baseFee": "",
            "blockNumber": 8908094,
            "callData": "0xa9059cbb0000000000000000000000005a9ac7da692c4b8b7a95898724e29524971cc10b000000000000000000000000000000000000000000000000000000000002ab7e",
            "debugEnable": true,
            "errorInfo": "",
            "eventCount": 1,
            "feeRecipient": "0x5a0b54d5dc17e0aadc383d2db43b0a0d3e029c4c",
            "formatValue": "0",
            "gasLimit": 77362,
            "gasPrice": "4.89",
            "gasUsed": 51511,
            "intTxnCount": 0,
            "internalRevert": false,
            "internalRevertMessage": "",
            "isContractCreation": false,
            "isFlashloan": false,
            "maxFee": "",
            "nonce": 9603,
            "overwritedBlockNumber": -1,
            "priorityFee": "",
            "receiver": "0xe79df2d8af756e850f95f386311acd0368344767",
            "revertMessage": "",
            "sender": "0xb68014852ecfda8f228bd7ab639e9e731457159d",
            "simulationEnable": true,
            "sourceTxnHash": "0x8321a32555b5facf130f16b863b1b9a269a6c703d596774bc523857d07d0baed",
            "status": true,
            "timestamp": "2019-11-10T11:05:41Z",
            "transactionFee": "0.00025188879",
            "txnHash": "0x8321a32555b5facf130f16b863b1b9a269a6c703d596774bc523857d07d0baed",
            "txnIndex": 69,
            "type": 0,
            "value": "0"
        },
        "fund_flow": [
            {
                "amount": "1,749.74",
                "from": "0xb68014852ecfda8f228bd7ab639e9e731457159d",
                "id": 1,
                "isERC1155": false,
                "isERC721": false,
                "isReverted": false,
                "order": 1,
                "to": "0x5a9ac7da692c4b8b7a95898724e29524971cc10b",
                "token": "0xe79df2d8af756e850f95f386311acd0368344767"
            }
        ],
        "token_infos": [
            {
                "address": "0xc02aaa39b223fe8d0a0e5c4f27ead9083c756cc2",
                "decimals": 18
            },
            {
                "address": "0xe79df2d8af756e850f95f386311acd0368344767",
                "decimals": 2
            },
            {
                "address": "0xeeeeeeeeeeeeeeeeeeeeeeeeeeeeeeeeeeeeeeee",
                "decimals": 18
            }
        ]
    },
    "address_label": {
        "labels": [
            {
                "address": "0x0000000000000000000000000000000000000004",
                "label": "Precompiled"
            },
            {
                "address": "0xeeeeeeeeeeeeeeeeeeeeeeeeeeeeeeeeeeeeeeee",
                "label": "Ether"
            },
            {
                "address": "0xe79df2d8af756e850f95f386311acd0368344767",
                "label": "NGT"
            },
            {
                "address": "0x0000000000000000000000000000000000000001",
                "label": "Precompiled"
            },
            {
                "address": "0x0000000000000000000000000000000000000002",
                "label": "Precompiled"
            },
            {
                "address": "0x0000000000000000000000000000000000000003",
                "label": "Precompiled"
            }
        ]
    },
    "trace": {
        "accountLabels": null,
        "dataMap": {
            "-1": {
                "invocation": {
                    "address": "0xb68014852ecfda8f228bd7ab639e9e731457159d",
                    "callData": "",
                    "decodedMethod": null,
                    "errorInfo": "",
                    "fromAddress": "",
                    "gasUsed": 0,
                    "id": -1,
                    "methodDecoded": false,
                    "operation": "",
                    "output": "",
                    "revert": false,
                    "revertMessage": "",
                    "selector": "",
                    "status": false,
                    "value": ""
                },
                "nodeType": 0
            },
            "0": {
                "invocation": {
                    "address": "0xe79df2d8af756e850f95f386311acd0368344767",
                    "callData": "0x0000000000000000000000005a9ac7da692c4b8b7a95898724e29524971cc10b000000000000000000000000000000000000000000000000000000000002ab7e",
                    "decodedMethod": {
                        "callParams": [
                            {
                                "name": "recipient",
                                "type": "address",
                                "value": "0x5a9ac7da692c4b8b7a95898724e29524971cc10b"
                            },
                            {
                                "decimalAvailable": true,
                                "name": "amount",
                                "type": "uint256",
                                "value": "174,974"
                            }
                        ],
                        "constructorArguments": "",
                        "name": "transfer",
                        "returnParams": [
                            {
                                "name": "",
                                "type": "bool",
                                "value": true
                            }
                        ],
                        "signature": "transfer(address,uint256)"
                    },
                    "errorInfo": "",
                    "fromAddress": "0xb68014852ecfda8f228bd7ab639e9e731457159d",
                    "gasUsed": 51511,
                    "id": 0,
                    "methodDecoded": true,
                    "operation": "CALL",
                    "output": "0x0000000000000000000000000000000000000000000000000000000000000001",
                    "revert": false,
                    "revertMessage": "",
                    "selector": "0xa9059cbb",
                    "status": true,
                    "value": "0"
                },
                "nodeType": 0
            },
            "1": {
                "event": {
                    "contract": "0xe79df2d8af756e850f95f386311acd0368344767",
                    "decodedLog": {
                        "name": "Transfer",
                        "params": [
                            {
                                "name": "from",
                                "type": "address",
                                "value": "0xb68014852ecfda8f228bd7ab639e9e731457159d"
                            },
                            {
                                "name": "to",
                                "type": "address",
                                "value": "0x5a9ac7da692c4b8b7a95898724e29524971cc10b"
                            },
                            {
                                "decimalAvailable": true,
                                "name": "value",
                                "type": "uint256",
                                "value": "174,974"
                            }
                        ],
                        "signature": "Transfer(address,address,uint256)"
                    },
                    "id": 1,
                    "logData": "0x000000000000000000000000000000000000000000000000000000000002ab7e",
                    "logDecoded": true,
                    "operation": "EVENT",
                    "revert": false,
                    "status": true,
                    "topics": [
                        "0xddf252ad1be2c89b69c2b068fc378daa952ba7f163c4a11628f55a4df523b3ef",
                        "0x000000000000000000000000b68014852ecfda8f228bd7ab639e9e731457159d",
                        "0x0000000000000000000000005a9ac7da692c4b8b7a95898724e29524971cc10b"
                    ]
                },
                "nodeType": 1
            }
        },
        "gasFlame": [
            {
                "children": [
                    {
                        "children": [
                            {
                                "children": [],
                                "depth": 0,
                                "name": "Initial Gas",
                                "value": 23000
                            },
                            {
                                "children": [],
                                "depth": 0,
                                "name": "Executed Gas",
                                "value": 28511
                            }
                        ],
                        "depth": -1,
                        "name": "Actual Gas Used",
                        "value": 51511
                    },
                    {
                        "children": [],
                        "depth": -1,
                        "name": "Refunded Gas",
                        "value": 0
                    }
                ],
                "depth": -2,
                "name": "Total Gas",
                "value": 51511
            }
        ],
        "isConfirmed": true,
        "mainTrace": [
            {
                "children": [
                    {
                        "children": [
                            {
                                "children": [],
                                "depth": 1,
                                "id": 1,
                                "order": 1
                            }
                        ],
                        "depth": 0,
                        "id": 0,
                        "order": 0
                    }
                ],
                "depth": -1,
                "id": -1,
                "order": -1
            }
        ],
        "mainTraceNodeCount": 2,
        "parentIdMap": {
            "0": -1,
            "1": 0
        },
        "tidyTrace": [
            {
                "children": [
                    {
                        "children": [
                            {
                                "children": [],
                                "depth": 1,
                                "id": 1,
                                "order": 1
                            }
                        ],
                        "depth": 0,
                        "id": 0,
                        "order": 0
                    }
                ],
                "depth": -1,
                "id": -1,
                "order": -1
            }
        ],
        "tidyTraceNodeCount": 2
    },
    "state_change": {
        "stateChanges": [
            {
                "address": "0xe79df2d8af756e850f95f386311acd0368344767",
                "erc": "",
                "slots": [
                    {
                        "current": "0x000000000000000000000000000000000000000000000000000000000438a883",
                        "key": "0xd6e9aa86a9b5e8a328928b1587a3cb87db6e3358e4025955b9ef3b9366551c40",
                        "prev": "0x00000000000000000000000000000000000000000000000000000000043b5401"
                    },
                    {
                        "current": "0x000000000000000000000000000000000000000000000000000000000002ab7e",
                        "key": "0xc37b432f002d76e8c1e19454160e3038111a09a1db80564aba0f5b2e2c630cdc",
                        "prev": "0x0000000000000000000000000000000000000000000000000000000000000000"
                    }
                ],
                "storageVariables": []
            }
        ]
    }
}