{
    "balance_change": {
        "balanceChanges": [
            {
                "account": "0x38caa9a43c911a5bd745c5ba8d40dbaad26f90e1",
                "assets": [
                    {
                        "address": "0x6b175474e89094c44da98b954eedeac495271d0f",
                        "amount": "35,000",
                        "iconUrl": "https://assets.blocksec.com/icon/39aead569b9c011cb6f69734d9abbc9ab6a80049fe93bbd12bb473a3e0e859a3.png",
                        "isERC1155": false,
                        "isERC721": false,
                        "sign": true,
                        "value": ""
                    }
                ]
            },
            {
                "account": "0x794e6e91555438afc3ccf1c5076a74f42133d08d",
                "assets": [
                    {
                        "address": "0x6b175474e89094c44da98b954eedeac495271d0f",
                        "amount": "35,000",
                        "iconUrl": "https://assets.blocksec.com/icon/39aead569b9c011cb6f69734d9abbc9ab6a80049fe93bbd12bb473a3e0e859a3.png",
                        "isERC1155": false,
                        "isERC721": false,
                        "sign": false,
                        "value": ""
                    }
                ]
            }
        ]
    },
    "profile": {
        "basic_info": {
            "baseFee": "",
            "blockNumber": 9827758,
            "callData": "0xb4f9b6c80000000000000000000000000000000000000000000000000000000000037f97",
            "debugEnable": true,
            "errorInfo": "",
            "eventCount": 3,
            "feeRecipient": "0x5a0b54d5dc17e0aadc383d2db43b0a0d3e029c4c",
            "formatValue": "0",
            "gasLimit": 262158,
            "gasPrice": "8.8",
            "gasUsed": 72863,
            "intTxnCount": 1,
            "internalRevert": false,
            "internalRevertMessage": "",
            "isContractCreation": false,
            "isFlashloan": false,
            "maxFee": "",
            "nonce": 3755,
            "overwritedBlockNumber": -1,
            "priorityFee": "",
            "receiver": "0x794e6e91555438afc3ccf1c5076a74f42133d08d",
            "revertMessage": "",
            "sender": "0x38caa9a43c911a5bd745c5ba8d40dbaad26f90e1",
            "simulationEnable": true,
            "sourceTxnHash": "0x83e6dd350f6c33c2fb492e30c308baa40f57263266d6c021eaf7976e8fe16d2e",
            "status": true,
            "timestamp": "2020-04-07T22:31:29Z",
            "transactionFee": "0.0006411944",
            "txnHash": "0x83e6dd350f6c33c2fb492e30c308baa40f57263266d6c021eaf7976e8fe16d2e",
            "txnIndex": 81,
            "type": 0,
            "value": "0"
        },
        "fund_flow": [
            {
                "amount": "35,000",
                "from": "0x794e6e91555438afc3ccf1c5076a74f42133d08d",
                "id": 1,
                "isERC1155": false,
                "isERC721": false,
                "isReverted": false,
                "order": 1,
                "to": "0x38caa9a43c911a5bd745c5ba8d40dbaad26f90e1",
                "token": "0x6b175474e89094c44da98b954eedeac495271d0f"
            }
        ],
        "token_infos": [
            {
                "address": "0x6b175474e89094c44da98b954eedeac495271d0f",
                "decimals": 18
            },
            {
                "address": "0xc02aaa39b223fe8d0a0e5c4f27ead9083c756cc2",
                "decimals": 18
            },
            {
                "address": "0xeeeeeeeeeeeeeeeeeeeeeeeeeeeeeeeeeeeeeeee",
                "decimals": 18
            }
        ]
    },
    "address_label": {
        "labels": [
            {
                "address": "0x0000000000000000000000000000000000000002",
                "label": "Precompiled"
            },
            {
                "address": "0x0000000000000000000000000000000000000003",
                "label": "Precompiled"
            },
            {
                "address": "0x0000000000000000000000000000000000000004",
                "label": "Precompiled"
            },
            {
                "address": "0xeeeeeeeeeeeeeeeeeeeeeeeeeeeeeeeeeeeeeeee",
                "label": "Ether"
            },
            {
                "address": "0x6b175474e89094c44da98b954eedeac495271d0f",
                "label": "Sky: Dai Stablecoin"
            },
            {
                "address": "0x794e6e91555438afc3ccf1c5076a74f42133d08d",
                "label": "OasisDEX"
            },
            {
                "address": "0x0000000000000000000000000000000000000001",
                "label": "Precompiled"
            }
        ]
    },
    "trace": {
        "accountLabels": null,
        "dataMap": {
            "-1": {
                "invocation": {
                    "address": "0x38caa9a43c911a5bd745c5ba8d40dbaad26f90e1",
                    "callData": "",
                    "decodedMethod": null,
                    "errorInfo": "",
                    "fromAddress": "",
                    "gasUsed": 0,
                    "id": -1,
                    "methodDecoded": false,
                    "operation": "",
                    "output": "",
                    "revert": false,
                    "revertMessage": "",
                    "selector": "",
                    "status": false,
                    "value": ""
                },
                "nodeType": 0
            },
            "0": {
                "invocation": {
                    "address": "0x794e6e91555438afc3ccf1c5076a74f42133d08d",
                    "callData": "0x0000000000000000000000000000000000000000000000000000000000037f97",
                    "decodedMethod": {
                        "callParams": [
                            {
                                "name": "id",
                                "type": "bytes32",
                                "value": "0x0000000000000000000000000000000000000000000000000000000000037f97"
                            }
                        ],
                        "constructorArguments": "",
                        "name": "kill",
                        "returnParams": [],
                        "signature": "kill(bytes32)"
                    },
                    "errorInfo": "",
                    "fromAddress": "0x38caa9a43c911a5bd745c5ba8d40dbaad26f90e1",
                    "gasUsed": 72863,
                    "id": 0,
                    "methodDecoded": true,
                    "operation": "CALL",
                    "output": "",
                    "revert": false,
                    "revertMessage": "",
                    "selector": "0xb4f9b6c8",
                    "status": true,
                    "value": "0"
                },
                "nodeType": 0
            },
            "1": {
                "invocation": {
                    "address": "0x6b175474e89094c44da98b954eedeac495271d0f",
                    "callData": "0x00000000000000000000000038caa9a43c911a5bd745c5ba8d40dbaad26f90e10000000000000000000000000000000000000000000007695a92c20d6fe00000",
                    "decodedMethod": {
                        "callParams": [
                            {
                                "name": "dst",
                                "type": "address",
                                "value": "0x38caa9a43c911a5bd745c5ba8d40dbaad26f90e1"
                            },
                            {
                                "decimalAvailable": true,
                                "name": "wad",
                                "type": "uint256",
                                "value": "35,000,000,000,000,000,000,000"
                            }
                        ],
                        "constructorArguments": "",
                        "name": "transfer",
                        "returnParams": [
                            {
                                "name": "",
                                "type": "bool",
                                "value": true
                            }
                        ],
                        "signature": "transfer(address,uint256)"
                    },
                    "errorInfo": "",
                    "fromAddress": "0x794e6e91555438afc3ccf1c5076a74f42133d08d",
                    "gasUsed": 15374,
                    "id": 1,
                    "methodDecoded": true,
                    "operation": "CALL",
                    "output": "0x0000000000000000000000000000000000000000000000000000000000000001",
                    "revert": false,
                    "revertMessage": "",
                    "selector": "0xa9059cbb",
                    "status": true,
                    "value": "0"
                },
                "nodeType": 0
            },
            "2": {
                "event": {
                    "contract": "0x6b175474e89094c44da98b954eedeac495271d0f",
                    "decodedLog": {
                        "name": "Transfer",
                        "params": [
                            {
                                "name": "src",
                                "type": "address",
                                "value": "0x794e6e91555438afc3ccf1c5076a74f42133d08d"
                            },
                            {
                                "name": "dst",
                                "type": "address",
                                "value": "0x38caa9a43c911a5bd745c5ba8d40dbaad26f90e1"
                            },
                            {
                                "decimalAvailable": true,
                                "name": "wad",
                                "type": "uint256",
                                "value": "35,000,000,000,000,000,000,000"
                            }
                        ],
                        "signature": "Transfer(address,address,uint256)"
                    },
                    "id": 2,
                    "logData": "0x0000000000000000000000000000000000000000000007695a92c20d6fe00000",
                    "logDecoded": true,
                    "operation": "EVENT",
                    "revert": false,
                    "status": true,
                    "topics": [
                        "0xddf252ad1be2c89b69c2b068fc378daa952ba7f163c4a11628f55a4df523b3ef",
                        "0x000000000000000000000000794e6e91555438afc3ccf1c5076a74f42133d08d",
                        "0x00000000000000000000000038caa9a43c911a5bd745c5ba8d40dbaad26f90e1"
                    ]
                },
                "nodeType": 1
            },
            "3": {
                "event": {
                    "contract": "0x794e6e91555438afc3ccf1c5076a74f42133d08d",
                    "decodedLog": {
                        "name": "LogItemUpdate",
                        "params": [
                            {
                                "name": "id",
                                "type": "uint256",
                                "value": "229,271"
                            }
                        ],
                        "signature": "LogItemUpdate(uint256)"
                    },
                    "id": 3,
                    "logData": "0x0000000000000000000000000000000000000000000000000000000000037f97",
                    "logDecoded": true,
                    "operation": "EVENT",
                    "revert": false,
                    "status": true,
                    "topics": [
                        "0xa2c251311b1a7a475913900a2a73dc9789a21b04bc737e050bbc506dd4eb3488"
                    ]
                },
                "nodeType": 1
            },
            "4": {
                "event": {
                    "contract": "0x794e6e91555438afc3ccf1c5076a74f42133d08d",
                    "decodedLog": {
                        "name": "LogKill",
                        "params": [
                            {
                                "name": "id",
                                "type": "bytes32",
                                "value": "0x0000000000000000000000000000000000000000000000000000000000037f97"
                            },
                            {
                                "name": "pair",
                                "type": "bytes32",
                                "value": "0xd48d524c79122328c1c1ddff61941eef6bdd6e983337db0d6be78b288b345060"
                            },
                            {
                                "name": "maker",
                                "type": "address",
                                "value": "0x38caa9a43c911a5bd745c5ba8d40dbaad26f90e1"
                            },
                            {
                                "name": "pay_gem",
                                "type": "address",
                                "value": "0x6b175474e89094c44da98b954eedeac495271d0f"
                            },
                            {
                                "name": "buy_gem",
                                "type": "address",
                                "value": "0x2260fac5e5542a773aa44fbcfedf7c193bc2c599"
                            },
                            {
                                "name": "pay_amt",
                                "type": "uint128",
                                "value": "35,000,000,000,000,000,000,000"
                            },
                            {
                                "name": "buy_amt",
                                "type": "uint128",
                                "value": "514,700,208"
                            },
                            {
                                "name": "timestamp",
                                "type": "uint64",
                                "value": "1,586,298,689"
                            }
                        ],
                        "signature": "LogKill(bytes32,bytes32,address,address,address,uint128,uint128,uint64)"
                    },
                    "id": 4,
                    "logData": "0x0000000000000000000000006b175474e89094c44da98b954eedeac495271d0f0000000000000000000000002260fac5e5542a773aa44fbcfedf7c193bc2c5990000000000000000000000000000000000000000000007695a92c20d6fe00000000000000000000000000000000000000000000000000000000000001eadb3b0000000000000000000000000000000000000000000000000000000005e8cff41",
                    "logDecoded": true,
                    "operation": "EVENT",
                    "revert": false,
                    "status": true,
                    "topics": [
                        "0x9577941d28fff863bfbee4694a6a4a56fb09e169619189d2eaa750b5b4819995",
                        "0x0000000000000000000000000000000000000000000000000000000000037f97",
                        "0xd48d524c79122328c1c1ddff61941eef6bdd6e983337db0d6be78b288b345060",
                        "0x00000000000000000000000038caa9a43c911a5bd745c5ba8d40dbaad26f90e1"
                    ]
                },
                "nodeType": 1
            }
        },
        "gasFlame": [
            {
                "children": [
                    {
                        "children": [
                            {
                                "children": [],
                                "depth": 0,
                                "name": "Initial Gas",
                                "value": 21228
                            },
                            {
                                "children": [
                                    {
                                        "children": [],
                                        "depth": 1,
                                        "name": "transfer",
                                        "value": 15374
                                    }
                                ],
                                "depth": 0,
                                "name": "Executed Gas",
                                "value": 124497
                            }
                        ],
                        "depth": -1,
                        "name": "Actual Gas Used",
                        "value": 72863
                    },
                    {
                        "children": [],
                        "depth": -1,
                        "name": "Refunded Gas",
                        "value": 72862
                    }
                ],
                "depth": -2,
                "name": "Total Gas",
                "value": 145725
            }
        ],
        "isConfirmed": true,
        "mainTrace": [
            {
                "children": [
                    {
                        "children": [
                            {
                                "children": [
                                    {
                                        "children": [],
                                        "depth": 2,
                                        "id": 2,
                                        "order": 2
                                    }
                                ],
                                "depth": 1,
                                "id": 1,
                                "order": 1
                            },
                            {
                                "children": [],
                                "depth": 1,
                                "id": 3,
                                "order": 3
                            },
                            {
                                "children": [],
                                "depth": 1,
                                "id": 4,
                                "order": 4
                            }
                        ],
                        "depth": 0,
                        "id": 0,
                        "order": 0
                    }
                ],
                "depth": -1,
                "id": -1,
                "order": -1
            }
        ],
        "mainTraceNodeCount": 5,
        "parentIdMap": {
            "0": -1,
            "1": 0,
            "2": 1,
            "3": 0,
            "4": 0
        },
        "tidyTrace": [
            {
                "children": [
                    {
                        "children": [
                            {
                                "children": [
                                    {
                                        "children": [],
                                        "depth": 2,
                                        "id": 2,
                                        "order": 2
                                    }
                                ],
                                "depth": 1,
                                "id": 1,
                                "order": 1
                            },
                            {
                                "children": [],
                                "depth": 1,
                                "id": 3,
                                "order": 3
                            },
                            {
                                "children": [],
                                "depth": 1,
                                "id": 4,
                                "order": 4
                            }
                        ],
                        "depth": 0,
                        "id": 0,
                        "order": 0
                    }
                ],
                "depth": -1,
                "id": -1,
                "order": -1
            }
        ],
        "tidyTraceNodeCount": 5
    },
    "state_change": {
        "stateChanges": [
            {
                "address": "0x6b175474e89094c44da98b954eedeac495271d0f",
                "erc": "ERC-20",
                "slots": [
                    {
                        "current": "0x000000000000000000000000000000000000000000000ed2b525841adfc00000",
                        "key": "0x78848ead7855afaa1adfc59f51c02a3ef49b7ece27f0ed8b48ea636a67bc3fad",
                        "prev": "0x0000000000000000000000000000000000000000000007695a92c20d6fe00000"
                    },
                    {
                        "current": "0x000000000000000000000000000000000000000000016c1f227f45a22415c32f",
                        "key": "0xf2d8227c0711032ed91916fbc0bb548171ff01039cf00685c535178c7f0639c8",
                        "prev": "0x0000000000000000000000000000000000000000000173887d1207af93f5c32f"
                    }
                ],
                "storageVariables": [
                    {
                        "name": "balanceOf",
                        "type": "mapping(address => uint256)",
                        "value": {
                            "pairs": [
                                {
                                    "key": "0x38caa9a43c911a5bd745c5ba8d40dbaad26f90e1",
                                    "value": {
                                        "current": "70000000000000000000000",
                                        "prev": "35000000000000000000000",
                                        "typeTag": 1
                                    }
                                },
                                {
                                    "key": "0x794e6e91555438afc3ccf1c5076a74f42133d08d",
                                    "value": {
                                        "current": "1719515734612917878113071",
                                        "prev": "1754515734612917878113071",
                                        "typeTag": 1
                                    }
                                }
                            ],
                            "typeTag": 4
                        }
                    }
                ]
            },
            {
                "address": "0x794e6e91555438afc3ccf1c5076a74f42133d08d",
                "erc": "",
                "slots": [
                    {
                        "current": "0x000000000000000000000000000000000000000000000000000000000095f5ae",
                        "key": "0x1149d3f0d8e702a5c5c1563aa8d4d951ca14304bde337a5a5c1b83b7dec02d9c",
                        "prev": "0x0000000000000000000000000000000000000000000000000000000000000000"
                    },
                    {
                        "current": "0x0000000000000000000000000000000000000000000000000000000000000000",
                        "key": "0x055eafc617a39bfb251de2f6c918c3755422c4ced18b0e5bf8f85b048f320f55",
                        "prev": "0x0000000000000000000000006b175474e89094c44da98b954eedeac495271d0f"
                    },
                    {
                        "current": "0x000000000000000000000000000000000000000000000000000000000003719d",
                        "key": "0x4802db334d53b10fd20313616d04a3db7b6966cd2030c9166014617643635922",
                        "prev": "0x0000000000000000000000000000000000000000000000000000000000037f97"
                    },
                    {
                        "current": "0x0000000000000000000000000000000000000000000000000000000000000000",
                        "key": "0x055eafc617a39bfb251de2f6c918c3755422c4ced18b0e5bf8f85b048f320f56",
                        "prev": "0x000000000000000000000000000000000000000000000000000000001eadb3b0"
                    },
                    {
                        "current": "0x0000000000000000000000000000000000000000000000000000000000000000",
                        "key": "0x055eafc617a39bfb251de2f6c918c3755422c4ced18b0e5bf8f85b048f320f57",
                        "prev": "0x0000000000000000000000002260fac5e5542a773aa44fbcfedf7c193bc2c599"
                    },
                    {
                        "current": "0x0000000000000000000000000000000000000000000000000000000000000000",
                        "key": "0x055eafc617a39bfb251de2f6c918c3755422c4ced18b0e5bf8f85b048f320f58",
                        "prev": "0x00000000000000005e8cfed938caa9a43c911a5bd745c5ba8d40dbaad26f90e1"
                    },
                    {
                        "current": "0x0000000000000000000000000000000000000000000000000000000000000000",
                        "key": "0xaf389969dd0081a2dc20672dd59a47ac5bf66761f5a6d941b48f52023c8fb283",
                        "prev": "0x0000000000000000000000000000000000000000000000000000000000037f97"
                    },
                    {
                        "current": "0x0000000000000000000000000000000000000000000000000000000000000003",
                        "key": "0xba2d7b15533b5c7bdb1b7a5233d2922dd07e96c2607eb44b91a4276276454fa4",
                        "prev": "0x0000000000000000000000000000000000000000000000000000000000000004"
                    },
                    {
                        "current": "0x0000000000000000000000000000000000000000000000000000000000000000",
                        "key": "0x055eafc617a39bfb251de2f6c918c3755422c4ced18b0e5bf8f85b048f320f54",
                        "prev": "0x0000000000000000000000000000000000000000000007695a92c20d6fe00000"
                    }
                ],
                "storageVariables": [
                    {
                        "name": "_span",
                        "type": "mapping(address => mapping(address => uint256))",
                        "value": {
                            "pairs": [
                                {
                                    "key": "0x6b175474e89094c44da98b954eedeac495271d0f",
                                    "value": {
                                        "pairs": [
                                            {
                                                "key": "0x2260fac5e5542a773aa44fbcfedf7c193bc2c599",
                                                "value": {
                                                    "current": "3",
                                                    "prev": "4",
                                                    "typeTag": 1
                                                }
                                            }
                                        ],
                                        "typeTag": 4
                                    }
                                }
                            ],
                            "typeTag": 4
                        }
                    },
                    {
                        "name": "offers",
                        "type": "mapping(uint256 => struct SimpleMarket.OfferInfo)",
                        "value": {
                            "pairs": [
                                {
                                    "key": "229271",
                                    "value": {
                                        "fields": [
                                            {
                                                "name": "pay_amt",
                                                "type": "uint256",
                                                "value": {
                                                    "current": "0",
                                                    "prev": "35000000000000000000000",
                                                    "typeTag": 1
                                                }
                                            },
                                            {
                                                "name": "pay_gem",
                                                "type": "contract ERC20",
                                                "value": {
                                                    "current": "0x0000000000000000000000000000000000000000",
                                                    "prev": "0x6b175474e89094c44da98b954eedeac495271d0f",
                                                    "typeTag": 1
                                                }
                                            },
                                            {
                                                "name": "buy_amt",
                                                "type": "uint256",
                                                "value": {
                                                    "current": "0",
                                                    "prev": "514700208",
                                                    "typeTag": 1
                                                }
                                            },
                                            {
                                                "name": "buy_gem",
                                                "type": "contract ERC20",
                                                "value": {
                                                    "current": "0x0000000000000000000000000000000000000000",
                                                    "prev": "0x2260fac5e5542a773aa44fbcfedf7c193bc2c599",
                                                    "typeTag": 1
                                                }
                                            },
                                            {
                                                "name": "owner",
                                                "type": "address",
                                                "value": {
                                                    "current": "0x0000000000000000000000000000000000000000",
                                                    "prev": "0x38caa9a43c911a5bd745c5ba8d40dbaad26f90e1",
                                                    "typeTag": 1
                                                }
                                            },
                                            {
                                                "name": "timestamp",
                                                "type": "uint64",
                                                "value": {
                                                    "current": "0",
                                                    "prev": "1586298585",
                                                    "typeTag": 1
                                                }
                                            }
                                        ],
                                        "typeTag": 3
                                    }
                                }
                            ],
                            "typeTag": 4
                        }
                    },
                    {
                        "name": "_best",
                        "type": "mapping(address => mapping(address => uint256))",
                        "value": {
                            "pairs": [
                                {
                                    "key": "0x6b175474e89094c44da98b954eedeac495271d0f",
                                    "value": {
                                        "pairs": [
                                            {
                                                "key": "0x2260fac5e5542a773aa44fbcfedf7c193bc2c599",
                                                "value": {
                                                    "current": "225693",
                                                    "prev": "229271",
                                                    "typeTag": 1
                                                }
                                            }
                                        ],
                                        "typeTag": 4
                                    }
                                }
                            ],
                            "typeTag": 4
                        }
                    },
                    {
                        "name": "_rank",
                        "type": "mapping(uint256 => struct MatchingMarket.sortInfo)",
                        "value": {
                            "pairs": [
                                {
                                    "key": "225693",
                                    "value": {
                                        "fields": [
                                            {
                                                "name": "next",
                                                "type": "uint256",
                                                "value": {
                                                    "current": "0",
                                                    "prev": "229271",
                                                    "typeTag": 1
                                                }
                                            }
                                        ],
                                        "typeTag": 3
                                    }
                                },
                                {
                                    "key": "229271",
                                    "value": {
                                        "fields": [
                                            {
                                                "name": "delb",
                                                "type": "uint256",
                                                "value": {
                                                    "current": "9827758",
                                                    "prev": "0",
                                                    "typeTag": 1
                                                }
                                            }
                                        ],
                                        "typeTag": 3
                                    }
                                }
                            ],
                            "typeTag": 4
                        }
                    }
                ]
            }
        ]
    }
}