{
    "balance_change": {
        "balanceChanges": [
            {
                "account": "0xdd36d585a0d32b4ae6f1790bc4292308e21a42e3",
                "assets": [
                    {
                        "address": "0x6b175474e89094c44da98b954eedeac495271d0f",
                        "amount": "194.149826285893441344",
                        "iconUrl": "https://assets.blocksec.com/icon/39aead569b9c011cb6f69734d9abbc9ab6a80049fe93bbd12bb473a3e0e859a3.png",
                        "isERC1155": false,
                        "isERC721": false,
                        "sign": true,
                        "value": "194.538126"
                    },
                    {
                        "address": "0xeeeeeeeeeeeeeeeeeeeeeeeeeeeeeeeeeeeeeeee",
                        "amount": "0.02",
                        "iconUrl": "https://assets.blocksec.com/image/1663669189317-3.png",
                        "isERC1155": false,
                        "isERC721": false,
                        "sign": false,
                        "value": "43.2494"
                    }
                ]
            },
            {
                "account": "0x23773e65ed146a459791799d01336db287f25334",
                "assets": [
                    {
                        "address": "0x6b175474e89094c44da98b954eedeac495271d0f",
                        "amount": "100,000",
                        "iconUrl": "https://assets.blocksec.com/icon/39aead569b9c011cb6f69734d9abbc9ab6a80049fe93bbd12bb473a3e0e859a3.png",
                        "isERC1155": false,
                        "isERC721": false,
                        "sign": false,
                        "value": "100200"
                    }
                ]
            },
            {
                "account": "0x38c0039247a31f3939bae65e953612125cb88268",
                "assets": [
                    {
                        "address": "0x6b175474e89094c44da98b954eedeac495271d0f",
                        "amount": "99,805.850173714106558656",
                        "iconUrl": "https://assets.blocksec.com/icon/39aead569b9c011cb6f69734d9abbc9ab6a80049fe93bbd12bb473a3e0e859a3.png",
                        "isERC1155": false,
                        "isERC721": false,
                        "sign": true,
                        "value": "100005.4619"
                    },
                    {
                        "address": "0xeeeeeeeeeeeeeeeeeeeeeeeeeeeeeeeeeeeeeeee",
                        "amount": "0.02",
                        "iconUrl": "https://assets.blocksec.com/image/1663669189317-3.png",
                        "isERC1155": false,
                        "isERC721": false,
                        "sign": true,
                        "value": "43.2494"
                    }
                ]
            }
        ]
    },
    "profile": {
        "basic_info": {
            "baseFee": "",
            "blockNumber": 12265523,
            "callData": "0xb438689f00000000000000000000000023773e65ed146a459791799d01336db287f2533400000000000000000000000000000000000000000000000000000000000001002b02e51b1907a4b310a09b657ce2282e2eec10a4547f66ced094550793d64ff12323c05de522852f31d8f44646a73482d592fa1253cb7576f8c4f834b994215200000000000000000000000038c0039247a31f3939bae65e953612125cb88268000000000000000000000000dd36d585a0d32b4ae6f1790bc4292308e21a42e300000000000000000000000000000000000000000000000a865ebe5b6e79d74000000000000000000000000000000000000000000000000000470de4df82000000000000000000000000000000000000000000000000000000000000000001000d7ca01e4ecc60799ce4caf9d92e59763d027c8c689df53668732e7364b04a102ad2ac705a60b0ad027380f14c8401ad3468bad5a1ff128debde591332fa581310649afe2bbb4f7ace2335ed0bb9f3a12737161d67b00f539f1250c66a5f40f02bb49ee1ff58e40d48899466a7dc62854d72ac286ccc97aaf0f9ceef06b8827814e2ead63f3cefaa7601120b30d221043e799dccd8715a79fed4e31205b4a26404ad20c522fe2e802132106b27f381550f00e4c1ba33b64ddc5bbe2c39e9ab2f2ebac9f49fbfdaeff57127ce4b0376477b50528e6ff09a8c8c42455dff8142fd0a5bfe7c69a48f8f0af5135b76671ee8f50dc2b42c76157fc159c21a5487a58c",
            "debugEnable": true,
            "errorInfo": "",
            "eventCount": 4,
            "feeRecipient": "0x5a0b54d5dc17e0aadc383d2db43b0a0d3e029c4c",
            "formatValue": "0.02",
            "gasLimit": 439840,
            "gasPrice": "115.5",
            "gasUsed": 396050,
            "intTxnCount": 21,
            "internalRevert": false,
            "internalRevertMessage": "",
            "isContractCreation": false,
            "isFlashloan": false,
            "maxFee": "",
            "nonce": 1149,
            "overwritedBlockNumber": -1,
            "priorityFee": "",
            "receiver": "0x722122df12d4e14e13ac3b6895a86e84145b6967",
            "revertMessage": "",
            "sender": "0xdd36d585a0d32b4ae6f1790bc4292308e21a42e3",
            "simulationEnable": true,
            "sourceTxnHash": "0x831283254336ec3dd396ad21309c68885e2643b36db9ba909ef94c71e147aa05",
            "status": true,
            "timestamp": "2021-04-18T17:47:27Z",
            "transactionFee": "0.045743775",
            "txnHash": "0x831283254336ec3dd396ad21309c68885e2643b36db9ba909ef94c71e147aa05",
            "txnIndex": 64,
            "type": 0,
            "value": "20000000000000000"
        },
        "fund_flow": [
            {
                "amount": "0.02",
                "from": "0xdd36d585a0d32b4ae6f1790bc4292308e21a42e3",
                "id": 1,
                "isERC1155": false,
                "isERC721": false,
                "isReverted": false,
                "order": 1,
                "to": "0x722122df12d4e14e13ac3b6895a86e84145b6967",
                "token": "0xeeeeeeeeeeeeeeeeeeeeeeeeeeeeeeeeeeeeeeee"
            },
            {
                "amount": "0.02",
                "from": "0x722122df12d4e14e13ac3b6895a86e84145b6967",
                "id": 2,
                "isERC1155": false,
                "isERC721": false,
                "isReverted": false,
                "order": 2,
                "to": "0x23773e65ed146a459791799d01336db287f25334",
                "token": "0xeeeeeeeeeeeeeeeeeeeeeeeeeeeeeeeeeeeeeeee"
            },
            {
                "amount": "99,805.850173714106558656",
                "from": "0x23773e65ed146a459791799d01336db287f25334",
                "id": 3,
                "isERC1155": false,
                "isERC721": false,
                "isReverted": false,
                "order": 3,
                "to": "0x38c0039247a31f3939bae65e953612125cb88268",
                "token": "0x6b175474e89094c44da98b954eedeac495271d0f"
            },
            {
                "amount": "194.149826285893441344",
                "from": "0x23773e65ed146a459791799d01336db287f25334",
                "id": 4,
                "isERC1155": false,
                "isERC721": false,
                "isReverted": false,
                "order": 4,
                "to": "0xdd36d585a0d32b4ae6f1790bc4292308e21a42e3",
                "token": "0x6b175474e89094c44da98b954eedeac495271d0f"
            },
            {
                "amount": "0.02",
                "from": "0x23773e65ed146a459791799d01336db287f25334",
                "id": 5,
                "isERC1155": false,
                "isERC721": false,
                "isReverted": false,
                "order": 5,
                "to": "0x38c0039247a31f3939bae65e953612125cb88268",
                "token": "0xeeeeeeeeeeeeeeeeeeeeeeeeeeeeeeeeeeeeeeee"
            }
        ],
        "token_infos": [
            {
                "address": "0x6b175474e89094c44da98b954eedeac495271d0f",
                "decimals": 18
            },
            {
                "address": "0xc02aaa39b223fe8d0a0e5c4f27ead9083c756cc2",
                "decimals": 18
            },
            {
                "address": "0xeeeeeeeeeeeeeeeeeeeeeeeeeeeeeeeeeeeeeeee",
                "decimals": 18
            }
        ]
    },
    "address_label": {
        "labels": [
            {
                "address": "0x0000000000000000000000000000000000000008",
                "label": "Null: 0x000...008"
            },
            {
                "address": "0x722122df12d4e14e13ac3b6895a86e84145b6967",
                "label": "Tornado.Cash: Proxy"
            },
            {
                "address": "0xce172ce1f20ec0b3728c9965470eaf994a03557a",
                "label": "Verifier"
            },
            {
                "address": "0xeeeeeeeeeeeeeeeeeeeeeeeeeeeeeeeeeeeeeeee",
                "label": "Ether"
            },
            {
                "address": "0x0000000000000000000000000000000000000006",
                "label": "Null: 0x000...006"
            },
            {
                "address": "0x23773e65ed146a459791799d01336db287f25334",
                "label": "Tornado.Cash: 100,000 DAI"
            },
            {
                "address": "0x200a79068d8141924b511bc78cb55dca89cf5c2e",
                "label": "TornadoTrees"
            },
            {
                "address": "0x0000000000000000000000000000000000000002",
                "label": "Precompiled"
            },
            {
                "address": "0x527653ea119f3e6a1f5bd18fbf4714081d7b31ce",
                "label": "Tornado.Cash: Trees"
            },
            {
                "address": "0x6b175474e89094c44da98b954eedeac495271d0f",
                "label": "Sky: Dai Stablecoin"
            },
            {
                "address": "0x0000000000000000000000000000000000000007",
                "label": "Null: 0x000...007"
            },
            {
                "address": "0x0000000000000000000000000000000000000001",
                "label": "Precompiled"
            },
            {
                "address": "0x0000000000000000000000000000000000000003",
                "label": "Precompiled"
            },
            {
                "address": "0x0000000000000000000000000000000000000004",
                "label": "Precompiled"
            }
        ]
    },
    "trace": {
        "accountLabels": null,
        "dataMap": {
            "-1": {
                "invocation": {
                    "address": "0xdd36d585a0d32b4ae6f1790bc4292308e21a42e3",
                    "callData": "",
                    "decodedMethod": null,
                    "errorInfo": "",
                    "fromAddress": "",
                    "gasUsed": 0,
                    "id": -1,
                    "methodDecoded": false,
                    "operation": "",
                    "output": "",
                    "revert": false,
                    "revertMessage": "",
                    "selector": "",
                    "status": false,
                    "value": ""
                },
                "nodeType": 0
            },
            "0": {
                "invocation": {
                    "address": "0x722122df12d4e14e13ac3b6895a86e84145b6967",
                    "callData": "0x00000000000000000000000023773e65ed146a459791799d01336db287f2533400000000000000000000000000000000000000000000000000000000000001002b02e51b1907a4b310a09b657ce2282e2eec10a4547f66ced094550793d64ff12323c05de522852f31d8f44646a73482d592fa1253cb7576f8c4f834b994215200000000000000000000000038c0039247a31f3939bae65e953612125cb88268000000000000000000000000dd36d585a0d32b4ae6f1790bc4292308e21a42e300000000000000000000000000000000000000000000000a865ebe5b6e79d74000000000000000000000000000000000000000000000000000470de4df82000000000000000000000000000000000000000000000000000000000000000001000d7ca01e4ecc60799ce4caf9d92e59763d027c8c689df53668732e7364b04a102ad2ac705a60b0ad027380f14c8401ad3468bad5a1ff128debde591332fa581310649afe2bbb4f7ace2335ed0bb9f3a12737161d67b00f539f1250c66a5f40f02bb49ee1ff58e40d48899466a7dc62854d72ac286ccc97aaf0f9ceef06b8827814e2ead63f3cefaa7601120b30d221043e799dccd8715a79fed4e31205b4a26404ad20c522fe2e802132106b27f381550f00e4c1ba33b64ddc5bbe2c39e9ab2f2ebac9f49fbfdaeff57127ce4b0376477b50528e6ff09a8c8c42455dff8142fd0a5bfe7c69a48f8f0af5135b76671ee8f50dc2b42c76157fc159c21a5487a58c",
                    "decodedMethod": {
                        "callParams": [
                            {
                                "name": "_tornado",
                                "type": "address",
                                "value": "0x23773e65ed146a459791799d01336db287f25334"
                            },
                            {
                                "name": "_proof",
                                "type": "bytes",
                                "value": "0x0d7ca01e4ecc60799ce4caf9d92e59763d027c8c689df53668732e7364b04a102ad2ac705a60b0ad027380f14c8401ad3468bad5a1ff128debde591332fa581310649afe2bbb4f7ace2335ed0bb9f3a12737161d67b00f539f1250c66a5f40f02bb49ee1ff58e40d48899466a7dc62854d72ac286ccc97aaf0f9ceef06b8827814e2ead63f3cefaa7601120b30d221043e799dccd8715a79fed4e31205b4a26404ad20c522fe2e802132106b27f381550f00e4c1ba33b64ddc5bbe2c39e9ab2f2ebac9f49fbfdaeff57127ce4b0376477b50528e6ff09a8c8c42455dff8142fd0a5bfe7c69a48f8f0af5135b76671ee8f50dc2b42c76157fc159c21a5487a58c"
                            },
                            {
                                "name": "_root",
                                "type": "bytes32",
                                "value": "0x2b02e51b1907a4b310a09b657ce2282e2eec10a4547f66ced094550793d64ff1"
                            },
                            {
                                "name": "_nullifierHash",
                                "type": "bytes32",
                                "value": "0x2323c05de522852f31d8f44646a73482d592fa1253cb7576f8c4f834b9942152"
                            },
                            {
                                "name": "_recipient",
                                "type": "address",
                                "value": "0x38c0039247a31f3939bae65e953612125cb88268"
                            },
                            {
                                "name": "_relayer",
                                "type": "address",
                                "value": "0xdd36d585a0d32b4ae6f1790bc4292308e21a42e3"
                            },
                            {
                                "name": "_fee",
                                "type": "uint256",
                                "value": "194,149,826,285,893,441,344"
                            },
                            {
                                "name": "_refund",
                                "type": "uint256",
                                "value": "20,000,000,000,000,000"
                            }
                        ],
                        "constructorArguments": "",
                        "name": "withdraw",
                        "returnParams": [],
                        "signature": "withdraw(address,bytes,bytes32,bytes32,address,address,uint256,uint256)"
                    },
                    "errorInfo": "",
                    "fromAddress": "0xdd36d585a0d32b4ae6f1790bc4292308e21a42e3",
                    "gasUsed": 396050,
                    "id": 0,
                    "methodDecoded": true,
                    "operation": "CALL",
                    "output": "",
                    "revert": false,
                    "revertMessage": "",
                    "selector": "0xb438689f",
                    "status": true,
                    "value": "0.02"
                },
                "nodeType": 0
            },
            "1": {
                "invocation": {
                    "address": "0x23773e65ed146a459791799d01336db287f25334",
                    "callData": "0x00000000000000000000000000000000000000000000000000000000000000e02b02e51b1907a4b310a09b657ce2282e2eec10a4547f66ced094550793d64ff12323c05de522852f31d8f44646a73482d592fa1253cb7576f8c4f834b994215200000000000000000000000038c0039247a31f3939bae65e953612125cb88268000000000000000000000000dd36d585a0d32b4ae6f1790bc4292308e21a42e300000000000000000000000000000000000000000000000a865ebe5b6e79d74000000000000000000000000000000000000000000000000000470de4df82000000000000000000000000000000000000000000000000000000000000000001000d7ca01e4ecc60799ce4caf9d92e59763d027c8c689df53668732e7364b04a102ad2ac705a60b0ad027380f14c8401ad3468bad5a1ff128debde591332fa581310649afe2bbb4f7ace2335ed0bb9f3a12737161d67b00f539f1250c66a5f40f02bb49ee1ff58e40d48899466a7dc62854d72ac286ccc97aaf0f9ceef06b8827814e2ead63f3cefaa7601120b30d221043e799dccd8715a79fed4e31205b4a26404ad20c522fe2e802132106b27f381550f00e4c1ba33b64ddc5bbe2c39e9ab2f2ebac9f49fbfdaeff57127ce4b0376477b50528e6ff09a8c8c42455dff8142fd0a5bfe7c69a48f8f0af5135b76671ee8f50dc2b42c76157fc159c21a5487a58c",
                    "decodedMethod": {
                        "callParams": [
                            {
                                "name": "_proof",
                                "type": "bytes",
                                "value": "0x0d7ca01e4ecc60799ce4caf9d92e59763d027c8c689df53668732e7364b04a102ad2ac705a60b0ad027380f14c8401ad3468bad5a1ff128debde591332fa581310649afe2bbb4f7ace2335ed0bb9f3a12737161d67b00f539f1250c66a5f40f02bb49ee1ff58e40d48899466a7dc62854d72ac286ccc97aaf0f9ceef06b8827814e2ead63f3cefaa7601120b30d221043e799dccd8715a79fed4e31205b4a26404ad20c522fe2e802132106b27f381550f00e4c1ba33b64ddc5bbe2c39e9ab2f2ebac9f49fbfdaeff57127ce4b0376477b50528e6ff09a8c8c42455dff8142fd0a5bfe7c69a48f8f0af5135b76671ee8f50dc2b42c76157fc159c21a5487a58c"
                            },
                            {
                                "name": "_root",
                                "type": "bytes32",
                                "value": "0x2b02e51b1907a4b310a09b657ce2282e2eec10a4547f66ced094550793d64ff1"
                            },
                            {
                                "name": "_nullifierHash",
                                "type": "bytes32",
                                "value": "0x2323c05de522852f31d8f44646a73482d592fa1253cb7576f8c4f834b9942152"
                            },
                            {
                                "name": "_recipient",
                                "type": "address",
                                "value": "0x38c0039247a31f3939bae65e953612125cb88268"
                            },
                            {
                                "name": "_relayer",
                                "type": "address",
                                "value": "0xdd36d585a0d32b4ae6f1790bc4292308e21a42e3"
                            },
                            {
                                "name": "_fee",
                                "type": "uint256",
                                "value": "194,149,826,285,893,441,344"
                            },
                            {
                                "name": "_refund",
                                "type": "uint256",
                                "value": "20,000,000,000,000,000"
                            }
                        ],
                        "constructorArguments": "",
                        "name": "withdraw",
                        "returnParams": [],
                        "signature": "withdraw(bytes,bytes32,bytes32,address,address,uint256,uint256)"
                    },
                    "errorInfo": "",
                    "fromAddress": "0x722122df12d4e14e13ac3b6895a86e84145b6967",
                    "gasUsed": 315256,
                    "id": 1,
                    "methodDecoded": true,
                    "operation": "CALL",
                    "output": "",
                    "revert": false,
                    "revertMessage": "",
                    "selector": "0x21a0adb6",
                    "status": true,
                    "value": "0.02"
                },
                "nodeType": 0
            },
            "10": {
                "invocation": {
                    "address": "0x0000000000000000000000000000000000000007",
                    "callData": "0xca9d61357ba2d641604cf4852e21ef54faa180fe539c18994dc1da5a2f09dd9972a1af5f7bcfccf3d7ab600c9d898ea6d6933150ba0ae228ece17e5f000000000000000000000000dd36d585a0d32b4ae6f1790bc4292308e21a42e30000000000000000000000000000000000000000000000000000000000000000",
                    "decodedMethod": null,
                    "errorInfo": "",
                    "fromAddress": "0xce172ce1f20ec0b3728c9965470eaf994a03557a",
                    "gasUsed": 6000,
                    "id": 10,
                    "methodDecoded": false,
                    "operation": "STATICCALL",
                    "output": "0x1bcac4a83bba7c4f62ad2a408180df9098aad58badaeac5c46a078c0540e222414855d134f00cd3c46e81db1a27d56d27f5028b1bde2451cd923128555fe4d3a",
                    "revert": false,
                    "revertMessage": "",
                    "selector": "0x12fbb5bf",
                    "status": true,
                    "value": "0"
                },
                "nodeType": 0
            },
            "11": {
                "invocation": {
                    "address": "0x0000000000000000000000000000000000000006",
                    "callData": "0xee920c90deaa879f97019975dc14ab94f1a87620f86bf8c27e42d2e81604c5378d716e70153a00743562067ec202b581b4776691c7b55d2f5118b9dd1bcac4a83bba7c4f62ad2a408180df9098aad58badaeac5c46a078c0540e222414855d134f00cd3c46e81db1a27d56d27f5028b1bde2451cd923128555fe4d3a00000000000000000000000000000000000000000000000000000000000000000000000000000000000000000000000000000000000000000000000000000000",
                    "decodedMethod": null,
                    "errorInfo": "",
                    "fromAddress": "0xce172ce1f20ec0b3728c9965470eaf994a03557a",
                    "gasUsed": 150,
                    "id": 11,
                    "methodDecoded": false,
                    "operation": "STATICCALL",
                    "output": "0x171a9fff5996037f6a87d985c5a4fe9bab637ab88b76e9acc832bd7d5c756aee1bea0ef643243b8c5da82461f6a65f905d3b740f3335f858c383740ac2bad6c1",
                    "revert": false,
                    "revertMessage": "",
                    "selector": "0x1b946188",
                    "status": true,
                    "value": "0"
                },
                "nodeType": 0
            },
            "12": {
                "invocation": {
                    "address": "0x0000000000000000000000000000000000000007",
                    "callData": "0x96fdf2103022c64151ce05f7c7a6d9200e8d819fa59e654fc4bfe83c2d64f72ef4eddf9ca032058ed2bf691758387e913a77cf99d6a3cfb37c8ba7ee00000000000000000000000000000000000000000000000a865ebe5b6e79d7400000000000000000000000000000000000000000000000000000000000000000",
                    "decodedMethod": null,
                    "errorInfo": "",
                    "fromAddress": "0xce172ce1f20ec0b3728c9965470eaf994a03557a",
                    "gasUsed": 6000,
                    "id": 12,
                    "methodDecoded": false,
                    "operation": "STATICCALL",
                    "output": "0x25d38b5aed0cdf338dee901d1c7f36da956a332f904fdd540761cb9f3e02e7922b76fa32918e2f4f7abc77331d9f8fc279692cdd006053f4e6e349ae7ea0905d",
                    "revert": false,
                    "revertMessage": "",
                    "selector": "0x0adb5137",
                    "status": true,
                    "value": "0"
                },
                "nodeType": 0
            },
            "13": {
                "invocation": {
                    "address": "0x0000000000000000000000000000000000000006",
                    "callData": "0x5996037f6a87d985c5a4fe9bab637ab88b76e9acc832bd7d5c756aee1bea0ef643243b8c5da82461f6a65f905d3b740f3335f858c383740ac2bad6c125d38b5aed0cdf338dee901d1c7f36da956a332f904fdd540761cb9f3e02e7922b76fa32918e2f4f7abc77331d9f8fc279692cdd006053f4e6e349ae7ea0905d00000000000000000000000000000000000000000000000000000000000000000000000000000000000000000000000000000000000000000000000000000000",
                    "decodedMethod": null,
                    "errorInfo": "",
                    "fromAddress": "0xce172ce1f20ec0b3728c9965470eaf994a03557a",
                    "gasUsed": 150,
                    "id": 13,
                    "methodDecoded": false,
                    "operation": "STATICCALL",
                    "output": "0x0216321a4ce4e491a2a4a9de451ca6cf981532f03087ffb3d8fa8ad760093a8f001f667e701e95257b88ba5b918e0ae6bf49ff85ed7b69ae81a3b29b281b4c49",
                    "revert": false,
                    "revertMessage": "",
                    "selector": "0x171a9fff",
                    "status": true,
                    "value": "0"
                },
                "nodeType": 0
            },
            "14": {
                "invocation": {
                    "address": "0x0000000000000000000000000000000000000007",
                    "callData": "0xfda74bfd2c4393b6803d775545de6fa89145f4a23476241d9881b6610bbe41e52237ac13eb7b01f3cb999b7394d08734e71b1c3ada62713e17eb560c00000000000000000000000000000000000000000000000000470de4df8200000000000000000000000000000000000000000000000000000000000000000000",
                    "decodedMethod": null,
                    "errorInfo": "",
                    "fromAddress": "0xce172ce1f20ec0b3728c9965470eaf994a03557a",
                    "gasUsed": 6000,
                    "id": 14,
                    "methodDecoded": false,
                    "operation": "STATICCALL",
                    "output": "0x2ec519509b46dee49f244a8a0b20d466e447c9b14403a61eaf66c86e4847d8b409203f47cd09a33417f55fb4c010f0abf90c66e806a5dc081d4281f926e721e2",
                    "revert": false,
                    "revertMessage": "",
                    "selector": "0x21e7c9bf",
                    "status": true,
                    "value": "0"
                },
                "nodeType": 0
            },
            "15": {
                "invocation": {
                    "address": "0x0000000000000000000000000000000000000006",
                    "callData": "0x4ce4e491a2a4a9de451ca6cf981532f03087ffb3d8fa8ad760093a8f001f667e701e95257b88ba5b918e0ae6bf49ff85ed7b69ae81a3b29b281b4c492ec519509b46dee49f244a8a0b20d466e447c9b14403a61eaf66c86e4847d8b409203f47cd09a33417f55fb4c010f0abf90c66e806a5dc081d4281f926e721e200000000000000000000000000000000000000000000000000000000000000000000000000000000000000000000000000000000000000000000000000000000",
                    "decodedMethod": null,
                    "errorInfo": "",
                    "fromAddress": "0xce172ce1f20ec0b3728c9965470eaf994a03557a",
                    "gasUsed": 150,
                    "id": 15,
                    "methodDecoded": false,
                    "operation": "STATICCALL",
                    "output": "0x0448262b7fc64a59639890465912f3516df4e33b4ce6353d84747b7324ecf25927f13070da82b149c1a4b1f9307bc40f98efa69cbe75ab62db95165484c3b79c",
                    "revert": false,
                    "revertMessage": "",
                    "selector": "0x0216321a",
                    "status": true,
                    "value": "0"
                },
                "nodeType": 0
            },
            "16": {
                "invocation": {
                    "address": "0x0000000000000000000000000000000000000008",
                    "callData": "0x4ecc60799ce4caf9d92e59763d027c8c689df53668732e7364b04a100591a20286d0ef7cb5dcc4c534fd56b06318afbbc672b7ff50423303a582a53410649afe2bbb4f7ace2335ed0bb9f3a12737161d67b00f539f1250c66a5f40f02bb49ee1ff58e40d48899466a7dc62854d72ac286ccc97aaf0f9ceef06b8827814e2ead63f3cefaa7601120b30d221043e799dccd8715a79fed4e31205b4a26404ad20c522fe2e802132106b27f381550f00e4c1ba33b64ddc5bbe2c39e9ab2f2dbfc3ec62a3eee5a3b4b464bcf1f8527bbca12adea0f1f12033cd4f61b0e09119e55bd0b72c126da18665039556776642ff82e2f347f24fcea2475f4db087df1ae724ab134e5a7c6bd8a116fa5505b259522c0f164a5e8126e3ec7d34465f6e009f1bcdc853f8e3531756bb625b0d1dc014f4ab57c3f79f4f4e2e7ef7e0ead623a8ca5760457e726365b92fd0ceb486665797cd68c35dcffd8e4ae8066691e913ec7182c9fd68331a10f8be0fe885d730de5c7f89aa7d0b7bafaa009bbc9e3e0448262b7fc64a59639890465912f3516df4e33b4ce6353d84747b7324ecf25927f13070da82b149c1a4b1f9307bc40f98efa69cbe75ab62db95165484c3b79c198e9393920d483a7260bfb731fb5d25f1aa493335a9e71297e485b7aef312c21800deef121f1e76426a00665e5c4479674322d4f75edadd46debd5cd992f6ed090689d0585ff075ec9e99ad690c3395bc4b313370b38ef355acdadcd122975b12c85ea5db8c6deb4aab71808dcb408fe3d1e7690c43d37b4ce6cc0166fa7daa2ebac9f49fbfdaeff57127ce4b0376477b50528e6ff09a8c8c42455dff8142fd0a5bfe7c69a48f8f0af5135b76671ee8f50dc2b42c76157fc159c21a5487a58c2f0c63d0c53b3dfbca27b6b43ae7fbf55a38d78a21470996485b03128accc20800556502356e37ed150db2e36531b0f275fd6835c0fc1945922e270b48c48a8602644c27b5dbd793592a70b735e22c798a5e309fa17a992a7dc2a050e01b298f194776b6a53439d7336f389d2a8f6651e40885f5ca2538b0dc9cb534fb23f7fa",
                    "decodedMethod": null,
                    "errorInfo": "",
                    "fromAddress": "0xce172ce1f20ec0b3728c9965470eaf994a03557a",
                    "gasUsed": 181000,
                    "id": 16,
                    "methodDecoded": false,
                    "operation": "STATICCALL",
                    "output": "0x0000000000000000000000000000000000000000000000000000000000000001",
                    "revert": false,
                    "revertMessage": "",
                    "selector": "0x0d7ca01e",
                    "status": true,
                    "value": "0"
                },
                "nodeType": 0
            },
            "17": {
                "invocation": {
                    "address": "0x6b175474e89094c44da98b954eedeac495271d0f",
                    "callData": "0x00000000000000000000000038c0039247a31f3939bae65e953612125cb882680000000000000000000000000000000000000000000015227c6922ef880628c0",
                    "decodedMethod": {
                        "callParams": [
                            {
                                "name": "dst",
                                "type": "address",
                                "value": "0x38c0039247a31f3939bae65e953612125cb88268"
                            },
                            {
                                "decimalAvailable": true,
                                "name": "wad",
                                "type": "uint256",
                                "value": "99,805,850,173,714,106,558,656"
                            }
                        ],
                        "constructorArguments": "",
                        "name": "transfer",
                        "returnParams": [
                            {
                                "name": "",
                                "type": "bool",
                                "value": true
                            }
                        ],
                        "signature": "transfer(address,uint256)"
                    },
                    "errorInfo": "",
                    "fromAddress": "0x23773e65ed146a459791799d01336db287f25334",
                    "gasUsed": 13074,
                    "id": 17,
                    "methodDecoded": true,
                    "operation": "CALL",
                    "output": "0x0000000000000000000000000000000000000000000000000000000000000001",
                    "revert": false,
                    "revertMessage": "",
                    "selector": "0xa9059cbb",
                    "status": true,
                    "value": "0"
                },
                "nodeType": 0
            },
            "18": {
                "event": {
                    "contract": "0x6b175474e89094c44da98b954eedeac495271d0f",
                    "decodedLog": {
                        "name": "Transfer",
                        "params": [
                            {
                                "name": "src",
                                "type": "address",
                                "value": "0x23773e65ed146a459791799d01336db287f25334"
                            },
                            {
                                "name": "dst",
                                "type": "address",
                                "value": "0x38c0039247a31f3939bae65e953612125cb88268"
                            },
                            {
                                "decimalAvailable": true,
                                "name": "wad",
                                "type": "uint256",
                                "value": "99,805,850,173,714,106,558,656"
                            }
                        ],
                        "signature": "Transfer(address,address,uint256)"
                    },
                    "id": 18,
                    "logData": "0x0000000000000000000000000000000000000000000015227c6922ef880628c0",
                    "logDecoded": true,
                    "operation": "EVENT",
                    "revert": false,
                    "status": true,
                    "topics": [
                        "0xddf252ad1be2c89b69c2b068fc378daa952ba7f163c4a11628f55a4df523b3ef",
                        "0x00000000000000000000000023773e65ed146a459791799d01336db287f25334",
                        "0x00000000000000000000000038c0039247a31f3939bae65e953612125cb88268"
                    ]
                },
                "nodeType": 1
            },
            "19": {
                "invocation": {
                    "address": "0x6b175474e89094c44da98b954eedeac495271d0f",
                    "callData": "0x000000000000000000000000dd36d585a0d32b4ae6f1790bc4292308e21a42e300000000000000000000000000000000000000000000000a865ebe5b6e79d740",
                    "decodedMethod": {
                        "callParams": [
                            {
                                "name": "dst",
                                "type": "address",
                                "value": "0xdd36d585a0d32b4ae6f1790bc4292308e21a42e3"
                            },
                            {
                                "decimalAvailable": true,
                                "name": "wad",
                                "type": "uint256",
                                "value": "194,149,826,285,893,441,344"
                            }
                        ],
                        "constructorArguments": "",
                        "name": "transfer",
                        "returnParams": [
                            {
                                "name": "",
                                "type": "bool",
                                "value": true
                            }
                        ],
                        "signature": "transfer(address,uint256)"
                    },
                    "errorInfo": "",
                    "fromAddress": "0x23773e65ed146a459791799d01336db287f25334",
                    "gasUsed": 8274,
                    "id": 19,
                    "methodDecoded": true,
                    "operation": "CALL",
                    "output": "0x0000000000000000000000000000000000000000000000000000000000000001",
                    "revert": false,
                    "revertMessage": "",
                    "selector": "0xa9059cbb",
                    "status": true,
                    "value": "0"
                },
                "nodeType": 0
            },
            "2": {
                "invocation": {
                    "address": "0xce172ce1f20ec0b3728c9965470eaf994a03557a",
                    "callData": "0x00000000000000000000000000000000000000000000000000000000000000e02b02e51b1907a4b310a09b657ce2282e2eec10a4547f66ced094550793d64ff12323c05de522852f31d8f44646a73482d592fa1253cb7576f8c4f834b994215200000000000000000000000038c0039247a31f3939bae65e953612125cb88268000000000000000000000000dd36d585a0d32b4ae6f1790bc4292308e21a42e300000000000000000000000000000000000000000000000a865ebe5b6e79d74000000000000000000000000000000000000000000000000000470de4df82000000000000000000000000000000000000000000000000000000000000000001000d7ca01e4ecc60799ce4caf9d92e59763d027c8c689df53668732e7364b04a102ad2ac705a60b0ad027380f14c8401ad3468bad5a1ff128debde591332fa581310649afe2bbb4f7ace2335ed0bb9f3a12737161d67b00f539f1250c66a5f40f02bb49ee1ff58e40d48899466a7dc62854d72ac286ccc97aaf0f9ceef06b8827814e2ead63f3cefaa7601120b30d221043e799dccd8715a79fed4e31205b4a26404ad20c522fe2e802132106b27f381550f00e4c1ba33b64ddc5bbe2c39e9ab2f2ebac9f49fbfdaeff57127ce4b0376477b50528e6ff09a8c8c42455dff8142fd0a5bfe7c69a48f8f0af5135b76671ee8f50dc2b42c76157fc159c21a5487a58c",
                    "decodedMethod": {
                        "callParams": [
                            {
                                "name": "proof",
                                "type": "bytes",
                                "value": "0x0d7ca01e4ecc60799ce4caf9d92e59763d027c8c689df53668732e7364b04a102ad2ac705a60b0ad027380f14c8401ad3468bad5a1ff128debde591332fa581310649afe2bbb4f7ace2335ed0bb9f3a12737161d67b00f539f1250c66a5f40f02bb49ee1ff58e40d48899466a7dc62854d72ac286ccc97aaf0f9ceef06b8827814e2ead63f3cefaa7601120b30d221043e799dccd8715a79fed4e31205b4a26404ad20c522fe2e802132106b27f381550f00e4c1ba33b64ddc5bbe2c39e9ab2f2ebac9f49fbfdaeff57127ce4b0376477b50528e6ff09a8c8c42455dff8142fd0a5bfe7c69a48f8f0af5135b76671ee8f50dc2b42c76157fc159c21a5487a58c"
                            },
                            {
                                "name": "input",
                                "type": "uint256[6]",
                                "value": [
                                    "19,454,567,413,677,938,107,424,115,339,504,088,565,346,053,820,972,378,499,312,345,444,266,964,045,809",
                                    "15,894,117,014,385,906,477,701,199,998,189,994,258,422,548,605,172,524,941,650,064,113,655,671,431,506",
                                    "323,985,537,357,558,424,115,226,294,635,199,539,894,763,946,600",
                                    "1,262,909,800,981,020,385,963,226,943,675,941,786,892,474,401,507",
                                    "194,149,826,285,893,441,344",
                                    "20,000,000,000,000,000"
                                ]
                            }
                        ],
                        "constructorArguments": "",
                        "name": "verifyProof",
                        "returnParams": [
                            {
                                "name": "",
                                "type": "bool",
                                "value": true
                            }
                        ],
                        "signature": "verifyProof(bytes,uint256[6])"
                    },
                    "errorInfo": "",
                    "fromAddress": "0x23773e65ed146a459791799d01336db287f25334",
                    "gasUsed": 240666,
                    "id": 2,
                    "methodDecoded": true,
                    "operation": "CALL",
                    "output": "0x0000000000000000000000000000000000000000000000000000000000000001",
                    "revert": false,
                    "revertMessage": "",
                    "selector": "0x695ef6f9",
                    "status": true,
                    "value": "0"
                },
                "nodeType": 0
            },
            "20": {
                "event": {
                    "contract": "0x6b175474e89094c44da98b954eedeac495271d0f",
                    "decodedLog": {
                        "name": "Transfer",
                        "params": [
                            {
                                "name": "src",
                                "type": "address",
                                "value": "0x23773e65ed146a459791799d01336db287f25334"
                            },
                            {
                                "name": "dst",
                                "type": "address",
                                "value": "0xdd36d585a0d32b4ae6f1790bc4292308e21a42e3"
                            },
                            {
                                "decimalAvailable": true,
                                "name": "wad",
                                "type": "uint256",
                                "value": "194,149,826,285,893,441,344"
                            }
                        ],
                        "signature": "Transfer(address,address,uint256)"
                    },
                    "id": 20,
                    "logData": "0x00000000000000000000000000000000000000000000000a865ebe5b6e79d740",
                    "logDecoded": true,
                    "operation": "EVENT",
                    "revert": false,
                    "status": true,
                    "topics": [
                        "0xddf252ad1be2c89b69c2b068fc378daa952ba7f163c4a11628f55a4df523b3ef",
                        "0x00000000000000000000000023773e65ed146a459791799d01336db287f25334",
                        "0x000000000000000000000000dd36d585a0d32b4ae6f1790bc4292308e21a42e3"
                    ]
                },
                "nodeType": 1
            },
            "21": {
                "invocation": {
                    "address": "0x38c0039247a31f3939bae65e953612125cb88268",
                    "callData": "0x",
                    "decodedMethod": null,
                    "errorInfo": "",
                    "fromAddress": "0x23773e65ed146a459791799d01336db287f25334",
                    "gasUsed": 0,
                    "id": 21,
                    "methodDecoded": false,
                    "operation": "CALL",
                    "output": "",
                    "revert": false,
                    "revertMessage": "",
                    "selector": "fallback",
                    "status": true,
                    "value": "0.02"
                },
                "nodeType": 0
            },
            "22": {
                "event": {
                    "contract": "0x23773e65ed146a459791799d01336db287f25334",
                    "decodedLog": {
                        "name": "Withdrawal",
                        "params": [
                            {
                                "name": "relayer",
                                "type": "address",
                                "value": "0xdd36d585a0d32b4ae6f1790bc4292308e21a42e3"
                            },
                            {
                                "name": "to",
                                "type": "address",
                                "value": "0x38c0039247a31f3939bae65e953612125cb88268"
                            },
                            {
                                "name": "nullifierHash",
                                "type": "bytes32",
                                "value": "0x2323c05de522852f31d8f44646a73482d592fa1253cb7576f8c4f834b9942152"
                            },
                            {
                                "name": "fee",
                                "type": "uint256",
                                "value": "194,149,826,285,893,441,344"
                            }
                        ],
                        "signature": "Withdrawal(address,bytes32,address,uint256)"
                    },
                    "id": 22,
                    "logData": "0x00000000000000000000000038c0039247a31f3939bae65e953612125cb882682323c05de522852f31d8f44646a73482d592fa1253cb7576f8c4f834b994215200000000000000000000000000000000000000000000000a865ebe5b6e79d740",
                    "logDecoded": true,
                    "operation": "EVENT",
                    "revert": false,
                    "status": true,
                    "topics": [
                        "0xe9e508bad6d4c3227e881ca19068f099da81b5164dd6d62b2eaf1e8bc6c34931",
                        "0x000000000000000000000000dd36d585a0d32b4ae6f1790bc4292308e21a42e3"
                    ]
                },
                "nodeType": 1
            },
            "23": {
                "invocation": {
                    "address": "0x527653ea119f3e6a1f5bd18fbf4714081d7b31ce",
                    "callData": "0x00000000000000000000000023773e65ed146a459791799d01336db287f253342323c05de522852f31d8f44646a73482d592fa1253cb7576f8c4f834b9942152",
                    "decodedMethod": {
                        "callParams": [
                            {
                                "name": "_instance",
                                "type": "address",
                                "value": "0x23773e65ed146a459791799d01336db287f25334"
                            },
                            {
                                "name": "_nullifierHash",
                                "type": "bytes32",
                                "value": "0x2323c05de522852f31d8f44646a73482d592fa1253cb7576f8c4f834b9942152"
                            }
                        ],
                        "constructorArguments": "",
                        "name": "registerWithdrawal",
                        "returnParams": [],
                        "signature": "registerWithdrawal(address,bytes32)"
                    },
                    "errorInfo": "",
                    "fromAddress": "0x722122df12d4e14e13ac3b6895a86e84145b6967",
                    "gasUsed": 37079,
                    "id": 23,
                    "methodDecoded": true,
                    "operation": "CALL",
                    "output": "",
                    "revert": false,
                    "revertMessage": "",
                    "selector": "0x01ae1920",
                    "status": true,
                    "value": "0"
                },
                "nodeType": 0
            },
            "24": {
                "invocation": {
                    "address": "0x200a79068d8141924b511bc78cb55dca89cf5c2e",
                    "callData": "0x00000000000000000000000023773e65ed146a459791799d01336db287f253342323c05de522852f31d8f44646a73482d592fa1253cb7576f8c4f834b9942152",
                    "decodedMethod": {
                        "callParams": [
                            {
                                "name": "_instance",
                                "type": "address",
                                "value": "0x23773e65ed146a459791799d01336db287f25334"
                            },
                            {
                                "name": "_nullifierHash",
                                "type": "bytes32",
                                "value": "0x2323c05de522852f31d8f44646a73482d592fa1253cb7576f8c4f834b9942152"
                            }
                        ],
                        "constructorArguments": "",
                        "name": "registerWithdrawal",
                        "returnParams": [],
                        "signature": "registerWithdrawal(address,bytes32)"
                    },
                    "errorInfo": "",
                    "fromAddress": "0x527653ea119f3e6a1f5bd18fbf4714081d7b31ce",
                    "gasUsed": 32048,
                    "id": 24,
                    "methodDecoded": true,
                    "operation": "DELEGATECALL",
                    "output": "",
                    "revert": false,
                    "revertMessage": "",
                    "selector": "0x01ae1920",
                    "status": true,
                    "value": "0"
                },
                "nodeType": 0
            },
            "25": {
                "event": {
                    "contract": "0x527653ea119f3e6a1f5bd18fbf4714081d7b31ce",
                    "decodedLog": {
                        "name": "WithdrawalData",
                        "params": [
                            {
                                "name": "hash",
                                "type": "bytes32",
                                "value": "0x2323c05de522852f31d8f44646a73482d592fa1253cb7576f8c4f834b9942152"
                            },
                            {
                                "name": "instance",
                                "type": "address",
                                "value": "0x23773e65ed146a459791799d01336db287f25334"
                            },
                            {
                                "name": "block",
                                "type": "uint256",
                                "value": "12,265,523"
                            },
                            {
                                "name": "index",
                                "type": "uint256",
                                "value": "18,969"
                            }
                        ],
                        "signature": "WithdrawalData(address,bytes32,uint256,uint256)"
                    },
                    "id": 25,
                    "logData": "0x00000000000000000000000023773e65ed146a459791799d01336db287f253340000000000000000000000000000000000000000000000000000000000bb28330000000000000000000000000000000000000000000000000000000000004a19",
                    "logDecoded": true,
                    "operation": "EVENT",
                    "revert": false,
                    "status": true,
                    "topics": [
                        "0x5d3e96213d4520bdc95a25d628a39768f1a90a2b939894355479596910d179df",
                        "0x2323c05de522852f31d8f44646a73482d592fa1253cb7576f8c4f834b9942152"
                    ]
                },
                "nodeType": 1
            },
            "3": {
                "invocation": {
                    "address": "0x0000000000000000000000000000000000000006",
                    "callData": "0x00000000000000000000000000000000000000000000000000000000000000000000000000000000000000000000000000000000000000000000000023df1bc9165e9c1c9b2bc036d8ebdd10e7aeae7e5e8019fde68aec7c818bb23e0b6c92080d37c5fb2ddf30892a33665e5478432ef3f71ac8768ecbbe62c7789200000000000000000000000000000000000000000000000000000000000000000000000000000000000000000000000000000000000000000000000000000000",
                    "decodedMethod": {
                        "callParams": [],
                        "constructorArguments": "",
                        "name": "ROOT4146650865",
                        "returnParams": [
                            {
                                "name": "",
                                "type": "bytes4",
                                "value": "0x23df1bc9"
                            }
                        ],
                        "signature": "ROOT4146650865()"
                    },
                    "errorInfo": "",
                    "fromAddress": "0xce172ce1f20ec0b3728c9965470eaf994a03557a",
                    "gasUsed": 150,
                    "id": 3,
                    "methodDecoded": true,
                    "operation": "STATICCALL",
                    "output": "0x23df1bc9165e9c1c9b2bc036d8ebdd10e7aeae7e5e8019fde68aec7c818bb23e0b6c92080d37c5fb2ddf30892a33665e5478432ef3f71ac8768ecbbe62c77892",
                    "revert": false,
                    "revertMessage": "",
                    "selector": "0x00000000",
                    "status": true,
                    "value": "0"
                },
                "nodeType": 0
            },
            "4": {
                "invocation": {
                    "address": "0x0000000000000000000000000000000000000007",
                    "callData": "0x45e046caea000956b2ecb2d8617e710d2a7bb201a95ea276f92307b42b15f07536f45948cf4abe6596637d902ffabb18c8c2f5c151544c294ce4a6722b02e51b1907a4b310a09b657ce2282e2eec10a4547f66ced094550793d64ff10000000000000000000000000000000000000000000000000000000000000000",
                    "decodedMethod": null,
                    "errorInfo": "",
                    "fromAddress": "0xce172ce1f20ec0b3728c9965470eaf994a03557a",
                    "gasUsed": 6000,
                    "id": 4,
                    "methodDecoded": false,
                    "operation": "STATICCALL",
                    "output": "0x10b949dd8f20c79209a5efcae79a0c1a5e5af45edfdef2b28b6f5b0eda3a3bf91982cfa1227866c25124a60df19124d5fcb152326b035662f96f34fdc5022f4c",
                    "revert": false,
                    "revertMessage": "",
                    "selector": "0x1c7b2adf",
                    "status": true,
                    "value": "0"
                },
                "nodeType": 0
            },
            "5": {
                "invocation": {
                    "address": "0x0000000000000000000000000000000000000006",
                    "callData": "0x165e9c1c9b2bc036d8ebdd10e7aeae7e5e8019fde68aec7c818bb23e0b6c92080d37c5fb2ddf30892a33665e5478432ef3f71ac8768ecbbe62c7789210b949dd8f20c79209a5efcae79a0c1a5e5af45edfdef2b28b6f5b0eda3a3bf91982cfa1227866c25124a60df19124d5fcb152326b035662f96f34fdc5022f4c00000000000000000000000000000000000000000000000000000000000000000000000000000000000000000000000000000000000000000000000000000000",
                    "decodedMethod": null,
                    "errorInfo": "",
                    "fromAddress": "0xce172ce1f20ec0b3728c9965470eaf994a03557a",
                    "gasUsed": 150,
                    "id": 5,
                    "methodDecoded": false,
                    "operation": "STATICCALL",
                    "output": "0x19b09a3d287a9fc73ae3c59c6af870b13bafcc7ad4cceb870f8eb77f1fc9f7cc03cbba8d26d7a25283f2f6097b43c1b46b54f70503e5070b9a76e47daea104b9",
                    "revert": false,
                    "revertMessage": "",
                    "selector": "0x23df1bc9",
                    "status": true,
                    "value": "0"
                },
                "nodeType": 0
            },
            "6": {
                "invocation": {
                    "address": "0x0000000000000000000000000000000000000007",
                    "callData": "0x882a8c835a47bf01bfa655cf628cbba7f81cf4042179fd13edcd6a390154bfbb2cb786ca247d4b69183d1751f267bbc7656be8d0f0e7a5a47e2c11012323c05de522852f31d8f44646a73482d592fa1253cb7576f8c4f834b99421520000000000000000000000000000000000000000000000000000000000000000",
                    "decodedMethod": null,
                    "errorInfo": "",
                    "fromAddress": "0xce172ce1f20ec0b3728c9965470eaf994a03557a",
                    "gasUsed": 6000,
                    "id": 6,
                    "methodDecoded": false,
                    "operation": "STATICCALL",
                    "output": "0x15ee83dea92af280ebe09325afe60da8b7cb41099d49456e8a77086691596689140042c50832bf950f474fe33f0b7db65b011948f39949682af2a98b0955ebbf",
                    "revert": false,
                    "revertMessage": "",
                    "selector": "0x1cecfe92",
                    "status": true,
                    "value": "0"
                },
                "nodeType": 0
            },
            "7": {
                "invocation": {
                    "address": "0x0000000000000000000000000000000000000006",
                    "callData": "0x287a9fc73ae3c59c6af870b13bafcc7ad4cceb870f8eb77f1fc9f7cc03cbba8d26d7a25283f2f6097b43c1b46b54f70503e5070b9a76e47daea104b915ee83dea92af280ebe09325afe60da8b7cb41099d49456e8a77086691596689140042c50832bf950f474fe33f0b7db65b011948f39949682af2a98b0955ebbf00000000000000000000000000000000000000000000000000000000000000000000000000000000000000000000000000000000000000000000000000000000",
                    "decodedMethod": null,
                    "errorInfo": "",
                    "fromAddress": "0xce172ce1f20ec0b3728c9965470eaf994a03557a",
                    "gasUsed": 150,
                    "id": 7,
                    "methodDecoded": false,
                    "operation": "STATICCALL",
                    "output": "0x234614649d2cfc11530abec9922b8b6da5ea7a6c9353c3162a1bd847b05b8701186ad395d5891d420feebe8cbbfcd521b92c70a5425ad96ba5a19dbcf4168fba",
                    "revert": false,
                    "revertMessage": "",
                    "selector": "0x19b09a3d",
                    "status": true,
                    "value": "0"
                },
                "nodeType": 0
            },
            "8": {
                "invocation": {
                    "address": "0x0000000000000000000000000000000000000007",
                    "callData": "0x7423efcc72f69ea84fa0b2bc01433677297f4e8351bebfc15bcd0cda0623755b1488526daa9fecf0e11b110dd6df12c461579d792e1db65af523c8be00000000000000000000000038c0039247a31f3939bae65e953612125cb882680000000000000000000000000000000000000000000000000000000000000000",
                    "decodedMethod": null,
                    "errorInfo": "",
                    "fromAddress": "0xce172ce1f20ec0b3728c9965470eaf994a03557a",
                    "gasUsed": 6000,
                    "id": 8,
                    "methodDecoded": false,
                    "operation": "STATICCALL",
                    "output": "0x065496cdf55fa4ba8ae4eaa27029b4efbb345bd9035fb61f35a15a0726a1671d1bafe223c7588aee930e42607edabe513583c4915673ddfef34c3d82d3547203",
                    "revert": false,
                    "revertMessage": "",
                    "selector": "0x1584616a",
                    "status": true,
                    "value": "0"
                },
                "nodeType": 0
            },
            "9": {
                "invocation": {
                    "address": "0x0000000000000000000000000000000000000006",
                    "callData": "0x9d2cfc11530abec9922b8b6da5ea7a6c9353c3162a1bd847b05b8701186ad395d5891d420feebe8cbbfcd521b92c70a5425ad96ba5a19dbcf4168fba065496cdf55fa4ba8ae4eaa27029b4efbb345bd9035fb61f35a15a0726a1671d1bafe223c7588aee930e42607edabe513583c4915673ddfef34c3d82d354720300000000000000000000000000000000000000000000000000000000000000000000000000000000000000000000000000000000000000000000000000000000",
                    "decodedMethod": null,
                    "errorInfo": "",
                    "fromAddress": "0xce172ce1f20ec0b3728c9965470eaf994a03557a",
                    "gasUsed": 150,
                    "id": 9,
                    "methodDecoded": false,
                    "operation": "STATICCALL",
                    "output": "0x1b946188ee920c90deaa879f97019975dc14ab94f1a87620f86bf8c27e42d2e81604c5378d716e70153a00743562067ec202b581b4776691c7b55d2f5118b9dd",
                    "revert": false,
                    "revertMessage": "",
                    "selector": "0x23461464",
                    "status": true,
                    "value": "0"
                },
                "nodeType": 0
            }
        },
        "gasFlame": [
            {
                "children": [
                    {
                        "children": [
                            {
                                "children": [],
                                "depth": 0,
                                "name": "Initial Gas",
                                "value": 27980
                            },
                            {
                                "children": [
                                    {
                                        "children": [
                                            {
                                                "children": [
                                                    {
                                                        "children": [],
                                                        "depth": 3,
                                                        "name": "ROOT4146650865",
                                                        "value": 150
                                                    },
                                                    {
                                                        "children": [],
                                                        "depth": 3,
                                                        "name": "0x1c7b2adf",
                                                        "value": 6000
                                                    },
                                                    {
                                                        "children": [],
                                                        "depth": 3,
                                                        "name": "0x23df1bc9",
                                                        "value": 150
                                                    },
                                                    {
                                                        "children": [],
                                                        "depth": 3,
                                                        "name": "0x1cecfe92",
                                                        "value": 6000
                                                    },
                                                    {
                                                        "children": [],
                                                        "depth": 3,
                                                        "name": "0x19b09a3d",
                                                        "value": 150
                                                    },
                                                    {
                                                        "children": [],
                                                        "depth": 3,
                                                        "name": "0x1584616a",
                                                        "value": 6000
                                                    },
                                                    {
                                                        "children": [],
                                                        "depth": 3,
                                                        "name": "0x23461464",
                                                        "value": 150
                                                    },
                                                    {
                                                        "children": [],
                                                        "depth": 3,
                                                        "name": "0x12fbb5bf",
                                                        "value": 6000
                                                    },
                                                    {
                                                        "children": [],
                                                        "depth": 3,
                                                        "name": "0x1b946188",
                                                        "value": 150
                                                    },
                                                    {
                                                        "children": [],
                                                        "depth": 3,
                                                        "name": "0x0adb5137",
                                                        "value": 6000
                                                    },
                                                    {
                                                        "children": [],
                                                        "depth": 3,
                                                        "name": "0x171a9fff",
                                                        "value": 150
                                                    },
                                                    {
                                                        "children": [],
                                                        "depth": 3,
                                                        "name": "0x21e7c9bf",
                                                        "value": 6000
                                                    },
                                                    {
                                                        "children": [],
                                                        "depth": 3,
                                                        "name": "0x0216321a",
                                                        "value": 150
                                                    },
                                                    {
                                                        "children": [],
                                                        "depth": 3,
                                                        "name": "0x0d7ca01e",
                                                        "value": 181000
                                                    }
                                                ],
                                                "depth": 2,
                                                "name": "verifyProof",
                                                "value": 240666
                                            },
                                            {
                                                "children": [],
                                                "depth": 2,
                                                "name": "transfer",
                                                "value": 13074
                                            },
                                            {
                                                "children": [],
                                                "depth": 2,
                                                "name": "transfer",
                                                "value": 8274
                                            },
                                            {
                                                "children": [],
                                                "depth": 2,
                                                "name": "fallback",
                                                "value": 0
                                            }
                                        ],
                                        "depth": 1,
                                        "name": "withdraw",
                                        "value": 315256
                                    },
                                    {
                                        "children": [
                                            {
                                                "children": [],
                                                "depth": 2,
                                                "name": "registerWithdrawal",
                                                "value": 32048
                                            }
                                        ],
                                        "depth": 1,
                                        "name": "registerWithdrawal",
                                        "value": 37079
                                    }
                                ],
                                "depth": 0,
                                "name": "Executed Gas",
                                "value": 370870
                            }
                        ],
                        "depth": -1,
                        "name": "Actual Gas Used",
                        "value": 396050
                    },
                    {
                        "children": [],
                        "depth": -1,
                        "name": "Refunded Gas",
                        "value": 2800
                    }
                ],
                "depth": -2,
                "name": "Total Gas",
                "value": 398850
            }
        ],
        "isConfirmed": true,
        "mainTrace": [
            {
                "children": [
                    {
                        "children": [
                            {
                                "children": [
                                    {
                                        "children": [
                                            {
                                                "children": [],
                                                "depth": 3,
                                                "id": 3,
                                                "order": 3
                                            },
                                            {
                                                "children": [],
                                                "depth": 3,
                                                "id": 4,
                                                "order": 4
                                            },
                                            {
                                                "children": [],
                                                "depth": 3,
                                                "id": 5,
                                                "order": 5
                                            },
                                            {
                                                "children": [],
                                                "depth": 3,
                                                "id": 6,
                                                "order": 6
                                            },
                                            {
                                                "children": [],
                                                "depth": 3,
                                                "id": 7,
                                                "order": 7
                                            },
                                            {
                                                "children": [],
                                                "depth": 3,
                                                "id": 8,
                                                "order": 8
                                            },
                                            {
                                                "children": [],
                                                "depth": 3,
                                                "id": 9,
                                                "order": 9
                                            },
                                            {
                                                "children": [],
                                                "depth": 3,
                                                "id": 10,
                                                "order": 10
                                            },
                                            {
                                                "children": [],
                                                "depth": 3,
                                                "id": 11,
                                                "order": 11
                                            },
                                            {
                                                "children": [],
                                                "depth": 3,
                                                "id": 12,
                                                "order": 12
                                            },
                                            {
                                                "children": [],
                                                "depth": 3,
                                                "id": 13,
                                                "order": 13
                                            },
                                            {
                                                "children": [],
                                                "depth": 3,
                                                "id": 14,
                                                "order": 14
                                            },
                                            {
                                                "children": [],
                                                "depth": 3,
                                                "id": 15,
                                                "order": 15
                                            },
                                            {
                                                "children": [],
                                                "depth": 3,
                                                "id": 16,
                                                "order": 16
                                            }
                                        ],
                                        "depth": 2,
                                        "id": 2,
                                        "order": 2
                                    },
                                    {
                                        "children": [
                                            {
                                                "children": [],
                                                "depth": 3,
                                                "id": 18,
                                                "order": 18
                                            }
                                        ],
                                        "depth": 2,
                                        "id": 17,
                                        "order": 17
                                    },
                                    {
                                        "children": [
                                            {
                                                "children": [],
                                                "depth": 3,
                                                "id": 20,
                                                "order": 20
                                            }
                                        ],
                                        "depth": 2,
                                        "id": 19,
                                        "order": 19
                                    },
                                    {
                                        "children": [],
                                        "depth": 2,
                                        "id": 21,
                                        "order": 21
                                    },
                                    {
                                        "children": [],
                                        "depth": 2,
                                        "id": 22,
                                        "order": 22
                                    }
                                ],
                                "depth": 1,
                                "id": 1,
                                "order": 1
                            },
                            {
                                "children": [
                                    {
                                        "children": [
                                            {
                                                "children": [],
                                                "depth": 3,
                                                "id": 25,
                                                "order": 25
                                            }
                                        ],
                                        "depth": 2,
                                        "id": 24,
                                        "order": 24
                                    }
                                ],
                                "depth": 1,
                                "id": 23,
                                "order": 23
                            }
                        ],
                        "depth": 0,
                        "id": 0,
                        "order": 0
                    }
                ],
                "depth": -1,
                "id": -1,
                "order": -1
            }
        ],
        "mainTraceNodeCount": 26,
        "parentIdMap": {
            "0": -1,
            "1": 0,
            "10": 2,
            "11": 2,
            "12": 2,
            "13": 2,
            "14": 2,
            "15": 2,
            "16": 2,
            "17": 1,
            "18": 17,
            "19": 1,
            "2": 1,
            "20": 19,
            "21": 1,
            "22": 1,
            "23": 0,
            "24": 23,
            "25": 24,
            "3": 2,
            "4": 2,
            "5": 2,
            "6": 2,
            "7": 2,
            "8": 2,
            "9": 2
        },
        "tidyTrace": [
            {
                "children": [
                    {
                        "children": [
                            {
                                "children": [
                                    {
                                        "children": [],
                                        "depth": 2,
                                        "id": 2,
                                        "order": 2
                                    },
                                    {
                                        "children": [
                                            {
                                                "children": [],
                                                "depth": 3,
                                                "id": 18,
                                                "order": 18
                                            }
                                        ],
                                        "depth": 2,
                                        "id": 17,
                                        "order": 17
                                    },
                                    {
                                        "children": [
                                            {
                                                "children": [],
                                                "depth": 3,
                                                "id": 20,
                                                "order": 20
                                            }
                                        ],
                                        "depth": 2,
                                        "id": 19,
                                        "order": 19
                                    },
                                    {
                                        "children": [],
                                        "depth": 2,
                                        "id": 21,
                                        "order": 21
                                    },
                                    {
                                        "children": [],
                                        "depth": 2,
                                        "id": 22,
                                        "order": 22
                                    }
                                ],
                                "depth": 1,
                                "id": 1,
                                "order": 1
                            },
                            {
                                "children": [
                                    {
                                        "children": [
                                            {
                                                "children": [],
                                                "depth": 3,
                                                "id": 25,
                                                "order": 25
                                            }
                                        ],
                                        "depth": 2,
                                        "id": 24,
                                        "order": 24
                                    }
                                ],
                                "depth": 1,
                                "id": 23,
                                "order": 23
                            }
                        ],
                        "depth": 0,
                        "id": 0,
                        "order": 0
                    }
                ],
                "depth": -1,
                "id": -1,
                "order": -1
            }
        ],
        "tidyTraceNodeCount": 12
    },
    "state_change": {
        "stateChanges": [
            {
                "address": "0x23773e65ed146a459791799d01336db287f25334",
                "erc": "",
                "slots": [
                    {
                        "current": "0x0000000000000000000000000000000000000000000000000000000000000001",
                        "key": "0x302f3a8572f7ed1ad276c8c8092d2feea9c7222c67275a0d2403c07564c94559",
                        "prev": "0x0000000000000000000000000000000000000000000000000000000000000000"
                    }
                ],
                "storageVariables": [
                    {
                        "name": "nullifierHashes",
                        "type": "mapping(bytes32 => bool)",
                        "value": {
                            "pairs": [
                                {
                                    "key": "0x2323c05de522852f31d8f44646a73482d592fa1253cb7576f8c4f834b9942152",
                                    "value": {
                                        "current": "true",
                                        "prev": "false",
                                        "typeTag": 1
                                    }
                                }
                            ],
                            "typeTag": 4
                        }
                    }
                ]
            },
            {
                "address": "0x527653ea119f3e6a1f5bd18fbf4714081d7b31ce",
                "erc": "",
                "slots": [
                    {
                        "current": "0xc5fb037e7d278d0fb02b79b9f1b65bf181f006d3145a18f75cd5d1894ee23c60",
                        "key": "0xc93aebd11ad22bcef620bfb13fb05922784e068a097e5c3bb924a88bba6aed86",
                        "prev": "0x0000000000000000000000000000000000000000000000000000000000000000"
                    },
                    {
                        "current": "0x0000000000000000000000000000000000000000000000000000000000004a1a",
                        "key": "0x000000000000000000000000000000000000000000000000000000000000003d",
                        "prev": "0x0000000000000000000000000000000000000000000000000000000000004a19"
                    }
                ],
                "storageVariables": [
                    {
                        "name": "withdrawalsLength",
                        "type": "uint256",
                        "value": {
                            "current": "18970",
                            "prev": "18969",
                            "typeTag": 1
                        }
                    },
                    {
                        "name": "withdrawals",
                        "type": "mapping(uint256 => bytes32)",
                        "value": {
                            "pairs": [
                                {
                                    "key": "18969",
                                    "value": {
                                        "current": "0xc5fb037e7d278d0fb02b79b9f1b65bf181f006d3145a18f75cd5d1894ee23c60",
                                        "prev": "0x0000000000000000000000000000000000000000000000000000000000000000",
                                        "typeTag": 1
                                    }
                                }
                            ],
                            "typeTag": 4
                        }
                    }
                ]
            },
            {
                "address": "0x6b175474e89094c44da98b954eedeac495271d0f",
                "erc": "ERC-20",
                "slots": [
                    {
                        "current": "0x00000000000000000000000000000000000000000000be951906eba2aa800000",
                        "key": "0x52550ed4e1665416fdfd652f2bef1c19a8e27e02470344e5cf8785fce2f73233",
                        "prev": "0x00000000000000000000000000000000000000000000d3c21bcecceda1000000"
                    },
                    {
                        "current": "0x00000000000000000000000000000000000000000000153d47729922f54180df",
                        "key": "0x72671661a7ebbe86ba627e6c1e4bdc3321a40b2839423c2d23082272586621c9",
                        "prev": "0x00000000000000000000000000000000000000000000001acb0976336d3b581f"
                    },
                    {
                        "current": "0x000000000000000000000000000000000000000000000018cab978b2f285ff27",
                        "key": "0x4dee6bcc311a18a1fe40b3b6371ed16ed6d52deaef8b13afca0fb4807e4744ff",
                        "prev": "0x00000000000000000000000000000000000000000000000e445aba57840c27e7"
                    }
                ],
                "storageVariables": [
                    {
                        "name": "balanceOf",
                        "type": "mapping(address => uint256)",
                        "value": {
                            "pairs": [
                                {
                                    "key": "0x23773e65ed146a459791799d01336db287f25334",
                                    "value": {
                                        "current": "900000000000000000000000",
                                        "prev": "1000000000000000000000000",
                                        "typeTag": 1
                                    }
                                },
                                {
                                    "key": "0x38c0039247a31f3939bae65e953612125cb88268",
                                    "value": {
                                        "current": "100300095874458292682975",
                                        "prev": "494245700744186124319",
                                        "typeTag": 1
                                    }
                                },
                                {
                                    "key": "0xdd36d585a0d32b4ae6f1790bc4292308e21a42e3",
                                    "value": {
                                        "current": "457329697345350532903",
                                        "prev": "263179871059457091559",
                                        "typeTag": 1
                                    }
                                }
                            ],
                            "typeTag": 4
                        }
                    }
                ]
            }
        ]
    }
}