{
    "balance_change": {
        "balanceChanges": [
            {
                "account": "0x749df1acbe93092ae9095884c09a9ecfa112ea18",
                "assets": [
                    {
                        "address": "0x467719ad09025fcc6cf6f8311755809d45a5e5f3",
                        "amount": "20,000",
                        "iconUrl": "",
                        "isERC1155": false,
                        "isERC721": false,
                        "sign": false,
                        "value": "25000"
                    }
                ]
            },
            {
                "account": "0x3f0c3faeeeb9dad6ef6eb5fbab61039ff9067a07",
                "assets": [
                    {
                        "address": "0x467719ad09025fcc6cf6f8311755809d45a5e5f3",
                        "amount": "20,000",
                        "iconUrl": "",
                        "isERC1155": false,
                        "isERC721": false,
                        "sign": true,
                        "value": "25000"
                    }
                ]
            }
        ]
    },
    "profile": {
        "basic_info": {
            "baseFee": "9.731926692",
            "blockNumber": 19818702,
            "callData": "0xa9059cbb0000000000000000000000003f0c3faeeeb9dad6ef6eb5fbab61039ff9067a0700000000000000000000000000000000000000000000000000000004a817c800",
            "debugEnable": true,
            "errorInfo": "",
            "eventCount": 1,
            "feeRecipient": "0x95222290dd7278aa3ddd389cc1e1d165cc4bafe5",
            "formatValue": "0",
            "gasLimit": 300000,
            "gasPrice": "9.831926692",
            "gasUsed": 51559,
            "intTxnCount": 0,
            "internalRevert": false,
            "internalRevertMessage": "",
            "isContractCreation": false,
            "isFlashloan": false,
            "maxFee": "500",
            "nonce": 673,
            "overwritedBlockNumber": -1,
            "priorityFee": "0.1",
            "receiver": "0x467719ad09025fcc6cf6f8311755809d45a5e5f3",
            "revertMessage": "",
            "sender": "0x749df1acbe93092ae9095884c09a9ecfa112ea18",
            "simulationEnable": true,
            "sourceTxnHash": "0x830d2aff600e2de3ebc6ee68aebc49ead8b0edbc238f2cdfb72b0175b2e76c78",
            "status": true,
            "timestamp": "2024-05-07T14:11:11Z",
            "transactionFee": "0.000506924308312828",
            "txnHash": "0x830d2aff600e2de3ebc6ee68aebc49ead8b0edbc238f2cdfb72b0175b2e76c78",
            "txnIndex": 123,
            "type": 2,
            "value": "0"
        },
        "fund_flow": [
            {
                "amount": "20,000",
                "from": "0x749df1acbe93092ae9095884c09a9ecfa112ea18",
                "id": 1,
                "isERC1155": false,
                "isERC721": false,
                "isReverted": false,
                "order": 1,
                "to": "0x3f0c3faeeeb9dad6ef6eb5fbab61039ff9067a07",
                "token": "0x467719ad09025fcc6cf6f8311755809d45a5e5f3"
            }
        ],
        "token_infos": [
            {
                "address": "0xc02aaa39b223fe8d0a0e5c4f27ead9083c756cc2",
                "decimals": 18
            },
            {
                "address": "0xeeeeeeeeeeeeeeeeeeeeeeeeeeeeeeeeeeeeeeee",
                "decimals": 18
            },
            {
                "address": "0x467719ad09025fcc6cf6f8311755809d45a5e5f3",
                "decimals": 6
            }
        ]
    },
    "address_label": {
        "labels": [
            {
                "address": "0x467719ad09025fcc6cf6f8311755809d45a5e5f3",
                "label": "Axelar Network: AXL Token"
            },
            {
                "address": "0x3f0c3faeeeb9dad6ef6eb5fbab61039ff9067a07",
                "label": "BINANCE"
            },
            {
                "address": "0x0000000000000000000000000000000000000001",
                "label": "Precompiled"
            },
            {
                "address": "0x0000000000000000000000000000000000000002",
                "label": "Precompiled"
            },
            {
                "address": "0x0000000000000000000000000000000000000003",
                "label": "Precompiled"
            },
            {
                "address": "0x0000000000000000000000000000000000000004",
                "label": "Precompiled"
            },
            {
                "address": "0xeeeeeeeeeeeeeeeeeeeeeeeeeeeeeeeeeeeeeeee",
                "label": "Ether"
            }
        ]
    },
    "trace": {
        "accountLabels": null,
        "dataMap": {
            "-1": {
                "invocation": {
                    "address": "0x749df1acbe93092ae9095884c09a9ecfa112ea18",
                    "callData": "",
                    "decodedMethod": null,
                    "errorInfo": "",
                    "fromAddress": "",
                    "gasUsed": 0,
                    "id": -1,
                    "methodDecoded": false,
                    "operation": "",
                    "output": "",
                    "revert": false,
                    "revertMessage": "",
                    "selector": "",
                    "status": false,
                    "value": ""
                },
                "nodeType": 0
            },
            "0": {
                "invocation": {
                    "address": "0x467719ad09025fcc6cf6f8311755809d45a5e5f3",
                    "callData": "0x0000000000000000000000003f0c3faeeeb9dad6ef6eb5fbab61039ff9067a0700000000000000000000000000000000000000000000000000000004a817c800",
                    "decodedMethod": {
                        "callParams": [
                            {
                                "name": "recipient",
                                "type": "address",
                                "value": "0x3f0c3faeeeb9dad6ef6eb5fbab61039ff9067a07"
                            },
                            {
                                "decimalAvailable": true,
                                "name": "amount",
                                "type": "uint256",
                                "value": "20,000,000,000"
                            }
                        ],
                        "constructorArguments": "",
                        "name": "transfer",
                        "returnParams": [
                            {
                                "name": "",
                                "type": "bool",
                                "value": true
                            }
                        ],
                        "signature": "transfer(address,uint256)"
                    },
                    "errorInfo": "",
                    "fromAddress": "0x749df1acbe93092ae9095884c09a9ecfa112ea18",
                    "gasUsed": 51559,
                    "id": 0,
                    "methodDecoded": true,
                    "operation": "CALL",
                    "output": "0x0000000000000000000000000000000000000000000000000000000000000001",
                    "revert": false,
                    "revertMessage": "",
                    "selector": "0xa9059cbb",
                    "status": true,
                    "value": "0"
                },
                "nodeType": 0
            },
            "1": {
                "event": {
                    "contract": "0x467719ad09025fcc6cf6f8311755809d45a5e5f3",
                    "decodedLog": {
                        "name": "Transfer",
                        "params": [
                            {
                                "name": "from",
                                "type": "address",
                                "value": "0x749df1acbe93092ae9095884c09a9ecfa112ea18"
                            },
                            {
                                "name": "to",
                                "type": "address",
                                "value": "0x3f0c3faeeeb9dad6ef6eb5fbab61039ff9067a07"
                            },
                            {
                                "decimalAvailable": true,
                                "name": "value",
                                "type": "uint256",
                                "value": "20,000,000,000"
                            }
                        ],
                        "signature": "Transfer(address,address,uint256)"
                    },
                    "id": 1,
                    "logData": "0x00000000000000000000000000000000000000000000000000000004a817c800",
                    "logDecoded": true,
                    "operation": "EVENT",
                    "revert": false,
                    "status": true,
                    "topics": [
                        "0xddf252ad1be2c89b69c2b068fc378daa952ba7f163c4a11628f55a4df523b3ef",
                        "0x000000000000000000000000749df1acbe93092ae9095884c09a9ecfa112ea18",
                        "0x0000000000000000000000003f0c3faeeeb9dad6ef6eb5fbab61039ff9067a07"
                    ]
                },
                "nodeType": 1
            }
        },
        "gasFlame": [
            {
                "children": [
                    {
                        "children": [
                            {
                                "children": [],
                                "depth": 0,
                                "name": "Initial Gas",
                                "value": 21608
                            },
                            {
                                "children": [],
                                "depth": 0,
                                "name": "Executed Gas",
                                "value": 29951
                            }
                        ],
                        "depth": -1,
                        "name": "Actual Gas Used",
                        "value": 51559
                    },
                    {
                        "children": [],
                        "depth": -1,
                        "name": "Refunded Gas",
                        "value": 0
                    }
                ],
                "depth": -2,
                "name": "Total Gas",
                "value": 51559
            }
        ],
        "isConfirmed": true,
        "mainTrace": [
            {
                "children": [
                    {
                        "children": [
                            {
                                "children": [],
                                "depth": 1,
                                "id": 1,
                                "order": 1
                            }
                        ],
                        "depth": 0,
                        "id": 0,
                        "order": 0
                    }
                ],
                "depth": -1,
                "id": -1,
                "order": -1
            }
        ],
        "mainTraceNodeCount": 2,
        "parentIdMap": {
            "0": -1,
            "1": 0
        },
        "tidyTrace": [
            {
                "children": [
                    {
                        "children": [
                            {
                                "children": [],
                                "depth": 1,
                                "id": 1,
                                "order": 1
                            }
                        ],
                        "depth": 0,
                        "id": 0,
                        "order": 0
                    }
                ],
                "depth": -1,
                "id": -1,
                "order": -1
            }
        ],
        "tidyTraceNodeCount": 2
    },
    "state_change": {
        "stateChanges": [
            {
                "address": "0x467719ad09025fcc6cf6f8311755809d45a5e5f3",
                "erc": "ERC-20",
                "slots": [
                    {
                        "current": "0x00000000000000000000000000000000000000000000000000000004a817c800",
                        "key": "0x47f1821e6486d673682a80ab30b546b7b222a1d65868288d23ccc047e07e6c71",
                        "prev": "0x0000000000000000000000000000000000000000000000000000000000000000"
                    },
                    {
                        "current": "0x000000000000000000000000000000000000000000000000000000870d28816b",
                        "key": "0x761c963f6c3a396e62916a19ed8f9c66d01a76cf87feae906d9d027a39da84ce",
                        "prev": "0x0000000000000000000000000000000000000000000000000000008bb540496b"
                    }
                ],
                "storageVariables": [
                    {
                        "name": "balanceOf",
                        "type": "mapping(address => uint256)",
                        "value": {
                            "pairs": [
                                {
                                    "key": "0x3f0c3faeeeb9dad6ef6eb5fbab61039ff9067a07",
                                    "value": {
                                        "current": "20000000000",
                                        "prev": "0",
                                        "typeTag": 1
                                    }
                                },
                                {
                                    "key": "0x749df1acbe93092ae9095884c09a9ecfa112ea18",
                                    "value": {
                                        "current": "580041343339",
                                        "prev": "600041343339",
                                        "typeTag": 1
                                    }
                                }
                            ],
                            "typeTag": 4
                        }
                    }
                ]
            }
        ]
    }
}