{
    "balance_change": {
        "balanceChanges": [
            {
                "account": "0x876eabf441b2ee5b5b0554fd502a8e0600950cfa",
                "assets": [
                    {
                        "address": "0xfc05987bd2be489accf0f509e44b0145d68240f7",
                        "amount": "5,466.1",
                        "iconUrl": "https://assets.blocksec.com/icon/876a15638361595f109a5a689c04772cdba50eac90ee47bf5bab42b600043279.png",
                        "isERC1155": false,
                        "isERC721": false,
                        "sign": false,
                        "value": "36.20667336"
                    }
                ]
            },
            {
                "account": "0x7a8237b2e5f4cf98c36ec5d9389fd239048864dc",
                "assets": [
                    {
                        "address": "0xfc05987bd2be489accf0f509e44b0145d68240f7",
                        "amount": "5,466.1",
                        "iconUrl": "https://assets.blocksec.com/icon/876a15638361595f109a5a689c04772cdba50eac90ee47bf5bab42b600043279.png",
                        "isERC1155": false,
                        "isERC721": false,
                        "sign": true,
                        "value": "36.20667336"
                    }
                ]
            }
        ]
    },
    "profile": {
        "basic_info": {
            "baseFee": "",
            "blockNumber": 12267959,
            "callData": "0xa9059cbb0000000000000000000000007a8237b2e5f4cf98c36ec5d9389fd239048864dc00000000000000000000000000000000000000000000012851603d5c6ab20000",
            "debugEnable": true,
            "errorInfo": "",
            "eventCount": 1,
            "feeRecipient": "0x04668ec2f57cc15c381b461b9fedab5d451c8f7f",
            "formatValue": "0",
            "gasLimit": 90000,
            "gasPrice": "184.95",
            "gasUsed": 52024,
            "intTxnCount": 0,
            "internalRevert": false,
            "internalRevertMessage": "",
            "isContractCreation": false,
            "isFlashloan": false,
            "maxFee": "",
            "nonce": 1015124,
            "overwritedBlockNumber": -1,
            "priorityFee": "",
            "receiver": "0xfc05987bd2be489accf0f509e44b0145d68240f7",
            "revertMessage": "",
            "sender": "0x876eabf441b2ee5b5b0554fd502a8e0600950cfa",
            "simulationEnable": true,
            "sourceTxnHash": "0x831e5504c1c032a7d958f77310d2bd13f5a16a1f8905f4564a21bc8e33882dd4",
            "status": true,
            "timestamp": "2021-04-19T02:54:44Z",
            "transactionFee": "0.0096218388",
            "txnHash": "0x831e5504c1c032a7d958f77310d2bd13f5a16a1f8905f4564a21bc8e33882dd4",
            "txnIndex": 6,
            "type": 0,
            "value": "0"
        },
        "fund_flow": [
            {
                "amount": "5,466.1",
                "from": "0x876eabf441b2ee5b5b0554fd502a8e0600950cfa",
                "id": 1,
                "isERC1155": false,
                "isERC721": false,
                "isReverted": false,
                "order": 1,
                "to": "0x7a8237b2e5f4cf98c36ec5d9389fd239048864dc",
                "token": "0xfc05987bd2be489accf0f509e44b0145d68240f7"
            }
        ],
        "token_infos": [
            {
                "address": "0xc02aaa39b223fe8d0a0e5c4f27ead9083c756cc2",
                "decimals": 18
            },
            {
                "address": "0xfc05987bd2be489accf0f509e44b0145d68240f7",
                "decimals": 18
            },
            {
                "address": "0xeeeeeeeeeeeeeeeeeeeeeeeeeeeeeeeeeeeeeeee",
                "decimals": 18
            }
        ]
    },
    "address_label": {
        "labels": [
            {
                "address": "0x0000000000000000000000000000000000000004",
                "label": "Precompiled"
            },
            {
                "address": "0xeeeeeeeeeeeeeeeeeeeeeeeeeeeeeeeeeeeeeeee",
                "label": "Ether"
            },
            {
                "address": "0xfc05987bd2be489accf0f509e44b0145d68240f7",
                "label": "ESSENTIA (ESS)"
            },
            {
                "address": "0x7a8237b2e5f4cf98c36ec5d9389fd239048864dc",
                "label": "GATE.IO"
            },
            {
                "address": "0x876eabf441b2ee5b5b0554fd502a8e0600950cfa",
                "label": "Bitfinex 3"
            },
            {
                "address": "0x0000000000000000000000000000000000000001",
                "label": "Precompiled"
            },
            {
                "address": "0x0000000000000000000000000000000000000002",
                "label": "Precompiled"
            },
            {
                "address": "0x0000000000000000000000000000000000000003",
                "label": "Precompiled"
            }
        ]
    },
    "trace": {
        "accountLabels": null,
        "dataMap": {
            "-1": {
                "invocation": {
                    "address": "0x876eabf441b2ee5b5b0554fd502a8e0600950cfa",
                    "callData": "",
                    "decodedMethod": null,
                    "errorInfo": "",
                    "fromAddress": "",
                    "gasUsed": 0,
                    "id": -1,
                    "methodDecoded": false,
                    "operation": "",
                    "output": "",
                    "revert": false,
                    "revertMessage": "",
                    "selector": "",
                    "status": false,
                    "value": ""
                },
                "nodeType": 0
            },
            "0": {
                "invocation": {
                    "address": "0xfc05987bd2be489accf0f509e44b0145d68240f7",
                    "callData": "0x0000000000000000000000007a8237b2e5f4cf98c36ec5d9389fd239048864dc00000000000000000000000000000000000000000000012851603d5c6ab20000",
                    "decodedMethod": {
                        "callParams": [
                            {
                                "name": "_to",
                                "type": "address",
                                "value": "0x7a8237b2e5f4cf98c36ec5d9389fd239048864dc"
                            },
                            {
                                "decimalAvailable": true,
                                "name": "_value",
                                "type": "uint256",
                                "value": "5,466,100,000,000,000,000,000"
                            }
                        ],
                        "constructorArguments": "",
                        "name": "transfer",
                        "returnParams": [
                            {
                                "name": "",
                                "type": "bool",
                                "value": true
                            }
                        ],
                        "signature": "transfer(address,uint256)"
                    },
                    "errorInfo": "",
                    "fromAddress": "0x876eabf441b2ee5b5b0554fd502a8e0600950cfa",
                    "gasUsed": 52024,
                    "id": 0,
                    "methodDecoded": true,
                    "operation": "CALL",
                    "output": "0x0000000000000000000000000000000000000000000000000000000000000001",
                    "revert": false,
                    "revertMessage": "",
                    "selector": "0xa9059cbb",
                    "status": true,
                    "value": "0"
                },
                "nodeType": 0
            },
            "1": {
                "event": {
                    "contract": "0xfc05987bd2be489accf0f509e44b0145d68240f7",
                    "decodedLog": {
                        "name": "Transfer",
                        "params": [
                            {
                                "name": "from",
                                "type": "address",
                                "value": "0x876eabf441b2ee5b5b0554fd502a8e0600950cfa"
                            },
                            {
                                "name": "to",
                                "type": "address",
                                "value": "0x7a8237b2e5f4cf98c36ec5d9389fd239048864dc"
                            },
                            {
                                "decimalAvailable": true,
                                "name": "value",
                                "type": "uint256",
                                "value": "5,466,100,000,000,000,000,000"
                            }
                        ],
                        "signature": "Transfer(address,address,uint256)"
                    },
                    "id": 1,
                    "logData": "0x00000000000000000000000000000000000000000000012851603d5c6ab20000",
                    "logDecoded": true,
                    "operation": "EVENT",
                    "revert": false,
                    "status": true,
                    "topics": [
                        "0xddf252ad1be2c89b69c2b068fc378daa952ba7f163c4a11628f55a4df523b3ef",
                        "0x000000000000000000000000876eabf441b2ee5b5b0554fd502a8e0600950cfa",
                        "0x0000000000000000000000007a8237b2e5f4cf98c36ec5d9389fd239048864dc"
                    ]
                },
                "nodeType": 1
            }
        },
        "gasFlame": [
            {
                "children": [
                    {
                        "children": [
                            {
                                "children": [],
                                "depth": 0,
                                "name": "Initial Gas",
                                "value": 21656
                            },
                            {
                                "children": [],
                                "depth": 0,
                                "name": "Executed Gas",
                                "value": 30368
                            }
                        ],
                        "depth": -1,
                        "name": "Actual Gas Used",
                        "value": 52024
                    },
                    {
                        "children": [],
                        "depth": -1,
                        "name": "Refunded Gas",
                        "value": 0
                    }
                ],
                "depth": -2,
                "name": "Total Gas",
                "value": 52024
            }
        ],
        "isConfirmed": true,
        "mainTrace": [
            {
                "children": [
                    {
                        "children": [
                            {
                                "children": [],
                                "depth": 1,
                                "id": 1,
                                "order": 1
                            }
                        ],
                        "depth": 0,
                        "id": 0,
                        "order": 0
                    }
                ],
                "depth": -1,
                "id": -1,
                "order": -1
            }
        ],
        "mainTraceNodeCount": 2,
        "parentIdMap": {
            "0": -1,
            "1": 0
        },
        "tidyTrace": [
            {
                "children": [
                    {
                        "children": [
                            {
                                "children": [],
                                "depth": 1,
                                "id": 1,
                                "order": 1
                            }
                        ],
                        "depth": 0,
                        "id": 0,
                        "order": 0
                    }
                ],
                "depth": -1,
                "id": -1,
                "order": -1
            }
        ],
        "tidyTraceNodeCount": 2
    },
    "state_change": {
        "stateChanges": [
            {
                "address": "0xfc05987bd2be489accf0f509e44b0145d68240f7",
                "erc": "ERC-20",
                "slots": [
                    {
                        "current": "0x0000000000000000000000000000000000000000001d572c4d63f17874b67bf7",
                        "key": "0xd1241bce2c2deda1a58f52fbb0d7cacfa3ab9946f123faf19be09a0397dcbfca",
                        "prev": "0x0000000000000000000000000000000000000000001d58549ec42ed4df687bf7"
                    },
                    {
                        "current": "0x00000000000000000000000000000000000000000000012851603d5c6ab20000",
                        "key": "0x0dca053bae5517af4df6e87dcf720c0dfd672ab444d065a47a259a689a328342",
                        "prev": "0x0000000000000000000000000000000000000000000000000000000000000000"
                    }
                ],
                "storageVariables": [
                    {
                        "name": "balances",
                        "type": "mapping(address => uint256)",
                        "value": {
                            "pairs": [
                                {
                                    "key": "0x7a8237b2e5f4cf98c36ec5d9389fd239048864dc",
                                    "value": {
                                        "current": "5466100000000000000000",
                                        "prev": "0",
                                        "typeTag": 1
                                    }
                                },
                                {
                                    "key": "0x876eabf441b2ee5b5b0554fd502a8e0600950cfa",
                                    "value": {
                                        "current": "35470511886139411691633655",
                                        "prev": "35475977986139411691633655",
                                        "typeTag": 1
                                    }
                                }
                            ],
                            "typeTag": 4
                        }
                    }
                ]
            }
        ]
    }
}