{
    "balance_change": {
        "balanceChanges": [
            {
                "account": "0x47e65258ea442d3dd8d01c1b95e443994e4b7bc0",
                "assets": [
                    {
                        "address": "0xc555d625828c4527d477e595ff1dd5801b4a600e",
                        "amount": "54.970519304995279905",
                        "iconUrl": "",
                        "isERC1155": false,
                        "isERC721": false,
                        "sign": true,
                        "value": "18.1728825"
                    }
                ]
            },
            {
                "account": "0x0a32372381ea32a441d46553f879e4de7027b011",
                "assets": [
                    {
                        "address": "0xc555d625828c4527d477e595ff1dd5801b4a600e",
                        "amount": "54.970519304995279905",
                        "iconUrl": "",
                        "isERC1155": false,
                        "isERC721": false,
                        "sign": false,
                        "value": "18.1728825"
                    }
                ]
            }
        ]
    },
    "profile": {
        "basic_info": {
            "baseFee": "6.293162314",
            "blockNumber": 20049552,
            "callData": "0x1f9ae844000000000000000000000000000000000000000000000000000000000000000000000000000000000000000000000000000000000000000000000000000000400000000000000000000000000000000000000000000000000000000000000002000000000000000000000000000000000000000000000002fade840fc4ff142100000000000000000000000000000000000000000000000000000000000000600000000000000000000000000000000000000000000000000000000000000011463ae6384ab868b50ff4cb143696b6c557580f5c5fa271fb4754a892e320172cd856ad847daa5250f03efcef92c4317127516a51fae7bb190ec1bbb82ef94bb1bde4feec66fa908792744a0c1173595ec66e7e4c7d127b206081d9509af21c197af77f747c3adc871dddf7cfc16f53c7e8bde8d25d8e0cbe470762e93da5a8ced2cb166812d95feb33bf58965e09f4ab8e775e0134a0f26ea8a5b231536cef2b86fa9ea3a3c7fef5a801103d9859cad410c6a748c6bd055fdd815a0d35384577213939b335a9919debb2038937310c16f5164620e432c047ed246242483d8e5a3a0a870d889b236ab819d318ddab37c240b4a718515dde9504a2d609c9c322a13aaf8ce60b8b5c87cfe13965f856bcd67779898952ed37587b854a773409dc1bf0c8b29a3aac3bea6b244250224ebd6885aad3574286054b08b64744e8d8b610abae02d228fde7ce3e104207d6a93fe7e6795d4ddd4ae42b690df59999d121ff9e4830a4d50295c1b444b4c504a5b1d3c4b83c4f208c77b59c92d26682711d123b6ec43d4ee9a87ab8371c3faed139662653feb0bef5d1a9726455f0b8808b1abc43b744937bd932b0a90c316bca4abd57067273282481260940da9de6fd84b9948b3ece84904b9c5051f58b583577e8e96bb6d447b0ec42982f29ca7bff228db1d42fd964f1e54cd0a1a282d1480c50f9cf57dad69dca51466f2dfbc3b6b78ddcca609459e81e14114b75b82e90567542a211e1348275e71691ca851617a166",
            "debugEnable": true,
            "errorInfo": "",
            "eventCount": 2,
            "feeRecipient": "0x95222290dd7278aa3ddd389cc1e1d165cc4bafe5",
            "formatValue": "0",
            "gasLimit": 126698,
            "gasPrice": "6.393162314",
            "gasUsed": 119619,
            "intTxnCount": 3,
            "internalRevert": false,
            "internalRevertMessage": "",
            "isContractCreation": false,
            "isFlashloan": false,
            "maxFee": "8.725099778",
            "nonce": 24,
            "overwritedBlockNumber": -1,
            "priorityFee": "0.1",
            "receiver": "0x0a32372381ea32a441d46553f879e4de7027b011",
            "revertMessage": "",
            "sender": "0x47e65258ea442d3dd8d01c1b95e443994e4b7bc0",
            "simulationEnable": true,
            "sourceTxnHash": "0x831ad33519d6a3a03190a551dedf740132349a684ee936b58d002267fbe4536b",
            "status": true,
            "timestamp": "2024-06-08T20:39:23Z",
            "transactionFee": "0.000764743682838366",
            "txnHash": "0x831ad33519d6a3a03190a551dedf740132349a684ee936b58d002267fbe4536b",
            "txnIndex": 84,
            "type": 2,
            "value": "0"
        },
        "fund_flow": [
            {
                "amount": "54.970519304995279905",
                "from": "0x0a32372381ea32a441d46553f879e4de7027b011",
                "id": 1,
                "isERC1155": false,
                "isERC721": false,
                "isReverted": false,
                "order": 1,
                "to": "0x47e65258ea442d3dd8d01c1b95e443994e4b7bc0",
                "token": "0xc555d625828c4527d477e595ff1dd5801b4a600e"
            }
        ],
        "token_infos": [
            {
                "address": "0xeeeeeeeeeeeeeeeeeeeeeeeeeeeeeeeeeeeeeeee",
                "decimals": 18
            },
            {
                "address": "0xc02aaa39b223fe8d0a0e5c4f27ead9083c756cc2",
                "decimals": 18
            },
            {
                "address": "0xc555d625828c4527d477e595ff1dd5801b4a600e",
                "decimals": 18
            }
        ]
    },
    "address_label": {
        "labels": [
            {
                "address": "0x0000000000000000000000000000000000000002",
                "label": "Precompiled"
            },
            {
                "address": "0x0a32372381ea32a441d46553f879e4de7027b011",
                "label": "Stakeland: Farming Claim"
            },
            {
                "address": "0x0000000000000000000000000000000000000000",
                "label": "Null Address"
            },
            {
                "address": "0xd81acd9d8e1fc645d679905549b2b76def4adde5",
                "label": "Mon"
            },
            {
                "address": "0x0000000000000000000000000000000000000001",
                "label": "Precompiled"
            },
            {
                "address": "0x0000000000000000000000000000000000000004",
                "label": "Precompiled"
            },
            {
                "address": "0xeeeeeeeeeeeeeeeeeeeeeeeeeeeeeeeeeeeeeeee",
                "label": "Ether"
            },
            {
                "address": "0xc555d625828c4527d477e595ff1dd5801b4a600e",
                "label": "MON Protocol: MON Token"
            },
            {
                "address": "0x3a4dce77ccd45f890607c4745e71d593de2920af",
                "label": "StakelandFarmClaim"
            },
            {
                "address": "0x0000000000000000000000000000000000000003",
                "label": "Precompiled"
            }
        ]
    },
    "trace": {
        "accountLabels": null,
        "dataMap": {
            "-1": {
                "invocation": {
                    "address": "0x47e65258ea442d3dd8d01c1b95e443994e4b7bc0",
                    "callData": "",
                    "decodedMethod": null,
                    "errorInfo": "",
                    "fromAddress": "",
                    "gasUsed": 0,
                    "id": -1,
                    "methodDecoded": false,
                    "operation": "",
                    "output": "",
                    "revert": false,
                    "revertMessage": "",
                    "selector": "",
                    "status": false,
                    "value": ""
                },
                "nodeType": 0
            },
            "0": {
                "invocation": {
                    "address": "0x0a32372381ea32a441d46553f879e4de7027b011",
                    "callData": "0x000000000000000000000000000000000000000000000000000000000000000000000000000000000000000000000000000000000000000000000000000000400000000000000000000000000000000000000000000000000000000000000002000000000000000000000000000000000000000000000002fade840fc4ff142100000000000000000000000000000000000000000000000000000000000000600000000000000000000000000000000000000000000000000000000000000011463ae6384ab868b50ff4cb143696b6c557580f5c5fa271fb4754a892e320172cd856ad847daa5250f03efcef92c4317127516a51fae7bb190ec1bbb82ef94bb1bde4feec66fa908792744a0c1173595ec66e7e4c7d127b206081d9509af21c197af77f747c3adc871dddf7cfc16f53c7e8bde8d25d8e0cbe470762e93da5a8ced2cb166812d95feb33bf58965e09f4ab8e775e0134a0f26ea8a5b231536cef2b86fa9ea3a3c7fef5a801103d9859cad410c6a748c6bd055fdd815a0d35384577213939b335a9919debb2038937310c16f5164620e432c047ed246242483d8e5a3a0a870d889b236ab819d318ddab37c240b4a718515dde9504a2d609c9c322a13aaf8ce60b8b5c87cfe13965f856bcd67779898952ed37587b854a773409dc1bf0c8b29a3aac3bea6b244250224ebd6885aad3574286054b08b64744e8d8b610abae02d228fde7ce3e104207d6a93fe7e6795d4ddd4ae42b690df59999d121ff9e4830a4d50295c1b444b4c504a5b1d3c4b83c4f208c77b59c92d26682711d123b6ec43d4ee9a87ab8371c3faed139662653feb0bef5d1a9726455f0b8808b1abc43b744937bd932b0a90c316bca4abd57067273282481260940da9de6fd84b9948b3ece84904b9c5051f58b583577e8e96bb6d447b0ec42982f29ca7bff228db1d42fd964f1e54cd0a1a282d1480c50f9cf57dad69dca51466f2dfbc3b6b78ddcca609459e81e14114b75b82e90567542a211e1348275e71691ca851617a166",
                    "decodedMethod": {
                        "callParams": [
                            {
                                "name": "vault",
                                "type": "address",
                                "value": "0x0000000000000000000000000000000000000000"
                            },
                            {
                                "name": "tokenClaim",
                                "type": "(uint16,uint240,bytes32[])",
                                "value": [
                                    {
                                        "name": "farmId",
                                        "type": "uint16",
                                        "value": "2"
                                    },
                                    {
                                        "name": "totalAllocated",
                                        "type": "uint240",
                                        "value": "54,970,519,304,995,279,905"
                                    },
                                    {
                                        "name": "proof",
                                        "type": "bytes32[]",
                                        "value": [
                                            "0x463ae6384ab868b50ff4cb143696b6c557580f5c5fa271fb4754a892e320172c",
                                            "0xd856ad847daa5250f03efcef92c4317127516a51fae7bb190ec1bbb82ef94bb1",
                                            "0xbde4feec66fa908792744a0c1173595ec66e7e4c7d127b206081d9509af21c19",
                                            "0x7af77f747c3adc871dddf7cfc16f53c7e8bde8d25d8e0cbe470762e93da5a8ce",
                                            "0xd2cb166812d95feb33bf58965e09f4ab8e775e0134a0f26ea8a5b231536cef2b",
                                            "0x86fa9ea3a3c7fef5a801103d9859cad410c6a748c6bd055fdd815a0d35384577",
                                            "0x213939b335a9919debb2038937310c16f5164620e432c047ed246242483d8e5a",
                                            "0x3a0a870d889b236ab819d318ddab37c240b4a718515dde9504a2d609c9c322a1",
                                            "0x3aaf8ce60b8b5c87cfe13965f856bcd67779898952ed37587b854a773409dc1b",
                                            "0xf0c8b29a3aac3bea6b244250224ebd6885aad3574286054b08b64744e8d8b610",
                                            "0xabae02d228fde7ce3e104207d6a93fe7e6795d4ddd4ae42b690df59999d121ff",
                                            "0x9e4830a4d50295c1b444b4c504a5b1d3c4b83c4f208c77b59c92d26682711d12",
                                            "0x3b6ec43d4ee9a87ab8371c3faed139662653feb0bef5d1a9726455f0b8808b1a",
                                            "0xbc43b744937bd932b0a90c316bca4abd57067273282481260940da9de6fd84b9",
                                            "0x948b3ece84904b9c5051f58b583577e8e96bb6d447b0ec42982f29ca7bff228d",
                                            "0xb1d42fd964f1e54cd0a1a282d1480c50f9cf57dad69dca51466f2dfbc3b6b78d",
                                            "0xdcca609459e81e14114b75b82e90567542a211e1348275e71691ca851617a166"
                                        ]
                                    }
                                ]
                            }
                        ],
                        "constructorArguments": "",
                        "name": "claim",
                        "returnParams": [],
                        "signature": "claim(address,(uint16,uint240,bytes32[]))"
                    },
                    "errorInfo": "",
                    "fromAddress": "0x47e65258ea442d3dd8d01c1b95e443994e4b7bc0",
                    "gasUsed": 119619,
                    "id": 0,
                    "methodDecoded": true,
                    "operation": "CALL",
                    "output": "",
                    "revert": false,
                    "revertMessage": "",
                    "selector": "0x1f9ae844",
                    "status": true,
                    "value": "0"
                },
                "nodeType": 0
            },
            "1": {
                "invocation": {
                    "address": "0x3a4dce77ccd45f890607c4745e71d593de2920af",
                    "callData": "0x000000000000000000000000000000000000000000000000000000000000000000000000000000000000000000000000000000000000000000000000000000400000000000000000000000000000000000000000000000000000000000000002000000000000000000000000000000000000000000000002fade840fc4ff142100000000000000000000000000000000000000000000000000000000000000600000000000000000000000000000000000000000000000000000000000000011463ae6384ab868b50ff4cb143696b6c557580f5c5fa271fb4754a892e320172cd856ad847daa5250f03efcef92c4317127516a51fae7bb190ec1bbb82ef94bb1bde4feec66fa908792744a0c1173595ec66e7e4c7d127b206081d9509af21c197af77f747c3adc871dddf7cfc16f53c7e8bde8d25d8e0cbe470762e93da5a8ced2cb166812d95feb33bf58965e09f4ab8e775e0134a0f26ea8a5b231536cef2b86fa9ea3a3c7fef5a801103d9859cad410c6a748c6bd055fdd815a0d35384577213939b335a9919debb2038937310c16f5164620e432c047ed246242483d8e5a3a0a870d889b236ab819d318ddab37c240b4a718515dde9504a2d609c9c322a13aaf8ce60b8b5c87cfe13965f856bcd67779898952ed37587b854a773409dc1bf0c8b29a3aac3bea6b244250224ebd6885aad3574286054b08b64744e8d8b610abae02d228fde7ce3e104207d6a93fe7e6795d4ddd4ae42b690df59999d121ff9e4830a4d50295c1b444b4c504a5b1d3c4b83c4f208c77b59c92d26682711d123b6ec43d4ee9a87ab8371c3faed139662653feb0bef5d1a9726455f0b8808b1abc43b744937bd932b0a90c316bca4abd57067273282481260940da9de6fd84b9948b3ece84904b9c5051f58b583577e8e96bb6d447b0ec42982f29ca7bff228db1d42fd964f1e54cd0a1a282d1480c50f9cf57dad69dca51466f2dfbc3b6b78ddcca609459e81e14114b75b82e90567542a211e1348275e71691ca851617a166",
                    "decodedMethod": {
                        "callParams": [
                            {
                                "name": "vault",
                                "type": "address",
                                "value": "0x0000000000000000000000000000000000000000"
                            },
                            {
                                "name": "tokenClaim",
                                "type": "(uint16,uint240,bytes32[])",
                                "value": [
                                    {
                                        "name": "farmId",
                                        "type": "uint16",
                                        "value": "2"
                                    },
                                    {
                                        "name": "totalAllocated",
                                        "type": "uint240",
                                        "value": "54,970,519,304,995,279,905"
                                    },
                                    {
                                        "name": "proof",
                                        "type": "bytes32[]",
                                        "value": [
                                            "0x463ae6384ab868b50ff4cb143696b6c557580f5c5fa271fb4754a892e320172c",
                                            "0xd856ad847daa5250f03efcef92c4317127516a51fae7bb190ec1bbb82ef94bb1",
                                            "0xbde4feec66fa908792744a0c1173595ec66e7e4c7d127b206081d9509af21c19",
                                            "0x7af77f747c3adc871dddf7cfc16f53c7e8bde8d25d8e0cbe470762e93da5a8ce",
                                            "0xd2cb166812d95feb33bf58965e09f4ab8e775e0134a0f26ea8a5b231536cef2b",
                                            "0x86fa9ea3a3c7fef5a801103d9859cad410c6a748c6bd055fdd815a0d35384577",
                                            "0x213939b335a9919debb2038937310c16f5164620e432c047ed246242483d8e5a",
                                            "0x3a0a870d889b236ab819d318ddab37c240b4a718515dde9504a2d609c9c322a1",
                                            "0x3aaf8ce60b8b5c87cfe13965f856bcd67779898952ed37587b854a773409dc1b",
                                            "0xf0c8b29a3aac3bea6b244250224ebd6885aad3574286054b08b64744e8d8b610",
                                            "0xabae02d228fde7ce3e104207d6a93fe7e6795d4ddd4ae42b690df59999d121ff",
                                            "0x9e4830a4d50295c1b444b4c504a5b1d3c4b83c4f208c77b59c92d26682711d12",
                                            "0x3b6ec43d4ee9a87ab8371c3faed139662653feb0bef5d1a9726455f0b8808b1a",
                                            "0xbc43b744937bd932b0a90c316bca4abd57067273282481260940da9de6fd84b9",
                                            "0x948b3ece84904b9c5051f58b583577e8e96bb6d447b0ec42982f29ca7bff228d",
                                            "0xb1d42fd964f1e54cd0a1a282d1480c50f9cf57dad69dca51466f2dfbc3b6b78d",
                                            "0xdcca609459e81e14114b75b82e90567542a211e1348275e71691ca851617a166"
                                        ]
                                    }
                                ]
                            }
                        ],
                        "constructorArguments": "",
                        "name": "claim",
                        "returnParams": [],
                        "signature": "claim(address,(uint16,uint240,bytes32[]))"
                    },
                    "errorInfo": "",
                    "fromAddress": "0x0a32372381ea32a441d46553f879e4de7027b011",
                    "gasUsed": 86702,
                    "id": 1,
                    "methodDecoded": true,
                    "operation": "DELEGATECALL",
                    "output": "",
                    "revert": false,
                    "revertMessage": "",
                    "selector": "0x1f9ae844",
                    "status": true,
                    "value": "0"
                },
                "nodeType": 0
            },
            "2": {
                "invocation": {
                    "address": "0xc555d625828c4527d477e595ff1dd5801b4a600e",
                    "callData": "0x00000000000000000000000047e65258ea442d3dd8d01c1b95e443994e4b7bc0000000000000000000000000000000000000000000000002fade840fc4ff1421",
                    "decodedMethod": {
                        "callParams": [
                            {
                                "name": "to",
                                "type": "address",
                                "value": "0x47e65258ea442d3dd8d01c1b95e443994e4b7bc0"
                            },
                            {
                                "decimalAvailable": true,
                                "name": "value",
                                "type": "uint256",
                                "value": "54,970,519,304,995,279,905"
                            }
                        ],
                        "constructorArguments": "",
                        "name": "transfer",
                        "returnParams": [
                            {
                                "name": "",
                                "type": "bool",
                                "value": true
                            }
                        ],
                        "signature": "transfer(address,uint256)"
                    },
                    "errorInfo": "",
                    "fromAddress": "0x0a32372381ea32a441d46553f879e4de7027b011",
                    "gasUsed": 37216,
                    "id": 2,
                    "methodDecoded": true,
                    "operation": "CALL",
                    "output": "0x0000000000000000000000000000000000000000000000000000000000000001",
                    "revert": false,
                    "revertMessage": "",
                    "selector": "0xa9059cbb",
                    "status": true,
                    "value": "0"
                },
                "nodeType": 0
            },
            "3": {
                "invocation": {
                    "address": "0xd81acd9d8e1fc645d679905549b2b76def4adde5",
                    "callData": "0x00000000000000000000000047e65258ea442d3dd8d01c1b95e443994e4b7bc0000000000000000000000000000000000000000000000002fade840fc4ff1421",
                    "decodedMethod": {
                        "callParams": [
                            {
                                "name": "to",
                                "type": "address",
                                "value": "0x47e65258ea442d3dd8d01c1b95e443994e4b7bc0"
                            },
                            {
                                "decimalAvailable": true,
                                "name": "value",
                                "type": "uint256",
                                "value": "54,970,519,304,995,279,905"
                            }
                        ],
                        "constructorArguments": "",
                        "name": "transfer",
                        "returnParams": [
                            {
                                "name": "",
                                "type": "bool",
                                "value": true
                            }
                        ],
                        "signature": "transfer(address,uint256)"
                    },
                    "errorInfo": "",
                    "fromAddress": "0xc555d625828c4527d477e595ff1dd5801b4a600e",
                    "gasUsed": 32265,
                    "id": 3,
                    "methodDecoded": true,
                    "operation": "DELEGATECALL",
                    "output": "0x0000000000000000000000000000000000000000000000000000000000000001",
                    "revert": false,
                    "revertMessage": "",
                    "selector": "0xa9059cbb",
                    "status": true,
                    "value": "0"
                },
                "nodeType": 0
            },
            "4": {
                "event": {
                    "contract": "0xc555d625828c4527d477e595ff1dd5801b4a600e",
                    "decodedLog": {
                        "name": "Transfer",
                        "params": [
                            {
                                "name": "from",
                                "type": "address",
                                "value": "0x0a32372381ea32a441d46553f879e4de7027b011"
                            },
                            {
                                "name": "to",
                                "type": "address",
                                "value": "0x47e65258ea442d3dd8d01c1b95e443994e4b7bc0"
                            },
                            {
                                "decimalAvailable": true,
                                "name": "value",
                                "type": "uint256",
                                "value": "54,970,519,304,995,279,905"
                            }
                        ],
                        "signature": "Transfer(address,address,uint256)"
                    },
                    "id": 4,
                    "logData": "0x000000000000000000000000000000000000000000000002fade840fc4ff1421",
                    "logDecoded": true,
                    "operation": "EVENT",
                    "revert": false,
                    "status": true,
                    "topics": [
                        "0xddf252ad1be2c89b69c2b068fc378daa952ba7f163c4a11628f55a4df523b3ef",
                        "0x0000000000000000000000000a32372381ea32a441d46553f879e4de7027b011",
                        "0x00000000000000000000000047e65258ea442d3dd8d01c1b95e443994e4b7bc0"
                    ]
                },
                "nodeType": 1
            },
            "5": {
                "event": {
                    "contract": "0x0a32372381ea32a441d46553f879e4de7027b011",
                    "decodedLog": {
                        "name": "Claimed",
                        "params": [
                            {
                                "name": "user",
                                "type": "address",
                                "value": "0x47e65258ea442d3dd8d01c1b95e443994e4b7bc0"
                            },
                            {
                                "name": "farmId",
                                "type": "uint16",
                                "value": "2"
                            },
                            {
                                "name": "token",
                                "type": "address",
                                "value": "0xc555d625828c4527d477e595ff1dd5801b4a600e"
                            },
                            {
                                "name": "amount",
                                "type": "uint256",
                                "value": "54,970,519,304,995,279,905"
                            },
                            {
                                "name": "claimedAt",
                                "type": "uint256",
                                "value": "1,717,879,163"
                            }
                        ],
                        "signature": "Claimed(address,uint16,address,uint256,uint256)"
                    },
                    "id": 5,
                    "logData": "0x0000000000000000000000000000000000000000000000000000000000000002000000000000000000000000c555d625828c4527d477e595ff1dd5801b4a600e000000000000000000000000000000000000000000000002fade840fc4ff1421000000000000000000000000000000000000000000000000000000006664c17b",
                    "logDecoded": true,
                    "operation": "EVENT",
                    "revert": false,
                    "status": true,
                    "topics": [
                        "0x9dc8b4d703d946bb6f6cd4fa4db8e992fe77aca2901c3726a71c9ab8ca1aa305",
                        "0x00000000000000000000000047e65258ea442d3dd8d01c1b95e443994e4b7bc0"
                    ]
                },
                "nodeType": 1
            }
        },
        "gasFlame": [
            {
                "children": [
                    {
                        "children": [
                            {
                                "children": [],
                                "depth": 0,
                                "name": "Initial Gas",
                                "value": 30692
                            },
                            {
                                "children": [
                                    {
                                        "children": [
                                            {
                                                "children": [
                                                    {
                                                        "children": [],
                                                        "depth": 3,
                                                        "name": "transfer",
                                                        "value": 32265
                                                    }
                                                ],
                                                "depth": 2,
                                                "name": "transfer",
                                                "value": 37216
                                            }
                                        ],
                                        "depth": 1,
                                        "name": "claim",
                                        "value": 86702
                                    }
                                ],
                                "depth": 0,
                                "name": "Executed Gas",
                                "value": 91727
                            }
                        ],
                        "depth": -1,
                        "name": "Actual Gas Used",
                        "value": 119619
                    },
                    {
                        "children": [],
                        "depth": -1,
                        "name": "Refunded Gas",
                        "value": 2800
                    }
                ],
                "depth": -2,
                "name": "Total Gas",
                "value": 122419
            }
        ],
        "isConfirmed": true,
        "mainTrace": [
            {
                "children": [
                    {
                        "children": [
                            {
                                "children": [
                                    {
                                        "children": [
                                            {
                                                "children": [
                                                    {
                                                        "children": [],
                                                        "depth": 4,
                                                        "id": 4,
                                                        "order": 4
                                                    }
                                                ],
                                                "depth": 3,
                                                "id": 3,
                                                "order": 3
                                            }
                                        ],
                                        "depth": 2,
                                        "id": 2,
                                        "order": 2
                                    },
                                    {
                                        "children": [],
                                        "depth": 2,
                                        "id": 5,
                                        "order": 5
                                    }
                                ],
                                "depth": 1,
                                "id": 1,
                                "order": 1
                            }
                        ],
                        "depth": 0,
                        "id": 0,
                        "order": 0
                    }
                ],
                "depth": -1,
                "id": -1,
                "order": -1
            }
        ],
        "mainTraceNodeCount": 6,
        "parentIdMap": {
            "0": -1,
            "1": 0,
            "2": 1,
            "3": 2,
            "4": 3,
            "5": 1
        },
        "tidyTrace": [
            {
                "children": [
                    {
                        "children": [
                            {
                                "children": [
                                    {
                                        "children": [
                                            {
                                                "children": [
                                                    {
                                                        "children": [],
                                                        "depth": 4,
                                                        "id": 4,
                                                        "order": 4
                                                    }
                                                ],
                                                "depth": 3,
                                                "id": 3,
                                                "order": 3
                                            }
                                        ],
                                        "depth": 2,
                                        "id": 2,
                                        "order": 2
                                    },
                                    {
                                        "children": [],
                                        "depth": 2,
                                        "id": 5,
                                        "order": 5
                                    }
                                ],
                                "depth": 1,
                                "id": 1,
                                "order": 1
                            }
                        ],
                        "depth": 0,
                        "id": 0,
                        "order": 0
                    }
                ],
                "depth": -1,
                "id": -1,
                "order": -1
            }
        ],
        "tidyTraceNodeCount": 6
    },
    "state_change": {
        "stateChanges": [
            {
                "address": "0x0a32372381ea32a441d46553f879e4de7027b011",
                "erc": "",
                "slots": [
                    {
                        "current": "0x000000000000000000000000000000000000000000000002fade840fc4ff1421",
                        "key": "0xfcfb5f96d19c2fcf9bb3cd135dd1e11ef9432ec9f319cd6228defb6e0bbe9222",
                        "prev": "0x0000000000000000000000000000000000000000000000000000000000000000"
                    }
                ],
                "storageVariables": [
                    {
                        "name": "_usersTokensClaimedById",
                        "type": "mapping(address => mapping(uint16 => uint256))",
                        "value": {
                            "pairs": [
                                {
                                    "key": "0x47e65258ea442d3dd8d01c1b95e443994e4b7bc0",
                                    "value": {
                                        "pairs": [
                                            {
                                                "key": "2",
                                                "value": {
                                                    "current": "54970519304995279905",
                                                    "prev": "0",
                                                    "typeTag": 1
                                                }
                                            }
                                        ],
                                        "typeTag": 4
                                    }
                                }
                            ],
                            "typeTag": 4
                        }
                    }
                ]
            },
            {
                "address": "0xc555d625828c4527d477e595ff1dd5801b4a600e",
                "erc": "ERC-20",
                "slots": [
                    {
                        "current": "0x00000000000000000000000000000000000000000006252c61a808e6e9bd3e81",
                        "key": "0xe32158bdea82a65e65ae3546d6ebf8f942ced68bf381730b69e066752e9cc03a",
                        "prev": "0x00000000000000000000000000000000000000000006252f5c868cf6aebc52a2"
                    },
                    {
                        "current": "0x000000000000000000000000000000000000000000000002fade840fc4ff1421",
                        "key": "0xaaa14543a9c4af7b03406ab3a111f5131fc1a9b0e8f24bcac99878752c27ff19",
                        "prev": "0x0000000000000000000000000000000000000000000000000000000000000000"
                    }
                ],
                "storageVariables": []
            }
        ]
    }
}