{
    "balance_change": {
        "balanceChanges": [
            {
                "account": "0x5d9a1269d68ce2a4b06558466f364af60761afe8",
                "assets": [
                    {
                        "address": "0x7a19b5970f9e58d10a6aa31cd86ca1badfd76234",
                        "amount": "1,278.795",
                        "iconUrl": "",
                        "isERC1155": false,
                        "isERC721": false,
                        "sign": false,
                        "value": ""
                    }
                ]
            },
            {
                "account": "0x07d160e3c4b8d6bb006ad303b3e1400939e5d5b7",
                "assets": [
                    {
                        "address": "0x7a19b5970f9e58d10a6aa31cd86ca1badfd76234",
                        "amount": "1,278.795",
                        "iconUrl": "",
                        "isERC1155": false,
                        "isERC721": false,
                        "sign": true,
                        "value": ""
                    }
                ]
            }
        ]
    },
    "profile": {
        "basic_info": {
            "baseFee": "",
            "blockNumber": 5684648,
            "callData": "0xa9059cbb00000000000000000000000007d160e3c4b8d6bb006ad303b3e1400939e5d5b700000000000000000000000000000000000000000000004552d87d2759a78000",
            "debugEnable": true,
            "errorInfo": "",
            "eventCount": 1,
            "feeRecipient": "0x829bd824b016326a401d083b33d092293333a830",
            "formatValue": "0",
            "gasLimit": 60000,
            "gasPrice": "6.46875",
            "gasUsed": 22028,
            "intTxnCount": 0,
            "internalRevert": false,
            "internalRevertMessage": "",
            "isContractCreation": false,
            "isFlashloan": false,
            "maxFee": "",
            "nonce": 0,
            "overwritedBlockNumber": -1,
            "priorityFee": "",
            "receiver": "0x7a19b5970f9e58d10a6aa31cd86ca1badfd76234",
            "revertMessage": "",
            "sender": "0x5d9a1269d68ce2a4b06558466f364af60761afe8",
            "simulationEnable": true,
            "sourceTxnHash": "0x8447c6b40c9ca4069aae7b76b2cf68211661f9651f1ec9fdb26f18be1130d3fa",
            "status": true,
            "timestamp": "2018-05-27T08:24:51Z",
            "transactionFee": "0.000142493625",
            "txnHash": "0x8447c6b40c9ca4069aae7b76b2cf68211661f9651f1ec9fdb26f18be1130d3fa",
            "txnIndex": 160,
            "type": 0,
            "value": "0"
        },
        "fund_flow": [
            {
                "amount": "1,278.795",
                "from": "0x5d9a1269d68ce2a4b06558466f364af60761afe8",
                "id": 1,
                "isERC1155": false,
                "isERC721": false,
                "isReverted": false,
                "order": 1,
                "to": "0x07d160e3c4b8d6bb006ad303b3e1400939e5d5b7",
                "token": "0x7a19b5970f9e58d10a6aa31cd86ca1badfd76234"
            }
        ],
        "token_infos": [
            {
                "address": "0x7a19b5970f9e58d10a6aa31cd86ca1badfd76234",
                "decimals": 18
            },
            {
                "address": "0xc02aaa39b223fe8d0a0e5c4f27ead9083c756cc2",
                "decimals": 18
            },
            {
                "address": "0xeeeeeeeeeeeeeeeeeeeeeeeeeeeeeeeeeeeeeeee",
                "decimals": 18
            }
        ]
    },
    "address_label": {
        "labels": [
            {
                "address": "0x7a19b5970f9e58d10a6aa31cd86ca1badfd76234",
                "label": "CCEC"
            },
            {
                "address": "0x0000000000000000000000000000000000000001",
                "label": "Precompiled"
            },
            {
                "address": "0x0000000000000000000000000000000000000002",
                "label": "Precompiled"
            },
            {
                "address": "0x0000000000000000000000000000000000000003",
                "label": "Precompiled"
            },
            {
                "address": "0x0000000000000000000000000000000000000004",
                "label": "Precompiled"
            },
            {
                "address": "0xeeeeeeeeeeeeeeeeeeeeeeeeeeeeeeeeeeeeeeee",
                "label": "Ether"
            }
        ]
    },
    "trace": {
        "accountLabels": null,
        "dataMap": {
            "-1": {
                "invocation": {
                    "address": "0x5d9a1269d68ce2a4b06558466f364af60761afe8",
                    "callData": "",
                    "decodedMethod": null,
                    "errorInfo": "",
                    "fromAddress": "",
                    "gasUsed": 0,
                    "id": -1,
                    "methodDecoded": false,
                    "operation": "",
                    "output": "",
                    "revert": false,
                    "revertMessage": "",
                    "selector": "",
                    "status": false,
                    "value": ""
                },
                "nodeType": 0
            },
            "0": {
                "invocation": {
                    "address": "0x7a19b5970f9e58d10a6aa31cd86ca1badfd76234",
                    "callData": "0x00000000000000000000000007d160e3c4b8d6bb006ad303b3e1400939e5d5b700000000000000000000000000000000000000000000004552d87d2759a78000",
                    "decodedMethod": {
                        "callParams": [
                            {
                                "name": "recipient",
                                "type": "address",
                                "value": "0x07d160e3c4b8d6bb006ad303b3e1400939e5d5b7"
                            },
                            {
                                "decimalAvailable": true,
                                "name": "amount",
                                "type": "uint256",
                                "value": "1,278,795,000,000,000,000,000"
                            }
                        ],
                        "constructorArguments": "",
                        "name": "transfer",
                        "returnParams": [
                            {
                                "name": "",
                                "type": "bool",
                                "value": true
                            }
                        ],
                        "signature": "transfer(address,uint256)"
                    },
                    "errorInfo": "",
                    "fromAddress": "0x5d9a1269d68ce2a4b06558466f364af60761afe8",
                    "gasUsed": 22028,
                    "id": 0,
                    "methodDecoded": true,
                    "operation": "CALL",
                    "output": "0x0000000000000000000000000000000000000000000000000000000000000001",
                    "revert": false,
                    "revertMessage": "",
                    "selector": "0xa9059cbb",
                    "status": true,
                    "value": "0"
                },
                "nodeType": 0
            },
            "1": {
                "event": {
                    "contract": "0x7a19b5970f9e58d10a6aa31cd86ca1badfd76234",
                    "decodedLog": {
                        "name": "Transfer",
                        "params": [
                            {
                                "name": "from",
                                "type": "address",
                                "value": "0x5d9a1269d68ce2a4b06558466f364af60761afe8"
                            },
                            {
                                "name": "to",
                                "type": "address",
                                "value": "0x07d160e3c4b8d6bb006ad303b3e1400939e5d5b7"
                            },
                            {
                                "decimalAvailable": true,
                                "name": "value",
                                "type": "uint256",
                                "value": "1,278,795,000,000,000,000,000"
                            }
                        ],
                        "signature": "Transfer(address,address,uint256)"
                    },
                    "id": 1,
                    "logData": "0x00000000000000000000000000000000000000000000004552d87d2759a78000",
                    "logDecoded": true,
                    "operation": "EVENT",
                    "revert": false,
                    "status": true,
                    "topics": [
                        "0xddf252ad1be2c89b69c2b068fc378daa952ba7f163c4a11628f55a4df523b3ef",
                        "0x0000000000000000000000005d9a1269d68ce2a4b06558466f364af60761afe8",
                        "0x00000000000000000000000007d160e3c4b8d6bb006ad303b3e1400939e5d5b7"
                    ]
                },
                "nodeType": 1
            }
        },
        "gasFlame": [
            {
                "children": [
                    {
                        "children": [
                            {
                                "children": [],
                                "depth": 0,
                                "name": "Initial Gas",
                                "value": 23256
                            },
                            {
                                "children": [],
                                "depth": 0,
                                "name": "Executed Gas",
                                "value": 13772
                            }
                        ],
                        "depth": -1,
                        "name": "Actual Gas Used",
                        "value": 22028
                    },
                    {
                        "children": [],
                        "depth": -1,
                        "name": "Refunded Gas",
                        "value": 15000
                    }
                ],
                "depth": -2,
                "name": "Total Gas",
                "value": 37028
            }
        ],
        "isConfirmed": true,
        "mainTrace": [
            {
                "children": [
                    {
                        "children": [
                            {
                                "children": [],
                                "depth": 1,
                                "id": 1,
                                "order": 1
                            }
                        ],
                        "depth": 0,
                        "id": 0,
                        "order": 0
                    }
                ],
                "depth": -1,
                "id": -1,
                "order": -1
            }
        ],
        "mainTraceNodeCount": 2,
        "parentIdMap": {
            "0": -1,
            "1": 0
        },
        "tidyTrace": [
            {
                "children": [
                    {
                        "children": [
                            {
                                "children": [],
                                "depth": 1,
                                "id": 1,
                                "order": 1
                            }
                        ],
                        "depth": 0,
                        "id": 0,
                        "order": 0
                    }
                ],
                "depth": -1,
                "id": -1,
                "order": -1
            }
        ],
        "tidyTraceNodeCount": 2
    },
    "state_change": {
        "stateChanges": [
            {
                "address": "0x7a19b5970f9e58d10a6aa31cd86ca1badfd76234",
                "erc": "",
                "slots": [
                    {
                        "current": "0x00000000000000000000000000000000000000000011521274c3c7fedfeac000",
                        "key": "0x79a5862a086ea683d6cce2ac60b79efdaf39e379ef74d51b2aaf7e0ddcb99f2a",
                        "prev": "0x0000000000000000000000000000000000000000001151cd21eb4ad786434000"
                    },
                    {
                        "current": "0x0000000000000000000000000000000000000000000000000000000000000000",
                        "key": "0xf5b44ec744fba0bc5aec7fffce8a2b72e1f8613dc51bf2085d3b9c7c9fdc8b0a",
                        "prev": "0x00000000000000000000000000000000000000000000004552d87d2759a78000"
                    }
                ],
                "storageVariables": []
            }
        ]
    }
}