{
    "balance_change": {
        "balanceChanges": []
    },
    "profile": {
        "basic_info": {
            "baseFee": "",
            "blockNumber": 5353751,
            "callData": "0x582387cb0000000000000000000000001160b8d7a9050a1caf11744f0e3c5dc173e34cce0000000000000000000000000000000000000000000000000000000271d949003078633633353263626235616562663466383362633836363461353061663665",
            "debugEnable": true,
            "errorInfo": "",
            "eventCount": 1,
            "feeRecipient": "0x52bc44d5378309ee2abf1539bf71de1b7d7be3b5",
            "formatValue": "0",
            "gasLimit": 3200000,
            "gasPrice": "2",
            "gasUsed": 34329,
            "intTxnCount": 2,
            "internalRevert": false,
            "internalRevertMessage": "",
            "isContractCreation": false,
            "isFlashloan": false,
            "maxFee": "",
            "nonce": 64,
            "overwritedBlockNumber": -1,
            "priorityFee": "",
            "receiver": "0x49307664272a840d37acd26a2521688a7808a693",
            "revertMessage": "",
            "sender": "0x6fad62d8fc09c89ebe702c38a203a9a1da57bbbe",
            "simulationEnable": true,
            "sourceTxnHash": "0x8400c7bbfb3ba2353125e583f053829b586ba207b4a909399582df36fa1be53d",
            "status": true,
            "timestamp": "2018-03-31T08:11:36Z",
            "transactionFee": "0.000068658",
            "txnHash": "0x8400c7bbfb3ba2353125e583f053829b586ba207b4a909399582df36fa1be53d",
            "txnIndex": 40,
            "type": 0,
            "value": "0"
        },
        "fund_flow": [],
        "token_infos": [
            {
                "address": "0xeeeeeeeeeeeeeeeeeeeeeeeeeeeeeeeeeeeeeeee",
                "decimals": 18
            },
            {
                "address": "0xc02aaa39b223fe8d0a0e5c4f27ead9083c756cc2",
                "decimals": 18
            }
        ]
    },
    "address_label": {
        "labels": [
            {
                "address": "0xeeeeeeeeeeeeeeeeeeeeeeeeeeeeeeeeeeeeeeee",
                "label": "Ether"
            },
            {
                "address": "0x226bb599a12c826476e3a771454697ea52e9e220",
                "label": "Propy Token"
            },
            {
                "address": "0x331d077518216c07c87f4f18ba64cd384c411f84",
                "label": "EToken2"
            },
            {
                "address": "0x0000000000000000000000000000000000000001",
                "label": "Precompiled"
            },
            {
                "address": "0x0000000000000000000000000000000000000002",
                "label": "Precompiled"
            },
            {
                "address": "0x0000000000000000000000000000000000000003",
                "label": "Precompiled"
            },
            {
                "address": "0x0000000000000000000000000000000000000004",
                "label": "Precompiled"
            }
        ]
    },
    "trace": {
        "accountLabels": null,
        "dataMap": {
            "-1": {
                "invocation": {
                    "address": "0x6fad62d8fc09c89ebe702c38a203a9a1da57bbbe",
                    "callData": "",
                    "decodedMethod": null,
                    "errorInfo": "",
                    "fromAddress": "",
                    "gasUsed": 0,
                    "id": -1,
                    "methodDecoded": false,
                    "operation": "",
                    "output": "",
                    "revert": false,
                    "revertMessage": "",
                    "selector": "",
                    "status": false,
                    "value": ""
                },
                "nodeType": 0
            },
            "0": {
                "invocation": {
                    "address": "0x49307664272a840d37acd26a2521688a7808a693",
                    "callData": "0x0000000000000000000000001160b8d7a9050a1caf11744f0e3c5dc173e34cce0000000000000000000000000000000000000000000000000000000271d949003078633633353263626235616562663466383362633836363461353061663665",
                    "decodedMethod": null,
                    "errorInfo": "",
                    "fromAddress": "0x6fad62d8fc09c89ebe702c38a203a9a1da57bbbe",
                    "gasUsed": 34329,
                    "id": 0,
                    "methodDecoded": false,
                    "operation": "CALL",
                    "output": "0x0000000000000000000000000000000000000000000000000000000000000000",
                    "revert": false,
                    "revertMessage": "",
                    "selector": "0x582387cb",
                    "status": true,
                    "value": "0"
                },
                "nodeType": 0
            },
            "1": {
                "invocation": {
                    "address": "0x226bb599a12c826476e3a771454697ea52e9e220",
                    "callData": "0x00000000000000000000000049307664272a840d37acd26a2521688a7808a693",
                    "decodedMethod": {
                        "callParams": [
                            {
                                "name": "_owner",
                                "type": "address",
                                "value": "0x49307664272a840d37acd26a2521688a7808a693"
                            }
                        ],
                        "constructorArguments": "",
                        "name": "balanceOf",
                        "returnParams": [
                            {
                                "decimalAvailable": true,
                                "name": "",
                                "type": "uint256",
                                "value": "0"
                            }
                        ],
                        "signature": "balanceOf(address)"
                    },
                    "errorInfo": "",
                    "fromAddress": "0x49307664272a840d37acd26a2521688a7808a693",
                    "gasUsed": 4588,
                    "id": 1,
                    "methodDecoded": true,
                    "operation": "CALL",
                    "output": "0x0000000000000000000000000000000000000000000000000000000000000000",
                    "revert": false,
                    "revertMessage": "",
                    "selector": "0x70a08231",
                    "status": true,
                    "value": "0"
                },
                "nodeType": 0
            },
            "2": {
                "invocation": {
                    "address": "0x331d077518216c07c87f4f18ba64cd384c411f84",
                    "callData": "0x00000000000000000000000049307664272a840d37acd26a2521688a7808a69350524f5059000000000000000000000000000000000000000000000000000000",
                    "decodedMethod": {
                        "callParams": [
                            {
                                "name": "_holder",
                                "type": "address",
                                "value": "0x49307664272a840d37acd26a2521688a7808a693"
                            },
                            {
                                "name": "_symbol",
                                "type": "bytes32",
                                "value": "0x50524f5059000000000000000000000000000000000000000000000000000000"
                            }
                        ],
                        "constructorArguments": "",
                        "name": "balanceOf",
                        "returnParams": [
                            {
                                "name": "",
                                "type": "uint256",
                                "value": "0"
                            }
                        ],
                        "signature": "balanceOf(address,bytes32)"
                    },
                    "errorInfo": "",
                    "fromAddress": "0x226bb599a12c826476e3a771454697ea52e9e220",
                    "gasUsed": 1798,
                    "id": 2,
                    "methodDecoded": true,
                    "operation": "CALL",
                    "output": "0x0000000000000000000000000000000000000000000000000000000000000000",
                    "revert": false,
                    "revertMessage": "",
                    "selector": "0x4d30b6be",
                    "status": true,
                    "value": "0"
                },
                "nodeType": 0
            },
            "3": {
                "event": {
                    "contract": "0x49307664272a840d37acd26a2521688a7808a693",
                    "decodedLog": {
                        "name": "Error",
                        "params": [
                            {
                                "name": "reason",
                                "type": "string",
                                "value": "Insufficient tokens on the contract account"
                            }
                        ],
                        "signature": "Error(string)"
                    },
                    "id": 3,
                    "logData": "0x0000000000000000000000000000000000000000000000000000000000000020000000000000000000000000000000000000000000000000000000000000002b496e73756666696369656e7420746f6b656e73206f6e2074686520636f6e7472616374206163636f756e74000000000000000000000000000000000000000000",
                    "logDecoded": true,
                    "operation": "EVENT",
                    "revert": false,
                    "status": true,
                    "topics": [
                        "0x08c379a0afcc32b1a39302f7cb8073359698411ab5fd6e3edb2c02c0b5fba8aa"
                    ]
                },
                "nodeType": 1
            }
        },
        "gasFlame": [
            {
                "children": [
                    {
                        "children": [
                            {
                                "children": [],
                                "depth": 0,
                                "name": "Initial Gas",
                                "value": 25240
                            },
                            {
                                "children": [
                                    {
                                        "children": [
                                            {
                                                "children": [],
                                                "depth": 2,
                                                "name": "balanceOf",
                                                "value": 1798
                                            }
                                        ],
                                        "depth": 1,
                                        "name": "balanceOf",
                                        "value": 4588
                                    }
                                ],
                                "depth": 0,
                                "name": "Executed Gas",
                                "value": 9089
                            }
                        ],
                        "depth": -1,
                        "name": "Actual Gas Used",
                        "value": 34329
                    },
                    {
                        "children": [],
                        "depth": -1,
                        "name": "Refunded Gas",
                        "value": 0
                    }
                ],
                "depth": -2,
                "name": "Total Gas",
                "value": 34329
            }
        ],
        "isConfirmed": true,
        "mainTrace": [
            {
                "children": [
                    {
                        "children": [
                            {
                                "children": [
                                    {
                                        "children": [],
                                        "depth": 2,
                                        "id": 2,
                                        "order": 2
                                    }
                                ],
                                "depth": 1,
                                "id": 1,
                                "order": 1
                            },
                            {
                                "children": [],
                                "depth": 1,
                                "id": 3,
                                "order": 3
                            }
                        ],
                        "depth": 0,
                        "id": 0,
                        "order": 0
                    }
                ],
                "depth": -1,
                "id": -1,
                "order": -1
            }
        ],
        "mainTraceNodeCount": 4,
        "parentIdMap": {
            "0": -1,
            "1": 0,
            "2": 1,
            "3": 0
        },
        "tidyTrace": [
            {
                "children": [
                    {
                        "children": [
                            {
                                "children": [
                                    {
                                        "children": [],
                                        "depth": 2,
                                        "id": 2,
                                        "order": 2
                                    }
                                ],
                                "depth": 1,
                                "id": 1,
                                "order": 1
                            },
                            {
                                "children": [],
                                "depth": 1,
                                "id": 3,
                                "order": 3
                            }
                        ],
                        "depth": 0,
                        "id": 0,
                        "order": 0
                    }
                ],
                "depth": -1,
                "id": -1,
                "order": -1
            }
        ],
        "tidyTraceNodeCount": 4
    },
    "state_change": {
        "stateChanges": []
    }
}