{
    "balance_change": {
        "balanceChanges": []
    },
    "profile": {
        "basic_info": {
            "baseFee": "",
            "blockNumber": 9417677,
            "callData": "0x1cff79cd000000000000000000000000ff57ac1c537eb19e7adcf5dc4c80f137abe0f1fd00000000000000000000000000000000000000000000000000000000000000400000000000000000000000000000000000000000000000000000000000000124c7577ae400000000000000000000000009cabec1ead1c0ba254b09efb3ee13841712be1400000000000000000000000089d24a6b4ccb1b6faa2625fe562bdd9a2326035900000000000000000000000000000000000000000000000000000000000000000000000000000000000000000000000000000000000003fcb8dddbaeb614000000000000000000000000000000000000000000000000b53fa3bed03b19f763000000000000000000000000000000000000000000000000000012de496bcb73be000000000000000000000000000000000000000000000000000000005e39b4400000000000000000000000000000000000000000000000000000000000000000000000000000000000000000000000a7e8f808b9d25895a21acdaee62637800000000000000000000000000000000000000000000000000000000000",
            "debugEnable": true,
            "errorInfo": "",
            "eventCount": 0,
            "feeRecipient": "0x04668ec2f57cc15c381b461b9fedab5d451c8f7f",
            "formatValue": "0",
            "gasLimit": 100000,
            "gasPrice": "3",
            "gasUsed": 30705,
            "intTxnCount": 2,
            "internalRevert": false,
            "internalRevertMessage": "",
            "isContractCreation": false,
            "isFlashloan": false,
            "maxFee": "",
            "nonce": 104,
            "overwritedBlockNumber": -1,
            "priorityFee": "",
            "receiver": "0x9799b475dec92bd99bbdd943013325c36157f383",
            "revertMessage": "",
            "sender": "0x6bb33ed7c0c295586fc849d579bbb093e2307cc7",
            "simulationEnable": true,
            "sourceTxnHash": "0x84c81925f7174f1bb65221a14670afc8ecc2a3b569db73ddeaf093f1adb0c3db",
            "status": true,
            "timestamp": "2020-02-04T18:11:45Z",
            "transactionFee": "0.000092115",
            "txnHash": "0x84c81925f7174f1bb65221a14670afc8ecc2a3b569db73ddeaf093f1adb0c3db",
            "txnIndex": 53,
            "type": 0,
            "value": "0"
        },
        "fund_flow": [],
        "token_infos": [
            {
                "address": "0xc02aaa39b223fe8d0a0e5c4f27ead9083c756cc2",
                "decimals": 18
            },
            {
                "address": "0xeeeeeeeeeeeeeeeeeeeeeeeeeeeeeeeeeeeeeeee",
                "decimals": 18
            }
        ]
    },
    "address_label": {
        "labels": [
            {
                "address": "0x0000000000000000000000000000000000000004",
                "label": "Precompiled"
            },
            {
                "address": "0xeeeeeeeeeeeeeeeeeeeeeeeeeeeeeeeeeeeeeeee",
                "label": "Ether"
            },
            {
                "address": "0x09cabec1ead1c0ba254b09efb3ee13841712be14",
                "label": "Uniswap: SAI"
            },
            {
                "address": "0x89d24a6b4ccb1b6faa2625fe562bdd9a23260359",
                "label": "Sai Stablecoin"
            },
            {
                "address": "0x9799b475dec92bd99bbdd943013325c36157f383",
                "label": "Fund: 0x979...383"
            },
            {
                "address": "0x0000000000000000000000000000000000000001",
                "label": "Precompiled"
            },
            {
                "address": "0x0000000000000000000000000000000000000002",
                "label": "Precompiled"
            },
            {
                "address": "0x0000000000000000000000000000000000000003",
                "label": "Precompiled"
            }
        ]
    },
    "trace": {
        "accountLabels": null,
        "dataMap": {
            "-1": {
                "invocation": {
                    "address": "0x6bb33ed7c0c295586fc849d579bbb093e2307cc7",
                    "callData": "",
                    "decodedMethod": null,
                    "errorInfo": "",
                    "fromAddress": "",
                    "gasUsed": 0,
                    "id": -1,
                    "methodDecoded": false,
                    "operation": "",
                    "output": "",
                    "revert": false,
                    "revertMessage": "",
                    "selector": "",
                    "status": false,
                    "value": ""
                },
                "nodeType": 0
            },
            "0": {
                "invocation": {
                    "address": "0x9799b475dec92bd99bbdd943013325c36157f383",
                    "callData": "0x000000000000000000000000ff57ac1c537eb19e7adcf5dc4c80f137abe0f1fd00000000000000000000000000000000000000000000000000000000000000400000000000000000000000000000000000000000000000000000000000000124c7577ae400000000000000000000000009cabec1ead1c0ba254b09efb3ee13841712be1400000000000000000000000089d24a6b4ccb1b6faa2625fe562bdd9a2326035900000000000000000000000000000000000000000000000000000000000000000000000000000000000000000000000000000000000003fcb8dddbaeb614000000000000000000000000000000000000000000000000b53fa3bed03b19f763000000000000000000000000000000000000000000000000000012de496bcb73be000000000000000000000000000000000000000000000000000000005e39b4400000000000000000000000000000000000000000000000000000000000000000000000000000000000000000000000a7e8f808b9d25895a21acdaee62637800000000000000000000000000000000000000000000000000000000000",
                    "decodedMethod": {
                        "callParams": [
                            {
                                "name": "_target",
                                "type": "address",
                                "value": "0xff57ac1c537eb19e7adcf5dc4c80f137abe0f1fd"
                            },
                            {
                                "name": "_data",
                                "type": "bytes",
                                "value": "0xc7577ae400000000000000000000000009cabec1ead1c0ba254b09efb3ee13841712be1400000000000000000000000089d24a6b4ccb1b6faa2625fe562bdd9a2326035900000000000000000000000000000000000000000000000000000000000000000000000000000000000000000000000000000000000003fcb8dddbaeb614000000000000000000000000000000000000000000000000b53fa3bed03b19f763000000000000000000000000000000000000000000000000000012de496bcb73be000000000000000000000000000000000000000000000000000000005e39b4400000000000000000000000000000000000000000000000000000000000000000000000000000000000000000000000a7e8f808b9d25895a21acdaee626378000"
                            }
                        ],
                        "constructorArguments": "",
                        "name": "execute",
                        "returnParams": [],
                        "signature": "execute(address,bytes)"
                    },
                    "errorInfo": "",
                    "fromAddress": "0x6bb33ed7c0c295586fc849d579bbb093e2307cc7",
                    "gasUsed": 30705,
                    "id": 0,
                    "methodDecoded": true,
                    "operation": "CALL",
                    "output": "",
                    "revert": false,
                    "revertMessage": "",
                    "selector": "0x1cff79cd",
                    "status": true,
                    "value": "0"
                },
                "nodeType": 0
            },
            "1": {
                "invocation": {
                    "address": "0xff57ac1c537eb19e7adcf5dc4c80f137abe0f1fd",
                    "callData": "0x00000000000000000000000009cabec1ead1c0ba254b09efb3ee13841712be1400000000000000000000000089d24a6b4ccb1b6faa2625fe562bdd9a2326035900000000000000000000000000000000000000000000000000000000000000000000000000000000000000000000000000000000000003fcb8dddbaeb614000000000000000000000000000000000000000000000000b53fa3bed03b19f763000000000000000000000000000000000000000000000000000012de496bcb73be000000000000000000000000000000000000000000000000000000005e39b4400000000000000000000000000000000000000000000000000000000000000000000000000000000000000000000000a7e8f808b9d25895a21acdaee626378000",
                    "decodedMethod": null,
                    "errorInfo": "",
                    "fromAddress": "0x9799b475dec92bd99bbdd943013325c36157f383",
                    "gasUsed": 4338,
                    "id": 1,
                    "methodDecoded": false,
                    "operation": "DELEGATECALL",
                    "output": "0x00000000000000000000000000000000000000000000000000000000000000000000000000000000000000000000000000000000000000000000000000000000",
                    "revert": false,
                    "revertMessage": "",
                    "selector": "0xc7577ae4",
                    "status": true,
                    "value": "0"
                },
                "nodeType": 0
            },
            "2": {
                "invocation": {
                    "address": "0x89d24a6b4ccb1b6faa2625fe562bdd9a23260359",
                    "callData": "0x00000000000000000000000009cabec1ead1c0ba254b09efb3ee13841712be14",
                    "decodedMethod": {
                        "callParams": [
                            {
                                "name": "src",
                                "type": "address",
                                "value": "0x09cabec1ead1c0ba254b09efb3ee13841712be14"
                            }
                        ],
                        "constructorArguments": "",
                        "name": "balanceOf",
                        "returnParams": [
                            {
                                "decimalAvailable": true,
                                "name": "",
                                "type": "uint256",
                                "value": "591,223,515,552,823,198,832,313"
                            }
                        ],
                        "signature": "balanceOf(address)"
                    },
                    "errorInfo": "",
                    "fromAddress": "0x9799b475dec92bd99bbdd943013325c36157f383",
                    "gasUsed": 1415,
                    "id": 2,
                    "methodDecoded": true,
                    "operation": "CALL",
                    "output": "0x000000000000000000000000000000000000000000007d324a7eeedb6d3356b9",
                    "revert": false,
                    "revertMessage": "",
                    "selector": "0x70a08231",
                    "status": true,
                    "value": "0"
                },
                "nodeType": 0
            }
        },
        "gasFlame": [
            {
                "children": [
                    {
                        "children": [
                            {
                                "children": [],
                                "depth": 0,
                                "name": "Initial Gas",
                                "value": 24060
                            },
                            {
                                "children": [
                                    {
                                        "children": [
                                            {
                                                "children": [],
                                                "depth": 2,
                                                "name": "balanceOf",
                                                "value": 1415
                                            }
                                        ],
                                        "depth": 1,
                                        "name": "0xc7577ae4",
                                        "value": 4338
                                    }
                                ],
                                "depth": 0,
                                "name": "Executed Gas",
                                "value": 6645
                            }
                        ],
                        "depth": -1,
                        "name": "Actual Gas Used",
                        "value": 30705
                    },
                    {
                        "children": [],
                        "depth": -1,
                        "name": "Refunded Gas",
                        "value": 0
                    }
                ],
                "depth": -2,
                "name": "Total Gas",
                "value": 30705
            }
        ],
        "isConfirmed": true,
        "mainTrace": [
            {
                "children": [
                    {
                        "children": [
                            {
                                "children": [
                                    {
                                        "children": [],
                                        "depth": 2,
                                        "id": 2,
                                        "order": 2
                                    }
                                ],
                                "depth": 1,
                                "id": 1,
                                "order": 1
                            }
                        ],
                        "depth": 0,
                        "id": 0,
                        "order": 0
                    }
                ],
                "depth": -1,
                "id": -1,
                "order": -1
            }
        ],
        "mainTraceNodeCount": 3,
        "parentIdMap": {
            "0": -1,
            "1": 0,
            "2": 1
        },
        "tidyTrace": [
            {
                "children": [
                    {
                        "children": [
                            {
                                "children": [
                                    {
                                        "children": [],
                                        "depth": 2,
                                        "id": 2,
                                        "order": 2
                                    }
                                ],
                                "depth": 1,
                                "id": 1,
                                "order": 1
                            }
                        ],
                        "depth": 0,
                        "id": 0,
                        "order": 0
                    }
                ],
                "depth": -1,
                "id": -1,
                "order": -1
            }
        ],
        "tidyTraceNodeCount": 3
    },
    "state_change": {
        "stateChanges": []
    }
}