{
    "balance_change": {
        "balanceChanges": [
            {
                "account": "0x02525c8a9e340d6e8c936dac83bb69cdacfe87a1",
                "assets": [
                    {
                        "address": "0xcf0c122c6b73ff809c693db761e7baebe62b6a2e",
                        "amount": "556,318,211.24728",
                        "iconUrl": "https://assets.blocksec.com/icon/3048d7326b903e9abdbcc43faca911b55eb8d821fe6e9fd7095b740c4831cb7f.png",
                        "isERC1155": false,
                        "isERC721": false,
                        "sign": false,
                        "value": "166895.46335999998539"
                    }
                ]
            },
            {
                "account": "0xf89d7b9c864f589bbf53a82105107622b35eaa40",
                "assets": [
                    {
                        "address": "0xcf0c122c6b73ff809c693db761e7baebe62b6a2e",
                        "amount": "556,318,211.24728",
                        "iconUrl": "https://assets.blocksec.com/icon/3048d7326b903e9abdbcc43faca911b55eb8d821fe6e9fd7095b740c4831cb7f.png",
                        "isERC1155": false,
                        "isERC721": false,
                        "sign": true,
                        "value": "166895.46335999998539"
                    }
                ]
            }
        ]
    },
    "profile": {
        "basic_info": {
            "baseFee": "41.94877487",
            "blockNumber": 19396707,
            "callData": "0xa9059cbb000000000000000000000000f89d7b9c864f589bbf53a82105107622b35eaa4000000000000000000000000000000000000000000000000007b8707733798f80",
            "debugEnable": true,
            "errorInfo": "",
            "eventCount": 1,
            "feeRecipient": "0x95222290dd7278aa3ddd389cc1e1d165cc4bafe5",
            "formatValue": "0",
            "gasLimit": 240000,
            "gasPrice": "43.94877487",
            "gasUsed": 67503,
            "intTxnCount": 3,
            "internalRevert": false,
            "internalRevertMessage": "",
            "isContractCreation": false,
            "isFlashloan": false,
            "maxFee": "250",
            "nonce": 97,
            "overwritedBlockNumber": -1,
            "priorityFee": "2",
            "receiver": "0xcf0c122c6b73ff809c693db761e7baebe62b6a2e",
            "revertMessage": "",
            "sender": "0x02525c8a9e340d6e8c936dac83bb69cdacfe87a1",
            "simulationEnable": true,
            "sourceTxnHash": "0x84c95c8b53e43d3287dc8fa352091de7ff26e620c63038335ba9fa960da2b725",
            "status": true,
            "timestamp": "2024-03-09T09:40:59Z",
            "transactionFee": "0.00296667415004961",
            "txnHash": "0x84c95c8b53e43d3287dc8fa352091de7ff26e620c63038335ba9fa960da2b725",
            "txnIndex": 57,
            "type": 2,
            "value": "0"
        },
        "fund_flow": [
            {
                "amount": "556,318,211.24728",
                "from": "0x02525c8a9e340d6e8c936dac83bb69cdacfe87a1",
                "id": 1,
                "isERC1155": false,
                "isERC721": false,
                "isReverted": false,
                "order": 1,
                "to": "0xf89d7b9c864f589bbf53a82105107622b35eaa40",
                "token": "0xcf0c122c6b73ff809c693db761e7baebe62b6a2e"
            }
        ],
        "token_infos": [
            {
                "address": "0xeeeeeeeeeeeeeeeeeeeeeeeeeeeeeeeeeeeeeeee",
                "decimals": 18
            },
            {
                "address": "0xc02aaa39b223fe8d0a0e5c4f27ead9083c756cc2",
                "decimals": 18
            },
            {
                "address": "0xcf0c122c6b73ff809c693db761e7baebe62b6a2e",
                "decimals": 9
            }
        ]
    },
    "address_label": {
        "labels": [
            {
                "address": "0xcf0c122c6b73ff809c693db761e7baebe62b6a2e",
                "label": "Floki: FLOKI Token"
            },
            {
                "address": "0x0000000000000000000000000000000000000001",
                "label": "Precompiled"
            },
            {
                "address": "0x0000000000000000000000000000000000000003",
                "label": "Precompiled"
            },
            {
                "address": "0xeeeeeeeeeeeeeeeeeeeeeeeeeeeeeeeeeeeeeeee",
                "label": "Ether"
            },
            {
                "address": "0xbc530bfa3fca1a731149248afc7f750c18360de1",
                "label": "TreasuryHandlerAlpha"
            },
            {
                "address": "0x834f96fd4fe9147a2a647d957fbbe67fec62b67b",
                "label": "DynamicTaxHandler"
            },
            {
                "address": "0xf89d7b9c864f589bbf53a82105107622b35eaa40",
                "label": "Bybit: Hot Wallet"
            },
            {
                "address": "0x0000000000000000000000000000000000000002",
                "label": "Precompiled"
            },
            {
                "address": "0x0000000000000000000000000000000000000004",
                "label": "Precompiled"
            },
            {
                "address": "0x02525c8a9e340d6e8c936dac83bb69cdacfe87a1",
                "label": "BYBIT"
            }
        ]
    },
    "trace": {
        "accountLabels": null,
        "dataMap": {
            "-1": {
                "invocation": {
                    "address": "0x02525c8a9e340d6e8c936dac83bb69cdacfe87a1",
                    "callData": "",
                    "decodedMethod": null,
                    "errorInfo": "",
                    "fromAddress": "",
                    "gasUsed": 0,
                    "id": -1,
                    "methodDecoded": false,
                    "operation": "",
                    "output": "",
                    "revert": false,
                    "revertMessage": "",
                    "selector": "",
                    "status": false,
                    "value": ""
                },
                "nodeType": 0
            },
            "0": {
                "invocation": {
                    "address": "0xcf0c122c6b73ff809c693db761e7baebe62b6a2e",
                    "callData": "0x000000000000000000000000f89d7b9c864f589bbf53a82105107622b35eaa4000000000000000000000000000000000000000000000000007b8707733798f80",
                    "decodedMethod": {
                        "callParams": [
                            {
                                "name": "recipient",
                                "type": "address",
                                "value": "0xf89d7b9c864f589bbf53a82105107622b35eaa40"
                            },
                            {
                                "decimalAvailable": true,
                                "name": "amount",
                                "type": "uint256",
                                "value": "556,318,211,247,280,000"
                            }
                        ],
                        "constructorArguments": "",
                        "name": "transfer",
                        "returnParams": [
                            {
                                "name": "",
                                "type": "bool",
                                "value": true
                            }
                        ],
                        "signature": "transfer(address,uint256)"
                    },
                    "errorInfo": "",
                    "fromAddress": "0x02525c8a9e340d6e8c936dac83bb69cdacfe87a1",
                    "gasUsed": 67503,
                    "id": 0,
                    "methodDecoded": true,
                    "operation": "CALL",
                    "output": "0x0000000000000000000000000000000000000000000000000000000000000001",
                    "revert": false,
                    "revertMessage": "",
                    "selector": "0xa9059cbb",
                    "status": true,
                    "value": "0"
                },
                "nodeType": 0
            },
            "1": {
                "invocation": {
                    "address": "0xbc530bfa3fca1a731149248afc7f750c18360de1",
                    "callData": "0x00000000000000000000000002525c8a9e340d6e8c936dac83bb69cdacfe87a1000000000000000000000000f89d7b9c864f589bbf53a82105107622b35eaa4000000000000000000000000000000000000000000000000007b8707733798f80",
                    "decodedMethod": {
                        "callParams": [
                            {
                                "name": "benefactor",
                                "type": "address",
                                "value": "0x02525c8a9e340d6e8c936dac83bb69cdacfe87a1"
                            },
                            {
                                "name": "beneficiary",
                                "type": "address",
                                "value": "0xf89d7b9c864f589bbf53a82105107622b35eaa40"
                            },
                            {
                                "name": "amount",
                                "type": "uint256",
                                "value": "556,318,211,247,280,000"
                            }
                        ],
                        "constructorArguments": "",
                        "name": "beforeTransferHandler",
                        "returnParams": [],
                        "signature": "beforeTransferHandler(address,address,uint256)"
                    },
                    "errorInfo": "",
                    "fromAddress": "0xcf0c122c6b73ff809c693db761e7baebe62b6a2e",
                    "gasUsed": 7885,
                    "id": 1,
                    "methodDecoded": true,
                    "operation": "CALL",
                    "output": "",
                    "revert": false,
                    "revertMessage": "",
                    "selector": "0xc6512cc1",
                    "status": true,
                    "value": "0"
                },
                "nodeType": 0
            },
            "2": {
                "invocation": {
                    "address": "0x834f96fd4fe9147a2a647d957fbbe67fec62b67b",
                    "callData": "0x00000000000000000000000002525c8a9e340d6e8c936dac83bb69cdacfe87a1000000000000000000000000f89d7b9c864f589bbf53a82105107622b35eaa4000000000000000000000000000000000000000000000000007b8707733798f80",
                    "decodedMethod": {
                        "callParams": [
                            {
                                "name": "benefactor",
                                "type": "address",
                                "value": "0x02525c8a9e340d6e8c936dac83bb69cdacfe87a1"
                            },
                            {
                                "name": "beneficiary",
                                "type": "address",
                                "value": "0xf89d7b9c864f589bbf53a82105107622b35eaa40"
                            },
                            {
                                "name": "amount",
                                "type": "uint256",
                                "value": "556,318,211,247,280,000"
                            }
                        ],
                        "constructorArguments": "",
                        "name": "getTax",
                        "returnParams": [
                            {
                                "name": "",
                                "type": "uint256",
                                "value": "0"
                            }
                        ],
                        "signature": "getTax(address,address,uint256)"
                    },
                    "errorInfo": "",
                    "fromAddress": "0xcf0c122c6b73ff809c693db761e7baebe62b6a2e",
                    "gasUsed": 11887,
                    "id": 2,
                    "methodDecoded": true,
                    "operation": "STATICCALL",
                    "output": "0x0000000000000000000000000000000000000000000000000000000000000000",
                    "revert": false,
                    "revertMessage": "",
                    "selector": "0xd7ad21ac",
                    "status": true,
                    "value": "0"
                },
                "nodeType": 0
            },
            "3": {
                "invocation": {
                    "address": "0xbc530bfa3fca1a731149248afc7f750c18360de1",
                    "callData": "0x00000000000000000000000002525c8a9e340d6e8c936dac83bb69cdacfe87a1000000000000000000000000f89d7b9c864f589bbf53a82105107622b35eaa4000000000000000000000000000000000000000000000000007b8707733798f80",
                    "decodedMethod": {
                        "callParams": [
                            {
                                "name": "benefactor",
                                "type": "address",
                                "value": "0x02525c8a9e340d6e8c936dac83bb69cdacfe87a1"
                            },
                            {
                                "name": "beneficiary",
                                "type": "address",
                                "value": "0xf89d7b9c864f589bbf53a82105107622b35eaa40"
                            },
                            {
                                "name": "amount",
                                "type": "uint256",
                                "value": "556,318,211,247,280,000"
                            }
                        ],
                        "constructorArguments": "",
                        "name": "afterTransferHandler",
                        "returnParams": [],
                        "signature": "afterTransferHandler(address,address,uint256)"
                    },
                    "errorInfo": "",
                    "fromAddress": "0xcf0c122c6b73ff809c693db761e7baebe62b6a2e",
                    "gasUsed": 743,
                    "id": 3,
                    "methodDecoded": true,
                    "operation": "CALL",
                    "output": "",
                    "revert": false,
                    "revertMessage": "",
                    "selector": "0xe613b1cd",
                    "status": true,
                    "value": "0"
                },
                "nodeType": 0
            },
            "4": {
                "event": {
                    "contract": "0xcf0c122c6b73ff809c693db761e7baebe62b6a2e",
                    "decodedLog": {
                        "name": "Transfer",
                        "params": [
                            {
                                "name": "from",
                                "type": "address",
                                "value": "0x02525c8a9e340d6e8c936dac83bb69cdacfe87a1"
                            },
                            {
                                "name": "to",
                                "type": "address",
                                "value": "0xf89d7b9c864f589bbf53a82105107622b35eaa40"
                            },
                            {
                                "decimalAvailable": true,
                                "name": "value",
                                "type": "uint256",
                                "value": "556,318,211,247,280,000"
                            }
                        ],
                        "signature": "Transfer(address,address,uint256)"
                    },
                    "id": 4,
                    "logData": "0x00000000000000000000000000000000000000000000000007b8707733798f80",
                    "logDecoded": true,
                    "operation": "EVENT",
                    "revert": false,
                    "status": true,
                    "topics": [
                        "0xddf252ad1be2c89b69c2b068fc378daa952ba7f163c4a11628f55a4df523b3ef",
                        "0x00000000000000000000000002525c8a9e340d6e8c936dac83bb69cdacfe87a1",
                        "0x000000000000000000000000f89d7b9c864f589bbf53a82105107622b35eaa40"
                    ]
                },
                "nodeType": 1
            }
        },
        "gasFlame": [
            {
                "children": [
                    {
                        "children": [
                            {
                                "children": [],
                                "depth": 0,
                                "name": "Initial Gas",
                                "value": 21656
                            },
                            {
                                "children": [
                                    {
                                        "children": [],
                                        "depth": 1,
                                        "name": "beforeTransferHandler",
                                        "value": 7885
                                    },
                                    {
                                        "children": [],
                                        "depth": 1,
                                        "name": "getTax",
                                        "value": 11887
                                    },
                                    {
                                        "children": [],
                                        "depth": 1,
                                        "name": "afterTransferHandler",
                                        "value": 743
                                    }
                                ],
                                "depth": 0,
                                "name": "Executed Gas",
                                "value": 48647
                            }
                        ],
                        "depth": -1,
                        "name": "Actual Gas Used",
                        "value": 67503
                    },
                    {
                        "children": [],
                        "depth": -1,
                        "name": "Refunded Gas",
                        "value": 2800
                    }
                ],
                "depth": -2,
                "name": "Total Gas",
                "value": 70303
            }
        ],
        "isConfirmed": true,
        "mainTrace": [
            {
                "children": [
                    {
                        "children": [
                            {
                                "children": [],
                                "depth": 1,
                                "id": 1,
                                "order": 1
                            },
                            {
                                "children": [],
                                "depth": 1,
                                "id": 2,
                                "order": 2
                            },
                            {
                                "children": [],
                                "depth": 1,
                                "id": 3,
                                "order": 3
                            },
                            {
                                "children": [],
                                "depth": 1,
                                "id": 4,
                                "order": 4
                            }
                        ],
                        "depth": 0,
                        "id": 0,
                        "order": 0
                    }
                ],
                "depth": -1,
                "id": -1,
                "order": -1
            }
        ],
        "mainTraceNodeCount": 5,
        "parentIdMap": {
            "0": -1,
            "1": 0,
            "2": 0,
            "3": 0,
            "4": 0
        },
        "tidyTrace": [
            {
                "children": [
                    {
                        "children": [
                            {
                                "children": [],
                                "depth": 1,
                                "id": 1,
                                "order": 1
                            },
                            {
                                "children": [],
                                "depth": 1,
                                "id": 3,
                                "order": 3
                            },
                            {
                                "children": [],
                                "depth": 1,
                                "id": 4,
                                "order": 4
                            }
                        ],
                        "depth": 0,
                        "id": 0,
                        "order": 0
                    }
                ],
                "depth": -1,
                "id": -1,
                "order": -1
            }
        ],
        "tidyTraceNodeCount": 4
    },
    "state_change": {
        "stateChanges": [
            {
                "address": "0xcf0c122c6b73ff809c693db761e7baebe62b6a2e",
                "erc": "ERC-20",
                "slots": [
                    {
                        "current": "0x00000000000000000000000000000000000000000000000006a14841b6580880",
                        "key": "0x5536952fb630a7473728a2f6f719fa4f669603bf40413352c733ba2cf57d09a8",
                        "prev": "0x0000000000000000000000000000000000000000000000000e59b8b8e9d19800"
                    },
                    {
                        "current": "0x000000000000000000000000000000000000000000000004560be05bf0aa1384",
                        "key": "0x399c89bd9e90b83b1616ce64935ab91d879e2e1fdbeb025f0931095fc89ec2d3",
                        "prev": "0x0000000000000000000000000000000000000000000000044e536fe4bd308404"
                    }
                ],
                "storageVariables": [
                    {
                        "name": "_balances",
                        "type": "mapping(address => uint256)",
                        "value": {
                            "pairs": [
                                {
                                    "key": "0x02525c8a9e340d6e8c936dac83bb69cdacfe87a1",
                                    "value": {
                                        "current": "477742482547280000",
                                        "prev": "1034060693794560000",
                                        "typeTag": 1
                                    }
                                },
                                {
                                    "key": "0xf89d7b9c864f589bbf53a82105107622b35eaa40",
                                    "value": {
                                        "current": "79987272292328149892",
                                        "prev": "79430954081080869892",
                                        "typeTag": 1
                                    }
                                }
                            ],
                            "typeTag": 4
                        }
                    }
                ]
            }
        ]
    }
}