{
    "balance_change": {
        "balanceChanges": [
            {
                "account": "0x502a76d02dfaeb9a7907a4e4b28fb66519ba7d60",
                "assets": [
                    {
                        "address": "0xfbc6336ea5319daba3a1d6fa3028fc54a9022f9a",
                        "amount": "1,824.715627193079955456",
                        "iconUrl": "",
                        "isERC1155": false,
                        "isERC721": false,
                        "sign": false,
                        "value": ""
                    }
                ]
            },
            {
                "account": "0xe6d724a806a7655c0b28883c6bbf736f217671b6",
                "assets": [
                    {
                        "address": "0xfbc6336ea5319daba3a1d6fa3028fc54a9022f9a",
                        "amount": "1,824.715627193079955456",
                        "iconUrl": "",
                        "isERC1155": false,
                        "isERC721": false,
                        "sign": true,
                        "value": ""
                    }
                ]
            }
        ]
    },
    "profile": {
        "basic_info": {
            "baseFee": "",
            "blockNumber": 6807540,
            "callData": "0xa9059cbb000000000000000000000000e6d724a806a7655c0b28883c6bbf736f217671b6000000000000000000000000000000000000000000000062eb042b2ca3a40000",
            "debugEnable": true,
            "errorInfo": "",
            "eventCount": 1,
            "feeRecipient": "0x829bd824b016326a401d083b33d092293333a830",
            "formatValue": "0",
            "gasLimit": 55000,
            "gasPrice": "10",
            "gasUsed": 51554,
            "intTxnCount": 0,
            "internalRevert": false,
            "internalRevertMessage": "",
            "isContractCreation": false,
            "isFlashloan": false,
            "maxFee": "",
            "nonce": 10707,
            "overwritedBlockNumber": -1,
            "priorityFee": "",
            "receiver": "0xfbc6336ea5319daba3a1d6fa3028fc54a9022f9a",
            "revertMessage": "",
            "sender": "0x502a76d02dfaeb9a7907a4e4b28fb66519ba7d60",
            "simulationEnable": true,
            "sourceTxnHash": "0x846fecb468b9ddb5a2d4f649a19ba6a82808a0d38e2978f26101a77958e8b5b4",
            "status": true,
            "timestamp": "2018-12-01T17:02:11Z",
            "transactionFee": "0.00051554",
            "txnHash": "0x846fecb468b9ddb5a2d4f649a19ba6a82808a0d38e2978f26101a77958e8b5b4",
            "txnIndex": 60,
            "type": 0,
            "value": "0"
        },
        "fund_flow": [
            {
                "amount": "1,824.715627193079955456",
                "from": "0x502a76d02dfaeb9a7907a4e4b28fb66519ba7d60",
                "id": 1,
                "isERC1155": false,
                "isERC721": false,
                "isReverted": false,
                "order": 1,
                "to": "0xe6d724a806a7655c0b28883c6bbf736f217671b6",
                "token": "0xfbc6336ea5319daba3a1d6fa3028fc54a9022f9a"
            }
        ],
        "token_infos": [
            {
                "address": "0xc02aaa39b223fe8d0a0e5c4f27ead9083c756cc2",
                "decimals": 18
            },
            {
                "address": "0xfbc6336ea5319daba3a1d6fa3028fc54a9022f9a",
                "decimals": 18
            },
            {
                "address": "0xeeeeeeeeeeeeeeeeeeeeeeeeeeeeeeeeeeeeeeee",
                "decimals": 18
            }
        ]
    },
    "address_label": {
        "labels": [
            {
                "address": "0xeeeeeeeeeeeeeeeeeeeeeeeeeeeeeeeeeeeeeeee",
                "label": "Ether"
            },
            {
                "address": "0xfbc6336ea5319daba3a1d6fa3028fc54a9022f9a",
                "label": "BHTD"
            },
            {
                "address": "0x0000000000000000000000000000000000000001",
                "label": "Precompiled"
            },
            {
                "address": "0x0000000000000000000000000000000000000002",
                "label": "Precompiled"
            },
            {
                "address": "0x0000000000000000000000000000000000000003",
                "label": "Precompiled"
            },
            {
                "address": "0x0000000000000000000000000000000000000004",
                "label": "Precompiled"
            }
        ]
    },
    "trace": {
        "accountLabels": null,
        "dataMap": {
            "-1": {
                "invocation": {
                    "address": "0x502a76d02dfaeb9a7907a4e4b28fb66519ba7d60",
                    "callData": "",
                    "decodedMethod": null,
                    "errorInfo": "",
                    "fromAddress": "",
                    "gasUsed": 0,
                    "id": -1,
                    "methodDecoded": false,
                    "operation": "",
                    "output": "",
                    "revert": false,
                    "revertMessage": "",
                    "selector": "",
                    "status": false,
                    "value": ""
                },
                "nodeType": 0
            },
            "0": {
                "invocation": {
                    "address": "0xfbc6336ea5319daba3a1d6fa3028fc54a9022f9a",
                    "callData": "0x000000000000000000000000e6d724a806a7655c0b28883c6bbf736f217671b6000000000000000000000000000000000000000000000062eb042b2ca3a40000",
                    "decodedMethod": {
                        "callParams": [
                            {
                                "name": "_to",
                                "type": "address",
                                "value": "0xe6d724a806a7655c0b28883c6bbf736f217671b6"
                            },
                            {
                                "decimalAvailable": true,
                                "name": "_value",
                                "type": "uint256",
                                "value": "1,824,715,627,193,079,955,456"
                            }
                        ],
                        "constructorArguments": "",
                        "name": "transfer",
                        "returnParams": [
                            {
                                "name": "success",
                                "type": "bool",
                                "value": true
                            }
                        ],
                        "signature": "transfer(address,uint256)"
                    },
                    "errorInfo": "",
                    "fromAddress": "0x502a76d02dfaeb9a7907a4e4b28fb66519ba7d60",
                    "gasUsed": 51554,
                    "id": 0,
                    "methodDecoded": true,
                    "operation": "CALL",
                    "output": "0x0000000000000000000000000000000000000000000000000000000000000001",
                    "revert": false,
                    "revertMessage": "",
                    "selector": "0xa9059cbb",
                    "status": true,
                    "value": "0"
                },
                "nodeType": 0
            },
            "1": {
                "event": {
                    "contract": "0xfbc6336ea5319daba3a1d6fa3028fc54a9022f9a",
                    "decodedLog": {
                        "name": "Transfer",
                        "params": [
                            {
                                "name": "from",
                                "type": "address",
                                "value": "0x502a76d02dfaeb9a7907a4e4b28fb66519ba7d60"
                            },
                            {
                                "name": "to",
                                "type": "address",
                                "value": "0xe6d724a806a7655c0b28883c6bbf736f217671b6"
                            },
                            {
                                "decimalAvailable": true,
                                "name": "value",
                                "type": "uint256",
                                "value": "1,824,715,627,193,079,955,456"
                            }
                        ],
                        "signature": "Transfer(address,address,uint256)"
                    },
                    "id": 1,
                    "logData": "0x000000000000000000000000000000000000000000000062eb042b2ca3a40000",
                    "logDecoded": true,
                    "operation": "EVENT",
                    "revert": false,
                    "status": true,
                    "topics": [
                        "0xddf252ad1be2c89b69c2b068fc378daa952ba7f163c4a11628f55a4df523b3ef",
                        "0x000000000000000000000000502a76d02dfaeb9a7907a4e4b28fb66519ba7d60",
                        "0x000000000000000000000000e6d724a806a7655c0b28883c6bbf736f217671b6"
                    ]
                },
                "nodeType": 1
            }
        },
        "gasFlame": [
            {
                "children": [
                    {
                        "children": [
                            {
                                "children": [],
                                "depth": 0,
                                "name": "Initial Gas",
                                "value": 23256
                            },
                            {
                                "children": [],
                                "depth": 0,
                                "name": "Executed Gas",
                                "value": 28298
                            }
                        ],
                        "depth": -1,
                        "name": "Actual Gas Used",
                        "value": 51554
                    },
                    {
                        "children": [],
                        "depth": -1,
                        "name": "Refunded Gas",
                        "value": 0
                    }
                ],
                "depth": -2,
                "name": "Total Gas",
                "value": 51554
            }
        ],
        "isConfirmed": true,
        "mainTrace": [
            {
                "children": [
                    {
                        "children": [
                            {
                                "children": [],
                                "depth": 1,
                                "id": 1,
                                "order": 1
                            }
                        ],
                        "depth": 0,
                        "id": 0,
                        "order": 0
                    }
                ],
                "depth": -1,
                "id": -1,
                "order": -1
            }
        ],
        "mainTraceNodeCount": 2,
        "parentIdMap": {
            "0": -1,
            "1": 0
        },
        "tidyTrace": [
            {
                "children": [
                    {
                        "children": [
                            {
                                "children": [],
                                "depth": 1,
                                "id": 1,
                                "order": 1
                            }
                        ],
                        "depth": 0,
                        "id": 0,
                        "order": 0
                    }
                ],
                "depth": -1,
                "id": -1,
                "order": -1
            }
        ],
        "tidyTraceNodeCount": 2
    },
    "state_change": {
        "stateChanges": [
            {
                "address": "0xfbc6336ea5319daba3a1d6fa3028fc54a9022f9a",
                "erc": "",
                "slots": [
                    {
                        "current": "0x000000000000000000000000000000000000000000000062eb042b2ca3a40000",
                        "key": "0xd2476515f0942b4800cd86e2ced1bd02cee05cbf17d3960c285185980b059844",
                        "prev": "0x0000000000000000000000000000000000000000000000000000000000000000"
                    },
                    {
                        "current": "0x000000000000000000000000000000000000000000001ada95ab01b129b41f58",
                        "key": "0x775609ea56634c686cb6f4002dc51375c56057bb42ce9e33d41e9b36b79eca67",
                        "prev": "0x000000000000000000000000000000000000000000001b3d80af2cddcd581f58"
                    }
                ],
                "storageVariables": [
                    {
                        "name": "balanceOf",
                        "type": "mapping(address => uint256)",
                        "value": {
                            "pairs": [
                                {
                                    "key": "0x502a76d02dfaeb9a7907a4e4b28fb66519ba7d60",
                                    "value": {
                                        "current": "126813703478272547102552",
                                        "prev": "128638419105465627058008",
                                        "typeTag": 1
                                    }
                                },
                                {
                                    "key": "0xe6d724a806a7655c0b28883c6bbf736f217671b6",
                                    "value": {
                                        "current": "1824715627193079955456",
                                        "prev": "0",
                                        "typeTag": 1
                                    }
                                }
                            ],
                            "typeTag": 4
                        }
                    }
                ]
            }
        ]
    }
}