{
    "balance_change": {
        "balanceChanges": [
            {
                "account": "0x002abb6b6b482e6256bc8c90a5c686715e80dffc",
                "assets": [
                    {
                        "address": "0xf5b0a3efb8e8e4c201e2a935f110eaaf3ffecb8d",
                        "amount": "269,329",
                        "iconUrl": "",
                        "isERC1155": false,
                        "isERC721": false,
                        "sign": true,
                        "value": ""
                    },
                    {
                        "address": "0xeeeeeeeeeeeeeeeeeeeeeeeeeeeeeeeeeeeeeeee",
                        "amount": "0.005",
                        "iconUrl": "https://assets.blocksec.com/image/1663669189317-3.png",
                        "isERC1155": false,
                        "isERC721": false,
                        "sign": false,
                        "value": "9.99445"
                    },
                    {
                        "address": "0x37236cd05b34cc79d3715af2383e96dd7443dcf1",
                        "amount": "700",
                        "iconUrl": "",
                        "isERC1155": false,
                        "isERC721": false,
                        "sign": false,
                        "value": "47.5494437"
                    }
                ]
            },
            {
                "account": "0x0000000000000000000000000000000000000000",
                "assets": [
                    {
                        "address": "0x37236cd05b34cc79d3715af2383e96dd7443dcf1",
                        "amount": "700",
                        "iconUrl": "",
                        "isERC1155": false,
                        "isERC721": false,
                        "sign": true,
                        "value": "47.5494437"
                    },
                    {
                        "address": "0xf5b0a3efb8e8e4c201e2a935f110eaaf3ffecb8d",
                        "amount": "269,329",
                        "iconUrl": "",
                        "isERC1155": false,
                        "isERC721": false,
                        "sign": false,
                        "value": ""
                    }
                ]
            },
            {
                "account": "0x01aac5236ad205ebbe4f6819bc64ef5bef40b71c",
                "assets": [
                    {
                        "address": "0xeeeeeeeeeeeeeeeeeeeeeeeeeeeeeeeeeeeeeeee",
                        "amount": "0.005",
                        "iconUrl": "https://assets.blocksec.com/image/1663669189317-3.png",
                        "isERC1155": false,
                        "isERC721": false,
                        "sign": true,
                        "value": "9.99445"
                    }
                ]
            }
        ]
    },
    "profile": {
        "basic_info": {
            "baseFee": "",
            "blockNumber": 12199085,
            "callData": "0xf5e5406300000000000000000000000001aac5236ad205ebbe4f6819bc64ef5bef40b71c000000000000000000000000000000000000000000000000000000003b9aca0000000000000000000000000000000000000000000000000000000000000000600000000000000000000000000000000000000000000000000000000000000060000000000000000000000000000000000000000000000000000000000003e6cb000000000000000000000000000000000000000000000000000000000003aaac0000000000000000000000000000000000000000000000000000000000000000",
            "debugEnable": true,
            "errorInfo": "",
            "eventCount": 4,
            "feeRecipient": "0x3ecef08d0e2dad803847e052249bb4f8bff2d5bb",
            "formatValue": "0.005",
            "gasLimit": 500535,
            "gasPrice": "95",
            "gasUsed": 442858,
            "intTxnCount": 25,
            "internalRevert": false,
            "internalRevertMessage": "",
            "isContractCreation": false,
            "isFlashloan": false,
            "maxFee": "",
            "nonce": 31,
            "overwritedBlockNumber": -1,
            "priorityFee": "",
            "receiver": "0x37236cd05b34cc79d3715af2383e96dd7443dcf1",
            "revertMessage": "",
            "sender": "0x002abb6b6b482e6256bc8c90a5c686715e80dffc",
            "simulationEnable": true,
            "sourceTxnHash": "0x84efa1aead240fb27dbbac368c12387c5f3966e5b69bcbaf1b3e0831b9f2661f",
            "status": true,
            "timestamp": "2021-04-08T12:17:48Z",
            "transactionFee": "0.04207151",
            "txnHash": "0x84efa1aead240fb27dbbac368c12387c5f3966e5b69bcbaf1b3e0831b9f2661f",
            "txnIndex": 162,
            "type": 0,
            "value": "5000000000000000"
        },
        "fund_flow": [
            {
                "amount": "0.005",
                "from": "0x002abb6b6b482e6256bc8c90a5c686715e80dffc",
                "id": 1,
                "isERC1155": false,
                "isERC721": false,
                "isReverted": false,
                "order": 1,
                "to": "0x37236cd05b34cc79d3715af2383e96dd7443dcf1",
                "token": "0xeeeeeeeeeeeeeeeeeeeeeeeeeeeeeeeeeeeeeeee"
            },
            {
                "amount": "0.005",
                "from": "0x37236cd05b34cc79d3715af2383e96dd7443dcf1",
                "id": 2,
                "isERC1155": false,
                "isERC721": false,
                "isReverted": false,
                "order": 2,
                "to": "0x01aac5236ad205ebbe4f6819bc64ef5bef40b71c",
                "token": "0xeeeeeeeeeeeeeeeeeeeeeeeeeeeeeeeeeeeeeeee"
            },
            {
                "amount": "700",
                "from": "0x002abb6b6b482e6256bc8c90a5c686715e80dffc",
                "id": 3,
                "isERC1155": false,
                "isERC721": false,
                "isReverted": false,
                "order": 3,
                "to": "0x0000000000000000000000000000000000000000",
                "token": "0x37236cd05b34cc79d3715af2383e96dd7443dcf1"
            },
            {
                "amount": "269,329",
                "from": "0x0000000000000000000000000000000000000000",
                "id": 4,
                "isERC1155": false,
                "isERC721": false,
                "isReverted": false,
                "order": 4,
                "to": "0x002abb6b6b482e6256bc8c90a5c686715e80dffc",
                "token": "0xf5b0a3efb8e8e4c201e2a935f110eaaf3ffecb8d"
            }
        ],
        "token_infos": [
            {
                "address": "0xeeeeeeeeeeeeeeeeeeeeeeeeeeeeeeeeeeeeeeee",
                "decimals": 18
            },
            {
                "address": "0x37236cd05b34cc79d3715af2383e96dd7443dcf1",
                "decimals": 0
            },
            {
                "address": "0xc02aaa39b223fe8d0a0e5c4f27ead9083c756cc2",
                "decimals": 18
            },
            {
                "address": "0xf5b0a3efb8e8e4c201e2a935f110eaaf3ffecb8d",
                "decimals": -1
            }
        ]
    },
    "address_label": {
        "labels": [
            {
                "address": "0x0000000000000000000000000000000000000002",
                "label": "Precompiled"
            },
            {
                "address": "0x0000000000000000000000000000000000000003",
                "label": "Precompiled"
            },
            {
                "address": "0x0000000000000000000000000000000000000004",
                "label": "Precompiled"
            },
            {
                "address": "0xeeeeeeeeeeeeeeeeeeeeeeeeeeeeeeeeeeeeeeee",
                "label": "Ether"
            },
            {
                "address": "0xf5b0a3efb8e8e4c201e2a935f110eaaf3ffecb8d",
                "label": "Axie Infinity: AXIE Token"
            },
            {
                "address": "0x37236cd05b34cc79d3715af2383e96dd7443dcf1",
                "label": "Small Love Potion: Old SLP Token"
            },
            {
                "address": "0x01aac5236ad205ebbe4f6819bc64ef5bef40b71c",
                "label": "Axie Infinity: Breeding Contract #1"
            },
            {
                "address": "0x0000000000000000000000000000000000000001",
                "label": "Precompiled"
            }
        ]
    },
    "trace": {
        "accountLabels": null,
        "dataMap": {
            "-1": {
                "invocation": {
                    "address": "0x002abb6b6b482e6256bc8c90a5c686715e80dffc",
                    "callData": "",
                    "decodedMethod": null,
                    "errorInfo": "",
                    "fromAddress": "",
                    "gasUsed": 0,
                    "id": -1,
                    "methodDecoded": false,
                    "operation": "",
                    "output": "",
                    "revert": false,
                    "revertMessage": "",
                    "selector": "",
                    "status": false,
                    "value": ""
                },
                "nodeType": 0
            },
            "0": {
                "invocation": {
                    "address": "0x37236cd05b34cc79d3715af2383e96dd7443dcf1",
                    "callData": "0x00000000000000000000000001aac5236ad205ebbe4f6819bc64ef5bef40b71c000000000000000000000000000000000000000000000000000000003b9aca0000000000000000000000000000000000000000000000000000000000000000600000000000000000000000000000000000000000000000000000000000000060000000000000000000000000000000000000000000000000000000000003e6cb000000000000000000000000000000000000000000000000000000000003aaac0000000000000000000000000000000000000000000000000000000000000000",
                    "decodedMethod": null,
                    "errorInfo": "",
                    "fromAddress": "0x002abb6b6b482e6256bc8c90a5c686715e80dffc",
                    "gasUsed": 442858,
                    "id": 0,
                    "methodDecoded": false,
                    "operation": "CALL",
                    "output": "0x0000000000000000000000000000000000000000000000000000000000000001",
                    "revert": false,
                    "revertMessage": "",
                    "selector": "0xf5e54063",
                    "status": true,
                    "value": "0.005"
                },
                "nodeType": 0
            },
            "1": {
                "event": {
                    "contract": "0x37236cd05b34cc79d3715af2383e96dd7443dcf1",
                    "decodedLog": {
                        "name": "Approval",
                        "params": [
                            {
                                "name": "owner",
                                "type": "address",
                                "value": "0x002abb6b6b482e6256bc8c90a5c686715e80dffc"
                            },
                            {
                                "name": "spender",
                                "type": "address",
                                "value": "0x01aac5236ad205ebbe4f6819bc64ef5bef40b71c"
                            },
                            {
                                "decimalAvailable": true,
                                "name": "value",
                                "type": "uint256",
                                "value": "1,000,000,000"
                            }
                        ],
                        "signature": "Approval(address,address,uint256)"
                    },
                    "id": 1,
                    "logData": "0x000000000000000000000000000000000000000000000000000000003b9aca00",
                    "logDecoded": true,
                    "operation": "EVENT",
                    "revert": false,
                    "status": true,
                    "topics": [
                        "0x8c5be1e5ebec7d5bd14f71427d1e84f3dd0314c0f7b2291e5b200ac8c7c3b925",
                        "0x000000000000000000000000002abb6b6b482e6256bc8c90a5c686715e80dffc",
                        "0x00000000000000000000000001aac5236ad205ebbe4f6819bc64ef5bef40b71c"
                    ]
                },
                "nodeType": 1
            },
            "10": {
                "invocation": {
                    "address": "0x10e304a53351b272dc415ad049ad06565ebdfe34",
                    "callData": "0x000000000000000000000000000000000000000000000000000000000003e6cb000000000000000000000000000000000000000000000000000000000003aaac",
                    "decodedMethod": null,
                    "errorInfo": "",
                    "fromAddress": "0x01aac5236ad205ebbe4f6819bc64ef5bef40b71c",
                    "gasUsed": 12319,
                    "id": 10,
                    "methodDecoded": false,
                    "operation": "CALL",
                    "output": "0x0000000000000000000000000000000000000000000000000000000000000001",
                    "revert": false,
                    "revertMessage": "",
                    "selector": "0x7d831dd4",
                    "status": true,
                    "value": "0"
                },
                "nodeType": 0
            },
            "11": {
                "invocation": {
                    "address": "0x10e304a53351b272dc415ad049ad06565ebdfe34",
                    "callData": "0x000000000000000000000000000000000000000000000000000000000003e6cb",
                    "decodedMethod": {
                        "callParams": [
                            {
                                "name": "balance",
                                "type": "uint256",
                                "value": "255,691"
                            }
                        ],
                        "constructorArguments": "",
                        "name": "getExtra",
                        "returnParams": [
                            {
                                "name": "",
                                "type": "uint8",
                                "value": "137"
                            }
                        ],
                        "signature": "getExtra(uint256)"
                    },
                    "errorInfo": "",
                    "fromAddress": "0x01aac5236ad205ebbe4f6819bc64ef5bef40b71c",
                    "gasUsed": 4026,
                    "id": 11,
                    "methodDecoded": true,
                    "operation": "CALL",
                    "output": "0x000000000000000000000000000000000000000000000000000000000003bc89000000000000000000000000000000000000000000000000000000000002eb6300000000000000000000000000000000000000000000000000000000000000000000000000000000000000000000000000000000000000000000000000000001",
                    "revert": false,
                    "revertMessage": "",
                    "selector": "0x893bb0bf",
                    "status": true,
                    "value": "0"
                },
                "nodeType": 0
            },
            "12": {
                "invocation": {
                    "address": "0x10e304a53351b272dc415ad049ad06565ebdfe34",
                    "callData": "0x000000000000000000000000000000000000000000000000000000000003e6cb0000000000000000000000000000000000000000000000000000000000000002",
                    "decodedMethod": null,
                    "errorInfo": "",
                    "fromAddress": "0x01aac5236ad205ebbe4f6819bc64ef5bef40b71c",
                    "gasUsed": 14619,
                    "id": 12,
                    "methodDecoded": false,
                    "operation": "CALL",
                    "output": "",
                    "revert": false,
                    "revertMessage": "",
                    "selector": "0xcace40be",
                    "status": true,
                    "value": "0"
                },
                "nodeType": 0
            },
            "13": {
                "invocation": {
                    "address": "0x26c89cf33b8473ea8e0513e17bd674d8fd0bc2cd",
                    "callData": "0x000000000000000000000000000000000000000000000000000000000003e6cb00000000000000000000000000000000000000000000000000000000000000020000000000000000000000000000000000000000000000000000000000000001",
                    "decodedMethod": null,
                    "errorInfo": "",
                    "fromAddress": "0x10e304a53351b272dc415ad049ad06565ebdfe34",
                    "gasUsed": 4333,
                    "id": 13,
                    "methodDecoded": false,
                    "operation": "CALL",
                    "output": "0x0000000000000000000000000000000000000000000000000000000000000001",
                    "revert": false,
                    "revertMessage": "",
                    "selector": "0x771c0ad9",
                    "status": true,
                    "value": "0"
                },
                "nodeType": 0
            },
            "14": {
                "invocation": {
                    "address": "0x10e304a53351b272dc415ad049ad06565ebdfe34",
                    "callData": "0x",
                    "decodedMethod": {
                        "callParams": [],
                        "constructorArguments": "",
                        "name": "paused",
                        "returnParams": [
                            {
                                "name": "",
                                "type": "bool",
                                "value": false
                            }
                        ],
                        "signature": "paused()"
                    },
                    "errorInfo": "",
                    "fromAddress": "0x26c89cf33b8473ea8e0513e17bd674d8fd0bc2cd",
                    "gasUsed": 1419,
                    "id": 14,
                    "methodDecoded": true,
                    "operation": "CALL",
                    "output": "0x0000000000000000000000000000000000000000000000000000000000000000",
                    "revert": false,
                    "revertMessage": "",
                    "selector": "0x5c975abb",
                    "status": true,
                    "value": "0"
                },
                "nodeType": 0
            },
            "15": {
                "invocation": {
                    "address": "0x10e304a53351b272dc415ad049ad06565ebdfe34",
                    "callData": "0x000000000000000000000000000000000000000000000000000000000003aaac",
                    "decodedMethod": {
                        "callParams": [
                            {
                                "name": "balance",
                                "type": "uint256",
                                "value": "240,300"
                            }
                        ],
                        "constructorArguments": "",
                        "name": "getExtra",
                        "returnParams": [
                            {
                                "name": "",
                                "type": "uint8",
                                "value": "194"
                            }
                        ],
                        "signature": "getExtra(uint256)"
                    },
                    "errorInfo": "",
                    "fromAddress": "0x01aac5236ad205ebbe4f6819bc64ef5bef40b71c",
                    "gasUsed": 4026,
                    "id": 15,
                    "methodDecoded": true,
                    "operation": "CALL",
                    "output": "0x0000000000000000000000000000000000000000000000000000000000036cc2000000000000000000000000000000000000000000000000000000000003509b00000000000000000000000000000000000000000000000000000000000000000000000000000000000000000000000000000000000000000000000000000003",
                    "revert": false,
                    "revertMessage": "",
                    "selector": "0x893bb0bf",
                    "status": true,
                    "value": "0"
                },
                "nodeType": 0
            },
            "16": {
                "invocation": {
                    "address": "0x10e304a53351b272dc415ad049ad06565ebdfe34",
                    "callData": "0x000000000000000000000000000000000000000000000000000000000003aaac0000000000000000000000000000000000000000000000000000000000000004",
                    "decodedMethod": null,
                    "errorInfo": "",
                    "fromAddress": "0x01aac5236ad205ebbe4f6819bc64ef5bef40b71c",
                    "gasUsed": 14619,
                    "id": 16,
                    "methodDecoded": false,
                    "operation": "CALL",
                    "output": "",
                    "revert": false,
                    "revertMessage": "",
                    "selector": "0xcace40be",
                    "status": true,
                    "value": "0"
                },
                "nodeType": 0
            },
            "17": {
                "invocation": {
                    "address": "0x26c89cf33b8473ea8e0513e17bd674d8fd0bc2cd",
                    "callData": "0x000000000000000000000000000000000000000000000000000000000003aaac00000000000000000000000000000000000000000000000000000000000000040000000000000000000000000000000000000000000000000000000000000003",
                    "decodedMethod": null,
                    "errorInfo": "",
                    "fromAddress": "0x10e304a53351b272dc415ad049ad06565ebdfe34",
                    "gasUsed": 4333,
                    "id": 17,
                    "methodDecoded": false,
                    "operation": "CALL",
                    "output": "0x0000000000000000000000000000000000000000000000000000000000000001",
                    "revert": false,
                    "revertMessage": "",
                    "selector": "0x771c0ad9",
                    "status": true,
                    "value": "0"
                },
                "nodeType": 0
            },
            "18": {
                "invocation": {
                    "address": "0x10e304a53351b272dc415ad049ad06565ebdfe34",
                    "callData": "0x",
                    "decodedMethod": {
                        "callParams": [],
                        "constructorArguments": "",
                        "name": "paused",
                        "returnParams": [
                            {
                                "name": "",
                                "type": "bool",
                                "value": false
                            }
                        ],
                        "signature": "paused()"
                    },
                    "errorInfo": "",
                    "fromAddress": "0x26c89cf33b8473ea8e0513e17bd674d8fd0bc2cd",
                    "gasUsed": 1419,
                    "id": 18,
                    "methodDecoded": true,
                    "operation": "CALL",
                    "output": "0x0000000000000000000000000000000000000000000000000000000000000000",
                    "revert": false,
                    "revertMessage": "",
                    "selector": "0x5c975abb",
                    "status": true,
                    "value": "0"
                },
                "nodeType": 0
            },
            "19": {
                "invocation": {
                    "address": "0x37236cd05b34cc79d3715af2383e96dd7443dcf1",
                    "callData": "0x000000000000000000000000002abb6b6b482e6256bc8c90a5c686715e80dffc00000000000000000000000000000000000000000000000000000000000002bc",
                    "decodedMethod": {
                        "callParams": [
                            {
                                "name": "account",
                                "type": "address",
                                "value": "0x002abb6b6b482e6256bc8c90a5c686715e80dffc"
                            },
                            {
                                "name": "amount",
                                "type": "uint256",
                                "value": "700"
                            }
                        ],
                        "constructorArguments": "",
                        "name": "burnFrom",
                        "returnParams": [],
                        "signature": "burnFrom(address,uint256)"
                    },
                    "errorInfo": "",
                    "fromAddress": "0x01aac5236ad205ebbe4f6819bc64ef5bef40b71c",
                    "gasUsed": 23261,
                    "id": 19,
                    "methodDecoded": true,
                    "operation": "CALL",
                    "output": "0x0000000000000000000000000000000000000000000000000000000000000001",
                    "revert": false,
                    "revertMessage": "",
                    "selector": "0x79cc6790",
                    "status": true,
                    "value": "0"
                },
                "nodeType": 0
            },
            "2": {
                "invocation": {
                    "address": "0x01aac5236ad205ebbe4f6819bc64ef5bef40b71c",
                    "callData": "0x000000000000000000000000002abb6b6b482e6256bc8c90a5c686715e80dffc000000000000000000000000000000000000000000000000000000003b9aca0000000000000000000000000037236cd05b34cc79d3715af2383e96dd7443dcf100000000000000000000000000000000000000000000000000000000000000800000000000000000000000000000000000000000000000000000000000000060000000000000000000000000000000000000000000000000000000000003e6cb000000000000000000000000000000000000000000000000000000000003aaac0000000000000000000000000000000000000000000000000000000000000000",
                    "decodedMethod": {
                        "callParams": [
                            {
                                "name": "_from",
                                "type": "address",
                                "value": "0x002abb6b6b482e6256bc8c90a5c686715e80dffc"
                            },
                            {
                                "name": "_value",
                                "type": "uint256",
                                "value": "1,000,000,000"
                            },
                            {
                                "name": "_token",
                                "type": "address",
                                "value": "0x37236cd05b34cc79d3715af2383e96dd7443dcf1"
                            },
                            {
                                "name": "_extraData",
                                "type": "bytes",
                                "value": "0x000000000000000000000000000000000000000000000000000000000003e6cb000000000000000000000000000000000000000000000000000000000003aaac0000000000000000000000000000000000000000000000000000000000000000"
                            }
                        ],
                        "constructorArguments": "",
                        "name": "receiveApproval",
                        "returnParams": [],
                        "signature": "receiveApproval(address,uint256,address,bytes)"
                    },
                    "errorInfo": "",
                    "fromAddress": "0x37236cd05b34cc79d3715af2383e96dd7443dcf1",
                    "gasUsed": 402925,
                    "id": 2,
                    "methodDecoded": true,
                    "operation": "CALL",
                    "output": "",
                    "revert": false,
                    "revertMessage": "",
                    "selector": "0x8f4ffcb1",
                    "status": true,
                    "value": "0.005"
                },
                "nodeType": 0
            },
            "20": {
                "event": {
                    "contract": "0x37236cd05b34cc79d3715af2383e96dd7443dcf1",
                    "decodedLog": {
                        "name": "Transfer",
                        "params": [
                            {
                                "name": "from",
                                "type": "address",
                                "value": "0x002abb6b6b482e6256bc8c90a5c686715e80dffc"
                            },
                            {
                                "name": "to",
                                "type": "address",
                                "value": "0x0000000000000000000000000000000000000000"
                            },
                            {
                                "decimalAvailable": true,
                                "name": "value",
                                "type": "uint256",
                                "value": "700"
                            }
                        ],
                        "signature": "Transfer(address,address,uint256)"
                    },
                    "id": 20,
                    "logData": "0x00000000000000000000000000000000000000000000000000000000000002bc",
                    "logDecoded": true,
                    "operation": "EVENT",
                    "revert": false,
                    "status": true,
                    "topics": [
                        "0xddf252ad1be2c89b69c2b068fc378daa952ba7f163c4a11628f55a4df523b3ef",
                        "0x000000000000000000000000002abb6b6b482e6256bc8c90a5c686715e80dffc",
                        "0x0000000000000000000000000000000000000000000000000000000000000000"
                    ]
                },
                "nodeType": 1
            },
            "21": {
                "invocation": {
                    "address": "0xf5b0a3efb8e8e4c201e2a935f110eaaf3ffecb8d",
                    "callData": "0x000000000000000000000000000000000000000000000000000000000003aaac",
                    "decodedMethod": {
                        "callParams": [
                            {
                                "name": "_tokenId",
                                "type": "uint256",
                                "value": "240,300"
                            }
                        ],
                        "constructorArguments": "",
                        "name": "ownerOf",
                        "returnParams": [
                            {
                                "name": "",
                                "type": "address",
                                "value": "0x002abb6b6b482e6256bc8c90a5c686715e80dffc"
                            }
                        ],
                        "signature": "ownerOf(uint256)"
                    },
                    "errorInfo": "",
                    "fromAddress": "0x01aac5236ad205ebbe4f6819bc64ef5bef40b71c",
                    "gasUsed": 2807,
                    "id": 21,
                    "methodDecoded": true,
                    "operation": "CALL",
                    "output": "0x000000000000000000000000002abb6b6b482e6256bc8c90a5c686715e80dffc",
                    "revert": false,
                    "revertMessage": "",
                    "selector": "0x6352211e",
                    "status": true,
                    "value": "0"
                },
                "nodeType": 0
            },
            "22": {
                "invocation": {
                    "address": "0x10e304a53351b272dc415ad049ad06565ebdfe34",
                    "callData": "0x0000000000000000000000000000000000000000000000000000000000000000000000000000000000000000000000000000000000000000000000000003e6cb000000000000000000000000000000000000000000000000000000000003aaac0000000000000000000000000000000000000000000000000000000000000000000000000000000000000000002abb6b6b482e6256bc8c90a5c686715e80dffc",
                    "decodedMethod": null,
                    "errorInfo": "",
                    "fromAddress": "0x01aac5236ad205ebbe4f6819bc64ef5bef40b71c",
                    "gasUsed": 209859,
                    "id": 22,
                    "methodDecoded": false,
                    "operation": "CALL",
                    "output": "0x0000000000000000000000000000000000000000000000000000000000041c11",
                    "revert": false,
                    "revertMessage": "",
                    "selector": "0x88de9aab",
                    "status": true,
                    "value": "0"
                },
                "nodeType": 0
            },
            "23": {
                "invocation": {
                    "address": "0x26c89cf33b8473ea8e0513e17bd674d8fd0bc2cd",
                    "callData": "0x0000000000000000000000000000000000000000000000000000000000000000000000000000000000000000002abb6b6b482e6256bc8c90a5c686715e80dffc",
                    "decodedMethod": null,
                    "errorInfo": "",
                    "fromAddress": "0x10e304a53351b272dc415ad049ad06565ebdfe34",
                    "gasUsed": 4488,
                    "id": 23,
                    "methodDecoded": false,
                    "operation": "CALL",
                    "output": "0x0000000000000000000000000000000000000000000000000000000000000001",
                    "revert": false,
                    "revertMessage": "",
                    "selector": "0xcbe44458",
                    "status": true,
                    "value": "0"
                },
                "nodeType": 0
            },
            "24": {
                "invocation": {
                    "address": "0x10e304a53351b272dc415ad049ad06565ebdfe34",
                    "callData": "0x",
                    "decodedMethod": {
                        "callParams": [],
                        "constructorArguments": "",
                        "name": "paused",
                        "returnParams": [
                            {
                                "name": "",
                                "type": "bool",
                                "value": false
                            }
                        ],
                        "signature": "paused()"
                    },
                    "errorInfo": "",
                    "fromAddress": "0x26c89cf33b8473ea8e0513e17bd674d8fd0bc2cd",
                    "gasUsed": 1419,
                    "id": 24,
                    "methodDecoded": true,
                    "operation": "CALL",
                    "output": "0x0000000000000000000000000000000000000000000000000000000000000000",
                    "revert": false,
                    "revertMessage": "",
                    "selector": "0x5c975abb",
                    "status": true,
                    "value": "0"
                },
                "nodeType": 0
            },
            "25": {
                "invocation": {
                    "address": "0xf5b0a3efb8e8e4c201e2a935f110eaaf3ffecb8d",
                    "callData": "0x0000000000000000000000000000000000000000000000000000000000000000000000000000000000000000002abb6b6b482e6256bc8c90a5c686715e80dffc",
                    "decodedMethod": {
                        "callParams": [
                            {
                                "name": "_genes",
                                "type": "uint256",
                                "value": "0"
                            },
                            {
                                "name": "_owner",
                                "type": "address",
                                "value": "0x002abb6b6b482e6256bc8c90a5c686715e80dffc"
                            }
                        ],
                        "constructorArguments": "",
                        "name": "spawnAxie",
                        "returnParams": [
                            {
                                "name": "",
                                "type": "uint256",
                                "value": "269,329"
                            }
                        ],
                        "signature": "spawnAxie(uint256,address)"
                    },
                    "errorInfo": "",
                    "fromAddress": "0x10e304a53351b272dc415ad049ad06565ebdfe34",
                    "gasUsed": 157690,
                    "id": 25,
                    "methodDecoded": true,
                    "operation": "CALL",
                    "output": "0x0000000000000000000000000000000000000000000000000000000000041c11",
                    "revert": false,
                    "revertMessage": "",
                    "selector": "0x5dcc6dbc",
                    "status": true,
                    "value": "0"
                },
                "nodeType": 0
            },
            "26": {
                "invocation": {
                    "address": "0xe8bd438d0383cf4d19641eaa4793eddc6cebeaf1",
                    "callData": "0x0000000000000000000000000000000000000000000000000000000000000000000000000000000000000000002abb6b6b482e6256bc8c90a5c686715e80dffc",
                    "decodedMethod": {
                        "callParams": [
                            {
                                "name": "",
                                "type": "uint256",
                                "value": "0"
                            },
                            {
                                "name": "",
                                "type": "address",
                                "value": "0x002abb6b6b482e6256bc8c90a5c686715e80dffc"
                            }
                        ],
                        "constructorArguments": "",
                        "name": "isSpawningAllowed",
                        "returnParams": [
                            {
                                "name": "",
                                "type": "bool",
                                "value": true
                            }
                        ],
                        "signature": "isSpawningAllowed(uint256,address)"
                    },
                    "errorInfo": "",
                    "fromAddress": "0xf5b0a3efb8e8e4c201e2a935f110eaaf3ffecb8d",
                    "gasUsed": 4499,
                    "id": 26,
                    "methodDecoded": true,
                    "operation": "CALL",
                    "output": "0x0000000000000000000000000000000000000000000000000000000000000001",
                    "revert": false,
                    "revertMessage": "",
                    "selector": "0x0e972421",
                    "status": true,
                    "value": "0"
                },
                "nodeType": 0
            },
            "27": {
                "invocation": {
                    "address": "0xf5b0a3efb8e8e4c201e2a935f110eaaf3ffecb8d",
                    "callData": "0x",
                    "decodedMethod": {
                        "callParams": [],
                        "constructorArguments": "",
                        "name": "paused",
                        "returnParams": [
                            {
                                "name": "",
                                "type": "bool",
                                "value": false
                            }
                        ],
                        "signature": "paused()"
                    },
                    "errorInfo": "",
                    "fromAddress": "0xe8bd438d0383cf4d19641eaa4793eddc6cebeaf1",
                    "gasUsed": 1628,
                    "id": 27,
                    "methodDecoded": true,
                    "operation": "CALL",
                    "output": "0x0000000000000000000000000000000000000000000000000000000000000000",
                    "revert": false,
                    "revertMessage": "",
                    "selector": "0x5c975abb",
                    "status": true,
                    "value": "0"
                },
                "nodeType": 0
            },
            "28": {
                "event": {
                    "contract": "0xf5b0a3efb8e8e4c201e2a935f110eaaf3ffecb8d",
                    "decodedLog": {
                        "name": "Transfer",
                        "params": [
                            {
                                "name": "_from",
                                "type": "address",
                                "value": "0x0000000000000000000000000000000000000000"
                            },
                            {
                                "name": "_to",
                                "type": "address",
                                "value": "0x002abb6b6b482e6256bc8c90a5c686715e80dffc"
                            },
                            {
                                "decimalAvailable": true,
                                "name": "_tokenId",
                                "type": "uint256",
                                "value": "269,329"
                            }
                        ],
                        "signature": "Transfer(address,address,uint256)"
                    },
                    "id": 28,
                    "logData": "0x0000000000000000000000000000000000000000000000000000000000041c11",
                    "logDecoded": true,
                    "operation": "EVENT",
                    "revert": false,
                    "status": true,
                    "topics": [
                        "0xddf252ad1be2c89b69c2b068fc378daa952ba7f163c4a11628f55a4df523b3ef",
                        "0x0000000000000000000000000000000000000000000000000000000000000000",
                        "0x000000000000000000000000002abb6b6b482e6256bc8c90a5c686715e80dffc"
                    ]
                },
                "nodeType": 1
            },
            "29": {
                "event": {
                    "contract": "0xf5b0a3efb8e8e4c201e2a935f110eaaf3ffecb8d",
                    "decodedLog": {
                        "name": "AxieSpawned",
                        "params": [
                            {
                                "name": "_axieId",
                                "type": "uint256",
                                "value": "269,329"
                            },
                            {
                                "name": "_owner",
                                "type": "address",
                                "value": "0x002abb6b6b482e6256bc8c90a5c686715e80dffc"
                            },
                            {
                                "name": "_genes",
                                "type": "uint256",
                                "value": "0"
                            }
                        ],
                        "signature": "AxieSpawned(uint256,address,uint256)"
                    },
                    "id": 29,
                    "logData": "0x0000000000000000000000000000000000000000000000000000000000000000",
                    "logDecoded": true,
                    "operation": "EVENT",
                    "revert": false,
                    "status": true,
                    "topics": [
                        "0x0aa75ef3ef0b2c4f092828edf4e4ded5a223d08350535710b957679883ff3a3c",
                        "0x0000000000000000000000000000000000000000000000000000000000041c11",
                        "0x000000000000000000000000002abb6b6b482e6256bc8c90a5c686715e80dffc"
                    ]
                },
                "nodeType": 1
            },
            "3": {
                "invocation": {
                    "address": "0xa4787fdb16efd4d0f9967001c207f7a6e281b686",
                    "callData": "0x000000000000000000000000000000000000000000000000000000000003e6cb000000000000000000000000000000000000000000000000000000000003aaac0000000000000000000000000000000000000000000000000000000000000000",
                    "decodedMethod": null,
                    "errorInfo": "",
                    "fromAddress": "0x01aac5236ad205ebbe4f6819bc64ef5bef40b71c",
                    "gasUsed": 14562,
                    "id": 3,
                    "methodDecoded": false,
                    "operation": "CALL",
                    "output": "0x0000000000000000000000000000000000000000000000000000000000000001",
                    "revert": false,
                    "revertMessage": "",
                    "selector": "0x6ae17ab7",
                    "status": true,
                    "value": "0"
                },
                "nodeType": 0
            },
            "4": {
                "invocation": {
                    "address": "0xf5b0a3efb8e8e4c201e2a935f110eaaf3ffecb8d",
                    "callData": "0x000000000000000000000000000000000000000000000000000000000003e6cb",
                    "decodedMethod": {
                        "callParams": [
                            {
                                "name": "_axieId",
                                "type": "uint256",
                                "value": "255,691"
                            }
                        ],
                        "constructorArguments": "",
                        "name": "getAxie",
                        "returnParams": [
                            {
                                "name": "",
                                "type": "uint256",
                                "value": "24,424,893,824,877,199,817,442,013,233,845,841,222,926,492,274,332,450,116,262,532,762,026,203,482,438"
                            },
                            {
                                "name": "",
                                "type": "uint256",
                                "value": "1,616,388,920"
                            }
                        ],
                        "signature": "getAxie(uint256)"
                    },
                    "errorInfo": "",
                    "fromAddress": "0xa4787fdb16efd4d0f9967001c207f7a6e281b686",
                    "gasUsed": 4683,
                    "id": 4,
                    "methodDecoded": true,
                    "operation": "CALL",
                    "output": "0x360000000d1c93301441080a1085294a14651902044110c6146221460c8509460000000000000000000000000000000000000000000000000000000060582338",
                    "revert": false,
                    "revertMessage": "",
                    "selector": "0xa6472906",
                    "status": true,
                    "value": "0"
                },
                "nodeType": 0
            },
            "5": {
                "invocation": {
                    "address": "0xf5b0a3efb8e8e4c201e2a935f110eaaf3ffecb8d",
                    "callData": "0x000000000000000000000000000000000000000000000000000000000003aaac",
                    "decodedMethod": {
                        "callParams": [
                            {
                                "name": "_axieId",
                                "type": "uint256",
                                "value": "240,300"
                            }
                        ],
                        "constructorArguments": "",
                        "name": "getAxie",
                        "returnParams": [
                            {
                                "name": "",
                                "type": "uint256",
                                "value": "23,067,955,279,132,851,197,656,082,597,210,772,417,493,008,556,429,781,602,950,339,668,138,858,324,162"
                            },
                            {
                                "name": "",
                                "type": "uint256",
                                "value": "1,609,064,203"
                            }
                        ],
                        "signature": "getAxie(uint256)"
                    },
                    "errorInfo": "",
                    "fromAddress": "0xa4787fdb16efd4d0f9967001c207f7a6e281b686",
                    "gasUsed": 4683,
                    "id": 5,
                    "methodDecoded": true,
                    "operation": "CALL",
                    "output": "0x330000000d29d3120c2308c20c212102006318ca044308c60c4010c40c8320c2000000000000000000000000000000000000000000000000000000005fe85f0b",
                    "revert": false,
                    "revertMessage": "",
                    "selector": "0xa6472906",
                    "status": true,
                    "value": "0"
                },
                "nodeType": 0
            },
            "6": {
                "invocation": {
                    "address": "0xf5b0a3efb8e8e4c201e2a935f110eaaf3ffecb8d",
                    "callData": "0x000000000000000000000000000000000000000000000000000000000003e6cb",
                    "decodedMethod": {
                        "callParams": [
                            {
                                "name": "_tokenId",
                                "type": "uint256",
                                "value": "255,691"
                            }
                        ],
                        "constructorArguments": "",
                        "name": "ownerOf",
                        "returnParams": [
                            {
                                "name": "",
                                "type": "address",
                                "value": "0x002abb6b6b482e6256bc8c90a5c686715e80dffc"
                            }
                        ],
                        "signature": "ownerOf(uint256)"
                    },
                    "errorInfo": "",
                    "fromAddress": "0x01aac5236ad205ebbe4f6819bc64ef5bef40b71c",
                    "gasUsed": 2807,
                    "id": 6,
                    "methodDecoded": true,
                    "operation": "CALL",
                    "output": "0x000000000000000000000000002abb6b6b482e6256bc8c90a5c686715e80dffc",
                    "revert": false,
                    "revertMessage": "",
                    "selector": "0x6352211e",
                    "status": true,
                    "value": "0"
                },
                "nodeType": 0
            },
            "7": {
                "invocation": {
                    "address": "0xf5b0a3efb8e8e4c201e2a935f110eaaf3ffecb8d",
                    "callData": "0x000000000000000000000000000000000000000000000000000000000003aaac",
                    "decodedMethod": {
                        "callParams": [
                            {
                                "name": "_tokenId",
                                "type": "uint256",
                                "value": "240,300"
                            }
                        ],
                        "constructorArguments": "",
                        "name": "ownerOf",
                        "returnParams": [
                            {
                                "name": "",
                                "type": "address",
                                "value": "0x002abb6b6b482e6256bc8c90a5c686715e80dffc"
                            }
                        ],
                        "signature": "ownerOf(uint256)"
                    },
                    "errorInfo": "",
                    "fromAddress": "0x01aac5236ad205ebbe4f6819bc64ef5bef40b71c",
                    "gasUsed": 2807,
                    "id": 7,
                    "methodDecoded": true,
                    "operation": "CALL",
                    "output": "0x000000000000000000000000002abb6b6b482e6256bc8c90a5c686715e80dffc",
                    "revert": false,
                    "revertMessage": "",
                    "selector": "0x6352211e",
                    "status": true,
                    "value": "0"
                },
                "nodeType": 0
            },
            "8": {
                "invocation": {
                    "address": "0xf5b0a3efb8e8e4c201e2a935f110eaaf3ffecb8d",
                    "callData": "0x000000000000000000000000000000000000000000000000000000000003e6cb",
                    "decodedMethod": {
                        "callParams": [
                            {
                                "name": "_axieId",
                                "type": "uint256",
                                "value": "255,691"
                            }
                        ],
                        "constructorArguments": "",
                        "name": "getAxie",
                        "returnParams": [
                            {
                                "name": "",
                                "type": "uint256",
                                "value": "24,424,893,824,877,199,817,442,013,233,845,841,222,926,492,274,332,450,116,262,532,762,026,203,482,438"
                            },
                            {
                                "name": "",
                                "type": "uint256",
                                "value": "1,616,388,920"
                            }
                        ],
                        "signature": "getAxie(uint256)"
                    },
                    "errorInfo": "",
                    "fromAddress": "0x01aac5236ad205ebbe4f6819bc64ef5bef40b71c",
                    "gasUsed": 4683,
                    "id": 8,
                    "methodDecoded": true,
                    "operation": "CALL",
                    "output": "0x360000000d1c93301441080a1085294a14651902044110c6146221460c8509460000000000000000000000000000000000000000000000000000000060582338",
                    "revert": false,
                    "revertMessage": "",
                    "selector": "0xa6472906",
                    "status": true,
                    "value": "0"
                },
                "nodeType": 0
            },
            "9": {
                "invocation": {
                    "address": "0xf5b0a3efb8e8e4c201e2a935f110eaaf3ffecb8d",
                    "callData": "0x000000000000000000000000000000000000000000000000000000000003aaac",
                    "decodedMethod": {
                        "callParams": [
                            {
                                "name": "_axieId",
                                "type": "uint256",
                                "value": "240,300"
                            }
                        ],
                        "constructorArguments": "",
                        "name": "getAxie",
                        "returnParams": [
                            {
                                "name": "",
                                "type": "uint256",
                                "value": "23,067,955,279,132,851,197,656,082,597,210,772,417,493,008,556,429,781,602,950,339,668,138,858,324,162"
                            },
                            {
                                "name": "",
                                "type": "uint256",
                                "value": "1,609,064,203"
                            }
                        ],
                        "signature": "getAxie(uint256)"
                    },
                    "errorInfo": "",
                    "fromAddress": "0x01aac5236ad205ebbe4f6819bc64ef5bef40b71c",
                    "gasUsed": 4683,
                    "id": 9,
                    "methodDecoded": true,
                    "operation": "CALL",
                    "output": "0x330000000d29d3120c2308c20c212102006318ca044308c60c4010c40c8320c2000000000000000000000000000000000000000000000000000000005fe85f0b",
                    "revert": false,
                    "revertMessage": "",
                    "selector": "0xa6472906",
                    "status": true,
                    "value": "0"
                },
                "nodeType": 0
            }
        },
        "gasFlame": [
            {
                "children": [
                    {
                        "children": [
                            {
                                "children": [],
                                "depth": 0,
                                "name": "Initial Gas",
                                "value": 22332
                            },
                            {
                                "children": [
                                    {
                                        "children": [
                                            {
                                                "children": [
                                                    {
                                                        "children": [],
                                                        "depth": 3,
                                                        "name": "getAxie",
                                                        "value": 4683
                                                    },
                                                    {
                                                        "children": [],
                                                        "depth": 3,
                                                        "name": "getAxie",
                                                        "value": 4683
                                                    }
                                                ],
                                                "depth": 2,
                                                "name": "0x6ae17ab7",
                                                "value": 14562
                                            },
                                            {
                                                "children": [],
                                                "depth": 2,
                                                "name": "ownerOf",
                                                "value": 2807
                                            },
                                            {
                                                "children": [],
                                                "depth": 2,
                                                "name": "ownerOf",
                                                "value": 2807
                                            },
                                            {
                                                "children": [],
                                                "depth": 2,
                                                "name": "getAxie",
                                                "value": 4683
                                            },
                                            {
                                                "children": [],
                                                "depth": 2,
                                                "name": "getAxie",
                                                "value": 4683
                                            },
                                            {
                                                "children": [],
                                                "depth": 2,
                                                "name": "0x7d831dd4",
                                                "value": 12319
                                            },
                                            {
                                                "children": [],
                                                "depth": 2,
                                                "name": "getExtra",
                                                "value": 4026
                                            },
                                            {
                                                "children": [
                                                    {
                                                        "children": [
                                                            {
                                                                "children": [],
                                                                "depth": 4,
                                                                "name": "paused",
                                                                "value": 1419
                                                            }
                                                        ],
                                                        "depth": 3,
                                                        "name": "0x771c0ad9",
                                                        "value": 4333
                                                    }
                                                ],
                                                "depth": 2,
                                                "name": "0xcace40be",
                                                "value": 14619
                                            },
                                            {
                                                "children": [],
                                                "depth": 2,
                                                "name": "getExtra",
                                                "value": 4026
                                            },
                                            {
                                                "children": [
                                                    {
                                                        "children": [
                                                            {
                                                                "children": [],
                                                                "depth": 4,
                                                                "name": "paused",
                                                                "value": 1419
                                                            }
                                                        ],
                                                        "depth": 3,
                                                        "name": "0x771c0ad9",
                                                        "value": 4333
                                                    }
                                                ],
                                                "depth": 2,
                                                "name": "0xcace40be",
                                                "value": 14619
                                            },
                                            {
                                                "children": [],
                                                "depth": 2,
                                                "name": "burnFrom",
                                                "value": 23261
                                            },
                                            {
                                                "children": [],
                                                "depth": 2,
                                                "name": "ownerOf",
                                                "value": 2807
                                            },
                                            {
                                                "children": [
                                                    {
                                                        "children": [
                                                            {
                                                                "children": [],
                                                                "depth": 4,
                                                                "name": "paused",
                                                                "value": 1419
                                                            }
                                                        ],
                                                        "depth": 3,
                                                        "name": "0xcbe44458",
                                                        "value": 4488
                                                    },
                                                    {
                                                        "children": [
                                                            {
                                                                "children": [
                                                                    {
                                                                        "children": [],
                                                                        "depth": 5,
                                                                        "name": "paused",
                                                                        "value": 1628
                                                                    }
                                                                ],
                                                                "depth": 4,
                                                                "name": "isSpawningAllowed",
                                                                "value": 4499
                                                            }
                                                        ],
                                                        "depth": 3,
                                                        "name": "spawnAxie",
                                                        "value": 157690
                                                    }
                                                ],
                                                "depth": 2,
                                                "name": "0x88de9aab",
                                                "value": 209859
                                            }
                                        ],
                                        "depth": 1,
                                        "name": "receiveApproval",
                                        "value": 402925
                                    }
                                ],
                                "depth": 0,
                                "name": "Executed Gas",
                                "value": 420526
                            }
                        ],
                        "depth": -1,
                        "name": "Actual Gas Used",
                        "value": 442858
                    },
                    {
                        "children": [],
                        "depth": -1,
                        "name": "Refunded Gas",
                        "value": 0
                    }
                ],
                "depth": -2,
                "name": "Total Gas",
                "value": 442858
            }
        ],
        "isConfirmed": true,
        "mainTrace": [
            {
                "children": [
                    {
                        "children": [
                            {
                                "children": [],
                                "depth": 1,
                                "id": 1,
                                "order": 1
                            },
                            {
                                "children": [
                                    {
                                        "children": [
                                            {
                                                "children": [],
                                                "depth": 3,
                                                "id": 4,
                                                "order": 4
                                            },
                                            {
                                                "children": [],
                                                "depth": 3,
                                                "id": 5,
                                                "order": 5
                                            }
                                        ],
                                        "depth": 2,
                                        "id": 3,
                                        "order": 3
                                    },
                                    {
                                        "children": [],
                                        "depth": 2,
                                        "id": 6,
                                        "order": 6
                                    },
                                    {
                                        "children": [],
                                        "depth": 2,
                                        "id": 7,
                                        "order": 7
                                    },
                                    {
                                        "children": [],
                                        "depth": 2,
                                        "id": 8,
                                        "order": 8
                                    },
                                    {
                                        "children": [],
                                        "depth": 2,
                                        "id": 9,
                                        "order": 9
                                    },
                                    {
                                        "children": [],
                                        "depth": 2,
                                        "id": 10,
                                        "order": 10
                                    },
                                    {
                                        "children": [],
                                        "depth": 2,
                                        "id": 11,
                                        "order": 11
                                    },
                                    {
                                        "children": [
                                            {
                                                "children": [
                                                    {
                                                        "children": [],
                                                        "depth": 4,
                                                        "id": 14,
                                                        "order": 14
                                                    }
                                                ],
                                                "depth": 3,
                                                "id": 13,
                                                "order": 13
                                            }
                                        ],
                                        "depth": 2,
                                        "id": 12,
                                        "order": 12
                                    },
                                    {
                                        "children": [],
                                        "depth": 2,
                                        "id": 15,
                                        "order": 15
                                    },
                                    {
                                        "children": [
                                            {
                                                "children": [
                                                    {
                                                        "children": [],
                                                        "depth": 4,
                                                        "id": 18,
                                                        "order": 18
                                                    }
                                                ],
                                                "depth": 3,
                                                "id": 17,
                                                "order": 17
                                            }
                                        ],
                                        "depth": 2,
                                        "id": 16,
                                        "order": 16
                                    },
                                    {
                                        "children": [
                                            {
                                                "children": [],
                                                "depth": 3,
                                                "id": 20,
                                                "order": 20
                                            }
                                        ],
                                        "depth": 2,
                                        "id": 19,
                                        "order": 19
                                    },
                                    {
                                        "children": [],
                                        "depth": 2,
                                        "id": 21,
                                        "order": 21
                                    },
                                    {
                                        "children": [
                                            {
                                                "children": [
                                                    {
                                                        "children": [],
                                                        "depth": 4,
                                                        "id": 24,
                                                        "order": 24
                                                    }
                                                ],
                                                "depth": 3,
                                                "id": 23,
                                                "order": 23
                                            },
                                            {
                                                "children": [
                                                    {
                                                        "children": [
                                                            {
                                                                "children": [],
                                                                "depth": 5,
                                                                "id": 27,
                                                                "order": 27
                                                            }
                                                        ],
                                                        "depth": 4,
                                                        "id": 26,
                                                        "order": 26
                                                    },
                                                    {
                                                        "children": [],
                                                        "depth": 4,
                                                        "id": 28,
                                                        "order": 28
                                                    },
                                                    {
                                                        "children": [],
                                                        "depth": 4,
                                                        "id": 29,
                                                        "order": 29
                                                    }
                                                ],
                                                "depth": 3,
                                                "id": 25,
                                                "order": 25
                                            }
                                        ],
                                        "depth": 2,
                                        "id": 22,
                                        "order": 22
                                    }
                                ],
                                "depth": 1,
                                "id": 2,
                                "order": 2
                            }
                        ],
                        "depth": 0,
                        "id": 0,
                        "order": 0
                    }
                ],
                "depth": -1,
                "id": -1,
                "order": -1
            }
        ],
        "mainTraceNodeCount": 30,
        "parentIdMap": {
            "0": -1,
            "1": 0,
            "10": 2,
            "11": 2,
            "12": 2,
            "13": 12,
            "14": 13,
            "15": 2,
            "16": 2,
            "17": 16,
            "18": 17,
            "19": 2,
            "2": 0,
            "20": 19,
            "21": 2,
            "22": 2,
            "23": 22,
            "24": 23,
            "25": 22,
            "26": 25,
            "27": 26,
            "28": 25,
            "29": 25,
            "3": 2,
            "4": 3,
            "5": 3,
            "6": 2,
            "7": 2,
            "8": 2,
            "9": 2
        },
        "tidyTrace": [
            {
                "children": [
                    {
                        "children": [
                            {
                                "children": [],
                                "depth": 1,
                                "id": 1,
                                "order": 1
                            },
                            {
                                "children": [
                                    {
                                        "children": [
                                            {
                                                "children": [],
                                                "depth": 3,
                                                "id": 4,
                                                "order": 4
                                            },
                                            {
                                                "children": [],
                                                "depth": 3,
                                                "id": 5,
                                                "order": 5
                                            }
                                        ],
                                        "depth": 2,
                                        "id": 3,
                                        "order": 3
                                    },
                                    {
                                        "children": [],
                                        "depth": 2,
                                        "id": 6,
                                        "order": 6
                                    },
                                    {
                                        "children": [],
                                        "depth": 2,
                                        "id": 7,
                                        "order": 7
                                    },
                                    {
                                        "children": [],
                                        "depth": 2,
                                        "id": 8,
                                        "order": 8
                                    },
                                    {
                                        "children": [],
                                        "depth": 2,
                                        "id": 9,
                                        "order": 9
                                    },
                                    {
                                        "children": [],
                                        "depth": 2,
                                        "id": 10,
                                        "order": 10
                                    },
                                    {
                                        "children": [],
                                        "depth": 2,
                                        "id": 11,
                                        "order": 11
                                    },
                                    {
                                        "children": [
                                            {
                                                "children": [
                                                    {
                                                        "children": [],
                                                        "depth": 4,
                                                        "id": 14,
                                                        "order": 14
                                                    }
                                                ],
                                                "depth": 3,
                                                "id": 13,
                                                "order": 13
                                            }
                                        ],
                                        "depth": 2,
                                        "id": 12,
                                        "order": 12
                                    },
                                    {
                                        "children": [],
                                        "depth": 2,
                                        "id": 15,
                                        "order": 15
                                    },
                                    {
                                        "children": [
                                            {
                                                "children": [
                                                    {
                                                        "children": [],
                                                        "depth": 4,
                                                        "id": 18,
                                                        "order": 18
                                                    }
                                                ],
                                                "depth": 3,
                                                "id": 17,
                                                "order": 17
                                            }
                                        ],
                                        "depth": 2,
                                        "id": 16,
                                        "order": 16
                                    },
                                    {
                                        "children": [
                                            {
                                                "children": [],
                                                "depth": 3,
                                                "id": 20,
                                                "order": 20
                                            }
                                        ],
                                        "depth": 2,
                                        "id": 19,
                                        "order": 19
                                    },
                                    {
                                        "children": [],
                                        "depth": 2,
                                        "id": 21,
                                        "order": 21
                                    },
                                    {
                                        "children": [
                                            {
                                                "children": [
                                                    {
                                                        "children": [],
                                                        "depth": 4,
                                                        "id": 24,
                                                        "order": 24
                                                    }
                                                ],
                                                "depth": 3,
                                                "id": 23,
                                                "order": 23
                                            },
                                            {
                                                "children": [
                                                    {
                                                        "children": [
                                                            {
                                                                "children": [],
                                                                "depth": 5,
                                                                "id": 27,
                                                                "order": 27
                                                            }
                                                        ],
                                                        "depth": 4,
                                                        "id": 26,
                                                        "order": 26
                                                    },
                                                    {
                                                        "children": [],
                                                        "depth": 4,
                                                        "id": 28,
                                                        "order": 28
                                                    },
                                                    {
                                                        "children": [],
                                                        "depth": 4,
                                                        "id": 29,
                                                        "order": 29
                                                    }
                                                ],
                                                "depth": 3,
                                                "id": 25,
                                                "order": 25
                                            }
                                        ],
                                        "depth": 2,
                                        "id": 22,
                                        "order": 22
                                    }
                                ],
                                "depth": 1,
                                "id": 2,
                                "order": 2
                            }
                        ],
                        "depth": 0,
                        "id": 0,
                        "order": 0
                    }
                ],
                "depth": -1,
                "id": -1,
                "order": -1
            }
        ],
        "tidyTraceNodeCount": 30
    },
    "state_change": {
        "stateChanges": [
            {
                "address": "0x01aac5236ad205ebbe4f6819bc64ef5bef40b71c",
                "erc": "",
                "slots": [
                    {
                        "current": "0x360000000d1c93301441080a1085294a14651902044110c6146221460c850946",
                        "key": "0x56460f90795420abfcfea10c3981695851ef2923b19eec95f6731193ec3fa16c",
                        "prev": "0x0000000000000000000000000000000000000000000000000000000000000000"
                    },
                    {
                        "current": "0x330000000d29d3120c2308c20c212102006318ca044308c60c4010c40c8320c2",
                        "key": "0x56460f90795420abfcfea10c3981695851ef2923b19eec95f6731193ec3fa16d",
                        "prev": "0x0000000000000000000000000000000000000000000000000000000000000000"
                    }
                ],
                "storageVariables": []
            },
            {
                "address": "0x10e304a53351b272dc415ad049ad06565ebdfe34",
                "erc": "",
                "slots": [
                    {
                        "current": "0x000000000000000000000000000000000000000000000000000000000003aaac",
                        "key": "0x6c5f0e5cc0dfec727432051297bd1a58b9c020edf5670929cbea7a5d9747e039",
                        "prev": "0x0000000000000000000000000000000000000000000000000000000000000000"
                    },
                    {
                        "current": "0x0000000000000000000000000000000000000000000000000000000000000002",
                        "key": "0x9f367e752ba3f69269c3e6f2c2cc894cf4a866a8e99f5630cfa52d9b9fc8ccd8",
                        "prev": "0x0000000000000000000000000000000000000000000000000000000000000001"
                    },
                    {
                        "current": "0x0000000000000000000000000000000000000000000000000000000000000004",
                        "key": "0x95bef06313eafe7e96b3631d42027e6480299351c89f5a472c9dddc00dd96d38",
                        "prev": "0x0000000000000000000000000000000000000000000000000000000000000003"
                    },
                    {
                        "current": "0x000000000000000000000000000000000000000000000000000000000003e6cb",
                        "key": "0x6c5f0e5cc0dfec727432051297bd1a58b9c020edf5670929cbea7a5d9747e038",
                        "prev": "0x0000000000000000000000000000000000000000000000000000000000000000"
                    }
                ],
                "storageVariables": []
            },
            {
                "address": "0x37236cd05b34cc79d3715af2383e96dd7443dcf1",
                "erc": "",
                "slots": [
                    {
                        "current": "0x000000000000000000000000000000000000000000000000000000003b9ac744",
                        "key": "0x007277df1f86142e7c7ac1faff4f6764dc1201324b1980fd87ab80f0accdb3f3",
                        "prev": "0x000000000000000000000000000000000000000000000000000000003b9ac870"
                    },
                    {
                        "current": "0xfffffffffffffffffffffffffffffffffffffffffffffffffffffffffc054d47",
                        "key": "0x0000000000000000000000000000000000000000000000000000000000000009",
                        "prev": "0xfffffffffffffffffffffffffffffffffffffffffffffffffffffffffc055003"
                    },
                    {
                        "current": "0x00000000000000000000000000000000000000000000000000000000141d0b61",
                        "key": "0x0000000000000000000000000000000000000000000000000000000000000003",
                        "prev": "0x00000000000000000000000000000000000000000000000000000000141d0e1d"
                    },
                    {
                        "current": "0x0000000000000000000000000000000000000000000000000000000000000575",
                        "key": "0xb4d78564a9586c61e9028ff206c54ef45565986cfe9f954bc8b9d5f0f92504d6",
                        "prev": "0x0000000000000000000000000000000000000000000000000000000000000831"
                    }
                ],
                "storageVariables": []
            },
            {
                "address": "0xf5b0a3efb8e8e4c201e2a935f110eaaf3ffecb8d",
                "erc": "ERC-721",
                "slots": [
                    {
                        "current": "0x0000000000000000000000000000000000000000000000000000000000041c11",
                        "key": "0x000000000000000000000000000000000000000000000000000000000000000d",
                        "prev": "0x0000000000000000000000000000000000000000000000000000000000041c10"
                    },
                    {
                        "current": "0x0000000000000000000000000000000000000000000000000000000000041c11",
                        "key": "0x5b8c83566aa0bbd9915792d2dc0d67e13e7a33f43d41ea5f363cae1a49feb446",
                        "prev": "0x0000000000000000000000000000000000000000000000000000000000000000"
                    },
                    {
                        "current": "0x0000000000000000000000000000000000000000000000000000000000000008",
                        "key": "0x6283152496b247e94f1c82f41f1b175947f469ffd937bac3376b49fa829e2a2e",
                        "prev": "0x0000000000000000000000000000000000000000000000000000000000000007"
                    },
                    {
                        "current": "0x0000000000000000000000000000000000000000000000000000000000041c10",
                        "key": "0xc4d86126888011f448d2cf1af83eb09074521ddb365bbdbf6dad8d3fcade6e4a",
                        "prev": "0x0000000000000000000000000000000000000000000000000000000000000000"
                    },
                    {
                        "current": "0x0000000000000000000000000000000000000000000000000000000000041c12",
                        "key": "0x0000000000000000000000000000000000000000000000000000000000000017",
                        "prev": "0x0000000000000000000000000000000000000000000000000000000000041c11"
                    },
                    {
                        "current": "0x0000000000000000000000000000000000000000000000000000000000000007",
                        "key": "0xafc089b2d94466b853a598fb14f1a693da87dcb1ac388fd2d20ba14046d2e357",
                        "prev": "0x0000000000000000000000000000000000000000000000000000000000000000"
                    },
                    {
                        "current": "0x0000000000000000000000000000000000000000000000000000000000041c11",
                        "key": "0xe65ef42b6179c910a7ebb0fe3b90de041d41eaaf24a305fa39212c5a1273ca40",
                        "prev": "0x0000000000000000000000000000000000000000000000000000000000000000"
                    },
                    {
                        "current": "0x00000000000000000000000000000000000000000000000000000000606ef46c",
                        "key": "0xc624b66cc0138b8fabc209247f72d758e1cf3343756d543badbf24212bf5c438",
                        "prev": "0x0000000000000000000000000000000000000000000000000000000000000000"
                    },
                    {
                        "current": "0x000000000000000000000000002abb6b6b482e6256bc8c90a5c686715e80dffc",
                        "key": "0x5364580b68c719fe2395805f98cc1e96676964bd0871556961c840a820bb0823",
                        "prev": "0x0000000000000000000000000000000000000000000000000000000000000000"
                    }
                ],
                "storageVariables": [
                    {
                        "name": "_overallTokenId",
                        "type": "mapping(uint256 => uint256)",
                        "value": {
                            "pairs": [
                                {
                                    "key": "269328",
                                    "value": {
                                        "current": "269329",
                                        "prev": "0",
                                        "typeTag": 1
                                    }
                                }
                            ],
                            "typeTag": 4
                        }
                    },
                    {
                        "name": "_ownedTokenIndex",
                        "type": "mapping(uint256 => uint256)",
                        "value": {
                            "pairs": [
                                {
                                    "key": "269329",
                                    "value": {
                                        "current": "7",
                                        "prev": "0",
                                        "typeTag": 1
                                    }
                                }
                            ],
                            "typeTag": 4
                        }
                    },
                    {
                        "name": "_tokenOwner",
                        "type": "mapping(uint256 => address)",
                        "value": {
                            "pairs": [
                                {
                                    "key": "269329",
                                    "value": {
                                        "current": "0x002abb6b6b482e6256bc8c90a5c686715e80dffc",
                                        "prev": "0x0000000000000000000000000000000000000000",
                                        "typeTag": 1
                                    }
                                }
                            ],
                            "typeTag": 4
                        }
                    },
                    {
                        "name": "_ownedTokens",
                        "type": "mapping(address => uint256[])",
                        "value": {
                            "pairs": [
                                {
                                    "key": "0x002abb6b6b482e6256bc8c90a5c686715e80dffc",
                                    "value": {
                                        "elemType": "uint256",
                                        "elems": [
                                            {
                                                "index": 7,
                                                "value": {
                                                    "current": "269329",
                                                    "prev": "0",
                                                    "typeTag": 1
                                                }
                                            }
                                        ],
                                        "typeTag": 2
                                    }
                                }
                            ],
                            "typeTag": 4
                        }
                    },
                    {
                        "name": "_overallTokenIndex",
                        "type": "mapping(uint256 => uint256)",
                        "value": {
                            "pairs": [
                                {
                                    "key": "269329",
                                    "value": {
                                        "current": "269328",
                                        "prev": "0",
                                        "typeTag": 1
                                    }
                                }
                            ],
                            "typeTag": 4
                        }
                    },
                    {
                        "name": "axies",
                        "type": "struct AxieCore.Axie[]",
                        "value": {
                            "elemType": "struct AxieCore.Axie",
                            "elems": [
                                {
                                    "index": 269329,
                                    "value": {
                                        "fields": [
                                            {
                                                "name": "bornAt",
                                                "type": "uint256",
                                                "value": {
                                                    "current": "1617884268",
                                                    "prev": "0",
                                                    "typeTag": 1
                                                }
                                            }
                                        ],
                                        "typeTag": 3
                                    }
                                }
                            ],
                            "typeTag": 2
                        }
                    },
                    {
                        "name": "_totalTokens",
                        "type": "uint256",
                        "value": {
                            "current": "269329",
                            "prev": "269328",
                            "typeTag": 1
                        }
                    }
                ]
            }
        ]
    }
}