{
    "balance_change": {
        "balanceChanges": [
            {
                "account": "0x96905eab126db2c5bbd60bb4fb7d20945840bc91",
                "assets": [
                    {
                        "address": "0x174bfa6600bf90c885c7c01c7031389ed1461ab9",
                        "amount": "3.3619223",
                        "iconUrl": "",
                        "isERC1155": false,
                        "isERC721": false,
                        "sign": false,
                        "value": ""
                    }
                ]
            },
            {
                "account": "0xa532b0ab36272254dbe8713b9b1374f3d2f05261",
                "assets": [
                    {
                        "address": "0x174bfa6600bf90c885c7c01c7031389ed1461ab9",
                        "amount": "3.3619223",
                        "iconUrl": "",
                        "isERC1155": false,
                        "isERC721": false,
                        "sign": true,
                        "value": ""
                    }
                ]
            }
        ]
    },
    "profile": {
        "basic_info": {
            "baseFee": "",
            "blockNumber": 8164934,
            "callData": "0xa9059cbb000000000000000000000000a532b0ab36272254dbe8713b9b1374f3d2f052610000000000000000000000000000000000000000000000002ea7f28505f6d800",
            "debugEnable": true,
            "errorInfo": "",
            "eventCount": 1,
            "feeRecipient": "0x5a0b54d5dc17e0aadc383d2db43b0a0d3e029c4c",
            "formatValue": "0",
            "gasLimit": 116280,
            "gasPrice": "20",
            "gasUsed": 38123,
            "intTxnCount": 0,
            "internalRevert": false,
            "internalRevertMessage": "",
            "isContractCreation": false,
            "isFlashloan": false,
            "maxFee": "",
            "nonce": 4676,
            "overwritedBlockNumber": -1,
            "priorityFee": "",
            "receiver": "0x174bfa6600bf90c885c7c01c7031389ed1461ab9",
            "revertMessage": "",
            "sender": "0x96905eab126db2c5bbd60bb4fb7d20945840bc91",
            "simulationEnable": true,
            "sourceTxnHash": "0x84d4bb26ead1dd062651e1361cdbd0761a539077fe6b2b4ae77738876089c941",
            "status": true,
            "timestamp": "2019-07-16T23:54:41Z",
            "transactionFee": "0.00076246",
            "txnHash": "0x84d4bb26ead1dd062651e1361cdbd0761a539077fe6b2b4ae77738876089c941",
            "txnIndex": 81,
            "type": 0,
            "value": "0"
        },
        "fund_flow": [
            {
                "amount": "3.3619223",
                "from": "0x96905eab126db2c5bbd60bb4fb7d20945840bc91",
                "id": 1,
                "isERC1155": false,
                "isERC721": false,
                "isReverted": false,
                "order": 1,
                "to": "0xa532b0ab36272254dbe8713b9b1374f3d2f05261",
                "token": "0x174bfa6600bf90c885c7c01c7031389ed1461ab9"
            }
        ],
        "token_infos": [
            {
                "address": "0xeeeeeeeeeeeeeeeeeeeeeeeeeeeeeeeeeeeeeeee",
                "decimals": 18
            },
            {
                "address": "0x174bfa6600bf90c885c7c01c7031389ed1461ab9",
                "decimals": 18
            },
            {
                "address": "0xc02aaa39b223fe8d0a0e5c4f27ead9083c756cc2",
                "decimals": 18
            }
        ]
    },
    "address_label": {
        "labels": [
            {
                "address": "0x174bfa6600bf90c885c7c01c7031389ed1461ab9",
                "label": "More Gold: MGC Token"
            },
            {
                "address": "0x0000000000000000000000000000000000000001",
                "label": "Precompiled"
            },
            {
                "address": "0x0000000000000000000000000000000000000002",
                "label": "Precompiled"
            },
            {
                "address": "0x0000000000000000000000000000000000000003",
                "label": "Precompiled"
            },
            {
                "address": "0x0000000000000000000000000000000000000004",
                "label": "Precompiled"
            },
            {
                "address": "0xeeeeeeeeeeeeeeeeeeeeeeeeeeeeeeeeeeeeeeee",
                "label": "Ether"
            }
        ]
    },
    "trace": {
        "accountLabels": null,
        "dataMap": {
            "-1": {
                "invocation": {
                    "address": "0x96905eab126db2c5bbd60bb4fb7d20945840bc91",
                    "callData": "",
                    "decodedMethod": null,
                    "errorInfo": "",
                    "fromAddress": "",
                    "gasUsed": 0,
                    "id": -1,
                    "methodDecoded": false,
                    "operation": "",
                    "output": "",
                    "revert": false,
                    "revertMessage": "",
                    "selector": "",
                    "status": false,
                    "value": ""
                },
                "nodeType": 0
            },
            "0": {
                "invocation": {
                    "address": "0x174bfa6600bf90c885c7c01c7031389ed1461ab9",
                    "callData": "0x000000000000000000000000a532b0ab36272254dbe8713b9b1374f3d2f052610000000000000000000000000000000000000000000000002ea7f28505f6d800",
                    "decodedMethod": {
                        "callParams": [
                            {
                                "name": "_to",
                                "type": "address",
                                "value": "0xa532b0ab36272254dbe8713b9b1374f3d2f05261"
                            },
                            {
                                "decimalAvailable": true,
                                "name": "_value",
                                "type": "uint256",
                                "value": "3,361,922,300,000,000,000"
                            }
                        ],
                        "constructorArguments": "",
                        "name": "transfer",
                        "returnParams": [
                            {
                                "name": "success",
                                "type": "bool",
                                "value": true
                            }
                        ],
                        "signature": "transfer(address,uint256)"
                    },
                    "errorInfo": "",
                    "fromAddress": "0x96905eab126db2c5bbd60bb4fb7d20945840bc91",
                    "gasUsed": 38123,
                    "id": 0,
                    "methodDecoded": true,
                    "operation": "CALL",
                    "output": "0x0000000000000000000000000000000000000000000000000000000000000001",
                    "revert": false,
                    "revertMessage": "",
                    "selector": "0xa9059cbb",
                    "status": true,
                    "value": "0"
                },
                "nodeType": 0
            },
            "1": {
                "event": {
                    "contract": "0x174bfa6600bf90c885c7c01c7031389ed1461ab9",
                    "decodedLog": {
                        "name": "Transfer",
                        "params": [
                            {
                                "name": "from",
                                "type": "address",
                                "value": "0x96905eab126db2c5bbd60bb4fb7d20945840bc91"
                            },
                            {
                                "name": "to",
                                "type": "address",
                                "value": "0xa532b0ab36272254dbe8713b9b1374f3d2f05261"
                            },
                            {
                                "decimalAvailable": true,
                                "name": "value",
                                "type": "uint256",
                                "value": "3,361,922,300,000,000,000"
                            }
                        ],
                        "signature": "Transfer(address,address,uint256)"
                    },
                    "id": 1,
                    "logData": "0x0000000000000000000000000000000000000000000000002ea7f28505f6d800",
                    "logDecoded": true,
                    "operation": "EVENT",
                    "revert": false,
                    "status": true,
                    "topics": [
                        "0xddf252ad1be2c89b69c2b068fc378daa952ba7f163c4a11628f55a4df523b3ef",
                        "0x00000000000000000000000096905eab126db2c5bbd60bb4fb7d20945840bc91",
                        "0x000000000000000000000000a532b0ab36272254dbe8713b9b1374f3d2f05261"
                    ]
                },
                "nodeType": 1
            }
        },
        "gasFlame": [
            {
                "children": [
                    {
                        "children": [
                            {
                                "children": [],
                                "depth": 0,
                                "name": "Initial Gas",
                                "value": 23256
                            },
                            {
                                "children": [],
                                "depth": 0,
                                "name": "Executed Gas",
                                "value": 14867
                            }
                        ],
                        "depth": -1,
                        "name": "Actual Gas Used",
                        "value": 38123
                    },
                    {
                        "children": [],
                        "depth": -1,
                        "name": "Refunded Gas",
                        "value": 0
                    }
                ],
                "depth": -2,
                "name": "Total Gas",
                "value": 38123
            }
        ],
        "isConfirmed": true,
        "mainTrace": [
            {
                "children": [
                    {
                        "children": [
                            {
                                "children": [],
                                "depth": 1,
                                "id": 1,
                                "order": 1
                            }
                        ],
                        "depth": 0,
                        "id": 0,
                        "order": 0
                    }
                ],
                "depth": -1,
                "id": -1,
                "order": -1
            }
        ],
        "mainTraceNodeCount": 2,
        "parentIdMap": {
            "0": -1,
            "1": 0
        },
        "tidyTrace": [
            {
                "children": [
                    {
                        "children": [
                            {
                                "children": [],
                                "depth": 1,
                                "id": 1,
                                "order": 1
                            }
                        ],
                        "depth": 0,
                        "id": 0,
                        "order": 0
                    }
                ],
                "depth": -1,
                "id": -1,
                "order": -1
            }
        ],
        "tidyTraceNodeCount": 2
    },
    "state_change": {
        "stateChanges": [
            {
                "address": "0x174bfa6600bf90c885c7c01c7031389ed1461ab9",
                "erc": "ERC-20",
                "slots": [
                    {
                        "current": "0x0000000000000000000000000000000000000000000004feee00de24752ebc00",
                        "key": "0x6b869793c92d4ed35e21dc6ca9a691c3041efcf025175d2330f598f1394a63d5",
                        "prev": "0x0000000000000000000000000000000000000000000004ff1ca8d0a97b259400"
                    },
                    {
                        "current": "0x000000000000000000000000000000000000000000000007ea06d6d4c348c800",
                        "key": "0x0509e1c7a1b3360b05ae607178c0b7e688b419abc39e88093499530454b57801",
                        "prev": "0x000000000000000000000000000000000000000000000007bb5ee44fbd51f000"
                    }
                ],
                "storageVariables": [
                    {
                        "name": "balanceOf",
                        "type": "mapping(address => uint256)",
                        "value": {
                            "pairs": [
                                {
                                    "key": "0x96905eab126db2c5bbd60bb4fb7d20945840bc91",
                                    "value": {
                                        "current": "23592088877830000000000",
                                        "prev": "23595450800130000000000",
                                        "typeTag": 1
                                    }
                                },
                                {
                                    "key": "0xa532b0ab36272254dbe8713b9b1374f3d2f05261",
                                    "value": {
                                        "current": "145990610580000000000",
                                        "prev": "142628688280000000000",
                                        "typeTag": 1
                                    }
                                }
                            ],
                            "typeTag": 4
                        }
                    }
                ]
            }
        ]
    }
}