{
    "balance_change": {
        "balanceChanges": [
            {
                "account": "0xc9f5296eb3ac266c94568d790b6e91eba7d76a11",
                "assets": [
                    {
                        "address": "0x95ad61b0a150d79219dcf64e1e6cc01f0b64c4ce",
                        "amount": "4,075,648.06122301",
                        "iconUrl": "https://assets.blocksec.com/icon/56235cdcac277d59ed89deae8cb8e206f4c4384e75186903e74565b748deabf5.png",
                        "isERC1155": false,
                        "isERC721": false,
                        "sign": true,
                        "value": "107.1224154"
                    }
                ]
            },
            {
                "account": "0xc3d6110fc596956e6c79504391ae3fd8692b2fd3",
                "assets": [
                    {
                        "address": "0x95ad61b0a150d79219dcf64e1e6cc01f0b64c4ce",
                        "amount": "4,075,648.06122301",
                        "iconUrl": "https://assets.blocksec.com/icon/56235cdcac277d59ed89deae8cb8e206f4c4384e75186903e74565b748deabf5.png",
                        "isERC1155": false,
                        "isERC721": false,
                        "sign": false,
                        "value": "107.1224154"
                    }
                ]
            }
        ]
    },
    "profile": {
        "basic_info": {
            "baseFee": "150.967525116",
            "blockNumber": 13374623,
            "callData": "0x23b872dd000000000000000000000000c3d6110fc596956e6c79504391ae3fd8692b2fd3000000000000000000000000c9f5296eb3ac266c94568d790b6e91eba7d76a11000000000000000000000000000000000000000000035f0d52f9156f45215400",
            "debugEnable": true,
            "errorInfo": "",
            "eventCount": 2,
            "feeRecipient": "0x829bd824b016326a401d083b33d092293333a830",
            "formatValue": "0",
            "gasLimit": 250000,
            "gasPrice": "152.907851646",
            "gasUsed": 37699,
            "intTxnCount": 0,
            "internalRevert": false,
            "internalRevertMessage": "",
            "isContractCreation": false,
            "isFlashloan": false,
            "maxFee": "",
            "nonce": 203492,
            "overwritedBlockNumber": -1,
            "priorityFee": "",
            "receiver": "0x95ad61b0a150d79219dcf64e1e6cc01f0b64c4ce",
            "revertMessage": "",
            "sender": "0xc9f5296eb3ac266c94568d790b6e91eba7d76a11",
            "simulationEnable": true,
            "sourceTxnHash": "0x85d269dfab10e3bae829534d418caa6f8c0a5539abfa8cb1fba0c2275cf59522",
            "status": true,
            "timestamp": "2021-10-07T23:05:18Z",
            "transactionFee": "0.005764473099202554",
            "txnHash": "0x85d269dfab10e3bae829534d418caa6f8c0a5539abfa8cb1fba0c2275cf59522",
            "txnIndex": 57,
            "type": 0,
            "value": "0"
        },
        "fund_flow": [
            {
                "amount": "4,075,648.06122301",
                "from": "0xc3d6110fc596956e6c79504391ae3fd8692b2fd3",
                "id": 1,
                "isERC1155": false,
                "isERC721": false,
                "isReverted": false,
                "order": 1,
                "to": "0xc9f5296eb3ac266c94568d790b6e91eba7d76a11",
                "token": "0x95ad61b0a150d79219dcf64e1e6cc01f0b64c4ce"
            }
        ],
        "token_infos": [
            {
                "address": "0xeeeeeeeeeeeeeeeeeeeeeeeeeeeeeeeeeeeeeeee",
                "decimals": 18
            },
            {
                "address": "0x95ad61b0a150d79219dcf64e1e6cc01f0b64c4ce",
                "decimals": 18
            },
            {
                "address": "0xc02aaa39b223fe8d0a0e5c4f27ead9083c756cc2",
                "decimals": 18
            }
        ]
    },
    "address_label": {
        "labels": [
            {
                "address": "0xeeeeeeeeeeeeeeeeeeeeeeeeeeeeeeeeeeeeeeee",
                "label": "Ether"
            },
            {
                "address": "0x95ad61b0a150d79219dcf64e1e6cc01f0b64c4ce",
                "label": "Shiba Inu: SHIB Token"
            },
            {
                "address": "0xc9f5296eb3ac266c94568d790b6e91eba7d76a11",
                "label": "CEX.IO: hot wallet"
            },
            {
                "address": "0xc3d6110fc596956e6c79504391ae3fd8692b2fd3",
                "label": "CEX"
            },
            {
                "address": "0x0000000000000000000000000000000000000001",
                "label": "Precompiled"
            },
            {
                "address": "0x0000000000000000000000000000000000000002",
                "label": "Precompiled"
            },
            {
                "address": "0x0000000000000000000000000000000000000003",
                "label": "Precompiled"
            },
            {
                "address": "0x0000000000000000000000000000000000000004",
                "label": "Precompiled"
            }
        ]
    },
    "trace": {
        "accountLabels": null,
        "dataMap": {
            "-1": {
                "invocation": {
                    "address": "0xc9f5296eb3ac266c94568d790b6e91eba7d76a11",
                    "callData": "",
                    "decodedMethod": null,
                    "errorInfo": "",
                    "fromAddress": "",
                    "gasUsed": 0,
                    "id": -1,
                    "methodDecoded": false,
                    "operation": "",
                    "output": "",
                    "revert": false,
                    "revertMessage": "",
                    "selector": "",
                    "status": false,
                    "value": ""
                },
                "nodeType": 0
            },
            "0": {
                "invocation": {
                    "address": "0x95ad61b0a150d79219dcf64e1e6cc01f0b64c4ce",
                    "callData": "0x000000000000000000000000c3d6110fc596956e6c79504391ae3fd8692b2fd3000000000000000000000000c9f5296eb3ac266c94568d790b6e91eba7d76a11000000000000000000000000000000000000000000035f0d52f9156f45215400",
                    "decodedMethod": {
                        "callParams": [
                            {
                                "name": "sender",
                                "type": "address",
                                "value": "0xc3d6110fc596956e6c79504391ae3fd8692b2fd3"
                            },
                            {
                                "name": "recipient",
                                "type": "address",
                                "value": "0xc9f5296eb3ac266c94568d790b6e91eba7d76a11"
                            },
                            {
                                "decimalAvailable": true,
                                "name": "amount",
                                "type": "uint256",
                                "value": "4,075,648,061,223,010,000,000,000"
                            }
                        ],
                        "constructorArguments": "",
                        "name": "transferFrom",
                        "returnParams": [
                            {
                                "name": "",
                                "type": "bool",
                                "value": true
                            }
                        ],
                        "signature": "transferFrom(address,address,uint256)"
                    },
                    "errorInfo": "",
                    "fromAddress": "0xc9f5296eb3ac266c94568d790b6e91eba7d76a11",
                    "gasUsed": 37699,
                    "id": 0,
                    "methodDecoded": true,
                    "operation": "CALL",
                    "output": "0x0000000000000000000000000000000000000000000000000000000000000001",
                    "revert": false,
                    "revertMessage": "",
                    "selector": "0x23b872dd",
                    "status": true,
                    "value": "0"
                },
                "nodeType": 0
            },
            "1": {
                "event": {
                    "contract": "0x95ad61b0a150d79219dcf64e1e6cc01f0b64c4ce",
                    "decodedLog": {
                        "name": "Transfer",
                        "params": [
                            {
                                "name": "from",
                                "type": "address",
                                "value": "0xc3d6110fc596956e6c79504391ae3fd8692b2fd3"
                            },
                            {
                                "name": "to",
                                "type": "address",
                                "value": "0xc9f5296eb3ac266c94568d790b6e91eba7d76a11"
                            },
                            {
                                "decimalAvailable": true,
                                "name": "value",
                                "type": "uint256",
                                "value": "4,075,648,061,223,010,000,000,000"
                            }
                        ],
                        "signature": "Transfer(address,address,uint256)"
                    },
                    "id": 1,
                    "logData": "0x000000000000000000000000000000000000000000035f0d52f9156f45215400",
                    "logDecoded": true,
                    "operation": "EVENT",
                    "revert": false,
                    "status": true,
                    "topics": [
                        "0xddf252ad1be2c89b69c2b068fc378daa952ba7f163c4a11628f55a4df523b3ef",
                        "0x000000000000000000000000c3d6110fc596956e6c79504391ae3fd8692b2fd3",
                        "0x000000000000000000000000c9f5296eb3ac266c94568d790b6e91eba7d76a11"
                    ]
                },
                "nodeType": 1
            },
            "2": {
                "event": {
                    "contract": "0x95ad61b0a150d79219dcf64e1e6cc01f0b64c4ce",
                    "decodedLog": {
                        "name": "Approval",
                        "params": [
                            {
                                "name": "owner",
                                "type": "address",
                                "value": "0xc3d6110fc596956e6c79504391ae3fd8692b2fd3"
                            },
                            {
                                "name": "spender",
                                "type": "address",
                                "value": "0xc9f5296eb3ac266c94568d790b6e91eba7d76a11"
                            },
                            {
                                "decimalAvailable": true,
                                "name": "value",
                                "type": "uint256",
                                "value": "115,792,089,237,316,195,423,570,985,008,687,907,853,269,984,665,640,559,963,809,522,784,903,129,639,935"
                            }
                        ],
                        "signature": "Approval(address,address,uint256)"
                    },
                    "id": 2,
                    "logData": "0xfffffffffffffffffffffffffffffffffffffffffffca0f2ad06ea90badeabff",
                    "logDecoded": true,
                    "operation": "EVENT",
                    "revert": false,
                    "status": true,
                    "topics": [
                        "0x8c5be1e5ebec7d5bd14f71427d1e84f3dd0314c0f7b2291e5b200ac8c7c3b925",
                        "0x000000000000000000000000c3d6110fc596956e6c79504391ae3fd8692b2fd3",
                        "0x000000000000000000000000c9f5296eb3ac266c94568d790b6e91eba7d76a11"
                    ]
                },
                "nodeType": 1
            }
        },
        "gasFlame": [
            {
                "children": [
                    {
                        "children": [
                            {
                                "children": [],
                                "depth": 0,
                                "name": "Initial Gas",
                                "value": 22048
                            },
                            {
                                "children": [],
                                "depth": 0,
                                "name": "Executed Gas",
                                "value": 20451
                            }
                        ],
                        "depth": -1,
                        "name": "Actual Gas Used",
                        "value": 37699
                    },
                    {
                        "children": [],
                        "depth": -1,
                        "name": "Refunded Gas",
                        "value": 4800
                    }
                ],
                "depth": -2,
                "name": "Total Gas",
                "value": 42499
            }
        ],
        "isConfirmed": true,
        "mainTrace": [
            {
                "children": [
                    {
                        "children": [
                            {
                                "children": [],
                                "depth": 1,
                                "id": 1,
                                "order": 1
                            },
                            {
                                "children": [],
                                "depth": 1,
                                "id": 2,
                                "order": 2
                            }
                        ],
                        "depth": 0,
                        "id": 0,
                        "order": 0
                    }
                ],
                "depth": -1,
                "id": -1,
                "order": -1
            }
        ],
        "mainTraceNodeCount": 3,
        "parentIdMap": {
            "0": -1,
            "1": 0,
            "2": 0
        },
        "tidyTrace": [
            {
                "children": [
                    {
                        "children": [
                            {
                                "children": [],
                                "depth": 1,
                                "id": 1,
                                "order": 1
                            },
                            {
                                "children": [],
                                "depth": 1,
                                "id": 2,
                                "order": 2
                            }
                        ],
                        "depth": 0,
                        "id": 0,
                        "order": 0
                    }
                ],
                "depth": -1,
                "id": -1,
                "order": -1
            }
        ],
        "tidyTraceNodeCount": 3
    },
    "state_change": {
        "stateChanges": [
            {
                "address": "0x95ad61b0a150d79219dcf64e1e6cc01f0b64c4ce",
                "erc": "ERC-20",
                "slots": [
                    {
                        "current": "0x0000000000000000000000000000000000000000000000000000000000000000",
                        "key": "0xbe081ceb9aaad635918a959883c00e7f46e0281d4424657f09b13ed2290531eb",
                        "prev": "0x000000000000000000000000000000000000000000035f0d52f9156f45215400"
                    },
                    {
                        "current": "0x000000000000000000000000000000000000000102d852216571ec3a624235bf",
                        "key": "0xd2eb296bf49d1c5128d8284b79c7d42d34b5e94bb1746fccb0df5d69a19665ce",
                        "prev": "0x000000000000000000000000000000000000000102d4f3141278d6cb1d20e1bf"
                    },
                    {
                        "current": "0xfffffffffffffffffffffffffffffffffffffffffffca0f2ad06ea90badeabff",
                        "key": "0x702fc40f3bfb6fb5a22bce29532de45198cf2eb3f161bfb9e5fefdc3168e195f",
                        "prev": "0xffffffffffffffffffffffffffffffffffffffffffffffffffffffffffffffff"
                    }
                ],
                "storageVariables": [
                    {
                        "name": "_allowances",
                        "type": "mapping(address => mapping(address => uint256))",
                        "value": {
                            "pairs": [
                                {
                                    "key": "0xc3d6110fc596956e6c79504391ae3fd8692b2fd3",
                                    "value": {
                                        "pairs": [
                                            {
                                                "key": "0xc9f5296eb3ac266c94568d790b6e91eba7d76a11",
                                                "value": {
                                                    "current": "115792089237316195423570985008687907853269984665640559963809522784903129639935",
                                                    "prev": "115792089237316195423570985008687907853269984665640564039457584007913129639935",
                                                    "typeTag": 1
                                                }
                                            }
                                        ],
                                        "typeTag": 4
                                    }
                                }
                            ],
                            "typeTag": 4
                        }
                    },
                    {
                        "name": "_balances",
                        "type": "mapping(address => uint256)",
                        "value": {
                            "pairs": [
                                {
                                    "key": "0xc3d6110fc596956e6c79504391ae3fd8692b2fd3",
                                    "value": {
                                        "current": "0",
                                        "prev": "4075648061223010000000000",
                                        "typeTag": 1
                                    }
                                },
                                {
                                    "key": "0xc9f5296eb3ac266c94568d790b6e91eba7d76a11",
                                    "value": {
                                        "current": "80108648361047820781752563135",
                                        "prev": "80104572712986597771752563135",
                                        "typeTag": 1
                                    }
                                }
                            ],
                            "typeTag": 4
                        }
                    }
                ]
            }
        ]
    }
}