{
    "balance_change": {
        "balanceChanges": []
    },
    "profile": {
        "basic_info": {
            "baseFee": "",
            "blockNumber": 9925935,
            "callData": "0xef3dd5c8000000000000000000000000c7d620c3e6dc0d54e93abe17f39e955152680dcd",
            "debugEnable": true,
            "errorInfo": "",
            "eventCount": 1,
            "feeRecipient": "0x005e288d713a5fb3d7c9cf1b43810a98688c7223",
            "formatValue": "0",
            "gasLimit": 90909,
            "gasPrice": "5.500000233",
            "gasUsed": 60079,
            "intTxnCount": 4,
            "internalRevert": false,
            "internalRevertMessage": "",
            "isContractCreation": false,
            "isFlashloan": false,
            "maxFee": "",
            "nonce": 89,
            "overwritedBlockNumber": -1,
            "priorityFee": "",
            "receiver": "0xc92e74b131d7b1d46e60e07f3fae5d8877dd03f0",
            "revertMessage": "",
            "sender": "0xc7d620c3e6dc0d54e93abe17f39e955152680dcd",
            "simulationEnable": true,
            "sourceTxnHash": "0x85e3824316430ced8792cc1414c16428000304aeeb671570ac7af83f6715cda9",
            "status": true,
            "timestamp": "2020-04-23T02:02:12Z",
            "transactionFee": "0.000330434513998407",
            "txnHash": "0x85e3824316430ced8792cc1414c16428000304aeeb671570ac7af83f6715cda9",
            "txnIndex": 81,
            "type": 0,
            "value": "0"
        },
        "fund_flow": [],
        "token_infos": [
            {
                "address": "0xc02aaa39b223fe8d0a0e5c4f27ead9083c756cc2",
                "decimals": 18
            },
            {
                "address": "0xeeeeeeeeeeeeeeeeeeeeeeeeeeeeeeeeeeeeeeee",
                "decimals": 18
            }
        ]
    },
    "address_label": {
        "labels": [
            {
                "address": "0x0000000000000000000000000000000000000002",
                "label": "Precompiled"
            },
            {
                "address": "0x0000000000000000000000000000000000000003",
                "label": "Precompiled"
            },
            {
                "address": "0x0000000000000000000000000000000000000004",
                "label": "Precompiled"
            },
            {
                "address": "0xeeeeeeeeeeeeeeeeeeeeeeeeeeeeeeeeeeeeeeee",
                "label": "Ether"
            },
            {
                "address": "0xc92e74b131d7b1d46e60e07f3fae5d8877dd03f0",
                "label": "Minereum: Old Token 2"
            },
            {
                "address": "0xa6be27538a28114fe03eb7ade9adfe53164f2a4c",
                "label": "GenesisAddresses"
            },
            {
                "address": "0x90e340e2d11e6eb1d99e34d122d6fe0fef3213fd",
                "label": "publicCalls"
            },
            {
                "address": "0x0000000000000000000000000000000000000001",
                "label": "Precompiled"
            }
        ]
    },
    "trace": {
        "accountLabels": null,
        "dataMap": {
            "-1": {
                "invocation": {
                    "address": "0xc7d620c3e6dc0d54e93abe17f39e955152680dcd",
                    "callData": "",
                    "decodedMethod": null,
                    "errorInfo": "",
                    "fromAddress": "",
                    "gasUsed": 0,
                    "id": -1,
                    "methodDecoded": false,
                    "operation": "",
                    "output": "",
                    "revert": false,
                    "revertMessage": "",
                    "selector": "",
                    "status": false,
                    "value": ""
                },
                "nodeType": 0
            },
            "0": {
                "invocation": {
                    "address": "0xc92e74b131d7b1d46e60e07f3fae5d8877dd03f0",
                    "callData": "0x000000000000000000000000c7d620c3e6dc0d54e93abe17f39e955152680dcd",
                    "decodedMethod": {
                        "callParams": [
                            {
                                "name": "_address",
                                "type": "address",
                                "value": "0xc7d620c3e6dc0d54e93abe17f39e955152680dcd"
                            }
                        ],
                        "constructorArguments": "",
                        "name": "AllowAddressToDestroyGenesis",
                        "returnParams": [],
                        "signature": "AllowAddressToDestroyGenesis(address)"
                    },
                    "errorInfo": "",
                    "fromAddress": "0xc7d620c3e6dc0d54e93abe17f39e955152680dcd",
                    "gasUsed": 60079,
                    "id": 0,
                    "methodDecoded": true,
                    "operation": "CALL",
                    "output": "",
                    "revert": false,
                    "revertMessage": "",
                    "selector": "0xef3dd5c8",
                    "status": true,
                    "value": "0"
                },
                "nodeType": 0
            },
            "1": {
                "invocation": {
                    "address": "0xa6be27538a28114fe03eb7ade9adfe53164f2a4c",
                    "callData": "0x000000000000000000000000c7d620c3e6dc0d54e93abe17f39e955152680dcd000000000000000000000000c7d620c3e6dc0d54e93abe17f39e955152680dcd",
                    "decodedMethod": {
                        "callParams": [
                            {
                                "name": "_from",
                                "type": "address",
                                "value": "0xc7d620c3e6dc0d54e93abe17f39e955152680dcd"
                            },
                            {
                                "name": "_address",
                                "type": "address",
                                "value": "0xc7d620c3e6dc0d54e93abe17f39e955152680dcd"
                            }
                        ],
                        "constructorArguments": "",
                        "name": "AllowAddressToDestroyGenesis",
                        "returnParams": [],
                        "signature": "AllowAddressToDestroyGenesis(address,address)"
                    },
                    "errorInfo": "",
                    "fromAddress": "0xc92e74b131d7b1d46e60e07f3fae5d8877dd03f0",
                    "gasUsed": 35900,
                    "id": 1,
                    "methodDecoded": true,
                    "operation": "CALL",
                    "output": "",
                    "revert": false,
                    "revertMessage": "",
                    "selector": "0xd42e1c2f",
                    "status": true,
                    "value": "0"
                },
                "nodeType": 0
            },
            "2": {
                "invocation": {
                    "address": "0x90e340e2d11e6eb1d99e34d122d6fe0fef3213fd",
                    "callData": "0x000000000000000000000000c7d620c3e6dc0d54e93abe17f39e955152680dcd",
                    "decodedMethod": {
                        "callParams": [
                            {
                                "name": "",
                                "type": "address",
                                "value": "0xc7d620c3e6dc0d54e93abe17f39e955152680dcd"
                            }
                        ],
                        "constructorArguments": "",
                        "name": "isGenesisAddress",
                        "returnParams": [
                            {
                                "name": "",
                                "type": "uint8",
                                "value": "3"
                            }
                        ],
                        "signature": "isGenesisAddress(address)"
                    },
                    "errorInfo": "",
                    "fromAddress": "0xa6be27538a28114fe03eb7ade9adfe53164f2a4c",
                    "gasUsed": 1339,
                    "id": 2,
                    "methodDecoded": true,
                    "operation": "STATICCALL",
                    "output": "0x0000000000000000000000000000000000000000000000000000000000000003",
                    "revert": false,
                    "revertMessage": "",
                    "selector": "0x324884a9",
                    "status": true,
                    "value": "0"
                },
                "nodeType": 0
            },
            "3": {
                "invocation": {
                    "address": "0x90e340e2d11e6eb1d99e34d122d6fe0fef3213fd",
                    "callData": "0x000000000000000000000000c7d620c3e6dc0d54e93abe17f39e955152680dcd",
                    "decodedMethod": {
                        "callParams": [
                            {
                                "name": "",
                                "type": "address",
                                "value": "0xc7d620c3e6dc0d54e93abe17f39e955152680dcd"
                            }
                        ],
                        "constructorArguments": "",
                        "name": "isGenesisAddressForSale",
                        "returnParams": [
                            {
                                "name": "",
                                "type": "bool",
                                "value": false
                            }
                        ],
                        "signature": "isGenesisAddressForSale(address)"
                    },
                    "errorInfo": "",
                    "fromAddress": "0xa6be27538a28114fe03eb7ade9adfe53164f2a4c",
                    "gasUsed": 1269,
                    "id": 3,
                    "methodDecoded": true,
                    "operation": "STATICCALL",
                    "output": "0x0000000000000000000000000000000000000000000000000000000000000000",
                    "revert": false,
                    "revertMessage": "",
                    "selector": "0x782023d4",
                    "status": true,
                    "value": "0"
                },
                "nodeType": 0
            },
            "4": {
                "invocation": {
                    "address": "0x90e340e2d11e6eb1d99e34d122d6fe0fef3213fd",
                    "callData": "0x000000000000000000000000c7d620c3e6dc0d54e93abe17f39e955152680dcd000000000000000000000000c7d620c3e6dc0d54e93abe17f39e955152680dcd",
                    "decodedMethod": {
                        "callParams": [
                            {
                                "name": "_address",
                                "type": "address",
                                "value": "0xc7d620c3e6dc0d54e93abe17f39e955152680dcd"
                            },
                            {
                                "name": "_allowAddressToDestroyGenesis",
                                "type": "address",
                                "value": "0xc7d620c3e6dc0d54e93abe17f39e955152680dcd"
                            }
                        ],
                        "constructorArguments": "",
                        "name": "allowAddressToDestroyGenesisSet",
                        "returnParams": [],
                        "signature": "allowAddressToDestroyGenesisSet(address,address)"
                    },
                    "errorInfo": "",
                    "fromAddress": "0xa6be27538a28114fe03eb7ade9adfe53164f2a4c",
                    "gasUsed": 23077,
                    "id": 4,
                    "methodDecoded": true,
                    "operation": "CALL",
                    "output": "",
                    "revert": false,
                    "revertMessage": "",
                    "selector": "0x8eb84dd2",
                    "status": true,
                    "value": "0"
                },
                "nodeType": 0
            },
            "5": {
                "event": {
                    "contract": "0xa6be27538a28114fe03eb7ade9adfe53164f2a4c",
                    "decodedLog": {
                        "name": "AllowDestroyHistory",
                        "params": [
                            {
                                "name": "from",
                                "type": "address",
                                "value": "0xc7d620c3e6dc0d54e93abe17f39e955152680dcd"
                            },
                            {
                                "name": "to",
                                "type": "address",
                                "value": "0xc7d620c3e6dc0d54e93abe17f39e955152680dcd"
                            }
                        ],
                        "signature": "AllowDestroyHistory(address,address)"
                    },
                    "id": 5,
                    "logData": "0x",
                    "logDecoded": true,
                    "operation": "EVENT",
                    "revert": false,
                    "status": true,
                    "topics": [
                        "0x5f64e9e37e747b504e4a092fb841b2e337d1cc05cb42dbfb06301a28da471630",
                        "0x000000000000000000000000c7d620c3e6dc0d54e93abe17f39e955152680dcd",
                        "0x000000000000000000000000c7d620c3e6dc0d54e93abe17f39e955152680dcd"
                    ]
                },
                "nodeType": 1
            }
        },
        "gasFlame": [
            {
                "children": [
                    {
                        "children": [
                            {
                                "children": [],
                                "depth": 0,
                                "name": "Initial Gas",
                                "value": 21432
                            },
                            {
                                "children": [
                                    {
                                        "children": [
                                            {
                                                "children": [],
                                                "depth": 2,
                                                "name": "isGenesisAddress",
                                                "value": 1339
                                            },
                                            {
                                                "children": [],
                                                "depth": 2,
                                                "name": "isGenesisAddressForSale",
                                                "value": 1269
                                            },
                                            {
                                                "children": [],
                                                "depth": 2,
                                                "name": "allowAddressToDestroyGenesisSet",
                                                "value": 23077
                                            }
                                        ],
                                        "depth": 1,
                                        "name": "AllowAddressToDestroyGenesis",
                                        "value": 35900
                                    }
                                ],
                                "depth": 0,
                                "name": "Executed Gas",
                                "value": 38647
                            }
                        ],
                        "depth": -1,
                        "name": "Actual Gas Used",
                        "value": 60079
                    },
                    {
                        "children": [],
                        "depth": -1,
                        "name": "Refunded Gas",
                        "value": 0
                    }
                ],
                "depth": -2,
                "name": "Total Gas",
                "value": 60079
            }
        ],
        "isConfirmed": true,
        "mainTrace": [
            {
                "children": [
                    {
                        "children": [
                            {
                                "children": [
                                    {
                                        "children": [],
                                        "depth": 2,
                                        "id": 2,
                                        "order": 2
                                    },
                                    {
                                        "children": [],
                                        "depth": 2,
                                        "id": 3,
                                        "order": 3
                                    },
                                    {
                                        "children": [],
                                        "depth": 2,
                                        "id": 4,
                                        "order": 4
                                    },
                                    {
                                        "children": [],
                                        "depth": 2,
                                        "id": 5,
                                        "order": 5
                                    }
                                ],
                                "depth": 1,
                                "id": 1,
                                "order": 1
                            }
                        ],
                        "depth": 0,
                        "id": 0,
                        "order": 0
                    }
                ],
                "depth": -1,
                "id": -1,
                "order": -1
            }
        ],
        "mainTraceNodeCount": 6,
        "parentIdMap": {
            "0": -1,
            "1": 0,
            "2": 1,
            "3": 1,
            "4": 1,
            "5": 1
        },
        "tidyTrace": [
            {
                "children": [
                    {
                        "children": [
                            {
                                "children": [
                                    {
                                        "children": [],
                                        "depth": 2,
                                        "id": 4,
                                        "order": 4
                                    },
                                    {
                                        "children": [],
                                        "depth": 2,
                                        "id": 5,
                                        "order": 5
                                    }
                                ],
                                "depth": 1,
                                "id": 1,
                                "order": 1
                            }
                        ],
                        "depth": 0,
                        "id": 0,
                        "order": 0
                    }
                ],
                "depth": -1,
                "id": -1,
                "order": -1
            }
        ],
        "tidyTraceNodeCount": 4
    },
    "state_change": {
        "stateChanges": [
            {
                "address": "0x90e340e2d11e6eb1d99e34d122d6fe0fef3213fd",
                "erc": "",
                "slots": [
                    {
                        "current": "0x000000000000000000000000c7d620c3e6dc0d54e93abe17f39e955152680dcd",
                        "key": "0x5d9f4aabbfc311ca17eca67ffe6e1f02337b8fa064058530f3e17c7c6949a4f6",
                        "prev": "0x0000000000000000000000000000000000000000000000000000000000000000"
                    }
                ],
                "storageVariables": [
                    {
                        "name": "allowAddressToDestroyGenesis",
                        "type": "mapping(address => address)",
                        "value": {
                            "pairs": [
                                {
                                    "key": "0xc7d620c3e6dc0d54e93abe17f39e955152680dcd",
                                    "value": {
                                        "current": "0xc7d620c3e6dc0d54e93abe17f39e955152680dcd",
                                        "prev": "0x0000000000000000000000000000000000000000",
                                        "typeTag": 1
                                    }
                                }
                            ],
                            "typeTag": 4
                        }
                    }
                ]
            }
        ]
    }
}