{
    "balance_change": {
        "balanceChanges": [
            {
                "account": "0x717edf56d24abd2b1b1e37ec612ee7053469af77",
                "assets": [
                    {
                        "address": "0xc9c4d9ec2b44b241361707679d3db0876ac10ca6",
                        "amount": "1,000",
                        "iconUrl": "",
                        "isERC1155": false,
                        "isERC721": false,
                        "sign": false,
                        "value": ""
                    }
                ]
            },
            {
                "account": "0xe678c8f185c9fdaeb0f97f7327713a73dd4a2788",
                "assets": [
                    {
                        "address": "0xc9c4d9ec2b44b241361707679d3db0876ac10ca6",
                        "amount": "1,000",
                        "iconUrl": "",
                        "isERC1155": false,
                        "isERC721": false,
                        "sign": true,
                        "value": ""
                    }
                ]
            }
        ]
    },
    "profile": {
        "basic_info": {
            "baseFee": "",
            "blockNumber": 7132787,
            "callData": "0xa9059cbb000000000000000000000000e678c8f185c9fdaeb0f97f7327713a73dd4a278800000000000000000000000000000000000000000000003635c9adc5dea00000",
            "debugEnable": true,
            "errorInfo": "",
            "eventCount": 1,
            "feeRecipient": "0x5a0b54d5dc17e0aadc383d2db43b0a0d3e029c4c",
            "formatValue": "0",
            "gasLimit": 210000,
            "gasPrice": "17",
            "gasUsed": 38058,
            "intTxnCount": 0,
            "internalRevert": false,
            "internalRevertMessage": "",
            "isContractCreation": false,
            "isFlashloan": false,
            "maxFee": "",
            "nonce": 20,
            "overwritedBlockNumber": -1,
            "priorityFee": "",
            "receiver": "0xc9c4d9ec2b44b241361707679d3db0876ac10ca6",
            "revertMessage": "",
            "sender": "0x717edf56d24abd2b1b1e37ec612ee7053469af77",
            "simulationEnable": true,
            "sourceTxnHash": "0x85dddd4b1fdac4ea8f5ffc82a01ae9ee9d9755d62e287dda8b02dcdea0654346",
            "status": true,
            "timestamp": "2019-01-27T06:15:11Z",
            "transactionFee": "0.000646986",
            "txnHash": "0x85dddd4b1fdac4ea8f5ffc82a01ae9ee9d9755d62e287dda8b02dcdea0654346",
            "txnIndex": 20,
            "type": 0,
            "value": "0"
        },
        "fund_flow": [
            {
                "amount": "1,000",
                "from": "0x717edf56d24abd2b1b1e37ec612ee7053469af77",
                "id": 1,
                "isERC1155": false,
                "isERC721": false,
                "isReverted": false,
                "order": 1,
                "to": "0xe678c8f185c9fdaeb0f97f7327713a73dd4a2788",
                "token": "0xc9c4d9ec2b44b241361707679d3db0876ac10ca6"
            }
        ],
        "token_infos": [
            {
                "address": "0xc02aaa39b223fe8d0a0e5c4f27ead9083c756cc2",
                "decimals": 18
            },
            {
                "address": "0xc9c4d9ec2b44b241361707679d3db0876ac10ca6",
                "decimals": 18
            },
            {
                "address": "0xeeeeeeeeeeeeeeeeeeeeeeeeeeeeeeeeeeeeeeee",
                "decimals": 18
            }
        ]
    },
    "address_label": {
        "labels": [
            {
                "address": "0xc9c4d9ec2b44b241361707679d3db0876ac10ca6",
                "label": "Power Candy (POC)"
            },
            {
                "address": "0x0000000000000000000000000000000000000001",
                "label": "Precompiled"
            },
            {
                "address": "0x0000000000000000000000000000000000000002",
                "label": "Precompiled"
            },
            {
                "address": "0x0000000000000000000000000000000000000003",
                "label": "Precompiled"
            },
            {
                "address": "0x0000000000000000000000000000000000000004",
                "label": "Precompiled"
            },
            {
                "address": "0xeeeeeeeeeeeeeeeeeeeeeeeeeeeeeeeeeeeeeeee",
                "label": "Ether"
            }
        ]
    },
    "trace": {
        "accountLabels": null,
        "dataMap": {
            "-1": {
                "invocation": {
                    "address": "0x717edf56d24abd2b1b1e37ec612ee7053469af77",
                    "callData": "",
                    "decodedMethod": null,
                    "errorInfo": "",
                    "fromAddress": "",
                    "gasUsed": 0,
                    "id": -1,
                    "methodDecoded": false,
                    "operation": "",
                    "output": "",
                    "revert": false,
                    "revertMessage": "",
                    "selector": "",
                    "status": false,
                    "value": ""
                },
                "nodeType": 0
            },
            "0": {
                "invocation": {
                    "address": "0xc9c4d9ec2b44b241361707679d3db0876ac10ca6",
                    "callData": "0x000000000000000000000000e678c8f185c9fdaeb0f97f7327713a73dd4a278800000000000000000000000000000000000000000000003635c9adc5dea00000",
                    "decodedMethod": {
                        "callParams": [
                            {
                                "name": "to",
                                "type": "address",
                                "value": "0xe678c8f185c9fdaeb0f97f7327713a73dd4a2788"
                            },
                            {
                                "decimalAvailable": true,
                                "name": "tokens",
                                "type": "uint256",
                                "value": "1,000,000,000,000,000,000,000"
                            }
                        ],
                        "constructorArguments": "",
                        "name": "transfer",
                        "returnParams": [
                            {
                                "name": "success",
                                "type": "bool",
                                "value": true
                            }
                        ],
                        "signature": "transfer(address,uint256)"
                    },
                    "errorInfo": "",
                    "fromAddress": "0x717edf56d24abd2b1b1e37ec612ee7053469af77",
                    "gasUsed": 38058,
                    "id": 0,
                    "methodDecoded": true,
                    "operation": "CALL",
                    "output": "0x0000000000000000000000000000000000000000000000000000000000000001",
                    "revert": false,
                    "revertMessage": "",
                    "selector": "0xa9059cbb",
                    "status": true,
                    "value": "0"
                },
                "nodeType": 0
            },
            "1": {
                "event": {
                    "contract": "0xc9c4d9ec2b44b241361707679d3db0876ac10ca6",
                    "decodedLog": {
                        "name": "Transfer",
                        "params": [
                            {
                                "name": "from",
                                "type": "address",
                                "value": "0x717edf56d24abd2b1b1e37ec612ee7053469af77"
                            },
                            {
                                "name": "to",
                                "type": "address",
                                "value": "0xe678c8f185c9fdaeb0f97f7327713a73dd4a2788"
                            },
                            {
                                "decimalAvailable": true,
                                "name": "tokens",
                                "type": "uint256",
                                "value": "1,000,000,000,000,000,000,000"
                            }
                        ],
                        "signature": "Transfer(address,address,uint256)"
                    },
                    "id": 1,
                    "logData": "0x00000000000000000000000000000000000000000000003635c9adc5dea00000",
                    "logDecoded": true,
                    "operation": "EVENT",
                    "revert": false,
                    "status": true,
                    "topics": [
                        "0xddf252ad1be2c89b69c2b068fc378daa952ba7f163c4a11628f55a4df523b3ef",
                        "0x000000000000000000000000717edf56d24abd2b1b1e37ec612ee7053469af77",
                        "0x000000000000000000000000e678c8f185c9fdaeb0f97f7327713a73dd4a2788"
                    ]
                },
                "nodeType": 1
            }
        },
        "gasFlame": [
            {
                "children": [
                    {
                        "children": [
                            {
                                "children": [],
                                "depth": 0,
                                "name": "Initial Gas",
                                "value": 23256
                            },
                            {
                                "children": [],
                                "depth": 0,
                                "name": "Executed Gas",
                                "value": 14802
                            }
                        ],
                        "depth": -1,
                        "name": "Actual Gas Used",
                        "value": 38058
                    },
                    {
                        "children": [],
                        "depth": -1,
                        "name": "Refunded Gas",
                        "value": 0
                    }
                ],
                "depth": -2,
                "name": "Total Gas",
                "value": 38058
            }
        ],
        "isConfirmed": true,
        "mainTrace": [
            {
                "children": [
                    {
                        "children": [
                            {
                                "children": [],
                                "depth": 1,
                                "id": 1,
                                "order": 1
                            }
                        ],
                        "depth": 0,
                        "id": 0,
                        "order": 0
                    }
                ],
                "depth": -1,
                "id": -1,
                "order": -1
            }
        ],
        "mainTraceNodeCount": 2,
        "parentIdMap": {
            "0": -1,
            "1": 0
        },
        "tidyTrace": [
            {
                "children": [
                    {
                        "children": [
                            {
                                "children": [],
                                "depth": 1,
                                "id": 1,
                                "order": 1
                            }
                        ],
                        "depth": 0,
                        "id": 0,
                        "order": 0
                    }
                ],
                "depth": -1,
                "id": -1,
                "order": -1
            }
        ],
        "tidyTraceNodeCount": 2
    },
    "state_change": {
        "stateChanges": [
            {
                "address": "0xc9c4d9ec2b44b241361707679d3db0876ac10ca6",
                "erc": "ERC-20",
                "slots": [
                    {
                        "current": "0x000000000000000000000000000000000000000000000052585c13fe3a5c0000",
                        "key": "0x5adfe0a8716a116c09b79a182fae39d2eeafd25d09254ca81a9e717c32354f75",
                        "prev": "0x0000000000000000000000000000000000000000000000888e25c1c418fc0000"
                    },
                    {
                        "current": "0x00000000000000000000000000000000000000000048bcd4835f509da0ecdfff",
                        "key": "0x18ecb59fd7f5c5c14e13bf6525d1680a498ece42bce2fb13c5b31a2d062e8c6e",
                        "prev": "0x00000000000000000000000000000000000000000048bc9e4d95a2d7c24cdfff"
                    }
                ],
                "storageVariables": [
                    {
                        "name": "balances",
                        "type": "mapping(address => uint256)",
                        "value": {
                            "pairs": [
                                {
                                    "key": "0x717edf56d24abd2b1b1e37ec612ee7053469af77",
                                    "value": {
                                        "current": "1519000000000000000000",
                                        "prev": "2519000000000000000000",
                                        "typeTag": 1
                                    }
                                },
                                {
                                    "key": "0xe678c8f185c9fdaeb0f97f7327713a73dd4a2788",
                                    "value": {
                                        "current": "87934384087149999999999999",
                                        "prev": "87933384087149999999999999",
                                        "typeTag": 1
                                    }
                                }
                            ],
                            "typeTag": 4
                        }
                    }
                ]
            }
        ]
    }
}