{
    "balance_change": {
        "balanceChanges": [
            {
                "account": "0xf16e9b0d03470827a95cdfd0cb8a8a3b46969b91",
                "assets": [
                    {
                        "address": "0xd13c7342e1ef687c5ad21b27c2b65d772cab5c8c",
                        "amount": "10,089.4612",
                        "iconUrl": "",
                        "isERC1155": false,
                        "isERC721": false,
                        "sign": false,
                        "value": "2314.5223992799999273"
                    }
                ]
            },
            {
                "account": "0xfe0c760cbcb9da239b9ba805f0aeaed3be84f65a",
                "assets": [
                    {
                        "address": "0xd13c7342e1ef687c5ad21b27c2b65d772cab5c8c",
                        "amount": "10,089.4612",
                        "iconUrl": "",
                        "isERC1155": false,
                        "isERC721": false,
                        "sign": true,
                        "value": "2314.5223992799999273"
                    }
                ]
            }
        ]
    },
    "profile": {
        "basic_info": {
            "baseFee": "38.198063598",
            "blockNumber": 16892137,
            "callData": "0xa9059cbb000000000000000000000000fe0c760cbcb9da239b9ba805f0aeaed3be84f65a0000000000000000000000000000000000000000000000000000000006038794",
            "debugEnable": true,
            "errorInfo": "",
            "eventCount": 1,
            "feeRecipient": "0xaab27b150451726ec7738aa1d0a94505c8729bd1",
            "formatValue": "0",
            "gasLimit": 100000,
            "gasPrice": "40.398990978",
            "gasUsed": 53873,
            "intTxnCount": 0,
            "internalRevert": false,
            "internalRevertMessage": "",
            "isContractCreation": false,
            "isFlashloan": false,
            "maxFee": "78",
            "nonce": 1709985,
            "overwritedBlockNumber": -1,
            "priorityFee": "2.20092738",
            "receiver": "0xd13c7342e1ef687c5ad21b27c2b65d772cab5c8c",
            "revertMessage": "",
            "sender": "0xf16e9b0d03470827a95cdfd0cb8a8a3b46969b91",
            "simulationEnable": true,
            "sourceTxnHash": "0x8522a7f9489afeb6e1484410d52da841e771673445e0ba8690328877d412d560",
            "status": true,
            "timestamp": "2023-03-23T18:52:35Z",
            "transactionFee": "0.002176414840957794",
            "txnHash": "0x8522a7f9489afeb6e1484410d52da841e771673445e0ba8690328877d412d560",
            "txnIndex": 19,
            "type": 2,
            "value": "0"
        },
        "fund_flow": [
            {
                "amount": "10,089.4612",
                "from": "0xf16e9b0d03470827a95cdfd0cb8a8a3b46969b91",
                "id": 1,
                "isERC1155": false,
                "isERC721": false,
                "isReverted": false,
                "order": 1,
                "to": "0xfe0c760cbcb9da239b9ba805f0aeaed3be84f65a",
                "token": "0xd13c7342e1ef687c5ad21b27c2b65d772cab5c8c"
            }
        ],
        "token_infos": [
            {
                "address": "0xd13c7342e1ef687c5ad21b27c2b65d772cab5c8c",
                "decimals": 4
            },
            {
                "address": "0xeeeeeeeeeeeeeeeeeeeeeeeeeeeeeeeeeeeeeeee",
                "decimals": 18
            },
            {
                "address": "0xc02aaa39b223fe8d0a0e5c4f27ead9083c756cc2",
                "decimals": 18
            }
        ]
    },
    "address_label": {
        "labels": [
            {
                "address": "0xf16e9b0d03470827a95cdfd0cb8a8a3b46969b91",
                "label": "KuCoin 9"
            },
            {
                "address": "0xd13c7342e1ef687c5ad21b27c2b65d772cab5c8c",
                "label": "Ultra: UOS Token"
            },
            {
                "address": "0x0000000000000000000000000000000000000001",
                "label": "Precompiled"
            },
            {
                "address": "0x0000000000000000000000000000000000000002",
                "label": "Precompiled"
            },
            {
                "address": "0x0000000000000000000000000000000000000003",
                "label": "Precompiled"
            },
            {
                "address": "0x0000000000000000000000000000000000000004",
                "label": "Precompiled"
            },
            {
                "address": "0xeeeeeeeeeeeeeeeeeeeeeeeeeeeeeeeeeeeeeeee",
                "label": "Ether"
            }
        ]
    },
    "trace": {
        "accountLabels": null,
        "dataMap": {
            "-1": {
                "invocation": {
                    "address": "0xf16e9b0d03470827a95cdfd0cb8a8a3b46969b91",
                    "callData": "",
                    "decodedMethod": null,
                    "errorInfo": "",
                    "fromAddress": "",
                    "gasUsed": 0,
                    "id": -1,
                    "methodDecoded": false,
                    "operation": "",
                    "output": "",
                    "revert": false,
                    "revertMessage": "",
                    "selector": "",
                    "status": false,
                    "value": ""
                },
                "nodeType": 0
            },
            "0": {
                "invocation": {
                    "address": "0xd13c7342e1ef687c5ad21b27c2b65d772cab5c8c",
                    "callData": "0x000000000000000000000000fe0c760cbcb9da239b9ba805f0aeaed3be84f65a0000000000000000000000000000000000000000000000000000000006038794",
                    "decodedMethod": {
                        "callParams": [
                            {
                                "name": "to",
                                "type": "address",
                                "value": "0xfe0c760cbcb9da239b9ba805f0aeaed3be84f65a"
                            },
                            {
                                "decimalAvailable": true,
                                "name": "value",
                                "type": "uint256",
                                "value": "100,894,612"
                            }
                        ],
                        "constructorArguments": "",
                        "name": "transfer",
                        "returnParams": [
                            {
                                "name": "",
                                "type": "bool",
                                "value": true
                            }
                        ],
                        "signature": "transfer(address,uint256)"
                    },
                    "errorInfo": "",
                    "fromAddress": "0xf16e9b0d03470827a95cdfd0cb8a8a3b46969b91",
                    "gasUsed": 53873,
                    "id": 0,
                    "methodDecoded": true,
                    "operation": "CALL",
                    "output": "0x0000000000000000000000000000000000000000000000000000000000000001",
                    "revert": false,
                    "revertMessage": "",
                    "selector": "0xa9059cbb",
                    "status": true,
                    "value": "0"
                },
                "nodeType": 0
            },
            "1": {
                "event": {
                    "contract": "0xd13c7342e1ef687c5ad21b27c2b65d772cab5c8c",
                    "decodedLog": {
                        "name": "Transfer",
                        "params": [
                            {
                                "name": "from",
                                "type": "address",
                                "value": "0xf16e9b0d03470827a95cdfd0cb8a8a3b46969b91"
                            },
                            {
                                "name": "to",
                                "type": "address",
                                "value": "0xfe0c760cbcb9da239b9ba805f0aeaed3be84f65a"
                            },
                            {
                                "decimalAvailable": true,
                                "name": "value",
                                "type": "uint256",
                                "value": "100,894,612"
                            }
                        ],
                        "signature": "Transfer(address,address,uint256)"
                    },
                    "id": 1,
                    "logData": "0x0000000000000000000000000000000000000000000000000000000006038794",
                    "logDecoded": true,
                    "operation": "EVENT",
                    "revert": false,
                    "status": true,
                    "topics": [
                        "0xddf252ad1be2c89b69c2b068fc378daa952ba7f163c4a11628f55a4df523b3ef",
                        "0x000000000000000000000000f16e9b0d03470827a95cdfd0cb8a8a3b46969b91",
                        "0x000000000000000000000000fe0c760cbcb9da239b9ba805f0aeaed3be84f65a"
                    ]
                },
                "nodeType": 1
            }
        },
        "gasFlame": [
            {
                "children": [
                    {
                        "children": [
                            {
                                "children": [],
                                "depth": 0,
                                "name": "Initial Gas",
                                "value": 21608
                            },
                            {
                                "children": [],
                                "depth": 0,
                                "name": "Executed Gas",
                                "value": 32265
                            }
                        ],
                        "depth": -1,
                        "name": "Actual Gas Used",
                        "value": 53873
                    },
                    {
                        "children": [],
                        "depth": -1,
                        "name": "Refunded Gas",
                        "value": 0
                    }
                ],
                "depth": -2,
                "name": "Total Gas",
                "value": 53873
            }
        ],
        "isConfirmed": true,
        "mainTrace": [
            {
                "children": [
                    {
                        "children": [
                            {
                                "children": [],
                                "depth": 1,
                                "id": 1,
                                "order": 1
                            }
                        ],
                        "depth": 0,
                        "id": 0,
                        "order": 0
                    }
                ],
                "depth": -1,
                "id": -1,
                "order": -1
            }
        ],
        "mainTraceNodeCount": 2,
        "parentIdMap": {
            "0": -1,
            "1": 0
        },
        "tidyTrace": [
            {
                "children": [
                    {
                        "children": [
                            {
                                "children": [],
                                "depth": 1,
                                "id": 1,
                                "order": 1
                            }
                        ],
                        "depth": 0,
                        "id": 0,
                        "order": 0
                    }
                ],
                "depth": -1,
                "id": -1,
                "order": -1
            }
        ],
        "tidyTraceNodeCount": 2
    },
    "state_change": {
        "stateChanges": [
            {
                "address": "0xd13c7342e1ef687c5ad21b27c2b65d772cab5c8c",
                "erc": "ERC-20",
                "slots": [
                    {
                        "current": "0x00000000000000000000000000000000000000000000000000000002f2c4159f",
                        "key": "0xe22997ad676795e3318786248f6e5790f07b3bc90ff54b119652dd6b4e49e832",
                        "prev": "0x00000000000000000000000000000000000000000000000000000002f8c79d33"
                    },
                    {
                        "current": "0x0000000000000000000000000000000000000000000000000000000006038794",
                        "key": "0x0911777a50085a8f79c90b98469ef59beb074f73880aa0101e3cfa7b93824925",
                        "prev": "0x0000000000000000000000000000000000000000000000000000000000000000"
                    }
                ],
                "storageVariables": [
                    {
                        "name": "_balances",
                        "type": "mapping(address => uint256)",
                        "value": {
                            "pairs": [
                                {
                                    "key": "0xf16e9b0d03470827a95cdfd0cb8a8a3b46969b91",
                                    "value": {
                                        "current": "12662871455",
                                        "prev": "12763766067",
                                        "typeTag": 1
                                    }
                                },
                                {
                                    "key": "0xfe0c760cbcb9da239b9ba805f0aeaed3be84f65a",
                                    "value": {
                                        "current": "100894612",
                                        "prev": "0",
                                        "typeTag": 1
                                    }
                                }
                            ],
                            "typeTag": 4
                        }
                    }
                ]
            }
        ]
    }
}