{
    "balance_change": {
        "balanceChanges": [
            {
                "account": "0xfb4eef06d3bd5f4eb1273f098b1f89f0ee39610e",
                "assets": [
                    {
                        "address": "0xeeeeeeeeeeeeeeeeeeeeeeeeeeeeeeeeeeeeeeee",
                        "amount": "0.001",
                        "iconUrl": "https://assets.blocksec.com/image/1663669189317-3.png",
                        "isERC1155": false,
                        "isERC721": false,
                        "sign": false,
                        "value": "1.5483299999999999272"
                    }
                ]
            },
            {
                "account": "0x00000000000000447e69651d841bd8d104bed493",
                "assets": [
                    {
                        "address": "0xeeeeeeeeeeeeeeeeeeeeeeeeeeeeeeeeeeeeeeee",
                        "amount": "0.001",
                        "iconUrl": "https://assets.blocksec.com/image/1663669189317-3.png",
                        "isERC1155": false,
                        "isERC721": false,
                        "sign": true,
                        "value": "1.5483299999999999272"
                    }
                ]
            }
        ]
    },
    "profile": {
        "basic_info": {
            "baseFee": "5.955883684",
            "blockNumber": 18380818,
            "callData": "0x30ff3140000000000000000000000000bf85182f6ec2013b2c40dabe26d4b69bc601719200000000000000000000000000000000000000000000000000000000000000000000000000000000000000000000000000000000000000000000000000000001",
            "debugEnable": true,
            "errorInfo": "",
            "eventCount": 1,
            "feeRecipient": "0x4838b106fce9647bdf1e7877bf73ce8b0bad5f97",
            "formatValue": "0.001",
            "gasLimit": 236287,
            "gasPrice": "6.055883684",
            "gasUsed": 157525,
            "intTxnCount": 0,
            "internalRevert": false,
            "internalRevertMessage": "",
            "isContractCreation": false,
            "isFlashloan": false,
            "maxFee": "8.293664194",
            "nonce": 506,
            "overwritedBlockNumber": -1,
            "priorityFee": "0.1",
            "receiver": "0x00000000000000447e69651d841bd8d104bed493",
            "revertMessage": "",
            "sender": "0xfb4eef06d3bd5f4eb1273f098b1f89f0ee39610e",
            "simulationEnable": true,
            "sourceTxnHash": "0x85cee54a629ea472a3b5e1a1d8d98bf4596d88f62b0bb5b0a50c0b564b97f7f4",
            "status": true,
            "timestamp": "2023-10-19T00:29:59Z",
            "transactionFee": "0.0009539530773221",
            "txnHash": "0x85cee54a629ea472a3b5e1a1d8d98bf4596d88f62b0bb5b0a50c0b564b97f7f4",
            "txnIndex": 49,
            "type": 2,
            "value": "1000000000000000"
        },
        "fund_flow": [
            {
                "amount": "0.001",
                "from": "0xfb4eef06d3bd5f4eb1273f098b1f89f0ee39610e",
                "id": 1,
                "isERC1155": false,
                "isERC721": false,
                "isReverted": false,
                "order": 1,
                "to": "0x00000000000000447e69651d841bd8d104bed493",
                "token": "0xeeeeeeeeeeeeeeeeeeeeeeeeeeeeeeeeeeeeeeee"
            }
        ],
        "token_infos": [
            {
                "address": "0xeeeeeeeeeeeeeeeeeeeeeeeeeeeeeeeeeeeeeeee",
                "decimals": 18
            },
            {
                "address": "0xc02aaa39b223fe8d0a0e5c4f27ead9083c756cc2",
                "decimals": 18
            }
        ]
    },
    "address_label": {
        "labels": [
            {
                "address": "0xeeeeeeeeeeeeeeeeeeeeeeeeeeeeeeeeeeeeeeee",
                "label": "Ether"
            },
            {
                "address": "0x00000000000000447e69651d841bd8d104bed493",
                "label": "delegate.xyz v2"
            },
            {
                "address": "0x0000000000000000000000000000000000000001",
                "label": "Precompiled"
            },
            {
                "address": "0x0000000000000000000000000000000000000002",
                "label": "Precompiled"
            },
            {
                "address": "0x0000000000000000000000000000000000000003",
                "label": "Precompiled"
            },
            {
                "address": "0x0000000000000000000000000000000000000004",
                "label": "Precompiled"
            }
        ]
    },
    "trace": {
        "accountLabels": null,
        "dataMap": {
            "-1": {
                "invocation": {
                    "address": "0xfb4eef06d3bd5f4eb1273f098b1f89f0ee39610e",
                    "callData": "",
                    "decodedMethod": null,
                    "errorInfo": "",
                    "fromAddress": "",
                    "gasUsed": 0,
                    "id": -1,
                    "methodDecoded": false,
                    "operation": "",
                    "output": "",
                    "revert": false,
                    "revertMessage": "",
                    "selector": "",
                    "status": false,
                    "value": ""
                },
                "nodeType": 0
            },
            "0": {
                "invocation": {
                    "address": "0x00000000000000447e69651d841bd8d104bed493",
                    "callData": "0x000000000000000000000000bf85182f6ec2013b2c40dabe26d4b69bc601719200000000000000000000000000000000000000000000000000000000000000000000000000000000000000000000000000000000000000000000000000000001",
                    "decodedMethod": {
                        "callParams": [
                            {
                                "name": "to",
                                "type": "address",
                                "value": "0xbf85182f6ec2013b2c40dabe26d4b69bc6017192"
                            },
                            {
                                "name": "rights",
                                "type": "bytes32",
                                "value": "0x0000000000000000000000000000000000000000000000000000000000000000"
                            },
                            {
                                "name": "enable",
                                "type": "bool",
                                "value": true
                            }
                        ],
                        "constructorArguments": "",
                        "name": "delegateAll",
                        "returnParams": [
                            {
                                "name": "hash",
                                "type": "bytes32",
                                "value": "0x8fb76948effadc9eab1f369208fe9ca8a6c8fb6590b85f3852931fcc36fdf301"
                            }
                        ],
                        "signature": "delegateAll(address,bytes32,bool)"
                    },
                    "errorInfo": "",
                    "fromAddress": "0xfb4eef06d3bd5f4eb1273f098b1f89f0ee39610e",
                    "gasUsed": 157525,
                    "id": 0,
                    "methodDecoded": true,
                    "operation": "CALL",
                    "output": "0x8fb76948effadc9eab1f369208fe9ca8a6c8fb6590b85f3852931fcc36fdf301",
                    "revert": false,
                    "revertMessage": "",
                    "selector": "0x30ff3140",
                    "status": true,
                    "value": "0.001"
                },
                "nodeType": 0
            },
            "1": {
                "event": {
                    "contract": "0x00000000000000447e69651d841bd8d104bed493",
                    "decodedLog": {
                        "name": "DelegateAll",
                        "params": [
                            {
                                "name": "from",
                                "type": "address",
                                "value": "0xfb4eef06d3bd5f4eb1273f098b1f89f0ee39610e"
                            },
                            {
                                "name": "to",
                                "type": "address",
                                "value": "0xbf85182f6ec2013b2c40dabe26d4b69bc6017192"
                            },
                            {
                                "name": "rights",
                                "type": "bytes32",
                                "value": "0x0000000000000000000000000000000000000000000000000000000000000000"
                            },
                            {
                                "name": "enable",
                                "type": "bool",
                                "value": true
                            }
                        ],
                        "signature": "DelegateAll(address,address,bytes32,bool)"
                    },
                    "id": 1,
                    "logData": "0x00000000000000000000000000000000000000000000000000000000000000000000000000000000000000000000000000000000000000000000000000000001",
                    "logDecoded": true,
                    "operation": "EVENT",
                    "revert": false,
                    "status": true,
                    "topics": [
                        "0xda3ef6410e30373a9137f83f9781a8129962b6882532b7c229de2e39de423227",
                        "0x000000000000000000000000fb4eef06d3bd5f4eb1273f098b1f89f0ee39610e",
                        "0x000000000000000000000000bf85182f6ec2013b2c40dabe26d4b69bc6017192"
                    ]
                },
                "nodeType": 1
            }
        },
        "gasFlame": [
            {
                "children": [
                    {
                        "children": [
                            {
                                "children": [],
                                "depth": 0,
                                "name": "Initial Gas",
                                "value": 21700
                            },
                            {
                                "children": [],
                                "depth": 0,
                                "name": "Executed Gas",
                                "value": 135825
                            }
                        ],
                        "depth": -1,
                        "name": "Actual Gas Used",
                        "value": 157525
                    },
                    {
                        "children": [],
                        "depth": -1,
                        "name": "Refunded Gas",
                        "value": 0
                    }
                ],
                "depth": -2,
                "name": "Total Gas",
                "value": 157525
            }
        ],
        "isConfirmed": true,
        "mainTrace": [
            {
                "children": [
                    {
                        "children": [
                            {
                                "children": [],
                                "depth": 1,
                                "id": 1,
                                "order": 1
                            }
                        ],
                        "depth": 0,
                        "id": 0,
                        "order": 0
                    }
                ],
                "depth": -1,
                "id": -1,
                "order": -1
            }
        ],
        "mainTraceNodeCount": 2,
        "parentIdMap": {
            "0": -1,
            "1": 0
        },
        "tidyTrace": [
            {
                "children": [
                    {
                        "children": [
                            {
                                "children": [],
                                "depth": 1,
                                "id": 1,
                                "order": 1
                            }
                        ],
                        "depth": 0,
                        "id": 0,
                        "order": 0
                    }
                ],
                "depth": -1,
                "id": -1,
                "order": -1
            }
        ],
        "tidyTraceNodeCount": 2
    },
    "state_change": {
        "stateChanges": [
            {
                "address": "0x00000000000000447e69651d841bd8d104bed493",
                "erc": "",
                "slots": [
                    {
                        "current": "0x000000000000000000000000fb4eef06d3bd5f4eb1273f098b1f89f0ee39610e",
                        "key": "0x87b15af3415ebdb52dc8de2c813d351b395fb79c8539a03812bbf3d80a34a70d",
                        "prev": "0x0000000000000000000000000000000000000000000000000000000000000000"
                    },
                    {
                        "current": "0x000000000000000000000000bf85182f6ec2013b2c40dabe26d4b69bc6017192",
                        "key": "0x87b15af3415ebdb52dc8de2c813d351b395fb79c8539a03812bbf3d80a34a70e",
                        "prev": "0x0000000000000000000000000000000000000000000000000000000000000000"
                    },
                    {
                        "current": "0x0000000000000000000000000000000000000000000000000000000000000001",
                        "key": "0x7bfb51e666ce68355cade86bf39353f981a31e53961017fb516079486f287fd4",
                        "prev": "0x0000000000000000000000000000000000000000000000000000000000000000"
                    },
                    {
                        "current": "0x8fb76948effadc9eab1f369208fe9ca8a6c8fb6590b85f3852931fcc36fdf301",
                        "key": "0x33075f71aa4dfb69b043665625a1b103a975cd116e25c9db0078843897b42784",
                        "prev": "0x0000000000000000000000000000000000000000000000000000000000000000"
                    },
                    {
                        "current": "0x0000000000000000000000000000000000000000000000000000000000000001",
                        "key": "0x36781a7860756e05b6e27a47bdf333ee19ff841c2d0f179844c25a1913e40070",
                        "prev": "0x0000000000000000000000000000000000000000000000000000000000000000"
                    },
                    {
                        "current": "0x8fb76948effadc9eab1f369208fe9ca8a6c8fb6590b85f3852931fcc36fdf301",
                        "key": "0x2229f785bfd984888e5022c23d87bb169eb350bec302bde1ffec4d426af90cea",
                        "prev": "0x0000000000000000000000000000000000000000000000000000000000000000"
                    }
                ],
                "storageVariables": [
                    {
                        "name": "outgoingDelegationHashes",
                        "type": "mapping(address => bytes32[])",
                        "value": {
                            "pairs": [
                                {
                                    "key": "0xfb4eef06d3bd5f4eb1273f098b1f89f0ee39610e",
                                    "value": {
                                        "elemType": "bytes32",
                                        "elems": [
                                            {
                                                "index": 0,
                                                "value": {
                                                    "current": "0x8fb76948effadc9eab1f369208fe9ca8a6c8fb6590b85f3852931fcc36fdf301",
                                                    "prev": "0x0000000000000000000000000000000000000000000000000000000000000000",
                                                    "typeTag": 1
                                                }
                                            }
                                        ],
                                        "typeTag": 2
                                    }
                                }
                            ],
                            "typeTag": 4
                        }
                    },
                    {
                        "name": "incomingDelegationHashes",
                        "type": "mapping(address => bytes32[])",
                        "value": {
                            "pairs": [
                                {
                                    "key": "0xbf85182f6ec2013b2c40dabe26d4b69bc6017192",
                                    "value": {
                                        "elemType": "bytes32",
                                        "elems": [
                                            {
                                                "index": 0,
                                                "value": {
                                                    "current": "0x8fb76948effadc9eab1f369208fe9ca8a6c8fb6590b85f3852931fcc36fdf301",
                                                    "prev": "0x0000000000000000000000000000000000000000000000000000000000000000",
                                                    "typeTag": 1
                                                }
                                            }
                                        ],
                                        "typeTag": 2
                                    }
                                }
                            ],
                            "typeTag": 4
                        }
                    },
                    {
                        "name": "delegations",
                        "type": "mapping(bytes32 => bytes32[5])",
                        "value": {
                            "pairs": [
                                {
                                    "key": "0x8fb76948effadc9eab1f369208fe9ca8a6c8fb6590b85f3852931fcc36fdf301",
                                    "value": {
                                        "elemType": "bytes32",
                                        "elems": [
                                            {
                                                "index": 0,
                                                "value": {
                                                    "current": "0x000000000000000000000000fb4eef06d3bd5f4eb1273f098b1f89f0ee39610e",
                                                    "prev": "0x0000000000000000000000000000000000000000000000000000000000000000",
                                                    "typeTag": 1
                                                }
                                            },
                                            {
                                                "index": 1,
                                                "value": {
                                                    "current": "0x000000000000000000000000bf85182f6ec2013b2c40dabe26d4b69bc6017192",
                                                    "prev": "0x0000000000000000000000000000000000000000000000000000000000000000",
                                                    "typeTag": 1
                                                }
                                            }
                                        ],
                                        "typeTag": 2
                                    }
                                }
                            ],
                            "typeTag": 4
                        }
                    }
                ]
            }
        ]
    }
}