{
    "balance_change": {
        "balanceChanges": [
            {
                "account": "0xce13c1f43b8b58b50bdac3c4c624893ad6cc7c4b",
                "assets": [
                    {
                        "address": "0x6b175474e89094c44da98b954eedeac495271d0f",
                        "amount": "5.25",
                        "iconUrl": "https://assets.blocksec.com/icon/39aead569b9c011cb6f69734d9abbc9ab6a80049fe93bbd12bb473a3e0e859a3.png",
                        "isERC1155": false,
                        "isERC721": false,
                        "sign": false,
                        "value": ""
                    }
                ]
            },
            {
                "account": "0x00de4b13153673bcae2616b67bf822500d325fc3",
                "assets": [
                    {
                        "address": "0x6b175474e89094c44da98b954eedeac495271d0f",
                        "amount": "0.25",
                        "iconUrl": "https://assets.blocksec.com/icon/39aead569b9c011cb6f69734d9abbc9ab6a80049fe93bbd12bb473a3e0e859a3.png",
                        "isERC1155": false,
                        "isERC721": false,
                        "sign": true,
                        "value": ""
                    }
                ]
            },
            {
                "account": "0xa19fcdad77c1f0fd184689aca88babcf68010347",
                "assets": [
                    {
                        "address": "0x6b175474e89094c44da98b954eedeac495271d0f",
                        "amount": "5",
                        "iconUrl": "https://assets.blocksec.com/icon/39aead569b9c011cb6f69734d9abbc9ab6a80049fe93bbd12bb473a3e0e859a3.png",
                        "isERC1155": false,
                        "isERC721": false,
                        "sign": true,
                        "value": ""
                    }
                ]
            }
        ]
    },
    "profile": {
        "basic_info": {
            "baseFee": "",
            "blockNumber": 9319985,
            "callData": "0xab832b43000000000000000000000000a19fcdad77c1f0fd184689aca88babcf6801034700000000000000000000000000de4b13153673bcae2616b67bf822500d325fc30000000000000000000000000000000000000000000000004563918244f4000000000000000000000000000000000000000000000000000003782dace9d900000000000000000000000000006b175474e89094c44da98b954eedeac495271d0f",
            "debugEnable": true,
            "errorInfo": "",
            "eventCount": 2,
            "feeRecipient": "0x5a0b54d5dc17e0aadc383d2db43b0a0d3e029c4c",
            "formatValue": "0",
            "gasLimit": 100000,
            "gasPrice": "1",
            "gasUsed": 50280,
            "intTxnCount": 2,
            "internalRevert": false,
            "internalRevertMessage": "",
            "isContractCreation": false,
            "isFlashloan": false,
            "maxFee": "",
            "nonce": 28,
            "overwritedBlockNumber": -1,
            "priorityFee": "",
            "receiver": "0xdf869fad6db91f437b59f1edefab319493d4c4ce",
            "revertMessage": "",
            "sender": "0xce13c1f43b8b58b50bdac3c4c624893ad6cc7c4b",
            "simulationEnable": true,
            "sourceTxnHash": "0x865e5867a01f40b68ec6564a05b936d8e4de995e6b3fa3b943f0726dbfe2a9c8",
            "status": true,
            "timestamp": "2020-01-20T18:27:55Z",
            "transactionFee": "0.00005028",
            "txnHash": "0x865e5867a01f40b68ec6564a05b936d8e4de995e6b3fa3b943f0726dbfe2a9c8",
            "txnIndex": 70,
            "type": 0,
            "value": "0"
        },
        "fund_flow": [
            {
                "amount": "5",
                "from": "0xce13c1f43b8b58b50bdac3c4c624893ad6cc7c4b",
                "id": 1,
                "isERC1155": false,
                "isERC721": false,
                "isReverted": false,
                "order": 1,
                "to": "0xa19fcdad77c1f0fd184689aca88babcf68010347",
                "token": "0x6b175474e89094c44da98b954eedeac495271d0f"
            },
            {
                "amount": "0.25",
                "from": "0xce13c1f43b8b58b50bdac3c4c624893ad6cc7c4b",
                "id": 2,
                "isERC1155": false,
                "isERC721": false,
                "isReverted": false,
                "order": 2,
                "to": "0x00de4b13153673bcae2616b67bf822500d325fc3",
                "token": "0x6b175474e89094c44da98b954eedeac495271d0f"
            }
        ],
        "token_infos": [
            {
                "address": "0x6b175474e89094c44da98b954eedeac495271d0f",
                "decimals": 18
            },
            {
                "address": "0xc02aaa39b223fe8d0a0e5c4f27ead9083c756cc2",
                "decimals": 18
            },
            {
                "address": "0xeeeeeeeeeeeeeeeeeeeeeeeeeeeeeeeeeeeeeeee",
                "decimals": 18
            }
        ]
    },
    "address_label": {
        "labels": [
            {
                "address": "0xeeeeeeeeeeeeeeeeeeeeeeeeeeeeeeeeeeeeeeee",
                "label": "Ether"
            },
            {
                "address": "0xdf869fad6db91f437b59f1edefab319493d4c4ce",
                "label": "Gitcoin: Grants"
            },
            {
                "address": "0x6b175474e89094c44da98b954eedeac495271d0f",
                "label": "Sky: Dai Stablecoin"
            },
            {
                "address": "0x0000000000000000000000000000000000000002",
                "label": "Precompiled"
            },
            {
                "address": "0x0000000000000000000000000000000000000004",
                "label": "Precompiled"
            },
            {
                "address": "0xa19fcdad77c1f0fd184689aca88babcf68010347",
                "label": "EthHub: Donate"
            },
            {
                "address": "0x00de4b13153673bcae2616b67bf822500d325fc3",
                "label": "Gitcoin: Maintainer"
            },
            {
                "address": "0x0000000000000000000000000000000000000001",
                "label": "Precompiled"
            },
            {
                "address": "0x0000000000000000000000000000000000000003",
                "label": "Precompiled"
            }
        ]
    },
    "trace": {
        "accountLabels": null,
        "dataMap": {
            "-1": {
                "invocation": {
                    "address": "0xce13c1f43b8b58b50bdac3c4c624893ad6cc7c4b",
                    "callData": "",
                    "decodedMethod": null,
                    "errorInfo": "",
                    "fromAddress": "",
                    "gasUsed": 0,
                    "id": -1,
                    "methodDecoded": false,
                    "operation": "",
                    "output": "",
                    "revert": false,
                    "revertMessage": "",
                    "selector": "",
                    "status": false,
                    "value": ""
                },
                "nodeType": 0
            },
            "0": {
                "invocation": {
                    "address": "0xdf869fad6db91f437b59f1edefab319493d4c4ce",
                    "callData": "0x000000000000000000000000a19fcdad77c1f0fd184689aca88babcf6801034700000000000000000000000000de4b13153673bcae2616b67bf822500d325fc30000000000000000000000000000000000000000000000004563918244f4000000000000000000000000000000000000000000000000000003782dace9d900000000000000000000000000006b175474e89094c44da98b954eedeac495271d0f",
                    "decodedMethod": null,
                    "errorInfo": "",
                    "fromAddress": "0xce13c1f43b8b58b50bdac3c4c624893ad6cc7c4b",
                    "gasUsed": 50280,
                    "id": 0,
                    "methodDecoded": false,
                    "operation": "CALL",
                    "output": "",
                    "revert": false,
                    "revertMessage": "",
                    "selector": "0xab832b43",
                    "status": true,
                    "value": "0"
                },
                "nodeType": 0
            },
            "1": {
                "invocation": {
                    "address": "0x6b175474e89094c44da98b954eedeac495271d0f",
                    "callData": "0x000000000000000000000000ce13c1f43b8b58b50bdac3c4c624893ad6cc7c4b000000000000000000000000a19fcdad77c1f0fd184689aca88babcf680103470000000000000000000000000000000000000000000000004563918244f40000",
                    "decodedMethod": {
                        "callParams": [
                            {
                                "name": "src",
                                "type": "address",
                                "value": "0xce13c1f43b8b58b50bdac3c4c624893ad6cc7c4b"
                            },
                            {
                                "name": "dst",
                                "type": "address",
                                "value": "0xa19fcdad77c1f0fd184689aca88babcf68010347"
                            },
                            {
                                "decimalAvailable": true,
                                "name": "wad",
                                "type": "uint256",
                                "value": "5,000,000,000,000,000,000"
                            }
                        ],
                        "constructorArguments": "",
                        "name": "transferFrom",
                        "returnParams": [
                            {
                                "name": "",
                                "type": "bool",
                                "value": true
                            }
                        ],
                        "signature": "transferFrom(address,address,uint256)"
                    },
                    "errorInfo": "",
                    "fromAddress": "0xdf869fad6db91f437b59f1edefab319493d4c4ce",
                    "gasUsed": 23675,
                    "id": 1,
                    "methodDecoded": true,
                    "operation": "CALL",
                    "output": "0x0000000000000000000000000000000000000000000000000000000000000001",
                    "revert": false,
                    "revertMessage": "",
                    "selector": "0x23b872dd",
                    "status": true,
                    "value": "0"
                },
                "nodeType": 0
            },
            "2": {
                "event": {
                    "contract": "0x6b175474e89094c44da98b954eedeac495271d0f",
                    "decodedLog": {
                        "name": "Transfer",
                        "params": [
                            {
                                "name": "src",
                                "type": "address",
                                "value": "0xce13c1f43b8b58b50bdac3c4c624893ad6cc7c4b"
                            },
                            {
                                "name": "dst",
                                "type": "address",
                                "value": "0xa19fcdad77c1f0fd184689aca88babcf68010347"
                            },
                            {
                                "decimalAvailable": true,
                                "name": "wad",
                                "type": "uint256",
                                "value": "5,000,000,000,000,000,000"
                            }
                        ],
                        "signature": "Transfer(address,address,uint256)"
                    },
                    "id": 2,
                    "logData": "0x0000000000000000000000000000000000000000000000004563918244f40000",
                    "logDecoded": true,
                    "operation": "EVENT",
                    "revert": false,
                    "status": true,
                    "topics": [
                        "0xddf252ad1be2c89b69c2b068fc378daa952ba7f163c4a11628f55a4df523b3ef",
                        "0x000000000000000000000000ce13c1f43b8b58b50bdac3c4c624893ad6cc7c4b",
                        "0x000000000000000000000000a19fcdad77c1f0fd184689aca88babcf68010347"
                    ]
                },
                "nodeType": 1
            },
            "3": {
                "invocation": {
                    "address": "0x6b175474e89094c44da98b954eedeac495271d0f",
                    "callData": "0x000000000000000000000000ce13c1f43b8b58b50bdac3c4c624893ad6cc7c4b00000000000000000000000000de4b13153673bcae2616b67bf822500d325fc300000000000000000000000000000000000000000000000003782dace9d90000",
                    "decodedMethod": {
                        "callParams": [
                            {
                                "name": "src",
                                "type": "address",
                                "value": "0xce13c1f43b8b58b50bdac3c4c624893ad6cc7c4b"
                            },
                            {
                                "name": "dst",
                                "type": "address",
                                "value": "0x00de4b13153673bcae2616b67bf822500d325fc3"
                            },
                            {
                                "decimalAvailable": true,
                                "name": "wad",
                                "type": "uint256",
                                "value": "250,000,000,000,000,000"
                            }
                        ],
                        "constructorArguments": "",
                        "name": "transferFrom",
                        "returnParams": [
                            {
                                "name": "",
                                "type": "bool",
                                "value": true
                            }
                        ],
                        "signature": "transferFrom(address,address,uint256)"
                    },
                    "errorInfo": "",
                    "fromAddress": "0xdf869fad6db91f437b59f1edefab319493d4c4ce",
                    "gasUsed": 15275,
                    "id": 3,
                    "methodDecoded": true,
                    "operation": "CALL",
                    "output": "0x0000000000000000000000000000000000000000000000000000000000000001",
                    "revert": false,
                    "revertMessage": "",
                    "selector": "0x23b872dd",
                    "status": true,
                    "value": "0"
                },
                "nodeType": 0
            },
            "4": {
                "event": {
                    "contract": "0x6b175474e89094c44da98b954eedeac495271d0f",
                    "decodedLog": {
                        "name": "Transfer",
                        "params": [
                            {
                                "name": "src",
                                "type": "address",
                                "value": "0xce13c1f43b8b58b50bdac3c4c624893ad6cc7c4b"
                            },
                            {
                                "name": "dst",
                                "type": "address",
                                "value": "0x00de4b13153673bcae2616b67bf822500d325fc3"
                            },
                            {
                                "decimalAvailable": true,
                                "name": "wad",
                                "type": "uint256",
                                "value": "250,000,000,000,000,000"
                            }
                        ],
                        "signature": "Transfer(address,address,uint256)"
                    },
                    "id": 4,
                    "logData": "0x00000000000000000000000000000000000000000000000003782dace9d90000",
                    "logDecoded": true,
                    "operation": "EVENT",
                    "revert": false,
                    "status": true,
                    "topics": [
                        "0xddf252ad1be2c89b69c2b068fc378daa952ba7f163c4a11628f55a4df523b3ef",
                        "0x000000000000000000000000ce13c1f43b8b58b50bdac3c4c624893ad6cc7c4b",
                        "0x00000000000000000000000000de4b13153673bcae2616b67bf822500d325fc3"
                    ]
                },
                "nodeType": 1
            }
        },
        "gasFlame": [
            {
                "children": [
                    {
                        "children": [
                            {
                                "children": [],
                                "depth": 0,
                                "name": "Initial Gas",
                                "value": 22556
                            },
                            {
                                "children": [
                                    {
                                        "children": [],
                                        "depth": 1,
                                        "name": "transferFrom",
                                        "value": 23675
                                    },
                                    {
                                        "children": [],
                                        "depth": 1,
                                        "name": "transferFrom",
                                        "value": 15275
                                    }
                                ],
                                "depth": 0,
                                "name": "Executed Gas",
                                "value": 42724
                            }
                        ],
                        "depth": -1,
                        "name": "Actual Gas Used",
                        "value": 50280
                    },
                    {
                        "children": [],
                        "depth": -1,
                        "name": "Refunded Gas",
                        "value": 15000
                    }
                ],
                "depth": -2,
                "name": "Total Gas",
                "value": 65280
            }
        ],
        "isConfirmed": true,
        "mainTrace": [
            {
                "children": [
                    {
                        "children": [
                            {
                                "children": [
                                    {
                                        "children": [],
                                        "depth": 2,
                                        "id": 2,
                                        "order": 2
                                    }
                                ],
                                "depth": 1,
                                "id": 1,
                                "order": 1
                            },
                            {
                                "children": [
                                    {
                                        "children": [],
                                        "depth": 2,
                                        "id": 4,
                                        "order": 4
                                    }
                                ],
                                "depth": 1,
                                "id": 3,
                                "order": 3
                            }
                        ],
                        "depth": 0,
                        "id": 0,
                        "order": 0
                    }
                ],
                "depth": -1,
                "id": -1,
                "order": -1
            }
        ],
        "mainTraceNodeCount": 5,
        "parentIdMap": {
            "0": -1,
            "1": 0,
            "2": 1,
            "3": 0,
            "4": 3
        },
        "tidyTrace": [
            {
                "children": [
                    {
                        "children": [
                            {
                                "children": [
                                    {
                                        "children": [],
                                        "depth": 2,
                                        "id": 2,
                                        "order": 2
                                    }
                                ],
                                "depth": 1,
                                "id": 1,
                                "order": 1
                            },
                            {
                                "children": [
                                    {
                                        "children": [],
                                        "depth": 2,
                                        "id": 4,
                                        "order": 4
                                    }
                                ],
                                "depth": 1,
                                "id": 3,
                                "order": 3
                            }
                        ],
                        "depth": 0,
                        "id": 0,
                        "order": 0
                    }
                ],
                "depth": -1,
                "id": -1,
                "order": -1
            }
        ],
        "tidyTraceNodeCount": 5
    },
    "state_change": {
        "stateChanges": [
            {
                "address": "0x6b175474e89094c44da98b954eedeac495271d0f",
                "erc": "ERC-20",
                "slots": [
                    {
                        "current": "0x0000000000000000000000000000000000000000000000000000000000000000",
                        "key": "0x03bdc79d025174f9fb7ff58f0e85f22f1b87b76f8a5ec283c1a76b0245c7464b",
                        "prev": "0x00000000000000000000000000000000000000000000000048dbbf2f2ecd0000"
                    },
                    {
                        "current": "0x0000000000000000000000000000000000000000000000003092800e75cf42f8",
                        "key": "0x3057cd9ae57f6ad8c6d89c1bd8309955ec526bdb6f769502ea8c42b29a60a15b",
                        "prev": "0x000000000000000000000000000000000000000000000000796e3f3da49c42f8"
                    },
                    {
                        "current": "0x00000000000000000000000000000000000000000000000ef1f9dbaceb12202b",
                        "key": "0x6ec82cda9c67eb3ef1ef4cc400cdaca559439dcb17fa7cbe5d2691e0c3e4a503",
                        "prev": "0x00000000000000000000000000000000000000000000000eac964a2aa61e202b"
                    },
                    {
                        "current": "0x0000000000000000000000000000000000000000000001e284b12d4e051d5274",
                        "key": "0xbeb5055b88b10f7188383812a26a38863eceaf5ffcc2c44eb6bb1a7e8494e1e8",
                        "prev": "0x0000000000000000000000000000000000000000000001e28138ffa11b445274"
                    }
                ],
                "storageVariables": [
                    {
                        "name": "allowance",
                        "type": "mapping(address => mapping(address => uint256))",
                        "value": {
                            "pairs": [
                                {
                                    "key": "0xce13c1f43b8b58b50bdac3c4c624893ad6cc7c4b",
                                    "value": {
                                        "pairs": [
                                            {
                                                "key": "0xdf869fad6db91f437b59f1edefab319493d4c4ce",
                                                "value": {
                                                    "current": "0",
                                                    "prev": "5250000000000000000",
                                                    "typeTag": 1
                                                }
                                            }
                                        ],
                                        "typeTag": 4
                                    }
                                }
                            ],
                            "typeTag": 4
                        }
                    },
                    {
                        "name": "balanceOf",
                        "type": "mapping(address => uint256)",
                        "value": {
                            "pairs": [
                                {
                                    "key": "0x00de4b13153673bcae2616b67bf822500d325fc3",
                                    "value": {
                                        "current": "8900892116825004659316",
                                        "prev": "8900642116825004659316",
                                        "typeTag": 1
                                    }
                                },
                                {
                                    "key": "0xa19fcdad77c1f0fd184689aca88babcf68010347",
                                    "value": {
                                        "current": "275690626000000000043",
                                        "prev": "270690626000000000043",
                                        "typeTag": 1
                                    }
                                },
                                {
                                    "key": "0xce13c1f43b8b58b50bdac3c4c624893ad6cc7c4b",
                                    "value": {
                                        "current": "3500000660014711544",
                                        "prev": "8750000660014711544",
                                        "typeTag": 1
                                    }
                                }
                            ],
                            "typeTag": 4
                        }
                    }
                ]
            }
        ]
    }
}