{
    "balance_change": {
        "balanceChanges": [
            {
                "account": "0x80759af5461007769a7b5b9da21414e1181a9e96",
                "assets": [
                    {
                        "address": "0x0aab3ac447ea90739bdbe4e0e00af0a54038904a",
                        "amount": "69",
                        "iconUrl": "",
                        "isERC1155": false,
                        "isERC721": false,
                        "sign": false,
                        "value": ""
                    }
                ]
            },
            {
                "account": "0xe1853c9d00a5d5f0b4b693401618f579ef40e89d",
                "assets": [
                    {
                        "address": "0x0aab3ac447ea90739bdbe4e0e00af0a54038904a",
                        "amount": "69",
                        "iconUrl": "",
                        "isERC1155": false,
                        "isERC721": false,
                        "sign": true,
                        "value": ""
                    }
                ]
            }
        ]
    },
    "profile": {
        "basic_info": {
            "baseFee": "",
            "blockNumber": 6536780,
            "callData": "0xa9059cbb000000000000000000000000e1853c9d00a5d5f0b4b693401618f579ef40e89d000000000000000000000000000000000000000000000003bd913e6c1df40000",
            "debugEnable": true,
            "errorInfo": "",
            "eventCount": 1,
            "feeRecipient": "0xea674fdde714fd979de3edf0f56aa9716b898ec8",
            "formatValue": "0",
            "gasLimit": 120000,
            "gasPrice": "10",
            "gasUsed": 51489,
            "intTxnCount": 0,
            "internalRevert": false,
            "internalRevertMessage": "",
            "isContractCreation": false,
            "isFlashloan": false,
            "maxFee": "",
            "nonce": 93,
            "overwritedBlockNumber": -1,
            "priorityFee": "",
            "receiver": "0x0aab3ac447ea90739bdbe4e0e00af0a54038904a",
            "revertMessage": "",
            "sender": "0x80759af5461007769a7b5b9da21414e1181a9e96",
            "simulationEnable": true,
            "sourceTxnHash": "0x86fe26fdd287b2c8c0345a5e300b7af6b1311fba83ea2fe38b4c4a73ea6a332d",
            "status": true,
            "timestamp": "2018-10-18T07:31:36Z",
            "transactionFee": "0.00051489",
            "txnHash": "0x86fe26fdd287b2c8c0345a5e300b7af6b1311fba83ea2fe38b4c4a73ea6a332d",
            "txnIndex": 47,
            "type": 0,
            "value": "0"
        },
        "fund_flow": [
            {
                "amount": "69",
                "from": "0x80759af5461007769a7b5b9da21414e1181a9e96",
                "id": 1,
                "isERC1155": false,
                "isERC721": false,
                "isReverted": false,
                "order": 1,
                "to": "0xe1853c9d00a5d5f0b4b693401618f579ef40e89d",
                "token": "0x0aab3ac447ea90739bdbe4e0e00af0a54038904a"
            }
        ],
        "token_infos": [
            {
                "address": "0x0aab3ac447ea90739bdbe4e0e00af0a54038904a",
                "decimals": 18
            },
            {
                "address": "0xc02aaa39b223fe8d0a0e5c4f27ead9083c756cc2",
                "decimals": 18
            },
            {
                "address": "0xeeeeeeeeeeeeeeeeeeeeeeeeeeeeeeeeeeeeeeee",
                "decimals": 18
            }
        ]
    },
    "address_label": {
        "labels": [
            {
                "address": "0x0000000000000000000000000000000000000004",
                "label": "Precompiled"
            },
            {
                "address": "0xeeeeeeeeeeeeeeeeeeeeeeeeeeeeeeeeeeeeeeee",
                "label": "Ether"
            },
            {
                "address": "0x0aab3ac447ea90739bdbe4e0e00af0a54038904a",
                "label": "AWT"
            },
            {
                "address": "0x0000000000000000000000000000000000000001",
                "label": "Precompiled"
            },
            {
                "address": "0x0000000000000000000000000000000000000002",
                "label": "Precompiled"
            },
            {
                "address": "0x0000000000000000000000000000000000000003",
                "label": "Precompiled"
            }
        ]
    },
    "trace": {
        "accountLabels": null,
        "dataMap": {
            "-1": {
                "invocation": {
                    "address": "0x80759af5461007769a7b5b9da21414e1181a9e96",
                    "callData": "",
                    "decodedMethod": null,
                    "errorInfo": "",
                    "fromAddress": "",
                    "gasUsed": 0,
                    "id": -1,
                    "methodDecoded": false,
                    "operation": "",
                    "output": "",
                    "revert": false,
                    "revertMessage": "",
                    "selector": "",
                    "status": false,
                    "value": ""
                },
                "nodeType": 0
            },
            "0": {
                "invocation": {
                    "address": "0x0aab3ac447ea90739bdbe4e0e00af0a54038904a",
                    "callData": "0x000000000000000000000000e1853c9d00a5d5f0b4b693401618f579ef40e89d000000000000000000000000000000000000000000000003bd913e6c1df40000",
                    "decodedMethod": {
                        "callParams": [
                            {
                                "name": "_to",
                                "type": "address",
                                "value": "0xe1853c9d00a5d5f0b4b693401618f579ef40e89d"
                            },
                            {
                                "decimalAvailable": true,
                                "name": "_value",
                                "type": "uint256",
                                "value": "69,000,000,000,000,000,000"
                            }
                        ],
                        "constructorArguments": "",
                        "name": "transfer",
                        "returnParams": [
                            {
                                "name": "success",
                                "type": "bool",
                                "value": true
                            }
                        ],
                        "signature": "transfer(address,uint256)"
                    },
                    "errorInfo": "",
                    "fromAddress": "0x80759af5461007769a7b5b9da21414e1181a9e96",
                    "gasUsed": 51489,
                    "id": 0,
                    "methodDecoded": true,
                    "operation": "CALL",
                    "output": "0x0000000000000000000000000000000000000000000000000000000000000001",
                    "revert": false,
                    "revertMessage": "",
                    "selector": "0xa9059cbb",
                    "status": true,
                    "value": "0"
                },
                "nodeType": 0
            },
            "1": {
                "event": {
                    "contract": "0x0aab3ac447ea90739bdbe4e0e00af0a54038904a",
                    "decodedLog": {
                        "name": "Transfer",
                        "params": [
                            {
                                "name": "fromAddress",
                                "type": "address",
                                "value": "0x80759af5461007769a7b5b9da21414e1181a9e96"
                            },
                            {
                                "name": "toAddress",
                                "type": "address",
                                "value": "0xe1853c9d00a5d5f0b4b693401618f579ef40e89d"
                            },
                            {
                                "decimalAvailable": true,
                                "name": "value",
                                "type": "uint256",
                                "value": "69,000,000,000,000,000,000"
                            }
                        ],
                        "signature": "Transfer(address,address,uint256)"
                    },
                    "id": 1,
                    "logData": "0x000000000000000000000000000000000000000000000003bd913e6c1df40000",
                    "logDecoded": true,
                    "operation": "EVENT",
                    "revert": false,
                    "status": true,
                    "topics": [
                        "0xddf252ad1be2c89b69c2b068fc378daa952ba7f163c4a11628f55a4df523b3ef",
                        "0x00000000000000000000000080759af5461007769a7b5b9da21414e1181a9e96",
                        "0x000000000000000000000000e1853c9d00a5d5f0b4b693401618f579ef40e89d"
                    ]
                },
                "nodeType": 1
            }
        },
        "gasFlame": [
            {
                "children": [
                    {
                        "children": [
                            {
                                "children": [],
                                "depth": 0,
                                "name": "Initial Gas",
                                "value": 23192
                            },
                            {
                                "children": [],
                                "depth": 0,
                                "name": "Executed Gas",
                                "value": 28297
                            }
                        ],
                        "depth": -1,
                        "name": "Actual Gas Used",
                        "value": 51489
                    },
                    {
                        "children": [],
                        "depth": -1,
                        "name": "Refunded Gas",
                        "value": 0
                    }
                ],
                "depth": -2,
                "name": "Total Gas",
                "value": 51489
            }
        ],
        "isConfirmed": true,
        "mainTrace": [
            {
                "children": [
                    {
                        "children": [
                            {
                                "children": [],
                                "depth": 1,
                                "id": 1,
                                "order": 1
                            }
                        ],
                        "depth": 0,
                        "id": 0,
                        "order": 0
                    }
                ],
                "depth": -1,
                "id": -1,
                "order": -1
            }
        ],
        "mainTraceNodeCount": 2,
        "parentIdMap": {
            "0": -1,
            "1": 0
        },
        "tidyTrace": [
            {
                "children": [
                    {
                        "children": [
                            {
                                "children": [],
                                "depth": 1,
                                "id": 1,
                                "order": 1
                            }
                        ],
                        "depth": 0,
                        "id": 0,
                        "order": 0
                    }
                ],
                "depth": -1,
                "id": -1,
                "order": -1
            }
        ],
        "tidyTraceNodeCount": 2
    },
    "state_change": {
        "stateChanges": [
            {
                "address": "0x0aab3ac447ea90739bdbe4e0e00af0a54038904a",
                "erc": "ERC-20",
                "slots": [
                    {
                        "current": "0x000000000000000000000000000000000000000000041f8b8e6e0529fa1c0000",
                        "key": "0x3c8146d935c35354b46496e1e4ecbac0dcfaa8c426632ccbec63bb0c273f37b5",
                        "prev": "0x000000000000000000000000000000000000000000041f8f4bff439618100000"
                    },
                    {
                        "current": "0x000000000000000000000000000000000000000000000003bd913e6c1df40000",
                        "key": "0x285022c6c6842be64ffb1a0355b387e6d4c7ab6aa2aef6d162e8890aa804e4ce",
                        "prev": "0x0000000000000000000000000000000000000000000000000000000000000000"
                    }
                ],
                "storageVariables": [
                    {
                        "name": "balances",
                        "type": "mapping(address => uint256)",
                        "value": {
                            "pairs": [
                                {
                                    "key": "0x80759af5461007769a7b5b9da21414e1181a9e96",
                                    "value": {
                                        "current": "4984671000000000000000000",
                                        "prev": "4984740000000000000000000",
                                        "typeTag": 1
                                    }
                                },
                                {
                                    "key": "0xe1853c9d00a5d5f0b4b693401618f579ef40e89d",
                                    "value": {
                                        "current": "69000000000000000000",
                                        "prev": "0",
                                        "typeTag": 1
                                    }
                                }
                            ],
                            "typeTag": 4
                        }
                    }
                ]
            }
        ]
    }
}