{
    "balance_change": {
        "balanceChanges": [
            {
                "account": "0xb606b2969f4ceed9bee5ef37aff066580215aa56",
                "assets": [
                    {
                        "address": "0x282f1fa0bfb5f87d257c2687a97e6442f9efdfc1",
                        "amount": "391,193,141,822.801298769143922688",
                        "iconUrl": "",
                        "isERC1155": false,
                        "isERC721": false,
                        "sign": false,
                        "value": "270.8250106"
                    },
                    {
                        "address": "0xc02aaa39b223fe8d0a0e5c4f27ead9083c756cc2",
                        "amount": "0.146349179482568253",
                        "iconUrl": "https://assets.blocksec.com/icon/f1cb2d02c471d545bbc7722daf3277fd852d98e63d118771af7047bd8256c516.png",
                        "isERC1155": false,
                        "isERC721": false,
                        "sign": true,
                        "value": "271.66651841405499468"
                    }
                ]
            },
            {
                "account": "0xdce6eca525b4b033ea57f025a45d65476415b2e5",
                "assets": [
                    {
                        "address": "0x282f1fa0bfb5f87d257c2687a97e6442f9efdfc1",
                        "amount": "391,193,141,822.801298769143922688",
                        "iconUrl": "",
                        "isERC1155": false,
                        "isERC721": false,
                        "sign": true,
                        "value": "270.8250106"
                    },
                    {
                        "address": "0xc02aaa39b223fe8d0a0e5c4f27ead9083c756cc2",
                        "amount": "0.146349179482568253",
                        "iconUrl": "https://assets.blocksec.com/icon/f1cb2d02c471d545bbc7722daf3277fd852d98e63d118771af7047bd8256c516.png",
                        "isERC1155": false,
                        "isERC721": false,
                        "sign": false,
                        "value": "271.66651841405499468"
                    }
                ]
            }
        ]
    },
    "profile": {
        "basic_info": {
            "baseFee": "47.265053888",
            "blockNumber": 17586776,
            "callData": "0x5c11d7950000000000000000000000000000000000000004f00361f7491a8000000000000000000000000000000000000000000000000000000000000202bcc3ebaa846a00000000000000000000000000000000000000000000000000000000000000a0000000000000000000000000b606b2969f4ceed9bee5ef37aff066580215aa5600000000000000000000000000000000000000000000000000000000649dd07d0000000000000000000000000000000000000000000000000000000000000002000000000000000000000000282f1fa0bfb5f87d257c2687a97e6442f9efdfc1000000000000000000000000c02aaa39b223fe8d0a0e5c4f27ead9083c756cc2",
            "debugEnable": true,
            "errorInfo": "",
            "eventCount": 5,
            "feeRecipient": "0xa1feaf41d843d53d0f6bed86a8cf592ce21c409e",
            "formatValue": "0",
            "gasLimit": 2000000,
            "gasPrice": "50.261829945",
            "gasUsed": 114643,
            "intTxnCount": 12,
            "internalRevert": false,
            "internalRevertMessage": "",
            "isContractCreation": false,
            "isFlashloan": false,
            "maxFee": "",
            "nonce": 76,
            "overwritedBlockNumber": -1,
            "priorityFee": "",
            "receiver": "0x7a250d5630b4cf539739df2c5dacb4c659f2488d",
            "revertMessage": "",
            "sender": "0xb606b2969f4ceed9bee5ef37aff066580215aa56",
            "simulationEnable": true,
            "sourceTxnHash": "0x86234a7882aa46a3ffe20ddd29407d72a595baa7d938e0f58552c933bf464450",
            "status": true,
            "timestamp": "2023-06-29T18:36:11Z",
            "transactionFee": "0.005762166970384635",
            "txnHash": "0x86234a7882aa46a3ffe20ddd29407d72a595baa7d938e0f58552c933bf464450",
            "txnIndex": 117,
            "type": 0,
            "value": "0"
        },
        "fund_flow": [
            {
                "amount": "391,193,141,822.801298769143922688",
                "from": "0xb606b2969f4ceed9bee5ef37aff066580215aa56",
                "id": 1,
                "isERC1155": false,
                "isERC721": false,
                "isReverted": false,
                "order": 1,
                "to": "0xdce6eca525b4b033ea57f025a45d65476415b2e5",
                "token": "0x282f1fa0bfb5f87d257c2687a97e6442f9efdfc1"
            },
            {
                "amount": "0.146349179482568253",
                "from": "0xdce6eca525b4b033ea57f025a45d65476415b2e5",
                "id": 2,
                "isERC1155": false,
                "isERC721": false,
                "isReverted": false,
                "order": 2,
                "to": "0xb606b2969f4ceed9bee5ef37aff066580215aa56",
                "token": "0xc02aaa39b223fe8d0a0e5c4f27ead9083c756cc2"
            }
        ],
        "token_infos": [
            {
                "address": "0xc02aaa39b223fe8d0a0e5c4f27ead9083c756cc2",
                "decimals": 18
            },
            {
                "address": "0xeeeeeeeeeeeeeeeeeeeeeeeeeeeeeeeeeeeeeeee",
                "decimals": 18
            },
            {
                "address": "0x282f1fa0bfb5f87d257c2687a97e6442f9efdfc1",
                "decimals": 18
            }
        ]
    },
    "address_label": {
        "labels": [
            {
                "address": "0xdce6eca525b4b033ea57f025a45d65476415b2e5",
                "label": "Uniswap V2: OBAYC"
            },
            {
                "address": "0xc02aaa39b223fe8d0a0e5c4f27ead9083c756cc2",
                "label": "Wrapped Ether (WETH)"
            },
            {
                "address": "0x282f1fa0bfb5f87d257c2687a97e6442f9efdfc1",
                "label": "Ordinal Bored Ape Yacht Club (OBAYC)"
            },
            {
                "address": "0x0000000000000000000000000000000000000001",
                "label": "Precompiled"
            },
            {
                "address": "0x0000000000000000000000000000000000000002",
                "label": "Precompiled"
            },
            {
                "address": "0x0000000000000000000000000000000000000003",
                "label": "Precompiled"
            },
            {
                "address": "0xeeeeeeeeeeeeeeeeeeeeeeeeeeeeeeeeeeeeeeee",
                "label": "Ether"
            },
            {
                "address": "0x7b0fce54574d9746414d11367f54c9ab94e53dca",
                "label": "Fractional: Token Vault"
            },
            {
                "address": "0x0000000000000000000000000000000000000004",
                "label": "Precompiled"
            },
            {
                "address": "0x7a250d5630b4cf539739df2c5dacb4c659f2488d",
                "label": "Uniswap V2: Router 2"
            }
        ]
    },
    "trace": {
        "accountLabels": null,
        "dataMap": {
            "-1": {
                "invocation": {
                    "address": "0xb606b2969f4ceed9bee5ef37aff066580215aa56",
                    "callData": "",
                    "decodedMethod": null,
                    "errorInfo": "",
                    "fromAddress": "",
                    "gasUsed": 0,
                    "id": -1,
                    "methodDecoded": false,
                    "operation": "",
                    "output": "",
                    "revert": false,
                    "revertMessage": "",
                    "selector": "",
                    "status": false,
                    "value": ""
                },
                "nodeType": 0
            },
            "0": {
                "invocation": {
                    "address": "0x7a250d5630b4cf539739df2c5dacb4c659f2488d",
                    "callData": "0x0000000000000000000000000000000000000004f00361f7491a8000000000000000000000000000000000000000000000000000000000000202bcc3ebaa846a00000000000000000000000000000000000000000000000000000000000000a0000000000000000000000000b606b2969f4ceed9bee5ef37aff066580215aa5600000000000000000000000000000000000000000000000000000000649dd07d0000000000000000000000000000000000000000000000000000000000000002000000000000000000000000282f1fa0bfb5f87d257c2687a97e6442f9efdfc1000000000000000000000000c02aaa39b223fe8d0a0e5c4f27ead9083c756cc2",
                    "decodedMethod": {
                        "callParams": [
                            {
                                "name": "amountIn",
                                "type": "uint256",
                                "value": "391,193,141,822,801,298,769,143,922,688"
                            },
                            {
                                "name": "amountOutMin",
                                "type": "uint256",
                                "value": "144,885,687,687,742,570"
                            },
                            {
                                "name": "path",
                                "type": "address[]",
                                "value": [
                                    "0x282f1fa0bfb5f87d257c2687a97e6442f9efdfc1",
                                    "0xc02aaa39b223fe8d0a0e5c4f27ead9083c756cc2"
                                ]
                            },
                            {
                                "name": "to",
                                "type": "address",
                                "value": "0xb606b2969f4ceed9bee5ef37aff066580215aa56"
                            },
                            {
                                "name": "deadline",
                                "type": "uint256",
                                "value": "1,688,064,125"
                            }
                        ],
                        "constructorArguments": "",
                        "name": "swapExactTokensForTokensSupportingFeeOnTransferTokens",
                        "returnParams": [],
                        "signature": "swapExactTokensForTokensSupportingFeeOnTransferTokens(uint256,uint256,address[],address,uint256)"
                    },
                    "errorInfo": "",
                    "fromAddress": "0xb606b2969f4ceed9bee5ef37aff066580215aa56",
                    "gasUsed": 114643,
                    "id": 0,
                    "methodDecoded": true,
                    "operation": "CALL",
                    "output": "",
                    "revert": false,
                    "revertMessage": "",
                    "selector": "0x5c11d795",
                    "status": true,
                    "value": "0"
                },
                "nodeType": 0
            },
            "1": {
                "invocation": {
                    "address": "0x282f1fa0bfb5f87d257c2687a97e6442f9efdfc1",
                    "callData": "0x000000000000000000000000b606b2969f4ceed9bee5ef37aff066580215aa56000000000000000000000000dce6eca525b4b033ea57f025a45d65476415b2e50000000000000000000000000000000000000004f00361f7491a800000000000",
                    "decodedMethod": {
                        "callParams": [
                            {
                                "name": "sender",
                                "type": "address",
                                "value": "0xb606b2969f4ceed9bee5ef37aff066580215aa56"
                            },
                            {
                                "name": "recipient",
                                "type": "address",
                                "value": "0xdce6eca525b4b033ea57f025a45d65476415b2e5"
                            },
                            {
                                "decimalAvailable": true,
                                "name": "amount",
                                "type": "uint256",
                                "value": "391,193,141,822,801,298,769,143,922,688"
                            }
                        ],
                        "constructorArguments": "",
                        "name": "transferFrom",
                        "returnParams": [
                            {
                                "name": "",
                                "type": "bool",
                                "value": true
                            }
                        ],
                        "signature": "transferFrom(address,address,uint256)"
                    },
                    "errorInfo": "",
                    "fromAddress": "0x7a250d5630b4cf539739df2c5dacb4c659f2488d",
                    "gasUsed": 29674,
                    "id": 1,
                    "methodDecoded": true,
                    "operation": "CALL",
                    "output": "0x0000000000000000000000000000000000000000000000000000000000000001",
                    "revert": false,
                    "revertMessage": "",
                    "selector": "0x23b872dd",
                    "status": true,
                    "value": "0"
                },
                "nodeType": 0
            },
            "10": {
                "invocation": {
                    "address": "0xc02aaa39b223fe8d0a0e5c4f27ead9083c756cc2",
                    "callData": "0x000000000000000000000000b606b2969f4ceed9bee5ef37aff066580215aa560000000000000000000000000000000000000000000000000207efcda83a763d",
                    "decodedMethod": {
                        "callParams": [
                            {
                                "name": "dst",
                                "type": "address",
                                "value": "0xb606b2969f4ceed9bee5ef37aff066580215aa56"
                            },
                            {
                                "decimalAvailable": true,
                                "name": "wad",
                                "type": "uint256",
                                "value": "146,349,179,482,568,253"
                            }
                        ],
                        "constructorArguments": "",
                        "name": "transfer",
                        "returnParams": [
                            {
                                "name": "",
                                "type": "bool",
                                "value": true
                            }
                        ],
                        "signature": "transfer(address,uint256)"
                    },
                    "errorInfo": "",
                    "fromAddress": "0xdce6eca525b4b033ea57f025a45d65476415b2e5",
                    "gasUsed": 10862,
                    "id": 10,
                    "methodDecoded": true,
                    "operation": "CALL",
                    "output": "0x0000000000000000000000000000000000000000000000000000000000000001",
                    "revert": false,
                    "revertMessage": "",
                    "selector": "0xa9059cbb",
                    "status": true,
                    "value": "0"
                },
                "nodeType": 0
            },
            "11": {
                "event": {
                    "contract": "0xc02aaa39b223fe8d0a0e5c4f27ead9083c756cc2",
                    "decodedLog": {
                        "name": "Transfer",
                        "params": [
                            {
                                "name": "src",
                                "type": "address",
                                "value": "0xdce6eca525b4b033ea57f025a45d65476415b2e5"
                            },
                            {
                                "name": "dst",
                                "type": "address",
                                "value": "0xb606b2969f4ceed9bee5ef37aff066580215aa56"
                            },
                            {
                                "decimalAvailable": true,
                                "name": "wad",
                                "type": "uint256",
                                "value": "146,349,179,482,568,253"
                            }
                        ],
                        "signature": "Transfer(address,address,uint256)"
                    },
                    "id": 11,
                    "logData": "0x0000000000000000000000000000000000000000000000000207efcda83a763d",
                    "logDecoded": true,
                    "operation": "EVENT",
                    "revert": false,
                    "status": true,
                    "topics": [
                        "0xddf252ad1be2c89b69c2b068fc378daa952ba7f163c4a11628f55a4df523b3ef",
                        "0x000000000000000000000000dce6eca525b4b033ea57f025a45d65476415b2e5",
                        "0x000000000000000000000000b606b2969f4ceed9bee5ef37aff066580215aa56"
                    ]
                },
                "nodeType": 1
            },
            "12": {
                "invocation": {
                    "address": "0x282f1fa0bfb5f87d257c2687a97e6442f9efdfc1",
                    "callData": "0x000000000000000000000000dce6eca525b4b033ea57f025a45d65476415b2e5",
                    "decodedMethod": {
                        "callParams": [
                            {
                                "name": "account",
                                "type": "address",
                                "value": "0xdce6eca525b4b033ea57f025a45d65476415b2e5"
                            }
                        ],
                        "constructorArguments": "",
                        "name": "balanceOf",
                        "returnParams": [
                            {
                                "decimalAvailable": true,
                                "name": "",
                                "type": "uint256",
                                "value": "208,908,089,507,387,093,852,151,184,602,126"
                            }
                        ],
                        "signature": "balanceOf(address)"
                    },
                    "errorInfo": "",
                    "fromAddress": "0xdce6eca525b4b033ea57f025a45d65476415b2e5",
                    "gasUsed": 882,
                    "id": 12,
                    "methodDecoded": true,
                    "operation": "STATICCALL",
                    "output": "0x0000000000000000000000000000000000000a4cca71722d43da2b7690cfb40e",
                    "revert": false,
                    "revertMessage": "",
                    "selector": "0x70a08231",
                    "status": true,
                    "value": "0"
                },
                "nodeType": 0
            },
            "13": {
                "invocation": {
                    "address": "0x7b0fce54574d9746414d11367f54c9ab94e53dca",
                    "callData": "0x000000000000000000000000dce6eca525b4b033ea57f025a45d65476415b2e5",
                    "decodedMethod": {
                        "callParams": [
                            {
                                "name": "account",
                                "type": "address",
                                "value": "0xdce6eca525b4b033ea57f025a45d65476415b2e5"
                            }
                        ],
                        "constructorArguments": "",
                        "name": "balanceOf",
                        "returnParams": [
                            {
                                "decimalAvailable": true,
                                "name": "",
                                "type": "uint256",
                                "value": "208,908,089,507,387,093,852,151,184,602,126"
                            }
                        ],
                        "signature": "balanceOf(address)"
                    },
                    "errorInfo": "",
                    "fromAddress": "0x282f1fa0bfb5f87d257c2687a97e6442f9efdfc1",
                    "gasUsed": 598,
                    "id": 13,
                    "methodDecoded": true,
                    "operation": "DELEGATECALL",
                    "output": "0x0000000000000000000000000000000000000a4cca71722d43da2b7690cfb40e",
                    "revert": false,
                    "revertMessage": "",
                    "selector": "0x70a08231",
                    "status": true,
                    "value": "0"
                },
                "nodeType": 0
            },
            "14": {
                "invocation": {
                    "address": "0xc02aaa39b223fe8d0a0e5c4f27ead9083c756cc2",
                    "callData": "0x000000000000000000000000dce6eca525b4b033ea57f025a45d65476415b2e5",
                    "decodedMethod": {
                        "callParams": [
                            {
                                "name": "",
                                "type": "address",
                                "value": "0xdce6eca525b4b033ea57f025a45d65476415b2e5"
                            }
                        ],
                        "constructorArguments": "",
                        "name": "balanceOf",
                        "returnParams": [
                            {
                                "decimalAvailable": true,
                                "name": "",
                                "type": "uint256",
                                "value": "78,242,938,645,891,713,547"
                            }
                        ],
                        "signature": "balanceOf(address)"
                    },
                    "errorInfo": "",
                    "fromAddress": "0xdce6eca525b4b033ea57f025a45d65476415b2e5",
                    "gasUsed": 534,
                    "id": 14,
                    "methodDecoded": true,
                    "operation": "STATICCALL",
                    "output": "0x0000000000000000000000000000000000000000000000043dd6c2264b0f0a0b",
                    "revert": false,
                    "revertMessage": "",
                    "selector": "0x70a08231",
                    "status": true,
                    "value": "0"
                },
                "nodeType": 0
            },
            "15": {
                "event": {
                    "contract": "0xdce6eca525b4b033ea57f025a45d65476415b2e5",
                    "decodedLog": {
                        "name": "Sync",
                        "params": [
                            {
                                "name": "reserve0",
                                "type": "uint112",
                                "value": "208,908,089,507,387,093,852,151,184,602,126"
                            },
                            {
                                "name": "reserve1",
                                "type": "uint112",
                                "value": "78,242,938,645,891,713,547"
                            }
                        ],
                        "signature": "Sync(uint112,uint112)"
                    },
                    "id": 15,
                    "logData": "0x0000000000000000000000000000000000000a4cca71722d43da2b7690cfb40e0000000000000000000000000000000000000000000000043dd6c2264b0f0a0b",
                    "logDecoded": true,
                    "operation": "EVENT",
                    "revert": false,
                    "status": true,
                    "topics": [
                        "0x1c411e9a96e071241c2f21f7726b17ae89e3cab4c78be50e062b03a9fffbbad1"
                    ]
                },
                "nodeType": 1
            },
            "16": {
                "event": {
                    "contract": "0xdce6eca525b4b033ea57f025a45d65476415b2e5",
                    "decodedLog": {
                        "name": "Swap",
                        "params": [
                            {
                                "name": "sender",
                                "type": "address",
                                "value": "0x7a250d5630b4cf539739df2c5dacb4c659f2488d"
                            },
                            {
                                "name": "to",
                                "type": "address",
                                "value": "0xb606b2969f4ceed9bee5ef37aff066580215aa56"
                            },
                            {
                                "name": "amount0In",
                                "type": "uint256",
                                "value": "391,193,141,822,801,298,769,143,922,688"
                            },
                            {
                                "name": "amount1In",
                                "type": "uint256",
                                "value": "0"
                            },
                            {
                                "name": "amount0Out",
                                "type": "uint256",
                                "value": "0"
                            },
                            {
                                "name": "amount1Out",
                                "type": "uint256",
                                "value": "146,349,179,482,568,253"
                            }
                        ],
                        "signature": "Swap(address,uint256,uint256,uint256,uint256,address)"
                    },
                    "id": 16,
                    "logData": "0x0000000000000000000000000000000000000004f00361f7491a800000000000000000000000000000000000000000000000000000000000000000000000000000000000000000000000000000000000000000000000000000000000000000000000000000000000000000000000000000000000000000000207efcda83a763d",
                    "logDecoded": true,
                    "operation": "EVENT",
                    "revert": false,
                    "status": true,
                    "topics": [
                        "0xd78ad95fa46c994b6551d0da85fc275fe613ce37657fb8d5e3d130840159d822",
                        "0x0000000000000000000000007a250d5630b4cf539739df2c5dacb4c659f2488d",
                        "0x000000000000000000000000b606b2969f4ceed9bee5ef37aff066580215aa56"
                    ]
                },
                "nodeType": 1
            },
            "17": {
                "invocation": {
                    "address": "0xc02aaa39b223fe8d0a0e5c4f27ead9083c756cc2",
                    "callData": "0x000000000000000000000000b606b2969f4ceed9bee5ef37aff066580215aa56",
                    "decodedMethod": {
                        "callParams": [
                            {
                                "name": "",
                                "type": "address",
                                "value": "0xb606b2969f4ceed9bee5ef37aff066580215aa56"
                            }
                        ],
                        "constructorArguments": "",
                        "name": "balanceOf",
                        "returnParams": [
                            {
                                "decimalAvailable": true,
                                "name": "",
                                "type": "uint256",
                                "value": "627,324,495,482,373,844"
                            }
                        ],
                        "signature": "balanceOf(address)"
                    },
                    "errorInfo": "",
                    "fromAddress": "0x7a250d5630b4cf539739df2c5dacb4c659f2488d",
                    "gasUsed": 534,
                    "id": 17,
                    "methodDecoded": true,
                    "operation": "STATICCALL",
                    "output": "0x00000000000000000000000000000000000000000000000008b4b44e1020c6d4",
                    "revert": false,
                    "revertMessage": "",
                    "selector": "0x70a08231",
                    "status": true,
                    "value": "0"
                },
                "nodeType": 0
            },
            "2": {
                "invocation": {
                    "address": "0x7b0fce54574d9746414d11367f54c9ab94e53dca",
                    "callData": "0x000000000000000000000000b606b2969f4ceed9bee5ef37aff066580215aa56000000000000000000000000dce6eca525b4b033ea57f025a45d65476415b2e50000000000000000000000000000000000000004f00361f7491a800000000000",
                    "decodedMethod": {
                        "callParams": [
                            {
                                "name": "sender",
                                "type": "address",
                                "value": "0xb606b2969f4ceed9bee5ef37aff066580215aa56"
                            },
                            {
                                "name": "recipient",
                                "type": "address",
                                "value": "0xdce6eca525b4b033ea57f025a45d65476415b2e5"
                            },
                            {
                                "decimalAvailable": true,
                                "name": "amount",
                                "type": "uint256",
                                "value": "391,193,141,822,801,298,769,143,922,688"
                            }
                        ],
                        "constructorArguments": "",
                        "name": "transferFrom",
                        "returnParams": [
                            {
                                "name": "",
                                "type": "bool",
                                "value": true
                            }
                        ],
                        "signature": "transferFrom(address,address,uint256)"
                    },
                    "errorInfo": "",
                    "fromAddress": "0x282f1fa0bfb5f87d257c2687a97e6442f9efdfc1",
                    "gasUsed": 26878,
                    "id": 2,
                    "methodDecoded": true,
                    "operation": "DELEGATECALL",
                    "output": "0x0000000000000000000000000000000000000000000000000000000000000001",
                    "revert": false,
                    "revertMessage": "",
                    "selector": "0x23b872dd",
                    "status": true,
                    "value": "0"
                },
                "nodeType": 0
            },
            "3": {
                "event": {
                    "contract": "0x282f1fa0bfb5f87d257c2687a97e6442f9efdfc1",
                    "decodedLog": {
                        "name": "Transfer",
                        "params": [
                            {
                                "name": "from",
                                "type": "address",
                                "value": "0xb606b2969f4ceed9bee5ef37aff066580215aa56"
                            },
                            {
                                "name": "to",
                                "type": "address",
                                "value": "0xdce6eca525b4b033ea57f025a45d65476415b2e5"
                            },
                            {
                                "decimalAvailable": true,
                                "name": "value",
                                "type": "uint256",
                                "value": "391,193,141,822,801,298,769,143,922,688"
                            }
                        ],
                        "signature": "Transfer(address,address,uint256)"
                    },
                    "id": 3,
                    "logData": "0x0000000000000000000000000000000000000004f00361f7491a800000000000",
                    "logDecoded": true,
                    "operation": "EVENT",
                    "revert": false,
                    "status": true,
                    "topics": [
                        "0xddf252ad1be2c89b69c2b068fc378daa952ba7f163c4a11628f55a4df523b3ef",
                        "0x000000000000000000000000b606b2969f4ceed9bee5ef37aff066580215aa56",
                        "0x000000000000000000000000dce6eca525b4b033ea57f025a45d65476415b2e5"
                    ]
                },
                "nodeType": 1
            },
            "4": {
                "event": {
                    "contract": "0x282f1fa0bfb5f87d257c2687a97e6442f9efdfc1",
                    "decodedLog": {
                        "name": "Approval",
                        "params": [
                            {
                                "name": "owner",
                                "type": "address",
                                "value": "0xb606b2969f4ceed9bee5ef37aff066580215aa56"
                            },
                            {
                                "name": "spender",
                                "type": "address",
                                "value": "0x7a250d5630b4cf539739df2c5dacb4c659f2488d"
                            },
                            {
                                "decimalAvailable": true,
                                "name": "value",
                                "type": "uint256",
                                "value": "115,792,089,237,316,195,423,570,985,008,687,907,853,269,984,658,080,280,540,908,494,836,993,039,007,743"
                            }
                        ],
                        "signature": "Approval(address,address,uint256)"
                    },
                    "id": 4,
                    "logData": "0xffffffffffffffffffffffffffffffffffffffa093681089569fc7ffffffffff",
                    "logDecoded": true,
                    "operation": "EVENT",
                    "revert": false,
                    "status": true,
                    "topics": [
                        "0x8c5be1e5ebec7d5bd14f71427d1e84f3dd0314c0f7b2291e5b200ac8c7c3b925",
                        "0x000000000000000000000000b606b2969f4ceed9bee5ef37aff066580215aa56",
                        "0x0000000000000000000000007a250d5630b4cf539739df2c5dacb4c659f2488d"
                    ]
                },
                "nodeType": 1
            },
            "5": {
                "invocation": {
                    "address": "0xc02aaa39b223fe8d0a0e5c4f27ead9083c756cc2",
                    "callData": "0x000000000000000000000000b606b2969f4ceed9bee5ef37aff066580215aa56",
                    "decodedMethod": {
                        "callParams": [
                            {
                                "name": "",
                                "type": "address",
                                "value": "0xb606b2969f4ceed9bee5ef37aff066580215aa56"
                            }
                        ],
                        "constructorArguments": "",
                        "name": "balanceOf",
                        "returnParams": [
                            {
                                "decimalAvailable": true,
                                "name": "",
                                "type": "uint256",
                                "value": "480,975,315,999,805,591"
                            }
                        ],
                        "signature": "balanceOf(address)"
                    },
                    "errorInfo": "",
                    "fromAddress": "0x7a250d5630b4cf539739df2c5dacb4c659f2488d",
                    "gasUsed": 2534,
                    "id": 5,
                    "methodDecoded": true,
                    "operation": "STATICCALL",
                    "output": "0x00000000000000000000000000000000000000000000000006acc48067e65097",
                    "revert": false,
                    "revertMessage": "",
                    "selector": "0x70a08231",
                    "status": true,
                    "value": "0"
                },
                "nodeType": 0
            },
            "6": {
                "invocation": {
                    "address": "0xdce6eca525b4b033ea57f025a45d65476415b2e5",
                    "callData": "0x",
                    "decodedMethod": {
                        "callParams": [],
                        "constructorArguments": "",
                        "name": "getReserves",
                        "returnParams": [
                            {
                                "name": "_reserve0",
                                "type": "uint112",
                                "value": "208,516,896,365,564,292,553,382,040,679,438"
                            },
                            {
                                "name": "_reserve1",
                                "type": "uint112",
                                "value": "78,389,287,825,374,281,800"
                            },
                            {
                                "name": "_blockTimestampLast",
                                "type": "uint32",
                                "value": "1,688,061,887"
                            }
                        ],
                        "signature": "getReserves()"
                    },
                    "errorInfo": "",
                    "fromAddress": "0x7a250d5630b4cf539739df2c5dacb4c659f2488d",
                    "gasUsed": 2504,
                    "id": 6,
                    "methodDecoded": true,
                    "operation": "STATICCALL",
                    "output": "0x0000000000000000000000000000000000000a47da6e1035fabfab7690cfb40e0000000000000000000000000000000000000000000000043fdeb1f3f349804800000000000000000000000000000000000000000000000000000000649dc7bf",
                    "revert": false,
                    "revertMessage": "",
                    "selector": "0x0902f1ac",
                    "status": true,
                    "value": "0"
                },
                "nodeType": 0
            },
            "7": {
                "invocation": {
                    "address": "0x282f1fa0bfb5f87d257c2687a97e6442f9efdfc1",
                    "callData": "0x000000000000000000000000dce6eca525b4b033ea57f025a45d65476415b2e5",
                    "decodedMethod": {
                        "callParams": [
                            {
                                "name": "account",
                                "type": "address",
                                "value": "0xdce6eca525b4b033ea57f025a45d65476415b2e5"
                            }
                        ],
                        "constructorArguments": "",
                        "name": "balanceOf",
                        "returnParams": [
                            {
                                "decimalAvailable": true,
                                "name": "",
                                "type": "uint256",
                                "value": "208,908,089,507,387,093,852,151,184,602,126"
                            }
                        ],
                        "signature": "balanceOf(address)"
                    },
                    "errorInfo": "",
                    "fromAddress": "0x7a250d5630b4cf539739df2c5dacb4c659f2488d",
                    "gasUsed": 882,
                    "id": 7,
                    "methodDecoded": true,
                    "operation": "STATICCALL",
                    "output": "0x0000000000000000000000000000000000000a4cca71722d43da2b7690cfb40e",
                    "revert": false,
                    "revertMessage": "",
                    "selector": "0x70a08231",
                    "status": true,
                    "value": "0"
                },
                "nodeType": 0
            },
            "8": {
                "invocation": {
                    "address": "0x7b0fce54574d9746414d11367f54c9ab94e53dca",
                    "callData": "0x000000000000000000000000dce6eca525b4b033ea57f025a45d65476415b2e5",
                    "decodedMethod": {
                        "callParams": [
                            {
                                "name": "account",
                                "type": "address",
                                "value": "0xdce6eca525b4b033ea57f025a45d65476415b2e5"
                            }
                        ],
                        "constructorArguments": "",
                        "name": "balanceOf",
                        "returnParams": [
                            {
                                "decimalAvailable": true,
                                "name": "",
                                "type": "uint256",
                                "value": "208,908,089,507,387,093,852,151,184,602,126"
                            }
                        ],
                        "signature": "balanceOf(address)"
                    },
                    "errorInfo": "",
                    "fromAddress": "0x282f1fa0bfb5f87d257c2687a97e6442f9efdfc1",
                    "gasUsed": 598,
                    "id": 8,
                    "methodDecoded": true,
                    "operation": "DELEGATECALL",
                    "output": "0x0000000000000000000000000000000000000a4cca71722d43da2b7690cfb40e",
                    "revert": false,
                    "revertMessage": "",
                    "selector": "0x70a08231",
                    "status": true,
                    "value": "0"
                },
                "nodeType": 0
            },
            "9": {
                "invocation": {
                    "address": "0xdce6eca525b4b033ea57f025a45d65476415b2e5",
                    "callData": "0x00000000000000000000000000000000000000000000000000000000000000000000000000000000000000000000000000000000000000000207efcda83a763d000000000000000000000000b606b2969f4ceed9bee5ef37aff066580215aa5600000000000000000000000000000000000000000000000000000000000000800000000000000000000000000000000000000000000000000000000000000000",
                    "decodedMethod": {
                        "callParams": [
                            {
                                "name": "amount0Out",
                                "type": "uint256",
                                "value": "0"
                            },
                            {
                                "name": "amount1Out",
                                "type": "uint256",
                                "value": "146,349,179,482,568,253"
                            },
                            {
                                "name": "to",
                                "type": "address",
                                "value": "0xb606b2969f4ceed9bee5ef37aff066580215aa56"
                            },
                            {
                                "name": "data",
                                "type": "bytes",
                                "value": "0x"
                            }
                        ],
                        "constructorArguments": "",
                        "name": "swap",
                        "returnParams": [],
                        "signature": "swap(uint256,uint256,address,bytes)"
                    },
                    "errorInfo": "",
                    "fromAddress": "0x7a250d5630b4cf539739df2c5dacb4c659f2488d",
                    "gasUsed": 43601,
                    "id": 9,
                    "methodDecoded": true,
                    "operation": "CALL",
                    "output": "",
                    "revert": false,
                    "revertMessage": "",
                    "selector": "0x022c0d9f",
                    "status": true,
                    "value": "0"
                },
                "nodeType": 0
            }
        },
        "gasFlame": [
            {
                "children": [
                    {
                        "children": [
                            {
                                "children": [],
                                "depth": 0,
                                "name": "Initial Gas",
                                "value": 23072
                            },
                            {
                                "children": [
                                    {
                                        "children": [
                                            {
                                                "children": [],
                                                "depth": 2,
                                                "name": "transferFrom",
                                                "value": 26878
                                            }
                                        ],
                                        "depth": 1,
                                        "name": "transferFrom",
                                        "value": 29674
                                    },
                                    {
                                        "children": [],
                                        "depth": 1,
                                        "name": "balanceOf",
                                        "value": 2534
                                    },
                                    {
                                        "children": [],
                                        "depth": 1,
                                        "name": "getReserves",
                                        "value": 2504
                                    },
                                    {
                                        "children": [
                                            {
                                                "children": [],
                                                "depth": 2,
                                                "name": "balanceOf",
                                                "value": 598
                                            }
                                        ],
                                        "depth": 1,
                                        "name": "balanceOf",
                                        "value": 882
                                    },
                                    {
                                        "children": [
                                            {
                                                "children": [],
                                                "depth": 2,
                                                "name": "transfer",
                                                "value": 10862
                                            },
                                            {
                                                "children": [
                                                    {
                                                        "children": [],
                                                        "depth": 3,
                                                        "name": "balanceOf",
                                                        "value": 598
                                                    }
                                                ],
                                                "depth": 2,
                                                "name": "balanceOf",
                                                "value": 882
                                            },
                                            {
                                                "children": [],
                                                "depth": 2,
                                                "name": "balanceOf",
                                                "value": 534
                                            }
                                        ],
                                        "depth": 1,
                                        "name": "swap",
                                        "value": 43601
                                    },
                                    {
                                        "children": [],
                                        "depth": 1,
                                        "name": "balanceOf",
                                        "value": 534
                                    }
                                ],
                                "depth": 0,
                                "name": "Executed Gas",
                                "value": 94371
                            }
                        ],
                        "depth": -1,
                        "name": "Actual Gas Used",
                        "value": 114643
                    },
                    {
                        "children": [],
                        "depth": -1,
                        "name": "Refunded Gas",
                        "value": 2800
                    }
                ],
                "depth": -2,
                "name": "Total Gas",
                "value": 117443
            }
        ],
        "isConfirmed": true,
        "mainTrace": [
            {
                "children": [
                    {
                        "children": [
                            {
                                "children": [
                                    {
                                        "children": [
                                            {
                                                "children": [],
                                                "depth": 3,
                                                "id": 3,
                                                "order": 3
                                            },
                                            {
                                                "children": [],
                                                "depth": 3,
                                                "id": 4,
                                                "order": 4
                                            }
                                        ],
                                        "depth": 2,
                                        "id": 2,
                                        "order": 2
                                    }
                                ],
                                "depth": 1,
                                "id": 1,
                                "order": 1
                            },
                            {
                                "children": [],
                                "depth": 1,
                                "id": 5,
                                "order": 5
                            },
                            {
                                "children": [],
                                "depth": 1,
                                "id": 6,
                                "order": 6
                            },
                            {
                                "children": [
                                    {
                                        "children": [],
                                        "depth": 2,
                                        "id": 8,
                                        "order": 8
                                    }
                                ],
                                "depth": 1,
                                "id": 7,
                                "order": 7
                            },
                            {
                                "children": [
                                    {
                                        "children": [
                                            {
                                                "children": [],
                                                "depth": 3,
                                                "id": 11,
                                                "order": 11
                                            }
                                        ],
                                        "depth": 2,
                                        "id": 10,
                                        "order": 10
                                    },
                                    {
                                        "children": [
                                            {
                                                "children": [],
                                                "depth": 3,
                                                "id": 13,
                                                "order": 13
                                            }
                                        ],
                                        "depth": 2,
                                        "id": 12,
                                        "order": 12
                                    },
                                    {
                                        "children": [],
                                        "depth": 2,
                                        "id": 14,
                                        "order": 14
                                    },
                                    {
                                        "children": [],
                                        "depth": 2,
                                        "id": 15,
                                        "order": 15
                                    },
                                    {
                                        "children": [],
                                        "depth": 2,
                                        "id": 16,
                                        "order": 16
                                    }
                                ],
                                "depth": 1,
                                "id": 9,
                                "order": 9
                            },
                            {
                                "children": [],
                                "depth": 1,
                                "id": 17,
                                "order": 17
                            }
                        ],
                        "depth": 0,
                        "id": 0,
                        "order": 0
                    }
                ],
                "depth": -1,
                "id": -1,
                "order": -1
            }
        ],
        "mainTraceNodeCount": 18,
        "parentIdMap": {
            "0": -1,
            "1": 0,
            "10": 9,
            "11": 10,
            "12": 9,
            "13": 12,
            "14": 9,
            "15": 9,
            "16": 9,
            "17": 0,
            "2": 1,
            "3": 2,
            "4": 2,
            "5": 0,
            "6": 0,
            "7": 0,
            "8": 7,
            "9": 0
        },
        "tidyTrace": [
            {
                "children": [
                    {
                        "children": [
                            {
                                "children": [
                                    {
                                        "children": [
                                            {
                                                "children": [],
                                                "depth": 3,
                                                "id": 3,
                                                "order": 3
                                            },
                                            {
                                                "children": [],
                                                "depth": 3,
                                                "id": 4,
                                                "order": 4
                                            }
                                        ],
                                        "depth": 2,
                                        "id": 2,
                                        "order": 2
                                    }
                                ],
                                "depth": 1,
                                "id": 1,
                                "order": 1
                            },
                            {
                                "children": [
                                    {
                                        "children": [
                                            {
                                                "children": [],
                                                "depth": 3,
                                                "id": 11,
                                                "order": 11
                                            }
                                        ],
                                        "depth": 2,
                                        "id": 10,
                                        "order": 10
                                    },
                                    {
                                        "children": [],
                                        "depth": 2,
                                        "id": 15,
                                        "order": 15
                                    },
                                    {
                                        "children": [],
                                        "depth": 2,
                                        "id": 16,
                                        "order": 16
                                    }
                                ],
                                "depth": 1,
                                "id": 9,
                                "order": 9
                            }
                        ],
                        "depth": 0,
                        "id": 0,
                        "order": 0
                    }
                ],
                "depth": -1,
                "id": -1,
                "order": -1
            }
        ],
        "tidyTraceNodeCount": 10
    },
    "state_change": {
        "stateChanges": [
            {
                "address": "0x282f1fa0bfb5f87d257c2687a97e6442f9efdfc1",
                "erc": "ERC-20",
                "slots": [
                    {
                        "current": "0x000000000000000000000000000000000000000489ce733f9d6f7d3dca000000",
                        "key": "0x1a3c4f100ba688f5e155e6627faff0a6240e0f717f499f7b9970aa8bf68dff52",
                        "prev": "0x000000000000000000000000000000000000000979d1d536e689fd3dca000000"
                    },
                    {
                        "current": "0x0000000000000000000000000000000000000a4cca71722d43da2b7690cfb40e",
                        "key": "0x141c55e611d0c978542d7555357bc717d32f54618d7b4be821f06227faf4bcaf",
                        "prev": "0x0000000000000000000000000000000000000a47da6e1035fabfab7690cfb40e"
                    },
                    {
                        "current": "0xffffffffffffffffffffffffffffffffffffffa093681089569fc7ffffffffff",
                        "key": "0xf7c9593f8c14dcc8be11b56a9d1b3d363cbae64971a24fc28738b22ff41b5468",
                        "prev": "0xffffffffffffffffffffffffffffffffffffffa5836b72809fba47ffffffffff"
                    }
                ],
                "storageVariables": [
                    {
                        "name": "_balances",
                        "type": "mapping(address => uint256)",
                        "value": {
                            "pairs": [
                                {
                                    "key": "0xb606b2969f4ceed9bee5ef37aff066580215aa56",
                                    "value": {
                                        "current": "359561679367057068743066648576",
                                        "prev": "750754821189858367512210571264",
                                        "typeTag": 1
                                    }
                                },
                                {
                                    "key": "0xdce6eca525b4b033ea57f025a45d65476415b2e5",
                                    "value": {
                                        "current": "208908089507387093852151184602126",
                                        "prev": "208516896365564292553382040679438",
                                        "typeTag": 1
                                    }
                                }
                            ],
                            "typeTag": 4
                        }
                    },
                    {
                        "name": "_allowances",
                        "type": "mapping(address => mapping(address => uint256))",
                        "value": {
                            "pairs": [
                                {
                                    "key": "0xb606b2969f4ceed9bee5ef37aff066580215aa56",
                                    "value": {
                                        "pairs": [
                                            {
                                                "key": "0x7a250d5630b4cf539739df2c5dacb4c659f2488d",
                                                "value": {
                                                    "current": "115792089237316195423570985008687907853269984658080280540908494836993039007743",
                                                    "prev": "115792089237316195423570985008687907853269984658471473682731296135762182930431",
                                                    "typeTag": 1
                                                }
                                            }
                                        ],
                                        "typeTag": 4
                                    }
                                }
                            ],
                            "typeTag": 4
                        }
                    }
                ]
            },
            {
                "address": "0xc02aaa39b223fe8d0a0e5c4f27ead9083c756cc2",
                "erc": "ERC-20",
                "slots": [
                    {
                        "current": "0x0000000000000000000000000000000000000000000000043dd6c2264b0f0a0b",
                        "key": "0xe6c47029e4e1e0c2aa4aaeda8602ea148263cef1aa8e5e1da8347a3ce9191c72",
                        "prev": "0x0000000000000000000000000000000000000000000000043fdeb1f3f3498048"
                    },
                    {
                        "current": "0x00000000000000000000000000000000000000000000000008b4b44e1020c6d4",
                        "key": "0xcee994e2f893f03d9804db420aa841ab4ee710d5bae0f53c64ae03074c16d208",
                        "prev": "0x00000000000000000000000000000000000000000000000006acc48067e65097"
                    }
                ],
                "storageVariables": [
                    {
                        "name": "balanceOf",
                        "type": "mapping(address => uint256)",
                        "value": {
                            "pairs": [
                                {
                                    "key": "0xb606b2969f4ceed9bee5ef37aff066580215aa56",
                                    "value": {
                                        "current": "627324495482373844",
                                        "prev": "480975315999805591",
                                        "typeTag": 1
                                    }
                                },
                                {
                                    "key": "0xdce6eca525b4b033ea57f025a45d65476415b2e5",
                                    "value": {
                                        "current": "78242938645891713547",
                                        "prev": "78389287825374281800",
                                        "typeTag": 1
                                    }
                                }
                            ],
                            "typeTag": 4
                        }
                    }
                ]
            },
            {
                "address": "0xdce6eca525b4b033ea57f025a45d65476415b2e5",
                "erc": "ERC-20",
                "slots": [
                    {
                        "current": "0x00000000000000000000000000000000000000000ea8db4f640ea4ad40891628",
                        "key": "0x0000000000000000000000000000000000000000000000000000000000000009",
                        "prev": "0x00000000000000000000000000000000000000000ea5d0903f90a83ecba357dc"
                    },
                    {
                        "current": "0x0000000000000000000018ab584d437239eda143c6ff3c686350640bd4aad4c4",
                        "key": "0x000000000000000000000000000000000000000000000000000000000000000a",
                        "prev": "0x0000000000000000000018998a64ae23a65eb10b6c3bc3ca8af4dffb7fe2905c"
                    },
                    {
                        "current": "0x649dcf1b0000000000043dd6c2264b0f0a0b0a4cca71722d43da2b7690cfb40e",
                        "key": "0x0000000000000000000000000000000000000000000000000000000000000008",
                        "prev": "0x649dc7bf0000000000043fdeb1f3f34980480a47da6e1035fabfab7690cfb40e"
                    }
                ],
                "storageVariables": [
                    {
                        "name": "reserve0",
                        "type": "uint112",
                        "value": {
                            "current": "208908089507387093852151184602126",
                            "prev": "208516896365564292553382040679438",
                            "typeTag": 1
                        }
                    },
                    {
                        "name": "reserve1",
                        "type": "uint112",
                        "value": {
                            "current": "78242938645891713547",
                            "prev": "78389287825374281800",
                            "typeTag": 1
                        }
                    },
                    {
                        "name": "blockTimestampLast",
                        "type": "uint32",
                        "value": {
                            "current": "1688063771",
                            "prev": "1688061887",
                            "typeTag": 1
                        }
                    },
                    {
                        "name": "price0CumulativeLast",
                        "type": "uint256",
                        "value": {
                            "current": "4536925337956500056339715624",
                            "prev": "4533247810875174085047048156",
                            "typeTag": 1
                        }
                    },
                    {
                        "name": "price1CumulativeLast",
                        "type": "uint256",
                        "value": {
                            "current": "9229886953965257060290260676302080819600008971736260",
                            "prev": "9203865896243257997327873986350157654083646697672796",
                            "typeTag": 1
                        }
                    }
                ]
            }
        ]
    }
}