{
    "balance_change": {
        "balanceChanges": [
            {
                "account": "0x0f5d4a5459d0fad3aa3693cc9dde8ac73e12a3b7",
                "assets": [
                    {
                        "address": "0x30cecb5461a449a90081f5a5f55db4e048397bab",
                        "amount": "129.719557",
                        "iconUrl": "https://assets.blocksec.com/icon/a1be03956ceb093b4acef4069e47fe27f99cc2f04131016070301410680588f4.png",
                        "isERC1155": false,
                        "isERC721": false,
                        "sign": false,
                        "value": ""
                    }
                ]
            },
            {
                "account": "0x91d461a98f2021496a4f835db5ce4749e330077a",
                "assets": [
                    {
                        "address": "0x30cecb5461a449a90081f5a5f55db4e048397bab",
                        "amount": "129.719557",
                        "iconUrl": "https://assets.blocksec.com/icon/a1be03956ceb093b4acef4069e47fe27f99cc2f04131016070301410680588f4.png",
                        "isERC1155": false,
                        "isERC721": false,
                        "sign": true,
                        "value": ""
                    }
                ]
            }
        ]
    },
    "profile": {
        "basic_info": {
            "baseFee": "",
            "blockNumber": 5194861,
            "callData": "0xa9059cbb00000000000000000000000091d461a98f2021496a4f835db5ce4749e330077a00000000000000000000000000000000000000000000000000000003053055f4",
            "debugEnable": true,
            "errorInfo": "",
            "eventCount": 1,
            "feeRecipient": "0x829bd824b016326a401d083b33d092293333a830",
            "formatValue": "0",
            "gasLimit": 100000,
            "gasPrice": "34.02",
            "gasUsed": 37148,
            "intTxnCount": 0,
            "internalRevert": false,
            "internalRevertMessage": "",
            "isContractCreation": false,
            "isFlashloan": false,
            "maxFee": "",
            "nonce": 6878,
            "overwritedBlockNumber": -1,
            "priorityFee": "",
            "receiver": "0x30cecb5461a449a90081f5a5f55db4e048397bab",
            "revertMessage": "",
            "sender": "0x0f5d4a5459d0fad3aa3693cc9dde8ac73e12a3b7",
            "simulationEnable": true,
            "sourceTxnHash": "0x86d2f7e02874782dd1fa0e4fa5acafc520c1c829ab8a9cecb22a803354713292",
            "status": true,
            "timestamp": "2018-03-04T12:21:05Z",
            "transactionFee": "0.00126377496",
            "txnHash": "0x86d2f7e02874782dd1fa0e4fa5acafc520c1c829ab8a9cecb22a803354713292",
            "txnIndex": 48,
            "type": 0,
            "value": "0"
        },
        "fund_flow": [
            {
                "amount": "129.719557",
                "from": "0x0f5d4a5459d0fad3aa3693cc9dde8ac73e12a3b7",
                "id": 1,
                "isERC1155": false,
                "isERC721": false,
                "isReverted": false,
                "order": 1,
                "to": "0x91d461a98f2021496a4f835db5ce4749e330077a",
                "token": "0x30cecb5461a449a90081f5a5f55db4e048397bab"
            }
        ],
        "token_infos": [
            {
                "address": "0xeeeeeeeeeeeeeeeeeeeeeeeeeeeeeeeeeeeeeeee",
                "decimals": 18
            },
            {
                "address": "0x30cecb5461a449a90081f5a5f55db4e048397bab",
                "decimals": 8
            },
            {
                "address": "0xc02aaa39b223fe8d0a0e5c4f27ead9083c756cc2",
                "decimals": 18
            }
        ]
    },
    "address_label": {
        "labels": [
            {
                "address": "0xeeeeeeeeeeeeeeeeeeeeeeeeeeeeeeeeeeeeeeee",
                "label": "Ether"
            },
            {
                "address": "0x30cecb5461a449a90081f5a5f55db4e048397bab",
                "label": "Tracto Token"
            },
            {
                "address": "0x0000000000000000000000000000000000000001",
                "label": "Precompiled"
            },
            {
                "address": "0x0000000000000000000000000000000000000002",
                "label": "Precompiled"
            },
            {
                "address": "0x0000000000000000000000000000000000000003",
                "label": "Precompiled"
            },
            {
                "address": "0x0000000000000000000000000000000000000004",
                "label": "Precompiled"
            }
        ]
    },
    "trace": {
        "accountLabels": null,
        "dataMap": {
            "-1": {
                "invocation": {
                    "address": "0x0f5d4a5459d0fad3aa3693cc9dde8ac73e12a3b7",
                    "callData": "",
                    "decodedMethod": null,
                    "errorInfo": "",
                    "fromAddress": "",
                    "gasUsed": 0,
                    "id": -1,
                    "methodDecoded": false,
                    "operation": "",
                    "output": "",
                    "revert": false,
                    "revertMessage": "",
                    "selector": "",
                    "status": false,
                    "value": ""
                },
                "nodeType": 0
            },
            "0": {
                "invocation": {
                    "address": "0x30cecb5461a449a90081f5a5f55db4e048397bab",
                    "callData": "0x00000000000000000000000091d461a98f2021496a4f835db5ce4749e330077a00000000000000000000000000000000000000000000000000000003053055f4",
                    "decodedMethod": {
                        "callParams": [
                            {
                                "name": "_to",
                                "type": "address",
                                "value": "0x91d461a98f2021496a4f835db5ce4749e330077a"
                            },
                            {
                                "decimalAvailable": true,
                                "name": "_amount",
                                "type": "uint256",
                                "value": "12,971,955,700"
                            }
                        ],
                        "constructorArguments": "",
                        "name": "transfer",
                        "returnParams": [
                            {
                                "name": "success",
                                "type": "bool",
                                "value": true
                            }
                        ],
                        "signature": "transfer(address,uint256)"
                    },
                    "errorInfo": "",
                    "fromAddress": "0x0f5d4a5459d0fad3aa3693cc9dde8ac73e12a3b7",
                    "gasUsed": 37148,
                    "id": 0,
                    "methodDecoded": true,
                    "operation": "CALL",
                    "output": "0x0000000000000000000000000000000000000000000000000000000000000001",
                    "revert": false,
                    "revertMessage": "",
                    "selector": "0xa9059cbb",
                    "status": true,
                    "value": "0"
                },
                "nodeType": 0
            },
            "1": {
                "event": {
                    "contract": "0x30cecb5461a449a90081f5a5f55db4e048397bab",
                    "decodedLog": {
                        "name": "Transfer",
                        "params": [
                            {
                                "name": "_from",
                                "type": "address",
                                "value": "0x0f5d4a5459d0fad3aa3693cc9dde8ac73e12a3b7"
                            },
                            {
                                "name": "_to",
                                "type": "address",
                                "value": "0x91d461a98f2021496a4f835db5ce4749e330077a"
                            },
                            {
                                "decimalAvailable": true,
                                "name": "_value",
                                "type": "uint256",
                                "value": "12,971,955,700"
                            }
                        ],
                        "signature": "Transfer(address,address,uint256)"
                    },
                    "id": 1,
                    "logData": "0x00000000000000000000000000000000000000000000000000000003053055f4",
                    "logDecoded": true,
                    "operation": "EVENT",
                    "revert": false,
                    "status": true,
                    "topics": [
                        "0xddf252ad1be2c89b69c2b068fc378daa952ba7f163c4a11628f55a4df523b3ef",
                        "0x0000000000000000000000000f5d4a5459d0fad3aa3693cc9dde8ac73e12a3b7",
                        "0x00000000000000000000000091d461a98f2021496a4f835db5ce4749e330077a"
                    ]
                },
                "nodeType": 1
            }
        },
        "gasFlame": [
            {
                "children": [
                    {
                        "children": [
                            {
                                "children": [],
                                "depth": 0,
                                "name": "Initial Gas",
                                "value": 23128
                            },
                            {
                                "children": [],
                                "depth": 0,
                                "name": "Executed Gas",
                                "value": 14020
                            }
                        ],
                        "depth": -1,
                        "name": "Actual Gas Used",
                        "value": 37148
                    },
                    {
                        "children": [],
                        "depth": -1,
                        "name": "Refunded Gas",
                        "value": 0
                    }
                ],
                "depth": -2,
                "name": "Total Gas",
                "value": 37148
            }
        ],
        "isConfirmed": true,
        "mainTrace": [
            {
                "children": [
                    {
                        "children": [
                            {
                                "children": [],
                                "depth": 1,
                                "id": 1,
                                "order": 1
                            }
                        ],
                        "depth": 0,
                        "id": 0,
                        "order": 0
                    }
                ],
                "depth": -1,
                "id": -1,
                "order": -1
            }
        ],
        "mainTraceNodeCount": 2,
        "parentIdMap": {
            "0": -1,
            "1": 0
        },
        "tidyTrace": [
            {
                "children": [
                    {
                        "children": [
                            {
                                "children": [],
                                "depth": 1,
                                "id": 1,
                                "order": 1
                            }
                        ],
                        "depth": 0,
                        "id": 0,
                        "order": 0
                    }
                ],
                "depth": -1,
                "id": -1,
                "order": -1
            }
        ],
        "tidyTraceNodeCount": 2
    },
    "state_change": {
        "stateChanges": [
            {
                "address": "0x30cecb5461a449a90081f5a5f55db4e048397bab",
                "erc": "ERC-20",
                "slots": [
                    {
                        "current": "0x00000000000000000000000000000000000000000000000000000644687bf787",
                        "key": "0x75e8d7b4067b220c3bd972dc3290ad4d1658c8bfae963a146ab8622ab4bbfa07",
                        "prev": "0x000000000000000000000000000000000000000000000000000006476dac4d7b"
                    },
                    {
                        "current": "0x000000000000000000000000000000000000000000000000000000060a5e5b54",
                        "key": "0x7fec1aeaf716d9702ffe6c0faf3c5a271d9e8b1a402d238724448c4e13dcfc98",
                        "prev": "0x00000000000000000000000000000000000000000000000000000003052e0560"
                    }
                ],
                "storageVariables": [
                    {
                        "name": "balances",
                        "type": "mapping(address => uint256)",
                        "value": {
                            "pairs": [
                                {
                                    "key": "0x0f5d4a5459d0fad3aa3693cc9dde8ac73e12a3b7",
                                    "value": {
                                        "current": "6890880497543",
                                        "prev": "6903852453243",
                                        "typeTag": 1
                                    }
                                },
                                {
                                    "key": "0x91d461a98f2021496a4f835db5ce4749e330077a",
                                    "value": {
                                        "current": "25943759700",
                                        "prev": "12971804000",
                                        "typeTag": 1
                                    }
                                }
                            ],
                            "typeTag": 4
                        }
                    }
                ]
            }
        ]
    }
}