{
    "balance_change": {
        "balanceChanges": []
    },
    "profile": {
        "basic_info": {
            "baseFee": "",
            "blockNumber": 7117047,
            "callData": "0xef3435880000000000000000000000000000000000000000000000000494654067e1000000000000000000000000000000000000000000000000009bc0e49967c517180000000000000000000000000000000000000000000000000000000000000186a000000000000000000000000000000000000000000000000000000000000009f10000000000000000000000000000000000000000000000000494654067e100000000000000000000000000000000000000000000000000000000000000000a4b00000000000000000000000000000000000000000000000000038d7ea4c680000000000000000000000000000000000000000000000000000024636e3a9bc9b20000000000000000000000000000000000000000000000000000000000000000000000000000000000000000c12d099be31567add4e4e4d0d45691c3f58f56630000000000000000000000007fb424c9f1fc18566e0c721c81b30bd13b7f9c0c00000000000000000000000051e8b66d8ffc0a78cbbdb415abacce19b184a29e000000000000000000000000000000000000000000000000000000000000001b000000000000000000000000000000000000000000000000000000000000001c6bcc1d486e0fd867a1f6a8fa0117ab468ea04df0b7b760875839cc2aab579c455de2ecef2052049342ec0e1a6070578423582ca2f04526ec7df99d9319ebd09719bd2b7648fcafc803b426b6fe16a669c4c78845db4d7b4fb9c24327eda6f98e4ab828ea268145dacb5056df00fadffef3c4152af4c685c02af5c8e66f817243",
            "debugEnable": true,
            "errorInfo": "",
            "eventCount": 0,
            "feeRecipient": "0x005e288d713a5fb3d7c9cf1b43810a98688c7223",
            "formatValue": "0",
            "gasLimit": 400000,
            "gasPrice": "14",
            "gasUsed": 142516,
            "intTxnCount": 2,
            "internalRevert": false,
            "internalRevertMessage": "",
            "isContractCreation": false,
            "isFlashloan": false,
            "maxFee": "",
            "nonce": 2374464,
            "overwritedBlockNumber": -1,
            "priorityFee": "",
            "receiver": "0x2a0c0dbecc7e4d658f48e01e3fa353f44050c208",
            "revertMessage": "",
            "sender": "0xa7a7899d944fe658c4b0a1803bab2f490bd3849e",
            "simulationEnable": true,
            "sourceTxnHash": "0x8692ef482abcf6ee14c862c63347ee98cd61f9f110910e0321d0d7daa67ca190",
            "status": true,
            "timestamp": "2019-01-24T03:51:38Z",
            "transactionFee": "0.001995224",
            "txnHash": "0x8692ef482abcf6ee14c862c63347ee98cd61f9f110910e0321d0d7daa67ca190",
            "txnIndex": 102,
            "type": 0,
            "value": "0"
        },
        "fund_flow": [],
        "token_infos": [
            {
                "address": "0xc02aaa39b223fe8d0a0e5c4f27ead9083c756cc2",
                "decimals": 18
            },
            {
                "address": "0xeeeeeeeeeeeeeeeeeeeeeeeeeeeeeeeeeeeeeeee",
                "decimals": 18
            }
        ]
    },
    "address_label": {
        "labels": [
            {
                "address": "0xc12d099be31567add4e4e4d0d45691c3f58f5663",
                "label": "Auctus: AUC Token"
            },
            {
                "address": "0x2a0c0dbecc7e4d658f48e01e3fa353f44050c208",
                "label": "IDEX"
            },
            {
                "address": "0x0000000000000000000000000000000000000004",
                "label": "Precompiled"
            },
            {
                "address": "0xeeeeeeeeeeeeeeeeeeeeeeeeeeeeeeeeeeeeeeee",
                "label": "Ether"
            },
            {
                "address": "0x0000000000000000000000000000000000000000",
                "label": "Null Address"
            },
            {
                "address": "0x0000000000000000000000000000000000000001",
                "label": "Precompiled"
            },
            {
                "address": "0x0000000000000000000000000000000000000002",
                "label": "Precompiled"
            },
            {
                "address": "0x0000000000000000000000000000000000000003",
                "label": "Precompiled"
            },
            {
                "address": "0xa7a7899d944fe658c4b0a1803bab2f490bd3849e",
                "label": "IDEX 2"
            }
        ]
    },
    "trace": {
        "accountLabels": null,
        "dataMap": {
            "-1": {
                "invocation": {
                    "address": "0xa7a7899d944fe658c4b0a1803bab2f490bd3849e",
                    "callData": "",
                    "decodedMethod": null,
                    "errorInfo": "",
                    "fromAddress": "",
                    "gasUsed": 0,
                    "id": -1,
                    "methodDecoded": false,
                    "operation": "",
                    "output": "",
                    "revert": false,
                    "revertMessage": "",
                    "selector": "",
                    "status": false,
                    "value": ""
                },
                "nodeType": 0
            },
            "0": {
                "invocation": {
                    "address": "0x2a0c0dbecc7e4d658f48e01e3fa353f44050c208",
                    "callData": "0x0000000000000000000000000000000000000000000000000494654067e1000000000000000000000000000000000000000000000000009bc0e49967c517180000000000000000000000000000000000000000000000000000000000000186a000000000000000000000000000000000000000000000000000000000000009f10000000000000000000000000000000000000000000000000494654067e100000000000000000000000000000000000000000000000000000000000000000a4b00000000000000000000000000000000000000000000000000038d7ea4c680000000000000000000000000000000000000000000000000000024636e3a9bc9b20000000000000000000000000000000000000000000000000000000000000000000000000000000000000000c12d099be31567add4e4e4d0d45691c3f58f56630000000000000000000000007fb424c9f1fc18566e0c721c81b30bd13b7f9c0c00000000000000000000000051e8b66d8ffc0a78cbbdb415abacce19b184a29e000000000000000000000000000000000000000000000000000000000000001b000000000000000000000000000000000000000000000000000000000000001c6bcc1d486e0fd867a1f6a8fa0117ab468ea04df0b7b760875839cc2aab579c455de2ecef2052049342ec0e1a6070578423582ca2f04526ec7df99d9319ebd09719bd2b7648fcafc803b426b6fe16a669c4c78845db4d7b4fb9c24327eda6f98e4ab828ea268145dacb5056df00fadffef3c4152af4c685c02af5c8e66f817243",
                    "decodedMethod": {
                        "callParams": [
                            {
                                "name": "tradeValues",
                                "type": "uint256[8]",
                                "value": [
                                    "330,000,000,000,000,000",
                                    "2,873,144,734,445,920,000,000",
                                    "100,000",
                                    "2,545",
                                    "330,000,000,000,000,000",
                                    "2,635",
                                    "1,000,000,000,000,000",
                                    "10,242,424,242,424,242"
                                ]
                            },
                            {
                                "name": "tradeAddresses",
                                "type": "address[4]",
                                "value": [
                                    "0x0000000000000000000000000000000000000000",
                                    "0xc12d099be31567add4e4e4d0d45691c3f58f5663",
                                    "0x7fb424c9f1fc18566e0c721c81b30bd13b7f9c0c",
                                    "0x51e8b66d8ffc0a78cbbdb415abacce19b184a29e"
                                ]
                            },
                            {
                                "name": "v",
                                "type": "uint8[2]",
                                "value": [
                                    "27",
                                    "28"
                                ]
                            },
                            {
                                "name": "rs",
                                "type": "bytes32[4]",
                                "value": [
                                    "0x6bcc1d486e0fd867a1f6a8fa0117ab468ea04df0b7b760875839cc2aab579c45",
                                    "0x5de2ecef2052049342ec0e1a6070578423582ca2f04526ec7df99d9319ebd097",
                                    "0x19bd2b7648fcafc803b426b6fe16a669c4c78845db4d7b4fb9c24327eda6f98e",
                                    "0x4ab828ea268145dacb5056df00fadffef3c4152af4c685c02af5c8e66f817243"
                                ]
                            }
                        ],
                        "constructorArguments": "",
                        "name": "trade",
                        "returnParams": [
                            {
                                "name": "success",
                                "type": "bool",
                                "value": false
                            }
                        ],
                        "signature": "trade(uint256[8],address[4],uint8[2],bytes32[4])"
                    },
                    "errorInfo": "",
                    "fromAddress": "0xa7a7899d944fe658c4b0a1803bab2f490bd3849e",
                    "gasUsed": 142516,
                    "id": 0,
                    "methodDecoded": true,
                    "operation": "CALL",
                    "output": "0x0000000000000000000000000000000000000000000000000000000000000000",
                    "revert": false,
                    "revertMessage": "",
                    "selector": "0xef343588",
                    "status": true,
                    "value": "0"
                },
                "nodeType": 0
            },
            "1": {
                "invocation": {
                    "address": "0x0000000000000000000000000000000000000001",
                    "callData": "0xfccf5f5172d5bcbd143a0cb387f5d94bd5aaa01e6b3b907ae21334a5000000000000000000000000000000000000000000000000000000000000001b6bcc1d486e0fd867a1f6a8fa0117ab468ea04df0b7b760875839cc2aab579c455de2ecef2052049342ec0e1a6070578423582ca2f04526ec7df99d9319ebd097",
                    "decodedMethod": {
                        "callParams": [
                            {
                                "name": "hash",
                                "type": "bytes32",
                                "value": "0xc8204a8cfccf5f5172d5bcbd143a0cb387f5d94bd5aaa01e6b3b907ae21334a5"
                            },
                            {
                                "name": "v",
                                "type": "uint256",
                                "value": "27"
                            },
                            {
                                "name": "r",
                                "type": "bytes32",
                                "value": "0x6bcc1d486e0fd867a1f6a8fa0117ab468ea04df0b7b760875839cc2aab579c45"
                            },
                            {
                                "name": "s",
                                "type": "bytes32",
                                "value": "0x5de2ecef2052049342ec0e1a6070578423582ca2f04526ec7df99d9319ebd097"
                            }
                        ],
                        "constructorArguments": "",
                        "name": "ecrecover",
                        "returnParams": [
                            {
                                "name": "",
                                "type": "address",
                                "value": "0x7fb424c9f1fc18566e0c721c81b30bd13b7f9c0c"
                            }
                        ],
                        "signature": "ecrecover(bytes32,uint256,bytes32,bytes32)"
                    },
                    "errorInfo": "",
                    "fromAddress": "0x2a0c0dbecc7e4d658f48e01e3fa353f44050c208",
                    "gasUsed": 3000,
                    "id": 1,
                    "methodDecoded": true,
                    "operation": "CALL",
                    "output": "0x0000000000000000000000007fb424c9f1fc18566e0c721c81b30bd13b7f9c0c",
                    "revert": false,
                    "revertMessage": "",
                    "selector": "0xc8204a8c",
                    "status": true,
                    "value": "0"
                },
                "nodeType": 0
            },
            "2": {
                "invocation": {
                    "address": "0x0000000000000000000000000000000000000001",
                    "callData": "0x44654560c7cfcb8c4cdbf2e297fad95e49109c2ed9a92ccab4b4e804000000000000000000000000000000000000000000000000000000000000001c19bd2b7648fcafc803b426b6fe16a669c4c78845db4d7b4fb9c24327eda6f98e4ab828ea268145dacb5056df00fadffef3c4152af4c685c02af5c8e66f817243",
                    "decodedMethod": {
                        "callParams": [
                            {
                                "name": "hash",
                                "type": "bytes32",
                                "value": "0x04fbf91a44654560c7cfcb8c4cdbf2e297fad95e49109c2ed9a92ccab4b4e804"
                            },
                            {
                                "name": "v",
                                "type": "uint256",
                                "value": "28"
                            },
                            {
                                "name": "r",
                                "type": "bytes32",
                                "value": "0x19bd2b7648fcafc803b426b6fe16a669c4c78845db4d7b4fb9c24327eda6f98e"
                            },
                            {
                                "name": "s",
                                "type": "bytes32",
                                "value": "0x4ab828ea268145dacb5056df00fadffef3c4152af4c685c02af5c8e66f817243"
                            }
                        ],
                        "constructorArguments": "",
                        "name": "ecrecover",
                        "returnParams": [
                            {
                                "name": "",
                                "type": "address",
                                "value": "0x51e8b66d8ffc0a78cbbdb415abacce19b184a29e"
                            }
                        ],
                        "signature": "ecrecover(bytes32,uint256,bytes32,bytes32)"
                    },
                    "errorInfo": "",
                    "fromAddress": "0x2a0c0dbecc7e4d658f48e01e3fa353f44050c208",
                    "gasUsed": 3000,
                    "id": 2,
                    "methodDecoded": true,
                    "operation": "CALL",
                    "output": "0x00000000000000000000000051e8b66d8ffc0a78cbbdb415abacce19b184a29e",
                    "revert": false,
                    "revertMessage": "",
                    "selector": "0x04fbf91a",
                    "status": true,
                    "value": "0"
                },
                "nodeType": 0
            }
        },
        "gasFlame": [
            {
                "children": [
                    {
                        "children": [
                            {
                                "children": [],
                                "depth": 0,
                                "name": "Initial Gas",
                                "value": 38232
                            },
                            {
                                "children": [
                                    {
                                        "children": [],
                                        "depth": 1,
                                        "name": "ecrecover",
                                        "value": 3000
                                    },
                                    {
                                        "children": [],
                                        "depth": 1,
                                        "name": "ecrecover",
                                        "value": 3000
                                    }
                                ],
                                "depth": 0,
                                "name": "Executed Gas",
                                "value": 104284
                            }
                        ],
                        "depth": -1,
                        "name": "Actual Gas Used",
                        "value": 142516
                    },
                    {
                        "children": [],
                        "depth": -1,
                        "name": "Refunded Gas",
                        "value": 0
                    }
                ],
                "depth": -2,
                "name": "Total Gas",
                "value": 142516
            }
        ],
        "isConfirmed": true,
        "mainTrace": [
            {
                "children": [
                    {
                        "children": [
                            {
                                "children": [],
                                "depth": 1,
                                "id": 1,
                                "order": 1
                            },
                            {
                                "children": [],
                                "depth": 1,
                                "id": 2,
                                "order": 2
                            }
                        ],
                        "depth": 0,
                        "id": 0,
                        "order": 0
                    }
                ],
                "depth": -1,
                "id": -1,
                "order": -1
            }
        ],
        "mainTraceNodeCount": 3,
        "parentIdMap": {
            "0": -1,
            "1": 0,
            "2": 0
        },
        "tidyTrace": [
            {
                "children": [
                    {
                        "children": [
                            {
                                "children": [],
                                "depth": 1,
                                "id": 1,
                                "order": 1
                            },
                            {
                                "children": [],
                                "depth": 1,
                                "id": 2,
                                "order": 2
                            }
                        ],
                        "depth": 0,
                        "id": 0,
                        "order": 0
                    }
                ],
                "depth": -1,
                "id": -1,
                "order": -1
            }
        ],
        "tidyTraceNodeCount": 3
    },
    "state_change": {
        "stateChanges": [
            {
                "address": "0x2a0c0dbecc7e4d658f48e01e3fa353f44050c208",
                "erc": "",
                "slots": [
                    {
                        "current": "0x0000000000000000000000000000000000000000000000000494654067e10000",
                        "key": "0x1d73f5b64ad7d7e83fa351ff71559a35ecea1e4ff3a392b8cdbc7149a1fa2be2",
                        "prev": "0x0000000000000000000000000000000000000000000000000000000000000000"
                    },
                    {
                        "current": "0x0000000000000000000000000000000000000000000000000000000000000001",
                        "key": "0xf140da7f7987c66ca2c28d5696ce92534ccdb30e220e0223c2c6a8361d21f2f4",
                        "prev": "0x0000000000000000000000000000000000000000000000000000000000000000"
                    },
                    {
                        "current": "0x000000000000000000000000000000000000000000000078f67ef2895b25748e",
                        "key": "0x44071efa3bfe3c1825f7df3cbdeb8766ac5ab638d08e90e7b1621284b133381e",
                        "prev": "0x0000000000000000000000000000000000000000000000775e19ce361c0375fc"
                    },
                    {
                        "current": "0x00000000000000000000000000000000000000000000000000000000006c98f7",
                        "key": "0x92aa020da02d07d9b99368b075dcd2e33309b307311fa92b33b7b587195f4274",
                        "prev": "0x00000000000000000000000000000000000000000000000000000000006c98f1"
                    },
                    {
                        "current": "0x00000000000000000000000000000000000000000000000000000000006c98f7",
                        "key": "0xc00dc912c90ccc6883f35a926f173adbfe45d7fbd6689a692df1ab95bfcb6cc9",
                        "prev": "0x00000000000000000000000000000000000000000000000000000000006c98f1"
                    },
                    {
                        "current": "0x00000000000000000000000000000000000000000000000aae88767c0aca3996",
                        "key": "0x3ccb72d91c5c66cba135a4135963ed23443b8a63817f501517468fcd5097e277",
                        "prev": "0x00000000000000000000000000000000000000000000000aae874a59ee039996"
                    },
                    {
                        "current": "0x000000000000000000000000000000000000000000000d64029f9f2787f14d34",
                        "key": "0xc2885a0f577662b900de2b73167f90468a15c67e929f8ee2a87a6bb111842bd9",
                        "prev": "0x000000000000000000000000000000000000000000000cc9da202a1301fc33c7"
                    },
                    {
                        "current": "0x000000000000000000000000000000000000000000000000b6aa7e3fc16d03ae",
                        "key": "0x881875960f91fcb1bcd85f9b5382e4b1e0831b8a31c2c196beac4d4e8a3e924a",
                        "prev": "0x000000000000000000000000000000000000000000000000bb3ee380294e03ae"
                    },
                    {
                        "current": "0x000000000000000000000000000000000000000000000002ff9e73368abdba20",
                        "key": "0x9c67e9f71ffab94cf893eb4d4c3c9e5b90e0c06092d29f620ff0b29ba038666d",
                        "prev": "0x000000000000000000000000000000000000000000000002fb0b3a183fa35a20"
                    },
                    {
                        "current": "0x0000000000000000000000000000000000000000000000905995c2573c21d5c9",
                        "key": "0x85176636e15c512661ce3a988f3b2b5b82cbc6fd4b8207455a03a7d05e42e658",
                        "prev": "0x00000000000000000000000000000000000000000000012c1a7a5bbf0138edc9"
                    }
                ],
                "storageVariables": [
                    {
                        "name": "tokens",
                        "type": "mapping(address => mapping(address => uint256))",
                        "value": {
                            "pairs": [
                                {
                                    "key": "0x0000000000000000000000000000000000000000",
                                    "value": {
                                        "pairs": [
                                            {
                                                "key": "0x034767f3c519f361c5ecf46ebfc08981c629d381",
                                                "value": {
                                                    "current": "197043872971656673686",
                                                    "prev": "197043542971656673686",
                                                    "typeTag": 1
                                                }
                                            },
                                            {
                                                "key": "0x51e8b66d8ffc0a78cbbdb415abacce19b184a29e",
                                                "value": {
                                                    "current": "13162471673236882350",
                                                    "prev": "13492471673236882350",
                                                    "typeTag": 1
                                                }
                                            },
                                            {
                                                "key": "0x7fb424c9f1fc18566e0c721c81b30bd13b7f9c0c",
                                                "value": {
                                                    "current": "55312774351504128544",
                                                    "prev": "54983104351504128544",
                                                    "typeTag": 1
                                                }
                                            }
                                        ],
                                        "typeTag": 4
                                    }
                                },
                                {
                                    "key": "0xc12d099be31567add4e4e4d0d45691c3f58f5663",
                                    "value": {
                                        "pairs": [
                                            {
                                                "key": "0x034767f3c519f361c5ecf46ebfc08981c629d381",
                                                "value": {
                                                    "current": "2231371189497295631502",
                                                    "prev": "2201943222217213179388",
                                                    "typeTag": 1
                                                }
                                            },
                                            {
                                                "key": "0x51e8b66d8ffc0a78cbbdb415abacce19b184a29e",
                                                "value": {
                                                    "current": "63235627729377849068852",
                                                    "prev": "60391910962212011520967",
                                                    "typeTag": 1
                                                }
                                            },
                                            {
                                                "key": "0x7fb424c9f1fc18566e0c721c81b30bd13b7f9c0c",
                                                "value": {
                                                    "current": "2662786425935007700425",
                                                    "prev": "5535931160380927700425",
                                                    "typeTag": 1
                                                }
                                            }
                                        ],
                                        "typeTag": 4
                                    }
                                }
                            ],
                            "typeTag": 4
                        }
                    },
                    {
                        "name": "lastActiveTransaction",
                        "type": "mapping(address => uint256)",
                        "value": {
                            "pairs": [
                                {
                                    "key": "0x51e8b66d8ffc0a78cbbdb415abacce19b184a29e",
                                    "value": {
                                        "current": "7117047",
                                        "prev": "7117041",
                                        "typeTag": 1
                                    }
                                },
                                {
                                    "key": "0x7fb424c9f1fc18566e0c721c81b30bd13b7f9c0c",
                                    "value": {
                                        "current": "7117047",
                                        "prev": "7117041",
                                        "typeTag": 1
                                    }
                                }
                            ],
                            "typeTag": 4
                        }
                    },
                    {
                        "name": "traded",
                        "type": "mapping(bytes32 => bool)",
                        "value": {
                            "pairs": [
                                {
                                    "key": "0x339b5925ba2f4d3049492a40bffe9abebcbbf216e3a8fe0b3d2016d501d9ad20",
                                    "value": {
                                        "current": "true",
                                        "prev": "false",
                                        "typeTag": 1
                                    }
                                }
                            ],
                            "typeTag": 4
                        }
                    },
                    {
                        "name": "orderFills",
                        "type": "mapping(bytes32 => uint256)",
                        "value": {
                            "pairs": [
                                {
                                    "key": "0xccc8086f41ab60ac937acc532c5e74ccb5a005257c33ede4898df191feae8f1f",
                                    "value": {
                                        "current": "330000000000000000",
                                        "prev": "0",
                                        "typeTag": 1
                                    }
                                }
                            ],
                            "typeTag": 4
                        }
                    }
                ]
            }
        ]
    }
}