{
    "balance_change": {
        "balanceChanges": [
            {
                "account": "0x2e561b79bb45869b432b8956c3a8ce8a8d14d099",
                "assets": [
                    {
                        "address": "0x84936cf7630aa3e27dd9aff968b140d5aee49f5a",
                        "amount": "600",
                        "iconUrl": "",
                        "isERC1155": false,
                        "isERC721": false,
                        "sign": false,
                        "value": ""
                    }
                ]
            },
            {
                "account": "0x09d3a99578e368a758cb19d55996c0a7032fbea0",
                "assets": [
                    {
                        "address": "0x84936cf7630aa3e27dd9aff968b140d5aee49f5a",
                        "amount": "600",
                        "iconUrl": "",
                        "isERC1155": false,
                        "isERC721": false,
                        "sign": true,
                        "value": ""
                    }
                ]
            }
        ]
    },
    "profile": {
        "basic_info": {
            "baseFee": "",
            "blockNumber": 5787264,
            "callData": "0xa9059cbb00000000000000000000000009d3a99578e368a758cb19d55996c0a7032fbea00000000000000000000000000000000000000000000000000000000df8475800",
            "debugEnable": true,
            "errorInfo": "",
            "eventCount": 1,
            "feeRecipient": "0xea674fdde714fd979de3edf0f56aa9716b898ec8",
            "formatValue": "0",
            "gasLimit": 60000,
            "gasPrice": "22.953742336",
            "gasUsed": 53463,
            "intTxnCount": 0,
            "internalRevert": false,
            "internalRevertMessage": "",
            "isContractCreation": false,
            "isFlashloan": false,
            "maxFee": "",
            "nonce": 1786,
            "overwritedBlockNumber": -1,
            "priorityFee": "",
            "receiver": "0x84936cf7630aa3e27dd9aff968b140d5aee49f5a",
            "revertMessage": "",
            "sender": "0x2e561b79bb45869b432b8956c3a8ce8a8d14d099",
            "simulationEnable": true,
            "sourceTxnHash": "0x86dff481ca8eec33c72f80bc45c13b60f213443767e853af313769574ae20063",
            "status": true,
            "timestamp": "2018-06-14T11:56:25Z",
            "transactionFee": "0.001227175926509568",
            "txnHash": "0x86dff481ca8eec33c72f80bc45c13b60f213443767e853af313769574ae20063",
            "txnIndex": 30,
            "type": 0,
            "value": "0"
        },
        "fund_flow": [
            {
                "amount": "600",
                "from": "0x2e561b79bb45869b432b8956c3a8ce8a8d14d099",
                "id": 1,
                "isERC1155": false,
                "isERC721": false,
                "isReverted": false,
                "order": 1,
                "to": "0x09d3a99578e368a758cb19d55996c0a7032fbea0",
                "token": "0x84936cf7630aa3e27dd9aff968b140d5aee49f5a"
            }
        ],
        "token_infos": [
            {
                "address": "0x84936cf7630aa3e27dd9aff968b140d5aee49f5a",
                "decimals": 8
            },
            {
                "address": "0xc02aaa39b223fe8d0a0e5c4f27ead9083c756cc2",
                "decimals": 18
            },
            {
                "address": "0xeeeeeeeeeeeeeeeeeeeeeeeeeeeeeeeeeeeeeeee",
                "decimals": 18
            }
        ]
    },
    "address_label": {
        "labels": [
            {
                "address": "0xeeeeeeeeeeeeeeeeeeeeeeeeeeeeeeeeeeeeeeee",
                "label": "Ether"
            },
            {
                "address": "0x84936cf7630aa3e27dd9aff968b140d5aee49f5a",
                "label": "AmberTime Coin (AMTC)"
            },
            {
                "address": "0x0000000000000000000000000000000000000001",
                "label": "Precompiled"
            },
            {
                "address": "0x0000000000000000000000000000000000000002",
                "label": "Precompiled"
            },
            {
                "address": "0x0000000000000000000000000000000000000003",
                "label": "Precompiled"
            },
            {
                "address": "0x0000000000000000000000000000000000000004",
                "label": "Precompiled"
            }
        ]
    },
    "trace": {
        "accountLabels": null,
        "dataMap": {
            "-1": {
                "invocation": {
                    "address": "0x2e561b79bb45869b432b8956c3a8ce8a8d14d099",
                    "callData": "",
                    "decodedMethod": null,
                    "errorInfo": "",
                    "fromAddress": "",
                    "gasUsed": 0,
                    "id": -1,
                    "methodDecoded": false,
                    "operation": "",
                    "output": "",
                    "revert": false,
                    "revertMessage": "",
                    "selector": "",
                    "status": false,
                    "value": ""
                },
                "nodeType": 0
            },
            "0": {
                "invocation": {
                    "address": "0x84936cf7630aa3e27dd9aff968b140d5aee49f5a",
                    "callData": "0x00000000000000000000000009d3a99578e368a758cb19d55996c0a7032fbea00000000000000000000000000000000000000000000000000000000df8475800",
                    "decodedMethod": {
                        "callParams": [
                            {
                                "name": "_to",
                                "type": "address",
                                "value": "0x09d3a99578e368a758cb19d55996c0a7032fbea0"
                            },
                            {
                                "decimalAvailable": true,
                                "name": "_value",
                                "type": "uint256",
                                "value": "60,000,000,000"
                            }
                        ],
                        "constructorArguments": "",
                        "name": "transfer",
                        "returnParams": [],
                        "signature": "transfer(address,uint256)"
                    },
                    "errorInfo": "",
                    "fromAddress": "0x2e561b79bb45869b432b8956c3a8ce8a8d14d099",
                    "gasUsed": 53463,
                    "id": 0,
                    "methodDecoded": true,
                    "operation": "CALL",
                    "output": "",
                    "revert": false,
                    "revertMessage": "",
                    "selector": "0xa9059cbb",
                    "status": true,
                    "value": "0"
                },
                "nodeType": 0
            },
            "1": {
                "event": {
                    "contract": "0x84936cf7630aa3e27dd9aff968b140d5aee49f5a",
                    "decodedLog": {
                        "name": "Transfer",
                        "params": [
                            {
                                "name": "from",
                                "type": "address",
                                "value": "0x2e561b79bb45869b432b8956c3a8ce8a8d14d099"
                            },
                            {
                                "name": "to",
                                "type": "address",
                                "value": "0x09d3a99578e368a758cb19d55996c0a7032fbea0"
                            },
                            {
                                "decimalAvailable": true,
                                "name": "value",
                                "type": "uint256",
                                "value": "60,000,000,000"
                            }
                        ],
                        "signature": "Transfer(address,address,uint256)"
                    },
                    "id": 1,
                    "logData": "0x0000000000000000000000000000000000000000000000000000000df8475800",
                    "logDecoded": true,
                    "operation": "EVENT",
                    "revert": false,
                    "status": true,
                    "topics": [
                        "0xddf252ad1be2c89b69c2b068fc378daa952ba7f163c4a11628f55a4df523b3ef",
                        "0x0000000000000000000000002e561b79bb45869b432b8956c3a8ce8a8d14d099",
                        "0x00000000000000000000000009d3a99578e368a758cb19d55996c0a7032fbea0"
                    ]
                },
                "nodeType": 1
            }
        },
        "gasFlame": [
            {
                "children": [
                    {
                        "children": [
                            {
                                "children": [],
                                "depth": 0,
                                "name": "Initial Gas",
                                "value": 23064
                            },
                            {
                                "children": [],
                                "depth": 0,
                                "name": "Executed Gas",
                                "value": 30399
                            }
                        ],
                        "depth": -1,
                        "name": "Actual Gas Used",
                        "value": 53463
                    },
                    {
                        "children": [],
                        "depth": -1,
                        "name": "Refunded Gas",
                        "value": 0
                    }
                ],
                "depth": -2,
                "name": "Total Gas",
                "value": 53463
            }
        ],
        "isConfirmed": true,
        "mainTrace": [
            {
                "children": [
                    {
                        "children": [
                            {
                                "children": [],
                                "depth": 1,
                                "id": 1,
                                "order": 1
                            }
                        ],
                        "depth": 0,
                        "id": 0,
                        "order": 0
                    }
                ],
                "depth": -1,
                "id": -1,
                "order": -1
            }
        ],
        "mainTraceNodeCount": 2,
        "parentIdMap": {
            "0": -1,
            "1": 0
        },
        "tidyTrace": [
            {
                "children": [
                    {
                        "children": [
                            {
                                "children": [],
                                "depth": 1,
                                "id": 1,
                                "order": 1
                            }
                        ],
                        "depth": 0,
                        "id": 0,
                        "order": 0
                    }
                ],
                "depth": -1,
                "id": -1,
                "order": -1
            }
        ],
        "tidyTraceNodeCount": 2
    },
    "state_change": {
        "stateChanges": [
            {
                "address": "0x84936cf7630aa3e27dd9aff968b140d5aee49f5a",
                "erc": "ERC-20",
                "slots": [
                    {
                        "current": "0x00000000000000000000000000000000000000000000000000008ab7546bd000",
                        "key": "0x931bbf409aaaf6a9ab43e70e779acdf42e54367c13710273dadc7c91f99f19ff",
                        "prev": "0x00000000000000000000000000000000000000000000000000008ac54cb32800"
                    },
                    {
                        "current": "0x0000000000000000000000000000000000000000000000000000000df8475800",
                        "key": "0xd1b3e11933134958a28835659f8fb62f39aac318d3296d52ace8c72128530b9d",
                        "prev": "0x0000000000000000000000000000000000000000000000000000000000000000"
                    }
                ],
                "storageVariables": [
                    {
                        "name": "balanceOf",
                        "type": "mapping(address => uint256)",
                        "value": {
                            "pairs": [
                                {
                                    "key": "0x09d3a99578e368a758cb19d55996c0a7032fbea0",
                                    "value": {
                                        "current": "60000000000",
                                        "prev": "0",
                                        "typeTag": 1
                                    }
                                },
                                {
                                    "key": "0x2e561b79bb45869b432b8956c3a8ce8a8d14d099",
                                    "value": {
                                        "current": "152520000000000",
                                        "prev": "152580000000000",
                                        "typeTag": 1
                                    }
                                }
                            ],
                            "typeTag": 4
                        }
                    }
                ]
            }
        ]
    }
}