{
    "balance_change": {
        "balanceChanges": []
    },
    "profile": {
        "basic_info": {
            "baseFee": "",
            "blockNumber": 2277386,
            "callData": "0x7d242ae5000000000000000000000000000000000000000000000000000047ba09c3be2e00000000000000000000000000000000000000000000000000000000000000400000000000000000000000000000000000000000000000000000000000000000",
            "debugEnable": true,
            "errorInfo": "",
            "eventCount": 0,
            "feeRecipient": "0x1a060b0604883a99809eb3f798df71bef6c358f1",
            "formatValue": "0",
            "gasLimit": 500000,
            "gasPrice": "20",
            "gasUsed": 101984,
            "intTxnCount": 0,
            "internalRevert": false,
            "internalRevertMessage": "",
            "isContractCreation": false,
            "isFlashloan": false,
            "maxFee": "",
            "nonce": 46608,
            "overwritedBlockNumber": -1,
            "priorityFee": "",
            "receiver": "0x001a589dda0d6be37632925eaf1256986b2c6ad0",
            "revertMessage": "",
            "sender": "0x26588a9301b0428d95e6fc3a5024fce8bec12d51",
            "simulationEnable": true,
            "sourceTxnHash": "0x86f8614432df6f691b831551a88e1e95f70b2100ae9492ebf196257a4cb84332",
            "status": true,
            "timestamp": "2016-09-17T18:00:47Z",
            "transactionFee": "0.00203968",
            "txnHash": "0x86f8614432df6f691b831551a88e1e95f70b2100ae9492ebf196257a4cb84332",
            "txnIndex": 0,
            "type": 0,
            "value": "0"
        },
        "fund_flow": [],
        "token_infos": [
            {
                "address": "0xeeeeeeeeeeeeeeeeeeeeeeeeeeeeeeeeeeeeeeee",
                "decimals": 18
            },
            {
                "address": "0xc02aaa39b223fe8d0a0e5c4f27ead9083c756cc2",
                "decimals": 18
            }
        ]
    },
    "address_label": {
        "labels": [
            {
                "address": "0x0000000000000000000000000000000000000003",
                "label": "Precompiled"
            },
            {
                "address": "0x0000000000000000000000000000000000000004",
                "label": "Precompiled"
            },
            {
                "address": "0xeeeeeeeeeeeeeeeeeeeeeeeeeeeeeeeeeeeeeeee",
                "label": "Ether"
            },
            {
                "address": "0x26588a9301b0428d95e6fc3a5024fce8bec12d51",
                "label": "0x2658_Oraclize"
            },
            {
                "address": "0x001a589dda0d6be37632925eaf1256986b2c6ad0",
                "label": "0x001a_Oraclize"
            },
            {
                "address": "0x0000000000000000000000000000000000000001",
                "label": "Precompiled"
            },
            {
                "address": "0x0000000000000000000000000000000000000002",
                "label": "Precompiled"
            }
        ]
    },
    "trace": {
        "accountLabels": null,
        "dataMap": {
            "-1": {
                "invocation": {
                    "address": "0x26588a9301b0428d95e6fc3a5024fce8bec12d51",
                    "callData": "",
                    "decodedMethod": null,
                    "errorInfo": "",
                    "fromAddress": "",
                    "gasUsed": 0,
                    "id": -1,
                    "methodDecoded": false,
                    "operation": "",
                    "output": "",
                    "revert": false,
                    "revertMessage": "",
                    "selector": "",
                    "status": false,
                    "value": ""
                },
                "nodeType": 0
            },
            "0": {
                "invocation": {
                    "address": "0x001a589dda0d6be37632925eaf1256986b2c6ad0",
                    "callData": "0x000000000000000000000000000000000000000000000000000047ba09c3be2e00000000000000000000000000000000000000000000000000000000000000400000000000000000000000000000000000000000000000000000000000000000",
                    "decodedMethod": {
                        "callParams": [
                            {
                                "name": "new_baseprice",
                                "type": "uint256",
                                "value": "78,864,353,312,302"
                            },
                            {
                                "name": "proofID",
                                "type": "bytes",
                                "value": "0x"
                            }
                        ],
                        "constructorArguments": "",
                        "name": "setBasePrice",
                        "returnParams": [],
                        "signature": "setBasePrice(uint256,bytes)"
                    },
                    "errorInfo": "",
                    "fromAddress": "0x26588a9301b0428d95e6fc3a5024fce8bec12d51",
                    "gasUsed": 101984,
                    "id": 0,
                    "methodDecoded": true,
                    "operation": "CALL",
                    "output": "",
                    "revert": false,
                    "revertMessage": "",
                    "selector": "0x7d242ae5",
                    "status": true,
                    "value": "0"
                },
                "nodeType": 0
            }
        },
        "gasFlame": [
            {
                "children": [
                    {
                        "children": [
                            {
                                "children": [],
                                "depth": 0,
                                "name": "Initial Gas",
                                "value": 22104
                            },
                            {
                                "children": [],
                                "depth": 0,
                                "name": "Executed Gas",
                                "value": 79880
                            }
                        ],
                        "depth": -1,
                        "name": "Actual Gas Used",
                        "value": 101984
                    },
                    {
                        "children": [],
                        "depth": -1,
                        "name": "Refunded Gas",
                        "value": 0
                    }
                ],
                "depth": -2,
                "name": "Total Gas",
                "value": 101984
            }
        ],
        "isConfirmed": true,
        "mainTrace": [
            {
                "children": [
                    {
                        "children": [],
                        "depth": 0,
                        "id": 0,
                        "order": 0
                    }
                ],
                "depth": -1,
                "id": -1,
                "order": -1
            }
        ],
        "mainTraceNodeCount": 1,
        "parentIdMap": {
            "0": -1
        },
        "tidyTrace": [
            {
                "children": [
                    {
                        "children": [],
                        "depth": 0,
                        "id": 0,
                        "order": 0
                    }
                ],
                "depth": -1,
                "id": -1,
                "order": -1
            }
        ],
        "tidyTraceNodeCount": 1
    },
    "state_change": {
        "stateChanges": [
            {
                "address": "0x001a589dda0d6be37632925eaf1256986b2c6ad0",
                "erc": "",
                "slots": [
                    {
                        "current": "0x000000000000000000000000000000000000000000000000000867cd24f04964",
                        "key": "0xfbcfc110a240e9c1bbfe6a5561417328e25d1b9fa2955547c51ab37ed9886ddf",
                        "prev": "0x00000000000000000000000000000000000000000000000000086b3362109db2"
                    },
                    {
                        "current": "0x0000000000000000000000000000000000000000000000000002cd4461a56dcc",
                        "key": "0x0a3e20cdfb1e3c19e3c1c28d55290223ae5f193b939a6692661c5184ef185c09",
                        "prev": "0x0000000000000000000000000000000000000000000000000002ce66760589e6"
                    },
                    {
                        "current": "0x000000000000000000000000000000000000000000000000000047ba09c3be2e",
                        "key": "0x0000000000000000000000000000000000000000000000000000000000000008",
                        "prev": "0x000000000000000000000000000000000000000000000000000047d70bcd5a97"
                    },
                    {
                        "current": "0x000000000000000000000000000000000000000000000000000e0255e83b24fc",
                        "key": "0x8d90a37db271d62339ebfe84641d1ebdaf56fd5d50861d795eacb410dbb57630",
                        "prev": "0x000000000000000000000000000000000000000000000000000e08004e1bb17e"
                    },
                    {
                        "current": "0x0000000000000000000000000000000000000000000000000002cd4461a56dcc",
                        "key": "0x50d870f2c230c16f231495f4e7b81cdb16d2d2c8c441fd76acc401eef0b56db4",
                        "prev": "0x0000000000000000000000000000000000000000000000000002ce66760589e6"
                    },
                    {
                        "current": "0x000000000000000000000000000000000000000000000000000867cd24f04964",
                        "key": "0x85f680c5187710b68d76df293e6f707a676f16adbd40861dea15c3adb0a812d2",
                        "prev": "0x00000000000000000000000000000000000000000000000000086b3362109db2"
                    },
                    {
                        "current": "0x0000000000000000000000000000000000000000000000000002cd4461a56dcc",
                        "key": "0xe42040f6d03b71aa9347e8cc64325c65dab2e29bb543e1bbdedfa7ef24d6d1ce",
                        "prev": "0x0000000000000000000000000000000000000000000000000002ce66760589e6"
                    },
                    {
                        "current": "0x0000000000000000000000000000000000000000000000000002cd4461a56dcc",
                        "key": "0x3f00a31a1df61e6f8ed49e41f20324a6730a214adfcab4bd02665f770f9730f3",
                        "prev": "0x0000000000000000000000000000000000000000000000000002ce66760589e6"
                    },
                    {
                        "current": "0x000000000000000000000000000000000000000000000000000867cd24f04964",
                        "key": "0xcde9e004edcdd07b69e17aa6fcd1df3cd86f763b7e4a3950569b0d76cece3e63",
                        "prev": "0x00000000000000000000000000000000000000000000000000086b3362109db2"
                    },
                    {
                        "current": "0x000000000000000000000000000000000000000000000000000867cd24f04964",
                        "key": "0xaea8a44f27143aaea13ed379d0ae5fdb096afebb7b2026f7e5bff81852ead13d",
                        "prev": "0x00000000000000000000000000000000000000000000000000086b3362109db2"
                    },
                    {
                        "current": "0x000000000000000000000000000000000000000000000000000e0255e83b24fc",
                        "key": "0xe9421cef08bef31192987611fe2b91c11063062de51738cc859295abf8fc7319",
                        "prev": "0x000000000000000000000000000000000000000000000000000e08004e1bb17e"
                    }
                ],
                "storageVariables": []
            }
        ]
    }
}