{
    "balance_change": {
        "balanceChanges": [
            {
                "account": "0x06df20b0f52b059da0bec43c0a016e146e81dceb",
                "assets": [
                    {
                        "address": "0x46a22db378098eee1ea63daa30ef11368e7b99a5",
                        "amount": "80,000",
                        "iconUrl": "",
                        "isERC1155": false,
                        "isERC721": false,
                        "sign": false,
                        "value": ""
                    }
                ]
            },
            {
                "account": "0x5e629ccf1a3f31d03e78695bab064d6f06349812",
                "assets": [
                    {
                        "address": "0x46a22db378098eee1ea63daa30ef11368e7b99a5",
                        "amount": "80,000",
                        "iconUrl": "",
                        "isERC1155": false,
                        "isERC721": false,
                        "sign": true,
                        "value": ""
                    }
                ]
            }
        ]
    },
    "profile": {
        "basic_info": {
            "baseFee": "",
            "blockNumber": 6299700,
            "callData": "0xa9059cbb0000000000000000000000005e629ccf1a3f31d03e78695bab064d6f063498120000000000000000000000000000000000000000000000000000000000013880",
            "debugEnable": true,
            "errorInfo": "",
            "eventCount": 1,
            "feeRecipient": "0x52bc44d5378309ee2abf1539bf71de1b7d7be3b5",
            "formatValue": "0",
            "gasLimit": 4300000,
            "gasPrice": "40",
            "gasUsed": 37648,
            "intTxnCount": 0,
            "internalRevert": false,
            "internalRevertMessage": "",
            "isContractCreation": false,
            "isFlashloan": false,
            "maxFee": "",
            "nonce": 14306,
            "overwritedBlockNumber": -1,
            "priorityFee": "",
            "receiver": "0x46a22db378098eee1ea63daa30ef11368e7b99a5",
            "revertMessage": "",
            "sender": "0x06df20b0f52b059da0bec43c0a016e146e81dceb",
            "simulationEnable": true,
            "sourceTxnHash": "0x8709c1fae73e3991be27cd03165aceccd5a70245e4e831e5b06f38391e8e3b32",
            "status": true,
            "timestamp": "2018-09-09T11:04:41Z",
            "transactionFee": "0.00150592",
            "txnHash": "0x8709c1fae73e3991be27cd03165aceccd5a70245e4e831e5b06f38391e8e3b32",
            "txnIndex": 45,
            "type": 0,
            "value": "0"
        },
        "fund_flow": [
            {
                "amount": "80,000",
                "from": "0x06df20b0f52b059da0bec43c0a016e146e81dceb",
                "id": 1,
                "isERC1155": false,
                "isERC721": false,
                "isReverted": false,
                "order": 1,
                "to": "0x5e629ccf1a3f31d03e78695bab064d6f06349812",
                "token": "0x46a22db378098eee1ea63daa30ef11368e7b99a5"
            }
        ],
        "token_infos": [
            {
                "address": "0xc02aaa39b223fe8d0a0e5c4f27ead9083c756cc2",
                "decimals": 18
            },
            {
                "address": "0xeeeeeeeeeeeeeeeeeeeeeeeeeeeeeeeeeeeeeeee",
                "decimals": 18
            }
        ]
    },
    "address_label": {
        "labels": [
            {
                "address": "0xeeeeeeeeeeeeeeeeeeeeeeeeeeeeeeeeeeeeeeee",
                "label": "Ether"
            },
            {
                "address": "0x0000000000000000000000000000000000000001",
                "label": "Precompiled"
            },
            {
                "address": "0x0000000000000000000000000000000000000002",
                "label": "Precompiled"
            },
            {
                "address": "0x0000000000000000000000000000000000000003",
                "label": "Precompiled"
            },
            {
                "address": "0x0000000000000000000000000000000000000004",
                "label": "Precompiled"
            }
        ]
    },
    "trace": {
        "accountLabels": null,
        "dataMap": {
            "-1": {
                "invocation": {
                    "address": "0x06df20b0f52b059da0bec43c0a016e146e81dceb",
                    "callData": "",
                    "decodedMethod": null,
                    "errorInfo": "",
                    "fromAddress": "",
                    "gasUsed": 0,
                    "id": -1,
                    "methodDecoded": false,
                    "operation": "",
                    "output": "",
                    "revert": false,
                    "revertMessage": "",
                    "selector": "",
                    "status": false,
                    "value": ""
                },
                "nodeType": 0
            },
            "0": {
                "invocation": {
                    "address": "0x46a22db378098eee1ea63daa30ef11368e7b99a5",
                    "callData": "0x0000000000000000000000005e629ccf1a3f31d03e78695bab064d6f063498120000000000000000000000000000000000000000000000000000000000013880",
                    "decodedMethod": {
                        "callParams": [
                            {
                                "name": "_to",
                                "type": "address",
                                "value": "0x5e629ccf1a3f31d03e78695bab064d6f06349812"
                            },
                            {
                                "decimalAvailable": true,
                                "name": "_value",
                                "type": "uint256",
                                "value": "80,000"
                            }
                        ],
                        "constructorArguments": "",
                        "name": "transfer",
                        "returnParams": [],
                        "signature": "transfer(address,uint256)"
                    },
                    "errorInfo": "",
                    "fromAddress": "0x06df20b0f52b059da0bec43c0a016e146e81dceb",
                    "gasUsed": 37648,
                    "id": 0,
                    "methodDecoded": true,
                    "operation": "CALL",
                    "output": "",
                    "revert": false,
                    "revertMessage": "",
                    "selector": "0xa9059cbb",
                    "status": true,
                    "value": "0"
                },
                "nodeType": 0
            },
            "1": {
                "event": {
                    "contract": "0x46a22db378098eee1ea63daa30ef11368e7b99a5",
                    "decodedLog": {
                        "name": "Transfer",
                        "params": [
                            {
                                "name": "from",
                                "type": "address",
                                "value": "0x06df20b0f52b059da0bec43c0a016e146e81dceb"
                            },
                            {
                                "name": "to",
                                "type": "address",
                                "value": "0x5e629ccf1a3f31d03e78695bab064d6f06349812"
                            },
                            {
                                "decimalAvailable": true,
                                "name": "value",
                                "type": "uint256",
                                "value": "80,000"
                            }
                        ],
                        "signature": "Transfer(address,address,uint256)"
                    },
                    "id": 1,
                    "logData": "0x0000000000000000000000000000000000000000000000000000000000013880",
                    "logDecoded": true,
                    "operation": "EVENT",
                    "revert": false,
                    "status": true,
                    "topics": [
                        "0xddf252ad1be2c89b69c2b068fc378daa952ba7f163c4a11628f55a4df523b3ef",
                        "0x00000000000000000000000006df20b0f52b059da0bec43c0a016e146e81dceb",
                        "0x0000000000000000000000005e629ccf1a3f31d03e78695bab064d6f06349812"
                    ]
                },
                "nodeType": 1
            }
        },
        "gasFlame": [
            {
                "children": [
                    {
                        "children": [
                            {
                                "children": [],
                                "depth": 0,
                                "name": "Initial Gas",
                                "value": 23000
                            },
                            {
                                "children": [],
                                "depth": 0,
                                "name": "Executed Gas",
                                "value": 14648
                            }
                        ],
                        "depth": -1,
                        "name": "Actual Gas Used",
                        "value": 37648
                    },
                    {
                        "children": [],
                        "depth": -1,
                        "name": "Refunded Gas",
                        "value": 0
                    }
                ],
                "depth": -2,
                "name": "Total Gas",
                "value": 37648
            }
        ],
        "isConfirmed": true,
        "mainTrace": [
            {
                "children": [
                    {
                        "children": [
                            {
                                "children": [],
                                "depth": 1,
                                "id": 1,
                                "order": 1
                            }
                        ],
                        "depth": 0,
                        "id": 0,
                        "order": 0
                    }
                ],
                "depth": -1,
                "id": -1,
                "order": -1
            }
        ],
        "mainTraceNodeCount": 2,
        "parentIdMap": {
            "0": -1,
            "1": 0
        },
        "tidyTrace": [
            {
                "children": [
                    {
                        "children": [
                            {
                                "children": [],
                                "depth": 1,
                                "id": 1,
                                "order": 1
                            }
                        ],
                        "depth": 0,
                        "id": 0,
                        "order": 0
                    }
                ],
                "depth": -1,
                "id": -1,
                "order": -1
            }
        ],
        "tidyTraceNodeCount": 2
    },
    "state_change": {
        "stateChanges": [
            {
                "address": "0x46a22db378098eee1ea63daa30ef11368e7b99a5",
                "erc": "",
                "slots": [
                    {
                        "current": "0x0000000000000000000000000000000000000000000000000000000245a3ce1b",
                        "key": "0x06d94a6c1f52e1bac1696a79da96ea0f6891043b2f665a17e7231ef3e04d9b00",
                        "prev": "0x0000000000000000000000000000000000000000000000000000000245a5069b"
                    },
                    {
                        "current": "0x00000000000000000000000000000000000000000000000000000000009ba3c0",
                        "key": "0x4665494cd8166a6a7cc42864c55deccc436ddc7632768b053b52be67ffcc929a",
                        "prev": "0x00000000000000000000000000000000000000000000000000000000009a6b40"
                    }
                ],
                "storageVariables": []
            }
        ]
    }
}