{
    "balance_change": {
        "balanceChanges": [
            {
                "account": "0x1f93b5e75a04b225816935c3d65f552cac88a61b",
                "assets": [
                    {
                        "address": "0xeeeeeeeeeeeeeeeeeeeeeeeeeeeeeeeeeeeeeeee",
                        "amount": "0.000000000000000001",
                        "iconUrl": "https://assets.blocksec.com/image/1663669189317-3.png",
                        "isERC1155": false,
                        "isERC721": false,
                        "sign": false,
                        "value": ""
                    }
                ]
            },
            {
                "account": "0xad62f56a03334b647e55dbdb5b8642c24605a801",
                "assets": [
                    {
                        "address": "0xeeeeeeeeeeeeeeeeeeeeeeeeeeeeeeeeeeeeeeee",
                        "amount": "0.000000000000000001",
                        "iconUrl": "https://assets.blocksec.com/image/1663669189317-3.png",
                        "isERC1155": false,
                        "isERC721": false,
                        "sign": true,
                        "value": ""
                    }
                ]
            },
            {
                "account": "0x2e6480c43704100a7f60f6006d94aff5a5801f49",
                "assets": [
                    {
                        "address": "0x225bc3affc1da39bd3cb2100c74a41c62310d1e1",
                        "amount": "172,260,000",
                        "iconUrl": "",
                        "isERC1155": false,
                        "isERC721": false,
                        "sign": false,
                        "value": ""
                    }
                ]
            },
            {
                "account": "0x94bb9087715c2eb2b948701672bde5a666473598",
                "assets": [
                    {
                        "address": "0x225bc3affc1da39bd3cb2100c74a41c62310d1e1",
                        "amount": "172,260,000",
                        "iconUrl": "",
                        "isERC1155": false,
                        "isERC721": false,
                        "sign": true,
                        "value": ""
                    }
                ]
            }
        ]
    },
    "profile": {
        "basic_info": {
            "baseFee": "",
            "blockNumber": 1321611,
            "callData": "0x3ed486790000000000000000000000002e6480c43704100a7f60f6006d94aff5a5801f4900000000000000000000000000000000000000000000000000000000570c9df200000000000000000000000000000000000000000000000000000000000000c0000000000000000000000000000000000000000000000000000000000000012000000000000000000000000094bb9087715c2eb2b948701672bde5a666473598000000000000000000000000000000000000000000000000000000000a447aa00000000000000000000000000000000000000000000000000000000000000002623c0330494c544bca69ebe748939e905f106c8b42b1b0e909284c6a95bd384e20f0df25c98c96336faa682ffa139546bb31bcd1b9596ac03c4b1b48552c38930000000000000000000000000000000000000000000000000000000000000001000000000000000000000000000000000000000000000000000000000000001b",
            "debugEnable": true,
            "errorInfo": "",
            "eventCount": 4,
            "feeRecipient": "0x2a65aca4d5fc5b5c859090a6c34d164135398226",
            "formatValue": "0.000000000000000001",
            "gasLimit": 250000,
            "gasPrice": "20",
            "gasUsed": 78012,
            "intTxnCount": 12,
            "internalRevert": false,
            "internalRevertMessage": "",
            "isContractCreation": false,
            "isFlashloan": false,
            "maxFee": "",
            "nonce": 45541,
            "overwritedBlockNumber": -1,
            "priorityFee": "",
            "receiver": "0xad62f56a03334b647e55dbdb5b8642c24605a801",
            "revertMessage": "",
            "sender": "0x1f93b5e75a04b225816935c3d65f552cac88a61b",
            "simulationEnable": true,
            "sourceTxnHash": "0x87c6d4069ee9b9af08db0b4f89fea55e9a99357015eb4f7bfc2a659565097c2f",
            "status": true,
            "timestamp": "2016-04-12T07:04:24Z",
            "transactionFee": "0.00156024",
            "txnHash": "0x87c6d4069ee9b9af08db0b4f89fea55e9a99357015eb4f7bfc2a659565097c2f",
            "txnIndex": 3,
            "type": 0,
            "value": "1"
        },
        "fund_flow": [
            {
                "amount": "0.000000000000000001",
                "from": "0x1f93b5e75a04b225816935c3d65f552cac88a61b",
                "id": 1,
                "isERC1155": false,
                "isERC721": false,
                "isReverted": false,
                "order": 1,
                "to": "0xad62f56a03334b647e55dbdb5b8642c24605a801",
                "token": "0xeeeeeeeeeeeeeeeeeeeeeeeeeeeeeeeeeeeeeeee"
            },
            {
                "amount": "172,260,000",
                "from": "0x2e6480c43704100a7f60f6006d94aff5a5801f49",
                "id": 3,
                "isERC1155": false,
                "isERC721": false,
                "isReverted": false,
                "order": 2,
                "to": "0x94bb9087715c2eb2b948701672bde5a666473598",
                "token": "0x225bc3affc1da39bd3cb2100c74a41c62310d1e1"
            }
        ],
        "token_infos": [
            {
                "address": "0x225bc3affc1da39bd3cb2100c74a41c62310d1e1",
                "decimals": 0
            },
            {
                "address": "0xc02aaa39b223fe8d0a0e5c4f27ead9083c756cc2",
                "decimals": 18
            },
            {
                "address": "0xeeeeeeeeeeeeeeeeeeeeeeeeeeeeeeeeeeeeeeee",
                "decimals": 18
            }
        ]
    },
    "address_label": {
        "labels": [
            {
                "address": "0x0000000000000000000000000000000000000004",
                "label": "Precompiled"
            },
            {
                "address": "0xeeeeeeeeeeeeeeeeeeeeeeeeeeeeeeeeeeeeeeee",
                "label": "Ether"
            },
            {
                "address": "0x225bc3affc1da39bd3cb2100c74a41c62310d1e1",
                "label": "elcoin"
            },
            {
                "address": "0x276c5c6ca8507ed7bac085fc9b9521f4f54b58d3",
                "label": "ElcoinDb"
            },
            {
                "address": "0x0000000000000000000000000000000000000001",
                "label": "Precompiled"
            },
            {
                "address": "0x0000000000000000000000000000000000000002",
                "label": "Precompiled"
            },
            {
                "address": "0x0000000000000000000000000000000000000003",
                "label": "Precompiled"
            }
        ]
    },
    "trace": {
        "accountLabels": null,
        "dataMap": {
            "-1": {
                "invocation": {
                    "address": "0x1f93b5e75a04b225816935c3d65f552cac88a61b",
                    "callData": "",
                    "decodedMethod": null,
                    "errorInfo": "",
                    "fromAddress": "",
                    "gasUsed": 0,
                    "id": -1,
                    "methodDecoded": false,
                    "operation": "",
                    "output": "",
                    "revert": false,
                    "revertMessage": "",
                    "selector": "",
                    "status": false,
                    "value": ""
                },
                "nodeType": 0
            },
            "0": {
                "invocation": {
                    "address": "0xad62f56a03334b647e55dbdb5b8642c24605a801",
                    "callData": "0x0000000000000000000000002e6480c43704100a7f60f6006d94aff5a5801f4900000000000000000000000000000000000000000000000000000000570c9df200000000000000000000000000000000000000000000000000000000000000c0000000000000000000000000000000000000000000000000000000000000012000000000000000000000000094bb9087715c2eb2b948701672bde5a666473598000000000000000000000000000000000000000000000000000000000a447aa00000000000000000000000000000000000000000000000000000000000000002623c0330494c544bca69ebe748939e905f106c8b42b1b0e909284c6a95bd384e20f0df25c98c96336faa682ffa139546bb31bcd1b9596ac03c4b1b48552c38930000000000000000000000000000000000000000000000000000000000000001000000000000000000000000000000000000000000000000000000000000001b",
                    "decodedMethod": null,
                    "errorInfo": "",
                    "fromAddress": "0x1f93b5e75a04b225816935c3d65f552cac88a61b",
                    "gasUsed": 78012,
                    "id": 0,
                    "methodDecoded": false,
                    "operation": "CALL",
                    "output": "0x0000000000000000000000000000000000000000000000000000000000000001",
                    "revert": false,
                    "revertMessage": "",
                    "selector": "0x3ed48679",
                    "status": true,
                    "value": "0.000000000000000001"
                },
                "nodeType": 0
            },
            "1": {
                "invocation": {
                    "address": "0xce81bc335ec2818b5926299ab65b7f2a7d882208",
                    "callData": "0x61636365737331000000000000000000000000000000000000000000000000007369676e657200000000000000000000000000000000000000000000000000000000000000000000000000001f93b5e75a04b225816935c3d65f552cac88a61b",
                    "decodedMethod": null,
                    "errorInfo": "",
                    "fromAddress": "0xad62f56a03334b647e55dbdb5b8642c24605a801",
                    "gasUsed": 4002,
                    "id": 1,
                    "methodDecoded": false,
                    "operation": "CALL",
                    "output": "0x0000000000000000000000000000000000000000000000000000000000000001",
                    "revert": false,
                    "revertMessage": "",
                    "selector": "0xa1add510",
                    "status": true,
                    "value": "0"
                },
                "nodeType": 0
            },
            "10": {
                "invocation": {
                    "address": "0x276c5c6ca8507ed7bac085fc9b9521f4f54b58d3",
                    "callData": "0x00000000000000000000000094bb9087715c2eb2b948701672bde5a666473598000000000000000000000000000000000000000000000000000000000a41d9bc00000000000000000000000000000000000000000000000000000000000000000000000000000000000000000000000000000000000000000000000000000000",
                    "decodedMethod": {
                        "callParams": [
                            {
                                "name": "addr",
                                "type": "address",
                                "value": "0x94bb9087715c2eb2b948701672bde5a666473598"
                            },
                            {
                                "name": "amount",
                                "type": "uint256",
                                "value": "172,087,740"
                            },
                            {
                                "name": "hash",
                                "type": "bytes32",
                                "value": "0x0000000000000000000000000000000000000000000000000000000000000000"
                            },
                            {
                                "name": "time",
                                "type": "uint256",
                                "value": "0"
                            }
                        ],
                        "constructorArguments": "",
                        "name": "deposit",
                        "returnParams": [
                            {
                                "name": "res",
                                "type": "bool",
                                "value": true
                            }
                        ],
                        "signature": "deposit(address,uint256,bytes32,uint256)"
                    },
                    "errorInfo": "",
                    "fromAddress": "0x225bc3affc1da39bd3cb2100c74a41c62310d1e1",
                    "gasUsed": 8060,
                    "id": 10,
                    "methodDecoded": true,
                    "operation": "CALL",
                    "output": "0x0000000000000000000000000000000000000000000000000000000000000001",
                    "revert": false,
                    "revertMessage": "",
                    "selector": "0xec2ac54e",
                    "status": true,
                    "value": "0"
                },
                "nodeType": 0
            },
            "11": {
                "event": {
                    "contract": "0x276c5c6ca8507ed7bac085fc9b9521f4f54b58d3",
                    "decodedLog": {
                        "name": "Transaction",
                        "params": [
                            {
                                "name": "hash",
                                "type": "bytes32",
                                "value": "0x0000000000000000000000000000000000000000000000000000000000000000"
                            },
                            {
                                "name": "from",
                                "type": "address",
                                "value": "0x0000000000000000000000000000000000000000"
                            },
                            {
                                "name": "to",
                                "type": "address",
                                "value": "0x94bb9087715c2eb2b948701672bde5a666473598"
                            },
                            {
                                "name": "time",
                                "type": "uint256",
                                "value": "0"
                            },
                            {
                                "name": "amount",
                                "type": "uint256",
                                "value": "172,087,740"
                            }
                        ],
                        "signature": "Transaction(bytes32,address,address,uint256,uint256)"
                    },
                    "id": 11,
                    "logData": "0x0000000000000000000000000000000000000000000000000000000000000000000000000000000000000000000000000000000000000000000000000a41d9bc",
                    "logDecoded": true,
                    "operation": "EVENT",
                    "revert": false,
                    "status": true,
                    "topics": [
                        "0xea0f544916910bb1ff33390cbe54a3f5d36d298328578399311cde3c9a750686",
                        "0x0000000000000000000000000000000000000000000000000000000000000000",
                        "0x0000000000000000000000000000000000000000000000000000000000000000",
                        "0x00000000000000000000000094bb9087715c2eb2b948701672bde5a666473598"
                    ]
                },
                "nodeType": 1
            },
            "12": {
                "event": {
                    "contract": "0x225bc3affc1da39bd3cb2100c74a41c62310d1e1",
                    "decodedLog": {
                        "name": "Transfer",
                        "params": [
                            {
                                "name": "from",
                                "type": "address",
                                "value": "0x2e6480c43704100a7f60f6006d94aff5a5801f49"
                            },
                            {
                                "name": "to",
                                "type": "address",
                                "value": "0x94bb9087715c2eb2b948701672bde5a666473598"
                            },
                            {
                                "decimalAvailable": true,
                                "name": "value",
                                "type": "uint256",
                                "value": "172,260,000"
                            }
                        ],
                        "signature": "Transfer(address,address,uint256)"
                    },
                    "id": 12,
                    "logData": "0x000000000000000000000000000000000000000000000000000000000a447aa0",
                    "logDecoded": true,
                    "operation": "EVENT",
                    "revert": false,
                    "status": true,
                    "topics": [
                        "0xddf252ad1be2c89b69c2b068fc378daa952ba7f163c4a11628f55a4df523b3ef",
                        "0x0000000000000000000000002e6480c43704100a7f60f6006d94aff5a5801f49",
                        "0x00000000000000000000000094bb9087715c2eb2b948701672bde5a666473598"
                    ]
                },
                "nodeType": 1
            },
            "13": {
                "invocation": {
                    "address": "0x276c5c6ca8507ed7bac085fc9b9521f4f54b58d3",
                    "callData": "0x000000000000000000000000c29b27f6e930693e36b257ced113e5d4b9877a0b000000000000000000000000000000000000000000000000000000000002a0e400000000000000000000000000000000000000000000000000000000000000000000000000000000000000000000000000000000000000000000000000000000",
                    "decodedMethod": {
                        "callParams": [
                            {
                                "name": "addr",
                                "type": "address",
                                "value": "0xc29b27f6e930693e36b257ced113e5d4b9877a0b"
                            },
                            {
                                "name": "amount",
                                "type": "uint256",
                                "value": "172,260"
                            },
                            {
                                "name": "hash",
                                "type": "bytes32",
                                "value": "0x0000000000000000000000000000000000000000000000000000000000000000"
                            },
                            {
                                "name": "time",
                                "type": "uint256",
                                "value": "0"
                            }
                        ],
                        "constructorArguments": "",
                        "name": "deposit",
                        "returnParams": [
                            {
                                "name": "res",
                                "type": "bool",
                                "value": true
                            }
                        ],
                        "signature": "deposit(address,uint256,bytes32,uint256)"
                    },
                    "errorInfo": "",
                    "fromAddress": "0x225bc3affc1da39bd3cb2100c74a41c62310d1e1",
                    "gasUsed": 8060,
                    "id": 13,
                    "methodDecoded": true,
                    "operation": "CALL",
                    "output": "0x0000000000000000000000000000000000000000000000000000000000000001",
                    "revert": false,
                    "revertMessage": "",
                    "selector": "0xec2ac54e",
                    "status": true,
                    "value": "0"
                },
                "nodeType": 0
            },
            "14": {
                "event": {
                    "contract": "0x276c5c6ca8507ed7bac085fc9b9521f4f54b58d3",
                    "decodedLog": {
                        "name": "Transaction",
                        "params": [
                            {
                                "name": "hash",
                                "type": "bytes32",
                                "value": "0x0000000000000000000000000000000000000000000000000000000000000000"
                            },
                            {
                                "name": "from",
                                "type": "address",
                                "value": "0x0000000000000000000000000000000000000000"
                            },
                            {
                                "name": "to",
                                "type": "address",
                                "value": "0xc29b27f6e930693e36b257ced113e5d4b9877a0b"
                            },
                            {
                                "name": "time",
                                "type": "uint256",
                                "value": "0"
                            },
                            {
                                "name": "amount",
                                "type": "uint256",
                                "value": "172,260"
                            }
                        ],
                        "signature": "Transaction(bytes32,address,address,uint256,uint256)"
                    },
                    "id": 14,
                    "logData": "0x0000000000000000000000000000000000000000000000000000000000000000000000000000000000000000000000000000000000000000000000000002a0e4",
                    "logDecoded": true,
                    "operation": "EVENT",
                    "revert": false,
                    "status": true,
                    "topics": [
                        "0xea0f544916910bb1ff33390cbe54a3f5d36d298328578399311cde3c9a750686",
                        "0x0000000000000000000000000000000000000000000000000000000000000000",
                        "0x0000000000000000000000000000000000000000000000000000000000000000",
                        "0x000000000000000000000000c29b27f6e930693e36b257ced113e5d4b9877a0b"
                    ]
                },
                "nodeType": 1
            },
            "15": {
                "invocation": {
                    "address": "0xce81bc335ec2818b5926299ab65b7f2a7d882208",
                    "callData": "0x656c636f696e506f530000000000000000000000000000000000000000000000",
                    "decodedMethod": null,
                    "errorInfo": "",
                    "fromAddress": "0x225bc3affc1da39bd3cb2100c74a41c62310d1e1",
                    "gasUsed": 491,
                    "id": 15,
                    "methodDecoded": false,
                    "operation": "CALL",
                    "output": "0x0000000000000000000000000000000000000000000000000000000000000000",
                    "revert": false,
                    "revertMessage": "",
                    "selector": "0x2ade6c36",
                    "status": true,
                    "value": "0"
                },
                "nodeType": 0
            },
            "16": {
                "invocation": {
                    "address": "0xce81bc335ec2818b5926299ab65b7f2a7d882208",
                    "callData": "0x656c636f696e506f540000000000000000000000000000000000000000000000",
                    "decodedMethod": null,
                    "errorInfo": "",
                    "fromAddress": "0x225bc3affc1da39bd3cb2100c74a41c62310d1e1",
                    "gasUsed": 491,
                    "id": 16,
                    "methodDecoded": false,
                    "operation": "CALL",
                    "output": "0x0000000000000000000000000000000000000000000000000000000000000000",
                    "revert": false,
                    "revertMessage": "",
                    "selector": "0x2ade6c36",
                    "status": true,
                    "value": "0"
                },
                "nodeType": 0
            },
            "2": {
                "invocation": {
                    "address": "0xce81bc335ec2818b5926299ab65b7f2a7d882208",
                    "callData": "0x656c636f696e0000000000000000000000000000000000000000000000000000",
                    "decodedMethod": null,
                    "errorInfo": "",
                    "fromAddress": "0xad62f56a03334b647e55dbdb5b8642c24605a801",
                    "gasUsed": 736,
                    "id": 2,
                    "methodDecoded": false,
                    "operation": "CALL",
                    "output": "0x000000000000000000000000225bc3affc1da39bd3cb2100c74a41c62310d1e1",
                    "revert": false,
                    "revertMessage": "",
                    "selector": "0x2ade6c36",
                    "status": true,
                    "value": "0"
                },
                "nodeType": 0
            },
            "3": {
                "invocation": {
                    "address": "0x225bc3affc1da39bd3cb2100c74a41c62310d1e1",
                    "callData": "0x0000000000000000000000002e6480c43704100a7f60f6006d94aff5a5801f4900000000000000000000000094bb9087715c2eb2b948701672bde5a666473598000000000000000000000000000000000000000000000000000000000a447aa0",
                    "decodedMethod": {
                        "callParams": [
                            {
                                "name": "_from",
                                "type": "address",
                                "value": "0x2e6480c43704100a7f60f6006d94aff5a5801f49"
                            },
                            {
                                "name": "_to",
                                "type": "address",
                                "value": "0x94bb9087715c2eb2b948701672bde5a666473598"
                            },
                            {
                                "name": "_value",
                                "type": "uint256",
                                "value": "172,260,000"
                            }
                        ],
                        "constructorArguments": "",
                        "name": "transferPool",
                        "returnParams": [
                            {
                                "name": "",
                                "type": "bool",
                                "value": true
                            }
                        ],
                        "signature": "transferPool(address,address,uint256)"
                    },
                    "errorInfo": "",
                    "fromAddress": "0xad62f56a03334b647e55dbdb5b8642c24605a801",
                    "gasUsed": 41252,
                    "id": 3,
                    "methodDecoded": true,
                    "operation": "CALL",
                    "output": "0x0000000000000000000000000000000000000000000000000000000000000001",
                    "revert": false,
                    "revertMessage": "",
                    "selector": "0xaa64c43b",
                    "status": true,
                    "value": "0"
                },
                "nodeType": 0
            },
            "4": {
                "invocation": {
                    "address": "0xce81bc335ec2818b5926299ab65b7f2a7d882208",
                    "callData": "0x656c636f696e0000000000000000000000000000000000000000000000000000706f6f6c00000000000000000000000000000000000000000000000000000000000000000000000000000000ad62f56a03334b647e55dbdb5b8642c24605a801",
                    "decodedMethod": null,
                    "errorInfo": "",
                    "fromAddress": "0x225bc3affc1da39bd3cb2100c74a41c62310d1e1",
                    "gasUsed": 2066,
                    "id": 4,
                    "methodDecoded": false,
                    "operation": "CALL",
                    "output": "0x0000000000000000000000000000000000000000000000000000000000000001",
                    "revert": false,
                    "revertMessage": "",
                    "selector": "0xa1add510",
                    "status": true,
                    "value": "0"
                },
                "nodeType": 0
            },
            "5": {
                "invocation": {
                    "address": "0xce81bc335ec2818b5926299ab65b7f2a7d882208",
                    "callData": "0x656c636f696e4462000000000000000000000000000000000000000000000000",
                    "decodedMethod": null,
                    "errorInfo": "",
                    "fromAddress": "0x225bc3affc1da39bd3cb2100c74a41c62310d1e1",
                    "gasUsed": 736,
                    "id": 5,
                    "methodDecoded": false,
                    "operation": "CALL",
                    "output": "0x000000000000000000000000276c5c6ca8507ed7bac085fc9b9521f4f54b58d3",
                    "revert": false,
                    "revertMessage": "",
                    "selector": "0x2ade6c36",
                    "status": true,
                    "value": "0"
                },
                "nodeType": 0
            },
            "6": {
                "invocation": {
                    "address": "0x276c5c6ca8507ed7bac085fc9b9521f4f54b58d3",
                    "callData": "0x0000000000000000000000002e6480c43704100a7f60f6006d94aff5a5801f49",
                    "decodedMethod": {
                        "callParams": [
                            {
                                "name": "addr",
                                "type": "address",
                                "value": "0x2e6480c43704100a7f60f6006d94aff5a5801f49"
                            }
                        ],
                        "constructorArguments": "",
                        "name": "getBalance",
                        "returnParams": [
                            {
                                "name": "balance",
                                "type": "uint256",
                                "value": "172,483,822,134"
                            }
                        ],
                        "signature": "getBalance(address)"
                    },
                    "errorInfo": "",
                    "fromAddress": "0x225bc3affc1da39bd3cb2100c74a41c62310d1e1",
                    "gasUsed": 479,
                    "id": 6,
                    "methodDecoded": true,
                    "operation": "CALL",
                    "output": "0x0000000000000000000000000000000000000000000000000000002828d64236",
                    "revert": false,
                    "revertMessage": "",
                    "selector": "0xf8b2cb4f",
                    "status": true,
                    "value": "0"
                },
                "nodeType": 0
            },
            "7": {
                "invocation": {
                    "address": "0x276c5c6ca8507ed7bac085fc9b9521f4f54b58d3",
                    "callData": "0x0000000000000000000000002e6480c43704100a7f60f6006d94aff5a5801f49000000000000000000000000000000000000000000000000000000000a447aa000000000000000000000000000000000000000000000000000000000000000000000000000000000000000000000000000000000000000000000000000000000",
                    "decodedMethod": {
                        "callParams": [
                            {
                                "name": "addr",
                                "type": "address",
                                "value": "0x2e6480c43704100a7f60f6006d94aff5a5801f49"
                            },
                            {
                                "name": "amount",
                                "type": "uint256",
                                "value": "172,260,000"
                            },
                            {
                                "name": "hash",
                                "type": "bytes32",
                                "value": "0x0000000000000000000000000000000000000000000000000000000000000000"
                            },
                            {
                                "name": "time",
                                "type": "uint256",
                                "value": "0"
                            }
                        ],
                        "constructorArguments": "",
                        "name": "withdraw",
                        "returnParams": [
                            {
                                "name": "res",
                                "type": "bool",
                                "value": true
                            }
                        ],
                        "signature": "withdraw(address,uint256,bytes32,uint256)"
                    },
                    "errorInfo": "",
                    "fromAddress": "0x225bc3affc1da39bd3cb2100c74a41c62310d1e1",
                    "gasUsed": 14931,
                    "id": 7,
                    "methodDecoded": true,
                    "operation": "CALL",
                    "output": "0x0000000000000000000000000000000000000000000000000000000000000001",
                    "revert": false,
                    "revertMessage": "",
                    "selector": "0x07bc6fad",
                    "status": true,
                    "value": "0"
                },
                "nodeType": 0
            },
            "8": {
                "invocation": {
                    "address": "0x225bc3affc1da39bd3cb2100c74a41c62310d1e1",
                    "callData": "0x",
                    "decodedMethod": null,
                    "errorInfo": "insufficient balance for transfer",
                    "fromAddress": "0x276c5c6ca8507ed7bac085fc9b9521f4f54b58d3",
                    "gasUsed": 0,
                    "id": 8,
                    "methodDecoded": false,
                    "operation": "CALL",
                    "output": "",
                    "revert": false,
                    "revertMessage": "",
                    "selector": "fallback",
                    "status": false,
                    "value": "0.00000000017226"
                },
                "nodeType": 0
            },
            "9": {
                "event": {
                    "contract": "0x276c5c6ca8507ed7bac085fc9b9521f4f54b58d3",
                    "decodedLog": {
                        "name": "Transaction",
                        "params": [
                            {
                                "name": "hash",
                                "type": "bytes32",
                                "value": "0x0000000000000000000000000000000000000000000000000000000000000000"
                            },
                            {
                                "name": "from",
                                "type": "address",
                                "value": "0x2e6480c43704100a7f60f6006d94aff5a5801f49"
                            },
                            {
                                "name": "to",
                                "type": "address",
                                "value": "0x0000000000000000000000000000000000000000"
                            },
                            {
                                "name": "time",
                                "type": "uint256",
                                "value": "0"
                            },
                            {
                                "name": "amount",
                                "type": "uint256",
                                "value": "172,260,000"
                            }
                        ],
                        "signature": "Transaction(bytes32,address,address,uint256,uint256)"
                    },
                    "id": 9,
                    "logData": "0x0000000000000000000000000000000000000000000000000000000000000000000000000000000000000000000000000000000000000000000000000a447aa0",
                    "logDecoded": true,
                    "operation": "EVENT",
                    "revert": false,
                    "status": true,
                    "topics": [
                        "0xea0f544916910bb1ff33390cbe54a3f5d36d298328578399311cde3c9a750686",
                        "0x0000000000000000000000000000000000000000000000000000000000000000",
                        "0x0000000000000000000000002e6480c43704100a7f60f6006d94aff5a5801f49",
                        "0x0000000000000000000000000000000000000000000000000000000000000000"
                    ]
                },
                "nodeType": 1
            }
        },
        "gasFlame": [
            {
                "children": [
                    {
                        "children": [
                            {
                                "children": [],
                                "depth": 0,
                                "name": "Initial Gas",
                                "value": 30168
                            },
                            {
                                "children": [
                                    {
                                        "children": [],
                                        "depth": 1,
                                        "name": "0xa1add510",
                                        "value": 4002
                                    },
                                    {
                                        "children": [],
                                        "depth": 1,
                                        "name": "0x2ade6c36",
                                        "value": 736
                                    },
                                    {
                                        "children": [
                                            {
                                                "children": [],
                                                "depth": 2,
                                                "name": "0xa1add510",
                                                "value": 2066
                                            },
                                            {
                                                "children": [],
                                                "depth": 2,
                                                "name": "0x2ade6c36",
                                                "value": 736
                                            },
                                            {
                                                "children": [],
                                                "depth": 2,
                                                "name": "getBalance",
                                                "value": 479
                                            },
                                            {
                                                "children": [
                                                    {
                                                        "children": [],
                                                        "depth": 3,
                                                        "name": "fallback",
                                                        "value": 0
                                                    }
                                                ],
                                                "depth": 2,
                                                "name": "withdraw",
                                                "value": 14931
                                            },
                                            {
                                                "children": [],
                                                "depth": 2,
                                                "name": "deposit",
                                                "value": 8060
                                            },
                                            {
                                                "children": [],
                                                "depth": 2,
                                                "name": "deposit",
                                                "value": 8060
                                            },
                                            {
                                                "children": [],
                                                "depth": 2,
                                                "name": "0x2ade6c36",
                                                "value": 491
                                            },
                                            {
                                                "children": [],
                                                "depth": 2,
                                                "name": "0x2ade6c36",
                                                "value": 491
                                            }
                                        ],
                                        "depth": 1,
                                        "name": "transferPool",
                                        "value": 41252
                                    }
                                ],
                                "depth": 0,
                                "name": "Executed Gas",
                                "value": 47844
                            }
                        ],
                        "depth": -1,
                        "name": "Actual Gas Used",
                        "value": 78012
                    },
                    {
                        "children": [],
                        "depth": -1,
                        "name": "Refunded Gas",
                        "value": 0
                    }
                ],
                "depth": -2,
                "name": "Total Gas",
                "value": 78012
            }
        ],
        "isConfirmed": true,
        "mainTrace": [
            {
                "children": [
                    {
                        "children": [
                            {
                                "children": [],
                                "depth": 1,
                                "id": 1,
                                "order": 1
                            },
                            {
                                "children": [],
                                "depth": 1,
                                "id": 2,
                                "order": 2
                            },
                            {
                                "children": [
                                    {
                                        "children": [],
                                        "depth": 2,
                                        "id": 4,
                                        "order": 4
                                    },
                                    {
                                        "children": [],
                                        "depth": 2,
                                        "id": 5,
                                        "order": 5
                                    },
                                    {
                                        "children": [],
                                        "depth": 2,
                                        "id": 6,
                                        "order": 6
                                    },
                                    {
                                        "children": [
                                            {
                                                "children": [],
                                                "depth": 3,
                                                "id": 8,
                                                "order": 8
                                            },
                                            {
                                                "children": [],
                                                "depth": 3,
                                                "id": 9,
                                                "order": 9
                                            }
                                        ],
                                        "depth": 2,
                                        "id": 7,
                                        "order": 7
                                    },
                                    {
                                        "children": [
                                            {
                                                "children": [],
                                                "depth": 3,
                                                "id": 11,
                                                "order": 11
                                            }
                                        ],
                                        "depth": 2,
                                        "id": 10,
                                        "order": 10
                                    },
                                    {
                                        "children": [],
                                        "depth": 2,
                                        "id": 12,
                                        "order": 12
                                    },
                                    {
                                        "children": [
                                            {
                                                "children": [],
                                                "depth": 3,
                                                "id": 14,
                                                "order": 14
                                            }
                                        ],
                                        "depth": 2,
                                        "id": 13,
                                        "order": 13
                                    },
                                    {
                                        "children": [],
                                        "depth": 2,
                                        "id": 15,
                                        "order": 15
                                    },
                                    {
                                        "children": [],
                                        "depth": 2,
                                        "id": 16,
                                        "order": 16
                                    }
                                ],
                                "depth": 1,
                                "id": 3,
                                "order": 3
                            }
                        ],
                        "depth": 0,
                        "id": 0,
                        "order": 0
                    }
                ],
                "depth": -1,
                "id": -1,
                "order": -1
            }
        ],
        "mainTraceNodeCount": 17,
        "parentIdMap": {
            "0": -1,
            "1": 0,
            "10": 3,
            "11": 10,
            "12": 3,
            "13": 3,
            "14": 13,
            "15": 3,
            "16": 3,
            "2": 0,
            "3": 0,
            "4": 3,
            "5": 3,
            "6": 3,
            "7": 3,
            "8": 7,
            "9": 7
        },
        "tidyTrace": [
            {
                "children": [
                    {
                        "children": [
                            {
                                "children": [],
                                "depth": 1,
                                "id": 1,
                                "order": 1
                            },
                            {
                                "children": [],
                                "depth": 1,
                                "id": 2,
                                "order": 2
                            },
                            {
                                "children": [
                                    {
                                        "children": [],
                                        "depth": 2,
                                        "id": 4,
                                        "order": 4
                                    },
                                    {
                                        "children": [],
                                        "depth": 2,
                                        "id": 5,
                                        "order": 5
                                    },
                                    {
                                        "children": [],
                                        "depth": 2,
                                        "id": 6,
                                        "order": 6
                                    },
                                    {
                                        "children": [
                                            {
                                                "children": [],
                                                "depth": 3,
                                                "id": 8,
                                                "order": 8
                                            },
                                            {
                                                "children": [],
                                                "depth": 3,
                                                "id": 9,
                                                "order": 9
                                            }
                                        ],
                                        "depth": 2,
                                        "id": 7,
                                        "order": 7
                                    },
                                    {
                                        "children": [
                                            {
                                                "children": [],
                                                "depth": 3,
                                                "id": 11,
                                                "order": 11
                                            }
                                        ],
                                        "depth": 2,
                                        "id": 10,
                                        "order": 10
                                    },
                                    {
                                        "children": [],
                                        "depth": 2,
                                        "id": 12,
                                        "order": 12
                                    },
                                    {
                                        "children": [
                                            {
                                                "children": [],
                                                "depth": 3,
                                                "id": 14,
                                                "order": 14
                                            }
                                        ],
                                        "depth": 2,
                                        "id": 13,
                                        "order": 13
                                    },
                                    {
                                        "children": [],
                                        "depth": 2,
                                        "id": 15,
                                        "order": 15
                                    },
                                    {
                                        "children": [],
                                        "depth": 2,
                                        "id": 16,
                                        "order": 16
                                    }
                                ],
                                "depth": 1,
                                "id": 3,
                                "order": 3
                            }
                        ],
                        "depth": 0,
                        "id": 0,
                        "order": 0
                    }
                ],
                "depth": -1,
                "id": -1,
                "order": -1
            }
        ],
        "tidyTraceNodeCount": 17
    },
    "state_change": {
        "stateChanges": [
            {
                "address": "0x276c5c6ca8507ed7bac085fc9b9521f4f54b58d3",
                "erc": "",
                "slots": [
                    {
                        "current": "0x000000000000000000000000000000000000000000000000000000281e91c796",
                        "key": "0x25c03534fe7296cbbf4c4d01171dacb6f6cb1f28221f76f27c78e634b009c484",
                        "prev": "0x0000000000000000000000000000000000000000000000000000002828d64236"
                    },
                    {
                        "current": "0x000000000000000000000000000000000000000000000000000000000a4485e7",
                        "key": "0x68ed8633326fa200bbdba4f795f8417b29e61d3005d8bcf9a5748a37a49e7c8e",
                        "prev": "0x000000000000000000000000000000000000000000000000000000000002ac2b"
                    },
                    {
                        "current": "0x000000000000000000000000000000000000000000000000000000027d7c95bd",
                        "key": "0xe73db738518d184445d98d775e4d72ba4ead87176c7eba2ec17eb2b982225acb",
                        "prev": "0x000000000000000000000000000000000000000000000000000000027d79f4d9"
                    }
                ],
                "storageVariables": []
            }
        ]
    }
}