{
    "balance_change": {
        "balanceChanges": [
            {
                "account": "0x33cd051be5004929d750f4e9a5bb741caf3aa76e",
                "assets": [
                    {
                        "address": "0xc02aaa39b223fe8d0a0e5c4f27ead9083c756cc2",
                        "amount": "0.6073736178127078",
                        "iconUrl": "https://assets.blocksec.com/icon/f1cb2d02c471d545bbc7722daf3277fd852d98e63d118771af7047bd8256c516.png",
                        "isERC1155": false,
                        "isERC721": false,
                        "sign": false,
                        "value": "246.9641867"
                    },
                    {
                        "address": "0x5d762f76b9e91f71cc4f94391bdfe6333db8519c",
                        "amount": "8.414944703350750622",
                        "iconUrl": "",
                        "isERC1155": false,
                        "isERC721": false,
                        "sign": true,
                        "value": "243.0975371"
                    }
                ]
            },
            {
                "account": "0x3845a342a030ca67bd16ddf739b1a67fe5b3f8f9",
                "assets": [
                    {
                        "address": "0xc02aaa39b223fe8d0a0e5c4f27ead9083c756cc2",
                        "amount": "0.6073736178127078",
                        "iconUrl": "https://assets.blocksec.com/icon/f1cb2d02c471d545bbc7722daf3277fd852d98e63d118771af7047bd8256c516.png",
                        "isERC1155": false,
                        "isERC721": false,
                        "sign": true,
                        "value": "246.9641867"
                    },
                    {
                        "address": "0x5d762f76b9e91f71cc4f94391bdfe6333db8519c",
                        "amount": "8.414944703350750622",
                        "iconUrl": "",
                        "isERC1155": false,
                        "isERC721": false,
                        "sign": false,
                        "value": "243.0975371"
                    }
                ]
            }
        ]
    },
    "profile": {
        "basic_info": {
            "baseFee": "",
            "blockNumber": 11125429,
            "callData": "0x24af032a0000000000000000000000000000000000000000000000000000000000000060000000000000000000000000000000000000000000000000086dd3165fab99d80000000000000000000000000000000000000000000000007271f8abc2d21c000000000000000000000000000000000000000000000000000000000000000002000000000000000000000000c02aaa39b223fe8d0a0e5c4f27ead9083c756cc20000000000000000000000005d762f76b9e91f71cc4f94391bdfe6333db8519c",
            "debugEnable": true,
            "errorInfo": "",
            "eventCount": 5,
            "feeRecipient": "0x5a0b54d5dc17e0aadc383d2db43b0a0d3e029c4c",
            "formatValue": "0",
            "gasLimit": 222745,
            "gasPrice": "19.56",
            "gasUsed": 145261,
            "intTxnCount": 12,
            "internalRevert": false,
            "internalRevertMessage": "",
            "isContractCreation": false,
            "isFlashloan": false,
            "maxFee": "",
            "nonce": 74,
            "overwritedBlockNumber": -1,
            "priorityFee": "",
            "receiver": "0x4134872700a8c53e49216dd4b28bd1fd3128e41d",
            "revertMessage": "",
            "sender": "0x8fc5f918fa5e189ed958dd7ae23e0739adc1c93c",
            "simulationEnable": true,
            "sourceTxnHash": "0x87a953fbef8030869dcdcd996cfc2696c4fbe063159c5d7a6bfe3b4044fedde6",
            "status": true,
            "timestamp": "2020-10-25T11:50:42Z",
            "transactionFee": "0.00284130516",
            "txnHash": "0x87a953fbef8030869dcdcd996cfc2696c4fbe063159c5d7a6bfe3b4044fedde6",
            "txnIndex": 36,
            "type": 0,
            "value": "0"
        },
        "fund_flow": [
            {
                "amount": "0.6073736178127078",
                "from": "0x33cd051be5004929d750f4e9a5bb741caf3aa76e",
                "id": 1,
                "isERC1155": false,
                "isERC721": false,
                "isReverted": false,
                "order": 1,
                "to": "0x4134872700a8c53e49216dd4b28bd1fd3128e41d",
                "token": "0xc02aaa39b223fe8d0a0e5c4f27ead9083c756cc2"
            },
            {
                "amount": "0.6073736178127078",
                "from": "0x4134872700a8c53e49216dd4b28bd1fd3128e41d",
                "id": 2,
                "isERC1155": false,
                "isERC721": false,
                "isReverted": false,
                "order": 2,
                "to": "0x3845a342a030ca67bd16ddf739b1a67fe5b3f8f9",
                "token": "0xc02aaa39b223fe8d0a0e5c4f27ead9083c756cc2"
            },
            {
                "amount": "8.414944703350750622",
                "from": "0x3845a342a030ca67bd16ddf739b1a67fe5b3f8f9",
                "id": 3,
                "isERC1155": false,
                "isERC721": false,
                "isReverted": false,
                "order": 3,
                "to": "0x33cd051be5004929d750f4e9a5bb741caf3aa76e",
                "token": "0x5d762f76b9e91f71cc4f94391bdfe6333db8519c"
            }
        ],
        "token_infos": [
            {
                "address": "0x5d762f76b9e91f71cc4f94391bdfe6333db8519c",
                "decimals": 18
            },
            {
                "address": "0xc02aaa39b223fe8d0a0e5c4f27ead9083c756cc2",
                "decimals": 18
            },
            {
                "address": "0xeeeeeeeeeeeeeeeeeeeeeeeeeeeeeeeeeeeeeeee",
                "decimals": 18
            }
        ]
    },
    "address_label": {
        "labels": [
            {
                "address": "0x3845a342a030ca67bd16ddf739b1a67fe5b3f8f9",
                "label": "Uniswap V2: IYF"
            },
            {
                "address": "0xd03b6ae96cae26b743a6207dcee7cbe60a425c70",
                "label": "Unidexbot: UNDB Token"
            },
            {
                "address": "0x0000000000000000000000000000000000000001",
                "label": "Precompiled"
            },
            {
                "address": "0xeeeeeeeeeeeeeeeeeeeeeeeeeeeeeeeeeeeeeeee",
                "label": "Ether"
            },
            {
                "address": "0x5d762f76b9e91f71cc4f94391bdfe6333db8519c",
                "label": "IYF.Finance: IYF Token"
            },
            {
                "address": "0x7a250d5630b4cf539739df2c5dacb4c659f2488d",
                "label": "Uniswap V2: Router 2"
            },
            {
                "address": "0xc02aaa39b223fe8d0a0e5c4f27ead9083c756cc2",
                "label": "Wrapped Ether (WETH)"
            },
            {
                "address": "0x0000000000000000000000000000000000000002",
                "label": "Precompiled"
            },
            {
                "address": "0x0000000000000000000000000000000000000003",
                "label": "Precompiled"
            },
            {
                "address": "0x0000000000000000000000000000000000000004",
                "label": "Precompiled"
            }
        ]
    },
    "trace": {
        "accountLabels": null,
        "dataMap": {
            "-1": {
                "invocation": {
                    "address": "0x8fc5f918fa5e189ed958dd7ae23e0739adc1c93c",
                    "callData": "",
                    "decodedMethod": null,
                    "errorInfo": "",
                    "fromAddress": "",
                    "gasUsed": 0,
                    "id": -1,
                    "methodDecoded": false,
                    "operation": "",
                    "output": "",
                    "revert": false,
                    "revertMessage": "",
                    "selector": "",
                    "status": false,
                    "value": ""
                },
                "nodeType": 0
            },
            "0": {
                "invocation": {
                    "address": "0x4134872700a8c53e49216dd4b28bd1fd3128e41d",
                    "callData": "0x0000000000000000000000000000000000000000000000000000000000000060000000000000000000000000000000000000000000000000086dd3165fab99d80000000000000000000000000000000000000000000000007271f8abc2d21c000000000000000000000000000000000000000000000000000000000000000002000000000000000000000000c02aaa39b223fe8d0a0e5c4f27ead9083c756cc20000000000000000000000005d762f76b9e91f71cc4f94391bdfe6333db8519c",
                    "decodedMethod": null,
                    "errorInfo": "",
                    "fromAddress": "0x8fc5f918fa5e189ed958dd7ae23e0739adc1c93c",
                    "gasUsed": 145261,
                    "id": 0,
                    "methodDecoded": false,
                    "operation": "CALL",
                    "output": "0x0000000000000000000000000000000000000000000000000000000000000000",
                    "revert": false,
                    "revertMessage": "",
                    "selector": "0x24af032a",
                    "status": true,
                    "value": "0"
                },
                "nodeType": 0
            },
            "1": {
                "invocation": {
                    "address": "0xd03b6ae96cae26b743a6207dcee7cbe60a425c70",
                    "callData": "0x00000000000000000000000033cd051be5004929d750f4e9a5bb741caf3aa76e",
                    "decodedMethod": {
                        "callParams": [
                            {
                                "name": "account",
                                "type": "address",
                                "value": "0x33cd051be5004929d750f4e9a5bb741caf3aa76e"
                            }
                        ],
                        "constructorArguments": "",
                        "name": "balanceOf",
                        "returnParams": [
                            {
                                "decimalAvailable": true,
                                "name": "",
                                "type": "uint256",
                                "value": "500,350,737,284,524,438"
                            }
                        ],
                        "signature": "balanceOf(address)"
                    },
                    "errorInfo": "",
                    "fromAddress": "0x4134872700a8c53e49216dd4b28bd1fd3128e41d",
                    "gasUsed": 1231,
                    "id": 1,
                    "methodDecoded": true,
                    "operation": "CALL",
                    "output": "0x00000000000000000000000000000000000000000000000006f19a5836f2e996",
                    "revert": false,
                    "revertMessage": "",
                    "selector": "0x70a08231",
                    "status": true,
                    "value": "0"
                },
                "nodeType": 0
            },
            "10": {
                "event": {
                    "contract": "0xc02aaa39b223fe8d0a0e5c4f27ead9083c756cc2",
                    "decodedLog": {
                        "name": "Transfer",
                        "params": [
                            {
                                "name": "src",
                                "type": "address",
                                "value": "0x4134872700a8c53e49216dd4b28bd1fd3128e41d"
                            },
                            {
                                "name": "dst",
                                "type": "address",
                                "value": "0x3845a342a030ca67bd16ddf739b1a67fe5b3f8f9"
                            },
                            {
                                "decimalAvailable": true,
                                "name": "wad",
                                "type": "uint256",
                                "value": "607,373,617,812,707,800"
                            }
                        ],
                        "signature": "Transfer(address,address,uint256)"
                    },
                    "id": 10,
                    "logData": "0x000000000000000000000000000000000000000000000000086dd3165fab99d8",
                    "logDecoded": true,
                    "operation": "EVENT",
                    "revert": false,
                    "status": true,
                    "topics": [
                        "0xddf252ad1be2c89b69c2b068fc378daa952ba7f163c4a11628f55a4df523b3ef",
                        "0x0000000000000000000000004134872700a8c53e49216dd4b28bd1fd3128e41d",
                        "0x0000000000000000000000003845a342a030ca67bd16ddf739b1a67fe5b3f8f9"
                    ]
                },
                "nodeType": 1
            },
            "11": {
                "invocation": {
                    "address": "0x3845a342a030ca67bd16ddf739b1a67fe5b3f8f9",
                    "callData": "0x00000000000000000000000000000000000000000000000074c7e39f97c6bd9e000000000000000000000000000000000000000000000000000000000000000000000000000000000000000033cd051be5004929d750f4e9a5bb741caf3aa76e00000000000000000000000000000000000000000000000000000000000000800000000000000000000000000000000000000000000000000000000000000000",
                    "decodedMethod": {
                        "callParams": [
                            {
                                "name": "amount0Out",
                                "type": "uint256",
                                "value": "8,414,944,703,350,750,622"
                            },
                            {
                                "name": "amount1Out",
                                "type": "uint256",
                                "value": "0"
                            },
                            {
                                "name": "to",
                                "type": "address",
                                "value": "0x33cd051be5004929d750f4e9a5bb741caf3aa76e"
                            },
                            {
                                "name": "data",
                                "type": "bytes",
                                "value": "0x"
                            }
                        ],
                        "constructorArguments": "",
                        "name": "swap",
                        "returnParams": [],
                        "signature": "swap(uint256,uint256,address,bytes)"
                    },
                    "errorInfo": "",
                    "fromAddress": "0x7a250d5630b4cf539739df2c5dacb4c659f2488d",
                    "gasUsed": 55943,
                    "id": 11,
                    "methodDecoded": true,
                    "operation": "CALL",
                    "output": "",
                    "revert": false,
                    "revertMessage": "",
                    "selector": "0x022c0d9f",
                    "status": true,
                    "value": "0"
                },
                "nodeType": 0
            },
            "12": {
                "invocation": {
                    "address": "0x5d762f76b9e91f71cc4f94391bdfe6333db8519c",
                    "callData": "0x00000000000000000000000033cd051be5004929d750f4e9a5bb741caf3aa76e00000000000000000000000000000000000000000000000074c7e39f97c6bd9e",
                    "decodedMethod": {
                        "callParams": [
                            {
                                "name": "recipient",
                                "type": "address",
                                "value": "0x33cd051be5004929d750f4e9a5bb741caf3aa76e"
                            },
                            {
                                "decimalAvailable": true,
                                "name": "amount",
                                "type": "uint256",
                                "value": "8,414,944,703,350,750,622"
                            }
                        ],
                        "constructorArguments": "",
                        "name": "transfer",
                        "returnParams": [
                            {
                                "name": "",
                                "type": "bool",
                                "value": true
                            }
                        ],
                        "signature": "transfer(address,uint256)"
                    },
                    "errorInfo": "",
                    "fromAddress": "0x3845a342a030ca67bd16ddf739b1a67fe5b3f8f9",
                    "gasUsed": 14496,
                    "id": 12,
                    "methodDecoded": true,
                    "operation": "CALL",
                    "output": "0x0000000000000000000000000000000000000000000000000000000000000001",
                    "revert": false,
                    "revertMessage": "",
                    "selector": "0xa9059cbb",
                    "status": true,
                    "value": "0"
                },
                "nodeType": 0
            },
            "13": {
                "event": {
                    "contract": "0x5d762f76b9e91f71cc4f94391bdfe6333db8519c",
                    "decodedLog": {
                        "name": "Transfer",
                        "params": [
                            {
                                "name": "from",
                                "type": "address",
                                "value": "0x3845a342a030ca67bd16ddf739b1a67fe5b3f8f9"
                            },
                            {
                                "name": "to",
                                "type": "address",
                                "value": "0x33cd051be5004929d750f4e9a5bb741caf3aa76e"
                            },
                            {
                                "decimalAvailable": true,
                                "name": "value",
                                "type": "uint256",
                                "value": "8,414,944,703,350,750,622"
                            }
                        ],
                        "signature": "Transfer(address,address,uint256)"
                    },
                    "id": 13,
                    "logData": "0x00000000000000000000000000000000000000000000000074c7e39f97c6bd9e",
                    "logDecoded": true,
                    "operation": "EVENT",
                    "revert": false,
                    "status": true,
                    "topics": [
                        "0xddf252ad1be2c89b69c2b068fc378daa952ba7f163c4a11628f55a4df523b3ef",
                        "0x0000000000000000000000003845a342a030ca67bd16ddf739b1a67fe5b3f8f9",
                        "0x00000000000000000000000033cd051be5004929d750f4e9a5bb741caf3aa76e"
                    ]
                },
                "nodeType": 1
            },
            "14": {
                "invocation": {
                    "address": "0x5d762f76b9e91f71cc4f94391bdfe6333db8519c",
                    "callData": "0x0000000000000000000000003845a342a030ca67bd16ddf739b1a67fe5b3f8f9",
                    "decodedMethod": {
                        "callParams": [
                            {
                                "name": "account",
                                "type": "address",
                                "value": "0x3845a342a030ca67bd16ddf739b1a67fe5b3f8f9"
                            }
                        ],
                        "constructorArguments": "",
                        "name": "balanceOf",
                        "returnParams": [
                            {
                                "decimalAvailable": true,
                                "name": "",
                                "type": "uint256",
                                "value": "1,711,360,903,773,304,934,053"
                            }
                        ],
                        "signature": "balanceOf(address)"
                    },
                    "errorInfo": "",
                    "fromAddress": "0x3845a342a030ca67bd16ddf739b1a67fe5b3f8f9",
                    "gasUsed": 1190,
                    "id": 14,
                    "methodDecoded": true,
                    "operation": "STATICCALL",
                    "output": "0x00000000000000000000000000000000000000000000005cc5e74acd9b4c4ea5",
                    "revert": false,
                    "revertMessage": "",
                    "selector": "0x70a08231",
                    "status": true,
                    "value": "0"
                },
                "nodeType": 0
            },
            "15": {
                "invocation": {
                    "address": "0xc02aaa39b223fe8d0a0e5c4f27ead9083c756cc2",
                    "callData": "0x0000000000000000000000003845a342a030ca67bd16ddf739b1a67fe5b3f8f9",
                    "decodedMethod": {
                        "callParams": [
                            {
                                "name": "",
                                "type": "address",
                                "value": "0x3845a342a030ca67bd16ddf739b1a67fe5b3f8f9"
                            }
                        ],
                        "constructorArguments": "",
                        "name": "balanceOf",
                        "returnParams": [
                            {
                                "decimalAvailable": true,
                                "name": "",
                                "type": "uint256",
                                "value": "123,759,360,190,563,669,875"
                            }
                        ],
                        "signature": "balanceOf(address)"
                    },
                    "errorInfo": "",
                    "fromAddress": "0x3845a342a030ca67bd16ddf739b1a67fe5b3f8f9",
                    "gasUsed": 1234,
                    "id": 15,
                    "methodDecoded": true,
                    "operation": "STATICCALL",
                    "output": "0x000000000000000000000000000000000000000000000006b58192635c2ad773",
                    "revert": false,
                    "revertMessage": "",
                    "selector": "0x70a08231",
                    "status": true,
                    "value": "0"
                },
                "nodeType": 0
            },
            "16": {
                "event": {
                    "contract": "0x3845a342a030ca67bd16ddf739b1a67fe5b3f8f9",
                    "decodedLog": {
                        "name": "Sync",
                        "params": [
                            {
                                "name": "reserve0",
                                "type": "uint112",
                                "value": "1,711,360,903,773,304,934,053"
                            },
                            {
                                "name": "reserve1",
                                "type": "uint112",
                                "value": "123,759,360,190,563,669,875"
                            }
                        ],
                        "signature": "Sync(uint112,uint112)"
                    },
                    "id": 16,
                    "logData": "0x00000000000000000000000000000000000000000000005cc5e74acd9b4c4ea5000000000000000000000000000000000000000000000006b58192635c2ad773",
                    "logDecoded": true,
                    "operation": "EVENT",
                    "revert": false,
                    "status": true,
                    "topics": [
                        "0x1c411e9a96e071241c2f21f7726b17ae89e3cab4c78be50e062b03a9fffbbad1"
                    ]
                },
                "nodeType": 1
            },
            "17": {
                "event": {
                    "contract": "0x3845a342a030ca67bd16ddf739b1a67fe5b3f8f9",
                    "decodedLog": {
                        "name": "Swap",
                        "params": [
                            {
                                "name": "sender",
                                "type": "address",
                                "value": "0x7a250d5630b4cf539739df2c5dacb4c659f2488d"
                            },
                            {
                                "name": "to",
                                "type": "address",
                                "value": "0x33cd051be5004929d750f4e9a5bb741caf3aa76e"
                            },
                            {
                                "name": "amount0In",
                                "type": "uint256",
                                "value": "0"
                            },
                            {
                                "name": "amount1In",
                                "type": "uint256",
                                "value": "607,373,617,812,707,800"
                            },
                            {
                                "name": "amount0Out",
                                "type": "uint256",
                                "value": "8,414,944,703,350,750,622"
                            },
                            {
                                "name": "amount1Out",
                                "type": "uint256",
                                "value": "0"
                            }
                        ],
                        "signature": "Swap(address,uint256,uint256,uint256,uint256,address)"
                    },
                    "id": 17,
                    "logData": "0x0000000000000000000000000000000000000000000000000000000000000000000000000000000000000000000000000000000000000000086dd3165fab99d800000000000000000000000000000000000000000000000074c7e39f97c6bd9e0000000000000000000000000000000000000000000000000000000000000000",
                    "logDecoded": true,
                    "operation": "EVENT",
                    "revert": false,
                    "status": true,
                    "topics": [
                        "0xd78ad95fa46c994b6551d0da85fc275fe613ce37657fb8d5e3d130840159d822",
                        "0x0000000000000000000000007a250d5630b4cf539739df2c5dacb4c659f2488d",
                        "0x00000000000000000000000033cd051be5004929d750f4e9a5bb741caf3aa76e"
                    ]
                },
                "nodeType": 1
            },
            "2": {
                "invocation": {
                    "address": "0xc02aaa39b223fe8d0a0e5c4f27ead9083c756cc2",
                    "callData": "0x00000000000000000000000033cd051be5004929d750f4e9a5bb741caf3aa76e",
                    "decodedMethod": {
                        "callParams": [
                            {
                                "name": "",
                                "type": "address",
                                "value": "0x33cd051be5004929d750f4e9a5bb741caf3aa76e"
                            }
                        ],
                        "constructorArguments": "",
                        "name": "balanceOf",
                        "returnParams": [
                            {
                                "decimalAvailable": true,
                                "name": "",
                                "type": "uint256",
                                "value": "13,774,331,627,562,337,448"
                            }
                        ],
                        "signature": "balanceOf(address)"
                    },
                    "errorInfo": "",
                    "fromAddress": "0x4134872700a8c53e49216dd4b28bd1fd3128e41d",
                    "gasUsed": 1234,
                    "id": 2,
                    "methodDecoded": true,
                    "operation": "CALL",
                    "output": "0x000000000000000000000000000000000000000000000000bf2841a2bf4804a8",
                    "revert": false,
                    "revertMessage": "",
                    "selector": "0x70a08231",
                    "status": true,
                    "value": "0"
                },
                "nodeType": 0
            },
            "3": {
                "invocation": {
                    "address": "0xc02aaa39b223fe8d0a0e5c4f27ead9083c756cc2",
                    "callData": "0x00000000000000000000000033cd051be5004929d750f4e9a5bb741caf3aa76e0000000000000000000000004134872700a8c53e49216dd4b28bd1fd3128e41d",
                    "decodedMethod": {
                        "callParams": [
                            {
                                "name": "",
                                "type": "address",
                                "value": "0x33cd051be5004929d750f4e9a5bb741caf3aa76e"
                            },
                            {
                                "name": "",
                                "type": "address",
                                "value": "0x4134872700a8c53e49216dd4b28bd1fd3128e41d"
                            }
                        ],
                        "constructorArguments": "",
                        "name": "allowance",
                        "returnParams": [
                            {
                                "decimalAvailable": true,
                                "name": "",
                                "type": "uint256",
                                "value": "586,968,808,194,430,073,600"
                            }
                        ],
                        "signature": "allowance(address,address)"
                    },
                    "errorInfo": "",
                    "fromAddress": "0x4134872700a8c53e49216dd4b28bd1fd3128e41d",
                    "gasUsed": 1417,
                    "id": 3,
                    "methodDecoded": true,
                    "operation": "CALL",
                    "output": "0x00000000000000000000000000000000000000000000001fd1d41d28a765fb00",
                    "revert": false,
                    "revertMessage": "",
                    "selector": "0xdd62ed3e",
                    "status": true,
                    "value": "0"
                },
                "nodeType": 0
            },
            "4": {
                "invocation": {
                    "address": "0xc02aaa39b223fe8d0a0e5c4f27ead9083c756cc2",
                    "callData": "0x00000000000000000000000033cd051be5004929d750f4e9a5bb741caf3aa76e0000000000000000000000004134872700a8c53e49216dd4b28bd1fd3128e41d000000000000000000000000000000000000000000000000086dd3165fab99d8",
                    "decodedMethod": {
                        "callParams": [
                            {
                                "name": "src",
                                "type": "address",
                                "value": "0x33cd051be5004929d750f4e9a5bb741caf3aa76e"
                            },
                            {
                                "name": "dst",
                                "type": "address",
                                "value": "0x4134872700a8c53e49216dd4b28bd1fd3128e41d"
                            },
                            {
                                "decimalAvailable": true,
                                "name": "wad",
                                "type": "uint256",
                                "value": "607,373,617,812,707,800"
                            }
                        ],
                        "constructorArguments": "",
                        "name": "transferFrom",
                        "returnParams": [
                            {
                                "name": "",
                                "type": "bool",
                                "value": true
                            }
                        ],
                        "signature": "transferFrom(address,address,uint256)"
                    },
                    "errorInfo": "",
                    "fromAddress": "0x4134872700a8c53e49216dd4b28bd1fd3128e41d",
                    "gasUsed": 38048,
                    "id": 4,
                    "methodDecoded": true,
                    "operation": "CALL",
                    "output": "0x0000000000000000000000000000000000000000000000000000000000000001",
                    "revert": false,
                    "revertMessage": "",
                    "selector": "0x23b872dd",
                    "status": true,
                    "value": "0"
                },
                "nodeType": 0
            },
            "5": {
                "event": {
                    "contract": "0xc02aaa39b223fe8d0a0e5c4f27ead9083c756cc2",
                    "decodedLog": {
                        "name": "Transfer",
                        "params": [
                            {
                                "name": "src",
                                "type": "address",
                                "value": "0x33cd051be5004929d750f4e9a5bb741caf3aa76e"
                            },
                            {
                                "name": "dst",
                                "type": "address",
                                "value": "0x4134872700a8c53e49216dd4b28bd1fd3128e41d"
                            },
                            {
                                "decimalAvailable": true,
                                "name": "wad",
                                "type": "uint256",
                                "value": "607,373,617,812,707,800"
                            }
                        ],
                        "signature": "Transfer(address,address,uint256)"
                    },
                    "id": 5,
                    "logData": "0x000000000000000000000000000000000000000000000000086dd3165fab99d8",
                    "logDecoded": true,
                    "operation": "EVENT",
                    "revert": false,
                    "status": true,
                    "topics": [
                        "0xddf252ad1be2c89b69c2b068fc378daa952ba7f163c4a11628f55a4df523b3ef",
                        "0x00000000000000000000000033cd051be5004929d750f4e9a5bb741caf3aa76e",
                        "0x0000000000000000000000004134872700a8c53e49216dd4b28bd1fd3128e41d"
                    ]
                },
                "nodeType": 1
            },
            "6": {
                "invocation": {
                    "address": "0xc02aaa39b223fe8d0a0e5c4f27ead9083c756cc2",
                    "callData": "0x0000000000000000000000004134872700a8c53e49216dd4b28bd1fd3128e41d0000000000000000000000007a250d5630b4cf539739df2c5dacb4c659f2488d",
                    "decodedMethod": {
                        "callParams": [
                            {
                                "name": "",
                                "type": "address",
                                "value": "0x4134872700a8c53e49216dd4b28bd1fd3128e41d"
                            },
                            {
                                "name": "",
                                "type": "address",
                                "value": "0x7a250d5630b4cf539739df2c5dacb4c659f2488d"
                            }
                        ],
                        "constructorArguments": "",
                        "name": "allowance",
                        "returnParams": [
                            {
                                "decimalAvailable": true,
                                "name": "",
                                "type": "uint256",
                                "value": "249,566,640,279,698,028,570"
                            }
                        ],
                        "signature": "allowance(address,address)"
                    },
                    "errorInfo": "",
                    "fromAddress": "0x4134872700a8c53e49216dd4b28bd1fd3128e41d",
                    "gasUsed": 1417,
                    "id": 6,
                    "methodDecoded": true,
                    "operation": "CALL",
                    "output": "0x00000000000000000000000000000000000000000000000d876ed112db18381a",
                    "revert": false,
                    "revertMessage": "",
                    "selector": "0xdd62ed3e",
                    "status": true,
                    "value": "0"
                },
                "nodeType": 0
            },
            "7": {
                "invocation": {
                    "address": "0x7a250d5630b4cf539739df2c5dacb4c659f2488d",
                    "callData": "0x000000000000000000000000000000000000000000000000086dd3165fab99d80000000000000000000000000000000000000000000000007271f8abc2d21c0000000000000000000000000000000000000000000000000000000000000000a000000000000000000000000033cd051be5004929d750f4e9a5bb741caf3aa76e000000000000000000000000000000000000000000000000000000005f95670a0000000000000000000000000000000000000000000000000000000000000002000000000000000000000000c02aaa39b223fe8d0a0e5c4f27ead9083c756cc20000000000000000000000005d762f76b9e91f71cc4f94391bdfe6333db8519c",
                    "decodedMethod": {
                        "callParams": [
                            {
                                "name": "amountIn",
                                "type": "uint256",
                                "value": "607,373,617,812,707,800"
                            },
                            {
                                "name": "amountOutMin",
                                "type": "uint256",
                                "value": "8,246,645,809,283,734,528"
                            },
                            {
                                "name": "path",
                                "type": "address[]",
                                "value": [
                                    "0xc02aaa39b223fe8d0a0e5c4f27ead9083c756cc2",
                                    "0x5d762f76b9e91f71cc4f94391bdfe6333db8519c"
                                ]
                            },
                            {
                                "name": "to",
                                "type": "address",
                                "value": "0x33cd051be5004929d750f4e9a5bb741caf3aa76e"
                            },
                            {
                                "name": "deadline",
                                "type": "uint256",
                                "value": "1,603,626,762"
                            }
                        ],
                        "constructorArguments": "",
                        "name": "swapExactTokensForTokens",
                        "returnParams": [
                            {
                                "name": "amounts",
                                "type": "uint256[]",
                                "value": [
                                    "607,373,617,812,707,800",
                                    "8,414,944,703,350,750,622"
                                ]
                            }
                        ],
                        "signature": "swapExactTokensForTokens(uint256,uint256,address[],address,uint256)"
                    },
                    "errorInfo": "",
                    "fromAddress": "0x4134872700a8c53e49216dd4b28bd1fd3128e41d",
                    "gasUsed": 86814,
                    "id": 7,
                    "methodDecoded": true,
                    "operation": "CALL",
                    "output": "0x00000000000000000000000000000000000000000000000000000000000000200000000000000000000000000000000000000000000000000000000000000002000000000000000000000000000000000000000000000000086dd3165fab99d800000000000000000000000000000000000000000000000074c7e39f97c6bd9e",
                    "revert": false,
                    "revertMessage": "",
                    "selector": "0x38ed1739",
                    "status": true,
                    "value": "0"
                },
                "nodeType": 0
            },
            "8": {
                "invocation": {
                    "address": "0x3845a342a030ca67bd16ddf739b1a67fe5b3f8f9",
                    "callData": "0x",
                    "decodedMethod": {
                        "callParams": [],
                        "constructorArguments": "",
                        "name": "getReserves",
                        "returnParams": [
                            {
                                "name": "_reserve0",
                                "type": "uint112",
                                "value": "1,719,775,848,476,655,684,675"
                            },
                            {
                                "name": "_reserve1",
                                "type": "uint112",
                                "value": "123,151,986,572,750,962,075"
                            },
                            {
                                "name": "_blockTimestampLast",
                                "type": "uint32",
                                "value": "1,603,626,614"
                            }
                        ],
                        "signature": "getReserves()"
                    },
                    "errorInfo": "",
                    "fromAddress": "0x7a250d5630b4cf539739df2c5dacb4c659f2488d",
                    "gasUsed": 1204,
                    "id": 8,
                    "methodDecoded": true,
                    "operation": "STATICCALL",
                    "output": "0x00000000000000000000000000000000000000000000005d3aaf2e6d33130c43000000000000000000000000000000000000000000000006ad13bf4cfc7f3d9b000000000000000000000000000000000000000000000000000000005f956676",
                    "revert": false,
                    "revertMessage": "",
                    "selector": "0x0902f1ac",
                    "status": true,
                    "value": "0"
                },
                "nodeType": 0
            },
            "9": {
                "invocation": {
                    "address": "0xc02aaa39b223fe8d0a0e5c4f27ead9083c756cc2",
                    "callData": "0x0000000000000000000000004134872700a8c53e49216dd4b28bd1fd3128e41d0000000000000000000000003845a342a030ca67bd16ddf739b1a67fe5b3f8f9000000000000000000000000000000000000000000000000086dd3165fab99d8",
                    "decodedMethod": {
                        "callParams": [
                            {
                                "name": "src",
                                "type": "address",
                                "value": "0x4134872700a8c53e49216dd4b28bd1fd3128e41d"
                            },
                            {
                                "name": "dst",
                                "type": "address",
                                "value": "0x3845a342a030ca67bd16ddf739b1a67fe5b3f8f9"
                            },
                            {
                                "decimalAvailable": true,
                                "name": "wad",
                                "type": "uint256",
                                "value": "607,373,617,812,707,800"
                            }
                        ],
                        "constructorArguments": "",
                        "name": "transferFrom",
                        "returnParams": [
                            {
                                "name": "",
                                "type": "bool",
                                "value": true
                            }
                        ],
                        "signature": "transferFrom(address,address,uint256)"
                    },
                    "errorInfo": "",
                    "fromAddress": "0x7a250d5630b4cf539739df2c5dacb4c659f2488d",
                    "gasUsed": 18848,
                    "id": 9,
                    "methodDecoded": true,
                    "operation": "CALL",
                    "output": "0x0000000000000000000000000000000000000000000000000000000000000001",
                    "revert": false,
                    "revertMessage": "",
                    "selector": "0x23b872dd",
                    "status": true,
                    "value": "0"
                },
                "nodeType": 0
            }
        },
        "gasFlame": [
            {
                "children": [
                    {
                        "children": [
                            {
                                "children": [],
                                "depth": 0,
                                "name": "Initial Gas",
                                "value": 22516
                            },
                            {
                                "children": [
                                    {
                                        "children": [],
                                        "depth": 1,
                                        "name": "balanceOf",
                                        "value": 1231
                                    },
                                    {
                                        "children": [],
                                        "depth": 1,
                                        "name": "balanceOf",
                                        "value": 1234
                                    },
                                    {
                                        "children": [],
                                        "depth": 1,
                                        "name": "allowance",
                                        "value": 1417
                                    },
                                    {
                                        "children": [],
                                        "depth": 1,
                                        "name": "transferFrom",
                                        "value": 38048
                                    },
                                    {
                                        "children": [],
                                        "depth": 1,
                                        "name": "allowance",
                                        "value": 1417
                                    },
                                    {
                                        "children": [
                                            {
                                                "children": [],
                                                "depth": 2,
                                                "name": "getReserves",
                                                "value": 1204
                                            },
                                            {
                                                "children": [],
                                                "depth": 2,
                                                "name": "transferFrom",
                                                "value": 18848
                                            },
                                            {
                                                "children": [
                                                    {
                                                        "children": [],
                                                        "depth": 3,
                                                        "name": "transfer",
                                                        "value": 14496
                                                    },
                                                    {
                                                        "children": [],
                                                        "depth": 3,
                                                        "name": "balanceOf",
                                                        "value": 1190
                                                    },
                                                    {
                                                        "children": [],
                                                        "depth": 3,
                                                        "name": "balanceOf",
                                                        "value": 1234
                                                    }
                                                ],
                                                "depth": 2,
                                                "name": "swap",
                                                "value": 55943
                                            }
                                        ],
                                        "depth": 1,
                                        "name": "swapExactTokensForTokens",
                                        "value": 86814
                                    }
                                ],
                                "depth": 0,
                                "name": "Executed Gas",
                                "value": 146145
                            }
                        ],
                        "depth": -1,
                        "name": "Actual Gas Used",
                        "value": 145261
                    },
                    {
                        "children": [],
                        "depth": -1,
                        "name": "Refunded Gas",
                        "value": 23400
                    }
                ],
                "depth": -2,
                "name": "Total Gas",
                "value": 168661
            }
        ],
        "isConfirmed": true,
        "mainTrace": [
            {
                "children": [
                    {
                        "children": [
                            {
                                "children": [],
                                "depth": 1,
                                "id": 1,
                                "order": 1
                            },
                            {
                                "children": [],
                                "depth": 1,
                                "id": 2,
                                "order": 2
                            },
                            {
                                "children": [],
                                "depth": 1,
                                "id": 3,
                                "order": 3
                            },
                            {
                                "children": [
                                    {
                                        "children": [],
                                        "depth": 2,
                                        "id": 5,
                                        "order": 5
                                    }
                                ],
                                "depth": 1,
                                "id": 4,
                                "order": 4
                            },
                            {
                                "children": [],
                                "depth": 1,
                                "id": 6,
                                "order": 6
                            },
                            {
                                "children": [
                                    {
                                        "children": [],
                                        "depth": 2,
                                        "id": 8,
                                        "order": 8
                                    },
                                    {
                                        "children": [
                                            {
                                                "children": [],
                                                "depth": 3,
                                                "id": 10,
                                                "order": 10
                                            }
                                        ],
                                        "depth": 2,
                                        "id": 9,
                                        "order": 9
                                    },
                                    {
                                        "children": [
                                            {
                                                "children": [
                                                    {
                                                        "children": [],
                                                        "depth": 4,
                                                        "id": 13,
                                                        "order": 13
                                                    }
                                                ],
                                                "depth": 3,
                                                "id": 12,
                                                "order": 12
                                            },
                                            {
                                                "children": [],
                                                "depth": 3,
                                                "id": 14,
                                                "order": 14
                                            },
                                            {
                                                "children": [],
                                                "depth": 3,
                                                "id": 15,
                                                "order": 15
                                            },
                                            {
                                                "children": [],
                                                "depth": 3,
                                                "id": 16,
                                                "order": 16
                                            },
                                            {
                                                "children": [],
                                                "depth": 3,
                                                "id": 17,
                                                "order": 17
                                            }
                                        ],
                                        "depth": 2,
                                        "id": 11,
                                        "order": 11
                                    }
                                ],
                                "depth": 1,
                                "id": 7,
                                "order": 7
                            }
                        ],
                        "depth": 0,
                        "id": 0,
                        "order": 0
                    }
                ],
                "depth": -1,
                "id": -1,
                "order": -1
            }
        ],
        "mainTraceNodeCount": 18,
        "parentIdMap": {
            "0": -1,
            "1": 0,
            "10": 9,
            "11": 7,
            "12": 11,
            "13": 12,
            "14": 11,
            "15": 11,
            "16": 11,
            "17": 11,
            "2": 0,
            "3": 0,
            "4": 0,
            "5": 4,
            "6": 0,
            "7": 0,
            "8": 7,
            "9": 7
        },
        "tidyTrace": [
            {
                "children": [
                    {
                        "children": [
                            {
                                "children": [],
                                "depth": 1,
                                "id": 1,
                                "order": 1
                            },
                            {
                                "children": [],
                                "depth": 1,
                                "id": 2,
                                "order": 2
                            },
                            {
                                "children": [],
                                "depth": 1,
                                "id": 3,
                                "order": 3
                            },
                            {
                                "children": [
                                    {
                                        "children": [],
                                        "depth": 2,
                                        "id": 5,
                                        "order": 5
                                    }
                                ],
                                "depth": 1,
                                "id": 4,
                                "order": 4
                            },
                            {
                                "children": [],
                                "depth": 1,
                                "id": 6,
                                "order": 6
                            },
                            {
                                "children": [
                                    {
                                        "children": [
                                            {
                                                "children": [],
                                                "depth": 3,
                                                "id": 10,
                                                "order": 10
                                            }
                                        ],
                                        "depth": 2,
                                        "id": 9,
                                        "order": 9
                                    },
                                    {
                                        "children": [
                                            {
                                                "children": [
                                                    {
                                                        "children": [],
                                                        "depth": 4,
                                                        "id": 13,
                                                        "order": 13
                                                    }
                                                ],
                                                "depth": 3,
                                                "id": 12,
                                                "order": 12
                                            },
                                            {
                                                "children": [],
                                                "depth": 3,
                                                "id": 16,
                                                "order": 16
                                            },
                                            {
                                                "children": [],
                                                "depth": 3,
                                                "id": 17,
                                                "order": 17
                                            }
                                        ],
                                        "depth": 2,
                                        "id": 11,
                                        "order": 11
                                    }
                                ],
                                "depth": 1,
                                "id": 7,
                                "order": 7
                            }
                        ],
                        "depth": 0,
                        "id": 0,
                        "order": 0
                    }
                ],
                "depth": -1,
                "id": -1,
                "order": -1
            }
        ],
        "tidyTraceNodeCount": 15
    },
    "state_change": {
        "stateChanges": [
            {
                "address": "0x3845a342a030ca67bd16ddf739b1a67fe5b3f8f9",
                "erc": "ERC-20",
                "slots": [
                    {
                        "current": "0x5f956692000000000006b58192635c2ad77300000000005cc5e74acd9b4c4ea5",
                        "key": "0x0000000000000000000000000000000000000000000000000000000000000008",
                        "prev": "0x5f956676000000000006ad13bf4cfc7f3d9b00000000005d3aaf2e6d33130c43"
                    },
                    {
                        "current": "0x00000000000000000000000000000003ebb2eee3d235e557011e534a45093b79",
                        "key": "0x0000000000000000000000000000000000000000000000000000000000000009",
                        "prev": "0x00000000000000000000000000000003ebb0ed982356fe0c72189e318065e2c5"
                    },
                    {
                        "current": "0x0000000000000000000000000000024e7cdee2d3ad507f7f3b7401fdfc4b5e9c",
                        "key": "0x000000000000000000000000000000000000000000000000000000000000000a",
                        "prev": "0x0000000000000000000000000000024e7b57e02177ab8bcb1e4f014c85c15f80"
                    }
                ],
                "storageVariables": [
                    {
                        "name": "price0CumulativeLast",
                        "type": "uint256",
                        "value": {
                            "current": "1334144753876425387833756387749808126841",
                            "prev": "1334134343004066660474112646876364137157",
                            "typeTag": 1
                        }
                    },
                    {
                        "name": "price1CumulativeLast",
                        "type": "uint256",
                        "value": {
                            "current": "200932578045328968682004141015084984655516",
                            "prev": "200930547802573247309346475207492926267264",
                            "typeTag": 1
                        }
                    },
                    {
                        "name": "reserve0",
                        "type": "uint112",
                        "value": {
                            "current": "1711360903773304934053",
                            "prev": "1719775848476655684675",
                            "typeTag": 1
                        }
                    },
                    {
                        "name": "reserve1",
                        "type": "uint112",
                        "value": {
                            "current": "123759360190563669875",
                            "prev": "123151986572750962075",
                            "typeTag": 1
                        }
                    },
                    {
                        "name": "blockTimestampLast",
                        "type": "uint32",
                        "value": {
                            "current": "1603626642",
                            "prev": "1603626614",
                            "typeTag": 1
                        }
                    }
                ]
            },
            {
                "address": "0x5d762f76b9e91f71cc4f94391bdfe6333db8519c",
                "erc": "ERC-20",
                "slots": [
                    {
                        "current": "0x00000000000000000000000000000000000000000000005cc5e74acd9b4c4ea5",
                        "key": "0x6da6015d8426153d6e94c9688b56e292f5a8299367712d19f286041661a11e27",
                        "prev": "0x00000000000000000000000000000000000000000000005d3aaf2e6d33130c43"
                    },
                    {
                        "current": "0x00000000000000000000000000000000000000000000000074c8284a8af23e10",
                        "key": "0x8add760aae0d8f762f1112f1bd6c43b670c4b867ab6f6aeb413826f73ac3e54f",
                        "prev": "0x000000000000000000000000000000000000000000000000000044aaf32b8072"
                    }
                ],
                "storageVariables": [
                    {
                        "name": "_balances",
                        "type": "mapping(address => uint256)",
                        "value": {
                            "pairs": [
                                {
                                    "key": "0x33cd051be5004929d750f4e9a5bb741caf3aa76e",
                                    "value": {
                                        "current": "8415020204365594128",
                                        "prev": "75501014843506",
                                        "typeTag": 1
                                    }
                                },
                                {
                                    "key": "0x3845a342a030ca67bd16ddf739b1a67fe5b3f8f9",
                                    "value": {
                                        "current": "1711360903773304934053",
                                        "prev": "1719775848476655684675",
                                        "typeTag": 1
                                    }
                                }
                            ],
                            "typeTag": 4
                        }
                    }
                ]
            },
            {
                "address": "0xc02aaa39b223fe8d0a0e5c4f27ead9083c756cc2",
                "erc": "ERC-20",
                "slots": [
                    {
                        "current": "0x000000000000000000000000000000000000000000000000b6ba6e8c5f9c6ad0",
                        "key": "0x952e3f93bc888fd284710d5134b9e4a5769dad5718b9662c4bf7767b1984a873",
                        "prev": "0x000000000000000000000000000000000000000000000000bf2841a2bf4804a8"
                    },
                    {
                        "current": "0x00000000000000000000000000000000000000000000000d7f00fdfc7b6c9e42",
                        "key": "0xcd7ba74526ed6bf9736c45c3d5db2042b94388c398578e5b78f373afd7c2eb04",
                        "prev": "0x00000000000000000000000000000000000000000000000d876ed112db18381a"
                    },
                    {
                        "current": "0x000000000000000000000000000000000000000000000006b58192635c2ad773",
                        "key": "0x013273f7f496b256c7a6efc42a1c03a9971c12da7773bbf5ee84387e1c156028",
                        "prev": "0x000000000000000000000000000000000000000000000006ad13bf4cfc7f3d9b"
                    },
                    {
                        "current": "0x00000000000000000000000000000000000000000000001fc9664a1247ba6128",
                        "key": "0x86672e99300af3117afc68951f12156a8b4db3b791d16d06eb24726c3d660bb2",
                        "prev": "0x00000000000000000000000000000000000000000000001fd1d41d28a765fb00"
                    }
                ],
                "storageVariables": [
                    {
                        "name": "balanceOf",
                        "type": "mapping(address => uint256)",
                        "value": {
                            "pairs": [
                                {
                                    "key": "0x33cd051be5004929d750f4e9a5bb741caf3aa76e",
                                    "value": {
                                        "current": "13166958009749629648",
                                        "prev": "13774331627562337448",
                                        "typeTag": 1
                                    }
                                },
                                {
                                    "key": "0x3845a342a030ca67bd16ddf739b1a67fe5b3f8f9",
                                    "value": {
                                        "current": "123759360190563669875",
                                        "prev": "123151986572750962075",
                                        "typeTag": 1
                                    }
                                }
                            ],
                            "typeTag": 4
                        }
                    },
                    {
                        "name": "allowance",
                        "type": "mapping(address => mapping(address => uint256))",
                        "value": {
                            "pairs": [
                                {
                                    "key": "0x33cd051be5004929d750f4e9a5bb741caf3aa76e",
                                    "value": {
                                        "pairs": [
                                            {
                                                "key": "0x4134872700a8c53e49216dd4b28bd1fd3128e41d",
                                                "value": {
                                                    "current": "586361434576617365800",
                                                    "prev": "586968808194430073600",
                                                    "typeTag": 1
                                                }
                                            }
                                        ],
                                        "typeTag": 4
                                    }
                                },
                                {
                                    "key": "0x4134872700a8c53e49216dd4b28bd1fd3128e41d",
                                    "value": {
                                        "pairs": [
                                            {
                                                "key": "0x7a250d5630b4cf539739df2c5dacb4c659f2488d",
                                                "value": {
                                                    "current": "248959266661885320770",
                                                    "prev": "249566640279698028570",
                                                    "typeTag": 1
                                                }
                                            }
                                        ],
                                        "typeTag": 4
                                    }
                                }
                            ],
                            "typeTag": 4
                        }
                    }
                ]
            }
        ]
    }
}