{
    "balance_change": {
        "balanceChanges": [
            {
                "account": "0x1a0f12dbd96fdc0e7006d71bc2b239631eaec9b6",
                "assets": [
                    {
                        "address": "0x174bfa6600bf90c885c7c01c7031389ed1461ab9",
                        "amount": "1.76819143",
                        "iconUrl": "",
                        "isERC1155": false,
                        "isERC721": false,
                        "sign": false,
                        "value": ""
                    }
                ]
            },
            {
                "account": "0xc66c57c2cf877cc459b26ad044d4cc9521e4dc59",
                "assets": [
                    {
                        "address": "0x174bfa6600bf90c885c7c01c7031389ed1461ab9",
                        "amount": "1.76819143",
                        "iconUrl": "",
                        "isERC1155": false,
                        "isERC721": false,
                        "sign": true,
                        "value": ""
                    }
                ]
            }
        ]
    },
    "profile": {
        "basic_info": {
            "baseFee": "",
            "blockNumber": 7847024,
            "callData": "0xa9059cbb000000000000000000000000c66c57c2cf877cc459b26ad044d4cc9521e4dc590000000000000000000000000000000000000000000000001889e0bcc00a3c00",
            "debugEnable": true,
            "errorInfo": "",
            "eventCount": 1,
            "feeRecipient": "0x5a0b54d5dc17e0aadc383d2db43b0a0d3e029c4c",
            "formatValue": "0",
            "gasLimit": 116280,
            "gasPrice": "20",
            "gasUsed": 38123,
            "intTxnCount": 0,
            "internalRevert": false,
            "internalRevertMessage": "",
            "isContractCreation": false,
            "isFlashloan": false,
            "maxFee": "",
            "nonce": 2282,
            "overwritedBlockNumber": -1,
            "priorityFee": "",
            "receiver": "0x174bfa6600bf90c885c7c01c7031389ed1461ab9",
            "revertMessage": "",
            "sender": "0x1a0f12dbd96fdc0e7006d71bc2b239631eaec9b6",
            "simulationEnable": true,
            "sourceTxnHash": "0x87bea03040997830052e63053c3c9d1159da3bef4eebd30b43d64aa0f0af69a5",
            "status": true,
            "timestamp": "2019-05-28T08:44:14Z",
            "transactionFee": "0.00076246",
            "txnHash": "0x87bea03040997830052e63053c3c9d1159da3bef4eebd30b43d64aa0f0af69a5",
            "txnIndex": 168,
            "type": 0,
            "value": "0"
        },
        "fund_flow": [
            {
                "amount": "1.76819143",
                "from": "0x1a0f12dbd96fdc0e7006d71bc2b239631eaec9b6",
                "id": 1,
                "isERC1155": false,
                "isERC721": false,
                "isReverted": false,
                "order": 1,
                "to": "0xc66c57c2cf877cc459b26ad044d4cc9521e4dc59",
                "token": "0x174bfa6600bf90c885c7c01c7031389ed1461ab9"
            }
        ],
        "token_infos": [
            {
                "address": "0x174bfa6600bf90c885c7c01c7031389ed1461ab9",
                "decimals": 18
            },
            {
                "address": "0xc02aaa39b223fe8d0a0e5c4f27ead9083c756cc2",
                "decimals": 18
            },
            {
                "address": "0xeeeeeeeeeeeeeeeeeeeeeeeeeeeeeeeeeeeeeeee",
                "decimals": 18
            }
        ]
    },
    "address_label": {
        "labels": [
            {
                "address": "0x0000000000000000000000000000000000000001",
                "label": "Precompiled"
            },
            {
                "address": "0x0000000000000000000000000000000000000002",
                "label": "Precompiled"
            },
            {
                "address": "0x0000000000000000000000000000000000000003",
                "label": "Precompiled"
            },
            {
                "address": "0x0000000000000000000000000000000000000004",
                "label": "Precompiled"
            },
            {
                "address": "0xeeeeeeeeeeeeeeeeeeeeeeeeeeeeeeeeeeeeeeee",
                "label": "Ether"
            },
            {
                "address": "0x174bfa6600bf90c885c7c01c7031389ed1461ab9",
                "label": "More Gold: MGC Token"
            }
        ]
    },
    "trace": {
        "accountLabels": null,
        "dataMap": {
            "-1": {
                "invocation": {
                    "address": "0x1a0f12dbd96fdc0e7006d71bc2b239631eaec9b6",
                    "callData": "",
                    "decodedMethod": null,
                    "errorInfo": "",
                    "fromAddress": "",
                    "gasUsed": 0,
                    "id": -1,
                    "methodDecoded": false,
                    "operation": "",
                    "output": "",
                    "revert": false,
                    "revertMessage": "",
                    "selector": "",
                    "status": false,
                    "value": ""
                },
                "nodeType": 0
            },
            "0": {
                "invocation": {
                    "address": "0x174bfa6600bf90c885c7c01c7031389ed1461ab9",
                    "callData": "0x000000000000000000000000c66c57c2cf877cc459b26ad044d4cc9521e4dc590000000000000000000000000000000000000000000000001889e0bcc00a3c00",
                    "decodedMethod": {
                        "callParams": [
                            {
                                "name": "_to",
                                "type": "address",
                                "value": "0xc66c57c2cf877cc459b26ad044d4cc9521e4dc59"
                            },
                            {
                                "decimalAvailable": true,
                                "name": "_value",
                                "type": "uint256",
                                "value": "1,768,191,430,000,000,000"
                            }
                        ],
                        "constructorArguments": "",
                        "name": "transfer",
                        "returnParams": [
                            {
                                "name": "success",
                                "type": "bool",
                                "value": true
                            }
                        ],
                        "signature": "transfer(address,uint256)"
                    },
                    "errorInfo": "",
                    "fromAddress": "0x1a0f12dbd96fdc0e7006d71bc2b239631eaec9b6",
                    "gasUsed": 38123,
                    "id": 0,
                    "methodDecoded": true,
                    "operation": "CALL",
                    "output": "0x0000000000000000000000000000000000000000000000000000000000000001",
                    "revert": false,
                    "revertMessage": "",
                    "selector": "0xa9059cbb",
                    "status": true,
                    "value": "0"
                },
                "nodeType": 0
            },
            "1": {
                "event": {
                    "contract": "0x174bfa6600bf90c885c7c01c7031389ed1461ab9",
                    "decodedLog": {
                        "name": "Transfer",
                        "params": [
                            {
                                "name": "from",
                                "type": "address",
                                "value": "0x1a0f12dbd96fdc0e7006d71bc2b239631eaec9b6"
                            },
                            {
                                "name": "to",
                                "type": "address",
                                "value": "0xc66c57c2cf877cc459b26ad044d4cc9521e4dc59"
                            },
                            {
                                "decimalAvailable": true,
                                "name": "value",
                                "type": "uint256",
                                "value": "1,768,191,430,000,000,000"
                            }
                        ],
                        "signature": "Transfer(address,address,uint256)"
                    },
                    "id": 1,
                    "logData": "0x0000000000000000000000000000000000000000000000001889e0bcc00a3c00",
                    "logDecoded": true,
                    "operation": "EVENT",
                    "revert": false,
                    "status": true,
                    "topics": [
                        "0xddf252ad1be2c89b69c2b068fc378daa952ba7f163c4a11628f55a4df523b3ef",
                        "0x0000000000000000000000001a0f12dbd96fdc0e7006d71bc2b239631eaec9b6",
                        "0x000000000000000000000000c66c57c2cf877cc459b26ad044d4cc9521e4dc59"
                    ]
                },
                "nodeType": 1
            }
        },
        "gasFlame": [
            {
                "children": [
                    {
                        "children": [
                            {
                                "children": [],
                                "depth": 0,
                                "name": "Initial Gas",
                                "value": 23256
                            },
                            {
                                "children": [],
                                "depth": 0,
                                "name": "Executed Gas",
                                "value": 14867
                            }
                        ],
                        "depth": -1,
                        "name": "Actual Gas Used",
                        "value": 38123
                    },
                    {
                        "children": [],
                        "depth": -1,
                        "name": "Refunded Gas",
                        "value": 0
                    }
                ],
                "depth": -2,
                "name": "Total Gas",
                "value": 38123
            }
        ],
        "isConfirmed": true,
        "mainTrace": [
            {
                "children": [
                    {
                        "children": [
                            {
                                "children": [],
                                "depth": 1,
                                "id": 1,
                                "order": 1
                            }
                        ],
                        "depth": 0,
                        "id": 0,
                        "order": 0
                    }
                ],
                "depth": -1,
                "id": -1,
                "order": -1
            }
        ],
        "mainTraceNodeCount": 2,
        "parentIdMap": {
            "0": -1,
            "1": 0
        },
        "tidyTrace": [
            {
                "children": [
                    {
                        "children": [
                            {
                                "children": [],
                                "depth": 1,
                                "id": 1,
                                "order": 1
                            }
                        ],
                        "depth": 0,
                        "id": 0,
                        "order": 0
                    }
                ],
                "depth": -1,
                "id": -1,
                "order": -1
            }
        ],
        "tidyTraceNodeCount": 2
    },
    "state_change": {
        "stateChanges": [
            {
                "address": "0x174bfa6600bf90c885c7c01c7031389ed1461ab9",
                "erc": "ERC-20",
                "slots": [
                    {
                        "current": "0x000000000000000000000000000000000000000000000000ba59abf208ce0800",
                        "key": "0xd1dcc3d7976e5d9e7632b3a40be8a3d829d0d830d24da46dc4606b164b48592b",
                        "prev": "0x000000000000000000000000000000000000000000000000a1cfcb3548c3cc00"
                    },
                    {
                        "current": "0x0000000000000000000000000000000000000000000002c3e85cd90900bd6800",
                        "key": "0xdefa2972a054e22156e28af259a42a8957d59b1b094bfc87a03afbcf723a51d7",
                        "prev": "0x0000000000000000000000000000000000000000000002c400e6b9c5c0c7a400"
                    }
                ],
                "storageVariables": [
                    {
                        "name": "balanceOf",
                        "type": "mapping(address => uint256)",
                        "value": {
                            "pairs": [
                                {
                                    "key": "0x1a0f12dbd96fdc0e7006d71bc2b239631eaec9b6",
                                    "value": {
                                        "current": "13058591556260000000000",
                                        "prev": "13060359747690000000000",
                                        "typeTag": 1
                                    }
                                },
                                {
                                    "key": "0xc66c57c2cf877cc459b26ad044d4cc9521e4dc59",
                                    "value": {
                                        "current": "13427952820000000000",
                                        "prev": "11659761390000000000",
                                        "typeTag": 1
                                    }
                                }
                            ],
                            "typeTag": 4
                        }
                    }
                ]
            }
        ]
    }
}