{
    "balance_change": {
        "balanceChanges": []
    },
    "profile": {
        "basic_info": {
            "baseFee": "",
            "blockNumber": 6226743,
            "callData": "0x278b8c0e00000000000000000000000013f1b7fdfbe1fc66676d56483e21b1ecb40b58e200000000000000000000000000000000000000000000001f2bba5d84f99c0000000000000000000000000000000000000000000000000000000000000000000000000000000000000000000000000000000000000000000005bed2ce7903000000000000000000000000000000000000000000000000000000000000005f1d56000000000000000000000000000000000000000000000000000000004fa013a6000000000000000000000000000000000000000000000000000000000000001cfac73561e9f6e2ea4bb8cb77259f72cd2f561ceaabc7fa064cb2d54c25b9b0893a364c5fe33210b645ff6283947e907db61de36862b82148f2e3b4f00dfa6efc",
            "debugEnable": true,
            "errorInfo": "",
            "eventCount": 1,
            "feeRecipient": "0xb2930b35844a230f00e51431acae96fe543a0347",
            "formatValue": "0",
            "gasLimit": 250000,
            "gasPrice": "4.5",
            "gasUsed": 59290,
            "intTxnCount": 2,
            "internalRevert": false,
            "internalRevertMessage": "",
            "isContractCreation": false,
            "isFlashloan": false,
            "maxFee": "",
            "nonce": 95,
            "overwritedBlockNumber": -1,
            "priorityFee": "",
            "receiver": "0x8d12a197cb00d4747a1fe03395095ce2a5cc6819",
            "revertMessage": "",
            "sender": "0x93f7e8e4184c5367e5d67a87200e78813253ceb3",
            "simulationEnable": true,
            "sourceTxnHash": "0x87f29dbf049826abaf9b4d74164b44228efa9ae3c6bc2f1a5e1effe8e6190b20",
            "status": true,
            "timestamp": "2018-08-28T04:10:18Z",
            "transactionFee": "0.000266805",
            "txnHash": "0x87f29dbf049826abaf9b4d74164b44228efa9ae3c6bc2f1a5e1effe8e6190b20",
            "txnIndex": 46,
            "type": 0,
            "value": "0"
        },
        "fund_flow": [],
        "token_infos": [
            {
                "address": "0xc02aaa39b223fe8d0a0e5c4f27ead9083c756cc2",
                "decimals": 18
            },
            {
                "address": "0xeeeeeeeeeeeeeeeeeeeeeeeeeeeeeeeeeeeeeeee",
                "decimals": 18
            }
        ]
    },
    "address_label": {
        "labels": [
            {
                "address": "0x0000000000000000000000000000000000000003",
                "label": "Precompiled"
            },
            {
                "address": "0x0000000000000000000000000000000000000004",
                "label": "Precompiled"
            },
            {
                "address": "0xeeeeeeeeeeeeeeeeeeeeeeeeeeeeeeeeeeeeeeee",
                "label": "Ether"
            },
            {
                "address": "0x8d12a197cb00d4747a1fe03395095ce2a5cc6819",
                "label": "EtherDelta"
            },
            {
                "address": "0x0000000000000000000000000000000000000002",
                "label": "Precompiled"
            },
            {
                "address": "0x13f1b7fdfbe1fc66676d56483e21b1ecb40b58e2",
                "label": "AcceleratorToken"
            },
            {
                "address": "0x0000000000000000000000000000000000000000",
                "label": "Null Address"
            },
            {
                "address": "0x0000000000000000000000000000000000000001",
                "label": "Precompiled"
            }
        ]
    },
    "trace": {
        "accountLabels": null,
        "dataMap": {
            "-1": {
                "invocation": {
                    "address": "0x93f7e8e4184c5367e5d67a87200e78813253ceb3",
                    "callData": "",
                    "decodedMethod": null,
                    "errorInfo": "",
                    "fromAddress": "",
                    "gasUsed": 0,
                    "id": -1,
                    "methodDecoded": false,
                    "operation": "",
                    "output": "",
                    "revert": false,
                    "revertMessage": "",
                    "selector": "",
                    "status": false,
                    "value": ""
                },
                "nodeType": 0
            },
            "0": {
                "invocation": {
                    "address": "0x8d12a197cb00d4747a1fe03395095ce2a5cc6819",
                    "callData": "0x00000000000000000000000013f1b7fdfbe1fc66676d56483e21b1ecb40b58e200000000000000000000000000000000000000000000001f2bba5d84f99c0000000000000000000000000000000000000000000000000000000000000000000000000000000000000000000000000000000000000000000005bed2ce7903000000000000000000000000000000000000000000000000000000000000005f1d56000000000000000000000000000000000000000000000000000000004fa013a6000000000000000000000000000000000000000000000000000000000000001cfac73561e9f6e2ea4bb8cb77259f72cd2f561ceaabc7fa064cb2d54c25b9b0893a364c5fe33210b645ff6283947e907db61de36862b82148f2e3b4f00dfa6efc",
                    "decodedMethod": {
                        "callParams": [
                            {
                                "name": "tokenGet",
                                "type": "address",
                                "value": "0x13f1b7fdfbe1fc66676d56483e21b1ecb40b58e2"
                            },
                            {
                                "name": "amountGet",
                                "type": "uint256",
                                "value": "575,000,000,000,000,000,000"
                            },
                            {
                                "name": "tokenGive",
                                "type": "address",
                                "value": "0x0000000000000000000000000000000000000000"
                            },
                            {
                                "name": "amountGive",
                                "type": "uint256",
                                "value": "414,000,000,000,000,000"
                            },
                            {
                                "name": "expires",
                                "type": "uint256",
                                "value": "6,233,430"
                            },
                            {
                                "name": "nonce",
                                "type": "uint256",
                                "value": "1,335,890,854"
                            },
                            {
                                "name": "v",
                                "type": "uint8",
                                "value": "28"
                            },
                            {
                                "name": "r",
                                "type": "bytes32",
                                "value": "0xfac73561e9f6e2ea4bb8cb77259f72cd2f561ceaabc7fa064cb2d54c25b9b089"
                            },
                            {
                                "name": "s",
                                "type": "bytes32",
                                "value": "0x3a364c5fe33210b645ff6283947e907db61de36862b82148f2e3b4f00dfa6efc"
                            }
                        ],
                        "constructorArguments": "",
                        "name": "cancelOrder",
                        "returnParams": [],
                        "signature": "cancelOrder(address,uint256,address,uint256,uint256,uint256,uint8,bytes32,bytes32)"
                    },
                    "errorInfo": "",
                    "fromAddress": "0x93f7e8e4184c5367e5d67a87200e78813253ceb3",
                    "gasUsed": 59290,
                    "id": 0,
                    "methodDecoded": true,
                    "operation": "CALL",
                    "output": "",
                    "revert": false,
                    "revertMessage": "",
                    "selector": "0x278b8c0e",
                    "status": true,
                    "value": "0"
                },
                "nodeType": 0
            },
            "1": {
                "invocation": {
                    "address": "0x0000000000000000000000000000000000000002",
                    "callData": "0xcb00d4747a1fe03395095ce2a5cc681913f1b7fdfbe1fc66676d56483e21b1ecb40b58e200000000000000000000000000000000000000000000001f2bba5d84f99c0000000000000000000000000000000000000000000000000000000000000000000000000000000000000000000005bed2ce7903000000000000000000000000000000000000000000000000000000000000005f1d56000000000000000000000000000000000000000000000000000000004fa013a6",
                    "decodedMethod": {
                        "callParams": [
                            {
                                "name": "data",
                                "type": "bytes",
                                "value": "0x8d12a197cb00d4747a1fe03395095ce2a5cc681913f1b7fdfbe1fc66676d56483e21b1ecb40b58e200000000000000000000000000000000000000000000001f2bba5d84f99c0000000000000000000000000000000000000000000000000000000000000000000000000000000000000000000005bed2ce7903000000000000000000000000000000000000000000000000000000000000005f1d56000000000000000000000000000000000000000000000000000000004fa013a6"
                            }
                        ],
                        "constructorArguments": "",
                        "name": "sha256hash",
                        "returnParams": [
                            {
                                "name": "hash",
                                "type": "bytes32",
                                "value": "0xf5ddbabd0db9003925a8e95ae636413d7a993000aa009773b7fd4be3155ce7bf"
                            }
                        ],
                        "signature": "sha256hash(bytes)"
                    },
                    "errorInfo": "",
                    "fromAddress": "0x8d12a197cb00d4747a1fe03395095ce2a5cc6819",
                    "gasUsed": 132,
                    "id": 1,
                    "methodDecoded": true,
                    "operation": "CALL",
                    "output": "0xf5ddbabd0db9003925a8e95ae636413d7a993000aa009773b7fd4be3155ce7bf",
                    "revert": false,
                    "revertMessage": "",
                    "selector": "0x8d12a197",
                    "status": true,
                    "value": "0"
                },
                "nodeType": 0
            },
            "2": {
                "invocation": {
                    "address": "0x0000000000000000000000000000000000000001",
                    "callData": "0x697f2d3473aa4a1ff4b6d0ffb3d8c36fb25ce2544c604e4dd89a1e87000000000000000000000000000000000000000000000000000000000000001cfac73561e9f6e2ea4bb8cb77259f72cd2f561ceaabc7fa064cb2d54c25b9b0893a364c5fe33210b645ff6283947e907db61de36862b82148f2e3b4f00dfa6efc",
                    "decodedMethod": {
                        "callParams": [
                            {
                                "name": "hash",
                                "type": "bytes32",
                                "value": "0x8abbfe7c697f2d3473aa4a1ff4b6d0ffb3d8c36fb25ce2544c604e4dd89a1e87"
                            },
                            {
                                "name": "v",
                                "type": "uint256",
                                "value": "28"
                            },
                            {
                                "name": "r",
                                "type": "bytes32",
                                "value": "0xfac73561e9f6e2ea4bb8cb77259f72cd2f561ceaabc7fa064cb2d54c25b9b089"
                            },
                            {
                                "name": "s",
                                "type": "bytes32",
                                "value": "0x3a364c5fe33210b645ff6283947e907db61de36862b82148f2e3b4f00dfa6efc"
                            }
                        ],
                        "constructorArguments": "",
                        "name": "ecrecover",
                        "returnParams": [
                            {
                                "name": "",
                                "type": "address",
                                "value": "0x93f7e8e4184c5367e5d67a87200e78813253ceb3"
                            }
                        ],
                        "signature": "ecrecover(bytes32,uint256,bytes32,bytes32)"
                    },
                    "errorInfo": "",
                    "fromAddress": "0x8d12a197cb00d4747a1fe03395095ce2a5cc6819",
                    "gasUsed": 3000,
                    "id": 2,
                    "methodDecoded": true,
                    "operation": "CALL",
                    "output": "0x00000000000000000000000093f7e8e4184c5367e5d67a87200e78813253ceb3",
                    "revert": false,
                    "revertMessage": "",
                    "selector": "0x8abbfe7c",
                    "status": true,
                    "value": "0"
                },
                "nodeType": 0
            },
            "3": {
                "event": {
                    "contract": "0x8d12a197cb00d4747a1fe03395095ce2a5cc6819",
                    "decodedLog": {
                        "name": "Cancel",
                        "params": [
                            {
                                "name": "tokenGet",
                                "type": "address",
                                "value": "0x13f1b7fdfbe1fc66676d56483e21b1ecb40b58e2"
                            },
                            {
                                "name": "amountGet",
                                "type": "uint256",
                                "value": "575,000,000,000,000,000,000"
                            },
                            {
                                "name": "tokenGive",
                                "type": "address",
                                "value": "0x0000000000000000000000000000000000000000"
                            },
                            {
                                "name": "amountGive",
                                "type": "uint256",
                                "value": "414,000,000,000,000,000"
                            },
                            {
                                "name": "expires",
                                "type": "uint256",
                                "value": "6,233,430"
                            },
                            {
                                "name": "nonce",
                                "type": "uint256",
                                "value": "1,335,890,854"
                            },
                            {
                                "name": "user",
                                "type": "address",
                                "value": "0x93f7e8e4184c5367e5d67a87200e78813253ceb3"
                            },
                            {
                                "name": "v",
                                "type": "uint8",
                                "value": "28"
                            },
                            {
                                "name": "r",
                                "type": "bytes32",
                                "value": "0xfac73561e9f6e2ea4bb8cb77259f72cd2f561ceaabc7fa064cb2d54c25b9b089"
                            },
                            {
                                "name": "s",
                                "type": "bytes32",
                                "value": "0x3a364c5fe33210b645ff6283947e907db61de36862b82148f2e3b4f00dfa6efc"
                            }
                        ],
                        "signature": "Cancel(address,uint256,address,uint256,uint256,uint256,address,uint8,bytes32,bytes32)"
                    },
                    "id": 3,
                    "logData": "0x00000000000000000000000013f1b7fdfbe1fc66676d56483e21b1ecb40b58e200000000000000000000000000000000000000000000001f2bba5d84f99c0000000000000000000000000000000000000000000000000000000000000000000000000000000000000000000000000000000000000000000005bed2ce7903000000000000000000000000000000000000000000000000000000000000005f1d56000000000000000000000000000000000000000000000000000000004fa013a600000000000000000000000093f7e8e4184c5367e5d67a87200e78813253ceb3000000000000000000000000000000000000000000000000000000000000001cfac73561e9f6e2ea4bb8cb77259f72cd2f561ceaabc7fa064cb2d54c25b9b0893a364c5fe33210b645ff6283947e907db61de36862b82148f2e3b4f00dfa6efc",
                    "logDecoded": true,
                    "operation": "EVENT",
                    "revert": false,
                    "status": true,
                    "topics": [
                        "0x1e0b760c386003e9cb9bcf4fcf3997886042859d9b6ed6320e804597fcdb28b0"
                    ]
                },
                "nodeType": 1
            }
        },
        "gasFlame": [
            {
                "children": [
                    {
                        "children": [
                            {
                                "children": [],
                                "depth": 0,
                                "name": "Initial Gas",
                                "value": 29144
                            },
                            {
                                "children": [
                                    {
                                        "children": [],
                                        "depth": 1,
                                        "name": "sha256hash",
                                        "value": 132
                                    },
                                    {
                                        "children": [],
                                        "depth": 1,
                                        "name": "ecrecover",
                                        "value": 3000
                                    }
                                ],
                                "depth": 0,
                                "name": "Executed Gas",
                                "value": 30146
                            }
                        ],
                        "depth": -1,
                        "name": "Actual Gas Used",
                        "value": 59290
                    },
                    {
                        "children": [],
                        "depth": -1,
                        "name": "Refunded Gas",
                        "value": 0
                    }
                ],
                "depth": -2,
                "name": "Total Gas",
                "value": 59290
            }
        ],
        "isConfirmed": true,
        "mainTrace": [
            {
                "children": [
                    {
                        "children": [
                            {
                                "children": [],
                                "depth": 1,
                                "id": 1,
                                "order": 1
                            },
                            {
                                "children": [],
                                "depth": 1,
                                "id": 2,
                                "order": 2
                            },
                            {
                                "children": [],
                                "depth": 1,
                                "id": 3,
                                "order": 3
                            }
                        ],
                        "depth": 0,
                        "id": 0,
                        "order": 0
                    }
                ],
                "depth": -1,
                "id": -1,
                "order": -1
            }
        ],
        "mainTraceNodeCount": 4,
        "parentIdMap": {
            "0": -1,
            "1": 0,
            "2": 0,
            "3": 0
        },
        "tidyTrace": [
            {
                "children": [
                    {
                        "children": [
                            {
                                "children": [],
                                "depth": 1,
                                "id": 1,
                                "order": 1
                            },
                            {
                                "children": [],
                                "depth": 1,
                                "id": 2,
                                "order": 2
                            },
                            {
                                "children": [],
                                "depth": 1,
                                "id": 3,
                                "order": 3
                            }
                        ],
                        "depth": 0,
                        "id": 0,
                        "order": 0
                    }
                ],
                "depth": -1,
                "id": -1,
                "order": -1
            }
        ],
        "tidyTraceNodeCount": 4
    },
    "state_change": {
        "stateChanges": [
            {
                "address": "0x8d12a197cb00d4747a1fe03395095ce2a5cc6819",
                "erc": "",
                "slots": [
                    {
                        "current": "0x00000000000000000000000000000000000000000000001f2bba5d84f99c0000",
                        "key": "0x193669376d8bec0eddb524a60fe8a8e68764669910e3daa7b0f11682a300f529",
                        "prev": "0x0000000000000000000000000000000000000000000000000000000000000000"
                    }
                ],
                "storageVariables": []
            }
        ]
    }
}