{
    "balance_change": {
        "balanceChanges": [
            {
                "account": "0xf6705d78871e19db316a36073835080ed1a52d7e",
                "assets": [
                    {
                        "address": "0x685d32f394a5f03e78a1a0f6a91b4e2bf6f52cfe",
                        "amount": "243.829655373173047892",
                        "iconUrl": "",
                        "isERC1155": false,
                        "isERC721": false,
                        "sign": false,
                        "value": ""
                    }
                ]
            },
            {
                "account": "0x685d32f394a5f03e78a1a0f6a91b4e2bf6f52cfe",
                "assets": [
                    {
                        "address": "0x37922c69b08babcceae735a31235c81f1d1e8e43",
                        "amount": "2.640882988975387989",
                        "iconUrl": "",
                        "isERC1155": false,
                        "isERC721": false,
                        "sign": true,
                        "value": "297.4201817"
                    }
                ]
            },
            {
                "account": "0xbf95dce39bceabf08d58b613ec77bfdb3baa4e25",
                "assets": [
                    {
                        "address": "0x685d32f394a5f03e78a1a0f6a91b4e2bf6f52cfe",
                        "amount": "243.829655373173047892",
                        "iconUrl": "",
                        "isERC1155": false,
                        "isERC721": false,
                        "sign": true,
                        "value": ""
                    }
                ]
            },
            {
                "account": "0xbfd6b497dca3e5d1fa4bbd52996d400980c29eb7",
                "assets": [
                    {
                        "address": "0x37922c69b08babcceae735a31235c81f1d1e8e43",
                        "amount": "2.640882988975387989",
                        "iconUrl": "",
                        "isERC1155": false,
                        "isERC721": false,
                        "sign": false,
                        "value": "297.4201817"
                    }
                ]
            }
        ]
    },
    "profile": {
        "basic_info": {
            "baseFee": "61.989123598",
            "blockNumber": 13100273,
            "callData": "0xa9059cbb000000000000000000000000bf95dce39bceabf08d58b613ec77bfdb3baa4e2500000000000000000000000000000000000000000000000d37d0f3b26fe54254",
            "debugEnable": true,
            "errorInfo": "",
            "eventCount": 3,
            "feeRecipient": "0x3ecef08d0e2dad803847e052249bb4f8bff2d5bb",
            "formatValue": "0",
            "gasLimit": 459937,
            "gasPrice": "63.489123598",
            "gasUsed": 294225,
            "intTxnCount": 31,
            "internalRevert": false,
            "internalRevertMessage": "",
            "isContractCreation": false,
            "isFlashloan": false,
            "maxFee": "75.096890936",
            "nonce": 80,
            "overwritedBlockNumber": -1,
            "priorityFee": "1.5",
            "receiver": "0x685d32f394a5f03e78a1a0f6a91b4e2bf6f52cfe",
            "revertMessage": "",
            "sender": "0xf6705d78871e19db316a36073835080ed1a52d7e",
            "simulationEnable": true,
            "sourceTxnHash": "0x871a725dad27020f2d430318aaab3ae4b762241f2e4379694196899e28591cdc",
            "status": true,
            "timestamp": "2021-08-26T09:54:20Z",
            "transactionFee": "0.01868008739062155",
            "txnHash": "0x871a725dad27020f2d430318aaab3ae4b762241f2e4379694196899e28591cdc",
            "txnIndex": 54,
            "type": 2,
            "value": "0"
        },
        "fund_flow": [
            {
                "amount": "2.640882988975387989",
                "from": "0xbfd6b497dca3e5d1fa4bbd52996d400980c29eb7",
                "id": 1,
                "isERC1155": false,
                "isERC721": false,
                "isReverted": false,
                "order": 1,
                "to": "0x685d32f394a5f03e78a1a0f6a91b4e2bf6f52cfe",
                "token": "0x37922c69b08babcceae735a31235c81f1d1e8e43"
            },
            {
                "amount": "243.829655373173047892",
                "from": "0xf6705d78871e19db316a36073835080ed1a52d7e",
                "id": 2,
                "isERC1155": false,
                "isERC721": false,
                "isReverted": false,
                "order": 2,
                "to": "0xbf95dce39bceabf08d58b613ec77bfdb3baa4e25",
                "token": "0x685d32f394a5f03e78a1a0f6a91b4e2bf6f52cfe"
            }
        ],
        "token_infos": [
            {
                "address": "0xc02aaa39b223fe8d0a0e5c4f27ead9083c756cc2",
                "decimals": 18
            },
            {
                "address": "0xeeeeeeeeeeeeeeeeeeeeeeeeeeeeeeeeeeeeeeee",
                "decimals": 18
            },
            {
                "address": "0x37922c69b08babcceae735a31235c81f1d1e8e43",
                "decimals": 18
            },
            {
                "address": "0x685d32f394a5f03e78a1a0f6a91b4e2bf6f52cfe",
                "decimals": 18
            }
        ]
    },
    "address_label": {
        "labels": [
            {
                "address": "0xeeeeeeeeeeeeeeeeeeeeeeeeeeeeeeeeeeeeeeee",
                "label": "Ether"
            },
            {
                "address": "0x1b6d3e5da9004668e14ca39d1553e9a46fe842b3",
                "label": "Pendle: Router"
            },
            {
                "address": "0x37922c69b08babcceae735a31235c81f1d1e8e43",
                "label": "SushiSwap: PENDLE"
            },
            {
                "address": "0x0000000000000000000000000000000000000003",
                "label": "Precompiled"
            },
            {
                "address": "0x685d32f394a5f03e78a1a0f6a91b4e2bf6f52cfe",
                "label": "Pendle Market (PENDLE-LPT)"
            },
            {
                "address": "0x0000000000000000000000000000000000000001",
                "label": "Precompiled"
            },
            {
                "address": "0x0000000000000000000000000000000000000002",
                "label": "Precompiled"
            },
            {
                "address": "0x6b0e6b4c0ee4b6460e5cd35a3625a172fe9d3930",
                "label": "Pendle: Sushiswap Simple Forge"
            },
            {
                "address": "0x49c8ac20de6409c7e0b8f9867cffd1481d8206c6",
                "label": "YT SushiSwap LP Token 29DEC2022 (YT-SLP-29...)"
            },
            {
                "address": "0xbf682bd31a615123d28d611b38b0ae3d2b675c2c",
                "label": "OT SushiSwap LP Token 29DEC2022 (OT-SLP-29...)"
            },
            {
                "address": "0x0ef44218209d7d64737dd36f179d5e448df3eed4",
                "label": "PendlePausingManager"
            },
            {
                "address": "0x0000000000000000000000000000000000000004",
                "label": "Precompiled"
            },
            {
                "address": "0xe8a6916576832aa5504092c1cccc46e3bb9491d6",
                "label": "Pendle: Data"
            }
        ]
    },
    "trace": {
        "accountLabels": null,
        "dataMap": {
            "-1": {
                "invocation": {
                    "address": "0xf6705d78871e19db316a36073835080ed1a52d7e",
                    "callData": "",
                    "decodedMethod": null,
                    "errorInfo": "",
                    "fromAddress": "",
                    "gasUsed": 0,
                    "id": -1,
                    "methodDecoded": false,
                    "operation": "",
                    "output": "",
                    "revert": false,
                    "revertMessage": "",
                    "selector": "",
                    "status": false,
                    "value": ""
                },
                "nodeType": 0
            },
            "0": {
                "invocation": {
                    "address": "0x685d32f394a5f03e78a1a0f6a91b4e2bf6f52cfe",
                    "callData": "0x000000000000000000000000bf95dce39bceabf08d58b613ec77bfdb3baa4e2500000000000000000000000000000000000000000000000d37d0f3b26fe54254",
                    "decodedMethod": {
                        "callParams": [
                            {
                                "name": "recipient",
                                "type": "address",
                                "value": "0xbf95dce39bceabf08d58b613ec77bfdb3baa4e25"
                            },
                            {
                                "decimalAvailable": true,
                                "name": "amount",
                                "type": "uint256",
                                "value": "243,829,655,373,173,047,892"
                            }
                        ],
                        "constructorArguments": "",
                        "name": "transfer",
                        "returnParams": [
                            {
                                "name": "",
                                "type": "bool",
                                "value": true
                            }
                        ],
                        "signature": "transfer(address,uint256)"
                    },
                    "errorInfo": "",
                    "fromAddress": "0xf6705d78871e19db316a36073835080ed1a52d7e",
                    "gasUsed": 294225,
                    "id": 0,
                    "methodDecoded": true,
                    "operation": "CALL",
                    "output": "0x0000000000000000000000000000000000000000000000000000000000000001",
                    "revert": false,
                    "revertMessage": "",
                    "selector": "0xa9059cbb",
                    "status": true,
                    "value": "0"
                },
                "nodeType": 0
            },
            "1": {
                "invocation": {
                    "address": "0x0ef44218209d7d64737dd36f179d5e448df3eed4",
                    "callData": "0x47656e6572696300000000000000000000000000000000000000000000000000000000000000000000000000685d32f394a5f03e78a1a0f6a91b4e2bf6f52cfe",
                    "decodedMethod": {
                        "callParams": [
                            {
                                "name": "marketFactoryId",
                                "type": "bytes32",
                                "value": "0x47656e6572696300000000000000000000000000000000000000000000000000"
                            },
                            {
                                "name": "market",
                                "type": "address",
                                "value": "0x685d32f394a5f03e78a1a0f6a91b4e2bf6f52cfe"
                            }
                        ],
                        "constructorArguments": "",
                        "name": "checkMarketStatus",
                        "returnParams": [
                            {
                                "name": "_paused",
                                "type": "bool",
                                "value": false
                            },
                            {
                                "name": "_locked",
                                "type": "bool",
                                "value": false
                            }
                        ],
                        "signature": "checkMarketStatus(bytes32,address)"
                    },
                    "errorInfo": "",
                    "fromAddress": "0x685d32f394a5f03e78a1a0f6a91b4e2bf6f52cfe",
                    "gasUsed": 4963,
                    "id": 1,
                    "methodDecoded": true,
                    "operation": "CALL",
                    "output": "0x00000000000000000000000000000000000000000000000000000000000000000000000000000000000000000000000000000000000000000000000000000000",
                    "revert": false,
                    "revertMessage": "",
                    "selector": "0x67455d1a",
                    "status": true,
                    "value": "0"
                },
                "nodeType": 0
            },
            "10": {
                "invocation": {
                    "address": "0x6b0e6b4c0ee4b6460e5cd35a3625a172fe9d3930",
                    "callData": "0x000000000000000000000000685d32f394a5f03e78a1a0f6a91b4e2bf6f52cfe00000000000000000000000037922c69b08babcceae735a31235c81f1d1e8e430000000000000000000000000000000000000000000000000000000063acd880",
                    "decodedMethod": {
                        "callParams": [
                            {
                                "name": "_user",
                                "type": "address",
                                "value": "0x685d32f394a5f03e78a1a0f6a91b4e2bf6f52cfe"
                            },
                            {
                                "name": "_underlyingAsset",
                                "type": "address",
                                "value": "0x37922c69b08babcceae735a31235c81f1d1e8e43"
                            },
                            {
                                "name": "_expiry",
                                "type": "uint256",
                                "value": "1,672,272,000"
                            }
                        ],
                        "constructorArguments": "",
                        "name": "redeemDueInterests",
                        "returnParams": [
                            {
                                "name": "amountOut",
                                "type": "uint256",
                                "value": "2,640,882,988,975,387,989"
                            }
                        ],
                        "signature": "redeemDueInterests(address,address,uint256)"
                    },
                    "errorInfo": "",
                    "fromAddress": "0x1b6d3e5da9004668e14ca39d1553e9a46fe842b3",
                    "gasUsed": 96530,
                    "id": 10,
                    "methodDecoded": true,
                    "operation": "CALL",
                    "output": "0x00000000000000000000000000000000000000000000000024a64d16233ff555",
                    "revert": false,
                    "revertMessage": "",
                    "selector": "0x097660b9",
                    "status": true,
                    "value": "0"
                },
                "nodeType": 0
            },
            "11": {
                "invocation": {
                    "address": "0x0ef44218209d7d64737dd36f179d5e448df3eed4",
                    "callData": "0x53757368697377617053696d706c65000000000000000000000000000000000000000000000000000000000037922c69b08babcceae735a31235c81f1d1e8e430000000000000000000000000000000000000000000000000000000063acd880",
                    "decodedMethod": {
                        "callParams": [
                            {
                                "name": "forgeId",
                                "type": "bytes32",
                                "value": "0x53757368697377617053696d706c650000000000000000000000000000000000"
                            },
                            {
                                "name": "underlyingAsset",
                                "type": "address",
                                "value": "0x37922c69b08babcceae735a31235c81f1d1e8e43"
                            },
                            {
                                "name": "expiry",
                                "type": "uint256",
                                "value": "1,672,272,000"
                            }
                        ],
                        "constructorArguments": "",
                        "name": "checkYieldContractStatus",
                        "returnParams": [
                            {
                                "name": "_paused",
                                "type": "bool",
                                "value": false
                            },
                            {
                                "name": "_locked",
                                "type": "bool",
                                "value": false
                            }
                        ],
                        "signature": "checkYieldContractStatus(bytes32,address,uint256)"
                    },
                    "errorInfo": "",
                    "fromAddress": "0x6b0e6b4c0ee4b6460e5cd35a3625a172fe9d3930",
                    "gasUsed": 3086,
                    "id": 11,
                    "methodDecoded": true,
                    "operation": "CALL",
                    "output": "0x00000000000000000000000000000000000000000000000000000000000000000000000000000000000000000000000000000000000000000000000000000000",
                    "revert": false,
                    "revertMessage": "",
                    "selector": "0x96f614fe",
                    "status": true,
                    "value": "0"
                },
                "nodeType": 0
            },
            "12": {
                "invocation": {
                    "address": "0xe8a6916576832aa5504092c1cccc46e3bb9491d6",
                    "callData": "0x53757368697377617053696d706c65000000000000000000000000000000000000000000000000000000000037922c69b08babcceae735a31235c81f1d1e8e430000000000000000000000000000000000000000000000000000000063acd880",
                    "decodedMethod": {
                        "callParams": [
                            {
                                "name": "_forgeId",
                                "type": "bytes32",
                                "value": "0x53757368697377617053696d706c650000000000000000000000000000000000"
                            },
                            {
                                "name": "_underlyingAsset",
                                "type": "address",
                                "value": "0x37922c69b08babcceae735a31235c81f1d1e8e43"
                            },
                            {
                                "name": "_expiry",
                                "type": "uint256",
                                "value": "1,672,272,000"
                            }
                        ],
                        "constructorArguments": "",
                        "name": "getPendleYieldTokens",
                        "returnParams": [
                            {
                                "name": "ot",
                                "type": "address",
                                "value": "0xbf682bd31a615123d28d611b38b0ae3d2b675c2c"
                            },
                            {
                                "name": "xyt",
                                "type": "address",
                                "value": "0x49c8ac20de6409c7e0b8f9867cffd1481d8206c6"
                            }
                        ],
                        "signature": "getPendleYieldTokens(bytes32,address,uint256)"
                    },
                    "errorInfo": "",
                    "fromAddress": "0x6b0e6b4c0ee4b6460e5cd35a3625a172fe9d3930",
                    "gasUsed": 3097,
                    "id": 12,
                    "methodDecoded": true,
                    "operation": "STATICCALL",
                    "output": "0x000000000000000000000000bf682bd31a615123d28d611b38b0ae3d2b675c2c00000000000000000000000049c8ac20de6409c7e0b8f9867cffd1481d8206c6",
                    "revert": false,
                    "revertMessage": "",
                    "selector": "0x8c96818d",
                    "status": true,
                    "value": "0"
                },
                "nodeType": 0
            },
            "13": {
                "invocation": {
                    "address": "0x49c8ac20de6409c7e0b8f9867cffd1481d8206c6",
                    "callData": "0x000000000000000000000000685d32f394a5f03e78a1a0f6a91b4e2bf6f52cfe",
                    "decodedMethod": {
                        "callParams": [
                            {
                                "name": "account",
                                "type": "address",
                                "value": "0x685d32f394a5f03e78a1a0f6a91b4e2bf6f52cfe"
                            }
                        ],
                        "constructorArguments": "",
                        "name": "balanceOf",
                        "returnParams": [
                            {
                                "decimalAvailable": true,
                                "name": "",
                                "type": "uint256",
                                "value": "43,174,635,925,329,871,645,465"
                            }
                        ],
                        "signature": "balanceOf(address)"
                    },
                    "errorInfo": "",
                    "fromAddress": "0x6b0e6b4c0ee4b6460e5cd35a3625a172fe9d3930",
                    "gasUsed": 2556,
                    "id": 13,
                    "methodDecoded": true,
                    "operation": "STATICCALL",
                    "output": "0x000000000000000000000000000000000000000000000924806fa11009842b19",
                    "revert": false,
                    "revertMessage": "",
                    "selector": "0x70a08231",
                    "status": true,
                    "value": "0"
                },
                "nodeType": 0
            },
            "14": {
                "invocation": {
                    "address": "0x37922c69b08babcceae735a31235c81f1d1e8e43",
                    "callData": "0x",
                    "decodedMethod": {
                        "callParams": [],
                        "constructorArguments": "",
                        "name": "getReserves",
                        "returnParams": [
                            {
                                "name": "_reserve0",
                                "type": "uint112",
                                "value": "3,389,117,189,364,106,124,047,063"
                            },
                            {
                                "name": "_reserve1",
                                "type": "uint112",
                                "value": "987,866,409,036,814,066,917"
                            },
                            {
                                "name": "_blockTimestampLast",
                                "type": "uint32",
                                "value": "1,629,971,660"
                            }
                        ],
                        "signature": "getReserves()"
                    },
                    "errorInfo": "",
                    "fromAddress": "0x6b0e6b4c0ee4b6460e5cd35a3625a172fe9d3930",
                    "gasUsed": 517,
                    "id": 14,
                    "methodDecoded": true,
                    "operation": "STATICCALL",
                    "output": "0x00000000000000000000000000000000000000000002cdac6935b636638fb2d70000000000000000000000000000000000000000000000358d6681141409a4e500000000000000000000000000000000000000000000000000000000612764cc",
                    "revert": false,
                    "revertMessage": "",
                    "selector": "0x0902f1ac",
                    "status": true,
                    "value": "0"
                },
                "nodeType": 0
            },
            "15": {
                "invocation": {
                    "address": "0x37922c69b08babcceae735a31235c81f1d1e8e43",
                    "callData": "0x",
                    "decodedMethod": {
                        "callParams": [],
                        "constructorArguments": "",
                        "name": "totalSupply",
                        "returnParams": [
                            {
                                "name": "",
                                "type": "uint256",
                                "value": "54,420,705,293,080,899,519,111"
                            }
                        ],
                        "signature": "totalSupply()"
                    },
                    "errorInfo": "",
                    "fromAddress": "0x6b0e6b4c0ee4b6460e5cd35a3625a172fe9d3930",
                    "gasUsed": 432,
                    "id": 15,
                    "methodDecoded": true,
                    "operation": "STATICCALL",
                    "output": "0x000000000000000000000000000000000000000000000b8627001acd935e8287",
                    "revert": false,
                    "revertMessage": "",
                    "selector": "0x18160ddd",
                    "status": true,
                    "value": "0"
                },
                "nodeType": 0
            },
            "16": {
                "invocation": {
                    "address": "0xe8a6916576832aa5504092c1cccc46e3bb9491d6",
                    "callData": "0x",
                    "decodedMethod": {
                        "callParams": [],
                        "constructorArguments": "",
                        "name": "forgeFee",
                        "returnParams": [
                            {
                                "name": "",
                                "type": "uint256",
                                "value": "32,985,348,833"
                            }
                        ],
                        "signature": "forgeFee()"
                    },
                    "errorInfo": "",
                    "fromAddress": "0x6b0e6b4c0ee4b6460e5cd35a3625a172fe9d3930",
                    "gasUsed": 2433,
                    "id": 16,
                    "methodDecoded": true,
                    "operation": "STATICCALL",
                    "output": "0x00000000000000000000000000000000000000000000000000000007ae147ae1",
                    "revert": false,
                    "revertMessage": "",
                    "selector": "0x1c1c0bda",
                    "status": true,
                    "value": "0"
                },
                "nodeType": 0
            },
            "17": {
                "event": {
                    "contract": "0x6b0e6b4c0ee4b6460e5cd35a3625a172fe9d3930",
                    "decodedLog": {
                        "name": "DueInterestsSettled",
                        "params": [
                            {
                                "name": "underlyingAsset",
                                "type": "address",
                                "value": "0x37922c69b08babcceae735a31235c81f1d1e8e43"
                            },
                            {
                                "name": "expiry",
                                "type": "uint256",
                                "value": "1,672,272,000"
                            },
                            {
                                "name": "user",
                                "type": "address",
                                "value": "0x685d32f394a5f03e78a1a0f6a91b4e2bf6f52cfe"
                            },
                            {
                                "name": "forgeId",
                                "type": "bytes32",
                                "value": "0x53757368697377617053696d706c650000000000000000000000000000000000"
                            },
                            {
                                "name": "amount",
                                "type": "uint256",
                                "value": "2,640,882,988,975,387,989"
                            },
                            {
                                "name": "forgeFeeAmount",
                                "type": "uint256",
                                "value": "81,676,793,472,750,842"
                            }
                        ],
                        "signature": "DueInterestsSettled(bytes32,address,uint256,uint256,uint256,address)"
                    },
                    "id": 17,
                    "logData": "0x53757368697377617053696d706c65000000000000000000000000000000000000000000000000000000000000000000000000000000000024a64d16233ff55500000000000000000000000000000000000000000000000001222c9c655614fa",
                    "logDecoded": true,
                    "operation": "EVENT",
                    "revert": false,
                    "status": true,
                    "topics": [
                        "0x4679338ea15909dec2b90187525746d76a560c571e0d1ca93e4b65f9cf2c53cb",
                        "0x00000000000000000000000037922c69b08babcceae735a31235c81f1d1e8e43",
                        "0x0000000000000000000000000000000000000000000000000000000063acd880",
                        "0x000000000000000000000000685d32f394a5f03e78a1a0f6a91b4e2bf6f52cfe"
                    ]
                },
                "nodeType": 1
            },
            "18": {
                "invocation": {
                    "address": "0xe8a6916576832aa5504092c1cccc46e3bb9491d6",
                    "callData": "0x53757368697377617053696d706c65000000000000000000000000000000000000000000000000000000000037922c69b08babcceae735a31235c81f1d1e8e430000000000000000000000000000000000000000000000000000000063acd880",
                    "decodedMethod": {
                        "callParams": [
                            {
                                "name": "_forgeId",
                                "type": "bytes32",
                                "value": "0x53757368697377617053696d706c650000000000000000000000000000000000"
                            },
                            {
                                "name": "_underlyingAsset",
                                "type": "address",
                                "value": "0x37922c69b08babcceae735a31235c81f1d1e8e43"
                            },
                            {
                                "name": "_expiry",
                                "type": "uint256",
                                "value": "1,672,272,000"
                            }
                        ],
                        "constructorArguments": "",
                        "name": "getPendleYieldTokens",
                        "returnParams": [
                            {
                                "name": "ot",
                                "type": "address",
                                "value": "0xbf682bd31a615123d28d611b38b0ae3d2b675c2c"
                            },
                            {
                                "name": "xyt",
                                "type": "address",
                                "value": "0x49c8ac20de6409c7e0b8f9867cffd1481d8206c6"
                            }
                        ],
                        "signature": "getPendleYieldTokens(bytes32,address,uint256)"
                    },
                    "errorInfo": "",
                    "fromAddress": "0x6b0e6b4c0ee4b6460e5cd35a3625a172fe9d3930",
                    "gasUsed": 1097,
                    "id": 18,
                    "methodDecoded": true,
                    "operation": "STATICCALL",
                    "output": "0x000000000000000000000000bf682bd31a615123d28d611b38b0ae3d2b675c2c00000000000000000000000049c8ac20de6409c7e0b8f9867cffd1481d8206c6",
                    "revert": false,
                    "revertMessage": "",
                    "selector": "0x8c96818d",
                    "status": true,
                    "value": "0"
                },
                "nodeType": 0
            },
            "19": {
                "invocation": {
                    "address": "0xbf682bd31a615123d28d611b38b0ae3d2b675c2c",
                    "callData": "0x",
                    "decodedMethod": {
                        "callParams": [],
                        "constructorArguments": "",
                        "name": "totalSupply",
                        "returnParams": [
                            {
                                "name": "",
                                "type": "uint256",
                                "value": "43,839,797,885,620,175,535,755"
                            }
                        ],
                        "signature": "totalSupply()"
                    },
                    "errorInfo": "",
                    "fromAddress": "0x6b0e6b4c0ee4b6460e5cd35a3625a172fe9d3930",
                    "gasUsed": 2366,
                    "id": 19,
                    "methodDecoded": true,
                    "operation": "STATICCALL",
                    "output": "0x0000000000000000000000000000000000000000000009488f699fc47f907e8b",
                    "revert": false,
                    "revertMessage": "",
                    "selector": "0x18160ddd",
                    "status": true,
                    "value": "0"
                },
                "nodeType": 0
            },
            "2": {
                "invocation": {
                    "address": "0xe8a6916576832aa5504092c1cccc46e3bb9491d6",
                    "callData": "0x",
                    "decodedMethod": {
                        "callParams": [],
                        "constructorArguments": "",
                        "name": "interestUpdateRateDeltaForMarket",
                        "returnParams": [
                            {
                                "name": "",
                                "type": "uint256",
                                "value": "36,743,919"
                            }
                        ],
                        "signature": "interestUpdateRateDeltaForMarket()"
                    },
                    "errorInfo": "",
                    "fromAddress": "0x685d32f394a5f03e78a1a0f6a91b4e2bf6f52cfe",
                    "gasUsed": 2366,
                    "id": 2,
                    "methodDecoded": true,
                    "operation": "STATICCALL",
                    "output": "0x000000000000000000000000000000000000000000000000000000000230aaef",
                    "revert": false,
                    "revertMessage": "",
                    "selector": "0x99c8054f",
                    "status": true,
                    "value": "0"
                },
                "nodeType": 0
            },
            "20": {
                "invocation": {
                    "address": "0x37922c69b08babcceae735a31235c81f1d1e8e43",
                    "callData": "0x",
                    "decodedMethod": {
                        "callParams": [],
                        "constructorArguments": "",
                        "name": "getReserves",
                        "returnParams": [
                            {
                                "name": "_reserve0",
                                "type": "uint112",
                                "value": "3,389,117,189,364,106,124,047,063"
                            },
                            {
                                "name": "_reserve1",
                                "type": "uint112",
                                "value": "987,866,409,036,814,066,917"
                            },
                            {
                                "name": "_blockTimestampLast",
                                "type": "uint32",
                                "value": "1,629,971,660"
                            }
                        ],
                        "signature": "getReserves()"
                    },
                    "errorInfo": "",
                    "fromAddress": "0x6b0e6b4c0ee4b6460e5cd35a3625a172fe9d3930",
                    "gasUsed": 517,
                    "id": 20,
                    "methodDecoded": true,
                    "operation": "STATICCALL",
                    "output": "0x00000000000000000000000000000000000000000002cdac6935b636638fb2d70000000000000000000000000000000000000000000000358d6681141409a4e500000000000000000000000000000000000000000000000000000000612764cc",
                    "revert": false,
                    "revertMessage": "",
                    "selector": "0x0902f1ac",
                    "status": true,
                    "value": "0"
                },
                "nodeType": 0
            },
            "21": {
                "invocation": {
                    "address": "0x37922c69b08babcceae735a31235c81f1d1e8e43",
                    "callData": "0x",
                    "decodedMethod": {
                        "callParams": [],
                        "constructorArguments": "",
                        "name": "totalSupply",
                        "returnParams": [
                            {
                                "name": "",
                                "type": "uint256",
                                "value": "54,420,705,293,080,899,519,111"
                            }
                        ],
                        "signature": "totalSupply()"
                    },
                    "errorInfo": "",
                    "fromAddress": "0x6b0e6b4c0ee4b6460e5cd35a3625a172fe9d3930",
                    "gasUsed": 432,
                    "id": 21,
                    "methodDecoded": true,
                    "operation": "STATICCALL",
                    "output": "0x000000000000000000000000000000000000000000000b8627001acd935e8287",
                    "revert": false,
                    "revertMessage": "",
                    "selector": "0x18160ddd",
                    "status": true,
                    "value": "0"
                },
                "nodeType": 0
            },
            "22": {
                "invocation": {
                    "address": "0xbfd6b497dca3e5d1fa4bbd52996d400980c29eb7",
                    "callData": "0x000000000000000000000000685d32f394a5f03e78a1a0f6a91b4e2bf6f52cfe00000000000000000000000000000000000000000000000024a64d16233ff5550000000000000000000000000000000000000000000008bb38ba6d43776ab64f",
                    "decodedMethod": null,
                    "errorInfo": "",
                    "fromAddress": "0x6b0e6b4c0ee4b6460e5cd35a3625a172fe9d3930",
                    "gasUsed": 15675,
                    "id": 22,
                    "methodDecoded": false,
                    "operation": "CALL",
                    "output": "",
                    "revert": false,
                    "revertMessage": "",
                    "selector": "0x91680e5f",
                    "status": true,
                    "value": "0"
                },
                "nodeType": 0
            },
            "23": {
                "invocation": {
                    "address": "0x37922c69b08babcceae735a31235c81f1d1e8e43",
                    "callData": "0x000000000000000000000000bfd6b497dca3e5d1fa4bbd52996d400980c29eb7",
                    "decodedMethod": {
                        "callParams": [
                            {
                                "name": "",
                                "type": "address",
                                "value": "0xbfd6b497dca3e5d1fa4bbd52996d400980c29eb7"
                            }
                        ],
                        "constructorArguments": "",
                        "name": "balanceOf",
                        "returnParams": [
                            {
                                "decimalAvailable": true,
                                "name": "",
                                "type": "uint256",
                                "value": "41,245,654,602,514,180,282,485"
                            }
                        ],
                        "signature": "balanceOf(address)"
                    },
                    "errorInfo": "",
                    "fromAddress": "0xbfd6b497dca3e5d1fa4bbd52996d400980c29eb7",
                    "gasUsed": 2492,
                    "id": 23,
                    "methodDecoded": true,
                    "operation": "STATICCALL",
                    "output": "0x0000000000000000000000000000000000000000000008bbee714c24911f1875",
                    "revert": false,
                    "revertMessage": "",
                    "selector": "0x70a08231",
                    "status": true,
                    "value": "0"
                },
                "nodeType": 0
            },
            "24": {
                "invocation": {
                    "address": "0x37922c69b08babcceae735a31235c81f1d1e8e43",
                    "callData": "0x000000000000000000000000685d32f394a5f03e78a1a0f6a91b4e2bf6f52cfe00000000000000000000000000000000000000000000000024a64d16233ff555",
                    "decodedMethod": {
                        "callParams": [
                            {
                                "name": "to",
                                "type": "address",
                                "value": "0x685d32f394a5f03e78a1a0f6a91b4e2bf6f52cfe"
                            },
                            {
                                "decimalAvailable": true,
                                "name": "value",
                                "type": "uint256",
                                "value": "2,640,882,988,975,387,989"
                            }
                        ],
                        "constructorArguments": "",
                        "name": "transfer",
                        "returnParams": [
                            {
                                "name": "",
                                "type": "bool",
                                "value": true
                            }
                        ],
                        "signature": "transfer(address,uint256)"
                    },
                    "errorInfo": "",
                    "fromAddress": "0xbfd6b497dca3e5d1fa4bbd52996d400980c29eb7",
                    "gasUsed": 10776,
                    "id": 24,
                    "methodDecoded": true,
                    "operation": "CALL",
                    "output": "0x0000000000000000000000000000000000000000000000000000000000000001",
                    "revert": false,
                    "revertMessage": "",
                    "selector": "0xa9059cbb",
                    "status": true,
                    "value": "0"
                },
                "nodeType": 0
            },
            "25": {
                "event": {
                    "contract": "0x37922c69b08babcceae735a31235c81f1d1e8e43",
                    "decodedLog": {
                        "name": "Transfer",
                        "params": [
                            {
                                "name": "from",
                                "type": "address",
                                "value": "0xbfd6b497dca3e5d1fa4bbd52996d400980c29eb7"
                            },
                            {
                                "name": "to",
                                "type": "address",
                                "value": "0x685d32f394a5f03e78a1a0f6a91b4e2bf6f52cfe"
                            },
                            {
                                "decimalAvailable": true,
                                "name": "value",
                                "type": "uint256",
                                "value": "2,640,882,988,975,387,989"
                            }
                        ],
                        "signature": "Transfer(address,address,uint256)"
                    },
                    "id": 25,
                    "logData": "0x00000000000000000000000000000000000000000000000024a64d16233ff555",
                    "logDecoded": true,
                    "operation": "EVENT",
                    "revert": false,
                    "status": true,
                    "topics": [
                        "0xddf252ad1be2c89b69c2b068fc378daa952ba7f163c4a11628f55a4df523b3ef",
                        "0x000000000000000000000000bfd6b497dca3e5d1fa4bbd52996d400980c29eb7",
                        "0x000000000000000000000000685d32f394a5f03e78a1a0f6a91b4e2bf6f52cfe"
                    ]
                },
                "nodeType": 1
            },
            "26": {
                "invocation": {
                    "address": "0x37922c69b08babcceae735a31235c81f1d1e8e43",
                    "callData": "0x000000000000000000000000685d32f394a5f03e78a1a0f6a91b4e2bf6f52cfe",
                    "decodedMethod": {
                        "callParams": [
                            {
                                "name": "",
                                "type": "address",
                                "value": "0x685d32f394a5f03e78a1a0f6a91b4e2bf6f52cfe"
                            }
                        ],
                        "constructorArguments": "",
                        "name": "balanceOf",
                        "returnParams": [
                            {
                                "decimalAvailable": true,
                                "name": "",
                                "type": "uint256",
                                "value": "111,750,258,554,772,397,844"
                            }
                        ],
                        "signature": "balanceOf(address)"
                    },
                    "errorInfo": "",
                    "fromAddress": "0x685d32f394a5f03e78a1a0f6a91b4e2bf6f52cfe",
                    "gasUsed": 492,
                    "id": 26,
                    "methodDecoded": true,
                    "operation": "STATICCALL",
                    "output": "0x0000000000000000000000000000000000000000000000060ed8ac13cb441f14",
                    "revert": false,
                    "revertMessage": "",
                    "selector": "0x70a08231",
                    "status": true,
                    "value": "0"
                },
                "nodeType": 0
            },
            "27": {
                "invocation": {
                    "address": "0x6b0e6b4c0ee4b6460e5cd35a3625a172fe9d3930",
                    "callData": "0x00000000000000000000000037922c69b08babcceae735a31235c81f1d1e8e43",
                    "decodedMethod": {
                        "callParams": [
                            {
                                "name": "_underlyingAsset",
                                "type": "address",
                                "value": "0x37922c69b08babcceae735a31235c81f1d1e8e43"
                            }
                        ],
                        "constructorArguments": "",
                        "name": "getExchangeRate",
                        "returnParams": [
                            {
                                "name": "rate",
                                "type": "uint256",
                                "value": "1,169,036,477,750"
                            }
                        ],
                        "signature": "getExchangeRate(address)"
                    },
                    "errorInfo": "",
                    "fromAddress": "0x685d32f394a5f03e78a1a0f6a91b4e2bf6f52cfe",
                    "gasUsed": 12560,
                    "id": 27,
                    "methodDecoded": true,
                    "operation": "CALL",
                    "output": "0x0000000000000000000000000000000000000000000000000000011030010536",
                    "revert": false,
                    "revertMessage": "",
                    "selector": "0xefb7601d",
                    "status": true,
                    "value": "0"
                },
                "nodeType": 0
            },
            "28": {
                "invocation": {
                    "address": "0x37922c69b08babcceae735a31235c81f1d1e8e43",
                    "callData": "0x",
                    "decodedMethod": {
                        "callParams": [],
                        "constructorArguments": "",
                        "name": "getReserves",
                        "returnParams": [
                            {
                                "name": "_reserve0",
                                "type": "uint112",
                                "value": "3,389,117,189,364,106,124,047,063"
                            },
                            {
                                "name": "_reserve1",
                                "type": "uint112",
                                "value": "987,866,409,036,814,066,917"
                            },
                            {
                                "name": "_blockTimestampLast",
                                "type": "uint32",
                                "value": "1,629,971,660"
                            }
                        ],
                        "signature": "getReserves()"
                    },
                    "errorInfo": "",
                    "fromAddress": "0x6b0e6b4c0ee4b6460e5cd35a3625a172fe9d3930",
                    "gasUsed": 517,
                    "id": 28,
                    "methodDecoded": true,
                    "operation": "STATICCALL",
                    "output": "0x00000000000000000000000000000000000000000002cdac6935b636638fb2d70000000000000000000000000000000000000000000000358d6681141409a4e500000000000000000000000000000000000000000000000000000000612764cc",
                    "revert": false,
                    "revertMessage": "",
                    "selector": "0x0902f1ac",
                    "status": true,
                    "value": "0"
                },
                "nodeType": 0
            },
            "29": {
                "invocation": {
                    "address": "0x37922c69b08babcceae735a31235c81f1d1e8e43",
                    "callData": "0x",
                    "decodedMethod": {
                        "callParams": [],
                        "constructorArguments": "",
                        "name": "totalSupply",
                        "returnParams": [
                            {
                                "name": "",
                                "type": "uint256",
                                "value": "54,420,705,293,080,899,519,111"
                            }
                        ],
                        "signature": "totalSupply()"
                    },
                    "errorInfo": "",
                    "fromAddress": "0x6b0e6b4c0ee4b6460e5cd35a3625a172fe9d3930",
                    "gasUsed": 432,
                    "id": 29,
                    "methodDecoded": true,
                    "operation": "STATICCALL",
                    "output": "0x000000000000000000000000000000000000000000000b8627001acd935e8287",
                    "revert": false,
                    "revertMessage": "",
                    "selector": "0x18160ddd",
                    "status": true,
                    "value": "0"
                },
                "nodeType": 0
            },
            "3": {
                "invocation": {
                    "address": "0x6b0e6b4c0ee4b6460e5cd35a3625a172fe9d3930",
                    "callData": "0x00000000000000000000000037922c69b08babcceae735a31235c81f1d1e8e43",
                    "decodedMethod": {
                        "callParams": [
                            {
                                "name": "_underlyingAsset",
                                "type": "address",
                                "value": "0x37922c69b08babcceae735a31235c81f1d1e8e43"
                            }
                        ],
                        "constructorArguments": "",
                        "name": "getExchangeRate",
                        "returnParams": [
                            {
                                "name": "rate",
                                "type": "uint256",
                                "value": "1,169,036,477,750"
                            }
                        ],
                        "signature": "getExchangeRate(address)"
                    },
                    "errorInfo": "",
                    "fromAddress": "0x685d32f394a5f03e78a1a0f6a91b4e2bf6f52cfe",
                    "gasUsed": 23860,
                    "id": 3,
                    "methodDecoded": true,
                    "operation": "CALL",
                    "output": "0x0000000000000000000000000000000000000000000000000000011030010536",
                    "revert": false,
                    "revertMessage": "",
                    "selector": "0xefb7601d",
                    "status": true,
                    "value": "0"
                },
                "nodeType": 0
            },
            "30": {
                "invocation": {
                    "address": "0xe8a6916576832aa5504092c1cccc46e3bb9491d6",
                    "callData": "0x",
                    "decodedMethod": {
                        "callParams": [],
                        "constructorArguments": "",
                        "name": "interestUpdateRateDeltaForMarket",
                        "returnParams": [
                            {
                                "name": "",
                                "type": "uint256",
                                "value": "36,743,919"
                            }
                        ],
                        "signature": "interestUpdateRateDeltaForMarket()"
                    },
                    "errorInfo": "",
                    "fromAddress": "0x685d32f394a5f03e78a1a0f6a91b4e2bf6f52cfe",
                    "gasUsed": 366,
                    "id": 30,
                    "methodDecoded": true,
                    "operation": "STATICCALL",
                    "output": "0x000000000000000000000000000000000000000000000000000000000230aaef",
                    "revert": false,
                    "revertMessage": "",
                    "selector": "0x99c8054f",
                    "status": true,
                    "value": "0"
                },
                "nodeType": 0
            },
            "31": {
                "invocation": {
                    "address": "0x6b0e6b4c0ee4b6460e5cd35a3625a172fe9d3930",
                    "callData": "0x00000000000000000000000037922c69b08babcceae735a31235c81f1d1e8e43",
                    "decodedMethod": {
                        "callParams": [
                            {
                                "name": "_underlyingAsset",
                                "type": "address",
                                "value": "0x37922c69b08babcceae735a31235c81f1d1e8e43"
                            }
                        ],
                        "constructorArguments": "",
                        "name": "getExchangeRate",
                        "returnParams": [
                            {
                                "name": "rate",
                                "type": "uint256",
                                "value": "1,169,036,477,750"
                            }
                        ],
                        "signature": "getExchangeRate(address)"
                    },
                    "errorInfo": "",
                    "fromAddress": "0x685d32f394a5f03e78a1a0f6a91b4e2bf6f52cfe",
                    "gasUsed": 12560,
                    "id": 31,
                    "methodDecoded": true,
                    "operation": "CALL",
                    "output": "0x0000000000000000000000000000000000000000000000000000011030010536",
                    "revert": false,
                    "revertMessage": "",
                    "selector": "0xefb7601d",
                    "status": true,
                    "value": "0"
                },
                "nodeType": 0
            },
            "32": {
                "invocation": {
                    "address": "0x37922c69b08babcceae735a31235c81f1d1e8e43",
                    "callData": "0x",
                    "decodedMethod": {
                        "callParams": [],
                        "constructorArguments": "",
                        "name": "getReserves",
                        "returnParams": [
                            {
                                "name": "_reserve0",
                                "type": "uint112",
                                "value": "3,389,117,189,364,106,124,047,063"
                            },
                            {
                                "name": "_reserve1",
                                "type": "uint112",
                                "value": "987,866,409,036,814,066,917"
                            },
                            {
                                "name": "_blockTimestampLast",
                                "type": "uint32",
                                "value": "1,629,971,660"
                            }
                        ],
                        "signature": "getReserves()"
                    },
                    "errorInfo": "",
                    "fromAddress": "0x6b0e6b4c0ee4b6460e5cd35a3625a172fe9d3930",
                    "gasUsed": 517,
                    "id": 32,
                    "methodDecoded": true,
                    "operation": "STATICCALL",
                    "output": "0x00000000000000000000000000000000000000000002cdac6935b636638fb2d70000000000000000000000000000000000000000000000358d6681141409a4e500000000000000000000000000000000000000000000000000000000612764cc",
                    "revert": false,
                    "revertMessage": "",
                    "selector": "0x0902f1ac",
                    "status": true,
                    "value": "0"
                },
                "nodeType": 0
            },
            "33": {
                "invocation": {
                    "address": "0x37922c69b08babcceae735a31235c81f1d1e8e43",
                    "callData": "0x",
                    "decodedMethod": {
                        "callParams": [],
                        "constructorArguments": "",
                        "name": "totalSupply",
                        "returnParams": [
                            {
                                "name": "",
                                "type": "uint256",
                                "value": "54,420,705,293,080,899,519,111"
                            }
                        ],
                        "signature": "totalSupply()"
                    },
                    "errorInfo": "",
                    "fromAddress": "0x6b0e6b4c0ee4b6460e5cd35a3625a172fe9d3930",
                    "gasUsed": 432,
                    "id": 33,
                    "methodDecoded": true,
                    "operation": "STATICCALL",
                    "output": "0x000000000000000000000000000000000000000000000b8627001acd935e8287",
                    "revert": false,
                    "revertMessage": "",
                    "selector": "0x18160ddd",
                    "status": true,
                    "value": "0"
                },
                "nodeType": 0
            },
            "34": {
                "event": {
                    "contract": "0x685d32f394a5f03e78a1a0f6a91b4e2bf6f52cfe",
                    "decodedLog": {
                        "name": "Transfer",
                        "params": [
                            {
                                "name": "from",
                                "type": "address",
                                "value": "0xf6705d78871e19db316a36073835080ed1a52d7e"
                            },
                            {
                                "name": "to",
                                "type": "address",
                                "value": "0xbf95dce39bceabf08d58b613ec77bfdb3baa4e25"
                            },
                            {
                                "decimalAvailable": true,
                                "name": "value",
                                "type": "uint256",
                                "value": "243,829,655,373,173,047,892"
                            }
                        ],
                        "signature": "Transfer(address,address,uint256)"
                    },
                    "id": 34,
                    "logData": "0x00000000000000000000000000000000000000000000000d37d0f3b26fe54254",
                    "logDecoded": true,
                    "operation": "EVENT",
                    "revert": false,
                    "status": true,
                    "topics": [
                        "0xddf252ad1be2c89b69c2b068fc378daa952ba7f163c4a11628f55a4df523b3ef",
                        "0x000000000000000000000000f6705d78871e19db316a36073835080ed1a52d7e",
                        "0x000000000000000000000000bf95dce39bceabf08d58b613ec77bfdb3baa4e25"
                    ]
                },
                "nodeType": 1
            },
            "4": {
                "invocation": {
                    "address": "0x37922c69b08babcceae735a31235c81f1d1e8e43",
                    "callData": "0x",
                    "decodedMethod": {
                        "callParams": [],
                        "constructorArguments": "",
                        "name": "getReserves",
                        "returnParams": [
                            {
                                "name": "_reserve0",
                                "type": "uint112",
                                "value": "3,389,117,189,364,106,124,047,063"
                            },
                            {
                                "name": "_reserve1",
                                "type": "uint112",
                                "value": "987,866,409,036,814,066,917"
                            },
                            {
                                "name": "_blockTimestampLast",
                                "type": "uint32",
                                "value": "1,629,971,660"
                            }
                        ],
                        "signature": "getReserves()"
                    },
                    "errorInfo": "",
                    "fromAddress": "0x6b0e6b4c0ee4b6460e5cd35a3625a172fe9d3930",
                    "gasUsed": 2517,
                    "id": 4,
                    "methodDecoded": true,
                    "operation": "STATICCALL",
                    "output": "0x00000000000000000000000000000000000000000002cdac6935b636638fb2d70000000000000000000000000000000000000000000000358d6681141409a4e500000000000000000000000000000000000000000000000000000000612764cc",
                    "revert": false,
                    "revertMessage": "",
                    "selector": "0x0902f1ac",
                    "status": true,
                    "value": "0"
                },
                "nodeType": 0
            },
            "5": {
                "invocation": {
                    "address": "0x37922c69b08babcceae735a31235c81f1d1e8e43",
                    "callData": "0x",
                    "decodedMethod": {
                        "callParams": [],
                        "constructorArguments": "",
                        "name": "totalSupply",
                        "returnParams": [
                            {
                                "name": "",
                                "type": "uint256",
                                "value": "54,420,705,293,080,899,519,111"
                            }
                        ],
                        "signature": "totalSupply()"
                    },
                    "errorInfo": "",
                    "fromAddress": "0x6b0e6b4c0ee4b6460e5cd35a3625a172fe9d3930",
                    "gasUsed": 2432,
                    "id": 5,
                    "methodDecoded": true,
                    "operation": "STATICCALL",
                    "output": "0x000000000000000000000000000000000000000000000b8627001acd935e8287",
                    "revert": false,
                    "revertMessage": "",
                    "selector": "0x18160ddd",
                    "status": true,
                    "value": "0"
                },
                "nodeType": 0
            },
            "6": {
                "invocation": {
                    "address": "0x1b6d3e5da9004668e14ca39d1553e9a46fe842b3",
                    "callData": "0x53757368697377617053696d706c65000000000000000000000000000000000000000000000000000000000037922c69b08babcceae735a31235c81f1d1e8e430000000000000000000000000000000000000000000000000000000063acd880000000000000000000000000685d32f394a5f03e78a1a0f6a91b4e2bf6f52cfe",
                    "decodedMethod": {
                        "callParams": [
                            {
                                "name": "_forgeId",
                                "type": "bytes32",
                                "value": "0x53757368697377617053696d706c650000000000000000000000000000000000"
                            },
                            {
                                "name": "_underlyingAsset",
                                "type": "address",
                                "value": "0x37922c69b08babcceae735a31235c81f1d1e8e43"
                            },
                            {
                                "name": "_expiry",
                                "type": "uint256",
                                "value": "1,672,272,000"
                            },
                            {
                                "name": "_user",
                                "type": "address",
                                "value": "0x685d32f394a5f03e78a1a0f6a91b4e2bf6f52cfe"
                            }
                        ],
                        "constructorArguments": "",
                        "name": "redeemDueInterests",
                        "returnParams": [
                            {
                                "name": "interests",
                                "type": "uint256",
                                "value": "2,640,882,988,975,387,989"
                            }
                        ],
                        "signature": "redeemDueInterests(bytes32,address,uint256,address)"
                    },
                    "errorInfo": "",
                    "fromAddress": "0x685d32f394a5f03e78a1a0f6a91b4e2bf6f52cfe",
                    "gasUsed": 113049,
                    "id": 6,
                    "methodDecoded": true,
                    "operation": "CALL",
                    "output": "0x00000000000000000000000000000000000000000000000024a64d16233ff555",
                    "revert": false,
                    "revertMessage": "",
                    "selector": "0x1251ae7c",
                    "status": true,
                    "value": "0"
                },
                "nodeType": 0
            },
            "7": {
                "invocation": {
                    "address": "0xe8a6916576832aa5504092c1cccc46e3bb9491d6",
                    "callData": "0x000000000000000000000000685d32f394a5f03e78a1a0f6a91b4e2bf6f52cfe",
                    "decodedMethod": {
                        "callParams": [
                            {
                                "name": "",
                                "type": "address",
                                "value": "0x685d32f394a5f03e78a1a0f6a91b4e2bf6f52cfe"
                            }
                        ],
                        "constructorArguments": "",
                        "name": "isMarket",
                        "returnParams": [
                            {
                                "name": "",
                                "type": "bool",
                                "value": true
                            }
                        ],
                        "signature": "isMarket(address)"
                    },
                    "errorInfo": "",
                    "fromAddress": "0x1b6d3e5da9004668e14ca39d1553e9a46fe842b3",
                    "gasUsed": 2570,
                    "id": 7,
                    "methodDecoded": true,
                    "operation": "STATICCALL",
                    "output": "0x0000000000000000000000000000000000000000000000000000000000000001",
                    "revert": false,
                    "revertMessage": "",
                    "selector": "0x6ec934da",
                    "status": true,
                    "value": "0"
                },
                "nodeType": 0
            },
            "8": {
                "invocation": {
                    "address": "0xe8a6916576832aa5504092c1cccc46e3bb9491d6",
                    "callData": "0x53757368697377617053696d706c65000000000000000000000000000000000000000000000000000000000037922c69b08babcceae735a31235c81f1d1e8e430000000000000000000000000000000000000000000000000000000063acd880",
                    "decodedMethod": {
                        "callParams": [
                            {
                                "name": "_forgeId",
                                "type": "bytes32",
                                "value": "0x53757368697377617053696d706c650000000000000000000000000000000000"
                            },
                            {
                                "name": "_underlyingAsset",
                                "type": "address",
                                "value": "0x37922c69b08babcceae735a31235c81f1d1e8e43"
                            },
                            {
                                "name": "_expiry",
                                "type": "uint256",
                                "value": "1,672,272,000"
                            }
                        ],
                        "constructorArguments": "",
                        "name": "isValidXYT",
                        "returnParams": [
                            {
                                "name": "",
                                "type": "bool",
                                "value": true
                            }
                        ],
                        "signature": "isValidXYT(bytes32,address,uint256)"
                    },
                    "errorInfo": "",
                    "fromAddress": "0x1b6d3e5da9004668e14ca39d1553e9a46fe842b3",
                    "gasUsed": 2674,
                    "id": 8,
                    "methodDecoded": true,
                    "operation": "STATICCALL",
                    "output": "0x0000000000000000000000000000000000000000000000000000000000000001",
                    "revert": false,
                    "revertMessage": "",
                    "selector": "0x94c0c1e0",
                    "status": true,
                    "value": "0"
                },
                "nodeType": 0
            },
            "9": {
                "invocation": {
                    "address": "0xe8a6916576832aa5504092c1cccc46e3bb9491d6",
                    "callData": "0x53757368697377617053696d706c650000000000000000000000000000000000",
                    "decodedMethod": {
                        "callParams": [
                            {
                                "name": "",
                                "type": "bytes32",
                                "value": "0x53757368697377617053696d706c650000000000000000000000000000000000"
                            }
                        ],
                        "constructorArguments": "",
                        "name": "getForgeAddress",
                        "returnParams": [
                            {
                                "name": "",
                                "type": "address",
                                "value": "0x6b0e6b4c0ee4b6460e5cd35a3625a172fe9d3930"
                            }
                        ],
                        "signature": "getForgeAddress(bytes32)"
                    },
                    "errorInfo": "",
                    "fromAddress": "0x1b6d3e5da9004668e14ca39d1553e9a46fe842b3",
                    "gasUsed": 2535,
                    "id": 9,
                    "methodDecoded": true,
                    "operation": "STATICCALL",
                    "output": "0x0000000000000000000000006b0e6b4c0ee4b6460e5cd35a3625a172fe9d3930",
                    "revert": false,
                    "revertMessage": "",
                    "selector": "0xa22d8024",
                    "status": true,
                    "value": "0"
                },
                "nodeType": 0
            }
        },
        "gasFlame": [
            {
                "children": [
                    {
                        "children": [
                            {
                                "children": [],
                                "depth": 0,
                                "name": "Initial Gas",
                                "value": 21668
                            },
                            {
                                "children": [
                                    {
                                        "children": [],
                                        "depth": 1,
                                        "name": "checkMarketStatus",
                                        "value": 4963
                                    },
                                    {
                                        "children": [],
                                        "depth": 1,
                                        "name": "interestUpdateRateDeltaForMarket",
                                        "value": 2366
                                    },
                                    {
                                        "children": [
                                            {
                                                "children": [],
                                                "depth": 2,
                                                "name": "getReserves",
                                                "value": 2517
                                            },
                                            {
                                                "children": [],
                                                "depth": 2,
                                                "name": "totalSupply",
                                                "value": 2432
                                            }
                                        ],
                                        "depth": 1,
                                        "name": "getExchangeRate",
                                        "value": 23860
                                    },
                                    {
                                        "children": [
                                            {
                                                "children": [],
                                                "depth": 2,
                                                "name": "isMarket",
                                                "value": 2570
                                            },
                                            {
                                                "children": [],
                                                "depth": 2,
                                                "name": "isValidXYT",
                                                "value": 2674
                                            },
                                            {
                                                "children": [],
                                                "depth": 2,
                                                "name": "getForgeAddress",
                                                "value": 2535
                                            },
                                            {
                                                "children": [
                                                    {
                                                        "children": [],
                                                        "depth": 3,
                                                        "name": "checkYieldContractStatus",
                                                        "value": 3086
                                                    },
                                                    {
                                                        "children": [],
                                                        "depth": 3,
                                                        "name": "getPendleYieldTokens",
                                                        "value": 3097
                                                    },
                                                    {
                                                        "children": [],
                                                        "depth": 3,
                                                        "name": "balanceOf",
                                                        "value": 2556
                                                    },
                                                    {
                                                        "children": [],
                                                        "depth": 3,
                                                        "name": "getReserves",
                                                        "value": 517
                                                    },
                                                    {
                                                        "children": [],
                                                        "depth": 3,
                                                        "name": "totalSupply",
                                                        "value": 432
                                                    },
                                                    {
                                                        "children": [],
                                                        "depth": 3,
                                                        "name": "forgeFee",
                                                        "value": 2433
                                                    },
                                                    {
                                                        "children": [],
                                                        "depth": 3,
                                                        "name": "getPendleYieldTokens",
                                                        "value": 1097
                                                    },
                                                    {
                                                        "children": [],
                                                        "depth": 3,
                                                        "name": "totalSupply",
                                                        "value": 2366
                                                    },
                                                    {
                                                        "children": [],
                                                        "depth": 3,
                                                        "name": "getReserves",
                                                        "value": 517
                                                    },
                                                    {
                                                        "children": [],
                                                        "depth": 3,
                                                        "name": "totalSupply",
                                                        "value": 432
                                                    },
                                                    {
                                                        "children": [
                                                            {
                                                                "children": [],
                                                                "depth": 4,
                                                                "name": "balanceOf",
                                                                "value": 2492
                                                            },
                                                            {
                                                                "children": [],
                                                                "depth": 4,
                                                                "name": "transfer",
                                                                "value": 10776
                                                            }
                                                        ],
                                                        "depth": 3,
                                                        "name": "0x91680e5f",
                                                        "value": 15675
                                                    }
                                                ],
                                                "depth": 2,
                                                "name": "redeemDueInterests",
                                                "value": 96530
                                            }
                                        ],
                                        "depth": 1,
                                        "name": "redeemDueInterests",
                                        "value": 113049
                                    },
                                    {
                                        "children": [],
                                        "depth": 1,
                                        "name": "balanceOf",
                                        "value": 492
                                    },
                                    {
                                        "children": [
                                            {
                                                "children": [],
                                                "depth": 2,
                                                "name": "getReserves",
                                                "value": 517
                                            },
                                            {
                                                "children": [],
                                                "depth": 2,
                                                "name": "totalSupply",
                                                "value": 432
                                            }
                                        ],
                                        "depth": 1,
                                        "name": "getExchangeRate",
                                        "value": 12560
                                    },
                                    {
                                        "children": [],
                                        "depth": 1,
                                        "name": "interestUpdateRateDeltaForMarket",
                                        "value": 366
                                    },
                                    {
                                        "children": [
                                            {
                                                "children": [],
                                                "depth": 2,
                                                "name": "getReserves",
                                                "value": 517
                                            },
                                            {
                                                "children": [],
                                                "depth": 2,
                                                "name": "totalSupply",
                                                "value": 432
                                            }
                                        ],
                                        "depth": 1,
                                        "name": "getExchangeRate",
                                        "value": 12560
                                    }
                                ],
                                "depth": 0,
                                "name": "Executed Gas",
                                "value": 284957
                            }
                        ],
                        "depth": -1,
                        "name": "Actual Gas Used",
                        "value": 294225
                    },
                    {
                        "children": [],
                        "depth": -1,
                        "name": "Refunded Gas",
                        "value": 12400
                    }
                ],
                "depth": -2,
                "name": "Total Gas",
                "value": 306625
            }
        ],
        "isConfirmed": true,
        "mainTrace": [
            {
                "children": [
                    {
                        "children": [
                            {
                                "children": [],
                                "depth": 1,
                                "id": 1,
                                "order": 1
                            },
                            {
                                "children": [],
                                "depth": 1,
                                "id": 2,
                                "order": 2
                            },
                            {
                                "children": [
                                    {
                                        "children": [],
                                        "depth": 2,
                                        "id": 4,
                                        "order": 4
                                    },
                                    {
                                        "children": [],
                                        "depth": 2,
                                        "id": 5,
                                        "order": 5
                                    }
                                ],
                                "depth": 1,
                                "id": 3,
                                "order": 3
                            },
                            {
                                "children": [
                                    {
                                        "children": [],
                                        "depth": 2,
                                        "id": 7,
                                        "order": 7
                                    },
                                    {
                                        "children": [],
                                        "depth": 2,
                                        "id": 8,
                                        "order": 8
                                    },
                                    {
                                        "children": [],
                                        "depth": 2,
                                        "id": 9,
                                        "order": 9
                                    },
                                    {
                                        "children": [
                                            {
                                                "children": [],
                                                "depth": 3,
                                                "id": 11,
                                                "order": 11
                                            },
                                            {
                                                "children": [],
                                                "depth": 3,
                                                "id": 12,
                                                "order": 12
                                            },
                                            {
                                                "children": [],
                                                "depth": 3,
                                                "id": 13,
                                                "order": 13
                                            },
                                            {
                                                "children": [],
                                                "depth": 3,
                                                "id": 14,
                                                "order": 14
                                            },
                                            {
                                                "children": [],
                                                "depth": 3,
                                                "id": 15,
                                                "order": 15
                                            },
                                            {
                                                "children": [],
                                                "depth": 3,
                                                "id": 16,
                                                "order": 16
                                            },
                                            {
                                                "children": [],
                                                "depth": 3,
                                                "id": 17,
                                                "order": 17
                                            },
                                            {
                                                "children": [],
                                                "depth": 3,
                                                "id": 18,
                                                "order": 18
                                            },
                                            {
                                                "children": [],
                                                "depth": 3,
                                                "id": 19,
                                                "order": 19
                                            },
                                            {
                                                "children": [],
                                                "depth": 3,
                                                "id": 20,
                                                "order": 20
                                            },
                                            {
                                                "children": [],
                                                "depth": 3,
                                                "id": 21,
                                                "order": 21
                                            },
                                            {
                                                "children": [
                                                    {
                                                        "children": [],
                                                        "depth": 4,
                                                        "id": 23,
                                                        "order": 23
                                                    },
                                                    {
                                                        "children": [
                                                            {
                                                                "children": [],
                                                                "depth": 5,
                                                                "id": 25,
                                                                "order": 25
                                                            }
                                                        ],
                                                        "depth": 4,
                                                        "id": 24,
                                                        "order": 24
                                                    }
                                                ],
                                                "depth": 3,
                                                "id": 22,
                                                "order": 22
                                            }
                                        ],
                                        "depth": 2,
                                        "id": 10,
                                        "order": 10
                                    }
                                ],
                                "depth": 1,
                                "id": 6,
                                "order": 6
                            },
                            {
                                "children": [],
                                "depth": 1,
                                "id": 26,
                                "order": 26
                            },
                            {
                                "children": [
                                    {
                                        "children": [],
                                        "depth": 2,
                                        "id": 28,
                                        "order": 28
                                    },
                                    {
                                        "children": [],
                                        "depth": 2,
                                        "id": 29,
                                        "order": 29
                                    }
                                ],
                                "depth": 1,
                                "id": 27,
                                "order": 27
                            },
                            {
                                "children": [],
                                "depth": 1,
                                "id": 30,
                                "order": 30
                            },
                            {
                                "children": [
                                    {
                                        "children": [],
                                        "depth": 2,
                                        "id": 32,
                                        "order": 32
                                    },
                                    {
                                        "children": [],
                                        "depth": 2,
                                        "id": 33,
                                        "order": 33
                                    }
                                ],
                                "depth": 1,
                                "id": 31,
                                "order": 31
                            },
                            {
                                "children": [],
                                "depth": 1,
                                "id": 34,
                                "order": 34
                            }
                        ],
                        "depth": 0,
                        "id": 0,
                        "order": 0
                    }
                ],
                "depth": -1,
                "id": -1,
                "order": -1
            }
        ],
        "mainTraceNodeCount": 35,
        "parentIdMap": {
            "0": -1,
            "1": 0,
            "10": 6,
            "11": 10,
            "12": 10,
            "13": 10,
            "14": 10,
            "15": 10,
            "16": 10,
            "17": 10,
            "18": 10,
            "19": 10,
            "2": 0,
            "20": 10,
            "21": 10,
            "22": 10,
            "23": 22,
            "24": 22,
            "25": 24,
            "26": 0,
            "27": 0,
            "28": 27,
            "29": 27,
            "3": 0,
            "30": 0,
            "31": 0,
            "32": 31,
            "33": 31,
            "34": 0,
            "4": 3,
            "5": 3,
            "6": 0,
            "7": 6,
            "8": 6,
            "9": 6
        },
        "tidyTrace": [
            {
                "children": [
                    {
                        "children": [
                            {
                                "children": [],
                                "depth": 1,
                                "id": 1,
                                "order": 1
                            },
                            {
                                "children": [],
                                "depth": 1,
                                "id": 3,
                                "order": 3
                            },
                            {
                                "children": [
                                    {
                                        "children": [
                                            {
                                                "children": [],
                                                "depth": 3,
                                                "id": 11,
                                                "order": 11
                                            },
                                            {
                                                "children": [],
                                                "depth": 3,
                                                "id": 17,
                                                "order": 17
                                            },
                                            {
                                                "children": [
                                                    {
                                                        "children": [
                                                            {
                                                                "children": [],
                                                                "depth": 5,
                                                                "id": 25,
                                                                "order": 25
                                                            }
                                                        ],
                                                        "depth": 4,
                                                        "id": 24,
                                                        "order": 24
                                                    }
                                                ],
                                                "depth": 3,
                                                "id": 22,
                                                "order": 22
                                            }
                                        ],
                                        "depth": 2,
                                        "id": 10,
                                        "order": 10
                                    }
                                ],
                                "depth": 1,
                                "id": 6,
                                "order": 6
                            },
                            {
                                "children": [],
                                "depth": 1,
                                "id": 27,
                                "order": 27
                            },
                            {
                                "children": [],
                                "depth": 1,
                                "id": 31,
                                "order": 31
                            },
                            {
                                "children": [],
                                "depth": 1,
                                "id": 34,
                                "order": 34
                            }
                        ],
                        "depth": 0,
                        "id": 0,
                        "order": 0
                    }
                ],
                "depth": -1,
                "id": -1,
                "order": -1
            }
        ],
        "tidyTraceNodeCount": 13
    },
    "state_change": {
        "stateChanges": [
            {
                "address": "0x37922c69b08babcceae735a31235c81f1d1e8e43",
                "erc": "ERC-20",
                "slots": [
                    {
                        "current": "0x0000000000000000000000000000000000000000000000060ed8ac13cb441f14",
                        "key": "0x4f55b60cecef6259756e5a23ce47e54bab4ffda230de998a24126680df8c6e25",
                        "prev": "0x000000000000000000000000000000000000000000000005ea325efda80429bf"
                    },
                    {
                        "current": "0x0000000000000000000000000000000000000000000008bbc9caff0e6ddf2320",
                        "key": "0xe87afef9794ecd7afbeaa82f650db64ff34fbe3f05dbabf0a3acd693cdfe0663",
                        "prev": "0x0000000000000000000000000000000000000000000008bbee714c24911f1875"
                    }
                ],
                "storageVariables": [
                    {
                        "name": "balanceOf",
                        "type": "mapping(address => uint256)",
                        "value": {
                            "pairs": [
                                {
                                    "key": "0x685d32f394a5f03e78a1a0f6a91b4e2bf6f52cfe",
                                    "value": {
                                        "current": "111750258554772397844",
                                        "prev": "109109375565797009855",
                                        "typeTag": 1
                                    }
                                },
                                {
                                    "key": "0xbfd6b497dca3e5d1fa4bbd52996d400980c29eb7",
                                    "value": {
                                        "current": "41243013719525204894496",
                                        "prev": "41245654602514180282485",
                                        "typeTag": 1
                                    }
                                }
                            ],
                            "typeTag": 4
                        }
                    }
                ]
            },
            {
                "address": "0x685d32f394a5f03e78a1a0f6a91b4e2bf6f52cfe",
                "erc": "ERC-20",
                "slots": [
                    {
                        "current": "0x0000000000000000000000000000000000000000000000000000000000000000",
                        "key": "0x817f4162cc84c1b49f3bab1812d8d6bbad2605415eaa639b2a67785b7e9a84c2",
                        "prev": "0x00000000000000000000000000000000000000000000000d37d0f3b26fe54254"
                    },
                    {
                        "current": "0x00000000000000000000000000000000000000000000000d37d0f3b26fe54254",
                        "key": "0xdc4a5e1f7611822613bd7030e08f04578930d60455e8ef8372e3b3b0d2a11f5c",
                        "prev": "0x0000000000000000000000000000000000000000000000000000000000000000"
                    },
                    {
                        "current": "0x0000000000000000000000000000000000000000000000000000011030010536",
                        "key": "0x0000000000000000000000000000000000000000000000000000000000000011",
                        "prev": "0x000000000000000000000000000000000000000000000000000001102b6df278"
                    },
                    {
                        "current": "0x00000000000000000000000000000000000000000000000001998edca9ecaa29",
                        "key": "0x0000000000000000000000000000000000000000000000000000000000000008",
                        "prev": "0x0000000000000000000000000000000000000000000000000195c8a28bda94fd"
                    },
                    {
                        "current": "0x0000000000000000000000000000000000000000000000060ed8ac13cb441f14",
                        "key": "0x0000000000000000000000000000000000000000000000000000000000000009",
                        "prev": "0x000000000000000000000000000000000000000000000005ea325efda80429bf"
                    },
                    {
                        "current": "0x0000000000000000000000000000000000000000000000000044aa09378a54b4",
                        "key": "0x41ba734c01971fa05f99c82a057e9a628c01f8b9648fbc5fd1f59b1891c368d0",
                        "prev": "0x0000000000000000000000000000000000000000000000000000000000000000"
                    },
                    {
                        "current": "0x00000000000000000000000000000000000000000000000001998edca9ecaa29",
                        "key": "0xbb6a27d78e81bbcaf76b168fa25a46645bcc9809d88112f119f5fdb7fb7cdc73",
                        "prev": "0x000000000000000000000000000000000000000000000000017d65b74575bfc4"
                    },
                    {
                        "current": "0x00000000000000000000000000000000000000000000000001998edca9ecaa29",
                        "key": "0xa69b841661bca76467e8df10f0ee134203e55801081a20d2d219b7bbd528b30a",
                        "prev": "0x0000000000000000000000000000000000000000000000000000000000000000"
                    }
                ],
                "storageVariables": [
                    {
                        "name": "globalLastExchangeRate",
                        "type": "uint256",
                        "value": {
                            "current": "1169036477750",
                            "prev": "1168959730296",
                            "typeTag": 1
                        }
                    },
                    {
                        "name": "paramL",
                        "type": "uint256",
                        "value": {
                            "current": "115280343869467177",
                            "prev": "114217966024430845",
                            "typeTag": 1
                        }
                    },
                    {
                        "name": "lastNYield",
                        "type": "uint256",
                        "value": {
                            "current": "111750258554772397844",
                            "prev": "109109375565797009855",
                            "typeTag": 1
                        }
                    },
                    {
                        "name": "dueInterests",
                        "type": "mapping(address => uint256)",
                        "value": {
                            "pairs": [
                                {
                                    "key": "0xf6705d78871e19db316a36073835080ed1a52d7e",
                                    "value": {
                                        "current": "19327254979564724",
                                        "prev": "0",
                                        "typeTag": 1
                                    }
                                }
                            ],
                            "typeTag": 4
                        }
                    },
                    {
                        "name": "lastParamL",
                        "type": "mapping(address => uint256)",
                        "value": {
                            "pairs": [
                                {
                                    "key": "0xbf95dce39bceabf08d58b613ec77bfdb3baa4e25",
                                    "value": {
                                        "current": "115280343869467177",
                                        "prev": "0",
                                        "typeTag": 1
                                    }
                                },
                                {
                                    "key": "0xf6705d78871e19db316a36073835080ed1a52d7e",
                                    "value": {
                                        "current": "115280343869467177",
                                        "prev": "107353803945525188",
                                        "typeTag": 1
                                    }
                                }
                            ],
                            "typeTag": 4
                        }
                    },
                    {
                        "name": "_balances",
                        "type": "mapping(address => uint256)",
                        "value": {
                            "pairs": [
                                {
                                    "key": "0xbf95dce39bceabf08d58b613ec77bfdb3baa4e25",
                                    "value": {
                                        "current": "243829655373173047892",
                                        "prev": "0",
                                        "typeTag": 1
                                    }
                                },
                                {
                                    "key": "0xf6705d78871e19db316a36073835080ed1a52d7e",
                                    "value": {
                                        "current": "0",
                                        "prev": "243829655373173047892",
                                        "typeTag": 1
                                    }
                                }
                            ],
                            "typeTag": 4
                        }
                    }
                ]
            },
            {
                "address": "0x6b0e6b4c0ee4b6460e5cd35a3625a172fe9d3930",
                "erc": "",
                "slots": [
                    {
                        "current": "0x0000000000000000000000000000000000000000000000000000011030010536",
                        "key": "0x98cbd9949211d9cf301874a273713b605b8eba03fd3da31558050c7cdc9f45b8",
                        "prev": "0x000000000000000000000000000000000000000000000000000001102ebc260a"
                    },
                    {
                        "current": "0x0000000000000000000000000000000000000000000000000000011030010536",
                        "key": "0xa2489f67511ae2dc38ddf738826e0ae04e56cf9f509f7e7b031eb0fa47428044",
                        "prev": "0x000000000000000000000000000000000000000000000000000001102ebc260a"
                    },
                    {
                        "current": "0x0000000000000000000000000000000000000000000000000000011030010536",
                        "key": "0x3e5a8314166bb70c18bc1fd38902fba49a22dff7e51ea8d61640e8d5b61f3ccb",
                        "prev": "0x000000000000000000000000000000000000000000000000000001102ebc260a"
                    },
                    {
                        "current": "0x0000000000000000000000000000000000000000000000000000000000000000",
                        "key": "0xae77c5395d0580c1ecd3436ef7b7561bc93f912654cb4c2989be54e23d797180",
                        "prev": "0x0000000000000000000000000000000000000000000000001b8509af9c90052a"
                    },
                    {
                        "current": "0x0000000000000000000000000000000000000000000000005ac29e73f4287f1a",
                        "key": "0x9cb5fca0d7f08d38d5a2e57fca53f96543926ad5361be36cb4d6b73caaf4c782",
                        "prev": "0x00000000000000000000000000000000000000000000000059a071d78ed26a20"
                    }
                ],
                "storageVariables": [
                    {
                        "name": "lastRate",
                        "type": "mapping(address => mapping(uint256 => mapping(address => uint256)))",
                        "value": {
                            "pairs": [
                                {
                                    "key": "0x37922c69b08babcceae735a31235c81f1d1e8e43",
                                    "value": {
                                        "pairs": [
                                            {
                                                "key": "1672272000",
                                                "value": {
                                                    "pairs": [
                                                        {
                                                            "key": "0x685d32f394a5f03e78a1a0f6a91b4e2bf6f52cfe",
                                                            "value": {
                                                                "current": "1169036477750",
                                                                "prev": "1169015186954",
                                                                "typeTag": 1
                                                            }
                                                        }
                                                    ],
                                                    "typeTag": 4
                                                }
                                            }
                                        ],
                                        "typeTag": 4
                                    }
                                }
                            ],
                            "typeTag": 4
                        }
                    },
                    {
                        "name": "dueInterests",
                        "type": "mapping(address => mapping(uint256 => mapping(address => uint256)))",
                        "value": {
                            "pairs": [
                                {
                                    "key": "0x37922c69b08babcceae735a31235c81f1d1e8e43",
                                    "value": {
                                        "pairs": [
                                            {
                                                "key": "1672272000",
                                                "value": {
                                                    "pairs": [
                                                        {
                                                            "key": "0x685d32f394a5f03e78a1a0f6a91b4e2bf6f52cfe",
                                                            "value": {
                                                                "current": "0",
                                                                "prev": "1983001860777182506",
                                                                "typeTag": 1
                                                            }
                                                        }
                                                    ],
                                                    "typeTag": 4
                                                }
                                            }
                                        ],
                                        "typeTag": 4
                                    }
                                }
                            ],
                            "typeTag": 4
                        }
                    },
                    {
                        "name": "totalFee",
                        "type": "mapping(address => mapping(uint256 => uint256))",
                        "value": {
                            "pairs": [
                                {
                                    "key": "0x37922c69b08babcceae735a31235c81f1d1e8e43",
                                    "value": {
                                        "pairs": [
                                            {
                                                "key": "1672272000",
                                                "value": {
                                                    "current": "6539963829750103834",
                                                    "prev": "6458287036277352992",
                                                    "typeTag": 1
                                                }
                                            }
                                        ],
                                        "typeTag": 4
                                    }
                                }
                            ],
                            "typeTag": 4
                        }
                    },
                    {
                        "name": "lastRateForUnderlyingAsset",
                        "type": "mapping(address => uint256)",
                        "value": {
                            "pairs": [
                                {
                                    "key": "0x37922c69b08babcceae735a31235c81f1d1e8e43",
                                    "value": {
                                        "current": "1169036477750",
                                        "prev": "1169015186954",
                                        "typeTag": 1
                                    }
                                }
                            ],
                            "typeTag": 4
                        }
                    },
                    {
                        "name": "lastRateBeforeExpiry",
                        "type": "mapping(address => mapping(uint256 => uint256))",
                        "value": {
                            "pairs": [
                                {
                                    "key": "0x37922c69b08babcceae735a31235c81f1d1e8e43",
                                    "value": {
                                        "pairs": [
                                            {
                                                "key": "1672272000",
                                                "value": {
                                                    "current": "1169036477750",
                                                    "prev": "1169015186954",
                                                    "typeTag": 1
                                                }
                                            }
                                        ],
                                        "typeTag": 4
                                    }
                                }
                            ],
                            "typeTag": 4
                        }
                    }
                ]
            }
        ]
    }
}