{
    "balance_change": {
        "balanceChanges": [
            {
                "account": "0xbb0b4783f4af1ddf638407580d2a15c19c7b5a03",
                "assets": [
                    {
                        "address": "0x96a65609a7b84e8842732deb08f56c3e21ac6f8a",
                        "amount": "1,610,000",
                        "iconUrl": "https://assets.blocksec.com/icon/846987be4459ada8e0b25b3c3e5b2c4f9638a3efc83c40c7b7b147ae4d49d2be.png",
                        "isERC1155": false,
                        "isERC721": false,
                        "sign": false,
                        "value": ""
                    }
                ]
            },
            {
                "account": "0x3f5ce5fbfe3e9af3971dd833d26ba9b5c936f0be",
                "assets": [
                    {
                        "address": "0x96a65609a7b84e8842732deb08f56c3e21ac6f8a",
                        "amount": "1,610,000",
                        "iconUrl": "https://assets.blocksec.com/icon/846987be4459ada8e0b25b3c3e5b2c4f9638a3efc83c40c7b7b147ae4d49d2be.png",
                        "isERC1155": false,
                        "isERC721": false,
                        "sign": true,
                        "value": ""
                    }
                ]
            }
        ]
    },
    "profile": {
        "basic_info": {
            "baseFee": "",
            "blockNumber": 5375652,
            "callData": "0xa9059cbb0000000000000000000000003f5ce5fbfe3e9af3971dd833d26ba9b5c936f0be0000000000000000000000000000000000000000000154ee465ede6a1a400000",
            "debugEnable": true,
            "errorInfo": "",
            "eventCount": 1,
            "feeRecipient": "0x441d463d69cb6eaa851eb6138c3efac95c86d17b",
            "formatValue": "0",
            "gasLimit": 75542,
            "gasPrice": "5",
            "gasUsed": 22771,
            "intTxnCount": 0,
            "internalRevert": false,
            "internalRevertMessage": "",
            "isContractCreation": false,
            "isFlashloan": false,
            "maxFee": "",
            "nonce": 6,
            "overwritedBlockNumber": -1,
            "priorityFee": "",
            "receiver": "0x96a65609a7b84e8842732deb08f56c3e21ac6f8a",
            "revertMessage": "",
            "sender": "0xbb0b4783f4af1ddf638407580d2a15c19c7b5a03",
            "simulationEnable": true,
            "sourceTxnHash": "0x880efee56580d623bbc2e58b9235440875bd25e2dc71118ad755ff7bfd3b0142",
            "status": true,
            "timestamp": "2018-04-03T22:59:12Z",
            "transactionFee": "0.000113855",
            "txnHash": "0x880efee56580d623bbc2e58b9235440875bd25e2dc71118ad755ff7bfd3b0142",
            "txnIndex": 16,
            "type": 0,
            "value": "0"
        },
        "fund_flow": [
            {
                "amount": "1,610,000",
                "from": "0xbb0b4783f4af1ddf638407580d2a15c19c7b5a03",
                "id": 1,
                "isERC1155": false,
                "isERC721": false,
                "isReverted": false,
                "order": 1,
                "to": "0x3f5ce5fbfe3e9af3971dd833d26ba9b5c936f0be",
                "token": "0x96a65609a7b84e8842732deb08f56c3e21ac6f8a"
            }
        ],
        "token_infos": [
            {
                "address": "0x96a65609a7b84e8842732deb08f56c3e21ac6f8a",
                "decimals": 18
            },
            {
                "address": "0xc02aaa39b223fe8d0a0e5c4f27ead9083c756cc2",
                "decimals": 18
            },
            {
                "address": "0xeeeeeeeeeeeeeeeeeeeeeeeeeeeeeeeeeeeeeeee",
                "decimals": 18
            }
        ]
    },
    "address_label": {
        "labels": [
            {
                "address": "0x3f5ce5fbfe3e9af3971dd833d26ba9b5c936f0be",
                "label": "Binance"
            },
            {
                "address": "0x96a65609a7b84e8842732deb08f56c3e21ac6f8a",
                "label": "Centra.tech: CTR Token"
            },
            {
                "address": "0xbb0b4783f4af1ddf638407580d2a15c19c7b5a03",
                "label": "BINANCE"
            },
            {
                "address": "0x0000000000000000000000000000000000000001",
                "label": "Precompiled"
            },
            {
                "address": "0x0000000000000000000000000000000000000002",
                "label": "Precompiled"
            },
            {
                "address": "0x0000000000000000000000000000000000000003",
                "label": "Precompiled"
            },
            {
                "address": "0x0000000000000000000000000000000000000004",
                "label": "Precompiled"
            },
            {
                "address": "0xeeeeeeeeeeeeeeeeeeeeeeeeeeeeeeeeeeeeeeee",
                "label": "Ether"
            }
        ]
    },
    "trace": {
        "accountLabels": null,
        "dataMap": {
            "-1": {
                "invocation": {
                    "address": "0xbb0b4783f4af1ddf638407580d2a15c19c7b5a03",
                    "callData": "",
                    "decodedMethod": null,
                    "errorInfo": "",
                    "fromAddress": "",
                    "gasUsed": 0,
                    "id": -1,
                    "methodDecoded": false,
                    "operation": "",
                    "output": "",
                    "revert": false,
                    "revertMessage": "",
                    "selector": "",
                    "status": false,
                    "value": ""
                },
                "nodeType": 0
            },
            "0": {
                "invocation": {
                    "address": "0x96a65609a7b84e8842732deb08f56c3e21ac6f8a",
                    "callData": "0x0000000000000000000000003f5ce5fbfe3e9af3971dd833d26ba9b5c936f0be0000000000000000000000000000000000000000000154ee465ede6a1a400000",
                    "decodedMethod": {
                        "callParams": [
                            {
                                "name": "_to",
                                "type": "address",
                                "value": "0x3f5ce5fbfe3e9af3971dd833d26ba9b5c936f0be"
                            },
                            {
                                "decimalAvailable": true,
                                "name": "_amount",
                                "type": "uint256",
                                "value": "1,610,000,000,000,000,000,000,000"
                            }
                        ],
                        "constructorArguments": "",
                        "name": "transfer",
                        "returnParams": [
                            {
                                "name": "success",
                                "type": "bool",
                                "value": true
                            }
                        ],
                        "signature": "transfer(address,uint256)"
                    },
                    "errorInfo": "",
                    "fromAddress": "0xbb0b4783f4af1ddf638407580d2a15c19c7b5a03",
                    "gasUsed": 22771,
                    "id": 0,
                    "methodDecoded": true,
                    "operation": "CALL",
                    "output": "0x0000000000000000000000000000000000000000000000000000000000000001",
                    "revert": false,
                    "revertMessage": "",
                    "selector": "0xa9059cbb",
                    "status": true,
                    "value": "0"
                },
                "nodeType": 0
            },
            "1": {
                "event": {
                    "contract": "0x96a65609a7b84e8842732deb08f56c3e21ac6f8a",
                    "decodedLog": {
                        "name": "Transfer",
                        "params": [
                            {
                                "name": "_from",
                                "type": "address",
                                "value": "0xbb0b4783f4af1ddf638407580d2a15c19c7b5a03"
                            },
                            {
                                "name": "_to",
                                "type": "address",
                                "value": "0x3f5ce5fbfe3e9af3971dd833d26ba9b5c936f0be"
                            },
                            {
                                "decimalAvailable": true,
                                "name": "_value",
                                "type": "uint256",
                                "value": "1,610,000,000,000,000,000,000,000"
                            }
                        ],
                        "signature": "Transfer(address,address,uint256)"
                    },
                    "id": 1,
                    "logData": "0x0000000000000000000000000000000000000000000154ee465ede6a1a400000",
                    "logDecoded": true,
                    "operation": "EVENT",
                    "revert": false,
                    "status": true,
                    "topics": [
                        "0xddf252ad1be2c89b69c2b068fc378daa952ba7f163c4a11628f55a4df523b3ef",
                        "0x000000000000000000000000bb0b4783f4af1ddf638407580d2a15c19c7b5a03",
                        "0x0000000000000000000000003f5ce5fbfe3e9af3971dd833d26ba9b5c936f0be"
                    ]
                },
                "nodeType": 1
            }
        },
        "gasFlame": [
            {
                "children": [
                    {
                        "children": [
                            {
                                "children": [],
                                "depth": 0,
                                "name": "Initial Gas",
                                "value": 23384
                            },
                            {
                                "children": [],
                                "depth": 0,
                                "name": "Executed Gas",
                                "value": 14387
                            }
                        ],
                        "depth": -1,
                        "name": "Actual Gas Used",
                        "value": 22771
                    },
                    {
                        "children": [],
                        "depth": -1,
                        "name": "Refunded Gas",
                        "value": 15000
                    }
                ],
                "depth": -2,
                "name": "Total Gas",
                "value": 37771
            }
        ],
        "isConfirmed": true,
        "mainTrace": [
            {
                "children": [
                    {
                        "children": [
                            {
                                "children": [],
                                "depth": 1,
                                "id": 1,
                                "order": 1
                            }
                        ],
                        "depth": 0,
                        "id": 0,
                        "order": 0
                    }
                ],
                "depth": -1,
                "id": -1,
                "order": -1
            }
        ],
        "mainTraceNodeCount": 2,
        "parentIdMap": {
            "0": -1,
            "1": 0
        },
        "tidyTrace": [
            {
                "children": [
                    {
                        "children": [
                            {
                                "children": [],
                                "depth": 1,
                                "id": 1,
                                "order": 1
                            }
                        ],
                        "depth": 0,
                        "id": 0,
                        "order": 0
                    }
                ],
                "depth": -1,
                "id": -1,
                "order": -1
            }
        ],
        "tidyTraceNodeCount": 2
    },
    "state_change": {
        "stateChanges": [
            {
                "address": "0x96a65609a7b84e8842732deb08f56c3e21ac6f8a",
                "erc": "ERC-20",
                "slots": [
                    {
                        "current": "0x0000000000000000000000000000000000000000000000000000000000000000",
                        "key": "0xb793954edbeb94d45f07829bede6e8b63ed88278c05e07decfc7b5c650797102",
                        "prev": "0x0000000000000000000000000000000000000000000154ee465ede6a1a400000"
                    },
                    {
                        "current": "0x0000000000000000000000000000000000000000000691eeff36ab2046678800",
                        "key": "0xca91c3edccd8edfd19e7cfd1dacefb938ab7da5ae20b3fa45a300bb900e54143",
                        "prev": "0x000000000000000000000000000000000000000000053d00b8d7ccb62c278800"
                    }
                ],
                "storageVariables": [
                    {
                        "name": "balances",
                        "type": "mapping(address => uint256)",
                        "value": {
                            "pairs": [
                                {
                                    "key": "0x3f5ce5fbfe3e9af3971dd833d26ba9b5c936f0be",
                                    "value": {
                                        "current": "7942706772867700000000000",
                                        "prev": "6332706772867700000000000",
                                        "typeTag": 1
                                    }
                                },
                                {
                                    "key": "0xbb0b4783f4af1ddf638407580d2a15c19c7b5a03",
                                    "value": {
                                        "current": "0",
                                        "prev": "1610000000000000000000000",
                                        "typeTag": 1
                                    }
                                }
                            ],
                            "typeTag": 4
                        }
                    }
                ]
            }
        ]
    }
}