{
    "balance_change": {
        "balanceChanges": [
            {
                "account": "0xeb844ac3ca84519b798ba22d582d2cecf3bbdccf",
                "assets": [
                    {
                        "address": "0xa80f2c8f61c56546001f5fc2eb8d6e4e72c45d4c",
                        "amount": "200",
                        "iconUrl": "",
                        "isERC1155": false,
                        "isERC721": false,
                        "sign": false,
                        "value": "1200.046296"
                    }
                ]
            },
            {
                "account": "0xe8582bd23fe58e16e5f37ddd7d745629ee6f46cd",
                "assets": [
                    {
                        "address": "0xa80f2c8f61c56546001f5fc2eb8d6e4e72c45d4c",
                        "amount": "200",
                        "iconUrl": "",
                        "isERC1155": false,
                        "isERC721": false,
                        "sign": true,
                        "value": "1200.046296"
                    }
                ]
            }
        ]
    },
    "profile": {
        "basic_info": {
            "baseFee": "44.792196247",
            "blockNumber": 12991498,
            "callData": "0xa9059cbb000000000000000000000000e8582bd23fe58e16e5f37ddd7d745629ee6f46cd00000000000000000000000000000000000000000000000ad78ebc5ac6200000",
            "debugEnable": true,
            "errorInfo": "",
            "eventCount": 1,
            "feeRecipient": "0x99c85bb64564d9ef9a99621301f22c9993cb89e3",
            "formatValue": "0",
            "gasLimit": 35387,
            "gasPrice": "51.738667888",
            "gasUsed": 35387,
            "intTxnCount": 0,
            "internalRevert": false,
            "internalRevertMessage": "",
            "isContractCreation": false,
            "isFlashloan": false,
            "maxFee": "",
            "nonce": 5,
            "overwritedBlockNumber": -1,
            "priorityFee": "",
            "receiver": "0xa80f2c8f61c56546001f5fc2eb8d6e4e72c45d4c",
            "revertMessage": "",
            "sender": "0xeb844ac3ca84519b798ba22d582d2cecf3bbdccf",
            "simulationEnable": true,
            "sourceTxnHash": "0x88b7e422fd68ae097922481db98935b918775e086a145c033e3436be5a0e123f",
            "status": true,
            "timestamp": "2021-08-09T14:32:14Z",
            "transactionFee": "0.001830876240552656",
            "txnHash": "0x88b7e422fd68ae097922481db98935b918775e086a145c033e3436be5a0e123f",
            "txnIndex": 233,
            "type": 0,
            "value": "0"
        },
        "fund_flow": [
            {
                "amount": "200",
                "from": "0xeb844ac3ca84519b798ba22d582d2cecf3bbdccf",
                "id": 1,
                "isERC1155": false,
                "isERC721": false,
                "isReverted": false,
                "order": 1,
                "to": "0xe8582bd23fe58e16e5f37ddd7d745629ee6f46cd",
                "token": "0xa80f2c8f61c56546001f5fc2eb8d6e4e72c45d4c"
            }
        ],
        "token_infos": [
            {
                "address": "0xa80f2c8f61c56546001f5fc2eb8d6e4e72c45d4c",
                "decimals": 18
            },
            {
                "address": "0xc02aaa39b223fe8d0a0e5c4f27ead9083c756cc2",
                "decimals": 18
            },
            {
                "address": "0xeeeeeeeeeeeeeeeeeeeeeeeeeeeeeeeeeeeeeeee",
                "decimals": 18
            }
        ]
    },
    "address_label": {
        "labels": [
            {
                "address": "0x0000000000000000000000000000000000000004",
                "label": "Precompiled"
            },
            {
                "address": "0xeeeeeeeeeeeeeeeeeeeeeeeeeeeeeeeeeeeeeeee",
                "label": "Ether"
            },
            {
                "address": "0xa80f2c8f61c56546001f5fc2eb8d6e4e72c45d4c",
                "label": "Unique Utility: UNQT Token"
            },
            {
                "address": "0x0000000000000000000000000000000000000001",
                "label": "Precompiled"
            },
            {
                "address": "0x0000000000000000000000000000000000000002",
                "label": "Precompiled"
            },
            {
                "address": "0x0000000000000000000000000000000000000003",
                "label": "Precompiled"
            }
        ]
    },
    "trace": {
        "accountLabels": null,
        "dataMap": {
            "-1": {
                "invocation": {
                    "address": "0xeb844ac3ca84519b798ba22d582d2cecf3bbdccf",
                    "callData": "",
                    "decodedMethod": null,
                    "errorInfo": "",
                    "fromAddress": "",
                    "gasUsed": 0,
                    "id": -1,
                    "methodDecoded": false,
                    "operation": "",
                    "output": "",
                    "revert": false,
                    "revertMessage": "",
                    "selector": "",
                    "status": false,
                    "value": ""
                },
                "nodeType": 0
            },
            "0": {
                "invocation": {
                    "address": "0xa80f2c8f61c56546001f5fc2eb8d6e4e72c45d4c",
                    "callData": "0x000000000000000000000000e8582bd23fe58e16e5f37ddd7d745629ee6f46cd00000000000000000000000000000000000000000000000ad78ebc5ac6200000",
                    "decodedMethod": {
                        "callParams": [
                            {
                                "name": "to",
                                "type": "address",
                                "value": "0xe8582bd23fe58e16e5f37ddd7d745629ee6f46cd"
                            },
                            {
                                "decimalAvailable": true,
                                "name": "tokens",
                                "type": "uint256",
                                "value": "200,000,000,000,000,000,000"
                            }
                        ],
                        "constructorArguments": "",
                        "name": "transfer",
                        "returnParams": [
                            {
                                "name": "success",
                                "type": "bool",
                                "value": true
                            }
                        ],
                        "signature": "transfer(address,uint256)"
                    },
                    "errorInfo": "",
                    "fromAddress": "0xeb844ac3ca84519b798ba22d582d2cecf3bbdccf",
                    "gasUsed": 35387,
                    "id": 0,
                    "methodDecoded": true,
                    "operation": "CALL",
                    "output": "0x0000000000000000000000000000000000000000000000000000000000000001",
                    "revert": false,
                    "revertMessage": "",
                    "selector": "0xa9059cbb",
                    "status": true,
                    "value": "0"
                },
                "nodeType": 0
            },
            "1": {
                "event": {
                    "contract": "0xa80f2c8f61c56546001f5fc2eb8d6e4e72c45d4c",
                    "decodedLog": {
                        "name": "Transfer",
                        "params": [
                            {
                                "name": "from",
                                "type": "address",
                                "value": "0xeb844ac3ca84519b798ba22d582d2cecf3bbdccf"
                            },
                            {
                                "name": "to",
                                "type": "address",
                                "value": "0xe8582bd23fe58e16e5f37ddd7d745629ee6f46cd"
                            },
                            {
                                "decimalAvailable": true,
                                "name": "value",
                                "type": "uint256",
                                "value": "200,000,000,000,000,000,000"
                            }
                        ],
                        "signature": "Transfer(address,address,uint256)"
                    },
                    "id": 1,
                    "logData": "0x00000000000000000000000000000000000000000000000ad78ebc5ac6200000",
                    "logDecoded": true,
                    "operation": "EVENT",
                    "revert": false,
                    "status": true,
                    "topics": [
                        "0xddf252ad1be2c89b69c2b068fc378daa952ba7f163c4a11628f55a4df523b3ef",
                        "0x000000000000000000000000eb844ac3ca84519b798ba22d582d2cecf3bbdccf",
                        "0x000000000000000000000000e8582bd23fe58e16e5f37ddd7d745629ee6f46cd"
                    ]
                },
                "nodeType": 1
            }
        },
        "gasFlame": [
            {
                "children": [
                    {
                        "children": [
                            {
                                "children": [],
                                "depth": 0,
                                "name": "Initial Gas",
                                "value": 21644
                            },
                            {
                                "children": [],
                                "depth": 0,
                                "name": "Executed Gas",
                                "value": 13743
                            }
                        ],
                        "depth": -1,
                        "name": "Actual Gas Used",
                        "value": 35387
                    },
                    {
                        "children": [],
                        "depth": -1,
                        "name": "Refunded Gas",
                        "value": 0
                    }
                ],
                "depth": -2,
                "name": "Total Gas",
                "value": 35387
            }
        ],
        "isConfirmed": true,
        "mainTrace": [
            {
                "children": [
                    {
                        "children": [
                            {
                                "children": [],
                                "depth": 1,
                                "id": 1,
                                "order": 1
                            }
                        ],
                        "depth": 0,
                        "id": 0,
                        "order": 0
                    }
                ],
                "depth": -1,
                "id": -1,
                "order": -1
            }
        ],
        "mainTraceNodeCount": 2,
        "parentIdMap": {
            "0": -1,
            "1": 0
        },
        "tidyTrace": [
            {
                "children": [
                    {
                        "children": [
                            {
                                "children": [],
                                "depth": 1,
                                "id": 1,
                                "order": 1
                            }
                        ],
                        "depth": 0,
                        "id": 0,
                        "order": 0
                    }
                ],
                "depth": -1,
                "id": -1,
                "order": -1
            }
        ],
        "tidyTraceNodeCount": 2
    },
    "state_change": {
        "stateChanges": [
            {
                "address": "0xa80f2c8f61c56546001f5fc2eb8d6e4e72c45d4c",
                "erc": "ERC-20",
                "slots": [
                    {
                        "current": "0x000000000000000000000000000000000000000000000000179bf1540044ad78",
                        "key": "0x4568ab9e4233929185e5c5d3c700e9d8819aa447a5748a55af0c9673f620f7c9",
                        "prev": "0x00000000000000000000000000000000000000000000000aef2aadaec664ad78"
                    },
                    {
                        "current": "0x000000000000000000000000000000000000000000103caf9d3f13cfab1b0074",
                        "key": "0xef1eb1ba47114cc1e8d41e8beb9d08c584e90ce8acd26491813c4bd1f9dfc20f",
                        "prev": "0x000000000000000000000000000000000000000000103ca4c5b05774e4fb0074"
                    }
                ],
                "storageVariables": [
                    {
                        "name": "balances",
                        "type": "mapping(address => uint256)",
                        "value": {
                            "pairs": [
                                {
                                    "key": "0xe8582bd23fe58e16e5f37ddd7d745629ee6f46cd",
                                    "value": {
                                        "current": "19629394613816114816942196",
                                        "prev": "19629194613816114816942196",
                                        "typeTag": 1
                                    }
                                },
                                {
                                    "key": "0xeb844ac3ca84519b798ba22d582d2cecf3bbdccf",
                                    "value": {
                                        "current": "1701218627346541944",
                                        "prev": "201701218627346541944",
                                        "typeTag": 1
                                    }
                                }
                            ],
                            "typeTag": 4
                        }
                    }
                ]
            }
        ]
    }
}