{
    "balance_change": {
        "balanceChanges": [
            {
                "account": "0x03b0c0da2fcfe7951babc6bf4aeea64898e7f7e1",
                "assets": [
                    {
                        "address": "0x495f947276749ce646f68ac8c248420045cb7b5e",
                        "amount": "1",
                        "iconUrl": "",
                        "isERC1155": true,
                        "isERC721": false,
                        "sign": false,
                        "tokenID": "1669234646752956742131729118005573511948652980581924368403907045273389498372",
                        "value": ""
                    }
                ]
            },
            {
                "account": "0x20fedb90ef8e542efdab00e0fc46ff3762e55f06",
                "assets": [
                    {
                        "address": "0x495f947276749ce646f68ac8c248420045cb7b5e",
                        "amount": "1",
                        "iconUrl": "",
                        "isERC1155": true,
                        "isERC721": false,
                        "sign": true,
                        "tokenID": "1669234646752956742131729118005573511948652980581924368403907045273389498372",
                        "value": ""
                    }
                ]
            }
        ]
    },
    "profile": {
        "basic_info": {
            "baseFee": "",
            "blockNumber": 12739195,
            "callData": "0xf242432a00000000000000000000000003b0c0da2fcfe7951babc6bf4aeea64898e7f7e100000000000000000000000020fedb90ef8e542efdab00e0fc46ff3762e55f0603b0c0da2fcfe7951babc6bf4aeea64898e7f7e10000000000005d0000000004000000000000000000000000000000000000000000000000000000000000000100000000000000000000000000000000000000000000000000000000000000a000000000000000000000000000000000000000000000000000000000000000000000000000000000000000000000000000000000000000000000000000000000",
            "debugEnable": true,
            "errorInfo": "",
            "eventCount": 1,
            "feeRecipient": "0x8595dd9e0438640b5e1254f9df579ac12a86865f",
            "formatValue": "0",
            "gasLimit": 79258,
            "gasPrice": "42",
            "gasUsed": 47916,
            "intTxnCount": 0,
            "internalRevert": false,
            "internalRevertMessage": "",
            "isContractCreation": false,
            "isFlashloan": false,
            "maxFee": "",
            "nonce": 502,
            "overwritedBlockNumber": -1,
            "priorityFee": "",
            "receiver": "0x495f947276749ce646f68ac8c248420045cb7b5e",
            "revertMessage": "",
            "sender": "0x03b0c0da2fcfe7951babc6bf4aeea64898e7f7e1",
            "simulationEnable": true,
            "sourceTxnHash": "0x886e6875b3eb586cc5737a1ce573e31540d07aef29ccc21075d899b8b53fa848",
            "status": true,
            "timestamp": "2021-07-01T02:41:10Z",
            "transactionFee": "0.002012472",
            "txnHash": "0x886e6875b3eb586cc5737a1ce573e31540d07aef29ccc21075d899b8b53fa848",
            "txnIndex": 34,
            "type": 0,
            "value": "0"
        },
        "fund_flow": [
            {
                "amount": "1",
                "from": "0x03b0c0da2fcfe7951babc6bf4aeea64898e7f7e1",
                "id": 1,
                "isERC1155": true,
                "isERC721": false,
                "isReverted": false,
                "order": 1,
                "to": "0x20fedb90ef8e542efdab00e0fc46ff3762e55f06",
                "token": "0x495f947276749ce646f68ac8c248420045cb7b5e",
                "tokenID": "1669234646752956742131729118005573511948652980581924368403907045273389498372"
            }
        ],
        "token_infos": [
            {
                "address": "0xc02aaa39b223fe8d0a0e5c4f27ead9083c756cc2",
                "decimals": 18
            },
            {
                "address": "0xeeeeeeeeeeeeeeeeeeeeeeeeeeeeeeeeeeeeeeee",
                "decimals": 18
            }
        ]
    },
    "address_label": {
        "labels": [
            {
                "address": "0xeeeeeeeeeeeeeeeeeeeeeeeeeeeeeeeeeeeeeeee",
                "label": "Ether"
            },
            {
                "address": "0x495f947276749ce646f68ac8c248420045cb7b5e",
                "label": "OpenSea: OPENSTORE Token"
            },
            {
                "address": "0x0000000000000000000000000000000000000001",
                "label": "Precompiled"
            },
            {
                "address": "0x0000000000000000000000000000000000000002",
                "label": "Precompiled"
            },
            {
                "address": "0x0000000000000000000000000000000000000003",
                "label": "Precompiled"
            },
            {
                "address": "0x0000000000000000000000000000000000000004",
                "label": "Precompiled"
            }
        ]
    },
    "trace": {
        "accountLabels": null,
        "dataMap": {
            "-1": {
                "invocation": {
                    "address": "0x03b0c0da2fcfe7951babc6bf4aeea64898e7f7e1",
                    "callData": "",
                    "decodedMethod": null,
                    "errorInfo": "",
                    "fromAddress": "",
                    "gasUsed": 0,
                    "id": -1,
                    "methodDecoded": false,
                    "operation": "",
                    "output": "",
                    "revert": false,
                    "revertMessage": "",
                    "selector": "",
                    "status": false,
                    "value": ""
                },
                "nodeType": 0
            },
            "0": {
                "invocation": {
                    "address": "0x495f947276749ce646f68ac8c248420045cb7b5e",
                    "callData": "0x00000000000000000000000003b0c0da2fcfe7951babc6bf4aeea64898e7f7e100000000000000000000000020fedb90ef8e542efdab00e0fc46ff3762e55f0603b0c0da2fcfe7951babc6bf4aeea64898e7f7e10000000000005d0000000004000000000000000000000000000000000000000000000000000000000000000100000000000000000000000000000000000000000000000000000000000000a000000000000000000000000000000000000000000000000000000000000000000000000000000000000000000000000000000000000000000000000000000000",
                    "decodedMethod": {
                        "callParams": [
                            {
                                "name": "from",
                                "type": "address",
                                "value": "0x03b0c0da2fcfe7951babc6bf4aeea64898e7f7e1"
                            },
                            {
                                "name": "to",
                                "type": "address",
                                "value": "0x20fedb90ef8e542efdab00e0fc46ff3762e55f06"
                            },
                            {
                                "name": "id",
                                "type": "uint256",
                                "value": "1,669,234,646,752,956,742,131,729,118,005,573,511,948,652,980,581,924,368,403,907,045,273,389,498,372"
                            },
                            {
                                "name": "amount",
                                "type": "uint256",
                                "value": "1"
                            },
                            {
                                "name": "data",
                                "type": "bytes",
                                "value": "0x"
                            }
                        ],
                        "constructorArguments": "",
                        "name": "safeTransferFrom",
                        "returnParams": [],
                        "signature": "safeTransferFrom(address,address,uint256,uint256,bytes)"
                    },
                    "errorInfo": "",
                    "fromAddress": "0x03b0c0da2fcfe7951babc6bf4aeea64898e7f7e1",
                    "gasUsed": 47916,
                    "id": 0,
                    "methodDecoded": true,
                    "operation": "CALL",
                    "output": "",
                    "revert": false,
                    "revertMessage": "",
                    "selector": "0xf242432a",
                    "status": true,
                    "value": "0"
                },
                "nodeType": 0
            },
            "1": {
                "event": {
                    "contract": "0x495f947276749ce646f68ac8c248420045cb7b5e",
                    "decodedLog": {
                        "name": "TransferSingle",
                        "params": [
                            {
                                "name": "operator",
                                "type": "address",
                                "value": "0x03b0c0da2fcfe7951babc6bf4aeea64898e7f7e1"
                            },
                            {
                                "name": "from",
                                "type": "address",
                                "value": "0x03b0c0da2fcfe7951babc6bf4aeea64898e7f7e1"
                            },
                            {
                                "name": "to",
                                "type": "address",
                                "value": "0x20fedb90ef8e542efdab00e0fc46ff3762e55f06"
                            },
                            {
                                "name": "id",
                                "type": "uint256",
                                "value": "1,669,234,646,752,956,742,131,729,118,005,573,511,948,652,980,581,924,368,403,907,045,273,389,498,372"
                            },
                            {
                                "name": "value",
                                "type": "uint256",
                                "value": "1"
                            }
                        ],
                        "signature": "TransferSingle(address,address,address,uint256,uint256)"
                    },
                    "id": 1,
                    "logData": "0x03b0c0da2fcfe7951babc6bf4aeea64898e7f7e10000000000005d00000000040000000000000000000000000000000000000000000000000000000000000001",
                    "logDecoded": true,
                    "operation": "EVENT",
                    "revert": false,
                    "status": true,
                    "topics": [
                        "0xc3d58168c5ae7397731d063d5bbf3d657854427343f4c083240f7aacaa2d0f62",
                        "0x00000000000000000000000003b0c0da2fcfe7951babc6bf4aeea64898e7f7e1",
                        "0x00000000000000000000000003b0c0da2fcfe7951babc6bf4aeea64898e7f7e1",
                        "0x00000000000000000000000020fedb90ef8e542efdab00e0fc46ff3762e55f06"
                    ]
                },
                "nodeType": 1
            }
        },
        "gasFlame": [
            {
                "children": [
                    {
                        "children": [
                            {
                                "children": [],
                                "depth": 0,
                                "name": "Initial Gas",
                                "value": 22716
                            },
                            {
                                "children": [],
                                "depth": 0,
                                "name": "Executed Gas",
                                "value": 28000
                            }
                        ],
                        "depth": -1,
                        "name": "Actual Gas Used",
                        "value": 47916
                    },
                    {
                        "children": [],
                        "depth": -1,
                        "name": "Refunded Gas",
                        "value": 2800
                    }
                ],
                "depth": -2,
                "name": "Total Gas",
                "value": 50716
            }
        ],
        "isConfirmed": true,
        "mainTrace": [
            {
                "children": [
                    {
                        "children": [
                            {
                                "children": [],
                                "depth": 1,
                                "id": 1,
                                "order": 1
                            }
                        ],
                        "depth": 0,
                        "id": 0,
                        "order": 0
                    }
                ],
                "depth": -1,
                "id": -1,
                "order": -1
            }
        ],
        "mainTraceNodeCount": 2,
        "parentIdMap": {
            "0": -1,
            "1": 0
        },
        "tidyTrace": [
            {
                "children": [
                    {
                        "children": [
                            {
                                "children": [],
                                "depth": 1,
                                "id": 1,
                                "order": 1
                            }
                        ],
                        "depth": 0,
                        "id": 0,
                        "order": 0
                    }
                ],
                "depth": -1,
                "id": -1,
                "order": -1
            }
        ],
        "tidyTraceNodeCount": 2
    },
    "state_change": {
        "stateChanges": [
            {
                "address": "0x495f947276749ce646f68ac8c248420045cb7b5e",
                "erc": "",
                "slots": [
                    {
                        "current": "0x0000000000000000000000000000000000000000000000000000000000000002",
                        "key": "0x0ae3755d70c52455ef1ac76f19b276090cc82cba8694e3e79915e1e2c3b6830d",
                        "prev": "0x0000000000000000000000000000000000000000000000000000000000000001"
                    },
                    {
                        "current": "0x0000000000000000000000000000000000000000000000000000000000000002",
                        "key": "0x75bcf4a146dd3910c6695570629e7438730583b65bf931e4cb73eb6f4572ce54",
                        "prev": "0x0000000000000000000000000000000000000000000000000000000000000001"
                    }
                ],
                "storageVariables": []
            }
        ]
    }
}