{
    "balance_change": {
        "balanceChanges": [
            {
                "account": "0x9da4e4612d785dc0a1ffae2d320ad57c14429cc8",
                "assets": [
                    {
                        "address": "0x111111111117dc0aa78b770fa6a738034120c302",
                        "amount": "604.700882238735985736",
                        "iconUrl": "https://assets.blocksec.com/icon/ca85cbb46dd840dad943ce8d71a6933f6860da2d672e673851deb5beb229ca96.png",
                        "isERC1155": false,
                        "isERC721": false,
                        "sign": true,
                        "value": ""
                    }
                ]
            },
            {
                "account": "0xe295ad71242373c37c5fda7b57f26f9ea1088afe",
                "assets": [
                    {
                        "address": "0x111111111117dc0aa78b770fa6a738034120c302",
                        "amount": "604.700882238735985736",
                        "iconUrl": "https://assets.blocksec.com/icon/ca85cbb46dd840dad943ce8d71a6933f6860da2d672e673851deb5beb229ca96.png",
                        "isERC1155": false,
                        "isERC721": false,
                        "sign": false,
                        "value": ""
                    }
                ]
            }
        ]
    },
    "profile": {
        "basic_info": {
            "baseFee": "",
            "blockNumber": 11848151,
            "callData": "0x2e7ba6ef00000000000000000000000000000000000000000000000000000000000083be0000000000000000000000009da4e4612d785dc0a1ffae2d320ad57c14429cc8000000000000000000000000000000000000000000000020c7e9188db52d2c480000000000000000000000000000000000000000000000000000000000000080000000000000000000000000000000000000000000000000000000000000001021217bbbf53f69a95cc2747059a46cdc3aef475458427eb7ca7a474cd13a3e9897c4b5eb81f414604aedf787eeb613b623d5bbd8810cec32eca15b748af23e0ef41f9e9b82f70761a300cc2f5a78e4d57bfe949f50e0918964e36b227cc8d6a8682775a646d6031a3d2099c6630cb8835c6f6f93969c37e72277c1d37bb809862993824f0f18b311fa2fee94636dd1eae23b8a691ed831873e7b9f8d783b6ff06e651eb75e19d53c6a537dc0ac977440dc299b5dfff52473c4f334e4e5465e2212cdd525496b8600b2619b0fb2e4347070d2babb77131a9afaea29be2e4724211145b79f48a63cbf38c4b81c4f96fed03e34ea72f45aadf8739397a9d16b245fa6d0068441cc833b51ee28d9831632f23fdd7d5c00bc49e1cb2bf9e010963e00c8d43decfaff0668024295e7762d2fcfe59f4fa62964633d5c3de1ed774a15ad64586afd2e860df0d3ad4143b375641230b3a350edd80ecf2e429df01a5c10fb25d694a7cf37cd2489c92d772ceb6cc464e6f61de2408c757e7826d02cbf4d1b36810920f0c225847e2a60812eae250e6a6c3c30282751cc20a55f8270d04594c68903bd4a0d7c779b74e0b1e2f155d3552419321a59abd8515babd72ca9acef5c6155e1ffc9233d0145d76813796d913a4c66aa048766095e896af935480c2c64fc36ed36bdc918b8a0ed5f8d89e7edbdbde8003de9e3d19c97b0412390acdf",
            "debugEnable": true,
            "errorInfo": "",
            "eventCount": 2,
            "feeRecipient": "0xe72f79190bc8f92067c6a62008656c6a9077f6aa",
            "formatValue": "0",
            "gasLimit": 150000,
            "gasPrice": "250",
            "gasUsed": 75706,
            "intTxnCount": 1,
            "internalRevert": false,
            "internalRevertMessage": "",
            "isContractCreation": false,
            "isFlashloan": false,
            "maxFee": "",
            "nonce": 23,
            "overwritedBlockNumber": -1,
            "priorityFee": "",
            "receiver": "0xe295ad71242373c37c5fda7b57f26f9ea1088afe",
            "revertMessage": "",
            "sender": "0x9da4e4612d785dc0a1ffae2d320ad57c14429cc8",
            "simulationEnable": true,
            "sourceTxnHash": "0x88e34732a0c2298bde7dd0c4d51a06476b04c3f8f4a3bdd72e419774dd2c85cf",
            "status": true,
            "timestamp": "2021-02-13T11:57:26Z",
            "transactionFee": "0.0189265",
            "txnHash": "0x88e34732a0c2298bde7dd0c4d51a06476b04c3f8f4a3bdd72e419774dd2c85cf",
            "txnIndex": 109,
            "type": 0,
            "value": "0"
        },
        "fund_flow": [
            {
                "amount": "604.700882238735985736",
                "from": "0xe295ad71242373c37c5fda7b57f26f9ea1088afe",
                "id": 1,
                "isERC1155": false,
                "isERC721": false,
                "isReverted": false,
                "order": 1,
                "to": "0x9da4e4612d785dc0a1ffae2d320ad57c14429cc8",
                "token": "0x111111111117dc0aa78b770fa6a738034120c302"
            }
        ],
        "token_infos": [
            {
                "address": "0xc02aaa39b223fe8d0a0e5c4f27ead9083c756cc2",
                "decimals": 18
            },
            {
                "address": "0xeeeeeeeeeeeeeeeeeeeeeeeeeeeeeeeeeeeeeeee",
                "decimals": 18
            },
            {
                "address": "0x111111111117dc0aa78b770fa6a738034120c302",
                "decimals": 18
            }
        ]
    },
    "address_label": {
        "labels": [
            {
                "address": "0x0000000000000000000000000000000000000002",
                "label": "Precompiled"
            },
            {
                "address": "0x0000000000000000000000000000000000000003",
                "label": "Precompiled"
            },
            {
                "address": "0x0000000000000000000000000000000000000004",
                "label": "Precompiled"
            },
            {
                "address": "0xeeeeeeeeeeeeeeeeeeeeeeeeeeeeeeeeeeeeeeee",
                "label": "Ether"
            },
            {
                "address": "0xe295ad71242373c37c5fda7b57f26f9ea1088afe",
                "label": "1inch: Airdrop"
            },
            {
                "address": "0x111111111117dc0aa78b770fa6a738034120c302",
                "label": "1inch: 1INCH Token"
            },
            {
                "address": "0x0000000000000000000000000000000000000001",
                "label": "Precompiled"
            }
        ]
    },
    "trace": {
        "accountLabels": null,
        "dataMap": {
            "-1": {
                "invocation": {
                    "address": "0x9da4e4612d785dc0a1ffae2d320ad57c14429cc8",
                    "callData": "",
                    "decodedMethod": null,
                    "errorInfo": "",
                    "fromAddress": "",
                    "gasUsed": 0,
                    "id": -1,
                    "methodDecoded": false,
                    "operation": "",
                    "output": "",
                    "revert": false,
                    "revertMessage": "",
                    "selector": "",
                    "status": false,
                    "value": ""
                },
                "nodeType": 0
            },
            "0": {
                "invocation": {
                    "address": "0xe295ad71242373c37c5fda7b57f26f9ea1088afe",
                    "callData": "0x00000000000000000000000000000000000000000000000000000000000083be0000000000000000000000009da4e4612d785dc0a1ffae2d320ad57c14429cc8000000000000000000000000000000000000000000000020c7e9188db52d2c480000000000000000000000000000000000000000000000000000000000000080000000000000000000000000000000000000000000000000000000000000001021217bbbf53f69a95cc2747059a46cdc3aef475458427eb7ca7a474cd13a3e9897c4b5eb81f414604aedf787eeb613b623d5bbd8810cec32eca15b748af23e0ef41f9e9b82f70761a300cc2f5a78e4d57bfe949f50e0918964e36b227cc8d6a8682775a646d6031a3d2099c6630cb8835c6f6f93969c37e72277c1d37bb809862993824f0f18b311fa2fee94636dd1eae23b8a691ed831873e7b9f8d783b6ff06e651eb75e19d53c6a537dc0ac977440dc299b5dfff52473c4f334e4e5465e2212cdd525496b8600b2619b0fb2e4347070d2babb77131a9afaea29be2e4724211145b79f48a63cbf38c4b81c4f96fed03e34ea72f45aadf8739397a9d16b245fa6d0068441cc833b51ee28d9831632f23fdd7d5c00bc49e1cb2bf9e010963e00c8d43decfaff0668024295e7762d2fcfe59f4fa62964633d5c3de1ed774a15ad64586afd2e860df0d3ad4143b375641230b3a350edd80ecf2e429df01a5c10fb25d694a7cf37cd2489c92d772ceb6cc464e6f61de2408c757e7826d02cbf4d1b36810920f0c225847e2a60812eae250e6a6c3c30282751cc20a55f8270d04594c68903bd4a0d7c779b74e0b1e2f155d3552419321a59abd8515babd72ca9acef5c6155e1ffc9233d0145d76813796d913a4c66aa048766095e896af935480c2c64fc36ed36bdc918b8a0ed5f8d89e7edbdbde8003de9e3d19c97b0412390acdf",
                    "decodedMethod": {
                        "callParams": [
                            {
                                "name": "index",
                                "type": "uint256",
                                "value": "33,726"
                            },
                            {
                                "name": "account",
                                "type": "address",
                                "value": "0x9da4e4612d785dc0a1ffae2d320ad57c14429cc8"
                            },
                            {
                                "name": "amount",
                                "type": "uint256",
                                "value": "604,700,882,238,735,985,736"
                            },
                            {
                                "name": "merkleProof",
                                "type": "bytes32[]",
                                "value": [
                                    "0x21217bbbf53f69a95cc2747059a46cdc3aef475458427eb7ca7a474cd13a3e98",
                                    "0x97c4b5eb81f414604aedf787eeb613b623d5bbd8810cec32eca15b748af23e0e",
                                    "0xf41f9e9b82f70761a300cc2f5a78e4d57bfe949f50e0918964e36b227cc8d6a8",
                                    "0x682775a646d6031a3d2099c6630cb8835c6f6f93969c37e72277c1d37bb80986",
                                    "0x2993824f0f18b311fa2fee94636dd1eae23b8a691ed831873e7b9f8d783b6ff0",
                                    "0x6e651eb75e19d53c6a537dc0ac977440dc299b5dfff52473c4f334e4e5465e22",
                                    "0x12cdd525496b8600b2619b0fb2e4347070d2babb77131a9afaea29be2e472421",
                                    "0x1145b79f48a63cbf38c4b81c4f96fed03e34ea72f45aadf8739397a9d16b245f",
                                    "0xa6d0068441cc833b51ee28d9831632f23fdd7d5c00bc49e1cb2bf9e010963e00",
                                    "0xc8d43decfaff0668024295e7762d2fcfe59f4fa62964633d5c3de1ed774a15ad",
                                    "0x64586afd2e860df0d3ad4143b375641230b3a350edd80ecf2e429df01a5c10fb",
                                    "0x25d694a7cf37cd2489c92d772ceb6cc464e6f61de2408c757e7826d02cbf4d1b",
                                    "0x36810920f0c225847e2a60812eae250e6a6c3c30282751cc20a55f8270d04594",
                                    "0xc68903bd4a0d7c779b74e0b1e2f155d3552419321a59abd8515babd72ca9acef",
                                    "0x5c6155e1ffc9233d0145d76813796d913a4c66aa048766095e896af935480c2c",
                                    "0x64fc36ed36bdc918b8a0ed5f8d89e7edbdbde8003de9e3d19c97b0412390acdf"
                                ]
                            }
                        ],
                        "constructorArguments": "",
                        "name": "claim",
                        "returnParams": [],
                        "signature": "claim(uint256,address,uint256,bytes32[])"
                    },
                    "errorInfo": "",
                    "fromAddress": "0x9da4e4612d785dc0a1ffae2d320ad57c14429cc8",
                    "gasUsed": 75706,
                    "id": 0,
                    "methodDecoded": true,
                    "operation": "CALL",
                    "output": "",
                    "revert": false,
                    "revertMessage": "",
                    "selector": "0x2e7ba6ef",
                    "status": true,
                    "value": "0"
                },
                "nodeType": 0
            },
            "1": {
                "invocation": {
                    "address": "0x111111111117dc0aa78b770fa6a738034120c302",
                    "callData": "0x0000000000000000000000009da4e4612d785dc0a1ffae2d320ad57c14429cc8000000000000000000000000000000000000000000000020c7e9188db52d2c48",
                    "decodedMethod": {
                        "callParams": [
                            {
                                "name": "recipient",
                                "type": "address",
                                "value": "0x9da4e4612d785dc0a1ffae2d320ad57c14429cc8"
                            },
                            {
                                "decimalAvailable": true,
                                "name": "amount",
                                "type": "uint256",
                                "value": "604,700,882,238,735,985,736"
                            }
                        ],
                        "constructorArguments": "",
                        "name": "transfer",
                        "returnParams": [
                            {
                                "name": "",
                                "type": "bool",
                                "value": true
                            }
                        ],
                        "signature": "transfer(address,uint256)"
                    },
                    "errorInfo": "",
                    "fromAddress": "0xe295ad71242373c37c5fda7b57f26f9ea1088afe",
                    "gasUsed": 29474,
                    "id": 1,
                    "methodDecoded": true,
                    "operation": "CALL",
                    "output": "0x0000000000000000000000000000000000000000000000000000000000000001",
                    "revert": false,
                    "revertMessage": "",
                    "selector": "0xa9059cbb",
                    "status": true,
                    "value": "0"
                },
                "nodeType": 0
            },
            "2": {
                "event": {
                    "contract": "0x111111111117dc0aa78b770fa6a738034120c302",
                    "decodedLog": {
                        "name": "Transfer",
                        "params": [
                            {
                                "name": "from",
                                "type": "address",
                                "value": "0xe295ad71242373c37c5fda7b57f26f9ea1088afe"
                            },
                            {
                                "name": "to",
                                "type": "address",
                                "value": "0x9da4e4612d785dc0a1ffae2d320ad57c14429cc8"
                            },
                            {
                                "decimalAvailable": true,
                                "name": "value",
                                "type": "uint256",
                                "value": "604,700,882,238,735,985,736"
                            }
                        ],
                        "signature": "Transfer(address,address,uint256)"
                    },
                    "id": 2,
                    "logData": "0x000000000000000000000000000000000000000000000020c7e9188db52d2c48",
                    "logDecoded": true,
                    "operation": "EVENT",
                    "revert": false,
                    "status": true,
                    "topics": [
                        "0xddf252ad1be2c89b69c2b068fc378daa952ba7f163c4a11628f55a4df523b3ef",
                        "0x000000000000000000000000e295ad71242373c37c5fda7b57f26f9ea1088afe",
                        "0x0000000000000000000000009da4e4612d785dc0a1ffae2d320ad57c14429cc8"
                    ]
                },
                "nodeType": 1
            },
            "3": {
                "event": {
                    "contract": "0xe295ad71242373c37c5fda7b57f26f9ea1088afe",
                    "decodedLog": {
                        "name": "Claimed",
                        "params": [
                            {
                                "name": "index",
                                "type": "uint256",
                                "value": "33,726"
                            },
                            {
                                "name": "account",
                                "type": "address",
                                "value": "0x9da4e4612d785dc0a1ffae2d320ad57c14429cc8"
                            },
                            {
                                "name": "amount",
                                "type": "uint256",
                                "value": "604,700,882,238,735,985,736"
                            }
                        ],
                        "signature": "Claimed(uint256,address,uint256)"
                    },
                    "id": 3,
                    "logData": "0x00000000000000000000000000000000000000000000000000000000000083be0000000000000000000000009da4e4612d785dc0a1ffae2d320ad57c14429cc8000000000000000000000000000000000000000000000020c7e9188db52d2c48",
                    "logDecoded": true,
                    "operation": "EVENT",
                    "revert": false,
                    "status": true,
                    "topics": [
                        "0x4ec90e965519d92681267467f775ada5bd214aa92c0dc93d90a5e880ce9ed026"
                    ]
                },
                "nodeType": 1
            }
        },
        "gasFlame": [
            {
                "children": [
                    {
                        "children": [
                            {
                                "children": [],
                                "depth": 0,
                                "name": "Initial Gas",
                                "value": 30232
                            },
                            {
                                "children": [
                                    {
                                        "children": [],
                                        "depth": 1,
                                        "name": "transfer",
                                        "value": 29474
                                    }
                                ],
                                "depth": 0,
                                "name": "Executed Gas",
                                "value": 45474
                            }
                        ],
                        "depth": -1,
                        "name": "Actual Gas Used",
                        "value": 75706
                    },
                    {
                        "children": [],
                        "depth": -1,
                        "name": "Refunded Gas",
                        "value": 0
                    }
                ],
                "depth": -2,
                "name": "Total Gas",
                "value": 75706
            }
        ],
        "isConfirmed": true,
        "mainTrace": [
            {
                "children": [
                    {
                        "children": [
                            {
                                "children": [
                                    {
                                        "children": [],
                                        "depth": 2,
                                        "id": 2,
                                        "order": 2
                                    }
                                ],
                                "depth": 1,
                                "id": 1,
                                "order": 1
                            },
                            {
                                "children": [],
                                "depth": 1,
                                "id": 3,
                                "order": 3
                            }
                        ],
                        "depth": 0,
                        "id": 0,
                        "order": 0
                    }
                ],
                "depth": -1,
                "id": -1,
                "order": -1
            }
        ],
        "mainTraceNodeCount": 4,
        "parentIdMap": {
            "0": -1,
            "1": 0,
            "2": 1,
            "3": 0
        },
        "tidyTrace": [
            {
                "children": [
                    {
                        "children": [
                            {
                                "children": [
                                    {
                                        "children": [],
                                        "depth": 2,
                                        "id": 2,
                                        "order": 2
                                    }
                                ],
                                "depth": 1,
                                "id": 1,
                                "order": 1
                            },
                            {
                                "children": [],
                                "depth": 1,
                                "id": 3,
                                "order": 3
                            }
                        ],
                        "depth": 0,
                        "id": 0,
                        "order": 0
                    }
                ],
                "depth": -1,
                "id": -1,
                "order": -1
            }
        ],
        "tidyTraceNodeCount": 4
    },
    "state_change": {
        "stateChanges": [
            {
                "address": "0x111111111117dc0aa78b770fa6a738034120c302",
                "erc": "ERC-20",
                "slots": [
                    {
                        "current": "0x00000000000000000000000000000000000000000008dfbb1726d3dae287e253",
                        "key": "0xa8be3b364cd215ea1749eb4e8a0f5ddad43ce13fb5ef543e5d381d94abbbe492",
                        "prev": "0x00000000000000000000000000000000000000000008dfdbdf0fec6897b50e9b"
                    },
                    {
                        "current": "0x000000000000000000000000000000000000000000000020c7e9188db52d2c48",
                        "key": "0x8a414ef79d8143c4c75a0026847b75c5b447da0be9ecae8b21f4e2a0dd1eeaea",
                        "prev": "0x0000000000000000000000000000000000000000000000000000000000000000"
                    }
                ],
                "storageVariables": [
                    {
                        "name": "_balances",
                        "type": "mapping(address => uint256)",
                        "value": {
                            "pairs": [
                                {
                                    "key": "0x9da4e4612d785dc0a1ffae2d320ad57c14429cc8",
                                    "value": {
                                        "current": "604700882238735985736",
                                        "prev": "0",
                                        "typeTag": 1
                                    }
                                },
                                {
                                    "key": "0xe295ad71242373c37c5fda7b57f26f9ea1088afe",
                                    "value": {
                                        "current": "10727945491992397010690643",
                                        "prev": "10728550192874635746676379",
                                        "typeTag": 1
                                    }
                                }
                            ],
                            "typeTag": 4
                        }
                    }
                ]
            },
            {
                "address": "0xe295ad71242373c37c5fda7b57f26f9ea1088afe",
                "erc": "",
                "slots": [
                    {
                        "current": "0x927afef38dbebfebebf9eeefedbef5cafd792ffbf0ce3b5bd11feb7ec7fdaff7",
                        "key": "0x5ecb015e7fcbaa75266dab115316acc324b61fa178afc595a7bbec2ad3268d87",
                        "prev": "0x927afef38dbebfebabf9eeefedbef5cafd792ffbf0ce3b5bd11feb7ec7fdaff7"
                    }
                ],
                "storageVariables": [
                    {
                        "name": "claimedBitMap",
                        "type": "mapping(uint256 => uint256)",
                        "value": {
                            "pairs": [
                                {
                                    "key": "131",
                                    "value": {
                                        "current": "66254990844826483509332772201891461460454694633859572793121320329104552996855",
                                        "prev": "66254990844826483507763496768044791269495747278057656189095731467988544368631",
                                        "typeTag": 1
                                    }
                                }
                            ],
                            "typeTag": 4
                        }
                    }
                ]
            }
        ]
    }
}