{
    "balance_change": {
        "balanceChanges": [
            {
                "account": "0x44d6c9d5bce0831ec038d874dfb62464f40861b0",
                "assets": [
                    {
                        "address": "0x6399c842dd2be3de30bf99bc7d1bbf6fa3650e70",
                        "amount": "1,784.560249448552925154",
                        "iconUrl": "",
                        "isERC1155": false,
                        "isERC721": false,
                        "sign": false,
                        "value": "3317.747408"
                    }
                ]
            },
            {
                "account": "0xbbf956994d73da0614e9b38fab2a94c5171cbb6d",
                "assets": [
                    {
                        "address": "0x6399c842dd2be3de30bf99bc7d1bbf6fa3650e70",
                        "amount": "1,784.560249448552925154",
                        "iconUrl": "",
                        "isERC1155": false,
                        "isERC721": false,
                        "sign": true,
                        "value": "3317.747408"
                    }
                ]
            }
        ]
    },
    "profile": {
        "basic_info": {
            "baseFee": "",
            "blockNumber": 11886927,
            "callData": "0xa9059cbb000000000000000000000000bbf956994d73da0614e9b38fab2a94c5171cbb6d000000000000000000000000000000000000000000000060bdbf9bde377b07e2",
            "debugEnable": true,
            "errorInfo": "",
            "eventCount": 1,
            "feeRecipient": "0x829bd824b016326a401d083b33d092293333a830",
            "formatValue": "0",
            "gasLimit": 76786,
            "gasPrice": "130",
            "gasUsed": 36191,
            "intTxnCount": 0,
            "internalRevert": false,
            "internalRevertMessage": "",
            "isContractCreation": false,
            "isFlashloan": false,
            "maxFee": "",
            "nonce": 152,
            "overwritedBlockNumber": -1,
            "priorityFee": "",
            "receiver": "0x6399c842dd2be3de30bf99bc7d1bbf6fa3650e70",
            "revertMessage": "",
            "sender": "0x44d6c9d5bce0831ec038d874dfb62464f40861b0",
            "simulationEnable": true,
            "sourceTxnHash": "0x8823fb464bf8468c503a73f09af90dbae291dece9ec6f9d814082e1b01e40afd",
            "status": true,
            "timestamp": "2021-02-19T10:56:25Z",
            "transactionFee": "0.00470483",
            "txnHash": "0x8823fb464bf8468c503a73f09af90dbae291dece9ec6f9d814082e1b01e40afd",
            "txnIndex": 64,
            "type": 0,
            "value": "0"
        },
        "fund_flow": [
            {
                "amount": "1,784.560249448552925154",
                "from": "0x44d6c9d5bce0831ec038d874dfb62464f40861b0",
                "id": 1,
                "isERC1155": false,
                "isERC721": false,
                "isReverted": false,
                "order": 1,
                "to": "0xbbf956994d73da0614e9b38fab2a94c5171cbb6d",
                "token": "0x6399c842dd2be3de30bf99bc7d1bbf6fa3650e70"
            }
        ],
        "token_infos": [
            {
                "address": "0xc02aaa39b223fe8d0a0e5c4f27ead9083c756cc2",
                "decimals": 18
            },
            {
                "address": "0xeeeeeeeeeeeeeeeeeeeeeeeeeeeeeeeeeeeeeeee",
                "decimals": 18
            },
            {
                "address": "0x6399c842dd2be3de30bf99bc7d1bbf6fa3650e70",
                "decimals": 18
            }
        ]
    },
    "address_label": {
        "labels": [
            {
                "address": "0xbbf956994d73da0614e9b38fab2a94c5171cbb6d",
                "label": "HOTBIT"
            },
            {
                "address": "0x6399c842dd2be3de30bf99bc7d1bbf6fa3650e70",
                "label": "Premia: PREMIA Token"
            },
            {
                "address": "0x0000000000000000000000000000000000000001",
                "label": "Precompiled"
            },
            {
                "address": "0x0000000000000000000000000000000000000002",
                "label": "Precompiled"
            },
            {
                "address": "0x0000000000000000000000000000000000000003",
                "label": "Precompiled"
            },
            {
                "address": "0x0000000000000000000000000000000000000004",
                "label": "Precompiled"
            },
            {
                "address": "0xeeeeeeeeeeeeeeeeeeeeeeeeeeeeeeeeeeeeeeee",
                "label": "Ether"
            }
        ]
    },
    "trace": {
        "accountLabels": null,
        "dataMap": {
            "-1": {
                "invocation": {
                    "address": "0x44d6c9d5bce0831ec038d874dfb62464f40861b0",
                    "callData": "",
                    "decodedMethod": null,
                    "errorInfo": "",
                    "fromAddress": "",
                    "gasUsed": 0,
                    "id": -1,
                    "methodDecoded": false,
                    "operation": "",
                    "output": "",
                    "revert": false,
                    "revertMessage": "",
                    "selector": "",
                    "status": false,
                    "value": ""
                },
                "nodeType": 0
            },
            "0": {
                "invocation": {
                    "address": "0x6399c842dd2be3de30bf99bc7d1bbf6fa3650e70",
                    "callData": "0x000000000000000000000000bbf956994d73da0614e9b38fab2a94c5171cbb6d000000000000000000000000000000000000000000000060bdbf9bde377b07e2",
                    "decodedMethod": {
                        "callParams": [
                            {
                                "name": "recipient",
                                "type": "address",
                                "value": "0xbbf956994d73da0614e9b38fab2a94c5171cbb6d"
                            },
                            {
                                "decimalAvailable": true,
                                "name": "amount",
                                "type": "uint256",
                                "value": "1,784,560,249,448,552,925,154"
                            }
                        ],
                        "constructorArguments": "",
                        "name": "transfer",
                        "returnParams": [
                            {
                                "name": "",
                                "type": "bool",
                                "value": true
                            }
                        ],
                        "signature": "transfer(address,uint256)"
                    },
                    "errorInfo": "",
                    "fromAddress": "0x44d6c9d5bce0831ec038d874dfb62464f40861b0",
                    "gasUsed": 36191,
                    "id": 0,
                    "methodDecoded": true,
                    "operation": "CALL",
                    "output": "0x0000000000000000000000000000000000000000000000000000000000000001",
                    "revert": false,
                    "revertMessage": "",
                    "selector": "0xa9059cbb",
                    "status": true,
                    "value": "0"
                },
                "nodeType": 0
            },
            "1": {
                "event": {
                    "contract": "0x6399c842dd2be3de30bf99bc7d1bbf6fa3650e70",
                    "decodedLog": {
                        "name": "Transfer",
                        "params": [
                            {
                                "name": "from",
                                "type": "address",
                                "value": "0x44d6c9d5bce0831ec038d874dfb62464f40861b0"
                            },
                            {
                                "name": "to",
                                "type": "address",
                                "value": "0xbbf956994d73da0614e9b38fab2a94c5171cbb6d"
                            },
                            {
                                "decimalAvailable": true,
                                "name": "value",
                                "type": "uint256",
                                "value": "1,784,560,249,448,552,925,154"
                            }
                        ],
                        "signature": "Transfer(address,address,uint256)"
                    },
                    "id": 1,
                    "logData": "0x000000000000000000000000000000000000000000000060bdbf9bde377b07e2",
                    "logDecoded": true,
                    "operation": "EVENT",
                    "revert": false,
                    "status": true,
                    "topics": [
                        "0xddf252ad1be2c89b69c2b068fc378daa952ba7f163c4a11628f55a4df523b3ef",
                        "0x00000000000000000000000044d6c9d5bce0831ec038d874dfb62464f40861b0",
                        "0x000000000000000000000000bbf956994d73da0614e9b38fab2a94c5171cbb6d"
                    ]
                },
                "nodeType": 1
            }
        },
        "gasFlame": [
            {
                "children": [
                    {
                        "children": [
                            {
                                "children": [],
                                "depth": 0,
                                "name": "Initial Gas",
                                "value": 21668
                            },
                            {
                                "children": [],
                                "depth": 0,
                                "name": "Executed Gas",
                                "value": 29523
                            }
                        ],
                        "depth": -1,
                        "name": "Actual Gas Used",
                        "value": 36191
                    },
                    {
                        "children": [],
                        "depth": -1,
                        "name": "Refunded Gas",
                        "value": 15000
                    }
                ],
                "depth": -2,
                "name": "Total Gas",
                "value": 51191
            }
        ],
        "isConfirmed": true,
        "mainTrace": [
            {
                "children": [
                    {
                        "children": [
                            {
                                "children": [],
                                "depth": 1,
                                "id": 1,
                                "order": 1
                            }
                        ],
                        "depth": 0,
                        "id": 0,
                        "order": 0
                    }
                ],
                "depth": -1,
                "id": -1,
                "order": -1
            }
        ],
        "mainTraceNodeCount": 2,
        "parentIdMap": {
            "0": -1,
            "1": 0
        },
        "tidyTrace": [
            {
                "children": [
                    {
                        "children": [
                            {
                                "children": [],
                                "depth": 1,
                                "id": 1,
                                "order": 1
                            }
                        ],
                        "depth": 0,
                        "id": 0,
                        "order": 0
                    }
                ],
                "depth": -1,
                "id": -1,
                "order": -1
            }
        ],
        "tidyTraceNodeCount": 2
    },
    "state_change": {
        "stateChanges": [
            {
                "address": "0x6399c842dd2be3de30bf99bc7d1bbf6fa3650e70",
                "erc": "ERC-20",
                "slots": [
                    {
                        "current": "0x0000000000000000000000000000000000000000000000000000000000000000",
                        "key": "0x662092afe37e1b515d18c686d6be755bc914ed058de5267f83ce1abd0be533c9",
                        "prev": "0x000000000000000000000000000000000000000000000060bdbf9bde377b07e2"
                    },
                    {
                        "current": "0x000000000000000000000000000000000000000000000060bdbf9bde377b07e2",
                        "key": "0xebfeb99fe2b412735e0870271b5da8386b815a7499c073e0e9a8594fd30eb445",
                        "prev": "0x0000000000000000000000000000000000000000000000000000000000000000"
                    }
                ],
                "storageVariables": [
                    {
                        "name": "_balances",
                        "type": "mapping(address => uint256)",
                        "value": {
                            "pairs": [
                                {
                                    "key": "0x44d6c9d5bce0831ec038d874dfb62464f40861b0",
                                    "value": {
                                        "current": "0",
                                        "prev": "1784560249448552925154",
                                        "typeTag": 1
                                    }
                                },
                                {
                                    "key": "0xbbf956994d73da0614e9b38fab2a94c5171cbb6d",
                                    "value": {
                                        "current": "1784560249448552925154",
                                        "prev": "0",
                                        "typeTag": 1
                                    }
                                }
                            ],
                            "typeTag": 4
                        }
                    }
                ]
            }
        ]
    }
}