{
    "balance_change": {
        "balanceChanges": [
            {
                "account": "0x460799a85a61b05e72c69ac090c863ddeaa9185a",
                "assets": [
                    {
                        "address": "0x50d1c9771902476076ecfc8b2a83ad6b9355a4c9",
                        "amount": "6.29",
                        "iconUrl": "",
                        "isERC1155": false,
                        "isERC721": false,
                        "sign": false,
                        "value": "19.03436635"
                    }
                ]
            },
            {
                "account": "0x28c6c06298d514db089934071355e5743bf21d60",
                "assets": [
                    {
                        "address": "0x50d1c9771902476076ecfc8b2a83ad6b9355a4c9",
                        "amount": "6.29",
                        "iconUrl": "",
                        "isERC1155": false,
                        "isERC721": false,
                        "sign": true,
                        "value": "19.03436635"
                    }
                ]
            }
        ]
    },
    "profile": {
        "basic_info": {
            "baseFee": "16.930623901",
            "blockNumber": 15948574,
            "callData": "0xa9059cbb00000000000000000000000028c6c06298d514db089934071355e5743bf21d60000000000000000000000000000000000000000000000000574a91ac95350000",
            "debugEnable": true,
            "errorInfo": "",
            "eventCount": 1,
            "feeRecipient": "0x690b9a9e9aa1c9db991c7721a92d351db4fac990",
            "formatValue": "0",
            "gasLimit": 68824,
            "gasPrice": "18.930623901",
            "gasUsed": 29612,
            "intTxnCount": 0,
            "internalRevert": false,
            "internalRevertMessage": "",
            "isContractCreation": false,
            "isFlashloan": false,
            "maxFee": "24",
            "nonce": 0,
            "overwritedBlockNumber": -1,
            "priorityFee": "2",
            "receiver": "0x50d1c9771902476076ecfc8b2a83ad6b9355a4c9",
            "revertMessage": "",
            "sender": "0x460799a85a61b05e72c69ac090c863ddeaa9185a",
            "simulationEnable": true,
            "sourceTxnHash": "0x8890bdbf1ed8a9894c8f77558ddaf7b9ff2bf0d0df2cbe5e93974e31c468cb7b",
            "status": true,
            "timestamp": "2022-11-11T18:30:23Z",
            "transactionFee": "0.000560573634956412",
            "txnHash": "0x8890bdbf1ed8a9894c8f77558ddaf7b9ff2bf0d0df2cbe5e93974e31c468cb7b",
            "txnIndex": 80,
            "type": 2,
            "value": "0"
        },
        "fund_flow": [
            {
                "amount": "6.29",
                "from": "0x460799a85a61b05e72c69ac090c863ddeaa9185a",
                "id": 1,
                "isERC1155": false,
                "isERC721": false,
                "isReverted": false,
                "order": 1,
                "to": "0x28c6c06298d514db089934071355e5743bf21d60",
                "token": "0x50d1c9771902476076ecfc8b2a83ad6b9355a4c9"
            }
        ],
        "token_infos": [
            {
                "address": "0xeeeeeeeeeeeeeeeeeeeeeeeeeeeeeeeeeeeeeeee",
                "decimals": 18
            },
            {
                "address": "0x50d1c9771902476076ecfc8b2a83ad6b9355a4c9",
                "decimals": 18
            },
            {
                "address": "0xc02aaa39b223fe8d0a0e5c4f27ead9083c756cc2",
                "decimals": 18
            }
        ]
    },
    "address_label": {
        "labels": [
            {
                "address": "0x0000000000000000000000000000000000000003",
                "label": "Precompiled"
            },
            {
                "address": "0x0000000000000000000000000000000000000004",
                "label": "Precompiled"
            },
            {
                "address": "0xeeeeeeeeeeeeeeeeeeeeeeeeeeeeeeeeeeeeeeee",
                "label": "Ether"
            },
            {
                "address": "0x50d1c9771902476076ecfc8b2a83ad6b9355a4c9",
                "label": "FTX: FTT Token"
            },
            {
                "address": "0x460799a85a61b05e72c69ac090c863ddeaa9185a",
                "label": "BINANCE"
            },
            {
                "address": "0x28c6c06298d514db089934071355e5743bf21d60",
                "label": "Binance 14"
            },
            {
                "address": "0x0000000000000000000000000000000000000001",
                "label": "Precompiled"
            },
            {
                "address": "0x0000000000000000000000000000000000000002",
                "label": "Precompiled"
            }
        ]
    },
    "trace": {
        "accountLabels": null,
        "dataMap": {
            "-1": {
                "invocation": {
                    "address": "0x460799a85a61b05e72c69ac090c863ddeaa9185a",
                    "callData": "",
                    "decodedMethod": null,
                    "errorInfo": "",
                    "fromAddress": "",
                    "gasUsed": 0,
                    "id": -1,
                    "methodDecoded": false,
                    "operation": "",
                    "output": "",
                    "revert": false,
                    "revertMessage": "",
                    "selector": "",
                    "status": false,
                    "value": ""
                },
                "nodeType": 0
            },
            "0": {
                "invocation": {
                    "address": "0x50d1c9771902476076ecfc8b2a83ad6b9355a4c9",
                    "callData": "0x00000000000000000000000028c6c06298d514db089934071355e5743bf21d60000000000000000000000000000000000000000000000000574a91ac95350000",
                    "decodedMethod": {
                        "callParams": [
                            {
                                "name": "to",
                                "type": "address",
                                "value": "0x28c6c06298d514db089934071355e5743bf21d60"
                            },
                            {
                                "decimalAvailable": true,
                                "name": "value",
                                "type": "uint256",
                                "value": "6,290,000,000,000,000,000"
                            }
                        ],
                        "constructorArguments": "",
                        "name": "transfer",
                        "returnParams": [
                            {
                                "name": "",
                                "type": "bool",
                                "value": true
                            }
                        ],
                        "signature": "transfer(address,uint256)"
                    },
                    "errorInfo": "",
                    "fromAddress": "0x460799a85a61b05e72c69ac090c863ddeaa9185a",
                    "gasUsed": 29612,
                    "id": 0,
                    "methodDecoded": true,
                    "operation": "CALL",
                    "output": "0x0000000000000000000000000000000000000000000000000000000000000001",
                    "revert": false,
                    "revertMessage": "",
                    "selector": "0xa9059cbb",
                    "status": true,
                    "value": "0"
                },
                "nodeType": 0
            },
            "1": {
                "event": {
                    "contract": "0x50d1c9771902476076ecfc8b2a83ad6b9355a4c9",
                    "decodedLog": {
                        "name": "Transfer",
                        "params": [
                            {
                                "name": "from",
                                "type": "address",
                                "value": "0x460799a85a61b05e72c69ac090c863ddeaa9185a"
                            },
                            {
                                "name": "to",
                                "type": "address",
                                "value": "0x28c6c06298d514db089934071355e5743bf21d60"
                            },
                            {
                                "decimalAvailable": true,
                                "name": "value",
                                "type": "uint256",
                                "value": "6,290,000,000,000,000,000"
                            }
                        ],
                        "signature": "Transfer(address,address,uint256)"
                    },
                    "id": 1,
                    "logData": "0x000000000000000000000000000000000000000000000000574a91ac95350000",
                    "logDecoded": true,
                    "operation": "EVENT",
                    "revert": false,
                    "status": true,
                    "topics": [
                        "0xddf252ad1be2c89b69c2b068fc378daa952ba7f163c4a11628f55a4df523b3ef",
                        "0x000000000000000000000000460799a85a61b05e72c69ac090c863ddeaa9185a",
                        "0x00000000000000000000000028c6c06298d514db089934071355e5743bf21d60"
                    ]
                },
                "nodeType": 1
            }
        },
        "gasFlame": [
            {
                "children": [
                    {
                        "children": [
                            {
                                "children": [],
                                "depth": 0,
                                "name": "Initial Gas",
                                "value": 21632
                            },
                            {
                                "children": [],
                                "depth": 0,
                                "name": "Executed Gas",
                                "value": 12780
                            }
                        ],
                        "depth": -1,
                        "name": "Actual Gas Used",
                        "value": 29612
                    },
                    {
                        "children": [],
                        "depth": -1,
                        "name": "Refunded Gas",
                        "value": 4800
                    }
                ],
                "depth": -2,
                "name": "Total Gas",
                "value": 34412
            }
        ],
        "isConfirmed": true,
        "mainTrace": [
            {
                "children": [
                    {
                        "children": [
                            {
                                "children": [],
                                "depth": 1,
                                "id": 1,
                                "order": 1
                            }
                        ],
                        "depth": 0,
                        "id": 0,
                        "order": 0
                    }
                ],
                "depth": -1,
                "id": -1,
                "order": -1
            }
        ],
        "mainTraceNodeCount": 2,
        "parentIdMap": {
            "0": -1,
            "1": 0
        },
        "tidyTrace": [
            {
                "children": [
                    {
                        "children": [
                            {
                                "children": [],
                                "depth": 1,
                                "id": 1,
                                "order": 1
                            }
                        ],
                        "depth": 0,
                        "id": 0,
                        "order": 0
                    }
                ],
                "depth": -1,
                "id": -1,
                "order": -1
            }
        ],
        "tidyTraceNodeCount": 2
    },
    "state_change": {
        "stateChanges": [
            {
                "address": "0x50d1c9771902476076ecfc8b2a83ad6b9355a4c9",
                "erc": "ERC-20",
                "slots": [
                    {
                        "current": "0x0000000000000000000000000000000000000000000000000000000000000000",
                        "key": "0x7368fe6881707680ec04f2beafe70f9c62eb1cc57dc785c05c1c7d7c7aca50a9",
                        "prev": "0x000000000000000000000000000000000000000000000000574a91ac95350000"
                    },
                    {
                        "current": "0x0000000000000000000000000000000000000000000e6f1245998af49b89e60c",
                        "key": "0xc0ec8fbf02d70b2873f5a76f503e97bd1b0ca8048ab517fad231214a74ebe459",
                        "prev": "0x0000000000000000000000000000000000000000000e6f11ee4ef9480654e60c"
                    }
                ],
                "storageVariables": [
                    {
                        "name": "_balances",
                        "type": "mapping(address => uint256)",
                        "value": {
                            "pairs": [
                                {
                                    "key": "0x28c6c06298d514db089934071355e5743bf21d60",
                                    "value": {
                                        "current": "17449481210789109076452876",
                                        "prev": "17449474920789109076452876",
                                        "typeTag": 1
                                    }
                                },
                                {
                                    "key": "0x460799a85a61b05e72c69ac090c863ddeaa9185a",
                                    "value": {
                                        "current": "0",
                                        "prev": "6290000000000000000",
                                        "typeTag": 1
                                    }
                                }
                            ],
                            "typeTag": 4
                        }
                    }
                ]
            }
        ]
    }
}