{
    "balance_change": {
        "balanceChanges": []
    },
    "profile": {
        "basic_info": {
            "baseFee": "",
            "blockNumber": 5495344,
            "callData": "0x0a19b14a0000000000000000000000000000000000000000000000000000000000000000000000000000000000000000000000000000000000000000075762b27e2e8000000000000000000000000000e3818504c1b32bf1557b16c238b2e01fd3149c1700000000000000000000000000000000000000000000003635c9adc5dea00000000000000000000000000000000000000000000000000000000000000053ffe900000000000000000000000000000000000000000000000000000000baae022c00000000000000000000000041584d17e59b1685ffd79bee737a849c9a2bd29c000000000000000000000000000000000000000000000000000000000000001c74c59a9bce78df3677cebf9d8f2b2d9cd3b198a7959c052ee32fe1aef0798cef50e00e3129cd51d068fcbd2f97c1449b9a0229c313095de7b08e5c2128b3b87c0000000000000000000000000000000000000000000000000755819315187018",
            "debugEnable": true,
            "errorInfo": "",
            "eventCount": 1,
            "feeRecipient": "0x52bc44d5378309ee2abf1539bf71de1b7d7be3b5",
            "formatValue": "0",
            "gasLimit": 250000,
            "gasPrice": "2",
            "gasUsed": 93242,
            "intTxnCount": 2,
            "internalRevert": false,
            "internalRevertMessage": "",
            "isContractCreation": false,
            "isFlashloan": false,
            "maxFee": "",
            "nonce": 773,
            "overwritedBlockNumber": -1,
            "priorityFee": "",
            "receiver": "0x8d12a197cb00d4747a1fe03395095ce2a5cc6819",
            "revertMessage": "",
            "sender": "0x7418b4b9327b2dd18ac90ef2ef846b36f286ada4",
            "simulationEnable": true,
            "sourceTxnHash": "0x88f0f80e28b5bc9d1872e0c24c927c5db314abe26ddb5a55c5b5fa94c34c39b8",
            "status": true,
            "timestamp": "2018-04-24T03:36:44Z",
            "transactionFee": "0.000186484",
            "txnHash": "0x88f0f80e28b5bc9d1872e0c24c927c5db314abe26ddb5a55c5b5fa94c34c39b8",
            "txnIndex": 61,
            "type": 0,
            "value": "0"
        },
        "fund_flow": [],
        "token_infos": [
            {
                "address": "0xc02aaa39b223fe8d0a0e5c4f27ead9083c756cc2",
                "decimals": 18
            },
            {
                "address": "0xeeeeeeeeeeeeeeeeeeeeeeeeeeeeeeeeeeeeeeee",
                "decimals": 18
            }
        ]
    },
    "address_label": {
        "labels": [
            {
                "address": "0x8d12a197cb00d4747a1fe03395095ce2a5cc6819",
                "label": "EtherDelta"
            },
            {
                "address": "0x0000000000000000000000000000000000000002",
                "label": "Precompiled"
            },
            {
                "address": "0x0000000000000000000000000000000000000000",
                "label": "Null Address"
            },
            {
                "address": "0xe3818504c1b32bf1557b16c238b2e01fd3149c17",
                "label": "Pillar Project: PLR Token"
            },
            {
                "address": "0x0000000000000000000000000000000000000001",
                "label": "Precompiled"
            },
            {
                "address": "0x0000000000000000000000000000000000000003",
                "label": "Precompiled"
            },
            {
                "address": "0x0000000000000000000000000000000000000004",
                "label": "Precompiled"
            },
            {
                "address": "0xeeeeeeeeeeeeeeeeeeeeeeeeeeeeeeeeeeeeeeee",
                "label": "Ether"
            }
        ]
    },
    "trace": {
        "accountLabels": null,
        "dataMap": {
            "-1": {
                "invocation": {
                    "address": "0x7418b4b9327b2dd18ac90ef2ef846b36f286ada4",
                    "callData": "",
                    "decodedMethod": null,
                    "errorInfo": "",
                    "fromAddress": "",
                    "gasUsed": 0,
                    "id": -1,
                    "methodDecoded": false,
                    "operation": "",
                    "output": "",
                    "revert": false,
                    "revertMessage": "",
                    "selector": "",
                    "status": false,
                    "value": ""
                },
                "nodeType": 0
            },
            "0": {
                "invocation": {
                    "address": "0x8d12a197cb00d4747a1fe03395095ce2a5cc6819",
                    "callData": "0x0000000000000000000000000000000000000000000000000000000000000000000000000000000000000000000000000000000000000000075762b27e2e8000000000000000000000000000e3818504c1b32bf1557b16c238b2e01fd3149c1700000000000000000000000000000000000000000000003635c9adc5dea00000000000000000000000000000000000000000000000000000000000000053ffe900000000000000000000000000000000000000000000000000000000baae022c00000000000000000000000041584d17e59b1685ffd79bee737a849c9a2bd29c000000000000000000000000000000000000000000000000000000000000001c74c59a9bce78df3677cebf9d8f2b2d9cd3b198a7959c052ee32fe1aef0798cef50e00e3129cd51d068fcbd2f97c1449b9a0229c313095de7b08e5c2128b3b87c0000000000000000000000000000000000000000000000000755819315187018",
                    "decodedMethod": {
                        "callParams": [
                            {
                                "name": "tokenGet",
                                "type": "address",
                                "value": "0x0000000000000000000000000000000000000000"
                            },
                            {
                                "name": "amountGet",
                                "type": "uint256",
                                "value": "529,000,000,000,000,000"
                            },
                            {
                                "name": "tokenGive",
                                "type": "address",
                                "value": "0xe3818504c1b32bf1557b16c238b2e01fd3149c17"
                            },
                            {
                                "name": "amountGive",
                                "type": "uint256",
                                "value": "1,000,000,000,000,000,000,000"
                            },
                            {
                                "name": "expires",
                                "type": "uint256",
                                "value": "5,505,001"
                            },
                            {
                                "name": "nonce",
                                "type": "uint256",
                                "value": "3,131,965,996"
                            },
                            {
                                "name": "user",
                                "type": "address",
                                "value": "0x41584d17e59b1685ffd79bee737a849c9a2bd29c"
                            },
                            {
                                "name": "v",
                                "type": "uint8",
                                "value": "28"
                            },
                            {
                                "name": "r",
                                "type": "bytes32",
                                "value": "0x74c59a9bce78df3677cebf9d8f2b2d9cd3b198a7959c052ee32fe1aef0798cef"
                            },
                            {
                                "name": "s",
                                "type": "bytes32",
                                "value": "0x50e00e3129cd51d068fcbd2f97c1449b9a0229c313095de7b08e5c2128b3b87c"
                            },
                            {
                                "name": "amount",
                                "type": "uint256",
                                "value": "528,471,000,000,000,024"
                            }
                        ],
                        "constructorArguments": "",
                        "name": "trade",
                        "returnParams": [],
                        "signature": "trade(address,uint256,address,uint256,uint256,uint256,address,uint8,bytes32,bytes32,uint256)"
                    },
                    "errorInfo": "",
                    "fromAddress": "0x7418b4b9327b2dd18ac90ef2ef846b36f286ada4",
                    "gasUsed": 93242,
                    "id": 0,
                    "methodDecoded": true,
                    "operation": "CALL",
                    "output": "",
                    "revert": false,
                    "revertMessage": "",
                    "selector": "0x0a19b14a",
                    "status": true,
                    "value": "0"
                },
                "nodeType": 0
            },
            "1": {
                "invocation": {
                    "address": "0x0000000000000000000000000000000000000002",
                    "callData": "0xcb00d4747a1fe03395095ce2a5cc68190000000000000000000000000000000000000000000000000000000000000000000000000000000000000000075762b27e2e8000e3818504c1b32bf1557b16c238b2e01fd3149c1700000000000000000000000000000000000000000000003635c9adc5dea00000000000000000000000000000000000000000000000000000000000000053ffe900000000000000000000000000000000000000000000000000000000baae022c",
                    "decodedMethod": {
                        "callParams": [
                            {
                                "name": "data",
                                "type": "bytes",
                                "value": "0x8d12a197cb00d4747a1fe03395095ce2a5cc68190000000000000000000000000000000000000000000000000000000000000000000000000000000000000000075762b27e2e8000e3818504c1b32bf1557b16c238b2e01fd3149c1700000000000000000000000000000000000000000000003635c9adc5dea00000000000000000000000000000000000000000000000000000000000000053ffe900000000000000000000000000000000000000000000000000000000baae022c"
                            }
                        ],
                        "constructorArguments": "",
                        "name": "sha256hash",
                        "returnParams": [
                            {
                                "name": "hash",
                                "type": "bytes32",
                                "value": "0x8d9f445c5d1eb71302e9e3d59fcd329397701c41e30e79acc61ae00ed51779fa"
                            }
                        ],
                        "signature": "sha256hash(bytes)"
                    },
                    "errorInfo": "",
                    "fromAddress": "0x8d12a197cb00d4747a1fe03395095ce2a5cc6819",
                    "gasUsed": 132,
                    "id": 1,
                    "methodDecoded": true,
                    "operation": "CALL",
                    "output": "0x8d9f445c5d1eb71302e9e3d59fcd329397701c41e30e79acc61ae00ed51779fa",
                    "revert": false,
                    "revertMessage": "",
                    "selector": "0x8d12a197",
                    "status": true,
                    "value": "0"
                },
                "nodeType": 0
            },
            "2": {
                "invocation": {
                    "address": "0x0000000000000000000000000000000000000001",
                    "callData": "0x304df486d79664b9dc31580b30bc1fce14737cb33bf72c5739d6e116000000000000000000000000000000000000000000000000000000000000001c74c59a9bce78df3677cebf9d8f2b2d9cd3b198a7959c052ee32fe1aef0798cef50e00e3129cd51d068fcbd2f97c1449b9a0229c313095de7b08e5c2128b3b87c",
                    "decodedMethod": {
                        "callParams": [
                            {
                                "name": "hash",
                                "type": "bytes32",
                                "value": "0x8544d220304df486d79664b9dc31580b30bc1fce14737cb33bf72c5739d6e116"
                            },
                            {
                                "name": "v",
                                "type": "uint256",
                                "value": "28"
                            },
                            {
                                "name": "r",
                                "type": "bytes32",
                                "value": "0x74c59a9bce78df3677cebf9d8f2b2d9cd3b198a7959c052ee32fe1aef0798cef"
                            },
                            {
                                "name": "s",
                                "type": "bytes32",
                                "value": "0x50e00e3129cd51d068fcbd2f97c1449b9a0229c313095de7b08e5c2128b3b87c"
                            }
                        ],
                        "constructorArguments": "",
                        "name": "ecrecover",
                        "returnParams": [
                            {
                                "name": "",
                                "type": "address",
                                "value": "0x41584d17e59b1685ffd79bee737a849c9a2bd29c"
                            }
                        ],
                        "signature": "ecrecover(bytes32,uint256,bytes32,bytes32)"
                    },
                    "errorInfo": "",
                    "fromAddress": "0x8d12a197cb00d4747a1fe03395095ce2a5cc6819",
                    "gasUsed": 3000,
                    "id": 2,
                    "methodDecoded": true,
                    "operation": "CALL",
                    "output": "0x00000000000000000000000041584d17e59b1685ffd79bee737a849c9a2bd29c",
                    "revert": false,
                    "revertMessage": "",
                    "selector": "0x8544d220",
                    "status": true,
                    "value": "0"
                },
                "nodeType": 0
            },
            "3": {
                "event": {
                    "contract": "0x8d12a197cb00d4747a1fe03395095ce2a5cc6819",
                    "decodedLog": {
                        "name": "Trade",
                        "params": [
                            {
                                "name": "tokenGet",
                                "type": "address",
                                "value": "0x0000000000000000000000000000000000000000"
                            },
                            {
                                "name": "amountGet",
                                "type": "uint256",
                                "value": "528,471,000,000,000,024"
                            },
                            {
                                "name": "tokenGive",
                                "type": "address",
                                "value": "0xe3818504c1b32bf1557b16c238b2e01fd3149c17"
                            },
                            {
                                "name": "amountGive",
                                "type": "uint256",
                                "value": "999,000,000,000,000,045,368"
                            },
                            {
                                "name": "get",
                                "type": "address",
                                "value": "0x41584d17e59b1685ffd79bee737a849c9a2bd29c"
                            },
                            {
                                "name": "give",
                                "type": "address",
                                "value": "0x7418b4b9327b2dd18ac90ef2ef846b36f286ada4"
                            }
                        ],
                        "signature": "Trade(address,uint256,address,uint256,address,address)"
                    },
                    "id": 3,
                    "logData": "0x00000000000000000000000000000000000000000000000000000000000000000000000000000000000000000000000000000000000000000755819315187018000000000000000000000000e3818504c1b32bf1557b16c238b2e01fd3149c1700000000000000000000000000000000000000000000003627e8f712373cb13800000000000000000000000041584d17e59b1685ffd79bee737a849c9a2bd29c0000000000000000000000007418b4b9327b2dd18ac90ef2ef846b36f286ada4",
                    "logDecoded": true,
                    "operation": "EVENT",
                    "revert": false,
                    "status": true,
                    "topics": [
                        "0x6effdda786735d5033bfad5f53e5131abcced9e52be6c507b62d639685fbed6d"
                    ]
                },
                "nodeType": 1
            }
        },
        "gasFlame": [
            {
                "children": [
                    {
                        "children": [
                            {
                                "children": [],
                                "depth": 0,
                                "name": "Initial Gas",
                                "value": 31256
                            },
                            {
                                "children": [
                                    {
                                        "children": [],
                                        "depth": 1,
                                        "name": "sha256hash",
                                        "value": 132
                                    },
                                    {
                                        "children": [],
                                        "depth": 1,
                                        "name": "ecrecover",
                                        "value": 3000
                                    }
                                ],
                                "depth": 0,
                                "name": "Executed Gas",
                                "value": 61986
                            }
                        ],
                        "depth": -1,
                        "name": "Actual Gas Used",
                        "value": 93242
                    },
                    {
                        "children": [],
                        "depth": -1,
                        "name": "Refunded Gas",
                        "value": 0
                    }
                ],
                "depth": -2,
                "name": "Total Gas",
                "value": 93242
            }
        ],
        "isConfirmed": true,
        "mainTrace": [
            {
                "children": [
                    {
                        "children": [
                            {
                                "children": [],
                                "depth": 1,
                                "id": 1,
                                "order": 1
                            },
                            {
                                "children": [],
                                "depth": 1,
                                "id": 2,
                                "order": 2
                            },
                            {
                                "children": [],
                                "depth": 1,
                                "id": 3,
                                "order": 3
                            }
                        ],
                        "depth": 0,
                        "id": 0,
                        "order": 0
                    }
                ],
                "depth": -1,
                "id": -1,
                "order": -1
            }
        ],
        "mainTraceNodeCount": 4,
        "parentIdMap": {
            "0": -1,
            "1": 0,
            "2": 0,
            "3": 0
        },
        "tidyTrace": [
            {
                "children": [
                    {
                        "children": [
                            {
                                "children": [],
                                "depth": 1,
                                "id": 1,
                                "order": 1
                            },
                            {
                                "children": [],
                                "depth": 1,
                                "id": 2,
                                "order": 2
                            },
                            {
                                "children": [],
                                "depth": 1,
                                "id": 3,
                                "order": 3
                            }
                        ],
                        "depth": 0,
                        "id": 0,
                        "order": 0
                    }
                ],
                "depth": -1,
                "id": -1,
                "order": -1
            }
        ],
        "tidyTraceNodeCount": 4
    },
    "state_change": {
        "stateChanges": [
            {
                "address": "0x8d12a197cb00d4747a1fe03395095ce2a5cc6819",
                "erc": "",
                "slots": [
                    {
                        "current": "0x00000000000000000000000000000000000000000000005bffad77ba3e077b16",
                        "key": "0x5d03823cbd372ef53c9f0309141a3f510f6d34149f3af4580e30b9e574674512",
                        "prev": "0x000000000000000000000000000000000000000000000025d7c480a806cac9de"
                    },
                    {
                        "current": "0x0000000000000000000000000000000000000000000000000755819315187018",
                        "key": "0x1267177ead7cfc7c947f1130842c9188d6a500bcebefa98a77ef6f88817402a3",
                        "prev": "0x0000000000000000000000000000000000000000000000000000000000000000"
                    },
                    {
                        "current": "0x0000000000000000000000000000000000000000000000002582a7a0f4875738",
                        "key": "0x0f00fe690fa4e35cca8528eccdf63d5c7375bb40c0d7d817791c40caaea4721c",
                        "prev": "0x0000000000000000000000000000000000000000000000002cddcb20c44fb950"
                    },
                    {
                        "current": "0x0000000000000000000000000000000000000000000000000bfb9c6d5ad3ea25",
                        "key": "0x823e4cf288116d6e0b67a1aa0844750b5a421167d2ea5c4e9c64e070c5ee2eb6",
                        "prev": "0x00000000000000000000000000000000000000000000000004a61ada45bb7a0d"
                    },
                    {
                        "current": "0x000000000000000000000000000000000000000000000006cf46708175018335",
                        "key": "0xaa5aa2a1f1e8b58d97a3b82f0ea3de5691008176a599589980f87fdf576b8a0f",
                        "prev": "0x000000000000000000000000000000000000000000000006cf40ce94ba519135"
                    },
                    {
                        "current": "0x0000000000000000000000000000000000000000000000000f42e323cecd2590",
                        "key": "0x650078d6f2ab19b8f0d9fd193591e23c8a54936a42de92ab3edc7c91d39593ca",
                        "prev": "0x000000000000000000000000000000000000000000000036372bda360609d6c8"
                    }
                ],
                "storageVariables": []
            }
        ]
    }
}