{
    "balance_change": {
        "balanceChanges": [
            {
                "account": "0xf0bb13051be712970c9bb50233bfac25a654afd6",
                "assets": [
                    {
                        "address": "0xeeeeeeeeeeeeeeeeeeeeeeeeeeeeeeeeeeeeeeee",
                        "amount": "0.616698023120498655",
                        "iconUrl": "https://assets.blocksec.com/image/1663669189317-3.png",
                        "isERC1155": false,
                        "isERC721": false,
                        "sign": false,
                        "value": ""
                    },
                    {
                        "address": "0xe15e9c0bf6b6b29d3b9e1c921ab2cb09c2194463",
                        "amount": "1",
                        "iconUrl": "",
                        "isERC1155": false,
                        "isERC721": true,
                        "sign": true,
                        "tokenID": "21798",
                        "value": ""
                    }
                ]
            },
            {
                "account": "0x0000000000000000000000000000000000000000",
                "assets": [
                    {
                        "address": "0xe15e9c0bf6b6b29d3b9e1c921ab2cb09c2194463",
                        "amount": "1",
                        "iconUrl": "",
                        "isERC1155": false,
                        "isERC721": true,
                        "sign": false,
                        "tokenID": "21798",
                        "value": ""
                    }
                ]
            },
            {
                "account": "0xb29ba062ae71eb4f26fc00e071585907e176951b",
                "assets": [
                    {
                        "address": "0xeeeeeeeeeeeeeeeeeeeeeeeeeeeeeeeeeeeeeeee",
                        "amount": "0.326762023120498655",
                        "iconUrl": "https://assets.blocksec.com/image/1663669189317-3.png",
                        "isERC1155": false,
                        "isERC721": false,
                        "sign": true,
                        "value": ""
                    }
                ]
            },
            {
                "account": "0xe4952e54e0797f90eb119464aaa54d30a34011a5",
                "assets": [
                    {
                        "address": "0xeeeeeeeeeeeeeeeeeeeeeeeeeeeeeeeeeeeeeeee",
                        "amount": "0.289936",
                        "iconUrl": "https://assets.blocksec.com/image/1663669189317-3.png",
                        "isERC1155": false,
                        "isERC721": false,
                        "sign": true,
                        "value": ""
                    }
                ]
            }
        ]
    },
    "profile": {
        "basic_info": {
            "baseFee": "",
            "blockNumber": 9413471,
            "callData": "0x59f9cf0c000000000000000000000000000000000000000000000000000000000000017600000000000000000000000000000000000000000000000000000000000001730000000000000000000000000000000000000000000000000000000000000097000000000000000000000000000000000000000000000000000000000000000000000000000000000000000000000000000000000000000000000000000000a00000000000000000000000000000000000000000000000000000000000000041530c2c8a755cdaadf66cda3ba21753817a700d5c5adf2c395ecb93d082b654480be4bded3a48ca63ad1755fbf4d51a9205b35349ad3e63fbe0349bcf5517077c1b00000000000000000000000000000000000000000000000000000000000000",
            "debugEnable": true,
            "errorInfo": "",
            "eventCount": 28,
            "feeRecipient": "0x5a0b54d5dc17e0aadc383d2db43b0a0d3e029c4c",
            "formatValue": "0.616698023120498655",
            "gasLimit": 1073133,
            "gasPrice": "8",
            "gasUsed": 714281,
            "intTxnCount": 26,
            "internalRevert": false,
            "internalRevertMessage": "",
            "isContractCreation": false,
            "isFlashloan": false,
            "maxFee": "",
            "nonce": 1515,
            "overwritedBlockNumber": -1,
            "priorityFee": "",
            "receiver": "0x77598616174a411ae9a1e197640903faab9ac1ae",
            "revertMessage": "",
            "sender": "0xf0bb13051be712970c9bb50233bfac25a654afd6",
            "simulationEnable": true,
            "sourceTxnHash": "0x884f9022db3e45b1ee81f70d42017db1614e1cf34e4365a0d47ed5351f6b7421",
            "status": true,
            "timestamp": "2020-02-04T02:53:50Z",
            "transactionFee": "0.005714248",
            "txnHash": "0x884f9022db3e45b1ee81f70d42017db1614e1cf34e4365a0d47ed5351f6b7421",
            "txnIndex": 85,
            "type": 0,
            "value": "616698023120498655"
        },
        "fund_flow": [
            {
                "amount": "0.616698023120498655",
                "from": "0xf0bb13051be712970c9bb50233bfac25a654afd6",
                "id": 1,
                "isERC1155": false,
                "isERC721": false,
                "isReverted": false,
                "order": 1,
                "to": "0x77598616174a411ae9a1e197640903faab9ac1ae",
                "token": "0xeeeeeeeeeeeeeeeeeeeeeeeeeeeeeeeeeeeeeeee"
            },
            {
                "amount": "1",
                "from": "0x0000000000000000000000000000000000000000",
                "id": 2,
                "isERC1155": false,
                "isERC721": true,
                "isReverted": false,
                "order": 2,
                "to": "0xf0bb13051be712970c9bb50233bfac25a654afd6",
                "token": "0xe15e9c0bf6b6b29d3b9e1c921ab2cb09c2194463",
                "tokenID": "21798"
            },
            {
                "amount": "0.326762023120498655",
                "from": "0x77598616174a411ae9a1e197640903faab9ac1ae",
                "id": 3,
                "isERC1155": false,
                "isERC721": false,
                "isReverted": false,
                "order": 3,
                "to": "0x990cd466bc4875fc0a87741372a716cc7fe21125",
                "token": "0xeeeeeeeeeeeeeeeeeeeeeeeeeeeeeeeeeeeeeeee"
            },
            {
                "amount": "0.326762023120498655",
                "from": "0x990cd466bc4875fc0a87741372a716cc7fe21125",
                "id": 4,
                "isERC1155": false,
                "isERC721": false,
                "isReverted": false,
                "order": 4,
                "to": "0xb29ba062ae71eb4f26fc00e071585907e176951b",
                "token": "0xeeeeeeeeeeeeeeeeeeeeeeeeeeeeeeeeeeeeeeee"
            },
            {
                "amount": "0.289936",
                "from": "0x77598616174a411ae9a1e197640903faab9ac1ae",
                "id": 5,
                "isERC1155": false,
                "isERC721": false,
                "isReverted": false,
                "order": 5,
                "to": "0xe4952e54e0797f90eb119464aaa54d30a34011a5",
                "token": "0xeeeeeeeeeeeeeeeeeeeeeeeeeeeeeeeeeeeeeeee"
            }
        ],
        "token_infos": [
            {
                "address": "0xc02aaa39b223fe8d0a0e5c4f27ead9083c756cc2",
                "decimals": 18
            },
            {
                "address": "0xeeeeeeeeeeeeeeeeeeeeeeeeeeeeeeeeeeeeeeee",
                "decimals": 18
            }
        ]
    },
    "address_label": {
        "labels": [
            {
                "address": "0xeeeeeeeeeeeeeeeeeeeeeeeeeeeeeeeeeeeeeeee",
                "label": "Ether"
            },
            {
                "address": "0x0000000000000000000000000000000000000000",
                "label": "Null Address"
            },
            {
                "address": "0xe15e9c0bf6b6b29d3b9e1c921ab2cb09c2194463",
                "label": "MegaCryptoPolis: MCPL Token"
            },
            {
                "address": "0x0000000000000000000000000000000000000001",
                "label": "Precompiled"
            },
            {
                "address": "0x0000000000000000000000000000000000000002",
                "label": "Precompiled"
            },
            {
                "address": "0x0000000000000000000000000000000000000003",
                "label": "Precompiled"
            },
            {
                "address": "0x0000000000000000000000000000000000000004",
                "label": "Precompiled"
            }
        ]
    },
    "trace": {
        "accountLabels": null,
        "dataMap": {
            "-1": {
                "invocation": {
                    "address": "0xf0bb13051be712970c9bb50233bfac25a654afd6",
                    "callData": "",
                    "decodedMethod": null,
                    "errorInfo": "",
                    "fromAddress": "",
                    "gasUsed": 0,
                    "id": -1,
                    "methodDecoded": false,
                    "operation": "",
                    "output": "",
                    "revert": false,
                    "revertMessage": "",
                    "selector": "",
                    "status": false,
                    "value": ""
                },
                "nodeType": 0
            },
            "0": {
                "invocation": {
                    "address": "0x77598616174a411ae9a1e197640903faab9ac1ae",
                    "callData": "0x000000000000000000000000000000000000000000000000000000000000017600000000000000000000000000000000000000000000000000000000000001730000000000000000000000000000000000000000000000000000000000000097000000000000000000000000000000000000000000000000000000000000000000000000000000000000000000000000000000000000000000000000000000a00000000000000000000000000000000000000000000000000000000000000041530c2c8a755cdaadf66cda3ba21753817a700d5c5adf2c395ecb93d082b654480be4bded3a48ca63ad1755fbf4d51a9205b35349ad3e63fbe0349bcf5517077c1b00000000000000000000000000000000000000000000000000000000000000",
                    "decodedMethod": {
                        "callParams": [
                            {
                                "name": "_x",
                                "type": "int64",
                                "value": "374"
                            },
                            {
                                "name": "_y",
                                "type": "int64",
                                "value": "371"
                            },
                            {
                                "name": "_regionId",
                                "type": "uint16",
                                "value": "151"
                            },
                            {
                                "name": "_resources",
                                "type": "uint8",
                                "value": "0"
                            },
                            {
                                "name": "_signature",
                                "type": "bytes",
                                "value": "0x530c2c8a755cdaadf66cda3ba21753817a700d5c5adf2c395ecb93d082b654480be4bded3a48ca63ad1755fbf4d51a9205b35349ad3e63fbe0349bcf5517077c1b"
                            }
                        ],
                        "constructorArguments": "",
                        "name": "buyLandSigned",
                        "returnParams": [],
                        "signature": "buyLandSigned(int64,int64,uint16,uint8,bytes)"
                    },
                    "errorInfo": "",
                    "fromAddress": "0xf0bb13051be712970c9bb50233bfac25a654afd6",
                    "gasUsed": 714281,
                    "id": 0,
                    "methodDecoded": true,
                    "operation": "CALL",
                    "output": "",
                    "revert": false,
                    "revertMessage": "",
                    "selector": "0x59f9cf0c",
                    "status": true,
                    "value": "0.616698023120498655"
                },
                "nodeType": 0
            },
            "1": {
                "invocation": {
                    "address": "0xe15e9c0bf6b6b29d3b9e1c921ab2cb09c2194463",
                    "callData": "0x00000000000000000000000000000000000000000000000000000000000001760000000000000000000000000000000000000000000000000000000000000173",
                    "decodedMethod": {
                        "callParams": [
                            {
                                "name": "_x",
                                "type": "int64",
                                "value": "374"
                            },
                            {
                                "name": "_y",
                                "type": "int64",
                                "value": "371"
                            }
                        ],
                        "constructorArguments": "",
                        "name": "getCell",
                        "returnParams": [
                            {
                                "name": "buildingId",
                                "type": "uint8",
                                "value": "0"
                            },
                            {
                                "name": "buildingLevel",
                                "type": "uint8",
                                "value": "0"
                            },
                            {
                                "name": "buildingTypeId",
                                "type": "uint8",
                                "value": "0"
                            },
                            {
                                "name": "regionId",
                                "type": "uint16",
                                "value": "0"
                            },
                            {
                                "name": "tokenId",
                                "type": "uint256",
                                "value": "0"
                            }
                        ],
                        "signature": "getCell(int64,int64)"
                    },
                    "errorInfo": "",
                    "fromAddress": "0x77598616174a411ae9a1e197640903faab9ac1ae",
                    "gasUsed": 7703,
                    "id": 1,
                    "methodDecoded": true,
                    "operation": "STATICCALL",
                    "output": "0x00000000000000000000000000000000000000000000000000000000000000000000000000000000000000000000000000000000000000000000000000000000000000000000000000000000000000000000000000000000000000000000000000000000000000000000000000000000000000000000000000000000000000000000000000000000000000000000000000000000000000000000000000000000",
                    "revert": false,
                    "revertMessage": "",
                    "selector": "0x087d5b69",
                    "status": true,
                    "value": "0"
                },
                "nodeType": 0
            },
            "10": {
                "invocation": {
                    "address": "0xe15e9c0bf6b6b29d3b9e1c921ab2cb09c2194463",
                    "callData": "0x000000000000000000000000000000000000000000000000000000000000017600000000000000000000000000000000000000000000000000000000000001730000000000000000000000000000000000000000000000000000000000000003",
                    "decodedMethod": {
                        "callParams": [
                            {
                                "name": "_x",
                                "type": "int64",
                                "value": "374"
                            },
                            {
                                "name": "_y",
                                "type": "int64",
                                "value": "371"
                            },
                            {
                                "name": "_radius",
                                "type": "int256",
                                "value": "3"
                            }
                        ],
                        "constructorArguments": "",
                        "name": "getTokens",
                        "returnParams": [
                            {
                                "name": "tokenIds",
                                "type": "uint256[]",
                                "value": [
                                    "7,057",
                                    "18,654",
                                    "7,053",
                                    "7,058",
                                    "10,044",
                                    "7,054",
                                    "7,059",
                                    "7,062",
                                    "21,475",
                                    "21,476",
                                    "7,060",
                                    "8,371",
                                    "0",
                                    "0",
                                    "0",
                                    "0",
                                    "0",
                                    "0",
                                    "0",
                                    "0",
                                    "0",
                                    "0",
                                    "0",
                                    "0",
                                    "0",
                                    "0",
                                    "0",
                                    "0",
                                    "0",
                                    "0",
                                    "0",
                                    "0",
                                    "0",
                                    "0",
                                    "0",
                                    "0",
                                    "0",
                                    "0",
                                    "0",
                                    "0",
                                    "0",
                                    "0",
                                    "0",
                                    "0",
                                    "0",
                                    "0",
                                    "0",
                                    "0"
                                ]
                            },
                            {
                                "name": "buyPrices",
                                "type": "uint256[]",
                                "value": [
                                    "20,000,000,000,000,000",
                                    "26,388,000,000,000,000",
                                    "58,589,800,000,000,000",
                                    "163,238,742,382,812,500",
                                    "188,348,139,062,500,000",
                                    "26,388,000,000,000,000",
                                    "245,847,220,828,247,070",
                                    "220,753,085,180,664,062",
                                    "172,475,798,828,125,000",
                                    "191,535,273,681,640,625",
                                    "43,121,000,000,000,000",
                                    "97,667,125,000,000,000",
                                    "0",
                                    "0",
                                    "0",
                                    "0",
                                    "0",
                                    "0",
                                    "0",
                                    "0",
                                    "0",
                                    "0",
                                    "0",
                                    "0",
                                    "0",
                                    "0",
                                    "0",
                                    "0",
                                    "0",
                                    "0",
                                    "0",
                                    "0",
                                    "0",
                                    "0",
                                    "0",
                                    "0",
                                    "0",
                                    "0",
                                    "0",
                                    "0",
                                    "0",
                                    "0",
                                    "0",
                                    "0",
                                    "0",
                                    "0",
                                    "0",
                                    "0"
                                ]
                            },
                            {
                                "name": "owners",
                                "type": "address[]",
                                "value": [
                                    "0x5b693c6326087b8bbdc00099cf4fa38db0efeb45",
                                    "0xebea2dd52750cfa45dcade4e6f1cb0bcb3149419",
                                    "0xfc53cec0fcb74b2cb0e6643fa8c78c0d00fd25d0",
                                    "0xcea94beb3fbd7ed0d373c214c8f148fc07034372",
                                    "0xcea94beb3fbd7ed0d373c214c8f148fc07034372",
                                    "0xebea2dd52750cfa45dcade4e6f1cb0bcb3149419",
                                    "0xcea94beb3fbd7ed0d373c214c8f148fc07034372",
                                    "0xcea94beb3fbd7ed0d373c214c8f148fc07034372",
                                    "0x49318b3970c8a82275b440900be45f27bf682108",
                                    "0x49318b3970c8a82275b440900be45f27bf682108",
                                    "0x6eabce9b12a9bf9c09c28a82b7bfaf8483ded576",
                                    "0x6eabce9b12a9bf9c09c28a82b7bfaf8483ded576",
                                    "0x0000000000000000000000000000000000000000",
                                    "0x0000000000000000000000000000000000000000",
                                    "0x0000000000000000000000000000000000000000",
                                    "0x0000000000000000000000000000000000000000",
                                    "0x0000000000000000000000000000000000000000",
                                    "0x0000000000000000000000000000000000000000",
                                    "0x0000000000000000000000000000000000000000",
                                    "0x0000000000000000000000000000000000000000",
                                    "0x0000000000000000000000000000000000000000",
                                    "0x0000000000000000000000000000000000000000",
                                    "0x0000000000000000000000000000000000000000",
                                    "0x0000000000000000000000000000000000000000",
                                    "0x0000000000000000000000000000000000000000",
                                    "0x0000000000000000000000000000000000000000",
                                    "0x0000000000000000000000000000000000000000",
                                    "0x0000000000000000000000000000000000000000",
                                    "0x0000000000000000000000000000000000000000",
                                    "0x0000000000000000000000000000000000000000",
                                    "0x0000000000000000000000000000000000000000",
                                    "0x0000000000000000000000000000000000000000",
                                    "0x0000000000000000000000000000000000000000",
                                    "0x0000000000000000000000000000000000000000",
                                    "0x0000000000000000000000000000000000000000",
                                    "0x0000000000000000000000000000000000000000",
                                    "0x0000000000000000000000000000000000000000",
                                    "0x0000000000000000000000000000000000000000",
                                    "0x0000000000000000000000000000000000000000",
                                    "0x0000000000000000000000000000000000000000",
                                    "0x0000000000000000000000000000000000000000",
                                    "0x0000000000000000000000000000000000000000",
                                    "0x0000000000000000000000000000000000000000",
                                    "0x0000000000000000000000000000000000000000",
                                    "0x0000000000000000000000000000000000000000",
                                    "0x0000000000000000000000000000000000000000",
                                    "0x0000000000000000000000000000000000000000",
                                    "0x0000000000000000000000000000000000000000"
                                ]
                            }
                        ],
                        "signature": "getTokens(int64,int64,int256)"
                    },
                    "errorInfo": "",
                    "fromAddress": "0x77598616174a411ae9a1e197640903faab9ac1ae",
                    "gasUsed": 113544,
                    "id": 10,
                    "methodDecoded": true,
                    "operation": "STATICCALL",
                    "output": "0x000000000000000000000000000000000000000000000000000000000000006000000000000000000000000000000000000000000000000000000000000006800000000000000000000000000000000000000000000000000000000000000ca000000000000000000000000000000000000000000000000000000000000000300000000000000000000000000000000000000000000000000000000000001b9100000000000000000000000000000000000000000000000000000000000048de0000000000000000000000000000000000000000000000000000000000001b8d0000000000000000000000000000000000000000000000000000000000001b92000000000000000000000000000000000000000000000000000000000000273c0000000000000000000000000000000000000000000000000000000000001b8e0000000000000000000000000000000000000000000000000000000000001b930000000000000000000000000000000000000000000000000000000000001b9600000000000000000000000000000000000000000000000000000000000053e300000000000000000000000000000000000000000000000000000000000053e40000000000000000000000000000000000000000000000000000000000001b9400000000000000000000000000000000000000000000000000000000000020b3000000000000000000000000000000000000000000000000000000000000000000000000000000000000000000000000000000000000000000000000000000000000000000000000000000000000000000000000000000000000000000000000000000000000000000000000000000000000000000000000000000000000000000000000000000000000000000000000000000000000000000000000000000000000000000000000000000000000000000000000000000000000000000000000000000000000000000000000000000000000000000000000000000000000000000000000000000000000000000000000000000000000000000000000000000000000000000000000000000000000000000000000000000000000000000000000000000000000000000000000000000000000000000000000000000000000000000000000000000000000000000000000000000000000000000000000000000000000000000000000000000000000000000000000000000000000000000000000000000000000000000000000000000000000000000000000000000000000000000000000000000000000000000000000000000000000000000000000000000000000000000000000000000000000000000000000000000000000000000000000000000000000000000000000000000000000000000000000000000000000000000000000000000000000000000000000000000000000000000000000000000000000000000000000000000000000000000000000000000000000000000000000000000000000000000000000000000000000000000000000000000000000000000000000000000000000000000000000000000000000000000000000000000000000000000000000000000000000000000000000000000000000000000000000000000000000000000000000000000000000000000000000000000000000000000000000000000000000000000000000000000000000000000000000000000000000000000000000000000000000000000000000000000000000000000000000000000000000000000000000000000000000000000000000000000000000000000000000000000000000000000000000000000000000000000000000000000000000000000000000000000000000000000000000000000000000000000000000000000000000000000000000000000000000000000000000000000000000000000000000000000000000000000000000000000000000000000000000000000000000000000000000000000000000000000000000000000000000000000000000000000000000000000000000000000000000000000000000000000000000000000000000000000000000000000000000000000000000000000000000000000000000000000000000000000000000000000000000000000000000000000000000000000000000000000000000000000000000000000000000000000000000000000000000000000000000000000000000000000000000000000000000000000000000000000000000000000000000000000000000000000000000000000000000000000000000000000000000000000000000000000000000000000000000003000000000000000000000000000000000000000000000000000470de4df820000000000000000000000000000000000000000000000000000005dbfbf0655400000000000000000000000000000000000000000000000000000d0271cd87610000000000000000000000000000000000000000000000000000243f0c5754f1d54000000000000000000000000000000000000000000000000029d25a272ed1aa0000000000000000000000000000000000000000000000000005dbfbf0655400000000000000000000000000000000000000000000000000003696cbeaa7c141e000000000000000000000000000000000000000000000000031045c2e943d8fe0000000000000000000000000000000000000000000000000264c1d341808b4800000000000000000000000000000000000000000000000002a878510dc05cb1000000000000000000000000000000000000000000000000009932522f5c1000000000000000000000000000000000000000000000000000015afbbb93dbd20000000000000000000000000000000000000000000000000000000000000000000000000000000000000000000000000000000000000000000000000000000000000000000000000000000000000000000000000000000000000000000000000000000000000000000000000000000000000000000000000000000000000000000000000000000000000000000000000000000000000000000000000000000000000000000000000000000000000000000000000000000000000000000000000000000000000000000000000000000000000000000000000000000000000000000000000000000000000000000000000000000000000000000000000000000000000000000000000000000000000000000000000000000000000000000000000000000000000000000000000000000000000000000000000000000000000000000000000000000000000000000000000000000000000000000000000000000000000000000000000000000000000000000000000000000000000000000000000000000000000000000000000000000000000000000000000000000000000000000000000000000000000000000000000000000000000000000000000000000000000000000000000000000000000000000000000000000000000000000000000000000000000000000000000000000000000000000000000000000000000000000000000000000000000000000000000000000000000000000000000000000000000000000000000000000000000000000000000000000000000000000000000000000000000000000000000000000000000000000000000000000000000000000000000000000000000000000000000000000000000000000000000000000000000000000000000000000000000000000000000000000000000000000000000000000000000000000000000000000000000000000000000000000000000000000000000000000000000000000000000000000000000000000000000000000000000000000000000000000000000000000000000000000000000000000000000000000000000000000000000000000000000000000000000000000000000000000000000000000000000000000000000000000000000000000000000000000000000000000000000000000000000000000000000000000000000000000000000000000000000000000000000000000000000000000000000000000000000000000000000000000000000000000000000000000000000000000000000000000000000000000000000000000000000000000000000000000000000000000000000000000000000000000000000000000000000000000000000000000000000000000000000000000000000000000000000000000000000000000000000000000000000000000000000000000000000000000000000000000000000000000000000000000000000000000000000000000000000000000000000000000000000000000000000000000000000000000000000000000000000000000000000000000000000000000000000000000000000000000000000000000000000000000000000000000000000000000000000000000000000000000000000000000000000000300000000000000000000000005b693c6326087b8bbdc00099cf4fa38db0efeb45000000000000000000000000ebea2dd52750cfa45dcade4e6f1cb0bcb3149419000000000000000000000000fc53cec0fcb74b2cb0e6643fa8c78c0d00fd25d0000000000000000000000000cea94beb3fbd7ed0d373c214c8f148fc07034372000000000000000000000000cea94beb3fbd7ed0d373c214c8f148fc07034372000000000000000000000000ebea2dd52750cfa45dcade4e6f1cb0bcb3149419000000000000000000000000cea94beb3fbd7ed0d373c214c8f148fc07034372000000000000000000000000cea94beb3fbd7ed0d373c214c8f148fc0703437200000000000000000000000049318b3970c8a82275b440900be45f27bf68210800000000000000000000000049318b3970c8a82275b440900be45f27bf6821080000000000000000000000006eabce9b12a9bf9c09c28a82b7bfaf8483ded5760000000000000000000000006eabce9b12a9bf9c09c28a82b7bfaf8483ded576000000000000000000000000000000000000000000000000000000000000000000000000000000000000000000000000000000000000000000000000000000000000000000000000000000000000000000000000000000000000000000000000000000000000000000000000000000000000000000000000000000000000000000000000000000000000000000000000000000000000000000000000000000000000000000000000000000000000000000000000000000000000000000000000000000000000000000000000000000000000000000000000000000000000000000000000000000000000000000000000000000000000000000000000000000000000000000000000000000000000000000000000000000000000000000000000000000000000000000000000000000000000000000000000000000000000000000000000000000000000000000000000000000000000000000000000000000000000000000000000000000000000000000000000000000000000000000000000000000000000000000000000000000000000000000000000000000000000000000000000000000000000000000000000000000000000000000000000000000000000000000000000000000000000000000000000000000000000000000000000000000000000000000000000000000000000000000000000000000000000000000000000000000000000000000000000000000000000000000000000000000000000000000000000000000000000000000000000000000000000000000000000000000000000000000000000000000000000000000000000000000000000000000000000000000000000000000000000000000000000000000000000000000000000000000000000000000000000000000000000000000000000000000000000000000000000000000000000000000000000000000000000000000000000000000000000000000000000000000000000000000000000000000000000000000000000000000000000000000000000000000000000000000000000000000000000000000000000000000000000000000000000000000000000000000000000000000000000000000000000000000000000000000000000000000000000000000000000000000000000000000000000000000000000000000000000000000000000000000000000000000000000000000000000000000000000000000000000000000000000000000000000000000000000000000000000000000000000000000000000000000000000000000000000000000000000000000000000000000000000000000000000000000000000000000000000000000000000000000000000000000000000000000000000000000000000000000000000000000000000000000000000000000000000000000000000000000000000000000000000000000000000000000000000000000000000000000000000000000000000000000000000000000000000000000000000000000000000000000000000000000000000000000000000000000000000000000000000000000000000000000000000000000000000",
                    "revert": false,
                    "revertMessage": "",
                    "selector": "0xa7d9fd77",
                    "status": true,
                    "value": "0"
                },
                "nodeType": 0
            },
            "11": {
                "invocation": {
                    "address": "0x990cd466bc4875fc0a87741372a716cc7fe21125",
                    "callData": "0x0000000000000000000000005b693c6326087b8bbdc00099cf4fa38db0efeb450000000000000000000000000000000000000000000000000008e1bc9bf0400000000000000000000000000000000000000000000000000000000000000000000000000000000000000000000000000000000000000000000000000000000000",
                    "decodedMethod": null,
                    "errorInfo": "",
                    "fromAddress": "0x77598616174a411ae9a1e197640903faab9ac1ae",
                    "gasUsed": 10061,
                    "id": 11,
                    "methodDecoded": false,
                    "operation": "CALL",
                    "output": "0x0000000000000000000000000000000000000000000000000090f20503de6800",
                    "revert": false,
                    "revertMessage": "",
                    "selector": "0xcd19d279",
                    "status": true,
                    "value": "0"
                },
                "nodeType": 0
            },
            "12": {
                "event": {
                    "contract": "0x990cd466bc4875fc0a87741372a716cc7fe21125",
                    "decodedLog": null,
                    "id": 12,
                    "logData": "0x0000000000000000000000005b693c6326087b8bbdc00099cf4fa38db0efeb450000000000000000000000000000000000000000000000000008e1bc9bf0400000000000000000000000000000000000000000000000000000000000000000000000000000000000000000000000000000000000000000000000000000000000",
                    "logDecoded": false,
                    "operation": "EVENT",
                    "revert": false,
                    "status": true,
                    "topics": [
                        "0x03d6dc0b406557038d9ea4b5b4fa3db00c221664822e1129cda19670f7efa32e"
                    ]
                },
                "nodeType": 1
            },
            "13": {
                "event": {
                    "contract": "0x77598616174a411ae9a1e197640903faab9ac1ae",
                    "decodedLog": {
                        "name": "LandPayout",
                        "params": [
                            {
                                "name": "owner",
                                "type": "address",
                                "value": "0x5b693c6326087b8bbdc00099cf4fa38db0efeb45"
                            },
                            {
                                "name": "_tokenId",
                                "type": "uint256",
                                "value": "7,057"
                            },
                            {
                                "name": "_value",
                                "type": "uint256",
                                "value": "2,500,000,000,000,000"
                            },
                            {
                                "name": "_x",
                                "type": "int64",
                                "value": "374"
                            },
                            {
                                "name": "_y",
                                "type": "int64",
                                "value": "371"
                            }
                        ],
                        "signature": "LandPayout(address,uint256,uint256,int64,int64)"
                    },
                    "id": 13,
                    "logData": "0x0000000000000000000000000000000000000000000000000008e1bc9bf0400000000000000000000000000000000000000000000000000000000000000001760000000000000000000000000000000000000000000000000000000000000173",
                    "logDecoded": true,
                    "operation": "EVENT",
                    "revert": false,
                    "status": true,
                    "topics": [
                        "0x16ed9529b2be9e45690887c41c49956d729ba3e51f56bbb80884713ace45ee26",
                        "0x0000000000000000000000005b693c6326087b8bbdc00099cf4fa38db0efeb45",
                        "0x0000000000000000000000000000000000000000000000000000000000001b91"
                    ]
                },
                "nodeType": 1
            },
            "14": {
                "invocation": {
                    "address": "0x990cd466bc4875fc0a87741372a716cc7fe21125",
                    "callData": "0x000000000000000000000000ebea2dd52750cfa45dcade4e6f1cb0bcb3149419000000000000000000000000000000000000000000000000000bb7f7e0caa80000000000000000000000000000000000000000000000000000000000000000000000000000000000000000000000000000000000000000000000000000000000",
                    "decodedMethod": null,
                    "errorInfo": "",
                    "fromAddress": "0x77598616174a411ae9a1e197640903faab9ac1ae",
                    "gasUsed": 10061,
                    "id": 14,
                    "methodDecoded": false,
                    "operation": "CALL",
                    "output": "0x000000000000000000000000000000000000000000000000005ae983c17ad800",
                    "revert": false,
                    "revertMessage": "",
                    "selector": "0xcd19d279",
                    "status": true,
                    "value": "0"
                },
                "nodeType": 0
            },
            "15": {
                "event": {
                    "contract": "0x990cd466bc4875fc0a87741372a716cc7fe21125",
                    "decodedLog": null,
                    "id": 15,
                    "logData": "0x000000000000000000000000ebea2dd52750cfa45dcade4e6f1cb0bcb3149419000000000000000000000000000000000000000000000000000bb7f7e0caa80000000000000000000000000000000000000000000000000000000000000000000000000000000000000000000000000000000000000000000000000000000000",
                    "logDecoded": false,
                    "operation": "EVENT",
                    "revert": false,
                    "status": true,
                    "topics": [
                        "0x03d6dc0b406557038d9ea4b5b4fa3db00c221664822e1129cda19670f7efa32e"
                    ]
                },
                "nodeType": 1
            },
            "16": {
                "event": {
                    "contract": "0x77598616174a411ae9a1e197640903faab9ac1ae",
                    "decodedLog": {
                        "name": "LandPayout",
                        "params": [
                            {
                                "name": "owner",
                                "type": "address",
                                "value": "0xebea2dd52750cfa45dcade4e6f1cb0bcb3149419"
                            },
                            {
                                "name": "_tokenId",
                                "type": "uint256",
                                "value": "18,654"
                            },
                            {
                                "name": "_value",
                                "type": "uint256",
                                "value": "3,298,500,000,000,000"
                            },
                            {
                                "name": "_x",
                                "type": "int64",
                                "value": "374"
                            },
                            {
                                "name": "_y",
                                "type": "int64",
                                "value": "371"
                            }
                        ],
                        "signature": "LandPayout(address,uint256,uint256,int64,int64)"
                    },
                    "id": 16,
                    "logData": "0x000000000000000000000000000000000000000000000000000bb7f7e0caa80000000000000000000000000000000000000000000000000000000000000001760000000000000000000000000000000000000000000000000000000000000173",
                    "logDecoded": true,
                    "operation": "EVENT",
                    "revert": false,
                    "status": true,
                    "topics": [
                        "0x16ed9529b2be9e45690887c41c49956d729ba3e51f56bbb80884713ace45ee26",
                        "0x000000000000000000000000ebea2dd52750cfa45dcade4e6f1cb0bcb3149419",
                        "0x00000000000000000000000000000000000000000000000000000000000048de"
                    ]
                },
                "nodeType": 1
            },
            "17": {
                "invocation": {
                    "address": "0x990cd466bc4875fc0a87741372a716cc7fe21125",
                    "callData": "0x000000000000000000000000fc53cec0fcb74b2cb0e6643fa8c78c0d00fd25d0000000000000000000000000000000000000000000000000001a04e39b0ec20000000000000000000000000000000000000000000000000000000000000000000000000000000000000000000000000000000000000000000000000000000000",
                    "decodedMethod": null,
                    "errorInfo": "",
                    "fromAddress": "0x77598616174a411ae9a1e197640903faab9ac1ae",
                    "gasUsed": 10061,
                    "id": 17,
                    "methodDecoded": false,
                    "operation": "CALL",
                    "output": "0x00000000000000000000000000000000000000000000000001a486635a3d0a40",
                    "revert": false,
                    "revertMessage": "",
                    "selector": "0xcd19d279",
                    "status": true,
                    "value": "0"
                },
                "nodeType": 0
            },
            "18": {
                "event": {
                    "contract": "0x990cd466bc4875fc0a87741372a716cc7fe21125",
                    "decodedLog": null,
                    "id": 18,
                    "logData": "0x000000000000000000000000fc53cec0fcb74b2cb0e6643fa8c78c0d00fd25d0000000000000000000000000000000000000000000000000001a04e39b0ec20000000000000000000000000000000000000000000000000000000000000000000000000000000000000000000000000000000000000000000000000000000000",
                    "logDecoded": false,
                    "operation": "EVENT",
                    "revert": false,
                    "status": true,
                    "topics": [
                        "0x03d6dc0b406557038d9ea4b5b4fa3db00c221664822e1129cda19670f7efa32e"
                    ]
                },
                "nodeType": 1
            },
            "19": {
                "event": {
                    "contract": "0x77598616174a411ae9a1e197640903faab9ac1ae",
                    "decodedLog": {
                        "name": "LandPayout",
                        "params": [
                            {
                                "name": "owner",
                                "type": "address",
                                "value": "0xfc53cec0fcb74b2cb0e6643fa8c78c0d00fd25d0"
                            },
                            {
                                "name": "_tokenId",
                                "type": "uint256",
                                "value": "7,053"
                            },
                            {
                                "name": "_value",
                                "type": "uint256",
                                "value": "7,323,725,000,000,000"
                            },
                            {
                                "name": "_x",
                                "type": "int64",
                                "value": "374"
                            },
                            {
                                "name": "_y",
                                "type": "int64",
                                "value": "371"
                            }
                        ],
                        "signature": "LandPayout(address,uint256,uint256,int64,int64)"
                    },
                    "id": 19,
                    "logData": "0x000000000000000000000000000000000000000000000000001a04e39b0ec20000000000000000000000000000000000000000000000000000000000000001760000000000000000000000000000000000000000000000000000000000000173",
                    "logDecoded": true,
                    "operation": "EVENT",
                    "revert": false,
                    "status": true,
                    "topics": [
                        "0x16ed9529b2be9e45690887c41c49956d729ba3e51f56bbb80884713ace45ee26",
                        "0x000000000000000000000000fc53cec0fcb74b2cb0e6643fa8c78c0d00fd25d0",
                        "0x0000000000000000000000000000000000000000000000000000000000001b8d"
                    ]
                },
                "nodeType": 1
            },
            "2": {
                "invocation": {
                    "address": "0x28c35f7af9e63a36843a4938caf25380ffa114c4",
                    "callData": "0x201caf218e0df336b1fa5c663ece0e4c902357916d0a69f66a96b86a105d850600000000000000000000000000000000000000000000000000000000000000400000000000000000000000000000000000000000000000000000000000000041530c2c8a755cdaadf66cda3ba21753817a700d5c5adf2c395ecb93d082b654480be4bded3a48ca63ad1755fbf4d51a9205b35349ad3e63fbe0349bcf5517077c1b00000000000000000000000000000000000000000000000000000000000000",
                    "decodedMethod": {
                        "callParams": [
                            {
                                "name": "_messageHash",
                                "type": "bytes32",
                                "value": "0x201caf218e0df336b1fa5c663ece0e4c902357916d0a69f66a96b86a105d8506"
                            },
                            {
                                "name": "_signature",
                                "type": "bytes",
                                "value": "0x530c2c8a755cdaadf66cda3ba21753817a700d5c5adf2c395ecb93d082b654480be4bded3a48ca63ad1755fbf4d51a9205b35349ad3e63fbe0349bcf5517077c1b"
                            }
                        ],
                        "constructorArguments": "",
                        "name": "verifySignature",
                        "returnParams": [
                            {
                                "name": "signatureAddress",
                                "type": "address",
                                "value": "0x8b17c8f878b23c5b5d0cacf1300060ee5bb4a022"
                            }
                        ],
                        "signature": "verifySignature(bytes32,bytes)"
                    },
                    "errorInfo": "",
                    "fromAddress": "0x77598616174a411ae9a1e197640903faab9ac1ae",
                    "gasUsed": 5677,
                    "id": 2,
                    "methodDecoded": true,
                    "operation": "STATICCALL",
                    "output": "0x0000000000000000000000008b17c8f878b23c5b5d0cacf1300060ee5bb4a022",
                    "revert": false,
                    "revertMessage": "",
                    "selector": "0xdaca6f78",
                    "status": true,
                    "value": "0"
                },
                "nodeType": 0
            },
            "20": {
                "invocation": {
                    "address": "0x990cd466bc4875fc0a87741372a716cc7fe21125",
                    "callData": "0x000000000000000000000000cea94beb3fbd7ed0d373c214c8f148fc0703437200000000000000000000000000000000000000000000000000487e18aea9e3aa00000000000000000000000000000000000000000000000000000000000000000000000000000000000000000000000000000000000000000000000000000000",
                    "decodedMethod": null,
                    "errorInfo": "",
                    "fromAddress": "0x77598616174a411ae9a1e197640903faab9ac1ae",
                    "gasUsed": 10061,
                    "id": 20,
                    "methodDecoded": false,
                    "operation": "CALL",
                    "output": "0x00000000000000000000000000000000000000000000000002ac49cebbc0707d",
                    "revert": false,
                    "revertMessage": "",
                    "selector": "0xcd19d279",
                    "status": true,
                    "value": "0"
                },
                "nodeType": 0
            },
            "21": {
                "event": {
                    "contract": "0x990cd466bc4875fc0a87741372a716cc7fe21125",
                    "decodedLog": null,
                    "id": 21,
                    "logData": "0x000000000000000000000000cea94beb3fbd7ed0d373c214c8f148fc0703437200000000000000000000000000000000000000000000000000487e18aea9e3aa00000000000000000000000000000000000000000000000000000000000000000000000000000000000000000000000000000000000000000000000000000000",
                    "logDecoded": false,
                    "operation": "EVENT",
                    "revert": false,
                    "status": true,
                    "topics": [
                        "0x03d6dc0b406557038d9ea4b5b4fa3db00c221664822e1129cda19670f7efa32e"
                    ]
                },
                "nodeType": 1
            },
            "22": {
                "event": {
                    "contract": "0x77598616174a411ae9a1e197640903faab9ac1ae",
                    "decodedLog": {
                        "name": "LandPayout",
                        "params": [
                            {
                                "name": "owner",
                                "type": "address",
                                "value": "0xcea94beb3fbd7ed0d373c214c8f148fc07034372"
                            },
                            {
                                "name": "_tokenId",
                                "type": "uint256",
                                "value": "7,058"
                            },
                            {
                                "name": "_value",
                                "type": "uint256",
                                "value": "20,404,842,797,851,562"
                            },
                            {
                                "name": "_x",
                                "type": "int64",
                                "value": "374"
                            },
                            {
                                "name": "_y",
                                "type": "int64",
                                "value": "371"
                            }
                        ],
                        "signature": "LandPayout(address,uint256,uint256,int64,int64)"
                    },
                    "id": 22,
                    "logData": "0x00000000000000000000000000000000000000000000000000487e18aea9e3aa00000000000000000000000000000000000000000000000000000000000001760000000000000000000000000000000000000000000000000000000000000173",
                    "logDecoded": true,
                    "operation": "EVENT",
                    "revert": false,
                    "status": true,
                    "topics": [
                        "0x16ed9529b2be9e45690887c41c49956d729ba3e51f56bbb80884713ace45ee26",
                        "0x000000000000000000000000cea94beb3fbd7ed0d373c214c8f148fc07034372",
                        "0x0000000000000000000000000000000000000000000000000000000000001b92"
                    ]
                },
                "nodeType": 1
            },
            "23": {
                "invocation": {
                    "address": "0x990cd466bc4875fc0a87741372a716cc7fe21125",
                    "callData": "0x000000000000000000000000cea94beb3fbd7ed0d373c214c8f148fc070343720000000000000000000000000000000000000000000000000053a4b44e5da35400000000000000000000000000000000000000000000000000000000000000000000000000000000000000000000000000000000000000000000000000000000",
                    "decodedMethod": null,
                    "errorInfo": "",
                    "fromAddress": "0x77598616174a411ae9a1e197640903faab9ac1ae",
                    "gasUsed": 5861,
                    "id": 23,
                    "methodDecoded": false,
                    "operation": "CALL",
                    "output": "0x00000000000000000000000000000000000000000000000002ffee830a1e13d1",
                    "revert": false,
                    "revertMessage": "",
                    "selector": "0xcd19d279",
                    "status": true,
                    "value": "0"
                },
                "nodeType": 0
            },
            "24": {
                "event": {
                    "contract": "0x990cd466bc4875fc0a87741372a716cc7fe21125",
                    "decodedLog": null,
                    "id": 24,
                    "logData": "0x000000000000000000000000cea94beb3fbd7ed0d373c214c8f148fc070343720000000000000000000000000000000000000000000000000053a4b44e5da35400000000000000000000000000000000000000000000000000000000000000000000000000000000000000000000000000000000000000000000000000000000",
                    "logDecoded": false,
                    "operation": "EVENT",
                    "revert": false,
                    "status": true,
                    "topics": [
                        "0x03d6dc0b406557038d9ea4b5b4fa3db00c221664822e1129cda19670f7efa32e"
                    ]
                },
                "nodeType": 1
            },
            "25": {
                "event": {
                    "contract": "0x77598616174a411ae9a1e197640903faab9ac1ae",
                    "decodedLog": {
                        "name": "LandPayout",
                        "params": [
                            {
                                "name": "owner",
                                "type": "address",
                                "value": "0xcea94beb3fbd7ed0d373c214c8f148fc07034372"
                            },
                            {
                                "name": "_tokenId",
                                "type": "uint256",
                                "value": "10,044"
                            },
                            {
                                "name": "_value",
                                "type": "uint256",
                                "value": "23,543,517,382,812,500"
                            },
                            {
                                "name": "_x",
                                "type": "int64",
                                "value": "374"
                            },
                            {
                                "name": "_y",
                                "type": "int64",
                                "value": "371"
                            }
                        ],
                        "signature": "LandPayout(address,uint256,uint256,int64,int64)"
                    },
                    "id": 25,
                    "logData": "0x0000000000000000000000000000000000000000000000000053a4b44e5da35400000000000000000000000000000000000000000000000000000000000001760000000000000000000000000000000000000000000000000000000000000173",
                    "logDecoded": true,
                    "operation": "EVENT",
                    "revert": false,
                    "status": true,
                    "topics": [
                        "0x16ed9529b2be9e45690887c41c49956d729ba3e51f56bbb80884713ace45ee26",
                        "0x000000000000000000000000cea94beb3fbd7ed0d373c214c8f148fc07034372",
                        "0x000000000000000000000000000000000000000000000000000000000000273c"
                    ]
                },
                "nodeType": 1
            },
            "26": {
                "invocation": {
                    "address": "0x990cd466bc4875fc0a87741372a716cc7fe21125",
                    "callData": "0x000000000000000000000000ebea2dd52750cfa45dcade4e6f1cb0bcb3149419000000000000000000000000000000000000000000000000000bb7f7e0caa80000000000000000000000000000000000000000000000000000000000000000000000000000000000000000000000000000000000000000000000000000000000",
                    "decodedMethod": null,
                    "errorInfo": "",
                    "fromAddress": "0x77598616174a411ae9a1e197640903faab9ac1ae",
                    "gasUsed": 5861,
                    "id": 26,
                    "methodDecoded": false,
                    "operation": "CALL",
                    "output": "0x0000000000000000000000000000000000000000000000000066a17ba2458000",
                    "revert": false,
                    "revertMessage": "",
                    "selector": "0xcd19d279",
                    "status": true,
                    "value": "0"
                },
                "nodeType": 0
            },
            "27": {
                "event": {
                    "contract": "0x990cd466bc4875fc0a87741372a716cc7fe21125",
                    "decodedLog": null,
                    "id": 27,
                    "logData": "0x000000000000000000000000ebea2dd52750cfa45dcade4e6f1cb0bcb3149419000000000000000000000000000000000000000000000000000bb7f7e0caa80000000000000000000000000000000000000000000000000000000000000000000000000000000000000000000000000000000000000000000000000000000000",
                    "logDecoded": false,
                    "operation": "EVENT",
                    "revert": false,
                    "status": true,
                    "topics": [
                        "0x03d6dc0b406557038d9ea4b5b4fa3db00c221664822e1129cda19670f7efa32e"
                    ]
                },
                "nodeType": 1
            },
            "28": {
                "event": {
                    "contract": "0x77598616174a411ae9a1e197640903faab9ac1ae",
                    "decodedLog": {
                        "name": "LandPayout",
                        "params": [
                            {
                                "name": "owner",
                                "type": "address",
                                "value": "0xebea2dd52750cfa45dcade4e6f1cb0bcb3149419"
                            },
                            {
                                "name": "_tokenId",
                                "type": "uint256",
                                "value": "7,054"
                            },
                            {
                                "name": "_value",
                                "type": "uint256",
                                "value": "3,298,500,000,000,000"
                            },
                            {
                                "name": "_x",
                                "type": "int64",
                                "value": "374"
                            },
                            {
                                "name": "_y",
                                "type": "int64",
                                "value": "371"
                            }
                        ],
                        "signature": "LandPayout(address,uint256,uint256,int64,int64)"
                    },
                    "id": 28,
                    "logData": "0x000000000000000000000000000000000000000000000000000bb7f7e0caa80000000000000000000000000000000000000000000000000000000000000001760000000000000000000000000000000000000000000000000000000000000173",
                    "logDecoded": true,
                    "operation": "EVENT",
                    "revert": false,
                    "status": true,
                    "topics": [
                        "0x16ed9529b2be9e45690887c41c49956d729ba3e51f56bbb80884713ace45ee26",
                        "0x000000000000000000000000ebea2dd52750cfa45dcade4e6f1cb0bcb3149419",
                        "0x0000000000000000000000000000000000000000000000000000000000001b8e"
                    ]
                },
                "nodeType": 1
            },
            "29": {
                "invocation": {
                    "address": "0x990cd466bc4875fc0a87741372a716cc7fe21125",
                    "callData": "0x000000000000000000000000cea94beb3fbd7ed0d373c214c8f148fc07034372000000000000000000000000000000000000000000000000006d2d97d54f828300000000000000000000000000000000000000000000000000000000000000000000000000000000000000000000000000000000000000000000000000000000",
                    "decodedMethod": null,
                    "errorInfo": "",
                    "fromAddress": "0x77598616174a411ae9a1e197640903faab9ac1ae",
                    "gasUsed": 5861,
                    "id": 29,
                    "methodDecoded": false,
                    "operation": "CALL",
                    "output": "0x000000000000000000000000000000000000000000000000036d1c1adf6d9654",
                    "revert": false,
                    "revertMessage": "",
                    "selector": "0xcd19d279",
                    "status": true,
                    "value": "0"
                },
                "nodeType": 0
            },
            "3": {
                "invocation": {
                    "address": "0x0000000000000000000000000000000000000001",
                    "callData": "0x8e0df336b1fa5c663ece0e4c902357916d0a69f66a96b86a105d8506000000000000000000000000000000000000000000000000000000000000001b530c2c8a755cdaadf66cda3ba21753817a700d5c5adf2c395ecb93d082b654480be4bded3a48ca63ad1755fbf4d51a9205b35349ad3e63fbe0349bcf5517077c",
                    "decodedMethod": {
                        "callParams": [
                            {
                                "name": "hash",
                                "type": "bytes32",
                                "value": "0x201caf218e0df336b1fa5c663ece0e4c902357916d0a69f66a96b86a105d8506"
                            },
                            {
                                "name": "v",
                                "type": "uint256",
                                "value": "27"
                            },
                            {
                                "name": "r",
                                "type": "bytes32",
                                "value": "0x530c2c8a755cdaadf66cda3ba21753817a700d5c5adf2c395ecb93d082b65448"
                            },
                            {
                                "name": "s",
                                "type": "bytes32",
                                "value": "0x0be4bded3a48ca63ad1755fbf4d51a9205b35349ad3e63fbe0349bcf5517077c"
                            }
                        ],
                        "constructorArguments": "",
                        "name": "ecrecover",
                        "returnParams": [
                            {
                                "name": "",
                                "type": "address",
                                "value": "0x8b17c8f878b23c5b5d0cacf1300060ee5bb4a022"
                            }
                        ],
                        "signature": "ecrecover(bytes32,uint256,bytes32,bytes32)"
                    },
                    "errorInfo": "",
                    "fromAddress": "0x28c35f7af9e63a36843a4938caf25380ffa114c4",
                    "gasUsed": 3000,
                    "id": 3,
                    "methodDecoded": true,
                    "operation": "STATICCALL",
                    "output": "0x0000000000000000000000008b17c8f878b23c5b5d0cacf1300060ee5bb4a022",
                    "revert": false,
                    "revertMessage": "",
                    "selector": "0x201caf21",
                    "status": true,
                    "value": "0"
                },
                "nodeType": 0
            },
            "30": {
                "event": {
                    "contract": "0x990cd466bc4875fc0a87741372a716cc7fe21125",
                    "decodedLog": null,
                    "id": 30,
                    "logData": "0x000000000000000000000000cea94beb3fbd7ed0d373c214c8f148fc07034372000000000000000000000000000000000000000000000000006d2d97d54f828300000000000000000000000000000000000000000000000000000000000000000000000000000000000000000000000000000000000000000000000000000000",
                    "logDecoded": false,
                    "operation": "EVENT",
                    "revert": false,
                    "status": true,
                    "topics": [
                        "0x03d6dc0b406557038d9ea4b5b4fa3db00c221664822e1129cda19670f7efa32e"
                    ]
                },
                "nodeType": 1
            },
            "31": {
                "event": {
                    "contract": "0x77598616174a411ae9a1e197640903faab9ac1ae",
                    "decodedLog": {
                        "name": "LandPayout",
                        "params": [
                            {
                                "name": "owner",
                                "type": "address",
                                "value": "0xcea94beb3fbd7ed0d373c214c8f148fc07034372"
                            },
                            {
                                "name": "_tokenId",
                                "type": "uint256",
                                "value": "7,059"
                            },
                            {
                                "name": "_value",
                                "type": "uint256",
                                "value": "30,730,902,603,530,883"
                            },
                            {
                                "name": "_x",
                                "type": "int64",
                                "value": "374"
                            },
                            {
                                "name": "_y",
                                "type": "int64",
                                "value": "371"
                            }
                        ],
                        "signature": "LandPayout(address,uint256,uint256,int64,int64)"
                    },
                    "id": 31,
                    "logData": "0x000000000000000000000000000000000000000000000000006d2d97d54f828300000000000000000000000000000000000000000000000000000000000001760000000000000000000000000000000000000000000000000000000000000173",
                    "logDecoded": true,
                    "operation": "EVENT",
                    "revert": false,
                    "status": true,
                    "topics": [
                        "0x16ed9529b2be9e45690887c41c49956d729ba3e51f56bbb80884713ace45ee26",
                        "0x000000000000000000000000cea94beb3fbd7ed0d373c214c8f148fc07034372",
                        "0x0000000000000000000000000000000000000000000000000000000000001b93"
                    ]
                },
                "nodeType": 1
            },
            "32": {
                "invocation": {
                    "address": "0x990cd466bc4875fc0a87741372a716cc7fe21125",
                    "callData": "0x000000000000000000000000cea94beb3fbd7ed0d373c214c8f148fc07034372000000000000000000000000000000000000000000000000006208b85d287b1f00000000000000000000000000000000000000000000000000000000000000000000000000000000000000000000000000000000000000000000000000000000",
                    "decodedMethod": null,
                    "errorInfo": "",
                    "fromAddress": "0x77598616174a411ae9a1e197640903faab9ac1ae",
                    "gasUsed": 5861,
                    "id": 32,
                    "methodDecoded": false,
                    "operation": "CALL",
                    "output": "0x00000000000000000000000000000000000000000000000003cf24d33c961173",
                    "revert": false,
                    "revertMessage": "",
                    "selector": "0xcd19d279",
                    "status": true,
                    "value": "0"
                },
                "nodeType": 0
            },
            "33": {
                "event": {
                    "contract": "0x990cd466bc4875fc0a87741372a716cc7fe21125",
                    "decodedLog": null,
                    "id": 33,
                    "logData": "0x000000000000000000000000cea94beb3fbd7ed0d373c214c8f148fc07034372000000000000000000000000000000000000000000000000006208b85d287b1f00000000000000000000000000000000000000000000000000000000000000000000000000000000000000000000000000000000000000000000000000000000",
                    "logDecoded": false,
                    "operation": "EVENT",
                    "revert": false,
                    "status": true,
                    "topics": [
                        "0x03d6dc0b406557038d9ea4b5b4fa3db00c221664822e1129cda19670f7efa32e"
                    ]
                },
                "nodeType": 1
            },
            "34": {
                "event": {
                    "contract": "0x77598616174a411ae9a1e197640903faab9ac1ae",
                    "decodedLog": {
                        "name": "LandPayout",
                        "params": [
                            {
                                "name": "owner",
                                "type": "address",
                                "value": "0xcea94beb3fbd7ed0d373c214c8f148fc07034372"
                            },
                            {
                                "name": "_tokenId",
                                "type": "uint256",
                                "value": "7,062"
                            },
                            {
                                "name": "_value",
                                "type": "uint256",
                                "value": "27,594,135,647,583,007"
                            },
                            {
                                "name": "_x",
                                "type": "int64",
                                "value": "374"
                            },
                            {
                                "name": "_y",
                                "type": "int64",
                                "value": "371"
                            }
                        ],
                        "signature": "LandPayout(address,uint256,uint256,int64,int64)"
                    },
                    "id": 34,
                    "logData": "0x000000000000000000000000000000000000000000000000006208b85d287b1f00000000000000000000000000000000000000000000000000000000000001760000000000000000000000000000000000000000000000000000000000000173",
                    "logDecoded": true,
                    "operation": "EVENT",
                    "revert": false,
                    "status": true,
                    "topics": [
                        "0x16ed9529b2be9e45690887c41c49956d729ba3e51f56bbb80884713ace45ee26",
                        "0x000000000000000000000000cea94beb3fbd7ed0d373c214c8f148fc07034372",
                        "0x0000000000000000000000000000000000000000000000000000000000001b96"
                    ]
                },
                "nodeType": 1
            },
            "35": {
                "invocation": {
                    "address": "0x990cd466bc4875fc0a87741372a716cc7fe21125",
                    "callData": "0x00000000000000000000000049318b3970c8a82275b440900be45f27bf682108000000000000000000000000000000000000000000000000004c983a6830116900000000000000000000000000000000000000000000000000000000000000000000000000000000000000000000000000000000000000000000000000000000",
                    "decodedMethod": null,
                    "errorInfo": "",
                    "fromAddress": "0x77598616174a411ae9a1e197640903faab9ac1ae",
                    "gasUsed": 25061,
                    "id": 35,
                    "methodDecoded": false,
                    "operation": "CALL",
                    "output": "0x000000000000000000000000000000000000000000000000004c983a68301169",
                    "revert": false,
                    "revertMessage": "",
                    "selector": "0xcd19d279",
                    "status": true,
                    "value": "0"
                },
                "nodeType": 0
            },
            "36": {
                "event": {
                    "contract": "0x990cd466bc4875fc0a87741372a716cc7fe21125",
                    "decodedLog": null,
                    "id": 36,
                    "logData": "0x00000000000000000000000049318b3970c8a82275b440900be45f27bf682108000000000000000000000000000000000000000000000000004c983a6830116900000000000000000000000000000000000000000000000000000000000000000000000000000000000000000000000000000000000000000000000000000000",
                    "logDecoded": false,
                    "operation": "EVENT",
                    "revert": false,
                    "status": true,
                    "topics": [
                        "0x03d6dc0b406557038d9ea4b5b4fa3db00c221664822e1129cda19670f7efa32e"
                    ]
                },
                "nodeType": 1
            },
            "37": {
                "event": {
                    "contract": "0x77598616174a411ae9a1e197640903faab9ac1ae",
                    "decodedLog": {
                        "name": "LandPayout",
                        "params": [
                            {
                                "name": "owner",
                                "type": "address",
                                "value": "0x49318b3970c8a82275b440900be45f27bf682108"
                            },
                            {
                                "name": "_tokenId",
                                "type": "uint256",
                                "value": "21,475"
                            },
                            {
                                "name": "_value",
                                "type": "uint256",
                                "value": "21,559,474,853,515,625"
                            },
                            {
                                "name": "_x",
                                "type": "int64",
                                "value": "374"
                            },
                            {
                                "name": "_y",
                                "type": "int64",
                                "value": "371"
                            }
                        ],
                        "signature": "LandPayout(address,uint256,uint256,int64,int64)"
                    },
                    "id": 37,
                    "logData": "0x000000000000000000000000000000000000000000000000004c983a6830116900000000000000000000000000000000000000000000000000000000000001760000000000000000000000000000000000000000000000000000000000000173",
                    "logDecoded": true,
                    "operation": "EVENT",
                    "revert": false,
                    "status": true,
                    "topics": [
                        "0x16ed9529b2be9e45690887c41c49956d729ba3e51f56bbb80884713ace45ee26",
                        "0x00000000000000000000000049318b3970c8a82275b440900be45f27bf682108",
                        "0x00000000000000000000000000000000000000000000000000000000000053e3"
                    ]
                },
                "nodeType": 1
            },
            "38": {
                "invocation": {
                    "address": "0x990cd466bc4875fc0a87741372a716cc7fe21125",
                    "callData": "0x00000000000000000000000049318b3970c8a82275b440900be45f27bf68210800000000000000000000000000000000000000000000000000550f0a21b80b9600000000000000000000000000000000000000000000000000000000000000000000000000000000000000000000000000000000000000000000000000000000",
                    "decodedMethod": null,
                    "errorInfo": "",
                    "fromAddress": "0x77598616174a411ae9a1e197640903faab9ac1ae",
                    "gasUsed": 5861,
                    "id": 38,
                    "methodDecoded": false,
                    "operation": "CALL",
                    "output": "0x00000000000000000000000000000000000000000000000000a1a74489e81cff",
                    "revert": false,
                    "revertMessage": "",
                    "selector": "0xcd19d279",
                    "status": true,
                    "value": "0"
                },
                "nodeType": 0
            },
            "39": {
                "event": {
                    "contract": "0x990cd466bc4875fc0a87741372a716cc7fe21125",
                    "decodedLog": null,
                    "id": 39,
                    "logData": "0x00000000000000000000000049318b3970c8a82275b440900be45f27bf68210800000000000000000000000000000000000000000000000000550f0a21b80b9600000000000000000000000000000000000000000000000000000000000000000000000000000000000000000000000000000000000000000000000000000000",
                    "logDecoded": false,
                    "operation": "EVENT",
                    "revert": false,
                    "status": true,
                    "topics": [
                        "0x03d6dc0b406557038d9ea4b5b4fa3db00c221664822e1129cda19670f7efa32e"
                    ]
                },
                "nodeType": 1
            },
            "4": {
                "invocation": {
                    "address": "0xe15e9c0bf6b6b29d3b9e1c921ab2cb09c2194463",
                    "callData": "0x000000000000000000000000000000000000000000000000000000000000017600000000000000000000000000000000000000000000000000000000000001730000000000000000000000000000000000000000000000000000000000000097",
                    "decodedMethod": {
                        "callParams": [
                            {
                                "name": "_x",
                                "type": "int64",
                                "value": "374"
                            },
                            {
                                "name": "_y",
                                "type": "int64",
                                "value": "371"
                            },
                            {
                                "name": "_region",
                                "type": "uint16",
                                "value": "151"
                            }
                        ],
                        "constructorArguments": "",
                        "name": "setRegion",
                        "returnParams": [],
                        "signature": "setRegion(int64,int64,uint16)"
                    },
                    "errorInfo": "",
                    "fromAddress": "0x77598616174a411ae9a1e197640903faab9ac1ae",
                    "gasUsed": 22234,
                    "id": 4,
                    "methodDecoded": true,
                    "operation": "CALL",
                    "output": "",
                    "revert": false,
                    "revertMessage": "",
                    "selector": "0x3dd5cb79",
                    "status": true,
                    "value": "0"
                },
                "nodeType": 0
            },
            "40": {
                "event": {
                    "contract": "0x77598616174a411ae9a1e197640903faab9ac1ae",
                    "decodedLog": {
                        "name": "LandPayout",
                        "params": [
                            {
                                "name": "owner",
                                "type": "address",
                                "value": "0x49318b3970c8a82275b440900be45f27bf682108"
                            },
                            {
                                "name": "_tokenId",
                                "type": "uint256",
                                "value": "21,476"
                            },
                            {
                                "name": "_value",
                                "type": "uint256",
                                "value": "23,941,909,210,205,078"
                            },
                            {
                                "name": "_x",
                                "type": "int64",
                                "value": "374"
                            },
                            {
                                "name": "_y",
                                "type": "int64",
                                "value": "371"
                            }
                        ],
                        "signature": "LandPayout(address,uint256,uint256,int64,int64)"
                    },
                    "id": 40,
                    "logData": "0x00000000000000000000000000000000000000000000000000550f0a21b80b9600000000000000000000000000000000000000000000000000000000000001760000000000000000000000000000000000000000000000000000000000000173",
                    "logDecoded": true,
                    "operation": "EVENT",
                    "revert": false,
                    "status": true,
                    "topics": [
                        "0x16ed9529b2be9e45690887c41c49956d729ba3e51f56bbb80884713ace45ee26",
                        "0x00000000000000000000000049318b3970c8a82275b440900be45f27bf682108",
                        "0x00000000000000000000000000000000000000000000000000000000000053e4"
                    ]
                },
                "nodeType": 1
            },
            "41": {
                "invocation": {
                    "address": "0x990cd466bc4875fc0a87741372a716cc7fe21125",
                    "callData": "0x0000000000000000000000006eabce9b12a9bf9c09c28a82b7bfaf8483ded5760000000000000000000000000000000000000000000000000013264a45eb820000000000000000000000000000000000000000000000000000000000000000000000000000000000000000000000000000000000000000000000000000000000",
                    "decodedMethod": null,
                    "errorInfo": "",
                    "fromAddress": "0x77598616174a411ae9a1e197640903faab9ac1ae",
                    "gasUsed": 25061,
                    "id": 41,
                    "methodDecoded": false,
                    "operation": "CALL",
                    "output": "0x0000000000000000000000000000000000000000000000000013264a45eb8200",
                    "revert": false,
                    "revertMessage": "",
                    "selector": "0xcd19d279",
                    "status": true,
                    "value": "0"
                },
                "nodeType": 0
            },
            "42": {
                "event": {
                    "contract": "0x990cd466bc4875fc0a87741372a716cc7fe21125",
                    "decodedLog": null,
                    "id": 42,
                    "logData": "0x0000000000000000000000006eabce9b12a9bf9c09c28a82b7bfaf8483ded5760000000000000000000000000000000000000000000000000013264a45eb820000000000000000000000000000000000000000000000000000000000000000000000000000000000000000000000000000000000000000000000000000000000",
                    "logDecoded": false,
                    "operation": "EVENT",
                    "revert": false,
                    "status": true,
                    "topics": [
                        "0x03d6dc0b406557038d9ea4b5b4fa3db00c221664822e1129cda19670f7efa32e"
                    ]
                },
                "nodeType": 1
            },
            "43": {
                "event": {
                    "contract": "0x77598616174a411ae9a1e197640903faab9ac1ae",
                    "decodedLog": {
                        "name": "LandPayout",
                        "params": [
                            {
                                "name": "owner",
                                "type": "address",
                                "value": "0x6eabce9b12a9bf9c09c28a82b7bfaf8483ded576"
                            },
                            {
                                "name": "_tokenId",
                                "type": "uint256",
                                "value": "7,060"
                            },
                            {
                                "name": "_value",
                                "type": "uint256",
                                "value": "5,390,125,000,000,000"
                            },
                            {
                                "name": "_x",
                                "type": "int64",
                                "value": "374"
                            },
                            {
                                "name": "_y",
                                "type": "int64",
                                "value": "371"
                            }
                        ],
                        "signature": "LandPayout(address,uint256,uint256,int64,int64)"
                    },
                    "id": 43,
                    "logData": "0x0000000000000000000000000000000000000000000000000013264a45eb820000000000000000000000000000000000000000000000000000000000000001760000000000000000000000000000000000000000000000000000000000000173",
                    "logDecoded": true,
                    "operation": "EVENT",
                    "revert": false,
                    "status": true,
                    "topics": [
                        "0x16ed9529b2be9e45690887c41c49956d729ba3e51f56bbb80884713ace45ee26",
                        "0x0000000000000000000000006eabce9b12a9bf9c09c28a82b7bfaf8483ded576",
                        "0x0000000000000000000000000000000000000000000000000000000000001b94"
                    ]
                },
                "nodeType": 1
            },
            "44": {
                "invocation": {
                    "address": "0x990cd466bc4875fc0a87741372a716cc7fe21125",
                    "callData": "0x0000000000000000000000006eabce9b12a9bf9c09c28a82b7bfaf8483ded576000000000000000000000000000000000000000000000000002b5f77727b7a4000000000000000000000000000000000000000000000000000000000000000000000000000000000000000000000000000000000000000000000000000000000",
                    "decodedMethod": null,
                    "errorInfo": "",
                    "fromAddress": "0x77598616174a411ae9a1e197640903faab9ac1ae",
                    "gasUsed": 5861,
                    "id": 44,
                    "methodDecoded": false,
                    "operation": "CALL",
                    "output": "0x000000000000000000000000000000000000000000000000003e85c1b866fc40",
                    "revert": false,
                    "revertMessage": "",
                    "selector": "0xcd19d279",
                    "status": true,
                    "value": "0"
                },
                "nodeType": 0
            },
            "45": {
                "event": {
                    "contract": "0x990cd466bc4875fc0a87741372a716cc7fe21125",
                    "decodedLog": null,
                    "id": 45,
                    "logData": "0x0000000000000000000000006eabce9b12a9bf9c09c28a82b7bfaf8483ded576000000000000000000000000000000000000000000000000002b5f77727b7a4000000000000000000000000000000000000000000000000000000000000000000000000000000000000000000000000000000000000000000000000000000000",
                    "logDecoded": false,
                    "operation": "EVENT",
                    "revert": false,
                    "status": true,
                    "topics": [
                        "0x03d6dc0b406557038d9ea4b5b4fa3db00c221664822e1129cda19670f7efa32e"
                    ]
                },
                "nodeType": 1
            },
            "46": {
                "event": {
                    "contract": "0x77598616174a411ae9a1e197640903faab9ac1ae",
                    "decodedLog": {
                        "name": "LandPayout",
                        "params": [
                            {
                                "name": "owner",
                                "type": "address",
                                "value": "0x6eabce9b12a9bf9c09c28a82b7bfaf8483ded576"
                            },
                            {
                                "name": "_tokenId",
                                "type": "uint256",
                                "value": "8,371"
                            },
                            {
                                "name": "_value",
                                "type": "uint256",
                                "value": "12,208,390,625,000,000"
                            },
                            {
                                "name": "_x",
                                "type": "int64",
                                "value": "374"
                            },
                            {
                                "name": "_y",
                                "type": "int64",
                                "value": "371"
                            }
                        ],
                        "signature": "LandPayout(address,uint256,uint256,int64,int64)"
                    },
                    "id": 46,
                    "logData": "0x000000000000000000000000000000000000000000000000002b5f77727b7a4000000000000000000000000000000000000000000000000000000000000001760000000000000000000000000000000000000000000000000000000000000173",
                    "logDecoded": true,
                    "operation": "EVENT",
                    "revert": false,
                    "status": true,
                    "topics": [
                        "0x16ed9529b2be9e45690887c41c49956d729ba3e51f56bbb80884713ace45ee26",
                        "0x0000000000000000000000006eabce9b12a9bf9c09c28a82b7bfaf8483ded576",
                        "0x00000000000000000000000000000000000000000000000000000000000020b3"
                    ]
                },
                "nodeType": 1
            },
            "47": {
                "invocation": {
                    "address": "0x778cc248cdddfd926bfba49850098eac16b0d12a",
                    "callData": "0x0000000000000000000000000000000000000000000000000000000000000097",
                    "decodedMethod": {
                        "callParams": [
                            {
                                "name": "tokenId",
                                "type": "uint256",
                                "value": "151"
                            }
                        ],
                        "constructorArguments": "",
                        "name": "ownerOf",
                        "returnParams": [
                            {
                                "name": "",
                                "type": "address",
                                "value": "0x51787a2c56d710c68140bdadefd3a98bff96feb4"
                            }
                        ],
                        "signature": "ownerOf(uint256)"
                    },
                    "errorInfo": "",
                    "fromAddress": "0x77598616174a411ae9a1e197640903faab9ac1ae",
                    "gasUsed": 1257,
                    "id": 47,
                    "methodDecoded": true,
                    "operation": "STATICCALL",
                    "output": "0x00000000000000000000000051787a2c56d710c68140bdadefd3a98bff96feb4",
                    "revert": false,
                    "revertMessage": "",
                    "selector": "0x6352211e",
                    "status": true,
                    "value": "0"
                },
                "nodeType": 0
            },
            "48": {
                "invocation": {
                    "address": "0x990cd466bc4875fc0a87741372a716cc7fe21125",
                    "callData": "0x00000000000000000000000051787a2c56d710c68140bdadefd3a98bff96feb4000000000000000000000000000000000000000000000000020307a0bfcc800000000000000000000000000000000000000000000000000000000000000000010000000000000000000000000000000000000000000000000000000000000000",
                    "decodedMethod": null,
                    "errorInfo": "",
                    "fromAddress": "0x77598616174a411ae9a1e197640903faab9ac1ae",
                    "gasUsed": 10061,
                    "id": 48,
                    "methodDecoded": false,
                    "operation": "CALL",
                    "output": "0x000000000000000000000000000000000000000000000000050f1f84c87bcc00",
                    "revert": false,
                    "revertMessage": "",
                    "selector": "0xcd19d279",
                    "status": true,
                    "value": "0"
                },
                "nodeType": 0
            },
            "49": {
                "event": {
                    "contract": "0x990cd466bc4875fc0a87741372a716cc7fe21125",
                    "decodedLog": null,
                    "id": 49,
                    "logData": "0x00000000000000000000000051787a2c56d710c68140bdadefd3a98bff96feb4000000000000000000000000000000000000000000000000020307a0bfcc800000000000000000000000000000000000000000000000000000000000000000010000000000000000000000000000000000000000000000000000000000000000",
                    "logDecoded": false,
                    "operation": "EVENT",
                    "revert": false,
                    "status": true,
                    "topics": [
                        "0x03d6dc0b406557038d9ea4b5b4fa3db00c221664822e1129cda19670f7efa32e"
                    ]
                },
                "nodeType": 1
            },
            "5": {
                "invocation": {
                    "address": "0xe15e9c0bf6b6b29d3b9e1c921ab2cb09c2194463",
                    "callData": "0x000000000000000000000000000000000000000000000000000000000000017600000000000000000000000000000000000000000000000000000000000001730000000000000000000000000000000000000000000000000000000000000003",
                    "decodedMethod": {
                        "callParams": [
                            {
                                "name": "_x",
                                "type": "int64",
                                "value": "374"
                            },
                            {
                                "name": "_y",
                                "type": "int64",
                                "value": "371"
                            },
                            {
                                "name": "_radius",
                                "type": "int256",
                                "value": "3"
                            }
                        ],
                        "constructorArguments": "",
                        "name": "getTokens",
                        "returnParams": [
                            {
                                "name": "tokenIds",
                                "type": "uint256[]",
                                "value": [
                                    "7,057",
                                    "18,654",
                                    "7,053",
                                    "7,058",
                                    "10,044",
                                    "7,054",
                                    "7,059",
                                    "7,062",
                                    "21,475",
                                    "21,476",
                                    "7,060",
                                    "8,371",
                                    "0",
                                    "0",
                                    "0",
                                    "0",
                                    "0",
                                    "0",
                                    "0",
                                    "0",
                                    "0",
                                    "0",
                                    "0",
                                    "0",
                                    "0",
                                    "0",
                                    "0",
                                    "0",
                                    "0",
                                    "0",
                                    "0",
                                    "0",
                                    "0",
                                    "0",
                                    "0",
                                    "0",
                                    "0",
                                    "0",
                                    "0",
                                    "0",
                                    "0",
                                    "0",
                                    "0",
                                    "0",
                                    "0",
                                    "0",
                                    "0",
                                    "0"
                                ]
                            },
                            {
                                "name": "buyPrices",
                                "type": "uint256[]",
                                "value": [
                                    "20,000,000,000,000,000",
                                    "26,388,000,000,000,000",
                                    "58,589,800,000,000,000",
                                    "163,238,742,382,812,500",
                                    "188,348,139,062,500,000",
                                    "26,388,000,000,000,000",
                                    "245,847,220,828,247,070",
                                    "220,753,085,180,664,062",
                                    "172,475,798,828,125,000",
                                    "191,535,273,681,640,625",
                                    "43,121,000,000,000,000",
                                    "97,667,125,000,000,000",
                                    "0",
                                    "0",
                                    "0",
                                    "0",
                                    "0",
                                    "0",
                                    "0",
                                    "0",
                                    "0",
                                    "0",
                                    "0",
                                    "0",
                                    "0",
                                    "0",
                                    "0",
                                    "0",
                                    "0",
                                    "0",
                                    "0",
                                    "0",
                                    "0",
                                    "0",
                                    "0",
                                    "0",
                                    "0",
                                    "0",
                                    "0",
                                    "0",
                                    "0",
                                    "0",
                                    "0",
                                    "0",
                                    "0",
                                    "0",
                                    "0",
                                    "0"
                                ]
                            },
                            {
                                "name": "owners",
                                "type": "address[]",
                                "value": [
                                    "0x5b693c6326087b8bbdc00099cf4fa38db0efeb45",
                                    "0xebea2dd52750cfa45dcade4e6f1cb0bcb3149419",
                                    "0xfc53cec0fcb74b2cb0e6643fa8c78c0d00fd25d0",
                                    "0xcea94beb3fbd7ed0d373c214c8f148fc07034372",
                                    "0xcea94beb3fbd7ed0d373c214c8f148fc07034372",
                                    "0xebea2dd52750cfa45dcade4e6f1cb0bcb3149419",
                                    "0xcea94beb3fbd7ed0d373c214c8f148fc07034372",
                                    "0xcea94beb3fbd7ed0d373c214c8f148fc07034372",
                                    "0x49318b3970c8a82275b440900be45f27bf682108",
                                    "0x49318b3970c8a82275b440900be45f27bf682108",
                                    "0x6eabce9b12a9bf9c09c28a82b7bfaf8483ded576",
                                    "0x6eabce9b12a9bf9c09c28a82b7bfaf8483ded576",
                                    "0x0000000000000000000000000000000000000000",
                                    "0x0000000000000000000000000000000000000000",
                                    "0x0000000000000000000000000000000000000000",
                                    "0x0000000000000000000000000000000000000000",
                                    "0x0000000000000000000000000000000000000000",
                                    "0x0000000000000000000000000000000000000000",
                                    "0x0000000000000000000000000000000000000000",
                                    "0x0000000000000000000000000000000000000000",
                                    "0x0000000000000000000000000000000000000000",
                                    "0x0000000000000000000000000000000000000000",
                                    "0x0000000000000000000000000000000000000000",
                                    "0x0000000000000000000000000000000000000000",
                                    "0x0000000000000000000000000000000000000000",
                                    "0x0000000000000000000000000000000000000000",
                                    "0x0000000000000000000000000000000000000000",
                                    "0x0000000000000000000000000000000000000000",
                                    "0x0000000000000000000000000000000000000000",
                                    "0x0000000000000000000000000000000000000000",
                                    "0x0000000000000000000000000000000000000000",
                                    "0x0000000000000000000000000000000000000000",
                                    "0x0000000000000000000000000000000000000000",
                                    "0x0000000000000000000000000000000000000000",
                                    "0x0000000000000000000000000000000000000000",
                                    "0x0000000000000000000000000000000000000000",
                                    "0x0000000000000000000000000000000000000000",
                                    "0x0000000000000000000000000000000000000000",
                                    "0x0000000000000000000000000000000000000000",
                                    "0x0000000000000000000000000000000000000000",
                                    "0x0000000000000000000000000000000000000000",
                                    "0x0000000000000000000000000000000000000000",
                                    "0x0000000000000000000000000000000000000000",
                                    "0x0000000000000000000000000000000000000000",
                                    "0x0000000000000000000000000000000000000000",
                                    "0x0000000000000000000000000000000000000000",
                                    "0x0000000000000000000000000000000000000000",
                                    "0x0000000000000000000000000000000000000000"
                                ]
                            }
                        ],
                        "signature": "getTokens(int64,int64,int256)"
                    },
                    "errorInfo": "",
                    "fromAddress": "0x77598616174a411ae9a1e197640903faab9ac1ae",
                    "gasUsed": 113544,
                    "id": 5,
                    "methodDecoded": true,
                    "operation": "STATICCALL",
                    "output": "0x000000000000000000000000000000000000000000000000000000000000006000000000000000000000000000000000000000000000000000000000000006800000000000000000000000000000000000000000000000000000000000000ca000000000000000000000000000000000000000000000000000000000000000300000000000000000000000000000000000000000000000000000000000001b9100000000000000000000000000000000000000000000000000000000000048de0000000000000000000000000000000000000000000000000000000000001b8d0000000000000000000000000000000000000000000000000000000000001b92000000000000000000000000000000000000000000000000000000000000273c0000000000000000000000000000000000000000000000000000000000001b8e0000000000000000000000000000000000000000000000000000000000001b930000000000000000000000000000000000000000000000000000000000001b9600000000000000000000000000000000000000000000000000000000000053e300000000000000000000000000000000000000000000000000000000000053e40000000000000000000000000000000000000000000000000000000000001b9400000000000000000000000000000000000000000000000000000000000020b3000000000000000000000000000000000000000000000000000000000000000000000000000000000000000000000000000000000000000000000000000000000000000000000000000000000000000000000000000000000000000000000000000000000000000000000000000000000000000000000000000000000000000000000000000000000000000000000000000000000000000000000000000000000000000000000000000000000000000000000000000000000000000000000000000000000000000000000000000000000000000000000000000000000000000000000000000000000000000000000000000000000000000000000000000000000000000000000000000000000000000000000000000000000000000000000000000000000000000000000000000000000000000000000000000000000000000000000000000000000000000000000000000000000000000000000000000000000000000000000000000000000000000000000000000000000000000000000000000000000000000000000000000000000000000000000000000000000000000000000000000000000000000000000000000000000000000000000000000000000000000000000000000000000000000000000000000000000000000000000000000000000000000000000000000000000000000000000000000000000000000000000000000000000000000000000000000000000000000000000000000000000000000000000000000000000000000000000000000000000000000000000000000000000000000000000000000000000000000000000000000000000000000000000000000000000000000000000000000000000000000000000000000000000000000000000000000000000000000000000000000000000000000000000000000000000000000000000000000000000000000000000000000000000000000000000000000000000000000000000000000000000000000000000000000000000000000000000000000000000000000000000000000000000000000000000000000000000000000000000000000000000000000000000000000000000000000000000000000000000000000000000000000000000000000000000000000000000000000000000000000000000000000000000000000000000000000000000000000000000000000000000000000000000000000000000000000000000000000000000000000000000000000000000000000000000000000000000000000000000000000000000000000000000000000000000000000000000000000000000000000000000000000000000000000000000000000000000000000000000000000000000000000000000000000000000000000000000000000000000000000000000000000000000000000000000000000000000000000000000000000000000000000000000000000000000000000000000000000000000000000000000000000000000000000000000000000000000000000000000000000000000000000000000000000000000000000000000000000000000000000000000000000000000000000000000000000000000000000000000000000000000000000000000000003000000000000000000000000000000000000000000000000000470de4df820000000000000000000000000000000000000000000000000000005dbfbf0655400000000000000000000000000000000000000000000000000000d0271cd87610000000000000000000000000000000000000000000000000000243f0c5754f1d54000000000000000000000000000000000000000000000000029d25a272ed1aa0000000000000000000000000000000000000000000000000005dbfbf0655400000000000000000000000000000000000000000000000000003696cbeaa7c141e000000000000000000000000000000000000000000000000031045c2e943d8fe0000000000000000000000000000000000000000000000000264c1d341808b4800000000000000000000000000000000000000000000000002a878510dc05cb1000000000000000000000000000000000000000000000000009932522f5c1000000000000000000000000000000000000000000000000000015afbbb93dbd20000000000000000000000000000000000000000000000000000000000000000000000000000000000000000000000000000000000000000000000000000000000000000000000000000000000000000000000000000000000000000000000000000000000000000000000000000000000000000000000000000000000000000000000000000000000000000000000000000000000000000000000000000000000000000000000000000000000000000000000000000000000000000000000000000000000000000000000000000000000000000000000000000000000000000000000000000000000000000000000000000000000000000000000000000000000000000000000000000000000000000000000000000000000000000000000000000000000000000000000000000000000000000000000000000000000000000000000000000000000000000000000000000000000000000000000000000000000000000000000000000000000000000000000000000000000000000000000000000000000000000000000000000000000000000000000000000000000000000000000000000000000000000000000000000000000000000000000000000000000000000000000000000000000000000000000000000000000000000000000000000000000000000000000000000000000000000000000000000000000000000000000000000000000000000000000000000000000000000000000000000000000000000000000000000000000000000000000000000000000000000000000000000000000000000000000000000000000000000000000000000000000000000000000000000000000000000000000000000000000000000000000000000000000000000000000000000000000000000000000000000000000000000000000000000000000000000000000000000000000000000000000000000000000000000000000000000000000000000000000000000000000000000000000000000000000000000000000000000000000000000000000000000000000000000000000000000000000000000000000000000000000000000000000000000000000000000000000000000000000000000000000000000000000000000000000000000000000000000000000000000000000000000000000000000000000000000000000000000000000000000000000000000000000000000000000000000000000000000000000000000000000000000000000000000000000000000000000000000000000000000000000000000000000000000000000000000000000000000000000000000000000000000000000000000000000000000000000000000000000000000000000000000000000000000000000000000000000000000000000000000000000000000000000000000000000000000000000000000000000000000000000000000000000000000000000000000000000000000000000000000000000000000000000000000000000000000000000000000000000000000000000000000000000000000000000000000000000000000000000000000000000000000000000000000000000000000000000000000000000000000000000000000000000000000300000000000000000000000005b693c6326087b8bbdc00099cf4fa38db0efeb45000000000000000000000000ebea2dd52750cfa45dcade4e6f1cb0bcb3149419000000000000000000000000fc53cec0fcb74b2cb0e6643fa8c78c0d00fd25d0000000000000000000000000cea94beb3fbd7ed0d373c214c8f148fc07034372000000000000000000000000cea94beb3fbd7ed0d373c214c8f148fc07034372000000000000000000000000ebea2dd52750cfa45dcade4e6f1cb0bcb3149419000000000000000000000000cea94beb3fbd7ed0d373c214c8f148fc07034372000000000000000000000000cea94beb3fbd7ed0d373c214c8f148fc0703437200000000000000000000000049318b3970c8a82275b440900be45f27bf68210800000000000000000000000049318b3970c8a82275b440900be45f27bf6821080000000000000000000000006eabce9b12a9bf9c09c28a82b7bfaf8483ded5760000000000000000000000006eabce9b12a9bf9c09c28a82b7bfaf8483ded576000000000000000000000000000000000000000000000000000000000000000000000000000000000000000000000000000000000000000000000000000000000000000000000000000000000000000000000000000000000000000000000000000000000000000000000000000000000000000000000000000000000000000000000000000000000000000000000000000000000000000000000000000000000000000000000000000000000000000000000000000000000000000000000000000000000000000000000000000000000000000000000000000000000000000000000000000000000000000000000000000000000000000000000000000000000000000000000000000000000000000000000000000000000000000000000000000000000000000000000000000000000000000000000000000000000000000000000000000000000000000000000000000000000000000000000000000000000000000000000000000000000000000000000000000000000000000000000000000000000000000000000000000000000000000000000000000000000000000000000000000000000000000000000000000000000000000000000000000000000000000000000000000000000000000000000000000000000000000000000000000000000000000000000000000000000000000000000000000000000000000000000000000000000000000000000000000000000000000000000000000000000000000000000000000000000000000000000000000000000000000000000000000000000000000000000000000000000000000000000000000000000000000000000000000000000000000000000000000000000000000000000000000000000000000000000000000000000000000000000000000000000000000000000000000000000000000000000000000000000000000000000000000000000000000000000000000000000000000000000000000000000000000000000000000000000000000000000000000000000000000000000000000000000000000000000000000000000000000000000000000000000000000000000000000000000000000000000000000000000000000000000000000000000000000000000000000000000000000000000000000000000000000000000000000000000000000000000000000000000000000000000000000000000000000000000000000000000000000000000000000000000000000000000000000000000000000000000000000000000000000000000000000000000000000000000000000000000000000000000000000000000000000000000000000000000000000000000000000000000000000000000000000000000000000000000000000000000000000000000000000000000000000000000000000000000000000000000000000000000000000000000000000000000000000000000000000000000000000000000000000000000000000000000000000000000000000000000000000000000000000000000000000000000000000000000000000000000000000000000000000000000000000000000000",
                    "revert": false,
                    "revertMessage": "",
                    "selector": "0xa7d9fd77",
                    "status": true,
                    "value": "0"
                },
                "nodeType": 0
            },
            "50": {
                "event": {
                    "contract": "0x77598616174a411ae9a1e197640903faab9ac1ae",
                    "decodedLog": {
                        "name": "RegionPayout",
                        "params": [
                            {
                                "name": "owner",
                                "type": "address",
                                "value": "0x51787a2c56d710c68140bdadefd3a98bff96feb4"
                            },
                            {
                                "name": "tokenId",
                                "type": "uint256",
                                "value": "151"
                            },
                            {
                                "name": "value",
                                "type": "uint256",
                                "value": "144,968,000,000,000,000"
                            },
                            {
                                "name": "_payoutType",
                                "type": "uint8",
                                "value": "0"
                            }
                        ],
                        "signature": "RegionPayout(address,uint256,uint256,uint8)"
                    },
                    "id": 50,
                    "logData": "0x000000000000000000000000000000000000000000000000020307a0bfcc80000000000000000000000000000000000000000000000000000000000000000000",
                    "logDecoded": true,
                    "operation": "EVENT",
                    "revert": false,
                    "status": true,
                    "topics": [
                        "0x369734805774815d990b191f9e08082361a95272673a40990aea5047557c1f67",
                        "0x00000000000000000000000051787a2c56d710c68140bdadefd3a98bff96feb4",
                        "0x0000000000000000000000000000000000000000000000000000000000000097"
                    ]
                },
                "nodeType": 1
            },
            "51": {
                "invocation": {
                    "address": "0x990cd466bc4875fc0a87741372a716cc7fe21125",
                    "callData": "0x",
                    "decodedMethod": {
                        "callParams": [],
                        "constructorArguments": "",
                        "name": "store",
                        "returnParams": [],
                        "signature": "store()"
                    },
                    "errorInfo": "",
                    "fromAddress": "0x77598616174a411ae9a1e197640903faab9ac1ae",
                    "gasUsed": 8512,
                    "id": 51,
                    "methodDecoded": true,
                    "operation": "CALL",
                    "output": "",
                    "revert": false,
                    "revertMessage": "",
                    "selector": "0x975057e7",
                    "status": true,
                    "value": "0.326762023120498655"
                },
                "nodeType": 0
            },
            "52": {
                "invocation": {
                    "address": "0xb29ba062ae71eb4f26fc00e071585907e176951b",
                    "callData": "0x",
                    "decodedMethod": null,
                    "errorInfo": "",
                    "fromAddress": "0x990cd466bc4875fc0a87741372a716cc7fe21125",
                    "gasUsed": 40,
                    "id": 52,
                    "methodDecoded": false,
                    "operation": "CALL",
                    "output": "",
                    "revert": false,
                    "revertMessage": "",
                    "selector": "fallback",
                    "status": true,
                    "value": "0.326762023120498655"
                },
                "nodeType": 0
            },
            "53": {
                "invocation": {
                    "address": "0xe4952e54e0797f90eb119464aaa54d30a34011a5",
                    "callData": "0x",
                    "decodedMethod": null,
                    "errorInfo": "",
                    "fromAddress": "0x77598616174a411ae9a1e197640903faab9ac1ae",
                    "gasUsed": 0,
                    "id": 53,
                    "methodDecoded": false,
                    "operation": "CALL",
                    "output": "",
                    "revert": false,
                    "revertMessage": "",
                    "selector": "fallback",
                    "status": true,
                    "value": "0.289936"
                },
                "nodeType": 0
            },
            "54": {
                "event": {
                    "contract": "0x77598616174a411ae9a1e197640903faab9ac1ae",
                    "decodedLog": {
                        "name": "BeneficiaryPayout",
                        "params": [
                            {
                                "name": "value",
                                "type": "uint256",
                                "value": "289,936,000,000,000,000"
                            }
                        ],
                        "signature": "BeneficiaryPayout(uint256)"
                    },
                    "id": 54,
                    "logData": "0x00000000000000000000000000000000000000000000000004060f417f990000",
                    "logDecoded": true,
                    "operation": "EVENT",
                    "revert": false,
                    "status": true,
                    "topics": [
                        "0x44d31cfe5762fdf05f81963fac293a41a517d0310b09759df225379688bd09e1"
                    ]
                },
                "nodeType": 1
            },
            "6": {
                "invocation": {
                    "address": "0x778cc248cdddfd926bfba49850098eac16b0d12a",
                    "callData": "0x0000000000000000000000000000000000000000000000000000000000000097",
                    "decodedMethod": {
                        "callParams": [
                            {
                                "name": "",
                                "type": "uint256",
                                "value": "151"
                            }
                        ],
                        "constructorArguments": "",
                        "name": "regions",
                        "returnParams": [
                            {
                                "name": "currentRound",
                                "type": "uint32",
                                "value": "50"
                            },
                            {
                                "name": "multiplier",
                                "type": "uint16",
                                "value": "30"
                            },
                            {
                                "name": "initAmount",
                                "type": "uint256",
                                "value": "30"
                            },
                            {
                                "name": "period",
                                "type": "uint256",
                                "value": "15"
                            },
                            {
                                "name": "poolAmount",
                                "type": "uint256",
                                "value": "25"
                            },
                            {
                                "name": "startTime",
                                "type": "uint256",
                                "value": "30"
                            }
                        ],
                        "signature": "regions(uint256)"
                    },
                    "errorInfo": "",
                    "fromAddress": "0x77598616174a411ae9a1e197640903faab9ac1ae",
                    "gasUsed": 1516,
                    "id": 6,
                    "methodDecoded": true,
                    "operation": "STATICCALL",
                    "output": "0x0000000000000000000000000000000000000000000000000000000000000032000000000000000000000000000000000000000000000000000000000000001e000000000000000000000000000000000000000000000000000000000000001e000000000000000000000000000000000000000000000000000000000000000f0000000000000000000000000000000000000000000000000000000000000019000000000000000000000000000000000000000000000000000000000000001e0000000000000000000000000000000000000000000000000000000000000005",
                    "revert": false,
                    "revertMessage": "",
                    "selector": "0x132abfb6",
                    "status": true,
                    "value": "0"
                },
                "nodeType": 0
            },
            "7": {
                "invocation": {
                    "address": "0xe15e9c0bf6b6b29d3b9e1c921ab2cb09c2194463",
                    "callData": "0x000000000000000000000000f0bb13051be712970c9bb50233bfac25a654afd600000000000000000000000000000000000000000000000000000000000001760000000000000000000000000000000000000000000000000000000000000173",
                    "decodedMethod": {
                        "callParams": [
                            {
                                "name": "_owner",
                                "type": "address",
                                "value": "0xf0bb13051be712970c9bb50233bfac25a654afd6"
                            },
                            {
                                "name": "_x",
                                "type": "int64",
                                "value": "374"
                            },
                            {
                                "name": "_y",
                                "type": "int64",
                                "value": "371"
                            }
                        ],
                        "constructorArguments": "",
                        "name": "mint",
                        "returnParams": [
                            {
                                "name": "_tokenId",
                                "type": "uint256",
                                "value": "21,798"
                            }
                        ],
                        "signature": "mint(address,int64,int64)"
                    },
                    "errorInfo": "",
                    "fromAddress": "0x77598616174a411ae9a1e197640903faab9ac1ae",
                    "gasUsed": 95378,
                    "id": 7,
                    "methodDecoded": true,
                    "operation": "CALL",
                    "output": "0x0000000000000000000000000000000000000000000000000000000000005526",
                    "revert": false,
                    "revertMessage": "",
                    "selector": "0xd47cd289",
                    "status": true,
                    "value": "0"
                },
                "nodeType": 0
            },
            "8": {
                "event": {
                    "contract": "0xe15e9c0bf6b6b29d3b9e1c921ab2cb09c2194463",
                    "decodedLog": {
                        "name": "Transfer",
                        "params": [
                            {
                                "name": "from",
                                "type": "address",
                                "value": "0x0000000000000000000000000000000000000000"
                            },
                            {
                                "name": "to",
                                "type": "address",
                                "value": "0xf0bb13051be712970c9bb50233bfac25a654afd6"
                            },
                            {
                                "decimalAvailable": true,
                                "name": "tokenId",
                                "type": "uint256",
                                "value": "21,798"
                            }
                        ],
                        "signature": "Transfer(address,address,uint256)"
                    },
                    "id": 8,
                    "logData": "0x",
                    "logDecoded": true,
                    "operation": "EVENT",
                    "revert": false,
                    "status": true,
                    "topics": [
                        "0xddf252ad1be2c89b69c2b068fc378daa952ba7f163c4a11628f55a4df523b3ef",
                        "0x0000000000000000000000000000000000000000000000000000000000000000",
                        "0x000000000000000000000000f0bb13051be712970c9bb50233bfac25a654afd6",
                        "0x0000000000000000000000000000000000000000000000000000000000005526"
                    ]
                },
                "nodeType": 1
            },
            "9": {
                "invocation": {
                    "address": "0xe15e9c0bf6b6b29d3b9e1c921ab2cb09c2194463",
                    "callData": "0x00000000000000000000000000000000000000000000000000000000000001760000000000000000000000000000000000000000000000000000000000000173000000000000000000000000000000000000000000000000088ef395a9c86fdf",
                    "decodedMethod": {
                        "callParams": [
                            {
                                "name": "_x",
                                "type": "int64",
                                "value": "374"
                            },
                            {
                                "name": "_y",
                                "type": "int64",
                                "value": "371"
                            },
                            {
                                "name": "_buyPrice",
                                "type": "uint256",
                                "value": "616,698,023,120,498,655"
                            }
                        ],
                        "constructorArguments": "",
                        "name": "setBuyPrice",
                        "returnParams": [],
                        "signature": "setBuyPrice(int64,int64,uint256)"
                    },
                    "errorInfo": "",
                    "fromAddress": "0x77598616174a411ae9a1e197640903faab9ac1ae",
                    "gasUsed": 21412,
                    "id": 9,
                    "methodDecoded": true,
                    "operation": "CALL",
                    "output": "",
                    "revert": false,
                    "revertMessage": "",
                    "selector": "0x1e62517d",
                    "status": true,
                    "value": "0"
                },
                "nodeType": 0
            }
        },
        "gasFlame": [
            {
                "children": [
                    {
                        "children": [
                            {
                                "children": [],
                                "depth": 0,
                                "name": "Initial Gas",
                                "value": 23080
                            },
                            {
                                "children": [
                                    {
                                        "children": [],
                                        "depth": 1,
                                        "name": "getCell",
                                        "value": 7703
                                    },
                                    {
                                        "children": [
                                            {
                                                "children": [],
                                                "depth": 2,
                                                "name": "ecrecover",
                                                "value": 3000
                                            }
                                        ],
                                        "depth": 1,
                                        "name": "verifySignature",
                                        "value": 5677
                                    },
                                    {
                                        "children": [],
                                        "depth": 1,
                                        "name": "setRegion",
                                        "value": 22234
                                    },
                                    {
                                        "children": [],
                                        "depth": 1,
                                        "name": "getTokens",
                                        "value": 113544
                                    },
                                    {
                                        "children": [],
                                        "depth": 1,
                                        "name": "regions",
                                        "value": 1516
                                    },
                                    {
                                        "children": [],
                                        "depth": 1,
                                        "name": "mint",
                                        "value": 95378
                                    },
                                    {
                                        "children": [],
                                        "depth": 1,
                                        "name": "setBuyPrice",
                                        "value": 21412
                                    },
                                    {
                                        "children": [],
                                        "depth": 1,
                                        "name": "getTokens",
                                        "value": 113544
                                    },
                                    {
                                        "children": [],
                                        "depth": 1,
                                        "name": "0xcd19d279",
                                        "value": 10061
                                    },
                                    {
                                        "children": [],
                                        "depth": 1,
                                        "name": "0xcd19d279",
                                        "value": 10061
                                    },
                                    {
                                        "children": [],
                                        "depth": 1,
                                        "name": "0xcd19d279",
                                        "value": 10061
                                    },
                                    {
                                        "children": [],
                                        "depth": 1,
                                        "name": "0xcd19d279",
                                        "value": 10061
                                    },
                                    {
                                        "children": [],
                                        "depth": 1,
                                        "name": "0xcd19d279",
                                        "value": 5861
                                    },
                                    {
                                        "children": [],
                                        "depth": 1,
                                        "name": "0xcd19d279",
                                        "value": 5861
                                    },
                                    {
                                        "children": [],
                                        "depth": 1,
                                        "name": "0xcd19d279",
                                        "value": 5861
                                    },
                                    {
                                        "children": [],
                                        "depth": 1,
                                        "name": "0xcd19d279",
                                        "value": 5861
                                    },
                                    {
                                        "children": [],
                                        "depth": 1,
                                        "name": "0xcd19d279",
                                        "value": 25061
                                    },
                                    {
                                        "children": [],
                                        "depth": 1,
                                        "name": "0xcd19d279",
                                        "value": 5861
                                    },
                                    {
                                        "children": [],
                                        "depth": 1,
                                        "name": "0xcd19d279",
                                        "value": 25061
                                    },
                                    {
                                        "children": [],
                                        "depth": 1,
                                        "name": "0xcd19d279",
                                        "value": 5861
                                    },
                                    {
                                        "children": [],
                                        "depth": 1,
                                        "name": "ownerOf",
                                        "value": 1257
                                    },
                                    {
                                        "children": [],
                                        "depth": 1,
                                        "name": "0xcd19d279",
                                        "value": 10061
                                    },
                                    {
                                        "children": [
                                            {
                                                "children": [],
                                                "depth": 2,
                                                "name": "fallback",
                                                "value": 40
                                            }
                                        ],
                                        "depth": 1,
                                        "name": "store",
                                        "value": 8512
                                    },
                                    {
                                        "children": [],
                                        "depth": 1,
                                        "name": "fallback",
                                        "value": 0
                                    }
                                ],
                                "depth": 0,
                                "name": "Executed Gas",
                                "value": 691201
                            }
                        ],
                        "depth": -1,
                        "name": "Actual Gas Used",
                        "value": 714281
                    },
                    {
                        "children": [],
                        "depth": -1,
                        "name": "Refunded Gas",
                        "value": 0
                    }
                ],
                "depth": -2,
                "name": "Total Gas",
                "value": 714281
            }
        ],
        "isConfirmed": true,
        "mainTrace": [
            {
                "children": [
                    {
                        "children": [
                            {
                                "children": [],
                                "depth": 1,
                                "id": 1,
                                "order": 1
                            },
                            {
                                "children": [
                                    {
                                        "children": [],
                                        "depth": 2,
                                        "id": 3,
                                        "order": 3
                                    }
                                ],
                                "depth": 1,
                                "id": 2,
                                "order": 2
                            },
                            {
                                "children": [],
                                "depth": 1,
                                "id": 4,
                                "order": 4
                            },
                            {
                                "children": [],
                                "depth": 1,
                                "id": 5,
                                "order": 5
                            },
                            {
                                "children": [],
                                "depth": 1,
                                "id": 6,
                                "order": 6
                            },
                            {
                                "children": [
                                    {
                                        "children": [],
                                        "depth": 2,
                                        "id": 8,
                                        "order": 8
                                    }
                                ],
                                "depth": 1,
                                "id": 7,
                                "order": 7
                            },
                            {
                                "children": [],
                                "depth": 1,
                                "id": 9,
                                "order": 9
                            },
                            {
                                "children": [],
                                "depth": 1,
                                "id": 10,
                                "order": 10
                            },
                            {
                                "children": [
                                    {
                                        "children": [],
                                        "depth": 2,
                                        "id": 12,
                                        "order": 12
                                    }
                                ],
                                "depth": 1,
                                "id": 11,
                                "order": 11
                            },
                            {
                                "children": [],
                                "depth": 1,
                                "id": 13,
                                "order": 13
                            },
                            {
                                "children": [
                                    {
                                        "children": [],
                                        "depth": 2,
                                        "id": 15,
                                        "order": 15
                                    }
                                ],
                                "depth": 1,
                                "id": 14,
                                "order": 14
                            },
                            {
                                "children": [],
                                "depth": 1,
                                "id": 16,
                                "order": 16
                            },
                            {
                                "children": [
                                    {
                                        "children": [],
                                        "depth": 2,
                                        "id": 18,
                                        "order": 18
                                    }
                                ],
                                "depth": 1,
                                "id": 17,
                                "order": 17
                            },
                            {
                                "children": [],
                                "depth": 1,
                                "id": 19,
                                "order": 19
                            },
                            {
                                "children": [
                                    {
                                        "children": [],
                                        "depth": 2,
                                        "id": 21,
                                        "order": 21
                                    }
                                ],
                                "depth": 1,
                                "id": 20,
                                "order": 20
                            },
                            {
                                "children": [],
                                "depth": 1,
                                "id": 22,
                                "order": 22
                            },
                            {
                                "children": [
                                    {
                                        "children": [],
                                        "depth": 2,
                                        "id": 24,
                                        "order": 24
                                    }
                                ],
                                "depth": 1,
                                "id": 23,
                                "order": 23
                            },
                            {
                                "children": [],
                                "depth": 1,
                                "id": 25,
                                "order": 25
                            },
                            {
                                "children": [
                                    {
                                        "children": [],
                                        "depth": 2,
                                        "id": 27,
                                        "order": 27
                                    }
                                ],
                                "depth": 1,
                                "id": 26,
                                "order": 26
                            },
                            {
                                "children": [],
                                "depth": 1,
                                "id": 28,
                                "order": 28
                            },
                            {
                                "children": [
                                    {
                                        "children": [],
                                        "depth": 2,
                                        "id": 30,
                                        "order": 30
                                    }
                                ],
                                "depth": 1,
                                "id": 29,
                                "order": 29
                            },
                            {
                                "children": [],
                                "depth": 1,
                                "id": 31,
                                "order": 31
                            },
                            {
                                "children": [
                                    {
                                        "children": [],
                                        "depth": 2,
                                        "id": 33,
                                        "order": 33
                                    }
                                ],
                                "depth": 1,
                                "id": 32,
                                "order": 32
                            },
                            {
                                "children": [],
                                "depth": 1,
                                "id": 34,
                                "order": 34
                            },
                            {
                                "children": [
                                    {
                                        "children": [],
                                        "depth": 2,
                                        "id": 36,
                                        "order": 36
                                    }
                                ],
                                "depth": 1,
                                "id": 35,
                                "order": 35
                            },
                            {
                                "children": [],
                                "depth": 1,
                                "id": 37,
                                "order": 37
                            },
                            {
                                "children": [
                                    {
                                        "children": [],
                                        "depth": 2,
                                        "id": 39,
                                        "order": 39
                                    }
                                ],
                                "depth": 1,
                                "id": 38,
                                "order": 38
                            },
                            {
                                "children": [],
                                "depth": 1,
                                "id": 40,
                                "order": 40
                            },
                            {
                                "children": [
                                    {
                                        "children": [],
                                        "depth": 2,
                                        "id": 42,
                                        "order": 42
                                    }
                                ],
                                "depth": 1,
                                "id": 41,
                                "order": 41
                            },
                            {
                                "children": [],
                                "depth": 1,
                                "id": 43,
                                "order": 43
                            },
                            {
                                "children": [
                                    {
                                        "children": [],
                                        "depth": 2,
                                        "id": 45,
                                        "order": 45
                                    }
                                ],
                                "depth": 1,
                                "id": 44,
                                "order": 44
                            },
                            {
                                "children": [],
                                "depth": 1,
                                "id": 46,
                                "order": 46
                            },
                            {
                                "children": [],
                                "depth": 1,
                                "id": 47,
                                "order": 47
                            },
                            {
                                "children": [
                                    {
                                        "children": [],
                                        "depth": 2,
                                        "id": 49,
                                        "order": 49
                                    }
                                ],
                                "depth": 1,
                                "id": 48,
                                "order": 48
                            },
                            {
                                "children": [],
                                "depth": 1,
                                "id": 50,
                                "order": 50
                            },
                            {
                                "children": [
                                    {
                                        "children": [],
                                        "depth": 2,
                                        "id": 52,
                                        "order": 52
                                    }
                                ],
                                "depth": 1,
                                "id": 51,
                                "order": 51
                            },
                            {
                                "children": [],
                                "depth": 1,
                                "id": 53,
                                "order": 53
                            },
                            {
                                "children": [],
                                "depth": 1,
                                "id": 54,
                                "order": 54
                            }
                        ],
                        "depth": 0,
                        "id": 0,
                        "order": 0
                    }
                ],
                "depth": -1,
                "id": -1,
                "order": -1
            }
        ],
        "mainTraceNodeCount": 55,
        "parentIdMap": {
            "0": -1,
            "1": 0,
            "10": 0,
            "11": 0,
            "12": 11,
            "13": 0,
            "14": 0,
            "15": 14,
            "16": 0,
            "17": 0,
            "18": 17,
            "19": 0,
            "2": 0,
            "20": 0,
            "21": 20,
            "22": 0,
            "23": 0,
            "24": 23,
            "25": 0,
            "26": 0,
            "27": 26,
            "28": 0,
            "29": 0,
            "3": 2,
            "30": 29,
            "31": 0,
            "32": 0,
            "33": 32,
            "34": 0,
            "35": 0,
            "36": 35,
            "37": 0,
            "38": 0,
            "39": 38,
            "4": 0,
            "40": 0,
            "41": 0,
            "42": 41,
            "43": 0,
            "44": 0,
            "45": 44,
            "46": 0,
            "47": 0,
            "48": 0,
            "49": 48,
            "5": 0,
            "50": 0,
            "51": 0,
            "52": 51,
            "53": 0,
            "54": 0,
            "6": 0,
            "7": 0,
            "8": 7,
            "9": 0
        },
        "tidyTrace": [
            {
                "children": [
                    {
                        "children": [
                            {
                                "children": [],
                                "depth": 1,
                                "id": 4,
                                "order": 4
                            },
                            {
                                "children": [
                                    {
                                        "children": [],
                                        "depth": 2,
                                        "id": 8,
                                        "order": 8
                                    }
                                ],
                                "depth": 1,
                                "id": 7,
                                "order": 7
                            },
                            {
                                "children": [],
                                "depth": 1,
                                "id": 9,
                                "order": 9
                            },
                            {
                                "children": [
                                    {
                                        "children": [],
                                        "depth": 2,
                                        "id": 12,
                                        "order": 12
                                    }
                                ],
                                "depth": 1,
                                "id": 11,
                                "order": 11
                            },
                            {
                                "children": [],
                                "depth": 1,
                                "id": 13,
                                "order": 13
                            },
                            {
                                "children": [
                                    {
                                        "children": [],
                                        "depth": 2,
                                        "id": 15,
                                        "order": 15
                                    }
                                ],
                                "depth": 1,
                                "id": 14,
                                "order": 14
                            },
                            {
                                "children": [],
                                "depth": 1,
                                "id": 16,
                                "order": 16
                            },
                            {
                                "children": [
                                    {
                                        "children": [],
                                        "depth": 2,
                                        "id": 18,
                                        "order": 18
                                    }
                                ],
                                "depth": 1,
                                "id": 17,
                                "order": 17
                            },
                            {
                                "children": [],
                                "depth": 1,
                                "id": 19,
                                "order": 19
                            },
                            {
                                "children": [
                                    {
                                        "children": [],
                                        "depth": 2,
                                        "id": 21,
                                        "order": 21
                                    }
                                ],
                                "depth": 1,
                                "id": 20,
                                "order": 20
                            },
                            {
                                "children": [],
                                "depth": 1,
                                "id": 22,
                                "order": 22
                            },
                            {
                                "children": [
                                    {
                                        "children": [],
                                        "depth": 2,
                                        "id": 24,
                                        "order": 24
                                    }
                                ],
                                "depth": 1,
                                "id": 23,
                                "order": 23
                            },
                            {
                                "children": [],
                                "depth": 1,
                                "id": 25,
                                "order": 25
                            },
                            {
                                "children": [
                                    {
                                        "children": [],
                                        "depth": 2,
                                        "id": 27,
                                        "order": 27
                                    }
                                ],
                                "depth": 1,
                                "id": 26,
                                "order": 26
                            },
                            {
                                "children": [],
                                "depth": 1,
                                "id": 28,
                                "order": 28
                            },
                            {
                                "children": [
                                    {
                                        "children": [],
                                        "depth": 2,
                                        "id": 30,
                                        "order": 30
                                    }
                                ],
                                "depth": 1,
                                "id": 29,
                                "order": 29
                            },
                            {
                                "children": [],
                                "depth": 1,
                                "id": 31,
                                "order": 31
                            },
                            {
                                "children": [
                                    {
                                        "children": [],
                                        "depth": 2,
                                        "id": 33,
                                        "order": 33
                                    }
                                ],
                                "depth": 1,
                                "id": 32,
                                "order": 32
                            },
                            {
                                "children": [],
                                "depth": 1,
                                "id": 34,
                                "order": 34
                            },
                            {
                                "children": [
                                    {
                                        "children": [],
                                        "depth": 2,
                                        "id": 36,
                                        "order": 36
                                    }
                                ],
                                "depth": 1,
                                "id": 35,
                                "order": 35
                            },
                            {
                                "children": [],
                                "depth": 1,
                                "id": 37,
                                "order": 37
                            },
                            {
                                "children": [
                                    {
                                        "children": [],
                                        "depth": 2,
                                        "id": 39,
                                        "order": 39
                                    }
                                ],
                                "depth": 1,
                                "id": 38,
                                "order": 38
                            },
                            {
                                "children": [],
                                "depth": 1,
                                "id": 40,
                                "order": 40
                            },
                            {
                                "children": [
                                    {
                                        "children": [],
                                        "depth": 2,
                                        "id": 42,
                                        "order": 42
                                    }
                                ],
                                "depth": 1,
                                "id": 41,
                                "order": 41
                            },
                            {
                                "children": [],
                                "depth": 1,
                                "id": 43,
                                "order": 43
                            },
                            {
                                "children": [
                                    {
                                        "children": [],
                                        "depth": 2,
                                        "id": 45,
                                        "order": 45
                                    }
                                ],
                                "depth": 1,
                                "id": 44,
                                "order": 44
                            },
                            {
                                "children": [],
                                "depth": 1,
                                "id": 46,
                                "order": 46
                            },
                            {
                                "children": [
                                    {
                                        "children": [],
                                        "depth": 2,
                                        "id": 49,
                                        "order": 49
                                    }
                                ],
                                "depth": 1,
                                "id": 48,
                                "order": 48
                            },
                            {
                                "children": [],
                                "depth": 1,
                                "id": 50,
                                "order": 50
                            },
                            {
                                "children": [
                                    {
                                        "children": [],
                                        "depth": 2,
                                        "id": 52,
                                        "order": 52
                                    }
                                ],
                                "depth": 1,
                                "id": 51,
                                "order": 51
                            },
                            {
                                "children": [],
                                "depth": 1,
                                "id": 53,
                                "order": 53
                            },
                            {
                                "children": [],
                                "depth": 1,
                                "id": 54,
                                "order": 54
                            }
                        ],
                        "depth": 0,
                        "id": 0,
                        "order": 0
                    }
                ],
                "depth": -1,
                "id": -1,
                "order": -1
            }
        ],
        "tidyTraceNodeCount": 48
    },
    "state_change": {
        "stateChanges": [
            {
                "address": "0x990cd466bc4875fc0a87741372a716cc7fe21125",
                "erc": "",
                "slots": [
                    {
                        "current": "0x0000000000000000000000000000000000000000000000000090f20503de6800",
                        "key": "0x6f77452d4355bc5d78cdc89fbf1affcd9a171a1533a953308389c89b28980c81",
                        "prev": "0x0000000000000000000000000000000000000000000000000088104867ee2800"
                    },
                    {
                        "current": "0x0000000000000000000000000000000000000000000000000066a17ba2458000",
                        "key": "0x198e6e9cc7ea345c376f872d531a16c51d0c4c1c7508022d06995dd64518eacf",
                        "prev": "0x000000000000000000000000000000000000000000000000004f318be0b03000"
                    },
                    {
                        "current": "0x00000000000000000000000000000000000000000000000001a486635a3d0a40",
                        "key": "0x154af538ffa38376246f3106b2338a14dcb262d696200329e8111308e9f15535",
                        "prev": "0x000000000000000000000000000000000000000000000000018a817fbf2e4840"
                    },
                    {
                        "current": "0x00000000000000000000000000000000000000000000000003cf24d33c961173",
                        "key": "0x60ecb1efb2f60e01277ebc20d6765e30d0806979febd5f9e24a3a3b8e57f563a",
                        "prev": "0x0000000000000000000000000000000000000000000000000263cbb60d168cd3"
                    },
                    {
                        "current": "0x00000000000000000000000000000000000000000000000000a1a74489e81cff",
                        "key": "0xbdbb92ac1f1f0a08f993bae99b777ebc03d93bfaff55f6b60df6f96d51dbe465",
                        "prev": "0x0000000000000000000000000000000000000000000000000000000000000000"
                    },
                    {
                        "current": "0x000000000000000000000000000000000000000000000000003e85c1b866fc40",
                        "key": "0xd4e3e49bdcb17fc49f0dfcb87d933c1eb82e8b2813bf6fc1e79a4dc66ec1f262",
                        "prev": "0x0000000000000000000000000000000000000000000000000000000000000000"
                    },
                    {
                        "current": "0x000000000000000000000000000000000000000000000000050f1f84c87bcc00",
                        "key": "0xd39e2ec9eeb0f7dba2486e5037cd346f23a8bcdb430184763c0b4141b9712e61",
                        "prev": "0x000000000000000000000000000000000000000000000000030c17e408af4c00"
                    }
                ],
                "storageVariables": []
            },
            {
                "address": "0xe15e9c0bf6b6b29d3b9e1c921ab2cb09c2194463",
                "erc": "",
                "slots": [
                    {
                        "current": "0x0000000000000000000000000000000000000000000000000000000000000097",
                        "key": "0xe35bca1b1719a75af6d160e5d75f52cce58e932a5c68187b12ab4df712766f50",
                        "prev": "0x0000000000000000000000000000000000000000000000000000000000000000"
                    },
                    {
                        "current": "0x0000000000000000000000000000000000000000000000000000000000005526",
                        "key": "0x466639961b5b481373a00c58fdec433b4829747d7204c2b7a48e15faa5e011d7",
                        "prev": "0x0000000000000000000000000000000000000000000000000000000000000000"
                    },
                    {
                        "current": "0x0000000000000000000000000000000000000000000000000000000000005526",
                        "key": "0x000000000000000000000000000000000000000000000000000000000000000b",
                        "prev": "0x0000000000000000000000000000000000000000000000000000000000005525"
                    },
                    {
                        "current": "0x0000000000000000000000000000000000000000000000000000000000000037",
                        "key": "0x0bbaa4042fa4c7537be7bab11827a88f5b07be188f5a006490c9a554e6cde233",
                        "prev": "0x0000000000000000000000000000000000000000000000000000000000000036"
                    },
                    {
                        "current": "0x000000000000000000000000f0bb13051be712970c9bb50233bfac25a654afd6",
                        "key": "0x0c84484f6fdc7b78a19ee67ec91eee8125493c4f970389d370b16118184b781c",
                        "prev": "0x0000000000000000000000000000000000000000000000000000000000000000"
                    },
                    {
                        "current": "0x0000000000000000000000000000000000000000000000000000000000005527",
                        "key": "0x0000000000000000000000000000000000000000000000000000000000000012",
                        "prev": "0x0000000000000000000000000000000000000000000000000000000000005526"
                    },
                    {
                        "current": "0x0000000000000000000000000000000000000000000001730000000000000176",
                        "key": "0xbb8a6a4669ba250d26cd7a459eca9d215f8307e33aebe50379bc5a3617ec896a",
                        "prev": "0x0000000000000000000000000000000000000000000000000000000000000000"
                    },
                    {
                        "current": "0x000000000000000000000000000000000000000000000000088ef395a9c86fdf",
                        "key": "0x69601d62521ad141e48497aeb9b5a2cc1bab7d4bb0421fe00a4224ddb436abad",
                        "prev": "0x0000000000000000000000000000000000000000000000000000000000000000"
                    }
                ],
                "storageVariables": []
            }
        ]
    }
}