{
    "balance_change": {
        "balanceChanges": []
    },
    "profile": {
        "basic_info": {
            "baseFee": "",
            "blockNumber": 7805584,
            "callData": "0x21670f220000000000000000000000006b332d4a16b6ab96f3e836ef267db78c0e6e2e310000000000000000000000000000000000000000000000d8e5076dcb21e40000",
            "debugEnable": true,
            "errorInfo": "",
            "eventCount": 1,
            "feeRecipient": "0xea674fdde714fd979de3edf0f56aa9716b898ec8",
            "formatValue": "0",
            "gasLimit": 155586,
            "gasPrice": "2",
            "gasUsed": 51862,
            "intTxnCount": 0,
            "internalRevert": false,
            "internalRevertMessage": "",
            "isContractCreation": false,
            "isFlashloan": false,
            "maxFee": "",
            "nonce": 234137,
            "overwritedBlockNumber": -1,
            "priorityFee": "",
            "receiver": "0xb363a3c584b1f379c79fbf09df015da5529d4dac",
            "revertMessage": "",
            "sender": "0x5a9e54056ea941b6a85e44d0c11b5c51028810d7",
            "simulationEnable": true,
            "sourceTxnHash": "0x88b43cc94abf01d2c9a370e2b25f419ce8dfeb4d909aff8377de41c3a1721db5",
            "status": true,
            "timestamp": "2019-05-21T21:20:22Z",
            "transactionFee": "0.000103724",
            "txnHash": "0x88b43cc94abf01d2c9a370e2b25f419ce8dfeb4d909aff8377de41c3a1721db5",
            "txnIndex": 144,
            "type": 0,
            "value": "0"
        },
        "fund_flow": [],
        "token_infos": [
            {
                "address": "0xc02aaa39b223fe8d0a0e5c4f27ead9083c756cc2",
                "decimals": 18
            },
            {
                "address": "0xeeeeeeeeeeeeeeeeeeeeeeeeeeeeeeeeeeeeeeee",
                "decimals": 18
            }
        ]
    },
    "address_label": {
        "labels": [
            {
                "address": "0xeeeeeeeeeeeeeeeeeeeeeeeeeeeeeeeeeeeeeeee",
                "label": "Ether"
            },
            {
                "address": "0xb363a3c584b1f379c79fbf09df015da5529d4dac",
                "label": "MiracleTele (TELE)"
            },
            {
                "address": "0x0000000000000000000000000000000000000001",
                "label": "Precompiled"
            },
            {
                "address": "0x0000000000000000000000000000000000000002",
                "label": "Precompiled"
            },
            {
                "address": "0x0000000000000000000000000000000000000003",
                "label": "Precompiled"
            },
            {
                "address": "0x0000000000000000000000000000000000000004",
                "label": "Precompiled"
            }
        ]
    },
    "trace": {
        "accountLabels": null,
        "dataMap": {
            "-1": {
                "invocation": {
                    "address": "0x5a9e54056ea941b6a85e44d0c11b5c51028810d7",
                    "callData": "",
                    "decodedMethod": null,
                    "errorInfo": "",
                    "fromAddress": "",
                    "gasUsed": 0,
                    "id": -1,
                    "methodDecoded": false,
                    "operation": "",
                    "output": "",
                    "revert": false,
                    "revertMessage": "",
                    "selector": "",
                    "status": false,
                    "value": ""
                },
                "nodeType": 0
            },
            "0": {
                "invocation": {
                    "address": "0xb363a3c584b1f379c79fbf09df015da5529d4dac",
                    "callData": "0x0000000000000000000000006b332d4a16b6ab96f3e836ef267db78c0e6e2e310000000000000000000000000000000000000000000000d8e5076dcb21e40000",
                    "decodedMethod": {
                        "callParams": [
                            {
                                "name": "_from",
                                "type": "address",
                                "value": "0x6b332d4a16b6ab96f3e836ef267db78c0e6e2e31"
                            },
                            {
                                "name": "_value",
                                "type": "uint256",
                                "value": "4,001,000,000,000,000,000,000"
                            }
                        ],
                        "constructorArguments": "",
                        "name": "reward",
                        "returnParams": [],
                        "signature": "reward(address,uint256)"
                    },
                    "errorInfo": "",
                    "fromAddress": "0x5a9e54056ea941b6a85e44d0c11b5c51028810d7",
                    "gasUsed": 51862,
                    "id": 0,
                    "methodDecoded": true,
                    "operation": "CALL",
                    "output": "",
                    "revert": false,
                    "revertMessage": "",
                    "selector": "0x21670f22",
                    "status": true,
                    "value": "0"
                },
                "nodeType": 0
            },
            "1": {
                "event": {
                    "contract": "0xb363a3c584b1f379c79fbf09df015da5529d4dac",
                    "decodedLog": {
                        "name": "Reward",
                        "params": [
                            {
                                "name": "from",
                                "type": "address",
                                "value": "0x6b332d4a16b6ab96f3e836ef267db78c0e6e2e31"
                            },
                            {
                                "name": "value",
                                "type": "uint256",
                                "value": "4,001,000,000,000,000,000,000"
                            }
                        ],
                        "signature": "Reward(address,uint256)"
                    },
                    "id": 1,
                    "logData": "0x",
                    "logDecoded": true,
                    "operation": "EVENT",
                    "revert": false,
                    "status": true,
                    "topics": [
                        "0x619caafabdd75649b302ba8419e48cccf64f37f1983ac4727cfb38b57703ffc9",
                        "0x0000000000000000000000006b332d4a16b6ab96f3e836ef267db78c0e6e2e31",
                        "0x0000000000000000000000000000000000000000000000d8e5076dcb21e40000"
                    ]
                },
                "nodeType": 1
            }
        },
        "gasFlame": [
            {
                "children": [
                    {
                        "children": [
                            {
                                "children": [],
                                "depth": 0,
                                "name": "Initial Gas",
                                "value": 23256
                            },
                            {
                                "children": [],
                                "depth": 0,
                                "name": "Executed Gas",
                                "value": 28606
                            }
                        ],
                        "depth": -1,
                        "name": "Actual Gas Used",
                        "value": 51862
                    },
                    {
                        "children": [],
                        "depth": -1,
                        "name": "Refunded Gas",
                        "value": 0
                    }
                ],
                "depth": -2,
                "name": "Total Gas",
                "value": 51862
            }
        ],
        "isConfirmed": true,
        "mainTrace": [
            {
                "children": [
                    {
                        "children": [
                            {
                                "children": [],
                                "depth": 1,
                                "id": 1,
                                "order": 1
                            }
                        ],
                        "depth": 0,
                        "id": 0,
                        "order": 0
                    }
                ],
                "depth": -1,
                "id": -1,
                "order": -1
            }
        ],
        "mainTraceNodeCount": 2,
        "parentIdMap": {
            "0": -1,
            "1": 0
        },
        "tidyTrace": [
            {
                "children": [
                    {
                        "children": [
                            {
                                "children": [],
                                "depth": 1,
                                "id": 1,
                                "order": 1
                            }
                        ],
                        "depth": 0,
                        "id": 0,
                        "order": 0
                    }
                ],
                "depth": -1,
                "id": -1,
                "order": -1
            }
        ],
        "tidyTraceNodeCount": 2
    },
    "state_change": {
        "stateChanges": [
            {
                "address": "0xb363a3c584b1f379c79fbf09df015da5529d4dac",
                "erc": "ERC-20",
                "slots": [
                    {
                        "current": "0x0000000000000000000000000000000000000000000000d8e5076dcb21e40000",
                        "key": "0xf09db57d51224c28afa0451598a6af4c72f9155cb0e92c1990c8a1e618b891a1",
                        "prev": "0x0000000000000000000000000000000000000000000000000000000000000000"
                    },
                    {
                        "current": "0x0000000000000000000000000000000000000000000001937c5fe94bc06c0000",
                        "key": "0xfaec031683361342d7ca601271106d09719704f4146d8c1254821bb378468ac8",
                        "prev": "0x00000000000000000000000000000000000000000000026c61675716e2500000"
                    }
                ],
                "storageVariables": [
                    {
                        "name": "balances",
                        "type": "mapping(address => uint256)",
                        "value": {
                            "pairs": [
                                {
                                    "key": "0x6b332d4a16b6ab96f3e836ef267db78c0e6e2e31",
                                    "value": {
                                        "current": "4001000000000000000000",
                                        "prev": "0",
                                        "typeTag": 1
                                    }
                                }
                            ],
                            "typeTag": 4
                        }
                    },
                    {
                        "name": "contributions",
                        "type": "mapping(address => uint256)",
                        "value": {
                            "pairs": [
                                {
                                    "key": "0x6b332d4a16b6ab96f3e836ef267db78c0e6e2e31",
                                    "value": {
                                        "current": "7443000000000000000000",
                                        "prev": "11444000000000000000000",
                                        "typeTag": 1
                                    }
                                }
                            ],
                            "typeTag": 4
                        }
                    }
                ]
            }
        ]
    }
}