{
    "balance_change": {
        "balanceChanges": [
            {
                "account": "0x50c9c39b57879502a0da93e340b9c80b5f917aa1",
                "assets": [
                    {
                        "address": "0xeeeeeeeeeeeeeeeeeeeeeeeeeeeeeeeeeeeeeeee",
                        "amount": "0.019978621443688527",
                        "iconUrl": "https://assets.blocksec.com/image/1663669189317-3.png",
                        "isERC1155": false,
                        "isERC721": false,
                        "sign": false,
                        "value": "45.88040968605797832"
                    }
                ]
            },
            {
                "account": "0x67c9a1beb17f53a5f3b4554571eefee295ab9a1f",
                "assets": [
                    {
                        "address": "0xeeeeeeeeeeeeeeeeeeeeeeeeeeeeeeeeeeeeeeee",
                        "amount": "0.019978621443688527",
                        "iconUrl": "https://assets.blocksec.com/image/1663669189317-3.png",
                        "isERC1155": false,
                        "isERC721": false,
                        "sign": true,
                        "value": "45.88040968605797832"
                    }
                ]
            }
        ]
    },
    "profile": {
        "basic_info": {
            "baseFee": "18.486447152",
            "blockNumber": 19224572,
            "callData": "0xc358547e00000000000000000000000000000000000000000000000000000000000000a00000000000000000000000000000000000000000000000000046fa734a40c84f91c6b24051ce6607e1672098c854a4d2d900cde6ec935d9a8e848adef90d0c77000000000000000000000000000000000000000000000000000000000000044000000000000000000000000050c9c39b57879502a0da93e340b9c80b5f917aa10000000000000000000000000000000000000000000000000000018da6686f8e00000000000000000000000000000000000000000000000000000000000001c0000000000000000000000000000000000000000000000000000000000000a4b10000000000000000000000000000000000000000000000000000000000000200000000000000000000000000000000000000000000000000005eebbe2367d7e3000000000000000000000000000000000000000000000000000000000000000100000000000000000000000000000000000000000000000000000000000002400000000000000000000000000000000000000000000000000046fa734a40c84f000000000000000000000000000000000000000000000000000000000000028000000000000000000000000000000000000000000000000000000000000002c00000000000000000000000000000000000000000000000000000000000000300000000000000000000000000000000000000000000000000000000000000034000000000000000000000000000000000000000000000000000000000000003600000000000000000000000000000000000000000000000000000000000000380000000000000000000000000000000000000000000000000000000000000001467c9a1beb17f53a5f3b4554571eefee295ab9a1f0000000000000000000000000000000000000000000000000000000000000000000000000000000000000014000000000000000000000000000000000000000000000000000000000000000000000000000000000000000000000000000000000000000000000000000000140000000000000000000000000000000000000000000000000000000000000000000000000000000000000000000000000000000000000000000000000000001467c9a1beb17f53a5f3b4554571eefee295ab9a1f000000000000000000000000000000000000000000000000000000000000000000000000000000000000001467c9a1beb17f53a5f3b4554571eefee295ab9a1f000000000000000000000000000000000000000000000000000000000000000000000000000000000000001467c9a1beb17f53a5f3b4554571eefee295ab9a1f0000000000000000000000000000000000000000000000000000000000000000000000000000000000000000000000000000000000000000000000000000000000000000000000000000000000000000000000000000000000000000000000000000000000000000000000000000000000000000000000000000000000000000000000000000000000000000",
            "debugEnable": true,
            "errorInfo": "",
            "eventCount": 1,
            "feeRecipient": "0x4838b106fce9647bdf1e7877bf73ce8b0bad5f97",
            "formatValue": "0.019978621443688527",
            "gasLimit": 125036,
            "gasPrice": "39.653285752",
            "gasUsed": 118701,
            "intTxnCount": 2,
            "internalRevert": false,
            "internalRevertMessage": "",
            "isContractCreation": false,
            "isFlashloan": false,
            "maxFee": "200",
            "nonce": 779,
            "overwritedBlockNumber": -1,
            "priorityFee": "21.1668386",
            "receiver": "0xe7351fd770a37282b91d153ee690b63579d6dd7f",
            "revertMessage": "",
            "sender": "0x50c9c39b57879502a0da93e340b9c80b5f917aa1",
            "simulationEnable": true,
            "sourceTxnHash": "0x89403ffbd6a7cdd830c305378de421639d60654c92d22129d6a24dd557db75ea",
            "status": true,
            "timestamp": "2024-02-14T06:58:35Z",
            "transactionFee": "0.004706884672048152",
            "txnHash": "0x89403ffbd6a7cdd830c305378de421639d60654c92d22129d6a24dd557db75ea",
            "txnIndex": 4,
            "type": 2,
            "value": "19978621443688527"
        },
        "fund_flow": [
            {
                "amount": "0.019978621443688527",
                "from": "0x50c9c39b57879502a0da93e340b9c80b5f917aa1",
                "id": 1,
                "isERC1155": false,
                "isERC721": false,
                "isReverted": false,
                "order": 1,
                "to": "0xe7351fd770a37282b91d153ee690b63579d6dd7f",
                "token": "0xeeeeeeeeeeeeeeeeeeeeeeeeeeeeeeeeeeeeeeee"
            },
            {
                "amount": "0.019978621443688527",
                "from": "0xe7351fd770a37282b91d153ee690b63579d6dd7f",
                "id": 2,
                "isERC1155": false,
                "isERC721": false,
                "isReverted": false,
                "order": 2,
                "to": "0x67c9a1beb17f53a5f3b4554571eefee295ab9a1f",
                "token": "0xeeeeeeeeeeeeeeeeeeeeeeeeeeeeeeeeeeeeeeee"
            }
        ],
        "token_infos": [
            {
                "address": "0xc02aaa39b223fe8d0a0e5c4f27ead9083c756cc2",
                "decimals": 18
            },
            {
                "address": "0xeeeeeeeeeeeeeeeeeeeeeeeeeeeeeeeeeeeeeeee",
                "decimals": 18
            }
        ]
    },
    "address_label": {
        "labels": [
            {
                "address": "0x33b72f60f2ceb7bdb64873ac10015a35bed81717",
                "label": "DlnDestination"
            },
            {
                "address": "0xe7351fd770a37282b91d153ee690b63579d6dd7f",
                "label": "Dln: Destination"
            },
            {
                "address": "0x0000000000000000000000000000000000000001",
                "label": "Precompiled"
            },
            {
                "address": "0x0000000000000000000000000000000000000002",
                "label": "Precompiled"
            },
            {
                "address": "0x0000000000000000000000000000000000000003",
                "label": "Precompiled"
            },
            {
                "address": "0x0000000000000000000000000000000000000004",
                "label": "Precompiled"
            },
            {
                "address": "0xeeeeeeeeeeeeeeeeeeeeeeeeeeeeeeeeeeeeeeee",
                "label": "Ether"
            }
        ]
    },
    "trace": {
        "accountLabels": null,
        "dataMap": {
            "-1": {
                "invocation": {
                    "address": "0x50c9c39b57879502a0da93e340b9c80b5f917aa1",
                    "callData": "",
                    "decodedMethod": null,
                    "errorInfo": "",
                    "fromAddress": "",
                    "gasUsed": 0,
                    "id": -1,
                    "methodDecoded": false,
                    "operation": "",
                    "output": "",
                    "revert": false,
                    "revertMessage": "",
                    "selector": "",
                    "status": false,
                    "value": ""
                },
                "nodeType": 0
            },
            "0": {
                "invocation": {
                    "address": "0xe7351fd770a37282b91d153ee690b63579d6dd7f",
                    "callData": "0x00000000000000000000000000000000000000000000000000000000000000a00000000000000000000000000000000000000000000000000046fa734a40c84f91c6b24051ce6607e1672098c854a4d2d900cde6ec935d9a8e848adef90d0c77000000000000000000000000000000000000000000000000000000000000044000000000000000000000000050c9c39b57879502a0da93e340b9c80b5f917aa10000000000000000000000000000000000000000000000000000018da6686f8e00000000000000000000000000000000000000000000000000000000000001c0000000000000000000000000000000000000000000000000000000000000a4b10000000000000000000000000000000000000000000000000000000000000200000000000000000000000000000000000000000000000000005eebbe2367d7e3000000000000000000000000000000000000000000000000000000000000000100000000000000000000000000000000000000000000000000000000000002400000000000000000000000000000000000000000000000000046fa734a40c84f000000000000000000000000000000000000000000000000000000000000028000000000000000000000000000000000000000000000000000000000000002c00000000000000000000000000000000000000000000000000000000000000300000000000000000000000000000000000000000000000000000000000000034000000000000000000000000000000000000000000000000000000000000003600000000000000000000000000000000000000000000000000000000000000380000000000000000000000000000000000000000000000000000000000000001467c9a1beb17f53a5f3b4554571eefee295ab9a1f0000000000000000000000000000000000000000000000000000000000000000000000000000000000000014000000000000000000000000000000000000000000000000000000000000000000000000000000000000000000000000000000000000000000000000000000140000000000000000000000000000000000000000000000000000000000000000000000000000000000000000000000000000000000000000000000000000001467c9a1beb17f53a5f3b4554571eefee295ab9a1f000000000000000000000000000000000000000000000000000000000000000000000000000000000000001467c9a1beb17f53a5f3b4554571eefee295ab9a1f000000000000000000000000000000000000000000000000000000000000000000000000000000000000001467c9a1beb17f53a5f3b4554571eefee295ab9a1f0000000000000000000000000000000000000000000000000000000000000000000000000000000000000000000000000000000000000000000000000000000000000000000000000000000000000000000000000000000000000000000000000000000000000000000000000000000000000000000000000000000000000000000000000000000000000000",
                    "decodedMethod": {
                        "callParams": [
                            {
                                "name": "_order",
                                "type": "(uint64,bytes,uint256,bytes,uint256,uint256,bytes,uint256,bytes,bytes,bytes,bytes,bytes,bytes)",
                                "value": [
                                    {
                                        "name": "makerOrderNonce",
                                        "type": "uint64",
                                        "value": "1,707,893,878,670"
                                    },
                                    {
                                        "name": "makerSrc",
                                        "type": "bytes",
                                        "value": "0x67c9a1beb17f53a5f3b4554571eefee295ab9a1f"
                                    },
                                    {
                                        "name": "giveChainId",
                                        "type": "uint256",
                                        "value": "42,161"
                                    },
                                    {
                                        "name": "giveTokenAddress",
                                        "type": "bytes",
                                        "value": "0x0000000000000000000000000000000000000000"
                                    },
                                    {
                                        "name": "giveAmount",
                                        "type": "uint256",
                                        "value": "26,717,849,681,123,299"
                                    },
                                    {
                                        "name": "takeChainId",
                                        "type": "uint256",
                                        "value": "1"
                                    },
                                    {
                                        "name": "takeTokenAddress",
                                        "type": "bytes",
                                        "value": "0x0000000000000000000000000000000000000000"
                                    },
                                    {
                                        "name": "takeAmount",
                                        "type": "uint256",
                                        "value": "19,978,621,443,688,527"
                                    },
                                    {
                                        "name": "receiverDst",
                                        "type": "bytes",
                                        "value": "0x67c9a1beb17f53a5f3b4554571eefee295ab9a1f"
                                    },
                                    {
                                        "name": "givePatchAuthoritySrc",
                                        "type": "bytes",
                                        "value": "0x67c9a1beb17f53a5f3b4554571eefee295ab9a1f"
                                    },
                                    {
                                        "name": "orderAuthorityAddressDst",
                                        "type": "bytes",
                                        "value": "0x67c9a1beb17f53a5f3b4554571eefee295ab9a1f"
                                    },
                                    {
                                        "name": "allowedTakerDst",
                                        "type": "bytes",
                                        "value": "0x"
                                    },
                                    {
                                        "name": "allowedCancelBeneficiarySrc",
                                        "type": "bytes",
                                        "value": "0x"
                                    },
                                    {
                                        "name": "externalCall",
                                        "type": "bytes",
                                        "value": "0x"
                                    }
                                ]
                            },
                            {
                                "name": "_fulFillAmount",
                                "type": "uint256",
                                "value": "19,978,621,443,688,527"
                            },
                            {
                                "name": "_orderId",
                                "type": "bytes32",
                                "value": "0x91c6b24051ce6607e1672098c854a4d2d900cde6ec935d9a8e848adef90d0c77"
                            },
                            {
                                "name": "_permitEnvelope",
                                "type": "bytes",
                                "value": "0x"
                            },
                            {
                                "name": "_unlockAuthority",
                                "type": "address",
                                "value": "0x50c9c39b57879502a0da93e340b9c80b5f917aa1"
                            }
                        ],
                        "constructorArguments": "",
                        "name": "fulfillOrder",
                        "returnParams": [],
                        "signature": "fulfillOrder((uint64,bytes,uint256,bytes,uint256,uint256,bytes,uint256,bytes,bytes,bytes,bytes,bytes,bytes),uint256,bytes32,bytes,address)"
                    },
                    "errorInfo": "",
                    "fromAddress": "0x50c9c39b57879502a0da93e340b9c80b5f917aa1",
                    "gasUsed": 118701,
                    "id": 0,
                    "methodDecoded": true,
                    "operation": "CALL",
                    "output": "",
                    "revert": false,
                    "revertMessage": "",
                    "selector": "0xc358547e",
                    "status": true,
                    "value": "0.019978621443688527"
                },
                "nodeType": 0
            },
            "1": {
                "invocation": {
                    "address": "0x33b72f60f2ceb7bdb64873ac10015a35bed81717",
                    "callData": "0x00000000000000000000000000000000000000000000000000000000000000a00000000000000000000000000000000000000000000000000046fa734a40c84f91c6b24051ce6607e1672098c854a4d2d900cde6ec935d9a8e848adef90d0c77000000000000000000000000000000000000000000000000000000000000044000000000000000000000000050c9c39b57879502a0da93e340b9c80b5f917aa10000000000000000000000000000000000000000000000000000018da6686f8e00000000000000000000000000000000000000000000000000000000000001c0000000000000000000000000000000000000000000000000000000000000a4b10000000000000000000000000000000000000000000000000000000000000200000000000000000000000000000000000000000000000000005eebbe2367d7e3000000000000000000000000000000000000000000000000000000000000000100000000000000000000000000000000000000000000000000000000000002400000000000000000000000000000000000000000000000000046fa734a40c84f000000000000000000000000000000000000000000000000000000000000028000000000000000000000000000000000000000000000000000000000000002c00000000000000000000000000000000000000000000000000000000000000300000000000000000000000000000000000000000000000000000000000000034000000000000000000000000000000000000000000000000000000000000003600000000000000000000000000000000000000000000000000000000000000380000000000000000000000000000000000000000000000000000000000000001467c9a1beb17f53a5f3b4554571eefee295ab9a1f0000000000000000000000000000000000000000000000000000000000000000000000000000000000000014000000000000000000000000000000000000000000000000000000000000000000000000000000000000000000000000000000000000000000000000000000140000000000000000000000000000000000000000000000000000000000000000000000000000000000000000000000000000000000000000000000000000001467c9a1beb17f53a5f3b4554571eefee295ab9a1f000000000000000000000000000000000000000000000000000000000000000000000000000000000000001467c9a1beb17f53a5f3b4554571eefee295ab9a1f000000000000000000000000000000000000000000000000000000000000000000000000000000000000001467c9a1beb17f53a5f3b4554571eefee295ab9a1f0000000000000000000000000000000000000000000000000000000000000000000000000000000000000000000000000000000000000000000000000000000000000000000000000000000000000000000000000000000000000000000000000000000000000000000000000000000000000000000000000000000000000000000000000000000000000000",
                    "decodedMethod": {
                        "callParams": [
                            {
                                "name": "_order",
                                "type": "(uint64,bytes,uint256,bytes,uint256,uint256,bytes,uint256,bytes,bytes,bytes,bytes,bytes,bytes)",
                                "value": [
                                    {
                                        "name": "makerOrderNonce",
                                        "type": "uint64",
                                        "value": "1,707,893,878,670"
                                    },
                                    {
                                        "name": "makerSrc",
                                        "type": "bytes",
                                        "value": "0x67c9a1beb17f53a5f3b4554571eefee295ab9a1f"
                                    },
                                    {
                                        "name": "giveChainId",
                                        "type": "uint256",
                                        "value": "42,161"
                                    },
                                    {
                                        "name": "giveTokenAddress",
                                        "type": "bytes",
                                        "value": "0x0000000000000000000000000000000000000000"
                                    },
                                    {
                                        "name": "giveAmount",
                                        "type": "uint256",
                                        "value": "26,717,849,681,123,299"
                                    },
                                    {
                                        "name": "takeChainId",
                                        "type": "uint256",
                                        "value": "1"
                                    },
                                    {
                                        "name": "takeTokenAddress",
                                        "type": "bytes",
                                        "value": "0x0000000000000000000000000000000000000000"
                                    },
                                    {
                                        "name": "takeAmount",
                                        "type": "uint256",
                                        "value": "19,978,621,443,688,527"
                                    },
                                    {
                                        "name": "receiverDst",
                                        "type": "bytes",
                                        "value": "0x67c9a1beb17f53a5f3b4554571eefee295ab9a1f"
                                    },
                                    {
                                        "name": "givePatchAuthoritySrc",
                                        "type": "bytes",
                                        "value": "0x67c9a1beb17f53a5f3b4554571eefee295ab9a1f"
                                    },
                                    {
                                        "name": "orderAuthorityAddressDst",
                                        "type": "bytes",
                                        "value": "0x67c9a1beb17f53a5f3b4554571eefee295ab9a1f"
                                    },
                                    {
                                        "name": "allowedTakerDst",
                                        "type": "bytes",
                                        "value": "0x"
                                    },
                                    {
                                        "name": "allowedCancelBeneficiarySrc",
                                        "type": "bytes",
                                        "value": "0x"
                                    },
                                    {
                                        "name": "externalCall",
                                        "type": "bytes",
                                        "value": "0x"
                                    }
                                ]
                            },
                            {
                                "name": "_fulFillAmount",
                                "type": "uint256",
                                "value": "19,978,621,443,688,527"
                            },
                            {
                                "name": "_orderId",
                                "type": "bytes32",
                                "value": "0x91c6b24051ce6607e1672098c854a4d2d900cde6ec935d9a8e848adef90d0c77"
                            },
                            {
                                "name": "_permitEnvelope",
                                "type": "bytes",
                                "value": "0x"
                            },
                            {
                                "name": "_unlockAuthority",
                                "type": "address",
                                "value": "0x50c9c39b57879502a0da93e340b9c80b5f917aa1"
                            }
                        ],
                        "constructorArguments": "",
                        "name": "fulfillOrder",
                        "returnParams": [],
                        "signature": "fulfillOrder((uint64,bytes,uint256,bytes,uint256,uint256,bytes,uint256,bytes,bytes,bytes,bytes,bytes,bytes),uint256,bytes32,bytes,address)"
                    },
                    "errorInfo": "",
                    "fromAddress": "0xe7351fd770a37282b91d153ee690b63579d6dd7f",
                    "gasUsed": 86206,
                    "id": 1,
                    "methodDecoded": true,
                    "operation": "DELEGATECALL",
                    "output": "",
                    "revert": false,
                    "revertMessage": "",
                    "selector": "0xc358547e",
                    "status": true,
                    "value": "0.019978621443688527"
                },
                "nodeType": 0
            },
            "2": {
                "invocation": {
                    "address": "0x67c9a1beb17f53a5f3b4554571eefee295ab9a1f",
                    "callData": "0x",
                    "decodedMethod": null,
                    "errorInfo": "",
                    "fromAddress": "0xe7351fd770a37282b91d153ee690b63579d6dd7f",
                    "gasUsed": 0,
                    "id": 2,
                    "methodDecoded": false,
                    "operation": "CALL",
                    "output": "",
                    "revert": false,
                    "revertMessage": "",
                    "selector": "fallback",
                    "status": true,
                    "value": "0.019978621443688527"
                },
                "nodeType": 0
            },
            "3": {
                "event": {
                    "contract": "0xe7351fd770a37282b91d153ee690b63579d6dd7f",
                    "decodedLog": {
                        "name": "FulfilledOrder",
                        "params": [
                            {
                                "name": "order",
                                "type": "(uint64,bytes,uint256,bytes,uint256,uint256,bytes,uint256,bytes,bytes,bytes,bytes,bytes,bytes)",
                                "value": [
                                    {
                                        "name": "makerOrderNonce",
                                        "type": "uint64",
                                        "value": "1,707,893,878,670"
                                    },
                                    {
                                        "name": "makerSrc",
                                        "type": "bytes",
                                        "value": "0x67c9a1beb17f53a5f3b4554571eefee295ab9a1f"
                                    },
                                    {
                                        "name": "giveChainId",
                                        "type": "uint256",
                                        "value": "42,161"
                                    },
                                    {
                                        "name": "giveTokenAddress",
                                        "type": "bytes",
                                        "value": "0x0000000000000000000000000000000000000000"
                                    },
                                    {
                                        "name": "giveAmount",
                                        "type": "uint256",
                                        "value": "26,717,849,681,123,299"
                                    },
                                    {
                                        "name": "takeChainId",
                                        "type": "uint256",
                                        "value": "1"
                                    },
                                    {
                                        "name": "takeTokenAddress",
                                        "type": "bytes",
                                        "value": "0x0000000000000000000000000000000000000000"
                                    },
                                    {
                                        "name": "takeAmount",
                                        "type": "uint256",
                                        "value": "19,978,621,443,688,527"
                                    },
                                    {
                                        "name": "receiverDst",
                                        "type": "bytes",
                                        "value": "0x67c9a1beb17f53a5f3b4554571eefee295ab9a1f"
                                    },
                                    {
                                        "name": "givePatchAuthoritySrc",
                                        "type": "bytes",
                                        "value": "0x67c9a1beb17f53a5f3b4554571eefee295ab9a1f"
                                    },
                                    {
                                        "name": "orderAuthorityAddressDst",
                                        "type": "bytes",
                                        "value": "0x67c9a1beb17f53a5f3b4554571eefee295ab9a1f"
                                    },
                                    {
                                        "name": "allowedTakerDst",
                                        "type": "bytes",
                                        "value": "0x"
                                    },
                                    {
                                        "name": "allowedCancelBeneficiarySrc",
                                        "type": "bytes",
                                        "value": "0x"
                                    },
                                    {
                                        "name": "externalCall",
                                        "type": "bytes",
                                        "value": "0x"
                                    }
                                ]
                            },
                            {
                                "name": "orderId",
                                "type": "bytes32",
                                "value": "0x91c6b24051ce6607e1672098c854a4d2d900cde6ec935d9a8e848adef90d0c77"
                            },
                            {
                                "name": "sender",
                                "type": "address",
                                "value": "0x50c9c39b57879502a0da93e340b9c80b5f917aa1"
                            },
                            {
                                "name": "unlockAuthority",
                                "type": "address",
                                "value": "0x50c9c39b57879502a0da93e340b9c80b5f917aa1"
                            }
                        ],
                        "signature": "FulfilledOrder((uint64,bytes,uint256,bytes,uint256,uint256,bytes,uint256,bytes,bytes,bytes,bytes,bytes,bytes),bytes32,address,address)"
                    },
                    "id": 3,
                    "logData": "0x000000000000000000000000000000000000000000000000000000000000008091c6b24051ce6607e1672098c854a4d2d900cde6ec935d9a8e848adef90d0c7700000000000000000000000050c9c39b57879502a0da93e340b9c80b5f917aa100000000000000000000000050c9c39b57879502a0da93e340b9c80b5f917aa10000000000000000000000000000000000000000000000000000018da6686f8e00000000000000000000000000000000000000000000000000000000000001c0000000000000000000000000000000000000000000000000000000000000a4b10000000000000000000000000000000000000000000000000000000000000200000000000000000000000000000000000000000000000000005eebbe2367d7e3000000000000000000000000000000000000000000000000000000000000000100000000000000000000000000000000000000000000000000000000000002400000000000000000000000000000000000000000000000000046fa734a40c84f000000000000000000000000000000000000000000000000000000000000028000000000000000000000000000000000000000000000000000000000000002c00000000000000000000000000000000000000000000000000000000000000300000000000000000000000000000000000000000000000000000000000000034000000000000000000000000000000000000000000000000000000000000003600000000000000000000000000000000000000000000000000000000000000380000000000000000000000000000000000000000000000000000000000000001467c9a1beb17f53a5f3b4554571eefee295ab9a1f0000000000000000000000000000000000000000000000000000000000000000000000000000000000000014000000000000000000000000000000000000000000000000000000000000000000000000000000000000000000000000000000000000000000000000000000140000000000000000000000000000000000000000000000000000000000000000000000000000000000000000000000000000000000000000000000000000001467c9a1beb17f53a5f3b4554571eefee295ab9a1f000000000000000000000000000000000000000000000000000000000000000000000000000000000000001467c9a1beb17f53a5f3b4554571eefee295ab9a1f000000000000000000000000000000000000000000000000000000000000000000000000000000000000001467c9a1beb17f53a5f3b4554571eefee295ab9a1f000000000000000000000000000000000000000000000000000000000000000000000000000000000000000000000000000000000000000000000000000000000000000000000000000000000000000000000000000000000000000000000000000000000000000000000000",
                    "logDecoded": true,
                    "operation": "EVENT",
                    "revert": false,
                    "status": true,
                    "topics": [
                        "0xd281ee92bab1446041582480d2c0a9dc91f855386bb27ea295faac1e992f7fe4"
                    ]
                },
                "nodeType": 1
            }
        },
        "gasFlame": [
            {
                "children": [
                    {
                        "children": [
                            {
                                "children": [],
                                "depth": 0,
                                "name": "Initial Gas",
                                "value": 27776
                            },
                            {
                                "children": [
                                    {
                                        "children": [
                                            {
                                                "children": [],
                                                "depth": 2,
                                                "name": "fallback",
                                                "value": 0
                                            }
                                        ],
                                        "depth": 1,
                                        "name": "fulfillOrder",
                                        "value": 86206
                                    }
                                ],
                                "depth": 0,
                                "name": "Executed Gas",
                                "value": 93725
                            }
                        ],
                        "depth": -1,
                        "name": "Actual Gas Used",
                        "value": 118701
                    },
                    {
                        "children": [],
                        "depth": -1,
                        "name": "Refunded Gas",
                        "value": 2800
                    }
                ],
                "depth": -2,
                "name": "Total Gas",
                "value": 121501
            }
        ],
        "isConfirmed": true,
        "mainTrace": [
            {
                "children": [
                    {
                        "children": [
                            {
                                "children": [
                                    {
                                        "children": [],
                                        "depth": 2,
                                        "id": 2,
                                        "order": 2
                                    },
                                    {
                                        "children": [],
                                        "depth": 2,
                                        "id": 3,
                                        "order": 3
                                    }
                                ],
                                "depth": 1,
                                "id": 1,
                                "order": 1
                            }
                        ],
                        "depth": 0,
                        "id": 0,
                        "order": 0
                    }
                ],
                "depth": -1,
                "id": -1,
                "order": -1
            }
        ],
        "mainTraceNodeCount": 4,
        "parentIdMap": {
            "0": -1,
            "1": 0,
            "2": 1,
            "3": 1
        },
        "tidyTrace": [
            {
                "children": [
                    {
                        "children": [
                            {
                                "children": [
                                    {
                                        "children": [],
                                        "depth": 2,
                                        "id": 2,
                                        "order": 2
                                    },
                                    {
                                        "children": [],
                                        "depth": 2,
                                        "id": 3,
                                        "order": 3
                                    }
                                ],
                                "depth": 1,
                                "id": 1,
                                "order": 1
                            }
                        ],
                        "depth": 0,
                        "id": 0,
                        "order": 0
                    }
                ],
                "depth": -1,
                "id": -1,
                "order": -1
            }
        ],
        "tidyTraceNodeCount": 4
    },
    "state_change": {
        "stateChanges": [
            {
                "address": "0xe7351fd770a37282b91d153ee690b63579d6dd7f",
                "erc": "",
                "slots": [
                    {
                        "current": "0x000000000000000000000050c9c39b57879502a0da93e340b9c80b5f917aa101",
                        "key": "0x55b6818d85921b9f14e35a5355ac47edbfbbfbb69d5d946488becd835e56dff9",
                        "prev": "0x0000000000000000000000000000000000000000000000000000000000000000"
                    },
                    {
                        "current": "0x000000000000000000000000000000000000000000000000000000000000a4b1",
                        "key": "0x55b6818d85921b9f14e35a5355ac47edbfbbfbb69d5d946488becd835e56dffa",
                        "prev": "0x0000000000000000000000000000000000000000000000000000000000000000"
                    }
                ],
                "storageVariables": [
                    {
                        "name": "takeOrders",
                        "type": "mapping(bytes32 => struct DlnDestination.OrderTakeState)",
                        "value": {
                            "pairs": [
                                {
                                    "key": "0x91c6b24051ce6607e1672098c854a4d2d900cde6ec935d9a8e848adef90d0c77",
                                    "value": {
                                        "fields": [
                                            {
                                                "name": "status",
                                                "type": "enum DlnDestination.OrderTakeStatus",
                                                "value": {
                                                    "current": "1",
                                                    "prev": "0",
                                                    "typeTag": 1
                                                }
                                            },
                                            {
                                                "name": "takerAddress",
                                                "type": "address",
                                                "value": {
                                                    "current": "0x50c9c39b57879502a0da93e340b9c80b5f917aa1",
                                                    "prev": "0x0000000000000000000000000000000000000000",
                                                    "typeTag": 1
                                                }
                                            },
                                            {
                                                "name": "giveChainId",
                                                "type": "uint256",
                                                "value": {
                                                    "current": "42161",
                                                    "prev": "0",
                                                    "typeTag": 1
                                                }
                                            }
                                        ],
                                        "typeTag": 3
                                    }
                                }
                            ],
                            "typeTag": 4
                        }
                    }
                ]
            }
        ]
    }
}