{
    "balance_change": {
        "balanceChanges": [
            {
                "account": "0xf6cc42a1ff03a58d7a88bc870c3376c2c91f4b97",
                "assets": [
                    {
                        "address": "0x7995ab36bb307afa6a683c24a25d90dc1ea83566",
                        "amount": "1,581,176",
                        "iconUrl": "https://assets.blocksec.com/icon/ffe7d80a501ce84694caad7ea4d796f4c749f6ee3cde566b2106ab817c208f1c.png",
                        "isERC1155": false,
                        "isERC721": false,
                        "sign": false,
                        "value": ""
                    }
                ]
            },
            {
                "account": "0xfa4b5be3f2f84f56703c42eb22142744e95a2c58",
                "assets": [
                    {
                        "address": "0x7995ab36bb307afa6a683c24a25d90dc1ea83566",
                        "amount": "1,581,176",
                        "iconUrl": "https://assets.blocksec.com/icon/ffe7d80a501ce84694caad7ea4d796f4c749f6ee3cde566b2106ab817c208f1c.png",
                        "isERC1155": false,
                        "isERC721": false,
                        "sign": true,
                        "value": ""
                    }
                ]
            }
        ]
    },
    "profile": {
        "basic_info": {
            "baseFee": "",
            "blockNumber": 7905248,
            "callData": "0xa9059cbb000000000000000000000000fa4b5be3f2f84f56703c42eb22142744e95a2c5800000000000000000000000000000000000000000000000000000170256f0e00",
            "debugEnable": true,
            "errorInfo": "",
            "eventCount": 1,
            "feeRecipient": "0xea674fdde714fd979de3edf0f56aa9716b898ec8",
            "formatValue": "0",
            "gasLimit": 90000,
            "gasPrice": "18.9",
            "gasUsed": 23574,
            "intTxnCount": 0,
            "internalRevert": false,
            "internalRevertMessage": "",
            "isContractCreation": false,
            "isFlashloan": false,
            "maxFee": "",
            "nonce": 23,
            "overwritedBlockNumber": -1,
            "priorityFee": "",
            "receiver": "0x7995ab36bb307afa6a683c24a25d90dc1ea83566",
            "revertMessage": "",
            "sender": "0xf6cc42a1ff03a58d7a88bc870c3376c2c91f4b97",
            "simulationEnable": true,
            "sourceTxnHash": "0x89e447b5a112c6c736c4c87226dd369508c7695ac21b0849ca0eee3b2c7d0fd1",
            "status": true,
            "timestamp": "2019-06-06T11:03:39Z",
            "transactionFee": "0.0004455486",
            "txnHash": "0x89e447b5a112c6c736c4c87226dd369508c7695ac21b0849ca0eee3b2c7d0fd1",
            "txnIndex": 204,
            "type": 0,
            "value": "0"
        },
        "fund_flow": [
            {
                "amount": "1,581,176",
                "from": "0xf6cc42a1ff03a58d7a88bc870c3376c2c91f4b97",
                "id": 1,
                "isERC1155": false,
                "isERC721": false,
                "isReverted": false,
                "order": 1,
                "to": "0xfa4b5be3f2f84f56703c42eb22142744e95a2c58",
                "token": "0x7995ab36bb307afa6a683c24a25d90dc1ea83566"
            }
        ],
        "token_infos": [
            {
                "address": "0x7995ab36bb307afa6a683c24a25d90dc1ea83566",
                "decimals": 6
            },
            {
                "address": "0xc02aaa39b223fe8d0a0e5c4f27ead9083c756cc2",
                "decimals": 18
            },
            {
                "address": "0xeeeeeeeeeeeeeeeeeeeeeeeeeeeeeeeeeeeeeeee",
                "decimals": 18
            }
        ]
    },
    "address_label": {
        "labels": [
            {
                "address": "0x7995ab36bb307afa6a683c24a25d90dc1ea83566",
                "label": "HitChain Coin"
            },
            {
                "address": "0xf6cc42a1ff03a58d7a88bc870c3376c2c91f4b97",
                "label": "HUOBI"
            },
            {
                "address": "0xfa4b5be3f2f84f56703c42eb22142744e95a2c58",
                "label": "HTX 11"
            },
            {
                "address": "0x0000000000000000000000000000000000000001",
                "label": "Precompiled"
            },
            {
                "address": "0x0000000000000000000000000000000000000002",
                "label": "Precompiled"
            },
            {
                "address": "0x0000000000000000000000000000000000000003",
                "label": "Precompiled"
            },
            {
                "address": "0x0000000000000000000000000000000000000004",
                "label": "Precompiled"
            },
            {
                "address": "0xeeeeeeeeeeeeeeeeeeeeeeeeeeeeeeeeeeeeeeee",
                "label": "Ether"
            }
        ]
    },
    "trace": {
        "accountLabels": null,
        "dataMap": {
            "-1": {
                "invocation": {
                    "address": "0xf6cc42a1ff03a58d7a88bc870c3376c2c91f4b97",
                    "callData": "",
                    "decodedMethod": null,
                    "errorInfo": "",
                    "fromAddress": "",
                    "gasUsed": 0,
                    "id": -1,
                    "methodDecoded": false,
                    "operation": "",
                    "output": "",
                    "revert": false,
                    "revertMessage": "",
                    "selector": "",
                    "status": false,
                    "value": ""
                },
                "nodeType": 0
            },
            "0": {
                "invocation": {
                    "address": "0x7995ab36bb307afa6a683c24a25d90dc1ea83566",
                    "callData": "0x000000000000000000000000fa4b5be3f2f84f56703c42eb22142744e95a2c5800000000000000000000000000000000000000000000000000000170256f0e00",
                    "decodedMethod": {
                        "callParams": [
                            {
                                "name": "_to",
                                "type": "address",
                                "value": "0xfa4b5be3f2f84f56703c42eb22142744e95a2c58"
                            },
                            {
                                "decimalAvailable": true,
                                "name": "_value",
                                "type": "uint256",
                                "value": "1,581,176,000,000"
                            }
                        ],
                        "constructorArguments": "",
                        "name": "transfer",
                        "returnParams": [
                            {
                                "name": "",
                                "type": "bool",
                                "value": true
                            }
                        ],
                        "signature": "transfer(address,uint256)"
                    },
                    "errorInfo": "",
                    "fromAddress": "0xf6cc42a1ff03a58d7a88bc870c3376c2c91f4b97",
                    "gasUsed": 23574,
                    "id": 0,
                    "methodDecoded": true,
                    "operation": "CALL",
                    "output": "0x0000000000000000000000000000000000000000000000000000000000000001",
                    "revert": false,
                    "revertMessage": "",
                    "selector": "0xa9059cbb",
                    "status": true,
                    "value": "0"
                },
                "nodeType": 0
            },
            "1": {
                "event": {
                    "contract": "0x7995ab36bb307afa6a683c24a25d90dc1ea83566",
                    "decodedLog": {
                        "name": "Transfer",
                        "params": [
                            {
                                "name": "from",
                                "type": "address",
                                "value": "0xf6cc42a1ff03a58d7a88bc870c3376c2c91f4b97"
                            },
                            {
                                "name": "to",
                                "type": "address",
                                "value": "0xfa4b5be3f2f84f56703c42eb22142744e95a2c58"
                            },
                            {
                                "decimalAvailable": true,
                                "name": "value",
                                "type": "uint256",
                                "value": "1,581,176,000,000"
                            }
                        ],
                        "signature": "Transfer(address,address,uint256)"
                    },
                    "id": 1,
                    "logData": "0x00000000000000000000000000000000000000000000000000000170256f0e00",
                    "logDecoded": true,
                    "operation": "EVENT",
                    "revert": false,
                    "status": true,
                    "topics": [
                        "0xddf252ad1be2c89b69c2b068fc378daa952ba7f163c4a11628f55a4df523b3ef",
                        "0x000000000000000000000000f6cc42a1ff03a58d7a88bc870c3376c2c91f4b97",
                        "0x000000000000000000000000fa4b5be3f2f84f56703c42eb22142744e95a2c58"
                    ]
                },
                "nodeType": 1
            }
        },
        "gasFlame": [
            {
                "children": [
                    {
                        "children": [
                            {
                                "children": [],
                                "depth": 0,
                                "name": "Initial Gas",
                                "value": 23128
                            },
                            {
                                "children": [],
                                "depth": 0,
                                "name": "Executed Gas",
                                "value": 15446
                            }
                        ],
                        "depth": -1,
                        "name": "Actual Gas Used",
                        "value": 23574
                    },
                    {
                        "children": [],
                        "depth": -1,
                        "name": "Refunded Gas",
                        "value": 15000
                    }
                ],
                "depth": -2,
                "name": "Total Gas",
                "value": 38574
            }
        ],
        "isConfirmed": true,
        "mainTrace": [
            {
                "children": [
                    {
                        "children": [
                            {
                                "children": [],
                                "depth": 1,
                                "id": 1,
                                "order": 1
                            }
                        ],
                        "depth": 0,
                        "id": 0,
                        "order": 0
                    }
                ],
                "depth": -1,
                "id": -1,
                "order": -1
            }
        ],
        "mainTraceNodeCount": 2,
        "parentIdMap": {
            "0": -1,
            "1": 0
        },
        "tidyTrace": [
            {
                "children": [
                    {
                        "children": [
                            {
                                "children": [],
                                "depth": 1,
                                "id": 1,
                                "order": 1
                            }
                        ],
                        "depth": 0,
                        "id": 0,
                        "order": 0
                    }
                ],
                "depth": -1,
                "id": -1,
                "order": -1
            }
        ],
        "tidyTraceNodeCount": 2
    },
    "state_change": {
        "stateChanges": [
            {
                "address": "0x7995ab36bb307afa6a683c24a25d90dc1ea83566",
                "erc": "ERC-20",
                "slots": [
                    {
                        "current": "0x0000000000000000000000000000000000000000000000000000000000000000",
                        "key": "0xd1b52ead0211dc78d5300038d3b6829400fd267b03abf80bf7879e21e1c478d4",
                        "prev": "0x00000000000000000000000000000000000000000000000000000170256f0e00"
                    },
                    {
                        "current": "0x0000000000000000000000000000000000000000000000000007dc467c99c01d",
                        "key": "0x25f72b4e6cbf1738ad004458096e1c4c998751de2929b740d9cea77d61004f92",
                        "prev": "0x0000000000000000000000000000000000000000000000000007dad6572ab21d"
                    }
                ],
                "storageVariables": [
                    {
                        "name": "balances",
                        "type": "mapping(address => uint256)",
                        "value": {
                            "pairs": [
                                {
                                    "key": "0xf6cc42a1ff03a58d7a88bc870c3376c2c91f4b97",
                                    "value": {
                                        "current": "0",
                                        "prev": "1581176000000",
                                        "typeTag": 1
                                    }
                                },
                                {
                                    "key": "0xfa4b5be3f2f84f56703c42eb22142744e95a2c58",
                                    "value": {
                                        "current": "2212520133247005",
                                        "prev": "2210938957247005",
                                        "typeTag": 1
                                    }
                                }
                            ],
                            "typeTag": 4
                        }
                    }
                ]
            }
        ]
    }
}