{
    "balance_change": {
        "balanceChanges": [
            {
                "account": "0xc88bc9ae04d8b023c1524c3c16f920ca1cf351c3",
                "assets": [
                    {
                        "address": "0x79863e225b6875e4aea2709a7f783f16299bab5c",
                        "amount": "3,500,000,000,000,000,000,000",
                        "iconUrl": "",
                        "isERC1155": false,
                        "isERC721": false,
                        "sign": false,
                        "value": ""
                    }
                ]
            },
            {
                "account": "0xde817216afba842c7e5b4067fb94cb8c8e0a0115",
                "assets": [
                    {
                        "address": "0x79863e225b6875e4aea2709a7f783f16299bab5c",
                        "amount": "3,500,000,000,000,000,000,000",
                        "iconUrl": "",
                        "isERC1155": false,
                        "isERC721": false,
                        "sign": true,
                        "value": ""
                    }
                ]
            }
        ]
    },
    "profile": {
        "basic_info": {
            "baseFee": "",
            "blockNumber": 9652885,
            "callData": "0xa9059cbb000000000000000000000000de817216afba842c7e5b4067fb94cb8c8e0a01150000000000000000000000000000000000000000000000bdbc41e0348b300000",
            "debugEnable": true,
            "errorInfo": "",
            "eventCount": 1,
            "feeRecipient": "0xda466bf1ce3c69dbef918817305cf989a6353423",
            "formatValue": "0",
            "gasLimit": 600000,
            "gasPrice": "1",
            "gasUsed": 30479,
            "intTxnCount": 0,
            "internalRevert": false,
            "internalRevertMessage": "",
            "isContractCreation": false,
            "isFlashloan": false,
            "maxFee": "",
            "nonce": 0,
            "overwritedBlockNumber": -1,
            "priorityFee": "",
            "receiver": "0x79863e225b6875e4aea2709a7f783f16299bab5c",
            "revertMessage": "",
            "sender": "0xc88bc9ae04d8b023c1524c3c16f920ca1cf351c3",
            "simulationEnable": true,
            "sourceTxnHash": "0x89331e08620e03e48dab9566d13d617345a45e08a87d9fc0bb0653d084ddcb35",
            "status": true,
            "timestamp": "2020-03-11T22:17:32Z",
            "transactionFee": "0.000030479",
            "txnHash": "0x89331e08620e03e48dab9566d13d617345a45e08a87d9fc0bb0653d084ddcb35",
            "txnIndex": 35,
            "type": 0,
            "value": "0"
        },
        "fund_flow": [
            {
                "amount": "3,500,000,000,000,000,000,000",
                "from": "0xc88bc9ae04d8b023c1524c3c16f920ca1cf351c3",
                "id": 1,
                "isERC1155": false,
                "isERC721": false,
                "isReverted": false,
                "order": 1,
                "to": "0xde817216afba842c7e5b4067fb94cb8c8e0a0115",
                "token": "0x79863e225b6875e4aea2709a7f783f16299bab5c"
            }
        ],
        "token_infos": [
            {
                "address": "0xc02aaa39b223fe8d0a0e5c4f27ead9083c756cc2",
                "decimals": 18
            },
            {
                "address": "0xeeeeeeeeeeeeeeeeeeeeeeeeeeeeeeeeeeeeeeee",
                "decimals": 18
            }
        ]
    },
    "address_label": {
        "labels": [
            {
                "address": "0xeeeeeeeeeeeeeeeeeeeeeeeeeeeeeeeeeeeeeeee",
                "label": "Ether"
            },
            {
                "address": "0x0000000000000000000000000000000000000001",
                "label": "Precompiled"
            },
            {
                "address": "0x0000000000000000000000000000000000000002",
                "label": "Precompiled"
            },
            {
                "address": "0x0000000000000000000000000000000000000003",
                "label": "Precompiled"
            },
            {
                "address": "0x0000000000000000000000000000000000000004",
                "label": "Precompiled"
            }
        ]
    },
    "trace": {
        "accountLabels": null,
        "dataMap": {
            "-1": {
                "invocation": {
                    "address": "0xc88bc9ae04d8b023c1524c3c16f920ca1cf351c3",
                    "callData": "",
                    "decodedMethod": null,
                    "errorInfo": "",
                    "fromAddress": "",
                    "gasUsed": 0,
                    "id": -1,
                    "methodDecoded": false,
                    "operation": "",
                    "output": "",
                    "revert": false,
                    "revertMessage": "",
                    "selector": "",
                    "status": false,
                    "value": ""
                },
                "nodeType": 0
            },
            "0": {
                "invocation": {
                    "address": "0x79863e225b6875e4aea2709a7f783f16299bab5c",
                    "callData": "0x000000000000000000000000de817216afba842c7e5b4067fb94cb8c8e0a01150000000000000000000000000000000000000000000000bdbc41e0348b300000",
                    "decodedMethod": {
                        "callParams": [
                            {
                                "name": "_to",
                                "type": "address",
                                "value": "0xde817216afba842c7e5b4067fb94cb8c8e0a0115"
                            },
                            {
                                "decimalAvailable": true,
                                "name": "_value",
                                "type": "uint256",
                                "value": "3,500,000,000,000,000,000,000"
                            }
                        ],
                        "constructorArguments": "",
                        "name": "transfer",
                        "returnParams": [],
                        "signature": "transfer(address,uint256)"
                    },
                    "errorInfo": "",
                    "fromAddress": "0xc88bc9ae04d8b023c1524c3c16f920ca1cf351c3",
                    "gasUsed": 30479,
                    "id": 0,
                    "methodDecoded": true,
                    "operation": "CALL",
                    "output": "",
                    "revert": false,
                    "revertMessage": "",
                    "selector": "0xa9059cbb",
                    "status": true,
                    "value": "0"
                },
                "nodeType": 0
            },
            "1": {
                "event": {
                    "contract": "0x79863e225b6875e4aea2709a7f783f16299bab5c",
                    "decodedLog": {
                        "name": "Transfer",
                        "params": [
                            {
                                "name": "from",
                                "type": "address",
                                "value": "0xc88bc9ae04d8b023c1524c3c16f920ca1cf351c3"
                            },
                            {
                                "name": "to",
                                "type": "address",
                                "value": "0xde817216afba842c7e5b4067fb94cb8c8e0a0115"
                            },
                            {
                                "decimalAvailable": true,
                                "name": "value",
                                "type": "uint256",
                                "value": "3,500,000,000,000,000,000,000"
                            }
                        ],
                        "signature": "Transfer(address,address,uint256)"
                    },
                    "id": 1,
                    "logData": "0x0000000000000000000000000000000000000000000000bdbc41e0348b300000",
                    "logDecoded": true,
                    "operation": "EVENT",
                    "revert": false,
                    "status": true,
                    "topics": [
                        "0xddf252ad1be2c89b69c2b068fc378daa952ba7f163c4a11628f55a4df523b3ef",
                        "0x000000000000000000000000c88bc9ae04d8b023c1524c3c16f920ca1cf351c3",
                        "0x000000000000000000000000de817216afba842c7e5b4067fb94cb8c8e0a0115"
                    ]
                },
                "nodeType": 1
            }
        },
        "gasFlame": [
            {
                "children": [
                    {
                        "children": [
                            {
                                "children": [],
                                "depth": 0,
                                "name": "Initial Gas",
                                "value": 21644
                            },
                            {
                                "children": [],
                                "depth": 0,
                                "name": "Executed Gas",
                                "value": 23835
                            }
                        ],
                        "depth": -1,
                        "name": "Actual Gas Used",
                        "value": 30479
                    },
                    {
                        "children": [],
                        "depth": -1,
                        "name": "Refunded Gas",
                        "value": 15000
                    }
                ],
                "depth": -2,
                "name": "Total Gas",
                "value": 45479
            }
        ],
        "isConfirmed": true,
        "mainTrace": [
            {
                "children": [
                    {
                        "children": [
                            {
                                "children": [],
                                "depth": 1,
                                "id": 1,
                                "order": 1
                            }
                        ],
                        "depth": 0,
                        "id": 0,
                        "order": 0
                    }
                ],
                "depth": -1,
                "id": -1,
                "order": -1
            }
        ],
        "mainTraceNodeCount": 2,
        "parentIdMap": {
            "0": -1,
            "1": 0
        },
        "tidyTrace": [
            {
                "children": [
                    {
                        "children": [
                            {
                                "children": [],
                                "depth": 1,
                                "id": 1,
                                "order": 1
                            }
                        ],
                        "depth": 0,
                        "id": 0,
                        "order": 0
                    }
                ],
                "depth": -1,
                "id": -1,
                "order": -1
            }
        ],
        "tidyTraceNodeCount": 2
    },
    "state_change": {
        "stateChanges": [
            {
                "address": "0x79863e225b6875e4aea2709a7f783f16299bab5c",
                "erc": "",
                "slots": [
                    {
                        "current": "0x0000000000000000000000000000000000000000000000000000000000000000",
                        "key": "0xf16364acff40ee86bfc567a123334b5c2973a5f53f242689e47f3382e65e796b",
                        "prev": "0x0000000000000000000000000000000000000000000000bdbc41e0348b300000"
                    },
                    {
                        "current": "0x0000000000000000000000000000000000000000000060184e7d641436e40000",
                        "key": "0x7cb2a47718a1125ebe8b0b0ba04d01390bd6a88125566294297e58563e34fa4e",
                        "prev": "0x000000000000000000000000000000000000000000005f5a923b83dfabb40000"
                    }
                ],
                "storageVariables": []
            }
        ]
    }
}