{
    "balance_change": {
        "balanceChanges": [
            {
                "account": "0x0000000000000000000000000000000000000000",
                "assets": [
                    {
                        "address": "0x5702a4487da07c827cde512e2d5969cb430cd839",
                        "amount": "99.9999999999999986712444928",
                        "iconUrl": "",
                        "isERC1155": false,
                        "isERC721": false,
                        "sign": false,
                        "value": "102.3587042"
                    }
                ]
            },
            {
                "account": "0xb2d8dff55fdc7667066b3f45c876b8808136f735",
                "assets": [
                    {
                        "address": "0x5702a4487da07c827cde512e2d5969cb430cd839",
                        "amount": "99.9999999999999986712444928",
                        "iconUrl": "",
                        "isERC1155": false,
                        "isERC721": false,
                        "sign": true,
                        "value": "102.3587042"
                    }
                ]
            }
        ]
    },
    "profile": {
        "basic_info": {
            "baseFee": "12.864096251",
            "blockNumber": 18069511,
            "callData": "0x40c10f19000000000000000000000000b2d8dff55fdc7667066b3f45c876b8808136f7350000000000000000000000000000000000000001431e0fae6d7217caa0000000",
            "debugEnable": true,
            "errorInfo": "",
            "eventCount": 1,
            "feeRecipient": "0xdafea492d9c6733ae3d56b7ed1adb60692c98bc5",
            "formatValue": "0",
            "gasLimit": 42767,
            "gasPrice": "30",
            "gasUsed": 42767,
            "intTxnCount": 0,
            "internalRevert": false,
            "internalRevertMessage": "",
            "isContractCreation": false,
            "isFlashloan": false,
            "maxFee": "30",
            "nonce": 955,
            "overwritedBlockNumber": -1,
            "priorityFee": "30",
            "receiver": "0x5702a4487da07c827cde512e2d5969cb430cd839",
            "revertMessage": "",
            "sender": "0x98139bf0af3a2f39e400026766a62c738e94306b",
            "simulationEnable": true,
            "sourceTxnHash": "0x893cfa657e5f16987d35a0fce8f228fe7056b1db310cde46bc194ac2514a3d15",
            "status": true,
            "timestamp": "2023-09-05T09:54:11Z",
            "transactionFee": "0.00128301",
            "txnHash": "0x893cfa657e5f16987d35a0fce8f228fe7056b1db310cde46bc194ac2514a3d15",
            "txnIndex": 5,
            "type": 2,
            "value": "0"
        },
        "fund_flow": [
            {
                "amount": "99.9999999999999986712444928",
                "from": "0x0000000000000000000000000000000000000000",
                "id": 1,
                "isERC1155": false,
                "isERC721": false,
                "isReverted": false,
                "order": 1,
                "to": "0xb2d8dff55fdc7667066b3f45c876b8808136f735",
                "token": "0x5702a4487da07c827cde512e2d5969cb430cd839"
            }
        ],
        "token_infos": [
            {
                "address": "0x5702a4487da07c827cde512e2d5969cb430cd839",
                "decimals": 27
            },
            {
                "address": "0xc02aaa39b223fe8d0a0e5c4f27ead9083c756cc2",
                "decimals": 18
            },
            {
                "address": "0xeeeeeeeeeeeeeeeeeeeeeeeeeeeeeeeeeeeeeeee",
                "decimals": 18
            }
        ]
    },
    "address_label": {
        "labels": [
            {
                "address": "0xeeeeeeeeeeeeeeeeeeeeeeeeeeeeeeeeeeeeeeee",
                "label": "Ether"
            },
            {
                "address": "0x5702a4487da07c827cde512e2d5969cb430cd839",
                "label": "Bitbon System: ERBB Token"
            },
            {
                "address": "0x0000000000000000000000000000000000000001",
                "label": "Precompiled"
            },
            {
                "address": "0x0000000000000000000000000000000000000002",
                "label": "Precompiled"
            },
            {
                "address": "0x0000000000000000000000000000000000000003",
                "label": "Precompiled"
            },
            {
                "address": "0x0000000000000000000000000000000000000004",
                "label": "Precompiled"
            }
        ]
    },
    "trace": {
        "accountLabels": null,
        "dataMap": {
            "-1": {
                "invocation": {
                    "address": "0x98139bf0af3a2f39e400026766a62c738e94306b",
                    "callData": "",
                    "decodedMethod": null,
                    "errorInfo": "",
                    "fromAddress": "",
                    "gasUsed": 0,
                    "id": -1,
                    "methodDecoded": false,
                    "operation": "",
                    "output": "",
                    "revert": false,
                    "revertMessage": "",
                    "selector": "",
                    "status": false,
                    "value": ""
                },
                "nodeType": 0
            },
            "0": {
                "invocation": {
                    "address": "0x5702a4487da07c827cde512e2d5969cb430cd839",
                    "callData": "0x000000000000000000000000b2d8dff55fdc7667066b3f45c876b8808136f7350000000000000000000000000000000000000001431e0fae6d7217caa0000000",
                    "decodedMethod": {
                        "callParams": [
                            {
                                "name": "account",
                                "type": "address",
                                "value": "0xb2d8dff55fdc7667066b3f45c876b8808136f735"
                            },
                            {
                                "name": "amount",
                                "type": "uint256",
                                "value": "100,000,000,000,000,000,000,000,000,000"
                            }
                        ],
                        "constructorArguments": "",
                        "name": "mint",
                        "returnParams": [],
                        "signature": "mint(address,uint256)"
                    },
                    "errorInfo": "",
                    "fromAddress": "0x98139bf0af3a2f39e400026766a62c738e94306b",
                    "gasUsed": 42767,
                    "id": 0,
                    "methodDecoded": true,
                    "operation": "CALL",
                    "output": "",
                    "revert": false,
                    "revertMessage": "",
                    "selector": "0x40c10f19",
                    "status": true,
                    "value": "0"
                },
                "nodeType": 0
            },
            "1": {
                "event": {
                    "contract": "0x5702a4487da07c827cde512e2d5969cb430cd839",
                    "decodedLog": {
                        "name": "Transfer",
                        "params": [
                            {
                                "name": "from",
                                "type": "address",
                                "value": "0x0000000000000000000000000000000000000000"
                            },
                            {
                                "name": "to",
                                "type": "address",
                                "value": "0xb2d8dff55fdc7667066b3f45c876b8808136f735"
                            },
                            {
                                "decimalAvailable": true,
                                "name": "value",
                                "type": "uint256",
                                "value": "100,000,000,000,000,000,000,000,000,000"
                            }
                        ],
                        "signature": "Transfer(address,address,uint256)"
                    },
                    "id": 1,
                    "logData": "0x0000000000000000000000000000000000000001431e0fae6d7217caa0000000",
                    "logDecoded": true,
                    "operation": "EVENT",
                    "revert": false,
                    "status": true,
                    "topics": [
                        "0xddf252ad1be2c89b69c2b068fc378daa952ba7f163c4a11628f55a4df523b3ef",
                        "0x0000000000000000000000000000000000000000000000000000000000000000",
                        "0x000000000000000000000000b2d8dff55fdc7667066b3f45c876b8808136f735"
                    ]
                },
                "nodeType": 1
            }
        },
        "gasFlame": [
            {
                "children": [
                    {
                        "children": [
                            {
                                "children": [],
                                "depth": 0,
                                "name": "Initial Gas",
                                "value": 21680
                            },
                            {
                                "children": [],
                                "depth": 0,
                                "name": "Executed Gas",
                                "value": 21087
                            }
                        ],
                        "depth": -1,
                        "name": "Actual Gas Used",
                        "value": 42767
                    },
                    {
                        "children": [],
                        "depth": -1,
                        "name": "Refunded Gas",
                        "value": 0
                    }
                ],
                "depth": -2,
                "name": "Total Gas",
                "value": 42767
            }
        ],
        "isConfirmed": true,
        "mainTrace": [
            {
                "children": [
                    {
                        "children": [
                            {
                                "children": [],
                                "depth": 1,
                                "id": 1,
                                "order": 1
                            }
                        ],
                        "depth": 0,
                        "id": 0,
                        "order": 0
                    }
                ],
                "depth": -1,
                "id": -1,
                "order": -1
            }
        ],
        "mainTraceNodeCount": 2,
        "parentIdMap": {
            "0": -1,
            "1": 0
        },
        "tidyTrace": [
            {
                "children": [
                    {
                        "children": [
                            {
                                "children": [],
                                "depth": 1,
                                "id": 1,
                                "order": 1
                            }
                        ],
                        "depth": 0,
                        "id": 0,
                        "order": 0
                    }
                ],
                "depth": -1,
                "id": -1,
                "order": -1
            }
        ],
        "tidyTraceNodeCount": 2
    },
    "state_change": {
        "stateChanges": [
            {
                "address": "0x5702a4487da07c827cde512e2d5969cb430cd839",
                "erc": "ERC-20",
                "slots": [
                    {
                        "current": "0x00000000000000000000000000000000000000050c783eb9b5c85f2a80000000",
                        "key": "0xfa58962b9611e1a7b307f398f73a6af5dae18a673e9aaf96d63610c94484bf68",
                        "prev": "0x0000000000000000000000000000000000000003c95a2f0b4856475fe0000000"
                    },
                    {
                        "current": "0x0000000000000000000000000000000000001548bf167b30f24bb9198f580000",
                        "key": "0x0000000000000000000000000000000000000000000000000000000000000002",
                        "prev": "0x00000000000000000000000000000000000015477bf86b8284d9a14eef580000"
                    }
                ],
                "storageVariables": [
                    {
                        "name": "_totalSupply",
                        "type": "uint256",
                        "value": {
                            "current": "431694168192710000000000000000000",
                            "prev": "431594168192710000000000000000000",
                            "typeTag": 1
                        }
                    },
                    {
                        "name": "_balances",
                        "type": "mapping(address => uint256)",
                        "value": {
                            "pairs": [
                                {
                                    "key": "0xb2d8dff55fdc7667066b3f45c876b8808136f735",
                                    "value": {
                                        "current": "400000000000000000000000000000",
                                        "prev": "300000000000000000000000000000",
                                        "typeTag": 1
                                    }
                                }
                            ],
                            "typeTag": 4
                        }
                    }
                ]
            }
        ]
    }
}