{
    "balance_change": {
        "balanceChanges": [
            {
                "account": "0xf16e9b0d03470827a95cdfd0cb8a8a3b46969b91",
                "assets": [
                    {
                        "address": "0xf57e7e7c23978c3caec3c3548e3d615c346e79ff",
                        "amount": "40",
                        "iconUrl": "",
                        "isERC1155": false,
                        "isERC721": false,
                        "sign": false,
                        "value": "16.48604"
                    }
                ]
            },
            {
                "account": "0x33723ce557cd1c681a2617ff93e29e9050a433b8",
                "assets": [
                    {
                        "address": "0xf57e7e7c23978c3caec3c3548e3d615c346e79ff",
                        "amount": "40",
                        "iconUrl": "",
                        "isERC1155": false,
                        "isERC721": false,
                        "sign": true,
                        "value": "16.48604"
                    }
                ]
            }
        ]
    },
    "profile": {
        "basic_info": {
            "baseFee": "19.982069902",
            "blockNumber": 15998115,
            "callData": "0xa9059cbb00000000000000000000000033723ce557cd1c681a2617ff93e29e9050a433b80000000000000000000000000000000000000000000000022b1c8c1227a00000",
            "debugEnable": true,
            "errorInfo": "",
            "eventCount": 1,
            "feeRecipient": "0xaab27b150451726ec7738aa1d0a94505c8729bd1",
            "formatValue": "0",
            "gasLimit": 100000,
            "gasPrice": "21.681140221",
            "gasUsed": 34644,
            "intTxnCount": 0,
            "internalRevert": false,
            "internalRevertMessage": "",
            "isContractCreation": false,
            "isFlashloan": false,
            "maxFee": "69",
            "nonce": 1263997,
            "overwritedBlockNumber": -1,
            "priorityFee": "1.699070319",
            "receiver": "0xf57e7e7c23978c3caec3c3548e3d615c346e79ff",
            "revertMessage": "",
            "sender": "0xf16e9b0d03470827a95cdfd0cb8a8a3b46969b91",
            "simulationEnable": true,
            "sourceTxnHash": "0x89eeaa753bfd61d4a84fb34c71498de3f8708a628c9231d02e6e86ab63ab2afd",
            "status": true,
            "timestamp": "2022-11-18T16:32:35Z",
            "transactionFee": "0.000751121421816324",
            "txnHash": "0x89eeaa753bfd61d4a84fb34c71498de3f8708a628c9231d02e6e86ab63ab2afd",
            "txnIndex": 100,
            "type": 2,
            "value": "0"
        },
        "fund_flow": [
            {
                "amount": "40",
                "from": "0xf16e9b0d03470827a95cdfd0cb8a8a3b46969b91",
                "id": 1,
                "isERC1155": false,
                "isERC721": false,
                "isReverted": false,
                "order": 1,
                "to": "0x33723ce557cd1c681a2617ff93e29e9050a433b8",
                "token": "0xf57e7e7c23978c3caec3c3548e3d615c346e79ff"
            }
        ],
        "token_infos": [
            {
                "address": "0xc02aaa39b223fe8d0a0e5c4f27ead9083c756cc2",
                "decimals": 18
            },
            {
                "address": "0xf57e7e7c23978c3caec3c3548e3d615c346e79ff",
                "decimals": 18
            },
            {
                "address": "0xeeeeeeeeeeeeeeeeeeeeeeeeeeeeeeeeeeeeeeee",
                "decimals": 18
            }
        ]
    },
    "address_label": {
        "labels": [
            {
                "address": "0x0000000000000000000000000000000000000001",
                "label": "Precompiled"
            },
            {
                "address": "0x0000000000000000000000000000000000000002",
                "label": "Precompiled"
            },
            {
                "address": "0x0000000000000000000000000000000000000003",
                "label": "Precompiled"
            },
            {
                "address": "0x0000000000000000000000000000000000000004",
                "label": "Precompiled"
            },
            {
                "address": "0xeeeeeeeeeeeeeeeeeeeeeeeeeeeeeeeeeeeeeeee",
                "label": "Ether"
            },
            {
                "address": "0xf16e9b0d03470827a95cdfd0cb8a8a3b46969b91",
                "label": "KuCoin 9"
            },
            {
                "address": "0xf57e7e7c23978c3caec3c3548e3d615c346e79ff",
                "label": "IMMUTABLE X: IMX Token"
            }
        ]
    },
    "trace": {
        "accountLabels": null,
        "dataMap": {
            "-1": {
                "invocation": {
                    "address": "0xf16e9b0d03470827a95cdfd0cb8a8a3b46969b91",
                    "callData": "",
                    "decodedMethod": null,
                    "errorInfo": "",
                    "fromAddress": "",
                    "gasUsed": 0,
                    "id": -1,
                    "methodDecoded": false,
                    "operation": "",
                    "output": "",
                    "revert": false,
                    "revertMessage": "",
                    "selector": "",
                    "status": false,
                    "value": ""
                },
                "nodeType": 0
            },
            "0": {
                "invocation": {
                    "address": "0xf57e7e7c23978c3caec3c3548e3d615c346e79ff",
                    "callData": "0x00000000000000000000000033723ce557cd1c681a2617ff93e29e9050a433b80000000000000000000000000000000000000000000000022b1c8c1227a00000",
                    "decodedMethod": {
                        "callParams": [
                            {
                                "name": "recipient",
                                "type": "address",
                                "value": "0x33723ce557cd1c681a2617ff93e29e9050a433b8"
                            },
                            {
                                "decimalAvailable": true,
                                "name": "amount",
                                "type": "uint256",
                                "value": "40,000,000,000,000,000,000"
                            }
                        ],
                        "constructorArguments": "",
                        "name": "transfer",
                        "returnParams": [
                            {
                                "name": "",
                                "type": "bool",
                                "value": true
                            }
                        ],
                        "signature": "transfer(address,uint256)"
                    },
                    "errorInfo": "",
                    "fromAddress": "0xf16e9b0d03470827a95cdfd0cb8a8a3b46969b91",
                    "gasUsed": 34644,
                    "id": 0,
                    "methodDecoded": true,
                    "operation": "CALL",
                    "output": "0x0000000000000000000000000000000000000000000000000000000000000001",
                    "revert": false,
                    "revertMessage": "",
                    "selector": "0xa9059cbb",
                    "status": true,
                    "value": "0"
                },
                "nodeType": 0
            },
            "1": {
                "event": {
                    "contract": "0xf57e7e7c23978c3caec3c3548e3d615c346e79ff",
                    "decodedLog": {
                        "name": "Transfer",
                        "params": [
                            {
                                "name": "from",
                                "type": "address",
                                "value": "0xf16e9b0d03470827a95cdfd0cb8a8a3b46969b91"
                            },
                            {
                                "name": "to",
                                "type": "address",
                                "value": "0x33723ce557cd1c681a2617ff93e29e9050a433b8"
                            },
                            {
                                "decimalAvailable": true,
                                "name": "value",
                                "type": "uint256",
                                "value": "40,000,000,000,000,000,000"
                            }
                        ],
                        "signature": "Transfer(address,address,uint256)"
                    },
                    "id": 1,
                    "logData": "0x0000000000000000000000000000000000000000000000022b1c8c1227a00000",
                    "logDecoded": true,
                    "operation": "EVENT",
                    "revert": false,
                    "status": true,
                    "topics": [
                        "0xddf252ad1be2c89b69c2b068fc378daa952ba7f163c4a11628f55a4df523b3ef",
                        "0x000000000000000000000000f16e9b0d03470827a95cdfd0cb8a8a3b46969b91",
                        "0x00000000000000000000000033723ce557cd1c681a2617ff93e29e9050a433b8"
                    ]
                },
                "nodeType": 1
            }
        },
        "gasFlame": [
            {
                "children": [
                    {
                        "children": [
                            {
                                "children": [],
                                "depth": 0,
                                "name": "Initial Gas",
                                "value": 21644
                            },
                            {
                                "children": [],
                                "depth": 0,
                                "name": "Executed Gas",
                                "value": 13000
                            }
                        ],
                        "depth": -1,
                        "name": "Actual Gas Used",
                        "value": 34644
                    },
                    {
                        "children": [],
                        "depth": -1,
                        "name": "Refunded Gas",
                        "value": 0
                    }
                ],
                "depth": -2,
                "name": "Total Gas",
                "value": 34644
            }
        ],
        "isConfirmed": true,
        "mainTrace": [
            {
                "children": [
                    {
                        "children": [
                            {
                                "children": [],
                                "depth": 1,
                                "id": 1,
                                "order": 1
                            }
                        ],
                        "depth": 0,
                        "id": 0,
                        "order": 0
                    }
                ],
                "depth": -1,
                "id": -1,
                "order": -1
            }
        ],
        "mainTraceNodeCount": 2,
        "parentIdMap": {
            "0": -1,
            "1": 0
        },
        "tidyTrace": [
            {
                "children": [
                    {
                        "children": [
                            {
                                "children": [],
                                "depth": 1,
                                "id": 1,
                                "order": 1
                            }
                        ],
                        "depth": 0,
                        "id": 0,
                        "order": 0
                    }
                ],
                "depth": -1,
                "id": -1,
                "order": -1
            }
        ],
        "tidyTraceNodeCount": 2
    },
    "state_change": {
        "stateChanges": [
            {
                "address": "0xf57e7e7c23978c3caec3c3548e3d615c346e79ff",
                "erc": "ERC-20",
                "slots": [
                    {
                        "current": "0x000000000000000000000000000000000000000000000034ea6b41f978404000",
                        "key": "0xde652912ef330da7dd298f42fab644f1f9fdc89c1bac1e4acd58066e775850e6",
                        "prev": "0x000000000000000000000000000000000000000000000032bf4eb5e750a04000"
                    },
                    {
                        "current": "0x0000000000000000000000000000000000000000000089f2d332b734539e996d",
                        "key": "0xe22997ad676795e3318786248f6e5790f07b3bc90ff54b119652dd6b4e49e832",
                        "prev": "0x0000000000000000000000000000000000000000000089f4fe4f43467b3e996d"
                    }
                ],
                "storageVariables": [
                    {
                        "name": "_balances",
                        "type": "mapping(address => uint256)",
                        "value": {
                            "pairs": [
                                {
                                    "key": "0x33723ce557cd1c681a2617ff93e29e9050a433b8",
                                    "value": {
                                        "current": "976122359200000000000",
                                        "prev": "936122359200000000000",
                                        "typeTag": 1
                                    }
                                },
                                {
                                    "key": "0xf16e9b0d03470827a95cdfd0cb8a8a3b46969b91",
                                    "value": {
                                        "current": "651443538646505313180013",
                                        "prev": "651483538646505313180013",
                                        "typeTag": 1
                                    }
                                }
                            ],
                            "typeTag": 4
                        }
                    }
                ]
            }
        ]
    }
}