{
    "balance_change": {
        "balanceChanges": [
            {
                "account": "0xd90081b7f521c06108cd9a769ad81f232fadcb77",
                "assets": [
                    {
                        "address": "0xb0ca787f8cf38f077e8201b05378da230a8b462f",
                        "amount": "3,959",
                        "iconUrl": "",
                        "isERC1155": false,
                        "isERC721": false,
                        "sign": false,
                        "value": ""
                    }
                ]
            },
            {
                "account": "0x45de38f070516c3a76e4550ffaeb20e9e1f72ea4",
                "assets": [
                    {
                        "address": "0xb0ca787f8cf38f077e8201b05378da230a8b462f",
                        "amount": "3,959",
                        "iconUrl": "",
                        "isERC1155": false,
                        "isERC721": false,
                        "sign": true,
                        "value": ""
                    }
                ]
            }
        ]
    },
    "profile": {
        "basic_info": {
            "baseFee": "",
            "blockNumber": 7875057,
            "callData": "0xa9059cbb00000000000000000000000045de38f070516c3a76e4550ffaeb20e9e1f72ea40000000000000000000000000000000000000000000000d69e297451ab7c0000",
            "debugEnable": true,
            "errorInfo": "",
            "eventCount": 1,
            "feeRecipient": "0x829bd824b016326a401d083b33d092293333a830",
            "formatValue": "0",
            "gasLimit": 60000,
            "gasPrice": "8",
            "gasUsed": 37324,
            "intTxnCount": 0,
            "internalRevert": false,
            "internalRevertMessage": "",
            "isContractCreation": false,
            "isFlashloan": false,
            "maxFee": "",
            "nonce": 10792,
            "overwritedBlockNumber": -1,
            "priorityFee": "",
            "receiver": "0xb0ca787f8cf38f077e8201b05378da230a8b462f",
            "revertMessage": "",
            "sender": "0xd90081b7f521c06108cd9a769ad81f232fadcb77",
            "simulationEnable": true,
            "sourceTxnHash": "0x8999e207fa2117112f12f805404c003a62ade0685bd88095fa161e0bd61232f1",
            "status": true,
            "timestamp": "2019-06-01T17:38:09Z",
            "transactionFee": "0.000298592",
            "txnHash": "0x8999e207fa2117112f12f805404c003a62ade0685bd88095fa161e0bd61232f1",
            "txnIndex": 52,
            "type": 0,
            "value": "0"
        },
        "fund_flow": [
            {
                "amount": "3,959",
                "from": "0xd90081b7f521c06108cd9a769ad81f232fadcb77",
                "id": 1,
                "isERC1155": false,
                "isERC721": false,
                "isReverted": false,
                "order": 1,
                "to": "0x45de38f070516c3a76e4550ffaeb20e9e1f72ea4",
                "token": "0xb0ca787f8cf38f077e8201b05378da230a8b462f"
            }
        ],
        "token_infos": [
            {
                "address": "0xb0ca787f8cf38f077e8201b05378da230a8b462f",
                "decimals": 18
            },
            {
                "address": "0xc02aaa39b223fe8d0a0e5c4f27ead9083c756cc2",
                "decimals": 18
            },
            {
                "address": "0xeeeeeeeeeeeeeeeeeeeeeeeeeeeeeeeeeeeeeeee",
                "decimals": 18
            }
        ]
    },
    "address_label": {
        "labels": [
            {
                "address": "0x0000000000000000000000000000000000000004",
                "label": "Precompiled"
            },
            {
                "address": "0xeeeeeeeeeeeeeeeeeeeeeeeeeeeeeeeeeeeeeeee",
                "label": "Ether"
            },
            {
                "address": "0xb0ca787f8cf38f077e8201b05378da230a8b462f",
                "label": "BHTX (BHTX)"
            },
            {
                "address": "0x0000000000000000000000000000000000000001",
                "label": "Precompiled"
            },
            {
                "address": "0x0000000000000000000000000000000000000002",
                "label": "Precompiled"
            },
            {
                "address": "0x0000000000000000000000000000000000000003",
                "label": "Precompiled"
            }
        ]
    },
    "trace": {
        "accountLabels": null,
        "dataMap": {
            "-1": {
                "invocation": {
                    "address": "0xd90081b7f521c06108cd9a769ad81f232fadcb77",
                    "callData": "",
                    "decodedMethod": null,
                    "errorInfo": "",
                    "fromAddress": "",
                    "gasUsed": 0,
                    "id": -1,
                    "methodDecoded": false,
                    "operation": "",
                    "output": "",
                    "revert": false,
                    "revertMessage": "",
                    "selector": "",
                    "status": false,
                    "value": ""
                },
                "nodeType": 0
            },
            "0": {
                "invocation": {
                    "address": "0xb0ca787f8cf38f077e8201b05378da230a8b462f",
                    "callData": "0x00000000000000000000000045de38f070516c3a76e4550ffaeb20e9e1f72ea40000000000000000000000000000000000000000000000d69e297451ab7c0000",
                    "decodedMethod": {
                        "callParams": [
                            {
                                "name": "to",
                                "type": "address",
                                "value": "0x45de38f070516c3a76e4550ffaeb20e9e1f72ea4"
                            },
                            {
                                "decimalAvailable": true,
                                "name": "value",
                                "type": "uint256",
                                "value": "3,959,000,000,000,000,000,000"
                            }
                        ],
                        "constructorArguments": "",
                        "name": "transfer",
                        "returnParams": [
                            {
                                "name": "",
                                "type": "bool",
                                "value": true
                            }
                        ],
                        "signature": "transfer(address,uint256)"
                    },
                    "errorInfo": "",
                    "fromAddress": "0xd90081b7f521c06108cd9a769ad81f232fadcb77",
                    "gasUsed": 37324,
                    "id": 0,
                    "methodDecoded": true,
                    "operation": "CALL",
                    "output": "0x0000000000000000000000000000000000000000000000000000000000000001",
                    "revert": false,
                    "revertMessage": "",
                    "selector": "0xa9059cbb",
                    "status": true,
                    "value": "0"
                },
                "nodeType": 0
            },
            "1": {
                "event": {
                    "contract": "0xb0ca787f8cf38f077e8201b05378da230a8b462f",
                    "decodedLog": {
                        "name": "Transfer",
                        "params": [
                            {
                                "name": "from",
                                "type": "address",
                                "value": "0xd90081b7f521c06108cd9a769ad81f232fadcb77"
                            },
                            {
                                "name": "to",
                                "type": "address",
                                "value": "0x45de38f070516c3a76e4550ffaeb20e9e1f72ea4"
                            },
                            {
                                "decimalAvailable": true,
                                "name": "value",
                                "type": "uint256",
                                "value": "3,959,000,000,000,000,000,000"
                            }
                        ],
                        "signature": "Transfer(address,address,uint256)"
                    },
                    "id": 1,
                    "logData": "0x0000000000000000000000000000000000000000000000d69e297451ab7c0000",
                    "logDecoded": true,
                    "operation": "EVENT",
                    "revert": false,
                    "status": true,
                    "topics": [
                        "0xddf252ad1be2c89b69c2b068fc378daa952ba7f163c4a11628f55a4df523b3ef",
                        "0x000000000000000000000000d90081b7f521c06108cd9a769ad81f232fadcb77",
                        "0x00000000000000000000000045de38f070516c3a76e4550ffaeb20e9e1f72ea4"
                    ]
                },
                "nodeType": 1
            }
        },
        "gasFlame": [
            {
                "children": [
                    {
                        "children": [
                            {
                                "children": [],
                                "depth": 0,
                                "name": "Initial Gas",
                                "value": 23256
                            },
                            {
                                "children": [],
                                "depth": 0,
                                "name": "Executed Gas",
                                "value": 14068
                            }
                        ],
                        "depth": -1,
                        "name": "Actual Gas Used",
                        "value": 37324
                    },
                    {
                        "children": [],
                        "depth": -1,
                        "name": "Refunded Gas",
                        "value": 0
                    }
                ],
                "depth": -2,
                "name": "Total Gas",
                "value": 37324
            }
        ],
        "isConfirmed": true,
        "mainTrace": [
            {
                "children": [
                    {
                        "children": [
                            {
                                "children": [],
                                "depth": 1,
                                "id": 1,
                                "order": 1
                            }
                        ],
                        "depth": 0,
                        "id": 0,
                        "order": 0
                    }
                ],
                "depth": -1,
                "id": -1,
                "order": -1
            }
        ],
        "mainTraceNodeCount": 2,
        "parentIdMap": {
            "0": -1,
            "1": 0
        },
        "tidyTrace": [
            {
                "children": [
                    {
                        "children": [
                            {
                                "children": [],
                                "depth": 1,
                                "id": 1,
                                "order": 1
                            }
                        ],
                        "depth": 0,
                        "id": 0,
                        "order": 0
                    }
                ],
                "depth": -1,
                "id": -1,
                "order": -1
            }
        ],
        "tidyTraceNodeCount": 2
    },
    "state_change": {
        "stateChanges": [
            {
                "address": "0xb0ca787f8cf38f077e8201b05378da230a8b462f",
                "erc": "ERC-20",
                "slots": [
                    {
                        "current": "0x00000000000000000000000000000000000000000000c74df19dc87064b352dc",
                        "key": "0x3a638ef4bd83551a9af0de6b73df1fd0f084bfb1ca474e0f246e8a0ff8e6ff43",
                        "prev": "0x00000000000000000000000000000000000000000000c8248fc73cc2102f52dc"
                    },
                    {
                        "current": "0x000000000000000000000000000000000000000000000102da6fd0f73a3c0000",
                        "key": "0xae5bb8268e7407d9a85e21e435a1857823af23bce084beccd1dfd12b0ce1d4b3",
                        "prev": "0x00000000000000000000000000000000000000000000002c3c465ca58ec00000"
                    }
                ],
                "storageVariables": [
                    {
                        "name": "balanceOf",
                        "type": "mapping(address => uint256)",
                        "value": {
                            "pairs": [
                                {
                                    "key": "0x45de38f070516c3a76e4550ffaeb20e9e1f72ea4",
                                    "value": {
                                        "current": "4775000000000000000000",
                                        "prev": "816000000000000000000",
                                        "typeTag": 1
                                    }
                                },
                                {
                                    "key": "0xd90081b7f521c06108cd9a769ad81f232fadcb77",
                                    "value": {
                                        "current": "941188739676854568571612",
                                        "prev": "945147739676854568571612",
                                        "typeTag": 1
                                    }
                                }
                            ],
                            "typeTag": 4
                        }
                    }
                ]
            }
        ]
    }
}