{
    "balance_change": {
        "balanceChanges": [
            {
                "account": "0x2b5634c42055806a59e9107ed44d43c426e58258",
                "assets": [
                    {
                        "address": "0x8c15ef5b4b21951d50e53e4fbda8298ffad25057",
                        "amount": "24,754.39085",
                        "iconUrl": "https://assets.blocksec.com/icon/a049b4574d2da1d9431019c8c77859ffce04ea82ccbd4d315c294aa94fb53fc5.png",
                        "isERC1155": false,
                        "isERC721": false,
                        "sign": false,
                        "value": ""
                    }
                ]
            },
            {
                "account": "0x124722b405330a72b6967726722a0bfcc4fafa14",
                "assets": [
                    {
                        "address": "0x8c15ef5b4b21951d50e53e4fbda8298ffad25057",
                        "amount": "24,754.39085",
                        "iconUrl": "https://assets.blocksec.com/icon/a049b4574d2da1d9431019c8c77859ffce04ea82ccbd4d315c294aa94fb53fc5.png",
                        "isERC1155": false,
                        "isERC721": false,
                        "sign": true,
                        "value": ""
                    }
                ]
            }
        ]
    },
    "profile": {
        "basic_info": {
            "baseFee": "",
            "blockNumber": 9983545,
            "callData": "0xa9059cbb000000000000000000000000124722b405330a72b6967726722a0bfcc4fafa1400000000000000000000000000000000000000000000053df02efbb0f5fe2000",
            "debugEnable": true,
            "errorInfo": "",
            "eventCount": 1,
            "feeRecipient": "0xea674fdde714fd979de3edf0f56aa9716b898ec8",
            "formatValue": "0",
            "gasLimit": 110396,
            "gasPrice": "17.579",
            "gasUsed": 40264,
            "intTxnCount": 0,
            "internalRevert": false,
            "internalRevertMessage": "",
            "isContractCreation": false,
            "isFlashloan": false,
            "maxFee": "",
            "nonce": 1878774,
            "overwritedBlockNumber": -1,
            "priorityFee": "",
            "receiver": "0x8c15ef5b4b21951d50e53e4fbda8298ffad25057",
            "revertMessage": "",
            "sender": "0x2b5634c42055806a59e9107ed44d43c426e58258",
            "simulationEnable": true,
            "sourceTxnHash": "0x8ad29693cab77380334c2850ccfdad6765786fe27d4c577aa09388c32bb25d15",
            "status": true,
            "timestamp": "2020-05-02T00:23:54Z",
            "transactionFee": "0.000707800856",
            "txnHash": "0x8ad29693cab77380334c2850ccfdad6765786fe27d4c577aa09388c32bb25d15",
            "txnIndex": 33,
            "type": 0,
            "value": "0"
        },
        "fund_flow": [
            {
                "amount": "24,754.39085",
                "from": "0x2b5634c42055806a59e9107ed44d43c426e58258",
                "id": 1,
                "isERC1155": false,
                "isERC721": false,
                "isReverted": false,
                "order": 1,
                "to": "0x124722b405330a72b6967726722a0bfcc4fafa14",
                "token": "0x8c15ef5b4b21951d50e53e4fbda8298ffad25057"
            }
        ],
        "token_infos": [
            {
                "address": "0x8c15ef5b4b21951d50e53e4fbda8298ffad25057",
                "decimals": 18
            },
            {
                "address": "0xc02aaa39b223fe8d0a0e5c4f27ead9083c756cc2",
                "decimals": 18
            },
            {
                "address": "0xeeeeeeeeeeeeeeeeeeeeeeeeeeeeeeeeeeeeeeee",
                "decimals": 18
            }
        ]
    },
    "address_label": {
        "labels": [
            {
                "address": "0x8c15ef5b4b21951d50e53e4fbda8298ffad25057",
                "label": "Function X Token"
            },
            {
                "address": "0x2b5634c42055806a59e9107ed44d43c426e58258",
                "label": "KuCoin"
            },
            {
                "address": "0x0000000000000000000000000000000000000001",
                "label": "Precompiled"
            },
            {
                "address": "0x0000000000000000000000000000000000000002",
                "label": "Precompiled"
            },
            {
                "address": "0x0000000000000000000000000000000000000003",
                "label": "Precompiled"
            },
            {
                "address": "0x0000000000000000000000000000000000000004",
                "label": "Precompiled"
            },
            {
                "address": "0xeeeeeeeeeeeeeeeeeeeeeeeeeeeeeeeeeeeeeeee",
                "label": "Ether"
            }
        ]
    },
    "trace": {
        "accountLabels": null,
        "dataMap": {
            "-1": {
                "invocation": {
                    "address": "0x2b5634c42055806a59e9107ed44d43c426e58258",
                    "callData": "",
                    "decodedMethod": null,
                    "errorInfo": "",
                    "fromAddress": "",
                    "gasUsed": 0,
                    "id": -1,
                    "methodDecoded": false,
                    "operation": "",
                    "output": "",
                    "revert": false,
                    "revertMessage": "",
                    "selector": "",
                    "status": false,
                    "value": ""
                },
                "nodeType": 0
            },
            "0": {
                "invocation": {
                    "address": "0x8c15ef5b4b21951d50e53e4fbda8298ffad25057",
                    "callData": "0x000000000000000000000000124722b405330a72b6967726722a0bfcc4fafa1400000000000000000000000000000000000000000000053df02efbb0f5fe2000",
                    "decodedMethod": {
                        "callParams": [
                            {
                                "name": "_to",
                                "type": "address",
                                "value": "0x124722b405330a72b6967726722a0bfcc4fafa14"
                            },
                            {
                                "decimalAvailable": true,
                                "name": "_value",
                                "type": "uint256",
                                "value": "24,754,390,850,000,000,000,000"
                            }
                        ],
                        "constructorArguments": "",
                        "name": "transfer",
                        "returnParams": [
                            {
                                "name": "",
                                "type": "bool",
                                "value": true
                            }
                        ],
                        "signature": "transfer(address,uint256)"
                    },
                    "errorInfo": "",
                    "fromAddress": "0x2b5634c42055806a59e9107ed44d43c426e58258",
                    "gasUsed": 40264,
                    "id": 0,
                    "methodDecoded": true,
                    "operation": "CALL",
                    "output": "0x0000000000000000000000000000000000000000000000000000000000000001",
                    "revert": false,
                    "revertMessage": "",
                    "selector": "0xa9059cbb",
                    "status": true,
                    "value": "0"
                },
                "nodeType": 0
            },
            "1": {
                "event": {
                    "contract": "0x8c15ef5b4b21951d50e53e4fbda8298ffad25057",
                    "decodedLog": {
                        "name": "Transfer",
                        "params": [
                            {
                                "name": "from",
                                "type": "address",
                                "value": "0x2b5634c42055806a59e9107ed44d43c426e58258"
                            },
                            {
                                "name": "to",
                                "type": "address",
                                "value": "0x124722b405330a72b6967726722a0bfcc4fafa14"
                            },
                            {
                                "decimalAvailable": true,
                                "name": "value",
                                "type": "uint256",
                                "value": "24,754,390,850,000,000,000,000"
                            }
                        ],
                        "signature": "Transfer(address,address,uint256)"
                    },
                    "id": 1,
                    "logData": "0x00000000000000000000000000000000000000000000053df02efbb0f5fe2000",
                    "logDecoded": true,
                    "operation": "EVENT",
                    "revert": false,
                    "status": true,
                    "topics": [
                        "0xddf252ad1be2c89b69c2b068fc378daa952ba7f163c4a11628f55a4df523b3ef",
                        "0x0000000000000000000000002b5634c42055806a59e9107ed44d43c426e58258",
                        "0x000000000000000000000000124722b405330a72b6967726722a0bfcc4fafa14"
                    ]
                },
                "nodeType": 1
            }
        },
        "gasFlame": [
            {
                "children": [
                    {
                        "children": [
                            {
                                "children": [],
                                "depth": 0,
                                "name": "Initial Gas",
                                "value": 21668
                            },
                            {
                                "children": [],
                                "depth": 0,
                                "name": "Executed Gas",
                                "value": 18596
                            }
                        ],
                        "depth": -1,
                        "name": "Actual Gas Used",
                        "value": 40264
                    },
                    {
                        "children": [],
                        "depth": -1,
                        "name": "Refunded Gas",
                        "value": 0
                    }
                ],
                "depth": -2,
                "name": "Total Gas",
                "value": 40264
            }
        ],
        "isConfirmed": true,
        "mainTrace": [
            {
                "children": [
                    {
                        "children": [
                            {
                                "children": [],
                                "depth": 1,
                                "id": 1,
                                "order": 1
                            }
                        ],
                        "depth": 0,
                        "id": 0,
                        "order": 0
                    }
                ],
                "depth": -1,
                "id": -1,
                "order": -1
            }
        ],
        "mainTraceNodeCount": 2,
        "parentIdMap": {
            "0": -1,
            "1": 0
        },
        "tidyTrace": [
            {
                "children": [
                    {
                        "children": [
                            {
                                "children": [],
                                "depth": 1,
                                "id": 1,
                                "order": 1
                            }
                        ],
                        "depth": 0,
                        "id": 0,
                        "order": 0
                    }
                ],
                "depth": -1,
                "id": -1,
                "order": -1
            }
        ],
        "tidyTraceNodeCount": 2
    },
    "state_change": {
        "stateChanges": [
            {
                "address": "0x8c15ef5b4b21951d50e53e4fbda8298ffad25057",
                "erc": "ERC-20",
                "slots": [
                    {
                        "current": "0x00000000000000000000000000000000000000000000221a574211e9cc3f6400",
                        "key": "0x723770f24bb9a8ef6e334d78904b63c5bb4db9ea10886f3bda5fcacb11785a05",
                        "prev": "0x00000000000000000000000000000000000000000000275847710d9ac23d8400"
                    },
                    {
                        "current": "0x000000000000000000000000000000000000000000000a6b3fdb8647a9091c00",
                        "key": "0x9a497fd8600b09fd391276d6544e951f3292befd6ccdef8da5780c350273b239",
                        "prev": "0x00000000000000000000000000000000000000000000052d4fac8a96b30afc00"
                    }
                ],
                "storageVariables": [
                    {
                        "name": "balances",
                        "type": "mapping(address => uint256)",
                        "value": {
                            "pairs": [
                                {
                                    "key": "0x124722b405330a72b6967726722a0bfcc4fafa14",
                                    "value": {
                                        "current": "49202067863670000000000",
                                        "prev": "24447677013670000000000",
                                        "typeTag": 1
                                    }
                                },
                                {
                                    "key": "0x2b5634c42055806a59e9107ed44d43c426e58258",
                                    "value": {
                                        "current": "161046363371210000000000",
                                        "prev": "185800754221210000000000",
                                        "typeTag": 1
                                    }
                                }
                            ],
                            "typeTag": 4
                        }
                    }
                ]
            }
        ]
    }
}