{
    "balance_change": {
        "balanceChanges": [
            {
                "account": "0x24ba1542f8a0a20e8251d096213384cfb0ee3dbc",
                "assets": [
                    {
                        "address": "0x6b175474e89094c44da98b954eedeac495271d0f",
                        "amount": "51.316506725809134",
                        "iconUrl": "https://assets.blocksec.com/icon/39aead569b9c011cb6f69734d9abbc9ab6a80049fe93bbd12bb473a3e0e859a3.png",
                        "isERC1155": false,
                        "isERC721": false,
                        "sign": false,
                        "value": "51.31475786"
                    }
                ]
            },
            {
                "account": "0x901a2a57344e9ab6d5001343f22ed62ca5b378ab",
                "assets": [
                    {
                        "address": "0x6b175474e89094c44da98b954eedeac495271d0f",
                        "amount": "51.316506725809134",
                        "iconUrl": "https://assets.blocksec.com/icon/39aead569b9c011cb6f69734d9abbc9ab6a80049fe93bbd12bb473a3e0e859a3.png",
                        "isERC1155": false,
                        "isERC721": false,
                        "sign": true,
                        "value": "51.31475786"
                    }
                ]
            }
        ]
    },
    "profile": {
        "basic_info": {
            "baseFee": "",
            "blockNumber": 11752786,
            "callData": "0xa9059cbb000000000000000000000000901a2a57344e9ab6d5001343f22ed62ca5b378ab000000000000000000000000000000000000000000000002c828dafb09cc19b0",
            "debugEnable": true,
            "errorInfo": "",
            "eventCount": 1,
            "feeRecipient": "0x5a0b54d5dc17e0aadc383d2db43b0a0d3e029c4c",
            "formatValue": "0",
            "gasLimit": 37030,
            "gasPrice": "107",
            "gasUsed": 37030,
            "intTxnCount": 0,
            "internalRevert": false,
            "internalRevertMessage": "",
            "isContractCreation": false,
            "isFlashloan": false,
            "maxFee": "",
            "nonce": 26926,
            "overwritedBlockNumber": -1,
            "priorityFee": "",
            "receiver": "0x6b175474e89094c44da98b954eedeac495271d0f",
            "revertMessage": "",
            "sender": "0x24ba1542f8a0a20e8251d096213384cfb0ee3dbc",
            "simulationEnable": true,
            "sourceTxnHash": "0x8aa78704cb4af16b18f502007af105d9d9e11b6fdf2b94a0e453ba07c79ad8f3",
            "status": true,
            "timestamp": "2021-01-29T19:49:44Z",
            "transactionFee": "0.00396221",
            "txnHash": "0x8aa78704cb4af16b18f502007af105d9d9e11b6fdf2b94a0e453ba07c79ad8f3",
            "txnIndex": 226,
            "type": 0,
            "value": "0"
        },
        "fund_flow": [
            {
                "amount": "51.316506725809134",
                "from": "0x24ba1542f8a0a20e8251d096213384cfb0ee3dbc",
                "id": 1,
                "isERC1155": false,
                "isERC721": false,
                "isReverted": false,
                "order": 1,
                "to": "0x901a2a57344e9ab6d5001343f22ed62ca5b378ab",
                "token": "0x6b175474e89094c44da98b954eedeac495271d0f"
            }
        ],
        "token_infos": [
            {
                "address": "0x6b175474e89094c44da98b954eedeac495271d0f",
                "decimals": 18
            },
            {
                "address": "0xc02aaa39b223fe8d0a0e5c4f27ead9083c756cc2",
                "decimals": 18
            },
            {
                "address": "0xeeeeeeeeeeeeeeeeeeeeeeeeeeeeeeeeeeeeeeee",
                "decimals": 18
            }
        ]
    },
    "address_label": {
        "labels": [
            {
                "address": "0xeeeeeeeeeeeeeeeeeeeeeeeeeeeeeeeeeeeeeeee",
                "label": "Ether"
            },
            {
                "address": "0x24ba1542f8a0a20e8251d096213384cfb0ee3dbc",
                "label": "HUOBI"
            },
            {
                "address": "0x6b175474e89094c44da98b954eedeac495271d0f",
                "label": "Sky: Dai Stablecoin"
            },
            {
                "address": "0x0000000000000000000000000000000000000001",
                "label": "Precompiled"
            },
            {
                "address": "0x0000000000000000000000000000000000000002",
                "label": "Precompiled"
            },
            {
                "address": "0x0000000000000000000000000000000000000003",
                "label": "Precompiled"
            },
            {
                "address": "0x0000000000000000000000000000000000000004",
                "label": "Precompiled"
            }
        ]
    },
    "trace": {
        "accountLabels": null,
        "dataMap": {
            "-1": {
                "invocation": {
                    "address": "0x24ba1542f8a0a20e8251d096213384cfb0ee3dbc",
                    "callData": "",
                    "decodedMethod": null,
                    "errorInfo": "",
                    "fromAddress": "",
                    "gasUsed": 0,
                    "id": -1,
                    "methodDecoded": false,
                    "operation": "",
                    "output": "",
                    "revert": false,
                    "revertMessage": "",
                    "selector": "",
                    "status": false,
                    "value": ""
                },
                "nodeType": 0
            },
            "0": {
                "invocation": {
                    "address": "0x6b175474e89094c44da98b954eedeac495271d0f",
                    "callData": "0x000000000000000000000000901a2a57344e9ab6d5001343f22ed62ca5b378ab000000000000000000000000000000000000000000000002c828dafb09cc19b0",
                    "decodedMethod": {
                        "callParams": [
                            {
                                "name": "dst",
                                "type": "address",
                                "value": "0x901a2a57344e9ab6d5001343f22ed62ca5b378ab"
                            },
                            {
                                "decimalAvailable": true,
                                "name": "wad",
                                "type": "uint256",
                                "value": "51,316,506,725,809,134,000"
                            }
                        ],
                        "constructorArguments": "",
                        "name": "transfer",
                        "returnParams": [
                            {
                                "name": "",
                                "type": "bool",
                                "value": true
                            }
                        ],
                        "signature": "transfer(address,uint256)"
                    },
                    "errorInfo": "",
                    "fromAddress": "0x24ba1542f8a0a20e8251d096213384cfb0ee3dbc",
                    "gasUsed": 37030,
                    "id": 0,
                    "methodDecoded": true,
                    "operation": "CALL",
                    "output": "0x0000000000000000000000000000000000000000000000000000000000000001",
                    "revert": false,
                    "revertMessage": "",
                    "selector": "0xa9059cbb",
                    "status": true,
                    "value": "0"
                },
                "nodeType": 0
            },
            "1": {
                "event": {
                    "contract": "0x6b175474e89094c44da98b954eedeac495271d0f",
                    "decodedLog": {
                        "name": "Transfer",
                        "params": [
                            {
                                "name": "src",
                                "type": "address",
                                "value": "0x24ba1542f8a0a20e8251d096213384cfb0ee3dbc"
                            },
                            {
                                "name": "dst",
                                "type": "address",
                                "value": "0x901a2a57344e9ab6d5001343f22ed62ca5b378ab"
                            },
                            {
                                "decimalAvailable": true,
                                "name": "wad",
                                "type": "uint256",
                                "value": "51,316,506,725,809,134,000"
                            }
                        ],
                        "signature": "Transfer(address,address,uint256)"
                    },
                    "id": 1,
                    "logData": "0x000000000000000000000000000000000000000000000002c828dafb09cc19b0",
                    "logDecoded": true,
                    "operation": "EVENT",
                    "revert": false,
                    "status": true,
                    "topics": [
                        "0xddf252ad1be2c89b69c2b068fc378daa952ba7f163c4a11628f55a4df523b3ef",
                        "0x00000000000000000000000024ba1542f8a0a20e8251d096213384cfb0ee3dbc",
                        "0x000000000000000000000000901a2a57344e9ab6d5001343f22ed62ca5b378ab"
                    ]
                },
                "nodeType": 1
            }
        },
        "gasFlame": [
            {
                "children": [
                    {
                        "children": [
                            {
                                "children": [],
                                "depth": 0,
                                "name": "Initial Gas",
                                "value": 21656
                            },
                            {
                                "children": [],
                                "depth": 0,
                                "name": "Executed Gas",
                                "value": 15374
                            }
                        ],
                        "depth": -1,
                        "name": "Actual Gas Used",
                        "value": 37030
                    },
                    {
                        "children": [],
                        "depth": -1,
                        "name": "Refunded Gas",
                        "value": 0
                    }
                ],
                "depth": -2,
                "name": "Total Gas",
                "value": 37030
            }
        ],
        "isConfirmed": true,
        "mainTrace": [
            {
                "children": [
                    {
                        "children": [
                            {
                                "children": [],
                                "depth": 1,
                                "id": 1,
                                "order": 1
                            }
                        ],
                        "depth": 0,
                        "id": 0,
                        "order": 0
                    }
                ],
                "depth": -1,
                "id": -1,
                "order": -1
            }
        ],
        "mainTraceNodeCount": 2,
        "parentIdMap": {
            "0": -1,
            "1": 0
        },
        "tidyTrace": [
            {
                "children": [
                    {
                        "children": [
                            {
                                "children": [],
                                "depth": 1,
                                "id": 1,
                                "order": 1
                            }
                        ],
                        "depth": 0,
                        "id": 0,
                        "order": 0
                    }
                ],
                "depth": -1,
                "id": -1,
                "order": -1
            }
        ],
        "tidyTraceNodeCount": 2
    },
    "state_change": {
        "stateChanges": [
            {
                "address": "0x6b175474e89094c44da98b954eedeac495271d0f",
                "erc": "ERC-20",
                "slots": [
                    {
                        "current": "0x0000000000000000000000000000000000000000000000707ad8ea2c9a19a760",
                        "key": "0x565be1a87bdbbbb359a5a3f224396764d5e12b5e64c7cc87145a0ceae1f057c2",
                        "prev": "0x00000000000000000000000000000000000000000000006db2b00f31904d8db0"
                    },
                    {
                        "current": "0x0000000000000000000000000000000000000000000000715e95c53dea3f993b",
                        "key": "0xb200c46efcc8b9f19aad610ff0c1ff1b72a32b41cf82c007fd2bcf98f2312c33",
                        "prev": "0x00000000000000000000000000000000000000000000007426bea038f40bb2eb"
                    }
                ],
                "storageVariables": [
                    {
                        "name": "balanceOf",
                        "type": "mapping(address => uint256)",
                        "value": {
                            "pairs": [
                                {
                                    "key": "0x24ba1542f8a0a20e8251d096213384cfb0ee3dbc",
                                    "value": {
                                        "current": "2091297650809988159803",
                                        "prev": "2142614157535797293803",
                                        "typeTag": 1
                                    }
                                },
                                {
                                    "key": "0x901a2a57344e9ab6d5001343f22ed62ca5b378ab",
                                    "value": {
                                        "current": "2074887418800351324000",
                                        "prev": "2023570912074542190000",
                                        "typeTag": 1
                                    }
                                }
                            ],
                            "typeTag": 4
                        }
                    }
                ]
            }
        ]
    }
}