{
    "balance_change": {
        "balanceChanges": [
            {
                "account": "0xec8e446c52f2d4ac9048aff1813c636ac8334fc9",
                "assets": [
                    {
                        "address": "0x89d24a6b4ccb1b6faa2625fe562bdd9a23260359",
                        "amount": "5",
                        "iconUrl": "https://assets.blocksec.com/icon/ef749d775affba651ec0a3b1d637f71b140c748229531fb8d00c215d958a89f4.png",
                        "isERC1155": false,
                        "isERC721": false,
                        "sign": true,
                        "value": ""
                    },
                    {
                        "address": "0xf5dce57282a584d2746faf1593d3121fcac444dc",
                        "amount": "234.80903172",
                        "iconUrl": "",
                        "isERC1155": false,
                        "isERC721": false,
                        "sign": false,
                        "value": ""
                    }
                ]
            },
            {
                "account": "0xf5dce57282a584d2746faf1593d3121fcac444dc",
                "assets": [
                    {
                        "address": "0x89d24a6b4ccb1b6faa2625fe562bdd9a23260359",
                        "amount": "5",
                        "iconUrl": "https://assets.blocksec.com/icon/ef749d775affba651ec0a3b1d637f71b140c748229531fb8d00c215d958a89f4.png",
                        "isERC1155": false,
                        "isERC721": false,
                        "sign": false,
                        "value": ""
                    },
                    {
                        "address": "0xf5dce57282a584d2746faf1593d3121fcac444dc",
                        "amount": "234.80903172",
                        "iconUrl": "",
                        "isERC1155": false,
                        "isERC721": false,
                        "sign": true,
                        "value": ""
                    }
                ]
            }
        ]
    },
    "profile": {
        "basic_info": {
            "baseFee": "",
            "blockNumber": 9637592,
            "callData": "0x852a12e30000000000000000000000000000000000000000000000004563918244f40000",
            "debugEnable": true,
            "errorInfo": "",
            "eventCount": 4,
            "feeRecipient": "0xea674fdde714fd979de3edf0f56aa9716b898ec8",
            "formatValue": "0",
            "gasLimit": 584403,
            "gasPrice": "7.5",
            "gasUsed": 389602,
            "intTxnCount": 53,
            "internalRevert": false,
            "internalRevertMessage": "",
            "isContractCreation": false,
            "isFlashloan": false,
            "maxFee": "",
            "nonce": 1313,
            "overwritedBlockNumber": -1,
            "priorityFee": "",
            "receiver": "0xf5dce57282a584d2746faf1593d3121fcac444dc",
            "revertMessage": "",
            "sender": "0xec8e446c52f2d4ac9048aff1813c636ac8334fc9",
            "simulationEnable": true,
            "sourceTxnHash": "0x8a020f53a75ae42fc2ff4beacb722a58b92d6f0799ea47654fd99acab7b117ba",
            "status": true,
            "timestamp": "2020-03-09T13:48:03Z",
            "transactionFee": "0.002922015",
            "txnHash": "0x8a020f53a75ae42fc2ff4beacb722a58b92d6f0799ea47654fd99acab7b117ba",
            "txnIndex": 48,
            "type": 0,
            "value": "0"
        },
        "fund_flow": [
            {
                "amount": "5",
                "from": "0xf5dce57282a584d2746faf1593d3121fcac444dc",
                "id": 1,
                "isERC1155": false,
                "isERC721": false,
                "isReverted": false,
                "order": 1,
                "to": "0xec8e446c52f2d4ac9048aff1813c636ac8334fc9",
                "token": "0x89d24a6b4ccb1b6faa2625fe562bdd9a23260359"
            },
            {
                "amount": "234.80903172",
                "from": "0xec8e446c52f2d4ac9048aff1813c636ac8334fc9",
                "id": 2,
                "isERC1155": false,
                "isERC721": false,
                "isReverted": false,
                "order": 2,
                "to": "0xf5dce57282a584d2746faf1593d3121fcac444dc",
                "token": "0xf5dce57282a584d2746faf1593d3121fcac444dc"
            }
        ],
        "token_infos": [
            {
                "address": "0x89d24a6b4ccb1b6faa2625fe562bdd9a23260359",
                "decimals": 18
            },
            {
                "address": "0xc02aaa39b223fe8d0a0e5c4f27ead9083c756cc2",
                "decimals": 18
            },
            {
                "address": "0xf5dce57282a584d2746faf1593d3121fcac444dc",
                "decimals": 8
            },
            {
                "address": "0xeeeeeeeeeeeeeeeeeeeeeeeeeeeeeeeeeeeeeeee",
                "decimals": 18
            }
        ]
    },
    "address_label": {
        "labels": [
            {
                "address": "0xeeeeeeeeeeeeeeeeeeeeeeeeeeeeeeeeeeeeeeee",
                "label": "Ether"
            },
            {
                "address": "0xf5dce57282a584d2746faf1593d3121fcac444dc",
                "label": "Compound Sai (cSAI)"
            },
            {
                "address": "0x6c8c6b02e7b2be14d4fa6022dfd6d75921d90e4e",
                "label": "Compound: cBAT Token"
            },
            {
                "address": "0x729d19f657bd0614b4985cf1d82531c67569197b",
                "label": "Maker: Medianizer 2"
            },
            {
                "address": "0x0000000000000000000000000000000000000001",
                "label": "Precompiled"
            },
            {
                "address": "0x0000000000000000000000000000000000000003",
                "label": "Precompiled"
            },
            {
                "address": "0x0882477e7895bdc5cea7cb1552ed914ab157fe56",
                "label": "FiatTokenV1"
            },
            {
                "address": "0x39aa39c021dfbae8fac545936693ac917d5e7563",
                "label": "Compound USD Coin (cUSDC)"
            },
            {
                "address": "0x89d24a6b4ccb1b6faa2625fe562bdd9a23260359",
                "label": "Sai Stablecoin"
            },
            {
                "address": "0x4ddc2d193948926d02f9b1fe9e1daa0718270ed5",
                "label": "Compound: cETH Token"
            },
            {
                "address": "0x158079ee67fce2f58472a96584a73c7ab9ac95c1",
                "label": "Compound: cREP Token"
            },
            {
                "address": "0xa0b86991c6218b36c1d19d4a2e9eb0ce3606eb48",
                "label": "Circle: USDC Token"
            },
            {
                "address": "0x0000000000000000000000000000000000000004",
                "label": "Precompiled"
            },
            {
                "address": "0xb3319f5d18bc0d84dd1b4825dcde5d5f7266d407",
                "label": "Compound: cZRX Token"
            },
            {
                "address": "0xb3337164e91b9f05c87c7662c7ac684e8e0ff3e7",
                "label": "Controller"
            },
            {
                "address": "0xe41d2489571d322189246dafa5ebde1f4699f498",
                "label": "0x: ZRX Token"
            },
            {
                "address": "0x1d8aedc9e924730dd3f9641cdb4d1b92b848b4bd",
                "label": "PriceOracleProxy"
            },
            {
                "address": "0x02557a5e05defeffd4cae6d83ea3d173b272c904",
                "label": "Compound: Oracle"
            },
            {
                "address": "0x1985365e9f78359a9b6ad760e32412f4a445e862",
                "label": "Augur: REP Token"
            },
            {
                "address": "0xa1046abfc2598f48c44fb320d281d3f3c0733c9a",
                "label": "WhitePaperInterestRateModel"
            },
            {
                "address": "0xf592ef673057a451c49c9433e278c5d59b56132c",
                "label": "Comptroller"
            },
            {
                "address": "0x6c114b96b7a0e679c2594e3884f11526797e43d1",
                "label": "Reputation (REP)"
            },
            {
                "address": "0x0000000000000000000000000000000000000002",
                "label": "Precompiled"
            },
            {
                "address": "0x3d9819210a31b4961b30ef54be2aed79b9c9cd3b",
                "label": "Compound: Comptroller"
            },
            {
                "address": "0x0d8775f648430679a709e98d2b0cb6250d2887ef",
                "label": "Basic Attention: BAT Token"
            }
        ]
    },
    "trace": {
        "accountLabels": null,
        "dataMap": {
            "-1": {
                "invocation": {
                    "address": "0xec8e446c52f2d4ac9048aff1813c636ac8334fc9",
                    "callData": "",
                    "decodedMethod": null,
                    "errorInfo": "",
                    "fromAddress": "",
                    "gasUsed": 0,
                    "id": -1,
                    "methodDecoded": false,
                    "operation": "",
                    "output": "",
                    "revert": false,
                    "revertMessage": "",
                    "selector": "",
                    "status": false,
                    "value": ""
                },
                "nodeType": 0
            },
            "0": {
                "invocation": {
                    "address": "0xf5dce57282a584d2746faf1593d3121fcac444dc",
                    "callData": "0x0000000000000000000000000000000000000000000000004563918244f40000",
                    "decodedMethod": {
                        "callParams": [
                            {
                                "name": "redeemAmount",
                                "type": "uint256",
                                "value": "5,000,000,000,000,000,000"
                            }
                        ],
                        "constructorArguments": "",
                        "name": "redeemUnderlying",
                        "returnParams": [
                            {
                                "name": "",
                                "type": "uint256",
                                "value": "0"
                            }
                        ],
                        "signature": "redeemUnderlying(uint256)"
                    },
                    "errorInfo": "",
                    "fromAddress": "0xec8e446c52f2d4ac9048aff1813c636ac8334fc9",
                    "gasUsed": 389602,
                    "id": 0,
                    "methodDecoded": true,
                    "operation": "CALL",
                    "output": "0x0000000000000000000000000000000000000000000000000000000000000000",
                    "revert": false,
                    "revertMessage": "",
                    "selector": "0x852a12e3",
                    "status": true,
                    "value": "0"
                },
                "nodeType": 0
            },
            "1": {
                "invocation": {
                    "address": "0x89d24a6b4ccb1b6faa2625fe562bdd9a23260359",
                    "callData": "0x000000000000000000000000f5dce57282a584d2746faf1593d3121fcac444dc",
                    "decodedMethod": {
                        "callParams": [
                            {
                                "name": "src",
                                "type": "address",
                                "value": "0xf5dce57282a584d2746faf1593d3121fcac444dc"
                            }
                        ],
                        "constructorArguments": "",
                        "name": "balanceOf",
                        "returnParams": [
                            {
                                "decimalAvailable": true,
                                "name": "",
                                "type": "uint256",
                                "value": "1,202,142,331,972,767,837,855,355"
                            }
                        ],
                        "signature": "balanceOf(address)"
                    },
                    "errorInfo": "",
                    "fromAddress": "0xf5dce57282a584d2746faf1593d3121fcac444dc",
                    "gasUsed": 1415,
                    "id": 1,
                    "methodDecoded": true,
                    "operation": "STATICCALL",
                    "output": "0x00000000000000000000000000000000000000000000fe904432aa2f5acc1e7b",
                    "revert": false,
                    "revertMessage": "",
                    "selector": "0x70a08231",
                    "status": true,
                    "value": "0"
                },
                "nodeType": 0
            },
            "10": {
                "invocation": {
                    "address": "0x3d9819210a31b4961b30ef54be2aed79b9c9cd3b",
                    "callData": "0x0000000000000000000000006c8c6b02e7b2be14d4fa6022dfd6d75921d90e4e",
                    "decodedMethod": {
                        "callParams": [
                            {
                                "name": "",
                                "type": "address",
                                "value": "0x6c8c6b02e7b2be14d4fa6022dfd6d75921d90e4e"
                            }
                        ],
                        "constructorArguments": "",
                        "name": "markets",
                        "returnParams": [
                            {
                                "name": "isListed",
                                "type": "bool",
                                "value": true
                            },
                            {
                                "name": "collateralFactorMantissa",
                                "type": "uint256",
                                "value": "600,000,000,000,000,000"
                            }
                        ],
                        "signature": "markets(address)"
                    },
                    "errorInfo": "",
                    "fromAddress": "0x1d8aedc9e924730dd3f9641cdb4d1b92b848b4bd",
                    "gasUsed": 4035,
                    "id": 10,
                    "methodDecoded": true,
                    "operation": "STATICCALL",
                    "output": "0x00000000000000000000000000000000000000000000000000000000000000010000000000000000000000000000000000000000000000000853a0d2313c0000",
                    "revert": false,
                    "revertMessage": "",
                    "selector": "0x8e8f294b",
                    "status": true,
                    "value": "0"
                },
                "nodeType": 0
            },
            "11": {
                "invocation": {
                    "address": "0xf592ef673057a451c49c9433e278c5d59b56132c",
                    "callData": "0x0000000000000000000000006c8c6b02e7b2be14d4fa6022dfd6d75921d90e4e",
                    "decodedMethod": {
                        "callParams": [
                            {
                                "name": "",
                                "type": "address",
                                "value": "0x6c8c6b02e7b2be14d4fa6022dfd6d75921d90e4e"
                            }
                        ],
                        "constructorArguments": "",
                        "name": "markets",
                        "returnParams": [
                            {
                                "name": "isListed",
                                "type": "bool",
                                "value": true
                            },
                            {
                                "name": "collateralFactorMantissa",
                                "type": "uint256",
                                "value": "600,000,000,000,000,000"
                            }
                        ],
                        "signature": "markets(address)"
                    },
                    "errorInfo": "",
                    "fromAddress": "0x3d9819210a31b4961b30ef54be2aed79b9c9cd3b",
                    "gasUsed": 2052,
                    "id": 11,
                    "methodDecoded": true,
                    "operation": "DELEGATECALL",
                    "output": "0x00000000000000000000000000000000000000000000000000000000000000010000000000000000000000000000000000000000000000000853a0d2313c0000",
                    "revert": false,
                    "revertMessage": "",
                    "selector": "0x8e8f294b",
                    "status": true,
                    "value": "0"
                },
                "nodeType": 0
            },
            "12": {
                "invocation": {
                    "address": "0x6c8c6b02e7b2be14d4fa6022dfd6d75921d90e4e",
                    "callData": "0x",
                    "decodedMethod": {
                        "callParams": [],
                        "constructorArguments": "",
                        "name": "underlying",
                        "returnParams": [
                            {
                                "name": "",
                                "type": "address",
                                "value": "0x0d8775f648430679a709e98d2b0cb6250d2887ef"
                            }
                        ],
                        "signature": "underlying()"
                    },
                    "errorInfo": "",
                    "fromAddress": "0x1d8aedc9e924730dd3f9641cdb4d1b92b848b4bd",
                    "gasUsed": 1126,
                    "id": 12,
                    "methodDecoded": true,
                    "operation": "STATICCALL",
                    "output": "0x0000000000000000000000000d8775f648430679a709e98d2b0cb6250d2887ef",
                    "revert": false,
                    "revertMessage": "",
                    "selector": "0x6f307dc3",
                    "status": true,
                    "value": "0"
                },
                "nodeType": 0
            },
            "13": {
                "invocation": {
                    "address": "0x02557a5e05defeffd4cae6d83ea3d173b272c904",
                    "callData": "0x0000000000000000000000000d8775f648430679a709e98d2b0cb6250d2887ef",
                    "decodedMethod": {
                        "callParams": [
                            {
                                "name": "asset",
                                "type": "address",
                                "value": "0x0d8775f648430679a709e98d2b0cb6250d2887ef"
                            }
                        ],
                        "constructorArguments": "",
                        "name": "assetPrices",
                        "returnParams": [
                            {
                                "name": "",
                                "type": "uint256",
                                "value": "940,397,500,000,000"
                            }
                        ],
                        "signature": "assetPrices(address)"
                    },
                    "errorInfo": "",
                    "fromAddress": "0x1d8aedc9e924730dd3f9641cdb4d1b92b848b4bd",
                    "gasUsed": 3344,
                    "id": 13,
                    "methodDecoded": true,
                    "operation": "STATICCALL",
                    "output": "0x000000000000000000000000000000000000000000000000000357495aef6700",
                    "revert": false,
                    "revertMessage": "",
                    "selector": "0x5e9a523c",
                    "status": true,
                    "value": "0"
                },
                "nodeType": 0
            },
            "14": {
                "invocation": {
                    "address": "0xf5dce57282a584d2746faf1593d3121fcac444dc",
                    "callData": "0x000000000000000000000000ec8e446c52f2d4ac9048aff1813c636ac8334fc9",
                    "decodedMethod": {
                        "callParams": [
                            {
                                "name": "account",
                                "type": "address",
                                "value": "0xec8e446c52f2d4ac9048aff1813c636ac8334fc9"
                            }
                        ],
                        "constructorArguments": "",
                        "name": "getAccountSnapshot",
                        "returnParams": [
                            {
                                "name": "",
                                "type": "uint256",
                                "value": "0"
                            },
                            {
                                "name": "",
                                "type": "uint256",
                                "value": "7,795,607,780,884"
                            },
                            {
                                "name": "",
                                "type": "uint256",
                                "value": "0"
                            },
                            {
                                "name": "",
                                "type": "uint256",
                                "value": "212,938,998,271,887,257,973,527,183"
                            }
                        ],
                        "signature": "getAccountSnapshot(address)"
                    },
                    "errorInfo": "",
                    "fromAddress": "0x3d9819210a31b4961b30ef54be2aed79b9c9cd3b",
                    "gasUsed": 10732,
                    "id": 14,
                    "methodDecoded": true,
                    "operation": "STATICCALL",
                    "output": "0x0000000000000000000000000000000000000000000000000000000000000000000000000000000000000000000000000000000000000000000007170e6ebe140000000000000000000000000000000000000000000000000000000000000000000000000000000000000000000000000000000000b023963a069c2ee08f928f",
                    "revert": false,
                    "revertMessage": "",
                    "selector": "0xc37f68e2",
                    "status": true,
                    "value": "0"
                },
                "nodeType": 0
            },
            "15": {
                "invocation": {
                    "address": "0x89d24a6b4ccb1b6faa2625fe562bdd9a23260359",
                    "callData": "0x000000000000000000000000f5dce57282a584d2746faf1593d3121fcac444dc",
                    "decodedMethod": {
                        "callParams": [
                            {
                                "name": "src",
                                "type": "address",
                                "value": "0xf5dce57282a584d2746faf1593d3121fcac444dc"
                            }
                        ],
                        "constructorArguments": "",
                        "name": "balanceOf",
                        "returnParams": [
                            {
                                "decimalAvailable": true,
                                "name": "",
                                "type": "uint256",
                                "value": "1,202,142,331,972,767,837,855,355"
                            }
                        ],
                        "signature": "balanceOf(address)"
                    },
                    "errorInfo": "",
                    "fromAddress": "0xf5dce57282a584d2746faf1593d3121fcac444dc",
                    "gasUsed": 1415,
                    "id": 15,
                    "methodDecoded": true,
                    "operation": "STATICCALL",
                    "output": "0x00000000000000000000000000000000000000000000fe904432aa2f5acc1e7b",
                    "revert": false,
                    "revertMessage": "",
                    "selector": "0x70a08231",
                    "status": true,
                    "value": "0"
                },
                "nodeType": 0
            },
            "16": {
                "invocation": {
                    "address": "0x1d8aedc9e924730dd3f9641cdb4d1b92b848b4bd",
                    "callData": "0x000000000000000000000000f5dce57282a584d2746faf1593d3121fcac444dc",
                    "decodedMethod": {
                        "callParams": [
                            {
                                "name": "cToken",
                                "type": "address",
                                "value": "0xf5dce57282a584d2746faf1593d3121fcac444dc"
                            }
                        ],
                        "constructorArguments": "",
                        "name": "getUnderlyingPrice",
                        "returnParams": [
                            {
                                "name": "",
                                "type": "uint256",
                                "value": "4,974,123,613,617,639"
                            }
                        ],
                        "signature": "getUnderlyingPrice(address)"
                    },
                    "errorInfo": "",
                    "fromAddress": "0x3d9819210a31b4961b30ef54be2aed79b9c9cd3b",
                    "gasUsed": 32887,
                    "id": 16,
                    "methodDecoded": true,
                    "operation": "STATICCALL",
                    "output": "0x0000000000000000000000000000000000000000000000000011abf0670efde7",
                    "revert": false,
                    "revertMessage": "",
                    "selector": "0xfc57d4df",
                    "status": true,
                    "value": "0"
                },
                "nodeType": 0
            },
            "17": {
                "invocation": {
                    "address": "0x3d9819210a31b4961b30ef54be2aed79b9c9cd3b",
                    "callData": "0x000000000000000000000000f5dce57282a584d2746faf1593d3121fcac444dc",
                    "decodedMethod": {
                        "callParams": [
                            {
                                "name": "",
                                "type": "address",
                                "value": "0xf5dce57282a584d2746faf1593d3121fcac444dc"
                            }
                        ],
                        "constructorArguments": "",
                        "name": "markets",
                        "returnParams": [
                            {
                                "name": "isListed",
                                "type": "bool",
                                "value": true
                            },
                            {
                                "name": "collateralFactorMantissa",
                                "type": "uint256",
                                "value": "750,000,000,000,000,000"
                            }
                        ],
                        "signature": "markets(address)"
                    },
                    "errorInfo": "",
                    "fromAddress": "0x1d8aedc9e924730dd3f9641cdb4d1b92b848b4bd",
                    "gasUsed": 4035,
                    "id": 17,
                    "methodDecoded": true,
                    "operation": "STATICCALL",
                    "output": "0x00000000000000000000000000000000000000000000000000000000000000010000000000000000000000000000000000000000000000000a688906bd8b0000",
                    "revert": false,
                    "revertMessage": "",
                    "selector": "0x8e8f294b",
                    "status": true,
                    "value": "0"
                },
                "nodeType": 0
            },
            "18": {
                "invocation": {
                    "address": "0xf592ef673057a451c49c9433e278c5d59b56132c",
                    "callData": "0x000000000000000000000000f5dce57282a584d2746faf1593d3121fcac444dc",
                    "decodedMethod": {
                        "callParams": [
                            {
                                "name": "",
                                "type": "address",
                                "value": "0xf5dce57282a584d2746faf1593d3121fcac444dc"
                            }
                        ],
                        "constructorArguments": "",
                        "name": "markets",
                        "returnParams": [
                            {
                                "name": "isListed",
                                "type": "bool",
                                "value": true
                            },
                            {
                                "name": "collateralFactorMantissa",
                                "type": "uint256",
                                "value": "750,000,000,000,000,000"
                            }
                        ],
                        "signature": "markets(address)"
                    },
                    "errorInfo": "",
                    "fromAddress": "0x3d9819210a31b4961b30ef54be2aed79b9c9cd3b",
                    "gasUsed": 2052,
                    "id": 18,
                    "methodDecoded": true,
                    "operation": "DELEGATECALL",
                    "output": "0x00000000000000000000000000000000000000000000000000000000000000010000000000000000000000000000000000000000000000000a688906bd8b0000",
                    "revert": false,
                    "revertMessage": "",
                    "selector": "0x8e8f294b",
                    "status": true,
                    "value": "0"
                },
                "nodeType": 0
            },
            "19": {
                "invocation": {
                    "address": "0x02557a5e05defeffd4cae6d83ea3d173b272c904",
                    "callData": "0x00000000000000000000000089d24a6b4ccb1b6faa2625fe562bdd9a23260359",
                    "decodedMethod": {
                        "callParams": [
                            {
                                "name": "asset",
                                "type": "address",
                                "value": "0x89d24a6b4ccb1b6faa2625fe562bdd9a23260359"
                            }
                        ],
                        "constructorArguments": "",
                        "name": "assetPrices",
                        "returnParams": [
                            {
                                "name": "",
                                "type": "uint256",
                                "value": "4,954,419,342,053,111"
                            }
                        ],
                        "signature": "assetPrices(address)"
                    },
                    "errorInfo": "",
                    "fromAddress": "0x1d8aedc9e924730dd3f9641cdb4d1b92b848b4bd",
                    "gasUsed": 7800,
                    "id": 19,
                    "methodDecoded": true,
                    "operation": "STATICCALL",
                    "output": "0x00000000000000000000000000000000000000000000000000119a04a4f38ef7",
                    "revert": false,
                    "revertMessage": "",
                    "selector": "0x5e9a523c",
                    "status": true,
                    "value": "0"
                },
                "nodeType": 0
            },
            "2": {
                "invocation": {
                    "address": "0xa1046abfc2598f48c44fb320d281d3f3c0733c9a",
                    "callData": "0x00000000000000000000000000000000000000000000fe904432aa2f5acc1e7b00000000000000000000000000000000000000000000876f13980074d8bb63e00000000000000000000000000000000000000000000005cc762d7ea849a9af74",
                    "decodedMethod": {
                        "callParams": [
                            {
                                "name": "cash",
                                "type": "uint256",
                                "value": "1,202,142,331,972,767,837,855,355"
                            },
                            {
                                "name": "borrows",
                                "type": "uint256",
                                "value": "639,568,475,658,568,897,094,624"
                            },
                            {
                                "name": "_reserves",
                                "type": "uint256",
                                "value": "27,383,483,807,116,657,536,884"
                            }
                        ],
                        "constructorArguments": "",
                        "name": "getBorrowRate",
                        "returnParams": [
                            {
                                "name": "",
                                "type": "uint256",
                                "value": "0"
                            },
                            {
                                "name": "",
                                "type": "uint256",
                                "value": "43,603,615,508"
                            }
                        ],
                        "signature": "getBorrowRate(uint256,uint256,uint256)"
                    },
                    "errorInfo": "",
                    "fromAddress": "0xf5dce57282a584d2746faf1593d3121fcac444dc",
                    "gasUsed": 5403,
                    "id": 2,
                    "methodDecoded": true,
                    "operation": "STATICCALL",
                    "output": "0x00000000000000000000000000000000000000000000000000000000000000000000000000000000000000000000000000000000000000000000000a26fa5f14",
                    "revert": false,
                    "revertMessage": "",
                    "selector": "0x15f24053",
                    "status": true,
                    "value": "0"
                },
                "nodeType": 0
            },
            "20": {
                "invocation": {
                    "address": "0x729d19f657bd0614b4985cf1d82531c67569197b",
                    "callData": "0x",
                    "decodedMethod": {
                        "callParams": [],
                        "constructorArguments": "",
                        "name": "peek",
                        "returnParams": [
                            {
                                "name": "",
                                "type": "bytes32",
                                "value": "0x00000000000000000000000000000000000000000000000af117ba9b18d80000"
                            },
                            {
                                "name": "",
                                "type": "bool",
                                "value": true
                            }
                        ],
                        "signature": "peek()"
                    },
                    "errorInfo": "",
                    "fromAddress": "0x02557a5e05defeffd4cae6d83ea3d173b272c904",
                    "gasUsed": 2145,
                    "id": 20,
                    "methodDecoded": true,
                    "operation": "CALL",
                    "output": "0x00000000000000000000000000000000000000000000000af117ba9b18d800000000000000000000000000000000000000000000000000000000000000000001",
                    "revert": false,
                    "revertMessage": "",
                    "selector": "0x59e02dd7",
                    "status": true,
                    "value": "0"
                },
                "nodeType": 0
            },
            "21": {
                "invocation": {
                    "address": "0x02557a5e05defeffd4cae6d83ea3d173b272c904",
                    "callData": "0x0000000000000000000000000000000000000000000000000000000000000001",
                    "decodedMethod": {
                        "callParams": [
                            {
                                "name": "asset",
                                "type": "address",
                                "value": "0x0000000000000000000000000000000000000001"
                            }
                        ],
                        "constructorArguments": "",
                        "name": "assetPrices",
                        "returnParams": [
                            {
                                "name": "",
                                "type": "uint256",
                                "value": "4,984,771,261,040,103,000,000,000,000"
                            }
                        ],
                        "signature": "assetPrices(address)"
                    },
                    "errorInfo": "",
                    "fromAddress": "0x1d8aedc9e924730dd3f9641cdb4d1b92b848b4bd",
                    "gasUsed": 3344,
                    "id": 21,
                    "methodDecoded": true,
                    "operation": "STATICCALL",
                    "output": "0x0000000000000000000000000000000000000000101b4e5f8734cbe4ea417000",
                    "revert": false,
                    "revertMessage": "",
                    "selector": "0x5e9a523c",
                    "status": true,
                    "value": "0"
                },
                "nodeType": 0
            },
            "22": {
                "invocation": {
                    "address": "0x02557a5e05defeffd4cae6d83ea3d173b272c904",
                    "callData": "0x0000000000000000000000000000000000000000000000000000000000000002",
                    "decodedMethod": {
                        "callParams": [
                            {
                                "name": "asset",
                                "type": "address",
                                "value": "0x0000000000000000000000000000000000000002"
                            }
                        ],
                        "constructorArguments": "",
                        "name": "assetPrices",
                        "returnParams": [
                            {
                                "name": "",
                                "type": "uint256",
                                "value": "5,004,596,245,530,392"
                            }
                        ],
                        "signature": "assetPrices(address)"
                    },
                    "errorInfo": "",
                    "fromAddress": "0x1d8aedc9e924730dd3f9641cdb4d1b92b848b4bd",
                    "gasUsed": 3344,
                    "id": 22,
                    "methodDecoded": true,
                    "operation": "STATICCALL",
                    "output": "0x0000000000000000000000000000000000000000000000000011c7a75d758718",
                    "revert": false,
                    "revertMessage": "",
                    "selector": "0x5e9a523c",
                    "status": true,
                    "value": "0"
                },
                "nodeType": 0
            },
            "23": {
                "invocation": {
                    "address": "0x4ddc2d193948926d02f9b1fe9e1daa0718270ed5",
                    "callData": "0x000000000000000000000000ec8e446c52f2d4ac9048aff1813c636ac8334fc9",
                    "decodedMethod": {
                        "callParams": [
                            {
                                "name": "account",
                                "type": "address",
                                "value": "0xec8e446c52f2d4ac9048aff1813c636ac8334fc9"
                            }
                        ],
                        "constructorArguments": "",
                        "name": "getAccountSnapshot",
                        "returnParams": [
                            {
                                "name": "",
                                "type": "uint256",
                                "value": "0"
                            },
                            {
                                "name": "",
                                "type": "uint256",
                                "value": "10,475,989,358"
                            },
                            {
                                "name": "",
                                "type": "uint256",
                                "value": "0"
                            },
                            {
                                "name": "",
                                "type": "uint256",
                                "value": "200,114,900,830,960,663,041,433,649"
                            }
                        ],
                        "signature": "getAccountSnapshot(address)"
                    },
                    "errorInfo": "",
                    "fromAddress": "0x3d9819210a31b4961b30ef54be2aed79b9c9cd3b",
                    "gasUsed": 7747,
                    "id": 23,
                    "methodDecoded": true,
                    "operation": "STATICCALL",
                    "output": "0x000000000000000000000000000000000000000000000000000000000000000000000000000000000000000000000000000000000000000000000002706ae96e0000000000000000000000000000000000000000000000000000000000000000000000000000000000000000000000000000000000a587fa82e9f5ad6db86031",
                    "revert": false,
                    "revertMessage": "",
                    "selector": "0xc37f68e2",
                    "status": true,
                    "value": "0"
                },
                "nodeType": 0
            },
            "24": {
                "invocation": {
                    "address": "0x1d8aedc9e924730dd3f9641cdb4d1b92b848b4bd",
                    "callData": "0x0000000000000000000000004ddc2d193948926d02f9b1fe9e1daa0718270ed5",
                    "decodedMethod": {
                        "callParams": [
                            {
                                "name": "cToken",
                                "type": "address",
                                "value": "0x4ddc2d193948926d02f9b1fe9e1daa0718270ed5"
                            }
                        ],
                        "constructorArguments": "",
                        "name": "getUnderlyingPrice",
                        "returnParams": [
                            {
                                "name": "",
                                "type": "uint256",
                                "value": "1,000,000,000,000,000,000"
                            }
                        ],
                        "signature": "getUnderlyingPrice(address)"
                    },
                    "errorInfo": "",
                    "fromAddress": "0x3d9819210a31b4961b30ef54be2aed79b9c9cd3b",
                    "gasUsed": 7684,
                    "id": 24,
                    "methodDecoded": true,
                    "operation": "STATICCALL",
                    "output": "0x0000000000000000000000000000000000000000000000000de0b6b3a7640000",
                    "revert": false,
                    "revertMessage": "",
                    "selector": "0xfc57d4df",
                    "status": true,
                    "value": "0"
                },
                "nodeType": 0
            },
            "25": {
                "invocation": {
                    "address": "0x3d9819210a31b4961b30ef54be2aed79b9c9cd3b",
                    "callData": "0x0000000000000000000000004ddc2d193948926d02f9b1fe9e1daa0718270ed5",
                    "decodedMethod": {
                        "callParams": [
                            {
                                "name": "",
                                "type": "address",
                                "value": "0x4ddc2d193948926d02f9b1fe9e1daa0718270ed5"
                            }
                        ],
                        "constructorArguments": "",
                        "name": "markets",
                        "returnParams": [
                            {
                                "name": "isListed",
                                "type": "bool",
                                "value": true
                            },
                            {
                                "name": "collateralFactorMantissa",
                                "type": "uint256",
                                "value": "750,000,000,000,000,000"
                            }
                        ],
                        "signature": "markets(address)"
                    },
                    "errorInfo": "",
                    "fromAddress": "0x1d8aedc9e924730dd3f9641cdb4d1b92b848b4bd",
                    "gasUsed": 4035,
                    "id": 25,
                    "methodDecoded": true,
                    "operation": "STATICCALL",
                    "output": "0x00000000000000000000000000000000000000000000000000000000000000010000000000000000000000000000000000000000000000000a688906bd8b0000",
                    "revert": false,
                    "revertMessage": "",
                    "selector": "0x8e8f294b",
                    "status": true,
                    "value": "0"
                },
                "nodeType": 0
            },
            "26": {
                "invocation": {
                    "address": "0xf592ef673057a451c49c9433e278c5d59b56132c",
                    "callData": "0x0000000000000000000000004ddc2d193948926d02f9b1fe9e1daa0718270ed5",
                    "decodedMethod": {
                        "callParams": [
                            {
                                "name": "",
                                "type": "address",
                                "value": "0x4ddc2d193948926d02f9b1fe9e1daa0718270ed5"
                            }
                        ],
                        "constructorArguments": "",
                        "name": "markets",
                        "returnParams": [
                            {
                                "name": "isListed",
                                "type": "bool",
                                "value": true
                            },
                            {
                                "name": "collateralFactorMantissa",
                                "type": "uint256",
                                "value": "750,000,000,000,000,000"
                            }
                        ],
                        "signature": "markets(address)"
                    },
                    "errorInfo": "",
                    "fromAddress": "0x3d9819210a31b4961b30ef54be2aed79b9c9cd3b",
                    "gasUsed": 2052,
                    "id": 26,
                    "methodDecoded": true,
                    "operation": "DELEGATECALL",
                    "output": "0x00000000000000000000000000000000000000000000000000000000000000010000000000000000000000000000000000000000000000000a688906bd8b0000",
                    "revert": false,
                    "revertMessage": "",
                    "selector": "0x8e8f294b",
                    "status": true,
                    "value": "0"
                },
                "nodeType": 0
            },
            "27": {
                "invocation": {
                    "address": "0x158079ee67fce2f58472a96584a73c7ab9ac95c1",
                    "callData": "0x000000000000000000000000ec8e446c52f2d4ac9048aff1813c636ac8334fc9",
                    "decodedMethod": {
                        "callParams": [
                            {
                                "name": "account",
                                "type": "address",
                                "value": "0xec8e446c52f2d4ac9048aff1813c636ac8334fc9"
                            }
                        ],
                        "constructorArguments": "",
                        "name": "getAccountSnapshot",
                        "returnParams": [
                            {
                                "name": "",
                                "type": "uint256",
                                "value": "0"
                            },
                            {
                                "name": "",
                                "type": "uint256",
                                "value": "0"
                            },
                            {
                                "name": "",
                                "type": "uint256",
                                "value": "626,877,760,913,337,616"
                            },
                            {
                                "name": "",
                                "type": "uint256",
                                "value": "200,360,770,439,154,151,964,838,972"
                            }
                        ],
                        "signature": "getAccountSnapshot(address)"
                    },
                    "errorInfo": "",
                    "fromAddress": "0x3d9819210a31b4961b30ef54be2aed79b9c9cd3b",
                    "gasUsed": 20132,
                    "id": 27,
                    "methodDecoded": true,
                    "operation": "STATICCALL",
                    "output": "0x0000000000000000000000000000000000000000000000000000000000000000000000000000000000000000000000000000000000000000000000000000000000000000000000000000000000000000000000000000000008b31e0090d4ed10000000000000000000000000000000000000000000a5bc0b212a30a431488c3c",
                    "revert": false,
                    "revertMessage": "",
                    "selector": "0xc37f68e2",
                    "status": true,
                    "value": "0"
                },
                "nodeType": 0
            },
            "28": {
                "invocation": {
                    "address": "0x1985365e9f78359a9b6ad760e32412f4a445e862",
                    "callData": "0x000000000000000000000000158079ee67fce2f58472a96584a73c7ab9ac95c1",
                    "decodedMethod": {
                        "callParams": [
                            {
                                "name": "account",
                                "type": "address",
                                "value": "0x158079ee67fce2f58472a96584a73c7ab9ac95c1"
                            }
                        ],
                        "constructorArguments": "",
                        "name": "balanceOf",
                        "returnParams": [
                            {
                                "decimalAvailable": true,
                                "name": "",
                                "type": "uint256",
                                "value": "993,846,652,127,034,327,542,891"
                            }
                        ],
                        "signature": "balanceOf(address)"
                    },
                    "errorInfo": "",
                    "fromAddress": "0x158079ee67fce2f58472a96584a73c7ab9ac95c1",
                    "gasUsed": 8040,
                    "id": 28,
                    "methodDecoded": true,
                    "operation": "STATICCALL",
                    "output": "0x00000000000000000000000000000000000000000000d27488f3a44cdc9dac6b",
                    "revert": false,
                    "revertMessage": "",
                    "selector": "0x70a08231",
                    "status": true,
                    "value": "0"
                },
                "nodeType": 0
            },
            "29": {
                "invocation": {
                    "address": "0xb3337164e91b9f05c87c7662c7ac684e8e0ff3e7",
                    "callData": "0x52657075746174696f6e546f6b656e0000000000000000000000000000000000",
                    "decodedMethod": {
                        "callParams": [
                            {
                                "name": "_key",
                                "type": "bytes32",
                                "value": "0x52657075746174696f6e546f6b656e0000000000000000000000000000000000"
                            }
                        ],
                        "constructorArguments": "",
                        "name": "lookup",
                        "returnParams": [
                            {
                                "name": "",
                                "type": "address",
                                "value": "0x6c114b96b7a0e679c2594e3884f11526797e43d1"
                            }
                        ],
                        "signature": "lookup(bytes32)"
                    },
                    "errorInfo": "",
                    "fromAddress": "0x1985365e9f78359a9b6ad760e32412f4a445e862",
                    "gasUsed": 1534,
                    "id": 29,
                    "methodDecoded": true,
                    "operation": "CALL",
                    "output": "0x0000000000000000000000006c114b96b7a0e679c2594e3884f11526797e43d1",
                    "revert": false,
                    "revertMessage": "",
                    "selector": "0xf39ec1f7",
                    "status": true,
                    "value": "0"
                },
                "nodeType": 0
            },
            "3": {
                "event": {
                    "contract": "0xf5dce57282a584d2746faf1593d3121fcac444dc",
                    "decodedLog": {
                        "name": "AccrueInterest",
                        "params": [
                            {
                                "name": "interestAccumulated",
                                "type": "uint256",
                                "value": "3,011,849,773,594,620,689"
                            },
                            {
                                "name": "borrowIndex",
                                "type": "uint256",
                                "value": "1,118,412,192,849,981,025"
                            },
                            {
                                "name": "totalBorrows",
                                "type": "uint256",
                                "value": "639,571,487,508,342,491,715,313"
                            }
                        ],
                        "signature": "AccrueInterest(uint256,uint256,uint256)"
                    },
                    "id": 3,
                    "logData": "0x00000000000000000000000000000000000000000000000029cc3d695ff2b3110000000000000000000000000000000000000000000000000f8565f6bb49ee6100000000000000000000000000000000000000000000876f3d643dde38ae16f1",
                    "logDecoded": true,
                    "operation": "EVENT",
                    "revert": false,
                    "status": true,
                    "topics": [
                        "0x875352fb3fadeb8c0be7cbbe8ff761b308fa7033470cd0287f02f3436fd76cb9"
                    ]
                },
                "nodeType": 1
            },
            "30": {
                "invocation": {
                    "address": "0x6c114b96b7a0e679c2594e3884f11526797e43d1",
                    "callData": "0x000000000000000000000000158079ee67fce2f58472a96584a73c7ab9ac95c1",
                    "decodedMethod": {
                        "callParams": [
                            {
                                "name": "_owner",
                                "type": "address",
                                "value": "0x158079ee67fce2f58472a96584a73c7ab9ac95c1"
                            }
                        ],
                        "constructorArguments": "",
                        "name": "balanceOf",
                        "returnParams": [
                            {
                                "decimalAvailable": true,
                                "name": "",
                                "type": "uint256",
                                "value": "993,846,652,127,034,327,542,891"
                            }
                        ],
                        "signature": "balanceOf(address)"
                    },
                    "errorInfo": "",
                    "fromAddress": "0x1985365e9f78359a9b6ad760e32412f4a445e862",
                    "gasUsed": 1500,
                    "id": 30,
                    "methodDecoded": true,
                    "operation": "DELEGATECALL",
                    "output": "0x00000000000000000000000000000000000000000000d27488f3a44cdc9dac6b",
                    "revert": false,
                    "revertMessage": "",
                    "selector": "0x70a08231",
                    "status": true,
                    "value": "0"
                },
                "nodeType": 0
            },
            "31": {
                "invocation": {
                    "address": "0x1d8aedc9e924730dd3f9641cdb4d1b92b848b4bd",
                    "callData": "0x000000000000000000000000158079ee67fce2f58472a96584a73c7ab9ac95c1",
                    "decodedMethod": {
                        "callParams": [
                            {
                                "name": "cToken",
                                "type": "address",
                                "value": "0x158079ee67fce2f58472a96584a73c7ab9ac95c1"
                            }
                        ],
                        "constructorArguments": "",
                        "name": "getUnderlyingPrice",
                        "returnParams": [
                            {
                                "name": "",
                                "type": "uint256",
                                "value": "55,327,891,666,666,660"
                            }
                        ],
                        "signature": "getUnderlyingPrice(address)"
                    },
                    "errorInfo": "",
                    "fromAddress": "0x3d9819210a31b4961b30ef54be2aed79b9c9cd3b",
                    "gasUsed": 18728,
                    "id": 31,
                    "methodDecoded": true,
                    "operation": "STATICCALL",
                    "output": "0x00000000000000000000000000000000000000000000000000c4906ca0f684a4",
                    "revert": false,
                    "revertMessage": "",
                    "selector": "0xfc57d4df",
                    "status": true,
                    "value": "0"
                },
                "nodeType": 0
            },
            "32": {
                "invocation": {
                    "address": "0x3d9819210a31b4961b30ef54be2aed79b9c9cd3b",
                    "callData": "0x000000000000000000000000158079ee67fce2f58472a96584a73c7ab9ac95c1",
                    "decodedMethod": {
                        "callParams": [
                            {
                                "name": "",
                                "type": "address",
                                "value": "0x158079ee67fce2f58472a96584a73c7ab9ac95c1"
                            }
                        ],
                        "constructorArguments": "",
                        "name": "markets",
                        "returnParams": [
                            {
                                "name": "isListed",
                                "type": "bool",
                                "value": true
                            },
                            {
                                "name": "collateralFactorMantissa",
                                "type": "uint256",
                                "value": "400,000,000,000,000,000"
                            }
                        ],
                        "signature": "markets(address)"
                    },
                    "errorInfo": "",
                    "fromAddress": "0x1d8aedc9e924730dd3f9641cdb4d1b92b848b4bd",
                    "gasUsed": 4035,
                    "id": 32,
                    "methodDecoded": true,
                    "operation": "STATICCALL",
                    "output": "0x0000000000000000000000000000000000000000000000000000000000000001000000000000000000000000000000000000000000000000058d15e176280000",
                    "revert": false,
                    "revertMessage": "",
                    "selector": "0x8e8f294b",
                    "status": true,
                    "value": "0"
                },
                "nodeType": 0
            },
            "33": {
                "invocation": {
                    "address": "0xf592ef673057a451c49c9433e278c5d59b56132c",
                    "callData": "0x000000000000000000000000158079ee67fce2f58472a96584a73c7ab9ac95c1",
                    "decodedMethod": {
                        "callParams": [
                            {
                                "name": "",
                                "type": "address",
                                "value": "0x158079ee67fce2f58472a96584a73c7ab9ac95c1"
                            }
                        ],
                        "constructorArguments": "",
                        "name": "markets",
                        "returnParams": [
                            {
                                "name": "isListed",
                                "type": "bool",
                                "value": true
                            },
                            {
                                "name": "collateralFactorMantissa",
                                "type": "uint256",
                                "value": "400,000,000,000,000,000"
                            }
                        ],
                        "signature": "markets(address)"
                    },
                    "errorInfo": "",
                    "fromAddress": "0x3d9819210a31b4961b30ef54be2aed79b9c9cd3b",
                    "gasUsed": 2052,
                    "id": 33,
                    "methodDecoded": true,
                    "operation": "DELEGATECALL",
                    "output": "0x0000000000000000000000000000000000000000000000000000000000000001000000000000000000000000000000000000000000000000058d15e176280000",
                    "revert": false,
                    "revertMessage": "",
                    "selector": "0x8e8f294b",
                    "status": true,
                    "value": "0"
                },
                "nodeType": 0
            },
            "34": {
                "invocation": {
                    "address": "0x158079ee67fce2f58472a96584a73c7ab9ac95c1",
                    "callData": "0x",
                    "decodedMethod": {
                        "callParams": [],
                        "constructorArguments": "",
                        "name": "underlying",
                        "returnParams": [
                            {
                                "name": "",
                                "type": "address",
                                "value": "0x1985365e9f78359a9b6ad760e32412f4a445e862"
                            }
                        ],
                        "signature": "underlying()"
                    },
                    "errorInfo": "",
                    "fromAddress": "0x1d8aedc9e924730dd3f9641cdb4d1b92b848b4bd",
                    "gasUsed": 1126,
                    "id": 34,
                    "methodDecoded": true,
                    "operation": "STATICCALL",
                    "output": "0x0000000000000000000000001985365e9f78359a9b6ad760e32412f4a445e862",
                    "revert": false,
                    "revertMessage": "",
                    "selector": "0x6f307dc3",
                    "status": true,
                    "value": "0"
                },
                "nodeType": 0
            },
            "35": {
                "invocation": {
                    "address": "0x02557a5e05defeffd4cae6d83ea3d173b272c904",
                    "callData": "0x0000000000000000000000001985365e9f78359a9b6ad760e32412f4a445e862",
                    "decodedMethod": {
                        "callParams": [
                            {
                                "name": "asset",
                                "type": "address",
                                "value": "0x1985365e9f78359a9b6ad760e32412f4a445e862"
                            }
                        ],
                        "constructorArguments": "",
                        "name": "assetPrices",
                        "returnParams": [
                            {
                                "name": "",
                                "type": "uint256",
                                "value": "55,327,891,666,666,660"
                            }
                        ],
                        "signature": "assetPrices(address)"
                    },
                    "errorInfo": "",
                    "fromAddress": "0x1d8aedc9e924730dd3f9641cdb4d1b92b848b4bd",
                    "gasUsed": 3344,
                    "id": 35,
                    "methodDecoded": true,
                    "operation": "STATICCALL",
                    "output": "0x00000000000000000000000000000000000000000000000000c4906ca0f684a4",
                    "revert": false,
                    "revertMessage": "",
                    "selector": "0x5e9a523c",
                    "status": true,
                    "value": "0"
                },
                "nodeType": 0
            },
            "36": {
                "invocation": {
                    "address": "0x39aa39c021dfbae8fac545936693ac917d5e7563",
                    "callData": "0x000000000000000000000000ec8e446c52f2d4ac9048aff1813c636ac8334fc9",
                    "decodedMethod": {
                        "callParams": [
                            {
                                "name": "account",
                                "type": "address",
                                "value": "0xec8e446c52f2d4ac9048aff1813c636ac8334fc9"
                            }
                        ],
                        "constructorArguments": "",
                        "name": "getAccountSnapshot",
                        "returnParams": [
                            {
                                "name": "",
                                "type": "uint256",
                                "value": "0"
                            },
                            {
                                "name": "",
                                "type": "uint256",
                                "value": "0"
                            },
                            {
                                "name": "",
                                "type": "uint256",
                                "value": "1,432,006,469"
                            },
                            {
                                "name": "",
                                "type": "uint256",
                                "value": "209,986,438,723,309"
                            }
                        ],
                        "signature": "getAccountSnapshot(address)"
                    },
                    "errorInfo": "",
                    "fromAddress": "0x3d9819210a31b4961b30ef54be2aed79b9c9cd3b",
                    "gasUsed": 16367,
                    "id": 36,
                    "methodDecoded": true,
                    "operation": "STATICCALL",
                    "output": "0x0000000000000000000000000000000000000000000000000000000000000000000000000000000000000000000000000000000000000000000000000000000000000000000000000000000000000000000000000000000000000000555aaf450000000000000000000000000000000000000000000000000000befb471676ed",
                    "revert": false,
                    "revertMessage": "",
                    "selector": "0xc37f68e2",
                    "status": true,
                    "value": "0"
                },
                "nodeType": 0
            },
            "37": {
                "invocation": {
                    "address": "0xa0b86991c6218b36c1d19d4a2e9eb0ce3606eb48",
                    "callData": "0x00000000000000000000000039aa39c021dfbae8fac545936693ac917d5e7563",
                    "decodedMethod": {
                        "callParams": [
                            {
                                "name": "account",
                                "type": "address",
                                "value": "0x39aa39c021dfbae8fac545936693ac917d5e7563"
                            }
                        ],
                        "constructorArguments": "",
                        "name": "balanceOf",
                        "returnParams": [
                            {
                                "decimalAvailable": true,
                                "name": "",
                                "type": "uint256",
                                "value": "16,302,384,412,824"
                            }
                        ],
                        "signature": "balanceOf(address)"
                    },
                    "errorInfo": "",
                    "fromAddress": "0x39aa39c021dfbae8fac545936693ac917d5e7563",
                    "gasUsed": 4275,
                    "id": 37,
                    "methodDecoded": true,
                    "operation": "STATICCALL",
                    "output": "0x00000000000000000000000000000000000000000000000000000ed3b1d4f898",
                    "revert": false,
                    "revertMessage": "",
                    "selector": "0x70a08231",
                    "status": true,
                    "value": "0"
                },
                "nodeType": 0
            },
            "38": {
                "invocation": {
                    "address": "0x0882477e7895bdc5cea7cb1552ed914ab157fe56",
                    "callData": "0x00000000000000000000000039aa39c021dfbae8fac545936693ac917d5e7563",
                    "decodedMethod": {
                        "callParams": [
                            {
                                "name": "account",
                                "type": "address",
                                "value": "0x39aa39c021dfbae8fac545936693ac917d5e7563"
                            }
                        ],
                        "constructorArguments": "",
                        "name": "balanceOf",
                        "returnParams": [
                            {
                                "decimalAvailable": true,
                                "name": "",
                                "type": "uint256",
                                "value": "16,302,384,412,824"
                            }
                        ],
                        "signature": "balanceOf(address)"
                    },
                    "errorInfo": "",
                    "fromAddress": "0xa0b86991c6218b36c1d19d4a2e9eb0ce3606eb48",
                    "gasUsed": 1489,
                    "id": 38,
                    "methodDecoded": true,
                    "operation": "DELEGATECALL",
                    "output": "0x00000000000000000000000000000000000000000000000000000ed3b1d4f898",
                    "revert": false,
                    "revertMessage": "",
                    "selector": "0x70a08231",
                    "status": true,
                    "value": "0"
                },
                "nodeType": 0
            },
            "39": {
                "invocation": {
                    "address": "0x1d8aedc9e924730dd3f9641cdb4d1b92b848b4bd",
                    "callData": "0x00000000000000000000000039aa39c021dfbae8fac545936693ac917d5e7563",
                    "decodedMethod": {
                        "callParams": [
                            {
                                "name": "cToken",
                                "type": "address",
                                "value": "0x39aa39c021dfbae8fac545936693ac917d5e7563"
                            }
                        ],
                        "constructorArguments": "",
                        "name": "getUnderlyingPrice",
                        "returnParams": [
                            {
                                "name": "",
                                "type": "uint256",
                                "value": "4,954,419,342,053,111,000,000,000,000"
                            }
                        ],
                        "signature": "getUnderlyingPrice(address)"
                    },
                    "errorInfo": "",
                    "fromAddress": "0x3d9819210a31b4961b30ef54be2aed79b9c9cd3b",
                    "gasUsed": 19700,
                    "id": 39,
                    "methodDecoded": true,
                    "operation": "STATICCALL",
                    "output": "0x00000000000000000000000000000000000000001002331ab3f1dd86ea227000",
                    "revert": false,
                    "revertMessage": "",
                    "selector": "0xfc57d4df",
                    "status": true,
                    "value": "0"
                },
                "nodeType": 0
            },
            "4": {
                "invocation": {
                    "address": "0x89d24a6b4ccb1b6faa2625fe562bdd9a23260359",
                    "callData": "0x000000000000000000000000f5dce57282a584d2746faf1593d3121fcac444dc",
                    "decodedMethod": {
                        "callParams": [
                            {
                                "name": "src",
                                "type": "address",
                                "value": "0xf5dce57282a584d2746faf1593d3121fcac444dc"
                            }
                        ],
                        "constructorArguments": "",
                        "name": "balanceOf",
                        "returnParams": [
                            {
                                "decimalAvailable": true,
                                "name": "",
                                "type": "uint256",
                                "value": "1,202,142,331,972,767,837,855,355"
                            }
                        ],
                        "signature": "balanceOf(address)"
                    },
                    "errorInfo": "",
                    "fromAddress": "0xf5dce57282a584d2746faf1593d3121fcac444dc",
                    "gasUsed": 1415,
                    "id": 4,
                    "methodDecoded": true,
                    "operation": "STATICCALL",
                    "output": "0x00000000000000000000000000000000000000000000fe904432aa2f5acc1e7b",
                    "revert": false,
                    "revertMessage": "",
                    "selector": "0x70a08231",
                    "status": true,
                    "value": "0"
                },
                "nodeType": 0
            },
            "40": {
                "invocation": {
                    "address": "0x3d9819210a31b4961b30ef54be2aed79b9c9cd3b",
                    "callData": "0x00000000000000000000000039aa39c021dfbae8fac545936693ac917d5e7563",
                    "decodedMethod": {
                        "callParams": [
                            {
                                "name": "",
                                "type": "address",
                                "value": "0x39aa39c021dfbae8fac545936693ac917d5e7563"
                            }
                        ],
                        "constructorArguments": "",
                        "name": "markets",
                        "returnParams": [
                            {
                                "name": "isListed",
                                "type": "bool",
                                "value": true
                            },
                            {
                                "name": "collateralFactorMantissa",
                                "type": "uint256",
                                "value": "750,000,000,000,000,000"
                            }
                        ],
                        "signature": "markets(address)"
                    },
                    "errorInfo": "",
                    "fromAddress": "0x1d8aedc9e924730dd3f9641cdb4d1b92b848b4bd",
                    "gasUsed": 4035,
                    "id": 40,
                    "methodDecoded": true,
                    "operation": "STATICCALL",
                    "output": "0x00000000000000000000000000000000000000000000000000000000000000010000000000000000000000000000000000000000000000000a688906bd8b0000",
                    "revert": false,
                    "revertMessage": "",
                    "selector": "0x8e8f294b",
                    "status": true,
                    "value": "0"
                },
                "nodeType": 0
            },
            "41": {
                "invocation": {
                    "address": "0xf592ef673057a451c49c9433e278c5d59b56132c",
                    "callData": "0x00000000000000000000000039aa39c021dfbae8fac545936693ac917d5e7563",
                    "decodedMethod": {
                        "callParams": [
                            {
                                "name": "",
                                "type": "address",
                                "value": "0x39aa39c021dfbae8fac545936693ac917d5e7563"
                            }
                        ],
                        "constructorArguments": "",
                        "name": "markets",
                        "returnParams": [
                            {
                                "name": "isListed",
                                "type": "bool",
                                "value": true
                            },
                            {
                                "name": "collateralFactorMantissa",
                                "type": "uint256",
                                "value": "750,000,000,000,000,000"
                            }
                        ],
                        "signature": "markets(address)"
                    },
                    "errorInfo": "",
                    "fromAddress": "0x3d9819210a31b4961b30ef54be2aed79b9c9cd3b",
                    "gasUsed": 2052,
                    "id": 41,
                    "methodDecoded": true,
                    "operation": "DELEGATECALL",
                    "output": "0x00000000000000000000000000000000000000000000000000000000000000010000000000000000000000000000000000000000000000000a688906bd8b0000",
                    "revert": false,
                    "revertMessage": "",
                    "selector": "0x8e8f294b",
                    "status": true,
                    "value": "0"
                },
                "nodeType": 0
            },
            "42": {
                "invocation": {
                    "address": "0x02557a5e05defeffd4cae6d83ea3d173b272c904",
                    "callData": "0x00000000000000000000000089d24a6b4ccb1b6faa2625fe562bdd9a23260359",
                    "decodedMethod": {
                        "callParams": [
                            {
                                "name": "asset",
                                "type": "address",
                                "value": "0x89d24a6b4ccb1b6faa2625fe562bdd9a23260359"
                            }
                        ],
                        "constructorArguments": "",
                        "name": "assetPrices",
                        "returnParams": [
                            {
                                "name": "",
                                "type": "uint256",
                                "value": "4,954,419,342,053,111"
                            }
                        ],
                        "signature": "assetPrices(address)"
                    },
                    "errorInfo": "",
                    "fromAddress": "0x1d8aedc9e924730dd3f9641cdb4d1b92b848b4bd",
                    "gasUsed": 7800,
                    "id": 42,
                    "methodDecoded": true,
                    "operation": "STATICCALL",
                    "output": "0x00000000000000000000000000000000000000000000000000119a04a4f38ef7",
                    "revert": false,
                    "revertMessage": "",
                    "selector": "0x5e9a523c",
                    "status": true,
                    "value": "0"
                },
                "nodeType": 0
            },
            "43": {
                "invocation": {
                    "address": "0x729d19f657bd0614b4985cf1d82531c67569197b",
                    "callData": "0x",
                    "decodedMethod": {
                        "callParams": [],
                        "constructorArguments": "",
                        "name": "peek",
                        "returnParams": [
                            {
                                "name": "",
                                "type": "bytes32",
                                "value": "0x00000000000000000000000000000000000000000000000af117ba9b18d80000"
                            },
                            {
                                "name": "",
                                "type": "bool",
                                "value": true
                            }
                        ],
                        "signature": "peek()"
                    },
                    "errorInfo": "",
                    "fromAddress": "0x02557a5e05defeffd4cae6d83ea3d173b272c904",
                    "gasUsed": 2145,
                    "id": 43,
                    "methodDecoded": true,
                    "operation": "CALL",
                    "output": "0x00000000000000000000000000000000000000000000000af117ba9b18d800000000000000000000000000000000000000000000000000000000000000000001",
                    "revert": false,
                    "revertMessage": "",
                    "selector": "0x59e02dd7",
                    "status": true,
                    "value": "0"
                },
                "nodeType": 0
            },
            "44": {
                "invocation": {
                    "address": "0xb3319f5d18bc0d84dd1b4825dcde5d5f7266d407",
                    "callData": "0x000000000000000000000000ec8e446c52f2d4ac9048aff1813c636ac8334fc9",
                    "decodedMethod": {
                        "callParams": [
                            {
                                "name": "account",
                                "type": "address",
                                "value": "0xec8e446c52f2d4ac9048aff1813c636ac8334fc9"
                            }
                        ],
                        "constructorArguments": "",
                        "name": "getAccountSnapshot",
                        "returnParams": [
                            {
                                "name": "",
                                "type": "uint256",
                                "value": "0"
                            },
                            {
                                "name": "",
                                "type": "uint256",
                                "value": "0"
                            },
                            {
                                "name": "",
                                "type": "uint256",
                                "value": "0"
                            },
                            {
                                "name": "",
                                "type": "uint256",
                                "value": "200,577,071,485,412,565,839,739,898"
                            }
                        ],
                        "signature": "getAccountSnapshot(address)"
                    },
                    "errorInfo": "",
                    "fromAddress": "0x3d9819210a31b4961b30ef54be2aed79b9c9cd3b",
                    "gasUsed": 10554,
                    "id": 44,
                    "methodDecoded": true,
                    "operation": "STATICCALL",
                    "output": "0x000000000000000000000000000000000000000000000000000000000000000000000000000000000000000000000000000000000000000000000000000000000000000000000000000000000000000000000000000000000000000000000000000000000000000000000000000000000000000000a5e9d8d52ff89c1fbf7bfa",
                    "revert": false,
                    "revertMessage": "",
                    "selector": "0xc37f68e2",
                    "status": true,
                    "value": "0"
                },
                "nodeType": 0
            },
            "45": {
                "invocation": {
                    "address": "0xe41d2489571d322189246dafa5ebde1f4699f498",
                    "callData": "0x000000000000000000000000b3319f5d18bc0d84dd1b4825dcde5d5f7266d407",
                    "decodedMethod": {
                        "callParams": [
                            {
                                "name": "_owner",
                                "type": "address",
                                "value": "0xb3319f5d18bc0d84dd1b4825dcde5d5f7266d407"
                            }
                        ],
                        "constructorArguments": "",
                        "name": "balanceOf",
                        "returnParams": [
                            {
                                "decimalAvailable": true,
                                "name": "",
                                "type": "uint256",
                                "value": "4,504,586,378,570,268,727,779,128"
                            }
                        ],
                        "signature": "balanceOf(address)"
                    },
                    "errorInfo": "",
                    "fromAddress": "0xb3319f5d18bc0d84dd1b4825dcde5d5f7266d407",
                    "gasUsed": 1237,
                    "id": 45,
                    "methodDecoded": true,
                    "operation": "STATICCALL",
                    "output": "0x00000000000000000000000000000000000000000003b9e21dec7c294ff31f38",
                    "revert": false,
                    "revertMessage": "",
                    "selector": "0x70a08231",
                    "status": true,
                    "value": "0"
                },
                "nodeType": 0
            },
            "46": {
                "invocation": {
                    "address": "0x1d8aedc9e924730dd3f9641cdb4d1b92b848b4bd",
                    "callData": "0x000000000000000000000000b3319f5d18bc0d84dd1b4825dcde5d5f7266d407",
                    "decodedMethod": {
                        "callParams": [
                            {
                                "name": "cToken",
                                "type": "address",
                                "value": "0xb3319f5d18bc0d84dd1b4825dcde5d5f7266d407"
                            }
                        ],
                        "constructorArguments": "",
                        "name": "getUnderlyingPrice",
                        "returnParams": [
                            {
                                "name": "",
                                "type": "uint256",
                                "value": "1,118,048,333,333,333"
                            }
                        ],
                        "signature": "getUnderlyingPrice(address)"
                    },
                    "errorInfo": "",
                    "fromAddress": "0x3d9819210a31b4961b30ef54be2aed79b9c9cd3b",
                    "gasUsed": 18728,
                    "id": 46,
                    "methodDecoded": true,
                    "operation": "STATICCALL",
                    "output": "0x0000000000000000000000000000000000000000000000000003f8dbe9c00355",
                    "revert": false,
                    "revertMessage": "",
                    "selector": "0xfc57d4df",
                    "status": true,
                    "value": "0"
                },
                "nodeType": 0
            },
            "47": {
                "invocation": {
                    "address": "0x3d9819210a31b4961b30ef54be2aed79b9c9cd3b",
                    "callData": "0x000000000000000000000000b3319f5d18bc0d84dd1b4825dcde5d5f7266d407",
                    "decodedMethod": {
                        "callParams": [
                            {
                                "name": "",
                                "type": "address",
                                "value": "0xb3319f5d18bc0d84dd1b4825dcde5d5f7266d407"
                            }
                        ],
                        "constructorArguments": "",
                        "name": "markets",
                        "returnParams": [
                            {
                                "name": "isListed",
                                "type": "bool",
                                "value": true
                            },
                            {
                                "name": "collateralFactorMantissa",
                                "type": "uint256",
                                "value": "600,000,000,000,000,000"
                            }
                        ],
                        "signature": "markets(address)"
                    },
                    "errorInfo": "",
                    "fromAddress": "0x1d8aedc9e924730dd3f9641cdb4d1b92b848b4bd",
                    "gasUsed": 4035,
                    "id": 47,
                    "methodDecoded": true,
                    "operation": "STATICCALL",
                    "output": "0x00000000000000000000000000000000000000000000000000000000000000010000000000000000000000000000000000000000000000000853a0d2313c0000",
                    "revert": false,
                    "revertMessage": "",
                    "selector": "0x8e8f294b",
                    "status": true,
                    "value": "0"
                },
                "nodeType": 0
            },
            "48": {
                "invocation": {
                    "address": "0xf592ef673057a451c49c9433e278c5d59b56132c",
                    "callData": "0x000000000000000000000000b3319f5d18bc0d84dd1b4825dcde5d5f7266d407",
                    "decodedMethod": {
                        "callParams": [
                            {
                                "name": "",
                                "type": "address",
                                "value": "0xb3319f5d18bc0d84dd1b4825dcde5d5f7266d407"
                            }
                        ],
                        "constructorArguments": "",
                        "name": "markets",
                        "returnParams": [
                            {
                                "name": "isListed",
                                "type": "bool",
                                "value": true
                            },
                            {
                                "name": "collateralFactorMantissa",
                                "type": "uint256",
                                "value": "600,000,000,000,000,000"
                            }
                        ],
                        "signature": "markets(address)"
                    },
                    "errorInfo": "",
                    "fromAddress": "0x3d9819210a31b4961b30ef54be2aed79b9c9cd3b",
                    "gasUsed": 2052,
                    "id": 48,
                    "methodDecoded": true,
                    "operation": "DELEGATECALL",
                    "output": "0x00000000000000000000000000000000000000000000000000000000000000010000000000000000000000000000000000000000000000000853a0d2313c0000",
                    "revert": false,
                    "revertMessage": "",
                    "selector": "0x8e8f294b",
                    "status": true,
                    "value": "0"
                },
                "nodeType": 0
            },
            "49": {
                "invocation": {
                    "address": "0xb3319f5d18bc0d84dd1b4825dcde5d5f7266d407",
                    "callData": "0x",
                    "decodedMethod": {
                        "callParams": [],
                        "constructorArguments": "",
                        "name": "underlying",
                        "returnParams": [
                            {
                                "name": "",
                                "type": "address",
                                "value": "0xe41d2489571d322189246dafa5ebde1f4699f498"
                            }
                        ],
                        "signature": "underlying()"
                    },
                    "errorInfo": "",
                    "fromAddress": "0x1d8aedc9e924730dd3f9641cdb4d1b92b848b4bd",
                    "gasUsed": 1126,
                    "id": 49,
                    "methodDecoded": true,
                    "operation": "STATICCALL",
                    "output": "0x000000000000000000000000e41d2489571d322189246dafa5ebde1f4699f498",
                    "revert": false,
                    "revertMessage": "",
                    "selector": "0x6f307dc3",
                    "status": true,
                    "value": "0"
                },
                "nodeType": 0
            },
            "5": {
                "invocation": {
                    "address": "0x3d9819210a31b4961b30ef54be2aed79b9c9cd3b",
                    "callData": "0x000000000000000000000000f5dce57282a584d2746faf1593d3121fcac444dc000000000000000000000000ec8e446c52f2d4ac9048aff1813c636ac8334fc90000000000000000000000000000000000000000000000000000000577922604",
                    "decodedMethod": {
                        "callParams": [
                            {
                                "name": "cToken",
                                "type": "address",
                                "value": "0xf5dce57282a584d2746faf1593d3121fcac444dc"
                            },
                            {
                                "name": "redeemer",
                                "type": "address",
                                "value": "0xec8e446c52f2d4ac9048aff1813c636ac8334fc9"
                            },
                            {
                                "name": "redeemTokens",
                                "type": "uint256",
                                "value": "23,480,903,172"
                            }
                        ],
                        "constructorArguments": "",
                        "name": "redeemAllowed",
                        "returnParams": [
                            {
                                "name": "",
                                "type": "uint256",
                                "value": "0"
                            }
                        ],
                        "signature": "redeemAllowed(address,address,uint256)"
                    },
                    "errorInfo": "",
                    "fromAddress": "0xf5dce57282a584d2746faf1593d3121fcac444dc",
                    "gasUsed": 259728,
                    "id": 5,
                    "methodDecoded": true,
                    "operation": "CALL",
                    "output": "0x0000000000000000000000000000000000000000000000000000000000000000",
                    "revert": false,
                    "revertMessage": "",
                    "selector": "0xeabe7d91",
                    "status": true,
                    "value": "0"
                },
                "nodeType": 0
            },
            "50": {
                "invocation": {
                    "address": "0x02557a5e05defeffd4cae6d83ea3d173b272c904",
                    "callData": "0x000000000000000000000000e41d2489571d322189246dafa5ebde1f4699f498",
                    "decodedMethod": {
                        "callParams": [
                            {
                                "name": "asset",
                                "type": "address",
                                "value": "0xe41d2489571d322189246dafa5ebde1f4699f498"
                            }
                        ],
                        "constructorArguments": "",
                        "name": "assetPrices",
                        "returnParams": [
                            {
                                "name": "",
                                "type": "uint256",
                                "value": "1,118,048,333,333,333"
                            }
                        ],
                        "signature": "assetPrices(address)"
                    },
                    "errorInfo": "",
                    "fromAddress": "0x1d8aedc9e924730dd3f9641cdb4d1b92b848b4bd",
                    "gasUsed": 3344,
                    "id": 50,
                    "methodDecoded": true,
                    "operation": "STATICCALL",
                    "output": "0x0000000000000000000000000000000000000000000000000003f8dbe9c00355",
                    "revert": false,
                    "revertMessage": "",
                    "selector": "0x5e9a523c",
                    "status": true,
                    "value": "0"
                },
                "nodeType": 0
            },
            "51": {
                "invocation": {
                    "address": "0x89d24a6b4ccb1b6faa2625fe562bdd9a23260359",
                    "callData": "0x000000000000000000000000f5dce57282a584d2746faf1593d3121fcac444dc",
                    "decodedMethod": {
                        "callParams": [
                            {
                                "name": "src",
                                "type": "address",
                                "value": "0xf5dce57282a584d2746faf1593d3121fcac444dc"
                            }
                        ],
                        "constructorArguments": "",
                        "name": "balanceOf",
                        "returnParams": [
                            {
                                "decimalAvailable": true,
                                "name": "",
                                "type": "uint256",
                                "value": "1,202,142,331,972,767,837,855,355"
                            }
                        ],
                        "signature": "balanceOf(address)"
                    },
                    "errorInfo": "",
                    "fromAddress": "0xf5dce57282a584d2746faf1593d3121fcac444dc",
                    "gasUsed": 1415,
                    "id": 51,
                    "methodDecoded": true,
                    "operation": "STATICCALL",
                    "output": "0x00000000000000000000000000000000000000000000fe904432aa2f5acc1e7b",
                    "revert": false,
                    "revertMessage": "",
                    "selector": "0x70a08231",
                    "status": true,
                    "value": "0"
                },
                "nodeType": 0
            },
            "52": {
                "invocation": {
                    "address": "0x89d24a6b4ccb1b6faa2625fe562bdd9a23260359",
                    "callData": "0x000000000000000000000000ec8e446c52f2d4ac9048aff1813c636ac8334fc90000000000000000000000000000000000000000000000004563918244f40000",
                    "decodedMethod": {
                        "callParams": [
                            {
                                "name": "dst",
                                "type": "address",
                                "value": "0xec8e446c52f2d4ac9048aff1813c636ac8334fc9"
                            },
                            {
                                "decimalAvailable": true,
                                "name": "wad",
                                "type": "uint256",
                                "value": "5,000,000,000,000,000,000"
                            }
                        ],
                        "constructorArguments": "",
                        "name": "transfer",
                        "returnParams": [
                            {
                                "name": "",
                                "type": "bool",
                                "value": true
                            }
                        ],
                        "signature": "transfer(address,uint256)"
                    },
                    "errorInfo": "",
                    "fromAddress": "0xf5dce57282a584d2746faf1593d3121fcac444dc",
                    "gasUsed": 15906,
                    "id": 52,
                    "methodDecoded": true,
                    "operation": "CALL",
                    "output": "0x0000000000000000000000000000000000000000000000000000000000000001",
                    "revert": false,
                    "revertMessage": "",
                    "selector": "0xa9059cbb",
                    "status": true,
                    "value": "0"
                },
                "nodeType": 0
            },
            "53": {
                "event": {
                    "contract": "0x89d24a6b4ccb1b6faa2625fe562bdd9a23260359",
                    "decodedLog": {
                        "name": "Transfer",
                        "params": [
                            {
                                "name": "src",
                                "type": "address",
                                "value": "0xf5dce57282a584d2746faf1593d3121fcac444dc"
                            },
                            {
                                "name": "dst",
                                "type": "address",
                                "value": "0xec8e446c52f2d4ac9048aff1813c636ac8334fc9"
                            },
                            {
                                "decimalAvailable": true,
                                "name": "wad",
                                "type": "uint256",
                                "value": "5,000,000,000,000,000,000"
                            }
                        ],
                        "signature": "Transfer(address,address,uint256)"
                    },
                    "id": 53,
                    "logData": "0x0000000000000000000000000000000000000000000000004563918244f40000",
                    "logDecoded": true,
                    "operation": "EVENT",
                    "revert": false,
                    "status": true,
                    "topics": [
                        "0xddf252ad1be2c89b69c2b068fc378daa952ba7f163c4a11628f55a4df523b3ef",
                        "0x000000000000000000000000f5dce57282a584d2746faf1593d3121fcac444dc",
                        "0x000000000000000000000000ec8e446c52f2d4ac9048aff1813c636ac8334fc9"
                    ]
                },
                "nodeType": 1
            },
            "54": {
                "event": {
                    "contract": "0xf5dce57282a584d2746faf1593d3121fcac444dc",
                    "decodedLog": {
                        "name": "Transfer",
                        "params": [
                            {
                                "name": "from",
                                "type": "address",
                                "value": "0xec8e446c52f2d4ac9048aff1813c636ac8334fc9"
                            },
                            {
                                "name": "to",
                                "type": "address",
                                "value": "0xf5dce57282a584d2746faf1593d3121fcac444dc"
                            },
                            {
                                "decimalAvailable": true,
                                "name": "amount",
                                "type": "uint256",
                                "value": "23,480,903,172"
                            }
                        ],
                        "signature": "Transfer(address,address,uint256)"
                    },
                    "id": 54,
                    "logData": "0x0000000000000000000000000000000000000000000000000000000577922604",
                    "logDecoded": true,
                    "operation": "EVENT",
                    "revert": false,
                    "status": true,
                    "topics": [
                        "0xddf252ad1be2c89b69c2b068fc378daa952ba7f163c4a11628f55a4df523b3ef",
                        "0x000000000000000000000000ec8e446c52f2d4ac9048aff1813c636ac8334fc9",
                        "0x000000000000000000000000f5dce57282a584d2746faf1593d3121fcac444dc"
                    ]
                },
                "nodeType": 1
            },
            "55": {
                "event": {
                    "contract": "0xf5dce57282a584d2746faf1593d3121fcac444dc",
                    "decodedLog": {
                        "name": "Redeem",
                        "params": [
                            {
                                "name": "redeemer",
                                "type": "address",
                                "value": "0xec8e446c52f2d4ac9048aff1813c636ac8334fc9"
                            },
                            {
                                "name": "redeemAmount",
                                "type": "uint256",
                                "value": "5,000,000,000,000,000,000"
                            },
                            {
                                "name": "redeemTokens",
                                "type": "uint256",
                                "value": "23,480,903,172"
                            }
                        ],
                        "signature": "Redeem(address,uint256,uint256)"
                    },
                    "id": 55,
                    "logData": "0x000000000000000000000000ec8e446c52f2d4ac9048aff1813c636ac8334fc90000000000000000000000000000000000000000000000004563918244f400000000000000000000000000000000000000000000000000000000000577922604",
                    "logDecoded": true,
                    "operation": "EVENT",
                    "revert": false,
                    "status": true,
                    "topics": [
                        "0xe5b754fb1abb7f01b499791d0b820ae3b6af3424ac1c59768edb53f4ec31a929"
                    ]
                },
                "nodeType": 1
            },
            "56": {
                "invocation": {
                    "address": "0x3d9819210a31b4961b30ef54be2aed79b9c9cd3b",
                    "callData": "0x000000000000000000000000f5dce57282a584d2746faf1593d3121fcac444dc000000000000000000000000ec8e446c52f2d4ac9048aff1813c636ac8334fc90000000000000000000000000000000000000000000000004563918244f400000000000000000000000000000000000000000000000000000000000577922604",
                    "decodedMethod": {
                        "callParams": [
                            {
                                "name": "cToken",
                                "type": "address",
                                "value": "0xf5dce57282a584d2746faf1593d3121fcac444dc"
                            },
                            {
                                "name": "redeemer",
                                "type": "address",
                                "value": "0xec8e446c52f2d4ac9048aff1813c636ac8334fc9"
                            },
                            {
                                "name": "redeemAmount",
                                "type": "uint256",
                                "value": "5,000,000,000,000,000,000"
                            },
                            {
                                "name": "redeemTokens",
                                "type": "uint256",
                                "value": "23,480,903,172"
                            }
                        ],
                        "constructorArguments": "",
                        "name": "redeemVerify",
                        "returnParams": [],
                        "signature": "redeemVerify(address,address,uint256,uint256)"
                    },
                    "errorInfo": "",
                    "fromAddress": "0xf5dce57282a584d2746faf1593d3121fcac444dc",
                    "gasUsed": 2293,
                    "id": 56,
                    "methodDecoded": true,
                    "operation": "CALL",
                    "output": "",
                    "revert": false,
                    "revertMessage": "",
                    "selector": "0x51dff989",
                    "status": true,
                    "value": "0"
                },
                "nodeType": 0
            },
            "57": {
                "invocation": {
                    "address": "0xf592ef673057a451c49c9433e278c5d59b56132c",
                    "callData": "0x000000000000000000000000f5dce57282a584d2746faf1593d3121fcac444dc000000000000000000000000ec8e446c52f2d4ac9048aff1813c636ac8334fc90000000000000000000000000000000000000000000000004563918244f400000000000000000000000000000000000000000000000000000000000577922604",
                    "decodedMethod": {
                        "callParams": [
                            {
                                "name": "cToken",
                                "type": "address",
                                "value": "0xf5dce57282a584d2746faf1593d3121fcac444dc"
                            },
                            {
                                "name": "redeemer",
                                "type": "address",
                                "value": "0xec8e446c52f2d4ac9048aff1813c636ac8334fc9"
                            },
                            {
                                "name": "redeemAmount",
                                "type": "uint256",
                                "value": "5,000,000,000,000,000,000"
                            },
                            {
                                "name": "redeemTokens",
                                "type": "uint256",
                                "value": "23,480,903,172"
                            }
                        ],
                        "constructorArguments": "",
                        "name": "redeemVerify",
                        "returnParams": [],
                        "signature": "redeemVerify(address,address,uint256,uint256)"
                    },
                    "errorInfo": "",
                    "fromAddress": "0x3d9819210a31b4961b30ef54be2aed79b9c9cd3b",
                    "gasUsed": 380,
                    "id": 57,
                    "methodDecoded": true,
                    "operation": "DELEGATECALL",
                    "output": "",
                    "revert": false,
                    "revertMessage": "",
                    "selector": "0x51dff989",
                    "status": true,
                    "value": "0"
                },
                "nodeType": 0
            },
            "6": {
                "invocation": {
                    "address": "0xf592ef673057a451c49c9433e278c5d59b56132c",
                    "callData": "0x000000000000000000000000f5dce57282a584d2746faf1593d3121fcac444dc000000000000000000000000ec8e446c52f2d4ac9048aff1813c636ac8334fc90000000000000000000000000000000000000000000000000000000577922604",
                    "decodedMethod": {
                        "callParams": [
                            {
                                "name": "cToken",
                                "type": "address",
                                "value": "0xf5dce57282a584d2746faf1593d3121fcac444dc"
                            },
                            {
                                "name": "redeemer",
                                "type": "address",
                                "value": "0xec8e446c52f2d4ac9048aff1813c636ac8334fc9"
                            },
                            {
                                "name": "redeemTokens",
                                "type": "uint256",
                                "value": "23,480,903,172"
                            }
                        ],
                        "constructorArguments": "",
                        "name": "redeemAllowed",
                        "returnParams": [
                            {
                                "name": "",
                                "type": "uint256",
                                "value": "0"
                            }
                        ],
                        "signature": "redeemAllowed(address,address,uint256)"
                    },
                    "errorInfo": "",
                    "fromAddress": "0x3d9819210a31b4961b30ef54be2aed79b9c9cd3b",
                    "gasUsed": 257738,
                    "id": 6,
                    "methodDecoded": true,
                    "operation": "DELEGATECALL",
                    "output": "0x0000000000000000000000000000000000000000000000000000000000000000",
                    "revert": false,
                    "revertMessage": "",
                    "selector": "0xeabe7d91",
                    "status": true,
                    "value": "0"
                },
                "nodeType": 0
            },
            "7": {
                "invocation": {
                    "address": "0x6c8c6b02e7b2be14d4fa6022dfd6d75921d90e4e",
                    "callData": "0x000000000000000000000000ec8e446c52f2d4ac9048aff1813c636ac8334fc9",
                    "decodedMethod": {
                        "callParams": [
                            {
                                "name": "account",
                                "type": "address",
                                "value": "0xec8e446c52f2d4ac9048aff1813c636ac8334fc9"
                            }
                        ],
                        "constructorArguments": "",
                        "name": "getAccountSnapshot",
                        "returnParams": [
                            {
                                "name": "",
                                "type": "uint256",
                                "value": "0"
                            },
                            {
                                "name": "",
                                "type": "uint256",
                                "value": "1,356,559,435,114"
                            },
                            {
                                "name": "",
                                "type": "uint256",
                                "value": "0"
                            },
                            {
                                "name": "",
                                "type": "uint256",
                                "value": "202,202,796,411,753,067,046,102,015"
                            }
                        ],
                        "signature": "getAccountSnapshot(address)"
                    },
                    "errorInfo": "",
                    "fromAddress": "0x3d9819210a31b4961b30ef54be2aed79b9c9cd3b",
                    "gasUsed": 10848,
                    "id": 7,
                    "methodDecoded": true,
                    "operation": "STATICCALL",
                    "output": "0x00000000000000000000000000000000000000000000000000000000000000000000000000000000000000000000000000000000000000000000013bd93e456a0000000000000000000000000000000000000000000000000000000000000000000000000000000000000000000000000000000000a7421b8ebfbf7acfa5e3ff",
                    "revert": false,
                    "revertMessage": "",
                    "selector": "0xc37f68e2",
                    "status": true,
                    "value": "0"
                },
                "nodeType": 0
            },
            "8": {
                "invocation": {
                    "address": "0x0d8775f648430679a709e98d2b0cb6250d2887ef",
                    "callData": "0x0000000000000000000000006c8c6b02e7b2be14d4fa6022dfd6d75921d90e4e",
                    "decodedMethod": {
                        "callParams": [
                            {
                                "name": "_owner",
                                "type": "address",
                                "value": "0x6c8c6b02e7b2be14d4fa6022dfd6d75921d90e4e"
                            }
                        ],
                        "constructorArguments": "",
                        "name": "balanceOf",
                        "returnParams": [
                            {
                                "decimalAvailable": true,
                                "name": "balance",
                                "type": "uint256",
                                "value": "5,389,439,316,344,538,736,920,533"
                            }
                        ],
                        "signature": "balanceOf(address)"
                    },
                    "errorInfo": "",
                    "fromAddress": "0x6c8c6b02e7b2be14d4fa6022dfd6d75921d90e4e",
                    "gasUsed": 1531,
                    "id": 8,
                    "methodDecoded": true,
                    "operation": "STATICCALL",
                    "output": "0x000000000000000000000000000000000000000000047542173c3e120ca887d5",
                    "revert": false,
                    "revertMessage": "",
                    "selector": "0x70a08231",
                    "status": true,
                    "value": "0"
                },
                "nodeType": 0
            },
            "9": {
                "invocation": {
                    "address": "0x1d8aedc9e924730dd3f9641cdb4d1b92b848b4bd",
                    "callData": "0x0000000000000000000000006c8c6b02e7b2be14d4fa6022dfd6d75921d90e4e",
                    "decodedMethod": {
                        "callParams": [
                            {
                                "name": "cToken",
                                "type": "address",
                                "value": "0x6c8c6b02e7b2be14d4fa6022dfd6d75921d90e4e"
                            }
                        ],
                        "constructorArguments": "",
                        "name": "getUnderlyingPrice",
                        "returnParams": [
                            {
                                "name": "",
                                "type": "uint256",
                                "value": "940,397,500,000,000"
                            }
                        ],
                        "signature": "getUnderlyingPrice(address)"
                    },
                    "errorInfo": "",
                    "fromAddress": "0x3d9819210a31b4961b30ef54be2aed79b9c9cd3b",
                    "gasUsed": 18728,
                    "id": 9,
                    "methodDecoded": true,
                    "operation": "STATICCALL",
                    "output": "0x000000000000000000000000000000000000000000000000000357495aef6700",
                    "revert": false,
                    "revertMessage": "",
                    "selector": "0xfc57d4df",
                    "status": true,
                    "value": "0"
                },
                "nodeType": 0
            }
        },
        "gasFlame": [
            {
                "children": [
                    {
                        "children": [
                            {
                                "children": [],
                                "depth": 0,
                                "name": "Initial Gas",
                                "value": 21264
                            },
                            {
                                "children": [
                                    {
                                        "children": [],
                                        "depth": 1,
                                        "name": "balanceOf",
                                        "value": 1415
                                    },
                                    {
                                        "children": [],
                                        "depth": 1,
                                        "name": "getBorrowRate",
                                        "value": 5403
                                    },
                                    {
                                        "children": [],
                                        "depth": 1,
                                        "name": "balanceOf",
                                        "value": 1415
                                    },
                                    {
                                        "children": [
                                            {
                                                "children": [
                                                    {
                                                        "children": [
                                                            {
                                                                "children": [],
                                                                "depth": 4,
                                                                "name": "balanceOf",
                                                                "value": 1531
                                                            }
                                                        ],
                                                        "depth": 3,
                                                        "name": "getAccountSnapshot",
                                                        "value": 10848
                                                    },
                                                    {
                                                        "children": [
                                                            {
                                                                "children": [
                                                                    {
                                                                        "children": [],
                                                                        "depth": 5,
                                                                        "name": "markets",
                                                                        "value": 2052
                                                                    }
                                                                ],
                                                                "depth": 4,
                                                                "name": "markets",
                                                                "value": 4035
                                                            },
                                                            {
                                                                "children": [],
                                                                "depth": 4,
                                                                "name": "underlying",
                                                                "value": 1126
                                                            },
                                                            {
                                                                "children": [],
                                                                "depth": 4,
                                                                "name": "assetPrices",
                                                                "value": 3344
                                                            }
                                                        ],
                                                        "depth": 3,
                                                        "name": "getUnderlyingPrice",
                                                        "value": 18728
                                                    },
                                                    {
                                                        "children": [
                                                            {
                                                                "children": [],
                                                                "depth": 4,
                                                                "name": "balanceOf",
                                                                "value": 1415
                                                            }
                                                        ],
                                                        "depth": 3,
                                                        "name": "getAccountSnapshot",
                                                        "value": 10732
                                                    },
                                                    {
                                                        "children": [
                                                            {
                                                                "children": [
                                                                    {
                                                                        "children": [],
                                                                        "depth": 5,
                                                                        "name": "markets",
                                                                        "value": 2052
                                                                    }
                                                                ],
                                                                "depth": 4,
                                                                "name": "markets",
                                                                "value": 4035
                                                            },
                                                            {
                                                                "children": [
                                                                    {
                                                                        "children": [],
                                                                        "depth": 5,
                                                                        "name": "peek",
                                                                        "value": 2145
                                                                    }
                                                                ],
                                                                "depth": 4,
                                                                "name": "assetPrices",
                                                                "value": 7800
                                                            },
                                                            {
                                                                "children": [],
                                                                "depth": 4,
                                                                "name": "assetPrices",
                                                                "value": 3344
                                                            },
                                                            {
                                                                "children": [],
                                                                "depth": 4,
                                                                "name": "assetPrices",
                                                                "value": 3344
                                                            }
                                                        ],
                                                        "depth": 3,
                                                        "name": "getUnderlyingPrice",
                                                        "value": 32887
                                                    },
                                                    {
                                                        "children": [],
                                                        "depth": 3,
                                                        "name": "getAccountSnapshot",
                                                        "value": 7747
                                                    },
                                                    {
                                                        "children": [
                                                            {
                                                                "children": [
                                                                    {
                                                                        "children": [],
                                                                        "depth": 5,
                                                                        "name": "markets",
                                                                        "value": 2052
                                                                    }
                                                                ],
                                                                "depth": 4,
                                                                "name": "markets",
                                                                "value": 4035
                                                            }
                                                        ],
                                                        "depth": 3,
                                                        "name": "getUnderlyingPrice",
                                                        "value": 7684
                                                    },
                                                    {
                                                        "children": [
                                                            {
                                                                "children": [
                                                                    {
                                                                        "children": [],
                                                                        "depth": 5,
                                                                        "name": "lookup",
                                                                        "value": 1534
                                                                    },
                                                                    {
                                                                        "children": [],
                                                                        "depth": 5,
                                                                        "name": "balanceOf",
                                                                        "value": 1500
                                                                    }
                                                                ],
                                                                "depth": 4,
                                                                "name": "balanceOf",
                                                                "value": 8040
                                                            }
                                                        ],
                                                        "depth": 3,
                                                        "name": "getAccountSnapshot",
                                                        "value": 20132
                                                    },
                                                    {
                                                        "children": [
                                                            {
                                                                "children": [
                                                                    {
                                                                        "children": [],
                                                                        "depth": 5,
                                                                        "name": "markets",
                                                                        "value": 2052
                                                                    }
                                                                ],
                                                                "depth": 4,
                                                                "name": "markets",
                                                                "value": 4035
                                                            },
                                                            {
                                                                "children": [],
                                                                "depth": 4,
                                                                "name": "underlying",
                                                                "value": 1126
                                                            },
                                                            {
                                                                "children": [],
                                                                "depth": 4,
                                                                "name": "assetPrices",
                                                                "value": 3344
                                                            }
                                                        ],
                                                        "depth": 3,
                                                        "name": "getUnderlyingPrice",
                                                        "value": 18728
                                                    },
                                                    {
                                                        "children": [
                                                            {
                                                                "children": [
                                                                    {
                                                                        "children": [],
                                                                        "depth": 5,
                                                                        "name": "balanceOf",
                                                                        "value": 1489
                                                                    }
                                                                ],
                                                                "depth": 4,
                                                                "name": "balanceOf",
                                                                "value": 4275
                                                            }
                                                        ],
                                                        "depth": 3,
                                                        "name": "getAccountSnapshot",
                                                        "value": 16367
                                                    },
                                                    {
                                                        "children": [
                                                            {
                                                                "children": [
                                                                    {
                                                                        "children": [],
                                                                        "depth": 5,
                                                                        "name": "markets",
                                                                        "value": 2052
                                                                    }
                                                                ],
                                                                "depth": 4,
                                                                "name": "markets",
                                                                "value": 4035
                                                            },
                                                            {
                                                                "children": [
                                                                    {
                                                                        "children": [],
                                                                        "depth": 5,
                                                                        "name": "peek",
                                                                        "value": 2145
                                                                    }
                                                                ],
                                                                "depth": 4,
                                                                "name": "assetPrices",
                                                                "value": 7800
                                                            }
                                                        ],
                                                        "depth": 3,
                                                        "name": "getUnderlyingPrice",
                                                        "value": 19700
                                                    },
                                                    {
                                                        "children": [
                                                            {
                                                                "children": [],
                                                                "depth": 4,
                                                                "name": "balanceOf",
                                                                "value": 1237
                                                            }
                                                        ],
                                                        "depth": 3,
                                                        "name": "getAccountSnapshot",
                                                        "value": 10554
                                                    },
                                                    {
                                                        "children": [
                                                            {
                                                                "children": [
                                                                    {
                                                                        "children": [],
                                                                        "depth": 5,
                                                                        "name": "markets",
                                                                        "value": 2052
                                                                    }
                                                                ],
                                                                "depth": 4,
                                                                "name": "markets",
                                                                "value": 4035
                                                            },
                                                            {
                                                                "children": [],
                                                                "depth": 4,
                                                                "name": "underlying",
                                                                "value": 1126
                                                            },
                                                            {
                                                                "children": [],
                                                                "depth": 4,
                                                                "name": "assetPrices",
                                                                "value": 3344
                                                            }
                                                        ],
                                                        "depth": 3,
                                                        "name": "getUnderlyingPrice",
                                                        "value": 18728
                                                    }
                                                ],
                                                "depth": 2,
                                                "name": "redeemAllowed",
                                                "value": 257738
                                            }
                                        ],
                                        "depth": 1,
                                        "name": "redeemAllowed",
                                        "value": 259728
                                    },
                                    {
                                        "children": [],
                                        "depth": 1,
                                        "name": "balanceOf",
                                        "value": 1415
                                    },
                                    {
                                        "children": [],
                                        "depth": 1,
                                        "name": "transfer",
                                        "value": 15906
                                    },
                                    {
                                        "children": [
                                            {
                                                "children": [],
                                                "depth": 2,
                                                "name": "redeemVerify",
                                                "value": 380
                                            }
                                        ],
                                        "depth": 1,
                                        "name": "redeemVerify",
                                        "value": 2293
                                    }
                                ],
                                "depth": 0,
                                "name": "Executed Gas",
                                "value": 368338
                            }
                        ],
                        "depth": -1,
                        "name": "Actual Gas Used",
                        "value": 389602
                    },
                    {
                        "children": [],
                        "depth": -1,
                        "name": "Refunded Gas",
                        "value": 0
                    }
                ],
                "depth": -2,
                "name": "Total Gas",
                "value": 389602
            }
        ],
        "isConfirmed": true,
        "mainTrace": [
            {
                "children": [
                    {
                        "children": [
                            {
                                "children": [],
                                "depth": 1,
                                "id": 1,
                                "order": 1
                            },
                            {
                                "children": [],
                                "depth": 1,
                                "id": 2,
                                "order": 2
                            },
                            {
                                "children": [],
                                "depth": 1,
                                "id": 3,
                                "order": 3
                            },
                            {
                                "children": [],
                                "depth": 1,
                                "id": 4,
                                "order": 4
                            },
                            {
                                "children": [
                                    {
                                        "children": [
                                            {
                                                "children": [
                                                    {
                                                        "children": [],
                                                        "depth": 4,
                                                        "id": 8,
                                                        "order": 8
                                                    }
                                                ],
                                                "depth": 3,
                                                "id": 7,
                                                "order": 7
                                            },
                                            {
                                                "children": [
                                                    {
                                                        "children": [
                                                            {
                                                                "children": [],
                                                                "depth": 5,
                                                                "id": 11,
                                                                "order": 11
                                                            }
                                                        ],
                                                        "depth": 4,
                                                        "id": 10,
                                                        "order": 10
                                                    },
                                                    {
                                                        "children": [],
                                                        "depth": 4,
                                                        "id": 12,
                                                        "order": 12
                                                    },
                                                    {
                                                        "children": [],
                                                        "depth": 4,
                                                        "id": 13,
                                                        "order": 13
                                                    }
                                                ],
                                                "depth": 3,
                                                "id": 9,
                                                "order": 9
                                            },
                                            {
                                                "children": [
                                                    {
                                                        "children": [],
                                                        "depth": 4,
                                                        "id": 15,
                                                        "order": 15
                                                    }
                                                ],
                                                "depth": 3,
                                                "id": 14,
                                                "order": 14
                                            },
                                            {
                                                "children": [
                                                    {
                                                        "children": [
                                                            {
                                                                "children": [],
                                                                "depth": 5,
                                                                "id": 18,
                                                                "order": 18
                                                            }
                                                        ],
                                                        "depth": 4,
                                                        "id": 17,
                                                        "order": 17
                                                    },
                                                    {
                                                        "children": [
                                                            {
                                                                "children": [],
                                                                "depth": 5,
                                                                "id": 20,
                                                                "order": 20
                                                            }
                                                        ],
                                                        "depth": 4,
                                                        "id": 19,
                                                        "order": 19
                                                    },
                                                    {
                                                        "children": [],
                                                        "depth": 4,
                                                        "id": 21,
                                                        "order": 21
                                                    },
                                                    {
                                                        "children": [],
                                                        "depth": 4,
                                                        "id": 22,
                                                        "order": 22
                                                    }
                                                ],
                                                "depth": 3,
                                                "id": 16,
                                                "order": 16
                                            },
                                            {
                                                "children": [],
                                                "depth": 3,
                                                "id": 23,
                                                "order": 23
                                            },
                                            {
                                                "children": [
                                                    {
                                                        "children": [
                                                            {
                                                                "children": [],
                                                                "depth": 5,
                                                                "id": 26,
                                                                "order": 26
                                                            }
                                                        ],
                                                        "depth": 4,
                                                        "id": 25,
                                                        "order": 25
                                                    }
                                                ],
                                                "depth": 3,
                                                "id": 24,
                                                "order": 24
                                            },
                                            {
                                                "children": [
                                                    {
                                                        "children": [
                                                            {
                                                                "children": [],
                                                                "depth": 5,
                                                                "id": 29,
                                                                "order": 29
                                                            },
                                                            {
                                                                "children": [],
                                                                "depth": 5,
                                                                "id": 30,
                                                                "order": 30
                                                            }
                                                        ],
                                                        "depth": 4,
                                                        "id": 28,
                                                        "order": 28
                                                    }
                                                ],
                                                "depth": 3,
                                                "id": 27,
                                                "order": 27
                                            },
                                            {
                                                "children": [
                                                    {
                                                        "children": [
                                                            {
                                                                "children": [],
                                                                "depth": 5,
                                                                "id": 33,
                                                                "order": 33
                                                            }
                                                        ],
                                                        "depth": 4,
                                                        "id": 32,
                                                        "order": 32
                                                    },
                                                    {
                                                        "children": [],
                                                        "depth": 4,
                                                        "id": 34,
                                                        "order": 34
                                                    },
                                                    {
                                                        "children": [],
                                                        "depth": 4,
                                                        "id": 35,
                                                        "order": 35
                                                    }
                                                ],
                                                "depth": 3,
                                                "id": 31,
                                                "order": 31
                                            },
                                            {
                                                "children": [
                                                    {
                                                        "children": [
                                                            {
                                                                "children": [],
                                                                "depth": 5,
                                                                "id": 38,
                                                                "order": 38
                                                            }
                                                        ],
                                                        "depth": 4,
                                                        "id": 37,
                                                        "order": 37
                                                    }
                                                ],
                                                "depth": 3,
                                                "id": 36,
                                                "order": 36
                                            },
                                            {
                                                "children": [
                                                    {
                                                        "children": [
                                                            {
                                                                "children": [],
                                                                "depth": 5,
                                                                "id": 41,
                                                                "order": 41
                                                            }
                                                        ],
                                                        "depth": 4,
                                                        "id": 40,
                                                        "order": 40
                                                    },
                                                    {
                                                        "children": [
                                                            {
                                                                "children": [],
                                                                "depth": 5,
                                                                "id": 43,
                                                                "order": 43
                                                            }
                                                        ],
                                                        "depth": 4,
                                                        "id": 42,
                                                        "order": 42
                                                    }
                                                ],
                                                "depth": 3,
                                                "id": 39,
                                                "order": 39
                                            },
                                            {
                                                "children": [
                                                    {
                                                        "children": [],
                                                        "depth": 4,
                                                        "id": 45,
                                                        "order": 45
                                                    }
                                                ],
                                                "depth": 3,
                                                "id": 44,
                                                "order": 44
                                            },
                                            {
                                                "children": [
                                                    {
                                                        "children": [
                                                            {
                                                                "children": [],
                                                                "depth": 5,
                                                                "id": 48,
                                                                "order": 48
                                                            }
                                                        ],
                                                        "depth": 4,
                                                        "id": 47,
                                                        "order": 47
                                                    },
                                                    {
                                                        "children": [],
                                                        "depth": 4,
                                                        "id": 49,
                                                        "order": 49
                                                    },
                                                    {
                                                        "children": [],
                                                        "depth": 4,
                                                        "id": 50,
                                                        "order": 50
                                                    }
                                                ],
                                                "depth": 3,
                                                "id": 46,
                                                "order": 46
                                            }
                                        ],
                                        "depth": 2,
                                        "id": 6,
                                        "order": 6
                                    }
                                ],
                                "depth": 1,
                                "id": 5,
                                "order": 5
                            },
                            {
                                "children": [],
                                "depth": 1,
                                "id": 51,
                                "order": 51
                            },
                            {
                                "children": [
                                    {
                                        "children": [],
                                        "depth": 2,
                                        "id": 53,
                                        "order": 53
                                    }
                                ],
                                "depth": 1,
                                "id": 52,
                                "order": 52
                            },
                            {
                                "children": [],
                                "depth": 1,
                                "id": 54,
                                "order": 54
                            },
                            {
                                "children": [],
                                "depth": 1,
                                "id": 55,
                                "order": 55
                            },
                            {
                                "children": [
                                    {
                                        "children": [],
                                        "depth": 2,
                                        "id": 57,
                                        "order": 57
                                    }
                                ],
                                "depth": 1,
                                "id": 56,
                                "order": 56
                            }
                        ],
                        "depth": 0,
                        "id": 0,
                        "order": 0
                    }
                ],
                "depth": -1,
                "id": -1,
                "order": -1
            }
        ],
        "mainTraceNodeCount": 58,
        "parentIdMap": {
            "0": -1,
            "1": 0,
            "10": 9,
            "11": 10,
            "12": 9,
            "13": 9,
            "14": 6,
            "15": 14,
            "16": 6,
            "17": 16,
            "18": 17,
            "19": 16,
            "2": 0,
            "20": 19,
            "21": 16,
            "22": 16,
            "23": 6,
            "24": 6,
            "25": 24,
            "26": 25,
            "27": 6,
            "28": 27,
            "29": 28,
            "3": 0,
            "30": 28,
            "31": 6,
            "32": 31,
            "33": 32,
            "34": 31,
            "35": 31,
            "36": 6,
            "37": 36,
            "38": 37,
            "39": 6,
            "4": 0,
            "40": 39,
            "41": 40,
            "42": 39,
            "43": 42,
            "44": 6,
            "45": 44,
            "46": 6,
            "47": 46,
            "48": 47,
            "49": 46,
            "5": 0,
            "50": 46,
            "51": 0,
            "52": 0,
            "53": 52,
            "54": 0,
            "55": 0,
            "56": 0,
            "57": 56,
            "6": 5,
            "7": 6,
            "8": 7,
            "9": 6
        },
        "tidyTrace": [
            {
                "children": [
                    {
                        "children": [
                            {
                                "children": [],
                                "depth": 1,
                                "id": 3,
                                "order": 3
                            },
                            {
                                "children": [
                                    {
                                        "children": [],
                                        "depth": 2,
                                        "id": 6,
                                        "order": 6
                                    }
                                ],
                                "depth": 1,
                                "id": 5,
                                "order": 5
                            },
                            {
                                "children": [
                                    {
                                        "children": [],
                                        "depth": 2,
                                        "id": 53,
                                        "order": 53
                                    }
                                ],
                                "depth": 1,
                                "id": 52,
                                "order": 52
                            },
                            {
                                "children": [],
                                "depth": 1,
                                "id": 54,
                                "order": 54
                            },
                            {
                                "children": [],
                                "depth": 1,
                                "id": 55,
                                "order": 55
                            },
                            {
                                "children": [
                                    {
                                        "children": [],
                                        "depth": 2,
                                        "id": 57,
                                        "order": 57
                                    }
                                ],
                                "depth": 1,
                                "id": 56,
                                "order": 56
                            }
                        ],
                        "depth": 0,
                        "id": 0,
                        "order": 0
                    }
                ],
                "depth": -1,
                "id": -1,
                "order": -1
            }
        ],
        "tidyTraceNodeCount": 10
    },
    "state_change": {
        "stateChanges": [
            {
                "address": "0x89d24a6b4ccb1b6faa2625fe562bdd9a23260359",
                "erc": "ERC-20",
                "slots": [
                    {
                        "current": "0x00000000000000000000000000000000000000000000fe8ffecf18ad15d81e7b",
                        "key": "0x58dfd41f9cf2f2f13ea1a4b73f232fe8cf3188ddb2005316ad549408e7ce0645",
                        "prev": "0x00000000000000000000000000000000000000000000fe904432aa2f5acc1e7b"
                    },
                    {
                        "current": "0x0000000000000000000000000000000000000000000000008ac7230489e80000",
                        "key": "0xb5d65916c51d59b9f7db673bf49393f2d9545eafd1e0b66d29c8cfe76930f374",
                        "prev": "0x0000000000000000000000000000000000000000000000004563918244f40000"
                    }
                ],
                "storageVariables": [
                    {
                        "name": "_balances",
                        "type": "mapping(address => uint256)",
                        "value": {
                            "pairs": [
                                {
                                    "key": "0xec8e446c52f2d4ac9048aff1813c636ac8334fc9",
                                    "value": {
                                        "current": "10000000000000000000",
                                        "prev": "5000000000000000000",
                                        "typeTag": 1
                                    }
                                },
                                {
                                    "key": "0xf5dce57282a584d2746faf1593d3121fcac444dc",
                                    "value": {
                                        "current": "1202137331972767837855355",
                                        "prev": "1202142331972767837855355",
                                        "typeTag": 1
                                    }
                                }
                            ],
                            "typeTag": 4
                        }
                    }
                ]
            },
            {
                "address": "0xf5dce57282a584d2746faf1593d3121fcac444dc",
                "erc": "ERC-20",
                "slots": [
                    {
                        "current": "0x0000000000000000000000000000000000000000000005cc784481ba5b429ece",
                        "key": "0x000000000000000000000000000000000000000000000000000000000000000d",
                        "prev": "0x0000000000000000000000000000000000000000000005cc762d7ea849a9af74"
                    },
                    {
                        "current": "0x0000000000000000000000000000000000000000000000000000000000930ed8",
                        "key": "0x000000000000000000000000000000000000000000000000000000000000000a",
                        "prev": "0x0000000000000000000000000000000000000000000000000000000000930e6c"
                    },
                    {
                        "current": "0x0000000000000000000000000000000000000000000000000f8565f6bb49ee61",
                        "key": "0x000000000000000000000000000000000000000000000000000000000000000b",
                        "prev": "0x0000000000000000000000000000000000000000000000000f85612c76115090"
                    },
                    {
                        "current": "0x00000000000000000000000000000000000000000000876f3d643dde38ae16f1",
                        "key": "0x000000000000000000000000000000000000000000000000000000000000000c",
                        "prev": "0x00000000000000000000000000000000000000000000876f13980074d8bb63e0"
                    },
                    {
                        "current": "0x000000000000000000000000000000000000000000000000001e4541efbe6921",
                        "key": "0x000000000000000000000000000000000000000000000000000000000000000e",
                        "prev": "0x000000000000000000000000000000000000000000000000001e454767508f25"
                    },
                    {
                        "current": "0x0000000000000000000000000000000000000000000000000000071196dc9810",
                        "key": "0x0e3726cced5a2b3c5ccd1c323f281dd0969ec6af29c6f3627c279a8feffce9a1",
                        "prev": "0x000000000000000000000000000000000000000000000000000007170e6ebe14"
                    },
                    {
                        "current": "0x000000000000000000000000000000000000000000000000000000000001f02e",
                        "key": "0x0000000000000000000000000000000000000000000000000000000000000000",
                        "prev": "0x000000000000000000000000000000000000000000000000000000000001f02d"
                    }
                ],
                "storageVariables": [
                    {
                        "name": "accountTokens",
                        "type": "mapping(address => uint256)",
                        "value": {
                            "pairs": [
                                {
                                    "key": "0xec8e446c52f2d4ac9048aff1813c636ac8334fc9",
                                    "value": {
                                        "current": "7772126877712",
                                        "prev": "7795607780884",
                                        "typeTag": 1
                                    }
                                }
                            ],
                            "typeTag": 4
                        }
                    },
                    {
                        "name": "_guardCounter",
                        "type": "uint256",
                        "value": {
                            "current": "127022",
                            "prev": "127021",
                            "typeTag": 1
                        }
                    },
                    {
                        "name": "totalReserves",
                        "type": "uint256",
                        "value": {
                            "current": "27383634399605337267918",
                            "prev": "27383483807116657536884",
                            "typeTag": 1
                        }
                    },
                    {
                        "name": "accrualBlockNumber",
                        "type": "uint256",
                        "value": {
                            "current": "9637592",
                            "prev": "9637484",
                            "typeTag": 1
                        }
                    },
                    {
                        "name": "borrowIndex",
                        "type": "uint256",
                        "value": {
                            "current": "1118412192849981025",
                            "prev": "1118406926058737808",
                            "typeTag": 1
                        }
                    },
                    {
                        "name": "totalBorrows",
                        "type": "uint256",
                        "value": {
                            "current": "639571487508342491715313",
                            "prev": "639568475658568897094624",
                            "typeTag": 1
                        }
                    },
                    {
                        "name": "totalSupply",
                        "type": "uint256",
                        "value": {
                            "current": "8520398798743841",
                            "prev": "8520422279647013",
                            "typeTag": 1
                        }
                    }
                ]
            }
        ]
    }
}