{
    "balance_change": {
        "balanceChanges": [
            {
                "account": "0x11b14bcc67996bb5e90ce9c594bc6ba836fb6771",
                "assets": [
                    {
                        "address": "0xeeeeeeeeeeeeeeeeeeeeeeeeeeeeeeeeeeeeeeee",
                        "amount": "0.414051",
                        "iconUrl": "https://assets.blocksec.com/image/1663669189317-3.png",
                        "isERC1155": false,
                        "isERC721": false,
                        "sign": true,
                        "value": "1261.545392"
                    }
                ]
            },
            {
                "account": "0xe4bc3b42f4a04d82b4b5477a5d64fae867ab11fe",
                "assets": [
                    {
                        "address": "0xeeeeeeeeeeeeeeeeeeeeeeeeeeeeeeeeeeeeeeee",
                        "amount": "0.414051",
                        "iconUrl": "https://assets.blocksec.com/image/1663669189317-3.png",
                        "isERC1155": false,
                        "isERC721": false,
                        "sign": false,
                        "value": "1261.545392"
                    }
                ]
            }
        ]
    },
    "profile": {
        "basic_info": {
            "baseFee": "66.536450365",
            "blockNumber": 13308741,
            "callData": "0xe5ab4da2000000000000000000000000ac3090ad80c5fbfcbd4a0ac8e213f6553b79ad39000000000000000000000000000000000000000000000000000000000001b094",
            "debugEnable": true,
            "errorInfo": "",
            "eventCount": 0,
            "feeRecipient": "0x1ad91ee08f21be3de0ba2ba6918e714da6b45836",
            "formatValue": "0",
            "gasLimit": 250000,
            "gasPrice": "68.536450365",
            "gasUsed": 105814,
            "intTxnCount": 8,
            "internalRevert": false,
            "internalRevertMessage": "",
            "isContractCreation": false,
            "isFlashloan": false,
            "maxFee": "123",
            "nonce": 0,
            "overwritedBlockNumber": -1,
            "priorityFee": "2",
            "receiver": "0xf6874c88757721a02f47592140905c4336dfbc61",
            "revertMessage": "",
            "sender": "0xfdac23ccb52a6488c5411a1f4aee0af452997a07",
            "simulationEnable": true,
            "sourceTxnHash": "0x8a704d999c39b2ae741496fbfc24dd1e9c9fae011a82403146231849c9e05d52",
            "status": true,
            "timestamp": "2021-09-27T15:55:50Z",
            "transactionFee": "0.00725211595892211",
            "txnHash": "0x8a704d999c39b2ae741496fbfc24dd1e9c9fae011a82403146231849c9e05d52",
            "txnIndex": 225,
            "type": 2,
            "value": "0"
        },
        "fund_flow": [
            {
                "amount": "0.414051",
                "from": "0xe4bc3b42f4a04d82b4b5477a5d64fae867ab11fe",
                "id": 1,
                "isERC1155": false,
                "isERC721": false,
                "isReverted": false,
                "order": 1,
                "to": "0x11b14bcc67996bb5e90ce9c594bc6ba836fb6771",
                "token": "0xeeeeeeeeeeeeeeeeeeeeeeeeeeeeeeeeeeeeeeee"
            }
        ],
        "token_infos": [
            {
                "address": "0xc02aaa39b223fe8d0a0e5c4f27ead9083c756cc2",
                "decimals": 18
            },
            {
                "address": "0xeeeeeeeeeeeeeeeeeeeeeeeeeeeeeeeeeeeeeeee",
                "decimals": 18
            }
        ]
    },
    "address_label": {
        "labels": [
            {
                "address": "0x0000000000000000000000000000000000000004",
                "label": "Precompiled"
            },
            {
                "address": "0xeeeeeeeeeeeeeeeeeeeeeeeeeeeeeeeeeeeeeeee",
                "label": "Ether"
            },
            {
                "address": "0xfdac23ccb52a6488c5411a1f4aee0af452997a07",
                "label": "COINBASE"
            },
            {
                "address": "0xf6874c88757721a02f47592140905c4336dfbc61",
                "label": "Coinbase: Coinbase Commerce"
            },
            {
                "address": "0x0000000000000000000000000000000000000001",
                "label": "Precompiled"
            },
            {
                "address": "0x0000000000000000000000000000000000000002",
                "label": "Precompiled"
            },
            {
                "address": "0x0000000000000000000000000000000000000003",
                "label": "Precompiled"
            }
        ]
    },
    "trace": {
        "accountLabels": null,
        "dataMap": {
            "-1": {
                "invocation": {
                    "address": "0xfdac23ccb52a6488c5411a1f4aee0af452997a07",
                    "callData": "",
                    "decodedMethod": null,
                    "errorInfo": "",
                    "fromAddress": "",
                    "gasUsed": 0,
                    "id": -1,
                    "methodDecoded": false,
                    "operation": "",
                    "output": "",
                    "revert": false,
                    "revertMessage": "",
                    "selector": "",
                    "status": false,
                    "value": ""
                },
                "nodeType": 0
            },
            "0": {
                "invocation": {
                    "address": "0xf6874c88757721a02f47592140905c4336dfbc61",
                    "callData": "0x000000000000000000000000ac3090ad80c5fbfcbd4a0ac8e213f6553b79ad39000000000000000000000000000000000000000000000000000000000001b094",
                    "decodedMethod": null,
                    "errorInfo": "",
                    "fromAddress": "0xfdac23ccb52a6488c5411a1f4aee0af452997a07",
                    "gasUsed": 105814,
                    "id": 0,
                    "methodDecoded": false,
                    "operation": "CALL",
                    "output": "0x000000000000000000000000e4bc3b42f4a04d82b4b5477a5d64fae867ab11fe",
                    "revert": false,
                    "revertMessage": "",
                    "selector": "0xe5ab4da2",
                    "status": true,
                    "value": "0"
                },
                "nodeType": 0
            },
            "1": {
                "invocation": {
                    "address": "0xe4bc3b42f4a04d82b4b5477a5d64fae867ab11fe",
                    "callData": "0x3d602d80600a3d3981f3363d3d373d3d3d363d73ac3090ad80c5fbfcbd4a0ac8e213f6553b79ad395af43d82803e903d91602b57fd5bf3",
                    "decodedMethod": null,
                    "errorInfo": "",
                    "fromAddress": "0xf6874c88757721a02f47592140905c4336dfbc61",
                    "gasUsed": 9031,
                    "id": 1,
                    "methodDecoded": false,
                    "operation": "CREATE2",
                    "output": "0x363d3d373d3d3d363d73ac3090ad80c5fbfcbd4a0ac8e213f6553b79ad395af43d82803e903d91602b57fd5bf3",
                    "revert": false,
                    "revertMessage": "",
                    "selector": "",
                    "status": true,
                    "value": "0"
                },
                "nodeType": 0
            },
            "2": {
                "invocation": {
                    "address": "0xac3090ad80c5fbfcbd4a0ac8e213f6553b79ad39",
                    "callData": "0x",
                    "decodedMethod": {
                        "callParams": [],
                        "constructorArguments": "",
                        "name": "destination",
                        "returnParams": [
                            {
                                "name": "",
                                "type": "address",
                                "value": "0x11b14bcc67996bb5e90ce9c594bc6ba836fb6771"
                            }
                        ],
                        "signature": "destination()"
                    },
                    "errorInfo": "",
                    "fromAddress": "0xf6874c88757721a02f47592140905c4336dfbc61",
                    "gasUsed": 2495,
                    "id": 2,
                    "methodDecoded": true,
                    "operation": "STATICCALL",
                    "output": "0x00000000000000000000000011b14bcc67996bb5e90ce9c594bc6ba836fb6771",
                    "revert": false,
                    "revertMessage": "",
                    "selector": "0xb269681d",
                    "status": true,
                    "value": "0"
                },
                "nodeType": 0
            },
            "3": {
                "invocation": {
                    "address": "0xe4bc3b42f4a04d82b4b5477a5d64fae867ab11fe",
                    "callData": "0x00000000000000000000000011b14bcc67996bb5e90ce9c594bc6ba836fb6771",
                    "decodedMethod": {
                        "callParams": [
                            {
                                "name": "controller_",
                                "type": "address",
                                "value": "0x11b14bcc67996bb5e90ce9c594bc6ba836fb6771"
                            }
                        ],
                        "constructorArguments": "",
                        "name": "init",
                        "returnParams": [],
                        "signature": "init(address)"
                    },
                    "errorInfo": "",
                    "fromAddress": "0xf6874c88757721a02f47592140905c4336dfbc61",
                    "gasUsed": 22817,
                    "id": 3,
                    "methodDecoded": true,
                    "operation": "CALL",
                    "output": "",
                    "revert": false,
                    "revertMessage": "",
                    "selector": "0x19ab453c",
                    "status": true,
                    "value": "0"
                },
                "nodeType": 0
            },
            "4": {
                "invocation": {
                    "address": "0xac3090ad80c5fbfcbd4a0ac8e213f6553b79ad39",
                    "callData": "0x00000000000000000000000011b14bcc67996bb5e90ce9c594bc6ba836fb6771",
                    "decodedMethod": {
                        "callParams": [
                            {
                                "name": "controller_",
                                "type": "address",
                                "value": "0x11b14bcc67996bb5e90ce9c594bc6ba836fb6771"
                            }
                        ],
                        "constructorArguments": "",
                        "name": "init",
                        "returnParams": [],
                        "signature": "init(address)"
                    },
                    "errorInfo": "",
                    "fromAddress": "0xe4bc3b42f4a04d82b4b5477a5d64fae867ab11fe",
                    "gasUsed": 22648,
                    "id": 4,
                    "methodDecoded": true,
                    "operation": "DELEGATECALL",
                    "output": "",
                    "revert": false,
                    "revertMessage": "",
                    "selector": "0x19ab453c",
                    "status": true,
                    "value": "0"
                },
                "nodeType": 0
            },
            "5": {
                "invocation": {
                    "address": "0xe4bc3b42f4a04d82b4b5477a5d64fae867ab11fe",
                    "callData": "0x",
                    "decodedMethod": {
                        "callParams": [],
                        "constructorArguments": "",
                        "name": "flushETH",
                        "returnParams": [],
                        "signature": "flushETH()"
                    },
                    "errorInfo": "",
                    "fromAddress": "0xf6874c88757721a02f47592140905c4336dfbc61",
                    "gasUsed": 13214,
                    "id": 5,
                    "methodDecoded": true,
                    "operation": "CALL",
                    "output": "",
                    "revert": false,
                    "revertMessage": "",
                    "selector": "0x69f8ef0c",
                    "status": true,
                    "value": "0"
                },
                "nodeType": 0
            },
            "6": {
                "invocation": {
                    "address": "0xac3090ad80c5fbfcbd4a0ac8e213f6553b79ad39",
                    "callData": "0x",
                    "decodedMethod": {
                        "callParams": [],
                        "constructorArguments": "",
                        "name": "flushETH",
                        "returnParams": [],
                        "signature": "flushETH()"
                    },
                    "errorInfo": "",
                    "fromAddress": "0xe4bc3b42f4a04d82b4b5477a5d64fae867ab11fe",
                    "gasUsed": 13051,
                    "id": 6,
                    "methodDecoded": true,
                    "operation": "DELEGATECALL",
                    "output": "",
                    "revert": false,
                    "revertMessage": "",
                    "selector": "0x69f8ef0c",
                    "status": true,
                    "value": "0"
                },
                "nodeType": 0
            },
            "7": {
                "invocation": {
                    "address": "0xca5faf4c4134bc4f43e910c857723a744b0d2d68",
                    "callData": "0x00000000000000000000000011b14bcc67996bb5e90ce9c594bc6ba836fb6771",
                    "decodedMethod": {
                        "callParams": [
                            {
                                "name": "to",
                                "type": "address",
                                "value": "0x11b14bcc67996bb5e90ce9c594bc6ba836fb6771"
                            }
                        ],
                        "constructorArguments": "",
                        "name": "flushETH",
                        "returnParams": [],
                        "signature": "flushETH(address)"
                    },
                    "errorInfo": "",
                    "fromAddress": "0xe4bc3b42f4a04d82b4b5477a5d64fae867ab11fe",
                    "gasUsed": 9847,
                    "id": 7,
                    "methodDecoded": true,
                    "operation": "DELEGATECALL",
                    "output": "",
                    "revert": false,
                    "revertMessage": "",
                    "selector": "0xdc426881",
                    "status": true,
                    "value": "0"
                },
                "nodeType": 0
            },
            "8": {
                "invocation": {
                    "address": "0x11b14bcc67996bb5e90ce9c594bc6ba836fb6771",
                    "callData": "0x",
                    "decodedMethod": null,
                    "errorInfo": "",
                    "fromAddress": "0xe4bc3b42f4a04d82b4b5477a5d64fae867ab11fe",
                    "gasUsed": 0,
                    "id": 8,
                    "methodDecoded": false,
                    "operation": "CALL",
                    "output": "",
                    "revert": false,
                    "revertMessage": "",
                    "selector": "fallback",
                    "status": true,
                    "value": "0.414051"
                },
                "nodeType": 0
            }
        },
        "gasFlame": [
            {
                "children": [
                    {
                        "children": [
                            {
                                "children": [],
                                "depth": 0,
                                "name": "Initial Gas",
                                "value": 21596
                            },
                            {
                                "children": [
                                    {
                                        "children": [],
                                        "depth": 1,
                                        "name": "contract creation",
                                        "value": 9031
                                    },
                                    {
                                        "children": [],
                                        "depth": 1,
                                        "name": "destination",
                                        "value": 2495
                                    },
                                    {
                                        "children": [
                                            {
                                                "children": [],
                                                "depth": 2,
                                                "name": "init",
                                                "value": 22648
                                            }
                                        ],
                                        "depth": 1,
                                        "name": "init",
                                        "value": 22817
                                    },
                                    {
                                        "children": [
                                            {
                                                "children": [
                                                    {
                                                        "children": [
                                                            {
                                                                "children": [],
                                                                "depth": 4,
                                                                "name": "fallback",
                                                                "value": 0
                                                            }
                                                        ],
                                                        "depth": 3,
                                                        "name": "flushETH",
                                                        "value": 9847
                                                    }
                                                ],
                                                "depth": 2,
                                                "name": "flushETH",
                                                "value": 13051
                                            }
                                        ],
                                        "depth": 1,
                                        "name": "flushETH",
                                        "value": 13214
                                    }
                                ],
                                "depth": 0,
                                "name": "Executed Gas",
                                "value": 84218
                            }
                        ],
                        "depth": -1,
                        "name": "Actual Gas Used",
                        "value": 105814
                    },
                    {
                        "children": [],
                        "depth": -1,
                        "name": "Refunded Gas",
                        "value": 0
                    }
                ],
                "depth": -2,
                "name": "Total Gas",
                "value": 105814
            }
        ],
        "isConfirmed": true,
        "mainTrace": [
            {
                "children": [
                    {
                        "children": [
                            {
                                "children": [],
                                "depth": 1,
                                "id": 1,
                                "order": 1
                            },
                            {
                                "children": [],
                                "depth": 1,
                                "id": 2,
                                "order": 2
                            },
                            {
                                "children": [
                                    {
                                        "children": [],
                                        "depth": 2,
                                        "id": 4,
                                        "order": 4
                                    }
                                ],
                                "depth": 1,
                                "id": 3,
                                "order": 3
                            },
                            {
                                "children": [
                                    {
                                        "children": [
                                            {
                                                "children": [
                                                    {
                                                        "children": [],
                                                        "depth": 4,
                                                        "id": 8,
                                                        "order": 8
                                                    }
                                                ],
                                                "depth": 3,
                                                "id": 7,
                                                "order": 7
                                            }
                                        ],
                                        "depth": 2,
                                        "id": 6,
                                        "order": 6
                                    }
                                ],
                                "depth": 1,
                                "id": 5,
                                "order": 5
                            }
                        ],
                        "depth": 0,
                        "id": 0,
                        "order": 0
                    }
                ],
                "depth": -1,
                "id": -1,
                "order": -1
            }
        ],
        "mainTraceNodeCount": 9,
        "parentIdMap": {
            "0": -1,
            "1": 0,
            "2": 0,
            "3": 0,
            "4": 3,
            "5": 0,
            "6": 5,
            "7": 6,
            "8": 7
        },
        "tidyTrace": [
            {
                "children": [
                    {
                        "children": [
                            {
                                "children": [],
                                "depth": 1,
                                "id": 1,
                                "order": 1
                            },
                            {
                                "children": [
                                    {
                                        "children": [],
                                        "depth": 2,
                                        "id": 4,
                                        "order": 4
                                    }
                                ],
                                "depth": 1,
                                "id": 3,
                                "order": 3
                            },
                            {
                                "children": [
                                    {
                                        "children": [
                                            {
                                                "children": [
                                                    {
                                                        "children": [],
                                                        "depth": 4,
                                                        "id": 8,
                                                        "order": 8
                                                    }
                                                ],
                                                "depth": 3,
                                                "id": 7,
                                                "order": 7
                                            }
                                        ],
                                        "depth": 2,
                                        "id": 6,
                                        "order": 6
                                    }
                                ],
                                "depth": 1,
                                "id": 5,
                                "order": 5
                            }
                        ],
                        "depth": 0,
                        "id": 0,
                        "order": 0
                    }
                ],
                "depth": -1,
                "id": -1,
                "order": -1
            }
        ],
        "tidyTraceNodeCount": 8
    },
    "state_change": {
        "stateChanges": [
            {
                "address": "0xe4bc3b42f4a04d82b4b5477a5d64fae867ab11fe",
                "erc": "",
                "slots": [
                    {
                        "current": "0x00000000000000000000000011b14bcc67996bb5e90ce9c594bc6ba836fb6771",
                        "key": "0x0000000000000000000000000000000000000000000000000000000000000000",
                        "prev": "0x0000000000000000000000000000000000000000000000000000000000000000"
                    }
                ],
                "storageVariables": []
            }
        ]
    }
}