{
    "balance_change": {
        "balanceChanges": [
            {
                "account": "0x88bd4d3e2997371bceefe8d9386c6b5b4de60346",
                "assets": [
                    {
                        "address": "0xdac17f958d2ee523a2206206994597c13d831ec7",
                        "amount": "388.656094",
                        "iconUrl": "https://assets.blocksec.com/icon/fcea71f3193ce895be44bfdf941f7e4c9381dd587f273c2d1a27f1263d84e4ea.png",
                        "isERC1155": false,
                        "isERC721": false,
                        "sign": true,
                        "value": "387.6979635"
                    }
                ]
            },
            {
                "account": "0xbfc0693f34e15d5a2718c5b45eb0b95cabe37719",
                "assets": [
                    {
                        "address": "0xdac17f958d2ee523a2206206994597c13d831ec7",
                        "amount": "388.656094",
                        "iconUrl": "https://assets.blocksec.com/icon/fcea71f3193ce895be44bfdf941f7e4c9381dd587f273c2d1a27f1263d84e4ea.png",
                        "isERC1155": false,
                        "isERC721": false,
                        "sign": false,
                        "value": "387.6979635"
                    }
                ]
            }
        ]
    },
    "profile": {
        "basic_info": {
            "baseFee": "80.820091981",
            "blockNumber": 14763675,
            "callData": "0x23b872dd000000000000000000000000bfc0693f34e15d5a2718c5b45eb0b95cabe3771900000000000000000000000088bd4d3e2997371bceefe8d9386c6b5b4de6034600000000000000000000000000000000000000000000000000000000172a6bde",
            "debugEnable": true,
            "errorInfo": "",
            "eventCount": 1,
            "feeRecipient": "0xab3b229eb4bcff881275e7ea2f0fd24eeac8c83a",
            "formatValue": "0",
            "gasLimit": 100000,
            "gasPrice": "81.820091981",
            "gasUsed": 43706,
            "intTxnCount": 0,
            "internalRevert": false,
            "internalRevertMessage": "",
            "isContractCreation": false,
            "isFlashloan": false,
            "maxFee": "90.882410859",
            "nonce": 256447,
            "overwritedBlockNumber": -1,
            "priorityFee": "1",
            "receiver": "0xdac17f958d2ee523a2206206994597c13d831ec7",
            "revertMessage": "",
            "sender": "0xa152f8bb749c55e9943a3a0a3111d18ee2b3f94e",
            "simulationEnable": true,
            "sourceTxnHash": "0x8abe1c2958db476ed7e4ab8794d844e5aaad3a385f9e66d16dffe2cf7b31430a",
            "status": true,
            "timestamp": "2022-05-12T22:22:39Z",
            "transactionFee": "0.003576028940121586",
            "txnHash": "0x8abe1c2958db476ed7e4ab8794d844e5aaad3a385f9e66d16dffe2cf7b31430a",
            "txnIndex": 129,
            "type": 2,
            "value": "0"
        },
        "fund_flow": [
            {
                "amount": "388.656094",
                "from": "0xbfc0693f34e15d5a2718c5b45eb0b95cabe37719",
                "id": 1,
                "isERC1155": false,
                "isERC721": false,
                "isReverted": false,
                "order": 1,
                "to": "0x88bd4d3e2997371bceefe8d9386c6b5b4de60346",
                "token": "0xdac17f958d2ee523a2206206994597c13d831ec7"
            }
        ],
        "token_infos": [
            {
                "address": "0xc02aaa39b223fe8d0a0e5c4f27ead9083c756cc2",
                "decimals": 18
            },
            {
                "address": "0xdac17f958d2ee523a2206206994597c13d831ec7",
                "decimals": 6
            },
            {
                "address": "0xeeeeeeeeeeeeeeeeeeeeeeeeeeeeeeeeeeeeeeee",
                "decimals": 18
            }
        ]
    },
    "address_label": {
        "labels": [
            {
                "address": "0x0000000000000000000000000000000000000003",
                "label": "Precompiled"
            },
            {
                "address": "0xeeeeeeeeeeeeeeeeeeeeeeeeeeeeeeeeeeeeeeee",
                "label": "Ether"
            },
            {
                "address": "0xbfc0693f34e15d5a2718c5b45eb0b95cabe37719",
                "label": "KUCOIN"
            },
            {
                "address": "0xa152f8bb749c55e9943a3a0a3111d18ee2b3f94e",
                "label": "KuCoin 22"
            },
            {
                "address": "0xdac17f958d2ee523a2206206994597c13d831ec7",
                "label": "Tether: USDT Stablecoin"
            },
            {
                "address": "0x88bd4d3e2997371bceefe8d9386c6b5b4de60346",
                "label": "KuCoin 14"
            },
            {
                "address": "0x0000000000000000000000000000000000000001",
                "label": "Precompiled"
            },
            {
                "address": "0x0000000000000000000000000000000000000002",
                "label": "Precompiled"
            },
            {
                "address": "0x0000000000000000000000000000000000000004",
                "label": "Precompiled"
            }
        ]
    },
    "trace": {
        "accountLabels": null,
        "dataMap": {
            "-1": {
                "invocation": {
                    "address": "0xa152f8bb749c55e9943a3a0a3111d18ee2b3f94e",
                    "callData": "",
                    "decodedMethod": null,
                    "errorInfo": "",
                    "fromAddress": "",
                    "gasUsed": 0,
                    "id": -1,
                    "methodDecoded": false,
                    "operation": "",
                    "output": "",
                    "revert": false,
                    "revertMessage": "",
                    "selector": "",
                    "status": false,
                    "value": ""
                },
                "nodeType": 0
            },
            "0": {
                "invocation": {
                    "address": "0xdac17f958d2ee523a2206206994597c13d831ec7",
                    "callData": "0x000000000000000000000000bfc0693f34e15d5a2718c5b45eb0b95cabe3771900000000000000000000000088bd4d3e2997371bceefe8d9386c6b5b4de6034600000000000000000000000000000000000000000000000000000000172a6bde",
                    "decodedMethod": {
                        "callParams": [
                            {
                                "name": "_from",
                                "type": "address",
                                "value": "0xbfc0693f34e15d5a2718c5b45eb0b95cabe37719"
                            },
                            {
                                "name": "_to",
                                "type": "address",
                                "value": "0x88bd4d3e2997371bceefe8d9386c6b5b4de60346"
                            },
                            {
                                "decimalAvailable": true,
                                "name": "_value",
                                "type": "uint256",
                                "value": "388,656,094"
                            }
                        ],
                        "constructorArguments": "",
                        "name": "transferFrom",
                        "returnParams": [],
                        "signature": "transferFrom(address,address,uint256)"
                    },
                    "errorInfo": "",
                    "fromAddress": "0xa152f8bb749c55e9943a3a0a3111d18ee2b3f94e",
                    "gasUsed": 43706,
                    "id": 0,
                    "methodDecoded": true,
                    "operation": "CALL",
                    "output": "",
                    "revert": false,
                    "revertMessage": "",
                    "selector": "0x23b872dd",
                    "status": true,
                    "value": "0"
                },
                "nodeType": 0
            },
            "1": {
                "event": {
                    "contract": "0xdac17f958d2ee523a2206206994597c13d831ec7",
                    "decodedLog": {
                        "name": "Transfer",
                        "params": [
                            {
                                "name": "from",
                                "type": "address",
                                "value": "0xbfc0693f34e15d5a2718c5b45eb0b95cabe37719"
                            },
                            {
                                "name": "to",
                                "type": "address",
                                "value": "0x88bd4d3e2997371bceefe8d9386c6b5b4de60346"
                            },
                            {
                                "decimalAvailable": true,
                                "name": "value",
                                "type": "uint256",
                                "value": "388,656,094"
                            }
                        ],
                        "signature": "Transfer(address,address,uint256)"
                    },
                    "id": 1,
                    "logData": "0x00000000000000000000000000000000000000000000000000000000172a6bde",
                    "logDecoded": true,
                    "operation": "EVENT",
                    "revert": false,
                    "status": true,
                    "topics": [
                        "0xddf252ad1be2c89b69c2b068fc378daa952ba7f163c4a11628f55a4df523b3ef",
                        "0x000000000000000000000000bfc0693f34e15d5a2718c5b45eb0b95cabe37719",
                        "0x00000000000000000000000088bd4d3e2997371bceefe8d9386c6b5b4de60346"
                    ]
                },
                "nodeType": 1
            }
        },
        "gasFlame": [
            {
                "children": [
                    {
                        "children": [
                            {
                                "children": [],
                                "depth": 0,
                                "name": "Initial Gas",
                                "value": 21976
                            },
                            {
                                "children": [],
                                "depth": 0,
                                "name": "Executed Gas",
                                "value": 26530
                            }
                        ],
                        "depth": -1,
                        "name": "Actual Gas Used",
                        "value": 43706
                    },
                    {
                        "children": [],
                        "depth": -1,
                        "name": "Refunded Gas",
                        "value": 4800
                    }
                ],
                "depth": -2,
                "name": "Total Gas",
                "value": 48506
            }
        ],
        "isConfirmed": true,
        "mainTrace": [
            {
                "children": [
                    {
                        "children": [
                            {
                                "children": [],
                                "depth": 1,
                                "id": 1,
                                "order": 1
                            }
                        ],
                        "depth": 0,
                        "id": 0,
                        "order": 0
                    }
                ],
                "depth": -1,
                "id": -1,
                "order": -1
            }
        ],
        "mainTraceNodeCount": 2,
        "parentIdMap": {
            "0": -1,
            "1": 0
        },
        "tidyTrace": [
            {
                "children": [
                    {
                        "children": [
                            {
                                "children": [],
                                "depth": 1,
                                "id": 1,
                                "order": 1
                            }
                        ],
                        "depth": 0,
                        "id": 0,
                        "order": 0
                    }
                ],
                "depth": -1,
                "id": -1,
                "order": -1
            }
        ],
        "tidyTraceNodeCount": 2
    },
    "state_change": {
        "stateChanges": [
            {
                "address": "0xdac17f958d2ee523a2206206994597c13d831ec7",
                "erc": "ERC-20",
                "slots": [
                    {
                        "current": "0x0000000000000000000000000000000000000000000000000000000000000000",
                        "key": "0x7718e60a16295b7d298dab405fcb82834225f05a531b99f27e883e3a37103535",
                        "prev": "0x00000000000000000000000000000000000000000000000000000000172a6bde"
                    },
                    {
                        "current": "0x00000000000000000000000000000000000000000000000000002f069e419c2a",
                        "key": "0xc806a501ca2932d42386522c650889ab081cf492e3b29bf3b990525f090538e4",
                        "prev": "0x00000000000000000000000000000000000000000000000000002f068717304c"
                    }
                ],
                "storageVariables": [
                    {
                        "name": "balances",
                        "type": "mapping(address => uint256)",
                        "value": {
                            "pairs": [
                                {
                                    "key": "0x88bd4d3e2997371bceefe8d9386c6b5b4de60346",
                                    "value": {
                                        "current": "51705471409194",
                                        "prev": "51705082753100",
                                        "typeTag": 1
                                    }
                                },
                                {
                                    "key": "0xbfc0693f34e15d5a2718c5b45eb0b95cabe37719",
                                    "value": {
                                        "current": "0",
                                        "prev": "388656094",
                                        "typeTag": 1
                                    }
                                }
                            ],
                            "typeTag": 4
                        }
                    }
                ]
            }
        ]
    }
}