{
    "balance_change": {
        "balanceChanges": [
            {
                "account": "0x2d16bf6c8bad562cb1b3cbd87ea7913993cd8e39",
                "assets": [
                    {
                        "address": "0xeeeeeeeeeeeeeeeeeeeeeeeeeeeeeeeeeeeeeeee",
                        "amount": "0.18",
                        "iconUrl": "https://assets.blocksec.com/image/1663669189317-3.png",
                        "isERC1155": false,
                        "isERC721": false,
                        "sign": false,
                        "value": "339.2711999999999853"
                    },
                    {
                        "address": "0x4832b4423c35311f9dc0c2d03b29e68b176d40cc",
                        "amount": "1",
                        "iconUrl": "",
                        "isERC1155": true,
                        "isERC721": false,
                        "sign": true,
                        "tokenID": "1",
                        "value": ""
                    }
                ]
            },
            {
                "account": "0x4832b4423c35311f9dc0c2d03b29e68b176d40cc",
                "assets": [
                    {
                        "address": "0xeeeeeeeeeeeeeeeeeeeeeeeeeeeeeeeeeeeeeeee",
                        "amount": "0.18",
                        "iconUrl": "https://assets.blocksec.com/image/1663669189317-3.png",
                        "isERC1155": false,
                        "isERC721": false,
                        "sign": true,
                        "value": "339.2711999999999853"
                    }
                ]
            },
            {
                "account": "0x0000000000000000000000000000000000000000",
                "assets": [
                    {
                        "address": "0x4832b4423c35311f9dc0c2d03b29e68b176d40cc",
                        "amount": "1",
                        "iconUrl": "",
                        "isERC1155": true,
                        "isERC721": false,
                        "sign": false,
                        "tokenID": "1",
                        "value": ""
                    }
                ]
            }
        ]
    },
    "profile": {
        "basic_info": {
            "baseFee": "77.905431049",
            "blockNumber": 17423297,
            "callData": "0x98b1e06a00000000000000000000000000000000000000000000000000000000000000200000000000000000000000000000000000000000000000000000000000000000",
            "debugEnable": true,
            "errorInfo": "",
            "eventCount": 1,
            "feeRecipient": "0x3e3753491f224571dd8d7e925b73cc685ab0aae4",
            "formatValue": "0.18",
            "gasLimit": 197180,
            "gasPrice": "79",
            "gasUsed": 194597,
            "intTxnCount": 2,
            "internalRevert": false,
            "internalRevertMessage": "",
            "isContractCreation": false,
            "isFlashloan": false,
            "maxFee": "79",
            "nonce": 1160,
            "overwritedBlockNumber": -1,
            "priorityFee": "79",
            "receiver": "0x4832b4423c35311f9dc0c2d03b29e68b176d40cc",
            "revertMessage": "",
            "sender": "0x2d16bf6c8bad562cb1b3cbd87ea7913993cd8e39",
            "simulationEnable": true,
            "sourceTxnHash": "0x8a812f051530ef207a88874cea5cf37dadec2ce044574fa2d923bbd20cb751ea",
            "status": true,
            "timestamp": "2023-06-06T18:52:47Z",
            "transactionFee": "0.015373163",
            "txnHash": "0x8a812f051530ef207a88874cea5cf37dadec2ce044574fa2d923bbd20cb751ea",
            "txnIndex": 117,
            "type": 2,
            "value": "180000000000000000"
        },
        "fund_flow": [
            {
                "amount": "0.18",
                "from": "0x2d16bf6c8bad562cb1b3cbd87ea7913993cd8e39",
                "id": 1,
                "isERC1155": false,
                "isERC721": false,
                "isReverted": false,
                "order": 1,
                "to": "0x4832b4423c35311f9dc0c2d03b29e68b176d40cc",
                "token": "0xeeeeeeeeeeeeeeeeeeeeeeeeeeeeeeeeeeeeeeee"
            },
            {
                "amount": "1",
                "from": "0x0000000000000000000000000000000000000000",
                "id": 2,
                "isERC1155": true,
                "isERC721": false,
                "isReverted": false,
                "order": 2,
                "to": "0x2d16bf6c8bad562cb1b3cbd87ea7913993cd8e39",
                "token": "0x4832b4423c35311f9dc0c2d03b29e68b176d40cc",
                "tokenID": "1"
            }
        ],
        "token_infos": [
            {
                "address": "0xc02aaa39b223fe8d0a0e5c4f27ead9083c756cc2",
                "decimals": 18
            },
            {
                "address": "0xeeeeeeeeeeeeeeeeeeeeeeeeeeeeeeeeeeeeeeee",
                "decimals": 18
            }
        ]
    },
    "address_label": {
        "labels": [
            {
                "address": "0x4e77d69b6f971a16fd24c8f9ed88546f12f8e06f",
                "label": "SimpleVaultIO"
            },
            {
                "address": "0x0000000000000000000000000000000000000001",
                "label": "Precompiled"
            },
            {
                "address": "0x0000000000000000000000000000000000000002",
                "label": "Precompiled"
            },
            {
                "address": "0x0000000000000000000000000000000000000003",
                "label": "Precompiled"
            },
            {
                "address": "0x0000000000000000000000000000000000000004",
                "label": "Precompiled"
            },
            {
                "address": "0xeeeeeeeeeeeeeeeeeeeeeeeeeeeeeeeeeeeeeeee",
                "label": "Ether"
            },
            {
                "address": "0x4832b4423c35311f9dc0c2d03b29e68b176d40cc",
                "label": "ShardVault 11 (BONGS)"
            },
            {
                "address": "0x9d781ec50967ce6bb4f0714d36b3a21b1d94596f",
                "label": "SimpleVaultDiamond"
            }
        ]
    },
    "trace": {
        "accountLabels": null,
        "dataMap": {
            "-1": {
                "invocation": {
                    "address": "0x2d16bf6c8bad562cb1b3cbd87ea7913993cd8e39",
                    "callData": "",
                    "decodedMethod": null,
                    "errorInfo": "",
                    "fromAddress": "",
                    "gasUsed": 0,
                    "id": -1,
                    "methodDecoded": false,
                    "operation": "",
                    "output": "",
                    "revert": false,
                    "revertMessage": "",
                    "selector": "",
                    "status": false,
                    "value": ""
                },
                "nodeType": 0
            },
            "0": {
                "invocation": {
                    "address": "0x4832b4423c35311f9dc0c2d03b29e68b176d40cc",
                    "callData": "0x00000000000000000000000000000000000000000000000000000000000000200000000000000000000000000000000000000000000000000000000000000000",
                    "decodedMethod": {
                        "callParams": [
                            {
                                "name": "seed",
                                "type": "bytes",
                                "value": "0x"
                            }
                        ],
                        "constructorArguments": "",
                        "name": "deposit",
                        "returnParams": [],
                        "signature": "deposit(bytes)"
                    },
                    "errorInfo": "",
                    "fromAddress": "0x2d16bf6c8bad562cb1b3cbd87ea7913993cd8e39",
                    "gasUsed": 194597,
                    "id": 0,
                    "methodDecoded": true,
                    "operation": "CALL",
                    "output": "",
                    "revert": false,
                    "revertMessage": "",
                    "selector": "0x98b1e06a",
                    "status": true,
                    "value": "0.18"
                },
                "nodeType": 0
            },
            "1": {
                "invocation": {
                    "address": "0x9d781ec50967ce6bb4f0714d36b3a21b1d94596f",
                    "callData": "0x98b1e06a00000000000000000000000000000000000000000000000000000000",
                    "decodedMethod": {
                        "callParams": [
                            {
                                "name": "selector",
                                "type": "bytes4",
                                "value": "0x98b1e06a"
                            }
                        ],
                        "constructorArguments": "",
                        "name": "facetAddress",
                        "returnParams": [
                            {
                                "name": "facet",
                                "type": "address",
                                "value": "0x4e77d69b6f971a16fd24c8f9ed88546f12f8e06f"
                            }
                        ],
                        "signature": "facetAddress(bytes4)"
                    },
                    "errorInfo": "",
                    "fromAddress": "0x4832b4423c35311f9dc0c2d03b29e68b176d40cc",
                    "gasUsed": 2645,
                    "id": 1,
                    "methodDecoded": true,
                    "operation": "STATICCALL",
                    "output": "0x0000000000000000000000004e77d69b6f971a16fd24c8f9ed88546f12f8e06f",
                    "revert": false,
                    "revertMessage": "",
                    "selector": "0xcdffacc6",
                    "status": true,
                    "value": "0"
                },
                "nodeType": 0
            },
            "2": {
                "invocation": {
                    "address": "0x4e77d69b6f971a16fd24c8f9ed88546f12f8e06f",
                    "callData": "0x00000000000000000000000000000000000000000000000000000000000000200000000000000000000000000000000000000000000000000000000000000000",
                    "decodedMethod": {
                        "callParams": [
                            {
                                "name": "data",
                                "type": "bytes",
                                "value": "0x"
                            }
                        ],
                        "constructorArguments": "",
                        "name": "deposit",
                        "returnParams": [],
                        "signature": "deposit(bytes)"
                    },
                    "errorInfo": "",
                    "fromAddress": "0x4832b4423c35311f9dc0c2d03b29e68b176d40cc",
                    "gasUsed": 164808,
                    "id": 2,
                    "methodDecoded": true,
                    "operation": "DELEGATECALL",
                    "output": "",
                    "revert": false,
                    "revertMessage": "",
                    "selector": "0x98b1e06a",
                    "status": true,
                    "value": "0.18"
                },
                "nodeType": 0
            },
            "3": {
                "event": {
                    "contract": "0x4832b4423c35311f9dc0c2d03b29e68b176d40cc",
                    "decodedLog": {
                        "name": "TransferSingle",
                        "params": [
                            {
                                "name": "operator",
                                "type": "address",
                                "value": "0x2d16bf6c8bad562cb1b3cbd87ea7913993cd8e39"
                            },
                            {
                                "name": "from",
                                "type": "address",
                                "value": "0x0000000000000000000000000000000000000000"
                            },
                            {
                                "name": "to",
                                "type": "address",
                                "value": "0x2d16bf6c8bad562cb1b3cbd87ea7913993cd8e39"
                            },
                            {
                                "name": "id",
                                "type": "uint256",
                                "value": "1"
                            },
                            {
                                "name": "value",
                                "type": "uint256",
                                "value": "1"
                            }
                        ],
                        "signature": "TransferSingle(address,address,address,uint256,uint256)"
                    },
                    "id": 3,
                    "logData": "0x00000000000000000000000000000000000000000000000000000000000000010000000000000000000000000000000000000000000000000000000000000001",
                    "logDecoded": true,
                    "operation": "EVENT",
                    "revert": false,
                    "status": true,
                    "topics": [
                        "0xc3d58168c5ae7397731d063d5bbf3d657854427343f4c083240f7aacaa2d0f62",
                        "0x0000000000000000000000002d16bf6c8bad562cb1b3cbd87ea7913993cd8e39",
                        "0x0000000000000000000000000000000000000000000000000000000000000000",
                        "0x0000000000000000000000002d16bf6c8bad562cb1b3cbd87ea7913993cd8e39"
                    ]
                },
                "nodeType": 1
            }
        },
        "gasFlame": [
            {
                "children": [
                    {
                        "children": [
                            {
                                "children": [],
                                "depth": 0,
                                "name": "Initial Gas",
                                "value": 21332
                            },
                            {
                                "children": [
                                    {
                                        "children": [],
                                        "depth": 1,
                                        "name": "facetAddress",
                                        "value": 2645
                                    },
                                    {
                                        "children": [],
                                        "depth": 1,
                                        "name": "deposit",
                                        "value": 164808
                                    }
                                ],
                                "depth": 0,
                                "name": "Executed Gas",
                                "value": 173265
                            }
                        ],
                        "depth": -1,
                        "name": "Actual Gas Used",
                        "value": 194597
                    },
                    {
                        "children": [],
                        "depth": -1,
                        "name": "Refunded Gas",
                        "value": 0
                    }
                ],
                "depth": -2,
                "name": "Total Gas",
                "value": 194597
            }
        ],
        "isConfirmed": true,
        "mainTrace": [
            {
                "children": [
                    {
                        "children": [
                            {
                                "children": [],
                                "depth": 1,
                                "id": 1,
                                "order": 1
                            },
                            {
                                "children": [
                                    {
                                        "children": [],
                                        "depth": 2,
                                        "id": 3,
                                        "order": 3
                                    }
                                ],
                                "depth": 1,
                                "id": 2,
                                "order": 2
                            }
                        ],
                        "depth": 0,
                        "id": 0,
                        "order": 0
                    }
                ],
                "depth": -1,
                "id": -1,
                "order": -1
            }
        ],
        "mainTraceNodeCount": 4,
        "parentIdMap": {
            "0": -1,
            "1": 0,
            "2": 0,
            "3": 2
        },
        "tidyTrace": [
            {
                "children": [
                    {
                        "children": [
                            {
                                "children": [
                                    {
                                        "children": [],
                                        "depth": 2,
                                        "id": 3,
                                        "order": 3
                                    }
                                ],
                                "depth": 1,
                                "id": 2,
                                "order": 2
                            }
                        ],
                        "depth": 0,
                        "id": 0,
                        "order": 0
                    }
                ],
                "depth": -1,
                "id": -1,
                "order": -1
            }
        ],
        "tidyTraceNodeCount": 3
    },
    "state_change": {
        "stateChanges": [
            {
                "address": "0x4832b4423c35311f9dc0c2d03b29e68b176d40cc",
                "erc": "",
                "slots": [
                    {
                        "current": "0x0000000000000000000000000000000000000000000000000000000000000001",
                        "key": "0xc1f2f141ed8575cde8296faf6044e13928bd75b3980d7dbf09416137b90cc4d6",
                        "prev": "0x0000000000000000000000000000000000000000000000000000000000000000"
                    },
                    {
                        "current": "0x00000000000000000000000000000000000000000000000000000000000000aa",
                        "key": "0x02d1326d9cfdec041465082f876a10094389e310431d861af7850c23e118f0a6",
                        "prev": "0x00000000000000000000000000000000000000000000000000000000000000a9"
                    },
                    {
                        "current": "0x0000000000000000000000000000000000000000000000000000000000000047",
                        "key": "0xab61cd2e9691bc34a1d850cd5aad09f0dda0db244203600ad9371e1af6a96c92",
                        "prev": "0x0000000000000000000000000000000000000000000000000000000000000046"
                    },
                    {
                        "current": "0x0000000000000000000000002d16bf6c8bad562cb1b3cbd87ea7913993cd8e39",
                        "key": "0xfe19b82770f7e3de6ce9a5822696fbb78dfa6882c4a09c1ccc3792e56b63e365",
                        "prev": "0x0000000000000000000000000000000000000000000000000000000000000000"
                    },
                    {
                        "current": "0x0000000000000000000000000000000000000000000000000000000000000047",
                        "key": "0x82ef54256242d58d5e3ea69bb2135a4dd3cfaf55e8d5d38023f0ebd5d4ed1184",
                        "prev": "0x0000000000000000000000000000000000000000000000000000000000000000"
                    },
                    {
                        "current": "0x0000000000000000000000000000000000000000000000000000000000000001",
                        "key": "0xcae0ef4dd008ae7839e4c0db93a28399a53bb0aa2bdb3e2d17e4c67a21f86971",
                        "prev": "0x0000000000000000000000000000000000000000000000000000000000000000"
                    },
                    {
                        "current": "0x0000000000000000000000000000000000000000000000000000000000000001",
                        "key": "0xc93c5108a7200ab022aeb4a4c697aba164973ca0b6d0ad7ba75d6603474e48c4",
                        "prev": "0x0000000000000000000000000000000000000000000000000000000000000000"
                    },
                    {
                        "current": "0x0000000000000000000000000000000000000000000000000000000000000001",
                        "key": "0x89264a207a9d5bb6098139e32e0694f6eac13bb9858d80233d7c11e455a97883",
                        "prev": "0x0000000000000000000000000000000000000000000000000000000000000000"
                    }
                ],
                "storageVariables": []
            }
        ]
    }
}