{
    "balance_change": {
        "balanceChanges": [
            {
                "account": "0x1f33e8d5e4f59fe97ba2ffae914f90485d10585e",
                "assets": [
                    {
                        "address": "0x3efd984b26c5a251b0dcca0194831e12db9fc124",
                        "amount": "119,139",
                        "iconUrl": "",
                        "isERC1155": false,
                        "isERC721": false,
                        "sign": false,
                        "value": ""
                    }
                ]
            },
            {
                "account": "0xa963e39d6dab9210f3c5d2f6c01da128af84d489",
                "assets": [
                    {
                        "address": "0x3efd984b26c5a251b0dcca0194831e12db9fc124",
                        "amount": "119,139",
                        "iconUrl": "",
                        "isERC1155": false,
                        "isERC721": false,
                        "sign": true,
                        "value": ""
                    }
                ]
            }
        ]
    },
    "profile": {
        "basic_info": {
            "baseFee": "",
            "blockNumber": 11413720,
            "callData": "0xa9059cbb000000000000000000000000a963e39d6dab9210f3c5d2f6c01da128af84d48900000000000000000000000000000000000000000000193a89c2fa865fac0000",
            "debugEnable": true,
            "errorInfo": "",
            "eventCount": 1,
            "feeRecipient": "0x06b8c5883ec71bc3f4b332081519f23834c8706e",
            "formatValue": "0",
            "gasLimit": 51341,
            "gasPrice": "43",
            "gasUsed": 51341,
            "intTxnCount": 0,
            "internalRevert": false,
            "internalRevertMessage": "",
            "isContractCreation": false,
            "isFlashloan": false,
            "maxFee": "",
            "nonce": 292,
            "overwritedBlockNumber": -1,
            "priorityFee": "",
            "receiver": "0x3efd984b26c5a251b0dcca0194831e12db9fc124",
            "revertMessage": "",
            "sender": "0x1f33e8d5e4f59fe97ba2ffae914f90485d10585e",
            "simulationEnable": true,
            "sourceTxnHash": "0x8a73bab77b2769d61c24736f0a18bf7de7e861a0eb7f29cc6a40c898c8bbad8d",
            "status": true,
            "timestamp": "2020-12-08T18:28:26Z",
            "transactionFee": "0.002207663",
            "txnHash": "0x8a73bab77b2769d61c24736f0a18bf7de7e861a0eb7f29cc6a40c898c8bbad8d",
            "txnIndex": 171,
            "type": 0,
            "value": "0"
        },
        "fund_flow": [
            {
                "amount": "119,139",
                "from": "0x1f33e8d5e4f59fe97ba2ffae914f90485d10585e",
                "id": 1,
                "isERC1155": false,
                "isERC721": false,
                "isReverted": false,
                "order": 1,
                "to": "0xa963e39d6dab9210f3c5d2f6c01da128af84d489",
                "token": "0x3efd984b26c5a251b0dcca0194831e12db9fc124"
            }
        ],
        "token_infos": [
            {
                "address": "0x3efd984b26c5a251b0dcca0194831e12db9fc124",
                "decimals": 18
            },
            {
                "address": "0xc02aaa39b223fe8d0a0e5c4f27ead9083c756cc2",
                "decimals": 18
            },
            {
                "address": "0xeeeeeeeeeeeeeeeeeeeeeeeeeeeeeeeeeeeeeeee",
                "decimals": 18
            }
        ]
    },
    "address_label": {
        "labels": [
            {
                "address": "0xeeeeeeeeeeeeeeeeeeeeeeeeeeeeeeeeeeeeeeee",
                "label": "Ether"
            },
            {
                "address": "0x3efd984b26c5a251b0dcca0194831e12db9fc124",
                "label": "AFRIX (AFX)"
            },
            {
                "address": "0x0000000000000000000000000000000000000001",
                "label": "Precompiled"
            },
            {
                "address": "0x0000000000000000000000000000000000000002",
                "label": "Precompiled"
            },
            {
                "address": "0x0000000000000000000000000000000000000003",
                "label": "Precompiled"
            },
            {
                "address": "0x0000000000000000000000000000000000000004",
                "label": "Precompiled"
            }
        ]
    },
    "trace": {
        "accountLabels": null,
        "dataMap": {
            "-1": {
                "invocation": {
                    "address": "0x1f33e8d5e4f59fe97ba2ffae914f90485d10585e",
                    "callData": "",
                    "decodedMethod": null,
                    "errorInfo": "",
                    "fromAddress": "",
                    "gasUsed": 0,
                    "id": -1,
                    "methodDecoded": false,
                    "operation": "",
                    "output": "",
                    "revert": false,
                    "revertMessage": "",
                    "selector": "",
                    "status": false,
                    "value": ""
                },
                "nodeType": 0
            },
            "0": {
                "invocation": {
                    "address": "0x3efd984b26c5a251b0dcca0194831e12db9fc124",
                    "callData": "0x000000000000000000000000a963e39d6dab9210f3c5d2f6c01da128af84d48900000000000000000000000000000000000000000000193a89c2fa865fac0000",
                    "decodedMethod": {
                        "callParams": [
                            {
                                "name": "recipient",
                                "type": "address",
                                "value": "0xa963e39d6dab9210f3c5d2f6c01da128af84d489"
                            },
                            {
                                "decimalAvailable": true,
                                "name": "amount",
                                "type": "uint256",
                                "value": "119,139,000,000,000,000,000,000"
                            }
                        ],
                        "constructorArguments": "",
                        "name": "transfer",
                        "returnParams": [
                            {
                                "name": "",
                                "type": "bool",
                                "value": true
                            }
                        ],
                        "signature": "transfer(address,uint256)"
                    },
                    "errorInfo": "",
                    "fromAddress": "0x1f33e8d5e4f59fe97ba2ffae914f90485d10585e",
                    "gasUsed": 51341,
                    "id": 0,
                    "methodDecoded": true,
                    "operation": "CALL",
                    "output": "0x0000000000000000000000000000000000000000000000000000000000000001",
                    "revert": false,
                    "revertMessage": "",
                    "selector": "0xa9059cbb",
                    "status": true,
                    "value": "0"
                },
                "nodeType": 0
            },
            "1": {
                "event": {
                    "contract": "0x3efd984b26c5a251b0dcca0194831e12db9fc124",
                    "decodedLog": {
                        "name": "Transfer",
                        "params": [
                            {
                                "name": "from",
                                "type": "address",
                                "value": "0x1f33e8d5e4f59fe97ba2ffae914f90485d10585e"
                            },
                            {
                                "name": "to",
                                "type": "address",
                                "value": "0xa963e39d6dab9210f3c5d2f6c01da128af84d489"
                            },
                            {
                                "decimalAvailable": true,
                                "name": "value",
                                "type": "uint256",
                                "value": "119,139,000,000,000,000,000,000"
                            }
                        ],
                        "signature": "Transfer(address,address,uint256)"
                    },
                    "id": 1,
                    "logData": "0x00000000000000000000000000000000000000000000193a89c2fa865fac0000",
                    "logDecoded": true,
                    "operation": "EVENT",
                    "revert": false,
                    "status": true,
                    "topics": [
                        "0xddf252ad1be2c89b69c2b068fc378daa952ba7f163c4a11628f55a4df523b3ef",
                        "0x0000000000000000000000001f33e8d5e4f59fe97ba2ffae914f90485d10585e",
                        "0x000000000000000000000000a963e39d6dab9210f3c5d2f6c01da128af84d489"
                    ]
                },
                "nodeType": 1
            }
        },
        "gasFlame": [
            {
                "children": [
                    {
                        "children": [
                            {
                                "children": [],
                                "depth": 0,
                                "name": "Initial Gas",
                                "value": 21656
                            },
                            {
                                "children": [],
                                "depth": 0,
                                "name": "Executed Gas",
                                "value": 29685
                            }
                        ],
                        "depth": -1,
                        "name": "Actual Gas Used",
                        "value": 51341
                    },
                    {
                        "children": [],
                        "depth": -1,
                        "name": "Refunded Gas",
                        "value": 0
                    }
                ],
                "depth": -2,
                "name": "Total Gas",
                "value": 51341
            }
        ],
        "isConfirmed": true,
        "mainTrace": [
            {
                "children": [
                    {
                        "children": [
                            {
                                "children": [],
                                "depth": 1,
                                "id": 1,
                                "order": 1
                            }
                        ],
                        "depth": 0,
                        "id": 0,
                        "order": 0
                    }
                ],
                "depth": -1,
                "id": -1,
                "order": -1
            }
        ],
        "mainTraceNodeCount": 2,
        "parentIdMap": {
            "0": -1,
            "1": 0
        },
        "tidyTrace": [
            {
                "children": [
                    {
                        "children": [
                            {
                                "children": [],
                                "depth": 1,
                                "id": 1,
                                "order": 1
                            }
                        ],
                        "depth": 0,
                        "id": 0,
                        "order": 0
                    }
                ],
                "depth": -1,
                "id": -1,
                "order": -1
            }
        ],
        "tidyTraceNodeCount": 2
    },
    "state_change": {
        "stateChanges": [
            {
                "address": "0x3efd984b26c5a251b0dcca0194831e12db9fc124",
                "erc": "ERC-20",
                "slots": [
                    {
                        "current": "0x0000000000000000000000000000000000000000026154b712433e8d7ea00000",
                        "key": "0x37237dc223b106119032691d8c8b3596c8ca6ba8738dbd777a2c3fcce3ed77af",
                        "prev": "0x000000000000000000000000000000000000000002616df19c063913de4c0000"
                    },
                    {
                        "current": "0x00000000000000000000000000000000000000000000193a89c2fa865fac0000",
                        "key": "0x7491a107f41f5665c9769385f57f4f792a5a0b90757caeacc03829ae9d4d7db4",
                        "prev": "0x0000000000000000000000000000000000000000000000000000000000000000"
                    }
                ],
                "storageVariables": [
                    {
                        "name": "_balances",
                        "type": "mapping(address => uint256)",
                        "value": {
                            "pairs": [
                                {
                                    "key": "0x1f33e8d5e4f59fe97ba2ffae914f90485d10585e",
                                    "value": {
                                        "current": "736635880000000000000000000",
                                        "prev": "736755019000000000000000000",
                                        "typeTag": 1
                                    }
                                },
                                {
                                    "key": "0xa963e39d6dab9210f3c5d2f6c01da128af84d489",
                                    "value": {
                                        "current": "119139000000000000000000",
                                        "prev": "0",
                                        "typeTag": 1
                                    }
                                }
                            ],
                            "typeTag": 4
                        }
                    }
                ]
            }
        ]
    }
}