{
    "balance_change": {
        "balanceChanges": [
            {
                "account": "0x8c6b96173616ce5442340f926b4ded8118a5373f",
                "assets": [
                    {
                        "address": "0xf5618b3751641b16eef76de36e3bf63e42fb2733",
                        "amount": "1",
                        "iconUrl": "",
                        "isERC1155": false,
                        "isERC721": true,
                        "sign": false,
                        "tokenID": "28",
                        "value": ""
                    }
                ]
            },
            {
                "account": "0x10994ec42e13c20d93423035bdc5b906af6899d7",
                "assets": [
                    {
                        "address": "0xf5618b3751641b16eef76de36e3bf63e42fb2733",
                        "amount": "1",
                        "iconUrl": "",
                        "isERC1155": false,
                        "isERC721": true,
                        "sign": true,
                        "tokenID": "28",
                        "value": ""
                    }
                ]
            }
        ]
    },
    "profile": {
        "basic_info": {
            "baseFee": "102.998103235",
            "blockNumber": 13181321,
            "callData": "0x23b872dd0000000000000000000000008c6b96173616ce5442340f926b4ded8118a5373f00000000000000000000000010994ec42e13c20d93423035bdc5b906af6899d7000000000000000000000000000000000000000000000000000000000000001c",
            "debugEnable": true,
            "errorInfo": "",
            "eventCount": 2,
            "feeRecipient": "0xea674fdde714fd979de3edf0f56aa9716b898ec8",
            "formatValue": "0",
            "gasLimit": 116656,
            "gasPrice": "104.498103235",
            "gasUsed": 107056,
            "intTxnCount": 0,
            "internalRevert": false,
            "internalRevertMessage": "",
            "isContractCreation": false,
            "isFlashloan": false,
            "maxFee": "124.329122908",
            "nonce": 25,
            "overwritedBlockNumber": -1,
            "priorityFee": "1.5",
            "receiver": "0xf5618b3751641b16eef76de36e3bf63e42fb2733",
            "revertMessage": "",
            "sender": "0x8c6b96173616ce5442340f926b4ded8118a5373f",
            "simulationEnable": true,
            "sourceTxnHash": "0x8a69491a89991883b0b6e31c7268f8dfb6c03fce99244b29fdf8f1a882e9667f",
            "status": true,
            "timestamp": "2021-09-07T22:24:15Z",
            "transactionFee": "0.01118714893992616",
            "txnHash": "0x8a69491a89991883b0b6e31c7268f8dfb6c03fce99244b29fdf8f1a882e9667f",
            "txnIndex": 440,
            "type": 2,
            "value": "0"
        },
        "fund_flow": [
            {
                "amount": "1",
                "from": "0x8c6b96173616ce5442340f926b4ded8118a5373f",
                "id": 1,
                "isERC1155": false,
                "isERC721": true,
                "isReverted": false,
                "order": 1,
                "to": "0x10994ec42e13c20d93423035bdc5b906af6899d7",
                "token": "0xf5618b3751641b16eef76de36e3bf63e42fb2733",
                "tokenID": "28"
            }
        ],
        "token_infos": [
            {
                "address": "0xeeeeeeeeeeeeeeeeeeeeeeeeeeeeeeeeeeeeeeee",
                "decimals": 18
            },
            {
                "address": "0xc02aaa39b223fe8d0a0e5c4f27ead9083c756cc2",
                "decimals": 18
            }
        ]
    },
    "address_label": {
        "labels": [
            {
                "address": "0x0000000000000000000000000000000000000001",
                "label": "Precompiled"
            },
            {
                "address": "0x0000000000000000000000000000000000000002",
                "label": "Precompiled"
            },
            {
                "address": "0x0000000000000000000000000000000000000003",
                "label": "Precompiled"
            },
            {
                "address": "0x0000000000000000000000000000000000000004",
                "label": "Precompiled"
            },
            {
                "address": "0xeeeeeeeeeeeeeeeeeeeeeeeeeeeeeeeeeeeeeeee",
                "label": "Ether"
            },
            {
                "address": "0xf5618b3751641b16eef76de36e3bf63e42fb2733",
                "label": "IcecreamCones"
            }
        ]
    },
    "trace": {
        "accountLabels": null,
        "dataMap": {
            "-1": {
                "invocation": {
                    "address": "0x8c6b96173616ce5442340f926b4ded8118a5373f",
                    "callData": "",
                    "decodedMethod": null,
                    "errorInfo": "",
                    "fromAddress": "",
                    "gasUsed": 0,
                    "id": -1,
                    "methodDecoded": false,
                    "operation": "",
                    "output": "",
                    "revert": false,
                    "revertMessage": "",
                    "selector": "",
                    "status": false,
                    "value": ""
                },
                "nodeType": 0
            },
            "0": {
                "invocation": {
                    "address": "0xf5618b3751641b16eef76de36e3bf63e42fb2733",
                    "callData": "0x0000000000000000000000008c6b96173616ce5442340f926b4ded8118a5373f00000000000000000000000010994ec42e13c20d93423035bdc5b906af6899d7000000000000000000000000000000000000000000000000000000000000001c",
                    "decodedMethod": {
                        "callParams": [
                            {
                                "name": "from",
                                "type": "address",
                                "value": "0x8c6b96173616ce5442340f926b4ded8118a5373f"
                            },
                            {
                                "name": "to",
                                "type": "address",
                                "value": "0x10994ec42e13c20d93423035bdc5b906af6899d7"
                            },
                            {
                                "decimalAvailable": true,
                                "name": "tokenId",
                                "type": "uint256",
                                "value": "28"
                            }
                        ],
                        "constructorArguments": "",
                        "name": "transferFrom",
                        "returnParams": [],
                        "signature": "transferFrom(address,address,uint256)"
                    },
                    "errorInfo": "",
                    "fromAddress": "0x8c6b96173616ce5442340f926b4ded8118a5373f",
                    "gasUsed": 107056,
                    "id": 0,
                    "methodDecoded": true,
                    "operation": "CALL",
                    "output": "",
                    "revert": false,
                    "revertMessage": "",
                    "selector": "0x23b872dd",
                    "status": true,
                    "value": "0"
                },
                "nodeType": 0
            },
            "1": {
                "event": {
                    "contract": "0xf5618b3751641b16eef76de36e3bf63e42fb2733",
                    "decodedLog": {
                        "name": "Approval",
                        "params": [
                            {
                                "name": "owner",
                                "type": "address",
                                "value": "0x8c6b96173616ce5442340f926b4ded8118a5373f"
                            },
                            {
                                "name": "approved",
                                "type": "address",
                                "value": "0x0000000000000000000000000000000000000000"
                            },
                            {
                                "decimalAvailable": true,
                                "name": "tokenId",
                                "type": "uint256",
                                "value": "28"
                            }
                        ],
                        "signature": "Approval(address,address,uint256)"
                    },
                    "id": 1,
                    "logData": "0x",
                    "logDecoded": true,
                    "operation": "EVENT",
                    "revert": false,
                    "status": true,
                    "topics": [
                        "0x8c5be1e5ebec7d5bd14f71427d1e84f3dd0314c0f7b2291e5b200ac8c7c3b925",
                        "0x0000000000000000000000008c6b96173616ce5442340f926b4ded8118a5373f",
                        "0x0000000000000000000000000000000000000000000000000000000000000000",
                        "0x000000000000000000000000000000000000000000000000000000000000001c"
                    ]
                },
                "nodeType": 1
            },
            "2": {
                "event": {
                    "contract": "0xf5618b3751641b16eef76de36e3bf63e42fb2733",
                    "decodedLog": {
                        "name": "Transfer",
                        "params": [
                            {
                                "name": "from",
                                "type": "address",
                                "value": "0x8c6b96173616ce5442340f926b4ded8118a5373f"
                            },
                            {
                                "name": "to",
                                "type": "address",
                                "value": "0x10994ec42e13c20d93423035bdc5b906af6899d7"
                            },
                            {
                                "decimalAvailable": true,
                                "name": "tokenId",
                                "type": "uint256",
                                "value": "28"
                            }
                        ],
                        "signature": "Transfer(address,address,uint256)"
                    },
                    "id": 2,
                    "logData": "0x",
                    "logDecoded": true,
                    "operation": "EVENT",
                    "revert": false,
                    "status": true,
                    "topics": [
                        "0xddf252ad1be2c89b69c2b068fc378daa952ba7f163c4a11628f55a4df523b3ef",
                        "0x0000000000000000000000008c6b96173616ce5442340f926b4ded8118a5373f",
                        "0x00000000000000000000000010994ec42e13c20d93423035bdc5b906af6899d7",
                        "0x000000000000000000000000000000000000000000000000000000000000001c"
                    ]
                },
                "nodeType": 1
            }
        },
        "gasFlame": [
            {
                "children": [
                    {
                        "children": [
                            {
                                "children": [],
                                "depth": 0,
                                "name": "Initial Gas",
                                "value": 21940
                            },
                            {
                                "children": [],
                                "depth": 0,
                                "name": "Executed Gas",
                                "value": 94716
                            }
                        ],
                        "depth": -1,
                        "name": "Actual Gas Used",
                        "value": 107056
                    },
                    {
                        "children": [],
                        "depth": -1,
                        "name": "Refunded Gas",
                        "value": 9600
                    }
                ],
                "depth": -2,
                "name": "Total Gas",
                "value": 116656
            }
        ],
        "isConfirmed": true,
        "mainTrace": [
            {
                "children": [
                    {
                        "children": [
                            {
                                "children": [],
                                "depth": 1,
                                "id": 1,
                                "order": 1
                            },
                            {
                                "children": [],
                                "depth": 1,
                                "id": 2,
                                "order": 2
                            }
                        ],
                        "depth": 0,
                        "id": 0,
                        "order": 0
                    }
                ],
                "depth": -1,
                "id": -1,
                "order": -1
            }
        ],
        "mainTraceNodeCount": 3,
        "parentIdMap": {
            "0": -1,
            "1": 0,
            "2": 0
        },
        "tidyTrace": [
            {
                "children": [
                    {
                        "children": [
                            {
                                "children": [],
                                "depth": 1,
                                "id": 1,
                                "order": 1
                            },
                            {
                                "children": [],
                                "depth": 1,
                                "id": 2,
                                "order": 2
                            }
                        ],
                        "depth": 0,
                        "id": 0,
                        "order": 0
                    }
                ],
                "depth": -1,
                "id": -1,
                "order": -1
            }
        ],
        "tidyTraceNodeCount": 3
    },
    "state_change": {
        "stateChanges": [
            {
                "address": "0xf5618b3751641b16eef76de36e3bf63e42fb2733",
                "erc": "ERC-721",
                "slots": [
                    {
                        "current": "0x0000000000000000000000000000000000000000000000000000000000000003",
                        "key": "0x8c71c37e8c731927bea547c91e1d9c5551e43d7a14b20c82ab982a39e480b475",
                        "prev": "0x0000000000000000000000000000000000000000000000000000000000000000"
                    },
                    {
                        "current": "0x000000000000000000000000000000000000000000000000000000000000001c",
                        "key": "0x821345f9725d47b219f41fa700830be4094ee098bee6afcdf4d134b933b41cc1",
                        "prev": "0x0000000000000000000000000000000000000000000000000000000000000044"
                    },
                    {
                        "current": "0x0000000000000000000000000000000000000000000000000000000000000000",
                        "key": "0x59c5c1369e59b5d7d693abdf9295091f763cf7bd6eac4ea4e3be40be0e2ed34d",
                        "prev": "0x000000000000000000000000000000000000000000000000000000000000001c"
                    },
                    {
                        "current": "0x000000000000000000000000000000000000000000000000000000000000001c",
                        "key": "0xd62e85a537e7de4e82d8080fa095d48e41b7b4a241ed1768165ed43ef1bb2b4c",
                        "prev": "0x0000000000000000000000000000000000000000000000000000000000000000"
                    },
                    {
                        "current": "0x0000000000000000000000000000000000000000000000000000000000000057",
                        "key": "0xc93e2da60b3d83ad3c769f2f992a6131d0ef114d1922c32993382c40042caca4",
                        "prev": "0x000000000000000000000000000000000000000000000000000000000000001c"
                    },
                    {
                        "current": "0x0000000000000000000000000000000000000000000000000000000000000000",
                        "key": "0xc93e2da60b3d83ad3c769f2f992a6131d0ef114d1922c32993382c40042caccc",
                        "prev": "0x0000000000000000000000000000000000000000000000000000000000000057"
                    },
                    {
                        "current": "0x0000000000000000000000000000000000000000000000000000000000000043",
                        "key": "0x0dd441f0ef853a211b6d2947bc0ae6ff4cdb18b945691c9c2fcda5453849785d",
                        "prev": "0x0000000000000000000000000000000000000000000000000000000000000044"
                    },
                    {
                        "current": "0x00000000000000000000000010994ec42e13c20d93423035bdc5b906af6899d7",
                        "key": "0x405787fa12a823e0f2b7631cc41b3ba8828b3321ca811111fa75cd3aa3bb5b05",
                        "prev": "0x0000000000000000000000008c6b96173616ce5442340f926b4ded8118a5373f"
                    },
                    {
                        "current": "0x0000000000000000000000000000000000000000000000000000000000000003",
                        "key": "0x0a208d65aac527bb0f57a9493a05ba242ce6b934847e7d4817d52e6ef6cfc533",
                        "prev": "0x0000000000000000000000000000000000000000000000000000000000000002"
                    }
                ],
                "storageVariables": [
                    {
                        "name": "_holderTokens",
                        "type": "mapping(address => struct EnumerableSet.UintSet)",
                        "value": {
                            "pairs": [
                                {
                                    "key": "0x10994ec42e13c20d93423035bdc5b906af6899d7",
                                    "value": {
                                        "fields": [
                                            {
                                                "name": "_inner",
                                                "type": "struct EnumerableSet.Set",
                                                "value": {
                                                    "fields": [
                                                        {
                                                            "name": "_values",
                                                            "type": "bytes32[]",
                                                            "value": {
                                                                "elemType": "bytes32",
                                                                "elems": [
                                                                    {
                                                                        "index": 2,
                                                                        "value": {
                                                                            "current": "0x000000000000000000000000000000000000000000000000000000000000001c",
                                                                            "prev": "0x0000000000000000000000000000000000000000000000000000000000000000",
                                                                            "typeTag": 1
                                                                        }
                                                                    }
                                                                ],
                                                                "typeTag": 2
                                                            }
                                                        },
                                                        {
                                                            "name": "_indexes",
                                                            "type": "mapping(bytes32 => uint256)",
                                                            "value": {
                                                                "pairs": [
                                                                    {
                                                                        "key": "0x000000000000000000000000000000000000000000000000000000000000001c",
                                                                        "value": {
                                                                            "current": "3",
                                                                            "prev": "0",
                                                                            "typeTag": 1
                                                                        }
                                                                    }
                                                                ],
                                                                "typeTag": 4
                                                            }
                                                        }
                                                    ],
                                                    "typeTag": 3
                                                }
                                            }
                                        ],
                                        "typeTag": 3
                                    }
                                },
                                {
                                    "key": "0x8c6b96173616ce5442340f926b4ded8118a5373f",
                                    "value": {
                                        "fields": [
                                            {
                                                "name": "_inner",
                                                "type": "struct EnumerableSet.Set",
                                                "value": {
                                                    "fields": [
                                                        {
                                                            "name": "_values",
                                                            "type": "bytes32[]",
                                                            "value": {
                                                                "elemType": "bytes32",
                                                                "elems": [
                                                                    {
                                                                        "index": 27,
                                                                        "value": {
                                                                            "current": "0x0000000000000000000000000000000000000000000000000000000000000057",
                                                                            "prev": "0x000000000000000000000000000000000000000000000000000000000000001c",
                                                                            "typeTag": 1
                                                                        }
                                                                    }
                                                                ],
                                                                "typeTag": 2
                                                            }
                                                        },
                                                        {
                                                            "name": "_indexes",
                                                            "type": "mapping(bytes32 => uint256)",
                                                            "value": {
                                                                "pairs": [
                                                                    {
                                                                        "key": "0x000000000000000000000000000000000000000000000000000000000000001c",
                                                                        "value": {
                                                                            "current": "0",
                                                                            "prev": "28",
                                                                            "typeTag": 1
                                                                        }
                                                                    },
                                                                    {
                                                                        "key": "0x0000000000000000000000000000000000000000000000000000000000000057",
                                                                        "value": {
                                                                            "current": "28",
                                                                            "prev": "68",
                                                                            "typeTag": 1
                                                                        }
                                                                    }
                                                                ],
                                                                "typeTag": 4
                                                            }
                                                        }
                                                    ],
                                                    "typeTag": 3
                                                }
                                            }
                                        ],
                                        "typeTag": 3
                                    }
                                }
                            ],
                            "typeTag": 4
                        }
                    },
                    {
                        "name": "_tokenOwners",
                        "type": "struct EnumerableMap.UintToAddressMap",
                        "value": {
                            "fields": [
                                {
                                    "name": "_inner",
                                    "type": "struct EnumerableMap.Map",
                                    "value": {
                                        "fields": [
                                            {
                                                "name": "_entries",
                                                "type": "struct EnumerableMap.MapEntry[]",
                                                "value": {
                                                    "elemType": "struct EnumerableMap.MapEntry",
                                                    "elems": [
                                                        {
                                                            "index": 27,
                                                            "value": {
                                                                "fields": [
                                                                    {
                                                                        "name": "_value",
                                                                        "type": "bytes32",
                                                                        "value": {
                                                                            "current": "0x00000000000000000000000010994ec42e13c20d93423035bdc5b906af6899d7",
                                                                            "prev": "0x0000000000000000000000008c6b96173616ce5442340f926b4ded8118a5373f",
                                                                            "typeTag": 1
                                                                        }
                                                                    }
                                                                ],
                                                                "typeTag": 3
                                                            }
                                                        }
                                                    ],
                                                    "typeTag": 2
                                                }
                                            }
                                        ],
                                        "typeTag": 3
                                    }
                                }
                            ],
                            "typeTag": 3
                        }
                    }
                ]
            }
        ]
    }
}