{
    "balance_change": {
        "balanceChanges": [
            {
                "account": "0x3b5441b002679030bda1e99d24da6f506d22f59d",
                "assets": [
                    {
                        "address": "0xcad49c39b72c37b32cee8b14f33f316d3a8bc335",
                        "amount": "1,633.8569016",
                        "iconUrl": "",
                        "isERC1155": false,
                        "isERC721": false,
                        "sign": false,
                        "value": ""
                    }
                ]
            },
            {
                "account": "0x2724a9fed47d947b33660ce0ee0d150c6ee18c90",
                "assets": [
                    {
                        "address": "0xcad49c39b72c37b32cee8b14f33f316d3a8bc335",
                        "amount": "1,633.8569016",
                        "iconUrl": "",
                        "isERC1155": false,
                        "isERC721": false,
                        "sign": true,
                        "value": ""
                    }
                ]
            }
        ]
    },
    "profile": {
        "basic_info": {
            "baseFee": "",
            "blockNumber": 8342737,
            "callData": "0xa9059cbb0000000000000000000000002724a9fed47d947b33660ce0ee0d150c6ee18c900000000000000000000000000000000000000000000000589251c375d85ac000",
            "debugEnable": true,
            "errorInfo": "",
            "eventCount": 1,
            "feeRecipient": "0x5a0b54d5dc17e0aadc383d2db43b0a0d3e029c4c",
            "formatValue": "0",
            "gasLimit": 420000,
            "gasPrice": "100",
            "gasUsed": 23028,
            "intTxnCount": 0,
            "internalRevert": false,
            "internalRevertMessage": "",
            "isContractCreation": false,
            "isFlashloan": false,
            "maxFee": "",
            "nonce": 7,
            "overwritedBlockNumber": -1,
            "priorityFee": "",
            "receiver": "0xcad49c39b72c37b32cee8b14f33f316d3a8bc335",
            "revertMessage": "",
            "sender": "0x3b5441b002679030bda1e99d24da6f506d22f59d",
            "simulationEnable": true,
            "sourceTxnHash": "0x8be0eab7c03d6d62d7e5c0449ceb5803619935605ea2808b45cd2df81afe30d5",
            "status": true,
            "timestamp": "2019-08-13T14:39:06Z",
            "transactionFee": "0.0023028",
            "txnHash": "0x8be0eab7c03d6d62d7e5c0449ceb5803619935605ea2808b45cd2df81afe30d5",
            "txnIndex": 2,
            "type": 0,
            "value": "0"
        },
        "fund_flow": [
            {
                "amount": "1,633.8569016",
                "from": "0x3b5441b002679030bda1e99d24da6f506d22f59d",
                "id": 1,
                "isERC1155": false,
                "isERC721": false,
                "isReverted": false,
                "order": 1,
                "to": "0x2724a9fed47d947b33660ce0ee0d150c6ee18c90",
                "token": "0xcad49c39b72c37b32cee8b14f33f316d3a8bc335"
            }
        ],
        "token_infos": [
            {
                "address": "0xc02aaa39b223fe8d0a0e5c4f27ead9083c756cc2",
                "decimals": 18
            },
            {
                "address": "0xcad49c39b72c37b32cee8b14f33f316d3a8bc335",
                "decimals": 18
            },
            {
                "address": "0xeeeeeeeeeeeeeeeeeeeeeeeeeeeeeeeeeeeeeeee",
                "decimals": 18
            }
        ]
    },
    "address_label": {
        "labels": [
            {
                "address": "0x0000000000000000000000000000000000000003",
                "label": "Precompiled"
            },
            {
                "address": "0x0000000000000000000000000000000000000004",
                "label": "Precompiled"
            },
            {
                "address": "0xeeeeeeeeeeeeeeeeeeeeeeeeeeeeeeeeeeeeeeee",
                "label": "Ether"
            },
            {
                "address": "0xcad49c39b72c37b32cee8b14f33f316d3a8bc335",
                "label": "SODA Coin (SOC)"
            },
            {
                "address": "0x0000000000000000000000000000000000000001",
                "label": "Precompiled"
            },
            {
                "address": "0x0000000000000000000000000000000000000002",
                "label": "Precompiled"
            }
        ]
    },
    "trace": {
        "accountLabels": null,
        "dataMap": {
            "-1": {
                "invocation": {
                    "address": "0x3b5441b002679030bda1e99d24da6f506d22f59d",
                    "callData": "",
                    "decodedMethod": null,
                    "errorInfo": "",
                    "fromAddress": "",
                    "gasUsed": 0,
                    "id": -1,
                    "methodDecoded": false,
                    "operation": "",
                    "output": "",
                    "revert": false,
                    "revertMessage": "",
                    "selector": "",
                    "status": false,
                    "value": ""
                },
                "nodeType": 0
            },
            "0": {
                "invocation": {
                    "address": "0xcad49c39b72c37b32cee8b14f33f316d3a8bc335",
                    "callData": "0x0000000000000000000000002724a9fed47d947b33660ce0ee0d150c6ee18c900000000000000000000000000000000000000000000000589251c375d85ac000",
                    "decodedMethod": {
                        "callParams": [
                            {
                                "name": "to",
                                "type": "address",
                                "value": "0x2724a9fed47d947b33660ce0ee0d150c6ee18c90"
                            },
                            {
                                "decimalAvailable": true,
                                "name": "tokens",
                                "type": "uint256",
                                "value": "1,633,856,901,600,000,000,000"
                            }
                        ],
                        "constructorArguments": "",
                        "name": "transfer",
                        "returnParams": [
                            {
                                "name": "success",
                                "type": "bool",
                                "value": true
                            }
                        ],
                        "signature": "transfer(address,uint256)"
                    },
                    "errorInfo": "",
                    "fromAddress": "0x3b5441b002679030bda1e99d24da6f506d22f59d",
                    "gasUsed": 23028,
                    "id": 0,
                    "methodDecoded": true,
                    "operation": "CALL",
                    "output": "0x0000000000000000000000000000000000000000000000000000000000000001",
                    "revert": false,
                    "revertMessage": "",
                    "selector": "0xa9059cbb",
                    "status": true,
                    "value": "0"
                },
                "nodeType": 0
            },
            "1": {
                "event": {
                    "contract": "0xcad49c39b72c37b32cee8b14f33f316d3a8bc335",
                    "decodedLog": {
                        "name": "Transfer",
                        "params": [
                            {
                                "name": "from",
                                "type": "address",
                                "value": "0x3b5441b002679030bda1e99d24da6f506d22f59d"
                            },
                            {
                                "name": "to",
                                "type": "address",
                                "value": "0x2724a9fed47d947b33660ce0ee0d150c6ee18c90"
                            },
                            {
                                "decimalAvailable": true,
                                "name": "tokens",
                                "type": "uint256",
                                "value": "1,633,856,901,600,000,000,000"
                            }
                        ],
                        "signature": "Transfer(address,address,uint256)"
                    },
                    "id": 1,
                    "logData": "0x0000000000000000000000000000000000000000000000589251c375d85ac000",
                    "logDecoded": true,
                    "operation": "EVENT",
                    "revert": false,
                    "status": true,
                    "topics": [
                        "0xddf252ad1be2c89b69c2b068fc378daa952ba7f163c4a11628f55a4df523b3ef",
                        "0x0000000000000000000000003b5441b002679030bda1e99d24da6f506d22f59d",
                        "0x0000000000000000000000002724a9fed47d947b33660ce0ee0d150c6ee18c90"
                    ]
                },
                "nodeType": 1
            }
        },
        "gasFlame": [
            {
                "children": [
                    {
                        "children": [
                            {
                                "children": [],
                                "depth": 0,
                                "name": "Initial Gas",
                                "value": 23320
                            },
                            {
                                "children": [],
                                "depth": 0,
                                "name": "Executed Gas",
                                "value": 14708
                            }
                        ],
                        "depth": -1,
                        "name": "Actual Gas Used",
                        "value": 23028
                    },
                    {
                        "children": [],
                        "depth": -1,
                        "name": "Refunded Gas",
                        "value": 15000
                    }
                ],
                "depth": -2,
                "name": "Total Gas",
                "value": 38028
            }
        ],
        "isConfirmed": true,
        "mainTrace": [
            {
                "children": [
                    {
                        "children": [
                            {
                                "children": [],
                                "depth": 1,
                                "id": 1,
                                "order": 1
                            }
                        ],
                        "depth": 0,
                        "id": 0,
                        "order": 0
                    }
                ],
                "depth": -1,
                "id": -1,
                "order": -1
            }
        ],
        "mainTraceNodeCount": 2,
        "parentIdMap": {
            "0": -1,
            "1": 0
        },
        "tidyTrace": [
            {
                "children": [
                    {
                        "children": [
                            {
                                "children": [],
                                "depth": 1,
                                "id": 1,
                                "order": 1
                            }
                        ],
                        "depth": 0,
                        "id": 0,
                        "order": 0
                    }
                ],
                "depth": -1,
                "id": -1,
                "order": -1
            }
        ],
        "tidyTraceNodeCount": 2
    },
    "state_change": {
        "stateChanges": [
            {
                "address": "0xcad49c39b72c37b32cee8b14f33f316d3a8bc335",
                "erc": "",
                "slots": [
                    {
                        "current": "0x0000000000000000000000000000000000000000000000000000000000000000",
                        "key": "0x66d547091159a5fd25ffa930c62daacdfd9387b31269c6f7a030669b11cc01e8",
                        "prev": "0x0000000000000000000000000000000000000000000000589251c375d85ac000"
                    },
                    {
                        "current": "0x0000000000000000000000000000000000000000000e14736a5613bae6a33cab",
                        "key": "0x7a8e80dc4be04ede0fe4d27942edad91365037b704f07b98dcbe03a1d1d9833f",
                        "prev": "0x0000000000000000000000000000000000000000000e141ad80450450e487cab"
                    }
                ],
                "storageVariables": [
                    {
                        "name": "balances",
                        "type": "mapping(address => uint256)",
                        "value": {
                            "pairs": [
                                {
                                    "key": "0x2724a9fed47d947b33660ce0ee0d150c6ee18c90",
                                    "value": {
                                        "current": "17021537842164187420376235",
                                        "prev": "17019903985262587420376235",
                                        "typeTag": 1
                                    }
                                },
                                {
                                    "key": "0x3b5441b002679030bda1e99d24da6f506d22f59d",
                                    "value": {
                                        "current": "0",
                                        "prev": "1633856901600000000000",
                                        "typeTag": 1
                                    }
                                }
                            ],
                            "typeTag": 4
                        }
                    }
                ]
            }
        ]
    }
}