{
    "balance_change": {
        "balanceChanges": [
            {
                "account": "0x2d0904f0f0f0c558975bb142f0d2a1c2d7cc4b5f",
                "assets": [
                    {
                        "address": "0x4e15361fd6b4bb609fa63c81a2be19d873717870",
                        "amount": "1,169.03",
                        "iconUrl": "https://assets.blocksec.com/icon/9dc865bcb4118c13fcedeedd317aad70978cb82ea4b24aab6f8d2531165fd982.png",
                        "isERC1155": false,
                        "isERC721": false,
                        "sign": false,
                        "value": "2436.309333"
                    }
                ]
            },
            {
                "account": "0xb01371072fdcb9b4433b855e16a682b461f94ab3",
                "assets": [
                    {
                        "address": "0x4e15361fd6b4bb609fa63c81a2be19d873717870",
                        "amount": "1,169.03",
                        "iconUrl": "https://assets.blocksec.com/icon/9dc865bcb4118c13fcedeedd317aad70978cb82ea4b24aab6f8d2531165fd982.png",
                        "isERC1155": false,
                        "isERC721": false,
                        "sign": true,
                        "value": "2436.309333"
                    }
                ]
            }
        ]
    },
    "profile": {
        "basic_info": {
            "baseFee": "70.881893378",
            "blockNumber": 14066640,
            "callData": "0xedbdf5e2000000000000000000000000b01371072fdcb9b4433b855e16a682b461f94ab30000000000000000000000002d0904f0f0f0c558975bb142f0d2a1c2d7cc4b5f00000000000000000000000000000000000000000000003f5f8cdf36aee7000000000000000000000000000000000000000000000000000000000000000000fa",
            "debugEnable": true,
            "errorInfo": "",
            "eventCount": 4,
            "feeRecipient": "0x1ad91ee08f21be3de0ba2ba6918e714da6b45836",
            "formatValue": "0",
            "gasLimit": 96916,
            "gasPrice": "72.381893378",
            "gasUsed": 77533,
            "intTxnCount": 4,
            "internalRevert": false,
            "internalRevertMessage": "",
            "isContractCreation": false,
            "isFlashloan": false,
            "maxFee": "105.169328422",
            "nonce": 58,
            "overwritedBlockNumber": -1,
            "priorityFee": "1.5",
            "receiver": "0xe95fd76cf16008c12ff3b3a937cb16cd9cc20284",
            "revertMessage": "",
            "sender": "0x2d0904f0f0f0c558975bb142f0d2a1c2d7cc4b5f",
            "simulationEnable": true,
            "sourceTxnHash": "0x8b8700a622c166e65b1d63b90c9a230696484a67e5e17c87d6fe7bb40095c7e5",
            "status": true,
            "timestamp": "2022-01-24T06:14:38Z",
            "transactionFee": "0.005611985339276474",
            "txnHash": "0x8b8700a622c166e65b1d63b90c9a230696484a67e5e17c87d6fe7bb40095c7e5",
            "txnIndex": 34,
            "type": 2,
            "value": "0"
        },
        "fund_flow": [
            {
                "amount": "1,169.03",
                "from": "0x2d0904f0f0f0c558975bb142f0d2a1c2d7cc4b5f",
                "id": 1,
                "isERC1155": false,
                "isERC721": false,
                "isReverted": false,
                "order": 1,
                "to": "0xb01371072fdcb9b4433b855e16a682b461f94ab3",
                "token": "0x4e15361fd6b4bb609fa63c81a2be19d873717870"
            },
            {
                "amount": "1,169.03",
                "from": "0x0000000000000000000000000000000000000000",
                "id": 2,
                "isERC1155": false,
                "isERC721": false,
                "isReverted": false,
                "order": 2,
                "to": "0x2d0904f0f0f0c558975bb142f0d2a1c2d7cc4b5f",
                "token": "0xb01371072fdcb9b4433b855e16a682b461f94ab3"
            },
            {
                "amount": "1,169.03",
                "from": "0x2d0904f0f0f0c558975bb142f0d2a1c2d7cc4b5f",
                "id": 3,
                "isERC1155": false,
                "isERC721": false,
                "isReverted": false,
                "order": 3,
                "to": "0x0000000000000000000000000000000000000000",
                "token": "0xb01371072fdcb9b4433b855e16a682b461f94ab3"
            }
        ],
        "token_infos": [
            {
                "address": "0x4e15361fd6b4bb609fa63c81a2be19d873717870",
                "decimals": 18
            },
            {
                "address": "0xb01371072fdcb9b4433b855e16a682b461f94ab3",
                "decimals": 18
            },
            {
                "address": "0xc02aaa39b223fe8d0a0e5c4f27ead9083c756cc2",
                "decimals": 18
            },
            {
                "address": "0xeeeeeeeeeeeeeeeeeeeeeeeeeeeeeeeeeeeeeeee",
                "decimals": 18
            }
        ]
    },
    "address_label": {
        "labels": [
            {
                "address": "0x0000000000000000000000000000000000000004",
                "label": "Precompiled"
            },
            {
                "address": "0xeeeeeeeeeeeeeeeeeeeeeeeeeeeeeeeeeeeeeeee",
                "label": "Ether"
            },
            {
                "address": "0x4e15361fd6b4bb609fa63c81a2be19d873717870",
                "label": "Fantom: FTM Token"
            },
            {
                "address": "0xb01371072fdcb9b4433b855e16a682b461f94ab3",
                "label": "Multichain: anyFTM Token"
            },
            {
                "address": "0xe95fd76cf16008c12ff3b3a937cb16cd9cc20284",
                "label": "Multichain: Router V3"
            },
            {
                "address": "0x0000000000000000000000000000000000000001",
                "label": "Precompiled"
            },
            {
                "address": "0x0000000000000000000000000000000000000002",
                "label": "Precompiled"
            },
            {
                "address": "0x0000000000000000000000000000000000000003",
                "label": "Precompiled"
            }
        ]
    },
    "trace": {
        "accountLabels": null,
        "dataMap": {
            "-1": {
                "invocation": {
                    "address": "0x2d0904f0f0f0c558975bb142f0d2a1c2d7cc4b5f",
                    "callData": "",
                    "decodedMethod": null,
                    "errorInfo": "",
                    "fromAddress": "",
                    "gasUsed": 0,
                    "id": -1,
                    "methodDecoded": false,
                    "operation": "",
                    "output": "",
                    "revert": false,
                    "revertMessage": "",
                    "selector": "",
                    "status": false,
                    "value": ""
                },
                "nodeType": 0
            },
            "0": {
                "invocation": {
                    "address": "0xe95fd76cf16008c12ff3b3a937cb16cd9cc20284",
                    "callData": "0x000000000000000000000000b01371072fdcb9b4433b855e16a682b461f94ab30000000000000000000000002d0904f0f0f0c558975bb142f0d2a1c2d7cc4b5f00000000000000000000000000000000000000000000003f5f8cdf36aee7000000000000000000000000000000000000000000000000000000000000000000fa",
                    "decodedMethod": {
                        "callParams": [
                            {
                                "name": "token",
                                "type": "address",
                                "value": "0xb01371072fdcb9b4433b855e16a682b461f94ab3"
                            },
                            {
                                "name": "to",
                                "type": "address",
                                "value": "0x2d0904f0f0f0c558975bb142f0d2a1c2d7cc4b5f"
                            },
                            {
                                "name": "amount",
                                "type": "uint256",
                                "value": "1,169,030,000,000,000,000,000"
                            },
                            {
                                "name": "toChainID",
                                "type": "uint256",
                                "value": "250"
                            }
                        ],
                        "constructorArguments": "",
                        "name": "anySwapOutUnderlying",
                        "returnParams": [],
                        "signature": "anySwapOutUnderlying(address,address,uint256,uint256)"
                    },
                    "errorInfo": "",
                    "fromAddress": "0x2d0904f0f0f0c558975bb142f0d2a1c2d7cc4b5f",
                    "gasUsed": 77533,
                    "id": 0,
                    "methodDecoded": true,
                    "operation": "CALL",
                    "output": "",
                    "revert": false,
                    "revertMessage": "",
                    "selector": "0xedbdf5e2",
                    "status": true,
                    "value": "0"
                },
                "nodeType": 0
            },
            "1": {
                "invocation": {
                    "address": "0xb01371072fdcb9b4433b855e16a682b461f94ab3",
                    "callData": "0x",
                    "decodedMethod": {
                        "callParams": [],
                        "constructorArguments": "",
                        "name": "underlying",
                        "returnParams": [
                            {
                                "name": "",
                                "type": "address",
                                "value": "0x4e15361fd6b4bb609fa63c81a2be19d873717870"
                            }
                        ],
                        "signature": "underlying()"
                    },
                    "errorInfo": "",
                    "fromAddress": "0xe95fd76cf16008c12ff3b3a937cb16cd9cc20284",
                    "gasUsed": 327,
                    "id": 1,
                    "methodDecoded": true,
                    "operation": "STATICCALL",
                    "output": "0x0000000000000000000000004e15361fd6b4bb609fa63c81a2be19d873717870",
                    "revert": false,
                    "revertMessage": "",
                    "selector": "0x6f307dc3",
                    "status": true,
                    "value": "0"
                },
                "nodeType": 0
            },
            "2": {
                "invocation": {
                    "address": "0x4e15361fd6b4bb609fa63c81a2be19d873717870",
                    "callData": "0x0000000000000000000000002d0904f0f0f0c558975bb142f0d2a1c2d7cc4b5f000000000000000000000000b01371072fdcb9b4433b855e16a682b461f94ab300000000000000000000000000000000000000000000003f5f8cdf36aee70000",
                    "decodedMethod": {
                        "callParams": [
                            {
                                "name": "_from",
                                "type": "address",
                                "value": "0x2d0904f0f0f0c558975bb142f0d2a1c2d7cc4b5f"
                            },
                            {
                                "name": "_to",
                                "type": "address",
                                "value": "0xb01371072fdcb9b4433b855e16a682b461f94ab3"
                            },
                            {
                                "decimalAvailable": true,
                                "name": "_amount",
                                "type": "uint256",
                                "value": "1,169,030,000,000,000,000,000"
                            }
                        ],
                        "constructorArguments": "",
                        "name": "transferFrom",
                        "returnParams": [
                            {
                                "name": "success",
                                "type": "bool",
                                "value": true
                            }
                        ],
                        "signature": "transferFrom(address,address,uint256)"
                    },
                    "errorInfo": "",
                    "fromAddress": "0xe95fd76cf16008c12ff3b3a937cb16cd9cc20284",
                    "gasUsed": 23302,
                    "id": 2,
                    "methodDecoded": true,
                    "operation": "CALL",
                    "output": "0x0000000000000000000000000000000000000000000000000000000000000001",
                    "revert": false,
                    "revertMessage": "",
                    "selector": "0x23b872dd",
                    "status": true,
                    "value": "0"
                },
                "nodeType": 0
            },
            "3": {
                "event": {
                    "contract": "0x4e15361fd6b4bb609fa63c81a2be19d873717870",
                    "decodedLog": {
                        "name": "Transfer",
                        "params": [
                            {
                                "name": "_from",
                                "type": "address",
                                "value": "0x2d0904f0f0f0c558975bb142f0d2a1c2d7cc4b5f"
                            },
                            {
                                "name": "_to",
                                "type": "address",
                                "value": "0xb01371072fdcb9b4433b855e16a682b461f94ab3"
                            },
                            {
                                "decimalAvailable": true,
                                "name": "_value",
                                "type": "uint256",
                                "value": "1,169,030,000,000,000,000,000"
                            }
                        ],
                        "signature": "Transfer(address,address,uint256)"
                    },
                    "id": 3,
                    "logData": "0x00000000000000000000000000000000000000000000003f5f8cdf36aee70000",
                    "logDecoded": true,
                    "operation": "EVENT",
                    "revert": false,
                    "status": true,
                    "topics": [
                        "0xddf252ad1be2c89b69c2b068fc378daa952ba7f163c4a11628f55a4df523b3ef",
                        "0x0000000000000000000000002d0904f0f0f0c558975bb142f0d2a1c2d7cc4b5f",
                        "0x000000000000000000000000b01371072fdcb9b4433b855e16a682b461f94ab3"
                    ]
                },
                "nodeType": 1
            },
            "4": {
                "invocation": {
                    "address": "0xb01371072fdcb9b4433b855e16a682b461f94ab3",
                    "callData": "0x00000000000000000000000000000000000000000000003f5f8cdf36aee700000000000000000000000000002d0904f0f0f0c558975bb142f0d2a1c2d7cc4b5f",
                    "decodedMethod": {
                        "callParams": [
                            {
                                "name": "amount",
                                "type": "uint256",
                                "value": "1,169,030,000,000,000,000,000"
                            },
                            {
                                "name": "to",
                                "type": "address",
                                "value": "0x2d0904f0f0f0c558975bb142f0d2a1c2d7cc4b5f"
                            }
                        ],
                        "constructorArguments": "",
                        "name": "depositVault",
                        "returnParams": [
                            {
                                "name": "",
                                "type": "uint256",
                                "value": "1,169,030,000,000,000,000,000"
                            }
                        ],
                        "signature": "depositVault(uint256,address)"
                    },
                    "errorInfo": "",
                    "fromAddress": "0xe95fd76cf16008c12ff3b3a937cb16cd9cc20284",
                    "gasUsed": 34250,
                    "id": 4,
                    "methodDecoded": true,
                    "operation": "CALL",
                    "output": "0x00000000000000000000000000000000000000000000003f5f8cdf36aee70000",
                    "revert": false,
                    "revertMessage": "",
                    "selector": "0xbebbf4d0",
                    "status": true,
                    "value": "0"
                },
                "nodeType": 0
            },
            "5": {
                "event": {
                    "contract": "0xb01371072fdcb9b4433b855e16a682b461f94ab3",
                    "decodedLog": {
                        "name": "Transfer",
                        "params": [
                            {
                                "name": "from",
                                "type": "address",
                                "value": "0x0000000000000000000000000000000000000000"
                            },
                            {
                                "name": "to",
                                "type": "address",
                                "value": "0x2d0904f0f0f0c558975bb142f0d2a1c2d7cc4b5f"
                            },
                            {
                                "decimalAvailable": true,
                                "name": "value",
                                "type": "uint256",
                                "value": "1,169,030,000,000,000,000,000"
                            }
                        ],
                        "signature": "Transfer(address,address,uint256)"
                    },
                    "id": 5,
                    "logData": "0x00000000000000000000000000000000000000000000003f5f8cdf36aee70000",
                    "logDecoded": true,
                    "operation": "EVENT",
                    "revert": false,
                    "status": true,
                    "topics": [
                        "0xddf252ad1be2c89b69c2b068fc378daa952ba7f163c4a11628f55a4df523b3ef",
                        "0x0000000000000000000000000000000000000000000000000000000000000000",
                        "0x0000000000000000000000002d0904f0f0f0c558975bb142f0d2a1c2d7cc4b5f"
                    ]
                },
                "nodeType": 1
            },
            "6": {
                "invocation": {
                    "address": "0xb01371072fdcb9b4433b855e16a682b461f94ab3",
                    "callData": "0x0000000000000000000000002d0904f0f0f0c558975bb142f0d2a1c2d7cc4b5f00000000000000000000000000000000000000000000003f5f8cdf36aee70000",
                    "decodedMethod": {
                        "callParams": [
                            {
                                "name": "from",
                                "type": "address",
                                "value": "0x2d0904f0f0f0c558975bb142f0d2a1c2d7cc4b5f"
                            },
                            {
                                "name": "amount",
                                "type": "uint256",
                                "value": "1,169,030,000,000,000,000,000"
                            }
                        ],
                        "constructorArguments": "",
                        "name": "burn",
                        "returnParams": [
                            {
                                "name": "",
                                "type": "bool",
                                "value": true
                            }
                        ],
                        "signature": "burn(address,uint256)"
                    },
                    "errorInfo": "",
                    "fromAddress": "0xe95fd76cf16008c12ff3b3a937cb16cd9cc20284",
                    "gasUsed": 5341,
                    "id": 6,
                    "methodDecoded": true,
                    "operation": "CALL",
                    "output": "0x0000000000000000000000000000000000000000000000000000000000000001",
                    "revert": false,
                    "revertMessage": "",
                    "selector": "0x9dc29fac",
                    "status": true,
                    "value": "0"
                },
                "nodeType": 0
            },
            "7": {
                "event": {
                    "contract": "0xb01371072fdcb9b4433b855e16a682b461f94ab3",
                    "decodedLog": {
                        "name": "Transfer",
                        "params": [
                            {
                                "name": "from",
                                "type": "address",
                                "value": "0x2d0904f0f0f0c558975bb142f0d2a1c2d7cc4b5f"
                            },
                            {
                                "name": "to",
                                "type": "address",
                                "value": "0x0000000000000000000000000000000000000000"
                            },
                            {
                                "decimalAvailable": true,
                                "name": "value",
                                "type": "uint256",
                                "value": "1,169,030,000,000,000,000,000"
                            }
                        ],
                        "signature": "Transfer(address,address,uint256)"
                    },
                    "id": 7,
                    "logData": "0x00000000000000000000000000000000000000000000003f5f8cdf36aee70000",
                    "logDecoded": true,
                    "operation": "EVENT",
                    "revert": false,
                    "status": true,
                    "topics": [
                        "0xddf252ad1be2c89b69c2b068fc378daa952ba7f163c4a11628f55a4df523b3ef",
                        "0x0000000000000000000000002d0904f0f0f0c558975bb142f0d2a1c2d7cc4b5f",
                        "0x0000000000000000000000000000000000000000000000000000000000000000"
                    ]
                },
                "nodeType": 1
            },
            "8": {
                "event": {
                    "contract": "0xe95fd76cf16008c12ff3b3a937cb16cd9cc20284",
                    "decodedLog": {
                        "name": "LogAnySwapOut",
                        "params": [
                            {
                                "name": "token",
                                "type": "address",
                                "value": "0xb01371072fdcb9b4433b855e16a682b461f94ab3"
                            },
                            {
                                "name": "from",
                                "type": "address",
                                "value": "0x2d0904f0f0f0c558975bb142f0d2a1c2d7cc4b5f"
                            },
                            {
                                "name": "to",
                                "type": "address",
                                "value": "0x2d0904f0f0f0c558975bb142f0d2a1c2d7cc4b5f"
                            },
                            {
                                "name": "amount",
                                "type": "uint256",
                                "value": "1,169,030,000,000,000,000,000"
                            },
                            {
                                "name": "fromChainID",
                                "type": "uint256",
                                "value": "1"
                            },
                            {
                                "name": "toChainID",
                                "type": "uint256",
                                "value": "250"
                            }
                        ],
                        "signature": "LogAnySwapOut(address,address,address,uint256,uint256,uint256)"
                    },
                    "id": 8,
                    "logData": "0x00000000000000000000000000000000000000000000003f5f8cdf36aee70000000000000000000000000000000000000000000000000000000000000000000100000000000000000000000000000000000000000000000000000000000000fa",
                    "logDecoded": true,
                    "operation": "EVENT",
                    "revert": false,
                    "status": true,
                    "topics": [
                        "0x97116cf6cd4f6412bb47914d6db18da9e16ab2142f543b86e207c24fbd16b23a",
                        "0x000000000000000000000000b01371072fdcb9b4433b855e16a682b461f94ab3",
                        "0x0000000000000000000000002d0904f0f0f0c558975bb142f0d2a1c2d7cc4b5f",
                        "0x0000000000000000000000002d0904f0f0f0c558975bb142f0d2a1c2d7cc4b5f"
                    ]
                },
                "nodeType": 1
            }
        },
        "gasFlame": [
            {
                "children": [
                    {
                        "children": [
                            {
                                "children": [],
                                "depth": 0,
                                "name": "Initial Gas",
                                "value": 22152
                            },
                            {
                                "children": [
                                    {
                                        "children": [],
                                        "depth": 1,
                                        "name": "underlying",
                                        "value": 327
                                    },
                                    {
                                        "children": [],
                                        "depth": 1,
                                        "name": "transferFrom",
                                        "value": 23302
                                    },
                                    {
                                        "children": [],
                                        "depth": 1,
                                        "name": "depositVault",
                                        "value": 34250
                                    },
                                    {
                                        "children": [],
                                        "depth": 1,
                                        "name": "burn",
                                        "value": 5341
                                    }
                                ],
                                "depth": 0,
                                "name": "Executed Gas",
                                "value": 74764
                            }
                        ],
                        "depth": -1,
                        "name": "Actual Gas Used",
                        "value": 77533
                    },
                    {
                        "children": [],
                        "depth": -1,
                        "name": "Refunded Gas",
                        "value": 19383
                    }
                ],
                "depth": -2,
                "name": "Total Gas",
                "value": 96916
            }
        ],
        "isConfirmed": true,
        "mainTrace": [
            {
                "children": [
                    {
                        "children": [
                            {
                                "children": [],
                                "depth": 1,
                                "id": 1,
                                "order": 1
                            },
                            {
                                "children": [
                                    {
                                        "children": [],
                                        "depth": 2,
                                        "id": 3,
                                        "order": 3
                                    }
                                ],
                                "depth": 1,
                                "id": 2,
                                "order": 2
                            },
                            {
                                "children": [
                                    {
                                        "children": [],
                                        "depth": 2,
                                        "id": 5,
                                        "order": 5
                                    }
                                ],
                                "depth": 1,
                                "id": 4,
                                "order": 4
                            },
                            {
                                "children": [
                                    {
                                        "children": [],
                                        "depth": 2,
                                        "id": 7,
                                        "order": 7
                                    }
                                ],
                                "depth": 1,
                                "id": 6,
                                "order": 6
                            },
                            {
                                "children": [],
                                "depth": 1,
                                "id": 8,
                                "order": 8
                            }
                        ],
                        "depth": 0,
                        "id": 0,
                        "order": 0
                    }
                ],
                "depth": -1,
                "id": -1,
                "order": -1
            }
        ],
        "mainTraceNodeCount": 9,
        "parentIdMap": {
            "0": -1,
            "1": 0,
            "2": 0,
            "3": 2,
            "4": 0,
            "5": 4,
            "6": 0,
            "7": 6,
            "8": 0
        },
        "tidyTrace": [
            {
                "children": [
                    {
                        "children": [
                            {
                                "children": [
                                    {
                                        "children": [],
                                        "depth": 2,
                                        "id": 3,
                                        "order": 3
                                    }
                                ],
                                "depth": 1,
                                "id": 2,
                                "order": 2
                            },
                            {
                                "children": [
                                    {
                                        "children": [],
                                        "depth": 2,
                                        "id": 5,
                                        "order": 5
                                    }
                                ],
                                "depth": 1,
                                "id": 4,
                                "order": 4
                            },
                            {
                                "children": [
                                    {
                                        "children": [],
                                        "depth": 2,
                                        "id": 7,
                                        "order": 7
                                    }
                                ],
                                "depth": 1,
                                "id": 6,
                                "order": 6
                            },
                            {
                                "children": [],
                                "depth": 1,
                                "id": 8,
                                "order": 8
                            }
                        ],
                        "depth": 0,
                        "id": 0,
                        "order": 0
                    }
                ],
                "depth": -1,
                "id": -1,
                "order": -1
            }
        ],
        "tidyTraceNodeCount": 8
    },
    "state_change": {
        "stateChanges": [
            {
                "address": "0x4e15361fd6b4bb609fa63c81a2be19d873717870",
                "erc": "ERC-20",
                "slots": [
                    {
                        "current": "0xffffffffffffffffffffffffffffffffffffffffffffffc0a07320c95118ffff",
                        "key": "0x51a90ae6b5e998edfec2c9ecd09f9c6f9cad331b9f6e651a23cf63cbe5ed3eb4",
                        "prev": "0xffffffffffffffffffffffffffffffffffffffffffffffffffffffffffffffff"
                    },
                    {
                        "current": "0x000000000000000000000000000000000000000000056bd3b479e62f853e9eb4",
                        "key": "0x9e64ef9abb9c67060e1acb7303058c433803826bcde785d39b3d6151ededc3ec",
                        "prev": "0x000000000000000000000000000000000000000000056b9454ed06f8d6579eb4"
                    },
                    {
                        "current": "0x000000000000000000000000000000000000000000000000000fd35e6007be52",
                        "key": "0xaa6ede400a11c6907e23f064a5176cf5722dc54a2d369aedf8f72c122e65150e",
                        "prev": "0x00000000000000000000000000000000000000000000003f5f9cb2950eeebe52"
                    }
                ],
                "storageVariables": [
                    {
                        "name": "balances",
                        "type": "mapping(address => uint256)",
                        "value": {
                            "pairs": [
                                {
                                    "key": "0x2d0904f0f0f0c558975bb142f0d2a1c2d7cc4b5f",
                                    "value": {
                                        "current": "4454526942166610",
                                        "prev": "1169034454526942166610",
                                        "typeTag": 1
                                    }
                                },
                                {
                                    "key": "0xb01371072fdcb9b4433b855e16a682b461f94ab3",
                                    "value": {
                                        "current": "6553827579418241409130164",
                                        "prev": "6552658549418241409130164",
                                        "typeTag": 1
                                    }
                                }
                            ],
                            "typeTag": 4
                        }
                    },
                    {
                        "name": "allowed",
                        "type": "mapping(address => mapping(address => uint256))",
                        "value": {
                            "pairs": [
                                {
                                    "key": "0x2d0904f0f0f0c558975bb142f0d2a1c2d7cc4b5f",
                                    "value": {
                                        "pairs": [
                                            {
                                                "key": "0xe95fd76cf16008c12ff3b3a937cb16cd9cc20284",
                                                "value": {
                                                    "current": "115792089237316195423570985008687907853269984665640564038288554007913129639935",
                                                    "prev": "115792089237316195423570985008687907853269984665640564039457584007913129639935",
                                                    "typeTag": 1
                                                }
                                            }
                                        ],
                                        "typeTag": 4
                                    }
                                }
                            ],
                            "typeTag": 4
                        }
                    }
                ]
            }
        ]
    }
}