{
    "balance_change": {
        "balanceChanges": []
    },
    "profile": {
        "basic_info": {
            "baseFee": "",
            "blockNumber": 10983648,
            "callData": "0x66c68863000000000000000000000000b4e16d0168e52d35cacd2c6185b44281ec28c9dc0000000000000000000000001b87fde6af5396165fdadf7f532784622a824abf000000000000000000000000d7cfbcadaaf6475321cfcf3884f15a93400be658000000000000000000000000000000000000000000000000000000000000000400000000000000000000000000000000000000000000000038df0549b18d000000000000000000000000000000000000000000000000000000000000000493e000000000000000000000000000000000000000000000000000000000000000e0000000000000000000000000000000000000000000000000000000000000019b01000000000000000000000000000000000000000000000000000000014febd1c18aa000cdbe46b0b8162db31c1b00c8476d7dc30e8a9068e504f6fa73496149744351925e5f00ef74010000a25f00ef740100000300000000000000000000000000000000000000000000000000c7ba8048c1d4000100000000000000000000000000000000000000000000000000e150ffe3bfd4000000000000000000000000000000000000000000009b28c954271a09a02e8f00010000000000000000000000000000000000000000008efeacfd742c3f8f2f8f00000000000000000000000000000000000000000000002c241bc901191e8026040100000000000000000000000000000000000000000000dbf25bfd646f409e130400000000000000000000000000000000000000000000000000000099fa3c334d010000000000000000000000000000000000000000000000000000007f64be974e00000000000000000000000000000000000000000000ec2f5d18eeba40249f000000000000000000000000000000000000000000000000008bf937aceeeb844308000000000000",
            "debugEnable": true,
            "errorInfo": "",
            "eventCount": 0,
            "feeRecipient": "0xb3b7874f13387d44a3398d298b075b7a3505d8d4",
            "formatValue": "0",
            "gasLimit": 450000,
            "gasPrice": "112",
            "gasUsed": 40663,
            "intTxnCount": 3,
            "internalRevert": false,
            "internalRevertMessage": "",
            "isContractCreation": false,
            "isFlashloan": false,
            "maxFee": "",
            "nonce": 564,
            "overwritedBlockNumber": -1,
            "priorityFee": "",
            "receiver": "0xfe7f0897239ce9cc6645d9323e6fe428591b821c",
            "revertMessage": "",
            "sender": "0xd2d97b615498f8d06e15ccb5339acbe3ecbbf77c",
            "simulationEnable": true,
            "sourceTxnHash": "0x8b5b93261a9d5eb1204d547512381954831e49f7ecd3cc63e60c2a5162562e59",
            "status": true,
            "timestamp": "2020-10-03T15:06:53Z",
            "transactionFee": "0.004554256",
            "txnHash": "0x8b5b93261a9d5eb1204d547512381954831e49f7ecd3cc63e60c2a5162562e59",
            "txnIndex": 64,
            "type": 0,
            "value": "0"
        },
        "fund_flow": [],
        "token_infos": [
            {
                "address": "0xc02aaa39b223fe8d0a0e5c4f27ead9083c756cc2",
                "decimals": 18
            },
            {
                "address": "0xeeeeeeeeeeeeeeeeeeeeeeeeeeeeeeeeeeeeeeee",
                "decimals": 18
            }
        ]
    },
    "address_label": {
        "labels": [
            {
                "address": "0xd7cfbcadaaf6475321cfcf3884f15a93400be658",
                "label": "Uniswap V2: OCTO"
            },
            {
                "address": "0x1b87fde6af5396165fdadf7f532784622a824abf",
                "label": "Uniswap V2: OCTO-USDC"
            },
            {
                "address": "0x0000000000000000000000000000000000000001",
                "label": "Precompiled"
            },
            {
                "address": "0x0000000000000000000000000000000000000002",
                "label": "Precompiled"
            },
            {
                "address": "0x0000000000000000000000000000000000000003",
                "label": "Precompiled"
            },
            {
                "address": "0x0000000000000000000000000000000000000004",
                "label": "Precompiled"
            },
            {
                "address": "0xeeeeeeeeeeeeeeeeeeeeeeeeeeeeeeeeeeeeeeee",
                "label": "Ether"
            },
            {
                "address": "0xb4e16d0168e52d35cacd2c6185b44281ec28c9dc",
                "label": "Uniswap V2: USDC"
            }
        ]
    },
    "trace": {
        "accountLabels": null,
        "dataMap": {
            "-1": {
                "invocation": {
                    "address": "0xd2d97b615498f8d06e15ccb5339acbe3ecbbf77c",
                    "callData": "",
                    "decodedMethod": null,
                    "errorInfo": "",
                    "fromAddress": "",
                    "gasUsed": 0,
                    "id": -1,
                    "methodDecoded": false,
                    "operation": "",
                    "output": "",
                    "revert": false,
                    "revertMessage": "",
                    "selector": "",
                    "status": false,
                    "value": ""
                },
                "nodeType": 0
            },
            "0": {
                "invocation": {
                    "address": "0xfe7f0897239ce9cc6645d9323e6fe428591b821c",
                    "callData": "0x000000000000000000000000b4e16d0168e52d35cacd2c6185b44281ec28c9dc0000000000000000000000001b87fde6af5396165fdadf7f532784622a824abf000000000000000000000000d7cfbcadaaf6475321cfcf3884f15a93400be658000000000000000000000000000000000000000000000000000000000000000400000000000000000000000000000000000000000000000038df0549b18d000000000000000000000000000000000000000000000000000000000000000493e000000000000000000000000000000000000000000000000000000000000000e0000000000000000000000000000000000000000000000000000000000000019b01000000000000000000000000000000000000000000000000000000014febd1c18aa000cdbe46b0b8162db31c1b00c8476d7dc30e8a9068e504f6fa73496149744351925e5f00ef74010000a25f00ef740100000300000000000000000000000000000000000000000000000000c7ba8048c1d4000100000000000000000000000000000000000000000000000000e150ffe3bfd4000000000000000000000000000000000000000000009b28c954271a09a02e8f00010000000000000000000000000000000000000000008efeacfd742c3f8f2f8f00000000000000000000000000000000000000000000002c241bc901191e8026040100000000000000000000000000000000000000000000dbf25bfd646f409e130400000000000000000000000000000000000000000000000000000099fa3c334d010000000000000000000000000000000000000000000000000000007f64be974e00000000000000000000000000000000000000000000ec2f5d18eeba40249f000000000000000000000000000000000000000000000000008bf937aceeeb844308000000000000",
                    "decodedMethod": null,
                    "errorInfo": "",
                    "fromAddress": "0xd2d97b615498f8d06e15ccb5339acbe3ecbbf77c",
                    "gasUsed": 40663,
                    "id": 0,
                    "methodDecoded": false,
                    "operation": "CALL",
                    "output": "",
                    "revert": false,
                    "revertMessage": "",
                    "selector": "0x66c68863",
                    "status": true,
                    "value": "0"
                },
                "nodeType": 0
            },
            "1": {
                "invocation": {
                    "address": "0xb4e16d0168e52d35cacd2c6185b44281ec28c9dc",
                    "callData": "0x",
                    "decodedMethod": {
                        "callParams": [],
                        "constructorArguments": "",
                        "name": "getReserves",
                        "returnParams": [
                            {
                                "name": "_reserve0",
                                "type": "uint112",
                                "value": "233,926,306,928,836"
                            },
                            {
                                "name": "_reserve1",
                                "type": "uint112",
                                "value": "676,159,429,847,669,084,807,884"
                            },
                            {
                                "name": "_blockTimestampLast",
                                "type": "uint32",
                                "value": "1,601,737,613"
                            }
                        ],
                        "signature": "getReserves()"
                    },
                    "errorInfo": "",
                    "fromAddress": "0xfe7f0897239ce9cc6645d9323e6fe428591b821c",
                    "gasUsed": 1204,
                    "id": 1,
                    "methodDecoded": true,
                    "operation": "STATICCALL",
                    "output": "0x0000000000000000000000000000000000000000000000000000d4c1366d98c4000000000000000000000000000000000000000000008f2ead1778424cf062cc000000000000000000000000000000000000000000000000000000005f78938d",
                    "revert": false,
                    "revertMessage": "",
                    "selector": "0x0902f1ac",
                    "status": true,
                    "value": "0"
                },
                "nodeType": 0
            },
            "2": {
                "invocation": {
                    "address": "0x1b87fde6af5396165fdadf7f532784622a824abf",
                    "callData": "0x",
                    "decodedMethod": {
                        "callParams": [],
                        "constructorArguments": "",
                        "name": "getReserves",
                        "returnParams": [
                            {
                                "name": "_reserve0",
                                "type": "uint112",
                                "value": "19,642,354,692,221,974,104,080"
                            },
                            {
                                "name": "_reserve1",
                                "type": "uint112",
                                "value": "330,870,678,697"
                            },
                            {
                                "name": "_blockTimestampLast",
                                "type": "uint32",
                                "value": "1,601,737,613"
                            }
                        ],
                        "signature": "getReserves()"
                    },
                    "errorInfo": "",
                    "fromAddress": "0xfe7f0897239ce9cc6645d9323e6fe428591b821c",
                    "gasUsed": 1204,
                    "id": 2,
                    "methodDecoded": true,
                    "operation": "STATICCALL",
                    "output": "0x000000000000000000000000000000000000000000000428d06e32eba60448100000000000000000000000000000000000000000000000000000004d096de4a9000000000000000000000000000000000000000000000000000000005f78938d",
                    "revert": false,
                    "revertMessage": "",
                    "selector": "0x0902f1ac",
                    "status": true,
                    "value": "0"
                },
                "nodeType": 0
            },
            "3": {
                "invocation": {
                    "address": "0xd7cfbcadaaf6475321cfcf3884f15a93400be658",
                    "callData": "0x",
                    "decodedMethod": {
                        "callParams": [],
                        "constructorArguments": "",
                        "name": "getReserves",
                        "returnParams": [
                            {
                                "name": "_reserve0",
                                "type": "uint112",
                                "value": "3,002,315,098,636,514,895,337"
                            },
                            {
                                "name": "_reserve1",
                                "type": "uint112",
                                "value": "149,064,035,297,673,556,486"
                            },
                            {
                                "name": "_blockTimestampLast",
                                "type": "uint32",
                                "value": "1,601,737,613"
                            }
                        ],
                        "signature": "getReserves()"
                    },
                    "errorInfo": "",
                    "fromAddress": "0xfe7f0897239ce9cc6645d9323e6fe428591b821c",
                    "gasUsed": 1204,
                    "id": 3,
                    "methodDecoded": true,
                    "operation": "STATICCALL",
                    "output": "0x0000000000000000000000000000000000000000000000a2c17deb43455625e900000000000000000000000000000000000000000000000814add654001f3206000000000000000000000000000000000000000000000000000000005f78938d",
                    "revert": false,
                    "revertMessage": "",
                    "selector": "0x0902f1ac",
                    "status": true,
                    "value": "0"
                },
                "nodeType": 0
            }
        },
        "gasFlame": [
            {
                "children": [
                    {
                        "children": [
                            {
                                "children": [],
                                "depth": 0,
                                "name": "Initial Gas",
                                "value": 26236
                            },
                            {
                                "children": [
                                    {
                                        "children": [],
                                        "depth": 1,
                                        "name": "getReserves",
                                        "value": 1204
                                    },
                                    {
                                        "children": [],
                                        "depth": 1,
                                        "name": "getReserves",
                                        "value": 1204
                                    },
                                    {
                                        "children": [],
                                        "depth": 1,
                                        "name": "getReserves",
                                        "value": 1204
                                    }
                                ],
                                "depth": 0,
                                "name": "Executed Gas",
                                "value": 14427
                            }
                        ],
                        "depth": -1,
                        "name": "Actual Gas Used",
                        "value": 40663
                    },
                    {
                        "children": [],
                        "depth": -1,
                        "name": "Refunded Gas",
                        "value": 0
                    }
                ],
                "depth": -2,
                "name": "Total Gas",
                "value": 40663
            }
        ],
        "isConfirmed": true,
        "mainTrace": [
            {
                "children": [
                    {
                        "children": [
                            {
                                "children": [],
                                "depth": 1,
                                "id": 1,
                                "order": 1
                            },
                            {
                                "children": [],
                                "depth": 1,
                                "id": 2,
                                "order": 2
                            },
                            {
                                "children": [],
                                "depth": 1,
                                "id": 3,
                                "order": 3
                            }
                        ],
                        "depth": 0,
                        "id": 0,
                        "order": 0
                    }
                ],
                "depth": -1,
                "id": -1,
                "order": -1
            }
        ],
        "mainTraceNodeCount": 4,
        "parentIdMap": {
            "0": -1,
            "1": 0,
            "2": 0,
            "3": 0
        },
        "tidyTrace": [
            {
                "children": [
                    {
                        "children": [],
                        "depth": 0,
                        "id": 0,
                        "order": 0
                    }
                ],
                "depth": -1,
                "id": -1,
                "order": -1
            }
        ],
        "tidyTraceNodeCount": 1
    },
    "state_change": {
        "stateChanges": []
    }
}