{
    "balance_change": {
        "balanceChanges": [
            {
                "account": "0x62937c88a802ca1aff8f325a120f9fd6fd4d6b4a",
                "assets": [
                    {
                        "address": "0xeeeeeeeeeeeeeeeeeeeeeeeeeeeeeeeeeeeeeeee",
                        "amount": "0.316993684975219866",
                        "iconUrl": "https://assets.blocksec.com/image/1663669189317-3.png",
                        "isERC1155": false,
                        "isERC721": false,
                        "sign": true,
                        "value": "1152.3842290401215213"
                    },
                    {
                        "address": "0xd29da236dd4aac627346e1bba06a619e8c22d7c5",
                        "amount": "33,649,938.620986885",
                        "iconUrl": "",
                        "isERC1155": false,
                        "isERC721": false,
                        "sign": true,
                        "value": "8459.081473"
                    }
                ]
            },
            {
                "account": "0x961ec3bb28c9e98a040c4bded38917aa96b791be",
                "assets": [
                    {
                        "address": "0xc02aaa39b223fe8d0a0e5c4f27ead9083c756cc2",
                        "amount": "0.316993684975219866",
                        "iconUrl": "https://assets.blocksec.com/icon/f1cb2d02c471d545bbc7722daf3277fd852d98e63d118771af7047bd8256c516.png",
                        "isERC1155": false,
                        "isERC721": false,
                        "sign": false,
                        "value": "1152.3842290401215213"
                    },
                    {
                        "address": "0xd29da236dd4aac627346e1bba06a619e8c22d7c5",
                        "amount": "33,649,938.620986885",
                        "iconUrl": "",
                        "isERC1155": false,
                        "isERC721": false,
                        "sign": false,
                        "value": "8459.081473"
                    }
                ]
            },
            {
                "account": "0xc02aaa39b223fe8d0a0e5c4f27ead9083c756cc2",
                "assets": [
                    {
                        "address": "0xeeeeeeeeeeeeeeeeeeeeeeeeeeeeeeeeeeeeeeee",
                        "amount": "0.316993684975219866",
                        "iconUrl": "https://assets.blocksec.com/image/1663669189317-3.png",
                        "isERC1155": false,
                        "isERC721": false,
                        "sign": false,
                        "value": "1152.3842290401215213"
                    },
                    {
                        "address": "0xc02aaa39b223fe8d0a0e5c4f27ead9083c756cc2",
                        "amount": "0.316993684975219866",
                        "iconUrl": "https://assets.blocksec.com/icon/f1cb2d02c471d545bbc7722daf3277fd852d98e63d118771af7047bd8256c516.png",
                        "isERC1155": false,
                        "isERC721": false,
                        "sign": true,
                        "value": "1152.3842290401215213"
                    }
                ]
            }
        ]
    },
    "profile": {
        "basic_info": {
            "baseFee": "2.722152137",
            "blockNumber": 20107539,
            "callData": "0xac9650d80000000000000000000000000000000000000000000000000000000000000020000000000000000000000000000000000000000000000000000000000000000400000000000000000000000000000000000000000000000000000000000000800000000000000000000000000000000000000000000000000000000000000160000000000000000000000000000000000000000000000000000000000000022000000000000000000000000000000000000000000000000000000000000002a000000000000000000000000000000000000000000000000000000000000000a40c49ccbe00000000000000000000000000000000000000000000000000000000000b5eb20000000000000000000000000000000000000000000000002a046e5b5dfcc65e00000000000000000000000000000000000000000000000003866e2ced6b9b02000000000000000000000000000000000000000000000000007446b7d822733e00000000000000000000000000000000000000000000000000000000666f726b000000000000000000000000000000000000000000000000000000000000000000000000000000000000000000000000000000000000000000000084fc6f786500000000000000000000000000000000000000000000000000000000000b5eb2000000000000000000000000000000000000000000000000000000000000000000000000000000000000000000000000ffffffffffffffffffffffffffffffff00000000000000000000000000000000ffffffffffffffffffffffffffffffff00000000000000000000000000000000000000000000000000000000000000000000000000000000000000000000000000000000000000000000004449404b7c00000000000000000000000000000000000000000000000003866e2ced6b9b0200000000000000000000000062937c88a802ca1aff8f325a120f9fd6fd4d6b4a000000000000000000000000000000000000000000000000000000000000000000000000000000000000000000000000000000000000000000000064df2ab5bb000000000000000000000000d29da236dd4aac627346e1bba06a619e8c22d7c50000000000000000000000000000000000000000000000000074532ad705daf800000000000000000000000062937c88a802ca1aff8f325a120f9fd6fd4d6b4a00000000000000000000000000000000000000000000000000000000",
            "debugEnable": true,
            "errorInfo": "",
            "eventCount": 8,
            "feeRecipient": "0x95222290dd7278aa3ddd389cc1e1d165cc4bafe5",
            "formatValue": "0",
            "gasLimit": 359860,
            "gasPrice": "2.822152137",
            "gasUsed": 237590,
            "intTxnCount": 15,
            "internalRevert": false,
            "internalRevertMessage": "",
            "isContractCreation": false,
            "isFlashloan": false,
            "maxFee": "3.531224331",
            "nonce": 60,
            "overwritedBlockNumber": -1,
            "priorityFee": "0.1",
            "receiver": "0xc36442b4a4522e871399cd717abdd847ab11fe88",
            "revertMessage": "",
            "sender": "0x62937c88a802ca1aff8f325a120f9fd6fd4d6b4a",
            "simulationEnable": true,
            "sourceTxnHash": "0x8b74fef086cbda92340b1a8f9ea9b98b2fbbf3020a64f2586c969d24a4e36ef0",
            "status": true,
            "timestamp": "2024-06-16T23:09:47Z",
            "transactionFee": "0.00067051512622983",
            "txnHash": "0x8b74fef086cbda92340b1a8f9ea9b98b2fbbf3020a64f2586c969d24a4e36ef0",
            "txnIndex": 88,
            "type": 2,
            "value": "0"
        },
        "fund_flow": [
            {
                "amount": "0.316993684975219866",
                "from": "0x961ec3bb28c9e98a040c4bded38917aa96b791be",
                "id": 1,
                "isERC1155": false,
                "isERC721": false,
                "isReverted": false,
                "order": 1,
                "to": "0xc36442b4a4522e871399cd717abdd847ab11fe88",
                "token": "0xc02aaa39b223fe8d0a0e5c4f27ead9083c756cc2"
            },
            {
                "amount": "33,649,938.620986885",
                "from": "0x961ec3bb28c9e98a040c4bded38917aa96b791be",
                "id": 2,
                "isERC1155": false,
                "isERC721": false,
                "isReverted": false,
                "order": 2,
                "to": "0xc36442b4a4522e871399cd717abdd847ab11fe88",
                "token": "0xd29da236dd4aac627346e1bba06a619e8c22d7c5"
            },
            {
                "amount": "0.316993684975219866",
                "from": "0xc02aaa39b223fe8d0a0e5c4f27ead9083c756cc2",
                "id": 3,
                "isERC1155": false,
                "isERC721": false,
                "isReverted": false,
                "order": 3,
                "to": "0xc36442b4a4522e871399cd717abdd847ab11fe88",
                "token": "0xeeeeeeeeeeeeeeeeeeeeeeeeeeeeeeeeeeeeeeee"
            },
            {
                "amount": "0.316993684975219866",
                "from": "0xc36442b4a4522e871399cd717abdd847ab11fe88",
                "id": 4,
                "isERC1155": false,
                "isERC721": false,
                "isReverted": false,
                "order": 4,
                "to": "0xc02aaa39b223fe8d0a0e5c4f27ead9083c756cc2",
                "token": "0xc02aaa39b223fe8d0a0e5c4f27ead9083c756cc2"
            },
            {
                "amount": "0.316993684975219866",
                "from": "0xc36442b4a4522e871399cd717abdd847ab11fe88",
                "id": 5,
                "isERC1155": false,
                "isERC721": false,
                "isReverted": false,
                "order": 5,
                "to": "0x62937c88a802ca1aff8f325a120f9fd6fd4d6b4a",
                "token": "0xeeeeeeeeeeeeeeeeeeeeeeeeeeeeeeeeeeeeeeee"
            },
            {
                "amount": "33,649,938.620986885",
                "from": "0xc36442b4a4522e871399cd717abdd847ab11fe88",
                "id": 6,
                "isERC1155": false,
                "isERC721": false,
                "isReverted": false,
                "order": 6,
                "to": "0x62937c88a802ca1aff8f325a120f9fd6fd4d6b4a",
                "token": "0xd29da236dd4aac627346e1bba06a619e8c22d7c5"
            }
        ],
        "token_infos": [
            {
                "address": "0xc02aaa39b223fe8d0a0e5c4f27ead9083c756cc2",
                "decimals": 18
            },
            {
                "address": "0xd29da236dd4aac627346e1bba06a619e8c22d7c5",
                "decimals": 9
            },
            {
                "address": "0xeeeeeeeeeeeeeeeeeeeeeeeeeeeeeeeeeeeeeeee",
                "decimals": 18
            }
        ]
    },
    "address_label": {
        "labels": [
            {
                "address": "0x0000000000000000000000000000000000000003",
                "label": "Precompiled"
            },
            {
                "address": "0x0000000000000000000000000000000000000004",
                "label": "Precompiled"
            },
            {
                "address": "0xeeeeeeeeeeeeeeeeeeeeeeeeeeeeeeeeeeeeeeee",
                "label": "Ether"
            },
            {
                "address": "0xc02aaa39b223fe8d0a0e5c4f27ead9083c756cc2",
                "label": "Wrapped Ether (WETH)"
            },
            {
                "address": "0x961ec3bb28c9e98a040c4bded38917aa96b791be",
                "label": "Uniswap V3: MAGA 4"
            },
            {
                "address": "0xc36442b4a4522e871399cd717abdd847ab11fe88",
                "label": "Uniswap V3: Positions NFT"
            },
            {
                "address": "0x0000000000000000000000000000000000000001",
                "label": "Precompiled"
            },
            {
                "address": "0xd29da236dd4aac627346e1bba06a619e8c22d7c5",
                "label": "MagaHat: MAGA Token"
            },
            {
                "address": "0x0000000000000000000000000000000000000000",
                "label": "Null Address"
            },
            {
                "address": "0x0000000000000000000000000000000000000002",
                "label": "Precompiled"
            }
        ]
    },
    "trace": {
        "accountLabels": null,
        "dataMap": {
            "-1": {
                "invocation": {
                    "address": "0x62937c88a802ca1aff8f325a120f9fd6fd4d6b4a",
                    "callData": "",
                    "decodedMethod": null,
                    "errorInfo": "",
                    "fromAddress": "",
                    "gasUsed": 0,
                    "id": -1,
                    "methodDecoded": false,
                    "operation": "",
                    "output": "",
                    "revert": false,
                    "revertMessage": "",
                    "selector": "",
                    "status": false,
                    "value": ""
                },
                "nodeType": 0
            },
            "0": {
                "invocation": {
                    "address": "0xc36442b4a4522e871399cd717abdd847ab11fe88",
                    "callData": "0x0000000000000000000000000000000000000000000000000000000000000020000000000000000000000000000000000000000000000000000000000000000400000000000000000000000000000000000000000000000000000000000000800000000000000000000000000000000000000000000000000000000000000160000000000000000000000000000000000000000000000000000000000000022000000000000000000000000000000000000000000000000000000000000002a000000000000000000000000000000000000000000000000000000000000000a40c49ccbe00000000000000000000000000000000000000000000000000000000000b5eb20000000000000000000000000000000000000000000000002a046e5b5dfcc65e00000000000000000000000000000000000000000000000003866e2ced6b9b02000000000000000000000000000000000000000000000000007446b7d822733e00000000000000000000000000000000000000000000000000000000666f726b000000000000000000000000000000000000000000000000000000000000000000000000000000000000000000000000000000000000000000000084fc6f786500000000000000000000000000000000000000000000000000000000000b5eb2000000000000000000000000000000000000000000000000000000000000000000000000000000000000000000000000ffffffffffffffffffffffffffffffff00000000000000000000000000000000ffffffffffffffffffffffffffffffff00000000000000000000000000000000000000000000000000000000000000000000000000000000000000000000000000000000000000000000004449404b7c00000000000000000000000000000000000000000000000003866e2ced6b9b0200000000000000000000000062937c88a802ca1aff8f325a120f9fd6fd4d6b4a000000000000000000000000000000000000000000000000000000000000000000000000000000000000000000000000000000000000000000000064df2ab5bb000000000000000000000000d29da236dd4aac627346e1bba06a619e8c22d7c50000000000000000000000000000000000000000000000000074532ad705daf800000000000000000000000062937c88a802ca1aff8f325a120f9fd6fd4d6b4a00000000000000000000000000000000000000000000000000000000",
                    "decodedMethod": {
                        "callParams": [
                            {
                                "name": "data",
                                "type": "bytes[]",
                                "value": [
                                    "0x0c49ccbe00000000000000000000000000000000000000000000000000000000000b5eb20000000000000000000000000000000000000000000000002a046e5b5dfcc65e00000000000000000000000000000000000000000000000003866e2ced6b9b02000000000000000000000000000000000000000000000000007446b7d822733e00000000000000000000000000000000000000000000000000000000666f726b",
                                    "0xfc6f786500000000000000000000000000000000000000000000000000000000000b5eb2000000000000000000000000000000000000000000000000000000000000000000000000000000000000000000000000ffffffffffffffffffffffffffffffff00000000000000000000000000000000ffffffffffffffffffffffffffffffff",
                                    "0x49404b7c00000000000000000000000000000000000000000000000003866e2ced6b9b0200000000000000000000000062937c88a802ca1aff8f325a120f9fd6fd4d6b4a",
                                    "0xdf2ab5bb000000000000000000000000d29da236dd4aac627346e1bba06a619e8c22d7c50000000000000000000000000000000000000000000000000074532ad705daf800000000000000000000000062937c88a802ca1aff8f325a120f9fd6fd4d6b4a"
                                ]
                            }
                        ],
                        "constructorArguments": "",
                        "name": "multicall",
                        "returnParams": [
                            {
                                "name": "results",
                                "type": "bytes[]",
                                "value": [
                                    "0x00000000000000000000000000000000000000000000000004663013b4fd749a00000000000000000000000000000000000000000000000000777ffddf544e4b",
                                    "0x00000000000000000000000000000000000000000000000004663013b4fd749a00000000000000000000000000000000000000000000000000778c70de37b605",
                                    "0x",
                                    "0x"
                                ]
                            }
                        ],
                        "signature": "multicall(bytes[])"
                    },
                    "errorInfo": "",
                    "fromAddress": "0x62937c88a802ca1aff8f325a120f9fd6fd4d6b4a",
                    "gasUsed": 237590,
                    "id": 0,
                    "methodDecoded": true,
                    "operation": "CALL",
                    "output": "0x00000000000000000000000000000000000000000000000000000000000000200000000000000000000000000000000000000000000000000000000000000004000000000000000000000000000000000000000000000000000000000000008000000000000000000000000000000000000000000000000000000000000000e000000000000000000000000000000000000000000000000000000000000001400000000000000000000000000000000000000000000000000000000000000160000000000000000000000000000000000000000000000000000000000000004000000000000000000000000000000000000000000000000004663013b4fd749a00000000000000000000000000000000000000000000000000777ffddf544e4b000000000000000000000000000000000000000000000000000000000000004000000000000000000000000000000000000000000000000004663013b4fd749a00000000000000000000000000000000000000000000000000778c70de37b60500000000000000000000000000000000000000000000000000000000000000000000000000000000000000000000000000000000000000000000000000000000",
                    "revert": false,
                    "revertMessage": "",
                    "selector": "0xac9650d8",
                    "status": true,
                    "value": "0"
                },
                "nodeType": 0
            },
            "1": {
                "invocation": {
                    "address": "0xc36442b4a4522e871399cd717abdd847ab11fe88",
                    "callData": "0x00000000000000000000000000000000000000000000000000000000000b5eb20000000000000000000000000000000000000000000000002a046e5b5dfcc65e00000000000000000000000000000000000000000000000003866e2ced6b9b02000000000000000000000000000000000000000000000000007446b7d822733e00000000000000000000000000000000000000000000000000000000666f726b",
                    "decodedMethod": {
                        "callParams": [
                            {
                                "name": "params",
                                "type": "(uint256,uint128,uint256,uint256,uint256)",
                                "value": [
                                    {
                                        "name": "tokenId",
                                        "type": "uint256",
                                        "value": "745,138"
                                    },
                                    {
                                        "name": "liquidity",
                                        "type": "uint128",
                                        "value": "3,027,666,188,197,742,174"
                                    },
                                    {
                                        "name": "amount0Min",
                                        "type": "uint256",
                                        "value": "254,011,568,233,880,322"
                                    },
                                    {
                                        "name": "amount1Min",
                                        "type": "uint256",
                                        "value": "32,728,852,717,531,966"
                                    },
                                    {
                                        "name": "deadline",
                                        "type": "uint256",
                                        "value": "1,718,579,819"
                                    }
                                ]
                            }
                        ],
                        "constructorArguments": "",
                        "name": "decreaseLiquidity",
                        "returnParams": [
                            {
                                "name": "amount0",
                                "type": "uint256",
                                "value": "316,993,684,975,219,866"
                            },
                            {
                                "name": "amount1",
                                "type": "uint256",
                                "value": "33,636,250,578,865,739"
                            }
                        ],
                        "signature": "decreaseLiquidity((uint256,uint128,uint256,uint256,uint256))"
                    },
                    "errorInfo": "",
                    "fromAddress": "0xc36442b4a4522e871399cd717abdd847ab11fe88",
                    "gasUsed": 128752,
                    "id": 1,
                    "methodDecoded": true,
                    "operation": "DELEGATECALL",
                    "output": "0x00000000000000000000000000000000000000000000000004663013b4fd749a00000000000000000000000000000000000000000000000000777ffddf544e4b",
                    "revert": false,
                    "revertMessage": "",
                    "selector": "0x0c49ccbe",
                    "status": true,
                    "value": "0"
                },
                "nodeType": 0
            },
            "10": {
                "invocation": {
                    "address": "0xd29da236dd4aac627346e1bba06a619e8c22d7c5",
                    "callData": "0x000000000000000000000000c36442b4a4522e871399cd717abdd847ab11fe8800000000000000000000000000000000000000000000000000778c70de37b605",
                    "decodedMethod": {
                        "callParams": [
                            {
                                "name": "recipient",
                                "type": "address",
                                "value": "0xc36442b4a4522e871399cd717abdd847ab11fe88"
                            },
                            {
                                "decimalAvailable": true,
                                "name": "amount",
                                "type": "uint256",
                                "value": "33,649,938,620,986,885"
                            }
                        ],
                        "constructorArguments": "",
                        "name": "transfer",
                        "returnParams": [
                            {
                                "name": "",
                                "type": "bool",
                                "value": true
                            }
                        ],
                        "signature": "transfer(address,uint256)"
                    },
                    "errorInfo": "",
                    "fromAddress": "0x961ec3bb28c9e98a040c4bded38917aa96b791be",
                    "gasUsed": 49409,
                    "id": 10,
                    "methodDecoded": true,
                    "operation": "CALL",
                    "output": "0x0000000000000000000000000000000000000000000000000000000000000001",
                    "revert": false,
                    "revertMessage": "",
                    "selector": "0xa9059cbb",
                    "status": true,
                    "value": "0"
                },
                "nodeType": 0
            },
            "11": {
                "event": {
                    "contract": "0xd29da236dd4aac627346e1bba06a619e8c22d7c5",
                    "decodedLog": {
                        "name": "Transfer",
                        "params": [
                            {
                                "name": "from",
                                "type": "address",
                                "value": "0x961ec3bb28c9e98a040c4bded38917aa96b791be"
                            },
                            {
                                "name": "to",
                                "type": "address",
                                "value": "0xc36442b4a4522e871399cd717abdd847ab11fe88"
                            },
                            {
                                "decimalAvailable": true,
                                "name": "value",
                                "type": "uint256",
                                "value": "33,649,938,620,986,885"
                            }
                        ],
                        "signature": "Transfer(address,address,uint256)"
                    },
                    "id": 11,
                    "logData": "0x00000000000000000000000000000000000000000000000000778c70de37b605",
                    "logDecoded": true,
                    "operation": "EVENT",
                    "revert": false,
                    "status": true,
                    "topics": [
                        "0xddf252ad1be2c89b69c2b068fc378daa952ba7f163c4a11628f55a4df523b3ef",
                        "0x000000000000000000000000961ec3bb28c9e98a040c4bded38917aa96b791be",
                        "0x000000000000000000000000c36442b4a4522e871399cd717abdd847ab11fe88"
                    ]
                },
                "nodeType": 1
            },
            "12": {
                "event": {
                    "contract": "0x961ec3bb28c9e98a040c4bded38917aa96b791be",
                    "decodedLog": {
                        "name": "Collect",
                        "params": [
                            {
                                "name": "owner",
                                "type": "address",
                                "value": "0xc36442b4a4522e871399cd717abdd847ab11fe88"
                            },
                            {
                                "name": "tickLower",
                                "type": "int24",
                                "value": "-44,400"
                            },
                            {
                                "name": "tickUpper",
                                "type": "int24",
                                "value": "-42,200"
                            },
                            {
                                "name": "recipient",
                                "type": "address",
                                "value": "0xc36442b4a4522e871399cd717abdd847ab11fe88"
                            },
                            {
                                "name": "amount0",
                                "type": "uint128",
                                "value": "316,993,684,975,219,866"
                            },
                            {
                                "name": "amount1",
                                "type": "uint128",
                                "value": "33,649,938,620,986,885"
                            }
                        ],
                        "signature": "Collect(address,address,int24,int24,uint128,uint128)"
                    },
                    "id": 12,
                    "logData": "0x000000000000000000000000c36442b4a4522e871399cd717abdd847ab11fe8800000000000000000000000000000000000000000000000004663013b4fd749a00000000000000000000000000000000000000000000000000778c70de37b605",
                    "logDecoded": true,
                    "operation": "EVENT",
                    "revert": false,
                    "status": true,
                    "topics": [
                        "0x70935338e69775456a85ddef226c395fb668b63fa0115f5f20610b388e6ca9c0",
                        "0x000000000000000000000000c36442b4a4522e871399cd717abdd847ab11fe88",
                        "0xffffffffffffffffffffffffffffffffffffffffffffffffffffffffffff5290",
                        "0xffffffffffffffffffffffffffffffffffffffffffffffffffffffffffff5b28"
                    ]
                },
                "nodeType": 1
            },
            "13": {
                "event": {
                    "contract": "0xc36442b4a4522e871399cd717abdd847ab11fe88",
                    "decodedLog": {
                        "name": "Collect",
                        "params": [
                            {
                                "name": "tokenId",
                                "type": "uint256",
                                "value": "745,138"
                            },
                            {
                                "name": "recipient",
                                "type": "address",
                                "value": "0xc36442b4a4522e871399cd717abdd847ab11fe88"
                            },
                            {
                                "name": "amount0",
                                "type": "uint256",
                                "value": "316,993,684,975,219,866"
                            },
                            {
                                "name": "amount1",
                                "type": "uint256",
                                "value": "33,649,938,620,986,885"
                            }
                        ],
                        "signature": "Collect(uint256,address,uint256,uint256)"
                    },
                    "id": 13,
                    "logData": "0x000000000000000000000000c36442b4a4522e871399cd717abdd847ab11fe8800000000000000000000000000000000000000000000000004663013b4fd749a00000000000000000000000000000000000000000000000000778c70de37b605",
                    "logDecoded": true,
                    "operation": "EVENT",
                    "revert": false,
                    "status": true,
                    "topics": [
                        "0x40d0efd1a53d60ecbf40971b9daf7dc90178c3aadc7aab1765632738fa8b8f01",
                        "0x00000000000000000000000000000000000000000000000000000000000b5eb2"
                    ]
                },
                "nodeType": 1
            },
            "14": {
                "invocation": {
                    "address": "0xc36442b4a4522e871399cd717abdd847ab11fe88",
                    "callData": "0x00000000000000000000000000000000000000000000000003866e2ced6b9b0200000000000000000000000062937c88a802ca1aff8f325a120f9fd6fd4d6b4a",
                    "decodedMethod": {
                        "callParams": [
                            {
                                "name": "amountMinimum",
                                "type": "uint256",
                                "value": "254,011,568,233,880,322"
                            },
                            {
                                "name": "recipient",
                                "type": "address",
                                "value": "0x62937c88a802ca1aff8f325a120f9fd6fd4d6b4a"
                            }
                        ],
                        "constructorArguments": "",
                        "name": "unwrapWETH9",
                        "returnParams": [],
                        "signature": "unwrapWETH9(uint256,address)"
                    },
                    "errorInfo": "",
                    "fromAddress": "0xc36442b4a4522e871399cd717abdd847ab11fe88",
                    "gasUsed": 18222,
                    "id": 14,
                    "methodDecoded": true,
                    "operation": "DELEGATECALL",
                    "output": "",
                    "revert": false,
                    "revertMessage": "",
                    "selector": "0x49404b7c",
                    "status": true,
                    "value": "0"
                },
                "nodeType": 0
            },
            "15": {
                "invocation": {
                    "address": "0xc02aaa39b223fe8d0a0e5c4f27ead9083c756cc2",
                    "callData": "0x000000000000000000000000c36442b4a4522e871399cd717abdd847ab11fe88",
                    "decodedMethod": {
                        "callParams": [
                            {
                                "name": "",
                                "type": "address",
                                "value": "0xc36442b4a4522e871399cd717abdd847ab11fe88"
                            }
                        ],
                        "constructorArguments": "",
                        "name": "balanceOf",
                        "returnParams": [
                            {
                                "decimalAvailable": true,
                                "name": "",
                                "type": "uint256",
                                "value": "316,993,684,975,219,866"
                            }
                        ],
                        "signature": "balanceOf(address)"
                    },
                    "errorInfo": "",
                    "fromAddress": "0xc36442b4a4522e871399cd717abdd847ab11fe88",
                    "gasUsed": 534,
                    "id": 15,
                    "methodDecoded": true,
                    "operation": "STATICCALL",
                    "output": "0x00000000000000000000000000000000000000000000000004663013b4fd749a",
                    "revert": false,
                    "revertMessage": "",
                    "selector": "0x70a08231",
                    "status": true,
                    "value": "0"
                },
                "nodeType": 0
            },
            "16": {
                "invocation": {
                    "address": "0xc02aaa39b223fe8d0a0e5c4f27ead9083c756cc2",
                    "callData": "0x00000000000000000000000000000000000000000000000004663013b4fd749a",
                    "decodedMethod": {
                        "callParams": [
                            {
                                "name": "wad",
                                "type": "uint256",
                                "value": "316,993,684,975,219,866"
                            }
                        ],
                        "constructorArguments": "",
                        "name": "withdraw",
                        "returnParams": [],
                        "signature": "withdraw(uint256)"
                    },
                    "errorInfo": "",
                    "fromAddress": "0xc36442b4a4522e871399cd717abdd847ab11fe88",
                    "gasUsed": 9235,
                    "id": 16,
                    "methodDecoded": true,
                    "operation": "CALL",
                    "output": "",
                    "revert": false,
                    "revertMessage": "",
                    "selector": "0x2e1a7d4d",
                    "status": true,
                    "value": "0"
                },
                "nodeType": 0
            },
            "17": {
                "invocation": {
                    "address": "0xc36442b4a4522e871399cd717abdd847ab11fe88",
                    "callData": "0x",
                    "decodedMethod": null,
                    "errorInfo": "",
                    "fromAddress": "0xc02aaa39b223fe8d0a0e5c4f27ead9083c756cc2",
                    "gasUsed": 95,
                    "id": 17,
                    "methodDecoded": false,
                    "operation": "CALL",
                    "output": "",
                    "revert": false,
                    "revertMessage": "",
                    "selector": "fallback",
                    "status": true,
                    "value": "0.316993684975219866"
                },
                "nodeType": 0
            },
            "18": {
                "event": {
                    "contract": "0xc02aaa39b223fe8d0a0e5c4f27ead9083c756cc2",
                    "decodedLog": {
                        "name": "Withdrawal",
                        "params": [
                            {
                                "name": "src",
                                "type": "address",
                                "value": "0xc36442b4a4522e871399cd717abdd847ab11fe88"
                            },
                            {
                                "name": "wad",
                                "type": "uint256",
                                "value": "316,993,684,975,219,866"
                            }
                        ],
                        "signature": "Withdrawal(address,uint256)"
                    },
                    "id": 18,
                    "logData": "0x00000000000000000000000000000000000000000000000004663013b4fd749a",
                    "logDecoded": true,
                    "operation": "EVENT",
                    "revert": false,
                    "status": true,
                    "topics": [
                        "0x7fcf532c15f0a6db0bd6d0e038bea71d30d808c7d98cb3bf7268a95bf5081b65",
                        "0x000000000000000000000000c36442b4a4522e871399cd717abdd847ab11fe88"
                    ]
                },
                "nodeType": 1
            },
            "19": {
                "invocation": {
                    "address": "0x62937c88a802ca1aff8f325a120f9fd6fd4d6b4a",
                    "callData": "0x",
                    "decodedMethod": null,
                    "errorInfo": "",
                    "fromAddress": "0xc36442b4a4522e871399cd717abdd847ab11fe88",
                    "gasUsed": 0,
                    "id": 19,
                    "methodDecoded": false,
                    "operation": "CALL",
                    "output": "",
                    "revert": false,
                    "revertMessage": "",
                    "selector": "fallback",
                    "status": true,
                    "value": "0.316993684975219866"
                },
                "nodeType": 0
            },
            "2": {
                "invocation": {
                    "address": "0x961ec3bb28c9e98a040c4bded38917aa96b791be",
                    "callData": "0xffffffffffffffffffffffffffffffffffffffffffffffffffffffffffff5290ffffffffffffffffffffffffffffffffffffffffffffffffffffffffffff5b280000000000000000000000000000000000000000000000002a046e5b5dfcc65e",
                    "decodedMethod": {
                        "callParams": [
                            {
                                "name": "tickLower",
                                "type": "int24",
                                "value": "-44,400"
                            },
                            {
                                "name": "tickUpper",
                                "type": "int24",
                                "value": "-42,200"
                            },
                            {
                                "name": "amount",
                                "type": "uint128",
                                "value": "3,027,666,188,197,742,174"
                            }
                        ],
                        "constructorArguments": "",
                        "name": "burn",
                        "returnParams": [
                            {
                                "name": "amount0",
                                "type": "uint256",
                                "value": "316,993,684,975,219,866"
                            },
                            {
                                "name": "amount1",
                                "type": "uint256",
                                "value": "33,636,250,578,865,739"
                            }
                        ],
                        "signature": "burn(int24,int24,uint128)"
                    },
                    "errorInfo": "",
                    "fromAddress": "0xc36442b4a4522e871399cd717abdd847ab11fe88",
                    "gasUsed": 71708,
                    "id": 2,
                    "methodDecoded": true,
                    "operation": "CALL",
                    "output": "0x00000000000000000000000000000000000000000000000004663013b4fd749a00000000000000000000000000000000000000000000000000777ffddf544e4b",
                    "revert": false,
                    "revertMessage": "",
                    "selector": "0xa34123a7",
                    "status": true,
                    "value": "0"
                },
                "nodeType": 0
            },
            "20": {
                "invocation": {
                    "address": "0xc36442b4a4522e871399cd717abdd847ab11fe88",
                    "callData": "0x000000000000000000000000d29da236dd4aac627346e1bba06a619e8c22d7c50000000000000000000000000000000000000000000000000074532ad705daf800000000000000000000000062937c88a802ca1aff8f325a120f9fd6fd4d6b4a",
                    "decodedMethod": {
                        "callParams": [
                            {
                                "name": "token",
                                "type": "address",
                                "value": "0xd29da236dd4aac627346e1bba06a619e8c22d7c5"
                            },
                            {
                                "name": "amountMinimum",
                                "type": "uint256",
                                "value": "32,742,540,759,653,112"
                            },
                            {
                                "name": "recipient",
                                "type": "address",
                                "value": "0x62937c88a802ca1aff8f325a120f9fd6fd4d6b4a"
                            }
                        ],
                        "constructorArguments": "",
                        "name": "sweepToken",
                        "returnParams": [],
                        "signature": "sweepToken(address,uint256,address)"
                    },
                    "errorInfo": "",
                    "fromAddress": "0xc36442b4a4522e871399cd717abdd847ab11fe88",
                    "gasUsed": 16118,
                    "id": 20,
                    "methodDecoded": true,
                    "operation": "DELEGATECALL",
                    "output": "",
                    "revert": false,
                    "revertMessage": "",
                    "selector": "0xdf2ab5bb",
                    "status": true,
                    "value": "0"
                },
                "nodeType": 0
            },
            "21": {
                "invocation": {
                    "address": "0xd29da236dd4aac627346e1bba06a619e8c22d7c5",
                    "callData": "0x000000000000000000000000c36442b4a4522e871399cd717abdd847ab11fe88",
                    "decodedMethod": {
                        "callParams": [
                            {
                                "name": "account",
                                "type": "address",
                                "value": "0xc36442b4a4522e871399cd717abdd847ab11fe88"
                            }
                        ],
                        "constructorArguments": "",
                        "name": "balanceOf",
                        "returnParams": [
                            {
                                "decimalAvailable": true,
                                "name": "",
                                "type": "uint256",
                                "value": "33,649,938,620,986,885"
                            }
                        ],
                        "signature": "balanceOf(address)"
                    },
                    "errorInfo": "",
                    "fromAddress": "0xc36442b4a4522e871399cd717abdd847ab11fe88",
                    "gasUsed": 661,
                    "id": 21,
                    "methodDecoded": true,
                    "operation": "STATICCALL",
                    "output": "0x00000000000000000000000000000000000000000000000000778c70de37b605",
                    "revert": false,
                    "revertMessage": "",
                    "selector": "0x70a08231",
                    "status": true,
                    "value": "0"
                },
                "nodeType": 0
            },
            "22": {
                "invocation": {
                    "address": "0xd29da236dd4aac627346e1bba06a619e8c22d7c5",
                    "callData": "0x00000000000000000000000062937c88a802ca1aff8f325a120f9fd6fd4d6b4a00000000000000000000000000000000000000000000000000778c70de37b605",
                    "decodedMethod": {
                        "callParams": [
                            {
                                "name": "recipient",
                                "type": "address",
                                "value": "0x62937c88a802ca1aff8f325a120f9fd6fd4d6b4a"
                            },
                            {
                                "decimalAvailable": true,
                                "name": "amount",
                                "type": "uint256",
                                "value": "33,649,938,620,986,885"
                            }
                        ],
                        "constructorArguments": "",
                        "name": "transfer",
                        "returnParams": [
                            {
                                "name": "",
                                "type": "bool",
                                "value": true
                            }
                        ],
                        "signature": "transfer(address,uint256)"
                    },
                    "errorInfo": "",
                    "fromAddress": "0xc36442b4a4522e871399cd717abdd847ab11fe88",
                    "gasUsed": 13509,
                    "id": 22,
                    "methodDecoded": true,
                    "operation": "CALL",
                    "output": "0x0000000000000000000000000000000000000000000000000000000000000001",
                    "revert": false,
                    "revertMessage": "",
                    "selector": "0xa9059cbb",
                    "status": true,
                    "value": "0"
                },
                "nodeType": 0
            },
            "23": {
                "event": {
                    "contract": "0xd29da236dd4aac627346e1bba06a619e8c22d7c5",
                    "decodedLog": {
                        "name": "Transfer",
                        "params": [
                            {
                                "name": "from",
                                "type": "address",
                                "value": "0xc36442b4a4522e871399cd717abdd847ab11fe88"
                            },
                            {
                                "name": "to",
                                "type": "address",
                                "value": "0x62937c88a802ca1aff8f325a120f9fd6fd4d6b4a"
                            },
                            {
                                "decimalAvailable": true,
                                "name": "value",
                                "type": "uint256",
                                "value": "33,649,938,620,986,885"
                            }
                        ],
                        "signature": "Transfer(address,address,uint256)"
                    },
                    "id": 23,
                    "logData": "0x00000000000000000000000000000000000000000000000000778c70de37b605",
                    "logDecoded": true,
                    "operation": "EVENT",
                    "revert": false,
                    "status": true,
                    "topics": [
                        "0xddf252ad1be2c89b69c2b068fc378daa952ba7f163c4a11628f55a4df523b3ef",
                        "0x000000000000000000000000c36442b4a4522e871399cd717abdd847ab11fe88",
                        "0x00000000000000000000000062937c88a802ca1aff8f325a120f9fd6fd4d6b4a"
                    ]
                },
                "nodeType": 1
            },
            "3": {
                "event": {
                    "contract": "0x961ec3bb28c9e98a040c4bded38917aa96b791be",
                    "decodedLog": {
                        "name": "Burn",
                        "params": [
                            {
                                "name": "owner",
                                "type": "address",
                                "value": "0xc36442b4a4522e871399cd717abdd847ab11fe88"
                            },
                            {
                                "name": "tickLower",
                                "type": "int24",
                                "value": "-44,400"
                            },
                            {
                                "name": "tickUpper",
                                "type": "int24",
                                "value": "-42,200"
                            },
                            {
                                "name": "amount",
                                "type": "uint128",
                                "value": "3,027,666,188,197,742,174"
                            },
                            {
                                "name": "amount0",
                                "type": "uint256",
                                "value": "316,993,684,975,219,866"
                            },
                            {
                                "name": "amount1",
                                "type": "uint256",
                                "value": "33,636,250,578,865,739"
                            }
                        ],
                        "signature": "Burn(address,int24,int24,uint128,uint256,uint256)"
                    },
                    "id": 3,
                    "logData": "0x0000000000000000000000000000000000000000000000002a046e5b5dfcc65e00000000000000000000000000000000000000000000000004663013b4fd749a00000000000000000000000000000000000000000000000000777ffddf544e4b",
                    "logDecoded": true,
                    "operation": "EVENT",
                    "revert": false,
                    "status": true,
                    "topics": [
                        "0x0c396cd989a39f4459b5fa1aed6a9a8dcdbc45908acfd67e028cd568da98982c",
                        "0x000000000000000000000000c36442b4a4522e871399cd717abdd847ab11fe88",
                        "0xffffffffffffffffffffffffffffffffffffffffffffffffffffffffffff5290",
                        "0xffffffffffffffffffffffffffffffffffffffffffffffffffffffffffff5b28"
                    ]
                },
                "nodeType": 1
            },
            "4": {
                "invocation": {
                    "address": "0x961ec3bb28c9e98a040c4bded38917aa96b791be",
                    "callData": "0xbce5c2188a4cded0bca5d35b62b2fffe39b62ef807a3bb3460824e18ca82a6fb",
                    "decodedMethod": {
                        "callParams": [
                            {
                                "name": "",
                                "type": "bytes32",
                                "value": "0xbce5c2188a4cded0bca5d35b62b2fffe39b62ef807a3bb3460824e18ca82a6fb"
                            }
                        ],
                        "constructorArguments": "",
                        "name": "positions",
                        "returnParams": [
                            {
                                "name": "liquidity",
                                "type": "uint128",
                                "value": "310,907,342,677,087,076"
                            },
                            {
                                "name": "feeGrowthInside0LastX128",
                                "type": "uint256",
                                "value": "154,102,785,707,755,352,762,319,721,539,016,969,037"
                            },
                            {
                                "name": "feeGrowthInside1LastX128",
                                "type": "uint256",
                                "value": "2,087,825,221,856,364,847,114,186,585,596,993,223"
                            },
                            {
                                "name": "tokensOwed0",
                                "type": "uint128",
                                "value": "338,261,986,618,172,984"
                            },
                            {
                                "name": "tokensOwed1",
                                "type": "uint128",
                                "value": "33,939,573,030,805,612"
                            }
                        ],
                        "signature": "positions(bytes32)"
                    },
                    "errorInfo": "",
                    "fromAddress": "0xc36442b4a4522e871399cd717abdd847ab11fe88",
                    "gasUsed": 1013,
                    "id": 4,
                    "methodDecoded": true,
                    "operation": "STATICCALL",
                    "output": "0x00000000000000000000000000000000000000000000000004509094b65413640000000000000000000000000000000073ef1df07ced07f72d6cadcedecdcb4d00000000000000000000000000000000019219bb1c7ecf0c1871136c77fb9ec700000000000000000000000000000000000000000000000004b1bf7c1164e638000000000000000000000000000000000000000000000000007893dca254606c",
                    "revert": false,
                    "revertMessage": "",
                    "selector": "0x514ea4bf",
                    "status": true,
                    "value": "0"
                },
                "nodeType": 0
            },
            "5": {
                "event": {
                    "contract": "0xc36442b4a4522e871399cd717abdd847ab11fe88",
                    "decodedLog": {
                        "name": "DecreaseLiquidity",
                        "params": [
                            {
                                "name": "tokenId",
                                "type": "uint256",
                                "value": "745,138"
                            },
                            {
                                "name": "liquidity",
                                "type": "uint128",
                                "value": "3,027,666,188,197,742,174"
                            },
                            {
                                "name": "amount0",
                                "type": "uint256",
                                "value": "316,993,684,975,219,866"
                            },
                            {
                                "name": "amount1",
                                "type": "uint256",
                                "value": "33,636,250,578,865,739"
                            }
                        ],
                        "signature": "DecreaseLiquidity(uint256,uint128,uint256,uint256)"
                    },
                    "id": 5,
                    "logData": "0x0000000000000000000000000000000000000000000000002a046e5b5dfcc65e00000000000000000000000000000000000000000000000004663013b4fd749a00000000000000000000000000000000000000000000000000777ffddf544e4b",
                    "logDecoded": true,
                    "operation": "EVENT",
                    "revert": false,
                    "status": true,
                    "topics": [
                        "0x26f6a048ee9138f2c0ce266f322cb99228e8d619ae2bff30c67f8dcf9d2377b4",
                        "0x00000000000000000000000000000000000000000000000000000000000b5eb2"
                    ]
                },
                "nodeType": 1
            },
            "6": {
                "invocation": {
                    "address": "0xc36442b4a4522e871399cd717abdd847ab11fe88",
                    "callData": "0x00000000000000000000000000000000000000000000000000000000000b5eb2000000000000000000000000000000000000000000000000000000000000000000000000000000000000000000000000ffffffffffffffffffffffffffffffff00000000000000000000000000000000ffffffffffffffffffffffffffffffff",
                    "decodedMethod": {
                        "callParams": [
                            {
                                "name": "params",
                                "type": "(uint256,address,uint128,uint128)",
                                "value": [
                                    {
                                        "name": "tokenId",
                                        "type": "uint256",
                                        "value": "745,138"
                                    },
                                    {
                                        "name": "recipient",
                                        "type": "address",
                                        "value": "0x0000000000000000000000000000000000000000"
                                    },
                                    {
                                        "name": "amount0Max",
                                        "type": "uint128",
                                        "value": "340,282,366,920,938,463,463,374,607,431,768,211,455"
                                    },
                                    {
                                        "name": "amount1Max",
                                        "type": "uint128",
                                        "value": "340,282,366,920,938,463,463,374,607,431,768,211,455"
                                    }
                                ]
                            }
                        ],
                        "constructorArguments": "",
                        "name": "collect",
                        "returnParams": [
                            {
                                "name": "amount0",
                                "type": "uint256",
                                "value": "316,993,684,975,219,866"
                            },
                            {
                                "name": "amount1",
                                "type": "uint256",
                                "value": "33,649,938,620,986,885"
                            }
                        ],
                        "signature": "collect((uint256,address,uint128,uint128))"
                    },
                    "errorInfo": "",
                    "fromAddress": "0xc36442b4a4522e871399cd717abdd847ab11fe88",
                    "gasUsed": 101964,
                    "id": 6,
                    "methodDecoded": true,
                    "operation": "DELEGATECALL",
                    "output": "0x00000000000000000000000000000000000000000000000004663013b4fd749a00000000000000000000000000000000000000000000000000778c70de37b605",
                    "revert": false,
                    "revertMessage": "",
                    "selector": "0xfc6f7865",
                    "status": true,
                    "value": "0"
                },
                "nodeType": 0
            },
            "7": {
                "invocation": {
                    "address": "0x961ec3bb28c9e98a040c4bded38917aa96b791be",
                    "callData": "0x000000000000000000000000c36442b4a4522e871399cd717abdd847ab11fe88ffffffffffffffffffffffffffffffffffffffffffffffffffffffffffff5290ffffffffffffffffffffffffffffffffffffffffffffffffffffffffffff5b2800000000000000000000000000000000000000000000000004663013b4fd749a00000000000000000000000000000000000000000000000000778c70de37b605",
                    "decodedMethod": {
                        "callParams": [
                            {
                                "name": "recipient",
                                "type": "address",
                                "value": "0xc36442b4a4522e871399cd717abdd847ab11fe88"
                            },
                            {
                                "name": "tickLower",
                                "type": "int24",
                                "value": "-44,400"
                            },
                            {
                                "name": "tickUpper",
                                "type": "int24",
                                "value": "-42,200"
                            },
                            {
                                "name": "amount0Requested",
                                "type": "uint128",
                                "value": "316,993,684,975,219,866"
                            },
                            {
                                "name": "amount1Requested",
                                "type": "uint128",
                                "value": "33,649,938,620,986,885"
                            }
                        ],
                        "constructorArguments": "",
                        "name": "collect",
                        "returnParams": [
                            {
                                "name": "amount0",
                                "type": "uint128",
                                "value": "316,993,684,975,219,866"
                            },
                            {
                                "name": "amount1",
                                "type": "uint128",
                                "value": "33,649,938,620,986,885"
                            }
                        ],
                        "signature": "collect(address,int24,int24,uint128,uint128)"
                    },
                    "errorInfo": "",
                    "fromAddress": "0xc36442b4a4522e871399cd717abdd847ab11fe88",
                    "gasUsed": 94496,
                    "id": 7,
                    "methodDecoded": true,
                    "operation": "CALL",
                    "output": "0x00000000000000000000000000000000000000000000000004663013b4fd749a00000000000000000000000000000000000000000000000000778c70de37b605",
                    "revert": false,
                    "revertMessage": "",
                    "selector": "0x4f1eb3d8",
                    "status": true,
                    "value": "0"
                },
                "nodeType": 0
            },
            "8": {
                "invocation": {
                    "address": "0xc02aaa39b223fe8d0a0e5c4f27ead9083c756cc2",
                    "callData": "0x000000000000000000000000c36442b4a4522e871399cd717abdd847ab11fe8800000000000000000000000000000000000000000000000004663013b4fd749a",
                    "decodedMethod": {
                        "callParams": [
                            {
                                "name": "dst",
                                "type": "address",
                                "value": "0xc36442b4a4522e871399cd717abdd847ab11fe88"
                            },
                            {
                                "decimalAvailable": true,
                                "name": "wad",
                                "type": "uint256",
                                "value": "316,993,684,975,219,866"
                            }
                        ],
                        "constructorArguments": "",
                        "name": "transfer",
                        "returnParams": [
                            {
                                "name": "",
                                "type": "bool",
                                "value": true
                            }
                        ],
                        "signature": "transfer(address,uint256)"
                    },
                    "errorInfo": "",
                    "fromAddress": "0x961ec3bb28c9e98a040c4bded38917aa96b791be",
                    "gasUsed": 29962,
                    "id": 8,
                    "methodDecoded": true,
                    "operation": "CALL",
                    "output": "0x0000000000000000000000000000000000000000000000000000000000000001",
                    "revert": false,
                    "revertMessage": "",
                    "selector": "0xa9059cbb",
                    "status": true,
                    "value": "0"
                },
                "nodeType": 0
            },
            "9": {
                "event": {
                    "contract": "0xc02aaa39b223fe8d0a0e5c4f27ead9083c756cc2",
                    "decodedLog": {
                        "name": "Transfer",
                        "params": [
                            {
                                "name": "src",
                                "type": "address",
                                "value": "0x961ec3bb28c9e98a040c4bded38917aa96b791be"
                            },
                            {
                                "name": "dst",
                                "type": "address",
                                "value": "0xc36442b4a4522e871399cd717abdd847ab11fe88"
                            },
                            {
                                "decimalAvailable": true,
                                "name": "wad",
                                "type": "uint256",
                                "value": "316,993,684,975,219,866"
                            }
                        ],
                        "signature": "Transfer(address,address,uint256)"
                    },
                    "id": 9,
                    "logData": "0x00000000000000000000000000000000000000000000000004663013b4fd749a",
                    "logDecoded": true,
                    "operation": "EVENT",
                    "revert": false,
                    "status": true,
                    "topics": [
                        "0xddf252ad1be2c89b69c2b068fc378daa952ba7f163c4a11628f55a4df523b3ef",
                        "0x000000000000000000000000961ec3bb28c9e98a040c4bded38917aa96b791be",
                        "0x000000000000000000000000c36442b4a4522e871399cd717abdd847ab11fe88"
                    ]
                },
                "nodeType": 1
            }
        },
        "gasFlame": [
            {
                "children": [
                    {
                        "children": [
                            {
                                "children": [],
                                "depth": 0,
                                "name": "Initial Gas",
                                "value": 26676
                            },
                            {
                                "children": [
                                    {
                                        "children": [
                                            {
                                                "children": [],
                                                "depth": 2,
                                                "name": "burn",
                                                "value": 71708
                                            },
                                            {
                                                "children": [],
                                                "depth": 2,
                                                "name": "positions",
                                                "value": 1013
                                            }
                                        ],
                                        "depth": 1,
                                        "name": "decreaseLiquidity",
                                        "value": 128752
                                    },
                                    {
                                        "children": [
                                            {
                                                "children": [
                                                    {
                                                        "children": [],
                                                        "depth": 3,
                                                        "name": "transfer",
                                                        "value": 29962
                                                    },
                                                    {
                                                        "children": [],
                                                        "depth": 3,
                                                        "name": "transfer",
                                                        "value": 49409
                                                    }
                                                ],
                                                "depth": 2,
                                                "name": "collect",
                                                "value": 94496
                                            }
                                        ],
                                        "depth": 1,
                                        "name": "collect",
                                        "value": 101964
                                    },
                                    {
                                        "children": [
                                            {
                                                "children": [],
                                                "depth": 2,
                                                "name": "balanceOf",
                                                "value": 534
                                            },
                                            {
                                                "children": [
                                                    {
                                                        "children": [],
                                                        "depth": 3,
                                                        "name": "fallback",
                                                        "value": 95
                                                    }
                                                ],
                                                "depth": 2,
                                                "name": "withdraw",
                                                "value": 9235
                                            },
                                            {
                                                "children": [],
                                                "depth": 2,
                                                "name": "fallback",
                                                "value": 0
                                            }
                                        ],
                                        "depth": 1,
                                        "name": "unwrapWETH9",
                                        "value": 18222
                                    },
                                    {
                                        "children": [
                                            {
                                                "children": [],
                                                "depth": 2,
                                                "name": "balanceOf",
                                                "value": 661
                                            },
                                            {
                                                "children": [],
                                                "depth": 2,
                                                "name": "transfer",
                                                "value": 13509
                                            }
                                        ],
                                        "depth": 1,
                                        "name": "sweepToken",
                                        "value": 16118
                                    }
                                ],
                                "depth": 0,
                                "name": "Executed Gas",
                                "value": 270311
                            }
                        ],
                        "depth": -1,
                        "name": "Actual Gas Used",
                        "value": 237590
                    },
                    {
                        "children": [],
                        "depth": -1,
                        "name": "Refunded Gas",
                        "value": 59397
                    }
                ],
                "depth": -2,
                "name": "Total Gas",
                "value": 296987
            }
        ],
        "isConfirmed": true,
        "mainTrace": [
            {
                "children": [
                    {
                        "children": [
                            {
                                "children": [
                                    {
                                        "children": [
                                            {
                                                "children": [],
                                                "depth": 3,
                                                "id": 3,
                                                "order": 3
                                            }
                                        ],
                                        "depth": 2,
                                        "id": 2,
                                        "order": 2
                                    },
                                    {
                                        "children": [],
                                        "depth": 2,
                                        "id": 4,
                                        "order": 4
                                    },
                                    {
                                        "children": [],
                                        "depth": 2,
                                        "id": 5,
                                        "order": 5
                                    }
                                ],
                                "depth": 1,
                                "id": 1,
                                "order": 1
                            },
                            {
                                "children": [
                                    {
                                        "children": [
                                            {
                                                "children": [
                                                    {
                                                        "children": [],
                                                        "depth": 4,
                                                        "id": 9,
                                                        "order": 9
                                                    }
                                                ],
                                                "depth": 3,
                                                "id": 8,
                                                "order": 8
                                            },
                                            {
                                                "children": [
                                                    {
                                                        "children": [],
                                                        "depth": 4,
                                                        "id": 11,
                                                        "order": 11
                                                    }
                                                ],
                                                "depth": 3,
                                                "id": 10,
                                                "order": 10
                                            },
                                            {
                                                "children": [],
                                                "depth": 3,
                                                "id": 12,
                                                "order": 12
                                            }
                                        ],
                                        "depth": 2,
                                        "id": 7,
                                        "order": 7
                                    },
                                    {
                                        "children": [],
                                        "depth": 2,
                                        "id": 13,
                                        "order": 13
                                    }
                                ],
                                "depth": 1,
                                "id": 6,
                                "order": 6
                            },
                            {
                                "children": [
                                    {
                                        "children": [],
                                        "depth": 2,
                                        "id": 15,
                                        "order": 15
                                    },
                                    {
                                        "children": [
                                            {
                                                "children": [],
                                                "depth": 3,
                                                "id": 17,
                                                "order": 17
                                            },
                                            {
                                                "children": [],
                                                "depth": 3,
                                                "id": 18,
                                                "order": 18
                                            }
                                        ],
                                        "depth": 2,
                                        "id": 16,
                                        "order": 16
                                    },
                                    {
                                        "children": [],
                                        "depth": 2,
                                        "id": 19,
                                        "order": 19
                                    }
                                ],
                                "depth": 1,
                                "id": 14,
                                "order": 14
                            },
                            {
                                "children": [
                                    {
                                        "children": [],
                                        "depth": 2,
                                        "id": 21,
                                        "order": 21
                                    },
                                    {
                                        "children": [
                                            {
                                                "children": [],
                                                "depth": 3,
                                                "id": 23,
                                                "order": 23
                                            }
                                        ],
                                        "depth": 2,
                                        "id": 22,
                                        "order": 22
                                    }
                                ],
                                "depth": 1,
                                "id": 20,
                                "order": 20
                            }
                        ],
                        "depth": 0,
                        "id": 0,
                        "order": 0
                    }
                ],
                "depth": -1,
                "id": -1,
                "order": -1
            }
        ],
        "mainTraceNodeCount": 24,
        "parentIdMap": {
            "0": -1,
            "1": 0,
            "10": 7,
            "11": 10,
            "12": 7,
            "13": 6,
            "14": 0,
            "15": 14,
            "16": 14,
            "17": 16,
            "18": 16,
            "19": 14,
            "2": 1,
            "20": 0,
            "21": 20,
            "22": 20,
            "23": 22,
            "3": 2,
            "4": 1,
            "5": 1,
            "6": 0,
            "7": 6,
            "8": 7,
            "9": 8
        },
        "tidyTrace": [
            {
                "children": [
                    {
                        "children": [
                            {
                                "children": [
                                    {
                                        "children": [
                                            {
                                                "children": [],
                                                "depth": 3,
                                                "id": 3,
                                                "order": 3
                                            }
                                        ],
                                        "depth": 2,
                                        "id": 2,
                                        "order": 2
                                    },
                                    {
                                        "children": [],
                                        "depth": 2,
                                        "id": 5,
                                        "order": 5
                                    }
                                ],
                                "depth": 1,
                                "id": 1,
                                "order": 1
                            },
                            {
                                "children": [
                                    {
                                        "children": [
                                            {
                                                "children": [
                                                    {
                                                        "children": [],
                                                        "depth": 4,
                                                        "id": 9,
                                                        "order": 9
                                                    }
                                                ],
                                                "depth": 3,
                                                "id": 8,
                                                "order": 8
                                            },
                                            {
                                                "children": [
                                                    {
                                                        "children": [],
                                                        "depth": 4,
                                                        "id": 11,
                                                        "order": 11
                                                    }
                                                ],
                                                "depth": 3,
                                                "id": 10,
                                                "order": 10
                                            },
                                            {
                                                "children": [],
                                                "depth": 3,
                                                "id": 12,
                                                "order": 12
                                            }
                                        ],
                                        "depth": 2,
                                        "id": 7,
                                        "order": 7
                                    },
                                    {
                                        "children": [],
                                        "depth": 2,
                                        "id": 13,
                                        "order": 13
                                    }
                                ],
                                "depth": 1,
                                "id": 6,
                                "order": 6
                            },
                            {
                                "children": [
                                    {
                                        "children": [
                                            {
                                                "children": [],
                                                "depth": 3,
                                                "id": 17,
                                                "order": 17
                                            },
                                            {
                                                "children": [],
                                                "depth": 3,
                                                "id": 18,
                                                "order": 18
                                            }
                                        ],
                                        "depth": 2,
                                        "id": 16,
                                        "order": 16
                                    },
                                    {
                                        "children": [],
                                        "depth": 2,
                                        "id": 19,
                                        "order": 19
                                    }
                                ],
                                "depth": 1,
                                "id": 14,
                                "order": 14
                            },
                            {
                                "children": [
                                    {
                                        "children": [
                                            {
                                                "children": [],
                                                "depth": 3,
                                                "id": 23,
                                                "order": 23
                                            }
                                        ],
                                        "depth": 2,
                                        "id": 22,
                                        "order": 22
                                    }
                                ],
                                "depth": 1,
                                "id": 20,
                                "order": 20
                            }
                        ],
                        "depth": 0,
                        "id": 0,
                        "order": 0
                    }
                ],
                "depth": -1,
                "id": -1,
                "order": -1
            }
        ],
        "tidyTraceNodeCount": 21
    },
    "state_change": {
        "stateChanges": [
            {
                "address": "0x961ec3bb28c9e98a040c4bded38917aa96b791be",
                "erc": "",
                "slots": [
                    {
                        "current": "0x010000000000000000000b385ddf0533562820d115ffffe7106eefec666f70bb",
                        "key": "0x0000000000000000000000000000000000000000000000000000000000000008",
                        "prev": "0x010000000000000000000b383db18837111772010affffe710eb4fac666f6ffb"
                    },
                    {
                        "current": "0x000000000000000000000000000000000000000000000005cd8030f89556b5b3",
                        "key": "0x0000000000000000000000000000000000000000000000000000000000000004",
                        "prev": "0x000000000000000000000000000000000000000000000005f7849f53f3537c11"
                    },
                    {
                        "current": "0x0000000000000000156e2f6e2f69cbc00000000000000000207eba5b5977ba2a",
                        "key": "0x340ec67543e808268e9b63c53abc9f51b538e92ea9302fa67d0047089a0060a6",
                        "prev": "0x00000000000000003f729dc98d66921e00000000000000004a8328b6b7748088"
                    },
                    {
                        "current": "0xffffffffffffffffa84796b141847144000000000000000057b8694ebe7b8ebc",
                        "key": "0x30c36b5e7af087dbfbc4013f89d2220067c804c32faff28193b4c7cb616f6136",
                        "prev": "0xffffffffffffffff7e432855e387aae6000000000000000081bcd7aa1c78551a"
                    },
                    {
                        "current": "0x00000000000000000000000000000000000000000000000004509094b6541364",
                        "key": "0x8d569119df64c9dd00d7611603c9474aea087b6f4cab05311d93e38afae49a1e",
                        "prev": "0x0000000000000000000000000000000000000000000000002e54fef01450d9c2"
                    },
                    {
                        "current": "0x00000000000000000000000000000000019219bb1c7ecf0c1871136c77fb9ec7",
                        "key": "0x8d569119df64c9dd00d7611603c9474aea087b6f4cab05311d93e38afae49a20",
                        "prev": "0x000000000000000000000000000000000191cde19dc278b1ce2d0a58687e3783"
                    },
                    {
                        "current": "0x00000000000000000001076bc41caa670000000000000000004b8f685c67719e",
                        "key": "0x8d569119df64c9dd00d7611603c9474aea087b6f4cab05311d93e38afae49a21",
                        "prev": "0x0000000000000000000106247f53b7260000000000000000004b8f685c67719e"
                    }
                ],
                "storageVariables": []
            },
            {
                "address": "0xc02aaa39b223fe8d0a0e5c4f27ead9083c756cc2",
                "erc": "ERC-20",
                "slots": [
                    {
                        "current": "0x00000000000000000000000000000000000000000000000a91cbce828f909ca4",
                        "key": "0xbf15c32e95b6a3eee5f25819ff12a5895468f88f980509dc7a71f64277e531e6",
                        "prev": "0x00000000000000000000000000000000000000000000000a9631fe96448e113e"
                    }
                ],
                "storageVariables": [
                    {
                        "name": "balanceOf",
                        "type": "mapping(address => uint256)",
                        "value": {
                            "pairs": [
                                {
                                    "key": "0x961ec3bb28c9e98a040c4bded38917aa96b791be",
                                    "value": {
                                        "current": "194973158353017019556",
                                        "prev": "195290152037992239422",
                                        "typeTag": 1
                                    }
                                }
                            ],
                            "typeTag": 4
                        }
                    }
                ]
            },
            {
                "address": "0xc36442b4a4522e871399cd717abdd847ab11fe88",
                "erc": "ERC-721",
                "slots": [
                    {
                        "current": "0x00000000000000000000000000000000ff5b28ff5290000000000000000056cf",
                        "key": "0x9060298f6d3ccc6e1c09f51ed67f6357d731e155a355664f3953752701ffe619",
                        "prev": "0x00000000000000002a046e5b5dfcc65eff5b28ff5290000000000000000056cf"
                    },
                    {
                        "current": "0x00000000000000000000000000000000019219bb1c7ecf0c1871136c77fb9ec7",
                        "key": "0x9060298f6d3ccc6e1c09f51ed67f6357d731e155a355664f3953752701ffe61b",
                        "prev": "0x000000000000000000000000000000000191cde19dc278b1ce2d0a58687e3783"
                    }
                ],
                "storageVariables": [
                    {
                        "name": "_positions",
                        "type": "mapping(uint256 => struct NonfungiblePositionManager.Position)",
                        "value": {
                            "pairs": [
                                {
                                    "key": "745138",
                                    "value": {
                                        "fields": [
                                            {
                                                "name": "poolId",
                                                "type": "uint80",
                                                "value": {
                                                    "current": "22223",
                                                    "prev": "22223",
                                                    "typeTag": 1
                                                }
                                            },
                                            {
                                                "name": "tickLower",
                                                "type": "int24",
                                                "value": {
                                                    "current": "-44400",
                                                    "prev": "-44400",
                                                    "typeTag": 1
                                                }
                                            },
                                            {
                                                "name": "tickUpper",
                                                "type": "int24",
                                                "value": {
                                                    "current": "-42200",
                                                    "prev": "-42200",
                                                    "typeTag": 1
                                                }
                                            },
                                            {
                                                "name": "liquidity",
                                                "type": "uint128",
                                                "value": {
                                                    "current": "0",
                                                    "prev": "3027666188197742174",
                                                    "typeTag": 1
                                                }
                                            },
                                            {
                                                "name": "feeGrowthInside1LastX128",
                                                "type": "uint256",
                                                "value": {
                                                    "current": "2087825221856364847114186585596993223",
                                                    "prev": "2086286809402028295818198136211257219",
                                                    "typeTag": 1
                                                }
                                            }
                                        ],
                                        "typeTag": 3
                                    }
                                }
                            ],
                            "typeTag": 4
                        }
                    }
                ]
            },
            {
                "address": "0xd29da236dd4aac627346e1bba06a619e8c22d7c5",
                "erc": "ERC-20",
                "slots": [
                    {
                        "current": "0x0000000000000000000000000000000000000000000000000077bd7c88aa2573",
                        "key": "0x8484ec5919d5a91d136d39633a8ad88b6e6bd2e317af3fd96b8ebe5e84f6167a",
                        "prev": "0x0000000000000000000000000000000000000000000000000000310baa726f6e"
                    },
                    {
                        "current": "0x00000000000000000000000000000000000000000000000036b5250f7fc6cbc9",
                        "key": "0x8522c3eaf3cdeb0f7885e40d977276173e6188a8f52a4df98cb33bd8518ac5a6",
                        "prev": "0x000000000000000000000000000000000000000000000000372cb1805dfe81ce"
                    }
                ],
                "storageVariables": [
                    {
                        "name": "_balances",
                        "type": "mapping(address => uint256)",
                        "value": {
                            "pairs": [
                                {
                                    "key": "0x62937c88a802ca1aff8f325a120f9fd6fd4d6b4a",
                                    "value": {
                                        "current": "33703864795014515",
                                        "prev": "53926174027630",
                                        "typeTag": 1
                                    }
                                },
                                {
                                    "key": "0x961ec3bb28c9e98a040c4bded38917aa96b791be",
                                    "value": {
                                        "current": "3942097797331209161",
                                        "prev": "3975747735952196046",
                                        "typeTag": 1
                                    }
                                }
                            ],
                            "typeTag": 4
                        }
                    }
                ]
            }
        ]
    }
}