{
    "balance_change": {
        "balanceChanges": [
            {
                "account": "0xbe60333fe9d9d10d2801e11c2a0e5060c83c8b30",
                "assets": [
                    {
                        "address": "0xdceaf1652a131f32a821468dc03a92df0edd86ea",
                        "amount": "1",
                        "iconUrl": "",
                        "isERC1155": false,
                        "isERC721": true,
                        "sign": false,
                        "tokenID": "30340077",
                        "value": ""
                    }
                ]
            },
            {
                "account": "0x2117172457855e1adac3741dc01f7c115220bef3",
                "assets": [
                    {
                        "address": "0xdceaf1652a131f32a821468dc03a92df0edd86ea",
                        "amount": "1",
                        "iconUrl": "",
                        "isERC1155": false,
                        "isERC721": true,
                        "sign": true,
                        "tokenID": "30340077",
                        "value": ""
                    }
                ]
            }
        ]
    },
    "profile": {
        "basic_info": {
            "baseFee": "",
            "blockNumber": 8101126,
            "callData": "0x735498a90000000000000000000000002117172457855e1adac3741dc01f7c115220bef30000000000000000000000000000000000000000000000000000000001cef3ed626b676b386b3266616c37397366346874376a30000000000000000000000000",
            "debugEnable": true,
            "errorInfo": "",
            "eventCount": 2,
            "feeRecipient": "0x2a65aca4d5fc5b5c859090a6c34d164135398226",
            "formatValue": "0",
            "gasLimit": 210000,
            "gasPrice": "10",
            "gasUsed": 139888,
            "intTxnCount": 2,
            "internalRevert": false,
            "internalRevertMessage": "",
            "isContractCreation": false,
            "isFlashloan": false,
            "maxFee": "",
            "nonce": 25366,
            "overwritedBlockNumber": -1,
            "priorityFee": "",
            "receiver": "0xbe60333fe9d9d10d2801e11c2a0e5060c83c8b30",
            "revertMessage": "",
            "sender": "0xee54a771cc4671536088c01979174d8424a145a9",
            "simulationEnable": true,
            "sourceTxnHash": "0x8bebf3bb2355416b1b7d8dec8316d927ae058fa90ace4d39bd06f262f429d5d0",
            "status": true,
            "timestamp": "2019-07-07T01:12:14Z",
            "transactionFee": "0.00139888",
            "txnHash": "0x8bebf3bb2355416b1b7d8dec8316d927ae058fa90ace4d39bd06f262f429d5d0",
            "txnIndex": 8,
            "type": 0,
            "value": "0"
        },
        "fund_flow": [
            {
                "amount": "1",
                "from": "0xbe60333fe9d9d10d2801e11c2a0e5060c83c8b30",
                "id": 1,
                "isERC1155": false,
                "isERC721": true,
                "isReverted": false,
                "order": 1,
                "to": "0x2117172457855e1adac3741dc01f7c115220bef3",
                "token": "0xdceaf1652a131f32a821468dc03a92df0edd86ea",
                "tokenID": "30340077"
            }
        ],
        "token_infos": [
            {
                "address": "0xc02aaa39b223fe8d0a0e5c4f27ead9083c756cc2",
                "decimals": 18
            },
            {
                "address": "0xeeeeeeeeeeeeeeeeeeeeeeeeeeeeeeeeeeeeeeee",
                "decimals": 18
            }
        ]
    },
    "address_label": {
        "labels": [
            {
                "address": "0x0000000000000000000000000000000000000004",
                "label": "Precompiled"
            },
            {
                "address": "0xeeeeeeeeeeeeeeeeeeeeeeeeeeeeeeeeeeeeeeee",
                "label": "Ether"
            },
            {
                "address": "0xbe60333fe9d9d10d2801e11c2a0e5060c83c8b30",
                "label": "MCH: Extension Gateway 2"
            },
            {
                "address": "0xdceaf1652a131f32a821468dc03a92df0edd86ea",
                "label": "MCH: Extension"
            },
            {
                "address": "0x0000000000000000000000000000000000000001",
                "label": "Precompiled"
            },
            {
                "address": "0x0000000000000000000000000000000000000002",
                "label": "Precompiled"
            },
            {
                "address": "0x0000000000000000000000000000000000000003",
                "label": "Precompiled"
            }
        ]
    },
    "trace": {
        "accountLabels": null,
        "dataMap": {
            "-1": {
                "invocation": {
                    "address": "0xee54a771cc4671536088c01979174d8424a145a9",
                    "callData": "",
                    "decodedMethod": null,
                    "errorInfo": "",
                    "fromAddress": "",
                    "gasUsed": 0,
                    "id": -1,
                    "methodDecoded": false,
                    "operation": "",
                    "output": "",
                    "revert": false,
                    "revertMessage": "",
                    "selector": "",
                    "status": false,
                    "value": ""
                },
                "nodeType": 0
            },
            "0": {
                "invocation": {
                    "address": "0xbe60333fe9d9d10d2801e11c2a0e5060c83c8b30",
                    "callData": "0x0000000000000000000000002117172457855e1adac3741dc01f7c115220bef30000000000000000000000000000000000000000000000000000000001cef3ed626b676b386b3266616c37397366346874376a30000000000000000000000000",
                    "decodedMethod": {
                        "callParams": [
                            {
                                "name": "_assetOwner",
                                "type": "address",
                                "value": "0x2117172457855e1adac3741dc01f7c115220bef3"
                            },
                            {
                                "name": "_tokenId",
                                "type": "uint256",
                                "value": "30,340,077"
                            },
                            {
                                "name": "_eventHash",
                                "type": "bytes32",
                                "value": "0x626b676b386b3266616c37397366346874376a30000000000000000000000000"
                            }
                        ],
                        "constructorArguments": "",
                        "name": "withdrawExtensionWithMint",
                        "returnParams": [],
                        "signature": "withdrawExtensionWithMint(address,uint256,bytes32)"
                    },
                    "errorInfo": "",
                    "fromAddress": "0xee54a771cc4671536088c01979174d8424a145a9",
                    "gasUsed": 139888,
                    "id": 0,
                    "methodDecoded": true,
                    "operation": "CALL",
                    "output": "",
                    "revert": false,
                    "revertMessage": "",
                    "selector": "0x735498a9",
                    "status": true,
                    "value": "0"
                },
                "nodeType": 0
            },
            "1": {
                "invocation": {
                    "address": "0xdceaf1652a131f32a821468dc03a92df0edd86ea",
                    "callData": "0x0000000000000000000000000000000000000000000000000000000001cef3ed",
                    "decodedMethod": {
                        "callParams": [
                            {
                                "name": "_tokenId",
                                "type": "uint256",
                                "value": "30,340,077"
                            }
                        ],
                        "constructorArguments": "",
                        "name": "isAlreadyMinted",
                        "returnParams": [
                            {
                                "name": "",
                                "type": "bool",
                                "value": true
                            }
                        ],
                        "signature": "isAlreadyMinted(uint256)"
                    },
                    "errorInfo": "",
                    "fromAddress": "0xbe60333fe9d9d10d2801e11c2a0e5060c83c8b30",
                    "gasUsed": 1260,
                    "id": 1,
                    "methodDecoded": true,
                    "operation": "STATICCALL",
                    "output": "0x0000000000000000000000000000000000000000000000000000000000000001",
                    "revert": false,
                    "revertMessage": "",
                    "selector": "0x9cc19bfb",
                    "status": true,
                    "value": "0"
                },
                "nodeType": 0
            },
            "2": {
                "invocation": {
                    "address": "0xdceaf1652a131f32a821468dc03a92df0edd86ea",
                    "callData": "0x000000000000000000000000be60333fe9d9d10d2801e11c2a0e5060c83c8b300000000000000000000000002117172457855e1adac3741dc01f7c115220bef30000000000000000000000000000000000000000000000000000000001cef3ed",
                    "decodedMethod": {
                        "callParams": [
                            {
                                "name": "from",
                                "type": "address",
                                "value": "0xbe60333fe9d9d10d2801e11c2a0e5060c83c8b30"
                            },
                            {
                                "name": "to",
                                "type": "address",
                                "value": "0x2117172457855e1adac3741dc01f7c115220bef3"
                            },
                            {
                                "name": "tokenId",
                                "type": "uint256",
                                "value": "30,340,077"
                            }
                        ],
                        "constructorArguments": "",
                        "name": "safeTransferFrom",
                        "returnParams": [],
                        "signature": "safeTransferFrom(address,address,uint256)"
                    },
                    "errorInfo": "",
                    "fromAddress": "0xbe60333fe9d9d10d2801e11c2a0e5060c83c8b30",
                    "gasUsed": 131305,
                    "id": 2,
                    "methodDecoded": true,
                    "operation": "CALL",
                    "output": "",
                    "revert": false,
                    "revertMessage": "",
                    "selector": "0x42842e0e",
                    "status": true,
                    "value": "0"
                },
                "nodeType": 0
            },
            "3": {
                "event": {
                    "contract": "0xdceaf1652a131f32a821468dc03a92df0edd86ea",
                    "decodedLog": {
                        "name": "Transfer",
                        "params": [
                            {
                                "name": "from",
                                "type": "address",
                                "value": "0xbe60333fe9d9d10d2801e11c2a0e5060c83c8b30"
                            },
                            {
                                "name": "to",
                                "type": "address",
                                "value": "0x2117172457855e1adac3741dc01f7c115220bef3"
                            },
                            {
                                "decimalAvailable": true,
                                "name": "tokenId",
                                "type": "uint256",
                                "value": "30,340,077"
                            }
                        ],
                        "signature": "Transfer(address,address,uint256)"
                    },
                    "id": 3,
                    "logData": "0x",
                    "logDecoded": true,
                    "operation": "EVENT",
                    "revert": false,
                    "status": true,
                    "topics": [
                        "0xddf252ad1be2c89b69c2b068fc378daa952ba7f163c4a11628f55a4df523b3ef",
                        "0x000000000000000000000000be60333fe9d9d10d2801e11c2a0e5060c83c8b30",
                        "0x0000000000000000000000002117172457855e1adac3741dc01f7c115220bef3",
                        "0x0000000000000000000000000000000000000000000000000000000001cef3ed"
                    ]
                },
                "nodeType": 1
            },
            "4": {
                "event": {
                    "contract": "0xbe60333fe9d9d10d2801e11c2a0e5060c83c8b30",
                    "decodedLog": {
                        "name": "OutgoingEvent",
                        "params": [
                            {
                                "name": "assetOwner",
                                "type": "address",
                                "value": "0x2117172457855e1adac3741dc01f7c115220bef3"
                            },
                            {
                                "name": "eventHash",
                                "type": "bytes32",
                                "value": "0x626b676b386b3266616c37397366346874376a30000000000000000000000000"
                            },
                            {
                                "name": "tokenId",
                                "type": "uint256",
                                "value": "30,340,077"
                            },
                            {
                                "name": "at",
                                "type": "uint256",
                                "value": "1,562,461,934"
                            },
                            {
                                "name": "eventType",
                                "type": "uint8",
                                "value": "1"
                            }
                        ],
                        "signature": "OutgoingEvent(address,uint256,uint256,bytes32,uint8)"
                    },
                    "id": 4,
                    "logData": "0x0000000000000000000000000000000000000000000000000000000001cef3ed000000000000000000000000000000000000000000000000000000005d2146ee0000000000000000000000000000000000000000000000000000000000000001",
                    "logDecoded": true,
                    "operation": "EVENT",
                    "revert": false,
                    "status": true,
                    "topics": [
                        "0xe853b0a966636e7fcd11f2fc285a1390d79434a369f038e850bf5dc0570847f4",
                        "0x0000000000000000000000002117172457855e1adac3741dc01f7c115220bef3",
                        "0x626b676b386b3266616c37397366346874376a30000000000000000000000000"
                    ]
                },
                "nodeType": 1
            }
        },
        "gasFlame": [
            {
                "children": [
                    {
                        "children": [
                            {
                                "children": [],
                                "depth": 0,
                                "name": "Initial Gas",
                                "value": 24472
                            },
                            {
                                "children": [
                                    {
                                        "children": [],
                                        "depth": 1,
                                        "name": "isAlreadyMinted",
                                        "value": 1260
                                    },
                                    {
                                        "children": [],
                                        "depth": 1,
                                        "name": "safeTransferFrom",
                                        "value": 131305
                                    }
                                ],
                                "depth": 0,
                                "name": "Executed Gas",
                                "value": 160416
                            }
                        ],
                        "depth": -1,
                        "name": "Actual Gas Used",
                        "value": 139888
                    },
                    {
                        "children": [],
                        "depth": -1,
                        "name": "Refunded Gas",
                        "value": 45000
                    }
                ],
                "depth": -2,
                "name": "Total Gas",
                "value": 184888
            }
        ],
        "isConfirmed": true,
        "mainTrace": [
            {
                "children": [
                    {
                        "children": [
                            {
                                "children": [],
                                "depth": 1,
                                "id": 1,
                                "order": 1
                            },
                            {
                                "children": [
                                    {
                                        "children": [],
                                        "depth": 2,
                                        "id": 3,
                                        "order": 3
                                    }
                                ],
                                "depth": 1,
                                "id": 2,
                                "order": 2
                            },
                            {
                                "children": [],
                                "depth": 1,
                                "id": 4,
                                "order": 4
                            }
                        ],
                        "depth": 0,
                        "id": 0,
                        "order": 0
                    }
                ],
                "depth": -1,
                "id": -1,
                "order": -1
            }
        ],
        "mainTraceNodeCount": 5,
        "parentIdMap": {
            "0": -1,
            "1": 0,
            "2": 0,
            "3": 2,
            "4": 0
        },
        "tidyTrace": [
            {
                "children": [
                    {
                        "children": [
                            {
                                "children": [
                                    {
                                        "children": [],
                                        "depth": 2,
                                        "id": 3,
                                        "order": 3
                                    }
                                ],
                                "depth": 1,
                                "id": 2,
                                "order": 2
                            },
                            {
                                "children": [],
                                "depth": 1,
                                "id": 4,
                                "order": 4
                            }
                        ],
                        "depth": 0,
                        "id": 0,
                        "order": 0
                    }
                ],
                "depth": -1,
                "id": -1,
                "order": -1
            }
        ],
        "tidyTraceNodeCount": 4
    },
    "state_change": {
        "stateChanges": [
            {
                "address": "0xbe60333fe9d9d10d2801e11c2a0e5060c83c8b30",
                "erc": "",
                "slots": [
                    {
                        "current": "0x0000000000000000000000000000000000000000000000000000000000000001",
                        "key": "0xc270c1b306460a406f29105fcf8a996691fcba014c81095f6787f905d19daa16",
                        "prev": "0x0000000000000000000000000000000000000000000000000000000000000000"
                    }
                ],
                "storageVariables": [
                    {
                        "name": "isPastEvent",
                        "type": "mapping(bytes32 => bool)",
                        "value": {
                            "pairs": [
                                {
                                    "key": "0x626b676b386b3266616c37397366346874376a30000000000000000000000000",
                                    "value": {
                                        "current": "true",
                                        "prev": "false",
                                        "typeTag": 1
                                    }
                                }
                            ],
                            "typeTag": 4
                        }
                    }
                ]
            },
            {
                "address": "0xdceaf1652a131f32a821468dc03a92df0edd86ea",
                "erc": "ERC-721",
                "slots": [
                    {
                        "current": "0x0000000000000000000000002117172457855e1adac3741dc01f7c115220bef3",
                        "key": "0xe97a0e53807c650248ab435f471f202ec1d007b74ee3443f410e8b18ea32b931",
                        "prev": "0x000000000000000000000000be60333fe9d9d10d2801e11c2a0e5060c83c8b30"
                    },
                    {
                        "current": "0x0000000000000000000000000000000000000000000000000000000001368578",
                        "key": "0x82bf947833cf10a3d73eac9c7f270926db2060a8551fef37a995c54b387a0140",
                        "prev": "0x0000000000000000000000000000000000000000000000000000000001cef3ed"
                    },
                    {
                        "current": "0x0000000000000000000000000000000000000000000000000000000000000000",
                        "key": "0x82bf947833cf10a3d73eac9c7f270926db2060a8551fef37a995c54b387a0176",
                        "prev": "0x0000000000000000000000000000000000000000000000000000000001368578"
                    },
                    {
                        "current": "0x0000000000000000000000000000000000000000000000000000000000000000",
                        "key": "0xb1508bfdd4f21b2569026693ee9f9bd7c49b6f40371d5a7a11fe18a9e53464aa",
                        "prev": "0x00000000000000000000000000000000000000000000000000000000000015a9"
                    },
                    {
                        "current": "0x00000000000000000000000000000000000000000000000000000000000015a9",
                        "key": "0x07595eca58bf83a806ca67bb8ac26e3202f56a9e7550d4d099601704b898deb6",
                        "prev": "0x00000000000000000000000000000000000000000000000000000000000015df"
                    },
                    {
                        "current": "0x0000000000000000000000000000000000000000000000000000000000000001",
                        "key": "0x4d526bedb9846d176805ba60c1a8de19c1b7910f935bf13e405e6581a22fd4d1",
                        "prev": "0x0000000000000000000000000000000000000000000000000000000000000000"
                    },
                    {
                        "current": "0x0000000000000000000000000000000000000000000000000000000000000001",
                        "key": "0x2f7653560e33872cb696f4ba61a186f94de1487183321a940ae19c226072eeec",
                        "prev": "0x0000000000000000000000000000000000000000000000000000000000000000"
                    },
                    {
                        "current": "0x00000000000000000000000000000000000000000000000000000000000015df",
                        "key": "0x8cf7c86935e230ce3b3da7e07469c9e19379b46441ecbc0c51c284ac9172c9d3",
                        "prev": "0x00000000000000000000000000000000000000000000000000000000000015e0"
                    },
                    {
                        "current": "0x00000000000000000000000000000000000000000000000000000000000015df",
                        "key": "0xfc4bb40d51a7cab6ce7a159418e1727fbacffab9b90df31de585c528fc57d0d4",
                        "prev": "0x00000000000000000000000000000000000000000000000000000000000015e0"
                    },
                    {
                        "current": "0x0000000000000000000000000000000000000000000000000000000001cef3ed",
                        "key": "0x12af0ba184db1637cfeaa08d8550b8463fe18742c3c233ce30114bc2657b03ed",
                        "prev": "0x0000000000000000000000000000000000000000000000000000000000000000"
                    }
                ],
                "storageVariables": [
                    {
                        "name": "_ownedTokens",
                        "type": "mapping(address => uint256[])",
                        "value": {
                            "pairs": [
                                {
                                    "key": "0x2117172457855e1adac3741dc01f7c115220bef3",
                                    "value": {
                                        "elemType": "uint256",
                                        "elems": [
                                            {
                                                "index": 0,
                                                "value": {
                                                    "current": "30340077",
                                                    "prev": "0",
                                                    "typeTag": 1
                                                }
                                            }
                                        ],
                                        "typeTag": 2
                                    }
                                },
                                {
                                    "key": "0xbe60333fe9d9d10d2801e11c2a0e5060c83c8b30",
                                    "value": {
                                        "elemType": "uint256",
                                        "elems": [
                                            {
                                                "index": 5545,
                                                "value": {
                                                    "current": "20350328",
                                                    "prev": "30340077",
                                                    "typeTag": 1
                                                }
                                            }
                                        ],
                                        "typeTag": 2
                                    }
                                }
                            ],
                            "typeTag": 4
                        }
                    },
                    {
                        "name": "_ownedTokensCount",
                        "type": "mapping(address => uint256)",
                        "value": {
                            "pairs": [
                                {
                                    "key": "0x2117172457855e1adac3741dc01f7c115220bef3",
                                    "value": {
                                        "current": "1",
                                        "prev": "0",
                                        "typeTag": 1
                                    }
                                },
                                {
                                    "key": "0xbe60333fe9d9d10d2801e11c2a0e5060c83c8b30",
                                    "value": {
                                        "current": "5599",
                                        "prev": "5600",
                                        "typeTag": 1
                                    }
                                }
                            ],
                            "typeTag": 4
                        }
                    },
                    {
                        "name": "_ownedTokensIndex",
                        "type": "mapping(uint256 => uint256)",
                        "value": {
                            "pairs": [
                                {
                                    "key": "20350328",
                                    "value": {
                                        "current": "5545",
                                        "prev": "5599",
                                        "typeTag": 1
                                    }
                                },
                                {
                                    "key": "30340077",
                                    "value": {
                                        "current": "0",
                                        "prev": "5545",
                                        "typeTag": 1
                                    }
                                }
                            ],
                            "typeTag": 4
                        }
                    },
                    {
                        "name": "_tokenOwner",
                        "type": "mapping(uint256 => address)",
                        "value": {
                            "pairs": [
                                {
                                    "key": "30340077",
                                    "value": {
                                        "current": "0x2117172457855e1adac3741dc01f7c115220bef3",
                                        "prev": "0xbe60333fe9d9d10d2801e11c2a0e5060c83c8b30",
                                        "typeTag": 1
                                    }
                                }
                            ],
                            "typeTag": 4
                        }
                    }
                ]
            }
        ]
    }
}