{
    "balance_change": {
        "balanceChanges": [
            {
                "account": "0x3da7e0ffe478eebd9b1e93d8c24ff5dda9910540",
                "assets": [
                    {
                        "address": "0x3819f64f282bf135d62168c1e513280daf905e06",
                        "amount": "31,112,465.59206192",
                        "iconUrl": "",
                        "isERC1155": false,
                        "isERC721": false,
                        "sign": true,
                        "value": "120.7094372"
                    }
                ]
            },
            {
                "account": "0x0000000000000000000000000000000000000000",
                "assets": [
                    {
                        "address": "0x3819f64f282bf135d62168c1e513280daf905e06",
                        "amount": "59,396,525.22120912",
                        "iconUrl": "",
                        "isERC1155": false,
                        "isERC721": false,
                        "sign": false,
                        "value": "233.3959211"
                    }
                ]
            },
            {
                "account": "0x9d73ced2e36c89e5d167151809eee218a189f801",
                "assets": [
                    {
                        "address": "0x3819f64f282bf135d62168c1e513280daf905e06",
                        "amount": "28,284,059.6291472",
                        "iconUrl": "",
                        "isERC1155": false,
                        "isERC721": false,
                        "sign": true,
                        "value": "110.2996017"
                    }
                ]
            }
        ]
    },
    "profile": {
        "basic_info": {
            "baseFee": "40.677488141",
            "blockNumber": 14409129,
            "callData": "0xf812b9a40000000000000000000000000000000000000000000000000000000000000040000000000000000000000000000000000000000000000000000000000004679a",
            "debugEnable": true,
            "errorInfo": "",
            "eventCount": 3,
            "feeRecipient": "0x002e08000acbbae2155fab7ac01929564949070d",
            "formatValue": "0",
            "gasLimit": 75023,
            "gasPrice": "42.177488141",
            "gasUsed": 75023,
            "intTxnCount": 1,
            "internalRevert": false,
            "internalRevertMessage": "",
            "isContractCreation": false,
            "isFlashloan": false,
            "maxFee": "52.283672279",
            "nonce": 790,
            "overwritedBlockNumber": -1,
            "priorityFee": "1.5",
            "receiver": "0x3819f64f282bf135d62168c1e513280daf905e06",
            "revertMessage": "",
            "sender": "0x3da7e0ffe478eebd9b1e93d8c24ff5dda9910540",
            "simulationEnable": true,
            "sourceTxnHash": "0x8bddd28ecdd7f2e6248e287a4a7ff0a046753af735e32d505da529e7ead4ad24",
            "status": true,
            "timestamp": "2022-03-18T07:43:19Z",
            "transactionFee": "0.003164281692802243",
            "txnHash": "0x8bddd28ecdd7f2e6248e287a4a7ff0a046753af735e32d505da529e7ead4ad24",
            "txnIndex": 17,
            "type": 2,
            "value": "0"
        },
        "fund_flow": [
            {
                "amount": "28,284,059.6291472",
                "from": "0x0000000000000000000000000000000000000000",
                "id": 1,
                "isERC1155": false,
                "isERC721": false,
                "isReverted": false,
                "order": 1,
                "to": "0x9d73ced2e36c89e5d167151809eee218a189f801",
                "token": "0x3819f64f282bf135d62168c1e513280daf905e06"
            },
            {
                "amount": "31,112,465.59206192",
                "from": "0x0000000000000000000000000000000000000000",
                "id": 2,
                "isERC1155": false,
                "isERC721": false,
                "isReverted": false,
                "order": 2,
                "to": "0x3da7e0ffe478eebd9b1e93d8c24ff5dda9910540",
                "token": "0x3819f64f282bf135d62168c1e513280daf905e06"
            }
        ],
        "token_infos": [
            {
                "address": "0x3819f64f282bf135d62168c1e513280daf905e06",
                "decimals": 9
            },
            {
                "address": "0xc02aaa39b223fe8d0a0e5c4f27ead9083c756cc2",
                "decimals": 18
            },
            {
                "address": "0xeeeeeeeeeeeeeeeeeeeeeeeeeeeeeeeeeeeeeeee",
                "decimals": 18
            }
        ]
    },
    "address_label": {
        "labels": [
            {
                "address": "0x0000000000000000000000000000000000000001",
                "label": "Precompiled"
            },
            {
                "address": "0x0000000000000000000000000000000000000002",
                "label": "Precompiled"
            },
            {
                "address": "0x0000000000000000000000000000000000000003",
                "label": "Precompiled"
            },
            {
                "address": "0x0000000000000000000000000000000000000004",
                "label": "Precompiled"
            },
            {
                "address": "0xeeeeeeeeeeeeeeeeeeeeeeeeeeeeeeeeeeeeeeee",
                "label": "Ether"
            },
            {
                "address": "0x2b591e99afe9f32eaa6214f7b7629768c40eeb39",
                "label": "HEX.com: HEX Token"
            },
            {
                "address": "0x3819f64f282bf135d62168c1e513280daf905e06",
                "label": "Hedron: HDRN Token"
            }
        ]
    },
    "trace": {
        "accountLabels": null,
        "dataMap": {
            "-1": {
                "invocation": {
                    "address": "0x3da7e0ffe478eebd9b1e93d8c24ff5dda9910540",
                    "callData": "",
                    "decodedMethod": null,
                    "errorInfo": "",
                    "fromAddress": "",
                    "gasUsed": 0,
                    "id": -1,
                    "methodDecoded": false,
                    "operation": "",
                    "output": "",
                    "revert": false,
                    "revertMessage": "",
                    "selector": "",
                    "status": false,
                    "value": ""
                },
                "nodeType": 0
            },
            "0": {
                "invocation": {
                    "address": "0x3819f64f282bf135d62168c1e513280daf905e06",
                    "callData": "0x0000000000000000000000000000000000000000000000000000000000000040000000000000000000000000000000000000000000000000000000000004679a",
                    "decodedMethod": {
                        "callParams": [
                            {
                                "name": "stakeIndex",
                                "type": "uint256",
                                "value": "64"
                            },
                            {
                                "name": "stakeId",
                                "type": "uint40",
                                "value": "288,666"
                            }
                        ],
                        "constructorArguments": "",
                        "name": "mintNative",
                        "returnParams": [
                            {
                                "name": "",
                                "type": "uint256",
                                "value": "31,112,465,592,061,920"
                            }
                        ],
                        "signature": "mintNative(uint256,uint40)"
                    },
                    "errorInfo": "",
                    "fromAddress": "0x3da7e0ffe478eebd9b1e93d8c24ff5dda9910540",
                    "gasUsed": 75023,
                    "id": 0,
                    "methodDecoded": true,
                    "operation": "CALL",
                    "output": "0x000000000000000000000000000000000000000000000000006e889f63b38fe0",
                    "revert": false,
                    "revertMessage": "",
                    "selector": "0xf812b9a4",
                    "status": true,
                    "value": "0"
                },
                "nodeType": 0
            },
            "1": {
                "invocation": {
                    "address": "0x2b591e99afe9f32eaa6214f7b7629768c40eeb39",
                    "callData": "0x0000000000000000000000003da7e0ffe478eebd9b1e93d8c24ff5dda99105400000000000000000000000000000000000000000000000000000000000000040",
                    "decodedMethod": {
                        "callParams": [
                            {
                                "name": "",
                                "type": "address",
                                "value": "0x3da7e0ffe478eebd9b1e93d8c24ff5dda9910540"
                            },
                            {
                                "name": "",
                                "type": "uint256",
                                "value": "64"
                            }
                        ],
                        "constructorArguments": "",
                        "name": "stakeLists",
                        "returnParams": [
                            {
                                "name": "stakeId",
                                "type": "uint40",
                                "value": "288,666"
                            },
                            {
                                "name": "stakedHearts",
                                "type": "uint72",
                                "value": "7,500,000,000,000"
                            },
                            {
                                "name": "stakeShares",
                                "type": "uint72",
                                "value": "5,892,512,422,739"
                            },
                            {
                                "name": "lockedDay",
                                "type": "uint16",
                                "value": "356"
                            },
                            {
                                "name": "stakedDays",
                                "type": "uint16",
                                "value": "480"
                            },
                            {
                                "name": "unlockedDay",
                                "type": "uint16",
                                "value": "0"
                            },
                            {
                                "name": "isAutoStake",
                                "type": "bool",
                                "value": false
                            }
                        ],
                        "signature": "stakeLists(address,uint256)"
                    },
                    "errorInfo": "",
                    "fromAddress": "0x3819f64f282bf135d62168c1e513280daf905e06",
                    "gasUsed": 5020,
                    "id": 1,
                    "methodDecoded": true,
                    "operation": "STATICCALL",
                    "output": "0x000000000000000000000000000000000000000000000000000000000004679a000000000000000000000000000000000000000000000000000006d23ad5f8000000000000000000000000000000000000000000000000000000055bf51c1b53000000000000000000000000000000000000000000000000000000000000016400000000000000000000000000000000000000000000000000000000000001e000000000000000000000000000000000000000000000000000000000000000000000000000000000000000000000000000000000000000000000000000000000",
                    "revert": false,
                    "revertMessage": "",
                    "selector": "0x2607443b",
                    "status": true,
                    "value": "0"
                },
                "nodeType": 0
            },
            "2": {
                "event": {
                    "contract": "0x3819f64f282bf135d62168c1e513280daf905e06",
                    "decodedLog": {
                        "name": "Transfer",
                        "params": [
                            {
                                "name": "from",
                                "type": "address",
                                "value": "0x0000000000000000000000000000000000000000"
                            },
                            {
                                "name": "to",
                                "type": "address",
                                "value": "0x9d73ced2e36c89e5d167151809eee218a189f801"
                            },
                            {
                                "decimalAvailable": true,
                                "name": "value",
                                "type": "uint256",
                                "value": "28,284,059,629,147,200"
                            }
                        ],
                        "signature": "Transfer(address,address,uint256)"
                    },
                    "id": 2,
                    "logData": "0x00000000000000000000000000000000000000000000000000647c33cf005440",
                    "logDecoded": true,
                    "operation": "EVENT",
                    "revert": false,
                    "status": true,
                    "topics": [
                        "0xddf252ad1be2c89b69c2b068fc378daa952ba7f163c4a11628f55a4df523b3ef",
                        "0x0000000000000000000000000000000000000000000000000000000000000000",
                        "0x0000000000000000000000009d73ced2e36c89e5d167151809eee218a189f801"
                    ]
                },
                "nodeType": 1
            },
            "3": {
                "event": {
                    "contract": "0x3819f64f282bf135d62168c1e513280daf905e06",
                    "decodedLog": {
                        "name": "Transfer",
                        "params": [
                            {
                                "name": "from",
                                "type": "address",
                                "value": "0x0000000000000000000000000000000000000000"
                            },
                            {
                                "name": "to",
                                "type": "address",
                                "value": "0x3da7e0ffe478eebd9b1e93d8c24ff5dda9910540"
                            },
                            {
                                "decimalAvailable": true,
                                "name": "value",
                                "type": "uint256",
                                "value": "31,112,465,592,061,920"
                            }
                        ],
                        "signature": "Transfer(address,address,uint256)"
                    },
                    "id": 3,
                    "logData": "0x000000000000000000000000000000000000000000000000006e889f63b38fe0",
                    "logDecoded": true,
                    "operation": "EVENT",
                    "revert": false,
                    "status": true,
                    "topics": [
                        "0xddf252ad1be2c89b69c2b068fc378daa952ba7f163c4a11628f55a4df523b3ef",
                        "0x0000000000000000000000000000000000000000000000000000000000000000",
                        "0x0000000000000000000000003da7e0ffe478eebd9b1e93d8c24ff5dda9910540"
                    ]
                },
                "nodeType": 1
            },
            "4": {
                "event": {
                    "contract": "0x3819f64f282bf135d62168c1e513280daf905e06",
                    "decodedLog": {
                        "name": "Mint",
                        "params": [
                            {
                                "name": "minter",
                                "type": "address",
                                "value": "0x3da7e0ffe478eebd9b1e93d8c24ff5dda9910540"
                            },
                            {
                                "name": "stakeId",
                                "type": "uint40",
                                "value": "288,666"
                            },
                            {
                                "name": "data",
                                "type": "uint256",
                                "value": "2,710,277,998,697,750,360,562,143,045,295,721,861,803,187,956,734,791,792,663"
                            }
                        ],
                        "signature": "Mint(uint256,address,uint40)"
                    },
                    "id": 4,
                    "logData": "0x00000000000000006e889f63b38fe06401e0000000055bf51c1b530062343817",
                    "logDecoded": true,
                    "operation": "EVENT",
                    "revert": false,
                    "status": true,
                    "topics": [
                        "0xce84afc26010d49051ae429b96ad50c0ef3a958a5c5bdc44c80e090dee642dbe",
                        "0x0000000000000000000000003da7e0ffe478eebd9b1e93d8c24ff5dda9910540",
                        "0x000000000000000000000000000000000000000000000000000000000004679a"
                    ]
                },
                "nodeType": 1
            }
        },
        "gasFlame": [
            {
                "children": [
                    {
                        "children": [
                            {
                                "children": [],
                                "depth": 0,
                                "name": "Initial Gas",
                                "value": 21368
                            },
                            {
                                "children": [
                                    {
                                        "children": [],
                                        "depth": 1,
                                        "name": "stakeLists",
                                        "value": 5020
                                    }
                                ],
                                "depth": 0,
                                "name": "Executed Gas",
                                "value": 53655
                            }
                        ],
                        "depth": -1,
                        "name": "Actual Gas Used",
                        "value": 75023
                    },
                    {
                        "children": [],
                        "depth": -1,
                        "name": "Refunded Gas",
                        "value": 0
                    }
                ],
                "depth": -2,
                "name": "Total Gas",
                "value": 75023
            }
        ],
        "isConfirmed": true,
        "mainTrace": [
            {
                "children": [
                    {
                        "children": [
                            {
                                "children": [],
                                "depth": 1,
                                "id": 1,
                                "order": 1
                            },
                            {
                                "children": [],
                                "depth": 1,
                                "id": 2,
                                "order": 2
                            },
                            {
                                "children": [],
                                "depth": 1,
                                "id": 3,
                                "order": 3
                            },
                            {
                                "children": [],
                                "depth": 1,
                                "id": 4,
                                "order": 4
                            }
                        ],
                        "depth": 0,
                        "id": 0,
                        "order": 0
                    }
                ],
                "depth": -1,
                "id": -1,
                "order": -1
            }
        ],
        "mainTraceNodeCount": 5,
        "parentIdMap": {
            "0": -1,
            "1": 0,
            "2": 0,
            "3": 0,
            "4": 0
        },
        "tidyTrace": [
            {
                "children": [
                    {
                        "children": [
                            {
                                "children": [],
                                "depth": 1,
                                "id": 2,
                                "order": 2
                            },
                            {
                                "children": [],
                                "depth": 1,
                                "id": 3,
                                "order": 3
                            },
                            {
                                "children": [],
                                "depth": 1,
                                "id": 4,
                                "order": 4
                            }
                        ],
                        "depth": 0,
                        "id": 0,
                        "order": 0
                    }
                ],
                "depth": -1,
                "id": -1,
                "order": -1
            }
        ],
        "tidyTraceNodeCount": 4
    },
    "state_change": {
        "stateChanges": [
            {
                "address": "0x3819f64f282bf135d62168c1e513280daf905e06",
                "erc": "ERC-20",
                "slots": [
                    {
                        "current": "0x000000000000000000000000000000000000000000000e83af8a9eb926a87400",
                        "key": "0x0000000000000000000000000000000000000000000000000000000000000002",
                        "prev": "0x000000000000000000000000000000000000000000000e83aeb799e5f3f48fe0"
                    },
                    {
                        "current": "0x00000000000000000000000000000000000000000000064f896b4081719e3618",
                        "key": "0x592c5cdddcf1d855d0e244bcec265df08c0928ba7876ff47c3430b65ad892657",
                        "prev": "0x00000000000000000000000000000000000000000000064f8906c44da29de1d8"
                    },
                    {
                        "current": "0x000000000000000000000000000000000000000000000000036c18d8b71582a0",
                        "key": "0x1f4d6f72302479f282e6beb5408bc1350e483fe2d395f005a1c7dc6475f5b069",
                        "prev": "0x00000000000000000000000000000000000000000000000002fd90395361f2c0"
                    },
                    {
                        "current": "0x00000000000000000000000000000000000000000000000000000000006401e0",
                        "key": "0x9ab6d67b9a374ba9dd4bc98007a6ace136d511774cc96a046de05f87d5ff2a18",
                        "prev": "0x0000000000000000000000000000000000000000000000000000000000640000"
                    },
                    {
                        "current": "0x000000022b0000000000000000000000000000000000004a665bee40fe729c54",
                        "key": "0x4cb01e6f5bc5cfee86272b5048cc519702c0808a5ebc579852135b705a34ba7f",
                        "prev": "0x000000022b0000000000000000000000000000000000004a6588e96dcbbeb834"
                    }
                ],
                "storageVariables": [
                    {
                        "name": "_totalSupply",
                        "type": "uint256",
                        "value": {
                            "current": "68542303330852462425088",
                            "prev": "68542243934327241215968",
                            "typeTag": 1
                        }
                    },
                    {
                        "name": "_balances",
                        "type": "mapping(address => uint256)",
                        "value": {
                            "pairs": [
                                {
                                    "key": "0x3da7e0ffe478eebd9b1e93d8c24ff5dda9910540",
                                    "value": {
                                        "current": "246599398662177440",
                                        "prev": "215486933070115520",
                                        "typeTag": 1
                                    }
                                },
                                {
                                    "key": "0x9d73ced2e36c89e5d167151809eee218a189f801",
                                    "value": {
                                        "current": "29801393758171331180056",
                                        "prev": "29801365474111702032856",
                                        "typeTag": 1
                                    }
                                }
                            ],
                            "typeTag": 4
                        }
                    },
                    {
                        "name": "shareList",
                        "type": "mapping(uint256 => struct ShareStore)",
                        "value": {
                            "pairs": [
                                {
                                    "key": "288666",
                                    "value": {
                                        "fields": [
                                            {
                                                "name": "mintedDays",
                                                "type": "uint16",
                                                "value": {
                                                    "current": "480",
                                                    "prev": "0",
                                                    "typeTag": 1
                                                }
                                            },
                                            {
                                                "name": "launchBonus",
                                                "type": "uint8",
                                                "value": {
                                                    "current": "100",
                                                    "prev": "100",
                                                    "typeTag": 1
                                                }
                                            },
                                            {
                                                "name": "loanStart",
                                                "type": "uint16",
                                                "value": {
                                                    "current": "0",
                                                    "prev": "0",
                                                    "typeTag": 1
                                                }
                                            },
                                            {
                                                "name": "loanedDays",
                                                "type": "uint16",
                                                "value": {
                                                    "current": "0",
                                                    "prev": "0",
                                                    "typeTag": 1
                                                }
                                            },
                                            {
                                                "name": "interestRate",
                                                "type": "uint32",
                                                "value": {
                                                    "current": "0",
                                                    "prev": "0",
                                                    "typeTag": 1
                                                }
                                            },
                                            {
                                                "name": "paymentsMade",
                                                "type": "uint8",
                                                "value": {
                                                    "current": "0",
                                                    "prev": "0",
                                                    "typeTag": 1
                                                }
                                            },
                                            {
                                                "name": "isLoaned",
                                                "type": "bool",
                                                "value": {
                                                    "current": "false",
                                                    "prev": "false",
                                                    "typeTag": 1
                                                }
                                            }
                                        ],
                                        "typeTag": 3
                                    }
                                }
                            ],
                            "typeTag": 4
                        }
                    },
                    {
                        "name": "dailyDataList",
                        "type": "mapping(uint256 => struct Hedron.DailyDataStore)",
                        "value": {
                            "pairs": [
                                {
                                    "key": "20",
                                    "value": {
                                        "fields": [
                                            {
                                                "name": "dayMintedTotal",
                                                "type": "uint72",
                                                "value": {
                                                    "current": "1372434812232170380372",
                                                    "prev": "1372375415706949171252",
                                                    "typeTag": 1
                                                }
                                            },
                                            {
                                                "name": "dayLoanedTotal",
                                                "type": "uint72",
                                                "value": {
                                                    "current": "0",
                                                    "prev": "0",
                                                    "typeTag": 1
                                                }
                                            },
                                            {
                                                "name": "dayBurntTotal",
                                                "type": "uint72",
                                                "value": {
                                                    "current": "0",
                                                    "prev": "0",
                                                    "typeTag": 1
                                                }
                                            },
                                            {
                                                "name": "dayInterestRate",
                                                "type": "uint32",
                                                "value": {
                                                    "current": "555",
                                                    "prev": "555",
                                                    "typeTag": 1
                                                }
                                            },
                                            {
                                                "name": "dayMintMultiplier",
                                                "type": "uint8",
                                                "value": {
                                                    "current": "0",
                                                    "prev": "0",
                                                    "typeTag": 1
                                                }
                                            }
                                        ],
                                        "typeTag": 3
                                    }
                                }
                            ],
                            "typeTag": 4
                        }
                    }
                ]
            }
        ]
    }
}