{
    "balance_change": {
        "balanceChanges": []
    },
    "profile": {
        "basic_info": {
            "baseFee": "",
            "blockNumber": 4273634,
            "callData": "0x0a19b14a00000000000000000000000000000000000000000000000000000000000000000000000000000000000000000000000000000000000000008528580c13548600000000000000000000000000d26114cd6ee289accf82350c8d8487fedb8a0c0700000000000000000000000000000000000000000000000de39c2732b89fc0000000000000000000000000000000000000000000000000000000000000415ce90000000000000000000000000000000000000000000000000000000031f896c6000000000000000000000000bd11a3bae9ea4473053ad48d83e887e4bae2c3cf000000000000000000000000000000000000000000000000000000000000001bafda98e40186259821057a0ac58a8153f8477e70c2c846b3e5826b3c8c11eb1701281a9a00132aaebc8f07fc08c1875ff83876e01894bb5c8fe282a912b5949e000000000000000000000000000000000000000000000000476b28869848c735",
            "debugEnable": true,
            "errorInfo": "",
            "eventCount": 1,
            "feeRecipient": "0xb2930b35844a230f00e51431acae96fe543a0347",
            "formatValue": "0",
            "gasLimit": 250000,
            "gasPrice": "4",
            "gasUsed": 93242,
            "intTxnCount": 2,
            "internalRevert": false,
            "internalRevertMessage": "",
            "isContractCreation": false,
            "isFlashloan": false,
            "maxFee": "",
            "nonce": 907,
            "overwritedBlockNumber": -1,
            "priorityFee": "",
            "receiver": "0x8d12a197cb00d4747a1fe03395095ce2a5cc6819",
            "revertMessage": "",
            "sender": "0x956947e9392f52f3dcfdbc41465a78c592411fe9",
            "simulationEnable": true,
            "sourceTxnHash": "0x8c831ec8f55fef3779ad113501a247c5d3f8fa4a748fd2b63ae1cf921c54a166",
            "status": true,
            "timestamp": "2017-09-14T16:17:11Z",
            "transactionFee": "0.000372968",
            "txnHash": "0x8c831ec8f55fef3779ad113501a247c5d3f8fa4a748fd2b63ae1cf921c54a166",
            "txnIndex": 148,
            "type": 0,
            "value": "0"
        },
        "fund_flow": [],
        "token_infos": [
            {
                "address": "0xc02aaa39b223fe8d0a0e5c4f27ead9083c756cc2",
                "decimals": 18
            },
            {
                "address": "0xeeeeeeeeeeeeeeeeeeeeeeeeeeeeeeeeeeeeeeee",
                "decimals": 18
            }
        ]
    },
    "address_label": {
        "labels": [
            {
                "address": "0x0000000000000000000000000000000000000000",
                "label": "Null Address"
            },
            {
                "address": "0x0000000000000000000000000000000000000001",
                "label": "Precompiled"
            },
            {
                "address": "0x0000000000000000000000000000000000000003",
                "label": "Precompiled"
            },
            {
                "address": "0x0000000000000000000000000000000000000004",
                "label": "Precompiled"
            },
            {
                "address": "0xeeeeeeeeeeeeeeeeeeeeeeeeeeeeeeeeeeeeeeee",
                "label": "Ether"
            },
            {
                "address": "0x8d12a197cb00d4747a1fe03395095ce2a5cc6819",
                "label": "EtherDelta"
            },
            {
                "address": "0xd26114cd6ee289accf82350c8d8487fedb8a0c07",
                "label": "OMG Network: OMG Token"
            },
            {
                "address": "0x0000000000000000000000000000000000000002",
                "label": "Precompiled"
            }
        ]
    },
    "trace": {
        "accountLabels": null,
        "dataMap": {
            "-1": {
                "invocation": {
                    "address": "0x956947e9392f52f3dcfdbc41465a78c592411fe9",
                    "callData": "",
                    "decodedMethod": null,
                    "errorInfo": "",
                    "fromAddress": "",
                    "gasUsed": 0,
                    "id": -1,
                    "methodDecoded": false,
                    "operation": "",
                    "output": "",
                    "revert": false,
                    "revertMessage": "",
                    "selector": "",
                    "status": false,
                    "value": ""
                },
                "nodeType": 0
            },
            "0": {
                "invocation": {
                    "address": "0x8d12a197cb00d4747a1fe03395095ce2a5cc6819",
                    "callData": "0x00000000000000000000000000000000000000000000000000000000000000000000000000000000000000000000000000000000000000008528580c13548600000000000000000000000000d26114cd6ee289accf82350c8d8487fedb8a0c0700000000000000000000000000000000000000000000000de39c2732b89fc0000000000000000000000000000000000000000000000000000000000000415ce90000000000000000000000000000000000000000000000000000000031f896c6000000000000000000000000bd11a3bae9ea4473053ad48d83e887e4bae2c3cf000000000000000000000000000000000000000000000000000000000000001bafda98e40186259821057a0ac58a8153f8477e70c2c846b3e5826b3c8c11eb1701281a9a00132aaebc8f07fc08c1875ff83876e01894bb5c8fe282a912b5949e000000000000000000000000000000000000000000000000476b28869848c735",
                    "decodedMethod": {
                        "callParams": [
                            {
                                "name": "tokenGet",
                                "type": "address",
                                "value": "0x0000000000000000000000000000000000000000"
                            },
                            {
                                "name": "amountGet",
                                "type": "uint256",
                                "value": "9,595,015,815,000,000,000"
                            },
                            {
                                "name": "tokenGive",
                                "type": "address",
                                "value": "0xd26114cd6ee289accf82350c8d8487fedb8a0c07"
                            },
                            {
                                "name": "amountGive",
                                "type": "uint256",
                                "value": "256,208,700,000,000,000,000"
                            },
                            {
                                "name": "expires",
                                "type": "uint256",
                                "value": "4,283,625"
                            },
                            {
                                "name": "nonce",
                                "type": "uint256",
                                "value": "838,375,110"
                            },
                            {
                                "name": "user",
                                "type": "address",
                                "value": "0xbd11a3bae9ea4473053ad48d83e887e4bae2c3cf"
                            },
                            {
                                "name": "v",
                                "type": "uint8",
                                "value": "27"
                            },
                            {
                                "name": "r",
                                "type": "bytes32",
                                "value": "0xafda98e40186259821057a0ac58a8153f8477e70c2c846b3e5826b3c8c11eb17"
                            },
                            {
                                "name": "s",
                                "type": "bytes32",
                                "value": "0x01281a9a00132aaebc8f07fc08c1875ff83876e01894bb5c8fe282a912b5949e"
                            },
                            {
                                "name": "amount",
                                "type": "uint256",
                                "value": "5,146,251,557,746,558,773"
                            }
                        ],
                        "constructorArguments": "",
                        "name": "trade",
                        "returnParams": [],
                        "signature": "trade(address,uint256,address,uint256,uint256,uint256,address,uint8,bytes32,bytes32,uint256)"
                    },
                    "errorInfo": "",
                    "fromAddress": "0x956947e9392f52f3dcfdbc41465a78c592411fe9",
                    "gasUsed": 93242,
                    "id": 0,
                    "methodDecoded": true,
                    "operation": "CALL",
                    "output": "",
                    "revert": false,
                    "revertMessage": "",
                    "selector": "0x0a19b14a",
                    "status": true,
                    "value": "0"
                },
                "nodeType": 0
            },
            "1": {
                "invocation": {
                    "address": "0x0000000000000000000000000000000000000002",
                    "callData": "0xcb00d4747a1fe03395095ce2a5cc681900000000000000000000000000000000000000000000000000000000000000000000000000000000000000008528580c13548600d26114cd6ee289accf82350c8d8487fedb8a0c0700000000000000000000000000000000000000000000000de39c2732b89fc0000000000000000000000000000000000000000000000000000000000000415ce90000000000000000000000000000000000000000000000000000000031f896c6",
                    "decodedMethod": {
                        "callParams": [
                            {
                                "name": "data",
                                "type": "bytes",
                                "value": "0x8d12a197cb00d4747a1fe03395095ce2a5cc681900000000000000000000000000000000000000000000000000000000000000000000000000000000000000008528580c13548600d26114cd6ee289accf82350c8d8487fedb8a0c0700000000000000000000000000000000000000000000000de39c2732b89fc0000000000000000000000000000000000000000000000000000000000000415ce90000000000000000000000000000000000000000000000000000000031f896c6"
                            }
                        ],
                        "constructorArguments": "",
                        "name": "sha256hash",
                        "returnParams": [
                            {
                                "name": "hash",
                                "type": "bytes32",
                                "value": "0xf834db3a79bf7364f880adce4564dedb09e26d14e7f4f3416a7fe9a693a80bfc"
                            }
                        ],
                        "signature": "sha256hash(bytes)"
                    },
                    "errorInfo": "",
                    "fromAddress": "0x8d12a197cb00d4747a1fe03395095ce2a5cc6819",
                    "gasUsed": 132,
                    "id": 1,
                    "methodDecoded": true,
                    "operation": "CALL",
                    "output": "0xf834db3a79bf7364f880adce4564dedb09e26d14e7f4f3416a7fe9a693a80bfc",
                    "revert": false,
                    "revertMessage": "",
                    "selector": "0x8d12a197",
                    "status": true,
                    "value": "0"
                },
                "nodeType": 0
            },
            "2": {
                "invocation": {
                    "address": "0x0000000000000000000000000000000000000001",
                    "callData": "0x1cb6cc829a1a607f1478b8eb64ece7198dc78ad08c689cb363ac1a1c000000000000000000000000000000000000000000000000000000000000001bafda98e40186259821057a0ac58a8153f8477e70c2c846b3e5826b3c8c11eb1701281a9a00132aaebc8f07fc08c1875ff83876e01894bb5c8fe282a912b5949e",
                    "decodedMethod": {
                        "callParams": [
                            {
                                "name": "hash",
                                "type": "bytes32",
                                "value": "0xaa25b8701cb6cc829a1a607f1478b8eb64ece7198dc78ad08c689cb363ac1a1c"
                            },
                            {
                                "name": "v",
                                "type": "uint256",
                                "value": "27"
                            },
                            {
                                "name": "r",
                                "type": "bytes32",
                                "value": "0xafda98e40186259821057a0ac58a8153f8477e70c2c846b3e5826b3c8c11eb17"
                            },
                            {
                                "name": "s",
                                "type": "bytes32",
                                "value": "0x01281a9a00132aaebc8f07fc08c1875ff83876e01894bb5c8fe282a912b5949e"
                            }
                        ],
                        "constructorArguments": "",
                        "name": "ecrecover",
                        "returnParams": [
                            {
                                "name": "",
                                "type": "address",
                                "value": "0xbd11a3bae9ea4473053ad48d83e887e4bae2c3cf"
                            }
                        ],
                        "signature": "ecrecover(bytes32,uint256,bytes32,bytes32)"
                    },
                    "errorInfo": "",
                    "fromAddress": "0x8d12a197cb00d4747a1fe03395095ce2a5cc6819",
                    "gasUsed": 3000,
                    "id": 2,
                    "methodDecoded": true,
                    "operation": "CALL",
                    "output": "0x000000000000000000000000bd11a3bae9ea4473053ad48d83e887e4bae2c3cf",
                    "revert": false,
                    "revertMessage": "",
                    "selector": "0xaa25b870",
                    "status": true,
                    "value": "0"
                },
                "nodeType": 0
            },
            "3": {
                "event": {
                    "contract": "0x8d12a197cb00d4747a1fe03395095ce2a5cc6819",
                    "decodedLog": {
                        "name": "Trade",
                        "params": [
                            {
                                "name": "tokenGet",
                                "type": "address",
                                "value": "0x0000000000000000000000000000000000000000"
                            },
                            {
                                "name": "amountGet",
                                "type": "uint256",
                                "value": "5,146,251,557,746,558,773"
                            },
                            {
                                "name": "tokenGive",
                                "type": "address",
                                "value": "0xd26114cd6ee289accf82350c8d8487fedb8a0c07"
                            },
                            {
                                "name": "amountGive",
                                "type": "uint256",
                                "value": "137,416,597,002,578,338,397"
                            },
                            {
                                "name": "get",
                                "type": "address",
                                "value": "0xbd11a3bae9ea4473053ad48d83e887e4bae2c3cf"
                            },
                            {
                                "name": "give",
                                "type": "address",
                                "value": "0x956947e9392f52f3dcfdbc41465a78c592411fe9"
                            }
                        ],
                        "signature": "Trade(address,uint256,address,uint256,address,address)"
                    },
                    "id": 3,
                    "logData": "0x0000000000000000000000000000000000000000000000000000000000000000000000000000000000000000000000000000000000000000476b28869848c735000000000000000000000000d26114cd6ee289accf82350c8d8487fedb8a0c070000000000000000000000000000000000000000000000077309d2e8d5b0a25d000000000000000000000000bd11a3bae9ea4473053ad48d83e887e4bae2c3cf000000000000000000000000956947e9392f52f3dcfdbc41465a78c592411fe9",
                    "logDecoded": true,
                    "operation": "EVENT",
                    "revert": false,
                    "status": true,
                    "topics": [
                        "0x6effdda786735d5033bfad5f53e5131abcced9e52be6c507b62d639685fbed6d"
                    ]
                },
                "nodeType": 1
            }
        },
        "gasFlame": [
            {
                "children": [
                    {
                        "children": [
                            {
                                "children": [],
                                "depth": 0,
                                "name": "Initial Gas",
                                "value": 31256
                            },
                            {
                                "children": [
                                    {
                                        "children": [],
                                        "depth": 1,
                                        "name": "sha256hash",
                                        "value": 132
                                    },
                                    {
                                        "children": [],
                                        "depth": 1,
                                        "name": "ecrecover",
                                        "value": 3000
                                    }
                                ],
                                "depth": 0,
                                "name": "Executed Gas",
                                "value": 61986
                            }
                        ],
                        "depth": -1,
                        "name": "Actual Gas Used",
                        "value": 93242
                    },
                    {
                        "children": [],
                        "depth": -1,
                        "name": "Refunded Gas",
                        "value": 0
                    }
                ],
                "depth": -2,
                "name": "Total Gas",
                "value": 93242
            }
        ],
        "isConfirmed": true,
        "mainTrace": [
            {
                "children": [
                    {
                        "children": [
                            {
                                "children": [],
                                "depth": 1,
                                "id": 1,
                                "order": 1
                            },
                            {
                                "children": [],
                                "depth": 1,
                                "id": 2,
                                "order": 2
                            },
                            {
                                "children": [],
                                "depth": 1,
                                "id": 3,
                                "order": 3
                            }
                        ],
                        "depth": 0,
                        "id": 0,
                        "order": 0
                    }
                ],
                "depth": -1,
                "id": -1,
                "order": -1
            }
        ],
        "mainTraceNodeCount": 4,
        "parentIdMap": {
            "0": -1,
            "1": 0,
            "2": 0,
            "3": 0
        },
        "tidyTrace": [
            {
                "children": [
                    {
                        "children": [
                            {
                                "children": [],
                                "depth": 1,
                                "id": 1,
                                "order": 1
                            },
                            {
                                "children": [],
                                "depth": 1,
                                "id": 2,
                                "order": 2
                            },
                            {
                                "children": [],
                                "depth": 1,
                                "id": 3,
                                "order": 3
                            }
                        ],
                        "depth": 0,
                        "id": 0,
                        "order": 0
                    }
                ],
                "depth": -1,
                "id": -1,
                "order": -1
            }
        ],
        "tidyTraceNodeCount": 4
    },
    "state_change": {
        "stateChanges": [
            {
                "address": "0x8d12a197cb00d4747a1fe03395095ce2a5cc6819",
                "erc": "",
                "slots": [
                    {
                        "current": "0x000000000000000000000000000000000000000000000007730ac9e4f5b94cfd",
                        "key": "0xae1d6a94526a6b8fa5d4f4e734bde549117821e39715b508fc5d3d082c0a4926",
                        "prev": "0x0000000000000000000000000000000000000000000000000000f6fc2008aaa0"
                    },
                    {
                        "current": "0x000000000000000000000000000000000000000000000000476b28869848c735",
                        "key": "0x6e5b56d3524eac3c6b1cba504758fc02eb54c1d594693f54f2fe3f455b54f929",
                        "prev": "0x0000000000000000000000000000000000000000000000000000000000000000"
                    },
                    {
                        "current": "0x0000000000000000000000000000000000000000000000000001d40c819a38c1",
                        "key": "0xa0578ae687e52c4bbe57333e31948da93bcfd05364e7bde12c82ef52256b88c7",
                        "prev": "0x00000000000000000000000000000000000000000000000047a3d60a49f5a672"
                    },
                    {
                        "current": "0x000000000000000000000000000000000000000000000000476baa6f8fc3e801",
                        "key": "0xc6ba48ef697809103421f07a0e1fee28b728dc5f3ffb744a6230324b2fdd6c1d",
                        "prev": "0x000000000000000000000000000000000000000000000000000081e8f77b20cc"
                    },
                    {
                        "current": "0x0000000000000000000000000000000000000000000000034f57f077ac18bbb8",
                        "key": "0x9db71ea29ae27159ae6b0bc7608a91ca5e83d8e7e559f64559591e0344fb950e",
                        "prev": "0x0000000000000000000000000000000000000000000000034f2117007c06153c"
                    },
                    {
                        "current": "0x000000000000000000000000000000000000000000000006709254a33ecc065b",
                        "key": "0xc57a0acb20e10cf3fbe72fdb50e5d3adb10ef194683fb1f896f00cd24658bcb5",
                        "prev": "0x00000000000000000000000000000000000000000000000de39c278c147ca8b8"
                    }
                ],
                "storageVariables": []
            }
        ]
    }
}