{
    "balance_change": {
        "balanceChanges": [
            {
                "account": "0x677556291f9c2a97516d5707174fb8d05ad54f96",
                "assets": [
                    {
                        "address": "0xeeeeeeeeeeeeeeeeeeeeeeeeeeeeeeeeeeeeeeee",
                        "amount": "0.2",
                        "iconUrl": "https://assets.blocksec.com/image/1663669189317-3.png",
                        "isERC1155": false,
                        "isERC721": false,
                        "sign": false,
                        "value": ""
                    }
                ]
            },
            {
                "account": "0x24a9c04da2ee50f4af66dc726650cada342ab4a5",
                "assets": [
                    {
                        "address": "0xeeeeeeeeeeeeeeeeeeeeeeeeeeeeeeeeeeeeeeee",
                        "amount": "0.2",
                        "iconUrl": "https://assets.blocksec.com/image/1663669189317-3.png",
                        "isERC1155": false,
                        "isERC721": false,
                        "sign": true,
                        "value": ""
                    }
                ]
            }
        ]
    },
    "profile": {
        "basic_info": {
            "baseFee": "",
            "blockNumber": 10335188,
            "callData": "0xbe389d5700000000000000000000000000000000000000000000000000000000000000010000000000000000000000000000000000000000000000000000000000000004",
            "debugEnable": true,
            "errorInfo": "",
            "eventCount": 2,
            "feeRecipient": "0x5a0b54d5dc17e0aadc383d2db43b0a0d3e029c4c",
            "formatValue": "0.2",
            "gasLimit": 166770,
            "gasPrice": "46.2",
            "gasUsed": 128222,
            "intTxnCount": 1,
            "internalRevert": false,
            "internalRevertMessage": "",
            "isContractCreation": false,
            "isFlashloan": false,
            "maxFee": "",
            "nonce": 8,
            "overwritedBlockNumber": -1,
            "priorityFee": "",
            "receiver": "0x5acc84a3e955bdd76467d3348077d003f00ffb97",
            "revertMessage": "",
            "sender": "0x677556291f9c2a97516d5707174fb8d05ad54f96",
            "simulationEnable": true,
            "sourceTxnHash": "0x8c201a0bde2adf3f7606d62c0a9088e43721db8eece97a9aa9d6b0e01a913aeb",
            "status": true,
            "timestamp": "2020-06-25T13:32:23Z",
            "transactionFee": "0.0059238564",
            "txnHash": "0x8c201a0bde2adf3f7606d62c0a9088e43721db8eece97a9aa9d6b0e01a913aeb",
            "txnIndex": 17,
            "type": 0,
            "value": "200000000000000000"
        },
        "fund_flow": [
            {
                "amount": "0.2",
                "from": "0x677556291f9c2a97516d5707174fb8d05ad54f96",
                "id": 1,
                "isERC1155": false,
                "isERC721": false,
                "isReverted": false,
                "order": 1,
                "to": "0x5acc84a3e955bdd76467d3348077d003f00ffb97",
                "token": "0xeeeeeeeeeeeeeeeeeeeeeeeeeeeeeeeeeeeeeeee"
            },
            {
                "amount": "0.2",
                "from": "0x5acc84a3e955bdd76467d3348077d003f00ffb97",
                "id": 2,
                "isERC1155": false,
                "isERC721": false,
                "isReverted": false,
                "order": 2,
                "to": "0x24a9c04da2ee50f4af66dc726650cada342ab4a5",
                "token": "0xeeeeeeeeeeeeeeeeeeeeeeeeeeeeeeeeeeeeeeee"
            }
        ],
        "token_infos": [
            {
                "address": "0xc02aaa39b223fe8d0a0e5c4f27ead9083c756cc2",
                "decimals": 18
            },
            {
                "address": "0xeeeeeeeeeeeeeeeeeeeeeeeeeeeeeeeeeeeeeeee",
                "decimals": 18
            }
        ]
    },
    "address_label": {
        "labels": [
            {
                "address": "0x0000000000000000000000000000000000000001",
                "label": "Precompiled"
            },
            {
                "address": "0x0000000000000000000000000000000000000002",
                "label": "Precompiled"
            },
            {
                "address": "0x0000000000000000000000000000000000000003",
                "label": "Precompiled"
            },
            {
                "address": "0x0000000000000000000000000000000000000004",
                "label": "Precompiled"
            },
            {
                "address": "0xeeeeeeeeeeeeeeeeeeeeeeeeeeeeeeeeeeeeeeee",
                "label": "Ether"
            },
            {
                "address": "0x5acc84a3e955bdd76467d3348077d003f00ffb97",
                "label": "Forsage.io"
            }
        ]
    },
    "trace": {
        "accountLabels": null,
        "dataMap": {
            "-1": {
                "invocation": {
                    "address": "0x677556291f9c2a97516d5707174fb8d05ad54f96",
                    "callData": "",
                    "decodedMethod": null,
                    "errorInfo": "",
                    "fromAddress": "",
                    "gasUsed": 0,
                    "id": -1,
                    "methodDecoded": false,
                    "operation": "",
                    "output": "",
                    "revert": false,
                    "revertMessage": "",
                    "selector": "",
                    "status": false,
                    "value": ""
                },
                "nodeType": 0
            },
            "0": {
                "invocation": {
                    "address": "0x5acc84a3e955bdd76467d3348077d003f00ffb97",
                    "callData": "0x00000000000000000000000000000000000000000000000000000000000000010000000000000000000000000000000000000000000000000000000000000004",
                    "decodedMethod": {
                        "callParams": [
                            {
                                "name": "matrix",
                                "type": "uint8",
                                "value": "1"
                            },
                            {
                                "name": "level",
                                "type": "uint8",
                                "value": "4"
                            }
                        ],
                        "constructorArguments": "",
                        "name": "buyNewLevel",
                        "returnParams": [],
                        "signature": "buyNewLevel(uint8,uint8)"
                    },
                    "errorInfo": "",
                    "fromAddress": "0x677556291f9c2a97516d5707174fb8d05ad54f96",
                    "gasUsed": 128222,
                    "id": 0,
                    "methodDecoded": true,
                    "operation": "CALL",
                    "output": "",
                    "revert": false,
                    "revertMessage": "",
                    "selector": "0xbe389d57",
                    "status": true,
                    "value": "0.2"
                },
                "nodeType": 0
            },
            "1": {
                "event": {
                    "contract": "0x5acc84a3e955bdd76467d3348077d003f00ffb97",
                    "decodedLog": {
                        "name": "NewUserPlace",
                        "params": [
                            {
                                "name": "user",
                                "type": "address",
                                "value": "0x677556291f9c2a97516d5707174fb8d05ad54f96"
                            },
                            {
                                "name": "referrer",
                                "type": "address",
                                "value": "0x24a9c04da2ee50f4af66dc726650cada342ab4a5"
                            },
                            {
                                "name": "matrix",
                                "type": "uint8",
                                "value": "1"
                            },
                            {
                                "name": "level",
                                "type": "uint8",
                                "value": "4"
                            },
                            {
                                "name": "place",
                                "type": "uint8",
                                "value": "1"
                            }
                        ],
                        "signature": "NewUserPlace(address,address,uint8,uint8,uint8)"
                    },
                    "id": 1,
                    "logData": "0x000000000000000000000000000000000000000000000000000000000000000100000000000000000000000000000000000000000000000000000000000000040000000000000000000000000000000000000000000000000000000000000001",
                    "logDecoded": true,
                    "operation": "EVENT",
                    "revert": false,
                    "status": true,
                    "topics": [
                        "0x68062c5925c4317adf3a7095478d28b33fd8b41458bc7620b61bc46bf1b24d82",
                        "0x000000000000000000000000677556291f9c2a97516d5707174fb8d05ad54f96",
                        "0x00000000000000000000000024a9c04da2ee50f4af66dc726650cada342ab4a5"
                    ]
                },
                "nodeType": 1
            },
            "2": {
                "invocation": {
                    "address": "0x24a9c04da2ee50f4af66dc726650cada342ab4a5",
                    "callData": "0x",
                    "decodedMethod": null,
                    "errorInfo": "",
                    "fromAddress": "0x5acc84a3e955bdd76467d3348077d003f00ffb97",
                    "gasUsed": 0,
                    "id": 2,
                    "methodDecoded": false,
                    "operation": "CALL",
                    "output": "",
                    "revert": false,
                    "revertMessage": "",
                    "selector": "fallback",
                    "status": true,
                    "value": "0.2"
                },
                "nodeType": 0
            },
            "3": {
                "event": {
                    "contract": "0x5acc84a3e955bdd76467d3348077d003f00ffb97",
                    "decodedLog": {
                        "name": "Upgrade",
                        "params": [
                            {
                                "name": "user",
                                "type": "address",
                                "value": "0x677556291f9c2a97516d5707174fb8d05ad54f96"
                            },
                            {
                                "name": "referrer",
                                "type": "address",
                                "value": "0x24a9c04da2ee50f4af66dc726650cada342ab4a5"
                            },
                            {
                                "name": "matrix",
                                "type": "uint8",
                                "value": "1"
                            },
                            {
                                "name": "level",
                                "type": "uint8",
                                "value": "4"
                            }
                        ],
                        "signature": "Upgrade(address,address,uint8,uint8)"
                    },
                    "id": 3,
                    "logData": "0x00000000000000000000000000000000000000000000000000000000000000010000000000000000000000000000000000000000000000000000000000000004",
                    "logDecoded": true,
                    "operation": "EVENT",
                    "revert": false,
                    "status": true,
                    "topics": [
                        "0x18a92df19fd94d6cfff209966673a5ca05a1c8e2bb68e097fce2bdc2ed811119",
                        "0x000000000000000000000000677556291f9c2a97516d5707174fb8d05ad54f96",
                        "0x00000000000000000000000024a9c04da2ee50f4af66dc726650cada342ab4a5"
                    ]
                },
                "nodeType": 1
            }
        },
        "gasFlame": [
            {
                "children": [
                    {
                        "children": [
                            {
                                "children": [],
                                "depth": 0,
                                "name": "Initial Gas",
                                "value": 21344
                            },
                            {
                                "children": [
                                    {
                                        "children": [],
                                        "depth": 1,
                                        "name": "fallback",
                                        "value": 0
                                    }
                                ],
                                "depth": 0,
                                "name": "Executed Gas",
                                "value": 106878
                            }
                        ],
                        "depth": -1,
                        "name": "Actual Gas Used",
                        "value": 128222
                    },
                    {
                        "children": [],
                        "depth": -1,
                        "name": "Refunded Gas",
                        "value": 0
                    }
                ],
                "depth": -2,
                "name": "Total Gas",
                "value": 128222
            }
        ],
        "isConfirmed": true,
        "mainTrace": [
            {
                "children": [
                    {
                        "children": [
                            {
                                "children": [],
                                "depth": 1,
                                "id": 1,
                                "order": 1
                            },
                            {
                                "children": [],
                                "depth": 1,
                                "id": 2,
                                "order": 2
                            },
                            {
                                "children": [],
                                "depth": 1,
                                "id": 3,
                                "order": 3
                            }
                        ],
                        "depth": 0,
                        "id": 0,
                        "order": 0
                    }
                ],
                "depth": -1,
                "id": -1,
                "order": -1
            }
        ],
        "mainTraceNodeCount": 4,
        "parentIdMap": {
            "0": -1,
            "1": 0,
            "2": 0,
            "3": 0
        },
        "tidyTrace": [
            {
                "children": [
                    {
                        "children": [
                            {
                                "children": [],
                                "depth": 1,
                                "id": 1,
                                "order": 1
                            },
                            {
                                "children": [],
                                "depth": 1,
                                "id": 2,
                                "order": 2
                            },
                            {
                                "children": [],
                                "depth": 1,
                                "id": 3,
                                "order": 3
                            }
                        ],
                        "depth": 0,
                        "id": 0,
                        "order": 0
                    }
                ],
                "depth": -1,
                "id": -1,
                "order": -1
            }
        ],
        "tidyTraceNodeCount": 4
    },
    "state_change": {
        "stateChanges": [
            {
                "address": "0x5acc84a3e955bdd76467d3348077d003f00ffb97",
                "erc": "",
                "slots": [
                    {
                        "current": "0x00000000000000000000000024a9c04da2ee50f4af66dc726650cada342ab4a5",
                        "key": "0x0dca11e970b4d5c96ee41670cba274c02e44995c1e858bfe5734c2414433bdd1",
                        "prev": "0x0000000000000000000000000000000000000000000000000000000000000000"
                    },
                    {
                        "current": "0x0000000000000000000000000000000000000000000000000000000000000001",
                        "key": "0x55e2ad50b68f72098237740f7295661d0d41e406ba23019588bb87b47cdcc629",
                        "prev": "0x0000000000000000000000000000000000000000000000000000000000000000"
                    },
                    {
                        "current": "0x0000000000000000000000000000000000000000000000000000000000000001",
                        "key": "0xb40e21d5f21565a8a3352a483d87e392202d28880451431160769e7ddb0bc878",
                        "prev": "0x0000000000000000000000000000000000000000000000000000000000000000"
                    },
                    {
                        "current": "0x000000000000000000000000677556291f9c2a97516d5707174fb8d05ad54f96",
                        "key": "0x19f8e7b1966eb43c45919731983802a9b4e73db6364d83222ad52d799382e452",
                        "prev": "0x0000000000000000000000000000000000000000000000000000000000000000"
                    }
                ],
                "storageVariables": [
                    {
                        "name": "users",
                        "type": "mapping(address => struct SmartMatrixForsage.User)",
                        "value": {
                            "pairs": [
                                {
                                    "key": "0x24a9c04da2ee50f4af66dc726650cada342ab4a5",
                                    "value": {
                                        "fields": [
                                            {
                                                "name": "x3Matrix",
                                                "type": "mapping(uint8 => struct SmartMatrixForsage.X3)",
                                                "value": {
                                                    "pairs": [
                                                        {
                                                            "key": "4",
                                                            "value": {
                                                                "fields": [
                                                                    {
                                                                        "name": "referrals",
                                                                        "type": "address[]",
                                                                        "value": {
                                                                            "elemType": "address",
                                                                            "elems": [
                                                                                {
                                                                                    "index": 0,
                                                                                    "value": {
                                                                                        "current": "0x677556291f9c2a97516d5707174fb8d05ad54f96",
                                                                                        "prev": "0x0000000000000000000000000000000000000000",
                                                                                        "typeTag": 1
                                                                                    }
                                                                                }
                                                                            ],
                                                                            "typeTag": 2
                                                                        }
                                                                    }
                                                                ],
                                                                "typeTag": 3
                                                            }
                                                        }
                                                    ],
                                                    "typeTag": 4
                                                }
                                            }
                                        ],
                                        "typeTag": 3
                                    }
                                },
                                {
                                    "key": "0x677556291f9c2a97516d5707174fb8d05ad54f96",
                                    "value": {
                                        "fields": [
                                            {
                                                "name": "activeX3Levels",
                                                "type": "mapping(uint8 => bool)",
                                                "value": {
                                                    "pairs": [
                                                        {
                                                            "key": "4",
                                                            "value": {
                                                                "current": "true",
                                                                "prev": "false",
                                                                "typeTag": 1
                                                            }
                                                        }
                                                    ],
                                                    "typeTag": 4
                                                }
                                            },
                                            {
                                                "name": "x3Matrix",
                                                "type": "mapping(uint8 => struct SmartMatrixForsage.X3)",
                                                "value": {
                                                    "pairs": [
                                                        {
                                                            "key": "4",
                                                            "value": {
                                                                "fields": [
                                                                    {
                                                                        "name": "currentReferrer",
                                                                        "type": "address",
                                                                        "value": {
                                                                            "current": "0x24a9c04da2ee50f4af66dc726650cada342ab4a5",
                                                                            "prev": "0x0000000000000000000000000000000000000000",
                                                                            "typeTag": 1
                                                                        }
                                                                    }
                                                                ],
                                                                "typeTag": 3
                                                            }
                                                        }
                                                    ],
                                                    "typeTag": 4
                                                }
                                            }
                                        ],
                                        "typeTag": 3
                                    }
                                }
                            ],
                            "typeTag": 4
                        }
                    }
                ]
            }
        ]
    }
}