{
    "balance_change": {
        "balanceChanges": [
            {
                "account": "0xfbb1b73c4f0bda4f67dca266ce6ef42f520fbb98",
                "assets": [
                    {
                        "address": "0xe2da716381d7e0032cecaa5046b34223fc3f218d",
                        "amount": "202,858",
                        "iconUrl": "",
                        "isERC1155": false,
                        "isERC721": false,
                        "sign": true,
                        "value": ""
                    }
                ]
            },
            {
                "account": "0x54d906177ad959e89d670d70dd0c84690044f3ec",
                "assets": [
                    {
                        "address": "0xe2da716381d7e0032cecaa5046b34223fc3f218d",
                        "amount": "202,858",
                        "iconUrl": "",
                        "isERC1155": false,
                        "isERC721": false,
                        "sign": false,
                        "value": ""
                    }
                ]
            }
        ]
    },
    "profile": {
        "basic_info": {
            "baseFee": "",
            "blockNumber": 12104688,
            "callData": "0x6ea056a9000000000000000000000000e2da716381d7e0032cecaa5046b34223fc3f218d00000000000000000000000000000000000000000000000000000004b920be40",
            "debugEnable": true,
            "errorInfo": "",
            "eventCount": 3,
            "feeRecipient": "0xc8f595e2084db484f8a80109101d58625223b7c9",
            "formatValue": "0",
            "gasLimit": 200000,
            "gasPrice": "174.9",
            "gasUsed": 80833,
            "intTxnCount": 17,
            "internalRevert": false,
            "internalRevertMessage": "",
            "isContractCreation": false,
            "isFlashloan": false,
            "maxFee": "",
            "nonce": 10110016,
            "overwritedBlockNumber": -1,
            "priorityFee": "",
            "receiver": "0x54d906177ad959e89d670d70dd0c84690044f3ec",
            "revertMessage": "",
            "sender": "0xfbb1b73c4f0bda4f67dca266ce6ef42f520fbb98",
            "simulationEnable": true,
            "sourceTxnHash": "0x8c4414f86bd5b577db1c8d4ef20cbaddf2ddb5a7f0e8184fbfef10d6ba8672f9",
            "status": true,
            "timestamp": "2021-03-24T23:50:45Z",
            "transactionFee": "0.0141376917",
            "txnHash": "0x8c4414f86bd5b577db1c8d4ef20cbaddf2ddb5a7f0e8184fbfef10d6ba8672f9",
            "txnIndex": 127,
            "type": 0,
            "value": "0"
        },
        "fund_flow": [
            {
                "amount": "202,858",
                "from": "0x54d906177ad959e89d670d70dd0c84690044f3ec",
                "id": 1,
                "isERC1155": false,
                "isERC721": false,
                "isReverted": false,
                "order": 1,
                "to": "0xfbb1b73c4f0bda4f67dca266ce6ef42f520fbb98",
                "token": "0xe2da716381d7e0032cecaa5046b34223fc3f218d"
            }
        ],
        "token_infos": [
            {
                "address": "0xe2da716381d7e0032cecaa5046b34223fc3f218d",
                "decimals": 5
            },
            {
                "address": "0xeeeeeeeeeeeeeeeeeeeeeeeeeeeeeeeeeeeeeeee",
                "decimals": 18
            },
            {
                "address": "0xc02aaa39b223fe8d0a0e5c4f27ead9083c756cc2",
                "decimals": 18
            }
        ]
    },
    "address_label": {
        "labels": [
            {
                "address": "0xeeeeeeeeeeeeeeeeeeeeeeeeeeeeeeeeeeeeeeee",
                "label": "Ether"
            },
            {
                "address": "0x54d906177ad959e89d670d70dd0c84690044f3ec",
                "label": "BITTREX"
            },
            {
                "address": "0xe2da716381d7e0032cecaa5046b34223fc3f218d",
                "label": "Carbon Utility Token: CUT Token"
            },
            {
                "address": "0xb2233fcec42c588ee71a594d9a25aa695345426c",
                "label": "DefaultSweeper"
            },
            {
                "address": "0x0000000000000000000000000000000000000003",
                "label": "Precompiled"
            },
            {
                "address": "0x0000000000000000000000000000000000000004",
                "label": "Precompiled"
            },
            {
                "address": "0xfbb1b73c4f0bda4f67dca266ce6ef42f520fbb98",
                "label": "Bittrex"
            },
            {
                "address": "0xa3c1e324ca1ce40db73ed6026c4a177f099b5770",
                "label": "Bittrex: Controller"
            },
            {
                "address": "0x6cace0528324a8afc2b157ceba3cdd2a27c4e21f",
                "label": "Bittrex: Wallet Maker"
            },
            {
                "address": "0x0000000000000000000000000000000000000001",
                "label": "Precompiled"
            },
            {
                "address": "0x0000000000000000000000000000000000000002",
                "label": "Precompiled"
            }
        ]
    },
    "trace": {
        "accountLabels": null,
        "dataMap": {
            "-1": {
                "invocation": {
                    "address": "0xfbb1b73c4f0bda4f67dca266ce6ef42f520fbb98",
                    "callData": "",
                    "decodedMethod": null,
                    "errorInfo": "",
                    "fromAddress": "",
                    "gasUsed": 0,
                    "id": -1,
                    "methodDecoded": false,
                    "operation": "",
                    "output": "",
                    "revert": false,
                    "revertMessage": "",
                    "selector": "",
                    "status": false,
                    "value": ""
                },
                "nodeType": 0
            },
            "0": {
                "invocation": {
                    "address": "0x54d906177ad959e89d670d70dd0c84690044f3ec",
                    "callData": "0x000000000000000000000000e2da716381d7e0032cecaa5046b34223fc3f218d00000000000000000000000000000000000000000000000000000004b920be40",
                    "decodedMethod": {
                        "callParams": [
                            {
                                "name": "_token",
                                "type": "address",
                                "value": "0xe2da716381d7e0032cecaa5046b34223fc3f218d"
                            },
                            {
                                "name": "_amount",
                                "type": "uint256",
                                "value": "20,285,800,000"
                            }
                        ],
                        "constructorArguments": "",
                        "name": "sweep",
                        "returnParams": [
                            {
                                "name": "",
                                "type": "bool",
                                "value": true
                            }
                        ],
                        "signature": "sweep(address,uint256)"
                    },
                    "errorInfo": "",
                    "fromAddress": "0xfbb1b73c4f0bda4f67dca266ce6ef42f520fbb98",
                    "gasUsed": 80833,
                    "id": 0,
                    "methodDecoded": true,
                    "operation": "CALL",
                    "output": "0x0000000000000000000000000000000000000000000000000000000000000001",
                    "revert": false,
                    "revertMessage": "",
                    "selector": "0x6ea056a9",
                    "status": true,
                    "value": "0"
                },
                "nodeType": 0
            },
            "1": {
                "invocation": {
                    "address": "0xa3c1e324ca1ce40db73ed6026c4a177f099b5770",
                    "callData": "0x000000000000000000000000e2da716381d7e0032cecaa5046b34223fc3f218d",
                    "decodedMethod": {
                        "callParams": [
                            {
                                "name": "_token",
                                "type": "address",
                                "value": "0xe2da716381d7e0032cecaa5046b34223fc3f218d"
                            }
                        ],
                        "constructorArguments": "",
                        "name": "sweeperOf",
                        "returnParams": [
                            {
                                "name": "",
                                "type": "address",
                                "value": "0xb2233fcec42c588ee71a594d9a25aa695345426c"
                            }
                        ],
                        "signature": "sweeperOf(address)"
                    },
                    "errorInfo": "",
                    "fromAddress": "0x54d906177ad959e89d670d70dd0c84690044f3ec",
                    "gasUsed": 2251,
                    "id": 1,
                    "methodDecoded": true,
                    "operation": "CALL",
                    "output": "0x000000000000000000000000b2233fcec42c588ee71a594d9a25aa695345426c",
                    "revert": false,
                    "revertMessage": "",
                    "selector": "0x3c18d318",
                    "status": true,
                    "value": "0"
                },
                "nodeType": 0
            },
            "10": {
                "invocation": {
                    "address": "0xe2da716381d7e0032cecaa5046b34223fc3f218d",
                    "callData": "0x000000000000000000000000fbb1b73c4f0bda4f67dca266ce6ef42f520fbb9800000000000000000000000000000000000000000000000000000004b920be40",
                    "decodedMethod": {
                        "callParams": [
                            {
                                "name": "recipient",
                                "type": "address",
                                "value": "0xfbb1b73c4f0bda4f67dca266ce6ef42f520fbb98"
                            },
                            {
                                "decimalAvailable": true,
                                "name": "amount",
                                "type": "uint256",
                                "value": "20,285,800,000"
                            }
                        ],
                        "constructorArguments": "",
                        "name": "transfer",
                        "returnParams": [
                            {
                                "name": "",
                                "type": "bool",
                                "value": true
                            }
                        ],
                        "signature": "transfer(address,uint256)"
                    },
                    "errorInfo": "",
                    "fromAddress": "0x54d906177ad959e89d670d70dd0c84690044f3ec",
                    "gasUsed": 36399,
                    "id": 10,
                    "methodDecoded": true,
                    "operation": "CALL",
                    "output": "0x0000000000000000000000000000000000000000000000000000000000000001",
                    "revert": false,
                    "revertMessage": "",
                    "selector": "0xa9059cbb",
                    "status": true,
                    "value": "0"
                },
                "nodeType": 0
            },
            "11": {
                "invocation": {
                    "address": "0x4f49174c37e00387ca68e067f6f800028115eeb5",
                    "callData": "0x00000000000000000000000054d906177ad959e89d670d70dd0c84690044f3ec000000000000000000000000fbb1b73c4f0bda4f67dca266ce6ef42f520fbb9800000000000000000000000000000000000000000000000000000004b920be40",
                    "decodedMethod": {
                        "callParams": [
                            {
                                "name": "_from",
                                "type": "address",
                                "value": "0x54d906177ad959e89d670d70dd0c84690044f3ec"
                            },
                            {
                                "name": "_to",
                                "type": "address",
                                "value": "0xfbb1b73c4f0bda4f67dca266ce6ef42f520fbb98"
                            },
                            {
                                "name": "_wad",
                                "type": "uint256",
                                "value": "20,285,800,000"
                            }
                        ],
                        "constructorArguments": "",
                        "name": "transfer",
                        "returnParams": [],
                        "signature": "transfer(address,address,uint256)"
                    },
                    "errorInfo": "",
                    "fromAddress": "0xe2da716381d7e0032cecaa5046b34223fc3f218d",
                    "gasUsed": 31687,
                    "id": 11,
                    "methodDecoded": true,
                    "operation": "CALL",
                    "output": "0x0000000000000000000000000000000000000000000000000000000000000001",
                    "revert": false,
                    "revertMessage": "",
                    "selector": "0xbeabacc8",
                    "status": true,
                    "value": "0"
                },
                "nodeType": 0
            },
            "12": {
                "invocation": {
                    "address": "0xe0812cb3ee491a86ca17b3d10449f9fbc644b159",
                    "callData": "0x00000000000000000000000054d906177ad959e89d670d70dd0c84690044f3ec",
                    "decodedMethod": {
                        "callParams": [
                            {
                                "name": "",
                                "type": "address",
                                "value": "0x54d906177ad959e89d670d70dd0c84690044f3ec"
                            }
                        ],
                        "constructorArguments": "",
                        "name": "lockedBalance",
                        "returnParams": [
                            {
                                "name": "",
                                "type": "uint256",
                                "value": "0"
                            }
                        ],
                        "signature": "lockedBalance(address)"
                    },
                    "errorInfo": "",
                    "fromAddress": "0x4f49174c37e00387ca68e067f6f800028115eeb5",
                    "gasUsed": 1208,
                    "id": 12,
                    "methodDecoded": true,
                    "operation": "STATICCALL",
                    "output": "0x0000000000000000000000000000000000000000000000000000000000000000",
                    "revert": false,
                    "revertMessage": "",
                    "selector": "0x9ae697bf",
                    "status": true,
                    "value": "0"
                },
                "nodeType": 0
            },
            "13": {
                "invocation": {
                    "address": "0xe0812cb3ee491a86ca17b3d10449f9fbc644b159",
                    "callData": "0x00000000000000000000000054d906177ad959e89d670d70dd0c84690044f3ec",
                    "decodedMethod": null,
                    "errorInfo": "",
                    "fromAddress": "0x4f49174c37e00387ca68e067f6f800028115eeb5",
                    "gasUsed": 1208,
                    "id": 13,
                    "methodDecoded": false,
                    "operation": "STATICCALL",
                    "output": "0x00000000000000000000000000000000000000000000000000000004b920be40",
                    "revert": false,
                    "revertMessage": "",
                    "selector": "0x5b1e3c97",
                    "status": true,
                    "value": "0"
                },
                "nodeType": 0
            },
            "14": {
                "invocation": {
                    "address": "0xe0812cb3ee491a86ca17b3d10449f9fbc644b159",
                    "callData": "0x000000000000000000000000fbb1b73c4f0bda4f67dca266ce6ef42f520fbb98",
                    "decodedMethod": null,
                    "errorInfo": "",
                    "fromAddress": "0x4f49174c37e00387ca68e067f6f800028115eeb5",
                    "gasUsed": 1208,
                    "id": 14,
                    "methodDecoded": false,
                    "operation": "STATICCALL",
                    "output": "0x000000000000000000000000000000000000000000000000000003a8da87a682",
                    "revert": false,
                    "revertMessage": "",
                    "selector": "0x5b1e3c97",
                    "status": true,
                    "value": "0"
                },
                "nodeType": 0
            },
            "15": {
                "invocation": {
                    "address": "0xe0812cb3ee491a86ca17b3d10449f9fbc644b159",
                    "callData": "0x00000000000000000000000054d906177ad959e89d670d70dd0c84690044f3ec0000000000000000000000000000000000000000000000000000000000000000",
                    "decodedMethod": null,
                    "errorInfo": "",
                    "fromAddress": "0x4f49174c37e00387ca68e067f6f800028115eeb5",
                    "gasUsed": 7366,
                    "id": 15,
                    "methodDecoded": false,
                    "operation": "CALL",
                    "output": "",
                    "revert": false,
                    "revertMessage": "",
                    "selector": "0x7e0972c4",
                    "status": true,
                    "value": "0"
                },
                "nodeType": 0
            },
            "16": {
                "invocation": {
                    "address": "0xe0812cb3ee491a86ca17b3d10449f9fbc644b159",
                    "callData": "0x000000000000000000000000fbb1b73c4f0bda4f67dca266ce6ef42f520fbb98000000000000000000000000000000000000000000000000000003ad93a864c2",
                    "decodedMethod": null,
                    "errorInfo": "",
                    "fromAddress": "0x4f49174c37e00387ca68e067f6f800028115eeb5",
                    "gasUsed": 7366,
                    "id": 16,
                    "methodDecoded": false,
                    "operation": "CALL",
                    "output": "",
                    "revert": false,
                    "revertMessage": "",
                    "selector": "0x7e0972c4",
                    "status": true,
                    "value": "0"
                },
                "nodeType": 0
            },
            "17": {
                "event": {
                    "contract": "0x4f49174c37e00387ca68e067f6f800028115eeb5",
                    "decodedLog": {
                        "name": "InternalTransfer",
                        "params": [
                            {
                                "name": "from",
                                "type": "address",
                                "value": "0x54d906177ad959e89d670d70dd0c84690044f3ec"
                            },
                            {
                                "name": "to",
                                "type": "address",
                                "value": "0xfbb1b73c4f0bda4f67dca266ce6ef42f520fbb98"
                            },
                            {
                                "name": "value",
                                "type": "uint256",
                                "value": "20,285,800,000"
                            }
                        ],
                        "signature": "InternalTransfer(address,address,uint256)"
                    },
                    "id": 17,
                    "logData": "0x00000000000000000000000000000000000000000000000000000004b920be40",
                    "logDecoded": true,
                    "operation": "EVENT",
                    "revert": false,
                    "status": true,
                    "topics": [
                        "0xe2080c8fc8d86c864d8dc081fadaebf2be7191086615e786f954420f13ed122a",
                        "0x00000000000000000000000054d906177ad959e89d670d70dd0c84690044f3ec",
                        "0x000000000000000000000000fbb1b73c4f0bda4f67dca266ce6ef42f520fbb98"
                    ]
                },
                "nodeType": 1
            },
            "18": {
                "event": {
                    "contract": "0xe2da716381d7e0032cecaa5046b34223fc3f218d",
                    "decodedLog": {
                        "name": "Transfer",
                        "params": [
                            {
                                "name": "from",
                                "type": "address",
                                "value": "0x54d906177ad959e89d670d70dd0c84690044f3ec"
                            },
                            {
                                "name": "to",
                                "type": "address",
                                "value": "0xfbb1b73c4f0bda4f67dca266ce6ef42f520fbb98"
                            },
                            {
                                "decimalAvailable": true,
                                "name": "value",
                                "type": "uint256",
                                "value": "20,285,800,000"
                            }
                        ],
                        "signature": "Transfer(address,address,uint256)"
                    },
                    "id": 18,
                    "logData": "0x00000000000000000000000000000000000000000000000000000004b920be40",
                    "logDecoded": true,
                    "operation": "EVENT",
                    "revert": false,
                    "status": true,
                    "topics": [
                        "0xddf252ad1be2c89b69c2b068fc378daa952ba7f163c4a11628f55a4df523b3ef",
                        "0x00000000000000000000000054d906177ad959e89d670d70dd0c84690044f3ec",
                        "0x000000000000000000000000fbb1b73c4f0bda4f67dca266ce6ef42f520fbb98"
                    ]
                },
                "nodeType": 1
            },
            "19": {
                "invocation": {
                    "address": "0xa3c1e324ca1ce40db73ed6026c4a177f099b5770",
                    "callData": "0x00000000000000000000000054d906177ad959e89d670d70dd0c84690044f3ec000000000000000000000000fbb1b73c4f0bda4f67dca266ce6ef42f520fbb98000000000000000000000000e2da716381d7e0032cecaa5046b34223fc3f218d00000000000000000000000000000000000000000000000000000004b920be40",
                    "decodedMethod": {
                        "callParams": [
                            {
                                "name": "from",
                                "type": "address",
                                "value": "0x54d906177ad959e89d670d70dd0c84690044f3ec"
                            },
                            {
                                "name": "to",
                                "type": "address",
                                "value": "0xfbb1b73c4f0bda4f67dca266ce6ef42f520fbb98"
                            },
                            {
                                "name": "token",
                                "type": "address",
                                "value": "0xe2da716381d7e0032cecaa5046b34223fc3f218d"
                            },
                            {
                                "name": "amount",
                                "type": "uint256",
                                "value": "20,285,800,000"
                            }
                        ],
                        "constructorArguments": "",
                        "name": "logSweep",
                        "returnParams": [],
                        "signature": "logSweep(address,address,address,uint256)"
                    },
                    "errorInfo": "",
                    "fromAddress": "0x54d906177ad959e89d670d70dd0c84690044f3ec",
                    "gasUsed": 2693,
                    "id": 19,
                    "methodDecoded": true,
                    "operation": "CALL",
                    "output": "",
                    "revert": false,
                    "revertMessage": "",
                    "selector": "0x28090abb",
                    "status": true,
                    "value": "0"
                },
                "nodeType": 0
            },
            "2": {
                "invocation": {
                    "address": "0xb2233fcec42c588ee71a594d9a25aa695345426c",
                    "callData": "0x000000000000000000000000e2da716381d7e0032cecaa5046b34223fc3f218d00000000000000000000000000000000000000000000000000000004b920be40",
                    "decodedMethod": {
                        "callParams": [
                            {
                                "name": "_token",
                                "type": "address",
                                "value": "0xe2da716381d7e0032cecaa5046b34223fc3f218d"
                            },
                            {
                                "name": "_amount",
                                "type": "uint256",
                                "value": "20,285,800,000"
                            }
                        ],
                        "constructorArguments": "",
                        "name": "sweep",
                        "returnParams": [
                            {
                                "name": "",
                                "type": "bool",
                                "value": true
                            }
                        ],
                        "signature": "sweep(address,uint256)"
                    },
                    "errorInfo": "",
                    "fromAddress": "0x54d906177ad959e89d670d70dd0c84690044f3ec",
                    "gasUsed": 68482,
                    "id": 2,
                    "methodDecoded": true,
                    "operation": "DELEGATECALL",
                    "output": "0x0000000000000000000000000000000000000000000000000000000000000001",
                    "revert": false,
                    "revertMessage": "",
                    "selector": "0x6ea056a9",
                    "status": true,
                    "value": "0"
                },
                "nodeType": 0
            },
            "20": {
                "event": {
                    "contract": "0xa3c1e324ca1ce40db73ed6026c4a177f099b5770",
                    "decodedLog": {
                        "name": "LogSweep",
                        "params": [
                            {
                                "name": "from",
                                "type": "address",
                                "value": "0x54d906177ad959e89d670d70dd0c84690044f3ec"
                            },
                            {
                                "name": "to",
                                "type": "address",
                                "value": "0xfbb1b73c4f0bda4f67dca266ce6ef42f520fbb98"
                            },
                            {
                                "name": "token",
                                "type": "address",
                                "value": "0xe2da716381d7e0032cecaa5046b34223fc3f218d"
                            },
                            {
                                "name": "amount",
                                "type": "uint256",
                                "value": "20,285,800,000"
                            }
                        ],
                        "signature": "LogSweep(address,address,address,uint256)"
                    },
                    "id": 20,
                    "logData": "0x00000000000000000000000000000000000000000000000000000004b920be40",
                    "logDecoded": true,
                    "operation": "EVENT",
                    "revert": false,
                    "status": true,
                    "topics": [
                        "0xa64da754fccf55aa65a1f0128a648633fade3884b236e879ee9f64c78df5d5d7",
                        "0x00000000000000000000000054d906177ad959e89d670d70dd0c84690044f3ec",
                        "0x000000000000000000000000fbb1b73c4f0bda4f67dca266ce6ef42f520fbb98",
                        "0x000000000000000000000000e2da716381d7e0032cecaa5046b34223fc3f218d"
                    ]
                },
                "nodeType": 1
            },
            "3": {
                "invocation": {
                    "address": "0xa3c1e324ca1ce40db73ed6026c4a177f099b5770",
                    "callData": "0x",
                    "decodedMethod": {
                        "callParams": [],
                        "constructorArguments": "",
                        "name": "authorizedCaller",
                        "returnParams": [
                            {
                                "name": "",
                                "type": "address",
                                "value": "0x6cace0528324a8afc2b157ceba3cdd2a27c4e21f"
                            }
                        ],
                        "signature": "authorizedCaller()"
                    },
                    "errorInfo": "",
                    "fromAddress": "0x54d906177ad959e89d670d70dd0c84690044f3ec",
                    "gasUsed": 1302,
                    "id": 3,
                    "methodDecoded": true,
                    "operation": "CALL",
                    "output": "0x0000000000000000000000006cace0528324a8afc2b157ceba3cdd2a27c4e21f",
                    "revert": false,
                    "revertMessage": "",
                    "selector": "0x97dc97cb",
                    "status": true,
                    "value": "0"
                },
                "nodeType": 0
            },
            "4": {
                "invocation": {
                    "address": "0xa3c1e324ca1ce40db73ed6026c4a177f099b5770",
                    "callData": "0x",
                    "decodedMethod": {
                        "callParams": [],
                        "constructorArguments": "",
                        "name": "owner",
                        "returnParams": [
                            {
                                "name": "",
                                "type": "address",
                                "value": "0xfbb1b73c4f0bda4f67dca266ce6ef42f520fbb98"
                            }
                        ],
                        "signature": "owner()"
                    },
                    "errorInfo": "",
                    "fromAddress": "0x54d906177ad959e89d670d70dd0c84690044f3ec",
                    "gasUsed": 1280,
                    "id": 4,
                    "methodDecoded": true,
                    "operation": "CALL",
                    "output": "0x000000000000000000000000fbb1b73c4f0bda4f67dca266ce6ef42f520fbb98",
                    "revert": false,
                    "revertMessage": "",
                    "selector": "0x8da5cb5b",
                    "status": true,
                    "value": "0"
                },
                "nodeType": 0
            },
            "5": {
                "invocation": {
                    "address": "0xa3c1e324ca1ce40db73ed6026c4a177f099b5770",
                    "callData": "0x",
                    "decodedMethod": {
                        "callParams": [],
                        "constructorArguments": "",
                        "name": "halted",
                        "returnParams": [
                            {
                                "name": "",
                                "type": "bool",
                                "value": false
                            }
                        ],
                        "signature": "halted()"
                    },
                    "errorInfo": "",
                    "fromAddress": "0x54d906177ad959e89d670d70dd0c84690044f3ec",
                    "gasUsed": 1260,
                    "id": 5,
                    "methodDecoded": true,
                    "operation": "CALL",
                    "output": "0x0000000000000000000000000000000000000000000000000000000000000000",
                    "revert": false,
                    "revertMessage": "",
                    "selector": "0xb9b8af0b",
                    "status": true,
                    "value": "0"
                },
                "nodeType": 0
            },
            "6": {
                "invocation": {
                    "address": "0xa3c1e324ca1ce40db73ed6026c4a177f099b5770",
                    "callData": "0x",
                    "decodedMethod": {
                        "callParams": [],
                        "constructorArguments": "",
                        "name": "destination",
                        "returnParams": [
                            {
                                "name": "",
                                "type": "address",
                                "value": "0xfbb1b73c4f0bda4f67dca266ce6ef42f520fbb98"
                            }
                        ],
                        "signature": "destination()"
                    },
                    "errorInfo": "",
                    "fromAddress": "0x54d906177ad959e89d670d70dd0c84690044f3ec",
                    "gasUsed": 1368,
                    "id": 6,
                    "methodDecoded": true,
                    "operation": "CALL",
                    "output": "0x000000000000000000000000fbb1b73c4f0bda4f67dca266ce6ef42f520fbb98",
                    "revert": false,
                    "revertMessage": "",
                    "selector": "0xb269681d",
                    "status": true,
                    "value": "0"
                },
                "nodeType": 0
            },
            "7": {
                "invocation": {
                    "address": "0xe2da716381d7e0032cecaa5046b34223fc3f218d",
                    "callData": "0x00000000000000000000000054d906177ad959e89d670d70dd0c84690044f3ec",
                    "decodedMethod": {
                        "callParams": [
                            {
                                "name": "account",
                                "type": "address",
                                "value": "0x54d906177ad959e89d670d70dd0c84690044f3ec"
                            }
                        ],
                        "constructorArguments": "",
                        "name": "balanceOf",
                        "returnParams": [
                            {
                                "decimalAvailable": true,
                                "name": "",
                                "type": "uint256",
                                "value": "20,285,800,000"
                            }
                        ],
                        "signature": "balanceOf(address)"
                    },
                    "errorInfo": "",
                    "fromAddress": "0x54d906177ad959e89d670d70dd0c84690044f3ec",
                    "gasUsed": 6767,
                    "id": 7,
                    "methodDecoded": true,
                    "operation": "CALL",
                    "output": "0x00000000000000000000000000000000000000000000000000000004b920be40",
                    "revert": false,
                    "revertMessage": "",
                    "selector": "0x70a08231",
                    "status": true,
                    "value": "0"
                },
                "nodeType": 0
            },
            "8": {
                "invocation": {
                    "address": "0x4f49174c37e00387ca68e067f6f800028115eeb5",
                    "callData": "0x00000000000000000000000054d906177ad959e89d670d70dd0c84690044f3ec",
                    "decodedMethod": {
                        "callParams": [
                            {
                                "name": "account",
                                "type": "address",
                                "value": "0x54d906177ad959e89d670d70dd0c84690044f3ec"
                            }
                        ],
                        "constructorArguments": "",
                        "name": "balanceOf",
                        "returnParams": [
                            {
                                "decimalAvailable": true,
                                "name": "",
                                "type": "uint256",
                                "value": "20,285,800,000"
                            }
                        ],
                        "signature": "balanceOf(address)"
                    },
                    "errorInfo": "",
                    "fromAddress": "0xe2da716381d7e0032cecaa5046b34223fc3f218d",
                    "gasUsed": 4042,
                    "id": 8,
                    "methodDecoded": true,
                    "operation": "STATICCALL",
                    "output": "0x00000000000000000000000000000000000000000000000000000004b920be40",
                    "revert": false,
                    "revertMessage": "",
                    "selector": "0x70a08231",
                    "status": true,
                    "value": "0"
                },
                "nodeType": 0
            },
            "9": {
                "invocation": {
                    "address": "0xe0812cb3ee491a86ca17b3d10449f9fbc644b159",
                    "callData": "0x00000000000000000000000054d906177ad959e89d670d70dd0c84690044f3ec",
                    "decodedMethod": null,
                    "errorInfo": "",
                    "fromAddress": "0x4f49174c37e00387ca68e067f6f800028115eeb5",
                    "gasUsed": 1208,
                    "id": 9,
                    "methodDecoded": false,
                    "operation": "STATICCALL",
                    "output": "0x00000000000000000000000000000000000000000000000000000004b920be40",
                    "revert": false,
                    "revertMessage": "",
                    "selector": "0x5b1e3c97",
                    "status": true,
                    "value": "0"
                },
                "nodeType": 0
            }
        },
        "gasFlame": [
            {
                "children": [
                    {
                        "children": [
                            {
                                "children": [],
                                "depth": 0,
                                "name": "Initial Gas",
                                "value": 21620
                            },
                            {
                                "children": [
                                    {
                                        "children": [],
                                        "depth": 1,
                                        "name": "sweeperOf",
                                        "value": 2251
                                    },
                                    {
                                        "children": [
                                            {
                                                "children": [],
                                                "depth": 2,
                                                "name": "authorizedCaller",
                                                "value": 1302
                                            },
                                            {
                                                "children": [],
                                                "depth": 2,
                                                "name": "owner",
                                                "value": 1280
                                            },
                                            {
                                                "children": [],
                                                "depth": 2,
                                                "name": "halted",
                                                "value": 1260
                                            },
                                            {
                                                "children": [],
                                                "depth": 2,
                                                "name": "destination",
                                                "value": 1368
                                            },
                                            {
                                                "children": [
                                                    {
                                                        "children": [
                                                            {
                                                                "children": [],
                                                                "depth": 4,
                                                                "name": "0x5b1e3c97",
                                                                "value": 1208
                                                            }
                                                        ],
                                                        "depth": 3,
                                                        "name": "balanceOf",
                                                        "value": 4042
                                                    }
                                                ],
                                                "depth": 2,
                                                "name": "balanceOf",
                                                "value": 6767
                                            },
                                            {
                                                "children": [
                                                    {
                                                        "children": [
                                                            {
                                                                "children": [],
                                                                "depth": 4,
                                                                "name": "lockedBalance",
                                                                "value": 1208
                                                            },
                                                            {
                                                                "children": [],
                                                                "depth": 4,
                                                                "name": "0x5b1e3c97",
                                                                "value": 1208
                                                            },
                                                            {
                                                                "children": [],
                                                                "depth": 4,
                                                                "name": "0x5b1e3c97",
                                                                "value": 1208
                                                            },
                                                            {
                                                                "children": [],
                                                                "depth": 4,
                                                                "name": "0x7e0972c4",
                                                                "value": 7366
                                                            },
                                                            {
                                                                "children": [],
                                                                "depth": 4,
                                                                "name": "0x7e0972c4",
                                                                "value": 7366
                                                            }
                                                        ],
                                                        "depth": 3,
                                                        "name": "transfer",
                                                        "value": 31687
                                                    }
                                                ],
                                                "depth": 2,
                                                "name": "transfer",
                                                "value": 36399
                                            },
                                            {
                                                "children": [],
                                                "depth": 2,
                                                "name": "logSweep",
                                                "value": 2693
                                            }
                                        ],
                                        "depth": 1,
                                        "name": "sweep",
                                        "value": 68482
                                    }
                                ],
                                "depth": 0,
                                "name": "Executed Gas",
                                "value": 74213
                            }
                        ],
                        "depth": -1,
                        "name": "Actual Gas Used",
                        "value": 80833
                    },
                    {
                        "children": [],
                        "depth": -1,
                        "name": "Refunded Gas",
                        "value": 15000
                    }
                ],
                "depth": -2,
                "name": "Total Gas",
                "value": 95833
            }
        ],
        "isConfirmed": true,
        "mainTrace": [
            {
                "children": [
                    {
                        "children": [
                            {
                                "children": [],
                                "depth": 1,
                                "id": 1,
                                "order": 1
                            },
                            {
                                "children": [
                                    {
                                        "children": [],
                                        "depth": 2,
                                        "id": 3,
                                        "order": 3
                                    },
                                    {
                                        "children": [],
                                        "depth": 2,
                                        "id": 4,
                                        "order": 4
                                    },
                                    {
                                        "children": [],
                                        "depth": 2,
                                        "id": 5,
                                        "order": 5
                                    },
                                    {
                                        "children": [],
                                        "depth": 2,
                                        "id": 6,
                                        "order": 6
                                    },
                                    {
                                        "children": [
                                            {
                                                "children": [
                                                    {
                                                        "children": [],
                                                        "depth": 4,
                                                        "id": 9,
                                                        "order": 9
                                                    }
                                                ],
                                                "depth": 3,
                                                "id": 8,
                                                "order": 8
                                            }
                                        ],
                                        "depth": 2,
                                        "id": 7,
                                        "order": 7
                                    },
                                    {
                                        "children": [
                                            {
                                                "children": [
                                                    {
                                                        "children": [],
                                                        "depth": 4,
                                                        "id": 12,
                                                        "order": 12
                                                    },
                                                    {
                                                        "children": [],
                                                        "depth": 4,
                                                        "id": 13,
                                                        "order": 13
                                                    },
                                                    {
                                                        "children": [],
                                                        "depth": 4,
                                                        "id": 14,
                                                        "order": 14
                                                    },
                                                    {
                                                        "children": [],
                                                        "depth": 4,
                                                        "id": 15,
                                                        "order": 15
                                                    },
                                                    {
                                                        "children": [],
                                                        "depth": 4,
                                                        "id": 16,
                                                        "order": 16
                                                    },
                                                    {
                                                        "children": [],
                                                        "depth": 4,
                                                        "id": 17,
                                                        "order": 17
                                                    }
                                                ],
                                                "depth": 3,
                                                "id": 11,
                                                "order": 11
                                            },
                                            {
                                                "children": [],
                                                "depth": 3,
                                                "id": 18,
                                                "order": 18
                                            }
                                        ],
                                        "depth": 2,
                                        "id": 10,
                                        "order": 10
                                    },
                                    {
                                        "children": [
                                            {
                                                "children": [],
                                                "depth": 3,
                                                "id": 20,
                                                "order": 20
                                            }
                                        ],
                                        "depth": 2,
                                        "id": 19,
                                        "order": 19
                                    }
                                ],
                                "depth": 1,
                                "id": 2,
                                "order": 2
                            }
                        ],
                        "depth": 0,
                        "id": 0,
                        "order": 0
                    }
                ],
                "depth": -1,
                "id": -1,
                "order": -1
            }
        ],
        "mainTraceNodeCount": 21,
        "parentIdMap": {
            "0": -1,
            "1": 0,
            "10": 2,
            "11": 10,
            "12": 11,
            "13": 11,
            "14": 11,
            "15": 11,
            "16": 11,
            "17": 11,
            "18": 10,
            "19": 2,
            "2": 0,
            "20": 19,
            "3": 2,
            "4": 2,
            "5": 2,
            "6": 2,
            "7": 2,
            "8": 7,
            "9": 8
        },
        "tidyTrace": [
            {
                "children": [
                    {
                        "children": [
                            {
                                "children": [],
                                "depth": 1,
                                "id": 1,
                                "order": 1
                            },
                            {
                                "children": [
                                    {
                                        "children": [],
                                        "depth": 2,
                                        "id": 3,
                                        "order": 3
                                    },
                                    {
                                        "children": [],
                                        "depth": 2,
                                        "id": 4,
                                        "order": 4
                                    },
                                    {
                                        "children": [],
                                        "depth": 2,
                                        "id": 5,
                                        "order": 5
                                    },
                                    {
                                        "children": [],
                                        "depth": 2,
                                        "id": 6,
                                        "order": 6
                                    },
                                    {
                                        "children": [],
                                        "depth": 2,
                                        "id": 7,
                                        "order": 7
                                    },
                                    {
                                        "children": [
                                            {
                                                "children": [
                                                    {
                                                        "children": [],
                                                        "depth": 4,
                                                        "id": 15,
                                                        "order": 15
                                                    },
                                                    {
                                                        "children": [],
                                                        "depth": 4,
                                                        "id": 16,
                                                        "order": 16
                                                    },
                                                    {
                                                        "children": [],
                                                        "depth": 4,
                                                        "id": 17,
                                                        "order": 17
                                                    }
                                                ],
                                                "depth": 3,
                                                "id": 11,
                                                "order": 11
                                            },
                                            {
                                                "children": [],
                                                "depth": 3,
                                                "id": 18,
                                                "order": 18
                                            }
                                        ],
                                        "depth": 2,
                                        "id": 10,
                                        "order": 10
                                    },
                                    {
                                        "children": [
                                            {
                                                "children": [],
                                                "depth": 3,
                                                "id": 20,
                                                "order": 20
                                            }
                                        ],
                                        "depth": 2,
                                        "id": 19,
                                        "order": 19
                                    }
                                ],
                                "depth": 1,
                                "id": 2,
                                "order": 2
                            }
                        ],
                        "depth": 0,
                        "id": 0,
                        "order": 0
                    }
                ],
                "depth": -1,
                "id": -1,
                "order": -1
            }
        ],
        "tidyTraceNodeCount": 16
    },
    "state_change": {
        "stateChanges": [
            {
                "address": "0xe0812cb3ee491a86ca17b3d10449f9fbc644b159",
                "erc": "",
                "slots": [
                    {
                        "current": "0x0000000000000000000000000000000000000000000000000000000000000000",
                        "key": "0x318b58da985c93985c8b834f0927164b879547dd6d85b32067d1e22622c59ac1",
                        "prev": "0x00000000000000000000000000000000000000000000000000000004b920be40"
                    },
                    {
                        "current": "0x000000000000000000000000000000000000000000000000000003ad93a864c2",
                        "key": "0x8512b86e37edb28c03715fbf463fd95779fa58197d3beda4c00d85ba958c38bd",
                        "prev": "0x000000000000000000000000000000000000000000000000000003a8da87a682"
                    }
                ],
                "storageVariables": []
            }
        ]
    }
}