{
    "balance_change": {
        "balanceChanges": [
            {
                "account": "0xafbd06ac611a6f14992ceed5704fe9e749daea77",
                "assets": [
                    {
                        "address": "0x595832f8fc6bf59c85c527fec3740a1b7a361269",
                        "amount": "525.913",
                        "iconUrl": "https://assets.blocksec.com/icon/4871495d66ea41542a18e784ab8e96068997c15fa8d90dfbdc9cf905a3828065.png",
                        "isERC1155": false,
                        "isERC721": false,
                        "sign": true,
                        "value": ""
                    }
                ]
            },
            {
                "account": "0x8d12a197cb00d4747a1fe03395095ce2a5cc6819",
                "assets": [
                    {
                        "address": "0x595832f8fc6bf59c85c527fec3740a1b7a361269",
                        "amount": "525.913",
                        "iconUrl": "https://assets.blocksec.com/icon/4871495d66ea41542a18e784ab8e96068997c15fa8d90dfbdc9cf905a3828065.png",
                        "isERC1155": false,
                        "isERC721": false,
                        "sign": false,
                        "value": ""
                    }
                ]
            }
        ]
    },
    "profile": {
        "basic_info": {
            "baseFee": "",
            "blockNumber": 4639728,
            "callData": "0x9e281a98000000000000000000000000595832f8fc6bf59c85c527fec3740a1b7a361269000000000000000000000000000000000000000000000000000000001f58cba8",
            "debugEnable": true,
            "errorInfo": "",
            "eventCount": 2,
            "feeRecipient": "0xea674fdde714fd979de3edf0f56aa9716b898ec8",
            "formatValue": "0",
            "gasLimit": 250000,
            "gasPrice": "4",
            "gasUsed": 32423,
            "intTxnCount": 1,
            "internalRevert": false,
            "internalRevertMessage": "",
            "isContractCreation": false,
            "isFlashloan": false,
            "maxFee": "",
            "nonce": 5,
            "overwritedBlockNumber": -1,
            "priorityFee": "",
            "receiver": "0x8d12a197cb00d4747a1fe03395095ce2a5cc6819",
            "revertMessage": "",
            "sender": "0xafbd06ac611a6f14992ceed5704fe9e749daea77",
            "simulationEnable": true,
            "sourceTxnHash": "0x8dc23be115cf96e1f64c264499b1e0fc7c937da79915e3b8561b0cf0206f8316",
            "status": true,
            "timestamp": "2017-11-28T20:16:40Z",
            "transactionFee": "0.000129692",
            "txnHash": "0x8dc23be115cf96e1f64c264499b1e0fc7c937da79915e3b8561b0cf0206f8316",
            "txnIndex": 111,
            "type": 0,
            "value": "0"
        },
        "fund_flow": [
            {
                "amount": "525.913",
                "from": "0x8d12a197cb00d4747a1fe03395095ce2a5cc6819",
                "id": 1,
                "isERC1155": false,
                "isERC721": false,
                "isReverted": false,
                "order": 1,
                "to": "0xafbd06ac611a6f14992ceed5704fe9e749daea77",
                "token": "0x595832f8fc6bf59c85c527fec3740a1b7a361269"
            }
        ],
        "token_infos": [
            {
                "address": "0x595832f8fc6bf59c85c527fec3740a1b7a361269",
                "decimals": 6
            },
            {
                "address": "0xc02aaa39b223fe8d0a0e5c4f27ead9083c756cc2",
                "decimals": 18
            },
            {
                "address": "0xeeeeeeeeeeeeeeeeeeeeeeeeeeeeeeeeeeeeeeee",
                "decimals": 18
            }
        ]
    },
    "address_label": {
        "labels": [
            {
                "address": "0x595832f8fc6bf59c85c527fec3740a1b7a361269",
                "label": "PowerLedger: POWR Token"
            },
            {
                "address": "0x0000000000000000000000000000000000000001",
                "label": "Precompiled"
            },
            {
                "address": "0x0000000000000000000000000000000000000002",
                "label": "Precompiled"
            },
            {
                "address": "0x0000000000000000000000000000000000000003",
                "label": "Precompiled"
            },
            {
                "address": "0x0000000000000000000000000000000000000004",
                "label": "Precompiled"
            },
            {
                "address": "0xeeeeeeeeeeeeeeeeeeeeeeeeeeeeeeeeeeeeeeee",
                "label": "Ether"
            },
            {
                "address": "0x8d12a197cb00d4747a1fe03395095ce2a5cc6819",
                "label": "EtherDelta"
            }
        ]
    },
    "trace": {
        "accountLabels": null,
        "dataMap": {
            "-1": {
                "invocation": {
                    "address": "0xafbd06ac611a6f14992ceed5704fe9e749daea77",
                    "callData": "",
                    "decodedMethod": null,
                    "errorInfo": "",
                    "fromAddress": "",
                    "gasUsed": 0,
                    "id": -1,
                    "methodDecoded": false,
                    "operation": "",
                    "output": "",
                    "revert": false,
                    "revertMessage": "",
                    "selector": "",
                    "status": false,
                    "value": ""
                },
                "nodeType": 0
            },
            "0": {
                "invocation": {
                    "address": "0x8d12a197cb00d4747a1fe03395095ce2a5cc6819",
                    "callData": "0x000000000000000000000000595832f8fc6bf59c85c527fec3740a1b7a361269000000000000000000000000000000000000000000000000000000001f58cba8",
                    "decodedMethod": {
                        "callParams": [
                            {
                                "name": "token",
                                "type": "address",
                                "value": "0x595832f8fc6bf59c85c527fec3740a1b7a361269"
                            },
                            {
                                "name": "amount",
                                "type": "uint256",
                                "value": "525,913,000"
                            }
                        ],
                        "constructorArguments": "",
                        "name": "withdrawToken",
                        "returnParams": [],
                        "signature": "withdrawToken(address,uint256)"
                    },
                    "errorInfo": "",
                    "fromAddress": "0xafbd06ac611a6f14992ceed5704fe9e749daea77",
                    "gasUsed": 32423,
                    "id": 0,
                    "methodDecoded": true,
                    "operation": "CALL",
                    "output": "",
                    "revert": false,
                    "revertMessage": "",
                    "selector": "0x9e281a98",
                    "status": true,
                    "value": "0"
                },
                "nodeType": 0
            },
            "1": {
                "invocation": {
                    "address": "0x595832f8fc6bf59c85c527fec3740a1b7a361269",
                    "callData": "0x000000000000000000000000afbd06ac611a6f14992ceed5704fe9e749daea77000000000000000000000000000000000000000000000000000000001f58cba8",
                    "decodedMethod": {
                        "callParams": [
                            {
                                "name": "_to",
                                "type": "address",
                                "value": "0xafbd06ac611a6f14992ceed5704fe9e749daea77"
                            },
                            {
                                "decimalAvailable": true,
                                "name": "_value",
                                "type": "uint256",
                                "value": "525,913,000"
                            }
                        ],
                        "constructorArguments": "",
                        "name": "transfer",
                        "returnParams": [
                            {
                                "name": "",
                                "type": "bool",
                                "value": true
                            }
                        ],
                        "signature": "transfer(address,uint256)"
                    },
                    "errorInfo": "",
                    "fromAddress": "0x8d12a197cb00d4747a1fe03395095ce2a5cc6819",
                    "gasUsed": 13406,
                    "id": 1,
                    "methodDecoded": true,
                    "operation": "CALL",
                    "output": "0x0000000000000000000000000000000000000000000000000000000000000001",
                    "revert": false,
                    "revertMessage": "",
                    "selector": "0xa9059cbb",
                    "status": true,
                    "value": "0"
                },
                "nodeType": 0
            },
            "2": {
                "event": {
                    "contract": "0x595832f8fc6bf59c85c527fec3740a1b7a361269",
                    "decodedLog": {
                        "name": "Transfer",
                        "params": [
                            {
                                "name": "from",
                                "type": "address",
                                "value": "0x8d12a197cb00d4747a1fe03395095ce2a5cc6819"
                            },
                            {
                                "name": "to",
                                "type": "address",
                                "value": "0xafbd06ac611a6f14992ceed5704fe9e749daea77"
                            },
                            {
                                "decimalAvailable": true,
                                "name": "value",
                                "type": "uint256",
                                "value": "525,913,000"
                            }
                        ],
                        "signature": "Transfer(address,address,uint256)"
                    },
                    "id": 2,
                    "logData": "0x000000000000000000000000000000000000000000000000000000001f58cba8",
                    "logDecoded": true,
                    "operation": "EVENT",
                    "revert": false,
                    "status": true,
                    "topics": [
                        "0xddf252ad1be2c89b69c2b068fc378daa952ba7f163c4a11628f55a4df523b3ef",
                        "0x0000000000000000000000008d12a197cb00d4747a1fe03395095ce2a5cc6819",
                        "0x000000000000000000000000afbd06ac611a6f14992ceed5704fe9e749daea77"
                    ]
                },
                "nodeType": 1
            },
            "3": {
                "event": {
                    "contract": "0x8d12a197cb00d4747a1fe03395095ce2a5cc6819",
                    "decodedLog": {
                        "name": "Withdraw",
                        "params": [
                            {
                                "name": "token",
                                "type": "address",
                                "value": "0x595832f8fc6bf59c85c527fec3740a1b7a361269"
                            },
                            {
                                "name": "user",
                                "type": "address",
                                "value": "0xafbd06ac611a6f14992ceed5704fe9e749daea77"
                            },
                            {
                                "name": "amount",
                                "type": "uint256",
                                "value": "525,913,000"
                            },
                            {
                                "name": "balance",
                                "type": "uint256",
                                "value": "0"
                            }
                        ],
                        "signature": "Withdraw(address,address,uint256,uint256)"
                    },
                    "id": 3,
                    "logData": "0x000000000000000000000000595832f8fc6bf59c85c527fec3740a1b7a361269000000000000000000000000afbd06ac611a6f14992ceed5704fe9e749daea77000000000000000000000000000000000000000000000000000000001f58cba80000000000000000000000000000000000000000000000000000000000000000",
                    "logDecoded": true,
                    "operation": "EVENT",
                    "revert": false,
                    "status": true,
                    "topics": [
                        "0xf341246adaac6f497bc2a656f546ab9e182111d630394f0c57c710a59a2cb567"
                    ]
                },
                "nodeType": 1
            }
        },
        "gasFlame": [
            {
                "children": [
                    {
                        "children": [
                            {
                                "children": [],
                                "depth": 0,
                                "name": "Initial Gas",
                                "value": 23064
                            },
                            {
                                "children": [
                                    {
                                        "children": [],
                                        "depth": 1,
                                        "name": "transfer",
                                        "value": 13406
                                    }
                                ],
                                "depth": 0,
                                "name": "Executed Gas",
                                "value": 24359
                            }
                        ],
                        "depth": -1,
                        "name": "Actual Gas Used",
                        "value": 32423
                    },
                    {
                        "children": [],
                        "depth": -1,
                        "name": "Refunded Gas",
                        "value": 15000
                    }
                ],
                "depth": -2,
                "name": "Total Gas",
                "value": 47423
            }
        ],
        "isConfirmed": true,
        "mainTrace": [
            {
                "children": [
                    {
                        "children": [
                            {
                                "children": [
                                    {
                                        "children": [],
                                        "depth": 2,
                                        "id": 2,
                                        "order": 2
                                    }
                                ],
                                "depth": 1,
                                "id": 1,
                                "order": 1
                            },
                            {
                                "children": [],
                                "depth": 1,
                                "id": 3,
                                "order": 3
                            }
                        ],
                        "depth": 0,
                        "id": 0,
                        "order": 0
                    }
                ],
                "depth": -1,
                "id": -1,
                "order": -1
            }
        ],
        "mainTraceNodeCount": 4,
        "parentIdMap": {
            "0": -1,
            "1": 0,
            "2": 1,
            "3": 0
        },
        "tidyTrace": [
            {
                "children": [
                    {
                        "children": [
                            {
                                "children": [
                                    {
                                        "children": [],
                                        "depth": 2,
                                        "id": 2,
                                        "order": 2
                                    }
                                ],
                                "depth": 1,
                                "id": 1,
                                "order": 1
                            },
                            {
                                "children": [],
                                "depth": 1,
                                "id": 3,
                                "order": 3
                            }
                        ],
                        "depth": 0,
                        "id": 0,
                        "order": 0
                    }
                ],
                "depth": -1,
                "id": -1,
                "order": -1
            }
        ],
        "tidyTraceNodeCount": 4
    },
    "state_change": {
        "stateChanges": [
            {
                "address": "0x595832f8fc6bf59c85c527fec3740a1b7a361269",
                "erc": "ERC-20",
                "slots": [
                    {
                        "current": "0x00000000000000000000000000000000000000000000000000000081a2f2d534",
                        "key": "0x21631cd298e8c1fb40a26b7dc80a9a69e96d96c34008baab897b11d7e5c705f5",
                        "prev": "0x00000000000000000000000000000000000000000000000000000081c24ba0dc"
                    },
                    {
                        "current": "0x00000000000000000000000000000000000000000000000000000000312c7f3d",
                        "key": "0x32aeea99389a717ba9812749d453fa8b75af8b643b21eecf39bde050cd456904",
                        "prev": "0x0000000000000000000000000000000000000000000000000000000011d3b395"
                    }
                ],
                "storageVariables": []
            },
            {
                "address": "0x8d12a197cb00d4747a1fe03395095ce2a5cc6819",
                "erc": "",
                "slots": [
                    {
                        "current": "0x0000000000000000000000000000000000000000000000000000000000000000",
                        "key": "0x4baad16b2525303ee9e819c04d6e1455918093ffbfc8a1b7db6fb7644537f246",
                        "prev": "0x000000000000000000000000000000000000000000000000000000001f58cba8"
                    }
                ],
                "storageVariables": []
            }
        ]
    }
}