{
    "balance_change": {
        "balanceChanges": [
            {
                "account": "0xdfd5293d8e347dfe59e90efd55b2956a1343963d",
                "assets": [
                    {
                        "address": "0x0bc529c00c6401aef6d220be8c6ea1667f6ad93e",
                        "amount": "0.7044",
                        "iconUrl": "https://assets.blocksec.com/icon/3ed08b9b1f031e3294e0ffbdaf265ecfcd3b884fc42d6485b85b695e654c48f2.png",
                        "isERC1155": false,
                        "isERC721": false,
                        "sign": false,
                        "value": "14435.93665"
                    }
                ]
            },
            {
                "account": "0x5a3b9cb10f43b829d0f7d8c6d855fd15b268b1c0",
                "assets": [
                    {
                        "address": "0x0bc529c00c6401aef6d220be8c6ea1667f6ad93e",
                        "amount": "0.7044",
                        "iconUrl": "https://assets.blocksec.com/icon/3ed08b9b1f031e3294e0ffbdaf265ecfcd3b884fc42d6485b85b695e654c48f2.png",
                        "isERC1155": false,
                        "isERC721": false,
                        "sign": true,
                        "value": "14435.93665"
                    }
                ]
            }
        ]
    },
    "profile": {
        "basic_info": {
            "baseFee": "22.705180786",
            "blockNumber": 14447623,
            "callData": "0xa9059cbb0000000000000000000000005a3b9cb10f43b829d0f7d8c6d855fd15b268b1c000000000000000000000000000000000000000000000000009c6881163c90000",
            "debugEnable": true,
            "errorInfo": "",
            "eventCount": 1,
            "feeRecipient": "0x829bd824b016326a401d083b33d092293333a830",
            "formatValue": "0",
            "gasLimit": 207128,
            "gasPrice": "24.705180786",
            "gasUsed": 51784,
            "intTxnCount": 0,
            "internalRevert": false,
            "internalRevertMessage": "",
            "isContractCreation": false,
            "isFlashloan": false,
            "maxFee": "120",
            "nonce": 3151192,
            "overwritedBlockNumber": -1,
            "priorityFee": "2",
            "receiver": "0x0bc529c00c6401aef6d220be8c6ea1667f6ad93e",
            "revertMessage": "",
            "sender": "0xdfd5293d8e347dfe59e90efd55b2956a1343963d",
            "simulationEnable": true,
            "sourceTxnHash": "0x8d3b07369b1f7f27b900f4e51ec1fce2b8c6e72c5e5458f80e01249b56a41f8e",
            "status": true,
            "timestamp": "2022-03-24T07:31:20Z",
            "transactionFee": "0.001279333081822224",
            "txnHash": "0x8d3b07369b1f7f27b900f4e51ec1fce2b8c6e72c5e5458f80e01249b56a41f8e",
            "txnIndex": 83,
            "type": 2,
            "value": "0"
        },
        "fund_flow": [
            {
                "amount": "0.7044",
                "from": "0xdfd5293d8e347dfe59e90efd55b2956a1343963d",
                "id": 1,
                "isERC1155": false,
                "isERC721": false,
                "isReverted": false,
                "order": 1,
                "to": "0x5a3b9cb10f43b829d0f7d8c6d855fd15b268b1c0",
                "token": "0x0bc529c00c6401aef6d220be8c6ea1667f6ad93e"
            }
        ],
        "token_infos": [
            {
                "address": "0x0bc529c00c6401aef6d220be8c6ea1667f6ad93e",
                "decimals": 18
            },
            {
                "address": "0xc02aaa39b223fe8d0a0e5c4f27ead9083c756cc2",
                "decimals": 18
            },
            {
                "address": "0xeeeeeeeeeeeeeeeeeeeeeeeeeeeeeeeeeeeeeeee",
                "decimals": 18
            }
        ]
    },
    "address_label": {
        "labels": [
            {
                "address": "0x0000000000000000000000000000000000000002",
                "label": "Precompiled"
            },
            {
                "address": "0x0000000000000000000000000000000000000003",
                "label": "Precompiled"
            },
            {
                "address": "0x0000000000000000000000000000000000000004",
                "label": "Precompiled"
            },
            {
                "address": "0xeeeeeeeeeeeeeeeeeeeeeeeeeeeeeeeeeeeeeeee",
                "label": "Ether"
            },
            {
                "address": "0x0bc529c00c6401aef6d220be8c6ea1667f6ad93e",
                "label": "Ygov.finance: YFI Token"
            },
            {
                "address": "0xdfd5293d8e347dfe59e90efd55b2956a1343963d",
                "label": "Binance 16"
            },
            {
                "address": "0x5a3b9cb10f43b829d0f7d8c6d855fd15b268b1c0",
                "label": "KRAKEN"
            },
            {
                "address": "0x0000000000000000000000000000000000000001",
                "label": "Precompiled"
            }
        ]
    },
    "trace": {
        "accountLabels": null,
        "dataMap": {
            "-1": {
                "invocation": {
                    "address": "0xdfd5293d8e347dfe59e90efd55b2956a1343963d",
                    "callData": "",
                    "decodedMethod": null,
                    "errorInfo": "",
                    "fromAddress": "",
                    "gasUsed": 0,
                    "id": -1,
                    "methodDecoded": false,
                    "operation": "",
                    "output": "",
                    "revert": false,
                    "revertMessage": "",
                    "selector": "",
                    "status": false,
                    "value": ""
                },
                "nodeType": 0
            },
            "0": {
                "invocation": {
                    "address": "0x0bc529c00c6401aef6d220be8c6ea1667f6ad93e",
                    "callData": "0x0000000000000000000000005a3b9cb10f43b829d0f7d8c6d855fd15b268b1c000000000000000000000000000000000000000000000000009c6881163c90000",
                    "decodedMethod": {
                        "callParams": [
                            {
                                "name": "recipient",
                                "type": "address",
                                "value": "0x5a3b9cb10f43b829d0f7d8c6d855fd15b268b1c0"
                            },
                            {
                                "decimalAvailable": true,
                                "name": "amount",
                                "type": "uint256",
                                "value": "704,400,000,000,000,000"
                            }
                        ],
                        "constructorArguments": "",
                        "name": "transfer",
                        "returnParams": [
                            {
                                "name": "",
                                "type": "bool",
                                "value": true
                            }
                        ],
                        "signature": "transfer(address,uint256)"
                    },
                    "errorInfo": "",
                    "fromAddress": "0xdfd5293d8e347dfe59e90efd55b2956a1343963d",
                    "gasUsed": 51784,
                    "id": 0,
                    "methodDecoded": true,
                    "operation": "CALL",
                    "output": "0x0000000000000000000000000000000000000000000000000000000000000001",
                    "revert": false,
                    "revertMessage": "",
                    "selector": "0xa9059cbb",
                    "status": true,
                    "value": "0"
                },
                "nodeType": 0
            },
            "1": {
                "event": {
                    "contract": "0x0bc529c00c6401aef6d220be8c6ea1667f6ad93e",
                    "decodedLog": {
                        "name": "Transfer",
                        "params": [
                            {
                                "name": "from",
                                "type": "address",
                                "value": "0xdfd5293d8e347dfe59e90efd55b2956a1343963d"
                            },
                            {
                                "name": "to",
                                "type": "address",
                                "value": "0x5a3b9cb10f43b829d0f7d8c6d855fd15b268b1c0"
                            },
                            {
                                "decimalAvailable": true,
                                "name": "value",
                                "type": "uint256",
                                "value": "704,400,000,000,000,000"
                            }
                        ],
                        "signature": "Transfer(address,address,uint256)"
                    },
                    "id": 1,
                    "logData": "0x00000000000000000000000000000000000000000000000009c6881163c90000",
                    "logDecoded": true,
                    "operation": "EVENT",
                    "revert": false,
                    "status": true,
                    "topics": [
                        "0xddf252ad1be2c89b69c2b068fc378daa952ba7f163c4a11628f55a4df523b3ef",
                        "0x000000000000000000000000dfd5293d8e347dfe59e90efd55b2956a1343963d",
                        "0x0000000000000000000000005a3b9cb10f43b829d0f7d8c6d855fd15b268b1c0"
                    ]
                },
                "nodeType": 1
            }
        },
        "gasFlame": [
            {
                "children": [
                    {
                        "children": [
                            {
                                "children": [],
                                "depth": 0,
                                "name": "Initial Gas",
                                "value": 21632
                            },
                            {
                                "children": [],
                                "depth": 0,
                                "name": "Executed Gas",
                                "value": 30152
                            }
                        ],
                        "depth": -1,
                        "name": "Actual Gas Used",
                        "value": 51784
                    },
                    {
                        "children": [],
                        "depth": -1,
                        "name": "Refunded Gas",
                        "value": 0
                    }
                ],
                "depth": -2,
                "name": "Total Gas",
                "value": 51784
            }
        ],
        "isConfirmed": true,
        "mainTrace": [
            {
                "children": [
                    {
                        "children": [
                            {
                                "children": [],
                                "depth": 1,
                                "id": 1,
                                "order": 1
                            }
                        ],
                        "depth": 0,
                        "id": 0,
                        "order": 0
                    }
                ],
                "depth": -1,
                "id": -1,
                "order": -1
            }
        ],
        "mainTraceNodeCount": 2,
        "parentIdMap": {
            "0": -1,
            "1": 0
        },
        "tidyTrace": [
            {
                "children": [
                    {
                        "children": [
                            {
                                "children": [],
                                "depth": 1,
                                "id": 1,
                                "order": 1
                            }
                        ],
                        "depth": 0,
                        "id": 0,
                        "order": 0
                    }
                ],
                "depth": -1,
                "id": -1,
                "order": -1
            }
        ],
        "tidyTraceNodeCount": 2
    },
    "state_change": {
        "stateChanges": [
            {
                "address": "0x0bc529c00c6401aef6d220be8c6ea1667f6ad93e",
                "erc": "ERC-20",
                "slots": [
                    {
                        "current": "0x000000000000000000000000000000000000000000000005833fa2f8adc44800",
                        "key": "0x39223a37ba6f79f54aa37a26efc12e526af93a444ecbdb4358d8b83204838857",
                        "prev": "0x0000000000000000000000000000000000000000000000058d062b0a118d4800"
                    },
                    {
                        "current": "0x00000000000000000000000000000000000000000000000009c6881163c90000",
                        "key": "0xf682ebb63adf75092c620d225b3cfc323283c70f0de21d2cf99c4d4d995a733f",
                        "prev": "0x0000000000000000000000000000000000000000000000000000000000000000"
                    }
                ],
                "storageVariables": [
                    {
                        "name": "_balances",
                        "type": "mapping(address => uint256)",
                        "value": {
                            "pairs": [
                                {
                                    "key": "0x5a3b9cb10f43b829d0f7d8c6d855fd15b268b1c0",
                                    "value": {
                                        "current": "704400000000000000",
                                        "prev": "0",
                                        "typeTag": 1
                                    }
                                },
                                {
                                    "key": "0xdfd5293d8e347dfe59e90efd55b2956a1343963d",
                                    "value": {
                                        "current": "101691177300000000000",
                                        "prev": "102395577300000000000",
                                        "typeTag": 1
                                    }
                                }
                            ],
                            "typeTag": 4
                        }
                    }
                ]
            }
        ]
    }
}