{
    "balance_change": {
        "balanceChanges": [
            {
                "account": "0x2961ec328d00ab2381abcb155e1c195743b682de",
                "assets": [
                    {
                        "address": "0xae1eaae3f627aaca434127644371b67b18444051",
                        "amount": "2,385.31142161",
                        "iconUrl": "https://assets.blocksec.com/icon/c99c1978fca76ba40851686f5f60f7cb9ef7aaf22dc0b7cc3c3fd58dc0d365a5.png",
                        "isERC1155": false,
                        "isERC721": false,
                        "sign": false,
                        "value": "3741.259479"
                    },
                    {
                        "address": "0x038a68ff68c393373ec894015816e33ad41bd564",
                        "amount": "5,391.802678331146930062",
                        "iconUrl": "",
                        "isERC1155": false,
                        "isERC721": false,
                        "sign": true,
                        "value": "3684.960348"
                    }
                ]
            },
            {
                "account": "0x1037fa1f40b69c9266c4aeb2abcedc7553614b4c",
                "assets": [
                    {
                        "address": "0xc02aaa39b223fe8d0a0e5c4f27ead9083c756cc2",
                        "amount": "1.664657199208033393",
                        "iconUrl": "https://assets.blocksec.com/icon/f1cb2d02c471d545bbc7722daf3277fd852d98e63d118771af7047bd8256c516.png",
                        "isERC1155": false,
                        "isERC721": false,
                        "sign": true,
                        "value": "3741.259478"
                    },
                    {
                        "address": "0x038a68ff68c393373ec894015816e33ad41bd564",
                        "amount": "5,391.802678331146930062",
                        "iconUrl": "",
                        "isERC1155": false,
                        "isERC721": false,
                        "sign": false,
                        "value": "3684.960348"
                    }
                ]
            },
            {
                "account": "0xd65e975c7d0d5871eff8b079120e43c9f377ada1",
                "assets": [
                    {
                        "address": "0xae1eaae3f627aaca434127644371b67b18444051",
                        "amount": "2,385.31142161",
                        "iconUrl": "https://assets.blocksec.com/icon/c99c1978fca76ba40851686f5f60f7cb9ef7aaf22dc0b7cc3c3fd58dc0d365a5.png",
                        "isERC1155": false,
                        "isERC721": false,
                        "sign": true,
                        "value": "3741.259479"
                    },
                    {
                        "address": "0xc02aaa39b223fe8d0a0e5c4f27ead9083c756cc2",
                        "amount": "1.664657199208033393",
                        "iconUrl": "https://assets.blocksec.com/icon/f1cb2d02c471d545bbc7722daf3277fd852d98e63d118771af7047bd8256c516.png",
                        "isERC1155": false,
                        "isERC721": false,
                        "sign": false,
                        "value": "3741.259478"
                    }
                ]
            }
        ]
    },
    "profile": {
        "basic_info": {
            "baseFee": "",
            "blockNumber": 12267172,
            "callData": "0x38ed17390000000000000000000000000000000000000000000000000000003789906211000000000000000000000000000000000000000000000122d605fa930b3d436000000000000000000000000000000000000000000000000000000000000000a00000000000000000000000002961ec328d00ab2381abcb155e1c195743b682de00000000000000000000000000000000000000000000000000000000607cc9e60000000000000000000000000000000000000000000000000000000000000003000000000000000000000000ae1eaae3f627aaca434127644371b67b18444051000000000000000000000000c02aaa39b223fe8d0a0e5c4f27ead9083c756cc2000000000000000000000000038a68ff68c393373ec894015816e33ad41bd564",
            "debugEnable": true,
            "errorInfo": "",
            "eventCount": 8,
            "feeRecipient": "0xea674fdde714fd979de3edf0f56aa9716b898ec8",
            "formatValue": "0",
            "gasLimit": 202929,
            "gasPrice": "106",
            "gasUsed": 161168,
            "intTxnCount": 11,
            "internalRevert": false,
            "internalRevertMessage": "",
            "isContractCreation": false,
            "isFlashloan": false,
            "maxFee": "",
            "nonce": 499,
            "overwritedBlockNumber": -1,
            "priorityFee": "",
            "receiver": "0x7a250d5630b4cf539739df2c5dacb4c659f2488d",
            "revertMessage": "",
            "sender": "0x2961ec328d00ab2381abcb155e1c195743b682de",
            "simulationEnable": true,
            "sourceTxnHash": "0x8de17d634fe6f2a332a514d8b9e696507945d23863be3088c46ede83df0ac7da",
            "status": true,
            "timestamp": "2021-04-18T23:49:33Z",
            "transactionFee": "0.017083808",
            "txnHash": "0x8de17d634fe6f2a332a514d8b9e696507945d23863be3088c46ede83df0ac7da",
            "txnIndex": 95,
            "type": 0,
            "value": "0"
        },
        "fund_flow": [
            {
                "amount": "2,385.31142161",
                "from": "0x2961ec328d00ab2381abcb155e1c195743b682de",
                "id": 1,
                "isERC1155": false,
                "isERC721": false,
                "isReverted": false,
                "order": 1,
                "to": "0xd65e975c7d0d5871eff8b079120e43c9f377ada1",
                "token": "0xae1eaae3f627aaca434127644371b67b18444051"
            },
            {
                "amount": "1.664657199208033393",
                "from": "0xd65e975c7d0d5871eff8b079120e43c9f377ada1",
                "id": 2,
                "isERC1155": false,
                "isERC721": false,
                "isReverted": false,
                "order": 2,
                "to": "0x1037fa1f40b69c9266c4aeb2abcedc7553614b4c",
                "token": "0xc02aaa39b223fe8d0a0e5c4f27ead9083c756cc2"
            },
            {
                "amount": "5,391.802678331146930062",
                "from": "0x1037fa1f40b69c9266c4aeb2abcedc7553614b4c",
                "id": 3,
                "isERC1155": false,
                "isERC721": false,
                "isReverted": false,
                "order": 3,
                "to": "0x2961ec328d00ab2381abcb155e1c195743b682de",
                "token": "0x038a68ff68c393373ec894015816e33ad41bd564"
            }
        ],
        "token_infos": [
            {
                "address": "0x038a68ff68c393373ec894015816e33ad41bd564",
                "decimals": 18
            },
            {
                "address": "0xae1eaae3f627aaca434127644371b67b18444051",
                "decimals": 8
            },
            {
                "address": "0xc02aaa39b223fe8d0a0e5c4f27ead9083c756cc2",
                "decimals": 18
            },
            {
                "address": "0xeeeeeeeeeeeeeeeeeeeeeeeeeeeeeeeeeeeeeeee",
                "decimals": 18
            }
        ]
    },
    "address_label": {
        "labels": [
            {
                "address": "0xc02aaa39b223fe8d0a0e5c4f27ead9083c756cc2",
                "label": "Wrapped Ether (WETH)"
            },
            {
                "address": "0xd65e975c7d0d5871eff8b079120e43c9f377ada1",
                "label": "Uniswap V2: YOP 10"
            },
            {
                "address": "0x038a68ff68c393373ec894015816e33ad41bd564",
                "label": "Glitch Finance: GLCH Token"
            },
            {
                "address": "0x1037fa1f40b69c9266c4aeb2abcedc7553614b4c",
                "label": "Uniswap V2: GLCH 2"
            },
            {
                "address": "0x0000000000000000000000000000000000000001",
                "label": "Precompiled"
            },
            {
                "address": "0xeeeeeeeeeeeeeeeeeeeeeeeeeeeeeeeeeeeeeeee",
                "label": "Ether"
            },
            {
                "address": "0xae1eaae3f627aaca434127644371b67b18444051",
                "label": "YOP: YOP Token"
            },
            {
                "address": "0x7a250d5630b4cf539739df2c5dacb4c659f2488d",
                "label": "Uniswap V2: Router 2"
            },
            {
                "address": "0x0000000000000000000000000000000000000002",
                "label": "Precompiled"
            },
            {
                "address": "0x0000000000000000000000000000000000000003",
                "label": "Precompiled"
            },
            {
                "address": "0x0000000000000000000000000000000000000004",
                "label": "Precompiled"
            }
        ]
    },
    "trace": {
        "accountLabels": null,
        "dataMap": {
            "-1": {
                "invocation": {
                    "address": "0x2961ec328d00ab2381abcb155e1c195743b682de",
                    "callData": "",
                    "decodedMethod": null,
                    "errorInfo": "",
                    "fromAddress": "",
                    "gasUsed": 0,
                    "id": -1,
                    "methodDecoded": false,
                    "operation": "",
                    "output": "",
                    "revert": false,
                    "revertMessage": "",
                    "selector": "",
                    "status": false,
                    "value": ""
                },
                "nodeType": 0
            },
            "0": {
                "invocation": {
                    "address": "0x7a250d5630b4cf539739df2c5dacb4c659f2488d",
                    "callData": "0x0000000000000000000000000000000000000000000000000000003789906211000000000000000000000000000000000000000000000122d605fa930b3d436000000000000000000000000000000000000000000000000000000000000000a00000000000000000000000002961ec328d00ab2381abcb155e1c195743b682de00000000000000000000000000000000000000000000000000000000607cc9e60000000000000000000000000000000000000000000000000000000000000003000000000000000000000000ae1eaae3f627aaca434127644371b67b18444051000000000000000000000000c02aaa39b223fe8d0a0e5c4f27ead9083c756cc2000000000000000000000000038a68ff68c393373ec894015816e33ad41bd564",
                    "decodedMethod": {
                        "callParams": [
                            {
                                "name": "amountIn",
                                "type": "uint256",
                                "value": "238,531,142,161"
                            },
                            {
                                "name": "amountOutMin",
                                "type": "uint256",
                                "value": "5,364,977,789,384,225,801,056"
                            },
                            {
                                "name": "path",
                                "type": "address[]",
                                "value": [
                                    "0xae1eaae3f627aaca434127644371b67b18444051",
                                    "0xc02aaa39b223fe8d0a0e5c4f27ead9083c756cc2",
                                    "0x038a68ff68c393373ec894015816e33ad41bd564"
                                ]
                            },
                            {
                                "name": "to",
                                "type": "address",
                                "value": "0x2961ec328d00ab2381abcb155e1c195743b682de"
                            },
                            {
                                "name": "deadline",
                                "type": "uint256",
                                "value": "1,618,790,886"
                            }
                        ],
                        "constructorArguments": "",
                        "name": "swapExactTokensForTokens",
                        "returnParams": [
                            {
                                "name": "amounts",
                                "type": "uint256[]",
                                "value": [
                                    "238,531,142,161",
                                    "1,664,657,199,208,033,393",
                                    "5,391,802,678,331,146,930,062"
                                ]
                            }
                        ],
                        "signature": "swapExactTokensForTokens(uint256,uint256,address[],address,uint256)"
                    },
                    "errorInfo": "",
                    "fromAddress": "0x2961ec328d00ab2381abcb155e1c195743b682de",
                    "gasUsed": 161168,
                    "id": 0,
                    "methodDecoded": true,
                    "operation": "CALL",
                    "output": "0x000000000000000000000000000000000000000000000000000000000000002000000000000000000000000000000000000000000000000000000000000000030000000000000000000000000000000000000000000000000000003789906211000000000000000000000000000000000000000000000000171a0ce727976c710000000000000000000000000000000000000000000001244a4b20f27fc6878e",
                    "revert": false,
                    "revertMessage": "",
                    "selector": "0x38ed1739",
                    "status": true,
                    "value": "0"
                },
                "nodeType": 0
            },
            "1": {
                "invocation": {
                    "address": "0xd65e975c7d0d5871eff8b079120e43c9f377ada1",
                    "callData": "0x",
                    "decodedMethod": {
                        "callParams": [],
                        "constructorArguments": "",
                        "name": "getReserves",
                        "returnParams": [
                            {
                                "name": "_reserve0",
                                "type": "uint112",
                                "value": "83,360,068,367,722"
                            },
                            {
                                "name": "_reserve1",
                                "type": "uint112",
                                "value": "585,167,034,033,753,220,966"
                            },
                            {
                                "name": "_blockTimestampLast",
                                "type": "uint32",
                                "value": "1,618,787,785"
                            }
                        ],
                        "signature": "getReserves()"
                    },
                    "errorInfo": "",
                    "fromAddress": "0x7a250d5630b4cf539739df2c5dacb4c659f2488d",
                    "gasUsed": 2504,
                    "id": 1,
                    "methodDecoded": true,
                    "operation": "STATICCALL",
                    "output": "0x00000000000000000000000000000000000000000000000000004bd0c743756a00000000000000000000000000000000000000000000001fb8d2ed1b1ac6e76600000000000000000000000000000000000000000000000000000000607cbdc9",
                    "revert": false,
                    "revertMessage": "",
                    "selector": "0x0902f1ac",
                    "status": true,
                    "value": "0"
                },
                "nodeType": 0
            },
            "10": {
                "invocation": {
                    "address": "0xc02aaa39b223fe8d0a0e5c4f27ead9083c756cc2",
                    "callData": "0x000000000000000000000000d65e975c7d0d5871eff8b079120e43c9f377ada1",
                    "decodedMethod": {
                        "callParams": [
                            {
                                "name": "",
                                "type": "address",
                                "value": "0xd65e975c7d0d5871eff8b079120e43c9f377ada1"
                            }
                        ],
                        "constructorArguments": "",
                        "name": "balanceOf",
                        "returnParams": [
                            {
                                "decimalAvailable": true,
                                "name": "",
                                "type": "uint256",
                                "value": "583,502,376,834,545,187,573"
                            }
                        ],
                        "signature": "balanceOf(address)"
                    },
                    "errorInfo": "",
                    "fromAddress": "0xd65e975c7d0d5871eff8b079120e43c9f377ada1",
                    "gasUsed": 534,
                    "id": 10,
                    "methodDecoded": true,
                    "operation": "STATICCALL",
                    "output": "0x00000000000000000000000000000000000000000000001fa1b8e033f32f7af5",
                    "revert": false,
                    "revertMessage": "",
                    "selector": "0x70a08231",
                    "status": true,
                    "value": "0"
                },
                "nodeType": 0
            },
            "11": {
                "event": {
                    "contract": "0xd65e975c7d0d5871eff8b079120e43c9f377ada1",
                    "decodedLog": {
                        "name": "Sync",
                        "params": [
                            {
                                "name": "reserve0",
                                "type": "uint112",
                                "value": "83,598,599,509,883"
                            },
                            {
                                "name": "reserve1",
                                "type": "uint112",
                                "value": "583,502,376,834,545,187,573"
                            }
                        ],
                        "signature": "Sync(uint112,uint112)"
                    },
                    "id": 11,
                    "logData": "0x00000000000000000000000000000000000000000000000000004c0850d3d77b00000000000000000000000000000000000000000000001fa1b8e033f32f7af5",
                    "logDecoded": true,
                    "operation": "EVENT",
                    "revert": false,
                    "status": true,
                    "topics": [
                        "0x1c411e9a96e071241c2f21f7726b17ae89e3cab4c78be50e062b03a9fffbbad1"
                    ]
                },
                "nodeType": 1
            },
            "12": {
                "event": {
                    "contract": "0xd65e975c7d0d5871eff8b079120e43c9f377ada1",
                    "decodedLog": {
                        "name": "Swap",
                        "params": [
                            {
                                "name": "sender",
                                "type": "address",
                                "value": "0x7a250d5630b4cf539739df2c5dacb4c659f2488d"
                            },
                            {
                                "name": "to",
                                "type": "address",
                                "value": "0x1037fa1f40b69c9266c4aeb2abcedc7553614b4c"
                            },
                            {
                                "name": "amount0In",
                                "type": "uint256",
                                "value": "238,531,142,161"
                            },
                            {
                                "name": "amount1In",
                                "type": "uint256",
                                "value": "0"
                            },
                            {
                                "name": "amount0Out",
                                "type": "uint256",
                                "value": "0"
                            },
                            {
                                "name": "amount1Out",
                                "type": "uint256",
                                "value": "1,664,657,199,208,033,393"
                            }
                        ],
                        "signature": "Swap(address,uint256,uint256,uint256,uint256,address)"
                    },
                    "id": 12,
                    "logData": "0x000000000000000000000000000000000000000000000000000000378990621100000000000000000000000000000000000000000000000000000000000000000000000000000000000000000000000000000000000000000000000000000000000000000000000000000000000000000000000000000000171a0ce727976c71",
                    "logDecoded": true,
                    "operation": "EVENT",
                    "revert": false,
                    "status": true,
                    "topics": [
                        "0xd78ad95fa46c994b6551d0da85fc275fe613ce37657fb8d5e3d130840159d822",
                        "0x0000000000000000000000007a250d5630b4cf539739df2c5dacb4c659f2488d",
                        "0x0000000000000000000000001037fa1f40b69c9266c4aeb2abcedc7553614b4c"
                    ]
                },
                "nodeType": 1
            },
            "13": {
                "invocation": {
                    "address": "0x1037fa1f40b69c9266c4aeb2abcedc7553614b4c",
                    "callData": "0x0000000000000000000000000000000000000000000001244a4b20f27fc6878e00000000000000000000000000000000000000000000000000000000000000000000000000000000000000002961ec328d00ab2381abcb155e1c195743b682de00000000000000000000000000000000000000000000000000000000000000800000000000000000000000000000000000000000000000000000000000000000",
                    "decodedMethod": {
                        "callParams": [
                            {
                                "name": "amount0Out",
                                "type": "uint256",
                                "value": "5,391,802,678,331,146,930,062"
                            },
                            {
                                "name": "amount1Out",
                                "type": "uint256",
                                "value": "0"
                            },
                            {
                                "name": "to",
                                "type": "address",
                                "value": "0x2961ec328d00ab2381abcb155e1c195743b682de"
                            },
                            {
                                "name": "data",
                                "type": "bytes",
                                "value": "0x"
                            }
                        ],
                        "constructorArguments": "",
                        "name": "swap",
                        "returnParams": [],
                        "signature": "swap(uint256,uint256,address,bytes)"
                    },
                    "errorInfo": "",
                    "fromAddress": "0x7a250d5630b4cf539739df2c5dacb4c659f2488d",
                    "gasUsed": 64891,
                    "id": 13,
                    "methodDecoded": true,
                    "operation": "CALL",
                    "output": "",
                    "revert": false,
                    "revertMessage": "",
                    "selector": "0x022c0d9f",
                    "status": true,
                    "value": "0"
                },
                "nodeType": 0
            },
            "14": {
                "invocation": {
                    "address": "0x038a68ff68c393373ec894015816e33ad41bd564",
                    "callData": "0x0000000000000000000000002961ec328d00ab2381abcb155e1c195743b682de0000000000000000000000000000000000000000000001244a4b20f27fc6878e",
                    "decodedMethod": {
                        "callParams": [
                            {
                                "name": "recipient",
                                "type": "address",
                                "value": "0x2961ec328d00ab2381abcb155e1c195743b682de"
                            },
                            {
                                "decimalAvailable": true,
                                "name": "amount",
                                "type": "uint256",
                                "value": "5,391,802,678,331,146,930,062"
                            }
                        ],
                        "constructorArguments": "",
                        "name": "transfer",
                        "returnParams": [
                            {
                                "name": "",
                                "type": "bool",
                                "value": true
                            }
                        ],
                        "signature": "transfer(address,uint256)"
                    },
                    "errorInfo": "",
                    "fromAddress": "0x1037fa1f40b69c9266c4aeb2abcedc7553614b4c",
                    "gasUsed": 30067,
                    "id": 14,
                    "methodDecoded": true,
                    "operation": "CALL",
                    "output": "0x0000000000000000000000000000000000000000000000000000000000000001",
                    "revert": false,
                    "revertMessage": "",
                    "selector": "0xa9059cbb",
                    "status": true,
                    "value": "0"
                },
                "nodeType": 0
            },
            "15": {
                "event": {
                    "contract": "0x038a68ff68c393373ec894015816e33ad41bd564",
                    "decodedLog": {
                        "name": "Transfer",
                        "params": [
                            {
                                "name": "from",
                                "type": "address",
                                "value": "0x1037fa1f40b69c9266c4aeb2abcedc7553614b4c"
                            },
                            {
                                "name": "to",
                                "type": "address",
                                "value": "0x2961ec328d00ab2381abcb155e1c195743b682de"
                            },
                            {
                                "decimalAvailable": true,
                                "name": "value",
                                "type": "uint256",
                                "value": "5,391,802,678,331,146,930,062"
                            }
                        ],
                        "signature": "Transfer(address,address,uint256)"
                    },
                    "id": 15,
                    "logData": "0x0000000000000000000000000000000000000000000001244a4b20f27fc6878e",
                    "logDecoded": true,
                    "operation": "EVENT",
                    "revert": false,
                    "status": true,
                    "topics": [
                        "0xddf252ad1be2c89b69c2b068fc378daa952ba7f163c4a11628f55a4df523b3ef",
                        "0x0000000000000000000000001037fa1f40b69c9266c4aeb2abcedc7553614b4c",
                        "0x0000000000000000000000002961ec328d00ab2381abcb155e1c195743b682de"
                    ]
                },
                "nodeType": 1
            },
            "16": {
                "invocation": {
                    "address": "0x038a68ff68c393373ec894015816e33ad41bd564",
                    "callData": "0x0000000000000000000000001037fa1f40b69c9266c4aeb2abcedc7553614b4c",
                    "decodedMethod": {
                        "callParams": [
                            {
                                "name": "account",
                                "type": "address",
                                "value": "0x1037fa1f40b69c9266c4aeb2abcedc7553614b4c"
                            }
                        ],
                        "constructorArguments": "",
                        "name": "balanceOf",
                        "returnParams": [
                            {
                                "decimalAvailable": true,
                                "name": "",
                                "type": "uint256",
                                "value": "1,170,938,936,542,595,940,860,755"
                            }
                        ],
                        "signature": "balanceOf(address)"
                    },
                    "errorInfo": "",
                    "fromAddress": "0x1037fa1f40b69c9266c4aeb2abcedc7553614b4c",
                    "gasUsed": 467,
                    "id": 16,
                    "methodDecoded": true,
                    "operation": "STATICCALL",
                    "output": "0x00000000000000000000000000000000000000000000f7f4ba18e51e37bbc353",
                    "revert": false,
                    "revertMessage": "",
                    "selector": "0x70a08231",
                    "status": true,
                    "value": "0"
                },
                "nodeType": 0
            },
            "17": {
                "invocation": {
                    "address": "0xc02aaa39b223fe8d0a0e5c4f27ead9083c756cc2",
                    "callData": "0x0000000000000000000000001037fa1f40b69c9266c4aeb2abcedc7553614b4c",
                    "decodedMethod": {
                        "callParams": [
                            {
                                "name": "",
                                "type": "address",
                                "value": "0x1037fa1f40b69c9266c4aeb2abcedc7553614b4c"
                            }
                        ],
                        "constructorArguments": "",
                        "name": "balanceOf",
                        "returnParams": [
                            {
                                "decimalAvailable": true,
                                "name": "",
                                "type": "uint256",
                                "value": "362,094,073,981,665,055,550"
                            }
                        ],
                        "signature": "balanceOf(address)"
                    },
                    "errorInfo": "",
                    "fromAddress": "0x1037fa1f40b69c9266c4aeb2abcedc7553614b4c",
                    "gasUsed": 534,
                    "id": 17,
                    "methodDecoded": true,
                    "operation": "STATICCALL",
                    "output": "0x000000000000000000000000000000000000000000000013a11091d46728933e",
                    "revert": false,
                    "revertMessage": "",
                    "selector": "0x70a08231",
                    "status": true,
                    "value": "0"
                },
                "nodeType": 0
            },
            "18": {
                "event": {
                    "contract": "0x1037fa1f40b69c9266c4aeb2abcedc7553614b4c",
                    "decodedLog": {
                        "name": "Sync",
                        "params": [
                            {
                                "name": "reserve0",
                                "type": "uint112",
                                "value": "1,170,938,936,542,595,940,860,755"
                            },
                            {
                                "name": "reserve1",
                                "type": "uint112",
                                "value": "362,094,073,981,665,055,550"
                            }
                        ],
                        "signature": "Sync(uint112,uint112)"
                    },
                    "id": 18,
                    "logData": "0x00000000000000000000000000000000000000000000f7f4ba18e51e37bbc353000000000000000000000000000000000000000000000013a11091d46728933e",
                    "logDecoded": true,
                    "operation": "EVENT",
                    "revert": false,
                    "status": true,
                    "topics": [
                        "0x1c411e9a96e071241c2f21f7726b17ae89e3cab4c78be50e062b03a9fffbbad1"
                    ]
                },
                "nodeType": 1
            },
            "19": {
                "event": {
                    "contract": "0x1037fa1f40b69c9266c4aeb2abcedc7553614b4c",
                    "decodedLog": {
                        "name": "Swap",
                        "params": [
                            {
                                "name": "sender",
                                "type": "address",
                                "value": "0x7a250d5630b4cf539739df2c5dacb4c659f2488d"
                            },
                            {
                                "name": "to",
                                "type": "address",
                                "value": "0x2961ec328d00ab2381abcb155e1c195743b682de"
                            },
                            {
                                "name": "amount0In",
                                "type": "uint256",
                                "value": "0"
                            },
                            {
                                "name": "amount1In",
                                "type": "uint256",
                                "value": "1,664,657,199,208,033,393"
                            },
                            {
                                "name": "amount0Out",
                                "type": "uint256",
                                "value": "5,391,802,678,331,146,930,062"
                            },
                            {
                                "name": "amount1Out",
                                "type": "uint256",
                                "value": "0"
                            }
                        ],
                        "signature": "Swap(address,uint256,uint256,uint256,uint256,address)"
                    },
                    "id": 19,
                    "logData": "0x0000000000000000000000000000000000000000000000000000000000000000000000000000000000000000000000000000000000000000171a0ce727976c710000000000000000000000000000000000000000000001244a4b20f27fc6878e0000000000000000000000000000000000000000000000000000000000000000",
                    "logDecoded": true,
                    "operation": "EVENT",
                    "revert": false,
                    "status": true,
                    "topics": [
                        "0xd78ad95fa46c994b6551d0da85fc275fe613ce37657fb8d5e3d130840159d822",
                        "0x0000000000000000000000007a250d5630b4cf539739df2c5dacb4c659f2488d",
                        "0x0000000000000000000000002961ec328d00ab2381abcb155e1c195743b682de"
                    ]
                },
                "nodeType": 1
            },
            "2": {
                "invocation": {
                    "address": "0x1037fa1f40b69c9266c4aeb2abcedc7553614b4c",
                    "callData": "0x",
                    "decodedMethod": {
                        "callParams": [],
                        "constructorArguments": "",
                        "name": "getReserves",
                        "returnParams": [
                            {
                                "name": "_reserve0",
                                "type": "uint112",
                                "value": "1,176,330,739,220,927,087,790,817"
                            },
                            {
                                "name": "_reserve1",
                                "type": "uint112",
                                "value": "360,429,416,782,457,022,157"
                            },
                            {
                                "name": "_blockTimestampLast",
                                "type": "uint32",
                                "value": "1,618,789,681"
                            }
                        ],
                        "signature": "getReserves()"
                    },
                    "errorInfo": "",
                    "fromAddress": "0x7a250d5630b4cf539739df2c5dacb4c659f2488d",
                    "gasUsed": 2504,
                    "id": 2,
                    "methodDecoded": true,
                    "operation": "STATICCALL",
                    "output": "0x00000000000000000000000000000000000000000000f91904640610b7824ae100000000000000000000000000000000000000000000001389f684ed3f9126cd00000000000000000000000000000000000000000000000000000000607cc531",
                    "revert": false,
                    "revertMessage": "",
                    "selector": "0x0902f1ac",
                    "status": true,
                    "value": "0"
                },
                "nodeType": 0
            },
            "3": {
                "invocation": {
                    "address": "0xae1eaae3f627aaca434127644371b67b18444051",
                    "callData": "0x0000000000000000000000002961ec328d00ab2381abcb155e1c195743b682de000000000000000000000000d65e975c7d0d5871eff8b079120e43c9f377ada10000000000000000000000000000000000000000000000000000003789906211",
                    "decodedMethod": {
                        "callParams": [
                            {
                                "name": "sender",
                                "type": "address",
                                "value": "0x2961ec328d00ab2381abcb155e1c195743b682de"
                            },
                            {
                                "name": "recipient",
                                "type": "address",
                                "value": "0xd65e975c7d0d5871eff8b079120e43c9f377ada1"
                            },
                            {
                                "decimalAvailable": true,
                                "name": "amount",
                                "type": "uint256",
                                "value": "238,531,142,161"
                            }
                        ],
                        "constructorArguments": "",
                        "name": "transferFrom",
                        "returnParams": [
                            {
                                "name": "",
                                "type": "bool",
                                "value": true
                            }
                        ],
                        "signature": "transferFrom(address,address,uint256)"
                    },
                    "errorInfo": "",
                    "fromAddress": "0x7a250d5630b4cf539739df2c5dacb4c659f2488d",
                    "gasUsed": 20455,
                    "id": 3,
                    "methodDecoded": true,
                    "operation": "CALL",
                    "output": "0x0000000000000000000000000000000000000000000000000000000000000001",
                    "revert": false,
                    "revertMessage": "",
                    "selector": "0x23b872dd",
                    "status": true,
                    "value": "0"
                },
                "nodeType": 0
            },
            "4": {
                "event": {
                    "contract": "0xae1eaae3f627aaca434127644371b67b18444051",
                    "decodedLog": {
                        "name": "Transfer",
                        "params": [
                            {
                                "name": "from",
                                "type": "address",
                                "value": "0x2961ec328d00ab2381abcb155e1c195743b682de"
                            },
                            {
                                "name": "to",
                                "type": "address",
                                "value": "0xd65e975c7d0d5871eff8b079120e43c9f377ada1"
                            },
                            {
                                "decimalAvailable": true,
                                "name": "value",
                                "type": "uint256",
                                "value": "238,531,142,161"
                            }
                        ],
                        "signature": "Transfer(address,address,uint256)"
                    },
                    "id": 4,
                    "logData": "0x0000000000000000000000000000000000000000000000000000003789906211",
                    "logDecoded": true,
                    "operation": "EVENT",
                    "revert": false,
                    "status": true,
                    "topics": [
                        "0xddf252ad1be2c89b69c2b068fc378daa952ba7f163c4a11628f55a4df523b3ef",
                        "0x0000000000000000000000002961ec328d00ab2381abcb155e1c195743b682de",
                        "0x000000000000000000000000d65e975c7d0d5871eff8b079120e43c9f377ada1"
                    ]
                },
                "nodeType": 1
            },
            "5": {
                "event": {
                    "contract": "0xae1eaae3f627aaca434127644371b67b18444051",
                    "decodedLog": {
                        "name": "Approval",
                        "params": [
                            {
                                "name": "owner",
                                "type": "address",
                                "value": "0x2961ec328d00ab2381abcb155e1c195743b682de"
                            },
                            {
                                "name": "spender",
                                "type": "address",
                                "value": "0x7a250d5630b4cf539739df2c5dacb4c659f2488d"
                            },
                            {
                                "decimalAvailable": true,
                                "name": "value",
                                "type": "uint256",
                                "value": "115,792,089,237,316,195,423,570,985,008,687,907,853,269,984,665,640,564,039,457,584,007,174,598,497,774"
                            }
                        ],
                        "signature": "Approval(address,address,uint256)"
                    },
                    "id": 5,
                    "logData": "0xffffffffffffffffffffffffffffffffffffffffffffffffffffff540c1d15ee",
                    "logDecoded": true,
                    "operation": "EVENT",
                    "revert": false,
                    "status": true,
                    "topics": [
                        "0x8c5be1e5ebec7d5bd14f71427d1e84f3dd0314c0f7b2291e5b200ac8c7c3b925",
                        "0x0000000000000000000000002961ec328d00ab2381abcb155e1c195743b682de",
                        "0x0000000000000000000000007a250d5630b4cf539739df2c5dacb4c659f2488d"
                    ]
                },
                "nodeType": 1
            },
            "6": {
                "invocation": {
                    "address": "0xd65e975c7d0d5871eff8b079120e43c9f377ada1",
                    "callData": "0x0000000000000000000000000000000000000000000000000000000000000000000000000000000000000000000000000000000000000000171a0ce727976c710000000000000000000000001037fa1f40b69c9266c4aeb2abcedc7553614b4c00000000000000000000000000000000000000000000000000000000000000800000000000000000000000000000000000000000000000000000000000000000",
                    "decodedMethod": {
                        "callParams": [
                            {
                                "name": "amount0Out",
                                "type": "uint256",
                                "value": "0"
                            },
                            {
                                "name": "amount1Out",
                                "type": "uint256",
                                "value": "1,664,657,199,208,033,393"
                            },
                            {
                                "name": "to",
                                "type": "address",
                                "value": "0x1037fa1f40b69c9266c4aeb2abcedc7553614b4c"
                            },
                            {
                                "name": "data",
                                "type": "bytes",
                                "value": "0x"
                            }
                        ],
                        "constructorArguments": "",
                        "name": "swap",
                        "returnParams": [],
                        "signature": "swap(uint256,uint256,address,bytes)"
                    },
                    "errorInfo": "",
                    "fromAddress": "0x7a250d5630b4cf539739df2c5dacb4c659f2488d",
                    "gasUsed": 47750,
                    "id": 6,
                    "methodDecoded": true,
                    "operation": "CALL",
                    "output": "",
                    "revert": false,
                    "revertMessage": "",
                    "selector": "0x022c0d9f",
                    "status": true,
                    "value": "0"
                },
                "nodeType": 0
            },
            "7": {
                "invocation": {
                    "address": "0xc02aaa39b223fe8d0a0e5c4f27ead9083c756cc2",
                    "callData": "0x0000000000000000000000001037fa1f40b69c9266c4aeb2abcedc7553614b4c000000000000000000000000000000000000000000000000171a0ce727976c71",
                    "decodedMethod": {
                        "callParams": [
                            {
                                "name": "dst",
                                "type": "address",
                                "value": "0x1037fa1f40b69c9266c4aeb2abcedc7553614b4c"
                            },
                            {
                                "decimalAvailable": true,
                                "name": "wad",
                                "type": "uint256",
                                "value": "1,664,657,199,208,033,393"
                            }
                        ],
                        "constructorArguments": "",
                        "name": "transfer",
                        "returnParams": [
                            {
                                "name": "",
                                "type": "bool",
                                "value": true
                            }
                        ],
                        "signature": "transfer(address,uint256)"
                    },
                    "errorInfo": "",
                    "fromAddress": "0xd65e975c7d0d5871eff8b079120e43c9f377ada1",
                    "gasUsed": 12862,
                    "id": 7,
                    "methodDecoded": true,
                    "operation": "CALL",
                    "output": "0x0000000000000000000000000000000000000000000000000000000000000001",
                    "revert": false,
                    "revertMessage": "",
                    "selector": "0xa9059cbb",
                    "status": true,
                    "value": "0"
                },
                "nodeType": 0
            },
            "8": {
                "event": {
                    "contract": "0xc02aaa39b223fe8d0a0e5c4f27ead9083c756cc2",
                    "decodedLog": {
                        "name": "Transfer",
                        "params": [
                            {
                                "name": "src",
                                "type": "address",
                                "value": "0xd65e975c7d0d5871eff8b079120e43c9f377ada1"
                            },
                            {
                                "name": "dst",
                                "type": "address",
                                "value": "0x1037fa1f40b69c9266c4aeb2abcedc7553614b4c"
                            },
                            {
                                "decimalAvailable": true,
                                "name": "wad",
                                "type": "uint256",
                                "value": "1,664,657,199,208,033,393"
                            }
                        ],
                        "signature": "Transfer(address,address,uint256)"
                    },
                    "id": 8,
                    "logData": "0x000000000000000000000000000000000000000000000000171a0ce727976c71",
                    "logDecoded": true,
                    "operation": "EVENT",
                    "revert": false,
                    "status": true,
                    "topics": [
                        "0xddf252ad1be2c89b69c2b068fc378daa952ba7f163c4a11628f55a4df523b3ef",
                        "0x000000000000000000000000d65e975c7d0d5871eff8b079120e43c9f377ada1",
                        "0x0000000000000000000000001037fa1f40b69c9266c4aeb2abcedc7553614b4c"
                    ]
                },
                "nodeType": 1
            },
            "9": {
                "invocation": {
                    "address": "0xae1eaae3f627aaca434127644371b67b18444051",
                    "callData": "0x000000000000000000000000d65e975c7d0d5871eff8b079120e43c9f377ada1",
                    "decodedMethod": {
                        "callParams": [
                            {
                                "name": "account",
                                "type": "address",
                                "value": "0xd65e975c7d0d5871eff8b079120e43c9f377ada1"
                            }
                        ],
                        "constructorArguments": "",
                        "name": "balanceOf",
                        "returnParams": [
                            {
                                "decimalAvailable": true,
                                "name": "",
                                "type": "uint256",
                                "value": "83,598,599,509,883"
                            }
                        ],
                        "signature": "balanceOf(address)"
                    },
                    "errorInfo": "",
                    "fromAddress": "0xd65e975c7d0d5871eff8b079120e43c9f377ada1",
                    "gasUsed": 531,
                    "id": 9,
                    "methodDecoded": true,
                    "operation": "STATICCALL",
                    "output": "0x00000000000000000000000000000000000000000000000000004c0850d3d77b",
                    "revert": false,
                    "revertMessage": "",
                    "selector": "0x70a08231",
                    "status": true,
                    "value": "0"
                },
                "nodeType": 0
            }
        },
        "gasFlame": [
            {
                "children": [
                    {
                        "children": [
                            {
                                "children": [],
                                "depth": 0,
                                "name": "Initial Gas",
                                "value": 23416
                            },
                            {
                                "children": [
                                    {
                                        "children": [],
                                        "depth": 1,
                                        "name": "getReserves",
                                        "value": 2504
                                    },
                                    {
                                        "children": [],
                                        "depth": 1,
                                        "name": "getReserves",
                                        "value": 2504
                                    },
                                    {
                                        "children": [],
                                        "depth": 1,
                                        "name": "transferFrom",
                                        "value": 20455
                                    },
                                    {
                                        "children": [
                                            {
                                                "children": [],
                                                "depth": 2,
                                                "name": "transfer",
                                                "value": 12862
                                            },
                                            {
                                                "children": [],
                                                "depth": 2,
                                                "name": "balanceOf",
                                                "value": 531
                                            },
                                            {
                                                "children": [],
                                                "depth": 2,
                                                "name": "balanceOf",
                                                "value": 534
                                            }
                                        ],
                                        "depth": 1,
                                        "name": "swap",
                                        "value": 47750
                                    },
                                    {
                                        "children": [
                                            {
                                                "children": [],
                                                "depth": 2,
                                                "name": "transfer",
                                                "value": 30067
                                            },
                                            {
                                                "children": [],
                                                "depth": 2,
                                                "name": "balanceOf",
                                                "value": 467
                                            },
                                            {
                                                "children": [],
                                                "depth": 2,
                                                "name": "balanceOf",
                                                "value": 534
                                            }
                                        ],
                                        "depth": 1,
                                        "name": "swap",
                                        "value": 64891
                                    }
                                ],
                                "depth": 0,
                                "name": "Executed Gas",
                                "value": 158352
                            }
                        ],
                        "depth": -1,
                        "name": "Actual Gas Used",
                        "value": 161168
                    },
                    {
                        "children": [],
                        "depth": -1,
                        "name": "Refunded Gas",
                        "value": 20600
                    }
                ],
                "depth": -2,
                "name": "Total Gas",
                "value": 181768
            }
        ],
        "isConfirmed": true,
        "mainTrace": [
            {
                "children": [
                    {
                        "children": [
                            {
                                "children": [],
                                "depth": 1,
                                "id": 1,
                                "order": 1
                            },
                            {
                                "children": [],
                                "depth": 1,
                                "id": 2,
                                "order": 2
                            },
                            {
                                "children": [
                                    {
                                        "children": [],
                                        "depth": 2,
                                        "id": 4,
                                        "order": 4
                                    },
                                    {
                                        "children": [],
                                        "depth": 2,
                                        "id": 5,
                                        "order": 5
                                    }
                                ],
                                "depth": 1,
                                "id": 3,
                                "order": 3
                            },
                            {
                                "children": [
                                    {
                                        "children": [
                                            {
                                                "children": [],
                                                "depth": 3,
                                                "id": 8,
                                                "order": 8
                                            }
                                        ],
                                        "depth": 2,
                                        "id": 7,
                                        "order": 7
                                    },
                                    {
                                        "children": [],
                                        "depth": 2,
                                        "id": 9,
                                        "order": 9
                                    },
                                    {
                                        "children": [],
                                        "depth": 2,
                                        "id": 10,
                                        "order": 10
                                    },
                                    {
                                        "children": [],
                                        "depth": 2,
                                        "id": 11,
                                        "order": 11
                                    },
                                    {
                                        "children": [],
                                        "depth": 2,
                                        "id": 12,
                                        "order": 12
                                    }
                                ],
                                "depth": 1,
                                "id": 6,
                                "order": 6
                            },
                            {
                                "children": [
                                    {
                                        "children": [
                                            {
                                                "children": [],
                                                "depth": 3,
                                                "id": 15,
                                                "order": 15
                                            }
                                        ],
                                        "depth": 2,
                                        "id": 14,
                                        "order": 14
                                    },
                                    {
                                        "children": [],
                                        "depth": 2,
                                        "id": 16,
                                        "order": 16
                                    },
                                    {
                                        "children": [],
                                        "depth": 2,
                                        "id": 17,
                                        "order": 17
                                    },
                                    {
                                        "children": [],
                                        "depth": 2,
                                        "id": 18,
                                        "order": 18
                                    },
                                    {
                                        "children": [],
                                        "depth": 2,
                                        "id": 19,
                                        "order": 19
                                    }
                                ],
                                "depth": 1,
                                "id": 13,
                                "order": 13
                            }
                        ],
                        "depth": 0,
                        "id": 0,
                        "order": 0
                    }
                ],
                "depth": -1,
                "id": -1,
                "order": -1
            }
        ],
        "mainTraceNodeCount": 20,
        "parentIdMap": {
            "0": -1,
            "1": 0,
            "10": 6,
            "11": 6,
            "12": 6,
            "13": 0,
            "14": 13,
            "15": 14,
            "16": 13,
            "17": 13,
            "18": 13,
            "19": 13,
            "2": 0,
            "3": 0,
            "4": 3,
            "5": 3,
            "6": 0,
            "7": 6,
            "8": 7,
            "9": 6
        },
        "tidyTrace": [
            {
                "children": [
                    {
                        "children": [
                            {
                                "children": [
                                    {
                                        "children": [],
                                        "depth": 2,
                                        "id": 4,
                                        "order": 4
                                    },
                                    {
                                        "children": [],
                                        "depth": 2,
                                        "id": 5,
                                        "order": 5
                                    }
                                ],
                                "depth": 1,
                                "id": 3,
                                "order": 3
                            },
                            {
                                "children": [
                                    {
                                        "children": [
                                            {
                                                "children": [],
                                                "depth": 3,
                                                "id": 8,
                                                "order": 8
                                            }
                                        ],
                                        "depth": 2,
                                        "id": 7,
                                        "order": 7
                                    },
                                    {
                                        "children": [],
                                        "depth": 2,
                                        "id": 11,
                                        "order": 11
                                    },
                                    {
                                        "children": [],
                                        "depth": 2,
                                        "id": 12,
                                        "order": 12
                                    }
                                ],
                                "depth": 1,
                                "id": 6,
                                "order": 6
                            },
                            {
                                "children": [
                                    {
                                        "children": [
                                            {
                                                "children": [],
                                                "depth": 3,
                                                "id": 15,
                                                "order": 15
                                            }
                                        ],
                                        "depth": 2,
                                        "id": 14,
                                        "order": 14
                                    },
                                    {
                                        "children": [],
                                        "depth": 2,
                                        "id": 18,
                                        "order": 18
                                    },
                                    {
                                        "children": [],
                                        "depth": 2,
                                        "id": 19,
                                        "order": 19
                                    }
                                ],
                                "depth": 1,
                                "id": 13,
                                "order": 13
                            }
                        ],
                        "depth": 0,
                        "id": 0,
                        "order": 0
                    }
                ],
                "depth": -1,
                "id": -1,
                "order": -1
            }
        ],
        "tidyTraceNodeCount": 14
    },
    "state_change": {
        "stateChanges": [
            {
                "address": "0x038a68ff68c393373ec894015816e33ad41bd564",
                "erc": "ERC-20",
                "slots": [
                    {
                        "current": "0x00000000000000000000000000000000000000000000f7f4ba18e51e37bbc353",
                        "key": "0x0e8aefde9d02995c23dfa55c952568932b9d60f541ca72a0709ee9a5dd59a62d",
                        "prev": "0x00000000000000000000000000000000000000000000f91904640610b7824ae1"
                    },
                    {
                        "current": "0x0000000000000000000000000000000000000000000001244a4b20f27fc6878e",
                        "key": "0x357953bd873d6f3f17be5ee3ebb5b7b7a970b6bd5a24a70556b037cc1c10df82",
                        "prev": "0x0000000000000000000000000000000000000000000000000000000000000000"
                    }
                ],
                "storageVariables": [
                    {
                        "name": "_balances",
                        "type": "mapping(address => uint256)",
                        "value": {
                            "pairs": [
                                {
                                    "key": "0x1037fa1f40b69c9266c4aeb2abcedc7553614b4c",
                                    "value": {
                                        "current": "1170938936542595940860755",
                                        "prev": "1176330739220927087790817",
                                        "typeTag": 1
                                    }
                                },
                                {
                                    "key": "0x2961ec328d00ab2381abcb155e1c195743b682de",
                                    "value": {
                                        "current": "5391802678331146930062",
                                        "prev": "0",
                                        "typeTag": 1
                                    }
                                }
                            ],
                            "typeTag": 4
                        }
                    }
                ]
            },
            {
                "address": "0x1037fa1f40b69c9266c4aeb2abcedc7553614b4c",
                "erc": "ERC-20",
                "slots": [
                    {
                        "current": "0x00000000000000000000000000000000040c8d920f3ba825f75036a5d82c99f7",
                        "key": "0x0000000000000000000000000000000000000000000000000000000000000009",
                        "prev": "0x00000000000000000000000000000000040c865aab71cbf21c7efacbc677b263"
                    },
                    {
                        "current": "0x000000000000000000000000001cdbdbf170c3b9d73a8f50138ec76f876ada20",
                        "key": "0x000000000000000000000000000000000000000000000000000000000000000a",
                        "prev": "0x000000000000000000000000001cdbd75c8d10e9e8d70b4aedc2780197c2795c"
                    },
                    {
                        "current": "0x607cc58d000000000013a11091d46728933e00000000f7f4ba18e51e37bbc353",
                        "key": "0x0000000000000000000000000000000000000000000000000000000000000008",
                        "prev": "0x607cc53100000000001389f684ed3f9126cd00000000f91904640610b7824ae1"
                    }
                ],
                "storageVariables": [
                    {
                        "name": "reserve0",
                        "type": "uint112",
                        "value": {
                            "current": "1170938936542595940860755",
                            "prev": "1176330739220927087790817",
                            "typeTag": 1
                        }
                    },
                    {
                        "name": "reserve1",
                        "type": "uint112",
                        "value": {
                            "current": "362094073981665055550",
                            "prev": "360429416782457022157",
                            "typeTag": 1
                        }
                    },
                    {
                        "name": "blockTimestampLast",
                        "type": "uint32",
                        "value": {
                            "current": "1618789773",
                            "prev": "1618789681",
                            "typeTag": 1
                        }
                    },
                    {
                        "name": "price0CumulativeLast",
                        "type": "uint256",
                        "value": {
                            "current": "5382090937222319219877555208178145783",
                            "prev": "5381944571923105434412689005311668835",
                            "typeTag": 1
                        }
                    },
                    {
                        "name": "price1CumulativeLast",
                        "type": "uint256",
                        "value": {
                            "current": "643573298945722653515584088194975507711449632",
                            "prev": "643571739908233463789945282248260703335119196",
                            "typeTag": 1
                        }
                    }
                ]
            },
            {
                "address": "0xae1eaae3f627aaca434127644371b67b18444051",
                "erc": "ERC-20",
                "slots": [
                    {
                        "current": "0x0000000000000000000000000000000000000000000000000000000000000000",
                        "key": "0x7f8b8ea50ec05cd53b773d5f29b265ab780cfa3b731af1e87659546ff75f7f75",
                        "prev": "0x0000000000000000000000000000000000000000000000000000003789906211"
                    },
                    {
                        "current": "0x00000000000000000000000000000000000000000000000000004c0850d3d77b",
                        "key": "0xf97afa76c28180460b20cf1e4a04537713c21061488f28d7ff70ee21b31d5ec6",
                        "prev": "0x00000000000000000000000000000000000000000000000000004bd0c743756a"
                    },
                    {
                        "current": "0xffffffffffffffffffffffffffffffffffffffffffffffffffffff540c1d15ee",
                        "key": "0xff0db516c5121f69ad405a62db62a29d81f53351e6b437b0bab3cb5a4aeb8a58",
                        "prev": "0xffffffffffffffffffffffffffffffffffffffffffffffffffffff8b95ad77ff"
                    }
                ],
                "storageVariables": [
                    {
                        "name": "_allowances",
                        "type": "mapping(address => mapping(address => uint256))",
                        "value": {
                            "pairs": [
                                {
                                    "key": "0x2961ec328d00ab2381abcb155e1c195743b682de",
                                    "value": {
                                        "pairs": [
                                            {
                                                "key": "0x7a250d5630b4cf539739df2c5dacb4c659f2488d",
                                                "value": {
                                                    "current": "115792089237316195423570985008687907853269984665640564039457584007174598497774",
                                                    "prev": "115792089237316195423570985008687907853269984665640564039457584007413129639935",
                                                    "typeTag": 1
                                                }
                                            }
                                        ],
                                        "typeTag": 4
                                    }
                                }
                            ],
                            "typeTag": 4
                        }
                    },
                    {
                        "name": "_balances",
                        "type": "mapping(address => uint256)",
                        "value": {
                            "pairs": [
                                {
                                    "key": "0x2961ec328d00ab2381abcb155e1c195743b682de",
                                    "value": {
                                        "current": "0",
                                        "prev": "238531142161",
                                        "typeTag": 1
                                    }
                                },
                                {
                                    "key": "0xd65e975c7d0d5871eff8b079120e43c9f377ada1",
                                    "value": {
                                        "current": "83598599509883",
                                        "prev": "83360068367722",
                                        "typeTag": 1
                                    }
                                }
                            ],
                            "typeTag": 4
                        }
                    }
                ]
            },
            {
                "address": "0xc02aaa39b223fe8d0a0e5c4f27ead9083c756cc2",
                "erc": "ERC-20",
                "slots": [
                    {
                        "current": "0x000000000000000000000000000000000000000000000013a11091d46728933e",
                        "key": "0x1b178fac06983f31f2a6ad3967f006ac42ae14b57416f6747ecbe2cbf9ae677d",
                        "prev": "0x00000000000000000000000000000000000000000000001389f684ed3f9126cd"
                    },
                    {
                        "current": "0x00000000000000000000000000000000000000000000001fa1b8e033f32f7af5",
                        "key": "0x88209b72d366f9139c29dea1b0e4def764946acf7c0430a79a2f74b2364e109b",
                        "prev": "0x00000000000000000000000000000000000000000000001fb8d2ed1b1ac6e766"
                    }
                ],
                "storageVariables": [
                    {
                        "name": "balanceOf",
                        "type": "mapping(address => uint256)",
                        "value": {
                            "pairs": [
                                {
                                    "key": "0x1037fa1f40b69c9266c4aeb2abcedc7553614b4c",
                                    "value": {
                                        "current": "362094073981665055550",
                                        "prev": "360429416782457022157",
                                        "typeTag": 1
                                    }
                                },
                                {
                                    "key": "0xd65e975c7d0d5871eff8b079120e43c9f377ada1",
                                    "value": {
                                        "current": "583502376834545187573",
                                        "prev": "585167034033753220966",
                                        "typeTag": 1
                                    }
                                }
                            ],
                            "typeTag": 4
                        }
                    }
                ]
            },
            {
                "address": "0xd65e975c7d0d5871eff8b079120e43c9f377ada1",
                "erc": "ERC-20",
                "slots": [
                    {
                        "current": "0x0000000000000000000000004ccd93bbb07652d33c94e9c2ee56ef2da7dafe7f",
                        "key": "0x0000000000000000000000000000000000000000000000000000000000000009",
                        "prev": "0x0000000000000000000000004cca53ef3449224aae4bc988235bb2cd0878fc2b"
                    },
                    {
                        "current": "0x000000000000000000000000000000000000defaa820f6b0ef970d932b227bc0",
                        "key": "0x000000000000000000000000000000000000000000000000000000000000000a",
                        "prev": "0x000000000000000000000000000000000000dee818ce77e75f342265d386dca0"
                    },
                    {
                        "current": "0x607cc58d00000000001fa1b8e033f32f7af500000000000000004c0850d3d77b",
                        "key": "0x0000000000000000000000000000000000000000000000000000000000000008",
                        "prev": "0x607cbdc900000000001fb8d2ed1b1ac6e76600000000000000004bd0c743756a"
                    }
                ],
                "storageVariables": [
                    {
                        "name": "reserve0",
                        "type": "uint112",
                        "value": {
                            "current": "83598599509883",
                            "prev": "83360068367722",
                            "typeTag": 1
                        }
                    },
                    {
                        "name": "reserve1",
                        "type": "uint112",
                        "value": {
                            "current": "583502376834545187573",
                            "prev": "585167034033753220966",
                            "typeTag": 1
                        }
                    },
                    {
                        "name": "blockTimestampLast",
                        "type": "uint32",
                        "value": {
                            "current": "1618789773",
                            "prev": "1618787785",
                            "typeTag": 1
                        }
                    },
                    {
                        "name": "price0CumulativeLast",
                        "type": "uint256",
                        "value": {
                            "current": "438467820721703662738414697078621240076361465471",
                            "prev": "438395360829432608891314818206500682960819780651",
                            "typeTag": 1
                        }
                    },
                    {
                        "name": "price1CumulativeLast",
                        "type": "uint256",
                        "value": {
                            "current": "4522554005971479178179883013667776",
                            "prev": "4521083542959164382821719181024416",
                            "typeTag": 1
                        }
                    }
                ]
            }
        ]
    }
}