{
    "balance_change": {
        "balanceChanges": [
            {
                "account": "0x89e51fa8ca5d66cd220baed62ed01e8951aa7c40",
                "assets": [
                    {
                        "address": "0xdac17f958d2ee523a2206206994597c13d831ec7",
                        "amount": "79,500",
                        "iconUrl": "https://assets.blocksec.com/icon/fcea71f3193ce895be44bfdf941f7e4c9381dd587f273c2d1a27f1263d84e4ea.png",
                        "isERC1155": false,
                        "isERC721": false,
                        "sign": true,
                        "value": "79500"
                    }
                ]
            },
            {
                "account": "0xcf3ce7d9d174ca2e3636119ba4ffda1fd8619f06",
                "assets": [
                    {
                        "address": "0xdac17f958d2ee523a2206206994597c13d831ec7",
                        "amount": "79,500",
                        "iconUrl": "https://assets.blocksec.com/icon/fcea71f3193ce895be44bfdf941f7e4c9381dd587f273c2d1a27f1263d84e4ea.png",
                        "isERC1155": false,
                        "isERC721": false,
                        "sign": false,
                        "value": "79500"
                    }
                ]
            }
        ]
    },
    "profile": {
        "basic_info": {
            "baseFee": "38.149540889",
            "blockNumber": 18562920,
            "callData": "0xc658695c000000000000000000000000dac17f958d2ee523a2206206994597c13d831ec7000000000000000000000000da59e33896b21e5f9a748eeb97954c336b8b7a7f000000000000000000000000cf3ce7d9d174ca2e3636119ba4ffda1fd8619f06000000000000000000000000000000000000000000000000000000128291bb0000000000000000000000000000000000000000000000000000000000000000a000000000000000000000000000000000000000000000000000000000000000010000000000000000000000000000000000000000000000000000000000000000",
            "debugEnable": true,
            "errorInfo": "",
            "eventCount": 2,
            "feeRecipient": "0x4838b106fce9647bdf1e7877bf73ce8b0bad5f97",
            "formatValue": "0",
            "gasLimit": 500000,
            "gasPrice": "40.149540889",
            "gasUsed": 68905,
            "intTxnCount": 5,
            "internalRevert": false,
            "internalRevertMessage": "",
            "isContractCreation": false,
            "isFlashloan": false,
            "maxFee": "156.357246622",
            "nonce": 1815433,
            "overwritedBlockNumber": -1,
            "priorityFee": "2",
            "receiver": "0xa24787320ede4cc19d800bf87b41ab9539c4da9d",
            "revertMessage": "",
            "sender": "0x89e51fa8ca5d66cd220baed62ed01e8951aa7c40",
            "simulationEnable": true,
            "sourceTxnHash": "0x8ddc8b59c5fb812c6224db933ffb9e459eb121829ad993c39fb1ed597e8a072e",
            "status": true,
            "timestamp": "2023-11-13T12:15:47Z",
            "transactionFee": "0.002766504114956545",
            "txnHash": "0x8ddc8b59c5fb812c6224db933ffb9e459eb121829ad993c39fb1ed597e8a072e",
            "txnIndex": 38,
            "type": 2,
            "value": "0"
        },
        "fund_flow": [
            {
                "amount": "79,500",
                "from": "0xcf3ce7d9d174ca2e3636119ba4ffda1fd8619f06",
                "id": 1,
                "isERC1155": false,
                "isERC721": false,
                "isReverted": false,
                "order": 1,
                "to": "0x89e51fa8ca5d66cd220baed62ed01e8951aa7c40",
                "token": "0xdac17f958d2ee523a2206206994597c13d831ec7"
            }
        ],
        "token_infos": [
            {
                "address": "0xc02aaa39b223fe8d0a0e5c4f27ead9083c756cc2",
                "decimals": 18
            },
            {
                "address": "0xdac17f958d2ee523a2206206994597c13d831ec7",
                "decimals": 6
            },
            {
                "address": "0xeeeeeeeeeeeeeeeeeeeeeeeeeeeeeeeeeeeeeeee",
                "decimals": 18
            }
        ]
    },
    "address_label": {
        "labels": [
            {
                "address": "0x89e51fa8ca5d66cd220baed62ed01e8951aa7c40",
                "label": "Kraken 7"
            },
            {
                "address": "0xdac17f958d2ee523a2206206994597c13d831ec7",
                "label": "Tether: USDT Stablecoin"
            },
            {
                "address": "0x0000000000000000000000000000000000000001",
                "label": "Precompiled"
            },
            {
                "address": "0x0000000000000000000000000000000000000002",
                "label": "Precompiled"
            },
            {
                "address": "0x0000000000000000000000000000000000000003",
                "label": "Precompiled"
            },
            {
                "address": "0xcf3ce7d9d174ca2e3636119ba4ffda1fd8619f06",
                "label": "KRAKEN"
            },
            {
                "address": "0xa24787320ede4cc19d800bf87b41ab9539c4da9d",
                "label": "Kraken: Deployer 2"
            },
            {
                "address": "0x0000000000000000000000000000000000000004",
                "label": "Precompiled"
            },
            {
                "address": "0xeeeeeeeeeeeeeeeeeeeeeeeeeeeeeeeeeeeeeeee",
                "label": "Ether"
            }
        ]
    },
    "trace": {
        "accountLabels": null,
        "dataMap": {
            "-1": {
                "invocation": {
                    "address": "0x89e51fa8ca5d66cd220baed62ed01e8951aa7c40",
                    "callData": "",
                    "decodedMethod": null,
                    "errorInfo": "",
                    "fromAddress": "",
                    "gasUsed": 0,
                    "id": -1,
                    "methodDecoded": false,
                    "operation": "",
                    "output": "",
                    "revert": false,
                    "revertMessage": "",
                    "selector": "",
                    "status": false,
                    "value": ""
                },
                "nodeType": 0
            },
            "0": {
                "invocation": {
                    "address": "0xa24787320ede4cc19d800bf87b41ab9539c4da9d",
                    "callData": "0x000000000000000000000000dac17f958d2ee523a2206206994597c13d831ec7000000000000000000000000da59e33896b21e5f9a748eeb97954c336b8b7a7f000000000000000000000000cf3ce7d9d174ca2e3636119ba4ffda1fd8619f06000000000000000000000000000000000000000000000000000000128291bb0000000000000000000000000000000000000000000000000000000000000000a000000000000000000000000000000000000000000000000000000000000000010000000000000000000000000000000000000000000000000000000000000000",
                    "decodedMethod": null,
                    "errorInfo": "",
                    "fromAddress": "0x89e51fa8ca5d66cd220baed62ed01e8951aa7c40",
                    "gasUsed": 68905,
                    "id": 0,
                    "methodDecoded": false,
                    "operation": "CALL",
                    "output": "",
                    "revert": false,
                    "revertMessage": "",
                    "selector": "0xc658695c",
                    "status": true,
                    "value": "0"
                },
                "nodeType": 0
            },
            "1": {
                "invocation": {
                    "address": "0x2febe3d60bb2bbdab135c740617241c2eb949635",
                    "callData": "0x000000000000000000000000dac17f958d2ee523a2206206994597c13d831ec7000000000000000000000000da59e33896b21e5f9a748eeb97954c336b8b7a7f000000000000000000000000cf3ce7d9d174ca2e3636119ba4ffda1fd8619f06000000000000000000000000000000000000000000000000000000128291bb0000000000000000000000000000000000000000000000000000000000000000a000000000000000000000000000000000000000000000000000000000000000010000000000000000000000000000000000000000000000000000000000000000",
                    "decodedMethod": null,
                    "errorInfo": "",
                    "fromAddress": "0xa24787320ede4cc19d800bf87b41ab9539c4da9d",
                    "gasUsed": 43691,
                    "id": 1,
                    "methodDecoded": false,
                    "operation": "DELEGATECALL",
                    "output": "",
                    "revert": false,
                    "revertMessage": "",
                    "selector": "0xc658695c",
                    "status": true,
                    "value": "0"
                },
                "nodeType": 0
            },
            "2": {
                "invocation": {
                    "address": "0xcf3ce7d9d174ca2e3636119ba4ffda1fd8619f06",
                    "callData": "0x000000000000000000000000dac17f958d2ee523a2206206994597c13d831ec7000000000000000000000000da59e33896b21e5f9a748eeb97954c336b8b7a7f00000000000000000000000089e51fa8ca5d66cd220baed62ed01e8951aa7c40000000000000000000000000000000000000000000000000000000128291bb0000000000000000000000000000000000000000000000000000000000000000a000000000000000000000000000000000000000000000000000000000000000010000000000000000000000000000000000000000000000000000000000000000",
                    "decodedMethod": null,
                    "errorInfo": "",
                    "fromAddress": "0xa24787320ede4cc19d800bf87b41ab9539c4da9d",
                    "gasUsed": 35566,
                    "id": 2,
                    "methodDecoded": false,
                    "operation": "CALL",
                    "output": "",
                    "revert": false,
                    "revertMessage": "",
                    "selector": "0xc658695c",
                    "status": true,
                    "value": "0"
                },
                "nodeType": 0
            },
            "3": {
                "invocation": {
                    "address": "0xd332254f274cc65aa11178b74734e2992b8f349e",
                    "callData": "0x000000000000000000000000dac17f958d2ee523a2206206994597c13d831ec7000000000000000000000000da59e33896b21e5f9a748eeb97954c336b8b7a7f00000000000000000000000089e51fa8ca5d66cd220baed62ed01e8951aa7c40000000000000000000000000000000000000000000000000000000128291bb0000000000000000000000000000000000000000000000000000000000000000a000000000000000000000000000000000000000000000000000000000000000010000000000000000000000000000000000000000000000000000000000000000",
                    "decodedMethod": null,
                    "errorInfo": "",
                    "fromAddress": "0xcf3ce7d9d174ca2e3636119ba4ffda1fd8619f06",
                    "gasUsed": 32861,
                    "id": 3,
                    "methodDecoded": false,
                    "operation": "DELEGATECALL",
                    "output": "",
                    "revert": false,
                    "revertMessage": "",
                    "selector": "0xc658695c",
                    "status": true,
                    "value": "0"
                },
                "nodeType": 0
            },
            "4": {
                "invocation": {
                    "address": "0xda59e33896b21e5f9a748eeb97954c336b8b7a7f",
                    "callData": "0x000000000000000000000000dac17f958d2ee523a2206206994597c13d831ec7000000000000000000000000da59e33896b21e5f9a748eeb97954c336b8b7a7f00000000000000000000000089e51fa8ca5d66cd220baed62ed01e8951aa7c40000000000000000000000000000000000000000000000000000000128291bb0000000000000000000000000000000000000000000000000000000000000000a000000000000000000000000000000000000000000000000000000000000000010000000000000000000000000000000000000000000000000000000000000000",
                    "decodedMethod": null,
                    "errorInfo": "",
                    "fromAddress": "0xcf3ce7d9d174ca2e3636119ba4ffda1fd8619f06",
                    "gasUsed": 29725,
                    "id": 4,
                    "methodDecoded": false,
                    "operation": "DELEGATECALL",
                    "output": "",
                    "revert": false,
                    "revertMessage": "",
                    "selector": "0xc658695c",
                    "status": true,
                    "value": "0"
                },
                "nodeType": 0
            },
            "5": {
                "invocation": {
                    "address": "0xdac17f958d2ee523a2206206994597c13d831ec7",
                    "callData": "0x00000000000000000000000089e51fa8ca5d66cd220baed62ed01e8951aa7c40000000000000000000000000000000000000000000000000000000128291bb00",
                    "decodedMethod": {
                        "callParams": [
                            {
                                "name": "_to",
                                "type": "address",
                                "value": "0x89e51fa8ca5d66cd220baed62ed01e8951aa7c40"
                            },
                            {
                                "decimalAvailable": true,
                                "name": "_value",
                                "type": "uint256",
                                "value": "79,500,000,000"
                            }
                        ],
                        "constructorArguments": "",
                        "name": "transfer",
                        "returnParams": [],
                        "signature": "transfer(address,uint256)"
                    },
                    "errorInfo": "",
                    "fromAddress": "0xcf3ce7d9d174ca2e3636119ba4ffda1fd8619f06",
                    "gasUsed": 24501,
                    "id": 5,
                    "methodDecoded": true,
                    "operation": "CALL",
                    "output": "",
                    "revert": false,
                    "revertMessage": "",
                    "selector": "0xa9059cbb",
                    "status": true,
                    "value": "0"
                },
                "nodeType": 0
            },
            "6": {
                "event": {
                    "contract": "0xdac17f958d2ee523a2206206994597c13d831ec7",
                    "decodedLog": {
                        "name": "Transfer",
                        "params": [
                            {
                                "name": "from",
                                "type": "address",
                                "value": "0xcf3ce7d9d174ca2e3636119ba4ffda1fd8619f06"
                            },
                            {
                                "name": "to",
                                "type": "address",
                                "value": "0x89e51fa8ca5d66cd220baed62ed01e8951aa7c40"
                            },
                            {
                                "decimalAvailable": true,
                                "name": "value",
                                "type": "uint256",
                                "value": "79,500,000,000"
                            }
                        ],
                        "signature": "Transfer(address,address,uint256)"
                    },
                    "id": 6,
                    "logData": "0x000000000000000000000000000000000000000000000000000000128291bb00",
                    "logDecoded": true,
                    "operation": "EVENT",
                    "revert": false,
                    "status": true,
                    "topics": [
                        "0xddf252ad1be2c89b69c2b068fc378daa952ba7f163c4a11628f55a4df523b3ef",
                        "0x000000000000000000000000cf3ce7d9d174ca2e3636119ba4ffda1fd8619f06",
                        "0x00000000000000000000000089e51fa8ca5d66cd220baed62ed01e8951aa7c40"
                    ]
                },
                "nodeType": 1
            },
            "7": {
                "event": {
                    "contract": "0xcf3ce7d9d174ca2e3636119ba4ffda1fd8619f06",
                    "decodedLog": {
                        "name": "TokenTransfer",
                        "params": [
                            {
                                "name": "from",
                                "type": "address",
                                "value": "0xdac17f958d2ee523a2206206994597c13d831ec7"
                            },
                            {
                                "name": "to",
                                "type": "address",
                                "value": "0x89e51fa8ca5d66cd220baed62ed01e8951aa7c40"
                            },
                            {
                                "name": "amount",
                                "type": "uint256",
                                "value": "79,500,000,000"
                            }
                        ],
                        "signature": "TokenTransfer(address,address,uint256)"
                    },
                    "id": 7,
                    "logData": "0x000000000000000000000000000000000000000000000000000000128291bb00",
                    "logDecoded": true,
                    "operation": "EVENT",
                    "revert": false,
                    "status": true,
                    "topics": [
                        "0xd0ed88a3f042c6bbb1e3ea406079b5f2b4b198afccaa535d837f4c63abbc4de6",
                        "0x000000000000000000000000dac17f958d2ee523a2206206994597c13d831ec7",
                        "0x00000000000000000000000089e51fa8ca5d66cd220baed62ed01e8951aa7c40"
                    ]
                },
                "nodeType": 1
            }
        },
        "gasFlame": [
            {
                "children": [
                    {
                        "children": [
                            {
                                "children": [],
                                "depth": 0,
                                "name": "Initial Gas",
                                "value": 22752
                            },
                            {
                                "children": [
                                    {
                                        "children": [
                                            {
                                                "children": [
                                                    {
                                                        "children": [
                                                            {
                                                                "children": [
                                                                    {
                                                                        "children": [],
                                                                        "depth": 5,
                                                                        "name": "transfer",
                                                                        "value": 24501
                                                                    }
                                                                ],
                                                                "depth": 4,
                                                                "name": "0xc658695c",
                                                                "value": 29725
                                                            }
                                                        ],
                                                        "depth": 3,
                                                        "name": "0xc658695c",
                                                        "value": 32861
                                                    }
                                                ],
                                                "depth": 2,
                                                "name": "0xc658695c",
                                                "value": 35566
                                            }
                                        ],
                                        "depth": 1,
                                        "name": "0xc658695c",
                                        "value": 43691
                                    }
                                ],
                                "depth": 0,
                                "name": "Executed Gas",
                                "value": 50953
                            }
                        ],
                        "depth": -1,
                        "name": "Actual Gas Used",
                        "value": 68905
                    },
                    {
                        "children": [],
                        "depth": -1,
                        "name": "Refunded Gas",
                        "value": 4800
                    }
                ],
                "depth": -2,
                "name": "Total Gas",
                "value": 73705
            }
        ],
        "isConfirmed": true,
        "mainTrace": [
            {
                "children": [
                    {
                        "children": [
                            {
                                "children": [
                                    {
                                        "children": [
                                            {
                                                "children": [
                                                    {
                                                        "children": [
                                                            {
                                                                "children": [
                                                                    {
                                                                        "children": [],
                                                                        "depth": 6,
                                                                        "id": 6,
                                                                        "order": 6
                                                                    }
                                                                ],
                                                                "depth": 5,
                                                                "id": 5,
                                                                "order": 5
                                                            },
                                                            {
                                                                "children": [],
                                                                "depth": 5,
                                                                "id": 7,
                                                                "order": 7
                                                            }
                                                        ],
                                                        "depth": 4,
                                                        "id": 4,
                                                        "order": 4
                                                    }
                                                ],
                                                "depth": 3,
                                                "id": 3,
                                                "order": 3
                                            }
                                        ],
                                        "depth": 2,
                                        "id": 2,
                                        "order": 2
                                    }
                                ],
                                "depth": 1,
                                "id": 1,
                                "order": 1
                            }
                        ],
                        "depth": 0,
                        "id": 0,
                        "order": 0
                    }
                ],
                "depth": -1,
                "id": -1,
                "order": -1
            }
        ],
        "mainTraceNodeCount": 8,
        "parentIdMap": {
            "0": -1,
            "1": 0,
            "2": 1,
            "3": 2,
            "4": 3,
            "5": 4,
            "6": 5,
            "7": 4
        },
        "tidyTrace": [
            {
                "children": [
                    {
                        "children": [
                            {
                                "children": [
                                    {
                                        "children": [
                                            {
                                                "children": [
                                                    {
                                                        "children": [
                                                            {
                                                                "children": [
                                                                    {
                                                                        "children": [],
                                                                        "depth": 6,
                                                                        "id": 6,
                                                                        "order": 6
                                                                    }
                                                                ],
                                                                "depth": 5,
                                                                "id": 5,
                                                                "order": 5
                                                            },
                                                            {
                                                                "children": [],
                                                                "depth": 5,
                                                                "id": 7,
                                                                "order": 7
                                                            }
                                                        ],
                                                        "depth": 4,
                                                        "id": 4,
                                                        "order": 4
                                                    }
                                                ],
                                                "depth": 3,
                                                "id": 3,
                                                "order": 3
                                            }
                                        ],
                                        "depth": 2,
                                        "id": 2,
                                        "order": 2
                                    }
                                ],
                                "depth": 1,
                                "id": 1,
                                "order": 1
                            }
                        ],
                        "depth": 0,
                        "id": 0,
                        "order": 0
                    }
                ],
                "depth": -1,
                "id": -1,
                "order": -1
            }
        ],
        "tidyTraceNodeCount": 8
    },
    "state_change": {
        "stateChanges": [
            {
                "address": "0xdac17f958d2ee523a2206206994597c13d831ec7",
                "erc": "ERC-20",
                "slots": [
                    {
                        "current": "0x0000000000000000000000000000000000000000000000000000000000000000",
                        "key": "0x1346715258f89d2d5180659ebebd8be6a8e4a6ce41ef51be6a1b6b3b0714ec74",
                        "prev": "0x000000000000000000000000000000000000000000000000000000128291bb00"
                    },
                    {
                        "current": "0x0000000000000000000000000000000000000000000000000000bdb9b01c5ce2",
                        "key": "0xf94b05ba7d0a6aa6692eecf3cf30c6ca5d527c3e5fd03d7081ff14e4910ec033",
                        "prev": "0x0000000000000000000000000000000000000000000000000000bda72d8aa1e2"
                    }
                ],
                "storageVariables": [
                    {
                        "name": "balances",
                        "type": "mapping(address => uint256)",
                        "value": {
                            "pairs": [
                                {
                                    "key": "0x89e51fa8ca5d66cd220baed62ed01e8951aa7c40",
                                    "value": {
                                        "current": "208605221248226",
                                        "prev": "208525721248226",
                                        "typeTag": 1
                                    }
                                },
                                {
                                    "key": "0xcf3ce7d9d174ca2e3636119ba4ffda1fd8619f06",
                                    "value": {
                                        "current": "0",
                                        "prev": "79500000000",
                                        "typeTag": 1
                                    }
                                }
                            ],
                            "typeTag": 4
                        }
                    }
                ]
            }
        ]
    }
}