{
    "balance_change": {
        "balanceChanges": [
            {
                "account": "0x88fefaf4c60e2ceb99b55f5df0f264964f18bd5f",
                "assets": [
                    {
                        "address": "0x6a42e13cb78363e58217d8f3e27ca6307158e245",
                        "amount": "1,007.82",
                        "iconUrl": "",
                        "isERC1155": false,
                        "isERC721": false,
                        "sign": false,
                        "value": ""
                    }
                ]
            },
            {
                "account": "0x298f7c196de91add0402436eddc7dc3b13f2737a",
                "assets": [
                    {
                        "address": "0x6a42e13cb78363e58217d8f3e27ca6307158e245",
                        "amount": "1,007.82",
                        "iconUrl": "",
                        "isERC1155": false,
                        "isERC721": false,
                        "sign": true,
                        "value": ""
                    }
                ]
            }
        ]
    },
    "profile": {
        "basic_info": {
            "baseFee": "",
            "blockNumber": 9164544,
            "callData": "0xa9059cbb000000000000000000000000298f7c196de91add0402436eddc7dc3b13f2737a000000000000000000000000000000000000000000000036a24fe6573e2e0000",
            "debugEnable": true,
            "errorInfo": "",
            "eventCount": 1,
            "feeRecipient": "0x6a7a43be33ba930fe58f34e07d0ad6ba7adb9b1f",
            "formatValue": "0",
            "gasLimit": 120000,
            "gasPrice": "10",
            "gasUsed": 42187,
            "intTxnCount": 0,
            "internalRevert": false,
            "internalRevertMessage": "",
            "isContractCreation": false,
            "isFlashloan": false,
            "maxFee": "",
            "nonce": 147,
            "overwritedBlockNumber": -1,
            "priorityFee": "",
            "receiver": "0x6a42e13cb78363e58217d8f3e27ca6307158e245",
            "revertMessage": "",
            "sender": "0x88fefaf4c60e2ceb99b55f5df0f264964f18bd5f",
            "simulationEnable": true,
            "sourceTxnHash": "0x8daea106e4fc752a7ce3d451852acff9428e13243b7eebd455891f96cf647cf7",
            "status": true,
            "timestamp": "2019-12-26T06:50:13Z",
            "transactionFee": "0.00042187",
            "txnHash": "0x8daea106e4fc752a7ce3d451852acff9428e13243b7eebd455891f96cf647cf7",
            "txnIndex": 101,
            "type": 0,
            "value": "0"
        },
        "fund_flow": [
            {
                "amount": "1,007.82",
                "from": "0x88fefaf4c60e2ceb99b55f5df0f264964f18bd5f",
                "id": 1,
                "isERC1155": false,
                "isERC721": false,
                "isReverted": false,
                "order": 1,
                "to": "0x298f7c196de91add0402436eddc7dc3b13f2737a",
                "token": "0x6a42e13cb78363e58217d8f3e27ca6307158e245"
            }
        ],
        "token_infos": [
            {
                "address": "0xeeeeeeeeeeeeeeeeeeeeeeeeeeeeeeeeeeeeeeee",
                "decimals": 18
            },
            {
                "address": "0x6a42e13cb78363e58217d8f3e27ca6307158e245",
                "decimals": 18
            },
            {
                "address": "0xc02aaa39b223fe8d0a0e5c4f27ead9083c756cc2",
                "decimals": 18
            }
        ]
    },
    "address_label": {
        "labels": [
            {
                "address": "0x0000000000000000000000000000000000000002",
                "label": "Precompiled"
            },
            {
                "address": "0x0000000000000000000000000000000000000003",
                "label": "Precompiled"
            },
            {
                "address": "0x0000000000000000000000000000000000000004",
                "label": "Precompiled"
            },
            {
                "address": "0xeeeeeeeeeeeeeeeeeeeeeeeeeeeeeeeeeeeeeeee",
                "label": "Ether"
            },
            {
                "address": "0x6a42e13cb78363e58217d8f3e27ca6307158e245",
                "label": "ROZ Ecology (ROZ)"
            },
            {
                "address": "0x0000000000000000000000000000000000000001",
                "label": "Precompiled"
            }
        ]
    },
    "trace": {
        "accountLabels": null,
        "dataMap": {
            "-1": {
                "invocation": {
                    "address": "0x88fefaf4c60e2ceb99b55f5df0f264964f18bd5f",
                    "callData": "",
                    "decodedMethod": null,
                    "errorInfo": "",
                    "fromAddress": "",
                    "gasUsed": 0,
                    "id": -1,
                    "methodDecoded": false,
                    "operation": "",
                    "output": "",
                    "revert": false,
                    "revertMessage": "",
                    "selector": "",
                    "status": false,
                    "value": ""
                },
                "nodeType": 0
            },
            "0": {
                "invocation": {
                    "address": "0x6a42e13cb78363e58217d8f3e27ca6307158e245",
                    "callData": "0x000000000000000000000000298f7c196de91add0402436eddc7dc3b13f2737a000000000000000000000000000000000000000000000036a24fe6573e2e0000",
                    "decodedMethod": {
                        "callParams": [
                            {
                                "name": "_to",
                                "type": "address",
                                "value": "0x298f7c196de91add0402436eddc7dc3b13f2737a"
                            },
                            {
                                "decimalAvailable": true,
                                "name": "_value",
                                "type": "uint256",
                                "value": "1,007,820,000,000,000,000,000"
                            }
                        ],
                        "constructorArguments": "",
                        "name": "transfer",
                        "returnParams": [],
                        "signature": "transfer(address,uint256)"
                    },
                    "errorInfo": "",
                    "fromAddress": "0x88fefaf4c60e2ceb99b55f5df0f264964f18bd5f",
                    "gasUsed": 42187,
                    "id": 0,
                    "methodDecoded": true,
                    "operation": "CALL",
                    "output": "",
                    "revert": false,
                    "revertMessage": "",
                    "selector": "0xa9059cbb",
                    "status": true,
                    "value": "0"
                },
                "nodeType": 0
            },
            "1": {
                "event": {
                    "contract": "0x6a42e13cb78363e58217d8f3e27ca6307158e245",
                    "decodedLog": {
                        "name": "Transfer",
                        "params": [
                            {
                                "name": "from",
                                "type": "address",
                                "value": "0x88fefaf4c60e2ceb99b55f5df0f264964f18bd5f"
                            },
                            {
                                "name": "to",
                                "type": "address",
                                "value": "0x298f7c196de91add0402436eddc7dc3b13f2737a"
                            },
                            {
                                "decimalAvailable": true,
                                "name": "value",
                                "type": "uint256",
                                "value": "1,007,820,000,000,000,000,000"
                            }
                        ],
                        "signature": "Transfer(address,address,uint256)"
                    },
                    "id": 1,
                    "logData": "0x000000000000000000000000000000000000000000000036a24fe6573e2e0000",
                    "logDecoded": true,
                    "operation": "EVENT",
                    "revert": false,
                    "status": true,
                    "topics": [
                        "0xddf252ad1be2c89b69c2b068fc378daa952ba7f163c4a11628f55a4df523b3ef",
                        "0x00000000000000000000000088fefaf4c60e2ceb99b55f5df0f264964f18bd5f",
                        "0x000000000000000000000000298f7c196de91add0402436eddc7dc3b13f2737a"
                    ]
                },
                "nodeType": 1
            }
        },
        "gasFlame": [
            {
                "children": [
                    {
                        "children": [
                            {
                                "children": [],
                                "depth": 0,
                                "name": "Initial Gas",
                                "value": 21644
                            },
                            {
                                "children": [],
                                "depth": 0,
                                "name": "Executed Gas",
                                "value": 20543
                            }
                        ],
                        "depth": -1,
                        "name": "Actual Gas Used",
                        "value": 42187
                    },
                    {
                        "children": [],
                        "depth": -1,
                        "name": "Refunded Gas",
                        "value": 0
                    }
                ],
                "depth": -2,
                "name": "Total Gas",
                "value": 42187
            }
        ],
        "isConfirmed": true,
        "mainTrace": [
            {
                "children": [
                    {
                        "children": [
                            {
                                "children": [],
                                "depth": 1,
                                "id": 1,
                                "order": 1
                            }
                        ],
                        "depth": 0,
                        "id": 0,
                        "order": 0
                    }
                ],
                "depth": -1,
                "id": -1,
                "order": -1
            }
        ],
        "mainTraceNodeCount": 2,
        "parentIdMap": {
            "0": -1,
            "1": 0
        },
        "tidyTrace": [
            {
                "children": [
                    {
                        "children": [
                            {
                                "children": [],
                                "depth": 1,
                                "id": 1,
                                "order": 1
                            }
                        ],
                        "depth": 0,
                        "id": 0,
                        "order": 0
                    }
                ],
                "depth": -1,
                "id": -1,
                "order": -1
            }
        ],
        "tidyTraceNodeCount": 2
    },
    "state_change": {
        "stateChanges": [
            {
                "address": "0x6a42e13cb78363e58217d8f3e27ca6307158e245",
                "erc": "",
                "slots": [
                    {
                        "current": "0x0000000000000000000000000000000000000000000000762d4cc3f8900e0000",
                        "key": "0x562e794df567e094f7a025c751e40ed20c17e73ee5b6c4f8aab06595589c7f38",
                        "prev": "0x0000000000000000000000000000000000000000000000accf9caa4fce3c0000"
                    },
                    {
                        "current": "0x00000000000000000000000000000000000000000001a3d327cd1d9591e77000",
                        "key": "0xc28db7ca1d2101dfdc353701cb2925fce6935ba7cbd4afce70a34de3b611f817",
                        "prev": "0x00000000000000000000000000000000000000000001a39c857d373e53b97000"
                    }
                ],
                "storageVariables": []
            }
        ]
    }
}