{
    "balance_change": {
        "balanceChanges": []
    },
    "profile": {
        "basic_info": {
            "baseFee": "",
            "blockNumber": 8254037,
            "callData": "0xef34358800000000000000000000000000000000000000000000000017d074e8829200000000000000000000000000000000000000000000000002c0bb3dd30c4e200000000000000000000000000000000000000000000000000000000000000002e6300000000000000000000000000000000000000000000000000000000000000afc0000000000000000000000000000000000000000000000000188a8ca7fa8b484000000000000000000000000000000000000000000000000000000000000006100000000000000000000000000000000000000000000000000038d7ea4c68000000000000000000000000000000000000000000000000000001cf6acfd22208c0000000000000000000000000000000000000000000000000000000000000000000000000000000000000000b705268213d593b8fd88d3fdeff93aff5cbdcfae0000000000000000000000003e09186dcd2b2ec8144c09db78249bee85016882000000000000000000000000213a6d71612eab9719bc0eb6e53105d84c779ece000000000000000000000000000000000000000000000000000000000000001b000000000000000000000000000000000000000000000000000000000000001c99f4ddeb84f8d299c6e2fbaab8cd8920c5242c52f961c6732cc8147b1d0ae18c11cec1493090756ec3b199c4fa735d2b5a524e3915569f08bd7cd480b7dabcd8fe7a8f20ebe0f52b74bbae6f73440d4da540ddfaa0d052b06e4311b3873eb40d120ad4c137b73b45948756c97be890f7b6f087bdece8037a2bdd90e8d442b643",
            "debugEnable": true,
            "errorInfo": "",
            "eventCount": 0,
            "feeRecipient": "0x52bc44d5378309ee2abf1539bf71de1b7d7be3b5",
            "formatValue": "0",
            "gasLimit": 400000,
            "gasPrice": "4",
            "gasUsed": 127644,
            "intTxnCount": 2,
            "internalRevert": false,
            "internalRevertMessage": "",
            "isContractCreation": false,
            "isFlashloan": false,
            "maxFee": "",
            "nonce": 3879631,
            "overwritedBlockNumber": -1,
            "priorityFee": "",
            "receiver": "0x2a0c0dbecc7e4d658f48e01e3fa353f44050c208",
            "revertMessage": "",
            "sender": "0xa7a7899d944fe658c4b0a1803bab2f490bd3849e",
            "simulationEnable": true,
            "sourceTxnHash": "0x8dc264bd406ecbf5ddf21cbb3f6605d000cecd3e81f65e6bfc1abd1c9defb95b",
            "status": true,
            "timestamp": "2019-07-30T20:04:01Z",
            "transactionFee": "0.000510576",
            "txnHash": "0x8dc264bd406ecbf5ddf21cbb3f6605d000cecd3e81f65e6bfc1abd1c9defb95b",
            "txnIndex": 3,
            "type": 0,
            "value": "0"
        },
        "fund_flow": [],
        "token_infos": [
            {
                "address": "0xc02aaa39b223fe8d0a0e5c4f27ead9083c756cc2",
                "decimals": 18
            },
            {
                "address": "0xeeeeeeeeeeeeeeeeeeeeeeeeeeeeeeeeeeeeeeee",
                "decimals": 18
            }
        ]
    },
    "address_label": {
        "labels": [
            {
                "address": "0x0000000000000000000000000000000000000003",
                "label": "Precompiled"
            },
            {
                "address": "0x0000000000000000000000000000000000000001",
                "label": "Precompiled"
            },
            {
                "address": "0xa7a7899d944fe658c4b0a1803bab2f490bd3849e",
                "label": "IDEX 2"
            },
            {
                "address": "0x0000000000000000000000000000000000000000",
                "label": "Null Address"
            },
            {
                "address": "0x2a0c0dbecc7e4d658f48e01e3fa353f44050c208",
                "label": "IDEX"
            },
            {
                "address": "0xb705268213d593b8fd88d3fdeff93aff5cbdcfae",
                "label": "IDEX Token"
            },
            {
                "address": "0x0000000000000000000000000000000000000002",
                "label": "Precompiled"
            },
            {
                "address": "0x0000000000000000000000000000000000000004",
                "label": "Precompiled"
            },
            {
                "address": "0xeeeeeeeeeeeeeeeeeeeeeeeeeeeeeeeeeeeeeeee",
                "label": "Ether"
            }
        ]
    },
    "trace": {
        "accountLabels": null,
        "dataMap": {
            "-1": {
                "invocation": {
                    "address": "0xa7a7899d944fe658c4b0a1803bab2f490bd3849e",
                    "callData": "",
                    "decodedMethod": null,
                    "errorInfo": "",
                    "fromAddress": "",
                    "gasUsed": 0,
                    "id": -1,
                    "methodDecoded": false,
                    "operation": "",
                    "output": "",
                    "revert": false,
                    "revertMessage": "",
                    "selector": "",
                    "status": false,
                    "value": ""
                },
                "nodeType": 0
            },
            "0": {
                "invocation": {
                    "address": "0x2a0c0dbecc7e4d658f48e01e3fa353f44050c208",
                    "callData": "0x00000000000000000000000000000000000000000000000017d074e8829200000000000000000000000000000000000000000000000002c0bb3dd30c4e200000000000000000000000000000000000000000000000000000000000000002e6300000000000000000000000000000000000000000000000000000000000000afc0000000000000000000000000000000000000000000000000188a8ca7fa8b484000000000000000000000000000000000000000000000000000000000000006100000000000000000000000000000000000000000000000000038d7ea4c68000000000000000000000000000000000000000000000000000001cf6acfd22208c0000000000000000000000000000000000000000000000000000000000000000000000000000000000000000b705268213d593b8fd88d3fdeff93aff5cbdcfae0000000000000000000000003e09186dcd2b2ec8144c09db78249bee85016882000000000000000000000000213a6d71612eab9719bc0eb6e53105d84c779ece000000000000000000000000000000000000000000000000000000000000001b000000000000000000000000000000000000000000000000000000000000001c99f4ddeb84f8d299c6e2fbaab8cd8920c5242c52f961c6732cc8147b1d0ae18c11cec1493090756ec3b199c4fa735d2b5a524e3915569f08bd7cd480b7dabcd8fe7a8f20ebe0f52b74bbae6f73440d4da540ddfaa0d052b06e4311b3873eb40d120ad4c137b73b45948756c97be890f7b6f087bdece8037a2bdd90e8d442b643",
                    "decodedMethod": {
                        "callParams": [
                            {
                                "name": "tradeValues",
                                "type": "uint256[8]",
                                "value": [
                                    "1,716,000,000,000,000,000",
                                    "13,000,000,000,000,000,000,000",
                                    "190,000",
                                    "2,812",
                                    "110,523,778,549,200,004",
                                    "97",
                                    "1,000,000,000,000,000",
                                    "8,152,522,189,578,380"
                                ]
                            },
                            {
                                "name": "tradeAddresses",
                                "type": "address[4]",
                                "value": [
                                    "0x0000000000000000000000000000000000000000",
                                    "0xb705268213d593b8fd88d3fdeff93aff5cbdcfae",
                                    "0x3e09186dcd2b2ec8144c09db78249bee85016882",
                                    "0x213a6d71612eab9719bc0eb6e53105d84c779ece"
                                ]
                            },
                            {
                                "name": "v",
                                "type": "uint8[2]",
                                "value": [
                                    "27",
                                    "28"
                                ]
                            },
                            {
                                "name": "rs",
                                "type": "bytes32[4]",
                                "value": [
                                    "0x99f4ddeb84f8d299c6e2fbaab8cd8920c5242c52f961c6732cc8147b1d0ae18c",
                                    "0x11cec1493090756ec3b199c4fa735d2b5a524e3915569f08bd7cd480b7dabcd8",
                                    "0xfe7a8f20ebe0f52b74bbae6f73440d4da540ddfaa0d052b06e4311b3873eb40d",
                                    "0x120ad4c137b73b45948756c97be890f7b6f087bdece8037a2bdd90e8d442b643"
                                ]
                            }
                        ],
                        "constructorArguments": "",
                        "name": "trade",
                        "returnParams": [
                            {
                                "name": "success",
                                "type": "bool",
                                "value": false
                            }
                        ],
                        "signature": "trade(uint256[8],address[4],uint8[2],bytes32[4])"
                    },
                    "errorInfo": "",
                    "fromAddress": "0xa7a7899d944fe658c4b0a1803bab2f490bd3849e",
                    "gasUsed": 127644,
                    "id": 0,
                    "methodDecoded": true,
                    "operation": "CALL",
                    "output": "0x0000000000000000000000000000000000000000000000000000000000000000",
                    "revert": false,
                    "revertMessage": "",
                    "selector": "0xef343588",
                    "status": true,
                    "value": "0"
                },
                "nodeType": 0
            },
            "1": {
                "invocation": {
                    "address": "0x0000000000000000000000000000000000000001",
                    "callData": "0x05d6391bbce77e47fa5be6950891a3953ef57854df641d196cab6764000000000000000000000000000000000000000000000000000000000000001b99f4ddeb84f8d299c6e2fbaab8cd8920c5242c52f961c6732cc8147b1d0ae18c11cec1493090756ec3b199c4fa735d2b5a524e3915569f08bd7cd480b7dabcd8",
                    "decodedMethod": {
                        "callParams": [
                            {
                                "name": "hash",
                                "type": "bytes32",
                                "value": "0x47efd06d05d6391bbce77e47fa5be6950891a3953ef57854df641d196cab6764"
                            },
                            {
                                "name": "v",
                                "type": "uint256",
                                "value": "27"
                            },
                            {
                                "name": "r",
                                "type": "bytes32",
                                "value": "0x99f4ddeb84f8d299c6e2fbaab8cd8920c5242c52f961c6732cc8147b1d0ae18c"
                            },
                            {
                                "name": "s",
                                "type": "bytes32",
                                "value": "0x11cec1493090756ec3b199c4fa735d2b5a524e3915569f08bd7cd480b7dabcd8"
                            }
                        ],
                        "constructorArguments": "",
                        "name": "ecrecover",
                        "returnParams": [
                            {
                                "name": "",
                                "type": "address",
                                "value": "0x3e09186dcd2b2ec8144c09db78249bee85016882"
                            }
                        ],
                        "signature": "ecrecover(bytes32,uint256,bytes32,bytes32)"
                    },
                    "errorInfo": "",
                    "fromAddress": "0x2a0c0dbecc7e4d658f48e01e3fa353f44050c208",
                    "gasUsed": 3000,
                    "id": 1,
                    "methodDecoded": true,
                    "operation": "CALL",
                    "output": "0x0000000000000000000000003e09186dcd2b2ec8144c09db78249bee85016882",
                    "revert": false,
                    "revertMessage": "",
                    "selector": "0x47efd06d",
                    "status": true,
                    "value": "0"
                },
                "nodeType": 0
            },
            "2": {
                "invocation": {
                    "address": "0x0000000000000000000000000000000000000001",
                    "callData": "0x573fc6e49a18c6c7ed5874bf48cb22d8dfb9fd1383ec5bfcadef2a2a000000000000000000000000000000000000000000000000000000000000001cfe7a8f20ebe0f52b74bbae6f73440d4da540ddfaa0d052b06e4311b3873eb40d120ad4c137b73b45948756c97be890f7b6f087bdece8037a2bdd90e8d442b643",
                    "decodedMethod": {
                        "callParams": [
                            {
                                "name": "hash",
                                "type": "bytes32",
                                "value": "0x7b8dafb0573fc6e49a18c6c7ed5874bf48cb22d8dfb9fd1383ec5bfcadef2a2a"
                            },
                            {
                                "name": "v",
                                "type": "uint256",
                                "value": "28"
                            },
                            {
                                "name": "r",
                                "type": "bytes32",
                                "value": "0xfe7a8f20ebe0f52b74bbae6f73440d4da540ddfaa0d052b06e4311b3873eb40d"
                            },
                            {
                                "name": "s",
                                "type": "bytes32",
                                "value": "0x120ad4c137b73b45948756c97be890f7b6f087bdece8037a2bdd90e8d442b643"
                            }
                        ],
                        "constructorArguments": "",
                        "name": "ecrecover",
                        "returnParams": [
                            {
                                "name": "",
                                "type": "address",
                                "value": "0x213a6d71612eab9719bc0eb6e53105d84c779ece"
                            }
                        ],
                        "signature": "ecrecover(bytes32,uint256,bytes32,bytes32)"
                    },
                    "errorInfo": "",
                    "fromAddress": "0x2a0c0dbecc7e4d658f48e01e3fa353f44050c208",
                    "gasUsed": 3000,
                    "id": 2,
                    "methodDecoded": true,
                    "operation": "CALL",
                    "output": "0x000000000000000000000000213a6d71612eab9719bc0eb6e53105d84c779ece",
                    "revert": false,
                    "revertMessage": "",
                    "selector": "0x7b8dafb0",
                    "status": true,
                    "value": "0"
                },
                "nodeType": 0
            }
        },
        "gasFlame": [
            {
                "children": [
                    {
                        "children": [
                            {
                                "children": [],
                                "depth": 0,
                                "name": "Initial Gas",
                                "value": 38360
                            },
                            {
                                "children": [
                                    {
                                        "children": [],
                                        "depth": 1,
                                        "name": "ecrecover",
                                        "value": 3000
                                    },
                                    {
                                        "children": [],
                                        "depth": 1,
                                        "name": "ecrecover",
                                        "value": 3000
                                    }
                                ],
                                "depth": 0,
                                "name": "Executed Gas",
                                "value": 89284
                            }
                        ],
                        "depth": -1,
                        "name": "Actual Gas Used",
                        "value": 127644
                    },
                    {
                        "children": [],
                        "depth": -1,
                        "name": "Refunded Gas",
                        "value": 0
                    }
                ],
                "depth": -2,
                "name": "Total Gas",
                "value": 127644
            }
        ],
        "isConfirmed": true,
        "mainTrace": [
            {
                "children": [
                    {
                        "children": [
                            {
                                "children": [],
                                "depth": 1,
                                "id": 1,
                                "order": 1
                            },
                            {
                                "children": [],
                                "depth": 1,
                                "id": 2,
                                "order": 2
                            }
                        ],
                        "depth": 0,
                        "id": 0,
                        "order": 0
                    }
                ],
                "depth": -1,
                "id": -1,
                "order": -1
            }
        ],
        "mainTraceNodeCount": 3,
        "parentIdMap": {
            "0": -1,
            "1": 0,
            "2": 0
        },
        "tidyTrace": [
            {
                "children": [
                    {
                        "children": [
                            {
                                "children": [],
                                "depth": 1,
                                "id": 1,
                                "order": 1
                            },
                            {
                                "children": [],
                                "depth": 1,
                                "id": 2,
                                "order": 2
                            }
                        ],
                        "depth": 0,
                        "id": 0,
                        "order": 0
                    }
                ],
                "depth": -1,
                "id": -1,
                "order": -1
            }
        ],
        "tidyTraceNodeCount": 3
    },
    "state_change": {
        "stateChanges": [
            {
                "address": "0x2a0c0dbecc7e4d658f48e01e3fa353f44050c208",
                "erc": "",
                "slots": [
                    {
                        "current": "0x000000000000000000000000000000000000000000000000cb9676ff24e2672b",
                        "key": "0x3ccb72d91c5c66cba135a4135963ed23443b8a63817f501517468fcd5097e277",
                        "prev": "0x000000000000000000000000000000000000000000000000cb961279d253215b"
                    },
                    {
                        "current": "0x0000000000000000000000000000000000000000000002e51f1891df620e15e7",
                        "key": "0xdc2828d4ae90851d824368dc97f04995cd0a2464b3b995bd129ea0ec19c08386",
                        "prev": "0x00000000000000000000000000000000000000000000031282fc89e41473ce74"
                    },
                    {
                        "current": "0x000000000000000000000000000000000000000000000000127420bb3dd0b483",
                        "key": "0x77298c12eb08ddd003f7ea1423a7c0f1c6447278bbf6c08346f04d5ff0a152ed",
                        "prev": "0x00000000000000000000000000000000000000000000000010eb77f0be27ffff"
                    },
                    {
                        "current": "0x00000000000000000000000000000000000000000000000000000000007df255",
                        "key": "0x5e4e4cb6fc3211ea09288e5dad0773f0ef60e2f20fc974248eb48f34a49e7165",
                        "prev": "0x00000000000000000000000000000000000000000000000000000000007de9b3"
                    },
                    {
                        "current": "0x00000000000000000000000000000000000000000000000000000000007df255",
                        "key": "0x1c983729dc861bb629c2a1c7c1ed664ccc9ae2858e4a613fe752a08c8fd3d337",
                        "prev": "0x00000000000000000000000000000000000000000000000000000000007df254"
                    },
                    {
                        "current": "0x000000000000000000000000000000000000000000000000207c20df8f42a911",
                        "key": "0x813e742300ab336ecff3f94ff6fe8acb1c99cb8fbaac9d689b5f6280c6601964",
                        "prev": "0x0000000000000000000000000000000000000000000000002204c9aa0eeb5d95"
                    },
                    {
                        "current": "0x0000000000000000000000000000000000000000000000001ae517d8bc3cbd23",
                        "key": "0xa8dbb712f310d694a8cf6cb1b2e6eb999917acb427fc6bc6b075b5cd67a45ec9",
                        "prev": "0x000000000000000000000000000000000000000000000000195cd3938f234e70"
                    },
                    {
                        "current": "0x00000000000000000000000000000000000000000000059442b51ca4291d907e",
                        "key": "0xb41295dc139fd04bb3d48e59c5de3e8989e79f87aad0ceb4042ae08d92f5d562",
                        "prev": "0x0000000000000000000000000000000000000000000005673d8c62a5b8981a4c"
                    },
                    {
                        "current": "0x0000000000000000000000000000000000000000000000000000000000000001",
                        "key": "0x204c63c6c4a65a46e014e7a963851af5ff688d98ab6474c89a8de5e184b573b7",
                        "prev": "0x0000000000000000000000000000000000000000000000000000000000000000"
                    },
                    {
                        "current": "0x00000000000000000000000000000000000000000000002f0498c6a366e378ab",
                        "key": "0xc3ebff5477595ad4a6426a479f976724488720c3875b76a47a121807d216d130",
                        "prev": "0x00000000000000000000000000000000000000000000002ea5dd889d25033650"
                    }
                ],
                "storageVariables": [
                    {
                        "name": "lastActiveTransaction",
                        "type": "mapping(address => uint256)",
                        "value": {
                            "pairs": [
                                {
                                    "key": "0x213a6d71612eab9719bc0eb6e53105d84c779ece",
                                    "value": {
                                        "current": "8254037",
                                        "prev": "8254036",
                                        "typeTag": 1
                                    }
                                },
                                {
                                    "key": "0x3e09186dcd2b2ec8144c09db78249bee85016882",
                                    "value": {
                                        "current": "8254037",
                                        "prev": "8251827",
                                        "typeTag": 1
                                    }
                                }
                            ],
                            "typeTag": 4
                        }
                    },
                    {
                        "name": "tokens",
                        "type": "mapping(address => mapping(address => uint256))",
                        "value": {
                            "pairs": [
                                {
                                    "key": "0x0000000000000000000000000000000000000000",
                                    "value": {
                                        "pairs": [
                                            {
                                                "key": "0x034767f3c519f361c5ecf46ebfc08981c629d381",
                                                "value": {
                                                    "current": "14670043674413524779",
                                                    "prev": "14669933150634975579",
                                                    "typeTag": 1
                                                }
                                            },
                                            {
                                                "key": "0x213a6d71612eab9719bc0eb6e53105d84c779ece",
                                                "value": {
                                                    "current": "2340782050879121681",
                                                    "prev": "2451305829428321685",
                                                    "typeTag": 1
                                                }
                                            },
                                            {
                                                "key": "0x3e09186dcd2b2ec8144c09db78249bee85016882",
                                                "value": {
                                                    "current": "1937981434291338531",
                                                    "prev": "1827568179520687728",
                                                    "typeTag": 1
                                                }
                                            }
                                        ],
                                        "typeTag": 4
                                    }
                                },
                                {
                                    "key": "0xb705268213d593b8fd88d3fdeff93aff5cbdcfae",
                                    "value": {
                                        "pairs": [
                                            {
                                                "key": "0x034767f3c519f361c5ecf46ebfc08981c629d381",
                                                "value": {
                                                    "current": "867328204442068809899",
                                                    "prev": "860502086585262749264",
                                                    "typeTag": 1
                                                }
                                            },
                                            {
                                                "key": "0x213a6d71612eab9719bc0eb6e53105d84c779ece",
                                                "value": {
                                                    "current": "26346757316925917597822",
                                                    "prev": "25516282082137269082700",
                                                    "typeTag": 1
                                                }
                                            },
                                            {
                                                "key": "0x3e09186dcd2b2ec8144c09db78249bee85016882",
                                                "value": {
                                                    "current": "13671278059822003394023",
                                                    "prev": "14508579412467457969780",
                                                    "typeTag": 1
                                                }
                                            }
                                        ],
                                        "typeTag": 4
                                    }
                                }
                            ],
                            "typeTag": 4
                        }
                    },
                    {
                        "name": "traded",
                        "type": "mapping(bytes32 => bool)",
                        "value": {
                            "pairs": [
                                {
                                    "key": "0xe2982f7a72e191fe848ef8ef97ca5f0b36f7aad9992a65c4018327c060ca0057",
                                    "value": {
                                        "current": "true",
                                        "prev": "false",
                                        "typeTag": 1
                                    }
                                }
                            ],
                            "typeTag": 4
                        }
                    },
                    {
                        "name": "orderFills",
                        "type": "mapping(bytes32 => uint256)",
                        "value": {
                            "pairs": [
                                {
                                    "key": "0x38564f37f22b4df0c2492937162d93d1469621f053f79982f6afc6d0ef12d8dc",
                                    "value": {
                                        "current": "1329723778549200003",
                                        "prev": "1219199999999999999",
                                        "typeTag": 1
                                    }
                                }
                            ],
                            "typeTag": 4
                        }
                    }
                ]
            }
        ]
    }
}