{
    "balance_change": {
        "balanceChanges": [
            {
                "account": "0xa93b74da13f39e5e558e2037034a43f0456e7b8b",
                "assets": [
                    {
                        "address": "0x3597bfd533a99c9aa083587b074434e61eb0a258",
                        "amount": "30,504.38",
                        "iconUrl": "https://assets.blocksec.com/icon/b016a2d1f45541b969fb5b24876dedcebceb6bc5f22539b1969335ffef3588d8.png",
                        "isERC1155": false,
                        "isERC721": false,
                        "sign": false,
                        "value": ""
                    }
                ]
            },
            {
                "account": "0xc0d73831002f1d98c2705bf728686480fa11d9ad",
                "assets": [
                    {
                        "address": "0x3597bfd533a99c9aa083587b074434e61eb0a258",
                        "amount": "30,504.38",
                        "iconUrl": "https://assets.blocksec.com/icon/b016a2d1f45541b969fb5b24876dedcebceb6bc5f22539b1969335ffef3588d8.png",
                        "isERC1155": false,
                        "isERC721": false,
                        "sign": true,
                        "value": ""
                    }
                ]
            }
        ]
    },
    "profile": {
        "basic_info": {
            "baseFee": "",
            "blockNumber": 7015698,
            "callData": "0xa9059cbb000000000000000000000000c0d73831002f1d98c2705bf728686480fa11d9ad000000000000000000000000000000000000000000000000000002c63c45fd80",
            "debugEnable": true,
            "errorInfo": "",
            "eventCount": 1,
            "feeRecipient": "0xea674fdde714fd979de3edf0f56aa9716b898ec8",
            "formatValue": "0",
            "gasLimit": 300004,
            "gasPrice": "30",
            "gasUsed": 52385,
            "intTxnCount": 0,
            "internalRevert": false,
            "internalRevertMessage": "",
            "isContractCreation": false,
            "isFlashloan": false,
            "maxFee": "",
            "nonce": 20636,
            "overwritedBlockNumber": -1,
            "priorityFee": "",
            "receiver": "0x3597bfd533a99c9aa083587b074434e61eb0a258",
            "revertMessage": "",
            "sender": "0xa93b74da13f39e5e558e2037034a43f0456e7b8b",
            "simulationEnable": true,
            "sourceTxnHash": "0x8efa26de6849f1bb831ed458f419aca6b34df9c574ad620a2c3f80e713528917",
            "status": true,
            "timestamp": "2019-01-05T17:45:42Z",
            "transactionFee": "0.00157155",
            "txnHash": "0x8efa26de6849f1bb831ed458f419aca6b34df9c574ad620a2c3f80e713528917",
            "txnIndex": 2,
            "type": 0,
            "value": "0"
        },
        "fund_flow": [
            {
                "amount": "30,504.38",
                "from": "0xa93b74da13f39e5e558e2037034a43f0456e7b8b",
                "id": 1,
                "isERC1155": false,
                "isERC721": false,
                "isReverted": false,
                "order": 1,
                "to": "0xc0d73831002f1d98c2705bf728686480fa11d9ad",
                "token": "0x3597bfd533a99c9aa083587b074434e61eb0a258"
            }
        ],
        "token_infos": [
            {
                "address": "0xc02aaa39b223fe8d0a0e5c4f27ead9083c756cc2",
                "decimals": 18
            },
            {
                "address": "0xeeeeeeeeeeeeeeeeeeeeeeeeeeeeeeeeeeeeeeee",
                "decimals": 18
            },
            {
                "address": "0x3597bfd533a99c9aa083587b074434e61eb0a258",
                "decimals": 8
            }
        ]
    },
    "address_label": {
        "labels": [
            {
                "address": "0x0000000000000000000000000000000000000004",
                "label": "Precompiled"
            },
            {
                "address": "0xeeeeeeeeeeeeeeeeeeeeeeeeeeeeeeeeeeeeeeee",
                "label": "Ether"
            },
            {
                "address": "0xc0d73831002f1d98c2705bf728686480fa11d9ad",
                "label": "UPBIT"
            },
            {
                "address": "0x3597bfd533a99c9aa083587b074434e61eb0a258",
                "label": "DENT Token"
            },
            {
                "address": "0x0000000000000000000000000000000000000001",
                "label": "Precompiled"
            },
            {
                "address": "0x0000000000000000000000000000000000000002",
                "label": "Precompiled"
            },
            {
                "address": "0x0000000000000000000000000000000000000003",
                "label": "Precompiled"
            }
        ]
    },
    "trace": {
        "accountLabels": null,
        "dataMap": {
            "-1": {
                "invocation": {
                    "address": "0xa93b74da13f39e5e558e2037034a43f0456e7b8b",
                    "callData": "",
                    "decodedMethod": null,
                    "errorInfo": "",
                    "fromAddress": "",
                    "gasUsed": 0,
                    "id": -1,
                    "methodDecoded": false,
                    "operation": "",
                    "output": "",
                    "revert": false,
                    "revertMessage": "",
                    "selector": "",
                    "status": false,
                    "value": ""
                },
                "nodeType": 0
            },
            "0": {
                "invocation": {
                    "address": "0x3597bfd533a99c9aa083587b074434e61eb0a258",
                    "callData": "0x000000000000000000000000c0d73831002f1d98c2705bf728686480fa11d9ad000000000000000000000000000000000000000000000000000002c63c45fd80",
                    "decodedMethod": {
                        "callParams": [
                            {
                                "name": "_to",
                                "type": "address",
                                "value": "0xc0d73831002f1d98c2705bf728686480fa11d9ad"
                            },
                            {
                                "decimalAvailable": true,
                                "name": "_value",
                                "type": "uint256",
                                "value": "3,050,438,000,000"
                            }
                        ],
                        "constructorArguments": "",
                        "name": "transfer",
                        "returnParams": [
                            {
                                "name": "success",
                                "type": "bool",
                                "value": true
                            }
                        ],
                        "signature": "transfer(address,uint256)"
                    },
                    "errorInfo": "",
                    "fromAddress": "0xa93b74da13f39e5e558e2037034a43f0456e7b8b",
                    "gasUsed": 52385,
                    "id": 0,
                    "methodDecoded": true,
                    "operation": "CALL",
                    "output": "0x0000000000000000000000000000000000000000000000000000000000000001",
                    "revert": false,
                    "revertMessage": "",
                    "selector": "0xa9059cbb",
                    "status": true,
                    "value": "0"
                },
                "nodeType": 0
            },
            "1": {
                "event": {
                    "contract": "0x3597bfd533a99c9aa083587b074434e61eb0a258",
                    "decodedLog": {
                        "name": "Transfer",
                        "params": [
                            {
                                "name": "from",
                                "type": "address",
                                "value": "0xa93b74da13f39e5e558e2037034a43f0456e7b8b"
                            },
                            {
                                "name": "to",
                                "type": "address",
                                "value": "0xc0d73831002f1d98c2705bf728686480fa11d9ad"
                            },
                            {
                                "decimalAvailable": true,
                                "name": "value",
                                "type": "uint256",
                                "value": "3,050,438,000,000"
                            }
                        ],
                        "signature": "Transfer(address,address,uint256)"
                    },
                    "id": 1,
                    "logData": "0x000000000000000000000000000000000000000000000000000002c63c45fd80",
                    "logDecoded": true,
                    "operation": "EVENT",
                    "revert": false,
                    "status": true,
                    "topics": [
                        "0xddf252ad1be2c89b69c2b068fc378daa952ba7f163c4a11628f55a4df523b3ef",
                        "0x000000000000000000000000a93b74da13f39e5e558e2037034a43f0456e7b8b",
                        "0x000000000000000000000000c0d73831002f1d98c2705bf728686480fa11d9ad"
                    ]
                },
                "nodeType": 1
            }
        },
        "gasFlame": [
            {
                "children": [
                    {
                        "children": [
                            {
                                "children": [],
                                "depth": 0,
                                "name": "Initial Gas",
                                "value": 23128
                            },
                            {
                                "children": [],
                                "depth": 0,
                                "name": "Executed Gas",
                                "value": 29257
                            }
                        ],
                        "depth": -1,
                        "name": "Actual Gas Used",
                        "value": 52385
                    },
                    {
                        "children": [],
                        "depth": -1,
                        "name": "Refunded Gas",
                        "value": 0
                    }
                ],
                "depth": -2,
                "name": "Total Gas",
                "value": 52385
            }
        ],
        "isConfirmed": true,
        "mainTrace": [
            {
                "children": [
                    {
                        "children": [
                            {
                                "children": [],
                                "depth": 1,
                                "id": 1,
                                "order": 1
                            }
                        ],
                        "depth": 0,
                        "id": 0,
                        "order": 0
                    }
                ],
                "depth": -1,
                "id": -1,
                "order": -1
            }
        ],
        "mainTraceNodeCount": 2,
        "parentIdMap": {
            "0": -1,
            "1": 0
        },
        "tidyTrace": [
            {
                "children": [
                    {
                        "children": [
                            {
                                "children": [],
                                "depth": 1,
                                "id": 1,
                                "order": 1
                            }
                        ],
                        "depth": 0,
                        "id": 0,
                        "order": 0
                    }
                ],
                "depth": -1,
                "id": -1,
                "order": -1
            }
        ],
        "tidyTraceNodeCount": 2
    },
    "state_change": {
        "stateChanges": [
            {
                "address": "0x3597bfd533a99c9aa083587b074434e61eb0a258",
                "erc": "ERC-20",
                "slots": [
                    {
                        "current": "0x000000000000000000000000000000000000000000000000002c47ca0cc45d84",
                        "key": "0x89809b88b052fe9111277478ee4bcccca6742130d0875ebe7d66567de319bac6",
                        "prev": "0x000000000000000000000000000000000000000000000000002c4a90490a5b04"
                    },
                    {
                        "current": "0x000000000000000000000000000000000000000000000000000002c63c45fd80",
                        "key": "0x65eda53c3d1261ce3034f517d63ae14be311377be17c59e3dd8f42381e36742e",
                        "prev": "0x0000000000000000000000000000000000000000000000000000000000000000"
                    }
                ],
                "storageVariables": []
            }
        ]
    }
}