{
    "balance_change": {
        "balanceChanges": [
            {
                "account": "0xdbd29a794c933ce9ceaf4292138149b00fc1db38",
                "assets": [
                    {
                        "address": "0xa0b86991c6218b36c1d19d4a2e9eb0ce3606eb48",
                        "amount": "3",
                        "iconUrl": "https://assets.blocksec.com/icon/0347a86cc07dbd03fdc5db01a4e5ac7e1217f90e0b6e4bb0f75cbcca09160989.png",
                        "isERC1155": false,
                        "isERC721": false,
                        "sign": false,
                        "value": ""
                    },
                    {
                        "address": "0x39aa39c021dfbae8fac545936693ac917d5e7563",
                        "amount": "141.09208378",
                        "iconUrl": "https://assets.blocksec.com/icon/a0c5d903b8287675754b76ffc050d1bc04125601b5ae211cf224ecb8f98e3802.png",
                        "isERC1155": false,
                        "isERC721": false,
                        "sign": true,
                        "value": ""
                    }
                ]
            },
            {
                "account": "0x39aa39c021dfbae8fac545936693ac917d5e7563",
                "assets": [
                    {
                        "address": "0xa0b86991c6218b36c1d19d4a2e9eb0ce3606eb48",
                        "amount": "3",
                        "iconUrl": "https://assets.blocksec.com/icon/0347a86cc07dbd03fdc5db01a4e5ac7e1217f90e0b6e4bb0f75cbcca09160989.png",
                        "isERC1155": false,
                        "isERC721": false,
                        "sign": true,
                        "value": ""
                    },
                    {
                        "address": "0x39aa39c021dfbae8fac545936693ac917d5e7563",
                        "amount": "141.09208378",
                        "iconUrl": "https://assets.blocksec.com/icon/a0c5d903b8287675754b76ffc050d1bc04125601b5ae211cf224ecb8f98e3802.png",
                        "isERC1155": false,
                        "isERC721": false,
                        "sign": false,
                        "value": ""
                    }
                ]
            }
        ]
    },
    "profile": {
        "basic_info": {
            "baseFee": "",
            "blockNumber": 11297430,
            "callData": "0xa0712d6800000000000000000000000000000000000000000000000000000000002dc6c0",
            "debugEnable": true,
            "errorInfo": "",
            "eventCount": 5,
            "feeRecipient": "0xea674fdde714fd979de3edf0f56aa9716b898ec8",
            "formatValue": "0",
            "gasLimit": 247777,
            "gasPrice": "28",
            "gasUsed": 177613,
            "intTxnCount": 16,
            "internalRevert": false,
            "internalRevertMessage": "",
            "isContractCreation": false,
            "isFlashloan": false,
            "maxFee": "",
            "nonce": 1,
            "overwritedBlockNumber": -1,
            "priorityFee": "",
            "receiver": "0x39aa39c021dfbae8fac545936693ac917d5e7563",
            "revertMessage": "",
            "sender": "0xdbd29a794c933ce9ceaf4292138149b00fc1db38",
            "simulationEnable": true,
            "sourceTxnHash": "0x8e72324a7da798fdc9b69007f908aa79a609f36c8b29663f36ec902a5b582fb4",
            "status": true,
            "timestamp": "2020-11-20T21:38:46Z",
            "transactionFee": "0.004973164",
            "txnHash": "0x8e72324a7da798fdc9b69007f908aa79a609f36c8b29663f36ec902a5b582fb4",
            "txnIndex": 68,
            "type": 0,
            "value": "0"
        },
        "fund_flow": [
            {
                "amount": "3",
                "from": "0xdbd29a794c933ce9ceaf4292138149b00fc1db38",
                "id": 1,
                "isERC1155": false,
                "isERC721": false,
                "isReverted": false,
                "order": 1,
                "to": "0x39aa39c021dfbae8fac545936693ac917d5e7563",
                "token": "0xa0b86991c6218b36c1d19d4a2e9eb0ce3606eb48"
            },
            {
                "amount": "141.09208378",
                "from": "0x39aa39c021dfbae8fac545936693ac917d5e7563",
                "id": 2,
                "isERC1155": false,
                "isERC721": false,
                "isReverted": false,
                "order": 2,
                "to": "0xdbd29a794c933ce9ceaf4292138149b00fc1db38",
                "token": "0x39aa39c021dfbae8fac545936693ac917d5e7563"
            }
        ],
        "token_infos": [
            {
                "address": "0x39aa39c021dfbae8fac545936693ac917d5e7563",
                "decimals": 8
            },
            {
                "address": "0xa0b86991c6218b36c1d19d4a2e9eb0ce3606eb48",
                "decimals": 6
            },
            {
                "address": "0xc02aaa39b223fe8d0a0e5c4f27ead9083c756cc2",
                "decimals": 18
            },
            {
                "address": "0xeeeeeeeeeeeeeeeeeeeeeeeeeeeeeeeeeeeeeeee",
                "decimals": 18
            }
        ]
    },
    "address_label": {
        "labels": [
            {
                "address": "0x0000000000000000000000000000000000000002",
                "label": "Precompiled"
            },
            {
                "address": "0x0000000000000000000000000000000000000004",
                "label": "Precompiled"
            },
            {
                "address": "0xeeeeeeeeeeeeeeeeeeeeeeeeeeeeeeeeeeeeeeee",
                "label": "Ether"
            },
            {
                "address": "0x39aa39c021dfbae8fac545936693ac917d5e7563",
                "label": "Compound USD Coin (cUSDC)"
            },
            {
                "address": "0x3d9819210a31b4961b30ef54be2aed79b9c9cd3b",
                "label": "Compound: Comptroller"
            },
            {
                "address": "0xd8ec56013ea119e7181d231e5048f90fbbe753c0",
                "label": "LegacyJumpRateModelV2"
            },
            {
                "address": "0xa0b86991c6218b36c1d19d4a2e9eb0ce3606eb48",
                "label": "Circle: USDC Token"
            },
            {
                "address": "0x0000000000000000000000000000000000000001",
                "label": "Precompiled"
            },
            {
                "address": "0x7b5e3521a049c8ff88e6349f33044c6cc33c113c",
                "label": "Comptroller"
            },
            {
                "address": "0xb7277a6e95992041568d9391d09d0122023778a2",
                "label": "FiatTokenV2"
            },
            {
                "address": "0x0000000000000000000000000000000000000003",
                "label": "Precompiled"
            }
        ]
    },
    "trace": {
        "accountLabels": null,
        "dataMap": {
            "-1": {
                "invocation": {
                    "address": "0xdbd29a794c933ce9ceaf4292138149b00fc1db38",
                    "callData": "",
                    "decodedMethod": null,
                    "errorInfo": "",
                    "fromAddress": "",
                    "gasUsed": 0,
                    "id": -1,
                    "methodDecoded": false,
                    "operation": "",
                    "output": "",
                    "revert": false,
                    "revertMessage": "",
                    "selector": "",
                    "status": false,
                    "value": ""
                },
                "nodeType": 0
            },
            "0": {
                "invocation": {
                    "address": "0x39aa39c021dfbae8fac545936693ac917d5e7563",
                    "callData": "0x00000000000000000000000000000000000000000000000000000000002dc6c0",
                    "decodedMethod": {
                        "callParams": [
                            {
                                "name": "mintAmount",
                                "type": "uint256",
                                "value": "3,000,000"
                            }
                        ],
                        "constructorArguments": "",
                        "name": "mint",
                        "returnParams": [
                            {
                                "name": "",
                                "type": "uint256",
                                "value": "0"
                            }
                        ],
                        "signature": "mint(uint256)"
                    },
                    "errorInfo": "",
                    "fromAddress": "0xdbd29a794c933ce9ceaf4292138149b00fc1db38",
                    "gasUsed": 177613,
                    "id": 0,
                    "methodDecoded": true,
                    "operation": "CALL",
                    "output": "0x0000000000000000000000000000000000000000000000000000000000000000",
                    "revert": false,
                    "revertMessage": "",
                    "selector": "0xa0712d68",
                    "status": true,
                    "value": "0"
                },
                "nodeType": 0
            },
            "1": {
                "invocation": {
                    "address": "0xa0b86991c6218b36c1d19d4a2e9eb0ce3606eb48",
                    "callData": "0x00000000000000000000000039aa39c021dfbae8fac545936693ac917d5e7563",
                    "decodedMethod": {
                        "callParams": [
                            {
                                "name": "account",
                                "type": "address",
                                "value": "0x39aa39c021dfbae8fac545936693ac917d5e7563"
                            }
                        ],
                        "constructorArguments": "",
                        "name": "balanceOf",
                        "returnParams": [
                            {
                                "decimalAvailable": true,
                                "name": "",
                                "type": "uint256",
                                "value": "60,132,698,263,964"
                            }
                        ],
                        "signature": "balanceOf(address)"
                    },
                    "errorInfo": "",
                    "fromAddress": "0x39aa39c021dfbae8fac545936693ac917d5e7563",
                    "gasUsed": 3993,
                    "id": 1,
                    "methodDecoded": true,
                    "operation": "STATICCALL",
                    "output": "0x000000000000000000000000000000000000000000000000000036b0bc1e919c",
                    "revert": false,
                    "revertMessage": "",
                    "selector": "0x70a08231",
                    "status": true,
                    "value": "0"
                },
                "nodeType": 0
            },
            "10": {
                "invocation": {
                    "address": "0xb7277a6e95992041568d9391d09d0122023778a2",
                    "callData": "0x000000000000000000000000dbd29a794c933ce9ceaf4292138149b00fc1db3800000000000000000000000039aa39c021dfbae8fac545936693ac917d5e7563",
                    "decodedMethod": {
                        "callParams": [
                            {
                                "name": "owner",
                                "type": "address",
                                "value": "0xdbd29a794c933ce9ceaf4292138149b00fc1db38"
                            },
                            {
                                "name": "spender",
                                "type": "address",
                                "value": "0x39aa39c021dfbae8fac545936693ac917d5e7563"
                            }
                        ],
                        "constructorArguments": "",
                        "name": "allowance",
                        "returnParams": [
                            {
                                "decimalAvailable": true,
                                "name": "",
                                "type": "uint256",
                                "value": "115,792,089,237,316,195,423,570,985,008,687,907,853,269,984,665,640,564,039,457,584,007,913,129,639,935"
                            }
                        ],
                        "signature": "allowance(address,address)"
                    },
                    "errorInfo": "",
                    "fromAddress": "0xa0b86991c6218b36c1d19d4a2e9eb0ce3606eb48",
                    "gasUsed": 1337,
                    "id": 10,
                    "methodDecoded": true,
                    "operation": "DELEGATECALL",
                    "output": "0xffffffffffffffffffffffffffffffffffffffffffffffffffffffffffffffff",
                    "revert": false,
                    "revertMessage": "",
                    "selector": "0xdd62ed3e",
                    "status": true,
                    "value": "0"
                },
                "nodeType": 0
            },
            "11": {
                "invocation": {
                    "address": "0xa0b86991c6218b36c1d19d4a2e9eb0ce3606eb48",
                    "callData": "0x000000000000000000000000dbd29a794c933ce9ceaf4292138149b00fc1db38",
                    "decodedMethod": {
                        "callParams": [
                            {
                                "name": "account",
                                "type": "address",
                                "value": "0xdbd29a794c933ce9ceaf4292138149b00fc1db38"
                            }
                        ],
                        "constructorArguments": "",
                        "name": "balanceOf",
                        "returnParams": [
                            {
                                "decimalAvailable": true,
                                "name": "",
                                "type": "uint256",
                                "value": "3,000,000"
                            }
                        ],
                        "signature": "balanceOf(address)"
                    },
                    "errorInfo": "",
                    "fromAddress": "0x39aa39c021dfbae8fac545936693ac917d5e7563",
                    "gasUsed": 3993,
                    "id": 11,
                    "methodDecoded": true,
                    "operation": "STATICCALL",
                    "output": "0x00000000000000000000000000000000000000000000000000000000002dc6c0",
                    "revert": false,
                    "revertMessage": "",
                    "selector": "0x70a08231",
                    "status": true,
                    "value": "0"
                },
                "nodeType": 0
            },
            "12": {
                "invocation": {
                    "address": "0xb7277a6e95992041568d9391d09d0122023778a2",
                    "callData": "0x000000000000000000000000dbd29a794c933ce9ceaf4292138149b00fc1db38",
                    "decodedMethod": {
                        "callParams": [
                            {
                                "name": "account",
                                "type": "address",
                                "value": "0xdbd29a794c933ce9ceaf4292138149b00fc1db38"
                            }
                        ],
                        "constructorArguments": "",
                        "name": "balanceOf",
                        "returnParams": [
                            {
                                "decimalAvailable": true,
                                "name": "",
                                "type": "uint256",
                                "value": "3,000,000"
                            }
                        ],
                        "signature": "balanceOf(address)"
                    },
                    "errorInfo": "",
                    "fromAddress": "0xa0b86991c6218b36c1d19d4a2e9eb0ce3606eb48",
                    "gasUsed": 1207,
                    "id": 12,
                    "methodDecoded": true,
                    "operation": "DELEGATECALL",
                    "output": "0x00000000000000000000000000000000000000000000000000000000002dc6c0",
                    "revert": false,
                    "revertMessage": "",
                    "selector": "0x70a08231",
                    "status": true,
                    "value": "0"
                },
                "nodeType": 0
            },
            "13": {
                "invocation": {
                    "address": "0xa0b86991c6218b36c1d19d4a2e9eb0ce3606eb48",
                    "callData": "0x00000000000000000000000039aa39c021dfbae8fac545936693ac917d5e7563",
                    "decodedMethod": {
                        "callParams": [
                            {
                                "name": "account",
                                "type": "address",
                                "value": "0x39aa39c021dfbae8fac545936693ac917d5e7563"
                            }
                        ],
                        "constructorArguments": "",
                        "name": "balanceOf",
                        "returnParams": [
                            {
                                "decimalAvailable": true,
                                "name": "",
                                "type": "uint256",
                                "value": "60,132,698,263,964"
                            }
                        ],
                        "signature": "balanceOf(address)"
                    },
                    "errorInfo": "",
                    "fromAddress": "0x39aa39c021dfbae8fac545936693ac917d5e7563",
                    "gasUsed": 3993,
                    "id": 13,
                    "methodDecoded": true,
                    "operation": "STATICCALL",
                    "output": "0x000000000000000000000000000000000000000000000000000036b0bc1e919c",
                    "revert": false,
                    "revertMessage": "",
                    "selector": "0x70a08231",
                    "status": true,
                    "value": "0"
                },
                "nodeType": 0
            },
            "14": {
                "invocation": {
                    "address": "0xb7277a6e95992041568d9391d09d0122023778a2",
                    "callData": "0x00000000000000000000000039aa39c021dfbae8fac545936693ac917d5e7563",
                    "decodedMethod": {
                        "callParams": [
                            {
                                "name": "account",
                                "type": "address",
                                "value": "0x39aa39c021dfbae8fac545936693ac917d5e7563"
                            }
                        ],
                        "constructorArguments": "",
                        "name": "balanceOf",
                        "returnParams": [
                            {
                                "decimalAvailable": true,
                                "name": "",
                                "type": "uint256",
                                "value": "60,132,698,263,964"
                            }
                        ],
                        "signature": "balanceOf(address)"
                    },
                    "errorInfo": "",
                    "fromAddress": "0xa0b86991c6218b36c1d19d4a2e9eb0ce3606eb48",
                    "gasUsed": 1207,
                    "id": 14,
                    "methodDecoded": true,
                    "operation": "DELEGATECALL",
                    "output": "0x000000000000000000000000000000000000000000000000000036b0bc1e919c",
                    "revert": false,
                    "revertMessage": "",
                    "selector": "0x70a08231",
                    "status": true,
                    "value": "0"
                },
                "nodeType": 0
            },
            "15": {
                "invocation": {
                    "address": "0xa0b86991c6218b36c1d19d4a2e9eb0ce3606eb48",
                    "callData": "0x000000000000000000000000dbd29a794c933ce9ceaf4292138149b00fc1db3800000000000000000000000039aa39c021dfbae8fac545936693ac917d5e756300000000000000000000000000000000000000000000000000000000002dc6c0",
                    "decodedMethod": {
                        "callParams": [
                            {
                                "name": "from",
                                "type": "address",
                                "value": "0xdbd29a794c933ce9ceaf4292138149b00fc1db38"
                            },
                            {
                                "name": "to",
                                "type": "address",
                                "value": "0x39aa39c021dfbae8fac545936693ac917d5e7563"
                            },
                            {
                                "decimalAvailable": true,
                                "name": "value",
                                "type": "uint256",
                                "value": "3,000,000"
                            }
                        ],
                        "constructorArguments": "",
                        "name": "transferFrom",
                        "returnParams": [
                            {
                                "name": "",
                                "type": "bool",
                                "value": true
                            }
                        ],
                        "signature": "transferFrom(address,address,uint256)"
                    },
                    "errorInfo": "",
                    "fromAddress": "0x39aa39c021dfbae8fac545936693ac917d5e7563",
                    "gasUsed": 29014,
                    "id": 15,
                    "methodDecoded": true,
                    "operation": "CALL",
                    "output": "0x0000000000000000000000000000000000000000000000000000000000000001",
                    "revert": false,
                    "revertMessage": "",
                    "selector": "0x23b872dd",
                    "status": true,
                    "value": "0"
                },
                "nodeType": 0
            },
            "16": {
                "invocation": {
                    "address": "0xb7277a6e95992041568d9391d09d0122023778a2",
                    "callData": "0x000000000000000000000000dbd29a794c933ce9ceaf4292138149b00fc1db3800000000000000000000000039aa39c021dfbae8fac545936693ac917d5e756300000000000000000000000000000000000000000000000000000000002dc6c0",
                    "decodedMethod": {
                        "callParams": [
                            {
                                "name": "from",
                                "type": "address",
                                "value": "0xdbd29a794c933ce9ceaf4292138149b00fc1db38"
                            },
                            {
                                "name": "to",
                                "type": "address",
                                "value": "0x39aa39c021dfbae8fac545936693ac917d5e7563"
                            },
                            {
                                "decimalAvailable": true,
                                "name": "value",
                                "type": "uint256",
                                "value": "3,000,000"
                            }
                        ],
                        "constructorArguments": "",
                        "name": "transferFrom",
                        "returnParams": [
                            {
                                "name": "",
                                "type": "bool",
                                "value": true
                            }
                        ],
                        "signature": "transferFrom(address,address,uint256)"
                    },
                    "errorInfo": "",
                    "fromAddress": "0xa0b86991c6218b36c1d19d4a2e9eb0ce3606eb48",
                    "gasUsed": 26219,
                    "id": 16,
                    "methodDecoded": true,
                    "operation": "DELEGATECALL",
                    "output": "0x0000000000000000000000000000000000000000000000000000000000000001",
                    "revert": false,
                    "revertMessage": "",
                    "selector": "0x23b872dd",
                    "status": true,
                    "value": "0"
                },
                "nodeType": 0
            },
            "17": {
                "event": {
                    "contract": "0xa0b86991c6218b36c1d19d4a2e9eb0ce3606eb48",
                    "decodedLog": {
                        "name": "Transfer",
                        "params": [
                            {
                                "name": "from",
                                "type": "address",
                                "value": "0xdbd29a794c933ce9ceaf4292138149b00fc1db38"
                            },
                            {
                                "name": "to",
                                "type": "address",
                                "value": "0x39aa39c021dfbae8fac545936693ac917d5e7563"
                            },
                            {
                                "decimalAvailable": true,
                                "name": "value",
                                "type": "uint256",
                                "value": "3,000,000"
                            }
                        ],
                        "signature": "Transfer(address,address,uint256)"
                    },
                    "id": 17,
                    "logData": "0x00000000000000000000000000000000000000000000000000000000002dc6c0",
                    "logDecoded": true,
                    "operation": "EVENT",
                    "revert": false,
                    "status": true,
                    "topics": [
                        "0xddf252ad1be2c89b69c2b068fc378daa952ba7f163c4a11628f55a4df523b3ef",
                        "0x000000000000000000000000dbd29a794c933ce9ceaf4292138149b00fc1db38",
                        "0x00000000000000000000000039aa39c021dfbae8fac545936693ac917d5e7563"
                    ]
                },
                "nodeType": 1
            },
            "18": {
                "event": {
                    "contract": "0x39aa39c021dfbae8fac545936693ac917d5e7563",
                    "decodedLog": {
                        "name": "Mint",
                        "params": [
                            {
                                "name": "minter",
                                "type": "address",
                                "value": "0xdbd29a794c933ce9ceaf4292138149b00fc1db38"
                            },
                            {
                                "name": "mintAmount",
                                "type": "uint256",
                                "value": "3,000,000"
                            },
                            {
                                "name": "mintTokens",
                                "type": "uint256",
                                "value": "14,109,208,378"
                            }
                        ],
                        "signature": "Mint(address,uint256,uint256)"
                    },
                    "id": 18,
                    "logData": "0x000000000000000000000000dbd29a794c933ce9ceaf4292138149b00fc1db3800000000000000000000000000000000000000000000000000000000002dc6c00000000000000000000000000000000000000000000000000000000348f96f3a",
                    "logDecoded": true,
                    "operation": "EVENT",
                    "revert": false,
                    "status": true,
                    "topics": [
                        "0x4c209b5fc8ad50758f13e2e1088ba56a560dff690a1c6fef26394f4c03821c4f"
                    ]
                },
                "nodeType": 1
            },
            "19": {
                "event": {
                    "contract": "0x39aa39c021dfbae8fac545936693ac917d5e7563",
                    "decodedLog": {
                        "name": "Transfer",
                        "params": [
                            {
                                "name": "from",
                                "type": "address",
                                "value": "0x39aa39c021dfbae8fac545936693ac917d5e7563"
                            },
                            {
                                "name": "to",
                                "type": "address",
                                "value": "0xdbd29a794c933ce9ceaf4292138149b00fc1db38"
                            },
                            {
                                "decimalAvailable": true,
                                "name": "amount",
                                "type": "uint256",
                                "value": "14,109,208,378"
                            }
                        ],
                        "signature": "Transfer(address,address,uint256)"
                    },
                    "id": 19,
                    "logData": "0x0000000000000000000000000000000000000000000000000000000348f96f3a",
                    "logDecoded": true,
                    "operation": "EVENT",
                    "revert": false,
                    "status": true,
                    "topics": [
                        "0xddf252ad1be2c89b69c2b068fc378daa952ba7f163c4a11628f55a4df523b3ef",
                        "0x00000000000000000000000039aa39c021dfbae8fac545936693ac917d5e7563",
                        "0x000000000000000000000000dbd29a794c933ce9ceaf4292138149b00fc1db38"
                    ]
                },
                "nodeType": 1
            },
            "2": {
                "invocation": {
                    "address": "0xb7277a6e95992041568d9391d09d0122023778a2",
                    "callData": "0x00000000000000000000000039aa39c021dfbae8fac545936693ac917d5e7563",
                    "decodedMethod": {
                        "callParams": [
                            {
                                "name": "account",
                                "type": "address",
                                "value": "0x39aa39c021dfbae8fac545936693ac917d5e7563"
                            }
                        ],
                        "constructorArguments": "",
                        "name": "balanceOf",
                        "returnParams": [
                            {
                                "decimalAvailable": true,
                                "name": "",
                                "type": "uint256",
                                "value": "60,132,698,263,964"
                            }
                        ],
                        "signature": "balanceOf(address)"
                    },
                    "errorInfo": "",
                    "fromAddress": "0xa0b86991c6218b36c1d19d4a2e9eb0ce3606eb48",
                    "gasUsed": 1207,
                    "id": 2,
                    "methodDecoded": true,
                    "operation": "DELEGATECALL",
                    "output": "0x000000000000000000000000000000000000000000000000000036b0bc1e919c",
                    "revert": false,
                    "revertMessage": "",
                    "selector": "0x70a08231",
                    "status": true,
                    "value": "0"
                },
                "nodeType": 0
            },
            "20": {
                "invocation": {
                    "address": "0x3d9819210a31b4961b30ef54be2aed79b9c9cd3b",
                    "callData": "0x00000000000000000000000039aa39c021dfbae8fac545936693ac917d5e7563000000000000000000000000dbd29a794c933ce9ceaf4292138149b00fc1db3800000000000000000000000000000000000000000000000000000000002dc6c00000000000000000000000000000000000000000000000000000000348f96f3a",
                    "decodedMethod": {
                        "callParams": [
                            {
                                "name": "cToken",
                                "type": "address",
                                "value": "0x39aa39c021dfbae8fac545936693ac917d5e7563"
                            },
                            {
                                "name": "minter",
                                "type": "address",
                                "value": "0xdbd29a794c933ce9ceaf4292138149b00fc1db38"
                            },
                            {
                                "name": "actualMintAmount",
                                "type": "uint256",
                                "value": "3,000,000"
                            },
                            {
                                "name": "mintTokens",
                                "type": "uint256",
                                "value": "14,109,208,378"
                            }
                        ],
                        "constructorArguments": "",
                        "name": "mintVerify",
                        "returnParams": [],
                        "signature": "mintVerify(address,address,uint256,uint256)"
                    },
                    "errorInfo": "",
                    "fromAddress": "0x39aa39c021dfbae8fac545936693ac917d5e7563",
                    "gasUsed": 2316,
                    "id": 20,
                    "methodDecoded": true,
                    "operation": "CALL",
                    "output": "",
                    "revert": false,
                    "revertMessage": "",
                    "selector": "0x41c728b9",
                    "status": true,
                    "value": "0"
                },
                "nodeType": 0
            },
            "21": {
                "invocation": {
                    "address": "0x7b5e3521a049c8ff88e6349f33044c6cc33c113c",
                    "callData": "0x00000000000000000000000039aa39c021dfbae8fac545936693ac917d5e7563000000000000000000000000dbd29a794c933ce9ceaf4292138149b00fc1db3800000000000000000000000000000000000000000000000000000000002dc6c00000000000000000000000000000000000000000000000000000000348f96f3a",
                    "decodedMethod": {
                        "callParams": [
                            {
                                "name": "cToken",
                                "type": "address",
                                "value": "0x39aa39c021dfbae8fac545936693ac917d5e7563"
                            },
                            {
                                "name": "minter",
                                "type": "address",
                                "value": "0xdbd29a794c933ce9ceaf4292138149b00fc1db38"
                            },
                            {
                                "name": "actualMintAmount",
                                "type": "uint256",
                                "value": "3,000,000"
                            },
                            {
                                "name": "mintTokens",
                                "type": "uint256",
                                "value": "14,109,208,378"
                            }
                        ],
                        "constructorArguments": "",
                        "name": "mintVerify",
                        "returnParams": [],
                        "signature": "mintVerify(address,address,uint256,uint256)"
                    },
                    "errorInfo": "",
                    "fromAddress": "0x3d9819210a31b4961b30ef54be2aed79b9c9cd3b",
                    "gasUsed": 403,
                    "id": 21,
                    "methodDecoded": true,
                    "operation": "DELEGATECALL",
                    "output": "",
                    "revert": false,
                    "revertMessage": "",
                    "selector": "0x41c728b9",
                    "status": true,
                    "value": "0"
                },
                "nodeType": 0
            },
            "3": {
                "invocation": {
                    "address": "0xd8ec56013ea119e7181d231e5048f90fbbe753c0",
                    "callData": "0x000000000000000000000000000000000000000000000000000036b0bc1e919c0000000000000000000000000000000000000000000000000001079659158d3f0000000000000000000000000000000000000000000000000000003509020fbc",
                    "decodedMethod": {
                        "callParams": [
                            {
                                "name": "cash",
                                "type": "uint256",
                                "value": "60,132,698,263,964"
                            },
                            {
                                "name": "borrows",
                                "type": "uint256",
                                "value": "289,817,297,784,127"
                            },
                            {
                                "name": "reserves",
                                "type": "uint256",
                                "value": "227,784,396,732"
                            }
                        ],
                        "constructorArguments": "",
                        "name": "getBorrowRate",
                        "returnParams": [
                            {
                                "name": "",
                                "type": "uint256",
                                "value": "0"
                            },
                            {
                                "name": "",
                                "type": "uint256",
                                "value": "33,909,244,186"
                            }
                        ],
                        "signature": "getBorrowRate(uint256,uint256,uint256)"
                    },
                    "errorInfo": "",
                    "fromAddress": "0x39aa39c021dfbae8fac545936693ac917d5e7563",
                    "gasUsed": 7014,
                    "id": 3,
                    "methodDecoded": true,
                    "operation": "STATICCALL",
                    "output": "0x000000000000000000000000000000000000000000000000000000000000000000000000000000000000000000000000000000000000000000000007e526011a",
                    "revert": false,
                    "revertMessage": "",
                    "selector": "0x15f24053",
                    "status": true,
                    "value": "0"
                },
                "nodeType": 0
            },
            "4": {
                "event": {
                    "contract": "0x39aa39c021dfbae8fac545936693ac917d5e7563",
                    "decodedLog": {
                        "name": "AccrueInterest",
                        "params": [
                            {
                                "name": "interestAccumulated",
                                "type": "uint256",
                                "value": "0"
                            },
                            {
                                "name": "borrowIndex",
                                "type": "uint256",
                                "value": "1,137,292,022,304,809,088"
                            },
                            {
                                "name": "totalBorrows",
                                "type": "uint256",
                                "value": "289,817,297,784,127"
                            }
                        ],
                        "signature": "AccrueInterest(uint256,uint256,uint256)"
                    },
                    "id": 4,
                    "logData": "0x00000000000000000000000000000000000000000000000000000000000000000000000000000000000000000000000000000000000000000fc87911935d20800000000000000000000000000000000000000000000000000001079659158d3f",
                    "logDecoded": true,
                    "operation": "EVENT",
                    "revert": false,
                    "status": true,
                    "topics": [
                        "0x875352fb3fadeb8c0be7cbbe8ff761b308fa7033470cd0287f02f3436fd76cb9"
                    ]
                },
                "nodeType": 1
            },
            "5": {
                "invocation": {
                    "address": "0x3d9819210a31b4961b30ef54be2aed79b9c9cd3b",
                    "callData": "0x00000000000000000000000039aa39c021dfbae8fac545936693ac917d5e7563000000000000000000000000dbd29a794c933ce9ceaf4292138149b00fc1db3800000000000000000000000000000000000000000000000000000000002dc6c0",
                    "decodedMethod": {
                        "callParams": [
                            {
                                "name": "cToken",
                                "type": "address",
                                "value": "0x39aa39c021dfbae8fac545936693ac917d5e7563"
                            },
                            {
                                "name": "minter",
                                "type": "address",
                                "value": "0xdbd29a794c933ce9ceaf4292138149b00fc1db38"
                            },
                            {
                                "name": "mintAmount",
                                "type": "uint256",
                                "value": "3,000,000"
                            }
                        ],
                        "constructorArguments": "",
                        "name": "mintAllowed",
                        "returnParams": [
                            {
                                "name": "",
                                "type": "uint256",
                                "value": "0"
                            }
                        ],
                        "signature": "mintAllowed(address,address,uint256)"
                    },
                    "errorInfo": "",
                    "fromAddress": "0x39aa39c021dfbae8fac545936693ac917d5e7563",
                    "gasUsed": 36425,
                    "id": 5,
                    "methodDecoded": true,
                    "operation": "CALL",
                    "output": "0x0000000000000000000000000000000000000000000000000000000000000000",
                    "revert": false,
                    "revertMessage": "",
                    "selector": "0x4ef4c3e1",
                    "status": true,
                    "value": "0"
                },
                "nodeType": 0
            },
            "6": {
                "invocation": {
                    "address": "0x7b5e3521a049c8ff88e6349f33044c6cc33c113c",
                    "callData": "0x00000000000000000000000039aa39c021dfbae8fac545936693ac917d5e7563000000000000000000000000dbd29a794c933ce9ceaf4292138149b00fc1db3800000000000000000000000000000000000000000000000000000000002dc6c0",
                    "decodedMethod": {
                        "callParams": [
                            {
                                "name": "cToken",
                                "type": "address",
                                "value": "0x39aa39c021dfbae8fac545936693ac917d5e7563"
                            },
                            {
                                "name": "minter",
                                "type": "address",
                                "value": "0xdbd29a794c933ce9ceaf4292138149b00fc1db38"
                            },
                            {
                                "name": "mintAmount",
                                "type": "uint256",
                                "value": "3,000,000"
                            }
                        ],
                        "constructorArguments": "",
                        "name": "mintAllowed",
                        "returnParams": [
                            {
                                "name": "",
                                "type": "uint256",
                                "value": "0"
                            }
                        ],
                        "signature": "mintAllowed(address,address,uint256)"
                    },
                    "errorInfo": "",
                    "fromAddress": "0x3d9819210a31b4961b30ef54be2aed79b9c9cd3b",
                    "gasUsed": 34445,
                    "id": 6,
                    "methodDecoded": true,
                    "operation": "DELEGATECALL",
                    "output": "0x0000000000000000000000000000000000000000000000000000000000000000",
                    "revert": false,
                    "revertMessage": "",
                    "selector": "0x4ef4c3e1",
                    "status": true,
                    "value": "0"
                },
                "nodeType": 0
            },
            "7": {
                "invocation": {
                    "address": "0x39aa39c021dfbae8fac545936693ac917d5e7563",
                    "callData": "0x000000000000000000000000dbd29a794c933ce9ceaf4292138149b00fc1db38",
                    "decodedMethod": {
                        "callParams": [
                            {
                                "name": "owner",
                                "type": "address",
                                "value": "0xdbd29a794c933ce9ceaf4292138149b00fc1db38"
                            }
                        ],
                        "constructorArguments": "",
                        "name": "balanceOf",
                        "returnParams": [
                            {
                                "decimalAvailable": true,
                                "name": "",
                                "type": "uint256",
                                "value": "0"
                            }
                        ],
                        "signature": "balanceOf(address)"
                    },
                    "errorInfo": "",
                    "fromAddress": "0x3d9819210a31b4961b30ef54be2aed79b9c9cd3b",
                    "gasUsed": 1253,
                    "id": 7,
                    "methodDecoded": true,
                    "operation": "STATICCALL",
                    "output": "0x0000000000000000000000000000000000000000000000000000000000000000",
                    "revert": false,
                    "revertMessage": "",
                    "selector": "0x70a08231",
                    "status": true,
                    "value": "0"
                },
                "nodeType": 0
            },
            "8": {
                "event": {
                    "contract": "0x3d9819210a31b4961b30ef54be2aed79b9c9cd3b",
                    "decodedLog": {
                        "name": "DistributedSupplierComp",
                        "params": [
                            {
                                "name": "cToken",
                                "type": "address",
                                "value": "0x39aa39c021dfbae8fac545936693ac917d5e7563"
                            },
                            {
                                "name": "supplier",
                                "type": "address",
                                "value": "0xdbd29a794c933ce9ceaf4292138149b00fc1db38"
                            },
                            {
                                "name": "compDelta",
                                "type": "uint256",
                                "value": "0"
                            },
                            {
                                "name": "compSupplyIndex",
                                "type": "uint256",
                                "value": "18,761,771,503,148,683,632,462,346,697,936,248,053,840"
                            }
                        ],
                        "signature": "DistributedSupplierComp(address,address,uint256,uint256)"
                    },
                    "id": 8,
                    "logData": "0x00000000000000000000000000000000000000000000000000000000000000000000000000000000000000000000003722c9c13860e2ecc97e85e3c9c2e52050",
                    "logDecoded": true,
                    "operation": "EVENT",
                    "revert": false,
                    "status": true,
                    "topics": [
                        "0x2caecd17d02f56fa897705dcc740da2d237c373f70686f4e0d9bd3bf0400ea7a",
                        "0x00000000000000000000000039aa39c021dfbae8fac545936693ac917d5e7563",
                        "0x000000000000000000000000dbd29a794c933ce9ceaf4292138149b00fc1db38"
                    ]
                },
                "nodeType": 1
            },
            "9": {
                "invocation": {
                    "address": "0xa0b86991c6218b36c1d19d4a2e9eb0ce3606eb48",
                    "callData": "0x000000000000000000000000dbd29a794c933ce9ceaf4292138149b00fc1db3800000000000000000000000039aa39c021dfbae8fac545936693ac917d5e7563",
                    "decodedMethod": {
                        "callParams": [
                            {
                                "name": "owner",
                                "type": "address",
                                "value": "0xdbd29a794c933ce9ceaf4292138149b00fc1db38"
                            },
                            {
                                "name": "spender",
                                "type": "address",
                                "value": "0x39aa39c021dfbae8fac545936693ac917d5e7563"
                            }
                        ],
                        "constructorArguments": "",
                        "name": "allowance",
                        "returnParams": [
                            {
                                "decimalAvailable": true,
                                "name": "",
                                "type": "uint256",
                                "value": "115,792,089,237,316,195,423,570,985,008,687,907,853,269,984,665,640,564,039,457,584,007,913,129,639,935"
                            }
                        ],
                        "signature": "allowance(address,address)"
                    },
                    "errorInfo": "",
                    "fromAddress": "0x39aa39c021dfbae8fac545936693ac917d5e7563",
                    "gasUsed": 4126,
                    "id": 9,
                    "methodDecoded": true,
                    "operation": "STATICCALL",
                    "output": "0xffffffffffffffffffffffffffffffffffffffffffffffffffffffffffffffff",
                    "revert": false,
                    "revertMessage": "",
                    "selector": "0xdd62ed3e",
                    "status": true,
                    "value": "0"
                },
                "nodeType": 0
            }
        },
        "gasFlame": [
            {
                "children": [
                    {
                        "children": [
                            {
                                "children": [],
                                "depth": 0,
                                "name": "Initial Gas",
                                "value": 21228
                            },
                            {
                                "children": [
                                    {
                                        "children": [
                                            {
                                                "children": [],
                                                "depth": 2,
                                                "name": "balanceOf",
                                                "value": 1207
                                            }
                                        ],
                                        "depth": 1,
                                        "name": "balanceOf",
                                        "value": 3993
                                    },
                                    {
                                        "children": [],
                                        "depth": 1,
                                        "name": "getBorrowRate",
                                        "value": 7014
                                    },
                                    {
                                        "children": [
                                            {
                                                "children": [
                                                    {
                                                        "children": [],
                                                        "depth": 3,
                                                        "name": "balanceOf",
                                                        "value": 1253
                                                    }
                                                ],
                                                "depth": 2,
                                                "name": "mintAllowed",
                                                "value": 34445
                                            }
                                        ],
                                        "depth": 1,
                                        "name": "mintAllowed",
                                        "value": 36425
                                    },
                                    {
                                        "children": [
                                            {
                                                "children": [],
                                                "depth": 2,
                                                "name": "allowance",
                                                "value": 1337
                                            }
                                        ],
                                        "depth": 1,
                                        "name": "allowance",
                                        "value": 4126
                                    },
                                    {
                                        "children": [
                                            {
                                                "children": [],
                                                "depth": 2,
                                                "name": "balanceOf",
                                                "value": 1207
                                            }
                                        ],
                                        "depth": 1,
                                        "name": "balanceOf",
                                        "value": 3993
                                    },
                                    {
                                        "children": [
                                            {
                                                "children": [],
                                                "depth": 2,
                                                "name": "balanceOf",
                                                "value": 1207
                                            }
                                        ],
                                        "depth": 1,
                                        "name": "balanceOf",
                                        "value": 3993
                                    },
                                    {
                                        "children": [
                                            {
                                                "children": [],
                                                "depth": 2,
                                                "name": "transferFrom",
                                                "value": 26219
                                            }
                                        ],
                                        "depth": 1,
                                        "name": "transferFrom",
                                        "value": 29014
                                    },
                                    {
                                        "children": [
                                            {
                                                "children": [],
                                                "depth": 2,
                                                "name": "mintVerify",
                                                "value": 403
                                            }
                                        ],
                                        "depth": 1,
                                        "name": "mintVerify",
                                        "value": 2316
                                    }
                                ],
                                "depth": 0,
                                "name": "Executed Gas",
                                "value": 171385
                            }
                        ],
                        "depth": -1,
                        "name": "Actual Gas Used",
                        "value": 177613
                    },
                    {
                        "children": [],
                        "depth": -1,
                        "name": "Refunded Gas",
                        "value": 15000
                    }
                ],
                "depth": -2,
                "name": "Total Gas",
                "value": 192613
            }
        ],
        "isConfirmed": true,
        "mainTrace": [
            {
                "children": [
                    {
                        "children": [
                            {
                                "children": [
                                    {
                                        "children": [],
                                        "depth": 2,
                                        "id": 2,
                                        "order": 2
                                    }
                                ],
                                "depth": 1,
                                "id": 1,
                                "order": 1
                            },
                            {
                                "children": [],
                                "depth": 1,
                                "id": 3,
                                "order": 3
                            },
                            {
                                "children": [],
                                "depth": 1,
                                "id": 4,
                                "order": 4
                            },
                            {
                                "children": [
                                    {
                                        "children": [
                                            {
                                                "children": [],
                                                "depth": 3,
                                                "id": 7,
                                                "order": 7
                                            },
                                            {
                                                "children": [],
                                                "depth": 3,
                                                "id": 8,
                                                "order": 8
                                            }
                                        ],
                                        "depth": 2,
                                        "id": 6,
                                        "order": 6
                                    }
                                ],
                                "depth": 1,
                                "id": 5,
                                "order": 5
                            },
                            {
                                "children": [
                                    {
                                        "children": [],
                                        "depth": 2,
                                        "id": 10,
                                        "order": 10
                                    }
                                ],
                                "depth": 1,
                                "id": 9,
                                "order": 9
                            },
                            {
                                "children": [
                                    {
                                        "children": [],
                                        "depth": 2,
                                        "id": 12,
                                        "order": 12
                                    }
                                ],
                                "depth": 1,
                                "id": 11,
                                "order": 11
                            },
                            {
                                "children": [
                                    {
                                        "children": [],
                                        "depth": 2,
                                        "id": 14,
                                        "order": 14
                                    }
                                ],
                                "depth": 1,
                                "id": 13,
                                "order": 13
                            },
                            {
                                "children": [
                                    {
                                        "children": [
                                            {
                                                "children": [],
                                                "depth": 3,
                                                "id": 17,
                                                "order": 17
                                            }
                                        ],
                                        "depth": 2,
                                        "id": 16,
                                        "order": 16
                                    }
                                ],
                                "depth": 1,
                                "id": 15,
                                "order": 15
                            },
                            {
                                "children": [],
                                "depth": 1,
                                "id": 18,
                                "order": 18
                            },
                            {
                                "children": [],
                                "depth": 1,
                                "id": 19,
                                "order": 19
                            },
                            {
                                "children": [
                                    {
                                        "children": [],
                                        "depth": 2,
                                        "id": 21,
                                        "order": 21
                                    }
                                ],
                                "depth": 1,
                                "id": 20,
                                "order": 20
                            }
                        ],
                        "depth": 0,
                        "id": 0,
                        "order": 0
                    }
                ],
                "depth": -1,
                "id": -1,
                "order": -1
            }
        ],
        "mainTraceNodeCount": 22,
        "parentIdMap": {
            "0": -1,
            "1": 0,
            "10": 9,
            "11": 0,
            "12": 11,
            "13": 0,
            "14": 13,
            "15": 0,
            "16": 15,
            "17": 16,
            "18": 0,
            "19": 0,
            "2": 1,
            "20": 0,
            "21": 20,
            "3": 0,
            "4": 0,
            "5": 0,
            "6": 5,
            "7": 6,
            "8": 6,
            "9": 0
        },
        "tidyTrace": [
            {
                "children": [
                    {
                        "children": [
                            {
                                "children": [],
                                "depth": 1,
                                "id": 4,
                                "order": 4
                            },
                            {
                                "children": [
                                    {
                                        "children": [
                                            {
                                                "children": [],
                                                "depth": 3,
                                                "id": 8,
                                                "order": 8
                                            }
                                        ],
                                        "depth": 2,
                                        "id": 6,
                                        "order": 6
                                    }
                                ],
                                "depth": 1,
                                "id": 5,
                                "order": 5
                            },
                            {
                                "children": [
                                    {
                                        "children": [
                                            {
                                                "children": [],
                                                "depth": 3,
                                                "id": 17,
                                                "order": 17
                                            }
                                        ],
                                        "depth": 2,
                                        "id": 16,
                                        "order": 16
                                    }
                                ],
                                "depth": 1,
                                "id": 15,
                                "order": 15
                            },
                            {
                                "children": [],
                                "depth": 1,
                                "id": 18,
                                "order": 18
                            },
                            {
                                "children": [],
                                "depth": 1,
                                "id": 19,
                                "order": 19
                            },
                            {
                                "children": [
                                    {
                                        "children": [],
                                        "depth": 2,
                                        "id": 21,
                                        "order": 21
                                    }
                                ],
                                "depth": 1,
                                "id": 20,
                                "order": 20
                            }
                        ],
                        "depth": 0,
                        "id": 0,
                        "order": 0
                    }
                ],
                "depth": -1,
                "id": -1,
                "order": -1
            }
        ],
        "tidyTraceNodeCount": 12
    },
    "state_change": {
        "stateChanges": [
            {
                "address": "0x39aa39c021dfbae8fac545936693ac917d5e7563",
                "erc": "ERC-20",
                "slots": [
                    {
                        "current": "0x000000000000000000000000000000000000000000000000000000000006cee4",
                        "key": "0x0000000000000000000000000000000000000000000000000000000000000000",
                        "prev": "0x000000000000000000000000000000000000000000000000000000000006cee3"
                    },
                    {
                        "current": "0x00000000000000000000000000000000000000000000000016d363a921d1485d",
                        "key": "0x000000000000000000000000000000000000000000000000000000000000000e",
                        "prev": "0x00000000000000000000000000000000000000000000000016d363a5d8d7d923"
                    },
                    {
                        "current": "0x0000000000000000000000000000000000000000000000000000000348f96f3a",
                        "key": "0x8b709bea34b75a0cd5e64c184dc5b0b083bd6166d8ed2d69fb63e03c7f9e4481",
                        "prev": "0x0000000000000000000000000000000000000000000000000000000000000000"
                    }
                ],
                "storageVariables": [
                    {
                        "name": "_guardCounter",
                        "type": "uint256",
                        "value": {
                            "current": "446180",
                            "prev": "446179",
                            "typeTag": 1
                        }
                    },
                    {
                        "name": "totalSupply",
                        "type": "uint256",
                        "value": {
                            "current": "1644767866988349533",
                            "prev": "1644767852879141155",
                            "typeTag": 1
                        }
                    },
                    {
                        "name": "accountTokens",
                        "type": "mapping(address => uint256)",
                        "value": {
                            "pairs": [
                                {
                                    "key": "0xdbd29a794c933ce9ceaf4292138149b00fc1db38",
                                    "value": {
                                        "current": "14109208378",
                                        "prev": "0",
                                        "typeTag": 1
                                    }
                                }
                            ],
                            "typeTag": 4
                        }
                    }
                ]
            },
            {
                "address": "0x3d9819210a31b4961b30ef54be2aed79b9c9cd3b",
                "erc": "",
                "slots": [
                    {
                        "current": "0x0000000000000000000000000000003722c9c13860e2ecc97e85e3c9c2e52050",
                        "key": "0x2e56908bc998cc4bc6d2fdda0d26eb3fce6d6335bebb552df68910d0002c8652",
                        "prev": "0x0000000000000000000000000000000000000000000000000000000000000000"
                    }
                ],
                "storageVariables": [
                    {
                        "name": "compSupplierIndex",
                        "type": "mapping(address => mapping(address => uint256))",
                        "value": {
                            "pairs": [
                                {
                                    "key": "0x39aa39c021dfbae8fac545936693ac917d5e7563",
                                    "value": {
                                        "pairs": [
                                            {
                                                "key": "0xdbd29a794c933ce9ceaf4292138149b00fc1db38",
                                                "value": {
                                                    "current": "18761771503148683632462346697936248053840",
                                                    "prev": "0",
                                                    "typeTag": 1
                                                }
                                            }
                                        ],
                                        "typeTag": 4
                                    }
                                }
                            ],
                            "typeTag": 4
                        }
                    }
                ]
            },
            {
                "address": "0xa0b86991c6218b36c1d19d4a2e9eb0ce3606eb48",
                "erc": "ERC-20",
                "slots": [
                    {
                        "current": "0x0000000000000000000000000000000000000000000000000000000000000000",
                        "key": "0x10c0c4d1e5834d8e81a1fbc84d78e83ea9212a4618ab286cda48fda49994a77a",
                        "prev": "0x00000000000000000000000000000000000000000000000000000000002dc6c0"
                    },
                    {
                        "current": "0x000000000000000000000000000000000000000000000000000036b0bc4c585c",
                        "key": "0xbccdc544072f1d154275788f84bcf1a9429a7563287106936a820738716d6e84",
                        "prev": "0x000000000000000000000000000000000000000000000000000036b0bc1e919c"
                    },
                    {
                        "current": "0xffffffffffffffffffffffffffffffffffffffffffffffffffffffffffd2393f",
                        "key": "0xd94bd28d853256ab10a5a8d2aaa04ba747d43b330f124237e5f7b65931245de1",
                        "prev": "0xffffffffffffffffffffffffffffffffffffffffffffffffffffffffffffffff"
                    }
                ],
                "storageVariables": [
                    {
                        "name": "balances",
                        "type": "mapping(address => uint256)",
                        "value": {
                            "pairs": [
                                {
                                    "key": "0x39aa39c021dfbae8fac545936693ac917d5e7563",
                                    "value": {
                                        "current": "60132701263964",
                                        "prev": "60132698263964",
                                        "typeTag": 1
                                    }
                                },
                                {
                                    "key": "0xdbd29a794c933ce9ceaf4292138149b00fc1db38",
                                    "value": {
                                        "current": "0",
                                        "prev": "3000000",
                                        "typeTag": 1
                                    }
                                }
                            ],
                            "typeTag": 4
                        }
                    },
                    {
                        "name": "allowed",
                        "type": "mapping(address => mapping(address => uint256))",
                        "value": {
                            "pairs": [
                                {
                                    "key": "0xdbd29a794c933ce9ceaf4292138149b00fc1db38",
                                    "value": {
                                        "pairs": [
                                            {
                                                "key": "0x39aa39c021dfbae8fac545936693ac917d5e7563",
                                                "value": {
                                                    "current": "115792089237316195423570985008687907853269984665640564039457584007913126639935",
                                                    "prev": "115792089237316195423570985008687907853269984665640564039457584007913129639935",
                                                    "typeTag": 1
                                                }
                                            }
                                        ],
                                        "typeTag": 4
                                    }
                                }
                            ],
                            "typeTag": 4
                        }
                    }
                ]
            }
        ]
    }
}